{
    "balance_change": {
        "balanceChanges": [
            {
                "account": "0xb111f6659d26cf797a25bc61a608a75133fe1f81",
                "assets": [
                    {
                        "address": "0xec53bf9167f50cdeb3ae105f56099aaab9061f83",
                        "amount": "110",
                        "iconUrl": "",
                        "isERC1155": false,
                        "isERC721": false,
                        "sign": true,
                        "value": ""
                    }
                ]
            },
            {
                "account": "0xacb55c530acdb2849e6d4f36992cd8c9d50ed8f7",
                "assets": [
                    {
                        "address": "0x83e9115d334d248ce39a6f36144aeab5b3456e75",
                        "amount": "110",
                        "iconUrl": "",
                        "isERC1155": false,
                        "isERC721": false,
                        "sign": false,
                        "value": ""
                    }
                ]
            },
            {
                "account": "0xec53bf9167f50cdeb3ae105f56099aaab9061f83",
                "assets": [
                    {
                        "address": "0x83e9115d334d248ce39a6f36144aeab5b3456e75",
                        "amount": "110",
                        "iconUrl": "",
                        "isERC1155": false,
                        "isERC721": false,
                        "sign": true,
                        "value": ""
                    },
                    {
                        "address": "0xec53bf9167f50cdeb3ae105f56099aaab9061f83",
                        "amount": "110",
                        "iconUrl": "",
                        "isERC1155": false,
                        "isERC721": false,
                        "sign": false,
                        "value": ""
                    }
                ]
            }
        ]
    },
    "profile": {
        "basic_info": {
            "baseFee": "3.258098215",
            "blockNumber": 20661855,
            "callData": "0x334043960000000000000000000000000000000000000000000000000000000000000080000000000000000000000000000000000000000000000000000000000000022000000000000000000000000000000000000000000000000000000000000002a000000000000000000000000000000000000000000000000000000000000002e000000000000000000000000000000000000000000000000000000000000000010000000000000000000000000000000000000000000000000000000000000020000000000000000000000000b111f6659d26cf797a25bc61a608a75133fe1f810000000000000000000000005accc90436492f24e6af278569691e2c942a676d000000000000000000000000b111f6659d26cf797a25bc61a608a75133fe1f81000000000000000000000000000000000000000000000000000000000000000000000000000000000000000000000000000000000000000000000000013a7c9f00000000000000000000000000000000000000000000000000000000000000e000000000000000000000000000000000000000000000000000000000000001200000000000000000000000000000000000000000000000000000000000000001000000000000000000000000acb55c530acdb2849e6d4f36992cd8c9d50ed8f70000000000000000000000000000000000000000000000000000000000000001000000000000000000000000000000000000000000000005f68e8131ecf80000000000000000000000000000000000000000000000000000000000000000000100000000000000000000000000000000000000000000000000000000000000200000000000000000000000000000000000000000000000000000000000000001000000000000000000000000ec53bf9167f50cdeb3ae105f56099aaab9061f830000000000000000000000000000000000000000000000000000000000000001000000000000000000000000000000000000000000000000000000000000000000000000000000000000000000000000000000000000000000000000000000010000000000000000000000000000000000000000000000000000000000000001",
            "debugEnable": true,
            "errorInfo": "",
            "eventCount": 6,
            "feeRecipient": "0x3720d02ad0142c1416aa9928c02653f4eac64ed2",
            "formatValue": "0",
            "gasLimit": 296803,
            "gasPrice": "3.298098215",
            "gasUsed": 187036,
            "intTxnCount": 15,
            "internalRevert": false,
            "internalRevertMessage": "",
            "isContractCreation": false,
            "isFlashloan": false,
            "maxFee": "4.36",
            "nonce": 24,
            "overwritedBlockNumber": -1,
            "priorityFee": "0.04",
            "receiver": "0x39053d51b77dc0d36036fc1fcc8cb819df8ef37a",
            "revertMessage": "",
            "sender": "0xb111f6659d26cf797a25bc61a608a75133fe1f81",
            "simulationEnable": true,
            "sourceTxnHash": "0x26d4be206939990f5ea4c7460c174993bae1119720e708e0b74692ad505710be",
            "status": true,
            "timestamp": "2024-09-02T09:01:11Z",
            "transactionFee": "0.00061686309774074",
            "txnHash": "0x26d4be206939990f5ea4c7460c174993bae1119720e708e0b74692ad505710be",
            "txnIndex": 58,
            "type": 2,
            "value": "0"
        },
        "fund_flow": [
            {
                "amount": "110",
                "from": "0xacb55c530acdb2849e6d4f36992cd8c9d50ed8f7",
                "id": 1,
                "isERC1155": false,
                "isERC721": false,
                "isReverted": false,
                "order": 1,
                "to": "0xec53bf9167f50cdeb3ae105f56099aaab9061f83",
                "token": "0x83e9115d334d248ce39a6f36144aeab5b3456e75"
            },
            {
                "amount": "110",
                "from": "0xec53bf9167f50cdeb3ae105f56099aaab9061f83",
                "id": 2,
                "isERC1155": false,
                "isERC721": false,
                "isReverted": false,
                "order": 2,
                "to": "0xacb55c530acdb2849e6d4f36992cd8c9d50ed8f7",
                "token": "0xec53bf9167f50cdeb3ae105f56099aaab9061f83"
            },
            {
                "amount": "110",
                "from": "0xacb55c530acdb2849e6d4f36992cd8c9d50ed8f7",
                "id": 3,
                "isERC1155": false,
                "isERC721": false,
                "isReverted": false,
                "order": 3,
                "to": "0xb111f6659d26cf797a25bc61a608a75133fe1f81",
                "token": "0xec53bf9167f50cdeb3ae105f56099aaab9061f83"
            }
        ],
        "token_infos": [
            {
                "address": "0x83e9115d334d248ce39a6f36144aeab5b3456e75",
                "decimals": 18
            },
            {
                "address": "0xc02aaa39b223fe8d0a0e5c4f27ead9083c756cc2",
                "decimals": 18
            },
            {
                "address": "0xec53bf9167f50cdeb3ae105f56099aaab9061f83",
                "decimals": 18
            },
            {
                "address": "0xeeeeeeeeeeeeeeeeeeeeeeeeeeeeeeeeeeeeeeee",
                "decimals": 18
            }
        ]
    },
    "address_label": {
        "labels": [
            {
                "address": "0xec53bf9167f50cdeb3ae105f56099aaab9061f83",
                "label": "EigenLayer: EIGEN Token"
            },
            {
                "address": "0x858646372cc42e1a627fce94aa7a7033e7cf075a",
                "label": "EigenLayer: Strategy Manager"
            },
            {
                "address": "0x70f44c13944d49a236e3cd7a94f48f5dab6c619b",
                "label": "StrategyManager"
            },
            {
                "address": "0x27e7a3a81741b9fcc5ad7edcbf9f8a72a5c00428",
                "label": "EigenStrategy"
            },
            {
                "address": "0x83e9115d334d248ce39a6f36144aeab5b3456e75",
                "label": "EigenLayer: bEIGEN Token"
            },
            {
                "address": "0x1784be6401339fc0fedf7e9379409f5c1bfe9dda",
                "label": "DelegationManager"
            },
            {
                "address": "0x0000000000000000000000000000000000000001",
                "label": "Precompiled"
            },
            {
                "address": "0x0000000000000000000000000000000000000004",
                "label": "Precompiled"
            },
            {
                "address": "0xeeeeeeeeeeeeeeeeeeeeeeeeeeeeeeeeeeeeeeee",
                "label": "Ether"
            },
            {
                "address": "0xacb55c530acdb2849e6d4f36992cd8c9d50ed8f7",
                "label": "TransparentUpgradeableProxy"
            },
            {
                "address": "0x7ec354c84680112d3cff1544ec1eb19ca583700b",
                "label": "Eigen"
            },
            {
                "address": "0x0000000000000000000000000000000000000002",
                "label": "Precompiled"
            },
            {
                "address": "0x0000000000000000000000000000000000000003",
                "label": "Precompiled"
            },
            {
                "address": "0x39053d51b77dc0d36036fc1fcc8cb819df8ef37a",
                "label": "EigenLayer: Delegation"
            },
            {
                "address": "0x5accc90436492f24e6af278569691e2c942a676d",
                "label": "EigenYields: AVS Operator"
            },
            {
                "address": "0xb91c69af3ee022bd0a59da082945914bfdceffe3",
                "label": "BackingEigen"
            }
        ]
    },
    "trace": {
        "accountLabels": null,
        "dataMap": {
            "-1": {
                "invocation": {
                    "address": "0xb111f6659d26cf797a25bc61a608a75133fe1f81",
                    "callData": "",
                    "decodedMethod": null,
                    "errorInfo": "",
                    "fromAddress": "",
                    "gasUsed": 0,
                    "id": -1,
                    "methodDecoded": false,
                    "operation": "",
                    "output": "",
                    "revert": false,
                    "revertMessage": "",
                    "selector": "",
                    "status": false,
                    "value": ""
                },
                "nodeType": 0
            },
            "0": {
                "invocation": {
                    "address": "0x39053d51b77dc0d36036fc1fcc8cb819df8ef37a",
                    "callData": "0x0000000000000000000000000000000000000000000000000000000000000080000000000000000000000000000000000000000000000000000000000000022000000000000000000000000000000000000000000000000000000000000002a000000000000000000000000000000000000000000000000000000000000002e000000000000000000000000000000000000000000000000000000000000000010000000000000000000000000000000000000000000000000000000000000020000000000000000000000000b111f6659d26cf797a25bc61a608a75133fe1f810000000000000000000000005accc90436492f24e6af278569691e2c942a676d000000000000000000000000b111f6659d26cf797a25bc61a608a75133fe1f81000000000000000000000000000000000000000000000000000000000000000000000000000000000000000000000000000000000000000000000000013a7c9f00000000000000000000000000000000000000000000000000000000000000e000000000000000000000000000000000000000000000000000000000000001200000000000000000000000000000000000000000000000000000000000000001000000000000000000000000acb55c530acdb2849e6d4f36992cd8c9d50ed8f70000000000000000000000000000000000000000000000000000000000000001000000000000000000000000000000000000000000000005f68e8131ecf80000000000000000000000000000000000000000000000000000000000000000000100000000000000000000000000000000000000000000000000000000000000200000000000000000000000000000000000000000000000000000000000000001000000000000000000000000ec53bf9167f50cdeb3ae105f56099aaab9061f830000000000000000000000000000000000000000000000000000000000000001000000000000000000000000000000000000000000000000000000000000000000000000000000000000000000000000000000000000000000000000000000010000000000000000000000000000000000000000000000000000000000000001",
                    "decodedMethod": {
                        "callParams": [
                            {
                                "name": "withdrawals",
                                "type": "(address,address,address,uint256,uint32,address[],uint256[])[]",
                                "value": [
                                    [
                                        {
                                            "name": "staker",
                                            "type": "address",
                                            "value": "0xb111f6659d26cf797a25bc61a608a75133fe1f81"
                                        },
                                        {
                                            "name": "delegatedTo",
                                            "type": "address",
                                            "value": "0x5accc90436492f24e6af278569691e2c942a676d"
                                        },
                                        {
                                            "name": "withdrawer",
                                            "type": "address",
                                            "value": "0xb111f6659d26cf797a25bc61a608a75133fe1f81"
                                        },
                                        {
                                            "name": "nonce",
                                            "type": "uint256",
                                            "value": "0"
                                        },
                                        {
                                            "name": "startBlock",
                                            "type": "uint32",
                                            "value": "20,610,207"
                                        },
                                        {
                                            "name": "strategies",
                                            "type": "address[]",
                                            "value": [
                                                "0xacb55c530acdb2849e6d4f36992cd8c9d50ed8f7"
                                            ]
                                        },
                                        {
                                            "name": "shares",
                                            "type": "uint256[]",
                                            "value": [
                                                "110,000,000,000,000,000,000"
                                            ]
                                        }
                                    ]
                                ]
                            },
                            {
                                "name": "tokens",
                                "type": "address[][]",
                                "value": [
                                    [
                                        "0xec53bf9167f50cdeb3ae105f56099aaab9061f83"
                                    ]
                                ]
                            },
                            {
                                "name": "middlewareTimesIndexes",
                                "type": "uint256[]",
                                "value": [
                                    "0"
                                ]
                            },
                            {
                                "name": "receiveAsTokens",
                                "type": "bool[]",
                                "value": [
                                    true
                                ]
                            }
                        ],
                        "constructorArguments": "",
                        "name": "completeQueuedWithdrawals",
                        "returnParams": [],
                        "signature": "completeQueuedWithdrawals((address,address,address,uint256,uint32,address[],uint256[])[],address[][],uint256[],bool[])"
                    },
                    "errorInfo": "",
                    "fromAddress": "0xb111f6659d26cf797a25bc61a608a75133fe1f81",
                    "gasUsed": 187036,
                    "id": 0,
                    "methodDecoded": true,
                    "operation": "CALL",
                    "output": "",
                    "revert": false,
                    "revertMessage": "",
                    "selector": "0x33404396",
                    "status": true,
                    "value": "0"
                },
                "nodeType": 0
            },
            "1": {
                "invocation": {
                    "address": "0x1784be6401339fc0fedf7e9379409f5c1bfe9dda",
                    "callData": "0x0000000000000000000000000000000000000000000000000000000000000080000000000000000000000000000000000000000000000000000000000000022000000000000000000000000000000000000000000000000000000000000002a000000000000000000000000000000000000000000000000000000000000002e000000000000000000000000000000000000000000000000000000000000000010000000000000000000000000000000000000000000000000000000000000020000000000000000000000000b111f6659d26cf797a25bc61a608a75133fe1f810000000000000000000000005accc90436492f24e6af278569691e2c942a676d000000000000000000000000b111f6659d26cf797a25bc61a608a75133fe1f81000000000000000000000000000000000000000000000000000000000000000000000000000000000000000000000000000000000000000000000000013a7c9f00000000000000000000000000000000000000000000000000000000000000e000000000000000000000000000000000000000000000000000000000000001200000000000000000000000000000000000000000000000000000000000000001000000000000000000000000acb55c530acdb2849e6d4f36992cd8c9d50ed8f70000000000000000000000000000000000000000000000000000000000000001000000000000000000000000000000000000000000000005f68e8131ecf80000000000000000000000000000000000000000000000000000000000000000000100000000000000000000000000000000000000000000000000000000000000200000000000000000000000000000000000000000000000000000000000000001000000000000000000000000ec53bf9167f50cdeb3ae105f56099aaab9061f830000000000000000000000000000000000000000000000000000000000000001000000000000000000000000000000000000000000000000000000000000000000000000000000000000000000000000000000000000000000000000000000010000000000000000000000000000000000000000000000000000000000000001",
                    "decodedMethod": {
                        "callParams": [
                            {
                                "name": "withdrawals",
                                "type": "(address,address,address,uint256,uint32,address[],uint256[])[]",
                                "value": [
                                    [
                                        {
                                            "name": "staker",
                                            "type": "address",
                                            "value": "0xb111f6659d26cf797a25bc61a608a75133fe1f81"
                                        },
                                        {
                                            "name": "delegatedTo",
                                            "type": "address",
                                            "value": "0x5accc90436492f24e6af278569691e2c942a676d"
                                        },
                                        {
                                            "name": "withdrawer",
                                            "type": "address",
                                            "value": "0xb111f6659d26cf797a25bc61a608a75133fe1f81"
                                        },
                                        {
                                            "name": "nonce",
                                            "type": "uint256",
                                            "value": "0"
                                        },
                                        {
                                            "name": "startBlock",
                                            "type": "uint32",
                                            "value": "20,610,207"
                                        },
                                        {
                                            "name": "strategies",
                                            "type": "address[]",
                                            "value": [
                                                "0xacb55c530acdb2849e6d4f36992cd8c9d50ed8f7"
                                            ]
                                        },
                                        {
                                            "name": "shares",
                                            "type": "uint256[]",
                                            "value": [
                                                "110,000,000,000,000,000,000"
                                            ]
                                        }
                                    ]
                                ]
                            },
                            {
                                "name": "tokens",
                                "type": "address[][]",
                                "value": [
                                    [
                                        "0xec53bf9167f50cdeb3ae105f56099aaab9061f83"
                                    ]
                                ]
                            },
                            {
                                "name": "middlewareTimesIndexes",
                                "type": "uint256[]",
                                "value": [
                                    "0"
                                ]
                            },
                            {
                                "name": "receiveAsTokens",
                                "type": "bool[]",
                                "value": [
                                    true
                                ]
                            }
                        ],
                        "constructorArguments": "",
                        "name": "completeQueuedWithdrawals",
                        "returnParams": [],
                        "signature": "completeQueuedWithdrawals((address,address,address,uint256,uint32,address[],uint256[])[],address[][],uint256[],bool[])"
                    },
                    "errorInfo": "",
                    "fromAddress": "0x39053d51b77dc0d36036fc1fcc8cb819df8ef37a",
                    "gasUsed": 200500,
                    "id": 1,
                    "methodDecoded": true,
                    "operation": "DELEGATECALL",
                    "output": "",
                    "revert": false,
                    "revertMessage": "",
                    "selector": "0x33404396",
                    "status": true,
                    "value": "0"
                },
                "nodeType": 0
            },
            "10": {
                "event": {
                    "contract": "0x83e9115d334d248ce39a6f36144aeab5b3456e75",
                    "decodedLog": {
                        "name": "Approval",
                        "params": [
                            {
                                "name": "owner",
                                "type": "address",
                                "value": "0xacb55c530acdb2849e6d4f36992cd8c9d50ed8f7"
                            },
                            {
                                "name": "spender",
                                "type": "address",
                                "value": "0xec53bf9167f50cdeb3ae105f56099aaab9061f83"
                            },
                            {
                                "decimalAvailable": true,
                                "name": "value",
                                "type": "uint256",
                                "value": "110,000,000,000,000,000,000"
                            }
                        ],
                        "signature": "Approval(address,address,uint256)"
                    },
                    "id": 10,
                    "logData": "0x000000000000000000000000000000000000000000000005f68e8131ecf80000",
                    "logDecoded": true,
                    "operation": "EVENT",
                    "revert": false,
                    "status": true,
                    "topics": [
                        "0x8c5be1e5ebec7d5bd14f71427d1e84f3dd0314c0f7b2291e5b200ac8c7c3b925",
                        "0x000000000000000000000000acb55c530acdb2849e6d4f36992cd8c9d50ed8f7",
                        "0x000000000000000000000000ec53bf9167f50cdeb3ae105f56099aaab9061f83"
                    ]
                },
                "nodeType": 1
            },
            "11": {
                "invocation": {
                    "address": "0xec53bf9167f50cdeb3ae105f56099aaab9061f83",
                    "callData": "0x000000000000000000000000000000000000000000000005f68e8131ecf80000",
                    "decodedMethod": {
                        "callParams": [
                            {
                                "name": "amount",
                                "type": "uint256",
                                "value": "110,000,000,000,000,000,000"
                            }
                        ],
                        "constructorArguments": "",
                        "name": "wrap",
                        "returnParams": [],
                        "signature": "wrap(uint256)"
                    },
                    "errorInfo": "",
                    "fromAddress": "0xacb55c530acdb2849e6d4f36992cd8c9d50ed8f7",
                    "gasUsed": 67103,
                    "id": 11,
                    "methodDecoded": true,
                    "operation": "CALL",
                    "output": "",
                    "revert": false,
                    "revertMessage": "",
                    "selector": "0xea598cb0",
                    "status": true,
                    "value": "0"
                },
                "nodeType": 0
            },
            "12": {
                "invocation": {
                    "address": "0x7ec354c84680112d3cff1544ec1eb19ca583700b",
                    "callData": "0x000000000000000000000000000000000000000000000005f68e8131ecf80000",
                    "decodedMethod": {
                        "callParams": [
                            {
                                "name": "amount",
                                "type": "uint256",
                                "value": "110,000,000,000,000,000,000"
                            }
                        ],
                        "constructorArguments": "",
                        "name": "wrap",
                        "returnParams": [],
                        "signature": "wrap(uint256)"
                    },
                    "errorInfo": "",
                    "fromAddress": "0xec53bf9167f50cdeb3ae105f56099aaab9061f83",
                    "gasUsed": 59967,
                    "id": 12,
                    "methodDecoded": true,
                    "operation": "DELEGATECALL",
                    "output": "",
                    "revert": false,
                    "revertMessage": "",
                    "selector": "0xea598cb0",
                    "status": true,
                    "value": "0"
                },
                "nodeType": 0
            },
            "13": {
                "invocation": {
                    "address": "0x83e9115d334d248ce39a6f36144aeab5b3456e75",
                    "callData": "0x000000000000000000000000acb55c530acdb2849e6d4f36992cd8c9d50ed8f7000000000000000000000000ec53bf9167f50cdeb3ae105f56099aaab9061f83000000000000000000000000000000000000000000000005f68e8131ecf80000",
                    "decodedMethod": {
                        "callParams": [
                            {
                                "name": "from",
                                "type": "address",
                                "value": "0xacb55c530acdb2849e6d4f36992cd8c9d50ed8f7"
                            },
                            {
                                "name": "to",
                                "type": "address",
                                "value": "0xec53bf9167f50cdeb3ae105f56099aaab9061f83"
                            },
                            {
                                "decimalAvailable": true,
                                "name": "amount",
                                "type": "uint256",
                                "value": "110,000,000,000,000,000,000"
                            }
                        ],
                        "constructorArguments": "",
                        "name": "transferFrom",
                        "returnParams": [
                            {
                                "name": "",
                                "type": "bool",
                                "value": true
                            }
                        ],
                        "signature": "transferFrom(address,address,uint256)"
                    },
                    "errorInfo": "",
                    "fromAddress": "0xec53bf9167f50cdeb3ae105f56099aaab9061f83",
                    "gasUsed": 23013,
                    "id": 13,
                    "methodDecoded": true,
                    "operation": "CALL",
                    "output": "0x0000000000000000000000000000000000000000000000000000000000000001",
                    "revert": false,
                    "revertMessage": "",
                    "selector": "0x23b872dd",
                    "status": true,
                    "value": "0"
                },
                "nodeType": 0
            },
            "14": {
                "invocation": {
                    "address": "0xb91c69af3ee022bd0a59da082945914bfdceffe3",
                    "callData": "0x000000000000000000000000acb55c530acdb2849e6d4f36992cd8c9d50ed8f7000000000000000000000000ec53bf9167f50cdeb3ae105f56099aaab9061f83000000000000000000000000000000000000000000000005f68e8131ecf80000",
                    "decodedMethod": {
                        "callParams": [
                            {
                                "name": "from",
                                "type": "address",
                                "value": "0xacb55c530acdb2849e6d4f36992cd8c9d50ed8f7"
                            },
                            {
                                "name": "to",
                                "type": "address",
                                "value": "0xec53bf9167f50cdeb3ae105f56099aaab9061f83"
                            },
                            {
                                "decimalAvailable": true,
                                "name": "amount",
                                "type": "uint256",
                                "value": "110,000,000,000,000,000,000"
                            }
                        ],
                        "constructorArguments": "",
                        "name": "transferFrom",
                        "returnParams": [
                            {
                                "name": "",
                                "type": "bool",
                                "value": true
                            }
                        ],
                        "signature": "transferFrom(address,address,uint256)"
                    },
                    "errorInfo": "",
                    "fromAddress": "0x83e9115d334d248ce39a6f36144aeab5b3456e75",
                    "gasUsed": 22344,
                    "id": 14,
                    "methodDecoded": true,
                    "operation": "DELEGATECALL",
                    "output": "0x0000000000000000000000000000000000000000000000000000000000000001",
                    "revert": false,
                    "revertMessage": "",
                    "selector": "0x23b872dd",
                    "status": true,
                    "value": "0"
                },
                "nodeType": 0
            },
            "15": {
                "event": {
                    "contract": "0x83e9115d334d248ce39a6f36144aeab5b3456e75",
                    "decodedLog": {
                        "name": "Approval",
                        "params": [
                            {
                                "name": "owner",
                                "type": "address",
                                "value": "0xacb55c530acdb2849e6d4f36992cd8c9d50ed8f7"
                            },
                            {
                                "name": "spender",
                                "type": "address",
                                "value": "0xec53bf9167f50cdeb3ae105f56099aaab9061f83"
                            },
                            {
                                "decimalAvailable": true,
                                "name": "value",
                                "type": "uint256",
                                "value": "0"
                            }
                        ],
                        "signature": "Approval(address,address,uint256)"
                    },
                    "id": 15,
                    "logData": "0x0000000000000000000000000000000000000000000000000000000000000000",
                    "logDecoded": true,
                    "operation": "EVENT",
                    "revert": false,
                    "status": true,
                    "topics": [
                        "0x8c5be1e5ebec7d5bd14f71427d1e84f3dd0314c0f7b2291e5b200ac8c7c3b925",
                        "0x000000000000000000000000acb55c530acdb2849e6d4f36992cd8c9d50ed8f7",
                        "0x000000000000000000000000ec53bf9167f50cdeb3ae105f56099aaab9061f83"
                    ]
                },
                "nodeType": 1
            },
            "16": {
                "event": {
                    "contract": "0x83e9115d334d248ce39a6f36144aeab5b3456e75",
                    "decodedLog": {
                        "name": "Transfer",
                        "params": [
                            {
                                "name": "from",
                                "type": "address",
                                "value": "0xacb55c530acdb2849e6d4f36992cd8c9d50ed8f7"
                            },
                            {
                                "name": "to",
                                "type": "address",
                                "value": "0xec53bf9167f50cdeb3ae105f56099aaab9061f83"
                            },
                            {
                                "decimalAvailable": true,
                                "name": "value",
                                "type": "uint256",
                                "value": "110,000,000,000,000,000,000"
                            }
                        ],
                        "signature": "Transfer(address,address,uint256)"
                    },
                    "id": 16,
                    "logData": "0x000000000000000000000000000000000000000000000005f68e8131ecf80000",
                    "logDecoded": true,
                    "operation": "EVENT",
                    "revert": false,
                    "status": true,
                    "topics": [
                        "0xddf252ad1be2c89b69c2b068fc378daa952ba7f163c4a11628f55a4df523b3ef",
                        "0x000000000000000000000000acb55c530acdb2849e6d4f36992cd8c9d50ed8f7",
                        "0x000000000000000000000000ec53bf9167f50cdeb3ae105f56099aaab9061f83"
                    ]
                },
                "nodeType": 1
            },
            "17": {
                "event": {
                    "contract": "0xec53bf9167f50cdeb3ae105f56099aaab9061f83",
                    "decodedLog": {
                        "name": "Transfer",
                        "params": [
                            {
                                "name": "from",
                                "type": "address",
                                "value": "0xec53bf9167f50cdeb3ae105f56099aaab9061f83"
                            },
                            {
                                "name": "to",
                                "type": "address",
                                "value": "0xacb55c530acdb2849e6d4f36992cd8c9d50ed8f7"
                            },
                            {
                                "decimalAvailable": true,
                                "name": "value",
                                "type": "uint256",
                                "value": "110,000,000,000,000,000,000"
                            }
                        ],
                        "signature": "Transfer(address,address,uint256)"
                    },
                    "id": 17,
                    "logData": "0x000000000000000000000000000000000000000000000005f68e8131ecf80000",
                    "logDecoded": true,
                    "operation": "EVENT",
                    "revert": false,
                    "status": true,
                    "topics": [
                        "0xddf252ad1be2c89b69c2b068fc378daa952ba7f163c4a11628f55a4df523b3ef",
                        "0x000000000000000000000000ec53bf9167f50cdeb3ae105f56099aaab9061f83",
                        "0x000000000000000000000000acb55c530acdb2849e6d4f36992cd8c9d50ed8f7"
                    ]
                },
                "nodeType": 1
            },
            "18": {
                "invocation": {
                    "address": "0xec53bf9167f50cdeb3ae105f56099aaab9061f83",
                    "callData": "0x000000000000000000000000b111f6659d26cf797a25bc61a608a75133fe1f81000000000000000000000000000000000000000000000005f68e8131ecf80000",
                    "decodedMethod": {
                        "callParams": [
                            {
                                "name": "to",
                                "type": "address",
                                "value": "0xb111f6659d26cf797a25bc61a608a75133fe1f81"
                            },
                            {
                                "decimalAvailable": true,
                                "name": "amount",
                                "type": "uint256",
                                "value": "110,000,000,000,000,000,000"
                            }
                        ],
                        "constructorArguments": "",
                        "name": "transfer",
                        "returnParams": [
                            {
                                "name": "",
                                "type": "bool",
                                "value": true
                            }
                        ],
                        "signature": "transfer(address,uint256)"
                    },
                    "errorInfo": "",
                    "fromAddress": "0xacb55c530acdb2849e6d4f36992cd8c9d50ed8f7",
                    "gasUsed": 30670,
                    "id": 18,
                    "methodDecoded": true,
                    "operation": "CALL",
                    "output": "0x0000000000000000000000000000000000000000000000000000000000000001",
                    "revert": false,
                    "revertMessage": "",
                    "selector": "0xa9059cbb",
                    "status": true,
                    "value": "0"
                },
                "nodeType": 0
            },
            "19": {
                "invocation": {
                    "address": "0x7ec354c84680112d3cff1544ec1eb19ca583700b",
                    "callData": "0x000000000000000000000000b111f6659d26cf797a25bc61a608a75133fe1f81000000000000000000000000000000000000000000000005f68e8131ecf80000",
                    "decodedMethod": {
                        "callParams": [
                            {
                                "name": "to",
                                "type": "address",
                                "value": "0xb111f6659d26cf797a25bc61a608a75133fe1f81"
                            },
                            {
                                "decimalAvailable": true,
                                "name": "amount",
                                "type": "uint256",
                                "value": "110,000,000,000,000,000,000"
                            }
                        ],
                        "constructorArguments": "",
                        "name": "transfer",
                        "returnParams": [
                            {
                                "name": "",
                                "type": "bool",
                                "value": true
                            }
                        ],
                        "signature": "transfer(address,uint256)"
                    },
                    "errorInfo": "",
                    "fromAddress": "0xec53bf9167f50cdeb3ae105f56099aaab9061f83",
                    "gasUsed": 30028,
                    "id": 19,
                    "methodDecoded": true,
                    "operation": "DELEGATECALL",
                    "output": "0x0000000000000000000000000000000000000000000000000000000000000001",
                    "revert": false,
                    "revertMessage": "",
                    "selector": "0xa9059cbb",
                    "status": true,
                    "value": "0"
                },
                "nodeType": 0
            },
            "2": {
                "invocation": {
                    "address": "0x858646372cc42e1a627fce94aa7a7033e7cf075a",
                    "callData": "0x000000000000000000000000b111f6659d26cf797a25bc61a608a75133fe1f81000000000000000000000000acb55c530acdb2849e6d4f36992cd8c9d50ed8f7000000000000000000000000000000000000000000000005f68e8131ecf80000000000000000000000000000ec53bf9167f50cdeb3ae105f56099aaab9061f83",
                    "decodedMethod": {
                        "callParams": [
                            {
                                "name": "recipient",
                                "type": "address",
                                "value": "0xb111f6659d26cf797a25bc61a608a75133fe1f81"
                            },
                            {
                                "name": "strategy",
                                "type": "address",
                                "value": "0xacb55c530acdb2849e6d4f36992cd8c9d50ed8f7"
                            },
                            {
                                "name": "shares",
                                "type": "uint256",
                                "value": "110,000,000,000,000,000,000"
                            },
                            {
                                "name": "token",
                                "type": "address",
                                "value": "0xec53bf9167f50cdeb3ae105f56099aaab9061f83"
                            }
                        ],
                        "constructorArguments": "",
                        "name": "withdrawSharesAsTokens",
                        "returnParams": [],
                        "signature": "withdrawSharesAsTokens(address,address,uint256,address)"
                    },
                    "errorInfo": "",
                    "fromAddress": "0x39053d51b77dc0d36036fc1fcc8cb819df8ef37a",
                    "gasUsed": 171507,
                    "id": 2,
                    "methodDecoded": true,
                    "operation": "CALL",
                    "output": "",
                    "revert": false,
                    "revertMessage": "",
                    "selector": "0xc608c7f3",
                    "status": true,
                    "value": "0"
                },
                "nodeType": 0
            },
            "20": {
                "event": {
                    "contract": "0xec53bf9167f50cdeb3ae105f56099aaab9061f83",
                    "decodedLog": {
                        "name": "Transfer",
                        "params": [
                            {
                                "name": "from",
                                "type": "address",
                                "value": "0xacb55c530acdb2849e6d4f36992cd8c9d50ed8f7"
                            },
                            {
                                "name": "to",
                                "type": "address",
                                "value": "0xb111f6659d26cf797a25bc61a608a75133fe1f81"
                            },
                            {
                                "decimalAvailable": true,
                                "name": "value",
                                "type": "uint256",
                                "value": "110,000,000,000,000,000,000"
                            }
                        ],
                        "signature": "Transfer(address,address,uint256)"
                    },
                    "id": 20,
                    "logData": "0x000000000000000000000000000000000000000000000005f68e8131ecf80000",
                    "logDecoded": true,
                    "operation": "EVENT",
                    "revert": false,
                    "status": true,
                    "topics": [
                        "0xddf252ad1be2c89b69c2b068fc378daa952ba7f163c4a11628f55a4df523b3ef",
                        "0x000000000000000000000000acb55c530acdb2849e6d4f36992cd8c9d50ed8f7",
                        "0x000000000000000000000000b111f6659d26cf797a25bc61a608a75133fe1f81"
                    ]
                },
                "nodeType": 1
            },
            "21": {
                "event": {
                    "contract": "0x39053d51b77dc0d36036fc1fcc8cb819df8ef37a",
                    "decodedLog": {
                        "name": "WithdrawalCompleted",
                        "params": [
                            {
                                "name": "withdrawalRoot",
                                "type": "bytes32",
                                "value": "0x3b8c8b963fd69ae8fdfd989a53068da9c2e99592d9dd84035babf02981514e82"
                            }
                        ],
                        "signature": "WithdrawalCompleted(bytes32)"
                    },
                    "id": 21,
                    "logData": "0x3b8c8b963fd69ae8fdfd989a53068da9c2e99592d9dd84035babf02981514e82",
                    "logDecoded": true,
                    "operation": "EVENT",
                    "revert": false,
                    "status": true,
                    "topics": [
                        "0xc97098c2f658800b4df29001527f7324bcdffcf6e8751a699ab920a1eced5b1d"
                    ]
                },
                "nodeType": 1
            },
            "3": {
                "invocation": {
                    "address": "0x70f44c13944d49a236e3cd7a94f48f5dab6c619b",
                    "callData": "0x000000000000000000000000b111f6659d26cf797a25bc61a608a75133fe1f81000000000000000000000000acb55c530acdb2849e6d4f36992cd8c9d50ed8f7000000000000000000000000000000000000000000000005f68e8131ecf80000000000000000000000000000ec53bf9167f50cdeb3ae105f56099aaab9061f83",
                    "decodedMethod": {
                        "callParams": [
                            {
                                "name": "recipient",
                                "type": "address",
                                "value": "0xb111f6659d26cf797a25bc61a608a75133fe1f81"
                            },
                            {
                                "name": "strategy",
                                "type": "address",
                                "value": "0xacb55c530acdb2849e6d4f36992cd8c9d50ed8f7"
                            },
                            {
                                "name": "shares",
                                "type": "uint256",
                                "value": "110,000,000,000,000,000,000"
                            },
                            {
                                "name": "token",
                                "type": "address",
                                "value": "0xec53bf9167f50cdeb3ae105f56099aaab9061f83"
                            }
                        ],
                        "constructorArguments": "",
                        "name": "withdrawSharesAsTokens",
                        "returnParams": [],
                        "signature": "withdrawSharesAsTokens(address,address,uint256,address)"
                    },
                    "errorInfo": "",
                    "fromAddress": "0x858646372cc42e1a627fce94aa7a7033e7cf075a",
                    "gasUsed": 164176,
                    "id": 3,
                    "methodDecoded": true,
                    "operation": "DELEGATECALL",
                    "output": "",
                    "revert": false,
                    "revertMessage": "",
                    "selector": "0xc608c7f3",
                    "status": true,
                    "value": "0"
                },
                "nodeType": 0
            },
            "4": {
                "invocation": {
                    "address": "0xacb55c530acdb2849e6d4f36992cd8c9d50ed8f7",
                    "callData": "0x000000000000000000000000b111f6659d26cf797a25bc61a608a75133fe1f81000000000000000000000000ec53bf9167f50cdeb3ae105f56099aaab9061f83000000000000000000000000000000000000000000000005f68e8131ecf80000",
                    "decodedMethod": {
                        "callParams": [
                            {
                                "name": "recipient",
                                "type": "address",
                                "value": "0xb111f6659d26cf797a25bc61a608a75133fe1f81"
                            },
                            {
                                "name": "token",
                                "type": "address",
                                "value": "0xec53bf9167f50cdeb3ae105f56099aaab9061f83"
                            },
                            {
                                "name": "amountShares",
                                "type": "uint256",
                                "value": "110,000,000,000,000,000,000"
                            }
                        ],
                        "constructorArguments": "",
                        "name": "withdraw",
                        "returnParams": [],
                        "signature": "withdraw(address,address,uint256)"
                    },
                    "errorInfo": "",
                    "fromAddress": "0x858646372cc42e1a627fce94aa7a7033e7cf075a",
                    "gasUsed": 160567,
                    "id": 4,
                    "methodDecoded": true,
                    "operation": "CALL",
                    "output": "",
                    "revert": false,
                    "revertMessage": "",
                    "selector": "0xd9caed12",
                    "status": true,
                    "value": "0"
                },
                "nodeType": 0
            },
            "5": {
                "invocation": {
                    "address": "0x27e7a3a81741b9fcc5ad7edcbf9f8a72a5c00428",
                    "callData": "0x000000000000000000000000b111f6659d26cf797a25bc61a608a75133fe1f81000000000000000000000000ec53bf9167f50cdeb3ae105f56099aaab9061f83000000000000000000000000000000000000000000000005f68e8131ecf80000",
                    "decodedMethod": {
                        "callParams": [
                            {
                                "name": "recipient",
                                "type": "address",
                                "value": "0xb111f6659d26cf797a25bc61a608a75133fe1f81"
                            },
                            {
                                "name": "token",
                                "type": "address",
                                "value": "0xec53bf9167f50cdeb3ae105f56099aaab9061f83"
                            },
                            {
                                "name": "amountShares",
                                "type": "uint256",
                                "value": "110,000,000,000,000,000,000"
                            }
                        ],
                        "constructorArguments": "",
                        "name": "withdraw",
                        "returnParams": [],
                        "signature": "withdraw(address,address,uint256)"
                    },
                    "errorInfo": "",
                    "fromAddress": "0xacb55c530acdb2849e6d4f36992cd8c9d50ed8f7",
                    "gasUsed": 153401,
                    "id": 5,
                    "methodDecoded": true,
                    "operation": "DELEGATECALL",
                    "output": "",
                    "revert": false,
                    "revertMessage": "",
                    "selector": "0xd9caed12",
                    "status": true,
                    "value": "0"
                },
                "nodeType": 0
            },
            "6": {
                "invocation": {
                    "address": "0x83e9115d334d248ce39a6f36144aeab5b3456e75",
                    "callData": "0x000000000000000000000000acb55c530acdb2849e6d4f36992cd8c9d50ed8f7",
                    "decodedMethod": {
                        "callParams": [
                            {
                                "name": "account",
                                "type": "address",
                                "value": "0xacb55c530acdb2849e6d4f36992cd8c9d50ed8f7"
                            }
                        ],
                        "constructorArguments": "",
                        "name": "balanceOf",
                        "returnParams": [
                            {
                                "decimalAvailable": true,
                                "name": "",
                                "type": "uint256",
                                "value": "118,374,853,894,205,536,053,750,275"
                            }
                        ],
                        "signature": "balanceOf(address)"
                    },
                    "errorInfo": "",
                    "fromAddress": "0xacb55c530acdb2849e6d4f36992cd8c9d50ed8f7",
                    "gasUsed": 9764,
                    "id": 6,
                    "methodDecoded": true,
                    "operation": "STATICCALL",
                    "output": "0x00000000000000000000000000000000000000000061ead9b01ff46ab89fea03",
                    "revert": false,
                    "revertMessage": "",
                    "selector": "0x70a08231",
                    "status": true,
                    "value": "0"
                },
                "nodeType": 0
            },
            "7": {
                "invocation": {
                    "address": "0xb91c69af3ee022bd0a59da082945914bfdceffe3",
                    "callData": "0x000000000000000000000000acb55c530acdb2849e6d4f36992cd8c9d50ed8f7",
                    "decodedMethod": {
                        "callParams": [
                            {
                                "name": "account",
                                "type": "address",
                                "value": "0xacb55c530acdb2849e6d4f36992cd8c9d50ed8f7"
                            }
                        ],
                        "constructorArguments": "",
                        "name": "balanceOf",
                        "returnParams": [
                            {
                                "decimalAvailable": true,
                                "name": "",
                                "type": "uint256",
                                "value": "118,374,853,894,205,536,053,750,275"
                            }
                        ],
                        "signature": "balanceOf(address)"
                    },
                    "errorInfo": "",
                    "fromAddress": "0x83e9115d334d248ce39a6f36144aeab5b3456e75",
                    "gasUsed": 2604,
                    "id": 7,
                    "methodDecoded": true,
                    "operation": "DELEGATECALL",
                    "output": "0x00000000000000000000000000000000000000000061ead9b01ff46ab89fea03",
                    "revert": false,
                    "revertMessage": "",
                    "selector": "0x70a08231",
                    "status": true,
                    "value": "0"
                },
                "nodeType": 0
            },
            "8": {
                "invocation": {
                    "address": "0x83e9115d334d248ce39a6f36144aeab5b3456e75",
                    "callData": "0x000000000000000000000000ec53bf9167f50cdeb3ae105f56099aaab9061f83000000000000000000000000000000000000000000000005f68e8131ecf80000",
                    "decodedMethod": {
                        "callParams": [
                            {
                                "name": "spender",
                                "type": "address",
                                "value": "0xec53bf9167f50cdeb3ae105f56099aaab9061f83"
                            },
                            {
                                "decimalAvailable": true,
                                "name": "amount",
                                "type": "uint256",
                                "value": "110,000,000,000,000,000,000"
                            }
                        ],
                        "constructorArguments": "",
                        "name": "approve",
                        "returnParams": [
                            {
                                "name": "",
                                "type": "bool",
                                "value": true
                            }
                        ],
                        "signature": "approve(address,uint256)"
                    },
                    "errorInfo": "",
                    "fromAddress": "0xacb55c530acdb2849e6d4f36992cd8c9d50ed8f7",
                    "gasUsed": 25344,
                    "id": 8,
                    "methodDecoded": true,
                    "operation": "CALL",
                    "output": "0x0000000000000000000000000000000000000000000000000000000000000001",
                    "revert": false,
                    "revertMessage": "",
                    "selector": "0x095ea7b3",
                    "status": true,
                    "value": "0"
                },
                "nodeType": 0
            },
            "9": {
                "invocation": {
                    "address": "0xb91c69af3ee022bd0a59da082945914bfdceffe3",
                    "callData": "0x000000000000000000000000ec53bf9167f50cdeb3ae105f56099aaab9061f83000000000000000000000000000000000000000000000005f68e8131ecf80000",
                    "decodedMethod": {
                        "callParams": [
                            {
                                "name": "spender",
                                "type": "address",
                                "value": "0xec53bf9167f50cdeb3ae105f56099aaab9061f83"
                            },
                            {
                                "decimalAvailable": true,
                                "name": "amount",
                                "type": "uint256",
                                "value": "110,000,000,000,000,000,000"
                            }
                        ],
                        "constructorArguments": "",
                        "name": "approve",
                        "returnParams": [
                            {
                                "name": "",
                                "type": "bool",
                                "value": true
                            }
                        ],
                        "signature": "approve(address,uint256)"
                    },
                    "errorInfo": "",
                    "fromAddress": "0x83e9115d334d248ce39a6f36144aeab5b3456e75",
                    "gasUsed": 24681,
                    "id": 9,
                    "methodDecoded": true,
                    "operation": "DELEGATECALL",
                    "output": "0x0000000000000000000000000000000000000000000000000000000000000001",
                    "revert": false,
                    "revertMessage": "",
                    "selector": "0x095ea7b3",
                    "status": true,
                    "value": "0"
                },
                "nodeType": 0
            }
        },
        "gasFlame": [
            {
                "children": [
                    {
                        "children": [
                            {
                                "children": [],
                                "depth": 0,
                                "name": "Initial Gas",
                                "value": 25836
                            },
                            {
                                "children": [
                                    {
                                        "children": [
                                            {
                                                "children": [
                                                    {
                                                        "children": [
                                                            {
                                                                "children": [
                                                                    {
                                                                        "children": [
                                                                            {
                                                                                "children": [
                                                                                    {
                                                                                        "children": [],
                                                                                        "depth": 7,
                                                                                        "name": "balanceOf",
                                                                                        "value": 2604
                                                                                    }
                                                                                ],
                                                                                "depth": 6,
                                                                                "name": "balanceOf",
                                                                                "value": 9764
                                                                            },
                                                                            {
                                                                                "children": [
                                                                                    {
                                                                                        "children": [],
                                                                                        "depth": 7,
                                                                                        "name": "approve",
                                                                                        "value": 24681
                                                                                    }
                                                                                ],
                                                                                "depth": 6,
                                                                                "name": "approve",
                                                                                "value": 25344
                                                                            },
                                                                            {
                                                                                "children": [
                                                                                    {
                                                                                        "children": [
                                                                                            {
                                                                                                "children": [
                                                                                                    {
                                                                                                        "children": [],
                                                                                                        "depth": 9,
                                                                                                        "name": "transferFrom",
                                                                                                        "value": 22344
                                                                                                    }
                                                                                                ],
                                                                                                "depth": 8,
                                                                                                "name": "transferFrom",
                                                                                                "value": 23013
                                                                                            }
                                                                                        ],
                                                                                        "depth": 7,
                                                                                        "name": "wrap",
                                                                                        "value": 59967
                                                                                    }
                                                                                ],
                                                                                "depth": 6,
                                                                                "name": "wrap",
                                                                                "value": 67103
                                                                            },
                                                                            {
                                                                                "children": [
                                                                                    {
                                                                                        "children": [],
                                                                                        "depth": 7,
                                                                                        "name": "transfer",
                                                                                        "value": 30028
                                                                                    }
                                                                                ],
                                                                                "depth": 6,
                                                                                "name": "transfer",
                                                                                "value": 30670
                                                                            }
                                                                        ],
                                                                        "depth": 5,
                                                                        "name": "withdraw",
                                                                        "value": 153401
                                                                    }
                                                                ],
                                                                "depth": 4,
                                                                "name": "withdraw",
                                                                "value": 160567
                                                            }
                                                        ],
                                                        "depth": 3,
                                                        "name": "withdrawSharesAsTokens",
                                                        "value": 164176
                                                    }
                                                ],
                                                "depth": 2,
                                                "name": "withdrawSharesAsTokens",
                                                "value": 171507
                                            }
                                        ],
                                        "depth": 1,
                                        "name": "completeQueuedWithdrawals",
                                        "value": 200500
                                    }
                                ],
                                "depth": 0,
                                "name": "Executed Gas",
                                "value": 207958
                            }
                        ],
                        "depth": -1,
                        "name": "Actual Gas Used",
                        "value": 187036
                    },
                    {
                        "children": [],
                        "depth": -1,
                        "name": "Refunded Gas",
                        "value": 46758
                    }
                ],
                "depth": -2,
                "name": "Total Gas",
                "value": 233794
            }
        ],
        "isConfirmed": true,
        "mainTrace": [
            {
                "children": [
                    {
                        "children": [
                            {
                                "children": [
                                    {
                                        "children": [
                                            {
                                                "children": [
                                                    {
                                                        "children": [
                                                            {
                                                                "children": [
                                                                    {
                                                                        "children": [
                                                                            {
                                                                                "children": [],
                                                                                "depth": 7,
                                                                                "id": 7,
                                                                                "order": 7
                                                                            }
                                                                        ],
                                                                        "depth": 6,
                                                                        "id": 6,
                                                                        "order": 6
                                                                    },
                                                                    {
                                                                        "children": [
                                                                            {
                                                                                "children": [
                                                                                    {
                                                                                        "children": [],
                                                                                        "depth": 8,
                                                                                        "id": 10,
                                                                                        "order": 10
                                                                                    }
                                                                                ],
                                                                                "depth": 7,
                                                                                "id": 9,
                                                                                "order": 9
                                                                            }
                                                                        ],
                                                                        "depth": 6,
                                                                        "id": 8,
                                                                        "order": 8
                                                                    },
                                                                    {
                                                                        "children": [
                                                                            {
                                                                                "children": [
                                                                                    {
                                                                                        "children": [
                                                                                            {
                                                                                                "children": [
                                                                                                    {
                                                                                                        "children": [],
                                                                                                        "depth": 10,
                                                                                                        "id": 15,
                                                                                                        "order": 15
                                                                                                    },
                                                                                                    {
                                                                                                        "children": [],
                                                                                                        "depth": 10,
                                                                                                        "id": 16,
                                                                                                        "order": 16
                                                                                                    }
                                                                                                ],
                                                                                                "depth": 9,
                                                                                                "id": 14,
                                                                                                "order": 14
                                                                                            }
                                                                                        ],
                                                                                        "depth": 8,
                                                                                        "id": 13,
                                                                                        "order": 13
                                                                                    },
                                                                                    {
                                                                                        "children": [],
                                                                                        "depth": 8,
                                                                                        "id": 17,
                                                                                        "order": 17
                                                                                    }
                                                                                ],
                                                                                "depth": 7,
                                                                                "id": 12,
                                                                                "order": 12
                                                                            }
                                                                        ],
                                                                        "depth": 6,
                                                                        "id": 11,
                                                                        "order": 11
                                                                    },
                                                                    {
                                                                        "children": [
                                                                            {
                                                                                "children": [
                                                                                    {
                                                                                        "children": [],
                                                                                        "depth": 8,
                                                                                        "id": 20,
                                                                                        "order": 20
                                                                                    }
                                                                                ],
                                                                                "depth": 7,
                                                                                "id": 19,
                                                                                "order": 19
                                                                            }
                                                                        ],
                                                                        "depth": 6,
                                                                        "id": 18,
                                                                        "order": 18
                                                                    }
                                                                ],
                                                                "depth": 5,
                                                                "id": 5,
                                                                "order": 5
                                                            }
                                                        ],
                                                        "depth": 4,
                                                        "id": 4,
                                                        "order": 4
                                                    }
                                                ],
                                                "depth": 3,
                                                "id": 3,
                                                "order": 3
                                            }
                                        ],
                                        "depth": 2,
                                        "id": 2,
                                        "order": 2
                                    },
                                    {
                                        "children": [],
                                        "depth": 2,
                                        "id": 21,
                                        "order": 21
                                    }
                                ],
                                "depth": 1,
                                "id": 1,
                                "order": 1
                            }
                        ],
                        "depth": 0,
                        "id": 0,
                        "order": 0
                    }
                ],
                "depth": -1,
                "id": -1,
                "order": -1
            }
        ],
        "mainTraceNodeCount": 22,
        "parentIdMap": {
            "0": -1,
            "1": 0,
            "10": 9,
            "11": 5,
            "12": 11,
            "13": 12,
            "14": 13,
            "15": 14,
            "16": 14,
            "17": 12,
            "18": 5,
            "19": 18,
            "2": 1,
            "20": 19,
            "21": 1,
            "3": 2,
            "4": 3,
            "5": 4,
            "6": 5,
            "7": 6,
            "8": 5,
            "9": 8
        },
        "tidyTrace": [
            {
                "children": [
                    {
                        "children": [
                            {
                                "children": [
                                    {
                                        "children": [
                                            {
                                                "children": [
                                                    {
                                                        "children": [
                                                            {
                                                                "children": [
                                                                    {
                                                                        "children": [
                                                                            {
                                                                                "children": [
                                                                                    {
                                                                                        "children": [],
                                                                                        "depth": 8,
                                                                                        "id": 10,
                                                                                        "order": 10
                                                                                    }
                                                                                ],
                                                                                "depth": 7,
                                                                                "id": 9,
                                                                                "order": 9
                                                                            }
                                                                        ],
                                                                        "depth": 6,
                                                                        "id": 8,
                                                                        "order": 8
                                                                    },
                                                                    {
                                                                        "children": [
                                                                            {
                                                                                "children": [
                                                                                    {
                                                                                        "children": [
                                                                                            {
                                                                                                "children": [
                                                                                                    {
                                                                                                        "children": [],
                                                                                                        "depth": 10,
                                                                                                        "id": 15,
                                                                                                        "order": 15
                                                                                                    },
                                                                                                    {
                                                                                                        "children": [],
                                                                                                        "depth": 10,
                                                                                                        "id": 16,
                                                                                                        "order": 16
                                                                                                    }
                                                                                                ],
                                                                                                "depth": 9,
                                                                                                "id": 14,
                                                                                                "order": 14
                                                                                            }
                                                                                        ],
                                                                                        "depth": 8,
                                                                                        "id": 13,
                                                                                        "order": 13
                                                                                    },
                                                                                    {
                                                                                        "children": [],
                                                                                        "depth": 8,
                                                                                        "id": 17,
                                                                                        "order": 17
                                                                                    }
                                                                                ],
                                                                                "depth": 7,
                                                                                "id": 12,
                                                                                "order": 12
                                                                            }
                                                                        ],
                                                                        "depth": 6,
                                                                        "id": 11,
                                                                        "order": 11
                                                                    },
                                                                    {
                                                                        "children": [
                                                                            {
                                                                                "children": [
                                                                                    {
                                                                                        "children": [],
                                                                                        "depth": 8,
                                                                                        "id": 20,
                                                                                        "order": 20
                                                                                    }
                                                                                ],
                                                                                "depth": 7,
                                                                                "id": 19,
                                                                                "order": 19
                                                                            }
                                                                        ],
                                                                        "depth": 6,
                                                                        "id": 18,
                                                                        "order": 18
                                                                    }
                                                                ],
                                                                "depth": 5,
                                                                "id": 5,
                                                                "order": 5
                                                            }
                                                        ],
                                                        "depth": 4,
                                                        "id": 4,
                                                        "order": 4
                                                    }
                                                ],
                                                "depth": 3,
                                                "id": 3,
                                                "order": 3
                                            }
                                        ],
                                        "depth": 2,
                                        "id": 2,
                                        "order": 2
                                    },
                                    {
                                        "children": [],
                                        "depth": 2,
                                        "id": 21,
                                        "order": 21
                                    }
                                ],
                                "depth": 1,
                                "id": 1,
                                "order": 1
                            }
                        ],
                        "depth": 0,
                        "id": 0,
                        "order": 0
                    }
                ],
                "depth": -1,
                "id": -1,
                "order": -1
            }
        ],
        "tidyTraceNodeCount": 20
    },
    "state_change": {
        "stateChanges": [
            {
                "address": "0x39053d51b77dc0d36036fc1fcc8cb819df8ef37a",
                "erc": "",
                "slots": [
                    {
                        "current": "0x0000000000000000000000000000000000000000000000000000000000000000",
                        "key": "0x35ebc8ba2e7c29e5f1b5e4f1b06cb890e04532582675f6f75fc29a8ffb8ffcdd",
                        "prev": "0x0000000000000000000000000000000000000000000000000000000000000001"
                    }
                ],
                "storageVariables": [
                    {
                        "name": "pendingWithdrawals",
                        "type": "mapping(bytes32 => bool)",
                        "value": {
                            "pairs": [
                                {
                                    "key": "0x3b8c8b963fd69ae8fdfd989a53068da9c2e99592d9dd84035babf02981514e82",
                                    "value": {
                                        "current": "false",
                                        "prev": "true",
                                        "typeTag": 1
                                    }
                                }
                            ],
                            "typeTag": 4
                        }
                    }
                ]
            },
            {
                "address": "0x83e9115d334d248ce39a6f36144aeab5b3456e75",
                "erc": "ERC-20",
                "slots": [
                    {
                        "current": "0x00000000000000000000000000000000000000000061ead3b9917338cba7ea03",
                        "key": "0x560f198f2783a5232fe2a4c12cef39272b002f0460dc804501994447a756e7df",
                        "prev": "0x00000000000000000000000000000000000000000061ead9b01ff46ab89fea03"
                    },
                    {
                        "current": "0x000000000000000000000000000000000000000005067da3f6245893f3cb55fd",
                        "key": "0x8722c3f15c3ae7b3abfdd95231172f3e6b3b9a9889e80e4d63e3315f140a8816",
                        "prev": "0x000000000000000000000000000000000000000005067d9dff95d76206d355fd"
                    }
                ],
                "storageVariables": [
                    {
                        "name": "_balances",
                        "type": "mapping(address => uint256)",
                        "value": {
                            "pairs": [
                                {
                                    "key": "0xacb55c530acdb2849e6d4f36992cd8c9d50ed8f7",
                                    "value": {
                                        "current": "118374743894205536053750275",
                                        "prev": "118374853894205536053750275",
                                        "typeTag": 1
                                    }
                                },
                                {
                                    "key": "0xec53bf9167f50cdeb3ae105f56099aaab9061f83",
                                    "value": {
                                        "current": "1555271924390454463946249725",
                                        "prev": "1555271814390454463946249725",
                                        "typeTag": 1
                                    }
                                }
                            ],
                            "typeTag": 4
                        }
                    }
                ]
            },
            {
                "address": "0xacb55c530acdb2849e6d4f36992cd8c9d50ed8f7",
                "erc": "",
                "slots": [
                    {
                        "current": "0x00000000000000000000000000000000000000000061ead3b9917338cba7ea03",
                        "key": "0x0000000000000000000000000000000000000000000000000000000000000033",
                        "prev": "0x00000000000000000000000000000000000000000061ead9b01ff46ab89fea03"
                    }
                ],
                "storageVariables": [
                    {
                        "name": "totalShares",
                        "type": "uint256",
                        "value": {
                            "current": "118374743894205536053750275",
                            "prev": "118374853894205536053750275",
                            "typeTag": 1
                        }
                    }
                ]
            },
            {
                "address": "0xec53bf9167f50cdeb3ae105f56099aaab9061f83",
                "erc": "ERC-20",
                "slots": [
                    {
                        "current": "0x00000000000000000000000000000000000000000061eadfb48f2c504cfbea03",
                        "key": "0x8722c3f15c3ae7b3abfdd95231172f3e6b3b9a9889e80e4d63e3315f140a8816",
                        "prev": "0x00000000000000000000000000000000000000000061eae5ab1dad8239f3ea03"
                    },
                    {
                        "current": "0x000000000000000000000000000000000000000000000005f68e8131ecf80000",
                        "key": "0x916af61bc2dfd73bc17f73fb1f4fdee6b60b575760d58d8d02f443d8ea3028cf",
                        "prev": "0x0000000000000000000000000000000000000000000000000000000000000000"
                    }
                ],
                "storageVariables": [
                    {
                        "name": "_balances",
                        "type": "mapping(address => uint256)",
                        "value": {
                            "pairs": [
                                {
                                    "key": "0xb111f6659d26cf797a25bc61a608a75133fe1f81",
                                    "value": {
                                        "current": "110000000000000000000",
                                        "prev": "0",
                                        "typeTag": 1
                                    }
                                },
                                {
                                    "key": "0xec53bf9167f50cdeb3ae105f56099aaab9061f83",
                                    "value": {
                                        "current": "118374964894205536053750275",
                                        "prev": "118375074894205536053750275",
                                        "typeTag": 1
                                    }
                                }
                            ],
                            "typeTag": 4
                        }
                    }
                ]
            }
        ]
    }
}