{
    "balance_change": {
        "balanceChanges": [
            {
                "account": "0x487980156e97896ccbbfaa8957e76e02ed1855c5",
                "assets": [
                    {
                        "address": "0x0e9d6552b85be180d941f1ca73ae3e318d2d4f1f",
                        "amount": "1",
                        "iconUrl": "",
                        "isERC1155": false,
                        "isERC721": true,
                        "sign": false,
                        "tokenID": "5019",
                        "value": ""
                    },
                    {
                        "address": "0x0e9d6552b85be180d941f1ca73ae3e318d2d4f1f",
                        "amount": "1",
                        "iconUrl": "",
                        "isERC1155": false,
                        "isERC721": true,
                        "sign": false,
                        "tokenID": "6433",
                        "value": ""
                    }
                ]
            },
            {
                "account": "0xab93f992d9737bd740113643e79fe9f8b6b34696",
                "assets": [
                    {
                        "address": "0x0e9d6552b85be180d941f1ca73ae3e318d2d4f1f",
                        "amount": "1",
                        "iconUrl": "",
                        "isERC1155": false,
                        "isERC721": true,
                        "sign": true,
                        "tokenID": "5019",
                        "value": ""
                    },
                    {
                        "address": "0x0e9d6552b85be180d941f1ca73ae3e318d2d4f1f",
                        "amount": "1",
                        "iconUrl": "",
                        "isERC1155": false,
                        "isERC721": true,
                        "sign": true,
                        "tokenID": "6433",
                        "value": ""
                    }
                ]
            }
        ]
    },
    "profile": {
        "basic_info": {
            "baseFee": "124.598881182",
            "blockNumber": 14097237,
            "callData": "0x0fbf0a9300000000000000000000000000000000000000000000000000000000000000200000000000000000000000000000000000000000000000000000000000000002000000000000000000000000000000000000000000000000000000000000139b0000000000000000000000000000000000000000000000000000000000001921",
            "debugEnable": true,
            "errorInfo": "",
            "eventCount": 6,
            "feeRecipient": "0xea674fdde714fd979de3edf0f56aa9716b898ec8",
            "formatValue": "0",
            "gasLimit": 134483,
            "gasPrice": "126.098881182",
            "gasUsed": 129683,
            "intTxnCount": 6,
            "internalRevert": false,
            "internalRevertMessage": "",
            "isContractCreation": false,
            "isFlashloan": false,
            "maxFee": "143.125416229",
            "nonce": 179,
            "overwritedBlockNumber": -1,
            "priorityFee": "1.5",
            "receiver": "0xab93f992d9737bd740113643e79fe9f8b6b34696",
            "revertMessage": "",
            "sender": "0x487980156e97896ccbbfaa8957e76e02ed1855c5",
            "simulationEnable": true,
            "sourceTxnHash": "0x266dd4f350eb765e436e9604b0fc6da33fe7da6f468b39630585fbf6791f6c5d",
            "status": true,
            "timestamp": "2022-01-28T23:47:44Z",
            "transactionFee": "0.016352881208325306",
            "txnHash": "0x266dd4f350eb765e436e9604b0fc6da33fe7da6f468b39630585fbf6791f6c5d",
            "txnIndex": 280,
            "type": 2,
            "value": "0"
        },
        "fund_flow": [
            {
                "amount": "1",
                "from": "0x487980156e97896ccbbfaa8957e76e02ed1855c5",
                "id": 1,
                "isERC1155": false,
                "isERC721": true,
                "isReverted": false,
                "order": 1,
                "to": "0xab93f992d9737bd740113643e79fe9f8b6b34696",
                "token": "0x0e9d6552b85be180d941f1ca73ae3e318d2d4f1f",
                "tokenID": "5019"
            },
            {
                "amount": "1",
                "from": "0x487980156e97896ccbbfaa8957e76e02ed1855c5",
                "id": 2,
                "isERC1155": false,
                "isERC721": true,
                "isReverted": false,
                "order": 2,
                "to": "0xab93f992d9737bd740113643e79fe9f8b6b34696",
                "token": "0x0e9d6552b85be180d941f1ca73ae3e318d2d4f1f",
                "tokenID": "6433"
            }
        ],
        "token_infos": [
            {
                "address": "0xc02aaa39b223fe8d0a0e5c4f27ead9083c756cc2",
                "decimals": 18
            },
            {
                "address": "0xeeeeeeeeeeeeeeeeeeeeeeeeeeeeeeeeeeeeeeee",
                "decimals": 18
            }
        ]
    },
    "address_label": {
        "labels": [
            {
                "address": "0x0000000000000000000000000000000000000002",
                "label": "Precompiled"
            },
            {
                "address": "0x0000000000000000000000000000000000000003",
                "label": "Precompiled"
            },
            {
                "address": "0x0000000000000000000000000000000000000004",
                "label": "Precompiled"
            },
            {
                "address": "0xeeeeeeeeeeeeeeeeeeeeeeeeeeeeeeeeeeeeeeee",
                "label": "Ether"
            },
            {
                "address": "0xa5409ec958c83c3f309868babaca7c86dcb077c1",
                "label": "OpenSea: Registry"
            },
            {
                "address": "0x0e9d6552b85be180d941f1ca73ae3e318d2d4f1f",
                "label": "Metroverse: METROBLOCK Token"
            },
            {
                "address": "0xab93f992d9737bd740113643e79fe9f8b6b34696",
                "label": "MetroverseVault"
            },
            {
                "address": "0x0000000000000000000000000000000000000001",
                "label": "Precompiled"
            }
        ]
    },
    "trace": {
        "accountLabels": null,
        "dataMap": {
            "-1": {
                "invocation": {
                    "address": "0x487980156e97896ccbbfaa8957e76e02ed1855c5",
                    "callData": "",
                    "decodedMethod": null,
                    "errorInfo": "",
                    "fromAddress": "",
                    "gasUsed": 0,
                    "id": -1,
                    "methodDecoded": false,
                    "operation": "",
                    "output": "",
                    "revert": false,
                    "revertMessage": "",
                    "selector": "",
                    "status": false,
                    "value": ""
                },
                "nodeType": 0
            },
            "0": {
                "invocation": {
                    "address": "0xab93f992d9737bd740113643e79fe9f8b6b34696",
                    "callData": "0x00000000000000000000000000000000000000000000000000000000000000200000000000000000000000000000000000000000000000000000000000000002000000000000000000000000000000000000000000000000000000000000139b0000000000000000000000000000000000000000000000000000000000001921",
                    "decodedMethod": {
                        "callParams": [
                            {
                                "name": "tokenIds",
                                "type": "uint256[]",
                                "value": [
                                    "5,019",
                                    "6,433"
                                ]
                            }
                        ],
                        "constructorArguments": "",
                        "name": "stake",
                        "returnParams": [],
                        "signature": "stake(uint256[])"
                    },
                    "errorInfo": "",
                    "fromAddress": "0x487980156e97896ccbbfaa8957e76e02ed1855c5",
                    "gasUsed": 129683,
                    "id": 0,
                    "methodDecoded": true,
                    "operation": "CALL",
                    "output": "",
                    "revert": false,
                    "revertMessage": "",
                    "selector": "0x0fbf0a93",
                    "status": true,
                    "value": "0"
                },
                "nodeType": 0
            },
            "1": {
                "invocation": {
                    "address": "0x0e9d6552b85be180d941f1ca73ae3e318d2d4f1f",
                    "callData": "0x000000000000000000000000000000000000000000000000000000000000139b",
                    "decodedMethod": {
                        "callParams": [
                            {
                                "name": "tokenId",
                                "type": "uint256",
                                "value": "5,019"
                            }
                        ],
                        "constructorArguments": "",
                        "name": "ownerOf",
                        "returnParams": [
                            {
                                "name": "",
                                "type": "address",
                                "value": "0x487980156e97896ccbbfaa8957e76e02ed1855c5"
                            }
                        ],
                        "signature": "ownerOf(uint256)"
                    },
                    "errorInfo": "",
                    "fromAddress": "0xab93f992d9737bd740113643e79fe9f8b6b34696",
                    "gasUsed": 2603,
                    "id": 1,
                    "methodDecoded": true,
                    "operation": "STATICCALL",
                    "output": "0x000000000000000000000000487980156e97896ccbbfaa8957e76e02ed1855c5",
                    "revert": false,
                    "revertMessage": "",
                    "selector": "0x6352211e",
                    "status": true,
                    "value": "0"
                },
                "nodeType": 0
            },
            "10": {
                "event": {
                    "contract": "0x0e9d6552b85be180d941f1ca73ae3e318d2d4f1f",
                    "decodedLog": {
                        "name": "Approval",
                        "params": [
                            {
                                "name": "owner",
                                "type": "address",
                                "value": "0x487980156e97896ccbbfaa8957e76e02ed1855c5"
                            },
                            {
                                "name": "approved",
                                "type": "address",
                                "value": "0x0000000000000000000000000000000000000000"
                            },
                            {
                                "decimalAvailable": true,
                                "name": "tokenId",
                                "type": "uint256",
                                "value": "6,433"
                            }
                        ],
                        "signature": "Approval(address,address,uint256)"
                    },
                    "id": 10,
                    "logData": "0x",
                    "logDecoded": true,
                    "operation": "EVENT",
                    "revert": false,
                    "status": true,
                    "topics": [
                        "0x8c5be1e5ebec7d5bd14f71427d1e84f3dd0314c0f7b2291e5b200ac8c7c3b925",
                        "0x000000000000000000000000487980156e97896ccbbfaa8957e76e02ed1855c5",
                        "0x0000000000000000000000000000000000000000000000000000000000000000",
                        "0x0000000000000000000000000000000000000000000000000000000000001921"
                    ]
                },
                "nodeType": 1
            },
            "11": {
                "event": {
                    "contract": "0x0e9d6552b85be180d941f1ca73ae3e318d2d4f1f",
                    "decodedLog": {
                        "name": "Transfer",
                        "params": [
                            {
                                "name": "from",
                                "type": "address",
                                "value": "0x487980156e97896ccbbfaa8957e76e02ed1855c5"
                            },
                            {
                                "name": "to",
                                "type": "address",
                                "value": "0xab93f992d9737bd740113643e79fe9f8b6b34696"
                            },
                            {
                                "decimalAvailable": true,
                                "name": "tokenId",
                                "type": "uint256",
                                "value": "6,433"
                            }
                        ],
                        "signature": "Transfer(address,address,uint256)"
                    },
                    "id": 11,
                    "logData": "0x",
                    "logDecoded": true,
                    "operation": "EVENT",
                    "revert": false,
                    "status": true,
                    "topics": [
                        "0xddf252ad1be2c89b69c2b068fc378daa952ba7f163c4a11628f55a4df523b3ef",
                        "0x000000000000000000000000487980156e97896ccbbfaa8957e76e02ed1855c5",
                        "0x000000000000000000000000ab93f992d9737bd740113643e79fe9f8b6b34696",
                        "0x0000000000000000000000000000000000000000000000000000000000001921"
                    ]
                },
                "nodeType": 1
            },
            "12": {
                "event": {
                    "contract": "0xab93f992d9737bd740113643e79fe9f8b6b34696",
                    "decodedLog": {
                        "name": "BlockStaked",
                        "params": [
                            {
                                "name": "owner",
                                "type": "address",
                                "value": "0x487980156e97896ccbbfaa8957e76e02ed1855c5"
                            },
                            {
                                "name": "tokenId",
                                "type": "uint256",
                                "value": "6,433"
                            },
                            {
                                "name": "value",
                                "type": "uint256",
                                "value": "1,643,413,664"
                            }
                        ],
                        "signature": "BlockStaked(address,uint256,uint256)"
                    },
                    "id": 12,
                    "logData": "0x000000000000000000000000487980156e97896ccbbfaa8957e76e02ed1855c500000000000000000000000000000000000000000000000000000000000019210000000000000000000000000000000000000000000000000000000061f480a0",
                    "logDecoded": true,
                    "operation": "EVENT",
                    "revert": false,
                    "status": true,
                    "topics": [
                        "0x0dc52c88fe523ac89284b965b61e7685261ce19a7b42ab80a56c7b29f57773c9"
                    ]
                },
                "nodeType": 1
            },
            "2": {
                "invocation": {
                    "address": "0x0e9d6552b85be180d941f1ca73ae3e318d2d4f1f",
                    "callData": "0x000000000000000000000000487980156e97896ccbbfaa8957e76e02ed1855c5000000000000000000000000ab93f992d9737bd740113643e79fe9f8b6b34696000000000000000000000000000000000000000000000000000000000000139b",
                    "decodedMethod": {
                        "callParams": [
                            {
                                "name": "from",
                                "type": "address",
                                "value": "0x487980156e97896ccbbfaa8957e76e02ed1855c5"
                            },
                            {
                                "name": "to",
                                "type": "address",
                                "value": "0xab93f992d9737bd740113643e79fe9f8b6b34696"
                            },
                            {
                                "decimalAvailable": true,
                                "name": "tokenId",
                                "type": "uint256",
                                "value": "5,019"
                            }
                        ],
                        "constructorArguments": "",
                        "name": "transferFrom",
                        "returnParams": [],
                        "signature": "transferFrom(address,address,uint256)"
                    },
                    "errorInfo": "",
                    "fromAddress": "0xab93f992d9737bd740113643e79fe9f8b6b34696",
                    "gasUsed": 32214,
                    "id": 2,
                    "methodDecoded": true,
                    "operation": "CALL",
                    "output": "",
                    "revert": false,
                    "revertMessage": "",
                    "selector": "0x23b872dd",
                    "status": true,
                    "value": "0"
                },
                "nodeType": 0
            },
            "3": {
                "invocation": {
                    "address": "0xa5409ec958c83c3f309868babaca7c86dcb077c1",
                    "callData": "0x000000000000000000000000487980156e97896ccbbfaa8957e76e02ed1855c5",
                    "decodedMethod": {
                        "callParams": [
                            {
                                "name": "",
                                "type": "address",
                                "value": "0x487980156e97896ccbbfaa8957e76e02ed1855c5"
                            }
                        ],
                        "constructorArguments": "",
                        "name": "proxies",
                        "returnParams": [
                            {
                                "name": "",
                                "type": "address",
                                "value": "0xad649becccb1bb59bd5fd917bcd0b40661120b43"
                            }
                        ],
                        "signature": "proxies(address)"
                    },
                    "errorInfo": "",
                    "fromAddress": "0x0e9d6552b85be180d941f1ca73ae3e318d2d4f1f",
                    "gasUsed": 2782,
                    "id": 3,
                    "methodDecoded": true,
                    "operation": "STATICCALL",
                    "output": "0x000000000000000000000000ad649becccb1bb59bd5fd917bcd0b40661120b43",
                    "revert": false,
                    "revertMessage": "",
                    "selector": "0xc4552791",
                    "status": true,
                    "value": "0"
                },
                "nodeType": 0
            },
            "4": {
                "event": {
                    "contract": "0x0e9d6552b85be180d941f1ca73ae3e318d2d4f1f",
                    "decodedLog": {
                        "name": "Approval",
                        "params": [
                            {
                                "name": "owner",
                                "type": "address",
                                "value": "0x487980156e97896ccbbfaa8957e76e02ed1855c5"
                            },
                            {
                                "name": "approved",
                                "type": "address",
                                "value": "0x0000000000000000000000000000000000000000"
                            },
                            {
                                "decimalAvailable": true,
                                "name": "tokenId",
                                "type": "uint256",
                                "value": "5,019"
                            }
                        ],
                        "signature": "Approval(address,address,uint256)"
                    },
                    "id": 4,
                    "logData": "0x",
                    "logDecoded": true,
                    "operation": "EVENT",
                    "revert": false,
                    "status": true,
                    "topics": [
                        "0x8c5be1e5ebec7d5bd14f71427d1e84f3dd0314c0f7b2291e5b200ac8c7c3b925",
                        "0x000000000000000000000000487980156e97896ccbbfaa8957e76e02ed1855c5",
                        "0x0000000000000000000000000000000000000000000000000000000000000000",
                        "0x000000000000000000000000000000000000000000000000000000000000139b"
                    ]
                },
                "nodeType": 1
            },
            "5": {
                "event": {
                    "contract": "0x0e9d6552b85be180d941f1ca73ae3e318d2d4f1f",
                    "decodedLog": {
                        "name": "Transfer",
                        "params": [
                            {
                                "name": "from",
                                "type": "address",
                                "value": "0x487980156e97896ccbbfaa8957e76e02ed1855c5"
                            },
                            {
                                "name": "to",
                                "type": "address",
                                "value": "0xab93f992d9737bd740113643e79fe9f8b6b34696"
                            },
                            {
                                "decimalAvailable": true,
                                "name": "tokenId",
                                "type": "uint256",
                                "value": "5,019"
                            }
                        ],
                        "signature": "Transfer(address,address,uint256)"
                    },
                    "id": 5,
                    "logData": "0x",
                    "logDecoded": true,
                    "operation": "EVENT",
                    "revert": false,
                    "status": true,
                    "topics": [
                        "0xddf252ad1be2c89b69c2b068fc378daa952ba7f163c4a11628f55a4df523b3ef",
                        "0x000000000000000000000000487980156e97896ccbbfaa8957e76e02ed1855c5",
                        "0x000000000000000000000000ab93f992d9737bd740113643e79fe9f8b6b34696",
                        "0x000000000000000000000000000000000000000000000000000000000000139b"
                    ]
                },
                "nodeType": 1
            },
            "6": {
                "event": {
                    "contract": "0xab93f992d9737bd740113643e79fe9f8b6b34696",
                    "decodedLog": {
                        "name": "BlockStaked",
                        "params": [
                            {
                                "name": "owner",
                                "type": "address",
                                "value": "0x487980156e97896ccbbfaa8957e76e02ed1855c5"
                            },
                            {
                                "name": "tokenId",
                                "type": "uint256",
                                "value": "5,019"
                            },
                            {
                                "name": "value",
                                "type": "uint256",
                                "value": "1,643,413,664"
                            }
                        ],
                        "signature": "BlockStaked(address,uint256,uint256)"
                    },
                    "id": 6,
                    "logData": "0x000000000000000000000000487980156e97896ccbbfaa8957e76e02ed1855c5000000000000000000000000000000000000000000000000000000000000139b0000000000000000000000000000000000000000000000000000000061f480a0",
                    "logDecoded": true,
                    "operation": "EVENT",
                    "revert": false,
                    "status": true,
                    "topics": [
                        "0x0dc52c88fe523ac89284b965b61e7685261ce19a7b42ab80a56c7b29f57773c9"
                    ]
                },
                "nodeType": 1
            },
            "7": {
                "invocation": {
                    "address": "0x0e9d6552b85be180d941f1ca73ae3e318d2d4f1f",
                    "callData": "0x0000000000000000000000000000000000000000000000000000000000001921",
                    "decodedMethod": {
                        "callParams": [
                            {
                                "name": "tokenId",
                                "type": "uint256",
                                "value": "6,433"
                            }
                        ],
                        "constructorArguments": "",
                        "name": "ownerOf",
                        "returnParams": [
                            {
                                "name": "",
                                "type": "address",
                                "value": "0x487980156e97896ccbbfaa8957e76e02ed1855c5"
                            }
                        ],
                        "signature": "ownerOf(uint256)"
                    },
                    "errorInfo": "",
                    "fromAddress": "0xab93f992d9737bd740113643e79fe9f8b6b34696",
                    "gasUsed": 2603,
                    "id": 7,
                    "methodDecoded": true,
                    "operation": "STATICCALL",
                    "output": "0x000000000000000000000000487980156e97896ccbbfaa8957e76e02ed1855c5",
                    "revert": false,
                    "revertMessage": "",
                    "selector": "0x6352211e",
                    "status": true,
                    "value": "0"
                },
                "nodeType": 0
            },
            "8": {
                "invocation": {
                    "address": "0x0e9d6552b85be180d941f1ca73ae3e318d2d4f1f",
                    "callData": "0x000000000000000000000000487980156e97896ccbbfaa8957e76e02ed1855c5000000000000000000000000ab93f992d9737bd740113643e79fe9f8b6b346960000000000000000000000000000000000000000000000000000000000001921",
                    "decodedMethod": {
                        "callParams": [
                            {
                                "name": "from",
                                "type": "address",
                                "value": "0x487980156e97896ccbbfaa8957e76e02ed1855c5"
                            },
                            {
                                "name": "to",
                                "type": "address",
                                "value": "0xab93f992d9737bd740113643e79fe9f8b6b34696"
                            },
                            {
                                "decimalAvailable": true,
                                "name": "tokenId",
                                "type": "uint256",
                                "value": "6,433"
                            }
                        ],
                        "constructorArguments": "",
                        "name": "transferFrom",
                        "returnParams": [],
                        "signature": "transferFrom(address,address,uint256)"
                    },
                    "errorInfo": "",
                    "fromAddress": "0xab93f992d9737bd740113643e79fe9f8b6b34696",
                    "gasUsed": 14114,
                    "id": 8,
                    "methodDecoded": true,
                    "operation": "CALL",
                    "output": "",
                    "revert": false,
                    "revertMessage": "",
                    "selector": "0x23b872dd",
                    "status": true,
                    "value": "0"
                },
                "nodeType": 0
            },
            "9": {
                "invocation": {
                    "address": "0xa5409ec958c83c3f309868babaca7c86dcb077c1",
                    "callData": "0x000000000000000000000000487980156e97896ccbbfaa8957e76e02ed1855c5",
                    "decodedMethod": {
                        "callParams": [
                            {
                                "name": "",
                                "type": "address",
                                "value": "0x487980156e97896ccbbfaa8957e76e02ed1855c5"
                            }
                        ],
                        "constructorArguments": "",
                        "name": "proxies",
                        "returnParams": [
                            {
                                "name": "",
                                "type": "address",
                                "value": "0xad649becccb1bb59bd5fd917bcd0b40661120b43"
                            }
                        ],
                        "signature": "proxies(address)"
                    },
                    "errorInfo": "",
                    "fromAddress": "0x0e9d6552b85be180d941f1ca73ae3e318d2d4f1f",
                    "gasUsed": 782,
                    "id": 9,
                    "methodDecoded": true,
                    "operation": "STATICCALL",
                    "output": "0x000000000000000000000000ad649becccb1bb59bd5fd917bcd0b40661120b43",
                    "revert": false,
                    "revertMessage": "",
                    "selector": "0xc4552791",
                    "status": true,
                    "value": "0"
                },
                "nodeType": 0
            }
        },
        "gasFlame": [
            {
                "children": [
                    {
                        "children": [
                            {
                                "children": [],
                                "depth": 0,
                                "name": "Initial Gas",
                                "value": 21648
                            },
                            {
                                "children": [
                                    {
                                        "children": [],
                                        "depth": 1,
                                        "name": "ownerOf",
                                        "value": 2603
                                    },
                                    {
                                        "children": [
                                            {
                                                "children": [],
                                                "depth": 2,
                                                "name": "proxies",
                                                "value": 2782
                                            }
                                        ],
                                        "depth": 1,
                                        "name": "transferFrom",
                                        "value": 32214
                                    },
                                    {
                                        "children": [],
                                        "depth": 1,
                                        "name": "ownerOf",
                                        "value": 2603
                                    },
                                    {
                                        "children": [
                                            {
                                                "children": [],
                                                "depth": 2,
                                                "name": "proxies",
                                                "value": 782
                                            }
                                        ],
                                        "depth": 1,
                                        "name": "transferFrom",
                                        "value": 14114
                                    }
                                ],
                                "depth": 0,
                                "name": "Executed Gas",
                                "value": 112835
                            }
                        ],
                        "depth": -1,
                        "name": "Actual Gas Used",
                        "value": 129683
                    },
                    {
                        "children": [],
                        "depth": -1,
                        "name": "Refunded Gas",
                        "value": 4800
                    }
                ],
                "depth": -2,
                "name": "Total Gas",
                "value": 134483
            }
        ],
        "isConfirmed": true,
        "mainTrace": [
            {
                "children": [
                    {
                        "children": [
                            {
                                "children": [],
                                "depth": 1,
                                "id": 1,
                                "order": 1
                            },
                            {
                                "children": [
                                    {
                                        "children": [],
                                        "depth": 2,
                                        "id": 3,
                                        "order": 3
                                    },
                                    {
                                        "children": [],
                                        "depth": 2,
                                        "id": 4,
                                        "order": 4
                                    },
                                    {
                                        "children": [],
                                        "depth": 2,
                                        "id": 5,
                                        "order": 5
                                    }
                                ],
                                "depth": 1,
                                "id": 2,
                                "order": 2
                            },
                            {
                                "children": [],
                                "depth": 1,
                                "id": 6,
                                "order": 6
                            },
                            {
                                "children": [],
                                "depth": 1,
                                "id": 7,
                                "order": 7
                            },
                            {
                                "children": [
                                    {
                                        "children": [],
                                        "depth": 2,
                                        "id": 9,
                                        "order": 9
                                    },
                                    {
                                        "children": [],
                                        "depth": 2,
                                        "id": 10,
                                        "order": 10
                                    },
                                    {
                                        "children": [],
                                        "depth": 2,
                                        "id": 11,
                                        "order": 11
                                    }
                                ],
                                "depth": 1,
                                "id": 8,
                                "order": 8
                            },
                            {
                                "children": [],
                                "depth": 1,
                                "id": 12,
                                "order": 12
                            }
                        ],
                        "depth": 0,
                        "id": 0,
                        "order": 0
                    }
                ],
                "depth": -1,
                "id": -1,
                "order": -1
            }
        ],
        "mainTraceNodeCount": 13,
        "parentIdMap": {
            "0": -1,
            "1": 0,
            "10": 8,
            "11": 8,
            "12": 0,
            "2": 0,
            "3": 2,
            "4": 2,
            "5": 2,
            "6": 0,
            "7": 0,
            "8": 0,
            "9": 8
        },
        "tidyTrace": [
            {
                "children": [
                    {
                        "children": [
                            {
                                "children": [
                                    {
                                        "children": [],
                                        "depth": 2,
                                        "id": 4,
                                        "order": 4
                                    },
                                    {
                                        "children": [],
                                        "depth": 2,
                                        "id": 5,
                                        "order": 5
                                    }
                                ],
                                "depth": 1,
                                "id": 2,
                                "order": 2
                            },
                            {
                                "children": [],
                                "depth": 1,
                                "id": 6,
                                "order": 6
                            },
                            {
                                "children": [
                                    {
                                        "children": [],
                                        "depth": 2,
                                        "id": 10,
                                        "order": 10
                                    },
                                    {
                                        "children": [],
                                        "depth": 2,
                                        "id": 11,
                                        "order": 11
                                    }
                                ],
                                "depth": 1,
                                "id": 8,
                                "order": 8
                            },
                            {
                                "children": [],
                                "depth": 1,
                                "id": 12,
                                "order": 12
                            }
                        ],
                        "depth": 0,
                        "id": 0,
                        "order": 0
                    }
                ],
                "depth": -1,
                "id": -1,
                "order": -1
            }
        ],
        "tidyTraceNodeCount": 9
    },
    "state_change": {
        "stateChanges": [
            {
                "address": "0x0e9d6552b85be180d941f1ca73ae3e318d2d4f1f",
                "erc": "ERC-721",
                "slots": [
                    {
                        "current": "0x0000000000000000000000000000000000000000000000000000000000000000",
                        "key": "0xb53720f4ad79c04768a922b189de143bb90b4f1583c3fb6c43461c5ac60595b2",
                        "prev": "0x0000000000000000000000000000000000000000000000000000000000000002"
                    },
                    {
                        "current": "0x0000000000000000000000000000000000000000000000000000000000002328",
                        "key": "0xc8d4890e708d697e971a175c9482fa316ef7c6e3bd512c064605dab5479087bd",
                        "prev": "0x0000000000000000000000000000000000000000000000000000000000002326"
                    },
                    {
                        "current": "0x000000000000000000000000ab93f992d9737bd740113643e79fe9f8b6b34696",
                        "key": "0xaf12468a1e2942ddbed5c88969b25cf0c139a7ec47462bd733ff282d8797097d",
                        "prev": "0x000000000000000000000000487980156e97896ccbbfaa8957e76e02ed1855c5"
                    },
                    {
                        "current": "0x000000000000000000000000ab93f992d9737bd740113643e79fe9f8b6b34696",
                        "key": "0xc7636f5c94efe2bd31586be845ff8e97d4fb9c09ac77d0cc2efbad064882f9cf",
                        "prev": "0x000000000000000000000000487980156e97896ccbbfaa8957e76e02ed1855c5"
                    }
                ],
                "storageVariables": [
                    {
                        "name": "_balances",
                        "type": "mapping(address => uint256)",
                        "value": {
                            "pairs": [
                                {
                                    "key": "0x487980156e97896ccbbfaa8957e76e02ed1855c5",
                                    "value": {
                                        "current": "0",
                                        "prev": "2",
                                        "typeTag": 1
                                    }
                                },
                                {
                                    "key": "0xab93f992d9737bd740113643e79fe9f8b6b34696",
                                    "value": {
                                        "current": "9000",
                                        "prev": "8998",
                                        "typeTag": 1
                                    }
                                }
                            ],
                            "typeTag": 4
                        }
                    },
                    {
                        "name": "_owners",
                        "type": "mapping(uint256 => address)",
                        "value": {
                            "pairs": [
                                {
                                    "key": "5019",
                                    "value": {
                                        "current": "0xab93f992d9737bd740113643e79fe9f8b6b34696",
                                        "prev": "0x487980156e97896ccbbfaa8957e76e02ed1855c5",
                                        "typeTag": 1
                                    }
                                },
                                {
                                    "key": "6433",
                                    "value": {
                                        "current": "0xab93f992d9737bd740113643e79fe9f8b6b34696",
                                        "prev": "0x487980156e97896ccbbfaa8957e76e02ed1855c5",
                                        "typeTag": 1
                                    }
                                }
                            ],
                            "typeTag": 4
                        }
                    }
                ]
            },
            {
                "address": "0xab93f992d9737bd740113643e79fe9f8b6b34696",
                "erc": "",
                "slots": [
                    {
                        "current": "0x0000000000000000000000000000000000000000000000000000000000002328",
                        "key": "0x0000000000000000000000000000000000000000000000000000000000000001",
                        "prev": "0x0000000000000000000000000000000000000000000000000000000000002326"
                    },
                    {
                        "current": "0x000000487980156e97896ccbbfaa8957e76e02ed1855c5000061f480a000139b",
                        "key": "0xea916b5e142518edf6cb33472547318d48d8c2be5b7fb155ec4b5844241e5002",
                        "prev": "0x0000000000000000000000000000000000000000000000000000000000000000"
                    },
                    {
                        "current": "0x000000487980156e97896ccbbfaa8957e76e02ed1855c5000061f480a0001921",
                        "key": "0x72746bf4a7ad9914ba8684c518a2daa576f836d33990a7673ac5b2fd25d5cb66",
                        "prev": "0x0000000000000000000000000000000000000000000000000000000000000000"
                    }
                ],
                "storageVariables": [
                    {
                        "name": "totalStaked",
                        "type": "uint256",
                        "value": {
                            "current": "9000",
                            "prev": "8998",
                            "typeTag": 1
                        }
                    },
                    {
                        "name": "vault",
                        "type": "mapping(uint256 => struct MetroverseVault.Stake)",
                        "value": {
                            "pairs": [
                                {
                                    "key": "5019",
                                    "value": {
                                        "fields": [
                                            {
                                                "name": "tokenId",
                                                "type": "uint24",
                                                "value": {
                                                    "current": "5019",
                                                    "prev": "0",
                                                    "typeTag": 1
                                                }
                                            },
                                            {
                                                "name": "timestamp",
                                                "type": "uint48",
                                                "value": {
                                                    "current": "1643413664",
                                                    "prev": "0",
                                                    "typeTag": 1
                                                }
                                            },
                                            {
                                                "name": "owner",
                                                "type": "address",
                                                "value": {
                                                    "current": "0x487980156e97896ccbbfaa8957e76e02ed1855c5",
                                                    "prev": "0x0000000000000000000000000000000000000000",
                                                    "typeTag": 1
                                                }
                                            }
                                        ],
                                        "typeTag": 3
                                    }
                                },
                                {
                                    "key": "6433",
                                    "value": {
                                        "fields": [
                                            {
                                                "name": "tokenId",
                                                "type": "uint24",
                                                "value": {
                                                    "current": "6433",
                                                    "prev": "0",
                                                    "typeTag": 1
                                                }
                                            },
                                            {
                                                "name": "timestamp",
                                                "type": "uint48",
                                                "value": {
                                                    "current": "1643413664",
                                                    "prev": "0",
                                                    "typeTag": 1
                                                }
                                            },
                                            {
                                                "name": "owner",
                                                "type": "address",
                                                "value": {
                                                    "current": "0x487980156e97896ccbbfaa8957e76e02ed1855c5",
                                                    "prev": "0x0000000000000000000000000000000000000000",
                                                    "typeTag": 1
                                                }
                                            }
                                        ],
                                        "typeTag": 3
                                    }
                                }
                            ],
                            "typeTag": 4
                        }
                    }
                ]
            }
        ]
    }
}