{
    "balance_change": {
        "balanceChanges": []
    },
    "profile": {
        "basic_info": {
            "baseFee": "",
            "blockNumber": 12096458,
            "callData": "0xf19e0d07000000000000000000000000000000000000000000000000400d1180180e320000000000000000000000000000000000000000000000008a78b019710c0e1880000000000000000000000000000000000000000000000025737730d3f023c80000000000000000000000000000000000000000000000000000000001e6142c7800000000000000000000000000000000000000000000000041db2985290f53a8a5f6f8e5888feae654fa90110246db91788fae1d2d25a6c6411ba5caee2e998977deef93e584aae39aa730392ddbe9542e1a22f602ccf99f8d676aedc43aeadafe44842f5296182ba01f7b164d1a4d0c954a2e61f6f58f2b6d298fee09bc3f8f2d69091ebdf7f92c012bd29d2f6c7f88f9330eaaad9939078ed7dc24c12cf0ff06dad3608a7555326397d05c99ed899415397da6b6b6288210ad77faa598b86e7dc9f0af66490cde599182d75d1e644c6b2a8bc5fc4a8504a6ada0e039c467fc0055dc7d63758f704a43956e2a0daf038664af34acd80704cda369c5260dd9a2",
            "debugEnable": true,
            "errorInfo": "",
            "eventCount": 0,
            "feeRecipient": "0x829bd824b016326a401d083b33d092293333a830",
            "formatValue": "0",
            "gasLimit": 870000,
            "gasPrice": "254",
            "gasUsed": 62074,
            "intTxnCount": 13,
            "internalRevert": false,
            "internalRevertMessage": "",
            "isContractCreation": false,
            "isFlashloan": false,
            "maxFee": "",
            "nonce": 56,
            "overwritedBlockNumber": -1,
            "priorityFee": "",
            "receiver": "0x495e7ff3cb2f310525580e6c1ab689abdde4bfb2",
            "revertMessage": "",
            "sender": "0xb0f9f8099a0ef75d988ccf9d466ae4ba55a90649",
            "simulationEnable": true,
            "sourceTxnHash": "0x279ea4339bf37c2d7b2359cbae64f92319293332e685f5c727536156f26341a8",
            "status": true,
            "timestamp": "2021-03-23T17:21:41Z",
            "transactionFee": "0.015766796",
            "txnHash": "0x279ea4339bf37c2d7b2359cbae64f92319293332e685f5c727536156f26341a8",
            "txnIndex": 63,
            "type": 0,
            "value": "0"
        },
        "fund_flow": [],
        "token_infos": [
            {
                "address": "0xeeeeeeeeeeeeeeeeeeeeeeeeeeeeeeeeeeeeeeee",
                "decimals": 18
            },
            {
                "address": "0xc02aaa39b223fe8d0a0e5c4f27ead9083c756cc2",
                "decimals": 18
            }
        ]
    },
    "address_label": {
        "labels": [
            {
                "address": "0xc646a2d0a741b28de612365f3cc220c45f80eccf",
                "label": "Uniswap V2: WAVES-CRV"
            },
            {
                "address": "0x0000000000000000000000000000000000000004",
                "label": "Precompiled"
            },
            {
                "address": "0xeeeeeeeeeeeeeeeeeeeeeeeeeeeeeeeeeeeeeeee",
                "label": "Ether"
            },
            {
                "address": "0x7a250d5630b4cf539739df2c5dacb4c659f2488d",
                "label": "Uniswap V2: Router 2"
            },
            {
                "address": "0xc02aaa39b223fe8d0a0e5c4f27ead9083c756cc2",
                "label": "Wrapped Ether (WETH)"
            },
            {
                "address": "0x27ed3141c1fa47113c6812c02d69d5aa044309c9",
                "label": "Uniswap V2: WAVES-USDT"
            },
            {
                "address": "0x0000000000000000000000000000000000000001",
                "label": "Precompiled"
            },
            {
                "address": "0x0000000000000000000000000000000000000002",
                "label": "Precompiled"
            },
            {
                "address": "0xd533a949740bb3306d119cc777fa900ba034cd52",
                "label": "Curve.fi: CRV Token"
            },
            {
                "address": "0xd9e1ce17f2641f24ae83637ab66a2cca9c378b9f",
                "label": "SushiSwap: Router"
            },
            {
                "address": "0xdac17f958d2ee523a2206206994597c13d831ec7",
                "label": "Tether: USDT Stablecoin"
            },
            {
                "address": "0x58dc5a51fe44589beb22e8ce67720b5bc5378009",
                "label": "SushiSwap: CRV"
            },
            {
                "address": "0x0000000000000000000000000000000000000003",
                "label": "Precompiled"
            },
            {
                "address": "0x1cf4592ebffd730c7dc92c1bdffdfc3b9efcf29a",
                "label": "Waves: WAVES Token"
            }
        ]
    },
    "trace": {
        "accountLabels": null,
        "dataMap": {
            "-1": {
                "invocation": {
                    "address": "0xb0f9f8099a0ef75d988ccf9d466ae4ba55a90649",
                    "callData": "",
                    "decodedMethod": null,
                    "errorInfo": "",
                    "fromAddress": "",
                    "gasUsed": 0,
                    "id": -1,
                    "methodDecoded": false,
                    "operation": "",
                    "output": "",
                    "revert": false,
                    "revertMessage": "",
                    "selector": "",
                    "status": false,
                    "value": ""
                },
                "nodeType": 0
            },
            "0": {
                "invocation": {
                    "address": "0x495e7ff3cb2f310525580e6c1ab689abdde4bfb2",
                    "callData": "0x000000000000000000000000000000000000000000000000400d1180180e320000000000000000000000000000000000000000000000008a78b019710c0e1880000000000000000000000000000000000000000000000025737730d3f023c80000000000000000000000000000000000000000000000000000000001e6142c7800000000000000000000000000000000000000000000000041db2985290f53a8a5f6f8e5888feae654fa90110246db91788fae1d2d25a6c6411ba5caee2e998977deef93e584aae39aa730392ddbe9542e1a22f602ccf99f8d676aedc43aeadafe44842f5296182ba01f7b164d1a4d0c954a2e61f6f58f2b6d298fee09bc3f8f2d69091ebdf7f92c012bd29d2f6c7f88f9330eaaad9939078ed7dc24c12cf0ff06dad3608a7555326397d05c99ed899415397da6b6b6288210ad77faa598b86e7dc9f0af66490cde599182d75d1e644c6b2a8bc5fc4a8504a6ada0e039c467fc0055dc7d63758f704a43956e2a0daf038664af34acd80704cda369c5260dd9a2",
                    "decodedMethod": null,
                    "errorInfo": "",
                    "fromAddress": "0xb0f9f8099a0ef75d988ccf9d466ae4ba55a90649",
                    "gasUsed": 62074,
                    "id": 0,
                    "methodDecoded": false,
                    "operation": "CALL",
                    "output": "",
                    "revert": false,
                    "revertMessage": "",
                    "selector": "0xf19e0d07",
                    "status": true,
                    "value": "0"
                },
                "nodeType": 0
            },
            "1": {
                "invocation": {
                    "address": "0xda0e400e867f242f9ff04bdb8d1bfea83a19e88d",
                    "callData": "0x000000000000000000000000000000000000000000000000400d1180180e320000000000000000000000000000000000000000000000008a78b019710c0e1880000000000000000000000000000000000000000000000025737730d3f023c80000000000000000000000000000000000000000000000000000000001e6142c7800000000000000000000000000000000000000000000000041db2985290f53a8a5f6f8e5888feae654fa90110246db91788fae1d2d25a6c6411ba5caee2e998977deef93e584aae39aa730392ddbe9542e1a22f602ccf99f8d676aedc43aeadafe44842f5296182ba01f7b164d1a4d0c954a2e61f6f58f2b6d298fee09bc3f8f2d69091ebdf7f92c012bd29d2f6c7f88f9330eaaad9939078ed7dc24c12cf0ff06dad3608a7555326397d05c99ed899415397da6b6b6288210ad77faa598b86e7dc9f0af66490cde599182d75d1e644c6b2a8bc5fc4a8504a6ada0e039c467fc0055dc7d63758f704a43956e2a0daf038664af34acd80704cda369c5260dd9a2",
                    "decodedMethod": null,
                    "errorInfo": "",
                    "fromAddress": "0x495e7ff3cb2f310525580e6c1ab689abdde4bfb2",
                    "gasUsed": 35300,
                    "id": 1,
                    "methodDecoded": false,
                    "operation": "DELEGATECALL",
                    "output": "",
                    "revert": false,
                    "revertMessage": "",
                    "selector": "0xf19e0d07",
                    "status": true,
                    "value": "0"
                },
                "nodeType": 0
            },
            "10": {
                "invocation": {
                    "address": "0x8a6b169467ae96e8bc7ebf05904c952177de3327",
                    "callData": "0x00000000000000000000000058dc5a51fe44589beb22e8ce67720b5bc5378009000000000000000000000000000000000000000000000000400d1180180e3200000000000000000000000000c02aaa39b223fe8d0a0e5c4f27ead9083c756cc2000000000000000000000000d533a949740bb3306d119cc777fa900ba034cd52",
                    "decodedMethod": {
                        "callParams": [
                            {
                                "name": "_lp",
                                "type": "address",
                                "value": "0x58dc5a51fe44589beb22e8ce67720b5bc5378009"
                            },
                            {
                                "name": "_amountIn",
                                "type": "uint256",
                                "value": "4,615,364,434,981,696,000"
                            },
                            {
                                "name": "_tokenIn",
                                "type": "address",
                                "value": "0xc02aaa39b223fe8d0a0e5c4f27ead9083c756cc2"
                            },
                            {
                                "name": "_tokenOut",
                                "type": "address",
                                "value": "0xd533a949740bb3306d119cc777fa900ba034cd52"
                            }
                        ],
                        "constructorArguments": "",
                        "name": "getAmountOut",
                        "returnParams": [
                            {
                                "name": "",
                                "type": "uint256",
                                "value": "2,501,464,356,545,668,668,101"
                            }
                        ],
                        "signature": "getAmountOut(address,uint256,address,address)"
                    },
                    "errorInfo": "",
                    "fromAddress": "0x495e7ff3cb2f310525580e6c1ab689abdde4bfb2",
                    "gasUsed": 8779,
                    "id": 10,
                    "methodDecoded": true,
                    "operation": "STATICCALL",
                    "output": "0x0000000000000000000000000000000000000000000000879acaa2f3bda95ac5",
                    "revert": false,
                    "revertMessage": "",
                    "selector": "0x1ad0cdb5",
                    "status": true,
                    "value": "0"
                },
                "nodeType": 0
            },
            "11": {
                "invocation": {
                    "address": "0x58dc5a51fe44589beb22e8ce67720b5bc5378009",
                    "callData": "0x",
                    "decodedMethod": {
                        "callParams": [],
                        "constructorArguments": "",
                        "name": "getReserves",
                        "returnParams": [
                            {
                                "name": "_reserve0",
                                "type": "uint112",
                                "value": "5,075,927,496,848,439,883,392"
                            },
                            {
                                "name": "_reserve1",
                                "type": "uint112",
                                "value": "2,761,862,780,984,415,002,534,123"
                            },
                            {
                                "name": "_blockTimestampLast",
                                "type": "uint32",
                                "value": "1,616,520,101"
                            }
                        ],
                        "signature": "getReserves()"
                    },
                    "errorInfo": "",
                    "fromAddress": "0x8a6b169467ae96e8bc7ebf05904c952177de3327",
                    "gasUsed": 1217,
                    "id": 11,
                    "methodDecoded": true,
                    "operation": "STATICCALL",
                    "output": "0x0000000000000000000000000000000000000000000001132aa50cf798f9b6800000000000000000000000000000000000000000000248d8e1a0f92bb5afa0eb00000000000000000000000000000000000000000000000000000000605a23a5",
                    "revert": false,
                    "revertMessage": "",
                    "selector": "0x0902f1ac",
                    "status": true,
                    "value": "0"
                },
                "nodeType": 0
            },
            "12": {
                "invocation": {
                    "address": "0x58dc5a51fe44589beb22e8ce67720b5bc5378009",
                    "callData": "0x",
                    "decodedMethod": {
                        "callParams": [],
                        "constructorArguments": "",
                        "name": "token0",
                        "returnParams": [
                            {
                                "name": "",
                                "type": "address",
                                "value": "0xc02aaa39b223fe8d0a0e5c4f27ead9083c756cc2"
                            }
                        ],
                        "signature": "token0()"
                    },
                    "errorInfo": "",
                    "fromAddress": "0x8a6b169467ae96e8bc7ebf05904c952177de3327",
                    "gasUsed": 1149,
                    "id": 12,
                    "methodDecoded": true,
                    "operation": "STATICCALL",
                    "output": "0x000000000000000000000000c02aaa39b223fe8d0a0e5c4f27ead9083c756cc2",
                    "revert": false,
                    "revertMessage": "",
                    "selector": "0x0dfe1681",
                    "status": true,
                    "value": "0"
                },
                "nodeType": 0
            },
            "13": {
                "invocation": {
                    "address": "0xd9e1ce17f2641f24ae83637ab66a2cca9c378b9f",
                    "callData": "0x000000000000000000000000000000000000000000000000400d1180180e32000000000000000000000000000000000000000000000001132aa50cf798f9b6800000000000000000000000000000000000000000000248d8e1a0f92bb5afa0eb",
                    "decodedMethod": {
                        "callParams": [
                            {
                                "name": "amountIn",
                                "type": "uint256",
                                "value": "4,615,364,434,981,696,000"
                            },
                            {
                                "name": "reserveIn",
                                "type": "uint256",
                                "value": "5,075,927,496,848,439,883,392"
                            },
                            {
                                "name": "reserveOut",
                                "type": "uint256",
                                "value": "2,761,862,780,984,415,002,534,123"
                            }
                        ],
                        "constructorArguments": "",
                        "name": "getAmountOut",
                        "returnParams": [
                            {
                                "name": "amountOut",
                                "type": "uint256",
                                "value": "2,501,464,356,545,668,668,101"
                            }
                        ],
                        "signature": "getAmountOut(uint256,uint256,uint256)"
                    },
                    "errorInfo": "",
                    "fromAddress": "0x8a6b169467ae96e8bc7ebf05904c952177de3327",
                    "gasUsed": 974,
                    "id": 13,
                    "methodDecoded": true,
                    "operation": "STATICCALL",
                    "output": "0x0000000000000000000000000000000000000000000000879acaa2f3bda95ac5",
                    "revert": false,
                    "revertMessage": "",
                    "selector": "0x054d50d4",
                    "status": true,
                    "value": "0"
                },
                "nodeType": 0
            },
            "2": {
                "invocation": {
                    "address": "0x5c305a065dca4074a5f62451313b1a039397e05c",
                    "callData": "0x000000000000000000000000c646a2d0a741b28de612365f3cc220c45f80eccf00000000000000000000000000000000000000000000008a78b019710c0e1880000000000000000000000000d533a949740bb3306d119cc777fa900ba034cd520000000000000000000000001cf4592ebffd730c7dc92c1bdffdfc3b9efcf29a",
                    "decodedMethod": {
                        "callParams": [
                            {
                                "name": "_lp",
                                "type": "address",
                                "value": "0xc646a2d0a741b28de612365f3cc220c45f80eccf"
                            },
                            {
                                "name": "_amountIn",
                                "type": "uint256",
                                "value": "2,554,347,161,025,694,800,000"
                            },
                            {
                                "name": "_tokenIn",
                                "type": "address",
                                "value": "0xd533a949740bb3306d119cc777fa900ba034cd52"
                            },
                            {
                                "name": "_tokenOut",
                                "type": "address",
                                "value": "0x1cf4592ebffd730c7dc92c1bdffdfc3b9efcf29a"
                            }
                        ],
                        "constructorArguments": "",
                        "name": "getAmountOut",
                        "returnParams": [
                            {
                                "name": "",
                                "type": "uint256",
                                "value": "690,849,703,250,668,841,418"
                            }
                        ],
                        "signature": "getAmountOut(address,uint256,address,address)"
                    },
                    "errorInfo": "",
                    "fromAddress": "0x495e7ff3cb2f310525580e6c1ab689abdde4bfb2",
                    "gasUsed": 8735,
                    "id": 2,
                    "methodDecoded": true,
                    "operation": "STATICCALL",
                    "output": "0x000000000000000000000000000000000000000000000025737730d3f02469ca",
                    "revert": false,
                    "revertMessage": "",
                    "selector": "0x1ad0cdb5",
                    "status": true,
                    "value": "0"
                },
                "nodeType": 0
            },
            "3": {
                "invocation": {
                    "address": "0xc646a2d0a741b28de612365f3cc220c45f80eccf",
                    "callData": "0x",
                    "decodedMethod": {
                        "callParams": [],
                        "constructorArguments": "",
                        "name": "getReserves",
                        "returnParams": [
                            {
                                "name": "_reserve0",
                                "type": "uint112",
                                "value": "50,901,525,039,220,135,103,197"
                            },
                            {
                                "name": "_reserve1",
                                "type": "uint112",
                                "value": "185,091,965,601,129,950,220,346"
                            },
                            {
                                "name": "_blockTimestampLast",
                                "type": "uint32",
                                "value": "1,616,519,990"
                            }
                        ],
                        "signature": "getReserves()"
                    },
                    "errorInfo": "",
                    "fromAddress": "0x5c305a065dca4074a5f62451313b1a039397e05c",
                    "gasUsed": 1204,
                    "id": 3,
                    "methodDecoded": true,
                    "operation": "STATICCALL",
                    "output": "0x000000000000000000000000000000000000000000000ac7609047552f810add000000000000000000000000000000000000000000002731db0606f6fb92103a00000000000000000000000000000000000000000000000000000000605a2336",
                    "revert": false,
                    "revertMessage": "",
                    "selector": "0x0902f1ac",
                    "status": true,
                    "value": "0"
                },
                "nodeType": 0
            },
            "4": {
                "invocation": {
                    "address": "0xc646a2d0a741b28de612365f3cc220c45f80eccf",
                    "callData": "0x",
                    "decodedMethod": {
                        "callParams": [],
                        "constructorArguments": "",
                        "name": "token0",
                        "returnParams": [
                            {
                                "name": "",
                                "type": "address",
                                "value": "0x1cf4592ebffd730c7dc92c1bdffdfc3b9efcf29a"
                            }
                        ],
                        "signature": "token0()"
                    },
                    "errorInfo": "",
                    "fromAddress": "0x5c305a065dca4074a5f62451313b1a039397e05c",
                    "gasUsed": 1081,
                    "id": 4,
                    "methodDecoded": true,
                    "operation": "STATICCALL",
                    "output": "0x0000000000000000000000001cf4592ebffd730c7dc92c1bdffdfc3b9efcf29a",
                    "revert": false,
                    "revertMessage": "",
                    "selector": "0x0dfe1681",
                    "status": true,
                    "value": "0"
                },
                "nodeType": 0
            },
            "5": {
                "invocation": {
                    "address": "0x7a250d5630b4cf539739df2c5dacb4c659f2488d",
                    "callData": "0x00000000000000000000000000000000000000000000008a78b019710c0e1880000000000000000000000000000000000000000000002731db0606f6fb92103a000000000000000000000000000000000000000000000ac7609047552f810add",
                    "decodedMethod": {
                        "callParams": [
                            {
                                "name": "amountIn",
                                "type": "uint256",
                                "value": "2,554,347,161,025,694,800,000"
                            },
                            {
                                "name": "reserveIn",
                                "type": "uint256",
                                "value": "185,091,965,601,129,950,220,346"
                            },
                            {
                                "name": "reserveOut",
                                "type": "uint256",
                                "value": "50,901,525,039,220,135,103,197"
                            }
                        ],
                        "constructorArguments": "",
                        "name": "getAmountOut",
                        "returnParams": [
                            {
                                "name": "amountOut",
                                "type": "uint256",
                                "value": "690,849,703,250,668,841,418"
                            }
                        ],
                        "signature": "getAmountOut(uint256,uint256,uint256)"
                    },
                    "errorInfo": "",
                    "fromAddress": "0x5c305a065dca4074a5f62451313b1a039397e05c",
                    "gasUsed": 1021,
                    "id": 5,
                    "methodDecoded": true,
                    "operation": "STATICCALL",
                    "output": "0x000000000000000000000000000000000000000000000025737730d3f02469ca",
                    "revert": false,
                    "revertMessage": "",
                    "selector": "0x054d50d4",
                    "status": true,
                    "value": "0"
                },
                "nodeType": 0
            },
            "6": {
                "invocation": {
                    "address": "0x5c305a065dca4074a5f62451313b1a039397e05c",
                    "callData": "0x00000000000000000000000027ed3141c1fa47113c6812c02d69d5aa044309c9000000000000000000000000000000000000000000000025737730d3f023c8000000000000000000000000001cf4592ebffd730c7dc92c1bdffdfc3b9efcf29a000000000000000000000000dac17f958d2ee523a2206206994597c13d831ec7",
                    "decodedMethod": {
                        "callParams": [
                            {
                                "name": "_lp",
                                "type": "address",
                                "value": "0x27ed3141c1fa47113c6812c02d69d5aa044309c9"
                            },
                            {
                                "name": "_amountIn",
                                "type": "uint256",
                                "value": "690,849,703,250,668,800,000"
                            },
                            {
                                "name": "_tokenIn",
                                "type": "address",
                                "value": "0x1cf4592ebffd730c7dc92c1bdffdfc3b9efcf29a"
                            },
                            {
                                "name": "_tokenOut",
                                "type": "address",
                                "value": "0xdac17f958d2ee523a2206206994597c13d831ec7"
                            }
                        ],
                        "constructorArguments": "",
                        "name": "getAmountOut",
                        "returnParams": [
                            {
                                "name": "",
                                "type": "uint256",
                                "value": "8,155,049,080"
                            }
                        ],
                        "signature": "getAmountOut(address,uint256,address,address)"
                    },
                    "errorInfo": "",
                    "fromAddress": "0x495e7ff3cb2f310525580e6c1ab689abdde4bfb2",
                    "gasUsed": 8745,
                    "id": 6,
                    "methodDecoded": true,
                    "operation": "STATICCALL",
                    "output": "0x00000000000000000000000000000000000000000000000000000001e6142c78",
                    "revert": false,
                    "revertMessage": "",
                    "selector": "0x1ad0cdb5",
                    "status": true,
                    "value": "0"
                },
                "nodeType": 0
            },
            "7": {
                "invocation": {
                    "address": "0x27ed3141c1fa47113c6812c02d69d5aa044309c9",
                    "callData": "0x",
                    "decodedMethod": {
                        "callParams": [],
                        "constructorArguments": "",
                        "name": "getReserves",
                        "returnParams": [
                            {
                                "name": "_reserve0",
                                "type": "uint112",
                                "value": "51,634,263,206,839,865,469,855"
                            },
                            {
                                "name": "_reserve1",
                                "type": "uint112",
                                "value": "619,499,296,121"
                            },
                            {
                                "name": "_blockTimestampLast",
                                "type": "uint32",
                                "value": "1,616,519,990"
                            }
                        ],
                        "signature": "getReserves()"
                    },
                    "errorInfo": "",
                    "fromAddress": "0x5c305a065dca4074a5f62451313b1a039397e05c",
                    "gasUsed": 1204,
                    "id": 7,
                    "methodDecoded": true,
                    "operation": "STATICCALL",
                    "output": "0x000000000000000000000000000000000000000000000aef19593091d82a6b9f000000000000000000000000000000000000000000000000000000903d09157900000000000000000000000000000000000000000000000000000000605a2336",
                    "revert": false,
                    "revertMessage": "",
                    "selector": "0x0902f1ac",
                    "status": true,
                    "value": "0"
                },
                "nodeType": 0
            },
            "8": {
                "invocation": {
                    "address": "0x27ed3141c1fa47113c6812c02d69d5aa044309c9",
                    "callData": "0x",
                    "decodedMethod": {
                        "callParams": [],
                        "constructorArguments": "",
                        "name": "token0",
                        "returnParams": [
                            {
                                "name": "",
                                "type": "address",
                                "value": "0x1cf4592ebffd730c7dc92c1bdffdfc3b9efcf29a"
                            }
                        ],
                        "signature": "token0()"
                    },
                    "errorInfo": "",
                    "fromAddress": "0x5c305a065dca4074a5f62451313b1a039397e05c",
                    "gasUsed": 1081,
                    "id": 8,
                    "methodDecoded": true,
                    "operation": "STATICCALL",
                    "output": "0x0000000000000000000000001cf4592ebffd730c7dc92c1bdffdfc3b9efcf29a",
                    "revert": false,
                    "revertMessage": "",
                    "selector": "0x0dfe1681",
                    "status": true,
                    "value": "0"
                },
                "nodeType": 0
            },
            "9": {
                "invocation": {
                    "address": "0x7a250d5630b4cf539739df2c5dacb4c659f2488d",
                    "callData": "0x000000000000000000000000000000000000000000000025737730d3f023c800000000000000000000000000000000000000000000000aef19593091d82a6b9f000000000000000000000000000000000000000000000000000000903d091579",
                    "decodedMethod": {
                        "callParams": [
                            {
                                "name": "amountIn",
                                "type": "uint256",
                                "value": "690,849,703,250,668,800,000"
                            },
                            {
                                "name": "reserveIn",
                                "type": "uint256",
                                "value": "51,634,263,206,839,865,469,855"
                            },
                            {
                                "name": "reserveOut",
                                "type": "uint256",
                                "value": "619,499,296,121"
                            }
                        ],
                        "constructorArguments": "",
                        "name": "getAmountOut",
                        "returnParams": [
                            {
                                "name": "amountOut",
                                "type": "uint256",
                                "value": "8,155,049,080"
                            }
                        ],
                        "signature": "getAmountOut(uint256,uint256,uint256)"
                    },
                    "errorInfo": "",
                    "fromAddress": "0x5c305a065dca4074a5f62451313b1a039397e05c",
                    "gasUsed": 1021,
                    "id": 9,
                    "methodDecoded": true,
                    "operation": "STATICCALL",
                    "output": "0x00000000000000000000000000000000000000000000000000000001e6142c78",
                    "revert": false,
                    "revertMessage": "",
                    "selector": "0x054d50d4",
                    "status": true,
                    "value": "0"
                },
                "nodeType": 0
            }
        },
        "gasFlame": [
            {
                "children": [
                    {
                        "children": [
                            {
                                "children": [],
                                "depth": 0,
                                "name": "Initial Gas",
                                "value": 25720
                            },
                            {
                                "children": [
                                    {
                                        "children": [
                                            {
                                                "children": [
                                                    {
                                                        "children": [],
                                                        "depth": 3,
                                                        "name": "getReserves",
                                                        "value": 1204
                                                    },
                                                    {
                                                        "children": [],
                                                        "depth": 3,
                                                        "name": "token0",
                                                        "value": 1081
                                                    },
                                                    {
                                                        "children": [],
                                                        "depth": 3,
                                                        "name": "getAmountOut",
                                                        "value": 1021
                                                    }
                                                ],
                                                "depth": 2,
                                                "name": "getAmountOut",
                                                "value": 8735
                                            },
                                            {
                                                "children": [
                                                    {
                                                        "children": [],
                                                        "depth": 3,
                                                        "name": "getReserves",
                                                        "value": 1204
                                                    },
                                                    {
                                                        "children": [],
                                                        "depth": 3,
                                                        "name": "token0",
                                                        "value": 1081
                                                    },
                                                    {
                                                        "children": [],
                                                        "depth": 3,
                                                        "name": "getAmountOut",
                                                        "value": 1021
                                                    }
                                                ],
                                                "depth": 2,
                                                "name": "getAmountOut",
                                                "value": 8745
                                            },
                                            {
                                                "children": [
                                                    {
                                                        "children": [],
                                                        "depth": 3,
                                                        "name": "getReserves",
                                                        "value": 1217
                                                    },
                                                    {
                                                        "children": [],
                                                        "depth": 3,
                                                        "name": "token0",
                                                        "value": 1149
                                                    },
                                                    {
                                                        "children": [],
                                                        "depth": 3,
                                                        "name": "getAmountOut",
                                                        "value": 974
                                                    }
                                                ],
                                                "depth": 2,
                                                "name": "getAmountOut",
                                                "value": 8779
                                            }
                                        ],
                                        "depth": 1,
                                        "name": "0xf19e0d07",
                                        "value": 35300
                                    }
                                ],
                                "depth": 0,
                                "name": "Executed Gas",
                                "value": 36354
                            }
                        ],
                        "depth": -1,
                        "name": "Actual Gas Used",
                        "value": 62074
                    },
                    {
                        "children": [],
                        "depth": -1,
                        "name": "Refunded Gas",
                        "value": 0
                    }
                ],
                "depth": -2,
                "name": "Total Gas",
                "value": 62074
            }
        ],
        "isConfirmed": true,
        "mainTrace": [
            {
                "children": [
                    {
                        "children": [
                            {
                                "children": [
                                    {
                                        "children": [
                                            {
                                                "children": [],
                                                "depth": 3,
                                                "id": 3,
                                                "order": 3
                                            },
                                            {
                                                "children": [],
                                                "depth": 3,
                                                "id": 4,
                                                "order": 4
                                            },
                                            {
                                                "children": [],
                                                "depth": 3,
                                                "id": 5,
                                                "order": 5
                                            }
                                        ],
                                        "depth": 2,
                                        "id": 2,
                                        "order": 2
                                    },
                                    {
                                        "children": [
                                            {
                                                "children": [],
                                                "depth": 3,
                                                "id": 7,
                                                "order": 7
                                            },
                                            {
                                                "children": [],
                                                "depth": 3,
                                                "id": 8,
                                                "order": 8
                                            },
                                            {
                                                "children": [],
                                                "depth": 3,
                                                "id": 9,
                                                "order": 9
                                            }
                                        ],
                                        "depth": 2,
                                        "id": 6,
                                        "order": 6
                                    },
                                    {
                                        "children": [
                                            {
                                                "children": [],
                                                "depth": 3,
                                                "id": 11,
                                                "order": 11
                                            },
                                            {
                                                "children": [],
                                                "depth": 3,
                                                "id": 12,
                                                "order": 12
                                            },
                                            {
                                                "children": [],
                                                "depth": 3,
                                                "id": 13,
                                                "order": 13
                                            }
                                        ],
                                        "depth": 2,
                                        "id": 10,
                                        "order": 10
                                    }
                                ],
                                "depth": 1,
                                "id": 1,
                                "order": 1
                            }
                        ],
                        "depth": 0,
                        "id": 0,
                        "order": 0
                    }
                ],
                "depth": -1,
                "id": -1,
                "order": -1
            }
        ],
        "mainTraceNodeCount": 14,
        "parentIdMap": {
            "0": -1,
            "1": 0,
            "10": 1,
            "11": 10,
            "12": 10,
            "13": 10,
            "2": 1,
            "3": 2,
            "4": 2,
            "5": 2,
            "6": 1,
            "7": 6,
            "8": 6,
            "9": 6
        },
        "tidyTrace": [
            {
                "children": [
                    {
                        "children": [
                            {
                                "children": [],
                                "depth": 1,
                                "id": 1,
                                "order": 1
                            }
                        ],
                        "depth": 0,
                        "id": 0,
                        "order": 0
                    }
                ],
                "depth": -1,
                "id": -1,
                "order": -1
            }
        ],
        "tidyTraceNodeCount": 2
    },
    "state_change": {
        "stateChanges": []
    }
}