{
    "balance_change": {
        "balanceChanges": [
            {
                "account": "0x382ca70401f553f399ffa9acf56d78e65e29877a",
                "assets": [
                    {
                        "address": "0x37ee79e0b44866876de2fb7f416d0443dd5ae481",
                        "amount": "6,111.840304",
                        "iconUrl": "",
                        "isERC1155": false,
                        "isERC721": false,
                        "sign": false,
                        "value": "249.7730535"
                    }
                ]
            },
            {
                "account": "0xe567a89e30c99c4ac9e6806d1196c903ea81c786",
                "assets": [
                    {
                        "address": "0x37ee79e0b44866876de2fb7f416d0443dd5ae481",
                        "amount": "6,111.840304",
                        "iconUrl": "",
                        "isERC1155": false,
                        "isERC721": false,
                        "sign": true,
                        "value": "249.7730535"
                    }
                ]
            }
        ]
    },
    "profile": {
        "basic_info": {
            "baseFee": "",
            "blockNumber": 11099778,
            "callData": "0xa9059cbb000000000000000000000000e567a89e30c99c4ac9e6806d1196c903ea81c78600000000000000000000000000000000000000000000014b52d2a691fb730000",
            "debugEnable": true,
            "errorInfo": "",
            "eventCount": 1,
            "feeRecipient": "0x52bc44d5378309ee2abf1539bf71de1b7d7be3b5",
            "formatValue": "0",
            "gasLimit": 54288,
            "gasPrice": "99.7",
            "gasUsed": 21192,
            "intTxnCount": 0,
            "internalRevert": false,
            "internalRevertMessage": "",
            "isContractCreation": false,
            "isFlashloan": false,
            "maxFee": "",
            "nonce": 0,
            "overwritedBlockNumber": -1,
            "priorityFee": "",
            "receiver": "0x37ee79e0b44866876de2fb7f416d0443dd5ae481",
            "revertMessage": "",
            "sender": "0x382ca70401f553f399ffa9acf56d78e65e29877a",
            "simulationEnable": true,
            "sourceTxnHash": "0x27480bc875307ce85b93325998a9c33118bea300f5c3aa08c1244a018c0e083c",
            "status": true,
            "timestamp": "2020-10-21T13:23:28Z",
            "transactionFee": "0.0021128424",
            "txnHash": "0x27480bc875307ce85b93325998a9c33118bea300f5c3aa08c1244a018c0e083c",
            "txnIndex": 2,
            "type": 0,
            "value": "0"
        },
        "fund_flow": [
            {
                "amount": "6,111.840304",
                "from": "0x382ca70401f553f399ffa9acf56d78e65e29877a",
                "id": 1,
                "isERC1155": false,
                "isERC721": false,
                "isReverted": false,
                "order": 1,
                "to": "0xe567a89e30c99c4ac9e6806d1196c903ea81c786",
                "token": "0x37ee79e0b44866876de2fb7f416d0443dd5ae481"
            }
        ],
        "token_infos": [
            {
                "address": "0x37ee79e0b44866876de2fb7f416d0443dd5ae481",
                "decimals": 18
            },
            {
                "address": "0xc02aaa39b223fe8d0a0e5c4f27ead9083c756cc2",
                "decimals": 18
            },
            {
                "address": "0xeeeeeeeeeeeeeeeeeeeeeeeeeeeeeeeeeeeeeeee",
                "decimals": 18
            }
        ]
    },
    "address_label": {
        "labels": [
            {
                "address": "0x37ee79e0b44866876de2fb7f416d0443dd5ae481",
                "label": "ABiT Network: Old TAT Token"
            },
            {
                "address": "0x0000000000000000000000000000000000000001",
                "label": "Precompiled"
            },
            {
                "address": "0x0000000000000000000000000000000000000002",
                "label": "Precompiled"
            },
            {
                "address": "0x0000000000000000000000000000000000000003",
                "label": "Precompiled"
            },
            {
                "address": "0x0000000000000000000000000000000000000004",
                "label": "Precompiled"
            },
            {
                "address": "0xeeeeeeeeeeeeeeeeeeeeeeeeeeeeeeeeeeeeeeee",
                "label": "Ether"
            }
        ]
    },
    "trace": {
        "accountLabels": null,
        "dataMap": {
            "-1": {
                "invocation": {
                    "address": "0x382ca70401f553f399ffa9acf56d78e65e29877a",
                    "callData": "",
                    "decodedMethod": null,
                    "errorInfo": "",
                    "fromAddress": "",
                    "gasUsed": 0,
                    "id": -1,
                    "methodDecoded": false,
                    "operation": "",
                    "output": "",
                    "revert": false,
                    "revertMessage": "",
                    "selector": "",
                    "status": false,
                    "value": ""
                },
                "nodeType": 0
            },
            "0": {
                "invocation": {
                    "address": "0x37ee79e0b44866876de2fb7f416d0443dd5ae481",
                    "callData": "0x000000000000000000000000e567a89e30c99c4ac9e6806d1196c903ea81c78600000000000000000000000000000000000000000000014b52d2a691fb730000",
                    "decodedMethod": {
                        "callParams": [
                            {
                                "name": "_to",
                                "type": "address",
                                "value": "0xe567a89e30c99c4ac9e6806d1196c903ea81c786"
                            },
                            {
                                "decimalAvailable": true,
                                "name": "_value",
                                "type": "uint256",
                                "value": "6,111,840,304,000,000,000,000"
                            }
                        ],
                        "constructorArguments": "",
                        "name": "transfer",
                        "returnParams": [
                            {
                                "name": "",
                                "type": "bool",
                                "value": true
                            }
                        ],
                        "signature": "transfer(address,uint256)"
                    },
                    "errorInfo": "",
                    "fromAddress": "0x382ca70401f553f399ffa9acf56d78e65e29877a",
                    "gasUsed": 21192,
                    "id": 0,
                    "methodDecoded": true,
                    "operation": "CALL",
                    "output": "0x0000000000000000000000000000000000000000000000000000000000000001",
                    "revert": false,
                    "revertMessage": "",
                    "selector": "0xa9059cbb",
                    "status": true,
                    "value": "0"
                },
                "nodeType": 0
            },
            "1": {
                "event": {
                    "contract": "0x37ee79e0b44866876de2fb7f416d0443dd5ae481",
                    "decodedLog": {
                        "name": "Transfer",
                        "params": [
                            {
                                "name": "from",
                                "type": "address",
                                "value": "0x382ca70401f553f399ffa9acf56d78e65e29877a"
                            },
                            {
                                "name": "to",
                                "type": "address",
                                "value": "0xe567a89e30c99c4ac9e6806d1196c903ea81c786"
                            },
                            {
                                "decimalAvailable": true,
                                "name": "value",
                                "type": "uint256",
                                "value": "6,111,840,304,000,000,000,000"
                            }
                        ],
                        "signature": "Transfer(address,address,uint256)"
                    },
                    "id": 1,
                    "logData": "0x00000000000000000000000000000000000000000000014b52d2a691fb730000",
                    "logDecoded": true,
                    "operation": "EVENT",
                    "revert": false,
                    "status": true,
                    "topics": [
                        "0xddf252ad1be2c89b69c2b068fc378daa952ba7f163c4a11628f55a4df523b3ef",
                        "0x000000000000000000000000382ca70401f553f399ffa9acf56d78e65e29877a",
                        "0x000000000000000000000000e567a89e30c99c4ac9e6806d1196c903ea81c786"
                    ]
                },
                "nodeType": 1
            }
        },
        "gasFlame": [
            {
                "children": [
                    {
                        "children": [
                            {
                                "children": [],
                                "depth": 0,
                                "name": "Initial Gas",
                                "value": 21656
                            },
                            {
                                "children": [],
                                "depth": 0,
                                "name": "Executed Gas",
                                "value": 14536
                            }
                        ],
                        "depth": -1,
                        "name": "Actual Gas Used",
                        "value": 21192
                    },
                    {
                        "children": [],
                        "depth": -1,
                        "name": "Refunded Gas",
                        "value": 15000
                    }
                ],
                "depth": -2,
                "name": "Total Gas",
                "value": 36192
            }
        ],
        "isConfirmed": true,
        "mainTrace": [
            {
                "children": [
                    {
                        "children": [
                            {
                                "children": [],
                                "depth": 1,
                                "id": 1,
                                "order": 1
                            }
                        ],
                        "depth": 0,
                        "id": 0,
                        "order": 0
                    }
                ],
                "depth": -1,
                "id": -1,
                "order": -1
            }
        ],
        "mainTraceNodeCount": 2,
        "parentIdMap": {
            "0": -1,
            "1": 0
        },
        "tidyTrace": [
            {
                "children": [
                    {
                        "children": [
                            {
                                "children": [],
                                "depth": 1,
                                "id": 1,
                                "order": 1
                            }
                        ],
                        "depth": 0,
                        "id": 0,
                        "order": 0
                    }
                ],
                "depth": -1,
                "id": -1,
                "order": -1
            }
        ],
        "tidyTraceNodeCount": 2
    },
    "state_change": {
        "stateChanges": [
            {
                "address": "0x37ee79e0b44866876de2fb7f416d0443dd5ae481",
                "erc": "ERC-20",
                "slots": [
                    {
                        "current": "0x0000000000000000000000000000000000000000000000000000000000000000",
                        "key": "0x952878bb44691f749316609ffccd5ef77effa4e17a599ce5c71ba979d69826db",
                        "prev": "0x00000000000000000000000000000000000000000000014b52d2a691fb730000"
                    },
                    {
                        "current": "0x00000000000000000000000000000000000000000004c791e77e707fc292b2bb",
                        "key": "0xd69b88dc97c32c73188ae494d1f2a508844fe223a6c2cae9a555b232b9c62a27",
                        "prev": "0x00000000000000000000000000000000000000000004c64694abc9edc71fb2bb"
                    }
                ],
                "storageVariables": [
                    {
                        "name": "balances",
                        "type": "mapping(address => uint256)",
                        "value": {
                            "pairs": [
                                {
                                    "key": "0x382ca70401f553f399ffa9acf56d78e65e29877a",
                                    "value": {
                                        "current": "0",
                                        "prev": "6111840304000000000000",
                                        "typeTag": 1
                                    }
                                },
                                {
                                    "key": "0xe567a89e30c99c4ac9e6806d1196c903ea81c786",
                                    "value": {
                                        "current": "5778145667334027835781819",
                                        "prev": "5772033827030027835781819",
                                        "typeTag": 1
                                    }
                                }
                            ],
                            "typeTag": 4
                        }
                    }
                ]
            }
        ]
    }
}