{
    "balance_change": {
        "balanceChanges": []
    },
    "profile": {
        "basic_info": {
            "baseFee": "42.008180577",
            "blockNumber": 16976215,
            "callData": "0x46f83b50000000000000000000000000000000000000000000000000000000000000006e5d8a9dd04478c6fa3766adc986af550b68114b1deee6b9a30a781e381c4e35f500000000000000000000000000000000000000000000000000000000000000145d8a9dd04478c6fa3766adc986af550b68114b1deee6b9a30a781e381c4e35f5",
            "debugEnable": true,
            "errorInfo": "",
            "eventCount": 2,
            "feeRecipient": "0xf22e098cb0d6c24d88ab79c1ce87b73ea26e608f",
            "formatValue": "0",
            "gasLimit": 276892,
            "gasPrice": "52.556706687",
            "gasUsed": 70978,
            "intTxnCount": 2,
            "internalRevert": false,
            "internalRevertMessage": "",
            "isContractCreation": false,
            "isFlashloan": false,
            "maxFee": "",
            "nonce": 140102,
            "overwritedBlockNumber": -1,
            "priorityFee": "",
            "receiver": "0x5a54fe5234e811466d5366846283323c954310b2",
            "revertMessage": "",
            "sender": "0x1a8ed0d3ad42c9019cc141aace7e5fb6e576b917",
            "simulationEnable": true,
            "sourceTxnHash": "0x272377d388546c853023e4948ec608eeca9cac3fbe74030bc208bd5da761f080",
            "status": true,
            "timestamp": "2023-04-04T14:49:23Z",
            "transactionFee": "0.003730369927229886",
            "txnHash": "0x272377d388546c853023e4948ec608eeca9cac3fbe74030bc208bd5da761f080",
            "txnIndex": 12,
            "type": 0,
            "value": "0"
        },
        "fund_flow": [],
        "token_infos": [
            {
                "address": "0xc02aaa39b223fe8d0a0e5c4f27ead9083c756cc2",
                "decimals": 18
            },
            {
                "address": "0xeeeeeeeeeeeeeeeeeeeeeeeeeeeeeeeeeeeeeeee",
                "decimals": 18
            }
        ]
    },
    "address_label": {
        "labels": [
            {
                "address": "0x0000000000000000000000000000000000000002",
                "label": "Precompiled"
            },
            {
                "address": "0x0000000000000000000000000000000000000003",
                "label": "Precompiled"
            },
            {
                "address": "0x0000000000000000000000000000000000000004",
                "label": "Precompiled"
            },
            {
                "address": "0xeeeeeeeeeeeeeeeeeeeeeeeeeeeeeeeeeeeeeeee",
                "label": "Ether"
            },
            {
                "address": "0x5a54fe5234e811466d5366846283323c954310b2",
                "label": "StarGate: LayerZero Oracle"
            },
            {
                "address": "0x4d73adb72bc3dd368966edd0f0b2148401a178e2",
                "label": "Layer Zero: Ultra Light Node v2"
            },
            {
                "address": "0x0000000000000000000000000000000000000001",
                "label": "Precompiled"
            }
        ]
    },
    "trace": {
        "accountLabels": null,
        "dataMap": {
            "-1": {
                "invocation": {
                    "address": "0x1a8ed0d3ad42c9019cc141aace7e5fb6e576b917",
                    "callData": "",
                    "decodedMethod": null,
                    "errorInfo": "",
                    "fromAddress": "",
                    "gasUsed": 0,
                    "id": -1,
                    "methodDecoded": false,
                    "operation": "",
                    "output": "",
                    "revert": false,
                    "revertMessage": "",
                    "selector": "",
                    "status": false,
                    "value": ""
                },
                "nodeType": 0
            },
            "0": {
                "invocation": {
                    "address": "0x5a54fe5234e811466d5366846283323c954310b2",
                    "callData": "0x000000000000000000000000000000000000000000000000000000000000006e5d8a9dd04478c6fa3766adc986af550b68114b1deee6b9a30a781e381c4e35f500000000000000000000000000000000000000000000000000000000000000145d8a9dd04478c6fa3766adc986af550b68114b1deee6b9a30a781e381c4e35f5",
                    "decodedMethod": null,
                    "errorInfo": "",
                    "fromAddress": "0x1a8ed0d3ad42c9019cc141aace7e5fb6e576b917",
                    "gasUsed": 70978,
                    "id": 0,
                    "methodDecoded": false,
                    "operation": "CALL",
                    "output": "",
                    "revert": false,
                    "revertMessage": "",
                    "selector": "0x46f83b50",
                    "status": true,
                    "value": "0"
                },
                "nodeType": 0
            },
            "1": {
                "invocation": {
                    "address": "0xccef13cfeb6873c167f62a365548a57c9ed29dc5",
                    "callData": "0x000000000000000000000000000000000000000000000000000000000000006e5d8a9dd04478c6fa3766adc986af550b68114b1deee6b9a30a781e381c4e35f500000000000000000000000000000000000000000000000000000000000000145d8a9dd04478c6fa3766adc986af550b68114b1deee6b9a30a781e381c4e35f5",
                    "decodedMethod": null,
                    "errorInfo": "",
                    "fromAddress": "0x5a54fe5234e811466d5366846283323c954310b2",
                    "gasUsed": 43501,
                    "id": 1,
                    "methodDecoded": false,
                    "operation": "DELEGATECALL",
                    "output": "",
                    "revert": false,
                    "revertMessage": "",
                    "selector": "0x46f83b50",
                    "status": true,
                    "value": "0"
                },
                "nodeType": 0
            },
            "2": {
                "invocation": {
                    "address": "0x4d73adb72bc3dd368966edd0f0b2148401a178e2",
                    "callData": "0x000000000000000000000000000000000000000000000000000000000000006e5d8a9dd04478c6fa3766adc986af550b68114b1deee6b9a30a781e381c4e35f500000000000000000000000000000000000000000000000000000000000000145d8a9dd04478c6fa3766adc986af550b68114b1deee6b9a30a781e381c4e35f5",
                    "decodedMethod": {
                        "callParams": [
                            {
                                "name": "_srcChainId",
                                "type": "uint16",
                                "value": "110"
                            },
                            {
                                "name": "_lookupHash",
                                "type": "bytes32",
                                "value": "0x5d8a9dd04478c6fa3766adc986af550b68114b1deee6b9a30a781e381c4e35f5"
                            },
                            {
                                "name": "_confirmations",
                                "type": "uint256",
                                "value": "20"
                            },
                            {
                                "name": "_blockData",
                                "type": "bytes32",
                                "value": "0x5d8a9dd04478c6fa3766adc986af550b68114b1deee6b9a30a781e381c4e35f5"
                            }
                        ],
                        "constructorArguments": "",
                        "name": "updateHash",
                        "returnParams": [],
                        "signature": "updateHash(uint16,bytes32,uint256,bytes32)"
                    },
                    "errorInfo": "",
                    "fromAddress": "0x5a54fe5234e811466d5366846283323c954310b2",
                    "gasUsed": 25536,
                    "id": 2,
                    "methodDecoded": true,
                    "operation": "CALL",
                    "output": "",
                    "revert": false,
                    "revertMessage": "",
                    "selector": "0x704316e5",
                    "status": true,
                    "value": "0"
                },
                "nodeType": 0
            },
            "3": {
                "event": {
                    "contract": "0x4d73adb72bc3dd368966edd0f0b2148401a178e2",
                    "decodedLog": {
                        "name": "HashReceived",
                        "params": [
                            {
                                "name": "srcChainId",
                                "type": "uint16",
                                "value": "110"
                            },
                            {
                                "name": "oracle",
                                "type": "address",
                                "value": "0x5a54fe5234e811466d5366846283323c954310b2"
                            },
                            {
                                "name": "lookupHash",
                                "type": "bytes32",
                                "value": "0x5d8a9dd04478c6fa3766adc986af550b68114b1deee6b9a30a781e381c4e35f5"
                            },
                            {
                                "name": "blockData",
                                "type": "bytes32",
                                "value": "0x5d8a9dd04478c6fa3766adc986af550b68114b1deee6b9a30a781e381c4e35f5"
                            },
                            {
                                "name": "confirmations",
                                "type": "uint256",
                                "value": "20"
                            }
                        ],
                        "signature": "HashReceived(uint16,address,bytes32,bytes32,uint256)"
                    },
                    "id": 3,
                    "logData": "0x5d8a9dd04478c6fa3766adc986af550b68114b1deee6b9a30a781e381c4e35f55d8a9dd04478c6fa3766adc986af550b68114b1deee6b9a30a781e381c4e35f50000000000000000000000000000000000000000000000000000000000000014",
                    "logDecoded": true,
                    "operation": "EVENT",
                    "revert": false,
                    "status": true,
                    "topics": [
                        "0x74bbc026808dcba59692d6a8bb20596849ca718e10e2432c6cdf48af865bc5d9",
                        "0x000000000000000000000000000000000000000000000000000000000000006e",
                        "0x0000000000000000000000005a54fe5234e811466d5366846283323c954310b2"
                    ]
                },
                "nodeType": 1
            },
            "4": {
                "event": {
                    "contract": "0x5a54fe5234e811466d5366846283323c954310b2",
                    "decodedLog": null,
                    "id": 4,
                    "logData": "0x000000000000000000000000000000000000000000000000000000000000006e5d8a9dd04478c6fa3766adc986af550b68114b1deee6b9a30a781e381c4e35f500000000000000000000000000000000000000000000000000000000000000145d8a9dd04478c6fa3766adc986af550b68114b1deee6b9a30a781e381c4e35f5",
                    "logDecoded": false,
                    "operation": "EVENT",
                    "revert": false,
                    "status": true,
                    "topics": [
                        "0x14b979ba7a996246f6721545d6bab2fafab7ff3738c512b4d0e9610b612faf16",
                        "0x0000000000000000000000001a8ed0d3ad42c9019cc141aace7e5fb6e576b917"
                    ]
                },
                "nodeType": 1
            }
        },
        "gasFlame": [
            {
                "children": [
                    {
                        "children": [
                            {
                                "children": [],
                                "depth": 0,
                                "name": "Initial Gas",
                                "value": 22368
                            },
                            {
                                "children": [
                                    {
                                        "children": [
                                            {
                                                "children": [],
                                                "depth": 2,
                                                "name": "updateHash",
                                                "value": 25536
                                            }
                                        ],
                                        "depth": 1,
                                        "name": "0x46f83b50",
                                        "value": 43501
                                    }
                                ],
                                "depth": 0,
                                "name": "Executed Gas",
                                "value": 48610
                            }
                        ],
                        "depth": -1,
                        "name": "Actual Gas Used",
                        "value": 70978
                    },
                    {
                        "children": [],
                        "depth": -1,
                        "name": "Refunded Gas",
                        "value": 0
                    }
                ],
                "depth": -2,
                "name": "Total Gas",
                "value": 70978
            }
        ],
        "isConfirmed": true,
        "mainTrace": [
            {
                "children": [
                    {
                        "children": [
                            {
                                "children": [
                                    {
                                        "children": [
                                            {
                                                "children": [],
                                                "depth": 3,
                                                "id": 3,
                                                "order": 3
                                            }
                                        ],
                                        "depth": 2,
                                        "id": 2,
                                        "order": 2
                                    },
                                    {
                                        "children": [],
                                        "depth": 2,
                                        "id": 4,
                                        "order": 4
                                    }
                                ],
                                "depth": 1,
                                "id": 1,
                                "order": 1
                            }
                        ],
                        "depth": 0,
                        "id": 0,
                        "order": 0
                    }
                ],
                "depth": -1,
                "id": -1,
                "order": -1
            }
        ],
        "mainTraceNodeCount": 5,
        "parentIdMap": {
            "0": -1,
            "1": 0,
            "2": 1,
            "3": 2,
            "4": 1
        },
        "tidyTrace": [
            {
                "children": [
                    {
                        "children": [
                            {
                                "children": [
                                    {
                                        "children": [
                                            {
                                                "children": [],
                                                "depth": 3,
                                                "id": 3,
                                                "order": 3
                                            }
                                        ],
                                        "depth": 2,
                                        "id": 2,
                                        "order": 2
                                    },
                                    {
                                        "children": [],
                                        "depth": 2,
                                        "id": 4,
                                        "order": 4
                                    }
                                ],
                                "depth": 1,
                                "id": 1,
                                "order": 1
                            }
                        ],
                        "depth": 0,
                        "id": 0,
                        "order": 0
                    }
                ],
                "depth": -1,
                "id": -1,
                "order": -1
            }
        ],
        "tidyTraceNodeCount": 5
    },
    "state_change": {
        "stateChanges": [
            {
                "address": "0x4d73adb72bc3dd368966edd0f0b2148401a178e2",
                "erc": "",
                "slots": [
                    {
                        "current": "0x0000000000000000000000000000000000000000000000000000000000000014",
                        "key": "0x91822545575f2f0129b4bf2076b004324e77c4cd80254e7d266339e10b77ce70",
                        "prev": "0x0000000000000000000000000000000000000000000000000000000000000000"
                    }
                ],
                "storageVariables": [
                    {
                        "name": "hashLookup",
                        "type": "mapping(address => mapping(uint16 => mapping(bytes32 => mapping(bytes32 => uint256))))",
                        "value": {
                            "pairs": [
                                {
                                    "key": "0x5a54fe5234e811466d5366846283323c954310b2",
                                    "value": {
                                        "pairs": [
                                            {
                                                "key": "110",
                                                "value": {
                                                    "pairs": [
                                                        {
                                                            "key": "0x5d8a9dd04478c6fa3766adc986af550b68114b1deee6b9a30a781e381c4e35f5",
                                                            "value": {
                                                                "pairs": [
                                                                    {
                                                                        "key": "0x5d8a9dd04478c6fa3766adc986af550b68114b1deee6b9a30a781e381c4e35f5",
                                                                        "value": {
                                                                            "current": "20",
                                                                            "prev": "0",
                                                                            "typeTag": 1
                                                                        }
                                                                    }
                                                                ],
                                                                "typeTag": 4
                                                            }
                                                        }
                                                    ],
                                                    "typeTag": 4
                                                }
                                            }
                                        ],
                                        "typeTag": 4
                                    }
                                }
                            ],
                            "typeTag": 4
                        }
                    }
                ]
            },
            {
                "address": "0x5a54fe5234e811466d5366846283323c954310b2",
                "erc": "",
                "slots": [
                    {
                        "current": "0x0000000000000000000000000000000000000000000000000000000000010001",
                        "key": "0x66083eb2f8f7ae9daf9c6ca4253a95b840ed6fe7064a3ebebc2400435bc9782b",
                        "prev": "0x0000000000000000000000000000000000000000000000000000000000000001"
                    }
                ],
                "storageVariables": []
            }
        ]
    }
}