{
    "balance_change": {
        "balanceChanges": [
            {
                "account": "0xa16ae7193cd98ef4289f5e1fa0f5af6b2095d6a1",
                "assets": [
                    {
                        "address": "0xb1f1ee126e9c96231cc3d3fad7c08b4cf873b1f1",
                        "amount": "10.145515411157564435",
                        "iconUrl": "",
                        "isERC1155": false,
                        "isERC721": false,
                        "sign": false,
                        "value": "3548.948552"
                    }
                ]
            },
            {
                "account": "0x58a7b1d84f9499edfbb99a1f5ba4e7a37b25520a",
                "assets": [
                    {
                        "address": "0xb1f1ee126e9c96231cc3d3fad7c08b4cf873b1f1",
                        "amount": "10.145515411157564435",
                        "iconUrl": "",
                        "isERC1155": false,
                        "isERC721": false,
                        "sign": true,
                        "value": "3548.948552"
                    }
                ]
            }
        ]
    },
    "profile": {
        "basic_info": {
            "baseFee": "27.780038533",
            "blockNumber": 18525886,
            "callData": "0xa9059cbb00000000000000000000000058a7b1d84f9499edfbb99a1f5ba4e7a37b25520a0000000000000000000000000000000000000000000000008ccc1c83614c3c13",
            "debugEnable": true,
            "errorInfo": "",
            "eventCount": 1,
            "feeRecipient": "0x95222290dd7278aa3ddd389cc1e1d165cc4bafe5",
            "formatValue": "0",
            "gasLimit": 51505,
            "gasPrice": "27.880038533",
            "gasUsed": 29537,
            "intTxnCount": 0,
            "internalRevert": false,
            "internalRevertMessage": "",
            "isContractCreation": false,
            "isFlashloan": false,
            "maxFee": "38.192886334",
            "nonce": 807,
            "overwritedBlockNumber": -1,
            "priorityFee": "0.1",
            "receiver": "0xb1f1ee126e9c96231cc3d3fad7c08b4cf873b1f1",
            "revertMessage": "",
            "sender": "0xa16ae7193cd98ef4289f5e1fa0f5af6b2095d6a1",
            "simulationEnable": true,
            "sourceTxnHash": "0x27b8712273b6111432101d63768cdf323bb8e8dcd8041f4f3aec59c609b0a6ba",
            "status": true,
            "timestamp": "2023-11-08T07:56:11Z",
            "transactionFee": "0.000823492698149221",
            "txnHash": "0x27b8712273b6111432101d63768cdf323bb8e8dcd8041f4f3aec59c609b0a6ba",
            "txnIndex": 147,
            "type": 2,
            "value": "0"
        },
        "fund_flow": [
            {
                "amount": "10.145515411157564435",
                "from": "0xa16ae7193cd98ef4289f5e1fa0f5af6b2095d6a1",
                "id": 1,
                "isERC1155": false,
                "isERC721": false,
                "isReverted": false,
                "order": 1,
                "to": "0x58a7b1d84f9499edfbb99a1f5ba4e7a37b25520a",
                "token": "0xb1f1ee126e9c96231cc3d3fad7c08b4cf873b1f1"
            }
        ],
        "token_infos": [
            {
                "address": "0xb1f1ee126e9c96231cc3d3fad7c08b4cf873b1f1",
                "decimals": 18
            },
            {
                "address": "0xc02aaa39b223fe8d0a0e5c4f27ead9083c756cc2",
                "decimals": 18
            },
            {
                "address": "0xeeeeeeeeeeeeeeeeeeeeeeeeeeeeeeeeeeeeeeee",
                "decimals": 18
            }
        ]
    },
    "address_label": {
        "labels": [
            {
                "address": "0xeeeeeeeeeeeeeeeeeeeeeeeeeeeeeeeeeeeeeeee",
                "label": "Ether"
            },
            {
                "address": "0xb1f1ee126e9c96231cc3d3fad7c08b4cf873b1f1",
                "label": "Beefy: BIFI Token"
            },
            {
                "address": "0x0000000000000000000000000000000000000001",
                "label": "Precompiled"
            },
            {
                "address": "0x0000000000000000000000000000000000000002",
                "label": "Precompiled"
            },
            {
                "address": "0x0000000000000000000000000000000000000003",
                "label": "Precompiled"
            },
            {
                "address": "0x0000000000000000000000000000000000000004",
                "label": "Precompiled"
            }
        ]
    },
    "trace": {
        "accountLabels": null,
        "dataMap": {
            "-1": {
                "invocation": {
                    "address": "0xa16ae7193cd98ef4289f5e1fa0f5af6b2095d6a1",
                    "callData": "",
                    "decodedMethod": null,
                    "errorInfo": "",
                    "fromAddress": "",
                    "gasUsed": 0,
                    "id": -1,
                    "methodDecoded": false,
                    "operation": "",
                    "output": "",
                    "revert": false,
                    "revertMessage": "",
                    "selector": "",
                    "status": false,
                    "value": ""
                },
                "nodeType": 0
            },
            "0": {
                "invocation": {
                    "address": "0xb1f1ee126e9c96231cc3d3fad7c08b4cf873b1f1",
                    "callData": "0x00000000000000000000000058a7b1d84f9499edfbb99a1f5ba4e7a37b25520a0000000000000000000000000000000000000000000000008ccc1c83614c3c13",
                    "decodedMethod": {
                        "callParams": [
                            {
                                "name": "to",
                                "type": "address",
                                "value": "0x58a7b1d84f9499edfbb99a1f5ba4e7a37b25520a"
                            },
                            {
                                "decimalAvailable": true,
                                "name": "amount",
                                "type": "uint256",
                                "value": "10,145,515,411,157,564,435"
                            }
                        ],
                        "constructorArguments": "",
                        "name": "transfer",
                        "returnParams": [
                            {
                                "name": "",
                                "type": "bool",
                                "value": true
                            }
                        ],
                        "signature": "transfer(address,uint256)"
                    },
                    "errorInfo": "",
                    "fromAddress": "0xa16ae7193cd98ef4289f5e1fa0f5af6b2095d6a1",
                    "gasUsed": 29537,
                    "id": 0,
                    "methodDecoded": true,
                    "operation": "CALL",
                    "output": "0x0000000000000000000000000000000000000000000000000000000000000001",
                    "revert": false,
                    "revertMessage": "",
                    "selector": "0xa9059cbb",
                    "status": true,
                    "value": "0"
                },
                "nodeType": 0
            },
            "1": {
                "event": {
                    "contract": "0xb1f1ee126e9c96231cc3d3fad7c08b4cf873b1f1",
                    "decodedLog": {
                        "name": "Transfer",
                        "params": [
                            {
                                "name": "from",
                                "type": "address",
                                "value": "0xa16ae7193cd98ef4289f5e1fa0f5af6b2095d6a1"
                            },
                            {
                                "name": "to",
                                "type": "address",
                                "value": "0x58a7b1d84f9499edfbb99a1f5ba4e7a37b25520a"
                            },
                            {
                                "decimalAvailable": true,
                                "name": "value",
                                "type": "uint256",
                                "value": "10,145,515,411,157,564,435"
                            }
                        ],
                        "signature": "Transfer(address,address,uint256)"
                    },
                    "id": 1,
                    "logData": "0x0000000000000000000000000000000000000000000000008ccc1c83614c3c13",
                    "logDecoded": true,
                    "operation": "EVENT",
                    "revert": false,
                    "status": true,
                    "topics": [
                        "0xddf252ad1be2c89b69c2b068fc378daa952ba7f163c4a11628f55a4df523b3ef",
                        "0x000000000000000000000000a16ae7193cd98ef4289f5e1fa0f5af6b2095d6a1",
                        "0x00000000000000000000000058a7b1d84f9499edfbb99a1f5ba4e7a37b25520a"
                    ]
                },
                "nodeType": 1
            }
        },
        "gasFlame": [
            {
                "children": [
                    {
                        "children": [
                            {
                                "children": [],
                                "depth": 0,
                                "name": "Initial Gas",
                                "value": 21656
                            },
                            {
                                "children": [],
                                "depth": 0,
                                "name": "Executed Gas",
                                "value": 12681
                            }
                        ],
                        "depth": -1,
                        "name": "Actual Gas Used",
                        "value": 29537
                    },
                    {
                        "children": [],
                        "depth": -1,
                        "name": "Refunded Gas",
                        "value": 4800
                    }
                ],
                "depth": -2,
                "name": "Total Gas",
                "value": 34337
            }
        ],
        "isConfirmed": true,
        "mainTrace": [
            {
                "children": [
                    {
                        "children": [
                            {
                                "children": [],
                                "depth": 1,
                                "id": 1,
                                "order": 1
                            }
                        ],
                        "depth": 0,
                        "id": 0,
                        "order": 0
                    }
                ],
                "depth": -1,
                "id": -1,
                "order": -1
            }
        ],
        "mainTraceNodeCount": 2,
        "parentIdMap": {
            "0": -1,
            "1": 0
        },
        "tidyTrace": [
            {
                "children": [
                    {
                        "children": [
                            {
                                "children": [],
                                "depth": 1,
                                "id": 1,
                                "order": 1
                            }
                        ],
                        "depth": 0,
                        "id": 0,
                        "order": 0
                    }
                ],
                "depth": -1,
                "id": -1,
                "order": -1
            }
        ],
        "tidyTraceNodeCount": 2
    },
    "state_change": {
        "stateChanges": [
            {
                "address": "0xb1f1ee126e9c96231cc3d3fad7c08b4cf873b1f1",
                "erc": "ERC-20",
                "slots": [
                    {
                        "current": "0x0000000000000000000000000000000000000000000000000000000000000000",
                        "key": "0xf5580aac7d0289cc3489b2e909faedb81307d9e906b5e313e17101ac4796321c",
                        "prev": "0x0000000000000000000000000000000000000000000000008ccc1c83614c3c13"
                    },
                    {
                        "current": "0x0000000000000000000000000000000000000000000000011a66c747af8c916e",
                        "key": "0x9bebdc466d79489860e85c21ccf507fd2200d4a9f103121b7384617e89c757c9",
                        "prev": "0x0000000000000000000000000000000000000000000000008d9aaac44e40555b"
                    }
                ],
                "storageVariables": [
                    {
                        "name": "_balances",
                        "type": "mapping(address => uint256)",
                        "value": {
                            "pairs": [
                                {
                                    "key": "0x58a7b1d84f9499edfbb99a1f5ba4e7a37b25520a",
                                    "value": {
                                        "current": "20349171077021995374",
                                        "prev": "10203655665864430939",
                                        "typeTag": 1
                                    }
                                },
                                {
                                    "key": "0xa16ae7193cd98ef4289f5e1fa0f5af6b2095d6a1",
                                    "value": {
                                        "current": "0",
                                        "prev": "10145515411157564435",
                                        "typeTag": 1
                                    }
                                }
                            ],
                            "typeTag": 4
                        }
                    }
                ]
            }
        ]
    }
}