{
    "balance_change": {
        "balanceChanges": [
            {
                "account": "0xeadff6c038b69d68420e4f8546fe3999527dd867",
                "assets": [
                    {
                        "address": "0x338d5ba68d51ee410aa154f6313553e05dad36a4",
                        "amount": "19.96",
                        "iconUrl": "",
                        "isERC1155": false,
                        "isERC721": false,
                        "sign": false,
                        "value": ""
                    }
                ]
            },
            {
                "account": "0x350e142e9c7744b1315dd3c1ea4a5abeb74c05d8",
                "assets": [
                    {
                        "address": "0x338d5ba68d51ee410aa154f6313553e05dad36a4",
                        "amount": "19.96",
                        "iconUrl": "",
                        "isERC1155": false,
                        "isERC721": false,
                        "sign": true,
                        "value": ""
                    }
                ]
            }
        ]
    },
    "profile": {
        "basic_info": {
            "baseFee": "",
            "blockNumber": 10235082,
            "callData": "0xa9059cbb000000000000000000000000350e142e9c7744b1315dd3c1ea4a5abeb74c05d80000000000000000000000000000000000000000000000000000000076f88b00",
            "debugEnable": true,
            "errorInfo": "",
            "eventCount": 1,
            "feeRecipient": "0x5a0b54d5dc17e0aadc383d2db43b0a0d3e029c4c",
            "formatValue": "0",
            "gasLimit": 240000,
            "gasPrice": "53",
            "gasUsed": 22179,
            "intTxnCount": 0,
            "internalRevert": false,
            "internalRevertMessage": "",
            "isContractCreation": false,
            "isFlashloan": false,
            "maxFee": "",
            "nonce": 11,
            "overwritedBlockNumber": -1,
            "priorityFee": "",
            "receiver": "0x338d5ba68d51ee410aa154f6313553e05dad36a4",
            "revertMessage": "",
            "sender": "0xeadff6c038b69d68420e4f8546fe3999527dd867",
            "simulationEnable": true,
            "sourceTxnHash": "0x27ec11b8c2a355e5fa8c35f9e6e55827445cb26c15689e59a1022e77f10e58ce",
            "status": true,
            "timestamp": "2020-06-10T01:40:53Z",
            "transactionFee": "0.001175487",
            "txnHash": "0x27ec11b8c2a355e5fa8c35f9e6e55827445cb26c15689e59a1022e77f10e58ce",
            "txnIndex": 12,
            "type": 0,
            "value": "0"
        },
        "fund_flow": [
            {
                "amount": "19.96",
                "from": "0xeadff6c038b69d68420e4f8546fe3999527dd867",
                "id": 1,
                "isERC1155": false,
                "isERC721": false,
                "isReverted": false,
                "order": 1,
                "to": "0x350e142e9c7744b1315dd3c1ea4a5abeb74c05d8",
                "token": "0x338d5ba68d51ee410aa154f6313553e05dad36a4"
            }
        ],
        "token_infos": [
            {
                "address": "0xc02aaa39b223fe8d0a0e5c4f27ead9083c756cc2",
                "decimals": 18
            },
            {
                "address": "0xeeeeeeeeeeeeeeeeeeeeeeeeeeeeeeeeeeeeeeee",
                "decimals": 18
            },
            {
                "address": "0x338d5ba68d51ee410aa154f6313553e05dad36a4",
                "decimals": 8
            }
        ]
    },
    "address_label": {
        "labels": [
            {
                "address": "0xeeeeeeeeeeeeeeeeeeeeeeeeeeeeeeeeeeeeeeee",
                "label": "Ether"
            },
            {
                "address": "0x338d5ba68d51ee410aa154f6313553e05dad36a4",
                "label": "FILE Coin 1 (FIL1)"
            },
            {
                "address": "0x0000000000000000000000000000000000000001",
                "label": "Precompiled"
            },
            {
                "address": "0x0000000000000000000000000000000000000002",
                "label": "Precompiled"
            },
            {
                "address": "0x0000000000000000000000000000000000000003",
                "label": "Precompiled"
            },
            {
                "address": "0x0000000000000000000000000000000000000004",
                "label": "Precompiled"
            }
        ]
    },
    "trace": {
        "accountLabels": null,
        "dataMap": {
            "-1": {
                "invocation": {
                    "address": "0xeadff6c038b69d68420e4f8546fe3999527dd867",
                    "callData": "",
                    "decodedMethod": null,
                    "errorInfo": "",
                    "fromAddress": "",
                    "gasUsed": 0,
                    "id": -1,
                    "methodDecoded": false,
                    "operation": "",
                    "output": "",
                    "revert": false,
                    "revertMessage": "",
                    "selector": "",
                    "status": false,
                    "value": ""
                },
                "nodeType": 0
            },
            "0": {
                "invocation": {
                    "address": "0x338d5ba68d51ee410aa154f6313553e05dad36a4",
                    "callData": "0x000000000000000000000000350e142e9c7744b1315dd3c1ea4a5abeb74c05d80000000000000000000000000000000000000000000000000000000076f88b00",
                    "decodedMethod": {
                        "callParams": [
                            {
                                "name": "to",
                                "type": "address",
                                "value": "0x350e142e9c7744b1315dd3c1ea4a5abeb74c05d8"
                            },
                            {
                                "decimalAvailable": true,
                                "name": "value",
                                "type": "uint256",
                                "value": "1,996,000,000"
                            }
                        ],
                        "constructorArguments": "",
                        "name": "transfer",
                        "returnParams": [
                            {
                                "name": "",
                                "type": "bool",
                                "value": true
                            }
                        ],
                        "signature": "transfer(address,uint256)"
                    },
                    "errorInfo": "",
                    "fromAddress": "0xeadff6c038b69d68420e4f8546fe3999527dd867",
                    "gasUsed": 22179,
                    "id": 0,
                    "methodDecoded": true,
                    "operation": "CALL",
                    "output": "0x0000000000000000000000000000000000000000000000000000000000000001",
                    "revert": false,
                    "revertMessage": "",
                    "selector": "0xa9059cbb",
                    "status": true,
                    "value": "0"
                },
                "nodeType": 0
            },
            "1": {
                "event": {
                    "contract": "0x338d5ba68d51ee410aa154f6313553e05dad36a4",
                    "decodedLog": {
                        "name": "Transfer",
                        "params": [
                            {
                                "name": "from",
                                "type": "address",
                                "value": "0xeadff6c038b69d68420e4f8546fe3999527dd867"
                            },
                            {
                                "name": "to",
                                "type": "address",
                                "value": "0x350e142e9c7744b1315dd3c1ea4a5abeb74c05d8"
                            },
                            {
                                "decimalAvailable": true,
                                "name": "value",
                                "type": "uint256",
                                "value": "1,996,000,000"
                            }
                        ],
                        "signature": "Transfer(address,address,uint256)"
                    },
                    "id": 1,
                    "logData": "0x0000000000000000000000000000000000000000000000000000000076f88b00",
                    "logDecoded": true,
                    "operation": "EVENT",
                    "revert": false,
                    "status": true,
                    "topics": [
                        "0xddf252ad1be2c89b69c2b068fc378daa952ba7f163c4a11628f55a4df523b3ef",
                        "0x000000000000000000000000eadff6c038b69d68420e4f8546fe3999527dd867",
                        "0x000000000000000000000000350e142e9c7744b1315dd3c1ea4a5abeb74c05d8"
                    ]
                },
                "nodeType": 1
            }
        },
        "gasFlame": [
            {
                "children": [
                    {
                        "children": [
                            {
                                "children": [],
                                "depth": 0,
                                "name": "Initial Gas",
                                "value": 21596
                            },
                            {
                                "children": [],
                                "depth": 0,
                                "name": "Executed Gas",
                                "value": 15583
                            }
                        ],
                        "depth": -1,
                        "name": "Actual Gas Used",
                        "value": 22179
                    },
                    {
                        "children": [],
                        "depth": -1,
                        "name": "Refunded Gas",
                        "value": 15000
                    }
                ],
                "depth": -2,
                "name": "Total Gas",
                "value": 37179
            }
        ],
        "isConfirmed": true,
        "mainTrace": [
            {
                "children": [
                    {
                        "children": [
                            {
                                "children": [],
                                "depth": 1,
                                "id": 1,
                                "order": 1
                            }
                        ],
                        "depth": 0,
                        "id": 0,
                        "order": 0
                    }
                ],
                "depth": -1,
                "id": -1,
                "order": -1
            }
        ],
        "mainTraceNodeCount": 2,
        "parentIdMap": {
            "0": -1,
            "1": 0
        },
        "tidyTrace": [
            {
                "children": [
                    {
                        "children": [
                            {
                                "children": [],
                                "depth": 1,
                                "id": 1,
                                "order": 1
                            }
                        ],
                        "depth": 0,
                        "id": 0,
                        "order": 0
                    }
                ],
                "depth": -1,
                "id": -1,
                "order": -1
            }
        ],
        "tidyTraceNodeCount": 2
    },
    "state_change": {
        "stateChanges": [
            {
                "address": "0x338d5ba68d51ee410aa154f6313553e05dad36a4",
                "erc": "ERC-20",
                "slots": [
                    {
                        "current": "0x00000000000000000000000000000000000000000000000000000022a5a5e200",
                        "key": "0x970782d8b99427436cc502647eb00cf065fe3fe269ca974a22e512cc287765d2",
                        "prev": "0x000000000000000000000000000000000000000000000000000000222ead5700"
                    },
                    {
                        "current": "0x0000000000000000000000000000000000000000000000000000000000000000",
                        "key": "0xffb84962205cf34513c9de4c36cab2ad59d1503801de304c8d4eea02d1ea21c1",
                        "prev": "0x0000000000000000000000000000000000000000000000000000000076f88b00"
                    }
                ],
                "storageVariables": [
                    {
                        "name": "_balances",
                        "type": "mapping(address => uint256)",
                        "value": {
                            "pairs": [
                                {
                                    "key": "0x350e142e9c7744b1315dd3c1ea4a5abeb74c05d8",
                                    "value": {
                                        "current": "148808000000",
                                        "prev": "146812000000",
                                        "typeTag": 1
                                    }
                                },
                                {
                                    "key": "0xeadff6c038b69d68420e4f8546fe3999527dd867",
                                    "value": {
                                        "current": "0",
                                        "prev": "1996000000",
                                        "typeTag": 1
                                    }
                                }
                            ],
                            "typeTag": 4
                        }
                    }
                ]
            }
        ]
    }
}