{
    "balance_change": {
        "balanceChanges": [
            {
                "account": "0x8a996346c16619398c1f229c55c65aa7a84e77c8",
                "assets": [
                    {
                        "address": "0x93065b5c7eb63333b8e57a73012d25f687895785",
                        "amount": "13,096",
                        "iconUrl": "",
                        "isERC1155": false,
                        "isERC721": false,
                        "sign": false,
                        "value": ""
                    }
                ]
            },
            {
                "account": "0xea726d3f57880a9a07bbc1d788c5300641a159fb",
                "assets": [
                    {
                        "address": "0x93065b5c7eb63333b8e57a73012d25f687895785",
                        "amount": "13,096",
                        "iconUrl": "",
                        "isERC1155": false,
                        "isERC721": false,
                        "sign": true,
                        "value": ""
                    }
                ]
            }
        ]
    },
    "profile": {
        "basic_info": {
            "baseFee": "",
            "blockNumber": 8667224,
            "callData": "0x0924990c000000000000000000000000ea726d3f57880a9a07bbc1d788c5300641a159fb0000000000000000000000000000000000000000000002c5ef82566b13a0000000000000000000000000000093065b5c7eb63333b8e57a73012d25f687895785000000000000000000000000000000000000000000000000000000000000001cf37aefb1c539d99f0c46ef4be00712daa8994e6e98f3791a6d1eca64b0dd2acc36e2675b367eedd18d9f63b46e046b8ab54fc6273beb5d31d765dfab2a5a8530000000000000000000000000000000000000000000000000000000000000001c8900297ee1c1fdff6048c6a1c50d4be94f3a7ad4b791fb33c6ea8e17f3c9d2394d109f96ca14e9ac602b8a485e91b8b8b87ae2dfc3c9f395f92b88c2691d4c33",
            "debugEnable": true,
            "errorInfo": "",
            "eventCount": 1,
            "feeRecipient": "0x52bc44d5378309ee2abf1539bf71de1b7d7be3b5",
            "formatValue": "0",
            "gasLimit": 300000,
            "gasPrice": "2.4",
            "gasUsed": 104860,
            "intTxnCount": 4,
            "internalRevert": false,
            "internalRevertMessage": "",
            "isContractCreation": false,
            "isFlashloan": false,
            "maxFee": "",
            "nonce": 4455,
            "overwritedBlockNumber": -1,
            "priorityFee": "",
            "receiver": "0x8a996346c16619398c1f229c55c65aa7a84e77c8",
            "revertMessage": "",
            "sender": "0x93bacb252266fd0e5f535c0f3c5db7ada8adc199",
            "simulationEnable": true,
            "sourceTxnHash": "0x277927431335a0122e8886d629ec43f441b015fcc042482f7d77fbdba0d154f5",
            "status": true,
            "timestamp": "2019-10-03T04:45:50Z",
            "transactionFee": "0.000251664",
            "txnHash": "0x277927431335a0122e8886d629ec43f441b015fcc042482f7d77fbdba0d154f5",
            "txnIndex": 108,
            "type": 0,
            "value": "0"
        },
        "fund_flow": [
            {
                "amount": "13,096",
                "from": "0x8a996346c16619398c1f229c55c65aa7a84e77c8",
                "id": 1,
                "isERC1155": false,
                "isERC721": false,
                "isReverted": false,
                "order": 1,
                "to": "0xea726d3f57880a9a07bbc1d788c5300641a159fb",
                "token": "0x93065b5c7eb63333b8e57a73012d25f687895785"
            }
        ],
        "token_infos": [
            {
                "address": "0x93065b5c7eb63333b8e57a73012d25f687895785",
                "decimals": 18
            },
            {
                "address": "0xc02aaa39b223fe8d0a0e5c4f27ead9083c756cc2",
                "decimals": 18
            },
            {
                "address": "0xeeeeeeeeeeeeeeeeeeeeeeeeeeeeeeeeeeeeeeee",
                "decimals": 18
            }
        ]
    },
    "address_label": {
        "labels": [
            {
                "address": "0x0000000000000000000000000000000000000001",
                "label": "Precompiled"
            },
            {
                "address": "0x0000000000000000000000000000000000000002",
                "label": "Precompiled"
            },
            {
                "address": "0x0000000000000000000000000000000000000003",
                "label": "Precompiled"
            },
            {
                "address": "0x0000000000000000000000000000000000000004",
                "label": "Precompiled"
            },
            {
                "address": "0xeeeeeeeeeeeeeeeeeeeeeeeeeeeeeeeeeeeeeeee",
                "label": "Ether"
            },
            {
                "address": "0x93065b5c7eb63333b8e57a73012d25f687895785",
                "label": "ColletrixToken (CIPX)"
            }
        ]
    },
    "trace": {
        "accountLabels": null,
        "dataMap": {
            "-1": {
                "invocation": {
                    "address": "0x93bacb252266fd0e5f535c0f3c5db7ada8adc199",
                    "callData": "",
                    "decodedMethod": null,
                    "errorInfo": "",
                    "fromAddress": "",
                    "gasUsed": 0,
                    "id": -1,
                    "methodDecoded": false,
                    "operation": "",
                    "output": "",
                    "revert": false,
                    "revertMessage": "",
                    "selector": "",
                    "status": false,
                    "value": ""
                },
                "nodeType": 0
            },
            "0": {
                "invocation": {
                    "address": "0x8a996346c16619398c1f229c55c65aa7a84e77c8",
                    "callData": "0x000000000000000000000000ea726d3f57880a9a07bbc1d788c5300641a159fb0000000000000000000000000000000000000000000002c5ef82566b13a0000000000000000000000000000093065b5c7eb63333b8e57a73012d25f687895785000000000000000000000000000000000000000000000000000000000000001cf37aefb1c539d99f0c46ef4be00712daa8994e6e98f3791a6d1eca64b0dd2acc36e2675b367eedd18d9f63b46e046b8ab54fc6273beb5d31d765dfab2a5a8530000000000000000000000000000000000000000000000000000000000000001c8900297ee1c1fdff6048c6a1c50d4be94f3a7ad4b791fb33c6ea8e17f3c9d2394d109f96ca14e9ac602b8a485e91b8b8b87ae2dfc3c9f395f92b88c2691d4c33",
                    "decodedMethod": null,
                    "errorInfo": "",
                    "fromAddress": "0x93bacb252266fd0e5f535c0f3c5db7ada8adc199",
                    "gasUsed": 104860,
                    "id": 0,
                    "methodDecoded": false,
                    "operation": "CALL",
                    "output": "",
                    "revert": false,
                    "revertMessage": "",
                    "selector": "0x0924990c",
                    "status": true,
                    "value": "0"
                },
                "nodeType": 0
            },
            "1": {
                "invocation": {
                    "address": "0x93065b5c7eb63333b8e57a73012d25f687895785",
                    "callData": "0x0000000000000000000000008a996346c16619398c1f229c55c65aa7a84e77c8",
                    "decodedMethod": {
                        "callParams": [
                            {
                                "name": "account",
                                "type": "address",
                                "value": "0x8a996346c16619398c1f229c55c65aa7a84e77c8"
                            }
                        ],
                        "constructorArguments": "",
                        "name": "balanceOf",
                        "returnParams": [
                            {
                                "decimalAvailable": true,
                                "name": "",
                                "type": "uint256",
                                "value": "1,956,347,000,000,000,000,000,000"
                            }
                        ],
                        "signature": "balanceOf(address)"
                    },
                    "errorInfo": "",
                    "fromAddress": "0x8a996346c16619398c1f229c55c65aa7a84e77c8",
                    "gasUsed": 641,
                    "id": 1,
                    "methodDecoded": true,
                    "operation": "CALL",
                    "output": "0x000000000000000000000000000000000000000000019e45c88b615ce30c0000",
                    "revert": false,
                    "revertMessage": "",
                    "selector": "0x70a08231",
                    "status": true,
                    "value": "0"
                },
                "nodeType": 0
            },
            "2": {
                "invocation": {
                    "address": "0x0000000000000000000000000000000000000001",
                    "callData": "0xb018627c2c6b2bd18649bcb4edefe641859397be4f869cc2ea2d8491000000000000000000000000000000000000000000000000000000000000001cf37aefb1c539d99f0c46ef4be00712daa8994e6e98f3791a6d1eca64b0dd2acc36e2675b367eedd18d9f63b46e046b8ab54fc6273beb5d31d765dfab2a5a8530",
                    "decodedMethod": {
                        "callParams": [
                            {
                                "name": "hash",
                                "type": "bytes32",
                                "value": "0xa5a91990b018627c2c6b2bd18649bcb4edefe641859397be4f869cc2ea2d8491"
                            },
                            {
                                "name": "v",
                                "type": "uint256",
                                "value": "28"
                            },
                            {
                                "name": "r",
                                "type": "bytes32",
                                "value": "0xf37aefb1c539d99f0c46ef4be00712daa8994e6e98f3791a6d1eca64b0dd2acc"
                            },
                            {
                                "name": "s",
                                "type": "bytes32",
                                "value": "0x36e2675b367eedd18d9f63b46e046b8ab54fc6273beb5d31d765dfab2a5a8530"
                            }
                        ],
                        "constructorArguments": "",
                        "name": "ecrecover",
                        "returnParams": [
                            {
                                "name": "",
                                "type": "address",
                                "value": "0x7f3533378208dc33c6075a44c668ae7165ecc502"
                            }
                        ],
                        "signature": "ecrecover(bytes32,uint256,bytes32,bytes32)"
                    },
                    "errorInfo": "",
                    "fromAddress": "0x8a996346c16619398c1f229c55c65aa7a84e77c8",
                    "gasUsed": 3000,
                    "id": 2,
                    "methodDecoded": true,
                    "operation": "CALL",
                    "output": "0x0000000000000000000000007f3533378208dc33c6075a44c668ae7165ecc502",
                    "revert": false,
                    "revertMessage": "",
                    "selector": "0xa5a91990",
                    "status": true,
                    "value": "0"
                },
                "nodeType": 0
            },
            "3": {
                "invocation": {
                    "address": "0x0000000000000000000000000000000000000001",
                    "callData": "0xb018627c2c6b2bd18649bcb4edefe641859397be4f869cc2ea2d8491000000000000000000000000000000000000000000000000000000000000001c8900297ee1c1fdff6048c6a1c50d4be94f3a7ad4b791fb33c6ea8e17f3c9d2394d109f96ca14e9ac602b8a485e91b8b8b87ae2dfc3c9f395f92b88c2691d4c33",
                    "decodedMethod": {
                        "callParams": [
                            {
                                "name": "hash",
                                "type": "bytes32",
                                "value": "0xa5a91990b018627c2c6b2bd18649bcb4edefe641859397be4f869cc2ea2d8491"
                            },
                            {
                                "name": "v",
                                "type": "uint256",
                                "value": "28"
                            },
                            {
                                "name": "r",
                                "type": "bytes32",
                                "value": "0x8900297ee1c1fdff6048c6a1c50d4be94f3a7ad4b791fb33c6ea8e17f3c9d239"
                            },
                            {
                                "name": "s",
                                "type": "bytes32",
                                "value": "0x4d109f96ca14e9ac602b8a485e91b8b8b87ae2dfc3c9f395f92b88c2691d4c33"
                            }
                        ],
                        "constructorArguments": "",
                        "name": "ecrecover",
                        "returnParams": [
                            {
                                "name": "",
                                "type": "address",
                                "value": "0xf4150c9cc1d4aebfaff5faa504a25fd922ed2fa9"
                            }
                        ],
                        "signature": "ecrecover(bytes32,uint256,bytes32,bytes32)"
                    },
                    "errorInfo": "",
                    "fromAddress": "0x8a996346c16619398c1f229c55c65aa7a84e77c8",
                    "gasUsed": 3000,
                    "id": 3,
                    "methodDecoded": true,
                    "operation": "CALL",
                    "output": "0x000000000000000000000000f4150c9cc1d4aebfaff5faa504a25fd922ed2fa9",
                    "revert": false,
                    "revertMessage": "",
                    "selector": "0xa5a91990",
                    "status": true,
                    "value": "0"
                },
                "nodeType": 0
            },
            "4": {
                "invocation": {
                    "address": "0x93065b5c7eb63333b8e57a73012d25f687895785",
                    "callData": "0x000000000000000000000000ea726d3f57880a9a07bbc1d788c5300641a159fb0000000000000000000000000000000000000000000002c5ef82566b13a00000",
                    "decodedMethod": {
                        "callParams": [
                            {
                                "name": "recipient",
                                "type": "address",
                                "value": "0xea726d3f57880a9a07bbc1d788c5300641a159fb"
                            },
                            {
                                "decimalAvailable": true,
                                "name": "amount",
                                "type": "uint256",
                                "value": "13,096,000,000,000,000,000,000"
                            }
                        ],
                        "constructorArguments": "",
                        "name": "transfer",
                        "returnParams": [
                            {
                                "name": "",
                                "type": "bool",
                                "value": true
                            }
                        ],
                        "signature": "transfer(address,uint256)"
                    },
                    "errorInfo": "",
                    "fromAddress": "0x8a996346c16619398c1f229c55c65aa7a84e77c8",
                    "gasUsed": 28360,
                    "id": 4,
                    "methodDecoded": true,
                    "operation": "CALL",
                    "output": "0x0000000000000000000000000000000000000000000000000000000000000001",
                    "revert": false,
                    "revertMessage": "",
                    "selector": "0xa9059cbb",
                    "status": true,
                    "value": "0"
                },
                "nodeType": 0
            },
            "5": {
                "event": {
                    "contract": "0x93065b5c7eb63333b8e57a73012d25f687895785",
                    "decodedLog": {
                        "name": "Transfer",
                        "params": [
                            {
                                "name": "from",
                                "type": "address",
                                "value": "0x8a996346c16619398c1f229c55c65aa7a84e77c8"
                            },
                            {
                                "name": "to",
                                "type": "address",
                                "value": "0xea726d3f57880a9a07bbc1d788c5300641a159fb"
                            },
                            {
                                "decimalAvailable": true,
                                "name": "value",
                                "type": "uint256",
                                "value": "13,096,000,000,000,000,000,000"
                            }
                        ],
                        "signature": "Transfer(address,address,uint256)"
                    },
                    "id": 5,
                    "logData": "0x0000000000000000000000000000000000000000000002c5ef82566b13a00000",
                    "logDecoded": true,
                    "operation": "EVENT",
                    "revert": false,
                    "status": true,
                    "topics": [
                        "0xddf252ad1be2c89b69c2b068fc378daa952ba7f163c4a11628f55a4df523b3ef",
                        "0x0000000000000000000000008a996346c16619398c1f229c55c65aa7a84e77c8",
                        "0x000000000000000000000000ea726d3f57880a9a07bbc1d788c5300641a159fb"
                    ]
                },
                "nodeType": 1
            }
        },
        "gasFlame": [
            {
                "children": [
                    {
                        "children": [
                            {
                                "children": [],
                                "depth": 0,
                                "name": "Initial Gas",
                                "value": 33752
                            },
                            {
                                "children": [
                                    {
                                        "children": [],
                                        "depth": 1,
                                        "name": "balanceOf",
                                        "value": 641
                                    },
                                    {
                                        "children": [],
                                        "depth": 1,
                                        "name": "ecrecover",
                                        "value": 3000
                                    },
                                    {
                                        "children": [],
                                        "depth": 1,
                                        "name": "ecrecover",
                                        "value": 3000
                                    },
                                    {
                                        "children": [],
                                        "depth": 1,
                                        "name": "transfer",
                                        "value": 28360
                                    }
                                ],
                                "depth": 0,
                                "name": "Executed Gas",
                                "value": 71108
                            }
                        ],
                        "depth": -1,
                        "name": "Actual Gas Used",
                        "value": 104860
                    },
                    {
                        "children": [],
                        "depth": -1,
                        "name": "Refunded Gas",
                        "value": 0
                    }
                ],
                "depth": -2,
                "name": "Total Gas",
                "value": 104860
            }
        ],
        "isConfirmed": true,
        "mainTrace": [
            {
                "children": [
                    {
                        "children": [
                            {
                                "children": [],
                                "depth": 1,
                                "id": 1,
                                "order": 1
                            },
                            {
                                "children": [],
                                "depth": 1,
                                "id": 2,
                                "order": 2
                            },
                            {
                                "children": [],
                                "depth": 1,
                                "id": 3,
                                "order": 3
                            },
                            {
                                "children": [
                                    {
                                        "children": [],
                                        "depth": 2,
                                        "id": 5,
                                        "order": 5
                                    }
                                ],
                                "depth": 1,
                                "id": 4,
                                "order": 4
                            }
                        ],
                        "depth": 0,
                        "id": 0,
                        "order": 0
                    }
                ],
                "depth": -1,
                "id": -1,
                "order": -1
            }
        ],
        "mainTraceNodeCount": 6,
        "parentIdMap": {
            "0": -1,
            "1": 0,
            "2": 0,
            "3": 0,
            "4": 0,
            "5": 4
        },
        "tidyTrace": [
            {
                "children": [
                    {
                        "children": [
                            {
                                "children": [],
                                "depth": 1,
                                "id": 1,
                                "order": 1
                            },
                            {
                                "children": [],
                                "depth": 1,
                                "id": 2,
                                "order": 2
                            },
                            {
                                "children": [],
                                "depth": 1,
                                "id": 3,
                                "order": 3
                            },
                            {
                                "children": [
                                    {
                                        "children": [],
                                        "depth": 2,
                                        "id": 5,
                                        "order": 5
                                    }
                                ],
                                "depth": 1,
                                "id": 4,
                                "order": 4
                            }
                        ],
                        "depth": 0,
                        "id": 0,
                        "order": 0
                    }
                ],
                "depth": -1,
                "id": -1,
                "order": -1
            }
        ],
        "tidyTraceNodeCount": 6
    },
    "state_change": {
        "stateChanges": [
            {
                "address": "0x8a996346c16619398c1f229c55c65aa7a84e77c8",
                "erc": "",
                "slots": [
                    {
                        "current": "0x0000000000000000000000000000000000000000000000000000000000000009",
                        "key": "0x0000000000000000000000000000000000000000000000000000000000000001",
                        "prev": "0x0000000000000000000000000000000000000000000000000000000000000008"
                    }
                ],
                "storageVariables": []
            },
            {
                "address": "0x93065b5c7eb63333b8e57a73012d25f687895785",
                "erc": "ERC-20",
                "slots": [
                    {
                        "current": "0x000000000000000000000000000000000000000000019b7fd9090af1cf6c0000",
                        "key": "0x18a08bbba3c29431f02b28e68d72bcd8a342eb4af3e225780f15c93c81923875",
                        "prev": "0x000000000000000000000000000000000000000000019e45c88b615ce30c0000"
                    },
                    {
                        "current": "0x0000000000000000000000000000000000000000000002c5ef82566b13a00000",
                        "key": "0x2f797c474cf4aa7c81be163870472aa096942e3c857e368b759f59067e94d401",
                        "prev": "0x0000000000000000000000000000000000000000000000000000000000000000"
                    }
                ],
                "storageVariables": [
                    {
                        "name": "_balances",
                        "type": "mapping(address => uint256)",
                        "value": {
                            "pairs": [
                                {
                                    "key": "0x8a996346c16619398c1f229c55c65aa7a84e77c8",
                                    "value": {
                                        "current": "1943251000000000000000000",
                                        "prev": "1956347000000000000000000",
                                        "typeTag": 1
                                    }
                                },
                                {
                                    "key": "0xea726d3f57880a9a07bbc1d788c5300641a159fb",
                                    "value": {
                                        "current": "13096000000000000000000",
                                        "prev": "0",
                                        "typeTag": 1
                                    }
                                }
                            ],
                            "typeTag": 4
                        }
                    }
                ]
            }
        ]
    }
}