{
    "balance_change": {
        "balanceChanges": []
    },
    "profile": {
        "basic_info": {
            "baseFee": "",
            "blockNumber": 9763683,
            "callData": "0xda2176a6000000000000000000000000279fe4d632e2302a8a07ac54ea18a2214fbf3af30000000000000000000000000000000000000000000000000000000000004c8700000000000000000000000000000000000000000000000000000000000000a00000000000000000000000000000000000000000000000000000000000000000000000000000000000000000000000000000000000000000000000000000018000000000000000000000000000000000000000000000000000000000000000060000000000000000000000000000000000000000000000000000000000004acc0000000000000000000000000000000000000000000000000000000000004b180000000000000000000000000000000000000000000000000000000000004d480000000000000000000000000000000000000000000000000000000000004a9e0000000000000000000000000000000000000000000000000000000000004b8d0000000000000000000000000000000000000000000000000000000000004ca800000000000000000000000000000000000000000000000000000000000000415dd8e909a81a38593a6954738c6e7a85500e84e4fa5a0e6e525a8bf2e22d4d844297471e2ab968c400fb9143473e647991898da66cb85f4bb5e636e291098ad61b00000000000000000000000000000000000000000000000000000000000000",
            "debugEnable": true,
            "errorInfo": "",
            "eventCount": 7,
            "feeRecipient": "0x99c85bb64564d9ef9a99621301f22c9993cb89e3",
            "formatValue": "0",
            "gasLimit": 176883,
            "gasPrice": "1.5",
            "gasUsed": 117922,
            "intTxnCount": 13,
            "internalRevert": false,
            "internalRevertMessage": "",
            "isContractCreation": false,
            "isFlashloan": false,
            "maxFee": "",
            "nonce": 653,
            "overwritedBlockNumber": -1,
            "priorityFee": "",
            "receiver": "0xb3a55b726fc34abbf4aae99f4c5285df5cc1537b",
            "revertMessage": "",
            "sender": "0x279fe4d632e2302a8a07ac54ea18a2214fbf3af3",
            "simulationEnable": true,
            "sourceTxnHash": "0x27dc31a3bed15f7b0a0b2838d1ec77e371352b3b03b8f41a082326090940b8d1",
            "status": true,
            "timestamp": "2020-03-29T02:08:03Z",
            "transactionFee": "0.000176883",
            "txnHash": "0x27dc31a3bed15f7b0a0b2838d1ec77e371352b3b03b8f41a082326090940b8d1",
            "txnIndex": 41,
            "type": 0,
            "value": "0"
        },
        "fund_flow": [],
        "token_infos": [
            {
                "address": "0xc02aaa39b223fe8d0a0e5c4f27ead9083c756cc2",
                "decimals": 18
            },
            {
                "address": "0xeeeeeeeeeeeeeeeeeeeeeeeeeeeeeeeeeeeeeeee",
                "decimals": 18
            }
        ]
    },
    "address_label": {
        "labels": [
            {
                "address": "0x0000000000000000000000000000000000000002",
                "label": "Precompiled"
            },
            {
                "address": "0x0000000000000000000000000000000000000003",
                "label": "Precompiled"
            },
            {
                "address": "0x0000000000000000000000000000000000000004",
                "label": "Precompiled"
            },
            {
                "address": "0xeeeeeeeeeeeeeeeeeeeeeeeeeeeeeeeeeeeeeeee",
                "label": "Ether"
            },
            {
                "address": "0xf06059f01f6f08a603c939359a0a1186f7687685",
                "label": "MCP: Citizen"
            },
            {
                "address": "0xe15e9c0bf6b6b29d3b9e1c921ab2cb09c2194463",
                "label": "MegaCryptoPolis: MCPL Token"
            },
            {
                "address": "0x0000000000000000000000000000000000000001",
                "label": "Precompiled"
            }
        ]
    },
    "trace": {
        "accountLabels": null,
        "dataMap": {
            "-1": {
                "invocation": {
                    "address": "0x279fe4d632e2302a8a07ac54ea18a2214fbf3af3",
                    "callData": "",
                    "decodedMethod": null,
                    "errorInfo": "",
                    "fromAddress": "",
                    "gasUsed": 0,
                    "id": -1,
                    "methodDecoded": false,
                    "operation": "",
                    "output": "",
                    "revert": false,
                    "revertMessage": "",
                    "selector": "",
                    "status": false,
                    "value": ""
                },
                "nodeType": 0
            },
            "0": {
                "invocation": {
                    "address": "0xb3a55b726fc34abbf4aae99f4c5285df5cc1537b",
                    "callData": "0x000000000000000000000000279fe4d632e2302a8a07ac54ea18a2214fbf3af30000000000000000000000000000000000000000000000000000000000004c8700000000000000000000000000000000000000000000000000000000000000a00000000000000000000000000000000000000000000000000000000000000000000000000000000000000000000000000000000000000000000000000000018000000000000000000000000000000000000000000000000000000000000000060000000000000000000000000000000000000000000000000000000000004acc0000000000000000000000000000000000000000000000000000000000004b180000000000000000000000000000000000000000000000000000000000004d480000000000000000000000000000000000000000000000000000000000004a9e0000000000000000000000000000000000000000000000000000000000004b8d0000000000000000000000000000000000000000000000000000000000004ca800000000000000000000000000000000000000000000000000000000000000415dd8e909a81a38593a6954738c6e7a85500e84e4fa5a0e6e525a8bf2e22d4d844297471e2ab968c400fb9143473e647991898da66cb85f4bb5e636e291098ad61b00000000000000000000000000000000000000000000000000000000000000",
                    "decodedMethod": null,
                    "errorInfo": "",
                    "fromAddress": "0x279fe4d632e2302a8a07ac54ea18a2214fbf3af3",
                    "gasUsed": 117922,
                    "id": 0,
                    "methodDecoded": false,
                    "operation": "CALL",
                    "output": "",
                    "revert": false,
                    "revertMessage": "",
                    "selector": "0xda2176a6",
                    "status": true,
                    "value": "0"
                },
                "nodeType": 0
            },
            "1": {
                "invocation": {
                    "address": "0xce269e78c79a2ac66148225fd2939d322f1748d9",
                    "callData": "0x0000000000000000000000000000000000000000000000000000000000004c87",
                    "decodedMethod": null,
                    "errorInfo": "",
                    "fromAddress": "0xb3a55b726fc34abbf4aae99f4c5285df5cc1537b",
                    "gasUsed": 5869,
                    "id": 1,
                    "methodDecoded": false,
                    "operation": "STATICCALL",
                    "output": "0x000000000000000000000000279fe4d632e2302a8a07ac54ea18a2214fbf3af3",
                    "revert": false,
                    "revertMessage": "",
                    "selector": "0x0161b129",
                    "status": true,
                    "value": "0"
                },
                "nodeType": 0
            },
            "10": {
                "invocation": {
                    "address": "0xf06059f01f6f08a603c939359a0a1186f7687685",
                    "callData": "0x0000000000000000000000000000000000000000000000000000000000004ca8",
                    "decodedMethod": {
                        "callParams": [
                            {
                                "name": "tokenId",
                                "type": "uint256",
                                "value": "19,624"
                            }
                        ],
                        "constructorArguments": "",
                        "name": "ownerOf",
                        "returnParams": [
                            {
                                "name": "",
                                "type": "address",
                                "value": "0x279fe4d632e2302a8a07ac54ea18a2214fbf3af3"
                            }
                        ],
                        "signature": "ownerOf(uint256)"
                    },
                    "errorInfo": "",
                    "fromAddress": "0xb3a55b726fc34abbf4aae99f4c5285df5cc1537b",
                    "gasUsed": 1309,
                    "id": 10,
                    "methodDecoded": true,
                    "operation": "STATICCALL",
                    "output": "0x000000000000000000000000279fe4d632e2302a8a07ac54ea18a2214fbf3af3",
                    "revert": false,
                    "revertMessage": "",
                    "selector": "0x6352211e",
                    "status": true,
                    "value": "0"
                },
                "nodeType": 0
            },
            "11": {
                "invocation": {
                    "address": "0x0996be2e1e789d7e82020c3b9b5350db82de493b",
                    "callData": "0x0000000000000000000000000000000000000000000000000000000000004c87",
                    "decodedMethod": null,
                    "errorInfo": "",
                    "fromAddress": "0xb3a55b726fc34abbf4aae99f4c5285df5cc1537b",
                    "gasUsed": 23046,
                    "id": 11,
                    "methodDecoded": false,
                    "operation": "CALL",
                    "output": "0x0000000000000000000000000000000000000000000000000000000000000001",
                    "revert": false,
                    "revertMessage": "",
                    "selector": "0x7b089bcb",
                    "status": true,
                    "value": "0"
                },
                "nodeType": 0
            },
            "12": {
                "invocation": {
                    "address": "0x8c60d767daf8cbc8e9a4899fb2eb0bbf9bbf8c20",
                    "callData": "0x0000000000000000000000000000000000000000000000000000000000004c87000000000000000000000000000000000000000000000000000000005e800303",
                    "decodedMethod": null,
                    "errorInfo": "",
                    "fromAddress": "0xb3a55b726fc34abbf4aae99f4c5285df5cc1537b",
                    "gasUsed": 7875,
                    "id": 12,
                    "methodDecoded": false,
                    "operation": "CALL",
                    "output": "0x000000000000000000000000000000000000000000000000000000005e800303",
                    "revert": false,
                    "revertMessage": "",
                    "selector": "0x3568f6ca",
                    "status": true,
                    "value": "0"
                },
                "nodeType": 0
            },
            "13": {
                "invocation": {
                    "address": "0x0996be2e1e789d7e82020c3b9b5350db82de493b",
                    "callData": "0x0000000000000000000000000000000000000000000000000000000000004c87",
                    "decodedMethod": null,
                    "errorInfo": "",
                    "fromAddress": "0x8c60d767daf8cbc8e9a4899fb2eb0bbf9bbf8c20",
                    "gasUsed": 2857,
                    "id": 13,
                    "methodDecoded": false,
                    "operation": "CALL",
                    "output": "0x0000000000000000000000000000000000000000000000000000000000000002",
                    "revert": false,
                    "revertMessage": "",
                    "selector": "0x8db224ca",
                    "status": true,
                    "value": "0"
                },
                "nodeType": 0
            },
            "14": {
                "event": {
                    "contract": "0x8c60d767daf8cbc8e9a4899fb2eb0bbf9bbf8c20",
                    "decodedLog": null,
                    "id": 14,
                    "logData": "0x0000000000000000000000000000000000000000000000000000000000004c870000000000000000000000000000000000000000000000000000000000000002",
                    "logDecoded": false,
                    "operation": "EVENT",
                    "revert": false,
                    "status": true,
                    "topics": [
                        "0xa68c846c29d5a12f4945895e5cdcdc7bcd68152bb669393825044d8b70bcc654"
                    ]
                },
                "nodeType": 1
            },
            "15": {
                "event": {
                    "contract": "0xb3a55b726fc34abbf4aae99f4c5285df5cc1537b",
                    "decodedLog": null,
                    "id": 15,
                    "logData": "0x0000000000000000000000000000000000000000000000000000000000004c870000000000000000000000000000000000000000000000000000000000004acc000000000000000000000000000000000000000000000000000000000000000100000000000000000000000000000000000000000000000000000000000000000000000000000000000000000000000000000000000000000000000000000001000000000000000000000000000000000000000000000000000000005e800303",
                    "logDecoded": false,
                    "operation": "EVENT",
                    "revert": false,
                    "status": true,
                    "topics": [
                        "0x7a4a6e43ddf4c3ba1a07b62eb04eeb6ea048d273f8aca63fe79f9093081ecfac"
                    ]
                },
                "nodeType": 1
            },
            "16": {
                "event": {
                    "contract": "0xb3a55b726fc34abbf4aae99f4c5285df5cc1537b",
                    "decodedLog": null,
                    "id": 16,
                    "logData": "0x0000000000000000000000000000000000000000000000000000000000004c870000000000000000000000000000000000000000000000000000000000004b18000000000000000000000000000000000000000000000000000000000000000100000000000000000000000000000000000000000000000000000000000000000000000000000000000000000000000000000000000000000000000000000001000000000000000000000000000000000000000000000000000000005e800303",
                    "logDecoded": false,
                    "operation": "EVENT",
                    "revert": false,
                    "status": true,
                    "topics": [
                        "0x7a4a6e43ddf4c3ba1a07b62eb04eeb6ea048d273f8aca63fe79f9093081ecfac"
                    ]
                },
                "nodeType": 1
            },
            "17": {
                "event": {
                    "contract": "0xb3a55b726fc34abbf4aae99f4c5285df5cc1537b",
                    "decodedLog": null,
                    "id": 17,
                    "logData": "0x0000000000000000000000000000000000000000000000000000000000004c870000000000000000000000000000000000000000000000000000000000004d48000000000000000000000000000000000000000000000000000000000000000100000000000000000000000000000000000000000000000000000000000000000000000000000000000000000000000000000000000000000000000000000001000000000000000000000000000000000000000000000000000000005e800303",
                    "logDecoded": false,
                    "operation": "EVENT",
                    "revert": false,
                    "status": true,
                    "topics": [
                        "0x7a4a6e43ddf4c3ba1a07b62eb04eeb6ea048d273f8aca63fe79f9093081ecfac"
                    ]
                },
                "nodeType": 1
            },
            "18": {
                "event": {
                    "contract": "0xb3a55b726fc34abbf4aae99f4c5285df5cc1537b",
                    "decodedLog": null,
                    "id": 18,
                    "logData": "0x0000000000000000000000000000000000000000000000000000000000004c870000000000000000000000000000000000000000000000000000000000004a9e000000000000000000000000000000000000000000000000000000000000000100000000000000000000000000000000000000000000000000000000000000000000000000000000000000000000000000000000000000000000000000000001000000000000000000000000000000000000000000000000000000005e800303",
                    "logDecoded": false,
                    "operation": "EVENT",
                    "revert": false,
                    "status": true,
                    "topics": [
                        "0x7a4a6e43ddf4c3ba1a07b62eb04eeb6ea048d273f8aca63fe79f9093081ecfac"
                    ]
                },
                "nodeType": 1
            },
            "19": {
                "event": {
                    "contract": "0xb3a55b726fc34abbf4aae99f4c5285df5cc1537b",
                    "decodedLog": null,
                    "id": 19,
                    "logData": "0x0000000000000000000000000000000000000000000000000000000000004c870000000000000000000000000000000000000000000000000000000000004b8d000000000000000000000000000000000000000000000000000000000000000100000000000000000000000000000000000000000000000000000000000000000000000000000000000000000000000000000000000000000000000000000001000000000000000000000000000000000000000000000000000000005e800303",
                    "logDecoded": false,
                    "operation": "EVENT",
                    "revert": false,
                    "status": true,
                    "topics": [
                        "0x7a4a6e43ddf4c3ba1a07b62eb04eeb6ea048d273f8aca63fe79f9093081ecfac"
                    ]
                },
                "nodeType": 1
            },
            "2": {
                "invocation": {
                    "address": "0xe15e9c0bf6b6b29d3b9e1c921ab2cb09c2194463",
                    "callData": "0x0000000000000000000000000000000000000000000000000000000000004c87",
                    "decodedMethod": {
                        "callParams": [
                            {
                                "name": "tokenId",
                                "type": "uint256",
                                "value": "19,591"
                            }
                        ],
                        "constructorArguments": "",
                        "name": "ownerOf",
                        "returnParams": [
                            {
                                "name": "",
                                "type": "address",
                                "value": "0x279fe4d632e2302a8a07ac54ea18a2214fbf3af3"
                            }
                        ],
                        "signature": "ownerOf(uint256)"
                    },
                    "errorInfo": "",
                    "fromAddress": "0xce269e78c79a2ac66148225fd2939d322f1748d9",
                    "gasUsed": 1235,
                    "id": 2,
                    "methodDecoded": true,
                    "operation": "STATICCALL",
                    "output": "0x000000000000000000000000279fe4d632e2302a8a07ac54ea18a2214fbf3af3",
                    "revert": false,
                    "revertMessage": "",
                    "selector": "0x6352211e",
                    "status": true,
                    "value": "0"
                },
                "nodeType": 0
            },
            "20": {
                "event": {
                    "contract": "0xb3a55b726fc34abbf4aae99f4c5285df5cc1537b",
                    "decodedLog": null,
                    "id": 20,
                    "logData": "0x0000000000000000000000000000000000000000000000000000000000004c870000000000000000000000000000000000000000000000000000000000004ca8000000000000000000000000000000000000000000000000000000000000000100000000000000000000000000000000000000000000000000000000000000000000000000000000000000000000000000000000000000000000000000000001000000000000000000000000000000000000000000000000000000005e800303",
                    "logDecoded": false,
                    "operation": "EVENT",
                    "revert": false,
                    "status": true,
                    "topics": [
                        "0x7a4a6e43ddf4c3ba1a07b62eb04eeb6ea048d273f8aca63fe79f9093081ecfac"
                    ]
                },
                "nodeType": 1
            },
            "3": {
                "invocation": {
                    "address": "0x28c35f7af9e63a36843a4938caf25380ffa114c4",
                    "callData": "0x3bc3a3f37b67efa53e821442c29d172ab09a7219f6463936e9dbc49adabaa1f1000000000000000000000000000000000000000000000000000000000000004000000000000000000000000000000000000000000000000000000000000000415dd8e909a81a38593a6954738c6e7a85500e84e4fa5a0e6e525a8bf2e22d4d844297471e2ab968c400fb9143473e647991898da66cb85f4bb5e636e291098ad61b00000000000000000000000000000000000000000000000000000000000000",
                    "decodedMethod": {
                        "callParams": [
                            {
                                "name": "_messageHash",
                                "type": "bytes32",
                                "value": "0x3bc3a3f37b67efa53e821442c29d172ab09a7219f6463936e9dbc49adabaa1f1"
                            },
                            {
                                "name": "_signature",
                                "type": "bytes",
                                "value": "0x5dd8e909a81a38593a6954738c6e7a85500e84e4fa5a0e6e525a8bf2e22d4d844297471e2ab968c400fb9143473e647991898da66cb85f4bb5e636e291098ad61b"
                            }
                        ],
                        "constructorArguments": "",
                        "name": "verifySignature",
                        "returnParams": [
                            {
                                "name": "signatureAddress",
                                "type": "address",
                                "value": "0x8b17c8f878b23c5b5d0cacf1300060ee5bb4a022"
                            }
                        ],
                        "signature": "verifySignature(bytes32,bytes)"
                    },
                    "errorInfo": "",
                    "fromAddress": "0xb3a55b726fc34abbf4aae99f4c5285df5cc1537b",
                    "gasUsed": 5677,
                    "id": 3,
                    "methodDecoded": true,
                    "operation": "STATICCALL",
                    "output": "0x0000000000000000000000008b17c8f878b23c5b5d0cacf1300060ee5bb4a022",
                    "revert": false,
                    "revertMessage": "",
                    "selector": "0xdaca6f78",
                    "status": true,
                    "value": "0"
                },
                "nodeType": 0
            },
            "4": {
                "invocation": {
                    "address": "0x0000000000000000000000000000000000000001",
                    "callData": "0x7b67efa53e821442c29d172ab09a7219f6463936e9dbc49adabaa1f1000000000000000000000000000000000000000000000000000000000000001b5dd8e909a81a38593a6954738c6e7a85500e84e4fa5a0e6e525a8bf2e22d4d844297471e2ab968c400fb9143473e647991898da66cb85f4bb5e636e291098ad6",
                    "decodedMethod": {
                        "callParams": [
                            {
                                "name": "hash",
                                "type": "bytes32",
                                "value": "0x3bc3a3f37b67efa53e821442c29d172ab09a7219f6463936e9dbc49adabaa1f1"
                            },
                            {
                                "name": "v",
                                "type": "uint256",
                                "value": "27"
                            },
                            {
                                "name": "r",
                                "type": "bytes32",
                                "value": "0x5dd8e909a81a38593a6954738c6e7a85500e84e4fa5a0e6e525a8bf2e22d4d84"
                            },
                            {
                                "name": "s",
                                "type": "bytes32",
                                "value": "0x4297471e2ab968c400fb9143473e647991898da66cb85f4bb5e636e291098ad6"
                            }
                        ],
                        "constructorArguments": "",
                        "name": "ecrecover",
                        "returnParams": [
                            {
                                "name": "",
                                "type": "address",
                                "value": "0x8b17c8f878b23c5b5d0cacf1300060ee5bb4a022"
                            }
                        ],
                        "signature": "ecrecover(bytes32,uint256,bytes32,bytes32)"
                    },
                    "errorInfo": "",
                    "fromAddress": "0x28c35f7af9e63a36843a4938caf25380ffa114c4",
                    "gasUsed": 3000,
                    "id": 4,
                    "methodDecoded": true,
                    "operation": "STATICCALL",
                    "output": "0x0000000000000000000000008b17c8f878b23c5b5d0cacf1300060ee5bb4a022",
                    "revert": false,
                    "revertMessage": "",
                    "selector": "0x3bc3a3f3",
                    "status": true,
                    "value": "0"
                },
                "nodeType": 0
            },
            "5": {
                "invocation": {
                    "address": "0xf06059f01f6f08a603c939359a0a1186f7687685",
                    "callData": "0x0000000000000000000000000000000000000000000000000000000000004acc",
                    "decodedMethod": {
                        "callParams": [
                            {
                                "name": "tokenId",
                                "type": "uint256",
                                "value": "19,148"
                            }
                        ],
                        "constructorArguments": "",
                        "name": "ownerOf",
                        "returnParams": [
                            {
                                "name": "",
                                "type": "address",
                                "value": "0x279fe4d632e2302a8a07ac54ea18a2214fbf3af3"
                            }
                        ],
                        "signature": "ownerOf(uint256)"
                    },
                    "errorInfo": "",
                    "fromAddress": "0xb3a55b726fc34abbf4aae99f4c5285df5cc1537b",
                    "gasUsed": 1309,
                    "id": 5,
                    "methodDecoded": true,
                    "operation": "STATICCALL",
                    "output": "0x000000000000000000000000279fe4d632e2302a8a07ac54ea18a2214fbf3af3",
                    "revert": false,
                    "revertMessage": "",
                    "selector": "0x6352211e",
                    "status": true,
                    "value": "0"
                },
                "nodeType": 0
            },
            "6": {
                "invocation": {
                    "address": "0xf06059f01f6f08a603c939359a0a1186f7687685",
                    "callData": "0x0000000000000000000000000000000000000000000000000000000000004b18",
                    "decodedMethod": {
                        "callParams": [
                            {
                                "name": "tokenId",
                                "type": "uint256",
                                "value": "19,224"
                            }
                        ],
                        "constructorArguments": "",
                        "name": "ownerOf",
                        "returnParams": [
                            {
                                "name": "",
                                "type": "address",
                                "value": "0x279fe4d632e2302a8a07ac54ea18a2214fbf3af3"
                            }
                        ],
                        "signature": "ownerOf(uint256)"
                    },
                    "errorInfo": "",
                    "fromAddress": "0xb3a55b726fc34abbf4aae99f4c5285df5cc1537b",
                    "gasUsed": 1309,
                    "id": 6,
                    "methodDecoded": true,
                    "operation": "STATICCALL",
                    "output": "0x000000000000000000000000279fe4d632e2302a8a07ac54ea18a2214fbf3af3",
                    "revert": false,
                    "revertMessage": "",
                    "selector": "0x6352211e",
                    "status": true,
                    "value": "0"
                },
                "nodeType": 0
            },
            "7": {
                "invocation": {
                    "address": "0xf06059f01f6f08a603c939359a0a1186f7687685",
                    "callData": "0x0000000000000000000000000000000000000000000000000000000000004d48",
                    "decodedMethod": {
                        "callParams": [
                            {
                                "name": "tokenId",
                                "type": "uint256",
                                "value": "19,784"
                            }
                        ],
                        "constructorArguments": "",
                        "name": "ownerOf",
                        "returnParams": [
                            {
                                "name": "",
                                "type": "address",
                                "value": "0x279fe4d632e2302a8a07ac54ea18a2214fbf3af3"
                            }
                        ],
                        "signature": "ownerOf(uint256)"
                    },
                    "errorInfo": "",
                    "fromAddress": "0xb3a55b726fc34abbf4aae99f4c5285df5cc1537b",
                    "gasUsed": 1309,
                    "id": 7,
                    "methodDecoded": true,
                    "operation": "STATICCALL",
                    "output": "0x000000000000000000000000279fe4d632e2302a8a07ac54ea18a2214fbf3af3",
                    "revert": false,
                    "revertMessage": "",
                    "selector": "0x6352211e",
                    "status": true,
                    "value": "0"
                },
                "nodeType": 0
            },
            "8": {
                "invocation": {
                    "address": "0xf06059f01f6f08a603c939359a0a1186f7687685",
                    "callData": "0x0000000000000000000000000000000000000000000000000000000000004a9e",
                    "decodedMethod": {
                        "callParams": [
                            {
                                "name": "tokenId",
                                "type": "uint256",
                                "value": "19,102"
                            }
                        ],
                        "constructorArguments": "",
                        "name": "ownerOf",
                        "returnParams": [
                            {
                                "name": "",
                                "type": "address",
                                "value": "0x279fe4d632e2302a8a07ac54ea18a2214fbf3af3"
                            }
                        ],
                        "signature": "ownerOf(uint256)"
                    },
                    "errorInfo": "",
                    "fromAddress": "0xb3a55b726fc34abbf4aae99f4c5285df5cc1537b",
                    "gasUsed": 1309,
                    "id": 8,
                    "methodDecoded": true,
                    "operation": "STATICCALL",
                    "output": "0x000000000000000000000000279fe4d632e2302a8a07ac54ea18a2214fbf3af3",
                    "revert": false,
                    "revertMessage": "",
                    "selector": "0x6352211e",
                    "status": true,
                    "value": "0"
                },
                "nodeType": 0
            },
            "9": {
                "invocation": {
                    "address": "0xf06059f01f6f08a603c939359a0a1186f7687685",
                    "callData": "0x0000000000000000000000000000000000000000000000000000000000004b8d",
                    "decodedMethod": {
                        "callParams": [
                            {
                                "name": "tokenId",
                                "type": "uint256",
                                "value": "19,341"
                            }
                        ],
                        "constructorArguments": "",
                        "name": "ownerOf",
                        "returnParams": [
                            {
                                "name": "",
                                "type": "address",
                                "value": "0x279fe4d632e2302a8a07ac54ea18a2214fbf3af3"
                            }
                        ],
                        "signature": "ownerOf(uint256)"
                    },
                    "errorInfo": "",
                    "fromAddress": "0xb3a55b726fc34abbf4aae99f4c5285df5cc1537b",
                    "gasUsed": 1309,
                    "id": 9,
                    "methodDecoded": true,
                    "operation": "STATICCALL",
                    "output": "0x000000000000000000000000279fe4d632e2302a8a07ac54ea18a2214fbf3af3",
                    "revert": false,
                    "revertMessage": "",
                    "selector": "0x6352211e",
                    "status": true,
                    "value": "0"
                },
                "nodeType": 0
            }
        },
        "gasFlame": [
            {
                "children": [
                    {
                        "children": [
                            {
                                "children": [],
                                "depth": 0,
                                "name": "Initial Gas",
                                "value": 24348
                            },
                            {
                                "children": [
                                    {
                                        "children": [
                                            {
                                                "children": [],
                                                "depth": 2,
                                                "name": "ownerOf",
                                                "value": 1235
                                            }
                                        ],
                                        "depth": 1,
                                        "name": "0x0161b129",
                                        "value": 5869
                                    },
                                    {
                                        "children": [
                                            {
                                                "children": [],
                                                "depth": 2,
                                                "name": "ecrecover",
                                                "value": 3000
                                            }
                                        ],
                                        "depth": 1,
                                        "name": "verifySignature",
                                        "value": 5677
                                    },
                                    {
                                        "children": [],
                                        "depth": 1,
                                        "name": "ownerOf",
                                        "value": 1309
                                    },
                                    {
                                        "children": [],
                                        "depth": 1,
                                        "name": "ownerOf",
                                        "value": 1309
                                    },
                                    {
                                        "children": [],
                                        "depth": 1,
                                        "name": "ownerOf",
                                        "value": 1309
                                    },
                                    {
                                        "children": [],
                                        "depth": 1,
                                        "name": "ownerOf",
                                        "value": 1309
                                    },
                                    {
                                        "children": [],
                                        "depth": 1,
                                        "name": "ownerOf",
                                        "value": 1309
                                    },
                                    {
                                        "children": [],
                                        "depth": 1,
                                        "name": "ownerOf",
                                        "value": 1309
                                    },
                                    {
                                        "children": [],
                                        "depth": 1,
                                        "name": "0x7b089bcb",
                                        "value": 23046
                                    },
                                    {
                                        "children": [
                                            {
                                                "children": [],
                                                "depth": 2,
                                                "name": "0x8db224ca",
                                                "value": 2857
                                            }
                                        ],
                                        "depth": 1,
                                        "name": "0x3568f6ca",
                                        "value": 7875
                                    }
                                ],
                                "depth": 0,
                                "name": "Executed Gas",
                                "value": 93574
                            }
                        ],
                        "depth": -1,
                        "name": "Actual Gas Used",
                        "value": 117922
                    },
                    {
                        "children": [],
                        "depth": -1,
                        "name": "Refunded Gas",
                        "value": 0
                    }
                ],
                "depth": -2,
                "name": "Total Gas",
                "value": 117922
            }
        ],
        "isConfirmed": true,
        "mainTrace": [
            {
                "children": [
                    {
                        "children": [
                            {
                                "children": [
                                    {
                                        "children": [],
                                        "depth": 2,
                                        "id": 2,
                                        "order": 2
                                    }
                                ],
                                "depth": 1,
                                "id": 1,
                                "order": 1
                            },
                            {
                                "children": [
                                    {
                                        "children": [],
                                        "depth": 2,
                                        "id": 4,
                                        "order": 4
                                    }
                                ],
                                "depth": 1,
                                "id": 3,
                                "order": 3
                            },
                            {
                                "children": [],
                                "depth": 1,
                                "id": 5,
                                "order": 5
                            },
                            {
                                "children": [],
                                "depth": 1,
                                "id": 6,
                                "order": 6
                            },
                            {
                                "children": [],
                                "depth": 1,
                                "id": 7,
                                "order": 7
                            },
                            {
                                "children": [],
                                "depth": 1,
                                "id": 8,
                                "order": 8
                            },
                            {
                                "children": [],
                                "depth": 1,
                                "id": 9,
                                "order": 9
                            },
                            {
                                "children": [],
                                "depth": 1,
                                "id": 10,
                                "order": 10
                            },
                            {
                                "children": [],
                                "depth": 1,
                                "id": 11,
                                "order": 11
                            },
                            {
                                "children": [
                                    {
                                        "children": [],
                                        "depth": 2,
                                        "id": 13,
                                        "order": 13
                                    },
                                    {
                                        "children": [],
                                        "depth": 2,
                                        "id": 14,
                                        "order": 14
                                    }
                                ],
                                "depth": 1,
                                "id": 12,
                                "order": 12
                            },
                            {
                                "children": [],
                                "depth": 1,
                                "id": 15,
                                "order": 15
                            },
                            {
                                "children": [],
                                "depth": 1,
                                "id": 16,
                                "order": 16
                            },
                            {
                                "children": [],
                                "depth": 1,
                                "id": 17,
                                "order": 17
                            },
                            {
                                "children": [],
                                "depth": 1,
                                "id": 18,
                                "order": 18
                            },
                            {
                                "children": [],
                                "depth": 1,
                                "id": 19,
                                "order": 19
                            },
                            {
                                "children": [],
                                "depth": 1,
                                "id": 20,
                                "order": 20
                            }
                        ],
                        "depth": 0,
                        "id": 0,
                        "order": 0
                    }
                ],
                "depth": -1,
                "id": -1,
                "order": -1
            }
        ],
        "mainTraceNodeCount": 21,
        "parentIdMap": {
            "0": -1,
            "1": 0,
            "10": 0,
            "11": 0,
            "12": 0,
            "13": 12,
            "14": 12,
            "15": 0,
            "16": 0,
            "17": 0,
            "18": 0,
            "19": 0,
            "2": 1,
            "20": 0,
            "3": 0,
            "4": 3,
            "5": 0,
            "6": 0,
            "7": 0,
            "8": 0,
            "9": 0
        },
        "tidyTrace": [
            {
                "children": [
                    {
                        "children": [
                            {
                                "children": [],
                                "depth": 1,
                                "id": 11,
                                "order": 11
                            },
                            {
                                "children": [
                                    {
                                        "children": [],
                                        "depth": 2,
                                        "id": 13,
                                        "order": 13
                                    },
                                    {
                                        "children": [],
                                        "depth": 2,
                                        "id": 14,
                                        "order": 14
                                    }
                                ],
                                "depth": 1,
                                "id": 12,
                                "order": 12
                            },
                            {
                                "children": [],
                                "depth": 1,
                                "id": 15,
                                "order": 15
                            },
                            {
                                "children": [],
                                "depth": 1,
                                "id": 16,
                                "order": 16
                            },
                            {
                                "children": [],
                                "depth": 1,
                                "id": 17,
                                "order": 17
                            },
                            {
                                "children": [],
                                "depth": 1,
                                "id": 18,
                                "order": 18
                            },
                            {
                                "children": [],
                                "depth": 1,
                                "id": 19,
                                "order": 19
                            },
                            {
                                "children": [],
                                "depth": 1,
                                "id": 20,
                                "order": 20
                            }
                        ],
                        "depth": 0,
                        "id": 0,
                        "order": 0
                    }
                ],
                "depth": -1,
                "id": -1,
                "order": -1
            }
        ],
        "tidyTraceNodeCount": 11
    },
    "state_change": {
        "stateChanges": [
            {
                "address": "0x0996be2e1e789d7e82020c3b9b5350db82de493b",
                "erc": "",
                "slots": [
                    {
                        "current": "0x0000000000000000000000000000000000000000000000000000000000000002",
                        "key": "0xae116b8f7b710c7d9cd303b86ba499ed6b62df0c8e558e0fe06f787d9829fb49",
                        "prev": "0x0000000000000000000000000000000000000000000000000000000000000000"
                    }
                ],
                "storageVariables": []
            }
        ]
    }
}