{
    "balance_change": {
        "balanceChanges": [
            {
                "account": "0x26d37f2d8d9703255cd79a383c3f80b528b2342c",
                "assets": [
                    {
                        "address": "0xa0b86991c6218b36c1d19d4a2e9eb0ce3606eb48",
                        "amount": "100",
                        "iconUrl": "https://assets.blocksec.com/icon/0347a86cc07dbd03fdc5db01a4e5ac7e1217f90e0b6e4bb0f75cbcca09160989.png",
                        "isERC1155": false,
                        "isERC721": false,
                        "sign": false,
                        "value": ""
                    }
                ]
            },
            {
                "account": "0x6b691c3eefc1dffe62c4dde69a5aeb60147723a8",
                "assets": [
                    {
                        "address": "0xa0b86991c6218b36c1d19d4a2e9eb0ce3606eb48",
                        "amount": "100",
                        "iconUrl": "https://assets.blocksec.com/icon/0347a86cc07dbd03fdc5db01a4e5ac7e1217f90e0b6e4bb0f75cbcca09160989.png",
                        "isERC1155": false,
                        "isERC721": false,
                        "sign": true,
                        "value": ""
                    }
                ]
            }
        ]
    },
    "profile": {
        "basic_info": {
            "baseFee": "",
            "blockNumber": 11198455,
            "callData": "0x0dcd7a6c0000000000000000000000006b691c3eefc1dffe62c4dde69a5aeb60147723a80000000000000000000000000000000000000000000000000000000005f5e100000000000000000000000000a0b86991c6218b36c1d19d4a2e9eb0ce3606eb48000000000000000000000000000000000000000000000000000000005fad694b000000000000000000000000000000000000000000000000000000000000342c00000000000000000000000000000000000000000000000000000000000000c0000000000000000000000000000000000000000000000000000000000000004196387fce41021a47a4debc724c640848692afb93a09785d804fc077c072f0d31305c54747ef97702b9e9594fea5b38b740604a8e0cd195cf0681772b873c1bbd1c00000000000000000000000000000000000000000000000000000000000000",
            "debugEnable": true,
            "errorInfo": "",
            "eventCount": 1,
            "feeRecipient": "0xea674fdde714fd979de3edf0f56aa9716b898ec8",
            "formatValue": "0",
            "gasLimit": 220251,
            "gasPrice": "72",
            "gasUsed": 119277,
            "intTxnCount": 3,
            "internalRevert": false,
            "internalRevertMessage": "",
            "isContractCreation": false,
            "isFlashloan": false,
            "maxFee": "",
            "nonce": 195933,
            "overwritedBlockNumber": -1,
            "priorityFee": "",
            "receiver": "0x26d37f2d8d9703255cd79a383c3f80b528b2342c",
            "revertMessage": "",
            "sender": "0x808b4da0be6c9512e948521452227efc619bea52",
            "simulationEnable": true,
            "sourceTxnHash": "0x281caaf358f62eba6216814da0f5edf6744fef27ef1973dfcbe376e6dbe4a1b8",
            "status": true,
            "timestamp": "2020-11-05T17:05:30Z",
            "transactionFee": "0.008587944",
            "txnHash": "0x281caaf358f62eba6216814da0f5edf6744fef27ef1973dfcbe376e6dbe4a1b8",
            "txnIndex": 136,
            "type": 0,
            "value": "0"
        },
        "fund_flow": [
            {
                "amount": "100",
                "from": "0x26d37f2d8d9703255cd79a383c3f80b528b2342c",
                "id": 1,
                "isERC1155": false,
                "isERC721": false,
                "isReverted": false,
                "order": 1,
                "to": "0x6b691c3eefc1dffe62c4dde69a5aeb60147723a8",
                "token": "0xa0b86991c6218b36c1d19d4a2e9eb0ce3606eb48"
            }
        ],
        "token_infos": [
            {
                "address": "0xa0b86991c6218b36c1d19d4a2e9eb0ce3606eb48",
                "decimals": 6
            },
            {
                "address": "0xc02aaa39b223fe8d0a0e5c4f27ead9083c756cc2",
                "decimals": 18
            },
            {
                "address": "0xeeeeeeeeeeeeeeeeeeeeeeeeeeeeeeeeeeeeeeee",
                "decimals": 18
            }
        ]
    },
    "address_label": {
        "labels": [
            {
                "address": "0x808b4da0be6c9512e948521452227efc619bea52",
                "label": "BlockFi 5"
            },
            {
                "address": "0x0000000000000000000000000000000000000003",
                "label": "Precompiled"
            },
            {
                "address": "0xeeeeeeeeeeeeeeeeeeeeeeeeeeeeeeeeeeeeeeee",
                "label": "Ether"
            },
            {
                "address": "0x6b691c3eefc1dffe62c4dde69a5aeb60147723a8",
                "label": "KUCOIN"
            },
            {
                "address": "0xb7277a6e95992041568d9391d09d0122023778a2",
                "label": "FiatTokenV2"
            },
            {
                "address": "0xa0b86991c6218b36c1d19d4a2e9eb0ce3606eb48",
                "label": "Circle: USDC Token"
            },
            {
                "address": "0x0000000000000000000000000000000000000001",
                "label": "Precompiled"
            },
            {
                "address": "0x0000000000000000000000000000000000000002",
                "label": "Precompiled"
            },
            {
                "address": "0x0000000000000000000000000000000000000004",
                "label": "Precompiled"
            }
        ]
    },
    "trace": {
        "accountLabels": null,
        "dataMap": {
            "-1": {
                "invocation": {
                    "address": "0x808b4da0be6c9512e948521452227efc619bea52",
                    "callData": "",
                    "decodedMethod": null,
                    "errorInfo": "",
                    "fromAddress": "",
                    "gasUsed": 0,
                    "id": -1,
                    "methodDecoded": false,
                    "operation": "",
                    "output": "",
                    "revert": false,
                    "revertMessage": "",
                    "selector": "",
                    "status": false,
                    "value": ""
                },
                "nodeType": 0
            },
            "0": {
                "invocation": {
                    "address": "0x26d37f2d8d9703255cd79a383c3f80b528b2342c",
                    "callData": "0x0000000000000000000000006b691c3eefc1dffe62c4dde69a5aeb60147723a80000000000000000000000000000000000000000000000000000000005f5e100000000000000000000000000a0b86991c6218b36c1d19d4a2e9eb0ce3606eb48000000000000000000000000000000000000000000000000000000005fad694b000000000000000000000000000000000000000000000000000000000000342c00000000000000000000000000000000000000000000000000000000000000c0000000000000000000000000000000000000000000000000000000000000004196387fce41021a47a4debc724c640848692afb93a09785d804fc077c072f0d31305c54747ef97702b9e9594fea5b38b740604a8e0cd195cf0681772b873c1bbd1c00000000000000000000000000000000000000000000000000000000000000",
                    "decodedMethod": {
                        "callParams": [
                            {
                                "name": "toAddress",
                                "type": "address",
                                "value": "0x6b691c3eefc1dffe62c4dde69a5aeb60147723a8"
                            },
                            {
                                "name": "value",
                                "type": "uint256",
                                "value": "100,000,000"
                            },
                            {
                                "name": "tokenContractAddress",
                                "type": "address",
                                "value": "0xa0b86991c6218b36c1d19d4a2e9eb0ce3606eb48"
                            },
                            {
                                "name": "expireTime",
                                "type": "uint256",
                                "value": "1,605,200,203"
                            },
                            {
                                "name": "sequenceId",
                                "type": "uint256",
                                "value": "13,356"
                            },
                            {
                                "name": "signature",
                                "type": "bytes",
                                "value": "0x96387fce41021a47a4debc724c640848692afb93a09785d804fc077c072f0d31305c54747ef97702b9e9594fea5b38b740604a8e0cd195cf0681772b873c1bbd1c"
                            }
                        ],
                        "constructorArguments": "",
                        "name": "sendMultiSigToken",
                        "returnParams": [],
                        "signature": "sendMultiSigToken(address,uint256,address,uint256,uint256,bytes)"
                    },
                    "errorInfo": "",
                    "fromAddress": "0x808b4da0be6c9512e948521452227efc619bea52",
                    "gasUsed": 119277,
                    "id": 0,
                    "methodDecoded": true,
                    "operation": "CALL",
                    "output": "",
                    "revert": false,
                    "revertMessage": "",
                    "selector": "0x0dcd7a6c",
                    "status": true,
                    "value": "0"
                },
                "nodeType": 0
            },
            "1": {
                "invocation": {
                    "address": "0x0000000000000000000000000000000000000001",
                    "callData": "0xb1121d80bc6ff71957faa8145350f33f10e4dd36669858fe0b2ab19d000000000000000000000000000000000000000000000000000000000000001c96387fce41021a47a4debc724c640848692afb93a09785d804fc077c072f0d31305c54747ef97702b9e9594fea5b38b740604a8e0cd195cf0681772b873c1bbd",
                    "decodedMethod": {
                        "callParams": [
                            {
                                "name": "hash",
                                "type": "bytes32",
                                "value": "0xc9b190a5b1121d80bc6ff71957faa8145350f33f10e4dd36669858fe0b2ab19d"
                            },
                            {
                                "name": "v",
                                "type": "uint256",
                                "value": "28"
                            },
                            {
                                "name": "r",
                                "type": "bytes32",
                                "value": "0x96387fce41021a47a4debc724c640848692afb93a09785d804fc077c072f0d31"
                            },
                            {
                                "name": "s",
                                "type": "bytes32",
                                "value": "0x305c54747ef97702b9e9594fea5b38b740604a8e0cd195cf0681772b873c1bbd"
                            }
                        ],
                        "constructorArguments": "",
                        "name": "ecrecover",
                        "returnParams": [
                            {
                                "name": "",
                                "type": "address",
                                "value": "0x914b80737125e5a66bc1589af432101515b4bad8"
                            }
                        ],
                        "signature": "ecrecover(bytes32,uint256,bytes32,bytes32)"
                    },
                    "errorInfo": "",
                    "fromAddress": "0x26d37f2d8d9703255cd79a383c3f80b528b2342c",
                    "gasUsed": 3000,
                    "id": 1,
                    "methodDecoded": true,
                    "operation": "CALL",
                    "output": "0x000000000000000000000000914b80737125e5a66bc1589af432101515b4bad8",
                    "revert": false,
                    "revertMessage": "",
                    "selector": "0xc9b190a5",
                    "status": true,
                    "value": "0"
                },
                "nodeType": 0
            },
            "2": {
                "invocation": {
                    "address": "0xa0b86991c6218b36c1d19d4a2e9eb0ce3606eb48",
                    "callData": "0x0000000000000000000000006b691c3eefc1dffe62c4dde69a5aeb60147723a80000000000000000000000000000000000000000000000000000000005f5e100",
                    "decodedMethod": {
                        "callParams": [
                            {
                                "name": "to",
                                "type": "address",
                                "value": "0x6b691c3eefc1dffe62c4dde69a5aeb60147723a8"
                            },
                            {
                                "decimalAvailable": true,
                                "name": "value",
                                "type": "uint256",
                                "value": "100,000,000"
                            }
                        ],
                        "constructorArguments": "",
                        "name": "transfer",
                        "returnParams": [
                            {
                                "name": "",
                                "type": "bool",
                                "value": true
                            }
                        ],
                        "signature": "transfer(address,uint256)"
                    },
                    "errorInfo": "",
                    "fromAddress": "0x26d37f2d8d9703255cd79a383c3f80b528b2342c",
                    "gasUsed": 35773,
                    "id": 2,
                    "methodDecoded": true,
                    "operation": "CALL",
                    "output": "0x0000000000000000000000000000000000000000000000000000000000000001",
                    "revert": false,
                    "revertMessage": "",
                    "selector": "0xa9059cbb",
                    "status": true,
                    "value": "0"
                },
                "nodeType": 0
            },
            "3": {
                "invocation": {
                    "address": "0xb7277a6e95992041568d9391d09d0122023778a2",
                    "callData": "0x0000000000000000000000006b691c3eefc1dffe62c4dde69a5aeb60147723a80000000000000000000000000000000000000000000000000000000005f5e100",
                    "decodedMethod": {
                        "callParams": [
                            {
                                "name": "to",
                                "type": "address",
                                "value": "0x6b691c3eefc1dffe62c4dde69a5aeb60147723a8"
                            },
                            {
                                "decimalAvailable": true,
                                "name": "value",
                                "type": "uint256",
                                "value": "100,000,000"
                            }
                        ],
                        "constructorArguments": "",
                        "name": "transfer",
                        "returnParams": [
                            {
                                "name": "",
                                "type": "bool",
                                "value": true
                            }
                        ],
                        "signature": "transfer(address,uint256)"
                    },
                    "errorInfo": "",
                    "fromAddress": "0xa0b86991c6218b36c1d19d4a2e9eb0ce3606eb48",
                    "gasUsed": 32984,
                    "id": 3,
                    "methodDecoded": true,
                    "operation": "DELEGATECALL",
                    "output": "0x0000000000000000000000000000000000000000000000000000000000000001",
                    "revert": false,
                    "revertMessage": "",
                    "selector": "0xa9059cbb",
                    "status": true,
                    "value": "0"
                },
                "nodeType": 0
            },
            "4": {
                "event": {
                    "contract": "0xa0b86991c6218b36c1d19d4a2e9eb0ce3606eb48",
                    "decodedLog": {
                        "name": "Transfer",
                        "params": [
                            {
                                "name": "from",
                                "type": "address",
                                "value": "0x26d37f2d8d9703255cd79a383c3f80b528b2342c"
                            },
                            {
                                "name": "to",
                                "type": "address",
                                "value": "0x6b691c3eefc1dffe62c4dde69a5aeb60147723a8"
                            },
                            {
                                "decimalAvailable": true,
                                "name": "value",
                                "type": "uint256",
                                "value": "100,000,000"
                            }
                        ],
                        "signature": "Transfer(address,address,uint256)"
                    },
                    "id": 4,
                    "logData": "0x0000000000000000000000000000000000000000000000000000000005f5e100",
                    "logDecoded": true,
                    "operation": "EVENT",
                    "revert": false,
                    "status": true,
                    "topics": [
                        "0xddf252ad1be2c89b69c2b068fc378daa952ba7f163c4a11628f55a4df523b3ef",
                        "0x00000000000000000000000026d37f2d8d9703255cd79a383c3f80b528b2342c",
                        "0x0000000000000000000000006b691c3eefc1dffe62c4dde69a5aeb60147723a8"
                    ]
                },
                "nodeType": 1
            }
        },
        "gasFlame": [
            {
                "children": [
                    {
                        "children": [
                            {
                                "children": [],
                                "depth": 0,
                                "name": "Initial Gas",
                                "value": 23736
                            },
                            {
                                "children": [
                                    {
                                        "children": [],
                                        "depth": 1,
                                        "name": "ecrecover",
                                        "value": 3000
                                    },
                                    {
                                        "children": [
                                            {
                                                "children": [],
                                                "depth": 2,
                                                "name": "transfer",
                                                "value": 32984
                                            }
                                        ],
                                        "depth": 1,
                                        "name": "transfer",
                                        "value": 35773
                                    }
                                ],
                                "depth": 0,
                                "name": "Executed Gas",
                                "value": 95541
                            }
                        ],
                        "depth": -1,
                        "name": "Actual Gas Used",
                        "value": 119277
                    },
                    {
                        "children": [],
                        "depth": -1,
                        "name": "Refunded Gas",
                        "value": 0
                    }
                ],
                "depth": -2,
                "name": "Total Gas",
                "value": 119277
            }
        ],
        "isConfirmed": true,
        "mainTrace": [
            {
                "children": [
                    {
                        "children": [
                            {
                                "children": [],
                                "depth": 1,
                                "id": 1,
                                "order": 1
                            },
                            {
                                "children": [
                                    {
                                        "children": [
                                            {
                                                "children": [],
                                                "depth": 3,
                                                "id": 4,
                                                "order": 4
                                            }
                                        ],
                                        "depth": 2,
                                        "id": 3,
                                        "order": 3
                                    }
                                ],
                                "depth": 1,
                                "id": 2,
                                "order": 2
                            }
                        ],
                        "depth": 0,
                        "id": 0,
                        "order": 0
                    }
                ],
                "depth": -1,
                "id": -1,
                "order": -1
            }
        ],
        "mainTraceNodeCount": 5,
        "parentIdMap": {
            "0": -1,
            "1": 0,
            "2": 0,
            "3": 2,
            "4": 3
        },
        "tidyTrace": [
            {
                "children": [
                    {
                        "children": [
                            {
                                "children": [],
                                "depth": 1,
                                "id": 1,
                                "order": 1
                            },
                            {
                                "children": [
                                    {
                                        "children": [
                                            {
                                                "children": [],
                                                "depth": 3,
                                                "id": 4,
                                                "order": 4
                                            }
                                        ],
                                        "depth": 2,
                                        "id": 3,
                                        "order": 3
                                    }
                                ],
                                "depth": 1,
                                "id": 2,
                                "order": 2
                            }
                        ],
                        "depth": 0,
                        "id": 0,
                        "order": 0
                    }
                ],
                "depth": -1,
                "id": -1,
                "order": -1
            }
        ],
        "tidyTraceNodeCount": 5
    },
    "state_change": {
        "stateChanges": [
            {
                "address": "0x26d37f2d8d9703255cd79a383c3f80b528b2342c",
                "erc": "",
                "slots": [
                    {
                        "current": "0x000000000000000000000000000000000000000000000000000000000000342c",
                        "key": "0x0000000000000000000000000000000000000000000000000000000000000002",
                        "prev": "0x0000000000000000000000000000000000000000000000000000000000003422"
                    }
                ],
                "storageVariables": []
            },
            {
                "address": "0xa0b86991c6218b36c1d19d4a2e9eb0ce3606eb48",
                "erc": "ERC-20",
                "slots": [
                    {
                        "current": "0x0000000000000000000000000000000000000000000000000000000021725362",
                        "key": "0x2b34c195ff515c49b73bf4ec5c7638f539c8d8123ba8e817469a34c18aff1d3b",
                        "prev": "0x0000000000000000000000000000000000000000000000000000000027683462"
                    },
                    {
                        "current": "0x0000000000000000000000000000000000000000000000000000000005f5e100",
                        "key": "0x27973d5e97b18f461edfdeef51b580b8f1d1f7a4ce4dd60410449e8da2144a54",
                        "prev": "0x0000000000000000000000000000000000000000000000000000000000000000"
                    }
                ],
                "storageVariables": [
                    {
                        "name": "balances",
                        "type": "mapping(address => uint256)",
                        "value": {
                            "pairs": [
                                {
                                    "key": "0x26d37f2d8d9703255cd79a383c3f80b528b2342c",
                                    "value": {
                                        "current": "561140578",
                                        "prev": "661140578",
                                        "typeTag": 1
                                    }
                                },
                                {
                                    "key": "0x6b691c3eefc1dffe62c4dde69a5aeb60147723a8",
                                    "value": {
                                        "current": "100000000",
                                        "prev": "0",
                                        "typeTag": 1
                                    }
                                }
                            ],
                            "typeTag": 4
                        }
                    }
                ]
            }
        ]
    }
}