{
    "balance_change": {
        "balanceChanges": [
            {
                "account": "0x8a91c9a16cd62693649d80afa85a09dbbdcb8508",
                "assets": [
                    {
                        "address": "0x8e870d67f660d95d5be530380d0ec0bd388289e1",
                        "amount": "50",
                        "iconUrl": "https://assets.blocksec.com/icon/df4a16322c8ca2faeeb21a6d029f24de2efeb58e57edadd9ecbfa6a35afa986d.png",
                        "isERC1155": false,
                        "isERC721": false,
                        "sign": true,
                        "value": ""
                    }
                ]
            },
            {
                "account": "0x2289ac26577845d26cc3a899eca4ea0b1239f30c",
                "assets": [
                    {
                        "address": "0x8e870d67f660d95d5be530380d0ec0bd388289e1",
                        "amount": "50",
                        "iconUrl": "https://assets.blocksec.com/icon/df4a16322c8ca2faeeb21a6d029f24de2efeb58e57edadd9ecbfa6a35afa986d.png",
                        "isERC1155": false,
                        "isERC721": false,
                        "sign": false,
                        "value": ""
                    }
                ]
            }
        ]
    },
    "profile": {
        "basic_info": {
            "baseFee": "",
            "blockNumber": 9909871,
            "callData": "0xae8123ba00000000000000000000000000000000000000000000000000000004c6737d71",
            "debugEnable": true,
            "errorInfo": "",
            "eventCount": 3,
            "feeRecipient": "0x829bd824b016326a401d083b33d092293333a830",
            "formatValue": "0",
            "gasLimit": 503554,
            "gasPrice": "10",
            "gasUsed": 284735,
            "intTxnCount": 5,
            "internalRevert": false,
            "internalRevertMessage": "",
            "isContractCreation": false,
            "isFlashloan": false,
            "maxFee": "",
            "nonce": 209051,
            "overwritedBlockNumber": -1,
            "priorityFee": "",
            "receiver": "0x8a91c9a16cd62693649d80afa85a09dbbdcb8508",
            "revertMessage": "",
            "sender": "0xbe65072aae7ca8d43615d4caaeed8764f5208e61",
            "simulationEnable": true,
            "sourceTxnHash": "0x28f647879243b5d9b3872583010d66c3d33ba1ff0c518e5f56ac7c1510ad6478",
            "status": true,
            "timestamp": "2020-04-20T14:37:42Z",
            "transactionFee": "0.00284735",
            "txnHash": "0x28f647879243b5d9b3872583010d66c3d33ba1ff0c518e5f56ac7c1510ad6478",
            "txnIndex": 24,
            "type": 0,
            "value": "0"
        },
        "fund_flow": [
            {
                "amount": "50",
                "from": "0x2289ac26577845d26cc3a899eca4ea0b1239f30c",
                "id": 1,
                "isERC1155": false,
                "isERC721": false,
                "isReverted": false,
                "order": 1,
                "to": "0x8a91c9a16cd62693649d80afa85a09dbbdcb8508",
                "token": "0x8e870d67f660d95d5be530380d0ec0bd388289e1"
            }
        ],
        "token_infos": [
            {
                "address": "0x8e870d67f660d95d5be530380d0ec0bd388289e1",
                "decimals": 18
            },
            {
                "address": "0xc02aaa39b223fe8d0a0e5c4f27ead9083c756cc2",
                "decimals": 18
            },
            {
                "address": "0xeeeeeeeeeeeeeeeeeeeeeeeeeeeeeeeeeeeeeeee",
                "decimals": 18
            }
        ]
    },
    "address_label": {
        "labels": [
            {
                "address": "0xeeeeeeeeeeeeeeeeeeeeeeeeeeeeeeeeeeeeeeee",
                "label": "Ether"
            },
            {
                "address": "0x8a91c9a16cd62693649d80afa85a09dbbdcb8508",
                "label": "MMM BSC"
            },
            {
                "address": "0x8e870d67f660d95d5be530380d0ec0bd388289e1",
                "label": "Paxos: USDP Token"
            },
            {
                "address": "0x86eee0422322710866af89e9cae3f7383d55310a",
                "label": "Paxos Standard (PAX)"
            },
            {
                "address": "0x0000000000000000000000000000000000000001",
                "label": "Precompiled"
            },
            {
                "address": "0x0000000000000000000000000000000000000002",
                "label": "Precompiled"
            },
            {
                "address": "0x0000000000000000000000000000000000000003",
                "label": "Precompiled"
            },
            {
                "address": "0x0000000000000000000000000000000000000004",
                "label": "Precompiled"
            }
        ]
    },
    "trace": {
        "accountLabels": null,
        "dataMap": {
            "-1": {
                "invocation": {
                    "address": "0xbe65072aae7ca8d43615d4caaeed8764f5208e61",
                    "callData": "",
                    "decodedMethod": null,
                    "errorInfo": "",
                    "fromAddress": "",
                    "gasUsed": 0,
                    "id": -1,
                    "methodDecoded": false,
                    "operation": "",
                    "output": "",
                    "revert": false,
                    "revertMessage": "",
                    "selector": "",
                    "status": false,
                    "value": ""
                },
                "nodeType": 0
            },
            "0": {
                "invocation": {
                    "address": "0x8a91c9a16cd62693649d80afa85a09dbbdcb8508",
                    "callData": "0x00000000000000000000000000000000000000000000000000000004c6737d71",
                    "decodedMethod": null,
                    "errorInfo": "",
                    "fromAddress": "0xbe65072aae7ca8d43615d4caaeed8764f5208e61",
                    "gasUsed": 284735,
                    "id": 0,
                    "methodDecoded": false,
                    "operation": "CALL",
                    "output": "",
                    "revert": false,
                    "revertMessage": "",
                    "selector": "0xae8123ba",
                    "status": true,
                    "value": "0"
                },
                "nodeType": 0
            },
            "1": {
                "invocation": {
                    "address": "0x8e870d67f660d95d5be530380d0ec0bd388289e1",
                    "callData": "0x0000000000000000000000002289ac26577845d26cc3a899eca4ea0b1239f30c",
                    "decodedMethod": {
                        "callParams": [
                            {
                                "name": "_addr",
                                "type": "address",
                                "value": "0x2289ac26577845d26cc3a899eca4ea0b1239f30c"
                            }
                        ],
                        "constructorArguments": "",
                        "name": "balanceOf",
                        "returnParams": [
                            {
                                "decimalAvailable": true,
                                "name": "",
                                "type": "uint256",
                                "value": "50,000,000,000,000,000,000"
                            }
                        ],
                        "signature": "balanceOf(address)"
                    },
                    "errorInfo": "",
                    "fromAddress": "0x8a91c9a16cd62693649d80afa85a09dbbdcb8508",
                    "gasUsed": 4337,
                    "id": 1,
                    "methodDecoded": true,
                    "operation": "CALL",
                    "output": "0x000000000000000000000000000000000000000000000002b5e3af16b1880000",
                    "revert": false,
                    "revertMessage": "",
                    "selector": "0x70a08231",
                    "status": true,
                    "value": "0"
                },
                "nodeType": 0
            },
            "2": {
                "invocation": {
                    "address": "0x86eee0422322710866af89e9cae3f7383d55310a",
                    "callData": "0x0000000000000000000000002289ac26577845d26cc3a899eca4ea0b1239f30c",
                    "decodedMethod": {
                        "callParams": [
                            {
                                "name": "_addr",
                                "type": "address",
                                "value": "0x2289ac26577845d26cc3a899eca4ea0b1239f30c"
                            }
                        ],
                        "constructorArguments": "",
                        "name": "balanceOf",
                        "returnParams": [
                            {
                                "decimalAvailable": true,
                                "name": "",
                                "type": "uint256",
                                "value": "50,000,000,000,000,000,000"
                            }
                        ],
                        "signature": "balanceOf(address)"
                    },
                    "errorInfo": "",
                    "fromAddress": "0x8e870d67f660d95d5be530380d0ec0bd388289e1",
                    "gasUsed": 1558,
                    "id": 2,
                    "methodDecoded": true,
                    "operation": "DELEGATECALL",
                    "output": "0x000000000000000000000000000000000000000000000002b5e3af16b1880000",
                    "revert": false,
                    "revertMessage": "",
                    "selector": "0x70a08231",
                    "status": true,
                    "value": "0"
                },
                "nodeType": 0
            },
            "3": {
                "invocation": {
                    "address": "0x8e870d67f660d95d5be530380d0ec0bd388289e1",
                    "callData": "0x0000000000000000000000002289ac26577845d26cc3a899eca4ea0b1239f30c0000000000000000000000008a91c9a16cd62693649d80afa85a09dbbdcb8508000000000000000000000000000000000000000000000002b5e3af16b1880000",
                    "decodedMethod": {
                        "callParams": [
                            {
                                "name": "_from",
                                "type": "address",
                                "value": "0x2289ac26577845d26cc3a899eca4ea0b1239f30c"
                            },
                            {
                                "name": "_to",
                                "type": "address",
                                "value": "0x8a91c9a16cd62693649d80afa85a09dbbdcb8508"
                            },
                            {
                                "decimalAvailable": true,
                                "name": "_value",
                                "type": "uint256",
                                "value": "50,000,000,000,000,000,000"
                            }
                        ],
                        "constructorArguments": "",
                        "name": "transferFrom",
                        "returnParams": [
                            {
                                "name": "",
                                "type": "bool",
                                "value": true
                            }
                        ],
                        "signature": "transferFrom(address,address,uint256)"
                    },
                    "errorInfo": "",
                    "fromAddress": "0x8a91c9a16cd62693649d80afa85a09dbbdcb8508",
                    "gasUsed": 29542,
                    "id": 3,
                    "methodDecoded": true,
                    "operation": "CALL",
                    "output": "0x0000000000000000000000000000000000000000000000000000000000000001",
                    "revert": false,
                    "revertMessage": "",
                    "selector": "0x23b872dd",
                    "status": true,
                    "value": "0"
                },
                "nodeType": 0
            },
            "4": {
                "invocation": {
                    "address": "0x86eee0422322710866af89e9cae3f7383d55310a",
                    "callData": "0x0000000000000000000000002289ac26577845d26cc3a899eca4ea0b1239f30c0000000000000000000000008a91c9a16cd62693649d80afa85a09dbbdcb8508000000000000000000000000000000000000000000000002b5e3af16b1880000",
                    "decodedMethod": {
                        "callParams": [
                            {
                                "name": "_from",
                                "type": "address",
                                "value": "0x2289ac26577845d26cc3a899eca4ea0b1239f30c"
                            },
                            {
                                "name": "_to",
                                "type": "address",
                                "value": "0x8a91c9a16cd62693649d80afa85a09dbbdcb8508"
                            },
                            {
                                "decimalAvailable": true,
                                "name": "_value",
                                "type": "uint256",
                                "value": "50,000,000,000,000,000,000"
                            }
                        ],
                        "constructorArguments": "",
                        "name": "transferFrom",
                        "returnParams": [
                            {
                                "name": "",
                                "type": "bool",
                                "value": true
                            }
                        ],
                        "signature": "transferFrom(address,address,uint256)"
                    },
                    "errorInfo": "",
                    "fromAddress": "0x8e870d67f660d95d5be530380d0ec0bd388289e1",
                    "gasUsed": 26754,
                    "id": 4,
                    "methodDecoded": true,
                    "operation": "DELEGATECALL",
                    "output": "0x0000000000000000000000000000000000000000000000000000000000000001",
                    "revert": false,
                    "revertMessage": "",
                    "selector": "0x23b872dd",
                    "status": true,
                    "value": "0"
                },
                "nodeType": 0
            },
            "5": {
                "event": {
                    "contract": "0x8e870d67f660d95d5be530380d0ec0bd388289e1",
                    "decodedLog": {
                        "name": "Transfer",
                        "params": [
                            {
                                "name": "from",
                                "type": "address",
                                "value": "0x2289ac26577845d26cc3a899eca4ea0b1239f30c"
                            },
                            {
                                "name": "to",
                                "type": "address",
                                "value": "0x8a91c9a16cd62693649d80afa85a09dbbdcb8508"
                            },
                            {
                                "decimalAvailable": true,
                                "name": "value",
                                "type": "uint256",
                                "value": "50,000,000,000,000,000,000"
                            }
                        ],
                        "signature": "Transfer(address,address,uint256)"
                    },
                    "id": 5,
                    "logData": "0x000000000000000000000000000000000000000000000002b5e3af16b1880000",
                    "logDecoded": true,
                    "operation": "EVENT",
                    "revert": false,
                    "status": true,
                    "topics": [
                        "0xddf252ad1be2c89b69c2b068fc378daa952ba7f163c4a11628f55a4df523b3ef",
                        "0x0000000000000000000000002289ac26577845d26cc3a899eca4ea0b1239f30c",
                        "0x0000000000000000000000008a91c9a16cd62693649d80afa85a09dbbdcb8508"
                    ]
                },
                "nodeType": 1
            },
            "6": {
                "event": {
                    "contract": "0x8a91c9a16cd62693649d80afa85a09dbbdcb8508",
                    "decodedLog": null,
                    "id": 6,
                    "logData": "0x0000000000000000000000000000000000000000000000000000000000000001000000000000000000000000dd63e4bcb670a336fa131fa1d822d242a9f5d611000000000000000000000000000000000000000000000000000000000000000200000000000000000000000000000000000000000000000000000004c6737d71000000000000000000000000000000000000000000000002b5e3af16b1880000000000000000000000000000000000000000000000000000000000005e9db3b6",
                    "logDecoded": false,
                    "operation": "EVENT",
                    "revert": false,
                    "status": true,
                    "topics": [
                        "0x3be1a4b332d68eecc10d6ef2956ae149fa02f86910a3591609219ea1adbdd94f"
                    ]
                },
                "nodeType": 1
            },
            "7": {
                "event": {
                    "contract": "0x8a91c9a16cd62693649d80afa85a09dbbdcb8508",
                    "decodedLog": null,
                    "id": 7,
                    "logData": "0x0000000000000000000000000000000000000000000000000000000000000001000000000000000000000000dd63e4bcb670a336fa131fa1d822d242a9f5d611000000000000000000000000000000000000000000000002b5e3af16b188000000000000000000000000000000000000000000000000000000000004c6737d710000000000000000000000002289ac26577845d26cc3a899eca4ea0b1239f30c000000000000000000000000000000000000000000000000000000005e9db3b6000000000000000000000000000000000000000000000002b5e3af16b1880000",
                    "logDecoded": false,
                    "operation": "EVENT",
                    "revert": false,
                    "status": true,
                    "topics": [
                        "0x06643dfdd56984ca5faeeeb2c91ee2b0b2e5098540d72d659dbe01a8f52a3a1d"
                    ]
                },
                "nodeType": 1
            },
            "8": {
                "invocation": {
                    "address": "0x1149cd70ae511fc600fb7143ac2f037ac5a4c748",
                    "callData": "0x00000000000000000000000000000000000000000000000000000004c6737d71000000000000000000000000dd63e4bcb670a336fa131fa1d822d242a9f5d6110000000000000000000000000000000000000000000000056bc75e2d6310000000000000000000000000000000000000000000000000000000000000000000010000000000000000000000000000000000000000000000000000000000000000",
                    "decodedMethod": null,
                    "errorInfo": "",
                    "fromAddress": "0x8a91c9a16cd62693649d80afa85a09dbbdcb8508",
                    "gasUsed": 73845,
                    "id": 8,
                    "methodDecoded": false,
                    "operation": "CALL",
                    "output": "",
                    "revert": false,
                    "revertMessage": "",
                    "selector": "0xf1cdf662",
                    "status": true,
                    "value": "0"
                },
                "nodeType": 0
            }
        },
        "gasFlame": [
            {
                "children": [
                    {
                        "children": [
                            {
                                "children": [],
                                "depth": 0,
                                "name": "Initial Gas",
                                "value": 21252
                            },
                            {
                                "children": [
                                    {
                                        "children": [
                                            {
                                                "children": [],
                                                "depth": 2,
                                                "name": "balanceOf",
                                                "value": 1558
                                            }
                                        ],
                                        "depth": 1,
                                        "name": "balanceOf",
                                        "value": 4337
                                    },
                                    {
                                        "children": [
                                            {
                                                "children": [],
                                                "depth": 2,
                                                "name": "transferFrom",
                                                "value": 26754
                                            }
                                        ],
                                        "depth": 1,
                                        "name": "transferFrom",
                                        "value": 29542
                                    },
                                    {
                                        "children": [],
                                        "depth": 1,
                                        "name": "0xf1cdf662",
                                        "value": 73845
                                    }
                                ],
                                "depth": 0,
                                "name": "Executed Gas",
                                "value": 278483
                            }
                        ],
                        "depth": -1,
                        "name": "Actual Gas Used",
                        "value": 284735
                    },
                    {
                        "children": [],
                        "depth": -1,
                        "name": "Refunded Gas",
                        "value": 15000
                    }
                ],
                "depth": -2,
                "name": "Total Gas",
                "value": 299735
            }
        ],
        "isConfirmed": true,
        "mainTrace": [
            {
                "children": [
                    {
                        "children": [
                            {
                                "children": [
                                    {
                                        "children": [],
                                        "depth": 2,
                                        "id": 2,
                                        "order": 2
                                    }
                                ],
                                "depth": 1,
                                "id": 1,
                                "order": 1
                            },
                            {
                                "children": [
                                    {
                                        "children": [
                                            {
                                                "children": [],
                                                "depth": 3,
                                                "id": 5,
                                                "order": 5
                                            }
                                        ],
                                        "depth": 2,
                                        "id": 4,
                                        "order": 4
                                    }
                                ],
                                "depth": 1,
                                "id": 3,
                                "order": 3
                            },
                            {
                                "children": [],
                                "depth": 1,
                                "id": 6,
                                "order": 6
                            },
                            {
                                "children": [],
                                "depth": 1,
                                "id": 7,
                                "order": 7
                            },
                            {
                                "children": [],
                                "depth": 1,
                                "id": 8,
                                "order": 8
                            }
                        ],
                        "depth": 0,
                        "id": 0,
                        "order": 0
                    }
                ],
                "depth": -1,
                "id": -1,
                "order": -1
            }
        ],
        "mainTraceNodeCount": 9,
        "parentIdMap": {
            "0": -1,
            "1": 0,
            "2": 1,
            "3": 0,
            "4": 3,
            "5": 4,
            "6": 0,
            "7": 0,
            "8": 0
        },
        "tidyTrace": [
            {
                "children": [
                    {
                        "children": [
                            {
                                "children": [
                                    {
                                        "children": [],
                                        "depth": 2,
                                        "id": 2,
                                        "order": 2
                                    }
                                ],
                                "depth": 1,
                                "id": 1,
                                "order": 1
                            },
                            {
                                "children": [
                                    {
                                        "children": [
                                            {
                                                "children": [],
                                                "depth": 3,
                                                "id": 5,
                                                "order": 5
                                            }
                                        ],
                                        "depth": 2,
                                        "id": 4,
                                        "order": 4
                                    }
                                ],
                                "depth": 1,
                                "id": 3,
                                "order": 3
                            },
                            {
                                "children": [],
                                "depth": 1,
                                "id": 6,
                                "order": 6
                            },
                            {
                                "children": [],
                                "depth": 1,
                                "id": 7,
                                "order": 7
                            },
                            {
                                "children": [],
                                "depth": 1,
                                "id": 8,
                                "order": 8
                            }
                        ],
                        "depth": 0,
                        "id": 0,
                        "order": 0
                    }
                ],
                "depth": -1,
                "id": -1,
                "order": -1
            }
        ],
        "tidyTraceNodeCount": 9
    },
    "state_change": {
        "stateChanges": [
            {
                "address": "0x1149cd70ae511fc600fb7143ac2f037ac5a4c748",
                "erc": "",
                "slots": [
                    {
                        "current": "0x0000000000000000000000000000000000000000000000000000000000000003",
                        "key": "0x3b9cdb4292e88f081b58e4e6093a34f90ffe9c6e50088bfd5b55d8e1b16965df",
                        "prev": "0x0000000000000000000000000000000000000000000000000000000000000002"
                    },
                    {
                        "current": "0x00000000000000000000000000000000000000000000000000000004c6737d71",
                        "key": "0x0c4b95f2182929bd29af5f3d82eb81890f6f426e8564167c5e78049a9cae498d",
                        "prev": "0x0000000000000000000000000000000000000000000000000000000000000000"
                    },
                    {
                        "current": "0x000000000000000000000000dd63e4bcb670a336fa131fa1d822d242a9f5d611",
                        "key": "0xc32144fe5f0030901fb06f635efe803215fdc4a1bfb03ecf5b58f81c86bf867a",
                        "prev": "0x0000000000000000000000000000000000000000000000000000000000000000"
                    },
                    {
                        "current": "0x0000000000000000000000000000000000000000000000056bc75e2d63100000",
                        "key": "0xc32144fe5f0030901fb06f635efe803215fdc4a1bfb03ecf5b58f81c86bf867b",
                        "prev": "0x0000000000000000000000000000000000000000000000000000000000000000"
                    }
                ],
                "storageVariables": []
            },
            {
                "address": "0x8a91c9a16cd62693649d80afa85a09dbbdcb8508",
                "erc": "",
                "slots": [
                    {
                        "current": "0x0000000000000000000000000000000000000000000000000000000000022c0c",
                        "key": "0xbbc70db1b6c7afd11e79c0fb0051300458f1a3acb8ee9789d9b6b26c61ad9bc7",
                        "prev": "0x0000000000000000000000000000000000000000000000000000000000022c0b"
                    },
                    {
                        "current": "0x00000000000000000000000000000000000000000000000000000004c6737d71",
                        "key": "0xed65b032d5a5fa3a5b6544566ee46a0f6b8fe8b1375ec878dc3be6580b09b0a0",
                        "prev": "0x0000000000000000000000000000000000000000000000000000000000000000"
                    },
                    {
                        "current": "0x000000000000000000000000000000000000000000000000000000005e9db3b6",
                        "key": "0x4aa7e77c6d7e178a1898b3c54e1539fb97e5212f4ce10e9afd35b6377d22d457",
                        "prev": "0x0000000000000000000000000000000000000000000000000000000000000000"
                    },
                    {
                        "current": "0x0000000000000000000000000000000000000000000000000000000000000003",
                        "key": "0xe1588b8e7ea8e97985e52f4a2d54f57661f018c47c9113de2622c0902ccbeb44",
                        "prev": "0x0000000000000000000000000000000000000000000000000000000000000002"
                    },
                    {
                        "current": "0x000000000000000000000000000000000000000000000000000000000000bf15",
                        "key": "0x0000000000000000000000000000000000000000000000000000000000000010",
                        "prev": "0x000000000000000000000000000000000000000000000000000000000000bf14"
                    },
                    {
                        "current": "0x00000000000000000000000000000000000000000000000000000004c6737d71",
                        "key": "0x1b6847dc741a1b0cd08d278845f9d819d87b734759afb55fe2de5cb82a9ba586",
                        "prev": "0x0000000000000000000000000000000000000000000000000000000000000000"
                    },
                    {
                        "current": "0x0000000000000000000000000000000000000000000100a9a219f562f3fc0000",
                        "key": "0x0000000000000000000000000000000000000000000000000000000000000015",
                        "prev": "0x0000000000000000000000000000000000000000000100a6ec36464c42740000"
                    },
                    {
                        "current": "0x0000000000000000000000000000000000000000000000056bc75e2d63100000",
                        "key": "0x877fa1d21891f8decf63ca6403c1e7c06f1842c79b6d0ebf73d0e112cf0bc19f",
                        "prev": "0x0000000000000000000000000000000000000000000000000000000000000000"
                    },
                    {
                        "current": "0x000000000000000000000000000000000000000000000002b5e3af16b1880000",
                        "key": "0x4aa7e77c6d7e178a1898b3c54e1539fb97e5212f4ce10e9afd35b6377d22d455",
                        "prev": "0x0000000000000000000000000000000000000000000000000000000000000000"
                    }
                ],
                "storageVariables": []
            },
            {
                "address": "0x8e870d67f660d95d5be530380d0ec0bd388289e1",
                "erc": "ERC-20",
                "slots": [
                    {
                        "current": "0x0000000000000000000000000000000000000000000000000000000000000000",
                        "key": "0xf493f2cce6048f890d0ec6245f32433d24c7426fb30811fd3eca2a56b51d235c",
                        "prev": "0x000000000000000000000000000000000000000000000002b5e3af16b1880000"
                    },
                    {
                        "current": "0x000000000000000000000000000000000000000000047224495809939ee7e1df",
                        "key": "0xc41369a8315e4f894b3fc477f2c97907ac449c5925ec3e23848005e7123f385a",
                        "prev": "0x00000000000000000000000000000000000000000004722193745a7ced5fe1df"
                    },
                    {
                        "current": "0xfffffffffffffffffffffffffffffffffffffffffffffffd4a1c50e94e77ffff",
                        "key": "0x8a1b0e7e98d97d111946954ce137765c0d83b9cab144d097740936797854cccb",
                        "prev": "0xffffffffffffffffffffffffffffffffffffffffffffffffffffffffffffffff"
                    }
                ],
                "storageVariables": [
                    {
                        "name": "balances",
                        "type": "mapping(address => uint256)",
                        "value": {
                            "pairs": [
                                {
                                    "key": "0x2289ac26577845d26cc3a899eca4ea0b1239f30c",
                                    "value": {
                                        "current": "0",
                                        "prev": "50000000000000000000",
                                        "typeTag": 1
                                    }
                                },
                                {
                                    "key": "0x8a91c9a16cd62693649d80afa85a09dbbdcb8508",
                                    "value": {
                                        "current": "5374722425277002147160543",
                                        "prev": "5374672425277002147160543",
                                        "typeTag": 1
                                    }
                                }
                            ],
                            "typeTag": 4
                        }
                    },
                    {
                        "name": "allowed",
                        "type": "mapping(address => mapping(address => uint256))",
                        "value": {
                            "pairs": [
                                {
                                    "key": "0x2289ac26577845d26cc3a899eca4ea0b1239f30c",
                                    "value": {
                                        "pairs": [
                                            {
                                                "key": "0x8a91c9a16cd62693649d80afa85a09dbbdcb8508",
                                                "value": {
                                                    "current": "115792089237316195423570985008687907853269984665640564039407584007913129639935",
                                                    "prev": "115792089237316195423570985008687907853269984665640564039457584007913129639935",
                                                    "typeTag": 1
                                                }
                                            }
                                        ],
                                        "typeTag": 4
                                    }
                                }
                            ],
                            "typeTag": 4
                        }
                    }
                ]
            }
        ]
    }
}