{
    "balance_change": {
        "balanceChanges": [
            {
                "account": "0x59008991e837d699008ac3cf7cc68d40b845c94c",
                "assets": [
                    {
                        "address": "0xeeeeeeeeeeeeeeeeeeeeeeeeeeeeeeeeeeeeeeee",
                        "amount": "0.049",
                        "iconUrl": "https://assets.blocksec.com/image/1663669189317-3.png",
                        "isERC1155": false,
                        "isERC721": false,
                        "sign": false,
                        "value": "88.54721140300000161"
                    },
                    {
                        "address": "0x114dd039f2575468dfe8312e22b58aab9af8482b",
                        "amount": "1",
                        "iconUrl": "",
                        "isERC1155": false,
                        "isERC721": true,
                        "sign": true,
                        "tokenID": "493",
                        "value": ""
                    }
                ]
            },
            {
                "account": "0x5b3256965e7c3cf26e11fcaf296dfc8807c01073",
                "assets": [
                    {
                        "address": "0xeeeeeeeeeeeeeeeeeeeeeeeeeeeeeeeeeeeeeeee",
                        "amount": "0.004655",
                        "iconUrl": "https://assets.blocksec.com/image/1663669189317-3.png",
                        "isERC1155": false,
                        "isERC721": false,
                        "sign": true,
                        "value": "8.411985083285000153"
                    }
                ]
            },
            {
                "account": "0x688df5effba72c4adacce32ba08bcd448ab014cf",
                "assets": [
                    {
                        "address": "0xeeeeeeeeeeeeeeeeeeeeeeeeeeeeeeeeeeeeeeee",
                        "amount": "0.044345",
                        "iconUrl": "https://assets.blocksec.com/image/1663669189317-3.png",
                        "isERC1155": false,
                        "isERC721": false,
                        "sign": true,
                        "value": "80.13522631971500146"
                    },
                    {
                        "address": "0x114dd039f2575468dfe8312e22b58aab9af8482b",
                        "amount": "1",
                        "iconUrl": "",
                        "isERC1155": false,
                        "isERC721": true,
                        "sign": false,
                        "tokenID": "493",
                        "value": ""
                    }
                ]
            }
        ]
    },
    "profile": {
        "basic_info": {
            "baseFee": "89.116617026",
            "blockNumber": 14933661,
            "callData": "0xab834bab0000000000000000000000007f268357a8c2552623316e2562d90e642bb538e500000000000000000000000059008991e837d699008ac3cf7cc68d40b845c94c000000000000000000000000688df5effba72c4adacce32ba08bcd448ab014cf0000000000000000000000000000000000000000000000000000000000000000000000000000000000000000baf2127b49fc93cbca6269fade0f7f31df4c88a7000000000000000000000000000000000000000000000000000000000000000000000000000000000000000000000000000000000000000000000000000000000000000000000000000000007f268357a8c2552623316e2562d90e642bb538e5000000000000000000000000688df5effba72c4adacce32ba08bcd448ab014cf00000000000000000000000000000000000000000000000000000000000000000000000000000000000000005b3256965e7c3cf26e11fcaf296dfc8807c01073000000000000000000000000baf2127b49fc93cbca6269fade0f7f31df4c88a70000000000000000000000000000000000000000000000000000000000000000000000000000000000000000000000000000000000000000000000000000000000000000000000000000000000000000000000000000000000000000000003b600000000000000000000000000000000000000000000000000000000000000000000000000000000000000000000000000000000000000000000000000000000000000000000000000000000000000000000000000000000000000000000000000000000000000000000000000000000000000000000000000ae153d89fe800000000000000000000000000000000000000000000000000000000000000000000000000000000000000000000000000000000000000000000000000062a2253000000000000000000000000000000000000000000000000000000000000000001d87bab01222a06e81ef367680cb4ab2144625b228ff34d8010ab52fffb45ceb00000000000000000000000000000000000000000000000000000000000003b600000000000000000000000000000000000000000000000000000000000000000000000000000000000000000000000000000000000000000000000000000000000000000000000000000000000000000000000000000000000000000000000000000000000000000000000000000000000000000000000000ae153d89fe800000000000000000000000000000000000000000000000000000000000000000000000000000000000000000000000000000000000000000000000000062a1d6990000000000000000000000000000000000000000000000000000000062c963aa0a523c79a3f9ee0b624cd2b0070594f4f0c8b1e42cded8a9eb6827f086bd99630000000000000000000000000000000000000000000000000000000000000001000000000000000000000000000000000000000000000000000000000000000000000000000000000000000000000000000000000000000000000000000000000000000000000000000000000000000000000000000000000000000000000001000000000000000000000000000000000000000000000000000000000000000100000000000000000000000000000000000000000000000000000000000000010000000000000000000000000000000000000000000000000000000000000000000000000000000000000000000000000000000000000000000000000000000100000000000000000000000000000000000000000000000000000000000006a000000000000000000000000000000000000000000000000000000000000007c000000000000000000000000000000000000000000000000000000000000008e00000000000000000000000000000000000000000000000000000000000000a000000000000000000000000000000000000000000000000000000000000000b200000000000000000000000000000000000000000000000000000000000000b20000000000000000000000000000000000000000000000000000000000000001c000000000000000000000000000000000000000000000000000000000000001c6c2359b1b8773b054f5286afd880cdde4055902ca14931530873691b4dda21fb045307a01ece35a45a4ba01306e53c9850c594d1718196d462c34ad6f98e29df6c2359b1b8773b054f5286afd880cdde4055902ca14931530873691b4dda21fb045307a01ece35a45a4ba01306e53c9850c594d1718196d462c34ad6f98e29df000000000000000000000000000000000000000000000000000000000000000000000000000000000000000000000000000000000000000000000000000000e4fb16a595000000000000000000000000000000000000000000000000000000000000000000000000000000000000000059008991e837d699008ac3cf7cc68d40b845c94c000000000000000000000000114dd039f2575468dfe8312e22b58aab9af8482b00000000000000000000000000000000000000000000000000000000000001ed000000000000000000000000000000000000000000000000000000000000000000000000000000000000000000000000000000000000000000000000000000c000000000000000000000000000000000000000000000000000000000000000000000000000000000000000000000000000000000000000000000000000000000000000000000000000000000000000000000000000000000000000e4fb16a595000000000000000000000000688df5effba72c4adacce32ba08bcd448ab014cf0000000000000000000000000000000000000000000000000000000000000000000000000000000000000000114dd039f2575468dfe8312e22b58aab9af8482b00000000000000000000000000000000000000000000000000000000000001ed000000000000000000000000000000000000000000000000000000000000000000000000000000000000000000000000000000000000000000000000000000c000000000000000000000000000000000000000000000000000000000000000000000000000000000000000000000000000000000000000000000000000000000000000000000000000000000000000000000000000000000000000e400000000ffffffffffffffffffffffffffffffffffffffffffffffffffffffffffffffff0000000000000000000000000000000000000000000000000000000000000000000000000000000000000000000000000000000000000000000000000000000000000000000000000000000000000000000000000000000000000000000000000000000000000000000000000000000000000000000000000000000000000000000000000000000000000000000000000000000000000000000000000000000000000000000000000000000000000000000000000000000000000000000000000000000000000000000000000000000000000000000000000000000000000000000000000000000000000000000000000000000000000000000000e4000000000000000000000000000000000000000000000000000000000000000000000000ffffffffffffffffffffffffffffffffffffffffffffffffffffffffffffffff00000000000000000000000000000000000000000000000000000000000000000000000000000000000000000000000000000000000000000000000000000000000000000000000000000000000000000000000000000000000000000000000000000000000000000000000000000000000000000000000000000000000000000000000000000000000000000000000000000000000000000000000000000000000000000000000000000000000000000000000000000000000000000000000000000000000000000000000000000000000000000000000000000000",
            "debugEnable": true,
            "errorInfo": "",
            "eventCount": 2,
            "feeRecipient": "0xea674fdde714fd979de3edf0f56aa9716b898ec8",
            "formatValue": "0.049",
            "gasLimit": 275429,
            "gasPrice": "90.442017026",
            "gasUsed": 202127,
            "intTxnCount": 11,
            "internalRevert": false,
            "internalRevertMessage": "",
            "isContractCreation": false,
            "isFlashloan": false,
            "maxFee": "114.73928471",
            "nonce": 0,
            "overwritedBlockNumber": -1,
            "priorityFee": "1.3254",
            "receiver": "0x7f268357a8c2552623316e2562d90e642bb538e5",
            "revertMessage": "",
            "sender": "0x59008991e837d699008ac3cf7cc68d40b845c94c",
            "simulationEnable": true,
            "sourceTxnHash": "0x28d004a300d47934c448ac9fa71c6a3150f05bcfc9af5e7e73a8c079bcd59043",
            "status": true,
            "timestamp": "2022-06-09T16:56:12Z",
            "transactionFee": "0.018280773575414302",
            "txnHash": "0x28d004a300d47934c448ac9fa71c6a3150f05bcfc9af5e7e73a8c079bcd59043",
            "txnIndex": 42,
            "type": 2,
            "value": "49000000000000000"
        },
        "fund_flow": [
            {
                "amount": "0.049",
                "from": "0x59008991e837d699008ac3cf7cc68d40b845c94c",
                "id": 1,
                "isERC1155": false,
                "isERC721": false,
                "isReverted": false,
                "order": 1,
                "to": "0x7f268357a8c2552623316e2562d90e642bb538e5",
                "token": "0xeeeeeeeeeeeeeeeeeeeeeeeeeeeeeeeeeeeeeeee"
            },
            {
                "amount": "0.004655",
                "from": "0x7f268357a8c2552623316e2562d90e642bb538e5",
                "id": 2,
                "isERC1155": false,
                "isERC721": false,
                "isReverted": false,
                "order": 2,
                "to": "0x5b3256965e7c3cf26e11fcaf296dfc8807c01073",
                "token": "0xeeeeeeeeeeeeeeeeeeeeeeeeeeeeeeeeeeeeeeee"
            },
            {
                "amount": "0.044345",
                "from": "0x7f268357a8c2552623316e2562d90e642bb538e5",
                "id": 3,
                "isERC1155": false,
                "isERC721": false,
                "isReverted": false,
                "order": 3,
                "to": "0x688df5effba72c4adacce32ba08bcd448ab014cf",
                "token": "0xeeeeeeeeeeeeeeeeeeeeeeeeeeeeeeeeeeeeeeee"
            },
            {
                "amount": "1",
                "from": "0x688df5effba72c4adacce32ba08bcd448ab014cf",
                "id": 4,
                "isERC1155": false,
                "isERC721": true,
                "isReverted": false,
                "order": 4,
                "to": "0x59008991e837d699008ac3cf7cc68d40b845c94c",
                "token": "0x114dd039f2575468dfe8312e22b58aab9af8482b",
                "tokenID": "493"
            }
        ],
        "token_infos": [
            {
                "address": "0xc02aaa39b223fe8d0a0e5c4f27ead9083c756cc2",
                "decimals": 18
            },
            {
                "address": "0xeeeeeeeeeeeeeeeeeeeeeeeeeeeeeeeeeeeeeeee",
                "decimals": 18
            }
        ]
    },
    "address_label": {
        "labels": [
            {
                "address": "0x114dd039f2575468dfe8312e22b58aab9af8482b",
                "label": "BTBM"
            },
            {
                "address": "0x7f268357a8c2552623316e2562d90e642bb538e5",
                "label": "OpenSea: Wyvern Exchange v2"
            },
            {
                "address": "0xf9e266af4bca5890e2781812cc6a6e89495a79f2",
                "label": "AuthenticatedProxy"
            },
            {
                "address": "0x0000000000000000000000000000000000000000",
                "label": "Null Address"
            },
            {
                "address": "0xbaf2127b49fc93cbca6269fade0f7f31df4c88a7",
                "label": "MerkleValidator"
            },
            {
                "address": "0x9057c9b8984f643edb2172a353e9791b698a516b",
                "label": "OwnableDelegateProxy"
            },
            {
                "address": "0x0000000000000000000000000000000000000003",
                "label": "Precompiled"
            },
            {
                "address": "0xeeeeeeeeeeeeeeeeeeeeeeeeeeeeeeeeeeeeeeee",
                "label": "Ether"
            },
            {
                "address": "0x0000000000000000000000000000000000000002",
                "label": "Precompiled"
            },
            {
                "address": "0x0000000000000000000000000000000000000004",
                "label": "Precompiled"
            },
            {
                "address": "0x0000000000000000000000000000000000000001",
                "label": "Precompiled"
            },
            {
                "address": "0x5b3256965e7c3cf26e11fcaf296dfc8807c01073",
                "label": "OpenSea: Wallet"
            },
            {
                "address": "0xa5409ec958c83c3f309868babaca7c86dcb077c1",
                "label": "OpenSea: Registry"
            }
        ]
    },
    "trace": {
        "accountLabels": null,
        "dataMap": {
            "-1": {
                "invocation": {
                    "address": "0x59008991e837d699008ac3cf7cc68d40b845c94c",
                    "callData": "",
                    "decodedMethod": null,
                    "errorInfo": "",
                    "fromAddress": "",
                    "gasUsed": 0,
                    "id": -1,
                    "methodDecoded": false,
                    "operation": "",
                    "output": "",
                    "revert": false,
                    "revertMessage": "",
                    "selector": "",
                    "status": false,
                    "value": ""
                },
                "nodeType": 0
            },
            "0": {
                "invocation": {
                    "address": "0x7f268357a8c2552623316e2562d90e642bb538e5",
                    "callData": "0x0000000000000000000000007f268357a8c2552623316e2562d90e642bb538e500000000000000000000000059008991e837d699008ac3cf7cc68d40b845c94c000000000000000000000000688df5effba72c4adacce32ba08bcd448ab014cf0000000000000000000000000000000000000000000000000000000000000000000000000000000000000000baf2127b49fc93cbca6269fade0f7f31df4c88a7000000000000000000000000000000000000000000000000000000000000000000000000000000000000000000000000000000000000000000000000000000000000000000000000000000007f268357a8c2552623316e2562d90e642bb538e5000000000000000000000000688df5effba72c4adacce32ba08bcd448ab014cf00000000000000000000000000000000000000000000000000000000000000000000000000000000000000005b3256965e7c3cf26e11fcaf296dfc8807c01073000000000000000000000000baf2127b49fc93cbca6269fade0f7f31df4c88a70000000000000000000000000000000000000000000000000000000000000000000000000000000000000000000000000000000000000000000000000000000000000000000000000000000000000000000000000000000000000000000003b600000000000000000000000000000000000000000000000000000000000000000000000000000000000000000000000000000000000000000000000000000000000000000000000000000000000000000000000000000000000000000000000000000000000000000000000000000000000000000000000000ae153d89fe800000000000000000000000000000000000000000000000000000000000000000000000000000000000000000000000000000000000000000000000000062a2253000000000000000000000000000000000000000000000000000000000000000001d87bab01222a06e81ef367680cb4ab2144625b228ff34d8010ab52fffb45ceb00000000000000000000000000000000000000000000000000000000000003b600000000000000000000000000000000000000000000000000000000000000000000000000000000000000000000000000000000000000000000000000000000000000000000000000000000000000000000000000000000000000000000000000000000000000000000000000000000000000000000000000ae153d89fe800000000000000000000000000000000000000000000000000000000000000000000000000000000000000000000000000000000000000000000000000062a1d6990000000000000000000000000000000000000000000000000000000062c963aa0a523c79a3f9ee0b624cd2b0070594f4f0c8b1e42cded8a9eb6827f086bd99630000000000000000000000000000000000000000000000000000000000000001000000000000000000000000000000000000000000000000000000000000000000000000000000000000000000000000000000000000000000000000000000000000000000000000000000000000000000000000000000000000000000000001000000000000000000000000000000000000000000000000000000000000000100000000000000000000000000000000000000000000000000000000000000010000000000000000000000000000000000000000000000000000000000000000000000000000000000000000000000000000000000000000000000000000000100000000000000000000000000000000000000000000000000000000000006a000000000000000000000000000000000000000000000000000000000000007c000000000000000000000000000000000000000000000000000000000000008e00000000000000000000000000000000000000000000000000000000000000a000000000000000000000000000000000000000000000000000000000000000b200000000000000000000000000000000000000000000000000000000000000b20000000000000000000000000000000000000000000000000000000000000001c000000000000000000000000000000000000000000000000000000000000001c6c2359b1b8773b054f5286afd880cdde4055902ca14931530873691b4dda21fb045307a01ece35a45a4ba01306e53c9850c594d1718196d462c34ad6f98e29df6c2359b1b8773b054f5286afd880cdde4055902ca14931530873691b4dda21fb045307a01ece35a45a4ba01306e53c9850c594d1718196d462c34ad6f98e29df000000000000000000000000000000000000000000000000000000000000000000000000000000000000000000000000000000000000000000000000000000e4fb16a595000000000000000000000000000000000000000000000000000000000000000000000000000000000000000059008991e837d699008ac3cf7cc68d40b845c94c000000000000000000000000114dd039f2575468dfe8312e22b58aab9af8482b00000000000000000000000000000000000000000000000000000000000001ed000000000000000000000000000000000000000000000000000000000000000000000000000000000000000000000000000000000000000000000000000000c000000000000000000000000000000000000000000000000000000000000000000000000000000000000000000000000000000000000000000000000000000000000000000000000000000000000000000000000000000000000000e4fb16a595000000000000000000000000688df5effba72c4adacce32ba08bcd448ab014cf0000000000000000000000000000000000000000000000000000000000000000000000000000000000000000114dd039f2575468dfe8312e22b58aab9af8482b00000000000000000000000000000000000000000000000000000000000001ed000000000000000000000000000000000000000000000000000000000000000000000000000000000000000000000000000000000000000000000000000000c000000000000000000000000000000000000000000000000000000000000000000000000000000000000000000000000000000000000000000000000000000000000000000000000000000000000000000000000000000000000000e400000000ffffffffffffffffffffffffffffffffffffffffffffffffffffffffffffffff0000000000000000000000000000000000000000000000000000000000000000000000000000000000000000000000000000000000000000000000000000000000000000000000000000000000000000000000000000000000000000000000000000000000000000000000000000000000000000000000000000000000000000000000000000000000000000000000000000000000000000000000000000000000000000000000000000000000000000000000000000000000000000000000000000000000000000000000000000000000000000000000000000000000000000000000000000000000000000000000000000000000000000000000e4000000000000000000000000000000000000000000000000000000000000000000000000ffffffffffffffffffffffffffffffffffffffffffffffffffffffffffffffff00000000000000000000000000000000000000000000000000000000000000000000000000000000000000000000000000000000000000000000000000000000000000000000000000000000000000000000000000000000000000000000000000000000000000000000000000000000000000000000000000000000000000000000000000000000000000000000000000000000000000000000000000000000000000000000000000000000000000000000000000000000000000000000000000000000000000000000000000000000000000000000000000000000",
                    "decodedMethod": {
                        "callParams": [
                            {
                                "name": "addrs",
                                "type": "address[14]",
                                "value": [
                                    "0x7f268357a8c2552623316e2562d90e642bb538e5",
                                    "0x59008991e837d699008ac3cf7cc68d40b845c94c",
                                    "0x688df5effba72c4adacce32ba08bcd448ab014cf",
                                    "0x0000000000000000000000000000000000000000",
                                    "0xbaf2127b49fc93cbca6269fade0f7f31df4c88a7",
                                    "0x0000000000000000000000000000000000000000",
                                    "0x0000000000000000000000000000000000000000",
                                    "0x7f268357a8c2552623316e2562d90e642bb538e5",
                                    "0x688df5effba72c4adacce32ba08bcd448ab014cf",
                                    "0x0000000000000000000000000000000000000000",
                                    "0x5b3256965e7c3cf26e11fcaf296dfc8807c01073",
                                    "0xbaf2127b49fc93cbca6269fade0f7f31df4c88a7",
                                    "0x0000000000000000000000000000000000000000",
                                    "0x0000000000000000000000000000000000000000"
                                ]
                            },
                            {
                                "name": "uints",
                                "type": "uint256[18]",
                                "value": [
                                    "950",
                                    "0",
                                    "0",
                                    "0",
                                    "49,000,000,000,000,000",
                                    "0",
                                    "1,654,793,520",
                                    "0",
                                    "13,356,885,434,340,789,453,222,727,302,480,563,238,327,485,534,356,578,146,008,502,180,487,646,960,875",
                                    "950",
                                    "0",
                                    "0",
                                    "0",
                                    "49,000,000,000,000,000",
                                    "0",
                                    "1,654,773,401",
                                    "1,657,365,418",
                                    "4,668,427,329,347,564,281,194,763,663,336,430,799,594,725,687,408,106,402,187,559,368,790,353,221,987"
                                ]
                            },
                            {
                                "name": "feeMethodsSidesKindsHowToCalls",
                                "type": "uint8[8]",
                                "value": [
                                    "1",
                                    "0",
                                    "0",
                                    "1",
                                    "1",
                                    "1",
                                    "0",
                                    "1"
                                ]
                            },
                            {
                                "name": "calldataBuy",
                                "type": "bytes",
                                "value": "0xfb16a595000000000000000000000000000000000000000000000000000000000000000000000000000000000000000059008991e837d699008ac3cf7cc68d40b845c94c000000000000000000000000114dd039f2575468dfe8312e22b58aab9af8482b00000000000000000000000000000000000000000000000000000000000001ed000000000000000000000000000000000000000000000000000000000000000000000000000000000000000000000000000000000000000000000000000000c00000000000000000000000000000000000000000000000000000000000000000"
                            },
                            {
                                "name": "calldataSell",
                                "type": "bytes",
                                "value": "0xfb16a595000000000000000000000000688df5effba72c4adacce32ba08bcd448ab014cf0000000000000000000000000000000000000000000000000000000000000000000000000000000000000000114dd039f2575468dfe8312e22b58aab9af8482b00000000000000000000000000000000000000000000000000000000000001ed000000000000000000000000000000000000000000000000000000000000000000000000000000000000000000000000000000000000000000000000000000c00000000000000000000000000000000000000000000000000000000000000000"
                            },
                            {
                                "name": "replacementPatternBuy",
                                "type": "bytes",
                                "value": "0x00000000ffffffffffffffffffffffffffffffffffffffffffffffffffffffffffffffff000000000000000000000000000000000000000000000000000000000000000000000000000000000000000000000000000000000000000000000000000000000000000000000000000000000000000000000000000000000000000000000000000000000000000000000000000000000000000000000000000000000000000000000000000000000000000000000000000000000000000000000000000000000000000000000000000000000000000000000000000000000000000000000000"
                            },
                            {
                                "name": "replacementPatternSell",
                                "type": "bytes",
                                "value": "0x000000000000000000000000000000000000000000000000000000000000000000000000ffffffffffffffffffffffffffffffffffffffffffffffffffffffffffffffff00000000000000000000000000000000000000000000000000000000000000000000000000000000000000000000000000000000000000000000000000000000000000000000000000000000000000000000000000000000000000000000000000000000000000000000000000000000000000000000000000000000000000000000000000000000000000000000000000000000000000000000000000000000"
                            },
                            {
                                "name": "staticExtradataBuy",
                                "type": "bytes",
                                "value": "0x"
                            },
                            {
                                "name": "staticExtradataSell",
                                "type": "bytes",
                                "value": "0x"
                            },
                            {
                                "name": "vs",
                                "type": "uint8[2]",
                                "value": [
                                    "28",
                                    "28"
                                ]
                            },
                            {
                                "name": "rssMetadata",
                                "type": "bytes32[5]",
                                "value": [
                                    "0x6c2359b1b8773b054f5286afd880cdde4055902ca14931530873691b4dda21fb",
                                    "0x045307a01ece35a45a4ba01306e53c9850c594d1718196d462c34ad6f98e29df",
                                    "0x6c2359b1b8773b054f5286afd880cdde4055902ca14931530873691b4dda21fb",
                                    "0x045307a01ece35a45a4ba01306e53c9850c594d1718196d462c34ad6f98e29df",
                                    "0x0000000000000000000000000000000000000000000000000000000000000000"
                                ]
                            }
                        ],
                        "constructorArguments": "",
                        "name": "atomicMatch_",
                        "returnParams": [],
                        "signature": "atomicMatch_(address[14],uint256[18],uint8[8],bytes,bytes,bytes,bytes,bytes,bytes,uint8[2],bytes32[5])"
                    },
                    "errorInfo": "",
                    "fromAddress": "0x59008991e837d699008ac3cf7cc68d40b845c94c",
                    "gasUsed": 202127,
                    "id": 0,
                    "methodDecoded": true,
                    "operation": "CALL",
                    "output": "",
                    "revert": false,
                    "revertMessage": "",
                    "selector": "0xab834bab",
                    "status": true,
                    "value": "0.049"
                },
                "nodeType": 0
            },
            "1": {
                "invocation": {
                    "address": "0x0000000000000000000000000000000000000001",
                    "callData": "0x4330e084c721b224ad2e9182ec91117961bdca21b0b517a746077a1b000000000000000000000000000000000000000000000000000000000000001c6c2359b1b8773b054f5286afd880cdde4055902ca14931530873691b4dda21fb045307a01ece35a45a4ba01306e53c9850c594d1718196d462c34ad6f98e29df",
                    "decodedMethod": {
                        "callParams": [
                            {
                                "name": "hash",
                                "type": "bytes32",
                                "value": "0x31526d444330e084c721b224ad2e9182ec91117961bdca21b0b517a746077a1b"
                            },
                            {
                                "name": "v",
                                "type": "uint256",
                                "value": "28"
                            },
                            {
                                "name": "r",
                                "type": "bytes32",
                                "value": "0x6c2359b1b8773b054f5286afd880cdde4055902ca14931530873691b4dda21fb"
                            },
                            {
                                "name": "s",
                                "type": "bytes32",
                                "value": "0x045307a01ece35a45a4ba01306e53c9850c594d1718196d462c34ad6f98e29df"
                            }
                        ],
                        "constructorArguments": "",
                        "name": "ecrecover",
                        "returnParams": [
                            {
                                "name": "",
                                "type": "address",
                                "value": "0x688df5effba72c4adacce32ba08bcd448ab014cf"
                            }
                        ],
                        "signature": "ecrecover(bytes32,uint256,bytes32,bytes32)"
                    },
                    "errorInfo": "",
                    "fromAddress": "0x7f268357a8c2552623316e2562d90e642bb538e5",
                    "gasUsed": 3000,
                    "id": 1,
                    "methodDecoded": true,
                    "operation": "CALL",
                    "output": "0x000000000000000000000000688df5effba72c4adacce32ba08bcd448ab014cf",
                    "revert": false,
                    "revertMessage": "",
                    "selector": "0x31526d44",
                    "status": true,
                    "value": "0"
                },
                "nodeType": 0
            },
            "10": {
                "invocation": {
                    "address": "0xbaf2127b49fc93cbca6269fade0f7f31df4c88a7",
                    "callData": "0x000000000000000000000000688df5effba72c4adacce32ba08bcd448ab014cf00000000000000000000000059008991e837d699008ac3cf7cc68d40b845c94c000000000000000000000000114dd039f2575468dfe8312e22b58aab9af8482b00000000000000000000000000000000000000000000000000000000000001ed000000000000000000000000000000000000000000000000000000000000000000000000000000000000000000000000000000000000000000000000000000c0000000000000000000000000000000000000000000000000000000000000000000000000000000000000000000000000000000000000000000000000",
                    "decodedMethod": {
                        "callParams": [
                            {
                                "name": "from",
                                "type": "address",
                                "value": "0x688df5effba72c4adacce32ba08bcd448ab014cf"
                            },
                            {
                                "name": "to",
                                "type": "address",
                                "value": "0x59008991e837d699008ac3cf7cc68d40b845c94c"
                            },
                            {
                                "name": "token",
                                "type": "address",
                                "value": "0x114dd039f2575468dfe8312e22b58aab9af8482b"
                            },
                            {
                                "name": "tokenId",
                                "type": "uint256",
                                "value": "493"
                            },
                            {
                                "name": "root",
                                "type": "bytes32",
                                "value": "0x0000000000000000000000000000000000000000000000000000000000000000"
                            },
                            {
                                "name": "proof",
                                "type": "bytes32[]",
                                "value": []
                            }
                        ],
                        "constructorArguments": "",
                        "name": "matchERC721UsingCriteria",
                        "returnParams": [
                            {
                                "name": "",
                                "type": "bool",
                                "value": true
                            }
                        ],
                        "signature": "matchERC721UsingCriteria(address,address,address,uint256,bytes32,bytes32[])"
                    },
                    "errorInfo": "",
                    "fromAddress": "0x9057c9b8984f643edb2172a353e9791b698a516b",
                    "gasUsed": 46699,
                    "id": 10,
                    "methodDecoded": true,
                    "operation": "DELEGATECALL",
                    "output": "0x0000000000000000000000000000000000000000000000000000000000000001",
                    "revert": false,
                    "revertMessage": "",
                    "selector": "0xfb16a595",
                    "status": true,
                    "value": "0"
                },
                "nodeType": 0
            },
            "11": {
                "invocation": {
                    "address": "0x114dd039f2575468dfe8312e22b58aab9af8482b",
                    "callData": "0x000000000000000000000000688df5effba72c4adacce32ba08bcd448ab014cf00000000000000000000000059008991e837d699008ac3cf7cc68d40b845c94c00000000000000000000000000000000000000000000000000000000000001ed",
                    "decodedMethod": {
                        "callParams": [
                            {
                                "name": "from",
                                "type": "address",
                                "value": "0x688df5effba72c4adacce32ba08bcd448ab014cf"
                            },
                            {
                                "name": "to",
                                "type": "address",
                                "value": "0x59008991e837d699008ac3cf7cc68d40b845c94c"
                            },
                            {
                                "decimalAvailable": true,
                                "name": "tokenId",
                                "type": "uint256",
                                "value": "493"
                            }
                        ],
                        "constructorArguments": "",
                        "name": "transferFrom",
                        "returnParams": [],
                        "signature": "transferFrom(address,address,uint256)"
                    },
                    "errorInfo": "",
                    "fromAddress": "0x9057c9b8984f643edb2172a353e9791b698a516b",
                    "gasUsed": 42857,
                    "id": 11,
                    "methodDecoded": true,
                    "operation": "CALL",
                    "output": "",
                    "revert": false,
                    "revertMessage": "",
                    "selector": "0x23b872dd",
                    "status": true,
                    "value": "0"
                },
                "nodeType": 0
            },
            "12": {
                "event": {
                    "contract": "0x114dd039f2575468dfe8312e22b58aab9af8482b",
                    "decodedLog": {
                        "name": "Transfer",
                        "params": [
                            {
                                "name": "from",
                                "type": "address",
                                "value": "0x688df5effba72c4adacce32ba08bcd448ab014cf"
                            },
                            {
                                "name": "to",
                                "type": "address",
                                "value": "0x59008991e837d699008ac3cf7cc68d40b845c94c"
                            },
                            {
                                "decimalAvailable": true,
                                "name": "tokenId",
                                "type": "uint256",
                                "value": "493"
                            }
                        ],
                        "signature": "Transfer(address,address,uint256)"
                    },
                    "id": 12,
                    "logData": "0x",
                    "logDecoded": true,
                    "operation": "EVENT",
                    "revert": false,
                    "status": true,
                    "topics": [
                        "0xddf252ad1be2c89b69c2b068fc378daa952ba7f163c4a11628f55a4df523b3ef",
                        "0x000000000000000000000000688df5effba72c4adacce32ba08bcd448ab014cf",
                        "0x00000000000000000000000059008991e837d699008ac3cf7cc68d40b845c94c",
                        "0x00000000000000000000000000000000000000000000000000000000000001ed"
                    ]
                },
                "nodeType": 1
            },
            "13": {
                "event": {
                    "contract": "0x7f268357a8c2552623316e2562d90e642bb538e5",
                    "decodedLog": {
                        "name": "OrdersMatched",
                        "params": [
                            {
                                "name": "maker",
                                "type": "address",
                                "value": "0x688df5effba72c4adacce32ba08bcd448ab014cf"
                            },
                            {
                                "name": "taker",
                                "type": "address",
                                "value": "0x59008991e837d699008ac3cf7cc68d40b845c94c"
                            },
                            {
                                "name": "metadata",
                                "type": "bytes32",
                                "value": "0x0000000000000000000000000000000000000000000000000000000000000000"
                            },
                            {
                                "name": "buyHash",
                                "type": "bytes32",
                                "value": "0x0000000000000000000000000000000000000000000000000000000000000000"
                            },
                            {
                                "name": "sellHash",
                                "type": "bytes32",
                                "value": "0x31526d444330e084c721b224ad2e9182ec91117961bdca21b0b517a746077a1b"
                            },
                            {
                                "name": "price",
                                "type": "uint256",
                                "value": "49,000,000,000,000,000"
                            }
                        ],
                        "signature": "OrdersMatched(bytes32,bytes32,address,address,uint256,bytes32)"
                    },
                    "id": 13,
                    "logData": "0x000000000000000000000000000000000000000000000000000000000000000031526d444330e084c721b224ad2e9182ec91117961bdca21b0b517a746077a1b00000000000000000000000000000000000000000000000000ae153d89fe8000",
                    "logDecoded": true,
                    "operation": "EVENT",
                    "revert": false,
                    "status": true,
                    "topics": [
                        "0xc4109843e0b7d514e4c093114b863f8e7d8d9a458c372cd51bfe526b588006c9",
                        "0x000000000000000000000000688df5effba72c4adacce32ba08bcd448ab014cf",
                        "0x00000000000000000000000059008991e837d699008ac3cf7cc68d40b845c94c",
                        "0x0000000000000000000000000000000000000000000000000000000000000000"
                    ]
                },
                "nodeType": 1
            },
            "2": {
                "invocation": {
                    "address": "0xa5409ec958c83c3f309868babaca7c86dcb077c1",
                    "callData": "0x000000000000000000000000688df5effba72c4adacce32ba08bcd448ab014cf",
                    "decodedMethod": {
                        "callParams": [
                            {
                                "name": "",
                                "type": "address",
                                "value": "0x688df5effba72c4adacce32ba08bcd448ab014cf"
                            }
                        ],
                        "constructorArguments": "",
                        "name": "proxies",
                        "returnParams": [
                            {
                                "name": "",
                                "type": "address",
                                "value": "0x9057c9b8984f643edb2172a353e9791b698a516b"
                            }
                        ],
                        "signature": "proxies(address)"
                    },
                    "errorInfo": "",
                    "fromAddress": "0x7f268357a8c2552623316e2562d90e642bb538e5",
                    "gasUsed": 2782,
                    "id": 2,
                    "methodDecoded": true,
                    "operation": "CALL",
                    "output": "0x0000000000000000000000009057c9b8984f643edb2172a353e9791b698a516b",
                    "revert": false,
                    "revertMessage": "",
                    "selector": "0xc4552791",
                    "status": true,
                    "value": "0"
                },
                "nodeType": 0
            },
            "3": {
                "invocation": {
                    "address": "0x5b3256965e7c3cf26e11fcaf296dfc8807c01073",
                    "callData": "0x",
                    "decodedMethod": null,
                    "errorInfo": "",
                    "fromAddress": "0x7f268357a8c2552623316e2562d90e642bb538e5",
                    "gasUsed": 0,
                    "id": 3,
                    "methodDecoded": false,
                    "operation": "CALL",
                    "output": "",
                    "revert": false,
                    "revertMessage": "",
                    "selector": "fallback",
                    "status": true,
                    "value": "0.004655"
                },
                "nodeType": 0
            },
            "4": {
                "invocation": {
                    "address": "0x688df5effba72c4adacce32ba08bcd448ab014cf",
                    "callData": "0x",
                    "decodedMethod": null,
                    "errorInfo": "",
                    "fromAddress": "0x7f268357a8c2552623316e2562d90e642bb538e5",
                    "gasUsed": 0,
                    "id": 4,
                    "methodDecoded": false,
                    "operation": "CALL",
                    "output": "",
                    "revert": false,
                    "revertMessage": "",
                    "selector": "fallback",
                    "status": true,
                    "value": "0.044345"
                },
                "nodeType": 0
            },
            "5": {
                "invocation": {
                    "address": "0xa5409ec958c83c3f309868babaca7c86dcb077c1",
                    "callData": "0x",
                    "decodedMethod": {
                        "callParams": [],
                        "constructorArguments": "",
                        "name": "delegateProxyImplementation",
                        "returnParams": [
                            {
                                "name": "",
                                "type": "address",
                                "value": "0xf9e266af4bca5890e2781812cc6a6e89495a79f2"
                            }
                        ],
                        "signature": "delegateProxyImplementation()"
                    },
                    "errorInfo": "",
                    "fromAddress": "0x7f268357a8c2552623316e2562d90e642bb538e5",
                    "gasUsed": 2613,
                    "id": 5,
                    "methodDecoded": true,
                    "operation": "CALL",
                    "output": "0x000000000000000000000000f9e266af4bca5890e2781812cc6a6e89495a79f2",
                    "revert": false,
                    "revertMessage": "",
                    "selector": "0x97204d8e",
                    "status": true,
                    "value": "0"
                },
                "nodeType": 0
            },
            "6": {
                "invocation": {
                    "address": "0x9057c9b8984f643edb2172a353e9791b698a516b",
                    "callData": "0x",
                    "decodedMethod": {
                        "callParams": [],
                        "constructorArguments": "",
                        "name": "implementation",
                        "returnParams": [
                            {
                                "name": "",
                                "type": "address",
                                "value": "0xf9e266af4bca5890e2781812cc6a6e89495a79f2"
                            }
                        ],
                        "signature": "implementation()"
                    },
                    "errorInfo": "",
                    "fromAddress": "0x7f268357a8c2552623316e2562d90e642bb538e5",
                    "gasUsed": 2525,
                    "id": 6,
                    "methodDecoded": true,
                    "operation": "CALL",
                    "output": "0x000000000000000000000000f9e266af4bca5890e2781812cc6a6e89495a79f2",
                    "revert": false,
                    "revertMessage": "",
                    "selector": "0x5c60da1b",
                    "status": true,
                    "value": "0"
                },
                "nodeType": 0
            },
            "7": {
                "invocation": {
                    "address": "0x9057c9b8984f643edb2172a353e9791b698a516b",
                    "callData": "0x000000000000000000000000baf2127b49fc93cbca6269fade0f7f31df4c88a70000000000000000000000000000000000000000000000000000000000000001000000000000000000000000000000000000000000000000000000000000006000000000000000000000000000000000000000000000000000000000000000e4fb16a595000000000000000000000000688df5effba72c4adacce32ba08bcd448ab014cf00000000000000000000000059008991e837d699008ac3cf7cc68d40b845c94c000000000000000000000000114dd039f2575468dfe8312e22b58aab9af8482b00000000000000000000000000000000000000000000000000000000000001ed000000000000000000000000000000000000000000000000000000000000000000000000000000000000000000000000000000000000000000000000000000c0000000000000000000000000000000000000000000000000000000000000000000000000000000000000000000000000000000000000000000000000",
                    "decodedMethod": {
                        "callParams": [
                            {
                                "name": "dest",
                                "type": "address",
                                "value": "0xbaf2127b49fc93cbca6269fade0f7f31df4c88a7"
                            },
                            {
                                "name": "howToCall",
                                "type": "uint8",
                                "value": "1"
                            },
                            {
                                "name": "calldata",
                                "type": "bytes",
                                "value": "0xfb16a595000000000000000000000000688df5effba72c4adacce32ba08bcd448ab014cf00000000000000000000000059008991e837d699008ac3cf7cc68d40b845c94c000000000000000000000000114dd039f2575468dfe8312e22b58aab9af8482b00000000000000000000000000000000000000000000000000000000000001ed000000000000000000000000000000000000000000000000000000000000000000000000000000000000000000000000000000000000000000000000000000c00000000000000000000000000000000000000000000000000000000000000000"
                            }
                        ],
                        "constructorArguments": "",
                        "name": "proxy",
                        "returnParams": [
                            {
                                "name": "result",
                                "type": "bool",
                                "value": true
                            }
                        ],
                        "signature": "proxy(address,uint8,bytes)"
                    },
                    "errorInfo": "",
                    "fromAddress": "0x7f268357a8c2552623316e2562d90e642bb538e5",
                    "gasUsed": 59219,
                    "id": 7,
                    "methodDecoded": true,
                    "operation": "CALL",
                    "output": "0x0000000000000000000000000000000000000000000000000000000000000001",
                    "revert": false,
                    "revertMessage": "",
                    "selector": "0x1b0f7ba9",
                    "status": true,
                    "value": "0"
                },
                "nodeType": 0
            },
            "8": {
                "invocation": {
                    "address": "0xf9e266af4bca5890e2781812cc6a6e89495a79f2",
                    "callData": "0x000000000000000000000000baf2127b49fc93cbca6269fade0f7f31df4c88a70000000000000000000000000000000000000000000000000000000000000001000000000000000000000000000000000000000000000000000000000000006000000000000000000000000000000000000000000000000000000000000000e4fb16a595000000000000000000000000688df5effba72c4adacce32ba08bcd448ab014cf00000000000000000000000059008991e837d699008ac3cf7cc68d40b845c94c000000000000000000000000114dd039f2575468dfe8312e22b58aab9af8482b00000000000000000000000000000000000000000000000000000000000001ed000000000000000000000000000000000000000000000000000000000000000000000000000000000000000000000000000000000000000000000000000000c0000000000000000000000000000000000000000000000000000000000000000000000000000000000000000000000000000000000000000000000000",
                    "decodedMethod": {
                        "callParams": [
                            {
                                "name": "dest",
                                "type": "address",
                                "value": "0xbaf2127b49fc93cbca6269fade0f7f31df4c88a7"
                            },
                            {
                                "name": "howToCall",
                                "type": "uint8",
                                "value": "1"
                            },
                            {
                                "name": "calldata",
                                "type": "bytes",
                                "value": "0xfb16a595000000000000000000000000688df5effba72c4adacce32ba08bcd448ab014cf00000000000000000000000059008991e837d699008ac3cf7cc68d40b845c94c000000000000000000000000114dd039f2575468dfe8312e22b58aab9af8482b00000000000000000000000000000000000000000000000000000000000001ed000000000000000000000000000000000000000000000000000000000000000000000000000000000000000000000000000000000000000000000000000000c00000000000000000000000000000000000000000000000000000000000000000"
                            }
                        ],
                        "constructorArguments": "",
                        "name": "proxy",
                        "returnParams": [
                            {
                                "name": "result",
                                "type": "bool",
                                "value": true
                            }
                        ],
                        "signature": "proxy(address,uint8,bytes)"
                    },
                    "errorInfo": "",
                    "fromAddress": "0x9057c9b8984f643edb2172a353e9791b698a516b",
                    "gasUsed": 55935,
                    "id": 8,
                    "methodDecoded": true,
                    "operation": "DELEGATECALL",
                    "output": "0x0000000000000000000000000000000000000000000000000000000000000001",
                    "revert": false,
                    "revertMessage": "",
                    "selector": "0x1b0f7ba9",
                    "status": true,
                    "value": "0"
                },
                "nodeType": 0
            },
            "9": {
                "invocation": {
                    "address": "0xa5409ec958c83c3f309868babaca7c86dcb077c1",
                    "callData": "0x0000000000000000000000007f268357a8c2552623316e2562d90e642bb538e5",
                    "decodedMethod": {
                        "callParams": [
                            {
                                "name": "",
                                "type": "address",
                                "value": "0x7f268357a8c2552623316e2562d90e642bb538e5"
                            }
                        ],
                        "constructorArguments": "",
                        "name": "contracts",
                        "returnParams": [
                            {
                                "name": "",
                                "type": "bool",
                                "value": true
                            }
                        ],
                        "signature": "contracts(address)"
                    },
                    "errorInfo": "",
                    "fromAddress": "0x9057c9b8984f643edb2172a353e9791b698a516b",
                    "gasUsed": 2553,
                    "id": 9,
                    "methodDecoded": true,
                    "operation": "CALL",
                    "output": "0x0000000000000000000000000000000000000000000000000000000000000001",
                    "revert": false,
                    "revertMessage": "",
                    "selector": "0x69dc9ff3",
                    "status": true,
                    "value": "0"
                },
                "nodeType": 0
            }
        },
        "gasFlame": [
            {
                "children": [
                    {
                        "children": [
                            {
                                "children": [],
                                "depth": 0,
                                "name": "Initial Gas",
                                "value": 39256
                            },
                            {
                                "children": [
                                    {
                                        "children": [],
                                        "depth": 1,
                                        "name": "ecrecover",
                                        "value": 3000
                                    },
                                    {
                                        "children": [],
                                        "depth": 1,
                                        "name": "proxies",
                                        "value": 2782
                                    },
                                    {
                                        "children": [],
                                        "depth": 1,
                                        "name": "fallback",
                                        "value": 0
                                    },
                                    {
                                        "children": [],
                                        "depth": 1,
                                        "name": "fallback",
                                        "value": 0
                                    },
                                    {
                                        "children": [],
                                        "depth": 1,
                                        "name": "delegateProxyImplementation",
                                        "value": 2613
                                    },
                                    {
                                        "children": [],
                                        "depth": 1,
                                        "name": "implementation",
                                        "value": 2525
                                    },
                                    {
                                        "children": [
                                            {
                                                "children": [
                                                    {
                                                        "children": [],
                                                        "depth": 3,
                                                        "name": "contracts",
                                                        "value": 2553
                                                    },
                                                    {
                                                        "children": [
                                                            {
                                                                "children": [],
                                                                "depth": 4,
                                                                "name": "transferFrom",
                                                                "value": 42857
                                                            }
                                                        ],
                                                        "depth": 3,
                                                        "name": "matchERC721UsingCriteria",
                                                        "value": 46699
                                                    }
                                                ],
                                                "depth": 2,
                                                "name": "proxy",
                                                "value": 55935
                                            }
                                        ],
                                        "depth": 1,
                                        "name": "proxy",
                                        "value": 59219
                                    }
                                ],
                                "depth": 0,
                                "name": "Executed Gas",
                                "value": 170471
                            }
                        ],
                        "depth": -1,
                        "name": "Actual Gas Used",
                        "value": 202127
                    },
                    {
                        "children": [],
                        "depth": -1,
                        "name": "Refunded Gas",
                        "value": 7600
                    }
                ],
                "depth": -2,
                "name": "Total Gas",
                "value": 209727
            }
        ],
        "isConfirmed": true,
        "mainTrace": [
            {
                "children": [
                    {
                        "children": [
                            {
                                "children": [],
                                "depth": 1,
                                "id": 1,
                                "order": 1
                            },
                            {
                                "children": [],
                                "depth": 1,
                                "id": 2,
                                "order": 2
                            },
                            {
                                "children": [],
                                "depth": 1,
                                "id": 3,
                                "order": 3
                            },
                            {
                                "children": [],
                                "depth": 1,
                                "id": 4,
                                "order": 4
                            },
                            {
                                "children": [],
                                "depth": 1,
                                "id": 5,
                                "order": 5
                            },
                            {
                                "children": [],
                                "depth": 1,
                                "id": 6,
                                "order": 6
                            },
                            {
                                "children": [
                                    {
                                        "children": [
                                            {
                                                "children": [],
                                                "depth": 3,
                                                "id": 9,
                                                "order": 9
                                            },
                                            {
                                                "children": [
                                                    {
                                                        "children": [
                                                            {
                                                                "children": [],
                                                                "depth": 5,
                                                                "id": 12,
                                                                "order": 12
                                                            }
                                                        ],
                                                        "depth": 4,
                                                        "id": 11,
                                                        "order": 11
                                                    }
                                                ],
                                                "depth": 3,
                                                "id": 10,
                                                "order": 10
                                            }
                                        ],
                                        "depth": 2,
                                        "id": 8,
                                        "order": 8
                                    }
                                ],
                                "depth": 1,
                                "id": 7,
                                "order": 7
                            },
                            {
                                "children": [],
                                "depth": 1,
                                "id": 13,
                                "order": 13
                            }
                        ],
                        "depth": 0,
                        "id": 0,
                        "order": 0
                    }
                ],
                "depth": -1,
                "id": -1,
                "order": -1
            }
        ],
        "mainTraceNodeCount": 14,
        "parentIdMap": {
            "0": -1,
            "1": 0,
            "10": 8,
            "11": 10,
            "12": 11,
            "13": 0,
            "2": 0,
            "3": 0,
            "4": 0,
            "5": 0,
            "6": 0,
            "7": 0,
            "8": 7,
            "9": 8
        },
        "tidyTrace": [
            {
                "children": [
                    {
                        "children": [
                            {
                                "children": [],
                                "depth": 1,
                                "id": 1,
                                "order": 1
                            },
                            {
                                "children": [],
                                "depth": 1,
                                "id": 2,
                                "order": 2
                            },
                            {
                                "children": [],
                                "depth": 1,
                                "id": 3,
                                "order": 3
                            },
                            {
                                "children": [],
                                "depth": 1,
                                "id": 4,
                                "order": 4
                            },
                            {
                                "children": [],
                                "depth": 1,
                                "id": 5,
                                "order": 5
                            },
                            {
                                "children": [],
                                "depth": 1,
                                "id": 6,
                                "order": 6
                            },
                            {
                                "children": [
                                    {
                                        "children": [
                                            {
                                                "children": [],
                                                "depth": 3,
                                                "id": 9,
                                                "order": 9
                                            },
                                            {
                                                "children": [
                                                    {
                                                        "children": [
                                                            {
                                                                "children": [],
                                                                "depth": 5,
                                                                "id": 12,
                                                                "order": 12
                                                            }
                                                        ],
                                                        "depth": 4,
                                                        "id": 11,
                                                        "order": 11
                                                    }
                                                ],
                                                "depth": 3,
                                                "id": 10,
                                                "order": 10
                                            }
                                        ],
                                        "depth": 2,
                                        "id": 8,
                                        "order": 8
                                    }
                                ],
                                "depth": 1,
                                "id": 7,
                                "order": 7
                            },
                            {
                                "children": [],
                                "depth": 1,
                                "id": 13,
                                "order": 13
                            }
                        ],
                        "depth": 0,
                        "id": 0,
                        "order": 0
                    }
                ],
                "depth": -1,
                "id": -1,
                "order": -1
            }
        ],
        "tidyTraceNodeCount": 14
    },
    "state_change": {
        "stateChanges": [
            {
                "address": "0x114dd039f2575468dfe8312e22b58aab9af8482b",
                "erc": "ERC-721",
                "slots": [
                    {
                        "current": "0x0000000000000000000000000000000000000000000000000000000000000001",
                        "key": "0x9a0c458109c67a5fc712384694da9cef28673bc16e41504d9029877bc0d28e42",
                        "prev": "0x0000000000000000000000000000000000000000000000000000000000000000"
                    },
                    {
                        "current": "0x000000020000000062a2262c59008991e837d699008ac3cf7cc68d40b845c94c",
                        "key": "0xf2910cf5db11baf4ced69e6cf7c901756abcdb2c760e06c74cb9da303e6eee74",
                        "prev": "0x000000020000000062a1bc38688df5effba72c4adacce32ba08bcd448ab014cf"
                    },
                    {
                        "current": "0x0000000000000000000000000000000000000000000000000000000000000000",
                        "key": "0x41bf82650a759896807cda1ca65590ecafeb8be89988ad8f9dae86e5fd9903c6",
                        "prev": "0x0000000000000000000000000000000000000000000000000000000000000001"
                    }
                ],
                "storageVariables": [
                    {
                        "name": "_packedAddressData",
                        "type": "mapping(address => uint256)",
                        "value": {
                            "pairs": [
                                {
                                    "key": "0x59008991e837d699008ac3cf7cc68d40b845c94c",
                                    "value": {
                                        "current": "1",
                                        "prev": "0",
                                        "typeTag": 1
                                    }
                                },
                                {
                                    "key": "0x688df5effba72c4adacce32ba08bcd448ab014cf",
                                    "value": {
                                        "current": "0",
                                        "prev": "1",
                                        "typeTag": 1
                                    }
                                }
                            ],
                            "typeTag": 4
                        }
                    },
                    {
                        "name": "_packedOwnerships",
                        "type": "mapping(uint256 => uint256)",
                        "value": {
                            "pairs": [
                                {
                                    "key": "493",
                                    "value": {
                                        "current": "53919893336719763397065123188855452832157725124409910732796539029836",
                                        "prev": "53919893336719723755383500932219306421778589135537957844357494084815",
                                        "typeTag": 1
                                    }
                                }
                            ],
                            "typeTag": 4
                        }
                    }
                ]
            },
            {
                "address": "0x7f268357a8c2552623316e2562d90e642bb538e5",
                "erc": "",
                "slots": [
                    {
                        "current": "0x0000000000000000000000000000000000000000000000000000000000000001",
                        "key": "0xfa18b3f1af2aa8d0a97fd80865f8346dd4f52e19a4be778b2c02a08b32556248",
                        "prev": "0x0000000000000000000000000000000000000000000000000000000000000000"
                    }
                ],
                "storageVariables": [
                    {
                        "name": "cancelledOrFinalized",
                        "type": "mapping(bytes32 => bool)",
                        "value": {
                            "pairs": [
                                {
                                    "key": "0x31526d444330e084c721b224ad2e9182ec91117961bdca21b0b517a746077a1b",
                                    "value": {
                                        "current": "true",
                                        "prev": "false",
                                        "typeTag": 1
                                    }
                                }
                            ],
                            "typeTag": 4
                        }
                    }
                ]
            }
        ]
    }
}