{
    "balance_change": {
        "balanceChanges": []
    },
    "profile": {
        "basic_info": {
            "baseFee": "",
            "blockNumber": 11377893,
            "callData": "0x1688f0b900000000000000000000000034cfac646f301356faa8b21e94227e3583fe3f5f000000000000000000000000000000000000000000000000000000000000006000000000000000000000000000000000608a1bb30ad898b6429fb6c71b82a46300000000000000000000000000000000000000000000000000000000000001c4b63e800d0000000000000000000000000000000000000000000000000000000000000100000000000000000000000000000000000000000000000000000000000000000200000000000000000000000000000000000000000000000000000000000000000000000000000000000000000000000000000000000000000000000000000180000000000000000000000000000000000000000000000000000000000000000000000000000000000000000000000000000000000000000000000000000000000000000000000000000000000000000000000000000000000000000000000000000000000000000000000000000000000000000000000000000000000000000000000000000000000000000000000000000000000000000000000000000000030000000000000000000000002f36559ef47985afdea991f0047e137b0d246fb3000000000000000000000000685781e4b29e4bb77cc2ff3c94dad300e5d2dde50000000000000000000000008385225367d8fda054f179983826197c621639e50000000000000000000000000000000000000000000000000000000000000000000000000000000000000000000000000000000000000000000000000000000000000000000000000000000000000000000000000000000000000000",
            "debugEnable": true,
            "errorInfo": "",
            "eventCount": 1,
            "feeRecipient": "0xd224ca0c819e8e97ba0136b3b95ceff503b79f53",
            "formatValue": "0",
            "gasLimit": 295566,
            "gasPrice": "28.6",
            "gasUsed": 291237,
            "intTxnCount": 3,
            "internalRevert": false,
            "internalRevertMessage": "",
            "isContractCreation": false,
            "isFlashloan": false,
            "maxFee": "",
            "nonce": 2186,
            "overwritedBlockNumber": -1,
            "priorityFee": "",
            "receiver": "0x76e2cfc1f5fa8f6a5b3fc4c8f4788f0116861f9b",
            "revertMessage": "",
            "sender": "0x7421ee752e6da4f74ce5fa7f2887a4c995f13613",
            "simulationEnable": true,
            "sourceTxnHash": "0x28a00d60e0190b642707db173f8da86a976121eddb8a25d18453082742a7cbdd",
            "status": true,
            "timestamp": "2020-12-03T06:02:10Z",
            "transactionFee": "0.0083293782",
            "txnHash": "0x28a00d60e0190b642707db173f8da86a976121eddb8a25d18453082742a7cbdd",
            "txnIndex": 145,
            "type": 0,
            "value": "0"
        },
        "fund_flow": [],
        "token_infos": [
            {
                "address": "0xc02aaa39b223fe8d0a0e5c4f27ead9083c756cc2",
                "decimals": 18
            },
            {
                "address": "0xeeeeeeeeeeeeeeeeeeeeeeeeeeeeeeeeeeeeeeee",
                "decimals": 18
            }
        ]
    },
    "address_label": {
        "labels": [
            {
                "address": "0x0000000000000000000000000000000000000000",
                "label": "Null Address"
            },
            {
                "address": "0x0000000000000000000000000000000000000002",
                "label": "Precompiled"
            },
            {
                "address": "0xeeeeeeeeeeeeeeeeeeeeeeeeeeeeeeeeeeeeeeee",
                "label": "Ether"
            },
            {
                "address": "0x3f9d76a7c1c1a730593992ad3acd9148f5b83885",
                "label": "Proxy_3f9d_3885"
            },
            {
                "address": "0x34cfac646f301356faa8b21e94227e3583fe3f5f",
                "label": "Safe: Mastercopy 1.1.1"
            },
            {
                "address": "0x76e2cfc1f5fa8f6a5b3fc4c8f4788f0116861f9b",
                "label": "Safe: Proxy Factory 1.1.1"
            },
            {
                "address": "0x0000000000000000000000000000000000000001",
                "label": "Precompiled"
            },
            {
                "address": "0x0000000000000000000000000000000000000003",
                "label": "Precompiled"
            },
            {
                "address": "0x0000000000000000000000000000000000000004",
                "label": "Precompiled"
            }
        ]
    },
    "trace": {
        "accountLabels": null,
        "dataMap": {
            "-1": {
                "invocation": {
                    "address": "0x7421ee752e6da4f74ce5fa7f2887a4c995f13613",
                    "callData": "",
                    "decodedMethod": null,
                    "errorInfo": "",
                    "fromAddress": "",
                    "gasUsed": 0,
                    "id": -1,
                    "methodDecoded": false,
                    "operation": "",
                    "output": "",
                    "revert": false,
                    "revertMessage": "",
                    "selector": "",
                    "status": false,
                    "value": ""
                },
                "nodeType": 0
            },
            "0": {
                "invocation": {
                    "address": "0x76e2cfc1f5fa8f6a5b3fc4c8f4788f0116861f9b",
                    "callData": "0x00000000000000000000000034cfac646f301356faa8b21e94227e3583fe3f5f000000000000000000000000000000000000000000000000000000000000006000000000000000000000000000000000608a1bb30ad898b6429fb6c71b82a46300000000000000000000000000000000000000000000000000000000000001c4b63e800d0000000000000000000000000000000000000000000000000000000000000100000000000000000000000000000000000000000000000000000000000000000200000000000000000000000000000000000000000000000000000000000000000000000000000000000000000000000000000000000000000000000000000180000000000000000000000000000000000000000000000000000000000000000000000000000000000000000000000000000000000000000000000000000000000000000000000000000000000000000000000000000000000000000000000000000000000000000000000000000000000000000000000000000000000000000000000000000000000000000000000000000000000000000000000000000000030000000000000000000000002f36559ef47985afdea991f0047e137b0d246fb3000000000000000000000000685781e4b29e4bb77cc2ff3c94dad300e5d2dde50000000000000000000000008385225367d8fda054f179983826197c621639e50000000000000000000000000000000000000000000000000000000000000000000000000000000000000000000000000000000000000000000000000000000000000000000000000000000000000000000000000000000000000000",
                    "decodedMethod": {
                        "callParams": [
                            {
                                "name": "_mastercopy",
                                "type": "address",
                                "value": "0x34cfac646f301356faa8b21e94227e3583fe3f5f"
                            },
                            {
                                "name": "initializer",
                                "type": "bytes",
                                "value": "0xb63e800d0000000000000000000000000000000000000000000000000000000000000100000000000000000000000000000000000000000000000000000000000000000200000000000000000000000000000000000000000000000000000000000000000000000000000000000000000000000000000000000000000000000000000180000000000000000000000000000000000000000000000000000000000000000000000000000000000000000000000000000000000000000000000000000000000000000000000000000000000000000000000000000000000000000000000000000000000000000000000000000000000000000000000000000000000000000000000000000000000000000000000000000000000000000000000000000000030000000000000000000000002f36559ef47985afdea991f0047e137b0d246fb3000000000000000000000000685781e4b29e4bb77cc2ff3c94dad300e5d2dde50000000000000000000000008385225367d8fda054f179983826197c621639e500000000000000000000000000000000000000000000000000000000000000000000000000000000000000000000000000000000000000000000000000000000"
                            },
                            {
                                "name": "saltNonce",
                                "type": "uint256",
                                "value": "128,322,986,372,086,817,896,984,346,984,769,037,411"
                            }
                        ],
                        "constructorArguments": "",
                        "name": "createProxyWithNonce",
                        "returnParams": [
                            {
                                "name": "proxy",
                                "type": "address",
                                "value": "0x3f9d76a7c1c1a730593992ad3acd9148f5b83885"
                            }
                        ],
                        "signature": "createProxyWithNonce(address,bytes,uint256)"
                    },
                    "errorInfo": "",
                    "fromAddress": "0x7421ee752e6da4f74ce5fa7f2887a4c995f13613",
                    "gasUsed": 291237,
                    "id": 0,
                    "methodDecoded": true,
                    "operation": "CALL",
                    "output": "0x0000000000000000000000003f9d76a7c1c1a730593992ad3acd9148f5b83885",
                    "revert": false,
                    "revertMessage": "",
                    "selector": "0x1688f0b9",
                    "status": true,
                    "value": "0"
                },
                "nodeType": 0
            },
            "1": {
                "invocation": {
                    "address": "0x3f9d76a7c1c1a730593992ad3acd9148f5b83885",
                    "callData": "00000000000000000000000034cfac646f301356faa8b21e94227e3583fe3f5f",
                    "decodedMethod": {
                        "callParams": [
                            {
                                "name": "_masterCopy",
                                "type": "address",
                                "value": "0x34cfac646f301356faa8b21e94227e3583fe3f5f"
                            }
                        ],
                        "constructorArguments": "00000000000000000000000034cfac646f301356faa8b21e94227e3583fe3f5f",
                        "name": "constructor",
                        "returnParams": [
                            {
                                "name": "runtime code",
                                "type": "",
                                "value": "0x608060405273ffffffffffffffffffffffffffffffffffffffff600054167fa619486e0000000000000000000000000000000000000000000000000000000060003514156050578060005260206000f35b3660008037600080366000845af43d6000803e60008114156070573d6000fd5b3d6000f3fea265627a7a72315820d8a00dc4fe6bf675a9d7416fc2d00bb3433362aa8186b750f76c4027269667ff64736f6c634300050e0032"
                            }
                        ],
                        "signature": ""
                    },
                    "errorInfo": "",
                    "fromAddress": "0x76e2cfc1f5fa8f6a5b3fc4c8f4788f0116861f9b",
                    "gasUsed": 55109,
                    "id": 1,
                    "methodDecoded": true,
                    "operation": "CREATE2",
                    "output": "0x608060405273ffffffffffffffffffffffffffffffffffffffff600054167fa619486e0000000000000000000000000000000000000000000000000000000060003514156050578060005260206000f35b3660008037600080366000845af43d6000803e60008114156070573d6000fd5b3d6000f3fea265627a7a72315820d8a00dc4fe6bf675a9d7416fc2d00bb3433362aa8186b750f76c4027269667ff64736f6c634300050e0032",
                    "revert": false,
                    "revertMessage": "",
                    "selector": "",
                    "status": true,
                    "value": "0"
                },
                "nodeType": 0
            },
            "2": {
                "invocation": {
                    "address": "0x3f9d76a7c1c1a730593992ad3acd9148f5b83885",
                    "callData": "0x0000000000000000000000000000000000000000000000000000000000000100000000000000000000000000000000000000000000000000000000000000000200000000000000000000000000000000000000000000000000000000000000000000000000000000000000000000000000000000000000000000000000000180000000000000000000000000000000000000000000000000000000000000000000000000000000000000000000000000000000000000000000000000000000000000000000000000000000000000000000000000000000000000000000000000000000000000000000000000000000000000000000000000000000000000000000000000000000000000000000000000000000000000000000000000000000030000000000000000000000002f36559ef47985afdea991f0047e137b0d246fb3000000000000000000000000685781e4b29e4bb77cc2ff3c94dad300e5d2dde50000000000000000000000008385225367d8fda054f179983826197c621639e500000000000000000000000000000000000000000000000000000000000000000000000000000000000000000000000000000000000000000000000000000000",
                    "decodedMethod": {
                        "callParams": [
                            {
                                "name": "_owners",
                                "type": "address[]",
                                "value": [
                                    "0x2f36559ef47985afdea991f0047e137b0d246fb3",
                                    "0x685781e4b29e4bb77cc2ff3c94dad300e5d2dde5",
                                    "0x8385225367d8fda054f179983826197c621639e5"
                                ]
                            },
                            {
                                "name": "_threshold",
                                "type": "uint256",
                                "value": "2"
                            },
                            {
                                "name": "to",
                                "type": "address",
                                "value": "0x0000000000000000000000000000000000000000"
                            },
                            {
                                "name": "data",
                                "type": "bytes",
                                "value": "0x"
                            },
                            {
                                "name": "fallbackHandler",
                                "type": "address",
                                "value": "0x0000000000000000000000000000000000000000"
                            },
                            {
                                "name": "paymentToken",
                                "type": "address",
                                "value": "0x0000000000000000000000000000000000000000"
                            },
                            {
                                "name": "payment",
                                "type": "uint256",
                                "value": "0"
                            },
                            {
                                "name": "paymentReceiver",
                                "type": "address",
                                "value": "0x0000000000000000000000000000000000000000"
                            }
                        ],
                        "constructorArguments": "",
                        "name": "setup",
                        "returnParams": [],
                        "signature": "setup(address[],uint256,address,bytes,address,address,uint256,address)"
                    },
                    "errorInfo": "",
                    "fromAddress": "0x76e2cfc1f5fa8f6a5b3fc4c8f4788f0116861f9b",
                    "gasUsed": 174336,
                    "id": 2,
                    "methodDecoded": true,
                    "operation": "CALL",
                    "output": "",
                    "revert": false,
                    "revertMessage": "",
                    "selector": "0xb63e800d",
                    "status": true,
                    "value": "0"
                },
                "nodeType": 0
            },
            "3": {
                "invocation": {
                    "address": "0x34cfac646f301356faa8b21e94227e3583fe3f5f",
                    "callData": "0x0000000000000000000000000000000000000000000000000000000000000100000000000000000000000000000000000000000000000000000000000000000200000000000000000000000000000000000000000000000000000000000000000000000000000000000000000000000000000000000000000000000000000180000000000000000000000000000000000000000000000000000000000000000000000000000000000000000000000000000000000000000000000000000000000000000000000000000000000000000000000000000000000000000000000000000000000000000000000000000000000000000000000000000000000000000000000000000000000000000000000000000000000000000000000000000000030000000000000000000000002f36559ef47985afdea991f0047e137b0d246fb3000000000000000000000000685781e4b29e4bb77cc2ff3c94dad300e5d2dde50000000000000000000000008385225367d8fda054f179983826197c621639e500000000000000000000000000000000000000000000000000000000000000000000000000000000000000000000000000000000000000000000000000000000",
                    "decodedMethod": {
                        "callParams": [
                            {
                                "name": "_owners",
                                "type": "address[]",
                                "value": [
                                    "0x2f36559ef47985afdea991f0047e137b0d246fb3",
                                    "0x685781e4b29e4bb77cc2ff3c94dad300e5d2dde5",
                                    "0x8385225367d8fda054f179983826197c621639e5"
                                ]
                            },
                            {
                                "name": "_threshold",
                                "type": "uint256",
                                "value": "2"
                            },
                            {
                                "name": "to",
                                "type": "address",
                                "value": "0x0000000000000000000000000000000000000000"
                            },
                            {
                                "name": "data",
                                "type": "bytes",
                                "value": "0x"
                            },
                            {
                                "name": "fallbackHandler",
                                "type": "address",
                                "value": "0x0000000000000000000000000000000000000000"
                            },
                            {
                                "name": "paymentToken",
                                "type": "address",
                                "value": "0x0000000000000000000000000000000000000000"
                            },
                            {
                                "name": "payment",
                                "type": "uint256",
                                "value": "0"
                            },
                            {
                                "name": "paymentReceiver",
                                "type": "address",
                                "value": "0x0000000000000000000000000000000000000000"
                            }
                        ],
                        "constructorArguments": "",
                        "name": "setup",
                        "returnParams": [],
                        "signature": "setup(address[],uint256,address,bytes,address,address,uint256,address)"
                    },
                    "errorInfo": "",
                    "fromAddress": "0x3f9d76a7c1c1a730593992ad3acd9148f5b83885",
                    "gasUsed": 172630,
                    "id": 3,
                    "methodDecoded": true,
                    "operation": "DELEGATECALL",
                    "output": "",
                    "revert": false,
                    "revertMessage": "",
                    "selector": "0xb63e800d",
                    "status": true,
                    "value": "0"
                },
                "nodeType": 0
            },
            "4": {
                "event": {
                    "contract": "0x76e2cfc1f5fa8f6a5b3fc4c8f4788f0116861f9b",
                    "decodedLog": {
                        "name": "ProxyCreation",
                        "params": [
                            {
                                "name": "proxy",
                                "type": "address",
                                "value": "0x3f9d76a7c1c1a730593992ad3acd9148f5b83885"
                            }
                        ],
                        "signature": "ProxyCreation(address)"
                    },
                    "id": 4,
                    "logData": "0x0000000000000000000000003f9d76a7c1c1a730593992ad3acd9148f5b83885",
                    "logDecoded": true,
                    "operation": "EVENT",
                    "revert": false,
                    "status": true,
                    "topics": [
                        "0xa38789425dbeee0239e16ff2d2567e31720127fbc6430758c1a4efc6aef29f80"
                    ]
                },
                "nodeType": 1
            }
        },
        "gasFlame": [
            {
                "children": [
                    {
                        "children": [
                            {
                                "children": [],
                                "depth": 0,
                                "name": "Initial Gas",
                                "value": 24780
                            },
                            {
                                "children": [
                                    {
                                        "children": [],
                                        "depth": 1,
                                        "name": "constructor",
                                        "value": 55109
                                    },
                                    {
                                        "children": [
                                            {
                                                "children": [],
                                                "depth": 2,
                                                "name": "setup",
                                                "value": 172630
                                            }
                                        ],
                                        "depth": 1,
                                        "name": "setup",
                                        "value": 174336
                                    }
                                ],
                                "depth": 0,
                                "name": "Executed Gas",
                                "value": 266457
                            }
                        ],
                        "depth": -1,
                        "name": "Actual Gas Used",
                        "value": 291237
                    },
                    {
                        "children": [],
                        "depth": -1,
                        "name": "Refunded Gas",
                        "value": 0
                    }
                ],
                "depth": -2,
                "name": "Total Gas",
                "value": 291237
            }
        ],
        "isConfirmed": true,
        "mainTrace": [
            {
                "children": [
                    {
                        "children": [
                            {
                                "children": [],
                                "depth": 1,
                                "id": 1,
                                "order": 1
                            },
                            {
                                "children": [
                                    {
                                        "children": [],
                                        "depth": 2,
                                        "id": 3,
                                        "order": 3
                                    }
                                ],
                                "depth": 1,
                                "id": 2,
                                "order": 2
                            },
                            {
                                "children": [],
                                "depth": 1,
                                "id": 4,
                                "order": 4
                            }
                        ],
                        "depth": 0,
                        "id": 0,
                        "order": 0
                    }
                ],
                "depth": -1,
                "id": -1,
                "order": -1
            }
        ],
        "mainTraceNodeCount": 5,
        "parentIdMap": {
            "0": -1,
            "1": 0,
            "2": 0,
            "3": 2,
            "4": 0
        },
        "tidyTrace": [
            {
                "children": [
                    {
                        "children": [
                            {
                                "children": [],
                                "depth": 1,
                                "id": 1,
                                "order": 1
                            },
                            {
                                "children": [
                                    {
                                        "children": [],
                                        "depth": 2,
                                        "id": 3,
                                        "order": 3
                                    }
                                ],
                                "depth": 1,
                                "id": 2,
                                "order": 2
                            },
                            {
                                "children": [],
                                "depth": 1,
                                "id": 4,
                                "order": 4
                            }
                        ],
                        "depth": 0,
                        "id": 0,
                        "order": 0
                    }
                ],
                "depth": -1,
                "id": -1,
                "order": -1
            }
        ],
        "tidyTraceNodeCount": 5
    },
    "state_change": {
        "stateChanges": [
            {
                "address": "0x3f9d76a7c1c1a730593992ad3acd9148f5b83885",
                "erc": "",
                "slots": [
                    {
                        "current": "0x000000000000000000000000685781e4b29e4bb77cc2ff3c94dad300e5d2dde5",
                        "key": "0x889a6240981e291db788b08d6a57b0b6824bbbf235cb2212880e33e7f45d74a1",
                        "prev": "0x0000000000000000000000000000000000000000000000000000000000000000"
                    },
                    {
                        "current": "0x0000000000000000000000008385225367d8fda054f179983826197c621639e5",
                        "key": "0x3d10c3af8a7978847a826e393dbf85228ee934a759e89de3e6bb82631d4644d6",
                        "prev": "0x0000000000000000000000000000000000000000000000000000000000000000"
                    },
                    {
                        "current": "0x0000000000000000000000000000000000000000000000000000000000000001",
                        "key": "0x73e80c81f53b4c7befd42f6a51cf42e844cfffbd76df6ed76f28649027b35237",
                        "prev": "0x0000000000000000000000000000000000000000000000000000000000000000"
                    },
                    {
                        "current": "0x0000000000000000000000000000000000000000000000000000000000000003",
                        "key": "0x0000000000000000000000000000000000000000000000000000000000000003",
                        "prev": "0x0000000000000000000000000000000000000000000000000000000000000000"
                    },
                    {
                        "current": "0x00000000000000000000000034cfac646f301356faa8b21e94227e3583fe3f5f",
                        "key": "0x0000000000000000000000000000000000000000000000000000000000000000",
                        "prev": "0x0000000000000000000000000000000000000000000000000000000000000000"
                    },
                    {
                        "current": "0x0000000000000000000000000000000000000000000000000000000000000002",
                        "key": "0x0000000000000000000000000000000000000000000000000000000000000004",
                        "prev": "0x0000000000000000000000000000000000000000000000000000000000000000"
                    },
                    {
                        "current": "0xcb0a99ab5bd4660851a2d75f7f30ff01dc51f9c7e5c3d978b3b7fbed9843013b",
                        "key": "0x0000000000000000000000000000000000000000000000000000000000000006",
                        "prev": "0x0000000000000000000000000000000000000000000000000000000000000000"
                    },
                    {
                        "current": "0x0000000000000000000000002f36559ef47985afdea991f0047e137b0d246fb3",
                        "key": "0xe90b7bceb6e7df5418fb78d8ee546e97c83a08bbccc01a0644d599ccd2a7c2e0",
                        "prev": "0x0000000000000000000000000000000000000000000000000000000000000000"
                    },
                    {
                        "current": "0x0000000000000000000000000000000000000000000000000000000000000001",
                        "key": "0xcc69885fda6bcc1a4ace058b4a62bf5e179ea78fd58a1ccd71c22cc9b688792f",
                        "prev": "0x0000000000000000000000000000000000000000000000000000000000000000"
                    }
                ],
                "storageVariables": [
                    {
                        "name": "threshold",
                        "type": "uint256",
                        "value": {
                            "current": "2",
                            "prev": "0",
                            "typeTag": 1
                        }
                    },
                    {
                        "name": "domainSeparator",
                        "type": "bytes32",
                        "value": {
                            "current": "0xcb0a99ab5bd4660851a2d75f7f30ff01dc51f9c7e5c3d978b3b7fbed9843013b",
                            "prev": "0x0000000000000000000000000000000000000000000000000000000000000000",
                            "typeTag": 1
                        }
                    },
                    {
                        "name": "modules",
                        "type": "mapping(address => address)",
                        "value": {
                            "pairs": [
                                {
                                    "key": "0x0000000000000000000000000000000000000001",
                                    "value": {
                                        "current": "0x0000000000000000000000000000000000000001",
                                        "prev": "0x0000000000000000000000000000000000000000",
                                        "typeTag": 1
                                    }
                                }
                            ],
                            "typeTag": 4
                        }
                    },
                    {
                        "name": "owners",
                        "type": "mapping(address => address)",
                        "value": {
                            "pairs": [
                                {
                                    "key": "0x0000000000000000000000000000000000000001",
                                    "value": {
                                        "current": "0x2f36559ef47985afdea991f0047e137b0d246fb3",
                                        "prev": "0x0000000000000000000000000000000000000000",
                                        "typeTag": 1
                                    }
                                },
                                {
                                    "key": "0x2f36559ef47985afdea991f0047e137b0d246fb3",
                                    "value": {
                                        "current": "0x685781e4b29e4bb77cc2ff3c94dad300e5d2dde5",
                                        "prev": "0x0000000000000000000000000000000000000000",
                                        "typeTag": 1
                                    }
                                },
                                {
                                    "key": "0x685781e4b29e4bb77cc2ff3c94dad300e5d2dde5",
                                    "value": {
                                        "current": "0x8385225367d8fda054f179983826197c621639e5",
                                        "prev": "0x0000000000000000000000000000000000000000",
                                        "typeTag": 1
                                    }
                                },
                                {
                                    "key": "0x8385225367d8fda054f179983826197c621639e5",
                                    "value": {
                                        "current": "0x0000000000000000000000000000000000000001",
                                        "prev": "0x0000000000000000000000000000000000000000",
                                        "typeTag": 1
                                    }
                                }
                            ],
                            "typeTag": 4
                        }
                    },
                    {
                        "name": "ownerCount",
                        "type": "uint256",
                        "value": {
                            "current": "3",
                            "prev": "0",
                            "typeTag": 1
                        }
                    },
                    {
                        "name": "masterCopy",
                        "type": "address",
                        "value": {
                            "current": "0x34cfac646f301356faa8b21e94227e3583fe3f5f",
                            "prev": "0x0000000000000000000000000000000000000000",
                            "typeTag": 1
                        }
                    }
                ]
            }
        ]
    }
}