{
    "balance_change": {
        "balanceChanges": [
            {
                "account": "0x6488e1ff75db5839959b882d0562c05692f2bc55",
                "assets": [
                    {
                        "address": "0xeeeeeeeeeeeeeeeeeeeeeeeeeeeeeeeeeeeeeeee",
                        "amount": "2.75",
                        "iconUrl": "https://assets.blocksec.com/image/1663669189317-3.png",
                        "isERC1155": false,
                        "isERC721": false,
                        "sign": false,
                        "value": "9984.24504"
                    },
                    {
                        "address": "0x576e2bed8f7b46d34016198911cdf9886f78bea7",
                        "amount": "734.489074204",
                        "iconUrl": "",
                        "isERC1155": false,
                        "isERC721": false,
                        "sign": true,
                        "value": "9792.388269"
                    }
                ]
            },
            {
                "account": "0x576e2bed8f7b46d34016198911cdf9886f78bea7",
                "assets": [
                    {
                        "address": "0x576e2bed8f7b46d34016198911cdf9886f78bea7",
                        "amount": "7.419081557",
                        "iconUrl": "",
                        "isERC1155": false,
                        "isERC721": false,
                        "sign": true,
                        "value": "98.41641719"
                    }
                ]
            },
            {
                "account": "0xc02aaa39b223fe8d0a0e5c4f27ead9083c756cc2",
                "assets": [
                    {
                        "address": "0xeeeeeeeeeeeeeeeeeeeeeeeeeeeeeeeeeeeeeeee",
                        "amount": "2.75",
                        "iconUrl": "https://assets.blocksec.com/image/1663669189317-3.png",
                        "isERC1155": false,
                        "isERC721": false,
                        "sign": true,
                        "value": "9984.24504"
                    },
                    {
                        "address": "0xc02aaa39b223fe8d0a0e5c4f27ead9083c756cc2",
                        "amount": "2.75",
                        "iconUrl": "https://assets.blocksec.com/icon/f1cb2d02c471d545bbc7722daf3277fd852d98e63d118771af7047bd8256c516.png",
                        "isERC1155": false,
                        "isERC721": false,
                        "sign": false,
                        "value": "9984.24504"
                    }
                ]
            },
            {
                "account": "0xe4b8583ccb95b25737c016ac88e539d0605949e8",
                "assets": [
                    {
                        "address": "0xc02aaa39b223fe8d0a0e5c4f27ead9083c756cc2",
                        "amount": "2.75",
                        "iconUrl": "https://assets.blocksec.com/icon/f1cb2d02c471d545bbc7722daf3277fd852d98e63d118771af7047bd8256c516.png",
                        "isERC1155": false,
                        "isERC721": false,
                        "sign": true,
                        "value": "9984.24504"
                    },
                    {
                        "address": "0x576e2bed8f7b46d34016198911cdf9886f78bea7",
                        "amount": "741.908155761",
                        "iconUrl": "",
                        "isERC1155": false,
                        "isERC721": false,
                        "sign": false,
                        "value": "9858.339589"
                    }
                ]
            }
        ]
    },
    "profile": {
        "basic_info": {
            "baseFee": "42.182711443",
            "blockNumber": 20075833,
            "callData": "0x0b86a4c1000000000000000000000000eeeeeeeeeeeeeeeeeeeeeeeeeeeeeeeeeeeeeeee0000000000000000000000000000000000000000000000002629f66e0c530000000000000000000000000000000000000000000000000000000000abe010f3c6000000000000000000000000c02aaa39b223fe8d0a0e5c4f27ead9083c756cc200000000000000000000000000000000000000000000000000000000000000a00000000000000000000000000000000000000000000000000000000000000001000000000000000000004de5e4b8583ccb95b25737c016ac88e539d0605949e8",
            "debugEnable": true,
            "errorInfo": "",
            "eventCount": 6,
            "feeRecipient": "0x1f9090aae28b8a3dceadf281b0f12828e676c326",
            "formatValue": "2.75",
            "gasLimit": 251396,
            "gasPrice": "42.282711443",
            "gasUsed": 138700,
            "intTxnCount": 8,
            "internalRevert": false,
            "internalRevertMessage": "",
            "isContractCreation": false,
            "isFlashloan": false,
            "maxFee": "46",
            "nonce": 360,
            "overwritedBlockNumber": -1,
            "priorityFee": "0.1",
            "receiver": "0xdef171fe48cf0115b1d80b88dc8eab59176fee57",
            "revertMessage": "",
            "sender": "0x6488e1ff75db5839959b882d0562c05692f2bc55",
            "simulationEnable": true,
            "sourceTxnHash": "0x28fa1d8275a89e49e510ed9a50bff0fdba15238b14ee92e85baa4e841c572699",
            "status": true,
            "timestamp": "2024-06-12T12:45:23Z",
            "transactionFee": "0.0058646120771441",
            "txnHash": "0x28fa1d8275a89e49e510ed9a50bff0fdba15238b14ee92e85baa4e841c572699",
            "txnIndex": 111,
            "type": 2,
            "value": "2750000000000000000"
        },
        "fund_flow": [
            {
                "amount": "2.75",
                "from": "0x6488e1ff75db5839959b882d0562c05692f2bc55",
                "id": 1,
                "isERC1155": false,
                "isERC721": false,
                "isReverted": false,
                "order": 1,
                "to": "0xdef171fe48cf0115b1d80b88dc8eab59176fee57",
                "token": "0xeeeeeeeeeeeeeeeeeeeeeeeeeeeeeeeeeeeeeeee"
            },
            {
                "amount": "2.75",
                "from": "0xdef171fe48cf0115b1d80b88dc8eab59176fee57",
                "id": 2,
                "isERC1155": false,
                "isERC721": false,
                "isReverted": false,
                "order": 2,
                "to": "0xc02aaa39b223fe8d0a0e5c4f27ead9083c756cc2",
                "token": "0xeeeeeeeeeeeeeeeeeeeeeeeeeeeeeeeeeeeeeeee"
            },
            {
                "amount": "2.75",
                "from": "0xc02aaa39b223fe8d0a0e5c4f27ead9083c756cc2",
                "id": 3,
                "isERC1155": false,
                "isERC721": false,
                "isReverted": false,
                "order": 3,
                "to": "0xdef171fe48cf0115b1d80b88dc8eab59176fee57",
                "token": "0xc02aaa39b223fe8d0a0e5c4f27ead9083c756cc2"
            },
            {
                "amount": "2.75",
                "from": "0xdef171fe48cf0115b1d80b88dc8eab59176fee57",
                "id": 4,
                "isERC1155": false,
                "isERC721": false,
                "isReverted": false,
                "order": 4,
                "to": "0xe4b8583ccb95b25737c016ac88e539d0605949e8",
                "token": "0xc02aaa39b223fe8d0a0e5c4f27ead9083c756cc2"
            },
            {
                "amount": "7.419081557",
                "from": "0xe4b8583ccb95b25737c016ac88e539d0605949e8",
                "id": 5,
                "isERC1155": false,
                "isERC721": false,
                "isReverted": false,
                "order": 5,
                "to": "0x576e2bed8f7b46d34016198911cdf9886f78bea7",
                "token": "0x576e2bed8f7b46d34016198911cdf9886f78bea7"
            },
            {
                "amount": "734.489074204",
                "from": "0xe4b8583ccb95b25737c016ac88e539d0605949e8",
                "id": 6,
                "isERC1155": false,
                "isERC721": false,
                "isReverted": false,
                "order": 6,
                "to": "0x6488e1ff75db5839959b882d0562c05692f2bc55",
                "token": "0x576e2bed8f7b46d34016198911cdf9886f78bea7"
            }
        ],
        "token_infos": [
            {
                "address": "0x576e2bed8f7b46d34016198911cdf9886f78bea7",
                "decimals": 9
            },
            {
                "address": "0xc02aaa39b223fe8d0a0e5c4f27ead9083c756cc2",
                "decimals": 18
            },
            {
                "address": "0xeeeeeeeeeeeeeeeeeeeeeeeeeeeeeeeeeeeeeeee",
                "decimals": 18
            }
        ]
    },
    "address_label": {
        "labels": [
            {
                "address": "0x576e2bed8f7b46d34016198911cdf9886f78bea7",
                "label": "Maga: TRUMP Token"
            },
            {
                "address": "0xe4b8583ccb95b25737c016ac88e539d0605949e8",
                "label": "Uniswap V2 (UNI-V2)"
            },
            {
                "address": "0xdef171fe48cf0115b1d80b88dc8eab59176fee57",
                "label": "Paraswap v5: Augustus Swapper Mainnet"
            },
            {
                "address": "0x0000000000000000000000000000000000000001",
                "label": "Precompiled"
            },
            {
                "address": "0x0000000000000000000000000000000000000002",
                "label": "Precompiled"
            },
            {
                "address": "0x0000000000000000000000000000000000000004",
                "label": "Precompiled"
            },
            {
                "address": "0xeeeeeeeeeeeeeeeeeeeeeeeeeeeeeeeeeeeeeeee",
                "label": "Ether"
            },
            {
                "address": "0xc02aaa39b223fe8d0a0e5c4f27ead9083c756cc2",
                "label": "Wrapped Ether (WETH)"
            },
            {
                "address": "0x4ff0dec5f9a763aa1e5c2a962aa6f4edfee4f9ea",
                "label": "NewUniswapV2Router"
            },
            {
                "address": "0x0000000000000000000000000000000000000003",
                "label": "Precompiled"
            }
        ]
    },
    "trace": {
        "accountLabels": null,
        "dataMap": {
            "-1": {
                "invocation": {
                    "address": "0x6488e1ff75db5839959b882d0562c05692f2bc55",
                    "callData": "",
                    "decodedMethod": null,
                    "errorInfo": "",
                    "fromAddress": "",
                    "gasUsed": 0,
                    "id": -1,
                    "methodDecoded": false,
                    "operation": "",
                    "output": "",
                    "revert": false,
                    "revertMessage": "",
                    "selector": "",
                    "status": false,
                    "value": ""
                },
                "nodeType": 0
            },
            "0": {
                "invocation": {
                    "address": "0xdef171fe48cf0115b1d80b88dc8eab59176fee57",
                    "callData": "0x000000000000000000000000eeeeeeeeeeeeeeeeeeeeeeeeeeeeeeeeeeeeeeee0000000000000000000000000000000000000000000000002629f66e0c530000000000000000000000000000000000000000000000000000000000abe010f3c6000000000000000000000000c02aaa39b223fe8d0a0e5c4f27ead9083c756cc200000000000000000000000000000000000000000000000000000000000000a00000000000000000000000000000000000000000000000000000000000000001000000000000000000004de5e4b8583ccb95b25737c016ac88e539d0605949e8",
                    "decodedMethod": {
                        "callParams": [
                            {
                                "name": "tokenIn",
                                "type": "address",
                                "value": "0xeeeeeeeeeeeeeeeeeeeeeeeeeeeeeeeeeeeeeeee"
                            },
                            {
                                "name": "amountIn",
                                "type": "uint256",
                                "value": "2,750,000,000,000,000,000"
                            },
                            {
                                "name": "amountOutMin",
                                "type": "uint256",
                                "value": "738,198,614,982"
                            },
                            {
                                "name": "weth",
                                "type": "address",
                                "value": "0xc02aaa39b223fe8d0a0e5c4f27ead9083c756cc2"
                            },
                            {
                                "name": "pools",
                                "type": "uint256[]",
                                "value": [
                                    "29,145,109,910,934,968,171,508,575,734,379,032,198,146,585,983,011,304"
                                ]
                            }
                        ],
                        "constructorArguments": "",
                        "name": "swapOnUniswapV2Fork",
                        "returnParams": [],
                        "signature": "swapOnUniswapV2Fork(address,uint256,uint256,address,uint256[])"
                    },
                    "errorInfo": "",
                    "fromAddress": "0x6488e1ff75db5839959b882d0562c05692f2bc55",
                    "gasUsed": 138700,
                    "id": 0,
                    "methodDecoded": true,
                    "operation": "CALL",
                    "output": "",
                    "revert": false,
                    "revertMessage": "",
                    "selector": "0x0b86a4c1",
                    "status": true,
                    "value": "2.75"
                },
                "nodeType": 0
            },
            "1": {
                "invocation": {
                    "address": "0x4ff0dec5f9a763aa1e5c2a962aa6f4edfee4f9ea",
                    "callData": "0x000000000000000000000000eeeeeeeeeeeeeeeeeeeeeeeeeeeeeeeeeeeeeeee0000000000000000000000000000000000000000000000002629f66e0c530000000000000000000000000000000000000000000000000000000000abe010f3c6000000000000000000000000c02aaa39b223fe8d0a0e5c4f27ead9083c756cc200000000000000000000000000000000000000000000000000000000000000a00000000000000000000000000000000000000000000000000000000000000001000000000000000000004de5e4b8583ccb95b25737c016ac88e539d0605949e8",
                    "decodedMethod": {
                        "callParams": [
                            {
                                "name": "tokenIn",
                                "type": "address",
                                "value": "0xeeeeeeeeeeeeeeeeeeeeeeeeeeeeeeeeeeeeeeee"
                            },
                            {
                                "name": "amountIn",
                                "type": "uint256",
                                "value": "2,750,000,000,000,000,000"
                            },
                            {
                                "name": "amountOutMin",
                                "type": "uint256",
                                "value": "738,198,614,982"
                            },
                            {
                                "name": "weth",
                                "type": "address",
                                "value": "0xc02aaa39b223fe8d0a0e5c4f27ead9083c756cc2"
                            },
                            {
                                "name": "pools",
                                "type": "uint256[]",
                                "value": [
                                    "29,145,109,910,934,968,171,508,575,734,379,032,198,146,585,983,011,304"
                                ]
                            }
                        ],
                        "constructorArguments": "",
                        "name": "swapOnUniswapV2Fork",
                        "returnParams": [],
                        "signature": "swapOnUniswapV2Fork(address,uint256,uint256,address,uint256[])"
                    },
                    "errorInfo": "",
                    "fromAddress": "0xdef171fe48cf0115b1d80b88dc8eab59176fee57",
                    "gasUsed": 133188,
                    "id": 1,
                    "methodDecoded": true,
                    "operation": "DELEGATECALL",
                    "output": "",
                    "revert": false,
                    "revertMessage": "",
                    "selector": "0x0b86a4c1",
                    "status": true,
                    "value": "2.75"
                },
                "nodeType": 0
            },
            "10": {
                "event": {
                    "contract": "0x576e2bed8f7b46d34016198911cdf9886f78bea7",
                    "decodedLog": {
                        "name": "Transfer",
                        "params": [
                            {
                                "name": "from",
                                "type": "address",
                                "value": "0xe4b8583ccb95b25737c016ac88e539d0605949e8"
                            },
                            {
                                "name": "to",
                                "type": "address",
                                "value": "0x6488e1ff75db5839959b882d0562c05692f2bc55"
                            },
                            {
                                "decimalAvailable": true,
                                "name": "value",
                                "type": "uint256",
                                "value": "734,489,074,204"
                            }
                        ],
                        "signature": "Transfer(address,address,uint256)"
                    },
                    "id": 10,
                    "logData": "0x000000000000000000000000000000000000000000000000000000ab02f5da1c",
                    "logDecoded": true,
                    "operation": "EVENT",
                    "revert": false,
                    "status": true,
                    "topics": [
                        "0xddf252ad1be2c89b69c2b068fc378daa952ba7f163c4a11628f55a4df523b3ef",
                        "0x000000000000000000000000e4b8583ccb95b25737c016ac88e539d0605949e8",
                        "0x0000000000000000000000006488e1ff75db5839959b882d0562c05692f2bc55"
                    ]
                },
                "nodeType": 1
            },
            "11": {
                "invocation": {
                    "address": "0x576e2bed8f7b46d34016198911cdf9886f78bea7",
                    "callData": "0x000000000000000000000000e4b8583ccb95b25737c016ac88e539d0605949e8",
                    "decodedMethod": {
                        "callParams": [
                            {
                                "name": "account",
                                "type": "address",
                                "value": "0xe4b8583ccb95b25737c016ac88e539d0605949e8"
                            }
                        ],
                        "constructorArguments": "",
                        "name": "balanceOf",
                        "returnParams": [
                            {
                                "decimalAvailable": true,
                                "name": "",
                                "type": "uint256",
                                "value": "440,160,295,656,487"
                            }
                        ],
                        "signature": "balanceOf(address)"
                    },
                    "errorInfo": "",
                    "fromAddress": "0xe4b8583ccb95b25737c016ac88e539d0605949e8",
                    "gasUsed": 595,
                    "id": 11,
                    "methodDecoded": true,
                    "operation": "STATICCALL",
                    "output": "0x00000000000000000000000000000000000000000000000000019052ce111c27",
                    "revert": false,
                    "revertMessage": "",
                    "selector": "0x70a08231",
                    "status": true,
                    "value": "0"
                },
                "nodeType": 0
            },
            "12": {
                "invocation": {
                    "address": "0xc02aaa39b223fe8d0a0e5c4f27ead9083c756cc2",
                    "callData": "0x000000000000000000000000e4b8583ccb95b25737c016ac88e539d0605949e8",
                    "decodedMethod": {
                        "callParams": [
                            {
                                "name": "",
                                "type": "address",
                                "value": "0xe4b8583ccb95b25737c016ac88e539d0605949e8"
                            }
                        ],
                        "constructorArguments": "",
                        "name": "balanceOf",
                        "returnParams": [
                            {
                                "decimalAvailable": true,
                                "name": "",
                                "type": "uint256",
                                "value": "1,629,379,227,949,612,174,316"
                            }
                        ],
                        "signature": "balanceOf(address)"
                    },
                    "errorInfo": "",
                    "fromAddress": "0xe4b8583ccb95b25737c016ac88e539d0605949e8",
                    "gasUsed": 534,
                    "id": 12,
                    "methodDecoded": true,
                    "operation": "STATICCALL",
                    "output": "0x000000000000000000000000000000000000000000000058542ddeffc0dc8bec",
                    "revert": false,
                    "revertMessage": "",
                    "selector": "0x70a08231",
                    "status": true,
                    "value": "0"
                },
                "nodeType": 0
            },
            "13": {
                "event": {
                    "contract": "0xe4b8583ccb95b25737c016ac88e539d0605949e8",
                    "decodedLog": {
                        "name": "Sync",
                        "params": [
                            {
                                "name": "reserve0",
                                "type": "uint112",
                                "value": "440,160,295,656,487"
                            },
                            {
                                "name": "reserve1",
                                "type": "uint112",
                                "value": "1,629,379,227,949,612,174,316"
                            }
                        ],
                        "signature": "Sync(uint112,uint112)"
                    },
                    "id": 13,
                    "logData": "0x00000000000000000000000000000000000000000000000000019052ce111c27000000000000000000000000000000000000000000000058542ddeffc0dc8bec",
                    "logDecoded": true,
                    "operation": "EVENT",
                    "revert": false,
                    "status": true,
                    "topics": [
                        "0x1c411e9a96e071241c2f21f7726b17ae89e3cab4c78be50e062b03a9fffbbad1"
                    ]
                },
                "nodeType": 1
            },
            "14": {
                "event": {
                    "contract": "0xe4b8583ccb95b25737c016ac88e539d0605949e8",
                    "decodedLog": {
                        "name": "Swap",
                        "params": [
                            {
                                "name": "sender",
                                "type": "address",
                                "value": "0xdef171fe48cf0115b1d80b88dc8eab59176fee57"
                            },
                            {
                                "name": "to",
                                "type": "address",
                                "value": "0x6488e1ff75db5839959b882d0562c05692f2bc55"
                            },
                            {
                                "name": "amount0In",
                                "type": "uint256",
                                "value": "0"
                            },
                            {
                                "name": "amount1In",
                                "type": "uint256",
                                "value": "2,750,000,000,000,000,000"
                            },
                            {
                                "name": "amount0Out",
                                "type": "uint256",
                                "value": "741,908,155,761"
                            },
                            {
                                "name": "amount1Out",
                                "type": "uint256",
                                "value": "0"
                            }
                        ],
                        "signature": "Swap(address,uint256,uint256,uint256,uint256,address)"
                    },
                    "id": 14,
                    "logData": "0x00000000000000000000000000000000000000000000000000000000000000000000000000000000000000000000000000000000000000002629f66e0c530000000000000000000000000000000000000000000000000000000000acbd2c0d710000000000000000000000000000000000000000000000000000000000000000",
                    "logDecoded": true,
                    "operation": "EVENT",
                    "revert": false,
                    "status": true,
                    "topics": [
                        "0xd78ad95fa46c994b6551d0da85fc275fe613ce37657fb8d5e3d130840159d822",
                        "0x000000000000000000000000def171fe48cf0115b1d80b88dc8eab59176fee57",
                        "0x0000000000000000000000006488e1ff75db5839959b882d0562c05692f2bc55"
                    ]
                },
                "nodeType": 1
            },
            "2": {
                "invocation": {
                    "address": "0xc02aaa39b223fe8d0a0e5c4f27ead9083c756cc2",
                    "callData": "0x",
                    "decodedMethod": {
                        "callParams": [],
                        "constructorArguments": "",
                        "name": "deposit",
                        "returnParams": [],
                        "signature": "deposit()"
                    },
                    "errorInfo": "",
                    "fromAddress": "0xdef171fe48cf0115b1d80b88dc8eab59176fee57",
                    "gasUsed": 23974,
                    "id": 2,
                    "methodDecoded": true,
                    "operation": "CALL",
                    "output": "",
                    "revert": false,
                    "revertMessage": "",
                    "selector": "0xd0e30db0",
                    "status": true,
                    "value": "2.75"
                },
                "nodeType": 0
            },
            "3": {
                "event": {
                    "contract": "0xc02aaa39b223fe8d0a0e5c4f27ead9083c756cc2",
                    "decodedLog": {
                        "name": "Deposit",
                        "params": [
                            {
                                "name": "dst",
                                "type": "address",
                                "value": "0xdef171fe48cf0115b1d80b88dc8eab59176fee57"
                            },
                            {
                                "name": "wad",
                                "type": "uint256",
                                "value": "2,750,000,000,000,000,000"
                            }
                        ],
                        "signature": "Deposit(address,uint256)"
                    },
                    "id": 3,
                    "logData": "0x0000000000000000000000000000000000000000000000002629f66e0c530000",
                    "logDecoded": true,
                    "operation": "EVENT",
                    "revert": false,
                    "status": true,
                    "topics": [
                        "0xe1fffcc4923d04b559f4d29a8bfc6cda04eb5b0d3c460751c2402c5c5cc9109c",
                        "0x000000000000000000000000def171fe48cf0115b1d80b88dc8eab59176fee57"
                    ]
                },
                "nodeType": 1
            },
            "4": {
                "invocation": {
                    "address": "0xc02aaa39b223fe8d0a0e5c4f27ead9083c756cc2",
                    "callData": "0x000000000000000000000000e4b8583ccb95b25737c016ac88e539d0605949e80000000000000000000000000000000000000000000000002629f66e0c530000",
                    "decodedMethod": {
                        "callParams": [
                            {
                                "name": "dst",
                                "type": "address",
                                "value": "0xe4b8583ccb95b25737c016ac88e539d0605949e8"
                            },
                            {
                                "decimalAvailable": true,
                                "name": "wad",
                                "type": "uint256",
                                "value": "2,750,000,000,000,000,000"
                            }
                        ],
                        "constructorArguments": "",
                        "name": "transfer",
                        "returnParams": [
                            {
                                "name": "",
                                "type": "bool",
                                "value": true
                            }
                        ],
                        "signature": "transfer(address,uint256)"
                    },
                    "errorInfo": "",
                    "fromAddress": "0xdef171fe48cf0115b1d80b88dc8eab59176fee57",
                    "gasUsed": 8062,
                    "id": 4,
                    "methodDecoded": true,
                    "operation": "CALL",
                    "output": "0x0000000000000000000000000000000000000000000000000000000000000001",
                    "revert": false,
                    "revertMessage": "",
                    "selector": "0xa9059cbb",
                    "status": true,
                    "value": "0"
                },
                "nodeType": 0
            },
            "5": {
                "event": {
                    "contract": "0xc02aaa39b223fe8d0a0e5c4f27ead9083c756cc2",
                    "decodedLog": {
                        "name": "Transfer",
                        "params": [
                            {
                                "name": "src",
                                "type": "address",
                                "value": "0xdef171fe48cf0115b1d80b88dc8eab59176fee57"
                            },
                            {
                                "name": "dst",
                                "type": "address",
                                "value": "0xe4b8583ccb95b25737c016ac88e539d0605949e8"
                            },
                            {
                                "decimalAvailable": true,
                                "name": "wad",
                                "type": "uint256",
                                "value": "2,750,000,000,000,000,000"
                            }
                        ],
                        "signature": "Transfer(address,address,uint256)"
                    },
                    "id": 5,
                    "logData": "0x0000000000000000000000000000000000000000000000002629f66e0c530000",
                    "logDecoded": true,
                    "operation": "EVENT",
                    "revert": false,
                    "status": true,
                    "topics": [
                        "0xddf252ad1be2c89b69c2b068fc378daa952ba7f163c4a11628f55a4df523b3ef",
                        "0x000000000000000000000000def171fe48cf0115b1d80b88dc8eab59176fee57",
                        "0x000000000000000000000000e4b8583ccb95b25737c016ac88e539d0605949e8"
                    ]
                },
                "nodeType": 1
            },
            "6": {
                "invocation": {
                    "address": "0xe4b8583ccb95b25737c016ac88e539d0605949e8",
                    "callData": "0x",
                    "decodedMethod": {
                        "callParams": [],
                        "constructorArguments": "",
                        "name": "getReserves",
                        "returnParams": [
                            {
                                "name": "_reserve0",
                                "type": "uint112",
                                "value": "440,902,203,812,248"
                            },
                            {
                                "name": "_reserve1",
                                "type": "uint112",
                                "value": "1,626,629,227,949,612,174,316"
                            },
                            {
                                "name": "_blockTimestampLast",
                                "type": "uint32",
                                "value": "1,718,196,215"
                            }
                        ],
                        "signature": "getReserves()"
                    },
                    "errorInfo": "",
                    "fromAddress": "0xdef171fe48cf0115b1d80b88dc8eab59176fee57",
                    "gasUsed": 2504,
                    "id": 6,
                    "methodDecoded": true,
                    "operation": "STATICCALL",
                    "output": "0x000000000000000000000000000000000000000000000000000190ff8b3d29980000000000000000000000000000000000000000000000582e03e891b4898bec00000000000000000000000000000000000000000000000000000000666997f7",
                    "revert": false,
                    "revertMessage": "",
                    "selector": "0x0902f1ac",
                    "status": true,
                    "value": "0"
                },
                "nodeType": 0
            },
            "7": {
                "invocation": {
                    "address": "0xe4b8583ccb95b25737c016ac88e539d0605949e8",
                    "callData": "0x000000000000000000000000000000000000000000000000000000acbd2c0d7100000000000000000000000000000000000000000000000000000000000000000000000000000000000000006488e1ff75db5839959b882d0562c05692f2bc5500000000000000000000000000000000000000000000000000000000000000800000000000000000000000000000000000000000000000000000000000000000",
                    "decodedMethod": {
                        "callParams": [
                            {
                                "name": "amount0Out",
                                "type": "uint256",
                                "value": "741,908,155,761"
                            },
                            {
                                "name": "amount1Out",
                                "type": "uint256",
                                "value": "0"
                            },
                            {
                                "name": "to",
                                "type": "address",
                                "value": "0x6488e1ff75db5839959b882d0562c05692f2bc55"
                            },
                            {
                                "name": "data",
                                "type": "bytes",
                                "value": "0x"
                            }
                        ],
                        "constructorArguments": "",
                        "name": "swap",
                        "returnParams": [],
                        "signature": "swap(uint256,uint256,address,bytes)"
                    },
                    "errorInfo": "",
                    "fromAddress": "0xdef171fe48cf0115b1d80b88dc8eab59176fee57",
                    "gasUsed": 82731,
                    "id": 7,
                    "methodDecoded": true,
                    "operation": "CALL",
                    "output": "",
                    "revert": false,
                    "revertMessage": "",
                    "selector": "0x022c0d9f",
                    "status": true,
                    "value": "0"
                },
                "nodeType": 0
            },
            "8": {
                "invocation": {
                    "address": "0x576e2bed8f7b46d34016198911cdf9886f78bea7",
                    "callData": "0x0000000000000000000000006488e1ff75db5839959b882d0562c05692f2bc55000000000000000000000000000000000000000000000000000000acbd2c0d71",
                    "decodedMethod": {
                        "callParams": [
                            {
                                "name": "recipient",
                                "type": "address",
                                "value": "0x6488e1ff75db5839959b882d0562c05692f2bc55"
                            },
                            {
                                "decimalAvailable": true,
                                "name": "amount",
                                "type": "uint256",
                                "value": "741,908,155,761"
                            }
                        ],
                        "constructorArguments": "",
                        "name": "transfer",
                        "returnParams": [
                            {
                                "name": "",
                                "type": "bool",
                                "value": true
                            }
                        ],
                        "signature": "transfer(address,uint256)"
                    },
                    "errorInfo": "",
                    "fromAddress": "0xe4b8583ccb95b25737c016ac88e539d0605949e8",
                    "gasUsed": 47779,
                    "id": 8,
                    "methodDecoded": true,
                    "operation": "CALL",
                    "output": "0x0000000000000000000000000000000000000000000000000000000000000001",
                    "revert": false,
                    "revertMessage": "",
                    "selector": "0xa9059cbb",
                    "status": true,
                    "value": "0"
                },
                "nodeType": 0
            },
            "9": {
                "event": {
                    "contract": "0x576e2bed8f7b46d34016198911cdf9886f78bea7",
                    "decodedLog": {
                        "name": "Transfer",
                        "params": [
                            {
                                "name": "from",
                                "type": "address",
                                "value": "0xe4b8583ccb95b25737c016ac88e539d0605949e8"
                            },
                            {
                                "name": "to",
                                "type": "address",
                                "value": "0x576e2bed8f7b46d34016198911cdf9886f78bea7"
                            },
                            {
                                "decimalAvailable": true,
                                "name": "value",
                                "type": "uint256",
                                "value": "7,419,081,557"
                            }
                        ],
                        "signature": "Transfer(address,address,uint256)"
                    },
                    "id": 9,
                    "logData": "0x00000000000000000000000000000000000000000000000000000001ba363355",
                    "logDecoded": true,
                    "operation": "EVENT",
                    "revert": false,
                    "status": true,
                    "topics": [
                        "0xddf252ad1be2c89b69c2b068fc378daa952ba7f163c4a11628f55a4df523b3ef",
                        "0x000000000000000000000000e4b8583ccb95b25737c016ac88e539d0605949e8",
                        "0x000000000000000000000000576e2bed8f7b46d34016198911cdf9886f78bea7"
                    ]
                },
                "nodeType": 1
            }
        },
        "gasFlame": [
            {
                "children": [
                    {
                        "children": [
                            {
                                "children": [],
                                "depth": 0,
                                "name": "Initial Gas",
                                "value": 22860
                            },
                            {
                                "children": [
                                    {
                                        "children": [
                                            {
                                                "children": [],
                                                "depth": 2,
                                                "name": "deposit",
                                                "value": 23974
                                            },
                                            {
                                                "children": [],
                                                "depth": 2,
                                                "name": "transfer",
                                                "value": 8062
                                            },
                                            {
                                                "children": [],
                                                "depth": 2,
                                                "name": "getReserves",
                                                "value": 2504
                                            },
                                            {
                                                "children": [
                                                    {
                                                        "children": [],
                                                        "depth": 3,
                                                        "name": "transfer",
                                                        "value": 47779
                                                    },
                                                    {
                                                        "children": [],
                                                        "depth": 3,
                                                        "name": "balanceOf",
                                                        "value": 595
                                                    },
                                                    {
                                                        "children": [],
                                                        "depth": 3,
                                                        "name": "balanceOf",
                                                        "value": 534
                                                    }
                                                ],
                                                "depth": 2,
                                                "name": "swap",
                                                "value": 82731
                                            }
                                        ],
                                        "depth": 1,
                                        "name": "swapOnUniswapV2Fork",
                                        "value": 133188
                                    }
                                ],
                                "depth": 0,
                                "name": "Executed Gas",
                                "value": 138540
                            }
                        ],
                        "depth": -1,
                        "name": "Actual Gas Used",
                        "value": 138700
                    },
                    {
                        "children": [],
                        "depth": -1,
                        "name": "Refunded Gas",
                        "value": 22700
                    }
                ],
                "depth": -2,
                "name": "Total Gas",
                "value": 161400
            }
        ],
        "isConfirmed": true,
        "mainTrace": [
            {
                "children": [
                    {
                        "children": [
                            {
                                "children": [
                                    {
                                        "children": [
                                            {
                                                "children": [],
                                                "depth": 3,
                                                "id": 3,
                                                "order": 3
                                            }
                                        ],
                                        "depth": 2,
                                        "id": 2,
                                        "order": 2
                                    },
                                    {
                                        "children": [
                                            {
                                                "children": [],
                                                "depth": 3,
                                                "id": 5,
                                                "order": 5
                                            }
                                        ],
                                        "depth": 2,
                                        "id": 4,
                                        "order": 4
                                    },
                                    {
                                        "children": [],
                                        "depth": 2,
                                        "id": 6,
                                        "order": 6
                                    },
                                    {
                                        "children": [
                                            {
                                                "children": [
                                                    {
                                                        "children": [],
                                                        "depth": 4,
                                                        "id": 9,
                                                        "order": 9
                                                    },
                                                    {
                                                        "children": [],
                                                        "depth": 4,
                                                        "id": 10,
                                                        "order": 10
                                                    }
                                                ],
                                                "depth": 3,
                                                "id": 8,
                                                "order": 8
                                            },
                                            {
                                                "children": [],
                                                "depth": 3,
                                                "id": 11,
                                                "order": 11
                                            },
                                            {
                                                "children": [],
                                                "depth": 3,
                                                "id": 12,
                                                "order": 12
                                            },
                                            {
                                                "children": [],
                                                "depth": 3,
                                                "id": 13,
                                                "order": 13
                                            },
                                            {
                                                "children": [],
                                                "depth": 3,
                                                "id": 14,
                                                "order": 14
                                            }
                                        ],
                                        "depth": 2,
                                        "id": 7,
                                        "order": 7
                                    }
                                ],
                                "depth": 1,
                                "id": 1,
                                "order": 1
                            }
                        ],
                        "depth": 0,
                        "id": 0,
                        "order": 0
                    }
                ],
                "depth": -1,
                "id": -1,
                "order": -1
            }
        ],
        "mainTraceNodeCount": 15,
        "parentIdMap": {
            "0": -1,
            "1": 0,
            "10": 8,
            "11": 7,
            "12": 7,
            "13": 7,
            "14": 7,
            "2": 1,
            "3": 2,
            "4": 1,
            "5": 4,
            "6": 1,
            "7": 1,
            "8": 7,
            "9": 8
        },
        "tidyTrace": [
            {
                "children": [
                    {
                        "children": [
                            {
                                "children": [
                                    {
                                        "children": [
                                            {
                                                "children": [],
                                                "depth": 3,
                                                "id": 3,
                                                "order": 3
                                            }
                                        ],
                                        "depth": 2,
                                        "id": 2,
                                        "order": 2
                                    },
                                    {
                                        "children": [
                                            {
                                                "children": [],
                                                "depth": 3,
                                                "id": 5,
                                                "order": 5
                                            }
                                        ],
                                        "depth": 2,
                                        "id": 4,
                                        "order": 4
                                    },
                                    {
                                        "children": [
                                            {
                                                "children": [
                                                    {
                                                        "children": [],
                                                        "depth": 4,
                                                        "id": 9,
                                                        "order": 9
                                                    },
                                                    {
                                                        "children": [],
                                                        "depth": 4,
                                                        "id": 10,
                                                        "order": 10
                                                    }
                                                ],
                                                "depth": 3,
                                                "id": 8,
                                                "order": 8
                                            },
                                            {
                                                "children": [],
                                                "depth": 3,
                                                "id": 13,
                                                "order": 13
                                            },
                                            {
                                                "children": [],
                                                "depth": 3,
                                                "id": 14,
                                                "order": 14
                                            }
                                        ],
                                        "depth": 2,
                                        "id": 7,
                                        "order": 7
                                    }
                                ],
                                "depth": 1,
                                "id": 1,
                                "order": 1
                            }
                        ],
                        "depth": 0,
                        "id": 0,
                        "order": 0
                    }
                ],
                "depth": -1,
                "id": -1,
                "order": -1
            }
        ],
        "tidyTraceNodeCount": 12
    },
    "state_change": {
        "stateChanges": [
            {
                "address": "0x576e2bed8f7b46d34016198911cdf9886f78bea7",
                "erc": "ERC-20",
                "slots": [
                    {
                        "current": "0x00000000000000000000000000000000000000000000000000019052ce111c27",
                        "key": "0x971f9b48d4300a657b0cb332e19f215a93ce5f067e481c28c3b9565610979afd",
                        "prev": "0x000000000000000000000000000000000000000000000000000190ff8b3d2998"
                    },
                    {
                        "current": "0x0000000000000000000000000000000000000000000000000000015f292e95f4",
                        "key": "0x273e9cb0a1fcdebd7441533bd17f4ab5b0f4026e11229252dad5b611b3e286b9",
                        "prev": "0x000000000000000000000000000000000000000000000000000000b42638bbd8"
                    },
                    {
                        "current": "0x00000000000000000000000000000000000000000000000000000000000195ee",
                        "key": "0x0000000000000000000000000000000000000000000000000000000000000010",
                        "prev": "0x00000000000000000000000000000000000000000000000000000000000195ed"
                    },
                    {
                        "current": "0x0000000000000000000000000000000000000000000000000000019c3abfa2a8",
                        "key": "0x29b65e180e9fb871e0d0eb4bfdab825c6bf6214b0a82ddd9496a02d68052bcd4",
                        "prev": "0x0000000000000000000000000000000000000000000000000000019a80896f53"
                    }
                ],
                "storageVariables": [
                    {
                        "name": "_buyCount",
                        "type": "uint256",
                        "value": {
                            "current": "103918",
                            "prev": "103917",
                            "typeTag": 1
                        }
                    },
                    {
                        "name": "_balances",
                        "type": "mapping(address => uint256)",
                        "value": {
                            "pairs": [
                                {
                                    "key": "0x576e2bed8f7b46d34016198911cdf9886f78bea7",
                                    "value": {
                                        "current": "1770512163496",
                                        "prev": "1763093081939",
                                        "typeTag": 1
                                    }
                                },
                                {
                                    "key": "0x6488e1ff75db5839959b882d0562c05692f2bc55",
                                    "value": {
                                        "current": "1508224439796",
                                        "prev": "773735365592",
                                        "typeTag": 1
                                    }
                                },
                                {
                                    "key": "0xe4b8583ccb95b25737c016ac88e539d0605949e8",
                                    "value": {
                                        "current": "440160295656487",
                                        "prev": "440902203812248",
                                        "typeTag": 1
                                    }
                                }
                            ],
                            "typeTag": 4
                        }
                    }
                ]
            },
            {
                "address": "0xc02aaa39b223fe8d0a0e5c4f27ead9083c756cc2",
                "erc": "ERC-20",
                "slots": [
                    {
                        "current": "0x000000000000000000000000000000000000000000000058542ddeffc0dc8bec",
                        "key": "0x04d13e916793bde5fcf5526e50a9bcf9aa246a01345b3178529af0f521376e0f",
                        "prev": "0x0000000000000000000000000000000000000000000000582e03e891b4898bec"
                    }
                ],
                "storageVariables": [
                    {
                        "name": "balanceOf",
                        "type": "mapping(address => uint256)",
                        "value": {
                            "pairs": [
                                {
                                    "key": "0xe4b8583ccb95b25737c016ac88e539d0605949e8",
                                    "value": {
                                        "current": "1629379227949612174316",
                                        "prev": "1626629227949612174316",
                                        "typeTag": 1
                                    }
                                }
                            ],
                            "typeTag": 4
                        }
                    }
                ]
            },
            {
                "address": "0xe4b8583ccb95b25737c016ac88e539d0605949e8",
                "erc": "ERC-20",
                "slots": [
                    {
                        "current": "0x000000000000000000000000154d754418e5d2730d557031f8e61fefefa584e0",
                        "key": "0x0000000000000000000000000000000000000000000000000000000000000009",
                        "prev": "0x000000000000000000000000154d5d84491c04f7299f7f45bbc941c17e4253cc"
                    },
                    {
                        "current": "0x0000000000000000000000000000000002ab46467140053c2e7211750b7e7d98",
                        "key": "0x000000000000000000000000000000000000000000000000000000000000000a",
                        "prev": "0x0000000000000000000000000000000002ab4644861e7be0671c8c0b11624604"
                    },
                    {
                        "current": "0x66699863000000000058542ddeffc0dc8bec00000000000000019052ce111c27",
                        "key": "0x0000000000000000000000000000000000000000000000000000000000000008",
                        "prev": "0x666997f70000000000582e03e891b4898bec000000000000000190ff8b3d2998"
                    }
                ],
                "storageVariables": [
                    {
                        "name": "price1CumulativeLast",
                        "type": "uint256",
                        "value": {
                            "current": "3547764104072120969970781319895874968",
                            "prev": "3547763952074437938417672687517320708",
                            "typeTag": 1
                        }
                    },
                    {
                        "name": "reserve0",
                        "type": "uint112",
                        "value": {
                            "current": "440160295656487",
                            "prev": "440902203812248",
                            "typeTag": 1
                        }
                    },
                    {
                        "name": "reserve1",
                        "type": "uint112",
                        "value": {
                            "current": "1629379227949612174316",
                            "prev": "1626629227949612174316",
                            "typeTag": 1
                        }
                    },
                    {
                        "name": "blockTimestampLast",
                        "type": "uint32",
                        "value": {
                            "current": "1718196323",
                            "prev": "1718196215",
                            "typeTag": 1
                        }
                    },
                    {
                        "name": "price0CumulativeLast",
                        "type": "uint256",
                        "value": {
                            "current": "121616178877337230864291948363495650326995109088",
                            "prev": "121614110024630703973823680089297240757247300556",
                            "typeTag": 1
                        }
                    }
                ]
            }
        ]
    }
}