{
    "balance_change": {
        "balanceChanges": [
            {
                "account": "0x06a2cf3f024d8871baedd0f7bd9340001aada574",
                "assets": [
                    {
                        "address": "0xaec2e87e0a235266d9c5adc9deb4b2e29b54d009",
                        "amount": "77",
                        "iconUrl": "https://assets.blocksec.com/icon/db7e4ee9935d6cf1c07560c5a8d52b66ae62f506205f4a55f8dbc93a68716fff.png",
                        "isERC1155": false,
                        "isERC721": false,
                        "sign": false,
                        "value": ""
                    }
                ]
            },
            {
                "account": "0xf2da5add7c6f8a47997efa04049ee7888542744b",
                "assets": [
                    {
                        "address": "0xaec2e87e0a235266d9c5adc9deb4b2e29b54d009",
                        "amount": "77",
                        "iconUrl": "https://assets.blocksec.com/icon/db7e4ee9935d6cf1c07560c5a8d52b66ae62f506205f4a55f8dbc93a68716fff.png",
                        "isERC1155": false,
                        "isERC721": false,
                        "sign": true,
                        "value": ""
                    }
                ]
            }
        ]
    },
    "profile": {
        "basic_info": {
            "baseFee": "",
            "blockNumber": 3061976,
            "callData": "0xa9059cbb000000000000000000000000f2da5add7c6f8a47997efa04049ee7888542744b000000000000000000000000000000000000000000000000000000000000004d",
            "debugEnable": true,
            "errorInfo": "",
            "eventCount": 1,
            "feeRecipient": "0x1a060b0604883a99809eb3f798df71bef6c358f1",
            "formatValue": "0",
            "gasLimit": 150000,
            "gasPrice": "60",
            "gasUsed": 84253,
            "intTxnCount": 7,
            "internalRevert": false,
            "internalRevertMessage": "",
            "isContractCreation": false,
            "isFlashloan": false,
            "maxFee": "",
            "nonce": 2889,
            "overwritedBlockNumber": -1,
            "priorityFee": "",
            "receiver": "0xaec2e87e0a235266d9c5adc9deb4b2e29b54d009",
            "revertMessage": "",
            "sender": "0x06a2cf3f024d8871baedd0f7bd9340001aada574",
            "simulationEnable": true,
            "sourceTxnHash": "0x284b3021ab4c77f471c40422c552605e55f546ac57457128a37cee1fccefe013",
            "status": true,
            "timestamp": "2017-01-25T16:08:34Z",
            "transactionFee": "0.00505518",
            "txnHash": "0x284b3021ab4c77f471c40422c552605e55f546ac57457128a37cee1fccefe013",
            "txnIndex": 0,
            "type": 0,
            "value": "0"
        },
        "fund_flow": [
            {
                "amount": "77",
                "from": "0x06a2cf3f024d8871baedd0f7bd9340001aada574",
                "id": 1,
                "isERC1155": false,
                "isERC721": false,
                "isReverted": false,
                "order": 1,
                "to": "0xf2da5add7c6f8a47997efa04049ee7888542744b",
                "token": "0xaec2e87e0a235266d9c5adc9deb4b2e29b54d009"
            }
        ],
        "token_infos": [
            {
                "address": "0xaec2e87e0a235266d9c5adc9deb4b2e29b54d009",
                "decimals": 0
            },
            {
                "address": "0xc02aaa39b223fe8d0a0e5c4f27ead9083c756cc2",
                "decimals": 18
            },
            {
                "address": "0xeeeeeeeeeeeeeeeeeeeeeeeeeeeeeeeeeeeeeeee",
                "decimals": 18
            }
        ]
    },
    "address_label": {
        "labels": [
            {
                "address": "0xaec2e87e0a235266d9c5adc9deb4b2e29b54d009",
                "label": "SingularDTV Token"
            },
            {
                "address": "0xc78310231aa53bd3d0fea2f8c705c67730929d8f",
                "label": "SingularDTV: Wallet"
            },
            {
                "address": "0x0000000000000000000000000000000000000001",
                "label": "Precompiled"
            },
            {
                "address": "0x0000000000000000000000000000000000000002",
                "label": "Precompiled"
            },
            {
                "address": "0x0000000000000000000000000000000000000003",
                "label": "Precompiled"
            },
            {
                "address": "0x0000000000000000000000000000000000000004",
                "label": "Precompiled"
            },
            {
                "address": "0xeeeeeeeeeeeeeeeeeeeeeeeeeeeeeeeeeeeeeeee",
                "label": "Ether"
            },
            {
                "address": "0xe736091fc36f1ad476f5e4e03e4425940822d3ba",
                "label": "SingularDTV: Fund"
            }
        ]
    },
    "trace": {
        "accountLabels": null,
        "dataMap": {
            "-1": {
                "invocation": {
                    "address": "0x06a2cf3f024d8871baedd0f7bd9340001aada574",
                    "callData": "",
                    "decodedMethod": null,
                    "errorInfo": "",
                    "fromAddress": "",
                    "gasUsed": 0,
                    "id": -1,
                    "methodDecoded": false,
                    "operation": "",
                    "output": "",
                    "revert": false,
                    "revertMessage": "",
                    "selector": "",
                    "status": false,
                    "value": ""
                },
                "nodeType": 0
            },
            "0": {
                "invocation": {
                    "address": "0xaec2e87e0a235266d9c5adc9deb4b2e29b54d009",
                    "callData": "0x000000000000000000000000f2da5add7c6f8a47997efa04049ee7888542744b000000000000000000000000000000000000000000000000000000000000004d",
                    "decodedMethod": {
                        "callParams": [
                            {
                                "name": "to",
                                "type": "address",
                                "value": "0xf2da5add7c6f8a47997efa04049ee7888542744b"
                            },
                            {
                                "decimalAvailable": true,
                                "name": "value",
                                "type": "uint256",
                                "value": "77"
                            }
                        ],
                        "constructorArguments": "",
                        "name": "transfer",
                        "returnParams": [
                            {
                                "name": "",
                                "type": "bool",
                                "value": true
                            }
                        ],
                        "signature": "transfer(address,uint256)"
                    },
                    "errorInfo": "",
                    "fromAddress": "0x06a2cf3f024d8871baedd0f7bd9340001aada574",
                    "gasUsed": 84253,
                    "id": 0,
                    "methodDecoded": true,
                    "operation": "CALL",
                    "output": "0x0000000000000000000000000000000000000000000000000000000000000001",
                    "revert": false,
                    "revertMessage": "",
                    "selector": "0xa9059cbb",
                    "status": true,
                    "value": "0"
                },
                "nodeType": 0
            },
            "1": {
                "invocation": {
                    "address": "0xe736091fc36f1ad476f5e4e03e4425940822d3ba",
                    "callData": "0x",
                    "decodedMethod": {
                        "callParams": [],
                        "constructorArguments": "",
                        "name": "workshop",
                        "returnParams": [
                            {
                                "name": "",
                                "type": "address",
                                "value": "0xc78310231aa53bd3d0fea2f8c705c67730929d8f"
                            }
                        ],
                        "signature": "workshop()"
                    },
                    "errorInfo": "",
                    "fromAddress": "0xaec2e87e0a235266d9c5adc9deb4b2e29b54d009",
                    "gasUsed": 338,
                    "id": 1,
                    "methodDecoded": true,
                    "operation": "CALL",
                    "output": "0x000000000000000000000000c78310231aa53bd3d0fea2f8c705c67730929d8f",
                    "revert": false,
                    "revertMessage": "",
                    "selector": "0x720c4798",
                    "status": true,
                    "value": "0"
                },
                "nodeType": 0
            },
            "2": {
                "invocation": {
                    "address": "0xe736091fc36f1ad476f5e4e03e4425940822d3ba",
                    "callData": "0x00000000000000000000000006a2cf3f024d8871baedd0f7bd9340001aada574",
                    "decodedMethod": {
                        "callParams": [
                            {
                                "name": "forAddress",
                                "type": "address",
                                "value": "0x06a2cf3f024d8871baedd0f7bd9340001aada574"
                            }
                        ],
                        "constructorArguments": "",
                        "name": "softWithdrawRevenueFor",
                        "returnParams": [
                            {
                                "name": "",
                                "type": "uint256",
                                "value": "0"
                            }
                        ],
                        "signature": "softWithdrawRevenueFor(address)"
                    },
                    "errorInfo": "",
                    "fromAddress": "0xaec2e87e0a235266d9c5adc9deb4b2e29b54d009",
                    "gasUsed": 14801,
                    "id": 2,
                    "methodDecoded": true,
                    "operation": "CALL",
                    "output": "0x0000000000000000000000000000000000000000000000000000000000000000",
                    "revert": false,
                    "revertMessage": "",
                    "selector": "0x5d0be9de",
                    "status": true,
                    "value": "0"
                },
                "nodeType": 0
            },
            "3": {
                "invocation": {
                    "address": "0xaec2e87e0a235266d9c5adc9deb4b2e29b54d009",
                    "callData": "0x",
                    "decodedMethod": {
                        "callParams": [],
                        "constructorArguments": "",
                        "name": "totalSupply",
                        "returnParams": [
                            {
                                "name": "",
                                "type": "uint256",
                                "value": "1,000,000,000"
                            }
                        ],
                        "signature": "totalSupply()"
                    },
                    "errorInfo": "",
                    "fromAddress": "0xe736091fc36f1ad476f5e4e03e4425940822d3ba",
                    "gasUsed": 443,
                    "id": 3,
                    "methodDecoded": true,
                    "operation": "CALL",
                    "output": "0x000000000000000000000000000000000000000000000000000000003b9aca00",
                    "revert": false,
                    "revertMessage": "",
                    "selector": "0x18160ddd",
                    "status": true,
                    "value": "0"
                },
                "nodeType": 0
            },
            "4": {
                "invocation": {
                    "address": "0xaec2e87e0a235266d9c5adc9deb4b2e29b54d009",
                    "callData": "0x00000000000000000000000006a2cf3f024d8871baedd0f7bd9340001aada574",
                    "decodedMethod": {
                        "callParams": [
                            {
                                "name": "_owner",
                                "type": "address",
                                "value": "0x06a2cf3f024d8871baedd0f7bd9340001aada574"
                            }
                        ],
                        "constructorArguments": "",
                        "name": "balanceOf",
                        "returnParams": [
                            {
                                "decimalAvailable": true,
                                "name": "balance",
                                "type": "uint256",
                                "value": "26,879"
                            }
                        ],
                        "signature": "balanceOf(address)"
                    },
                    "errorInfo": "",
                    "fromAddress": "0xe736091fc36f1ad476f5e4e03e4425940822d3ba",
                    "gasUsed": 667,
                    "id": 4,
                    "methodDecoded": true,
                    "operation": "CALL",
                    "output": "0x00000000000000000000000000000000000000000000000000000000000068ff",
                    "revert": false,
                    "revertMessage": "",
                    "selector": "0x70a08231",
                    "status": true,
                    "value": "0"
                },
                "nodeType": 0
            },
            "5": {
                "invocation": {
                    "address": "0xe736091fc36f1ad476f5e4e03e4425940822d3ba",
                    "callData": "0x000000000000000000000000f2da5add7c6f8a47997efa04049ee7888542744b",
                    "decodedMethod": {
                        "callParams": [
                            {
                                "name": "forAddress",
                                "type": "address",
                                "value": "0xf2da5add7c6f8a47997efa04049ee7888542744b"
                            }
                        ],
                        "constructorArguments": "",
                        "name": "softWithdrawRevenueFor",
                        "returnParams": [
                            {
                                "name": "",
                                "type": "uint256",
                                "value": "0"
                            }
                        ],
                        "signature": "softWithdrawRevenueFor(address)"
                    },
                    "errorInfo": "",
                    "fromAddress": "0xaec2e87e0a235266d9c5adc9deb4b2e29b54d009",
                    "gasUsed": 14801,
                    "id": 5,
                    "methodDecoded": true,
                    "operation": "CALL",
                    "output": "0x0000000000000000000000000000000000000000000000000000000000000000",
                    "revert": false,
                    "revertMessage": "",
                    "selector": "0x5d0be9de",
                    "status": true,
                    "value": "0"
                },
                "nodeType": 0
            },
            "6": {
                "invocation": {
                    "address": "0xaec2e87e0a235266d9c5adc9deb4b2e29b54d009",
                    "callData": "0x",
                    "decodedMethod": {
                        "callParams": [],
                        "constructorArguments": "",
                        "name": "totalSupply",
                        "returnParams": [
                            {
                                "name": "",
                                "type": "uint256",
                                "value": "1,000,000,000"
                            }
                        ],
                        "signature": "totalSupply()"
                    },
                    "errorInfo": "",
                    "fromAddress": "0xe736091fc36f1ad476f5e4e03e4425940822d3ba",
                    "gasUsed": 443,
                    "id": 6,
                    "methodDecoded": true,
                    "operation": "CALL",
                    "output": "0x000000000000000000000000000000000000000000000000000000003b9aca00",
                    "revert": false,
                    "revertMessage": "",
                    "selector": "0x18160ddd",
                    "status": true,
                    "value": "0"
                },
                "nodeType": 0
            },
            "7": {
                "invocation": {
                    "address": "0xaec2e87e0a235266d9c5adc9deb4b2e29b54d009",
                    "callData": "0x000000000000000000000000f2da5add7c6f8a47997efa04049ee7888542744b",
                    "decodedMethod": {
                        "callParams": [
                            {
                                "name": "_owner",
                                "type": "address",
                                "value": "0xf2da5add7c6f8a47997efa04049ee7888542744b"
                            }
                        ],
                        "constructorArguments": "",
                        "name": "balanceOf",
                        "returnParams": [
                            {
                                "decimalAvailable": true,
                                "name": "balance",
                                "type": "uint256",
                                "value": "0"
                            }
                        ],
                        "signature": "balanceOf(address)"
                    },
                    "errorInfo": "",
                    "fromAddress": "0xe736091fc36f1ad476f5e4e03e4425940822d3ba",
                    "gasUsed": 667,
                    "id": 7,
                    "methodDecoded": true,
                    "operation": "CALL",
                    "output": "0x0000000000000000000000000000000000000000000000000000000000000000",
                    "revert": false,
                    "revertMessage": "",
                    "selector": "0x70a08231",
                    "status": true,
                    "value": "0"
                },
                "nodeType": 0
            },
            "8": {
                "event": {
                    "contract": "0xaec2e87e0a235266d9c5adc9deb4b2e29b54d009",
                    "decodedLog": {
                        "name": "Transfer",
                        "params": [
                            {
                                "name": "from",
                                "type": "address",
                                "value": "0x06a2cf3f024d8871baedd0f7bd9340001aada574"
                            },
                            {
                                "name": "to",
                                "type": "address",
                                "value": "0xf2da5add7c6f8a47997efa04049ee7888542744b"
                            },
                            {
                                "decimalAvailable": true,
                                "name": "value",
                                "type": "uint256",
                                "value": "77"
                            }
                        ],
                        "signature": "Transfer(address,address,uint256)"
                    },
                    "id": 8,
                    "logData": "0x000000000000000000000000000000000000000000000000000000000000004d",
                    "logDecoded": true,
                    "operation": "EVENT",
                    "revert": false,
                    "status": true,
                    "topics": [
                        "0xddf252ad1be2c89b69c2b068fc378daa952ba7f163c4a11628f55a4df523b3ef",
                        "0x00000000000000000000000006a2cf3f024d8871baedd0f7bd9340001aada574",
                        "0x000000000000000000000000f2da5add7c6f8a47997efa04049ee7888542744b"
                    ]
                },
                "nodeType": 1
            }
        },
        "gasFlame": [
            {
                "children": [
                    {
                        "children": [
                            {
                                "children": [],
                                "depth": 0,
                                "name": "Initial Gas",
                                "value": 22872
                            },
                            {
                                "children": [
                                    {
                                        "children": [],
                                        "depth": 1,
                                        "name": "workshop",
                                        "value": 338
                                    },
                                    {
                                        "children": [
                                            {
                                                "children": [],
                                                "depth": 2,
                                                "name": "totalSupply",
                                                "value": 443
                                            },
                                            {
                                                "children": [],
                                                "depth": 2,
                                                "name": "balanceOf",
                                                "value": 667
                                            }
                                        ],
                                        "depth": 1,
                                        "name": "softWithdrawRevenueFor",
                                        "value": 14801
                                    },
                                    {
                                        "children": [
                                            {
                                                "children": [],
                                                "depth": 2,
                                                "name": "totalSupply",
                                                "value": 443
                                            },
                                            {
                                                "children": [],
                                                "depth": 2,
                                                "name": "balanceOf",
                                                "value": 667
                                            }
                                        ],
                                        "depth": 1,
                                        "name": "softWithdrawRevenueFor",
                                        "value": 14801
                                    }
                                ],
                                "depth": 0,
                                "name": "Executed Gas",
                                "value": 61381
                            }
                        ],
                        "depth": -1,
                        "name": "Actual Gas Used",
                        "value": 84253
                    },
                    {
                        "children": [],
                        "depth": -1,
                        "name": "Refunded Gas",
                        "value": 0
                    }
                ],
                "depth": -2,
                "name": "Total Gas",
                "value": 84253
            }
        ],
        "isConfirmed": true,
        "mainTrace": [
            {
                "children": [
                    {
                        "children": [
                            {
                                "children": [],
                                "depth": 1,
                                "id": 1,
                                "order": 1
                            },
                            {
                                "children": [
                                    {
                                        "children": [],
                                        "depth": 2,
                                        "id": 3,
                                        "order": 3
                                    },
                                    {
                                        "children": [],
                                        "depth": 2,
                                        "id": 4,
                                        "order": 4
                                    }
                                ],
                                "depth": 1,
                                "id": 2,
                                "order": 2
                            },
                            {
                                "children": [
                                    {
                                        "children": [],
                                        "depth": 2,
                                        "id": 6,
                                        "order": 6
                                    },
                                    {
                                        "children": [],
                                        "depth": 2,
                                        "id": 7,
                                        "order": 7
                                    }
                                ],
                                "depth": 1,
                                "id": 5,
                                "order": 5
                            },
                            {
                                "children": [],
                                "depth": 1,
                                "id": 8,
                                "order": 8
                            }
                        ],
                        "depth": 0,
                        "id": 0,
                        "order": 0
                    }
                ],
                "depth": -1,
                "id": -1,
                "order": -1
            }
        ],
        "mainTraceNodeCount": 9,
        "parentIdMap": {
            "0": -1,
            "1": 0,
            "2": 0,
            "3": 2,
            "4": 2,
            "5": 0,
            "6": 5,
            "7": 5,
            "8": 0
        },
        "tidyTrace": [
            {
                "children": [
                    {
                        "children": [
                            {
                                "children": [],
                                "depth": 1,
                                "id": 1,
                                "order": 1
                            },
                            {
                                "children": [
                                    {
                                        "children": [],
                                        "depth": 2,
                                        "id": 3,
                                        "order": 3
                                    },
                                    {
                                        "children": [],
                                        "depth": 2,
                                        "id": 4,
                                        "order": 4
                                    }
                                ],
                                "depth": 1,
                                "id": 2,
                                "order": 2
                            },
                            {
                                "children": [
                                    {
                                        "children": [],
                                        "depth": 2,
                                        "id": 6,
                                        "order": 6
                                    },
                                    {
                                        "children": [],
                                        "depth": 2,
                                        "id": 7,
                                        "order": 7
                                    }
                                ],
                                "depth": 1,
                                "id": 5,
                                "order": 5
                            },
                            {
                                "children": [],
                                "depth": 1,
                                "id": 8,
                                "order": 8
                            }
                        ],
                        "depth": 0,
                        "id": 0,
                        "order": 0
                    }
                ],
                "depth": -1,
                "id": -1,
                "order": -1
            }
        ],
        "tidyTraceNodeCount": 9
    },
    "state_change": {
        "stateChanges": [
            {
                "address": "0xaec2e87e0a235266d9c5adc9deb4b2e29b54d009",
                "erc": "ERC-20",
                "slots": [
                    {
                        "current": "0x000000000000000000000000000000000000000000000000000000000000004d",
                        "key": "0xb9698edb64febd53b2d1b5fca0e163e6f53764130fa2e5554020f3a1610c426d",
                        "prev": "0x0000000000000000000000000000000000000000000000000000000000000000"
                    },
                    {
                        "current": "0x00000000000000000000000000000000000000000000000000000000000068b2",
                        "key": "0x99c134e94838f982237be7269e82eebe94eaf004d61dfb9e601a03fe8f2db025",
                        "prev": "0x00000000000000000000000000000000000000000000000000000000000068ff"
                    }
                ],
                "storageVariables": []
            }
        ]
    }
}