{
    "balance_change": {
        "balanceChanges": [
            {
                "account": "0xb98232c3e43aa16a9d28350ac279eed519aae213",
                "assets": [
                    {
                        "address": "0x92d6c1e31e14520e676a687f0a93788b716beff5",
                        "amount": "5,032.62",
                        "iconUrl": "https://assets.blocksec.com/icon/7cccd56d2c4701e3824e7af37ef717e4482cc86839b21a22f9074127448939bf.png",
                        "isERC1155": false,
                        "isERC721": false,
                        "sign": false,
                        "value": "111809.8811"
                    }
                ]
            },
            {
                "account": "0xe93381fb4c4f14bda253907b18fad305d799241a",
                "assets": [
                    {
                        "address": "0x92d6c1e31e14520e676a687f0a93788b716beff5",
                        "amount": "5,032.62",
                        "iconUrl": "https://assets.blocksec.com/icon/7cccd56d2c4701e3824e7af37ef717e4482cc86839b21a22f9074127448939bf.png",
                        "isERC1155": false,
                        "isERC721": false,
                        "sign": true,
                        "value": "111809.8811"
                    }
                ]
            }
        ]
    },
    "profile": {
        "basic_info": {
            "baseFee": "134.374607312",
            "blockNumber": 13366355,
            "callData": "0xa9059cbb000000000000000000000000e93381fb4c4f14bda253907b18fad305d799241a000000000000000000000000000000000000000000000110d1a1ea09565e0000",
            "debugEnable": true,
            "errorInfo": "",
            "eventCount": 5,
            "feeRecipient": "0x829bd824b016326a401d083b33d092293333a830",
            "formatValue": "0",
            "gasLimit": 250000,
            "gasPrice": "151",
            "gasUsed": 169273,
            "intTxnCount": 0,
            "internalRevert": false,
            "internalRevertMessage": "",
            "isContractCreation": false,
            "isFlashloan": false,
            "maxFee": "",
            "nonce": 33010,
            "overwritedBlockNumber": -1,
            "priorityFee": "",
            "receiver": "0x92d6c1e31e14520e676a687f0a93788b716beff5",
            "revertMessage": "",
            "sender": "0xb98232c3e43aa16a9d28350ac279eed519aae213",
            "simulationEnable": true,
            "sourceTxnHash": "0x29911d523f75f411d27bd8292da75e821b727348af4744ad4c1dda9762ee1227",
            "status": true,
            "timestamp": "2021-10-06T15:58:11Z",
            "transactionFee": "0.025560223",
            "txnHash": "0x29911d523f75f411d27bd8292da75e821b727348af4744ad4c1dda9762ee1227",
            "txnIndex": 130,
            "type": 0,
            "value": "0"
        },
        "fund_flow": [
            {
                "amount": "5,032.62",
                "from": "0xb98232c3e43aa16a9d28350ac279eed519aae213",
                "id": 1,
                "isERC1155": false,
                "isERC721": false,
                "isReverted": false,
                "order": 1,
                "to": "0xe93381fb4c4f14bda253907b18fad305d799241a",
                "token": "0x92d6c1e31e14520e676a687f0a93788b716beff5"
            }
        ],
        "token_infos": [
            {
                "address": "0x92d6c1e31e14520e676a687f0a93788b716beff5",
                "decimals": 18
            },
            {
                "address": "0xc02aaa39b223fe8d0a0e5c4f27ead9083c756cc2",
                "decimals": 18
            },
            {
                "address": "0xeeeeeeeeeeeeeeeeeeeeeeeeeeeeeeeeeeeeeeee",
                "decimals": 18
            }
        ]
    },
    "address_label": {
        "labels": [
            {
                "address": "0x92d6c1e31e14520e676a687f0a93788b716beff5",
                "label": "dYdX: DYDX Token"
            },
            {
                "address": "0xe93381fb4c4f14bda253907b18fad305d799241a",
                "label": "HTX 10"
            },
            {
                "address": "0x0000000000000000000000000000000000000001",
                "label": "Precompiled"
            },
            {
                "address": "0x0000000000000000000000000000000000000002",
                "label": "Precompiled"
            },
            {
                "address": "0x0000000000000000000000000000000000000003",
                "label": "Precompiled"
            },
            {
                "address": "0x0000000000000000000000000000000000000004",
                "label": "Precompiled"
            },
            {
                "address": "0xeeeeeeeeeeeeeeeeeeeeeeeeeeeeeeeeeeeeeeee",
                "label": "Ether"
            }
        ]
    },
    "trace": {
        "accountLabels": null,
        "dataMap": {
            "-1": {
                "invocation": {
                    "address": "0xb98232c3e43aa16a9d28350ac279eed519aae213",
                    "callData": "",
                    "decodedMethod": null,
                    "errorInfo": "",
                    "fromAddress": "",
                    "gasUsed": 0,
                    "id": -1,
                    "methodDecoded": false,
                    "operation": "",
                    "output": "",
                    "revert": false,
                    "revertMessage": "",
                    "selector": "",
                    "status": false,
                    "value": ""
                },
                "nodeType": 0
            },
            "0": {
                "invocation": {
                    "address": "0x92d6c1e31e14520e676a687f0a93788b716beff5",
                    "callData": "0x000000000000000000000000e93381fb4c4f14bda253907b18fad305d799241a000000000000000000000000000000000000000000000110d1a1ea09565e0000",
                    "decodedMethod": {
                        "callParams": [
                            {
                                "name": "recipient",
                                "type": "address",
                                "value": "0xe93381fb4c4f14bda253907b18fad305d799241a"
                            },
                            {
                                "decimalAvailable": true,
                                "name": "amount",
                                "type": "uint256",
                                "value": "5,032,620,000,000,000,000,000"
                            }
                        ],
                        "constructorArguments": "",
                        "name": "transfer",
                        "returnParams": [
                            {
                                "name": "",
                                "type": "bool",
                                "value": true
                            }
                        ],
                        "signature": "transfer(address,uint256)"
                    },
                    "errorInfo": "",
                    "fromAddress": "0xb98232c3e43aa16a9d28350ac279eed519aae213",
                    "gasUsed": 169273,
                    "id": 0,
                    "methodDecoded": true,
                    "operation": "CALL",
                    "output": "0x0000000000000000000000000000000000000000000000000000000000000001",
                    "revert": false,
                    "revertMessage": "",
                    "selector": "0xa9059cbb",
                    "status": true,
                    "value": "0"
                },
                "nodeType": 0
            },
            "1": {
                "event": {
                    "contract": "0x92d6c1e31e14520e676a687f0a93788b716beff5",
                    "decodedLog": {
                        "name": "DelegatedPowerChanged",
                        "params": [
                            {
                                "name": "user",
                                "type": "address",
                                "value": "0xb98232c3e43aa16a9d28350ac279eed519aae213"
                            },
                            {
                                "name": "amount",
                                "type": "uint256",
                                "value": "0"
                            },
                            {
                                "name": "delegationType",
                                "type": "uint8",
                                "value": "0"
                            }
                        ],
                        "signature": "DelegatedPowerChanged(address,uint256,uint8)"
                    },
                    "id": 1,
                    "logData": "0x00000000000000000000000000000000000000000000000000000000000000000000000000000000000000000000000000000000000000000000000000000000",
                    "logDecoded": true,
                    "operation": "EVENT",
                    "revert": false,
                    "status": true,
                    "topics": [
                        "0xa0a19463ee116110c9b282012d9b65cc5522dc38a9520340cbaf3142e550127f",
                        "0x000000000000000000000000b98232c3e43aa16a9d28350ac279eed519aae213"
                    ]
                },
                "nodeType": 1
            },
            "2": {
                "event": {
                    "contract": "0x92d6c1e31e14520e676a687f0a93788b716beff5",
                    "decodedLog": {
                        "name": "DelegatedPowerChanged",
                        "params": [
                            {
                                "name": "user",
                                "type": "address",
                                "value": "0xe93381fb4c4f14bda253907b18fad305d799241a"
                            },
                            {
                                "name": "amount",
                                "type": "uint256",
                                "value": "3,557,798,884,385,777,000,000,000"
                            },
                            {
                                "name": "delegationType",
                                "type": "uint8",
                                "value": "0"
                            }
                        ],
                        "signature": "DelegatedPowerChanged(address,uint256,uint8)"
                    },
                    "id": 2,
                    "logData": "0x00000000000000000000000000000000000000000002f164a9fafa7fc1562a000000000000000000000000000000000000000000000000000000000000000000",
                    "logDecoded": true,
                    "operation": "EVENT",
                    "revert": false,
                    "status": true,
                    "topics": [
                        "0xa0a19463ee116110c9b282012d9b65cc5522dc38a9520340cbaf3142e550127f",
                        "0x000000000000000000000000e93381fb4c4f14bda253907b18fad305d799241a"
                    ]
                },
                "nodeType": 1
            },
            "3": {
                "event": {
                    "contract": "0x92d6c1e31e14520e676a687f0a93788b716beff5",
                    "decodedLog": {
                        "name": "DelegatedPowerChanged",
                        "params": [
                            {
                                "name": "user",
                                "type": "address",
                                "value": "0xb98232c3e43aa16a9d28350ac279eed519aae213"
                            },
                            {
                                "name": "amount",
                                "type": "uint256",
                                "value": "0"
                            },
                            {
                                "name": "delegationType",
                                "type": "uint8",
                                "value": "1"
                            }
                        ],
                        "signature": "DelegatedPowerChanged(address,uint256,uint8)"
                    },
                    "id": 3,
                    "logData": "0x00000000000000000000000000000000000000000000000000000000000000000000000000000000000000000000000000000000000000000000000000000001",
                    "logDecoded": true,
                    "operation": "EVENT",
                    "revert": false,
                    "status": true,
                    "topics": [
                        "0xa0a19463ee116110c9b282012d9b65cc5522dc38a9520340cbaf3142e550127f",
                        "0x000000000000000000000000b98232c3e43aa16a9d28350ac279eed519aae213"
                    ]
                },
                "nodeType": 1
            },
            "4": {
                "event": {
                    "contract": "0x92d6c1e31e14520e676a687f0a93788b716beff5",
                    "decodedLog": {
                        "name": "DelegatedPowerChanged",
                        "params": [
                            {
                                "name": "user",
                                "type": "address",
                                "value": "0xe93381fb4c4f14bda253907b18fad305d799241a"
                            },
                            {
                                "name": "amount",
                                "type": "uint256",
                                "value": "3,557,798,884,385,777,000,000,000"
                            },
                            {
                                "name": "delegationType",
                                "type": "uint8",
                                "value": "1"
                            }
                        ],
                        "signature": "DelegatedPowerChanged(address,uint256,uint8)"
                    },
                    "id": 4,
                    "logData": "0x00000000000000000000000000000000000000000002f164a9fafa7fc1562a000000000000000000000000000000000000000000000000000000000000000001",
                    "logDecoded": true,
                    "operation": "EVENT",
                    "revert": false,
                    "status": true,
                    "topics": [
                        "0xa0a19463ee116110c9b282012d9b65cc5522dc38a9520340cbaf3142e550127f",
                        "0x000000000000000000000000e93381fb4c4f14bda253907b18fad305d799241a"
                    ]
                },
                "nodeType": 1
            },
            "5": {
                "event": {
                    "contract": "0x92d6c1e31e14520e676a687f0a93788b716beff5",
                    "decodedLog": {
                        "name": "Transfer",
                        "params": [
                            {
                                "name": "from",
                                "type": "address",
                                "value": "0xb98232c3e43aa16a9d28350ac279eed519aae213"
                            },
                            {
                                "name": "to",
                                "type": "address",
                                "value": "0xe93381fb4c4f14bda253907b18fad305d799241a"
                            },
                            {
                                "decimalAvailable": true,
                                "name": "value",
                                "type": "uint256",
                                "value": "5,032,620,000,000,000,000,000"
                            }
                        ],
                        "signature": "Transfer(address,address,uint256)"
                    },
                    "id": 5,
                    "logData": "0x000000000000000000000000000000000000000000000110d1a1ea09565e0000",
                    "logDecoded": true,
                    "operation": "EVENT",
                    "revert": false,
                    "status": true,
                    "topics": [
                        "0xddf252ad1be2c89b69c2b068fc378daa952ba7f163c4a11628f55a4df523b3ef",
                        "0x000000000000000000000000b98232c3e43aa16a9d28350ac279eed519aae213",
                        "0x000000000000000000000000e93381fb4c4f14bda253907b18fad305d799241a"
                    ]
                },
                "nodeType": 1
            }
        },
        "gasFlame": [
            {
                "children": [
                    {
                        "children": [
                            {
                                "children": [],
                                "depth": 0,
                                "name": "Initial Gas",
                                "value": 21656
                            },
                            {
                                "children": [],
                                "depth": 0,
                                "name": "Executed Gas",
                                "value": 152417
                            }
                        ],
                        "depth": -1,
                        "name": "Actual Gas Used",
                        "value": 169273
                    },
                    {
                        "children": [],
                        "depth": -1,
                        "name": "Refunded Gas",
                        "value": 4800
                    }
                ],
                "depth": -2,
                "name": "Total Gas",
                "value": 174073
            }
        ],
        "isConfirmed": true,
        "mainTrace": [
            {
                "children": [
                    {
                        "children": [
                            {
                                "children": [],
                                "depth": 1,
                                "id": 1,
                                "order": 1
                            },
                            {
                                "children": [],
                                "depth": 1,
                                "id": 2,
                                "order": 2
                            },
                            {
                                "children": [],
                                "depth": 1,
                                "id": 3,
                                "order": 3
                            },
                            {
                                "children": [],
                                "depth": 1,
                                "id": 4,
                                "order": 4
                            },
                            {
                                "children": [],
                                "depth": 1,
                                "id": 5,
                                "order": 5
                            }
                        ],
                        "depth": 0,
                        "id": 0,
                        "order": 0
                    }
                ],
                "depth": -1,
                "id": -1,
                "order": -1
            }
        ],
        "mainTraceNodeCount": 6,
        "parentIdMap": {
            "0": -1,
            "1": 0,
            "2": 0,
            "3": 0,
            "4": 0,
            "5": 0
        },
        "tidyTrace": [
            {
                "children": [
                    {
                        "children": [
                            {
                                "children": [],
                                "depth": 1,
                                "id": 1,
                                "order": 1
                            },
                            {
                                "children": [],
                                "depth": 1,
                                "id": 2,
                                "order": 2
                            },
                            {
                                "children": [],
                                "depth": 1,
                                "id": 3,
                                "order": 3
                            },
                            {
                                "children": [],
                                "depth": 1,
                                "id": 4,
                                "order": 4
                            },
                            {
                                "children": [],
                                "depth": 1,
                                "id": 5,
                                "order": 5
                            }
                        ],
                        "depth": 0,
                        "id": 0,
                        "order": 0
                    }
                ],
                "depth": -1,
                "id": -1,
                "order": -1
            }
        ],
        "tidyTraceNodeCount": 6
    },
    "state_change": {
        "stateChanges": [
            {
                "address": "0x92d6c1e31e14520e676a687f0a93788b716beff5",
                "erc": "ERC-20",
                "slots": [
                    {
                        "current": "0x000000000002f164a9fafa7fc1562a0000000000000000000000000000cbf453",
                        "key": "0x2685d7f2acb1f0cefc7a1932610a8b5863ccb2bb675c2b609d1b67ee06251919",
                        "prev": "0x0000000000000000000000000000000000000000000000000000000000000000"
                    },
                    {
                        "current": "0x00000000000000000000000000000000000000000002f164a9fafa7fc1562a00",
                        "key": "0x553db2ad166707e74afbfea2ccd0e64900a3cbbbed2064d16f9923b4b8ba4be1",
                        "prev": "0x00000000000000000000000000000000000000000002f053d85910766af82a00"
                    },
                    {
                        "current": "0x0000000000000000000000000000000000000000000000000000000000000fb7",
                        "key": "0xa99b2e91811f3109ab1586cc89c9fe2fe56bb247153e1200f7e653d011039ca8",
                        "prev": "0x0000000000000000000000000000000000000000000000000000000000000fb6"
                    },
                    {
                        "current": "0x0000000000000000000000000000000000000000000000000000000000cbf453",
                        "key": "0xa5723f6637417f1acbe5d0cb576ca4a5c3ec6458930805c49bc7c3c25fd6dc20",
                        "prev": "0x0000000000000000000000000000000000000000000000000000000000000000"
                    },
                    {
                        "current": "0x0000000000000000000000000000000000000000000000000000000000cbf453",
                        "key": "0xc9975a336b170adf1251b2a747d95821904ca7d55bc42ee2f5bd6405a38353b5",
                        "prev": "0x0000000000000000000000000000000000000000000000000000000000000000"
                    },
                    {
                        "current": "0x00000000000000000000000000000000000000000000000000000000000003e5",
                        "key": "0xa2c8228c9c175af2ea977bc0cfaf8378752526ee18b0c710fa0383a9886b7f2a",
                        "prev": "0x00000000000000000000000000000000000000000000000000000000000003e4"
                    },
                    {
                        "current": "0x0000000000000000000000000000000000000000000000000000000000000000",
                        "key": "0x5beec35084027e160b2ab1ddd62c6ef46a06c4a0866ca783462fd48c0fda60a7",
                        "prev": "0x000000000000000000000000000000000000000000000110d1a1ea09565e0000"
                    },
                    {
                        "current": "0x00000000000000000000000000000000000000000000000000000000000003e5",
                        "key": "0x35b6d801064d25692a43ca81efc39350e5177ce0a2729c29498cb3bfab8ba27a",
                        "prev": "0x00000000000000000000000000000000000000000000000000000000000003e4"
                    },
                    {
                        "current": "0x000000000002f164a9fafa7fc1562a0000000000000000000000000000cbf453",
                        "key": "0xdd11e442ebe0c8e2844641c5caeec5ce4c6531d6dc4edd5e1359e3e95a9739c8",
                        "prev": "0x0000000000000000000000000000000000000000000000000000000000000000"
                    },
                    {
                        "current": "0x0000000000000000000000000000000000000000000000000000000000000fb7",
                        "key": "0xfefdab6ce71bd285c7314a537fc2d92844a388b378a58ee5c1bd07e1cbaeea18",
                        "prev": "0x0000000000000000000000000000000000000000000000000000000000000fb6"
                    }
                ],
                "storageVariables": [
                    {
                        "name": "_votingSnapshotsCounts",
                        "type": "mapping(address => uint256)",
                        "value": {
                            "pairs": [
                                {
                                    "key": "0xb98232c3e43aa16a9d28350ac279eed519aae213",
                                    "value": {
                                        "current": "997",
                                        "prev": "996",
                                        "typeTag": 1
                                    }
                                },
                                {
                                    "key": "0xe93381fb4c4f14bda253907b18fad305d799241a",
                                    "value": {
                                        "current": "4023",
                                        "prev": "4022",
                                        "typeTag": 1
                                    }
                                }
                            ],
                            "typeTag": 4
                        }
                    },
                    {
                        "name": "_propositionPowerSnapshots",
                        "type": "mapping(address => mapping(uint256 => struct GovernancePowerDelegationERC20Mixin.Snapshot))",
                        "value": {
                            "pairs": [
                                {
                                    "key": "0xb98232c3e43aa16a9d28350ac279eed519aae213",
                                    "value": {
                                        "pairs": [
                                            {
                                                "key": "996",
                                                "value": {
                                                    "fields": [
                                                        {
                                                            "name": "blockNumber",
                                                            "type": "uint128",
                                                            "value": {
                                                                "current": "13366355",
                                                                "prev": "0",
                                                                "typeTag": 1
                                                            }
                                                        },
                                                        {
                                                            "name": "value",
                                                            "type": "uint128",
                                                            "value": {
                                                                "current": "0",
                                                                "prev": "0",
                                                                "typeTag": 1
                                                            }
                                                        }
                                                    ],
                                                    "typeTag": 3
                                                }
                                            }
                                        ],
                                        "typeTag": 4
                                    }
                                },
                                {
                                    "key": "0xe93381fb4c4f14bda253907b18fad305d799241a",
                                    "value": {
                                        "pairs": [
                                            {
                                                "key": "4022",
                                                "value": {
                                                    "fields": [
                                                        {
                                                            "name": "blockNumber",
                                                            "type": "uint128",
                                                            "value": {
                                                                "current": "13366355",
                                                                "prev": "0",
                                                                "typeTag": 1
                                                            }
                                                        },
                                                        {
                                                            "name": "value",
                                                            "type": "uint128",
                                                            "value": {
                                                                "current": "3557798884385777000000000",
                                                                "prev": "0",
                                                                "typeTag": 1
                                                            }
                                                        }
                                                    ],
                                                    "typeTag": 3
                                                }
                                            }
                                        ],
                                        "typeTag": 4
                                    }
                                }
                            ],
                            "typeTag": 4
                        }
                    },
                    {
                        "name": "_balances",
                        "type": "mapping(address => uint256)",
                        "value": {
                            "pairs": [
                                {
                                    "key": "0xb98232c3e43aa16a9d28350ac279eed519aae213",
                                    "value": {
                                        "current": "0",
                                        "prev": "5032620000000000000000",
                                        "typeTag": 1
                                    }
                                },
                                {
                                    "key": "0xe93381fb4c4f14bda253907b18fad305d799241a",
                                    "value": {
                                        "current": "3557798884385777000000000",
                                        "prev": "3552766264385777000000000",
                                        "typeTag": 1
                                    }
                                }
                            ],
                            "typeTag": 4
                        }
                    },
                    {
                        "name": "_votingSnapshots",
                        "type": "mapping(address => mapping(uint256 => struct GovernancePowerDelegationERC20Mixin.Snapshot))",
                        "value": {
                            "pairs": [
                                {
                                    "key": "0xb98232c3e43aa16a9d28350ac279eed519aae213",
                                    "value": {
                                        "pairs": [
                                            {
                                                "key": "996",
                                                "value": {
                                                    "fields": [
                                                        {
                                                            "name": "blockNumber",
                                                            "type": "uint128",
                                                            "value": {
                                                                "current": "13366355",
                                                                "prev": "0",
                                                                "typeTag": 1
                                                            }
                                                        },
                                                        {
                                                            "name": "value",
                                                            "type": "uint128",
                                                            "value": {
                                                                "current": "0",
                                                                "prev": "0",
                                                                "typeTag": 1
                                                            }
                                                        }
                                                    ],
                                                    "typeTag": 3
                                                }
                                            }
                                        ],
                                        "typeTag": 4
                                    }
                                },
                                {
                                    "key": "0xe93381fb4c4f14bda253907b18fad305d799241a",
                                    "value": {
                                        "pairs": [
                                            {
                                                "key": "4022",
                                                "value": {
                                                    "fields": [
                                                        {
                                                            "name": "blockNumber",
                                                            "type": "uint128",
                                                            "value": {
                                                                "current": "13366355",
                                                                "prev": "0",
                                                                "typeTag": 1
                                                            }
                                                        },
                                                        {
                                                            "name": "value",
                                                            "type": "uint128",
                                                            "value": {
                                                                "current": "3557798884385777000000000",
                                                                "prev": "0",
                                                                "typeTag": 1
                                                            }
                                                        }
                                                    ],
                                                    "typeTag": 3
                                                }
                                            }
                                        ],
                                        "typeTag": 4
                                    }
                                }
                            ],
                            "typeTag": 4
                        }
                    },
                    {
                        "name": "_propositionPowerSnapshotsCounts",
                        "type": "mapping(address => uint256)",
                        "value": {
                            "pairs": [
                                {
                                    "key": "0xb98232c3e43aa16a9d28350ac279eed519aae213",
                                    "value": {
                                        "current": "997",
                                        "prev": "996",
                                        "typeTag": 1
                                    }
                                },
                                {
                                    "key": "0xe93381fb4c4f14bda253907b18fad305d799241a",
                                    "value": {
                                        "current": "4023",
                                        "prev": "4022",
                                        "typeTag": 1
                                    }
                                }
                            ],
                            "typeTag": 4
                        }
                    }
                ]
            }
        ]
    }
}