{
    "balance_change": {
        "balanceChanges": []
    },
    "profile": {
        "basic_info": {
            "baseFee": "50.515538332",
            "blockNumber": 14220261,
            "callData": "0xa22cb46500000000000000000000000098fb95855f6f6b8619aadd53082f38ef5175e6c10000000000000000000000000000000000000000000000000000000000000001",
            "debugEnable": true,
            "errorInfo": "",
            "eventCount": 1,
            "feeRecipient": "0x45a36a8e118c37e4c47ef4ab827a7c9e579e11e2",
            "formatValue": "0",
            "gasLimit": 46703,
            "gasPrice": "52.015538332",
            "gasUsed": 46703,
            "intTxnCount": 0,
            "internalRevert": false,
            "internalRevertMessage": "",
            "isContractCreation": false,
            "isFlashloan": false,
            "maxFee": "58.743111928",
            "nonce": 266,
            "overwritedBlockNumber": -1,
            "priorityFee": "1.5",
            "receiver": "0x9048de699869385756939a7bb0a22b6d6cb63a83",
            "revertMessage": "",
            "sender": "0x4fdbd31e78615493b7ec5fc20fc75d0a649fde2e",
            "simulationEnable": true,
            "sourceTxnHash": "0x29f7f605a1ed9747fdd63f7d8a1e8d2ff9b8d2f7a903f34dd46d4d721f4bfec3",
            "status": true,
            "timestamp": "2022-02-16T23:59:04Z",
            "transactionFee": "0.002429281686719396",
            "txnHash": "0x29f7f605a1ed9747fdd63f7d8a1e8d2ff9b8d2f7a903f34dd46d4d721f4bfec3",
            "txnIndex": 175,
            "type": 2,
            "value": "0"
        },
        "fund_flow": [],
        "token_infos": [
            {
                "address": "0xc02aaa39b223fe8d0a0e5c4f27ead9083c756cc2",
                "decimals": 18
            },
            {
                "address": "0xeeeeeeeeeeeeeeeeeeeeeeeeeeeeeeeeeeeeeeee",
                "decimals": 18
            }
        ]
    },
    "address_label": {
        "labels": [
            {
                "address": "0xeeeeeeeeeeeeeeeeeeeeeeeeeeeeeeeeeeeeeeee",
                "label": "Ether"
            },
            {
                "address": "0x9048de699869385756939a7bb0a22b6d6cb63a83",
                "label": "The Lizard Lab: LIZRD Token"
            },
            {
                "address": "0x0000000000000000000000000000000000000001",
                "label": "Precompiled"
            },
            {
                "address": "0x0000000000000000000000000000000000000002",
                "label": "Precompiled"
            },
            {
                "address": "0x0000000000000000000000000000000000000003",
                "label": "Precompiled"
            },
            {
                "address": "0x0000000000000000000000000000000000000004",
                "label": "Precompiled"
            }
        ]
    },
    "trace": {
        "accountLabels": null,
        "dataMap": {
            "-1": {
                "invocation": {
                    "address": "0x4fdbd31e78615493b7ec5fc20fc75d0a649fde2e",
                    "callData": "",
                    "decodedMethod": null,
                    "errorInfo": "",
                    "fromAddress": "",
                    "gasUsed": 0,
                    "id": -1,
                    "methodDecoded": false,
                    "operation": "",
                    "output": "",
                    "revert": false,
                    "revertMessage": "",
                    "selector": "",
                    "status": false,
                    "value": ""
                },
                "nodeType": 0
            },
            "0": {
                "invocation": {
                    "address": "0x9048de699869385756939a7bb0a22b6d6cb63a83",
                    "callData": "0x00000000000000000000000098fb95855f6f6b8619aadd53082f38ef5175e6c10000000000000000000000000000000000000000000000000000000000000001",
                    "decodedMethod": {
                        "callParams": [
                            {
                                "name": "operator",
                                "type": "address",
                                "value": "0x98fb95855f6f6b8619aadd53082f38ef5175e6c1"
                            },
                            {
                                "name": "approved",
                                "type": "bool",
                                "value": true
                            }
                        ],
                        "constructorArguments": "",
                        "name": "setApprovalForAll",
                        "returnParams": [],
                        "signature": "setApprovalForAll(address,bool)"
                    },
                    "errorInfo": "",
                    "fromAddress": "0x4fdbd31e78615493b7ec5fc20fc75d0a649fde2e",
                    "gasUsed": 46703,
                    "id": 0,
                    "methodDecoded": true,
                    "operation": "CALL",
                    "output": "",
                    "revert": false,
                    "revertMessage": "",
                    "selector": "0xa22cb465",
                    "status": true,
                    "value": "0"
                },
                "nodeType": 0
            },
            "1": {
                "event": {
                    "contract": "0x9048de699869385756939a7bb0a22b6d6cb63a83",
                    "decodedLog": {
                        "name": "ApprovalForAll",
                        "params": [
                            {
                                "name": "owner",
                                "type": "address",
                                "value": "0x4fdbd31e78615493b7ec5fc20fc75d0a649fde2e"
                            },
                            {
                                "name": "operator",
                                "type": "address",
                                "value": "0x98fb95855f6f6b8619aadd53082f38ef5175e6c1"
                            },
                            {
                                "name": "approved",
                                "type": "bool",
                                "value": true
                            }
                        ],
                        "signature": "ApprovalForAll(address,address,bool)"
                    },
                    "id": 1,
                    "logData": "0x0000000000000000000000000000000000000000000000000000000000000001",
                    "logDecoded": true,
                    "operation": "EVENT",
                    "revert": false,
                    "status": true,
                    "topics": [
                        "0x17307eab39ab6107e8899845ad3d59bd9653f200f220920489ca2b5937696c31",
                        "0x0000000000000000000000004fdbd31e78615493b7ec5fc20fc75d0a649fde2e",
                        "0x00000000000000000000000098fb95855f6f6b8619aadd53082f38ef5175e6c1"
                    ]
                },
                "nodeType": 1
            }
        },
        "gasFlame": [
            {
                "children": [
                    {
                        "children": [
                            {
                                "children": [],
                                "depth": 0,
                                "name": "Initial Gas",
                                "value": 21572
                            },
                            {
                                "children": [],
                                "depth": 0,
                                "name": "Executed Gas",
                                "value": 25131
                            }
                        ],
                        "depth": -1,
                        "name": "Actual Gas Used",
                        "value": 46703
                    },
                    {
                        "children": [],
                        "depth": -1,
                        "name": "Refunded Gas",
                        "value": 0
                    }
                ],
                "depth": -2,
                "name": "Total Gas",
                "value": 46703
            }
        ],
        "isConfirmed": true,
        "mainTrace": [
            {
                "children": [
                    {
                        "children": [
                            {
                                "children": [],
                                "depth": 1,
                                "id": 1,
                                "order": 1
                            }
                        ],
                        "depth": 0,
                        "id": 0,
                        "order": 0
                    }
                ],
                "depth": -1,
                "id": -1,
                "order": -1
            }
        ],
        "mainTraceNodeCount": 2,
        "parentIdMap": {
            "0": -1,
            "1": 0
        },
        "tidyTrace": [
            {
                "children": [
                    {
                        "children": [
                            {
                                "children": [],
                                "depth": 1,
                                "id": 1,
                                "order": 1
                            }
                        ],
                        "depth": 0,
                        "id": 0,
                        "order": 0
                    }
                ],
                "depth": -1,
                "id": -1,
                "order": -1
            }
        ],
        "tidyTraceNodeCount": 2
    },
    "state_change": {
        "stateChanges": [
            {
                "address": "0x9048de699869385756939a7bb0a22b6d6cb63a83",
                "erc": "ERC-721",
                "slots": [
                    {
                        "current": "0x0000000000000000000000000000000000000000000000000000000000000001",
                        "key": "0x8d8a44eea7bf8311378a57c236c2f911f89f36718aefb37448d3e329209aac0b",
                        "prev": "0x0000000000000000000000000000000000000000000000000000000000000000"
                    }
                ],
                "storageVariables": [
                    {
                        "name": "_operatorApprovals",
                        "type": "mapping(address => mapping(address => bool))",
                        "value": {
                            "pairs": [
                                {
                                    "key": "0x4fdbd31e78615493b7ec5fc20fc75d0a649fde2e",
                                    "value": {
                                        "pairs": [
                                            {
                                                "key": "0x98fb95855f6f6b8619aadd53082f38ef5175e6c1",
                                                "value": {
                                                    "current": "true",
                                                    "prev": "false",
                                                    "typeTag": 1
                                                }
                                            }
                                        ],
                                        "typeTag": 4
                                    }
                                }
                            ],
                            "typeTag": 4
                        }
                    }
                ]
            }
        ]
    }
}