{
    "balance_change": {
        "balanceChanges": [
            {
                "account": "0x549010f6c583f3469c1f1f130d50377875543385",
                "assets": [
                    {
                        "address": "0x4575f41308ec1483f3d399aa9a2826d74da13deb",
                        "amount": "38.93776826",
                        "iconUrl": "https://assets.blocksec.com/icon/58431d032f407cc88872945d7e590d5c8b02bedcfb9b67335dc2b97e0831f841.png",
                        "isERC1155": false,
                        "isERC721": false,
                        "sign": false,
                        "value": ""
                    }
                ]
            },
            {
                "account": "0x46f4148a89bacd9b254faa7ce1070ea083f5a179",
                "assets": [
                    {
                        "address": "0x4575f41308ec1483f3d399aa9a2826d74da13deb",
                        "amount": "38.93776826",
                        "iconUrl": "https://assets.blocksec.com/icon/58431d032f407cc88872945d7e590d5c8b02bedcfb9b67335dc2b97e0831f841.png",
                        "isERC1155": false,
                        "isERC721": false,
                        "sign": true,
                        "value": ""
                    }
                ]
            }
        ]
    },
    "profile": {
        "basic_info": {
            "baseFee": "",
            "blockNumber": 9248350,
            "callData": "0xa9059cbb00000000000000000000000046f4148a89bacd9b254faa7ce1070ea083f5a1790000000000000000000000000000000000000000000000021c5ebdee6bc7a800",
            "debugEnable": true,
            "errorInfo": "",
            "eventCount": 1,
            "feeRecipient": "0xea674fdde714fd979de3edf0f56aa9716b898ec8",
            "formatValue": "0",
            "gasLimit": 200000,
            "gasPrice": "5",
            "gasUsed": 36196,
            "intTxnCount": 0,
            "internalRevert": false,
            "internalRevertMessage": "",
            "isContractCreation": false,
            "isFlashloan": false,
            "maxFee": "",
            "nonce": 0,
            "overwritedBlockNumber": -1,
            "priorityFee": "",
            "receiver": "0x4575f41308ec1483f3d399aa9a2826d74da13deb",
            "revertMessage": "",
            "sender": "0x549010f6c583f3469c1f1f130d50377875543385",
            "simulationEnable": true,
            "sourceTxnHash": "0x2977890b5a52356e4eb5b16c083c48ba7131639dac694e9ffd9cee28b9490330",
            "status": true,
            "timestamp": "2020-01-09T19:15:38Z",
            "transactionFee": "0.00018098",
            "txnHash": "0x2977890b5a52356e4eb5b16c083c48ba7131639dac694e9ffd9cee28b9490330",
            "txnIndex": 10,
            "type": 0,
            "value": "0"
        },
        "fund_flow": [
            {
                "amount": "38.93776826",
                "from": "0x549010f6c583f3469c1f1f130d50377875543385",
                "id": 1,
                "isERC1155": false,
                "isERC721": false,
                "isReverted": false,
                "order": 1,
                "to": "0x46f4148a89bacd9b254faa7ce1070ea083f5a179",
                "token": "0x4575f41308ec1483f3d399aa9a2826d74da13deb"
            }
        ],
        "token_infos": [
            {
                "address": "0xeeeeeeeeeeeeeeeeeeeeeeeeeeeeeeeeeeeeeeee",
                "decimals": 18
            },
            {
                "address": "0x4575f41308ec1483f3d399aa9a2826d74da13deb",
                "decimals": 18
            },
            {
                "address": "0xc02aaa39b223fe8d0a0e5c4f27ead9083c756cc2",
                "decimals": 18
            }
        ]
    },
    "address_label": {
        "labels": [
            {
                "address": "0x4575f41308ec1483f3d399aa9a2826d74da13deb",
                "label": "Orchid: OXT Token"
            },
            {
                "address": "0x0000000000000000000000000000000000000001",
                "label": "Precompiled"
            },
            {
                "address": "0x0000000000000000000000000000000000000002",
                "label": "Precompiled"
            },
            {
                "address": "0x0000000000000000000000000000000000000003",
                "label": "Precompiled"
            },
            {
                "address": "0x0000000000000000000000000000000000000004",
                "label": "Precompiled"
            },
            {
                "address": "0xeeeeeeeeeeeeeeeeeeeeeeeeeeeeeeeeeeeeeeee",
                "label": "Ether"
            }
        ]
    },
    "trace": {
        "accountLabels": null,
        "dataMap": {
            "-1": {
                "invocation": {
                    "address": "0x549010f6c583f3469c1f1f130d50377875543385",
                    "callData": "",
                    "decodedMethod": null,
                    "errorInfo": "",
                    "fromAddress": "",
                    "gasUsed": 0,
                    "id": -1,
                    "methodDecoded": false,
                    "operation": "",
                    "output": "",
                    "revert": false,
                    "revertMessage": "",
                    "selector": "",
                    "status": false,
                    "value": ""
                },
                "nodeType": 0
            },
            "0": {
                "invocation": {
                    "address": "0x4575f41308ec1483f3d399aa9a2826d74da13deb",
                    "callData": "0x00000000000000000000000046f4148a89bacd9b254faa7ce1070ea083f5a1790000000000000000000000000000000000000000000000021c5ebdee6bc7a800",
                    "decodedMethod": {
                        "callParams": [
                            {
                                "name": "recipient",
                                "type": "address",
                                "value": "0x46f4148a89bacd9b254faa7ce1070ea083f5a179"
                            },
                            {
                                "decimalAvailable": true,
                                "name": "amount",
                                "type": "uint256",
                                "value": "38,937,768,260,000,000,000"
                            }
                        ],
                        "constructorArguments": "",
                        "name": "transfer",
                        "returnParams": [
                            {
                                "name": "",
                                "type": "bool",
                                "value": true
                            }
                        ],
                        "signature": "transfer(address,uint256)"
                    },
                    "errorInfo": "",
                    "fromAddress": "0x549010f6c583f3469c1f1f130d50377875543385",
                    "gasUsed": 36196,
                    "id": 0,
                    "methodDecoded": true,
                    "operation": "CALL",
                    "output": "0x0000000000000000000000000000000000000000000000000000000000000001",
                    "revert": false,
                    "revertMessage": "",
                    "selector": "0xa9059cbb",
                    "status": true,
                    "value": "0"
                },
                "nodeType": 0
            },
            "1": {
                "event": {
                    "contract": "0x4575f41308ec1483f3d399aa9a2826d74da13deb",
                    "decodedLog": {
                        "name": "Transfer",
                        "params": [
                            {
                                "name": "from",
                                "type": "address",
                                "value": "0x549010f6c583f3469c1f1f130d50377875543385"
                            },
                            {
                                "name": "to",
                                "type": "address",
                                "value": "0x46f4148a89bacd9b254faa7ce1070ea083f5a179"
                            },
                            {
                                "decimalAvailable": true,
                                "name": "value",
                                "type": "uint256",
                                "value": "38,937,768,260,000,000,000"
                            }
                        ],
                        "signature": "Transfer(address,address,uint256)"
                    },
                    "id": 1,
                    "logData": "0x0000000000000000000000000000000000000000000000021c5ebdee6bc7a800",
                    "logDecoded": true,
                    "operation": "EVENT",
                    "revert": false,
                    "status": true,
                    "topics": [
                        "0xddf252ad1be2c89b69c2b068fc378daa952ba7f163c4a11628f55a4df523b3ef",
                        "0x000000000000000000000000549010f6c583f3469c1f1f130d50377875543385",
                        "0x00000000000000000000000046f4148a89bacd9b254faa7ce1070ea083f5a179"
                    ]
                },
                "nodeType": 1
            }
        },
        "gasFlame": [
            {
                "children": [
                    {
                        "children": [
                            {
                                "children": [],
                                "depth": 0,
                                "name": "Initial Gas",
                                "value": 21656
                            },
                            {
                                "children": [],
                                "depth": 0,
                                "name": "Executed Gas",
                                "value": 29540
                            }
                        ],
                        "depth": -1,
                        "name": "Actual Gas Used",
                        "value": 36196
                    },
                    {
                        "children": [],
                        "depth": -1,
                        "name": "Refunded Gas",
                        "value": 15000
                    }
                ],
                "depth": -2,
                "name": "Total Gas",
                "value": 51196
            }
        ],
        "isConfirmed": true,
        "mainTrace": [
            {
                "children": [
                    {
                        "children": [
                            {
                                "children": [],
                                "depth": 1,
                                "id": 1,
                                "order": 1
                            }
                        ],
                        "depth": 0,
                        "id": 0,
                        "order": 0
                    }
                ],
                "depth": -1,
                "id": -1,
                "order": -1
            }
        ],
        "mainTraceNodeCount": 2,
        "parentIdMap": {
            "0": -1,
            "1": 0
        },
        "tidyTrace": [
            {
                "children": [
                    {
                        "children": [
                            {
                                "children": [],
                                "depth": 1,
                                "id": 1,
                                "order": 1
                            }
                        ],
                        "depth": 0,
                        "id": 0,
                        "order": 0
                    }
                ],
                "depth": -1,
                "id": -1,
                "order": -1
            }
        ],
        "tidyTraceNodeCount": 2
    },
    "state_change": {
        "stateChanges": [
            {
                "address": "0x4575f41308ec1483f3d399aa9a2826d74da13deb",
                "erc": "ERC-20",
                "slots": [
                    {
                        "current": "0x0000000000000000000000000000000000000000000000021c5ebdee6bc7a800",
                        "key": "0x41528f6acec78696fc85141b0e50ee1504daf696f14a65569039e387374b1815",
                        "prev": "0x0000000000000000000000000000000000000000000000000000000000000000"
                    },
                    {
                        "current": "0x0000000000000000000000000000000000000000000000000000000000000000",
                        "key": "0xc553ca9c2a2cc2132f3eead5dcd2916aca4b3e4f20b40a08a28bd009c63df547",
                        "prev": "0x0000000000000000000000000000000000000000000000021c5ebdee6bc7a800"
                    }
                ],
                "storageVariables": [
                    {
                        "name": "_balances",
                        "type": "mapping(address => uint256)",
                        "value": {
                            "pairs": [
                                {
                                    "key": "0x46f4148a89bacd9b254faa7ce1070ea083f5a179",
                                    "value": {
                                        "current": "38937768260000000000",
                                        "prev": "0",
                                        "typeTag": 1
                                    }
                                },
                                {
                                    "key": "0x549010f6c583f3469c1f1f130d50377875543385",
                                    "value": {
                                        "current": "0",
                                        "prev": "38937768260000000000",
                                        "typeTag": 1
                                    }
                                }
                            ],
                            "typeTag": 4
                        }
                    }
                ]
            }
        ]
    }
}