{
    "balance_change": {
        "balanceChanges": []
    },
    "profile": {
        "basic_info": {
            "baseFee": "",
            "blockNumber": 12684093,
            "callData": "0xc5d40494000000000000000000000000000000000000000000000000f578f2a5baebaa550000000000000000000000000000000000000000000000000092289cae0f40000000000000000000000000000000000000000000000000000000000000000000000000000000000000000000000000000000000000000000000000000000007400000000000000000000000000000000000000000000000000000000000000a00000000000000000000000000000000000000000000000000000000000000002000000000000000000000000a2107fa5b38d9bbd2c461d6edf11b11a50f6b974000000000000000000000000514910771af9ca656af840dff83e8264ecf986ca0000000000000000000000000000000000000000000000000000000000000000000000000000000000000000ca3d6a94759cb675f0ac10a76fc0da6ee6bf6e7b000000000000000000000000c02aaa39b223fe8d0a0e5c4f27ead9083c756cc20000000000000000000000000000000000000000000000000000000000000000",
            "debugEnable": true,
            "errorInfo": "",
            "eventCount": 0,
            "feeRecipient": "0x5a0b54d5dc17e0aadc383d2db43b0a0d3e029c4c",
            "formatValue": "0",
            "gasLimit": 1200000,
            "gasPrice": "187",
            "gasUsed": 50990,
            "intTxnCount": 6,
            "internalRevert": false,
            "internalRevertMessage": "",
            "isContractCreation": false,
            "isFlashloan": false,
            "maxFee": "",
            "nonce": 5220,
            "overwritedBlockNumber": -1,
            "priorityFee": "",
            "receiver": "0xafa62ccbbcdbeaa5450d7013c9e13824f9ea781e",
            "revertMessage": "",
            "sender": "0x9be0784a62fe33d43e53c63e67b10b55e8bed839",
            "simulationEnable": true,
            "sourceTxnHash": "0x292d0415a6aaef6e0d658e7eb7ff8db0623465f919e63cf704c7e710fbacaf8b",
            "status": true,
            "timestamp": "2021-06-22T12:47:41Z",
            "transactionFee": "0.00953513",
            "txnHash": "0x292d0415a6aaef6e0d658e7eb7ff8db0623465f919e63cf704c7e710fbacaf8b",
            "txnIndex": 61,
            "type": 0,
            "value": "0"
        },
        "fund_flow": [],
        "token_infos": [
            {
                "address": "0xc02aaa39b223fe8d0a0e5c4f27ead9083c756cc2",
                "decimals": 18
            },
            {
                "address": "0xeeeeeeeeeeeeeeeeeeeeeeeeeeeeeeeeeeeeeeee",
                "decimals": 18
            }
        ]
    },
    "address_label": {
        "labels": [
            {
                "address": "0xeeeeeeeeeeeeeeeeeeeeeeeeeeeeeeeeeeeeeeee",
                "label": "Ether"
            },
            {
                "address": "0x514910771af9ca656af840dff83e8264ecf986ca",
                "label": "Chainlink: LINK Token"
            },
            {
                "address": "0xa2107fa5b38d9bbd2c461d6edf11b11a50f6b974",
                "label": "Uniswap V2: LINK"
            },
            {
                "address": "0xca3d6a94759cb675f0ac10a76fc0da6ee6bf6e7b",
                "label": "SakeSwap LP Token (SLP)"
            },
            {
                "address": "0x0000000000000000000000000000000000000001",
                "label": "Precompiled"
            },
            {
                "address": "0x0000000000000000000000000000000000000002",
                "label": "Precompiled"
            },
            {
                "address": "0x0000000000000000000000000000000000000003",
                "label": "Precompiled"
            },
            {
                "address": "0x0000000000000000000000000000000000000004",
                "label": "Precompiled"
            }
        ]
    },
    "trace": {
        "accountLabels": null,
        "dataMap": {
            "-1": {
                "invocation": {
                    "address": "0x9be0784a62fe33d43e53c63e67b10b55e8bed839",
                    "callData": "",
                    "decodedMethod": null,
                    "errorInfo": "",
                    "fromAddress": "",
                    "gasUsed": 0,
                    "id": -1,
                    "methodDecoded": false,
                    "operation": "",
                    "output": "",
                    "revert": false,
                    "revertMessage": "",
                    "selector": "",
                    "status": false,
                    "value": ""
                },
                "nodeType": 0
            },
            "0": {
                "invocation": {
                    "address": "0xafa62ccbbcdbeaa5450d7013c9e13824f9ea781e",
                    "callData": "0x000000000000000000000000000000000000000000000000f578f2a5baebaa550000000000000000000000000000000000000000000000000092289cae0f40000000000000000000000000000000000000000000000000000000000000000000000000000000000000000000000000000000000000000000000000000000007400000000000000000000000000000000000000000000000000000000000000a00000000000000000000000000000000000000000000000000000000000000002000000000000000000000000a2107fa5b38d9bbd2c461d6edf11b11a50f6b974000000000000000000000000514910771af9ca656af840dff83e8264ecf986ca0000000000000000000000000000000000000000000000000000000000000000000000000000000000000000ca3d6a94759cb675f0ac10a76fc0da6ee6bf6e7b000000000000000000000000c02aaa39b223fe8d0a0e5c4f27ead9083c756cc20000000000000000000000000000000000000000000000000000000000000000",
                    "decodedMethod": null,
                    "errorInfo": "",
                    "fromAddress": "0x9be0784a62fe33d43e53c63e67b10b55e8bed839",
                    "gasUsed": 50990,
                    "id": 0,
                    "methodDecoded": false,
                    "operation": "CALL",
                    "output": "",
                    "revert": false,
                    "revertMessage": "",
                    "selector": "0xc5d40494",
                    "status": true,
                    "value": "0"
                },
                "nodeType": 0
            },
            "1": {
                "invocation": {
                    "address": "0x19404ecdabe21572d1124d21f30c78c55ed51988",
                    "callData": "0x000000000000000000000000000000000000000000000000f578f2a5baebaa55000000000000000000000000514910771af9ca656af840dff83e8264ecf986ca000000000000000000000000a2107fa5b38d9bbd2c461d6edf11b11a50f6b97400000000000000000000000000000000000000000000000000000000000026f2",
                    "decodedMethod": null,
                    "errorInfo": "",
                    "fromAddress": "0xafa62ccbbcdbeaa5450d7013c9e13824f9ea781e",
                    "gasUsed": 8816,
                    "id": 1,
                    "methodDecoded": false,
                    "operation": "DELEGATECALL",
                    "output": "0x00000000000000000000000000000000000000000000006dce1b72410f6bd9fe0000000000000000000000000000000000000000000000000000000000000001",
                    "revert": false,
                    "revertMessage": "",
                    "selector": "0xac0f3cc0",
                    "status": true,
                    "value": "0"
                },
                "nodeType": 0
            },
            "2": {
                "invocation": {
                    "address": "0xa2107fa5b38d9bbd2c461d6edf11b11a50f6b974",
                    "callData": "0x",
                    "decodedMethod": {
                        "callParams": [],
                        "constructorArguments": "",
                        "name": "getReserves",
                        "returnParams": [
                            {
                                "name": "_reserve0",
                                "type": "uint112",
                                "value": "1,201,227,070,483,639,732,013,288"
                            },
                            {
                                "name": "_reserve1",
                                "type": "uint112",
                                "value": "10,440,651,259,728,329,168,288"
                            },
                            {
                                "name": "_blockTimestampLast",
                                "type": "uint32",
                                "value": "1,624,366,041"
                            }
                        ],
                        "signature": "getReserves()"
                    },
                    "errorInfo": "",
                    "fromAddress": "0xafa62ccbbcdbeaa5450d7013c9e13824f9ea781e",
                    "gasUsed": 2504,
                    "id": 2,
                    "methodDecoded": true,
                    "operation": "STATICCALL",
                    "output": "0x00000000000000000000000000000000000000000000fe5ea664a7160f0008e8000000000000000000000000000000000000000000000235fd248bc821b3d5a00000000000000000000000000000000000000000000000000000000060d1dbd9",
                    "revert": false,
                    "revertMessage": "",
                    "selector": "0x0902f1ac",
                    "status": true,
                    "value": "0"
                },
                "nodeType": 0
            },
            "3": {
                "invocation": {
                    "address": "0xa2107fa5b38d9bbd2c461d6edf11b11a50f6b974",
                    "callData": "0x",
                    "decodedMethod": {
                        "callParams": [],
                        "constructorArguments": "",
                        "name": "token0",
                        "returnParams": [
                            {
                                "name": "",
                                "type": "address",
                                "value": "0x514910771af9ca656af840dff83e8264ecf986ca"
                            }
                        ],
                        "signature": "token0()"
                    },
                    "errorInfo": "",
                    "fromAddress": "0xafa62ccbbcdbeaa5450d7013c9e13824f9ea781e",
                    "gasUsed": 2381,
                    "id": 3,
                    "methodDecoded": true,
                    "operation": "STATICCALL",
                    "output": "0x000000000000000000000000514910771af9ca656af840dff83e8264ecf986ca",
                    "revert": false,
                    "revertMessage": "",
                    "selector": "0x0dfe1681",
                    "status": true,
                    "value": "0"
                },
                "nodeType": 0
            },
            "4": {
                "invocation": {
                    "address": "0x19404ecdabe21572d1124d21f30c78c55ed51988",
                    "callData": "0x00000000000000000000000000000000000000000000006dce1b72410f6bd9fe000000000000000000000000c02aaa39b223fe8d0a0e5c4f27ead9083c756cc2000000000000000000000000ca3d6a94759cb675f0ac10a76fc0da6ee6bf6e7b00000000000000000000000000000000000000000000000000000000000026f2",
                    "decodedMethod": null,
                    "errorInfo": "",
                    "fromAddress": "0xafa62ccbbcdbeaa5450d7013c9e13824f9ea781e",
                    "gasUsed": 8953,
                    "id": 4,
                    "methodDecoded": false,
                    "operation": "DELEGATECALL",
                    "output": "0x000000000000000000000000000000000000000000000000f12fb36bf6c44d460000000000000000000000000000000000000000000000000000000000000001",
                    "revert": false,
                    "revertMessage": "",
                    "selector": "0xac0f3cc0",
                    "status": true,
                    "value": "0"
                },
                "nodeType": 0
            },
            "5": {
                "invocation": {
                    "address": "0xca3d6a94759cb675f0ac10a76fc0da6ee6bf6e7b",
                    "callData": "0x",
                    "decodedMethod": {
                        "callParams": [],
                        "constructorArguments": "",
                        "name": "getReserves",
                        "returnParams": [
                            {
                                "name": "_reserve0",
                                "type": "uint112",
                                "value": "199,080,290,059,756,381,126,968"
                            },
                            {
                                "name": "_reserve1",
                                "type": "uint112",
                                "value": "1,730,639,389,534,730,389,326"
                            },
                            {
                                "name": "_blockTimestampLast",
                                "type": "uint32",
                                "value": "1,624,365,235"
                            }
                        ],
                        "signature": "getReserves()"
                    },
                    "errorInfo": "",
                    "fromAddress": "0xafa62ccbbcdbeaa5450d7013c9e13824f9ea781e",
                    "gasUsed": 2540,
                    "id": 5,
                    "methodDecoded": true,
                    "operation": "STATICCALL",
                    "output": "0x000000000000000000000000000000000000000000002a282a05acc4245bc13800000000000000000000000000000000000000000000005dd1723b761c7d074e0000000000000000000000000000000000000000000000000000000060d1d8b3",
                    "revert": false,
                    "revertMessage": "",
                    "selector": "0x0902f1ac",
                    "status": true,
                    "value": "0"
                },
                "nodeType": 0
            },
            "6": {
                "invocation": {
                    "address": "0xca3d6a94759cb675f0ac10a76fc0da6ee6bf6e7b",
                    "callData": "0x",
                    "decodedMethod": {
                        "callParams": [],
                        "constructorArguments": "",
                        "name": "token0",
                        "returnParams": [
                            {
                                "name": "",
                                "type": "address",
                                "value": "0x514910771af9ca656af840dff83e8264ecf986ca"
                            }
                        ],
                        "signature": "token0()"
                    },
                    "errorInfo": "",
                    "fromAddress": "0xafa62ccbbcdbeaa5450d7013c9e13824f9ea781e",
                    "gasUsed": 2472,
                    "id": 6,
                    "methodDecoded": true,
                    "operation": "STATICCALL",
                    "output": "0x000000000000000000000000514910771af9ca656af840dff83e8264ecf986ca",
                    "revert": false,
                    "revertMessage": "",
                    "selector": "0x0dfe1681",
                    "status": true,
                    "value": "0"
                },
                "nodeType": 0
            }
        },
        "gasFlame": [
            {
                "children": [
                    {
                        "children": [
                            {
                                "children": [],
                                "depth": 0,
                                "name": "Initial Gas",
                                "value": 23764
                            },
                            {
                                "children": [
                                    {
                                        "children": [
                                            {
                                                "children": [],
                                                "depth": 2,
                                                "name": "getReserves",
                                                "value": 2504
                                            },
                                            {
                                                "children": [],
                                                "depth": 2,
                                                "name": "token0",
                                                "value": 2381
                                            }
                                        ],
                                        "depth": 1,
                                        "name": "0xac0f3cc0",
                                        "value": 8816
                                    },
                                    {
                                        "children": [
                                            {
                                                "children": [],
                                                "depth": 2,
                                                "name": "getReserves",
                                                "value": 2540
                                            },
                                            {
                                                "children": [],
                                                "depth": 2,
                                                "name": "token0",
                                                "value": 2472
                                            }
                                        ],
                                        "depth": 1,
                                        "name": "0xac0f3cc0",
                                        "value": 8953
                                    }
                                ],
                                "depth": 0,
                                "name": "Executed Gas",
                                "value": 27226
                            }
                        ],
                        "depth": -1,
                        "name": "Actual Gas Used",
                        "value": 50990
                    },
                    {
                        "children": [],
                        "depth": -1,
                        "name": "Refunded Gas",
                        "value": 0
                    }
                ],
                "depth": -2,
                "name": "Total Gas",
                "value": 50990
            }
        ],
        "isConfirmed": true,
        "mainTrace": [
            {
                "children": [
                    {
                        "children": [
                            {
                                "children": [
                                    {
                                        "children": [],
                                        "depth": 2,
                                        "id": 2,
                                        "order": 2
                                    },
                                    {
                                        "children": [],
                                        "depth": 2,
                                        "id": 3,
                                        "order": 3
                                    }
                                ],
                                "depth": 1,
                                "id": 1,
                                "order": 1
                            },
                            {
                                "children": [
                                    {
                                        "children": [],
                                        "depth": 2,
                                        "id": 5,
                                        "order": 5
                                    },
                                    {
                                        "children": [],
                                        "depth": 2,
                                        "id": 6,
                                        "order": 6
                                    }
                                ],
                                "depth": 1,
                                "id": 4,
                                "order": 4
                            }
                        ],
                        "depth": 0,
                        "id": 0,
                        "order": 0
                    }
                ],
                "depth": -1,
                "id": -1,
                "order": -1
            }
        ],
        "mainTraceNodeCount": 7,
        "parentIdMap": {
            "0": -1,
            "1": 0,
            "2": 1,
            "3": 1,
            "4": 0,
            "5": 4,
            "6": 4
        },
        "tidyTrace": [
            {
                "children": [
                    {
                        "children": [
                            {
                                "children": [],
                                "depth": 1,
                                "id": 1,
                                "order": 1
                            },
                            {
                                "children": [],
                                "depth": 1,
                                "id": 4,
                                "order": 4
                            }
                        ],
                        "depth": 0,
                        "id": 0,
                        "order": 0
                    }
                ],
                "depth": -1,
                "id": -1,
                "order": -1
            }
        ],
        "tidyTraceNodeCount": 3
    },
    "state_change": {
        "stateChanges": []
    }
}