{
    "balance_change": {
        "balanceChanges": [
            {
                "account": "0x18275914a8b07696d744f9f22205051f3bac1a22",
                "assets": [
                    {
                        "address": "0x2eb86e8fc520e0f6bb5d9af08f924fe70558ab89",
                        "amount": "555",
                        "iconUrl": "",
                        "isERC1155": false,
                        "isERC721": false,
                        "sign": false,
                        "value": ""
                    }
                ]
            },
            {
                "account": "0x3389135b58f51052a5da4f40e70d3ca106da336e",
                "assets": [
                    {
                        "address": "0x2eb86e8fc520e0f6bb5d9af08f924fe70558ab89",
                        "amount": "555",
                        "iconUrl": "",
                        "isERC1155": false,
                        "isERC721": false,
                        "sign": true,
                        "value": ""
                    }
                ]
            }
        ]
    },
    "profile": {
        "basic_info": {
            "baseFee": "",
            "blockNumber": 4551315,
            "callData": "0xa9059cbb0000000000000000000000003389135b58f51052a5da4f40e70d3ca106da336e0000000000000000000000000000000000000000000000000000000cec0ecb00",
            "debugEnable": true,
            "errorInfo": "",
            "eventCount": 1,
            "feeRecipient": "0x829bd824b016326a401d083b33d092293333a830",
            "formatValue": "0",
            "gasLimit": 60000,
            "gasPrice": "0.2",
            "gasUsed": 52691,
            "intTxnCount": 0,
            "internalRevert": false,
            "internalRevertMessage": "",
            "isContractCreation": false,
            "isFlashloan": false,
            "maxFee": "",
            "nonce": 3804,
            "overwritedBlockNumber": -1,
            "priorityFee": "",
            "receiver": "0x2eb86e8fc520e0f6bb5d9af08f924fe70558ab89",
            "revertMessage": "",
            "sender": "0x18275914a8b07696d744f9f22205051f3bac1a22",
            "simulationEnable": true,
            "sourceTxnHash": "0x2971762ef1bc668eec91890eb551adf88f448f4e00d3d3099f097ad3d5429b04",
            "status": true,
            "timestamp": "2017-11-14T13:26:33Z",
            "transactionFee": "0.0000105382",
            "txnHash": "0x2971762ef1bc668eec91890eb551adf88f448f4e00d3d3099f097ad3d5429b04",
            "txnIndex": 31,
            "type": 0,
            "value": "0"
        },
        "fund_flow": [
            {
                "amount": "555",
                "from": "0x18275914a8b07696d744f9f22205051f3bac1a22",
                "id": 1,
                "isERC1155": false,
                "isERC721": false,
                "isReverted": false,
                "order": 1,
                "to": "0x3389135b58f51052a5da4f40e70d3ca106da336e",
                "token": "0x2eb86e8fc520e0f6bb5d9af08f924fe70558ab89"
            }
        ],
        "token_infos": [
            {
                "address": "0x2eb86e8fc520e0f6bb5d9af08f924fe70558ab89",
                "decimals": 8
            },
            {
                "address": "0xc02aaa39b223fe8d0a0e5c4f27ead9083c756cc2",
                "decimals": 18
            },
            {
                "address": "0xeeeeeeeeeeeeeeeeeeeeeeeeeeeeeeeeeeeeeeee",
                "decimals": 18
            }
        ]
    },
    "address_label": {
        "labels": [
            {
                "address": "0xeeeeeeeeeeeeeeeeeeeeeeeeeeeeeeeeeeeeeeee",
                "label": "Ether"
            },
            {
                "address": "0x2eb86e8fc520e0f6bb5d9af08f924fe70558ab89",
                "label": "LGR"
            },
            {
                "address": "0x0000000000000000000000000000000000000001",
                "label": "Precompiled"
            },
            {
                "address": "0x0000000000000000000000000000000000000002",
                "label": "Precompiled"
            },
            {
                "address": "0x0000000000000000000000000000000000000003",
                "label": "Precompiled"
            },
            {
                "address": "0x0000000000000000000000000000000000000004",
                "label": "Precompiled"
            }
        ]
    },
    "trace": {
        "accountLabels": null,
        "dataMap": {
            "-1": {
                "invocation": {
                    "address": "0x18275914a8b07696d744f9f22205051f3bac1a22",
                    "callData": "",
                    "decodedMethod": null,
                    "errorInfo": "",
                    "fromAddress": "",
                    "gasUsed": 0,
                    "id": -1,
                    "methodDecoded": false,
                    "operation": "",
                    "output": "",
                    "revert": false,
                    "revertMessage": "",
                    "selector": "",
                    "status": false,
                    "value": ""
                },
                "nodeType": 0
            },
            "0": {
                "invocation": {
                    "address": "0x2eb86e8fc520e0f6bb5d9af08f924fe70558ab89",
                    "callData": "0x0000000000000000000000003389135b58f51052a5da4f40e70d3ca106da336e0000000000000000000000000000000000000000000000000000000cec0ecb00",
                    "decodedMethod": {
                        "callParams": [
                            {
                                "name": "_to",
                                "type": "address",
                                "value": "0x3389135b58f51052a5da4f40e70d3ca106da336e"
                            },
                            {
                                "decimalAvailable": true,
                                "name": "_value",
                                "type": "uint256",
                                "value": "55,500,000,000"
                            }
                        ],
                        "constructorArguments": "",
                        "name": "transfer",
                        "returnParams": [],
                        "signature": "transfer(address,uint256)"
                    },
                    "errorInfo": "",
                    "fromAddress": "0x18275914a8b07696d744f9f22205051f3bac1a22",
                    "gasUsed": 52691,
                    "id": 0,
                    "methodDecoded": true,
                    "operation": "CALL",
                    "output": "",
                    "revert": false,
                    "revertMessage": "",
                    "selector": "0xa9059cbb",
                    "status": true,
                    "value": "0"
                },
                "nodeType": 0
            },
            "1": {
                "event": {
                    "contract": "0x2eb86e8fc520e0f6bb5d9af08f924fe70558ab89",
                    "decodedLog": {
                        "name": "Transfer",
                        "params": [
                            {
                                "name": "from",
                                "type": "address",
                                "value": "0x18275914a8b07696d744f9f22205051f3bac1a22"
                            },
                            {
                                "name": "to",
                                "type": "address",
                                "value": "0x3389135b58f51052a5da4f40e70d3ca106da336e"
                            },
                            {
                                "decimalAvailable": true,
                                "name": "value",
                                "type": "uint256",
                                "value": "55,500,000,000"
                            }
                        ],
                        "signature": "Transfer(address,address,uint256)"
                    },
                    "id": 1,
                    "logData": "0x0000000000000000000000000000000000000000000000000000000cec0ecb00",
                    "logDecoded": true,
                    "operation": "EVENT",
                    "revert": false,
                    "status": true,
                    "topics": [
                        "0xddf252ad1be2c89b69c2b068fc378daa952ba7f163c4a11628f55a4df523b3ef",
                        "0x00000000000000000000000018275914a8b07696d744f9f22205051f3bac1a22",
                        "0x0000000000000000000000003389135b58f51052a5da4f40e70d3ca106da336e"
                    ]
                },
                "nodeType": 1
            }
        },
        "gasFlame": [
            {
                "children": [
                    {
                        "children": [
                            {
                                "children": [],
                                "depth": 0,
                                "name": "Initial Gas",
                                "value": 23064
                            },
                            {
                                "children": [],
                                "depth": 0,
                                "name": "Executed Gas",
                                "value": 29627
                            }
                        ],
                        "depth": -1,
                        "name": "Actual Gas Used",
                        "value": 52691
                    },
                    {
                        "children": [],
                        "depth": -1,
                        "name": "Refunded Gas",
                        "value": 0
                    }
                ],
                "depth": -2,
                "name": "Total Gas",
                "value": 52691
            }
        ],
        "isConfirmed": true,
        "mainTrace": [
            {
                "children": [
                    {
                        "children": [
                            {
                                "children": [],
                                "depth": 1,
                                "id": 1,
                                "order": 1
                            }
                        ],
                        "depth": 0,
                        "id": 0,
                        "order": 0
                    }
                ],
                "depth": -1,
                "id": -1,
                "order": -1
            }
        ],
        "mainTraceNodeCount": 2,
        "parentIdMap": {
            "0": -1,
            "1": 0
        },
        "tidyTrace": [
            {
                "children": [
                    {
                        "children": [
                            {
                                "children": [],
                                "depth": 1,
                                "id": 1,
                                "order": 1
                            }
                        ],
                        "depth": 0,
                        "id": 0,
                        "order": 0
                    }
                ],
                "depth": -1,
                "id": -1,
                "order": -1
            }
        ],
        "tidyTraceNodeCount": 2
    },
    "state_change": {
        "stateChanges": [
            {
                "address": "0x2eb86e8fc520e0f6bb5d9af08f924fe70558ab89",
                "erc": "",
                "slots": [
                    {
                        "current": "0x0000000000000000000000000000000000000000000000000012e06f99602254",
                        "key": "0x0297ce73e387323f10c78f46503e31c15db50343339d425468a5d40c493c3501",
                        "prev": "0x0000000000000000000000000000000000000000000000000012e07c856eed54"
                    },
                    {
                        "current": "0x0000000000000000000000000000000000000000000000000000000cec0ecb00",
                        "key": "0x717f6ffea23d20e4fff526073adb64b5840c432cec9a0c13bd35b9a8c245b797",
                        "prev": "0x0000000000000000000000000000000000000000000000000000000000000000"
                    }
                ],
                "storageVariables": [
                    {
                        "name": "balanceOf",
                        "type": "mapping(address => uint256)",
                        "value": {
                            "pairs": [
                                {
                                    "key": "0x18275914a8b07696d744f9f22205051f3bac1a22",
                                    "value": {
                                        "current": "5313319499997780",
                                        "prev": "5313374999997780",
                                        "typeTag": 1
                                    }
                                },
                                {
                                    "key": "0x3389135b58f51052a5da4f40e70d3ca106da336e",
                                    "value": {
                                        "current": "55500000000",
                                        "prev": "0",
                                        "typeTag": 1
                                    }
                                }
                            ],
                            "typeTag": 4
                        }
                    }
                ]
            }
        ]
    }
}