{
    "balance_change": {
        "balanceChanges": [
            {
                "account": "0xbf13d5523bd82837c2a4760b527e49fdb26e1686",
                "assets": [
                    {
                        "address": "0x7105ec15995a97496ec25de36cf7eec47b703375",
                        "amount": "8,198.73505413",
                        "iconUrl": "",
                        "isERC1155": false,
                        "isERC721": false,
                        "sign": false,
                        "value": ""
                    }
                ]
            },
            {
                "account": "0x2f2ed6d1dca11b2474aa5785ac265691f1153928",
                "assets": [
                    {
                        "address": "0x7105ec15995a97496ec25de36cf7eec47b703375",
                        "amount": "8,198.73505413",
                        "iconUrl": "",
                        "isERC1155": false,
                        "isERC721": false,
                        "sign": true,
                        "value": ""
                    }
                ]
            }
        ]
    },
    "profile": {
        "basic_info": {
            "baseFee": "",
            "blockNumber": 11071338,
            "callData": "0xa9059cbb0000000000000000000000002f2ed6d1dca11b2474aa5785ac265691f11539280000000000000000000000000000000000000000000001bc744e2cf8a1ad7400",
            "debugEnable": true,
            "errorInfo": "",
            "eventCount": 1,
            "feeRecipient": "0x6ebaf477f83e055589c1188bcc6ddccd8c9b131a",
            "formatValue": "0",
            "gasLimit": 50688,
            "gasPrice": "19.03",
            "gasUsed": 21206,
            "intTxnCount": 0,
            "internalRevert": false,
            "internalRevertMessage": "",
            "isContractCreation": false,
            "isFlashloan": false,
            "maxFee": "",
            "nonce": 5,
            "overwritedBlockNumber": -1,
            "priorityFee": "",
            "receiver": "0x7105ec15995a97496ec25de36cf7eec47b703375",
            "revertMessage": "",
            "sender": "0xbf13d5523bd82837c2a4760b527e49fdb26e1686",
            "simulationEnable": true,
            "sourceTxnHash": "0x295b1d47c336efefa4ad5d1a7c158511e4c46142e51d29a483c74b1e6d376979",
            "status": true,
            "timestamp": "2020-10-17T04:38:27Z",
            "transactionFee": "0.00040355018",
            "txnHash": "0x295b1d47c336efefa4ad5d1a7c158511e4c46142e51d29a483c74b1e6d376979",
            "txnIndex": 122,
            "type": 0,
            "value": "0"
        },
        "fund_flow": [
            {
                "amount": "8,198.73505413",
                "from": "0xbf13d5523bd82837c2a4760b527e49fdb26e1686",
                "id": 1,
                "isERC1155": false,
                "isERC721": false,
                "isReverted": false,
                "order": 1,
                "to": "0x2f2ed6d1dca11b2474aa5785ac265691f1153928",
                "token": "0x7105ec15995a97496ec25de36cf7eec47b703375"
            }
        ],
        "token_infos": [
            {
                "address": "0x7105ec15995a97496ec25de36cf7eec47b703375",
                "decimals": 18
            },
            {
                "address": "0xc02aaa39b223fe8d0a0e5c4f27ead9083c756cc2",
                "decimals": 18
            },
            {
                "address": "0xeeeeeeeeeeeeeeeeeeeeeeeeeeeeeeeeeeeeeeee",
                "decimals": 18
            }
        ]
    },
    "address_label": {
        "labels": [
            {
                "address": "0x7105ec15995a97496ec25de36cf7eec47b703375",
                "label": "Red Box Dapp: RBD Token"
            },
            {
                "address": "0x0000000000000000000000000000000000000001",
                "label": "Precompiled"
            },
            {
                "address": "0x0000000000000000000000000000000000000002",
                "label": "Precompiled"
            },
            {
                "address": "0x0000000000000000000000000000000000000003",
                "label": "Precompiled"
            },
            {
                "address": "0x0000000000000000000000000000000000000004",
                "label": "Precompiled"
            },
            {
                "address": "0xeeeeeeeeeeeeeeeeeeeeeeeeeeeeeeeeeeeeeeee",
                "label": "Ether"
            }
        ]
    },
    "trace": {
        "accountLabels": null,
        "dataMap": {
            "-1": {
                "invocation": {
                    "address": "0xbf13d5523bd82837c2a4760b527e49fdb26e1686",
                    "callData": "",
                    "decodedMethod": null,
                    "errorInfo": "",
                    "fromAddress": "",
                    "gasUsed": 0,
                    "id": -1,
                    "methodDecoded": false,
                    "operation": "",
                    "output": "",
                    "revert": false,
                    "revertMessage": "",
                    "selector": "",
                    "status": false,
                    "value": ""
                },
                "nodeType": 0
            },
            "0": {
                "invocation": {
                    "address": "0x7105ec15995a97496ec25de36cf7eec47b703375",
                    "callData": "0x0000000000000000000000002f2ed6d1dca11b2474aa5785ac265691f11539280000000000000000000000000000000000000000000001bc744e2cf8a1ad7400",
                    "decodedMethod": {
                        "callParams": [
                            {
                                "name": "to",
                                "type": "address",
                                "value": "0x2f2ed6d1dca11b2474aa5785ac265691f1153928"
                            },
                            {
                                "decimalAvailable": true,
                                "name": "tokens",
                                "type": "uint256",
                                "value": "8,198,735,054,130,000,000,000"
                            }
                        ],
                        "constructorArguments": "",
                        "name": "transfer",
                        "returnParams": [
                            {
                                "name": "success",
                                "type": "bool",
                                "value": true
                            }
                        ],
                        "signature": "transfer(address,uint256)"
                    },
                    "errorInfo": "",
                    "fromAddress": "0xbf13d5523bd82837c2a4760b527e49fdb26e1686",
                    "gasUsed": 21206,
                    "id": 0,
                    "methodDecoded": true,
                    "operation": "CALL",
                    "output": "0x0000000000000000000000000000000000000000000000000000000000000001",
                    "revert": false,
                    "revertMessage": "",
                    "selector": "0xa9059cbb",
                    "status": true,
                    "value": "0"
                },
                "nodeType": 0
            },
            "1": {
                "event": {
                    "contract": "0x7105ec15995a97496ec25de36cf7eec47b703375",
                    "decodedLog": {
                        "name": "Transfer",
                        "params": [
                            {
                                "name": "from",
                                "type": "address",
                                "value": "0xbf13d5523bd82837c2a4760b527e49fdb26e1686"
                            },
                            {
                                "name": "to",
                                "type": "address",
                                "value": "0x2f2ed6d1dca11b2474aa5785ac265691f1153928"
                            },
                            {
                                "decimalAvailable": true,
                                "name": "tokens",
                                "type": "uint256",
                                "value": "8,198,735,054,130,000,000,000"
                            }
                        ],
                        "signature": "Transfer(address,address,uint256)"
                    },
                    "id": 1,
                    "logData": "0x0000000000000000000000000000000000000000000001bc744e2cf8a1ad7400",
                    "logDecoded": true,
                    "operation": "EVENT",
                    "revert": false,
                    "status": true,
                    "topics": [
                        "0xddf252ad1be2c89b69c2b068fc378daa952ba7f163c4a11628f55a4df523b3ef",
                        "0x000000000000000000000000bf13d5523bd82837c2a4760b527e49fdb26e1686",
                        "0x0000000000000000000000002f2ed6d1dca11b2474aa5785ac265691f1153928"
                    ]
                },
                "nodeType": 1
            }
        },
        "gasFlame": [
            {
                "children": [
                    {
                        "children": [
                            {
                                "children": [],
                                "depth": 0,
                                "name": "Initial Gas",
                                "value": 21668
                            },
                            {
                                "children": [],
                                "depth": 0,
                                "name": "Executed Gas",
                                "value": 14538
                            }
                        ],
                        "depth": -1,
                        "name": "Actual Gas Used",
                        "value": 21206
                    },
                    {
                        "children": [],
                        "depth": -1,
                        "name": "Refunded Gas",
                        "value": 15000
                    }
                ],
                "depth": -2,
                "name": "Total Gas",
                "value": 36206
            }
        ],
        "isConfirmed": true,
        "mainTrace": [
            {
                "children": [
                    {
                        "children": [
                            {
                                "children": [],
                                "depth": 1,
                                "id": 1,
                                "order": 1
                            }
                        ],
                        "depth": 0,
                        "id": 0,
                        "order": 0
                    }
                ],
                "depth": -1,
                "id": -1,
                "order": -1
            }
        ],
        "mainTraceNodeCount": 2,
        "parentIdMap": {
            "0": -1,
            "1": 0
        },
        "tidyTrace": [
            {
                "children": [
                    {
                        "children": [
                            {
                                "children": [],
                                "depth": 1,
                                "id": 1,
                                "order": 1
                            }
                        ],
                        "depth": 0,
                        "id": 0,
                        "order": 0
                    }
                ],
                "depth": -1,
                "id": -1,
                "order": -1
            }
        ],
        "tidyTraceNodeCount": 2
    },
    "state_change": {
        "stateChanges": [
            {
                "address": "0x7105ec15995a97496ec25de36cf7eec47b703375",
                "erc": "ERC-20",
                "slots": [
                    {
                        "current": "0x000000000000000000000000000000000000000000002a0be6a52474d620da10",
                        "key": "0x91fdb65de6d32040a8c28b99b371e9d3bf31af486ea17e38717b859668896978",
                        "prev": "0x00000000000000000000000000000000000000000000284f7256f77c34736610"
                    },
                    {
                        "current": "0x0000000000000000000000000000000000000000000000000000000000000000",
                        "key": "0x0bae0be8a6c13ae59e77eb0e9bd1336de5e779016b0a0eb5ae61dcd8572b29c6",
                        "prev": "0x0000000000000000000000000000000000000000000001bc744e2cf8a1ad7400"
                    }
                ],
                "storageVariables": [
                    {
                        "name": "balances",
                        "type": "mapping(address => uint256)",
                        "value": {
                            "pairs": [
                                {
                                    "key": "0x2f2ed6d1dca11b2474aa5785ac265691f1153928",
                                    "value": {
                                        "current": "198558926195420012010000",
                                        "prev": "190360191141290012010000",
                                        "typeTag": 1
                                    }
                                },
                                {
                                    "key": "0xbf13d5523bd82837c2a4760b527e49fdb26e1686",
                                    "value": {
                                        "current": "0",
                                        "prev": "8198735054130000000000",
                                        "typeTag": 1
                                    }
                                }
                            ],
                            "typeTag": 4
                        }
                    }
                ]
            }
        ]
    }
}