{
    "balance_change": {
        "balanceChanges": [
            {
                "account": "0x381e840f4ebe33d0153e9a312105554594a98c42",
                "assets": [
                    {
                        "address": "0xc36cf0cfcb5d905b8b513860db0cfe63f6cf9f5c",
                        "amount": "2",
                        "iconUrl": "",
                        "isERC1155": true,
                        "isERC721": false,
                        "sign": false,
                        "tokenID": "116376569486960954504474115741664728317952",
                        "value": ""
                    },
                    {
                        "address": "0xc36cf0cfcb5d905b8b513860db0cfe63f6cf9f5c",
                        "amount": "2",
                        "iconUrl": "",
                        "isERC1155": true,
                        "isERC721": false,
                        "sign": false,
                        "tokenID": "116036287120040016041010741134232960106496",
                        "value": ""
                    },
                    {
                        "address": "0xc36cf0cfcb5d905b8b513860db0cfe63f6cf9f5c",
                        "amount": "2",
                        "iconUrl": "",
                        "isERC1155": true,
                        "isERC721": false,
                        "sign": false,
                        "tokenID": "117737698954644708358327614171391801163776",
                        "value": ""
                    },
                    {
                        "address": "0xc36cf0cfcb5d905b8b513860db0cfe63f6cf9f5c",
                        "amount": "2",
                        "iconUrl": "",
                        "isERC1155": true,
                        "isERC721": false,
                        "sign": false,
                        "tokenID": "117397416587723769894864239563960032952320",
                        "value": ""
                    },
                    {
                        "address": "0xc36cf0cfcb5d905b8b513860db0cfe63f6cf9f5c",
                        "amount": "2",
                        "iconUrl": "",
                        "isERC1155": true,
                        "isERC721": false,
                        "sign": false,
                        "tokenID": "117057134220802831431400864956528264740864",
                        "value": ""
                    },
                    {
                        "address": "0xc36cf0cfcb5d905b8b513860db0cfe63f6cf9f5c",
                        "amount": "2",
                        "iconUrl": "",
                        "isERC1155": true,
                        "isERC721": false,
                        "sign": false,
                        "tokenID": "116716851853881892967937490349096496529408",
                        "value": ""
                    }
                ]
            },
            {
                "account": "0x5952392e717924a0b47fc7280e720ccf3263dea9",
                "assets": [
                    {
                        "address": "0xc36cf0cfcb5d905b8b513860db0cfe63f6cf9f5c",
                        "amount": "2",
                        "iconUrl": "",
                        "isERC1155": true,
                        "isERC721": false,
                        "sign": true,
                        "tokenID": "116376569486960954504474115741664728317952",
                        "value": ""
                    },
                    {
                        "address": "0xc36cf0cfcb5d905b8b513860db0cfe63f6cf9f5c",
                        "amount": "2",
                        "iconUrl": "",
                        "isERC1155": true,
                        "isERC721": false,
                        "sign": true,
                        "tokenID": "116036287120040016041010741134232960106496",
                        "value": ""
                    },
                    {
                        "address": "0xc36cf0cfcb5d905b8b513860db0cfe63f6cf9f5c",
                        "amount": "2",
                        "iconUrl": "",
                        "isERC1155": true,
                        "isERC721": false,
                        "sign": true,
                        "tokenID": "117737698954644708358327614171391801163776",
                        "value": ""
                    },
                    {
                        "address": "0xc36cf0cfcb5d905b8b513860db0cfe63f6cf9f5c",
                        "amount": "2",
                        "iconUrl": "",
                        "isERC1155": true,
                        "isERC721": false,
                        "sign": true,
                        "tokenID": "117397416587723769894864239563960032952320",
                        "value": ""
                    },
                    {
                        "address": "0xc36cf0cfcb5d905b8b513860db0cfe63f6cf9f5c",
                        "amount": "2",
                        "iconUrl": "",
                        "isERC1155": true,
                        "isERC721": false,
                        "sign": true,
                        "tokenID": "117057134220802831431400864956528264740864",
                        "value": ""
                    },
                    {
                        "address": "0xc36cf0cfcb5d905b8b513860db0cfe63f6cf9f5c",
                        "amount": "2",
                        "iconUrl": "",
                        "isERC1155": true,
                        "isERC721": false,
                        "sign": true,
                        "tokenID": "116716851853881892967937490349096496529408",
                        "value": ""
                    }
                ]
            }
        ]
    },
    "profile": {
        "basic_info": {
            "baseFee": "124.487851072",
            "blockNumber": 13717043,
            "callData": "0x2eb2c2d6000000000000000000000000381e840f4ebe33d0153e9a312105554594a98c420000000000000000000000005952392e717924a0b47fc7280e720ccf3263dea900000000000000000000000000000000000000000000000000000000000000a0000000000000000000000000000000000000000000000000000000000000018000000000000000000000000000000000000000000000000000000000000002600000000000000000000000000000000000000000000000000000000000000006000000000000000000000000000001590000000000000000000000000000000000000000000000000000000000000158000000000000000000000000000000000000000000000000000000000000015700000000000000000000000000000000000000000000000000000000000001560000000000000000000000000000000000000000000000000000000000000155000000000000000000000000000000000000000000000000000000000000015a0000000000000000000000000000000000000000000000000000000000000000000000000000000000000000000000060000000000000000000000000000000000000000000000000000000000000002000000000000000000000000000000000000000000000000000000000000000200000000000000000000000000000000000000000000000000000000000000020000000000000000000000000000000000000000000000000000000000000002000000000000000000000000000000000000000000000000000000000000000200000000000000000000000000000000000000000000000000000000000000020000000000000000000000000000000000000000000000000000000000000000",
            "debugEnable": true,
            "errorInfo": "",
            "eventCount": 1,
            "feeRecipient": "0xea674fdde714fd979de3edf0f56aa9716b898ec8",
            "formatValue": "0",
            "gasLimit": 380000,
            "gasPrice": "139.615106675",
            "gasUsed": 190813,
            "intTxnCount": 0,
            "internalRevert": false,
            "internalRevertMessage": "",
            "isContractCreation": false,
            "isFlashloan": false,
            "maxFee": "",
            "nonce": 64699,
            "overwritedBlockNumber": -1,
            "priorityFee": "",
            "receiver": "0xc36cf0cfcb5d905b8b513860db0cfe63f6cf9f5c",
            "revertMessage": "",
            "sender": "0x37b94141bca7000241b87b4b361f155197181002",
            "simulationEnable": true,
            "sourceTxnHash": "0x2ab21eb28cb68a1f7e22e7cb2f7d08951ebff37b34f6d5c3019b4fd76a23bff3",
            "status": true,
            "timestamp": "2021-11-30T20:58:42Z",
            "transactionFee": "0.026640377349976775",
            "txnHash": "0x2ab21eb28cb68a1f7e22e7cb2f7d08951ebff37b34f6d5c3019b4fd76a23bff3",
            "txnIndex": 263,
            "type": 0,
            "value": "0"
        },
        "fund_flow": [
            {
                "amount": "2",
                "from": "0x381e840f4ebe33d0153e9a312105554594a98c42",
                "id": 1,
                "isERC1155": true,
                "isERC721": false,
                "isReverted": false,
                "order": 1,
                "to": "0x5952392e717924a0b47fc7280e720ccf3263dea9",
                "token": "0xc36cf0cfcb5d905b8b513860db0cfe63f6cf9f5c",
                "tokenID": "117397416587723769894864239563960032952320"
            },
            {
                "amount": "2",
                "from": "0x381e840f4ebe33d0153e9a312105554594a98c42",
                "id": 2,
                "isERC1155": true,
                "isERC721": false,
                "isReverted": false,
                "order": 2,
                "to": "0x5952392e717924a0b47fc7280e720ccf3263dea9",
                "token": "0xc36cf0cfcb5d905b8b513860db0cfe63f6cf9f5c",
                "tokenID": "117057134220802831431400864956528264740864"
            },
            {
                "amount": "2",
                "from": "0x381e840f4ebe33d0153e9a312105554594a98c42",
                "id": 3,
                "isERC1155": true,
                "isERC721": false,
                "isReverted": false,
                "order": 3,
                "to": "0x5952392e717924a0b47fc7280e720ccf3263dea9",
                "token": "0xc36cf0cfcb5d905b8b513860db0cfe63f6cf9f5c",
                "tokenID": "116716851853881892967937490349096496529408"
            },
            {
                "amount": "2",
                "from": "0x381e840f4ebe33d0153e9a312105554594a98c42",
                "id": 4,
                "isERC1155": true,
                "isERC721": false,
                "isReverted": false,
                "order": 4,
                "to": "0x5952392e717924a0b47fc7280e720ccf3263dea9",
                "token": "0xc36cf0cfcb5d905b8b513860db0cfe63f6cf9f5c",
                "tokenID": "116376569486960954504474115741664728317952"
            },
            {
                "amount": "2",
                "from": "0x381e840f4ebe33d0153e9a312105554594a98c42",
                "id": 5,
                "isERC1155": true,
                "isERC721": false,
                "isReverted": false,
                "order": 5,
                "to": "0x5952392e717924a0b47fc7280e720ccf3263dea9",
                "token": "0xc36cf0cfcb5d905b8b513860db0cfe63f6cf9f5c",
                "tokenID": "116036287120040016041010741134232960106496"
            },
            {
                "amount": "2",
                "from": "0x381e840f4ebe33d0153e9a312105554594a98c42",
                "id": 6,
                "isERC1155": true,
                "isERC721": false,
                "isReverted": false,
                "order": 6,
                "to": "0x5952392e717924a0b47fc7280e720ccf3263dea9",
                "token": "0xc36cf0cfcb5d905b8b513860db0cfe63f6cf9f5c",
                "tokenID": "117737698954644708358327614171391801163776"
            }
        ],
        "token_infos": [
            {
                "address": "0xc02aaa39b223fe8d0a0e5c4f27ead9083c756cc2",
                "decimals": 18
            },
            {
                "address": "0xeeeeeeeeeeeeeeeeeeeeeeeeeeeeeeeeeeeeeeee",
                "decimals": 18
            }
        ]
    },
    "address_label": {
        "labels": [
            {
                "address": "0x0000000000000000000000000000000000000004",
                "label": "Precompiled"
            },
            {
                "address": "0xeeeeeeeeeeeeeeeeeeeeeeeeeeeeeeeeeeeeeeee",
                "label": "Ether"
            },
            {
                "address": "0xc36cf0cfcb5d905b8b513860db0cfe63f6cf9f5c",
                "label": "Town Star: Token"
            },
            {
                "address": "0x0000000000000000000000000000000000000001",
                "label": "Precompiled"
            },
            {
                "address": "0x0000000000000000000000000000000000000002",
                "label": "Precompiled"
            },
            {
                "address": "0x0000000000000000000000000000000000000003",
                "label": "Precompiled"
            }
        ]
    },
    "trace": {
        "accountLabels": null,
        "dataMap": {
            "-1": {
                "invocation": {
                    "address": "0x37b94141bca7000241b87b4b361f155197181002",
                    "callData": "",
                    "decodedMethod": null,
                    "errorInfo": "",
                    "fromAddress": "",
                    "gasUsed": 0,
                    "id": -1,
                    "methodDecoded": false,
                    "operation": "",
                    "output": "",
                    "revert": false,
                    "revertMessage": "",
                    "selector": "",
                    "status": false,
                    "value": ""
                },
                "nodeType": 0
            },
            "0": {
                "invocation": {
                    "address": "0xc36cf0cfcb5d905b8b513860db0cfe63f6cf9f5c",
                    "callData": "0x000000000000000000000000381e840f4ebe33d0153e9a312105554594a98c420000000000000000000000005952392e717924a0b47fc7280e720ccf3263dea900000000000000000000000000000000000000000000000000000000000000a0000000000000000000000000000000000000000000000000000000000000018000000000000000000000000000000000000000000000000000000000000002600000000000000000000000000000000000000000000000000000000000000006000000000000000000000000000001590000000000000000000000000000000000000000000000000000000000000158000000000000000000000000000000000000000000000000000000000000015700000000000000000000000000000000000000000000000000000000000001560000000000000000000000000000000000000000000000000000000000000155000000000000000000000000000000000000000000000000000000000000015a0000000000000000000000000000000000000000000000000000000000000000000000000000000000000000000000060000000000000000000000000000000000000000000000000000000000000002000000000000000000000000000000000000000000000000000000000000000200000000000000000000000000000000000000000000000000000000000000020000000000000000000000000000000000000000000000000000000000000002000000000000000000000000000000000000000000000000000000000000000200000000000000000000000000000000000000000000000000000000000000020000000000000000000000000000000000000000000000000000000000000000",
                    "decodedMethod": {
                        "callParams": [
                            {
                                "name": "_from",
                                "type": "address",
                                "value": "0x381e840f4ebe33d0153e9a312105554594a98c42"
                            },
                            {
                                "name": "_to",
                                "type": "address",
                                "value": "0x5952392e717924a0b47fc7280e720ccf3263dea9"
                            },
                            {
                                "name": "_ids",
                                "type": "uint256[]",
                                "value": [
                                    "117,397,416,587,723,769,894,864,239,563,960,032,952,320",
                                    "117,057,134,220,802,831,431,400,864,956,528,264,740,864",
                                    "116,716,851,853,881,892,967,937,490,349,096,496,529,408",
                                    "116,376,569,486,960,954,504,474,115,741,664,728,317,952",
                                    "116,036,287,120,040,016,041,010,741,134,232,960,106,496",
                                    "117,737,698,954,644,708,358,327,614,171,391,801,163,776"
                                ]
                            },
                            {
                                "name": "_values",
                                "type": "uint256[]",
                                "value": [
                                    "2",
                                    "2",
                                    "2",
                                    "2",
                                    "2",
                                    "2"
                                ]
                            },
                            {
                                "name": "_data",
                                "type": "bytes",
                                "value": "0x"
                            }
                        ],
                        "constructorArguments": "",
                        "name": "safeBatchTransferFrom",
                        "returnParams": [],
                        "signature": "safeBatchTransferFrom(address,address,uint256[],uint256[],bytes)"
                    },
                    "errorInfo": "",
                    "fromAddress": "0x37b94141bca7000241b87b4b361f155197181002",
                    "gasUsed": 190813,
                    "id": 0,
                    "methodDecoded": true,
                    "operation": "CALL",
                    "output": "",
                    "revert": false,
                    "revertMessage": "",
                    "selector": "0x2eb2c2d6",
                    "status": true,
                    "value": "0"
                },
                "nodeType": 0
            },
            "1": {
                "event": {
                    "contract": "0xc36cf0cfcb5d905b8b513860db0cfe63f6cf9f5c",
                    "decodedLog": {
                        "name": "TransferBatch",
                        "params": [
                            {
                                "name": "_operator",
                                "type": "address",
                                "value": "0x37b94141bca7000241b87b4b361f155197181002"
                            },
                            {
                                "name": "_from",
                                "type": "address",
                                "value": "0x381e840f4ebe33d0153e9a312105554594a98c42"
                            },
                            {
                                "name": "_to",
                                "type": "address",
                                "value": "0x5952392e717924a0b47fc7280e720ccf3263dea9"
                            },
                            {
                                "name": "_ids",
                                "type": "uint256[]",
                                "value": [
                                    "117,397,416,587,723,769,894,864,239,563,960,032,952,320",
                                    "117,057,134,220,802,831,431,400,864,956,528,264,740,864",
                                    "116,716,851,853,881,892,967,937,490,349,096,496,529,408",
                                    "116,376,569,486,960,954,504,474,115,741,664,728,317,952",
                                    "116,036,287,120,040,016,041,010,741,134,232,960,106,496",
                                    "117,737,698,954,644,708,358,327,614,171,391,801,163,776"
                                ]
                            },
                            {
                                "name": "_values",
                                "type": "uint256[]",
                                "value": [
                                    "2",
                                    "2",
                                    "2",
                                    "2",
                                    "2",
                                    "2"
                                ]
                            }
                        ],
                        "signature": "TransferBatch(address,address,address,uint256[],uint256[])"
                    },
                    "id": 1,
                    "logData": "0x000000000000000000000000000000000000000000000000000000000000004000000000000000000000000000000000000000000000000000000000000001200000000000000000000000000000000000000000000000000000000000000006000000000000000000000000000001590000000000000000000000000000000000000000000000000000000000000158000000000000000000000000000000000000000000000000000000000000015700000000000000000000000000000000000000000000000000000000000001560000000000000000000000000000000000000000000000000000000000000155000000000000000000000000000000000000000000000000000000000000015a000000000000000000000000000000000000000000000000000000000000000000000000000000000000000000000006000000000000000000000000000000000000000000000000000000000000000200000000000000000000000000000000000000000000000000000000000000020000000000000000000000000000000000000000000000000000000000000002000000000000000000000000000000000000000000000000000000000000000200000000000000000000000000000000000000000000000000000000000000020000000000000000000000000000000000000000000000000000000000000002",
                    "logDecoded": true,
                    "operation": "EVENT",
                    "revert": false,
                    "status": true,
                    "topics": [
                        "0x4a39dc06d4c0dbc64b70af90fd698a233a518aa5d07e595d983b8c0526c8f7fb",
                        "0x00000000000000000000000037b94141bca7000241b87b4b361f155197181002",
                        "0x000000000000000000000000381e840f4ebe33d0153e9a312105554594a98c42",
                        "0x0000000000000000000000005952392e717924a0b47fc7280e720ccf3263dea9"
                    ]
                },
                "nodeType": 1
            }
        },
        "gasFlame": [
            {
                "children": [
                    {
                        "children": [
                            {
                                "children": [],
                                "depth": 0,
                                "name": "Initial Gas",
                                "value": 24404
                            },
                            {
                                "children": [],
                                "depth": 0,
                                "name": "Executed Gas",
                                "value": 166409
                            }
                        ],
                        "depth": -1,
                        "name": "Actual Gas Used",
                        "value": 190813
                    },
                    {
                        "children": [],
                        "depth": -1,
                        "name": "Refunded Gas",
                        "value": 0
                    }
                ],
                "depth": -2,
                "name": "Total Gas",
                "value": 190813
            }
        ],
        "isConfirmed": true,
        "mainTrace": [
            {
                "children": [
                    {
                        "children": [
                            {
                                "children": [],
                                "depth": 1,
                                "id": 1,
                                "order": 1
                            }
                        ],
                        "depth": 0,
                        "id": 0,
                        "order": 0
                    }
                ],
                "depth": -1,
                "id": -1,
                "order": -1
            }
        ],
        "mainTraceNodeCount": 2,
        "parentIdMap": {
            "0": -1,
            "1": 0
        },
        "tidyTrace": [
            {
                "children": [
                    {
                        "children": [
                            {
                                "children": [],
                                "depth": 1,
                                "id": 1,
                                "order": 1
                            }
                        ],
                        "depth": 0,
                        "id": 0,
                        "order": 0
                    }
                ],
                "depth": -1,
                "id": -1,
                "order": -1
            }
        ],
        "tidyTraceNodeCount": 2
    },
    "state_change": {
        "stateChanges": [
            {
                "address": "0xc36cf0cfcb5d905b8b513860db0cfe63f6cf9f5c",
                "erc": "ERC-1155",
                "slots": [
                    {
                        "current": "0x0000000000000000000000000000000000000000000000000000000000001fab",
                        "key": "0x17c1f626046fe9c20b532987a17b85603a9437d1f7746122518e9e5ba8b21197",
                        "prev": "0x0000000000000000000000000000000000000000000000000000000000001fad"
                    },
                    {
                        "current": "0x0000000000000000000000000000000000000000000000000000000000001fab",
                        "key": "0x46cf110593886abb2fa8d496134d33ccf3c6c3426e8f5805710432d8120a19cb",
                        "prev": "0x0000000000000000000000000000000000000000000000000000000000001fad"
                    },
                    {
                        "current": "0x0000000000000000000000000000000000000000000000000000000000000002",
                        "key": "0xca0560557d94897d4f95a0ff0d07f1c761ceb9ed795748f7fbdaf9ba9d01291a",
                        "prev": "0x0000000000000000000000000000000000000000000000000000000000000000"
                    },
                    {
                        "current": "0x0000000000000000000000000000000000000000000000000000000000001fab",
                        "key": "0x374065b966f150983314e3c5a8a4141a2ab05457f78743f0db0925d8b6173fb1",
                        "prev": "0x0000000000000000000000000000000000000000000000000000000000001fad"
                    },
                    {
                        "current": "0x0000000000000000000000000000000000000000000000000000000000001fab",
                        "key": "0xa4bea437864169544886ee572152f6fa4255ff76085f7ed0ad4b8362e832e2ab",
                        "prev": "0x0000000000000000000000000000000000000000000000000000000000001fad"
                    },
                    {
                        "current": "0x0000000000000000000000000000000000000000000000000000000000000002",
                        "key": "0x894735b7ea1660d5b803c2262ea018cafdf593cd966467fa73de8ca1cc247d51",
                        "prev": "0x0000000000000000000000000000000000000000000000000000000000000000"
                    },
                    {
                        "current": "0x0000000000000000000000000000000000000000000000000000000000001fab",
                        "key": "0xca9aa7f9ca301841368c52a4bfae8f3c374e7787d6a5307e0ef85090e626d19a",
                        "prev": "0x0000000000000000000000000000000000000000000000000000000000001fad"
                    },
                    {
                        "current": "0x0000000000000000000000000000000000000000000000000000000000001fab",
                        "key": "0x06e7a9fef2cf08180e56e0f046cbdb33139b31b048fa62384d64a4a0da795798",
                        "prev": "0x0000000000000000000000000000000000000000000000000000000000001fad"
                    },
                    {
                        "current": "0x0000000000000000000000000000000000000000000000000000000000000002",
                        "key": "0x1961023d2a7bb8be6eca54d0b40b2ba2f307056124d426b48a134ae3707e00bc",
                        "prev": "0x0000000000000000000000000000000000000000000000000000000000000000"
                    },
                    {
                        "current": "0x0000000000000000000000000000000000000000000000000000000000000002",
                        "key": "0xecd6d70efbd961e78f54b7fc286ca6e7e18d90f9f7e926861789119eb357f7f0",
                        "prev": "0x0000000000000000000000000000000000000000000000000000000000000000"
                    },
                    {
                        "current": "0x0000000000000000000000000000000000000000000000000000000000000002",
                        "key": "0xb1fcb79fc7cc0cc64a8cb73bee3311f15e3e140b6cfd3a405207417d83b83b18",
                        "prev": "0x0000000000000000000000000000000000000000000000000000000000000000"
                    },
                    {
                        "current": "0x0000000000000000000000000000000000000000000000000000000000000003",
                        "key": "0xa3c57ffd215434f3c7e27b4660889718804b48e5c8826fb2c01eb48d8d6d1b0e",
                        "prev": "0x0000000000000000000000000000000000000000000000000000000000000001"
                    }
                ],
                "storageVariables": [
                    {
                        "name": "balances",
                        "type": "mapping(uint256 => mapping(address => uint256))",
                        "value": {
                            "pairs": [
                                {
                                    "key": "116036287120040016041010741134232960106496",
                                    "value": {
                                        "pairs": [
                                            {
                                                "key": "0x381e840f4ebe33d0153e9a312105554594a98c42",
                                                "value": {
                                                    "current": "8107",
                                                    "prev": "8109",
                                                    "typeTag": 1
                                                }
                                            },
                                            {
                                                "key": "0x5952392e717924a0b47fc7280e720ccf3263dea9",
                                                "value": {
                                                    "current": "2",
                                                    "prev": "0",
                                                    "typeTag": 1
                                                }
                                            }
                                        ],
                                        "typeTag": 4
                                    }
                                },
                                {
                                    "key": "116376569486960954504474115741664728317952",
                                    "value": {
                                        "pairs": [
                                            {
                                                "key": "0x381e840f4ebe33d0153e9a312105554594a98c42",
                                                "value": {
                                                    "current": "8107",
                                                    "prev": "8109",
                                                    "typeTag": 1
                                                }
                                            },
                                            {
                                                "key": "0x5952392e717924a0b47fc7280e720ccf3263dea9",
                                                "value": {
                                                    "current": "2",
                                                    "prev": "0",
                                                    "typeTag": 1
                                                }
                                            }
                                        ],
                                        "typeTag": 4
                                    }
                                },
                                {
                                    "key": "116716851853881892967937490349096496529408",
                                    "value": {
                                        "pairs": [
                                            {
                                                "key": "0x381e840f4ebe33d0153e9a312105554594a98c42",
                                                "value": {
                                                    "current": "8107",
                                                    "prev": "8109",
                                                    "typeTag": 1
                                                }
                                            },
                                            {
                                                "key": "0x5952392e717924a0b47fc7280e720ccf3263dea9",
                                                "value": {
                                                    "current": "2",
                                                    "prev": "0",
                                                    "typeTag": 1
                                                }
                                            }
                                        ],
                                        "typeTag": 4
                                    }
                                },
                                {
                                    "key": "117057134220802831431400864956528264740864",
                                    "value": {
                                        "pairs": [
                                            {
                                                "key": "0x381e840f4ebe33d0153e9a312105554594a98c42",
                                                "value": {
                                                    "current": "8107",
                                                    "prev": "8109",
                                                    "typeTag": 1
                                                }
                                            },
                                            {
                                                "key": "0x5952392e717924a0b47fc7280e720ccf3263dea9",
                                                "value": {
                                                    "current": "2",
                                                    "prev": "0",
                                                    "typeTag": 1
                                                }
                                            }
                                        ],
                                        "typeTag": 4
                                    }
                                },
                                {
                                    "key": "117397416587723769894864239563960032952320",
                                    "value": {
                                        "pairs": [
                                            {
                                                "key": "0x381e840f4ebe33d0153e9a312105554594a98c42",
                                                "value": {
                                                    "current": "8107",
                                                    "prev": "8109",
                                                    "typeTag": 1
                                                }
                                            },
                                            {
                                                "key": "0x5952392e717924a0b47fc7280e720ccf3263dea9",
                                                "value": {
                                                    "current": "3",
                                                    "prev": "1",
                                                    "typeTag": 1
                                                }
                                            }
                                        ],
                                        "typeTag": 4
                                    }
                                },
                                {
                                    "key": "117737698954644708358327614171391801163776",
                                    "value": {
                                        "pairs": [
                                            {
                                                "key": "0x381e840f4ebe33d0153e9a312105554594a98c42",
                                                "value": {
                                                    "current": "8107",
                                                    "prev": "8109",
                                                    "typeTag": 1
                                                }
                                            },
                                            {
                                                "key": "0x5952392e717924a0b47fc7280e720ccf3263dea9",
                                                "value": {
                                                    "current": "2",
                                                    "prev": "0",
                                                    "typeTag": 1
                                                }
                                            }
                                        ],
                                        "typeTag": 4
                                    }
                                }
                            ],
                            "typeTag": 4
                        }
                    }
                ]
            }
        ]
    }
}