{
    "balance_change": {
        "balanceChanges": [
            {
                "account": "0x5e6e1ea47eb6c446096f53b3979af6e06d0486f3",
                "assets": [
                    {
                        "address": "0x9196e18bc349b1f64bc08784eae259525329a1ad",
                        "amount": "42,929,697.442685988761155594",
                        "iconUrl": "",
                        "isERC1155": false,
                        "isERC721": false,
                        "sign": false,
                        "value": "608.2424815"
                    },
                    {
                        "address": "0x594daad7d77592a2b97b725a7ad59d7e188b5bfa",
                        "amount": "109,302,770.09196750713979756",
                        "iconUrl": "",
                        "isERC1155": false,
                        "isERC721": false,
                        "sign": true,
                        "value": "327.9083103000000083"
                    }
                ]
            },
            {
                "account": "0x5ced44f03ff443bbe14d8ea23bc24425fb89e3ed",
                "assets": [
                    {
                        "address": "0xc02aaa39b223fe8d0a0e5c4f27ead9083c756cc2",
                        "amount": "0.17244196763521351",
                        "iconUrl": "https://assets.blocksec.com/icon/f1cb2d02c471d545bbc7722daf3277fd852d98e63d118771af7047bd8256c516.png",
                        "isERC1155": false,
                        "isERC721": false,
                        "sign": true,
                        "value": "606.45228181634534903"
                    },
                    {
                        "address": "0x594daad7d77592a2b97b725a7ad59d7e188b5bfa",
                        "amount": "109,302,770.09196750713979756",
                        "iconUrl": "",
                        "isERC1155": false,
                        "isERC721": false,
                        "sign": false,
                        "value": "327.9083103000000083"
                    }
                ]
            },
            {
                "account": "0xac336936f2f0c2ab0c8dece3a027445323e8a244",
                "assets": [
                    {
                        "address": "0xc02aaa39b223fe8d0a0e5c4f27ead9083c756cc2",
                        "amount": "0.17244196763521351",
                        "iconUrl": "https://assets.blocksec.com/icon/f1cb2d02c471d545bbc7722daf3277fd852d98e63d118771af7047bd8256c516.png",
                        "isERC1155": false,
                        "isERC721": false,
                        "sign": false,
                        "value": "606.45228181634534903"
                    },
                    {
                        "address": "0x9196e18bc349b1f64bc08784eae259525329a1ad",
                        "amount": "42,929,697.442685988761155594",
                        "iconUrl": "",
                        "isERC1155": false,
                        "isERC721": false,
                        "sign": true,
                        "value": "608.2424815"
                    }
                ]
            }
        ]
    },
    "profile": {
        "basic_info": {
            "baseFee": "23.435477798",
            "blockNumber": 19488592,
            "callData": "0x5f57552900000000000000000000000000000000000000000000000000000000000000800000000000000000000000009196e18bc349b1f64bc08784eae259525329a1ad0000000000000000000000000000000000000000002382b78fc365bbbf0ab80a00000000000000000000000000000000000000000000000000000000000000c0000000000000000000000000000000000000000000000000000000000000000c307846656544796e616d6963000000000000000000000000000000000000000000000000000000000000000000000000000000000000000000000000000002800000000000000000000000009196e18bc349b1f64bc08784eae259525329a1ad000000000000000000000000594daad7d77592a2b97b725a7ad59d7e188b5bfa0000000000000000000000000000000000000000002382b78fc365bbbf0ab80a000000000000000000000000000000000000000000589ad8bd23c9f166a75c00000000000000000000000000000000000000000000000000000000000000012000000000000000000000000000000000000000000000000000000000000000000000000000000000000000002acf35c9a3f4c5c3f4c78ef5fb64c3ee82f07c4500000000000000000000000000000000000000000000000000000000000000000000000000000000000000000000000000000000000000000000000000000148d9627aa400000000000000000000000000000000000000000000000000000000000000800000000000000000000000000000000000000000002382b78fc365bbbf0ab80a000000000000000000000000000000000000000000589ad8bd23c9f166a75c00000000000000000000000000000000000000000000000000000000000000000000000000000000000000000000000000000000000000000000000000000000030000000000000000000000009196e18bc349b1f64bc08784eae259525329a1ad000000000000000000000000c02aaa39b223fe8d0a0e5c4f27ead9083c756cc2000000000000000000000000594daad7d77592a2b97b725a7ad59d7e188b5bfa869584cd00000000000000000000000011ededebf63bef0ea2d2d071bdf88f71543ec6fb000000000000000000000000000000006f1107f2a3fed93c2658a7e902289111000000000000000000000000000000000000000000000000019e",
            "debugEnable": true,
            "errorInfo": "",
            "eventCount": 12,
            "feeRecipient": "0xbe4ed2345b57b87cb43d31c7f90cba7cd7f4457f",
            "formatValue": "0",
            "gasLimit": 310884,
            "gasPrice": "23.925477798",
            "gasUsed": 210512,
            "intTxnCount": 20,
            "internalRevert": false,
            "internalRevertMessage": "",
            "isContractCreation": false,
            "isFlashloan": false,
            "maxFee": "39.518294961",
            "nonce": 69,
            "overwritedBlockNumber": -1,
            "priorityFee": "0.49",
            "receiver": "0x881d40237659c251811cec9c364ef91dc08d300c",
            "revertMessage": "",
            "sender": "0x5e6e1ea47eb6c446096f53b3979af6e06d0486f3",
            "simulationEnable": true,
            "sourceTxnHash": "0x2a3c441aec2a0766a3a8a52dc4ebe383c081ab83809dc758a8b1de9d86ea61b0",
            "status": true,
            "timestamp": "2024-03-22T07:10:59Z",
            "transactionFee": "0.005036600182212576",
            "txnHash": "0x2a3c441aec2a0766a3a8a52dc4ebe383c081ab83809dc758a8b1de9d86ea61b0",
            "txnIndex": 41,
            "type": 2,
            "value": "0"
        },
        "fund_flow": [
            {
                "amount": "42,929,697.442685988761155594",
                "from": "0x5e6e1ea47eb6c446096f53b3979af6e06d0486f3",
                "id": 1,
                "isERC1155": false,
                "isERC721": false,
                "isReverted": false,
                "order": 1,
                "to": "0x74de5d4fcbf63e00296fd95d33236b9794016631",
                "token": "0x9196e18bc349b1f64bc08784eae259525329a1ad"
            },
            {
                "amount": "42,929,697.442685988761155594",
                "from": "0x74de5d4fcbf63e00296fd95d33236b9794016631",
                "id": 2,
                "isERC1155": false,
                "isERC721": false,
                "isReverted": false,
                "order": 2,
                "to": "0xac336936f2f0c2ab0c8dece3a027445323e8a244",
                "token": "0x9196e18bc349b1f64bc08784eae259525329a1ad"
            },
            {
                "amount": "0.17244196763521351",
                "from": "0xac336936f2f0c2ab0c8dece3a027445323e8a244",
                "id": 3,
                "isERC1155": false,
                "isERC721": false,
                "isReverted": false,
                "order": 3,
                "to": "0x5ced44f03ff443bbe14d8ea23bc24425fb89e3ed",
                "token": "0xc02aaa39b223fe8d0a0e5c4f27ead9083c756cc2"
            },
            {
                "amount": "109,302,770.09196750713979756",
                "from": "0x5ced44f03ff443bbe14d8ea23bc24425fb89e3ed",
                "id": 4,
                "isERC1155": false,
                "isERC721": false,
                "isReverted": false,
                "order": 4,
                "to": "0x74de5d4fcbf63e00296fd95d33236b9794016631",
                "token": "0x594daad7d77592a2b97b725a7ad59d7e188b5bfa"
            },
            {
                "amount": "109,302,770.09196750713979756",
                "from": "0x74de5d4fcbf63e00296fd95d33236b9794016631",
                "id": 5,
                "isERC1155": false,
                "isERC721": false,
                "isReverted": false,
                "order": 5,
                "to": "0x5e6e1ea47eb6c446096f53b3979af6e06d0486f3",
                "token": "0x594daad7d77592a2b97b725a7ad59d7e188b5bfa"
            }
        ],
        "token_infos": [
            {
                "address": "0xc02aaa39b223fe8d0a0e5c4f27ead9083c756cc2",
                "decimals": 18
            },
            {
                "address": "0xeeeeeeeeeeeeeeeeeeeeeeeeeeeeeeeeeeeeeeee",
                "decimals": 18
            },
            {
                "address": "0x594daad7d77592a2b97b725a7ad59d7e188b5bfa",
                "decimals": 18
            },
            {
                "address": "0x9196e18bc349b1f64bc08784eae259525329a1ad",
                "decimals": 18
            }
        ]
    },
    "address_label": {
        "labels": [
            {
                "address": "0x0000000000000000000000000000000000000002",
                "label": "Precompiled"
            },
            {
                "address": "0x0000000000000000000000000000000000000003",
                "label": "Precompiled"
            },
            {
                "address": "0x5ced44f03ff443bbe14d8ea23bc24425fb89e3ed",
                "label": "Uniswap V2: APU 46"
            },
            {
                "address": "0xc02aaa39b223fe8d0a0e5c4f27ead9083c756cc2",
                "label": "Wrapped Ether (WETH)"
            },
            {
                "address": "0x594daad7d77592a2b97b725a7ad59d7e188b5bfa",
                "label": "Apu's Club: APU Token"
            },
            {
                "address": "0xdef1c0ded9bec7f1a1670819833240f027b25eff",
                "label": "0x: Exchange Proxy"
            },
            {
                "address": "0xf9b30557afcf76ea82c04015d80057fa2147dfa9",
                "label": "UniswapFeature"
            },
            {
                "address": "0xbe4ed2345b57b87cb43d31c7f90cba7cd7f4457f",
                "label": "RocketNodeDistributor"
            },
            {
                "address": "0x0000000000000000000000000000000000000001",
                "label": "Precompiled"
            },
            {
                "address": "0xac336936f2f0c2ab0c8dece3a027445323e8a244",
                "label": "Uniswap V2: PUSSY 2"
            },
            {
                "address": "0x881d40237659c251811cec9c364ef91dc08d300c",
                "label": "Metamask: Swap Router"
            },
            {
                "address": "0x0000000000000000000000000000000000000004",
                "label": "Precompiled"
            },
            {
                "address": "0x74de5d4fcbf63e00296fd95d33236b9794016631",
                "label": "MetaMask: Swaps Spender"
            },
            {
                "address": "0x9196e18bc349b1f64bc08784eae259525329a1ad",
                "label": "PUSSY FINANCIAL: PUSSY Token"
            },
            {
                "address": "0xeeeeeeeeeeeeeeeeeeeeeeeeeeeeeeeeeeeeeeee",
                "label": "Ether"
            }
        ]
    },
    "trace": {
        "accountLabels": null,
        "dataMap": {
            "-1": {
                "invocation": {
                    "address": "0x5e6e1ea47eb6c446096f53b3979af6e06d0486f3",
                    "callData": "",
                    "decodedMethod": null,
                    "errorInfo": "",
                    "fromAddress": "",
                    "gasUsed": 0,
                    "id": -1,
                    "methodDecoded": false,
                    "operation": "",
                    "output": "",
                    "revert": false,
                    "revertMessage": "",
                    "selector": "",
                    "status": false,
                    "value": ""
                },
                "nodeType": 0
            },
            "0": {
                "invocation": {
                    "address": "0x881d40237659c251811cec9c364ef91dc08d300c",
                    "callData": "0x00000000000000000000000000000000000000000000000000000000000000800000000000000000000000009196e18bc349b1f64bc08784eae259525329a1ad0000000000000000000000000000000000000000002382b78fc365bbbf0ab80a00000000000000000000000000000000000000000000000000000000000000c0000000000000000000000000000000000000000000000000000000000000000c307846656544796e616d6963000000000000000000000000000000000000000000000000000000000000000000000000000000000000000000000000000002800000000000000000000000009196e18bc349b1f64bc08784eae259525329a1ad000000000000000000000000594daad7d77592a2b97b725a7ad59d7e188b5bfa0000000000000000000000000000000000000000002382b78fc365bbbf0ab80a000000000000000000000000000000000000000000589ad8bd23c9f166a75c00000000000000000000000000000000000000000000000000000000000000012000000000000000000000000000000000000000000000000000000000000000000000000000000000000000002acf35c9a3f4c5c3f4c78ef5fb64c3ee82f07c4500000000000000000000000000000000000000000000000000000000000000000000000000000000000000000000000000000000000000000000000000000148d9627aa400000000000000000000000000000000000000000000000000000000000000800000000000000000000000000000000000000000002382b78fc365bbbf0ab80a000000000000000000000000000000000000000000589ad8bd23c9f166a75c00000000000000000000000000000000000000000000000000000000000000000000000000000000000000000000000000000000000000000000000000000000030000000000000000000000009196e18bc349b1f64bc08784eae259525329a1ad000000000000000000000000c02aaa39b223fe8d0a0e5c4f27ead9083c756cc2000000000000000000000000594daad7d77592a2b97b725a7ad59d7e188b5bfa869584cd00000000000000000000000011ededebf63bef0ea2d2d071bdf88f71543ec6fb000000000000000000000000000000006f1107f2a3fed93c2658a7e902289111000000000000000000000000000000000000000000000000019e",
                    "decodedMethod": {
                        "callParams": [
                            {
                                "name": "aggregatorId",
                                "type": "string",
                                "value": "0xFeeDynamic"
                            },
                            {
                                "name": "tokenFrom",
                                "type": "address",
                                "value": "0x9196e18bc349b1f64bc08784eae259525329a1ad"
                            },
                            {
                                "name": "amount",
                                "type": "uint256",
                                "value": "42,929,697,442,685,988,761,155,594"
                            },
                            {
                                "name": "data",
                                "type": "bytes",
                                "value": "0x0000000000000000000000009196e18bc349b1f64bc08784eae259525329a1ad000000000000000000000000594daad7d77592a2b97b725a7ad59d7e188b5bfa0000000000000000000000000000000000000000002382b78fc365bbbf0ab80a000000000000000000000000000000000000000000589ad8bd23c9f166a75c00000000000000000000000000000000000000000000000000000000000000012000000000000000000000000000000000000000000000000000000000000000000000000000000000000000002acf35c9a3f4c5c3f4c78ef5fb64c3ee82f07c4500000000000000000000000000000000000000000000000000000000000000000000000000000000000000000000000000000000000000000000000000000148d9627aa400000000000000000000000000000000000000000000000000000000000000800000000000000000000000000000000000000000002382b78fc365bbbf0ab80a000000000000000000000000000000000000000000589ad8bd23c9f166a75c00000000000000000000000000000000000000000000000000000000000000000000000000000000000000000000000000000000000000000000000000000000030000000000000000000000009196e18bc349b1f64bc08784eae259525329a1ad000000000000000000000000c02aaa39b223fe8d0a0e5c4f27ead9083c756cc2000000000000000000000000594daad7d77592a2b97b725a7ad59d7e188b5bfa869584cd00000000000000000000000011ededebf63bef0ea2d2d071bdf88f71543ec6fb000000000000000000000000000000006f1107f2a3fed93c2658a7e902289111000000000000000000000000000000000000000000000000"
                            }
                        ],
                        "constructorArguments": "",
                        "name": "swap",
                        "returnParams": [],
                        "signature": "swap(string,address,uint256,bytes)"
                    },
                    "errorInfo": "",
                    "fromAddress": "0x5e6e1ea47eb6c446096f53b3979af6e06d0486f3",
                    "gasUsed": 210512,
                    "id": 0,
                    "methodDecoded": true,
                    "operation": "CALL",
                    "output": "",
                    "revert": false,
                    "revertMessage": "",
                    "selector": "0x5f575529",
                    "status": true,
                    "value": "0"
                },
                "nodeType": 0
            },
            "1": {
                "invocation": {
                    "address": "0x9196e18bc349b1f64bc08784eae259525329a1ad",
                    "callData": "0x0000000000000000000000005e6e1ea47eb6c446096f53b3979af6e06d0486f300000000000000000000000074de5d4fcbf63e00296fd95d33236b97940166310000000000000000000000000000000000000000002382b78fc365bbbf0ab80a",
                    "decodedMethod": {
                        "callParams": [
                            {
                                "name": "sender",
                                "type": "address",
                                "value": "0x5e6e1ea47eb6c446096f53b3979af6e06d0486f3"
                            },
                            {
                                "name": "recipient",
                                "type": "address",
                                "value": "0x74de5d4fcbf63e00296fd95d33236b9794016631"
                            },
                            {
                                "decimalAvailable": true,
                                "name": "amount",
                                "type": "uint256",
                                "value": "42,929,697,442,685,988,761,155,594"
                            }
                        ],
                        "constructorArguments": "",
                        "name": "transferFrom",
                        "returnParams": [
                            {
                                "name": "",
                                "type": "bool",
                                "value": true
                            }
                        ],
                        "signature": "transferFrom(address,address,uint256)"
                    },
                    "errorInfo": "",
                    "fromAddress": "0x881d40237659c251811cec9c364ef91dc08d300c",
                    "gasUsed": 37708,
                    "id": 1,
                    "methodDecoded": true,
                    "operation": "CALL",
                    "output": "0x0000000000000000000000000000000000000000000000000000000000000001",
                    "revert": false,
                    "revertMessage": "",
                    "selector": "0x23b872dd",
                    "status": true,
                    "value": "0"
                },
                "nodeType": 0
            },
            "10": {
                "event": {
                    "contract": "0x9196e18bc349b1f64bc08784eae259525329a1ad",
                    "decodedLog": {
                        "name": "Transfer",
                        "params": [
                            {
                                "name": "from",
                                "type": "address",
                                "value": "0x74de5d4fcbf63e00296fd95d33236b9794016631"
                            },
                            {
                                "name": "to",
                                "type": "address",
                                "value": "0xac336936f2f0c2ab0c8dece3a027445323e8a244"
                            },
                            {
                                "decimalAvailable": true,
                                "name": "value",
                                "type": "uint256",
                                "value": "42,929,697,442,685,988,761,155,594"
                            }
                        ],
                        "signature": "Transfer(address,address,uint256)"
                    },
                    "id": 10,
                    "logData": "0x0000000000000000000000000000000000000000002382b78fc365bbbf0ab80a",
                    "logDecoded": true,
                    "operation": "EVENT",
                    "revert": false,
                    "status": true,
                    "topics": [
                        "0xddf252ad1be2c89b69c2b068fc378daa952ba7f163c4a11628f55a4df523b3ef",
                        "0x00000000000000000000000074de5d4fcbf63e00296fd95d33236b9794016631",
                        "0x000000000000000000000000ac336936f2f0c2ab0c8dece3a027445323e8a244"
                    ]
                },
                "nodeType": 1
            },
            "11": {
                "event": {
                    "contract": "0x9196e18bc349b1f64bc08784eae259525329a1ad",
                    "decodedLog": {
                        "name": "Approval",
                        "params": [
                            {
                                "name": "owner",
                                "type": "address",
                                "value": "0x74de5d4fcbf63e00296fd95d33236b9794016631"
                            },
                            {
                                "name": "spender",
                                "type": "address",
                                "value": "0xdef1c0ded9bec7f1a1670819833240f027b25eff"
                            },
                            {
                                "decimalAvailable": true,
                                "name": "value",
                                "type": "uint256",
                                "value": "115,792,089,237,316,195,423,570,985,008,687,907,853,269,984,665,620,251,352,589,803,436,968,609,695,852"
                            }
                        ],
                        "signature": "Approval(address,address,uint256)"
                    },
                    "id": 11,
                    "logData": "0xffffffffffffffffffffffffffffffffffffffffbe5dbd3e725ca9d3c179c86c",
                    "logDecoded": true,
                    "operation": "EVENT",
                    "revert": false,
                    "status": true,
                    "topics": [
                        "0x8c5be1e5ebec7d5bd14f71427d1e84f3dd0314c0f7b2291e5b200ac8c7c3b925",
                        "0x00000000000000000000000074de5d4fcbf63e00296fd95d33236b9794016631",
                        "0x000000000000000000000000def1c0ded9bec7f1a1670819833240f027b25eff"
                    ]
                },
                "nodeType": 1
            },
            "12": {
                "invocation": {
                    "address": "0xac336936f2f0c2ab0c8dece3a027445323e8a244",
                    "callData": "0x",
                    "decodedMethod": {
                        "callParams": [],
                        "constructorArguments": "",
                        "name": "getReserves",
                        "returnParams": [
                            {
                                "name": "_reserve0",
                                "type": "uint112",
                                "value": "30,046,152,103,486,792,382,907,828,583"
                            },
                            {
                                "name": "_reserve1",
                                "type": "uint112",
                                "value": "121,226,358,538,283,015,184"
                            },
                            {
                                "name": "_blockTimestampLast",
                                "type": "uint32",
                                "value": "1,711,086,863"
                            }
                        ],
                        "signature": "getReserves()"
                    },
                    "errorInfo": "",
                    "fromAddress": "0xdef1c0ded9bec7f1a1670819833240f027b25eff",
                    "gasUsed": 2504,
                    "id": 12,
                    "methodDecoded": true,
                    "operation": "STATICCALL",
                    "output": "0x0000000000000000000000000000000000000000611598314581f8b27cd24967000000000000000000000000000000000000000000000006925a8ace48805c100000000000000000000000000000000000000000000000000000000065fd1d0f",
                    "revert": false,
                    "revertMessage": "",
                    "selector": "0x0902f1ac",
                    "status": true,
                    "value": "0"
                },
                "nodeType": 0
            },
            "13": {
                "invocation": {
                    "address": "0xac336936f2f0c2ab0c8dece3a027445323e8a244",
                    "callData": "0x00000000000000000000000000000000000000000000000000000000000000000000000000000000000000000000000000000000000000000264a30e51442cc60000000000000000000000005ced44f03ff443bbe14d8ea23bc24425fb89e3ed00000000000000000000000000000000000000000000000000000000000000800000000000000000000000000000000000000000000000000000000000000000",
                    "decodedMethod": {
                        "callParams": [
                            {
                                "name": "amount0Out",
                                "type": "uint256",
                                "value": "0"
                            },
                            {
                                "name": "amount1Out",
                                "type": "uint256",
                                "value": "172,441,967,635,213,510"
                            },
                            {
                                "name": "to",
                                "type": "address",
                                "value": "0x5ced44f03ff443bbe14d8ea23bc24425fb89e3ed"
                            },
                            {
                                "name": "data",
                                "type": "bytes",
                                "value": "0x"
                            }
                        ],
                        "constructorArguments": "",
                        "name": "swap",
                        "returnParams": [],
                        "signature": "swap(uint256,uint256,address,bytes)"
                    },
                    "errorInfo": "",
                    "fromAddress": "0xdef1c0ded9bec7f1a1670819833240f027b25eff",
                    "gasUsed": 47815,
                    "id": 13,
                    "methodDecoded": true,
                    "operation": "CALL",
                    "output": "",
                    "revert": false,
                    "revertMessage": "",
                    "selector": "0x022c0d9f",
                    "status": true,
                    "value": "0"
                },
                "nodeType": 0
            },
            "14": {
                "invocation": {
                    "address": "0xc02aaa39b223fe8d0a0e5c4f27ead9083c756cc2",
                    "callData": "0x0000000000000000000000005ced44f03ff443bbe14d8ea23bc24425fb89e3ed0000000000000000000000000000000000000000000000000264a30e51442cc6",
                    "decodedMethod": {
                        "callParams": [
                            {
                                "name": "dst",
                                "type": "address",
                                "value": "0x5ced44f03ff443bbe14d8ea23bc24425fb89e3ed"
                            },
                            {
                                "decimalAvailable": true,
                                "name": "wad",
                                "type": "uint256",
                                "value": "172,441,967,635,213,510"
                            }
                        ],
                        "constructorArguments": "",
                        "name": "transfer",
                        "returnParams": [
                            {
                                "name": "",
                                "type": "bool",
                                "value": true
                            }
                        ],
                        "signature": "transfer(address,uint256)"
                    },
                    "errorInfo": "",
                    "fromAddress": "0xac336936f2f0c2ab0c8dece3a027445323e8a244",
                    "gasUsed": 12862,
                    "id": 14,
                    "methodDecoded": true,
                    "operation": "CALL",
                    "output": "0x0000000000000000000000000000000000000000000000000000000000000001",
                    "revert": false,
                    "revertMessage": "",
                    "selector": "0xa9059cbb",
                    "status": true,
                    "value": "0"
                },
                "nodeType": 0
            },
            "15": {
                "event": {
                    "contract": "0xc02aaa39b223fe8d0a0e5c4f27ead9083c756cc2",
                    "decodedLog": {
                        "name": "Transfer",
                        "params": [
                            {
                                "name": "src",
                                "type": "address",
                                "value": "0xac336936f2f0c2ab0c8dece3a027445323e8a244"
                            },
                            {
                                "name": "dst",
                                "type": "address",
                                "value": "0x5ced44f03ff443bbe14d8ea23bc24425fb89e3ed"
                            },
                            {
                                "decimalAvailable": true,
                                "name": "wad",
                                "type": "uint256",
                                "value": "172,441,967,635,213,510"
                            }
                        ],
                        "signature": "Transfer(address,address,uint256)"
                    },
                    "id": 15,
                    "logData": "0x0000000000000000000000000000000000000000000000000264a30e51442cc6",
                    "logDecoded": true,
                    "operation": "EVENT",
                    "revert": false,
                    "status": true,
                    "topics": [
                        "0xddf252ad1be2c89b69c2b068fc378daa952ba7f163c4a11628f55a4df523b3ef",
                        "0x000000000000000000000000ac336936f2f0c2ab0c8dece3a027445323e8a244",
                        "0x0000000000000000000000005ced44f03ff443bbe14d8ea23bc24425fb89e3ed"
                    ]
                },
                "nodeType": 1
            },
            "16": {
                "invocation": {
                    "address": "0x9196e18bc349b1f64bc08784eae259525329a1ad",
                    "callData": "0x000000000000000000000000ac336936f2f0c2ab0c8dece3a027445323e8a244",
                    "decodedMethod": {
                        "callParams": [
                            {
                                "name": "account",
                                "type": "address",
                                "value": "0xac336936f2f0c2ab0c8dece3a027445323e8a244"
                            }
                        ],
                        "constructorArguments": "",
                        "name": "balanceOf",
                        "returnParams": [
                            {
                                "decimalAvailable": true,
                                "name": "",
                                "type": "uint256",
                                "value": "30,089,081,800,929,478,371,668,984,177"
                            }
                        ],
                        "signature": "balanceOf(address)"
                    },
                    "errorInfo": "",
                    "fromAddress": "0xac336936f2f0c2ab0c8dece3a027445323e8a244",
                    "gasUsed": 596,
                    "id": 16,
                    "methodDecoded": true,
                    "operation": "STATICCALL",
                    "output": "0x000000000000000000000000000000000000000061391ae8d5455e6e3bdd0171",
                    "revert": false,
                    "revertMessage": "",
                    "selector": "0x70a08231",
                    "status": true,
                    "value": "0"
                },
                "nodeType": 0
            },
            "17": {
                "invocation": {
                    "address": "0xc02aaa39b223fe8d0a0e5c4f27ead9083c756cc2",
                    "callData": "0x000000000000000000000000ac336936f2f0c2ab0c8dece3a027445323e8a244",
                    "decodedMethod": {
                        "callParams": [
                            {
                                "name": "",
                                "type": "address",
                                "value": "0xac336936f2f0c2ab0c8dece3a027445323e8a244"
                            }
                        ],
                        "constructorArguments": "",
                        "name": "balanceOf",
                        "returnParams": [
                            {
                                "decimalAvailable": true,
                                "name": "",
                                "type": "uint256",
                                "value": "121,053,916,570,647,801,674"
                            }
                        ],
                        "signature": "balanceOf(address)"
                    },
                    "errorInfo": "",
                    "fromAddress": "0xac336936f2f0c2ab0c8dece3a027445323e8a244",
                    "gasUsed": 534,
                    "id": 17,
                    "methodDecoded": true,
                    "operation": "STATICCALL",
                    "output": "0x0000000000000000000000000000000000000000000000068ff5e7bff73c2f4a",
                    "revert": false,
                    "revertMessage": "",
                    "selector": "0x70a08231",
                    "status": true,
                    "value": "0"
                },
                "nodeType": 0
            },
            "18": {
                "event": {
                    "contract": "0xac336936f2f0c2ab0c8dece3a027445323e8a244",
                    "decodedLog": {
                        "name": "Sync",
                        "params": [
                            {
                                "name": "reserve0",
                                "type": "uint112",
                                "value": "30,089,081,800,929,478,371,668,984,177"
                            },
                            {
                                "name": "reserve1",
                                "type": "uint112",
                                "value": "121,053,916,570,647,801,674"
                            }
                        ],
                        "signature": "Sync(uint112,uint112)"
                    },
                    "id": 18,
                    "logData": "0x000000000000000000000000000000000000000061391ae8d5455e6e3bdd01710000000000000000000000000000000000000000000000068ff5e7bff73c2f4a",
                    "logDecoded": true,
                    "operation": "EVENT",
                    "revert": false,
                    "status": true,
                    "topics": [
                        "0x1c411e9a96e071241c2f21f7726b17ae89e3cab4c78be50e062b03a9fffbbad1"
                    ]
                },
                "nodeType": 1
            },
            "19": {
                "event": {
                    "contract": "0xac336936f2f0c2ab0c8dece3a027445323e8a244",
                    "decodedLog": {
                        "name": "Swap",
                        "params": [
                            {
                                "name": "sender",
                                "type": "address",
                                "value": "0xdef1c0ded9bec7f1a1670819833240f027b25eff"
                            },
                            {
                                "name": "to",
                                "type": "address",
                                "value": "0x5ced44f03ff443bbe14d8ea23bc24425fb89e3ed"
                            },
                            {
                                "name": "amount0In",
                                "type": "uint256",
                                "value": "42,929,697,442,685,988,761,155,594"
                            },
                            {
                                "name": "amount1In",
                                "type": "uint256",
                                "value": "0"
                            },
                            {
                                "name": "amount0Out",
                                "type": "uint256",
                                "value": "0"
                            },
                            {
                                "name": "amount1Out",
                                "type": "uint256",
                                "value": "172,441,967,635,213,510"
                            }
                        ],
                        "signature": "Swap(address,uint256,uint256,uint256,uint256,address)"
                    },
                    "id": 19,
                    "logData": "0x0000000000000000000000000000000000000000002382b78fc365bbbf0ab80a000000000000000000000000000000000000000000000000000000000000000000000000000000000000000000000000000000000000000000000000000000000000000000000000000000000000000000000000000000000264a30e51442cc6",
                    "logDecoded": true,
                    "operation": "EVENT",
                    "revert": false,
                    "status": true,
                    "topics": [
                        "0xd78ad95fa46c994b6551d0da85fc275fe613ce37657fb8d5e3d130840159d822",
                        "0x000000000000000000000000def1c0ded9bec7f1a1670819833240f027b25eff",
                        "0x0000000000000000000000005ced44f03ff443bbe14d8ea23bc24425fb89e3ed"
                    ]
                },
                "nodeType": 1
            },
            "2": {
                "event": {
                    "contract": "0x9196e18bc349b1f64bc08784eae259525329a1ad",
                    "decodedLog": {
                        "name": "Transfer",
                        "params": [
                            {
                                "name": "from",
                                "type": "address",
                                "value": "0x5e6e1ea47eb6c446096f53b3979af6e06d0486f3"
                            },
                            {
                                "name": "to",
                                "type": "address",
                                "value": "0x74de5d4fcbf63e00296fd95d33236b9794016631"
                            },
                            {
                                "decimalAvailable": true,
                                "name": "value",
                                "type": "uint256",
                                "value": "42,929,697,442,685,988,761,155,594"
                            }
                        ],
                        "signature": "Transfer(address,address,uint256)"
                    },
                    "id": 2,
                    "logData": "0x0000000000000000000000000000000000000000002382b78fc365bbbf0ab80a",
                    "logDecoded": true,
                    "operation": "EVENT",
                    "revert": false,
                    "status": true,
                    "topics": [
                        "0xddf252ad1be2c89b69c2b068fc378daa952ba7f163c4a11628f55a4df523b3ef",
                        "0x0000000000000000000000005e6e1ea47eb6c446096f53b3979af6e06d0486f3",
                        "0x00000000000000000000000074de5d4fcbf63e00296fd95d33236b9794016631"
                    ]
                },
                "nodeType": 1
            },
            "20": {
                "invocation": {
                    "address": "0x5ced44f03ff443bbe14d8ea23bc24425fb89e3ed",
                    "callData": "0x",
                    "decodedMethod": {
                        "callParams": [],
                        "constructorArguments": "",
                        "name": "getReserves",
                        "returnParams": [
                            {
                                "name": "_reserve0",
                                "type": "uint112",
                                "value": "17,057,378,189,619,780,912,006,390,951"
                            },
                            {
                                "name": "_reserve1",
                                "type": "uint112",
                                "value": "26,657,986,728,998,580,058"
                            },
                            {
                                "name": "_blockTimestampLast",
                                "type": "uint32",
                                "value": "1,711,091,435"
                            }
                        ],
                        "signature": "getReserves()"
                    },
                    "errorInfo": "",
                    "fromAddress": "0xdef1c0ded9bec7f1a1670819833240f027b25eff",
                    "gasUsed": 2504,
                    "id": 20,
                    "methodDecoded": true,
                    "operation": "STATICCALL",
                    "output": "0x0000000000000000000000000000000000000000371d8854812f853638c964a700000000000000000000000000000000000000000000000171f431b0a109af5a0000000000000000000000000000000000000000000000000000000065fd2eeb",
                    "revert": false,
                    "revertMessage": "",
                    "selector": "0x0902f1ac",
                    "status": true,
                    "value": "0"
                },
                "nodeType": 0
            },
            "21": {
                "invocation": {
                    "address": "0x5ced44f03ff443bbe14d8ea23bc24425fb89e3ed",
                    "callData": "0x0000000000000000000000000000000000000000005a69c30a2484ed8a7a2238000000000000000000000000000000000000000000000000000000000000000000000000000000000000000074de5d4fcbf63e00296fd95d33236b979401663100000000000000000000000000000000000000000000000000000000000000800000000000000000000000000000000000000000000000000000000000000000",
                    "decodedMethod": {
                        "callParams": [
                            {
                                "name": "amount0Out",
                                "type": "uint256",
                                "value": "109,302,770,091,967,507,139,797,560"
                            },
                            {
                                "name": "amount1Out",
                                "type": "uint256",
                                "value": "0"
                            },
                            {
                                "name": "to",
                                "type": "address",
                                "value": "0x74de5d4fcbf63e00296fd95d33236b9794016631"
                            },
                            {
                                "name": "data",
                                "type": "bytes",
                                "value": "0x"
                            }
                        ],
                        "constructorArguments": "",
                        "name": "swap",
                        "returnParams": [],
                        "signature": "swap(uint256,uint256,address,bytes)"
                    },
                    "errorInfo": "",
                    "fromAddress": "0xdef1c0ded9bec7f1a1670819833240f027b25eff",
                    "gasUsed": 65847,
                    "id": 21,
                    "methodDecoded": true,
                    "operation": "CALL",
                    "output": "",
                    "revert": false,
                    "revertMessage": "",
                    "selector": "0x022c0d9f",
                    "status": true,
                    "value": "0"
                },
                "nodeType": 0
            },
            "22": {
                "invocation": {
                    "address": "0x594daad7d77592a2b97b725a7ad59d7e188b5bfa",
                    "callData": "0x00000000000000000000000074de5d4fcbf63e00296fd95d33236b97940166310000000000000000000000000000000000000000005a69c30a2484ed8a7a2238",
                    "decodedMethod": {
                        "callParams": [
                            {
                                "name": "to",
                                "type": "address",
                                "value": "0x74de5d4fcbf63e00296fd95d33236b9794016631"
                            },
                            {
                                "decimalAvailable": true,
                                "name": "value",
                                "type": "uint256",
                                "value": "109,302,770,091,967,507,139,797,560"
                            }
                        ],
                        "constructorArguments": "",
                        "name": "transfer",
                        "returnParams": [
                            {
                                "name": "",
                                "type": "bool",
                                "value": true
                            }
                        ],
                        "signature": "transfer(address,uint256)"
                    },
                    "errorInfo": "",
                    "fromAddress": "0x5ced44f03ff443bbe14d8ea23bc24425fb89e3ed",
                    "gasUsed": 30550,
                    "id": 22,
                    "methodDecoded": true,
                    "operation": "CALL",
                    "output": "0x0000000000000000000000000000000000000000000000000000000000000001",
                    "revert": false,
                    "revertMessage": "",
                    "selector": "0xa9059cbb",
                    "status": true,
                    "value": "0"
                },
                "nodeType": 0
            },
            "23": {
                "event": {
                    "contract": "0x594daad7d77592a2b97b725a7ad59d7e188b5bfa",
                    "decodedLog": {
                        "name": "Transfer",
                        "params": [
                            {
                                "name": "from",
                                "type": "address",
                                "value": "0x5ced44f03ff443bbe14d8ea23bc24425fb89e3ed"
                            },
                            {
                                "name": "to",
                                "type": "address",
                                "value": "0x74de5d4fcbf63e00296fd95d33236b9794016631"
                            },
                            {
                                "decimalAvailable": true,
                                "name": "value",
                                "type": "uint256",
                                "value": "109,302,770,091,967,507,139,797,560"
                            }
                        ],
                        "signature": "Transfer(address,address,uint256)"
                    },
                    "id": 23,
                    "logData": "0x0000000000000000000000000000000000000000005a69c30a2484ed8a7a2238",
                    "logDecoded": true,
                    "operation": "EVENT",
                    "revert": false,
                    "status": true,
                    "topics": [
                        "0xddf252ad1be2c89b69c2b068fc378daa952ba7f163c4a11628f55a4df523b3ef",
                        "0x0000000000000000000000005ced44f03ff443bbe14d8ea23bc24425fb89e3ed",
                        "0x00000000000000000000000074de5d4fcbf63e00296fd95d33236b9794016631"
                    ]
                },
                "nodeType": 1
            },
            "24": {
                "invocation": {
                    "address": "0x594daad7d77592a2b97b725a7ad59d7e188b5bfa",
                    "callData": "0x0000000000000000000000005ced44f03ff443bbe14d8ea23bc24425fb89e3ed",
                    "decodedMethod": {
                        "callParams": [
                            {
                                "name": "account",
                                "type": "address",
                                "value": "0x5ced44f03ff443bbe14d8ea23bc24425fb89e3ed"
                            }
                        ],
                        "constructorArguments": "",
                        "name": "balanceOf",
                        "returnParams": [
                            {
                                "decimalAvailable": true,
                                "name": "",
                                "type": "uint256",
                                "value": "16,948,075,419,527,813,404,866,593,391"
                            }
                        ],
                        "signature": "balanceOf(address)"
                    },
                    "errorInfo": "",
                    "fromAddress": "0x5ced44f03ff443bbe14d8ea23bc24425fb89e3ed",
                    "gasUsed": 940,
                    "id": 24,
                    "methodDecoded": true,
                    "operation": "STATICCALL",
                    "output": "0x000000000000000000000000000000000000000036c31e91770b0048ae4f426f",
                    "revert": false,
                    "revertMessage": "",
                    "selector": "0x70a08231",
                    "status": true,
                    "value": "0"
                },
                "nodeType": 0
            },
            "25": {
                "invocation": {
                    "address": "0xc02aaa39b223fe8d0a0e5c4f27ead9083c756cc2",
                    "callData": "0x0000000000000000000000005ced44f03ff443bbe14d8ea23bc24425fb89e3ed",
                    "decodedMethod": {
                        "callParams": [
                            {
                                "name": "",
                                "type": "address",
                                "value": "0x5ced44f03ff443bbe14d8ea23bc24425fb89e3ed"
                            }
                        ],
                        "constructorArguments": "",
                        "name": "balanceOf",
                        "returnParams": [
                            {
                                "decimalAvailable": true,
                                "name": "",
                                "type": "uint256",
                                "value": "26,830,428,696,633,793,568"
                            }
                        ],
                        "signature": "balanceOf(address)"
                    },
                    "errorInfo": "",
                    "fromAddress": "0x5ced44f03ff443bbe14d8ea23bc24425fb89e3ed",
                    "gasUsed": 534,
                    "id": 25,
                    "methodDecoded": true,
                    "operation": "STATICCALL",
                    "output": "0x0000000000000000000000000000000000000000000000017458d4bef24ddc20",
                    "revert": false,
                    "revertMessage": "",
                    "selector": "0x70a08231",
                    "status": true,
                    "value": "0"
                },
                "nodeType": 0
            },
            "26": {
                "event": {
                    "contract": "0x5ced44f03ff443bbe14d8ea23bc24425fb89e3ed",
                    "decodedLog": {
                        "name": "Sync",
                        "params": [
                            {
                                "name": "reserve0",
                                "type": "uint112",
                                "value": "16,948,075,419,527,813,404,866,593,391"
                            },
                            {
                                "name": "reserve1",
                                "type": "uint112",
                                "value": "26,830,428,696,633,793,568"
                            }
                        ],
                        "signature": "Sync(uint112,uint112)"
                    },
                    "id": 26,
                    "logData": "0x000000000000000000000000000000000000000036c31e91770b0048ae4f426f0000000000000000000000000000000000000000000000017458d4bef24ddc20",
                    "logDecoded": true,
                    "operation": "EVENT",
                    "revert": false,
                    "status": true,
                    "topics": [
                        "0x1c411e9a96e071241c2f21f7726b17ae89e3cab4c78be50e062b03a9fffbbad1"
                    ]
                },
                "nodeType": 1
            },
            "27": {
                "event": {
                    "contract": "0x5ced44f03ff443bbe14d8ea23bc24425fb89e3ed",
                    "decodedLog": {
                        "name": "Swap",
                        "params": [
                            {
                                "name": "sender",
                                "type": "address",
                                "value": "0xdef1c0ded9bec7f1a1670819833240f027b25eff"
                            },
                            {
                                "name": "to",
                                "type": "address",
                                "value": "0x74de5d4fcbf63e00296fd95d33236b9794016631"
                            },
                            {
                                "name": "amount0In",
                                "type": "uint256",
                                "value": "0"
                            },
                            {
                                "name": "amount1In",
                                "type": "uint256",
                                "value": "172,441,967,635,213,510"
                            },
                            {
                                "name": "amount0Out",
                                "type": "uint256",
                                "value": "109,302,770,091,967,507,139,797,560"
                            },
                            {
                                "name": "amount1Out",
                                "type": "uint256",
                                "value": "0"
                            }
                        ],
                        "signature": "Swap(address,uint256,uint256,uint256,uint256,address)"
                    },
                    "id": 27,
                    "logData": "0x00000000000000000000000000000000000000000000000000000000000000000000000000000000000000000000000000000000000000000264a30e51442cc60000000000000000000000000000000000000000005a69c30a2484ed8a7a22380000000000000000000000000000000000000000000000000000000000000000",
                    "logDecoded": true,
                    "operation": "EVENT",
                    "revert": false,
                    "status": true,
                    "topics": [
                        "0xd78ad95fa46c994b6551d0da85fc275fe613ce37657fb8d5e3d130840159d822",
                        "0x000000000000000000000000def1c0ded9bec7f1a1670819833240f027b25eff",
                        "0x00000000000000000000000074de5d4fcbf63e00296fd95d33236b9794016631"
                    ]
                },
                "nodeType": 1
            },
            "28": {
                "invocation": {
                    "address": "0x9196e18bc349b1f64bc08784eae259525329a1ad",
                    "callData": "0x00000000000000000000000074de5d4fcbf63e00296fd95d33236b9794016631",
                    "decodedMethod": {
                        "callParams": [
                            {
                                "name": "account",
                                "type": "address",
                                "value": "0x74de5d4fcbf63e00296fd95d33236b9794016631"
                            }
                        ],
                        "constructorArguments": "",
                        "name": "balanceOf",
                        "returnParams": [
                            {
                                "decimalAvailable": true,
                                "name": "",
                                "type": "uint256",
                                "value": "0"
                            }
                        ],
                        "signature": "balanceOf(address)"
                    },
                    "errorInfo": "",
                    "fromAddress": "0x74de5d4fcbf63e00296fd95d33236b9794016631",
                    "gasUsed": 596,
                    "id": 28,
                    "methodDecoded": true,
                    "operation": "STATICCALL",
                    "output": "0x0000000000000000000000000000000000000000000000000000000000000000",
                    "revert": false,
                    "revertMessage": "",
                    "selector": "0x70a08231",
                    "status": true,
                    "value": "0"
                },
                "nodeType": 0
            },
            "29": {
                "invocation": {
                    "address": "0x594daad7d77592a2b97b725a7ad59d7e188b5bfa",
                    "callData": "0x00000000000000000000000074de5d4fcbf63e00296fd95d33236b9794016631",
                    "decodedMethod": {
                        "callParams": [
                            {
                                "name": "account",
                                "type": "address",
                                "value": "0x74de5d4fcbf63e00296fd95d33236b9794016631"
                            }
                        ],
                        "constructorArguments": "",
                        "name": "balanceOf",
                        "returnParams": [
                            {
                                "decimalAvailable": true,
                                "name": "",
                                "type": "uint256",
                                "value": "109,302,770,091,967,507,139,797,560"
                            }
                        ],
                        "signature": "balanceOf(address)"
                    },
                    "errorInfo": "",
                    "fromAddress": "0x74de5d4fcbf63e00296fd95d33236b9794016631",
                    "gasUsed": 940,
                    "id": 29,
                    "methodDecoded": true,
                    "operation": "STATICCALL",
                    "output": "0x0000000000000000000000000000000000000000005a69c30a2484ed8a7a2238",
                    "revert": false,
                    "revertMessage": "",
                    "selector": "0x70a08231",
                    "status": true,
                    "value": "0"
                },
                "nodeType": 0
            },
            "3": {
                "event": {
                    "contract": "0x9196e18bc349b1f64bc08784eae259525329a1ad",
                    "decodedLog": {
                        "name": "Approval",
                        "params": [
                            {
                                "name": "owner",
                                "type": "address",
                                "value": "0x5e6e1ea47eb6c446096f53b3979af6e06d0486f3"
                            },
                            {
                                "name": "spender",
                                "type": "address",
                                "value": "0x881d40237659c251811cec9c364ef91dc08d300c"
                            },
                            {
                                "decimalAvailable": true,
                                "name": "value",
                                "type": "uint256",
                                "value": "115,792,089,237,316,195,423,570,985,008,687,907,853,269,984,665,640,249,972,047,233,619,081,374,902,161"
                            }
                        ],
                        "signature": "Approval(address,address,uint256)"
                    },
                    "id": 3,
                    "logData": "0xfffffffffffffffffffffffffffffffffffffffffefc35a391ceb93bf1f6a791",
                    "logDecoded": true,
                    "operation": "EVENT",
                    "revert": false,
                    "status": true,
                    "topics": [
                        "0x8c5be1e5ebec7d5bd14f71427d1e84f3dd0314c0f7b2291e5b200ac8c7c3b925",
                        "0x0000000000000000000000005e6e1ea47eb6c446096f53b3979af6e06d0486f3",
                        "0x000000000000000000000000881d40237659c251811cec9c364ef91dc08d300c"
                    ]
                },
                "nodeType": 1
            },
            "30": {
                "invocation": {
                    "address": "0x594daad7d77592a2b97b725a7ad59d7e188b5bfa",
                    "callData": "0x0000000000000000000000005e6e1ea47eb6c446096f53b3979af6e06d0486f30000000000000000000000000000000000000000005a69c30a2484ed8a7a2238",
                    "decodedMethod": {
                        "callParams": [
                            {
                                "name": "to",
                                "type": "address",
                                "value": "0x5e6e1ea47eb6c446096f53b3979af6e06d0486f3"
                            },
                            {
                                "decimalAvailable": true,
                                "name": "value",
                                "type": "uint256",
                                "value": "109,302,770,091,967,507,139,797,560"
                            }
                        ],
                        "constructorArguments": "",
                        "name": "transfer",
                        "returnParams": [
                            {
                                "name": "",
                                "type": "bool",
                                "value": true
                            }
                        ],
                        "signature": "transfer(address,uint256)"
                    },
                    "errorInfo": "",
                    "fromAddress": "0x74de5d4fcbf63e00296fd95d33236b9794016631",
                    "gasUsed": 8650,
                    "id": 30,
                    "methodDecoded": true,
                    "operation": "CALL",
                    "output": "0x0000000000000000000000000000000000000000000000000000000000000001",
                    "revert": false,
                    "revertMessage": "",
                    "selector": "0xa9059cbb",
                    "status": true,
                    "value": "0"
                },
                "nodeType": 0
            },
            "31": {
                "event": {
                    "contract": "0x594daad7d77592a2b97b725a7ad59d7e188b5bfa",
                    "decodedLog": {
                        "name": "Transfer",
                        "params": [
                            {
                                "name": "from",
                                "type": "address",
                                "value": "0x74de5d4fcbf63e00296fd95d33236b9794016631"
                            },
                            {
                                "name": "to",
                                "type": "address",
                                "value": "0x5e6e1ea47eb6c446096f53b3979af6e06d0486f3"
                            },
                            {
                                "decimalAvailable": true,
                                "name": "value",
                                "type": "uint256",
                                "value": "109,302,770,091,967,507,139,797,560"
                            }
                        ],
                        "signature": "Transfer(address,address,uint256)"
                    },
                    "id": 31,
                    "logData": "0x0000000000000000000000000000000000000000005a69c30a2484ed8a7a2238",
                    "logDecoded": true,
                    "operation": "EVENT",
                    "revert": false,
                    "status": true,
                    "topics": [
                        "0xddf252ad1be2c89b69c2b068fc378daa952ba7f163c4a11628f55a4df523b3ef",
                        "0x00000000000000000000000074de5d4fcbf63e00296fd95d33236b9794016631",
                        "0x0000000000000000000000005e6e1ea47eb6c446096f53b3979af6e06d0486f3"
                    ]
                },
                "nodeType": 1
            },
            "32": {
                "event": {
                    "contract": "0x881d40237659c251811cec9c364ef91dc08d300c",
                    "decodedLog": {
                        "name": "Swap",
                        "params": [
                            {
                                "name": "aggregatorId",
                                "type": "string",
                                "value": "0xa8dc30b66c6d4a8aac3d15925bfca09e42cac4a00c50f9949154b045088e2ac2"
                            },
                            {
                                "name": "sender",
                                "type": "address",
                                "value": "0x5e6e1ea47eb6c446096f53b3979af6e06d0486f3"
                            }
                        ],
                        "signature": "Swap(string,address)"
                    },
                    "id": 32,
                    "logData": "0x",
                    "logDecoded": true,
                    "operation": "EVENT",
                    "revert": false,
                    "status": true,
                    "topics": [
                        "0xbeee1e6e7fe307ddcf84b0a16137a4430ad5e2480fc4f4a8e250ab56ccd7630d",
                        "0xa8dc30b66c6d4a8aac3d15925bfca09e42cac4a00c50f9949154b045088e2ac2",
                        "0x0000000000000000000000005e6e1ea47eb6c446096f53b3979af6e06d0486f3"
                    ]
                },
                "nodeType": 1
            },
            "4": {
                "invocation": {
                    "address": "0x74de5d4fcbf63e00296fd95d33236b9794016631",
                    "callData": "0x0000000000000000000000003d1d55c23dfc759c5ae48500ca88ddf477b3c9e5000000000000000000000000000000000000000000000000000000000000004000000000000000000000000000000000000000000000000000000000000002a492f5f0370000000000000000000000005e6e1ea47eb6c446096f53b3979af6e06d0486f30000000000000000000000009196e18bc349b1f64bc08784eae259525329a1ad000000000000000000000000594daad7d77592a2b97b725a7ad59d7e188b5bfa0000000000000000000000000000000000000000002382b78fc365bbbf0ab80a000000000000000000000000000000000000000000589ad8bd23c9f166a75c00000000000000000000000000000000000000000000000000000000000000012000000000000000000000000000000000000000000000000000000000000000000000000000000000000000002acf35c9a3f4c5c3f4c78ef5fb64c3ee82f07c4500000000000000000000000000000000000000000000000000000000000000000000000000000000000000000000000000000000000000000000000000000148d9627aa400000000000000000000000000000000000000000000000000000000000000800000000000000000000000000000000000000000002382b78fc365bbbf0ab80a000000000000000000000000000000000000000000589ad8bd23c9f166a75c00000000000000000000000000000000000000000000000000000000000000000000000000000000000000000000000000000000000000000000000000000000030000000000000000000000009196e18bc349b1f64bc08784eae259525329a1ad000000000000000000000000c02aaa39b223fe8d0a0e5c4f27ead9083c756cc2000000000000000000000000594daad7d77592a2b97b725a7ad59d7e188b5bfa869584cd00000000000000000000000011ededebf63bef0ea2d2d071bdf88f71543ec6fb000000000000000000000000000000006f1107f2a3fed93c2658a7e90228911100000000000000000000000000000000000000000000000000000000000000000000000000000000000000000000000000000000",
                    "decodedMethod": {
                        "callParams": [
                            {
                                "name": "adapter",
                                "type": "address",
                                "value": "0x3d1d55c23dfc759c5ae48500ca88ddf477b3c9e5"
                            },
                            {
                                "name": "data",
                                "type": "bytes",
                                "value": "0x92f5f0370000000000000000000000005e6e1ea47eb6c446096f53b3979af6e06d0486f30000000000000000000000009196e18bc349b1f64bc08784eae259525329a1ad000000000000000000000000594daad7d77592a2b97b725a7ad59d7e188b5bfa0000000000000000000000000000000000000000002382b78fc365bbbf0ab80a000000000000000000000000000000000000000000589ad8bd23c9f166a75c00000000000000000000000000000000000000000000000000000000000000012000000000000000000000000000000000000000000000000000000000000000000000000000000000000000002acf35c9a3f4c5c3f4c78ef5fb64c3ee82f07c4500000000000000000000000000000000000000000000000000000000000000000000000000000000000000000000000000000000000000000000000000000148d9627aa400000000000000000000000000000000000000000000000000000000000000800000000000000000000000000000000000000000002382b78fc365bbbf0ab80a000000000000000000000000000000000000000000589ad8bd23c9f166a75c00000000000000000000000000000000000000000000000000000000000000000000000000000000000000000000000000000000000000000000000000000000030000000000000000000000009196e18bc349b1f64bc08784eae259525329a1ad000000000000000000000000c02aaa39b223fe8d0a0e5c4f27ead9083c756cc2000000000000000000000000594daad7d77592a2b97b725a7ad59d7e188b5bfa869584cd00000000000000000000000011ededebf63bef0ea2d2d071bdf88f71543ec6fb000000000000000000000000000000006f1107f2a3fed93c2658a7e902289111000000000000000000000000000000000000000000000000"
                            }
                        ],
                        "constructorArguments": "",
                        "name": "swap",
                        "returnParams": [],
                        "signature": "swap(address,bytes)"
                    },
                    "errorInfo": "",
                    "fromAddress": "0x881d40237659c251811cec9c364ef91dc08d300c",
                    "gasUsed": 174416,
                    "id": 4,
                    "methodDecoded": true,
                    "operation": "CALL",
                    "output": "",
                    "revert": false,
                    "revertMessage": "",
                    "selector": "0xe3547335",
                    "status": true,
                    "value": "0"
                },
                "nodeType": 0
            },
            "5": {
                "invocation": {
                    "address": "0x3d1d55c23dfc759c5ae48500ca88ddf477b3c9e5",
                    "callData": "0x0000000000000000000000005e6e1ea47eb6c446096f53b3979af6e06d0486f30000000000000000000000009196e18bc349b1f64bc08784eae259525329a1ad000000000000000000000000594daad7d77592a2b97b725a7ad59d7e188b5bfa0000000000000000000000000000000000000000002382b78fc365bbbf0ab80a000000000000000000000000000000000000000000589ad8bd23c9f166a75c00000000000000000000000000000000000000000000000000000000000000012000000000000000000000000000000000000000000000000000000000000000000000000000000000000000002acf35c9a3f4c5c3f4c78ef5fb64c3ee82f07c4500000000000000000000000000000000000000000000000000000000000000000000000000000000000000000000000000000000000000000000000000000148d9627aa400000000000000000000000000000000000000000000000000000000000000800000000000000000000000000000000000000000002382b78fc365bbbf0ab80a000000000000000000000000000000000000000000589ad8bd23c9f166a75c00000000000000000000000000000000000000000000000000000000000000000000000000000000000000000000000000000000000000000000000000000000030000000000000000000000009196e18bc349b1f64bc08784eae259525329a1ad000000000000000000000000c02aaa39b223fe8d0a0e5c4f27ead9083c756cc2000000000000000000000000594daad7d77592a2b97b725a7ad59d7e188b5bfa869584cd00000000000000000000000011ededebf63bef0ea2d2d071bdf88f71543ec6fb000000000000000000000000000000006f1107f2a3fed93c2658a7e902289111000000000000000000000000000000000000000000000000",
                    "decodedMethod": null,
                    "errorInfo": "",
                    "fromAddress": "0x74de5d4fcbf63e00296fd95d33236b9794016631",
                    "gasUsed": 168938,
                    "id": 5,
                    "methodDecoded": false,
                    "operation": "DELEGATECALL",
                    "output": "",
                    "revert": false,
                    "revertMessage": "",
                    "selector": "0x92f5f037",
                    "status": true,
                    "value": "0"
                },
                "nodeType": 0
            },
            "6": {
                "invocation": {
                    "address": "0x9196e18bc349b1f64bc08784eae259525329a1ad",
                    "callData": "0x00000000000000000000000074de5d4fcbf63e00296fd95d33236b9794016631000000000000000000000000def1c0ded9bec7f1a1670819833240f027b25eff",
                    "decodedMethod": {
                        "callParams": [
                            {
                                "name": "owner",
                                "type": "address",
                                "value": "0x74de5d4fcbf63e00296fd95d33236b9794016631"
                            },
                            {
                                "name": "spender",
                                "type": "address",
                                "value": "0xdef1c0ded9bec7f1a1670819833240f027b25eff"
                            }
                        ],
                        "constructorArguments": "",
                        "name": "allowance",
                        "returnParams": [
                            {
                                "decimalAvailable": true,
                                "name": "",
                                "type": "uint256",
                                "value": "115,792,089,237,316,195,423,570,985,008,687,907,853,269,984,665,620,294,282,287,246,122,957,370,851,446"
                            }
                        ],
                        "signature": "allowance(address,address)"
                    },
                    "errorInfo": "",
                    "fromAddress": "0x74de5d4fcbf63e00296fd95d33236b9794016631",
                    "gasUsed": 2869,
                    "id": 6,
                    "methodDecoded": true,
                    "operation": "STATICCALL",
                    "output": "0xffffffffffffffffffffffffffffffffffffffffbe813ff602200f8f80848076",
                    "revert": false,
                    "revertMessage": "",
                    "selector": "0xdd62ed3e",
                    "status": true,
                    "value": "0"
                },
                "nodeType": 0
            },
            "7": {
                "invocation": {
                    "address": "0xdef1c0ded9bec7f1a1670819833240f027b25eff",
                    "callData": "0x00000000000000000000000000000000000000000000000000000000000000800000000000000000000000000000000000000000002382b78fc365bbbf0ab80a000000000000000000000000000000000000000000589ad8bd23c9f166a75c00000000000000000000000000000000000000000000000000000000000000000000000000000000000000000000000000000000000000000000000000000000030000000000000000000000009196e18bc349b1f64bc08784eae259525329a1ad000000000000000000000000c02aaa39b223fe8d0a0e5c4f27ead9083c756cc2000000000000000000000000594daad7d77592a2b97b725a7ad59d7e188b5bfa869584cd00000000000000000000000011ededebf63bef0ea2d2d071bdf88f71543ec6fb000000000000000000000000000000006f1107f2a3fed93c2658a7e902289111",
                    "decodedMethod": {
                        "callParams": [
                            {
                                "name": "tokens",
                                "type": "address[]",
                                "value": [
                                    "0x9196e18bc349b1f64bc08784eae259525329a1ad",
                                    "0xc02aaa39b223fe8d0a0e5c4f27ead9083c756cc2",
                                    "0x594daad7d77592a2b97b725a7ad59d7e188b5bfa"
                                ]
                            },
                            {
                                "name": "sellAmount",
                                "type": "uint256",
                                "value": "42,929,697,442,685,988,761,155,594"
                            },
                            {
                                "name": "minBuyAmount",
                                "type": "uint256",
                                "value": "107,116,714,690,128,150,000,000,000"
                            },
                            {
                                "name": "isSushi",
                                "type": "bool",
                                "value": false
                            }
                        ],
                        "constructorArguments": "",
                        "name": "sellToUniswap",
                        "returnParams": [
                            {
                                "name": "buyAmount",
                                "type": "uint256",
                                "value": "109,302,770,091,967,507,139,797,560"
                            }
                        ],
                        "signature": "sellToUniswap(address[],uint256,uint256,bool)"
                    },
                    "errorInfo": "",
                    "fromAddress": "0x74de5d4fcbf63e00296fd95d33236b9794016631",
                    "gasUsed": 147694,
                    "id": 7,
                    "methodDecoded": true,
                    "operation": "CALL",
                    "output": "0x0000000000000000000000000000000000000000005a69c30a2484ed8a7a2238",
                    "revert": false,
                    "revertMessage": "",
                    "selector": "0xd9627aa4",
                    "status": true,
                    "value": "0"
                },
                "nodeType": 0
            },
            "8": {
                "invocation": {
                    "address": "0xf9b30557afcf76ea82c04015d80057fa2147dfa9",
                    "callData": "0x00000000000000000000000000000000000000000000000000000000000000800000000000000000000000000000000000000000002382b78fc365bbbf0ab80a000000000000000000000000000000000000000000589ad8bd23c9f166a75c00000000000000000000000000000000000000000000000000000000000000000000000000000000000000000000000000000000000000000000000000000000030000000000000000000000009196e18bc349b1f64bc08784eae259525329a1ad000000000000000000000000c02aaa39b223fe8d0a0e5c4f27ead9083c756cc2000000000000000000000000594daad7d77592a2b97b725a7ad59d7e188b5bfa869584cd00000000000000000000000011ededebf63bef0ea2d2d071bdf88f71543ec6fb000000000000000000000000000000006f1107f2a3fed93c2658a7e902289111",
                    "decodedMethod": {
                        "callParams": [
                            {
                                "name": "tokens",
                                "type": "address[]",
                                "value": [
                                    "0x9196e18bc349b1f64bc08784eae259525329a1ad",
                                    "0xc02aaa39b223fe8d0a0e5c4f27ead9083c756cc2",
                                    "0x594daad7d77592a2b97b725a7ad59d7e188b5bfa"
                                ]
                            },
                            {
                                "name": "sellAmount",
                                "type": "uint256",
                                "value": "42,929,697,442,685,988,761,155,594"
                            },
                            {
                                "name": "minBuyAmount",
                                "type": "uint256",
                                "value": "107,116,714,690,128,150,000,000,000"
                            },
                            {
                                "name": "isSushi",
                                "type": "bool",
                                "value": false
                            }
                        ],
                        "constructorArguments": "",
                        "name": "sellToUniswap",
                        "returnParams": [
                            {
                                "name": "buyAmount",
                                "type": "uint256",
                                "value": "109,302,770,091,967,507,139,797,560"
                            }
                        ],
                        "signature": "sellToUniswap(address[],uint256,uint256,bool)"
                    },
                    "errorInfo": "",
                    "fromAddress": "0xdef1c0ded9bec7f1a1670819833240f027b25eff",
                    "gasUsed": 141928,
                    "id": 8,
                    "methodDecoded": true,
                    "operation": "DELEGATECALL",
                    "output": "0x0000000000000000000000000000000000000000005a69c30a2484ed8a7a2238",
                    "revert": false,
                    "revertMessage": "",
                    "selector": "0xd9627aa4",
                    "status": true,
                    "value": "0"
                },
                "nodeType": 0
            },
            "9": {
                "invocation": {
                    "address": "0x9196e18bc349b1f64bc08784eae259525329a1ad",
                    "callData": "0x00000000000000000000000074de5d4fcbf63e00296fd95d33236b9794016631000000000000000000000000ac336936f2f0c2ab0c8dece3a027445323e8a2440000000000000000000000000000000000000000002382b78fc365bbbf0ab80a",
                    "decodedMethod": {
                        "callParams": [
                            {
                                "name": "sender",
                                "type": "address",
                                "value": "0x74de5d4fcbf63e00296fd95d33236b9794016631"
                            },
                            {
                                "name": "recipient",
                                "type": "address",
                                "value": "0xac336936f2f0c2ab0c8dece3a027445323e8a244"
                            },
                            {
                                "decimalAvailable": true,
                                "name": "amount",
                                "type": "uint256",
                                "value": "42,929,697,442,685,988,761,155,594"
                            }
                        ],
                        "constructorArguments": "",
                        "name": "transferFrom",
                        "returnParams": [
                            {
                                "name": "",
                                "type": "bool",
                                "value": true
                            }
                        ],
                        "signature": "transferFrom(address,address,uint256)"
                    },
                    "errorInfo": "",
                    "fromAddress": "0xdef1c0ded9bec7f1a1670819833240f027b25eff",
                    "gasUsed": 13808,
                    "id": 9,
                    "methodDecoded": true,
                    "operation": "CALL",
                    "output": "0x0000000000000000000000000000000000000000000000000000000000000001",
                    "revert": false,
                    "revertMessage": "",
                    "selector": "0x23b872dd",
                    "status": true,
                    "value": "0"
                },
                "nodeType": 0
            }
        },
        "gasFlame": [
            {
                "children": [
                    {
                        "children": [
                            {
                                "children": [],
                                "depth": 0,
                                "name": "Initial Gas",
                                "value": 27672
                            },
                            {
                                "children": [
                                    {
                                        "children": [],
                                        "depth": 1,
                                        "name": "transferFrom",
                                        "value": 37708
                                    },
                                    {
                                        "children": [
                                            {
                                                "children": [
                                                    {
                                                        "children": [],
                                                        "depth": 3,
                                                        "name": "allowance",
                                                        "value": 2869
                                                    },
                                                    {
                                                        "children": [
                                                            {
                                                                "children": [
                                                                    {
                                                                        "children": [],
                                                                        "depth": 5,
                                                                        "name": "transferFrom",
                                                                        "value": 13808
                                                                    },
                                                                    {
                                                                        "children": [],
                                                                        "depth": 5,
                                                                        "name": "getReserves",
                                                                        "value": 2504
                                                                    },
                                                                    {
                                                                        "children": [
                                                                            {
                                                                                "children": [],
                                                                                "depth": 6,
                                                                                "name": "transfer",
                                                                                "value": 12862
                                                                            },
                                                                            {
                                                                                "children": [],
                                                                                "depth": 6,
                                                                                "name": "balanceOf",
                                                                                "value": 596
                                                                            },
                                                                            {
                                                                                "children": [],
                                                                                "depth": 6,
                                                                                "name": "balanceOf",
                                                                                "value": 534
                                                                            }
                                                                        ],
                                                                        "depth": 5,
                                                                        "name": "swap",
                                                                        "value": 47815
                                                                    },
                                                                    {
                                                                        "children": [],
                                                                        "depth": 5,
                                                                        "name": "getReserves",
                                                                        "value": 2504
                                                                    },
                                                                    {
                                                                        "children": [
                                                                            {
                                                                                "children": [],
                                                                                "depth": 6,
                                                                                "name": "transfer",
                                                                                "value": 30550
                                                                            },
                                                                            {
                                                                                "children": [],
                                                                                "depth": 6,
                                                                                "name": "balanceOf",
                                                                                "value": 940
                                                                            },
                                                                            {
                                                                                "children": [],
                                                                                "depth": 6,
                                                                                "name": "balanceOf",
                                                                                "value": 534
                                                                            }
                                                                        ],
                                                                        "depth": 5,
                                                                        "name": "swap",
                                                                        "value": 65847
                                                                    }
                                                                ],
                                                                "depth": 4,
                                                                "name": "sellToUniswap",
                                                                "value": 141928
                                                            }
                                                        ],
                                                        "depth": 3,
                                                        "name": "sellToUniswap",
                                                        "value": 147694
                                                    },
                                                    {
                                                        "children": [],
                                                        "depth": 3,
                                                        "name": "balanceOf",
                                                        "value": 596
                                                    },
                                                    {
                                                        "children": [],
                                                        "depth": 3,
                                                        "name": "balanceOf",
                                                        "value": 940
                                                    },
                                                    {
                                                        "children": [],
                                                        "depth": 3,
                                                        "name": "transfer",
                                                        "value": 8650
                                                    }
                                                ],
                                                "depth": 2,
                                                "name": "0x92f5f037",
                                                "value": 168938
                                            }
                                        ],
                                        "depth": 1,
                                        "name": "swap",
                                        "value": 174416
                                    }
                                ],
                                "depth": 0,
                                "name": "Executed Gas",
                                "value": 235467
                            }
                        ],
                        "depth": -1,
                        "name": "Actual Gas Used",
                        "value": 210512
                    },
                    {
                        "children": [],
                        "depth": -1,
                        "name": "Refunded Gas",
                        "value": 52627
                    }
                ],
                "depth": -2,
                "name": "Total Gas",
                "value": 263139
            }
        ],
        "isConfirmed": true,
        "mainTrace": [
            {
                "children": [
                    {
                        "children": [
                            {
                                "children": [
                                    {
                                        "children": [],
                                        "depth": 2,
                                        "id": 2,
                                        "order": 2
                                    },
                                    {
                                        "children": [],
                                        "depth": 2,
                                        "id": 3,
                                        "order": 3
                                    }
                                ],
                                "depth": 1,
                                "id": 1,
                                "order": 1
                            },
                            {
                                "children": [
                                    {
                                        "children": [
                                            {
                                                "children": [],
                                                "depth": 3,
                                                "id": 6,
                                                "order": 6
                                            },
                                            {
                                                "children": [
                                                    {
                                                        "children": [
                                                            {
                                                                "children": [
                                                                    {
                                                                        "children": [],
                                                                        "depth": 6,
                                                                        "id": 10,
                                                                        "order": 10
                                                                    },
                                                                    {
                                                                        "children": [],
                                                                        "depth": 6,
                                                                        "id": 11,
                                                                        "order": 11
                                                                    }
                                                                ],
                                                                "depth": 5,
                                                                "id": 9,
                                                                "order": 9
                                                            },
                                                            {
                                                                "children": [],
                                                                "depth": 5,
                                                                "id": 12,
                                                                "order": 12
                                                            },
                                                            {
                                                                "children": [
                                                                    {
                                                                        "children": [
                                                                            {
                                                                                "children": [],
                                                                                "depth": 7,
                                                                                "id": 15,
                                                                                "order": 15
                                                                            }
                                                                        ],
                                                                        "depth": 6,
                                                                        "id": 14,
                                                                        "order": 14
                                                                    },
                                                                    {
                                                                        "children": [],
                                                                        "depth": 6,
                                                                        "id": 16,
                                                                        "order": 16
                                                                    },
                                                                    {
                                                                        "children": [],
                                                                        "depth": 6,
                                                                        "id": 17,
                                                                        "order": 17
                                                                    },
                                                                    {
                                                                        "children": [],
                                                                        "depth": 6,
                                                                        "id": 18,
                                                                        "order": 18
                                                                    },
                                                                    {
                                                                        "children": [],
                                                                        "depth": 6,
                                                                        "id": 19,
                                                                        "order": 19
                                                                    }
                                                                ],
                                                                "depth": 5,
                                                                "id": 13,
                                                                "order": 13
                                                            },
                                                            {
                                                                "children": [],
                                                                "depth": 5,
                                                                "id": 20,
                                                                "order": 20
                                                            },
                                                            {
                                                                "children": [
                                                                    {
                                                                        "children": [
                                                                            {
                                                                                "children": [],
                                                                                "depth": 7,
                                                                                "id": 23,
                                                                                "order": 23
                                                                            }
                                                                        ],
                                                                        "depth": 6,
                                                                        "id": 22,
                                                                        "order": 22
                                                                    },
                                                                    {
                                                                        "children": [],
                                                                        "depth": 6,
                                                                        "id": 24,
                                                                        "order": 24
                                                                    },
                                                                    {
                                                                        "children": [],
                                                                        "depth": 6,
                                                                        "id": 25,
                                                                        "order": 25
                                                                    },
                                                                    {
                                                                        "children": [],
                                                                        "depth": 6,
                                                                        "id": 26,
                                                                        "order": 26
                                                                    },
                                                                    {
                                                                        "children": [],
                                                                        "depth": 6,
                                                                        "id": 27,
                                                                        "order": 27
                                                                    }
                                                                ],
                                                                "depth": 5,
                                                                "id": 21,
                                                                "order": 21
                                                            }
                                                        ],
                                                        "depth": 4,
                                                        "id": 8,
                                                        "order": 8
                                                    }
                                                ],
                                                "depth": 3,
                                                "id": 7,
                                                "order": 7
                                            },
                                            {
                                                "children": [],
                                                "depth": 3,
                                                "id": 28,
                                                "order": 28
                                            },
                                            {
                                                "children": [],
                                                "depth": 3,
                                                "id": 29,
                                                "order": 29
                                            },
                                            {
                                                "children": [
                                                    {
                                                        "children": [],
                                                        "depth": 4,
                                                        "id": 31,
                                                        "order": 31
                                                    }
                                                ],
                                                "depth": 3,
                                                "id": 30,
                                                "order": 30
                                            }
                                        ],
                                        "depth": 2,
                                        "id": 5,
                                        "order": 5
                                    }
                                ],
                                "depth": 1,
                                "id": 4,
                                "order": 4
                            },
                            {
                                "children": [],
                                "depth": 1,
                                "id": 32,
                                "order": 32
                            }
                        ],
                        "depth": 0,
                        "id": 0,
                        "order": 0
                    }
                ],
                "depth": -1,
                "id": -1,
                "order": -1
            }
        ],
        "mainTraceNodeCount": 33,
        "parentIdMap": {
            "0": -1,
            "1": 0,
            "10": 9,
            "11": 9,
            "12": 8,
            "13": 8,
            "14": 13,
            "15": 14,
            "16": 13,
            "17": 13,
            "18": 13,
            "19": 13,
            "2": 1,
            "20": 8,
            "21": 8,
            "22": 21,
            "23": 22,
            "24": 21,
            "25": 21,
            "26": 21,
            "27": 21,
            "28": 5,
            "29": 5,
            "3": 1,
            "30": 5,
            "31": 30,
            "32": 0,
            "4": 0,
            "5": 4,
            "6": 5,
            "7": 5,
            "8": 7,
            "9": 8
        },
        "tidyTrace": [
            {
                "children": [
                    {
                        "children": [
                            {
                                "children": [
                                    {
                                        "children": [],
                                        "depth": 2,
                                        "id": 2,
                                        "order": 2
                                    },
                                    {
                                        "children": [],
                                        "depth": 2,
                                        "id": 3,
                                        "order": 3
                                    }
                                ],
                                "depth": 1,
                                "id": 1,
                                "order": 1
                            },
                            {
                                "children": [
                                    {
                                        "children": [
                                            {
                                                "children": [
                                                    {
                                                        "children": [
                                                            {
                                                                "children": [
                                                                    {
                                                                        "children": [],
                                                                        "depth": 6,
                                                                        "id": 10,
                                                                        "order": 10
                                                                    },
                                                                    {
                                                                        "children": [],
                                                                        "depth": 6,
                                                                        "id": 11,
                                                                        "order": 11
                                                                    }
                                                                ],
                                                                "depth": 5,
                                                                "id": 9,
                                                                "order": 9
                                                            },
                                                            {
                                                                "children": [
                                                                    {
                                                                        "children": [
                                                                            {
                                                                                "children": [],
                                                                                "depth": 7,
                                                                                "id": 15,
                                                                                "order": 15
                                                                            }
                                                                        ],
                                                                        "depth": 6,
                                                                        "id": 14,
                                                                        "order": 14
                                                                    },
                                                                    {
                                                                        "children": [],
                                                                        "depth": 6,
                                                                        "id": 18,
                                                                        "order": 18
                                                                    },
                                                                    {
                                                                        "children": [],
                                                                        "depth": 6,
                                                                        "id": 19,
                                                                        "order": 19
                                                                    }
                                                                ],
                                                                "depth": 5,
                                                                "id": 13,
                                                                "order": 13
                                                            },
                                                            {
                                                                "children": [
                                                                    {
                                                                        "children": [
                                                                            {
                                                                                "children": [],
                                                                                "depth": 7,
                                                                                "id": 23,
                                                                                "order": 23
                                                                            }
                                                                        ],
                                                                        "depth": 6,
                                                                        "id": 22,
                                                                        "order": 22
                                                                    },
                                                                    {
                                                                        "children": [],
                                                                        "depth": 6,
                                                                        "id": 26,
                                                                        "order": 26
                                                                    },
                                                                    {
                                                                        "children": [],
                                                                        "depth": 6,
                                                                        "id": 27,
                                                                        "order": 27
                                                                    }
                                                                ],
                                                                "depth": 5,
                                                                "id": 21,
                                                                "order": 21
                                                            }
                                                        ],
                                                        "depth": 4,
                                                        "id": 8,
                                                        "order": 8
                                                    }
                                                ],
                                                "depth": 3,
                                                "id": 7,
                                                "order": 7
                                            },
                                            {
                                                "children": [
                                                    {
                                                        "children": [],
                                                        "depth": 4,
                                                        "id": 31,
                                                        "order": 31
                                                    }
                                                ],
                                                "depth": 3,
                                                "id": 30,
                                                "order": 30
                                            }
                                        ],
                                        "depth": 2,
                                        "id": 5,
                                        "order": 5
                                    }
                                ],
                                "depth": 1,
                                "id": 4,
                                "order": 4
                            },
                            {
                                "children": [],
                                "depth": 1,
                                "id": 32,
                                "order": 32
                            }
                        ],
                        "depth": 0,
                        "id": 0,
                        "order": 0
                    }
                ],
                "depth": -1,
                "id": -1,
                "order": -1
            }
        ],
        "tidyTraceNodeCount": 24
    },
    "state_change": {
        "stateChanges": [
            {
                "address": "0x594daad7d77592a2b97b725a7ad59d7e188b5bfa",
                "erc": "ERC-20",
                "slots": [
                    {
                        "current": "0x000000000000000000000000000000000000000036c31e91770b0048ae4f426f",
                        "key": "0x7c63ea6678e30657ce109e1131e194aea9e921459c7ec221d059e44f947feb59",
                        "prev": "0x0000000000000000000000000000000000000000371d8854812f853638c964a7"
                    },
                    {
                        "current": "0x00000000000000000000000000000000000000000082f42a9cbf61b96b8848c1",
                        "key": "0x33a13c68b38812362747a3154be9f93710f460f86744d51ad08d316d22dd4c3e",
                        "prev": "0x000000000000000000000000000000000000000000288a67929adccbe10e2689"
                    }
                ],
                "storageVariables": [
                    {
                        "name": "_balances",
                        "type": "mapping(address => uint256)",
                        "value": {
                            "pairs": [
                                {
                                    "key": "0x5ced44f03ff443bbe14d8ea23bc24425fb89e3ed",
                                    "value": {
                                        "current": "16948075419527813404866593391",
                                        "prev": "17057378189619780912006390951",
                                        "typeTag": 1
                                    }
                                },
                                {
                                    "key": "0x5e6e1ea47eb6c446096f53b3979af6e06d0486f3",
                                    "value": {
                                        "current": "158313400029826921414543553",
                                        "prev": "49010629937859414274745993",
                                        "typeTag": 1
                                    }
                                }
                            ],
                            "typeTag": 4
                        }
                    }
                ]
            },
            {
                "address": "0x5ced44f03ff443bbe14d8ea23bc24425fb89e3ed",
                "erc": "ERC-20",
                "slots": [
                    {
                        "current": "0x65fd2f030000000000017458d4bef24ddc20000036c31e91770b0048ae4f426f",
                        "key": "0x0000000000000000000000000000000000000000000000000000000000000008",
                        "prev": "0x65fd2eeb00000000000171f431b0a109af5a0000371d8854812f853638c964a7"
                    },
                    {
                        "current": "0x00000000000000000000000000000000000002750a91e3c2a883e18168fcd620",
                        "key": "0x0000000000000000000000000000000000000000000000000000000000000009",
                        "prev": "0x000000000000000000000000000000000000027509f0cb0ccf5c5ef8859d7870"
                    },
                    {
                        "current": "0x000000000000000000000003ad60ce8e1a4679fd932706c70ffb17b9e872d488",
                        "key": "0x000000000000000000000000000000000000000000000000000000000000000a",
                        "prev": "0x000000000000000000000003ad5d3b3a637dbecf496d38f0ceea0c62fe1a7678"
                    }
                ],
                "storageVariables": [
                    {
                        "name": "reserve0",
                        "type": "uint112",
                        "value": {
                            "current": "16948075419527813404866593391",
                            "prev": "17057378189619780912006390951",
                            "typeTag": 1
                        }
                    },
                    {
                        "name": "reserve1",
                        "type": "uint112",
                        "value": {
                            "current": "26830428696633793568",
                            "prev": "26657986728998580058",
                            "typeTag": 1
                        }
                    },
                    {
                        "name": "blockTimestampLast",
                        "type": "uint32",
                        "value": {
                            "current": "1711091459",
                            "prev": "1711091435",
                            "typeTag": 1
                        }
                    },
                    {
                        "name": "price0CumulativeLast",
                        "type": "uint256",
                        "value": {
                            "current": "49837785441382328676932090910240",
                            "prev": "49837590687634066836467285325936",
                            "typeTag": 1
                        }
                    },
                    {
                        "name": "price1CumulativeLast",
                        "type": "uint256",
                        "value": {
                            "current": "5374319180370215840441380719432015743926465123464",
                            "prev": "5374239444142190074295336549160143060407634523768",
                            "typeTag": 1
                        }
                    }
                ]
            },
            {
                "address": "0x9196e18bc349b1f64bc08784eae259525329a1ad",
                "erc": "ERC-20",
                "slots": [
                    {
                        "current": "0x0000000000000000000000000000000000000000000000000000000000000000",
                        "key": "0x33a13c68b38812362747a3154be9f93710f460f86744d51ad08d316d22dd4c3e",
                        "prev": "0x0000000000000000000000000000000000000000002382b78fc365bbbf0ab80a"
                    },
                    {
                        "current": "0xfffffffffffffffffffffffffffffffffffffffffefc35a391ceb93bf1f6a791",
                        "key": "0xd7221ec0c1ebc7f055417196a727a2597bc849ac4bfcb25a1a84940582914943",
                        "prev": "0xffffffffffffffffffffffffffffffffffffffffff1fb85b21921ef7b1015f9b"
                    },
                    {
                        "current": "0x000000000000000000000000000000000000000061391ae8d5455e6e3bdd0171",
                        "key": "0x07080256877839b0f05cd41d606b2513fc057bdf5f725e9c8417d3c8336d3a06",
                        "prev": "0x0000000000000000000000000000000000000000611598314581f8b27cd24967"
                    },
                    {
                        "current": "0xffffffffffffffffffffffffffffffffffffffffbe5dbd3e725ca9d3c179c86c",
                        "key": "0x9ccd4257ce838a4d1834d8f2a2e350d9422b0863510923e9a8f80a1ab6144e5c",
                        "prev": "0xffffffffffffffffffffffffffffffffffffffffbe813ff602200f8f80848076"
                    }
                ],
                "storageVariables": [
                    {
                        "name": "_balances",
                        "type": "mapping(address => uint256)",
                        "value": {
                            "pairs": [
                                {
                                    "key": "0x5e6e1ea47eb6c446096f53b3979af6e06d0486f3",
                                    "value": {
                                        "current": "0",
                                        "prev": "42929697442685988761155594",
                                        "typeTag": 1
                                    }
                                },
                                {
                                    "key": "0xac336936f2f0c2ab0c8dece3a027445323e8a244",
                                    "value": {
                                        "current": "30089081800929478371668984177",
                                        "prev": "30046152103486792382907828583",
                                        "typeTag": 1
                                    }
                                }
                            ],
                            "typeTag": 4
                        }
                    },
                    {
                        "name": "_allowances",
                        "type": "mapping(address => mapping(address => uint256))",
                        "value": {
                            "pairs": [
                                {
                                    "key": "0x5e6e1ea47eb6c446096f53b3979af6e06d0486f3",
                                    "value": {
                                        "pairs": [
                                            {
                                                "key": "0x881d40237659c251811cec9c364ef91dc08d300c",
                                                "value": {
                                                    "current": "115792089237316195423570985008687907853269984665640249972047233619081374902161",
                                                    "prev": "115792089237316195423570985008687907853269984665640292901744676305070136057755",
                                                    "typeTag": 1
                                                }
                                            }
                                        ],
                                        "typeTag": 4
                                    }
                                },
                                {
                                    "key": "0x74de5d4fcbf63e00296fd95d33236b9794016631",
                                    "value": {
                                        "pairs": [
                                            {
                                                "key": "0xdef1c0ded9bec7f1a1670819833240f027b25eff",
                                                "value": {
                                                    "current": "115792089237316195423570985008687907853269984665620251352589803436968609695852",
                                                    "prev": "115792089237316195423570985008687907853269984665620294282287246122957370851446",
                                                    "typeTag": 1
                                                }
                                            }
                                        ],
                                        "typeTag": 4
                                    }
                                }
                            ],
                            "typeTag": 4
                        }
                    }
                ]
            },
            {
                "address": "0xac336936f2f0c2ab0c8dece3a027445323e8a244",
                "erc": "ERC-20",
                "slots": [
                    {
                        "current": "0x65fd2f030000000000068ff5e7bff73c2f4a000061391ae8d5455e6e3bdd0171",
                        "key": "0x0000000000000000000000000000000000000000000000000000000000000008",
                        "prev": "0x65fd1d0f000000000006925a8ace48805c100000611598314581f8b27cd24967"
                    },
                    {
                        "current": "0x00000000000000000000000000000000000076b836e579196d0518bf35993895",
                        "key": "0x0000000000000000000000000000000000000000000000000000000000000009",
                        "prev": "0x00000000000000000000000000000000000076b6ffca63162c86913af94a6a11"
                    },
                    {
                        "current": "0x000000000000000000000086a06a58c673b58ecf6947247b080d2d2138aa5aa7",
                        "key": "0x000000000000000000000000000000000000000000000000000000000000000a",
                        "prev": "0x0000000000000000000000869f611f90d0ad912caf8ecbe0105ee66e841bc273"
                    }
                ],
                "storageVariables": [
                    {
                        "name": "price1CumulativeLast",
                        "type": "uint256",
                        "value": {
                            "current": "196757029538074724176253229479431607600813752081063",
                            "prev": "196751114856945144350243904423113415444191571067507",
                            "typeTag": 1
                        }
                    },
                    {
                        "name": "reserve0",
                        "type": "uint112",
                        "value": {
                            "current": "30089081800929478371668984177",
                            "prev": "30046152103486792382907828583",
                            "typeTag": 1
                        }
                    },
                    {
                        "name": "reserve1",
                        "type": "uint112",
                        "value": {
                            "current": "121053916570647801674",
                            "prev": "121226358538283015184",
                            "typeTag": 1
                        }
                    },
                    {
                        "name": "blockTimestampLast",
                        "type": "uint32",
                        "value": {
                            "current": "1711091459",
                            "prev": "1711086863",
                            "typeTag": 1
                        }
                    },
                    {
                        "name": "price0CumulativeLast",
                        "type": "uint256",
                        "value": {
                            "current": "2407919304739940161268184228903061",
                            "prev": "2407823022156936543200602271410705",
                            "typeTag": 1
                        }
                    }
                ]
            },
            {
                "address": "0xc02aaa39b223fe8d0a0e5c4f27ead9083c756cc2",
                "erc": "ERC-20",
                "slots": [
                    {
                        "current": "0x0000000000000000000000000000000000000000000000068ff5e7bff73c2f4a",
                        "key": "0xd56c9b0ae19a1148dbed0fe007978cd76bc915db7fd28f4165883d481b212c72",
                        "prev": "0x000000000000000000000000000000000000000000000006925a8ace48805c10"
                    },
                    {
                        "current": "0x0000000000000000000000000000000000000000000000017458d4bef24ddc20",
                        "key": "0x6329771e89dd37af990fa2f7ce5fec76db5eee13bc15f3125fc501b41bd6c6d6",
                        "prev": "0x00000000000000000000000000000000000000000000000171f431b0a109af5a"
                    }
                ],
                "storageVariables": [
                    {
                        "name": "balanceOf",
                        "type": "mapping(address => uint256)",
                        "value": {
                            "pairs": [
                                {
                                    "key": "0x5ced44f03ff443bbe14d8ea23bc24425fb89e3ed",
                                    "value": {
                                        "current": "26830428696633793568",
                                        "prev": "26657986728998580058",
                                        "typeTag": 1
                                    }
                                },
                                {
                                    "key": "0xac336936f2f0c2ab0c8dece3a027445323e8a244",
                                    "value": {
                                        "current": "121053916570647801674",
                                        "prev": "121226358538283015184",
                                        "typeTag": 1
                                    }
                                }
                            ],
                            "typeTag": 4
                        }
                    }
                ]
            }
        ]
    }
}