{
    "balance_change": {
        "balanceChanges": [
            {
                "account": "0x7fe2b88f2e4858de375832fbf54ac7cf1a78ca51",
                "assets": [
                    {
                        "address": "0xa74476443119a942de498590fe1f2454d7d4ac0d",
                        "amount": "27.169461900000002048",
                        "iconUrl": "",
                        "isERC1155": false,
                        "isERC721": false,
                        "sign": false,
                        "value": ""
                    }
                ]
            },
            {
                "account": "0xd339abc9bf2aa50307d947ebfbe09854442b3373",
                "assets": [
                    {
                        "address": "0xa74476443119a942de498590fe1f2454d7d4ac0d",
                        "amount": "27.169461900000002048",
                        "iconUrl": "",
                        "isERC1155": false,
                        "isERC721": false,
                        "sign": true,
                        "value": ""
                    }
                ]
            }
        ]
    },
    "profile": {
        "basic_info": {
            "baseFee": "",
            "blockNumber": 5104254,
            "callData": "0xa9059cbb000000000000000000000000d339abc9bf2aa50307d947ebfbe09854442b3373000000000000000000000000000000000000000000000001790d51a5e8028000",
            "debugEnable": true,
            "errorInfo": "",
            "eventCount": 1,
            "feeRecipient": "0xb2930b35844a230f00e51431acae96fe543a0347",
            "formatValue": "0",
            "gasLimit": 200000,
            "gasPrice": "40",
            "gasUsed": 36848,
            "intTxnCount": 0,
            "internalRevert": false,
            "internalRevertMessage": "",
            "isContractCreation": false,
            "isFlashloan": false,
            "maxFee": "",
            "nonce": 148840,
            "overwritedBlockNumber": -1,
            "priorityFee": "",
            "receiver": "0xa74476443119a942de498590fe1f2454d7d4ac0d",
            "revertMessage": "",
            "sender": "0x7fe2b88f2e4858de375832fbf54ac7cf1a78ca51",
            "simulationEnable": true,
            "sourceTxnHash": "0x2ac3abcaa292b8de11d14242121232c5e20cc0842263431252ca637df28b9eec",
            "status": true,
            "timestamp": "2018-02-17T03:12:54Z",
            "transactionFee": "0.00147392",
            "txnHash": "0x2ac3abcaa292b8de11d14242121232c5e20cc0842263431252ca637df28b9eec",
            "txnIndex": 14,
            "type": 0,
            "value": "0"
        },
        "fund_flow": [
            {
                "amount": "27.169461900000002048",
                "from": "0x7fe2b88f2e4858de375832fbf54ac7cf1a78ca51",
                "id": 1,
                "isERC1155": false,
                "isERC721": false,
                "isReverted": false,
                "order": 1,
                "to": "0xd339abc9bf2aa50307d947ebfbe09854442b3373",
                "token": "0xa74476443119a942de498590fe1f2454d7d4ac0d"
            }
        ],
        "token_infos": [
            {
                "address": "0xa74476443119a942de498590fe1f2454d7d4ac0d",
                "decimals": 18
            },
            {
                "address": "0xc02aaa39b223fe8d0a0e5c4f27ead9083c756cc2",
                "decimals": 18
            },
            {
                "address": "0xeeeeeeeeeeeeeeeeeeeeeeeeeeeeeeeeeeeeeeee",
                "decimals": 18
            }
        ]
    },
    "address_label": {
        "labels": [
            {
                "address": "0x0000000000000000000000000000000000000001",
                "label": "Precompiled"
            },
            {
                "address": "0x0000000000000000000000000000000000000002",
                "label": "Precompiled"
            },
            {
                "address": "0x0000000000000000000000000000000000000003",
                "label": "Precompiled"
            },
            {
                "address": "0x0000000000000000000000000000000000000004",
                "label": "Precompiled"
            },
            {
                "address": "0xeeeeeeeeeeeeeeeeeeeeeeeeeeeeeeeeeeeeeeee",
                "label": "Ether"
            },
            {
                "address": "0xa74476443119a942de498590fe1f2454d7d4ac0d",
                "label": "Golem Token"
            }
        ]
    },
    "trace": {
        "accountLabels": null,
        "dataMap": {
            "-1": {
                "invocation": {
                    "address": "0x7fe2b88f2e4858de375832fbf54ac7cf1a78ca51",
                    "callData": "",
                    "decodedMethod": null,
                    "errorInfo": "",
                    "fromAddress": "",
                    "gasUsed": 0,
                    "id": -1,
                    "methodDecoded": false,
                    "operation": "",
                    "output": "",
                    "revert": false,
                    "revertMessage": "",
                    "selector": "",
                    "status": false,
                    "value": ""
                },
                "nodeType": 0
            },
            "0": {
                "invocation": {
                    "address": "0xa74476443119a942de498590fe1f2454d7d4ac0d",
                    "callData": "0x000000000000000000000000d339abc9bf2aa50307d947ebfbe09854442b3373000000000000000000000000000000000000000000000001790d51a5e8028000",
                    "decodedMethod": {
                        "callParams": [
                            {
                                "name": "_to",
                                "type": "address",
                                "value": "0xd339abc9bf2aa50307d947ebfbe09854442b3373"
                            },
                            {
                                "decimalAvailable": true,
                                "name": "_value",
                                "type": "uint256",
                                "value": "27,169,461,900,000,002,048"
                            }
                        ],
                        "constructorArguments": "",
                        "name": "transfer",
                        "returnParams": [
                            {
                                "name": "",
                                "type": "bool",
                                "value": true
                            }
                        ],
                        "signature": "transfer(address,uint256)"
                    },
                    "errorInfo": "",
                    "fromAddress": "0x7fe2b88f2e4858de375832fbf54ac7cf1a78ca51",
                    "gasUsed": 36848,
                    "id": 0,
                    "methodDecoded": true,
                    "operation": "CALL",
                    "output": "0x0000000000000000000000000000000000000000000000000000000000000001",
                    "revert": false,
                    "revertMessage": "",
                    "selector": "0xa9059cbb",
                    "status": true,
                    "value": "0"
                },
                "nodeType": 0
            },
            "1": {
                "event": {
                    "contract": "0xa74476443119a942de498590fe1f2454d7d4ac0d",
                    "decodedLog": {
                        "name": "Transfer",
                        "params": [
                            {
                                "name": "_from",
                                "type": "address",
                                "value": "0x7fe2b88f2e4858de375832fbf54ac7cf1a78ca51"
                            },
                            {
                                "name": "_to",
                                "type": "address",
                                "value": "0xd339abc9bf2aa50307d947ebfbe09854442b3373"
                            },
                            {
                                "decimalAvailable": true,
                                "name": "_value",
                                "type": "uint256",
                                "value": "27,169,461,900,000,002,048"
                            }
                        ],
                        "signature": "Transfer(address,address,uint256)"
                    },
                    "id": 1,
                    "logData": "0x000000000000000000000000000000000000000000000001790d51a5e8028000",
                    "logDecoded": true,
                    "operation": "EVENT",
                    "revert": false,
                    "status": true,
                    "topics": [
                        "0xddf252ad1be2c89b69c2b068fc378daa952ba7f163c4a11628f55a4df523b3ef",
                        "0x0000000000000000000000007fe2b88f2e4858de375832fbf54ac7cf1a78ca51",
                        "0x000000000000000000000000d339abc9bf2aa50307d947ebfbe09854442b3373"
                    ]
                },
                "nodeType": 1
            }
        },
        "gasFlame": [
            {
                "children": [
                    {
                        "children": [
                            {
                                "children": [],
                                "depth": 0,
                                "name": "Initial Gas",
                                "value": 23320
                            },
                            {
                                "children": [],
                                "depth": 0,
                                "name": "Executed Gas",
                                "value": 13528
                            }
                        ],
                        "depth": -1,
                        "name": "Actual Gas Used",
                        "value": 36848
                    },
                    {
                        "children": [],
                        "depth": -1,
                        "name": "Refunded Gas",
                        "value": 0
                    }
                ],
                "depth": -2,
                "name": "Total Gas",
                "value": 36848
            }
        ],
        "isConfirmed": true,
        "mainTrace": [
            {
                "children": [
                    {
                        "children": [
                            {
                                "children": [],
                                "depth": 1,
                                "id": 1,
                                "order": 1
                            }
                        ],
                        "depth": 0,
                        "id": 0,
                        "order": 0
                    }
                ],
                "depth": -1,
                "id": -1,
                "order": -1
            }
        ],
        "mainTraceNodeCount": 2,
        "parentIdMap": {
            "0": -1,
            "1": 0
        },
        "tidyTrace": [
            {
                "children": [
                    {
                        "children": [
                            {
                                "children": [],
                                "depth": 1,
                                "id": 1,
                                "order": 1
                            }
                        ],
                        "depth": 0,
                        "id": 0,
                        "order": 0
                    }
                ],
                "depth": -1,
                "id": -1,
                "order": -1
            }
        ],
        "tidyTraceNodeCount": 2
    },
    "state_change": {
        "stateChanges": [
            {
                "address": "0xa74476443119a942de498590fe1f2454d7d4ac0d",
                "erc": "",
                "slots": [
                    {
                        "current": "0x00000000000000000000000000000000000000000000545cff0d25b59006a3e9",
                        "key": "0x6eb536ba53ea0f68e4830bf82151ecd427d0af0be252e39810e10952bdf68afb",
                        "prev": "0x00000000000000000000000000000000000000000000545e781a775b780923e9"
                    },
                    {
                        "current": "0x00000000000000000000000000000000000000000000001101e344be14f99c00",
                        "key": "0x4d84d8f321b144f92907fa4959910a3319e2442543f71035151ce13e47071724",
                        "prev": "0x00000000000000000000000000000000000000000000000f88d5f3182cf71c00"
                    }
                ],
                "storageVariables": []
            }
        ]
    }
}