{
    "balance_change": {
        "balanceChanges": [
            {
                "account": "0xba2828dc3844898eeea02af3da593c7b13a61c19",
                "assets": [
                    {
                        "address": "0x41e5560054824ea6b0732e656e3ad64e20e94e45",
                        "amount": "23,870",
                        "iconUrl": "",
                        "isERC1155": false,
                        "isERC721": false,
                        "sign": false,
                        "value": "4450.763239"
                    }
                ]
            },
            {
                "account": "0x6254b927ecc25ddd233aaecd5296d746b1c006b4",
                "assets": [
                    {
                        "address": "0x41e5560054824ea6b0732e656e3ad64e20e94e45",
                        "amount": "23,870",
                        "iconUrl": "",
                        "isERC1155": false,
                        "isERC721": false,
                        "sign": true,
                        "value": "4450.763239"
                    }
                ]
            }
        ]
    },
    "profile": {
        "basic_info": {
            "baseFee": "",
            "blockNumber": 12902343,
            "callData": "0xa9059cbb0000000000000000000000006254b927ecc25ddd233aaecd5296d746b1c006b40000000000000000000000000000000000000000000000000000022bc4497e00",
            "debugEnable": true,
            "errorInfo": "",
            "eventCount": 1,
            "feeRecipient": "0x5a0b54d5dc17e0aadc383d2db43b0a0d3e029c4c",
            "formatValue": "0",
            "gasLimit": 40101,
            "gasPrice": "37.347",
            "gasUsed": 19871,
            "intTxnCount": 0,
            "internalRevert": false,
            "internalRevertMessage": "",
            "isContractCreation": false,
            "isFlashloan": false,
            "maxFee": "",
            "nonce": 18766,
            "overwritedBlockNumber": -1,
            "priorityFee": "",
            "receiver": "0x41e5560054824ea6b0732e656e3ad64e20e94e45",
            "revertMessage": "",
            "sender": "0xba2828dc3844898eeea02af3da593c7b13a61c19",
            "simulationEnable": true,
            "sourceTxnHash": "0x2a5b64a85d9daad7aa3f36aabd0d0e52a0d68366b23345f769be9b5b0e3bc5fb",
            "status": true,
            "timestamp": "2021-07-26T14:23:34Z",
            "transactionFee": "0.000742122237",
            "txnHash": "0x2a5b64a85d9daad7aa3f36aabd0d0e52a0d68366b23345f769be9b5b0e3bc5fb",
            "txnIndex": 103,
            "type": 0,
            "value": "0"
        },
        "fund_flow": [
            {
                "amount": "23,870",
                "from": "0xba2828dc3844898eeea02af3da593c7b13a61c19",
                "id": 1,
                "isERC1155": false,
                "isERC721": false,
                "isReverted": false,
                "order": 1,
                "to": "0x6254b927ecc25ddd233aaecd5296d746b1c006b4",
                "token": "0x41e5560054824ea6b0732e656e3ad64e20e94e45"
            }
        ],
        "token_infos": [
            {
                "address": "0x41e5560054824ea6b0732e656e3ad64e20e94e45",
                "decimals": 8
            },
            {
                "address": "0xc02aaa39b223fe8d0a0e5c4f27ead9083c756cc2",
                "decimals": 18
            },
            {
                "address": "0xeeeeeeeeeeeeeeeeeeeeeeeeeeeeeeeeeeeeeeee",
                "decimals": 18
            }
        ]
    },
    "address_label": {
        "labels": [
            {
                "address": "0x41e5560054824ea6b0732e656e3ad64e20e94e45",
                "label": "Civic: CVC Token"
            },
            {
                "address": "0x0000000000000000000000000000000000000001",
                "label": "Precompiled"
            },
            {
                "address": "0x0000000000000000000000000000000000000002",
                "label": "Precompiled"
            },
            {
                "address": "0x0000000000000000000000000000000000000003",
                "label": "Precompiled"
            },
            {
                "address": "0x0000000000000000000000000000000000000004",
                "label": "Precompiled"
            },
            {
                "address": "0xeeeeeeeeeeeeeeeeeeeeeeeeeeeeeeeeeeeeeeee",
                "label": "Ether"
            }
        ]
    },
    "trace": {
        "accountLabels": null,
        "dataMap": {
            "-1": {
                "invocation": {
                    "address": "0xba2828dc3844898eeea02af3da593c7b13a61c19",
                    "callData": "",
                    "decodedMethod": null,
                    "errorInfo": "",
                    "fromAddress": "",
                    "gasUsed": 0,
                    "id": -1,
                    "methodDecoded": false,
                    "operation": "",
                    "output": "",
                    "revert": false,
                    "revertMessage": "",
                    "selector": "",
                    "status": false,
                    "value": ""
                },
                "nodeType": 0
            },
            "0": {
                "invocation": {
                    "address": "0x41e5560054824ea6b0732e656e3ad64e20e94e45",
                    "callData": "0x0000000000000000000000006254b927ecc25ddd233aaecd5296d746b1c006b40000000000000000000000000000000000000000000000000000022bc4497e00",
                    "decodedMethod": {
                        "callParams": [
                            {
                                "name": "_to",
                                "type": "address",
                                "value": "0x6254b927ecc25ddd233aaecd5296d746b1c006b4"
                            },
                            {
                                "decimalAvailable": true,
                                "name": "_value",
                                "type": "uint256",
                                "value": "2,387,000,000,000"
                            }
                        ],
                        "constructorArguments": "",
                        "name": "transfer",
                        "returnParams": [
                            {
                                "name": "success",
                                "type": "bool",
                                "value": true
                            }
                        ],
                        "signature": "transfer(address,uint256)"
                    },
                    "errorInfo": "",
                    "fromAddress": "0xba2828dc3844898eeea02af3da593c7b13a61c19",
                    "gasUsed": 19871,
                    "id": 0,
                    "methodDecoded": true,
                    "operation": "CALL",
                    "output": "0x0000000000000000000000000000000000000000000000000000000000000001",
                    "revert": false,
                    "revertMessage": "",
                    "selector": "0xa9059cbb",
                    "status": true,
                    "value": "0"
                },
                "nodeType": 0
            },
            "1": {
                "event": {
                    "contract": "0x41e5560054824ea6b0732e656e3ad64e20e94e45",
                    "decodedLog": {
                        "name": "Transfer",
                        "params": [
                            {
                                "name": "from",
                                "type": "address",
                                "value": "0xba2828dc3844898eeea02af3da593c7b13a61c19"
                            },
                            {
                                "name": "to",
                                "type": "address",
                                "value": "0x6254b927ecc25ddd233aaecd5296d746b1c006b4"
                            },
                            {
                                "decimalAvailable": true,
                                "name": "value",
                                "type": "uint256",
                                "value": "2,387,000,000,000"
                            }
                        ],
                        "signature": "Transfer(address,address,uint256)"
                    },
                    "id": 1,
                    "logData": "0x0000000000000000000000000000000000000000000000000000022bc4497e00",
                    "logDecoded": true,
                    "operation": "EVENT",
                    "revert": false,
                    "status": true,
                    "topics": [
                        "0xddf252ad1be2c89b69c2b068fc378daa952ba7f163c4a11628f55a4df523b3ef",
                        "0x000000000000000000000000ba2828dc3844898eeea02af3da593c7b13a61c19",
                        "0x0000000000000000000000006254b927ecc25ddd233aaecd5296d746b1c006b4"
                    ]
                },
                "nodeType": 1
            }
        },
        "gasFlame": [
            {
                "children": [
                    {
                        "children": [
                            {
                                "children": [],
                                "depth": 0,
                                "name": "Initial Gas",
                                "value": 21620
                            },
                            {
                                "children": [],
                                "depth": 0,
                                "name": "Executed Gas",
                                "value": 13251
                            }
                        ],
                        "depth": -1,
                        "name": "Actual Gas Used",
                        "value": 19871
                    },
                    {
                        "children": [],
                        "depth": -1,
                        "name": "Refunded Gas",
                        "value": 15000
                    }
                ],
                "depth": -2,
                "name": "Total Gas",
                "value": 34871
            }
        ],
        "isConfirmed": true,
        "mainTrace": [
            {
                "children": [
                    {
                        "children": [
                            {
                                "children": [],
                                "depth": 1,
                                "id": 1,
                                "order": 1
                            }
                        ],
                        "depth": 0,
                        "id": 0,
                        "order": 0
                    }
                ],
                "depth": -1,
                "id": -1,
                "order": -1
            }
        ],
        "mainTraceNodeCount": 2,
        "parentIdMap": {
            "0": -1,
            "1": 0
        },
        "tidyTrace": [
            {
                "children": [
                    {
                        "children": [
                            {
                                "children": [],
                                "depth": 1,
                                "id": 1,
                                "order": 1
                            }
                        ],
                        "depth": 0,
                        "id": 0,
                        "order": 0
                    }
                ],
                "depth": -1,
                "id": -1,
                "order": -1
            }
        ],
        "tidyTraceNodeCount": 2
    },
    "state_change": {
        "stateChanges": [
            {
                "address": "0x41e5560054824ea6b0732e656e3ad64e20e94e45",
                "erc": "ERC-20",
                "slots": [
                    {
                        "current": "0x0000000000000000000000000000000000000000000000000000000000000000",
                        "key": "0x86e51ec2dcf995756adb85fd4bcad7686088313f602440f287ec90bfbb063536",
                        "prev": "0x0000000000000000000000000000000000000000000000000000022bc4497e00"
                    },
                    {
                        "current": "0x000000000000000000000000000000000000000000000000000021e96ba98b44",
                        "key": "0x39149439da53a861f4016e8d9479af2ba055d931ab53b5328052b1f04c5ac613",
                        "prev": "0x00000000000000000000000000000000000000000000000000001fbda7600d44"
                    }
                ],
                "storageVariables": []
            }
        ]
    }
}