{
    "balance_change": {
        "balanceChanges": [
            {
                "account": "0x21a31ee1afc51d94c2efccaa2092ad1028285549",
                "assets": [
                    {
                        "address": "0x5732046a883704404f284ce41ffadd5b007fd668",
                        "amount": "44,780",
                        "iconUrl": "https://assets.blocksec.com/icon/03c977a981767e3fdc889da56cd1f35a2142fff44291849b68fae540ce14430f.png",
                        "isERC1155": false,
                        "isERC721": false,
                        "sign": false,
                        "value": "6358.759999999999433"
                    }
                ]
            },
            {
                "account": "0x7b3a747f681324e7c810c2a3ec65534e9498b4b7",
                "assets": [
                    {
                        "address": "0x5732046a883704404f284ce41ffadd5b007fd668",
                        "amount": "44,780",
                        "iconUrl": "https://assets.blocksec.com/icon/03c977a981767e3fdc889da56cd1f35a2142fff44291849b68fae540ce14430f.png",
                        "isERC1155": false,
                        "isERC721": false,
                        "sign": true,
                        "value": "6358.759999999999433"
                    }
                ]
            }
        ]
    },
    "profile": {
        "basic_info": {
            "baseFee": "19.254408165",
            "blockNumber": 18110750,
            "callData": "0xa9059cbb0000000000000000000000007b3a747f681324e7c810c2a3ec65534e9498b4b700000000000000000000000000000000000000000000097b8756896448300000",
            "debugEnable": true,
            "errorInfo": "",
            "eventCount": 1,
            "feeRecipient": "0x5124fcc2b3f99f571ad67d075643c743f38f1c34",
            "formatValue": "0",
            "gasLimit": 207128,
            "gasPrice": "21.254408165",
            "gasUsed": 54348,
            "intTxnCount": 0,
            "internalRevert": false,
            "internalRevertMessage": "",
            "isContractCreation": false,
            "isFlashloan": false,
            "maxFee": "102",
            "nonce": 7432683,
            "overwritedBlockNumber": -1,
            "priorityFee": "2",
            "receiver": "0x5732046a883704404f284ce41ffadd5b007fd668",
            "revertMessage": "",
            "sender": "0x21a31ee1afc51d94c2efccaa2092ad1028285549",
            "simulationEnable": true,
            "sourceTxnHash": "0x2a41848041b9420af608561696bbc2a8ba5bf1fcaca0ec35377da664f64a1282",
            "status": true,
            "timestamp": "2023-09-11T04:32:11Z",
            "transactionFee": "0.00115513457495142",
            "txnHash": "0x2a41848041b9420af608561696bbc2a8ba5bf1fcaca0ec35377da664f64a1282",
            "txnIndex": 217,
            "type": 2,
            "value": "0"
        },
        "fund_flow": [
            {
                "amount": "44,780",
                "from": "0x21a31ee1afc51d94c2efccaa2092ad1028285549",
                "id": 1,
                "isERC1155": false,
                "isERC721": false,
                "isReverted": false,
                "order": 1,
                "to": "0x7b3a747f681324e7c810c2a3ec65534e9498b4b7",
                "token": "0x5732046a883704404f284ce41ffadd5b007fd668"
            }
        ],
        "token_infos": [
            {
                "address": "0xc02aaa39b223fe8d0a0e5c4f27ead9083c756cc2",
                "decimals": 18
            },
            {
                "address": "0xeeeeeeeeeeeeeeeeeeeeeeeeeeeeeeeeeeeeeeee",
                "decimals": 18
            },
            {
                "address": "0x5732046a883704404f284ce41ffadd5b007fd668",
                "decimals": 18
            }
        ]
    },
    "address_label": {
        "labels": [
            {
                "address": "0x21a31ee1afc51d94c2efccaa2092ad1028285549",
                "label": "Binance 15"
            },
            {
                "address": "0x0000000000000000000000000000000000000001",
                "label": "Precompiled"
            },
            {
                "address": "0x0000000000000000000000000000000000000002",
                "label": "Precompiled"
            },
            {
                "address": "0x0000000000000000000000000000000000000003",
                "label": "Precompiled"
            },
            {
                "address": "0x0000000000000000000000000000000000000004",
                "label": "Precompiled"
            },
            {
                "address": "0xeeeeeeeeeeeeeeeeeeeeeeeeeeeeeeeeeeeeeeee",
                "label": "Ether"
            },
            {
                "address": "0x5732046a883704404f284ce41ffadd5b007fd668",
                "label": "Bluzelle (BLZ)"
            }
        ]
    },
    "trace": {
        "accountLabels": null,
        "dataMap": {
            "-1": {
                "invocation": {
                    "address": "0x21a31ee1afc51d94c2efccaa2092ad1028285549",
                    "callData": "",
                    "decodedMethod": null,
                    "errorInfo": "",
                    "fromAddress": "",
                    "gasUsed": 0,
                    "id": -1,
                    "methodDecoded": false,
                    "operation": "",
                    "output": "",
                    "revert": false,
                    "revertMessage": "",
                    "selector": "",
                    "status": false,
                    "value": ""
                },
                "nodeType": 0
            },
            "0": {
                "invocation": {
                    "address": "0x5732046a883704404f284ce41ffadd5b007fd668",
                    "callData": "0x0000000000000000000000007b3a747f681324e7c810c2a3ec65534e9498b4b700000000000000000000000000000000000000000000097b8756896448300000",
                    "decodedMethod": {
                        "callParams": [
                            {
                                "name": "_to",
                                "type": "address",
                                "value": "0x7b3a747f681324e7c810c2a3ec65534e9498b4b7"
                            },
                            {
                                "decimalAvailable": true,
                                "name": "_value",
                                "type": "uint256",
                                "value": "44,780,000,000,000,000,000,000"
                            }
                        ],
                        "constructorArguments": "",
                        "name": "transfer",
                        "returnParams": [
                            {
                                "name": "success",
                                "type": "bool",
                                "value": true
                            }
                        ],
                        "signature": "transfer(address,uint256)"
                    },
                    "errorInfo": "",
                    "fromAddress": "0x21a31ee1afc51d94c2efccaa2092ad1028285549",
                    "gasUsed": 54348,
                    "id": 0,
                    "methodDecoded": true,
                    "operation": "CALL",
                    "output": "0x0000000000000000000000000000000000000000000000000000000000000001",
                    "revert": false,
                    "revertMessage": "",
                    "selector": "0xa9059cbb",
                    "status": true,
                    "value": "0"
                },
                "nodeType": 0
            },
            "1": {
                "event": {
                    "contract": "0x5732046a883704404f284ce41ffadd5b007fd668",
                    "decodedLog": {
                        "name": "Transfer",
                        "params": [
                            {
                                "name": "_from",
                                "type": "address",
                                "value": "0x21a31ee1afc51d94c2efccaa2092ad1028285549"
                            },
                            {
                                "name": "_to",
                                "type": "address",
                                "value": "0x7b3a747f681324e7c810c2a3ec65534e9498b4b7"
                            },
                            {
                                "decimalAvailable": true,
                                "name": "_value",
                                "type": "uint256",
                                "value": "44,780,000,000,000,000,000,000"
                            }
                        ],
                        "signature": "Transfer(address,address,uint256)"
                    },
                    "id": 1,
                    "logData": "0x00000000000000000000000000000000000000000000097b8756896448300000",
                    "logDecoded": true,
                    "operation": "EVENT",
                    "revert": false,
                    "status": true,
                    "topics": [
                        "0xddf252ad1be2c89b69c2b068fc378daa952ba7f163c4a11628f55a4df523b3ef",
                        "0x00000000000000000000000021a31ee1afc51d94c2efccaa2092ad1028285549",
                        "0x0000000000000000000000007b3a747f681324e7c810c2a3ec65534e9498b4b7"
                    ]
                },
                "nodeType": 1
            }
        },
        "gasFlame": [
            {
                "children": [
                    {
                        "children": [
                            {
                                "children": [],
                                "depth": 0,
                                "name": "Initial Gas",
                                "value": 21656
                            },
                            {
                                "children": [],
                                "depth": 0,
                                "name": "Executed Gas",
                                "value": 32692
                            }
                        ],
                        "depth": -1,
                        "name": "Actual Gas Used",
                        "value": 54348
                    },
                    {
                        "children": [],
                        "depth": -1,
                        "name": "Refunded Gas",
                        "value": 0
                    }
                ],
                "depth": -2,
                "name": "Total Gas",
                "value": 54348
            }
        ],
        "isConfirmed": true,
        "mainTrace": [
            {
                "children": [
                    {
                        "children": [
                            {
                                "children": [],
                                "depth": 1,
                                "id": 1,
                                "order": 1
                            }
                        ],
                        "depth": 0,
                        "id": 0,
                        "order": 0
                    }
                ],
                "depth": -1,
                "id": -1,
                "order": -1
            }
        ],
        "mainTraceNodeCount": 2,
        "parentIdMap": {
            "0": -1,
            "1": 0
        },
        "tidyTrace": [
            {
                "children": [
                    {
                        "children": [
                            {
                                "children": [],
                                "depth": 1,
                                "id": 1,
                                "order": 1
                            }
                        ],
                        "depth": 0,
                        "id": 0,
                        "order": 0
                    }
                ],
                "depth": -1,
                "id": -1,
                "order": -1
            }
        ],
        "tidyTraceNodeCount": 2
    },
    "state_change": {
        "stateChanges": [
            {
                "address": "0x5732046a883704404f284ce41ffadd5b007fd668",
                "erc": "ERC-20",
                "slots": [
                    {
                        "current": "0x00000000000000000000000000000000000000000001a7a5716fca0681e48000",
                        "key": "0xfae78ce1be903f22f21774aeebdd6b154c659cd2f857724a7ab687e85b4e8aee",
                        "prev": "0x00000000000000000000000000000000000000000001b120f8c6536aca148000"
                    },
                    {
                        "current": "0x00000000000000000000000000000000000000000000097b8756896448300000",
                        "key": "0x130a9380e21f0f85a1a0ba46cf57c90a4dc1e1b1d3756f473357979094a5e2ea",
                        "prev": "0x0000000000000000000000000000000000000000000000000000000000000000"
                    }
                ],
                "storageVariables": [
                    {
                        "name": "balances",
                        "type": "mapping(address => uint256)",
                        "value": {
                            "pairs": [
                                {
                                    "key": "0x21a31ee1afc51d94c2efccaa2092ad1028285549",
                                    "value": {
                                        "current": "2000612909000000000000000",
                                        "prev": "2045392909000000000000000",
                                        "typeTag": 1
                                    }
                                },
                                {
                                    "key": "0x7b3a747f681324e7c810c2a3ec65534e9498b4b7",
                                    "value": {
                                        "current": "44780000000000000000000",
                                        "prev": "0",
                                        "typeTag": 1
                                    }
                                }
                            ],
                            "typeTag": 4
                        }
                    }
                ]
            }
        ]
    }
}