{
    "balance_change": {
        "balanceChanges": []
    },
    "profile": {
        "basic_info": {
            "baseFee": "",
            "blockNumber": 7760824,
            "callData": "0x8bf9d97900000000000000000000000000000000000000000000000000000000000000400000000000000000000000001f0e5574b591ddda6246cdf977ea4b4036886f86000000000000000000000000000000000000000000000000000000000000004186386c6b5b477d079af7d160e4551b3d23d9d006f5ca2bddddb6e7d2c7626df313fb31961fc97bd6898a8bbcb64a6f36aaf8f8c0afd07da7cd9c7d7576db9e4e0000000000000000000000000000000000000000000000000000000000000000",
            "debugEnable": true,
            "errorInfo": "",
            "eventCount": 1,
            "feeRecipient": "0x829bd824b016326a401d083b33d092293333a830",
            "formatValue": "0",
            "gasLimit": 100000,
            "gasPrice": "3",
            "gasUsed": 48222,
            "intTxnCount": 1,
            "internalRevert": false,
            "internalRevertMessage": "",
            "isContractCreation": false,
            "isFlashloan": false,
            "maxFee": "",
            "nonce": 76,
            "overwritedBlockNumber": -1,
            "priorityFee": "",
            "receiver": "0xfd0174784ebce943bdb8832ecdea9fea30e7c7a9",
            "revertMessage": "",
            "sender": "0x50d2fc8f906031693e8bad686ddfac859ae18ac3",
            "simulationEnable": true,
            "sourceTxnHash": "0x2a83baf32c8c74489e766c26355bad8b90bd8a22f6fbe65f769e0d9ffd8dae26",
            "status": true,
            "timestamp": "2019-05-14T21:12:09Z",
            "transactionFee": "0.000144666",
            "txnHash": "0x2a83baf32c8c74489e766c26355bad8b90bd8a22f6fbe65f769e0d9ffd8dae26",
            "txnIndex": 128,
            "type": 0,
            "value": "0"
        },
        "fund_flow": [],
        "token_infos": [
            {
                "address": "0xeeeeeeeeeeeeeeeeeeeeeeeeeeeeeeeeeeeeeeee",
                "decimals": 18
            },
            {
                "address": "0xc02aaa39b223fe8d0a0e5c4f27ead9083c756cc2",
                "decimals": 18
            }
        ]
    },
    "address_label": {
        "labels": [
            {
                "address": "0xfd0174784ebce943bdb8832ecdea9fea30e7c7a9",
                "label": "MCH: Daily Action 2"
            },
            {
                "address": "0x0000000000000000000000000000000000000001",
                "label": "Precompiled"
            },
            {
                "address": "0x0000000000000000000000000000000000000002",
                "label": "Precompiled"
            },
            {
                "address": "0x0000000000000000000000000000000000000003",
                "label": "Precompiled"
            },
            {
                "address": "0x0000000000000000000000000000000000000004",
                "label": "Precompiled"
            },
            {
                "address": "0xeeeeeeeeeeeeeeeeeeeeeeeeeeeeeeeeeeeeeeee",
                "label": "Ether"
            }
        ]
    },
    "trace": {
        "accountLabels": null,
        "dataMap": {
            "-1": {
                "invocation": {
                    "address": "0x50d2fc8f906031693e8bad686ddfac859ae18ac3",
                    "callData": "",
                    "decodedMethod": null,
                    "errorInfo": "",
                    "fromAddress": "",
                    "gasUsed": 0,
                    "id": -1,
                    "methodDecoded": false,
                    "operation": "",
                    "output": "",
                    "revert": false,
                    "revertMessage": "",
                    "selector": "",
                    "status": false,
                    "value": ""
                },
                "nodeType": 0
            },
            "0": {
                "invocation": {
                    "address": "0xfd0174784ebce943bdb8832ecdea9fea30e7c7a9",
                    "callData": "0x00000000000000000000000000000000000000000000000000000000000000400000000000000000000000001f0e5574b591ddda6246cdf977ea4b4036886f86000000000000000000000000000000000000000000000000000000000000004186386c6b5b477d079af7d160e4551b3d23d9d006f5ca2bddddb6e7d2c7626df313fb31961fc97bd6898a8bbcb64a6f36aaf8f8c0afd07da7cd9c7d7576db9e4e0000000000000000000000000000000000000000000000000000000000000000",
                    "decodedMethod": {
                        "callParams": [
                            {
                                "name": "_signature",
                                "type": "bytes",
                                "value": "0x86386c6b5b477d079af7d160e4551b3d23d9d006f5ca2bddddb6e7d2c7626df313fb31961fc97bd6898a8bbcb64a6f36aaf8f8c0afd07da7cd9c7d7576db9e4e00"
                            },
                            {
                                "name": "_referrer",
                                "type": "address",
                                "value": "0x1f0e5574b591ddda6246cdf977ea4b4036886f86"
                            }
                        ],
                        "constructorArguments": "",
                        "name": "requestDailyActionReward",
                        "returnParams": [],
                        "signature": "requestDailyActionReward(bytes,address)"
                    },
                    "errorInfo": "",
                    "fromAddress": "0x50d2fc8f906031693e8bad686ddfac859ae18ac3",
                    "gasUsed": 48222,
                    "id": 0,
                    "methodDecoded": true,
                    "operation": "CALL",
                    "output": "",
                    "revert": false,
                    "revertMessage": "",
                    "selector": "0x8bf9d979",
                    "status": true,
                    "value": "0"
                },
                "nodeType": 0
            },
            "1": {
                "invocation": {
                    "address": "0x0000000000000000000000000000000000000001",
                    "callData": "0xc7cc304e66341964e18ef555a0ad5e8bab46e1e59955ac548c5ac66c000000000000000000000000000000000000000000000000000000000000001b86386c6b5b477d079af7d160e4551b3d23d9d006f5ca2bddddb6e7d2c7626df313fb31961fc97bd6898a8bbcb64a6f36aaf8f8c0afd07da7cd9c7d7576db9e4e",
                    "decodedMethod": {
                        "callParams": [
                            {
                                "name": "hash",
                                "type": "bytes32",
                                "value": "0x58055912c7cc304e66341964e18ef555a0ad5e8bab46e1e59955ac548c5ac66c"
                            },
                            {
                                "name": "v",
                                "type": "uint256",
                                "value": "27"
                            },
                            {
                                "name": "r",
                                "type": "bytes32",
                                "value": "0x86386c6b5b477d079af7d160e4551b3d23d9d006f5ca2bddddb6e7d2c7626df3"
                            },
                            {
                                "name": "s",
                                "type": "bytes32",
                                "value": "0x13fb31961fc97bd6898a8bbcb64a6f36aaf8f8c0afd07da7cd9c7d7576db9e4e"
                            }
                        ],
                        "constructorArguments": "",
                        "name": "ecrecover",
                        "returnParams": [
                            {
                                "name": "",
                                "type": "address",
                                "value": "0x984e7b0f2cb06b847dd465eec65a3a41c1e27c06"
                            }
                        ],
                        "signature": "ecrecover(bytes32,uint256,bytes32,bytes32)"
                    },
                    "errorInfo": "",
                    "fromAddress": "0xfd0174784ebce943bdb8832ecdea9fea30e7c7a9",
                    "gasUsed": 3000,
                    "id": 1,
                    "methodDecoded": true,
                    "operation": "STATICCALL",
                    "output": "0x000000000000000000000000984e7b0f2cb06b847dd465eec65a3a41c1e27c06",
                    "revert": false,
                    "revertMessage": "",
                    "selector": "0x58055912",
                    "status": true,
                    "value": "0"
                },
                "nodeType": 0
            },
            "2": {
                "event": {
                    "contract": "0xfd0174784ebce943bdb8832ecdea9fea30e7c7a9",
                    "decodedLog": {
                        "name": "Action",
                        "params": [
                            {
                                "name": "user",
                                "type": "address",
                                "value": "0x50d2fc8f906031693e8bad686ddfac859ae18ac3"
                            },
                            {
                                "name": "referrer",
                                "type": "address",
                                "value": "0x1f0e5574b591ddda6246cdf977ea4b4036886f86"
                            },
                            {
                                "name": "at",
                                "type": "uint256",
                                "value": "1,557,868,329"
                            }
                        ],
                        "signature": "Action(address,address,uint256)"
                    },
                    "id": 2,
                    "logData": "0x000000000000000000000000000000000000000000000000000000005cdb2f29",
                    "logDecoded": true,
                    "operation": "EVENT",
                    "revert": false,
                    "status": true,
                    "topics": [
                        "0x03bee8945a564e58a4243604a426d1168e3654790c5ad819fd04206500e60b36",
                        "0x00000000000000000000000050d2fc8f906031693e8bad686ddfac859ae18ac3",
                        "0x0000000000000000000000001f0e5574b591ddda6246cdf977ea4b4036886f86"
                    ]
                },
                "nodeType": 1
            }
        },
        "gasFlame": [
            {
                "children": [
                    {
                        "children": [
                            {
                                "children": [],
                                "depth": 0,
                                "name": "Initial Gas",
                                "value": 27544
                            },
                            {
                                "children": [
                                    {
                                        "children": [],
                                        "depth": 1,
                                        "name": "ecrecover",
                                        "value": 3000
                                    }
                                ],
                                "depth": 0,
                                "name": "Executed Gas",
                                "value": 20678
                            }
                        ],
                        "depth": -1,
                        "name": "Actual Gas Used",
                        "value": 48222
                    },
                    {
                        "children": [],
                        "depth": -1,
                        "name": "Refunded Gas",
                        "value": 0
                    }
                ],
                "depth": -2,
                "name": "Total Gas",
                "value": 48222
            }
        ],
        "isConfirmed": true,
        "mainTrace": [
            {
                "children": [
                    {
                        "children": [
                            {
                                "children": [],
                                "depth": 1,
                                "id": 1,
                                "order": 1
                            },
                            {
                                "children": [],
                                "depth": 1,
                                "id": 2,
                                "order": 2
                            }
                        ],
                        "depth": 0,
                        "id": 0,
                        "order": 0
                    }
                ],
                "depth": -1,
                "id": -1,
                "order": -1
            }
        ],
        "mainTraceNodeCount": 3,
        "parentIdMap": {
            "0": -1,
            "1": 0,
            "2": 0
        },
        "tidyTrace": [
            {
                "children": [
                    {
                        "children": [
                            {
                                "children": [],
                                "depth": 1,
                                "id": 2,
                                "order": 2
                            }
                        ],
                        "depth": 0,
                        "id": 0,
                        "order": 0
                    }
                ],
                "depth": -1,
                "id": -1,
                "order": -1
            }
        ],
        "tidyTraceNodeCount": 2
    },
    "state_change": {
        "stateChanges": [
            {
                "address": "0xfd0174784ebce943bdb8832ecdea9fea30e7c7a9",
                "erc": "",
                "slots": [
                    {
                        "current": "0x000000000000000000000000000000000000000000000000000000000000003c",
                        "key": "0x6e5f0d4f9b0437559ab32cdc61ef9e8f91306f1112027e8f1ba8bfda1fe44041",
                        "prev": "0x000000000000000000000000000000000000000000000000000000000000003b"
                    },
                    {
                        "current": "0x000000000000000000000000000000000000000000000000000000005cdb2f29",
                        "key": "0x9dd5855c7c32819a1ab4c54a38882e7e17518bdba22eee43ca336fbda86acb25",
                        "prev": "0x000000000000000000000000000000000000000000000000000000005cd9dfdb"
                    }
                ],
                "storageVariables": [
                    {
                        "name": "latestActionTime",
                        "type": "mapping(address => uint256)",
                        "value": {
                            "pairs": [
                                {
                                    "key": "0x50d2fc8f906031693e8bad686ddfac859ae18ac3",
                                    "value": {
                                        "current": "1557868329",
                                        "prev": "1557782491",
                                        "typeTag": 1
                                    }
                                }
                            ],
                            "typeTag": 4
                        }
                    },
                    {
                        "name": "counter",
                        "type": "mapping(address => mapping(address => uint256))",
                        "value": {
                            "pairs": [
                                {
                                    "key": "0x984e7b0f2cb06b847dd465eec65a3a41c1e27c06",
                                    "value": {
                                        "pairs": [
                                            {
                                                "key": "0x50d2fc8f906031693e8bad686ddfac859ae18ac3",
                                                "value": {
                                                    "current": "60",
                                                    "prev": "59",
                                                    "typeTag": 1
                                                }
                                            }
                                        ],
                                        "typeTag": 4
                                    }
                                }
                            ],
                            "typeTag": 4
                        }
                    }
                ]
            }
        ]
    }
}