{
    "balance_change": {
        "balanceChanges": [
            {
                "account": "0x224e9a55765f52ac07cad18cad2b73e456a7dcf9",
                "assets": [
                    {
                        "address": "0x219218f117dc9348b358b8471c55a073e5e0da0b",
                        "amount": "500",
                        "iconUrl": "",
                        "isERC1155": false,
                        "isERC721": false,
                        "sign": false,
                        "value": ""
                    }
                ]
            },
            {
                "account": "0x972e6326aa4239b78b9e130c9dc9de001ab6d5a6",
                "assets": [
                    {
                        "address": "0x219218f117dc9348b358b8471c55a073e5e0da0b",
                        "amount": "500",
                        "iconUrl": "",
                        "isERC1155": false,
                        "isERC721": false,
                        "sign": true,
                        "value": ""
                    }
                ]
            }
        ]
    },
    "profile": {
        "basic_info": {
            "baseFee": "",
            "blockNumber": 4371057,
            "callData": "0xa9059cbb000000000000000000000000972e6326aa4239b78b9e130c9dc9de001ab6d5a600000000000000000000000000000000000000000000001b1ae4d6e2ef500000",
            "debugEnable": true,
            "errorInfo": "",
            "eventCount": 1,
            "feeRecipient": "0xea674fdde714fd979de3edf0f56aa9716b898ec8",
            "formatValue": "0",
            "gasLimit": 100532,
            "gasPrice": "20",
            "gasUsed": 54216,
            "intTxnCount": 0,
            "internalRevert": false,
            "internalRevertMessage": "",
            "isContractCreation": false,
            "isFlashloan": false,
            "maxFee": "",
            "nonce": 6105,
            "overwritedBlockNumber": -1,
            "priorityFee": "",
            "receiver": "0x219218f117dc9348b358b8471c55a073e5e0da0b",
            "revertMessage": "",
            "sender": "0x224e9a55765f52ac07cad18cad2b73e456a7dcf9",
            "simulationEnable": true,
            "sourceTxnHash": "0x2a2a41d6723f93ee287b0aca7c30a96b6d54d8cc2ecc75a33a4c203ecdfafc38",
            "status": true,
            "timestamp": "2017-10-16T12:00:14Z",
            "transactionFee": "0.00108432",
            "txnHash": "0x2a2a41d6723f93ee287b0aca7c30a96b6d54d8cc2ecc75a33a4c203ecdfafc38",
            "txnIndex": 57,
            "type": 0,
            "value": "0"
        },
        "fund_flow": [
            {
                "amount": "500",
                "from": "0x224e9a55765f52ac07cad18cad2b73e456a7dcf9",
                "id": 1,
                "isERC1155": false,
                "isERC721": false,
                "isReverted": false,
                "order": 1,
                "to": "0x972e6326aa4239b78b9e130c9dc9de001ab6d5a6",
                "token": "0x219218f117dc9348b358b8471c55a073e5e0da0b"
            }
        ],
        "token_infos": [
            {
                "address": "0x219218f117dc9348b358b8471c55a073e5e0da0b",
                "decimals": 18
            },
            {
                "address": "0xc02aaa39b223fe8d0a0e5c4f27ead9083c756cc2",
                "decimals": 18
            },
            {
                "address": "0xeeeeeeeeeeeeeeeeeeeeeeeeeeeeeeeeeeeeeeee",
                "decimals": 18
            }
        ]
    },
    "address_label": {
        "labels": [
            {
                "address": "0x0000000000000000000000000000000000000003",
                "label": "Precompiled"
            },
            {
                "address": "0x0000000000000000000000000000000000000004",
                "label": "Precompiled"
            },
            {
                "address": "0xeeeeeeeeeeeeeeeeeeeeeeeeeeeeeeeeeeeeeeee",
                "label": "Ether"
            },
            {
                "address": "0x219218f117dc9348b358b8471c55a073e5e0da0b",
                "label": "GoldRewardToken"
            },
            {
                "address": "0x0000000000000000000000000000000000000001",
                "label": "Precompiled"
            },
            {
                "address": "0x0000000000000000000000000000000000000002",
                "label": "Precompiled"
            }
        ]
    },
    "trace": {
        "accountLabels": null,
        "dataMap": {
            "-1": {
                "invocation": {
                    "address": "0x224e9a55765f52ac07cad18cad2b73e456a7dcf9",
                    "callData": "",
                    "decodedMethod": null,
                    "errorInfo": "",
                    "fromAddress": "",
                    "gasUsed": 0,
                    "id": -1,
                    "methodDecoded": false,
                    "operation": "",
                    "output": "",
                    "revert": false,
                    "revertMessage": "",
                    "selector": "",
                    "status": false,
                    "value": ""
                },
                "nodeType": 0
            },
            "0": {
                "invocation": {
                    "address": "0x219218f117dc9348b358b8471c55a073e5e0da0b",
                    "callData": "0x000000000000000000000000972e6326aa4239b78b9e130c9dc9de001ab6d5a600000000000000000000000000000000000000000000001b1ae4d6e2ef500000",
                    "decodedMethod": {
                        "callParams": [
                            {
                                "name": "_to",
                                "type": "address",
                                "value": "0x972e6326aa4239b78b9e130c9dc9de001ab6d5a6"
                            },
                            {
                                "decimalAvailable": true,
                                "name": "_value",
                                "type": "uint256",
                                "value": "500,000,000,000,000,000,000"
                            }
                        ],
                        "constructorArguments": "",
                        "name": "transfer",
                        "returnParams": [],
                        "signature": "transfer(address,uint256)"
                    },
                    "errorInfo": "",
                    "fromAddress": "0x224e9a55765f52ac07cad18cad2b73e456a7dcf9",
                    "gasUsed": 54216,
                    "id": 0,
                    "methodDecoded": true,
                    "operation": "CALL",
                    "output": "",
                    "revert": false,
                    "revertMessage": "",
                    "selector": "0xa9059cbb",
                    "status": true,
                    "value": "0"
                },
                "nodeType": 0
            },
            "1": {
                "event": {
                    "contract": "0x219218f117dc9348b358b8471c55a073e5e0da0b",
                    "decodedLog": {
                        "name": "Transfer",
                        "params": [
                            {
                                "name": "from",
                                "type": "address",
                                "value": "0x224e9a55765f52ac07cad18cad2b73e456a7dcf9"
                            },
                            {
                                "name": "to",
                                "type": "address",
                                "value": "0x972e6326aa4239b78b9e130c9dc9de001ab6d5a6"
                            },
                            {
                                "decimalAvailable": true,
                                "name": "value",
                                "type": "uint256",
                                "value": "500,000,000,000,000,000,000"
                            }
                        ],
                        "signature": "Transfer(address,address,uint256)"
                    },
                    "id": 1,
                    "logData": "0x00000000000000000000000000000000000000000000001b1ae4d6e2ef500000",
                    "logDecoded": true,
                    "operation": "EVENT",
                    "revert": false,
                    "status": true,
                    "topics": [
                        "0xddf252ad1be2c89b69c2b068fc378daa952ba7f163c4a11628f55a4df523b3ef",
                        "0x000000000000000000000000224e9a55765f52ac07cad18cad2b73e456a7dcf9",
                        "0x000000000000000000000000972e6326aa4239b78b9e130c9dc9de001ab6d5a6"
                    ]
                },
                "nodeType": 1
            }
        },
        "gasFlame": [
            {
                "children": [
                    {
                        "children": [
                            {
                                "children": [],
                                "depth": 0,
                                "name": "Initial Gas",
                                "value": 23192
                            },
                            {
                                "children": [],
                                "depth": 0,
                                "name": "Executed Gas",
                                "value": 31024
                            }
                        ],
                        "depth": -1,
                        "name": "Actual Gas Used",
                        "value": 54216
                    },
                    {
                        "children": [],
                        "depth": -1,
                        "name": "Refunded Gas",
                        "value": 0
                    }
                ],
                "depth": -2,
                "name": "Total Gas",
                "value": 54216
            }
        ],
        "isConfirmed": true,
        "mainTrace": [
            {
                "children": [
                    {
                        "children": [
                            {
                                "children": [],
                                "depth": 1,
                                "id": 1,
                                "order": 1
                            }
                        ],
                        "depth": 0,
                        "id": 0,
                        "order": 0
                    }
                ],
                "depth": -1,
                "id": -1,
                "order": -1
            }
        ],
        "mainTraceNodeCount": 2,
        "parentIdMap": {
            "0": -1,
            "1": 0
        },
        "tidyTrace": [
            {
                "children": [
                    {
                        "children": [
                            {
                                "children": [],
                                "depth": 1,
                                "id": 1,
                                "order": 1
                            }
                        ],
                        "depth": 0,
                        "id": 0,
                        "order": 0
                    }
                ],
                "depth": -1,
                "id": -1,
                "order": -1
            }
        ],
        "tidyTraceNodeCount": 2
    },
    "state_change": {
        "stateChanges": [
            {
                "address": "0x219218f117dc9348b358b8471c55a073e5e0da0b",
                "erc": "",
                "slots": [
                    {
                        "current": "0x00000000000000000000000000000000000000000000001b1ae4d6e2ef500000",
                        "key": "0xaf148416cfeeb6100a46d9aa1d63393ffff69bf7c33cedf110ea24db58327adb",
                        "prev": "0x0000000000000000000000000000000000000000000000000000000000000000"
                    },
                    {
                        "current": "0x00000000000000000000000000000000000000000001dac4419499f8ffa2cca0",
                        "key": "0xf142297c31879e89eb48775c903d8345f2b069ec991d823282b9fc9ded8a84dd",
                        "prev": "0x00000000000000000000000000000000000000000001dadf5c7970dbeef2cca0"
                    }
                ],
                "storageVariables": [
                    {
                        "name": "balanceOf",
                        "type": "mapping(address => uint256)",
                        "value": {
                            "pairs": [
                                {
                                    "key": "0x224e9a55765f52ac07cad18cad2b73e456a7dcf9",
                                    "value": {
                                        "current": "2242022000289862641700000",
                                        "prev": "2242522000289862641700000",
                                        "typeTag": 1
                                    }
                                },
                                {
                                    "key": "0x972e6326aa4239b78b9e130c9dc9de001ab6d5a6",
                                    "value": {
                                        "current": "500000000000000000000",
                                        "prev": "0",
                                        "typeTag": 1
                                    }
                                }
                            ],
                            "typeTag": 4
                        }
                    }
                ]
            }
        ]
    }
}