{
    "balance_change": {
        "balanceChanges": [
            {
                "account": "0xa7062bba94c91d565ae33b893ab5dfaf1fc57c4d",
                "assets": [
                    {
                        "address": "0xa0b86991c6218b36c1d19d4a2e9eb0ce3606eb48",
                        "amount": "65.551525",
                        "iconUrl": "https://assets.blocksec.com/icon/0347a86cc07dbd03fdc5db01a4e5ac7e1217f90e0b6e4bb0f75cbcca09160989.png",
                        "isERC1155": false,
                        "isERC721": false,
                        "sign": false,
                        "value": "65.551525"
                    }
                ]
            },
            {
                "account": "0xa8c2af35e412bab7a486572e6470af1ea4bccb41",
                "assets": [
                    {
                        "address": "0xa0b86991c6218b36c1d19d4a2e9eb0ce3606eb48",
                        "amount": "65.551525",
                        "iconUrl": "https://assets.blocksec.com/icon/0347a86cc07dbd03fdc5db01a4e5ac7e1217f90e0b6e4bb0f75cbcca09160989.png",
                        "isERC1155": false,
                        "isERC721": false,
                        "sign": true,
                        "value": "65.551525"
                    }
                ]
            }
        ]
    },
    "profile": {
        "basic_info": {
            "baseFee": "1.447948216",
            "blockNumber": 20295107,
            "callData": "0xe43bfe5e000000000000000000000000000000000000000000000000000000000000ff9e000000000000000000000000a8c2af35e412bab7a486572e6470af1ea4bccb410000000000000000000000000000000000000000000000000000000000000004000000000000000000000000a0b86991c6218b36c1d19d4a2e9eb0ce3606eb482b6a4e724730bdbd28e6285bf921ad4f169b0118aa651125597c49e81b202c6900000000000000000000000000000000000000000000000000000000000000010000000000000000000000000000000000000000000000000000000003de3c0a",
            "debugEnable": true,
            "errorInfo": "",
            "eventCount": 3,
            "feeRecipient": "0x95222290dd7278aa3ddd389cc1e1d165cc4bafe5",
            "formatValue": "0",
            "gasLimit": 165285,
            "gasPrice": "2.447948216",
            "gasUsed": 162825,
            "intTxnCount": 7,
            "internalRevert": false,
            "internalRevertMessage": "",
            "isContractCreation": false,
            "isFlashloan": false,
            "maxFee": "2.891335882",
            "nonce": 68836,
            "overwritedBlockNumber": -1,
            "priorityFee": "1",
            "receiver": "0x609c690e8f7d68a59885c9132e812eebdaaf0c9e",
            "revertMessage": "",
            "sender": "0x1eaca1277bcdfa83e60658d8938b3d63cd3e63c1",
            "simulationEnable": true,
            "sourceTxnHash": "0x2aadeb01d6838f3d520b7084151f7a9953bb5f877d2ca5cf9095cf1792ba867c",
            "status": true,
            "timestamp": "2024-07-13T04:09:47Z",
            "transactionFee": "0.0003985871682702",
            "txnHash": "0x2aadeb01d6838f3d520b7084151f7a9953bb5f877d2ca5cf9095cf1792ba867c",
            "txnIndex": 19,
            "type": 2,
            "value": "0"
        },
        "fund_flow": [
            {
                "amount": "65.551525",
                "from": "0xa7062bba94c91d565ae33b893ab5dfaf1fc57c4d",
                "id": 1,
                "isERC1155": false,
                "isERC721": false,
                "isReverted": false,
                "order": 1,
                "to": "0xa8c2af35e412bab7a486572e6470af1ea4bccb41",
                "token": "0xa0b86991c6218b36c1d19d4a2e9eb0ce3606eb48"
            }
        ],
        "token_infos": [
            {
                "address": "0xa0b86991c6218b36c1d19d4a2e9eb0ce3606eb48",
                "decimals": 6
            },
            {
                "address": "0xc02aaa39b223fe8d0a0e5c4f27ead9083c756cc2",
                "decimals": 18
            },
            {
                "address": "0xeeeeeeeeeeeeeeeeeeeeeeeeeeeeeeeeeeeeeeee",
                "decimals": 18
            }
        ]
    },
    "address_label": {
        "labels": [
            {
                "address": "0xeeeeeeeeeeeeeeeeeeeeeeeeeeeeeeeeeeeeeeee",
                "label": "Ether"
            },
            {
                "address": "0x203e8785b4d4312c4152d0c42ba3fa8bd79086da",
                "label": "Messenger"
            },
            {
                "address": "0x43506849d7c04f9138d1a2050bbf3a0c054402dd",
                "label": "FiatTokenV2_2"
            },
            {
                "address": "0x0000000000000000000000000000000000000003",
                "label": "Precompiled"
            },
            {
                "address": "0x1eaca1277bcdfa83e60658d8938b3d63cd3e63c1",
                "label": "Allbridge: Executor"
            },
            {
                "address": "0x609c690e8f7d68a59885c9132e812eebdaaf0c9e",
                "label": "Bridge"
            },
            {
                "address": "0xa7062bba94c91d565ae33b893ab5dfaf1fc57c4d",
                "label": "Allbridge LP (LP-USDC)"
            },
            {
                "address": "0xa0b86991c6218b36c1d19d4a2e9eb0ce3606eb48",
                "label": "Circle: USDC Token"
            },
            {
                "address": "0x0000000000000000000000000000000000000001",
                "label": "Precompiled"
            },
            {
                "address": "0x0000000000000000000000000000000000000002",
                "label": "Precompiled"
            },
            {
                "address": "0x0000000000000000000000000000000000000004",
                "label": "Precompiled"
            }
        ]
    },
    "trace": {
        "accountLabels": null,
        "dataMap": {
            "-1": {
                "invocation": {
                    "address": "0x1eaca1277bcdfa83e60658d8938b3d63cd3e63c1",
                    "callData": "",
                    "decodedMethod": null,
                    "errorInfo": "",
                    "fromAddress": "",
                    "gasUsed": 0,
                    "id": -1,
                    "methodDecoded": false,
                    "operation": "",
                    "output": "",
                    "revert": false,
                    "revertMessage": "",
                    "selector": "",
                    "status": false,
                    "value": ""
                },
                "nodeType": 0
            },
            "0": {
                "invocation": {
                    "address": "0x609c690e8f7d68a59885c9132e812eebdaaf0c9e",
                    "callData": "0x000000000000000000000000000000000000000000000000000000000000ff9e000000000000000000000000a8c2af35e412bab7a486572e6470af1ea4bccb410000000000000000000000000000000000000000000000000000000000000004000000000000000000000000a0b86991c6218b36c1d19d4a2e9eb0ce3606eb482b6a4e724730bdbd28e6285bf921ad4f169b0118aa651125597c49e81b202c6900000000000000000000000000000000000000000000000000000000000000010000000000000000000000000000000000000000000000000000000003de3c0a",
                    "decodedMethod": {
                        "callParams": [
                            {
                                "name": "amount",
                                "type": "uint256",
                                "value": "65,438"
                            },
                            {
                                "name": "recipient",
                                "type": "bytes32",
                                "value": "0x000000000000000000000000a8c2af35e412bab7a486572e6470af1ea4bccb41"
                            },
                            {
                                "name": "sourceChainId",
                                "type": "uint256",
                                "value": "4"
                            },
                            {
                                "name": "receiveToken",
                                "type": "bytes32",
                                "value": "0x000000000000000000000000a0b86991c6218b36c1d19d4a2e9eb0ce3606eb48"
                            },
                            {
                                "name": "nonce",
                                "type": "uint256",
                                "value": "19,637,279,695,093,156,819,957,974,461,306,376,315,771,586,253,383,080,037,270,919,705,595,312,352,361"
                            },
                            {
                                "name": "messenger",
                                "type": "uint8",
                                "value": "1"
                            },
                            {
                                "name": "receiveAmountMin",
                                "type": "uint256",
                                "value": "64,896,010"
                            }
                        ],
                        "constructorArguments": "",
                        "name": "receiveTokens",
                        "returnParams": [],
                        "signature": "receiveTokens(uint256,bytes32,uint256,bytes32,uint256,uint8,uint256)"
                    },
                    "errorInfo": "",
                    "fromAddress": "0x1eaca1277bcdfa83e60658d8938b3d63cd3e63c1",
                    "gasUsed": 162825,
                    "id": 0,
                    "methodDecoded": true,
                    "operation": "CALL",
                    "output": "",
                    "revert": false,
                    "revertMessage": "",
                    "selector": "0xe43bfe5e",
                    "status": true,
                    "value": "0"
                },
                "nodeType": 0
            },
            "1": {
                "invocation": {
                    "address": "0x609c690e8f7d68a59885c9132e812eebdaaf0c9e",
                    "callData": "0x000000000000000000000000000000000000000000000000000000000000ff9e000000000000000000000000a8c2af35e412bab7a486572e6470af1ea4bccb4100000000000000000000000000000000000000000000000000000000000000040000000000000000000000000000000000000000000000000000000000000001000000000000000000000000a0b86991c6218b36c1d19d4a2e9eb0ce3606eb482b6a4e724730bdbd28e6285bf921ad4f169b0118aa651125597c49e81b202c690000000000000000000000000000000000000000000000000000000000000001",
                    "decodedMethod": {
                        "callParams": [
                            {
                                "name": "amount",
                                "type": "uint256",
                                "value": "65,438"
                            },
                            {
                                "name": "recipient",
                                "type": "bytes32",
                                "value": "0x000000000000000000000000a8c2af35e412bab7a486572e6470af1ea4bccb41"
                            },
                            {
                                "name": "sourceChainId",
                                "type": "uint256",
                                "value": "4"
                            },
                            {
                                "name": "destinationChainId",
                                "type": "uint256",
                                "value": "1"
                            },
                            {
                                "name": "receiveToken",
                                "type": "bytes32",
                                "value": "0x000000000000000000000000a0b86991c6218b36c1d19d4a2e9eb0ce3606eb48"
                            },
                            {
                                "name": "nonce",
                                "type": "uint256",
                                "value": "19,637,279,695,093,156,819,957,974,461,306,376,315,771,586,253,383,080,037,270,919,705,595,312,352,361"
                            },
                            {
                                "name": "messenger",
                                "type": "uint8",
                                "value": "1"
                            }
                        ],
                        "constructorArguments": "",
                        "name": "hashMessage",
                        "returnParams": [
                            {
                                "name": "",
                                "type": "bytes32",
                                "value": "0x0401e0bae515b94c3e63752e22e7fcbbc0db1599583490266e9071331ba56434"
                            }
                        ],
                        "signature": "hashMessage(uint256,bytes32,uint256,uint256,bytes32,uint256,uint8)"
                    },
                    "errorInfo": "",
                    "fromAddress": "0x609c690e8f7d68a59885c9132e812eebdaaf0c9e",
                    "gasUsed": 1036,
                    "id": 1,
                    "methodDecoded": true,
                    "operation": "STATICCALL",
                    "output": "0x0401e0bae515b94c3e63752e22e7fcbbc0db1599583490266e9071331ba56434",
                    "revert": false,
                    "revertMessage": "",
                    "selector": "0x2ed1084b",
                    "status": true,
                    "value": "0"
                },
                "nodeType": 0
            },
            "10": {
                "event": {
                    "contract": "0x609c690e8f7d68a59885c9132e812eebdaaf0c9e",
                    "decodedLog": {
                        "name": "TokensReceived",
                        "params": [
                            {
                                "name": "amount",
                                "type": "uint256",
                                "value": "65,551,525"
                            },
                            {
                                "name": "recipient",
                                "type": "bytes32",
                                "value": "0x000000000000000000000000a8c2af35e412bab7a486572e6470af1ea4bccb41"
                            },
                            {
                                "name": "nonce",
                                "type": "uint256",
                                "value": "19,637,279,695,093,156,819,957,974,461,306,376,315,771,586,253,383,080,037,270,919,705,595,312,352,361"
                            },
                            {
                                "name": "messenger",
                                "type": "uint8",
                                "value": "1"
                            },
                            {
                                "name": "message",
                                "type": "bytes32",
                                "value": "0x04018037604e93772bbe86aedb21cfe5908cacccc0d9160766763bcd341b29ef"
                            }
                        ],
                        "signature": "TokensReceived(uint256,bytes32,uint256,uint8,bytes32)"
                    },
                    "id": 10,
                    "logData": "0x0000000000000000000000000000000000000000000000000000000003e83ca5000000000000000000000000a8c2af35e412bab7a486572e6470af1ea4bccb412b6a4e724730bdbd28e6285bf921ad4f169b0118aa651125597c49e81b202c69000000000000000000000000000000000000000000000000000000000000000104018037604e93772bbe86aedb21cfe5908cacccc0d9160766763bcd341b29ef",
                    "logDecoded": true,
                    "operation": "EVENT",
                    "revert": false,
                    "status": true,
                    "topics": [
                        "0xe9d840d27ab4032a839c20760fb995af8e3ad1980b9428980ca1c7e072acd87a"
                    ]
                },
                "nodeType": 1
            },
            "2": {
                "invocation": {
                    "address": "0x609c690e8f7d68a59885c9132e812eebdaaf0c9e",
                    "callData": "0x04018037604e93772bbe86aedb21cfe5908cacccc0d9160766763bcd341b29ef0000000000000000000000000000000000000000000000000000000000000001",
                    "decodedMethod": {
                        "callParams": [
                            {
                                "name": "message",
                                "type": "bytes32",
                                "value": "0x04018037604e93772bbe86aedb21cfe5908cacccc0d9160766763bcd341b29ef"
                            },
                            {
                                "name": "protocol",
                                "type": "uint8",
                                "value": "1"
                            }
                        ],
                        "constructorArguments": "",
                        "name": "hasReceivedMessage",
                        "returnParams": [
                            {
                                "name": "",
                                "type": "bool",
                                "value": true
                            }
                        ],
                        "signature": "hasReceivedMessage(bytes32,uint8)"
                    },
                    "errorInfo": "",
                    "fromAddress": "0x609c690e8f7d68a59885c9132e812eebdaaf0c9e",
                    "gasUsed": 7988,
                    "id": 2,
                    "methodDecoded": true,
                    "operation": "STATICCALL",
                    "output": "0x0000000000000000000000000000000000000000000000000000000000000001",
                    "revert": false,
                    "revertMessage": "",
                    "selector": "0xe4ce6160",
                    "status": true,
                    "value": "0"
                },
                "nodeType": 0
            },
            "3": {
                "invocation": {
                    "address": "0x203e8785b4d4312c4152d0c42ba3fa8bd79086da",
                    "callData": "0x04018037604e93772bbe86aedb21cfe5908cacccc0d9160766763bcd341b29ef",
                    "decodedMethod": {
                        "callParams": [
                            {
                                "name": "messageHash",
                                "type": "bytes32",
                                "value": "0x04018037604e93772bbe86aedb21cfe5908cacccc0d9160766763bcd341b29ef"
                            }
                        ],
                        "constructorArguments": "",
                        "name": "receivedMessages",
                        "returnParams": [
                            {
                                "name": "isReceived",
                                "type": "uint256",
                                "value": "1"
                            }
                        ],
                        "signature": "receivedMessages(bytes32)"
                    },
                    "errorInfo": "",
                    "fromAddress": "0x609c690e8f7d68a59885c9132e812eebdaaf0c9e",
                    "gasUsed": 2493,
                    "id": 3,
                    "methodDecoded": true,
                    "operation": "STATICCALL",
                    "output": "0x0000000000000000000000000000000000000000000000000000000000000001",
                    "revert": false,
                    "revertMessage": "",
                    "selector": "0xf69f8151",
                    "status": true,
                    "value": "0"
                },
                "nodeType": 0
            },
            "4": {
                "invocation": {
                    "address": "0xa7062bba94c91d565ae33b893ab5dfaf1fc57c4d",
                    "callData": "0x000000000000000000000000a8c2af35e412bab7a486572e6470af1ea4bccb41000000000000000000000000000000000000000000000000000000000000ff9e0000000000000000000000000000000000000000000000000000000003de3c0a0000000000000000000000000000000000000000000000000000000000000000",
                    "decodedMethod": {
                        "callParams": [
                            {
                                "name": "user",
                                "type": "address",
                                "value": "0xa8c2af35e412bab7a486572e6470af1ea4bccb41"
                            },
                            {
                                "name": "amount",
                                "type": "uint256",
                                "value": "65,438"
                            },
                            {
                                "name": "receiveAmountMin",
                                "type": "uint256",
                                "value": "64,896,010"
                            },
                            {
                                "name": "zeroFee",
                                "type": "bool",
                                "value": false
                            }
                        ],
                        "constructorArguments": "",
                        "name": "swapFromVUsd",
                        "returnParams": [
                            {
                                "name": "",
                                "type": "uint256",
                                "value": "65,551,525"
                            }
                        ],
                        "signature": "swapFromVUsd(address,uint256,uint256,bool)"
                    },
                    "errorInfo": "",
                    "fromAddress": "0x609c690e8f7d68a59885c9132e812eebdaaf0c9e",
                    "gasUsed": 94772,
                    "id": 4,
                    "methodDecoded": true,
                    "operation": "CALL",
                    "output": "0x0000000000000000000000000000000000000000000000000000000003e83ca5",
                    "revert": false,
                    "revertMessage": "",
                    "selector": "0x2d46f63e",
                    "status": true,
                    "value": "0"
                },
                "nodeType": 0
            },
            "5": {
                "invocation": {
                    "address": "0xa7062bba94c91d565ae33b893ab5dfaf1fc57c4d",
                    "callData": "0x00000000000000000000000000000000000000000000000000000000dfe915a6",
                    "decodedMethod": {
                        "callParams": [
                            {
                                "name": "x",
                                "type": "uint256",
                                "value": "3,756,594,598"
                            }
                        ],
                        "constructorArguments": "",
                        "name": "getY",
                        "returnParams": [
                            {
                                "name": "",
                                "type": "uint256",
                                "value": "4,286,140,559"
                            }
                        ],
                        "signature": "getY(uint256)"
                    },
                    "errorInfo": "",
                    "fromAddress": "0xa7062bba94c91d565ae33b893ab5dfaf1fc57c4d",
                    "gasUsed": 11148,
                    "id": 5,
                    "methodDecoded": true,
                    "operation": "STATICCALL",
                    "output": "0x00000000000000000000000000000000000000000000000000000000ff79508f",
                    "revert": false,
                    "revertMessage": "",
                    "selector": "0x845a4697",
                    "status": true,
                    "value": "0"
                },
                "nodeType": 0
            },
            "6": {
                "invocation": {
                    "address": "0xa0b86991c6218b36c1d19d4a2e9eb0ce3606eb48",
                    "callData": "0x000000000000000000000000a8c2af35e412bab7a486572e6470af1ea4bccb410000000000000000000000000000000000000000000000000000000003e83ca5",
                    "decodedMethod": {
                        "callParams": [
                            {
                                "name": "to",
                                "type": "address",
                                "value": "0xa8c2af35e412bab7a486572e6470af1ea4bccb41"
                            },
                            {
                                "decimalAvailable": true,
                                "name": "value",
                                "type": "uint256",
                                "value": "65,551,525"
                            }
                        ],
                        "constructorArguments": "",
                        "name": "transfer",
                        "returnParams": [
                            {
                                "name": "",
                                "type": "bool",
                                "value": true
                            }
                        ],
                        "signature": "transfer(address,uint256)"
                    },
                    "errorInfo": "",
                    "fromAddress": "0xa7062bba94c91d565ae33b893ab5dfaf1fc57c4d",
                    "gasUsed": 40652,
                    "id": 6,
                    "methodDecoded": true,
                    "operation": "CALL",
                    "output": "0x0000000000000000000000000000000000000000000000000000000000000001",
                    "revert": false,
                    "revertMessage": "",
                    "selector": "0xa9059cbb",
                    "status": true,
                    "value": "0"
                },
                "nodeType": 0
            },
            "7": {
                "invocation": {
                    "address": "0x43506849d7c04f9138d1a2050bbf3a0c054402dd",
                    "callData": "0x000000000000000000000000a8c2af35e412bab7a486572e6470af1ea4bccb410000000000000000000000000000000000000000000000000000000003e83ca5",
                    "decodedMethod": {
                        "callParams": [
                            {
                                "name": "to",
                                "type": "address",
                                "value": "0xa8c2af35e412bab7a486572e6470af1ea4bccb41"
                            },
                            {
                                "decimalAvailable": true,
                                "name": "value",
                                "type": "uint256",
                                "value": "65,551,525"
                            }
                        ],
                        "constructorArguments": "",
                        "name": "transfer",
                        "returnParams": [
                            {
                                "name": "",
                                "type": "bool",
                                "value": true
                            }
                        ],
                        "signature": "transfer(address,uint256)"
                    },
                    "errorInfo": "",
                    "fromAddress": "0xa0b86991c6218b36c1d19d4a2e9eb0ce3606eb48",
                    "gasUsed": 33363,
                    "id": 7,
                    "methodDecoded": true,
                    "operation": "DELEGATECALL",
                    "output": "0x0000000000000000000000000000000000000000000000000000000000000001",
                    "revert": false,
                    "revertMessage": "",
                    "selector": "0xa9059cbb",
                    "status": true,
                    "value": "0"
                },
                "nodeType": 0
            },
            "8": {
                "event": {
                    "contract": "0xa0b86991c6218b36c1d19d4a2e9eb0ce3606eb48",
                    "decodedLog": {
                        "name": "Transfer",
                        "params": [
                            {
                                "name": "from",
                                "type": "address",
                                "value": "0xa7062bba94c91d565ae33b893ab5dfaf1fc57c4d"
                            },
                            {
                                "name": "to",
                                "type": "address",
                                "value": "0xa8c2af35e412bab7a486572e6470af1ea4bccb41"
                            },
                            {
                                "decimalAvailable": true,
                                "name": "value",
                                "type": "uint256",
                                "value": "65,551,525"
                            }
                        ],
                        "signature": "Transfer(address,address,uint256)"
                    },
                    "id": 8,
                    "logData": "0x0000000000000000000000000000000000000000000000000000000003e83ca5",
                    "logDecoded": true,
                    "operation": "EVENT",
                    "revert": false,
                    "status": true,
                    "topics": [
                        "0xddf252ad1be2c89b69c2b068fc378daa952ba7f163c4a11628f55a4df523b3ef",
                        "0x000000000000000000000000a7062bba94c91d565ae33b893ab5dfaf1fc57c4d",
                        "0x000000000000000000000000a8c2af35e412bab7a486572e6470af1ea4bccb41"
                    ]
                },
                "nodeType": 1
            },
            "9": {
                "event": {
                    "contract": "0xa7062bba94c91d565ae33b893ab5dfaf1fc57c4d",
                    "decodedLog": {
                        "name": "SwappedFromVUsd",
                        "params": [
                            {
                                "name": "recipient",
                                "type": "address",
                                "value": "0xa8c2af35e412bab7a486572e6470af1ea4bccb41"
                            },
                            {
                                "name": "token",
                                "type": "address",
                                "value": "0xa0b86991c6218b36c1d19d4a2e9eb0ce3606eb48"
                            },
                            {
                                "name": "vUsdAmount",
                                "type": "uint256",
                                "value": "65,438"
                            },
                            {
                                "name": "amount",
                                "type": "uint256",
                                "value": "65,551,525"
                            },
                            {
                                "name": "fee",
                                "type": "uint256",
                                "value": "98,475"
                            }
                        ],
                        "signature": "SwappedFromVUsd(address,address,uint256,uint256,uint256)"
                    },
                    "id": 9,
                    "logData": "0x000000000000000000000000a8c2af35e412bab7a486572e6470af1ea4bccb41000000000000000000000000a0b86991c6218b36c1d19d4a2e9eb0ce3606eb48000000000000000000000000000000000000000000000000000000000000ff9e0000000000000000000000000000000000000000000000000000000003e83ca500000000000000000000000000000000000000000000000000000000000180ab",
                    "logDecoded": true,
                    "operation": "EVENT",
                    "revert": false,
                    "status": true,
                    "topics": [
                        "0xfc1df7b9ba72a13350b8a4e0f094e232eebded9edd179950e74a852a0f405112"
                    ]
                },
                "nodeType": 1
            }
        },
        "gasFlame": [
            {
                "children": [
                    {
                        "children": [
                            {
                                "children": [],
                                "depth": 0,
                                "name": "Initial Gas",
                                "value": 22920
                            },
                            {
                                "children": [
                                    {
                                        "children": [],
                                        "depth": 1,
                                        "name": "hashMessage",
                                        "value": 1036
                                    },
                                    {
                                        "children": [
                                            {
                                                "children": [],
                                                "depth": 2,
                                                "name": "receivedMessages",
                                                "value": 2493
                                            }
                                        ],
                                        "depth": 1,
                                        "name": "hasReceivedMessage",
                                        "value": 7988
                                    },
                                    {
                                        "children": [
                                            {
                                                "children": [],
                                                "depth": 2,
                                                "name": "getY",
                                                "value": 11148
                                            },
                                            {
                                                "children": [
                                                    {
                                                        "children": [],
                                                        "depth": 3,
                                                        "name": "transfer",
                                                        "value": 33363
                                                    }
                                                ],
                                                "depth": 2,
                                                "name": "transfer",
                                                "value": 40652
                                            }
                                        ],
                                        "depth": 1,
                                        "name": "swapFromVUsd",
                                        "value": 94772
                                    }
                                ],
                                "depth": 0,
                                "name": "Executed Gas",
                                "value": 139905
                            }
                        ],
                        "depth": -1,
                        "name": "Actual Gas Used",
                        "value": 162825
                    },
                    {
                        "children": [],
                        "depth": -1,
                        "name": "Refunded Gas",
                        "value": 0
                    }
                ],
                "depth": -2,
                "name": "Total Gas",
                "value": 162825
            }
        ],
        "isConfirmed": true,
        "mainTrace": [
            {
                "children": [
                    {
                        "children": [
                            {
                                "children": [],
                                "depth": 1,
                                "id": 1,
                                "order": 1
                            },
                            {
                                "children": [
                                    {
                                        "children": [],
                                        "depth": 2,
                                        "id": 3,
                                        "order": 3
                                    }
                                ],
                                "depth": 1,
                                "id": 2,
                                "order": 2
                            },
                            {
                                "children": [
                                    {
                                        "children": [],
                                        "depth": 2,
                                        "id": 5,
                                        "order": 5
                                    },
                                    {
                                        "children": [
                                            {
                                                "children": [
                                                    {
                                                        "children": [],
                                                        "depth": 4,
                                                        "id": 8,
                                                        "order": 8
                                                    }
                                                ],
                                                "depth": 3,
                                                "id": 7,
                                                "order": 7
                                            }
                                        ],
                                        "depth": 2,
                                        "id": 6,
                                        "order": 6
                                    },
                                    {
                                        "children": [],
                                        "depth": 2,
                                        "id": 9,
                                        "order": 9
                                    }
                                ],
                                "depth": 1,
                                "id": 4,
                                "order": 4
                            },
                            {
                                "children": [],
                                "depth": 1,
                                "id": 10,
                                "order": 10
                            }
                        ],
                        "depth": 0,
                        "id": 0,
                        "order": 0
                    }
                ],
                "depth": -1,
                "id": -1,
                "order": -1
            }
        ],
        "mainTraceNodeCount": 11,
        "parentIdMap": {
            "0": -1,
            "1": 0,
            "10": 0,
            "2": 0,
            "3": 2,
            "4": 0,
            "5": 4,
            "6": 4,
            "7": 6,
            "8": 7,
            "9": 4
        },
        "tidyTrace": [
            {
                "children": [
                    {
                        "children": [
                            {
                                "children": [
                                    {
                                        "children": [
                                            {
                                                "children": [
                                                    {
                                                        "children": [],
                                                        "depth": 4,
                                                        "id": 8,
                                                        "order": 8
                                                    }
                                                ],
                                                "depth": 3,
                                                "id": 7,
                                                "order": 7
                                            }
                                        ],
                                        "depth": 2,
                                        "id": 6,
                                        "order": 6
                                    },
                                    {
                                        "children": [],
                                        "depth": 2,
                                        "id": 9,
                                        "order": 9
                                    }
                                ],
                                "depth": 1,
                                "id": 4,
                                "order": 4
                            },
                            {
                                "children": [],
                                "depth": 1,
                                "id": 10,
                                "order": 10
                            }
                        ],
                        "depth": 0,
                        "id": 0,
                        "order": 0
                    }
                ],
                "depth": -1,
                "id": -1,
                "order": -1
            }
        ],
        "tidyTraceNodeCount": 7
    },
    "state_change": {
        "stateChanges": [
            {
                "address": "0x609c690e8f7d68a59885c9132e812eebdaaf0c9e",
                "erc": "",
                "slots": [
                    {
                        "current": "0x0000000000000000000000000000000000000000000000000000000000000001",
                        "key": "0xe638b032a415cf199d642f79d4f9b0f145decc4a386900eb005eb0fe6b313426",
                        "prev": "0x0000000000000000000000000000000000000000000000000000000000000000"
                    }
                ],
                "storageVariables": [
                    {
                        "name": "processedMessages",
                        "type": "mapping(bytes32 => uint256)",
                        "value": {
                            "pairs": [
                                {
                                    "key": "0x04018037604e93772bbe86aedb21cfe5908cacccc0d9160766763bcd341b29ef",
                                    "value": {
                                        "current": "1",
                                        "prev": "0",
                                        "typeTag": 1
                                    }
                                }
                            ],
                            "typeTag": 4
                        }
                    }
                ]
            },
            {
                "address": "0xa0b86991c6218b36c1d19d4a2e9eb0ce3606eb48",
                "erc": "ERC-20",
                "slots": [
                    {
                        "current": "0x0000000000000000000000000000000000000000000000000000000003e83ca5",
                        "key": "0x322d0bfa361b2e8f13f862c9b67b73a8761854e2e2caf74985a7a3516ed9ba61",
                        "prev": "0x0000000000000000000000000000000000000000000000000000000000000000"
                    },
                    {
                        "current": "0x0000000000000000000000000000000000000000000000000000076117aeb5d8",
                        "key": "0x6a7c51c793e2f0a4844a03ccf2999de908713c84998f9e1bb125a58820d89abd",
                        "prev": "0x000000000000000000000000000000000000000000000000000007611b96f27d"
                    }
                ],
                "storageVariables": [
                    {
                        "name": "balanceAndBlacklistStates",
                        "type": "mapping(address => uint256)",
                        "value": {
                            "pairs": [
                                {
                                    "key": "0xa7062bba94c91d565ae33b893ab5dfaf1fc57c4d",
                                    "value": {
                                        "current": "8113590547928",
                                        "prev": "8113656099453",
                                        "typeTag": 1
                                    }
                                },
                                {
                                    "key": "0xa8c2af35e412bab7a486572e6470af1ea4bccb41",
                                    "value": {
                                        "current": "65551525",
                                        "prev": "0",
                                        "typeTag": 1
                                    }
                                }
                            ],
                            "typeTag": 4
                        }
                    }
                ]
            },
            {
                "address": "0xa7062bba94c91d565ae33b893ab5dfaf1fc57c4d",
                "erc": "ERC-20",
                "slots": [
                    {
                        "current": "0x00000000000000000000000000000000000000000000000000000000dfe915a6",
                        "key": "0x000000000000000000000000000000000000000000000000000000000000000c",
                        "prev": "0x00000000000000000000000000000000000000000000000000000000dfe81608"
                    },
                    {
                        "current": "0x00000000000000000000000000000000000000000000000000000001e1e1d8c4",
                        "key": "0x000000000000000000000000000000000000000000000000000000000000000e",
                        "prev": "0x00000000000000000000000000000000000000000000000000000001e1e2d936"
                    },
                    {
                        "current": "0x00000000000000000000000000000000000000000000000000000000ff79508f",
                        "key": "0x000000000000000000000000000000000000000000000000000000000000000b",
                        "prev": "0x00000000000000000000000000000000000000000000000000000000ff7a5101"
                    },
                    {
                        "current": "0x0000000000000000000000000000000000000000000000000ed70173571a434e",
                        "key": "0x0000000000000000000000000000000000000000000000000000000000000006",
                        "prev": "0x0000000000000000000000000000000000000000000000000ed701691158c218"
                    },
                    {
                        "current": "0x000000000000000000000000000000000000000000000000000000014997d95c",
                        "key": "0x0000000000000000000000000000000000000000000000000000000000000009",
                        "prev": "0x0000000000000000000000000000000000000000000000000000000149978c6d"
                    }
                ],
                "storageVariables": [
                    {
                        "name": "vUsdBalance",
                        "type": "uint256",
                        "value": {
                            "current": "3756594598",
                            "prev": "3756529160",
                            "typeTag": 1
                        }
                    },
                    {
                        "name": "reserves",
                        "type": "uint256",
                        "value": {
                            "current": "8084641988",
                            "prev": "8084707638",
                            "typeTag": 1
                        }
                    },
                    {
                        "name": "tokenBalance",
                        "type": "uint256",
                        "value": {
                            "current": "4286140559",
                            "prev": "4286206209",
                            "typeTag": 1
                        }
                    },
                    {
                        "name": "accRewardPerShareP",
                        "type": "uint256",
                        "value": {
                            "current": "1069325031417987918",
                            "prev": "1069324987298005528",
                            "typeTag": 1
                        }
                    },
                    {
                        "name": "adminFeeAmount",
                        "type": "uint256",
                        "value": {
                            "current": "5529655644",
                            "prev": "5529635949",
                            "typeTag": 1
                        }
                    }
                ]
            }
        ]
    }
}