{
    "balance_change": {
        "balanceChanges": [
            {
                "account": "0x5c87915f26b5414e9748300caa7a67f5f0c1b989",
                "assets": [
                    {
                        "address": "0xc02aaa39b223fe8d0a0e5c4f27ead9083c756cc2",
                        "amount": "149.955977670259692446",
                        "iconUrl": "https://assets.blocksec.com/icon/f1cb2d02c471d545bbc7722daf3277fd852d98e63d118771af7047bd8256c516.png",
                        "isERC1155": false,
                        "isERC721": false,
                        "sign": false,
                        "value": ""
                    },
                    {
                        "address": "0x89d24a6b4ccb1b6faa2625fe562bdd9a23260359",
                        "amount": "10,131.126814533323526227",
                        "iconUrl": "https://assets.blocksec.com/icon/ef749d775affba651ec0a3b1d637f71b140c748229531fb8d00c215d958a89f4.png",
                        "isERC1155": false,
                        "isERC721": false,
                        "sign": true,
                        "value": ""
                    }
                ]
            },
            {
                "account": "0x39755357759ce0d7f32dc8dc45414cca409ae24e",
                "assets": [
                    {
                        "address": "0x89d24a6b4ccb1b6faa2625fe562bdd9a23260359",
                        "amount": "10,131.126814533323526227",
                        "iconUrl": "https://assets.blocksec.com/icon/ef749d775affba651ec0a3b1d637f71b140c748229531fb8d00c215d958a89f4.png",
                        "isERC1155": false,
                        "isERC721": false,
                        "sign": false,
                        "value": ""
                    },
                    {
                        "address": "0xc02aaa39b223fe8d0a0e5c4f27ead9083c756cc2",
                        "amount": "115.65719723887008974",
                        "iconUrl": "https://assets.blocksec.com/icon/f1cb2d02c471d545bbc7722daf3277fd852d98e63d118771af7047bd8256c516.png",
                        "isERC1155": false,
                        "isERC721": false,
                        "sign": true,
                        "value": ""
                    }
                ]
            },
            {
                "account": "0x04f42d7b12de8b4b3c5995d0ecfe50c2e62f8f26",
                "assets": [
                    {
                        "address": "0xc02aaa39b223fe8d0a0e5c4f27ead9083c756cc2",
                        "amount": "34.291335674866980797",
                        "iconUrl": "https://assets.blocksec.com/icon/f1cb2d02c471d545bbc7722daf3277fd852d98e63d118771af7047bd8256c516.png",
                        "isERC1155": false,
                        "isERC721": false,
                        "sign": true,
                        "value": ""
                    }
                ]
            },
            {
                "account": "0x61493b7b238732408399816dad81af454e5ab709",
                "assets": [
                    {
                        "address": "0xc02aaa39b223fe8d0a0e5c4f27ead9083c756cc2",
                        "amount": "0.007444756522621908",
                        "iconUrl": "https://assets.blocksec.com/icon/f1cb2d02c471d545bbc7722daf3277fd852d98e63d118771af7047bd8256c516.png",
                        "isERC1155": false,
                        "isERC721": false,
                        "sign": true,
                        "value": ""
                    }
                ]
            }
        ]
    },
    "profile": {
        "basic_info": {
            "baseFee": "",
            "blockNumber": 8062250,
            "callData": "0xe1a6f01400000000000000000000000000000000000000000000000821ab0d4414980000000000000000000000000000c02aaa39b223fe8d0a0e5c4f27ead9083c756cc200000000000000000000000000000000000000000000095ecc1c4973bb28000000000000000000000000000089d24a6b4ccb1b6faa2625fe562bdd9a23260359000000000000000000000000000000000000000000000000000000000004137e0000000000000000000000000000000000000000000000000000000000000001",
            "debugEnable": true,
            "errorInfo": "",
            "eventCount": 24,
            "feeRecipient": "0xea674fdde714fd979de3edf0f56aa9716b898ec8",
            "formatValue": "0",
            "gasLimit": 1166113,
            "gasPrice": "31.50015",
            "gasUsed": 403118,
            "intTxnCount": 9,
            "internalRevert": false,
            "internalRevertMessage": "",
            "isContractCreation": false,
            "isFlashloan": false,
            "maxFee": "",
            "nonce": 25632,
            "overwritedBlockNumber": -1,
            "priorityFee": "",
            "receiver": "0x39755357759ce0d7f32dc8dc45414cca409ae24e",
            "revertMessage": "",
            "sender": "0x5c87915f26b5414e9748300caa7a67f5f0c1b989",
            "simulationEnable": true,
            "sourceTxnHash": "0x2a7de869929f2cf1adc98992249cdc6402664d86d0dd520d8568e4d9ad7ebd98",
            "status": true,
            "timestamp": "2019-06-30T23:49:49Z",
            "transactionFee": "0.0126982774677",
            "txnHash": "0x2a7de869929f2cf1adc98992249cdc6402664d86d0dd520d8568e4d9ad7ebd98",
            "txnIndex": 37,
            "type": 0,
            "value": "0"
        },
        "fund_flow": [
            {
                "amount": "34.291335674866980797",
                "from": "0x5c87915f26b5414e9748300caa7a67f5f0c1b989",
                "id": 1,
                "isERC1155": false,
                "isERC721": false,
                "isReverted": false,
                "order": 1,
                "to": "0x04f42d7b12de8b4b3c5995d0ecfe50c2e62f8f26",
                "token": "0xc02aaa39b223fe8d0a0e5c4f27ead9083c756cc2"
            },
            {
                "amount": "10,131.126814533323526227",
                "from": "0x39755357759ce0d7f32dc8dc45414cca409ae24e",
                "id": 2,
                "isERC1155": false,
                "isERC721": false,
                "isReverted": false,
                "order": 2,
                "to": "0x5c87915f26b5414e9748300caa7a67f5f0c1b989",
                "token": "0x89d24a6b4ccb1b6faa2625fe562bdd9a23260359"
            },
            {
                "amount": "0.007444756522621908",
                "from": "0x5c87915f26b5414e9748300caa7a67f5f0c1b989",
                "id": 3,
                "isERC1155": false,
                "isERC721": false,
                "isReverted": false,
                "order": 3,
                "to": "0x61493b7b238732408399816dad81af454e5ab709",
                "token": "0xc02aaa39b223fe8d0a0e5c4f27ead9083c756cc2"
            },
            {
                "amount": "115.65719723887008974",
                "from": "0x5c87915f26b5414e9748300caa7a67f5f0c1b989",
                "id": 4,
                "isERC1155": false,
                "isERC721": false,
                "isReverted": false,
                "order": 4,
                "to": "0x39755357759ce0d7f32dc8dc45414cca409ae24e",
                "token": "0xc02aaa39b223fe8d0a0e5c4f27ead9083c756cc2"
            }
        ],
        "token_infos": [
            {
                "address": "0x89d24a6b4ccb1b6faa2625fe562bdd9a23260359",
                "decimals": 18
            },
            {
                "address": "0xc02aaa39b223fe8d0a0e5c4f27ead9083c756cc2",
                "decimals": 18
            },
            {
                "address": "0xeeeeeeeeeeeeeeeeeeeeeeeeeeeeeeeeeeeeeeee",
                "decimals": 18
            }
        ]
    },
    "address_label": {
        "labels": [
            {
                "address": "0x89d24a6b4ccb1b6faa2625fe562bdd9a23260359",
                "label": "Sai Stablecoin"
            },
            {
                "address": "0x39755357759ce0d7f32dc8dc45414cca409ae24e",
                "label": "Eth2Dai: Old Contract"
            },
            {
                "address": "0x0000000000000000000000000000000000000001",
                "label": "Precompiled"
            },
            {
                "address": "0x0000000000000000000000000000000000000002",
                "label": "Precompiled"
            },
            {
                "address": "0x0000000000000000000000000000000000000003",
                "label": "Precompiled"
            },
            {
                "address": "0x0000000000000000000000000000000000000004",
                "label": "Precompiled"
            },
            {
                "address": "0xeeeeeeeeeeeeeeeeeeeeeeeeeeeeeeeeeeeeeeee",
                "label": "Ether"
            },
            {
                "address": "0xc02aaa39b223fe8d0a0e5c4f27ead9083c756cc2",
                "label": "Wrapped Ether (WETH)"
            }
        ]
    },
    "trace": {
        "accountLabels": null,
        "dataMap": {
            "-1": {
                "invocation": {
                    "address": "0x5c87915f26b5414e9748300caa7a67f5f0c1b989",
                    "callData": "",
                    "decodedMethod": null,
                    "errorInfo": "",
                    "fromAddress": "",
                    "gasUsed": 0,
                    "id": -1,
                    "methodDecoded": false,
                    "operation": "",
                    "output": "",
                    "revert": false,
                    "revertMessage": "",
                    "selector": "",
                    "status": false,
                    "value": ""
                },
                "nodeType": 0
            },
            "0": {
                "invocation": {
                    "address": "0x39755357759ce0d7f32dc8dc45414cca409ae24e",
                    "callData": "0x00000000000000000000000000000000000000000000000821ab0d4414980000000000000000000000000000c02aaa39b223fe8d0a0e5c4f27ead9083c756cc200000000000000000000000000000000000000000000095ecc1c4973bb28000000000000000000000000000089d24a6b4ccb1b6faa2625fe562bdd9a23260359000000000000000000000000000000000000000000000000000000000004137e0000000000000000000000000000000000000000000000000000000000000001",
                    "decodedMethod": {
                        "callParams": [
                            {
                                "name": "pay_amt",
                                "type": "uint256",
                                "value": "150,000,000,000,000,000,000"
                            },
                            {
                                "name": "pay_gem",
                                "type": "address",
                                "value": "0xc02aaa39b223fe8d0a0e5c4f27ead9083c756cc2"
                            },
                            {
                                "name": "buy_amt",
                                "type": "uint256",
                                "value": "44,250,000,000,000,000,000,000"
                            },
                            {
                                "name": "buy_gem",
                                "type": "address",
                                "value": "0x89d24a6b4ccb1b6faa2625fe562bdd9a23260359"
                            },
                            {
                                "name": "pos",
                                "type": "uint256",
                                "value": "267,134"
                            },
                            {
                                "name": "rounding",
                                "type": "bool",
                                "value": true
                            }
                        ],
                        "constructorArguments": "",
                        "name": "offer",
                        "returnParams": [
                            {
                                "name": "",
                                "type": "uint256",
                                "value": "267,151"
                            }
                        ],
                        "signature": "offer(uint256,address,uint256,address,uint256,bool)"
                    },
                    "errorInfo": "",
                    "fromAddress": "0x5c87915f26b5414e9748300caa7a67f5f0c1b989",
                    "gasUsed": 403118,
                    "id": 0,
                    "methodDecoded": true,
                    "operation": "CALL",
                    "output": "0x000000000000000000000000000000000000000000000000000000000004138f",
                    "revert": false,
                    "revertMessage": "",
                    "selector": "0xe1a6f014",
                    "status": true,
                    "value": "0"
                },
                "nodeType": 0
            },
            "1": {
                "invocation": {
                    "address": "0xc02aaa39b223fe8d0a0e5c4f27ead9083c756cc2",
                    "callData": "0x0000000000000000000000005c87915f26b5414e9748300caa7a67f5f0c1b98900000000000000000000000004f42d7b12de8b4b3c5995d0ecfe50c2e62f8f2600000000000000000000000000000000000000000000000009c1982f61e12ef1",
                    "decodedMethod": {
                        "callParams": [
                            {
                                "name": "src",
                                "type": "address",
                                "value": "0x5c87915f26b5414e9748300caa7a67f5f0c1b989"
                            },
                            {
                                "name": "dst",
                                "type": "address",
                                "value": "0x04f42d7b12de8b4b3c5995d0ecfe50c2e62f8f26"
                            },
                            {
                                "decimalAvailable": true,
                                "name": "wad",
                                "type": "uint256",
                                "value": "703,010,346,119,540,465"
                            }
                        ],
                        "constructorArguments": "",
                        "name": "transferFrom",
                        "returnParams": [
                            {
                                "name": "",
                                "type": "bool",
                                "value": true
                            }
                        ],
                        "signature": "transferFrom(address,address,uint256)"
                    },
                    "errorInfo": "",
                    "fromAddress": "0x39755357759ce0d7f32dc8dc45414cca409ae24e",
                    "gasUsed": 13625,
                    "id": 1,
                    "methodDecoded": true,
                    "operation": "CALL",
                    "output": "0x0000000000000000000000000000000000000000000000000000000000000001",
                    "revert": false,
                    "revertMessage": "",
                    "selector": "0x23b872dd",
                    "status": true,
                    "value": "0"
                },
                "nodeType": 0
            },
            "10": {
                "invocation": {
                    "address": "0x89d24a6b4ccb1b6faa2625fe562bdd9a23260359",
                    "callData": "0x0000000000000000000000005c87915f26b5414e9748300caa7a67f5f0c1b989000000000000000000000000000000000000000000000048986f6e0a4ae88409",
                    "decodedMethod": {
                        "callParams": [
                            {
                                "name": "dst",
                                "type": "address",
                                "value": "0x5c87915f26b5414e9748300caa7a67f5f0c1b989"
                            },
                            {
                                "decimalAvailable": true,
                                "name": "wad",
                                "type": "uint256",
                                "value": "1,339,149,692,313,753,125,897"
                            }
                        ],
                        "constructorArguments": "",
                        "name": "transfer",
                        "returnParams": [
                            {
                                "name": "",
                                "type": "bool",
                                "value": true
                            }
                        ],
                        "signature": "transfer(address,uint256)"
                    },
                    "errorInfo": "",
                    "fromAddress": "0x39755357759ce0d7f32dc8dc45414cca409ae24e",
                    "gasUsed": 14106,
                    "id": 10,
                    "methodDecoded": true,
                    "operation": "CALL",
                    "output": "0x0000000000000000000000000000000000000000000000000000000000000001",
                    "revert": false,
                    "revertMessage": "",
                    "selector": "0xa9059cbb",
                    "status": true,
                    "value": "0"
                },
                "nodeType": 0
            },
            "11": {
                "event": {
                    "contract": "0x89d24a6b4ccb1b6faa2625fe562bdd9a23260359",
                    "decodedLog": {
                        "name": "Transfer",
                        "params": [
                            {
                                "name": "src",
                                "type": "address",
                                "value": "0x39755357759ce0d7f32dc8dc45414cca409ae24e"
                            },
                            {
                                "name": "dst",
                                "type": "address",
                                "value": "0x5c87915f26b5414e9748300caa7a67f5f0c1b989"
                            },
                            {
                                "decimalAvailable": true,
                                "name": "wad",
                                "type": "uint256",
                                "value": "1,339,149,692,313,753,125,897"
                            }
                        ],
                        "signature": "Transfer(address,address,uint256)"
                    },
                    "id": 11,
                    "logData": "0x000000000000000000000000000000000000000000000048986f6e0a4ae88409",
                    "logDecoded": true,
                    "operation": "EVENT",
                    "revert": false,
                    "status": true,
                    "topics": [
                        "0xddf252ad1be2c89b69c2b068fc378daa952ba7f163c4a11628f55a4df523b3ef",
                        "0x00000000000000000000000039755357759ce0d7f32dc8dc45414cca409ae24e",
                        "0x0000000000000000000000005c87915f26b5414e9748300caa7a67f5f0c1b989"
                    ]
                },
                "nodeType": 1
            },
            "12": {
                "event": {
                    "contract": "0x39755357759ce0d7f32dc8dc45414cca409ae24e",
                    "decodedLog": {
                        "name": "LogItemUpdate",
                        "params": [
                            {
                                "name": "id",
                                "type": "uint256",
                                "value": "267,031"
                            }
                        ],
                        "signature": "LogItemUpdate(uint256)"
                    },
                    "id": 12,
                    "logData": "0x0000000000000000000000000000000000000000000000000000000000041317",
                    "logDecoded": true,
                    "operation": "EVENT",
                    "revert": false,
                    "status": true,
                    "topics": [
                        "0xa2c251311b1a7a475913900a2a73dc9789a21b04bc737e050bbc506dd4eb3488"
                    ]
                },
                "nodeType": 1
            },
            "13": {
                "event": {
                    "contract": "0x39755357759ce0d7f32dc8dc45414cca409ae24e",
                    "decodedLog": {
                        "name": "LogTake",
                        "params": [
                            {
                                "name": "pair",
                                "type": "bytes32",
                                "value": "0x10aed75aa327f09ef87e5bdfaedf498ca260499a251ae5e049ddbd5e1633cd9c"
                            },
                            {
                                "name": "maker",
                                "type": "address",
                                "value": "0x04f42d7b12de8b4b3c5995d0ecfe50c2e62f8f26"
                            },
                            {
                                "name": "taker",
                                "type": "address",
                                "value": "0x5c87915f26b5414e9748300caa7a67f5f0c1b989"
                            },
                            {
                                "name": "id",
                                "type": "bytes32",
                                "value": "0x0000000000000000000000000000000000000000000000000000000000041317"
                            },
                            {
                                "name": "pay_gem",
                                "type": "address",
                                "value": "0x89d24a6b4ccb1b6faa2625fe562bdd9a23260359"
                            },
                            {
                                "name": "buy_gem",
                                "type": "address",
                                "value": "0xc02aaa39b223fe8d0a0e5c4f27ead9083c756cc2"
                            },
                            {
                                "name": "take_amt",
                                "type": "uint128",
                                "value": "1,339,149,692,313,753,125,897"
                            },
                            {
                                "name": "give_amt",
                                "type": "uint128",
                                "value": "4,531,610,856,017,488,115"
                            },
                            {
                                "name": "timestamp",
                                "type": "uint64",
                                "value": "1,561,938,589"
                            }
                        ],
                        "signature": "LogTake(bytes32,bytes32,address,address,address,address,uint128,uint128,uint64)"
                    },
                    "id": 13,
                    "logData": "0x000000000000000000000000000000000000000000000000000000000004131700000000000000000000000089d24a6b4ccb1b6faa2625fe562bdd9a23260359000000000000000000000000c02aaa39b223fe8d0a0e5c4f27ead9083c756cc2000000000000000000000000000000000000000000000048986f6e0a4ae884090000000000000000000000000000000000000000000000003ee384106539e8f3000000000000000000000000000000000000000000000000000000005d194a9d",
                    "logDecoded": true,
                    "operation": "EVENT",
                    "revert": false,
                    "status": true,
                    "topics": [
                        "0x3383e3357c77fd2e3a4b30deea81179bc70a795d053d14d5b7f2f01d0fd4596f",
                        "0x10aed75aa327f09ef87e5bdfaedf498ca260499a251ae5e049ddbd5e1633cd9c",
                        "0x00000000000000000000000004f42d7b12de8b4b3c5995d0ecfe50c2e62f8f26",
                        "0x0000000000000000000000005c87915f26b5414e9748300caa7a67f5f0c1b989"
                    ]
                },
                "nodeType": 1
            },
            "14": {
                "event": {
                    "contract": "0x39755357759ce0d7f32dc8dc45414cca409ae24e",
                    "decodedLog": {
                        "name": "LogTrade",
                        "params": [
                            {
                                "name": "pay_gem",
                                "type": "address",
                                "value": "0x89d24a6b4ccb1b6faa2625fe562bdd9a23260359"
                            },
                            {
                                "name": "buy_gem",
                                "type": "address",
                                "value": "0xc02aaa39b223fe8d0a0e5c4f27ead9083c756cc2"
                            },
                            {
                                "name": "pay_amt",
                                "type": "uint256",
                                "value": "1,339,149,692,313,753,125,897"
                            },
                            {
                                "name": "buy_amt",
                                "type": "uint256",
                                "value": "4,531,610,856,017,488,115"
                            }
                        ],
                        "signature": "LogTrade(uint256,address,uint256,address)"
                    },
                    "id": 14,
                    "logData": "0x000000000000000000000000000000000000000000000048986f6e0a4ae884090000000000000000000000000000000000000000000000003ee384106539e8f3",
                    "logDecoded": true,
                    "operation": "EVENT",
                    "revert": false,
                    "status": true,
                    "topics": [
                        "0x819e390338feffe95e2de57172d6faf337853dfd15c7a09a32d76f7fd2443875",
                        "0x00000000000000000000000089d24a6b4ccb1b6faa2625fe562bdd9a23260359",
                        "0x000000000000000000000000c02aaa39b223fe8d0a0e5c4f27ead9083c756cc2"
                    ]
                },
                "nodeType": 1
            },
            "15": {
                "invocation": {
                    "address": "0xc02aaa39b223fe8d0a0e5c4f27ead9083c756cc2",
                    "callData": "0x0000000000000000000000005c87915f26b5414e9748300caa7a67f5f0c1b98900000000000000000000000061493b7b238732408399816dad81af454e5ab709000000000000000000000000000000000000000000000000001a72f773f85bd4",
                    "decodedMethod": {
                        "callParams": [
                            {
                                "name": "src",
                                "type": "address",
                                "value": "0x5c87915f26b5414e9748300caa7a67f5f0c1b989"
                            },
                            {
                                "name": "dst",
                                "type": "address",
                                "value": "0x61493b7b238732408399816dad81af454e5ab709"
                            },
                            {
                                "decimalAvailable": true,
                                "name": "wad",
                                "type": "uint256",
                                "value": "7,444,756,522,621,908"
                            }
                        ],
                        "constructorArguments": "",
                        "name": "transferFrom",
                        "returnParams": [
                            {
                                "name": "",
                                "type": "bool",
                                "value": true
                            }
                        ],
                        "signature": "transferFrom(address,address,uint256)"
                    },
                    "errorInfo": "",
                    "fromAddress": "0x39755357759ce0d7f32dc8dc45414cca409ae24e",
                    "gasUsed": 13625,
                    "id": 15,
                    "methodDecoded": true,
                    "operation": "CALL",
                    "output": "0x0000000000000000000000000000000000000000000000000000000000000001",
                    "revert": false,
                    "revertMessage": "",
                    "selector": "0x23b872dd",
                    "status": true,
                    "value": "0"
                },
                "nodeType": 0
            },
            "16": {
                "event": {
                    "contract": "0xc02aaa39b223fe8d0a0e5c4f27ead9083c756cc2",
                    "decodedLog": {
                        "name": "Transfer",
                        "params": [
                            {
                                "name": "src",
                                "type": "address",
                                "value": "0x5c87915f26b5414e9748300caa7a67f5f0c1b989"
                            },
                            {
                                "name": "dst",
                                "type": "address",
                                "value": "0x61493b7b238732408399816dad81af454e5ab709"
                            },
                            {
                                "decimalAvailable": true,
                                "name": "wad",
                                "type": "uint256",
                                "value": "7,444,756,522,621,908"
                            }
                        ],
                        "signature": "Transfer(address,address,uint256)"
                    },
                    "id": 16,
                    "logData": "0x000000000000000000000000000000000000000000000000001a72f773f85bd4",
                    "logDecoded": true,
                    "operation": "EVENT",
                    "revert": false,
                    "status": true,
                    "topics": [
                        "0xddf252ad1be2c89b69c2b068fc378daa952ba7f163c4a11628f55a4df523b3ef",
                        "0x0000000000000000000000005c87915f26b5414e9748300caa7a67f5f0c1b989",
                        "0x00000000000000000000000061493b7b238732408399816dad81af454e5ab709"
                    ]
                },
                "nodeType": 1
            },
            "17": {
                "invocation": {
                    "address": "0x89d24a6b4ccb1b6faa2625fe562bdd9a23260359",
                    "callData": "0x0000000000000000000000005c87915f26b5414e9748300caa7a67f5f0c1b9890000000000000000000000000000000000000000000000001e87f85809dbfefa",
                    "decodedMethod": {
                        "callParams": [
                            {
                                "name": "dst",
                                "type": "address",
                                "value": "0x5c87915f26b5414e9748300caa7a67f5f0c1b989"
                            },
                            {
                                "decimalAvailable": true,
                                "name": "wad",
                                "type": "uint256",
                                "value": "2,199,999,999,999,999,738"
                            }
                        ],
                        "constructorArguments": "",
                        "name": "transfer",
                        "returnParams": [
                            {
                                "name": "",
                                "type": "bool",
                                "value": true
                            }
                        ],
                        "signature": "transfer(address,uint256)"
                    },
                    "errorInfo": "",
                    "fromAddress": "0x39755357759ce0d7f32dc8dc45414cca409ae24e",
                    "gasUsed": 14106,
                    "id": 17,
                    "methodDecoded": true,
                    "operation": "CALL",
                    "output": "0x0000000000000000000000000000000000000000000000000000000000000001",
                    "revert": false,
                    "revertMessage": "",
                    "selector": "0xa9059cbb",
                    "status": true,
                    "value": "0"
                },
                "nodeType": 0
            },
            "18": {
                "event": {
                    "contract": "0x89d24a6b4ccb1b6faa2625fe562bdd9a23260359",
                    "decodedLog": {
                        "name": "Transfer",
                        "params": [
                            {
                                "name": "src",
                                "type": "address",
                                "value": "0x39755357759ce0d7f32dc8dc45414cca409ae24e"
                            },
                            {
                                "name": "dst",
                                "type": "address",
                                "value": "0x5c87915f26b5414e9748300caa7a67f5f0c1b989"
                            },
                            {
                                "decimalAvailable": true,
                                "name": "wad",
                                "type": "uint256",
                                "value": "2,199,999,999,999,999,738"
                            }
                        ],
                        "signature": "Transfer(address,address,uint256)"
                    },
                    "id": 18,
                    "logData": "0x0000000000000000000000000000000000000000000000001e87f85809dbfefa",
                    "logDecoded": true,
                    "operation": "EVENT",
                    "revert": false,
                    "status": true,
                    "topics": [
                        "0xddf252ad1be2c89b69c2b068fc378daa952ba7f163c4a11628f55a4df523b3ef",
                        "0x00000000000000000000000039755357759ce0d7f32dc8dc45414cca409ae24e",
                        "0x0000000000000000000000005c87915f26b5414e9748300caa7a67f5f0c1b989"
                    ]
                },
                "nodeType": 1
            },
            "19": {
                "event": {
                    "contract": "0x39755357759ce0d7f32dc8dc45414cca409ae24e",
                    "decodedLog": {
                        "name": "LogItemUpdate",
                        "params": [
                            {
                                "name": "id",
                                "type": "uint256",
                                "value": "267,030"
                            }
                        ],
                        "signature": "LogItemUpdate(uint256)"
                    },
                    "id": 19,
                    "logData": "0x0000000000000000000000000000000000000000000000000000000000041316",
                    "logDecoded": true,
                    "operation": "EVENT",
                    "revert": false,
                    "status": true,
                    "topics": [
                        "0xa2c251311b1a7a475913900a2a73dc9789a21b04bc737e050bbc506dd4eb3488"
                    ]
                },
                "nodeType": 1
            },
            "2": {
                "event": {
                    "contract": "0xc02aaa39b223fe8d0a0e5c4f27ead9083c756cc2",
                    "decodedLog": {
                        "name": "Transfer",
                        "params": [
                            {
                                "name": "src",
                                "type": "address",
                                "value": "0x5c87915f26b5414e9748300caa7a67f5f0c1b989"
                            },
                            {
                                "name": "dst",
                                "type": "address",
                                "value": "0x04f42d7b12de8b4b3c5995d0ecfe50c2e62f8f26"
                            },
                            {
                                "decimalAvailable": true,
                                "name": "wad",
                                "type": "uint256",
                                "value": "703,010,346,119,540,465"
                            }
                        ],
                        "signature": "Transfer(address,address,uint256)"
                    },
                    "id": 2,
                    "logData": "0x00000000000000000000000000000000000000000000000009c1982f61e12ef1",
                    "logDecoded": true,
                    "operation": "EVENT",
                    "revert": false,
                    "status": true,
                    "topics": [
                        "0xddf252ad1be2c89b69c2b068fc378daa952ba7f163c4a11628f55a4df523b3ef",
                        "0x0000000000000000000000005c87915f26b5414e9748300caa7a67f5f0c1b989",
                        "0x00000000000000000000000004f42d7b12de8b4b3c5995d0ecfe50c2e62f8f26"
                    ]
                },
                "nodeType": 1
            },
            "20": {
                "event": {
                    "contract": "0x39755357759ce0d7f32dc8dc45414cca409ae24e",
                    "decodedLog": {
                        "name": "LogTake",
                        "params": [
                            {
                                "name": "pair",
                                "type": "bytes32",
                                "value": "0x10aed75aa327f09ef87e5bdfaedf498ca260499a251ae5e049ddbd5e1633cd9c"
                            },
                            {
                                "name": "maker",
                                "type": "address",
                                "value": "0x61493b7b238732408399816dad81af454e5ab709"
                            },
                            {
                                "name": "taker",
                                "type": "address",
                                "value": "0x5c87915f26b5414e9748300caa7a67f5f0c1b989"
                            },
                            {
                                "name": "id",
                                "type": "bytes32",
                                "value": "0x0000000000000000000000000000000000000000000000000000000000041316"
                            },
                            {
                                "name": "pay_gem",
                                "type": "address",
                                "value": "0x89d24a6b4ccb1b6faa2625fe562bdd9a23260359"
                            },
                            {
                                "name": "buy_gem",
                                "type": "address",
                                "value": "0xc02aaa39b223fe8d0a0e5c4f27ead9083c756cc2"
                            },
                            {
                                "name": "take_amt",
                                "type": "uint128",
                                "value": "2,199,999,999,999,999,738"
                            },
                            {
                                "name": "give_amt",
                                "type": "uint128",
                                "value": "7,444,756,522,621,908"
                            },
                            {
                                "name": "timestamp",
                                "type": "uint64",
                                "value": "1,561,938,589"
                            }
                        ],
                        "signature": "LogTake(bytes32,bytes32,address,address,address,address,uint128,uint128,uint64)"
                    },
                    "id": 20,
                    "logData": "0x000000000000000000000000000000000000000000000000000000000004131600000000000000000000000089d24a6b4ccb1b6faa2625fe562bdd9a23260359000000000000000000000000c02aaa39b223fe8d0a0e5c4f27ead9083c756cc20000000000000000000000000000000000000000000000001e87f85809dbfefa000000000000000000000000000000000000000000000000001a72f773f85bd4000000000000000000000000000000000000000000000000000000005d194a9d",
                    "logDecoded": true,
                    "operation": "EVENT",
                    "revert": false,
                    "status": true,
                    "topics": [
                        "0x3383e3357c77fd2e3a4b30deea81179bc70a795d053d14d5b7f2f01d0fd4596f",
                        "0x10aed75aa327f09ef87e5bdfaedf498ca260499a251ae5e049ddbd5e1633cd9c",
                        "0x00000000000000000000000061493b7b238732408399816dad81af454e5ab709",
                        "0x0000000000000000000000005c87915f26b5414e9748300caa7a67f5f0c1b989"
                    ]
                },
                "nodeType": 1
            },
            "21": {
                "event": {
                    "contract": "0x39755357759ce0d7f32dc8dc45414cca409ae24e",
                    "decodedLog": {
                        "name": "LogTrade",
                        "params": [
                            {
                                "name": "pay_gem",
                                "type": "address",
                                "value": "0x89d24a6b4ccb1b6faa2625fe562bdd9a23260359"
                            },
                            {
                                "name": "buy_gem",
                                "type": "address",
                                "value": "0xc02aaa39b223fe8d0a0e5c4f27ead9083c756cc2"
                            },
                            {
                                "name": "pay_amt",
                                "type": "uint256",
                                "value": "2,199,999,999,999,999,738"
                            },
                            {
                                "name": "buy_amt",
                                "type": "uint256",
                                "value": "7,444,756,522,621,908"
                            }
                        ],
                        "signature": "LogTrade(uint256,address,uint256,address)"
                    },
                    "id": 21,
                    "logData": "0x0000000000000000000000000000000000000000000000001e87f85809dbfefa000000000000000000000000000000000000000000000000001a72f773f85bd4",
                    "logDecoded": true,
                    "operation": "EVENT",
                    "revert": false,
                    "status": true,
                    "topics": [
                        "0x819e390338feffe95e2de57172d6faf337853dfd15c7a09a32d76f7fd2443875",
                        "0x00000000000000000000000089d24a6b4ccb1b6faa2625fe562bdd9a23260359",
                        "0x000000000000000000000000c02aaa39b223fe8d0a0e5c4f27ead9083c756cc2"
                    ]
                },
                "nodeType": 1
            },
            "22": {
                "invocation": {
                    "address": "0xc02aaa39b223fe8d0a0e5c4f27ead9083c756cc2",
                    "callData": "0x0000000000000000000000005c87915f26b5414e9748300caa7a67f5f0c1b98900000000000000000000000004f42d7b12de8b4b3c5995d0ecfe50c2e62f8f26000000000000000000000000000000000000000000000001933e2fdd27053fda",
                    "decodedMethod": {
                        "callParams": [
                            {
                                "name": "src",
                                "type": "address",
                                "value": "0x5c87915f26b5414e9748300caa7a67f5f0c1b989"
                            },
                            {
                                "name": "dst",
                                "type": "address",
                                "value": "0x04f42d7b12de8b4b3c5995d0ecfe50c2e62f8f26"
                            },
                            {
                                "decimalAvailable": true,
                                "name": "wad",
                                "type": "uint256",
                                "value": "29,056,714,472,729,952,218"
                            }
                        ],
                        "constructorArguments": "",
                        "name": "transferFrom",
                        "returnParams": [
                            {
                                "name": "",
                                "type": "bool",
                                "value": true
                            }
                        ],
                        "signature": "transferFrom(address,address,uint256)"
                    },
                    "errorInfo": "",
                    "fromAddress": "0x39755357759ce0d7f32dc8dc45414cca409ae24e",
                    "gasUsed": 13625,
                    "id": 22,
                    "methodDecoded": true,
                    "operation": "CALL",
                    "output": "0x0000000000000000000000000000000000000000000000000000000000000001",
                    "revert": false,
                    "revertMessage": "",
                    "selector": "0x23b872dd",
                    "status": true,
                    "value": "0"
                },
                "nodeType": 0
            },
            "23": {
                "event": {
                    "contract": "0xc02aaa39b223fe8d0a0e5c4f27ead9083c756cc2",
                    "decodedLog": {
                        "name": "Transfer",
                        "params": [
                            {
                                "name": "src",
                                "type": "address",
                                "value": "0x5c87915f26b5414e9748300caa7a67f5f0c1b989"
                            },
                            {
                                "name": "dst",
                                "type": "address",
                                "value": "0x04f42d7b12de8b4b3c5995d0ecfe50c2e62f8f26"
                            },
                            {
                                "decimalAvailable": true,
                                "name": "wad",
                                "type": "uint256",
                                "value": "29,056,714,472,729,952,218"
                            }
                        ],
                        "signature": "Transfer(address,address,uint256)"
                    },
                    "id": 23,
                    "logData": "0x000000000000000000000000000000000000000000000001933e2fdd27053fda",
                    "logDecoded": true,
                    "operation": "EVENT",
                    "revert": false,
                    "status": true,
                    "topics": [
                        "0xddf252ad1be2c89b69c2b068fc378daa952ba7f163c4a11628f55a4df523b3ef",
                        "0x0000000000000000000000005c87915f26b5414e9748300caa7a67f5f0c1b989",
                        "0x00000000000000000000000004f42d7b12de8b4b3c5995d0ecfe50c2e62f8f26"
                    ]
                },
                "nodeType": 1
            },
            "24": {
                "invocation": {
                    "address": "0x89d24a6b4ccb1b6faa2625fe562bdd9a23260359",
                    "callData": "0x0000000000000000000000005c87915f26b5414e9748300caa7a67f5f0c1b9890000000000000000000000000000000000000000000001d13b15067ef055d6bb",
                    "decodedMethod": {
                        "callParams": [
                            {
                                "name": "dst",
                                "type": "address",
                                "value": "0x5c87915f26b5414e9748300caa7a67f5f0c1b989"
                            },
                            {
                                "decimalAvailable": true,
                                "name": "wad",
                                "type": "uint256",
                                "value": "8,581,993,310,439,957,976,763"
                            }
                        ],
                        "constructorArguments": "",
                        "name": "transfer",
                        "returnParams": [
                            {
                                "name": "",
                                "type": "bool",
                                "value": true
                            }
                        ],
                        "signature": "transfer(address,uint256)"
                    },
                    "errorInfo": "",
                    "fromAddress": "0x39755357759ce0d7f32dc8dc45414cca409ae24e",
                    "gasUsed": 14106,
                    "id": 24,
                    "methodDecoded": true,
                    "operation": "CALL",
                    "output": "0x0000000000000000000000000000000000000000000000000000000000000001",
                    "revert": false,
                    "revertMessage": "",
                    "selector": "0xa9059cbb",
                    "status": true,
                    "value": "0"
                },
                "nodeType": 0
            },
            "25": {
                "event": {
                    "contract": "0x89d24a6b4ccb1b6faa2625fe562bdd9a23260359",
                    "decodedLog": {
                        "name": "Transfer",
                        "params": [
                            {
                                "name": "src",
                                "type": "address",
                                "value": "0x39755357759ce0d7f32dc8dc45414cca409ae24e"
                            },
                            {
                                "name": "dst",
                                "type": "address",
                                "value": "0x5c87915f26b5414e9748300caa7a67f5f0c1b989"
                            },
                            {
                                "decimalAvailable": true,
                                "name": "wad",
                                "type": "uint256",
                                "value": "8,581,993,310,439,957,976,763"
                            }
                        ],
                        "signature": "Transfer(address,address,uint256)"
                    },
                    "id": 25,
                    "logData": "0x0000000000000000000000000000000000000000000001d13b15067ef055d6bb",
                    "logDecoded": true,
                    "operation": "EVENT",
                    "revert": false,
                    "status": true,
                    "topics": [
                        "0xddf252ad1be2c89b69c2b068fc378daa952ba7f163c4a11628f55a4df523b3ef",
                        "0x00000000000000000000000039755357759ce0d7f32dc8dc45414cca409ae24e",
                        "0x0000000000000000000000005c87915f26b5414e9748300caa7a67f5f0c1b989"
                    ]
                },
                "nodeType": 1
            },
            "26": {
                "event": {
                    "contract": "0x39755357759ce0d7f32dc8dc45414cca409ae24e",
                    "decodedLog": {
                        "name": "LogItemUpdate",
                        "params": [
                            {
                                "name": "id",
                                "type": "uint256",
                                "value": "266,983"
                            }
                        ],
                        "signature": "LogItemUpdate(uint256)"
                    },
                    "id": 26,
                    "logData": "0x00000000000000000000000000000000000000000000000000000000000412e7",
                    "logDecoded": true,
                    "operation": "EVENT",
                    "revert": false,
                    "status": true,
                    "topics": [
                        "0xa2c251311b1a7a475913900a2a73dc9789a21b04bc737e050bbc506dd4eb3488"
                    ]
                },
                "nodeType": 1
            },
            "27": {
                "event": {
                    "contract": "0x39755357759ce0d7f32dc8dc45414cca409ae24e",
                    "decodedLog": {
                        "name": "LogTake",
                        "params": [
                            {
                                "name": "pair",
                                "type": "bytes32",
                                "value": "0x10aed75aa327f09ef87e5bdfaedf498ca260499a251ae5e049ddbd5e1633cd9c"
                            },
                            {
                                "name": "maker",
                                "type": "address",
                                "value": "0x04f42d7b12de8b4b3c5995d0ecfe50c2e62f8f26"
                            },
                            {
                                "name": "taker",
                                "type": "address",
                                "value": "0x5c87915f26b5414e9748300caa7a67f5f0c1b989"
                            },
                            {
                                "name": "id",
                                "type": "bytes32",
                                "value": "0x00000000000000000000000000000000000000000000000000000000000412e7"
                            },
                            {
                                "name": "pay_gem",
                                "type": "address",
                                "value": "0x89d24a6b4ccb1b6faa2625fe562bdd9a23260359"
                            },
                            {
                                "name": "buy_gem",
                                "type": "address",
                                "value": "0xc02aaa39b223fe8d0a0e5c4f27ead9083c756cc2"
                            },
                            {
                                "name": "take_amt",
                                "type": "uint128",
                                "value": "8,581,993,310,439,957,976,763"
                            },
                            {
                                "name": "give_amt",
                                "type": "uint128",
                                "value": "29,056,714,472,729,952,218"
                            },
                            {
                                "name": "timestamp",
                                "type": "uint64",
                                "value": "1,561,938,589"
                            }
                        ],
                        "signature": "LogTake(bytes32,bytes32,address,address,address,address,uint128,uint128,uint64)"
                    },
                    "id": 27,
                    "logData": "0x00000000000000000000000000000000000000000000000000000000000412e700000000000000000000000089d24a6b4ccb1b6faa2625fe562bdd9a23260359000000000000000000000000c02aaa39b223fe8d0a0e5c4f27ead9083c756cc20000000000000000000000000000000000000000000001d13b15067ef055d6bb000000000000000000000000000000000000000000000001933e2fdd27053fda000000000000000000000000000000000000000000000000000000005d194a9d",
                    "logDecoded": true,
                    "operation": "EVENT",
                    "revert": false,
                    "status": true,
                    "topics": [
                        "0x3383e3357c77fd2e3a4b30deea81179bc70a795d053d14d5b7f2f01d0fd4596f",
                        "0x10aed75aa327f09ef87e5bdfaedf498ca260499a251ae5e049ddbd5e1633cd9c",
                        "0x00000000000000000000000004f42d7b12de8b4b3c5995d0ecfe50c2e62f8f26",
                        "0x0000000000000000000000005c87915f26b5414e9748300caa7a67f5f0c1b989"
                    ]
                },
                "nodeType": 1
            },
            "28": {
                "event": {
                    "contract": "0x39755357759ce0d7f32dc8dc45414cca409ae24e",
                    "decodedLog": {
                        "name": "LogTrade",
                        "params": [
                            {
                                "name": "pay_gem",
                                "type": "address",
                                "value": "0x89d24a6b4ccb1b6faa2625fe562bdd9a23260359"
                            },
                            {
                                "name": "buy_gem",
                                "type": "address",
                                "value": "0xc02aaa39b223fe8d0a0e5c4f27ead9083c756cc2"
                            },
                            {
                                "name": "pay_amt",
                                "type": "uint256",
                                "value": "8,581,993,310,439,957,976,763"
                            },
                            {
                                "name": "buy_amt",
                                "type": "uint256",
                                "value": "29,056,714,472,729,952,218"
                            }
                        ],
                        "signature": "LogTrade(uint256,address,uint256,address)"
                    },
                    "id": 28,
                    "logData": "0x0000000000000000000000000000000000000000000001d13b15067ef055d6bb000000000000000000000000000000000000000000000001933e2fdd27053fda",
                    "logDecoded": true,
                    "operation": "EVENT",
                    "revert": false,
                    "status": true,
                    "topics": [
                        "0x819e390338feffe95e2de57172d6faf337853dfd15c7a09a32d76f7fd2443875",
                        "0x00000000000000000000000089d24a6b4ccb1b6faa2625fe562bdd9a23260359",
                        "0x000000000000000000000000c02aaa39b223fe8d0a0e5c4f27ead9083c756cc2"
                    ]
                },
                "nodeType": 1
            },
            "29": {
                "invocation": {
                    "address": "0xc02aaa39b223fe8d0a0e5c4f27ead9083c756cc2",
                    "callData": "0x0000000000000000000000005c87915f26b5414e9748300caa7a67f5f0c1b98900000000000000000000000039755357759ce0d7f32dc8dc45414cca409ae24e0000000000000000000000000000000000000000000000064510e81c5424200c",
                    "decodedMethod": {
                        "callParams": [
                            {
                                "name": "src",
                                "type": "address",
                                "value": "0x5c87915f26b5414e9748300caa7a67f5f0c1b989"
                            },
                            {
                                "name": "dst",
                                "type": "address",
                                "value": "0x39755357759ce0d7f32dc8dc45414cca409ae24e"
                            },
                            {
                                "decimalAvailable": true,
                                "name": "wad",
                                "type": "uint256",
                                "value": "115,657,197,238,870,089,740"
                            }
                        ],
                        "constructorArguments": "",
                        "name": "transferFrom",
                        "returnParams": [
                            {
                                "name": "",
                                "type": "bool",
                                "value": true
                            }
                        ],
                        "signature": "transferFrom(address,address,uint256)"
                    },
                    "errorInfo": "",
                    "fromAddress": "0x39755357759ce0d7f32dc8dc45414cca409ae24e",
                    "gasUsed": 13625,
                    "id": 29,
                    "methodDecoded": true,
                    "operation": "CALL",
                    "output": "0x0000000000000000000000000000000000000000000000000000000000000001",
                    "revert": false,
                    "revertMessage": "",
                    "selector": "0x23b872dd",
                    "status": true,
                    "value": "0"
                },
                "nodeType": 0
            },
            "3": {
                "invocation": {
                    "address": "0x89d24a6b4ccb1b6faa2625fe562bdd9a23260359",
                    "callData": "0x0000000000000000000000005c87915f26b5414e9748300caa7a67f5f0c1b98900000000000000000000000000000000000000000000000b439463ed806cb695",
                    "decodedMethod": {
                        "callParams": [
                            {
                                "name": "dst",
                                "type": "address",
                                "value": "0x5c87915f26b5414e9748300caa7a67f5f0c1b989"
                            },
                            {
                                "decimalAvailable": true,
                                "name": "wad",
                                "type": "uint256",
                                "value": "207,783,811,779,612,423,829"
                            }
                        ],
                        "constructorArguments": "",
                        "name": "transfer",
                        "returnParams": [
                            {
                                "name": "",
                                "type": "bool",
                                "value": true
                            }
                        ],
                        "signature": "transfer(address,uint256)"
                    },
                    "errorInfo": "",
                    "fromAddress": "0x39755357759ce0d7f32dc8dc45414cca409ae24e",
                    "gasUsed": 14106,
                    "id": 3,
                    "methodDecoded": true,
                    "operation": "CALL",
                    "output": "0x0000000000000000000000000000000000000000000000000000000000000001",
                    "revert": false,
                    "revertMessage": "",
                    "selector": "0xa9059cbb",
                    "status": true,
                    "value": "0"
                },
                "nodeType": 0
            },
            "30": {
                "event": {
                    "contract": "0xc02aaa39b223fe8d0a0e5c4f27ead9083c756cc2",
                    "decodedLog": {
                        "name": "Transfer",
                        "params": [
                            {
                                "name": "src",
                                "type": "address",
                                "value": "0x5c87915f26b5414e9748300caa7a67f5f0c1b989"
                            },
                            {
                                "name": "dst",
                                "type": "address",
                                "value": "0x39755357759ce0d7f32dc8dc45414cca409ae24e"
                            },
                            {
                                "decimalAvailable": true,
                                "name": "wad",
                                "type": "uint256",
                                "value": "115,657,197,238,870,089,740"
                            }
                        ],
                        "signature": "Transfer(address,address,uint256)"
                    },
                    "id": 30,
                    "logData": "0x0000000000000000000000000000000000000000000000064510e81c5424200c",
                    "logDecoded": true,
                    "operation": "EVENT",
                    "revert": false,
                    "status": true,
                    "topics": [
                        "0xddf252ad1be2c89b69c2b068fc378daa952ba7f163c4a11628f55a4df523b3ef",
                        "0x0000000000000000000000005c87915f26b5414e9748300caa7a67f5f0c1b989",
                        "0x00000000000000000000000039755357759ce0d7f32dc8dc45414cca409ae24e"
                    ]
                },
                "nodeType": 1
            },
            "31": {
                "event": {
                    "contract": "0x39755357759ce0d7f32dc8dc45414cca409ae24e",
                    "decodedLog": {
                        "name": "LogItemUpdate",
                        "params": [
                            {
                                "name": "id",
                                "type": "uint256",
                                "value": "267,151"
                            }
                        ],
                        "signature": "LogItemUpdate(uint256)"
                    },
                    "id": 31,
                    "logData": "0x000000000000000000000000000000000000000000000000000000000004138f",
                    "logDecoded": true,
                    "operation": "EVENT",
                    "revert": false,
                    "status": true,
                    "topics": [
                        "0xa2c251311b1a7a475913900a2a73dc9789a21b04bc737e050bbc506dd4eb3488"
                    ]
                },
                "nodeType": 1
            },
            "32": {
                "event": {
                    "contract": "0x39755357759ce0d7f32dc8dc45414cca409ae24e",
                    "decodedLog": {
                        "name": "LogMake",
                        "params": [
                            {
                                "name": "id",
                                "type": "bytes32",
                                "value": "0x000000000000000000000000000000000000000000000000000000000004138f"
                            },
                            {
                                "name": "pair",
                                "type": "bytes32",
                                "value": "0x9dd48110dcc444fdc242510c09bbbbe21a5975cac061d82f7b843bce061ba391"
                            },
                            {
                                "name": "maker",
                                "type": "address",
                                "value": "0x5c87915f26b5414e9748300caa7a67f5f0c1b989"
                            },
                            {
                                "name": "pay_gem",
                                "type": "address",
                                "value": "0xc02aaa39b223fe8d0a0e5c4f27ead9083c756cc2"
                            },
                            {
                                "name": "buy_gem",
                                "type": "address",
                                "value": "0x89d24a6b4ccb1b6faa2625fe562bdd9a23260359"
                            },
                            {
                                "name": "pay_amt",
                                "type": "uint128",
                                "value": "115,657,197,238,870,089,740"
                            },
                            {
                                "name": "buy_amt",
                                "type": "uint128",
                                "value": "34,118,873,185,466,676,473,773"
                            },
                            {
                                "name": "timestamp",
                                "type": "uint64",
                                "value": "1,561,938,589"
                            }
                        ],
                        "signature": "LogMake(bytes32,bytes32,address,address,address,uint128,uint128,uint64)"
                    },
                    "id": 32,
                    "logData": "0x000000000000000000000000c02aaa39b223fe8d0a0e5c4f27ead9083c756cc200000000000000000000000089d24a6b4ccb1b6faa2625fe562bdd9a232603590000000000000000000000000000000000000000000000064510e81c5424200c000000000000000000000000000000000000000000000739967b78a4f5a0efad000000000000000000000000000000000000000000000000000000005d194a9d",
                    "logDecoded": true,
                    "operation": "EVENT",
                    "revert": false,
                    "status": true,
                    "topics": [
                        "0x773ff502687307abfa024ac9f62f9752a0d210dac2ffd9a29e38e12e2ea82c82",
                        "0x000000000000000000000000000000000000000000000000000000000004138f",
                        "0x9dd48110dcc444fdc242510c09bbbbe21a5975cac061d82f7b843bce061ba391",
                        "0x0000000000000000000000005c87915f26b5414e9748300caa7a67f5f0c1b989"
                    ]
                },
                "nodeType": 1
            },
            "33": {
                "event": {
                    "contract": "0x39755357759ce0d7f32dc8dc45414cca409ae24e",
                    "decodedLog": {
                        "name": "LogSortedOffer",
                        "params": [
                            {
                                "name": "id",
                                "type": "uint256",
                                "value": "267,151"
                            }
                        ],
                        "signature": "LogSortedOffer(uint256)"
                    },
                    "id": 33,
                    "logData": "0x000000000000000000000000000000000000000000000000000000000004138f",
                    "logDecoded": true,
                    "operation": "EVENT",
                    "revert": false,
                    "status": true,
                    "topics": [
                        "0x20fb9bad86c18f7e22e8065258790d9416a7d2df8ff05f80f82c46d38b925acd"
                    ]
                },
                "nodeType": 1
            },
            "4": {
                "event": {
                    "contract": "0x89d24a6b4ccb1b6faa2625fe562bdd9a23260359",
                    "decodedLog": {
                        "name": "Transfer",
                        "params": [
                            {
                                "name": "src",
                                "type": "address",
                                "value": "0x39755357759ce0d7f32dc8dc45414cca409ae24e"
                            },
                            {
                                "name": "dst",
                                "type": "address",
                                "value": "0x5c87915f26b5414e9748300caa7a67f5f0c1b989"
                            },
                            {
                                "decimalAvailable": true,
                                "name": "wad",
                                "type": "uint256",
                                "value": "207,783,811,779,612,423,829"
                            }
                        ],
                        "signature": "Transfer(address,address,uint256)"
                    },
                    "id": 4,
                    "logData": "0x00000000000000000000000000000000000000000000000b439463ed806cb695",
                    "logDecoded": true,
                    "operation": "EVENT",
                    "revert": false,
                    "status": true,
                    "topics": [
                        "0xddf252ad1be2c89b69c2b068fc378daa952ba7f163c4a11628f55a4df523b3ef",
                        "0x00000000000000000000000039755357759ce0d7f32dc8dc45414cca409ae24e",
                        "0x0000000000000000000000005c87915f26b5414e9748300caa7a67f5f0c1b989"
                    ]
                },
                "nodeType": 1
            },
            "5": {
                "event": {
                    "contract": "0x39755357759ce0d7f32dc8dc45414cca409ae24e",
                    "decodedLog": {
                        "name": "LogItemUpdate",
                        "params": [
                            {
                                "name": "id",
                                "type": "uint256",
                                "value": "267,042"
                            }
                        ],
                        "signature": "LogItemUpdate(uint256)"
                    },
                    "id": 5,
                    "logData": "0x0000000000000000000000000000000000000000000000000000000000041322",
                    "logDecoded": true,
                    "operation": "EVENT",
                    "revert": false,
                    "status": true,
                    "topics": [
                        "0xa2c251311b1a7a475913900a2a73dc9789a21b04bc737e050bbc506dd4eb3488"
                    ]
                },
                "nodeType": 1
            },
            "6": {
                "event": {
                    "contract": "0x39755357759ce0d7f32dc8dc45414cca409ae24e",
                    "decodedLog": {
                        "name": "LogTake",
                        "params": [
                            {
                                "name": "pair",
                                "type": "bytes32",
                                "value": "0x10aed75aa327f09ef87e5bdfaedf498ca260499a251ae5e049ddbd5e1633cd9c"
                            },
                            {
                                "name": "maker",
                                "type": "address",
                                "value": "0x04f42d7b12de8b4b3c5995d0ecfe50c2e62f8f26"
                            },
                            {
                                "name": "taker",
                                "type": "address",
                                "value": "0x5c87915f26b5414e9748300caa7a67f5f0c1b989"
                            },
                            {
                                "name": "id",
                                "type": "bytes32",
                                "value": "0x0000000000000000000000000000000000000000000000000000000000041322"
                            },
                            {
                                "name": "pay_gem",
                                "type": "address",
                                "value": "0x89d24a6b4ccb1b6faa2625fe562bdd9a23260359"
                            },
                            {
                                "name": "buy_gem",
                                "type": "address",
                                "value": "0xc02aaa39b223fe8d0a0e5c4f27ead9083c756cc2"
                            },
                            {
                                "name": "take_amt",
                                "type": "uint128",
                                "value": "207,783,811,779,612,423,829"
                            },
                            {
                                "name": "give_amt",
                                "type": "uint128",
                                "value": "703,010,346,119,540,465"
                            },
                            {
                                "name": "timestamp",
                                "type": "uint64",
                                "value": "1,561,938,589"
                            }
                        ],
                        "signature": "LogTake(bytes32,bytes32,address,address,address,address,uint128,uint128,uint64)"
                    },
                    "id": 6,
                    "logData": "0x000000000000000000000000000000000000000000000000000000000004132200000000000000000000000089d24a6b4ccb1b6faa2625fe562bdd9a23260359000000000000000000000000c02aaa39b223fe8d0a0e5c4f27ead9083c756cc200000000000000000000000000000000000000000000000b439463ed806cb69500000000000000000000000000000000000000000000000009c1982f61e12ef1000000000000000000000000000000000000000000000000000000005d194a9d",
                    "logDecoded": true,
                    "operation": "EVENT",
                    "revert": false,
                    "status": true,
                    "topics": [
                        "0x3383e3357c77fd2e3a4b30deea81179bc70a795d053d14d5b7f2f01d0fd4596f",
                        "0x10aed75aa327f09ef87e5bdfaedf498ca260499a251ae5e049ddbd5e1633cd9c",
                        "0x00000000000000000000000004f42d7b12de8b4b3c5995d0ecfe50c2e62f8f26",
                        "0x0000000000000000000000005c87915f26b5414e9748300caa7a67f5f0c1b989"
                    ]
                },
                "nodeType": 1
            },
            "7": {
                "event": {
                    "contract": "0x39755357759ce0d7f32dc8dc45414cca409ae24e",
                    "decodedLog": {
                        "name": "LogTrade",
                        "params": [
                            {
                                "name": "pay_gem",
                                "type": "address",
                                "value": "0x89d24a6b4ccb1b6faa2625fe562bdd9a23260359"
                            },
                            {
                                "name": "buy_gem",
                                "type": "address",
                                "value": "0xc02aaa39b223fe8d0a0e5c4f27ead9083c756cc2"
                            },
                            {
                                "name": "pay_amt",
                                "type": "uint256",
                                "value": "207,783,811,779,612,423,829"
                            },
                            {
                                "name": "buy_amt",
                                "type": "uint256",
                                "value": "703,010,346,119,540,465"
                            }
                        ],
                        "signature": "LogTrade(uint256,address,uint256,address)"
                    },
                    "id": 7,
                    "logData": "0x00000000000000000000000000000000000000000000000b439463ed806cb69500000000000000000000000000000000000000000000000009c1982f61e12ef1",
                    "logDecoded": true,
                    "operation": "EVENT",
                    "revert": false,
                    "status": true,
                    "topics": [
                        "0x819e390338feffe95e2de57172d6faf337853dfd15c7a09a32d76f7fd2443875",
                        "0x00000000000000000000000089d24a6b4ccb1b6faa2625fe562bdd9a23260359",
                        "0x000000000000000000000000c02aaa39b223fe8d0a0e5c4f27ead9083c756cc2"
                    ]
                },
                "nodeType": 1
            },
            "8": {
                "invocation": {
                    "address": "0xc02aaa39b223fe8d0a0e5c4f27ead9083c756cc2",
                    "callData": "0x0000000000000000000000005c87915f26b5414e9748300caa7a67f5f0c1b98900000000000000000000000004f42d7b12de8b4b3c5995d0ecfe50c2e62f8f260000000000000000000000000000000000000000000000003ee384106539e8f3",
                    "decodedMethod": {
                        "callParams": [
                            {
                                "name": "src",
                                "type": "address",
                                "value": "0x5c87915f26b5414e9748300caa7a67f5f0c1b989"
                            },
                            {
                                "name": "dst",
                                "type": "address",
                                "value": "0x04f42d7b12de8b4b3c5995d0ecfe50c2e62f8f26"
                            },
                            {
                                "decimalAvailable": true,
                                "name": "wad",
                                "type": "uint256",
                                "value": "4,531,610,856,017,488,115"
                            }
                        ],
                        "constructorArguments": "",
                        "name": "transferFrom",
                        "returnParams": [
                            {
                                "name": "",
                                "type": "bool",
                                "value": true
                            }
                        ],
                        "signature": "transferFrom(address,address,uint256)"
                    },
                    "errorInfo": "",
                    "fromAddress": "0x39755357759ce0d7f32dc8dc45414cca409ae24e",
                    "gasUsed": 13625,
                    "id": 8,
                    "methodDecoded": true,
                    "operation": "CALL",
                    "output": "0x0000000000000000000000000000000000000000000000000000000000000001",
                    "revert": false,
                    "revertMessage": "",
                    "selector": "0x23b872dd",
                    "status": true,
                    "value": "0"
                },
                "nodeType": 0
            },
            "9": {
                "event": {
                    "contract": "0xc02aaa39b223fe8d0a0e5c4f27ead9083c756cc2",
                    "decodedLog": {
                        "name": "Transfer",
                        "params": [
                            {
                                "name": "src",
                                "type": "address",
                                "value": "0x5c87915f26b5414e9748300caa7a67f5f0c1b989"
                            },
                            {
                                "name": "dst",
                                "type": "address",
                                "value": "0x04f42d7b12de8b4b3c5995d0ecfe50c2e62f8f26"
                            },
                            {
                                "decimalAvailable": true,
                                "name": "wad",
                                "type": "uint256",
                                "value": "4,531,610,856,017,488,115"
                            }
                        ],
                        "signature": "Transfer(address,address,uint256)"
                    },
                    "id": 9,
                    "logData": "0x0000000000000000000000000000000000000000000000003ee384106539e8f3",
                    "logDecoded": true,
                    "operation": "EVENT",
                    "revert": false,
                    "status": true,
                    "topics": [
                        "0xddf252ad1be2c89b69c2b068fc378daa952ba7f163c4a11628f55a4df523b3ef",
                        "0x0000000000000000000000005c87915f26b5414e9748300caa7a67f5f0c1b989",
                        "0x00000000000000000000000004f42d7b12de8b4b3c5995d0ecfe50c2e62f8f26"
                    ]
                },
                "nodeType": 1
            }
        },
        "gasFlame": [
            {
                "children": [
                    {
                        "children": [
                            {
                                "children": [],
                                "depth": 0,
                                "name": "Initial Gas",
                                "value": 25816
                            },
                            {
                                "children": [
                                    {
                                        "children": [],
                                        "depth": 1,
                                        "name": "transferFrom",
                                        "value": 13625
                                    },
                                    {
                                        "children": [],
                                        "depth": 1,
                                        "name": "transfer",
                                        "value": 14106
                                    },
                                    {
                                        "children": [],
                                        "depth": 1,
                                        "name": "transferFrom",
                                        "value": 13625
                                    },
                                    {
                                        "children": [],
                                        "depth": 1,
                                        "name": "transfer",
                                        "value": 14106
                                    },
                                    {
                                        "children": [],
                                        "depth": 1,
                                        "name": "transferFrom",
                                        "value": 13625
                                    },
                                    {
                                        "children": [],
                                        "depth": 1,
                                        "name": "transfer",
                                        "value": 14106
                                    },
                                    {
                                        "children": [],
                                        "depth": 1,
                                        "name": "transferFrom",
                                        "value": 13625
                                    },
                                    {
                                        "children": [],
                                        "depth": 1,
                                        "name": "transfer",
                                        "value": 14106
                                    },
                                    {
                                        "children": [],
                                        "depth": 1,
                                        "name": "transferFrom",
                                        "value": 13625
                                    }
                                ],
                                "depth": 0,
                                "name": "Executed Gas",
                                "value": 737302
                            }
                        ],
                        "depth": -1,
                        "name": "Actual Gas Used",
                        "value": 403118
                    },
                    {
                        "children": [],
                        "depth": -1,
                        "name": "Refunded Gas",
                        "value": 360000
                    }
                ],
                "depth": -2,
                "name": "Total Gas",
                "value": 763118
            }
        ],
        "isConfirmed": true,
        "mainTrace": [
            {
                "children": [
                    {
                        "children": [
                            {
                                "children": [
                                    {
                                        "children": [],
                                        "depth": 2,
                                        "id": 2,
                                        "order": 2
                                    }
                                ],
                                "depth": 1,
                                "id": 1,
                                "order": 1
                            },
                            {
                                "children": [
                                    {
                                        "children": [],
                                        "depth": 2,
                                        "id": 4,
                                        "order": 4
                                    }
                                ],
                                "depth": 1,
                                "id": 3,
                                "order": 3
                            },
                            {
                                "children": [],
                                "depth": 1,
                                "id": 5,
                                "order": 5
                            },
                            {
                                "children": [],
                                "depth": 1,
                                "id": 6,
                                "order": 6
                            },
                            {
                                "children": [],
                                "depth": 1,
                                "id": 7,
                                "order": 7
                            },
                            {
                                "children": [
                                    {
                                        "children": [],
                                        "depth": 2,
                                        "id": 9,
                                        "order": 9
                                    }
                                ],
                                "depth": 1,
                                "id": 8,
                                "order": 8
                            },
                            {
                                "children": [
                                    {
                                        "children": [],
                                        "depth": 2,
                                        "id": 11,
                                        "order": 11
                                    }
                                ],
                                "depth": 1,
                                "id": 10,
                                "order": 10
                            },
                            {
                                "children": [],
                                "depth": 1,
                                "id": 12,
                                "order": 12
                            },
                            {
                                "children": [],
                                "depth": 1,
                                "id": 13,
                                "order": 13
                            },
                            {
                                "children": [],
                                "depth": 1,
                                "id": 14,
                                "order": 14
                            },
                            {
                                "children": [
                                    {
                                        "children": [],
                                        "depth": 2,
                                        "id": 16,
                                        "order": 16
                                    }
                                ],
                                "depth": 1,
                                "id": 15,
                                "order": 15
                            },
                            {
                                "children": [
                                    {
                                        "children": [],
                                        "depth": 2,
                                        "id": 18,
                                        "order": 18
                                    }
                                ],
                                "depth": 1,
                                "id": 17,
                                "order": 17
                            },
                            {
                                "children": [],
                                "depth": 1,
                                "id": 19,
                                "order": 19
                            },
                            {
                                "children": [],
                                "depth": 1,
                                "id": 20,
                                "order": 20
                            },
                            {
                                "children": [],
                                "depth": 1,
                                "id": 21,
                                "order": 21
                            },
                            {
                                "children": [
                                    {
                                        "children": [],
                                        "depth": 2,
                                        "id": 23,
                                        "order": 23
                                    }
                                ],
                                "depth": 1,
                                "id": 22,
                                "order": 22
                            },
                            {
                                "children": [
                                    {
                                        "children": [],
                                        "depth": 2,
                                        "id": 25,
                                        "order": 25
                                    }
                                ],
                                "depth": 1,
                                "id": 24,
                                "order": 24
                            },
                            {
                                "children": [],
                                "depth": 1,
                                "id": 26,
                                "order": 26
                            },
                            {
                                "children": [],
                                "depth": 1,
                                "id": 27,
                                "order": 27
                            },
                            {
                                "children": [],
                                "depth": 1,
                                "id": 28,
                                "order": 28
                            },
                            {
                                "children": [
                                    {
                                        "children": [],
                                        "depth": 2,
                                        "id": 30,
                                        "order": 30
                                    }
                                ],
                                "depth": 1,
                                "id": 29,
                                "order": 29
                            },
                            {
                                "children": [],
                                "depth": 1,
                                "id": 31,
                                "order": 31
                            },
                            {
                                "children": [],
                                "depth": 1,
                                "id": 32,
                                "order": 32
                            },
                            {
                                "children": [],
                                "depth": 1,
                                "id": 33,
                                "order": 33
                            }
                        ],
                        "depth": 0,
                        "id": 0,
                        "order": 0
                    }
                ],
                "depth": -1,
                "id": -1,
                "order": -1
            }
        ],
        "mainTraceNodeCount": 34,
        "parentIdMap": {
            "0": -1,
            "1": 0,
            "10": 0,
            "11": 10,
            "12": 0,
            "13": 0,
            "14": 0,
            "15": 0,
            "16": 15,
            "17": 0,
            "18": 17,
            "19": 0,
            "2": 1,
            "20": 0,
            "21": 0,
            "22": 0,
            "23": 22,
            "24": 0,
            "25": 24,
            "26": 0,
            "27": 0,
            "28": 0,
            "29": 0,
            "3": 0,
            "30": 29,
            "31": 0,
            "32": 0,
            "33": 0,
            "4": 3,
            "5": 0,
            "6": 0,
            "7": 0,
            "8": 0,
            "9": 8
        },
        "tidyTrace": [
            {
                "children": [
                    {
                        "children": [
                            {
                                "children": [
                                    {
                                        "children": [],
                                        "depth": 2,
                                        "id": 2,
                                        "order": 2
                                    }
                                ],
                                "depth": 1,
                                "id": 1,
                                "order": 1
                            },
                            {
                                "children": [
                                    {
                                        "children": [],
                                        "depth": 2,
                                        "id": 4,
                                        "order": 4
                                    }
                                ],
                                "depth": 1,
                                "id": 3,
                                "order": 3
                            },
                            {
                                "children": [],
                                "depth": 1,
                                "id": 5,
                                "order": 5
                            },
                            {
                                "children": [],
                                "depth": 1,
                                "id": 6,
                                "order": 6
                            },
                            {
                                "children": [],
                                "depth": 1,
                                "id": 7,
                                "order": 7
                            },
                            {
                                "children": [
                                    {
                                        "children": [],
                                        "depth": 2,
                                        "id": 9,
                                        "order": 9
                                    }
                                ],
                                "depth": 1,
                                "id": 8,
                                "order": 8
                            },
                            {
                                "children": [
                                    {
                                        "children": [],
                                        "depth": 2,
                                        "id": 11,
                                        "order": 11
                                    }
                                ],
                                "depth": 1,
                                "id": 10,
                                "order": 10
                            },
                            {
                                "children": [],
                                "depth": 1,
                                "id": 12,
                                "order": 12
                            },
                            {
                                "children": [],
                                "depth": 1,
                                "id": 13,
                                "order": 13
                            },
                            {
                                "children": [],
                                "depth": 1,
                                "id": 14,
                                "order": 14
                            },
                            {
                                "children": [
                                    {
                                        "children": [],
                                        "depth": 2,
                                        "id": 16,
                                        "order": 16
                                    }
                                ],
                                "depth": 1,
                                "id": 15,
                                "order": 15
                            },
                            {
                                "children": [
                                    {
                                        "children": [],
                                        "depth": 2,
                                        "id": 18,
                                        "order": 18
                                    }
                                ],
                                "depth": 1,
                                "id": 17,
                                "order": 17
                            },
                            {
                                "children": [],
                                "depth": 1,
                                "id": 19,
                                "order": 19
                            },
                            {
                                "children": [],
                                "depth": 1,
                                "id": 20,
                                "order": 20
                            },
                            {
                                "children": [],
                                "depth": 1,
                                "id": 21,
                                "order": 21
                            },
                            {
                                "children": [
                                    {
                                        "children": [],
                                        "depth": 2,
                                        "id": 23,
                                        "order": 23
                                    }
                                ],
                                "depth": 1,
                                "id": 22,
                                "order": 22
                            },
                            {
                                "children": [
                                    {
                                        "children": [],
                                        "depth": 2,
                                        "id": 25,
                                        "order": 25
                                    }
                                ],
                                "depth": 1,
                                "id": 24,
                                "order": 24
                            },
                            {
                                "children": [],
                                "depth": 1,
                                "id": 26,
                                "order": 26
                            },
                            {
                                "children": [],
                                "depth": 1,
                                "id": 27,
                                "order": 27
                            },
                            {
                                "children": [],
                                "depth": 1,
                                "id": 28,
                                "order": 28
                            },
                            {
                                "children": [
                                    {
                                        "children": [],
                                        "depth": 2,
                                        "id": 30,
                                        "order": 30
                                    }
                                ],
                                "depth": 1,
                                "id": 29,
                                "order": 29
                            },
                            {
                                "children": [],
                                "depth": 1,
                                "id": 31,
                                "order": 31
                            },
                            {
                                "children": [],
                                "depth": 1,
                                "id": 32,
                                "order": 32
                            },
                            {
                                "children": [],
                                "depth": 1,
                                "id": 33,
                                "order": 33
                            }
                        ],
                        "depth": 0,
                        "id": 0,
                        "order": 0
                    }
                ],
                "depth": -1,
                "id": -1,
                "order": -1
            }
        ],
        "tidyTraceNodeCount": 34
    },
    "state_change": {
        "stateChanges": [
            {
                "address": "0x39755357759ce0d7f32dc8dc45414cca409ae24e",
                "erc": "",
                "slots": [
                    {
                        "current": "0x000000000000000000000000000000000000000000000000000000000004138f",
                        "key": "0x0000000000000000000000000000000000000000000000000000000000000002",
                        "prev": "0x000000000000000000000000000000000000000000000000000000000004138e"
                    },
                    {
                        "current": "0x0000000000000000000000000000000000000000000000000000000000000000",
                        "key": "0xb68ed455e86eef75696be495fafe894d4fc7904dedd01d910cee186dfbfe9736",
                        "prev": "0x00000000000000000000000089d24a6b4ccb1b6faa2625fe562bdd9a23260359"
                    },
                    {
                        "current": "0x0000000000000000000000000000000000000000000000000000000000000000",
                        "key": "0x8eae9334b14986c9f604d07164ff5e6c9bedd0ab8c302b2e4a82dc5c0af7a004",
                        "prev": "0x00000000000000005d19443004f42d7b12de8b4b3c5995d0ecfe50c2e62f8f26"
                    },
                    {
                        "current": "0x0000000000000000000000000000000000000000000000000000000000000000",
                        "key": "0x8eae9334b14986c9f604d07164ff5e6c9bedd0ab8c302b2e4a82dc5c0af7a001",
                        "prev": "0x00000000000000000000000089d24a6b4ccb1b6faa2625fe562bdd9a23260359"
                    },
                    {
                        "current": "0x0000000000000000000000000000000000000000000000000000000000000000",
                        "key": "0x8eae9334b14986c9f604d07164ff5e6c9bedd0ab8c302b2e4a82dc5c0af7a003",
                        "prev": "0x000000000000000000000000c02aaa39b223fe8d0a0e5c4f27ead9083c756cc2"
                    },
                    {
                        "current": "0x0000000000000000000000000000000000000000000000000000000000000000",
                        "key": "0xb5b616c80573f5561a6057723d69430960bcde80b0e6e711b3ba38ea2218193e",
                        "prev": "0x0000000000000000000000000000000000000000000000000000000000041316"
                    },
                    {
                        "current": "0x00000000000000000000000089d24a6b4ccb1b6faa2625fe562bdd9a23260359",
                        "key": "0x28fd75f1132a80054302f4fa75c0ae630924abd75e981e191b1c358684708828",
                        "prev": "0x0000000000000000000000000000000000000000000000000000000000000000"
                    },
                    {
                        "current": "0x0000000000000000000000000000000000000000000000000000000000000000",
                        "key": "0xb68ed455e86eef75696be495fafe894d4fc7904dedd01d910cee186dfbfe9738",
                        "prev": "0x000000000000000000000000c02aaa39b223fe8d0a0e5c4f27ead9083c756cc2"
                    },
                    {
                        "current": "0x0000000000000000000000000000000000000000000000000000000000000000",
                        "key": "0xf9c57819b5cd6b27d2d35781d1cb325e74e25a467e01eb93e7da3f53ec675890",
                        "prev": "0x00000000000000005d19452e04f42d7b12de8b4b3c5995d0ecfe50c2e62f8f26"
                    },
                    {
                        "current": "0x00000000000000000000000000000000000000000000000000000000007b052a",
                        "key": "0x4eadd6deebd8c715912bc78b4a61d1f291e1cf930ab1b2ccbf60aefa3f57d61b",
                        "prev": "0x0000000000000000000000000000000000000000000000000000000000000000"
                    },
                    {
                        "current": "0x0000000000000000000000000000000000000000000000000000000000000000",
                        "key": "0xf9c57819b5cd6b27d2d35781d1cb325e74e25a467e01eb93e7da3f53ec67588c",
                        "prev": "0x00000000000000000000000000000000000000000000000b439463ed806cb695"
                    },
                    {
                        "current": "0x00000000000000000000000000000000000000000000000000000000007b052a",
                        "key": "0xb5b616c80573f5561a6057723d69430960bcde80b0e6e711b3ba38ea22181940",
                        "prev": "0x0000000000000000000000000000000000000000000000000000000000000000"
                    },
                    {
                        "current": "0x0000000000000000000000000000000000000000000000000000000000000000",
                        "key": "0xb68ed455e86eef75696be495fafe894d4fc7904dedd01d910cee186dfbfe9737",
                        "prev": "0x000000000000000000000000000000000000000000000001933e2fdd27053fda"
                    },
                    {
                        "current": "0x0000000000000000000000000000000000000000000000064510e81c5424200c",
                        "key": "0x28fd75f1132a80054302f4fa75c0ae630924abd75e981e191b1c358684708825",
                        "prev": "0x0000000000000000000000000000000000000000000000000000000000000000"
                    },
                    {
                        "current": "0x000000000000000000000000000000000000000000000000000000000004138f",
                        "key": "0x98adb05b5527e08a8637884c5bf6fb8314910f2f7673a9cb6f0a95ff2a3d9307",
                        "prev": "0x0000000000000000000000000000000000000000000000000000000000000000"
                    },
                    {
                        "current": "0x00000000000000000000000000000000000000000000000000000000000000e6",
                        "key": "0x839364218e430961480851c669819ef60483255dd7518f401296fbd95bcfc2d8",
                        "prev": "0x00000000000000000000000000000000000000000000000000000000000000ea"
                    },
                    {
                        "current": "0x0000000000000000000000000000000000000000000000000000000000000000",
                        "key": "0xf860f8cc0bcb90594844c7db2e393527597a324ee749f47d3fcc86c643b783e5",
                        "prev": "0x0000000000000000000000000000000000000000000000000000000000041322"
                    },
                    {
                        "current": "0x0000000000000000000000000000000000000000000000000000000000000000",
                        "key": "0xccb026d75c8985a41d5bdeae248f3f0459973981e4e56c3b95c428696cc362c1",
                        "prev": "0x000000000000000000000000c02aaa39b223fe8d0a0e5c4f27ead9083c756cc2"
                    },
                    {
                        "current": "0x0000000000000000000000000000000000000000000000000000000000000000",
                        "key": "0x7ab2f54476cea2d5040a1ad8ba2fb1df418b1ff078a4456a04a9f9b2e5fc7075",
                        "prev": "0x00000000000000000000000000000000000000000000000000000000000412e7"
                    },
                    {
                        "current": "0x0000000000000000000000000000000000000000000000000000000000000000",
                        "key": "0xccb026d75c8985a41d5bdeae248f3f0459973981e4e56c3b95c428696cc362bf",
                        "prev": "0x00000000000000000000000089d24a6b4ccb1b6faa2625fe562bdd9a23260359"
                    },
                    {
                        "current": "0x00000000000000000000000000000000000000000000000000000000000412eb",
                        "key": "0xca7d817fd9f08b82bd6fae43c5e229c94b1133847e42b9f81a45af21e372641a",
                        "prev": "0x0000000000000000000000000000000000000000000000000000000000041322"
                    },
                    {
                        "current": "0x0000000000000000000000000000000000000000000000000000000000000000",
                        "key": "0x8eae9334b14986c9f604d07164ff5e6c9bedd0ab8c302b2e4a82dc5c0af7a002",
                        "prev": "0x0000000000000000000000000000000000000000000000003ee384106539e8f3"
                    },
                    {
                        "current": "0x00000000000000000000000000000000000000000000000000000000007b052a",
                        "key": "0x66be73d0b37d0c70ef8d30ef7b30e38e63b6e0e1297990887f6425b58072587c",
                        "prev": "0x0000000000000000000000000000000000000000000000000000000000000000"
                    },
                    {
                        "current": "0x0000000000000000000000000000000000000000000000000000000000000000",
                        "key": "0xb68ed455e86eef75696be495fafe894d4fc7904dedd01d910cee186dfbfe9735",
                        "prev": "0x0000000000000000000000000000000000000000000001d13b15067ef055d6bb"
                    },
                    {
                        "current": "0x0000000000000000000000000000000000000000000000000000000000000000",
                        "key": "0xccb026d75c8985a41d5bdeae248f3f0459973981e4e56c3b95c428696cc362c2",
                        "prev": "0x00000000000000005d19441961493b7b238732408399816dad81af454e5ab709"
                    },
                    {
                        "current": "0x00000000000000005d194a9d5c87915f26b5414e9748300caa7a67f5f0c1b989",
                        "key": "0x28fd75f1132a80054302f4fa75c0ae630924abd75e981e191b1c358684708829",
                        "prev": "0x0000000000000000000000000000000000000000000000000000000000000000"
                    },
                    {
                        "current": "0x000000000000000000000000000000000000000000000000000000000000009b",
                        "key": "0xcc9bd740ec949c1c5f14f207591d901e2f99f59fc9709ff11e2a59fbbccfa000",
                        "prev": "0x000000000000000000000000000000000000000000000000000000000000009a"
                    },
                    {
                        "current": "0x0000000000000000000000000000000000000000000000000000000000000000",
                        "key": "0xf9c57819b5cd6b27d2d35781d1cb325e74e25a467e01eb93e7da3f53ec67588e",
                        "prev": "0x00000000000000000000000000000000000000000000000009c1982f61e12ef1"
                    },
                    {
                        "current": "0x00000000000000000000000000000000000000000000000000000000007b052a",
                        "key": "0xf860f8cc0bcb90594844c7db2e393527597a324ee749f47d3fcc86c643b783e7",
                        "prev": "0x0000000000000000000000000000000000000000000000000000000000000000"
                    },
                    {
                        "current": "0x0000000000000000000000000000000000000000000000000000000000000000",
                        "key": "0xccb026d75c8985a41d5bdeae248f3f0459973981e4e56c3b95c428696cc362be",
                        "prev": "0x0000000000000000000000000000000000000000000000001e87f85809dbfefa"
                    },
                    {
                        "current": "0x000000000000000000000000c02aaa39b223fe8d0a0e5c4f27ead9083c756cc2",
                        "key": "0x28fd75f1132a80054302f4fa75c0ae630924abd75e981e191b1c358684708826",
                        "prev": "0x0000000000000000000000000000000000000000000000000000000000000000"
                    },
                    {
                        "current": "0x000000000000000000000000000000000000000000000000000000000004137e",
                        "key": "0xf39e7968a105952c0fd55d5e4a0617bcb810ed368324c4810c106237a6b26b4b",
                        "prev": "0x0000000000000000000000000000000000000000000000000000000000000000"
                    },
                    {
                        "current": "0x000000000000000000000000000000000000000000000000000000000004138f",
                        "key": "0x1e51de45c7be7ad8cf9e26a513239f593c80c41c0b9df15fc91ffa6e71f6a6bc",
                        "prev": "0x000000000000000000000000000000000000000000000000000000000004137e"
                    },
                    {
                        "current": "0x0000000000000000000000000000000000000000000000000000000000000000",
                        "key": "0x66be73d0b37d0c70ef8d30ef7b30e38e63b6e0e1297990887f6425b58072587a",
                        "prev": "0x0000000000000000000000000000000000000000000000000000000000041317"
                    },
                    {
                        "current": "0x0000000000000000000000000000000000000000000000000000000000000000",
                        "key": "0xf9c57819b5cd6b27d2d35781d1cb325e74e25a467e01eb93e7da3f53ec67588d",
                        "prev": "0x00000000000000000000000089d24a6b4ccb1b6faa2625fe562bdd9a23260359"
                    },
                    {
                        "current": "0x0000000000000000000000000000000000000000000000000000000000000000",
                        "key": "0xf9c57819b5cd6b27d2d35781d1cb325e74e25a467e01eb93e7da3f53ec67588f",
                        "prev": "0x000000000000000000000000c02aaa39b223fe8d0a0e5c4f27ead9083c756cc2"
                    },
                    {
                        "current": "0x0000000000000000000000000000000000000000000000000000000000000000",
                        "key": "0xccb026d75c8985a41d5bdeae248f3f0459973981e4e56c3b95c428696cc362c0",
                        "prev": "0x000000000000000000000000000000000000000000000000001a72f773f85bd4"
                    },
                    {
                        "current": "0x000000000000000000000000000000000000000000000739967b78a4f5a0efad",
                        "key": "0x28fd75f1132a80054302f4fa75c0ae630924abd75e981e191b1c358684708827",
                        "prev": "0x0000000000000000000000000000000000000000000000000000000000000000"
                    },
                    {
                        "current": "0x0000000000000000000000000000000000000000000000000000000000000000",
                        "key": "0xb68ed455e86eef75696be495fafe894d4fc7904dedd01d910cee186dfbfe9739",
                        "prev": "0x00000000000000005d1941b904f42d7b12de8b4b3c5995d0ecfe50c2e62f8f26"
                    },
                    {
                        "current": "0x0000000000000000000000000000000000000000000000000000000000000000",
                        "key": "0x8eae9334b14986c9f604d07164ff5e6c9bedd0ab8c302b2e4a82dc5c0af7a000",
                        "prev": "0x000000000000000000000000000000000000000000000048986f6e0a4ae88409"
                    }
                ],
                "storageVariables": [
                    {
                        "name": "last_offer_id",
                        "type": "uint256",
                        "value": {
                            "current": "267151",
                            "prev": "267150",
                            "typeTag": 1
                        }
                    },
                    {
                        "name": "offers",
                        "type": "mapping(uint256 => struct SimpleMarket.OfferInfo)",
                        "value": {
                            "pairs": [
                                {
                                    "key": "266983",
                                    "value": {
                                        "fields": [
                                            {
                                                "name": "pay_amt",
                                                "type": "uint256",
                                                "value": {
                                                    "current": "0",
                                                    "prev": "8581993310439957976763",
                                                    "typeTag": 1
                                                }
                                            },
                                            {
                                                "name": "pay_gem",
                                                "type": "contract ERC20",
                                                "value": {
                                                    "current": "0x0000000000000000000000000000000000000000",
                                                    "prev": "0x89d24a6b4ccb1b6faa2625fe562bdd9a23260359",
                                                    "typeTag": 1
                                                }
                                            },
                                            {
                                                "name": "buy_amt",
                                                "type": "uint256",
                                                "value": {
                                                    "current": "0",
                                                    "prev": "29056714472729952218",
                                                    "typeTag": 1
                                                }
                                            },
                                            {
                                                "name": "buy_gem",
                                                "type": "contract ERC20",
                                                "value": {
                                                    "current": "0x0000000000000000000000000000000000000000",
                                                    "prev": "0xc02aaa39b223fe8d0a0e5c4f27ead9083c756cc2",
                                                    "typeTag": 1
                                                }
                                            },
                                            {
                                                "name": "owner",
                                                "type": "address",
                                                "value": {
                                                    "current": "0x0000000000000000000000000000000000000000",
                                                    "prev": "0x04f42d7b12de8b4b3c5995d0ecfe50c2e62f8f26",
                                                    "typeTag": 1
                                                }
                                            },
                                            {
                                                "name": "timestamp",
                                                "type": "uint64",
                                                "value": {
                                                    "current": "0",
                                                    "prev": "1561936313",
                                                    "typeTag": 1
                                                }
                                            }
                                        ],
                                        "typeTag": 3
                                    }
                                },
                                {
                                    "key": "267030",
                                    "value": {
                                        "fields": [
                                            {
                                                "name": "pay_amt",
                                                "type": "uint256",
                                                "value": {
                                                    "current": "0",
                                                    "prev": "2199999999999999738",
                                                    "typeTag": 1
                                                }
                                            },
                                            {
                                                "name": "pay_gem",
                                                "type": "contract ERC20",
                                                "value": {
                                                    "current": "0x0000000000000000000000000000000000000000",
                                                    "prev": "0x89d24a6b4ccb1b6faa2625fe562bdd9a23260359",
                                                    "typeTag": 1
                                                }
                                            },
                                            {
                                                "name": "buy_amt",
                                                "type": "uint256",
                                                "value": {
                                                    "current": "0",
                                                    "prev": "7444756522621908",
                                                    "typeTag": 1
                                                }
                                            },
                                            {
                                                "name": "buy_gem",
                                                "type": "contract ERC20",
                                                "value": {
                                                    "current": "0x0000000000000000000000000000000000000000",
                                                    "prev": "0xc02aaa39b223fe8d0a0e5c4f27ead9083c756cc2",
                                                    "typeTag": 1
                                                }
                                            },
                                            {
                                                "name": "owner",
                                                "type": "address",
                                                "value": {
                                                    "current": "0x0000000000000000000000000000000000000000",
                                                    "prev": "0x61493b7b238732408399816dad81af454e5ab709",
                                                    "typeTag": 1
                                                }
                                            },
                                            {
                                                "name": "timestamp",
                                                "type": "uint64",
                                                "value": {
                                                    "current": "0",
                                                    "prev": "1561936921",
                                                    "typeTag": 1
                                                }
                                            }
                                        ],
                                        "typeTag": 3
                                    }
                                },
                                {
                                    "key": "267031",
                                    "value": {
                                        "fields": [
                                            {
                                                "name": "pay_amt",
                                                "type": "uint256",
                                                "value": {
                                                    "current": "0",
                                                    "prev": "1339149692313753125897",
                                                    "typeTag": 1
                                                }
                                            },
                                            {
                                                "name": "pay_gem",
                                                "type": "contract ERC20",
                                                "value": {
                                                    "current": "0x0000000000000000000000000000000000000000",
                                                    "prev": "0x89d24a6b4ccb1b6faa2625fe562bdd9a23260359",
                                                    "typeTag": 1
                                                }
                                            },
                                            {
                                                "name": "buy_amt",
                                                "type": "uint256",
                                                "value": {
                                                    "current": "0",
                                                    "prev": "4531610856017488115",
                                                    "typeTag": 1
                                                }
                                            },
                                            {
                                                "name": "buy_gem",
                                                "type": "contract ERC20",
                                                "value": {
                                                    "current": "0x0000000000000000000000000000000000000000",
                                                    "prev": "0xc02aaa39b223fe8d0a0e5c4f27ead9083c756cc2",
                                                    "typeTag": 1
                                                }
                                            },
                                            {
                                                "name": "owner",
                                                "type": "address",
                                                "value": {
                                                    "current": "0x0000000000000000000000000000000000000000",
                                                    "prev": "0x04f42d7b12de8b4b3c5995d0ecfe50c2e62f8f26",
                                                    "typeTag": 1
                                                }
                                            },
                                            {
                                                "name": "timestamp",
                                                "type": "uint64",
                                                "value": {
                                                    "current": "0",
                                                    "prev": "1561936944",
                                                    "typeTag": 1
                                                }
                                            }
                                        ],
                                        "typeTag": 3
                                    }
                                },
                                {
                                    "key": "267042",
                                    "value": {
                                        "fields": [
                                            {
                                                "name": "pay_amt",
                                                "type": "uint256",
                                                "value": {
                                                    "current": "0",
                                                    "prev": "207783811779612423829",
                                                    "typeTag": 1
                                                }
                                            },
                                            {
                                                "name": "pay_gem",
                                                "type": "contract ERC20",
                                                "value": {
                                                    "current": "0x0000000000000000000000000000000000000000",
                                                    "prev": "0x89d24a6b4ccb1b6faa2625fe562bdd9a23260359",
                                                    "typeTag": 1
                                                }
                                            },
                                            {
                                                "name": "buy_amt",
                                                "type": "uint256",
                                                "value": {
                                                    "current": "0",
                                                    "prev": "703010346119540465",
                                                    "typeTag": 1
                                                }
                                            },
                                            {
                                                "name": "buy_gem",
                                                "type": "contract ERC20",
                                                "value": {
                                                    "current": "0x0000000000000000000000000000000000000000",
                                                    "prev": "0xc02aaa39b223fe8d0a0e5c4f27ead9083c756cc2",
                                                    "typeTag": 1
                                                }
                                            },
                                            {
                                                "name": "owner",
                                                "type": "address",
                                                "value": {
                                                    "current": "0x0000000000000000000000000000000000000000",
                                                    "prev": "0x04f42d7b12de8b4b3c5995d0ecfe50c2e62f8f26",
                                                    "typeTag": 1
                                                }
                                            },
                                            {
                                                "name": "timestamp",
                                                "type": "uint64",
                                                "value": {
                                                    "current": "0",
                                                    "prev": "1561937198",
                                                    "typeTag": 1
                                                }
                                            }
                                        ],
                                        "typeTag": 3
                                    }
                                },
                                {
                                    "key": "267151",
                                    "value": {
                                        "fields": [
                                            {
                                                "name": "pay_amt",
                                                "type": "uint256",
                                                "value": {
                                                    "current": "115657197238870089740",
                                                    "prev": "0",
                                                    "typeTag": 1
                                                }
                                            },
                                            {
                                                "name": "pay_gem",
                                                "type": "contract ERC20",
                                                "value": {
                                                    "current": "0xc02aaa39b223fe8d0a0e5c4f27ead9083c756cc2",
                                                    "prev": "0x0000000000000000000000000000000000000000",
                                                    "typeTag": 1
                                                }
                                            },
                                            {
                                                "name": "buy_amt",
                                                "type": "uint256",
                                                "value": {
                                                    "current": "34118873185466676473773",
                                                    "prev": "0",
                                                    "typeTag": 1
                                                }
                                            },
                                            {
                                                "name": "buy_gem",
                                                "type": "contract ERC20",
                                                "value": {
                                                    "current": "0x89d24a6b4ccb1b6faa2625fe562bdd9a23260359",
                                                    "prev": "0x0000000000000000000000000000000000000000",
                                                    "typeTag": 1
                                                }
                                            },
                                            {
                                                "name": "owner",
                                                "type": "address",
                                                "value": {
                                                    "current": "0x5c87915f26b5414e9748300caa7a67f5f0c1b989",
                                                    "prev": "0x0000000000000000000000000000000000000000",
                                                    "typeTag": 1
                                                }
                                            },
                                            {
                                                "name": "timestamp",
                                                "type": "uint64",
                                                "value": {
                                                    "current": "1561938589",
                                                    "prev": "0",
                                                    "typeTag": 1
                                                }
                                            }
                                        ],
                                        "typeTag": 3
                                    }
                                }
                            ],
                            "typeTag": 4
                        }
                    },
                    {
                        "name": "_rank",
                        "type": "mapping(uint256 => struct MatchingMarket.sortInfo)",
                        "value": {
                            "pairs": [
                                {
                                    "key": "266983",
                                    "value": {
                                        "fields": [
                                            {
                                                "name": "next",
                                                "type": "uint256",
                                                "value": {
                                                    "current": "0",
                                                    "prev": "267030",
                                                    "typeTag": 1
                                                }
                                            },
                                            {
                                                "name": "delb",
                                                "type": "uint256",
                                                "value": {
                                                    "current": "8062250",
                                                    "prev": "0",
                                                    "typeTag": 1
                                                }
                                            }
                                        ],
                                        "typeTag": 3
                                    }
                                },
                                {
                                    "key": "266987",
                                    "value": {
                                        "fields": [
                                            {
                                                "name": "next",
                                                "type": "uint256",
                                                "value": {
                                                    "current": "0",
                                                    "prev": "266983",
                                                    "typeTag": 1
                                                }
                                            }
                                        ],
                                        "typeTag": 3
                                    }
                                },
                                {
                                    "key": "267030",
                                    "value": {
                                        "fields": [
                                            {
                                                "name": "next",
                                                "type": "uint256",
                                                "value": {
                                                    "current": "0",
                                                    "prev": "267031",
                                                    "typeTag": 1
                                                }
                                            },
                                            {
                                                "name": "delb",
                                                "type": "uint256",
                                                "value": {
                                                    "current": "8062250",
                                                    "prev": "0",
                                                    "typeTag": 1
                                                }
                                            }
                                        ],
                                        "typeTag": 3
                                    }
                                },
                                {
                                    "key": "267031",
                                    "value": {
                                        "fields": [
                                            {
                                                "name": "next",
                                                "type": "uint256",
                                                "value": {
                                                    "current": "0",
                                                    "prev": "267042",
                                                    "typeTag": 1
                                                }
                                            },
                                            {
                                                "name": "delb",
                                                "type": "uint256",
                                                "value": {
                                                    "current": "8062250",
                                                    "prev": "0",
                                                    "typeTag": 1
                                                }
                                            }
                                        ],
                                        "typeTag": 3
                                    }
                                },
                                {
                                    "key": "267042",
                                    "value": {
                                        "fields": [
                                            {
                                                "name": "delb",
                                                "type": "uint256",
                                                "value": {
                                                    "current": "8062250",
                                                    "prev": "0",
                                                    "typeTag": 1
                                                }
                                            }
                                        ],
                                        "typeTag": 3
                                    }
                                },
                                {
                                    "key": "267134",
                                    "value": {
                                        "fields": [
                                            {
                                                "name": "next",
                                                "type": "uint256",
                                                "value": {
                                                    "current": "267151",
                                                    "prev": "0",
                                                    "typeTag": 1
                                                }
                                            }
                                        ],
                                        "typeTag": 3
                                    }
                                },
                                {
                                    "key": "267151",
                                    "value": {
                                        "fields": [
                                            {
                                                "name": "prev",
                                                "type": "uint256",
                                                "value": {
                                                    "current": "267134",
                                                    "prev": "0",
                                                    "typeTag": 1
                                                }
                                            }
                                        ],
                                        "typeTag": 3
                                    }
                                }
                            ],
                            "typeTag": 4
                        }
                    },
                    {
                        "name": "_best",
                        "type": "mapping(address => mapping(address => uint256))",
                        "value": {
                            "pairs": [
                                {
                                    "key": "0x89d24a6b4ccb1b6faa2625fe562bdd9a23260359",
                                    "value": {
                                        "pairs": [
                                            {
                                                "key": "0xc02aaa39b223fe8d0a0e5c4f27ead9083c756cc2",
                                                "value": {
                                                    "current": "266987",
                                                    "prev": "267042",
                                                    "typeTag": 1
                                                }
                                            }
                                        ],
                                        "typeTag": 4
                                    }
                                },
                                {
                                    "key": "0xc02aaa39b223fe8d0a0e5c4f27ead9083c756cc2",
                                    "value": {
                                        "pairs": [
                                            {
                                                "key": "0x89d24a6b4ccb1b6faa2625fe562bdd9a23260359",
                                                "value": {
                                                    "current": "267151",
                                                    "prev": "267134",
                                                    "typeTag": 1
                                                }
                                            }
                                        ],
                                        "typeTag": 4
                                    }
                                }
                            ],
                            "typeTag": 4
                        }
                    },
                    {
                        "name": "_span",
                        "type": "mapping(address => mapping(address => uint256))",
                        "value": {
                            "pairs": [
                                {
                                    "key": "0x89d24a6b4ccb1b6faa2625fe562bdd9a23260359",
                                    "value": {
                                        "pairs": [
                                            {
                                                "key": "0xc02aaa39b223fe8d0a0e5c4f27ead9083c756cc2",
                                                "value": {
                                                    "current": "230",
                                                    "prev": "234",
                                                    "typeTag": 1
                                                }
                                            }
                                        ],
                                        "typeTag": 4
                                    }
                                },
                                {
                                    "key": "0xc02aaa39b223fe8d0a0e5c4f27ead9083c756cc2",
                                    "value": {
                                        "pairs": [
                                            {
                                                "key": "0x89d24a6b4ccb1b6faa2625fe562bdd9a23260359",
                                                "value": {
                                                    "current": "155",
                                                    "prev": "154",
                                                    "typeTag": 1
                                                }
                                            }
                                        ],
                                        "typeTag": 4
                                    }
                                }
                            ],
                            "typeTag": 4
                        }
                    }
                ]
            },
            {
                "address": "0x89d24a6b4ccb1b6faa2625fe562bdd9a23260359",
                "erc": "ERC-20",
                "slots": [
                    {
                        "current": "0x0000000000000000000000000000000000000000000008f3d20e60a63cdd1053",
                        "key": "0x250ab73ac51435dc0fa578bf0587775a64885cd99ec5b90c23bd005f8f484cae",
                        "prev": "0x0000000000000000000000000000000000000000000006ce9c6d8fd777560000"
                    },
                    {
                        "current": "0x00000000000000000000000000000000000000000002d2c695fbfb0a8f9bf0ce",
                        "key": "0xc00c3281234fedbb8cd7502e8ae2cf8db801505dc1010c8eb6fe27c9cb329a0f",
                        "prev": "0x00000000000000000000000000000000000000000002d4ebcb9ccbd955230121"
                    }
                ],
                "storageVariables": [
                    {
                        "name": "_balances",
                        "type": "mapping(address => uint256)",
                        "value": {
                            "pairs": [
                                {
                                    "key": "0x39755357759ce0d7f32dc8dc45414cca409ae24e",
                                    "value": {
                                        "current": "3413211863466231918751950",
                                        "prev": "3423342990280765242278177",
                                        "typeTag": 1
                                    }
                                },
                                {
                                    "key": "0x5c87915f26b5414e9748300caa7a67f5f0c1b989",
                                    "value": {
                                        "current": "42276626814533323526227",
                                        "prev": "32145500000000000000000",
                                        "typeTag": 1
                                    }
                                }
                            ],
                            "typeTag": 4
                        }
                    }
                ]
            },
            {
                "address": "0xc02aaa39b223fe8d0a0e5c4f27ead9083c756cc2",
                "erc": "ERC-20",
                "slots": [
                    {
                        "current": "0x0000000000000000000000000000000000000000000000052a683d31d71a0c03",
                        "key": "0x3db8f5e29a62e7301dcb1d8d0603ce4ae4705b76128974982e81328262672b79",
                        "prev": "0x00000000000000000000000000000000000000000000000d4b76e4628d56dfa1"
                    },
                    {
                        "current": "0x00000000000000000000000000000000000000000000000da7c400a4b7480590",
                        "key": "0xb2e40330994059bf44999212cf59ad704322d338e0e3baf90453312d1f3a98cd",
                        "prev": "0x00000000000000000000000000000000000000000000000da7a98dad434fa9bc"
                    },
                    {
                        "current": "0x0000000000000000000000000000000000000000000001acd054a6faaf063945",
                        "key": "0xecced9b33d22c9f8431bf329c5851168432be8f905355b0611c764c4e584c0f3",
                        "prev": "0x0000000000000000000000000000000000000000000001a68b43bede5ae21939"
                    },
                    {
                        "current": "0x00000000000000000000000000000000000000000000002a39589810cab78773",
                        "key": "0x6b0a1e21898673afc0632efaccba729bb71b62b490d062d4a3b220ca8d81d800",
                        "prev": "0x0000000000000000000000000000000000000000000000285d754bf3dc972fb5"
                    }
                ],
                "storageVariables": [
                    {
                        "name": "balanceOf",
                        "type": "mapping(address => uint256)",
                        "value": {
                            "pairs": [
                                {
                                    "key": "0x04f42d7b12de8b4b3c5995d0ecfe50c2e62f8f26",
                                    "value": {
                                        "current": "778895470951801522035",
                                        "prev": "744604135276934541237",
                                        "typeTag": 1
                                    }
                                },
                                {
                                    "key": "0x39755357759ce0d7f32dc8dc45414cca409ae24e",
                                    "value": {
                                        "current": "7910218270601229252933",
                                        "prev": "7794561073362359163193",
                                        "typeTag": 1
                                    }
                                },
                                {
                                    "key": "0x5c87915f26b5414e9748300caa7a67f5f0c1b989",
                                    "value": {
                                        "current": "95289479999990139907",
                                        "prev": "245245457670249832353",
                                        "typeTag": 1
                                    }
                                },
                                {
                                    "key": "0x61493b7b238732408399816dad81af454e5ab709",
                                    "value": {
                                        "current": "251896460965443011984",
                                        "prev": "251889016208920390076",
                                        "typeTag": 1
                                    }
                                }
                            ],
                            "typeTag": 4
                        }
                    }
                ]
            }
        ]
    }
}