{
    "balance_change": {
        "balanceChanges": []
    },
    "profile": {
        "basic_info": {
            "baseFee": "",
            "blockNumber": 6713576,
            "callData": "0x4420e4860000000000000000000000006eca9cca0ab2173edbb88bacecf32cb531a5fe01",
            "debugEnable": true,
            "errorInfo": "",
            "eventCount": 0,
            "feeRecipient": "0xb2930b35844a230f00e51431acae96fe543a0347",
            "formatValue": "0",
            "gasLimit": 1000000,
            "gasPrice": "7",
            "gasUsed": 102053,
            "intTxnCount": 0,
            "internalRevert": false,
            "internalRevertMessage": "",
            "isContractCreation": false,
            "isFlashloan": false,
            "maxFee": "",
            "nonce": 17,
            "overwritedBlockNumber": -1,
            "priorityFee": "",
            "receiver": "0x62a364f7cba3be8fc9dcfdde12cabec8244af381",
            "revertMessage": "",
            "sender": "0x0111e2f0f3a9891f9deaf1361c37bfabaa5bc5ed",
            "simulationEnable": true,
            "sourceTxnHash": "0x2b4c98b22681136940142e3e207dd53e8ff45fadec01ad11c7bdf6522bda702f",
            "status": true,
            "timestamp": "2018-11-16T06:20:25Z",
            "transactionFee": "0.000714371",
            "txnHash": "0x2b4c98b22681136940142e3e207dd53e8ff45fadec01ad11c7bdf6522bda702f",
            "txnIndex": 106,
            "type": 0,
            "value": "0"
        },
        "fund_flow": [],
        "token_infos": [
            {
                "address": "0xc02aaa39b223fe8d0a0e5c4f27ead9083c756cc2",
                "decimals": 18
            },
            {
                "address": "0xeeeeeeeeeeeeeeeeeeeeeeeeeeeeeeeeeeeeeeee",
                "decimals": 18
            }
        ]
    },
    "address_label": {
        "labels": [
            {
                "address": "0x0000000000000000000000000000000000000003",
                "label": "Precompiled"
            },
            {
                "address": "0x0000000000000000000000000000000000000004",
                "label": "Precompiled"
            },
            {
                "address": "0xeeeeeeeeeeeeeeeeeeeeeeeeeeeeeeeeeeeeeeee",
                "label": "Ether"
            },
            {
                "address": "0x0000000000000000000000000000000000000001",
                "label": "Precompiled"
            },
            {
                "address": "0x0000000000000000000000000000000000000002",
                "label": "Precompiled"
            }
        ]
    },
    "trace": {
        "accountLabels": null,
        "dataMap": {
            "-1": {
                "invocation": {
                    "address": "0x0111e2f0f3a9891f9deaf1361c37bfabaa5bc5ed",
                    "callData": "",
                    "decodedMethod": null,
                    "errorInfo": "",
                    "fromAddress": "",
                    "gasUsed": 0,
                    "id": -1,
                    "methodDecoded": false,
                    "operation": "",
                    "output": "",
                    "revert": false,
                    "revertMessage": "",
                    "selector": "",
                    "status": false,
                    "value": ""
                },
                "nodeType": 0
            },
            "0": {
                "invocation": {
                    "address": "0x62a364f7cba3be8fc9dcfdde12cabec8244af381",
                    "callData": "0x0000000000000000000000006eca9cca0ab2173edbb88bacecf32cb531a5fe01",
                    "decodedMethod": {
                        "callParams": [
                            {
                                "name": "_referral",
                                "type": "address",
                                "value": "0x6eca9cca0ab2173edbb88bacecf32cb531a5fe01"
                            }
                        ],
                        "constructorArguments": "",
                        "name": "register",
                        "returnParams": [],
                        "signature": "register(address)"
                    },
                    "errorInfo": "",
                    "fromAddress": "0x0111e2f0f3a9891f9deaf1361c37bfabaa5bc5ed",
                    "gasUsed": 102053,
                    "id": 0,
                    "methodDecoded": true,
                    "operation": "CALL",
                    "output": "",
                    "revert": false,
                    "revertMessage": "",
                    "selector": "0x4420e486",
                    "status": true,
                    "value": "0"
                },
                "nodeType": 0
            }
        },
        "gasFlame": [
            {
                "children": [
                    {
                        "children": [
                            {
                                "children": [],
                                "depth": 0,
                                "name": "Initial Gas",
                                "value": 22680
                            },
                            {
                                "children": [],
                                "depth": 0,
                                "name": "Executed Gas",
                                "value": 79373
                            }
                        ],
                        "depth": -1,
                        "name": "Actual Gas Used",
                        "value": 102053
                    },
                    {
                        "children": [],
                        "depth": -1,
                        "name": "Refunded Gas",
                        "value": 0
                    }
                ],
                "depth": -2,
                "name": "Total Gas",
                "value": 102053
            }
        ],
        "isConfirmed": true,
        "mainTrace": [
            {
                "children": [
                    {
                        "children": [],
                        "depth": 0,
                        "id": 0,
                        "order": 0
                    }
                ],
                "depth": -1,
                "id": -1,
                "order": -1
            }
        ],
        "mainTraceNodeCount": 1,
        "parentIdMap": {
            "0": -1
        },
        "tidyTrace": [
            {
                "children": [
                    {
                        "children": [],
                        "depth": 0,
                        "id": 0,
                        "order": 0
                    }
                ],
                "depth": -1,
                "id": -1,
                "order": -1
            }
        ],
        "tidyTraceNodeCount": 1
    },
    "state_change": {
        "stateChanges": [
            {
                "address": "0x62a364f7cba3be8fc9dcfdde12cabec8244af381",
                "erc": "",
                "slots": [
                    {
                        "current": "0xe15bb56a7dd221afe396e8341aedfe708169635e9c8c3baa29c9fb4ca775fa60",
                        "key": "0x49c5642a4290305449077d10799421428f1378394edd0b0a184f4039ba01d760",
                        "prev": "0x0000000000000000000000000000000000000000000000000000000000000000"
                    },
                    {
                        "current": "0x0000000000000000000000000000000000000000000000000000000000000008",
                        "key": "0x272d99d733f47ce8dbc193e4dfff249fbc22776417b56e4296834a6880125ab9",
                        "prev": "0x0000000000000000000000000000000000000000000000000000000000000007"
                    },
                    {
                        "current": "0x1496a322f95b47738a3da7c2d5afb7d44a5e5929c0a38a06d0698631a00e0909",
                        "key": "0x9d1db947fb99cf1df04e39bc9654ebf8cb5b94255a6247ad4cdf6830510841ce",
                        "prev": "0x0000000000000000000000000000000000000000000000000000000000000000"
                    },
                    {
                        "current": "0x0000000000000000000000000000000000000000000000000000000000000011",
                        "key": "0xa515a7f05da1275730be0918120a61ee98c423fc83eec9e534faec93a717b815",
                        "prev": "0x0000000000000000000000000000000000000000000000000000000000000010"
                    },
                    {
                        "current": "0x0000000000000000000000000000000000000000000000000000000000000007",
                        "key": "0x419c5fc82124beb8c89cb642095057236ec72700d570773dbf3852d49630dbe7",
                        "prev": "0x0000000000000000000000000000000000000000000000000000000000000000"
                    },
                    {
                        "current": "0x00000000000000000000000000000000000000000000000000000000000040a4",
                        "key": "0x000000000000000000000000000000000000000000000000000000000000000c",
                        "prev": "0x00000000000000000000000000000000000000000000000000000000000040a3"
                    }
                ],
                "storageVariables": []
            }
        ]
    }
}