{
    "balance_change": {
        "balanceChanges": [
            {
                "account": "0xda562105caf79e9cb9fc30568a17a9435074be3d",
                "assets": [
                    {
                        "address": "0x448f3219cf2a23b0527a7a0158e7264b87f635db",
                        "amount": "1",
                        "iconUrl": "",
                        "isERC1155": false,
                        "isERC721": true,
                        "sign": true,
                        "tokenID": "666",
                        "value": ""
                    }
                ]
            },
            {
                "account": "0x0000000000000000000000000000000000000000",
                "assets": [
                    {
                        "address": "0x448f3219cf2a23b0527a7a0158e7264b87f635db",
                        "amount": "1",
                        "iconUrl": "",
                        "isERC1155": false,
                        "isERC721": true,
                        "sign": false,
                        "tokenID": "666",
                        "value": ""
                    }
                ]
            }
        ]
    },
    "profile": {
        "basic_info": {
            "baseFee": "159.27425053",
            "blockNumber": 13381603,
            "callData": "0x664743740000000000000000000000000000000000000000000000000000000000000529000000000000000000000000000000000000000000000000000000000000000800000000000000000000000000000000000000000000000000000000000000800000000000000000000000000000000000000000000000000000000000000023000000000000000000000000000000000000000000000000000000000000000600000000000000000000000000000000000000000000000000000000000000280000000000000000000000000000000000000000000000000000000000000028000000000000000000000000000000000000000000000000000000000000002a000000000000000000000000000000000000000000000000000000000000002d000000000000000000000000000000000000000000000000000000000000002f000000000000000000000000000000000000000000000000000000000000002a",
            "debugEnable": true,
            "errorInfo": "",
            "eventCount": 1,
            "feeRecipient": "0xea674fdde714fd979de3edf0f56aa9716b898ec8",
            "formatValue": "0",
            "gasLimit": 374021,
            "gasPrice": "160.77425053",
            "gasUsed": 369039,
            "intTxnCount": 1,
            "internalRevert": false,
            "internalRevertMessage": "",
            "isContractCreation": false,
            "isFlashloan": false,
            "maxFee": "166.076852872",
            "nonce": 22,
            "overwritedBlockNumber": -1,
            "priorityFee": "1.5",
            "receiver": "0x448f3219cf2a23b0527a7a0158e7264b87f635db",
            "revertMessage": "",
            "sender": "0xda562105caf79e9cb9fc30568a17a9435074be3d",
            "simulationEnable": true,
            "sourceTxnHash": "0x2bc8a3083c00592b1cfa91e45420a49340beebb28c4e5a85340be342520092c3",
            "status": true,
            "timestamp": "2021-10-09T01:13:20Z",
            "transactionFee": "0.05933196864134067",
            "txnHash": "0x2bc8a3083c00592b1cfa91e45420a49340beebb28c4e5a85340be342520092c3",
            "txnIndex": 150,
            "type": 2,
            "value": "0"
        },
        "fund_flow": [
            {
                "amount": "1",
                "from": "0x0000000000000000000000000000000000000000",
                "id": 1,
                "isERC1155": false,
                "isERC721": true,
                "isReverted": false,
                "order": 1,
                "to": "0xda562105caf79e9cb9fc30568a17a9435074be3d",
                "token": "0x448f3219cf2a23b0527a7a0158e7264b87f635db",
                "tokenID": "666"
            }
        ],
        "token_infos": [
            {
                "address": "0xc02aaa39b223fe8d0a0e5c4f27ead9083c756cc2",
                "decimals": 18
            },
            {
                "address": "0xeeeeeeeeeeeeeeeeeeeeeeeeeeeeeeeeeeeeeeee",
                "decimals": 18
            }
        ]
    },
    "address_label": {
        "labels": [
            {
                "address": "0x0000000000000000000000000000000000000001",
                "label": "Precompiled"
            },
            {
                "address": "0x0000000000000000000000000000000000000002",
                "label": "Precompiled"
            },
            {
                "address": "0x0000000000000000000000000000000000000003",
                "label": "Precompiled"
            },
            {
                "address": "0x0000000000000000000000000000000000000004",
                "label": "Precompiled"
            },
            {
                "address": "0xeeeeeeeeeeeeeeeeeeeeeeeeeeeeeeeeeeeeeeee",
                "label": "Ether"
            },
            {
                "address": "0x8d04a8c79ceb0889bdd12acdf3fa9d207ed3ff63",
                "label": "Blitmap: BLIT Token"
            },
            {
                "address": "0x448f3219cf2a23b0527a7a0158e7264b87f635db",
                "label": "The Blitnauts (NAUT)"
            }
        ]
    },
    "trace": {
        "accountLabels": null,
        "dataMap": {
            "-1": {
                "invocation": {
                    "address": "0xda562105caf79e9cb9fc30568a17a9435074be3d",
                    "callData": "",
                    "decodedMethod": null,
                    "errorInfo": "",
                    "fromAddress": "",
                    "gasUsed": 0,
                    "id": -1,
                    "methodDecoded": false,
                    "operation": "",
                    "output": "",
                    "revert": false,
                    "revertMessage": "",
                    "selector": "",
                    "status": false,
                    "value": ""
                },
                "nodeType": 0
            },
            "0": {
                "invocation": {
                    "address": "0x448f3219cf2a23b0527a7a0158e7264b87f635db",
                    "callData": "0x0000000000000000000000000000000000000000000000000000000000000529000000000000000000000000000000000000000000000000000000000000000800000000000000000000000000000000000000000000000000000000000000800000000000000000000000000000000000000000000000000000000000000023000000000000000000000000000000000000000000000000000000000000000600000000000000000000000000000000000000000000000000000000000000280000000000000000000000000000000000000000000000000000000000000028000000000000000000000000000000000000000000000000000000000000002a000000000000000000000000000000000000000000000000000000000000002d000000000000000000000000000000000000000000000000000000000000002f000000000000000000000000000000000000000000000000000000000000002a",
                    "decodedMethod": {
                        "callParams": [
                            {
                                "name": "blitmapId",
                                "type": "uint256",
                                "value": "1,321"
                            },
                            {
                                "name": "frameId",
                                "type": "uint16",
                                "value": "8"
                            },
                            {
                                "name": "colors",
                                "type": "uint8[]",
                                "value": [
                                    "40",
                                    "40",
                                    "42",
                                    "45",
                                    "47",
                                    "42"
                                ]
                            },
                            {
                                "name": "backgroundColor",
                                "type": "uint8",
                                "value": "35"
                            }
                        ],
                        "constructorArguments": "",
                        "name": "mintInstance",
                        "returnParams": [],
                        "signature": "mintInstance(uint256,uint16,uint8[],uint8)"
                    },
                    "errorInfo": "",
                    "fromAddress": "0xda562105caf79e9cb9fc30568a17a9435074be3d",
                    "gasUsed": 369039,
                    "id": 0,
                    "methodDecoded": true,
                    "operation": "CALL",
                    "output": "",
                    "revert": false,
                    "revertMessage": "",
                    "selector": "0x66474374",
                    "status": true,
                    "value": "0"
                },
                "nodeType": 0
            },
            "1": {
                "invocation": {
                    "address": "0x8d04a8c79ceb0889bdd12acdf3fa9d207ed3ff63",
                    "callData": "0x0000000000000000000000000000000000000000000000000000000000000529",
                    "decodedMethod": {
                        "callParams": [
                            {
                                "name": "tokenId",
                                "type": "uint256",
                                "value": "1,321"
                            }
                        ],
                        "constructorArguments": "",
                        "name": "ownerOf",
                        "returnParams": [
                            {
                                "name": "",
                                "type": "address",
                                "value": "0xda562105caf79e9cb9fc30568a17a9435074be3d"
                            }
                        ],
                        "signature": "ownerOf(uint256)"
                    },
                    "errorInfo": "",
                    "fromAddress": "0x448f3219cf2a23b0527a7a0158e7264b87f635db",
                    "gasUsed": 2630,
                    "id": 1,
                    "methodDecoded": true,
                    "operation": "STATICCALL",
                    "output": "0x000000000000000000000000da562105caf79e9cb9fc30568a17a9435074be3d",
                    "revert": false,
                    "revertMessage": "",
                    "selector": "0x6352211e",
                    "status": true,
                    "value": "0"
                },
                "nodeType": 0
            },
            "2": {
                "event": {
                    "contract": "0x448f3219cf2a23b0527a7a0158e7264b87f635db",
                    "decodedLog": {
                        "name": "Transfer",
                        "params": [
                            {
                                "name": "from",
                                "type": "address",
                                "value": "0x0000000000000000000000000000000000000000"
                            },
                            {
                                "name": "to",
                                "type": "address",
                                "value": "0xda562105caf79e9cb9fc30568a17a9435074be3d"
                            },
                            {
                                "decimalAvailable": true,
                                "name": "tokenId",
                                "type": "uint256",
                                "value": "666"
                            }
                        ],
                        "signature": "Transfer(address,address,uint256)"
                    },
                    "id": 2,
                    "logData": "0x",
                    "logDecoded": true,
                    "operation": "EVENT",
                    "revert": false,
                    "status": true,
                    "topics": [
                        "0xddf252ad1be2c89b69c2b068fc378daa952ba7f163c4a11628f55a4df523b3ef",
                        "0x0000000000000000000000000000000000000000000000000000000000000000",
                        "0x000000000000000000000000da562105caf79e9cb9fc30568a17a9435074be3d",
                        "0x000000000000000000000000000000000000000000000000000000000000029a"
                    ]
                },
                "nodeType": 1
            }
        },
        "gasFlame": [
            {
                "children": [
                    {
                        "children": [
                            {
                                "children": [],
                                "depth": 0,
                                "name": "Initial Gas",
                                "value": 22616
                            },
                            {
                                "children": [
                                    {
                                        "children": [],
                                        "depth": 1,
                                        "name": "ownerOf",
                                        "value": 2630
                                    }
                                ],
                                "depth": 0,
                                "name": "Executed Gas",
                                "value": 349223
                            }
                        ],
                        "depth": -1,
                        "name": "Actual Gas Used",
                        "value": 369039
                    },
                    {
                        "children": [],
                        "depth": -1,
                        "name": "Refunded Gas",
                        "value": 2800
                    }
                ],
                "depth": -2,
                "name": "Total Gas",
                "value": 371839
            }
        ],
        "isConfirmed": true,
        "mainTrace": [
            {
                "children": [
                    {
                        "children": [
                            {
                                "children": [],
                                "depth": 1,
                                "id": 1,
                                "order": 1
                            },
                            {
                                "children": [],
                                "depth": 1,
                                "id": 2,
                                "order": 2
                            }
                        ],
                        "depth": 0,
                        "id": 0,
                        "order": 0
                    }
                ],
                "depth": -1,
                "id": -1,
                "order": -1
            }
        ],
        "mainTraceNodeCount": 3,
        "parentIdMap": {
            "0": -1,
            "1": 0,
            "2": 0
        },
        "tidyTrace": [
            {
                "children": [
                    {
                        "children": [
                            {
                                "children": [],
                                "depth": 1,
                                "id": 2,
                                "order": 2
                            }
                        ],
                        "depth": 0,
                        "id": 0,
                        "order": 0
                    }
                ],
                "depth": -1,
                "id": -1,
                "order": -1
            }
        ],
        "tidyTraceNodeCount": 2
    },
    "state_change": {
        "stateChanges": [
            {
                "address": "0x448f3219cf2a23b0527a7a0158e7264b87f635db",
                "erc": "ERC-721",
                "slots": [
                    {
                        "current": "0x000000000000000000000000000000000000000000000000000000000000029b",
                        "key": "0x000000000000000000000000000000000000000000000000000000000000000f",
                        "prev": "0x000000000000000000000000000000000000000000000000000000000000029a"
                    },
                    {
                        "current": "0x000000000000000000000000000000000000000000000000000000000000004c",
                        "key": "0x8d1108e10bcb7c27dddfc02ed9d693a074039d026cf4ea4240b40f7d581ad506",
                        "prev": "0x0000000000000000000000000000000000000000000000000000000000000000"
                    },
                    {
                        "current": "0x000000000000000000000000000000000000000000000000000000000000029a",
                        "key": "0xc50a2fc98f85b39cdeaaa80931f884ba9aa3b85b493f75cf9bd044fc0caeb2ab",
                        "prev": "0x0000000000000000000000000000000000000000000000000000000000000000"
                    },
                    {
                        "current": "0x0000000000000000000000000000000000000000000000000000000000000001",
                        "key": "0xa8f778e78bc5f28511dc887969683d7b0c1f712cf25cf0a47758823daa42ff83",
                        "prev": "0x0000000000000000000000000000000000000000000000000000000000000000"
                    },
                    {
                        "current": "0x0000000000000000000000000000000000000000000000000000000000000008",
                        "key": "0x8d1108e10bcb7c27dddfc02ed9d693a074039d026cf4ea4240b40f7d581ad504",
                        "prev": "0x0000000000000000000000000000000000000000000000000000000000000000"
                    },
                    {
                        "current": "0x000000000000000000000000da562105caf79e9cb9fc30568a17a9435074be3d",
                        "key": "0x5122a98bd0a3a37198ae68ef1f5161d48df28e21c1695d40d5e63d3620f03bb4",
                        "prev": "0x0000000000000000000000000000000000000000000000000000000000000000"
                    },
                    {
                        "current": "0x000000000000000000000000000000000000000000000000000000000000004d",
                        "key": "0x855d8d6df66418fea944661cfca175a2245b01f09908f1f662c4fa2b3cbf9299",
                        "prev": "0x000000000000000000000000000000000000000000000000000000000000004c"
                    },
                    {
                        "current": "0x0000000000000000000000000000000000000000000000000000000000000023",
                        "key": "0x8d1108e10bcb7c27dddfc02ed9d693a074039d026cf4ea4240b40f7d581ad508",
                        "prev": "0x0000000000000000000000000000000000000000000000000000000000000000"
                    },
                    {
                        "current": "0x00000000000000000000000000000000000000000000000000002a2f2d2a2828",
                        "key": "0x44570e06f36016faefdcf2d9a93cb2e4bb9bac381cc0eaf28fa0e97efc15ea8a",
                        "prev": "0x0000000000000000000000000000000000000000000000000000000000000000"
                    },
                    {
                        "current": "0x000000000000000000000000000000000000000000000000000000000000029b",
                        "key": "0x0000000000000000000000000000000000000000000000000000000000000008",
                        "prev": "0x000000000000000000000000000000000000000000000000000000000000029a"
                    },
                    {
                        "current": "0x0000000000000000000000000000000000000000000000000000000000000529",
                        "key": "0x8d1108e10bcb7c27dddfc02ed9d693a074039d026cf4ea4240b40f7d581ad505",
                        "prev": "0x0000000000000000000000000000000000000000000000000000000000000000"
                    },
                    {
                        "current": "0x0000000000000000000000000000000000000000000000000000000000000006",
                        "key": "0x8d1108e10bcb7c27dddfc02ed9d693a074039d026cf4ea4240b40f7d581ad507",
                        "prev": "0x0000000000000000000000000000000000000000000000000000000000000000"
                    },
                    {
                        "current": "0x0000000000000000000000000000000000000000000000000000000000000013",
                        "key": "0xe44897afb3bd236eac05b9b70a8f6379f8b8125a7d8bca942f02b2d04dbbfcf1",
                        "prev": "0x0000000000000000000000000000000000000000000000000000000000000000"
                    },
                    {
                        "current": "0x0000000000000000000000000000000000000000000000000000000000000001",
                        "key": "0x45379134096b1236ed36dcf2b27af8076335b97ad2c274e6d3e5f99d5fcfb246",
                        "prev": "0x0000000000000000000000000000000000000000000000000000000000000000"
                    },
                    {
                        "current": "0x000000000000000000000000000000000000000000000000000000000000029a",
                        "key": "0xbcd43996da5fa96926660dbbbc4df90a050af58d4a4c2fa16c861acd2ea3f120",
                        "prev": "0x0000000000000000000000000000000000000000000000000000000000000000"
                    },
                    {
                        "current": "0x000000000000000000000000000000000000000000000000000000000000029a",
                        "key": "0xf3f7a9fe364faab93b216da50a3214154f22a0a2b415b23a84c8169e8b63717d",
                        "prev": "0x0000000000000000000000000000000000000000000000000000000000000000"
                    },
                    {
                        "current": "0x0000000000000000000000000000000000000000000000000000000000000014",
                        "key": "0x53be622c73d1c06b1e2af1f62977e0042044a7056159cd18651237f000ba10fa",
                        "prev": "0x0000000000000000000000000000000000000000000000000000000000000013"
                    }
                ],
                "storageVariables": [
                    {
                        "name": "instanceCount",
                        "type": "mapping(uint256 => uint256)",
                        "value": {
                            "pairs": [
                                {
                                    "key": "8",
                                    "value": {
                                        "current": "77",
                                        "prev": "76",
                                        "typeTag": 1
                                    }
                                }
                            ],
                            "typeTag": 4
                        }
                    },
                    {
                        "name": "_ownedTokens",
                        "type": "mapping(address => mapping(uint256 => uint256))",
                        "value": {
                            "pairs": [
                                {
                                    "key": "0xda562105caf79e9cb9fc30568a17a9435074be3d",
                                    "value": {
                                        "pairs": [
                                            {
                                                "key": "19",
                                                "value": {
                                                    "current": "666",
                                                    "prev": "0",
                                                    "typeTag": 1
                                                }
                                            }
                                        ],
                                        "typeTag": 4
                                    }
                                }
                            ],
                            "typeTag": 4
                        }
                    },
                    {
                        "name": "_allTokensIndex",
                        "type": "mapping(uint256 => uint256)",
                        "value": {
                            "pairs": [
                                {
                                    "key": "666",
                                    "value": {
                                        "current": "666",
                                        "prev": "0",
                                        "typeTag": 1
                                    }
                                }
                            ],
                            "typeTag": 4
                        }
                    },
                    {
                        "name": "blitnautInstances",
                        "type": "struct Blitnauts.BlitnautInstanceData[]",
                        "value": {
                            "elemType": "struct Blitnauts.BlitnautInstanceData",
                            "elems": [
                                {
                                    "index": 666,
                                    "value": {
                                        "fields": [
                                            {
                                                "name": "frameId",
                                                "type": "uint256",
                                                "value": {
                                                    "current": "8",
                                                    "prev": "0",
                                                    "typeTag": 1
                                                }
                                            },
                                            {
                                                "name": "blitmapId",
                                                "type": "uint256",
                                                "value": {
                                                    "current": "1321",
                                                    "prev": "0",
                                                    "typeTag": 1
                                                }
                                            },
                                            {
                                                "name": "instanceId",
                                                "type": "uint256",
                                                "value": {
                                                    "current": "76",
                                                    "prev": "0",
                                                    "typeTag": 1
                                                }
                                            },
                                            {
                                                "name": "colors",
                                                "type": "uint8[]",
                                                "value": {
                                                    "elemType": "uint8",
                                                    "elems": [
                                                        {
                                                            "index": 0,
                                                            "value": {
                                                                "current": "40",
                                                                "prev": "0",
                                                                "typeTag": 1
                                                            }
                                                        },
                                                        {
                                                            "index": 1,
                                                            "value": {
                                                                "current": "40",
                                                                "prev": "0",
                                                                "typeTag": 1
                                                            }
                                                        },
                                                        {
                                                            "index": 2,
                                                            "value": {
                                                                "current": "42",
                                                                "prev": "0",
                                                                "typeTag": 1
                                                            }
                                                        },
                                                        {
                                                            "index": 3,
                                                            "value": {
                                                                "current": "45",
                                                                "prev": "0",
                                                                "typeTag": 1
                                                            }
                                                        },
                                                        {
                                                            "index": 4,
                                                            "value": {
                                                                "current": "47",
                                                                "prev": "0",
                                                                "typeTag": 1
                                                            }
                                                        },
                                                        {
                                                            "index": 5,
                                                            "value": {
                                                                "current": "42",
                                                                "prev": "0",
                                                                "typeTag": 1
                                                            }
                                                        }
                                                    ],
                                                    "typeTag": 2
                                                }
                                            },
                                            {
                                                "name": "backgroundColor",
                                                "type": "uint8",
                                                "value": {
                                                    "current": "35",
                                                    "prev": "0",
                                                    "typeTag": 1
                                                }
                                            }
                                        ],
                                        "typeTag": 3
                                    }
                                }
                            ],
                            "typeTag": 2
                        }
                    },
                    {
                        "name": "_balances",
                        "type": "mapping(address => uint256)",
                        "value": {
                            "pairs": [
                                {
                                    "key": "0xda562105caf79e9cb9fc30568a17a9435074be3d",
                                    "value": {
                                        "current": "20",
                                        "prev": "19",
                                        "typeTag": 1
                                    }
                                }
                            ],
                            "typeTag": 4
                        }
                    },
                    {
                        "name": "_owners",
                        "type": "mapping(uint256 => address)",
                        "value": {
                            "pairs": [
                                {
                                    "key": "666",
                                    "value": {
                                        "current": "0xda562105caf79e9cb9fc30568a17a9435074be3d",
                                        "prev": "0x0000000000000000000000000000000000000000",
                                        "typeTag": 1
                                    }
                                }
                            ],
                            "typeTag": 4
                        }
                    },
                    {
                        "name": "craftHashes",
                        "type": "mapping(bytes32 => bool)",
                        "value": {
                            "pairs": [
                                {
                                    "key": "0x5f130af92592029f0fdada781850390cce7f02e042fe52d4d540f80023cb4b28",
                                    "value": {
                                        "current": "true",
                                        "prev": "false",
                                        "typeTag": 1
                                    }
                                }
                            ],
                            "typeTag": 4
                        }
                    },
                    {
                        "name": "_allTokens",
                        "type": "uint256[]",
                        "value": {
                            "elemType": "uint256",
                            "elems": [
                                {
                                    "index": 666,
                                    "value": {
                                        "current": "666",
                                        "prev": "0",
                                        "typeTag": 1
                                    }
                                }
                            ],
                            "typeTag": 2
                        }
                    },
                    {
                        "name": "blitmapRedemptions",
                        "type": "mapping(uint256 => bool)",
                        "value": {
                            "pairs": [
                                {
                                    "key": "1321",
                                    "value": {
                                        "current": "true",
                                        "prev": "false",
                                        "typeTag": 1
                                    }
                                }
                            ],
                            "typeTag": 4
                        }
                    },
                    {
                        "name": "_ownedTokensIndex",
                        "type": "mapping(uint256 => uint256)",
                        "value": {
                            "pairs": [
                                {
                                    "key": "666",
                                    "value": {
                                        "current": "19",
                                        "prev": "0",
                                        "typeTag": 1
                                    }
                                }
                            ],
                            "typeTag": 4
                        }
                    }
                ]
            }
        ]
    }
}