{
    "balance_change": {
        "balanceChanges": [
            {
                "account": "0x8f617e8c768fe571eb01490ed104dd205513ef48",
                "assets": [
                    {
                        "address": "0x6b175474e89094c44da98b954eedeac495271d0f",
                        "amount": "3,905.269126293669450872",
                        "iconUrl": "https://assets.blocksec.com/icon/39aead569b9c011cb6f69734d9abbc9ab6a80049fe93bbd12bb473a3e0e859a3.png",
                        "isERC1155": false,
                        "isERC721": false,
                        "sign": false,
                        "value": "3912.414948"
                    }
                ]
            },
            {
                "account": "0x5d3a536e4d6dbd6114cc1ead35777bab948e3643",
                "assets": [
                    {
                        "address": "0x6b175474e89094c44da98b954eedeac495271d0f",
                        "amount": "3,905.269126293669450872",
                        "iconUrl": "https://assets.blocksec.com/icon/39aead569b9c011cb6f69734d9abbc9ab6a80049fe93bbd12bb473a3e0e859a3.png",
                        "isERC1155": false,
                        "isERC721": false,
                        "sign": true,
                        "value": "3912.414948"
                    }
                ]
            }
        ]
    },
    "profile": {
        "basic_info": {
            "baseFee": "",
            "blockNumber": 12621378,
            "callData": "0x0e7527020000000000000000000000000000000000000000000000d3b47f0b5c8a469478",
            "debugEnable": true,
            "errorInfo": "",
            "eventCount": 4,
            "feeRecipient": "0x8595dd9e0438640b5e1254f9df579ac12a86865f",
            "formatValue": "0",
            "gasLimit": 202020,
            "gasPrice": "10",
            "gasUsed": 141525,
            "intTxnCount": 15,
            "internalRevert": false,
            "internalRevertMessage": "",
            "isContractCreation": false,
            "isFlashloan": false,
            "maxFee": "",
            "nonce": 43,
            "overwritedBlockNumber": -1,
            "priorityFee": "",
            "receiver": "0x5d3a536e4d6dbd6114cc1ead35777bab948e3643",
            "revertMessage": "",
            "sender": "0x8f617e8c768fe571eb01490ed104dd205513ef48",
            "simulationEnable": true,
            "sourceTxnHash": "0x2b28b8fcebe5fce7197a7ce2ea58c98e616db4eb9ee4a8c8a27e498fbb0d1deb",
            "status": true,
            "timestamp": "2021-06-12T19:00:02Z",
            "transactionFee": "0.00141525",
            "txnHash": "0x2b28b8fcebe5fce7197a7ce2ea58c98e616db4eb9ee4a8c8a27e498fbb0d1deb",
            "txnIndex": 163,
            "type": 0,
            "value": "0"
        },
        "fund_flow": [
            {
                "amount": "3,905.269126293669450872",
                "from": "0x8f617e8c768fe571eb01490ed104dd205513ef48",
                "id": 1,
                "isERC1155": false,
                "isERC721": false,
                "isReverted": false,
                "order": 1,
                "to": "0x5d3a536e4d6dbd6114cc1ead35777bab948e3643",
                "token": "0x6b175474e89094c44da98b954eedeac495271d0f"
            }
        ],
        "token_infos": [
            {
                "address": "0x6b175474e89094c44da98b954eedeac495271d0f",
                "decimals": 18
            },
            {
                "address": "0xc02aaa39b223fe8d0a0e5c4f27ead9083c756cc2",
                "decimals": 18
            },
            {
                "address": "0xeeeeeeeeeeeeeeeeeeeeeeeeeeeeeeeeeeeeeeee",
                "decimals": 18
            }
        ]
    },
    "address_label": {
        "labels": [
            {
                "address": "0x6b175474e89094c44da98b954eedeac495271d0f",
                "label": "Sky: Dai Stablecoin"
            },
            {
                "address": "0xbe7616b06f71e363a310aa8ce8ad99654401ead7",
                "label": "Comptroller"
            },
            {
                "address": "0xfb564da37b41b2f6b6edcc3e56fbf523bd9f2012",
                "label": "JumpRateModelV2"
            },
            {
                "address": "0x5d3a536e4d6dbd6114cc1ead35777bab948e3643",
                "label": "Compound: cDAI Token"
            },
            {
                "address": "0x0000000000000000000000000000000000000002",
                "label": "Precompiled"
            },
            {
                "address": "0x0000000000000000000000000000000000000003",
                "label": "Precompiled"
            },
            {
                "address": "0xeeeeeeeeeeeeeeeeeeeeeeeeeeeeeeeeeeeeeeee",
                "label": "Ether"
            },
            {
                "address": "0x3d9819210a31b4961b30ef54be2aed79b9c9cd3b",
                "label": "Compound: Comptroller"
            },
            {
                "address": "0x976aa93ca5aaa569109f4267589c619a097f001d",
                "label": "CErc20Delegate"
            },
            {
                "address": "0x0000000000000000000000000000000000000001",
                "label": "Precompiled"
            },
            {
                "address": "0x0000000000000000000000000000000000000004",
                "label": "Precompiled"
            }
        ]
    },
    "trace": {
        "accountLabels": null,
        "dataMap": {
            "-1": {
                "invocation": {
                    "address": "0x8f617e8c768fe571eb01490ed104dd205513ef48",
                    "callData": "",
                    "decodedMethod": null,
                    "errorInfo": "",
                    "fromAddress": "",
                    "gasUsed": 0,
                    "id": -1,
                    "methodDecoded": false,
                    "operation": "",
                    "output": "",
                    "revert": false,
                    "revertMessage": "",
                    "selector": "",
                    "status": false,
                    "value": ""
                },
                "nodeType": 0
            },
            "0": {
                "invocation": {
                    "address": "0x5d3a536e4d6dbd6114cc1ead35777bab948e3643",
                    "callData": "0x0000000000000000000000000000000000000000000000d3b47f0b5c8a469478",
                    "decodedMethod": {
                        "callParams": [
                            {
                                "name": "repayAmount",
                                "type": "uint256",
                                "value": "3,905,269,126,293,669,450,872"
                            }
                        ],
                        "constructorArguments": "",
                        "name": "repayBorrow",
                        "returnParams": [
                            {
                                "name": "",
                                "type": "uint256",
                                "value": "0"
                            }
                        ],
                        "signature": "repayBorrow(uint256)"
                    },
                    "errorInfo": "",
                    "fromAddress": "0x8f617e8c768fe571eb01490ed104dd205513ef48",
                    "gasUsed": 141525,
                    "id": 0,
                    "methodDecoded": true,
                    "operation": "CALL",
                    "output": "0x0000000000000000000000000000000000000000000000000000000000000000",
                    "revert": false,
                    "revertMessage": "",
                    "selector": "0x0e752702",
                    "status": true,
                    "value": "0"
                },
                "nodeType": 0
            },
            "1": {
                "invocation": {
                    "address": "0x976aa93ca5aaa569109f4267589c619a097f001d",
                    "callData": "0x0000000000000000000000000000000000000000000000d3b47f0b5c8a469478",
                    "decodedMethod": {
                        "callParams": [
                            {
                                "name": "repayAmount",
                                "type": "uint256",
                                "value": "3,905,269,126,293,669,450,872"
                            }
                        ],
                        "constructorArguments": "",
                        "name": "repayBorrow",
                        "returnParams": [
                            {
                                "name": "",
                                "type": "uint256",
                                "value": "0"
                            }
                        ],
                        "signature": "repayBorrow(uint256)"
                    },
                    "errorInfo": "",
                    "fromAddress": "0x5d3a536e4d6dbd6114cc1ead35777bab948e3643",
                    "gasUsed": 132142,
                    "id": 1,
                    "methodDecoded": true,
                    "operation": "DELEGATECALL",
                    "output": "0x0000000000000000000000000000000000000000000000000000000000000000",
                    "revert": false,
                    "revertMessage": "",
                    "selector": "0x0e752702",
                    "status": true,
                    "value": "0"
                },
                "nodeType": 0
            },
            "10": {
                "invocation": {
                    "address": "0x5d3a536e4d6dbd6114cc1ead35777bab948e3643",
                    "callData": "0x0000000000000000000000000000000000000000000000000000000000000020000000000000000000000000000000000000000000000000000000000000002495dd91930000000000000000000000008f617e8c768fe571eb01490ed104dd205513ef4800000000000000000000000000000000000000000000000000000000",
                    "decodedMethod": {
                        "callParams": [
                            {
                                "name": "data",
                                "type": "bytes",
                                "value": "0x95dd91930000000000000000000000008f617e8c768fe571eb01490ed104dd205513ef48"
                            }
                        ],
                        "constructorArguments": "",
                        "name": "delegateToImplementation",
                        "returnParams": [
                            {
                                "name": "",
                                "type": "bytes",
                                "value": "0x00000000000000000000000000000000000000000000016097afce89a669b833"
                            }
                        ],
                        "signature": "delegateToImplementation(bytes)"
                    },
                    "errorInfo": "",
                    "fromAddress": "0x5d3a536e4d6dbd6114cc1ead35777bab948e3643",
                    "gasUsed": 7105,
                    "id": 10,
                    "methodDecoded": true,
                    "operation": "STATICCALL",
                    "output": "0x0000000000000000000000000000000000000000000000000000000000000020000000000000000000000000000000000000000000000000000000000000002000000000000000000000000000000000000000000000016097afce89a669b833",
                    "revert": false,
                    "revertMessage": "",
                    "selector": "0x0933c1ed",
                    "status": true,
                    "value": "0"
                },
                "nodeType": 0
            },
            "11": {
                "invocation": {
                    "address": "0x976aa93ca5aaa569109f4267589c619a097f001d",
                    "callData": "0x0000000000000000000000008f617e8c768fe571eb01490ed104dd205513ef48",
                    "decodedMethod": {
                        "callParams": [
                            {
                                "name": "account",
                                "type": "address",
                                "value": "0x8f617e8c768fe571eb01490ed104dd205513ef48"
                            }
                        ],
                        "constructorArguments": "",
                        "name": "borrowBalanceStored",
                        "returnParams": [
                            {
                                "name": "",
                                "type": "uint256",
                                "value": "6,504,184,095,857,011,439,667"
                            }
                        ],
                        "signature": "borrowBalanceStored(address)"
                    },
                    "errorInfo": "",
                    "fromAddress": "0x5d3a536e4d6dbd6114cc1ead35777bab948e3643",
                    "gasUsed": 5448,
                    "id": 11,
                    "methodDecoded": true,
                    "operation": "DELEGATECALL",
                    "output": "0x00000000000000000000000000000000000000000000016097afce89a669b833",
                    "revert": false,
                    "revertMessage": "",
                    "selector": "0x95dd9193",
                    "status": true,
                    "value": "0"
                },
                "nodeType": 0
            },
            "12": {
                "event": {
                    "contract": "0x3d9819210a31b4961b30ef54be2aed79b9c9cd3b",
                    "decodedLog": {
                        "name": "DistributedBorrowerComp",
                        "params": [
                            {
                                "name": "cToken",
                                "type": "address",
                                "value": "0x5d3a536e4d6dbd6114cc1ead35777bab948e3643"
                            },
                            {
                                "name": "borrower",
                                "type": "address",
                                "value": "0x8f617e8c768fe571eb01490ed104dd205513ef48"
                            },
                            {
                                "name": "compDelta",
                                "type": "uint256",
                                "value": "21,159,427,487,551,533"
                            },
                            {
                                "name": "compBorrowIndex",
                                "type": "uint256",
                                "value": "291,741,797,864,514,365,034,966,938,086,573"
                            }
                        ],
                        "signature": "DistributedBorrowerComp(address,address,uint256,uint256)"
                    },
                    "id": 12,
                    "logData": "0x000000000000000000000000000000000000000000000000004b2c631f0bd02d0000000000000000000000000000000000000e624c97109cab2bcf4446b8ecad",
                    "logDecoded": true,
                    "operation": "EVENT",
                    "revert": false,
                    "status": true,
                    "topics": [
                        "0x1fc3ecc087d8d2d15e23d0032af5a47059c3892d003d8e139fdcb6bb327c99a6",
                        "0x0000000000000000000000005d3a536e4d6dbd6114cc1ead35777bab948e3643",
                        "0x0000000000000000000000008f617e8c768fe571eb01490ed104dd205513ef48"
                    ]
                },
                "nodeType": 1
            },
            "13": {
                "invocation": {
                    "address": "0x6b175474e89094c44da98b954eedeac495271d0f",
                    "callData": "0x0000000000000000000000005d3a536e4d6dbd6114cc1ead35777bab948e3643",
                    "decodedMethod": {
                        "callParams": [
                            {
                                "name": "",
                                "type": "address",
                                "value": "0x5d3a536e4d6dbd6114cc1ead35777bab948e3643"
                            }
                        ],
                        "constructorArguments": "",
                        "name": "balanceOf",
                        "returnParams": [
                            {
                                "decimalAvailable": true,
                                "name": "",
                                "type": "uint256",
                                "value": "1,055,075,539,627,946,924,635,171,274"
                            }
                        ],
                        "signature": "balanceOf(address)"
                    },
                    "errorInfo": "",
                    "fromAddress": "0x5d3a536e4d6dbd6114cc1ead35777bab948e3643",
                    "gasUsed": 602,
                    "id": 13,
                    "methodDecoded": true,
                    "operation": "STATICCALL",
                    "output": "0x00000000000000000000000000000000000000000368bcef9c2c06eacc19a9ca",
                    "revert": false,
                    "revertMessage": "",
                    "selector": "0x70a08231",
                    "status": true,
                    "value": "0"
                },
                "nodeType": 0
            },
            "14": {
                "invocation": {
                    "address": "0x6b175474e89094c44da98b954eedeac495271d0f",
                    "callData": "0x0000000000000000000000008f617e8c768fe571eb01490ed104dd205513ef480000000000000000000000005d3a536e4d6dbd6114cc1ead35777bab948e36430000000000000000000000000000000000000000000000d3b47f0b5c8a469478",
                    "decodedMethod": {
                        "callParams": [
                            {
                                "name": "src",
                                "type": "address",
                                "value": "0x8f617e8c768fe571eb01490ed104dd205513ef48"
                            },
                            {
                                "name": "dst",
                                "type": "address",
                                "value": "0x5d3a536e4d6dbd6114cc1ead35777bab948e3643"
                            },
                            {
                                "decimalAvailable": true,
                                "name": "wad",
                                "type": "uint256",
                                "value": "3,905,269,126,293,669,450,872"
                            }
                        ],
                        "constructorArguments": "",
                        "name": "transferFrom",
                        "returnParams": [
                            {
                                "name": "",
                                "type": "bool",
                                "value": true
                            }
                        ],
                        "signature": "transferFrom(address,address,uint256)"
                    },
                    "errorInfo": "",
                    "fromAddress": "0x5d3a536e4d6dbd6114cc1ead35777bab948e3643",
                    "gasUsed": 13418,
                    "id": 14,
                    "methodDecoded": true,
                    "operation": "CALL",
                    "output": "0x0000000000000000000000000000000000000000000000000000000000000001",
                    "revert": false,
                    "revertMessage": "",
                    "selector": "0x23b872dd",
                    "status": true,
                    "value": "0"
                },
                "nodeType": 0
            },
            "15": {
                "event": {
                    "contract": "0x6b175474e89094c44da98b954eedeac495271d0f",
                    "decodedLog": {
                        "name": "Transfer",
                        "params": [
                            {
                                "name": "src",
                                "type": "address",
                                "value": "0x8f617e8c768fe571eb01490ed104dd205513ef48"
                            },
                            {
                                "name": "dst",
                                "type": "address",
                                "value": "0x5d3a536e4d6dbd6114cc1ead35777bab948e3643"
                            },
                            {
                                "decimalAvailable": true,
                                "name": "wad",
                                "type": "uint256",
                                "value": "3,905,269,126,293,669,450,872"
                            }
                        ],
                        "signature": "Transfer(address,address,uint256)"
                    },
                    "id": 15,
                    "logData": "0x0000000000000000000000000000000000000000000000d3b47f0b5c8a469478",
                    "logDecoded": true,
                    "operation": "EVENT",
                    "revert": false,
                    "status": true,
                    "topics": [
                        "0xddf252ad1be2c89b69c2b068fc378daa952ba7f163c4a11628f55a4df523b3ef",
                        "0x0000000000000000000000008f617e8c768fe571eb01490ed104dd205513ef48",
                        "0x0000000000000000000000005d3a536e4d6dbd6114cc1ead35777bab948e3643"
                    ]
                },
                "nodeType": 1
            },
            "16": {
                "invocation": {
                    "address": "0x6b175474e89094c44da98b954eedeac495271d0f",
                    "callData": "0x0000000000000000000000005d3a536e4d6dbd6114cc1ead35777bab948e3643",
                    "decodedMethod": {
                        "callParams": [
                            {
                                "name": "",
                                "type": "address",
                                "value": "0x5d3a536e4d6dbd6114cc1ead35777bab948e3643"
                            }
                        ],
                        "constructorArguments": "",
                        "name": "balanceOf",
                        "returnParams": [
                            {
                                "decimalAvailable": true,
                                "name": "",
                                "type": "uint256",
                                "value": "1,055,079,444,897,073,218,304,622,146"
                            }
                        ],
                        "signature": "balanceOf(address)"
                    },
                    "errorInfo": "",
                    "fromAddress": "0x5d3a536e4d6dbd6114cc1ead35777bab948e3643",
                    "gasUsed": 602,
                    "id": 16,
                    "methodDecoded": true,
                    "operation": "STATICCALL",
                    "output": "0x00000000000000000000000000000000000000000368bdc350ab124756603e42",
                    "revert": false,
                    "revertMessage": "",
                    "selector": "0x70a08231",
                    "status": true,
                    "value": "0"
                },
                "nodeType": 0
            },
            "17": {
                "event": {
                    "contract": "0x5d3a536e4d6dbd6114cc1ead35777bab948e3643",
                    "decodedLog": {
                        "name": "RepayBorrow",
                        "params": [
                            {
                                "name": "payer",
                                "type": "address",
                                "value": "0x8f617e8c768fe571eb01490ed104dd205513ef48"
                            },
                            {
                                "name": "borrower",
                                "type": "address",
                                "value": "0x8f617e8c768fe571eb01490ed104dd205513ef48"
                            },
                            {
                                "name": "repayAmount",
                                "type": "uint256",
                                "value": "3,905,269,126,293,669,450,872"
                            },
                            {
                                "name": "accountBorrows",
                                "type": "uint256",
                                "value": "2,598,914,969,563,341,988,795"
                            },
                            {
                                "name": "totalBorrows",
                                "type": "uint256",
                                "value": "2,661,252,466,651,190,863,460,226,176"
                            }
                        ],
                        "signature": "RepayBorrow(address,address,uint256,uint256,uint256)"
                    },
                    "id": 17,
                    "logData": "0x0000000000000000000000008f617e8c768fe571eb01490ed104dd205513ef480000000000000000000000008f617e8c768fe571eb01490ed104dd205513ef480000000000000000000000000000000000000000000000d3b47f0b5c8a46947800000000000000000000000000000000000000000000008ce330c32d1c2323bb0000000000000000000000000000000000000000089956214b35427c400ed480",
                    "logDecoded": true,
                    "operation": "EVENT",
                    "revert": false,
                    "status": true,
                    "topics": [
                        "0x1a2a22cb034d26d1854bdc6666a5b91fe25efbbb5dcad3b0355478d6f5c362a1"
                    ]
                },
                "nodeType": 1
            },
            "18": {
                "invocation": {
                    "address": "0x3d9819210a31b4961b30ef54be2aed79b9c9cd3b",
                    "callData": "0x0000000000000000000000005d3a536e4d6dbd6114cc1ead35777bab948e36430000000000000000000000008f617e8c768fe571eb01490ed104dd205513ef480000000000000000000000008f617e8c768fe571eb01490ed104dd205513ef480000000000000000000000000000000000000000000000d3b47f0b5c8a4694780000000000000000000000000000000000000000000000000f2f23e858dc9d92",
                    "decodedMethod": {
                        "callParams": [
                            {
                                "name": "cToken",
                                "type": "address",
                                "value": "0x5d3a536e4d6dbd6114cc1ead35777bab948e3643"
                            },
                            {
                                "name": "payer",
                                "type": "address",
                                "value": "0x8f617e8c768fe571eb01490ed104dd205513ef48"
                            },
                            {
                                "name": "borrower",
                                "type": "address",
                                "value": "0x8f617e8c768fe571eb01490ed104dd205513ef48"
                            },
                            {
                                "name": "actualRepayAmount",
                                "type": "uint256",
                                "value": "3,905,269,126,293,669,450,872"
                            },
                            {
                                "name": "borrowerIndex",
                                "type": "uint256",
                                "value": "1,094,132,715,304,557,970"
                            }
                        ],
                        "constructorArguments": "",
                        "name": "repayBorrowVerify",
                        "returnParams": [],
                        "signature": "repayBorrowVerify(address,address,address,uint256,uint256)"
                    },
                    "errorInfo": "",
                    "fromAddress": "0x5d3a536e4d6dbd6114cc1ead35777bab948e3643",
                    "gasUsed": 996,
                    "id": 18,
                    "methodDecoded": true,
                    "operation": "CALL",
                    "output": "",
                    "revert": false,
                    "revertMessage": "",
                    "selector": "0x1ededc91",
                    "status": true,
                    "value": "0"
                },
                "nodeType": 0
            },
            "19": {
                "invocation": {
                    "address": "0xbe7616b06f71e363a310aa8ce8ad99654401ead7",
                    "callData": "0x0000000000000000000000005d3a536e4d6dbd6114cc1ead35777bab948e36430000000000000000000000008f617e8c768fe571eb01490ed104dd205513ef480000000000000000000000008f617e8c768fe571eb01490ed104dd205513ef480000000000000000000000000000000000000000000000d3b47f0b5c8a4694780000000000000000000000000000000000000000000000000f2f23e858dc9d92",
                    "decodedMethod": {
                        "callParams": [
                            {
                                "name": "cToken",
                                "type": "address",
                                "value": "0x5d3a536e4d6dbd6114cc1ead35777bab948e3643"
                            },
                            {
                                "name": "payer",
                                "type": "address",
                                "value": "0x8f617e8c768fe571eb01490ed104dd205513ef48"
                            },
                            {
                                "name": "borrower",
                                "type": "address",
                                "value": "0x8f617e8c768fe571eb01490ed104dd205513ef48"
                            },
                            {
                                "name": "actualRepayAmount",
                                "type": "uint256",
                                "value": "3,905,269,126,293,669,450,872"
                            },
                            {
                                "name": "borrowerIndex",
                                "type": "uint256",
                                "value": "1,094,132,715,304,557,970"
                            }
                        ],
                        "constructorArguments": "",
                        "name": "repayBorrowVerify",
                        "returnParams": [],
                        "signature": "repayBorrowVerify(address,address,address,uint256,uint256)"
                    },
                    "errorInfo": "",
                    "fromAddress": "0x3d9819210a31b4961b30ef54be2aed79b9c9cd3b",
                    "gasUsed": 377,
                    "id": 19,
                    "methodDecoded": true,
                    "operation": "DELEGATECALL",
                    "output": "",
                    "revert": false,
                    "revertMessage": "",
                    "selector": "0x1ededc91",
                    "status": true,
                    "value": "0"
                },
                "nodeType": 0
            },
            "2": {
                "invocation": {
                    "address": "0x6b175474e89094c44da98b954eedeac495271d0f",
                    "callData": "0x0000000000000000000000005d3a536e4d6dbd6114cc1ead35777bab948e3643",
                    "decodedMethod": {
                        "callParams": [
                            {
                                "name": "",
                                "type": "address",
                                "value": "0x5d3a536e4d6dbd6114cc1ead35777bab948e3643"
                            }
                        ],
                        "constructorArguments": "",
                        "name": "balanceOf",
                        "returnParams": [
                            {
                                "decimalAvailable": true,
                                "name": "",
                                "type": "uint256",
                                "value": "1,055,075,539,627,946,924,635,171,274"
                            }
                        ],
                        "signature": "balanceOf(address)"
                    },
                    "errorInfo": "",
                    "fromAddress": "0x5d3a536e4d6dbd6114cc1ead35777bab948e3643",
                    "gasUsed": 2602,
                    "id": 2,
                    "methodDecoded": true,
                    "operation": "STATICCALL",
                    "output": "0x00000000000000000000000000000000000000000368bcef9c2c06eacc19a9ca",
                    "revert": false,
                    "revertMessage": "",
                    "selector": "0x70a08231",
                    "status": true,
                    "value": "0"
                },
                "nodeType": 0
            },
            "3": {
                "invocation": {
                    "address": "0xfb564da37b41b2f6b6edcc3e56fbf523bd9f2012",
                    "callData": "0x00000000000000000000000000000000000000000368bcef9c2c06eacc19a9ca0000000000000000000000000000000000000000089956a890621aebf7f182f40000000000000000000000000000000000000000000adaa576353dcacac8d62c",
                    "decodedMethod": {
                        "callParams": [
                            {
                                "name": "cash",
                                "type": "uint256",
                                "value": "1,055,075,539,627,946,924,635,171,274"
                            },
                            {
                                "name": "borrows",
                                "type": "uint256",
                                "value": "2,661,254,961,946,237,676,180,046,580"
                            },
                            {
                                "name": "reserves",
                                "type": "uint256",
                                "value": "13,121,786,319,966,247,915,673,132"
                            }
                        ],
                        "constructorArguments": "",
                        "name": "getBorrowRate",
                        "returnParams": [
                            {
                                "name": "",
                                "type": "uint256",
                                "value": "17,090,821,989"
                            }
                        ],
                        "signature": "getBorrowRate(uint256,uint256,uint256)"
                    },
                    "errorInfo": "",
                    "fromAddress": "0x5d3a536e4d6dbd6114cc1ead35777bab948e3643",
                    "gasUsed": 7758,
                    "id": 3,
                    "methodDecoded": true,
                    "operation": "STATICCALL",
                    "output": "0x00000000000000000000000000000000000000000000000000000003fab13f65",
                    "revert": false,
                    "revertMessage": "",
                    "selector": "0x15f24053",
                    "status": true,
                    "value": "0"
                },
                "nodeType": 0
            },
            "4": {
                "event": {
                    "contract": "0x5d3a536e4d6dbd6114cc1ead35777bab948e3643",
                    "decodedLog": {
                        "name": "AccrueInterest",
                        "params": [
                            {
                                "name": "cashPrior",
                                "type": "uint256",
                                "value": "1,055,075,539,627,946,924,635,171,274"
                            },
                            {
                                "name": "interestAccumulated",
                                "type": "uint256",
                                "value": "1,409,974,079,480,949,630,468"
                            },
                            {
                                "name": "borrowIndex",
                                "type": "uint256",
                                "value": "1,096,527,003,291,583,614"
                            },
                            {
                                "name": "totalBorrows",
                                "type": "uint256",
                                "value": "2,661,256,371,920,317,157,129,677,048"
                            }
                        ],
                        "signature": "AccrueInterest(uint256,uint256,uint256,uint256)"
                    },
                    "id": 4,
                    "logData": "0x00000000000000000000000000000000000000000368bcef9c2c06eacc19a9ca00000000000000000000000000000000000000000000004c6f5232ecd263e6040000000000000000000000000000000000000000000000000f37a57ff5d1847e0000000000000000000000000000000000000000089956f4ffb44dd8ca5568f8",
                    "logDecoded": true,
                    "operation": "EVENT",
                    "revert": false,
                    "status": true,
                    "topics": [
                        "0x4dec04e750ca11537cabcd8a9eab06494de08da3735bc8871cd41250e190bc04"
                    ]
                },
                "nodeType": 1
            },
            "5": {
                "invocation": {
                    "address": "0x3d9819210a31b4961b30ef54be2aed79b9c9cd3b",
                    "callData": "0x0000000000000000000000005d3a536e4d6dbd6114cc1ead35777bab948e36430000000000000000000000008f617e8c768fe571eb01490ed104dd205513ef480000000000000000000000008f617e8c768fe571eb01490ed104dd205513ef480000000000000000000000000000000000000000000000d3b47f0b5c8a469478",
                    "decodedMethod": {
                        "callParams": [
                            {
                                "name": "cToken",
                                "type": "address",
                                "value": "0x5d3a536e4d6dbd6114cc1ead35777bab948e3643"
                            },
                            {
                                "name": "payer",
                                "type": "address",
                                "value": "0x8f617e8c768fe571eb01490ed104dd205513ef48"
                            },
                            {
                                "name": "borrower",
                                "type": "address",
                                "value": "0x8f617e8c768fe571eb01490ed104dd205513ef48"
                            },
                            {
                                "name": "repayAmount",
                                "type": "uint256",
                                "value": "3,905,269,126,293,669,450,872"
                            }
                        ],
                        "constructorArguments": "",
                        "name": "repayBorrowAllowed",
                        "returnParams": [
                            {
                                "name": "",
                                "type": "uint256",
                                "value": "0"
                            }
                        ],
                        "signature": "repayBorrowAllowed(address,address,address,uint256)"
                    },
                    "errorInfo": "",
                    "fromAddress": "0x5d3a536e4d6dbd6114cc1ead35777bab948e3643",
                    "gasUsed": 44515,
                    "id": 5,
                    "methodDecoded": true,
                    "operation": "CALL",
                    "output": "0x0000000000000000000000000000000000000000000000000000000000000000",
                    "revert": false,
                    "revertMessage": "",
                    "selector": "0x24008a62",
                    "status": true,
                    "value": "0"
                },
                "nodeType": 0
            },
            "6": {
                "invocation": {
                    "address": "0xbe7616b06f71e363a310aa8ce8ad99654401ead7",
                    "callData": "0x0000000000000000000000005d3a536e4d6dbd6114cc1ead35777bab948e36430000000000000000000000008f617e8c768fe571eb01490ed104dd205513ef480000000000000000000000008f617e8c768fe571eb01490ed104dd205513ef480000000000000000000000000000000000000000000000d3b47f0b5c8a469478",
                    "decodedMethod": {
                        "callParams": [
                            {
                                "name": "cToken",
                                "type": "address",
                                "value": "0x5d3a536e4d6dbd6114cc1ead35777bab948e3643"
                            },
                            {
                                "name": "payer",
                                "type": "address",
                                "value": "0x8f617e8c768fe571eb01490ed104dd205513ef48"
                            },
                            {
                                "name": "borrower",
                                "type": "address",
                                "value": "0x8f617e8c768fe571eb01490ed104dd205513ef48"
                            },
                            {
                                "name": "repayAmount",
                                "type": "uint256",
                                "value": "3,905,269,126,293,669,450,872"
                            }
                        ],
                        "constructorArguments": "",
                        "name": "repayBorrowAllowed",
                        "returnParams": [
                            {
                                "name": "",
                                "type": "uint256",
                                "value": "0"
                            }
                        ],
                        "signature": "repayBorrowAllowed(address,address,address,uint256)"
                    },
                    "errorInfo": "",
                    "fromAddress": "0x3d9819210a31b4961b30ef54be2aed79b9c9cd3b",
                    "gasUsed": 39329,
                    "id": 6,
                    "methodDecoded": true,
                    "operation": "DELEGATECALL",
                    "output": "0x0000000000000000000000000000000000000000000000000000000000000000",
                    "revert": false,
                    "revertMessage": "",
                    "selector": "0x24008a62",
                    "status": true,
                    "value": "0"
                },
                "nodeType": 0
            },
            "7": {
                "invocation": {
                    "address": "0x5d3a536e4d6dbd6114cc1ead35777bab948e3643",
                    "callData": "0x",
                    "decodedMethod": {
                        "callParams": [],
                        "constructorArguments": "",
                        "name": "borrowIndex",
                        "returnParams": [
                            {
                                "name": "",
                                "type": "uint256",
                                "value": "1,096,527,003,291,583,614"
                            }
                        ],
                        "signature": "borrowIndex()"
                    },
                    "errorInfo": "",
                    "fromAddress": "0x3d9819210a31b4961b30ef54be2aed79b9c9cd3b",
                    "gasUsed": 387,
                    "id": 7,
                    "methodDecoded": true,
                    "operation": "STATICCALL",
                    "output": "0x0000000000000000000000000000000000000000000000000f37a57ff5d1847e",
                    "revert": false,
                    "revertMessage": "",
                    "selector": "0xaa5af0fd",
                    "status": true,
                    "value": "0"
                },
                "nodeType": 0
            },
            "8": {
                "invocation": {
                    "address": "0x5d3a536e4d6dbd6114cc1ead35777bab948e3643",
                    "callData": "0x",
                    "decodedMethod": {
                        "callParams": [],
                        "constructorArguments": "",
                        "name": "totalBorrows",
                        "returnParams": [
                            {
                                "name": "",
                                "type": "uint256",
                                "value": "2,661,256,371,920,317,157,129,677,048"
                            }
                        ],
                        "signature": "totalBorrows()"
                    },
                    "errorInfo": "",
                    "fromAddress": "0x3d9819210a31b4961b30ef54be2aed79b9c9cd3b",
                    "gasUsed": 454,
                    "id": 8,
                    "methodDecoded": true,
                    "operation": "STATICCALL",
                    "output": "0x0000000000000000000000000000000000000000089956f4ffb44dd8ca5568f8",
                    "revert": false,
                    "revertMessage": "",
                    "selector": "0x47bd3718",
                    "status": true,
                    "value": "0"
                },
                "nodeType": 0
            },
            "9": {
                "invocation": {
                    "address": "0x5d3a536e4d6dbd6114cc1ead35777bab948e3643",
                    "callData": "0x0000000000000000000000008f617e8c768fe571eb01490ed104dd205513ef48",
                    "decodedMethod": {
                        "callParams": [
                            {
                                "name": "account",
                                "type": "address",
                                "value": "0x8f617e8c768fe571eb01490ed104dd205513ef48"
                            }
                        ],
                        "constructorArguments": "",
                        "name": "borrowBalanceStored",
                        "returnParams": [
                            {
                                "name": "",
                                "type": "uint256",
                                "value": "6,504,184,095,857,011,439,667"
                            }
                        ],
                        "signature": "borrowBalanceStored(address)"
                    },
                    "errorInfo": "",
                    "fromAddress": "0x3d9819210a31b4961b30ef54be2aed79b9c9cd3b",
                    "gasUsed": 9622,
                    "id": 9,
                    "methodDecoded": true,
                    "operation": "STATICCALL",
                    "output": "0x00000000000000000000000000000000000000000000016097afce89a669b833",
                    "revert": false,
                    "revertMessage": "",
                    "selector": "0x95dd9193",
                    "status": true,
                    "value": "0"
                },
                "nodeType": 0
            }
        },
        "gasFlame": [
            {
                "children": [
                    {
                        "children": [
                            {
                                "children": [],
                                "depth": 0,
                                "name": "Initial Gas",
                                "value": 21300
                            },
                            {
                                "children": [
                                    {
                                        "children": [
                                            {
                                                "children": [],
                                                "depth": 2,
                                                "name": "balanceOf",
                                                "value": 2602
                                            },
                                            {
                                                "children": [],
                                                "depth": 2,
                                                "name": "getBorrowRate",
                                                "value": 7758
                                            },
                                            {
                                                "children": [
                                                    {
                                                        "children": [
                                                            {
                                                                "children": [],
                                                                "depth": 4,
                                                                "name": "borrowIndex",
                                                                "value": 387
                                                            },
                                                            {
                                                                "children": [],
                                                                "depth": 4,
                                                                "name": "totalBorrows",
                                                                "value": 454
                                                            },
                                                            {
                                                                "children": [
                                                                    {
                                                                        "children": [
                                                                            {
                                                                                "children": [],
                                                                                "depth": 6,
                                                                                "name": "borrowBalanceStored",
                                                                                "value": 5448
                                                                            }
                                                                        ],
                                                                        "depth": 5,
                                                                        "name": "delegateToImplementation",
                                                                        "value": 7105
                                                                    }
                                                                ],
                                                                "depth": 4,
                                                                "name": "borrowBalanceStored",
                                                                "value": 9622
                                                            }
                                                        ],
                                                        "depth": 3,
                                                        "name": "repayBorrowAllowed",
                                                        "value": 39329
                                                    }
                                                ],
                                                "depth": 2,
                                                "name": "repayBorrowAllowed",
                                                "value": 44515
                                            },
                                            {
                                                "children": [],
                                                "depth": 2,
                                                "name": "balanceOf",
                                                "value": 602
                                            },
                                            {
                                                "children": [],
                                                "depth": 2,
                                                "name": "transferFrom",
                                                "value": 13418
                                            },
                                            {
                                                "children": [],
                                                "depth": 2,
                                                "name": "balanceOf",
                                                "value": 602
                                            },
                                            {
                                                "children": [
                                                    {
                                                        "children": [],
                                                        "depth": 3,
                                                        "name": "repayBorrowVerify",
                                                        "value": 377
                                                    }
                                                ],
                                                "depth": 2,
                                                "name": "repayBorrowVerify",
                                                "value": 996
                                            }
                                        ],
                                        "depth": 1,
                                        "name": "repayBorrow",
                                        "value": 132142
                                    }
                                ],
                                "depth": 0,
                                "name": "Executed Gas",
                                "value": 138025
                            }
                        ],
                        "depth": -1,
                        "name": "Actual Gas Used",
                        "value": 141525
                    },
                    {
                        "children": [],
                        "depth": -1,
                        "name": "Refunded Gas",
                        "value": 17800
                    }
                ],
                "depth": -2,
                "name": "Total Gas",
                "value": 159325
            }
        ],
        "isConfirmed": true,
        "mainTrace": [
            {
                "children": [
                    {
                        "children": [
                            {
                                "children": [
                                    {
                                        "children": [],
                                        "depth": 2,
                                        "id": 2,
                                        "order": 2
                                    },
                                    {
                                        "children": [],
                                        "depth": 2,
                                        "id": 3,
                                        "order": 3
                                    },
                                    {
                                        "children": [],
                                        "depth": 2,
                                        "id": 4,
                                        "order": 4
                                    },
                                    {
                                        "children": [
                                            {
                                                "children": [
                                                    {
                                                        "children": [],
                                                        "depth": 4,
                                                        "id": 7,
                                                        "order": 7
                                                    },
                                                    {
                                                        "children": [],
                                                        "depth": 4,
                                                        "id": 8,
                                                        "order": 8
                                                    },
                                                    {
                                                        "children": [
                                                            {
                                                                "children": [
                                                                    {
                                                                        "children": [],
                                                                        "depth": 6,
                                                                        "id": 11,
                                                                        "order": 11
                                                                    }
                                                                ],
                                                                "depth": 5,
                                                                "id": 10,
                                                                "order": 10
                                                            }
                                                        ],
                                                        "depth": 4,
                                                        "id": 9,
                                                        "order": 9
                                                    },
                                                    {
                                                        "children": [],
                                                        "depth": 4,
                                                        "id": 12,
                                                        "order": 12
                                                    }
                                                ],
                                                "depth": 3,
                                                "id": 6,
                                                "order": 6
                                            }
                                        ],
                                        "depth": 2,
                                        "id": 5,
                                        "order": 5
                                    },
                                    {
                                        "children": [],
                                        "depth": 2,
                                        "id": 13,
                                        "order": 13
                                    },
                                    {
                                        "children": [
                                            {
                                                "children": [],
                                                "depth": 3,
                                                "id": 15,
                                                "order": 15
                                            }
                                        ],
                                        "depth": 2,
                                        "id": 14,
                                        "order": 14
                                    },
                                    {
                                        "children": [],
                                        "depth": 2,
                                        "id": 16,
                                        "order": 16
                                    },
                                    {
                                        "children": [],
                                        "depth": 2,
                                        "id": 17,
                                        "order": 17
                                    },
                                    {
                                        "children": [
                                            {
                                                "children": [],
                                                "depth": 3,
                                                "id": 19,
                                                "order": 19
                                            }
                                        ],
                                        "depth": 2,
                                        "id": 18,
                                        "order": 18
                                    }
                                ],
                                "depth": 1,
                                "id": 1,
                                "order": 1
                            }
                        ],
                        "depth": 0,
                        "id": 0,
                        "order": 0
                    }
                ],
                "depth": -1,
                "id": -1,
                "order": -1
            }
        ],
        "mainTraceNodeCount": 20,
        "parentIdMap": {
            "0": -1,
            "1": 0,
            "10": 9,
            "11": 10,
            "12": 6,
            "13": 1,
            "14": 1,
            "15": 14,
            "16": 1,
            "17": 1,
            "18": 1,
            "19": 18,
            "2": 1,
            "3": 1,
            "4": 1,
            "5": 1,
            "6": 5,
            "7": 6,
            "8": 6,
            "9": 6
        },
        "tidyTrace": [
            {
                "children": [
                    {
                        "children": [
                            {
                                "children": [
                                    {
                                        "children": [],
                                        "depth": 2,
                                        "id": 4,
                                        "order": 4
                                    },
                                    {
                                        "children": [
                                            {
                                                "children": [
                                                    {
                                                        "children": [],
                                                        "depth": 4,
                                                        "id": 12,
                                                        "order": 12
                                                    }
                                                ],
                                                "depth": 3,
                                                "id": 6,
                                                "order": 6
                                            }
                                        ],
                                        "depth": 2,
                                        "id": 5,
                                        "order": 5
                                    },
                                    {
                                        "children": [
                                            {
                                                "children": [],
                                                "depth": 3,
                                                "id": 15,
                                                "order": 15
                                            }
                                        ],
                                        "depth": 2,
                                        "id": 14,
                                        "order": 14
                                    },
                                    {
                                        "children": [],
                                        "depth": 2,
                                        "id": 17,
                                        "order": 17
                                    },
                                    {
                                        "children": [
                                            {
                                                "children": [],
                                                "depth": 3,
                                                "id": 19,
                                                "order": 19
                                            }
                                        ],
                                        "depth": 2,
                                        "id": 18,
                                        "order": 18
                                    }
                                ],
                                "depth": 1,
                                "id": 1,
                                "order": 1
                            }
                        ],
                        "depth": 0,
                        "id": 0,
                        "order": 0
                    }
                ],
                "depth": -1,
                "id": -1,
                "order": -1
            }
        ],
        "tidyTraceNodeCount": 11
    },
    "state_change": {
        "stateChanges": [
            {
                "address": "0x3d9819210a31b4961b30ef54be2aed79b9c9cd3b",
                "erc": "",
                "slots": [
                    {
                        "current": "0x00c0964200000000000000000000000000000e624c97109cab2bcf4446b8ecad",
                        "key": "0x4808dee871b673105f5be0711919c0d9807f2a900f25aa911c423f68ae42875f",
                        "prev": "0x00c0961d00000000000000000000000000000e62494a2821464edc4a32afa8a1"
                    },
                    {
                        "current": "0x0000000000000000000000000000000000000e624c97109cab2bcf4446b8ecad",
                        "key": "0xb9a1027edb3f4d64f7d1a329e5ff7ce007ca878e5e54c9a017d9f901233031c1",
                        "prev": "0x0000000000000000000000000000000000000e35464446b4cf2e12563073d8a3"
                    },
                    {
                        "current": "0x0000000000000000000000000000000000000000000000000074e04c82e77e95",
                        "key": "0xe67cb8dd72f789667b0db8ab78159a7c21ea722f10901c4688f4fa0cee5dde57",
                        "prev": "0x0000000000000000000000000000000000000000000000000029b3e963dbae68"
                    }
                ],
                "storageVariables": [
                    {
                        "name": "compBorrowerIndex",
                        "type": "mapping(address => mapping(address => uint256))",
                        "value": {
                            "pairs": [
                                {
                                    "key": "0x5d3a536e4d6dbd6114cc1ead35777bab948e3643",
                                    "value": {
                                        "pairs": [
                                            {
                                                "key": "0x8f617e8c768fe571eb01490ed104dd205513ef48",
                                                "value": {
                                                    "current": "291741797864514365034966938086573",
                                                    "prev": "288174573555923620401433015474339",
                                                    "typeTag": 1
                                                }
                                            }
                                        ],
                                        "typeTag": 4
                                    }
                                }
                            ],
                            "typeTag": 4
                        }
                    },
                    {
                        "name": "compAccrued",
                        "type": "mapping(address => uint256)",
                        "value": {
                            "pairs": [
                                {
                                    "key": "0x8f617e8c768fe571eb01490ed104dd205513ef48",
                                    "value": {
                                        "current": "32897716516781717",
                                        "prev": "11738289029230184",
                                        "typeTag": 1
                                    }
                                }
                            ],
                            "typeTag": 4
                        }
                    },
                    {
                        "name": "compBorrowState",
                        "type": "mapping(address => struct ComptrollerV3Storage.CompMarketState)",
                        "value": {
                            "pairs": [
                                {
                                    "key": "0x5d3a536e4d6dbd6114cc1ead35777bab948e3643",
                                    "value": {
                                        "fields": [
                                            {
                                                "name": "index",
                                                "type": "uint224",
                                                "value": {
                                                    "current": "291741797864514365034966938086573",
                                                    "prev": "291740776433257368790064960612513",
                                                    "typeTag": 1
                                                }
                                            },
                                            {
                                                "name": "block",
                                                "type": "uint32",
                                                "value": {
                                                    "current": "12621378",
                                                    "prev": "12621341",
                                                    "typeTag": 1
                                                }
                                            }
                                        ],
                                        "typeTag": 3
                                    }
                                }
                            ],
                            "typeTag": 4
                        }
                    }
                ]
            },
            {
                "address": "0x5d3a536e4d6dbd6114cc1ead35777bab948e3643",
                "erc": "ERC-20",
                "slots": [
                    {
                        "current": "0x0000000000000000000000000000000000000000000000000f37a57ff5d1847e",
                        "key": "0x000000000000000000000000000000000000000000000000000000000000000a",
                        "prev": "0x0000000000000000000000000000000000000000000000000f37a4f8b21a2a55"
                    },
                    {
                        "current": "0x0000000000000000000000000000000000000000089956214b35427c400ed480",
                        "key": "0x000000000000000000000000000000000000000000000000000000000000000b",
                        "prev": "0x0000000000000000000000000000000000000000089956a890621aebf7f182f4"
                    },
                    {
                        "current": "0x0000000000000000000000000000000000000000000adab0ed4e5f07ea57d246",
                        "key": "0x000000000000000000000000000000000000000000000000000000000000000c",
                        "prev": "0x0000000000000000000000000000000000000000000adaa576353dcacac8d62c"
                    },
                    {
                        "current": "0x0000000000000000000000000000000000000000000000000000000000c09642",
                        "key": "0x0000000000000000000000000000000000000000000000000000000000000009",
                        "prev": "0x0000000000000000000000000000000000000000000000000000000000c09623"
                    },
                    {
                        "current": "0x00000000000000000000000000000000000000000000008ce330c32d1c2323bb",
                        "key": "0x9bf50109b907290b66395ec0ae4c56951e4f1d7e787cf7c7afbc1efb7e29a1d1",
                        "prev": "0x00000000000000000000000000000000000000000000015fd2981fb6cb6164cd"
                    },
                    {
                        "current": "0x0000000000000000000000000000000000000000000000000f37a57ff5d1847e",
                        "key": "0x9bf50109b907290b66395ec0ae4c56951e4f1d7e787cf7c7afbc1efb7e29a1d2",
                        "prev": "0x0000000000000000000000000000000000000000000000000f2f23e858dc9d92"
                    }
                ],
                "storageVariables": [
                    {
                        "name": "totalReserves",
                        "type": "uint256",
                        "value": {
                            "current": "13121997816078170058117702",
                            "prev": "13121786319966247915673132",
                            "typeTag": 1
                        }
                    },
                    {
                        "name": "accrualBlockNumber",
                        "type": "uint256",
                        "value": {
                            "current": "12621378",
                            "prev": "12621347",
                            "typeTag": 1
                        }
                    },
                    {
                        "name": "accountBorrows",
                        "type": "mapping(address => struct CTokenStorage.BorrowSnapshot)",
                        "value": {
                            "pairs": [
                                {
                                    "key": "0x8f617e8c768fe571eb01490ed104dd205513ef48",
                                    "value": {
                                        "fields": [
                                            {
                                                "name": "principal",
                                                "type": "uint256",
                                                "value": {
                                                    "current": "2598914969563341988795",
                                                    "prev": "6489982083686434170061",
                                                    "typeTag": 1
                                                }
                                            },
                                            {
                                                "name": "interestIndex",
                                                "type": "uint256",
                                                "value": {
                                                    "current": "1096527003291583614",
                                                    "prev": "1094132715304557970",
                                                    "typeTag": 1
                                                }
                                            }
                                        ],
                                        "typeTag": 3
                                    }
                                }
                            ],
                            "typeTag": 4
                        }
                    },
                    {
                        "name": "borrowIndex",
                        "type": "uint256",
                        "value": {
                            "current": "1096527003291583614",
                            "prev": "1096526422334909013",
                            "typeTag": 1
                        }
                    },
                    {
                        "name": "totalBorrows",
                        "type": "uint256",
                        "value": {
                            "current": "2661252466651190863460226176",
                            "prev": "2661254961946237676180046580",
                            "typeTag": 1
                        }
                    }
                ]
            },
            {
                "address": "0x6b175474e89094c44da98b954eedeac495271d0f",
                "erc": "ERC-20",
                "slots": [
                    {
                        "current": "0x0000000000000000000000000000000000000000000000000000000000000000",
                        "key": "0x0d4527aebfb5ea19175bd76eeb74e08da83691782b3d7a64971474a0850874eb",
                        "prev": "0x0000000000000000000000000000000000000000000000d3b47f0b5c8a469478"
                    },
                    {
                        "current": "0x00000000000000000000000000000000000000000368bdc350ab124756603e42",
                        "key": "0xdd4746fb94b2ffc6eeaac985ba48d8d8573a5e7cf883a998fed3dcbb39c35d46",
                        "prev": "0x00000000000000000000000000000000000000000368bcef9c2c06eacc19a9ca"
                    }
                ],
                "storageVariables": [
                    {
                        "name": "balanceOf",
                        "type": "mapping(address => uint256)",
                        "value": {
                            "pairs": [
                                {
                                    "key": "0x5d3a536e4d6dbd6114cc1ead35777bab948e3643",
                                    "value": {
                                        "current": "1055079444897073218304622146",
                                        "prev": "1055075539627946924635171274",
                                        "typeTag": 1
                                    }
                                },
                                {
                                    "key": "0x8f617e8c768fe571eb01490ed104dd205513ef48",
                                    "value": {
                                        "current": "0",
                                        "prev": "3905269126293669450872",
                                        "typeTag": 1
                                    }
                                }
                            ],
                            "typeTag": 4
                        }
                    }
                ]
            }
        ]
    }
}