{
    "balance_change": {
        "balanceChanges": [
            {
                "account": "0x000000000000000000000000000000000000dead",
                "assets": [
                    {
                        "address": "0xac3d006f6332981fd1a0ce2055fa42786aaf16f9",
                        "amount": "1",
                        "iconUrl": "",
                        "isERC1155": false,
                        "isERC721": true,
                        "sign": true,
                        "tokenID": "258",
                        "value": ""
                    }
                ]
            },
            {
                "account": "0x0000000000000000000000000000000000000000",
                "assets": [
                    {
                        "address": "0x21bb88e9ca4b588fb1e17fc6cec57e7a328793dc",
                        "amount": "1",
                        "iconUrl": "",
                        "isERC1155": false,
                        "isERC721": true,
                        "sign": false,
                        "tokenID": "21",
                        "value": ""
                    }
                ]
            },
            {
                "account": "0xc29d7fe198328a424b2113c91bcaa843d10e2c3c",
                "assets": [
                    {
                        "address": "0xac3d006f6332981fd1a0ce2055fa42786aaf16f9",
                        "amount": "1",
                        "iconUrl": "",
                        "isERC1155": false,
                        "isERC721": true,
                        "sign": false,
                        "tokenID": "258",
                        "value": ""
                    },
                    {
                        "address": "0x21bb88e9ca4b588fb1e17fc6cec57e7a328793dc",
                        "amount": "1",
                        "iconUrl": "",
                        "isERC1155": false,
                        "isERC721": true,
                        "sign": true,
                        "tokenID": "21",
                        "value": ""
                    }
                ]
            }
        ]
    },
    "profile": {
        "basic_info": {
            "baseFee": "35.002622333",
            "blockNumber": 15096912,
            "callData": "0x55429a2300000000000000000000000000000000000000000000000000000000000000400000000000000000000000000000000000000000000000000000000000000102000000000000000000000000000000000000000000000000000000000000000a8699843ef34d64656562aa18524cd9f6a17dae7896b51d8ec096a35eb4dcb61854c5e658113861183a68d4b1554224cbdb73c242fde86b09c53282daebc3558e07698c2180562fcc3c803f571f5c9e56df2b7ec8f04342546f633f0afd02be99fb317a2d87ca16b287912572105a4ecaeb9cf5e5995f281f78d37e65cfa35429afce638390114518a70cc4cbe0ff1d1cfdbf253f3d8b562fc6b2c49054c32b887106c9fd13d2408a59f5d2baf05490c0fa3367051e18da40a38d1b613c4945867703a2f758cf45380f0aa4ee6279e039f952d5b0eb01c49ad22bb1ffd2481715d7af93dad91559982f833decb79667c6a1aaf2d4527a07a3348398d9fe67e3a08451ba288cad69d4b4cda261d52d18375c876298df7be4e4cde6077e68952dca74000fc47a9aa7b9f6ae4f2daa9ee38fe5d9fd343a7e4e69dda5f1ee248772c7",
            "debugEnable": true,
            "errorInfo": "",
            "eventCount": 3,
            "feeRecipient": "0x829bd824b016326a401d083b33d092293333a830",
            "formatValue": "0",
            "gasLimit": 123357,
            "gasPrice": "36.502622333",
            "gasUsed": 118557,
            "intTxnCount": 1,
            "internalRevert": false,
            "internalRevertMessage": "",
            "isContractCreation": false,
            "isFlashloan": false,
            "maxFee": "61.064826359",
            "nonce": 735,
            "overwritedBlockNumber": -1,
            "priorityFee": "1.5",
            "receiver": "0x21bb88e9ca4b588fb1e17fc6cec57e7a328793dc",
            "revertMessage": "",
            "sender": "0xc29d7fe198328a424b2113c91bcaa843d10e2c3c",
            "simulationEnable": true,
            "sourceTxnHash": "0x2b1c868b7a819ea80cf47135dc27da5dceee826bf709203510d045395d915909",
            "status": true,
            "timestamp": "2022-07-07T17:59:14Z",
            "transactionFee": "0.004327641395933481",
            "txnHash": "0x2b1c868b7a819ea80cf47135dc27da5dceee826bf709203510d045395d915909",
            "txnIndex": 105,
            "type": 2,
            "value": "0"
        },
        "fund_flow": [
            {
                "amount": "1",
                "from": "0xc29d7fe198328a424b2113c91bcaa843d10e2c3c",
                "id": 1,
                "isERC1155": false,
                "isERC721": true,
                "isReverted": false,
                "order": 1,
                "to": "0x000000000000000000000000000000000000dead",
                "token": "0xac3d006f6332981fd1a0ce2055fa42786aaf16f9",
                "tokenID": "258"
            },
            {
                "amount": "1",
                "from": "0x0000000000000000000000000000000000000000",
                "id": 2,
                "isERC1155": false,
                "isERC721": true,
                "isReverted": false,
                "order": 2,
                "to": "0xc29d7fe198328a424b2113c91bcaa843d10e2c3c",
                "token": "0x21bb88e9ca4b588fb1e17fc6cec57e7a328793dc",
                "tokenID": "21"
            }
        ],
        "token_infos": [
            {
                "address": "0xc02aaa39b223fe8d0a0e5c4f27ead9083c756cc2",
                "decimals": 18
            },
            {
                "address": "0xeeeeeeeeeeeeeeeeeeeeeeeeeeeeeeeeeeeeeeee",
                "decimals": 18
            }
        ]
    },
    "address_label": {
        "labels": [
            {
                "address": "0xac3d006f6332981fd1a0ce2055fa42786aaf16f9",
                "label": "Blockpass (BLOCKPASS)"
            },
            {
                "address": "0x000000000000000000000000000000000000dead",
                "label": "Null: 0x00...dEaD"
            },
            {
                "address": "0x21bb88e9ca4b588fb1e17fc6cec57e7a328793dc",
                "label": "BlockAgentsGenesis"
            },
            {
                "address": "0x0000000000000000000000000000000000000001",
                "label": "Precompiled"
            },
            {
                "address": "0x0000000000000000000000000000000000000002",
                "label": "Precompiled"
            },
            {
                "address": "0x0000000000000000000000000000000000000003",
                "label": "Precompiled"
            },
            {
                "address": "0x0000000000000000000000000000000000000004",
                "label": "Precompiled"
            },
            {
                "address": "0xeeeeeeeeeeeeeeeeeeeeeeeeeeeeeeeeeeeeeeee",
                "label": "Ether"
            }
        ]
    },
    "trace": {
        "accountLabels": null,
        "dataMap": {
            "-1": {
                "invocation": {
                    "address": "0xc29d7fe198328a424b2113c91bcaa843d10e2c3c",
                    "callData": "",
                    "decodedMethod": null,
                    "errorInfo": "",
                    "fromAddress": "",
                    "gasUsed": 0,
                    "id": -1,
                    "methodDecoded": false,
                    "operation": "",
                    "output": "",
                    "revert": false,
                    "revertMessage": "",
                    "selector": "",
                    "status": false,
                    "value": ""
                },
                "nodeType": 0
            },
            "0": {
                "invocation": {
                    "address": "0x21bb88e9ca4b588fb1e17fc6cec57e7a328793dc",
                    "callData": "0x00000000000000000000000000000000000000000000000000000000000000400000000000000000000000000000000000000000000000000000000000000102000000000000000000000000000000000000000000000000000000000000000a8699843ef34d64656562aa18524cd9f6a17dae7896b51d8ec096a35eb4dcb61854c5e658113861183a68d4b1554224cbdb73c242fde86b09c53282daebc3558e07698c2180562fcc3c803f571f5c9e56df2b7ec8f04342546f633f0afd02be99fb317a2d87ca16b287912572105a4ecaeb9cf5e5995f281f78d37e65cfa35429afce638390114518a70cc4cbe0ff1d1cfdbf253f3d8b562fc6b2c49054c32b887106c9fd13d2408a59f5d2baf05490c0fa3367051e18da40a38d1b613c4945867703a2f758cf45380f0aa4ee6279e039f952d5b0eb01c49ad22bb1ffd2481715d7af93dad91559982f833decb79667c6a1aaf2d4527a07a3348398d9fe67e3a08451ba288cad69d4b4cda261d52d18375c876298df7be4e4cde6077e68952dca74000fc47a9aa7b9f6ae4f2daa9ee38fe5d9fd343a7e4e69dda5f1ee248772c7",
                    "decodedMethod": {
                        "callParams": [
                            {
                                "name": "merkleProof_",
                                "type": "bytes32[]",
                                "value": [
                                    "0x8699843ef34d64656562aa18524cd9f6a17dae7896b51d8ec096a35eb4dcb618",
                                    "0x54c5e658113861183a68d4b1554224cbdb73c242fde86b09c53282daebc3558e",
                                    "0x07698c2180562fcc3c803f571f5c9e56df2b7ec8f04342546f633f0afd02be99",
                                    "0xfb317a2d87ca16b287912572105a4ecaeb9cf5e5995f281f78d37e65cfa35429",
                                    "0xafce638390114518a70cc4cbe0ff1d1cfdbf253f3d8b562fc6b2c49054c32b88",
                                    "0x7106c9fd13d2408a59f5d2baf05490c0fa3367051e18da40a38d1b613c494586",
                                    "0x7703a2f758cf45380f0aa4ee6279e039f952d5b0eb01c49ad22bb1ffd2481715",
                                    "0xd7af93dad91559982f833decb79667c6a1aaf2d4527a07a3348398d9fe67e3a0",
                                    "0x8451ba288cad69d4b4cda261d52d18375c876298df7be4e4cde6077e68952dca",
                                    "0x74000fc47a9aa7b9f6ae4f2daa9ee38fe5d9fd343a7e4e69dda5f1ee248772c7"
                                ]
                            },
                            {
                                "name": "alphaBlockpassId_",
                                "type": "uint256",
                                "value": "258"
                            }
                        ],
                        "constructorArguments": "",
                        "name": "mintWithAlphaBlockpass",
                        "returnParams": [],
                        "signature": "mintWithAlphaBlockpass(bytes32[],uint256)"
                    },
                    "errorInfo": "",
                    "fromAddress": "0xc29d7fe198328a424b2113c91bcaa843d10e2c3c",
                    "gasUsed": 118557,
                    "id": 0,
                    "methodDecoded": true,
                    "operation": "CALL",
                    "output": "",
                    "revert": false,
                    "revertMessage": "",
                    "selector": "0x55429a23",
                    "status": true,
                    "value": "0"
                },
                "nodeType": 0
            },
            "1": {
                "invocation": {
                    "address": "0xac3d006f6332981fd1a0ce2055fa42786aaf16f9",
                    "callData": "0x000000000000000000000000c29d7fe198328a424b2113c91bcaa843d10e2c3c000000000000000000000000000000000000000000000000000000000000dead0000000000000000000000000000000000000000000000000000000000000102",
                    "decodedMethod": {
                        "callParams": [
                            {
                                "name": "from",
                                "type": "address",
                                "value": "0xc29d7fe198328a424b2113c91bcaa843d10e2c3c"
                            },
                            {
                                "name": "to",
                                "type": "address",
                                "value": "0x000000000000000000000000000000000000dead"
                            },
                            {
                                "decimalAvailable": true,
                                "name": "tokenId",
                                "type": "uint256",
                                "value": "258"
                            }
                        ],
                        "constructorArguments": "",
                        "name": "transferFrom",
                        "returnParams": [],
                        "signature": "transferFrom(address,address,uint256)"
                    },
                    "errorInfo": "",
                    "fromAddress": "0x21bb88e9ca4b588fb1e17fc6cec57e7a328793dc",
                    "gasUsed": 26387,
                    "id": 1,
                    "methodDecoded": true,
                    "operation": "CALL",
                    "output": "",
                    "revert": false,
                    "revertMessage": "",
                    "selector": "0x23b872dd",
                    "status": true,
                    "value": "0"
                },
                "nodeType": 0
            },
            "2": {
                "event": {
                    "contract": "0xac3d006f6332981fd1a0ce2055fa42786aaf16f9",
                    "decodedLog": {
                        "name": "Approval",
                        "params": [
                            {
                                "name": "owner",
                                "type": "address",
                                "value": "0xc29d7fe198328a424b2113c91bcaa843d10e2c3c"
                            },
                            {
                                "name": "approved",
                                "type": "address",
                                "value": "0x0000000000000000000000000000000000000000"
                            },
                            {
                                "decimalAvailable": true,
                                "name": "tokenId",
                                "type": "uint256",
                                "value": "258"
                            }
                        ],
                        "signature": "Approval(address,address,uint256)"
                    },
                    "id": 2,
                    "logData": "0x",
                    "logDecoded": true,
                    "operation": "EVENT",
                    "revert": false,
                    "status": true,
                    "topics": [
                        "0x8c5be1e5ebec7d5bd14f71427d1e84f3dd0314c0f7b2291e5b200ac8c7c3b925",
                        "0x000000000000000000000000c29d7fe198328a424b2113c91bcaa843d10e2c3c",
                        "0x0000000000000000000000000000000000000000000000000000000000000000",
                        "0x0000000000000000000000000000000000000000000000000000000000000102"
                    ]
                },
                "nodeType": 1
            },
            "3": {
                "event": {
                    "contract": "0xac3d006f6332981fd1a0ce2055fa42786aaf16f9",
                    "decodedLog": {
                        "name": "Transfer",
                        "params": [
                            {
                                "name": "from",
                                "type": "address",
                                "value": "0xc29d7fe198328a424b2113c91bcaa843d10e2c3c"
                            },
                            {
                                "name": "to",
                                "type": "address",
                                "value": "0x000000000000000000000000000000000000dead"
                            },
                            {
                                "decimalAvailable": true,
                                "name": "tokenId",
                                "type": "uint256",
                                "value": "258"
                            }
                        ],
                        "signature": "Transfer(address,address,uint256)"
                    },
                    "id": 3,
                    "logData": "0x",
                    "logDecoded": true,
                    "operation": "EVENT",
                    "revert": false,
                    "status": true,
                    "topics": [
                        "0xddf252ad1be2c89b69c2b068fc378daa952ba7f163c4a11628f55a4df523b3ef",
                        "0x000000000000000000000000c29d7fe198328a424b2113c91bcaa843d10e2c3c",
                        "0x000000000000000000000000000000000000000000000000000000000000dead",
                        "0x0000000000000000000000000000000000000000000000000000000000000102"
                    ]
                },
                "nodeType": 1
            },
            "4": {
                "event": {
                    "contract": "0x21bb88e9ca4b588fb1e17fc6cec57e7a328793dc",
                    "decodedLog": {
                        "name": "Transfer",
                        "params": [
                            {
                                "name": "from",
                                "type": "address",
                                "value": "0x0000000000000000000000000000000000000000"
                            },
                            {
                                "name": "to",
                                "type": "address",
                                "value": "0xc29d7fe198328a424b2113c91bcaa843d10e2c3c"
                            },
                            {
                                "decimalAvailable": true,
                                "name": "tokenId",
                                "type": "uint256",
                                "value": "21"
                            }
                        ],
                        "signature": "Transfer(address,address,uint256)"
                    },
                    "id": 4,
                    "logData": "0x",
                    "logDecoded": true,
                    "operation": "EVENT",
                    "revert": false,
                    "status": true,
                    "topics": [
                        "0xddf252ad1be2c89b69c2b068fc378daa952ba7f163c4a11628f55a4df523b3ef",
                        "0x0000000000000000000000000000000000000000000000000000000000000000",
                        "0x000000000000000000000000c29d7fe198328a424b2113c91bcaa843d10e2c3c",
                        "0x0000000000000000000000000000000000000000000000000000000000000015"
                    ]
                },
                "nodeType": 1
            }
        },
        "gasFlame": [
            {
                "children": [
                    {
                        "children": [
                            {
                                "children": [],
                                "depth": 0,
                                "name": "Initial Gas",
                                "value": 26604
                            },
                            {
                                "children": [
                                    {
                                        "children": [],
                                        "depth": 1,
                                        "name": "transferFrom",
                                        "value": 26387
                                    }
                                ],
                                "depth": 0,
                                "name": "Executed Gas",
                                "value": 96753
                            }
                        ],
                        "depth": -1,
                        "name": "Actual Gas Used",
                        "value": 118557
                    },
                    {
                        "children": [],
                        "depth": -1,
                        "name": "Refunded Gas",
                        "value": 4800
                    }
                ],
                "depth": -2,
                "name": "Total Gas",
                "value": 123357
            }
        ],
        "isConfirmed": true,
        "mainTrace": [
            {
                "children": [
                    {
                        "children": [
                            {
                                "children": [
                                    {
                                        "children": [],
                                        "depth": 2,
                                        "id": 2,
                                        "order": 2
                                    },
                                    {
                                        "children": [],
                                        "depth": 2,
                                        "id": 3,
                                        "order": 3
                                    }
                                ],
                                "depth": 1,
                                "id": 1,
                                "order": 1
                            },
                            {
                                "children": [],
                                "depth": 1,
                                "id": 4,
                                "order": 4
                            }
                        ],
                        "depth": 0,
                        "id": 0,
                        "order": 0
                    }
                ],
                "depth": -1,
                "id": -1,
                "order": -1
            }
        ],
        "mainTraceNodeCount": 5,
        "parentIdMap": {
            "0": -1,
            "1": 0,
            "2": 1,
            "3": 1,
            "4": 0
        },
        "tidyTrace": [
            {
                "children": [
                    {
                        "children": [
                            {
                                "children": [
                                    {
                                        "children": [],
                                        "depth": 2,
                                        "id": 2,
                                        "order": 2
                                    },
                                    {
                                        "children": [],
                                        "depth": 2,
                                        "id": 3,
                                        "order": 3
                                    }
                                ],
                                "depth": 1,
                                "id": 1,
                                "order": 1
                            },
                            {
                                "children": [],
                                "depth": 1,
                                "id": 4,
                                "order": 4
                            }
                        ],
                        "depth": 0,
                        "id": 0,
                        "order": 0
                    }
                ],
                "depth": -1,
                "id": -1,
                "order": -1
            }
        ],
        "tidyTraceNodeCount": 5
    },
    "state_change": {
        "stateChanges": [
            {
                "address": "0x21bb88e9ca4b588fb1e17fc6cec57e7a328793dc",
                "erc": "ERC-721",
                "slots": [
                    {
                        "current": "0x000000000000000000000000c29d7fe198328a424b2113c91bcaa843d10e2c3c",
                        "key": "0x44f9494ddace41673149b1ce2120e2a8dc5880bba93ff68e6b6c883c57a0c695",
                        "prev": "0x0000000000000000000000000000000000000000000000000000000000000000"
                    },
                    {
                        "current": "0x0000000000000000000000000000000000000000000000000000000000000015",
                        "key": "0x000000000000000000000000000000000000000000000000000000000000000a",
                        "prev": "0x0000000000000000000000000000000000000000000000000000000000000014"
                    },
                    {
                        "current": "0x0000000000000000000000000000000000000000000000000000000000000001",
                        "key": "0x5f62a047e1a5db547b2a3a87224815669d857d692c491460f1b4be7d6b88daee",
                        "prev": "0x0000000000000000000000000000000000000000000000000000000000000000"
                    }
                ],
                "storageVariables": [
                    {
                        "name": "_owners",
                        "type": "mapping(uint256 => address)",
                        "value": {
                            "pairs": [
                                {
                                    "key": "21",
                                    "value": {
                                        "current": "0xc29d7fe198328a424b2113c91bcaa843d10e2c3c",
                                        "prev": "0x0000000000000000000000000000000000000000",
                                        "typeTag": 1
                                    }
                                }
                            ],
                            "typeTag": 4
                        }
                    },
                    {
                        "name": "_totalSupply",
                        "type": "struct Counters.Counter",
                        "value": {
                            "fields": [
                                {
                                    "name": "_value",
                                    "type": "uint256",
                                    "value": {
                                        "current": "21",
                                        "prev": "20",
                                        "typeTag": 1
                                    }
                                }
                            ],
                            "typeTag": 3
                        }
                    },
                    {
                        "name": "_balances",
                        "type": "mapping(address => uint256)",
                        "value": {
                            "pairs": [
                                {
                                    "key": "0xc29d7fe198328a424b2113c91bcaa843d10e2c3c",
                                    "value": {
                                        "current": "1",
                                        "prev": "0",
                                        "typeTag": 1
                                    }
                                }
                            ],
                            "typeTag": 4
                        }
                    }
                ]
            },
            {
                "address": "0xac3d006f6332981fd1a0ce2055fa42786aaf16f9",
                "erc": "ERC-721",
                "slots": [
                    {
                        "current": "0x0000000000000000000000000000000000000000000000000000000000000017",
                        "key": "0x262bb27bbdd95c1cdc8e16957e36e38579ea44f7f6413dd7a9c75939def06b2c",
                        "prev": "0x0000000000000000000000000000000000000000000000000000000000000016"
                    },
                    {
                        "current": "0x000000000000000000000000000000000000000000000000000000000000dead",
                        "key": "0x101e46f2442145fb440983d656c946771860a6dde5d14a163d7e67cd06b244b7",
                        "prev": "0x000000000000000000000000c29d7fe198328a424b2113c91bcaa843d10e2c3c"
                    },
                    {
                        "current": "0x0000000000000000000000000000000000000000000000000000000000000000",
                        "key": "0x5f62a047e1a5db547b2a3a87224815669d857d692c491460f1b4be7d6b88daee",
                        "prev": "0x0000000000000000000000000000000000000000000000000000000000000001"
                    }
                ],
                "storageVariables": [
                    {
                        "name": "_balances",
                        "type": "mapping(address => uint256)",
                        "value": {
                            "pairs": [
                                {
                                    "key": "0x000000000000000000000000000000000000dead",
                                    "value": {
                                        "current": "23",
                                        "prev": "22",
                                        "typeTag": 1
                                    }
                                },
                                {
                                    "key": "0xc29d7fe198328a424b2113c91bcaa843d10e2c3c",
                                    "value": {
                                        "current": "0",
                                        "prev": "1",
                                        "typeTag": 1
                                    }
                                }
                            ],
                            "typeTag": 4
                        }
                    },
                    {
                        "name": "_owners",
                        "type": "mapping(uint256 => address)",
                        "value": {
                            "pairs": [
                                {
                                    "key": "258",
                                    "value": {
                                        "current": "0x000000000000000000000000000000000000dead",
                                        "prev": "0xc29d7fe198328a424b2113c91bcaa843d10e2c3c",
                                        "typeTag": 1
                                    }
                                }
                            ],
                            "typeTag": 4
                        }
                    }
                ]
            }
        ]
    }
}