{
    "balance_change": {
        "balanceChanges": [
            {
                "account": "0x381e840f4ebe33d0153e9a312105554594a98c42",
                "assets": [
                    {
                        "address": "0xc36cf0cfcb5d905b8b513860db0cfe63f6cf9f5c",
                        "amount": "1",
                        "iconUrl": "",
                        "isERC1155": true,
                        "isERC721": false,
                        "sign": false,
                        "tokenID": "146321417776003539289251081195660330926080",
                        "value": ""
                    }
                ]
            },
            {
                "account": "0x3c73ccc62b764b3ce95a0b23925b21f067448acb",
                "assets": [
                    {
                        "address": "0xc36cf0cfcb5d905b8b513860db0cfe63f6cf9f5c",
                        "amount": "1",
                        "iconUrl": "",
                        "isERC1155": true,
                        "isERC721": false,
                        "sign": true,
                        "tokenID": "146321417776003539289251081195660330926080",
                        "value": ""
                    }
                ]
            }
        ]
    },
    "profile": {
        "basic_info": {
            "baseFee": "98.630223244",
            "blockNumber": 13755205,
            "callData": "0x2eb2c2d6000000000000000000000000381e840f4ebe33d0153e9a312105554594a98c420000000000000000000000003c73ccc62b764b3ce95a0b23925b21f067448acb00000000000000000000000000000000000000000000000000000000000000a000000000000000000000000000000000000000000000000000000000000000e000000000000000000000000000000000000000000000000000000000000001200000000000000000000000000000000000000000000000000000000000000001000000000000000000000000000001ae00000000000000000000000000000000000000000000000000000000000000000000000000000000000000000000000100000000000000000000000000000000000000000000000000000000000000010000000000000000000000000000000000000000000000000000000000000000",
            "debugEnable": true,
            "errorInfo": "",
            "eventCount": 1,
            "feeRecipient": "0xeea5b82b61424df8020f5fedd81767f2d0d25bfb",
            "formatValue": "0",
            "gasLimit": 130000,
            "gasPrice": "125",
            "gasUsed": 61256,
            "intTxnCount": 0,
            "internalRevert": false,
            "internalRevertMessage": "",
            "isContractCreation": false,
            "isFlashloan": false,
            "maxFee": "",
            "nonce": 77391,
            "overwritedBlockNumber": -1,
            "priorityFee": "",
            "receiver": "0xc36cf0cfcb5d905b8b513860db0cfe63f6cf9f5c",
            "revertMessage": "",
            "sender": "0x37b94141bca7000241b87b4b361f155197181002",
            "simulationEnable": true,
            "sourceTxnHash": "0x2c368fe027d09505f8fc1a486c097321eb0ae4b00349309592aea9c25054f53f",
            "status": true,
            "timestamp": "2021-12-06T23:38:04Z",
            "transactionFee": "0.007657",
            "txnHash": "0x2c368fe027d09505f8fc1a486c097321eb0ae4b00349309592aea9c25054f53f",
            "txnIndex": 4,
            "type": 0,
            "value": "0"
        },
        "fund_flow": [
            {
                "amount": "1",
                "from": "0x381e840f4ebe33d0153e9a312105554594a98c42",
                "id": 1,
                "isERC1155": true,
                "isERC721": false,
                "isReverted": false,
                "order": 1,
                "to": "0x3c73ccc62b764b3ce95a0b23925b21f067448acb",
                "token": "0xc36cf0cfcb5d905b8b513860db0cfe63f6cf9f5c",
                "tokenID": "146321417776003539289251081195660330926080"
            }
        ],
        "token_infos": [
            {
                "address": "0xc02aaa39b223fe8d0a0e5c4f27ead9083c756cc2",
                "decimals": 18
            },
            {
                "address": "0xeeeeeeeeeeeeeeeeeeeeeeeeeeeeeeeeeeeeeeee",
                "decimals": 18
            }
        ]
    },
    "address_label": {
        "labels": [
            {
                "address": "0x0000000000000000000000000000000000000004",
                "label": "Precompiled"
            },
            {
                "address": "0xeeeeeeeeeeeeeeeeeeeeeeeeeeeeeeeeeeeeeeee",
                "label": "Ether"
            },
            {
                "address": "0xc36cf0cfcb5d905b8b513860db0cfe63f6cf9f5c",
                "label": "Town Star: Token"
            },
            {
                "address": "0x0000000000000000000000000000000000000001",
                "label": "Precompiled"
            },
            {
                "address": "0x0000000000000000000000000000000000000002",
                "label": "Precompiled"
            },
            {
                "address": "0x0000000000000000000000000000000000000003",
                "label": "Precompiled"
            }
        ]
    },
    "trace": {
        "accountLabels": null,
        "dataMap": {
            "-1": {
                "invocation": {
                    "address": "0x37b94141bca7000241b87b4b361f155197181002",
                    "callData": "",
                    "decodedMethod": null,
                    "errorInfo": "",
                    "fromAddress": "",
                    "gasUsed": 0,
                    "id": -1,
                    "methodDecoded": false,
                    "operation": "",
                    "output": "",
                    "revert": false,
                    "revertMessage": "",
                    "selector": "",
                    "status": false,
                    "value": ""
                },
                "nodeType": 0
            },
            "0": {
                "invocation": {
                    "address": "0xc36cf0cfcb5d905b8b513860db0cfe63f6cf9f5c",
                    "callData": "0x000000000000000000000000381e840f4ebe33d0153e9a312105554594a98c420000000000000000000000003c73ccc62b764b3ce95a0b23925b21f067448acb00000000000000000000000000000000000000000000000000000000000000a000000000000000000000000000000000000000000000000000000000000000e000000000000000000000000000000000000000000000000000000000000001200000000000000000000000000000000000000000000000000000000000000001000000000000000000000000000001ae00000000000000000000000000000000000000000000000000000000000000000000000000000000000000000000000100000000000000000000000000000000000000000000000000000000000000010000000000000000000000000000000000000000000000000000000000000000",
                    "decodedMethod": {
                        "callParams": [
                            {
                                "name": "_from",
                                "type": "address",
                                "value": "0x381e840f4ebe33d0153e9a312105554594a98c42"
                            },
                            {
                                "name": "_to",
                                "type": "address",
                                "value": "0x3c73ccc62b764b3ce95a0b23925b21f067448acb"
                            },
                            {
                                "name": "_ids",
                                "type": "uint256[]",
                                "value": [
                                    "146,321,417,776,003,539,289,251,081,195,660,330,926,080"
                                ]
                            },
                            {
                                "name": "_values",
                                "type": "uint256[]",
                                "value": [
                                    "1"
                                ]
                            },
                            {
                                "name": "_data",
                                "type": "bytes",
                                "value": "0x"
                            }
                        ],
                        "constructorArguments": "",
                        "name": "safeBatchTransferFrom",
                        "returnParams": [],
                        "signature": "safeBatchTransferFrom(address,address,uint256[],uint256[],bytes)"
                    },
                    "errorInfo": "",
                    "fromAddress": "0x37b94141bca7000241b87b4b361f155197181002",
                    "gasUsed": 61256,
                    "id": 0,
                    "methodDecoded": true,
                    "operation": "CALL",
                    "output": "",
                    "revert": false,
                    "revertMessage": "",
                    "selector": "0x2eb2c2d6",
                    "status": true,
                    "value": "0"
                },
                "nodeType": 0
            },
            "1": {
                "event": {
                    "contract": "0xc36cf0cfcb5d905b8b513860db0cfe63f6cf9f5c",
                    "decodedLog": {
                        "name": "TransferBatch",
                        "params": [
                            {
                                "name": "_operator",
                                "type": "address",
                                "value": "0x37b94141bca7000241b87b4b361f155197181002"
                            },
                            {
                                "name": "_from",
                                "type": "address",
                                "value": "0x381e840f4ebe33d0153e9a312105554594a98c42"
                            },
                            {
                                "name": "_to",
                                "type": "address",
                                "value": "0x3c73ccc62b764b3ce95a0b23925b21f067448acb"
                            },
                            {
                                "name": "_ids",
                                "type": "uint256[]",
                                "value": [
                                    "146,321,417,776,003,539,289,251,081,195,660,330,926,080"
                                ]
                            },
                            {
                                "name": "_values",
                                "type": "uint256[]",
                                "value": [
                                    "1"
                                ]
                            }
                        ],
                        "signature": "TransferBatch(address,address,address,uint256[],uint256[])"
                    },
                    "id": 1,
                    "logData": "0x000000000000000000000000000000000000000000000000000000000000004000000000000000000000000000000000000000000000000000000000000000800000000000000000000000000000000000000000000000000000000000000001000000000000000000000000000001ae0000000000000000000000000000000000000000000000000000000000000000000000000000000000000000000000010000000000000000000000000000000000000000000000000000000000000001",
                    "logDecoded": true,
                    "operation": "EVENT",
                    "revert": false,
                    "status": true,
                    "topics": [
                        "0x4a39dc06d4c0dbc64b70af90fd698a233a518aa5d07e595d983b8c0526c8f7fb",
                        "0x00000000000000000000000037b94141bca7000241b87b4b361f155197181002",
                        "0x000000000000000000000000381e840f4ebe33d0153e9a312105554594a98c42",
                        "0x0000000000000000000000003c73ccc62b764b3ce95a0b23925b21f067448acb"
                    ]
                },
                "nodeType": 1
            }
        },
        "gasFlame": [
            {
                "children": [
                    {
                        "children": [
                            {
                                "children": [],
                                "depth": 0,
                                "name": "Initial Gas",
                                "value": 22932
                            },
                            {
                                "children": [],
                                "depth": 0,
                                "name": "Executed Gas",
                                "value": 38324
                            }
                        ],
                        "depth": -1,
                        "name": "Actual Gas Used",
                        "value": 61256
                    },
                    {
                        "children": [],
                        "depth": -1,
                        "name": "Refunded Gas",
                        "value": 0
                    }
                ],
                "depth": -2,
                "name": "Total Gas",
                "value": 61256
            }
        ],
        "isConfirmed": true,
        "mainTrace": [
            {
                "children": [
                    {
                        "children": [
                            {
                                "children": [],
                                "depth": 1,
                                "id": 1,
                                "order": 1
                            }
                        ],
                        "depth": 0,
                        "id": 0,
                        "order": 0
                    }
                ],
                "depth": -1,
                "id": -1,
                "order": -1
            }
        ],
        "mainTraceNodeCount": 2,
        "parentIdMap": {
            "0": -1,
            "1": 0
        },
        "tidyTrace": [
            {
                "children": [
                    {
                        "children": [
                            {
                                "children": [],
                                "depth": 1,
                                "id": 1,
                                "order": 1
                            }
                        ],
                        "depth": 0,
                        "id": 0,
                        "order": 0
                    }
                ],
                "depth": -1,
                "id": -1,
                "order": -1
            }
        ],
        "tidyTraceNodeCount": 2
    },
    "state_change": {
        "stateChanges": [
            {
                "address": "0xc36cf0cfcb5d905b8b513860db0cfe63f6cf9f5c",
                "erc": "ERC-1155",
                "slots": [
                    {
                        "current": "0x0000000000000000000000000000000000000000000000000000000000000001",
                        "key": "0xb18f36f3bbed0d46beb24e9120b821e1c05f5ec193ba806502bb7d69cfc70dd3",
                        "prev": "0x0000000000000000000000000000000000000000000000000000000000000000"
                    },
                    {
                        "current": "0x0000000000000000000000000000000000000000000000000000000000001948",
                        "key": "0x8cd5c0a266855f3888864193a68a1fa56430aded4d7d6fa17789516db252021c",
                        "prev": "0x0000000000000000000000000000000000000000000000000000000000001949"
                    }
                ],
                "storageVariables": [
                    {
                        "name": "balances",
                        "type": "mapping(uint256 => mapping(address => uint256))",
                        "value": {
                            "pairs": [
                                {
                                    "key": "146321417776003539289251081195660330926080",
                                    "value": {
                                        "pairs": [
                                            {
                                                "key": "0x381e840f4ebe33d0153e9a312105554594a98c42",
                                                "value": {
                                                    "current": "6472",
                                                    "prev": "6473",
                                                    "typeTag": 1
                                                }
                                            },
                                            {
                                                "key": "0x3c73ccc62b764b3ce95a0b23925b21f067448acb",
                                                "value": {
                                                    "current": "1",
                                                    "prev": "0",
                                                    "typeTag": 1
                                                }
                                            }
                                        ],
                                        "typeTag": 4
                                    }
                                }
                            ],
                            "typeTag": 4
                        }
                    }
                ]
            }
        ]
    }
}