{
    "balance_change": {
        "balanceChanges": []
    },
    "profile": {
        "basic_info": {
            "baseFee": "",
            "blockNumber": 4784638,
            "callData": "0x0a19b14a000000000000000000000000519475b31653e46d20cd09f9fdcf3b12bdacb4f500000000000000000000000000000000000000000000017b7883c06916600000000000000000000000000000000000000000000000000000000000000000000000000000000000000000000000000000000000000000000002192b99520a000000000000000000000000000000000000000000000000000000000000004927dc00000000000000000000000000000000000000000000000000000000b4b320860000000000000000000000001dd4d1f2bc0a2bb1d64671d8a4ae50436329a5d7000000000000000000000000000000000000000000000000000000000000001b50015b4435021d879b7cec5b5369a1af40486843c24b00ae3f02d4c946ca3afe0c159c097a0fe497b23602e2b67e15d5efc5ddfdfd5fce847b4858b4e5867e900000000000000000000000000000000000000000000000dd9316a3dd7239db18",
            "debugEnable": true,
            "errorInfo": "",
            "eventCount": 1,
            "feeRecipient": "0xea674fdde714fd979de3edf0f56aa9716b898ec8",
            "formatValue": "0",
            "gasLimit": 250000,
            "gasPrice": "4",
            "gasUsed": 108242,
            "intTxnCount": 2,
            "internalRevert": false,
            "internalRevertMessage": "",
            "isContractCreation": false,
            "isFlashloan": false,
            "maxFee": "",
            "nonce": 2,
            "overwritedBlockNumber": -1,
            "priorityFee": "",
            "receiver": "0x8d12a197cb00d4747a1fe03395095ce2a5cc6819",
            "revertMessage": "",
            "sender": "0x38b5f18a542d0ed531954fdcb9eac9bfbcf49794",
            "simulationEnable": true,
            "sourceTxnHash": "0x2cebc8c7b402561fd75084d2d410265e40a574b2edfdc5a33e9c14ef984c5621",
            "status": true,
            "timestamp": "2017-12-23T21:01:15Z",
            "transactionFee": "0.000432968",
            "txnHash": "0x2cebc8c7b402561fd75084d2d410265e40a574b2edfdc5a33e9c14ef984c5621",
            "txnIndex": 50,
            "type": 0,
            "value": "0"
        },
        "fund_flow": [],
        "token_infos": [
            {
                "address": "0xc02aaa39b223fe8d0a0e5c4f27ead9083c756cc2",
                "decimals": 18
            },
            {
                "address": "0xeeeeeeeeeeeeeeeeeeeeeeeeeeeeeeeeeeeeeeee",
                "decimals": 18
            }
        ]
    },
    "address_label": {
        "labels": [
            {
                "address": "0xeeeeeeeeeeeeeeeeeeeeeeeeeeeeeeeeeeeeeeee",
                "label": "Ether"
            },
            {
                "address": "0x8d12a197cb00d4747a1fe03395095ce2a5cc6819",
                "label": "EtherDelta"
            },
            {
                "address": "0x519475b31653e46d20cd09f9fdcf3b12bdacb4f5",
                "label": "Viuly: Old Token"
            },
            {
                "address": "0x0000000000000000000000000000000000000002",
                "label": "Precompiled"
            },
            {
                "address": "0x0000000000000000000000000000000000000000",
                "label": "Null Address"
            },
            {
                "address": "0x0000000000000000000000000000000000000001",
                "label": "Precompiled"
            },
            {
                "address": "0x0000000000000000000000000000000000000003",
                "label": "Precompiled"
            },
            {
                "address": "0x0000000000000000000000000000000000000004",
                "label": "Precompiled"
            }
        ]
    },
    "trace": {
        "accountLabels": null,
        "dataMap": {
            "-1": {
                "invocation": {
                    "address": "0x38b5f18a542d0ed531954fdcb9eac9bfbcf49794",
                    "callData": "",
                    "decodedMethod": null,
                    "errorInfo": "",
                    "fromAddress": "",
                    "gasUsed": 0,
                    "id": -1,
                    "methodDecoded": false,
                    "operation": "",
                    "output": "",
                    "revert": false,
                    "revertMessage": "",
                    "selector": "",
                    "status": false,
                    "value": ""
                },
                "nodeType": 0
            },
            "0": {
                "invocation": {
                    "address": "0x8d12a197cb00d4747a1fe03395095ce2a5cc6819",
                    "callData": "0x000000000000000000000000519475b31653e46d20cd09f9fdcf3b12bdacb4f500000000000000000000000000000000000000000000017b7883c06916600000000000000000000000000000000000000000000000000000000000000000000000000000000000000000000000000000000000000000000002192b99520a000000000000000000000000000000000000000000000000000000000000004927dc00000000000000000000000000000000000000000000000000000000b4b320860000000000000000000000001dd4d1f2bc0a2bb1d64671d8a4ae50436329a5d7000000000000000000000000000000000000000000000000000000000000001b50015b4435021d879b7cec5b5369a1af40486843c24b00ae3f02d4c946ca3afe0c159c097a0fe497b23602e2b67e15d5efc5ddfdfd5fce847b4858b4e5867e900000000000000000000000000000000000000000000000dd9316a3dd7239db18",
                    "decodedMethod": {
                        "callParams": [
                            {
                                "name": "tokenGet",
                                "type": "address",
                                "value": "0x519475b31653e46d20cd09f9fdcf3b12bdacb4f5"
                            },
                            {
                                "name": "amountGet",
                                "type": "uint256",
                                "value": "7,000,000,000,000,000,000,000"
                            },
                            {
                                "name": "tokenGive",
                                "type": "address",
                                "value": "0x0000000000000000000000000000000000000000"
                            },
                            {
                                "name": "amountGive",
                                "type": "uint256",
                                "value": "151,200,000,000,000,000"
                            },
                            {
                                "name": "expires",
                                "type": "uint256",
                                "value": "4,794,332"
                            },
                            {
                                "name": "nonce",
                                "type": "uint256",
                                "value": "3,031,638,150"
                            },
                            {
                                "name": "user",
                                "type": "address",
                                "value": "0x1dd4d1f2bc0a2bb1d64671d8a4ae50436329a5d7"
                            },
                            {
                                "name": "v",
                                "type": "uint8",
                                "value": "27"
                            },
                            {
                                "name": "r",
                                "type": "bytes32",
                                "value": "0x50015b4435021d879b7cec5b5369a1af40486843c24b00ae3f02d4c946ca3afe"
                            },
                            {
                                "name": "s",
                                "type": "bytes32",
                                "value": "0x0c159c097a0fe497b23602e2b67e15d5efc5ddfdfd5fce847b4858b4e5867e90"
                            },
                            {
                                "name": "amount",
                                "type": "uint256",
                                "value": "4,087,329,279,234,373,442,328"
                            }
                        ],
                        "constructorArguments": "",
                        "name": "trade",
                        "returnParams": [],
                        "signature": "trade(address,uint256,address,uint256,uint256,uint256,address,uint8,bytes32,bytes32,uint256)"
                    },
                    "errorInfo": "",
                    "fromAddress": "0x38b5f18a542d0ed531954fdcb9eac9bfbcf49794",
                    "gasUsed": 108242,
                    "id": 0,
                    "methodDecoded": true,
                    "operation": "CALL",
                    "output": "",
                    "revert": false,
                    "revertMessage": "",
                    "selector": "0x0a19b14a",
                    "status": true,
                    "value": "0"
                },
                "nodeType": 0
            },
            "1": {
                "invocation": {
                    "address": "0x0000000000000000000000000000000000000002",
                    "callData": "0xcb00d4747a1fe03395095ce2a5cc6819519475b31653e46d20cd09f9fdcf3b12bdacb4f500000000000000000000000000000000000000000000017b7883c06916600000000000000000000000000000000000000000000000000000000000000000000000000000000000000000000002192b99520a000000000000000000000000000000000000000000000000000000000000004927dc00000000000000000000000000000000000000000000000000000000b4b32086",
                    "decodedMethod": {
                        "callParams": [
                            {
                                "name": "data",
                                "type": "bytes",
                                "value": "0x8d12a197cb00d4747a1fe03395095ce2a5cc6819519475b31653e46d20cd09f9fdcf3b12bdacb4f500000000000000000000000000000000000000000000017b7883c06916600000000000000000000000000000000000000000000000000000000000000000000000000000000000000000000002192b99520a000000000000000000000000000000000000000000000000000000000000004927dc00000000000000000000000000000000000000000000000000000000b4b32086"
                            }
                        ],
                        "constructorArguments": "",
                        "name": "sha256hash",
                        "returnParams": [
                            {
                                "name": "hash",
                                "type": "bytes32",
                                "value": "0x13d85b8820f9c921716b33168147ea833da4e43b422143d2b08a009ecde42a2b"
                            }
                        ],
                        "signature": "sha256hash(bytes)"
                    },
                    "errorInfo": "",
                    "fromAddress": "0x8d12a197cb00d4747a1fe03395095ce2a5cc6819",
                    "gasUsed": 132,
                    "id": 1,
                    "methodDecoded": true,
                    "operation": "CALL",
                    "output": "0x13d85b8820f9c921716b33168147ea833da4e43b422143d2b08a009ecde42a2b",
                    "revert": false,
                    "revertMessage": "",
                    "selector": "0x8d12a197",
                    "status": true,
                    "value": "0"
                },
                "nodeType": 0
            },
            "2": {
                "invocation": {
                    "address": "0x0000000000000000000000000000000000000001",
                    "callData": "0x0874e36df8fd5ce59e2e254e9d0c98a277de6dcce63e9a1d3b427823000000000000000000000000000000000000000000000000000000000000001b50015b4435021d879b7cec5b5369a1af40486843c24b00ae3f02d4c946ca3afe0c159c097a0fe497b23602e2b67e15d5efc5ddfdfd5fce847b4858b4e5867e90",
                    "decodedMethod": {
                        "callParams": [
                            {
                                "name": "hash",
                                "type": "bytes32",
                                "value": "0xe10c44730874e36df8fd5ce59e2e254e9d0c98a277de6dcce63e9a1d3b427823"
                            },
                            {
                                "name": "v",
                                "type": "uint256",
                                "value": "27"
                            },
                            {
                                "name": "r",
                                "type": "bytes32",
                                "value": "0x50015b4435021d879b7cec5b5369a1af40486843c24b00ae3f02d4c946ca3afe"
                            },
                            {
                                "name": "s",
                                "type": "bytes32",
                                "value": "0x0c159c097a0fe497b23602e2b67e15d5efc5ddfdfd5fce847b4858b4e5867e90"
                            }
                        ],
                        "constructorArguments": "",
                        "name": "ecrecover",
                        "returnParams": [
                            {
                                "name": "",
                                "type": "address",
                                "value": "0x1dd4d1f2bc0a2bb1d64671d8a4ae50436329a5d7"
                            }
                        ],
                        "signature": "ecrecover(bytes32,uint256,bytes32,bytes32)"
                    },
                    "errorInfo": "",
                    "fromAddress": "0x8d12a197cb00d4747a1fe03395095ce2a5cc6819",
                    "gasUsed": 3000,
                    "id": 2,
                    "methodDecoded": true,
                    "operation": "CALL",
                    "output": "0x0000000000000000000000001dd4d1f2bc0a2bb1d64671d8a4ae50436329a5d7",
                    "revert": false,
                    "revertMessage": "",
                    "selector": "0xe10c4473",
                    "status": true,
                    "value": "0"
                },
                "nodeType": 0
            },
            "3": {
                "event": {
                    "contract": "0x8d12a197cb00d4747a1fe03395095ce2a5cc6819",
                    "decodedLog": {
                        "name": "Trade",
                        "params": [
                            {
                                "name": "tokenGet",
                                "type": "address",
                                "value": "0x519475b31653e46d20cd09f9fdcf3b12bdacb4f5"
                            },
                            {
                                "name": "amountGet",
                                "type": "uint256",
                                "value": "4,087,329,279,234,373,442,328"
                            },
                            {
                                "name": "tokenGive",
                                "type": "address",
                                "value": "0x0000000000000000000000000000000000000000"
                            },
                            {
                                "name": "amountGive",
                                "type": "uint256",
                                "value": "88,286,312,431,462,466"
                            },
                            {
                                "name": "get",
                                "type": "address",
                                "value": "0x1dd4d1f2bc0a2bb1d64671d8a4ae50436329a5d7"
                            },
                            {
                                "name": "give",
                                "type": "address",
                                "value": "0x38b5f18a542d0ed531954fdcb9eac9bfbcf49794"
                            }
                        ],
                        "signature": "Trade(address,uint256,address,uint256,address,address)"
                    },
                    "id": 3,
                    "logData": "0x000000000000000000000000519475b31653e46d20cd09f9fdcf3b12bdacb4f50000000000000000000000000000000000000000000000dd9316a3dd7239db1800000000000000000000000000000000000000000000000000000000000000000000000000000000000000000000000000000000000000000139a7eef301a8420000000000000000000000001dd4d1f2bc0a2bb1d64671d8a4ae50436329a5d700000000000000000000000038b5f18a542d0ed531954fdcb9eac9bfbcf49794",
                    "logDecoded": true,
                    "operation": "EVENT",
                    "revert": false,
                    "status": true,
                    "topics": [
                        "0x6effdda786735d5033bfad5f53e5131abcced9e52be6c507b62d639685fbed6d"
                    ]
                },
                "nodeType": 1
            }
        },
        "gasFlame": [
            {
                "children": [
                    {
                        "children": [
                            {
                                "children": [],
                                "depth": 0,
                                "name": "Initial Gas",
                                "value": 31256
                            },
                            {
                                "children": [
                                    {
                                        "children": [],
                                        "depth": 1,
                                        "name": "sha256hash",
                                        "value": 132
                                    },
                                    {
                                        "children": [],
                                        "depth": 1,
                                        "name": "ecrecover",
                                        "value": 3000
                                    }
                                ],
                                "depth": 0,
                                "name": "Executed Gas",
                                "value": 76986
                            }
                        ],
                        "depth": -1,
                        "name": "Actual Gas Used",
                        "value": 108242
                    },
                    {
                        "children": [],
                        "depth": -1,
                        "name": "Refunded Gas",
                        "value": 0
                    }
                ],
                "depth": -2,
                "name": "Total Gas",
                "value": 108242
            }
        ],
        "isConfirmed": true,
        "mainTrace": [
            {
                "children": [
                    {
                        "children": [
                            {
                                "children": [],
                                "depth": 1,
                                "id": 1,
                                "order": 1
                            },
                            {
                                "children": [],
                                "depth": 1,
                                "id": 2,
                                "order": 2
                            },
                            {
                                "children": [],
                                "depth": 1,
                                "id": 3,
                                "order": 3
                            }
                        ],
                        "depth": 0,
                        "id": 0,
                        "order": 0
                    }
                ],
                "depth": -1,
                "id": -1,
                "order": -1
            }
        ],
        "mainTraceNodeCount": 4,
        "parentIdMap": {
            "0": -1,
            "1": 0,
            "2": 0,
            "3": 0
        },
        "tidyTrace": [
            {
                "children": [
                    {
                        "children": [
                            {
                                "children": [],
                                "depth": 1,
                                "id": 1,
                                "order": 1
                            },
                            {
                                "children": [],
                                "depth": 1,
                                "id": 2,
                                "order": 2
                            },
                            {
                                "children": [],
                                "depth": 1,
                                "id": 3,
                                "order": 3
                            }
                        ],
                        "depth": 0,
                        "id": 0,
                        "order": 0
                    }
                ],
                "depth": -1,
                "id": -1,
                "order": -1
            }
        ],
        "tidyTraceNodeCount": 4
    },
    "state_change": {
        "stateChanges": [
            {
                "address": "0x8d12a197cb00d4747a1fe03395095ce2a5cc6819",
                "erc": "",
                "slots": [
                    {
                        "current": "0x0000000000000000000000000000000000000000000000000139a7eef301a842",
                        "key": "0x6119c6871ce6db6d66753f9516e77ad69f0386b7db280f45d35ef839706ee1fd",
                        "prev": "0x0000000000000000000000000000000000000000000000000000000000000000"
                    },
                    {
                        "current": "0x0000000000000000000000000000000000000000000000dd9316a3dd7239db18",
                        "key": "0xc5e1402243dd5bdd9f10b01948df8456a1a96cae454879ca37cfb667a5e58fec",
                        "prev": "0x0000000000000000000000000000000000000000000000000000000000000000"
                    },
                    {
                        "current": "0x00000000000000000000000000000000000000000000000005ac1c6eb0e1bf22",
                        "key": "0x32b3c3814bfea9b3d6af62b0d0c0197a3935d3f256fad4daff10cecf4ffd0e62",
                        "prev": "0x0000000000000000000000000000000000000000000000de42ee1544dd900000"
                    },
                    {
                        "current": "0x0000000000000000000000000000000000000000000002fbacfa166453691a04",
                        "key": "0x6203a28e1e28a185520041e2d6ee055996154ca1b991c113015bc6760650d235",
                        "prev": "0x00000000000000000000000000000000000000000000021e19e37286e12f3eec"
                    },
                    {
                        "current": "0x00000000000000000000000000000000000000000000003dbc5ac1501905f422",
                        "key": "0x755b3b57c74a236e4a340bd2534f4cbb66c879f97f20f4fb2bf950fe722925f5",
                        "prev": "0x00000000000000000000000000000000000000000000003d122f6c575e918e5c"
                    },
                    {
                        "current": "0x000000000000000000000000000000000000000000000000057cf47706bd3cdf",
                        "key": "0x1e8b733e6addb4fd01f6c0981d475f4bc934c69122aba9737864820191d2aafb",
                        "prev": "0x00000000000000000000000000000000000000000000000006b69c65f9bee521"
                    }
                ],
                "storageVariables": []
            }
        ]
    }
}