{
    "balance_change": {
        "balanceChanges": [
            {
                "account": "0x9c5d5a5855e9bafe1e47d34fe60390fabe03c540",
                "assets": [
                    {
                        "address": "0xf0f9d895aca5c8678f706fb8216fa22957685a13",
                        "amount": "310,394,920.31496",
                        "iconUrl": "https://assets.blocksec.com/icon/0640bfb13718ff76dfebf4b8db05c45ec8c619b6d62c0677370295e30098bbba.png",
                        "isERC1155": false,
                        "isERC721": false,
                        "sign": false,
                        "value": "949.2185914"
                    },
                    {
                        "address": "0xeeeeeeeeeeeeeeeeeeeeeeeeeeeeeeeeeeeeeeee",
                        "amount": "0.332088827492068452",
                        "iconUrl": "https://assets.blocksec.com/image/1663669189317-3.png",
                        "isERC1155": false,
                        "isERC721": false,
                        "sign": true,
                        "value": "944.25323460887097715"
                    }
                ]
            },
            {
                "account": "0x5281e311734869c64ca60ef047fd87759397efe6",
                "assets": [
                    {
                        "address": "0xf0f9d895aca5c8678f706fb8216fa22957685a13",
                        "amount": "309,153,340.63370016",
                        "iconUrl": "https://assets.blocksec.com/icon/0640bfb13718ff76dfebf4b8db05c45ec8c619b6d62c0677370295e30098bbba.png",
                        "isERC1155": false,
                        "isERC721": false,
                        "sign": true,
                        "value": "944.4358303"
                    },
                    {
                        "address": "0xc02aaa39b223fe8d0a0e5c4f27ead9083c756cc2",
                        "amount": "0.332088827492068452",
                        "iconUrl": "https://assets.blocksec.com/icon/f1cb2d02c471d545bbc7722daf3277fd852d98e63d118771af7047bd8256c516.png",
                        "isERC1155": false,
                        "isERC721": false,
                        "sign": false,
                        "value": "944.25323460887097715"
                    }
                ]
            },
            {
                "account": "0x55ac81186e1a8454c79ad78c615c43f54f87403b",
                "assets": [
                    {
                        "address": "0xf0f9d895aca5c8678f706fb8216fa22957685a13",
                        "amount": "1,241,579.68125984",
                        "iconUrl": "https://assets.blocksec.com/icon/0640bfb13718ff76dfebf4b8db05c45ec8c619b6d62c0677370295e30098bbba.png",
                        "isERC1155": false,
                        "isERC721": false,
                        "sign": true,
                        "value": "3.79488674"
                    }
                ]
            },
            {
                "account": "0xc02aaa39b223fe8d0a0e5c4f27ead9083c756cc2",
                "assets": [
                    {
                        "address": "0xeeeeeeeeeeeeeeeeeeeeeeeeeeeeeeeeeeeeeeee",
                        "amount": "0.332088827492068452",
                        "iconUrl": "https://assets.blocksec.com/image/1663669189317-3.png",
                        "isERC1155": false,
                        "isERC721": false,
                        "sign": false,
                        "value": "944.25323460887097715"
                    },
                    {
                        "address": "0xc02aaa39b223fe8d0a0e5c4f27ead9083c756cc2",
                        "amount": "0.332088827492068452",
                        "iconUrl": "https://assets.blocksec.com/icon/f1cb2d02c471d545bbc7722daf3277fd852d98e63d118771af7047bd8256c516.png",
                        "isERC1155": false,
                        "isERC721": false,
                        "sign": true,
                        "value": "944.25323460887097715"
                    }
                ]
            }
        ]
    },
    "profile": {
        "basic_info": {
            "baseFee": "19.239653865",
            "blockNumber": 19238039,
            "callData": "0x3593564c000000000000000000000000000000000000000000000000000000000000006000000000000000000000000000000000000000000000000000000000000000a00000000000000000000000000000000000000000000000000000000065cee42b00000000000000000000000000000000000000000000000000000000000000030a080c00000000000000000000000000000000000000000000000000000000000000000000000000000000000000000000000000000000000000000000000003000000000000000000000000000000000000000000000000000000000000006000000000000000000000000000000000000000000000000000000000000001e000000000000000000000000000000000000000000000000000000000000003000000000000000000000000000000000000000000000000000000000000000160000000000000000000000000f0f9d895aca5c8678f706fb8216fa22957685a13000000000000000000000000ffffffffffffffffffffffffffffffffffffffff0000000000000000000000000000000000000000000000000000000065f66ee600000000000000000000000000000000000000000000000000000000000000010000000000000000000000003fc91a3afd70395cd496c647d5a6cc9d4b2b7fad0000000000000000000000000000000000000000000000000000000065cee8ee00000000000000000000000000000000000000000000000000000000000000e00000000000000000000000000000000000000000000000000000000000000041ba2e99026043003d90735dfb814879c96f5fcb98fc56f42022ecc29af908dd2b7aec0089d81c448e9c2ee04116be1977f7438a3575fed8e83c4447873f4550011b000000000000000000000000000000000000000000000000000000000000000000000000000000000000000000000000000000000000000000000000000100000000000000000000000000000000000000000000000000000000000000000200000000000000000000000000000000000000000100c0ae58c1265eae150000000000000000000000000000000000000000000000000000049238e017cf384300000000000000000000000000000000000000000000000000000000000000a000000000000000000000000000000000000000000000000000000000000000010000000000000000000000000000000000000000000000000000000000000002000000000000000000000000f0f9d895aca5c8678f706fb8216fa22957685a13000000000000000000000000c02aaa39b223fe8d0a0e5c4f27ead9083c756cc200000000000000000000000000000000000000000000000000000000000000400000000000000000000000000000000000000000000000000000000000000001000000000000000000000000000000000000000000000000049238e017cf3843",
            "debugEnable": true,
            "errorInfo": "",
            "eventCount": 8,
            "feeRecipient": "0x4838b106fce9647bdf1e7877bf73ce8b0bad5f97",
            "formatValue": "0",
            "gasLimit": 305437,
            "gasPrice": "19.240594765",
            "gasUsed": 215703,
            "intTxnCount": 29,
            "internalRevert": false,
            "internalRevertMessage": "",
            "isContractCreation": false,
            "isFlashloan": false,
            "maxFee": "26.639049327",
            "nonce": 50,
            "overwritedBlockNumber": -1,
            "priorityFee": "0.0009409",
            "receiver": "0x3fc91a3afd70395cd496c647d5a6cc9d4b2b7fad",
            "revertMessage": "",
            "sender": "0x9c5d5a5855e9bafe1e47d34fe60390fabe03c540",
            "simulationEnable": true,
            "sourceTxnHash": "0x2c6f72ee32260a661004a106eb026d85939ba89a4d1e21d60a6eb329e131fdc7",
            "status": true,
            "timestamp": "2024-02-16T04:18:23Z",
            "transactionFee": "0.004150254012594795",
            "txnHash": "0x2c6f72ee32260a661004a106eb026d85939ba89a4d1e21d60a6eb329e131fdc7",
            "txnIndex": 124,
            "type": 2,
            "value": "0"
        },
        "fund_flow": [
            {
                "amount": "1,241,579.68125984",
                "from": "0x9c5d5a5855e9bafe1e47d34fe60390fabe03c540",
                "id": 1,
                "isERC1155": false,
                "isERC721": false,
                "isReverted": false,
                "order": 1,
                "to": "0x55ac81186e1a8454c79ad78c615c43f54f87403b",
                "token": "0xf0f9d895aca5c8678f706fb8216fa22957685a13"
            },
            {
                "amount": "309,153,340.63370016",
                "from": "0x9c5d5a5855e9bafe1e47d34fe60390fabe03c540",
                "id": 2,
                "isERC1155": false,
                "isERC721": false,
                "isReverted": false,
                "order": 2,
                "to": "0x5281e311734869c64ca60ef047fd87759397efe6",
                "token": "0xf0f9d895aca5c8678f706fb8216fa22957685a13"
            },
            {
                "amount": "0.332088827492068452",
                "from": "0x5281e311734869c64ca60ef047fd87759397efe6",
                "id": 3,
                "isERC1155": false,
                "isERC721": false,
                "isReverted": false,
                "order": 3,
                "to": "0x3fc91a3afd70395cd496c647d5a6cc9d4b2b7fad",
                "token": "0xc02aaa39b223fe8d0a0e5c4f27ead9083c756cc2"
            },
            {
                "amount": "0.332088827492068452",
                "from": "0xc02aaa39b223fe8d0a0e5c4f27ead9083c756cc2",
                "id": 4,
                "isERC1155": false,
                "isERC721": false,
                "isReverted": false,
                "order": 4,
                "to": "0x3fc91a3afd70395cd496c647d5a6cc9d4b2b7fad",
                "token": "0xeeeeeeeeeeeeeeeeeeeeeeeeeeeeeeeeeeeeeeee"
            },
            {
                "amount": "0.332088827492068452",
                "from": "0x3fc91a3afd70395cd496c647d5a6cc9d4b2b7fad",
                "id": 5,
                "isERC1155": false,
                "isERC721": false,
                "isReverted": false,
                "order": 5,
                "to": "0xc02aaa39b223fe8d0a0e5c4f27ead9083c756cc2",
                "token": "0xc02aaa39b223fe8d0a0e5c4f27ead9083c756cc2"
            },
            {
                "amount": "0.332088827492068452",
                "from": "0x3fc91a3afd70395cd496c647d5a6cc9d4b2b7fad",
                "id": 6,
                "isERC1155": false,
                "isERC721": false,
                "isReverted": false,
                "order": 6,
                "to": "0x9c5d5a5855e9bafe1e47d34fe60390fabe03c540",
                "token": "0xeeeeeeeeeeeeeeeeeeeeeeeeeeeeeeeeeeeeeeee"
            }
        ],
        "token_infos": [
            {
                "address": "0xc02aaa39b223fe8d0a0e5c4f27ead9083c756cc2",
                "decimals": 18
            },
            {
                "address": "0xf0f9d895aca5c8678f706fb8216fa22957685a13",
                "decimals": 18
            },
            {
                "address": "0xeeeeeeeeeeeeeeeeeeeeeeeeeeeeeeeeeeeeeeee",
                "decimals": 18
            }
        ]
    },
    "address_label": {
        "labels": [
            {
                "address": "0x0831172b9b136813b0b35e7cc898b1398bb4d7e7",
                "label": "0x0831_Cult Governor Bravo"
            },
            {
                "address": "0x0000000000000000000000000000000000000001",
                "label": "Precompiled"
            },
            {
                "address": "0x5281e311734869c64ca60ef047fd87759397efe6",
                "label": "Uniswap V2: CULT 2"
            },
            {
                "address": "0xc6df585f8721bfafbb1580bd4034315696eab9ca",
                "label": "0xc6df_Cult Governor Bravo"
            },
            {
                "address": "0x25129a6401ed4b4222c90e398cf5022639d3c76f",
                "label": "Treasury"
            },
            {
                "address": "0xb12ca3dbf866da26b0f55a20a51fea8efd8592f9",
                "label": "Cult DAO (CULT)"
            },
            {
                "address": "0x3fc91a3afd70395cd496c647d5a6cc9d4b2b7fad",
                "label": "Uniswap: Universal Router"
            },
            {
                "address": "0x7a250d5630b4cf539739df2c5dacb4c659f2488d",
                "label": "Uniswap V2: Router 2"
            },
            {
                "address": "0xc02aaa39b223fe8d0a0e5c4f27ead9083c756cc2",
                "label": "Wrapped Ether (WETH)"
            },
            {
                "address": "0x0000000000000000000000000000000000000004",
                "label": "Precompiled"
            },
            {
                "address": "0x000000000022d473030f116ddee9f6b43ac78ba3",
                "label": "Permit2"
            },
            {
                "address": "0xf0f9d895aca5c8678f706fb8216fa22957685a13",
                "label": "Cult DAO: CULT Token"
            },
            {
                "address": "0x0000000000000000000000000000000000000002",
                "label": "Precompiled"
            },
            {
                "address": "0x0000000000000000000000000000000000000003",
                "label": "Precompiled"
            },
            {
                "address": "0xeeeeeeeeeeeeeeeeeeeeeeeeeeeeeeeeeeeeeeee",
                "label": "Ether"
            },
            {
                "address": "0x55ac81186e1a8454c79ad78c615c43f54f87403b",
                "label": "Cult Dao: Cult Dao Fees"
            }
        ]
    },
    "trace": {
        "accountLabels": null,
        "dataMap": {
            "-1": {
                "invocation": {
                    "address": "0x9c5d5a5855e9bafe1e47d34fe60390fabe03c540",
                    "callData": "",
                    "decodedMethod": null,
                    "errorInfo": "",
                    "fromAddress": "",
                    "gasUsed": 0,
                    "id": -1,
                    "methodDecoded": false,
                    "operation": "",
                    "output": "",
                    "revert": false,
                    "revertMessage": "",
                    "selector": "",
                    "status": false,
                    "value": ""
                },
                "nodeType": 0
            },
            "0": {
                "invocation": {
                    "address": "0x3fc91a3afd70395cd496c647d5a6cc9d4b2b7fad",
                    "callData": "0x000000000000000000000000000000000000000000000000000000000000006000000000000000000000000000000000000000000000000000000000000000a00000000000000000000000000000000000000000000000000000000065cee42b00000000000000000000000000000000000000000000000000000000000000030a080c00000000000000000000000000000000000000000000000000000000000000000000000000000000000000000000000000000000000000000000000003000000000000000000000000000000000000000000000000000000000000006000000000000000000000000000000000000000000000000000000000000001e000000000000000000000000000000000000000000000000000000000000003000000000000000000000000000000000000000000000000000000000000000160000000000000000000000000f0f9d895aca5c8678f706fb8216fa22957685a13000000000000000000000000ffffffffffffffffffffffffffffffffffffffff0000000000000000000000000000000000000000000000000000000065f66ee600000000000000000000000000000000000000000000000000000000000000010000000000000000000000003fc91a3afd70395cd496c647d5a6cc9d4b2b7fad0000000000000000000000000000000000000000000000000000000065cee8ee00000000000000000000000000000000000000000000000000000000000000e00000000000000000000000000000000000000000000000000000000000000041ba2e99026043003d90735dfb814879c96f5fcb98fc56f42022ecc29af908dd2b7aec0089d81c448e9c2ee04116be1977f7438a3575fed8e83c4447873f4550011b000000000000000000000000000000000000000000000000000000000000000000000000000000000000000000000000000000000000000000000000000100000000000000000000000000000000000000000000000000000000000000000200000000000000000000000000000000000000000100c0ae58c1265eae150000000000000000000000000000000000000000000000000000049238e017cf384300000000000000000000000000000000000000000000000000000000000000a000000000000000000000000000000000000000000000000000000000000000010000000000000000000000000000000000000000000000000000000000000002000000000000000000000000f0f9d895aca5c8678f706fb8216fa22957685a13000000000000000000000000c02aaa39b223fe8d0a0e5c4f27ead9083c756cc200000000000000000000000000000000000000000000000000000000000000400000000000000000000000000000000000000000000000000000000000000001000000000000000000000000000000000000000000000000049238e017cf3843",
                    "decodedMethod": {
                        "callParams": [
                            {
                                "name": "commands",
                                "type": "bytes",
                                "value": "0x0a080c"
                            },
                            {
                                "name": "inputs",
                                "type": "bytes[]",
                                "value": [
                                    "0x000000000000000000000000f0f9d895aca5c8678f706fb8216fa22957685a13000000000000000000000000ffffffffffffffffffffffffffffffffffffffff0000000000000000000000000000000000000000000000000000000065f66ee600000000000000000000000000000000000000000000000000000000000000010000000000000000000000003fc91a3afd70395cd496c647d5a6cc9d4b2b7fad0000000000000000000000000000000000000000000000000000000065cee8ee00000000000000000000000000000000000000000000000000000000000000e00000000000000000000000000000000000000000000000000000000000000041ba2e99026043003d90735dfb814879c96f5fcb98fc56f42022ecc29af908dd2b7aec0089d81c448e9c2ee04116be1977f7438a3575fed8e83c4447873f4550011b00000000000000000000000000000000000000000000000000000000000000",
                                    "0x000000000000000000000000000000000000000000000000000000000000000200000000000000000000000000000000000000000100c0ae58c1265eae150000000000000000000000000000000000000000000000000000049238e017cf384300000000000000000000000000000000000000000000000000000000000000a000000000000000000000000000000000000000000000000000000000000000010000000000000000000000000000000000000000000000000000000000000002000000000000000000000000f0f9d895aca5c8678f706fb8216fa22957685a13000000000000000000000000c02aaa39b223fe8d0a0e5c4f27ead9083c756cc2",
                                    "0x0000000000000000000000000000000000000000000000000000000000000001000000000000000000000000000000000000000000000000049238e017cf3843"
                                ]
                            },
                            {
                                "name": "deadline",
                                "type": "uint256",
                                "value": "1,708,057,643"
                            }
                        ],
                        "constructorArguments": "",
                        "name": "execute",
                        "returnParams": [],
                        "signature": "execute(bytes,bytes[],uint256)"
                    },
                    "errorInfo": "",
                    "fromAddress": "0x9c5d5a5855e9bafe1e47d34fe60390fabe03c540",
                    "gasUsed": 215703,
                    "id": 0,
                    "methodDecoded": true,
                    "operation": "CALL",
                    "output": "",
                    "revert": false,
                    "revertMessage": "",
                    "selector": "0x3593564c",
                    "status": true,
                    "value": "0"
                },
                "nodeType": 0
            },
            "1": {
                "invocation": {
                    "address": "0x000000000022d473030f116ddee9f6b43ac78ba3",
                    "callData": "0x0000000000000000000000009c5d5a5855e9bafe1e47d34fe60390fabe03c540000000000000000000000000f0f9d895aca5c8678f706fb8216fa22957685a13000000000000000000000000ffffffffffffffffffffffffffffffffffffffff0000000000000000000000000000000000000000000000000000000065f66ee600000000000000000000000000000000000000000000000000000000000000010000000000000000000000003fc91a3afd70395cd496c647d5a6cc9d4b2b7fad0000000000000000000000000000000000000000000000000000000065cee8ee00000000000000000000000000000000000000000000000000000000000001000000000000000000000000000000000000000000000000000000000000000041ba2e99026043003d90735dfb814879c96f5fcb98fc56f42022ecc29af908dd2b7aec0089d81c448e9c2ee04116be1977f7438a3575fed8e83c4447873f4550011b00000000000000000000000000000000000000000000000000000000000000",
                    "decodedMethod": {
                        "callParams": [
                            {
                                "name": "owner",
                                "type": "address",
                                "value": "0x9c5d5a5855e9bafe1e47d34fe60390fabe03c540"
                            },
                            {
                                "name": "permitSingle",
                                "type": "((address,uint160,uint48,uint48),address,uint256)",
                                "value": [
                                    {
                                        "name": "details",
                                        "type": "(address,uint160,uint48,uint48)",
                                        "value": [
                                            {
                                                "name": "token",
                                                "type": "address",
                                                "value": "0xf0f9d895aca5c8678f706fb8216fa22957685a13"
                                            },
                                            {
                                                "name": "amount",
                                                "type": "uint160",
                                                "value": "1,461,501,637,330,902,918,203,684,832,716,283,019,655,932,542,975"
                                            },
                                            {
                                                "name": "expiration",
                                                "type": "uint48",
                                                "value": "1,710,649,062"
                                            },
                                            {
                                                "name": "nonce",
                                                "type": "uint48",
                                                "value": "1"
                                            }
                                        ]
                                    },
                                    {
                                        "name": "spender",
                                        "type": "address",
                                        "value": "0x3fc91a3afd70395cd496c647d5a6cc9d4b2b7fad"
                                    },
                                    {
                                        "name": "sigDeadline",
                                        "type": "uint256",
                                        "value": "1,708,058,862"
                                    }
                                ]
                            },
                            {
                                "name": "signature",
                                "type": "bytes",
                                "value": "0xba2e99026043003d90735dfb814879c96f5fcb98fc56f42022ecc29af908dd2b7aec0089d81c448e9c2ee04116be1977f7438a3575fed8e83c4447873f4550011b"
                            }
                        ],
                        "constructorArguments": "",
                        "name": "permit",
                        "returnParams": [],
                        "signature": "permit(address,((address,uint160,uint48,uint48),address,uint256),bytes)"
                    },
                    "errorInfo": "",
                    "fromAddress": "0x3fc91a3afd70395cd496c647d5a6cc9d4b2b7fad",
                    "gasUsed": 13686,
                    "id": 1,
                    "methodDecoded": true,
                    "operation": "CALL",
                    "output": "",
                    "revert": false,
                    "revertMessage": "",
                    "selector": "0x2b67b570",
                    "status": true,
                    "value": "0"
                },
                "nodeType": 0
            },
            "10": {
                "invocation": {
                    "address": "0x25129a6401ed4b4222c90e398cf5022639d3c76f",
                    "callData": "0x",
                    "decodedMethod": {
                        "callParams": [],
                        "constructorArguments": "",
                        "name": "validatePayout",
                        "returnParams": [],
                        "signature": "validatePayout()"
                    },
                    "errorInfo": "",
                    "fromAddress": "0x55ac81186e1a8454c79ad78c615c43f54f87403b",
                    "gasUsed": 42933,
                    "id": 10,
                    "methodDecoded": true,
                    "operation": "DELEGATECALL",
                    "output": "",
                    "revert": false,
                    "revertMessage": "",
                    "selector": "0xa1485f64",
                    "status": true,
                    "value": "0"
                },
                "nodeType": 0
            },
            "11": {
                "invocation": {
                    "address": "0xf0f9d895aca5c8678f706fb8216fa22957685a13",
                    "callData": "0x00000000000000000000000055ac81186e1a8454c79ad78c615c43f54f87403b",
                    "decodedMethod": {
                        "callParams": [
                            {
                                "name": "account",
                                "type": "address",
                                "value": "0x55ac81186e1a8454c79ad78c615c43f54f87403b"
                            }
                        ],
                        "constructorArguments": "",
                        "name": "balanceOf",
                        "returnParams": [
                            {
                                "decimalAvailable": true,
                                "name": "",
                                "type": "uint256",
                                "value": "47,404,699,669,660,590,254,649,466,548"
                            }
                        ],
                        "signature": "balanceOf(address)"
                    },
                    "errorInfo": "",
                    "fromAddress": "0x55ac81186e1a8454c79ad78c615c43f54f87403b",
                    "gasUsed": 981,
                    "id": 11,
                    "methodDecoded": true,
                    "operation": "STATICCALL",
                    "output": "0x0000000000000000000000000000000000000000992c3f9e64b8c44a29ab5eb4",
                    "revert": false,
                    "revertMessage": "",
                    "selector": "0x70a08231",
                    "status": true,
                    "value": "0"
                },
                "nodeType": 0
            },
            "12": {
                "invocation": {
                    "address": "0xb12ca3dbf866da26b0f55a20a51fea8efd8592f9",
                    "callData": "0x00000000000000000000000055ac81186e1a8454c79ad78c615c43f54f87403b",
                    "decodedMethod": {
                        "callParams": [
                            {
                                "name": "account",
                                "type": "address",
                                "value": "0x55ac81186e1a8454c79ad78c615c43f54f87403b"
                            }
                        ],
                        "constructorArguments": "",
                        "name": "balanceOf",
                        "returnParams": [
                            {
                                "decimalAvailable": true,
                                "name": "",
                                "type": "uint256",
                                "value": "47,404,699,669,660,590,254,649,466,548"
                            }
                        ],
                        "signature": "balanceOf(address)"
                    },
                    "errorInfo": "",
                    "fromAddress": "0xf0f9d895aca5c8678f706fb8216fa22957685a13",
                    "gasUsed": 583,
                    "id": 12,
                    "methodDecoded": true,
                    "operation": "DELEGATECALL",
                    "output": "0x0000000000000000000000000000000000000000992c3f9e64b8c44a29ab5eb4",
                    "revert": false,
                    "revertMessage": "",
                    "selector": "0x70a08231",
                    "status": true,
                    "value": "0"
                },
                "nodeType": 0
            },
            "13": {
                "invocation": {
                    "address": "0x7a250d5630b4cf539739df2c5dacb4c659f2488d",
                    "callData": "0x0000000000000000000000000000000000000000000000000de0b6b3a764000000000000000000000000000000000000000000000000000000000000000000400000000000000000000000000000000000000000000000000000000000000002000000000000000000000000c02aaa39b223fe8d0a0e5c4f27ead9083c756cc2000000000000000000000000f0f9d895aca5c8678f706fb8216fa22957685a13",
                    "decodedMethod": {
                        "callParams": [
                            {
                                "name": "amountIn",
                                "type": "uint256",
                                "value": "1,000,000,000,000,000,000"
                            },
                            {
                                "name": "path",
                                "type": "address[]",
                                "value": [
                                    "0xc02aaa39b223fe8d0a0e5c4f27ead9083c756cc2",
                                    "0xf0f9d895aca5c8678f706fb8216fa22957685a13"
                                ]
                            }
                        ],
                        "constructorArguments": "",
                        "name": "getAmountsOut",
                        "returnParams": [
                            {
                                "name": "amounts",
                                "type": "uint256[]",
                                "value": [
                                    "1,000,000,000,000,000,000",
                                    "923,443,878,670,777,285,952,566,620"
                                ]
                            }
                        ],
                        "signature": "getAmountsOut(uint256,address[])"
                    },
                    "errorInfo": "",
                    "fromAddress": "0x55ac81186e1a8454c79ad78c615c43f54f87403b",
                    "gasUsed": 8582,
                    "id": 13,
                    "methodDecoded": true,
                    "operation": "STATICCALL",
                    "output": "0x000000000000000000000000000000000000000000000000000000000000002000000000000000000000000000000000000000000000000000000000000000020000000000000000000000000000000000000000000000000de0b6b3a7640000000000000000000000000000000000000000000002fbdad8f89e42b70f72755c",
                    "revert": false,
                    "revertMessage": "",
                    "selector": "0xd06ca61f",
                    "status": true,
                    "value": "0"
                },
                "nodeType": 0
            },
            "14": {
                "invocation": {
                    "address": "0x5281e311734869c64ca60ef047fd87759397efe6",
                    "callData": "0x",
                    "decodedMethod": {
                        "callParams": [],
                        "constructorArguments": "",
                        "name": "getReserves",
                        "returnParams": [
                            {
                                "name": "_reserve0",
                                "type": "uint112",
                                "value": "641,383,349,188,127,585,031"
                            },
                            {
                                "name": "_reserve1",
                                "type": "uint112",
                                "value": "594,987,162,724,345,873,477,909,372,573"
                            },
                            {
                                "name": "_blockTimestampLast",
                                "type": "uint32",
                                "value": "1,708,053,815"
                            }
                        ],
                        "signature": "getReserves()"
                    },
                    "errorInfo": "",
                    "fromAddress": "0x7a250d5630b4cf539739df2c5dacb4c659f2488d",
                    "gasUsed": 2504,
                    "id": 14,
                    "methodDecoded": true,
                    "operation": "STATICCALL",
                    "output": "0x000000000000000000000000000000000000000000000022c4fb65e458ab730700000000000000000000000000000000000000078281d881560b1ae2cf145e9d0000000000000000000000000000000000000000000000000000000065ced537",
                    "revert": false,
                    "revertMessage": "",
                    "selector": "0x0902f1ac",
                    "status": true,
                    "value": "0"
                },
                "nodeType": 0
            },
            "15": {
                "invocation": {
                    "address": "0x0831172b9b136813b0b35e7cc898b1398bb4d7e7",
                    "callData": "0x",
                    "decodedMethod": {
                        "callParams": [],
                        "constructorArguments": "",
                        "name": "nextInvestee",
                        "returnParams": [
                            {
                                "name": "",
                                "type": "uint256",
                                "value": "115"
                            }
                        ],
                        "signature": "nextInvestee()"
                    },
                    "errorInfo": "",
                    "fromAddress": "0x55ac81186e1a8454c79ad78c615c43f54f87403b",
                    "gasUsed": 7280,
                    "id": 15,
                    "methodDecoded": true,
                    "operation": "STATICCALL",
                    "output": "0x0000000000000000000000000000000000000000000000000000000000000073",
                    "revert": false,
                    "revertMessage": "",
                    "selector": "0xd54db348",
                    "status": true,
                    "value": "0"
                },
                "nodeType": 0
            },
            "16": {
                "invocation": {
                    "address": "0xc6df585f8721bfafbb1580bd4034315696eab9ca",
                    "callData": "0x",
                    "decodedMethod": {
                        "callParams": [],
                        "constructorArguments": "",
                        "name": "nextInvestee",
                        "returnParams": [
                            {
                                "name": "",
                                "type": "uint256",
                                "value": "115"
                            }
                        ],
                        "signature": "nextInvestee()"
                    },
                    "errorInfo": "",
                    "fromAddress": "0x0831172b9b136813b0b35e7cc898b1398bb4d7e7",
                    "gasUsed": 2385,
                    "id": 16,
                    "methodDecoded": true,
                    "operation": "DELEGATECALL",
                    "output": "0x0000000000000000000000000000000000000000000000000000000000000073",
                    "revert": false,
                    "revertMessage": "",
                    "selector": "0xd54db348",
                    "status": true,
                    "value": "0"
                },
                "nodeType": 0
            },
            "17": {
                "invocation": {
                    "address": "0x0831172b9b136813b0b35e7cc898b1398bb4d7e7",
                    "callData": "0x",
                    "decodedMethod": {
                        "callParams": [],
                        "constructorArguments": "",
                        "name": "nextInvesteeFund",
                        "returnParams": [
                            {
                                "name": "",
                                "type": "uint256",
                                "value": "115"
                            }
                        ],
                        "signature": "nextInvesteeFund()"
                    },
                    "errorInfo": "",
                    "fromAddress": "0x55ac81186e1a8454c79ad78c615c43f54f87403b",
                    "gasUsed": 2736,
                    "id": 17,
                    "methodDecoded": true,
                    "operation": "STATICCALL",
                    "output": "0x0000000000000000000000000000000000000000000000000000000000000073",
                    "revert": false,
                    "revertMessage": "",
                    "selector": "0x647abf78",
                    "status": true,
                    "value": "0"
                },
                "nodeType": 0
            },
            "18": {
                "invocation": {
                    "address": "0xc6df585f8721bfafbb1580bd4034315696eab9ca",
                    "callData": "0x",
                    "decodedMethod": {
                        "callParams": [],
                        "constructorArguments": "",
                        "name": "nextInvesteeFund",
                        "returnParams": [
                            {
                                "name": "",
                                "type": "uint256",
                                "value": "115"
                            }
                        ],
                        "signature": "nextInvesteeFund()"
                    },
                    "errorInfo": "",
                    "fromAddress": "0x0831172b9b136813b0b35e7cc898b1398bb4d7e7",
                    "gasUsed": 2341,
                    "id": 18,
                    "methodDecoded": true,
                    "operation": "DELEGATECALL",
                    "output": "0x0000000000000000000000000000000000000000000000000000000000000073",
                    "revert": false,
                    "revertMessage": "",
                    "selector": "0x647abf78",
                    "status": true,
                    "value": "0"
                },
                "nodeType": 0
            },
            "19": {
                "event": {
                    "contract": "0xf0f9d895aca5c8678f706fb8216fa22957685a13",
                    "decodedLog": {
                        "name": "Approval",
                        "params": [
                            {
                                "name": "owner",
                                "type": "address",
                                "value": "0x9c5d5a5855e9bafe1e47d34fe60390fabe03c540"
                            },
                            {
                                "name": "spender",
                                "type": "address",
                                "value": "0x000000000022d473030f116ddee9f6b43ac78ba3"
                            },
                            {
                                "decimalAvailable": true,
                                "name": "value",
                                "type": "uint256",
                                "value": "0"
                            }
                        ],
                        "signature": "Approval(address,address,uint256)"
                    },
                    "id": 19,
                    "logData": "0x0000000000000000000000000000000000000000000000000000000000000000",
                    "logDecoded": true,
                    "operation": "EVENT",
                    "revert": false,
                    "status": true,
                    "topics": [
                        "0x8c5be1e5ebec7d5bd14f71427d1e84f3dd0314c0f7b2291e5b200ac8c7c3b925",
                        "0x0000000000000000000000009c5d5a5855e9bafe1e47d34fe60390fabe03c540",
                        "0x000000000000000000000000000000000022d473030f116ddee9f6b43ac78ba3"
                    ]
                },
                "nodeType": 1
            },
            "2": {
                "invocation": {
                    "address": "0x0000000000000000000000000000000000000001",
                    "callData": "0x8736e6921a1dc83f00a6f62a1a6dabd02386fd075e9f784c6b9de0cb000000000000000000000000000000000000000000000000000000000000001bba2e99026043003d90735dfb814879c96f5fcb98fc56f42022ecc29af908dd2b7aec0089d81c448e9c2ee04116be1977f7438a3575fed8e83c4447873f455001",
                    "decodedMethod": {
                        "callParams": [
                            {
                                "name": "hash",
                                "type": "bytes32",
                                "value": "0x4e74119d8736e6921a1dc83f00a6f62a1a6dabd02386fd075e9f784c6b9de0cb"
                            },
                            {
                                "name": "v",
                                "type": "uint256",
                                "value": "27"
                            },
                            {
                                "name": "r",
                                "type": "bytes32",
                                "value": "0xba2e99026043003d90735dfb814879c96f5fcb98fc56f42022ecc29af908dd2b"
                            },
                            {
                                "name": "s",
                                "type": "bytes32",
                                "value": "0x7aec0089d81c448e9c2ee04116be1977f7438a3575fed8e83c4447873f455001"
                            }
                        ],
                        "constructorArguments": "",
                        "name": "ecrecover",
                        "returnParams": [
                            {
                                "name": "",
                                "type": "address",
                                "value": "0x9c5d5a5855e9bafe1e47d34fe60390fabe03c540"
                            }
                        ],
                        "signature": "ecrecover(bytes32,uint256,bytes32,bytes32)"
                    },
                    "errorInfo": "",
                    "fromAddress": "0x000000000022d473030f116ddee9f6b43ac78ba3",
                    "gasUsed": 3000,
                    "id": 2,
                    "methodDecoded": true,
                    "operation": "STATICCALL",
                    "output": "0x0000000000000000000000009c5d5a5855e9bafe1e47d34fe60390fabe03c540",
                    "revert": false,
                    "revertMessage": "",
                    "selector": "0x4e74119d",
                    "status": true,
                    "value": "0"
                },
                "nodeType": 0
            },
            "20": {
                "invocation": {
                    "address": "0xc02aaa39b223fe8d0a0e5c4f27ead9083c756cc2",
                    "callData": "0x0000000000000000000000003fc91a3afd70395cd496c647d5a6cc9d4b2b7fad",
                    "decodedMethod": {
                        "callParams": [
                            {
                                "name": "",
                                "type": "address",
                                "value": "0x3fc91a3afd70395cd496c647d5a6cc9d4b2b7fad"
                            }
                        ],
                        "constructorArguments": "",
                        "name": "balanceOf",
                        "returnParams": [
                            {
                                "decimalAvailable": true,
                                "name": "",
                                "type": "uint256",
                                "value": "0"
                            }
                        ],
                        "signature": "balanceOf(address)"
                    },
                    "errorInfo": "",
                    "fromAddress": "0x3fc91a3afd70395cd496c647d5a6cc9d4b2b7fad",
                    "gasUsed": 2534,
                    "id": 20,
                    "methodDecoded": true,
                    "operation": "STATICCALL",
                    "output": "0x0000000000000000000000000000000000000000000000000000000000000000",
                    "revert": false,
                    "revertMessage": "",
                    "selector": "0x70a08231",
                    "status": true,
                    "value": "0"
                },
                "nodeType": 0
            },
            "21": {
                "invocation": {
                    "address": "0x5281e311734869c64ca60ef047fd87759397efe6",
                    "callData": "0x",
                    "decodedMethod": {
                        "callParams": [],
                        "constructorArguments": "",
                        "name": "getReserves",
                        "returnParams": [
                            {
                                "name": "_reserve0",
                                "type": "uint112",
                                "value": "641,383,349,188,127,585,031"
                            },
                            {
                                "name": "_reserve1",
                                "type": "uint112",
                                "value": "594,987,162,724,345,873,477,909,372,573"
                            },
                            {
                                "name": "_blockTimestampLast",
                                "type": "uint32",
                                "value": "1,708,053,815"
                            }
                        ],
                        "signature": "getReserves()"
                    },
                    "errorInfo": "",
                    "fromAddress": "0x3fc91a3afd70395cd496c647d5a6cc9d4b2b7fad",
                    "gasUsed": 504,
                    "id": 21,
                    "methodDecoded": true,
                    "operation": "STATICCALL",
                    "output": "0x000000000000000000000000000000000000000000000022c4fb65e458ab730700000000000000000000000000000000000000078281d881560b1ae2cf145e9d0000000000000000000000000000000000000000000000000000000065ced537",
                    "revert": false,
                    "revertMessage": "",
                    "selector": "0x0902f1ac",
                    "status": true,
                    "value": "0"
                },
                "nodeType": 0
            },
            "22": {
                "invocation": {
                    "address": "0xf0f9d895aca5c8678f706fb8216fa22957685a13",
                    "callData": "0x0000000000000000000000005281e311734869c64ca60ef047fd87759397efe6",
                    "decodedMethod": {
                        "callParams": [
                            {
                                "name": "account",
                                "type": "address",
                                "value": "0x5281e311734869c64ca60ef047fd87759397efe6"
                            }
                        ],
                        "constructorArguments": "",
                        "name": "balanceOf",
                        "returnParams": [
                            {
                                "decimalAvailable": true,
                                "name": "",
                                "type": "uint256",
                                "value": "595,296,316,064,979,573,637,909,372,573"
                            }
                        ],
                        "signature": "balanceOf(address)"
                    },
                    "errorInfo": "",
                    "fromAddress": "0x3fc91a3afd70395cd496c647d5a6cc9d4b2b7fad",
                    "gasUsed": 981,
                    "id": 22,
                    "methodDecoded": true,
                    "operation": "STATICCALL",
                    "output": "0x000000000000000000000000000000000000000783819245836f5282a56cde9d",
                    "revert": false,
                    "revertMessage": "",
                    "selector": "0x70a08231",
                    "status": true,
                    "value": "0"
                },
                "nodeType": 0
            },
            "23": {
                "invocation": {
                    "address": "0xb12ca3dbf866da26b0f55a20a51fea8efd8592f9",
                    "callData": "0x0000000000000000000000005281e311734869c64ca60ef047fd87759397efe6",
                    "decodedMethod": {
                        "callParams": [
                            {
                                "name": "account",
                                "type": "address",
                                "value": "0x5281e311734869c64ca60ef047fd87759397efe6"
                            }
                        ],
                        "constructorArguments": "",
                        "name": "balanceOf",
                        "returnParams": [
                            {
                                "decimalAvailable": true,
                                "name": "",
                                "type": "uint256",
                                "value": "595,296,316,064,979,573,637,909,372,573"
                            }
                        ],
                        "signature": "balanceOf(address)"
                    },
                    "errorInfo": "",
                    "fromAddress": "0xf0f9d895aca5c8678f706fb8216fa22957685a13",
                    "gasUsed": 583,
                    "id": 23,
                    "methodDecoded": true,
                    "operation": "DELEGATECALL",
                    "output": "0x000000000000000000000000000000000000000783819245836f5282a56cde9d",
                    "revert": false,
                    "revertMessage": "",
                    "selector": "0x70a08231",
                    "status": true,
                    "value": "0"
                },
                "nodeType": 0
            },
            "24": {
                "invocation": {
                    "address": "0x5281e311734869c64ca60ef047fd87759397efe6",
                    "callData": "0x000000000000000000000000000000000000000000000000049bd107748a6c6400000000000000000000000000000000000000000000000000000000000000000000000000000000000000003fc91a3afd70395cd496c647d5a6cc9d4b2b7fad00000000000000000000000000000000000000000000000000000000000000800000000000000000000000000000000000000000000000000000000000000000",
                    "decodedMethod": {
                        "callParams": [
                            {
                                "name": "amount0Out",
                                "type": "uint256",
                                "value": "332,088,827,492,068,452"
                            },
                            {
                                "name": "amount1Out",
                                "type": "uint256",
                                "value": "0"
                            },
                            {
                                "name": "to",
                                "type": "address",
                                "value": "0x3fc91a3afd70395cd496c647d5a6cc9d4b2b7fad"
                            },
                            {
                                "name": "data",
                                "type": "bytes",
                                "value": "0x"
                            }
                        ],
                        "constructorArguments": "",
                        "name": "swap",
                        "returnParams": [],
                        "signature": "swap(uint256,uint256,address,bytes)"
                    },
                    "errorInfo": "",
                    "fromAddress": "0x3fc91a3afd70395cd496c647d5a6cc9d4b2b7fad",
                    "gasUsed": 60800,
                    "id": 24,
                    "methodDecoded": true,
                    "operation": "CALL",
                    "output": "",
                    "revert": false,
                    "revertMessage": "",
                    "selector": "0x022c0d9f",
                    "status": true,
                    "value": "0"
                },
                "nodeType": 0
            },
            "25": {
                "invocation": {
                    "address": "0xc02aaa39b223fe8d0a0e5c4f27ead9083c756cc2",
                    "callData": "0x0000000000000000000000003fc91a3afd70395cd496c647d5a6cc9d4b2b7fad000000000000000000000000000000000000000000000000049bd107748a6c64",
                    "decodedMethod": {
                        "callParams": [
                            {
                                "name": "dst",
                                "type": "address",
                                "value": "0x3fc91a3afd70395cd496c647d5a6cc9d4b2b7fad"
                            },
                            {
                                "decimalAvailable": true,
                                "name": "wad",
                                "type": "uint256",
                                "value": "332,088,827,492,068,452"
                            }
                        ],
                        "constructorArguments": "",
                        "name": "transfer",
                        "returnParams": [
                            {
                                "name": "",
                                "type": "bool",
                                "value": true
                            }
                        ],
                        "signature": "transfer(address,uint256)"
                    },
                    "errorInfo": "",
                    "fromAddress": "0x5281e311734869c64ca60ef047fd87759397efe6",
                    "gasUsed": 27962,
                    "id": 25,
                    "methodDecoded": true,
                    "operation": "CALL",
                    "output": "0x0000000000000000000000000000000000000000000000000000000000000001",
                    "revert": false,
                    "revertMessage": "",
                    "selector": "0xa9059cbb",
                    "status": true,
                    "value": "0"
                },
                "nodeType": 0
            },
            "26": {
                "event": {
                    "contract": "0xc02aaa39b223fe8d0a0e5c4f27ead9083c756cc2",
                    "decodedLog": {
                        "name": "Transfer",
                        "params": [
                            {
                                "name": "src",
                                "type": "address",
                                "value": "0x5281e311734869c64ca60ef047fd87759397efe6"
                            },
                            {
                                "name": "dst",
                                "type": "address",
                                "value": "0x3fc91a3afd70395cd496c647d5a6cc9d4b2b7fad"
                            },
                            {
                                "decimalAvailable": true,
                                "name": "wad",
                                "type": "uint256",
                                "value": "332,088,827,492,068,452"
                            }
                        ],
                        "signature": "Transfer(address,address,uint256)"
                    },
                    "id": 26,
                    "logData": "0x000000000000000000000000000000000000000000000000049bd107748a6c64",
                    "logDecoded": true,
                    "operation": "EVENT",
                    "revert": false,
                    "status": true,
                    "topics": [
                        "0xddf252ad1be2c89b69c2b068fc378daa952ba7f163c4a11628f55a4df523b3ef",
                        "0x0000000000000000000000005281e311734869c64ca60ef047fd87759397efe6",
                        "0x0000000000000000000000003fc91a3afd70395cd496c647d5a6cc9d4b2b7fad"
                    ]
                },
                "nodeType": 1
            },
            "27": {
                "invocation": {
                    "address": "0xc02aaa39b223fe8d0a0e5c4f27ead9083c756cc2",
                    "callData": "0x0000000000000000000000005281e311734869c64ca60ef047fd87759397efe6",
                    "decodedMethod": {
                        "callParams": [
                            {
                                "name": "",
                                "type": "address",
                                "value": "0x5281e311734869c64ca60ef047fd87759397efe6"
                            }
                        ],
                        "constructorArguments": "",
                        "name": "balanceOf",
                        "returnParams": [
                            {
                                "decimalAvailable": true,
                                "name": "",
                                "type": "uint256",
                                "value": "641,051,260,360,635,516,579"
                            }
                        ],
                        "signature": "balanceOf(address)"
                    },
                    "errorInfo": "",
                    "fromAddress": "0x5281e311734869c64ca60ef047fd87759397efe6",
                    "gasUsed": 534,
                    "id": 27,
                    "methodDecoded": true,
                    "operation": "STATICCALL",
                    "output": "0x000000000000000000000000000000000000000000000022c05f94dce42106a3",
                    "revert": false,
                    "revertMessage": "",
                    "selector": "0x70a08231",
                    "status": true,
                    "value": "0"
                },
                "nodeType": 0
            },
            "28": {
                "invocation": {
                    "address": "0xf0f9d895aca5c8678f706fb8216fa22957685a13",
                    "callData": "0x0000000000000000000000005281e311734869c64ca60ef047fd87759397efe6",
                    "decodedMethod": {
                        "callParams": [
                            {
                                "name": "account",
                                "type": "address",
                                "value": "0x5281e311734869c64ca60ef047fd87759397efe6"
                            }
                        ],
                        "constructorArguments": "",
                        "name": "balanceOf",
                        "returnParams": [
                            {
                                "decimalAvailable": true,
                                "name": "",
                                "type": "uint256",
                                "value": "595,296,316,064,979,573,637,909,372,573"
                            }
                        ],
                        "signature": "balanceOf(address)"
                    },
                    "errorInfo": "",
                    "fromAddress": "0x5281e311734869c64ca60ef047fd87759397efe6",
                    "gasUsed": 981,
                    "id": 28,
                    "methodDecoded": true,
                    "operation": "STATICCALL",
                    "output": "0x000000000000000000000000000000000000000783819245836f5282a56cde9d",
                    "revert": false,
                    "revertMessage": "",
                    "selector": "0x70a08231",
                    "status": true,
                    "value": "0"
                },
                "nodeType": 0
            },
            "29": {
                "invocation": {
                    "address": "0xb12ca3dbf866da26b0f55a20a51fea8efd8592f9",
                    "callData": "0x0000000000000000000000005281e311734869c64ca60ef047fd87759397efe6",
                    "decodedMethod": {
                        "callParams": [
                            {
                                "name": "account",
                                "type": "address",
                                "value": "0x5281e311734869c64ca60ef047fd87759397efe6"
                            }
                        ],
                        "constructorArguments": "",
                        "name": "balanceOf",
                        "returnParams": [
                            {
                                "decimalAvailable": true,
                                "name": "",
                                "type": "uint256",
                                "value": "595,296,316,064,979,573,637,909,372,573"
                            }
                        ],
                        "signature": "balanceOf(address)"
                    },
                    "errorInfo": "",
                    "fromAddress": "0xf0f9d895aca5c8678f706fb8216fa22957685a13",
                    "gasUsed": 583,
                    "id": 29,
                    "methodDecoded": true,
                    "operation": "DELEGATECALL",
                    "output": "0x000000000000000000000000000000000000000783819245836f5282a56cde9d",
                    "revert": false,
                    "revertMessage": "",
                    "selector": "0x70a08231",
                    "status": true,
                    "value": "0"
                },
                "nodeType": 0
            },
            "3": {
                "event": {
                    "contract": "0x000000000022d473030f116ddee9f6b43ac78ba3",
                    "decodedLog": {
                        "name": "Permit",
                        "params": [
                            {
                                "name": "owner",
                                "type": "address",
                                "value": "0x9c5d5a5855e9bafe1e47d34fe60390fabe03c540"
                            },
                            {
                                "name": "token",
                                "type": "address",
                                "value": "0xf0f9d895aca5c8678f706fb8216fa22957685a13"
                            },
                            {
                                "name": "spender",
                                "type": "address",
                                "value": "0x3fc91a3afd70395cd496c647d5a6cc9d4b2b7fad"
                            },
                            {
                                "name": "amount",
                                "type": "uint160",
                                "value": "1,461,501,637,330,902,918,203,684,832,716,283,019,655,932,542,975"
                            },
                            {
                                "name": "expiration",
                                "type": "uint48",
                                "value": "1,710,649,062"
                            },
                            {
                                "name": "nonce",
                                "type": "uint48",
                                "value": "1"
                            }
                        ],
                        "signature": "Permit(address,address,address,uint160,uint48,uint48)"
                    },
                    "id": 3,
                    "logData": "0x000000000000000000000000ffffffffffffffffffffffffffffffffffffffff0000000000000000000000000000000000000000000000000000000065f66ee60000000000000000000000000000000000000000000000000000000000000001",
                    "logDecoded": true,
                    "operation": "EVENT",
                    "revert": false,
                    "status": true,
                    "topics": [
                        "0xc6a377bfc4eb120024a8ac08eef205be16b817020812c73223e81d1bdb9708ec",
                        "0x0000000000000000000000009c5d5a5855e9bafe1e47d34fe60390fabe03c540",
                        "0x000000000000000000000000f0f9d895aca5c8678f706fb8216fa22957685a13",
                        "0x0000000000000000000000003fc91a3afd70395cd496c647d5a6cc9d4b2b7fad"
                    ]
                },
                "nodeType": 1
            },
            "30": {
                "event": {
                    "contract": "0x5281e311734869c64ca60ef047fd87759397efe6",
                    "decodedLog": {
                        "name": "Sync",
                        "params": [
                            {
                                "name": "reserve0",
                                "type": "uint112",
                                "value": "641,051,260,360,635,516,579"
                            },
                            {
                                "name": "reserve1",
                                "type": "uint112",
                                "value": "595,296,316,064,979,573,637,909,372,573"
                            }
                        ],
                        "signature": "Sync(uint112,uint112)"
                    },
                    "id": 30,
                    "logData": "0x000000000000000000000000000000000000000000000022c05f94dce42106a3000000000000000000000000000000000000000783819245836f5282a56cde9d",
                    "logDecoded": true,
                    "operation": "EVENT",
                    "revert": false,
                    "status": true,
                    "topics": [
                        "0x1c411e9a96e071241c2f21f7726b17ae89e3cab4c78be50e062b03a9fffbbad1"
                    ]
                },
                "nodeType": 1
            },
            "31": {
                "event": {
                    "contract": "0x5281e311734869c64ca60ef047fd87759397efe6",
                    "decodedLog": {
                        "name": "Swap",
                        "params": [
                            {
                                "name": "sender",
                                "type": "address",
                                "value": "0x3fc91a3afd70395cd496c647d5a6cc9d4b2b7fad"
                            },
                            {
                                "name": "to",
                                "type": "address",
                                "value": "0x3fc91a3afd70395cd496c647d5a6cc9d4b2b7fad"
                            },
                            {
                                "name": "amount0In",
                                "type": "uint256",
                                "value": "0"
                            },
                            {
                                "name": "amount1In",
                                "type": "uint256",
                                "value": "309,153,340,633,700,160,000,000,000"
                            },
                            {
                                "name": "amount0Out",
                                "type": "uint256",
                                "value": "332,088,827,492,068,452"
                            },
                            {
                                "name": "amount1Out",
                                "type": "uint256",
                                "value": "0"
                            }
                        ],
                        "signature": "Swap(address,uint256,uint256,uint256,uint256,address)"
                    },
                    "id": 31,
                    "logData": "0x0000000000000000000000000000000000000000000000000000000000000000000000000000000000000000000000000000000000ffb9c42d64379fd6588000000000000000000000000000000000000000000000000000049bd107748a6c640000000000000000000000000000000000000000000000000000000000000000",
                    "logDecoded": true,
                    "operation": "EVENT",
                    "revert": false,
                    "status": true,
                    "topics": [
                        "0xd78ad95fa46c994b6551d0da85fc275fe613ce37657fb8d5e3d130840159d822",
                        "0x0000000000000000000000003fc91a3afd70395cd496c647d5a6cc9d4b2b7fad",
                        "0x0000000000000000000000003fc91a3afd70395cd496c647d5a6cc9d4b2b7fad"
                    ]
                },
                "nodeType": 1
            },
            "32": {
                "invocation": {
                    "address": "0xc02aaa39b223fe8d0a0e5c4f27ead9083c756cc2",
                    "callData": "0x0000000000000000000000003fc91a3afd70395cd496c647d5a6cc9d4b2b7fad",
                    "decodedMethod": {
                        "callParams": [
                            {
                                "name": "",
                                "type": "address",
                                "value": "0x3fc91a3afd70395cd496c647d5a6cc9d4b2b7fad"
                            }
                        ],
                        "constructorArguments": "",
                        "name": "balanceOf",
                        "returnParams": [
                            {
                                "decimalAvailable": true,
                                "name": "",
                                "type": "uint256",
                                "value": "332,088,827,492,068,452"
                            }
                        ],
                        "signature": "balanceOf(address)"
                    },
                    "errorInfo": "",
                    "fromAddress": "0x3fc91a3afd70395cd496c647d5a6cc9d4b2b7fad",
                    "gasUsed": 534,
                    "id": 32,
                    "methodDecoded": true,
                    "operation": "STATICCALL",
                    "output": "0x000000000000000000000000000000000000000000000000049bd107748a6c64",
                    "revert": false,
                    "revertMessage": "",
                    "selector": "0x70a08231",
                    "status": true,
                    "value": "0"
                },
                "nodeType": 0
            },
            "33": {
                "invocation": {
                    "address": "0xc02aaa39b223fe8d0a0e5c4f27ead9083c756cc2",
                    "callData": "0x0000000000000000000000003fc91a3afd70395cd496c647d5a6cc9d4b2b7fad",
                    "decodedMethod": {
                        "callParams": [
                            {
                                "name": "",
                                "type": "address",
                                "value": "0x3fc91a3afd70395cd496c647d5a6cc9d4b2b7fad"
                            }
                        ],
                        "constructorArguments": "",
                        "name": "balanceOf",
                        "returnParams": [
                            {
                                "decimalAvailable": true,
                                "name": "",
                                "type": "uint256",
                                "value": "332,088,827,492,068,452"
                            }
                        ],
                        "signature": "balanceOf(address)"
                    },
                    "errorInfo": "",
                    "fromAddress": "0x3fc91a3afd70395cd496c647d5a6cc9d4b2b7fad",
                    "gasUsed": 534,
                    "id": 33,
                    "methodDecoded": true,
                    "operation": "STATICCALL",
                    "output": "0x000000000000000000000000000000000000000000000000049bd107748a6c64",
                    "revert": false,
                    "revertMessage": "",
                    "selector": "0x70a08231",
                    "status": true,
                    "value": "0"
                },
                "nodeType": 0
            },
            "34": {
                "invocation": {
                    "address": "0xc02aaa39b223fe8d0a0e5c4f27ead9083c756cc2",
                    "callData": "0x000000000000000000000000000000000000000000000000049bd107748a6c64",
                    "decodedMethod": {
                        "callParams": [
                            {
                                "name": "wad",
                                "type": "uint256",
                                "value": "332,088,827,492,068,452"
                            }
                        ],
                        "constructorArguments": "",
                        "name": "withdraw",
                        "returnParams": [],
                        "signature": "withdraw(uint256)"
                    },
                    "errorInfo": "",
                    "fromAddress": "0x3fc91a3afd70395cd496c647d5a6cc9d4b2b7fad",
                    "gasUsed": 9220,
                    "id": 34,
                    "methodDecoded": true,
                    "operation": "CALL",
                    "output": "",
                    "revert": false,
                    "revertMessage": "",
                    "selector": "0x2e1a7d4d",
                    "status": true,
                    "value": "0"
                },
                "nodeType": 0
            },
            "35": {
                "invocation": {
                    "address": "0x3fc91a3afd70395cd496c647d5a6cc9d4b2b7fad",
                    "callData": "0x",
                    "decodedMethod": null,
                    "errorInfo": "",
                    "fromAddress": "0xc02aaa39b223fe8d0a0e5c4f27ead9083c756cc2",
                    "gasUsed": 80,
                    "id": 35,
                    "methodDecoded": false,
                    "operation": "CALL",
                    "output": "",
                    "revert": false,
                    "revertMessage": "",
                    "selector": "fallback",
                    "status": true,
                    "value": "0.332088827492068452"
                },
                "nodeType": 0
            },
            "36": {
                "event": {
                    "contract": "0xc02aaa39b223fe8d0a0e5c4f27ead9083c756cc2",
                    "decodedLog": {
                        "name": "Withdrawal",
                        "params": [
                            {
                                "name": "src",
                                "type": "address",
                                "value": "0x3fc91a3afd70395cd496c647d5a6cc9d4b2b7fad"
                            },
                            {
                                "name": "wad",
                                "type": "uint256",
                                "value": "332,088,827,492,068,452"
                            }
                        ],
                        "signature": "Withdrawal(address,uint256)"
                    },
                    "id": 36,
                    "logData": "0x000000000000000000000000000000000000000000000000049bd107748a6c64",
                    "logDecoded": true,
                    "operation": "EVENT",
                    "revert": false,
                    "status": true,
                    "topics": [
                        "0x7fcf532c15f0a6db0bd6d0e038bea71d30d808c7d98cb3bf7268a95bf5081b65",
                        "0x0000000000000000000000003fc91a3afd70395cd496c647d5a6cc9d4b2b7fad"
                    ]
                },
                "nodeType": 1
            },
            "37": {
                "invocation": {
                    "address": "0x9c5d5a5855e9bafe1e47d34fe60390fabe03c540",
                    "callData": "0x",
                    "decodedMethod": null,
                    "errorInfo": "",
                    "fromAddress": "0x3fc91a3afd70395cd496c647d5a6cc9d4b2b7fad",
                    "gasUsed": 0,
                    "id": 37,
                    "methodDecoded": false,
                    "operation": "CALL",
                    "output": "",
                    "revert": false,
                    "revertMessage": "",
                    "selector": "fallback",
                    "status": true,
                    "value": "0.332088827492068452"
                },
                "nodeType": 0
            },
            "4": {
                "invocation": {
                    "address": "0x000000000022d473030f116ddee9f6b43ac78ba3",
                    "callData": "0x0000000000000000000000009c5d5a5855e9bafe1e47d34fe60390fabe03c5400000000000000000000000005281e311734869c64ca60ef047fd87759397efe600000000000000000000000000000000000000000100c0ae58c1265eae150000000000000000000000000000f0f9d895aca5c8678f706fb8216fa22957685a13",
                    "decodedMethod": {
                        "callParams": [
                            {
                                "name": "from",
                                "type": "address",
                                "value": "0x9c5d5a5855e9bafe1e47d34fe60390fabe03c540"
                            },
                            {
                                "name": "to",
                                "type": "address",
                                "value": "0x5281e311734869c64ca60ef047fd87759397efe6"
                            },
                            {
                                "name": "amount",
                                "type": "uint160",
                                "value": "310,394,920,314,960,000,000,000,000"
                            },
                            {
                                "name": "token",
                                "type": "address",
                                "value": "0xf0f9d895aca5c8678f706fb8216fa22957685a13"
                            }
                        ],
                        "constructorArguments": "",
                        "name": "transferFrom",
                        "returnParams": [],
                        "signature": "transferFrom(address,address,uint160,address)"
                    },
                    "errorInfo": "",
                    "fromAddress": "0x3fc91a3afd70395cd496c647d5a6cc9d4b2b7fad",
                    "gasUsed": 105975,
                    "id": 4,
                    "methodDecoded": true,
                    "operation": "CALL",
                    "output": "",
                    "revert": false,
                    "revertMessage": "",
                    "selector": "0x36c78516",
                    "status": true,
                    "value": "0"
                },
                "nodeType": 0
            },
            "5": {
                "invocation": {
                    "address": "0xf0f9d895aca5c8678f706fb8216fa22957685a13",
                    "callData": "0x0000000000000000000000009c5d5a5855e9bafe1e47d34fe60390fabe03c5400000000000000000000000005281e311734869c64ca60ef047fd87759397efe600000000000000000000000000000000000000000100c0ae58c1265eae150000",
                    "decodedMethod": {
                        "callParams": [
                            {
                                "name": "sender",
                                "type": "address",
                                "value": "0x9c5d5a5855e9bafe1e47d34fe60390fabe03c540"
                            },
                            {
                                "name": "recipient",
                                "type": "address",
                                "value": "0x5281e311734869c64ca60ef047fd87759397efe6"
                            },
                            {
                                "decimalAvailable": true,
                                "name": "amount",
                                "type": "uint256",
                                "value": "310,394,920,314,960,000,000,000,000"
                            }
                        ],
                        "constructorArguments": "",
                        "name": "transferFrom",
                        "returnParams": [
                            {
                                "name": "",
                                "type": "bool",
                                "value": true
                            }
                        ],
                        "signature": "transferFrom(address,address,uint256)"
                    },
                    "errorInfo": "",
                    "fromAddress": "0x000000000022d473030f116ddee9f6b43ac78ba3",
                    "gasUsed": 102268,
                    "id": 5,
                    "methodDecoded": true,
                    "operation": "CALL",
                    "output": "0x0000000000000000000000000000000000000000000000000000000000000001",
                    "revert": false,
                    "revertMessage": "",
                    "selector": "0x23b872dd",
                    "status": true,
                    "value": "0"
                },
                "nodeType": 0
            },
            "6": {
                "invocation": {
                    "address": "0xb12ca3dbf866da26b0f55a20a51fea8efd8592f9",
                    "callData": "0x0000000000000000000000009c5d5a5855e9bafe1e47d34fe60390fabe03c5400000000000000000000000005281e311734869c64ca60ef047fd87759397efe600000000000000000000000000000000000000000100c0ae58c1265eae150000",
                    "decodedMethod": {
                        "callParams": [
                            {
                                "name": "sender",
                                "type": "address",
                                "value": "0x9c5d5a5855e9bafe1e47d34fe60390fabe03c540"
                            },
                            {
                                "name": "recipient",
                                "type": "address",
                                "value": "0x5281e311734869c64ca60ef047fd87759397efe6"
                            },
                            {
                                "decimalAvailable": true,
                                "name": "amount",
                                "type": "uint256",
                                "value": "310,394,920,314,960,000,000,000,000"
                            }
                        ],
                        "constructorArguments": "",
                        "name": "transferFrom",
                        "returnParams": [
                            {
                                "name": "",
                                "type": "bool",
                                "value": true
                            }
                        ],
                        "signature": "transferFrom(address,address,uint256)"
                    },
                    "errorInfo": "",
                    "fromAddress": "0xf0f9d895aca5c8678f706fb8216fa22957685a13",
                    "gasUsed": 97361,
                    "id": 6,
                    "methodDecoded": true,
                    "operation": "DELEGATECALL",
                    "output": "0x0000000000000000000000000000000000000000000000000000000000000001",
                    "revert": false,
                    "revertMessage": "",
                    "selector": "0x23b872dd",
                    "status": true,
                    "value": "0"
                },
                "nodeType": 0
            },
            "7": {
                "event": {
                    "contract": "0xf0f9d895aca5c8678f706fb8216fa22957685a13",
                    "decodedLog": {
                        "name": "Transfer",
                        "params": [
                            {
                                "name": "from",
                                "type": "address",
                                "value": "0x9c5d5a5855e9bafe1e47d34fe60390fabe03c540"
                            },
                            {
                                "name": "to",
                                "type": "address",
                                "value": "0x55ac81186e1a8454c79ad78c615c43f54f87403b"
                            },
                            {
                                "decimalAvailable": true,
                                "name": "value",
                                "type": "uint256",
                                "value": "1,241,579,681,259,840,000,000,000"
                            }
                        ],
                        "signature": "Transfer(address,address,uint256)"
                    },
                    "id": 7,
                    "logData": "0x0000000000000000000000000000000000000000000106ea2b5ceebed7bc8000",
                    "logDecoded": true,
                    "operation": "EVENT",
                    "revert": false,
                    "status": true,
                    "topics": [
                        "0xddf252ad1be2c89b69c2b068fc378daa952ba7f163c4a11628f55a4df523b3ef",
                        "0x0000000000000000000000009c5d5a5855e9bafe1e47d34fe60390fabe03c540",
                        "0x00000000000000000000000055ac81186e1a8454c79ad78c615c43f54f87403b"
                    ]
                },
                "nodeType": 1
            },
            "8": {
                "event": {
                    "contract": "0xf0f9d895aca5c8678f706fb8216fa22957685a13",
                    "decodedLog": {
                        "name": "Transfer",
                        "params": [
                            {
                                "name": "from",
                                "type": "address",
                                "value": "0x9c5d5a5855e9bafe1e47d34fe60390fabe03c540"
                            },
                            {
                                "name": "to",
                                "type": "address",
                                "value": "0x5281e311734869c64ca60ef047fd87759397efe6"
                            },
                            {
                                "decimalAvailable": true,
                                "name": "value",
                                "type": "uint256",
                                "value": "309,153,340,633,700,160,000,000,000"
                            }
                        ],
                        "signature": "Transfer(address,address,uint256)"
                    },
                    "id": 8,
                    "logData": "0x000000000000000000000000000000000000000000ffb9c42d64379fd6588000",
                    "logDecoded": true,
                    "operation": "EVENT",
                    "revert": false,
                    "status": true,
                    "topics": [
                        "0xddf252ad1be2c89b69c2b068fc378daa952ba7f163c4a11628f55a4df523b3ef",
                        "0x0000000000000000000000009c5d5a5855e9bafe1e47d34fe60390fabe03c540",
                        "0x0000000000000000000000005281e311734869c64ca60ef047fd87759397efe6"
                    ]
                },
                "nodeType": 1
            },
            "9": {
                "invocation": {
                    "address": "0x55ac81186e1a8454c79ad78c615c43f54f87403b",
                    "callData": "0x",
                    "decodedMethod": {
                        "callParams": [],
                        "constructorArguments": "",
                        "name": "validatePayout",
                        "returnParams": [],
                        "signature": "validatePayout()"
                    },
                    "errorInfo": "",
                    "fromAddress": "0xf0f9d895aca5c8678f706fb8216fa22957685a13",
                    "gasUsed": 47825,
                    "id": 9,
                    "methodDecoded": true,
                    "operation": "CALL",
                    "output": "",
                    "revert": false,
                    "revertMessage": "",
                    "selector": "0xa1485f64",
                    "status": true,
                    "value": "0"
                },
                "nodeType": 0
            }
        },
        "gasFlame": [
            {
                "children": [
                    {
                        "children": [
                            {
                                "children": [],
                                "depth": 0,
                                "name": "Initial Gas",
                                "value": 27964
                            },
                            {
                                "children": [
                                    {
                                        "children": [
                                            {
                                                "children": [],
                                                "depth": 2,
                                                "name": "ecrecover",
                                                "value": 3000
                                            }
                                        ],
                                        "depth": 1,
                                        "name": "permit",
                                        "value": 13686
                                    },
                                    {
                                        "children": [
                                            {
                                                "children": [
                                                    {
                                                        "children": [
                                                            {
                                                                "children": [
                                                                    {
                                                                        "children": [
                                                                            {
                                                                                "children": [
                                                                                    {
                                                                                        "children": [],
                                                                                        "depth": 7,
                                                                                        "name": "balanceOf",
                                                                                        "value": 583
                                                                                    }
                                                                                ],
                                                                                "depth": 6,
                                                                                "name": "balanceOf",
                                                                                "value": 981
                                                                            },
                                                                            {
                                                                                "children": [
                                                                                    {
                                                                                        "children": [],
                                                                                        "depth": 7,
                                                                                        "name": "getReserves",
                                                                                        "value": 2504
                                                                                    }
                                                                                ],
                                                                                "depth": 6,
                                                                                "name": "getAmountsOut",
                                                                                "value": 8582
                                                                            },
                                                                            {
                                                                                "children": [
                                                                                    {
                                                                                        "children": [],
                                                                                        "depth": 7,
                                                                                        "name": "nextInvestee",
                                                                                        "value": 2385
                                                                                    }
                                                                                ],
                                                                                "depth": 6,
                                                                                "name": "nextInvestee",
                                                                                "value": 7280
                                                                            },
                                                                            {
                                                                                "children": [
                                                                                    {
                                                                                        "children": [],
                                                                                        "depth": 7,
                                                                                        "name": "nextInvesteeFund",
                                                                                        "value": 2341
                                                                                    }
                                                                                ],
                                                                                "depth": 6,
                                                                                "name": "nextInvesteeFund",
                                                                                "value": 2736
                                                                            }
                                                                        ],
                                                                        "depth": 5,
                                                                        "name": "validatePayout",
                                                                        "value": 42933
                                                                    }
                                                                ],
                                                                "depth": 4,
                                                                "name": "validatePayout",
                                                                "value": 47825
                                                            }
                                                        ],
                                                        "depth": 3,
                                                        "name": "transferFrom",
                                                        "value": 97361
                                                    }
                                                ],
                                                "depth": 2,
                                                "name": "transferFrom",
                                                "value": 102268
                                            }
                                        ],
                                        "depth": 1,
                                        "name": "transferFrom",
                                        "value": 105975
                                    },
                                    {
                                        "children": [],
                                        "depth": 1,
                                        "name": "balanceOf",
                                        "value": 2534
                                    },
                                    {
                                        "children": [],
                                        "depth": 1,
                                        "name": "getReserves",
                                        "value": 504
                                    },
                                    {
                                        "children": [
                                            {
                                                "children": [],
                                                "depth": 2,
                                                "name": "balanceOf",
                                                "value": 583
                                            }
                                        ],
                                        "depth": 1,
                                        "name": "balanceOf",
                                        "value": 981
                                    },
                                    {
                                        "children": [
                                            {
                                                "children": [],
                                                "depth": 2,
                                                "name": "transfer",
                                                "value": 27962
                                            },
                                            {
                                                "children": [],
                                                "depth": 2,
                                                "name": "balanceOf",
                                                "value": 534
                                            },
                                            {
                                                "children": [
                                                    {
                                                        "children": [],
                                                        "depth": 3,
                                                        "name": "balanceOf",
                                                        "value": 583
                                                    }
                                                ],
                                                "depth": 2,
                                                "name": "balanceOf",
                                                "value": 981
                                            }
                                        ],
                                        "depth": 1,
                                        "name": "swap",
                                        "value": 60800
                                    },
                                    {
                                        "children": [],
                                        "depth": 1,
                                        "name": "balanceOf",
                                        "value": 534
                                    },
                                    {
                                        "children": [],
                                        "depth": 1,
                                        "name": "balanceOf",
                                        "value": 534
                                    },
                                    {
                                        "children": [
                                            {
                                                "children": [],
                                                "depth": 2,
                                                "name": "fallback",
                                                "value": 80
                                            }
                                        ],
                                        "depth": 1,
                                        "name": "withdraw",
                                        "value": 9220
                                    },
                                    {
                                        "children": [],
                                        "depth": 1,
                                        "name": "fallback",
                                        "value": 0
                                    }
                                ],
                                "depth": 0,
                                "name": "Executed Gas",
                                "value": 222839
                            }
                        ],
                        "depth": -1,
                        "name": "Actual Gas Used",
                        "value": 215703
                    },
                    {
                        "children": [],
                        "depth": -1,
                        "name": "Refunded Gas",
                        "value": 35100
                    }
                ],
                "depth": -2,
                "name": "Total Gas",
                "value": 250803
            }
        ],
        "isConfirmed": true,
        "mainTrace": [
            {
                "children": [
                    {
                        "children": [
                            {
                                "children": [
                                    {
                                        "children": [],
                                        "depth": 2,
                                        "id": 2,
                                        "order": 2
                                    },
                                    {
                                        "children": [],
                                        "depth": 2,
                                        "id": 3,
                                        "order": 3
                                    }
                                ],
                                "depth": 1,
                                "id": 1,
                                "order": 1
                            },
                            {
                                "children": [
                                    {
                                        "children": [
                                            {
                                                "children": [
                                                    {
                                                        "children": [],
                                                        "depth": 4,
                                                        "id": 7,
                                                        "order": 7
                                                    },
                                                    {
                                                        "children": [],
                                                        "depth": 4,
                                                        "id": 8,
                                                        "order": 8
                                                    },
                                                    {
                                                        "children": [
                                                            {
                                                                "children": [
                                                                    {
                                                                        "children": [
                                                                            {
                                                                                "children": [],
                                                                                "depth": 7,
                                                                                "id": 12,
                                                                                "order": 12
                                                                            }
                                                                        ],
                                                                        "depth": 6,
                                                                        "id": 11,
                                                                        "order": 11
                                                                    },
                                                                    {
                                                                        "children": [
                                                                            {
                                                                                "children": [],
                                                                                "depth": 7,
                                                                                "id": 14,
                                                                                "order": 14
                                                                            }
                                                                        ],
                                                                        "depth": 6,
                                                                        "id": 13,
                                                                        "order": 13
                                                                    },
                                                                    {
                                                                        "children": [
                                                                            {
                                                                                "children": [],
                                                                                "depth": 7,
                                                                                "id": 16,
                                                                                "order": 16
                                                                            }
                                                                        ],
                                                                        "depth": 6,
                                                                        "id": 15,
                                                                        "order": 15
                                                                    },
                                                                    {
                                                                        "children": [
                                                                            {
                                                                                "children": [],
                                                                                "depth": 7,
                                                                                "id": 18,
                                                                                "order": 18
                                                                            }
                                                                        ],
                                                                        "depth": 6,
                                                                        "id": 17,
                                                                        "order": 17
                                                                    }
                                                                ],
                                                                "depth": 5,
                                                                "id": 10,
                                                                "order": 10
                                                            }
                                                        ],
                                                        "depth": 4,
                                                        "id": 9,
                                                        "order": 9
                                                    },
                                                    {
                                                        "children": [],
                                                        "depth": 4,
                                                        "id": 19,
                                                        "order": 19
                                                    }
                                                ],
                                                "depth": 3,
                                                "id": 6,
                                                "order": 6
                                            }
                                        ],
                                        "depth": 2,
                                        "id": 5,
                                        "order": 5
                                    }
                                ],
                                "depth": 1,
                                "id": 4,
                                "order": 4
                            },
                            {
                                "children": [],
                                "depth": 1,
                                "id": 20,
                                "order": 20
                            },
                            {
                                "children": [],
                                "depth": 1,
                                "id": 21,
                                "order": 21
                            },
                            {
                                "children": [
                                    {
                                        "children": [],
                                        "depth": 2,
                                        "id": 23,
                                        "order": 23
                                    }
                                ],
                                "depth": 1,
                                "id": 22,
                                "order": 22
                            },
                            {
                                "children": [
                                    {
                                        "children": [
                                            {
                                                "children": [],
                                                "depth": 3,
                                                "id": 26,
                                                "order": 26
                                            }
                                        ],
                                        "depth": 2,
                                        "id": 25,
                                        "order": 25
                                    },
                                    {
                                        "children": [],
                                        "depth": 2,
                                        "id": 27,
                                        "order": 27
                                    },
                                    {
                                        "children": [
                                            {
                                                "children": [],
                                                "depth": 3,
                                                "id": 29,
                                                "order": 29
                                            }
                                        ],
                                        "depth": 2,
                                        "id": 28,
                                        "order": 28
                                    },
                                    {
                                        "children": [],
                                        "depth": 2,
                                        "id": 30,
                                        "order": 30
                                    },
                                    {
                                        "children": [],
                                        "depth": 2,
                                        "id": 31,
                                        "order": 31
                                    }
                                ],
                                "depth": 1,
                                "id": 24,
                                "order": 24
                            },
                            {
                                "children": [],
                                "depth": 1,
                                "id": 32,
                                "order": 32
                            },
                            {
                                "children": [],
                                "depth": 1,
                                "id": 33,
                                "order": 33
                            },
                            {
                                "children": [
                                    {
                                        "children": [],
                                        "depth": 2,
                                        "id": 35,
                                        "order": 35
                                    },
                                    {
                                        "children": [],
                                        "depth": 2,
                                        "id": 36,
                                        "order": 36
                                    }
                                ],
                                "depth": 1,
                                "id": 34,
                                "order": 34
                            },
                            {
                                "children": [],
                                "depth": 1,
                                "id": 37,
                                "order": 37
                            }
                        ],
                        "depth": 0,
                        "id": 0,
                        "order": 0
                    }
                ],
                "depth": -1,
                "id": -1,
                "order": -1
            }
        ],
        "mainTraceNodeCount": 38,
        "parentIdMap": {
            "0": -1,
            "1": 0,
            "10": 9,
            "11": 10,
            "12": 11,
            "13": 10,
            "14": 13,
            "15": 10,
            "16": 15,
            "17": 10,
            "18": 17,
            "19": 6,
            "2": 1,
            "20": 0,
            "21": 0,
            "22": 0,
            "23": 22,
            "24": 0,
            "25": 24,
            "26": 25,
            "27": 24,
            "28": 24,
            "29": 28,
            "3": 1,
            "30": 24,
            "31": 24,
            "32": 0,
            "33": 0,
            "34": 0,
            "35": 34,
            "36": 34,
            "37": 0,
            "4": 0,
            "5": 4,
            "6": 5,
            "7": 6,
            "8": 6,
            "9": 6
        },
        "tidyTrace": [
            {
                "children": [
                    {
                        "children": [
                            {
                                "children": [
                                    {
                                        "children": [],
                                        "depth": 2,
                                        "id": 3,
                                        "order": 3
                                    }
                                ],
                                "depth": 1,
                                "id": 1,
                                "order": 1
                            },
                            {
                                "children": [
                                    {
                                        "children": [
                                            {
                                                "children": [
                                                    {
                                                        "children": [],
                                                        "depth": 4,
                                                        "id": 7,
                                                        "order": 7
                                                    },
                                                    {
                                                        "children": [],
                                                        "depth": 4,
                                                        "id": 8,
                                                        "order": 8
                                                    },
                                                    {
                                                        "children": [
                                                            {
                                                                "children": [],
                                                                "depth": 5,
                                                                "id": 10,
                                                                "order": 10
                                                            }
                                                        ],
                                                        "depth": 4,
                                                        "id": 9,
                                                        "order": 9
                                                    },
                                                    {
                                                        "children": [],
                                                        "depth": 4,
                                                        "id": 19,
                                                        "order": 19
                                                    }
                                                ],
                                                "depth": 3,
                                                "id": 6,
                                                "order": 6
                                            }
                                        ],
                                        "depth": 2,
                                        "id": 5,
                                        "order": 5
                                    }
                                ],
                                "depth": 1,
                                "id": 4,
                                "order": 4
                            },
                            {
                                "children": [
                                    {
                                        "children": [
                                            {
                                                "children": [],
                                                "depth": 3,
                                                "id": 26,
                                                "order": 26
                                            }
                                        ],
                                        "depth": 2,
                                        "id": 25,
                                        "order": 25
                                    },
                                    {
                                        "children": [],
                                        "depth": 2,
                                        "id": 30,
                                        "order": 30
                                    },
                                    {
                                        "children": [],
                                        "depth": 2,
                                        "id": 31,
                                        "order": 31
                                    }
                                ],
                                "depth": 1,
                                "id": 24,
                                "order": 24
                            },
                            {
                                "children": [
                                    {
                                        "children": [],
                                        "depth": 2,
                                        "id": 35,
                                        "order": 35
                                    },
                                    {
                                        "children": [],
                                        "depth": 2,
                                        "id": 36,
                                        "order": 36
                                    }
                                ],
                                "depth": 1,
                                "id": 34,
                                "order": 34
                            },
                            {
                                "children": [],
                                "depth": 1,
                                "id": 37,
                                "order": 37
                            }
                        ],
                        "depth": 0,
                        "id": 0,
                        "order": 0
                    }
                ],
                "depth": -1,
                "id": -1,
                "order": -1
            }
        ],
        "tidyTraceNodeCount": 20
    },
    "state_change": {
        "stateChanges": [
            {
                "address": "0x000000000022d473030f116ddee9f6b43ac78ba3",
                "erc": "",
                "slots": [
                    {
                        "current": "0x000000000002000065f66ee6ffffffffffffffffffffffffffffffffffffffff",
                        "key": "0x9043b5089156994b424577cb9189ff88d4c94638bb70d90584d75544405e8f7e",
                        "prev": "0x000000000001000065408a1effffffffffffffffffffffffffffffffffffffff"
                    }
                ],
                "storageVariables": [
                    {
                        "name": "allowance",
                        "type": "mapping(address => mapping(address => mapping(address => struct IAllowanceTransfer.PackedAllowance)))",
                        "value": {
                            "pairs": [
                                {
                                    "key": "0x9c5d5a5855e9bafe1e47d34fe60390fabe03c540",
                                    "value": {
                                        "pairs": [
                                            {
                                                "key": "0xf0f9d895aca5c8678f706fb8216fa22957685a13",
                                                "value": {
                                                    "pairs": [
                                                        {
                                                            "key": "0x3fc91a3afd70395cd496c647d5a6cc9d4b2b7fad",
                                                            "value": {
                                                                "fields": [
                                                                    {
                                                                        "name": "amount",
                                                                        "type": "uint160",
                                                                        "value": {
                                                                            "current": "1461501637330902918203684832716283019655932542975",
                                                                            "prev": "1461501637330902918203684832716283019655932542975",
                                                                            "typeTag": 1
                                                                        }
                                                                    },
                                                                    {
                                                                        "name": "expiration",
                                                                        "type": "uint48",
                                                                        "value": {
                                                                            "current": "1710649062",
                                                                            "prev": "1698728478",
                                                                            "typeTag": 1
                                                                        }
                                                                    },
                                                                    {
                                                                        "name": "nonce",
                                                                        "type": "uint48",
                                                                        "value": {
                                                                            "current": "2",
                                                                            "prev": "1",
                                                                            "typeTag": 1
                                                                        }
                                                                    }
                                                                ],
                                                                "typeTag": 3
                                                            }
                                                        }
                                                    ],
                                                    "typeTag": 4
                                                }
                                            }
                                        ],
                                        "typeTag": 4
                                    }
                                }
                            ],
                            "typeTag": 4
                        }
                    }
                ]
            },
            {
                "address": "0x5281e311734869c64ca60ef047fd87759397efe6",
                "erc": "ERC-20",
                "slots": [
                    {
                        "current": "0x0000000000000000000000000000000000003f572d2f03ea47976e32fbc04706",
                        "key": "0x000000000000000000000000000000000000000000000000000000000000000a",
                        "prev": "0x0000000000000000000000000000000000003f56f1b7f66192e867755138f0f6"
                    },
                    {
                        "current": "0x65cee20f000783819245836f5282a56cde9d000000000022c05f94dce42106a3",
                        "key": "0x0000000000000000000000000000000000000000000000000000000000000008",
                        "prev": "0x65ced53700078281d881560b1ae2cf145e9d000000000022c4fb65e458ab7307"
                    },
                    {
                        "current": "0x0000000000000000000001148d4e5f8395549212ad202f976d643d0e4d17c307",
                        "key": "0x0000000000000000000000000000000000000000000000000000000000000009",
                        "prev": "0x0000000000000000000001148a88342fc6c3579b82abd423231d26fee494e567"
                    }
                ],
                "storageVariables": [
                    {
                        "name": "price0CumulativeLast",
                        "type": "uint256",
                        "value": {
                            "current": "404181167380583499856624855311515411262381042942727",
                            "prev": "404165330077146236558068639070747301646516455007591",
                            "typeTag": 1
                        }
                    },
                    {
                        "name": "price1CumulativeLast",
                        "type": "uint256",
                        "value": {
                            "current": "1284698638832240512769899379050246",
                            "prev": "1284680235290575978166183509160182",
                            "typeTag": 1
                        }
                    },
                    {
                        "name": "reserve0",
                        "type": "uint112",
                        "value": {
                            "current": "641051260360635516579",
                            "prev": "641383349188127585031",
                            "typeTag": 1
                        }
                    },
                    {
                        "name": "reserve1",
                        "type": "uint112",
                        "value": {
                            "current": "595296316064979573637909372573",
                            "prev": "594987162724345873477909372573",
                            "typeTag": 1
                        }
                    },
                    {
                        "name": "blockTimestampLast",
                        "type": "uint32",
                        "value": {
                            "current": "1708057103",
                            "prev": "1708053815",
                            "typeTag": 1
                        }
                    }
                ]
            },
            {
                "address": "0xc02aaa39b223fe8d0a0e5c4f27ead9083c756cc2",
                "erc": "ERC-20",
                "slots": [
                    {
                        "current": "0x000000000000000000000000000000000000000000000022c05f94dce42106a3",
                        "key": "0xb027f0daa331c053702f8bc0ebcff9b58ca95f74e8734957e173e050d6793f90",
                        "prev": "0x000000000000000000000000000000000000000000000022c4fb65e458ab7307"
                    }
                ],
                "storageVariables": [
                    {
                        "name": "balanceOf",
                        "type": "mapping(address => uint256)",
                        "value": {
                            "pairs": [
                                {
                                    "key": "0x5281e311734869c64ca60ef047fd87759397efe6",
                                    "value": {
                                        "current": "641051260360635516579",
                                        "prev": "641383349188127585031",
                                        "typeTag": 1
                                    }
                                }
                            ],
                            "typeTag": 4
                        }
                    }
                ]
            },
            {
                "address": "0xf0f9d895aca5c8678f706fb8216fa22957685a13",
                "erc": "ERC-20",
                "slots": [
                    {
                        "current": "0x0000000000000000000000000000000000000000000000000000000000000000",
                        "key": "0x71b97e0a9bbc4a6d2535d22a0d5cb6878e93baca6c126e5bf3d105ab3f654d42",
                        "prev": "0x00000000000000000000000000000000000000000100c0ae58c1265eae150000"
                    },
                    {
                        "current": "0x0000000000000000000000000000000000000000000000000000000000000000",
                        "key": "0x919dc99fd1c78a349b734958a212b020d4ea41fb2b86b47d50ca7cf9594d220b",
                        "prev": "0x00000000000000000000000000000000000000000100c0ae58c1265eae150000"
                    },
                    {
                        "current": "0x0000000000000000000000000000000000000000992c3f9e64b8c44a29ab5eb4",
                        "key": "0x9325bb25e9df410e1f8559ce8e5cd5ab272b1346a8d4ff767b8eb5c63de44030",
                        "prev": "0x0000000000000000000000000000000000000000992b38b4395bd58b51eedeb4"
                    },
                    {
                        "current": "0x000000000000000000000000000000000000000783819245836f5282a56cde9d",
                        "key": "0x10d96ee9f9282d17404000023d3a6a488bbaf9338d77119685a370f20b667f34",
                        "prev": "0x00000000000000000000000000000000000000078281d881560b1ae2cf145e9d"
                    }
                ],
                "storageVariables": [
                    {
                        "name": "_allowances",
                        "type": "mapping(address => mapping(address => uint256))",
                        "value": {
                            "pairs": [
                                {
                                    "key": "0x9c5d5a5855e9bafe1e47d34fe60390fabe03c540",
                                    "value": {
                                        "pairs": [
                                            {
                                                "key": "0x000000000022d473030f116ddee9f6b43ac78ba3",
                                                "value": {
                                                    "current": "0",
                                                    "prev": "310394920314960000000000000",
                                                    "typeTag": 1
                                                }
                                            }
                                        ],
                                        "typeTag": 4
                                    }
                                }
                            ],
                            "typeTag": 4
                        }
                    },
                    {
                        "name": "_balances",
                        "type": "mapping(address => uint256)",
                        "value": {
                            "pairs": [
                                {
                                    "key": "0x5281e311734869c64ca60ef047fd87759397efe6",
                                    "value": {
                                        "current": "595296316064979573637909372573",
                                        "prev": "594987162724345873477909372573",
                                        "typeTag": 1
                                    }
                                },
                                {
                                    "key": "0x55ac81186e1a8454c79ad78c615c43f54f87403b",
                                    "value": {
                                        "current": "47404699669660590254649466548",
                                        "prev": "47403458089979330414649466548",
                                        "typeTag": 1
                                    }
                                },
                                {
                                    "key": "0x9c5d5a5855e9bafe1e47d34fe60390fabe03c540",
                                    "value": {
                                        "current": "0",
                                        "prev": "310394920314960000000000000",
                                        "typeTag": 1
                                    }
                                }
                            ],
                            "typeTag": 4
                        }
                    }
                ]
            }
        ]
    }
}