{
    "balance_change": {
        "balanceChanges": [
            {
                "account": "0x003e36550908907c2a2da960fd19a419b9a774b7",
                "assets": [
                    {
                        "address": "0xc80c5e40220172b36adee2c951f26f2a577810c5",
                        "amount": "200,000",
                        "iconUrl": "",
                        "isERC1155": false,
                        "isERC721": false,
                        "sign": false,
                        "value": ""
                    }
                ]
            },
            {
                "account": "0x1f81466dbecede50e24f487dd0690f377f6a7b85",
                "assets": [
                    {
                        "address": "0xc80c5e40220172b36adee2c951f26f2a577810c5",
                        "amount": "200,000",
                        "iconUrl": "",
                        "isERC1155": false,
                        "isERC721": false,
                        "sign": true,
                        "value": ""
                    }
                ]
            }
        ]
    },
    "profile": {
        "basic_info": {
            "baseFee": "",
            "blockNumber": 6675138,
            "callData": "0xa9059cbb0000000000000000000000001f81466dbecede50e24f487dd0690f377f6a7b85000000000000000000000000000000000000000000000000000012309ce54000",
            "debugEnable": true,
            "errorInfo": "",
            "eventCount": 2,
            "feeRecipient": "0xd4383232c8d1dbe0e03bdfab849871fa17e61807",
            "formatValue": "0",
            "gasLimit": 168444,
            "gasPrice": "6",
            "gasUsed": 84478,
            "intTxnCount": 0,
            "internalRevert": false,
            "internalRevertMessage": "",
            "isContractCreation": false,
            "isFlashloan": false,
            "maxFee": "",
            "nonce": 79145,
            "overwritedBlockNumber": -1,
            "priorityFee": "",
            "receiver": "0xc80c5e40220172b36adee2c951f26f2a577810c5",
            "revertMessage": "",
            "sender": "0x003e36550908907c2a2da960fd19a419b9a774b7",
            "simulationEnable": true,
            "sourceTxnHash": "0x2c7455c31c98ec4b3e946e215e0dc08b34692d9754016b81349ecb4432d9e89a",
            "status": true,
            "timestamp": "2018-11-09T23:29:01Z",
            "transactionFee": "0.000506868",
            "txnHash": "0x2c7455c31c98ec4b3e946e215e0dc08b34692d9754016b81349ecb4432d9e89a",
            "txnIndex": 12,
            "type": 0,
            "value": "0"
        },
        "fund_flow": [
            {
                "amount": "200,000",
                "from": "0x003e36550908907c2a2da960fd19a419b9a774b7",
                "id": 1,
                "isERC1155": false,
                "isERC721": false,
                "isReverted": false,
                "order": 1,
                "to": "0x1f81466dbecede50e24f487dd0690f377f6a7b85",
                "token": "0xc80c5e40220172b36adee2c951f26f2a577810c5"
            }
        ],
        "token_infos": [
            {
                "address": "0xc02aaa39b223fe8d0a0e5c4f27ead9083c756cc2",
                "decimals": 18
            },
            {
                "address": "0xc80c5e40220172b36adee2c951f26f2a577810c5",
                "decimals": 8
            },
            {
                "address": "0xeeeeeeeeeeeeeeeeeeeeeeeeeeeeeeeeeeeeeeee",
                "decimals": 18
            }
        ]
    },
    "address_label": {
        "labels": [
            {
                "address": "0x0000000000000000000000000000000000000002",
                "label": "Precompiled"
            },
            {
                "address": "0x0000000000000000000000000000000000000003",
                "label": "Precompiled"
            },
            {
                "address": "0x0000000000000000000000000000000000000004",
                "label": "Precompiled"
            },
            {
                "address": "0xeeeeeeeeeeeeeeeeeeeeeeeeeeeeeeeeeeeeeeee",
                "label": "Ether"
            },
            {
                "address": "0xc80c5e40220172b36adee2c951f26f2a577810c5",
                "label": "Bankera: Old BNK Token"
            },
            {
                "address": "0x1f81466dbecede50e24f487dd0690f377f6a7b85",
                "label": "HITBTC"
            },
            {
                "address": "0x0000000000000000000000000000000000000001",
                "label": "Precompiled"
            }
        ]
    },
    "trace": {
        "accountLabels": null,
        "dataMap": {
            "-1": {
                "invocation": {
                    "address": "0x003e36550908907c2a2da960fd19a419b9a774b7",
                    "callData": "",
                    "decodedMethod": null,
                    "errorInfo": "",
                    "fromAddress": "",
                    "gasUsed": 0,
                    "id": -1,
                    "methodDecoded": false,
                    "operation": "",
                    "output": "",
                    "revert": false,
                    "revertMessage": "",
                    "selector": "",
                    "status": false,
                    "value": ""
                },
                "nodeType": 0
            },
            "0": {
                "invocation": {
                    "address": "0xc80c5e40220172b36adee2c951f26f2a577810c5",
                    "callData": "0x0000000000000000000000001f81466dbecede50e24f487dd0690f377f6a7b85000000000000000000000000000000000000000000000000000012309ce54000",
                    "decodedMethod": {
                        "callParams": [
                            {
                                "name": "_to",
                                "type": "address",
                                "value": "0x1f81466dbecede50e24f487dd0690f377f6a7b85"
                            },
                            {
                                "decimalAvailable": true,
                                "name": "_value",
                                "type": "uint256",
                                "value": "20,000,000,000,000"
                            }
                        ],
                        "constructorArguments": "",
                        "name": "transfer",
                        "returnParams": [
                            {
                                "name": "success",
                                "type": "bool",
                                "value": true
                            }
                        ],
                        "signature": "transfer(address,uint256)"
                    },
                    "errorInfo": "",
                    "fromAddress": "0x003e36550908907c2a2da960fd19a419b9a774b7",
                    "gasUsed": 84478,
                    "id": 0,
                    "methodDecoded": true,
                    "operation": "CALL",
                    "output": "0x0000000000000000000000000000000000000000000000000000000000000001",
                    "revert": false,
                    "revertMessage": "",
                    "selector": "0xa9059cbb",
                    "status": true,
                    "value": "0"
                },
                "nodeType": 0
            },
            "1": {
                "event": {
                    "contract": "0xc80c5e40220172b36adee2c951f26f2a577810c5",
                    "decodedLog": {
                        "name": "Transfer",
                        "params": [
                            {
                                "name": "_from",
                                "type": "address",
                                "value": "0x003e36550908907c2a2da960fd19a419b9a774b7"
                            },
                            {
                                "name": "_to",
                                "type": "address",
                                "value": "0x1f81466dbecede50e24f487dd0690f377f6a7b85"
                            },
                            {
                                "name": "_value",
                                "type": "uint256",
                                "value": "20,000,000,000,000"
                            },
                            {
                                "name": "_data",
                                "type": "bytes",
                                "value": "0x"
                            }
                        ],
                        "signature": "Transfer(address,address,uint256,bytes)"
                    },
                    "id": 1,
                    "logData": "0x000000000000000000000000000000000000000000000000000012309ce5400000000000000000000000000000000000000000000000000000000000000000400000000000000000000000000000000000000000000000000000000000000000",
                    "logDecoded": true,
                    "operation": "EVENT",
                    "revert": false,
                    "status": true,
                    "topics": [
                        "0xe19260aff97b920c7df27010903aeb9c8d2be5d310a2c67824cf3f15396e4c16",
                        "0x000000000000000000000000003e36550908907c2a2da960fd19a419b9a774b7",
                        "0x0000000000000000000000001f81466dbecede50e24f487dd0690f377f6a7b85"
                    ]
                },
                "nodeType": 1
            },
            "2": {
                "event": {
                    "contract": "0xc80c5e40220172b36adee2c951f26f2a577810c5",
                    "decodedLog": {
                        "name": "Transfer",
                        "params": [
                            {
                                "name": "_from",
                                "type": "address",
                                "value": "0x003e36550908907c2a2da960fd19a419b9a774b7"
                            },
                            {
                                "name": "_to",
                                "type": "address",
                                "value": "0x1f81466dbecede50e24f487dd0690f377f6a7b85"
                            },
                            {
                                "decimalAvailable": true,
                                "name": "_value",
                                "type": "uint256",
                                "value": "20,000,000,000,000"
                            }
                        ],
                        "signature": "Transfer(address,address,uint256)"
                    },
                    "id": 2,
                    "logData": "0x000000000000000000000000000000000000000000000000000012309ce54000",
                    "logDecoded": true,
                    "operation": "EVENT",
                    "revert": false,
                    "status": true,
                    "topics": [
                        "0xddf252ad1be2c89b69c2b068fc378daa952ba7f163c4a11628f55a4df523b3ef",
                        "0x000000000000000000000000003e36550908907c2a2da960fd19a419b9a774b7",
                        "0x0000000000000000000000001f81466dbecede50e24f487dd0690f377f6a7b85"
                    ]
                },
                "nodeType": 1
            }
        },
        "gasFlame": [
            {
                "children": [
                    {
                        "children": [
                            {
                                "children": [],
                                "depth": 0,
                                "name": "Initial Gas",
                                "value": 23128
                            },
                            {
                                "children": [],
                                "depth": 0,
                                "name": "Executed Gas",
                                "value": 61350
                            }
                        ],
                        "depth": -1,
                        "name": "Actual Gas Used",
                        "value": 84478
                    },
                    {
                        "children": [],
                        "depth": -1,
                        "name": "Refunded Gas",
                        "value": 0
                    }
                ],
                "depth": -2,
                "name": "Total Gas",
                "value": 84478
            }
        ],
        "isConfirmed": true,
        "mainTrace": [
            {
                "children": [
                    {
                        "children": [
                            {
                                "children": [],
                                "depth": 1,
                                "id": 1,
                                "order": 1
                            },
                            {
                                "children": [],
                                "depth": 1,
                                "id": 2,
                                "order": 2
                            }
                        ],
                        "depth": 0,
                        "id": 0,
                        "order": 0
                    }
                ],
                "depth": -1,
                "id": -1,
                "order": -1
            }
        ],
        "mainTraceNodeCount": 3,
        "parentIdMap": {
            "0": -1,
            "1": 0,
            "2": 0
        },
        "tidyTrace": [
            {
                "children": [
                    {
                        "children": [
                            {
                                "children": [],
                                "depth": 1,
                                "id": 1,
                                "order": 1
                            },
                            {
                                "children": [],
                                "depth": 1,
                                "id": 2,
                                "order": 2
                            }
                        ],
                        "depth": 0,
                        "id": 0,
                        "order": 0
                    }
                ],
                "depth": -1,
                "id": -1,
                "order": -1
            }
        ],
        "tidyTraceNodeCount": 3
    },
    "state_change": {
        "stateChanges": [
            {
                "address": "0xc80c5e40220172b36adee2c951f26f2a577810c5",
                "erc": "ERC-20",
                "slots": [
                    {
                        "current": "0x000000000000000000000000000000000000000000000000005e46bcabd10afb",
                        "key": "0xe49919c1f42aff5c305316cbb8fc15d832368c156709537812a70f972cdaf01b",
                        "prev": "0x000000000000000000000000000000000000000000000000005e58ed48b64afb"
                    },
                    {
                        "current": "0x000000000000000000000000000000000000000000000000005e46bcabd10afb",
                        "key": "0x6893b9dfa13664fcc6a03cb48b1f62a65f8d0a5bdea973e47ae2c9ec5b9418fc",
                        "prev": "0x000000000000000000000000000000000000000000000000005e58ed48b64afb"
                    },
                    {
                        "current": "0x000000000000000000000000000000000000000000000000000012309ce54000",
                        "key": "0x31f1a1b7cb05a638bd7601b83db03c309b4bd598d1b642762a4ba7a6a1676483",
                        "prev": "0x0000000000000000000000000000000000000000000000000000000000000000"
                    },
                    {
                        "current": "0x000000000000000000000000000000000000000000000000000012309ce54000",
                        "key": "0xa9704cd34ca865be553c02698873ee9596d21a2e0d4912c70d22d000d95aee4e",
                        "prev": "0x0000000000000000000000000000000000000000000000000000000000000000"
                    }
                ],
                "storageVariables": [
                    {
                        "name": "accountBalances",
                        "type": "mapping(address => struct BankeraToken.AddressBalanceInfoStructure)",
                        "value": {
                            "pairs": [
                                {
                                    "key": "0x003e36550908907c2a2da960fd19a419b9a774b7",
                                    "value": {
                                        "fields": [
                                            {
                                                "name": "addressBalance",
                                                "type": "uint256",
                                                "value": {
                                                    "current": "26536423961201403",
                                                    "prev": "26556423961201403",
                                                    "typeTag": 1
                                                }
                                            },
                                            {
                                                "name": "roundBalanceMap",
                                                "type": "mapping(uint256 => uint256)",
                                                "value": {
                                                    "pairs": [
                                                        {
                                                            "key": "63",
                                                            "value": {
                                                                "current": "26536423961201403",
                                                                "prev": "26556423961201403",
                                                                "typeTag": 1
                                                            }
                                                        }
                                                    ],
                                                    "typeTag": 4
                                                }
                                            }
                                        ],
                                        "typeTag": 3
                                    }
                                },
                                {
                                    "key": "0x1f81466dbecede50e24f487dd0690f377f6a7b85",
                                    "value": {
                                        "fields": [
                                            {
                                                "name": "addressBalance",
                                                "type": "uint256",
                                                "value": {
                                                    "current": "20000000000000",
                                                    "prev": "0",
                                                    "typeTag": 1
                                                }
                                            },
                                            {
                                                "name": "roundBalanceMap",
                                                "type": "mapping(uint256 => uint256)",
                                                "value": {
                                                    "pairs": [
                                                        {
                                                            "key": "63",
                                                            "value": {
                                                                "current": "20000000000000",
                                                                "prev": "0",
                                                                "typeTag": 1
                                                            }
                                                        }
                                                    ],
                                                    "typeTag": 4
                                                }
                                            }
                                        ],
                                        "typeTag": 3
                                    }
                                }
                            ],
                            "typeTag": 4
                        }
                    }
                ]
            }
        ]
    }
}