{
    "balance_change": {
        "balanceChanges": [
            {
                "account": "0x6046945c5b5ef5933b8e73a98a6ad7bf3e031df7",
                "assets": [
                    {
                        "address": "0xeeeeeeeeeeeeeeeeeeeeeeeeeeeeeeeeeeeeeeee",
                        "amount": "0.000000000006336784",
                        "iconUrl": "https://assets.blocksec.com/image/1663669189317-3.png",
                        "isERC1155": false,
                        "isERC721": false,
                        "sign": false,
                        "value": "0.00000001512881832864000023"
                    }
                ]
            },
            {
                "account": "0xa69babef1ca67a37ffaf7a485dfff3382056e78c",
                "assets": [
                    {
                        "address": "0xa0b86991c6218b36c1d19d4a2e9eb0ce3606eb48",
                        "amount": "1,816.265997",
                        "iconUrl": "https://assets.blocksec.com/icon/0347a86cc07dbd03fdc5db01a4e5ac7e1217f90e0b6e4bb0f75cbcca09160989.png",
                        "isERC1155": false,
                        "isERC721": false,
                        "sign": true,
                        "value": "1816.265997"
                    },
                    {
                        "address": "0xeeeeeeeeeeeeeeeeeeeeeeeeeeeeeeeeeeeeeeee",
                        "amount": "0.000000000006336784",
                        "iconUrl": "https://assets.blocksec.com/image/1663669189317-3.png",
                        "isERC1155": false,
                        "isERC721": false,
                        "sign": true,
                        "value": "0.00000001512881832864000023"
                    },
                    {
                        "address": "0x31c8eacbffdd875c74b94b077895bd78cf1e64a3",
                        "amount": "1,756.527850266400826252",
                        "iconUrl": "",
                        "isERC1155": false,
                        "isERC721": false,
                        "sign": false,
                        "value": "1816.13884"
                    }
                ]
            },
            {
                "account": "0x8c1c499b1796d7f3c2521ac37186b52de024e58c",
                "assets": [
                    {
                        "address": "0xa0b86991c6218b36c1d19d4a2e9eb0ce3606eb48",
                        "amount": "1,816.265997",
                        "iconUrl": "https://assets.blocksec.com/icon/0347a86cc07dbd03fdc5db01a4e5ac7e1217f90e0b6e4bb0f75cbcca09160989.png",
                        "isERC1155": false,
                        "isERC721": false,
                        "sign": false,
                        "value": "1816.265997"
                    },
                    {
                        "address": "0x31c8eacbffdd875c74b94b077895bd78cf1e64a3",
                        "amount": "1,756.527850266400826252",
                        "iconUrl": "",
                        "isERC1155": false,
                        "isERC721": false,
                        "sign": true,
                        "value": "1816.13884"
                    }
                ]
            }
        ]
    },
    "profile": {
        "basic_info": {
            "baseFee": "2.486227451",
            "blockNumber": 20683508,
            "callData": "0x78e111f60000000000000000000000002c6e668d3a4b25c557ce40b134a65eb36cfc22290000000000000000000000000000000000000000000000000000000000000040000000000000000000000000000000000000000000000000000000000000014470aa0dfe0000000000000000000000008c1c499b1796d7f3c2521ac37186b52de024e58c00000000000000000000000031c8eacbffdd875c74b94b077895bd78cf1e64a3000000000000000000000000a0b86991c6218b36c1d19d4a2e9eb0ce3606eb480000000000000000000000000000000000000000000000018630db60f98b20000000000000000000000000000000000000000000000014cd2ada188eec000000000000000000000000000000000000000000000002611e7ea4c17ee0000000000000000000000000000000000000000000000000000000000003aaf934ad8e600000000000000000000000000000000000000000000000000001881412bf419c0000000000000000000000000000000000000000000000000000000066d97ab37f0000000000000000000000000000000000000000000000000000000000000000000000000000000000000000000000000000000000000000000000",
            "debugEnable": true,
            "errorInfo": "",
            "eventCount": 4,
            "feeRecipient": "0x4838b106fce9647bdf1e7877bf73ce8b0bad5f97",
            "formatValue": "0.000000000006336784",
            "gasLimit": 249426,
            "gasPrice": "3.486227452",
            "gasUsed": 121965,
            "intTxnCount": 11,
            "internalRevert": false,
            "internalRevertMessage": "",
            "isContractCreation": false,
            "isFlashloan": false,
            "maxFee": "4.729341177",
            "nonce": 245556,
            "overwritedBlockNumber": -1,
            "priorityFee": "1.000000001",
            "receiver": "0xa69babef1ca67a37ffaf7a485dfff3382056e78c",
            "revertMessage": "",
            "sender": "0x6046945c5b5ef5933b8e73a98a6ad7bf3e031df7",
            "simulationEnable": true,
            "sourceTxnHash": "0x2c4b18f8704e86993a3c3c98ca130f63f7e90ab0e71ad4f00d6be835a28b630c",
            "status": true,
            "timestamp": "2024-09-05T09:32:35Z",
            "transactionFee": "0.00042519773118318",
            "txnHash": "0x2c4b18f8704e86993a3c3c98ca130f63f7e90ab0e71ad4f00d6be835a28b630c",
            "txnIndex": 31,
            "type": 2,
            "value": "6336784"
        },
        "fund_flow": [
            {
                "amount": "0.000000000006336784",
                "from": "0x6046945c5b5ef5933b8e73a98a6ad7bf3e031df7",
                "id": 1,
                "isERC1155": false,
                "isERC721": false,
                "isReverted": false,
                "order": 1,
                "to": "0xa69babef1ca67a37ffaf7a485dfff3382056e78c",
                "token": "0xeeeeeeeeeeeeeeeeeeeeeeeeeeeeeeeeeeeeeeee"
            },
            {
                "amount": "1,756.527850266400826252",
                "from": "0xa69babef1ca67a37ffaf7a485dfff3382056e78c",
                "id": 2,
                "isERC1155": false,
                "isERC721": false,
                "isReverted": false,
                "order": 2,
                "to": "0x8c1c499b1796d7f3c2521ac37186b52de024e58c",
                "token": "0x31c8eacbffdd875c74b94b077895bd78cf1e64a3"
            },
            {
                "amount": "1,816.265997",
                "from": "0x8c1c499b1796d7f3c2521ac37186b52de024e58c",
                "id": 3,
                "isERC1155": false,
                "isERC721": false,
                "isReverted": false,
                "order": 3,
                "to": "0xa69babef1ca67a37ffaf7a485dfff3382056e78c",
                "token": "0xa0b86991c6218b36c1d19d4a2e9eb0ce3606eb48"
            }
        ],
        "token_infos": [
            {
                "address": "0xeeeeeeeeeeeeeeeeeeeeeeeeeeeeeeeeeeeeeeee",
                "decimals": 18
            },
            {
                "address": "0x31c8eacbffdd875c74b94b077895bd78cf1e64a3",
                "decimals": 18
            },
            {
                "address": "0xa0b86991c6218b36c1d19d4a2e9eb0ce3606eb48",
                "decimals": 6
            },
            {
                "address": "0xc02aaa39b223fe8d0a0e5c4f27ead9083c756cc2",
                "decimals": 18
            }
        ]
    },
    "address_label": {
        "labels": [
            {
                "address": "0x31c8eacbffdd875c74b94b077895bd78cf1e64a3",
                "label": "Radicle (RAD)"
            },
            {
                "address": "0x0000000000000000000000000000000000000002",
                "label": "Precompiled"
            },
            {
                "address": "0x0000000000000000000000000000000000000003",
                "label": "Precompiled"
            },
            {
                "address": "0x43506849d7c04f9138d1a2050bbf3a0c054402dd",
                "label": "FiatTokenV2_2"
            },
            {
                "address": "0x0000000000000000000000000000000000000001",
                "label": "Precompiled"
            },
            {
                "address": "0x0000000000000000000000000000000000000004",
                "label": "Precompiled"
            },
            {
                "address": "0xeeeeeeeeeeeeeeeeeeeeeeeeeeeeeeeeeeeeeeee",
                "label": "Ether"
            },
            {
                "address": "0x8c1c499b1796d7f3c2521ac37186b52de024e58c",
                "label": "Uniswap V2: RAD-USDC"
            },
            {
                "address": "0xa69babef1ca67a37ffaf7a485dfff3382056e78c",
                "label": "MEV Bot: 0xA69...78C"
            },
            {
                "address": "0xa0b86991c6218b36c1d19d4a2e9eb0ce3606eb48",
                "label": "Circle: USDC Token"
            }
        ]
    },
    "trace": {
        "accountLabels": null,
        "dataMap": {
            "-1": {
                "invocation": {
                    "address": "0x6046945c5b5ef5933b8e73a98a6ad7bf3e031df7",
                    "callData": "",
                    "decodedMethod": null,
                    "errorInfo": "",
                    "fromAddress": "",
                    "gasUsed": 0,
                    "id": -1,
                    "methodDecoded": false,
                    "operation": "",
                    "output": "",
                    "revert": false,
                    "revertMessage": "",
                    "selector": "",
                    "status": false,
                    "value": ""
                },
                "nodeType": 0
            },
            "0": {
                "invocation": {
                    "address": "0xa69babef1ca67a37ffaf7a485dfff3382056e78c",
                    "callData": "0x0000000000000000000000002c6e668d3a4b25c557ce40b134a65eb36cfc22290000000000000000000000000000000000000000000000000000000000000040000000000000000000000000000000000000000000000000000000000000014470aa0dfe0000000000000000000000008c1c499b1796d7f3c2521ac37186b52de024e58c00000000000000000000000031c8eacbffdd875c74b94b077895bd78cf1e64a3000000000000000000000000a0b86991c6218b36c1d19d4a2e9eb0ce3606eb480000000000000000000000000000000000000000000000018630db60f98b20000000000000000000000000000000000000000000000014cd2ada188eec000000000000000000000000000000000000000000000002611e7ea4c17ee0000000000000000000000000000000000000000000000000000000000003aaf934ad8e600000000000000000000000000000000000000000000000000001881412bf419c0000000000000000000000000000000000000000000000000000000066d97ab37f0000000000000000000000000000000000000000000000000000000000000000000000000000000000000000000000000000000000000000000000",
                    "decodedMethod": {
                        "callParams": [
                            {
                                "name": "_address",
                                "type": "address",
                                "value": "0x2c6e668d3a4b25c557ce40b134a65eb36cfc2229"
                            },
                            {
                                "name": "_bytes",
                                "type": "bytes",
                                "value": "0x70aa0dfe0000000000000000000000008c1c499b1796d7f3c2521ac37186b52de024e58c00000000000000000000000031c8eacbffdd875c74b94b077895bd78cf1e64a3000000000000000000000000a0b86991c6218b36c1d19d4a2e9eb0ce3606eb480000000000000000000000000000000000000000000000018630db60f98b20000000000000000000000000000000000000000000000014cd2ada188eec000000000000000000000000000000000000000000000002611e7ea4c17ee0000000000000000000000000000000000000000000000000000000000003aaf934ad8e600000000000000000000000000000000000000000000000000001881412bf419c0000000000000000000000000000000000000000000000000000000066d97ab37f00000000000000000000000000000000000000000000000000000000000000"
                            }
                        ],
                        "constructorArguments": "",
                        "name": "executeFFsYo",
                        "returnParams": [],
                        "signature": "executeFFsYo(address,bytes)"
                    },
                    "errorInfo": "",
                    "fromAddress": "0x6046945c5b5ef5933b8e73a98a6ad7bf3e031df7",
                    "gasUsed": 121965,
                    "id": 0,
                    "methodDecoded": true,
                    "operation": "CALL",
                    "output": "0x0000000000000000000000000000000000000000000000000000000000000020000000000000000000000000000000000000000000000000000000000000004000000000000000000000000000000000000000000000005f38b88555795aa38c0000000000000000000000000000000000000000000000000004294f2b7ab956",
                    "revert": false,
                    "revertMessage": "",
                    "selector": "0x78e111f6",
                    "status": true,
                    "value": "0.000000000006336784"
                },
                "nodeType": 0
            },
            "1": {
                "invocation": {
                    "address": "0x2c6e668d3a4b25c557ce40b134a65eb36cfc2229",
                    "callData": "0x0000000000000000000000008c1c499b1796d7f3c2521ac37186b52de024e58c00000000000000000000000031c8eacbffdd875c74b94b077895bd78cf1e64a3000000000000000000000000a0b86991c6218b36c1d19d4a2e9eb0ce3606eb480000000000000000000000000000000000000000000000018630db60f98b20000000000000000000000000000000000000000000000014cd2ada188eec000000000000000000000000000000000000000000000002611e7ea4c17ee0000000000000000000000000000000000000000000000000000000000003aaf934ad8e600000000000000000000000000000000000000000000000000001881412bf419c0000000000000000000000000000000000000000000000000000000066d97ab37f00000000000000000000000000000000000000000000000000000000000000",
                    "decodedMethod": null,
                    "errorInfo": "",
                    "fromAddress": "0xa69babef1ca67a37ffaf7a485dfff3382056e78c",
                    "gasUsed": 95994,
                    "id": 1,
                    "methodDecoded": false,
                    "operation": "DELEGATECALL",
                    "output": "0x00000000000000000000000000000000000000000000005f38b88555795aa38c0000000000000000000000000000000000000000000000000004294f2b7ab956",
                    "revert": false,
                    "revertMessage": "",
                    "selector": "0x70aa0dfe",
                    "status": true,
                    "value": "0.000000000006336784"
                },
                "nodeType": 0
            },
            "10": {
                "event": {
                    "contract": "0xa0b86991c6218b36c1d19d4a2e9eb0ce3606eb48",
                    "decodedLog": {
                        "name": "Transfer",
                        "params": [
                            {
                                "name": "from",
                                "type": "address",
                                "value": "0x8c1c499b1796d7f3c2521ac37186b52de024e58c"
                            },
                            {
                                "name": "to",
                                "type": "address",
                                "value": "0xa69babef1ca67a37ffaf7a485dfff3382056e78c"
                            },
                            {
                                "decimalAvailable": true,
                                "name": "value",
                                "type": "uint256",
                                "value": "1,816,265,997"
                            }
                        ],
                        "signature": "Transfer(address,address,uint256)"
                    },
                    "id": 10,
                    "logData": "0x000000000000000000000000000000000000000000000000000000006c42050d",
                    "logDecoded": true,
                    "operation": "EVENT",
                    "revert": false,
                    "status": true,
                    "topics": [
                        "0xddf252ad1be2c89b69c2b068fc378daa952ba7f163c4a11628f55a4df523b3ef",
                        "0x0000000000000000000000008c1c499b1796d7f3c2521ac37186b52de024e58c",
                        "0x000000000000000000000000a69babef1ca67a37ffaf7a485dfff3382056e78c"
                    ]
                },
                "nodeType": 1
            },
            "11": {
                "invocation": {
                    "address": "0x31c8eacbffdd875c74b94b077895bd78cf1e64a3",
                    "callData": "0x0000000000000000000000008c1c499b1796d7f3c2521ac37186b52de024e58c",
                    "decodedMethod": {
                        "callParams": [
                            {
                                "name": "account",
                                "type": "address",
                                "value": "0x8c1c499b1796d7f3c2521ac37186b52de024e58c"
                            }
                        ],
                        "constructorArguments": "",
                        "name": "balanceOf",
                        "returnParams": [
                            {
                                "decimalAvailable": true,
                                "name": "",
                                "type": "uint256",
                                "value": "1,683,465,102,320,174,919,152,404"
                            }
                        ],
                        "signature": "balanceOf(address)"
                    },
                    "errorInfo": "",
                    "fromAddress": "0x8c1c499b1796d7f3c2521ac37186b52de024e58c",
                    "gasUsed": 708,
                    "id": 11,
                    "methodDecoded": true,
                    "operation": "STATICCALL",
                    "output": "0x00000000000000000000000000000000000000000001647cd378cbd1d1ed7314",
                    "revert": false,
                    "revertMessage": "",
                    "selector": "0x70a08231",
                    "status": true,
                    "value": "0"
                },
                "nodeType": 0
            },
            "12": {
                "invocation": {
                    "address": "0xa0b86991c6218b36c1d19d4a2e9eb0ce3606eb48",
                    "callData": "0x0000000000000000000000008c1c499b1796d7f3c2521ac37186b52de024e58c",
                    "decodedMethod": {
                        "callParams": [
                            {
                                "name": "account",
                                "type": "address",
                                "value": "0x8c1c499b1796d7f3c2521ac37186b52de024e58c"
                            }
                        ],
                        "constructorArguments": "",
                        "name": "balanceOf",
                        "returnParams": [
                            {
                                "decimalAvailable": true,
                                "name": "",
                                "type": "uint256",
                                "value": "1,744,134,580,247"
                            }
                        ],
                        "signature": "balanceOf(address)"
                    },
                    "errorInfo": "",
                    "fromAddress": "0x8c1c499b1796d7f3c2521ac37186b52de024e58c",
                    "gasUsed": 1339,
                    "id": 12,
                    "methodDecoded": true,
                    "operation": "STATICCALL",
                    "output": "0x000000000000000000000000000000000000000000000000000001961685a817",
                    "revert": false,
                    "revertMessage": "",
                    "selector": "0x70a08231",
                    "status": true,
                    "value": "0"
                },
                "nodeType": 0
            },
            "13": {
                "invocation": {
                    "address": "0x43506849d7c04f9138d1a2050bbf3a0c054402dd",
                    "callData": "0x0000000000000000000000008c1c499b1796d7f3c2521ac37186b52de024e58c",
                    "decodedMethod": {
                        "callParams": [
                            {
                                "name": "account",
                                "type": "address",
                                "value": "0x8c1c499b1796d7f3c2521ac37186b52de024e58c"
                            }
                        ],
                        "constructorArguments": "",
                        "name": "balanceOf",
                        "returnParams": [
                            {
                                "decimalAvailable": true,
                                "name": "",
                                "type": "uint256",
                                "value": "1,744,134,580,247"
                            }
                        ],
                        "signature": "balanceOf(address)"
                    },
                    "errorInfo": "",
                    "fromAddress": "0xa0b86991c6218b36c1d19d4a2e9eb0ce3606eb48",
                    "gasUsed": 553,
                    "id": 13,
                    "methodDecoded": true,
                    "operation": "DELEGATECALL",
                    "output": "0x000000000000000000000000000000000000000000000000000001961685a817",
                    "revert": false,
                    "revertMessage": "",
                    "selector": "0x70a08231",
                    "status": true,
                    "value": "0"
                },
                "nodeType": 0
            },
            "14": {
                "event": {
                    "contract": "0x8c1c499b1796d7f3c2521ac37186b52de024e58c",
                    "decodedLog": {
                        "name": "Sync",
                        "params": [
                            {
                                "name": "reserve0",
                                "type": "uint112",
                                "value": "1,683,465,102,320,174,919,152,404"
                            },
                            {
                                "name": "reserve1",
                                "type": "uint112",
                                "value": "1,744,134,580,247"
                            }
                        ],
                        "signature": "Sync(uint112,uint112)"
                    },
                    "id": 14,
                    "logData": "0x00000000000000000000000000000000000000000001647cd378cbd1d1ed7314000000000000000000000000000000000000000000000000000001961685a817",
                    "logDecoded": true,
                    "operation": "EVENT",
                    "revert": false,
                    "status": true,
                    "topics": [
                        "0x1c411e9a96e071241c2f21f7726b17ae89e3cab4c78be50e062b03a9fffbbad1"
                    ]
                },
                "nodeType": 1
            },
            "15": {
                "event": {
                    "contract": "0x8c1c499b1796d7f3c2521ac37186b52de024e58c",
                    "decodedLog": {
                        "name": "Swap",
                        "params": [
                            {
                                "name": "sender",
                                "type": "address",
                                "value": "0xa69babef1ca67a37ffaf7a485dfff3382056e78c"
                            },
                            {
                                "name": "to",
                                "type": "address",
                                "value": "0xa69babef1ca67a37ffaf7a485dfff3382056e78c"
                            },
                            {
                                "name": "amount0In",
                                "type": "uint256",
                                "value": "1,756,527,850,266,400,826,252"
                            },
                            {
                                "name": "amount1In",
                                "type": "uint256",
                                "value": "0"
                            },
                            {
                                "name": "amount0Out",
                                "type": "uint256",
                                "value": "0"
                            },
                            {
                                "name": "amount1Out",
                                "type": "uint256",
                                "value": "1,816,265,997"
                            }
                        ],
                        "signature": "Swap(address,uint256,uint256,uint256,uint256,address)"
                    },
                    "id": 15,
                    "logData": "0x00000000000000000000000000000000000000000000005f38b88555795aa38c00000000000000000000000000000000000000000000000000000000000000000000000000000000000000000000000000000000000000000000000000000000000000000000000000000000000000000000000000000000000000006c42050d",
                    "logDecoded": true,
                    "operation": "EVENT",
                    "revert": false,
                    "status": true,
                    "topics": [
                        "0xd78ad95fa46c994b6551d0da85fc275fe613ce37657fb8d5e3d130840159d822",
                        "0x000000000000000000000000a69babef1ca67a37ffaf7a485dfff3382056e78c",
                        "0x000000000000000000000000a69babef1ca67a37ffaf7a485dfff3382056e78c"
                    ]
                },
                "nodeType": 1
            },
            "2": {
                "invocation": {
                    "address": "0x8c1c499b1796d7f3c2521ac37186b52de024e58c",
                    "callData": "0x",
                    "decodedMethod": {
                        "callParams": [],
                        "constructorArguments": "",
                        "name": "token0",
                        "returnParams": [
                            {
                                "name": "",
                                "type": "address",
                                "value": "0x31c8eacbffdd875c74b94b077895bd78cf1e64a3"
                            }
                        ],
                        "signature": "token0()"
                    },
                    "errorInfo": "",
                    "fromAddress": "0xa69babef1ca67a37ffaf7a485dfff3382056e78c",
                    "gasUsed": 2381,
                    "id": 2,
                    "methodDecoded": true,
                    "operation": "CALL",
                    "output": "0x00000000000000000000000031c8eacbffdd875c74b94b077895bd78cf1e64a3",
                    "revert": false,
                    "revertMessage": "",
                    "selector": "0x0dfe1681",
                    "status": true,
                    "value": "0"
                },
                "nodeType": 0
            },
            "3": {
                "invocation": {
                    "address": "0x8c1c499b1796d7f3c2521ac37186b52de024e58c",
                    "callData": "0x",
                    "decodedMethod": {
                        "callParams": [],
                        "constructorArguments": "",
                        "name": "getReserves",
                        "returnParams": [
                            {
                                "name": "_reserve0",
                                "type": "uint112",
                                "value": "1,681,708,574,469,908,518,326,152"
                            },
                            {
                                "name": "_reserve1",
                                "type": "uint112",
                                "value": "1,745,950,846,244"
                            },
                            {
                                "name": "_blockTimestampLast",
                                "type": "uint32",
                                "value": "1,725,528,743"
                            }
                        ],
                        "signature": "getReserves()"
                    },
                    "errorInfo": "",
                    "fromAddress": "0xa69babef1ca67a37ffaf7a485dfff3382056e78c",
                    "gasUsed": 2504,
                    "id": 3,
                    "methodDecoded": true,
                    "operation": "CALL",
                    "output": "0x00000000000000000000000000000000000000000001641d9ac0467c5892cf880000000000000000000000000000000000000000000000000000019682c7ad240000000000000000000000000000000000000000000000000000000066d97aa7",
                    "revert": false,
                    "revertMessage": "",
                    "selector": "0x0902f1ac",
                    "status": true,
                    "value": "0"
                },
                "nodeType": 0
            },
            "4": {
                "invocation": {
                    "address": "0x31c8eacbffdd875c74b94b077895bd78cf1e64a3",
                    "callData": "0x000000000000000000000000a69babef1ca67a37ffaf7a485dfff3382056e78c",
                    "decodedMethod": {
                        "callParams": [
                            {
                                "name": "account",
                                "type": "address",
                                "value": "0xa69babef1ca67a37ffaf7a485dfff3382056e78c"
                            }
                        ],
                        "constructorArguments": "",
                        "name": "balanceOf",
                        "returnParams": [
                            {
                                "decimalAvailable": true,
                                "name": "",
                                "type": "uint256",
                                "value": "71,045,466,003,606,414,412,814"
                            }
                        ],
                        "signature": "balanceOf(address)"
                    },
                    "errorInfo": "",
                    "fromAddress": "0xa69babef1ca67a37ffaf7a485dfff3382056e78c",
                    "gasUsed": 2708,
                    "id": 4,
                    "methodDecoded": true,
                    "operation": "CALL",
                    "output": "0x000000000000000000000000000000000000000000000f0b61e6e344cb55cc0e",
                    "revert": false,
                    "revertMessage": "",
                    "selector": "0x70a08231",
                    "status": true,
                    "value": "0"
                },
                "nodeType": 0
            },
            "5": {
                "invocation": {
                    "address": "0x31c8eacbffdd875c74b94b077895bd78cf1e64a3",
                    "callData": "0x0000000000000000000000008c1c499b1796d7f3c2521ac37186b52de024e58c00000000000000000000000000000000000000000000005f38b88555795aa38c",
                    "decodedMethod": {
                        "callParams": [
                            {
                                "name": "dst",
                                "type": "address",
                                "value": "0x8c1c499b1796d7f3c2521ac37186b52de024e58c"
                            },
                            {
                                "decimalAvailable": true,
                                "name": "rawAmount",
                                "type": "uint256",
                                "value": "1,756,527,850,266,400,826,252"
                            }
                        ],
                        "constructorArguments": "",
                        "name": "transfer",
                        "returnParams": [
                            {
                                "name": "",
                                "type": "bool",
                                "value": true
                            }
                        ],
                        "signature": "transfer(address,uint256)"
                    },
                    "errorInfo": "",
                    "fromAddress": "0xa69babef1ca67a37ffaf7a485dfff3382056e78c",
                    "gasUsed": 16301,
                    "id": 5,
                    "methodDecoded": true,
                    "operation": "CALL",
                    "output": "0x0000000000000000000000000000000000000000000000000000000000000001",
                    "revert": false,
                    "revertMessage": "",
                    "selector": "0xa9059cbb",
                    "status": true,
                    "value": "0"
                },
                "nodeType": 0
            },
            "6": {
                "event": {
                    "contract": "0x31c8eacbffdd875c74b94b077895bd78cf1e64a3",
                    "decodedLog": {
                        "name": "Transfer",
                        "params": [
                            {
                                "name": "from",
                                "type": "address",
                                "value": "0xa69babef1ca67a37ffaf7a485dfff3382056e78c"
                            },
                            {
                                "name": "to",
                                "type": "address",
                                "value": "0x8c1c499b1796d7f3c2521ac37186b52de024e58c"
                            },
                            {
                                "decimalAvailable": true,
                                "name": "amount",
                                "type": "uint256",
                                "value": "1,756,527,850,266,400,826,252"
                            }
                        ],
                        "signature": "Transfer(address,address,uint256)"
                    },
                    "id": 6,
                    "logData": "0x00000000000000000000000000000000000000000000005f38b88555795aa38c",
                    "logDecoded": true,
                    "operation": "EVENT",
                    "revert": false,
                    "status": true,
                    "topics": [
                        "0xddf252ad1be2c89b69c2b068fc378daa952ba7f163c4a11628f55a4df523b3ef",
                        "0x000000000000000000000000a69babef1ca67a37ffaf7a485dfff3382056e78c",
                        "0x0000000000000000000000008c1c499b1796d7f3c2521ac37186b52de024e58c"
                    ]
                },
                "nodeType": 1
            },
            "7": {
                "invocation": {
                    "address": "0x8c1c499b1796d7f3c2521ac37186b52de024e58c",
                    "callData": "0x0000000000000000000000000000000000000000000000000000000000000000000000000000000000000000000000000000000000000000000000006c42050d000000000000000000000000a69babef1ca67a37ffaf7a485dfff3382056e78c00000000000000000000000000000000000000000000000000000000000000800000000000000000000000000000000000000000000000000000000000000000",
                    "decodedMethod": {
                        "callParams": [
                            {
                                "name": "amount0Out",
                                "type": "uint256",
                                "value": "0"
                            },
                            {
                                "name": "amount1Out",
                                "type": "uint256",
                                "value": "1,816,265,997"
                            },
                            {
                                "name": "to",
                                "type": "address",
                                "value": "0xa69babef1ca67a37ffaf7a485dfff3382056e78c"
                            },
                            {
                                "name": "data",
                                "type": "bytes",
                                "value": "0x"
                            }
                        ],
                        "constructorArguments": "",
                        "name": "swap",
                        "returnParams": [],
                        "signature": "swap(uint256,uint256,address,bytes)"
                    },
                    "errorInfo": "",
                    "fromAddress": "0xa69babef1ca67a37ffaf7a485dfff3382056e78c",
                    "gasUsed": 57422,
                    "id": 7,
                    "methodDecoded": true,
                    "operation": "CALL",
                    "output": "",
                    "revert": false,
                    "revertMessage": "",
                    "selector": "0x022c0d9f",
                    "status": true,
                    "value": "0"
                },
                "nodeType": 0
            },
            "8": {
                "invocation": {
                    "address": "0xa0b86991c6218b36c1d19d4a2e9eb0ce3606eb48",
                    "callData": "0x000000000000000000000000a69babef1ca67a37ffaf7a485dfff3382056e78c000000000000000000000000000000000000000000000000000000006c42050d",
                    "decodedMethod": {
                        "callParams": [
                            {
                                "name": "to",
                                "type": "address",
                                "value": "0xa69babef1ca67a37ffaf7a485dfff3382056e78c"
                            },
                            {
                                "decimalAvailable": true,
                                "name": "value",
                                "type": "uint256",
                                "value": "1,816,265,997"
                            }
                        ],
                        "constructorArguments": "",
                        "name": "transfer",
                        "returnParams": [
                            {
                                "name": "",
                                "type": "bool",
                                "value": true
                            }
                        ],
                        "signature": "transfer(address,uint256)"
                    },
                    "errorInfo": "",
                    "fromAddress": "0x8c1c499b1796d7f3c2521ac37186b52de024e58c",
                    "gasUsed": 23552,
                    "id": 8,
                    "methodDecoded": true,
                    "operation": "CALL",
                    "output": "0x0000000000000000000000000000000000000000000000000000000000000001",
                    "revert": false,
                    "revertMessage": "",
                    "selector": "0xa9059cbb",
                    "status": true,
                    "value": "0"
                },
                "nodeType": 0
            },
            "9": {
                "invocation": {
                    "address": "0x43506849d7c04f9138d1a2050bbf3a0c054402dd",
                    "callData": "0x000000000000000000000000a69babef1ca67a37ffaf7a485dfff3382056e78c000000000000000000000000000000000000000000000000000000006c42050d",
                    "decodedMethod": {
                        "callParams": [
                            {
                                "name": "to",
                                "type": "address",
                                "value": "0xa69babef1ca67a37ffaf7a485dfff3382056e78c"
                            },
                            {
                                "decimalAvailable": true,
                                "name": "value",
                                "type": "uint256",
                                "value": "1,816,265,997"
                            }
                        ],
                        "constructorArguments": "",
                        "name": "transfer",
                        "returnParams": [
                            {
                                "name": "",
                                "type": "bool",
                                "value": true
                            }
                        ],
                        "signature": "transfer(address,uint256)"
                    },
                    "errorInfo": "",
                    "fromAddress": "0xa0b86991c6218b36c1d19d4a2e9eb0ce3606eb48",
                    "gasUsed": 16263,
                    "id": 9,
                    "methodDecoded": true,
                    "operation": "DELEGATECALL",
                    "output": "0x0000000000000000000000000000000000000000000000000000000000000001",
                    "revert": false,
                    "revertMessage": "",
                    "selector": "0xa9059cbb",
                    "status": true,
                    "value": "0"
                },
                "nodeType": 0
            }
        },
        "gasFlame": [
            {
                "children": [
                    {
                        "children": [
                            {
                                "children": [],
                                "depth": 0,
                                "name": "Initial Gas",
                                "value": 24404
                            },
                            {
                                "children": [
                                    {
                                        "children": [
                                            {
                                                "children": [],
                                                "depth": 2,
                                                "name": "token0",
                                                "value": 2381
                                            },
                                            {
                                                "children": [],
                                                "depth": 2,
                                                "name": "getReserves",
                                                "value": 2504
                                            },
                                            {
                                                "children": [],
                                                "depth": 2,
                                                "name": "balanceOf",
                                                "value": 2708
                                            },
                                            {
                                                "children": [],
                                                "depth": 2,
                                                "name": "transfer",
                                                "value": 16301
                                            },
                                            {
                                                "children": [
                                                    {
                                                        "children": [
                                                            {
                                                                "children": [],
                                                                "depth": 4,
                                                                "name": "transfer",
                                                                "value": 16263
                                                            }
                                                        ],
                                                        "depth": 3,
                                                        "name": "transfer",
                                                        "value": 23552
                                                    },
                                                    {
                                                        "children": [],
                                                        "depth": 3,
                                                        "name": "balanceOf",
                                                        "value": 708
                                                    },
                                                    {
                                                        "children": [
                                                            {
                                                                "children": [],
                                                                "depth": 4,
                                                                "name": "balanceOf",
                                                                "value": 553
                                                            }
                                                        ],
                                                        "depth": 3,
                                                        "name": "balanceOf",
                                                        "value": 1339
                                                    }
                                                ],
                                                "depth": 2,
                                                "name": "swap",
                                                "value": 57422
                                            }
                                        ],
                                        "depth": 1,
                                        "name": "0x70aa0dfe",
                                        "value": 95994
                                    }
                                ],
                                "depth": 0,
                                "name": "Executed Gas",
                                "value": 100361
                            }
                        ],
                        "depth": -1,
                        "name": "Actual Gas Used",
                        "value": 121965
                    },
                    {
                        "children": [],
                        "depth": -1,
                        "name": "Refunded Gas",
                        "value": 2800
                    }
                ],
                "depth": -2,
                "name": "Total Gas",
                "value": 124765
            }
        ],
        "isConfirmed": true,
        "mainTrace": [
            {
                "children": [
                    {
                        "children": [
                            {
                                "children": [
                                    {
                                        "children": [],
                                        "depth": 2,
                                        "id": 2,
                                        "order": 2
                                    },
                                    {
                                        "children": [],
                                        "depth": 2,
                                        "id": 3,
                                        "order": 3
                                    },
                                    {
                                        "children": [],
                                        "depth": 2,
                                        "id": 4,
                                        "order": 4
                                    },
                                    {
                                        "children": [
                                            {
                                                "children": [],
                                                "depth": 3,
                                                "id": 6,
                                                "order": 6
                                            }
                                        ],
                                        "depth": 2,
                                        "id": 5,
                                        "order": 5
                                    },
                                    {
                                        "children": [
                                            {
                                                "children": [
                                                    {
                                                        "children": [
                                                            {
                                                                "children": [],
                                                                "depth": 5,
                                                                "id": 10,
                                                                "order": 10
                                                            }
                                                        ],
                                                        "depth": 4,
                                                        "id": 9,
                                                        "order": 9
                                                    }
                                                ],
                                                "depth": 3,
                                                "id": 8,
                                                "order": 8
                                            },
                                            {
                                                "children": [],
                                                "depth": 3,
                                                "id": 11,
                                                "order": 11
                                            },
                                            {
                                                "children": [
                                                    {
                                                        "children": [],
                                                        "depth": 4,
                                                        "id": 13,
                                                        "order": 13
                                                    }
                                                ],
                                                "depth": 3,
                                                "id": 12,
                                                "order": 12
                                            },
                                            {
                                                "children": [],
                                                "depth": 3,
                                                "id": 14,
                                                "order": 14
                                            },
                                            {
                                                "children": [],
                                                "depth": 3,
                                                "id": 15,
                                                "order": 15
                                            }
                                        ],
                                        "depth": 2,
                                        "id": 7,
                                        "order": 7
                                    }
                                ],
                                "depth": 1,
                                "id": 1,
                                "order": 1
                            }
                        ],
                        "depth": 0,
                        "id": 0,
                        "order": 0
                    }
                ],
                "depth": -1,
                "id": -1,
                "order": -1
            }
        ],
        "mainTraceNodeCount": 16,
        "parentIdMap": {
            "0": -1,
            "1": 0,
            "10": 9,
            "11": 7,
            "12": 7,
            "13": 12,
            "14": 7,
            "15": 7,
            "2": 1,
            "3": 1,
            "4": 1,
            "5": 1,
            "6": 5,
            "7": 1,
            "8": 7,
            "9": 8
        },
        "tidyTrace": [
            {
                "children": [
                    {
                        "children": [
                            {
                                "children": [
                                    {
                                        "children": [],
                                        "depth": 2,
                                        "id": 2,
                                        "order": 2
                                    },
                                    {
                                        "children": [],
                                        "depth": 2,
                                        "id": 3,
                                        "order": 3
                                    },
                                    {
                                        "children": [],
                                        "depth": 2,
                                        "id": 4,
                                        "order": 4
                                    },
                                    {
                                        "children": [
                                            {
                                                "children": [],
                                                "depth": 3,
                                                "id": 6,
                                                "order": 6
                                            }
                                        ],
                                        "depth": 2,
                                        "id": 5,
                                        "order": 5
                                    },
                                    {
                                        "children": [
                                            {
                                                "children": [
                                                    {
                                                        "children": [
                                                            {
                                                                "children": [],
                                                                "depth": 5,
                                                                "id": 10,
                                                                "order": 10
                                                            }
                                                        ],
                                                        "depth": 4,
                                                        "id": 9,
                                                        "order": 9
                                                    }
                                                ],
                                                "depth": 3,
                                                "id": 8,
                                                "order": 8
                                            },
                                            {
                                                "children": [],
                                                "depth": 3,
                                                "id": 14,
                                                "order": 14
                                            },
                                            {
                                                "children": [],
                                                "depth": 3,
                                                "id": 15,
                                                "order": 15
                                            }
                                        ],
                                        "depth": 2,
                                        "id": 7,
                                        "order": 7
                                    }
                                ],
                                "depth": 1,
                                "id": 1,
                                "order": 1
                            }
                        ],
                        "depth": 0,
                        "id": 0,
                        "order": 0
                    }
                ],
                "depth": -1,
                "id": -1,
                "order": -1
            }
        ],
        "tidyTraceNodeCount": 13
    },
    "state_change": {
        "stateChanges": [
            {
                "address": "0x31c8eacbffdd875c74b94b077895bd78cf1e64a3",
                "erc": "ERC-20",
                "slots": [
                    {
                        "current": "0x000000000000000000000000000000000000000000000eac292e5def51fb2882",
                        "key": "0x35d7fb7665514f774d2c2df607e197eb8674b6e63d2638472758647a2e67406a",
                        "prev": "0x000000000000000000000000000000000000000000000f0b61e6e344cb55cc0e"
                    },
                    {
                        "current": "0x00000000000000000000000000000000000000000001647cd378cbd1d1ed7314",
                        "key": "0xcf746b6d5cec2b9f7dfd9f0b15f2e96419b6579cc2f8d363cfa5fba55dd6138d",
                        "prev": "0x00000000000000000000000000000000000000000001641d9ac0467c5892cf88"
                    }
                ],
                "storageVariables": [
                    {
                        "name": "balances",
                        "type": "mapping(address => uint96)",
                        "value": {
                            "pairs": [
                                {
                                    "key": "0x8c1c499b1796d7f3c2521ac37186b52de024e58c",
                                    "value": {
                                        "current": "1683465102320174919152404",
                                        "prev": "1681708574469908518326152",
                                        "typeTag": 1
                                    }
                                },
                                {
                                    "key": "0xa69babef1ca67a37ffaf7a485dfff3382056e78c",
                                    "value": {
                                        "current": "69288938153340013586562",
                                        "prev": "71045466003606414412814",
                                        "typeTag": 1
                                    }
                                }
                            ],
                            "typeTag": 4
                        }
                    }
                ]
            },
            {
                "address": "0x8c1c499b1796d7f3c2521ac37186b52de024e58c",
                "erc": "ERC-20",
                "slots": [
                    {
                        "current": "0x66d97ab3000000000000000001961685a81700000001647cd378cbd1d1ed7314",
                        "key": "0x0000000000000000000000000000000000000000000000000000000000000008",
                        "prev": "0x66d97aa70000000000000000019682c7ad2400000001641d9ac0467c5892cf88"
                    },
                    {
                        "current": "0x000000000000000000000000000000000000001e1b5306b1818ef78ca8998597",
                        "key": "0x0000000000000000000000000000000000000000000000000000000000000009",
                        "prev": "0x000000000000000000000000000000000000001e1b52f8fec6b669ee6fbe15e3"
                    },
                    {
                        "current": "0x000000000000000000029e347e44fd5bee968016c6db4b2a2a1d2bbbe2a77c87",
                        "key": "0x000000000000000000000000000000000000000000000000000000000000000a",
                        "prev": "0x000000000000000000029e3473c1d375fe71b05296f7afcd554791908388bdd7"
                    }
                ],
                "storageVariables": [
                    {
                        "name": "price1CumulativeLast",
                        "type": "uint256",
                        "value": {
                            "current": "250753479791496163959735667503312846418832660076395655",
                            "prev": "250753419776540987122746050994222997031296136490040791",
                            "typeTag": 1
                        }
                    },
                    {
                        "name": "reserve0",
                        "type": "uint112",
                        "value": {
                            "current": "1683465102320174919152404",
                            "prev": "1681708574469908518326152",
                            "typeTag": 1
                        }
                    },
                    {
                        "name": "reserve1",
                        "type": "uint112",
                        "value": {
                            "current": "1744134580247",
                            "prev": "1745950846244",
                            "typeTag": 1
                        }
                    },
                    {
                        "name": "blockTimestampLast",
                        "type": "uint32",
                        "value": {
                            "current": "1725528755",
                            "prev": "1725528743",
                            "typeTag": 1
                        }
                    },
                    {
                        "name": "price0CumulativeLast",
                        "type": "uint256",
                        "value": {
                            "current": "2385301343144742728408931861911",
                            "prev": "2385301278456994339186521544163",
                            "typeTag": 1
                        }
                    }
                ]
            },
            {
                "address": "0xa0b86991c6218b36c1d19d4a2e9eb0ce3606eb48",
                "erc": "ERC-20",
                "slots": [
                    {
                        "current": "0x000000000000000000000000000000000000000000000000000001961685a817",
                        "key": "0xb15b9e9463a1e308fbb97f7bf344342bc5591e807803b10834f02966e7765269",
                        "prev": "0x0000000000000000000000000000000000000000000000000000019682c7ad24"
                    },
                    {
                        "current": "0x00000000000000000000000000000000000000000000000000001096ea61b22e",
                        "key": "0xf56408d23e6790fec5453738cf042a4a3ef7ec36e9ceae8978e4ffce8e903bc3",
                        "prev": "0x000000000000000000000000000000000000000000000000000010967e1fad21"
                    }
                ],
                "storageVariables": [
                    {
                        "name": "balanceAndBlacklistStates",
                        "type": "mapping(address => uint256)",
                        "value": {
                            "pairs": [
                                {
                                    "key": "0x8c1c499b1796d7f3c2521ac37186b52de024e58c",
                                    "value": {
                                        "current": "1744134580247",
                                        "prev": "1745950846244",
                                        "typeTag": 1
                                    }
                                },
                                {
                                    "key": "0xa69babef1ca67a37ffaf7a485dfff3382056e78c",
                                    "value": {
                                        "current": "18240363409966",
                                        "prev": "18238547143969",
                                        "typeTag": 1
                                    }
                                }
                            ],
                            "typeTag": 4
                        }
                    }
                ]
            }
        ]
    }
}