{
    "balance_change": {
        "balanceChanges": [
            {
                "account": "0x93a02707c2461e10acc5f4b7f206450e9d0d854d",
                "assets": [
                    {
                        "address": "0xf85feea2fdd81d51177f6b8f35f0e6734ce45f5f",
                        "amount": "16,235.668",
                        "iconUrl": "https://assets.blocksec.com/icon/4fc835ba2e85a0cb40886f597e91c3c6168f89681325b41a52afe7dc464d34af.png",
                        "isERC1155": false,
                        "isERC721": false,
                        "sign": false,
                        "value": ""
                    }
                ]
            },
            {
                "account": "0x1511972a4e9a6b90566e930ba7cdb3d8996d3c8c",
                "assets": [
                    {
                        "address": "0xf85feea2fdd81d51177f6b8f35f0e6734ce45f5f",
                        "amount": "16,235.668",
                        "iconUrl": "https://assets.blocksec.com/icon/4fc835ba2e85a0cb40886f597e91c3c6168f89681325b41a52afe7dc464d34af.png",
                        "isERC1155": false,
                        "isERC721": false,
                        "sign": true,
                        "value": ""
                    }
                ]
            }
        ]
    },
    "profile": {
        "basic_info": {
            "baseFee": "",
            "blockNumber": 5478430,
            "callData": "0xa9059cbb0000000000000000000000001511972a4e9a6b90566e930ba7cdb3d8996d3c8c0000000000000000000000000000000000000000000003702327c9be88c20000",
            "debugEnable": true,
            "errorInfo": "",
            "eventCount": 1,
            "feeRecipient": "0xea674fdde714fd979de3edf0f56aa9716b898ec8",
            "formatValue": "0",
            "gasLimit": 52611,
            "gasPrice": "5",
            "gasUsed": 37611,
            "intTxnCount": 0,
            "internalRevert": false,
            "internalRevertMessage": "",
            "isContractCreation": false,
            "isFlashloan": false,
            "maxFee": "",
            "nonce": 0,
            "overwritedBlockNumber": -1,
            "priorityFee": "",
            "receiver": "0xf85feea2fdd81d51177f6b8f35f0e6734ce45f5f",
            "revertMessage": "",
            "sender": "0x93a02707c2461e10acc5f4b7f206450e9d0d854d",
            "simulationEnable": true,
            "sourceTxnHash": "0x2ce6f45242dcb9c14081f6929b7e146aa11f26939895c211e38f707ea9233dc5",
            "status": true,
            "timestamp": "2018-04-21T06:08:36Z",
            "transactionFee": "0.000188055",
            "txnHash": "0x2ce6f45242dcb9c14081f6929b7e146aa11f26939895c211e38f707ea9233dc5",
            "txnIndex": 28,
            "type": 0,
            "value": "0"
        },
        "fund_flow": [
            {
                "amount": "16,235.668",
                "from": "0x93a02707c2461e10acc5f4b7f206450e9d0d854d",
                "id": 1,
                "isERC1155": false,
                "isERC721": false,
                "isReverted": false,
                "order": 1,
                "to": "0x1511972a4e9a6b90566e930ba7cdb3d8996d3c8c",
                "token": "0xf85feea2fdd81d51177f6b8f35f0e6734ce45f5f"
            }
        ],
        "token_infos": [
            {
                "address": "0xf85feea2fdd81d51177f6b8f35f0e6734ce45f5f",
                "decimals": 18
            },
            {
                "address": "0xeeeeeeeeeeeeeeeeeeeeeeeeeeeeeeeeeeeeeeee",
                "decimals": 18
            },
            {
                "address": "0xc02aaa39b223fe8d0a0e5c4f27ead9083c756cc2",
                "decimals": 18
            }
        ]
    },
    "address_label": {
        "labels": [
            {
                "address": "0x0000000000000000000000000000000000000003",
                "label": "Precompiled"
            },
            {
                "address": "0x0000000000000000000000000000000000000004",
                "label": "Precompiled"
            },
            {
                "address": "0xeeeeeeeeeeeeeeeeeeeeeeeeeeeeeeeeeeeeeeee",
                "label": "Ether"
            },
            {
                "address": "0x1511972a4e9a6b90566e930ba7cdb3d8996d3c8c",
                "label": "OKEX"
            },
            {
                "address": "0xf85feea2fdd81d51177f6b8f35f0e6734ce45f5f",
                "label": "CyberMiles: Old Token"
            },
            {
                "address": "0x0000000000000000000000000000000000000001",
                "label": "Precompiled"
            },
            {
                "address": "0x0000000000000000000000000000000000000002",
                "label": "Precompiled"
            }
        ]
    },
    "trace": {
        "accountLabels": null,
        "dataMap": {
            "-1": {
                "invocation": {
                    "address": "0x93a02707c2461e10acc5f4b7f206450e9d0d854d",
                    "callData": "",
                    "decodedMethod": null,
                    "errorInfo": "",
                    "fromAddress": "",
                    "gasUsed": 0,
                    "id": -1,
                    "methodDecoded": false,
                    "operation": "",
                    "output": "",
                    "revert": false,
                    "revertMessage": "",
                    "selector": "",
                    "status": false,
                    "value": ""
                },
                "nodeType": 0
            },
            "0": {
                "invocation": {
                    "address": "0xf85feea2fdd81d51177f6b8f35f0e6734ce45f5f",
                    "callData": "0x0000000000000000000000001511972a4e9a6b90566e930ba7cdb3d8996d3c8c0000000000000000000000000000000000000000000003702327c9be88c20000",
                    "decodedMethod": {
                        "callParams": [
                            {
                                "name": "_to",
                                "type": "address",
                                "value": "0x1511972a4e9a6b90566e930ba7cdb3d8996d3c8c"
                            },
                            {
                                "decimalAvailable": true,
                                "name": "_value",
                                "type": "uint256",
                                "value": "16,235,668,000,000,000,000,000"
                            }
                        ],
                        "constructorArguments": "",
                        "name": "transfer",
                        "returnParams": [
                            {
                                "name": "",
                                "type": "bool",
                                "value": true
                            }
                        ],
                        "signature": "transfer(address,uint256)"
                    },
                    "errorInfo": "",
                    "fromAddress": "0x93a02707c2461e10acc5f4b7f206450e9d0d854d",
                    "gasUsed": 37611,
                    "id": 0,
                    "methodDecoded": true,
                    "operation": "CALL",
                    "output": "0x0000000000000000000000000000000000000000000000000000000000000001",
                    "revert": false,
                    "revertMessage": "",
                    "selector": "0xa9059cbb",
                    "status": true,
                    "value": "0"
                },
                "nodeType": 0
            },
            "1": {
                "event": {
                    "contract": "0xf85feea2fdd81d51177f6b8f35f0e6734ce45f5f",
                    "decodedLog": {
                        "name": "Transfer",
                        "params": [
                            {
                                "name": "from",
                                "type": "address",
                                "value": "0x93a02707c2461e10acc5f4b7f206450e9d0d854d"
                            },
                            {
                                "name": "to",
                                "type": "address",
                                "value": "0x1511972a4e9a6b90566e930ba7cdb3d8996d3c8c"
                            },
                            {
                                "decimalAvailable": true,
                                "name": "value",
                                "type": "uint256",
                                "value": "16,235,668,000,000,000,000,000"
                            }
                        ],
                        "signature": "Transfer(address,address,uint256)"
                    },
                    "id": 1,
                    "logData": "0x0000000000000000000000000000000000000000000003702327c9be88c20000",
                    "logDecoded": true,
                    "operation": "EVENT",
                    "revert": false,
                    "status": true,
                    "topics": [
                        "0xddf252ad1be2c89b69c2b068fc378daa952ba7f163c4a11628f55a4df523b3ef",
                        "0x00000000000000000000000093a02707c2461e10acc5f4b7f206450e9d0d854d",
                        "0x0000000000000000000000001511972a4e9a6b90566e930ba7cdb3d8996d3c8c"
                    ]
                },
                "nodeType": 1
            }
        },
        "gasFlame": [
            {
                "children": [
                    {
                        "children": [
                            {
                                "children": [],
                                "depth": 0,
                                "name": "Initial Gas",
                                "value": 23320
                            },
                            {
                                "children": [],
                                "depth": 0,
                                "name": "Executed Gas",
                                "value": 29291
                            }
                        ],
                        "depth": -1,
                        "name": "Actual Gas Used",
                        "value": 37611
                    },
                    {
                        "children": [],
                        "depth": -1,
                        "name": "Refunded Gas",
                        "value": 15000
                    }
                ],
                "depth": -2,
                "name": "Total Gas",
                "value": 52611
            }
        ],
        "isConfirmed": true,
        "mainTrace": [
            {
                "children": [
                    {
                        "children": [
                            {
                                "children": [],
                                "depth": 1,
                                "id": 1,
                                "order": 1
                            }
                        ],
                        "depth": 0,
                        "id": 0,
                        "order": 0
                    }
                ],
                "depth": -1,
                "id": -1,
                "order": -1
            }
        ],
        "mainTraceNodeCount": 2,
        "parentIdMap": {
            "0": -1,
            "1": 0
        },
        "tidyTrace": [
            {
                "children": [
                    {
                        "children": [
                            {
                                "children": [],
                                "depth": 1,
                                "id": 1,
                                "order": 1
                            }
                        ],
                        "depth": 0,
                        "id": 0,
                        "order": 0
                    }
                ],
                "depth": -1,
                "id": -1,
                "order": -1
            }
        ],
        "tidyTraceNodeCount": 2
    },
    "state_change": {
        "stateChanges": [
            {
                "address": "0xf85feea2fdd81d51177f6b8f35f0e6734ce45f5f",
                "erc": "ERC-20",
                "slots": [
                    {
                        "current": "0x0000000000000000000000000000000000000000000000000000000000000000",
                        "key": "0xd394bdadeadb06c22cd347c517281b872846251867705d716de9f9c0fdca9425",
                        "prev": "0x0000000000000000000000000000000000000000000003702327c9be88c20000"
                    },
                    {
                        "current": "0x0000000000000000000000000000000000000000000003702327c9be88c20000",
                        "key": "0x9a3cf6cb192fd3983bd647c1f67ed9e331b76dc0250ed95114c272fb45f39cee",
                        "prev": "0x0000000000000000000000000000000000000000000000000000000000000000"
                    }
                ],
                "storageVariables": [
                    {
                        "name": "balances",
                        "type": "mapping(address => uint256)",
                        "value": {
                            "pairs": [
                                {
                                    "key": "0x1511972a4e9a6b90566e930ba7cdb3d8996d3c8c",
                                    "value": {
                                        "current": "16235668000000000000000",
                                        "prev": "0",
                                        "typeTag": 1
                                    }
                                },
                                {
                                    "key": "0x93a02707c2461e10acc5f4b7f206450e9d0d854d",
                                    "value": {
                                        "current": "0",
                                        "prev": "16235668000000000000000",
                                        "typeTag": 1
                                    }
                                }
                            ],
                            "typeTag": 4
                        }
                    }
                ]
            }
        ]
    }
}