{
    "balance_change": {
        "balanceChanges": [
            {
                "account": "0x51f1b15007235429d8a30a73f9669a4c7c0af2d1",
                "assets": [
                    {
                        "address": "0xeeeeeeeeeeeeeeeeeeeeeeeeeeeeeeeeeeeeeeee",
                        "amount": "0.048214179980885512",
                        "iconUrl": "https://assets.blocksec.com/image/1663669189317-3.png",
                        "isERC1155": false,
                        "isERC721": false,
                        "sign": true,
                        "value": "157.2158338"
                    },
                    {
                        "address": "0x9813037ee2218799597d83d4a5b6f3b6778218d9",
                        "amount": "250.039635400679132669",
                        "iconUrl": "",
                        "isERC1155": false,
                        "isERC721": false,
                        "sign": false,
                        "value": "157.2158338"
                    }
                ]
            },
            {
                "account": "0xc02aaa39b223fe8d0a0e5c4f27ead9083c756cc2",
                "assets": [
                    {
                        "address": "0xeeeeeeeeeeeeeeeeeeeeeeeeeeeeeeeeeeeeeeee",
                        "amount": "0.048214179980885512",
                        "iconUrl": "https://assets.blocksec.com/image/1663669189317-3.png",
                        "isERC1155": false,
                        "isERC721": false,
                        "sign": false,
                        "value": "157.2158338"
                    },
                    {
                        "address": "0xc02aaa39b223fe8d0a0e5c4f27ead9083c756cc2",
                        "amount": "0.048214179980885512",
                        "iconUrl": "https://assets.blocksec.com/icon/f1cb2d02c471d545bbc7722daf3277fd852d98e63d118771af7047bd8256c516.png",
                        "isERC1155": false,
                        "isERC721": false,
                        "sign": true,
                        "value": "157.2158338"
                    }
                ]
            },
            {
                "account": "0xefb47fcfcad4f96c83d4ca676842fb03ef20a477",
                "assets": [
                    {
                        "address": "0x9813037ee2218799597d83d4a5b6f3b6778218d9",
                        "amount": "250.039635400679132669",
                        "iconUrl": "",
                        "isERC1155": false,
                        "isERC721": false,
                        "sign": true,
                        "value": "157.2158338"
                    },
                    {
                        "address": "0xc02aaa39b223fe8d0a0e5c4f27ead9083c756cc2",
                        "amount": "0.048214179980885512",
                        "iconUrl": "https://assets.blocksec.com/icon/f1cb2d02c471d545bbc7722daf3277fd852d98e63d118771af7047bd8256c516.png",
                        "isERC1155": false,
                        "isERC721": false,
                        "sign": false,
                        "value": "157.2158338"
                    }
                ]
            }
        ]
    },
    "profile": {
        "basic_info": {
            "baseFee": "22.147781313",
            "blockNumber": 14555551,
            "callData": "0x18cbafe500000000000000000000000000000000000000000000000d8dff3ba151aa8dfd00000000000000000000000000000000000000000000000000aa70611cd550d300000000000000000000000000000000000000000000000000000000000000a000000000000000000000000051f1b15007235429d8a30a73f9669a4c7c0af2d100000000000000000000000000000000000000000000000000000000625251ae00000000000000000000000000000000000000000000000000000000000000020000000000000000000000009813037ee2218799597d83d4a5b6f3b6778218d9000000000000000000000000c02aaa39b223fe8d0a0e5c4f27ead9083c756cc2",
            "debugEnable": true,
            "errorInfo": "",
            "eventCount": 6,
            "feeRecipient": "0x52bc44d5378309ee2abf1539bf71de1b7d7be3b5",
            "formatValue": "0",
            "gasLimit": 153324,
            "gasPrice": "23.647781313",
            "gasUsed": 120408,
            "intTxnCount": 9,
            "internalRevert": false,
            "internalRevertMessage": "",
            "isContractCreation": false,
            "isFlashloan": false,
            "maxFee": "33.34434512",
            "nonce": 122,
            "overwritedBlockNumber": -1,
            "priorityFee": "1.5",
            "receiver": "0x03f7724180aa6b939894b5ca4314783b0b36b329",
            "revertMessage": "",
            "sender": "0x51f1b15007235429d8a30a73f9669a4c7c0af2d1",
            "simulationEnable": true,
            "sourceTxnHash": "0x2c1d4a05ba4d43092990850b67a57b1a8a0c4a75e24245cdd7bda8bec84e9085",
            "status": true,
            "timestamp": "2022-04-10T03:21:21Z",
            "transactionFee": "0.002847382052335704",
            "txnHash": "0x2c1d4a05ba4d43092990850b67a57b1a8a0c4a75e24245cdd7bda8bec84e9085",
            "txnIndex": 47,
            "type": 2,
            "value": "0"
        },
        "fund_flow": [
            {
                "amount": "250.039635400679132669",
                "from": "0x51f1b15007235429d8a30a73f9669a4c7c0af2d1",
                "id": 1,
                "isERC1155": false,
                "isERC721": false,
                "isReverted": false,
                "order": 1,
                "to": "0xefb47fcfcad4f96c83d4ca676842fb03ef20a477",
                "token": "0x9813037ee2218799597d83d4a5b6f3b6778218d9"
            },
            {
                "amount": "0.048214179980885512",
                "from": "0xefb47fcfcad4f96c83d4ca676842fb03ef20a477",
                "id": 2,
                "isERC1155": false,
                "isERC721": false,
                "isReverted": false,
                "order": 2,
                "to": "0x03f7724180aa6b939894b5ca4314783b0b36b329",
                "token": "0xc02aaa39b223fe8d0a0e5c4f27ead9083c756cc2"
            },
            {
                "amount": "0.048214179980885512",
                "from": "0xc02aaa39b223fe8d0a0e5c4f27ead9083c756cc2",
                "id": 3,
                "isERC1155": false,
                "isERC721": false,
                "isReverted": false,
                "order": 3,
                "to": "0x03f7724180aa6b939894b5ca4314783b0b36b329",
                "token": "0xeeeeeeeeeeeeeeeeeeeeeeeeeeeeeeeeeeeeeeee"
            },
            {
                "amount": "0.048214179980885512",
                "from": "0x03f7724180aa6b939894b5ca4314783b0b36b329",
                "id": 4,
                "isERC1155": false,
                "isERC721": false,
                "isReverted": false,
                "order": 4,
                "to": "0xc02aaa39b223fe8d0a0e5c4f27ead9083c756cc2",
                "token": "0xc02aaa39b223fe8d0a0e5c4f27ead9083c756cc2"
            },
            {
                "amount": "0.048214179980885512",
                "from": "0x03f7724180aa6b939894b5ca4314783b0b36b329",
                "id": 5,
                "isERC1155": false,
                "isERC721": false,
                "isReverted": false,
                "order": 5,
                "to": "0x51f1b15007235429d8a30a73f9669a4c7c0af2d1",
                "token": "0xeeeeeeeeeeeeeeeeeeeeeeeeeeeeeeeeeeeeeeee"
            }
        ],
        "token_infos": [
            {
                "address": "0xc02aaa39b223fe8d0a0e5c4f27ead9083c756cc2",
                "decimals": 18
            },
            {
                "address": "0xeeeeeeeeeeeeeeeeeeeeeeeeeeeeeeeeeeeeeeee",
                "decimals": 18
            },
            {
                "address": "0x9813037ee2218799597d83d4a5b6f3b6778218d9",
                "decimals": 18
            }
        ]
    },
    "address_label": {
        "labels": [
            {
                "address": "0xeeeeeeeeeeeeeeeeeeeeeeeeeeeeeeeeeeeeeeee",
                "label": "Ether"
            },
            {
                "address": "0x9813037ee2218799597d83d4a5b6f3b6778218d9",
                "label": "ShibaSwap: BONE Token"
            },
            {
                "address": "0x0000000000000000000000000000000000000002",
                "label": "Precompiled"
            },
            {
                "address": "0x0000000000000000000000000000000000000003",
                "label": "Precompiled"
            },
            {
                "address": "0x0000000000000000000000000000000000000004",
                "label": "Precompiled"
            },
            {
                "address": "0x03f7724180aa6b939894b5ca4314783b0b36b329",
                "label": "Shiba Inu: ShibaSwap"
            },
            {
                "address": "0xc02aaa39b223fe8d0a0e5c4f27ead9083c756cc2",
                "label": "Wrapped Ether (WETH)"
            },
            {
                "address": "0xefb47fcfcad4f96c83d4ca676842fb03ef20a477",
                "label": "ShibaSwap LP Token (SSLP)"
            },
            {
                "address": "0x0000000000000000000000000000000000000001",
                "label": "Precompiled"
            }
        ]
    },
    "trace": {
        "accountLabels": null,
        "dataMap": {
            "-1": {
                "invocation": {
                    "address": "0x51f1b15007235429d8a30a73f9669a4c7c0af2d1",
                    "callData": "",
                    "decodedMethod": null,
                    "errorInfo": "",
                    "fromAddress": "",
                    "gasUsed": 0,
                    "id": -1,
                    "methodDecoded": false,
                    "operation": "",
                    "output": "",
                    "revert": false,
                    "revertMessage": "",
                    "selector": "",
                    "status": false,
                    "value": ""
                },
                "nodeType": 0
            },
            "0": {
                "invocation": {
                    "address": "0x03f7724180aa6b939894b5ca4314783b0b36b329",
                    "callData": "0x00000000000000000000000000000000000000000000000d8dff3ba151aa8dfd00000000000000000000000000000000000000000000000000aa70611cd550d300000000000000000000000000000000000000000000000000000000000000a000000000000000000000000051f1b15007235429d8a30a73f9669a4c7c0af2d100000000000000000000000000000000000000000000000000000000625251ae00000000000000000000000000000000000000000000000000000000000000020000000000000000000000009813037ee2218799597d83d4a5b6f3b6778218d9000000000000000000000000c02aaa39b223fe8d0a0e5c4f27ead9083c756cc2",
                    "decodedMethod": {
                        "callParams": [
                            {
                                "name": "amountIn",
                                "type": "uint256",
                                "value": "250,039,635,400,679,132,669"
                            },
                            {
                                "name": "amountOutMin",
                                "type": "uint256",
                                "value": "47,974,308,438,692,051"
                            },
                            {
                                "name": "path",
                                "type": "address[]",
                                "value": [
                                    "0x9813037ee2218799597d83d4a5b6f3b6778218d9",
                                    "0xc02aaa39b223fe8d0a0e5c4f27ead9083c756cc2"
                                ]
                            },
                            {
                                "name": "to",
                                "type": "address",
                                "value": "0x51f1b15007235429d8a30a73f9669a4c7c0af2d1"
                            },
                            {
                                "name": "deadline",
                                "type": "uint256",
                                "value": "1,649,562,030"
                            }
                        ],
                        "constructorArguments": "",
                        "name": "swapExactTokensForETH",
                        "returnParams": [
                            {
                                "name": "amounts",
                                "type": "uint256[]",
                                "value": [
                                    "250,039,635,400,679,132,669",
                                    "48,214,179,980,885,512"
                                ]
                            }
                        ],
                        "signature": "swapExactTokensForETH(uint256,uint256,address[],address,uint256)"
                    },
                    "errorInfo": "",
                    "fromAddress": "0x51f1b15007235429d8a30a73f9669a4c7c0af2d1",
                    "gasUsed": 120408,
                    "id": 0,
                    "methodDecoded": true,
                    "operation": "CALL",
                    "output": "0x0000000000000000000000000000000000000000000000000000000000000020000000000000000000000000000000000000000000000000000000000000000200000000000000000000000000000000000000000000000d8dff3ba151aa8dfd00000000000000000000000000000000000000000000000000ab4a8a8ee5be08",
                    "revert": false,
                    "revertMessage": "",
                    "selector": "0x18cbafe5",
                    "status": true,
                    "value": "0"
                },
                "nodeType": 0
            },
            "1": {
                "invocation": {
                    "address": "0xefb47fcfcad4f96c83d4ca676842fb03ef20a477",
                    "callData": "0x",
                    "decodedMethod": {
                        "callParams": [],
                        "constructorArguments": "",
                        "name": "getReserves",
                        "returnParams": [
                            {
                                "name": "_reserve0",
                                "type": "uint112",
                                "value": "18,047,336,728,117,393,961,178,735"
                            },
                            {
                                "name": "_reserve1",
                                "type": "uint112",
                                "value": "3,490,518,063,939,487,481,601"
                            },
                            {
                                "name": "_blockTimestampLast",
                                "type": "uint32",
                                "value": "1,649,560,830"
                            }
                        ],
                        "signature": "getReserves()"
                    },
                    "errorInfo": "",
                    "fromAddress": "0x03f7724180aa6b939894b5ca4314783b0b36b329",
                    "gasUsed": 2504,
                    "id": 1,
                    "methodDecoded": true,
                    "operation": "STATICCALL",
                    "output": "0x0000000000000000000000000000000000000000000eedac159be6be6276d66f0000000000000000000000000000000000000000000000bd38ab45987d5f3f010000000000000000000000000000000000000000000000000000000062524cfe",
                    "revert": false,
                    "revertMessage": "",
                    "selector": "0x0902f1ac",
                    "status": true,
                    "value": "0"
                },
                "nodeType": 0
            },
            "10": {
                "event": {
                    "contract": "0xefb47fcfcad4f96c83d4ca676842fb03ef20a477",
                    "decodedLog": {
                        "name": "Sync",
                        "params": [
                            {
                                "name": "reserve0",
                                "type": "uint112",
                                "value": "18,047,586,767,752,794,640,311,404"
                            },
                            {
                                "name": "reserve1",
                                "type": "uint112",
                                "value": "3,490,469,849,759,506,596,089"
                            }
                        ],
                        "signature": "Sync(uint112,uint112)"
                    },
                    "id": 10,
                    "logData": "0x0000000000000000000000000000000000000000000eedb9a39b225fb421646c0000000000000000000000000000000000000000000000bd37fffb0dee7980f9",
                    "logDecoded": true,
                    "operation": "EVENT",
                    "revert": false,
                    "status": true,
                    "topics": [
                        "0x1c411e9a96e071241c2f21f7726b17ae89e3cab4c78be50e062b03a9fffbbad1"
                    ]
                },
                "nodeType": 1
            },
            "11": {
                "event": {
                    "contract": "0xefb47fcfcad4f96c83d4ca676842fb03ef20a477",
                    "decodedLog": {
                        "name": "Swap",
                        "params": [
                            {
                                "name": "sender",
                                "type": "address",
                                "value": "0x03f7724180aa6b939894b5ca4314783b0b36b329"
                            },
                            {
                                "name": "to",
                                "type": "address",
                                "value": "0x03f7724180aa6b939894b5ca4314783b0b36b329"
                            },
                            {
                                "name": "amount0In",
                                "type": "uint256",
                                "value": "250,039,635,400,679,132,669"
                            },
                            {
                                "name": "amount1In",
                                "type": "uint256",
                                "value": "0"
                            },
                            {
                                "name": "amount0Out",
                                "type": "uint256",
                                "value": "0"
                            },
                            {
                                "name": "amount1Out",
                                "type": "uint256",
                                "value": "48,214,179,980,885,512"
                            }
                        ],
                        "signature": "Swap(address,uint256,uint256,uint256,uint256,address)"
                    },
                    "id": 11,
                    "logData": "0x00000000000000000000000000000000000000000000000d8dff3ba151aa8dfd0000000000000000000000000000000000000000000000000000000000000000000000000000000000000000000000000000000000000000000000000000000000000000000000000000000000000000000000000000000000ab4a8a8ee5be08",
                    "logDecoded": true,
                    "operation": "EVENT",
                    "revert": false,
                    "status": true,
                    "topics": [
                        "0xd78ad95fa46c994b6551d0da85fc275fe613ce37657fb8d5e3d130840159d822",
                        "0x00000000000000000000000003f7724180aa6b939894b5ca4314783b0b36b329",
                        "0x00000000000000000000000003f7724180aa6b939894b5ca4314783b0b36b329"
                    ]
                },
                "nodeType": 1
            },
            "12": {
                "invocation": {
                    "address": "0xc02aaa39b223fe8d0a0e5c4f27ead9083c756cc2",
                    "callData": "0x00000000000000000000000000000000000000000000000000ab4a8a8ee5be08",
                    "decodedMethod": {
                        "callParams": [
                            {
                                "name": "wad",
                                "type": "uint256",
                                "value": "48,214,179,980,885,512"
                            }
                        ],
                        "constructorArguments": "",
                        "name": "withdraw",
                        "returnParams": [],
                        "signature": "withdraw(uint256)"
                    },
                    "errorInfo": "",
                    "fromAddress": "0x03f7724180aa6b939894b5ca4314783b0b36b329",
                    "gasUsed": 9235,
                    "id": 12,
                    "methodDecoded": true,
                    "operation": "CALL",
                    "output": "",
                    "revert": false,
                    "revertMessage": "",
                    "selector": "0x2e1a7d4d",
                    "status": true,
                    "value": "0"
                },
                "nodeType": 0
            },
            "13": {
                "invocation": {
                    "address": "0x03f7724180aa6b939894b5ca4314783b0b36b329",
                    "callData": "0x",
                    "decodedMethod": null,
                    "errorInfo": "",
                    "fromAddress": "0xc02aaa39b223fe8d0a0e5c4f27ead9083c756cc2",
                    "gasUsed": 95,
                    "id": 13,
                    "methodDecoded": false,
                    "operation": "CALL",
                    "output": "",
                    "revert": false,
                    "revertMessage": "",
                    "selector": "fallback",
                    "status": true,
                    "value": "0.048214179980885512"
                },
                "nodeType": 0
            },
            "14": {
                "event": {
                    "contract": "0xc02aaa39b223fe8d0a0e5c4f27ead9083c756cc2",
                    "decodedLog": {
                        "name": "Withdrawal",
                        "params": [
                            {
                                "name": "src",
                                "type": "address",
                                "value": "0x03f7724180aa6b939894b5ca4314783b0b36b329"
                            },
                            {
                                "name": "wad",
                                "type": "uint256",
                                "value": "48,214,179,980,885,512"
                            }
                        ],
                        "signature": "Withdrawal(address,uint256)"
                    },
                    "id": 14,
                    "logData": "0x00000000000000000000000000000000000000000000000000ab4a8a8ee5be08",
                    "logDecoded": true,
                    "operation": "EVENT",
                    "revert": false,
                    "status": true,
                    "topics": [
                        "0x7fcf532c15f0a6db0bd6d0e038bea71d30d808c7d98cb3bf7268a95bf5081b65",
                        "0x00000000000000000000000003f7724180aa6b939894b5ca4314783b0b36b329"
                    ]
                },
                "nodeType": 1
            },
            "15": {
                "invocation": {
                    "address": "0x51f1b15007235429d8a30a73f9669a4c7c0af2d1",
                    "callData": "0x",
                    "decodedMethod": null,
                    "errorInfo": "",
                    "fromAddress": "0x03f7724180aa6b939894b5ca4314783b0b36b329",
                    "gasUsed": 0,
                    "id": 15,
                    "methodDecoded": false,
                    "operation": "CALL",
                    "output": "",
                    "revert": false,
                    "revertMessage": "",
                    "selector": "fallback",
                    "status": true,
                    "value": "0.048214179980885512"
                },
                "nodeType": 0
            },
            "2": {
                "invocation": {
                    "address": "0x9813037ee2218799597d83d4a5b6f3b6778218d9",
                    "callData": "0x00000000000000000000000051f1b15007235429d8a30a73f9669a4c7c0af2d1000000000000000000000000efb47fcfcad4f96c83d4ca676842fb03ef20a47700000000000000000000000000000000000000000000000d8dff3ba151aa8dfd",
                    "decodedMethod": {
                        "callParams": [
                            {
                                "name": "sender",
                                "type": "address",
                                "value": "0x51f1b15007235429d8a30a73f9669a4c7c0af2d1"
                            },
                            {
                                "name": "recipient",
                                "type": "address",
                                "value": "0xefb47fcfcad4f96c83d4ca676842fb03ef20a477"
                            },
                            {
                                "decimalAvailable": true,
                                "name": "amount",
                                "type": "uint256",
                                "value": "250,039,635,400,679,132,669"
                            }
                        ],
                        "constructorArguments": "",
                        "name": "transferFrom",
                        "returnParams": [
                            {
                                "name": "",
                                "type": "bool",
                                "value": true
                            }
                        ],
                        "signature": "transferFrom(address,address,uint256)"
                    },
                    "errorInfo": "",
                    "fromAddress": "0x03f7724180aa6b939894b5ca4314783b0b36b329",
                    "gasUsed": 24967,
                    "id": 2,
                    "methodDecoded": true,
                    "operation": "CALL",
                    "output": "0x0000000000000000000000000000000000000000000000000000000000000001",
                    "revert": false,
                    "revertMessage": "",
                    "selector": "0x23b872dd",
                    "status": true,
                    "value": "0"
                },
                "nodeType": 0
            },
            "3": {
                "event": {
                    "contract": "0x9813037ee2218799597d83d4a5b6f3b6778218d9",
                    "decodedLog": {
                        "name": "Transfer",
                        "params": [
                            {
                                "name": "from",
                                "type": "address",
                                "value": "0x51f1b15007235429d8a30a73f9669a4c7c0af2d1"
                            },
                            {
                                "name": "to",
                                "type": "address",
                                "value": "0xefb47fcfcad4f96c83d4ca676842fb03ef20a477"
                            },
                            {
                                "decimalAvailable": true,
                                "name": "value",
                                "type": "uint256",
                                "value": "250,039,635,400,679,132,669"
                            }
                        ],
                        "signature": "Transfer(address,address,uint256)"
                    },
                    "id": 3,
                    "logData": "0x00000000000000000000000000000000000000000000000d8dff3ba151aa8dfd",
                    "logDecoded": true,
                    "operation": "EVENT",
                    "revert": false,
                    "status": true,
                    "topics": [
                        "0xddf252ad1be2c89b69c2b068fc378daa952ba7f163c4a11628f55a4df523b3ef",
                        "0x00000000000000000000000051f1b15007235429d8a30a73f9669a4c7c0af2d1",
                        "0x000000000000000000000000efb47fcfcad4f96c83d4ca676842fb03ef20a477"
                    ]
                },
                "nodeType": 1
            },
            "4": {
                "event": {
                    "contract": "0x9813037ee2218799597d83d4a5b6f3b6778218d9",
                    "decodedLog": {
                        "name": "Approval",
                        "params": [
                            {
                                "name": "owner",
                                "type": "address",
                                "value": "0x51f1b15007235429d8a30a73f9669a4c7c0af2d1"
                            },
                            {
                                "name": "spender",
                                "type": "address",
                                "value": "0x03f7724180aa6b939894b5ca4314783b0b36b329"
                            },
                            {
                                "decimalAvailable": true,
                                "name": "value",
                                "type": "uint256",
                                "value": "115,792,089,237,316,195,423,570,985,008,687,907,853,269,984,665,640,564,039,161,428,572,453,927,143,112"
                            }
                        ],
                        "signature": "Approval(address,address,uint256)"
                    },
                    "id": 4,
                    "logData": "0xffffffffffffffffffffffffffffffffffffffffffffffeff204888c711c46c8",
                    "logDecoded": true,
                    "operation": "EVENT",
                    "revert": false,
                    "status": true,
                    "topics": [
                        "0x8c5be1e5ebec7d5bd14f71427d1e84f3dd0314c0f7b2291e5b200ac8c7c3b925",
                        "0x00000000000000000000000051f1b15007235429d8a30a73f9669a4c7c0af2d1",
                        "0x00000000000000000000000003f7724180aa6b939894b5ca4314783b0b36b329"
                    ]
                },
                "nodeType": 1
            },
            "5": {
                "invocation": {
                    "address": "0xefb47fcfcad4f96c83d4ca676842fb03ef20a477",
                    "callData": "0x000000000000000000000000000000000000000000000000000000000000000000000000000000000000000000000000000000000000000000ab4a8a8ee5be0800000000000000000000000003f7724180aa6b939894b5ca4314783b0b36b32900000000000000000000000000000000000000000000000000000000000000800000000000000000000000000000000000000000000000000000000000000000",
                    "decodedMethod": {
                        "callParams": [
                            {
                                "name": "amount0Out",
                                "type": "uint256",
                                "value": "0"
                            },
                            {
                                "name": "amount1Out",
                                "type": "uint256",
                                "value": "48,214,179,980,885,512"
                            },
                            {
                                "name": "to",
                                "type": "address",
                                "value": "0x03f7724180aa6b939894b5ca4314783b0b36b329"
                            },
                            {
                                "name": "data",
                                "type": "bytes",
                                "value": "0x"
                            }
                        ],
                        "constructorArguments": "",
                        "name": "swap",
                        "returnParams": [],
                        "signature": "swap(uint256,uint256,address,bytes)"
                    },
                    "errorInfo": "",
                    "fromAddress": "0x03f7724180aa6b939894b5ca4314783b0b36b329",
                    "gasUsed": 67131,
                    "id": 5,
                    "methodDecoded": true,
                    "operation": "CALL",
                    "output": "",
                    "revert": false,
                    "revertMessage": "",
                    "selector": "0x022c0d9f",
                    "status": true,
                    "value": "0"
                },
                "nodeType": 0
            },
            "6": {
                "invocation": {
                    "address": "0xc02aaa39b223fe8d0a0e5c4f27ead9083c756cc2",
                    "callData": "0x00000000000000000000000003f7724180aa6b939894b5ca4314783b0b36b32900000000000000000000000000000000000000000000000000ab4a8a8ee5be08",
                    "decodedMethod": {
                        "callParams": [
                            {
                                "name": "dst",
                                "type": "address",
                                "value": "0x03f7724180aa6b939894b5ca4314783b0b36b329"
                            },
                            {
                                "decimalAvailable": true,
                                "name": "wad",
                                "type": "uint256",
                                "value": "48,214,179,980,885,512"
                            }
                        ],
                        "constructorArguments": "",
                        "name": "transfer",
                        "returnParams": [
                            {
                                "name": "",
                                "type": "bool",
                                "value": true
                            }
                        ],
                        "signature": "transfer(address,uint256)"
                    },
                    "errorInfo": "",
                    "fromAddress": "0xefb47fcfcad4f96c83d4ca676842fb03ef20a477",
                    "gasUsed": 29962,
                    "id": 6,
                    "methodDecoded": true,
                    "operation": "CALL",
                    "output": "0x0000000000000000000000000000000000000000000000000000000000000001",
                    "revert": false,
                    "revertMessage": "",
                    "selector": "0xa9059cbb",
                    "status": true,
                    "value": "0"
                },
                "nodeType": 0
            },
            "7": {
                "event": {
                    "contract": "0xc02aaa39b223fe8d0a0e5c4f27ead9083c756cc2",
                    "decodedLog": {
                        "name": "Transfer",
                        "params": [
                            {
                                "name": "src",
                                "type": "address",
                                "value": "0xefb47fcfcad4f96c83d4ca676842fb03ef20a477"
                            },
                            {
                                "name": "dst",
                                "type": "address",
                                "value": "0x03f7724180aa6b939894b5ca4314783b0b36b329"
                            },
                            {
                                "decimalAvailable": true,
                                "name": "wad",
                                "type": "uint256",
                                "value": "48,214,179,980,885,512"
                            }
                        ],
                        "signature": "Transfer(address,address,uint256)"
                    },
                    "id": 7,
                    "logData": "0x00000000000000000000000000000000000000000000000000ab4a8a8ee5be08",
                    "logDecoded": true,
                    "operation": "EVENT",
                    "revert": false,
                    "status": true,
                    "topics": [
                        "0xddf252ad1be2c89b69c2b068fc378daa952ba7f163c4a11628f55a4df523b3ef",
                        "0x000000000000000000000000efb47fcfcad4f96c83d4ca676842fb03ef20a477",
                        "0x00000000000000000000000003f7724180aa6b939894b5ca4314783b0b36b329"
                    ]
                },
                "nodeType": 1
            },
            "8": {
                "invocation": {
                    "address": "0x9813037ee2218799597d83d4a5b6f3b6778218d9",
                    "callData": "0x000000000000000000000000efb47fcfcad4f96c83d4ca676842fb03ef20a477",
                    "decodedMethod": {
                        "callParams": [
                            {
                                "name": "account",
                                "type": "address",
                                "value": "0xefb47fcfcad4f96c83d4ca676842fb03ef20a477"
                            }
                        ],
                        "constructorArguments": "",
                        "name": "balanceOf",
                        "returnParams": [
                            {
                                "decimalAvailable": true,
                                "name": "",
                                "type": "uint256",
                                "value": "18,047,586,767,752,794,640,311,404"
                            }
                        ],
                        "signature": "balanceOf(address)"
                    },
                    "errorInfo": "",
                    "fromAddress": "0xefb47fcfcad4f96c83d4ca676842fb03ef20a477",
                    "gasUsed": 534,
                    "id": 8,
                    "methodDecoded": true,
                    "operation": "STATICCALL",
                    "output": "0x0000000000000000000000000000000000000000000eedb9a39b225fb421646c",
                    "revert": false,
                    "revertMessage": "",
                    "selector": "0x70a08231",
                    "status": true,
                    "value": "0"
                },
                "nodeType": 0
            },
            "9": {
                "invocation": {
                    "address": "0xc02aaa39b223fe8d0a0e5c4f27ead9083c756cc2",
                    "callData": "0x000000000000000000000000efb47fcfcad4f96c83d4ca676842fb03ef20a477",
                    "decodedMethod": {
                        "callParams": [
                            {
                                "name": "",
                                "type": "address",
                                "value": "0xefb47fcfcad4f96c83d4ca676842fb03ef20a477"
                            }
                        ],
                        "constructorArguments": "",
                        "name": "balanceOf",
                        "returnParams": [
                            {
                                "decimalAvailable": true,
                                "name": "",
                                "type": "uint256",
                                "value": "3,490,469,849,759,506,596,089"
                            }
                        ],
                        "signature": "balanceOf(address)"
                    },
                    "errorInfo": "",
                    "fromAddress": "0xefb47fcfcad4f96c83d4ca676842fb03ef20a477",
                    "gasUsed": 534,
                    "id": 9,
                    "methodDecoded": true,
                    "operation": "STATICCALL",
                    "output": "0x0000000000000000000000000000000000000000000000bd37fffb0dee7980f9",
                    "revert": false,
                    "revertMessage": "",
                    "selector": "0x70a08231",
                    "status": true,
                    "value": "0"
                },
                "nodeType": 0
            }
        },
        "gasFlame": [
            {
                "children": [
                    {
                        "children": [
                            {
                                "children": [],
                                "depth": 0,
                                "name": "Initial Gas",
                                "value": 23072
                            },
                            {
                                "children": [
                                    {
                                        "children": [],
                                        "depth": 1,
                                        "name": "getReserves",
                                        "value": 2504
                                    },
                                    {
                                        "children": [],
                                        "depth": 1,
                                        "name": "transferFrom",
                                        "value": 24967
                                    },
                                    {
                                        "children": [
                                            {
                                                "children": [],
                                                "depth": 2,
                                                "name": "transfer",
                                                "value": 29962
                                            },
                                            {
                                                "children": [],
                                                "depth": 2,
                                                "name": "balanceOf",
                                                "value": 534
                                            },
                                            {
                                                "children": [],
                                                "depth": 2,
                                                "name": "balanceOf",
                                                "value": 534
                                            }
                                        ],
                                        "depth": 1,
                                        "name": "swap",
                                        "value": 67131
                                    },
                                    {
                                        "children": [
                                            {
                                                "children": [],
                                                "depth": 2,
                                                "name": "fallback",
                                                "value": 95
                                            }
                                        ],
                                        "depth": 1,
                                        "name": "withdraw",
                                        "value": 9235
                                    },
                                    {
                                        "children": [],
                                        "depth": 1,
                                        "name": "fallback",
                                        "value": 0
                                    }
                                ],
                                "depth": 0,
                                "name": "Executed Gas",
                                "value": 124836
                            }
                        ],
                        "depth": -1,
                        "name": "Actual Gas Used",
                        "value": 120408
                    },
                    {
                        "children": [],
                        "depth": -1,
                        "name": "Refunded Gas",
                        "value": 27500
                    }
                ],
                "depth": -2,
                "name": "Total Gas",
                "value": 147908
            }
        ],
        "isConfirmed": true,
        "mainTrace": [
            {
                "children": [
                    {
                        "children": [
                            {
                                "children": [],
                                "depth": 1,
                                "id": 1,
                                "order": 1
                            },
                            {
                                "children": [
                                    {
                                        "children": [],
                                        "depth": 2,
                                        "id": 3,
                                        "order": 3
                                    },
                                    {
                                        "children": [],
                                        "depth": 2,
                                        "id": 4,
                                        "order": 4
                                    }
                                ],
                                "depth": 1,
                                "id": 2,
                                "order": 2
                            },
                            {
                                "children": [
                                    {
                                        "children": [
                                            {
                                                "children": [],
                                                "depth": 3,
                                                "id": 7,
                                                "order": 7
                                            }
                                        ],
                                        "depth": 2,
                                        "id": 6,
                                        "order": 6
                                    },
                                    {
                                        "children": [],
                                        "depth": 2,
                                        "id": 8,
                                        "order": 8
                                    },
                                    {
                                        "children": [],
                                        "depth": 2,
                                        "id": 9,
                                        "order": 9
                                    },
                                    {
                                        "children": [],
                                        "depth": 2,
                                        "id": 10,
                                        "order": 10
                                    },
                                    {
                                        "children": [],
                                        "depth": 2,
                                        "id": 11,
                                        "order": 11
                                    }
                                ],
                                "depth": 1,
                                "id": 5,
                                "order": 5
                            },
                            {
                                "children": [
                                    {
                                        "children": [],
                                        "depth": 2,
                                        "id": 13,
                                        "order": 13
                                    },
                                    {
                                        "children": [],
                                        "depth": 2,
                                        "id": 14,
                                        "order": 14
                                    }
                                ],
                                "depth": 1,
                                "id": 12,
                                "order": 12
                            },
                            {
                                "children": [],
                                "depth": 1,
                                "id": 15,
                                "order": 15
                            }
                        ],
                        "depth": 0,
                        "id": 0,
                        "order": 0
                    }
                ],
                "depth": -1,
                "id": -1,
                "order": -1
            }
        ],
        "mainTraceNodeCount": 16,
        "parentIdMap": {
            "0": -1,
            "1": 0,
            "10": 5,
            "11": 5,
            "12": 0,
            "13": 12,
            "14": 12,
            "15": 0,
            "2": 0,
            "3": 2,
            "4": 2,
            "5": 0,
            "6": 5,
            "7": 6,
            "8": 5,
            "9": 5
        },
        "tidyTrace": [
            {
                "children": [
                    {
                        "children": [
                            {
                                "children": [
                                    {
                                        "children": [],
                                        "depth": 2,
                                        "id": 3,
                                        "order": 3
                                    },
                                    {
                                        "children": [],
                                        "depth": 2,
                                        "id": 4,
                                        "order": 4
                                    }
                                ],
                                "depth": 1,
                                "id": 2,
                                "order": 2
                            },
                            {
                                "children": [
                                    {
                                        "children": [
                                            {
                                                "children": [],
                                                "depth": 3,
                                                "id": 7,
                                                "order": 7
                                            }
                                        ],
                                        "depth": 2,
                                        "id": 6,
                                        "order": 6
                                    },
                                    {
                                        "children": [],
                                        "depth": 2,
                                        "id": 10,
                                        "order": 10
                                    },
                                    {
                                        "children": [],
                                        "depth": 2,
                                        "id": 11,
                                        "order": 11
                                    }
                                ],
                                "depth": 1,
                                "id": 5,
                                "order": 5
                            },
                            {
                                "children": [
                                    {
                                        "children": [],
                                        "depth": 2,
                                        "id": 13,
                                        "order": 13
                                    },
                                    {
                                        "children": [],
                                        "depth": 2,
                                        "id": 14,
                                        "order": 14
                                    }
                                ],
                                "depth": 1,
                                "id": 12,
                                "order": 12
                            },
                            {
                                "children": [],
                                "depth": 1,
                                "id": 15,
                                "order": 15
                            }
                        ],
                        "depth": 0,
                        "id": 0,
                        "order": 0
                    }
                ],
                "depth": -1,
                "id": -1,
                "order": -1
            }
        ],
        "tidyTraceNodeCount": 13
    },
    "state_change": {
        "stateChanges": [
            {
                "address": "0x9813037ee2218799597d83d4a5b6f3b6778218d9",
                "erc": "ERC-20",
                "slots": [
                    {
                        "current": "0x0000000000000000000000000000000000000000000000000000000000000000",
                        "key": "0xc7fe87895ae11d2129972adf968eacd51f6ba6a858de2e56b1f2dfb48e393e88",
                        "prev": "0x00000000000000000000000000000000000000000000000d8dff3ba151aa8dfd"
                    },
                    {
                        "current": "0x0000000000000000000000000000000000000000000eedb9a39b225fb421646c",
                        "key": "0x92783bce1b8fbf5d5a004ae454c0294c9e3a8d45cb06a52fcd99539b22445478",
                        "prev": "0x0000000000000000000000000000000000000000000eedac159be6be6276d66f"
                    },
                    {
                        "current": "0xffffffffffffffffffffffffffffffffffffffffffffffeff204888c711c46c8",
                        "key": "0x4ff850c965cd1efc86daea78a996c21370a29b89321629d93bcbbc5131b2716d",
                        "prev": "0xfffffffffffffffffffffffffffffffffffffffffffffffd8003c42dc2c6d4c5"
                    }
                ],
                "storageVariables": [
                    {
                        "name": "_allowances",
                        "type": "mapping(address => mapping(address => uint256))",
                        "value": {
                            "pairs": [
                                {
                                    "key": "0x51f1b15007235429d8a30a73f9669a4c7c0af2d1",
                                    "value": {
                                        "pairs": [
                                            {
                                                "key": "0x03f7724180aa6b939894b5ca4314783b0b36b329",
                                                "value": {
                                                    "current": "115792089237316195423570985008687907853269984665640564039161428572453927143112",
                                                    "prev": "115792089237316195423570985008687907853269984665640564039411468207854606275781",
                                                    "typeTag": 1
                                                }
                                            }
                                        ],
                                        "typeTag": 4
                                    }
                                }
                            ],
                            "typeTag": 4
                        }
                    },
                    {
                        "name": "_balances",
                        "type": "mapping(address => uint256)",
                        "value": {
                            "pairs": [
                                {
                                    "key": "0x51f1b15007235429d8a30a73f9669a4c7c0af2d1",
                                    "value": {
                                        "current": "0",
                                        "prev": "250039635400679132669",
                                        "typeTag": 1
                                    }
                                },
                                {
                                    "key": "0xefb47fcfcad4f96c83d4ca676842fb03ef20a477",
                                    "value": {
                                        "current": "18047586767752794640311404",
                                        "prev": "18047336728117393961178735",
                                        "typeTag": 1
                                    }
                                }
                            ],
                            "typeTag": 4
                        }
                    }
                ]
            },
            {
                "address": "0xc02aaa39b223fe8d0a0e5c4f27ead9083c756cc2",
                "erc": "ERC-20",
                "slots": [
                    {
                        "current": "0x0000000000000000000000000000000000000000000000bd37fffb0dee7980f9",
                        "key": "0x635d66657ab7efa4978a0ada1229131bdb12bdff440df002b11a37709c596697",
                        "prev": "0x0000000000000000000000000000000000000000000000bd38ab45987d5f3f01"
                    }
                ],
                "storageVariables": [
                    {
                        "name": "balanceOf",
                        "type": "mapping(address => uint256)",
                        "value": {
                            "pairs": [
                                {
                                    "key": "0xefb47fcfcad4f96c83d4ca676842fb03ef20a477",
                                    "value": {
                                        "current": "3490469849759506596089",
                                        "prev": "3490518063939487481601",
                                        "typeTag": 1
                                    }
                                }
                            ],
                            "typeTag": 4
                        }
                    }
                ]
            },
            {
                "address": "0xefb47fcfcad4f96c83d4ca676842fb03ef20a477",
                "erc": "ERC-20",
                "slots": [
                    {
                        "current": "0x00000000000000000000000000000000337cf707d38511e6cc31d98859088610",
                        "key": "0x0000000000000000000000000000000000000000000000000000000000000009",
                        "prev": "0x00000000000000000000000000000000337cf481636494089e6bb70e42dbcfa9"
                    },
                    {
                        "current": "0x00000000000000000000000000104bd29d84418988006bf62e646c11832471d3",
                        "key": "0x000000000000000000000000000000000000000000000000000000000000000a",
                        "prev": "0x00000000000000000000000000104bce977a68c92290a92883249f5690dfb41a"
                    },
                    {
                        "current": "0x62524d310000000000bd37fffb0dee7980f90000000eedb9a39b225fb421646c",
                        "key": "0x0000000000000000000000000000000000000000000000000000000000000008",
                        "prev": "0x62524cfe0000000000bd38ab45987d5f3f010000000eedac159be6be6276d66f"
                    }
                ],
                "storageVariables": [
                    {
                        "name": "price0CumulativeLast",
                        "type": "uint256",
                        "value": {
                            "current": "68439482970720476450484701300555023888",
                            "prev": "68439431754625891115218395286376009641",
                            "typeTag": 1
                        }
                    },
                    {
                        "name": "price1CumulativeLast",
                        "type": "uint256",
                        "value": {
                            "current": "363417013293933162371757869306719448449970643",
                            "prev": "363415644137970588506907139211188117471999002",
                            "typeTag": 1
                        }
                    },
                    {
                        "name": "reserve0",
                        "type": "uint112",
                        "value": {
                            "current": "18047586767752794640311404",
                            "prev": "18047336728117393961178735",
                            "typeTag": 1
                        }
                    },
                    {
                        "name": "reserve1",
                        "type": "uint112",
                        "value": {
                            "current": "3490469849759506596089",
                            "prev": "3490518063939487481601",
                            "typeTag": 1
                        }
                    },
                    {
                        "name": "blockTimestampLast",
                        "type": "uint32",
                        "value": {
                            "current": "1649560881",
                            "prev": "1649560830",
                            "typeTag": 1
                        }
                    }
                ]
            }
        ]
    }
}