{
    "balance_change": {
        "balanceChanges": []
    },
    "profile": {
        "basic_info": {
            "baseFee": "",
            "blockNumber": 8716534,
            "callData": "0x4ab0d19028aaf76daf3f5c4ded9b42ffaa31f40e627f4ed009a11b8e6e9eacaf760033f300000000000000000000000000000000000000000000000004a03ce68d21555500000000000000000000000079febf6b9f76853edbcbc913e6aae8232cfb9de96a9705b400000000000000000000000000000000000000000000000000000000000000000000000000000000000000000000000000000000000000005d9fa9ed000000000000000000000000000000000000000000000000000000047ad251e4",
            "debugEnable": true,
            "errorInfo": "",
            "eventCount": 3,
            "feeRecipient": "0xea674fdde714fd979de3edf0f56aa9716b898ec8",
            "formatValue": "0",
            "gasLimit": 500000,
            "gasPrice": "1",
            "gasUsed": 109384,
            "intTxnCount": 1,
            "internalRevert": false,
            "internalRevertMessage": "",
            "isContractCreation": false,
            "isFlashloan": false,
            "maxFee": "",
            "nonce": 31772,
            "overwritedBlockNumber": -1,
            "priorityFee": "",
            "receiver": "0xf5a3d443fccd7ee567000e43b23b0e98d96445ce",
            "revertMessage": "",
            "sender": "0x0699a397c3cf614c9a7db23a4be28fc4c8f3a755",
            "simulationEnable": true,
            "sourceTxnHash": "0x2ccafeee5d0de57ea83c07f10f2cc31259f5dc8b523a3c66f877a4afd7111a09",
            "status": true,
            "timestamp": "2019-10-10T21:56:07Z",
            "transactionFee": "0.000109384",
            "txnHash": "0x2ccafeee5d0de57ea83c07f10f2cc31259f5dc8b523a3c66f877a4afd7111a09",
            "txnIndex": 54,
            "type": 0,
            "value": "0"
        },
        "fund_flow": [],
        "token_infos": [
            {
                "address": "0xc02aaa39b223fe8d0a0e5c4f27ead9083c756cc2",
                "decimals": 18
            },
            {
                "address": "0xeeeeeeeeeeeeeeeeeeeeeeeeeeeeeeeeeeeeeeee",
                "decimals": 18
            }
        ]
    },
    "address_label": {
        "labels": [
            {
                "address": "0xeeeeeeeeeeeeeeeeeeeeeeeeeeeeeeeeeeeeeeee",
                "label": "Ether"
            },
            {
                "address": "0x79febf6b9f76853edbcbc913e6aae8232cfb9de9",
                "label": "Chainlink: Aggregator"
            },
            {
                "address": "0xf5a3d443fccd7ee567000e43b23b0e98d96445ce",
                "label": "Oracle"
            },
            {
                "address": "0x0000000000000000000000000000000000000001",
                "label": "Precompiled"
            },
            {
                "address": "0x0000000000000000000000000000000000000002",
                "label": "Precompiled"
            },
            {
                "address": "0x0000000000000000000000000000000000000003",
                "label": "Precompiled"
            },
            {
                "address": "0x0000000000000000000000000000000000000004",
                "label": "Precompiled"
            }
        ]
    },
    "trace": {
        "accountLabels": null,
        "dataMap": {
            "-1": {
                "invocation": {
                    "address": "0x0699a397c3cf614c9a7db23a4be28fc4c8f3a755",
                    "callData": "",
                    "decodedMethod": null,
                    "errorInfo": "",
                    "fromAddress": "",
                    "gasUsed": 0,
                    "id": -1,
                    "methodDecoded": false,
                    "operation": "",
                    "output": "",
                    "revert": false,
                    "revertMessage": "",
                    "selector": "",
                    "status": false,
                    "value": ""
                },
                "nodeType": 0
            },
            "0": {
                "invocation": {
                    "address": "0xf5a3d443fccd7ee567000e43b23b0e98d96445ce",
                    "callData": "0x28aaf76daf3f5c4ded9b42ffaa31f40e627f4ed009a11b8e6e9eacaf760033f300000000000000000000000000000000000000000000000004a03ce68d21555500000000000000000000000079febf6b9f76853edbcbc913e6aae8232cfb9de96a9705b400000000000000000000000000000000000000000000000000000000000000000000000000000000000000000000000000000000000000005d9fa9ed000000000000000000000000000000000000000000000000000000047ad251e4",
                    "decodedMethod": {
                        "callParams": [
                            {
                                "name": "_requestId",
                                "type": "bytes32",
                                "value": "0x28aaf76daf3f5c4ded9b42ffaa31f40e627f4ed009a11b8e6e9eacaf760033f3"
                            },
                            {
                                "name": "_payment",
                                "type": "uint256",
                                "value": "333,333,333,333,333,333"
                            },
                            {
                                "name": "_callbackAddress",
                                "type": "address",
                                "value": "0x79febf6b9f76853edbcbc913e6aae8232cfb9de9"
                            },
                            {
                                "name": "_callbackFunctionId",
                                "type": "bytes4",
                                "value": "0x6a9705b4"
                            },
                            {
                                "name": "_expiration",
                                "type": "uint256",
                                "value": "1,570,744,813"
                            },
                            {
                                "name": "_data",
                                "type": "bytes32",
                                "value": "0x000000000000000000000000000000000000000000000000000000047ad251e4"
                            }
                        ],
                        "constructorArguments": "",
                        "name": "fulfillOracleRequest",
                        "returnParams": [
                            {
                                "name": "",
                                "type": "bool",
                                "value": true
                            }
                        ],
                        "signature": "fulfillOracleRequest(bytes32,uint256,address,bytes4,uint256,bytes32)"
                    },
                    "errorInfo": "",
                    "fromAddress": "0x0699a397c3cf614c9a7db23a4be28fc4c8f3a755",
                    "gasUsed": 109384,
                    "id": 0,
                    "methodDecoded": true,
                    "operation": "CALL",
                    "output": "0x0000000000000000000000000000000000000000000000000000000000000001",
                    "revert": false,
                    "revertMessage": "",
                    "selector": "0x4ab0d190",
                    "status": true,
                    "value": "0"
                },
                "nodeType": 0
            },
            "1": {
                "invocation": {
                    "address": "0x79febf6b9f76853edbcbc913e6aae8232cfb9de9",
                    "callData": "0x28aaf76daf3f5c4ded9b42ffaa31f40e627f4ed009a11b8e6e9eacaf760033f3000000000000000000000000000000000000000000000000000000047ad251e4",
                    "decodedMethod": {
                        "callParams": [
                            {
                                "name": "_clRequestId",
                                "type": "bytes32",
                                "value": "0x28aaf76daf3f5c4ded9b42ffaa31f40e627f4ed009a11b8e6e9eacaf760033f3"
                            },
                            {
                                "name": "_response",
                                "type": "int256",
                                "value": "19,240,473,060"
                            }
                        ],
                        "constructorArguments": "",
                        "name": "chainlinkCallback",
                        "returnParams": [],
                        "signature": "chainlinkCallback(bytes32,int256)"
                    },
                    "errorInfo": "",
                    "fromAddress": "0xf5a3d443fccd7ee567000e43b23b0e98d96445ce",
                    "gasUsed": 178714,
                    "id": 1,
                    "methodDecoded": true,
                    "operation": "CALL",
                    "output": "",
                    "revert": false,
                    "revertMessage": "",
                    "selector": "0x6a9705b4",
                    "status": true,
                    "value": "0"
                },
                "nodeType": 0
            },
            "2": {
                "event": {
                    "contract": "0x79febf6b9f76853edbcbc913e6aae8232cfb9de9",
                    "decodedLog": {
                        "name": "ChainlinkFulfilled",
                        "params": [
                            {
                                "name": "id",
                                "type": "bytes32",
                                "value": "0x28aaf76daf3f5c4ded9b42ffaa31f40e627f4ed009a11b8e6e9eacaf760033f3"
                            }
                        ],
                        "signature": "ChainlinkFulfilled(bytes32)"
                    },
                    "id": 2,
                    "logData": "0x",
                    "logDecoded": true,
                    "operation": "EVENT",
                    "revert": false,
                    "status": true,
                    "topics": [
                        "0x7cc135e0cebb02c3480ae5d74d377283180a2601f8f644edf7987b009316c63a",
                        "0x28aaf76daf3f5c4ded9b42ffaa31f40e627f4ed009a11b8e6e9eacaf760033f3"
                    ]
                },
                "nodeType": 1
            },
            "3": {
                "event": {
                    "contract": "0x79febf6b9f76853edbcbc913e6aae8232cfb9de9",
                    "decodedLog": {
                        "name": "ResponseReceived",
                        "params": [
                            {
                                "name": "response",
                                "type": "int256",
                                "value": "19,240,473,060"
                            },
                            {
                                "name": "answerId",
                                "type": "uint256",
                                "value": "38,400"
                            },
                            {
                                "name": "sender",
                                "type": "address",
                                "value": "0xf5a3d443fccd7ee567000e43b23b0e98d96445ce"
                            }
                        ],
                        "signature": "ResponseReceived(int256,uint256,address)"
                    },
                    "id": 3,
                    "logData": "0x",
                    "logDecoded": true,
                    "operation": "EVENT",
                    "revert": false,
                    "status": true,
                    "topics": [
                        "0xb51168059c83c860caf5b830c5d2e64c2172c6fb2fe9f25447d9838e18d93b60",
                        "0x000000000000000000000000000000000000000000000000000000047ad251e4",
                        "0x0000000000000000000000000000000000000000000000000000000000009600",
                        "0x000000000000000000000000f5a3d443fccd7ee567000e43b23b0e98d96445ce"
                    ]
                },
                "nodeType": 1
            },
            "4": {
                "event": {
                    "contract": "0x79febf6b9f76853edbcbc913e6aae8232cfb9de9",
                    "decodedLog": {
                        "name": "AnswerUpdated",
                        "params": [
                            {
                                "name": "current",
                                "type": "int256",
                                "value": "19,234,000,000"
                            },
                            {
                                "name": "answerId",
                                "type": "uint256",
                                "value": "38,400"
                            }
                        ],
                        "signature": "AnswerUpdated(int256,uint256)"
                    },
                    "id": 4,
                    "logData": "0x",
                    "logDecoded": true,
                    "operation": "EVENT",
                    "revert": false,
                    "status": true,
                    "topics": [
                        "0xc379d0e412d8792cf238c6c045bafec46b2bdad53a28ee4abce236ac6145ae84",
                        "0x000000000000000000000000000000000000000000000000000000047a6f8c80",
                        "0x0000000000000000000000000000000000000000000000000000000000009600"
                    ]
                },
                "nodeType": 1
            }
        },
        "gasFlame": [
            {
                "children": [
                    {
                        "children": [
                            {
                                "children": [],
                                "depth": 0,
                                "name": "Initial Gas",
                                "value": 26648
                            },
                            {
                                "children": [
                                    {
                                        "children": [],
                                        "depth": 1,
                                        "name": "chainlinkCallback",
                                        "value": 178714
                                    }
                                ],
                                "depth": 0,
                                "name": "Executed Gas",
                                "value": 192120
                            }
                        ],
                        "depth": -1,
                        "name": "Actual Gas Used",
                        "value": 109384
                    },
                    {
                        "children": [],
                        "depth": -1,
                        "name": "Refunded Gas",
                        "value": 109384
                    }
                ],
                "depth": -2,
                "name": "Total Gas",
                "value": 218768
            }
        ],
        "isConfirmed": true,
        "mainTrace": [
            {
                "children": [
                    {
                        "children": [
                            {
                                "children": [
                                    {
                                        "children": [],
                                        "depth": 2,
                                        "id": 2,
                                        "order": 2
                                    },
                                    {
                                        "children": [],
                                        "depth": 2,
                                        "id": 3,
                                        "order": 3
                                    },
                                    {
                                        "children": [],
                                        "depth": 2,
                                        "id": 4,
                                        "order": 4
                                    }
                                ],
                                "depth": 1,
                                "id": 1,
                                "order": 1
                            }
                        ],
                        "depth": 0,
                        "id": 0,
                        "order": 0
                    }
                ],
                "depth": -1,
                "id": -1,
                "order": -1
            }
        ],
        "mainTraceNodeCount": 5,
        "parentIdMap": {
            "0": -1,
            "1": 0,
            "2": 1,
            "3": 1,
            "4": 1
        },
        "tidyTrace": [
            {
                "children": [
                    {
                        "children": [
                            {
                                "children": [
                                    {
                                        "children": [],
                                        "depth": 2,
                                        "id": 2,
                                        "order": 2
                                    },
                                    {
                                        "children": [],
                                        "depth": 2,
                                        "id": 3,
                                        "order": 3
                                    },
                                    {
                                        "children": [],
                                        "depth": 2,
                                        "id": 4,
                                        "order": 4
                                    }
                                ],
                                "depth": 1,
                                "id": 1,
                                "order": 1
                            }
                        ],
                        "depth": 0,
                        "id": 0,
                        "order": 0
                    }
                ],
                "depth": -1,
                "id": -1,
                "order": -1
            }
        ],
        "tidyTraceNodeCount": 5
    },
    "state_change": {
        "stateChanges": [
            {
                "address": "0x79febf6b9f76853edbcbc913e6aae8232cfb9de9",
                "erc": "",
                "slots": [
                    {
                        "current": "0x0000000000000000000000000000000000000000000000000000000000000000",
                        "key": "0xd1573acfe02dd29f954783469b4cea1ee2a9fec80fe4c76be28bb3db21ddc758",
                        "prev": "0x00000000000000000000000000000000000000000000000000000004768fba40"
                    },
                    {
                        "current": "0x000000000000000000000000000000000000000000000000000000047a6f8c80",
                        "key": "0x0000000000000000000000000000000000000000000000000000000000000007",
                        "prev": "0x000000000000000000000000000000000000000000000000000000047a505667"
                    },
                    {
                        "current": "0x0000000000000000000000000000000000000000000000000000000000000000",
                        "key": "0x47593243368673fd0fdd63bde012df152bf3f3b27d3076530cff0daa6f3a2677",
                        "prev": "0x0000000000000000000000000000000000000000000000000000000000009600"
                    },
                    {
                        "current": "0x0000000000000000000000000000000000000000000000000000000000000000",
                        "key": "0xd1573acfe02dd29f954783469b4cea1ee2a9fec80fe4c76be28bb3db21ddc753",
                        "prev": "0x000000000000000000000000000000000000000000000000000000047a31204e"
                    },
                    {
                        "current": "0x0000000000000000000000000000000000000000000000000000000000000000",
                        "key": "0xd1573acfe02dd29f954783469b4cea1ee2a9fec80fe4c76be28bb3db21ddc75c",
                        "prev": "0x000000000000000000000000000000000000000000000000000000047a12c572"
                    },
                    {
                        "current": "0x0000000000000000000000000000000000000000000000000000000000000000",
                        "key": "0xd1573acfe02dd29f954783469b4cea1ee2a9fec80fe4c76be28bb3db21ddc75a",
                        "prev": "0x000000000000000000000000000000000000000000000000000000047abbd7c0"
                    },
                    {
                        "current": "0x0000000000000000000000000000000000000000000000000000000000000000",
                        "key": "0xd1573acfe02dd29f954783469b4cea1ee2a9fec80fe4c76be28bb3db21ddc756",
                        "prev": "0x00000000000000000000000000000000000000000000000000000004768fba40"
                    },
                    {
                        "current": "0x0000000000000000000000000000000000000000000000000000000000000000",
                        "key": "0xd1573acfe02dd29f954783469b4cea1ee2a9fec80fe4c76be28bb3db21ddc759",
                        "prev": "0x000000000000000000000000000000000000000000000000000000047abbd7c0"
                    },
                    {
                        "current": "0x0000000000000000000000000000000000000000000000000000000000000000",
                        "key": "0xd1573acfe02dd29f954783469b4cea1ee2a9fec80fe4c76be28bb3db21ddc752",
                        "prev": "0x000000000000000000000000000000000000000000000000000000047a6f8c80"
                    },
                    {
                        "current": "0x0000000000000000000000000000000000000000000000000000000000000000",
                        "key": "0xd1573acfe02dd29f954783469b4cea1ee2a9fec80fe4c76be28bb3db21ddc75d",
                        "prev": "0x000000000000000000000000000000000000000000000000000000047b4c8ae0"
                    },
                    {
                        "current": "0x0000000000000000000000000000000000000000000000000000000000000000",
                        "key": "0xd1573acfe02dd29f954783469b4cea1ee2a9fec80fe4c76be28bb3db21ddc74f",
                        "prev": "0x00000000000000000000000000000000000000000000000000000004768fba40"
                    },
                    {
                        "current": "0x0000000000000000000000000000000000000000000000000000000000000000",
                        "key": "0xd1573acfe02dd29f954783469b4cea1ee2a9fec80fe4c76be28bb3db21ddc754",
                        "prev": "0x000000000000000000000000000000000000000000000000000000047adb97a4"
                    },
                    {
                        "current": "0x0000000000000000000000000000000000000000000000000000000000000000",
                        "key": "0xd1573acfe02dd29f954783469b4cea1ee2a9fec80fe4c76be28bb3db21ddc757",
                        "prev": "0x00000000000000000000000000000000000000000000000000000004795d3536"
                    },
                    {
                        "current": "0x0000000000000000000000000000000000000000000000000000000000000000",
                        "key": "0x75377527f9fb27c1f3d4b4159e19741c0e19deff365f65d1d5187fdd23cf47b6",
                        "prev": "0x000000000000000000000000000000110000000000000000000000000000000c"
                    },
                    {
                        "current": "0x0000000000000000000000000000000000000000000000000000000000000000",
                        "key": "0xd1573acfe02dd29f954783469b4cea1ee2a9fec80fe4c76be28bb3db21ddc75b",
                        "prev": "0x000000000000000000000000000000000000000000000000000000047a0d9d68"
                    },
                    {
                        "current": "0x0000000000000000000000000000000000000000000000000000000000000000",
                        "key": "0x0bf451f58accee8d8f61b14a38567e7354554872d56985cffb654b2449b34729",
                        "prev": "0x000000000000000000000000f5a3d443fccd7ee567000e43b23b0e98d96445ce"
                    },
                    {
                        "current": "0x0000000000000000000000000000000000000000000000000000000000000000",
                        "key": "0xd1573acfe02dd29f954783469b4cea1ee2a9fec80fe4c76be28bb3db21ddc755",
                        "prev": "0x000000000000000000000000000000000000000000000000000000047b4c8ae0"
                    },
                    {
                        "current": "0x0000000000000000000000000000000000000000000000000000000000000000",
                        "key": "0x75377527f9fb27c1f3d4b4159e19741c0e19deff365f65d1d5187fdd23cf47b7",
                        "prev": "0x0000000000000000000000000000000000000000000000000000000000000010"
                    },
                    {
                        "current": "0x0000000000000000000000000000000000000000000000000000000000000000",
                        "key": "0xd1573acfe02dd29f954783469b4cea1ee2a9fec80fe4c76be28bb3db21ddc751",
                        "prev": "0x000000000000000000000000000000000000000000000000000000047b4c8ae0"
                    },
                    {
                        "current": "0x0000000000000000000000000000000000000000000000000000000000000000",
                        "key": "0xd1573acfe02dd29f954783469b4cea1ee2a9fec80fe4c76be28bb3db21ddc74e",
                        "prev": "0x00000000000000000000000000000000000000000000000000000004785c28a4"
                    },
                    {
                        "current": "0x0000000000000000000000000000000000000000000000000000000000000000",
                        "key": "0xd1573acfe02dd29f954783469b4cea1ee2a9fec80fe4c76be28bb3db21ddc750",
                        "prev": "0x000000000000000000000000000000000000000000000000000000047a6f8c80"
                    }
                ],
                "storageVariables": [
                    {
                        "name": "currentAnswer",
                        "type": "int256",
                        "value": {
                            "current": "19234000000",
                            "prev": "19231954535",
                            "typeTag": 1
                        }
                    },
                    {
                        "name": "requestAnswers",
                        "type": "mapping(bytes32 => uint256)",
                        "value": {
                            "pairs": [
                                {
                                    "key": "0x28aaf76daf3f5c4ded9b42ffaa31f40e627f4ed009a11b8e6e9eacaf760033f3",
                                    "value": {
                                        "current": "0",
                                        "prev": "38400",
                                        "typeTag": 1
                                    }
                                }
                            ],
                            "typeTag": 4
                        }
                    },
                    {
                        "name": "pendingRequests",
                        "type": "mapping(bytes32 => address)",
                        "value": {
                            "pairs": [
                                {
                                    "key": "0x28aaf76daf3f5c4ded9b42ffaa31f40e627f4ed009a11b8e6e9eacaf760033f3",
                                    "value": {
                                        "current": "0x0000000000000000000000000000000000000000",
                                        "prev": "0xf5a3d443fccd7ee567000e43b23b0e98d96445ce",
                                        "typeTag": 1
                                    }
                                }
                            ],
                            "typeTag": 4
                        }
                    },
                    {
                        "name": "answers",
                        "type": "mapping(uint256 => struct Aggregator.Answer)",
                        "value": {
                            "pairs": [
                                {
                                    "key": "38400",
                                    "value": {
                                        "fields": [
                                            {
                                                "name": "minimumResponses",
                                                "type": "uint128",
                                                "value": {
                                                    "current": "0",
                                                    "prev": "12",
                                                    "typeTag": 1
                                                }
                                            },
                                            {
                                                "name": "maxResponses",
                                                "type": "uint128",
                                                "value": {
                                                    "current": "0",
                                                    "prev": "17",
                                                    "typeTag": 1
                                                }
                                            }
                                        ],
                                        "typeTag": 3
                                    }
                                }
                            ],
                            "typeTag": 4
                        }
                    }
                ]
            },
            {
                "address": "0xf5a3d443fccd7ee567000e43b23b0e98d96445ce",
                "erc": "",
                "slots": [
                    {
                        "current": "0x0000000000000000000000000000000000000000000000000000000000000000",
                        "key": "0xe716857445ae23a6b1be09844b3cf50c250a90aea187eee95035054bc2650c43",
                        "prev": "0xb8d89f68b5e6334b309b2917e1c34bd2ee8a97de2d4dc88adfc11359e63cb9f4"
                    },
                    {
                        "current": "0x000000000000000000000000000000000000000000000035e285658ff247fc1f",
                        "key": "0x0000000000000000000000000000000000000000000000000000000000000004",
                        "prev": "0x000000000000000000000000000000000000000000000035dde528a96526a6ca"
                    }
                ],
                "storageVariables": [
                    {
                        "name": "commitments",
                        "type": "mapping(bytes32 => bytes32)",
                        "value": {
                            "pairs": [
                                {
                                    "key": "0x28aaf76daf3f5c4ded9b42ffaa31f40e627f4ed009a11b8e6e9eacaf760033f3",
                                    "value": {
                                        "current": "0x0000000000000000000000000000000000000000000000000000000000000000",
                                        "prev": "0xb8d89f68b5e6334b309b2917e1c34bd2ee8a97de2d4dc88adfc11359e63cb9f4",
                                        "typeTag": 1
                                    }
                                }
                            ],
                            "typeTag": 4
                        }
                    },
                    {
                        "name": "withdrawableTokens",
                        "type": "uint256",
                        "value": {
                            "current": "993999999999999999007",
                            "prev": "993666666666666665674",
                            "typeTag": 1
                        }
                    }
                ]
            }
        ]
    }
}