{
    "balance_change": {
        "balanceChanges": [
            {
                "account": "0x29728d0efd284d85187362faa2d4d76c2cfc2612",
                "assets": [
                    {
                        "address": "0x0d8775f648430679a709e98d2b0cb6250d2887ef",
                        "amount": "65,932.574834",
                        "iconUrl": "https://assets.blocksec.com/icon/c5e7cd8dfdc41ede0b39a767b7a8b9ac3f98749148ad9c0ffe838d1ca4891ff1.png",
                        "isERC1155": false,
                        "isERC721": false,
                        "sign": true,
                        "value": "21509.30831"
                    }
                ]
            },
            {
                "account": "0x53e501ac5b03ab8178b311ab2a9f05f370b25214",
                "assets": [
                    {
                        "address": "0x0d8775f648430679a709e98d2b0cb6250d2887ef",
                        "amount": "65,932.574834",
                        "iconUrl": "https://assets.blocksec.com/icon/c5e7cd8dfdc41ede0b39a767b7a8b9ac3f98749148ad9c0ffe838d1ca4891ff1.png",
                        "isERC1155": false,
                        "isERC721": false,
                        "sign": false,
                        "value": "21509.30831"
                    }
                ]
            }
        ]
    },
    "profile": {
        "basic_info": {
            "baseFee": "",
            "blockNumber": 10775371,
            "callData": "0xc658695c0000000000000000000000000d8775f648430679a709e98d2b0cb6250d2887ef000000000000000000000000bebf1c31e05a62aa8d07003af177f07891889ad700000000000000000000000053e501ac5b03ab8178b311ab2a9f05f370b25214000000000000000000000000000000000000000000000df636487dc52581200000000000000000000000000000000000000000000000000000000000000000a000000000000000000000000000000000000000000000000000000000000000000000000000000000000000000000000000000000000000000000000000000000",
            "debugEnable": true,
            "errorInfo": "",
            "eventCount": 2,
            "feeRecipient": "0x5a0b54d5dc17e0aadc383d2db43b0a0d3e029c4c",
            "formatValue": "0",
            "gasLimit": 100000,
            "gasPrice": "450",
            "gasUsed": 36391,
            "intTxnCount": 4,
            "internalRevert": false,
            "internalRevertMessage": "",
            "isContractCreation": false,
            "isFlashloan": false,
            "maxFee": "",
            "nonce": 14462,
            "overwritedBlockNumber": -1,
            "priorityFee": "",
            "receiver": "0xa24787320ede4cc19d800bf87b41ab9539c4da9d",
            "revertMessage": "",
            "sender": "0x29728d0efd284d85187362faa2d4d76c2cfc2612",
            "simulationEnable": true,
            "sourceTxnHash": "0x2c91079875dc9b64e9c951ff8e835098501aa748d14d6a1baa77297a8b406f72",
            "status": true,
            "timestamp": "2020-09-01T12:50:19Z",
            "transactionFee": "0.01637595",
            "txnHash": "0x2c91079875dc9b64e9c951ff8e835098501aa748d14d6a1baa77297a8b406f72",
            "txnIndex": 174,
            "type": 0,
            "value": "0"
        },
        "fund_flow": [
            {
                "amount": "65,932.574834",
                "from": "0x53e501ac5b03ab8178b311ab2a9f05f370b25214",
                "id": 1,
                "isERC1155": false,
                "isERC721": false,
                "isReverted": false,
                "order": 1,
                "to": "0x29728d0efd284d85187362faa2d4d76c2cfc2612",
                "token": "0x0d8775f648430679a709e98d2b0cb6250d2887ef"
            }
        ],
        "token_infos": [
            {
                "address": "0xeeeeeeeeeeeeeeeeeeeeeeeeeeeeeeeeeeeeeeee",
                "decimals": 18
            },
            {
                "address": "0x0d8775f648430679a709e98d2b0cb6250d2887ef",
                "decimals": 18
            },
            {
                "address": "0xc02aaa39b223fe8d0a0e5c4f27ead9083c756cc2",
                "decimals": 18
            }
        ]
    },
    "address_label": {
        "labels": [
            {
                "address": "0x0000000000000000000000000000000000000002",
                "label": "Precompiled"
            },
            {
                "address": "0x0000000000000000000000000000000000000003",
                "label": "Precompiled"
            },
            {
                "address": "0x29728d0efd284d85187362faa2d4d76c2cfc2612",
                "label": "Kraken 9"
            },
            {
                "address": "0x0000000000000000000000000000000000000001",
                "label": "Precompiled"
            },
            {
                "address": "0x0d8775f648430679a709e98d2b0cb6250d2887ef",
                "label": "Basic Attention: BAT Token"
            },
            {
                "address": "0xa24787320ede4cc19d800bf87b41ab9539c4da9d",
                "label": "Kraken: Deployer 2"
            },
            {
                "address": "0x0000000000000000000000000000000000000004",
                "label": "Precompiled"
            },
            {
                "address": "0xeeeeeeeeeeeeeeeeeeeeeeeeeeeeeeeeeeeeeeee",
                "label": "Ether"
            },
            {
                "address": "0x53e501ac5b03ab8178b311ab2a9f05f370b25214",
                "label": "KRAKEN"
            }
        ]
    },
    "trace": {
        "accountLabels": null,
        "dataMap": {
            "-1": {
                "invocation": {
                    "address": "0x29728d0efd284d85187362faa2d4d76c2cfc2612",
                    "callData": "",
                    "decodedMethod": null,
                    "errorInfo": "",
                    "fromAddress": "",
                    "gasUsed": 0,
                    "id": -1,
                    "methodDecoded": false,
                    "operation": "",
                    "output": "",
                    "revert": false,
                    "revertMessage": "",
                    "selector": "",
                    "status": false,
                    "value": ""
                },
                "nodeType": 0
            },
            "0": {
                "invocation": {
                    "address": "0xa24787320ede4cc19d800bf87b41ab9539c4da9d",
                    "callData": "0x0000000000000000000000000d8775f648430679a709e98d2b0cb6250d2887ef000000000000000000000000bebf1c31e05a62aa8d07003af177f07891889ad700000000000000000000000053e501ac5b03ab8178b311ab2a9f05f370b25214000000000000000000000000000000000000000000000df636487dc52581200000000000000000000000000000000000000000000000000000000000000000a000000000000000000000000000000000000000000000000000000000000000000000000000000000000000000000000000000000000000000000000000000000",
                    "decodedMethod": null,
                    "errorInfo": "",
                    "fromAddress": "0x29728d0efd284d85187362faa2d4d76c2cfc2612",
                    "gasUsed": 36391,
                    "id": 0,
                    "methodDecoded": false,
                    "operation": "CALL",
                    "output": "",
                    "revert": false,
                    "revertMessage": "",
                    "selector": "0xc658695c",
                    "status": true,
                    "value": "0"
                },
                "nodeType": 0
            },
            "1": {
                "invocation": {
                    "address": "0x1667c9c6dfeb1b7aeddf7d4cf0e204cd9dc05037",
                    "callData": "0x0000000000000000000000000d8775f648430679a709e98d2b0cb6250d2887ef000000000000000000000000bebf1c31e05a62aa8d07003af177f07891889ad700000000000000000000000053e501ac5b03ab8178b311ab2a9f05f370b25214000000000000000000000000000000000000000000000df636487dc52581200000000000000000000000000000000000000000000000000000000000000000a000000000000000000000000000000000000000000000000000000000000000000000000000000000000000000000000000000000000000000000000000000000",
                    "decodedMethod": null,
                    "errorInfo": "",
                    "fromAddress": "0xa24787320ede4cc19d800bf87b41ab9539c4da9d",
                    "gasUsed": 25841,
                    "id": 1,
                    "methodDecoded": false,
                    "operation": "DELEGATECALL",
                    "output": "",
                    "revert": false,
                    "revertMessage": "",
                    "selector": "0xc658695c",
                    "status": true,
                    "value": "0"
                },
                "nodeType": 0
            },
            "2": {
                "invocation": {
                    "address": "0x53e501ac5b03ab8178b311ab2a9f05f370b25214",
                    "callData": "0x0000000000000000000000000d8775f648430679a709e98d2b0cb6250d2887ef000000000000000000000000bebf1c31e05a62aa8d07003af177f07891889ad700000000000000000000000029728d0efd284d85187362faa2d4d76c2cfc2612000000000000000000000000000000000000000000000df636487dc52581200000000000000000000000000000000000000000000000000000000000000000a00000000000000000000000000000000000000000000000000000000000000000",
                    "decodedMethod": null,
                    "errorInfo": "",
                    "fromAddress": "0xa24787320ede4cc19d800bf87b41ab9539c4da9d",
                    "gasUsed": 21538,
                    "id": 2,
                    "methodDecoded": false,
                    "operation": "CALL",
                    "output": "",
                    "revert": false,
                    "revertMessage": "",
                    "selector": "0xc658695c",
                    "status": true,
                    "value": "0"
                },
                "nodeType": 0
            },
            "3": {
                "invocation": {
                    "address": "0xbebf1c31e05a62aa8d07003af177f07891889ad7",
                    "callData": "0x0000000000000000000000000d8775f648430679a709e98d2b0cb6250d2887ef000000000000000000000000bebf1c31e05a62aa8d07003af177f07891889ad700000000000000000000000029728d0efd284d85187362faa2d4d76c2cfc2612000000000000000000000000000000000000000000000df636487dc52581200000000000000000000000000000000000000000000000000000000000000000a00000000000000000000000000000000000000000000000000000000000000000",
                    "decodedMethod": null,
                    "errorInfo": "",
                    "fromAddress": "0x53e501ac5b03ab8178b311ab2a9f05f370b25214",
                    "gasUsed": 19389,
                    "id": 3,
                    "methodDecoded": false,
                    "operation": "DELEGATECALL",
                    "output": "",
                    "revert": false,
                    "revertMessage": "",
                    "selector": "0xc658695c",
                    "status": true,
                    "value": "0"
                },
                "nodeType": 0
            },
            "4": {
                "invocation": {
                    "address": "0x0d8775f648430679a709e98d2b0cb6250d2887ef",
                    "callData": "0x00000000000000000000000029728d0efd284d85187362faa2d4d76c2cfc2612000000000000000000000000000000000000000000000df636487dc525812000",
                    "decodedMethod": {
                        "callParams": [
                            {
                                "name": "_to",
                                "type": "address",
                                "value": "0x29728d0efd284d85187362faa2d4d76c2cfc2612"
                            },
                            {
                                "decimalAvailable": true,
                                "name": "_value",
                                "type": "uint256",
                                "value": "65,932,574,834,000,000,000,000"
                            }
                        ],
                        "constructorArguments": "",
                        "name": "transfer",
                        "returnParams": [
                            {
                                "name": "success",
                                "type": "bool",
                                "value": true
                            }
                        ],
                        "signature": "transfer(address,uint256)"
                    },
                    "errorInfo": "",
                    "fromAddress": "0x53e501ac5b03ab8178b311ab2a9f05f370b25214",
                    "gasUsed": 15396,
                    "id": 4,
                    "methodDecoded": true,
                    "operation": "CALL",
                    "output": "0x0000000000000000000000000000000000000000000000000000000000000001",
                    "revert": false,
                    "revertMessage": "",
                    "selector": "0xa9059cbb",
                    "status": true,
                    "value": "0"
                },
                "nodeType": 0
            },
            "5": {
                "event": {
                    "contract": "0x0d8775f648430679a709e98d2b0cb6250d2887ef",
                    "decodedLog": {
                        "name": "Transfer",
                        "params": [
                            {
                                "name": "_from",
                                "type": "address",
                                "value": "0x53e501ac5b03ab8178b311ab2a9f05f370b25214"
                            },
                            {
                                "name": "_to",
                                "type": "address",
                                "value": "0x29728d0efd284d85187362faa2d4d76c2cfc2612"
                            },
                            {
                                "decimalAvailable": true,
                                "name": "_value",
                                "type": "uint256",
                                "value": "65,932,574,834,000,000,000,000"
                            }
                        ],
                        "signature": "Transfer(address,address,uint256)"
                    },
                    "id": 5,
                    "logData": "0x000000000000000000000000000000000000000000000df636487dc525812000",
                    "logDecoded": true,
                    "operation": "EVENT",
                    "revert": false,
                    "status": true,
                    "topics": [
                        "0xddf252ad1be2c89b69c2b068fc378daa952ba7f163c4a11628f55a4df523b3ef",
                        "0x00000000000000000000000053e501ac5b03ab8178b311ab2a9f05f370b25214",
                        "0x00000000000000000000000029728d0efd284d85187362faa2d4d76c2cfc2612"
                    ]
                },
                "nodeType": 1
            },
            "6": {
                "event": {
                    "contract": "0x53e501ac5b03ab8178b311ab2a9f05f370b25214",
                    "decodedLog": {
                        "name": "TokenTransfer",
                        "params": [
                            {
                                "name": "from",
                                "type": "address",
                                "value": "0x0d8775f648430679a709e98d2b0cb6250d2887ef"
                            },
                            {
                                "name": "to",
                                "type": "address",
                                "value": "0x29728d0efd284d85187362faa2d4d76c2cfc2612"
                            },
                            {
                                "name": "amount",
                                "type": "uint256",
                                "value": "65,932,574,834,000,000,000,000"
                            }
                        ],
                        "signature": "TokenTransfer(address,address,uint256)"
                    },
                    "id": 6,
                    "logData": "0x000000000000000000000000000000000000000000000df636487dc525812000",
                    "logDecoded": true,
                    "operation": "EVENT",
                    "revert": false,
                    "status": true,
                    "topics": [
                        "0xd0ed88a3f042c6bbb1e3ea406079b5f2b4b198afccaa535d837f4c63abbc4de6",
                        "0x0000000000000000000000000d8775f648430679a709e98d2b0cb6250d2887ef",
                        "0x00000000000000000000000029728d0efd284d85187362faa2d4d76c2cfc2612"
                    ]
                },
                "nodeType": 1
            }
        },
        "gasFlame": [
            {
                "children": [
                    {
                        "children": [
                            {
                                "children": [],
                                "depth": 0,
                                "name": "Initial Gas",
                                "value": 22788
                            },
                            {
                                "children": [
                                    {
                                        "children": [
                                            {
                                                "children": [
                                                    {
                                                        "children": [
                                                            {
                                                                "children": [],
                                                                "depth": 4,
                                                                "name": "transfer",
                                                                "value": 15396
                                                            }
                                                        ],
                                                        "depth": 3,
                                                        "name": "0xc658695c",
                                                        "value": 19389
                                                    }
                                                ],
                                                "depth": 2,
                                                "name": "0xc658695c",
                                                "value": 21538
                                            }
                                        ],
                                        "depth": 1,
                                        "name": "0xc658695c",
                                        "value": 25841
                                    }
                                ],
                                "depth": 0,
                                "name": "Executed Gas",
                                "value": 28603
                            }
                        ],
                        "depth": -1,
                        "name": "Actual Gas Used",
                        "value": 36391
                    },
                    {
                        "children": [],
                        "depth": -1,
                        "name": "Refunded Gas",
                        "value": 15000
                    }
                ],
                "depth": -2,
                "name": "Total Gas",
                "value": 51391
            }
        ],
        "isConfirmed": true,
        "mainTrace": [
            {
                "children": [
                    {
                        "children": [
                            {
                                "children": [
                                    {
                                        "children": [
                                            {
                                                "children": [
                                                    {
                                                        "children": [
                                                            {
                                                                "children": [],
                                                                "depth": 5,
                                                                "id": 5,
                                                                "order": 5
                                                            }
                                                        ],
                                                        "depth": 4,
                                                        "id": 4,
                                                        "order": 4
                                                    },
                                                    {
                                                        "children": [],
                                                        "depth": 4,
                                                        "id": 6,
                                                        "order": 6
                                                    }
                                                ],
                                                "depth": 3,
                                                "id": 3,
                                                "order": 3
                                            }
                                        ],
                                        "depth": 2,
                                        "id": 2,
                                        "order": 2
                                    }
                                ],
                                "depth": 1,
                                "id": 1,
                                "order": 1
                            }
                        ],
                        "depth": 0,
                        "id": 0,
                        "order": 0
                    }
                ],
                "depth": -1,
                "id": -1,
                "order": -1
            }
        ],
        "mainTraceNodeCount": 7,
        "parentIdMap": {
            "0": -1,
            "1": 0,
            "2": 1,
            "3": 2,
            "4": 3,
            "5": 4,
            "6": 3
        },
        "tidyTrace": [
            {
                "children": [
                    {
                        "children": [
                            {
                                "children": [
                                    {
                                        "children": [
                                            {
                                                "children": [
                                                    {
                                                        "children": [
                                                            {
                                                                "children": [],
                                                                "depth": 5,
                                                                "id": 5,
                                                                "order": 5
                                                            }
                                                        ],
                                                        "depth": 4,
                                                        "id": 4,
                                                        "order": 4
                                                    },
                                                    {
                                                        "children": [],
                                                        "depth": 4,
                                                        "id": 6,
                                                        "order": 6
                                                    }
                                                ],
                                                "depth": 3,
                                                "id": 3,
                                                "order": 3
                                            }
                                        ],
                                        "depth": 2,
                                        "id": 2,
                                        "order": 2
                                    }
                                ],
                                "depth": 1,
                                "id": 1,
                                "order": 1
                            }
                        ],
                        "depth": 0,
                        "id": 0,
                        "order": 0
                    }
                ],
                "depth": -1,
                "id": -1,
                "order": -1
            }
        ],
        "tidyTraceNodeCount": 7
    },
    "state_change": {
        "stateChanges": [
            {
                "address": "0x0d8775f648430679a709e98d2b0cb6250d2887ef",
                "erc": "ERC-20",
                "slots": [
                    {
                        "current": "0x0000000000000000000000000000000000000000000000000000000000000000",
                        "key": "0xe091de54af4d0af99c30d468e94088e8f83805f987fb996645456fe982637620",
                        "prev": "0x000000000000000000000000000000000000000000000df636487dc525812000"
                    },
                    {
                        "current": "0x00000000000000000000000000000000000000000015916d05e502491dba58af",
                        "key": "0x4e577060317f9b1ec3e57ebd1f908a7a6748685e70be622f11091558cb482c23",
                        "prev": "0x000000000000000000000000000000000000000000158376cf9c8483f83938af"
                    }
                ],
                "storageVariables": []
            }
        ]
    }
}