{
    "balance_change": {
        "balanceChanges": [
            {
                "account": "0x198f1e071db6014e26dae7ecdfb43d21d1adf736",
                "assets": [
                    {
                        "address": "0xeeeeeeeeeeeeeeeeeeeeeeeeeeeeeeeeeeeeeeee",
                        "amount": "1.9",
                        "iconUrl": "https://assets.blocksec.com/image/1663669189317-3.png",
                        "isERC1155": false,
                        "isERC721": false,
                        "sign": false,
                        "value": ""
                    }
                ]
            },
            {
                "account": "0x4b667a378c1d9b2134cc4fa02d9cfba2cc2b11d4",
                "assets": [
                    {
                        "address": "0xeeeeeeeeeeeeeeeeeeeeeeeeeeeeeeeeeeeeeeee",
                        "amount": "1.9",
                        "iconUrl": "https://assets.blocksec.com/image/1663669189317-3.png",
                        "isERC1155": false,
                        "isERC721": false,
                        "sign": true,
                        "value": ""
                    }
                ]
            }
        ]
    },
    "profile": {
        "basic_info": {
            "baseFee": "",
            "blockNumber": 3792889,
            "callData": "0x99e9376c00000000000000000000000000000000b0610434d06d4fabbee01ad0ab902468",
            "debugEnable": true,
            "errorInfo": "",
            "eventCount": 3,
            "feeRecipient": "0xea674fdde714fd979de3edf0f56aa9716b898ec8",
            "formatValue": "1.9",
            "gasLimit": 250000,
            "gasPrice": "21",
            "gasUsed": 175308,
            "intTxnCount": 23,
            "internalRevert": false,
            "internalRevertMessage": "",
            "isContractCreation": false,
            "isFlashloan": false,
            "maxFee": "",
            "nonce": 1,
            "overwritedBlockNumber": -1,
            "priorityFee": "",
            "receiver": "0xe7e01babb53c98f8d84d05dfff64ebb63ed37bf5",
            "revertMessage": "",
            "sender": "0x198f1e071db6014e26dae7ecdfb43d21d1adf736",
            "simulationEnable": true,
            "sourceTxnHash": "0x2c171d54c2bb99a2a2efcc09f4767d184bc0088efab12dcb5b321f443afe342c",
            "status": true,
            "timestamp": "2017-05-30T13:34:46Z",
            "transactionFee": "0.003681468",
            "txnHash": "0x2c171d54c2bb99a2a2efcc09f4767d184bc0088efab12dcb5b321f443afe342c",
            "txnIndex": 18,
            "type": 0,
            "value": "1900000000000000000"
        },
        "fund_flow": [
            {
                "amount": "1.9",
                "from": "0x198f1e071db6014e26dae7ecdfb43d21d1adf736",
                "id": 1,
                "isERC1155": false,
                "isERC721": false,
                "isReverted": false,
                "order": 1,
                "to": "0xe7e01babb53c98f8d84d05dfff64ebb63ed37bf5",
                "token": "0xeeeeeeeeeeeeeeeeeeeeeeeeeeeeeeeeeeeeeeee"
            },
            {
                "amount": "1.9",
                "from": "0xe7e01babb53c98f8d84d05dfff64ebb63ed37bf5",
                "id": 2,
                "isERC1155": false,
                "isERC721": false,
                "isReverted": false,
                "order": 2,
                "to": "0x4b667a378c1d9b2134cc4fa02d9cfba2cc2b11d4",
                "token": "0xeeeeeeeeeeeeeeeeeeeeeeeeeeeeeeeeeeeeeeee"
            }
        ],
        "token_infos": [
            {
                "address": "0xc02aaa39b223fe8d0a0e5c4f27ead9083c756cc2",
                "decimals": 18
            },
            {
                "address": "0xeeeeeeeeeeeeeeeeeeeeeeeeeeeeeeeeeeeeeeee",
                "decimals": 18
            }
        ]
    },
    "address_label": {
        "labels": [
            {
                "address": "0x0000000000000000000000000000000000000002",
                "label": "Precompiled"
            },
            {
                "address": "0x0000000000000000000000000000000000000004",
                "label": "Precompiled"
            },
            {
                "address": "0xa645264c5603e96c3b0b078cdab68733794b0a71",
                "label": "Mysterium Token"
            },
            {
                "address": "0xd2b34de9882923df7a97fbe37f15ba7c2e3deefd",
                "label": "MysteriumPricing"
            },
            {
                "address": "0x4b667a378c1d9b2134cc4fa02d9cfba2cc2b11d4",
                "label": "IntermediateVault"
            },
            {
                "address": "0x1ce00ddca2854ff2ddc7962575c49d2ba9c1243a",
                "label": "MysteriumTokenDistribution"
            },
            {
                "address": "0xe7e01babb53c98f8d84d05dfff64ebb63ed37bf5",
                "label": "MysteriumCrowdsale"
            },
            {
                "address": "0xeeeeeeeeeeeeeeeeeeeeeeeeeeeeeeeeeeeeeeee",
                "label": "Ether"
            },
            {
                "address": "0x0000000000000000000000000000000000000001",
                "label": "Precompiled"
            },
            {
                "address": "0x0000000000000000000000000000000000000003",
                "label": "Precompiled"
            }
        ]
    },
    "trace": {
        "accountLabels": null,
        "dataMap": {
            "-1": {
                "invocation": {
                    "address": "0x198f1e071db6014e26dae7ecdfb43d21d1adf736",
                    "callData": "",
                    "decodedMethod": null,
                    "errorInfo": "",
                    "fromAddress": "",
                    "gasUsed": 0,
                    "id": -1,
                    "methodDecoded": false,
                    "operation": "",
                    "output": "",
                    "revert": false,
                    "revertMessage": "",
                    "selector": "",
                    "status": false,
                    "value": ""
                },
                "nodeType": 0
            },
            "0": {
                "invocation": {
                    "address": "0xe7e01babb53c98f8d84d05dfff64ebb63ed37bf5",
                    "callData": "0x00000000000000000000000000000000b0610434d06d4fabbee01ad0ab902468",
                    "decodedMethod": {
                        "callParams": [
                            {
                                "name": "customerId",
                                "type": "uint128",
                                "value": "234,447,865,367,430,968,451,741,926,333,191,562,344"
                            }
                        ],
                        "constructorArguments": "",
                        "name": "buyWithCustomerId",
                        "returnParams": [],
                        "signature": "buyWithCustomerId(uint128)"
                    },
                    "errorInfo": "",
                    "fromAddress": "0x198f1e071db6014e26dae7ecdfb43d21d1adf736",
                    "gasUsed": 175308,
                    "id": 0,
                    "methodDecoded": true,
                    "operation": "CALL",
                    "output": "",
                    "revert": false,
                    "revertMessage": "",
                    "selector": "0x99e9376c",
                    "status": true,
                    "value": "1.9"
                },
                "nodeType": 0
            },
            "1": {
                "invocation": {
                    "address": "0x1ce00ddca2854ff2ddc7962575c49d2ba9c1243a",
                    "callData": "0x",
                    "decodedMethod": {
                        "callParams": [],
                        "constructorArguments": "",
                        "name": "isSane",
                        "returnParams": [
                            {
                                "name": "",
                                "type": "bool",
                                "value": true
                            }
                        ],
                        "signature": "isSane()"
                    },
                    "errorInfo": "",
                    "fromAddress": "0xe7e01babb53c98f8d84d05dfff64ebb63ed37bf5",
                    "gasUsed": 525,
                    "id": 1,
                    "methodDecoded": true,
                    "operation": "CALL",
                    "output": "0x0000000000000000000000000000000000000000000000000000000000000001",
                    "revert": false,
                    "revertMessage": "",
                    "selector": "0x82771c8e",
                    "status": true,
                    "value": "0"
                },
                "nodeType": 0
            },
            "10": {
                "invocation": {
                    "address": "0xd2b34de9882923df7a97fbe37f15ba7c2e3deefd",
                    "callData": "0x0000000000000000000000000000000000000000000000001a5e27eef13e0000000000000000000000000000000000000000000000000d4eddddc05dcb80f878000000000000000000000000000000000000000000000000000502fb1bbfd2a6000000000000000000000000198f1e071db6014e26dae7ecdfb43d21d1adf7360000000000000000000000000000000000000000000000000000000000000008",
                    "decodedMethod": {
                        "callParams": [
                            {
                                "name": "value",
                                "type": "uint256",
                                "value": "1,900,000,000,000,000,000"
                            },
                            {
                                "name": "weiRaised",
                                "type": "uint256",
                                "value": "62,845,597,460,816,046,651,512"
                            },
                            {
                                "name": "tokensSold",
                                "type": "uint256",
                                "value": "1,410,652,409,156,262"
                            },
                            {
                                "name": "msgSender",
                                "type": "address",
                                "value": "0x198f1e071db6014e26dae7ecdfb43d21d1adf736"
                            },
                            {
                                "name": "decimals",
                                "type": "uint256",
                                "value": "8"
                            }
                        ],
                        "constructorArguments": "",
                        "name": "calculatePrice",
                        "returnParams": [
                            {
                                "name": "",
                                "type": "uint256",
                                "value": "38,760,000,000"
                            }
                        ],
                        "signature": "calculatePrice(uint256,uint256,uint256,address,uint256)"
                    },
                    "errorInfo": "",
                    "fromAddress": "0xe7e01babb53c98f8d84d05dfff64ebb63ed37bf5",
                    "gasUsed": 7577,
                    "id": 10,
                    "methodDecoded": true,
                    "operation": "CALL",
                    "output": "0x000000000000000000000000000000000000000000000000000000090646aa00",
                    "revert": false,
                    "revertMessage": "",
                    "selector": "0x18a4155e",
                    "status": true,
                    "value": "0"
                },
                "nodeType": 0
            },
            "11": {
                "invocation": {
                    "address": "0xc1920e58cef5774011d585fb5aa14c64453416eb",
                    "callData": "0x0000000000000000000000000000000000000000000000000000000df84758000000000000000000000000000000000000000000000000000de0b6b3a7640000",
                    "decodedMethod": {
                        "callParams": [
                            {
                                "name": "a",
                                "type": "uint256",
                                "value": "60,000,000,000"
                            },
                            {
                                "name": "b",
                                "type": "uint256",
                                "value": "1,000,000,000,000,000,000"
                            }
                        ],
                        "constructorArguments": "",
                        "name": "times",
                        "returnParams": [
                            {
                                "name": "",
                                "type": "uint256",
                                "value": "60,000,000,000,000,000,000,000,000,000"
                            }
                        ],
                        "signature": "times(uint256,uint256)"
                    },
                    "errorInfo": "",
                    "fromAddress": "0xd2b34de9882923df7a97fbe37f15ba7c2e3deefd",
                    "gasUsed": 351,
                    "id": 11,
                    "methodDecoded": true,
                    "operation": "DELEGATECALL",
                    "output": "0x0000000000000000000000000000000000000000c1ded63574de0e4660000000",
                    "revert": false,
                    "revertMessage": "",
                    "selector": "0x1d3b9edf",
                    "status": true,
                    "value": "0"
                },
                "nodeType": 0
            },
            "12": {
                "invocation": {
                    "address": "0xc1920e58cef5774011d585fb5aa14c64453416eb",
                    "callData": "0x00000000000000000000000000000000000000000000000000000000000027100000000000000000000000000000000000000000000000000de0b6b3a7640000",
                    "decodedMethod": {
                        "callParams": [
                            {
                                "name": "a",
                                "type": "uint256",
                                "value": "10,000"
                            },
                            {
                                "name": "b",
                                "type": "uint256",
                                "value": "1,000,000,000,000,000,000"
                            }
                        ],
                        "constructorArguments": "",
                        "name": "times",
                        "returnParams": [
                            {
                                "name": "",
                                "type": "uint256",
                                "value": "10,000,000,000,000,000,000,000"
                            }
                        ],
                        "signature": "times(uint256,uint256)"
                    },
                    "errorInfo": "",
                    "fromAddress": "0xd2b34de9882923df7a97fbe37f15ba7c2e3deefd",
                    "gasUsed": 351,
                    "id": 12,
                    "methodDecoded": true,
                    "operation": "DELEGATECALL",
                    "output": "0x00000000000000000000000000000000000000000000021e19e0c9bab2400000",
                    "revert": false,
                    "revertMessage": "",
                    "selector": "0x1d3b9edf",
                    "status": true,
                    "value": "0"
                },
                "nodeType": 0
            },
            "13": {
                "invocation": {
                    "address": "0xc1920e58cef5774011d585fb5aa14c64453416eb",
                    "callData": "0x0000000000000000000000000000000000000000000000001a5e27eef13e00000000000000000000000000000000000000000000000000000000000005f5e100",
                    "decodedMethod": {
                        "callParams": [
                            {
                                "name": "a",
                                "type": "uint256",
                                "value": "1,900,000,000,000,000,000"
                            },
                            {
                                "name": "b",
                                "type": "uint256",
                                "value": "100,000,000"
                            }
                        ],
                        "constructorArguments": "",
                        "name": "times",
                        "returnParams": [
                            {
                                "name": "",
                                "type": "uint256",
                                "value": "190,000,000,000,000,000,000,000,000"
                            }
                        ],
                        "signature": "times(uint256,uint256)"
                    },
                    "errorInfo": "",
                    "fromAddress": "0xd2b34de9882923df7a97fbe37f15ba7c2e3deefd",
                    "gasUsed": 351,
                    "id": 13,
                    "methodDecoded": true,
                    "operation": "DELEGATECALL",
                    "output": "0x0000000000000000000000000000000000000000009d2a10a37c185d7e000000",
                    "revert": false,
                    "revertMessage": "",
                    "selector": "0x1d3b9edf",
                    "status": true,
                    "value": "0"
                },
                "nodeType": 0
            },
            "14": {
                "invocation": {
                    "address": "0x18d34f17ec6aee423d5551d7e449ad976b43e20d",
                    "callData": "0x00000000000000000000000000000000000000000000000000000000000000000000000000000000000000000000000000000000000000001a5e27eef13e0000",
                    "decodedMethod": {
                        "callParams": [
                            {
                                "name": "a",
                                "type": "uint256",
                                "value": "0"
                            },
                            {
                                "name": "b",
                                "type": "uint256",
                                "value": "1,900,000,000,000,000,000"
                            }
                        ],
                        "constructorArguments": "",
                        "name": "plus",
                        "returnParams": [
                            {
                                "name": "",
                                "type": "uint256",
                                "value": "1,900,000,000,000,000,000"
                            }
                        ],
                        "signature": "plus(uint256,uint256)"
                    },
                    "errorInfo": "",
                    "fromAddress": "0xe7e01babb53c98f8d84d05dfff64ebb63ed37bf5",
                    "gasUsed": 356,
                    "id": 14,
                    "methodDecoded": true,
                    "operation": "DELEGATECALL",
                    "output": "0x0000000000000000000000000000000000000000000000001a5e27eef13e0000",
                    "revert": false,
                    "revertMessage": "",
                    "selector": "0x66098d4f",
                    "status": true,
                    "value": "1.9"
                },
                "nodeType": 0
            },
            "15": {
                "invocation": {
                    "address": "0x18d34f17ec6aee423d5551d7e449ad976b43e20d",
                    "callData": "0x0000000000000000000000000000000000000000000000000000000000000000000000000000000000000000000000000000000000000000000000090646aa00",
                    "decodedMethod": {
                        "callParams": [
                            {
                                "name": "a",
                                "type": "uint256",
                                "value": "0"
                            },
                            {
                                "name": "b",
                                "type": "uint256",
                                "value": "38,760,000,000"
                            }
                        ],
                        "constructorArguments": "",
                        "name": "plus",
                        "returnParams": [
                            {
                                "name": "",
                                "type": "uint256",
                                "value": "38,760,000,000"
                            }
                        ],
                        "signature": "plus(uint256,uint256)"
                    },
                    "errorInfo": "",
                    "fromAddress": "0xe7e01babb53c98f8d84d05dfff64ebb63ed37bf5",
                    "gasUsed": 356,
                    "id": 15,
                    "methodDecoded": true,
                    "operation": "DELEGATECALL",
                    "output": "0x000000000000000000000000000000000000000000000000000000090646aa00",
                    "revert": false,
                    "revertMessage": "",
                    "selector": "0x66098d4f",
                    "status": true,
                    "value": "1.9"
                },
                "nodeType": 0
            },
            "16": {
                "invocation": {
                    "address": "0x18d34f17ec6aee423d5551d7e449ad976b43e20d",
                    "callData": "0x000000000000000000000000000000000000000000000d4eddddc05dcb80f8780000000000000000000000000000000000000000000000001a5e27eef13e0000",
                    "decodedMethod": {
                        "callParams": [
                            {
                                "name": "a",
                                "type": "uint256",
                                "value": "62,845,597,460,816,046,651,512"
                            },
                            {
                                "name": "b",
                                "type": "uint256",
                                "value": "1,900,000,000,000,000,000"
                            }
                        ],
                        "constructorArguments": "",
                        "name": "plus",
                        "returnParams": [
                            {
                                "name": "",
                                "type": "uint256",
                                "value": "62,847,497,460,816,046,651,512"
                            }
                        ],
                        "signature": "plus(uint256,uint256)"
                    },
                    "errorInfo": "",
                    "fromAddress": "0xe7e01babb53c98f8d84d05dfff64ebb63ed37bf5",
                    "gasUsed": 356,
                    "id": 16,
                    "methodDecoded": true,
                    "operation": "DELEGATECALL",
                    "output": "0x000000000000000000000000000000000000000000000d4ef83be84cbcbef878",
                    "revert": false,
                    "revertMessage": "",
                    "selector": "0x66098d4f",
                    "status": true,
                    "value": "1.9"
                },
                "nodeType": 0
            },
            "17": {
                "invocation": {
                    "address": "0x18d34f17ec6aee423d5551d7e449ad976b43e20d",
                    "callData": "0x000000000000000000000000000000000000000000000000000502fb1bbfd2a6000000000000000000000000000000000000000000000000000000090646aa00",
                    "decodedMethod": {
                        "callParams": [
                            {
                                "name": "a",
                                "type": "uint256",
                                "value": "1,410,652,409,156,262"
                            },
                            {
                                "name": "b",
                                "type": "uint256",
                                "value": "38,760,000,000"
                            }
                        ],
                        "constructorArguments": "",
                        "name": "plus",
                        "returnParams": [
                            {
                                "name": "",
                                "type": "uint256",
                                "value": "1,410,691,169,156,262"
                            }
                        ],
                        "signature": "plus(uint256,uint256)"
                    },
                    "errorInfo": "",
                    "fromAddress": "0xe7e01babb53c98f8d84d05dfff64ebb63ed37bf5",
                    "gasUsed": 356,
                    "id": 17,
                    "methodDecoded": true,
                    "operation": "DELEGATECALL",
                    "output": "0x0000000000000000000000000000000000000000000000000005030422067ca6",
                    "revert": false,
                    "revertMessage": "",
                    "selector": "0x66098d4f",
                    "status": true,
                    "value": "1.9"
                },
                "nodeType": 0
            },
            "18": {
                "invocation": {
                    "address": "0xd2b34de9882923df7a97fbe37f15ba7c2e3deefd",
                    "callData": "0x0000000000000000000000000000000000000000000000000000002098a67800",
                    "decodedMethod": {
                        "callParams": [
                            {
                                "name": "chf",
                                "type": "uint256",
                                "value": "140,000,000,000"
                            }
                        ],
                        "constructorArguments": "",
                        "name": "convertToWei",
                        "returnParams": [
                            {
                                "name": "",
                                "type": "uint256",
                                "value": "68,627,450,980,392,156,862,745"
                            }
                        ],
                        "signature": "convertToWei(uint256)"
                    },
                    "errorInfo": "",
                    "fromAddress": "0xe7e01babb53c98f8d84d05dfff64ebb63ed37bf5",
                    "gasUsed": 2780,
                    "id": 18,
                    "methodDecoded": true,
                    "operation": "CALL",
                    "output": "0x000000000000000000000000000000000000000000000e884d33d6d917991919",
                    "revert": false,
                    "revertMessage": "",
                    "selector": "0xa60dc38a",
                    "status": true,
                    "value": "0"
                },
                "nodeType": 0
            },
            "19": {
                "invocation": {
                    "address": "0xc1920e58cef5774011d585fb5aa14c64453416eb",
                    "callData": "0x0000000000000000000000000000000000000000000000000000002098a678000000000000000000000000000000000000000000000000000de0b6b3a7640000",
                    "decodedMethod": {
                        "callParams": [
                            {
                                "name": "a",
                                "type": "uint256",
                                "value": "140,000,000,000"
                            },
                            {
                                "name": "b",
                                "type": "uint256",
                                "value": "1,000,000,000,000,000,000"
                            }
                        ],
                        "constructorArguments": "",
                        "name": "times",
                        "returnParams": [
                            {
                                "name": "",
                                "type": "uint256",
                                "value": "140,000,000,000,000,000,000,000,000,000"
                            }
                        ],
                        "signature": "times(uint256,uint256)"
                    },
                    "errorInfo": "",
                    "fromAddress": "0xd2b34de9882923df7a97fbe37f15ba7c2e3deefd",
                    "gasUsed": 351,
                    "id": 19,
                    "methodDecoded": true,
                    "operation": "DELEGATECALL",
                    "output": "0x0000000000000000000000000000000000000001c45d49276606214ee0000000",
                    "revert": false,
                    "revertMessage": "",
                    "selector": "0x1d3b9edf",
                    "status": true,
                    "value": "0"
                },
                "nodeType": 0
            },
            "2": {
                "invocation": {
                    "address": "0xd2b34de9882923df7a97fbe37f15ba7c2e3deefd",
                    "callData": "0x000000000000000000000000e7e01babb53c98f8d84d05dfff64ebb63ed37bf5",
                    "decodedMethod": {
                        "callParams": [
                            {
                                "name": "crowdsale",
                                "type": "address",
                                "value": "0xe7e01babb53c98f8d84d05dfff64ebb63ed37bf5"
                            }
                        ],
                        "constructorArguments": "",
                        "name": "isSane",
                        "returnParams": [
                            {
                                "name": "",
                                "type": "bool",
                                "value": true
                            }
                        ],
                        "signature": "isSane(address)"
                    },
                    "errorInfo": "",
                    "fromAddress": "0xe7e01babb53c98f8d84d05dfff64ebb63ed37bf5",
                    "gasUsed": 545,
                    "id": 2,
                    "methodDecoded": true,
                    "operation": "CALL",
                    "output": "0x0000000000000000000000000000000000000000000000000000000000000001",
                    "revert": false,
                    "revertMessage": "",
                    "selector": "0x8e768288",
                    "status": true,
                    "value": "0"
                },
                "nodeType": 0
            },
            "20": {
                "invocation": {
                    "address": "0xa645264c5603e96c3b0b078cdab68733794b0a71",
                    "callData": "0x000000000000000000000000198f1e071db6014e26dae7ecdfb43d21d1adf736000000000000000000000000000000000000000000000000000000090646aa00",
                    "decodedMethod": {
                        "callParams": [
                            {
                                "name": "receiver",
                                "type": "address",
                                "value": "0x198f1e071db6014e26dae7ecdfb43d21d1adf736"
                            },
                            {
                                "name": "amount",
                                "type": "uint256",
                                "value": "38,760,000,000"
                            }
                        ],
                        "constructorArguments": "",
                        "name": "mint",
                        "returnParams": [],
                        "signature": "mint(address,uint256)"
                    },
                    "errorInfo": "",
                    "fromAddress": "0xe7e01babb53c98f8d84d05dfff64ebb63ed37bf5",
                    "gasUsed": 32096,
                    "id": 20,
                    "methodDecoded": true,
                    "operation": "CALL",
                    "output": "",
                    "revert": false,
                    "revertMessage": "",
                    "selector": "0x40c10f19",
                    "status": true,
                    "value": "0"
                },
                "nodeType": 0
            },
            "21": {
                "invocation": {
                    "address": "0x66e853cd839e4c52415a03f13c34af1879c7a50f",
                    "callData": "0x000000000000000000000000000000000000000000000000000502fb1bbfd2a6000000000000000000000000000000000000000000000000000000090646aa00",
                    "decodedMethod": {
                        "callParams": [
                            {
                                "name": "a",
                                "type": "uint256",
                                "value": "1,410,652,409,156,262"
                            },
                            {
                                "name": "b",
                                "type": "uint256",
                                "value": "38,760,000,000"
                            }
                        ],
                        "constructorArguments": "",
                        "name": "plus",
                        "returnParams": [
                            {
                                "name": "",
                                "type": "uint256",
                                "value": "1,410,691,169,156,262"
                            }
                        ],
                        "signature": "plus(uint256,uint256)"
                    },
                    "errorInfo": "",
                    "fromAddress": "0xa645264c5603e96c3b0b078cdab68733794b0a71",
                    "gasUsed": 356,
                    "id": 21,
                    "methodDecoded": true,
                    "operation": "DELEGATECALL",
                    "output": "0x0000000000000000000000000000000000000000000000000005030422067ca6",
                    "revert": false,
                    "revertMessage": "",
                    "selector": "0x66098d4f",
                    "status": true,
                    "value": "0"
                },
                "nodeType": 0
            },
            "22": {
                "invocation": {
                    "address": "0x66e853cd839e4c52415a03f13c34af1879c7a50f",
                    "callData": "0x0000000000000000000000000000000000000000000000000000000000000000000000000000000000000000000000000000000000000000000000090646aa00",
                    "decodedMethod": {
                        "callParams": [
                            {
                                "name": "a",
                                "type": "uint256",
                                "value": "0"
                            },
                            {
                                "name": "b",
                                "type": "uint256",
                                "value": "38,760,000,000"
                            }
                        ],
                        "constructorArguments": "",
                        "name": "plus",
                        "returnParams": [
                            {
                                "name": "",
                                "type": "uint256",
                                "value": "38,760,000,000"
                            }
                        ],
                        "signature": "plus(uint256,uint256)"
                    },
                    "errorInfo": "",
                    "fromAddress": "0xa645264c5603e96c3b0b078cdab68733794b0a71",
                    "gasUsed": 356,
                    "id": 22,
                    "methodDecoded": true,
                    "operation": "DELEGATECALL",
                    "output": "0x000000000000000000000000000000000000000000000000000000090646aa00",
                    "revert": false,
                    "revertMessage": "",
                    "selector": "0x66098d4f",
                    "status": true,
                    "value": "0"
                },
                "nodeType": 0
            },
            "23": {
                "event": {
                    "contract": "0xa645264c5603e96c3b0b078cdab68733794b0a71",
                    "decodedLog": {
                        "name": "Minted",
                        "params": [
                            {
                                "name": "receiver",
                                "type": "address",
                                "value": "0x198f1e071db6014e26dae7ecdfb43d21d1adf736"
                            },
                            {
                                "name": "amount",
                                "type": "uint256",
                                "value": "38,760,000,000"
                            }
                        ],
                        "signature": "Minted(address,uint256)"
                    },
                    "id": 23,
                    "logData": "0x000000000000000000000000198f1e071db6014e26dae7ecdfb43d21d1adf736000000000000000000000000000000000000000000000000000000090646aa00",
                    "logDecoded": true,
                    "operation": "EVENT",
                    "revert": false,
                    "status": true,
                    "topics": [
                        "0x30385c845b448a36257a6a1716e6ad2e1bc2cbe333cde1e69fe849ad6511adfe"
                    ]
                },
                "nodeType": 1
            },
            "24": {
                "invocation": {
                    "address": "0x4b667a378c1d9b2134cc4fa02d9cfba2cc2b11d4",
                    "callData": "0x",
                    "decodedMethod": null,
                    "errorInfo": "",
                    "fromAddress": "0xe7e01babb53c98f8d84d05dfff64ebb63ed37bf5",
                    "gasUsed": 1461,
                    "id": 24,
                    "methodDecoded": false,
                    "operation": "CALL",
                    "output": "",
                    "revert": false,
                    "revertMessage": "",
                    "selector": "fallback",
                    "status": true,
                    "value": "1.9"
                },
                "nodeType": 0
            },
            "25": {
                "event": {
                    "contract": "0x4b667a378c1d9b2134cc4fa02d9cfba2cc2b11d4",
                    "decodedLog": {
                        "name": "Paid",
                        "params": [
                            {
                                "name": "sender",
                                "type": "address",
                                "value": "0xe7e01babb53c98f8d84d05dfff64ebb63ed37bf5"
                            },
                            {
                                "name": "amount",
                                "type": "uint256",
                                "value": "1,900,000,000,000,000,000"
                            }
                        ],
                        "signature": "Paid(address,uint256)"
                    },
                    "id": 25,
                    "logData": "0x000000000000000000000000e7e01babb53c98f8d84d05dfff64ebb63ed37bf50000000000000000000000000000000000000000000000001a5e27eef13e0000",
                    "logDecoded": true,
                    "operation": "EVENT",
                    "revert": false,
                    "status": true,
                    "topics": [
                        "0x737c69225d647e5994eab1a6c301bf6d9232beb2759ae1e27a8966b4732bc489"
                    ]
                },
                "nodeType": 1
            },
            "26": {
                "event": {
                    "contract": "0xe7e01babb53c98f8d84d05dfff64ebb63ed37bf5",
                    "decodedLog": {
                        "name": "Invested",
                        "params": [
                            {
                                "name": "investor",
                                "type": "address",
                                "value": "0x198f1e071db6014e26dae7ecdfb43d21d1adf736"
                            },
                            {
                                "name": "weiAmount",
                                "type": "uint256",
                                "value": "1,900,000,000,000,000,000"
                            },
                            {
                                "name": "tokenAmount",
                                "type": "uint256",
                                "value": "38,760,000,000"
                            },
                            {
                                "name": "customerId",
                                "type": "uint128",
                                "value": "234,447,865,367,430,968,451,741,926,333,191,562,344"
                            }
                        ],
                        "signature": "Invested(address,uint256,uint256,uint128)"
                    },
                    "id": 26,
                    "logData": "0x000000000000000000000000198f1e071db6014e26dae7ecdfb43d21d1adf7360000000000000000000000000000000000000000000000001a5e27eef13e0000000000000000000000000000000000000000000000000000000000090646aa0000000000000000000000000000000000b0610434d06d4fabbee01ad0ab902468",
                    "logDecoded": true,
                    "operation": "EVENT",
                    "revert": false,
                    "status": true,
                    "topics": [
                        "0x0396f60aaad038749091d273dc13aaabc63db6e2271c7bad442d5cf25cc43350"
                    ]
                },
                "nodeType": 1
            },
            "3": {
                "invocation": {
                    "address": "0xd2b34de9882923df7a97fbe37f15ba7c2e3deefd",
                    "callData": "0x0000000000000000000000000000000000000000000000000000002098a67800",
                    "decodedMethod": {
                        "callParams": [
                            {
                                "name": "chf",
                                "type": "uint256",
                                "value": "140,000,000,000"
                            }
                        ],
                        "constructorArguments": "",
                        "name": "convertToWei",
                        "returnParams": [
                            {
                                "name": "",
                                "type": "uint256",
                                "value": "68,627,450,980,392,156,862,745"
                            }
                        ],
                        "signature": "convertToWei(uint256)"
                    },
                    "errorInfo": "",
                    "fromAddress": "0xe7e01babb53c98f8d84d05dfff64ebb63ed37bf5",
                    "gasUsed": 2780,
                    "id": 3,
                    "methodDecoded": true,
                    "operation": "CALL",
                    "output": "0x000000000000000000000000000000000000000000000e884d33d6d917991919",
                    "revert": false,
                    "revertMessage": "",
                    "selector": "0xa60dc38a",
                    "status": true,
                    "value": "0"
                },
                "nodeType": 0
            },
            "4": {
                "invocation": {
                    "address": "0xc1920e58cef5774011d585fb5aa14c64453416eb",
                    "callData": "0x0000000000000000000000000000000000000000000000000000002098a678000000000000000000000000000000000000000000000000000de0b6b3a7640000",
                    "decodedMethod": {
                        "callParams": [
                            {
                                "name": "a",
                                "type": "uint256",
                                "value": "140,000,000,000"
                            },
                            {
                                "name": "b",
                                "type": "uint256",
                                "value": "1,000,000,000,000,000,000"
                            }
                        ],
                        "constructorArguments": "",
                        "name": "times",
                        "returnParams": [
                            {
                                "name": "",
                                "type": "uint256",
                                "value": "140,000,000,000,000,000,000,000,000,000"
                            }
                        ],
                        "signature": "times(uint256,uint256)"
                    },
                    "errorInfo": "",
                    "fromAddress": "0xd2b34de9882923df7a97fbe37f15ba7c2e3deefd",
                    "gasUsed": 351,
                    "id": 4,
                    "methodDecoded": true,
                    "operation": "DELEGATECALL",
                    "output": "0x0000000000000000000000000000000000000001c45d49276606214ee0000000",
                    "revert": false,
                    "revertMessage": "",
                    "selector": "0x1d3b9edf",
                    "status": true,
                    "value": "0"
                },
                "nodeType": 0
            },
            "5": {
                "invocation": {
                    "address": "0x1ce00ddca2854ff2ddc7962575c49d2ba9c1243a",
                    "callData": "0x",
                    "decodedMethod": {
                        "callParams": [],
                        "constructorArguments": "",
                        "name": "isSane",
                        "returnParams": [
                            {
                                "name": "",
                                "type": "bool",
                                "value": true
                            }
                        ],
                        "signature": "isSane()"
                    },
                    "errorInfo": "",
                    "fromAddress": "0xe7e01babb53c98f8d84d05dfff64ebb63ed37bf5",
                    "gasUsed": 525,
                    "id": 5,
                    "methodDecoded": true,
                    "operation": "CALL",
                    "output": "0x0000000000000000000000000000000000000000000000000000000000000001",
                    "revert": false,
                    "revertMessage": "",
                    "selector": "0x82771c8e",
                    "status": true,
                    "value": "0"
                },
                "nodeType": 0
            },
            "6": {
                "invocation": {
                    "address": "0xd2b34de9882923df7a97fbe37f15ba7c2e3deefd",
                    "callData": "0x000000000000000000000000e7e01babb53c98f8d84d05dfff64ebb63ed37bf5",
                    "decodedMethod": {
                        "callParams": [
                            {
                                "name": "crowdsale",
                                "type": "address",
                                "value": "0xe7e01babb53c98f8d84d05dfff64ebb63ed37bf5"
                            }
                        ],
                        "constructorArguments": "",
                        "name": "isSane",
                        "returnParams": [
                            {
                                "name": "",
                                "type": "bool",
                                "value": true
                            }
                        ],
                        "signature": "isSane(address)"
                    },
                    "errorInfo": "",
                    "fromAddress": "0xe7e01babb53c98f8d84d05dfff64ebb63ed37bf5",
                    "gasUsed": 545,
                    "id": 6,
                    "methodDecoded": true,
                    "operation": "CALL",
                    "output": "0x0000000000000000000000000000000000000000000000000000000000000001",
                    "revert": false,
                    "revertMessage": "",
                    "selector": "0x8e768288",
                    "status": true,
                    "value": "0"
                },
                "nodeType": 0
            },
            "7": {
                "invocation": {
                    "address": "0xd2b34de9882923df7a97fbe37f15ba7c2e3deefd",
                    "callData": "0x0000000000000000000000000000000000000000000000000000002098a67800",
                    "decodedMethod": {
                        "callParams": [
                            {
                                "name": "chf",
                                "type": "uint256",
                                "value": "140,000,000,000"
                            }
                        ],
                        "constructorArguments": "",
                        "name": "convertToWei",
                        "returnParams": [
                            {
                                "name": "",
                                "type": "uint256",
                                "value": "68,627,450,980,392,156,862,745"
                            }
                        ],
                        "signature": "convertToWei(uint256)"
                    },
                    "errorInfo": "",
                    "fromAddress": "0xe7e01babb53c98f8d84d05dfff64ebb63ed37bf5",
                    "gasUsed": 2780,
                    "id": 7,
                    "methodDecoded": true,
                    "operation": "CALL",
                    "output": "0x000000000000000000000000000000000000000000000e884d33d6d917991919",
                    "revert": false,
                    "revertMessage": "",
                    "selector": "0xa60dc38a",
                    "status": true,
                    "value": "0"
                },
                "nodeType": 0
            },
            "8": {
                "invocation": {
                    "address": "0xc1920e58cef5774011d585fb5aa14c64453416eb",
                    "callData": "0x0000000000000000000000000000000000000000000000000000002098a678000000000000000000000000000000000000000000000000000de0b6b3a7640000",
                    "decodedMethod": {
                        "callParams": [
                            {
                                "name": "a",
                                "type": "uint256",
                                "value": "140,000,000,000"
                            },
                            {
                                "name": "b",
                                "type": "uint256",
                                "value": "1,000,000,000,000,000,000"
                            }
                        ],
                        "constructorArguments": "",
                        "name": "times",
                        "returnParams": [
                            {
                                "name": "",
                                "type": "uint256",
                                "value": "140,000,000,000,000,000,000,000,000,000"
                            }
                        ],
                        "signature": "times(uint256,uint256)"
                    },
                    "errorInfo": "",
                    "fromAddress": "0xd2b34de9882923df7a97fbe37f15ba7c2e3deefd",
                    "gasUsed": 351,
                    "id": 8,
                    "methodDecoded": true,
                    "operation": "DELEGATECALL",
                    "output": "0x0000000000000000000000000000000000000001c45d49276606214ee0000000",
                    "revert": false,
                    "revertMessage": "",
                    "selector": "0x1d3b9edf",
                    "status": true,
                    "value": "0"
                },
                "nodeType": 0
            },
            "9": {
                "invocation": {
                    "address": "0xa645264c5603e96c3b0b078cdab68733794b0a71",
                    "callData": "0x",
                    "decodedMethod": {
                        "callParams": [],
                        "constructorArguments": "",
                        "name": "decimals",
                        "returnParams": [
                            {
                                "name": "",
                                "type": "uint256",
                                "value": "8"
                            }
                        ],
                        "signature": "decimals()"
                    },
                    "errorInfo": "",
                    "fromAddress": "0xe7e01babb53c98f8d84d05dfff64ebb63ed37bf5",
                    "gasUsed": 586,
                    "id": 9,
                    "methodDecoded": true,
                    "operation": "CALL",
                    "output": "0x0000000000000000000000000000000000000000000000000000000000000008",
                    "revert": false,
                    "revertMessage": "",
                    "selector": "0x313ce567",
                    "status": true,
                    "value": "0"
                },
                "nodeType": 0
            }
        },
        "gasFlame": [
            {
                "children": [
                    {
                        "children": [
                            {
                                "children": [],
                                "depth": 0,
                                "name": "Initial Gas",
                                "value": 22424
                            },
                            {
                                "children": [
                                    {
                                        "children": [],
                                        "depth": 1,
                                        "name": "isSane",
                                        "value": 525
                                    },
                                    {
                                        "children": [],
                                        "depth": 1,
                                        "name": "isSane",
                                        "value": 545
                                    },
                                    {
                                        "children": [
                                            {
                                                "children": [],
                                                "depth": 2,
                                                "name": "times",
                                                "value": 351
                                            }
                                        ],
                                        "depth": 1,
                                        "name": "convertToWei",
                                        "value": 2780
                                    },
                                    {
                                        "children": [],
                                        "depth": 1,
                                        "name": "isSane",
                                        "value": 525
                                    },
                                    {
                                        "children": [],
                                        "depth": 1,
                                        "name": "isSane",
                                        "value": 545
                                    },
                                    {
                                        "children": [
                                            {
                                                "children": [],
                                                "depth": 2,
                                                "name": "times",
                                                "value": 351
                                            }
                                        ],
                                        "depth": 1,
                                        "name": "convertToWei",
                                        "value": 2780
                                    },
                                    {
                                        "children": [],
                                        "depth": 1,
                                        "name": "decimals",
                                        "value": 586
                                    },
                                    {
                                        "children": [
                                            {
                                                "children": [],
                                                "depth": 2,
                                                "name": "times",
                                                "value": 351
                                            },
                                            {
                                                "children": [],
                                                "depth": 2,
                                                "name": "times",
                                                "value": 351
                                            },
                                            {
                                                "children": [],
                                                "depth": 2,
                                                "name": "times",
                                                "value": 351
                                            }
                                        ],
                                        "depth": 1,
                                        "name": "calculatePrice",
                                        "value": 7577
                                    },
                                    {
                                        "children": [],
                                        "depth": 1,
                                        "name": "plus",
                                        "value": 356
                                    },
                                    {
                                        "children": [],
                                        "depth": 1,
                                        "name": "plus",
                                        "value": 356
                                    },
                                    {
                                        "children": [],
                                        "depth": 1,
                                        "name": "plus",
                                        "value": 356
                                    },
                                    {
                                        "children": [],
                                        "depth": 1,
                                        "name": "plus",
                                        "value": 356
                                    },
                                    {
                                        "children": [
                                            {
                                                "children": [],
                                                "depth": 2,
                                                "name": "times",
                                                "value": 351
                                            }
                                        ],
                                        "depth": 1,
                                        "name": "convertToWei",
                                        "value": 2780
                                    },
                                    {
                                        "children": [
                                            {
                                                "children": [],
                                                "depth": 2,
                                                "name": "plus",
                                                "value": 356
                                            },
                                            {
                                                "children": [],
                                                "depth": 2,
                                                "name": "plus",
                                                "value": 356
                                            }
                                        ],
                                        "depth": 1,
                                        "name": "mint",
                                        "value": 32096
                                    },
                                    {
                                        "children": [],
                                        "depth": 1,
                                        "name": "fallback",
                                        "value": 1461
                                    }
                                ],
                                "depth": 0,
                                "name": "Executed Gas",
                                "value": 152884
                            }
                        ],
                        "depth": -1,
                        "name": "Actual Gas Used",
                        "value": 175308
                    },
                    {
                        "children": [],
                        "depth": -1,
                        "name": "Refunded Gas",
                        "value": 0
                    }
                ],
                "depth": -2,
                "name": "Total Gas",
                "value": 175308
            }
        ],
        "isConfirmed": true,
        "mainTrace": [
            {
                "children": [
                    {
                        "children": [
                            {
                                "children": [],
                                "depth": 1,
                                "id": 1,
                                "order": 1
                            },
                            {
                                "children": [],
                                "depth": 1,
                                "id": 2,
                                "order": 2
                            },
                            {
                                "children": [
                                    {
                                        "children": [],
                                        "depth": 2,
                                        "id": 4,
                                        "order": 4
                                    }
                                ],
                                "depth": 1,
                                "id": 3,
                                "order": 3
                            },
                            {
                                "children": [],
                                "depth": 1,
                                "id": 5,
                                "order": 5
                            },
                            {
                                "children": [],
                                "depth": 1,
                                "id": 6,
                                "order": 6
                            },
                            {
                                "children": [
                                    {
                                        "children": [],
                                        "depth": 2,
                                        "id": 8,
                                        "order": 8
                                    }
                                ],
                                "depth": 1,
                                "id": 7,
                                "order": 7
                            },
                            {
                                "children": [],
                                "depth": 1,
                                "id": 9,
                                "order": 9
                            },
                            {
                                "children": [
                                    {
                                        "children": [],
                                        "depth": 2,
                                        "id": 11,
                                        "order": 11
                                    },
                                    {
                                        "children": [],
                                        "depth": 2,
                                        "id": 12,
                                        "order": 12
                                    },
                                    {
                                        "children": [],
                                        "depth": 2,
                                        "id": 13,
                                        "order": 13
                                    }
                                ],
                                "depth": 1,
                                "id": 10,
                                "order": 10
                            },
                            {
                                "children": [],
                                "depth": 1,
                                "id": 14,
                                "order": 14
                            },
                            {
                                "children": [],
                                "depth": 1,
                                "id": 15,
                                "order": 15
                            },
                            {
                                "children": [],
                                "depth": 1,
                                "id": 16,
                                "order": 16
                            },
                            {
                                "children": [],
                                "depth": 1,
                                "id": 17,
                                "order": 17
                            },
                            {
                                "children": [
                                    {
                                        "children": [],
                                        "depth": 2,
                                        "id": 19,
                                        "order": 19
                                    }
                                ],
                                "depth": 1,
                                "id": 18,
                                "order": 18
                            },
                            {
                                "children": [
                                    {
                                        "children": [],
                                        "depth": 2,
                                        "id": 21,
                                        "order": 21
                                    },
                                    {
                                        "children": [],
                                        "depth": 2,
                                        "id": 22,
                                        "order": 22
                                    },
                                    {
                                        "children": [],
                                        "depth": 2,
                                        "id": 23,
                                        "order": 23
                                    }
                                ],
                                "depth": 1,
                                "id": 20,
                                "order": 20
                            },
                            {
                                "children": [
                                    {
                                        "children": [],
                                        "depth": 2,
                                        "id": 25,
                                        "order": 25
                                    }
                                ],
                                "depth": 1,
                                "id": 24,
                                "order": 24
                            },
                            {
                                "children": [],
                                "depth": 1,
                                "id": 26,
                                "order": 26
                            }
                        ],
                        "depth": 0,
                        "id": 0,
                        "order": 0
                    }
                ],
                "depth": -1,
                "id": -1,
                "order": -1
            }
        ],
        "mainTraceNodeCount": 27,
        "parentIdMap": {
            "0": -1,
            "1": 0,
            "10": 0,
            "11": 10,
            "12": 10,
            "13": 10,
            "14": 0,
            "15": 0,
            "16": 0,
            "17": 0,
            "18": 0,
            "19": 18,
            "2": 0,
            "20": 0,
            "21": 20,
            "22": 20,
            "23": 20,
            "24": 0,
            "25": 24,
            "26": 0,
            "3": 0,
            "4": 3,
            "5": 0,
            "6": 0,
            "7": 0,
            "8": 7,
            "9": 0
        },
        "tidyTrace": [
            {
                "children": [
                    {
                        "children": [
                            {
                                "children": [],
                                "depth": 1,
                                "id": 1,
                                "order": 1
                            },
                            {
                                "children": [],
                                "depth": 1,
                                "id": 2,
                                "order": 2
                            },
                            {
                                "children": [
                                    {
                                        "children": [],
                                        "depth": 2,
                                        "id": 4,
                                        "order": 4
                                    }
                                ],
                                "depth": 1,
                                "id": 3,
                                "order": 3
                            },
                            {
                                "children": [],
                                "depth": 1,
                                "id": 5,
                                "order": 5
                            },
                            {
                                "children": [],
                                "depth": 1,
                                "id": 6,
                                "order": 6
                            },
                            {
                                "children": [
                                    {
                                        "children": [],
                                        "depth": 2,
                                        "id": 8,
                                        "order": 8
                                    }
                                ],
                                "depth": 1,
                                "id": 7,
                                "order": 7
                            },
                            {
                                "children": [],
                                "depth": 1,
                                "id": 9,
                                "order": 9
                            },
                            {
                                "children": [
                                    {
                                        "children": [],
                                        "depth": 2,
                                        "id": 11,
                                        "order": 11
                                    },
                                    {
                                        "children": [],
                                        "depth": 2,
                                        "id": 12,
                                        "order": 12
                                    },
                                    {
                                        "children": [],
                                        "depth": 2,
                                        "id": 13,
                                        "order": 13
                                    }
                                ],
                                "depth": 1,
                                "id": 10,
                                "order": 10
                            },
                            {
                                "children": [],
                                "depth": 1,
                                "id": 14,
                                "order": 14
                            },
                            {
                                "children": [],
                                "depth": 1,
                                "id": 15,
                                "order": 15
                            },
                            {
                                "children": [],
                                "depth": 1,
                                "id": 16,
                                "order": 16
                            },
                            {
                                "children": [],
                                "depth": 1,
                                "id": 17,
                                "order": 17
                            },
                            {
                                "children": [
                                    {
                                        "children": [],
                                        "depth": 2,
                                        "id": 19,
                                        "order": 19
                                    }
                                ],
                                "depth": 1,
                                "id": 18,
                                "order": 18
                            },
                            {
                                "children": [
                                    {
                                        "children": [],
                                        "depth": 2,
                                        "id": 21,
                                        "order": 21
                                    },
                                    {
                                        "children": [],
                                        "depth": 2,
                                        "id": 22,
                                        "order": 22
                                    },
                                    {
                                        "children": [],
                                        "depth": 2,
                                        "id": 23,
                                        "order": 23
                                    }
                                ],
                                "depth": 1,
                                "id": 20,
                                "order": 20
                            },
                            {
                                "children": [
                                    {
                                        "children": [],
                                        "depth": 2,
                                        "id": 25,
                                        "order": 25
                                    }
                                ],
                                "depth": 1,
                                "id": 24,
                                "order": 24
                            },
                            {
                                "children": [],
                                "depth": 1,
                                "id": 26,
                                "order": 26
                            }
                        ],
                        "depth": 0,
                        "id": 0,
                        "order": 0
                    }
                ],
                "depth": -1,
                "id": -1,
                "order": -1
            }
        ],
        "tidyTraceNodeCount": 27
    },
    "state_change": {
        "stateChanges": [
            {
                "address": "0xa645264c5603e96c3b0b078cdab68733794b0a71",
                "erc": "ERC-20",
                "slots": [
                    {
                        "current": "0x0000000000000000000000000000000000000000000000000005030422067ca6",
                        "key": "0x0000000000000000000000000000000000000000000000000000000000000000",
                        "prev": "0x000000000000000000000000000000000000000000000000000502fb1bbfd2a6"
                    },
                    {
                        "current": "0x000000000000000000000000000000000000000000000000000000090646aa00",
                        "key": "0x224bc5dc8111d82ee45fc67bd833d8468b15392a84fcbafc4434a94b96cf7517",
                        "prev": "0x0000000000000000000000000000000000000000000000000000000000000000"
                    }
                ],
                "storageVariables": []
            },
            {
                "address": "0xe7e01babb53c98f8d84d05dfff64ebb63ed37bf5",
                "erc": "",
                "slots": [
                    {
                        "current": "0x000000000000000000000000000000000000000000000d4ef83be84cbcbef878",
                        "key": "0x0000000000000000000000000000000000000000000000000000000000000009",
                        "prev": "0x000000000000000000000000000000000000000000000d4eddddc05dcb80f878"
                    },
                    {
                        "current": "0x0000000000000000000000000000000000000000000000000005030422067ca6",
                        "key": "0x0000000000000000000000000000000000000000000000000000000000000008",
                        "prev": "0x000000000000000000000000000000000000000000000000000502fb1bbfd2a6"
                    },
                    {
                        "current": "0x0000000000000000000000000000000000000000000000000000000000000516",
                        "key": "0x000000000000000000000000000000000000000000000000000000000000000a",
                        "prev": "0x0000000000000000000000000000000000000000000000000000000000000515"
                    },
                    {
                        "current": "0x0000000000000000000000000000000000000000000000001a5e27eef13e0000",
                        "key": "0x6f3fb71c01acf44d969593ae23c167972d0efb2e59522f9c0a79eda63d9e9b9c",
                        "prev": "0x0000000000000000000000000000000000000000000000000000000000000000"
                    },
                    {
                        "current": "0x000000000000000000000000000000000000000000000000000000090646aa00",
                        "key": "0x9bfa03fe0ce14a15c0a2bea8298061a00db33fe58b7bc6b5567570851ac63a6c",
                        "prev": "0x0000000000000000000000000000000000000000000000000000000000000000"
                    }
                ],
                "storageVariables": []
            }
        ]
    }
}