{
    "balance_change": {
        "balanceChanges": [
            {
                "account": "0x3c41236dab5135da7602523c78567d7c43d0b3f3",
                "assets": [
                    {
                        "address": "0x029606e5ec44cad1346d6a1273a53b971fa93ad6",
                        "amount": "2,094.3251",
                        "iconUrl": "",
                        "isERC1155": false,
                        "isERC721": false,
                        "sign": false,
                        "value": ""
                    }
                ]
            },
            {
                "account": "0x28b2b601eb8fd75dd77d8c5c5bef27ba90e41136",
                "assets": [
                    {
                        "address": "0x029606e5ec44cad1346d6a1273a53b971fa93ad6",
                        "amount": "2,094.3251",
                        "iconUrl": "",
                        "isERC1155": false,
                        "isERC721": false,
                        "sign": true,
                        "value": ""
                    }
                ]
            }
        ]
    },
    "profile": {
        "basic_info": {
            "baseFee": "",
            "blockNumber": 7218359,
            "callData": "0xa9059cbb00000000000000000000000028b2b601eb8fd75dd77d8c5c5bef27ba90e4113600000000000000000000000000000000000000000000007188996e3d7472c000",
            "debugEnable": true,
            "errorInfo": "",
            "eventCount": 1,
            "feeRecipient": "0x52bc44d5378309ee2abf1539bf71de1b7d7be3b5",
            "formatValue": "0",
            "gasLimit": 79455,
            "gasPrice": "2",
            "gasUsed": 37970,
            "intTxnCount": 0,
            "internalRevert": false,
            "internalRevertMessage": "",
            "isContractCreation": false,
            "isFlashloan": false,
            "maxFee": "",
            "nonce": 6,
            "overwritedBlockNumber": -1,
            "priorityFee": "",
            "receiver": "0x029606e5ec44cad1346d6a1273a53b971fa93ad6",
            "revertMessage": "",
            "sender": "0x3c41236dab5135da7602523c78567d7c43d0b3f3",
            "simulationEnable": true,
            "sourceTxnHash": "0x2c8d5338f9324384c999cbe62917e69dd11cab3702256f9c4c79e5cb9adccc64",
            "status": true,
            "timestamp": "2019-02-14T06:38:26Z",
            "transactionFee": "0.00007594",
            "txnHash": "0x2c8d5338f9324384c999cbe62917e69dd11cab3702256f9c4c79e5cb9adccc64",
            "txnIndex": 30,
            "type": 0,
            "value": "0"
        },
        "fund_flow": [
            {
                "amount": "2,094.3251",
                "from": "0x3c41236dab5135da7602523c78567d7c43d0b3f3",
                "id": 1,
                "isERC1155": false,
                "isERC721": false,
                "isReverted": false,
                "order": 1,
                "to": "0x28b2b601eb8fd75dd77d8c5c5bef27ba90e41136",
                "token": "0x029606e5ec44cad1346d6a1273a53b971fa93ad6"
            }
        ],
        "token_infos": [
            {
                "address": "0xc02aaa39b223fe8d0a0e5c4f27ead9083c756cc2",
                "decimals": 18
            },
            {
                "address": "0xeeeeeeeeeeeeeeeeeeeeeeeeeeeeeeeeeeeeeeee",
                "decimals": 18
            },
            {
                "address": "0x029606e5ec44cad1346d6a1273a53b971fa93ad6",
                "decimals": 18
            }
        ]
    },
    "address_label": {
        "labels": [
            {
                "address": "0x029606e5ec44cad1346d6a1273a53b971fa93ad6",
                "label": "empowr orange (EMPRO)"
            },
            {
                "address": "0x0000000000000000000000000000000000000001",
                "label": "Precompiled"
            },
            {
                "address": "0x0000000000000000000000000000000000000002",
                "label": "Precompiled"
            },
            {
                "address": "0x0000000000000000000000000000000000000003",
                "label": "Precompiled"
            },
            {
                "address": "0x0000000000000000000000000000000000000004",
                "label": "Precompiled"
            },
            {
                "address": "0xeeeeeeeeeeeeeeeeeeeeeeeeeeeeeeeeeeeeeeee",
                "label": "Ether"
            }
        ]
    },
    "trace": {
        "accountLabels": null,
        "dataMap": {
            "-1": {
                "invocation": {
                    "address": "0x3c41236dab5135da7602523c78567d7c43d0b3f3",
                    "callData": "",
                    "decodedMethod": null,
                    "errorInfo": "",
                    "fromAddress": "",
                    "gasUsed": 0,
                    "id": -1,
                    "methodDecoded": false,
                    "operation": "",
                    "output": "",
                    "revert": false,
                    "revertMessage": "",
                    "selector": "",
                    "status": false,
                    "value": ""
                },
                "nodeType": 0
            },
            "0": {
                "invocation": {
                    "address": "0x029606e5ec44cad1346d6a1273a53b971fa93ad6",
                    "callData": "0x00000000000000000000000028b2b601eb8fd75dd77d8c5c5bef27ba90e4113600000000000000000000000000000000000000000000007188996e3d7472c000",
                    "decodedMethod": {
                        "callParams": [
                            {
                                "name": "_to",
                                "type": "address",
                                "value": "0x28b2b601eb8fd75dd77d8c5c5bef27ba90e41136"
                            },
                            {
                                "decimalAvailable": true,
                                "name": "_value",
                                "type": "uint256",
                                "value": "2,094,325,100,000,000,000,000"
                            }
                        ],
                        "constructorArguments": "",
                        "name": "transfer",
                        "returnParams": [
                            {
                                "name": "success",
                                "type": "bool",
                                "value": true
                            }
                        ],
                        "signature": "transfer(address,uint256)"
                    },
                    "errorInfo": "",
                    "fromAddress": "0x3c41236dab5135da7602523c78567d7c43d0b3f3",
                    "gasUsed": 37970,
                    "id": 0,
                    "methodDecoded": true,
                    "operation": "CALL",
                    "output": "0x0000000000000000000000000000000000000000000000000000000000000001",
                    "revert": false,
                    "revertMessage": "",
                    "selector": "0xa9059cbb",
                    "status": true,
                    "value": "0"
                },
                "nodeType": 0
            },
            "1": {
                "event": {
                    "contract": "0x029606e5ec44cad1346d6a1273a53b971fa93ad6",
                    "decodedLog": {
                        "name": "Transfer",
                        "params": [
                            {
                                "name": "_from",
                                "type": "address",
                                "value": "0x3c41236dab5135da7602523c78567d7c43d0b3f3"
                            },
                            {
                                "name": "_to",
                                "type": "address",
                                "value": "0x28b2b601eb8fd75dd77d8c5c5bef27ba90e41136"
                            },
                            {
                                "decimalAvailable": true,
                                "name": "_value",
                                "type": "uint256",
                                "value": "2,094,325,100,000,000,000,000"
                            }
                        ],
                        "signature": "Transfer(address,address,uint256)"
                    },
                    "id": 1,
                    "logData": "0x00000000000000000000000000000000000000000000007188996e3d7472c000",
                    "logDecoded": true,
                    "operation": "EVENT",
                    "revert": false,
                    "status": true,
                    "topics": [
                        "0xddf252ad1be2c89b69c2b068fc378daa952ba7f163c4a11628f55a4df523b3ef",
                        "0x0000000000000000000000003c41236dab5135da7602523c78567d7c43d0b3f3",
                        "0x00000000000000000000000028b2b601eb8fd75dd77d8c5c5bef27ba90e41136"
                    ]
                },
                "nodeType": 1
            }
        },
        "gasFlame": [
            {
                "children": [
                    {
                        "children": [
                            {
                                "children": [],
                                "depth": 0,
                                "name": "Initial Gas",
                                "value": 23320
                            },
                            {
                                "children": [],
                                "depth": 0,
                                "name": "Executed Gas",
                                "value": 29650
                            }
                        ],
                        "depth": -1,
                        "name": "Actual Gas Used",
                        "value": 37970
                    },
                    {
                        "children": [],
                        "depth": -1,
                        "name": "Refunded Gas",
                        "value": 15000
                    }
                ],
                "depth": -2,
                "name": "Total Gas",
                "value": 52970
            }
        ],
        "isConfirmed": true,
        "mainTrace": [
            {
                "children": [
                    {
                        "children": [
                            {
                                "children": [],
                                "depth": 1,
                                "id": 1,
                                "order": 1
                            }
                        ],
                        "depth": 0,
                        "id": 0,
                        "order": 0
                    }
                ],
                "depth": -1,
                "id": -1,
                "order": -1
            }
        ],
        "mainTraceNodeCount": 2,
        "parentIdMap": {
            "0": -1,
            "1": 0
        },
        "tidyTrace": [
            {
                "children": [
                    {
                        "children": [
                            {
                                "children": [],
                                "depth": 1,
                                "id": 1,
                                "order": 1
                            }
                        ],
                        "depth": 0,
                        "id": 0,
                        "order": 0
                    }
                ],
                "depth": -1,
                "id": -1,
                "order": -1
            }
        ],
        "tidyTraceNodeCount": 2
    },
    "state_change": {
        "stateChanges": [
            {
                "address": "0x029606e5ec44cad1346d6a1273a53b971fa93ad6",
                "erc": "ERC-20",
                "slots": [
                    {
                        "current": "0x0000000000000000000000000000000000000000000000000000000000000000",
                        "key": "0x4a822ae9834b7226254cb1900a4e82319158128919c3b401d4ba827308259773",
                        "prev": "0x00000000000000000000000000000000000000000000007188996e3d7472c000"
                    },
                    {
                        "current": "0x00000000000000000000000000000000000000000000007188996e3d7472c000",
                        "key": "0xab8a51af9014a56dd5e70547d29d18c26f4cd39a0bc3a3b80b355d66c8e97c96",
                        "prev": "0x0000000000000000000000000000000000000000000000000000000000000000"
                    }
                ],
                "storageVariables": [
                    {
                        "name": "balances",
                        "type": "mapping(address => uint256)",
                        "value": {
                            "pairs": [
                                {
                                    "key": "0x28b2b601eb8fd75dd77d8c5c5bef27ba90e41136",
                                    "value": {
                                        "current": "2094325100000000000000",
                                        "prev": "0",
                                        "typeTag": 1
                                    }
                                },
                                {
                                    "key": "0x3c41236dab5135da7602523c78567d7c43d0b3f3",
                                    "value": {
                                        "current": "0",
                                        "prev": "2094325100000000000000",
                                        "typeTag": 1
                                    }
                                }
                            ],
                            "typeTag": 4
                        }
                    }
                ]
            }
        ]
    }
}