{
    "balance_change": {
        "balanceChanges": [
            {
                "account": "0x28c6c06298d514db089934071355e5743bf21d60",
                "assets": [
                    {
                        "address": "0x3a4f40631a4f906c2bad353ed06de7a5d3fcb430",
                        "amount": "50,439",
                        "iconUrl": "",
                        "isERC1155": false,
                        "isERC721": false,
                        "sign": false,
                        "value": "129493.5519"
                    }
                ]
            },
            {
                "account": "0xa535fb438627276414c75e4d1fb3e23567232e91",
                "assets": [
                    {
                        "address": "0x3a4f40631a4f906c2bad353ed06de7a5d3fcb430",
                        "amount": "50,439",
                        "iconUrl": "",
                        "isERC1155": false,
                        "isERC721": false,
                        "sign": true,
                        "value": "129493.5519"
                    }
                ]
            }
        ]
    },
    "profile": {
        "basic_info": {
            "baseFee": "89.215699684",
            "blockNumber": 13682614,
            "callData": "0xa9059cbb000000000000000000000000a535fb438627276414c75e4d1fb3e23567232e91000000000000000000000000000000000000000000000aae4dbd3eb987bc0000",
            "debugEnable": true,
            "errorInfo": "",
            "eventCount": 1,
            "feeRecipient": "0x829bd824b016326a401d083b33d092293333a830",
            "formatValue": "0",
            "gasLimit": 207128,
            "gasPrice": "130",
            "gasUsed": 53870,
            "intTxnCount": 0,
            "internalRevert": false,
            "internalRevertMessage": "",
            "isContractCreation": false,
            "isFlashloan": false,
            "maxFee": "",
            "nonce": 2668551,
            "overwritedBlockNumber": -1,
            "priorityFee": "",
            "receiver": "0x3a4f40631a4f906c2bad353ed06de7a5d3fcb430",
            "revertMessage": "",
            "sender": "0x28c6c06298d514db089934071355e5743bf21d60",
            "simulationEnable": true,
            "sourceTxnHash": "0x2df53d7c88d3736fc181d7995d07dac0026fe8f8e650043cd7fef9aee0f1dea8",
            "status": true,
            "timestamp": "2021-11-25T09:14:18Z",
            "transactionFee": "0.0070031",
            "txnHash": "0x2df53d7c88d3736fc181d7995d07dac0026fe8f8e650043cd7fef9aee0f1dea8",
            "txnIndex": 241,
            "type": 0,
            "value": "0"
        },
        "fund_flow": [
            {
                "amount": "50,439",
                "from": "0x28c6c06298d514db089934071355e5743bf21d60",
                "id": 1,
                "isERC1155": false,
                "isERC721": false,
                "isReverted": false,
                "order": 1,
                "to": "0xa535fb438627276414c75e4d1fb3e23567232e91",
                "token": "0x3a4f40631a4f906c2bad353ed06de7a5d3fcb430"
            }
        ],
        "token_infos": [
            {
                "address": "0x3a4f40631a4f906c2bad353ed06de7a5d3fcb430",
                "decimals": 18
            },
            {
                "address": "0xc02aaa39b223fe8d0a0e5c4f27ead9083c756cc2",
                "decimals": 18
            },
            {
                "address": "0xeeeeeeeeeeeeeeeeeeeeeeeeeeeeeeeeeeeeeeee",
                "decimals": 18
            }
        ]
    },
    "address_label": {
        "labels": [
            {
                "address": "0x0000000000000000000000000000000000000001",
                "label": "Precompiled"
            },
            {
                "address": "0x0000000000000000000000000000000000000002",
                "label": "Precompiled"
            },
            {
                "address": "0x0000000000000000000000000000000000000003",
                "label": "Precompiled"
            },
            {
                "address": "0x0000000000000000000000000000000000000004",
                "label": "Precompiled"
            },
            {
                "address": "0xeeeeeeeeeeeeeeeeeeeeeeeeeeeeeeeeeeeeeeee",
                "label": "Ether"
            },
            {
                "address": "0x3a4f40631a4f906c2bad353ed06de7a5d3fcb430",
                "label": "PlayDapp: PLA Token"
            },
            {
                "address": "0x28c6c06298d514db089934071355e5743bf21d60",
                "label": "Binance 14"
            },
            {
                "address": "0xa535fb438627276414c75e4d1fb3e23567232e91",
                "label": "COINBASE"
            }
        ]
    },
    "trace": {
        "accountLabels": null,
        "dataMap": {
            "-1": {
                "invocation": {
                    "address": "0x28c6c06298d514db089934071355e5743bf21d60",
                    "callData": "",
                    "decodedMethod": null,
                    "errorInfo": "",
                    "fromAddress": "",
                    "gasUsed": 0,
                    "id": -1,
                    "methodDecoded": false,
                    "operation": "",
                    "output": "",
                    "revert": false,
                    "revertMessage": "",
                    "selector": "",
                    "status": false,
                    "value": ""
                },
                "nodeType": 0
            },
            "0": {
                "invocation": {
                    "address": "0x3a4f40631a4f906c2bad353ed06de7a5d3fcb430",
                    "callData": "0x000000000000000000000000a535fb438627276414c75e4d1fb3e23567232e91000000000000000000000000000000000000000000000aae4dbd3eb987bc0000",
                    "decodedMethod": {
                        "callParams": [
                            {
                                "name": "to",
                                "type": "address",
                                "value": "0xa535fb438627276414c75e4d1fb3e23567232e91"
                            },
                            {
                                "decimalAvailable": true,
                                "name": "value",
                                "type": "uint256",
                                "value": "50,439,000,000,000,000,000,000"
                            }
                        ],
                        "constructorArguments": "",
                        "name": "transfer",
                        "returnParams": [
                            {
                                "name": "",
                                "type": "bool",
                                "value": true
                            }
                        ],
                        "signature": "transfer(address,uint256)"
                    },
                    "errorInfo": "",
                    "fromAddress": "0x28c6c06298d514db089934071355e5743bf21d60",
                    "gasUsed": 53870,
                    "id": 0,
                    "methodDecoded": true,
                    "operation": "CALL",
                    "output": "0x0000000000000000000000000000000000000000000000000000000000000001",
                    "revert": false,
                    "revertMessage": "",
                    "selector": "0xa9059cbb",
                    "status": true,
                    "value": "0"
                },
                "nodeType": 0
            },
            "1": {
                "event": {
                    "contract": "0x3a4f40631a4f906c2bad353ed06de7a5d3fcb430",
                    "decodedLog": {
                        "name": "Transfer",
                        "params": [
                            {
                                "name": "from",
                                "type": "address",
                                "value": "0x28c6c06298d514db089934071355e5743bf21d60"
                            },
                            {
                                "name": "to",
                                "type": "address",
                                "value": "0xa535fb438627276414c75e4d1fb3e23567232e91"
                            },
                            {
                                "decimalAvailable": true,
                                "name": "value",
                                "type": "uint256",
                                "value": "50,439,000,000,000,000,000,000"
                            }
                        ],
                        "signature": "Transfer(address,address,uint256)"
                    },
                    "id": 1,
                    "logData": "0x000000000000000000000000000000000000000000000aae4dbd3eb987bc0000",
                    "logDecoded": true,
                    "operation": "EVENT",
                    "revert": false,
                    "status": true,
                    "topics": [
                        "0xddf252ad1be2c89b69c2b068fc378daa952ba7f163c4a11628f55a4df523b3ef",
                        "0x00000000000000000000000028c6c06298d514db089934071355e5743bf21d60",
                        "0x000000000000000000000000a535fb438627276414c75e4d1fb3e23567232e91"
                    ]
                },
                "nodeType": 1
            }
        },
        "gasFlame": [
            {
                "children": [
                    {
                        "children": [
                            {
                                "children": [],
                                "depth": 0,
                                "name": "Initial Gas",
                                "value": 21656
                            },
                            {
                                "children": [],
                                "depth": 0,
                                "name": "Executed Gas",
                                "value": 32214
                            }
                        ],
                        "depth": -1,
                        "name": "Actual Gas Used",
                        "value": 53870
                    },
                    {
                        "children": [],
                        "depth": -1,
                        "name": "Refunded Gas",
                        "value": 0
                    }
                ],
                "depth": -2,
                "name": "Total Gas",
                "value": 53870
            }
        ],
        "isConfirmed": true,
        "mainTrace": [
            {
                "children": [
                    {
                        "children": [
                            {
                                "children": [],
                                "depth": 1,
                                "id": 1,
                                "order": 1
                            }
                        ],
                        "depth": 0,
                        "id": 0,
                        "order": 0
                    }
                ],
                "depth": -1,
                "id": -1,
                "order": -1
            }
        ],
        "mainTraceNodeCount": 2,
        "parentIdMap": {
            "0": -1,
            "1": 0
        },
        "tidyTrace": [
            {
                "children": [
                    {
                        "children": [
                            {
                                "children": [],
                                "depth": 1,
                                "id": 1,
                                "order": 1
                            }
                        ],
                        "depth": 0,
                        "id": 0,
                        "order": 0
                    }
                ],
                "depth": -1,
                "id": -1,
                "order": -1
            }
        ],
        "tidyTraceNodeCount": 2
    },
    "state_change": {
        "stateChanges": [
            {
                "address": "0x3a4f40631a4f906c2bad353ed06de7a5d3fcb430",
                "erc": "ERC-20",
                "slots": [
                    {
                        "current": "0x00000000000000000000000000000000000000000001ffc8a04e899aa51babb7",
                        "key": "0xc0ec8fbf02d70b2873f5a76f503e97bd1b0ca8048ab517fad231214a74ebe459",
                        "prev": "0x000000000000000000000000000000000000000000020a76ee0bc8542cd7abb7"
                    },
                    {
                        "current": "0x000000000000000000000000000000000000000000000aae4dbd3eb987bc0000",
                        "key": "0x45067ae3b9f739aea18da8326b94dccc1fee01758e12bfa16a9ba0378b6d1ad9",
                        "prev": "0x0000000000000000000000000000000000000000000000000000000000000000"
                    }
                ],
                "storageVariables": [
                    {
                        "name": "_balances",
                        "type": "mapping(address => uint256)",
                        "value": {
                            "pairs": [
                                {
                                    "key": "0x28c6c06298d514db089934071355e5743bf21d60",
                                    "value": {
                                        "current": "2416830172882522154445751",
                                        "prev": "2467269172882522154445751",
                                        "typeTag": 1
                                    }
                                },
                                {
                                    "key": "0xa535fb438627276414c75e4d1fb3e23567232e91",
                                    "value": {
                                        "current": "50439000000000000000000",
                                        "prev": "0",
                                        "typeTag": 1
                                    }
                                }
                            ],
                            "typeTag": 4
                        }
                    }
                ]
            }
        ]
    }
}