{
    "balance_change": {
        "balanceChanges": [
            {
                "account": "0x901f9bb4955aa9defa39e4b64df1000bfd96dc82",
                "assets": [
                    {
                        "address": "0x423f4e6138e475d85cf7ea071ac92097ed631eea",
                        "amount": "258,134,021.32302037",
                        "iconUrl": "",
                        "isERC1155": false,
                        "isERC721": false,
                        "sign": false,
                        "value": "258.13402129999998832"
                    }
                ]
            },
            {
                "account": "0xed96e69d54609d9f2cff8aacd66ccf83c8a1b470",
                "assets": [
                    {
                        "address": "0x423f4e6138e475d85cf7ea071ac92097ed631eea",
                        "amount": "258,134,021.32302037",
                        "iconUrl": "",
                        "isERC1155": false,
                        "isERC721": false,
                        "sign": true,
                        "value": "258.13402129999998832"
                    }
                ]
            }
        ]
    },
    "profile": {
        "basic_info": {
            "baseFee": "12.6304013",
            "blockNumber": 19073847,
            "callData": "0x998e4242000000000000000000000000000000000000000000d5860155e6131c2e04b4000000000000000000000000000000000000000000000000000000000000000007",
            "debugEnable": true,
            "errorInfo": "",
            "eventCount": 3,
            "feeRecipient": "0xdcca982701a264e8d629a6e8cfba9c1a27912623",
            "formatValue": "0",
            "gasLimit": 195876,
            "gasPrice": "12.6314013",
            "gasUsed": 151779,
            "intTxnCount": 2,
            "internalRevert": false,
            "internalRevertMessage": "",
            "isContractCreation": false,
            "isFlashloan": false,
            "maxFee": "13.464750063",
            "nonce": 15,
            "overwritedBlockNumber": -1,
            "priorityFee": "0.001",
            "receiver": "0xed96e69d54609d9f2cff8aacd66ccf83c8a1b470",
            "revertMessage": "",
            "sender": "0x901f9bb4955aa9defa39e4b64df1000bfd96dc82",
            "simulationEnable": true,
            "sourceTxnHash": "0x2dd50b51e814da1c903dd1c5348f0957874df443046e04c76224654d88712e4e",
            "status": true,
            "timestamp": "2024-01-24T03:33:23Z",
            "transactionFee": "0.0019171814579127",
            "txnHash": "0x2dd50b51e814da1c903dd1c5348f0957874df443046e04c76224654d88712e4e",
            "txnIndex": 91,
            "type": 2,
            "value": "0"
        },
        "fund_flow": [
            {
                "amount": "258,134,021.32302037",
                "from": "0x901f9bb4955aa9defa39e4b64df1000bfd96dc82",
                "id": 1,
                "isERC1155": false,
                "isERC721": false,
                "isReverted": false,
                "order": 1,
                "to": "0xed96e69d54609d9f2cff8aacd66ccf83c8a1b470",
                "token": "0x423f4e6138e475d85cf7ea071ac92097ed631eea"
            }
        ],
        "token_infos": [
            {
                "address": "0x423f4e6138e475d85cf7ea071ac92097ed631eea",
                "decimals": 18
            },
            {
                "address": "0xc02aaa39b223fe8d0a0e5c4f27ead9083c756cc2",
                "decimals": 18
            },
            {
                "address": "0xeeeeeeeeeeeeeeeeeeeeeeeeeeeeeeeeeeeeeeee",
                "decimals": 18
            }
        ]
    },
    "address_label": {
        "labels": [
            {
                "address": "0xed96e69d54609d9f2cff8aacd66ccf83c8a1b470",
                "label": "PondWater"
            },
            {
                "address": "0x2d50efbc3690b6d0ea0b179c18f016ae9031c00a",
                "label": "MiningRigV3"
            },
            {
                "address": "0x0000000000000000000000000000000000000001",
                "label": "Precompiled"
            },
            {
                "address": "0x0000000000000000000000000000000000000002",
                "label": "Precompiled"
            },
            {
                "address": "0x0000000000000000000000000000000000000003",
                "label": "Precompiled"
            },
            {
                "address": "0x0000000000000000000000000000000000000004",
                "label": "Precompiled"
            },
            {
                "address": "0xeeeeeeeeeeeeeeeeeeeeeeeeeeeeeeeeeeeeeeee",
                "label": "Ether"
            },
            {
                "address": "0x423f4e6138e475d85cf7ea071ac92097ed631eea",
                "label": "Pond Coin: PNDC Token"
            }
        ]
    },
    "trace": {
        "accountLabels": null,
        "dataMap": {
            "-1": {
                "invocation": {
                    "address": "0x901f9bb4955aa9defa39e4b64df1000bfd96dc82",
                    "callData": "",
                    "decodedMethod": null,
                    "errorInfo": "",
                    "fromAddress": "",
                    "gasUsed": 0,
                    "id": -1,
                    "methodDecoded": false,
                    "operation": "",
                    "output": "",
                    "revert": false,
                    "revertMessage": "",
                    "selector": "",
                    "status": false,
                    "value": ""
                },
                "nodeType": 0
            },
            "0": {
                "invocation": {
                    "address": "0xed96e69d54609d9f2cff8aacd66ccf83c8a1b470",
                    "callData": "0x000000000000000000000000000000000000000000d5860155e6131c2e04b4000000000000000000000000000000000000000000000000000000000000000007",
                    "decodedMethod": {
                        "callParams": [
                            {
                                "name": "_amount",
                                "type": "uint256",
                                "value": "258,134,021,323,020,370,000,000,000"
                            },
                            {
                                "name": "_lockPeriodIndex",
                                "type": "uint8",
                                "value": "7"
                            }
                        ],
                        "constructorArguments": "",
                        "name": "lock",
                        "returnParams": [
                            {
                                "name": "lockId",
                                "type": "uint256",
                                "value": "2,984"
                            }
                        ],
                        "signature": "lock(uint256,uint8)"
                    },
                    "errorInfo": "",
                    "fromAddress": "0x901f9bb4955aa9defa39e4b64df1000bfd96dc82",
                    "gasUsed": 151779,
                    "id": 0,
                    "methodDecoded": true,
                    "operation": "CALL",
                    "output": "0x0000000000000000000000000000000000000000000000000000000000000ba8",
                    "revert": false,
                    "revertMessage": "",
                    "selector": "0x998e4242",
                    "status": true,
                    "value": "0"
                },
                "nodeType": 0
            },
            "1": {
                "invocation": {
                    "address": "0x423f4e6138e475d85cf7ea071ac92097ed631eea",
                    "callData": "0x000000000000000000000000901f9bb4955aa9defa39e4b64df1000bfd96dc82000000000000000000000000ed96e69d54609d9f2cff8aacd66ccf83c8a1b470000000000000000000000000000000000000000000d5860155e6131c2e04b400",
                    "decodedMethod": {
                        "callParams": [
                            {
                                "name": "from",
                                "type": "address",
                                "value": "0x901f9bb4955aa9defa39e4b64df1000bfd96dc82"
                            },
                            {
                                "name": "to",
                                "type": "address",
                                "value": "0xed96e69d54609d9f2cff8aacd66ccf83c8a1b470"
                            },
                            {
                                "decimalAvailable": true,
                                "name": "amount",
                                "type": "uint256",
                                "value": "258,134,021,323,020,370,000,000,000"
                            }
                        ],
                        "constructorArguments": "",
                        "name": "transferFrom",
                        "returnParams": [
                            {
                                "name": "",
                                "type": "bool",
                                "value": true
                            }
                        ],
                        "signature": "transferFrom(address,address,uint256)"
                    },
                    "errorInfo": "",
                    "fromAddress": "0xed96e69d54609d9f2cff8aacd66ccf83c8a1b470",
                    "gasUsed": 20023,
                    "id": 1,
                    "methodDecoded": true,
                    "operation": "CALL",
                    "output": "0x0000000000000000000000000000000000000000000000000000000000000001",
                    "revert": false,
                    "revertMessage": "",
                    "selector": "0x23b872dd",
                    "status": true,
                    "value": "0"
                },
                "nodeType": 0
            },
            "2": {
                "event": {
                    "contract": "0x423f4e6138e475d85cf7ea071ac92097ed631eea",
                    "decodedLog": {
                        "name": "Approval",
                        "params": [
                            {
                                "name": "owner",
                                "type": "address",
                                "value": "0x901f9bb4955aa9defa39e4b64df1000bfd96dc82"
                            },
                            {
                                "name": "spender",
                                "type": "address",
                                "value": "0xed96e69d54609d9f2cff8aacd66ccf83c8a1b470"
                            },
                            {
                                "decimalAvailable": true,
                                "name": "value",
                                "type": "uint256",
                                "value": "355,676,433,975,676,979,630,000,000,000"
                            }
                        ],
                        "signature": "Approval(address,address,uint256)"
                    },
                    "id": 2,
                    "logData": "0x00000000000000000000000000000000000000047d40a688ea92d73deccf4c00",
                    "logDecoded": true,
                    "operation": "EVENT",
                    "revert": false,
                    "status": true,
                    "topics": [
                        "0x8c5be1e5ebec7d5bd14f71427d1e84f3dd0314c0f7b2291e5b200ac8c7c3b925",
                        "0x000000000000000000000000901f9bb4955aa9defa39e4b64df1000bfd96dc82",
                        "0x000000000000000000000000ed96e69d54609d9f2cff8aacd66ccf83c8a1b470"
                    ]
                },
                "nodeType": 1
            },
            "3": {
                "event": {
                    "contract": "0x423f4e6138e475d85cf7ea071ac92097ed631eea",
                    "decodedLog": {
                        "name": "Transfer",
                        "params": [
                            {
                                "name": "from",
                                "type": "address",
                                "value": "0x901f9bb4955aa9defa39e4b64df1000bfd96dc82"
                            },
                            {
                                "name": "to",
                                "type": "address",
                                "value": "0xed96e69d54609d9f2cff8aacd66ccf83c8a1b470"
                            },
                            {
                                "decimalAvailable": true,
                                "name": "value",
                                "type": "uint256",
                                "value": "258,134,021,323,020,370,000,000,000"
                            }
                        ],
                        "signature": "Transfer(address,address,uint256)"
                    },
                    "id": 3,
                    "logData": "0x000000000000000000000000000000000000000000d5860155e6131c2e04b400",
                    "logDecoded": true,
                    "operation": "EVENT",
                    "revert": false,
                    "status": true,
                    "topics": [
                        "0xddf252ad1be2c89b69c2b068fc378daa952ba7f163c4a11628f55a4df523b3ef",
                        "0x000000000000000000000000901f9bb4955aa9defa39e4b64df1000bfd96dc82",
                        "0x000000000000000000000000ed96e69d54609d9f2cff8aacd66ccf83c8a1b470"
                    ]
                },
                "nodeType": 1
            },
            "4": {
                "invocation": {
                    "address": "0x2d50efbc3690b6d0ea0b179c18f016ae9031c00a",
                    "callData": "0x",
                    "decodedMethod": {
                        "callParams": [],
                        "constructorArguments": "",
                        "name": "cycleIndex",
                        "returnParams": [
                            {
                                "name": "",
                                "type": "uint256",
                                "value": "5"
                            }
                        ],
                        "signature": "cycleIndex()"
                    },
                    "errorInfo": "",
                    "fromAddress": "0xed96e69d54609d9f2cff8aacd66ccf83c8a1b470",
                    "gasUsed": 2406,
                    "id": 4,
                    "methodDecoded": true,
                    "operation": "STATICCALL",
                    "output": "0x0000000000000000000000000000000000000000000000000000000000000005",
                    "revert": false,
                    "revertMessage": "",
                    "selector": "0xef77f838",
                    "status": true,
                    "value": "0"
                },
                "nodeType": 0
            },
            "5": {
                "event": {
                    "contract": "0xed96e69d54609d9f2cff8aacd66ccf83c8a1b470",
                    "decodedLog": {
                        "name": "Lock",
                        "params": [
                            {
                                "name": "locker",
                                "type": "address",
                                "value": "0x901f9bb4955aa9defa39e4b64df1000bfd96dc82"
                            },
                            {
                                "name": "id",
                                "type": "uint256",
                                "value": "2,984"
                            },
                            {
                                "name": "locked",
                                "type": "uint256",
                                "value": "258,134,021,323,020,370,000,000,000"
                            },
                            {
                                "name": "startsAt",
                                "type": "uint40",
                                "value": "2,820"
                            },
                            {
                                "name": "lockedFor",
                                "type": "uint40",
                                "value": "128"
                            }
                        ],
                        "signature": "Lock(address,uint256,uint256,uint40,uint40)"
                    },
                    "id": 5,
                    "logData": "0x000000000000000000000000000000000000000000d5860155e6131c2e04b4000000000000000000000000000000000000000000000000000000000000000b040000000000000000000000000000000000000000000000000000000000000080",
                    "logDecoded": true,
                    "operation": "EVENT",
                    "revert": false,
                    "status": true,
                    "topics": [
                        "0x1b25091f383cba212d5e47f30dcc73a111f1304bf07e7f2c8503c7c311ddc6f0",
                        "0x000000000000000000000000901f9bb4955aa9defa39e4b64df1000bfd96dc82",
                        "0x0000000000000000000000000000000000000000000000000000000000000ba8"
                    ]
                },
                "nodeType": 1
            }
        },
        "gasFlame": [
            {
                "children": [
                    {
                        "children": [
                            {
                                "children": [],
                                "depth": 0,
                                "name": "Initial Gas",
                                "value": 21452
                            },
                            {
                                "children": [
                                    {
                                        "children": [],
                                        "depth": 1,
                                        "name": "transferFrom",
                                        "value": 20023
                                    },
                                    {
                                        "children": [],
                                        "depth": 1,
                                        "name": "cycleIndex",
                                        "value": 2406
                                    }
                                ],
                                "depth": 0,
                                "name": "Executed Gas",
                                "value": 133127
                            }
                        ],
                        "depth": -1,
                        "name": "Actual Gas Used",
                        "value": 151779
                    },
                    {
                        "children": [],
                        "depth": -1,
                        "name": "Refunded Gas",
                        "value": 2800
                    }
                ],
                "depth": -2,
                "name": "Total Gas",
                "value": 154579
            }
        ],
        "isConfirmed": true,
        "mainTrace": [
            {
                "children": [
                    {
                        "children": [
                            {
                                "children": [
                                    {
                                        "children": [],
                                        "depth": 2,
                                        "id": 2,
                                        "order": 2
                                    },
                                    {
                                        "children": [],
                                        "depth": 2,
                                        "id": 3,
                                        "order": 3
                                    }
                                ],
                                "depth": 1,
                                "id": 1,
                                "order": 1
                            },
                            {
                                "children": [],
                                "depth": 1,
                                "id": 4,
                                "order": 4
                            },
                            {
                                "children": [],
                                "depth": 1,
                                "id": 5,
                                "order": 5
                            }
                        ],
                        "depth": 0,
                        "id": 0,
                        "order": 0
                    }
                ],
                "depth": -1,
                "id": -1,
                "order": -1
            }
        ],
        "mainTraceNodeCount": 6,
        "parentIdMap": {
            "0": -1,
            "1": 0,
            "2": 1,
            "3": 1,
            "4": 0,
            "5": 0
        },
        "tidyTrace": [
            {
                "children": [
                    {
                        "children": [
                            {
                                "children": [
                                    {
                                        "children": [],
                                        "depth": 2,
                                        "id": 2,
                                        "order": 2
                                    },
                                    {
                                        "children": [],
                                        "depth": 2,
                                        "id": 3,
                                        "order": 3
                                    }
                                ],
                                "depth": 1,
                                "id": 1,
                                "order": 1
                            },
                            {
                                "children": [],
                                "depth": 1,
                                "id": 5,
                                "order": 5
                            }
                        ],
                        "depth": 0,
                        "id": 0,
                        "order": 0
                    }
                ],
                "depth": -1,
                "id": -1,
                "order": -1
            }
        ],
        "tidyTraceNodeCount": 5
    },
    "state_change": {
        "stateChanges": [
            {
                "address": "0x423f4e6138e475d85cf7ea071ac92097ed631eea",
                "erc": "ERC-20",
                "slots": [
                    {
                        "current": "0x00000000000000000000000000000000000000047d40a688ea92d73deccf4c00",
                        "key": "0xdc9cf1572f4ff4cac9e3c77dedafcad527d3a07d1ff5e99e8caa14044feb35df",
                        "prev": "0x00000000000000000000000000000000000000047e162c8a4078ea5a1ad40000"
                    },
                    {
                        "current": "0x00000000000000000000000000000000000000000000000000000002f83d1426",
                        "key": "0x6842ea788958272394d5dcfbffa0e657d0f16988fb3b63500854e3350b6882ba",
                        "prev": "0x000000000000000000000000000000000000000000d5860155e6131f2641c826"
                    },
                    {
                        "current": "0x000000000000000000000000000000000000010e6577de2053c2aa3146c7406a",
                        "key": "0xab38af1998cfe7e3756a54e725150f468171cb70d3b6493c6eba4d5351ba32b0",
                        "prev": "0x000000000000000000000000000000000000010e64a2581efddc971518c28c6a"
                    }
                ],
                "storageVariables": [
                    {
                        "name": "_balances",
                        "type": "mapping(address => uint256)",
                        "value": {
                            "pairs": [
                                {
                                    "key": "0x901f9bb4955aa9defa39e4b64df1000bfd96dc82",
                                    "value": {
                                        "current": "12754687014",
                                        "prev": "258134021323020382754687014",
                                        "typeTag": 1
                                    }
                                },
                                {
                                    "key": "0xed96e69d54609d9f2cff8aacd66ccf83c8a1b470",
                                    "value": {
                                        "current": "21423006775977551724069050073194",
                                        "prev": "21422748641956228703699050073194",
                                        "typeTag": 1
                                    }
                                }
                            ],
                            "typeTag": 4
                        }
                    },
                    {
                        "name": "_allowances",
                        "type": "mapping(address => mapping(address => uint256))",
                        "value": {
                            "pairs": [
                                {
                                    "key": "0x901f9bb4955aa9defa39e4b64df1000bfd96dc82",
                                    "value": {
                                        "pairs": [
                                            {
                                                "key": "0xed96e69d54609d9f2cff8aacd66ccf83c8a1b470",
                                                "value": {
                                                    "current": "355676433975676979630000000000",
                                                    "prev": "355934567997000000000000000000",
                                                    "typeTag": 1
                                                }
                                            }
                                        ],
                                        "typeTag": 4
                                    }
                                }
                            ],
                            "typeTag": 4
                        }
                    }
                ]
            },
            {
                "address": "0xed96e69d54609d9f2cff8aacd66ccf83c8a1b470",
                "erc": "",
                "slots": [
                    {
                        "current": "0x000000000000000000000144fa9cdf9e377c36e15fd5f7a2094f1a5be9600000",
                        "key": "0xfce8c71c1f9351ebc3115e81646f5b484d76414119eec5322079241cb08136b8",
                        "prev": "0x000000000000000000000144f865b13072e1d5545f595be47d5ad6aa99600000"
                    },
                    {
                        "current": "0x0000000000000000000000000000000000000000000000000000000000000ba8",
                        "key": "0x0000000000000000000000000000000000000000000000000000000000000007",
                        "prev": "0x0000000000000000000000000000000000000000000000000000000000000ba7"
                    },
                    {
                        "current": "0x000000000000000000000000901f9bb4955aa9defa39e4b64df1000bfd96dc82",
                        "key": "0xc9c06e7274484258f6b4eeb8afef3955214b6e7620aded721da03039f3929752",
                        "prev": "0x0000000000000000000000000000000000000000000000000000000000000000"
                    },
                    {
                        "current": "0x000000000000000000000000000000000000000000d5860155e6131c2e04b400",
                        "key": "0xc9c06e7274484258f6b4eeb8afef3955214b6e7620aded721da03039f3929753",
                        "prev": "0x0000000000000000000000000000000000000000000000000000000000000000"
                    },
                    {
                        "current": "0x0000000000000000000000000000000000000000000000000000800000000b04",
                        "key": "0xc9c06e7274484258f6b4eeb8afef3955214b6e7620aded721da03039f3929754",
                        "prev": "0x0000000000000000000000000000000000000000000000000000000000000000"
                    },
                    {
                        "current": "0x000000000000000000000000000000000000000004f005b86cd9f428dd1aec00",
                        "key": "0x3b41f942de826e89764f5029f9d16a0d7b3f00e91911e09870f228c5ff2d6cb2",
                        "prev": "0x0000000000000000000000000000000000000000041a7fb716f3e10caf163800"
                    },
                    {
                        "current": "0x0000000000000000000001a3481479226761e1404e112606e5065e3e89a80000",
                        "key": "0xee6f28ddbd2815515cc32e8cf4fbb2fa472f3a6abcd3a00bf173a9f58a72b3f4",
                        "prev": "0x0000000000000000000001a345dd4ab4a2c77fb34d948a4959121a8d39a80000"
                    }
                ],
                "storageVariables": [
                    {
                        "name": "locks",
                        "type": "mapping(uint256 => struct IPondWaterBase.LockData)",
                        "value": {
                            "pairs": [
                                {
                                    "key": "2984",
                                    "value": {
                                        "fields": [
                                            {
                                                "name": "owner",
                                                "type": "address",
                                                "value": {
                                                    "current": "0x901f9bb4955aa9defa39e4b64df1000bfd96dc82",
                                                    "prev": "0x0000000000000000000000000000000000000000",
                                                    "typeTag": 1
                                                }
                                            },
                                            {
                                                "name": "amount",
                                                "type": "uint256",
                                                "value": {
                                                    "current": "258134021323020370000000000",
                                                    "prev": "0",
                                                    "typeTag": 1
                                                }
                                            },
                                            {
                                                "name": "startInterval",
                                                "type": "uint40",
                                                "value": {
                                                    "current": "2820",
                                                    "prev": "0",
                                                    "typeTag": 1
                                                }
                                            },
                                            {
                                                "name": "lastsFor",
                                                "type": "uint40",
                                                "value": {
                                                    "current": "128",
                                                    "prev": "0",
                                                    "typeTag": 1
                                                }
                                            }
                                        ],
                                        "typeTag": 3
                                    }
                                }
                            ],
                            "typeTag": 4
                        }
                    },
                    {
                        "name": "userLockedPerCycle",
                        "type": "mapping(address => mapping(uint256 => uint256))",
                        "value": {
                            "pairs": [
                                {
                                    "key": "0x901f9bb4955aa9defa39e4b64df1000bfd96dc82",
                                    "value": {
                                        "pairs": [
                                            {
                                                "key": "5",
                                                "value": {
                                                    "current": "1528109249869783870000000000",
                                                    "prev": "1269975228546763500000000000",
                                                    "typeTag": 1
                                                }
                                            }
                                        ],
                                        "typeTag": 4
                                    }
                                }
                            ],
                            "typeTag": 4
                        }
                    },
                    {
                        "name": "toCreditAtInterval",
                        "type": "mapping(uint40 => uint256)",
                        "value": {
                            "pairs": [
                                {
                                    "key": "2820",
                                    "value": {
                                        "current": "612780689944345226708851361978746000000000000000000",
                                        "prev": "612768041377300398710721361978746000000000000000000",
                                        "typeTag": 1
                                    }
                                }
                            ],
                            "typeTag": 4
                        }
                    },
                    {
                        "name": "toDebitAtInterval",
                        "type": "mapping(uint40 => uint256)",
                        "value": {
                            "pairs": [
                                {
                                    "key": "2948",
                                    "value": {
                                        "current": "474957276584047605409990274367000000000000000000000",
                                        "prev": "474944628017002777411860274367000000000000000000000",
                                        "typeTag": 1
                                    }
                                }
                            ],
                            "typeTag": 4
                        }
                    },
                    {
                        "name": "lockIDIndex",
                        "type": "uint256",
                        "value": {
                            "current": "2984",
                            "prev": "2983",
                            "typeTag": 1
                        }
                    }
                ]
            }
        ]
    }
}