{
    "balance_change": {
        "balanceChanges": [
            {
                "account": "0x999999c60566e0a78df17f71886333e1dace0bae",
                "assets": [
                    {
                        "address": "0xeeeeeeeeeeeeeeeeeeeeeeeeeeeeeeeeeeeeeeee",
                        "amount": "0.19604",
                        "iconUrl": "https://assets.blocksec.com/image/1663669189317-3.png",
                        "isERC1155": false,
                        "isERC721": false,
                        "sign": false,
                        "value": ""
                    }
                ]
            },
            {
                "account": "0x7537260594c90de01f42815fe992d13c0f9a7028",
                "assets": [
                    {
                        "address": "0xeeeeeeeeeeeeeeeeeeeeeeeeeeeeeeeeeeeeeeee",
                        "amount": "0.19604",
                        "iconUrl": "https://assets.blocksec.com/image/1663669189317-3.png",
                        "isERC1155": false,
                        "isERC721": false,
                        "sign": true,
                        "value": ""
                    }
                ]
            }
        ]
    },
    "profile": {
        "basic_info": {
            "baseFee": "",
            "blockNumber": 7606611,
            "callData": "0xca722cdcc1c39282bbd46aec21f9388431858a01d7252d1a1728625d0bce7e70ac4ade56645e7a7182f4378e14b3ca6c06e967968e1aab09cd3a6672728560733f091ee8",
            "debugEnable": true,
            "errorInfo": "",
            "eventCount": 1,
            "feeRecipient": "0x829bd824b016326a401d083b33d092293333a830",
            "formatValue": "0",
            "gasLimit": 65000,
            "gasPrice": "4.1",
            "gasUsed": 48628,
            "intTxnCount": 1,
            "internalRevert": false,
            "internalRevertMessage": "",
            "isContractCreation": false,
            "isFlashloan": false,
            "maxFee": "",
            "nonce": 226911,
            "overwritedBlockNumber": -1,
            "priorityFee": "",
            "receiver": "0x999999c60566e0a78df17f71886333e1dace0bae",
            "revertMessage": "",
            "sender": "0x6666662ac054fed267a5818001104eb0b5e8bab3",
            "simulationEnable": true,
            "sourceTxnHash": "0x2d6b668cb68584f13f85099afb469eed5a587d70dccebea6d22f9b7bf7027b90",
            "status": true,
            "timestamp": "2019-04-20T20:20:03Z",
            "transactionFee": "0.0001993748",
            "txnHash": "0x2d6b668cb68584f13f85099afb469eed5a587d70dccebea6d22f9b7bf7027b90",
            "txnIndex": 65,
            "type": 0,
            "value": "0"
        },
        "fund_flow": [
            {
                "amount": "0.19604",
                "from": "0x999999c60566e0a78df17f71886333e1dace0bae",
                "id": 1,
                "isERC1155": false,
                "isERC721": false,
                "isReverted": false,
                "order": 1,
                "to": "0x7537260594c90de01f42815fe992d13c0f9a7028",
                "token": "0xeeeeeeeeeeeeeeeeeeeeeeeeeeeeeeeeeeeeeeee"
            }
        ],
        "token_infos": [
            {
                "address": "0xc02aaa39b223fe8d0a0e5c4f27ead9083c756cc2",
                "decimals": 18
            },
            {
                "address": "0xeeeeeeeeeeeeeeeeeeeeeeeeeeeeeeeeeeeeeeee",
                "decimals": 18
            }
        ]
    },
    "address_label": {
        "labels": [
            {
                "address": "0x0000000000000000000000000000000000000004",
                "label": "Precompiled"
            },
            {
                "address": "0xeeeeeeeeeeeeeeeeeeeeeeeeeeeeeeeeeeeeeeee",
                "label": "Ether"
            },
            {
                "address": "0x999999c60566e0a78df17f71886333e1dace0bae",
                "label": "FCK.com: Dice"
            },
            {
                "address": "0x0000000000000000000000000000000000000001",
                "label": "Precompiled"
            },
            {
                "address": "0x0000000000000000000000000000000000000002",
                "label": "Precompiled"
            },
            {
                "address": "0x0000000000000000000000000000000000000003",
                "label": "Precompiled"
            }
        ]
    },
    "trace": {
        "accountLabels": null,
        "dataMap": {
            "-1": {
                "invocation": {
                    "address": "0x6666662ac054fed267a5818001104eb0b5e8bab3",
                    "callData": "",
                    "decodedMethod": null,
                    "errorInfo": "",
                    "fromAddress": "",
                    "gasUsed": 0,
                    "id": -1,
                    "methodDecoded": false,
                    "operation": "",
                    "output": "",
                    "revert": false,
                    "revertMessage": "",
                    "selector": "",
                    "status": false,
                    "value": ""
                },
                "nodeType": 0
            },
            "0": {
                "invocation": {
                    "address": "0x999999c60566e0a78df17f71886333e1dace0bae",
                    "callData": "0xc1c39282bbd46aec21f9388431858a01d7252d1a1728625d0bce7e70ac4ade56645e7a7182f4378e14b3ca6c06e967968e1aab09cd3a6672728560733f091ee8",
                    "decodedMethod": {
                        "callParams": [
                            {
                                "name": "reveal",
                                "type": "uint256",
                                "value": "87,641,926,133,742,678,153,436,391,800,109,915,340,687,051,917,213,476,121,538,961,383,087,349,096,022"
                            },
                            {
                                "name": "blockHash",
                                "type": "bytes32",
                                "value": "0x645e7a7182f4378e14b3ca6c06e967968e1aab09cd3a6672728560733f091ee8"
                            }
                        ],
                        "constructorArguments": "",
                        "name": "settleBet",
                        "returnParams": [],
                        "signature": "settleBet(uint256,bytes32)"
                    },
                    "errorInfo": "",
                    "fromAddress": "0x6666662ac054fed267a5818001104eb0b5e8bab3",
                    "gasUsed": 48628,
                    "id": 0,
                    "methodDecoded": true,
                    "operation": "CALL",
                    "output": "",
                    "revert": false,
                    "revertMessage": "",
                    "selector": "0xca722cdc",
                    "status": true,
                    "value": "0"
                },
                "nodeType": 0
            },
            "1": {
                "invocation": {
                    "address": "0x7537260594c90de01f42815fe992d13c0f9a7028",
                    "callData": "0x",
                    "decodedMethod": null,
                    "errorInfo": "",
                    "fromAddress": "0x999999c60566e0a78df17f71886333e1dace0bae",
                    "gasUsed": 0,
                    "id": 1,
                    "methodDecoded": false,
                    "operation": "CALL",
                    "output": "",
                    "revert": false,
                    "revertMessage": "",
                    "selector": "fallback",
                    "status": true,
                    "value": "0.19604"
                },
                "nodeType": 0
            },
            "2": {
                "event": {
                    "contract": "0x999999c60566e0a78df17f71886333e1dace0bae",
                    "decodedLog": {
                        "name": "Payment",
                        "params": [
                            {
                                "name": "beneficiary",
                                "type": "address",
                                "value": "0x7537260594c90de01f42815fe992d13c0f9a7028"
                            },
                            {
                                "name": "amount",
                                "type": "uint256",
                                "value": "196,040,000,000,000,000"
                            },
                            {
                                "name": "commit",
                                "type": "uint256",
                                "value": "54,651,566,277,154,358,806,516,089,729,074,187,718,453,813,174,775,363,072,254,456,315,647,653,752,706"
                            }
                        ],
                        "signature": "Payment(address,uint256,uint256)"
                    },
                    "id": 2,
                    "logData": "0x00000000000000000000000000000000000000000000000002b8795761c4800078d3b0b9cc99d166f73349e03683c2b0f88512241b67b03329f1ce2fc912af82",
                    "logDecoded": true,
                    "operation": "EVENT",
                    "revert": false,
                    "status": true,
                    "topics": [
                        "0x9643c1b5b172b26d5f028be7fe646349bd5e3cd9367bb18f9e825afa828b7d93",
                        "0x0000000000000000000000007537260594c90de01f42815fe992d13c0f9a7028"
                    ]
                },
                "nodeType": 1
            }
        },
        "gasFlame": [
            {
                "children": [
                    {
                        "children": [
                            {
                                "children": [],
                                "depth": 0,
                                "name": "Initial Gas",
                                "value": 25624
                            },
                            {
                                "children": [
                                    {
                                        "children": [],
                                        "depth": 1,
                                        "name": "fallback",
                                        "value": 0
                                    }
                                ],
                                "depth": 0,
                                "name": "Executed Gas",
                                "value": 23004
                            }
                        ],
                        "depth": -1,
                        "name": "Actual Gas Used",
                        "value": 48628
                    },
                    {
                        "children": [],
                        "depth": -1,
                        "name": "Refunded Gas",
                        "value": 0
                    }
                ],
                "depth": -2,
                "name": "Total Gas",
                "value": 48628
            }
        ],
        "isConfirmed": true,
        "mainTrace": [
            {
                "children": [
                    {
                        "children": [
                            {
                                "children": [],
                                "depth": 1,
                                "id": 1,
                                "order": 1
                            },
                            {
                                "children": [],
                                "depth": 1,
                                "id": 2,
                                "order": 2
                            }
                        ],
                        "depth": 0,
                        "id": 0,
                        "order": 0
                    }
                ],
                "depth": -1,
                "id": -1,
                "order": -1
            }
        ],
        "mainTraceNodeCount": 3,
        "parentIdMap": {
            "0": -1,
            "1": 0,
            "2": 0
        },
        "tidyTrace": [
            {
                "children": [
                    {
                        "children": [
                            {
                                "children": [],
                                "depth": 1,
                                "id": 1,
                                "order": 1
                            },
                            {
                                "children": [],
                                "depth": 1,
                                "id": 2,
                                "order": 2
                            }
                        ],
                        "depth": 0,
                        "id": 0,
                        "order": 0
                    }
                ],
                "depth": -1,
                "id": -1,
                "order": -1
            }
        ],
        "tidyTraceNodeCount": 3
    },
    "state_change": {
        "stateChanges": [
            {
                "address": "0x999999c60566e0a78df17f71886333e1dace0bae",
                "erc": "",
                "slots": [
                    {
                        "current": "0x7537260594c90de01f42815fe992d13c0f9a7028010200000000000000000000",
                        "key": "0x1da57bc2684ea9a9263c1838c0d47cef6d2df0655512e57f9e8ccae29c01b7a2",
                        "prev": "0x7537260594c90de01f42815fe992d13c0f9a702801020000016345785d8a0000"
                    },
                    {
                        "current": "0x000000000000000011af14b7fb7d40000000000000000000114e3be4a2e98000",
                        "key": "0x0000000000000000000000000000000000000000000000000000000000000004",
                        "prev": "0x000000000000000014678e0f5d41c0000000000000000000114e3be4a2e98000"
                    }
                ],
                "storageVariables": [
                    {
                        "name": "bets",
                        "type": "mapping(uint256 => struct FckDice.Bet)",
                        "value": {
                            "pairs": [
                                {
                                    "key": "54651566277154358806516089729074187718453813174775363072254456315647653752706",
                                    "value": {
                                        "fields": [
                                            {
                                                "name": "amount",
                                                "type": "uint80",
                                                "value": {
                                                    "current": "0",
                                                    "prev": "100000000000000000",
                                                    "typeTag": 1
                                                }
                                            },
                                            {
                                                "name": "modulo",
                                                "type": "uint8",
                                                "value": {
                                                    "current": "2",
                                                    "prev": "2",
                                                    "typeTag": 1
                                                }
                                            },
                                            {
                                                "name": "rollUnder",
                                                "type": "uint8",
                                                "value": {
                                                    "current": "1",
                                                    "prev": "1",
                                                    "typeTag": 1
                                                }
                                            },
                                            {
                                                "name": "gambler",
                                                "type": "address payable",
                                                "value": {
                                                    "current": "0x7537260594c90de01f42815fe992d13c0f9a7028",
                                                    "prev": "0x7537260594c90de01f42815fe992d13c0f9a7028",
                                                    "typeTag": 1
                                                }
                                            }
                                        ],
                                        "typeTag": 3
                                    }
                                }
                            ],
                            "typeTag": 4
                        }
                    },
                    {
                        "name": "jackpotSize",
                        "type": "uint128",
                        "value": {
                            "current": "1247000000000000000",
                            "prev": "1247000000000000000",
                            "typeTag": 1
                        }
                    },
                    {
                        "name": "lockedInBets",
                        "type": "uint128",
                        "value": {
                            "current": "1274260000000000000",
                            "prev": "1470300000000000000",
                            "typeTag": 1
                        }
                    }
                ]
            }
        ]
    }
}