{
    "balance_change": {
        "balanceChanges": [
            {
                "account": "0xf6da21e95d74767009accb145b96897ac3630bad",
                "assets": [
                    {
                        "address": "0xc02aaa39b223fe8d0a0e5c4f27ead9083c756cc2",
                        "amount": "0.074632869761717098",
                        "iconUrl": "https://assets.blocksec.com/icon/f1cb2d02c471d545bbc7722daf3277fd852d98e63d118771af7047bd8256c516.png",
                        "isERC1155": false,
                        "isERC721": false,
                        "sign": true,
                        "value": "171.1894512"
                    }
                ]
            },
            {
                "account": "0x97f34c8e5992eb985c5f740e7ee8c7e48a1de76a",
                "assets": [
                    {
                        "address": "0xc02aaa39b223fe8d0a0e5c4f27ead9083c756cc2",
                        "amount": "3",
                        "iconUrl": "https://assets.blocksec.com/icon/f1cb2d02c471d545bbc7722daf3277fd852d98e63d118771af7047bd8256c516.png",
                        "isERC1155": false,
                        "isERC721": false,
                        "sign": true,
                        "value": "6881.262307"
                    },
                    {
                        "address": "0xad32a8e6220741182940c5abf610bde99e737b2d",
                        "amount": "3,660.959238585300328869",
                        "iconUrl": "https://assets.blocksec.com/icon/680883fb8adfd81c9dbab2a8247d166be2083fe5f30487ec80154ac69e9bcf04.png",
                        "isERC1155": false,
                        "isERC721": false,
                        "sign": false,
                        "value": "7191.798565"
                    }
                ]
            },
            {
                "account": "0xe8846b27988ff52c371d5bd27bf8dba4097c93d2",
                "assets": [
                    {
                        "address": "0xad32a8e6220741182940c5abf610bde99e737b2d",
                        "amount": "3,660.959238585300328869",
                        "iconUrl": "https://assets.blocksec.com/icon/680883fb8adfd81c9dbab2a8247d166be2083fe5f30487ec80154ac69e9bcf04.png",
                        "isERC1155": false,
                        "isERC721": false,
                        "sign": true,
                        "value": "7191.798565"
                    },
                    {
                        "address": "0xc02aaa39b223fe8d0a0e5c4f27ead9083c756cc2",
                        "amount": "3.074632869761717098",
                        "iconUrl": "https://assets.blocksec.com/icon/f1cb2d02c471d545bbc7722daf3277fd852d98e63d118771af7047bd8256c516.png",
                        "isERC1155": false,
                        "isERC721": false,
                        "sign": false,
                        "value": "7052.451759"
                    }
                ]
            }
        ]
    },
    "profile": {
        "basic_info": {
            "baseFee": "",
            "blockNumber": 12235470,
            "callData": "0x6c9df8be00000000000000000000000000000000000000000000000029a2241af62c0000000000000000000000000000000000000000000000000000000000000000006000000000000000000000000000000000000000000000000000000000000000e00000000000000000000000000000000000000000000000000000000000000003000000000000000000000000c02aaa39b223fe8d0a0e5c4f27ead9083c756cc2000000000000000000000000ad32a8e6220741182940c5abf610bde99e737b2d000000000000000000000000c02aaa39b223fe8d0a0e5c4f27ead9083c756cc2000000000000000000000000000000000000000000000000000000000000000200000000000000000000000000000000000000000000000000000000000000010000000000000000000000000000000000000000000000000000000000000000",
            "debugEnable": true,
            "errorInfo": "",
            "eventCount": 10,
            "feeRecipient": "0xea674fdde714fd979de3edf0f56aa9716b898ec8",
            "formatValue": "0",
            "gasLimit": 500000,
            "gasPrice": "1",
            "gasUsed": 382466,
            "intTxnCount": 31,
            "internalRevert": false,
            "internalRevertMessage": "",
            "isContractCreation": false,
            "isFlashloan": false,
            "maxFee": "",
            "nonce": 43603,
            "overwritedBlockNumber": -1,
            "priorityFee": "",
            "receiver": "0xb5d228cf2cdc45b9667b7bf418dd3f0eb1da30a3",
            "revertMessage": "",
            "sender": "0xf6da21e95d74767009accb145b96897ac3630bad",
            "simulationEnable": true,
            "sourceTxnHash": "0x2d1fa47fbc7ade4b4f354a7e74be7eb791d37dc67a08ac66bd4fa38474849ad2",
            "status": true,
            "timestamp": "2021-04-14T02:14:57Z",
            "transactionFee": "0.000382466",
            "txnHash": "0x2d1fa47fbc7ade4b4f354a7e74be7eb791d37dc67a08ac66bd4fa38474849ad2",
            "txnIndex": 1,
            "type": 0,
            "value": "0"
        },
        "fund_flow": [
            {
                "amount": "3",
                "from": "0xf6da21e95d74767009accb145b96897ac3630bad",
                "id": 1,
                "isERC1155": false,
                "isERC721": false,
                "isReverted": false,
                "order": 1,
                "to": "0xb5d228cf2cdc45b9667b7bf418dd3f0eb1da30a3",
                "token": "0xc02aaa39b223fe8d0a0e5c4f27ead9083c756cc2"
            },
            {
                "amount": "3",
                "from": "0xb5d228cf2cdc45b9667b7bf418dd3f0eb1da30a3",
                "id": 2,
                "isERC1155": false,
                "isERC721": false,
                "isReverted": false,
                "order": 2,
                "to": "0x97f34c8e5992eb985c5f740e7ee8c7e48a1de76a",
                "token": "0xc02aaa39b223fe8d0a0e5c4f27ead9083c756cc2"
            },
            {
                "amount": "3,660.959238585300328869",
                "from": "0x97f34c8e5992eb985c5f740e7ee8c7e48a1de76a",
                "id": 3,
                "isERC1155": false,
                "isERC721": false,
                "isReverted": false,
                "order": 3,
                "to": "0xb5d228cf2cdc45b9667b7bf418dd3f0eb1da30a3",
                "token": "0xad32a8e6220741182940c5abf610bde99e737b2d"
            },
            {
                "amount": "3,660.959238585300328869",
                "from": "0xb5d228cf2cdc45b9667b7bf418dd3f0eb1da30a3",
                "id": 4,
                "isERC1155": false,
                "isERC721": false,
                "isReverted": false,
                "order": 4,
                "to": "0xe8846b27988ff52c371d5bd27bf8dba4097c93d2",
                "token": "0xad32a8e6220741182940c5abf610bde99e737b2d"
            },
            {
                "amount": "3.074632869761717098",
                "from": "0xe8846b27988ff52c371d5bd27bf8dba4097c93d2",
                "id": 5,
                "isERC1155": false,
                "isERC721": false,
                "isReverted": false,
                "order": 5,
                "to": "0xb5d228cf2cdc45b9667b7bf418dd3f0eb1da30a3",
                "token": "0xc02aaa39b223fe8d0a0e5c4f27ead9083c756cc2"
            },
            {
                "amount": "3.074632869761717098",
                "from": "0xb5d228cf2cdc45b9667b7bf418dd3f0eb1da30a3",
                "id": 6,
                "isERC1155": false,
                "isERC721": false,
                "isReverted": false,
                "order": 6,
                "to": "0xf6da21e95d74767009accb145b96897ac3630bad",
                "token": "0xc02aaa39b223fe8d0a0e5c4f27ead9083c756cc2"
            }
        ],
        "token_infos": [
            {
                "address": "0xad32a8e6220741182940c5abf610bde99e737b2d",
                "decimals": 18
            },
            {
                "address": "0xc02aaa39b223fe8d0a0e5c4f27ead9083c756cc2",
                "decimals": 18
            },
            {
                "address": "0xeeeeeeeeeeeeeeeeeeeeeeeeeeeeeeeeeeeeeeee",
                "decimals": 18
            }
        ]
    },
    "address_label": {
        "labels": [
            {
                "address": "0x2b33cf282f867a7ff693a66e11b0fcc5552e4425",
                "label": "Lido: DAO Impl 1.0.0"
            },
            {
                "address": "0xc02aaa39b223fe8d0a0e5c4f27ead9083c756cc2",
                "label": "Wrapped Ether (WETH)"
            },
            {
                "address": "0x0000000000000000000000000000000000000002",
                "label": "Precompiled"
            },
            {
                "address": "0x0000000000000000000000000000000000000004",
                "label": "Precompiled"
            },
            {
                "address": "0xeeeeeeeeeeeeeeeeeeeeeeeeeeeeeeeeeeeeeeee",
                "label": "Ether"
            },
            {
                "address": "0xad32a8e6220741182940c5abf610bde99e737b2d",
                "label": "PieDAO: DOUGH v2 Token"
            },
            {
                "address": "0xf6da21e95d74767009accb145b96897ac3630bad",
                "label": "Ethermine: MEV Sender"
            },
            {
                "address": "0xd9e1ce17f2641f24ae83637ab66a2cca9c378b9f",
                "label": "SushiSwap: Router"
            },
            {
                "address": "0xde3a93028f2283cc28756b3674bd657eafb992f4",
                "label": "Lido: Aragon Token Manager Impl"
            },
            {
                "address": "0x1114f572c29398de602c65f6f947c5151fcfa0f3",
                "label": "AppProxyUpgradeable"
            },
            {
                "address": "0x7a250d5630b4cf539739df2c5dacb4c659f2488d",
                "label": "Uniswap V2: Router 2"
            },
            {
                "address": "0xe8846b27988ff52c371d5bd27bf8dba4097c93d2",
                "label": "Uniswap V2: DOUGH 3"
            },
            {
                "address": "0x0c188b183ff758500d1d18b432313d10e9f6b8a4",
                "label": "KernelProxy"
            },
            {
                "address": "0x0000000000000000000000000000000000000001",
                "label": "Precompiled"
            },
            {
                "address": "0x0000000000000000000000000000000000000003",
                "label": "Precompiled"
            },
            {
                "address": "0x97f34c8e5992eb985c5f740e7ee8c7e48a1de76a",
                "label": "SushiSwap: DOUGH"
            }
        ]
    },
    "trace": {
        "accountLabels": null,
        "dataMap": {
            "-1": {
                "invocation": {
                    "address": "0xf6da21e95d74767009accb145b96897ac3630bad",
                    "callData": "",
                    "decodedMethod": null,
                    "errorInfo": "",
                    "fromAddress": "",
                    "gasUsed": 0,
                    "id": -1,
                    "methodDecoded": false,
                    "operation": "",
                    "output": "",
                    "revert": false,
                    "revertMessage": "",
                    "selector": "",
                    "status": false,
                    "value": ""
                },
                "nodeType": 0
            },
            "0": {
                "invocation": {
                    "address": "0xb5d228cf2cdc45b9667b7bf418dd3f0eb1da30a3",
                    "callData": "0x00000000000000000000000000000000000000000000000029a2241af62c0000000000000000000000000000000000000000000000000000000000000000006000000000000000000000000000000000000000000000000000000000000000e00000000000000000000000000000000000000000000000000000000000000003000000000000000000000000c02aaa39b223fe8d0a0e5c4f27ead9083c756cc2000000000000000000000000ad32a8e6220741182940c5abf610bde99e737b2d000000000000000000000000c02aaa39b223fe8d0a0e5c4f27ead9083c756cc2000000000000000000000000000000000000000000000000000000000000000200000000000000000000000000000000000000000000000000000000000000010000000000000000000000000000000000000000000000000000000000000000",
                    "decodedMethod": null,
                    "errorInfo": "",
                    "fromAddress": "0xf6da21e95d74767009accb145b96897ac3630bad",
                    "gasUsed": 382466,
                    "id": 0,
                    "methodDecoded": false,
                    "operation": "CALL",
                    "output": "0x0000000000000000000000000000000000000000000000002aab4a4e10e3136a",
                    "revert": false,
                    "revertMessage": "",
                    "selector": "0x6c9df8be",
                    "status": true,
                    "value": "0"
                },
                "nodeType": 0
            },
            "1": {
                "invocation": {
                    "address": "0xc02aaa39b223fe8d0a0e5c4f27ead9083c756cc2",
                    "callData": "0x000000000000000000000000f6da21e95d74767009accb145b96897ac3630bad000000000000000000000000b5d228cf2cdc45b9667b7bf418dd3f0eb1da30a300000000000000000000000000000000000000000000000029a2241af62c0000",
                    "decodedMethod": {
                        "callParams": [
                            {
                                "name": "src",
                                "type": "address",
                                "value": "0xf6da21e95d74767009accb145b96897ac3630bad"
                            },
                            {
                                "name": "dst",
                                "type": "address",
                                "value": "0xb5d228cf2cdc45b9667b7bf418dd3f0eb1da30a3"
                            },
                            {
                                "decimalAvailable": true,
                                "name": "wad",
                                "type": "uint256",
                                "value": "3,000,000,000,000,000,000"
                            }
                        ],
                        "constructorArguments": "",
                        "name": "transferFrom",
                        "returnParams": [
                            {
                                "name": "",
                                "type": "bool",
                                "value": true
                            }
                        ],
                        "signature": "transferFrom(address,address,uint256)"
                    },
                    "errorInfo": "",
                    "fromAddress": "0xb5d228cf2cdc45b9667b7bf418dd3f0eb1da30a3",
                    "gasUsed": 31025,
                    "id": 1,
                    "methodDecoded": true,
                    "operation": "CALL",
                    "output": "0x0000000000000000000000000000000000000000000000000000000000000001",
                    "revert": false,
                    "revertMessage": "",
                    "selector": "0x23b872dd",
                    "status": true,
                    "value": "0"
                },
                "nodeType": 0
            },
            "10": {
                "invocation": {
                    "address": "0x1114f572c29398de602c65f6f947c5151fcfa0f3",
                    "callData": "0x00000000000000000000000097f34c8e5992eb985c5f740e7ee8c7e48a1de76a000000000000000000000000b5d228cf2cdc45b9667b7bf418dd3f0eb1da30a30000000000000000000000000000000000000000000000c67603f6e6655ca1a5",
                    "decodedMethod": {
                        "callParams": [
                            {
                                "name": "_from",
                                "type": "address",
                                "value": "0x97f34c8e5992eb985c5f740e7ee8c7e48a1de76a"
                            },
                            {
                                "name": "_to",
                                "type": "address",
                                "value": "0xb5d228cf2cdc45b9667b7bf418dd3f0eb1da30a3"
                            },
                            {
                                "name": "_amount",
                                "type": "uint256",
                                "value": "3,660,959,238,585,300,328,869"
                            }
                        ],
                        "constructorArguments": "",
                        "name": "onTransfer",
                        "returnParams": [
                            {
                                "name": "",
                                "type": "bool",
                                "value": true
                            }
                        ],
                        "signature": "onTransfer(address,address,uint256)"
                    },
                    "errorInfo": "",
                    "fromAddress": "0xad32a8e6220741182940c5abf610bde99e737b2d",
                    "gasUsed": 33314,
                    "id": 10,
                    "methodDecoded": true,
                    "operation": "CALL",
                    "output": "0x0000000000000000000000000000000000000000000000000000000000000001",
                    "revert": false,
                    "revertMessage": "",
                    "selector": "0x4a393149",
                    "status": true,
                    "value": "0"
                },
                "nodeType": 0
            },
            "11": {
                "invocation": {
                    "address": "0x0c188b183ff758500d1d18b432313d10e9f6b8a4",
                    "callData": "0xf1f3eb40f5bc1ad1344716ced8b8a0431d840b5783aea1fd01786bc26f35ac0f6b20a3010614eeebf2138ccec99f028a61c811b3b1a3343b6ff635985c75c91f",
                    "decodedMethod": {
                        "callParams": [
                            {
                                "name": "_namespace",
                                "type": "bytes32",
                                "value": "0xf1f3eb40f5bc1ad1344716ced8b8a0431d840b5783aea1fd01786bc26f35ac0f"
                            },
                            {
                                "name": "_appId",
                                "type": "bytes32",
                                "value": "0x6b20a3010614eeebf2138ccec99f028a61c811b3b1a3343b6ff635985c75c91f"
                            }
                        ],
                        "constructorArguments": "",
                        "name": "getApp",
                        "returnParams": [
                            {
                                "name": "",
                                "type": "address",
                                "value": "0xde3a93028f2283cc28756b3674bd657eafb992f4"
                            }
                        ],
                        "signature": "getApp(bytes32,bytes32)"
                    },
                    "errorInfo": "",
                    "fromAddress": "0x1114f572c29398de602c65f6f947c5151fcfa0f3",
                    "gasUsed": 4363,
                    "id": 11,
                    "methodDecoded": true,
                    "operation": "CALL",
                    "output": "0x000000000000000000000000de3a93028f2283cc28756b3674bd657eafb992f4",
                    "revert": false,
                    "revertMessage": "",
                    "selector": "0xbe00bbd8",
                    "status": true,
                    "value": "0"
                },
                "nodeType": 0
            },
            "12": {
                "invocation": {
                    "address": "0x2b33cf282f867a7ff693a66e11b0fcc5552e4425",
                    "callData": "0xf1f3eb40f5bc1ad1344716ced8b8a0431d840b5783aea1fd01786bc26f35ac0f6b20a3010614eeebf2138ccec99f028a61c811b3b1a3343b6ff635985c75c91f",
                    "decodedMethod": {
                        "callParams": [
                            {
                                "name": "_namespace",
                                "type": "bytes32",
                                "value": "0xf1f3eb40f5bc1ad1344716ced8b8a0431d840b5783aea1fd01786bc26f35ac0f"
                            },
                            {
                                "name": "_appId",
                                "type": "bytes32",
                                "value": "0x6b20a3010614eeebf2138ccec99f028a61c811b3b1a3343b6ff635985c75c91f"
                            }
                        ],
                        "constructorArguments": "",
                        "name": "getApp",
                        "returnParams": [
                            {
                                "name": "",
                                "type": "address",
                                "value": "0xde3a93028f2283cc28756b3674bd657eafb992f4"
                            }
                        ],
                        "signature": "getApp(bytes32,bytes32)"
                    },
                    "errorInfo": "",
                    "fromAddress": "0x0c188b183ff758500d1d18b432313d10e9f6b8a4",
                    "gasUsed": 1520,
                    "id": 12,
                    "methodDecoded": true,
                    "operation": "DELEGATECALL",
                    "output": "0x000000000000000000000000de3a93028f2283cc28756b3674bd657eafb992f4",
                    "revert": false,
                    "revertMessage": "",
                    "selector": "0xbe00bbd8",
                    "status": true,
                    "value": "0"
                },
                "nodeType": 0
            },
            "13": {
                "invocation": {
                    "address": "0xde3a93028f2283cc28756b3674bd657eafb992f4",
                    "callData": "0x00000000000000000000000097f34c8e5992eb985c5f740e7ee8c7e48a1de76a000000000000000000000000b5d228cf2cdc45b9667b7bf418dd3f0eb1da30a30000000000000000000000000000000000000000000000c67603f6e6655ca1a5",
                    "decodedMethod": {
                        "callParams": [
                            {
                                "name": "_from",
                                "type": "address",
                                "value": "0x97f34c8e5992eb985c5f740e7ee8c7e48a1de76a"
                            },
                            {
                                "name": "_to",
                                "type": "address",
                                "value": "0xb5d228cf2cdc45b9667b7bf418dd3f0eb1da30a3"
                            },
                            {
                                "name": "_amount",
                                "type": "uint256",
                                "value": "3,660,959,238,585,300,328,869"
                            }
                        ],
                        "constructorArguments": "",
                        "name": "onTransfer",
                        "returnParams": [
                            {
                                "name": "",
                                "type": "bool",
                                "value": true
                            }
                        ],
                        "signature": "onTransfer(address,address,uint256)"
                    },
                    "errorInfo": "",
                    "fromAddress": "0x1114f572c29398de602c65f6f947c5151fcfa0f3",
                    "gasUsed": 23522,
                    "id": 13,
                    "methodDecoded": true,
                    "operation": "DELEGATECALL",
                    "output": "0x0000000000000000000000000000000000000000000000000000000000000001",
                    "revert": false,
                    "revertMessage": "",
                    "selector": "0x4a393149",
                    "status": true,
                    "value": "0"
                },
                "nodeType": 0
            },
            "14": {
                "invocation": {
                    "address": "0xad32a8e6220741182940c5abf610bde99e737b2d",
                    "callData": "0x000000000000000000000000b5d228cf2cdc45b9667b7bf418dd3f0eb1da30a3",
                    "decodedMethod": {
                        "callParams": [
                            {
                                "name": "_owner",
                                "type": "address",
                                "value": "0xb5d228cf2cdc45b9667b7bf418dd3f0eb1da30a3"
                            }
                        ],
                        "constructorArguments": "",
                        "name": "balanceOf",
                        "returnParams": [
                            {
                                "decimalAvailable": true,
                                "name": "balance",
                                "type": "uint256",
                                "value": "0"
                            }
                        ],
                        "signature": "balanceOf(address)"
                    },
                    "errorInfo": "",
                    "fromAddress": "0x1114f572c29398de602c65f6f947c5151fcfa0f3",
                    "gasUsed": 7616,
                    "id": 14,
                    "methodDecoded": true,
                    "operation": "CALL",
                    "output": "0x0000000000000000000000000000000000000000000000000000000000000000",
                    "revert": false,
                    "revertMessage": "",
                    "selector": "0x70a08231",
                    "status": true,
                    "value": "0"
                },
                "nodeType": 0
            },
            "15": {
                "invocation": {
                    "address": "0xad32a8e6220741182940c5abf610bde99e737b2d",
                    "callData": "0x00000000000000000000000097f34c8e5992eb985c5f740e7ee8c7e48a1de76a",
                    "decodedMethod": {
                        "callParams": [
                            {
                                "name": "_owner",
                                "type": "address",
                                "value": "0x97f34c8e5992eb985c5f740e7ee8c7e48a1de76a"
                            }
                        ],
                        "constructorArguments": "",
                        "name": "balanceOf",
                        "returnParams": [
                            {
                                "decimalAvailable": true,
                                "name": "balance",
                                "type": "uint256",
                                "value": "1,100,687,145,377,334,011,466,938"
                            }
                        ],
                        "signature": "balanceOf(address)"
                    },
                    "errorInfo": "",
                    "fromAddress": "0x1114f572c29398de602c65f6f947c5151fcfa0f3",
                    "gasUsed": 7616,
                    "id": 15,
                    "methodDecoded": true,
                    "operation": "CALL",
                    "output": "0x00000000000000000000000000000000000000000000e9145ea576410d0194ba",
                    "revert": false,
                    "revertMessage": "",
                    "selector": "0x70a08231",
                    "status": true,
                    "value": "0"
                },
                "nodeType": 0
            },
            "16": {
                "event": {
                    "contract": "0xad32a8e6220741182940c5abf610bde99e737b2d",
                    "decodedLog": {
                        "name": "Transfer",
                        "params": [
                            {
                                "name": "_from",
                                "type": "address",
                                "value": "0x97f34c8e5992eb985c5f740e7ee8c7e48a1de76a"
                            },
                            {
                                "name": "_to",
                                "type": "address",
                                "value": "0xb5d228cf2cdc45b9667b7bf418dd3f0eb1da30a3"
                            },
                            {
                                "decimalAvailable": true,
                                "name": "_amount",
                                "type": "uint256",
                                "value": "3,660,959,238,585,300,328,869"
                            }
                        ],
                        "signature": "Transfer(address,address,uint256)"
                    },
                    "id": 16,
                    "logData": "0x0000000000000000000000000000000000000000000000c67603f6e6655ca1a5",
                    "logDecoded": true,
                    "operation": "EVENT",
                    "revert": false,
                    "status": true,
                    "topics": [
                        "0xddf252ad1be2c89b69c2b068fc378daa952ba7f163c4a11628f55a4df523b3ef",
                        "0x00000000000000000000000097f34c8e5992eb985c5f740e7ee8c7e48a1de76a",
                        "0x000000000000000000000000b5d228cf2cdc45b9667b7bf418dd3f0eb1da30a3"
                    ]
                },
                "nodeType": 1
            },
            "17": {
                "invocation": {
                    "address": "0xad32a8e6220741182940c5abf610bde99e737b2d",
                    "callData": "0x00000000000000000000000097f34c8e5992eb985c5f740e7ee8c7e48a1de76a",
                    "decodedMethod": {
                        "callParams": [
                            {
                                "name": "_owner",
                                "type": "address",
                                "value": "0x97f34c8e5992eb985c5f740e7ee8c7e48a1de76a"
                            }
                        ],
                        "constructorArguments": "",
                        "name": "balanceOf",
                        "returnParams": [
                            {
                                "decimalAvailable": true,
                                "name": "balance",
                                "type": "uint256",
                                "value": "1,097,026,186,138,748,711,138,069"
                            }
                        ],
                        "signature": "balanceOf(address)"
                    },
                    "errorInfo": "",
                    "fromAddress": "0x97f34c8e5992eb985c5f740e7ee8c7e48a1de76a",
                    "gasUsed": 7616,
                    "id": 17,
                    "methodDecoded": true,
                    "operation": "STATICCALL",
                    "output": "0x00000000000000000000000000000000000000000000e84de8a17f5aa7a4f315",
                    "revert": false,
                    "revertMessage": "",
                    "selector": "0x70a08231",
                    "status": true,
                    "value": "0"
                },
                "nodeType": 0
            },
            "18": {
                "invocation": {
                    "address": "0xc02aaa39b223fe8d0a0e5c4f27ead9083c756cc2",
                    "callData": "0x00000000000000000000000097f34c8e5992eb985c5f740e7ee8c7e48a1de76a",
                    "decodedMethod": {
                        "callParams": [
                            {
                                "name": "",
                                "type": "address",
                                "value": "0x97f34c8e5992eb985c5f740e7ee8c7e48a1de76a"
                            }
                        ],
                        "constructorArguments": "",
                        "name": "balanceOf",
                        "returnParams": [
                            {
                                "decimalAvailable": true,
                                "name": "",
                                "type": "uint256",
                                "value": "899,269,285,972,424,336,285"
                            }
                        ],
                        "signature": "balanceOf(address)"
                    },
                    "errorInfo": "",
                    "fromAddress": "0x97f34c8e5992eb985c5f740e7ee8c7e48a1de76a",
                    "gasUsed": 1234,
                    "id": 18,
                    "methodDecoded": true,
                    "operation": "STATICCALL",
                    "output": "0x000000000000000000000000000000000000000000000030bfde4b0f1d85239d",
                    "revert": false,
                    "revertMessage": "",
                    "selector": "0x70a08231",
                    "status": true,
                    "value": "0"
                },
                "nodeType": 0
            },
            "19": {
                "event": {
                    "contract": "0x97f34c8e5992eb985c5f740e7ee8c7e48a1de76a",
                    "decodedLog": {
                        "name": "Sync",
                        "params": [
                            {
                                "name": "reserve0",
                                "type": "uint112",
                                "value": "1,097,026,186,138,748,711,138,069"
                            },
                            {
                                "name": "reserve1",
                                "type": "uint112",
                                "value": "899,269,285,972,424,336,285"
                            }
                        ],
                        "signature": "Sync(uint112,uint112)"
                    },
                    "id": 19,
                    "logData": "0x00000000000000000000000000000000000000000000e84de8a17f5aa7a4f315000000000000000000000000000000000000000000000030bfde4b0f1d85239d",
                    "logDecoded": true,
                    "operation": "EVENT",
                    "revert": false,
                    "status": true,
                    "topics": [
                        "0x1c411e9a96e071241c2f21f7726b17ae89e3cab4c78be50e062b03a9fffbbad1"
                    ]
                },
                "nodeType": 1
            },
            "2": {
                "event": {
                    "contract": "0xc02aaa39b223fe8d0a0e5c4f27ead9083c756cc2",
                    "decodedLog": {
                        "name": "Transfer",
                        "params": [
                            {
                                "name": "src",
                                "type": "address",
                                "value": "0xf6da21e95d74767009accb145b96897ac3630bad"
                            },
                            {
                                "name": "dst",
                                "type": "address",
                                "value": "0xb5d228cf2cdc45b9667b7bf418dd3f0eb1da30a3"
                            },
                            {
                                "decimalAvailable": true,
                                "name": "wad",
                                "type": "uint256",
                                "value": "3,000,000,000,000,000,000"
                            }
                        ],
                        "signature": "Transfer(address,address,uint256)"
                    },
                    "id": 2,
                    "logData": "0x00000000000000000000000000000000000000000000000029a2241af62c0000",
                    "logDecoded": true,
                    "operation": "EVENT",
                    "revert": false,
                    "status": true,
                    "topics": [
                        "0xddf252ad1be2c89b69c2b068fc378daa952ba7f163c4a11628f55a4df523b3ef",
                        "0x000000000000000000000000f6da21e95d74767009accb145b96897ac3630bad",
                        "0x000000000000000000000000b5d228cf2cdc45b9667b7bf418dd3f0eb1da30a3"
                    ]
                },
                "nodeType": 1
            },
            "20": {
                "event": {
                    "contract": "0x97f34c8e5992eb985c5f740e7ee8c7e48a1de76a",
                    "decodedLog": {
                        "name": "Swap",
                        "params": [
                            {
                                "name": "sender",
                                "type": "address",
                                "value": "0xd9e1ce17f2641f24ae83637ab66a2cca9c378b9f"
                            },
                            {
                                "name": "to",
                                "type": "address",
                                "value": "0xb5d228cf2cdc45b9667b7bf418dd3f0eb1da30a3"
                            },
                            {
                                "name": "amount0In",
                                "type": "uint256",
                                "value": "0"
                            },
                            {
                                "name": "amount1In",
                                "type": "uint256",
                                "value": "3,000,000,000,000,000,000"
                            },
                            {
                                "name": "amount0Out",
                                "type": "uint256",
                                "value": "3,660,959,238,585,300,328,869"
                            },
                            {
                                "name": "amount1Out",
                                "type": "uint256",
                                "value": "0"
                            }
                        ],
                        "signature": "Swap(address,uint256,uint256,uint256,uint256,address)"
                    },
                    "id": 20,
                    "logData": "0x000000000000000000000000000000000000000000000000000000000000000000000000000000000000000000000000000000000000000029a2241af62c00000000000000000000000000000000000000000000000000c67603f6e6655ca1a50000000000000000000000000000000000000000000000000000000000000000",
                    "logDecoded": true,
                    "operation": "EVENT",
                    "revert": false,
                    "status": true,
                    "topics": [
                        "0xd78ad95fa46c994b6551d0da85fc275fe613ce37657fb8d5e3d130840159d822",
                        "0x000000000000000000000000d9e1ce17f2641f24ae83637ab66a2cca9c378b9f",
                        "0x000000000000000000000000b5d228cf2cdc45b9667b7bf418dd3f0eb1da30a3"
                    ]
                },
                "nodeType": 1
            },
            "21": {
                "invocation": {
                    "address": "0xad32a8e6220741182940c5abf610bde99e737b2d",
                    "callData": "0x000000000000000000000000b5d228cf2cdc45b9667b7bf418dd3f0eb1da30a30000000000000000000000007a250d5630b4cf539739df2c5dacb4c659f2488d",
                    "decodedMethod": {
                        "callParams": [
                            {
                                "name": "_owner",
                                "type": "address",
                                "value": "0xb5d228cf2cdc45b9667b7bf418dd3f0eb1da30a3"
                            },
                            {
                                "name": "_spender",
                                "type": "address",
                                "value": "0x7a250d5630b4cf539739df2c5dacb4c659f2488d"
                            }
                        ],
                        "constructorArguments": "",
                        "name": "allowance",
                        "returnParams": [
                            {
                                "decimalAvailable": true,
                                "name": "remaining",
                                "type": "uint256",
                                "value": "115,792,089,237,316,195,423,570,985,008,687,907,853,269,984,665,640,564,036,459,284,784,740,260,598,160"
                            }
                        ],
                        "signature": "allowance(address,address)"
                    },
                    "errorInfo": "",
                    "fromAddress": "0xb5d228cf2cdc45b9667b7bf418dd3f0eb1da30a3",
                    "gasUsed": 1610,
                    "id": 21,
                    "methodDecoded": true,
                    "operation": "STATICCALL",
                    "output": "0xffffffffffffffffffffffffffffffffffffffffffffff5d763d5631c37b5190",
                    "revert": false,
                    "revertMessage": "",
                    "selector": "0xdd62ed3e",
                    "status": true,
                    "value": "0"
                },
                "nodeType": 0
            },
            "22": {
                "invocation": {
                    "address": "0x7a250d5630b4cf539739df2c5dacb4c659f2488d",
                    "callData": "0x0000000000000000000000000000000000000000000000c67603f6e6655ca1a5000000000000000000000000000000000000000000000000000000000000000000000000000000000000000000000000000000000000000000000000000000a0000000000000000000000000b5d228cf2cdc45b9667b7bf418dd3f0eb1da30a300000000000000000000000000000000000000000000000000000000730ba34d0000000000000000000000000000000000000000000000000000000000000002000000000000000000000000ad32a8e6220741182940c5abf610bde99e737b2d000000000000000000000000c02aaa39b223fe8d0a0e5c4f27ead9083c756cc2",
                    "decodedMethod": {
                        "callParams": [
                            {
                                "name": "amountIn",
                                "type": "uint256",
                                "value": "3,660,959,238,585,300,328,869"
                            },
                            {
                                "name": "amountOutMin",
                                "type": "uint256",
                                "value": "0"
                            },
                            {
                                "name": "path",
                                "type": "address[]",
                                "value": [
                                    "0xad32a8e6220741182940c5abf610bde99e737b2d",
                                    "0xc02aaa39b223fe8d0a0e5c4f27ead9083c756cc2"
                                ]
                            },
                            {
                                "name": "to",
                                "type": "address",
                                "value": "0xb5d228cf2cdc45b9667b7bf418dd3f0eb1da30a3"
                            },
                            {
                                "name": "deadline",
                                "type": "uint256",
                                "value": "1,930,142,541"
                            }
                        ],
                        "constructorArguments": "",
                        "name": "swapExactTokensForTokens",
                        "returnParams": [
                            {
                                "name": "amounts",
                                "type": "uint256[]",
                                "value": [
                                    "3,660,959,238,585,300,328,869",
                                    "3,074,632,869,761,717,098"
                                ]
                            }
                        ],
                        "signature": "swapExactTokensForTokens(uint256,uint256,address[],address,uint256)"
                    },
                    "errorInfo": "",
                    "fromAddress": "0xb5d228cf2cdc45b9667b7bf418dd3f0eb1da30a3",
                    "gasUsed": 189990,
                    "id": 22,
                    "methodDecoded": true,
                    "operation": "CALL",
                    "output": "0x000000000000000000000000000000000000000000000000000000000000002000000000000000000000000000000000000000000000000000000000000000020000000000000000000000000000000000000000000000c67603f6e6655ca1a50000000000000000000000000000000000000000000000002aab4a4e10e3136a",
                    "revert": false,
                    "revertMessage": "",
                    "selector": "0x38ed1739",
                    "status": true,
                    "value": "0"
                },
                "nodeType": 0
            },
            "23": {
                "invocation": {
                    "address": "0xe8846b27988ff52c371d5bd27bf8dba4097c93d2",
                    "callData": "0x",
                    "decodedMethod": {
                        "callParams": [],
                        "constructorArguments": "",
                        "name": "getReserves",
                        "returnParams": [
                            {
                                "name": "_reserve0",
                                "type": "uint112",
                                "value": "170,381,927,662,453,804,808,724"
                            },
                            {
                                "name": "_reserve1",
                                "type": "uint112",
                                "value": "146,599,363,829,811,689,290"
                            },
                            {
                                "name": "_blockTimestampLast",
                                "type": "uint32",
                                "value": "1,618,366,278"
                            }
                        ],
                        "signature": "getReserves()"
                    },
                    "errorInfo": "",
                    "fromAddress": "0x7a250d5630b4cf539739df2c5dacb4c659f2488d",
                    "gasUsed": 1204,
                    "id": 23,
                    "methodDecoded": true,
                    "operation": "STATICCALL",
                    "output": "0x0000000000000000000000000000000000000000000024146c3d06dc2c94ba14000000000000000000000000000000000000000000000007f27990afbe2cb74a0000000000000000000000000000000000000000000000000000000060764f46",
                    "revert": false,
                    "revertMessage": "",
                    "selector": "0x0902f1ac",
                    "status": true,
                    "value": "0"
                },
                "nodeType": 0
            },
            "24": {
                "invocation": {
                    "address": "0xad32a8e6220741182940c5abf610bde99e737b2d",
                    "callData": "0x000000000000000000000000b5d228cf2cdc45b9667b7bf418dd3f0eb1da30a3000000000000000000000000e8846b27988ff52c371d5bd27bf8dba4097c93d20000000000000000000000000000000000000000000000c67603f6e6655ca1a5",
                    "decodedMethod": {
                        "callParams": [
                            {
                                "name": "_from",
                                "type": "address",
                                "value": "0xb5d228cf2cdc45b9667b7bf418dd3f0eb1da30a3"
                            },
                            {
                                "name": "_to",
                                "type": "address",
                                "value": "0xe8846b27988ff52c371d5bd27bf8dba4097c93d2"
                            },
                            {
                                "decimalAvailable": true,
                                "name": "_amount",
                                "type": "uint256",
                                "value": "3,660,959,238,585,300,328,869"
                            }
                        ],
                        "constructorArguments": "",
                        "name": "transferFrom",
                        "returnParams": [
                            {
                                "name": "success",
                                "type": "bool",
                                "value": true
                            }
                        ],
                        "signature": "transferFrom(address,address,uint256)"
                    },
                    "errorInfo": "",
                    "fromAddress": "0x7a250d5630b4cf539739df2c5dacb4c659f2488d",
                    "gasUsed": 100002,
                    "id": 24,
                    "methodDecoded": true,
                    "operation": "CALL",
                    "output": "0x0000000000000000000000000000000000000000000000000000000000000001",
                    "revert": false,
                    "revertMessage": "",
                    "selector": "0x23b872dd",
                    "status": true,
                    "value": "0"
                },
                "nodeType": 0
            },
            "25": {
                "invocation": {
                    "address": "0x1114f572c29398de602c65f6f947c5151fcfa0f3",
                    "callData": "0x000000000000000000000000b5d228cf2cdc45b9667b7bf418dd3f0eb1da30a3000000000000000000000000e8846b27988ff52c371d5bd27bf8dba4097c93d20000000000000000000000000000000000000000000000c67603f6e6655ca1a5",
                    "decodedMethod": {
                        "callParams": [
                            {
                                "name": "_from",
                                "type": "address",
                                "value": "0xb5d228cf2cdc45b9667b7bf418dd3f0eb1da30a3"
                            },
                            {
                                "name": "_to",
                                "type": "address",
                                "value": "0xe8846b27988ff52c371d5bd27bf8dba4097c93d2"
                            },
                            {
                                "name": "_amount",
                                "type": "uint256",
                                "value": "3,660,959,238,585,300,328,869"
                            }
                        ],
                        "constructorArguments": "",
                        "name": "onTransfer",
                        "returnParams": [
                            {
                                "name": "",
                                "type": "bool",
                                "value": true
                            }
                        ],
                        "signature": "onTransfer(address,address,uint256)"
                    },
                    "errorInfo": "",
                    "fromAddress": "0xad32a8e6220741182940c5abf610bde99e737b2d",
                    "gasUsed": 33314,
                    "id": 25,
                    "methodDecoded": true,
                    "operation": "CALL",
                    "output": "0x0000000000000000000000000000000000000000000000000000000000000001",
                    "revert": false,
                    "revertMessage": "",
                    "selector": "0x4a393149",
                    "status": true,
                    "value": "0"
                },
                "nodeType": 0
            },
            "26": {
                "invocation": {
                    "address": "0x0c188b183ff758500d1d18b432313d10e9f6b8a4",
                    "callData": "0xf1f3eb40f5bc1ad1344716ced8b8a0431d840b5783aea1fd01786bc26f35ac0f6b20a3010614eeebf2138ccec99f028a61c811b3b1a3343b6ff635985c75c91f",
                    "decodedMethod": {
                        "callParams": [
                            {
                                "name": "_namespace",
                                "type": "bytes32",
                                "value": "0xf1f3eb40f5bc1ad1344716ced8b8a0431d840b5783aea1fd01786bc26f35ac0f"
                            },
                            {
                                "name": "_appId",
                                "type": "bytes32",
                                "value": "0x6b20a3010614eeebf2138ccec99f028a61c811b3b1a3343b6ff635985c75c91f"
                            }
                        ],
                        "constructorArguments": "",
                        "name": "getApp",
                        "returnParams": [
                            {
                                "name": "",
                                "type": "address",
                                "value": "0xde3a93028f2283cc28756b3674bd657eafb992f4"
                            }
                        ],
                        "signature": "getApp(bytes32,bytes32)"
                    },
                    "errorInfo": "",
                    "fromAddress": "0x1114f572c29398de602c65f6f947c5151fcfa0f3",
                    "gasUsed": 4363,
                    "id": 26,
                    "methodDecoded": true,
                    "operation": "CALL",
                    "output": "0x000000000000000000000000de3a93028f2283cc28756b3674bd657eafb992f4",
                    "revert": false,
                    "revertMessage": "",
                    "selector": "0xbe00bbd8",
                    "status": true,
                    "value": "0"
                },
                "nodeType": 0
            },
            "27": {
                "invocation": {
                    "address": "0x2b33cf282f867a7ff693a66e11b0fcc5552e4425",
                    "callData": "0xf1f3eb40f5bc1ad1344716ced8b8a0431d840b5783aea1fd01786bc26f35ac0f6b20a3010614eeebf2138ccec99f028a61c811b3b1a3343b6ff635985c75c91f",
                    "decodedMethod": {
                        "callParams": [
                            {
                                "name": "_namespace",
                                "type": "bytes32",
                                "value": "0xf1f3eb40f5bc1ad1344716ced8b8a0431d840b5783aea1fd01786bc26f35ac0f"
                            },
                            {
                                "name": "_appId",
                                "type": "bytes32",
                                "value": "0x6b20a3010614eeebf2138ccec99f028a61c811b3b1a3343b6ff635985c75c91f"
                            }
                        ],
                        "constructorArguments": "",
                        "name": "getApp",
                        "returnParams": [
                            {
                                "name": "",
                                "type": "address",
                                "value": "0xde3a93028f2283cc28756b3674bd657eafb992f4"
                            }
                        ],
                        "signature": "getApp(bytes32,bytes32)"
                    },
                    "errorInfo": "",
                    "fromAddress": "0x0c188b183ff758500d1d18b432313d10e9f6b8a4",
                    "gasUsed": 1520,
                    "id": 27,
                    "methodDecoded": true,
                    "operation": "DELEGATECALL",
                    "output": "0x000000000000000000000000de3a93028f2283cc28756b3674bd657eafb992f4",
                    "revert": false,
                    "revertMessage": "",
                    "selector": "0xbe00bbd8",
                    "status": true,
                    "value": "0"
                },
                "nodeType": 0
            },
            "28": {
                "invocation": {
                    "address": "0xde3a93028f2283cc28756b3674bd657eafb992f4",
                    "callData": "0x000000000000000000000000b5d228cf2cdc45b9667b7bf418dd3f0eb1da30a3000000000000000000000000e8846b27988ff52c371d5bd27bf8dba4097c93d20000000000000000000000000000000000000000000000c67603f6e6655ca1a5",
                    "decodedMethod": {
                        "callParams": [
                            {
                                "name": "_from",
                                "type": "address",
                                "value": "0xb5d228cf2cdc45b9667b7bf418dd3f0eb1da30a3"
                            },
                            {
                                "name": "_to",
                                "type": "address",
                                "value": "0xe8846b27988ff52c371d5bd27bf8dba4097c93d2"
                            },
                            {
                                "name": "_amount",
                                "type": "uint256",
                                "value": "3,660,959,238,585,300,328,869"
                            }
                        ],
                        "constructorArguments": "",
                        "name": "onTransfer",
                        "returnParams": [
                            {
                                "name": "",
                                "type": "bool",
                                "value": true
                            }
                        ],
                        "signature": "onTransfer(address,address,uint256)"
                    },
                    "errorInfo": "",
                    "fromAddress": "0x1114f572c29398de602c65f6f947c5151fcfa0f3",
                    "gasUsed": 23522,
                    "id": 28,
                    "methodDecoded": true,
                    "operation": "DELEGATECALL",
                    "output": "0x0000000000000000000000000000000000000000000000000000000000000001",
                    "revert": false,
                    "revertMessage": "",
                    "selector": "0x4a393149",
                    "status": true,
                    "value": "0"
                },
                "nodeType": 0
            },
            "29": {
                "invocation": {
                    "address": "0xad32a8e6220741182940c5abf610bde99e737b2d",
                    "callData": "0x000000000000000000000000e8846b27988ff52c371d5bd27bf8dba4097c93d2",
                    "decodedMethod": {
                        "callParams": [
                            {
                                "name": "_owner",
                                "type": "address",
                                "value": "0xe8846b27988ff52c371d5bd27bf8dba4097c93d2"
                            }
                        ],
                        "constructorArguments": "",
                        "name": "balanceOf",
                        "returnParams": [
                            {
                                "decimalAvailable": true,
                                "name": "balance",
                                "type": "uint256",
                                "value": "170,381,927,662,453,804,808,724"
                            }
                        ],
                        "signature": "balanceOf(address)"
                    },
                    "errorInfo": "",
                    "fromAddress": "0x1114f572c29398de602c65f6f947c5151fcfa0f3",
                    "gasUsed": 7616,
                    "id": 29,
                    "methodDecoded": true,
                    "operation": "CALL",
                    "output": "0x0000000000000000000000000000000000000000000024146c3d06dc2c94ba14",
                    "revert": false,
                    "revertMessage": "",
                    "selector": "0x70a08231",
                    "status": true,
                    "value": "0"
                },
                "nodeType": 0
            },
            "3": {
                "invocation": {
                    "address": "0xc02aaa39b223fe8d0a0e5c4f27ead9083c756cc2",
                    "callData": "0x000000000000000000000000b5d228cf2cdc45b9667b7bf418dd3f0eb1da30a3000000000000000000000000d9e1ce17f2641f24ae83637ab66a2cca9c378b9f",
                    "decodedMethod": {
                        "callParams": [
                            {
                                "name": "",
                                "type": "address",
                                "value": "0xb5d228cf2cdc45b9667b7bf418dd3f0eb1da30a3"
                            },
                            {
                                "name": "",
                                "type": "address",
                                "value": "0xd9e1ce17f2641f24ae83637ab66a2cca9c378b9f"
                            }
                        ],
                        "constructorArguments": "",
                        "name": "allowance",
                        "returnParams": [
                            {
                                "decimalAvailable": true,
                                "name": "",
                                "type": "uint256",
                                "value": "115,792,089,237,316,195,423,570,985,008,687,907,853,269,984,665,640,564,039,457,584,007,913,129,639,935"
                            }
                        ],
                        "signature": "allowance(address,address)"
                    },
                    "errorInfo": "",
                    "fromAddress": "0xb5d228cf2cdc45b9667b7bf418dd3f0eb1da30a3",
                    "gasUsed": 1417,
                    "id": 3,
                    "methodDecoded": true,
                    "operation": "STATICCALL",
                    "output": "0xffffffffffffffffffffffffffffffffffffffffffffffffffffffffffffffff",
                    "revert": false,
                    "revertMessage": "",
                    "selector": "0xdd62ed3e",
                    "status": true,
                    "value": "0"
                },
                "nodeType": 0
            },
            "30": {
                "invocation": {
                    "address": "0xad32a8e6220741182940c5abf610bde99e737b2d",
                    "callData": "0x000000000000000000000000b5d228cf2cdc45b9667b7bf418dd3f0eb1da30a3",
                    "decodedMethod": {
                        "callParams": [
                            {
                                "name": "_owner",
                                "type": "address",
                                "value": "0xb5d228cf2cdc45b9667b7bf418dd3f0eb1da30a3"
                            }
                        ],
                        "constructorArguments": "",
                        "name": "balanceOf",
                        "returnParams": [
                            {
                                "decimalAvailable": true,
                                "name": "balance",
                                "type": "uint256",
                                "value": "3,660,959,238,585,300,328,869"
                            }
                        ],
                        "signature": "balanceOf(address)"
                    },
                    "errorInfo": "",
                    "fromAddress": "0x1114f572c29398de602c65f6f947c5151fcfa0f3",
                    "gasUsed": 7616,
                    "id": 30,
                    "methodDecoded": true,
                    "operation": "CALL",
                    "output": "0x0000000000000000000000000000000000000000000000c67603f6e6655ca1a5",
                    "revert": false,
                    "revertMessage": "",
                    "selector": "0x70a08231",
                    "status": true,
                    "value": "0"
                },
                "nodeType": 0
            },
            "31": {
                "event": {
                    "contract": "0xad32a8e6220741182940c5abf610bde99e737b2d",
                    "decodedLog": {
                        "name": "Transfer",
                        "params": [
                            {
                                "name": "_from",
                                "type": "address",
                                "value": "0xb5d228cf2cdc45b9667b7bf418dd3f0eb1da30a3"
                            },
                            {
                                "name": "_to",
                                "type": "address",
                                "value": "0xe8846b27988ff52c371d5bd27bf8dba4097c93d2"
                            },
                            {
                                "decimalAvailable": true,
                                "name": "_amount",
                                "type": "uint256",
                                "value": "3,660,959,238,585,300,328,869"
                            }
                        ],
                        "signature": "Transfer(address,address,uint256)"
                    },
                    "id": 31,
                    "logData": "0x0000000000000000000000000000000000000000000000c67603f6e6655ca1a5",
                    "logDecoded": true,
                    "operation": "EVENT",
                    "revert": false,
                    "status": true,
                    "topics": [
                        "0xddf252ad1be2c89b69c2b068fc378daa952ba7f163c4a11628f55a4df523b3ef",
                        "0x000000000000000000000000b5d228cf2cdc45b9667b7bf418dd3f0eb1da30a3",
                        "0x000000000000000000000000e8846b27988ff52c371d5bd27bf8dba4097c93d2"
                    ]
                },
                "nodeType": 1
            },
            "32": {
                "invocation": {
                    "address": "0xe8846b27988ff52c371d5bd27bf8dba4097c93d2",
                    "callData": "0x00000000000000000000000000000000000000000000000000000000000000000000000000000000000000000000000000000000000000002aab4a4e10e3136a000000000000000000000000b5d228cf2cdc45b9667b7bf418dd3f0eb1da30a300000000000000000000000000000000000000000000000000000000000000800000000000000000000000000000000000000000000000000000000000000000",
                    "decodedMethod": {
                        "callParams": [
                            {
                                "name": "amount0Out",
                                "type": "uint256",
                                "value": "0"
                            },
                            {
                                "name": "amount1Out",
                                "type": "uint256",
                                "value": "3,074,632,869,761,717,098"
                            },
                            {
                                "name": "to",
                                "type": "address",
                                "value": "0xb5d228cf2cdc45b9667b7bf418dd3f0eb1da30a3"
                            },
                            {
                                "name": "data",
                                "type": "bytes",
                                "value": "0x"
                            }
                        ],
                        "constructorArguments": "",
                        "name": "swap",
                        "returnParams": [],
                        "signature": "swap(uint256,uint256,address,bytes)"
                    },
                    "errorInfo": "",
                    "fromAddress": "0x7a250d5630b4cf539739df2c5dacb4c659f2488d",
                    "gasUsed": 78035,
                    "id": 32,
                    "methodDecoded": true,
                    "operation": "CALL",
                    "output": "",
                    "revert": false,
                    "revertMessage": "",
                    "selector": "0x022c0d9f",
                    "status": true,
                    "value": "0"
                },
                "nodeType": 0
            },
            "33": {
                "invocation": {
                    "address": "0xc02aaa39b223fe8d0a0e5c4f27ead9083c756cc2",
                    "callData": "0x000000000000000000000000b5d228cf2cdc45b9667b7bf418dd3f0eb1da30a30000000000000000000000000000000000000000000000002aab4a4e10e3136a",
                    "decodedMethod": {
                        "callParams": [
                            {
                                "name": "dst",
                                "type": "address",
                                "value": "0xb5d228cf2cdc45b9667b7bf418dd3f0eb1da30a3"
                            },
                            {
                                "decimalAvailable": true,
                                "name": "wad",
                                "type": "uint256",
                                "value": "3,074,632,869,761,717,098"
                            }
                        ],
                        "constructorArguments": "",
                        "name": "transfer",
                        "returnParams": [
                            {
                                "name": "",
                                "type": "bool",
                                "value": true
                            }
                        ],
                        "signature": "transfer(address,uint256)"
                    },
                    "errorInfo": "",
                    "fromAddress": "0xe8846b27988ff52c371d5bd27bf8dba4097c93d2",
                    "gasUsed": 30162,
                    "id": 33,
                    "methodDecoded": true,
                    "operation": "CALL",
                    "output": "0x0000000000000000000000000000000000000000000000000000000000000001",
                    "revert": false,
                    "revertMessage": "",
                    "selector": "0xa9059cbb",
                    "status": true,
                    "value": "0"
                },
                "nodeType": 0
            },
            "34": {
                "event": {
                    "contract": "0xc02aaa39b223fe8d0a0e5c4f27ead9083c756cc2",
                    "decodedLog": {
                        "name": "Transfer",
                        "params": [
                            {
                                "name": "src",
                                "type": "address",
                                "value": "0xe8846b27988ff52c371d5bd27bf8dba4097c93d2"
                            },
                            {
                                "name": "dst",
                                "type": "address",
                                "value": "0xb5d228cf2cdc45b9667b7bf418dd3f0eb1da30a3"
                            },
                            {
                                "decimalAvailable": true,
                                "name": "wad",
                                "type": "uint256",
                                "value": "3,074,632,869,761,717,098"
                            }
                        ],
                        "signature": "Transfer(address,address,uint256)"
                    },
                    "id": 34,
                    "logData": "0x0000000000000000000000000000000000000000000000002aab4a4e10e3136a",
                    "logDecoded": true,
                    "operation": "EVENT",
                    "revert": false,
                    "status": true,
                    "topics": [
                        "0xddf252ad1be2c89b69c2b068fc378daa952ba7f163c4a11628f55a4df523b3ef",
                        "0x000000000000000000000000e8846b27988ff52c371d5bd27bf8dba4097c93d2",
                        "0x000000000000000000000000b5d228cf2cdc45b9667b7bf418dd3f0eb1da30a3"
                    ]
                },
                "nodeType": 1
            },
            "35": {
                "invocation": {
                    "address": "0xad32a8e6220741182940c5abf610bde99e737b2d",
                    "callData": "0x000000000000000000000000e8846b27988ff52c371d5bd27bf8dba4097c93d2",
                    "decodedMethod": {
                        "callParams": [
                            {
                                "name": "_owner",
                                "type": "address",
                                "value": "0xe8846b27988ff52c371d5bd27bf8dba4097c93d2"
                            }
                        ],
                        "constructorArguments": "",
                        "name": "balanceOf",
                        "returnParams": [
                            {
                                "decimalAvailable": true,
                                "name": "balance",
                                "type": "uint256",
                                "value": "174,042,886,901,039,105,137,593"
                            }
                        ],
                        "signature": "balanceOf(address)"
                    },
                    "errorInfo": "",
                    "fromAddress": "0xe8846b27988ff52c371d5bd27bf8dba4097c93d2",
                    "gasUsed": 7616,
                    "id": 35,
                    "methodDecoded": true,
                    "operation": "STATICCALL",
                    "output": "0x0000000000000000000000000000000000000000000024dae240fdc291f15bb9",
                    "revert": false,
                    "revertMessage": "",
                    "selector": "0x70a08231",
                    "status": true,
                    "value": "0"
                },
                "nodeType": 0
            },
            "36": {
                "invocation": {
                    "address": "0xc02aaa39b223fe8d0a0e5c4f27ead9083c756cc2",
                    "callData": "0x000000000000000000000000e8846b27988ff52c371d5bd27bf8dba4097c93d2",
                    "decodedMethod": {
                        "callParams": [
                            {
                                "name": "",
                                "type": "address",
                                "value": "0xe8846b27988ff52c371d5bd27bf8dba4097c93d2"
                            }
                        ],
                        "constructorArguments": "",
                        "name": "balanceOf",
                        "returnParams": [
                            {
                                "decimalAvailable": true,
                                "name": "",
                                "type": "uint256",
                                "value": "143,524,730,960,049,972,192"
                            }
                        ],
                        "signature": "balanceOf(address)"
                    },
                    "errorInfo": "",
                    "fromAddress": "0xe8846b27988ff52c371d5bd27bf8dba4097c93d2",
                    "gasUsed": 1234,
                    "id": 36,
                    "methodDecoded": true,
                    "operation": "STATICCALL",
                    "output": "0x000000000000000000000000000000000000000000000007c7ce4661ad49a3e0",
                    "revert": false,
                    "revertMessage": "",
                    "selector": "0x70a08231",
                    "status": true,
                    "value": "0"
                },
                "nodeType": 0
            },
            "37": {
                "event": {
                    "contract": "0xe8846b27988ff52c371d5bd27bf8dba4097c93d2",
                    "decodedLog": {
                        "name": "Sync",
                        "params": [
                            {
                                "name": "reserve0",
                                "type": "uint112",
                                "value": "174,042,886,901,039,105,137,593"
                            },
                            {
                                "name": "reserve1",
                                "type": "uint112",
                                "value": "143,524,730,960,049,972,192"
                            }
                        ],
                        "signature": "Sync(uint112,uint112)"
                    },
                    "id": 37,
                    "logData": "0x0000000000000000000000000000000000000000000024dae240fdc291f15bb9000000000000000000000000000000000000000000000007c7ce4661ad49a3e0",
                    "logDecoded": true,
                    "operation": "EVENT",
                    "revert": false,
                    "status": true,
                    "topics": [
                        "0x1c411e9a96e071241c2f21f7726b17ae89e3cab4c78be50e062b03a9fffbbad1"
                    ]
                },
                "nodeType": 1
            },
            "38": {
                "event": {
                    "contract": "0xe8846b27988ff52c371d5bd27bf8dba4097c93d2",
                    "decodedLog": {
                        "name": "Swap",
                        "params": [
                            {
                                "name": "sender",
                                "type": "address",
                                "value": "0x7a250d5630b4cf539739df2c5dacb4c659f2488d"
                            },
                            {
                                "name": "to",
                                "type": "address",
                                "value": "0xb5d228cf2cdc45b9667b7bf418dd3f0eb1da30a3"
                            },
                            {
                                "name": "amount0In",
                                "type": "uint256",
                                "value": "3,660,959,238,585,300,328,869"
                            },
                            {
                                "name": "amount1In",
                                "type": "uint256",
                                "value": "0"
                            },
                            {
                                "name": "amount0Out",
                                "type": "uint256",
                                "value": "0"
                            },
                            {
                                "name": "amount1Out",
                                "type": "uint256",
                                "value": "3,074,632,869,761,717,098"
                            }
                        ],
                        "signature": "Swap(address,uint256,uint256,uint256,uint256,address)"
                    },
                    "id": 38,
                    "logData": "0x0000000000000000000000000000000000000000000000c67603f6e6655ca1a5000000000000000000000000000000000000000000000000000000000000000000000000000000000000000000000000000000000000000000000000000000000000000000000000000000000000000000000000000000002aab4a4e10e3136a",
                    "logDecoded": true,
                    "operation": "EVENT",
                    "revert": false,
                    "status": true,
                    "topics": [
                        "0xd78ad95fa46c994b6551d0da85fc275fe613ce37657fb8d5e3d130840159d822",
                        "0x0000000000000000000000007a250d5630b4cf539739df2c5dacb4c659f2488d",
                        "0x000000000000000000000000b5d228cf2cdc45b9667b7bf418dd3f0eb1da30a3"
                    ]
                },
                "nodeType": 1
            },
            "39": {
                "invocation": {
                    "address": "0xc02aaa39b223fe8d0a0e5c4f27ead9083c756cc2",
                    "callData": "0x000000000000000000000000b5d228cf2cdc45b9667b7bf418dd3f0eb1da30a3",
                    "decodedMethod": {
                        "callParams": [
                            {
                                "name": "",
                                "type": "address",
                                "value": "0xb5d228cf2cdc45b9667b7bf418dd3f0eb1da30a3"
                            }
                        ],
                        "constructorArguments": "",
                        "name": "balanceOf",
                        "returnParams": [
                            {
                                "decimalAvailable": true,
                                "name": "",
                                "type": "uint256",
                                "value": "3,074,632,869,761,717,098"
                            }
                        ],
                        "signature": "balanceOf(address)"
                    },
                    "errorInfo": "",
                    "fromAddress": "0xb5d228cf2cdc45b9667b7bf418dd3f0eb1da30a3",
                    "gasUsed": 1234,
                    "id": 39,
                    "methodDecoded": true,
                    "operation": "STATICCALL",
                    "output": "0x0000000000000000000000000000000000000000000000002aab4a4e10e3136a",
                    "revert": false,
                    "revertMessage": "",
                    "selector": "0x70a08231",
                    "status": true,
                    "value": "0"
                },
                "nodeType": 0
            },
            "4": {
                "invocation": {
                    "address": "0xd9e1ce17f2641f24ae83637ab66a2cca9c378b9f",
                    "callData": "0x00000000000000000000000000000000000000000000000029a2241af62c0000000000000000000000000000000000000000000000000000000000000000000000000000000000000000000000000000000000000000000000000000000000a0000000000000000000000000b5d228cf2cdc45b9667b7bf418dd3f0eb1da30a300000000000000000000000000000000000000000000000000000000730ba34d0000000000000000000000000000000000000000000000000000000000000002000000000000000000000000c02aaa39b223fe8d0a0e5c4f27ead9083c756cc2000000000000000000000000ad32a8e6220741182940c5abf610bde99e737b2d",
                    "decodedMethod": {
                        "callParams": [
                            {
                                "name": "amountIn",
                                "type": "uint256",
                                "value": "3,000,000,000,000,000,000"
                            },
                            {
                                "name": "amountOutMin",
                                "type": "uint256",
                                "value": "0"
                            },
                            {
                                "name": "path",
                                "type": "address[]",
                                "value": [
                                    "0xc02aaa39b223fe8d0a0e5c4f27ead9083c756cc2",
                                    "0xad32a8e6220741182940c5abf610bde99e737b2d"
                                ]
                            },
                            {
                                "name": "to",
                                "type": "address",
                                "value": "0xb5d228cf2cdc45b9667b7bf418dd3f0eb1da30a3"
                            },
                            {
                                "name": "deadline",
                                "type": "uint256",
                                "value": "1,930,142,541"
                            }
                        ],
                        "constructorArguments": "",
                        "name": "swapExactTokensForTokens",
                        "returnParams": [
                            {
                                "name": "amounts",
                                "type": "uint256[]",
                                "value": [
                                    "3,000,000,000,000,000,000",
                                    "3,660,959,238,585,300,328,869"
                                ]
                            }
                        ],
                        "signature": "swapExactTokensForTokens(uint256,uint256,address[],address,uint256)"
                    },
                    "errorInfo": "",
                    "fromAddress": "0xb5d228cf2cdc45b9667b7bf418dd3f0eb1da30a3",
                    "gasUsed": 157159,
                    "id": 4,
                    "methodDecoded": true,
                    "operation": "CALL",
                    "output": "0x0000000000000000000000000000000000000000000000000000000000000020000000000000000000000000000000000000000000000000000000000000000200000000000000000000000000000000000000000000000029a2241af62c00000000000000000000000000000000000000000000000000c67603f6e6655ca1a5",
                    "revert": false,
                    "revertMessage": "",
                    "selector": "0x38ed1739",
                    "status": true,
                    "value": "0"
                },
                "nodeType": 0
            },
            "40": {
                "invocation": {
                    "address": "0xc02aaa39b223fe8d0a0e5c4f27ead9083c756cc2",
                    "callData": "0x000000000000000000000000f6da21e95d74767009accb145b96897ac3630bad0000000000000000000000000000000000000000000000002aab4a4e10e3136a",
                    "decodedMethod": {
                        "callParams": [
                            {
                                "name": "dst",
                                "type": "address",
                                "value": "0xf6da21e95d74767009accb145b96897ac3630bad"
                            },
                            {
                                "decimalAvailable": true,
                                "name": "wad",
                                "type": "uint256",
                                "value": "3,074,632,869,761,717,098"
                            }
                        ],
                        "constructorArguments": "",
                        "name": "transfer",
                        "returnParams": [
                            {
                                "name": "",
                                "type": "bool",
                                "value": true
                            }
                        ],
                        "signature": "transfer(address,uint256)"
                    },
                    "errorInfo": "",
                    "fromAddress": "0xb5d228cf2cdc45b9667b7bf418dd3f0eb1da30a3",
                    "gasUsed": 6762,
                    "id": 40,
                    "methodDecoded": true,
                    "operation": "CALL",
                    "output": "0x0000000000000000000000000000000000000000000000000000000000000001",
                    "revert": false,
                    "revertMessage": "",
                    "selector": "0xa9059cbb",
                    "status": true,
                    "value": "0"
                },
                "nodeType": 0
            },
            "41": {
                "event": {
                    "contract": "0xc02aaa39b223fe8d0a0e5c4f27ead9083c756cc2",
                    "decodedLog": {
                        "name": "Transfer",
                        "params": [
                            {
                                "name": "src",
                                "type": "address",
                                "value": "0xb5d228cf2cdc45b9667b7bf418dd3f0eb1da30a3"
                            },
                            {
                                "name": "dst",
                                "type": "address",
                                "value": "0xf6da21e95d74767009accb145b96897ac3630bad"
                            },
                            {
                                "decimalAvailable": true,
                                "name": "wad",
                                "type": "uint256",
                                "value": "3,074,632,869,761,717,098"
                            }
                        ],
                        "signature": "Transfer(address,address,uint256)"
                    },
                    "id": 41,
                    "logData": "0x0000000000000000000000000000000000000000000000002aab4a4e10e3136a",
                    "logDecoded": true,
                    "operation": "EVENT",
                    "revert": false,
                    "status": true,
                    "topics": [
                        "0xddf252ad1be2c89b69c2b068fc378daa952ba7f163c4a11628f55a4df523b3ef",
                        "0x000000000000000000000000b5d228cf2cdc45b9667b7bf418dd3f0eb1da30a3",
                        "0x000000000000000000000000f6da21e95d74767009accb145b96897ac3630bad"
                    ]
                },
                "nodeType": 1
            },
            "5": {
                "invocation": {
                    "address": "0x97f34c8e5992eb985c5f740e7ee8c7e48a1de76a",
                    "callData": "0x",
                    "decodedMethod": {
                        "callParams": [],
                        "constructorArguments": "",
                        "name": "getReserves",
                        "returnParams": [
                            {
                                "name": "_reserve0",
                                "type": "uint112",
                                "value": "1,100,687,145,377,334,011,466,938"
                            },
                            {
                                "name": "_reserve1",
                                "type": "uint112",
                                "value": "896,269,285,972,424,336,285"
                            },
                            {
                                "name": "_blockTimestampLast",
                                "type": "uint32",
                                "value": "1,618,366,497"
                            }
                        ],
                        "signature": "getReserves()"
                    },
                    "errorInfo": "",
                    "fromAddress": "0xd9e1ce17f2641f24ae83637ab66a2cca9c378b9f",
                    "gasUsed": 1217,
                    "id": 5,
                    "methodDecoded": true,
                    "operation": "STATICCALL",
                    "output": "0x00000000000000000000000000000000000000000000e9145ea576410d0194ba000000000000000000000000000000000000000000000030963c26f42759239d0000000000000000000000000000000000000000000000000000000060765021",
                    "revert": false,
                    "revertMessage": "",
                    "selector": "0x0902f1ac",
                    "status": true,
                    "value": "0"
                },
                "nodeType": 0
            },
            "6": {
                "invocation": {
                    "address": "0xc02aaa39b223fe8d0a0e5c4f27ead9083c756cc2",
                    "callData": "0x000000000000000000000000b5d228cf2cdc45b9667b7bf418dd3f0eb1da30a300000000000000000000000097f34c8e5992eb985c5f740e7ee8c7e48a1de76a00000000000000000000000000000000000000000000000029a2241af62c0000",
                    "decodedMethod": {
                        "callParams": [
                            {
                                "name": "src",
                                "type": "address",
                                "value": "0xb5d228cf2cdc45b9667b7bf418dd3f0eb1da30a3"
                            },
                            {
                                "name": "dst",
                                "type": "address",
                                "value": "0x97f34c8e5992eb985c5f740e7ee8c7e48a1de76a"
                            },
                            {
                                "decimalAvailable": true,
                                "name": "wad",
                                "type": "uint256",
                                "value": "3,000,000,000,000,000,000"
                            }
                        ],
                        "constructorArguments": "",
                        "name": "transferFrom",
                        "returnParams": [
                            {
                                "name": "",
                                "type": "bool",
                                "value": true
                            }
                        ],
                        "signature": "transferFrom(address,address,uint256)"
                    },
                    "errorInfo": "",
                    "fromAddress": "0xd9e1ce17f2641f24ae83637ab66a2cca9c378b9f",
                    "gasUsed": 11825,
                    "id": 6,
                    "methodDecoded": true,
                    "operation": "CALL",
                    "output": "0x0000000000000000000000000000000000000000000000000000000000000001",
                    "revert": false,
                    "revertMessage": "",
                    "selector": "0x23b872dd",
                    "status": true,
                    "value": "0"
                },
                "nodeType": 0
            },
            "7": {
                "event": {
                    "contract": "0xc02aaa39b223fe8d0a0e5c4f27ead9083c756cc2",
                    "decodedLog": {
                        "name": "Transfer",
                        "params": [
                            {
                                "name": "src",
                                "type": "address",
                                "value": "0xb5d228cf2cdc45b9667b7bf418dd3f0eb1da30a3"
                            },
                            {
                                "name": "dst",
                                "type": "address",
                                "value": "0x97f34c8e5992eb985c5f740e7ee8c7e48a1de76a"
                            },
                            {
                                "decimalAvailable": true,
                                "name": "wad",
                                "type": "uint256",
                                "value": "3,000,000,000,000,000,000"
                            }
                        ],
                        "signature": "Transfer(address,address,uint256)"
                    },
                    "id": 7,
                    "logData": "0x00000000000000000000000000000000000000000000000029a2241af62c0000",
                    "logDecoded": true,
                    "operation": "EVENT",
                    "revert": false,
                    "status": true,
                    "topics": [
                        "0xddf252ad1be2c89b69c2b068fc378daa952ba7f163c4a11628f55a4df523b3ef",
                        "0x000000000000000000000000b5d228cf2cdc45b9667b7bf418dd3f0eb1da30a3",
                        "0x00000000000000000000000097f34c8e5992eb985c5f740e7ee8c7e48a1de76a"
                    ]
                },
                "nodeType": 1
            },
            "8": {
                "invocation": {
                    "address": "0x97f34c8e5992eb985c5f740e7ee8c7e48a1de76a",
                    "callData": "0x0000000000000000000000000000000000000000000000c67603f6e6655ca1a50000000000000000000000000000000000000000000000000000000000000000000000000000000000000000b5d228cf2cdc45b9667b7bf418dd3f0eb1da30a300000000000000000000000000000000000000000000000000000000000000800000000000000000000000000000000000000000000000000000000000000000",
                    "decodedMethod": {
                        "callParams": [
                            {
                                "name": "amount0Out",
                                "type": "uint256",
                                "value": "3,660,959,238,585,300,328,869"
                            },
                            {
                                "name": "amount1Out",
                                "type": "uint256",
                                "value": "0"
                            },
                            {
                                "name": "to",
                                "type": "address",
                                "value": "0xb5d228cf2cdc45b9667b7bf418dd3f0eb1da30a3"
                            },
                            {
                                "name": "data",
                                "type": "bytes",
                                "value": "0x"
                            }
                        ],
                        "constructorArguments": "",
                        "name": "swap",
                        "returnParams": [],
                        "signature": "swap(uint256,uint256,address,bytes)"
                    },
                    "errorInfo": "",
                    "fromAddress": "0xd9e1ce17f2641f24ae83637ab66a2cca9c378b9f",
                    "gasUsed": 132747,
                    "id": 8,
                    "methodDecoded": true,
                    "operation": "CALL",
                    "output": "",
                    "revert": false,
                    "revertMessage": "",
                    "selector": "0x022c0d9f",
                    "status": true,
                    "value": "0"
                },
                "nodeType": 0
            },
            "9": {
                "invocation": {
                    "address": "0xad32a8e6220741182940c5abf610bde99e737b2d",
                    "callData": "0x000000000000000000000000b5d228cf2cdc45b9667b7bf418dd3f0eb1da30a30000000000000000000000000000000000000000000000c67603f6e6655ca1a5",
                    "decodedMethod": {
                        "callParams": [
                            {
                                "name": "_to",
                                "type": "address",
                                "value": "0xb5d228cf2cdc45b9667b7bf418dd3f0eb1da30a3"
                            },
                            {
                                "decimalAvailable": true,
                                "name": "_amount",
                                "type": "uint256",
                                "value": "3,660,959,238,585,300,328,869"
                            }
                        ],
                        "constructorArguments": "",
                        "name": "transfer",
                        "returnParams": [
                            {
                                "name": "success",
                                "type": "bool",
                                "value": true
                            }
                        ],
                        "signature": "transfer(address,uint256)"
                    },
                    "errorInfo": "",
                    "fromAddress": "0x97f34c8e5992eb985c5f740e7ee8c7e48a1de76a",
                    "gasUsed": 96661,
                    "id": 9,
                    "methodDecoded": true,
                    "operation": "CALL",
                    "output": "0x0000000000000000000000000000000000000000000000000000000000000001",
                    "revert": false,
                    "revertMessage": "",
                    "selector": "0xa9059cbb",
                    "status": true,
                    "value": "0"
                },
                "nodeType": 0
            }
        },
        "gasFlame": [
            {
                "children": [
                    {
                        "children": [
                            {
                                "children": [],
                                "depth": 0,
                                "name": "Initial Gas",
                                "value": 23196
                            },
                            {
                                "children": [
                                    {
                                        "children": [],
                                        "depth": 1,
                                        "name": "transferFrom",
                                        "value": 31025
                                    },
                                    {
                                        "children": [],
                                        "depth": 1,
                                        "name": "allowance",
                                        "value": 1417
                                    },
                                    {
                                        "children": [
                                            {
                                                "children": [],
                                                "depth": 2,
                                                "name": "getReserves",
                                                "value": 1217
                                            },
                                            {
                                                "children": [],
                                                "depth": 2,
                                                "name": "transferFrom",
                                                "value": 11825
                                            },
                                            {
                                                "children": [
                                                    {
                                                        "children": [
                                                            {
                                                                "children": [
                                                                    {
                                                                        "children": [
                                                                            {
                                                                                "children": [],
                                                                                "depth": 6,
                                                                                "name": "getApp",
                                                                                "value": 1520
                                                                            }
                                                                        ],
                                                                        "depth": 5,
                                                                        "name": "getApp",
                                                                        "value": 4363
                                                                    },
                                                                    {
                                                                        "children": [
                                                                            {
                                                                                "children": [],
                                                                                "depth": 6,
                                                                                "name": "balanceOf",
                                                                                "value": 7616
                                                                            },
                                                                            {
                                                                                "children": [],
                                                                                "depth": 6,
                                                                                "name": "balanceOf",
                                                                                "value": 7616
                                                                            }
                                                                        ],
                                                                        "depth": 5,
                                                                        "name": "onTransfer",
                                                                        "value": 23522
                                                                    }
                                                                ],
                                                                "depth": 4,
                                                                "name": "onTransfer",
                                                                "value": 33314
                                                            }
                                                        ],
                                                        "depth": 3,
                                                        "name": "transfer",
                                                        "value": 96661
                                                    },
                                                    {
                                                        "children": [],
                                                        "depth": 3,
                                                        "name": "balanceOf",
                                                        "value": 7616
                                                    },
                                                    {
                                                        "children": [],
                                                        "depth": 3,
                                                        "name": "balanceOf",
                                                        "value": 1234
                                                    }
                                                ],
                                                "depth": 2,
                                                "name": "swap",
                                                "value": 132747
                                            }
                                        ],
                                        "depth": 1,
                                        "name": "swapExactTokensForTokens",
                                        "value": 157159
                                    },
                                    {
                                        "children": [],
                                        "depth": 1,
                                        "name": "allowance",
                                        "value": 1610
                                    },
                                    {
                                        "children": [
                                            {
                                                "children": [],
                                                "depth": 2,
                                                "name": "getReserves",
                                                "value": 1204
                                            },
                                            {
                                                "children": [
                                                    {
                                                        "children": [
                                                            {
                                                                "children": [
                                                                    {
                                                                        "children": [],
                                                                        "depth": 5,
                                                                        "name": "getApp",
                                                                        "value": 1520
                                                                    }
                                                                ],
                                                                "depth": 4,
                                                                "name": "getApp",
                                                                "value": 4363
                                                            },
                                                            {
                                                                "children": [
                                                                    {
                                                                        "children": [],
                                                                        "depth": 5,
                                                                        "name": "balanceOf",
                                                                        "value": 7616
                                                                    },
                                                                    {
                                                                        "children": [],
                                                                        "depth": 5,
                                                                        "name": "balanceOf",
                                                                        "value": 7616
                                                                    }
                                                                ],
                                                                "depth": 4,
                                                                "name": "onTransfer",
                                                                "value": 23522
                                                            }
                                                        ],
                                                        "depth": 3,
                                                        "name": "onTransfer",
                                                        "value": 33314
                                                    }
                                                ],
                                                "depth": 2,
                                                "name": "transferFrom",
                                                "value": 100002
                                            },
                                            {
                                                "children": [
                                                    {
                                                        "children": [],
                                                        "depth": 3,
                                                        "name": "transfer",
                                                        "value": 30162
                                                    },
                                                    {
                                                        "children": [],
                                                        "depth": 3,
                                                        "name": "balanceOf",
                                                        "value": 7616
                                                    },
                                                    {
                                                        "children": [],
                                                        "depth": 3,
                                                        "name": "balanceOf",
                                                        "value": 1234
                                                    }
                                                ],
                                                "depth": 2,
                                                "name": "swap",
                                                "value": 78035
                                            }
                                        ],
                                        "depth": 1,
                                        "name": "swapExactTokensForTokens",
                                        "value": 189990
                                    },
                                    {
                                        "children": [],
                                        "depth": 1,
                                        "name": "balanceOf",
                                        "value": 1234
                                    },
                                    {
                                        "children": [],
                                        "depth": 1,
                                        "name": "transfer",
                                        "value": 6762
                                    }
                                ],
                                "depth": 0,
                                "name": "Executed Gas",
                                "value": 406070
                            }
                        ],
                        "depth": -1,
                        "name": "Actual Gas Used",
                        "value": 382466
                    },
                    {
                        "children": [],
                        "depth": -1,
                        "name": "Refunded Gas",
                        "value": 46800
                    }
                ],
                "depth": -2,
                "name": "Total Gas",
                "value": 429266
            }
        ],
        "isConfirmed": true,
        "mainTrace": [
            {
                "children": [
                    {
                        "children": [
                            {
                                "children": [
                                    {
                                        "children": [],
                                        "depth": 2,
                                        "id": 2,
                                        "order": 2
                                    }
                                ],
                                "depth": 1,
                                "id": 1,
                                "order": 1
                            },
                            {
                                "children": [],
                                "depth": 1,
                                "id": 3,
                                "order": 3
                            },
                            {
                                "children": [
                                    {
                                        "children": [],
                                        "depth": 2,
                                        "id": 5,
                                        "order": 5
                                    },
                                    {
                                        "children": [
                                            {
                                                "children": [],
                                                "depth": 3,
                                                "id": 7,
                                                "order": 7
                                            }
                                        ],
                                        "depth": 2,
                                        "id": 6,
                                        "order": 6
                                    },
                                    {
                                        "children": [
                                            {
                                                "children": [
                                                    {
                                                        "children": [
                                                            {
                                                                "children": [
                                                                    {
                                                                        "children": [],
                                                                        "depth": 6,
                                                                        "id": 12,
                                                                        "order": 12
                                                                    }
                                                                ],
                                                                "depth": 5,
                                                                "id": 11,
                                                                "order": 11
                                                            },
                                                            {
                                                                "children": [
                                                                    {
                                                                        "children": [],
                                                                        "depth": 6,
                                                                        "id": 14,
                                                                        "order": 14
                                                                    },
                                                                    {
                                                                        "children": [],
                                                                        "depth": 6,
                                                                        "id": 15,
                                                                        "order": 15
                                                                    }
                                                                ],
                                                                "depth": 5,
                                                                "id": 13,
                                                                "order": 13
                                                            }
                                                        ],
                                                        "depth": 4,
                                                        "id": 10,
                                                        "order": 10
                                                    },
                                                    {
                                                        "children": [],
                                                        "depth": 4,
                                                        "id": 16,
                                                        "order": 16
                                                    }
                                                ],
                                                "depth": 3,
                                                "id": 9,
                                                "order": 9
                                            },
                                            {
                                                "children": [],
                                                "depth": 3,
                                                "id": 17,
                                                "order": 17
                                            },
                                            {
                                                "children": [],
                                                "depth": 3,
                                                "id": 18,
                                                "order": 18
                                            },
                                            {
                                                "children": [],
                                                "depth": 3,
                                                "id": 19,
                                                "order": 19
                                            },
                                            {
                                                "children": [],
                                                "depth": 3,
                                                "id": 20,
                                                "order": 20
                                            }
                                        ],
                                        "depth": 2,
                                        "id": 8,
                                        "order": 8
                                    }
                                ],
                                "depth": 1,
                                "id": 4,
                                "order": 4
                            },
                            {
                                "children": [],
                                "depth": 1,
                                "id": 21,
                                "order": 21
                            },
                            {
                                "children": [
                                    {
                                        "children": [],
                                        "depth": 2,
                                        "id": 23,
                                        "order": 23
                                    },
                                    {
                                        "children": [
                                            {
                                                "children": [
                                                    {
                                                        "children": [
                                                            {
                                                                "children": [],
                                                                "depth": 5,
                                                                "id": 27,
                                                                "order": 27
                                                            }
                                                        ],
                                                        "depth": 4,
                                                        "id": 26,
                                                        "order": 26
                                                    },
                                                    {
                                                        "children": [
                                                            {
                                                                "children": [],
                                                                "depth": 5,
                                                                "id": 29,
                                                                "order": 29
                                                            },
                                                            {
                                                                "children": [],
                                                                "depth": 5,
                                                                "id": 30,
                                                                "order": 30
                                                            }
                                                        ],
                                                        "depth": 4,
                                                        "id": 28,
                                                        "order": 28
                                                    }
                                                ],
                                                "depth": 3,
                                                "id": 25,
                                                "order": 25
                                            },
                                            {
                                                "children": [],
                                                "depth": 3,
                                                "id": 31,
                                                "order": 31
                                            }
                                        ],
                                        "depth": 2,
                                        "id": 24,
                                        "order": 24
                                    },
                                    {
                                        "children": [
                                            {
                                                "children": [
                                                    {
                                                        "children": [],
                                                        "depth": 4,
                                                        "id": 34,
                                                        "order": 34
                                                    }
                                                ],
                                                "depth": 3,
                                                "id": 33,
                                                "order": 33
                                            },
                                            {
                                                "children": [],
                                                "depth": 3,
                                                "id": 35,
                                                "order": 35
                                            },
                                            {
                                                "children": [],
                                                "depth": 3,
                                                "id": 36,
                                                "order": 36
                                            },
                                            {
                                                "children": [],
                                                "depth": 3,
                                                "id": 37,
                                                "order": 37
                                            },
                                            {
                                                "children": [],
                                                "depth": 3,
                                                "id": 38,
                                                "order": 38
                                            }
                                        ],
                                        "depth": 2,
                                        "id": 32,
                                        "order": 32
                                    }
                                ],
                                "depth": 1,
                                "id": 22,
                                "order": 22
                            },
                            {
                                "children": [],
                                "depth": 1,
                                "id": 39,
                                "order": 39
                            },
                            {
                                "children": [
                                    {
                                        "children": [],
                                        "depth": 2,
                                        "id": 41,
                                        "order": 41
                                    }
                                ],
                                "depth": 1,
                                "id": 40,
                                "order": 40
                            }
                        ],
                        "depth": 0,
                        "id": 0,
                        "order": 0
                    }
                ],
                "depth": -1,
                "id": -1,
                "order": -1
            }
        ],
        "mainTraceNodeCount": 42,
        "parentIdMap": {
            "0": -1,
            "1": 0,
            "10": 9,
            "11": 10,
            "12": 11,
            "13": 10,
            "14": 13,
            "15": 13,
            "16": 9,
            "17": 8,
            "18": 8,
            "19": 8,
            "2": 1,
            "20": 8,
            "21": 0,
            "22": 0,
            "23": 22,
            "24": 22,
            "25": 24,
            "26": 25,
            "27": 26,
            "28": 25,
            "29": 28,
            "3": 0,
            "30": 28,
            "31": 24,
            "32": 22,
            "33": 32,
            "34": 33,
            "35": 32,
            "36": 32,
            "37": 32,
            "38": 32,
            "39": 0,
            "4": 0,
            "40": 0,
            "41": 40,
            "5": 4,
            "6": 4,
            "7": 6,
            "8": 4,
            "9": 8
        },
        "tidyTrace": [
            {
                "children": [
                    {
                        "children": [
                            {
                                "children": [
                                    {
                                        "children": [],
                                        "depth": 2,
                                        "id": 2,
                                        "order": 2
                                    }
                                ],
                                "depth": 1,
                                "id": 1,
                                "order": 1
                            },
                            {
                                "children": [
                                    {
                                        "children": [
                                            {
                                                "children": [],
                                                "depth": 3,
                                                "id": 7,
                                                "order": 7
                                            }
                                        ],
                                        "depth": 2,
                                        "id": 6,
                                        "order": 6
                                    },
                                    {
                                        "children": [
                                            {
                                                "children": [
                                                    {
                                                        "children": [
                                                            {
                                                                "children": [
                                                                    {
                                                                        "children": [],
                                                                        "depth": 6,
                                                                        "id": 12,
                                                                        "order": 12
                                                                    }
                                                                ],
                                                                "depth": 5,
                                                                "id": 11,
                                                                "order": 11
                                                            },
                                                            {
                                                                "children": [
                                                                    {
                                                                        "children": [],
                                                                        "depth": 6,
                                                                        "id": 14,
                                                                        "order": 14
                                                                    },
                                                                    {
                                                                        "children": [],
                                                                        "depth": 6,
                                                                        "id": 15,
                                                                        "order": 15
                                                                    }
                                                                ],
                                                                "depth": 5,
                                                                "id": 13,
                                                                "order": 13
                                                            }
                                                        ],
                                                        "depth": 4,
                                                        "id": 10,
                                                        "order": 10
                                                    },
                                                    {
                                                        "children": [],
                                                        "depth": 4,
                                                        "id": 16,
                                                        "order": 16
                                                    }
                                                ],
                                                "depth": 3,
                                                "id": 9,
                                                "order": 9
                                            },
                                            {
                                                "children": [],
                                                "depth": 3,
                                                "id": 19,
                                                "order": 19
                                            },
                                            {
                                                "children": [],
                                                "depth": 3,
                                                "id": 20,
                                                "order": 20
                                            }
                                        ],
                                        "depth": 2,
                                        "id": 8,
                                        "order": 8
                                    }
                                ],
                                "depth": 1,
                                "id": 4,
                                "order": 4
                            },
                            {
                                "children": [
                                    {
                                        "children": [
                                            {
                                                "children": [
                                                    {
                                                        "children": [
                                                            {
                                                                "children": [],
                                                                "depth": 5,
                                                                "id": 27,
                                                                "order": 27
                                                            }
                                                        ],
                                                        "depth": 4,
                                                        "id": 26,
                                                        "order": 26
                                                    },
                                                    {
                                                        "children": [
                                                            {
                                                                "children": [],
                                                                "depth": 5,
                                                                "id": 29,
                                                                "order": 29
                                                            },
                                                            {
                                                                "children": [],
                                                                "depth": 5,
                                                                "id": 30,
                                                                "order": 30
                                                            }
                                                        ],
                                                        "depth": 4,
                                                        "id": 28,
                                                        "order": 28
                                                    }
                                                ],
                                                "depth": 3,
                                                "id": 25,
                                                "order": 25
                                            },
                                            {
                                                "children": [],
                                                "depth": 3,
                                                "id": 31,
                                                "order": 31
                                            }
                                        ],
                                        "depth": 2,
                                        "id": 24,
                                        "order": 24
                                    },
                                    {
                                        "children": [
                                            {
                                                "children": [
                                                    {
                                                        "children": [],
                                                        "depth": 4,
                                                        "id": 34,
                                                        "order": 34
                                                    }
                                                ],
                                                "depth": 3,
                                                "id": 33,
                                                "order": 33
                                            },
                                            {
                                                "children": [],
                                                "depth": 3,
                                                "id": 37,
                                                "order": 37
                                            },
                                            {
                                                "children": [],
                                                "depth": 3,
                                                "id": 38,
                                                "order": 38
                                            }
                                        ],
                                        "depth": 2,
                                        "id": 32,
                                        "order": 32
                                    }
                                ],
                                "depth": 1,
                                "id": 22,
                                "order": 22
                            },
                            {
                                "children": [
                                    {
                                        "children": [],
                                        "depth": 2,
                                        "id": 41,
                                        "order": 41
                                    }
                                ],
                                "depth": 1,
                                "id": 40,
                                "order": 40
                            }
                        ],
                        "depth": 0,
                        "id": 0,
                        "order": 0
                    }
                ],
                "depth": -1,
                "id": -1,
                "order": -1
            }
        ],
        "tidyTraceNodeCount": 33
    },
    "state_change": {
        "stateChanges": [
            {
                "address": "0x97f34c8e5992eb985c5f740e7ee8c7e48a1de76a",
                "erc": "ERC-20",
                "slots": [
                    {
                        "current": "0x60765021000000000030bfde4b0f1d85239d00000000e84de8a17f5aa7a4f315",
                        "key": "0x0000000000000000000000000000000000000000000000000000000000000008",
                        "prev": "0x60765021000000000030963c26f42759239d00000000e9145ea576410d0194ba"
                    }
                ],
                "storageVariables": [
                    {
                        "name": "reserve0",
                        "type": "uint112",
                        "value": {
                            "current": "1097026186138748711138069",
                            "prev": "1100687145377334011466938",
                            "typeTag": 1
                        }
                    },
                    {
                        "name": "reserve1",
                        "type": "uint112",
                        "value": {
                            "current": "899269285972424336285",
                            "prev": "896269285972424336285",
                            "typeTag": 1
                        }
                    },
                    {
                        "name": "blockTimestampLast",
                        "type": "uint32",
                        "value": {
                            "current": "1618366497",
                            "prev": "1618366497",
                            "typeTag": 1
                        }
                    }
                ]
            },
            {
                "address": "0xad32a8e6220741182940c5abf610bde99e737b2d",
                "erc": "ERC-20",
                "slots": [
                    {
                        "current": "0x000000000000e84de8a17f5aa7a4f31500000000000000000000000000bab2ce",
                        "key": "0x04432a5b5f6d8906d1377295f359d0f981cd8cae233d3a93a55403d53f8e198e",
                        "prev": "0x000000000000e9145ea576410d0194ba00000000000000000000000000bab2ce"
                    },
                    {
                        "current": "0x0000000000000000000000000000000000000000000000000000000000000004",
                        "key": "0x6f5b957dc3329f3b757eb74e11da9ff2ac2b67cdd98dfc486254b7ea572558d3",
                        "prev": "0x0000000000000000000000000000000000000000000000000000000000000003"
                    },
                    {
                        "current": "0x0000000000000000000000000000000000000000000000000000000000bab2ce",
                        "key": "0xb4095fa82cab326505b1c669912af1b7d361ead8ec6c9891c9c89c1a73d5d3ff",
                        "prev": "0x0000000000000000000000000000000000000000000000000000000000000000"
                    },
                    {
                        "current": "0xfffffffffffffffffffffffffffffffffffffffffffffe9700395f4b5e1eafeb",
                        "key": "0x695891e0d48eb4ec5aa4cd5cabc699fae2a1543017a60b6f09c8647f007acbfb",
                        "prev": "0xffffffffffffffffffffffffffffffffffffffffffffff5d763d5631c37b5190"
                    },
                    {
                        "current": "0x0000000000000000000000000000000000000000000000000000000000001282",
                        "key": "0x0a4904422530390dbbad73e94e07b528752017cb7362eb3fb7c365446a65b241",
                        "prev": "0x0000000000000000000000000000000000000000000000000000000000001281"
                    },
                    {
                        "current": "0x00000000000024dae240fdc291f15bb900000000000000000000000000bab2ce",
                        "key": "0xb3c6ff6dd0be9269b551881a9d3adb096b74536397964a67a35252bb12a1e742",
                        "prev": "0x0000000000000000000000000000000000000000000000000000000000000000"
                    }
                ],
                "storageVariables": [
                    {
                        "name": "balances",
                        "type": "mapping(address => struct MiniMeToken.Checkpoint[])",
                        "value": {
                            "pairs": [
                                {
                                    "key": "0x97f34c8e5992eb985c5f740e7ee8c7e48a1de76a",
                                    "value": {
                                        "elemType": "struct MiniMeToken.Checkpoint",
                                        "elems": [
                                            {
                                                "index": 988,
                                                "value": {
                                                    "fields": [
                                                        {
                                                            "name": "fromBlock",
                                                            "type": "uint128",
                                                            "value": {
                                                                "current": "12235470",
                                                                "prev": "12235470",
                                                                "typeTag": 1
                                                            }
                                                        },
                                                        {
                                                            "name": "value",
                                                            "type": "uint128",
                                                            "value": {
                                                                "current": "1097026186138748711138069",
                                                                "prev": "1100687145377334011466938",
                                                                "typeTag": 1
                                                            }
                                                        }
                                                    ],
                                                    "typeTag": 3
                                                }
                                            }
                                        ],
                                        "typeTag": 2
                                    }
                                },
                                {
                                    "key": "0xb5d228cf2cdc45b9667b7bf418dd3f0eb1da30a3",
                                    "value": {
                                        "elemType": "struct MiniMeToken.Checkpoint",
                                        "elems": [
                                            {
                                                "index": 3,
                                                "value": {
                                                    "fields": [
                                                        {
                                                            "name": "fromBlock",
                                                            "type": "uint128",
                                                            "value": {
                                                                "current": "12235470",
                                                                "prev": "0",
                                                                "typeTag": 1
                                                            }
                                                        },
                                                        {
                                                            "name": "value",
                                                            "type": "uint128",
                                                            "value": {
                                                                "current": "0",
                                                                "prev": "0",
                                                                "typeTag": 1
                                                            }
                                                        }
                                                    ],
                                                    "typeTag": 3
                                                }
                                            }
                                        ],
                                        "typeTag": 2
                                    }
                                },
                                {
                                    "key": "0xe8846b27988ff52c371d5bd27bf8dba4097c93d2",
                                    "value": {
                                        "elemType": "struct MiniMeToken.Checkpoint",
                                        "elems": [
                                            {
                                                "index": 4737,
                                                "value": {
                                                    "fields": [
                                                        {
                                                            "name": "fromBlock",
                                                            "type": "uint128",
                                                            "value": {
                                                                "current": "12235470",
                                                                "prev": "0",
                                                                "typeTag": 1
                                                            }
                                                        },
                                                        {
                                                            "name": "value",
                                                            "type": "uint128",
                                                            "value": {
                                                                "current": "174042886901039105137593",
                                                                "prev": "0",
                                                                "typeTag": 1
                                                            }
                                                        }
                                                    ],
                                                    "typeTag": 3
                                                }
                                            }
                                        ],
                                        "typeTag": 2
                                    }
                                }
                            ],
                            "typeTag": 4
                        }
                    },
                    {
                        "name": "allowed",
                        "type": "mapping(address => mapping(address => uint256))",
                        "value": {
                            "pairs": [
                                {
                                    "key": "0xb5d228cf2cdc45b9667b7bf418dd3f0eb1da30a3",
                                    "value": {
                                        "pairs": [
                                            {
                                                "key": "0x7a250d5630b4cf539739df2c5dacb4c659f2488d",
                                                "value": {
                                                    "current": "115792089237316195423570985008687907853269984665640564032798325546154960269291",
                                                    "prev": "115792089237316195423570985008687907853269984665640564036459284784740260598160",
                                                    "typeTag": 1
                                                }
                                            }
                                        ],
                                        "typeTag": 4
                                    }
                                }
                            ],
                            "typeTag": 4
                        }
                    }
                ]
            },
            {
                "address": "0xc02aaa39b223fe8d0a0e5c4f27ead9083c756cc2",
                "erc": "ERC-20",
                "slots": [
                    {
                        "current": "0x0000000000000000000000000000000000000000000000083f0902f2acb63847",
                        "key": "0x2a2b233338b9ed7f08f07661ef55a97e10ab0f3e325f2f8abcafae76f480f300",
                        "prev": "0x0000000000000000000000000000000000000000000000083dffdcbf91ff24dd"
                    },
                    {
                        "current": "0x000000000000000000000000000000000000000000000030bfde4b0f1d85239d",
                        "key": "0x34780718bd37fc0baea31c7239e70607278f5f4eaaa75bd1fc62b6342b4e4a46",
                        "prev": "0x000000000000000000000000000000000000000000000030963c26f42759239d"
                    },
                    {
                        "current": "0x000000000000000000000000000000000000000000000007c7ce4661ad49a3e0",
                        "key": "0x0eb6519ffa720b1447d58712d8cf72bf19edcf75e5db24aef6febc66991749a1",
                        "prev": "0x000000000000000000000000000000000000000000000007f27990afbe2cb74a"
                    }
                ],
                "storageVariables": [
                    {
                        "name": "balanceOf",
                        "type": "mapping(address => uint256)",
                        "value": {
                            "pairs": [
                                {
                                    "key": "0x97f34c8e5992eb985c5f740e7ee8c7e48a1de76a",
                                    "value": {
                                        "current": "899269285972424336285",
                                        "prev": "896269285972424336285",
                                        "typeTag": 1
                                    }
                                },
                                {
                                    "key": "0xe8846b27988ff52c371d5bd27bf8dba4097c93d2",
                                    "value": {
                                        "current": "143524730960049972192",
                                        "prev": "146599363829811689290",
                                        "typeTag": 1
                                    }
                                },
                                {
                                    "key": "0xf6da21e95d74767009accb145b96897ac3630bad",
                                    "value": {
                                        "current": "152116117530159233095",
                                        "prev": "152041484660397515997",
                                        "typeTag": 1
                                    }
                                }
                            ],
                            "typeTag": 4
                        }
                    }
                ]
            },
            {
                "address": "0xe8846b27988ff52c371d5bd27bf8dba4097c93d2",
                "erc": "ERC-20",
                "slots": [
                    {
                        "current": "0x0000000000000000000000000000000065ac5b47c3c44ac45fddb514c730fb4b",
                        "key": "0x0000000000000000000000000000000000000000000000000000000000000009",
                        "prev": "0x0000000000000000000000000000000065ac2b0abdd922a7c9f080ff16b23796"
                    },
                    {
                        "current": "0x0000000000000000000000000003a71453abe16e0ed4dd888399d68df041ac83",
                        "key": "0x000000000000000000000000000000000000000000000000000000000000000a",
                        "prev": "0x0000000000000000000000000003a710716be2af63d6a857365816d698c0f3a4"
                    },
                    {
                        "current": "0x60765021000000000007c7ce4661ad49a3e00000000024dae240fdc291f15bb9",
                        "key": "0x0000000000000000000000000000000000000000000000000000000000000008",
                        "prev": "0x60764f46000000000007f27990afbe2cb74a0000000024146c3d06dc2c94ba14"
                    }
                ],
                "storageVariables": [
                    {
                        "name": "price0CumulativeLast",
                        "type": "uint256",
                        "value": {
                            "current": "135146954019004843783564509823122864971",
                            "prev": "135145975628594243094571906750632572822",
                            "typeTag": 1
                        }
                    },
                    {
                        "name": "price1CumulativeLast",
                        "type": "uint256",
                        "value": {
                            "current": "81456904211912924190162356434127930188213379",
                            "prev": "81455582627003573586115292248892762480505764",
                            "typeTag": 1
                        }
                    },
                    {
                        "name": "reserve0",
                        "type": "uint112",
                        "value": {
                            "current": "174042886901039105137593",
                            "prev": "170381927662453804808724",
                            "typeTag": 1
                        }
                    },
                    {
                        "name": "reserve1",
                        "type": "uint112",
                        "value": {
                            "current": "143524730960049972192",
                            "prev": "146599363829811689290",
                            "typeTag": 1
                        }
                    },
                    {
                        "name": "blockTimestampLast",
                        "type": "uint32",
                        "value": {
                            "current": "1618366497",
                            "prev": "1618366278",
                            "typeTag": 1
                        }
                    }
                ]
            }
        ]
    }
}