{
    "balance_change": {
        "balanceChanges": [
            {
                "account": "0xe6b5a31d8bb53d2c769864ac137fe25f4989f1fd",
                "assets": [
                    {
                        "address": "0xeeeeeeeeeeeeeeeeeeeeeeeeeeeeeeeeeeeeeeee",
                        "amount": "0.00086484762",
                        "iconUrl": "https://assets.blocksec.com/image/1663669189317-3.png",
                        "isERC1155": false,
                        "isERC721": false,
                        "sign": false,
                        "value": "1.1069483928922819455"
                    },
                    {
                        "address": "0xa0b86991c6218b36c1d19d4a2e9eb0ce3606eb48",
                        "amount": "103.011349",
                        "iconUrl": "https://assets.blocksec.com/icon/0347a86cc07dbd03fdc5db01a4e5ac7e1217f90e0b6e4bb0f75cbcca09160989.png",
                        "isERC1155": false,
                        "isERC721": false,
                        "sign": false,
                        "value": "103.011349"
                    }
                ]
            },
            {
                "account": "0x4d73adb72bc3dd368966edd0f0b2148401a178e2",
                "assets": [
                    {
                        "address": "0xeeeeeeeeeeeeeeeeeeeeeeeeeeeeeeeeeeeeeeee",
                        "amount": "0.00086484762",
                        "iconUrl": "https://assets.blocksec.com/image/1663669189317-3.png",
                        "isERC1155": false,
                        "isERC721": false,
                        "sign": true,
                        "value": "1.1069483928922819455"
                    }
                ]
            },
            {
                "account": "0xdf0770df86a8034b3efef0a1bb3c889b8332ff56",
                "assets": [
                    {
                        "address": "0xa0b86991c6218b36c1d19d4a2e9eb0ce3606eb48",
                        "amount": "103.011349",
                        "iconUrl": "https://assets.blocksec.com/icon/0347a86cc07dbd03fdc5db01a4e5ac7e1217f90e0b6e4bb0f75cbcca09160989.png",
                        "isERC1155": false,
                        "isERC721": false,
                        "sign": true,
                        "value": "103.011349"
                    }
                ]
            }
        ]
    },
    "profile": {
        "basic_info": {
            "baseFee": "21.492476026",
            "blockNumber": 15795702,
            "callData": "0x9fbf10fc000000000000000000000000000000000000000000000000000000000000006e00000000000000000000000000000000000000000000000000000000000000010000000000000000000000000000000000000000000000000000000000000001000000000000000000000000e6b5a31d8bb53d2c769864ac137fe25f4989f1fd000000000000000000000000000000000000000000000000000000000623d41500000000000000000000000000000000000000000000000000000000061bf824000000000000000000000000000000000000000000000000000000000000012000000000000000000000000000000000000000000000000000000000000001c00000000000000000000000000000000000000000000000000000000000000200000000000000000000000000000000000000000000000000000000000000000000000000000000000000000000000000000000000000000000004f7415c4800000000000000000000000000000000000000000000000000000000000000000600000000000000000000000000000000000000000000000000000000000000014e6b5a31d8bb53d2c769864ac137fe25f4989f1fd0000000000000000000000000000000000000000000000000000000000000000000000000000000000000014e6b5a31d8bb53d2c769864ac137fe25f4989f1fd0000000000000000000000000000000000000000000000000000000000000000000000000000000000000000",
            "debugEnable": true,
            "errorInfo": "",
            "eventCount": 8,
            "feeRecipient": "0x690b9a9e9aa1c9db991c7721a92d351db4fac990",
            "formatValue": "0.000951332382",
            "gasLimit": 361881,
            "gasPrice": "22",
            "gasUsed": 340740,
            "intTxnCount": 29,
            "internalRevert": false,
            "internalRevertMessage": "",
            "isContractCreation": false,
            "isFlashloan": false,
            "maxFee": "22",
            "nonce": 302,
            "overwritedBlockNumber": -1,
            "priorityFee": "0.65",
            "receiver": "0x8731d54e9d02c286767d56ac03e8037c07e01e98",
            "revertMessage": "",
            "sender": "0xe6b5a31d8bb53d2c769864ac137fe25f4989f1fd",
            "simulationEnable": true,
            "sourceTxnHash": "0x2df1faef9e9ed7a796cba27f97d689c3b31873ea785380d937b4c62d3d20f1ce",
            "status": true,
            "timestamp": "2022-10-21T09:51:35Z",
            "transactionFee": "0.00749628",
            "txnHash": "0x2df1faef9e9ed7a796cba27f97d689c3b31873ea785380d937b4c62d3d20f1ce",
            "txnIndex": 130,
            "type": 2,
            "value": "951332382000000"
        },
        "fund_flow": [
            {
                "amount": "0.000951332382",
                "from": "0xe6b5a31d8bb53d2c769864ac137fe25f4989f1fd",
                "id": 1,
                "isERC1155": false,
                "isERC721": false,
                "isReverted": false,
                "order": 1,
                "to": "0x8731d54e9d02c286767d56ac03e8037c07e01e98",
                "token": "0xeeeeeeeeeeeeeeeeeeeeeeeeeeeeeeeeeeeeeeee"
            },
            {
                "amount": "103.011349",
                "from": "0xe6b5a31d8bb53d2c769864ac137fe25f4989f1fd",
                "id": 2,
                "isERC1155": false,
                "isERC721": false,
                "isReverted": false,
                "order": 2,
                "to": "0xdf0770df86a8034b3efef0a1bb3c889b8332ff56",
                "token": "0xa0b86991c6218b36c1d19d4a2e9eb0ce3606eb48"
            },
            {
                "amount": "0.000951332382",
                "from": "0x8731d54e9d02c286767d56ac03e8037c07e01e98",
                "id": 3,
                "isERC1155": false,
                "isERC721": false,
                "isReverted": false,
                "order": 3,
                "to": "0x296f55f8fb28e498b858d0bcda06d955b2cb3f97",
                "token": "0xeeeeeeeeeeeeeeeeeeeeeeeeeeeeeeeeeeeeeeee"
            },
            {
                "amount": "0.000951332382",
                "from": "0x296f55f8fb28e498b858d0bcda06d955b2cb3f97",
                "id": 4,
                "isERC1155": false,
                "isERC721": false,
                "isReverted": false,
                "order": 4,
                "to": "0x66a71dcef29a0ffbdbe3c6a460a3b5bc225cd675",
                "token": "0xeeeeeeeeeeeeeeeeeeeeeeeeeeeeeeeeeeeeeeee"
            },
            {
                "amount": "0.000951332382",
                "from": "0x66a71dcef29a0ffbdbe3c6a460a3b5bc225cd675",
                "id": 5,
                "isERC1155": false,
                "isERC721": false,
                "isReverted": false,
                "order": 5,
                "to": "0x4d73adb72bc3dd368966edd0f0b2148401a178e2",
                "token": "0xeeeeeeeeeeeeeeeeeeeeeeeeeeeeeeeeeeeeeeee"
            },
            {
                "amount": "0.000086484762",
                "from": "0x4d73adb72bc3dd368966edd0f0b2148401a178e2",
                "id": 6,
                "isERC1155": false,
                "isERC721": false,
                "isReverted": false,
                "order": 6,
                "to": "0xe6b5a31d8bb53d2c769864ac137fe25f4989f1fd",
                "token": "0xeeeeeeeeeeeeeeeeeeeeeeeeeeeeeeeeeeeeeeee"
            }
        ],
        "token_infos": [
            {
                "address": "0xeeeeeeeeeeeeeeeeeeeeeeeeeeeeeeeeeeeeeeee",
                "decimals": 18
            },
            {
                "address": "0xa0b86991c6218b36c1d19d4a2e9eb0ce3606eb48",
                "decimals": 6
            },
            {
                "address": "0xc02aaa39b223fe8d0a0e5c4f27ead9083c756cc2",
                "decimals": 18
            }
        ]
    },
    "address_label": {
        "labels": [
            {
                "address": "0xa2327a938febf5fec13bacfb16ae10ecbc4cbdcf",
                "label": "FiatTokenV2_1"
            },
            {
                "address": "0xa0b86991c6218b36c1d19d4a2e9eb0ce3606eb48",
                "label": "Circle: USDC Token"
            },
            {
                "address": "0xb0d502e938ed5f4df2e681fe6e419ff29631d62b",
                "label": "Stargate Finance: LP Staking"
            },
            {
                "address": "0xdf0770df86a8034b3efef0a1bb3c889b8332ff56",
                "label": "STARGATE: S*USDC Token"
            },
            {
                "address": "0x66a71dcef29a0ffbdbe3c6a460a3b5bc225cd675",
                "label": "LayerZero: Ethereum Endpoint"
            },
            {
                "address": "0x0000000000000000000000000000000000000003",
                "label": "Precompiled"
            },
            {
                "address": "0x0000000000000000000000000000000000000004",
                "label": "Precompiled"
            },
            {
                "address": "0x3773e1e9deb273fcdf9f80bc88bb387b1e6ce34d",
                "label": "TreasuryV2"
            },
            {
                "address": "0x5a54fe5234e811466d5366846283323c954310b2",
                "label": "StarGate: LayerZero Oracle"
            },
            {
                "address": "0xdbf50791d09603915bd066354a5b45775cfad924",
                "label": "StargateFeeLibraryV04"
            },
            {
                "address": "0x902f09715b6303d4173037652fa7377e5b98089e",
                "label": "Layer Zero: Relayer V2"
            },
            {
                "address": "0x296f55f8fb28e498b858d0bcda06d955b2cb3f97",
                "label": "Stargate Finance: Bridge"
            },
            {
                "address": "0x4d73adb72bc3dd368966edd0f0b2148401a178e2",
                "label": "Layer Zero: Ultra Light Node v2"
            },
            {
                "address": "0x0000000000000000000000000000000000000001",
                "label": "Precompiled"
            },
            {
                "address": "0xeeeeeeeeeeeeeeeeeeeeeeeeeeeeeeeeeeeeeeee",
                "label": "Ether"
            },
            {
                "address": "0x5b905fe05f81f3a8ad8b28c6e17779cfabf76068",
                "label": "LayerZero: Nonce"
            },
            {
                "address": "0x06d538690af257da524f25d0cd52fd85b1c2173e",
                "label": "Stargate Finance : Factory"
            },
            {
                "address": "0x8731d54e9d02c286767d56ac03e8037c07e01e98",
                "label": "Stargate Finance: Router"
            },
            {
                "address": "0x0000000000000000000000000000000000000002",
                "label": "Precompiled"
            }
        ]
    },
    "trace": {
        "accountLabels": null,
        "dataMap": {
            "-1": {
                "invocation": {
                    "address": "0xe6b5a31d8bb53d2c769864ac137fe25f4989f1fd",
                    "callData": "",
                    "decodedMethod": null,
                    "errorInfo": "",
                    "fromAddress": "",
                    "gasUsed": 0,
                    "id": -1,
                    "methodDecoded": false,
                    "operation": "",
                    "output": "",
                    "revert": false,
                    "revertMessage": "",
                    "selector": "",
                    "status": false,
                    "value": ""
                },
                "nodeType": 0
            },
            "0": {
                "invocation": {
                    "address": "0x8731d54e9d02c286767d56ac03e8037c07e01e98",
                    "callData": "0x000000000000000000000000000000000000000000000000000000000000006e00000000000000000000000000000000000000000000000000000000000000010000000000000000000000000000000000000000000000000000000000000001000000000000000000000000e6b5a31d8bb53d2c769864ac137fe25f4989f1fd000000000000000000000000000000000000000000000000000000000623d41500000000000000000000000000000000000000000000000000000000061bf824000000000000000000000000000000000000000000000000000000000000012000000000000000000000000000000000000000000000000000000000000001c00000000000000000000000000000000000000000000000000000000000000200000000000000000000000000000000000000000000000000000000000000000000000000000000000000000000000000000000000000000000004f7415c4800000000000000000000000000000000000000000000000000000000000000000600000000000000000000000000000000000000000000000000000000000000014e6b5a31d8bb53d2c769864ac137fe25f4989f1fd0000000000000000000000000000000000000000000000000000000000000000000000000000000000000014e6b5a31d8bb53d2c769864ac137fe25f4989f1fd0000000000000000000000000000000000000000000000000000000000000000000000000000000000000000",
                    "decodedMethod": {
                        "callParams": [
                            {
                                "name": "_dstChainId",
                                "type": "uint16",
                                "value": "110"
                            },
                            {
                                "name": "_srcPoolId",
                                "type": "uint256",
                                "value": "1"
                            },
                            {
                                "name": "_dstPoolId",
                                "type": "uint256",
                                "value": "1"
                            },
                            {
                                "name": "_refundAddress",
                                "type": "address",
                                "value": "0xe6b5a31d8bb53d2c769864ac137fe25f4989f1fd"
                            },
                            {
                                "name": "_amountLD",
                                "type": "uint256",
                                "value": "103,011,349"
                            },
                            {
                                "name": "_minAmountLD",
                                "type": "uint256",
                                "value": "102,496,292"
                            },
                            {
                                "name": "_lzTxParams",
                                "type": "(uint256,uint256,bytes)",
                                "value": [
                                    {
                                        "name": "dstGasForCall",
                                        "type": "uint256",
                                        "value": "0"
                                    },
                                    {
                                        "name": "dstNativeAmount",
                                        "type": "uint256",
                                        "value": "87,360,000,000,000"
                                    },
                                    {
                                        "name": "dstNativeAddr",
                                        "type": "bytes",
                                        "value": "0xe6b5a31d8bb53d2c769864ac137fe25f4989f1fd"
                                    }
                                ]
                            },
                            {
                                "name": "_to",
                                "type": "bytes",
                                "value": "0xe6b5a31d8bb53d2c769864ac137fe25f4989f1fd"
                            },
                            {
                                "name": "_payload",
                                "type": "bytes",
                                "value": "0x"
                            }
                        ],
                        "constructorArguments": "",
                        "name": "swap",
                        "returnParams": [],
                        "signature": "swap(uint16,uint256,uint256,address,uint256,uint256,(uint256,uint256,bytes),bytes,bytes)"
                    },
                    "errorInfo": "",
                    "fromAddress": "0xe6b5a31d8bb53d2c769864ac137fe25f4989f1fd",
                    "gasUsed": 340740,
                    "id": 0,
                    "methodDecoded": true,
                    "operation": "CALL",
                    "output": "",
                    "revert": false,
                    "revertMessage": "",
                    "selector": "0x9fbf10fc",
                    "status": true,
                    "value": "0.000951332382"
                },
                "nodeType": 0
            },
            "1": {
                "invocation": {
                    "address": "0x06d538690af257da524f25d0cd52fd85b1c2173e",
                    "callData": "0x0000000000000000000000000000000000000000000000000000000000000001",
                    "decodedMethod": {
                        "callParams": [
                            {
                                "name": "",
                                "type": "uint256",
                                "value": "1"
                            }
                        ],
                        "constructorArguments": "",
                        "name": "getPool",
                        "returnParams": [
                            {
                                "name": "",
                                "type": "address",
                                "value": "0xdf0770df86a8034b3efef0a1bb3c889b8332ff56"
                            }
                        ],
                        "signature": "getPool(uint256)"
                    },
                    "errorInfo": "",
                    "fromAddress": "0x8731d54e9d02c286767d56ac03e8037c07e01e98",
                    "gasUsed": 2514,
                    "id": 1,
                    "methodDecoded": true,
                    "operation": "STATICCALL",
                    "output": "0x000000000000000000000000df0770df86a8034b3efef0a1bb3c889b8332ff56",
                    "revert": false,
                    "revertMessage": "",
                    "selector": "0x068bcd8d",
                    "status": true,
                    "value": "0"
                },
                "nodeType": 0
            },
            "10": {
                "invocation": {
                    "address": "0xa2327a938febf5fec13bacfb16ae10ecbc4cbdcf",
                    "callData": "0x000000000000000000000000df0770df86a8034b3efef0a1bb3c889b8332ff56",
                    "decodedMethod": {
                        "callParams": [
                            {
                                "name": "account",
                                "type": "address",
                                "value": "0xdf0770df86a8034b3efef0a1bb3c889b8332ff56"
                            }
                        ],
                        "constructorArguments": "",
                        "name": "balanceOf",
                        "returnParams": [
                            {
                                "decimalAvailable": true,
                                "name": "",
                                "type": "uint256",
                                "value": "69,781,662,521,639"
                            }
                        ],
                        "signature": "balanceOf(address)"
                    },
                    "errorInfo": "",
                    "fromAddress": "0xa0b86991c6218b36c1d19d4a2e9eb0ce3606eb48",
                    "gasUsed": 2529,
                    "id": 10,
                    "methodDecoded": true,
                    "operation": "DELEGATECALL",
                    "output": "0x00000000000000000000000000000000000000000000000000003f774f34d927",
                    "revert": false,
                    "revertMessage": "",
                    "selector": "0x70a08231",
                    "status": true,
                    "value": "0"
                },
                "nodeType": 0
            },
            "11": {
                "invocation": {
                    "address": "0xdf0770df86a8034b3efef0a1bb3c889b8332ff56",
                    "callData": "0x",
                    "decodedMethod": {
                        "callParams": [],
                        "constructorArguments": "",
                        "name": "totalLiquidity",
                        "returnParams": [
                            {
                                "name": "",
                                "type": "uint256",
                                "value": "90,274,582,123,832"
                            }
                        ],
                        "signature": "totalLiquidity()"
                    },
                    "errorInfo": "",
                    "fromAddress": "0xdbf50791d09603915bd066354a5b45775cfad924",
                    "gasUsed": 2463,
                    "id": 11,
                    "methodDecoded": true,
                    "operation": "STATICCALL",
                    "output": "0x0000000000000000000000000000000000000000000000000000521ab0665538",
                    "revert": false,
                    "revertMessage": "",
                    "selector": "0x15770f92",
                    "status": true,
                    "value": "0"
                },
                "nodeType": 0
            },
            "12": {
                "invocation": {
                    "address": "0xdf0770df86a8034b3efef0a1bb3c889b8332ff56",
                    "callData": "0x",
                    "decodedMethod": {
                        "callParams": [],
                        "constructorArguments": "",
                        "name": "eqFeePool",
                        "returnParams": [
                            {
                                "name": "",
                                "type": "uint256",
                                "value": "14,574,181,548"
                            }
                        ],
                        "signature": "eqFeePool()"
                    },
                    "errorInfo": "",
                    "fromAddress": "0xdbf50791d09603915bd066354a5b45775cfad924",
                    "gasUsed": 2418,
                    "id": 12,
                    "methodDecoded": true,
                    "operation": "STATICCALL",
                    "output": "0x0000000000000000000000000000000000000000000000000000000364b05cac",
                    "revert": false,
                    "revertMessage": "",
                    "selector": "0x9bb81119",
                    "status": true,
                    "value": "0"
                },
                "nodeType": 0
            },
            "13": {
                "invocation": {
                    "address": "0xb0d502e938ed5f4df2e681fe6e419ff29631d62b",
                    "callData": "0x0000000000000000000000000000000000000000000000000000000000000000",
                    "decodedMethod": {
                        "callParams": [
                            {
                                "name": "",
                                "type": "uint256",
                                "value": "0"
                            }
                        ],
                        "constructorArguments": "",
                        "name": "poolInfo",
                        "returnParams": [
                            {
                                "name": "lpToken",
                                "type": "address",
                                "value": "0xdf0770df86a8034b3efef0a1bb3c889b8332ff56"
                            },
                            {
                                "name": "allocPoint",
                                "type": "uint256",
                                "value": "4,481"
                            },
                            {
                                "name": "lastRewardBlock",
                                "type": "uint256",
                                "value": "15,795,476"
                            },
                            {
                                "name": "accStargatePerShare",
                                "type": "uint256",
                                "value": "47,715,778,364,694,453,010,110"
                            }
                        ],
                        "signature": "poolInfo(uint256)"
                    },
                    "errorInfo": "",
                    "fromAddress": "0xdbf50791d09603915bd066354a5b45775cfad924",
                    "gasUsed": 11060,
                    "id": 13,
                    "methodDecoded": true,
                    "operation": "STATICCALL",
                    "output": "0x000000000000000000000000df0770df86a8034b3efef0a1bb3c889b8332ff5600000000000000000000000000000000000000000000000000000000000011810000000000000000000000000000000000000000000000000000000000f10514000000000000000000000000000000000000000000000a1aad727da9323fbebe",
                    "revert": false,
                    "revertMessage": "",
                    "selector": "0x1526fe27",
                    "status": true,
                    "value": "0"
                },
                "nodeType": 0
            },
            "14": {
                "event": {
                    "contract": "0xdf0770df86a8034b3efef0a1bb3c889b8332ff56",
                    "decodedLog": {
                        "name": "Swap",
                        "params": [
                            {
                                "name": "chainId",
                                "type": "uint16",
                                "value": "110"
                            },
                            {
                                "name": "dstPoolId",
                                "type": "uint256",
                                "value": "1"
                            },
                            {
                                "name": "from",
                                "type": "address",
                                "value": "0xe6b5a31d8bb53d2c769864ac137fe25f4989f1fd"
                            },
                            {
                                "name": "amountSD",
                                "type": "uint256",
                                "value": "102,949,543"
                            },
                            {
                                "name": "eqReward",
                                "type": "uint256",
                                "value": "0"
                            },
                            {
                                "name": "eqFee",
                                "type": "uint256",
                                "value": "3,090"
                            },
                            {
                                "name": "protocolFee",
                                "type": "uint256",
                                "value": "58,716"
                            },
                            {
                                "name": "lpFee",
                                "type": "uint256",
                                "value": "0"
                            }
                        ],
                        "signature": "Swap(uint16,uint256,address,uint256,uint256,uint256,uint256,uint256)"
                    },
                    "id": 14,
                    "logData": "0x000000000000000000000000000000000000000000000000000000000000006e0000000000000000000000000000000000000000000000000000000000000001000000000000000000000000e6b5a31d8bb53d2c769864ac137fe25f4989f1fd000000000000000000000000000000000000000000000000000000000622e2a700000000000000000000000000000000000000000000000000000000000000000000000000000000000000000000000000000000000000000000000000000c12000000000000000000000000000000000000000000000000000000000000e55c0000000000000000000000000000000000000000000000000000000000000000",
                    "logDecoded": true,
                    "operation": "EVENT",
                    "revert": false,
                    "status": true,
                    "topics": [
                        "0x34660fc8af304464529f48a778e03d03e4d34bcd5f9b6f0cfbf3cd238c642f7f"
                    ]
                },
                "nodeType": 1
            },
            "15": {
                "invocation": {
                    "address": "0xdf0770df86a8034b3efef0a1bb3c889b8332ff56",
                    "callData": "0x",
                    "decodedMethod": {
                        "callParams": [],
                        "constructorArguments": "",
                        "name": "token",
                        "returnParams": [
                            {
                                "name": "",
                                "type": "address",
                                "value": "0xa0b86991c6218b36c1d19d4a2e9eb0ce3606eb48"
                            }
                        ],
                        "signature": "token()"
                    },
                    "errorInfo": "",
                    "fromAddress": "0x8731d54e9d02c286767d56ac03e8037c07e01e98",
                    "gasUsed": 362,
                    "id": 15,
                    "methodDecoded": true,
                    "operation": "STATICCALL",
                    "output": "0x000000000000000000000000a0b86991c6218b36c1d19d4a2e9eb0ce3606eb48",
                    "revert": false,
                    "revertMessage": "",
                    "selector": "0xfc0c546a",
                    "status": true,
                    "value": "0"
                },
                "nodeType": 0
            },
            "16": {
                "invocation": {
                    "address": "0xa0b86991c6218b36c1d19d4a2e9eb0ce3606eb48",
                    "callData": "0x000000000000000000000000e6b5a31d8bb53d2c769864ac137fe25f4989f1fd000000000000000000000000df0770df86a8034b3efef0a1bb3c889b8332ff56000000000000000000000000000000000000000000000000000000000623d415",
                    "decodedMethod": {
                        "callParams": [
                            {
                                "name": "from",
                                "type": "address",
                                "value": "0xe6b5a31d8bb53d2c769864ac137fe25f4989f1fd"
                            },
                            {
                                "name": "to",
                                "type": "address",
                                "value": "0xdf0770df86a8034b3efef0a1bb3c889b8332ff56"
                            },
                            {
                                "decimalAvailable": true,
                                "name": "value",
                                "type": "uint256",
                                "value": "103,011,349"
                            }
                        ],
                        "constructorArguments": "",
                        "name": "transferFrom",
                        "returnParams": [
                            {
                                "name": "",
                                "type": "bool",
                                "value": true
                            }
                        ],
                        "signature": "transferFrom(address,address,uint256)"
                    },
                    "errorInfo": "",
                    "fromAddress": "0x8731d54e9d02c286767d56ac03e8037c07e01e98",
                    "gasUsed": 26392,
                    "id": 16,
                    "methodDecoded": true,
                    "operation": "CALL",
                    "output": "0x0000000000000000000000000000000000000000000000000000000000000001",
                    "revert": false,
                    "revertMessage": "",
                    "selector": "0x23b872dd",
                    "status": true,
                    "value": "0"
                },
                "nodeType": 0
            },
            "17": {
                "invocation": {
                    "address": "0xa2327a938febf5fec13bacfb16ae10ecbc4cbdcf",
                    "callData": "0x000000000000000000000000e6b5a31d8bb53d2c769864ac137fe25f4989f1fd000000000000000000000000df0770df86a8034b3efef0a1bb3c889b8332ff56000000000000000000000000000000000000000000000000000000000623d415",
                    "decodedMethod": {
                        "callParams": [
                            {
                                "name": "from",
                                "type": "address",
                                "value": "0xe6b5a31d8bb53d2c769864ac137fe25f4989f1fd"
                            },
                            {
                                "name": "to",
                                "type": "address",
                                "value": "0xdf0770df86a8034b3efef0a1bb3c889b8332ff56"
                            },
                            {
                                "decimalAvailable": true,
                                "name": "value",
                                "type": "uint256",
                                "value": "103,011,349"
                            }
                        ],
                        "constructorArguments": "",
                        "name": "transferFrom",
                        "returnParams": [
                            {
                                "name": "",
                                "type": "bool",
                                "value": true
                            }
                        ],
                        "signature": "transferFrom(address,address,uint256)"
                    },
                    "errorInfo": "",
                    "fromAddress": "0xa0b86991c6218b36c1d19d4a2e9eb0ce3606eb48",
                    "gasUsed": 25597,
                    "id": 17,
                    "methodDecoded": true,
                    "operation": "DELEGATECALL",
                    "output": "0x0000000000000000000000000000000000000000000000000000000000000001",
                    "revert": false,
                    "revertMessage": "",
                    "selector": "0x23b872dd",
                    "status": true,
                    "value": "0"
                },
                "nodeType": 0
            },
            "18": {
                "event": {
                    "contract": "0xa0b86991c6218b36c1d19d4a2e9eb0ce3606eb48",
                    "decodedLog": {
                        "name": "Transfer",
                        "params": [
                            {
                                "name": "from",
                                "type": "address",
                                "value": "0xe6b5a31d8bb53d2c769864ac137fe25f4989f1fd"
                            },
                            {
                                "name": "to",
                                "type": "address",
                                "value": "0xdf0770df86a8034b3efef0a1bb3c889b8332ff56"
                            },
                            {
                                "decimalAvailable": true,
                                "name": "value",
                                "type": "uint256",
                                "value": "103,011,349"
                            }
                        ],
                        "signature": "Transfer(address,address,uint256)"
                    },
                    "id": 18,
                    "logData": "0x000000000000000000000000000000000000000000000000000000000623d415",
                    "logDecoded": true,
                    "operation": "EVENT",
                    "revert": false,
                    "status": true,
                    "topics": [
                        "0xddf252ad1be2c89b69c2b068fc378daa952ba7f163c4a11628f55a4df523b3ef",
                        "0x000000000000000000000000e6b5a31d8bb53d2c769864ac137fe25f4989f1fd",
                        "0x000000000000000000000000df0770df86a8034b3efef0a1bb3c889b8332ff56"
                    ]
                },
                "nodeType": 1
            },
            "19": {
                "invocation": {
                    "address": "0xdf0770df86a8034b3efef0a1bb3c889b8332ff56",
                    "callData": "0x000000000000000000000000000000000000000000000000000000000000006e0000000000000000000000000000000000000000000000000000000000000001",
                    "decodedMethod": {
                        "callParams": [
                            {
                                "name": "_dstChainId",
                                "type": "uint16",
                                "value": "110"
                            },
                            {
                                "name": "_dstPoolId",
                                "type": "uint256",
                                "value": "1"
                            }
                        ],
                        "constructorArguments": "",
                        "name": "sendCredits",
                        "returnParams": [
                            {
                                "name": "c",
                                "type": "(uint256,uint256)",
                                "value": [
                                    {
                                        "name": "credits",
                                        "type": "uint256",
                                        "value": "0"
                                    },
                                    {
                                        "name": "idealBalance",
                                        "type": "uint256",
                                        "value": "16,324,909,429,874"
                                    }
                                ]
                            }
                        ],
                        "signature": "sendCredits(uint16,uint256)"
                    },
                    "errorInfo": "",
                    "fromAddress": "0x8731d54e9d02c286767d56ac03e8037c07e01e98",
                    "gasUsed": 9995,
                    "id": 19,
                    "methodDecoded": true,
                    "operation": "CALL",
                    "output": "0x000000000000000000000000000000000000000000000000000000000000000000000000000000000000000000000000000000000000000000000ed8f06d7472",
                    "revert": false,
                    "revertMessage": "",
                    "selector": "0x08e9d8c2",
                    "status": true,
                    "value": "0"
                },
                "nodeType": 0
            },
            "2": {
                "invocation": {
                    "address": "0xdf0770df86a8034b3efef0a1bb3c889b8332ff56",
                    "callData": "0x",
                    "decodedMethod": {
                        "callParams": [],
                        "constructorArguments": "",
                        "name": "convertRate",
                        "returnParams": [
                            {
                                "name": "",
                                "type": "uint256",
                                "value": "1"
                            }
                        ],
                        "signature": "convertRate()"
                    },
                    "errorInfo": "",
                    "fromAddress": "0x8731d54e9d02c286767d56ac03e8037c07e01e98",
                    "gasUsed": 360,
                    "id": 2,
                    "methodDecoded": true,
                    "operation": "STATICCALL",
                    "output": "0x0000000000000000000000000000000000000000000000000000000000000001",
                    "revert": false,
                    "revertMessage": "",
                    "selector": "0xfeb56b15",
                    "status": true,
                    "value": "0"
                },
                "nodeType": 0
            },
            "20": {
                "event": {
                    "contract": "0xdf0770df86a8034b3efef0a1bb3c889b8332ff56",
                    "decodedLog": {
                        "name": "SendCredits",
                        "params": [
                            {
                                "name": "dstChainId",
                                "type": "uint16",
                                "value": "110"
                            },
                            {
                                "name": "dstPoolId",
                                "type": "uint256",
                                "value": "1"
                            },
                            {
                                "name": "credits",
                                "type": "uint256",
                                "value": "0"
                            },
                            {
                                "name": "idealBalance",
                                "type": "uint256",
                                "value": "16,324,909,429,874"
                            }
                        ],
                        "signature": "SendCredits(uint16,uint256,uint256,uint256)"
                    },
                    "id": 20,
                    "logData": "0x000000000000000000000000000000000000000000000000000000000000006e0000000000000000000000000000000000000000000000000000000000000001000000000000000000000000000000000000000000000000000000000000000000000000000000000000000000000000000000000000000000000ed8f06d7472",
                    "logDecoded": true,
                    "operation": "EVENT",
                    "revert": false,
                    "status": true,
                    "topics": [
                        "0x6939f93e3f21cf1362eb17155b740277de5687dae9a83a85909fd71da95944e7"
                    ]
                },
                "nodeType": 1
            },
            "21": {
                "invocation": {
                    "address": "0x296f55f8fb28e498b858d0bcda06d955b2cb3f97",
                    "callData": "0x000000000000000000000000000000000000000000000000000000000000006e00000000000000000000000000000000000000000000000000000000000000010000000000000000000000000000000000000000000000000000000000000001000000000000000000000000e6b5a31d8bb53d2c769864ac137fe25f4989f1fd000000000000000000000000000000000000000000000000000000000000000000000000000000000000000000000000000000000000000000000ed8f06d7472000000000000000000000000000000000000000000000000000000000622e2a70000000000000000000000000000000000000000000000000000000000000c1200000000000000000000000000000000000000000000000000000000000000000000000000000000000000000000000000000000000000000000000000000000000000000000000000000000000000000000000000000000000000000000e55c000000000000000000000000000000000000000000000000000000000623d41500000000000000000000000000000000000000000000000000000000000001e0000000000000000000000000000000000000000000000000000000000000028000000000000000000000000000000000000000000000000000000000000002c0000000000000000000000000000000000000000000000000000000000000000000000000000000000000000000000000000000000000000000004f7415c4800000000000000000000000000000000000000000000000000000000000000000600000000000000000000000000000000000000000000000000000000000000014e6b5a31d8bb53d2c769864ac137fe25f4989f1fd0000000000000000000000000000000000000000000000000000000000000000000000000000000000000014e6b5a31d8bb53d2c769864ac137fe25f4989f1fd0000000000000000000000000000000000000000000000000000000000000000000000000000000000000000",
                    "decodedMethod": {
                        "callParams": [
                            {
                                "name": "_chainId",
                                "type": "uint16",
                                "value": "110"
                            },
                            {
                                "name": "_srcPoolId",
                                "type": "uint256",
                                "value": "1"
                            },
                            {
                                "name": "_dstPoolId",
                                "type": "uint256",
                                "value": "1"
                            },
                            {
                                "name": "_refundAddress",
                                "type": "address",
                                "value": "0xe6b5a31d8bb53d2c769864ac137fe25f4989f1fd"
                            },
                            {
                                "name": "_c",
                                "type": "(uint256,uint256)",
                                "value": [
                                    {
                                        "name": "credits",
                                        "type": "uint256",
                                        "value": "0"
                                    },
                                    {
                                        "name": "idealBalance",
                                        "type": "uint256",
                                        "value": "16,324,909,429,874"
                                    }
                                ]
                            },
                            {
                                "name": "_s",
                                "type": "(uint256,uint256,uint256,uint256,uint256,uint256)",
                                "value": [
                                    {
                                        "name": "amount",
                                        "type": "uint256",
                                        "value": "102,949,543"
                                    },
                                    {
                                        "name": "eqFee",
                                        "type": "uint256",
                                        "value": "3,090"
                                    },
                                    {
                                        "name": "eqReward",
                                        "type": "uint256",
                                        "value": "0"
                                    },
                                    {
                                        "name": "lpFee",
                                        "type": "uint256",
                                        "value": "0"
                                    },
                                    {
                                        "name": "protocolFee",
                                        "type": "uint256",
                                        "value": "58,716"
                                    },
                                    {
                                        "name": "lkbRemove",
                                        "type": "uint256",
                                        "value": "103,011,349"
                                    }
                                ]
                            },
                            {
                                "name": "_lzTxParams",
                                "type": "(uint256,uint256,bytes)",
                                "value": [
                                    {
                                        "name": "dstGasForCall",
                                        "type": "uint256",
                                        "value": "0"
                                    },
                                    {
                                        "name": "dstNativeAmount",
                                        "type": "uint256",
                                        "value": "87,360,000,000,000"
                                    },
                                    {
                                        "name": "dstNativeAddr",
                                        "type": "bytes",
                                        "value": "0xe6b5a31d8bb53d2c769864ac137fe25f4989f1fd"
                                    }
                                ]
                            },
                            {
                                "name": "_to",
                                "type": "bytes",
                                "value": "0xe6b5a31d8bb53d2c769864ac137fe25f4989f1fd"
                            },
                            {
                                "name": "_payload",
                                "type": "bytes",
                                "value": "0x"
                            }
                        ],
                        "constructorArguments": "",
                        "name": "swap",
                        "returnParams": [],
                        "signature": "swap(uint16,uint256,uint256,address,(uint256,uint256),(uint256,uint256,uint256,uint256,uint256,uint256),(uint256,uint256,bytes),bytes,bytes)"
                    },
                    "errorInfo": "",
                    "fromAddress": "0x8731d54e9d02c286767d56ac03e8037c07e01e98",
                    "gasUsed": 160403,
                    "id": 21,
                    "methodDecoded": true,
                    "operation": "CALL",
                    "output": "",
                    "revert": false,
                    "revertMessage": "",
                    "selector": "0x51156e73",
                    "status": true,
                    "value": "0.000951332382"
                },
                "nodeType": 0
            },
            "22": {
                "invocation": {
                    "address": "0x66a71dcef29a0ffbdbe3c6a460a3b5bc225cd675",
                    "callData": "0x000000000000000000000000000000000000000000000000000000000000006e000000000000000000000000296f55f8fb28e498b858d0bcda06d955b2cb3f97",
                    "decodedMethod": {
                        "callParams": [
                            {
                                "name": "_dstChainId",
                                "type": "uint16",
                                "value": "110"
                            },
                            {
                                "name": "_srcAddress",
                                "type": "address",
                                "value": "0x296f55f8fb28e498b858d0bcda06d955b2cb3f97"
                            }
                        ],
                        "constructorArguments": "",
                        "name": "getOutboundNonce",
                        "returnParams": [
                            {
                                "name": "",
                                "type": "uint64",
                                "value": "2,983"
                            }
                        ],
                        "signature": "getOutboundNonce(uint16,address)"
                    },
                    "errorInfo": "",
                    "fromAddress": "0x296f55f8fb28e498b858d0bcda06d955b2cb3f97",
                    "gasUsed": 2632,
                    "id": 22,
                    "methodDecoded": true,
                    "operation": "STATICCALL",
                    "output": "0x0000000000000000000000000000000000000000000000000000000000000ba7",
                    "revert": false,
                    "revertMessage": "",
                    "selector": "0x7a145748",
                    "status": true,
                    "value": "0"
                },
                "nodeType": 0
            },
            "23": {
                "invocation": {
                    "address": "0x66a71dcef29a0ffbdbe3c6a460a3b5bc225cd675",
                    "callData": "0x000000000000000000000000000000000000000000000000000000000000006e00000000000000000000000000000000000000000000000000000000000000c00000000000000000000000000000000000000000000000000000000000000120000000000000000000000000e6b5a31d8bb53d2c769864ac137fe25f4989f1fd000000000000000000000000296f55f8fb28e498b858d0bcda06d955b2cb3f9700000000000000000000000000000000000000000000000000000000000003600000000000000000000000000000000000000000000000000000000000000028352d8275aae3e0c2404d9f68f6cee084b5beb3dd296f55f8fb28e498b858d0bcda06d955b2cb3f9700000000000000000000000000000000000000000000000000000000000000000000000000000000000000000000000000000000000002200000000000000000000000000000000000000000000000000000000000000001000000000000000000000000000000000000000000000000000000000000000100000000000000000000000000000000000000000000000000000000000000010000000000000000000000000000000000000000000000000000000000000000000000000000000000000000000000000000000000000000000000000000000000000000000000000000000000000000000000000000000000000ed8f06d7472000000000000000000000000000000000000000000000000000000000622e2a70000000000000000000000000000000000000000000000000000000000000c1200000000000000000000000000000000000000000000000000000000000000000000000000000000000000000000000000000000000000000000000000000000000000000000000000000000000000000000000000000000000000000000e55c000000000000000000000000000000000000000000000000000000000623d41500000000000000000000000000000000000000000000000000000000000001c000000000000000000000000000000000000000000000000000000000000002000000000000000000000000000000000000000000000000000000000000000014e6b5a31d8bb53d2c769864ac137fe25f4989f1fd0000000000000000000000000000000000000000000000000000000000000000000000000000000000000000000000000000000000000000000000000000000000000000000000000000005600020000000000000000000000000000000000000000000000000000000000033e1400000000000000000000000000000000000000000000000000004f7415c48000e6b5a31d8bb53d2c769864ac137fe25f4989f1fd00000000000000000000",
                    "decodedMethod": {
                        "callParams": [
                            {
                                "name": "_dstChainId",
                                "type": "uint16",
                                "value": "110"
                            },
                            {
                                "name": "_destination",
                                "type": "bytes",
                                "value": "0x352d8275aae3e0c2404d9f68f6cee084b5beb3dd296f55f8fb28e498b858d0bcda06d955b2cb3f97"
                            },
                            {
                                "name": "_payload",
                                "type": "bytes",
                                "value": "0x0000000000000000000000000000000000000000000000000000000000000001000000000000000000000000000000000000000000000000000000000000000100000000000000000000000000000000000000000000000000000000000000010000000000000000000000000000000000000000000000000000000000000000000000000000000000000000000000000000000000000000000000000000000000000000000000000000000000000000000000000000000000000ed8f06d7472000000000000000000000000000000000000000000000000000000000622e2a70000000000000000000000000000000000000000000000000000000000000c1200000000000000000000000000000000000000000000000000000000000000000000000000000000000000000000000000000000000000000000000000000000000000000000000000000000000000000000000000000000000000000000e55c000000000000000000000000000000000000000000000000000000000623d41500000000000000000000000000000000000000000000000000000000000001c000000000000000000000000000000000000000000000000000000000000002000000000000000000000000000000000000000000000000000000000000000014e6b5a31d8bb53d2c769864ac137fe25f4989f1fd0000000000000000000000000000000000000000000000000000000000000000000000000000000000000000"
                            },
                            {
                                "name": "_refundAddress",
                                "type": "address",
                                "value": "0xe6b5a31d8bb53d2c769864ac137fe25f4989f1fd"
                            },
                            {
                                "name": "_zroPaymentAddress",
                                "type": "address",
                                "value": "0x296f55f8fb28e498b858d0bcda06d955b2cb3f97"
                            },
                            {
                                "name": "_adapterParams",
                                "type": "bytes",
                                "value": "0x00020000000000000000000000000000000000000000000000000000000000033e1400000000000000000000000000000000000000000000000000004f7415c48000e6b5a31d8bb53d2c769864ac137fe25f4989f1fd"
                            }
                        ],
                        "constructorArguments": "",
                        "name": "send",
                        "returnParams": [],
                        "signature": "send(uint16,bytes,bytes,address,address,bytes)"
                    },
                    "errorInfo": "",
                    "fromAddress": "0x296f55f8fb28e498b858d0bcda06d955b2cb3f97",
                    "gasUsed": 130912,
                    "id": 23,
                    "methodDecoded": true,
                    "operation": "CALL",
                    "output": "",
                    "revert": false,
                    "revertMessage": "",
                    "selector": "0xc5803100",
                    "status": true,
                    "value": "0.000951332382"
                },
                "nodeType": 0
            },
            "24": {
                "invocation": {
                    "address": "0x4d73adb72bc3dd368966edd0f0b2148401a178e2",
                    "callData": "0x000000000000000000000000296f55f8fb28e498b858d0bcda06d955b2cb3f970000000000000000000000000000000000000000000000000000000000000ba8000000000000000000000000000000000000000000000000000000000000006e00000000000000000000000000000000000000000000000000000000000001000000000000000000000000000000000000000000000000000000000000000160000000000000000000000000e6b5a31d8bb53d2c769864ac137fe25f4989f1fd000000000000000000000000296f55f8fb28e498b858d0bcda06d955b2cb3f9700000000000000000000000000000000000000000000000000000000000003a00000000000000000000000000000000000000000000000000000000000000028352d8275aae3e0c2404d9f68f6cee084b5beb3dd296f55f8fb28e498b858d0bcda06d955b2cb3f9700000000000000000000000000000000000000000000000000000000000000000000000000000000000000000000000000000000000002200000000000000000000000000000000000000000000000000000000000000001000000000000000000000000000000000000000000000000000000000000000100000000000000000000000000000000000000000000000000000000000000010000000000000000000000000000000000000000000000000000000000000000000000000000000000000000000000000000000000000000000000000000000000000000000000000000000000000000000000000000000000000ed8f06d7472000000000000000000000000000000000000000000000000000000000622e2a70000000000000000000000000000000000000000000000000000000000000c1200000000000000000000000000000000000000000000000000000000000000000000000000000000000000000000000000000000000000000000000000000000000000000000000000000000000000000000000000000000000000000000e55c000000000000000000000000000000000000000000000000000000000623d41500000000000000000000000000000000000000000000000000000000000001c000000000000000000000000000000000000000000000000000000000000002000000000000000000000000000000000000000000000000000000000000000014e6b5a31d8bb53d2c769864ac137fe25f4989f1fd0000000000000000000000000000000000000000000000000000000000000000000000000000000000000000000000000000000000000000000000000000000000000000000000000000005600020000000000000000000000000000000000000000000000000000000000033e1400000000000000000000000000000000000000000000000000004f7415c48000e6b5a31d8bb53d2c769864ac137fe25f4989f1fd00000000000000000000",
                    "decodedMethod": {
                        "callParams": [
                            {
                                "name": "_ua",
                                "type": "address",
                                "value": "0x296f55f8fb28e498b858d0bcda06d955b2cb3f97"
                            },
                            {
                                "name": "",
                                "type": "uint64",
                                "value": "2,984"
                            },
                            {
                                "name": "_dstChainId",
                                "type": "uint16",
                                "value": "110"
                            },
                            {
                                "name": "_path",
                                "type": "bytes",
                                "value": "0x352d8275aae3e0c2404d9f68f6cee084b5beb3dd296f55f8fb28e498b858d0bcda06d955b2cb3f97"
                            },
                            {
                                "name": "_payload",
                                "type": "bytes",
                                "value": "0x0000000000000000000000000000000000000000000000000000000000000001000000000000000000000000000000000000000000000000000000000000000100000000000000000000000000000000000000000000000000000000000000010000000000000000000000000000000000000000000000000000000000000000000000000000000000000000000000000000000000000000000000000000000000000000000000000000000000000000000000000000000000000ed8f06d7472000000000000000000000000000000000000000000000000000000000622e2a70000000000000000000000000000000000000000000000000000000000000c1200000000000000000000000000000000000000000000000000000000000000000000000000000000000000000000000000000000000000000000000000000000000000000000000000000000000000000000000000000000000000000000e55c000000000000000000000000000000000000000000000000000000000623d41500000000000000000000000000000000000000000000000000000000000001c000000000000000000000000000000000000000000000000000000000000002000000000000000000000000000000000000000000000000000000000000000014e6b5a31d8bb53d2c769864ac137fe25f4989f1fd0000000000000000000000000000000000000000000000000000000000000000000000000000000000000000"
                            },
                            {
                                "name": "_refundAddress",
                                "type": "address",
                                "value": "0xe6b5a31d8bb53d2c769864ac137fe25f4989f1fd"
                            },
                            {
                                "name": "_zroPaymentAddress",
                                "type": "address",
                                "value": "0x296f55f8fb28e498b858d0bcda06d955b2cb3f97"
                            },
                            {
                                "name": "_adapterParams",
                                "type": "bytes",
                                "value": "0x00020000000000000000000000000000000000000000000000000000000000033e1400000000000000000000000000000000000000000000000000004f7415c48000e6b5a31d8bb53d2c769864ac137fe25f4989f1fd"
                            }
                        ],
                        "constructorArguments": "",
                        "name": "send",
                        "returnParams": [],
                        "signature": "send(address,uint64,uint16,bytes,bytes,address,address,bytes)"
                    },
                    "errorInfo": "",
                    "fromAddress": "0x66a71dcef29a0ffbdbe3c6a460a3b5bc225cd675",
                    "gasUsed": 106793,
                    "id": 24,
                    "methodDecoded": true,
                    "operation": "CALL",
                    "output": "",
                    "revert": false,
                    "revertMessage": "",
                    "selector": "0x4d3a0f7c",
                    "status": true,
                    "value": "0.000951332382"
                },
                "nodeType": 0
            },
            "25": {
                "invocation": {
                    "address": "0x5b905fe05f81f3a8ad8b28c6e17779cfabf76068",
                    "callData": "0x000000000000000000000000000000000000000000000000000000000000006e000000000000000000000000296f55f8fb28e498b858d0bcda06d955b2cb3f9700000000000000000000000000000000000000000000000000000000000000600000000000000000000000000000000000000000000000000000000000000028352d8275aae3e0c2404d9f68f6cee084b5beb3dd296f55f8fb28e498b858d0bcda06d955b2cb3f97000000000000000000000000000000000000000000000000",
                    "decodedMethod": {
                        "callParams": [
                            {
                                "name": "_chainId",
                                "type": "uint16",
                                "value": "110"
                            },
                            {
                                "name": "_ua",
                                "type": "address",
                                "value": "0x296f55f8fb28e498b858d0bcda06d955b2cb3f97"
                            },
                            {
                                "name": "_path",
                                "type": "bytes",
                                "value": "0x352d8275aae3e0c2404d9f68f6cee084b5beb3dd296f55f8fb28e498b858d0bcda06d955b2cb3f97"
                            }
                        ],
                        "constructorArguments": "",
                        "name": "increment",
                        "returnParams": [
                            {
                                "name": "",
                                "type": "uint64",
                                "value": "2,984"
                            }
                        ],
                        "signature": "increment(uint16,address,bytes)"
                    },
                    "errorInfo": "",
                    "fromAddress": "0x4d73adb72bc3dd368966edd0f0b2148401a178e2",
                    "gasUsed": 7028,
                    "id": 25,
                    "methodDecoded": true,
                    "operation": "CALL",
                    "output": "0x0000000000000000000000000000000000000000000000000000000000000ba8",
                    "revert": false,
                    "revertMessage": "",
                    "selector": "0x6fe7b673",
                    "status": true,
                    "value": "0"
                },
                "nodeType": 0
            },
            "26": {
                "invocation": {
                    "address": "0x66a71dcef29a0ffbdbe3c6a460a3b5bc225cd675",
                    "callData": "0x000000000000000000000000296f55f8fb28e498b858d0bcda06d955b2cb3f97",
                    "decodedMethod": {
                        "callParams": [
                            {
                                "name": "_userApplication",
                                "type": "address",
                                "value": "0x296f55f8fb28e498b858d0bcda06d955b2cb3f97"
                            }
                        ],
                        "constructorArguments": "",
                        "name": "getSendLibraryAddress",
                        "returnParams": [
                            {
                                "name": "sendLibraryAddress",
                                "type": "address",
                                "value": "0x4d73adb72bc3dd368966edd0f0b2148401a178e2"
                            }
                        ],
                        "signature": "getSendLibraryAddress(address)"
                    },
                    "errorInfo": "",
                    "fromAddress": "0x5b905fe05f81f3a8ad8b28c6e17779cfabf76068",
                    "gasUsed": 820,
                    "id": 26,
                    "methodDecoded": true,
                    "operation": "STATICCALL",
                    "output": "0x0000000000000000000000004d73adb72bc3dd368966edd0f0b2148401a178e2",
                    "revert": false,
                    "revertMessage": "",
                    "selector": "0x9c729da1",
                    "status": true,
                    "value": "0"
                },
                "nodeType": 0
            },
            "27": {
                "invocation": {
                    "address": "0x902f09715b6303d4173037652fa7377e5b98089e",
                    "callData": "0x000000000000000000000000000000000000000000000000000000000000006e0000000000000000000000000000000000000000000000000000000000000001000000000000000000000000296f55f8fb28e498b858d0bcda06d955b2cb3f97000000000000000000000000000000000000000000000000000000000000022000000000000000000000000000000000000000000000000000000000000000a0000000000000000000000000000000000000000000000000000000000000005600020000000000000000000000000000000000000000000000000000000000033e1400000000000000000000000000000000000000000000000000004f7415c48000e6b5a31d8bb53d2c769864ac137fe25f4989f1fd00000000000000000000",
                    "decodedMethod": {
                        "callParams": [
                            {
                                "name": "_dstChainId",
                                "type": "uint16",
                                "value": "110"
                            },
                            {
                                "name": "_outboundProofType",
                                "type": "uint16",
                                "value": "1"
                            },
                            {
                                "name": "_userApplication",
                                "type": "address",
                                "value": "0x296f55f8fb28e498b858d0bcda06d955b2cb3f97"
                            },
                            {
                                "name": "_payloadSize",
                                "type": "uint256",
                                "value": "544"
                            },
                            {
                                "name": "_adapterParams",
                                "type": "bytes",
                                "value": "0x00020000000000000000000000000000000000000000000000000000000000033e1400000000000000000000000000000000000000000000000000004f7415c48000e6b5a31d8bb53d2c769864ac137fe25f4989f1fd"
                            }
                        ],
                        "constructorArguments": "",
                        "name": "assignJob",
                        "returnParams": [
                            {
                                "name": "",
                                "type": "uint256",
                                "value": "665,347,620,000,000"
                            }
                        ],
                        "signature": "assignJob(uint16,uint16,address,uint256,bytes)"
                    },
                    "errorInfo": "",
                    "fromAddress": "0x4d73adb72bc3dd368966edd0f0b2148401a178e2",
                    "gasUsed": 17688,
                    "id": 27,
                    "methodDecoded": true,
                    "operation": "CALL",
                    "output": "0x00000000000000000000000000000000000000000000000000025d21508ad100",
                    "revert": false,
                    "revertMessage": "",
                    "selector": "0x5886ea65",
                    "status": true,
                    "value": "0"
                },
                "nodeType": 0
            },
            "28": {
                "invocation": {
                    "address": "0x76a15d86fbbe691557c8b7a9c4bebf1d8afe00a7",
                    "callData": "0x000000000000000000000000000000000000000000000000000000000000006e0000000000000000000000000000000000000000000000000000000000000001000000000000000000000000296f55f8fb28e498b858d0bcda06d955b2cb3f97000000000000000000000000000000000000000000000000000000000000022000000000000000000000000000000000000000000000000000000000000000a0000000000000000000000000000000000000000000000000000000000000005600020000000000000000000000000000000000000000000000000000000000033e1400000000000000000000000000000000000000000000000000004f7415c48000e6b5a31d8bb53d2c769864ac137fe25f4989f1fd00000000000000000000",
                    "decodedMethod": {
                        "callParams": [
                            {
                                "name": "_dstChainId",
                                "type": "uint16",
                                "value": "110"
                            },
                            {
                                "name": "_outboundProofType",
                                "type": "uint16",
                                "value": "1"
                            },
                            {
                                "name": "_userApplication",
                                "type": "address",
                                "value": "0x296f55f8fb28e498b858d0bcda06d955b2cb3f97"
                            },
                            {
                                "name": "_payloadSize",
                                "type": "uint256",
                                "value": "544"
                            },
                            {
                                "name": "_adapterParams",
                                "type": "bytes",
                                "value": "0x00020000000000000000000000000000000000000000000000000000000000033e1400000000000000000000000000000000000000000000000000004f7415c48000e6b5a31d8bb53d2c769864ac137fe25f4989f1fd"
                            }
                        ],
                        "constructorArguments": "",
                        "name": "assignJob",
                        "returnParams": [
                            {
                                "name": "",
                                "type": "uint256",
                                "value": "665,347,620,000,000"
                            }
                        ],
                        "signature": "assignJob(uint16,uint16,address,uint256,bytes)"
                    },
                    "errorInfo": "",
                    "fromAddress": "0x902f09715b6303d4173037652fa7377e5b98089e",
                    "gasUsed": 12546,
                    "id": 28,
                    "methodDecoded": true,
                    "operation": "DELEGATECALL",
                    "output": "0x00000000000000000000000000000000000000000000000000025d21508ad100",
                    "revert": false,
                    "revertMessage": "",
                    "selector": "0x5886ea65",
                    "status": true,
                    "value": "0"
                },
                "nodeType": 0
            },
            "29": {
                "event": {
                    "contract": "0x902f09715b6303d4173037652fa7377e5b98089e",
                    "decodedLog": {
                        "name": "AssignJob",
                        "params": [
                            {
                                "name": "totalFee",
                                "type": "uint256",
                                "value": "665,347,620,000,000"
                            }
                        ],
                        "signature": "AssignJob(uint256)"
                    },
                    "id": 29,
                    "logData": "0x00000000000000000000000000000000000000000000000000025d21508ad100",
                    "logDecoded": true,
                    "operation": "EVENT",
                    "revert": false,
                    "status": true,
                    "topics": [
                        "0xdf21c415b78ed2552cc9971249e32a053abce6087a0ae0fbf3f78db5174a3493"
                    ]
                },
                "nodeType": 1
            },
            "3": {
                "invocation": {
                    "address": "0xdf0770df86a8034b3efef0a1bb3c889b8332ff56",
                    "callData": "0x000000000000000000000000000000000000000000000000000000000000006e0000000000000000000000000000000000000000000000000000000000000001000000000000000000000000e6b5a31d8bb53d2c769864ac137fe25f4989f1fd000000000000000000000000000000000000000000000000000000000623d41500000000000000000000000000000000000000000000000000000000061bf8240000000000000000000000000000000000000000000000000000000000000001",
                    "decodedMethod": {
                        "callParams": [
                            {
                                "name": "_dstChainId",
                                "type": "uint16",
                                "value": "110"
                            },
                            {
                                "name": "_dstPoolId",
                                "type": "uint256",
                                "value": "1"
                            },
                            {
                                "name": "_from",
                                "type": "address",
                                "value": "0xe6b5a31d8bb53d2c769864ac137fe25f4989f1fd"
                            },
                            {
                                "name": "_amountLD",
                                "type": "uint256",
                                "value": "103,011,349"
                            },
                            {
                                "name": "_minAmountLD",
                                "type": "uint256",
                                "value": "102,496,292"
                            },
                            {
                                "name": "newLiquidity",
                                "type": "bool",
                                "value": true
                            }
                        ],
                        "constructorArguments": "",
                        "name": "swap",
                        "returnParams": [
                            {
                                "name": "",
                                "type": "(uint256,uint256,uint256,uint256,uint256,uint256)",
                                "value": [
                                    {
                                        "name": "amount",
                                        "type": "uint256",
                                        "value": "102,949,543"
                                    },
                                    {
                                        "name": "eqFee",
                                        "type": "uint256",
                                        "value": "3,090"
                                    },
                                    {
                                        "name": "eqReward",
                                        "type": "uint256",
                                        "value": "0"
                                    },
                                    {
                                        "name": "lpFee",
                                        "type": "uint256",
                                        "value": "0"
                                    },
                                    {
                                        "name": "protocolFee",
                                        "type": "uint256",
                                        "value": "58,716"
                                    },
                                    {
                                        "name": "lkbRemove",
                                        "type": "uint256",
                                        "value": "103,011,349"
                                    }
                                ]
                            }
                        ],
                        "signature": "swap(uint16,uint256,address,uint256,uint256,bool)"
                    },
                    "errorInfo": "",
                    "fromAddress": "0x8731d54e9d02c286767d56ac03e8037c07e01e98",
                    "gasUsed": 100213,
                    "id": 3,
                    "methodDecoded": true,
                    "operation": "CALL",
                    "output": "0x000000000000000000000000000000000000000000000000000000000622e2a70000000000000000000000000000000000000000000000000000000000000c1200000000000000000000000000000000000000000000000000000000000000000000000000000000000000000000000000000000000000000000000000000000000000000000000000000000000000000000000000000000000000000000e55c000000000000000000000000000000000000000000000000000000000623d415",
                    "revert": false,
                    "revertMessage": "",
                    "selector": "0x1b7319b6",
                    "status": true,
                    "value": "0"
                },
                "nodeType": 0
            },
            "30": {
                "event": {
                    "contract": "0x4d73adb72bc3dd368966edd0f0b2148401a178e2",
                    "decodedLog": {
                        "name": "RelayerParams",
                        "params": [
                            {
                                "name": "adapterParams",
                                "type": "bytes",
                                "value": "0x00020000000000000000000000000000000000000000000000000000000000033e1400000000000000000000000000000000000000000000000000004f7415c48000e6b5a31d8bb53d2c769864ac137fe25f4989f1fd"
                            },
                            {
                                "name": "outboundProofType",
                                "type": "uint16",
                                "value": "1"
                            }
                        ],
                        "signature": "RelayerParams(bytes,uint16)"
                    },
                    "id": 30,
                    "logData": "0x00000000000000000000000000000000000000000000000000000000000000400000000000000000000000000000000000000000000000000000000000000001000000000000000000000000000000000000000000000000000000000000005600020000000000000000000000000000000000000000000000000000000000033e1400000000000000000000000000000000000000000000000000004f7415c48000e6b5a31d8bb53d2c769864ac137fe25f4989f1fd00000000000000000000",
                    "logDecoded": true,
                    "operation": "EVENT",
                    "revert": false,
                    "status": true,
                    "topics": [
                        "0xb0c632f55f1e1b3b2c3d82f41ee4716bb4c00f0f5d84cdafc141581bb8757a4f"
                    ]
                },
                "nodeType": 1
            },
            "31": {
                "invocation": {
                    "address": "0x5a54fe5234e811466d5366846283323c954310b2",
                    "callData": "0x000000000000000000000000000000000000000000000000000000000000006e0000000000000000000000000000000000000000000000000000000000000001000000000000000000000000000000000000000000000000000000000000000f000000000000000000000000296f55f8fb28e498b858d0bcda06d955b2cb3f97",
                    "decodedMethod": {
                        "callParams": [
                            {
                                "name": "_dstEid",
                                "type": "uint16",
                                "value": "110"
                            },
                            {
                                "name": "",
                                "type": "uint16",
                                "value": "1"
                            },
                            {
                                "name": "_confirmations",
                                "type": "uint64",
                                "value": "15"
                            },
                            {
                                "name": "_sender",
                                "type": "address",
                                "value": "0x296f55f8fb28e498b858d0bcda06d955b2cb3f97"
                            }
                        ],
                        "constructorArguments": "",
                        "name": "assignJob",
                        "returnParams": [
                            {
                                "name": "totalFee",
                                "type": "uint256",
                                "value": "199,500,000,000,000"
                            }
                        ],
                        "signature": "assignJob(uint16,uint16,uint64,address)"
                    },
                    "errorInfo": "",
                    "fromAddress": "0x4d73adb72bc3dd368966edd0f0b2148401a178e2",
                    "gasUsed": 14699,
                    "id": 31,
                    "methodDecoded": true,
                    "operation": "CALL",
                    "output": "0x0000000000000000000000000000000000000000000000000000b571b6a1f800",
                    "revert": false,
                    "revertMessage": "",
                    "selector": "0xc5e193cd",
                    "status": true,
                    "value": "0"
                },
                "nodeType": 0
            },
            "32": {
                "invocation": {
                    "address": "0xa0cc33dd6f4819d473226257792afe230ec3c67f",
                    "callData": "0x000000000000000000000000000000000000000000000000000000000000006e0000000000000000000000000000000000000000000000000000000000000001000000000000000000000000000000000000000000000000000000000000000f000000000000000000000000296f55f8fb28e498b858d0bcda06d955b2cb3f97",
                    "decodedMethod": {
                        "callParams": [
                            {
                                "name": "_dstEid",
                                "type": "uint16",
                                "value": "110"
                            },
                            {
                                "name": "",
                                "type": "uint16",
                                "value": "1"
                            },
                            {
                                "name": "_confirmations",
                                "type": "uint64",
                                "value": "15"
                            },
                            {
                                "name": "_sender",
                                "type": "address",
                                "value": "0x296f55f8fb28e498b858d0bcda06d955b2cb3f97"
                            }
                        ],
                        "constructorArguments": "",
                        "name": "assignJob",
                        "returnParams": [
                            {
                                "name": "totalFee",
                                "type": "uint256",
                                "value": "199,500,000,000,000"
                            }
                        ],
                        "signature": "assignJob(uint16,uint16,uint64,address)"
                    },
                    "errorInfo": "",
                    "fromAddress": "0x5a54fe5234e811466d5366846283323c954310b2",
                    "gasUsed": 9587,
                    "id": 32,
                    "methodDecoded": true,
                    "operation": "DELEGATECALL",
                    "output": "0x0000000000000000000000000000000000000000000000000000b571b6a1f800",
                    "revert": false,
                    "revertMessage": "",
                    "selector": "0xc5e193cd",
                    "status": true,
                    "value": "0"
                },
                "nodeType": 0
            },
            "33": {
                "event": {
                    "contract": "0x5a54fe5234e811466d5366846283323c954310b2",
                    "decodedLog": null,
                    "id": 33,
                    "logData": "0x000000000000000000000000000000000000000000000000000000000000006e0000000000000000000000000000000000000000000000000000000000000001000000000000000000000000000000000000000000000000000000000000000f000000000000000000000000296f55f8fb28e498b858d0bcda06d955b2cb3f970000000000000000000000000000000000000000000000000000b571b6a1f800",
                    "logDecoded": false,
                    "operation": "EVENT",
                    "revert": false,
                    "status": true,
                    "topics": [
                        "0x4e41ee13e03cd5e0446487b524fdc48af6acf26c074dacdbdfb6b574b42c8146"
                    ]
                },
                "nodeType": 1
            },
            "34": {
                "invocation": {
                    "address": "0x3773e1e9deb273fcdf9f80bc88bb387b1e6ce34d",
                    "callData": "0x000000000000000000000000000000000000000000000000000000000000000000000000000000000000000000000000000000000000000000025d21508ad1000000000000000000000000000000000000000000000000000000b571b6a1f800",
                    "decodedMethod": {
                        "callParams": [
                            {
                                "name": "payInZro",
                                "type": "bool",
                                "value": false
                            },
                            {
                                "name": "relayerFee",
                                "type": "uint256",
                                "value": "665,347,620,000,000"
                            },
                            {
                                "name": "oracleFee",
                                "type": "uint256",
                                "value": "199,500,000,000,000"
                            }
                        ],
                        "constructorArguments": "",
                        "name": "getFees",
                        "returnParams": [
                            {
                                "name": "",
                                "type": "uint256",
                                "value": "0"
                            }
                        ],
                        "signature": "getFees(bool,uint256,uint256)"
                    },
                    "errorInfo": "",
                    "fromAddress": "0x4d73adb72bc3dd368966edd0f0b2148401a178e2",
                    "gasUsed": 2488,
                    "id": 34,
                    "methodDecoded": true,
                    "operation": "STATICCALL",
                    "output": "0x0000000000000000000000000000000000000000000000000000000000000000",
                    "revert": false,
                    "revertMessage": "",
                    "selector": "0x5cbbbd75",
                    "status": true,
                    "value": "0"
                },
                "nodeType": 0
            },
            "35": {
                "invocation": {
                    "address": "0xe6b5a31d8bb53d2c769864ac137fe25f4989f1fd",
                    "callData": "0x",
                    "decodedMethod": null,
                    "errorInfo": "",
                    "fromAddress": "0x4d73adb72bc3dd368966edd0f0b2148401a178e2",
                    "gasUsed": 0,
                    "id": 35,
                    "methodDecoded": false,
                    "operation": "CALL",
                    "output": "",
                    "revert": false,
                    "revertMessage": "",
                    "selector": "fallback",
                    "status": true,
                    "value": "0.000086484762"
                },
                "nodeType": 0
            },
            "36": {
                "event": {
                    "contract": "0x4d73adb72bc3dd368966edd0f0b2148401a178e2",
                    "decodedLog": {
                        "name": "Packet",
                        "params": [
                            {
                                "name": "payload",
                                "type": "bytes",
                                "value": "0x0000000000000ba80065296f55f8fb28e498b858d0bcda06d955b2cb3f97006e352d8275aae3e0c2404d9f68f6cee084b5beb3dd0000000000000000000000000000000000000000000000000000000000000001000000000000000000000000000000000000000000000000000000000000000100000000000000000000000000000000000000000000000000000000000000010000000000000000000000000000000000000000000000000000000000000000000000000000000000000000000000000000000000000000000000000000000000000000000000000000000000000000000000000000000000000ed8f06d7472000000000000000000000000000000000000000000000000000000000622e2a70000000000000000000000000000000000000000000000000000000000000c1200000000000000000000000000000000000000000000000000000000000000000000000000000000000000000000000000000000000000000000000000000000000000000000000000000000000000000000000000000000000000000000e55c000000000000000000000000000000000000000000000000000000000623d41500000000000000000000000000000000000000000000000000000000000001c000000000000000000000000000000000000000000000000000000000000002000000000000000000000000000000000000000000000000000000000000000014e6b5a31d8bb53d2c769864ac137fe25f4989f1fd0000000000000000000000000000000000000000000000000000000000000000000000000000000000000000"
                            }
                        ],
                        "signature": "Packet(bytes)"
                    },
                    "id": 36,
                    "logData": "0x000000000000000000000000000000000000000000000000000000000000002000000000000000000000000000000000000000000000000000000000000002540000000000000ba80065296f55f8fb28e498b858d0bcda06d955b2cb3f97006e352d8275aae3e0c2404d9f68f6cee084b5beb3dd0000000000000000000000000000000000000000000000000000000000000001000000000000000000000000000000000000000000000000000000000000000100000000000000000000000000000000000000000000000000000000000000010000000000000000000000000000000000000000000000000000000000000000000000000000000000000000000000000000000000000000000000000000000000000000000000000000000000000000000000000000000000000ed8f06d7472000000000000000000000000000000000000000000000000000000000622e2a70000000000000000000000000000000000000000000000000000000000000c1200000000000000000000000000000000000000000000000000000000000000000000000000000000000000000000000000000000000000000000000000000000000000000000000000000000000000000000000000000000000000000000e55c000000000000000000000000000000000000000000000000000000000623d41500000000000000000000000000000000000000000000000000000000000001c000000000000000000000000000000000000000000000000000000000000002000000000000000000000000000000000000000000000000000000000000000014e6b5a31d8bb53d2c769864ac137fe25f4989f1fd0000000000000000000000000000000000000000000000000000000000000000000000000000000000000000000000000000000000000000",
                    "logDecoded": true,
                    "operation": "EVENT",
                    "revert": false,
                    "status": true,
                    "topics": [
                        "0xe9bded5f24a4168e4f3bf44e00298c993b22376aad8c58c7dda9718a54cbea82"
                    ]
                },
                "nodeType": 1
            },
            "37": {
                "event": {
                    "contract": "0x296f55f8fb28e498b858d0bcda06d955b2cb3f97",
                    "decodedLog": {
                        "name": "SendMsg",
                        "params": [
                            {
                                "name": "msgType",
                                "type": "uint8",
                                "value": "1"
                            },
                            {
                                "name": "nonce",
                                "type": "uint64",
                                "value": "2,984"
                            }
                        ],
                        "signature": "SendMsg(uint8,uint64)"
                    },
                    "id": 37,
                    "logData": "0x00000000000000000000000000000000000000000000000000000000000000010000000000000000000000000000000000000000000000000000000000000ba8",
                    "logDecoded": true,
                    "operation": "EVENT",
                    "revert": false,
                    "status": true,
                    "topics": [
                        "0x8d3ee0df6a4b7e82a7f20a763f1c6826e6176323e655af64f32318827d2112d4"
                    ]
                },
                "nodeType": 1
            },
            "4": {
                "invocation": {
                    "address": "0xdbf50791d09603915bd066354a5b45775cfad924",
                    "callData": "0x00000000000000000000000000000000000000000000000000000000000000010000000000000000000000000000000000000000000000000000000000000001000000000000000000000000000000000000000000000000000000000000006e000000000000000000000000e6b5a31d8bb53d2c769864ac137fe25f4989f1fd000000000000000000000000000000000000000000000000000000000623d415",
                    "decodedMethod": {
                        "callParams": [
                            {
                                "name": "_srcPoolId",
                                "type": "uint256",
                                "value": "1"
                            },
                            {
                                "name": "_dstPoolId",
                                "type": "uint256",
                                "value": "1"
                            },
                            {
                                "name": "_dstChainId",
                                "type": "uint16",
                                "value": "110"
                            },
                            {
                                "name": "_from",
                                "type": "address",
                                "value": "0xe6b5a31d8bb53d2c769864ac137fe25f4989f1fd"
                            },
                            {
                                "name": "_amountSD",
                                "type": "uint256",
                                "value": "103,011,349"
                            }
                        ],
                        "constructorArguments": "",
                        "name": "getFees",
                        "returnParams": [
                            {
                                "name": "s",
                                "type": "(uint256,uint256,uint256,uint256,uint256,uint256)",
                                "value": [
                                    {
                                        "name": "amount",
                                        "type": "uint256",
                                        "value": "0"
                                    },
                                    {
                                        "name": "eqFee",
                                        "type": "uint256",
                                        "value": "3,090"
                                    },
                                    {
                                        "name": "eqReward",
                                        "type": "uint256",
                                        "value": "0"
                                    },
                                    {
                                        "name": "lpFee",
                                        "type": "uint256",
                                        "value": "0"
                                    },
                                    {
                                        "name": "protocolFee",
                                        "type": "uint256",
                                        "value": "58,716"
                                    },
                                    {
                                        "name": "lkbRemove",
                                        "type": "uint256",
                                        "value": "0"
                                    }
                                ]
                            }
                        ],
                        "signature": "getFees(uint256,uint256,uint16,address,uint256)"
                    },
                    "errorInfo": "",
                    "fromAddress": "0xdf0770df86a8034b3efef0a1bb3c889b8332ff56",
                    "gasUsed": 59803,
                    "id": 4,
                    "methodDecoded": true,
                    "operation": "CALL",
                    "output": "0x00000000000000000000000000000000000000000000000000000000000000000000000000000000000000000000000000000000000000000000000000000c1200000000000000000000000000000000000000000000000000000000000000000000000000000000000000000000000000000000000000000000000000000000000000000000000000000000000000000000000000000000000000000000e55c0000000000000000000000000000000000000000000000000000000000000000",
                    "revert": false,
                    "revertMessage": "",
                    "selector": "0x1ab62430",
                    "status": true,
                    "value": "0"
                },
                "nodeType": 0
            },
            "5": {
                "invocation": {
                    "address": "0x06d538690af257da524f25d0cd52fd85b1c2173e",
                    "callData": "0x0000000000000000000000000000000000000000000000000000000000000001",
                    "decodedMethod": {
                        "callParams": [
                            {
                                "name": "",
                                "type": "uint256",
                                "value": "1"
                            }
                        ],
                        "constructorArguments": "",
                        "name": "getPool",
                        "returnParams": [
                            {
                                "name": "",
                                "type": "address",
                                "value": "0xdf0770df86a8034b3efef0a1bb3c889b8332ff56"
                            }
                        ],
                        "signature": "getPool(uint256)"
                    },
                    "errorInfo": "",
                    "fromAddress": "0xdbf50791d09603915bd066354a5b45775cfad924",
                    "gasUsed": 514,
                    "id": 5,
                    "methodDecoded": true,
                    "operation": "STATICCALL",
                    "output": "0x000000000000000000000000df0770df86a8034b3efef0a1bb3c889b8332ff56",
                    "revert": false,
                    "revertMessage": "",
                    "selector": "0x068bcd8d",
                    "status": true,
                    "value": "0"
                },
                "nodeType": 0
            },
            "6": {
                "invocation": {
                    "address": "0xdf0770df86a8034b3efef0a1bb3c889b8332ff56",
                    "callData": "0x000000000000000000000000000000000000000000000000000000000000006e0000000000000000000000000000000000000000000000000000000000000001",
                    "decodedMethod": {
                        "callParams": [
                            {
                                "name": "_dstChainId",
                                "type": "uint16",
                                "value": "110"
                            },
                            {
                                "name": "_dstPoolId",
                                "type": "uint256",
                                "value": "1"
                            }
                        ],
                        "constructorArguments": "",
                        "name": "getChainPath",
                        "returnParams": [
                            {
                                "name": "",
                                "type": "(bool,uint16,uint256,uint256,uint256,uint256,uint256,uint256)",
                                "value": [
                                    {
                                        "name": "ready",
                                        "type": "bool",
                                        "value": true
                                    },
                                    {
                                        "name": "dstChainId",
                                        "type": "uint16",
                                        "value": "110"
                                    },
                                    {
                                        "name": "dstPoolId",
                                        "type": "uint256",
                                        "value": "1"
                                    },
                                    {
                                        "name": "weight",
                                        "type": "uint256",
                                        "value": "1,808"
                                    },
                                    {
                                        "name": "balance",
                                        "type": "uint256",
                                        "value": "12,918,047,853,590"
                                    },
                                    {
                                        "name": "lkb",
                                        "type": "uint256",
                                        "value": "10,138,013,133,301"
                                    },
                                    {
                                        "name": "credits",
                                        "type": "uint256",
                                        "value": "0"
                                    },
                                    {
                                        "name": "idealBalance",
                                        "type": "uint256",
                                        "value": "15,940,903,042,828"
                                    }
                                ]
                            }
                        ],
                        "signature": "getChainPath(uint16,uint256)"
                    },
                    "errorInfo": "",
                    "fromAddress": "0xdbf50791d09603915bd066354a5b45775cfad924",
                    "gasUsed": 12377,
                    "id": 6,
                    "methodDecoded": true,
                    "operation": "STATICCALL",
                    "output": "0x0000000000000000000000000000000000000000000000000000000000000001000000000000000000000000000000000000000000000000000000000000006e0000000000000000000000000000000000000000000000000000000000000001000000000000000000000000000000000000000000000000000000000000071000000000000000000000000000000000000000000000000000000bbfb7a74c160000000000000000000000000000000000000000000000000000093870abe9f5000000000000000000000000000000000000000000000000000000000000000000000000000000000000000000000000000000000000000000000e7f87dcff0c",
                    "revert": false,
                    "revertMessage": "",
                    "selector": "0x159f6add",
                    "status": true,
                    "value": "0"
                },
                "nodeType": 0
            },
            "7": {
                "invocation": {
                    "address": "0xdf0770df86a8034b3efef0a1bb3c889b8332ff56",
                    "callData": "0x",
                    "decodedMethod": {
                        "callParams": [],
                        "constructorArguments": "",
                        "name": "token",
                        "returnParams": [
                            {
                                "name": "",
                                "type": "address",
                                "value": "0xa0b86991c6218b36c1d19d4a2e9eb0ce3606eb48"
                            }
                        ],
                        "signature": "token()"
                    },
                    "errorInfo": "",
                    "fromAddress": "0xdbf50791d09603915bd066354a5b45775cfad924",
                    "gasUsed": 362,
                    "id": 7,
                    "methodDecoded": true,
                    "operation": "STATICCALL",
                    "output": "0x000000000000000000000000a0b86991c6218b36c1d19d4a2e9eb0ce3606eb48",
                    "revert": false,
                    "revertMessage": "",
                    "selector": "0xfc0c546a",
                    "status": true,
                    "value": "0"
                },
                "nodeType": 0
            },
            "8": {
                "invocation": {
                    "address": "0xdf0770df86a8034b3efef0a1bb3c889b8332ff56",
                    "callData": "0x",
                    "decodedMethod": {
                        "callParams": [],
                        "constructorArguments": "",
                        "name": "convertRate",
                        "returnParams": [
                            {
                                "name": "",
                                "type": "uint256",
                                "value": "1"
                            }
                        ],
                        "signature": "convertRate()"
                    },
                    "errorInfo": "",
                    "fromAddress": "0xdbf50791d09603915bd066354a5b45775cfad924",
                    "gasUsed": 360,
                    "id": 8,
                    "methodDecoded": true,
                    "operation": "STATICCALL",
                    "output": "0x0000000000000000000000000000000000000000000000000000000000000001",
                    "revert": false,
                    "revertMessage": "",
                    "selector": "0xfeb56b15",
                    "status": true,
                    "value": "0"
                },
                "nodeType": 0
            },
            "9": {
                "invocation": {
                    "address": "0xa0b86991c6218b36c1d19d4a2e9eb0ce3606eb48",
                    "callData": "0x000000000000000000000000df0770df86a8034b3efef0a1bb3c889b8332ff56",
                    "decodedMethod": {
                        "callParams": [
                            {
                                "name": "account",
                                "type": "address",
                                "value": "0xdf0770df86a8034b3efef0a1bb3c889b8332ff56"
                            }
                        ],
                        "constructorArguments": "",
                        "name": "balanceOf",
                        "returnParams": [
                            {
                                "decimalAvailable": true,
                                "name": "",
                                "type": "uint256",
                                "value": "69,781,662,521,639"
                            }
                        ],
                        "signature": "balanceOf(address)"
                    },
                    "errorInfo": "",
                    "fromAddress": "0xdbf50791d09603915bd066354a5b45775cfad924",
                    "gasUsed": 9815,
                    "id": 9,
                    "methodDecoded": true,
                    "operation": "STATICCALL",
                    "output": "0x00000000000000000000000000000000000000000000000000003f774f34d927",
                    "revert": false,
                    "revertMessage": "",
                    "selector": "0x70a08231",
                    "status": true,
                    "value": "0"
                },
                "nodeType": 0
            }
        },
        "gasFlame": [
            {
                "children": [
                    {
                        "children": [
                            {
                                "children": [],
                                "depth": 0,
                                "name": "Initial Gas",
                                "value": 24248
                            },
                            {
                                "children": [
                                    {
                                        "children": [],
                                        "depth": 1,
                                        "name": "getPool",
                                        "value": 2514
                                    },
                                    {
                                        "children": [],
                                        "depth": 1,
                                        "name": "convertRate",
                                        "value": 360
                                    },
                                    {
                                        "children": [
                                            {
                                                "children": [
                                                    {
                                                        "children": [],
                                                        "depth": 3,
                                                        "name": "getPool",
                                                        "value": 514
                                                    },
                                                    {
                                                        "children": [],
                                                        "depth": 3,
                                                        "name": "getChainPath",
                                                        "value": 12377
                                                    },
                                                    {
                                                        "children": [],
                                                        "depth": 3,
                                                        "name": "token",
                                                        "value": 362
                                                    },
                                                    {
                                                        "children": [],
                                                        "depth": 3,
                                                        "name": "convertRate",
                                                        "value": 360
                                                    },
                                                    {
                                                        "children": [
                                                            {
                                                                "children": [],
                                                                "depth": 4,
                                                                "name": "balanceOf",
                                                                "value": 2529
                                                            }
                                                        ],
                                                        "depth": 3,
                                                        "name": "balanceOf",
                                                        "value": 9815
                                                    },
                                                    {
                                                        "children": [],
                                                        "depth": 3,
                                                        "name": "totalLiquidity",
                                                        "value": 2463
                                                    },
                                                    {
                                                        "children": [],
                                                        "depth": 3,
                                                        "name": "eqFeePool",
                                                        "value": 2418
                                                    },
                                                    {
                                                        "children": [],
                                                        "depth": 3,
                                                        "name": "poolInfo",
                                                        "value": 11060
                                                    }
                                                ],
                                                "depth": 2,
                                                "name": "getFees",
                                                "value": 59803
                                            }
                                        ],
                                        "depth": 1,
                                        "name": "swap",
                                        "value": 100213
                                    },
                                    {
                                        "children": [],
                                        "depth": 1,
                                        "name": "token",
                                        "value": 362
                                    },
                                    {
                                        "children": [
                                            {
                                                "children": [],
                                                "depth": 2,
                                                "name": "transferFrom",
                                                "value": 25597
                                            }
                                        ],
                                        "depth": 1,
                                        "name": "transferFrom",
                                        "value": 26392
                                    },
                                    {
                                        "children": [],
                                        "depth": 1,
                                        "name": "sendCredits",
                                        "value": 9995
                                    },
                                    {
                                        "children": [
                                            {
                                                "children": [],
                                                "depth": 2,
                                                "name": "getOutboundNonce",
                                                "value": 2632
                                            },
                                            {
                                                "children": [
                                                    {
                                                        "children": [
                                                            {
                                                                "children": [
                                                                    {
                                                                        "children": [],
                                                                        "depth": 5,
                                                                        "name": "getSendLibraryAddress",
                                                                        "value": 820
                                                                    }
                                                                ],
                                                                "depth": 4,
                                                                "name": "increment",
                                                                "value": 7028
                                                            },
                                                            {
                                                                "children": [
                                                                    {
                                                                        "children": [],
                                                                        "depth": 5,
                                                                        "name": "assignJob",
                                                                        "value": 12546
                                                                    }
                                                                ],
                                                                "depth": 4,
                                                                "name": "assignJob",
                                                                "value": 17688
                                                            },
                                                            {
                                                                "children": [
                                                                    {
                                                                        "children": [],
                                                                        "depth": 5,
                                                                        "name": "assignJob",
                                                                        "value": 9587
                                                                    }
                                                                ],
                                                                "depth": 4,
                                                                "name": "assignJob",
                                                                "value": 14699
                                                            },
                                                            {
                                                                "children": [],
                                                                "depth": 4,
                                                                "name": "getFees",
                                                                "value": 2488
                                                            },
                                                            {
                                                                "children": [],
                                                                "depth": 4,
                                                                "name": "fallback",
                                                                "value": 0
                                                            }
                                                        ],
                                                        "depth": 3,
                                                        "name": "send",
                                                        "value": 106793
                                                    }
                                                ],
                                                "depth": 2,
                                                "name": "send",
                                                "value": 130912
                                            }
                                        ],
                                        "depth": 1,
                                        "name": "swap",
                                        "value": 160403
                                    }
                                ],
                                "depth": 0,
                                "name": "Executed Gas",
                                "value": 332492
                            }
                        ],
                        "depth": -1,
                        "name": "Actual Gas Used",
                        "value": 340740
                    },
                    {
                        "children": [],
                        "depth": -1,
                        "name": "Refunded Gas",
                        "value": 16000
                    }
                ],
                "depth": -2,
                "name": "Total Gas",
                "value": 356740
            }
        ],
        "isConfirmed": true,
        "mainTrace": [
            {
                "children": [
                    {
                        "children": [
                            {
                                "children": [],
                                "depth": 1,
                                "id": 1,
                                "order": 1
                            },
                            {
                                "children": [],
                                "depth": 1,
                                "id": 2,
                                "order": 2
                            },
                            {
                                "children": [
                                    {
                                        "children": [
                                            {
                                                "children": [],
                                                "depth": 3,
                                                "id": 5,
                                                "order": 5
                                            },
                                            {
                                                "children": [],
                                                "depth": 3,
                                                "id": 6,
                                                "order": 6
                                            },
                                            {
                                                "children": [],
                                                "depth": 3,
                                                "id": 7,
                                                "order": 7
                                            },
                                            {
                                                "children": [],
                                                "depth": 3,
                                                "id": 8,
                                                "order": 8
                                            },
                                            {
                                                "children": [
                                                    {
                                                        "children": [],
                                                        "depth": 4,
                                                        "id": 10,
                                                        "order": 10
                                                    }
                                                ],
                                                "depth": 3,
                                                "id": 9,
                                                "order": 9
                                            },
                                            {
                                                "children": [],
                                                "depth": 3,
                                                "id": 11,
                                                "order": 11
                                            },
                                            {
                                                "children": [],
                                                "depth": 3,
                                                "id": 12,
                                                "order": 12
                                            },
                                            {
                                                "children": [],
                                                "depth": 3,
                                                "id": 13,
                                                "order": 13
                                            }
                                        ],
                                        "depth": 2,
                                        "id": 4,
                                        "order": 4
                                    },
                                    {
                                        "children": [],
                                        "depth": 2,
                                        "id": 14,
                                        "order": 14
                                    }
                                ],
                                "depth": 1,
                                "id": 3,
                                "order": 3
                            },
                            {
                                "children": [],
                                "depth": 1,
                                "id": 15,
                                "order": 15
                            },
                            {
                                "children": [
                                    {
                                        "children": [
                                            {
                                                "children": [],
                                                "depth": 3,
                                                "id": 18,
                                                "order": 18
                                            }
                                        ],
                                        "depth": 2,
                                        "id": 17,
                                        "order": 17
                                    }
                                ],
                                "depth": 1,
                                "id": 16,
                                "order": 16
                            },
                            {
                                "children": [
                                    {
                                        "children": [],
                                        "depth": 2,
                                        "id": 20,
                                        "order": 20
                                    }
                                ],
                                "depth": 1,
                                "id": 19,
                                "order": 19
                            },
                            {
                                "children": [
                                    {
                                        "children": [],
                                        "depth": 2,
                                        "id": 22,
                                        "order": 22
                                    },
                                    {
                                        "children": [
                                            {
                                                "children": [
                                                    {
                                                        "children": [
                                                            {
                                                                "children": [],
                                                                "depth": 5,
                                                                "id": 26,
                                                                "order": 26
                                                            }
                                                        ],
                                                        "depth": 4,
                                                        "id": 25,
                                                        "order": 25
                                                    },
                                                    {
                                                        "children": [
                                                            {
                                                                "children": [
                                                                    {
                                                                        "children": [],
                                                                        "depth": 6,
                                                                        "id": 29,
                                                                        "order": 29
                                                                    }
                                                                ],
                                                                "depth": 5,
                                                                "id": 28,
                                                                "order": 28
                                                            }
                                                        ],
                                                        "depth": 4,
                                                        "id": 27,
                                                        "order": 27
                                                    },
                                                    {
                                                        "children": [],
                                                        "depth": 4,
                                                        "id": 30,
                                                        "order": 30
                                                    },
                                                    {
                                                        "children": [
                                                            {
                                                                "children": [
                                                                    {
                                                                        "children": [],
                                                                        "depth": 6,
                                                                        "id": 33,
                                                                        "order": 33
                                                                    }
                                                                ],
                                                                "depth": 5,
                                                                "id": 32,
                                                                "order": 32
                                                            }
                                                        ],
                                                        "depth": 4,
                                                        "id": 31,
                                                        "order": 31
                                                    },
                                                    {
                                                        "children": [],
                                                        "depth": 4,
                                                        "id": 34,
                                                        "order": 34
                                                    },
                                                    {
                                                        "children": [],
                                                        "depth": 4,
                                                        "id": 35,
                                                        "order": 35
                                                    },
                                                    {
                                                        "children": [],
                                                        "depth": 4,
                                                        "id": 36,
                                                        "order": 36
                                                    }
                                                ],
                                                "depth": 3,
                                                "id": 24,
                                                "order": 24
                                            }
                                        ],
                                        "depth": 2,
                                        "id": 23,
                                        "order": 23
                                    },
                                    {
                                        "children": [],
                                        "depth": 2,
                                        "id": 37,
                                        "order": 37
                                    }
                                ],
                                "depth": 1,
                                "id": 21,
                                "order": 21
                            }
                        ],
                        "depth": 0,
                        "id": 0,
                        "order": 0
                    }
                ],
                "depth": -1,
                "id": -1,
                "order": -1
            }
        ],
        "mainTraceNodeCount": 38,
        "parentIdMap": {
            "0": -1,
            "1": 0,
            "10": 9,
            "11": 4,
            "12": 4,
            "13": 4,
            "14": 3,
            "15": 0,
            "16": 0,
            "17": 16,
            "18": 17,
            "19": 0,
            "2": 0,
            "20": 19,
            "21": 0,
            "22": 21,
            "23": 21,
            "24": 23,
            "25": 24,
            "26": 25,
            "27": 24,
            "28": 27,
            "29": 28,
            "3": 0,
            "30": 24,
            "31": 24,
            "32": 31,
            "33": 32,
            "34": 24,
            "35": 24,
            "36": 24,
            "37": 21,
            "4": 3,
            "5": 4,
            "6": 4,
            "7": 4,
            "8": 4,
            "9": 4
        },
        "tidyTrace": [
            {
                "children": [
                    {
                        "children": [
                            {
                                "children": [
                                    {
                                        "children": [],
                                        "depth": 2,
                                        "id": 4,
                                        "order": 4
                                    },
                                    {
                                        "children": [],
                                        "depth": 2,
                                        "id": 14,
                                        "order": 14
                                    }
                                ],
                                "depth": 1,
                                "id": 3,
                                "order": 3
                            },
                            {
                                "children": [
                                    {
                                        "children": [
                                            {
                                                "children": [],
                                                "depth": 3,
                                                "id": 18,
                                                "order": 18
                                            }
                                        ],
                                        "depth": 2,
                                        "id": 17,
                                        "order": 17
                                    }
                                ],
                                "depth": 1,
                                "id": 16,
                                "order": 16
                            },
                            {
                                "children": [
                                    {
                                        "children": [],
                                        "depth": 2,
                                        "id": 20,
                                        "order": 20
                                    }
                                ],
                                "depth": 1,
                                "id": 19,
                                "order": 19
                            },
                            {
                                "children": [
                                    {
                                        "children": [
                                            {
                                                "children": [
                                                    {
                                                        "children": [],
                                                        "depth": 4,
                                                        "id": 25,
                                                        "order": 25
                                                    },
                                                    {
                                                        "children": [
                                                            {
                                                                "children": [
                                                                    {
                                                                        "children": [],
                                                                        "depth": 6,
                                                                        "id": 29,
                                                                        "order": 29
                                                                    }
                                                                ],
                                                                "depth": 5,
                                                                "id": 28,
                                                                "order": 28
                                                            }
                                                        ],
                                                        "depth": 4,
                                                        "id": 27,
                                                        "order": 27
                                                    },
                                                    {
                                                        "children": [],
                                                        "depth": 4,
                                                        "id": 30,
                                                        "order": 30
                                                    },
                                                    {
                                                        "children": [
                                                            {
                                                                "children": [
                                                                    {
                                                                        "children": [],
                                                                        "depth": 6,
                                                                        "id": 33,
                                                                        "order": 33
                                                                    }
                                                                ],
                                                                "depth": 5,
                                                                "id": 32,
                                                                "order": 32
                                                            }
                                                        ],
                                                        "depth": 4,
                                                        "id": 31,
                                                        "order": 31
                                                    },
                                                    {
                                                        "children": [],
                                                        "depth": 4,
                                                        "id": 35,
                                                        "order": 35
                                                    },
                                                    {
                                                        "children": [],
                                                        "depth": 4,
                                                        "id": 36,
                                                        "order": 36
                                                    }
                                                ],
                                                "depth": 3,
                                                "id": 24,
                                                "order": 24
                                            }
                                        ],
                                        "depth": 2,
                                        "id": 23,
                                        "order": 23
                                    },
                                    {
                                        "children": [],
                                        "depth": 2,
                                        "id": 37,
                                        "order": 37
                                    }
                                ],
                                "depth": 1,
                                "id": 21,
                                "order": 21
                            }
                        ],
                        "depth": 0,
                        "id": 0,
                        "order": 0
                    }
                ],
                "depth": -1,
                "id": -1,
                "order": -1
            }
        ],
        "tidyTraceNodeCount": 23
    },
    "state_change": {
        "stateChanges": [
            {
                "address": "0x4d73adb72bc3dd368966edd0f0b2148401a178e2",
                "erc": "",
                "slots": [
                    {
                        "current": "0x000000000000000000000000000000000000000000000000875723c6a018cc0f",
                        "key": "0xa9966cf297886811b8a32882dd324f23f672f5ccd6bf17ebe1e72a723e2f5ade",
                        "prev": "0x0000000000000000000000000000000000000000000000008754c6a54f8dfb0f"
                    },
                    {
                        "current": "0x00000000000000000000000000000000000000000000000022a1fcc5343f0ad7",
                        "key": "0x7926c965e2720f1dbcb65c9286a75ed8531ab85534254d790ede2d1d55cc8da8",
                        "prev": "0x00000000000000000000000000000000000000000000000022a147537d9d12d7"
                    }
                ],
                "storageVariables": [
                    {
                        "name": "nativeFees",
                        "type": "mapping(address => uint256)",
                        "value": {
                            "pairs": [
                                {
                                    "key": "0x5a54fe5234e811466d5366846283323c954310b2",
                                    "value": {
                                        "current": "2495553592455269079",
                                        "prev": "2495354092455269079",
                                        "typeTag": 1
                                    }
                                },
                                {
                                    "key": "0x902f09715b6303d4173037652fa7377e5b98089e",
                                    "value": {
                                        "current": "9752302854090574863",
                                        "prev": "9751637506470574863",
                                        "typeTag": 1
                                    }
                                }
                            ],
                            "typeTag": 4
                        }
                    }
                ]
            },
            {
                "address": "0x5b905fe05f81f3a8ad8b28c6e17779cfabf76068",
                "erc": "",
                "slots": [
                    {
                        "current": "0x0000000000000000000000000000000000000000000000000000000000000ba8",
                        "key": "0x13231af8fa1b0da63a1f4241773d4ff784ec4c06a7643aa6c968db2156e5a16c",
                        "prev": "0x0000000000000000000000000000000000000000000000000000000000000ba7"
                    }
                ],
                "storageVariables": [
                    {
                        "name": "outboundNonce",
                        "type": "mapping(uint16 => mapping(bytes => uint64))",
                        "value": {
                            "pairs": [
                                {
                                    "key": "110",
                                    "value": {
                                        "pairs": [
                                            {
                                                "key": "0x352d8275aae3e0c2404d9f68f6cee084b5beb3dd296f55f8fb28e498b858d0bcda06d955b2cb3f97",
                                                "value": {
                                                    "current": "2984",
                                                    "prev": "2983",
                                                    "typeTag": 1
                                                }
                                            }
                                        ],
                                        "typeTag": 4
                                    }
                                }
                            ],
                            "typeTag": 4
                        }
                    }
                ]
            },
            {
                "address": "0x66a71dcef29a0ffbdbe3c6a460a3b5bc225cd675",
                "erc": "",
                "slots": [
                    {
                        "current": "0x0000000000000000000000000000000000000000000000000000000000000ba8",
                        "key": "0x4a5b97869ed3c6579b7123b7e80a45c7d7e4efdfe43347948cbe3c0a7fe50bf7",
                        "prev": "0x0000000000000000000000000000000000000000000000000000000000000ba7"
                    }
                ],
                "storageVariables": [
                    {
                        "name": "outboundNonce",
                        "type": "mapping(uint16 => mapping(address => uint64))",
                        "value": {
                            "pairs": [
                                {
                                    "key": "110",
                                    "value": {
                                        "pairs": [
                                            {
                                                "key": "0x296f55f8fb28e498b858d0bcda06d955b2cb3f97",
                                                "value": {
                                                    "current": "2984",
                                                    "prev": "2983",
                                                    "typeTag": 1
                                                }
                                            }
                                        ],
                                        "typeTag": 4
                                    }
                                }
                            ],
                            "typeTag": 4
                        }
                    }
                ]
            },
            {
                "address": "0xa0b86991c6218b36c1d19d4a2e9eb0ce3606eb48",
                "erc": "ERC-20",
                "slots": [
                    {
                        "current": "0x0000000000000000000000000000000000000000000000000000000000000000",
                        "key": "0xd89264e6a9bd5109974871500d369e60bb3a32a918f5c5c0f618783b5e4f77e2",
                        "prev": "0x000000000000000000000000000000000000000000000000000000000623d415"
                    },
                    {
                        "current": "0x00000000000000000000000000000000000000000000000000003f775558ad3c",
                        "key": "0x9fe20dd3e04004fbd3a1290ddbe2251d70dce8eb80b52781d2c81730f89e2369",
                        "prev": "0x00000000000000000000000000000000000000000000000000003f774f34d927"
                    },
                    {
                        "current": "0xfffffffffffffffffffffffffffffffffffffffffffffffffffffffff9dc2bea",
                        "key": "0xc77da8d755523316ff5826f2ac0ceb520428572875ea0dd41efc79ce17bcd842",
                        "prev": "0xffffffffffffffffffffffffffffffffffffffffffffffffffffffffffffffff"
                    }
                ],
                "storageVariables": [
                    {
                        "name": "balances",
                        "type": "mapping(address => uint256)",
                        "value": {
                            "pairs": [
                                {
                                    "key": "0xdf0770df86a8034b3efef0a1bb3c889b8332ff56",
                                    "value": {
                                        "current": "69781765532988",
                                        "prev": "69781662521639",
                                        "typeTag": 1
                                    }
                                },
                                {
                                    "key": "0xe6b5a31d8bb53d2c769864ac137fe25f4989f1fd",
                                    "value": {
                                        "current": "0",
                                        "prev": "103011349",
                                        "typeTag": 1
                                    }
                                }
                            ],
                            "typeTag": 4
                        }
                    },
                    {
                        "name": "allowed",
                        "type": "mapping(address => mapping(address => uint256))",
                        "value": {
                            "pairs": [
                                {
                                    "key": "0xe6b5a31d8bb53d2c769864ac137fe25f4989f1fd",
                                    "value": {
                                        "pairs": [
                                            {
                                                "key": "0x8731d54e9d02c286767d56ac03e8037c07e01e98",
                                                "value": {
                                                    "current": "115792089237316195423570985008687907853269984665640564039457584007913026628586",
                                                    "prev": "115792089237316195423570985008687907853269984665640564039457584007913129639935",
                                                    "typeTag": 1
                                                }
                                            }
                                        ],
                                        "typeTag": 4
                                    }
                                }
                            ],
                            "typeTag": 4
                        }
                    }
                ]
            },
            {
                "address": "0xdf0770df86a8034b3efef0a1bb3c889b8332ff56",
                "erc": "ERC-20",
                "slots": [
                    {
                        "current": "0x00000000000000000000000000000000000000000000000000000bbfb1837801",
                        "key": "0x6e1540171b6c0c960b71a7020d9f60077f6af931a8bbf590da0223dacf75c83e",
                        "prev": "0x00000000000000000000000000000000000000000000000000000bbfb7a74c16"
                    },
                    {
                        "current": "0x000000000000000000000000000000000000000000000000000002c78d7dc212",
                        "key": "0x0000000000000000000000000000000000000000000000000000000000000015",
                        "prev": "0x000000000000000000000000000000000000000000000000000002c78759edfd"
                    }
                ],
                "storageVariables": [
                    {
                        "name": "chainPaths",
                        "type": "struct Pool.ChainPath[]",
                        "value": {
                            "elemType": "struct Pool.ChainPath",
                            "elems": [
                                {
                                    "index": 20,
                                    "value": {
                                        "fields": [
                                            {
                                                "name": "balance",
                                                "type": "uint256",
                                                "value": {
                                                    "current": "12917944842241",
                                                    "prev": "12918047853590",
                                                    "typeTag": 1
                                                }
                                            }
                                        ],
                                        "typeTag": 3
                                    }
                                }
                            ],
                            "typeTag": 2
                        }
                    },
                    {
                        "name": "deltaCredit",
                        "type": "uint256",
                        "value": {
                            "current": "3056095576594",
                            "prev": "3055992565245",
                            "typeTag": 1
                        }
                    }
                ]
            }
        ]
    }
}