{
    "balance_change": {
        "balanceChanges": [
            {
                "account": "0x938d9d08f00a3e417ebaed8a4434fa3bbf0364b8",
                "assets": [
                    {
                        "address": "0x80fa08fc8da9db6dac8cd05d8741a2e7f20f39da",
                        "amount": "115",
                        "iconUrl": "",
                        "isERC1155": false,
                        "isERC721": false,
                        "sign": false,
                        "value": ""
                    }
                ]
            },
            {
                "account": "0x4868e58ab5f169972dca9d9f4f562c66947d643c",
                "assets": [
                    {
                        "address": "0x80fa08fc8da9db6dac8cd05d8741a2e7f20f39da",
                        "amount": "115",
                        "iconUrl": "",
                        "isERC1155": false,
                        "isERC721": false,
                        "sign": true,
                        "value": ""
                    }
                ]
            }
        ]
    },
    "profile": {
        "basic_info": {
            "baseFee": "",
            "blockNumber": 5243627,
            "callData": "0xa9059cbb0000000000000000000000004868e58ab5f169972dca9d9f4f562c66947d643c0000000000000000000000000000000000000000000000000000000000000073",
            "debugEnable": true,
            "errorInfo": "",
            "eventCount": 1,
            "feeRecipient": "0x52bc44d5378309ee2abf1539bf71de1b7d7be3b5",
            "formatValue": "0",
            "gasLimit": 60000,
            "gasPrice": "2",
            "gasUsed": 36563,
            "intTxnCount": 0,
            "internalRevert": false,
            "internalRevertMessage": "",
            "isContractCreation": false,
            "isFlashloan": false,
            "maxFee": "",
            "nonce": 1702,
            "overwritedBlockNumber": -1,
            "priorityFee": "",
            "receiver": "0x80fa08fc8da9db6dac8cd05d8741a2e7f20f39da",
            "revertMessage": "",
            "sender": "0x938d9d08f00a3e417ebaed8a4434fa3bbf0364b8",
            "simulationEnable": true,
            "sourceTxnHash": "0x2db8d21bc48549c5896dc547c6ca1eca85b278fb615ea71d3fbdb3a889adcb33",
            "status": true,
            "timestamp": "2018-03-12T19:00:56Z",
            "transactionFee": "0.000073126",
            "txnHash": "0x2db8d21bc48549c5896dc547c6ca1eca85b278fb615ea71d3fbdb3a889adcb33",
            "txnIndex": 133,
            "type": 0,
            "value": "0"
        },
        "fund_flow": [
            {
                "amount": "115",
                "from": "0x938d9d08f00a3e417ebaed8a4434fa3bbf0364b8",
                "id": 1,
                "isERC1155": false,
                "isERC721": false,
                "isReverted": false,
                "order": 1,
                "to": "0x4868e58ab5f169972dca9d9f4f562c66947d643c",
                "token": "0x80fa08fc8da9db6dac8cd05d8741a2e7f20f39da"
            }
        ],
        "token_infos": [
            {
                "address": "0x80fa08fc8da9db6dac8cd05d8741a2e7f20f39da",
                "decimals": 0
            },
            {
                "address": "0xc02aaa39b223fe8d0a0e5c4f27ead9083c756cc2",
                "decimals": 18
            },
            {
                "address": "0xeeeeeeeeeeeeeeeeeeeeeeeeeeeeeeeeeeeeeeee",
                "decimals": 18
            }
        ]
    },
    "address_label": {
        "labels": [
            {
                "address": "0x0000000000000000000000000000000000000002",
                "label": "Precompiled"
            },
            {
                "address": "0x0000000000000000000000000000000000000003",
                "label": "Precompiled"
            },
            {
                "address": "0x0000000000000000000000000000000000000004",
                "label": "Precompiled"
            },
            {
                "address": "0xeeeeeeeeeeeeeeeeeeeeeeeeeeeeeeeeeeeeeeee",
                "label": "Ether"
            },
            {
                "address": "0x80fa08fc8da9db6dac8cd05d8741a2e7f20f39da",
                "label": "KIM"
            },
            {
                "address": "0x0000000000000000000000000000000000000001",
                "label": "Precompiled"
            }
        ]
    },
    "trace": {
        "accountLabels": null,
        "dataMap": {
            "-1": {
                "invocation": {
                    "address": "0x938d9d08f00a3e417ebaed8a4434fa3bbf0364b8",
                    "callData": "",
                    "decodedMethod": null,
                    "errorInfo": "",
                    "fromAddress": "",
                    "gasUsed": 0,
                    "id": -1,
                    "methodDecoded": false,
                    "operation": "",
                    "output": "",
                    "revert": false,
                    "revertMessage": "",
                    "selector": "",
                    "status": false,
                    "value": ""
                },
                "nodeType": 0
            },
            "0": {
                "invocation": {
                    "address": "0x80fa08fc8da9db6dac8cd05d8741a2e7f20f39da",
                    "callData": "0x0000000000000000000000004868e58ab5f169972dca9d9f4f562c66947d643c0000000000000000000000000000000000000000000000000000000000000073",
                    "decodedMethod": {
                        "callParams": [
                            {
                                "name": "_to",
                                "type": "address",
                                "value": "0x4868e58ab5f169972dca9d9f4f562c66947d643c"
                            },
                            {
                                "decimalAvailable": true,
                                "name": "_value",
                                "type": "uint256",
                                "value": "115"
                            }
                        ],
                        "constructorArguments": "",
                        "name": "transfer",
                        "returnParams": [
                            {
                                "name": "",
                                "type": "bool",
                                "value": true
                            }
                        ],
                        "signature": "transfer(address,uint256)"
                    },
                    "errorInfo": "",
                    "fromAddress": "0x938d9d08f00a3e417ebaed8a4434fa3bbf0364b8",
                    "gasUsed": 36563,
                    "id": 0,
                    "methodDecoded": true,
                    "operation": "CALL",
                    "output": "0x0000000000000000000000000000000000000000000000000000000000000001",
                    "revert": false,
                    "revertMessage": "",
                    "selector": "0xa9059cbb",
                    "status": true,
                    "value": "0"
                },
                "nodeType": 0
            },
            "1": {
                "event": {
                    "contract": "0x80fa08fc8da9db6dac8cd05d8741a2e7f20f39da",
                    "decodedLog": {
                        "name": "Transfer",
                        "params": [
                            {
                                "name": "from",
                                "type": "address",
                                "value": "0x938d9d08f00a3e417ebaed8a4434fa3bbf0364b8"
                            },
                            {
                                "name": "to",
                                "type": "address",
                                "value": "0x4868e58ab5f169972dca9d9f4f562c66947d643c"
                            },
                            {
                                "decimalAvailable": true,
                                "name": "value",
                                "type": "uint256",
                                "value": "115"
                            }
                        ],
                        "signature": "Transfer(address,address,uint256)"
                    },
                    "id": 1,
                    "logData": "0x0000000000000000000000000000000000000000000000000000000000000073",
                    "logDecoded": true,
                    "operation": "EVENT",
                    "revert": false,
                    "status": true,
                    "topics": [
                        "0xddf252ad1be2c89b69c2b068fc378daa952ba7f163c4a11628f55a4df523b3ef",
                        "0x000000000000000000000000938d9d08f00a3e417ebaed8a4434fa3bbf0364b8",
                        "0x0000000000000000000000004868e58ab5f169972dca9d9f4f562c66947d643c"
                    ]
                },
                "nodeType": 1
            }
        },
        "gasFlame": [
            {
                "children": [
                    {
                        "children": [
                            {
                                "children": [],
                                "depth": 0,
                                "name": "Initial Gas",
                                "value": 22872
                            },
                            {
                                "children": [],
                                "depth": 0,
                                "name": "Executed Gas",
                                "value": 13691
                            }
                        ],
                        "depth": -1,
                        "name": "Actual Gas Used",
                        "value": 36563
                    },
                    {
                        "children": [],
                        "depth": -1,
                        "name": "Refunded Gas",
                        "value": 0
                    }
                ],
                "depth": -2,
                "name": "Total Gas",
                "value": 36563
            }
        ],
        "isConfirmed": true,
        "mainTrace": [
            {
                "children": [
                    {
                        "children": [
                            {
                                "children": [],
                                "depth": 1,
                                "id": 1,
                                "order": 1
                            }
                        ],
                        "depth": 0,
                        "id": 0,
                        "order": 0
                    }
                ],
                "depth": -1,
                "id": -1,
                "order": -1
            }
        ],
        "mainTraceNodeCount": 2,
        "parentIdMap": {
            "0": -1,
            "1": 0
        },
        "tidyTrace": [
            {
                "children": [
                    {
                        "children": [
                            {
                                "children": [],
                                "depth": 1,
                                "id": 1,
                                "order": 1
                            }
                        ],
                        "depth": 0,
                        "id": 0,
                        "order": 0
                    }
                ],
                "depth": -1,
                "id": -1,
                "order": -1
            }
        ],
        "tidyTraceNodeCount": 2
    },
    "state_change": {
        "stateChanges": [
            {
                "address": "0x80fa08fc8da9db6dac8cd05d8741a2e7f20f39da",
                "erc": "ERC-20",
                "slots": [
                    {
                        "current": "0x00000000000000000000000000000000000000000000000000000000014217cc",
                        "key": "0xbc82b81aa896d82473c1aea5f50bf854a19d4da0461ce391f8057b155ab011d3",
                        "prev": "0x000000000000000000000000000000000000000000000000000000000142183f"
                    },
                    {
                        "current": "0x000000000000000000000000000000000000000000000000000000000000007d",
                        "key": "0x8adb9039665cbf7913fc6c041896b2e8b7819e7a396f77047267e7428464e410",
                        "prev": "0x000000000000000000000000000000000000000000000000000000000000000a"
                    }
                ],
                "storageVariables": [
                    {
                        "name": "balances",
                        "type": "mapping(address => uint256)",
                        "value": {
                            "pairs": [
                                {
                                    "key": "0x4868e58ab5f169972dca9d9f4f562c66947d643c",
                                    "value": {
                                        "current": "125",
                                        "prev": "10",
                                        "typeTag": 1
                                    }
                                },
                                {
                                    "key": "0x938d9d08f00a3e417ebaed8a4434fa3bbf0364b8",
                                    "value": {
                                        "current": "21108684",
                                        "prev": "21108799",
                                        "typeTag": 1
                                    }
                                }
                            ],
                            "typeTag": 4
                        }
                    }
                ]
            }
        ]
    }
}