{
    "balance_change": {
        "balanceChanges": [
            {
                "account": "0x9c3591ae44c66c8ed1f5d3f43ad3fc21fa49f711",
                "assets": [
                    {
                        "address": "0x40395044ac3c0c57051906da938b54bd6557f212",
                        "amount": "2",
                        "iconUrl": "https://assets.blocksec.com/icon/a98fb67364adfa6e44911fd11a53704a4e9bb645c2ef634ef923214c588165e0.png",
                        "isERC1155": false,
                        "isERC721": false,
                        "sign": false,
                        "value": ""
                    }
                ]
            },
            {
                "account": "0x54fc8684fbafe9eca18c8082f179a851cc689251",
                "assets": [
                    {
                        "address": "0x40395044ac3c0c57051906da938b54bd6557f212",
                        "amount": "2",
                        "iconUrl": "https://assets.blocksec.com/icon/a98fb67364adfa6e44911fd11a53704a4e9bb645c2ef634ef923214c588165e0.png",
                        "isERC1155": false,
                        "isERC721": false,
                        "sign": true,
                        "value": ""
                    }
                ]
            }
        ]
    },
    "profile": {
        "basic_info": {
            "baseFee": "",
            "blockNumber": 6847764,
            "callData": "0xa9059cbb00000000000000000000000054fc8684fbafe9eca18c8082f179a851cc689251000000000000000000000000000000000000000000000000000000000bebc200",
            "debugEnable": true,
            "errorInfo": "",
            "eventCount": 2,
            "feeRecipient": "0x52bc44d5378309ee2abf1539bf71de1b7d7be3b5",
            "formatValue": "0",
            "gasLimit": 40521,
            "gasPrice": "4",
            "gasUsed": 25521,
            "intTxnCount": 0,
            "internalRevert": false,
            "internalRevertMessage": "",
            "isContractCreation": false,
            "isFlashloan": false,
            "maxFee": "",
            "nonce": 2,
            "overwritedBlockNumber": -1,
            "priorityFee": "",
            "receiver": "0x40395044ac3c0c57051906da938b54bd6557f212",
            "revertMessage": "",
            "sender": "0x9c3591ae44c66c8ed1f5d3f43ad3fc21fa49f711",
            "simulationEnable": true,
            "sourceTxnHash": "0x2d17e633a2534f0e156b5ebe250040228bfb80e0a2845c48cf8d88da02101944",
            "status": true,
            "timestamp": "2018-12-08T09:03:43Z",
            "transactionFee": "0.000102084",
            "txnHash": "0x2d17e633a2534f0e156b5ebe250040228bfb80e0a2845c48cf8d88da02101944",
            "txnIndex": 5,
            "type": 0,
            "value": "0"
        },
        "fund_flow": [
            {
                "amount": "2",
                "from": "0x9c3591ae44c66c8ed1f5d3f43ad3fc21fa49f711",
                "id": 1,
                "isERC1155": false,
                "isERC721": false,
                "isReverted": false,
                "order": 1,
                "to": "0x54fc8684fbafe9eca18c8082f179a851cc689251",
                "token": "0x40395044ac3c0c57051906da938b54bd6557f212"
            }
        ],
        "token_infos": [
            {
                "address": "0x40395044ac3c0c57051906da938b54bd6557f212",
                "decimals": 8
            },
            {
                "address": "0xc02aaa39b223fe8d0a0e5c4f27ead9083c756cc2",
                "decimals": 18
            },
            {
                "address": "0xeeeeeeeeeeeeeeeeeeeeeeeeeeeeeeeeeeeeeeee",
                "decimals": 18
            }
        ]
    },
    "address_label": {
        "labels": [
            {
                "address": "0x0000000000000000000000000000000000000001",
                "label": "Precompiled"
            },
            {
                "address": "0x0000000000000000000000000000000000000002",
                "label": "Precompiled"
            },
            {
                "address": "0x0000000000000000000000000000000000000003",
                "label": "Precompiled"
            },
            {
                "address": "0x0000000000000000000000000000000000000004",
                "label": "Precompiled"
            },
            {
                "address": "0xeeeeeeeeeeeeeeeeeeeeeeeeeeeeeeeeeeeeeeee",
                "label": "Ether"
            },
            {
                "address": "0x40395044ac3c0c57051906da938b54bd6557f212",
                "label": "MobileGo Token"
            }
        ]
    },
    "trace": {
        "accountLabels": null,
        "dataMap": {
            "-1": {
                "invocation": {
                    "address": "0x9c3591ae44c66c8ed1f5d3f43ad3fc21fa49f711",
                    "callData": "",
                    "decodedMethod": null,
                    "errorInfo": "",
                    "fromAddress": "",
                    "gasUsed": 0,
                    "id": -1,
                    "methodDecoded": false,
                    "operation": "",
                    "output": "",
                    "revert": false,
                    "revertMessage": "",
                    "selector": "",
                    "status": false,
                    "value": ""
                },
                "nodeType": 0
            },
            "0": {
                "invocation": {
                    "address": "0x40395044ac3c0c57051906da938b54bd6557f212",
                    "callData": "0x00000000000000000000000054fc8684fbafe9eca18c8082f179a851cc689251000000000000000000000000000000000000000000000000000000000bebc200",
                    "decodedMethod": {
                        "callParams": [
                            {
                                "name": "_to",
                                "type": "address",
                                "value": "0x54fc8684fbafe9eca18c8082f179a851cc689251"
                            },
                            {
                                "decimalAvailable": true,
                                "name": "_value",
                                "type": "uint256",
                                "value": "200,000,000"
                            }
                        ],
                        "constructorArguments": "",
                        "name": "transfer",
                        "returnParams": [
                            {
                                "name": "success",
                                "type": "bool",
                                "value": true
                            }
                        ],
                        "signature": "transfer(address,uint256)"
                    },
                    "errorInfo": "",
                    "fromAddress": "0x9c3591ae44c66c8ed1f5d3f43ad3fc21fa49f711",
                    "gasUsed": 25521,
                    "id": 0,
                    "methodDecoded": true,
                    "operation": "CALL",
                    "output": "0x0000000000000000000000000000000000000000000000000000000000000001",
                    "revert": false,
                    "revertMessage": "",
                    "selector": "0xa9059cbb",
                    "status": true,
                    "value": "0"
                },
                "nodeType": 0
            },
            "1": {
                "event": {
                    "contract": "0x40395044ac3c0c57051906da938b54bd6557f212",
                    "decodedLog": {
                        "name": "Transfer",
                        "params": [
                            {
                                "name": "from",
                                "type": "address",
                                "value": "0x9c3591ae44c66c8ed1f5d3f43ad3fc21fa49f711"
                            },
                            {
                                "name": "to",
                                "type": "address",
                                "value": "0x54fc8684fbafe9eca18c8082f179a851cc689251"
                            },
                            {
                                "decimalAvailable": true,
                                "name": "value",
                                "type": "uint256",
                                "value": "200,000,000"
                            }
                        ],
                        "signature": "Transfer(address,address,uint256)"
                    },
                    "id": 1,
                    "logData": "0x000000000000000000000000000000000000000000000000000000000bebc200",
                    "logDecoded": true,
                    "operation": "EVENT",
                    "revert": false,
                    "status": true,
                    "topics": [
                        "0xddf252ad1be2c89b69c2b068fc378daa952ba7f163c4a11628f55a4df523b3ef",
                        "0x0000000000000000000000009c3591ae44c66c8ed1f5d3f43ad3fc21fa49f711",
                        "0x00000000000000000000000054fc8684fbafe9eca18c8082f179a851cc689251"
                    ]
                },
                "nodeType": 1
            },
            "2": {
                "event": {
                    "contract": "0x40395044ac3c0c57051906da938b54bd6557f212",
                    "decodedLog": {
                        "name": "Transfer",
                        "params": [
                            {
                                "name": "from",
                                "type": "address",
                                "value": "0x9c3591ae44c66c8ed1f5d3f43ad3fc21fa49f711"
                            },
                            {
                                "name": "to",
                                "type": "address",
                                "value": "0x54fc8684fbafe9eca18c8082f179a851cc689251"
                            },
                            {
                                "name": "value",
                                "type": "uint256",
                                "value": "200,000,000"
                            },
                            {
                                "name": "data",
                                "type": "bytes",
                                "value": "0x"
                            }
                        ],
                        "signature": "Transfer(address,address,uint256,bytes)"
                    },
                    "id": 2,
                    "logData": "0x000000000000000000000000000000000000000000000000000000000bebc20000000000000000000000000000000000000000000000000000000000000000400000000000000000000000000000000000000000000000000000000000000000",
                    "logDecoded": true,
                    "operation": "EVENT",
                    "revert": false,
                    "status": true,
                    "topics": [
                        "0xe19260aff97b920c7df27010903aeb9c8d2be5d310a2c67824cf3f15396e4c16",
                        "0x0000000000000000000000009c3591ae44c66c8ed1f5d3f43ad3fc21fa49f711",
                        "0x00000000000000000000000054fc8684fbafe9eca18c8082f179a851cc689251"
                    ]
                },
                "nodeType": 1
            }
        },
        "gasFlame": [
            {
                "children": [
                    {
                        "children": [
                            {
                                "children": [],
                                "depth": 0,
                                "name": "Initial Gas",
                                "value": 23000
                            },
                            {
                                "children": [],
                                "depth": 0,
                                "name": "Executed Gas",
                                "value": 17521
                            }
                        ],
                        "depth": -1,
                        "name": "Actual Gas Used",
                        "value": 25521
                    },
                    {
                        "children": [],
                        "depth": -1,
                        "name": "Refunded Gas",
                        "value": 15000
                    }
                ],
                "depth": -2,
                "name": "Total Gas",
                "value": 40521
            }
        ],
        "isConfirmed": true,
        "mainTrace": [
            {
                "children": [
                    {
                        "children": [
                            {
                                "children": [],
                                "depth": 1,
                                "id": 1,
                                "order": 1
                            },
                            {
                                "children": [],
                                "depth": 1,
                                "id": 2,
                                "order": 2
                            }
                        ],
                        "depth": 0,
                        "id": 0,
                        "order": 0
                    }
                ],
                "depth": -1,
                "id": -1,
                "order": -1
            }
        ],
        "mainTraceNodeCount": 3,
        "parentIdMap": {
            "0": -1,
            "1": 0,
            "2": 0
        },
        "tidyTrace": [
            {
                "children": [
                    {
                        "children": [
                            {
                                "children": [],
                                "depth": 1,
                                "id": 1,
                                "order": 1
                            },
                            {
                                "children": [],
                                "depth": 1,
                                "id": 2,
                                "order": 2
                            }
                        ],
                        "depth": 0,
                        "id": 0,
                        "order": 0
                    }
                ],
                "depth": -1,
                "id": -1,
                "order": -1
            }
        ],
        "tidyTraceNodeCount": 3
    },
    "state_change": {
        "stateChanges": [
            {
                "address": "0x40395044ac3c0c57051906da938b54bd6557f212",
                "erc": "ERC-20",
                "slots": [
                    {
                        "current": "0x0000000000000000000000000000000000000000000000000000000000000000",
                        "key": "0x692cc4368e44a06298ec540d1d3f95e9063e6332612338829e01aa2b05074c05",
                        "prev": "0x000000000000000000000000000000000000000000000000000000000bebc200"
                    },
                    {
                        "current": "0x00000000000000000000000000000000000000000000000000000000caa7e200",
                        "key": "0x88dd4f11fed8a38b2f435e7bcf69121c5edb57c2c22e88a68def9c476b0d2434",
                        "prev": "0x00000000000000000000000000000000000000000000000000000000bebc2000"
                    }
                ],
                "storageVariables": []
            }
        ]
    }
}