{
    "balance_change": {
        "balanceChanges": [
            {
                "account": "0x4b7bfa9b9eda23d47ef3ceb18212ea2a33fc166b",
                "assets": [
                    {
                        "address": "0xeeeeeeeeeeeeeeeeeeeeeeeeeeeeeeeeeeeeeeee",
                        "amount": "0.24",
                        "iconUrl": "https://assets.blocksec.com/image/1663669189317-3.png",
                        "isERC1155": false,
                        "isERC721": false,
                        "sign": false,
                        "value": ""
                    },
                    {
                        "address": "0x573aaaa81154cd24e96f0cb97fd86110b8f6767f",
                        "amount": "10",
                        "iconUrl": "",
                        "isERC1155": false,
                        "isERC721": false,
                        "sign": true,
                        "value": ""
                    }
                ]
            },
            {
                "account": "0x95428ac02714244929215638f8f99e9a5a43c8ed",
                "assets": [
                    {
                        "address": "0x03cb0021808442ad5efb61197966aef72a1def96",
                        "amount": "0.222",
                        "iconUrl": "",
                        "isERC1155": false,
                        "isERC721": false,
                        "sign": true,
                        "value": ""
                    },
                    {
                        "address": "0x573aaaa81154cd24e96f0cb97fd86110b8f6767f",
                        "amount": "10",
                        "iconUrl": "",
                        "isERC1155": false,
                        "isERC721": false,
                        "sign": false,
                        "value": ""
                    }
                ]
            },
            {
                "account": "0x0000000000000000000000000000000000000000",
                "assets": [
                    {
                        "address": "0x03cb0021808442ad5efb61197966aef72a1def96",
                        "amount": "0.24",
                        "iconUrl": "",
                        "isERC1155": false,
                        "isERC721": false,
                        "sign": false,
                        "value": ""
                    }
                ]
            },
            {
                "account": "0x03cb0021808442ad5efb61197966aef72a1def96",
                "assets": [
                    {
                        "address": "0xeeeeeeeeeeeeeeeeeeeeeeeeeeeeeeeeeeeeeeee",
                        "amount": "0.24",
                        "iconUrl": "https://assets.blocksec.com/image/1663669189317-3.png",
                        "isERC1155": false,
                        "isERC721": false,
                        "sign": true,
                        "value": ""
                    }
                ]
            },
            {
                "account": "0x62a364f7cba3be8fc9dcfdde12cabec8244af381",
                "assets": [
                    {
                        "address": "0x03cb0021808442ad5efb61197966aef72a1def96",
                        "amount": "0.018",
                        "iconUrl": "",
                        "isERC1155": false,
                        "isERC721": false,
                        "sign": true,
                        "value": ""
                    }
                ]
            }
        ]
    },
    "profile": {
        "basic_info": {
            "baseFee": "",
            "blockNumber": 8922384,
            "callData": "0x40993b26000000000000000000000000000000000000000000000000000000000000000000000000000000000000000000000000000000000000000000000000000000010000000000000000000000000000000000000000000000000000000000000000",
            "debugEnable": true,
            "errorInfo": "",
            "eventCount": 5,
            "feeRecipient": "0x829bd824b016326a401d083b33d092293333a830",
            "formatValue": "0.24",
            "gasLimit": 1000000,
            "gasPrice": "12.7",
            "gasUsed": 211451,
            "intTxnCount": 5,
            "internalRevert": false,
            "internalRevertMessage": "",
            "isContractCreation": false,
            "isFlashloan": false,
            "maxFee": "",
            "nonce": 1194,
            "overwritedBlockNumber": -1,
            "priorityFee": "",
            "receiver": "0x95428ac02714244929215638f8f99e9a5a43c8ed",
            "revertMessage": "",
            "sender": "0x4b7bfa9b9eda23d47ef3ceb18212ea2a33fc166b",
            "simulationEnable": true,
            "sourceTxnHash": "0x2d0bc5cee9078ea24abb9f6fa5018a0f4dcfed14bf17d4adb358ab5e2cd47423",
            "status": true,
            "timestamp": "2019-11-12T20:19:34Z",
            "transactionFee": "0.0026854277",
            "txnHash": "0x2d0bc5cee9078ea24abb9f6fa5018a0f4dcfed14bf17d4adb358ab5e2cd47423",
            "txnIndex": 15,
            "type": 0,
            "value": "240000000000000000"
        },
        "fund_flow": [
            {
                "amount": "0.24",
                "from": "0x4b7bfa9b9eda23d47ef3ceb18212ea2a33fc166b",
                "id": 1,
                "isERC1155": false,
                "isERC721": false,
                "isReverted": false,
                "order": 1,
                "to": "0x95428ac02714244929215638f8f99e9a5a43c8ed",
                "token": "0xeeeeeeeeeeeeeeeeeeeeeeeeeeeeeeeeeeeeeeee"
            },
            {
                "amount": "0.24",
                "from": "0x95428ac02714244929215638f8f99e9a5a43c8ed",
                "id": 2,
                "isERC1155": false,
                "isERC721": false,
                "isReverted": false,
                "order": 2,
                "to": "0x03cb0021808442ad5efb61197966aef72a1def96",
                "token": "0xeeeeeeeeeeeeeeeeeeeeeeeeeeeeeeeeeeeeeeee"
            },
            {
                "amount": "0.24",
                "from": "0x0000000000000000000000000000000000000000",
                "id": 3,
                "isERC1155": false,
                "isERC721": false,
                "isReverted": false,
                "order": 3,
                "to": "0x03cb0021808442ad5efb61197966aef72a1def96",
                "token": "0x03cb0021808442ad5efb61197966aef72a1def96"
            },
            {
                "amount": "0.24",
                "from": "0x03cb0021808442ad5efb61197966aef72a1def96",
                "id": 4,
                "isERC1155": false,
                "isERC721": false,
                "isReverted": false,
                "order": 4,
                "to": "0x4b7bfa9b9eda23d47ef3ceb18212ea2a33fc166b",
                "token": "0x03cb0021808442ad5efb61197966aef72a1def96"
            },
            {
                "amount": "0.24",
                "from": "0x4b7bfa9b9eda23d47ef3ceb18212ea2a33fc166b",
                "id": 5,
                "isERC1155": false,
                "isERC721": false,
                "isReverted": false,
                "order": 5,
                "to": "0x95428ac02714244929215638f8f99e9a5a43c8ed",
                "token": "0x03cb0021808442ad5efb61197966aef72a1def96"
            },
            {
                "amount": "10",
                "from": "0x95428ac02714244929215638f8f99e9a5a43c8ed",
                "id": 6,
                "isERC1155": false,
                "isERC721": false,
                "isReverted": false,
                "order": 6,
                "to": "0x4b7bfa9b9eda23d47ef3ceb18212ea2a33fc166b",
                "token": "0x573aaaa81154cd24e96f0cb97fd86110b8f6767f"
            },
            {
                "amount": "0.018",
                "from": "0x95428ac02714244929215638f8f99e9a5a43c8ed",
                "id": 7,
                "isERC1155": false,
                "isERC721": false,
                "isReverted": false,
                "order": 7,
                "to": "0x62a364f7cba3be8fc9dcfdde12cabec8244af381",
                "token": "0x03cb0021808442ad5efb61197966aef72a1def96"
            }
        ],
        "token_infos": [
            {
                "address": "0x573aaaa81154cd24e96f0cb97fd86110b8f6767f",
                "decimals": 18
            },
            {
                "address": "0xc02aaa39b223fe8d0a0e5c4f27ead9083c756cc2",
                "decimals": 18
            },
            {
                "address": "0xeeeeeeeeeeeeeeeeeeeeeeeeeeeeeeeeeeeeeeee",
                "decimals": 18
            },
            {
                "address": "0x03cb0021808442ad5efb61197966aef72a1def96",
                "decimals": 18
            }
        ]
    },
    "address_label": {
        "labels": [
            {
                "address": "0x0000000000000000000000000000000000000001",
                "label": "Precompiled"
            },
            {
                "address": "0x0000000000000000000000000000000000000002",
                "label": "Precompiled"
            },
            {
                "address": "0x0000000000000000000000000000000000000003",
                "label": "Precompiled"
            },
            {
                "address": "0x0000000000000000000000000000000000000004",
                "label": "Precompiled"
            },
            {
                "address": "0xeeeeeeeeeeeeeeeeeeeeeeeeeeeeeeeeeeeeeeee",
                "label": "Ether"
            },
            {
                "address": "0x03cb0021808442ad5efb61197966aef72a1def96",
                "label": "coToken (coToken)"
            },
            {
                "address": "0x573aaaa81154cd24e96f0cb97fd86110b8f6767f",
                "label": "Fus"
            }
        ]
    },
    "trace": {
        "accountLabels": null,
        "dataMap": {
            "-1": {
                "invocation": {
                    "address": "0x4b7bfa9b9eda23d47ef3ceb18212ea2a33fc166b",
                    "callData": "",
                    "decodedMethod": null,
                    "errorInfo": "",
                    "fromAddress": "",
                    "gasUsed": 0,
                    "id": -1,
                    "methodDecoded": false,
                    "operation": "",
                    "output": "",
                    "revert": false,
                    "revertMessage": "",
                    "selector": "",
                    "status": false,
                    "value": ""
                },
                "nodeType": 0
            },
            "0": {
                "invocation": {
                    "address": "0x95428ac02714244929215638f8f99e9a5a43c8ed",
                    "callData": "0x000000000000000000000000000000000000000000000000000000000000000000000000000000000000000000000000000000000000000000000000000000010000000000000000000000000000000000000000000000000000000000000000",
                    "decodedMethod": {
                        "callParams": [
                            {
                                "name": "tokenId",
                                "type": "uint256",
                                "value": "0"
                            },
                            {
                                "name": "index",
                                "type": "uint256",
                                "value": "1"
                            },
                            {
                                "name": "qty",
                                "type": "uint256",
                                "value": "0"
                            }
                        ],
                        "constructorArguments": "",
                        "name": "buy",
                        "returnParams": [],
                        "signature": "buy(uint256,uint256,uint256)"
                    },
                    "errorInfo": "",
                    "fromAddress": "0x4b7bfa9b9eda23d47ef3ceb18212ea2a33fc166b",
                    "gasUsed": 211451,
                    "id": 0,
                    "methodDecoded": true,
                    "operation": "CALL",
                    "output": "",
                    "revert": false,
                    "revertMessage": "",
                    "selector": "0x40993b26",
                    "status": true,
                    "value": "0.24"
                },
                "nodeType": 0
            },
            "1": {
                "invocation": {
                    "address": "0x03cb0021808442ad5efb61197966aef72a1def96",
                    "callData": "0x0000000000000000000000004b7bfa9b9eda23d47ef3ceb18212ea2a33fc166b",
                    "decodedMethod": {
                        "callParams": [
                            {
                                "name": "_referer",
                                "type": "address",
                                "value": "0x4b7bfa9b9eda23d47ef3ceb18212ea2a33fc166b"
                            }
                        ],
                        "constructorArguments": "",
                        "name": "deposit",
                        "returnParams": [],
                        "signature": "deposit(address)"
                    },
                    "errorInfo": "",
                    "fromAddress": "0x95428ac02714244929215638f8f99e9a5a43c8ed",
                    "gasUsed": 29925,
                    "id": 1,
                    "methodDecoded": true,
                    "operation": "CALL",
                    "output": "",
                    "revert": false,
                    "revertMessage": "",
                    "selector": "0xf340fa01",
                    "status": true,
                    "value": "0.24"
                },
                "nodeType": 0
            },
            "10": {
                "event": {
                    "contract": "0x03cb0021808442ad5efb61197966aef72a1def96",
                    "decodedLog": {
                        "name": "Transfer",
                        "params": [
                            {
                                "name": "from",
                                "type": "address",
                                "value": "0x95428ac02714244929215638f8f99e9a5a43c8ed"
                            },
                            {
                                "name": "to",
                                "type": "address",
                                "value": "0x62a364f7cba3be8fc9dcfdde12cabec8244af381"
                            },
                            {
                                "decimalAvailable": true,
                                "name": "value",
                                "type": "uint256",
                                "value": "18,000,000,000,000,000"
                            }
                        ],
                        "signature": "Transfer(address,address,uint256)"
                    },
                    "id": 10,
                    "logData": "0x000000000000000000000000000000000000000000000000003ff2e795f50000",
                    "logDecoded": true,
                    "operation": "EVENT",
                    "revert": false,
                    "status": true,
                    "topics": [
                        "0xddf252ad1be2c89b69c2b068fc378daa952ba7f163c4a11628f55a4df523b3ef",
                        "0x00000000000000000000000095428ac02714244929215638f8f99e9a5a43c8ed",
                        "0x00000000000000000000000062a364f7cba3be8fc9dcfdde12cabec8244af381"
                    ]
                },
                "nodeType": 1
            },
            "2": {
                "event": {
                    "contract": "0x03cb0021808442ad5efb61197966aef72a1def96",
                    "decodedLog": {
                        "name": "Transfer",
                        "params": [
                            {
                                "name": "from",
                                "type": "address",
                                "value": "0x0000000000000000000000000000000000000000"
                            },
                            {
                                "name": "to",
                                "type": "address",
                                "value": "0x03cb0021808442ad5efb61197966aef72a1def96"
                            },
                            {
                                "decimalAvailable": true,
                                "name": "value",
                                "type": "uint256",
                                "value": "240,000,000,000,000,000"
                            }
                        ],
                        "signature": "Transfer(address,address,uint256)"
                    },
                    "id": 2,
                    "logData": "0x0000000000000000000000000000000000000000000000000354a6ba7a180000",
                    "logDecoded": true,
                    "operation": "EVENT",
                    "revert": false,
                    "status": true,
                    "topics": [
                        "0xddf252ad1be2c89b69c2b068fc378daa952ba7f163c4a11628f55a4df523b3ef",
                        "0x0000000000000000000000000000000000000000000000000000000000000000",
                        "0x00000000000000000000000003cb0021808442ad5efb61197966aef72a1def96"
                    ]
                },
                "nodeType": 1
            },
            "3": {
                "event": {
                    "contract": "0x03cb0021808442ad5efb61197966aef72a1def96",
                    "decodedLog": {
                        "name": "Transfer",
                        "params": [
                            {
                                "name": "from",
                                "type": "address",
                                "value": "0x03cb0021808442ad5efb61197966aef72a1def96"
                            },
                            {
                                "name": "to",
                                "type": "address",
                                "value": "0x4b7bfa9b9eda23d47ef3ceb18212ea2a33fc166b"
                            },
                            {
                                "decimalAvailable": true,
                                "name": "value",
                                "type": "uint256",
                                "value": "240,000,000,000,000,000"
                            }
                        ],
                        "signature": "Transfer(address,address,uint256)"
                    },
                    "id": 3,
                    "logData": "0x0000000000000000000000000000000000000000000000000354a6ba7a180000",
                    "logDecoded": true,
                    "operation": "EVENT",
                    "revert": false,
                    "status": true,
                    "topics": [
                        "0xddf252ad1be2c89b69c2b068fc378daa952ba7f163c4a11628f55a4df523b3ef",
                        "0x00000000000000000000000003cb0021808442ad5efb61197966aef72a1def96",
                        "0x0000000000000000000000004b7bfa9b9eda23d47ef3ceb18212ea2a33fc166b"
                    ]
                },
                "nodeType": 1
            },
            "4": {
                "invocation": {
                    "address": "0x03cb0021808442ad5efb61197966aef72a1def96",
                    "callData": "0x0000000000000000000000004b7bfa9b9eda23d47ef3ceb18212ea2a33fc166b0000000000000000000000000000000000000000000000000354a6ba7a180000",
                    "decodedMethod": {
                        "callParams": [
                            {
                                "name": "_to",
                                "type": "address",
                                "value": "0x4b7bfa9b9eda23d47ef3ceb18212ea2a33fc166b"
                            },
                            {
                                "name": "_value",
                                "type": "uint256",
                                "value": "240,000,000,000,000,000"
                            }
                        ],
                        "constructorArguments": "",
                        "name": "deduct",
                        "returnParams": [
                            {
                                "name": "success",
                                "type": "bool",
                                "value": true
                            }
                        ],
                        "signature": "deduct(address,uint256)"
                    },
                    "errorInfo": "",
                    "fromAddress": "0x95428ac02714244929215638f8f99e9a5a43c8ed",
                    "gasUsed": 14038,
                    "id": 4,
                    "methodDecoded": true,
                    "operation": "CALL",
                    "output": "0x0000000000000000000000000000000000000000000000000000000000000001",
                    "revert": false,
                    "revertMessage": "",
                    "selector": "0x47055321",
                    "status": true,
                    "value": "0"
                },
                "nodeType": 0
            },
            "5": {
                "event": {
                    "contract": "0x03cb0021808442ad5efb61197966aef72a1def96",
                    "decodedLog": {
                        "name": "Transfer",
                        "params": [
                            {
                                "name": "from",
                                "type": "address",
                                "value": "0x4b7bfa9b9eda23d47ef3ceb18212ea2a33fc166b"
                            },
                            {
                                "name": "to",
                                "type": "address",
                                "value": "0x95428ac02714244929215638f8f99e9a5a43c8ed"
                            },
                            {
                                "decimalAvailable": true,
                                "name": "value",
                                "type": "uint256",
                                "value": "240,000,000,000,000,000"
                            }
                        ],
                        "signature": "Transfer(address,address,uint256)"
                    },
                    "id": 5,
                    "logData": "0x0000000000000000000000000000000000000000000000000354a6ba7a180000",
                    "logDecoded": true,
                    "operation": "EVENT",
                    "revert": false,
                    "status": true,
                    "topics": [
                        "0xddf252ad1be2c89b69c2b068fc378daa952ba7f163c4a11628f55a4df523b3ef",
                        "0x0000000000000000000000004b7bfa9b9eda23d47ef3ceb18212ea2a33fc166b",
                        "0x00000000000000000000000095428ac02714244929215638f8f99e9a5a43c8ed"
                    ]
                },
                "nodeType": 1
            },
            "6": {
                "invocation": {
                    "address": "0x573aaaa81154cd24e96f0cb97fd86110b8f6767f",
                    "callData": "0x0000000000000000000000004b7bfa9b9eda23d47ef3ceb18212ea2a33fc166b0000000000000000000000000000000000000000000000008ac7230489e80000",
                    "decodedMethod": {
                        "callParams": [
                            {
                                "name": "origin",
                                "type": "address",
                                "value": "0x4b7bfa9b9eda23d47ef3ceb18212ea2a33fc166b"
                            },
                            {
                                "name": "amount",
                                "type": "uint256",
                                "value": "10,000,000,000,000,000,000"
                            }
                        ],
                        "constructorArguments": "",
                        "name": "distribute",
                        "returnParams": [],
                        "signature": "distribute(address,uint256)"
                    },
                    "errorInfo": "",
                    "fromAddress": "0x95428ac02714244929215638f8f99e9a5a43c8ed",
                    "gasUsed": 40245,
                    "id": 6,
                    "methodDecoded": true,
                    "operation": "CALL",
                    "output": "",
                    "revert": false,
                    "revertMessage": "",
                    "selector": "0xfb932108",
                    "status": true,
                    "value": "0"
                },
                "nodeType": 0
            },
            "7": {
                "event": {
                    "contract": "0x573aaaa81154cd24e96f0cb97fd86110b8f6767f",
                    "decodedLog": {
                        "name": "Transfer",
                        "params": [
                            {
                                "name": "from",
                                "type": "address",
                                "value": "0x95428ac02714244929215638f8f99e9a5a43c8ed"
                            },
                            {
                                "name": "to",
                                "type": "address",
                                "value": "0x4b7bfa9b9eda23d47ef3ceb18212ea2a33fc166b"
                            },
                            {
                                "decimalAvailable": true,
                                "name": "value",
                                "type": "uint256",
                                "value": "10,000,000,000,000,000,000"
                            }
                        ],
                        "signature": "Transfer(address,address,uint256)"
                    },
                    "id": 7,
                    "logData": "0x0000000000000000000000000000000000000000000000008ac7230489e80000",
                    "logDecoded": true,
                    "operation": "EVENT",
                    "revert": false,
                    "status": true,
                    "topics": [
                        "0xddf252ad1be2c89b69c2b068fc378daa952ba7f163c4a11628f55a4df523b3ef",
                        "0x00000000000000000000000095428ac02714244929215638f8f99e9a5a43c8ed",
                        "0x0000000000000000000000004b7bfa9b9eda23d47ef3ceb18212ea2a33fc166b"
                    ]
                },
                "nodeType": 1
            },
            "8": {
                "invocation": {
                    "address": "0x62a364f7cba3be8fc9dcfdde12cabec8244af381",
                    "callData": "0xee8540aa63ee068108232e9bce5704bd1b02ba8f94452475f1509482a261998a000000000000000000000000000000000000000000000000002aa1efb94e0000000000000000000000000000000000000000000000000000001550f7dca70000",
                    "decodedMethod": null,
                    "errorInfo": "",
                    "fromAddress": "0x95428ac02714244929215638f8f99e9a5a43c8ed",
                    "gasUsed": 33340,
                    "id": 8,
                    "methodDecoded": false,
                    "operation": "CALL",
                    "output": "",
                    "revert": false,
                    "revertMessage": "",
                    "selector": "0x7f2dc9b5",
                    "status": true,
                    "value": "0"
                },
                "nodeType": 0
            },
            "9": {
                "invocation": {
                    "address": "0x03cb0021808442ad5efb61197966aef72a1def96",
                    "callData": "0x00000000000000000000000095428ac02714244929215638f8f99e9a5a43c8ed000000000000000000000000000000000000000000000000003ff2e795f50000",
                    "decodedMethod": {
                        "callParams": [
                            {
                                "name": "_to",
                                "type": "address",
                                "value": "0x95428ac02714244929215638f8f99e9a5a43c8ed"
                            },
                            {
                                "name": "_value",
                                "type": "uint256",
                                "value": "18,000,000,000,000,000"
                            }
                        ],
                        "constructorArguments": "",
                        "name": "deduct",
                        "returnParams": [
                            {
                                "name": "success",
                                "type": "bool",
                                "value": true
                            }
                        ],
                        "signature": "deduct(address,uint256)"
                    },
                    "errorInfo": "",
                    "fromAddress": "0x62a364f7cba3be8fc9dcfdde12cabec8244af381",
                    "gasUsed": 14038,
                    "id": 9,
                    "methodDecoded": true,
                    "operation": "CALL",
                    "output": "0x0000000000000000000000000000000000000000000000000000000000000001",
                    "revert": false,
                    "revertMessage": "",
                    "selector": "0x47055321",
                    "status": true,
                    "value": "0"
                },
                "nodeType": 0
            }
        },
        "gasFlame": [
            {
                "children": [
                    {
                        "children": [
                            {
                                "children": [],
                                "depth": 0,
                                "name": "Initial Gas",
                                "value": 21720
                            },
                            {
                                "children": [
                                    {
                                        "children": [],
                                        "depth": 1,
                                        "name": "deposit",
                                        "value": 29925
                                    },
                                    {
                                        "children": [],
                                        "depth": 1,
                                        "name": "deduct",
                                        "value": 14038
                                    },
                                    {
                                        "children": [],
                                        "depth": 1,
                                        "name": "distribute",
                                        "value": 40245
                                    },
                                    {
                                        "children": [
                                            {
                                                "children": [],
                                                "depth": 2,
                                                "name": "deduct",
                                                "value": 14038
                                            }
                                        ],
                                        "depth": 1,
                                        "name": "0x7f2dc9b5",
                                        "value": 33340
                                    }
                                ],
                                "depth": 0,
                                "name": "Executed Gas",
                                "value": 204731
                            }
                        ],
                        "depth": -1,
                        "name": "Actual Gas Used",
                        "value": 211451
                    },
                    {
                        "children": [],
                        "depth": -1,
                        "name": "Refunded Gas",
                        "value": 15000
                    }
                ],
                "depth": -2,
                "name": "Total Gas",
                "value": 226451
            }
        ],
        "isConfirmed": true,
        "mainTrace": [
            {
                "children": [
                    {
                        "children": [
                            {
                                "children": [
                                    {
                                        "children": [],
                                        "depth": 2,
                                        "id": 2,
                                        "order": 2
                                    },
                                    {
                                        "children": [],
                                        "depth": 2,
                                        "id": 3,
                                        "order": 3
                                    }
                                ],
                                "depth": 1,
                                "id": 1,
                                "order": 1
                            },
                            {
                                "children": [
                                    {
                                        "children": [],
                                        "depth": 2,
                                        "id": 5,
                                        "order": 5
                                    }
                                ],
                                "depth": 1,
                                "id": 4,
                                "order": 4
                            },
                            {
                                "children": [
                                    {
                                        "children": [],
                                        "depth": 2,
                                        "id": 7,
                                        "order": 7
                                    }
                                ],
                                "depth": 1,
                                "id": 6,
                                "order": 6
                            },
                            {
                                "children": [
                                    {
                                        "children": [
                                            {
                                                "children": [],
                                                "depth": 3,
                                                "id": 10,
                                                "order": 10
                                            }
                                        ],
                                        "depth": 2,
                                        "id": 9,
                                        "order": 9
                                    }
                                ],
                                "depth": 1,
                                "id": 8,
                                "order": 8
                            }
                        ],
                        "depth": 0,
                        "id": 0,
                        "order": 0
                    }
                ],
                "depth": -1,
                "id": -1,
                "order": -1
            }
        ],
        "mainTraceNodeCount": 11,
        "parentIdMap": {
            "0": -1,
            "1": 0,
            "10": 9,
            "2": 1,
            "3": 1,
            "4": 0,
            "5": 4,
            "6": 0,
            "7": 6,
            "8": 0,
            "9": 8
        },
        "tidyTrace": [
            {
                "children": [
                    {
                        "children": [
                            {
                                "children": [
                                    {
                                        "children": [],
                                        "depth": 2,
                                        "id": 2,
                                        "order": 2
                                    },
                                    {
                                        "children": [],
                                        "depth": 2,
                                        "id": 3,
                                        "order": 3
                                    }
                                ],
                                "depth": 1,
                                "id": 1,
                                "order": 1
                            },
                            {
                                "children": [
                                    {
                                        "children": [],
                                        "depth": 2,
                                        "id": 5,
                                        "order": 5
                                    }
                                ],
                                "depth": 1,
                                "id": 4,
                                "order": 4
                            },
                            {
                                "children": [
                                    {
                                        "children": [],
                                        "depth": 2,
                                        "id": 7,
                                        "order": 7
                                    }
                                ],
                                "depth": 1,
                                "id": 6,
                                "order": 6
                            },
                            {
                                "children": [
                                    {
                                        "children": [
                                            {
                                                "children": [],
                                                "depth": 3,
                                                "id": 10,
                                                "order": 10
                                            }
                                        ],
                                        "depth": 2,
                                        "id": 9,
                                        "order": 9
                                    }
                                ],
                                "depth": 1,
                                "id": 8,
                                "order": 8
                            }
                        ],
                        "depth": 0,
                        "id": 0,
                        "order": 0
                    }
                ],
                "depth": -1,
                "id": -1,
                "order": -1
            }
        ],
        "tidyTraceNodeCount": 11
    },
    "state_change": {
        "stateChanges": [
            {
                "address": "0x03cb0021808442ad5efb61197966aef72a1def96",
                "erc": "",
                "slots": [
                    {
                        "current": "0x000000000000000000000000000000000000000000000137044bcb068ca70274",
                        "key": "0x0000000000000000000000000000000000000000000000000000000000000005",
                        "prev": "0x00000000000000000000000000000000000000000000013700f7244c128f0274"
                    },
                    {
                        "current": "0x000000000000000000000000000000000000000000000014f478ab83fb8b4000",
                        "key": "0x754e94aaa97d8d080a2d08b60002c4a6ec841c20a497bc059f09ba2129ec4154",
                        "prev": "0x000000000000000000000000000000000000000000000014f163f7b117684000"
                    },
                    {
                        "current": "0x0000000000000000000000000000000000000000000000229575e1049e1d4000",
                        "key": "0x2ae1781e2b15e18335d21665ed35f55f4489bb9a28dc7e5c8dd1f7abd6dbaf1c",
                        "prev": "0x0000000000000000000000000000000000000000000000229535ee1d08284000"
                    }
                ],
                "storageVariables": []
            },
            {
                "address": "0x573aaaa81154cd24e96f0cb97fd86110b8f6767f",
                "erc": "",
                "slots": [
                    {
                        "current": "0x0000000000000000000000000000000000000000001ef6b311e587a1f7b00000",
                        "key": "0x754e94aaa97d8d080a2d08b60002c4a6ec841c20a497bc059f09ba2129ec4154",
                        "prev": "0x0000000000000000000000000000000000000000001ef6b39cacaaa681980000"
                    },
                    {
                        "current": "0x000000000000000000000000000000000000000000000031df9095a18f600000",
                        "key": "0xa5d51b64bf3ad6d1923b5e6403629cf0d3fcbe67359126de20efcd00dbe15afa",
                        "prev": "0x00000000000000000000000000000000000000000000003154c9729d05780000"
                    },
                    {
                        "current": "0x000000000000000000000000000000000000000000189477f33d4363d6b40000",
                        "key": "0x185c37e5b2de164df48393b8be662c4afcda9217c4141b42059d0d9f98854c90",
                        "prev": "0x0000000000000000000000000000000000000000001894776876205f4ccc0000"
                    },
                    {
                        "current": "0x000000000000000000000000000000000000000000021fa1466a7d7f30500001",
                        "key": "0x8aab081715cd433e4be6bd8c7e3de182fbd3ac1f4935500c915f78aebdf8616b",
                        "prev": "0x000000000000000000000000000000000000000000021fa0bba35a7aa6680001"
                    }
                ],
                "storageVariables": []
            },
            {
                "address": "0x62a364f7cba3be8fc9dcfdde12cabec8244af381",
                "erc": "",
                "slots": [
                    {
                        "current": "0x0000000000000000000000000000000000000000000000000cd2b51abc760000",
                        "key": "0x7baca519674f0b3a65e6e027f3c1effac743a8f6f81c5751a6581d64f95aa23e",
                        "prev": "0x0000000000000000000000000000000000000000000000000ca8132b03280000"
                    },
                    {
                        "current": "0x00000000000000000000000000000000000000000000000007d3bb0305520000",
                        "key": "0xc1ff97a81d3b543eae29f6716234ed1917dcfc9ee622745fa04738c1288647c3",
                        "prev": "0x00000000000000000000000000000000000000000000000007a919134c040000"
                    },
                    {
                        "current": "0x00000000000000000000000000000000000000000000000003e9dd8182a90000",
                        "key": "0x5ff454eaf0a561e5ef0810bbebff2ee40c8292d784141d0568366ac1a426c02e",
                        "prev": "0x00000000000000000000000000000000000000000000000003d48c89a6020000"
                    }
                ],
                "storageVariables": []
            },
            {
                "address": "0x95428ac02714244929215638f8f99e9a5a43c8ed",
                "erc": "",
                "slots": [
                    {
                        "current": "0x00000000000000000000004200000068000014cd98fbd87a2e217047dfd49647",
                        "key": "0x0000000000000000000000000000000000000000000000000000000000000046",
                        "prev": "0x00000000000000000000004200000068100014fd05c2add29054b4c0bc1b3768"
                    },
                    {
                        "current": "0x4b7bfa9b9eda23d47ef3ceb18212ea2a33fc166b000000005dcb13d600882510",
                        "key": "0x0000000000000000000000000000000000000000000000000000000000000142",
                        "prev": "0x40bf56741b0132ca38df2d00cea6b868db0c82cb000000005dcb0d2b0088249c"
                    },
                    {
                        "current": "0x00000000000000000000000000000000000000000000000100762616b9380000",
                        "key": "0xdeb7bc7aa3f8bad067ce14e71b8d543efe820e48d2a15bb906dde83aa9a2fb88",
                        "prev": "0x000000000000000000000000000000000000000000000000fd217f5c3f200000"
                    },
                    {
                        "current": "0x0000000000000000000000000000000000000000000000000fae910354310000",
                        "key": "0x562c0fa7c3b5d28cc96e8ecc1bc4f017354420fe9eaadbe11f0d93dfe69664ba",
                        "prev": "0x0000000000000000000000000000000000000000000000000f8b0a10e4700000"
                    },
                    {
                        "current": "0x0000000000000000000000000000000000000000000000000fae910354310000",
                        "key": "0x0000000000000000000000000000000000000000000000000000000000000006",
                        "prev": "0x0000000000000000000000000000000000000000000000000f8b0a10e4700000"
                    },
                    {
                        "current": "0x00000000000000000000000000000000000000000000000096729d1cc9884000",
                        "key": "0x0e4937f5521b96087e9fbff225d04dbf42c45016591c6e09c55cdf7631350ae2",
                        "prev": "0x000000000000000000000000000000000000000000000000966b821f7ffb4000"
                    },
                    {
                        "current": "0x0000008700000086000000840000007a0000006f000000680000006800000050",
                        "key": "0x0000000000000000000000000000000000000000000000000000000000000233",
                        "prev": "0x0000008600000087000000850000007d00000071000000680000006800000050"
                    },
                    {
                        "current": "0x00000000000000000000000000000000000000000000000000000000000008c0",
                        "key": "0x0000000000000000000000000000000000000000000000000000000000000024",
                        "prev": "0x00000000000000000000000000000000000000000000000000000000000008ac"
                    },
                    {
                        "current": "0x000000000000000000000000000000000000000000000000039bb49f599a0000",
                        "key": "0x11462db35d713427ca907ebc7d8c3b29dc45521098f38948bb2633730055edc4",
                        "prev": "0x0000000000000000000000000000000000000000000000000000000000000000"
                    },
                    {
                        "current": "0x000000000000000000000000000000000000015d94000000005c9a58a9080420",
                        "key": "0x0000000000000000000000000000000000000000000000000000000000000220",
                        "prev": "0x000000000000000000000000000000000000015d93000000005c9a58a9080420"
                    }
                ],
                "storageVariables": []
            }
        ]
    }
}