{
    "balance_change": {
        "balanceChanges": [
            {
                "account": "0x67c265d0d48d79ea44b403e6f6f7a2ca8f5410d8",
                "assets": [
                    {
                        "address": "0xc77b230f31b517f1ef362e59c173c2be6540b5e8",
                        "amount": "662,967",
                        "iconUrl": "",
                        "isERC1155": false,
                        "isERC721": false,
                        "sign": false,
                        "value": ""
                    }
                ]
            },
            {
                "account": "0x6748f50f686bfbca6fe8ad62b22228b87f31ff2b",
                "assets": [
                    {
                        "address": "0xc77b230f31b517f1ef362e59c173c2be6540b5e8",
                        "amount": "662,967",
                        "iconUrl": "",
                        "isERC1155": false,
                        "isERC721": false,
                        "sign": true,
                        "value": ""
                    }
                ]
            }
        ]
    },
    "profile": {
        "basic_info": {
            "baseFee": "",
            "blockNumber": 8525189,
            "callData": "0xa9059cbb0000000000000000000000006748f50f686bfbca6fe8ad62b22228b87f31ff2b000000000000000000000000000000000000000000008c6383597e4afc7c0000",
            "debugEnable": true,
            "errorInfo": "",
            "eventCount": 1,
            "feeRecipient": "0x09ab1303d3ccaf5f018cd511146b07a240c70294",
            "formatValue": "0",
            "gasLimit": 90000,
            "gasPrice": "9",
            "gasUsed": 22509,
            "intTxnCount": 0,
            "internalRevert": false,
            "internalRevertMessage": "",
            "isContractCreation": false,
            "isFlashloan": false,
            "maxFee": "",
            "nonce": 30,
            "overwritedBlockNumber": -1,
            "priorityFee": "",
            "receiver": "0xc77b230f31b517f1ef362e59c173c2be6540b5e8",
            "revertMessage": "",
            "sender": "0x67c265d0d48d79ea44b403e6f6f7a2ca8f5410d8",
            "simulationEnable": true,
            "sourceTxnHash": "0x2d6cd5789f300e14f916f91dec2931e29f73c06c4173b824d508f9d56973ac0d",
            "status": true,
            "timestamp": "2019-09-11T00:06:04Z",
            "transactionFee": "0.000202581",
            "txnHash": "0x2d6cd5789f300e14f916f91dec2931e29f73c06c4173b824d508f9d56973ac0d",
            "txnIndex": 148,
            "type": 0,
            "value": "0"
        },
        "fund_flow": [
            {
                "amount": "662,967",
                "from": "0x67c265d0d48d79ea44b403e6f6f7a2ca8f5410d8",
                "id": 1,
                "isERC1155": false,
                "isERC721": false,
                "isReverted": false,
                "order": 1,
                "to": "0x6748f50f686bfbca6fe8ad62b22228b87f31ff2b",
                "token": "0xc77b230f31b517f1ef362e59c173c2be6540b5e8"
            }
        ],
        "token_infos": [
            {
                "address": "0xc02aaa39b223fe8d0a0e5c4f27ead9083c756cc2",
                "decimals": 18
            },
            {
                "address": "0xc77b230f31b517f1ef362e59c173c2be6540b5e8",
                "decimals": 18
            },
            {
                "address": "0xeeeeeeeeeeeeeeeeeeeeeeeeeeeeeeeeeeeeeeee",
                "decimals": 18
            }
        ]
    },
    "address_label": {
        "labels": [
            {
                "address": "0xeeeeeeeeeeeeeeeeeeeeeeeeeeeeeeeeeeeeeeee",
                "label": "Ether"
            },
            {
                "address": "0x67c265d0d48d79ea44b403e6f6f7a2ca8f5410d8",
                "label": "HUOBI"
            },
            {
                "address": "0x6748f50f686bfbca6fe8ad62b22228b87f31ff2b",
                "label": "HTX 2"
            },
            {
                "address": "0xc77b230f31b517f1ef362e59c173c2be6540b5e8",
                "label": "Vidy Coin"
            },
            {
                "address": "0x0000000000000000000000000000000000000001",
                "label": "Precompiled"
            },
            {
                "address": "0x0000000000000000000000000000000000000002",
                "label": "Precompiled"
            },
            {
                "address": "0x0000000000000000000000000000000000000003",
                "label": "Precompiled"
            },
            {
                "address": "0x0000000000000000000000000000000000000004",
                "label": "Precompiled"
            }
        ]
    },
    "trace": {
        "accountLabels": null,
        "dataMap": {
            "-1": {
                "invocation": {
                    "address": "0x67c265d0d48d79ea44b403e6f6f7a2ca8f5410d8",
                    "callData": "",
                    "decodedMethod": null,
                    "errorInfo": "",
                    "fromAddress": "",
                    "gasUsed": 0,
                    "id": -1,
                    "methodDecoded": false,
                    "operation": "",
                    "output": "",
                    "revert": false,
                    "revertMessage": "",
                    "selector": "",
                    "status": false,
                    "value": ""
                },
                "nodeType": 0
            },
            "0": {
                "invocation": {
                    "address": "0xc77b230f31b517f1ef362e59c173c2be6540b5e8",
                    "callData": "0x0000000000000000000000006748f50f686bfbca6fe8ad62b22228b87f31ff2b000000000000000000000000000000000000000000008c6383597e4afc7c0000",
                    "decodedMethod": {
                        "callParams": [
                            {
                                "name": "_to",
                                "type": "address",
                                "value": "0x6748f50f686bfbca6fe8ad62b22228b87f31ff2b"
                            },
                            {
                                "decimalAvailable": true,
                                "name": "_value",
                                "type": "uint256",
                                "value": "662,967,000,000,000,000,000,000"
                            }
                        ],
                        "constructorArguments": "",
                        "name": "transfer",
                        "returnParams": [
                            {
                                "name": "",
                                "type": "bool",
                                "value": true
                            }
                        ],
                        "signature": "transfer(address,uint256)"
                    },
                    "errorInfo": "",
                    "fromAddress": "0x67c265d0d48d79ea44b403e6f6f7a2ca8f5410d8",
                    "gasUsed": 22509,
                    "id": 0,
                    "methodDecoded": true,
                    "operation": "CALL",
                    "output": "0x0000000000000000000000000000000000000000000000000000000000000001",
                    "revert": false,
                    "revertMessage": "",
                    "selector": "0xa9059cbb",
                    "status": true,
                    "value": "0"
                },
                "nodeType": 0
            },
            "1": {
                "event": {
                    "contract": "0xc77b230f31b517f1ef362e59c173c2be6540b5e8",
                    "decodedLog": {
                        "name": "Transfer",
                        "params": [
                            {
                                "name": "from",
                                "type": "address",
                                "value": "0x67c265d0d48d79ea44b403e6f6f7a2ca8f5410d8"
                            },
                            {
                                "name": "to",
                                "type": "address",
                                "value": "0x6748f50f686bfbca6fe8ad62b22228b87f31ff2b"
                            },
                            {
                                "decimalAvailable": true,
                                "name": "value",
                                "type": "uint256",
                                "value": "662,967,000,000,000,000,000,000"
                            }
                        ],
                        "signature": "Transfer(address,address,uint256)"
                    },
                    "id": 1,
                    "logData": "0x000000000000000000000000000000000000000000008c6383597e4afc7c0000",
                    "logDecoded": true,
                    "operation": "EVENT",
                    "revert": false,
                    "status": true,
                    "topics": [
                        "0xddf252ad1be2c89b69c2b068fc378daa952ba7f163c4a11628f55a4df523b3ef",
                        "0x00000000000000000000000067c265d0d48d79ea44b403e6f6f7a2ca8f5410d8",
                        "0x0000000000000000000000006748f50f686bfbca6fe8ad62b22228b87f31ff2b"
                    ]
                },
                "nodeType": 1
            }
        },
        "gasFlame": [
            {
                "children": [
                    {
                        "children": [
                            {
                                "children": [],
                                "depth": 0,
                                "name": "Initial Gas",
                                "value": 23320
                            },
                            {
                                "children": [],
                                "depth": 0,
                                "name": "Executed Gas",
                                "value": 14189
                            }
                        ],
                        "depth": -1,
                        "name": "Actual Gas Used",
                        "value": 22509
                    },
                    {
                        "children": [],
                        "depth": -1,
                        "name": "Refunded Gas",
                        "value": 15000
                    }
                ],
                "depth": -2,
                "name": "Total Gas",
                "value": 37509
            }
        ],
        "isConfirmed": true,
        "mainTrace": [
            {
                "children": [
                    {
                        "children": [
                            {
                                "children": [],
                                "depth": 1,
                                "id": 1,
                                "order": 1
                            }
                        ],
                        "depth": 0,
                        "id": 0,
                        "order": 0
                    }
                ],
                "depth": -1,
                "id": -1,
                "order": -1
            }
        ],
        "mainTraceNodeCount": 2,
        "parentIdMap": {
            "0": -1,
            "1": 0
        },
        "tidyTrace": [
            {
                "children": [
                    {
                        "children": [
                            {
                                "children": [],
                                "depth": 1,
                                "id": 1,
                                "order": 1
                            }
                        ],
                        "depth": 0,
                        "id": 0,
                        "order": 0
                    }
                ],
                "depth": -1,
                "id": -1,
                "order": -1
            }
        ],
        "tidyTraceNodeCount": 2
    },
    "state_change": {
        "stateChanges": [
            {
                "address": "0xc77b230f31b517f1ef362e59c173c2be6540b5e8",
                "erc": "ERC-20",
                "slots": [
                    {
                        "current": "0x0000000000000000000000000000000000000000000000000000000000000000",
                        "key": "0xa6c695f9b8becd2f3c18209787fc2feee05a077dd259fa97a005e1ea1e56849c",
                        "prev": "0x000000000000000000000000000000000000000000008c6383597e4afc7c0000"
                    },
                    {
                        "current": "0x00000000000000000000000000000000000000000109261febba0bc56f842c00",
                        "key": "0x046ea4d5b23a798a60e46f3055c455ab6b3faa745a254808203ca161f03d7ae3",
                        "prev": "0x0000000000000000000000000000000000000000010899bc68608d7a73082c00"
                    }
                ],
                "storageVariables": [
                    {
                        "name": "balances",
                        "type": "mapping(address => uint256)",
                        "value": {
                            "pairs": [
                                {
                                    "key": "0x6748f50f686bfbca6fe8ad62b22228b87f31ff2b",
                                    "value": {
                                        "current": "320545380959193950000000000",
                                        "prev": "319882413959193950000000000",
                                        "typeTag": 1
                                    }
                                },
                                {
                                    "key": "0x67c265d0d48d79ea44b403e6f6f7a2ca8f5410d8",
                                    "value": {
                                        "current": "0",
                                        "prev": "662967000000000000000000",
                                        "typeTag": 1
                                    }
                                }
                            ],
                            "typeTag": 4
                        }
                    }
                ]
            }
        ]
    }
}