{
    "balance_change": {
        "balanceChanges": []
    },
    "profile": {
        "basic_info": {
            "baseFee": "0.65292749",
            "blockNumber": 20610659,
            "callData": "0xa94e78ef0000000000000000000000000000000000000000000000000000000000000020000000000000000000000000eeeeeeeeeeeeeeeeeeeeeeeeeeeeeeeeeeeeeeee000000000000000000000000000000000000000000000000016345785d8a00000000000000000000000000000000000000000000000000c0ed85b688122764f20000000000000000000000000000000000000000000000c11ef6164c3e3f85980000000000000000000000009e2a65a9aea1556ba741b6c35cd55f3f7aadbbb000000000000000000000000000000000000000000000000000000000000001600000000000000000000000000000000000000000000000000000000000000000010000000000000000000000000000000000000000000000000000000000400000000000000000000000000000000000000000000000000000000000000004600000000000000000000000000000000000000000000000000000000066cc13edfdb7c34b7b0e44d0a39cf36a834ec8d50000000000000000000000000000000000000000000000000000000000000000000000000000000000000000000000010000000000000000000000000000000000000000000000000000000000000020000000000000000000000000b369daca21ee035312176eb8cf9d88ce97e0aa9500000000000000000000000000000000000000000000000000000000000000000000000000000000000000000000000000000000000000000000000000000060000000000000000000000000000000000000000000000000000000000000000100000000000000000000000000000000000000000000000000000000000000200000000000000000000000009be264469ef954c139da4a45cf76cbcc5e3a6a73000000000000000000000000000000000000000000000000000000000000271000000000000000000000000000000000000000000000000000000000000000000000000000000000000000000000000000000000000000000000000000000080000000000000000000000000000000000000000000000000000000000000000100000000000000000000000000000000000000000000000000000000000000200000000000000000000000000000000000000000000000000000000000000004000000000000000000000000f9234cb08edb93c0d4a4d4c70cc3ffd070e78e07000000000000000000000000000000000000000000000000000000000000271000000000000000000000000000000000000000000000000000000000000000a0000000000000000000000000000000000000000000000000000000000000000000000000000000000000000000000000000000000000000000000000000000a00000000000000000000000000000000000000000000000000000000000000020000000000000000000000000c02aaa39b223fe8d0a0e5c4f27ead9083c756cc200000000000000000000000000000000000000000000000000000000000000400000000000000000000000000000000000000000000000000000000000000001000000000000000000004de510ef7f8833ea986109abc6ef2ac379bf4baf28010000000000000000000000000000000000000000000000000000000000000000",
            "debugEnable": true,
            "errorInfo": "execution reverted",
            "eventCount": 6,
            "feeRecipient": "0x4838b106fce9647bdf1e7877bf73ce8b0bad5f97",
            "formatValue": "0.1",
            "gasLimit": 600000,
            "gasPrice": "0.66292749",
            "gasUsed": 213228,
            "intTxnCount": 11,
            "internalRevert": true,
            "internalRevertMessage": "",
            "isContractCreation": false,
            "isFlashloan": false,
            "maxFee": "1.47938926",
            "nonce": 994,
            "overwritedBlockNumber": -1,
            "priorityFee": "0.01",
            "receiver": "0xdef171fe48cf0115b1d80b88dc8eab59176fee57",
            "revertMessage": "0Received amount of tokens are less then expected",
            "sender": "0x9e2a65a9aea1556ba741b6c35cd55f3f7aadbbb0",
            "simulationEnable": true,
            "sourceTxnHash": "0x2edcbd5ba3880f8ff45ffb45c5d09ecdc18ee0ae82c8c1e6644e6c062050ff12",
            "status": false,
            "timestamp": "2024-08-26T05:24:47Z",
            "transactionFee": "0.00014135470283772",
            "txnHash": "0x2edcbd5ba3880f8ff45ffb45c5d09ecdc18ee0ae82c8c1e6644e6c062050ff12",
            "txnIndex": 215,
            "type": 2,
            "value": "100000000000000000"
        },
        "fund_flow": [],
        "token_infos": [
            {
                "address": "0xc02aaa39b223fe8d0a0e5c4f27ead9083c756cc2",
                "decimals": 18
            },
            {
                "address": "0xeeeeeeeeeeeeeeeeeeeeeeeeeeeeeeeeeeeeeeee",
                "decimals": 18
            },
            {
                "address": "0xb369daca21ee035312176eb8cf9d88ce97e0aa95",
                "decimals": 18
            }
        ]
    },
    "address_label": {
        "labels": [
            {
                "address": "0xbd7b550d2e7571383d84acf597a00d341e5c406e",
                "label": "MultiPath"
            },
            {
                "address": "0xc02aaa39b223fe8d0a0e5c4f27ead9083c756cc2",
                "label": "Wrapped Ether (WETH)"
            },
            {
                "address": "0xb369daca21ee035312176eb8cf9d88ce97e0aa95",
                "label": "Skol: SKOL Token"
            },
            {
                "address": "0x10ef7f8833ea986109abc6ef2ac379bf4baf2801",
                "label": "Uniswap V2: SKOL 2"
            },
            {
                "address": "0x0000000000000000000000000000000000000000",
                "label": "Null Address"
            },
            {
                "address": "0xdef171fe48cf0115b1d80b88dc8eab59176fee57",
                "label": "Paraswap v5: Augustus Swapper Mainnet"
            },
            {
                "address": "0xeeeeeeeeeeeeeeeeeeeeeeeeeeeeeeeeeeeeeeee",
                "label": "Ether"
            },
            {
                "address": "0x9be264469ef954c139da4a45cf76cbcc5e3a6a73",
                "label": "Adapter01"
            },
            {
                "address": "0x0000000000000000000000000000000000000004",
                "label": "Precompiled"
            },
            {
                "address": "0x0000000000000000000000000000000000000003",
                "label": "Precompiled"
            },
            {
                "address": "0x0000000000000000000000000000000000000001",
                "label": "Precompiled"
            },
            {
                "address": "0x0000000000000000000000000000000000000002",
                "label": "Precompiled"
            }
        ]
    },
    "trace": {
        "accountLabels": null,
        "dataMap": {
            "-1": {
                "invocation": {
                    "address": "0x9e2a65a9aea1556ba741b6c35cd55f3f7aadbbb0",
                    "callData": "",
                    "decodedMethod": null,
                    "errorInfo": "",
                    "fromAddress": "",
                    "gasUsed": 0,
                    "id": -1,
                    "methodDecoded": false,
                    "operation": "",
                    "output": "",
                    "revert": false,
                    "revertMessage": "",
                    "selector": "",
                    "status": false,
                    "value": ""
                },
                "nodeType": 0
            },
            "0": {
                "invocation": {
                    "address": "0xdef171fe48cf0115b1d80b88dc8eab59176fee57",
                    "callData": "0x0000000000000000000000000000000000000000000000000000000000000020000000000000000000000000eeeeeeeeeeeeeeeeeeeeeeeeeeeeeeeeeeeeeeee000000000000000000000000000000000000000000000000016345785d8a00000000000000000000000000000000000000000000000000c0ed85b688122764f20000000000000000000000000000000000000000000000c11ef6164c3e3f85980000000000000000000000009e2a65a9aea1556ba741b6c35cd55f3f7aadbbb000000000000000000000000000000000000000000000000000000000000001600000000000000000000000000000000000000000000000000000000000000000010000000000000000000000000000000000000000000000000000000000400000000000000000000000000000000000000000000000000000000000000004600000000000000000000000000000000000000000000000000000000066cc13edfdb7c34b7b0e44d0a39cf36a834ec8d50000000000000000000000000000000000000000000000000000000000000000000000000000000000000000000000010000000000000000000000000000000000000000000000000000000000000020000000000000000000000000b369daca21ee035312176eb8cf9d88ce97e0aa9500000000000000000000000000000000000000000000000000000000000000000000000000000000000000000000000000000000000000000000000000000060000000000000000000000000000000000000000000000000000000000000000100000000000000000000000000000000000000000000000000000000000000200000000000000000000000009be264469ef954c139da4a45cf76cbcc5e3a6a73000000000000000000000000000000000000000000000000000000000000271000000000000000000000000000000000000000000000000000000000000000000000000000000000000000000000000000000000000000000000000000000080000000000000000000000000000000000000000000000000000000000000000100000000000000000000000000000000000000000000000000000000000000200000000000000000000000000000000000000000000000000000000000000004000000000000000000000000f9234cb08edb93c0d4a4d4c70cc3ffd070e78e07000000000000000000000000000000000000000000000000000000000000271000000000000000000000000000000000000000000000000000000000000000a0000000000000000000000000000000000000000000000000000000000000000000000000000000000000000000000000000000000000000000000000000000a00000000000000000000000000000000000000000000000000000000000000020000000000000000000000000c02aaa39b223fe8d0a0e5c4f27ead9083c756cc200000000000000000000000000000000000000000000000000000000000000400000000000000000000000000000000000000000000000000000000000000001000000000000000000004de510ef7f8833ea986109abc6ef2ac379bf4baf28010000000000000000000000000000000000000000000000000000000000000000",
                    "decodedMethod": {
                        "callParams": [
                            {
                                "name": "data",
                                "type": "(address,uint256,uint256,uint256,address,(address,uint256,(address,uint256,uint256,(uint256,address,uint256,bytes,uint256)[])[])[],address,uint256,bytes,uint256,bytes16)",
                                "value": [
                                    {
                                        "name": "fromToken",
                                        "type": "address",
                                        "value": "0xeeeeeeeeeeeeeeeeeeeeeeeeeeeeeeeeeeeeeeee"
                                    },
                                    {
                                        "name": "fromAmount",
                                        "type": "uint256",
                                        "value": "100,000,000,000,000,000"
                                    },
                                    {
                                        "name": "toAmount",
                                        "type": "uint256",
                                        "value": "3,558,890,148,806,661,727,474"
                                    },
                                    {
                                        "name": "expectedAmount",
                                        "type": "uint256",
                                        "value": "3,562,452,601,408,069,797,272"
                                    },
                                    {
                                        "name": "beneficiary",
                                        "type": "address",
                                        "value": "0x9e2a65a9aea1556ba741b6c35cd55f3f7aadbbb0"
                                    },
                                    {
                                        "name": "path",
                                        "type": "(address,uint256,(address,uint256,uint256,(uint256,address,uint256,bytes,uint256)[])[])[]",
                                        "value": [
                                            [
                                                {
                                                    "name": "to",
                                                    "type": "address",
                                                    "value": "0xb369daca21ee035312176eb8cf9d88ce97e0aa95"
                                                },
                                                {
                                                    "name": "totalNetworkFee",
                                                    "type": "uint256",
                                                    "value": "0"
                                                },
                                                {
                                                    "name": "adapters",
                                                    "type": "(address,uint256,uint256,(uint256,address,uint256,bytes,uint256)[])[]",
                                                    "value": [
                                                        [
                                                            {
                                                                "name": "adapter",
                                                                "type": "address",
                                                                "value": "0x9be264469ef954c139da4a45cf76cbcc5e3a6a73"
                                                            },
                                                            {
                                                                "name": "percent",
                                                                "type": "uint256",
                                                                "value": "10,000"
                                                            },
                                                            {
                                                                "name": "networkFee",
                                                                "type": "uint256",
                                                                "value": "0"
                                                            },
                                                            {
                                                                "name": "route",
                                                                "type": "(uint256,address,uint256,bytes,uint256)[]",
                                                                "value": [
                                                                    [
                                                                        {
                                                                            "name": "index",
                                                                            "type": "uint256",
                                                                            "value": "4"
                                                                        },
                                                                        {
                                                                            "name": "targetExchange",
                                                                            "type": "address",
                                                                            "value": "0xf9234cb08edb93c0d4a4d4c70cc3ffd070e78e07"
                                                                        },
                                                                        {
                                                                            "name": "percent",
                                                                            "type": "uint256",
                                                                            "value": "10,000"
                                                                        },
                                                                        {
                                                                            "name": "payload",
                                                                            "type": "bytes",
                                                                            "value": "0x0000000000000000000000000000000000000000000000000000000000000020000000000000000000000000c02aaa39b223fe8d0a0e5c4f27ead9083c756cc200000000000000000000000000000000000000000000000000000000000000400000000000000000000000000000000000000000000000000000000000000001000000000000000000004de510ef7f8833ea986109abc6ef2ac379bf4baf2801"
                                                                        },
                                                                        {
                                                                            "name": "networkFee",
                                                                            "type": "uint256",
                                                                            "value": "0"
                                                                        }
                                                                    ]
                                                                ]
                                                            }
                                                        ]
                                                    ]
                                                }
                                            ]
                                        ]
                                    },
                                    {
                                        "name": "partner",
                                        "type": "address",
                                        "value": "0x0000000000000000000000000000000000000000"
                                    },
                                    {
                                        "name": "feePercent",
                                        "type": "uint256",
                                        "value": "452,312,848,583,266,388,373,324,160,190,187,140,051,835,877,600,158,453,279,131,187,530,910,679,040"
                                    },
                                    {
                                        "name": "permit",
                                        "type": "bytes",
                                        "value": "0x"
                                    },
                                    {
                                        "name": "deadline",
                                        "type": "uint256",
                                        "value": "1,724,650,477"
                                    },
                                    {
                                        "name": "uuid",
                                        "type": "bytes16",
                                        "value": "0xfdb7c34b7b0e44d0a39cf36a834ec8d5"
                                    }
                                ]
                            }
                        ],
                        "constructorArguments": "",
                        "name": "multiSwap",
                        "returnParams": [],
                        "signature": "multiSwap((address,uint256,uint256,uint256,address,(address,uint256,(address,uint256,uint256,(uint256,address,uint256,bytes,uint256)[])[])[],address,uint256,bytes,uint256,bytes16))"
                    },
                    "errorInfo": "execution reverted",
                    "fromAddress": "0x9e2a65a9aea1556ba741b6c35cd55f3f7aadbbb0",
                    "gasUsed": 213228,
                    "id": 0,
                    "methodDecoded": true,
                    "operation": "CALL",
                    "output": "0x08c379a000000000000000000000000000000000000000000000000000000000000000200000000000000000000000000000000000000000000000000000000000000030526563656976656420616d6f756e74206f6620746f6b656e7320617265206c657373207468656e20657870656374656400000000000000000000000000000000",
                    "revert": true,
                    "revertMessage": "0Received amount of tokens are less then expected",
                    "selector": "0xa94e78ef",
                    "status": false,
                    "value": "0.1"
                },
                "nodeType": 0
            },
            "1": {
                "invocation": {
                    "address": "0xbd7b550d2e7571383d84acf597a00d341e5c406e",
                    "callData": "0x0000000000000000000000000000000000000000000000000000000000000020000000000000000000000000eeeeeeeeeeeeeeeeeeeeeeeeeeeeeeeeeeeeeeee000000000000000000000000000000000000000000000000016345785d8a00000000000000000000000000000000000000000000000000c0ed85b688122764f20000000000000000000000000000000000000000000000c11ef6164c3e3f85980000000000000000000000009e2a65a9aea1556ba741b6c35cd55f3f7aadbbb000000000000000000000000000000000000000000000000000000000000001600000000000000000000000000000000000000000000000000000000000000000010000000000000000000000000000000000000000000000000000000000400000000000000000000000000000000000000000000000000000000000000004600000000000000000000000000000000000000000000000000000000066cc13edfdb7c34b7b0e44d0a39cf36a834ec8d50000000000000000000000000000000000000000000000000000000000000000000000000000000000000000000000010000000000000000000000000000000000000000000000000000000000000020000000000000000000000000b369daca21ee035312176eb8cf9d88ce97e0aa9500000000000000000000000000000000000000000000000000000000000000000000000000000000000000000000000000000000000000000000000000000060000000000000000000000000000000000000000000000000000000000000000100000000000000000000000000000000000000000000000000000000000000200000000000000000000000009be264469ef954c139da4a45cf76cbcc5e3a6a73000000000000000000000000000000000000000000000000000000000000271000000000000000000000000000000000000000000000000000000000000000000000000000000000000000000000000000000000000000000000000000000080000000000000000000000000000000000000000000000000000000000000000100000000000000000000000000000000000000000000000000000000000000200000000000000000000000000000000000000000000000000000000000000004000000000000000000000000f9234cb08edb93c0d4a4d4c70cc3ffd070e78e07000000000000000000000000000000000000000000000000000000000000271000000000000000000000000000000000000000000000000000000000000000a0000000000000000000000000000000000000000000000000000000000000000000000000000000000000000000000000000000000000000000000000000000a00000000000000000000000000000000000000000000000000000000000000020000000000000000000000000c02aaa39b223fe8d0a0e5c4f27ead9083c756cc200000000000000000000000000000000000000000000000000000000000000400000000000000000000000000000000000000000000000000000000000000001000000000000000000004de510ef7f8833ea986109abc6ef2ac379bf4baf28010000000000000000000000000000000000000000000000000000000000000000",
                    "decodedMethod": {
                        "callParams": [
                            {
                                "name": "data",
                                "type": "(address,uint256,uint256,uint256,address,(address,uint256,(address,uint256,uint256,(uint256,address,uint256,bytes,uint256)[])[])[],address,uint256,bytes,uint256,bytes16)",
                                "value": [
                                    {
                                        "name": "fromToken",
                                        "type": "address",
                                        "value": "0xeeeeeeeeeeeeeeeeeeeeeeeeeeeeeeeeeeeeeeee"
                                    },
                                    {
                                        "name": "fromAmount",
                                        "type": "uint256",
                                        "value": "100,000,000,000,000,000"
                                    },
                                    {
                                        "name": "toAmount",
                                        "type": "uint256",
                                        "value": "3,558,890,148,806,661,727,474"
                                    },
                                    {
                                        "name": "expectedAmount",
                                        "type": "uint256",
                                        "value": "3,562,452,601,408,069,797,272"
                                    },
                                    {
                                        "name": "beneficiary",
                                        "type": "address",
                                        "value": "0x9e2a65a9aea1556ba741b6c35cd55f3f7aadbbb0"
                                    },
                                    {
                                        "name": "path",
                                        "type": "(address,uint256,(address,uint256,uint256,(uint256,address,uint256,bytes,uint256)[])[])[]",
                                        "value": [
                                            [
                                                {
                                                    "name": "to",
                                                    "type": "address",
                                                    "value": "0xb369daca21ee035312176eb8cf9d88ce97e0aa95"
                                                },
                                                {
                                                    "name": "totalNetworkFee",
                                                    "type": "uint256",
                                                    "value": "0"
                                                },
                                                {
                                                    "name": "adapters",
                                                    "type": "(address,uint256,uint256,(uint256,address,uint256,bytes,uint256)[])[]",
                                                    "value": [
                                                        [
                                                            {
                                                                "name": "adapter",
                                                                "type": "address",
                                                                "value": "0x9be264469ef954c139da4a45cf76cbcc5e3a6a73"
                                                            },
                                                            {
                                                                "name": "percent",
                                                                "type": "uint256",
                                                                "value": "10,000"
                                                            },
                                                            {
                                                                "name": "networkFee",
                                                                "type": "uint256",
                                                                "value": "0"
                                                            },
                                                            {
                                                                "name": "route",
                                                                "type": "(uint256,address,uint256,bytes,uint256)[]",
                                                                "value": [
                                                                    [
                                                                        {
                                                                            "name": "index",
                                                                            "type": "uint256",
                                                                            "value": "4"
                                                                        },
                                                                        {
                                                                            "name": "targetExchange",
                                                                            "type": "address",
                                                                            "value": "0xf9234cb08edb93c0d4a4d4c70cc3ffd070e78e07"
                                                                        },
                                                                        {
                                                                            "name": "percent",
                                                                            "type": "uint256",
                                                                            "value": "10,000"
                                                                        },
                                                                        {
                                                                            "name": "payload",
                                                                            "type": "bytes",
                                                                            "value": "0x0000000000000000000000000000000000000000000000000000000000000020000000000000000000000000c02aaa39b223fe8d0a0e5c4f27ead9083c756cc200000000000000000000000000000000000000000000000000000000000000400000000000000000000000000000000000000000000000000000000000000001000000000000000000004de510ef7f8833ea986109abc6ef2ac379bf4baf2801"
                                                                        },
                                                                        {
                                                                            "name": "networkFee",
                                                                            "type": "uint256",
                                                                            "value": "0"
                                                                        }
                                                                    ]
                                                                ]
                                                            }
                                                        ]
                                                    ]
                                                }
                                            ]
                                        ]
                                    },
                                    {
                                        "name": "partner",
                                        "type": "address",
                                        "value": "0x0000000000000000000000000000000000000000"
                                    },
                                    {
                                        "name": "feePercent",
                                        "type": "uint256",
                                        "value": "452,312,848,583,266,388,373,324,160,190,187,140,051,835,877,600,158,453,279,131,187,530,910,679,040"
                                    },
                                    {
                                        "name": "permit",
                                        "type": "bytes",
                                        "value": "0x"
                                    },
                                    {
                                        "name": "deadline",
                                        "type": "uint256",
                                        "value": "1,724,650,477"
                                    },
                                    {
                                        "name": "uuid",
                                        "type": "bytes16",
                                        "value": "0xfdb7c34b7b0e44d0a39cf36a834ec8d5"
                                    }
                                ]
                            }
                        ],
                        "constructorArguments": "",
                        "name": "multiSwap",
                        "returnParams": [],
                        "signature": "multiSwap((address,uint256,uint256,uint256,address,(address,uint256,(address,uint256,uint256,(uint256,address,uint256,bytes,uint256)[])[])[],address,uint256,bytes,uint256,bytes16))"
                    },
                    "errorInfo": "execution reverted",
                    "fromAddress": "0xdef171fe48cf0115b1d80b88dc8eab59176fee57",
                    "gasUsed": 179282,
                    "id": 1,
                    "methodDecoded": true,
                    "operation": "DELEGATECALL",
                    "output": "0x08c379a000000000000000000000000000000000000000000000000000000000000000200000000000000000000000000000000000000000000000000000000000000030526563656976656420616d6f756e74206f6620746f6b656e7320617265206c657373207468656e20657870656374656400000000000000000000000000000000",
                    "revert": true,
                    "revertMessage": "0Received amount of tokens are less then expected",
                    "selector": "0xa94e78ef",
                    "status": false,
                    "value": "0.1"
                },
                "nodeType": 0
            },
            "10": {
                "invocation": {
                    "address": "0xb369daca21ee035312176eb8cf9d88ce97e0aa95",
                    "callData": "0x000000000000000000000000def171fe48cf0115b1d80b88dc8eab59176fee570000000000000000000000000000000000000000000000c11ef6164c3e3f8598",
                    "decodedMethod": {
                        "callParams": [
                            {
                                "name": "recipient",
                                "type": "address",
                                "value": "0xdef171fe48cf0115b1d80b88dc8eab59176fee57"
                            },
                            {
                                "decimalAvailable": true,
                                "name": "amount",
                                "type": "uint256",
                                "value": "3,562,452,601,408,069,797,272"
                            }
                        ],
                        "constructorArguments": "",
                        "name": "transfer",
                        "returnParams": [
                            {
                                "name": "",
                                "type": "bool",
                                "value": true
                            }
                        ],
                        "signature": "transfer(address,uint256)"
                    },
                    "errorInfo": "",
                    "fromAddress": "0x10ef7f8833ea986109abc6ef2ac379bf4baf2801",
                    "gasUsed": 75871,
                    "id": 10,
                    "methodDecoded": true,
                    "operation": "CALL",
                    "output": "0x0000000000000000000000000000000000000000000000000000000000000001",
                    "revert": true,
                    "revertMessage": "",
                    "selector": "0xa9059cbb",
                    "status": true,
                    "value": "0"
                },
                "nodeType": 0
            },
            "11": {
                "event": {
                    "contract": "0xb369daca21ee035312176eb8cf9d88ce97e0aa95",
                    "decodedLog": {
                        "name": "Transfer",
                        "params": [
                            {
                                "name": "from",
                                "type": "address",
                                "value": "0x10ef7f8833ea986109abc6ef2ac379bf4baf2801"
                            },
                            {
                                "name": "to",
                                "type": "address",
                                "value": "0xb369daca21ee035312176eb8cf9d88ce97e0aa95"
                            },
                            {
                                "decimalAvailable": true,
                                "name": "value",
                                "type": "uint256",
                                "value": "106,873,578,042,242,093,918"
                            }
                        ],
                        "signature": "Transfer(address,address,uint256)"
                    },
                    "id": 11,
                    "logData": "0x000000000000000000000000000000000000000000000005cb2b38fd2ad3d35e",
                    "logDecoded": true,
                    "operation": "EVENT",
                    "revert": true,
                    "status": false,
                    "topics": [
                        "0xddf252ad1be2c89b69c2b068fc378daa952ba7f163c4a11628f55a4df523b3ef",
                        "0x00000000000000000000000010ef7f8833ea986109abc6ef2ac379bf4baf2801",
                        "0x000000000000000000000000b369daca21ee035312176eb8cf9d88ce97e0aa95"
                    ]
                },
                "nodeType": 1
            },
            "12": {
                "event": {
                    "contract": "0xb369daca21ee035312176eb8cf9d88ce97e0aa95",
                    "decodedLog": {
                        "name": "Transfer",
                        "params": [
                            {
                                "name": "from",
                                "type": "address",
                                "value": "0x10ef7f8833ea986109abc6ef2ac379bf4baf2801"
                            },
                            {
                                "name": "to",
                                "type": "address",
                                "value": "0xdef171fe48cf0115b1d80b88dc8eab59176fee57"
                            },
                            {
                                "decimalAvailable": true,
                                "name": "value",
                                "type": "uint256",
                                "value": "3,455,579,023,365,827,703,354"
                            }
                        ],
                        "signature": "Transfer(address,address,uint256)"
                    },
                    "id": 12,
                    "logData": "0x0000000000000000000000000000000000000000000000bb53cadd4f136bb23a",
                    "logDecoded": true,
                    "operation": "EVENT",
                    "revert": true,
                    "status": false,
                    "topics": [
                        "0xddf252ad1be2c89b69c2b068fc378daa952ba7f163c4a11628f55a4df523b3ef",
                        "0x00000000000000000000000010ef7f8833ea986109abc6ef2ac379bf4baf2801",
                        "0x000000000000000000000000def171fe48cf0115b1d80b88dc8eab59176fee57"
                    ]
                },
                "nodeType": 1
            },
            "13": {
                "invocation": {
                    "address": "0xb369daca21ee035312176eb8cf9d88ce97e0aa95",
                    "callData": "0x00000000000000000000000010ef7f8833ea986109abc6ef2ac379bf4baf2801",
                    "decodedMethod": {
                        "callParams": [
                            {
                                "name": "account",
                                "type": "address",
                                "value": "0x10ef7f8833ea986109abc6ef2ac379bf4baf2801"
                            }
                        ],
                        "constructorArguments": "",
                        "name": "balanceOf",
                        "returnParams": [
                            {
                                "decimalAvailable": true,
                                "name": "",
                                "type": "uint256",
                                "value": "353,926,317,158,147,561,696,626"
                            }
                        ],
                        "signature": "balanceOf(address)"
                    },
                    "errorInfo": "",
                    "fromAddress": "0x10ef7f8833ea986109abc6ef2ac379bf4baf2801",
                    "gasUsed": 579,
                    "id": 13,
                    "methodDecoded": true,
                    "operation": "STATICCALL",
                    "output": "0x000000000000000000000000000000000000000000004af26254415719612d72",
                    "revert": true,
                    "revertMessage": "",
                    "selector": "0x70a08231",
                    "status": true,
                    "value": "0"
                },
                "nodeType": 0
            },
            "14": {
                "invocation": {
                    "address": "0xc02aaa39b223fe8d0a0e5c4f27ead9083c756cc2",
                    "callData": "0x00000000000000000000000010ef7f8833ea986109abc6ef2ac379bf4baf2801",
                    "decodedMethod": {
                        "callParams": [
                            {
                                "name": "",
                                "type": "address",
                                "value": "0x10ef7f8833ea986109abc6ef2ac379bf4baf2801"
                            }
                        ],
                        "constructorArguments": "",
                        "name": "balanceOf",
                        "returnParams": [
                            {
                                "decimalAvailable": true,
                                "name": "",
                                "type": "uint256",
                                "value": "10,005,101,279,584,811,304"
                            }
                        ],
                        "signature": "balanceOf(address)"
                    },
                    "errorInfo": "",
                    "fromAddress": "0x10ef7f8833ea986109abc6ef2ac379bf4baf2801",
                    "gasUsed": 534,
                    "id": 14,
                    "methodDecoded": true,
                    "operation": "STATICCALL",
                    "output": "0x0000000000000000000000000000000000000000000000008ad9429abf757928",
                    "revert": true,
                    "revertMessage": "",
                    "selector": "0x70a08231",
                    "status": true,
                    "value": "0"
                },
                "nodeType": 0
            },
            "15": {
                "event": {
                    "contract": "0x10ef7f8833ea986109abc6ef2ac379bf4baf2801",
                    "decodedLog": {
                        "name": "Sync",
                        "params": [
                            {
                                "name": "reserve0",
                                "type": "uint112",
                                "value": "353,926,317,158,147,561,696,626"
                            },
                            {
                                "name": "reserve1",
                                "type": "uint112",
                                "value": "10,005,101,279,584,811,304"
                            }
                        ],
                        "signature": "Sync(uint112,uint112)"
                    },
                    "id": 15,
                    "logData": "0x000000000000000000000000000000000000000000004af26254415719612d720000000000000000000000000000000000000000000000008ad9429abf757928",
                    "logDecoded": true,
                    "operation": "EVENT",
                    "revert": true,
                    "status": false,
                    "topics": [
                        "0x1c411e9a96e071241c2f21f7726b17ae89e3cab4c78be50e062b03a9fffbbad1"
                    ]
                },
                "nodeType": 1
            },
            "16": {
                "event": {
                    "contract": "0x10ef7f8833ea986109abc6ef2ac379bf4baf2801",
                    "decodedLog": {
                        "name": "Swap",
                        "params": [
                            {
                                "name": "sender",
                                "type": "address",
                                "value": "0xdef171fe48cf0115b1d80b88dc8eab59176fee57"
                            },
                            {
                                "name": "to",
                                "type": "address",
                                "value": "0xdef171fe48cf0115b1d80b88dc8eab59176fee57"
                            },
                            {
                                "name": "amount0In",
                                "type": "uint256",
                                "value": "0"
                            },
                            {
                                "name": "amount1In",
                                "type": "uint256",
                                "value": "100,000,000,000,000,000"
                            },
                            {
                                "name": "amount0Out",
                                "type": "uint256",
                                "value": "3,562,452,601,408,069,797,272"
                            },
                            {
                                "name": "amount1Out",
                                "type": "uint256",
                                "value": "0"
                            }
                        ],
                        "signature": "Swap(address,uint256,uint256,uint256,uint256,address)"
                    },
                    "id": 16,
                    "logData": "0x0000000000000000000000000000000000000000000000000000000000000000000000000000000000000000000000000000000000000000016345785d8a00000000000000000000000000000000000000000000000000c11ef6164c3e3f85980000000000000000000000000000000000000000000000000000000000000000",
                    "logDecoded": true,
                    "operation": "EVENT",
                    "revert": true,
                    "status": false,
                    "topics": [
                        "0xd78ad95fa46c994b6551d0da85fc275fe613ce37657fb8d5e3d130840159d822",
                        "0x000000000000000000000000def171fe48cf0115b1d80b88dc8eab59176fee57",
                        "0x000000000000000000000000def171fe48cf0115b1d80b88dc8eab59176fee57"
                    ]
                },
                "nodeType": 1
            },
            "17": {
                "invocation": {
                    "address": "0xb369daca21ee035312176eb8cf9d88ce97e0aa95",
                    "callData": "0x000000000000000000000000def171fe48cf0115b1d80b88dc8eab59176fee57",
                    "decodedMethod": {
                        "callParams": [
                            {
                                "name": "account",
                                "type": "address",
                                "value": "0xdef171fe48cf0115b1d80b88dc8eab59176fee57"
                            }
                        ],
                        "constructorArguments": "",
                        "name": "balanceOf",
                        "returnParams": [
                            {
                                "decimalAvailable": true,
                                "name": "",
                                "type": "uint256",
                                "value": "3,455,579,023,365,827,703,354"
                            }
                        ],
                        "signature": "balanceOf(address)"
                    },
                    "errorInfo": "",
                    "fromAddress": "0xdef171fe48cf0115b1d80b88dc8eab59176fee57",
                    "gasUsed": 579,
                    "id": 17,
                    "methodDecoded": true,
                    "operation": "STATICCALL",
                    "output": "0x0000000000000000000000000000000000000000000000bb53cadd4f136bb23a",
                    "revert": true,
                    "revertMessage": "",
                    "selector": "0x70a08231",
                    "status": true,
                    "value": "0"
                },
                "nodeType": 0
            },
            "2": {
                "invocation": {
                    "address": "0xdef171fe48cf0115b1d80b88dc8eab59176fee57",
                    "callData": "0x8429d542926e6695b59ac6fbdcd9b37e8b1aeb757afab06ab60b1bb5878c3b490000000000000000000000009be264469ef954c139da4a45cf76cbcc5e3a6a73",
                    "decodedMethod": {
                        "callParams": [
                            {
                                "name": "role",
                                "type": "bytes32",
                                "value": "0x8429d542926e6695b59ac6fbdcd9b37e8b1aeb757afab06ab60b1bb5878c3b49"
                            },
                            {
                                "name": "account",
                                "type": "address",
                                "value": "0x9be264469ef954c139da4a45cf76cbcc5e3a6a73"
                            }
                        ],
                        "constructorArguments": "",
                        "name": "hasRole",
                        "returnParams": [
                            {
                                "name": "",
                                "type": "bool",
                                "value": true
                            }
                        ],
                        "signature": "hasRole(bytes32,address)"
                    },
                    "errorInfo": "",
                    "fromAddress": "0xdef171fe48cf0115b1d80b88dc8eab59176fee57",
                    "gasUsed": 2849,
                    "id": 2,
                    "methodDecoded": true,
                    "operation": "STATICCALL",
                    "output": "0x0000000000000000000000000000000000000000000000000000000000000001",
                    "revert": true,
                    "revertMessage": "",
                    "selector": "0x91d14854",
                    "status": true,
                    "value": "0"
                },
                "nodeType": 0
            },
            "3": {
                "invocation": {
                    "address": "0x9be264469ef954c139da4a45cf76cbcc5e3a6a73",
                    "callData": "0x000000000000000000000000eeeeeeeeeeeeeeeeeeeeeeeeeeeeeeeeeeeeeeee000000000000000000000000b369daca21ee035312176eb8cf9d88ce97e0aa95000000000000000000000000000000000000000000000000016345785d8a0000000000000000000000000000000000000000000000000000000000000000000000000000000000000000000000000000000000000000000000000000000000a0000000000000000000000000000000000000000000000000000000000000000100000000000000000000000000000000000000000000000000000000000000200000000000000000000000000000000000000000000000000000000000000004000000000000000000000000f9234cb08edb93c0d4a4d4c70cc3ffd070e78e07000000000000000000000000000000000000000000000000000000000000271000000000000000000000000000000000000000000000000000000000000000a0000000000000000000000000000000000000000000000000000000000000000000000000000000000000000000000000000000000000000000000000000000a00000000000000000000000000000000000000000000000000000000000000020000000000000000000000000c02aaa39b223fe8d0a0e5c4f27ead9083c756cc200000000000000000000000000000000000000000000000000000000000000400000000000000000000000000000000000000000000000000000000000000001000000000000000000004de510ef7f8833ea986109abc6ef2ac379bf4baf2801",
                    "decodedMethod": {
                        "callParams": [
                            {
                                "name": "fromToken",
                                "type": "address",
                                "value": "0xeeeeeeeeeeeeeeeeeeeeeeeeeeeeeeeeeeeeeeee"
                            },
                            {
                                "name": "toToken",
                                "type": "address",
                                "value": "0xb369daca21ee035312176eb8cf9d88ce97e0aa95"
                            },
                            {
                                "name": "fromAmount",
                                "type": "uint256",
                                "value": "100,000,000,000,000,000"
                            },
                            {
                                "name": "",
                                "type": "uint256",
                                "value": "0"
                            },
                            {
                                "name": "route",
                                "type": "(uint256,address,uint256,bytes,uint256)[]",
                                "value": [
                                    [
                                        {
                                            "name": "index",
                                            "type": "uint256",
                                            "value": "4"
                                        },
                                        {
                                            "name": "targetExchange",
                                            "type": "address",
                                            "value": "0xf9234cb08edb93c0d4a4d4c70cc3ffd070e78e07"
                                        },
                                        {
                                            "name": "percent",
                                            "type": "uint256",
                                            "value": "10,000"
                                        },
                                        {
                                            "name": "payload",
                                            "type": "bytes",
                                            "value": "0x0000000000000000000000000000000000000000000000000000000000000020000000000000000000000000c02aaa39b223fe8d0a0e5c4f27ead9083c756cc200000000000000000000000000000000000000000000000000000000000000400000000000000000000000000000000000000000000000000000000000000001000000000000000000004de510ef7f8833ea986109abc6ef2ac379bf4baf2801"
                                        },
                                        {
                                            "name": "networkFee",
                                            "type": "uint256",
                                            "value": "0"
                                        }
                                    ]
                                ]
                            }
                        ],
                        "constructorArguments": "",
                        "name": "swap",
                        "returnParams": [],
                        "signature": "swap(address,address,uint256,uint256,(uint256,address,uint256,bytes,uint256)[])"
                    },
                    "errorInfo": "",
                    "fromAddress": "0xdef171fe48cf0115b1d80b88dc8eab59176fee57",
                    "gasUsed": 163262,
                    "id": 3,
                    "methodDecoded": true,
                    "operation": "DELEGATECALL",
                    "output": "",
                    "revert": true,
                    "revertMessage": "",
                    "selector": "0xe76b146c",
                    "status": true,
                    "value": "0.1"
                },
                "nodeType": 0
            },
            "4": {
                "invocation": {
                    "address": "0xc02aaa39b223fe8d0a0e5c4f27ead9083c756cc2",
                    "callData": "0x",
                    "decodedMethod": {
                        "callParams": [],
                        "constructorArguments": "",
                        "name": "deposit",
                        "returnParams": [],
                        "signature": "deposit()"
                    },
                    "errorInfo": "",
                    "fromAddress": "0xdef171fe48cf0115b1d80b88dc8eab59176fee57",
                    "gasUsed": 23974,
                    "id": 4,
                    "methodDecoded": true,
                    "operation": "CALL",
                    "output": "",
                    "revert": true,
                    "revertMessage": "",
                    "selector": "0xd0e30db0",
                    "status": true,
                    "value": "0.1"
                },
                "nodeType": 0
            },
            "5": {
                "event": {
                    "contract": "0xc02aaa39b223fe8d0a0e5c4f27ead9083c756cc2",
                    "decodedLog": {
                        "name": "Deposit",
                        "params": [
                            {
                                "name": "dst",
                                "type": "address",
                                "value": "0xdef171fe48cf0115b1d80b88dc8eab59176fee57"
                            },
                            {
                                "name": "wad",
                                "type": "uint256",
                                "value": "100,000,000,000,000,000"
                            }
                        ],
                        "signature": "Deposit(address,uint256)"
                    },
                    "id": 5,
                    "logData": "0x000000000000000000000000000000000000000000000000016345785d8a0000",
                    "logDecoded": true,
                    "operation": "EVENT",
                    "revert": true,
                    "status": false,
                    "topics": [
                        "0xe1fffcc4923d04b559f4d29a8bfc6cda04eb5b0d3c460751c2402c5c5cc9109c",
                        "0x000000000000000000000000def171fe48cf0115b1d80b88dc8eab59176fee57"
                    ]
                },
                "nodeType": 1
            },
            "6": {
                "invocation": {
                    "address": "0xc02aaa39b223fe8d0a0e5c4f27ead9083c756cc2",
                    "callData": "0x00000000000000000000000010ef7f8833ea986109abc6ef2ac379bf4baf2801000000000000000000000000000000000000000000000000016345785d8a0000",
                    "decodedMethod": {
                        "callParams": [
                            {
                                "name": "dst",
                                "type": "address",
                                "value": "0x10ef7f8833ea986109abc6ef2ac379bf4baf2801"
                            },
                            {
                                "decimalAvailable": true,
                                "name": "wad",
                                "type": "uint256",
                                "value": "100,000,000,000,000,000"
                            }
                        ],
                        "constructorArguments": "",
                        "name": "transfer",
                        "returnParams": [
                            {
                                "name": "",
                                "type": "bool",
                                "value": true
                            }
                        ],
                        "signature": "transfer(address,uint256)"
                    },
                    "errorInfo": "",
                    "fromAddress": "0xdef171fe48cf0115b1d80b88dc8eab59176fee57",
                    "gasUsed": 8062,
                    "id": 6,
                    "methodDecoded": true,
                    "operation": "CALL",
                    "output": "0x0000000000000000000000000000000000000000000000000000000000000001",
                    "revert": true,
                    "revertMessage": "",
                    "selector": "0xa9059cbb",
                    "status": true,
                    "value": "0"
                },
                "nodeType": 0
            },
            "7": {
                "event": {
                    "contract": "0xc02aaa39b223fe8d0a0e5c4f27ead9083c756cc2",
                    "decodedLog": {
                        "name": "Transfer",
                        "params": [
                            {
                                "name": "src",
                                "type": "address",
                                "value": "0xdef171fe48cf0115b1d80b88dc8eab59176fee57"
                            },
                            {
                                "name": "dst",
                                "type": "address",
                                "value": "0x10ef7f8833ea986109abc6ef2ac379bf4baf2801"
                            },
                            {
                                "decimalAvailable": true,
                                "name": "wad",
                                "type": "uint256",
                                "value": "100,000,000,000,000,000"
                            }
                        ],
                        "signature": "Transfer(address,address,uint256)"
                    },
                    "id": 7,
                    "logData": "0x000000000000000000000000000000000000000000000000016345785d8a0000",
                    "logDecoded": true,
                    "operation": "EVENT",
                    "revert": true,
                    "status": false,
                    "topics": [
                        "0xddf252ad1be2c89b69c2b068fc378daa952ba7f163c4a11628f55a4df523b3ef",
                        "0x000000000000000000000000def171fe48cf0115b1d80b88dc8eab59176fee57",
                        "0x00000000000000000000000010ef7f8833ea986109abc6ef2ac379bf4baf2801"
                    ]
                },
                "nodeType": 1
            },
            "8": {
                "invocation": {
                    "address": "0x10ef7f8833ea986109abc6ef2ac379bf4baf2801",
                    "callData": "0x",
                    "decodedMethod": {
                        "callParams": [],
                        "constructorArguments": "",
                        "name": "getReserves",
                        "returnParams": [
                            {
                                "name": "_reserve0",
                                "type": "uint112",
                                "value": "357,488,769,759,555,631,493,898"
                            },
                            {
                                "name": "_reserve1",
                                "type": "uint112",
                                "value": "9,905,101,279,584,811,304"
                            },
                            {
                                "name": "_blockTimestampLast",
                                "type": "uint32",
                                "value": "1,724,640,323"
                            }
                        ],
                        "signature": "getReserves()"
                    },
                    "errorInfo": "",
                    "fromAddress": "0xdef171fe48cf0115b1d80b88dc8eab59176fee57",
                    "gasUsed": 2504,
                    "id": 8,
                    "methodDecoded": true,
                    "operation": "STATICCALL",
                    "output": "0x000000000000000000000000000000000000000000004bb3814a57a357a0b30a0000000000000000000000000000000000000000000000008975fd2261eb79280000000000000000000000000000000000000000000000000000000066cbec43",
                    "revert": true,
                    "revertMessage": "",
                    "selector": "0x0902f1ac",
                    "status": true,
                    "value": "0"
                },
                "nodeType": 0
            },
            "9": {
                "invocation": {
                    "address": "0x10ef7f8833ea986109abc6ef2ac379bf4baf2801",
                    "callData": "0x0000000000000000000000000000000000000000000000c11ef6164c3e3f85980000000000000000000000000000000000000000000000000000000000000000000000000000000000000000def171fe48cf0115b1d80b88dc8eab59176fee5700000000000000000000000000000000000000000000000000000000000000800000000000000000000000000000000000000000000000000000000000000000",
                    "decodedMethod": {
                        "callParams": [
                            {
                                "name": "amount0Out",
                                "type": "uint256",
                                "value": "3,562,452,601,408,069,797,272"
                            },
                            {
                                "name": "amount1Out",
                                "type": "uint256",
                                "value": "0"
                            },
                            {
                                "name": "to",
                                "type": "address",
                                "value": "0xdef171fe48cf0115b1d80b88dc8eab59176fee57"
                            },
                            {
                                "name": "data",
                                "type": "bytes",
                                "value": "0x"
                            }
                        ],
                        "constructorArguments": "",
                        "name": "swap",
                        "returnParams": [],
                        "signature": "swap(uint256,uint256,address,bytes)"
                    },
                    "errorInfo": "",
                    "fromAddress": "0xdef171fe48cf0115b1d80b88dc8eab59176fee57",
                    "gasUsed": 110807,
                    "id": 9,
                    "methodDecoded": true,
                    "operation": "CALL",
                    "output": "",
                    "revert": true,
                    "revertMessage": "",
                    "selector": "0x022c0d9f",
                    "status": true,
                    "value": "0"
                },
                "nodeType": 0
            }
        },
        "gasFlame": [
            {
                "children": [
                    {
                        "children": [
                            {
                                "children": [],
                                "depth": 0,
                                "name": "Initial Gas",
                                "value": 28332
                            },
                            {
                                "children": [
                                    {
                                        "children": [
                                            {
                                                "children": [],
                                                "depth": 2,
                                                "name": "hasRole",
                                                "value": 2849
                                            },
                                            {
                                                "children": [
                                                    {
                                                        "children": [],
                                                        "depth": 3,
                                                        "name": "deposit",
                                                        "value": 23974
                                                    },
                                                    {
                                                        "children": [],
                                                        "depth": 3,
                                                        "name": "transfer",
                                                        "value": 8062
                                                    },
                                                    {
                                                        "children": [],
                                                        "depth": 3,
                                                        "name": "getReserves",
                                                        "value": 2504
                                                    },
                                                    {
                                                        "children": [
                                                            {
                                                                "children": [],
                                                                "depth": 4,
                                                                "name": "transfer",
                                                                "value": 75871
                                                            },
                                                            {
                                                                "children": [],
                                                                "depth": 4,
                                                                "name": "balanceOf",
                                                                "value": 579
                                                            },
                                                            {
                                                                "children": [],
                                                                "depth": 4,
                                                                "name": "balanceOf",
                                                                "value": 534
                                                            }
                                                        ],
                                                        "depth": 3,
                                                        "name": "swap",
                                                        "value": 110807
                                                    }
                                                ],
                                                "depth": 2,
                                                "name": "swap",
                                                "value": 163262
                                            },
                                            {
                                                "children": [],
                                                "depth": 2,
                                                "name": "balanceOf",
                                                "value": 579
                                            }
                                        ],
                                        "depth": 1,
                                        "name": "multiSwap",
                                        "value": 179282
                                    }
                                ],
                                "depth": 0,
                                "name": "Executed Gas",
                                "value": 184896
                            }
                        ],
                        "depth": -1,
                        "name": "Actual Gas Used",
                        "value": 213228
                    },
                    {
                        "children": [],
                        "depth": -1,
                        "name": "Refunded Gas",
                        "value": 0
                    }
                ],
                "depth": -2,
                "name": "Total Gas",
                "value": 213228
            }
        ],
        "isConfirmed": true,
        "mainTrace": [
            {
                "children": [
                    {
                        "children": [
                            {
                                "children": [
                                    {
                                        "children": [],
                                        "depth": 2,
                                        "id": 2,
                                        "order": 2
                                    },
                                    {
                                        "children": [
                                            {
                                                "children": [
                                                    {
                                                        "children": [],
                                                        "depth": 4,
                                                        "id": 5,
                                                        "order": 5
                                                    }
                                                ],
                                                "depth": 3,
                                                "id": 4,
                                                "order": 4
                                            },
                                            {
                                                "children": [
                                                    {
                                                        "children": [],
                                                        "depth": 4,
                                                        "id": 7,
                                                        "order": 7
                                                    }
                                                ],
                                                "depth": 3,
                                                "id": 6,
                                                "order": 6
                                            },
                                            {
                                                "children": [],
                                                "depth": 3,
                                                "id": 8,
                                                "order": 8
                                            },
                                            {
                                                "children": [
                                                    {
                                                        "children": [
                                                            {
                                                                "children": [],
                                                                "depth": 5,
                                                                "id": 11,
                                                                "order": 11
                                                            },
                                                            {
                                                                "children": [],
                                                                "depth": 5,
                                                                "id": 12,
                                                                "order": 12
                                                            }
                                                        ],
                                                        "depth": 4,
                                                        "id": 10,
                                                        "order": 10
                                                    },
                                                    {
                                                        "children": [],
                                                        "depth": 4,
                                                        "id": 13,
                                                        "order": 13
                                                    },
                                                    {
                                                        "children": [],
                                                        "depth": 4,
                                                        "id": 14,
                                                        "order": 14
                                                    },
                                                    {
                                                        "children": [],
                                                        "depth": 4,
                                                        "id": 15,
                                                        "order": 15
                                                    },
                                                    {
                                                        "children": [],
                                                        "depth": 4,
                                                        "id": 16,
                                                        "order": 16
                                                    }
                                                ],
                                                "depth": 3,
                                                "id": 9,
                                                "order": 9
                                            }
                                        ],
                                        "depth": 2,
                                        "id": 3,
                                        "order": 3
                                    },
                                    {
                                        "children": [],
                                        "depth": 2,
                                        "id": 17,
                                        "order": 17
                                    }
                                ],
                                "depth": 1,
                                "id": 1,
                                "order": 1
                            }
                        ],
                        "depth": 0,
                        "id": 0,
                        "order": 0
                    }
                ],
                "depth": -1,
                "id": -1,
                "order": -1
            }
        ],
        "mainTraceNodeCount": 18,
        "parentIdMap": {
            "0": -1,
            "1": 0,
            "10": 9,
            "11": 10,
            "12": 10,
            "13": 9,
            "14": 9,
            "15": 9,
            "16": 9,
            "17": 1,
            "2": 1,
            "3": 1,
            "4": 3,
            "5": 4,
            "6": 3,
            "7": 6,
            "8": 3,
            "9": 3
        },
        "tidyTrace": [
            {
                "children": [
                    {
                        "children": [
                            {
                                "children": [
                                    {
                                        "children": [
                                            {
                                                "children": [
                                                    {
                                                        "children": [],
                                                        "depth": 4,
                                                        "id": 5,
                                                        "order": 5
                                                    }
                                                ],
                                                "depth": 3,
                                                "id": 4,
                                                "order": 4
                                            },
                                            {
                                                "children": [
                                                    {
                                                        "children": [],
                                                        "depth": 4,
                                                        "id": 7,
                                                        "order": 7
                                                    }
                                                ],
                                                "depth": 3,
                                                "id": 6,
                                                "order": 6
                                            },
                                            {
                                                "children": [
                                                    {
                                                        "children": [
                                                            {
                                                                "children": [],
                                                                "depth": 5,
                                                                "id": 11,
                                                                "order": 11
                                                            },
                                                            {
                                                                "children": [],
                                                                "depth": 5,
                                                                "id": 12,
                                                                "order": 12
                                                            }
                                                        ],
                                                        "depth": 4,
                                                        "id": 10,
                                                        "order": 10
                                                    },
                                                    {
                                                        "children": [],
                                                        "depth": 4,
                                                        "id": 15,
                                                        "order": 15
                                                    },
                                                    {
                                                        "children": [],
                                                        "depth": 4,
                                                        "id": 16,
                                                        "order": 16
                                                    }
                                                ],
                                                "depth": 3,
                                                "id": 9,
                                                "order": 9
                                            }
                                        ],
                                        "depth": 2,
                                        "id": 3,
                                        "order": 3
                                    }
                                ],
                                "depth": 1,
                                "id": 1,
                                "order": 1
                            }
                        ],
                        "depth": 0,
                        "id": 0,
                        "order": 0
                    }
                ],
                "depth": -1,
                "id": -1,
                "order": -1
            }
        ],
        "tidyTraceNodeCount": 13
    },
    "state_change": {
        "stateChanges": []
    }
}