{
    "balance_change": {
        "balanceChanges": [
            {
                "account": "0xa63b05d2b373d0796a467e9a7e72bdf1a0934f1f",
                "assets": [
                    {
                        "address": "0x62b9f8741bf53a6986a5411c0557c30f6f11f3af",
                        "amount": "269",
                        "iconUrl": "",
                        "isERC1155": false,
                        "isERC721": false,
                        "sign": false,
                        "value": ""
                    }
                ]
            },
            {
                "account": "0xe9128bddedb72794869bb5d5f2e209ed090de862",
                "assets": [
                    {
                        "address": "0x62b9f8741bf53a6986a5411c0557c30f6f11f3af",
                        "amount": "269",
                        "iconUrl": "",
                        "isERC1155": false,
                        "isERC721": false,
                        "sign": true,
                        "value": ""
                    }
                ]
            }
        ]
    },
    "profile": {
        "basic_info": {
            "baseFee": "",
            "blockNumber": 8756662,
            "callData": "0xa9059cbb000000000000000000000000e9128bddedb72794869bb5d5f2e209ed090de86200000000000000000000000000000000000000000000000e951ffac6e4140000",
            "debugEnable": true,
            "errorInfo": "",
            "eventCount": 1,
            "feeRecipient": "0xea674fdde714fd979de3edf0f56aa9716b898ec8",
            "formatValue": "0",
            "gasLimit": 90000,
            "gasPrice": "20",
            "gasUsed": 37966,
            "intTxnCount": 0,
            "internalRevert": false,
            "internalRevertMessage": "",
            "isContractCreation": false,
            "isFlashloan": false,
            "maxFee": "",
            "nonce": 9212,
            "overwritedBlockNumber": -1,
            "priorityFee": "",
            "receiver": "0x62b9f8741bf53a6986a5411c0557c30f6f11f3af",
            "revertMessage": "",
            "sender": "0xa63b05d2b373d0796a467e9a7e72bdf1a0934f1f",
            "simulationEnable": true,
            "sourceTxnHash": "0x2ea079590a2310552aa6468be2bc7d0bca4b1b5f753182abdfc8d49c0169db5a",
            "status": true,
            "timestamp": "2019-10-17T05:11:44Z",
            "transactionFee": "0.00075932",
            "txnHash": "0x2ea079590a2310552aa6468be2bc7d0bca4b1b5f753182abdfc8d49c0169db5a",
            "txnIndex": 73,
            "type": 0,
            "value": "0"
        },
        "fund_flow": [
            {
                "amount": "269",
                "from": "0xa63b05d2b373d0796a467e9a7e72bdf1a0934f1f",
                "id": 1,
                "isERC1155": false,
                "isERC721": false,
                "isReverted": false,
                "order": 1,
                "to": "0xe9128bddedb72794869bb5d5f2e209ed090de862",
                "token": "0x62b9f8741bf53a6986a5411c0557c30f6f11f3af"
            }
        ],
        "token_infos": [
            {
                "address": "0xeeeeeeeeeeeeeeeeeeeeeeeeeeeeeeeeeeeeeeee",
                "decimals": 18
            },
            {
                "address": "0x62b9f8741bf53a6986a5411c0557c30f6f11f3af",
                "decimals": 18
            },
            {
                "address": "0xc02aaa39b223fe8d0a0e5c4f27ead9083c756cc2",
                "decimals": 18
            }
        ]
    },
    "address_label": {
        "labels": [
            {
                "address": "0xeeeeeeeeeeeeeeeeeeeeeeeeeeeeeeeeeeeeeeee",
                "label": "Ether"
            },
            {
                "address": "0x62b9f8741bf53a6986a5411c0557c30f6f11f3af",
                "label": "5GH (5GH)"
            },
            {
                "address": "0x0000000000000000000000000000000000000001",
                "label": "Precompiled"
            },
            {
                "address": "0x0000000000000000000000000000000000000002",
                "label": "Precompiled"
            },
            {
                "address": "0x0000000000000000000000000000000000000003",
                "label": "Precompiled"
            },
            {
                "address": "0x0000000000000000000000000000000000000004",
                "label": "Precompiled"
            }
        ]
    },
    "trace": {
        "accountLabels": null,
        "dataMap": {
            "-1": {
                "invocation": {
                    "address": "0xa63b05d2b373d0796a467e9a7e72bdf1a0934f1f",
                    "callData": "",
                    "decodedMethod": null,
                    "errorInfo": "",
                    "fromAddress": "",
                    "gasUsed": 0,
                    "id": -1,
                    "methodDecoded": false,
                    "operation": "",
                    "output": "",
                    "revert": false,
                    "revertMessage": "",
                    "selector": "",
                    "status": false,
                    "value": ""
                },
                "nodeType": 0
            },
            "0": {
                "invocation": {
                    "address": "0x62b9f8741bf53a6986a5411c0557c30f6f11f3af",
                    "callData": "0x000000000000000000000000e9128bddedb72794869bb5d5f2e209ed090de86200000000000000000000000000000000000000000000000e951ffac6e4140000",
                    "decodedMethod": {
                        "callParams": [
                            {
                                "name": "_to",
                                "type": "address",
                                "value": "0xe9128bddedb72794869bb5d5f2e209ed090de862"
                            },
                            {
                                "decimalAvailable": true,
                                "name": "_value",
                                "type": "uint256",
                                "value": "269,000,000,000,000,000,000"
                            }
                        ],
                        "constructorArguments": "",
                        "name": "transfer",
                        "returnParams": [
                            {
                                "name": "success",
                                "type": "bool",
                                "value": true
                            }
                        ],
                        "signature": "transfer(address,uint256)"
                    },
                    "errorInfo": "",
                    "fromAddress": "0xa63b05d2b373d0796a467e9a7e72bdf1a0934f1f",
                    "gasUsed": 37966,
                    "id": 0,
                    "methodDecoded": true,
                    "operation": "CALL",
                    "output": "0x0000000000000000000000000000000000000000000000000000000000000001",
                    "revert": false,
                    "revertMessage": "",
                    "selector": "0xa9059cbb",
                    "status": true,
                    "value": "0"
                },
                "nodeType": 0
            },
            "1": {
                "event": {
                    "contract": "0x62b9f8741bf53a6986a5411c0557c30f6f11f3af",
                    "decodedLog": {
                        "name": "Transfer",
                        "params": [
                            {
                                "name": "from",
                                "type": "address",
                                "value": "0xa63b05d2b373d0796a467e9a7e72bdf1a0934f1f"
                            },
                            {
                                "name": "to",
                                "type": "address",
                                "value": "0xe9128bddedb72794869bb5d5f2e209ed090de862"
                            },
                            {
                                "decimalAvailable": true,
                                "name": "value",
                                "type": "uint256",
                                "value": "269,000,000,000,000,000,000"
                            }
                        ],
                        "signature": "Transfer(address,address,uint256)"
                    },
                    "id": 1,
                    "logData": "0x00000000000000000000000000000000000000000000000e951ffac6e4140000",
                    "logDecoded": true,
                    "operation": "EVENT",
                    "revert": false,
                    "status": true,
                    "topics": [
                        "0xddf252ad1be2c89b69c2b068fc378daa952ba7f163c4a11628f55a4df523b3ef",
                        "0x000000000000000000000000a63b05d2b373d0796a467e9a7e72bdf1a0934f1f",
                        "0x000000000000000000000000e9128bddedb72794869bb5d5f2e209ed090de862"
                    ]
                },
                "nodeType": 1
            }
        },
        "gasFlame": [
            {
                "children": [
                    {
                        "children": [
                            {
                                "children": [],
                                "depth": 0,
                                "name": "Initial Gas",
                                "value": 23256
                            },
                            {
                                "children": [],
                                "depth": 0,
                                "name": "Executed Gas",
                                "value": 14710
                            }
                        ],
                        "depth": -1,
                        "name": "Actual Gas Used",
                        "value": 37966
                    },
                    {
                        "children": [],
                        "depth": -1,
                        "name": "Refunded Gas",
                        "value": 0
                    }
                ],
                "depth": -2,
                "name": "Total Gas",
                "value": 37966
            }
        ],
        "isConfirmed": true,
        "mainTrace": [
            {
                "children": [
                    {
                        "children": [
                            {
                                "children": [],
                                "depth": 1,
                                "id": 1,
                                "order": 1
                            }
                        ],
                        "depth": 0,
                        "id": 0,
                        "order": 0
                    }
                ],
                "depth": -1,
                "id": -1,
                "order": -1
            }
        ],
        "mainTraceNodeCount": 2,
        "parentIdMap": {
            "0": -1,
            "1": 0
        },
        "tidyTrace": [
            {
                "children": [
                    {
                        "children": [
                            {
                                "children": [],
                                "depth": 1,
                                "id": 1,
                                "order": 1
                            }
                        ],
                        "depth": 0,
                        "id": 0,
                        "order": 0
                    }
                ],
                "depth": -1,
                "id": -1,
                "order": -1
            }
        ],
        "tidyTraceNodeCount": 2
    },
    "state_change": {
        "stateChanges": [
            {
                "address": "0x62b9f8741bf53a6986a5411c0557c30f6f11f3af",
                "erc": "ERC-20",
                "slots": [
                    {
                        "current": "0x0000000000000000000000000000000000000000000005f93b7c096a6fbb0000",
                        "key": "0x50eab54198a5eb23f111b5b3453655f61bd1d8f75eebaf1141576420608822ab",
                        "prev": "0x000000000000000000000000000000000000000000000607d09c043153cf0000"
                    },
                    {
                        "current": "0x00000000000000000000000000000000000000000000001c9f78d2893e400000",
                        "key": "0x93696e748610ac924893bf1ae7d975b73867b96a85bb94ae4bbb64bca99e8e03",
                        "prev": "0x00000000000000000000000000000000000000000000000e0a58d7c25a2c0000"
                    }
                ],
                "storageVariables": [
                    {
                        "name": "balanceOf",
                        "type": "mapping(address => uint256)",
                        "value": {
                            "pairs": [
                                {
                                    "key": "0xa63b05d2b373d0796a467e9a7e72bdf1a0934f1f",
                                    "value": {
                                        "current": "28209358000000000000000",
                                        "prev": "28478358000000000000000",
                                        "typeTag": 1
                                    }
                                },
                                {
                                    "key": "0xe9128bddedb72794869bb5d5f2e209ed090de862",
                                    "value": {
                                        "current": "528000000000000000000",
                                        "prev": "259000000000000000000",
                                        "typeTag": 1
                                    }
                                }
                            ],
                            "typeTag": 4
                        }
                    }
                ]
            }
        ]
    }
}