{
    "balance_change": {
        "balanceChanges": []
    },
    "profile": {
        "basic_info": {
            "baseFee": "",
            "blockNumber": 6213437,
            "callData": "0x00ea3146e158bbd24cef33320ad7c0a7b6d84cbf3266a8056e0c7933f1ac4b08c647683b000000000000000000000000000000000000000000000000000000000000ea60",
            "debugEnable": true,
            "errorInfo": "",
            "eventCount": 1,
            "feeRecipient": "0x5a0b54d5dc17e0aadc383d2db43b0a0d3e029c4c",
            "formatValue": "0",
            "gasLimit": 200000,
            "gasPrice": "114.699",
            "gasUsed": 111142,
            "intTxnCount": 2,
            "internalRevert": false,
            "internalRevertMessage": "",
            "isContractCreation": false,
            "isFlashloan": false,
            "maxFee": "",
            "nonce": 9960,
            "overwritedBlockNumber": -1,
            "priorityFee": "",
            "receiver": "0x5ea8f2e8e9a58a82ed53b0dd91cc7cf1bf319b86",
            "revertMessage": "",
            "sender": "0xe615d5ce9c8c661198345bf72a4bdbf90acbef47",
            "simulationEnable": true,
            "sourceTxnHash": "0x2e3da099ae0bc064fbc9fcdb6d4d361fa0a2cf4d26ef1cf1a3fdfebbab22ce4e",
            "status": true,
            "timestamp": "2018-08-25T22:22:21Z",
            "transactionFee": "0.012747876258",
            "txnHash": "0x2e3da099ae0bc064fbc9fcdb6d4d361fa0a2cf4d26ef1cf1a3fdfebbab22ce4e",
            "txnIndex": 0,
            "type": 0,
            "value": "0"
        },
        "fund_flow": [],
        "token_infos": [
            {
                "address": "0xc02aaa39b223fe8d0a0e5c4f27ead9083c756cc2",
                "decimals": 18
            },
            {
                "address": "0xeeeeeeeeeeeeeeeeeeeeeeeeeeeeeeeeeeeeeeee",
                "decimals": 18
            }
        ]
    },
    "address_label": {
        "labels": [
            {
                "address": "0x5ea8f2e8e9a58a82ed53b0dd91cc7cf1bf319b86",
                "label": "Token"
            },
            {
                "address": "0xe9f84636f69adc9dbdcae9e46a05aa316eac251e",
                "label": "DataContract"
            },
            {
                "address": "0x0000000000000000000000000000000000000001",
                "label": "Precompiled"
            },
            {
                "address": "0x0000000000000000000000000000000000000002",
                "label": "Precompiled"
            },
            {
                "address": "0x0000000000000000000000000000000000000003",
                "label": "Precompiled"
            },
            {
                "address": "0x0000000000000000000000000000000000000004",
                "label": "Precompiled"
            },
            {
                "address": "0xeeeeeeeeeeeeeeeeeeeeeeeeeeeeeeeeeeeeeeee",
                "label": "Ether"
            }
        ]
    },
    "trace": {
        "accountLabels": null,
        "dataMap": {
            "-1": {
                "invocation": {
                    "address": "0xe615d5ce9c8c661198345bf72a4bdbf90acbef47",
                    "callData": "",
                    "decodedMethod": null,
                    "errorInfo": "",
                    "fromAddress": "",
                    "gasUsed": 0,
                    "id": -1,
                    "methodDecoded": false,
                    "operation": "",
                    "output": "",
                    "revert": false,
                    "revertMessage": "",
                    "selector": "",
                    "status": false,
                    "value": ""
                },
                "nodeType": 0
            },
            "0": {
                "invocation": {
                    "address": "0x5ea8f2e8e9a58a82ed53b0dd91cc7cf1bf319b86",
                    "callData": "0xe158bbd24cef33320ad7c0a7b6d84cbf3266a8056e0c7933f1ac4b08c647683b000000000000000000000000000000000000000000000000000000000000ea60",
                    "decodedMethod": {
                        "callParams": [
                            {
                                "name": "_preset",
                                "type": "bytes32",
                                "value": "0xe158bbd24cef33320ad7c0a7b6d84cbf3266a8056e0c7933f1ac4b08c647683b"
                            },
                            {
                                "name": "_price",
                                "type": "uint256",
                                "value": "60,000"
                            }
                        ],
                        "constructorArguments": "",
                        "name": "postGood",
                        "returnParams": [],
                        "signature": "postGood(bytes32,uint256)"
                    },
                    "errorInfo": "",
                    "fromAddress": "0xe615d5ce9c8c661198345bf72a4bdbf90acbef47",
                    "gasUsed": 111142,
                    "id": 0,
                    "methodDecoded": true,
                    "operation": "CALL",
                    "output": "",
                    "revert": false,
                    "revertMessage": "",
                    "selector": "0x00ea3146",
                    "status": true,
                    "value": "0"
                },
                "nodeType": 0
            },
            "1": {
                "invocation": {
                    "address": "0xe9f84636f69adc9dbdcae9e46a05aa316eac251e",
                    "callData": "0xe158bbd24cef33320ad7c0a7b6d84cbf3266a8056e0c7933f1ac4b08c647683b",
                    "decodedMethod": {
                        "callParams": [
                            {
                                "name": "_preset",
                                "type": "bytes32",
                                "value": "0xe158bbd24cef33320ad7c0a7b6d84cbf3266a8056e0c7933f1ac4b08c647683b"
                            }
                        ],
                        "constructorArguments": "",
                        "name": "getGoodPreset",
                        "returnParams": [
                            {
                                "name": "",
                                "type": "bytes32",
                                "value": "0x0000000000000000000000000000000000000000000000000000000000000000"
                            }
                        ],
                        "signature": "getGoodPreset(bytes32)"
                    },
                    "errorInfo": "",
                    "fromAddress": "0x5ea8f2e8e9a58a82ed53b0dd91cc7cf1bf319b86",
                    "gasUsed": 478,
                    "id": 1,
                    "methodDecoded": true,
                    "operation": "CALL",
                    "output": "0x0000000000000000000000000000000000000000000000000000000000000000",
                    "revert": false,
                    "revertMessage": "",
                    "selector": "0x6ccde640",
                    "status": true,
                    "value": "0"
                },
                "nodeType": 0
            },
            "2": {
                "invocation": {
                    "address": "0xe9f84636f69adc9dbdcae9e46a05aa316eac251e",
                    "callData": "0xe158bbd24cef33320ad7c0a7b6d84cbf3266a8056e0c7933f1ac4b08c647683b000000000000000000000000000000000000000000000000000000000000ea60000000000000000000000000000000000000000000000000000000000000e035",
                    "decodedMethod": {
                        "callParams": [
                            {
                                "name": "_preset",
                                "type": "bytes32",
                                "value": "0xe158bbd24cef33320ad7c0a7b6d84cbf3266a8056e0c7933f1ac4b08c647683b"
                            },
                            {
                                "name": "_price",
                                "type": "uint256",
                                "value": "60,000"
                            },
                            {
                                "name": "_decision",
                                "type": "uint256",
                                "value": "57,397"
                            }
                        ],
                        "constructorArguments": "",
                        "name": "setGood",
                        "returnParams": [],
                        "signature": "setGood(bytes32,uint256,uint256)"
                    },
                    "errorInfo": "",
                    "fromAddress": "0x5ea8f2e8e9a58a82ed53b0dd91cc7cf1bf319b86",
                    "gasUsed": 81180,
                    "id": 2,
                    "methodDecoded": true,
                    "operation": "CALL",
                    "output": "",
                    "revert": false,
                    "revertMessage": "",
                    "selector": "0xfffa9d0c",
                    "status": true,
                    "value": "0"
                },
                "nodeType": 0
            },
            "3": {
                "event": {
                    "contract": "0x5ea8f2e8e9a58a82ed53b0dd91cc7cf1bf319b86",
                    "decodedLog": {
                        "name": "Decision",
                        "params": [
                            {
                                "name": "decision",
                                "type": "uint256",
                                "value": "57,397"
                            },
                            {
                                "name": "preset",
                                "type": "bytes32",
                                "value": "0xe158bbd24cef33320ad7c0a7b6d84cbf3266a8056e0c7933f1ac4b08c647683b"
                            }
                        ],
                        "signature": "Decision(uint256,bytes32)"
                    },
                    "id": 3,
                    "logData": "0x000000000000000000000000000000000000000000000000000000000000e035e158bbd24cef33320ad7c0a7b6d84cbf3266a8056e0c7933f1ac4b08c647683b",
                    "logDecoded": true,
                    "operation": "EVENT",
                    "revert": false,
                    "status": true,
                    "topics": [
                        "0xc730c54413565eb536631d0a809b3d46749118b061b1e99ea79388d662b6a3d0"
                    ]
                },
                "nodeType": 1
            }
        },
        "gasFlame": [
            {
                "children": [
                    {
                        "children": [
                            {
                                "children": [],
                                "depth": 0,
                                "name": "Initial Gas",
                                "value": 23640
                            },
                            {
                                "children": [
                                    {
                                        "children": [],
                                        "depth": 1,
                                        "name": "getGoodPreset",
                                        "value": 478
                                    },
                                    {
                                        "children": [],
                                        "depth": 1,
                                        "name": "setGood",
                                        "value": 81180
                                    }
                                ],
                                "depth": 0,
                                "name": "Executed Gas",
                                "value": 87502
                            }
                        ],
                        "depth": -1,
                        "name": "Actual Gas Used",
                        "value": 111142
                    },
                    {
                        "children": [],
                        "depth": -1,
                        "name": "Refunded Gas",
                        "value": 0
                    }
                ],
                "depth": -2,
                "name": "Total Gas",
                "value": 111142
            }
        ],
        "isConfirmed": true,
        "mainTrace": [
            {
                "children": [
                    {
                        "children": [
                            {
                                "children": [],
                                "depth": 1,
                                "id": 1,
                                "order": 1
                            },
                            {
                                "children": [],
                                "depth": 1,
                                "id": 2,
                                "order": 2
                            },
                            {
                                "children": [],
                                "depth": 1,
                                "id": 3,
                                "order": 3
                            }
                        ],
                        "depth": 0,
                        "id": 0,
                        "order": 0
                    }
                ],
                "depth": -1,
                "id": -1,
                "order": -1
            }
        ],
        "mainTraceNodeCount": 4,
        "parentIdMap": {
            "0": -1,
            "1": 0,
            "2": 0,
            "3": 0
        },
        "tidyTrace": [
            {
                "children": [
                    {
                        "children": [
                            {
                                "children": [],
                                "depth": 1,
                                "id": 1,
                                "order": 1
                            },
                            {
                                "children": [],
                                "depth": 1,
                                "id": 2,
                                "order": 2
                            },
                            {
                                "children": [],
                                "depth": 1,
                                "id": 3,
                                "order": 3
                            }
                        ],
                        "depth": 0,
                        "id": 0,
                        "order": 0
                    }
                ],
                "depth": -1,
                "id": -1,
                "order": -1
            }
        ],
        "tidyTraceNodeCount": 4
    },
    "state_change": {
        "stateChanges": [
            {
                "address": "0xe9f84636f69adc9dbdcae9e46a05aa316eac251e",
                "erc": "",
                "slots": [
                    {
                        "current": "0x000000000000000000000000000000000000000000000000000000000000e035",
                        "key": "0x23aa5ccfeb15611769223af9490964a0305d92b241130344219727851de14443",
                        "prev": "0x0000000000000000000000000000000000000000000000000000000000000000"
                    },
                    {
                        "current": "0x000000000000000000000000000000000000000000000000000000005b81d69d",
                        "key": "0x23aa5ccfeb15611769223af9490964a0305d92b241130344219727851de14444",
                        "prev": "0x0000000000000000000000000000000000000000000000000000000000000000"
                    },
                    {
                        "current": "0xe158bbd24cef33320ad7c0a7b6d84cbf3266a8056e0c7933f1ac4b08c647683b",
                        "key": "0x23aa5ccfeb15611769223af9490964a0305d92b241130344219727851de14441",
                        "prev": "0x0000000000000000000000000000000000000000000000000000000000000000"
                    },
                    {
                        "current": "0x000000000000000000000000000000000000000000000000000000000000ea60",
                        "key": "0x23aa5ccfeb15611769223af9490964a0305d92b241130344219727851de14442",
                        "prev": "0x0000000000000000000000000000000000000000000000000000000000000000"
                    }
                ],
                "storageVariables": [
                    {
                        "name": "goods",
                        "type": "mapping(bytes32 => struct DataContract.Good)",
                        "value": {
                            "pairs": [
                                {
                                    "key": "0xe158bbd24cef33320ad7c0a7b6d84cbf3266a8056e0c7933f1ac4b08c647683b",
                                    "value": {
                                        "fields": [
                                            {
                                                "name": "preset",
                                                "type": "bytes32",
                                                "value": {
                                                    "current": "0xe158bbd24cef33320ad7c0a7b6d84cbf3266a8056e0c7933f1ac4b08c647683b",
                                                    "prev": "0x0000000000000000000000000000000000000000000000000000000000000000",
                                                    "typeTag": 1
                                                }
                                            },
                                            {
                                                "name": "price",
                                                "type": "uint256",
                                                "value": {
                                                    "current": "60000",
                                                    "prev": "0",
                                                    "typeTag": 1
                                                }
                                            },
                                            {
                                                "name": "decision",
                                                "type": "uint256",
                                                "value": {
                                                    "current": "57397",
                                                    "prev": "0",
                                                    "typeTag": 1
                                                }
                                            },
                                            {
                                                "name": "time",
                                                "type": "uint256",
                                                "value": {
                                                    "current": "1535235741",
                                                    "prev": "0",
                                                    "typeTag": 1
                                                }
                                            }
                                        ],
                                        "typeTag": 3
                                    }
                                }
                            ],
                            "typeTag": 4
                        }
                    }
                ]
            }
        ]
    }
}