{
    "balance_change": {
        "balanceChanges": [
            {
                "account": "0x7b7f5d6c9e6865bbc1b6b909077e75801a1be3d0",
                "assets": [
                    {
                        "address": "0x4575f41308ec1483f3d399aa9a2826d74da13deb",
                        "amount": "500,000",
                        "iconUrl": "https://assets.blocksec.com/icon/58431d032f407cc88872945d7e590d5c8b02bedcfb9b67335dc2b97e0831f841.png",
                        "isERC1155": false,
                        "isERC721": false,
                        "sign": false,
                        "value": "18605.40339"
                    }
                ]
            },
            {
                "account": "0x280c82e3cafab3bfc00f1c37a2e29ee0274f753c",
                "assets": [
                    {
                        "address": "0x4575f41308ec1483f3d399aa9a2826d74da13deb",
                        "amount": "500,000",
                        "iconUrl": "https://assets.blocksec.com/icon/58431d032f407cc88872945d7e590d5c8b02bedcfb9b67335dc2b97e0831f841.png",
                        "isERC1155": false,
                        "isERC721": false,
                        "sign": true,
                        "value": "18605.40339"
                    }
                ]
            }
        ]
    },
    "profile": {
        "basic_info": {
            "baseFee": "",
            "blockNumber": 11285622,
            "callData": "0xa9059cbb000000000000000000000000280c82e3cafab3bfc00f1c37a2e29ee0274f753c0000000000000000000000000000000000000000000069e10de76676d0800000",
            "debugEnable": true,
            "errorInfo": "",
            "eventCount": 1,
            "feeRecipient": "0x829bd824b016326a401d083b33d092293333a830",
            "formatValue": "0",
            "gasLimit": 200000,
            "gasPrice": "42",
            "gasUsed": 21196,
            "intTxnCount": 0,
            "internalRevert": false,
            "internalRevertMessage": "",
            "isContractCreation": false,
            "isFlashloan": false,
            "maxFee": "",
            "nonce": 0,
            "overwritedBlockNumber": -1,
            "priorityFee": "",
            "receiver": "0x4575f41308ec1483f3d399aa9a2826d74da13deb",
            "revertMessage": "",
            "sender": "0x7b7f5d6c9e6865bbc1b6b909077e75801a1be3d0",
            "simulationEnable": true,
            "sourceTxnHash": "0x2e22435c61d054139c6197c814d197b13f0f30513ec37f2ac97d713e523dbc0e",
            "status": true,
            "timestamp": "2020-11-19T02:14:30Z",
            "transactionFee": "0.000890232",
            "txnHash": "0x2e22435c61d054139c6197c814d197b13f0f30513ec37f2ac97d713e523dbc0e",
            "txnIndex": 32,
            "type": 0,
            "value": "0"
        },
        "fund_flow": [
            {
                "amount": "500,000",
                "from": "0x7b7f5d6c9e6865bbc1b6b909077e75801a1be3d0",
                "id": 1,
                "isERC1155": false,
                "isERC721": false,
                "isReverted": false,
                "order": 1,
                "to": "0x280c82e3cafab3bfc00f1c37a2e29ee0274f753c",
                "token": "0x4575f41308ec1483f3d399aa9a2826d74da13deb"
            }
        ],
        "token_infos": [
            {
                "address": "0x4575f41308ec1483f3d399aa9a2826d74da13deb",
                "decimals": 18
            },
            {
                "address": "0xc02aaa39b223fe8d0a0e5c4f27ead9083c756cc2",
                "decimals": 18
            },
            {
                "address": "0xeeeeeeeeeeeeeeeeeeeeeeeeeeeeeeeeeeeeeeee",
                "decimals": 18
            }
        ]
    },
    "address_label": {
        "labels": [
            {
                "address": "0x0000000000000000000000000000000000000001",
                "label": "Precompiled"
            },
            {
                "address": "0x0000000000000000000000000000000000000002",
                "label": "Precompiled"
            },
            {
                "address": "0x0000000000000000000000000000000000000003",
                "label": "Precompiled"
            },
            {
                "address": "0x0000000000000000000000000000000000000004",
                "label": "Precompiled"
            },
            {
                "address": "0xeeeeeeeeeeeeeeeeeeeeeeeeeeeeeeeeeeeeeeee",
                "label": "Ether"
            },
            {
                "address": "0x4575f41308ec1483f3d399aa9a2826d74da13deb",
                "label": "Orchid: OXT Token"
            }
        ]
    },
    "trace": {
        "accountLabels": null,
        "dataMap": {
            "-1": {
                "invocation": {
                    "address": "0x7b7f5d6c9e6865bbc1b6b909077e75801a1be3d0",
                    "callData": "",
                    "decodedMethod": null,
                    "errorInfo": "",
                    "fromAddress": "",
                    "gasUsed": 0,
                    "id": -1,
                    "methodDecoded": false,
                    "operation": "",
                    "output": "",
                    "revert": false,
                    "revertMessage": "",
                    "selector": "",
                    "status": false,
                    "value": ""
                },
                "nodeType": 0
            },
            "0": {
                "invocation": {
                    "address": "0x4575f41308ec1483f3d399aa9a2826d74da13deb",
                    "callData": "0x000000000000000000000000280c82e3cafab3bfc00f1c37a2e29ee0274f753c0000000000000000000000000000000000000000000069e10de76676d0800000",
                    "decodedMethod": {
                        "callParams": [
                            {
                                "name": "recipient",
                                "type": "address",
                                "value": "0x280c82e3cafab3bfc00f1c37a2e29ee0274f753c"
                            },
                            {
                                "decimalAvailable": true,
                                "name": "amount",
                                "type": "uint256",
                                "value": "500,000,000,000,000,000,000,000"
                            }
                        ],
                        "constructorArguments": "",
                        "name": "transfer",
                        "returnParams": [
                            {
                                "name": "",
                                "type": "bool",
                                "value": true
                            }
                        ],
                        "signature": "transfer(address,uint256)"
                    },
                    "errorInfo": "",
                    "fromAddress": "0x7b7f5d6c9e6865bbc1b6b909077e75801a1be3d0",
                    "gasUsed": 21196,
                    "id": 0,
                    "methodDecoded": true,
                    "operation": "CALL",
                    "output": "0x0000000000000000000000000000000000000000000000000000000000000001",
                    "revert": false,
                    "revertMessage": "",
                    "selector": "0xa9059cbb",
                    "status": true,
                    "value": "0"
                },
                "nodeType": 0
            },
            "1": {
                "event": {
                    "contract": "0x4575f41308ec1483f3d399aa9a2826d74da13deb",
                    "decodedLog": {
                        "name": "Transfer",
                        "params": [
                            {
                                "name": "from",
                                "type": "address",
                                "value": "0x7b7f5d6c9e6865bbc1b6b909077e75801a1be3d0"
                            },
                            {
                                "name": "to",
                                "type": "address",
                                "value": "0x280c82e3cafab3bfc00f1c37a2e29ee0274f753c"
                            },
                            {
                                "decimalAvailable": true,
                                "name": "value",
                                "type": "uint256",
                                "value": "500,000,000,000,000,000,000,000"
                            }
                        ],
                        "signature": "Transfer(address,address,uint256)"
                    },
                    "id": 1,
                    "logData": "0x0000000000000000000000000000000000000000000069e10de76676d0800000",
                    "logDecoded": true,
                    "operation": "EVENT",
                    "revert": false,
                    "status": true,
                    "topics": [
                        "0xddf252ad1be2c89b69c2b068fc378daa952ba7f163c4a11628f55a4df523b3ef",
                        "0x0000000000000000000000007b7f5d6c9e6865bbc1b6b909077e75801a1be3d0",
                        "0x000000000000000000000000280c82e3cafab3bfc00f1c37a2e29ee0274f753c"
                    ]
                },
                "nodeType": 1
            }
        },
        "gasFlame": [
            {
                "children": [
                    {
                        "children": [
                            {
                                "children": [],
                                "depth": 0,
                                "name": "Initial Gas",
                                "value": 21656
                            },
                            {
                                "children": [],
                                "depth": 0,
                                "name": "Executed Gas",
                                "value": 14540
                            }
                        ],
                        "depth": -1,
                        "name": "Actual Gas Used",
                        "value": 21196
                    },
                    {
                        "children": [],
                        "depth": -1,
                        "name": "Refunded Gas",
                        "value": 15000
                    }
                ],
                "depth": -2,
                "name": "Total Gas",
                "value": 36196
            }
        ],
        "isConfirmed": true,
        "mainTrace": [
            {
                "children": [
                    {
                        "children": [
                            {
                                "children": [],
                                "depth": 1,
                                "id": 1,
                                "order": 1
                            }
                        ],
                        "depth": 0,
                        "id": 0,
                        "order": 0
                    }
                ],
                "depth": -1,
                "id": -1,
                "order": -1
            }
        ],
        "mainTraceNodeCount": 2,
        "parentIdMap": {
            "0": -1,
            "1": 0
        },
        "tidyTrace": [
            {
                "children": [
                    {
                        "children": [
                            {
                                "children": [],
                                "depth": 1,
                                "id": 1,
                                "order": 1
                            }
                        ],
                        "depth": 0,
                        "id": 0,
                        "order": 0
                    }
                ],
                "depth": -1,
                "id": -1,
                "order": -1
            }
        ],
        "tidyTraceNodeCount": 2
    },
    "state_change": {
        "stateChanges": [
            {
                "address": "0x4575f41308ec1483f3d399aa9a2826d74da13deb",
                "erc": "ERC-20",
                "slots": [
                    {
                        "current": "0x0000000000000000000000000000000000000000000000000000000000000000",
                        "key": "0x698a12de81929b497cfea4a3f08cfd39473cb5d1e38fd79a6b83db5ad8812092",
                        "prev": "0x0000000000000000000000000000000000000000000069e10de76676d0800000"
                    },
                    {
                        "current": "0x0000000000000000000000000000000000000000000671fbaff8e03bf942cc15",
                        "key": "0xbba1f049a66d80d833f77972d2f1f052d4a4ffc60b29576479d338bcabf20a1e",
                        "prev": "0x00000000000000000000000000000000000000000006081aa21179c528c2cc15"
                    }
                ],
                "storageVariables": [
                    {
                        "name": "_balances",
                        "type": "mapping(address => uint256)",
                        "value": {
                            "pairs": [
                                {
                                    "key": "0x280c82e3cafab3bfc00f1c37a2e29ee0274f753c",
                                    "value": {
                                        "current": "7791825143145845106068501",
                                        "prev": "7291825143145845106068501",
                                        "typeTag": 1
                                    }
                                },
                                {
                                    "key": "0x7b7f5d6c9e6865bbc1b6b909077e75801a1be3d0",
                                    "value": {
                                        "current": "0",
                                        "prev": "500000000000000000000000",
                                        "typeTag": 1
                                    }
                                }
                            ],
                            "typeTag": 4
                        }
                    }
                ]
            }
        ]
    }
}