{
    "balance_change": {
        "balanceChanges": [
            {
                "account": "0x0000000000000000000000000000000000000000",
                "assets": [
                    {
                        "address": "0x2b847bce958a3bc6207d4a8de347ca90ac73d29b",
                        "amount": "1",
                        "iconUrl": "",
                        "isERC1155": false,
                        "isERC721": true,
                        "sign": false,
                        "tokenID": "46",
                        "value": ""
                    }
                ]
            },
            {
                "account": "0x8399c9cff1c2e458c3ec37f23e54ebfa95c9169b",
                "assets": [
                    {
                        "address": "0x2b847bce958a3bc6207d4a8de347ca90ac73d29b",
                        "amount": "1",
                        "iconUrl": "",
                        "isERC1155": false,
                        "isERC721": true,
                        "sign": true,
                        "tokenID": "46",
                        "value": ""
                    }
                ]
            }
        ]
    },
    "profile": {
        "basic_info": {
            "baseFee": "21.072370761",
            "blockNumber": 16774593,
            "callData": "0x1b2ef1ca000000000000000000000000000000000000000000000000000000000000011100000000000000000000000000000000000000000000000000000000000000a9",
            "debugEnable": true,
            "errorInfo": "",
            "eventCount": 1,
            "feeRecipient": "0xdafea492d9c6733ae3d56b7ed1adb60692c98bc5",
            "formatValue": "0",
            "gasLimit": 183731,
            "gasPrice": "21.572370761",
            "gasUsed": 167028,
            "intTxnCount": 4,
            "internalRevert": false,
            "internalRevertMessage": "",
            "isContractCreation": false,
            "isFlashloan": false,
            "maxFee": "27.469149193",
            "nonce": 327,
            "overwritedBlockNumber": -1,
            "priorityFee": "0.5",
            "receiver": "0x2b847bce958a3bc6207d4a8de347ca90ac73d29b",
            "revertMessage": "",
            "sender": "0x8399c9cff1c2e458c3ec37f23e54ebfa95c9169b",
            "simulationEnable": true,
            "sourceTxnHash": "0x2e7632053c7c19a8026738667e7fcea30a54e8c2fcbc445823b84780a2ffa05f",
            "status": true,
            "timestamp": "2023-03-07T06:17:59Z",
            "transactionFee": "0.003603189943468308",
            "txnHash": "0x2e7632053c7c19a8026738667e7fcea30a54e8c2fcbc445823b84780a2ffa05f",
            "txnIndex": 92,
            "type": 2,
            "value": "0"
        },
        "fund_flow": [
            {
                "amount": "1",
                "from": "0x0000000000000000000000000000000000000000",
                "id": 1,
                "isERC1155": false,
                "isERC721": true,
                "isReverted": false,
                "order": 1,
                "to": "0x8399c9cff1c2e458c3ec37f23e54ebfa95c9169b",
                "token": "0x2b847bce958a3bc6207d4a8de347ca90ac73d29b",
                "tokenID": "46"
            }
        ],
        "token_infos": [
            {
                "address": "0xc02aaa39b223fe8d0a0e5c4f27ead9083c756cc2",
                "decimals": 18
            },
            {
                "address": "0xeeeeeeeeeeeeeeeeeeeeeeeeeeeeeeeeeeeeeeee",
                "decimals": 18
            }
        ]
    },
    "address_label": {
        "labels": [
            {
                "address": "0x0000000000000000000000000000000000000002",
                "label": "Precompiled"
            },
            {
                "address": "0x0000000000000000000000000000000000000003",
                "label": "Precompiled"
            },
            {
                "address": "0x0000000000000000000000000000000000000004",
                "label": "Precompiled"
            },
            {
                "address": "0xeeeeeeeeeeeeeeeeeeeeeeeeeeeeeeeeeeeeeeee",
                "label": "Ether"
            },
            {
                "address": "0x516677d72c721f992e99033896b237b6123c16ca",
                "label": "Bueno721Drop"
            },
            {
                "address": "0x2b847bce958a3bc6207d4a8de347ca90ac73d29b",
                "label": "momentum. (momentum.)"
            },
            {
                "address": "0x9b0db519b4a9503b91c0712999b2545eabb941d9",
                "label": "e-1. (e-1-ex-co...)"
            },
            {
                "address": "0x0000000000000000000000000000000000000001",
                "label": "Precompiled"
            }
        ]
    },
    "trace": {
        "accountLabels": null,
        "dataMap": {
            "-1": {
                "invocation": {
                    "address": "0x8399c9cff1c2e458c3ec37f23e54ebfa95c9169b",
                    "callData": "",
                    "decodedMethod": null,
                    "errorInfo": "",
                    "fromAddress": "",
                    "gasUsed": 0,
                    "id": -1,
                    "methodDecoded": false,
                    "operation": "",
                    "output": "",
                    "revert": false,
                    "revertMessage": "",
                    "selector": "",
                    "status": false,
                    "value": ""
                },
                "nodeType": 0
            },
            "0": {
                "invocation": {
                    "address": "0x2b847bce958a3bc6207d4a8de347ca90ac73d29b",
                    "callData": "0x000000000000000000000000000000000000000000000000000000000000011100000000000000000000000000000000000000000000000000000000000000a9",
                    "decodedMethod": {
                        "callParams": [
                            {
                                "name": "_e1",
                                "type": "uint256",
                                "value": "273"
                            },
                            {
                                "name": "_f2",
                                "type": "uint256",
                                "value": "169"
                            }
                        ],
                        "constructorArguments": "",
                        "name": "mint",
                        "returnParams": [],
                        "signature": "mint(uint256,uint256)"
                    },
                    "errorInfo": "",
                    "fromAddress": "0x8399c9cff1c2e458c3ec37f23e54ebfa95c9169b",
                    "gasUsed": 167028,
                    "id": 0,
                    "methodDecoded": true,
                    "operation": "CALL",
                    "output": "",
                    "revert": false,
                    "revertMessage": "",
                    "selector": "0x1b2ef1ca",
                    "status": true,
                    "value": "0"
                },
                "nodeType": 0
            },
            "1": {
                "invocation": {
                    "address": "0x9b0db519b4a9503b91c0712999b2545eabb941d9",
                    "callData": "0x0000000000000000000000000000000000000000000000000000000000000111",
                    "decodedMethod": {
                        "callParams": [
                            {
                                "name": "tokenId",
                                "type": "uint256",
                                "value": "273"
                            }
                        ],
                        "constructorArguments": "",
                        "name": "ownerOf",
                        "returnParams": [
                            {
                                "name": "",
                                "type": "address",
                                "value": "0x8399c9cff1c2e458c3ec37f23e54ebfa95c9169b"
                            }
                        ],
                        "signature": "ownerOf(uint256)"
                    },
                    "errorInfo": "",
                    "fromAddress": "0x2b847bce958a3bc6207d4a8de347ca90ac73d29b",
                    "gasUsed": 5765,
                    "id": 1,
                    "methodDecoded": true,
                    "operation": "STATICCALL",
                    "output": "0x0000000000000000000000008399c9cff1c2e458c3ec37f23e54ebfa95c9169b",
                    "revert": false,
                    "revertMessage": "",
                    "selector": "0x6352211e",
                    "status": true,
                    "value": "0"
                },
                "nodeType": 0
            },
            "2": {
                "invocation": {
                    "address": "0x516677d72c721f992e99033896b237b6123c16ca",
                    "callData": "0x0000000000000000000000000000000000000000000000000000000000000111",
                    "decodedMethod": {
                        "callParams": [
                            {
                                "name": "tokenId",
                                "type": "uint256",
                                "value": "273"
                            }
                        ],
                        "constructorArguments": "",
                        "name": "ownerOf",
                        "returnParams": [
                            {
                                "name": "",
                                "type": "address",
                                "value": "0x8399c9cff1c2e458c3ec37f23e54ebfa95c9169b"
                            }
                        ],
                        "signature": "ownerOf(uint256)"
                    },
                    "errorInfo": "",
                    "fromAddress": "0x9b0db519b4a9503b91c0712999b2545eabb941d9",
                    "gasUsed": 3093,
                    "id": 2,
                    "methodDecoded": true,
                    "operation": "DELEGATECALL",
                    "output": "0x0000000000000000000000008399c9cff1c2e458c3ec37f23e54ebfa95c9169b",
                    "revert": false,
                    "revertMessage": "",
                    "selector": "0x6352211e",
                    "status": true,
                    "value": "0"
                },
                "nodeType": 0
            },
            "3": {
                "invocation": {
                    "address": "0xf9bef5a0cf1643c047af9e655a4bf54323898cfd",
                    "callData": "0x00000000000000000000000000000000000000000000000000000000000000a9",
                    "decodedMethod": {
                        "callParams": [
                            {
                                "name": "tokenId",
                                "type": "uint256",
                                "value": "169"
                            }
                        ],
                        "constructorArguments": "",
                        "name": "ownerOf",
                        "returnParams": [
                            {
                                "name": "",
                                "type": "address",
                                "value": "0x8399c9cff1c2e458c3ec37f23e54ebfa95c9169b"
                            }
                        ],
                        "signature": "ownerOf(uint256)"
                    },
                    "errorInfo": "",
                    "fromAddress": "0x2b847bce958a3bc6207d4a8de347ca90ac73d29b",
                    "gasUsed": 3265,
                    "id": 3,
                    "methodDecoded": true,
                    "operation": "STATICCALL",
                    "output": "0x0000000000000000000000008399c9cff1c2e458c3ec37f23e54ebfa95c9169b",
                    "revert": false,
                    "revertMessage": "",
                    "selector": "0x6352211e",
                    "status": true,
                    "value": "0"
                },
                "nodeType": 0
            },
            "4": {
                "invocation": {
                    "address": "0x516677d72c721f992e99033896b237b6123c16ca",
                    "callData": "0x00000000000000000000000000000000000000000000000000000000000000a9",
                    "decodedMethod": {
                        "callParams": [
                            {
                                "name": "tokenId",
                                "type": "uint256",
                                "value": "169"
                            }
                        ],
                        "constructorArguments": "",
                        "name": "ownerOf",
                        "returnParams": [
                            {
                                "name": "",
                                "type": "address",
                                "value": "0x8399c9cff1c2e458c3ec37f23e54ebfa95c9169b"
                            }
                        ],
                        "signature": "ownerOf(uint256)"
                    },
                    "errorInfo": "",
                    "fromAddress": "0xf9bef5a0cf1643c047af9e655a4bf54323898cfd",
                    "gasUsed": 3093,
                    "id": 4,
                    "methodDecoded": true,
                    "operation": "DELEGATECALL",
                    "output": "0x0000000000000000000000008399c9cff1c2e458c3ec37f23e54ebfa95c9169b",
                    "revert": false,
                    "revertMessage": "",
                    "selector": "0x6352211e",
                    "status": true,
                    "value": "0"
                },
                "nodeType": 0
            },
            "5": {
                "event": {
                    "contract": "0x2b847bce958a3bc6207d4a8de347ca90ac73d29b",
                    "decodedLog": {
                        "name": "Transfer",
                        "params": [
                            {
                                "name": "from",
                                "type": "address",
                                "value": "0x0000000000000000000000000000000000000000"
                            },
                            {
                                "name": "to",
                                "type": "address",
                                "value": "0x8399c9cff1c2e458c3ec37f23e54ebfa95c9169b"
                            },
                            {
                                "decimalAvailable": true,
                                "name": "tokenId",
                                "type": "uint256",
                                "value": "46"
                            }
                        ],
                        "signature": "Transfer(address,address,uint256)"
                    },
                    "id": 5,
                    "logData": "0x",
                    "logDecoded": true,
                    "operation": "EVENT",
                    "revert": false,
                    "status": true,
                    "topics": [
                        "0xddf252ad1be2c89b69c2b068fc378daa952ba7f163c4a11628f55a4df523b3ef",
                        "0x0000000000000000000000000000000000000000000000000000000000000000",
                        "0x0000000000000000000000008399c9cff1c2e458c3ec37f23e54ebfa95c9169b",
                        "0x000000000000000000000000000000000000000000000000000000000000002e"
                    ]
                },
                "nodeType": 1
            }
        },
        "gasFlame": [
            {
                "children": [
                    {
                        "children": [
                            {
                                "children": [],
                                "depth": 0,
                                "name": "Initial Gas",
                                "value": 21356
                            },
                            {
                                "children": [
                                    {
                                        "children": [
                                            {
                                                "children": [],
                                                "depth": 2,
                                                "name": "ownerOf",
                                                "value": 3093
                                            }
                                        ],
                                        "depth": 1,
                                        "name": "ownerOf",
                                        "value": 5765
                                    },
                                    {
                                        "children": [
                                            {
                                                "children": [],
                                                "depth": 2,
                                                "name": "ownerOf",
                                                "value": 3093
                                            }
                                        ],
                                        "depth": 1,
                                        "name": "ownerOf",
                                        "value": 3265
                                    }
                                ],
                                "depth": 0,
                                "name": "Executed Gas",
                                "value": 145672
                            }
                        ],
                        "depth": -1,
                        "name": "Actual Gas Used",
                        "value": 167028
                    },
                    {
                        "children": [],
                        "depth": -1,
                        "name": "Refunded Gas",
                        "value": 0
                    }
                ],
                "depth": -2,
                "name": "Total Gas",
                "value": 167028
            }
        ],
        "isConfirmed": true,
        "mainTrace": [
            {
                "children": [
                    {
                        "children": [
                            {
                                "children": [
                                    {
                                        "children": [],
                                        "depth": 2,
                                        "id": 2,
                                        "order": 2
                                    }
                                ],
                                "depth": 1,
                                "id": 1,
                                "order": 1
                            },
                            {
                                "children": [
                                    {
                                        "children": [],
                                        "depth": 2,
                                        "id": 4,
                                        "order": 4
                                    }
                                ],
                                "depth": 1,
                                "id": 3,
                                "order": 3
                            },
                            {
                                "children": [],
                                "depth": 1,
                                "id": 5,
                                "order": 5
                            }
                        ],
                        "depth": 0,
                        "id": 0,
                        "order": 0
                    }
                ],
                "depth": -1,
                "id": -1,
                "order": -1
            }
        ],
        "mainTraceNodeCount": 6,
        "parentIdMap": {
            "0": -1,
            "1": 0,
            "2": 1,
            "3": 0,
            "4": 3,
            "5": 0
        },
        "tidyTrace": [
            {
                "children": [
                    {
                        "children": [
                            {
                                "children": [],
                                "depth": 1,
                                "id": 5,
                                "order": 5
                            }
                        ],
                        "depth": 0,
                        "id": 0,
                        "order": 0
                    }
                ],
                "depth": -1,
                "id": -1,
                "order": -1
            }
        ],
        "tidyTraceNodeCount": 2
    },
    "state_change": {
        "stateChanges": [
            {
                "address": "0x2b847bce958a3bc6207d4a8de347ca90ac73d29b",
                "erc": "ERC-721",
                "slots": [
                    {
                        "current": "0x0000000000000000000000000000000000000000000000000000000000000001",
                        "key": "0x6215bf6662e4c270c9842a4d42326848876e50e0f70f323b130d7ed5ec0db308",
                        "prev": "0x0000000000000000000000000000000000000000000000000000000000000000"
                    },
                    {
                        "current": "0x0000000000000000000000000000000000000000000000000000000000000001",
                        "key": "0x57df202fd12582703230fa83d75163eea16d78595f0bf57d55c77e715c0db6b8",
                        "prev": "0x0000000000000000000000000000000000000000000000000000000000000000"
                    },
                    {
                        "current": "0x0000000000000000000000000000000000000000000000000000000000000111",
                        "key": "0xe26ed9d99babfec354f7cfa35997d140fd73e605c766a5636a0b075f5e200d15",
                        "prev": "0x0000000000000000000000000000000000000000000000000000000000000000"
                    },
                    {
                        "current": "0x00000000000000000000000000000000000000000000000000000000000000a9",
                        "key": "0xe26ed9d99babfec354f7cfa35997d140fd73e605c766a5636a0b075f5e200d16",
                        "prev": "0x0000000000000000000000000000000000000000000000000000000000000000"
                    },
                    {
                        "current": "0x0000000000000000000000000000000000000000000000020000000000000002",
                        "key": "0xd7190477744bd57fcd09bf94c98938f8d012ae8be7b23f3b758de464b6bcf68f",
                        "prev": "0x0000000000000000000000000000000000000000000000010000000000000001"
                    },
                    {
                        "current": "0x00000002000000006406d7178399c9cff1c2e458c3ec37f23e54ebfa95c9169b",
                        "key": "0x3377cca8db66d73c9613cf008dc21372e328915d0ae53c1e79018b2f3033b4be",
                        "prev": "0x0000000000000000000000000000000000000000000000000000000000000000"
                    },
                    {
                        "current": "0x000000000000000000000000000000000000000000000000000000000000002f",
                        "key": "0x0000000000000000000000000000000000000000000000000000000000000000",
                        "prev": "0x000000000000000000000000000000000000000000000000000000000000002e"
                    }
                ],
                "storageVariables": [
                    {
                        "name": "f2Usage",
                        "type": "mapping(uint256 => bool)",
                        "value": {
                            "pairs": [
                                {
                                    "key": "169",
                                    "value": {
                                        "current": "true",
                                        "prev": "false",
                                        "typeTag": 1
                                    }
                                }
                            ],
                            "typeTag": 4
                        }
                    },
                    {
                        "name": "tokensMapState",
                        "type": "mapping(uint256 => struct TokenMapState)",
                        "value": {
                            "pairs": [
                                {
                                    "key": "46",
                                    "value": {
                                        "fields": [
                                            {
                                                "name": "e1",
                                                "type": "uint256",
                                                "value": {
                                                    "current": "273",
                                                    "prev": "0",
                                                    "typeTag": 1
                                                }
                                            },
                                            {
                                                "name": "f2",
                                                "type": "uint256",
                                                "value": {
                                                    "current": "169",
                                                    "prev": "0",
                                                    "typeTag": 1
                                                }
                                            }
                                        ],
                                        "typeTag": 3
                                    }
                                }
                            ],
                            "typeTag": 4
                        }
                    },
                    {
                        "name": "_packedAddressData",
                        "type": "mapping(address => uint256)",
                        "value": {
                            "pairs": [
                                {
                                    "key": "0x8399c9cff1c2e458c3ec37f23e54ebfa95c9169b",
                                    "value": {
                                        "current": "36893488147419103234",
                                        "prev": "18446744073709551617",
                                        "typeTag": 1
                                    }
                                }
                            ],
                            "typeTag": 4
                        }
                    },
                    {
                        "name": "_packedOwnerships",
                        "type": "mapping(uint256 => uint256)",
                        "value": {
                            "pairs": [
                                {
                                    "key": "46",
                                    "value": {
                                        "current": "53919893336753927615963240792564462303803767046089712522466735756955",
                                        "prev": "0",
                                        "typeTag": 1
                                    }
                                }
                            ],
                            "typeTag": 4
                        }
                    },
                    {
                        "name": "_currentIndex",
                        "type": "uint256",
                        "value": {
                            "current": "47",
                            "prev": "46",
                            "typeTag": 1
                        }
                    },
                    {
                        "name": "e1Usage",
                        "type": "mapping(uint256 => bool)",
                        "value": {
                            "pairs": [
                                {
                                    "key": "273",
                                    "value": {
                                        "current": "true",
                                        "prev": "false",
                                        "typeTag": 1
                                    }
                                }
                            ],
                            "typeTag": 4
                        }
                    }
                ]
            }
        ]
    }
}