{
    "balance_change": {
        "balanceChanges": [
            {
                "account": "0x40891648b44c0b4ca9f2f3dfe753ebd3bf951521",
                "assets": [
                    {
                        "address": "0x01ff50f8b7f74e4f00580d9596cd3d0d6d6e326f",
                        "amount": "5,100",
                        "iconUrl": "",
                        "isERC1155": false,
                        "isERC721": false,
                        "sign": false,
                        "value": "372.0549551"
                    }
                ]
            },
            {
                "account": "0xe2df0d11aaa898ca6667a137b85f96b895709b1b",
                "assets": [
                    {
                        "address": "0x01ff50f8b7f74e4f00580d9596cd3d0d6d6e326f",
                        "amount": "5,100",
                        "iconUrl": "",
                        "isERC1155": false,
                        "isERC721": false,
                        "sign": true,
                        "value": "372.0549551"
                    }
                ]
            }
        ]
    },
    "profile": {
        "basic_info": {
            "baseFee": "",
            "blockNumber": 12524677,
            "callData": "0xa9059cbb000000000000000000000000e2df0d11aaa898ca6667a137b85f96b895709b1b00000000000000000000000000000000000000000000011478b7c30abc300000",
            "debugEnable": true,
            "errorInfo": "",
            "eventCount": 1,
            "feeRecipient": "0x8595dd9e0438640b5e1254f9df579ac12a86865f",
            "formatValue": "0",
            "gasLimit": 100000,
            "gasPrice": "28",
            "gasUsed": 70378,
            "intTxnCount": 2,
            "internalRevert": false,
            "internalRevertMessage": "",
            "isContractCreation": false,
            "isFlashloan": false,
            "maxFee": "",
            "nonce": 1,
            "overwritedBlockNumber": -1,
            "priorityFee": "",
            "receiver": "0x01ff50f8b7f74e4f00580d9596cd3d0d6d6e326f",
            "revertMessage": "",
            "sender": "0x40891648b44c0b4ca9f2f3dfe753ebd3bf951521",
            "simulationEnable": true,
            "sourceTxnHash": "0x2e275d2855cc0d45f4ea9a283208dba80aa844b0f4ef6a625b9d8a5d84c3b972",
            "status": true,
            "timestamp": "2021-05-28T19:29:20Z",
            "transactionFee": "0.001970584",
            "txnHash": "0x2e275d2855cc0d45f4ea9a283208dba80aa844b0f4ef6a625b9d8a5d84c3b972",
            "txnIndex": 321,
            "type": 0,
            "value": "0"
        },
        "fund_flow": [
            {
                "amount": "5,100",
                "from": "0x40891648b44c0b4ca9f2f3dfe753ebd3bf951521",
                "id": 1,
                "isERC1155": false,
                "isERC721": false,
                "isReverted": false,
                "order": 1,
                "to": "0xe2df0d11aaa898ca6667a137b85f96b895709b1b",
                "token": "0x01ff50f8b7f74e4f00580d9596cd3d0d6d6e326f"
            }
        ],
        "token_infos": [
            {
                "address": "0xc02aaa39b223fe8d0a0e5c4f27ead9083c756cc2",
                "decimals": 18
            },
            {
                "address": "0xeeeeeeeeeeeeeeeeeeeeeeeeeeeeeeeeeeeeeeee",
                "decimals": 18
            },
            {
                "address": "0x01ff50f8b7f74e4f00580d9596cd3d0d6d6e326f",
                "decimals": 18
            }
        ]
    },
    "address_label": {
        "labels": [
            {
                "address": "0x0000000000000000000000000000000000000002",
                "label": "Precompiled"
            },
            {
                "address": "0x0000000000000000000000000000000000000003",
                "label": "Precompiled"
            },
            {
                "address": "0x0000000000000000000000000000000000000004",
                "label": "Precompiled"
            },
            {
                "address": "0xeeeeeeeeeeeeeeeeeeeeeeeeeeeeeeeeeeeeeeee",
                "label": "Ether"
            },
            {
                "address": "0x48599941665827f9ea5a16c3d7417a43a1ce5df4",
                "label": "BNKtotheFuture: Deployer"
            },
            {
                "address": "0x01ff50f8b7f74e4f00580d9596cd3d0d6d6e326f",
                "label": "BNKtotheFuture: BFT Token"
            },
            {
                "address": "0x0000000000000000000000000000000000000001",
                "label": "Precompiled"
            }
        ]
    },
    "trace": {
        "accountLabels": null,
        "dataMap": {
            "-1": {
                "invocation": {
                    "address": "0x40891648b44c0b4ca9f2f3dfe753ebd3bf951521",
                    "callData": "",
                    "decodedMethod": null,
                    "errorInfo": "",
                    "fromAddress": "",
                    "gasUsed": 0,
                    "id": -1,
                    "methodDecoded": false,
                    "operation": "",
                    "output": "",
                    "revert": false,
                    "revertMessage": "",
                    "selector": "",
                    "status": false,
                    "value": ""
                },
                "nodeType": 0
            },
            "0": {
                "invocation": {
                    "address": "0x01ff50f8b7f74e4f00580d9596cd3d0d6d6e326f",
                    "callData": "0x000000000000000000000000e2df0d11aaa898ca6667a137b85f96b895709b1b00000000000000000000000000000000000000000000011478b7c30abc300000",
                    "decodedMethod": {
                        "callParams": [
                            {
                                "name": "_to",
                                "type": "address",
                                "value": "0xe2df0d11aaa898ca6667a137b85f96b895709b1b"
                            },
                            {
                                "decimalAvailable": true,
                                "name": "_value",
                                "type": "uint256",
                                "value": "5,100,000,000,000,000,000,000"
                            }
                        ],
                        "constructorArguments": "",
                        "name": "transfer",
                        "returnParams": [
                            {
                                "name": "",
                                "type": "bool",
                                "value": true
                            }
                        ],
                        "signature": "transfer(address,uint256)"
                    },
                    "errorInfo": "",
                    "fromAddress": "0x40891648b44c0b4ca9f2f3dfe753ebd3bf951521",
                    "gasUsed": 70378,
                    "id": 0,
                    "methodDecoded": true,
                    "operation": "CALL",
                    "output": "0x0000000000000000000000000000000000000000000000000000000000000001",
                    "revert": false,
                    "revertMessage": "",
                    "selector": "0xa9059cbb",
                    "status": true,
                    "value": "0"
                },
                "nodeType": 0
            },
            "1": {
                "invocation": {
                    "address": "0x48599941665827f9ea5a16c3d7417a43a1ce5df4",
                    "callData": "0x",
                    "decodedMethod": {
                        "callParams": [],
                        "constructorArguments": "",
                        "name": "hasEnded",
                        "returnParams": [
                            {
                                "name": "",
                                "type": "bool",
                                "value": true
                            }
                        ],
                        "signature": "hasEnded()"
                    },
                    "errorInfo": "",
                    "fromAddress": "0x01ff50f8b7f74e4f00580d9596cd3d0d6d6e326f",
                    "gasUsed": 12554,
                    "id": 1,
                    "methodDecoded": true,
                    "operation": "CALL",
                    "output": "0x0000000000000000000000000000000000000000000000000000000000000001",
                    "revert": false,
                    "revertMessage": "",
                    "selector": "0xecb70fb7",
                    "status": true,
                    "value": "0"
                },
                "nodeType": 0
            },
            "2": {
                "invocation": {
                    "address": "0x01ff50f8b7f74e4f00580d9596cd3d0d6d6e326f",
                    "callData": "0x",
                    "decodedMethod": {
                        "callParams": [],
                        "constructorArguments": "",
                        "name": "totalSupply",
                        "returnParams": [
                            {
                                "name": "",
                                "type": "uint256",
                                "value": "1,000,000,000,000,000,000,000,000,000"
                            }
                        ],
                        "signature": "totalSupply()"
                    },
                    "errorInfo": "",
                    "fromAddress": "0x48599941665827f9ea5a16c3d7417a43a1ce5df4",
                    "gasUsed": 2424,
                    "id": 2,
                    "methodDecoded": true,
                    "operation": "CALL",
                    "output": "0x0000000000000000000000000000000000000000033b2e3c9fd0803ce8000000",
                    "revert": false,
                    "revertMessage": "",
                    "selector": "0x18160ddd",
                    "status": true,
                    "value": "0"
                },
                "nodeType": 0
            },
            "3": {
                "event": {
                    "contract": "0x01ff50f8b7f74e4f00580d9596cd3d0d6d6e326f",
                    "decodedLog": {
                        "name": "Transfer",
                        "params": [
                            {
                                "name": "from",
                                "type": "address",
                                "value": "0x40891648b44c0b4ca9f2f3dfe753ebd3bf951521"
                            },
                            {
                                "name": "to",
                                "type": "address",
                                "value": "0xe2df0d11aaa898ca6667a137b85f96b895709b1b"
                            },
                            {
                                "decimalAvailable": true,
                                "name": "value",
                                "type": "uint256",
                                "value": "5,100,000,000,000,000,000,000"
                            }
                        ],
                        "signature": "Transfer(address,address,uint256)"
                    },
                    "id": 3,
                    "logData": "0x00000000000000000000000000000000000000000000011478b7c30abc300000",
                    "logDecoded": true,
                    "operation": "EVENT",
                    "revert": false,
                    "status": true,
                    "topics": [
                        "0xddf252ad1be2c89b69c2b068fc378daa952ba7f163c4a11628f55a4df523b3ef",
                        "0x00000000000000000000000040891648b44c0b4ca9f2f3dfe753ebd3bf951521",
                        "0x000000000000000000000000e2df0d11aaa898ca6667a137b85f96b895709b1b"
                    ]
                },
                "nodeType": 1
            }
        },
        "gasFlame": [
            {
                "children": [
                    {
                        "children": [
                            {
                                "children": [],
                                "depth": 0,
                                "name": "Initial Gas",
                                "value": 21656
                            },
                            {
                                "children": [
                                    {
                                        "children": [
                                            {
                                                "children": [],
                                                "depth": 2,
                                                "name": "totalSupply",
                                                "value": 2424
                                            }
                                        ],
                                        "depth": 1,
                                        "name": "hasEnded",
                                        "value": 12554
                                    }
                                ],
                                "depth": 0,
                                "name": "Executed Gas",
                                "value": 48722
                            }
                        ],
                        "depth": -1,
                        "name": "Actual Gas Used",
                        "value": 70378
                    },
                    {
                        "children": [],
                        "depth": -1,
                        "name": "Refunded Gas",
                        "value": 0
                    }
                ],
                "depth": -2,
                "name": "Total Gas",
                "value": 70378
            }
        ],
        "isConfirmed": true,
        "mainTrace": [
            {
                "children": [
                    {
                        "children": [
                            {
                                "children": [
                                    {
                                        "children": [],
                                        "depth": 2,
                                        "id": 2,
                                        "order": 2
                                    }
                                ],
                                "depth": 1,
                                "id": 1,
                                "order": 1
                            },
                            {
                                "children": [],
                                "depth": 1,
                                "id": 3,
                                "order": 3
                            }
                        ],
                        "depth": 0,
                        "id": 0,
                        "order": 0
                    }
                ],
                "depth": -1,
                "id": -1,
                "order": -1
            }
        ],
        "mainTraceNodeCount": 4,
        "parentIdMap": {
            "0": -1,
            "1": 0,
            "2": 1,
            "3": 0
        },
        "tidyTrace": [
            {
                "children": [
                    {
                        "children": [
                            {
                                "children": [
                                    {
                                        "children": [],
                                        "depth": 2,
                                        "id": 2,
                                        "order": 2
                                    }
                                ],
                                "depth": 1,
                                "id": 1,
                                "order": 1
                            },
                            {
                                "children": [],
                                "depth": 1,
                                "id": 3,
                                "order": 3
                            }
                        ],
                        "depth": 0,
                        "id": 0,
                        "order": 0
                    }
                ],
                "depth": -1,
                "id": -1,
                "order": -1
            }
        ],
        "tidyTraceNodeCount": 4
    },
    "state_change": {
        "stateChanges": [
            {
                "address": "0x01ff50f8b7f74e4f00580d9596cd3d0d6d6e326f",
                "erc": "ERC-20",
                "slots": [
                    {
                        "current": "0x00000000000000000000000000000000000000000000011478b7c30abc300000",
                        "key": "0xe95dc1bc8c2e874f74b6ba745be02e503e8e04583ac816c48df8b7ecb588be2b",
                        "prev": "0x0000000000000000000000000000000000000000000000000000000000000000"
                    },
                    {
                        "current": "0x00000000000000000000000000000000000000000000010f0cf064dd59200000",
                        "key": "0xa85181cb5fa8635dda1a8b10e9064a51e5d232f3ca795ed5ccd3838289feac8e",
                        "prev": "0x00000000000000000000000000000000000000000000022385a827e815500000"
                    }
                ],
                "storageVariables": [
                    {
                        "name": "balances",
                        "type": "mapping(address => uint256)",
                        "value": {
                            "pairs": [
                                {
                                    "key": "0x40891648b44c0b4ca9f2f3dfe753ebd3bf951521",
                                    "value": {
                                        "current": "5000000000000000000000",
                                        "prev": "10100000000000000000000",
                                        "typeTag": 1
                                    }
                                },
                                {
                                    "key": "0xe2df0d11aaa898ca6667a137b85f96b895709b1b",
                                    "value": {
                                        "current": "5100000000000000000000",
                                        "prev": "0",
                                        "typeTag": 1
                                    }
                                }
                            ],
                            "typeTag": 4
                        }
                    }
                ]
            }
        ]
    }
}