{
    "balance_change": {
        "balanceChanges": [
            {
                "account": "0x43e4715ae093a4c86b5ecddb52216c4f879e9672",
                "assets": [
                    {
                        "address": "0xeeeeeeeeeeeeeeeeeeeeeeeeeeeeeeeeeeeeeeee",
                        "amount": "0.000000000000033536",
                        "iconUrl": "https://assets.blocksec.com/image/1663669189317-3.png",
                        "isERC1155": false,
                        "isERC721": false,
                        "sign": false,
                        "value": "0.00000000006246247679999999847"
                    }
                ]
            },
            {
                "account": "0xa69babef1ca67a37ffaf7a485dfff3382056e78c",
                "assets": [
                    {
                        "address": "0x6b175474e89094c44da98b954eedeac495271d0f",
                        "amount": "24,807.845882256937033119",
                        "iconUrl": "https://assets.blocksec.com/icon/39aead569b9c011cb6f69734d9abbc9ab6a80049fe93bbd12bb473a3e0e859a3.png",
                        "isERC1155": false,
                        "isERC721": false,
                        "sign": true,
                        "value": "24807.84588"
                    },
                    {
                        "address": "0xc02aaa39b223fe8d0a0e5c4f27ead9083c756cc2",
                        "amount": "13.328384099876065717",
                        "iconUrl": "https://assets.blocksec.com/icon/f1cb2d02c471d545bbc7722daf3277fd852d98e63d118771af7047bd8256c516.png",
                        "isERC1155": false,
                        "isERC721": false,
                        "sign": false,
                        "value": "24824.781805454999393"
                    },
                    {
                        "address": "0xeeeeeeeeeeeeeeeeeeeeeeeeeeeeeeeeeeeeeeee",
                        "amount": "0.002246956425072237",
                        "iconUrl": "https://assets.blocksec.com/image/1663669189317-3.png",
                        "isERC1155": false,
                        "isERC721": false,
                        "sign": false,
                        "value": "4.1850686893837498975"
                    }
                ]
            },
            {
                "account": "0x60594a405d53811d3bc4766596efd80fd545a270",
                "assets": [
                    {
                        "address": "0x6b175474e89094c44da98b954eedeac495271d0f",
                        "amount": "24,807.845882256937033119",
                        "iconUrl": "https://assets.blocksec.com/icon/39aead569b9c011cb6f69734d9abbc9ab6a80049fe93bbd12bb473a3e0e859a3.png",
                        "isERC1155": false,
                        "isERC721": false,
                        "sign": false,
                        "value": "24807.84588"
                    },
                    {
                        "address": "0xc02aaa39b223fe8d0a0e5c4f27ead9083c756cc2",
                        "amount": "13.328384099876065717",
                        "iconUrl": "https://assets.blocksec.com/icon/f1cb2d02c471d545bbc7722daf3277fd852d98e63d118771af7047bd8256c516.png",
                        "isERC1155": false,
                        "isERC721": false,
                        "sign": true,
                        "value": "24824.781805454999393"
                    }
                ]
            },
            {
                "account": "0xd4e96ef8eee8678dbff4d535e033ed1a4f7605b7",
                "assets": [
                    {
                        "address": "0xeeeeeeeeeeeeeeeeeeeeeeeeeeeeeeeeeeeeeeee",
                        "amount": "0.002246956425105773",
                        "iconUrl": "https://assets.blocksec.com/image/1663669189317-3.png",
                        "isERC1155": false,
                        "isERC721": false,
                        "sign": true,
                        "value": "4.1850686893837498975"
                    }
                ]
            }
        ]
    },
    "profile": {
        "basic_info": {
            "baseFee": "16.557216236",
            "blockNumber": 17567228,
            "callData": "0x78e111f6000000000000000000000000f3872c04414d70e260bdc76c80eeb24b55ac2cf1000000000000000000000000000000000000000000000000000000000000004000000000000000000000000000000000000000000000000000000000000000c42f1c6b50000000000000000000000000000000000000000000000000b8f7eeb8d713d1b500000000000000000000000000000000000000177b3b017e1dc3000000000000000000000000000000000000000000000000000005ef0acb9f6c977355005bd40000000000000000000000000000000000000000000000000de0b6b3a764000000000000000000000000000000000000000000000000000000000000649a30cf7f8000000000000000000000000000000000000000000000000000000000fd5300000000000000000000000000000000000000000000000000000000",
            "debugEnable": true,
            "errorInfo": "",
            "eventCount": 3,
            "feeRecipient": "0xd4e96ef8eee8678dbff4d535e033ed1a4f7605b7",
            "formatValue": "0.000000000000033536",
            "gasLimit": 220178,
            "gasPrice": "16.557216236",
            "gasUsed": 110159,
            "intTxnCount": 8,
            "internalRevert": false,
            "internalRevertMessage": "",
            "isContractCreation": false,
            "isFlashloan": false,
            "maxFee": "24.835824354",
            "nonce": 151737,
            "overwritedBlockNumber": -1,
            "priorityFee": "0",
            "receiver": "0xa69babef1ca67a37ffaf7a485dfff3382056e78c",
            "revertMessage": "",
            "sender": "0x43e4715ae093a4c86b5ecddb52216c4f879e9672",
            "simulationEnable": true,
            "sourceTxnHash": "0x2ff36ec6e56860502a8fe8fef9ffede6348fc17db4e494be275502737357ec28",
            "status": true,
            "timestamp": "2023-06-27T00:43:59Z",
            "transactionFee": "0.001823926383341524",
            "txnHash": "0x2ff36ec6e56860502a8fe8fef9ffede6348fc17db4e494be275502737357ec28",
            "txnIndex": 5,
            "type": 2,
            "value": "33536"
        },
        "fund_flow": [
            {
                "amount": "0.000000000000033536",
                "from": "0x43e4715ae093a4c86b5ecddb52216c4f879e9672",
                "id": 1,
                "isERC1155": false,
                "isERC721": false,
                "isReverted": false,
                "order": 1,
                "to": "0xa69babef1ca67a37ffaf7a485dfff3382056e78c",
                "token": "0xeeeeeeeeeeeeeeeeeeeeeeeeeeeeeeeeeeeeeeee"
            },
            {
                "amount": "24,807.845882256937033119",
                "from": "0x60594a405d53811d3bc4766596efd80fd545a270",
                "id": 2,
                "isERC1155": false,
                "isERC721": false,
                "isReverted": false,
                "order": 2,
                "to": "0xa69babef1ca67a37ffaf7a485dfff3382056e78c",
                "token": "0x6b175474e89094c44da98b954eedeac495271d0f"
            },
            {
                "amount": "13.328384099876065717",
                "from": "0xa69babef1ca67a37ffaf7a485dfff3382056e78c",
                "id": 3,
                "isERC1155": false,
                "isERC721": false,
                "isReverted": false,
                "order": 3,
                "to": "0x60594a405d53811d3bc4766596efd80fd545a270",
                "token": "0xc02aaa39b223fe8d0a0e5c4f27ead9083c756cc2"
            },
            {
                "amount": "0.002246956425105773",
                "from": "0xa69babef1ca67a37ffaf7a485dfff3382056e78c",
                "id": 4,
                "isERC1155": false,
                "isERC721": false,
                "isReverted": false,
                "order": 4,
                "to": "0xd4e96ef8eee8678dbff4d535e033ed1a4f7605b7",
                "token": "0xeeeeeeeeeeeeeeeeeeeeeeeeeeeeeeeeeeeeeeee"
            }
        ],
        "token_infos": [
            {
                "address": "0xeeeeeeeeeeeeeeeeeeeeeeeeeeeeeeeeeeeeeeee",
                "decimals": 18
            },
            {
                "address": "0x6b175474e89094c44da98b954eedeac495271d0f",
                "decimals": 18
            },
            {
                "address": "0xc02aaa39b223fe8d0a0e5c4f27ead9083c756cc2",
                "decimals": 18
            }
        ]
    },
    "address_label": {
        "labels": [
            {
                "address": "0x6b175474e89094c44da98b954eedeac495271d0f",
                "label": "Sky: Dai Stablecoin"
            },
            {
                "address": "0x0000000000000000000000000000000000000004",
                "label": "Precompiled"
            },
            {
                "address": "0xeeeeeeeeeeeeeeeeeeeeeeeeeeeeeeeeeeeeeeee",
                "label": "Ether"
            },
            {
                "address": "0x60594a405d53811d3bc4766596efd80fd545a270",
                "label": "Uniswap V3: DAI 2"
            },
            {
                "address": "0xd4e96ef8eee8678dbff4d535e033ed1a4f7605b7",
                "label": "Rocket Pool Smoothing Pool"
            },
            {
                "address": "0x0000000000000000000000000000000000000001",
                "label": "Precompiled"
            },
            {
                "address": "0x0000000000000000000000000000000000000002",
                "label": "Precompiled"
            },
            {
                "address": "0x0000000000000000000000000000000000000003",
                "label": "Precompiled"
            },
            {
                "address": "0xa69babef1ca67a37ffaf7a485dfff3382056e78c",
                "label": "MEV Bot: 0xA69...78C"
            },
            {
                "address": "0xc02aaa39b223fe8d0a0e5c4f27ead9083c756cc2",
                "label": "Wrapped Ether (WETH)"
            }
        ]
    },
    "trace": {
        "accountLabels": null,
        "dataMap": {
            "-1": {
                "invocation": {
                    "address": "0x43e4715ae093a4c86b5ecddb52216c4f879e9672",
                    "callData": "",
                    "decodedMethod": null,
                    "errorInfo": "",
                    "fromAddress": "",
                    "gasUsed": 0,
                    "id": -1,
                    "methodDecoded": false,
                    "operation": "",
                    "output": "",
                    "revert": false,
                    "revertMessage": "",
                    "selector": "",
                    "status": false,
                    "value": ""
                },
                "nodeType": 0
            },
            "0": {
                "invocation": {
                    "address": "0xa69babef1ca67a37ffaf7a485dfff3382056e78c",
                    "callData": "0x000000000000000000000000f3872c04414d70e260bdc76c80eeb24b55ac2cf1000000000000000000000000000000000000000000000000000000000000004000000000000000000000000000000000000000000000000000000000000000c42f1c6b50000000000000000000000000000000000000000000000000b8f7eeb8d713d1b500000000000000000000000000000000000000177b3b017e1dc3000000000000000000000000000000000000000000000000000005ef0acb9f6c977355005bd40000000000000000000000000000000000000000000000000de0b6b3a764000000000000000000000000000000000000000000000000000000000000649a30cf7f8000000000000000000000000000000000000000000000000000000000fd5300000000000000000000000000000000000000000000000000000000",
                    "decodedMethod": {
                        "callParams": [
                            {
                                "name": "_address",
                                "type": "address",
                                "value": "0xf3872c04414d70e260bdc76c80eeb24b55ac2cf1"
                            },
                            {
                                "name": "_bytes",
                                "type": "bytes",
                                "value": "0x2f1c6b50000000000000000000000000000000000000000000000000b8f7eeb8d713d1b500000000000000000000000000000000000000177b3b017e1dc3000000000000000000000000000000000000000000000000000005ef0acb9f6c977355005bd40000000000000000000000000000000000000000000000000de0b6b3a764000000000000000000000000000000000000000000000000000000000000649a30cf7f8000000000000000000000000000000000000000000000000000000000fd53"
                            }
                        ],
                        "constructorArguments": "",
                        "name": "executeFFsYo",
                        "returnParams": [],
                        "signature": "executeFFsYo(address,bytes)"
                    },
                    "errorInfo": "",
                    "fromAddress": "0x43e4715ae093a4c86b5ecddb52216c4f879e9672",
                    "gasUsed": 110159,
                    "id": 0,
                    "methodDecoded": true,
                    "operation": "CALL",
                    "output": "0x00000000000000000000000000000000000000000000000000000000000000200000000000000000000000000000000000000000000000000000000000000040000000000000000000000000000000000000000000000000b8f7eeb8d713d1b50000000000000000000000000000000000000000000000000016bea74d73c0fb",
                    "revert": false,
                    "revertMessage": "",
                    "selector": "0x78e111f6",
                    "status": true,
                    "value": "0.000000000000033536"
                },
                "nodeType": 0
            },
            "1": {
                "invocation": {
                    "address": "0xf3872c04414d70e260bdc76c80eeb24b55ac2cf1",
                    "callData": "0x000000000000000000000000000000000000000000000000b8f7eeb8d713d1b500000000000000000000000000000000000000177b3b017e1dc3000000000000000000000000000000000000000000000000000005ef0acb9f6c977355005bd40000000000000000000000000000000000000000000000000de0b6b3a764000000000000000000000000000000000000000000000000000000000000649a30cf7f8000000000000000000000000000000000000000000000000000000000fd53",
                    "decodedMethod": null,
                    "errorInfo": "",
                    "fromAddress": "0xa69babef1ca67a37ffaf7a485dfff3382056e78c",
                    "gasUsed": 56573,
                    "id": 1,
                    "methodDecoded": false,
                    "operation": "DELEGATECALL",
                    "output": "0x000000000000000000000000000000000000000000000000b8f7eeb8d713d1b50000000000000000000000000000000000000000000000000016bea74d73c0fb",
                    "revert": false,
                    "revertMessage": "",
                    "selector": "0x2f1c6b50",
                    "status": true,
                    "value": "0.000000000000033536"
                },
                "nodeType": 0
            },
            "10": {
                "event": {
                    "contract": "0x60594a405d53811d3bc4766596efd80fd545a270",
                    "decodedLog": {
                        "name": "Swap",
                        "params": [
                            {
                                "name": "sender",
                                "type": "address",
                                "value": "0xa69babef1ca67a37ffaf7a485dfff3382056e78c"
                            },
                            {
                                "name": "recipient",
                                "type": "address",
                                "value": "0xa69babef1ca67a37ffaf7a485dfff3382056e78c"
                            },
                            {
                                "name": "amount0",
                                "type": "int256",
                                "value": "-24,807,845,882,256,937,033,119"
                            },
                            {
                                "name": "amount1",
                                "type": "int256",
                                "value": "13,328,384,099,876,065,717"
                            },
                            {
                                "name": "sqrtPriceX96",
                                "type": "uint160",
                                "value": "1,836,376,153,343,621,293,771,247,378"
                            },
                            {
                                "name": "liquidity",
                                "type": "uint128",
                                "value": "1,294,420,172,465,727,971,939,788"
                            },
                            {
                                "name": "tick",
                                "type": "int24",
                                "value": "-75,295"
                            }
                        ],
                        "signature": "Swap(address,address,int256,int256,uint160,uint128,int24)"
                    },
                    "id": 10,
                    "logData": "0xfffffffffffffffffffffffffffffffffffffffffffffabf29fa97b01e3a6261000000000000000000000000000000000000000000000000b8f7eeb8d713d1b5000000000000000000000000000000000000000005ef03c6bf6eedfbb242cf1200000000000000000000000000000000000000000001121aa87cd594608255ccfffffffffffffffffffffffffffffffffffffffffffffffffffffffffffed9e1",
                    "logDecoded": true,
                    "operation": "EVENT",
                    "revert": false,
                    "status": true,
                    "topics": [
                        "0xc42079f94a6350d7e6235f29174924f928cc2ac818eb64fed8004e115fbcca67",
                        "0x000000000000000000000000a69babef1ca67a37ffaf7a485dfff3382056e78c",
                        "0x000000000000000000000000a69babef1ca67a37ffaf7a485dfff3382056e78c"
                    ]
                },
                "nodeType": 1
            },
            "11": {
                "invocation": {
                    "address": "0xd4e96ef8eee8678dbff4d535e033ed1a4f7605b7",
                    "callData": "0x",
                    "decodedMethod": null,
                    "errorInfo": "",
                    "fromAddress": "0xa69babef1ca67a37ffaf7a485dfff3382056e78c",
                    "gasUsed": 55,
                    "id": 11,
                    "methodDecoded": false,
                    "operation": "CALL",
                    "output": "",
                    "revert": false,
                    "revertMessage": "",
                    "selector": "fallback",
                    "status": true,
                    "value": "0.002246956425105773"
                },
                "nodeType": 0
            },
            "2": {
                "invocation": {
                    "address": "0x60594a405d53811d3bc4766596efd80fd545a270",
                    "callData": "0x000000000000000000000000a69babef1ca67a37ffaf7a485dfff3382056e78c0000000000000000000000000000000000000000000000000000000000000000000000000000000000000000000000000000000000000000b8f7eeb8d713d1b5000000000000000000000000000000000000000005ef0acb9f6c977355005bd400000000000000000000000000000000000000000000000000000000000000a000000000000000000000000000000000000000000000000000000000000000604104cb9b3ae493f94e71b5c1771d6f310e28a1af8a24d6394d706e3bd60caf77000000000000000000000000a69babef1ca67a37ffaf7a485dfff3382056e78c000000000000000000000000c02aaa39b223fe8d0a0e5c4f27ead9083c756cc2",
                    "decodedMethod": {
                        "callParams": [
                            {
                                "name": "recipient",
                                "type": "address",
                                "value": "0xa69babef1ca67a37ffaf7a485dfff3382056e78c"
                            },
                            {
                                "name": "zeroForOne",
                                "type": "bool",
                                "value": false
                            },
                            {
                                "name": "amountSpecified",
                                "type": "int256",
                                "value": "13,328,384,099,876,065,717"
                            },
                            {
                                "name": "sqrtPriceLimitX96",
                                "type": "uint160",
                                "value": "1,836,409,299,836,220,646,988,209,108"
                            },
                            {
                                "name": "data",
                                "type": "bytes",
                                "value": "0x4104cb9b3ae493f94e71b5c1771d6f310e28a1af8a24d6394d706e3bd60caf77000000000000000000000000a69babef1ca67a37ffaf7a485dfff3382056e78c000000000000000000000000c02aaa39b223fe8d0a0e5c4f27ead9083c756cc2"
                            }
                        ],
                        "constructorArguments": "",
                        "name": "swap",
                        "returnParams": [
                            {
                                "name": "amount0",
                                "type": "int256",
                                "value": "-24,807,845,882,256,937,033,119"
                            },
                            {
                                "name": "amount1",
                                "type": "int256",
                                "value": "13,328,384,099,876,065,717"
                            }
                        ],
                        "signature": "swap(address,bool,int256,uint160,bytes)"
                    },
                    "errorInfo": "",
                    "fromAddress": "0xa69babef1ca67a37ffaf7a485dfff3382056e78c",
                    "gasUsed": 48309,
                    "id": 2,
                    "methodDecoded": true,
                    "operation": "CALL",
                    "output": "0xfffffffffffffffffffffffffffffffffffffffffffffabf29fa97b01e3a6261000000000000000000000000000000000000000000000000b8f7eeb8d713d1b5",
                    "revert": false,
                    "revertMessage": "",
                    "selector": "0x128acb08",
                    "status": true,
                    "value": "0"
                },
                "nodeType": 0
            },
            "3": {
                "invocation": {
                    "address": "0x6b175474e89094c44da98b954eedeac495271d0f",
                    "callData": "0x000000000000000000000000a69babef1ca67a37ffaf7a485dfff3382056e78c000000000000000000000000000000000000000000000540d605684fe1c59d9f",
                    "decodedMethod": {
                        "callParams": [
                            {
                                "name": "dst",
                                "type": "address",
                                "value": "0xa69babef1ca67a37ffaf7a485dfff3382056e78c"
                            },
                            {
                                "decimalAvailable": true,
                                "name": "wad",
                                "type": "uint256",
                                "value": "24,807,845,882,256,937,033,119"
                            }
                        ],
                        "constructorArguments": "",
                        "name": "transfer",
                        "returnParams": [
                            {
                                "name": "",
                                "type": "bool",
                                "value": true
                            }
                        ],
                        "signature": "transfer(address,uint256)"
                    },
                    "errorInfo": "",
                    "fromAddress": "0x60594a405d53811d3bc4766596efd80fd545a270",
                    "gasUsed": 9074,
                    "id": 3,
                    "methodDecoded": true,
                    "operation": "CALL",
                    "output": "0x0000000000000000000000000000000000000000000000000000000000000001",
                    "revert": false,
                    "revertMessage": "",
                    "selector": "0xa9059cbb",
                    "status": true,
                    "value": "0"
                },
                "nodeType": 0
            },
            "4": {
                "event": {
                    "contract": "0x6b175474e89094c44da98b954eedeac495271d0f",
                    "decodedLog": {
                        "name": "Transfer",
                        "params": [
                            {
                                "name": "src",
                                "type": "address",
                                "value": "0x60594a405d53811d3bc4766596efd80fd545a270"
                            },
                            {
                                "name": "dst",
                                "type": "address",
                                "value": "0xa69babef1ca67a37ffaf7a485dfff3382056e78c"
                            },
                            {
                                "decimalAvailable": true,
                                "name": "wad",
                                "type": "uint256",
                                "value": "24,807,845,882,256,937,033,119"
                            }
                        ],
                        "signature": "Transfer(address,address,uint256)"
                    },
                    "id": 4,
                    "logData": "0x000000000000000000000000000000000000000000000540d605684fe1c59d9f",
                    "logDecoded": true,
                    "operation": "EVENT",
                    "revert": false,
                    "status": true,
                    "topics": [
                        "0xddf252ad1be2c89b69c2b068fc378daa952ba7f163c4a11628f55a4df523b3ef",
                        "0x00000000000000000000000060594a405d53811d3bc4766596efd80fd545a270",
                        "0x000000000000000000000000a69babef1ca67a37ffaf7a485dfff3382056e78c"
                    ]
                },
                "nodeType": 1
            },
            "5": {
                "invocation": {
                    "address": "0xc02aaa39b223fe8d0a0e5c4f27ead9083c756cc2",
                    "callData": "0x00000000000000000000000060594a405d53811d3bc4766596efd80fd545a270",
                    "decodedMethod": {
                        "callParams": [
                            {
                                "name": "",
                                "type": "address",
                                "value": "0x60594a405d53811d3bc4766596efd80fd545a270"
                            }
                        ],
                        "constructorArguments": "",
                        "name": "balanceOf",
                        "returnParams": [
                            {
                                "decimalAvailable": true,
                                "name": "",
                                "type": "uint256",
                                "value": "1,617,937,863,208,461,859,517"
                            }
                        ],
                        "signature": "balanceOf(address)"
                    },
                    "errorInfo": "",
                    "fromAddress": "0x60594a405d53811d3bc4766596efd80fd545a270",
                    "gasUsed": 534,
                    "id": 5,
                    "methodDecoded": true,
                    "operation": "STATICCALL",
                    "output": "0x000000000000000000000000000000000000000000000057b565fa62caeafabd",
                    "revert": false,
                    "revertMessage": "",
                    "selector": "0x70a08231",
                    "status": true,
                    "value": "0"
                },
                "nodeType": 0
            },
            "6": {
                "invocation": {
                    "address": "0xa69babef1ca67a37ffaf7a485dfff3382056e78c",
                    "callData": "0xfffffffffffffffffffffffffffffffffffffffffffffabf29fa97b01e3a6261000000000000000000000000000000000000000000000000b8f7eeb8d713d1b5000000000000000000000000000000000000000000000000000000000000006000000000000000000000000000000000000000000000000000000000000000604104cb9b3ae493f94e71b5c1771d6f310e28a1af8a24d6394d706e3bd60caf77000000000000000000000000a69babef1ca67a37ffaf7a485dfff3382056e78c000000000000000000000000c02aaa39b223fe8d0a0e5c4f27ead9083c756cc2",
                    "decodedMethod": {
                        "callParams": [
                            {
                                "name": "amount0Delta",
                                "type": "int256",
                                "value": "-24,807,845,882,256,937,033,119"
                            },
                            {
                                "name": "amount1Delta",
                                "type": "int256",
                                "value": "13,328,384,099,876,065,717"
                            },
                            {
                                "name": "data",
                                "type": "bytes",
                                "value": "0x4104cb9b3ae493f94e71b5c1771d6f310e28a1af8a24d6394d706e3bd60caf77000000000000000000000000a69babef1ca67a37ffaf7a485dfff3382056e78c000000000000000000000000c02aaa39b223fe8d0a0e5c4f27ead9083c756cc2"
                            }
                        ],
                        "constructorArguments": "",
                        "name": "uniswapV3SwapCallback",
                        "returnParams": [],
                        "signature": "uniswapV3SwapCallback(int256,int256,bytes)"
                    },
                    "errorInfo": "",
                    "fromAddress": "0x60594a405d53811d3bc4766596efd80fd545a270",
                    "gasUsed": 9482,
                    "id": 6,
                    "methodDecoded": true,
                    "operation": "CALL",
                    "output": "",
                    "revert": false,
                    "revertMessage": "",
                    "selector": "0xfa461e33",
                    "status": true,
                    "value": "0"
                },
                "nodeType": 0
            },
            "7": {
                "invocation": {
                    "address": "0xc02aaa39b223fe8d0a0e5c4f27ead9083c756cc2",
                    "callData": "0x00000000000000000000000060594a405d53811d3bc4766596efd80fd545a270000000000000000000000000000000000000000000000000b8f7eeb8d713d1b5",
                    "decodedMethod": {
                        "callParams": [
                            {
                                "name": "dst",
                                "type": "address",
                                "value": "0x60594a405d53811d3bc4766596efd80fd545a270"
                            },
                            {
                                "decimalAvailable": true,
                                "name": "wad",
                                "type": "uint256",
                                "value": "13,328,384,099,876,065,717"
                            }
                        ],
                        "constructorArguments": "",
                        "name": "transfer",
                        "returnParams": [
                            {
                                "name": "",
                                "type": "bool",
                                "value": true
                            }
                        ],
                        "signature": "transfer(address,uint256)"
                    },
                    "errorInfo": "",
                    "fromAddress": "0xa69babef1ca67a37ffaf7a485dfff3382056e78c",
                    "gasUsed": 8862,
                    "id": 7,
                    "methodDecoded": true,
                    "operation": "CALL",
                    "output": "0x0000000000000000000000000000000000000000000000000000000000000001",
                    "revert": false,
                    "revertMessage": "",
                    "selector": "0xa9059cbb",
                    "status": true,
                    "value": "0"
                },
                "nodeType": 0
            },
            "8": {
                "event": {
                    "contract": "0xc02aaa39b223fe8d0a0e5c4f27ead9083c756cc2",
                    "decodedLog": {
                        "name": "Transfer",
                        "params": [
                            {
                                "name": "src",
                                "type": "address",
                                "value": "0xa69babef1ca67a37ffaf7a485dfff3382056e78c"
                            },
                            {
                                "name": "dst",
                                "type": "address",
                                "value": "0x60594a405d53811d3bc4766596efd80fd545a270"
                            },
                            {
                                "decimalAvailable": true,
                                "name": "wad",
                                "type": "uint256",
                                "value": "13,328,384,099,876,065,717"
                            }
                        ],
                        "signature": "Transfer(address,address,uint256)"
                    },
                    "id": 8,
                    "logData": "0x000000000000000000000000000000000000000000000000b8f7eeb8d713d1b5",
                    "logDecoded": true,
                    "operation": "EVENT",
                    "revert": false,
                    "status": true,
                    "topics": [
                        "0xddf252ad1be2c89b69c2b068fc378daa952ba7f163c4a11628f55a4df523b3ef",
                        "0x000000000000000000000000a69babef1ca67a37ffaf7a485dfff3382056e78c",
                        "0x00000000000000000000000060594a405d53811d3bc4766596efd80fd545a270"
                    ]
                },
                "nodeType": 1
            },
            "9": {
                "invocation": {
                    "address": "0xc02aaa39b223fe8d0a0e5c4f27ead9083c756cc2",
                    "callData": "0x00000000000000000000000060594a405d53811d3bc4766596efd80fd545a270",
                    "decodedMethod": {
                        "callParams": [
                            {
                                "name": "",
                                "type": "address",
                                "value": "0x60594a405d53811d3bc4766596efd80fd545a270"
                            }
                        ],
                        "constructorArguments": "",
                        "name": "balanceOf",
                        "returnParams": [
                            {
                                "decimalAvailable": true,
                                "name": "",
                                "type": "uint256",
                                "value": "1,631,266,247,308,337,925,234"
                            }
                        ],
                        "signature": "balanceOf(address)"
                    },
                    "errorInfo": "",
                    "fromAddress": "0x60594a405d53811d3bc4766596efd80fd545a270",
                    "gasUsed": 534,
                    "id": 9,
                    "methodDecoded": true,
                    "operation": "STATICCALL",
                    "output": "0x0000000000000000000000000000000000000000000000586e5de91ba1fecc72",
                    "revert": false,
                    "revertMessage": "",
                    "selector": "0x70a08231",
                    "status": true,
                    "value": "0"
                },
                "nodeType": 0
            }
        },
        "gasFlame": [
            {
                "children": [
                    {
                        "children": [
                            {
                                "children": [],
                                "depth": 0,
                                "name": "Initial Gas",
                                "value": 51736
                            },
                            {
                                "children": [
                                    {
                                        "children": [
                                            {
                                                "children": [
                                                    {
                                                        "children": [],
                                                        "depth": 3,
                                                        "name": "transfer",
                                                        "value": 9074
                                                    },
                                                    {
                                                        "children": [],
                                                        "depth": 3,
                                                        "name": "balanceOf",
                                                        "value": 534
                                                    },
                                                    {
                                                        "children": [
                                                            {
                                                                "children": [],
                                                                "depth": 4,
                                                                "name": "transfer",
                                                                "value": 8862
                                                            }
                                                        ],
                                                        "depth": 3,
                                                        "name": "uniswapV3SwapCallback",
                                                        "value": 9482
                                                    },
                                                    {
                                                        "children": [],
                                                        "depth": 3,
                                                        "name": "balanceOf",
                                                        "value": 534
                                                    }
                                                ],
                                                "depth": 2,
                                                "name": "swap",
                                                "value": 48309
                                            },
                                            {
                                                "children": [],
                                                "depth": 2,
                                                "name": "fallback",
                                                "value": 55
                                            }
                                        ],
                                        "depth": 1,
                                        "name": "0x2f1c6b50",
                                        "value": 56573
                                    }
                                ],
                                "depth": 0,
                                "name": "Executed Gas",
                                "value": 58423
                            }
                        ],
                        "depth": -1,
                        "name": "Actual Gas Used",
                        "value": 110159
                    },
                    {
                        "children": [],
                        "depth": -1,
                        "name": "Refunded Gas",
                        "value": 0
                    }
                ],
                "depth": -2,
                "name": "Total Gas",
                "value": 110159
            }
        ],
        "isConfirmed": true,
        "mainTrace": [
            {
                "children": [
                    {
                        "children": [
                            {
                                "children": [
                                    {
                                        "children": [
                                            {
                                                "children": [
                                                    {
                                                        "children": [],
                                                        "depth": 4,
                                                        "id": 4,
                                                        "order": 4
                                                    }
                                                ],
                                                "depth": 3,
                                                "id": 3,
                                                "order": 3
                                            },
                                            {
                                                "children": [],
                                                "depth": 3,
                                                "id": 5,
                                                "order": 5
                                            },
                                            {
                                                "children": [
                                                    {
                                                        "children": [
                                                            {
                                                                "children": [],
                                                                "depth": 5,
                                                                "id": 8,
                                                                "order": 8
                                                            }
                                                        ],
                                                        "depth": 4,
                                                        "id": 7,
                                                        "order": 7
                                                    }
                                                ],
                                                "depth": 3,
                                                "id": 6,
                                                "order": 6
                                            },
                                            {
                                                "children": [],
                                                "depth": 3,
                                                "id": 9,
                                                "order": 9
                                            },
                                            {
                                                "children": [],
                                                "depth": 3,
                                                "id": 10,
                                                "order": 10
                                            }
                                        ],
                                        "depth": 2,
                                        "id": 2,
                                        "order": 2
                                    },
                                    {
                                        "children": [],
                                        "depth": 2,
                                        "id": 11,
                                        "order": 11
                                    }
                                ],
                                "depth": 1,
                                "id": 1,
                                "order": 1
                            }
                        ],
                        "depth": 0,
                        "id": 0,
                        "order": 0
                    }
                ],
                "depth": -1,
                "id": -1,
                "order": -1
            }
        ],
        "mainTraceNodeCount": 12,
        "parentIdMap": {
            "0": -1,
            "1": 0,
            "10": 2,
            "11": 1,
            "2": 1,
            "3": 2,
            "4": 3,
            "5": 2,
            "6": 2,
            "7": 6,
            "8": 7,
            "9": 2
        },
        "tidyTrace": [
            {
                "children": [
                    {
                        "children": [
                            {
                                "children": [
                                    {
                                        "children": [
                                            {
                                                "children": [
                                                    {
                                                        "children": [],
                                                        "depth": 4,
                                                        "id": 4,
                                                        "order": 4
                                                    }
                                                ],
                                                "depth": 3,
                                                "id": 3,
                                                "order": 3
                                            },
                                            {
                                                "children": [
                                                    {
                                                        "children": [
                                                            {
                                                                "children": [],
                                                                "depth": 5,
                                                                "id": 8,
                                                                "order": 8
                                                            }
                                                        ],
                                                        "depth": 4,
                                                        "id": 7,
                                                        "order": 7
                                                    }
                                                ],
                                                "depth": 3,
                                                "id": 6,
                                                "order": 6
                                            },
                                            {
                                                "children": [],
                                                "depth": 3,
                                                "id": 10,
                                                "order": 10
                                            }
                                        ],
                                        "depth": 2,
                                        "id": 2,
                                        "order": 2
                                    },
                                    {
                                        "children": [],
                                        "depth": 2,
                                        "id": 11,
                                        "order": 11
                                    }
                                ],
                                "depth": 1,
                                "id": 1,
                                "order": 1
                            }
                        ],
                        "depth": 0,
                        "id": 0,
                        "order": 0
                    }
                ],
                "depth": -1,
                "id": -1,
                "order": -1
            }
        ],
        "tidyTraceNodeCount": 10
    },
    "state_change": {
        "stateChanges": [
            {
                "address": "0x60594a405d53811d3bc4766596efd80fd545a270",
                "erc": "",
                "slots": [
                    {
                        "current": "0x00000000000000000000000000000000011370540cae9b700500f0812fe9792e",
                        "key": "0x0000000000000000000000000000000000000000000000000000000000000002",
                        "prev": "0x000000000000000000000000000000000113703deff500eef4d1cdc149a82a63"
                    },
                    {
                        "current": "0x00010000b400b40078fed9e1000000000000000005ef03c6bf6eedfbb242cf12",
                        "key": "0x0000000000000000000000000000000000000000000000000000000000000000",
                        "prev": "0x00010000b400b40077fed9d8000000000000000005ee571c7221782e533ac589"
                    },
                    {
                        "current": "0x0100000000000000000004b4aa0545701731bc2f9cfffb48c1d404ae649a30cf",
                        "key": "0x0000000000000000000000000000000000000000000000000000000000000080",
                        "prev": "0x0100000000000000000004b4a99f3d739b5eebf729fffb493ab80c166499c787"
                    }
                ],
                "storageVariables": []
            },
            {
                "address": "0x6b175474e89094c44da98b954eedeac495271d0f",
                "erc": "ERC-20",
                "slots": [
                    {
                        "current": "0x00000000000000000000000000000000000000000003d34fa07de22b66684f13",
                        "key": "0x995f3b129dd3291868ddb9cf202c75cd985227d50e309847fbab0f8da403b19c",
                        "prev": "0x00000000000000000000000000000000000000000003d89076834a7b482decb2"
                    },
                    {
                        "current": "0x000000000000000000000000000000000000000000040ddc5686ece771f2fa48",
                        "key": "0x35d7fb7665514f774d2c2df607e197eb8674b6e63d2638472758647a2e67406a",
                        "prev": "0x00000000000000000000000000000000000000000004089b80818497902d5ca9"
                    }
                ],
                "storageVariables": [
                    {
                        "name": "balanceOf",
                        "type": "mapping(address => uint256)",
                        "value": {
                            "pairs": [
                                {
                                    "key": "0x60594a405d53811d3bc4766596efd80fd545a270",
                                    "value": {
                                        "current": "4624665644159299905670931",
                                        "prev": "4649473490041556842704050",
                                        "typeTag": 1
                                    }
                                },
                                {
                                    "key": "0xa69babef1ca67a37ffaf7a485dfff3382056e78c",
                                    "value": {
                                        "current": "4901158561363251122338376",
                                        "prev": "4876350715480994185305257",
                                        "typeTag": 1
                                    }
                                }
                            ],
                            "typeTag": 4
                        }
                    }
                ]
            },
            {
                "address": "0xc02aaa39b223fe8d0a0e5c4f27ead9083c756cc2",
                "erc": "ERC-20",
                "slots": [
                    {
                        "current": "0x000000000000000000000000000000000000000000000190a2f70971e3f9bd6c",
                        "key": "0x75245230289a9f0bf73a6c59aef6651b98b3833a62a3c0bd9ab6b0dec8ed4d8f",
                        "prev": "0x0000000000000000000000000000000000000000000001915beef82abb0d8f21"
                    },
                    {
                        "current": "0x0000000000000000000000000000000000000000000000586e5de91ba1fecc72",
                        "key": "0xf762dfe765e313d39f5dd6e34e29a9ef0af51578e67f7f482bb4f8efd984976b",
                        "prev": "0x000000000000000000000000000000000000000000000057b565fa62caeafabd"
                    }
                ],
                "storageVariables": [
                    {
                        "name": "balanceOf",
                        "type": "mapping(address => uint256)",
                        "value": {
                            "pairs": [
                                {
                                    "key": "0x60594a405d53811d3bc4766596efd80fd545a270",
                                    "value": {
                                        "current": "1631266247308337925234",
                                        "prev": "1617937863208461859517",
                                        "typeTag": 1
                                    }
                                },
                                {
                                    "key": "0xa69babef1ca67a37ffaf7a485dfff3382056e78c",
                                    "value": {
                                        "current": "7390440494421973253484",
                                        "prev": "7403768878521849319201",
                                        "typeTag": 1
                                    }
                                }
                            ],
                            "typeTag": 4
                        }
                    }
                ]
            }
        ]
    }
}