{
    "balance_change": {
        "balanceChanges": [
            {
                "account": "0x491aa7a0837cbaf1c0a9e042bf19c77fc00e0833",
                "assets": [
                    {
                        "address": "0xf73b1f84e0c16cd56b0fad03295213a3098de0de",
                        "amount": "565",
                        "iconUrl": "",
                        "isERC1155": false,
                        "isERC721": false,
                        "sign": false,
                        "value": ""
                    }
                ]
            },
            {
                "account": "0x31a8d166004c8ed095c6530d2adbf753ac46a950",
                "assets": [
                    {
                        "address": "0xf73b1f84e0c16cd56b0fad03295213a3098de0de",
                        "amount": "565",
                        "iconUrl": "",
                        "isERC1155": false,
                        "isERC721": false,
                        "sign": true,
                        "value": ""
                    }
                ]
            }
        ]
    },
    "profile": {
        "basic_info": {
            "baseFee": "",
            "blockNumber": 8251079,
            "callData": "0xa9059cbb00000000000000000000000031a8d166004c8ed095c6530d2adbf753ac46a95000000000000000000000000000000000000000000000001ea0f33a806fb40000",
            "debugEnable": true,
            "errorInfo": "",
            "eventCount": 1,
            "feeRecipient": "0x5a0b54d5dc17e0aadc383d2db43b0a0d3e029c4c",
            "formatValue": "0",
            "gasLimit": 150000,
            "gasPrice": "5",
            "gasUsed": 53291,
            "intTxnCount": 0,
            "internalRevert": false,
            "internalRevertMessage": "",
            "isContractCreation": false,
            "isFlashloan": false,
            "maxFee": "",
            "nonce": 135,
            "overwritedBlockNumber": -1,
            "priorityFee": "",
            "receiver": "0xf73b1f84e0c16cd56b0fad03295213a3098de0de",
            "revertMessage": "",
            "sender": "0x491aa7a0837cbaf1c0a9e042bf19c77fc00e0833",
            "simulationEnable": true,
            "sourceTxnHash": "0x2f22fb325d8d27a6a5ab637bbe682ceeb89783af1d3e7297230d5a6a74e63f8f",
            "status": true,
            "timestamp": "2019-07-30T09:05:49Z",
            "transactionFee": "0.000266455",
            "txnHash": "0x2f22fb325d8d27a6a5ab637bbe682ceeb89783af1d3e7297230d5a6a74e63f8f",
            "txnIndex": 212,
            "type": 0,
            "value": "0"
        },
        "fund_flow": [
            {
                "amount": "565",
                "from": "0x491aa7a0837cbaf1c0a9e042bf19c77fc00e0833",
                "id": 1,
                "isERC1155": false,
                "isERC721": false,
                "isReverted": false,
                "order": 1,
                "to": "0x31a8d166004c8ed095c6530d2adbf753ac46a950",
                "token": "0xf73b1f84e0c16cd56b0fad03295213a3098de0de"
            }
        ],
        "token_infos": [
            {
                "address": "0xc02aaa39b223fe8d0a0e5c4f27ead9083c756cc2",
                "decimals": 18
            },
            {
                "address": "0xf73b1f84e0c16cd56b0fad03295213a3098de0de",
                "decimals": 18
            },
            {
                "address": "0xeeeeeeeeeeeeeeeeeeeeeeeeeeeeeeeeeeeeeeee",
                "decimals": 18
            }
        ]
    },
    "address_label": {
        "labels": [
            {
                "address": "0x0000000000000000000000000000000000000003",
                "label": "Precompiled"
            },
            {
                "address": "0x0000000000000000000000000000000000000004",
                "label": "Precompiled"
            },
            {
                "address": "0xeeeeeeeeeeeeeeeeeeeeeeeeeeeeeeeeeeeeeeee",
                "label": "Ether"
            },
            {
                "address": "0xf73b1f84e0c16cd56b0fad03295213a3098de0de",
                "label": "ShineLayer2Token (SHT)"
            },
            {
                "address": "0x0000000000000000000000000000000000000001",
                "label": "Precompiled"
            },
            {
                "address": "0x0000000000000000000000000000000000000002",
                "label": "Precompiled"
            }
        ]
    },
    "trace": {
        "accountLabels": null,
        "dataMap": {
            "-1": {
                "invocation": {
                    "address": "0x491aa7a0837cbaf1c0a9e042bf19c77fc00e0833",
                    "callData": "",
                    "decodedMethod": null,
                    "errorInfo": "",
                    "fromAddress": "",
                    "gasUsed": 0,
                    "id": -1,
                    "methodDecoded": false,
                    "operation": "",
                    "output": "",
                    "revert": false,
                    "revertMessage": "",
                    "selector": "",
                    "status": false,
                    "value": ""
                },
                "nodeType": 0
            },
            "0": {
                "invocation": {
                    "address": "0xf73b1f84e0c16cd56b0fad03295213a3098de0de",
                    "callData": "0x00000000000000000000000031a8d166004c8ed095c6530d2adbf753ac46a95000000000000000000000000000000000000000000000001ea0f33a806fb40000",
                    "decodedMethod": {
                        "callParams": [
                            {
                                "name": "_to",
                                "type": "address",
                                "value": "0x31a8d166004c8ed095c6530d2adbf753ac46a950"
                            },
                            {
                                "decimalAvailable": true,
                                "name": "_value",
                                "type": "uint256",
                                "value": "565,000,000,000,000,000,000"
                            }
                        ],
                        "constructorArguments": "",
                        "name": "transfer",
                        "returnParams": [],
                        "signature": "transfer(address,uint256)"
                    },
                    "errorInfo": "",
                    "fromAddress": "0x491aa7a0837cbaf1c0a9e042bf19c77fc00e0833",
                    "gasUsed": 53291,
                    "id": 0,
                    "methodDecoded": true,
                    "operation": "CALL",
                    "output": "",
                    "revert": false,
                    "revertMessage": "",
                    "selector": "0xa9059cbb",
                    "status": true,
                    "value": "0"
                },
                "nodeType": 0
            },
            "1": {
                "event": {
                    "contract": "0xf73b1f84e0c16cd56b0fad03295213a3098de0de",
                    "decodedLog": {
                        "name": "Transfer",
                        "params": [
                            {
                                "name": "from",
                                "type": "address",
                                "value": "0x491aa7a0837cbaf1c0a9e042bf19c77fc00e0833"
                            },
                            {
                                "name": "to",
                                "type": "address",
                                "value": "0x31a8d166004c8ed095c6530d2adbf753ac46a950"
                            },
                            {
                                "decimalAvailable": true,
                                "name": "value",
                                "type": "uint256",
                                "value": "565,000,000,000,000,000,000"
                            }
                        ],
                        "signature": "Transfer(address,address,uint256)"
                    },
                    "id": 1,
                    "logData": "0x00000000000000000000000000000000000000000000001ea0f33a806fb40000",
                    "logDecoded": true,
                    "operation": "EVENT",
                    "revert": false,
                    "status": true,
                    "topics": [
                        "0xddf252ad1be2c89b69c2b068fc378daa952ba7f163c4a11628f55a4df523b3ef",
                        "0x000000000000000000000000491aa7a0837cbaf1c0a9e042bf19c77fc00e0833",
                        "0x00000000000000000000000031a8d166004c8ed095c6530d2adbf753ac46a950"
                    ]
                },
                "nodeType": 1
            }
        },
        "gasFlame": [
            {
                "children": [
                    {
                        "children": [
                            {
                                "children": [],
                                "depth": 0,
                                "name": "Initial Gas",
                                "value": 23192
                            },
                            {
                                "children": [],
                                "depth": 0,
                                "name": "Executed Gas",
                                "value": 30099
                            }
                        ],
                        "depth": -1,
                        "name": "Actual Gas Used",
                        "value": 53291
                    },
                    {
                        "children": [],
                        "depth": -1,
                        "name": "Refunded Gas",
                        "value": 0
                    }
                ],
                "depth": -2,
                "name": "Total Gas",
                "value": 53291
            }
        ],
        "isConfirmed": true,
        "mainTrace": [
            {
                "children": [
                    {
                        "children": [
                            {
                                "children": [],
                                "depth": 1,
                                "id": 1,
                                "order": 1
                            }
                        ],
                        "depth": 0,
                        "id": 0,
                        "order": 0
                    }
                ],
                "depth": -1,
                "id": -1,
                "order": -1
            }
        ],
        "mainTraceNodeCount": 2,
        "parentIdMap": {
            "0": -1,
            "1": 0
        },
        "tidyTrace": [
            {
                "children": [
                    {
                        "children": [
                            {
                                "children": [],
                                "depth": 1,
                                "id": 1,
                                "order": 1
                            }
                        ],
                        "depth": 0,
                        "id": 0,
                        "order": 0
                    }
                ],
                "depth": -1,
                "id": -1,
                "order": -1
            }
        ],
        "tidyTraceNodeCount": 2
    },
    "state_change": {
        "stateChanges": [
            {
                "address": "0xf73b1f84e0c16cd56b0fad03295213a3098de0de",
                "erc": "",
                "slots": [
                    {
                        "current": "0x0000000000000000000000000000000000000000000046a90bbf3265d5500000",
                        "key": "0x61fe29fd6768f42ec17eadf4be6e2afb98a6d53553f39045815d36037c1b1e39",
                        "prev": "0x0000000000000000000000000000000000000000000046c7acb26ce645040000"
                    },
                    {
                        "current": "0x00000000000000000000000000000000000000000000001ea0f33a806fb40000",
                        "key": "0x473329e9870165ec87ab382381c2a75425c452fce0e4a8140446ff338bf1ffc1",
                        "prev": "0x0000000000000000000000000000000000000000000000000000000000000000"
                    }
                ],
                "storageVariables": [
                    {
                        "name": "balanceOf",
                        "type": "mapping(address => uint256)",
                        "value": {
                            "pairs": [
                                {
                                    "key": "0x31a8d166004c8ed095c6530d2adbf753ac46a950",
                                    "value": {
                                        "current": "565000000000000000000",
                                        "prev": "0",
                                        "typeTag": 1
                                    }
                                },
                                {
                                    "key": "0x491aa7a0837cbaf1c0a9e042bf19c77fc00e0833",
                                    "value": {
                                        "current": "333684000000000000000000",
                                        "prev": "334249000000000000000000",
                                        "typeTag": 1
                                    }
                                }
                            ],
                            "typeTag": 4
                        }
                    }
                ]
            }
        ]
    }
}