{
    "balance_change": {
        "balanceChanges": [
            {
                "account": "0xf697e0d14411690a4139b91a2bed90ad7dcb54df",
                "assets": [
                    {
                        "address": "0x4c4c62a08eb49404ab85f3b4a0d6560488f2e216",
                        "amount": "2,000",
                        "iconUrl": "",
                        "isERC1155": false,
                        "isERC721": false,
                        "sign": false,
                        "value": ""
                    }
                ]
            },
            {
                "account": "0x0000000000000000000000000000000000000000",
                "assets": [
                    {
                        "address": "0x4c4c62a08eb49404ab85f3b4a0d6560488f2e216",
                        "amount": "2",
                        "iconUrl": "",
                        "isERC1155": false,
                        "isERC721": false,
                        "sign": true,
                        "value": ""
                    }
                ]
            },
            {
                "account": "0x36744b9e03966920e5b8c03b25770bed753c6372",
                "assets": [
                    {
                        "address": "0x4c4c62a08eb49404ab85f3b4a0d6560488f2e216",
                        "amount": "1,998",
                        "iconUrl": "",
                        "isERC1155": false,
                        "isERC721": false,
                        "sign": true,
                        "value": ""
                    }
                ]
            }
        ]
    },
    "profile": {
        "basic_info": {
            "baseFee": "",
            "blockNumber": 8328535,
            "callData": "0xa9059cbb00000000000000000000000036744b9e03966920e5b8c03b25770bed753c63720000000000000000000000000000000000000000000000000000000077359400",
            "debugEnable": true,
            "errorInfo": "",
            "eventCount": 2,
            "feeRecipient": "0xaa5c4244f05c92781c4f259913319d8ba1acf05e",
            "formatValue": "0",
            "gasLimit": 78023,
            "gasPrice": "6.900000256",
            "gasUsed": 60018,
            "intTxnCount": 0,
            "internalRevert": false,
            "internalRevertMessage": "",
            "isContractCreation": false,
            "isFlashloan": false,
            "maxFee": "",
            "nonce": 55,
            "overwritedBlockNumber": -1,
            "priorityFee": "",
            "receiver": "0x4c4c62a08eb49404ab85f3b4a0d6560488f2e216",
            "revertMessage": "",
            "sender": "0xf697e0d14411690a4139b91a2bed90ad7dcb54df",
            "simulationEnable": true,
            "sourceTxnHash": "0x2ffc7e5957c053c194e991dbd02eaf58521ed6dc6b095dd12d7e7eb2cbe55c8f",
            "status": true,
            "timestamp": "2019-08-11T09:41:38Z",
            "transactionFee": "0.000414124215364608",
            "txnHash": "0x2ffc7e5957c053c194e991dbd02eaf58521ed6dc6b095dd12d7e7eb2cbe55c8f",
            "txnIndex": 22,
            "type": 0,
            "value": "0"
        },
        "fund_flow": [
            {
                "amount": "1,998",
                "from": "0xf697e0d14411690a4139b91a2bed90ad7dcb54df",
                "id": 1,
                "isERC1155": false,
                "isERC721": false,
                "isReverted": false,
                "order": 1,
                "to": "0x36744b9e03966920e5b8c03b25770bed753c6372",
                "token": "0x4c4c62a08eb49404ab85f3b4a0d6560488f2e216"
            },
            {
                "amount": "2",
                "from": "0xf697e0d14411690a4139b91a2bed90ad7dcb54df",
                "id": 2,
                "isERC1155": false,
                "isERC721": false,
                "isReverted": false,
                "order": 2,
                "to": "0x0000000000000000000000000000000000000000",
                "token": "0x4c4c62a08eb49404ab85f3b4a0d6560488f2e216"
            }
        ],
        "token_infos": [
            {
                "address": "0xeeeeeeeeeeeeeeeeeeeeeeeeeeeeeeeeeeeeeeee",
                "decimals": 18
            },
            {
                "address": "0x4c4c62a08eb49404ab85f3b4a0d6560488f2e216",
                "decimals": 6
            },
            {
                "address": "0xc02aaa39b223fe8d0a0e5c4f27ead9083c756cc2",
                "decimals": 18
            }
        ]
    },
    "address_label": {
        "labels": [
            {
                "address": "0x0000000000000000000000000000000000000002",
                "label": "Precompiled"
            },
            {
                "address": "0x0000000000000000000000000000000000000003",
                "label": "Precompiled"
            },
            {
                "address": "0x0000000000000000000000000000000000000004",
                "label": "Precompiled"
            },
            {
                "address": "0xeeeeeeeeeeeeeeeeeeeeeeeeeeeeeeeeeeeeeeee",
                "label": "Ether"
            },
            {
                "address": "0x4c4c62a08eb49404ab85f3b4a0d6560488f2e216",
                "label": "Spark"
            },
            {
                "address": "0x0000000000000000000000000000000000000001",
                "label": "Precompiled"
            }
        ]
    },
    "trace": {
        "accountLabels": null,
        "dataMap": {
            "-1": {
                "invocation": {
                    "address": "0xf697e0d14411690a4139b91a2bed90ad7dcb54df",
                    "callData": "",
                    "decodedMethod": null,
                    "errorInfo": "",
                    "fromAddress": "",
                    "gasUsed": 0,
                    "id": -1,
                    "methodDecoded": false,
                    "operation": "",
                    "output": "",
                    "revert": false,
                    "revertMessage": "",
                    "selector": "",
                    "status": false,
                    "value": ""
                },
                "nodeType": 0
            },
            "0": {
                "invocation": {
                    "address": "0x4c4c62a08eb49404ab85f3b4a0d6560488f2e216",
                    "callData": "0x00000000000000000000000036744b9e03966920e5b8c03b25770bed753c63720000000000000000000000000000000000000000000000000000000077359400",
                    "decodedMethod": {
                        "callParams": [
                            {
                                "name": "to",
                                "type": "address",
                                "value": "0x36744b9e03966920e5b8c03b25770bed753c6372"
                            },
                            {
                                "decimalAvailable": true,
                                "name": "value",
                                "type": "uint256",
                                "value": "2,000,000,000"
                            }
                        ],
                        "constructorArguments": "",
                        "name": "transfer",
                        "returnParams": [
                            {
                                "name": "",
                                "type": "bool",
                                "value": true
                            }
                        ],
                        "signature": "transfer(address,uint256)"
                    },
                    "errorInfo": "",
                    "fromAddress": "0xf697e0d14411690a4139b91a2bed90ad7dcb54df",
                    "gasUsed": 60018,
                    "id": 0,
                    "methodDecoded": true,
                    "operation": "CALL",
                    "output": "0x0000000000000000000000000000000000000000000000000000000000000001",
                    "revert": false,
                    "revertMessage": "",
                    "selector": "0xa9059cbb",
                    "status": true,
                    "value": "0"
                },
                "nodeType": 0
            },
            "1": {
                "event": {
                    "contract": "0x4c4c62a08eb49404ab85f3b4a0d6560488f2e216",
                    "decodedLog": {
                        "name": "Transfer",
                        "params": [
                            {
                                "name": "from",
                                "type": "address",
                                "value": "0xf697e0d14411690a4139b91a2bed90ad7dcb54df"
                            },
                            {
                                "name": "to",
                                "type": "address",
                                "value": "0x36744b9e03966920e5b8c03b25770bed753c6372"
                            },
                            {
                                "decimalAvailable": true,
                                "name": "value",
                                "type": "uint256",
                                "value": "1,998,000,000"
                            }
                        ],
                        "signature": "Transfer(address,address,uint256)"
                    },
                    "id": 1,
                    "logData": "0x0000000000000000000000000000000000000000000000000000000077170f80",
                    "logDecoded": true,
                    "operation": "EVENT",
                    "revert": false,
                    "status": true,
                    "topics": [
                        "0xddf252ad1be2c89b69c2b068fc378daa952ba7f163c4a11628f55a4df523b3ef",
                        "0x000000000000000000000000f697e0d14411690a4139b91a2bed90ad7dcb54df",
                        "0x00000000000000000000000036744b9e03966920e5b8c03b25770bed753c6372"
                    ]
                },
                "nodeType": 1
            },
            "2": {
                "event": {
                    "contract": "0x4c4c62a08eb49404ab85f3b4a0d6560488f2e216",
                    "decodedLog": {
                        "name": "Transfer",
                        "params": [
                            {
                                "name": "from",
                                "type": "address",
                                "value": "0xf697e0d14411690a4139b91a2bed90ad7dcb54df"
                            },
                            {
                                "name": "to",
                                "type": "address",
                                "value": "0x0000000000000000000000000000000000000000"
                            },
                            {
                                "decimalAvailable": true,
                                "name": "value",
                                "type": "uint256",
                                "value": "2,000,000"
                            }
                        ],
                        "signature": "Transfer(address,address,uint256)"
                    },
                    "id": 2,
                    "logData": "0x00000000000000000000000000000000000000000000000000000000001e8480",
                    "logDecoded": true,
                    "operation": "EVENT",
                    "revert": false,
                    "status": true,
                    "topics": [
                        "0xddf252ad1be2c89b69c2b068fc378daa952ba7f163c4a11628f55a4df523b3ef",
                        "0x000000000000000000000000f697e0d14411690a4139b91a2bed90ad7dcb54df",
                        "0x0000000000000000000000000000000000000000000000000000000000000000"
                    ]
                },
                "nodeType": 1
            }
        },
        "gasFlame": [
            {
                "children": [
                    {
                        "children": [
                            {
                                "children": [],
                                "depth": 0,
                                "name": "Initial Gas",
                                "value": 23000
                            },
                            {
                                "children": [],
                                "depth": 0,
                                "name": "Executed Gas",
                                "value": 37018
                            }
                        ],
                        "depth": -1,
                        "name": "Actual Gas Used",
                        "value": 60018
                    },
                    {
                        "children": [],
                        "depth": -1,
                        "name": "Refunded Gas",
                        "value": 0
                    }
                ],
                "depth": -2,
                "name": "Total Gas",
                "value": 60018
            }
        ],
        "isConfirmed": true,
        "mainTrace": [
            {
                "children": [
                    {
                        "children": [
                            {
                                "children": [],
                                "depth": 1,
                                "id": 1,
                                "order": 1
                            },
                            {
                                "children": [],
                                "depth": 1,
                                "id": 2,
                                "order": 2
                            }
                        ],
                        "depth": 0,
                        "id": 0,
                        "order": 0
                    }
                ],
                "depth": -1,
                "id": -1,
                "order": -1
            }
        ],
        "mainTraceNodeCount": 3,
        "parentIdMap": {
            "0": -1,
            "1": 0,
            "2": 0
        },
        "tidyTrace": [
            {
                "children": [
                    {
                        "children": [
                            {
                                "children": [],
                                "depth": 1,
                                "id": 1,
                                "order": 1
                            },
                            {
                                "children": [],
                                "depth": 1,
                                "id": 2,
                                "order": 2
                            }
                        ],
                        "depth": 0,
                        "id": 0,
                        "order": 0
                    }
                ],
                "depth": -1,
                "id": -1,
                "order": -1
            }
        ],
        "tidyTraceNodeCount": 3
    },
    "state_change": {
        "stateChanges": [
            {
                "address": "0x4c4c62a08eb49404ab85f3b4a0d6560488f2e216",
                "erc": "ERC-20",
                "slots": [
                    {
                        "current": "0x000000000000000000000000000000000000000000000000000000e8c86bebe2",
                        "key": "0x0000000000000000000000000000000000000000000000000000000000000005",
                        "prev": "0x000000000000000000000000000000000000000000000000000000e8c88a7062"
                    },
                    {
                        "current": "0x000000000000000000000000000000000000000000000000000000b9156ffad0",
                        "key": "0xe9eab1e9ec878a7a3121e33c493d68cdc1df1ee187e43e36f0b014c59e13b239",
                        "prev": "0x000000000000000000000000000000000000000000000000000000b98ca58ed0"
                    },
                    {
                        "current": "0x0000000000000000000000000000000000000000000000000000000077170f80",
                        "key": "0xee537070fe2b1caec7968588313edf0a90dd7a22e162bad654632c56c802b89b",
                        "prev": "0x0000000000000000000000000000000000000000000000000000000000000000"
                    }
                ],
                "storageVariables": [
                    {
                        "name": "_totalSupply",
                        "type": "uint256",
                        "value": {
                            "current": "999794928610",
                            "prev": "999796928610",
                            "typeTag": 1
                        }
                    },
                    {
                        "name": "_balances",
                        "type": "mapping(address => uint256)",
                        "value": {
                            "pairs": [
                                {
                                    "key": "0x36744b9e03966920e5b8c03b25770bed753c6372",
                                    "value": {
                                        "current": "1998000000",
                                        "prev": "0",
                                        "typeTag": 1
                                    }
                                },
                                {
                                    "key": "0xf697e0d14411690a4139b91a2bed90ad7dcb54df",
                                    "value": {
                                        "current": "794928610000",
                                        "prev": "796928610000",
                                        "typeTag": 1
                                    }
                                }
                            ],
                            "typeTag": 4
                        }
                    }
                ]
            }
        ]
    }
}