{
    "balance_change": {
        "balanceChanges": []
    },
    "profile": {
        "basic_info": {
            "baseFee": "11.550157165",
            "blockNumber": 16025579,
            "callData": "0xc980753900000000000000000000000000000000000000000000000000000000000000800000000000000000000000000000000000000000000000000000000000000320000000000000000000000000000000000000000000000000000000000000040000000001000000000000000000000000000000000000000000000000000000000000000000000000000000000000000000000000000000000000000000000280000000000000000000000092135a2f383cfc61511d181ace106f3e00048c02040109000c0a0b0508040d07030e06020f0000000000000000000000000000000000000000000000000000000000000000000000000000000000000000000000600000000000000000000000000000000000000000000000000000000000000010000000000000000000000000000000000000000000000000000000000034d9d3000000000000000000000000000000000000000000000000000000000034db30000000000000000000000000000000000000000000000000000000000034dd3b000000000000000000000000000000000000000000000000000000000034dd3b000000000000000000000000000000000000000000000000000000000034ddd2000000000000000000000000000000000000000000000000000000000034dfdf000000000000000000000000000000000000000000000000000000000034f2b0000000000000000000000000000000000000000000000000000000000034f8280000000000000000000000000000000000000000000000000000000000350cf2000000000000000000000000000000000000000000000000000000000035137700000000000000000000000000000000000000000000000000000000003519f100000000000000000000000000000000000000000000000000000000003519f100000000000000000000000000000000000000000000000000000000003520d80000000000000000000000000000000000000000000000000000000000352d6900000000000000000000000000000000000000000000000000000000003540d000000000000000000000000000000000000000000000000000000000003553410000000000000000000000000000000000000000000000000000000000000006480fff0bf35b8ed10f0c99b26af0759f037be5ea7ad74f654a71f25c535bbdf5ac3217007b6fb8daec0b83849268f88754d5b29a38a497777d5d17513fb99286715f74459636b2884ea671443ee32da125cda22a47503438efcd22b6882a96b921a5c32c828347c117e1448423197bc7bd15f94737cb6f7c461116ffa27a36123ab735d67ca8f299e679a6367e89cde3c670d02335ecb96fbe615e0a0b7947dfe2acdf12717dda128e4277cd7cc4066fd25db9c6f6192a68bc86d20c58cbb9f50000000000000000000000000000000000000000000000000000000000000006335e572c593849be5300fd14d1a69977c5f23a7e7f1fc337d413b14ebd9e73542365304aa3bc836fc24317c0f518c5646741eb6f29faa6c4c36e45fcc2bd72dd7afa43de4269ba2dbef435276eb0646b28fa9317ca2524b58e51ce2f21dd3b6d02047323a78fac2af53c08f5cdf9db72676c8bbe2c834cd55b6e2c4327696bd801fd15be106aacf6b01a952adb68927bb8286af6fa072d0ae14663e20c5ac51931f7404fe47060cbcac6bf4ddffa4d9f4af4611c942c52f9febb696f6a075b61",
            "debugEnable": true,
            "errorInfo": "",
            "eventCount": 3,
            "feeRecipient": "0xdafea492d9c6733ae3d56b7ed1adb60692c98bc5",
            "formatValue": "0",
            "gasLimit": 740000,
            "gasPrice": "13.050157165",
            "gasUsed": 176195,
            "intTxnCount": 6,
            "internalRevert": false,
            "internalRevertMessage": "",
            "isContractCreation": false,
            "isFlashloan": false,
            "maxFee": "20.273217262",
            "nonce": 61609,
            "overwritedBlockNumber": -1,
            "priorityFee": "1.5",
            "receiver": "0xaba1eace8627c15324890315e942a4fbd73b70e0",
            "revertMessage": "",
            "sender": "0xce859e48f6ce9834a119ba04fdc53c1d4f1082a7",
            "simulationEnable": true,
            "sourceTxnHash": "0x2f9ce472e2f07e4553b87d0ce418db5b288a877885bada7f51c52bf27c48d811",
            "status": true,
            "timestamp": "2022-11-22T12:34:47Z",
            "transactionFee": "0.002299372441687175",
            "txnHash": "0x2f9ce472e2f07e4553b87d0ce418db5b288a877885bada7f51c52bf27c48d811",
            "txnIndex": 51,
            "type": 2,
            "value": "0"
        },
        "fund_flow": [],
        "token_infos": [
            {
                "address": "0xc02aaa39b223fe8d0a0e5c4f27ead9083c756cc2",
                "decimals": 18
            },
            {
                "address": "0xeeeeeeeeeeeeeeeeeeeeeeeeeeeeeeeeeeeeeeee",
                "decimals": 18
            }
        ]
    },
    "address_label": {
        "labels": [
            {
                "address": "0x0000000000000000000000000000000000000004",
                "label": "Precompiled"
            },
            {
                "address": "0xeeeeeeeeeeeeeeeeeeeeeeeeeeeeeeeeeeeeeeee",
                "label": "Ether"
            },
            {
                "address": "0xaba1eace8627c15324890315e942a4fbd73b70e0",
                "label": "AccessControlledOffchainAggregator"
            },
            {
                "address": "0x0000000000000000000000000000000000000001",
                "label": "Precompiled"
            },
            {
                "address": "0x0000000000000000000000000000000000000002",
                "label": "Precompiled"
            },
            {
                "address": "0x0000000000000000000000000000000000000003",
                "label": "Precompiled"
            }
        ]
    },
    "trace": {
        "accountLabels": null,
        "dataMap": {
            "-1": {
                "invocation": {
                    "address": "0xce859e48f6ce9834a119ba04fdc53c1d4f1082a7",
                    "callData": "",
                    "decodedMethod": null,
                    "errorInfo": "",
                    "fromAddress": "",
                    "gasUsed": 0,
                    "id": -1,
                    "methodDecoded": false,
                    "operation": "",
                    "output": "",
                    "revert": false,
                    "revertMessage": "",
                    "selector": "",
                    "status": false,
                    "value": ""
                },
                "nodeType": 0
            },
            "0": {
                "invocation": {
                    "address": "0xaba1eace8627c15324890315e942a4fbd73b70e0",
                    "callData": "0x00000000000000000000000000000000000000000000000000000000000000800000000000000000000000000000000000000000000000000000000000000320000000000000000000000000000000000000000000000000000000000000040000000001000000000000000000000000000000000000000000000000000000000000000000000000000000000000000000000000000000000000000000000280000000000000000000000092135a2f383cfc61511d181ace106f3e00048c02040109000c0a0b0508040d07030e06020f0000000000000000000000000000000000000000000000000000000000000000000000000000000000000000000000600000000000000000000000000000000000000000000000000000000000000010000000000000000000000000000000000000000000000000000000000034d9d3000000000000000000000000000000000000000000000000000000000034db30000000000000000000000000000000000000000000000000000000000034dd3b000000000000000000000000000000000000000000000000000000000034dd3b000000000000000000000000000000000000000000000000000000000034ddd2000000000000000000000000000000000000000000000000000000000034dfdf000000000000000000000000000000000000000000000000000000000034f2b0000000000000000000000000000000000000000000000000000000000034f8280000000000000000000000000000000000000000000000000000000000350cf2000000000000000000000000000000000000000000000000000000000035137700000000000000000000000000000000000000000000000000000000003519f100000000000000000000000000000000000000000000000000000000003519f100000000000000000000000000000000000000000000000000000000003520d80000000000000000000000000000000000000000000000000000000000352d6900000000000000000000000000000000000000000000000000000000003540d000000000000000000000000000000000000000000000000000000000003553410000000000000000000000000000000000000000000000000000000000000006480fff0bf35b8ed10f0c99b26af0759f037be5ea7ad74f654a71f25c535bbdf5ac3217007b6fb8daec0b83849268f88754d5b29a38a497777d5d17513fb99286715f74459636b2884ea671443ee32da125cda22a47503438efcd22b6882a96b921a5c32c828347c117e1448423197bc7bd15f94737cb6f7c461116ffa27a36123ab735d67ca8f299e679a6367e89cde3c670d02335ecb96fbe615e0a0b7947dfe2acdf12717dda128e4277cd7cc4066fd25db9c6f6192a68bc86d20c58cbb9f50000000000000000000000000000000000000000000000000000000000000006335e572c593849be5300fd14d1a69977c5f23a7e7f1fc337d413b14ebd9e73542365304aa3bc836fc24317c0f518c5646741eb6f29faa6c4c36e45fcc2bd72dd7afa43de4269ba2dbef435276eb0646b28fa9317ca2524b58e51ce2f21dd3b6d02047323a78fac2af53c08f5cdf9db72676c8bbe2c834cd55b6e2c4327696bd801fd15be106aacf6b01a952adb68927bb8286af6fa072d0ae14663e20c5ac51931f7404fe47060cbcac6bf4ddffa4d9f4af4611c942c52f9febb696f6a075b61",
                    "decodedMethod": {
                        "callParams": [
                            {
                                "name": "_report",
                                "type": "bytes",
                                "value": "0x000000000000000000000092135a2f383cfc61511d181ace106f3e00048c02040109000c0a0b0508040d07030e06020f0000000000000000000000000000000000000000000000000000000000000000000000000000000000000000000000600000000000000000000000000000000000000000000000000000000000000010000000000000000000000000000000000000000000000000000000000034d9d3000000000000000000000000000000000000000000000000000000000034db30000000000000000000000000000000000000000000000000000000000034dd3b000000000000000000000000000000000000000000000000000000000034dd3b000000000000000000000000000000000000000000000000000000000034ddd2000000000000000000000000000000000000000000000000000000000034dfdf000000000000000000000000000000000000000000000000000000000034f2b0000000000000000000000000000000000000000000000000000000000034f8280000000000000000000000000000000000000000000000000000000000350cf2000000000000000000000000000000000000000000000000000000000035137700000000000000000000000000000000000000000000000000000000003519f100000000000000000000000000000000000000000000000000000000003519f100000000000000000000000000000000000000000000000000000000003520d80000000000000000000000000000000000000000000000000000000000352d6900000000000000000000000000000000000000000000000000000000003540d00000000000000000000000000000000000000000000000000000000000355341"
                            },
                            {
                                "name": "_rs",
                                "type": "bytes32[]",
                                "value": [
                                    "0x480fff0bf35b8ed10f0c99b26af0759f037be5ea7ad74f654a71f25c535bbdf5",
                                    "0xac3217007b6fb8daec0b83849268f88754d5b29a38a497777d5d17513fb99286",
                                    "0x715f74459636b2884ea671443ee32da125cda22a47503438efcd22b6882a96b9",
                                    "0x21a5c32c828347c117e1448423197bc7bd15f94737cb6f7c461116ffa27a3612",
                                    "0x3ab735d67ca8f299e679a6367e89cde3c670d02335ecb96fbe615e0a0b7947df",
                                    "0xe2acdf12717dda128e4277cd7cc4066fd25db9c6f6192a68bc86d20c58cbb9f5"
                                ]
                            },
                            {
                                "name": "_ss",
                                "type": "bytes32[]",
                                "value": [
                                    "0x335e572c593849be5300fd14d1a69977c5f23a7e7f1fc337d413b14ebd9e7354",
                                    "0x2365304aa3bc836fc24317c0f518c5646741eb6f29faa6c4c36e45fcc2bd72dd",
                                    "0x7afa43de4269ba2dbef435276eb0646b28fa9317ca2524b58e51ce2f21dd3b6d",
                                    "0x02047323a78fac2af53c08f5cdf9db72676c8bbe2c834cd55b6e2c4327696bd8",
                                    "0x01fd15be106aacf6b01a952adb68927bb8286af6fa072d0ae14663e20c5ac519",
                                    "0x31f7404fe47060cbcac6bf4ddffa4d9f4af4611c942c52f9febb696f6a075b61"
                                ]
                            },
                            {
                                "name": "_rawVs",
                                "type": "bytes32",
                                "value": "0x0000000100000000000000000000000000000000000000000000000000000000"
                            }
                        ],
                        "constructorArguments": "",
                        "name": "transmit",
                        "returnParams": [],
                        "signature": "transmit(bytes,bytes32[],bytes32[],bytes32)"
                    },
                    "errorInfo": "",
                    "fromAddress": "0xce859e48f6ce9834a119ba04fdc53c1d4f1082a7",
                    "gasUsed": 176195,
                    "id": 0,
                    "methodDecoded": true,
                    "operation": "CALL",
                    "output": "",
                    "revert": false,
                    "revertMessage": "",
                    "selector": "0xc9807539",
                    "status": true,
                    "value": "0"
                },
                "nodeType": 0
            },
            "1": {
                "invocation": {
                    "address": "0x0000000000000000000000000000000000000001",
                    "callData": "0x4b5cb748f62d35f9e62ce71e3e94076e09f8d0ebb8ac72ae9e038a38000000000000000000000000000000000000000000000000000000000000001b480fff0bf35b8ed10f0c99b26af0759f037be5ea7ad74f654a71f25c535bbdf5335e572c593849be5300fd14d1a69977c5f23a7e7f1fc337d413b14ebd9e7354",
                    "decodedMethod": {
                        "callParams": [
                            {
                                "name": "hash",
                                "type": "bytes32",
                                "value": "0xd0ccddf74b5cb748f62d35f9e62ce71e3e94076e09f8d0ebb8ac72ae9e038a38"
                            },
                            {
                                "name": "v",
                                "type": "uint256",
                                "value": "27"
                            },
                            {
                                "name": "r",
                                "type": "bytes32",
                                "value": "0x480fff0bf35b8ed10f0c99b26af0759f037be5ea7ad74f654a71f25c535bbdf5"
                            },
                            {
                                "name": "s",
                                "type": "bytes32",
                                "value": "0x335e572c593849be5300fd14d1a69977c5f23a7e7f1fc337d413b14ebd9e7354"
                            }
                        ],
                        "constructorArguments": "",
                        "name": "ecrecover",
                        "returnParams": [
                            {
                                "name": "",
                                "type": "address",
                                "value": "0x0ac6c28b582016a55f6d4e3ac77b64749568ffe1"
                            }
                        ],
                        "signature": "ecrecover(bytes32,uint256,bytes32,bytes32)"
                    },
                    "errorInfo": "",
                    "fromAddress": "0xaba1eace8627c15324890315e942a4fbd73b70e0",
                    "gasUsed": 3000,
                    "id": 1,
                    "methodDecoded": true,
                    "operation": "STATICCALL",
                    "output": "0x0000000000000000000000000ac6c28b582016a55f6d4e3ac77b64749568ffe1",
                    "revert": false,
                    "revertMessage": "",
                    "selector": "0xd0ccddf7",
                    "status": true,
                    "value": "0"
                },
                "nodeType": 0
            },
            "2": {
                "invocation": {
                    "address": "0x0000000000000000000000000000000000000001",
                    "callData": "0x4b5cb748f62d35f9e62ce71e3e94076e09f8d0ebb8ac72ae9e038a38000000000000000000000000000000000000000000000000000000000000001bac3217007b6fb8daec0b83849268f88754d5b29a38a497777d5d17513fb992862365304aa3bc836fc24317c0f518c5646741eb6f29faa6c4c36e45fcc2bd72dd",
                    "decodedMethod": {
                        "callParams": [
                            {
                                "name": "hash",
                                "type": "bytes32",
                                "value": "0xd0ccddf74b5cb748f62d35f9e62ce71e3e94076e09f8d0ebb8ac72ae9e038a38"
                            },
                            {
                                "name": "v",
                                "type": "uint256",
                                "value": "27"
                            },
                            {
                                "name": "r",
                                "type": "bytes32",
                                "value": "0xac3217007b6fb8daec0b83849268f88754d5b29a38a497777d5d17513fb99286"
                            },
                            {
                                "name": "s",
                                "type": "bytes32",
                                "value": "0x2365304aa3bc836fc24317c0f518c5646741eb6f29faa6c4c36e45fcc2bd72dd"
                            }
                        ],
                        "constructorArguments": "",
                        "name": "ecrecover",
                        "returnParams": [
                            {
                                "name": "",
                                "type": "address",
                                "value": "0x22b4a3a7224db951d2804e427fbc3c5fc02b6c5e"
                            }
                        ],
                        "signature": "ecrecover(bytes32,uint256,bytes32,bytes32)"
                    },
                    "errorInfo": "",
                    "fromAddress": "0xaba1eace8627c15324890315e942a4fbd73b70e0",
                    "gasUsed": 3000,
                    "id": 2,
                    "methodDecoded": true,
                    "operation": "STATICCALL",
                    "output": "0x00000000000000000000000022b4a3a7224db951d2804e427fbc3c5fc02b6c5e",
                    "revert": false,
                    "revertMessage": "",
                    "selector": "0xd0ccddf7",
                    "status": true,
                    "value": "0"
                },
                "nodeType": 0
            },
            "3": {
                "invocation": {
                    "address": "0x0000000000000000000000000000000000000001",
                    "callData": "0x4b5cb748f62d35f9e62ce71e3e94076e09f8d0ebb8ac72ae9e038a38000000000000000000000000000000000000000000000000000000000000001b715f74459636b2884ea671443ee32da125cda22a47503438efcd22b6882a96b97afa43de4269ba2dbef435276eb0646b28fa9317ca2524b58e51ce2f21dd3b6d",
                    "decodedMethod": {
                        "callParams": [
                            {
                                "name": "hash",
                                "type": "bytes32",
                                "value": "0xd0ccddf74b5cb748f62d35f9e62ce71e3e94076e09f8d0ebb8ac72ae9e038a38"
                            },
                            {
                                "name": "v",
                                "type": "uint256",
                                "value": "27"
                            },
                            {
                                "name": "r",
                                "type": "bytes32",
                                "value": "0x715f74459636b2884ea671443ee32da125cda22a47503438efcd22b6882a96b9"
                            },
                            {
                                "name": "s",
                                "type": "bytes32",
                                "value": "0x7afa43de4269ba2dbef435276eb0646b28fa9317ca2524b58e51ce2f21dd3b6d"
                            }
                        ],
                        "constructorArguments": "",
                        "name": "ecrecover",
                        "returnParams": [
                            {
                                "name": "",
                                "type": "address",
                                "value": "0x55048bc9f3a3f373031fb32c0d0d5c1bc6e10b3b"
                            }
                        ],
                        "signature": "ecrecover(bytes32,uint256,bytes32,bytes32)"
                    },
                    "errorInfo": "",
                    "fromAddress": "0xaba1eace8627c15324890315e942a4fbd73b70e0",
                    "gasUsed": 3000,
                    "id": 3,
                    "methodDecoded": true,
                    "operation": "STATICCALL",
                    "output": "0x00000000000000000000000055048bc9f3a3f373031fb32c0d0d5c1bc6e10b3b",
                    "revert": false,
                    "revertMessage": "",
                    "selector": "0xd0ccddf7",
                    "status": true,
                    "value": "0"
                },
                "nodeType": 0
            },
            "4": {
                "invocation": {
                    "address": "0x0000000000000000000000000000000000000001",
                    "callData": "0x4b5cb748f62d35f9e62ce71e3e94076e09f8d0ebb8ac72ae9e038a38000000000000000000000000000000000000000000000000000000000000001c21a5c32c828347c117e1448423197bc7bd15f94737cb6f7c461116ffa27a361202047323a78fac2af53c08f5cdf9db72676c8bbe2c834cd55b6e2c4327696bd8",
                    "decodedMethod": {
                        "callParams": [
                            {
                                "name": "hash",
                                "type": "bytes32",
                                "value": "0xd0ccddf74b5cb748f62d35f9e62ce71e3e94076e09f8d0ebb8ac72ae9e038a38"
                            },
                            {
                                "name": "v",
                                "type": "uint256",
                                "value": "28"
                            },
                            {
                                "name": "r",
                                "type": "bytes32",
                                "value": "0x21a5c32c828347c117e1448423197bc7bd15f94737cb6f7c461116ffa27a3612"
                            },
                            {
                                "name": "s",
                                "type": "bytes32",
                                "value": "0x02047323a78fac2af53c08f5cdf9db72676c8bbe2c834cd55b6e2c4327696bd8"
                            }
                        ],
                        "constructorArguments": "",
                        "name": "ecrecover",
                        "returnParams": [
                            {
                                "name": "",
                                "type": "address",
                                "value": "0xcc1b49b86f79c7e50e294d3e3734fe94db9a42f0"
                            }
                        ],
                        "signature": "ecrecover(bytes32,uint256,bytes32,bytes32)"
                    },
                    "errorInfo": "",
                    "fromAddress": "0xaba1eace8627c15324890315e942a4fbd73b70e0",
                    "gasUsed": 3000,
                    "id": 4,
                    "methodDecoded": true,
                    "operation": "STATICCALL",
                    "output": "0x000000000000000000000000cc1b49b86f79c7e50e294d3e3734fe94db9a42f0",
                    "revert": false,
                    "revertMessage": "",
                    "selector": "0xd0ccddf7",
                    "status": true,
                    "value": "0"
                },
                "nodeType": 0
            },
            "5": {
                "invocation": {
                    "address": "0x0000000000000000000000000000000000000001",
                    "callData": "0x4b5cb748f62d35f9e62ce71e3e94076e09f8d0ebb8ac72ae9e038a38000000000000000000000000000000000000000000000000000000000000001b3ab735d67ca8f299e679a6367e89cde3c670d02335ecb96fbe615e0a0b7947df01fd15be106aacf6b01a952adb68927bb8286af6fa072d0ae14663e20c5ac519",
                    "decodedMethod": {
                        "callParams": [
                            {
                                "name": "hash",
                                "type": "bytes32",
                                "value": "0xd0ccddf74b5cb748f62d35f9e62ce71e3e94076e09f8d0ebb8ac72ae9e038a38"
                            },
                            {
                                "name": "v",
                                "type": "uint256",
                                "value": "27"
                            },
                            {
                                "name": "r",
                                "type": "bytes32",
                                "value": "0x3ab735d67ca8f299e679a6367e89cde3c670d02335ecb96fbe615e0a0b7947df"
                            },
                            {
                                "name": "s",
                                "type": "bytes32",
                                "value": "0x01fd15be106aacf6b01a952adb68927bb8286af6fa072d0ae14663e20c5ac519"
                            }
                        ],
                        "constructorArguments": "",
                        "name": "ecrecover",
                        "returnParams": [
                            {
                                "name": "",
                                "type": "address",
                                "value": "0xbec006bc75913db53a5297fac16bb5ba85f4e678"
                            }
                        ],
                        "signature": "ecrecover(bytes32,uint256,bytes32,bytes32)"
                    },
                    "errorInfo": "",
                    "fromAddress": "0xaba1eace8627c15324890315e942a4fbd73b70e0",
                    "gasUsed": 3000,
                    "id": 5,
                    "methodDecoded": true,
                    "operation": "STATICCALL",
                    "output": "0x000000000000000000000000bec006bc75913db53a5297fac16bb5ba85f4e678",
                    "revert": false,
                    "revertMessage": "",
                    "selector": "0xd0ccddf7",
                    "status": true,
                    "value": "0"
                },
                "nodeType": 0
            },
            "6": {
                "invocation": {
                    "address": "0x0000000000000000000000000000000000000001",
                    "callData": "0x4b5cb748f62d35f9e62ce71e3e94076e09f8d0ebb8ac72ae9e038a38000000000000000000000000000000000000000000000000000000000000001be2acdf12717dda128e4277cd7cc4066fd25db9c6f6192a68bc86d20c58cbb9f531f7404fe47060cbcac6bf4ddffa4d9f4af4611c942c52f9febb696f6a075b61",
                    "decodedMethod": {
                        "callParams": [
                            {
                                "name": "hash",
                                "type": "bytes32",
                                "value": "0xd0ccddf74b5cb748f62d35f9e62ce71e3e94076e09f8d0ebb8ac72ae9e038a38"
                            },
                            {
                                "name": "v",
                                "type": "uint256",
                                "value": "27"
                            },
                            {
                                "name": "r",
                                "type": "bytes32",
                                "value": "0xe2acdf12717dda128e4277cd7cc4066fd25db9c6f6192a68bc86d20c58cbb9f5"
                            },
                            {
                                "name": "s",
                                "type": "bytes32",
                                "value": "0x31f7404fe47060cbcac6bf4ddffa4d9f4af4611c942c52f9febb696f6a075b61"
                            }
                        ],
                        "constructorArguments": "",
                        "name": "ecrecover",
                        "returnParams": [
                            {
                                "name": "",
                                "type": "address",
                                "value": "0x8aef20dae25c553902be213e86a8e58a39809c14"
                            }
                        ],
                        "signature": "ecrecover(bytes32,uint256,bytes32,bytes32)"
                    },
                    "errorInfo": "",
                    "fromAddress": "0xaba1eace8627c15324890315e942a4fbd73b70e0",
                    "gasUsed": 3000,
                    "id": 6,
                    "methodDecoded": true,
                    "operation": "STATICCALL",
                    "output": "0x0000000000000000000000008aef20dae25c553902be213e86a8e58a39809c14",
                    "revert": false,
                    "revertMessage": "",
                    "selector": "0xd0ccddf7",
                    "status": true,
                    "value": "0"
                },
                "nodeType": 0
            },
            "7": {
                "event": {
                    "contract": "0xaba1eace8627c15324890315e942a4fbd73b70e0",
                    "decodedLog": {
                        "name": "NewTransmission",
                        "params": [
                            {
                                "name": "aggregatorRoundId",
                                "type": "uint32",
                                "value": "7,431"
                            },
                            {
                                "name": "answer",
                                "type": "int192",
                                "value": "3,476,722"
                            },
                            {
                                "name": "transmitter",
                                "type": "address",
                                "value": "0xce859e48f6ce9834a119ba04fdc53c1d4f1082a7"
                            },
                            {
                                "name": "observations",
                                "type": "int192[]",
                                "value": [
                                    "3,463,635",
                                    "3,463,984",
                                    "3,464,507",
                                    "3,464,507",
                                    "3,464,658",
                                    "3,465,183",
                                    "3,470,000",
                                    "3,471,400",
                                    "3,476,722",
                                    "3,478,391",
                                    "3,480,049",
                                    "3,480,049",
                                    "3,481,816",
                                    "3,485,033",
                                    "3,490,000",
                                    "3,494,721"
                                ]
                            },
                            {
                                "name": "observers",
                                "type": "bytes",
                                "value": "0x0109000c0a0b0508040d07030e06020f"
                            },
                            {
                                "name": "rawReportContext",
                                "type": "bytes32",
                                "value": "0x000000000000000000000092135a2f383cfc61511d181ace106f3e00048c0204"
                            }
                        ],
                        "signature": "NewTransmission(uint32,int192,address,int192[],bytes,bytes32)"
                    },
                    "id": 7,
                    "logData": "0x0000000000000000000000000000000000000000000000000000000000350cf2000000000000000000000000ce859e48f6ce9834a119ba04fdc53c1d4f1082a700000000000000000000000000000000000000000000000000000000000000a000000000000000000000000000000000000000000000000000000000000002c0000000000000000000000092135a2f383cfc61511d181ace106f3e00048c02040000000000000000000000000000000000000000000000000000000000000010000000000000000000000000000000000000000000000000000000000034d9d3000000000000000000000000000000000000000000000000000000000034db30000000000000000000000000000000000000000000000000000000000034dd3b000000000000000000000000000000000000000000000000000000000034dd3b000000000000000000000000000000000000000000000000000000000034ddd2000000000000000000000000000000000000000000000000000000000034dfdf000000000000000000000000000000000000000000000000000000000034f2b0000000000000000000000000000000000000000000000000000000000034f8280000000000000000000000000000000000000000000000000000000000350cf2000000000000000000000000000000000000000000000000000000000035137700000000000000000000000000000000000000000000000000000000003519f100000000000000000000000000000000000000000000000000000000003519f100000000000000000000000000000000000000000000000000000000003520d80000000000000000000000000000000000000000000000000000000000352d6900000000000000000000000000000000000000000000000000000000003540d0000000000000000000000000000000000000000000000000000000000035534100000000000000000000000000000000000000000000000000000000000000100109000c0a0b0508040d07030e06020f00000000000000000000000000000000",
                    "logDecoded": true,
                    "operation": "EVENT",
                    "revert": false,
                    "status": true,
                    "topics": [
                        "0xf6a97944f31ea060dfde0566e4167c1a1082551e64b60ecb14d599a9d023d451",
                        "0x0000000000000000000000000000000000000000000000000000000000001d07"
                    ]
                },
                "nodeType": 1
            },
            "8": {
                "event": {
                    "contract": "0xaba1eace8627c15324890315e942a4fbd73b70e0",
                    "decodedLog": {
                        "name": "NewRound",
                        "params": [
                            {
                                "name": "roundId",
                                "type": "uint256",
                                "value": "7,431"
                            },
                            {
                                "name": "startedBy",
                                "type": "address",
                                "value": "0x0000000000000000000000000000000000000000"
                            },
                            {
                                "name": "startedAt",
                                "type": "uint256",
                                "value": "1,669,120,487"
                            }
                        ],
                        "signature": "NewRound(uint256,address,uint256)"
                    },
                    "id": 8,
                    "logData": "0x00000000000000000000000000000000000000000000000000000000637cc1e7",
                    "logDecoded": true,
                    "operation": "EVENT",
                    "revert": false,
                    "status": true,
                    "topics": [
                        "0x0109fc6f55cf40689f02fbaad7af7fe7bbac8a3d2186600afc7d3e10cac60271",
                        "0x0000000000000000000000000000000000000000000000000000000000001d07",
                        "0x0000000000000000000000000000000000000000000000000000000000000000"
                    ]
                },
                "nodeType": 1
            },
            "9": {
                "event": {
                    "contract": "0xaba1eace8627c15324890315e942a4fbd73b70e0",
                    "decodedLog": {
                        "name": "AnswerUpdated",
                        "params": [
                            {
                                "name": "current",
                                "type": "int256",
                                "value": "3,476,722"
                            },
                            {
                                "name": "roundId",
                                "type": "uint256",
                                "value": "7,431"
                            },
                            {
                                "name": "updatedAt",
                                "type": "uint256",
                                "value": "1,669,120,487"
                            }
                        ],
                        "signature": "AnswerUpdated(int256,uint256,uint256)"
                    },
                    "id": 9,
                    "logData": "0x00000000000000000000000000000000000000000000000000000000637cc1e7",
                    "logDecoded": true,
                    "operation": "EVENT",
                    "revert": false,
                    "status": true,
                    "topics": [
                        "0x0559884fd3a460db3073b7fc896cc77986f16e378210ded43186175bf646fc5f",
                        "0x0000000000000000000000000000000000000000000000000000000000350cf2",
                        "0x0000000000000000000000000000000000000000000000000000000000001d07"
                    ]
                },
                "nodeType": 1
            }
        },
        "gasFlame": [
            {
                "children": [
                    {
                        "children": [
                            {
                                "children": [],
                                "depth": 0,
                                "name": "Initial Gas",
                                "value": 31768
                            },
                            {
                                "children": [
                                    {
                                        "children": [],
                                        "depth": 1,
                                        "name": "ecrecover",
                                        "value": 3000
                                    },
                                    {
                                        "children": [],
                                        "depth": 1,
                                        "name": "ecrecover",
                                        "value": 3000
                                    },
                                    {
                                        "children": [],
                                        "depth": 1,
                                        "name": "ecrecover",
                                        "value": 3000
                                    },
                                    {
                                        "children": [],
                                        "depth": 1,
                                        "name": "ecrecover",
                                        "value": 3000
                                    },
                                    {
                                        "children": [],
                                        "depth": 1,
                                        "name": "ecrecover",
                                        "value": 3000
                                    },
                                    {
                                        "children": [],
                                        "depth": 1,
                                        "name": "ecrecover",
                                        "value": 3000
                                    }
                                ],
                                "depth": 0,
                                "name": "Executed Gas",
                                "value": 144427
                            }
                        ],
                        "depth": -1,
                        "name": "Actual Gas Used",
                        "value": 176195
                    },
                    {
                        "children": [],
                        "depth": -1,
                        "name": "Refunded Gas",
                        "value": 0
                    }
                ],
                "depth": -2,
                "name": "Total Gas",
                "value": 176195
            }
        ],
        "isConfirmed": true,
        "mainTrace": [
            {
                "children": [
                    {
                        "children": [
                            {
                                "children": [],
                                "depth": 1,
                                "id": 1,
                                "order": 1
                            },
                            {
                                "children": [],
                                "depth": 1,
                                "id": 2,
                                "order": 2
                            },
                            {
                                "children": [],
                                "depth": 1,
                                "id": 3,
                                "order": 3
                            },
                            {
                                "children": [],
                                "depth": 1,
                                "id": 4,
                                "order": 4
                            },
                            {
                                "children": [],
                                "depth": 1,
                                "id": 5,
                                "order": 5
                            },
                            {
                                "children": [],
                                "depth": 1,
                                "id": 6,
                                "order": 6
                            },
                            {
                                "children": [],
                                "depth": 1,
                                "id": 7,
                                "order": 7
                            },
                            {
                                "children": [],
                                "depth": 1,
                                "id": 8,
                                "order": 8
                            },
                            {
                                "children": [],
                                "depth": 1,
                                "id": 9,
                                "order": 9
                            }
                        ],
                        "depth": 0,
                        "id": 0,
                        "order": 0
                    }
                ],
                "depth": -1,
                "id": -1,
                "order": -1
            }
        ],
        "mainTraceNodeCount": 10,
        "parentIdMap": {
            "0": -1,
            "1": 0,
            "2": 0,
            "3": 0,
            "4": 0,
            "5": 0,
            "6": 0,
            "7": 0,
            "8": 0,
            "9": 0
        },
        "tidyTrace": [
            {
                "children": [
                    {
                        "children": [
                            {
                                "children": [],
                                "depth": 1,
                                "id": 7,
                                "order": 7
                            },
                            {
                                "children": [],
                                "depth": 1,
                                "id": 8,
                                "order": 8
                            },
                            {
                                "children": [],
                                "depth": 1,
                                "id": 9,
                                "order": 9
                            }
                        ],
                        "depth": 0,
                        "id": 0,
                        "order": 0
                    }
                ],
                "depth": -1,
                "id": -1,
                "order": -1
            }
        ],
        "tidyTraceNodeCount": 4
    },
    "state_change": {
        "stateChanges": [
            {
                "address": "0xaba1eace8627c15324890315e942a4fbd73b70e0",
                "erc": "",
                "slots": [
                    {
                        "current": "0x00000000637cc1e7000000000000000000000000000000000000000000350cf2",
                        "key": "0x2989ef3ea2cb1cd265a6757beb289ecdc2d3a83946c00d9e9c58bd6f90dbbd81",
                        "prev": "0x0000000000000000000000000000000000000000000000000000000000000000"
                    },
                    {
                        "current": "0x00000000000000001d070500048c020492135a2f383cfc61511d181ace106f3e",
                        "key": "0x000000000000000000000000000000000000000000000000000000000000002a",
                        "prev": "0x00000000000000001d060500048bf90392135a2f383cfc61511d181ace106f3e"
                    },
                    {
                        "current": "0x001a001a001a001a001a0016001a001a001a001a001a0017001a001a001a001a",
                        "key": "0x0000000000000000000000000000000000000000000000000000000000000004",
                        "prev": "0x0019001900190019001900150019001900190019001900160019001900190019"
                    },
                    {
                        "current": "0x00000000000000000000000000000000000000000000000052754987f90c25c9",
                        "key": "0x0000000000000000000000000000000000000000000000000000000000000011",
                        "prev": "0x0000000000000000000000000000000000000000000000003da53a1a4cf97969"
                    }
                ],
                "storageVariables": [
                    {
                        "name": "s_transmissions",
                        "type": "mapping(uint32 => struct OffchainAggregator.Transmission)",
                        "value": {
                            "pairs": [
                                {
                                    "key": "7431",
                                    "value": {
                                        "fields": [
                                            {
                                                "name": "answer",
                                                "type": "int192",
                                                "value": {
                                                    "current": "3476722",
                                                    "prev": "0",
                                                    "typeTag": 1
                                                }
                                            },
                                            {
                                                "name": "timestamp",
                                                "type": "uint64",
                                                "value": {
                                                    "current": "1669120487",
                                                    "prev": "0",
                                                    "typeTag": 1
                                                }
                                            }
                                        ],
                                        "typeTag": 3
                                    }
                                }
                            ],
                            "typeTag": 4
                        }
                    },
                    {
                        "name": "s_hotVars",
                        "type": "struct OffchainAggregator.HotVars",
                        "value": {
                            "fields": [
                                {
                                    "name": "latestConfigDigest",
                                    "type": "bytes16",
                                    "value": {
                                        "current": "0x92135a2f383cfc61511d181ace106f3e",
                                        "prev": "0x92135a2f383cfc61511d181ace106f3e",
                                        "typeTag": 1
                                    }
                                },
                                {
                                    "name": "latestEpochAndRound",
                                    "type": "uint40",
                                    "value": {
                                        "current": "76284420",
                                        "prev": "76282115",
                                        "typeTag": 1
                                    }
                                },
                                {
                                    "name": "threshold",
                                    "type": "uint8",
                                    "value": {
                                        "current": "5",
                                        "prev": "5",
                                        "typeTag": 1
                                    }
                                },
                                {
                                    "name": "latestAggregatorRoundId",
                                    "type": "uint32",
                                    "value": {
                                        "current": "7431",
                                        "prev": "7430",
                                        "typeTag": 1
                                    }
                                }
                            ],
                            "typeTag": 3
                        }
                    },
                    {
                        "name": "s_oracleObservationsCounts",
                        "type": "uint16[31]",
                        "value": {
                            "elemType": "uint16",
                            "elems": [
                                {
                                    "index": 0,
                                    "value": {
                                        "current": "26",
                                        "prev": "25",
                                        "typeTag": 1
                                    }
                                },
                                {
                                    "index": 1,
                                    "value": {
                                        "current": "26",
                                        "prev": "25",
                                        "typeTag": 1
                                    }
                                },
                                {
                                    "index": 2,
                                    "value": {
                                        "current": "26",
                                        "prev": "25",
                                        "typeTag": 1
                                    }
                                },
                                {
                                    "index": 3,
                                    "value": {
                                        "current": "26",
                                        "prev": "25",
                                        "typeTag": 1
                                    }
                                },
                                {
                                    "index": 4,
                                    "value": {
                                        "current": "23",
                                        "prev": "22",
                                        "typeTag": 1
                                    }
                                },
                                {
                                    "index": 5,
                                    "value": {
                                        "current": "26",
                                        "prev": "25",
                                        "typeTag": 1
                                    }
                                },
                                {
                                    "index": 6,
                                    "value": {
                                        "current": "26",
                                        "prev": "25",
                                        "typeTag": 1
                                    }
                                },
                                {
                                    "index": 7,
                                    "value": {
                                        "current": "26",
                                        "prev": "25",
                                        "typeTag": 1
                                    }
                                },
                                {
                                    "index": 8,
                                    "value": {
                                        "current": "26",
                                        "prev": "25",
                                        "typeTag": 1
                                    }
                                },
                                {
                                    "index": 9,
                                    "value": {
                                        "current": "26",
                                        "prev": "25",
                                        "typeTag": 1
                                    }
                                },
                                {
                                    "index": 10,
                                    "value": {
                                        "current": "22",
                                        "prev": "21",
                                        "typeTag": 1
                                    }
                                },
                                {
                                    "index": 11,
                                    "value": {
                                        "current": "26",
                                        "prev": "25",
                                        "typeTag": 1
                                    }
                                },
                                {
                                    "index": 12,
                                    "value": {
                                        "current": "26",
                                        "prev": "25",
                                        "typeTag": 1
                                    }
                                },
                                {
                                    "index": 13,
                                    "value": {
                                        "current": "26",
                                        "prev": "25",
                                        "typeTag": 1
                                    }
                                },
                                {
                                    "index": 14,
                                    "value": {
                                        "current": "26",
                                        "prev": "25",
                                        "typeTag": 1
                                    }
                                }
                            ],
                            "typeTag": 2
                        }
                    }
                ]
            }
        ]
    }
}