{
    "balance_change": {
        "balanceChanges": [
            {
                "account": "0xdb8f1f994f214e0c0d4dee946956b4d2820f77a1",
                "assets": [
                    {
                        "address": "0xdac17f958d2ee523a2206206994597c13d831ec7",
                        "amount": "199,999",
                        "iconUrl": "https://assets.blocksec.com/icon/fcea71f3193ce895be44bfdf941f7e4c9381dd587f273c2d1a27f1263d84e4ea.png",
                        "isERC1155": false,
                        "isERC721": false,
                        "sign": false,
                        "value": "200018.9499"
                    }
                ]
            },
            {
                "account": "0xec30d02f10353f8efc9601371f56e808751f396f",
                "assets": [
                    {
                        "address": "0xdac17f958d2ee523a2206206994597c13d831ec7",
                        "amount": "199,999",
                        "iconUrl": "https://assets.blocksec.com/icon/fcea71f3193ce895be44bfdf941f7e4c9381dd587f273c2d1a27f1263d84e4ea.png",
                        "isERC1155": false,
                        "isERC721": false,
                        "sign": true,
                        "value": "200018.9499"
                    }
                ]
            }
        ]
    },
    "profile": {
        "basic_info": {
            "baseFee": "16.548100337",
            "blockNumber": 15104851,
            "callData": "0x23b872dd000000000000000000000000db8f1f994f214e0c0d4dee946956b4d2820f77a1000000000000000000000000ec30d02f10353f8efc9601371f56e808751f396f0000000000000000000000000000000000000000000000000000002e90de8dc0",
            "debugEnable": true,
            "errorInfo": "",
            "eventCount": 1,
            "feeRecipient": "0x829bd824b016326a401d083b33d092293333a830",
            "formatValue": "0",
            "gasLimit": 100000,
            "gasPrice": "17.548100337",
            "gasUsed": 43718,
            "intTxnCount": 0,
            "internalRevert": false,
            "internalRevertMessage": "",
            "isContractCreation": false,
            "isFlashloan": false,
            "maxFee": "27.741794708",
            "nonce": 498802,
            "overwritedBlockNumber": -1,
            "priorityFee": "1",
            "receiver": "0xdac17f958d2ee523a2206206994597c13d831ec7",
            "revertMessage": "",
            "sender": "0xa152f8bb749c55e9943a3a0a3111d18ee2b3f94e",
            "simulationEnable": true,
            "sourceTxnHash": "0x2fc9e0d9cf35e3f6f4ea45470d402cc2c996d30752f3f478d639db6f43988549",
            "status": true,
            "timestamp": "2022-07-08T23:10:06Z",
            "transactionFee": "0.000767167850532966",
            "txnHash": "0x2fc9e0d9cf35e3f6f4ea45470d402cc2c996d30752f3f478d639db6f43988549",
            "txnIndex": 142,
            "type": 2,
            "value": "0"
        },
        "fund_flow": [
            {
                "amount": "199,999",
                "from": "0xdb8f1f994f214e0c0d4dee946956b4d2820f77a1",
                "id": 1,
                "isERC1155": false,
                "isERC721": false,
                "isReverted": false,
                "order": 1,
                "to": "0xec30d02f10353f8efc9601371f56e808751f396f",
                "token": "0xdac17f958d2ee523a2206206994597c13d831ec7"
            }
        ],
        "token_infos": [
            {
                "address": "0xc02aaa39b223fe8d0a0e5c4f27ead9083c756cc2",
                "decimals": 18
            },
            {
                "address": "0xdac17f958d2ee523a2206206994597c13d831ec7",
                "decimals": 6
            },
            {
                "address": "0xeeeeeeeeeeeeeeeeeeeeeeeeeeeeeeeeeeeeeeee",
                "decimals": 18
            }
        ]
    },
    "address_label": {
        "labels": [
            {
                "address": "0xec30d02f10353f8efc9601371f56e808751f396f",
                "label": "KuCoin 11"
            },
            {
                "address": "0x0000000000000000000000000000000000000001",
                "label": "Precompiled"
            },
            {
                "address": "0x0000000000000000000000000000000000000002",
                "label": "Precompiled"
            },
            {
                "address": "0x0000000000000000000000000000000000000003",
                "label": "Precompiled"
            },
            {
                "address": "0x0000000000000000000000000000000000000004",
                "label": "Precompiled"
            },
            {
                "address": "0xeeeeeeeeeeeeeeeeeeeeeeeeeeeeeeeeeeeeeeee",
                "label": "Ether"
            },
            {
                "address": "0xa152f8bb749c55e9943a3a0a3111d18ee2b3f94e",
                "label": "KuCoin 22"
            },
            {
                "address": "0xdac17f958d2ee523a2206206994597c13d831ec7",
                "label": "Tether: USDT Stablecoin"
            }
        ]
    },
    "trace": {
        "accountLabels": null,
        "dataMap": {
            "-1": {
                "invocation": {
                    "address": "0xa152f8bb749c55e9943a3a0a3111d18ee2b3f94e",
                    "callData": "",
                    "decodedMethod": null,
                    "errorInfo": "",
                    "fromAddress": "",
                    "gasUsed": 0,
                    "id": -1,
                    "methodDecoded": false,
                    "operation": "",
                    "output": "",
                    "revert": false,
                    "revertMessage": "",
                    "selector": "",
                    "status": false,
                    "value": ""
                },
                "nodeType": 0
            },
            "0": {
                "invocation": {
                    "address": "0xdac17f958d2ee523a2206206994597c13d831ec7",
                    "callData": "0x000000000000000000000000db8f1f994f214e0c0d4dee946956b4d2820f77a1000000000000000000000000ec30d02f10353f8efc9601371f56e808751f396f0000000000000000000000000000000000000000000000000000002e90de8dc0",
                    "decodedMethod": {
                        "callParams": [
                            {
                                "name": "_from",
                                "type": "address",
                                "value": "0xdb8f1f994f214e0c0d4dee946956b4d2820f77a1"
                            },
                            {
                                "name": "_to",
                                "type": "address",
                                "value": "0xec30d02f10353f8efc9601371f56e808751f396f"
                            },
                            {
                                "decimalAvailable": true,
                                "name": "_value",
                                "type": "uint256",
                                "value": "199,999,000,000"
                            }
                        ],
                        "constructorArguments": "",
                        "name": "transferFrom",
                        "returnParams": [],
                        "signature": "transferFrom(address,address,uint256)"
                    },
                    "errorInfo": "",
                    "fromAddress": "0xa152f8bb749c55e9943a3a0a3111d18ee2b3f94e",
                    "gasUsed": 43718,
                    "id": 0,
                    "methodDecoded": true,
                    "operation": "CALL",
                    "output": "",
                    "revert": false,
                    "revertMessage": "",
                    "selector": "0x23b872dd",
                    "status": true,
                    "value": "0"
                },
                "nodeType": 0
            },
            "1": {
                "event": {
                    "contract": "0xdac17f958d2ee523a2206206994597c13d831ec7",
                    "decodedLog": {
                        "name": "Transfer",
                        "params": [
                            {
                                "name": "from",
                                "type": "address",
                                "value": "0xdb8f1f994f214e0c0d4dee946956b4d2820f77a1"
                            },
                            {
                                "name": "to",
                                "type": "address",
                                "value": "0xec30d02f10353f8efc9601371f56e808751f396f"
                            },
                            {
                                "decimalAvailable": true,
                                "name": "value",
                                "type": "uint256",
                                "value": "199,999,000,000"
                            }
                        ],
                        "signature": "Transfer(address,address,uint256)"
                    },
                    "id": 1,
                    "logData": "0x0000000000000000000000000000000000000000000000000000002e90de8dc0",
                    "logDecoded": true,
                    "operation": "EVENT",
                    "revert": false,
                    "status": true,
                    "topics": [
                        "0xddf252ad1be2c89b69c2b068fc378daa952ba7f163c4a11628f55a4df523b3ef",
                        "0x000000000000000000000000db8f1f994f214e0c0d4dee946956b4d2820f77a1",
                        "0x000000000000000000000000ec30d02f10353f8efc9601371f56e808751f396f"
                    ]
                },
                "nodeType": 1
            }
        },
        "gasFlame": [
            {
                "children": [
                    {
                        "children": [
                            {
                                "children": [],
                                "depth": 0,
                                "name": "Initial Gas",
                                "value": 21988
                            },
                            {
                                "children": [],
                                "depth": 0,
                                "name": "Executed Gas",
                                "value": 26530
                            }
                        ],
                        "depth": -1,
                        "name": "Actual Gas Used",
                        "value": 43718
                    },
                    {
                        "children": [],
                        "depth": -1,
                        "name": "Refunded Gas",
                        "value": 4800
                    }
                ],
                "depth": -2,
                "name": "Total Gas",
                "value": 48518
            }
        ],
        "isConfirmed": true,
        "mainTrace": [
            {
                "children": [
                    {
                        "children": [
                            {
                                "children": [],
                                "depth": 1,
                                "id": 1,
                                "order": 1
                            }
                        ],
                        "depth": 0,
                        "id": 0,
                        "order": 0
                    }
                ],
                "depth": -1,
                "id": -1,
                "order": -1
            }
        ],
        "mainTraceNodeCount": 2,
        "parentIdMap": {
            "0": -1,
            "1": 0
        },
        "tidyTrace": [
            {
                "children": [
                    {
                        "children": [
                            {
                                "children": [],
                                "depth": 1,
                                "id": 1,
                                "order": 1
                            }
                        ],
                        "depth": 0,
                        "id": 0,
                        "order": 0
                    }
                ],
                "depth": -1,
                "id": -1,
                "order": -1
            }
        ],
        "tidyTraceNodeCount": 2
    },
    "state_change": {
        "stateChanges": [
            {
                "address": "0xdac17f958d2ee523a2206206994597c13d831ec7",
                "erc": "ERC-20",
                "slots": [
                    {
                        "current": "0x0000000000000000000000000000000000000000000000000000000000000000",
                        "key": "0x486877d9b67e8650f1fa901464f7a7477a3cf10f4ab75c514b0a604475fa48f2",
                        "prev": "0x0000000000000000000000000000000000000000000000000000002e90de8dc0"
                    },
                    {
                        "current": "0x0000000000000000000000000000000000000000000000000000428db46776fa",
                        "key": "0xe8bd9fbe32351f346c1fd91b8583943e7caf1cff0bff4fd3ee68bb8872b90da3",
                        "prev": "0x0000000000000000000000000000000000000000000000000000425f2388e93a"
                    }
                ],
                "storageVariables": [
                    {
                        "name": "balances",
                        "type": "mapping(address => uint256)",
                        "value": {
                            "pairs": [
                                {
                                    "key": "0xdb8f1f994f214e0c0d4dee946956b4d2820f77a1",
                                    "value": {
                                        "current": "0",
                                        "prev": "199999000000",
                                        "typeTag": 1
                                    }
                                },
                                {
                                    "key": "0xec30d02f10353f8efc9601371f56e808751f396f",
                                    "value": {
                                        "current": "73176384501498",
                                        "prev": "72976385501498",
                                        "typeTag": 1
                                    }
                                }
                            ],
                            "typeTag": 4
                        }
                    }
                ]
            }
        ]
    }
}