{
    "balance_change": {
        "balanceChanges": [
            {
                "account": "0x2cedf8de3933d71c77bf3c08b8d1af32545d9b0d",
                "assets": [
                    {
                        "address": "0xc02aaa39b223fe8d0a0e5c4f27ead9083c756cc2",
                        "amount": "20",
                        "iconUrl": "https://assets.blocksec.com/icon/f1cb2d02c471d545bbc7722daf3277fd852d98e63d118771af7047bd8256c516.png",
                        "isERC1155": false,
                        "isERC721": false,
                        "sign": false,
                        "value": ""
                    }
                ]
            },
            {
                "account": "0x39755357759ce0d7f32dc8dc45414cca409ae24e",
                "assets": [
                    {
                        "address": "0xc02aaa39b223fe8d0a0e5c4f27ead9083c756cc2",
                        "amount": "20",
                        "iconUrl": "https://assets.blocksec.com/icon/f1cb2d02c471d545bbc7722daf3277fd852d98e63d118771af7047bd8256c516.png",
                        "isERC1155": false,
                        "isERC721": false,
                        "sign": true,
                        "value": ""
                    }
                ]
            }
        ]
    },
    "profile": {
        "basic_info": {
            "baseFee": "",
            "blockNumber": 8701369,
            "callData": "0x1b33d412000000000000000000000000000000000000000000000001158e460913d00000000000000000000000000000c02aaa39b223fe8d0a0e5c4f27ead9083c756cc20000000000000000000000000000000000000000000000c9731881938427800000000000000000000000000089d24a6b4ccb1b6faa2625fe562bdd9a232603590000000000000000000000000000000000000000000000000000000000079e52",
            "debugEnable": true,
            "errorInfo": "",
            "eventCount": 4,
            "feeRecipient": "0x829bd824b016326a401d083b33d092293333a830",
            "formatValue": "0",
            "gasLimit": 333202,
            "gasPrice": "8.8",
            "gasUsed": 233202,
            "intTxnCount": 1,
            "internalRevert": false,
            "internalRevertMessage": "",
            "isContractCreation": false,
            "isFlashloan": false,
            "maxFee": "",
            "nonce": 121009,
            "overwritedBlockNumber": -1,
            "priorityFee": "",
            "receiver": "0x39755357759ce0d7f32dc8dc45414cca409ae24e",
            "revertMessage": "",
            "sender": "0x2cedf8de3933d71c77bf3c08b8d1af32545d9b0d",
            "simulationEnable": true,
            "sourceTxnHash": "0x2fe66ba7be254f5b5d9319da0cea996e2138218510c7cde355ba7e58af72db98",
            "status": true,
            "timestamp": "2019-10-08T12:38:37Z",
            "transactionFee": "0.0020521776",
            "txnHash": "0x2fe66ba7be254f5b5d9319da0cea996e2138218510c7cde355ba7e58af72db98",
            "txnIndex": 104,
            "type": 0,
            "value": "0"
        },
        "fund_flow": [
            {
                "amount": "20",
                "from": "0x2cedf8de3933d71c77bf3c08b8d1af32545d9b0d",
                "id": 1,
                "isERC1155": false,
                "isERC721": false,
                "isReverted": false,
                "order": 1,
                "to": "0x39755357759ce0d7f32dc8dc45414cca409ae24e",
                "token": "0xc02aaa39b223fe8d0a0e5c4f27ead9083c756cc2"
            }
        ],
        "token_infos": [
            {
                "address": "0xc02aaa39b223fe8d0a0e5c4f27ead9083c756cc2",
                "decimals": 18
            },
            {
                "address": "0xeeeeeeeeeeeeeeeeeeeeeeeeeeeeeeeeeeeeeeee",
                "decimals": 18
            }
        ]
    },
    "address_label": {
        "labels": [
            {
                "address": "0x0000000000000000000000000000000000000003",
                "label": "Precompiled"
            },
            {
                "address": "0x0000000000000000000000000000000000000004",
                "label": "Precompiled"
            },
            {
                "address": "0xeeeeeeeeeeeeeeeeeeeeeeeeeeeeeeeeeeeeeeee",
                "label": "Ether"
            },
            {
                "address": "0xc02aaa39b223fe8d0a0e5c4f27ead9083c756cc2",
                "label": "Wrapped Ether (WETH)"
            },
            {
                "address": "0x89d24a6b4ccb1b6faa2625fe562bdd9a23260359",
                "label": "Sai Stablecoin"
            },
            {
                "address": "0x39755357759ce0d7f32dc8dc45414cca409ae24e",
                "label": "Eth2Dai: Old Contract"
            },
            {
                "address": "0x0000000000000000000000000000000000000001",
                "label": "Precompiled"
            },
            {
                "address": "0x0000000000000000000000000000000000000002",
                "label": "Precompiled"
            }
        ]
    },
    "trace": {
        "accountLabels": null,
        "dataMap": {
            "-1": {
                "invocation": {
                    "address": "0x2cedf8de3933d71c77bf3c08b8d1af32545d9b0d",
                    "callData": "",
                    "decodedMethod": null,
                    "errorInfo": "",
                    "fromAddress": "",
                    "gasUsed": 0,
                    "id": -1,
                    "methodDecoded": false,
                    "operation": "",
                    "output": "",
                    "revert": false,
                    "revertMessage": "",
                    "selector": "",
                    "status": false,
                    "value": ""
                },
                "nodeType": 0
            },
            "0": {
                "invocation": {
                    "address": "0x39755357759ce0d7f32dc8dc45414cca409ae24e",
                    "callData": "0x000000000000000000000000000000000000000000000001158e460913d00000000000000000000000000000c02aaa39b223fe8d0a0e5c4f27ead9083c756cc20000000000000000000000000000000000000000000000c9731881938427800000000000000000000000000089d24a6b4ccb1b6faa2625fe562bdd9a232603590000000000000000000000000000000000000000000000000000000000079e52",
                    "decodedMethod": {
                        "callParams": [
                            {
                                "name": "pay_amt",
                                "type": "uint256",
                                "value": "20,000,000,000,000,000,000"
                            },
                            {
                                "name": "pay_gem",
                                "type": "address",
                                "value": "0xc02aaa39b223fe8d0a0e5c4f27ead9083c756cc2"
                            },
                            {
                                "name": "buy_amt",
                                "type": "uint256",
                                "value": "3,716,089,080,000,000,000,000"
                            },
                            {
                                "name": "buy_gem",
                                "type": "address",
                                "value": "0x89d24a6b4ccb1b6faa2625fe562bdd9a23260359"
                            },
                            {
                                "name": "pos",
                                "type": "uint256",
                                "value": "499,282"
                            }
                        ],
                        "constructorArguments": "",
                        "name": "offer",
                        "returnParams": [
                            {
                                "name": "",
                                "type": "uint256",
                                "value": "500,890"
                            }
                        ],
                        "signature": "offer(uint256,address,uint256,address,uint256)"
                    },
                    "errorInfo": "",
                    "fromAddress": "0x2cedf8de3933d71c77bf3c08b8d1af32545d9b0d",
                    "gasUsed": 233202,
                    "id": 0,
                    "methodDecoded": true,
                    "operation": "CALL",
                    "output": "0x000000000000000000000000000000000000000000000000000000000007a49a",
                    "revert": false,
                    "revertMessage": "",
                    "selector": "0x1b33d412",
                    "status": true,
                    "value": "0"
                },
                "nodeType": 0
            },
            "1": {
                "invocation": {
                    "address": "0xc02aaa39b223fe8d0a0e5c4f27ead9083c756cc2",
                    "callData": "0x0000000000000000000000002cedf8de3933d71c77bf3c08b8d1af32545d9b0d00000000000000000000000039755357759ce0d7f32dc8dc45414cca409ae24e000000000000000000000000000000000000000000000001158e460913d00000",
                    "decodedMethod": {
                        "callParams": [
                            {
                                "name": "src",
                                "type": "address",
                                "value": "0x2cedf8de3933d71c77bf3c08b8d1af32545d9b0d"
                            },
                            {
                                "name": "dst",
                                "type": "address",
                                "value": "0x39755357759ce0d7f32dc8dc45414cca409ae24e"
                            },
                            {
                                "decimalAvailable": true,
                                "name": "wad",
                                "type": "uint256",
                                "value": "20,000,000,000,000,000,000"
                            }
                        ],
                        "constructorArguments": "",
                        "name": "transferFrom",
                        "returnParams": [
                            {
                                "name": "",
                                "type": "bool",
                                "value": true
                            }
                        ],
                        "signature": "transferFrom(address,address,uint256)"
                    },
                    "errorInfo": "",
                    "fromAddress": "0x39755357759ce0d7f32dc8dc45414cca409ae24e",
                    "gasUsed": 13625,
                    "id": 1,
                    "methodDecoded": true,
                    "operation": "CALL",
                    "output": "0x0000000000000000000000000000000000000000000000000000000000000001",
                    "revert": false,
                    "revertMessage": "",
                    "selector": "0x23b872dd",
                    "status": true,
                    "value": "0"
                },
                "nodeType": 0
            },
            "2": {
                "event": {
                    "contract": "0xc02aaa39b223fe8d0a0e5c4f27ead9083c756cc2",
                    "decodedLog": {
                        "name": "Transfer",
                        "params": [
                            {
                                "name": "src",
                                "type": "address",
                                "value": "0x2cedf8de3933d71c77bf3c08b8d1af32545d9b0d"
                            },
                            {
                                "name": "dst",
                                "type": "address",
                                "value": "0x39755357759ce0d7f32dc8dc45414cca409ae24e"
                            },
                            {
                                "decimalAvailable": true,
                                "name": "wad",
                                "type": "uint256",
                                "value": "20,000,000,000,000,000,000"
                            }
                        ],
                        "signature": "Transfer(address,address,uint256)"
                    },
                    "id": 2,
                    "logData": "0x000000000000000000000000000000000000000000000001158e460913d00000",
                    "logDecoded": true,
                    "operation": "EVENT",
                    "revert": false,
                    "status": true,
                    "topics": [
                        "0xddf252ad1be2c89b69c2b068fc378daa952ba7f163c4a11628f55a4df523b3ef",
                        "0x0000000000000000000000002cedf8de3933d71c77bf3c08b8d1af32545d9b0d",
                        "0x00000000000000000000000039755357759ce0d7f32dc8dc45414cca409ae24e"
                    ]
                },
                "nodeType": 1
            },
            "3": {
                "event": {
                    "contract": "0x39755357759ce0d7f32dc8dc45414cca409ae24e",
                    "decodedLog": {
                        "name": "LogItemUpdate",
                        "params": [
                            {
                                "name": "id",
                                "type": "uint256",
                                "value": "500,890"
                            }
                        ],
                        "signature": "LogItemUpdate(uint256)"
                    },
                    "id": 3,
                    "logData": "0x000000000000000000000000000000000000000000000000000000000007a49a",
                    "logDecoded": true,
                    "operation": "EVENT",
                    "revert": false,
                    "status": true,
                    "topics": [
                        "0xa2c251311b1a7a475913900a2a73dc9789a21b04bc737e050bbc506dd4eb3488"
                    ]
                },
                "nodeType": 1
            },
            "4": {
                "event": {
                    "contract": "0x39755357759ce0d7f32dc8dc45414cca409ae24e",
                    "decodedLog": {
                        "name": "LogMake",
                        "params": [
                            {
                                "name": "id",
                                "type": "bytes32",
                                "value": "0x000000000000000000000000000000000000000000000000000000000007a49a"
                            },
                            {
                                "name": "pair",
                                "type": "bytes32",
                                "value": "0x9dd48110dcc444fdc242510c09bbbbe21a5975cac061d82f7b843bce061ba391"
                            },
                            {
                                "name": "maker",
                                "type": "address",
                                "value": "0x2cedf8de3933d71c77bf3c08b8d1af32545d9b0d"
                            },
                            {
                                "name": "pay_gem",
                                "type": "address",
                                "value": "0xc02aaa39b223fe8d0a0e5c4f27ead9083c756cc2"
                            },
                            {
                                "name": "buy_gem",
                                "type": "address",
                                "value": "0x89d24a6b4ccb1b6faa2625fe562bdd9a23260359"
                            },
                            {
                                "name": "pay_amt",
                                "type": "uint128",
                                "value": "20,000,000,000,000,000,000"
                            },
                            {
                                "name": "buy_amt",
                                "type": "uint128",
                                "value": "3,716,089,080,000,000,000,000"
                            },
                            {
                                "name": "timestamp",
                                "type": "uint64",
                                "value": "1,570,538,317"
                            }
                        ],
                        "signature": "LogMake(bytes32,bytes32,address,address,address,uint128,uint128,uint64)"
                    },
                    "id": 4,
                    "logData": "0x000000000000000000000000c02aaa39b223fe8d0a0e5c4f27ead9083c756cc200000000000000000000000089d24a6b4ccb1b6faa2625fe562bdd9a23260359000000000000000000000000000000000000000000000001158e460913d000000000000000000000000000000000000000000000000000c97318819384278000000000000000000000000000000000000000000000000000000000005d9c834d",
                    "logDecoded": true,
                    "operation": "EVENT",
                    "revert": false,
                    "status": true,
                    "topics": [
                        "0x773ff502687307abfa024ac9f62f9752a0d210dac2ffd9a29e38e12e2ea82c82",
                        "0x000000000000000000000000000000000000000000000000000000000007a49a",
                        "0x9dd48110dcc444fdc242510c09bbbbe21a5975cac061d82f7b843bce061ba391",
                        "0x0000000000000000000000002cedf8de3933d71c77bf3c08b8d1af32545d9b0d"
                    ]
                },
                "nodeType": 1
            },
            "5": {
                "event": {
                    "contract": "0x39755357759ce0d7f32dc8dc45414cca409ae24e",
                    "decodedLog": {
                        "name": "LogSortedOffer",
                        "params": [
                            {
                                "name": "id",
                                "type": "uint256",
                                "value": "500,890"
                            }
                        ],
                        "signature": "LogSortedOffer(uint256)"
                    },
                    "id": 5,
                    "logData": "0x000000000000000000000000000000000000000000000000000000000007a49a",
                    "logDecoded": true,
                    "operation": "EVENT",
                    "revert": false,
                    "status": true,
                    "topics": [
                        "0x20fb9bad86c18f7e22e8065258790d9416a7d2df8ff05f80f82c46d38b925acd"
                    ]
                },
                "nodeType": 1
            }
        },
        "gasFlame": [
            {
                "children": [
                    {
                        "children": [
                            {
                                "children": [],
                                "depth": 0,
                                "name": "Initial Gas",
                                "value": 25624
                            },
                            {
                                "children": [
                                    {
                                        "children": [],
                                        "depth": 1,
                                        "name": "transferFrom",
                                        "value": 13625
                                    }
                                ],
                                "depth": 0,
                                "name": "Executed Gas",
                                "value": 207578
                            }
                        ],
                        "depth": -1,
                        "name": "Actual Gas Used",
                        "value": 233202
                    },
                    {
                        "children": [],
                        "depth": -1,
                        "name": "Refunded Gas",
                        "value": 0
                    }
                ],
                "depth": -2,
                "name": "Total Gas",
                "value": 233202
            }
        ],
        "isConfirmed": true,
        "mainTrace": [
            {
                "children": [
                    {
                        "children": [
                            {
                                "children": [
                                    {
                                        "children": [],
                                        "depth": 2,
                                        "id": 2,
                                        "order": 2
                                    }
                                ],
                                "depth": 1,
                                "id": 1,
                                "order": 1
                            },
                            {
                                "children": [],
                                "depth": 1,
                                "id": 3,
                                "order": 3
                            },
                            {
                                "children": [],
                                "depth": 1,
                                "id": 4,
                                "order": 4
                            },
                            {
                                "children": [],
                                "depth": 1,
                                "id": 5,
                                "order": 5
                            }
                        ],
                        "depth": 0,
                        "id": 0,
                        "order": 0
                    }
                ],
                "depth": -1,
                "id": -1,
                "order": -1
            }
        ],
        "mainTraceNodeCount": 6,
        "parentIdMap": {
            "0": -1,
            "1": 0,
            "2": 1,
            "3": 0,
            "4": 0,
            "5": 0
        },
        "tidyTrace": [
            {
                "children": [
                    {
                        "children": [
                            {
                                "children": [
                                    {
                                        "children": [],
                                        "depth": 2,
                                        "id": 2,
                                        "order": 2
                                    }
                                ],
                                "depth": 1,
                                "id": 1,
                                "order": 1
                            },
                            {
                                "children": [],
                                "depth": 1,
                                "id": 3,
                                "order": 3
                            },
                            {
                                "children": [],
                                "depth": 1,
                                "id": 4,
                                "order": 4
                            },
                            {
                                "children": [],
                                "depth": 1,
                                "id": 5,
                                "order": 5
                            }
                        ],
                        "depth": 0,
                        "id": 0,
                        "order": 0
                    }
                ],
                "depth": -1,
                "id": -1,
                "order": -1
            }
        ],
        "tidyTraceNodeCount": 6
    },
    "state_change": {
        "stateChanges": [
            {
                "address": "0x39755357759ce0d7f32dc8dc45414cca409ae24e",
                "erc": "",
                "slots": [
                    {
                        "current": "0x000000000000000000000000c02aaa39b223fe8d0a0e5c4f27ead9083c756cc2",
                        "key": "0x3419bda8ae16d3c15a8825963350f43fe68c3d652275c6a78ec1ffa242d713b6",
                        "prev": "0x0000000000000000000000000000000000000000000000000000000000000000"
                    },
                    {
                        "current": "0x000000000000000000000000000000000000000000000000000000000007a49a",
                        "key": "0x76d4f1b44192006ac3fe1c7d0c08e7ac8c1bc9944aab093cd7549bb6a4e53fe5",
                        "prev": "0x0000000000000000000000000000000000000000000000000000000000079e52"
                    },
                    {
                        "current": "0x000000000000000000000000000000000000000000000000000000000007a3d9",
                        "key": "0xf0b353c0c29927b83471afda91df71c9019dee9a69aa0883f71dc3818febb4bf",
                        "prev": "0x0000000000000000000000000000000000000000000000000000000000000000"
                    },
                    {
                        "current": "0x0000000000000000000000000000000000000000000000000000000000000098",
                        "key": "0xcc9bd740ec949c1c5f14f207591d901e2f99f59fc9709ff11e2a59fbbccfa000",
                        "prev": "0x0000000000000000000000000000000000000000000000000000000000000097"
                    },
                    {
                        "current": "0x0000000000000000000000000000000000000000000000c97318819384278000",
                        "key": "0x3419bda8ae16d3c15a8825963350f43fe68c3d652275c6a78ec1ffa242d713b7",
                        "prev": "0x0000000000000000000000000000000000000000000000000000000000000000"
                    },
                    {
                        "current": "0x000000000000000000000000000000000000000000000000000000000007a49a",
                        "key": "0x0000000000000000000000000000000000000000000000000000000000000002",
                        "prev": "0x000000000000000000000000000000000000000000000000000000000007a499"
                    },
                    {
                        "current": "0x000000000000000000000000000000000000000000000000000000000007a49a",
                        "key": "0x2c099af9b9c307e01d481bcffd40923861f121943daffcd4096936eba1930bd8",
                        "prev": "0x000000000000000000000000000000000000000000000000000000000007a3d9"
                    },
                    {
                        "current": "0x0000000000000000000000000000000000000000000000000000000000079e52",
                        "key": "0xf0b353c0c29927b83471afda91df71c9019dee9a69aa0883f71dc3818febb4be",
                        "prev": "0x0000000000000000000000000000000000000000000000000000000000000000"
                    },
                    {
                        "current": "0x00000000000000000000000089d24a6b4ccb1b6faa2625fe562bdd9a23260359",
                        "key": "0x3419bda8ae16d3c15a8825963350f43fe68c3d652275c6a78ec1ffa242d713b8",
                        "prev": "0x0000000000000000000000000000000000000000000000000000000000000000"
                    },
                    {
                        "current": "0x00000000000000005d9c834d2cedf8de3933d71c77bf3c08b8d1af32545d9b0d",
                        "key": "0x3419bda8ae16d3c15a8825963350f43fe68c3d652275c6a78ec1ffa242d713b9",
                        "prev": "0x0000000000000000000000000000000000000000000000000000000000000000"
                    },
                    {
                        "current": "0x000000000000000000000000000000000000000000000001158e460913d00000",
                        "key": "0x3419bda8ae16d3c15a8825963350f43fe68c3d652275c6a78ec1ffa242d713b5",
                        "prev": "0x0000000000000000000000000000000000000000000000000000000000000000"
                    }
                ],
                "storageVariables": [
                    {
                        "name": "last_offer_id",
                        "type": "uint256",
                        "value": {
                            "current": "500890",
                            "prev": "500889",
                            "typeTag": 1
                        }
                    },
                    {
                        "name": "offers",
                        "type": "mapping(uint256 => struct SimpleMarket.OfferInfo)",
                        "value": {
                            "pairs": [
                                {
                                    "key": "500890",
                                    "value": {
                                        "fields": [
                                            {
                                                "name": "pay_amt",
                                                "type": "uint256",
                                                "value": {
                                                    "current": "20000000000000000000",
                                                    "prev": "0",
                                                    "typeTag": 1
                                                }
                                            },
                                            {
                                                "name": "pay_gem",
                                                "type": "contract ERC20",
                                                "value": {
                                                    "current": "0xc02aaa39b223fe8d0a0e5c4f27ead9083c756cc2",
                                                    "prev": "0x0000000000000000000000000000000000000000",
                                                    "typeTag": 1
                                                }
                                            },
                                            {
                                                "name": "buy_amt",
                                                "type": "uint256",
                                                "value": {
                                                    "current": "3716089080000000000000",
                                                    "prev": "0",
                                                    "typeTag": 1
                                                }
                                            },
                                            {
                                                "name": "buy_gem",
                                                "type": "contract ERC20",
                                                "value": {
                                                    "current": "0x89d24a6b4ccb1b6faa2625fe562bdd9a23260359",
                                                    "prev": "0x0000000000000000000000000000000000000000",
                                                    "typeTag": 1
                                                }
                                            },
                                            {
                                                "name": "owner",
                                                "type": "address",
                                                "value": {
                                                    "current": "0x2cedf8de3933d71c77bf3c08b8d1af32545d9b0d",
                                                    "prev": "0x0000000000000000000000000000000000000000",
                                                    "typeTag": 1
                                                }
                                            },
                                            {
                                                "name": "timestamp",
                                                "type": "uint64",
                                                "value": {
                                                    "current": "1570538317",
                                                    "prev": "0",
                                                    "typeTag": 1
                                                }
                                            }
                                        ],
                                        "typeTag": 3
                                    }
                                }
                            ],
                            "typeTag": 4
                        }
                    },
                    {
                        "name": "_rank",
                        "type": "mapping(uint256 => struct MatchingMarket.sortInfo)",
                        "value": {
                            "pairs": [
                                {
                                    "key": "499282",
                                    "value": {
                                        "fields": [
                                            {
                                                "name": "prev",
                                                "type": "uint256",
                                                "value": {
                                                    "current": "500890",
                                                    "prev": "500697",
                                                    "typeTag": 1
                                                }
                                            }
                                        ],
                                        "typeTag": 3
                                    }
                                },
                                {
                                    "key": "500697",
                                    "value": {
                                        "fields": [
                                            {
                                                "name": "next",
                                                "type": "uint256",
                                                "value": {
                                                    "current": "500890",
                                                    "prev": "499282",
                                                    "typeTag": 1
                                                }
                                            }
                                        ],
                                        "typeTag": 3
                                    }
                                },
                                {
                                    "key": "500890",
                                    "value": {
                                        "fields": [
                                            {
                                                "name": "next",
                                                "type": "uint256",
                                                "value": {
                                                    "current": "499282",
                                                    "prev": "0",
                                                    "typeTag": 1
                                                }
                                            },
                                            {
                                                "name": "prev",
                                                "type": "uint256",
                                                "value": {
                                                    "current": "500697",
                                                    "prev": "0",
                                                    "typeTag": 1
                                                }
                                            }
                                        ],
                                        "typeTag": 3
                                    }
                                }
                            ],
                            "typeTag": 4
                        }
                    },
                    {
                        "name": "_span",
                        "type": "mapping(address => mapping(address => uint256))",
                        "value": {
                            "pairs": [
                                {
                                    "key": "0xc02aaa39b223fe8d0a0e5c4f27ead9083c756cc2",
                                    "value": {
                                        "pairs": [
                                            {
                                                "key": "0x89d24a6b4ccb1b6faa2625fe562bdd9a23260359",
                                                "value": {
                                                    "current": "152",
                                                    "prev": "151",
                                                    "typeTag": 1
                                                }
                                            }
                                        ],
                                        "typeTag": 4
                                    }
                                }
                            ],
                            "typeTag": 4
                        }
                    }
                ]
            },
            {
                "address": "0xc02aaa39b223fe8d0a0e5c4f27ead9083c756cc2",
                "erc": "ERC-20",
                "slots": [
                    {
                        "current": "0x0000000000000000000000000000000000000000000000175096a5b17f75f3cc",
                        "key": "0x0198b12cf3f6cf4bc7bc896f82b71b2dd9f27bc8586c7b8558f6221668aba4b3",
                        "prev": "0x0000000000000000000000000000000000000000000000186624ebba9345f3cc"
                    },
                    {
                        "current": "0x0000000000000000000000000000000000000000000002181f005a6e99104f98",
                        "key": "0xecced9b33d22c9f8431bf329c5851168432be8f905355b0611c764c4e584c0f3",
                        "prev": "0x0000000000000000000000000000000000000000000002170972146585404f98"
                    }
                ],
                "storageVariables": [
                    {
                        "name": "balanceOf",
                        "type": "mapping(address => uint256)",
                        "value": {
                            "pairs": [
                                {
                                    "key": "0x2cedf8de3933d71c77bf3c08b8d1af32545d9b0d",
                                    "value": {
                                        "current": "430082124646626751436",
                                        "prev": "450082124646626751436",
                                        "typeTag": 1
                                    }
                                },
                                {
                                    "key": "0x39755357759ce0d7f32dc8dc45414cca409ae24e",
                                    "value": {
                                        "current": "9889688708354556317592",
                                        "prev": "9869688708354556317592",
                                        "typeTag": 1
                                    }
                                }
                            ],
                            "typeTag": 4
                        }
                    }
                ]
            }
        ]
    }
}