{
    "balance_change": {
        "balanceChanges": [
            {
                "account": "0x867ffb5a3871b500f65bdfafe0136f9667deae06",
                "assets": [
                    {
                        "address": "0xeeeeeeeeeeeeeeeeeeeeeeeeeeeeeeeeeeeeeeee",
                        "amount": "0.4534817603328",
                        "iconUrl": "https://assets.blocksec.com/image/1663669189317-3.png",
                        "isERC1155": false,
                        "isERC721": false,
                        "sign": false,
                        "value": ""
                    }
                ]
            },
            {
                "account": "0xe8ca1270e3ce67606aecb0d332de832248ff9991",
                "assets": [
                    {
                        "address": "0xeeeeeeeeeeeeeeeeeeeeeeeeeeeeeeeeeeeeeeee",
                        "amount": "0.4534817603328",
                        "iconUrl": "https://assets.blocksec.com/image/1663669189317-3.png",
                        "isERC1155": false,
                        "isERC721": false,
                        "sign": true,
                        "value": ""
                    }
                ]
            }
        ]
    },
    "profile": {
        "basic_info": {
            "baseFee": "",
            "blockNumber": 7188492,
            "callData": "0x8eb4e0ad0000000000000000000000000000000000000000000000000000000000000140000000000000000000000000000000000000000000000000000000000000018000000000000000000000000000000000000000000000000000000000000001c000000000000000000000000000000000000000000000000000000000000002000000000000000000000000000000000000000000000000000000000000000240000000000000000000000000000000000000000000000000000000000000028000000000000000000000000000000000000000000000000000000000000002c0000000000000000000000000000000000000000000000000000000000000030000000000000000000000000000000000000000000000000000000000000003400000000000000000000000000000000000000000000000000000000000000380000000000000000000000000000000000000000000000000000000000000000189b08a0982a7443a9d75de82c3e1a36a0000000000000000000000000000000000000000000000000000000000000000000000000000000000000000000000010000000000000000000000003e97ecd14172ab3fcce5347e8c3e57978d1290e50000000000000000000000000000000000000000000000000000000000000001000000000000000000000000e8ca1270e3ce67606aecb0d332de832248ff99910000000000000000000000000000000000000000000000000000000000000001000000000000000000000000000000000000000000000000065bda78ec15800000000000000000000000000000000000000000000000000000000000000000010000000000000000000000000000000000000000000000000000000000000064000000000000000000000000000000000000000000000000000000000000000100000000000000000000000000000000000000000000000000000045d964b8000000000000000000000000000000000000000000000000000000000000000001000000000000000000000000000000000000000000000000000000000000001b0000000000000000000000000000000000000000000000000000000000000001afae5745efeb912364310c59bc72f9da90b085a9e439622ff584f0657f9fd71500000000000000000000000000000000000000000000000000000000000000010a149bc6fd90beefbdc3d42c6719e12dc1dbd43904db757d9e8a0428b26aae1600000000000000000000000000000000000000000000000000000000000000010000000000000000000000000000000000000000000000000000000000000005",
            "debugEnable": true,
            "errorInfo": "",
            "eventCount": 1,
            "feeRecipient": "0x35f61dfb08ada13eba64bf156b80df3d5b3a738d",
            "formatValue": "0",
            "gasLimit": 160180,
            "gasPrice": "1.8144",
            "gasUsed": 76735,
            "intTxnCount": 2,
            "internalRevert": false,
            "internalRevertMessage": "",
            "isContractCreation": false,
            "isFlashloan": false,
            "maxFee": "",
            "nonce": 101074,
            "overwritedBlockNumber": -1,
            "priorityFee": "",
            "receiver": "0x867ffb5a3871b500f65bdfafe0136f9667deae06",
            "revertMessage": "",
            "sender": "0xf008e2c7a7f16ac706c2e0ebd3f015d442016420",
            "simulationEnable": true,
            "sourceTxnHash": "0x2f316b8ba1d61c4b883b415aee96b1a00ed132729e6fb403a092b92e1d1f81f8",
            "status": true,
            "timestamp": "2019-02-07T14:35:08Z",
            "transactionFee": "0.000139227984",
            "txnHash": "0x2f316b8ba1d61c4b883b415aee96b1a00ed132729e6fb403a092b92e1d1f81f8",
            "txnIndex": 124,
            "type": 0,
            "value": "0"
        },
        "fund_flow": [
            {
                "amount": "0.4534817603328",
                "from": "0x867ffb5a3871b500f65bdfafe0136f9667deae06",
                "id": 1,
                "isERC1155": false,
                "isERC721": false,
                "isReverted": false,
                "order": 1,
                "to": "0xe8ca1270e3ce67606aecb0d332de832248ff9991",
                "token": "0xeeeeeeeeeeeeeeeeeeeeeeeeeeeeeeeeeeeeeeee"
            }
        ],
        "token_infos": [
            {
                "address": "0xc02aaa39b223fe8d0a0e5c4f27ead9083c756cc2",
                "decimals": 18
            },
            {
                "address": "0xeeeeeeeeeeeeeeeeeeeeeeeeeeeeeeeeeeeeeeee",
                "decimals": 18
            }
        ]
    },
    "address_label": {
        "labels": [
            {
                "address": "0xeeeeeeeeeeeeeeeeeeeeeeeeeeeeeeeeeeeeeeee",
                "label": "Ether"
            },
            {
                "address": "0x867ffb5a3871b500f65bdfafe0136f9667deae06",
                "label": "LocalEthereum 1"
            },
            {
                "address": "0x0000000000000000000000000000000000000001",
                "label": "Precompiled"
            },
            {
                "address": "0x0000000000000000000000000000000000000002",
                "label": "Precompiled"
            },
            {
                "address": "0x0000000000000000000000000000000000000003",
                "label": "Precompiled"
            },
            {
                "address": "0x0000000000000000000000000000000000000004",
                "label": "Precompiled"
            }
        ]
    },
    "trace": {
        "accountLabels": null,
        "dataMap": {
            "-1": {
                "invocation": {
                    "address": "0xf008e2c7a7f16ac706c2e0ebd3f015d442016420",
                    "callData": "",
                    "decodedMethod": null,
                    "errorInfo": "",
                    "fromAddress": "",
                    "gasUsed": 0,
                    "id": -1,
                    "methodDecoded": false,
                    "operation": "",
                    "output": "",
                    "revert": false,
                    "revertMessage": "",
                    "selector": "",
                    "status": false,
                    "value": ""
                },
                "nodeType": 0
            },
            "0": {
                "invocation": {
                    "address": "0x867ffb5a3871b500f65bdfafe0136f9667deae06",
                    "callData": "0x0000000000000000000000000000000000000000000000000000000000000140000000000000000000000000000000000000000000000000000000000000018000000000000000000000000000000000000000000000000000000000000001c000000000000000000000000000000000000000000000000000000000000002000000000000000000000000000000000000000000000000000000000000000240000000000000000000000000000000000000000000000000000000000000028000000000000000000000000000000000000000000000000000000000000002c0000000000000000000000000000000000000000000000000000000000000030000000000000000000000000000000000000000000000000000000000000003400000000000000000000000000000000000000000000000000000000000000380000000000000000000000000000000000000000000000000000000000000000189b08a0982a7443a9d75de82c3e1a36a0000000000000000000000000000000000000000000000000000000000000000000000000000000000000000000000010000000000000000000000003e97ecd14172ab3fcce5347e8c3e57978d1290e50000000000000000000000000000000000000000000000000000000000000001000000000000000000000000e8ca1270e3ce67606aecb0d332de832248ff99910000000000000000000000000000000000000000000000000000000000000001000000000000000000000000000000000000000000000000065bda78ec15800000000000000000000000000000000000000000000000000000000000000000010000000000000000000000000000000000000000000000000000000000000064000000000000000000000000000000000000000000000000000000000000000100000000000000000000000000000000000000000000000000000045d964b8000000000000000000000000000000000000000000000000000000000000000001000000000000000000000000000000000000000000000000000000000000001b0000000000000000000000000000000000000000000000000000000000000001afae5745efeb912364310c59bc72f9da90b085a9e439622ff584f0657f9fd71500000000000000000000000000000000000000000000000000000000000000010a149bc6fd90beefbdc3d42c6719e12dc1dbd43904db757d9e8a0428b26aae1600000000000000000000000000000000000000000000000000000000000000010000000000000000000000000000000000000000000000000000000000000005",
                    "decodedMethod": {
                        "callParams": [
                            {
                                "name": "_tradeID",
                                "type": "bytes16[]",
                                "value": [
                                    "0x89b08a0982a7443a9d75de82c3e1a36a"
                                ]
                            },
                            {
                                "name": "_seller",
                                "type": "address[]",
                                "value": [
                                    "0x3e97ecd14172ab3fcce5347e8c3e57978d1290e5"
                                ]
                            },
                            {
                                "name": "_buyer",
                                "type": "address[]",
                                "value": [
                                    "0xe8ca1270e3ce67606aecb0d332de832248ff9991"
                                ]
                            },
                            {
                                "name": "_value",
                                "type": "uint256[]",
                                "value": [
                                    "458,200,000,000,000,000"
                                ]
                            },
                            {
                                "name": "_fee",
                                "type": "uint16[]",
                                "value": [
                                    "100"
                                ]
                            },
                            {
                                "name": "_maximumGasPrice",
                                "type": "uint128[]",
                                "value": [
                                    "300,000,000,000"
                                ]
                            },
                            {
                                "name": "_v",
                                "type": "uint8[]",
                                "value": [
                                    "27"
                                ]
                            },
                            {
                                "name": "_r",
                                "type": "bytes32[]",
                                "value": [
                                    "0xafae5745efeb912364310c59bc72f9da90b085a9e439622ff584f0657f9fd715"
                                ]
                            },
                            {
                                "name": "_s",
                                "type": "bytes32[]",
                                "value": [
                                    "0x0a149bc6fd90beefbdc3d42c6719e12dc1dbd43904db757d9e8a0428b26aae16"
                                ]
                            },
                            {
                                "name": "_instructionByte",
                                "type": "uint8[]",
                                "value": [
                                    "5"
                                ]
                            }
                        ],
                        "constructorArguments": "",
                        "name": "batchRelay",
                        "returnParams": [
                            {
                                "name": "",
                                "type": "bool[]",
                                "value": [
                                    true
                                ]
                            }
                        ],
                        "signature": "batchRelay(bytes16[],address[],address[],uint256[],uint16[],uint128[],uint8[],bytes32[],bytes32[],uint8[])"
                    },
                    "errorInfo": "",
                    "fromAddress": "0xf008e2c7a7f16ac706c2e0ebd3f015d442016420",
                    "gasUsed": 76735,
                    "id": 0,
                    "methodDecoded": true,
                    "operation": "CALL",
                    "output": "0x000000000000000000000000000000000000000000000000000000000000002000000000000000000000000000000000000000000000000000000000000000010000000000000000000000000000000000000000000000000000000000000001",
                    "revert": false,
                    "revertMessage": "",
                    "selector": "0x8eb4e0ad",
                    "status": true,
                    "value": "0"
                },
                "nodeType": 0
            },
            "1": {
                "invocation": {
                    "address": "0x0000000000000000000000000000000000000001",
                    "callData": "0x8d012542e938104003d2a56a421060c3d83e6468a6dd2570ad6e0ba4000000000000000000000000000000000000000000000000000000000000001bafae5745efeb912364310c59bc72f9da90b085a9e439622ff584f0657f9fd7150a149bc6fd90beefbdc3d42c6719e12dc1dbd43904db757d9e8a0428b26aae16",
                    "decodedMethod": {
                        "callParams": [
                            {
                                "name": "hash",
                                "type": "bytes32",
                                "value": "0x5ef6cf758d012542e938104003d2a56a421060c3d83e6468a6dd2570ad6e0ba4"
                            },
                            {
                                "name": "v",
                                "type": "uint256",
                                "value": "27"
                            },
                            {
                                "name": "r",
                                "type": "bytes32",
                                "value": "0xafae5745efeb912364310c59bc72f9da90b085a9e439622ff584f0657f9fd715"
                            },
                            {
                                "name": "s",
                                "type": "bytes32",
                                "value": "0x0a149bc6fd90beefbdc3d42c6719e12dc1dbd43904db757d9e8a0428b26aae16"
                            }
                        ],
                        "constructorArguments": "",
                        "name": "ecrecover",
                        "returnParams": [
                            {
                                "name": "",
                                "type": "address",
                                "value": "0x3e97ecd14172ab3fcce5347e8c3e57978d1290e5"
                            }
                        ],
                        "signature": "ecrecover(bytes32,uint256,bytes32,bytes32)"
                    },
                    "errorInfo": "",
                    "fromAddress": "0x867ffb5a3871b500f65bdfafe0136f9667deae06",
                    "gasUsed": 3000,
                    "id": 1,
                    "methodDecoded": true,
                    "operation": "CALL",
                    "output": "0x0000000000000000000000003e97ecd14172ab3fcce5347e8c3e57978d1290e5",
                    "revert": false,
                    "revertMessage": "",
                    "selector": "0x5ef6cf75",
                    "status": true,
                    "value": "0"
                },
                "nodeType": 0
            },
            "2": {
                "event": {
                    "contract": "0x867ffb5a3871b500f65bdfafe0136f9667deae06",
                    "decodedLog": {
                        "name": "Released",
                        "params": [
                            {
                                "name": "_tradeHash",
                                "type": "bytes32",
                                "value": "0x34820215884aa70125c68785948cd954b93178235f1cb3a8c61430462b030123"
                            }
                        ],
                        "signature": "Released(bytes32)"
                    },
                    "id": 2,
                    "logData": "0x",
                    "logDecoded": true,
                    "operation": "EVENT",
                    "revert": false,
                    "status": true,
                    "topics": [
                        "0x6eec2dd2382427616d4ea7ef183b16091feac4e2e63c8b55f25215f132df8d14",
                        "0x34820215884aa70125c68785948cd954b93178235f1cb3a8c61430462b030123"
                    ]
                },
                "nodeType": 1
            },
            "3": {
                "invocation": {
                    "address": "0xe8ca1270e3ce67606aecb0d332de832248ff9991",
                    "callData": "0x",
                    "decodedMethod": null,
                    "errorInfo": "",
                    "fromAddress": "0x867ffb5a3871b500f65bdfafe0136f9667deae06",
                    "gasUsed": 0,
                    "id": 3,
                    "methodDecoded": false,
                    "operation": "CALL",
                    "output": "",
                    "revert": false,
                    "revertMessage": "",
                    "selector": "fallback",
                    "status": true,
                    "value": "0.4534817603328"
                },
                "nodeType": 0
            }
        },
        "gasFlame": [
            {
                "children": [
                    {
                        "children": [
                            {
                                "children": [],
                                "depth": 0,
                                "name": "Initial Gas",
                                "value": 35480
                            },
                            {
                                "children": [
                                    {
                                        "children": [],
                                        "depth": 1,
                                        "name": "ecrecover",
                                        "value": 3000
                                    },
                                    {
                                        "children": [],
                                        "depth": 1,
                                        "name": "fallback",
                                        "value": 0
                                    }
                                ],
                                "depth": 0,
                                "name": "Executed Gas",
                                "value": 56255
                            }
                        ],
                        "depth": -1,
                        "name": "Actual Gas Used",
                        "value": 76735
                    },
                    {
                        "children": [],
                        "depth": -1,
                        "name": "Refunded Gas",
                        "value": 15000
                    }
                ],
                "depth": -2,
                "name": "Total Gas",
                "value": 91735
            }
        ],
        "isConfirmed": true,
        "mainTrace": [
            {
                "children": [
                    {
                        "children": [
                            {
                                "children": [],
                                "depth": 1,
                                "id": 1,
                                "order": 1
                            },
                            {
                                "children": [],
                                "depth": 1,
                                "id": 2,
                                "order": 2
                            },
                            {
                                "children": [],
                                "depth": 1,
                                "id": 3,
                                "order": 3
                            }
                        ],
                        "depth": 0,
                        "id": 0,
                        "order": 0
                    }
                ],
                "depth": -1,
                "id": -1,
                "order": -1
            }
        ],
        "mainTraceNodeCount": 4,
        "parentIdMap": {
            "0": -1,
            "1": 0,
            "2": 0,
            "3": 0
        },
        "tidyTrace": [
            {
                "children": [
                    {
                        "children": [
                            {
                                "children": [],
                                "depth": 1,
                                "id": 1,
                                "order": 1
                            },
                            {
                                "children": [],
                                "depth": 1,
                                "id": 2,
                                "order": 2
                            },
                            {
                                "children": [],
                                "depth": 1,
                                "id": 3,
                                "order": 3
                            }
                        ],
                        "depth": 0,
                        "id": 0,
                        "order": 0
                    }
                ],
                "depth": -1,
                "id": -1,
                "order": -1
            }
        ],
        "tidyTraceNodeCount": 4
    },
    "state_change": {
        "stateChanges": [
            {
                "address": "0x867ffb5a3871b500f65bdfafe0136f9667deae06",
                "erc": "",
                "slots": [
                    {
                        "current": "0x000000000000000000000000000000000000000000000000401e0e4ad8102700",
                        "key": "0x0000000000000000000000000000000000000000000000000000000000000003",
                        "prev": "0x000000000000000000000000000000000000000000000000400d4b1410bc0700"
                    },
                    {
                        "current": "0x0000000000000000000000000000000000000000000000000000000000000000",
                        "key": "0x3fcf6704eb6990f1b6d0dbab0f63f5054df37559d7693e34b9f3e7780fea270e",
                        "prev": "0x0000000000000000000000000000000000000000000000000000005c5c4a6201"
                    }
                ],
                "storageVariables": [
                    {
                        "name": "feesAvailableForWithdraw",
                        "type": "uint256",
                        "value": {
                            "current": "4620145982344013568",
                            "prev": "4615427742676813568",
                            "typeTag": 1
                        }
                    },
                    {
                        "name": "escrows",
                        "type": "mapping(bytes32 => struct LocalEthereumEscrows.Escrow)",
                        "value": {
                            "pairs": [
                                {
                                    "key": "0x34820215884aa70125c68785948cd954b93178235f1cb3a8c61430462b030123",
                                    "value": {
                                        "fields": [
                                            {
                                                "name": "exists",
                                                "type": "bool",
                                                "value": {
                                                    "current": "false",
                                                    "prev": "true",
                                                    "typeTag": 1
                                                }
                                            },
                                            {
                                                "name": "sellerCanCancelAfter",
                                                "type": "uint32",
                                                "value": {
                                                    "current": "0",
                                                    "prev": "1549552226",
                                                    "typeTag": 1
                                                }
                                            },
                                            {
                                                "name": "totalGasFeesSpentByRelayer",
                                                "type": "uint128",
                                                "value": {
                                                    "current": "0",
                                                    "prev": "0",
                                                    "typeTag": 1
                                                }
                                            }
                                        ],
                                        "typeTag": 3
                                    }
                                }
                            ],
                            "typeTag": 4
                        }
                    }
                ]
            }
        ]
    }
}