{
    "balance_change": {
        "balanceChanges": [
            {
                "account": "0xfa4d81487ece32e95ae2bee5fc860f189fe163d8",
                "assets": [
                    {
                        "address": "0xca14007eff0db1f8135f4c25b34de49ab0d42766",
                        "amount": "59,225.42",
                        "iconUrl": "",
                        "isERC1155": false,
                        "isERC721": false,
                        "sign": false,
                        "value": "11598.82105"
                    }
                ]
            },
            {
                "account": "0xca246a06b1bfbd8d0610e1c80e169eb570b50169",
                "assets": [
                    {
                        "address": "0xca14007eff0db1f8135f4c25b34de49ab0d42766",
                        "amount": "59,225.42",
                        "iconUrl": "",
                        "isERC1155": false,
                        "isERC721": false,
                        "sign": true,
                        "value": "11598.82105"
                    }
                ]
            }
        ]
    },
    "profile": {
        "basic_info": {
            "baseFee": "1.920614951",
            "blockNumber": 20304582,
            "callData": "0xa9059cbb000000000000000000000000ca246a06b1bfbd8d0610e1c80e169eb570b50169000000000000000000000000000000000000000000000c8a9dcfc446c36e0000",
            "debugEnable": true,
            "errorInfo": "",
            "eventCount": 1,
            "feeRecipient": "0x4838b106fce9647bdf1e7877bf73ce8b0bad5f97",
            "formatValue": "0",
            "gasLimit": 300000,
            "gasPrice": "6.920614951",
            "gasUsed": 51198,
            "intTxnCount": 0,
            "internalRevert": false,
            "internalRevertMessage": "",
            "isContractCreation": false,
            "isFlashloan": false,
            "maxFee": "200",
            "nonce": 25204,
            "overwritedBlockNumber": -1,
            "priorityFee": "5",
            "receiver": "0xca14007eff0db1f8135f4c25b34de49ab0d42766",
            "revertMessage": "",
            "sender": "0xfa4d81487ece32e95ae2bee5fc860f189fe163d8",
            "simulationEnable": true,
            "sourceTxnHash": "0x2f850b8ccff33d6b02d9ee355f0c82bf16ec6b35e7a1bfa92c03ca91a8088405",
            "status": true,
            "timestamp": "2024-07-14T11:55:47Z",
            "transactionFee": "0.000354321644261298",
            "txnHash": "0x2f850b8ccff33d6b02d9ee355f0c82bf16ec6b35e7a1bfa92c03ca91a8088405",
            "txnIndex": 6,
            "type": 2,
            "value": "0"
        },
        "fund_flow": [
            {
                "amount": "59,225.42",
                "from": "0xfa4d81487ece32e95ae2bee5fc860f189fe163d8",
                "id": 1,
                "isERC1155": false,
                "isERC721": false,
                "isReverted": false,
                "order": 1,
                "to": "0xca246a06b1bfbd8d0610e1c80e169eb570b50169",
                "token": "0xca14007eff0db1f8135f4c25b34de49ab0d42766"
            }
        ],
        "token_infos": [
            {
                "address": "0xc02aaa39b223fe8d0a0e5c4f27ead9083c756cc2",
                "decimals": 18
            },
            {
                "address": "0xca14007eff0db1f8135f4c25b34de49ab0d42766",
                "decimals": 18
            },
            {
                "address": "0xeeeeeeeeeeeeeeeeeeeeeeeeeeeeeeeeeeeeeeee",
                "decimals": 18
            }
        ]
    },
    "address_label": {
        "labels": [
            {
                "address": "0xca14007eff0db1f8135f4c25b34de49ab0d42766",
                "label": "StarkNet: STRK Token"
            },
            {
                "address": "0xca246a06b1bfbd8d0610e1c80e169eb570b50169",
                "label": "BITHUMB"
            },
            {
                "address": "0x0000000000000000000000000000000000000001",
                "label": "Precompiled"
            },
            {
                "address": "0x0000000000000000000000000000000000000002",
                "label": "Precompiled"
            },
            {
                "address": "0x0000000000000000000000000000000000000003",
                "label": "Precompiled"
            },
            {
                "address": "0x0000000000000000000000000000000000000004",
                "label": "Precompiled"
            },
            {
                "address": "0xeeeeeeeeeeeeeeeeeeeeeeeeeeeeeeeeeeeeeeee",
                "label": "Ether"
            }
        ]
    },
    "trace": {
        "accountLabels": null,
        "dataMap": {
            "-1": {
                "invocation": {
                    "address": "0xfa4d81487ece32e95ae2bee5fc860f189fe163d8",
                    "callData": "",
                    "decodedMethod": null,
                    "errorInfo": "",
                    "fromAddress": "",
                    "gasUsed": 0,
                    "id": -1,
                    "methodDecoded": false,
                    "operation": "",
                    "output": "",
                    "revert": false,
                    "revertMessage": "",
                    "selector": "",
                    "status": false,
                    "value": ""
                },
                "nodeType": 0
            },
            "0": {
                "invocation": {
                    "address": "0xca14007eff0db1f8135f4c25b34de49ab0d42766",
                    "callData": "0x000000000000000000000000ca246a06b1bfbd8d0610e1c80e169eb570b50169000000000000000000000000000000000000000000000c8a9dcfc446c36e0000",
                    "decodedMethod": {
                        "callParams": [
                            {
                                "name": "to",
                                "type": "address",
                                "value": "0xca246a06b1bfbd8d0610e1c80e169eb570b50169"
                            },
                            {
                                "decimalAvailable": true,
                                "name": "amount",
                                "type": "uint256",
                                "value": "59,225,420,000,000,000,000,000"
                            }
                        ],
                        "constructorArguments": "",
                        "name": "transfer",
                        "returnParams": [
                            {
                                "name": "",
                                "type": "bool",
                                "value": true
                            }
                        ],
                        "signature": "transfer(address,uint256)"
                    },
                    "errorInfo": "",
                    "fromAddress": "0xfa4d81487ece32e95ae2bee5fc860f189fe163d8",
                    "gasUsed": 51198,
                    "id": 0,
                    "methodDecoded": true,
                    "operation": "CALL",
                    "output": "0x0000000000000000000000000000000000000000000000000000000000000001",
                    "revert": false,
                    "revertMessage": "",
                    "selector": "0xa9059cbb",
                    "status": true,
                    "value": "0"
                },
                "nodeType": 0
            },
            "1": {
                "event": {
                    "contract": "0xca14007eff0db1f8135f4c25b34de49ab0d42766",
                    "decodedLog": {
                        "name": "Transfer",
                        "params": [
                            {
                                "name": "from",
                                "type": "address",
                                "value": "0xfa4d81487ece32e95ae2bee5fc860f189fe163d8"
                            },
                            {
                                "name": "to",
                                "type": "address",
                                "value": "0xca246a06b1bfbd8d0610e1c80e169eb570b50169"
                            },
                            {
                                "decimalAvailable": true,
                                "name": "value",
                                "type": "uint256",
                                "value": "59,225,420,000,000,000,000,000"
                            }
                        ],
                        "signature": "Transfer(address,address,uint256)"
                    },
                    "id": 1,
                    "logData": "0x000000000000000000000000000000000000000000000c8a9dcfc446c36e0000",
                    "logDecoded": true,
                    "operation": "EVENT",
                    "revert": false,
                    "status": true,
                    "topics": [
                        "0xddf252ad1be2c89b69c2b068fc378daa952ba7f163c4a11628f55a4df523b3ef",
                        "0x000000000000000000000000fa4d81487ece32e95ae2bee5fc860f189fe163d8",
                        "0x000000000000000000000000ca246a06b1bfbd8d0610e1c80e169eb570b50169"
                    ]
                },
                "nodeType": 1
            }
        },
        "gasFlame": [
            {
                "children": [
                    {
                        "children": [
                            {
                                "children": [],
                                "depth": 0,
                                "name": "Initial Gas",
                                "value": 21656
                            },
                            {
                                "children": [],
                                "depth": 0,
                                "name": "Executed Gas",
                                "value": 34342
                            }
                        ],
                        "depth": -1,
                        "name": "Actual Gas Used",
                        "value": 51198
                    },
                    {
                        "children": [],
                        "depth": -1,
                        "name": "Refunded Gas",
                        "value": 4800
                    }
                ],
                "depth": -2,
                "name": "Total Gas",
                "value": 55998
            }
        ],
        "isConfirmed": true,
        "mainTrace": [
            {
                "children": [
                    {
                        "children": [
                            {
                                "children": [],
                                "depth": 1,
                                "id": 1,
                                "order": 1
                            }
                        ],
                        "depth": 0,
                        "id": 0,
                        "order": 0
                    }
                ],
                "depth": -1,
                "id": -1,
                "order": -1
            }
        ],
        "mainTraceNodeCount": 2,
        "parentIdMap": {
            "0": -1,
            "1": 0
        },
        "tidyTrace": [
            {
                "children": [
                    {
                        "children": [
                            {
                                "children": [],
                                "depth": 1,
                                "id": 1,
                                "order": 1
                            }
                        ],
                        "depth": 0,
                        "id": 0,
                        "order": 0
                    }
                ],
                "depth": -1,
                "id": -1,
                "order": -1
            }
        ],
        "tidyTraceNodeCount": 2
    },
    "state_change": {
        "stateChanges": [
            {
                "address": "0xca14007eff0db1f8135f4c25b34de49ab0d42766",
                "erc": "ERC-20",
                "slots": [
                    {
                        "current": "0x0000000000000000000000000000000000000000000000000000000000000000",
                        "key": "0xb9809567a1ba2b8a14a427b9019c4fb8958f37f8cb7ca0e1a7e23202db23d334",
                        "prev": "0x000000000000000000000000000000000000000000000c8a9dcfc446c36e0000"
                    },
                    {
                        "current": "0x000000000000000000000000000000000000000000000c8a9dcfc446c36e0000",
                        "key": "0x254b8064173e27cd051a3944ff045d0f96120f098087f3283e082e7da9fc94dc",
                        "prev": "0x0000000000000000000000000000000000000000000000000000000000000000"
                    }
                ],
                "storageVariables": [
                    {
                        "name": "_balances",
                        "type": "mapping(address => uint256)",
                        "value": {
                            "pairs": [
                                {
                                    "key": "0xca246a06b1bfbd8d0610e1c80e169eb570b50169",
                                    "value": {
                                        "current": "59225420000000000000000",
                                        "prev": "0",
                                        "typeTag": 1
                                    }
                                },
                                {
                                    "key": "0xfa4d81487ece32e95ae2bee5fc860f189fe163d8",
                                    "value": {
                                        "current": "0",
                                        "prev": "59225420000000000000000",
                                        "typeTag": 1
                                    }
                                }
                            ],
                            "typeTag": 4
                        }
                    }
                ]
            }
        ]
    }
}