{
    "balance_change": {
        "balanceChanges": [
            {
                "account": "0x072c0a55981a9f643c9b29d6e3ddc28b8b010266",
                "assets": [
                    {
                        "address": "0x043c308bb8a5ae96d0093444be7f56459f1340b1",
                        "amount": "3,073.64062099222038005",
                        "iconUrl": "",
                        "isERC1155": false,
                        "isERC721": false,
                        "sign": false,
                        "value": "1065.15187"
                    },
                    {
                        "address": "0xdac17f958d2ee523a2206206994597c13d831ec7",
                        "amount": "1,103.773198",
                        "iconUrl": "https://assets.blocksec.com/icon/fcea71f3193ce895be44bfdf941f7e4c9381dd587f273c2d1a27f1263d84e4ea.png",
                        "isERC1155": false,
                        "isERC721": false,
                        "sign": true,
                        "value": "1104.565233"
                    }
                ]
            },
            {
                "account": "0x581473efa76e547bb9858b2034590b7716a6d27e",
                "assets": [
                    {
                        "address": "0x043c308bb8a5ae96d0093444be7f56459f1340b1",
                        "amount": "3,073.64062099222038005",
                        "iconUrl": "",
                        "isERC1155": false,
                        "isERC721": false,
                        "sign": true,
                        "value": "1065.15187"
                    },
                    {
                        "address": "0xdac17f958d2ee523a2206206994597c13d831ec7",
                        "amount": "1,103.773198",
                        "iconUrl": "https://assets.blocksec.com/icon/fcea71f3193ce895be44bfdf941f7e4c9381dd587f273c2d1a27f1263d84e4ea.png",
                        "isERC1155": false,
                        "isERC721": false,
                        "sign": false,
                        "value": "1104.565233"
                    }
                ]
            }
        ]
    },
    "profile": {
        "basic_info": {
            "baseFee": "338.551599685",
            "blockNumber": 13186089,
            "callData": "0x38ed17390000000000000000000000000000000000000000000000a69f5513f24c583b920000000000000000000000000000000000000000000000000000000041237cce00000000000000000000000000000000000000000000000000000000000000a0000000000000000000000000072c0a55981a9f643c9b29d6e3ddc28b8b010266000000000000000000000000000000000000000000000000000000006138e3050000000000000000000000000000000000000000000000000000000000000002000000000000000000000000043c308bb8a5ae96d0093444be7f56459f1340b1000000000000000000000000dac17f958d2ee523a2206206994597c13d831ec7",
            "debugEnable": true,
            "errorInfo": "",
            "eventCount": 5,
            "feeRecipient": "0xea674fdde714fd979de3edf0f56aa9716b898ec8",
            "formatValue": "0",
            "gasLimit": 134592,
            "gasPrice": "342.100001605",
            "gasUsed": 112053,
            "intTxnCount": 6,
            "internalRevert": false,
            "internalRevertMessage": "",
            "isContractCreation": false,
            "isFlashloan": false,
            "maxFee": "",
            "nonce": 28,
            "overwritedBlockNumber": -1,
            "priorityFee": "",
            "receiver": "0xd7b5d48d3e69e64850f7086d1c078a93fb909257",
            "revertMessage": "",
            "sender": "0x072c0a55981a9f643c9b29d6e3ddc28b8b010266",
            "simulationEnable": true,
            "sourceTxnHash": "0x30b7b8157acd05166300a13754dfb9dae4902b085a98887c5ad88446d8cfcfe2",
            "status": true,
            "timestamp": "2021-09-08T16:05:26Z",
            "transactionFee": "0.038333331479845065",
            "txnHash": "0x30b7b8157acd05166300a13754dfb9dae4902b085a98887c5ad88446d8cfcfe2",
            "txnIndex": 233,
            "type": 0,
            "value": "0"
        },
        "fund_flow": [
            {
                "amount": "3,073.64062099222038005",
                "from": "0x072c0a55981a9f643c9b29d6e3ddc28b8b010266",
                "id": 1,
                "isERC1155": false,
                "isERC721": false,
                "isReverted": false,
                "order": 1,
                "to": "0x581473efa76e547bb9858b2034590b7716a6d27e",
                "token": "0x043c308bb8a5ae96d0093444be7f56459f1340b1"
            },
            {
                "amount": "1,103.773198",
                "from": "0x581473efa76e547bb9858b2034590b7716a6d27e",
                "id": 2,
                "isERC1155": false,
                "isERC721": false,
                "isReverted": false,
                "order": 2,
                "to": "0x072c0a55981a9f643c9b29d6e3ddc28b8b010266",
                "token": "0xdac17f958d2ee523a2206206994597c13d831ec7"
            }
        ],
        "token_infos": [
            {
                "address": "0x043c308bb8a5ae96d0093444be7f56459f1340b1",
                "decimals": 18
            },
            {
                "address": "0xc02aaa39b223fe8d0a0e5c4f27ead9083c756cc2",
                "decimals": 18
            },
            {
                "address": "0xdac17f958d2ee523a2206206994597c13d831ec7",
                "decimals": 6
            },
            {
                "address": "0xeeeeeeeeeeeeeeeeeeeeeeeeeeeeeeeeeeeeeeee",
                "decimals": 18
            }
        ]
    },
    "address_label": {
        "labels": [
            {
                "address": "0xeeeeeeeeeeeeeeeeeeeeeeeeeeeeeeeeeeeeeeee",
                "label": "Ether"
            },
            {
                "address": "0x0000000000000000000000000000000000000001",
                "label": "Precompiled"
            },
            {
                "address": "0x043c308bb8a5ae96d0093444be7f56459f1340b1",
                "label": "SumSwap: SUM Token"
            },
            {
                "address": "0xdac17f958d2ee523a2206206994597c13d831ec7",
                "label": "Tether: USDT Stablecoin"
            },
            {
                "address": "0x581473efa76e547bb9858b2034590b7716a6d27e",
                "label": "SummaSwap LP Token (SLP)"
            },
            {
                "address": "0xd7b5d48d3e69e64850f7086d1c078a93fb909257",
                "label": "SumswapV2Router02"
            },
            {
                "address": "0x0000000000000000000000000000000000000002",
                "label": "Precompiled"
            },
            {
                "address": "0x0000000000000000000000000000000000000003",
                "label": "Precompiled"
            },
            {
                "address": "0x0000000000000000000000000000000000000004",
                "label": "Precompiled"
            }
        ]
    },
    "trace": {
        "accountLabels": null,
        "dataMap": {
            "-1": {
                "invocation": {
                    "address": "0x072c0a55981a9f643c9b29d6e3ddc28b8b010266",
                    "callData": "",
                    "decodedMethod": null,
                    "errorInfo": "",
                    "fromAddress": "",
                    "gasUsed": 0,
                    "id": -1,
                    "methodDecoded": false,
                    "operation": "",
                    "output": "",
                    "revert": false,
                    "revertMessage": "",
                    "selector": "",
                    "status": false,
                    "value": ""
                },
                "nodeType": 0
            },
            "0": {
                "invocation": {
                    "address": "0xd7b5d48d3e69e64850f7086d1c078a93fb909257",
                    "callData": "0x0000000000000000000000000000000000000000000000a69f5513f24c583b920000000000000000000000000000000000000000000000000000000041237cce00000000000000000000000000000000000000000000000000000000000000a0000000000000000000000000072c0a55981a9f643c9b29d6e3ddc28b8b010266000000000000000000000000000000000000000000000000000000006138e3050000000000000000000000000000000000000000000000000000000000000002000000000000000000000000043c308bb8a5ae96d0093444be7f56459f1340b1000000000000000000000000dac17f958d2ee523a2206206994597c13d831ec7",
                    "decodedMethod": {
                        "callParams": [
                            {
                                "name": "amountIn",
                                "type": "uint256",
                                "value": "3,073,640,620,992,220,380,050"
                            },
                            {
                                "name": "amountOutMin",
                                "type": "uint256",
                                "value": "1,092,844,750"
                            },
                            {
                                "name": "path",
                                "type": "address[]",
                                "value": [
                                    "0x043c308bb8a5ae96d0093444be7f56459f1340b1",
                                    "0xdac17f958d2ee523a2206206994597c13d831ec7"
                                ]
                            },
                            {
                                "name": "to",
                                "type": "address",
                                "value": "0x072c0a55981a9f643c9b29d6e3ddc28b8b010266"
                            },
                            {
                                "name": "deadline",
                                "type": "uint256",
                                "value": "1,631,118,085"
                            }
                        ],
                        "constructorArguments": "",
                        "name": "swapExactTokensForTokens",
                        "returnParams": [
                            {
                                "name": "amounts",
                                "type": "uint256[]",
                                "value": [
                                    "3,073,640,620,992,220,380,050",
                                    "1,103,773,198"
                                ]
                            }
                        ],
                        "signature": "swapExactTokensForTokens(uint256,uint256,address[],address,uint256)"
                    },
                    "errorInfo": "",
                    "fromAddress": "0x072c0a55981a9f643c9b29d6e3ddc28b8b010266",
                    "gasUsed": 112053,
                    "id": 0,
                    "methodDecoded": true,
                    "operation": "CALL",
                    "output": "0x000000000000000000000000000000000000000000000000000000000000002000000000000000000000000000000000000000000000000000000000000000020000000000000000000000000000000000000000000000a69f5513f24c583b920000000000000000000000000000000000000000000000000000000041ca3e0e",
                    "revert": false,
                    "revertMessage": "",
                    "selector": "0x38ed1739",
                    "status": true,
                    "value": "0"
                },
                "nodeType": 0
            },
            "1": {
                "invocation": {
                    "address": "0x581473efa76e547bb9858b2034590b7716a6d27e",
                    "callData": "0x",
                    "decodedMethod": {
                        "callParams": [],
                        "constructorArguments": "",
                        "name": "getReserves",
                        "returnParams": [
                            {
                                "name": "_reserve0",
                                "type": "uint112",
                                "value": "2,408,904,132,084,512,082,220,850"
                            },
                            {
                                "name": "_reserve1",
                                "type": "uint112",
                                "value": "868,766,847,994"
                            },
                            {
                                "name": "_blockTimestampLast",
                                "type": "uint32",
                                "value": "1,631,107,424"
                            }
                        ],
                        "signature": "getReserves()"
                    },
                    "errorInfo": "",
                    "fromAddress": "0xd7b5d48d3e69e64850f7086d1c078a93fb909257",
                    "gasUsed": 2517,
                    "id": 1,
                    "methodDecoded": true,
                    "operation": "STATICCALL",
                    "output": "0x00000000000000000000000000000000000000000001fe1af464f9c7211dd732000000000000000000000000000000000000000000000000000000ca468a13fa000000000000000000000000000000000000000000000000000000006138b960",
                    "revert": false,
                    "revertMessage": "",
                    "selector": "0x0902f1ac",
                    "status": true,
                    "value": "0"
                },
                "nodeType": 0
            },
            "10": {
                "event": {
                    "contract": "0x581473efa76e547bb9858b2034590b7716a6d27e",
                    "decodedLog": {
                        "name": "Sync",
                        "params": [
                            {
                                "name": "reserve0",
                                "type": "uint112",
                                "value": "2,411,977,772,705,504,302,600,900"
                            },
                            {
                                "name": "reserve1",
                                "type": "uint112",
                                "value": "867,663,074,796"
                            }
                        ],
                        "signature": "Sync(uint112,uint112)"
                    },
                    "id": 10,
                    "logData": "0x00000000000000000000000000000000000000000001fec193ba0db96d7612c4000000000000000000000000000000000000000000000000000000ca04bfd5ec",
                    "logDecoded": true,
                    "operation": "EVENT",
                    "revert": false,
                    "status": true,
                    "topics": [
                        "0x1c411e9a96e071241c2f21f7726b17ae89e3cab4c78be50e062b03a9fffbbad1"
                    ]
                },
                "nodeType": 1
            },
            "11": {
                "event": {
                    "contract": "0x581473efa76e547bb9858b2034590b7716a6d27e",
                    "decodedLog": {
                        "name": "Swap",
                        "params": [
                            {
                                "name": "sender",
                                "type": "address",
                                "value": "0xd7b5d48d3e69e64850f7086d1c078a93fb909257"
                            },
                            {
                                "name": "to",
                                "type": "address",
                                "value": "0x072c0a55981a9f643c9b29d6e3ddc28b8b010266"
                            },
                            {
                                "name": "amount0In",
                                "type": "uint256",
                                "value": "3,073,640,620,992,220,380,050"
                            },
                            {
                                "name": "amount1In",
                                "type": "uint256",
                                "value": "0"
                            },
                            {
                                "name": "amount0Out",
                                "type": "uint256",
                                "value": "0"
                            },
                            {
                                "name": "amount1Out",
                                "type": "uint256",
                                "value": "1,103,773,198"
                            }
                        ],
                        "signature": "Swap(address,uint256,uint256,uint256,uint256,address)"
                    },
                    "id": 11,
                    "logData": "0x0000000000000000000000000000000000000000000000a69f5513f24c583b92000000000000000000000000000000000000000000000000000000000000000000000000000000000000000000000000000000000000000000000000000000000000000000000000000000000000000000000000000000000000000041ca3e0e",
                    "logDecoded": true,
                    "operation": "EVENT",
                    "revert": false,
                    "status": true,
                    "topics": [
                        "0xd78ad95fa46c994b6551d0da85fc275fe613ce37657fb8d5e3d130840159d822",
                        "0x000000000000000000000000d7b5d48d3e69e64850f7086d1c078a93fb909257",
                        "0x000000000000000000000000072c0a55981a9f643c9b29d6e3ddc28b8b010266"
                    ]
                },
                "nodeType": 1
            },
            "2": {
                "invocation": {
                    "address": "0x043c308bb8a5ae96d0093444be7f56459f1340b1",
                    "callData": "0x000000000000000000000000072c0a55981a9f643c9b29d6e3ddc28b8b010266000000000000000000000000581473efa76e547bb9858b2034590b7716a6d27e0000000000000000000000000000000000000000000000a69f5513f24c583b92",
                    "decodedMethod": {
                        "callParams": [
                            {
                                "name": "sender",
                                "type": "address",
                                "value": "0x072c0a55981a9f643c9b29d6e3ddc28b8b010266"
                            },
                            {
                                "name": "recipient",
                                "type": "address",
                                "value": "0x581473efa76e547bb9858b2034590b7716a6d27e"
                            },
                            {
                                "decimalAvailable": true,
                                "name": "amount",
                                "type": "uint256",
                                "value": "3,073,640,620,992,220,380,050"
                            }
                        ],
                        "constructorArguments": "",
                        "name": "transferFrom",
                        "returnParams": [
                            {
                                "name": "",
                                "type": "bool",
                                "value": true
                            }
                        ],
                        "signature": "transferFrom(address,address,uint256)"
                    },
                    "errorInfo": "",
                    "fromAddress": "0xd7b5d48d3e69e64850f7086d1c078a93fb909257",
                    "gasUsed": 20731,
                    "id": 2,
                    "methodDecoded": true,
                    "operation": "CALL",
                    "output": "0x0000000000000000000000000000000000000000000000000000000000000001",
                    "revert": false,
                    "revertMessage": "",
                    "selector": "0x23b872dd",
                    "status": true,
                    "value": "0"
                },
                "nodeType": 0
            },
            "3": {
                "event": {
                    "contract": "0x043c308bb8a5ae96d0093444be7f56459f1340b1",
                    "decodedLog": {
                        "name": "Transfer",
                        "params": [
                            {
                                "name": "from",
                                "type": "address",
                                "value": "0x072c0a55981a9f643c9b29d6e3ddc28b8b010266"
                            },
                            {
                                "name": "to",
                                "type": "address",
                                "value": "0x581473efa76e547bb9858b2034590b7716a6d27e"
                            },
                            {
                                "decimalAvailable": true,
                                "name": "value",
                                "type": "uint256",
                                "value": "3,073,640,620,992,220,380,050"
                            }
                        ],
                        "signature": "Transfer(address,address,uint256)"
                    },
                    "id": 3,
                    "logData": "0x0000000000000000000000000000000000000000000000a69f5513f24c583b92",
                    "logDecoded": true,
                    "operation": "EVENT",
                    "revert": false,
                    "status": true,
                    "topics": [
                        "0xddf252ad1be2c89b69c2b068fc378daa952ba7f163c4a11628f55a4df523b3ef",
                        "0x000000000000000000000000072c0a55981a9f643c9b29d6e3ddc28b8b010266",
                        "0x000000000000000000000000581473efa76e547bb9858b2034590b7716a6d27e"
                    ]
                },
                "nodeType": 1
            },
            "4": {
                "event": {
                    "contract": "0x043c308bb8a5ae96d0093444be7f56459f1340b1",
                    "decodedLog": {
                        "name": "Approval",
                        "params": [
                            {
                                "name": "owner",
                                "type": "address",
                                "value": "0x072c0a55981a9f643c9b29d6e3ddc28b8b010266"
                            },
                            {
                                "name": "spender",
                                "type": "address",
                                "value": "0xd7b5d48d3e69e64850f7086d1c078a93fb909257"
                            },
                            {
                                "decimalAvailable": true,
                                "name": "value",
                                "type": "uint256",
                                "value": "115,792,089,237,316,195,423,570,985,008,687,907,853,269,984,665,640,564,036,383,943,386,920,909,259,885"
                            }
                        ],
                        "signature": "Approval(address,address,uint256)"
                    },
                    "id": 4,
                    "logData": "0xffffffffffffffffffffffffffffffffffffffffffffff5960aaec0db3a7c46d",
                    "logDecoded": true,
                    "operation": "EVENT",
                    "revert": false,
                    "status": true,
                    "topics": [
                        "0x8c5be1e5ebec7d5bd14f71427d1e84f3dd0314c0f7b2291e5b200ac8c7c3b925",
                        "0x000000000000000000000000072c0a55981a9f643c9b29d6e3ddc28b8b010266",
                        "0x000000000000000000000000d7b5d48d3e69e64850f7086d1c078a93fb909257"
                    ]
                },
                "nodeType": 1
            },
            "5": {
                "invocation": {
                    "address": "0x581473efa76e547bb9858b2034590b7716a6d27e",
                    "callData": "0x00000000000000000000000000000000000000000000000000000000000000000000000000000000000000000000000000000000000000000000000041ca3e0e000000000000000000000000072c0a55981a9f643c9b29d6e3ddc28b8b01026600000000000000000000000000000000000000000000000000000000000000800000000000000000000000000000000000000000000000000000000000000000",
                    "decodedMethod": {
                        "callParams": [
                            {
                                "name": "amount0Out",
                                "type": "uint256",
                                "value": "0"
                            },
                            {
                                "name": "amount1Out",
                                "type": "uint256",
                                "value": "1,103,773,198"
                            },
                            {
                                "name": "to",
                                "type": "address",
                                "value": "0x072c0a55981a9f643c9b29d6e3ddc28b8b010266"
                            },
                            {
                                "name": "data",
                                "type": "bytes",
                                "value": "0x"
                            }
                        ],
                        "constructorArguments": "",
                        "name": "swap",
                        "returnParams": [],
                        "signature": "swap(uint256,uint256,address,bytes)"
                    },
                    "errorInfo": "",
                    "fromAddress": "0xd7b5d48d3e69e64850f7086d1c078a93fb909257",
                    "gasUsed": 60113,
                    "id": 5,
                    "methodDecoded": true,
                    "operation": "CALL",
                    "output": "",
                    "revert": false,
                    "revertMessage": "",
                    "selector": "0x022c0d9f",
                    "status": true,
                    "value": "0"
                },
                "nodeType": 0
            },
            "6": {
                "invocation": {
                    "address": "0xdac17f958d2ee523a2206206994597c13d831ec7",
                    "callData": "0x000000000000000000000000072c0a55981a9f643c9b29d6e3ddc28b8b0102660000000000000000000000000000000000000000000000000000000041ca3e0e",
                    "decodedMethod": {
                        "callParams": [
                            {
                                "name": "_to",
                                "type": "address",
                                "value": "0x072c0a55981a9f643c9b29d6e3ddc28b8b010266"
                            },
                            {
                                "decimalAvailable": true,
                                "name": "_value",
                                "type": "uint256",
                                "value": "1,103,773,198"
                            }
                        ],
                        "constructorArguments": "",
                        "name": "transfer",
                        "returnParams": [],
                        "signature": "transfer(address,uint256)"
                    },
                    "errorInfo": "",
                    "fromAddress": "0x581473efa76e547bb9858b2034590b7716a6d27e",
                    "gasUsed": 24501,
                    "id": 6,
                    "methodDecoded": true,
                    "operation": "CALL",
                    "output": "",
                    "revert": false,
                    "revertMessage": "",
                    "selector": "0xa9059cbb",
                    "status": true,
                    "value": "0"
                },
                "nodeType": 0
            },
            "7": {
                "event": {
                    "contract": "0xdac17f958d2ee523a2206206994597c13d831ec7",
                    "decodedLog": {
                        "name": "Transfer",
                        "params": [
                            {
                                "name": "from",
                                "type": "address",
                                "value": "0x581473efa76e547bb9858b2034590b7716a6d27e"
                            },
                            {
                                "name": "to",
                                "type": "address",
                                "value": "0x072c0a55981a9f643c9b29d6e3ddc28b8b010266"
                            },
                            {
                                "decimalAvailable": true,
                                "name": "value",
                                "type": "uint256",
                                "value": "1,103,773,198"
                            }
                        ],
                        "signature": "Transfer(address,address,uint256)"
                    },
                    "id": 7,
                    "logData": "0x0000000000000000000000000000000000000000000000000000000041ca3e0e",
                    "logDecoded": true,
                    "operation": "EVENT",
                    "revert": false,
                    "status": true,
                    "topics": [
                        "0xddf252ad1be2c89b69c2b068fc378daa952ba7f163c4a11628f55a4df523b3ef",
                        "0x000000000000000000000000581473efa76e547bb9858b2034590b7716a6d27e",
                        "0x000000000000000000000000072c0a55981a9f643c9b29d6e3ddc28b8b010266"
                    ]
                },
                "nodeType": 1
            },
            "8": {
                "invocation": {
                    "address": "0x043c308bb8a5ae96d0093444be7f56459f1340b1",
                    "callData": "0x000000000000000000000000581473efa76e547bb9858b2034590b7716a6d27e",
                    "decodedMethod": {
                        "callParams": [
                            {
                                "name": "account",
                                "type": "address",
                                "value": "0x581473efa76e547bb9858b2034590b7716a6d27e"
                            }
                        ],
                        "constructorArguments": "",
                        "name": "balanceOf",
                        "returnParams": [
                            {
                                "decimalAvailable": true,
                                "name": "",
                                "type": "uint256",
                                "value": "2,411,977,772,705,504,302,600,900"
                            }
                        ],
                        "signature": "balanceOf(address)"
                    },
                    "errorInfo": "",
                    "fromAddress": "0x581473efa76e547bb9858b2034590b7716a6d27e",
                    "gasUsed": 512,
                    "id": 8,
                    "methodDecoded": true,
                    "operation": "STATICCALL",
                    "output": "0x00000000000000000000000000000000000000000001fec193ba0db96d7612c4",
                    "revert": false,
                    "revertMessage": "",
                    "selector": "0x70a08231",
                    "status": true,
                    "value": "0"
                },
                "nodeType": 0
            },
            "9": {
                "invocation": {
                    "address": "0xdac17f958d2ee523a2206206994597c13d831ec7",
                    "callData": "0x000000000000000000000000581473efa76e547bb9858b2034590b7716a6d27e",
                    "decodedMethod": {
                        "callParams": [
                            {
                                "name": "who",
                                "type": "address",
                                "value": "0x581473efa76e547bb9858b2034590b7716a6d27e"
                            }
                        ],
                        "constructorArguments": "",
                        "name": "balanceOf",
                        "returnParams": [
                            {
                                "decimalAvailable": true,
                                "name": "",
                                "type": "uint256",
                                "value": "867,663,074,796"
                            }
                        ],
                        "signature": "balanceOf(address)"
                    },
                    "errorInfo": "",
                    "fromAddress": "0x581473efa76e547bb9858b2034590b7716a6d27e",
                    "gasUsed": 1031,
                    "id": 9,
                    "methodDecoded": true,
                    "operation": "STATICCALL",
                    "output": "0x000000000000000000000000000000000000000000000000000000ca04bfd5ec",
                    "revert": false,
                    "revertMessage": "",
                    "selector": "0x70a08231",
                    "status": true,
                    "value": "0"
                },
                "nodeType": 0
            }
        },
        "gasFlame": [
            {
                "children": [
                    {
                        "children": [
                            {
                                "children": [],
                                "depth": 0,
                                "name": "Initial Gas",
                                "value": 23036
                            },
                            {
                                "children": [
                                    {
                                        "children": [],
                                        "depth": 1,
                                        "name": "getReserves",
                                        "value": 2517
                                    },
                                    {
                                        "children": [],
                                        "depth": 1,
                                        "name": "transferFrom",
                                        "value": 20731
                                    },
                                    {
                                        "children": [
                                            {
                                                "children": [],
                                                "depth": 2,
                                                "name": "transfer",
                                                "value": 24501
                                            },
                                            {
                                                "children": [],
                                                "depth": 2,
                                                "name": "balanceOf",
                                                "value": 512
                                            },
                                            {
                                                "children": [],
                                                "depth": 2,
                                                "name": "balanceOf",
                                                "value": 1031
                                            }
                                        ],
                                        "depth": 1,
                                        "name": "swap",
                                        "value": 60113
                                    }
                                ],
                                "depth": 0,
                                "name": "Executed Gas",
                                "value": 96617
                            }
                        ],
                        "depth": -1,
                        "name": "Actual Gas Used",
                        "value": 112053
                    },
                    {
                        "children": [],
                        "depth": -1,
                        "name": "Refunded Gas",
                        "value": 7600
                    }
                ],
                "depth": -2,
                "name": "Total Gas",
                "value": 119653
            }
        ],
        "isConfirmed": true,
        "mainTrace": [
            {
                "children": [
                    {
                        "children": [
                            {
                                "children": [],
                                "depth": 1,
                                "id": 1,
                                "order": 1
                            },
                            {
                                "children": [
                                    {
                                        "children": [],
                                        "depth": 2,
                                        "id": 3,
                                        "order": 3
                                    },
                                    {
                                        "children": [],
                                        "depth": 2,
                                        "id": 4,
                                        "order": 4
                                    }
                                ],
                                "depth": 1,
                                "id": 2,
                                "order": 2
                            },
                            {
                                "children": [
                                    {
                                        "children": [
                                            {
                                                "children": [],
                                                "depth": 3,
                                                "id": 7,
                                                "order": 7
                                            }
                                        ],
                                        "depth": 2,
                                        "id": 6,
                                        "order": 6
                                    },
                                    {
                                        "children": [],
                                        "depth": 2,
                                        "id": 8,
                                        "order": 8
                                    },
                                    {
                                        "children": [],
                                        "depth": 2,
                                        "id": 9,
                                        "order": 9
                                    },
                                    {
                                        "children": [],
                                        "depth": 2,
                                        "id": 10,
                                        "order": 10
                                    },
                                    {
                                        "children": [],
                                        "depth": 2,
                                        "id": 11,
                                        "order": 11
                                    }
                                ],
                                "depth": 1,
                                "id": 5,
                                "order": 5
                            }
                        ],
                        "depth": 0,
                        "id": 0,
                        "order": 0
                    }
                ],
                "depth": -1,
                "id": -1,
                "order": -1
            }
        ],
        "mainTraceNodeCount": 12,
        "parentIdMap": {
            "0": -1,
            "1": 0,
            "10": 5,
            "11": 5,
            "2": 0,
            "3": 2,
            "4": 2,
            "5": 0,
            "6": 5,
            "7": 6,
            "8": 5,
            "9": 5
        },
        "tidyTrace": [
            {
                "children": [
                    {
                        "children": [
                            {
                                "children": [
                                    {
                                        "children": [],
                                        "depth": 2,
                                        "id": 3,
                                        "order": 3
                                    },
                                    {
                                        "children": [],
                                        "depth": 2,
                                        "id": 4,
                                        "order": 4
                                    }
                                ],
                                "depth": 1,
                                "id": 2,
                                "order": 2
                            },
                            {
                                "children": [
                                    {
                                        "children": [
                                            {
                                                "children": [],
                                                "depth": 3,
                                                "id": 7,
                                                "order": 7
                                            }
                                        ],
                                        "depth": 2,
                                        "id": 6,
                                        "order": 6
                                    },
                                    {
                                        "children": [],
                                        "depth": 2,
                                        "id": 10,
                                        "order": 10
                                    },
                                    {
                                        "children": [],
                                        "depth": 2,
                                        "id": 11,
                                        "order": 11
                                    }
                                ],
                                "depth": 1,
                                "id": 5,
                                "order": 5
                            }
                        ],
                        "depth": 0,
                        "id": 0,
                        "order": 0
                    }
                ],
                "depth": -1,
                "id": -1,
                "order": -1
            }
        ],
        "tidyTraceNodeCount": 9
    },
    "state_change": {
        "stateChanges": [
            {
                "address": "0x043c308bb8a5ae96d0093444be7f56459f1340b1",
                "erc": "ERC-20",
                "slots": [
                    {
                        "current": "0x0000000000000000000000000000000000000000000000000000000000000000",
                        "key": "0xd6c693e0d456bcd4aaee8b5e780bc09314b752768770f6c947cb19152e97e068",
                        "prev": "0x0000000000000000000000000000000000000000000000a69f5513f24c583b92"
                    },
                    {
                        "current": "0x00000000000000000000000000000000000000000001fec193ba0db96d7612c4",
                        "key": "0x5fdfb5943ea6f2d24f7f4b9d70e7e83c037e85af9150598e2940d1a9073ebd86",
                        "prev": "0x00000000000000000000000000000000000000000001fe1af464f9c7211dd732"
                    },
                    {
                        "current": "0xffffffffffffffffffffffffffffffffffffffffffffff5960aaec0db3a7c46d",
                        "key": "0x698013793effa26310adacb101bab51ce23821ea3e704501bfa6b6d1c3de6dd5",
                        "prev": "0xffffffffffffffffffffffffffffffffffffffffffffffffffffffffffffffff"
                    }
                ],
                "storageVariables": [
                    {
                        "name": "_balances",
                        "type": "mapping(address => uint256)",
                        "value": {
                            "pairs": [
                                {
                                    "key": "0x072c0a55981a9f643c9b29d6e3ddc28b8b010266",
                                    "value": {
                                        "current": "0",
                                        "prev": "3073640620992220380050",
                                        "typeTag": 1
                                    }
                                },
                                {
                                    "key": "0x581473efa76e547bb9858b2034590b7716a6d27e",
                                    "value": {
                                        "current": "2411977772705504302600900",
                                        "prev": "2408904132084512082220850",
                                        "typeTag": 1
                                    }
                                }
                            ],
                            "typeTag": 4
                        }
                    },
                    {
                        "name": "_allowances",
                        "type": "mapping(address => mapping(address => uint256))",
                        "value": {
                            "pairs": [
                                {
                                    "key": "0x072c0a55981a9f643c9b29d6e3ddc28b8b010266",
                                    "value": {
                                        "pairs": [
                                            {
                                                "key": "0xd7b5d48d3e69e64850f7086d1c078a93fb909257",
                                                "value": {
                                                    "current": "115792089237316195423570985008687907853269984665640564036383943386920909259885",
                                                    "prev": "115792089237316195423570985008687907853269984665640564039457584007913129639935",
                                                    "typeTag": 1
                                                }
                                            }
                                        ],
                                        "typeTag": 4
                                    }
                                }
                            ],
                            "typeTag": 4
                        }
                    }
                ]
            },
            {
                "address": "0x581473efa76e547bb9858b2034590b7716a6d27e",
                "erc": "ERC-20",
                "slots": [
                    {
                        "current": "0x0000000000000000000000000000000000000001239f0f608a4832c59f93b098",
                        "key": "0x0000000000000000000000000000000000000000000000000000000000000009",
                        "prev": "0x00000000000000000000000000000000000000012390082d367c50be55bd0af0"
                    },
                    {
                        "current": "0x000000000000000000008add29f185b4b62c57722b3500ad19bbbcf30022a2a9",
                        "key": "0x000000000000000000000000000000000000000000000000000000000000000a",
                        "prev": "0x000000000000000000008a7d971ccffa1e0ed0415a9ac5736bedf6135bd6eb13"
                    },
                    {
                        "current": "0x6138df46000000000000000000ca04bfd5ec00000001fec193ba0db96d7612c4",
                        "key": "0x0000000000000000000000000000000000000000000000000000000000000008",
                        "prev": "0x6138b960000000000000000000ca468a13fa00000001fe1af464f9c7211dd732"
                    }
                ],
                "storageVariables": [
                    {
                        "name": "price0CumulativeLast",
                        "type": "uint256",
                        "value": {
                            "current": "90252429679679085158409154712",
                            "prev": "90234261788997369627733199600",
                            "typeTag": 1
                        }
                    },
                    {
                        "name": "price1CumulativeLast",
                        "type": "uint256",
                        "value": {
                            "current": "51955161160224891467223254162859914062398159040193193",
                            "prev": "51815480248437114851061399849577675909269411935480595",
                            "typeTag": 1
                        }
                    },
                    {
                        "name": "reserve0",
                        "type": "uint112",
                        "value": {
                            "current": "2411977772705504302600900",
                            "prev": "2408904132084512082220850",
                            "typeTag": 1
                        }
                    },
                    {
                        "name": "reserve1",
                        "type": "uint112",
                        "value": {
                            "current": "867663074796",
                            "prev": "868766847994",
                            "typeTag": 1
                        }
                    },
                    {
                        "name": "blockTimestampLast",
                        "type": "uint32",
                        "value": {
                            "current": "1631117126",
                            "prev": "1631107424",
                            "typeTag": 1
                        }
                    }
                ]
            },
            {
                "address": "0xdac17f958d2ee523a2206206994597c13d831ec7",
                "erc": "ERC-20",
                "slots": [
                    {
                        "current": "0x000000000000000000000000000000000000000000000000000000ca04bfd5ec",
                        "key": "0x16998d1a4d0462e51b6cce91aed43b1d21204af4d720a792da2e23d3433052be",
                        "prev": "0x000000000000000000000000000000000000000000000000000000ca468a13fa"
                    },
                    {
                        "current": "0x0000000000000000000000000000000000000000000000000000000041cb60d1",
                        "key": "0xf3610a2db9c97a20e33734505c09866283bd82ec3e65f86cfbdc9e6eb9dfc85b",
                        "prev": "0x00000000000000000000000000000000000000000000000000000000000122c3"
                    }
                ],
                "storageVariables": [
                    {
                        "name": "balances",
                        "type": "mapping(address => uint256)",
                        "value": {
                            "pairs": [
                                {
                                    "key": "0x072c0a55981a9f643c9b29d6e3ddc28b8b010266",
                                    "value": {
                                        "current": "1103847633",
                                        "prev": "74435",
                                        "typeTag": 1
                                    }
                                },
                                {
                                    "key": "0x581473efa76e547bb9858b2034590b7716a6d27e",
                                    "value": {
                                        "current": "867663074796",
                                        "prev": "868766847994",
                                        "typeTag": 1
                                    }
                                }
                            ],
                            "typeTag": 4
                        }
                    }
                ]
            }
        ]
    }
}