{
    "balance_change": {
        "balanceChanges": [
            {
                "account": "0x1b21bf1fb88ad2bafeeabc4cc0cc12027f909b0d",
                "assets": [
                    {
                        "address": "0xeeeeeeeeeeeeeeeeeeeeeeeeeeeeeeeeeeeeeeee",
                        "amount": "0.043406437495698151",
                        "iconUrl": "https://assets.blocksec.com/image/1663669189317-3.png",
                        "isERC1155": false,
                        "isERC721": false,
                        "sign": true,
                        "value": "123.42080075615550486"
                    },
                    {
                        "address": "0x5dc47070806f94a7444e901322d67495f7174991",
                        "amount": "12,692,664.146164634481133201",
                        "iconUrl": "",
                        "isERC1155": false,
                        "isERC721": false,
                        "sign": false,
                        "value": ""
                    }
                ]
            },
            {
                "account": "0x2c2c82e7caf5f14e4995c366d9db8cdfdf7677e3",
                "assets": [
                    {
                        "address": "0xeeeeeeeeeeeeeeeeeeeeeeeeeeeeeeeeeeeeeeee",
                        "amount": "0.000438448863592911",
                        "iconUrl": "https://assets.blocksec.com/image/1663669189317-3.png",
                        "isERC1155": false,
                        "isERC721": false,
                        "sign": true,
                        "value": "1.2466747550092863947"
                    }
                ]
            },
            {
                "account": "0x9f9b7a30b344f02931d8e997f388026c6d4bfe8d",
                "assets": [
                    {
                        "address": "0xc02aaa39b223fe8d0a0e5c4f27ead9083c756cc2",
                        "amount": "0.043844886359291062",
                        "iconUrl": "https://assets.blocksec.com/icon/f1cb2d02c471d545bbc7722daf3277fd852d98e63d118771af7047bd8256c516.png",
                        "isERC1155": false,
                        "isERC721": false,
                        "sign": false,
                        "value": "124.66747550092863947"
                    },
                    {
                        "address": "0x5dc47070806f94a7444e901322d67495f7174991",
                        "amount": "12,692,664.146164634481133201",
                        "iconUrl": "",
                        "isERC1155": false,
                        "isERC721": false,
                        "sign": true,
                        "value": ""
                    }
                ]
            },
            {
                "account": "0xc02aaa39b223fe8d0a0e5c4f27ead9083c756cc2",
                "assets": [
                    {
                        "address": "0xeeeeeeeeeeeeeeeeeeeeeeeeeeeeeeeeeeeeeeee",
                        "amount": "0.043844886359291062",
                        "iconUrl": "https://assets.blocksec.com/image/1663669189317-3.png",
                        "isERC1155": false,
                        "isERC721": false,
                        "sign": false,
                        "value": "124.66747550092863947"
                    },
                    {
                        "address": "0xc02aaa39b223fe8d0a0e5c4f27ead9083c756cc2",
                        "amount": "0.043844886359291062",
                        "iconUrl": "https://assets.blocksec.com/icon/f1cb2d02c471d545bbc7722daf3277fd852d98e63d118771af7047bd8256c516.png",
                        "isERC1155": false,
                        "isERC721": false,
                        "sign": true,
                        "value": "124.66747550092863947"
                    }
                ]
            }
        ]
    },
    "profile": {
        "basic_info": {
            "baseFee": "19.029819455",
            "blockNumber": 19238170,
            "callData": "0x3c97298c000000000000000000000000000000000000000000000000000000000000012000000000000000000000000000000000000000000000000000000000000001800000000000000000000000001b21bf1fb88ad2bafeeabc4cc0cc12027f909b0d000000000000000000000000000000000000000000000000000000000000000000000000000000000000000000000000000000000000000000000000000000000000000000000000000000000000000000000000000000000000000000000000000000000000000000000000000000000000000000000000000000011f018be6000000000000000000000000000000000000000000000000000000000000000a00000000000000000000000000000000000000000000000000000000000001e000000000000000000000000000000000000000000000000000000000000000020000000000000000000000000000000000000000000a7fc6b3bc7ff16cd90691000000000000000000000000000000000000000000000000000000000000000000000000000000000000000000000000000000000000000000000000000000020000000000000000000000005dc47070806f94a7444e901322d67495f7174991000000000000000000000000c02aaa39b223fe8d0a0e5c4f27ead9083c756cc2000000000000000000000000000000000000000000000000000000000000002438636634336635362d643931372d343062372d623533302d33363765623033653065353400000000000000000000000000000000000000000000000000000000",
            "debugEnable": true,
            "errorInfo": "",
            "eventCount": 7,
            "feeRecipient": "0x95222290dd7278aa3ddd389cc1e1d165cc4bafe5",
            "formatValue": "0",
            "gasLimit": 225007,
            "gasPrice": "22.329861524",
            "gasUsed": 137890,
            "intTxnCount": 13,
            "internalRevert": false,
            "internalRevertMessage": "",
            "isContractCreation": false,
            "isFlashloan": false,
            "maxFee": "26.370042069",
            "nonce": 61,
            "overwritedBlockNumber": -1,
            "priorityFee": "3.300042069",
            "receiver": "0x2c2c82e7caf5f14e4995c366d9db8cdfdf7677e3",
            "revertMessage": "",
            "sender": "0x1b21bf1fb88ad2bafeeabc4cc0cc12027f909b0d",
            "simulationEnable": true,
            "sourceTxnHash": "0x30095716aeda88c5b4b2ff168b195d6a8cfda3ed26a80026946d662fea1a9d35",
            "status": true,
            "timestamp": "2024-02-16T04:44:35Z",
            "transactionFee": "0.00307906460554436",
            "txnHash": "0x30095716aeda88c5b4b2ff168b195d6a8cfda3ed26a80026946d662fea1a9d35",
            "txnIndex": 7,
            "type": 2,
            "value": "0"
        },
        "fund_flow": [
            {
                "amount": "12,692,664.146164634481133201",
                "from": "0x1b21bf1fb88ad2bafeeabc4cc0cc12027f909b0d",
                "id": 1,
                "isERC1155": false,
                "isERC721": false,
                "isReverted": false,
                "order": 1,
                "to": "0x9f9b7a30b344f02931d8e997f388026c6d4bfe8d",
                "token": "0x5dc47070806f94a7444e901322d67495f7174991"
            },
            {
                "amount": "0.043844886359291062",
                "from": "0x9f9b7a30b344f02931d8e997f388026c6d4bfe8d",
                "id": 2,
                "isERC1155": false,
                "isERC721": false,
                "isReverted": false,
                "order": 2,
                "to": "0x2c2c82e7caf5f14e4995c366d9db8cdfdf7677e3",
                "token": "0xc02aaa39b223fe8d0a0e5c4f27ead9083c756cc2"
            },
            {
                "amount": "0.043844886359291062",
                "from": "0xc02aaa39b223fe8d0a0e5c4f27ead9083c756cc2",
                "id": 3,
                "isERC1155": false,
                "isERC721": false,
                "isReverted": false,
                "order": 3,
                "to": "0x2c2c82e7caf5f14e4995c366d9db8cdfdf7677e3",
                "token": "0xeeeeeeeeeeeeeeeeeeeeeeeeeeeeeeeeeeeeeeee"
            },
            {
                "amount": "0.043844886359291062",
                "from": "0x2c2c82e7caf5f14e4995c366d9db8cdfdf7677e3",
                "id": 4,
                "isERC1155": false,
                "isERC721": false,
                "isReverted": false,
                "order": 4,
                "to": "0xc02aaa39b223fe8d0a0e5c4f27ead9083c756cc2",
                "token": "0xc02aaa39b223fe8d0a0e5c4f27ead9083c756cc2"
            },
            {
                "amount": "0.043406437495698151",
                "from": "0x2c2c82e7caf5f14e4995c366d9db8cdfdf7677e3",
                "id": 5,
                "isERC1155": false,
                "isERC721": false,
                "isReverted": false,
                "order": 5,
                "to": "0x1b21bf1fb88ad2bafeeabc4cc0cc12027f909b0d",
                "token": "0xeeeeeeeeeeeeeeeeeeeeeeeeeeeeeeeeeeeeeeee"
            }
        ],
        "token_infos": [
            {
                "address": "0xc02aaa39b223fe8d0a0e5c4f27ead9083c756cc2",
                "decimals": 18
            },
            {
                "address": "0xeeeeeeeeeeeeeeeeeeeeeeeeeeeeeeeeeeeeeeee",
                "decimals": 18
            },
            {
                "address": "0x5dc47070806f94a7444e901322d67495f7174991",
                "decimals": 18
            }
        ]
    },
    "address_label": {
        "labels": [
            {
                "address": "0xeeeeeeeeeeeeeeeeeeeeeeeeeeeeeeeeeeeeeeee",
                "label": "Ether"
            },
            {
                "address": "0x2c2c82e7caf5f14e4995c366d9db8cdfdf7677e3",
                "label": "MEV Bot: 0x2c2...7e3"
            },
            {
                "address": "0x0000000000000000000000000000000000000002",
                "label": "Precompiled"
            },
            {
                "address": "0x0000000000000000000000000000000000000003",
                "label": "Precompiled"
            },
            {
                "address": "0x0000000000000000000000000000000000000004",
                "label": "Precompiled"
            },
            {
                "address": "0xc02aaa39b223fe8d0a0e5c4f27ead9083c756cc2",
                "label": "Wrapped Ether (WETH)"
            },
            {
                "address": "0x9f9b7a30b344f02931d8e997f388026c6d4bfe8d",
                "label": "Uniswap V2: PopGame"
            },
            {
                "address": "0x95222290dd7278aa3ddd389cc1e1d165cc4bafe5",
                "label": "beaverbuild"
            },
            {
                "address": "0x5dc47070806f94a7444e901322d67495f7174991",
                "label": "PopGame"
            },
            {
                "address": "0x0000000000000000000000000000000000000001",
                "label": "Precompiled"
            }
        ]
    },
    "trace": {
        "accountLabels": null,
        "dataMap": {
            "-1": {
                "invocation": {
                    "address": "0x1b21bf1fb88ad2bafeeabc4cc0cc12027f909b0d",
                    "callData": "",
                    "decodedMethod": null,
                    "errorInfo": "",
                    "fromAddress": "",
                    "gasUsed": 0,
                    "id": -1,
                    "methodDecoded": false,
                    "operation": "",
                    "output": "",
                    "revert": false,
                    "revertMessage": "",
                    "selector": "",
                    "status": false,
                    "value": ""
                },
                "nodeType": 0
            },
            "0": {
                "invocation": {
                    "address": "0x2c2c82e7caf5f14e4995c366d9db8cdfdf7677e3",
                    "callData": "0x000000000000000000000000000000000000000000000000000000000000012000000000000000000000000000000000000000000000000000000000000001800000000000000000000000001b21bf1fb88ad2bafeeabc4cc0cc12027f909b0d000000000000000000000000000000000000000000000000000000000000000000000000000000000000000000000000000000000000000000000000000000000000000000000000000000000000000000000000000000000000000000000000000000000000000000000000000000000000000000000000000000011f018be6000000000000000000000000000000000000000000000000000000000000000a00000000000000000000000000000000000000000000000000000000000001e000000000000000000000000000000000000000000000000000000000000000020000000000000000000000000000000000000000000a7fc6b3bc7ff16cd90691000000000000000000000000000000000000000000000000000000000000000000000000000000000000000000000000000000000000000000000000000000020000000000000000000000005dc47070806f94a7444e901322d67495f7174991000000000000000000000000c02aaa39b223fe8d0a0e5c4f27ead9083c756cc2000000000000000000000000000000000000000000000000000000000000002438636634336635362d643931372d343062372d623533302d33363765623033653065353400000000000000000000000000000000000000000000000000000000",
                    "decodedMethod": {
                        "callParams": [
                            {
                                "name": "you",
                                "type": "uint256[]",
                                "value": [
                                    "12,692,664,146,164,634,481,133,201",
                                    "0"
                                ]
                            },
                            {
                                "name": "think",
                                "type": "address[]",
                                "value": [
                                    "0x5dc47070806f94a7444e901322d67495f7174991",
                                    "0xc02aaa39b223fe8d0a0e5c4f27ead9083c756cc2"
                                ]
                            },
                            {
                                "name": "u",
                                "type": "(address,bool,uint256,uint256,uint256,uint256)",
                                "value": [
                                    {
                                        "name": "aa",
                                        "type": "address",
                                        "value": "0x1b21bf1fb88ad2bafeeabc4cc0cc12027f909b0d"
                                    },
                                    {
                                        "name": "bb",
                                        "type": "bool",
                                        "value": false
                                    },
                                    {
                                        "name": "cc",
                                        "type": "uint256",
                                        "value": "0"
                                    },
                                    {
                                        "name": "dd",
                                        "type": "uint256",
                                        "value": "0"
                                    },
                                    {
                                        "name": "ee",
                                        "type": "uint256",
                                        "value": "4,815,162,342"
                                    },
                                    {
                                        "name": "ff",
                                        "type": "uint256",
                                        "value": "10"
                                    }
                                ]
                            },
                            {
                                "name": "knowMev",
                                "type": "string",
                                "value": "8cf43f56-d917-40b7-b530-367eb03e0e54"
                            }
                        ],
                        "constructorArguments": "",
                        "name": "ShurikenSwapMEVFees",
                        "returnParams": [],
                        "signature": "ShurikenSwapMEVFees(uint256[],address[],(address,bool,uint256,uint256,uint256,uint256),string)"
                    },
                    "errorInfo": "",
                    "fromAddress": "0x1b21bf1fb88ad2bafeeabc4cc0cc12027f909b0d",
                    "gasUsed": 137890,
                    "id": 0,
                    "methodDecoded": true,
                    "operation": "CALL",
                    "output": "",
                    "revert": false,
                    "revertMessage": "",
                    "selector": "0x3c97298c",
                    "status": true,
                    "value": "0"
                },
                "nodeType": 0
            },
            "1": {
                "invocation": {
                    "address": "0x9f9b7a30b344f02931d8e997f388026c6d4bfe8d",
                    "callData": "0x",
                    "decodedMethod": {
                        "callParams": [],
                        "constructorArguments": "",
                        "name": "getReserves",
                        "returnParams": [
                            {
                                "name": "_reserve0",
                                "type": "uint112",
                                "value": "770,717,167,634,594,437,456,917,917"
                            },
                            {
                                "name": "_reserve1",
                                "type": "uint112",
                                "value": "2,714,181,649,615,940,302"
                            },
                            {
                                "name": "_blockTimestampLast",
                                "type": "uint32",
                                "value": "1,707,239,975"
                            }
                        ],
                        "signature": "getReserves()"
                    },
                    "errorInfo": "",
                    "fromAddress": "0x2c2c82e7caf5f14e4995c366d9db8cdfdf7677e3",
                    "gasUsed": 2504,
                    "id": 1,
                    "methodDecoded": true,
                    "operation": "STATICCALL",
                    "output": "0x0000000000000000000000000000000000000000027d85b56045cd684f6af59d00000000000000000000000000000000000000000000000025aab5d4793deace0000000000000000000000000000000000000000000000000000000065c26a27",
                    "revert": false,
                    "revertMessage": "",
                    "selector": "0x0902f1ac",
                    "status": true,
                    "value": "0"
                },
                "nodeType": 0
            },
            "10": {
                "invocation": {
                    "address": "0x5dc47070806f94a7444e901322d67495f7174991",
                    "callData": "0x0000000000000000000000009f9b7a30b344f02931d8e997f388026c6d4bfe8d",
                    "decodedMethod": {
                        "callParams": [
                            {
                                "name": "account",
                                "type": "address",
                                "value": "0x9f9b7a30b344f02931d8e997f388026c6d4bfe8d"
                            }
                        ],
                        "constructorArguments": "",
                        "name": "balanceOf",
                        "returnParams": [
                            {
                                "decimalAvailable": true,
                                "name": "",
                                "type": "uint256",
                                "value": "783,409,831,780,759,071,938,051,118"
                            }
                        ],
                        "signature": "balanceOf(address)"
                    },
                    "errorInfo": "",
                    "fromAddress": "0x9f9b7a30b344f02931d8e997f388026c6d4bfe8d",
                    "gasUsed": 575,
                    "id": 10,
                    "methodDecoded": true,
                    "operation": "STATICCALL",
                    "output": "0x00000000000000000000000000000000000000000288057c14024d59bc43fc2e",
                    "revert": false,
                    "revertMessage": "",
                    "selector": "0x70a08231",
                    "status": true,
                    "value": "0"
                },
                "nodeType": 0
            },
            "11": {
                "invocation": {
                    "address": "0xc02aaa39b223fe8d0a0e5c4f27ead9083c756cc2",
                    "callData": "0x0000000000000000000000009f9b7a30b344f02931d8e997f388026c6d4bfe8d",
                    "decodedMethod": {
                        "callParams": [
                            {
                                "name": "",
                                "type": "address",
                                "value": "0x9f9b7a30b344f02931d8e997f388026c6d4bfe8d"
                            }
                        ],
                        "constructorArguments": "",
                        "name": "balanceOf",
                        "returnParams": [
                            {
                                "decimalAvailable": true,
                                "name": "",
                                "type": "uint256",
                                "value": "2,670,336,763,256,649,240"
                            }
                        ],
                        "signature": "balanceOf(address)"
                    },
                    "errorInfo": "",
                    "fromAddress": "0x9f9b7a30b344f02931d8e997f388026c6d4bfe8d",
                    "gasUsed": 534,
                    "id": 11,
                    "methodDecoded": true,
                    "operation": "STATICCALL",
                    "output": "0x000000000000000000000000000000000000000000000000250ef1235c943618",
                    "revert": false,
                    "revertMessage": "",
                    "selector": "0x70a08231",
                    "status": true,
                    "value": "0"
                },
                "nodeType": 0
            },
            "12": {
                "event": {
                    "contract": "0x9f9b7a30b344f02931d8e997f388026c6d4bfe8d",
                    "decodedLog": {
                        "name": "Sync",
                        "params": [
                            {
                                "name": "reserve0",
                                "type": "uint112",
                                "value": "783,409,831,780,759,071,938,051,118"
                            },
                            {
                                "name": "reserve1",
                                "type": "uint112",
                                "value": "2,670,336,763,256,649,240"
                            }
                        ],
                        "signature": "Sync(uint112,uint112)"
                    },
                    "id": 12,
                    "logData": "0x00000000000000000000000000000000000000000288057c14024d59bc43fc2e000000000000000000000000000000000000000000000000250ef1235c943618",
                    "logDecoded": true,
                    "operation": "EVENT",
                    "revert": false,
                    "status": true,
                    "topics": [
                        "0x1c411e9a96e071241c2f21f7726b17ae89e3cab4c78be50e062b03a9fffbbad1"
                    ]
                },
                "nodeType": 1
            },
            "13": {
                "event": {
                    "contract": "0x9f9b7a30b344f02931d8e997f388026c6d4bfe8d",
                    "decodedLog": {
                        "name": "Swap",
                        "params": [
                            {
                                "name": "sender",
                                "type": "address",
                                "value": "0x2c2c82e7caf5f14e4995c366d9db8cdfdf7677e3"
                            },
                            {
                                "name": "to",
                                "type": "address",
                                "value": "0x2c2c82e7caf5f14e4995c366d9db8cdfdf7677e3"
                            },
                            {
                                "name": "amount0In",
                                "type": "uint256",
                                "value": "12,692,664,146,164,634,481,133,201"
                            },
                            {
                                "name": "amount1In",
                                "type": "uint256",
                                "value": "0"
                            },
                            {
                                "name": "amount0Out",
                                "type": "uint256",
                                "value": "0"
                            },
                            {
                                "name": "amount1Out",
                                "type": "uint256",
                                "value": "43,844,886,359,291,062"
                            }
                        ],
                        "signature": "Swap(address,uint256,uint256,uint256,uint256,address)"
                    },
                    "id": 13,
                    "logData": "0x0000000000000000000000000000000000000000000a7fc6b3bc7ff16cd9069100000000000000000000000000000000000000000000000000000000000000000000000000000000000000000000000000000000000000000000000000000000000000000000000000000000000000000000000000000000009bc4b11ca9b4b6",
                    "logDecoded": true,
                    "operation": "EVENT",
                    "revert": false,
                    "status": true,
                    "topics": [
                        "0xd78ad95fa46c994b6551d0da85fc275fe613ce37657fb8d5e3d130840159d822",
                        "0x0000000000000000000000002c2c82e7caf5f14e4995c366d9db8cdfdf7677e3",
                        "0x0000000000000000000000002c2c82e7caf5f14e4995c366d9db8cdfdf7677e3"
                    ]
                },
                "nodeType": 1
            },
            "14": {
                "invocation": {
                    "address": "0xc02aaa39b223fe8d0a0e5c4f27ead9083c756cc2",
                    "callData": "0x0000000000000000000000002c2c82e7caf5f14e4995c366d9db8cdfdf7677e3",
                    "decodedMethod": {
                        "callParams": [
                            {
                                "name": "",
                                "type": "address",
                                "value": "0x2c2c82e7caf5f14e4995c366d9db8cdfdf7677e3"
                            }
                        ],
                        "constructorArguments": "",
                        "name": "balanceOf",
                        "returnParams": [
                            {
                                "decimalAvailable": true,
                                "name": "",
                                "type": "uint256",
                                "value": "43,844,886,359,291,062"
                            }
                        ],
                        "signature": "balanceOf(address)"
                    },
                    "errorInfo": "",
                    "fromAddress": "0x2c2c82e7caf5f14e4995c366d9db8cdfdf7677e3",
                    "gasUsed": 534,
                    "id": 14,
                    "methodDecoded": true,
                    "operation": "STATICCALL",
                    "output": "0x000000000000000000000000000000000000000000000000009bc4b11ca9b4b6",
                    "revert": false,
                    "revertMessage": "",
                    "selector": "0x70a08231",
                    "status": true,
                    "value": "0"
                },
                "nodeType": 0
            },
            "15": {
                "invocation": {
                    "address": "0xc02aaa39b223fe8d0a0e5c4f27ead9083c756cc2",
                    "callData": "0x000000000000000000000000000000000000000000000000009bc4b11ca9b4b6",
                    "decodedMethod": {
                        "callParams": [
                            {
                                "name": "wad",
                                "type": "uint256",
                                "value": "43,844,886,359,291,062"
                            }
                        ],
                        "constructorArguments": "",
                        "name": "withdraw",
                        "returnParams": [],
                        "signature": "withdraw(uint256)"
                    },
                    "errorInfo": "",
                    "fromAddress": "0x2c2c82e7caf5f14e4995c366d9db8cdfdf7677e3",
                    "gasUsed": 9235,
                    "id": 15,
                    "methodDecoded": true,
                    "operation": "CALL",
                    "output": "",
                    "revert": false,
                    "revertMessage": "",
                    "selector": "0x2e1a7d4d",
                    "status": true,
                    "value": "0"
                },
                "nodeType": 0
            },
            "16": {
                "invocation": {
                    "address": "0x2c2c82e7caf5f14e4995c366d9db8cdfdf7677e3",
                    "callData": "0x",
                    "decodedMethod": null,
                    "errorInfo": "",
                    "fromAddress": "0xc02aaa39b223fe8d0a0e5c4f27ead9083c756cc2",
                    "gasUsed": 95,
                    "id": 16,
                    "methodDecoded": false,
                    "operation": "CALL",
                    "output": "",
                    "revert": false,
                    "revertMessage": "",
                    "selector": "fallback",
                    "status": true,
                    "value": "0.043844886359291062"
                },
                "nodeType": 0
            },
            "17": {
                "event": {
                    "contract": "0xc02aaa39b223fe8d0a0e5c4f27ead9083c756cc2",
                    "decodedLog": {
                        "name": "Withdrawal",
                        "params": [
                            {
                                "name": "src",
                                "type": "address",
                                "value": "0x2c2c82e7caf5f14e4995c366d9db8cdfdf7677e3"
                            },
                            {
                                "name": "wad",
                                "type": "uint256",
                                "value": "43,844,886,359,291,062"
                            }
                        ],
                        "signature": "Withdrawal(address,uint256)"
                    },
                    "id": 17,
                    "logData": "0x000000000000000000000000000000000000000000000000009bc4b11ca9b4b6",
                    "logDecoded": true,
                    "operation": "EVENT",
                    "revert": false,
                    "status": true,
                    "topics": [
                        "0x7fcf532c15f0a6db0bd6d0e038bea71d30d808c7d98cb3bf7268a95bf5081b65",
                        "0x0000000000000000000000002c2c82e7caf5f14e4995c366d9db8cdfdf7677e3"
                    ]
                },
                "nodeType": 1
            },
            "18": {
                "invocation": {
                    "address": "0x1b21bf1fb88ad2bafeeabc4cc0cc12027f909b0d",
                    "callData": "0x",
                    "decodedMethod": null,
                    "errorInfo": "",
                    "fromAddress": "0x2c2c82e7caf5f14e4995c366d9db8cdfdf7677e3",
                    "gasUsed": 0,
                    "id": 18,
                    "methodDecoded": false,
                    "operation": "CALL",
                    "output": "",
                    "revert": false,
                    "revertMessage": "",
                    "selector": "fallback",
                    "status": true,
                    "value": "0.043406437495698151"
                },
                "nodeType": 0
            },
            "19": {
                "invocation": {
                    "address": "0x95222290dd7278aa3ddd389cc1e1d165cc4bafe5",
                    "callData": "0x",
                    "decodedMethod": null,
                    "errorInfo": "",
                    "fromAddress": "0x2c2c82e7caf5f14e4995c366d9db8cdfdf7677e3",
                    "gasUsed": 0,
                    "id": 19,
                    "methodDecoded": false,
                    "operation": "CALL",
                    "output": "",
                    "revert": false,
                    "revertMessage": "",
                    "selector": "fallback",
                    "status": true,
                    "value": "0"
                },
                "nodeType": 0
            },
            "2": {
                "invocation": {
                    "address": "0x5dc47070806f94a7444e901322d67495f7174991",
                    "callData": "0x0000000000000000000000001b21bf1fb88ad2bafeeabc4cc0cc12027f909b0d0000000000000000000000009f9b7a30b344f02931d8e997f388026c6d4bfe8d0000000000000000000000000000000000000000000a7fc6b3bc7ff16cd90691",
                    "decodedMethod": {
                        "callParams": [
                            {
                                "name": "sender",
                                "type": "address",
                                "value": "0x1b21bf1fb88ad2bafeeabc4cc0cc12027f909b0d"
                            },
                            {
                                "name": "recipient",
                                "type": "address",
                                "value": "0x9f9b7a30b344f02931d8e997f388026c6d4bfe8d"
                            },
                            {
                                "decimalAvailable": true,
                                "name": "amount",
                                "type": "uint256",
                                "value": "12,692,664,146,164,634,481,133,201"
                            }
                        ],
                        "constructorArguments": "",
                        "name": "transferFrom",
                        "returnParams": [
                            {
                                "name": "",
                                "type": "bool",
                                "value": true
                            }
                        ],
                        "signature": "transferFrom(address,address,uint256)"
                    },
                    "errorInfo": "",
                    "fromAddress": "0x2c2c82e7caf5f14e4995c366d9db8cdfdf7677e3",
                    "gasUsed": 31208,
                    "id": 2,
                    "methodDecoded": true,
                    "operation": "CALL",
                    "output": "0x0000000000000000000000000000000000000000000000000000000000000001",
                    "revert": false,
                    "revertMessage": "",
                    "selector": "0x23b872dd",
                    "status": true,
                    "value": "0"
                },
                "nodeType": 0
            },
            "20": {
                "event": {
                    "contract": "0x2c2c82e7caf5f14e4995c366d9db8cdfdf7677e3",
                    "decodedLog": null,
                    "id": 20,
                    "logData": "0x00000000000000000000000000000000000000000000000000000000000000c00000000000000000000000000000000000000000000a7fc6b3bc7ff16cd90691000000000000000000000000000000000000000000000000009a35ecc7e572e70000000000000000000000000000000000000000000000000000000000000000000000000000000000000000000000000000000000000000000000000000000100000000000000000000000000000000000000000000000000018ec454c441cf000000000000000000000000000000000000000000000000000000000000002438636634336635362d643931372d343062372d623533302d33363765623033653065353400000000000000000000000000000000000000000000000000000000",
                    "logDecoded": false,
                    "operation": "EVENT",
                    "revert": false,
                    "status": true,
                    "topics": [
                        "0x9377d2ca0fa4b8097cf0c9128e900f40fc24811a43eefb75da59072dbbcc8c85"
                    ]
                },
                "nodeType": 1
            },
            "3": {
                "event": {
                    "contract": "0x5dc47070806f94a7444e901322d67495f7174991",
                    "decodedLog": {
                        "name": "Transfer",
                        "params": [
                            {
                                "name": "from",
                                "type": "address",
                                "value": "0x1b21bf1fb88ad2bafeeabc4cc0cc12027f909b0d"
                            },
                            {
                                "name": "to",
                                "type": "address",
                                "value": "0x9f9b7a30b344f02931d8e997f388026c6d4bfe8d"
                            },
                            {
                                "decimalAvailable": true,
                                "name": "value",
                                "type": "uint256",
                                "value": "12,692,664,146,164,634,481,133,201"
                            }
                        ],
                        "signature": "Transfer(address,address,uint256)"
                    },
                    "id": 3,
                    "logData": "0x0000000000000000000000000000000000000000000a7fc6b3bc7ff16cd90691",
                    "logDecoded": true,
                    "operation": "EVENT",
                    "revert": false,
                    "status": true,
                    "topics": [
                        "0xddf252ad1be2c89b69c2b068fc378daa952ba7f163c4a11628f55a4df523b3ef",
                        "0x0000000000000000000000001b21bf1fb88ad2bafeeabc4cc0cc12027f909b0d",
                        "0x0000000000000000000000009f9b7a30b344f02931d8e997f388026c6d4bfe8d"
                    ]
                },
                "nodeType": 1
            },
            "4": {
                "event": {
                    "contract": "0x5dc47070806f94a7444e901322d67495f7174991",
                    "decodedLog": {
                        "name": "Approval",
                        "params": [
                            {
                                "name": "owner",
                                "type": "address",
                                "value": "0x1b21bf1fb88ad2bafeeabc4cc0cc12027f909b0d"
                            },
                            {
                                "name": "spender",
                                "type": "address",
                                "value": "0x2c2c82e7caf5f14e4995c366d9db8cdfdf7677e3"
                            },
                            {
                                "decimalAvailable": true,
                                "name": "value",
                                "type": "uint256",
                                "value": "115,792,089,237,316,195,423,570,985,008,687,907,853,269,984,665,640,551,346,793,437,843,278,648,506,734"
                            }
                        ],
                        "signature": "Approval(address,address,uint256)"
                    },
                    "id": 4,
                    "logData": "0xfffffffffffffffffffffffffffffffffffffffffff580394c43800e9326f96e",
                    "logDecoded": true,
                    "operation": "EVENT",
                    "revert": false,
                    "status": true,
                    "topics": [
                        "0x8c5be1e5ebec7d5bd14f71427d1e84f3dd0314c0f7b2291e5b200ac8c7c3b925",
                        "0x0000000000000000000000001b21bf1fb88ad2bafeeabc4cc0cc12027f909b0d",
                        "0x0000000000000000000000002c2c82e7caf5f14e4995c366d9db8cdfdf7677e3"
                    ]
                },
                "nodeType": 1
            },
            "5": {
                "invocation": {
                    "address": "0x9f9b7a30b344f02931d8e997f388026c6d4bfe8d",
                    "callData": "0x",
                    "decodedMethod": {
                        "callParams": [],
                        "constructorArguments": "",
                        "name": "getReserves",
                        "returnParams": [
                            {
                                "name": "_reserve0",
                                "type": "uint112",
                                "value": "770,717,167,634,594,437,456,917,917"
                            },
                            {
                                "name": "_reserve1",
                                "type": "uint112",
                                "value": "2,714,181,649,615,940,302"
                            },
                            {
                                "name": "_blockTimestampLast",
                                "type": "uint32",
                                "value": "1,707,239,975"
                            }
                        ],
                        "signature": "getReserves()"
                    },
                    "errorInfo": "",
                    "fromAddress": "0x2c2c82e7caf5f14e4995c366d9db8cdfdf7677e3",
                    "gasUsed": 504,
                    "id": 5,
                    "methodDecoded": true,
                    "operation": "STATICCALL",
                    "output": "0x0000000000000000000000000000000000000000027d85b56045cd684f6af59d00000000000000000000000000000000000000000000000025aab5d4793deace0000000000000000000000000000000000000000000000000000000065c26a27",
                    "revert": false,
                    "revertMessage": "",
                    "selector": "0x0902f1ac",
                    "status": true,
                    "value": "0"
                },
                "nodeType": 0
            },
            "6": {
                "invocation": {
                    "address": "0x5dc47070806f94a7444e901322d67495f7174991",
                    "callData": "0x0000000000000000000000009f9b7a30b344f02931d8e997f388026c6d4bfe8d",
                    "decodedMethod": {
                        "callParams": [
                            {
                                "name": "account",
                                "type": "address",
                                "value": "0x9f9b7a30b344f02931d8e997f388026c6d4bfe8d"
                            }
                        ],
                        "constructorArguments": "",
                        "name": "balanceOf",
                        "returnParams": [
                            {
                                "decimalAvailable": true,
                                "name": "",
                                "type": "uint256",
                                "value": "783,409,831,780,759,071,938,051,118"
                            }
                        ],
                        "signature": "balanceOf(address)"
                    },
                    "errorInfo": "",
                    "fromAddress": "0x2c2c82e7caf5f14e4995c366d9db8cdfdf7677e3",
                    "gasUsed": 575,
                    "id": 6,
                    "methodDecoded": true,
                    "operation": "STATICCALL",
                    "output": "0x00000000000000000000000000000000000000000288057c14024d59bc43fc2e",
                    "revert": false,
                    "revertMessage": "",
                    "selector": "0x70a08231",
                    "status": true,
                    "value": "0"
                },
                "nodeType": 0
            },
            "7": {
                "invocation": {
                    "address": "0x9f9b7a30b344f02931d8e997f388026c6d4bfe8d",
                    "callData": "0x0000000000000000000000000000000000000000000000000000000000000000000000000000000000000000000000000000000000000000009bc4b11ca9b4b60000000000000000000000002c2c82e7caf5f14e4995c366d9db8cdfdf7677e300000000000000000000000000000000000000000000000000000000000000800000000000000000000000000000000000000000000000000000000000000000",
                    "decodedMethod": {
                        "callParams": [
                            {
                                "name": "amount0Out",
                                "type": "uint256",
                                "value": "0"
                            },
                            {
                                "name": "amount1Out",
                                "type": "uint256",
                                "value": "43,844,886,359,291,062"
                            },
                            {
                                "name": "to",
                                "type": "address",
                                "value": "0x2c2c82e7caf5f14e4995c366d9db8cdfdf7677e3"
                            },
                            {
                                "name": "data",
                                "type": "bytes",
                                "value": "0x"
                            }
                        ],
                        "constructorArguments": "",
                        "name": "swap",
                        "returnParams": [],
                        "signature": "swap(uint256,uint256,address,bytes)"
                    },
                    "errorInfo": "",
                    "fromAddress": "0x2c2c82e7caf5f14e4995c366d9db8cdfdf7677e3",
                    "gasUsed": 64894,
                    "id": 7,
                    "methodDecoded": true,
                    "operation": "CALL",
                    "output": "",
                    "revert": false,
                    "revertMessage": "",
                    "selector": "0x022c0d9f",
                    "status": true,
                    "value": "0"
                },
                "nodeType": 0
            },
            "8": {
                "invocation": {
                    "address": "0xc02aaa39b223fe8d0a0e5c4f27ead9083c756cc2",
                    "callData": "0x0000000000000000000000002c2c82e7caf5f14e4995c366d9db8cdfdf7677e3000000000000000000000000000000000000000000000000009bc4b11ca9b4b6",
                    "decodedMethod": {
                        "callParams": [
                            {
                                "name": "dst",
                                "type": "address",
                                "value": "0x2c2c82e7caf5f14e4995c366d9db8cdfdf7677e3"
                            },
                            {
                                "decimalAvailable": true,
                                "name": "wad",
                                "type": "uint256",
                                "value": "43,844,886,359,291,062"
                            }
                        ],
                        "constructorArguments": "",
                        "name": "transfer",
                        "returnParams": [
                            {
                                "name": "",
                                "type": "bool",
                                "value": true
                            }
                        ],
                        "signature": "transfer(address,uint256)"
                    },
                    "errorInfo": "",
                    "fromAddress": "0x9f9b7a30b344f02931d8e997f388026c6d4bfe8d",
                    "gasUsed": 29962,
                    "id": 8,
                    "methodDecoded": true,
                    "operation": "CALL",
                    "output": "0x0000000000000000000000000000000000000000000000000000000000000001",
                    "revert": false,
                    "revertMessage": "",
                    "selector": "0xa9059cbb",
                    "status": true,
                    "value": "0"
                },
                "nodeType": 0
            },
            "9": {
                "event": {
                    "contract": "0xc02aaa39b223fe8d0a0e5c4f27ead9083c756cc2",
                    "decodedLog": {
                        "name": "Transfer",
                        "params": [
                            {
                                "name": "src",
                                "type": "address",
                                "value": "0x9f9b7a30b344f02931d8e997f388026c6d4bfe8d"
                            },
                            {
                                "name": "dst",
                                "type": "address",
                                "value": "0x2c2c82e7caf5f14e4995c366d9db8cdfdf7677e3"
                            },
                            {
                                "decimalAvailable": true,
                                "name": "wad",
                                "type": "uint256",
                                "value": "43,844,886,359,291,062"
                            }
                        ],
                        "signature": "Transfer(address,address,uint256)"
                    },
                    "id": 9,
                    "logData": "0x000000000000000000000000000000000000000000000000009bc4b11ca9b4b6",
                    "logDecoded": true,
                    "operation": "EVENT",
                    "revert": false,
                    "status": true,
                    "topics": [
                        "0xddf252ad1be2c89b69c2b068fc378daa952ba7f163c4a11628f55a4df523b3ef",
                        "0x0000000000000000000000009f9b7a30b344f02931d8e997f388026c6d4bfe8d",
                        "0x0000000000000000000000002c2c82e7caf5f14e4995c366d9db8cdfdf7677e3"
                    ]
                },
                "nodeType": 1
            }
        },
        "gasFlame": [
            {
                "children": [
                    {
                        "children": [
                            {
                                "children": [],
                                "depth": 0,
                                "name": "Initial Gas",
                                "value": 24832
                            },
                            {
                                "children": [
                                    {
                                        "children": [],
                                        "depth": 1,
                                        "name": "getReserves",
                                        "value": 2504
                                    },
                                    {
                                        "children": [],
                                        "depth": 1,
                                        "name": "transferFrom",
                                        "value": 31208
                                    },
                                    {
                                        "children": [],
                                        "depth": 1,
                                        "name": "getReserves",
                                        "value": 504
                                    },
                                    {
                                        "children": [],
                                        "depth": 1,
                                        "name": "balanceOf",
                                        "value": 575
                                    },
                                    {
                                        "children": [
                                            {
                                                "children": [],
                                                "depth": 2,
                                                "name": "transfer",
                                                "value": 29962
                                            },
                                            {
                                                "children": [],
                                                "depth": 2,
                                                "name": "balanceOf",
                                                "value": 575
                                            },
                                            {
                                                "children": [],
                                                "depth": 2,
                                                "name": "balanceOf",
                                                "value": 534
                                            }
                                        ],
                                        "depth": 1,
                                        "name": "swap",
                                        "value": 64894
                                    },
                                    {
                                        "children": [],
                                        "depth": 1,
                                        "name": "balanceOf",
                                        "value": 534
                                    },
                                    {
                                        "children": [
                                            {
                                                "children": [],
                                                "depth": 2,
                                                "name": "fallback",
                                                "value": 95
                                            }
                                        ],
                                        "depth": 1,
                                        "name": "withdraw",
                                        "value": 9235
                                    },
                                    {
                                        "children": [],
                                        "depth": 1,
                                        "name": "fallback",
                                        "value": 0
                                    },
                                    {
                                        "children": [],
                                        "depth": 1,
                                        "name": "fallback",
                                        "value": 0
                                    }
                                ],
                                "depth": 0,
                                "name": "Executed Gas",
                                "value": 140558
                            }
                        ],
                        "depth": -1,
                        "name": "Actual Gas Used",
                        "value": 137890
                    },
                    {
                        "children": [],
                        "depth": -1,
                        "name": "Refunded Gas",
                        "value": 27500
                    }
                ],
                "depth": -2,
                "name": "Total Gas",
                "value": 165390
            }
        ],
        "isConfirmed": true,
        "mainTrace": [
            {
                "children": [
                    {
                        "children": [
                            {
                                "children": [],
                                "depth": 1,
                                "id": 1,
                                "order": 1
                            },
                            {
                                "children": [
                                    {
                                        "children": [],
                                        "depth": 2,
                                        "id": 3,
                                        "order": 3
                                    },
                                    {
                                        "children": [],
                                        "depth": 2,
                                        "id": 4,
                                        "order": 4
                                    }
                                ],
                                "depth": 1,
                                "id": 2,
                                "order": 2
                            },
                            {
                                "children": [],
                                "depth": 1,
                                "id": 5,
                                "order": 5
                            },
                            {
                                "children": [],
                                "depth": 1,
                                "id": 6,
                                "order": 6
                            },
                            {
                                "children": [
                                    {
                                        "children": [
                                            {
                                                "children": [],
                                                "depth": 3,
                                                "id": 9,
                                                "order": 9
                                            }
                                        ],
                                        "depth": 2,
                                        "id": 8,
                                        "order": 8
                                    },
                                    {
                                        "children": [],
                                        "depth": 2,
                                        "id": 10,
                                        "order": 10
                                    },
                                    {
                                        "children": [],
                                        "depth": 2,
                                        "id": 11,
                                        "order": 11
                                    },
                                    {
                                        "children": [],
                                        "depth": 2,
                                        "id": 12,
                                        "order": 12
                                    },
                                    {
                                        "children": [],
                                        "depth": 2,
                                        "id": 13,
                                        "order": 13
                                    }
                                ],
                                "depth": 1,
                                "id": 7,
                                "order": 7
                            },
                            {
                                "children": [],
                                "depth": 1,
                                "id": 14,
                                "order": 14
                            },
                            {
                                "children": [
                                    {
                                        "children": [],
                                        "depth": 2,
                                        "id": 16,
                                        "order": 16
                                    },
                                    {
                                        "children": [],
                                        "depth": 2,
                                        "id": 17,
                                        "order": 17
                                    }
                                ],
                                "depth": 1,
                                "id": 15,
                                "order": 15
                            },
                            {
                                "children": [],
                                "depth": 1,
                                "id": 18,
                                "order": 18
                            },
                            {
                                "children": [],
                                "depth": 1,
                                "id": 19,
                                "order": 19
                            },
                            {
                                "children": [],
                                "depth": 1,
                                "id": 20,
                                "order": 20
                            }
                        ],
                        "depth": 0,
                        "id": 0,
                        "order": 0
                    }
                ],
                "depth": -1,
                "id": -1,
                "order": -1
            }
        ],
        "mainTraceNodeCount": 21,
        "parentIdMap": {
            "0": -1,
            "1": 0,
            "10": 7,
            "11": 7,
            "12": 7,
            "13": 7,
            "14": 0,
            "15": 0,
            "16": 15,
            "17": 15,
            "18": 0,
            "19": 0,
            "2": 0,
            "20": 0,
            "3": 2,
            "4": 2,
            "5": 0,
            "6": 0,
            "7": 0,
            "8": 7,
            "9": 8
        },
        "tidyTrace": [
            {
                "children": [
                    {
                        "children": [
                            {
                                "children": [
                                    {
                                        "children": [],
                                        "depth": 2,
                                        "id": 3,
                                        "order": 3
                                    },
                                    {
                                        "children": [],
                                        "depth": 2,
                                        "id": 4,
                                        "order": 4
                                    }
                                ],
                                "depth": 1,
                                "id": 2,
                                "order": 2
                            },
                            {
                                "children": [
                                    {
                                        "children": [
                                            {
                                                "children": [],
                                                "depth": 3,
                                                "id": 9,
                                                "order": 9
                                            }
                                        ],
                                        "depth": 2,
                                        "id": 8,
                                        "order": 8
                                    },
                                    {
                                        "children": [],
                                        "depth": 2,
                                        "id": 12,
                                        "order": 12
                                    },
                                    {
                                        "children": [],
                                        "depth": 2,
                                        "id": 13,
                                        "order": 13
                                    }
                                ],
                                "depth": 1,
                                "id": 7,
                                "order": 7
                            },
                            {
                                "children": [
                                    {
                                        "children": [],
                                        "depth": 2,
                                        "id": 16,
                                        "order": 16
                                    },
                                    {
                                        "children": [],
                                        "depth": 2,
                                        "id": 17,
                                        "order": 17
                                    }
                                ],
                                "depth": 1,
                                "id": 15,
                                "order": 15
                            },
                            {
                                "children": [],
                                "depth": 1,
                                "id": 18,
                                "order": 18
                            },
                            {
                                "children": [],
                                "depth": 1,
                                "id": 19,
                                "order": 19
                            },
                            {
                                "children": [],
                                "depth": 1,
                                "id": 20,
                                "order": 20
                            }
                        ],
                        "depth": 0,
                        "id": 0,
                        "order": 0
                    }
                ],
                "depth": -1,
                "id": -1,
                "order": -1
            }
        ],
        "tidyTraceNodeCount": 15
    },
    "state_change": {
        "stateChanges": [
            {
                "address": "0x5dc47070806f94a7444e901322d67495f7174991",
                "erc": "ERC-20",
                "slots": [
                    {
                        "current": "0x0000000000000000000000000000000000000000000000000000000000000000",
                        "key": "0x4f4fbc4988c6e02bda67717cfbae3fd3a9799d8d6512f85238fc66579a7beb26",
                        "prev": "0x0000000000000000000000000000000000000000000a7fc6b3bc7ff16cd90691"
                    },
                    {
                        "current": "0x00000000000000000000000000000000000000000288057c14024d59bc43fc2e",
                        "key": "0x5db6d141de69efe14728c482953cbaed878f1a44c785f4ac9b577638ab5e24ea",
                        "prev": "0x0000000000000000000000000000000000000000027d85b56045cd684f6af59d"
                    },
                    {
                        "current": "0xfffffffffffffffffffffffffffffffffffffffffff580394c43800e9326f96e",
                        "key": "0x7a6d17c726b461307d5ce6c7076b7a18c13b0f607618abf3930b56235d02f018",
                        "prev": "0xffffffffffffffffffffffffffffffffffffffffffffffffffffffffffffffff"
                    }
                ],
                "storageVariables": [
                    {
                        "name": "_balances",
                        "type": "mapping(address => uint256)",
                        "value": {
                            "pairs": [
                                {
                                    "key": "0x1b21bf1fb88ad2bafeeabc4cc0cc12027f909b0d",
                                    "value": {
                                        "current": "0",
                                        "prev": "12692664146164634481133201",
                                        "typeTag": 1
                                    }
                                },
                                {
                                    "key": "0x9f9b7a30b344f02931d8e997f388026c6d4bfe8d",
                                    "value": {
                                        "current": "783409831780759071938051118",
                                        "prev": "770717167634594437456917917",
                                        "typeTag": 1
                                    }
                                }
                            ],
                            "typeTag": 4
                        }
                    },
                    {
                        "name": "_allowances",
                        "type": "mapping(address => mapping(address => uint256))",
                        "value": {
                            "pairs": [
                                {
                                    "key": "0x1b21bf1fb88ad2bafeeabc4cc0cc12027f909b0d",
                                    "value": {
                                        "pairs": [
                                            {
                                                "key": "0x2c2c82e7caf5f14e4995c366d9db8cdfdf7677e3",
                                                "value": {
                                                    "current": "115792089237316195423570985008687907853269984665640551346793437843278648506734",
                                                    "prev": "115792089237316195423570985008687907853269984665640564039457584007913129639935",
                                                    "typeTag": 1
                                                }
                                            }
                                        ],
                                        "typeTag": 4
                                    }
                                }
                            ],
                            "typeTag": 4
                        }
                    }
                ]
            },
            {
                "address": "0x9f9b7a30b344f02931d8e997f388026c6d4bfe8d",
                "erc": "ERC-20",
                "slots": [
                    {
                        "current": "0x000000000000000000000003bbf1324d0b5d0756dcdc806afaed030590643dfc",
                        "key": "0x000000000000000000000000000000000000000000000000000000000000000a",
                        "prev": "0x000000000000000000000002e8814feb4dc4d986807dea1b2a9521bd9653e3a8"
                    },
                    {
                        "current": "0x65cee833000000000000250ef1235c94361800000288057c14024d59bc43fc2e",
                        "key": "0x0000000000000000000000000000000000000000000000000000000000000008",
                        "prev": "0x65c26a2700000000000025aab5d4793deace0000027d85b56045cd684f6af59d"
                    },
                    {
                        "current": "0x0000000000000000000000000000000000000982bcd79c9627ce48adee602864",
                        "key": "0x0000000000000000000000000000000000000000000000000000000000000009",
                        "prev": "0x00000000000000000000000000000000000008c5c973e3c98131a0f8732140c8"
                    }
                ],
                "storageVariables": [
                    {
                        "name": "price1CumulativeLast",
                        "type": "uint256",
                        "value": {
                            "current": "5457465047560756007164676816912777713548613926396",
                            "prev": "4250372891563864549693676570192122440815721309096",
                            "typeTag": 1
                        }
                    },
                    {
                        "name": "reserve0",
                        "type": "uint112",
                        "value": {
                            "current": "783409831780759071938051118",
                            "prev": "770717167634594437456917917",
                            "typeTag": 1
                        }
                    },
                    {
                        "name": "reserve1",
                        "type": "uint112",
                        "value": {
                            "current": "2670336763256649240",
                            "prev": "2714181649615940302",
                            "typeTag": 1
                        }
                    },
                    {
                        "name": "blockTimestampLast",
                        "type": "uint32",
                        "value": {
                            "current": "1708058675",
                            "prev": "1707239975",
                            "typeTag": 1
                        }
                    },
                    {
                        "name": "price0CumulativeLast",
                        "type": "uint256",
                        "value": {
                            "current": "192899791400076078969524429269092",
                            "prev": "177929571433661080507793719509192",
                            "typeTag": 1
                        }
                    }
                ]
            },
            {
                "address": "0xc02aaa39b223fe8d0a0e5c4f27ead9083c756cc2",
                "erc": "ERC-20",
                "slots": [
                    {
                        "current": "0x000000000000000000000000000000000000000000000000250ef1235c943618",
                        "key": "0x3497768d300f33dc4fd2782f7065dc188b1fd324309b35262279d3bdf55d928e",
                        "prev": "0x00000000000000000000000000000000000000000000000025aab5d4793deace"
                    }
                ],
                "storageVariables": [
                    {
                        "name": "balanceOf",
                        "type": "mapping(address => uint256)",
                        "value": {
                            "pairs": [
                                {
                                    "key": "0x9f9b7a30b344f02931d8e997f388026c6d4bfe8d",
                                    "value": {
                                        "current": "2670336763256649240",
                                        "prev": "2714181649615940302",
                                        "typeTag": 1
                                    }
                                }
                            ],
                            "typeTag": 4
                        }
                    }
                ]
            }
        ]
    }
}