{
    "balance_change": {
        "balanceChanges": [
            {
                "account": "0xb6b161a3237f484f2edeabe020880a1535996361",
                "assets": [
                    {
                        "address": "0xd2bd6415db70a0f0b26c973b15b63bac74f5c9c6",
                        "amount": "463",
                        "iconUrl": "",
                        "isERC1155": false,
                        "isERC721": false,
                        "sign": false,
                        "value": ""
                    }
                ]
            },
            {
                "account": "0x3f872794f7ce7412530899621640f14ce330c4c5",
                "assets": [
                    {
                        "address": "0xd2bd6415db70a0f0b26c973b15b63bac74f5c9c6",
                        "amount": "463",
                        "iconUrl": "",
                        "isERC1155": false,
                        "isERC721": false,
                        "sign": true,
                        "value": ""
                    }
                ]
            }
        ]
    },
    "profile": {
        "basic_info": {
            "baseFee": "",
            "blockNumber": 7928677,
            "callData": "0xa9059cbb0000000000000000000000003f872794f7ce7412530899621640f14ce330c4c5000000000000000000000000000000000000000000000019196a6eebbddc0000",
            "debugEnable": true,
            "errorInfo": "",
            "eventCount": 1,
            "feeRecipient": "0xea674fdde714fd979de3edf0f56aa9716b898ec8",
            "formatValue": "0",
            "gasLimit": 100000,
            "gasPrice": "5",
            "gasUsed": 22475,
            "intTxnCount": 0,
            "internalRevert": false,
            "internalRevertMessage": "",
            "isContractCreation": false,
            "isFlashloan": false,
            "maxFee": "",
            "nonce": 1,
            "overwritedBlockNumber": -1,
            "priorityFee": "",
            "receiver": "0xd2bd6415db70a0f0b26c973b15b63bac74f5c9c6",
            "revertMessage": "",
            "sender": "0xb6b161a3237f484f2edeabe020880a1535996361",
            "simulationEnable": true,
            "sourceTxnHash": "0x30e11f91562dd77529ff50a2f5115a1a7505f1db6d105281b1eff0bea18b07f8",
            "status": true,
            "timestamp": "2019-06-10T03:13:36Z",
            "transactionFee": "0.000112375",
            "txnHash": "0x30e11f91562dd77529ff50a2f5115a1a7505f1db6d105281b1eff0bea18b07f8",
            "txnIndex": 74,
            "type": 0,
            "value": "0"
        },
        "fund_flow": [
            {
                "amount": "463",
                "from": "0xb6b161a3237f484f2edeabe020880a1535996361",
                "id": 1,
                "isERC1155": false,
                "isERC721": false,
                "isReverted": false,
                "order": 1,
                "to": "0x3f872794f7ce7412530899621640f14ce330c4c5",
                "token": "0xd2bd6415db70a0f0b26c973b15b63bac74f5c9c6"
            }
        ],
        "token_infos": [
            {
                "address": "0xc02aaa39b223fe8d0a0e5c4f27ead9083c756cc2",
                "decimals": 18
            },
            {
                "address": "0xd2bd6415db70a0f0b26c973b15b63bac74f5c9c6",
                "decimals": 18
            },
            {
                "address": "0xeeeeeeeeeeeeeeeeeeeeeeeeeeeeeeeeeeeeeeee",
                "decimals": 18
            }
        ]
    },
    "address_label": {
        "labels": [
            {
                "address": "0x0000000000000000000000000000000000000002",
                "label": "Precompiled"
            },
            {
                "address": "0x0000000000000000000000000000000000000003",
                "label": "Precompiled"
            },
            {
                "address": "0x0000000000000000000000000000000000000004",
                "label": "Precompiled"
            },
            {
                "address": "0xeeeeeeeeeeeeeeeeeeeeeeeeeeeeeeeeeeeeeeee",
                "label": "Ether"
            },
            {
                "address": "0xd2bd6415db70a0f0b26c973b15b63bac74f5c9c6",
                "label": "Blockchain To Application (BTA)"
            },
            {
                "address": "0x0000000000000000000000000000000000000001",
                "label": "Precompiled"
            }
        ]
    },
    "trace": {
        "accountLabels": null,
        "dataMap": {
            "-1": {
                "invocation": {
                    "address": "0xb6b161a3237f484f2edeabe020880a1535996361",
                    "callData": "",
                    "decodedMethod": null,
                    "errorInfo": "",
                    "fromAddress": "",
                    "gasUsed": 0,
                    "id": -1,
                    "methodDecoded": false,
                    "operation": "",
                    "output": "",
                    "revert": false,
                    "revertMessage": "",
                    "selector": "",
                    "status": false,
                    "value": ""
                },
                "nodeType": 0
            },
            "0": {
                "invocation": {
                    "address": "0xd2bd6415db70a0f0b26c973b15b63bac74f5c9c6",
                    "callData": "0x0000000000000000000000003f872794f7ce7412530899621640f14ce330c4c5000000000000000000000000000000000000000000000019196a6eebbddc0000",
                    "decodedMethod": {
                        "callParams": [
                            {
                                "name": "_to",
                                "type": "address",
                                "value": "0x3f872794f7ce7412530899621640f14ce330c4c5"
                            },
                            {
                                "decimalAvailable": true,
                                "name": "_value",
                                "type": "uint256",
                                "value": "463,000,000,000,000,000,000"
                            }
                        ],
                        "constructorArguments": "",
                        "name": "transfer",
                        "returnParams": [
                            {
                                "name": "",
                                "type": "bool",
                                "value": true
                            }
                        ],
                        "signature": "transfer(address,uint256)"
                    },
                    "errorInfo": "",
                    "fromAddress": "0xb6b161a3237f484f2edeabe020880a1535996361",
                    "gasUsed": 22475,
                    "id": 0,
                    "methodDecoded": true,
                    "operation": "CALL",
                    "output": "0x0000000000000000000000000000000000000000000000000000000000000001",
                    "revert": false,
                    "revertMessage": "",
                    "selector": "0xa9059cbb",
                    "status": true,
                    "value": "0"
                },
                "nodeType": 0
            },
            "1": {
                "event": {
                    "contract": "0xd2bd6415db70a0f0b26c973b15b63bac74f5c9c6",
                    "decodedLog": {
                        "name": "Transfer",
                        "params": [
                            {
                                "name": "from",
                                "type": "address",
                                "value": "0xb6b161a3237f484f2edeabe020880a1535996361"
                            },
                            {
                                "name": "to",
                                "type": "address",
                                "value": "0x3f872794f7ce7412530899621640f14ce330c4c5"
                            },
                            {
                                "decimalAvailable": true,
                                "name": "value",
                                "type": "uint256",
                                "value": "463,000,000,000,000,000,000"
                            }
                        ],
                        "signature": "Transfer(address,address,uint256)"
                    },
                    "id": 1,
                    "logData": "0x000000000000000000000000000000000000000000000019196a6eebbddc0000",
                    "logDecoded": true,
                    "operation": "EVENT",
                    "revert": false,
                    "status": true,
                    "topics": [
                        "0xddf252ad1be2c89b69c2b068fc378daa952ba7f163c4a11628f55a4df523b3ef",
                        "0x000000000000000000000000b6b161a3237f484f2edeabe020880a1535996361",
                        "0x0000000000000000000000003f872794f7ce7412530899621640f14ce330c4c5"
                    ]
                },
                "nodeType": 1
            }
        },
        "gasFlame": [
            {
                "children": [
                    {
                        "children": [
                            {
                                "children": [],
                                "depth": 0,
                                "name": "Initial Gas",
                                "value": 23256
                            },
                            {
                                "children": [],
                                "depth": 0,
                                "name": "Executed Gas",
                                "value": 14219
                            }
                        ],
                        "depth": -1,
                        "name": "Actual Gas Used",
                        "value": 22475
                    },
                    {
                        "children": [],
                        "depth": -1,
                        "name": "Refunded Gas",
                        "value": 15000
                    }
                ],
                "depth": -2,
                "name": "Total Gas",
                "value": 37475
            }
        ],
        "isConfirmed": true,
        "mainTrace": [
            {
                "children": [
                    {
                        "children": [
                            {
                                "children": [],
                                "depth": 1,
                                "id": 1,
                                "order": 1
                            }
                        ],
                        "depth": 0,
                        "id": 0,
                        "order": 0
                    }
                ],
                "depth": -1,
                "id": -1,
                "order": -1
            }
        ],
        "mainTraceNodeCount": 2,
        "parentIdMap": {
            "0": -1,
            "1": 0
        },
        "tidyTrace": [
            {
                "children": [
                    {
                        "children": [
                            {
                                "children": [],
                                "depth": 1,
                                "id": 1,
                                "order": 1
                            }
                        ],
                        "depth": 0,
                        "id": 0,
                        "order": 0
                    }
                ],
                "depth": -1,
                "id": -1,
                "order": -1
            }
        ],
        "tidyTraceNodeCount": 2
    },
    "state_change": {
        "stateChanges": [
            {
                "address": "0xd2bd6415db70a0f0b26c973b15b63bac74f5c9c6",
                "erc": "ERC-20",
                "slots": [
                    {
                        "current": "0x0000000000000000000000000000000000000000000000000000000000000000",
                        "key": "0x0f626da12476ba2d58ba8e833cd5065839cacd653f137858f2c031b13b66a490",
                        "prev": "0x000000000000000000000000000000000000000000000019196a6eebbddc0000"
                    },
                    {
                        "current": "0x000000000000000000000000000000000000000000024d567234ed65a6258000",
                        "key": "0x419ac67fcbf5486aed921e874e2eaa900f801a69bcc8b5d231a8cf4a6af05a81",
                        "prev": "0x000000000000000000000000000000000000000000024d3d58ca7e79e8498000"
                    }
                ],
                "storageVariables": [
                    {
                        "name": "balances",
                        "type": "mapping(address => uint256)",
                        "value": {
                            "pairs": [
                                {
                                    "key": "0x3f872794f7ce7412530899621640f14ce330c4c5",
                                    "value": {
                                        "current": "2783068507864000000000000",
                                        "prev": "2782605507864000000000000",
                                        "typeTag": 1
                                    }
                                },
                                {
                                    "key": "0xb6b161a3237f484f2edeabe020880a1535996361",
                                    "value": {
                                        "current": "0",
                                        "prev": "463000000000000000000",
                                        "typeTag": 1
                                    }
                                }
                            ],
                            "typeTag": 4
                        }
                    }
                ]
            }
        ]
    }
}