{
    "balance_change": {
        "balanceChanges": [
            {
                "account": "0xf029e28af49a42098a97b6f46d16069cc4a95df5",
                "assets": [
                    {
                        "address": "0xec67005c4e498ec7f55e092bd1d35cbc47c91892",
                        "amount": "3.747529787049202662",
                        "iconUrl": "https://assets.blocksec.com/icon/8b3fdf7e60447c11ecc30d9502d46243d1c5d0ddefb271de3dd34adc61181d26.png",
                        "isERC1155": false,
                        "isERC721": false,
                        "sign": false,
                        "value": "106.4457689"
                    }
                ]
            },
            {
                "account": "0x7dca00d3f5f5f74a547817c74e52d206668b4bb2",
                "assets": [
                    {
                        "address": "0xec67005c4e498ec7f55e092bd1d35cbc47c91892",
                        "amount": "3.747529787049202662",
                        "iconUrl": "https://assets.blocksec.com/icon/8b3fdf7e60447c11ecc30d9502d46243d1c5d0ddefb271de3dd34adc61181d26.png",
                        "isERC1155": false,
                        "isERC721": false,
                        "sign": true,
                        "value": "106.4457689"
                    }
                ]
            }
        ]
    },
    "profile": {
        "basic_info": {
            "baseFee": "",
            "blockNumber": 11394324,
            "callData": "0xa9059cbb0000000000000000000000007dca00d3f5f5f74a547817c74e52d206668b4bb20000000000000000000000000000000000000000000000003401e67c6e4353e6",
            "debugEnable": true,
            "errorInfo": "",
            "eventCount": 1,
            "feeRecipient": "0xd224ca0c819e8e97ba0136b3b95ceff503b79f53",
            "formatValue": "0",
            "gasLimit": 61427,
            "gasPrice": "20",
            "gasUsed": 36189,
            "intTxnCount": 0,
            "internalRevert": false,
            "internalRevertMessage": "",
            "isContractCreation": false,
            "isFlashloan": false,
            "maxFee": "",
            "nonce": 11,
            "overwritedBlockNumber": -1,
            "priorityFee": "",
            "receiver": "0xec67005c4e498ec7f55e092bd1d35cbc47c91892",
            "revertMessage": "",
            "sender": "0xf029e28af49a42098a97b6f46d16069cc4a95df5",
            "simulationEnable": true,
            "sourceTxnHash": "0x30e9b6e519fa114a131983b8dce178f5d5e3b812ce3472e2fc72dbec9043cc9c",
            "status": true,
            "timestamp": "2020-12-05T18:42:37Z",
            "transactionFee": "0.00072378",
            "txnHash": "0x30e9b6e519fa114a131983b8dce178f5d5e3b812ce3472e2fc72dbec9043cc9c",
            "txnIndex": 146,
            "type": 0,
            "value": "0"
        },
        "fund_flow": [
            {
                "amount": "3.747529787049202662",
                "from": "0xf029e28af49a42098a97b6f46d16069cc4a95df5",
                "id": 1,
                "isERC1155": false,
                "isERC721": false,
                "isReverted": false,
                "order": 1,
                "to": "0x7dca00d3f5f5f74a547817c74e52d206668b4bb2",
                "token": "0xec67005c4e498ec7f55e092bd1d35cbc47c91892"
            }
        ],
        "token_infos": [
            {
                "address": "0xec67005c4e498ec7f55e092bd1d35cbc47c91892",
                "decimals": 18
            },
            {
                "address": "0xeeeeeeeeeeeeeeeeeeeeeeeeeeeeeeeeeeeeeeee",
                "decimals": 18
            },
            {
                "address": "0xc02aaa39b223fe8d0a0e5c4f27ead9083c756cc2",
                "decimals": 18
            }
        ]
    },
    "address_label": {
        "labels": [
            {
                "address": "0xeeeeeeeeeeeeeeeeeeeeeeeeeeeeeeeeeeeeeeee",
                "label": "Ether"
            },
            {
                "address": "0xec67005c4e498ec7f55e092bd1d35cbc47c91892",
                "label": "Enzyme Finance: MLN Token"
            },
            {
                "address": "0x0000000000000000000000000000000000000001",
                "label": "Precompiled"
            },
            {
                "address": "0x0000000000000000000000000000000000000002",
                "label": "Precompiled"
            },
            {
                "address": "0x0000000000000000000000000000000000000003",
                "label": "Precompiled"
            },
            {
                "address": "0x0000000000000000000000000000000000000004",
                "label": "Precompiled"
            }
        ]
    },
    "trace": {
        "accountLabels": null,
        "dataMap": {
            "-1": {
                "invocation": {
                    "address": "0xf029e28af49a42098a97b6f46d16069cc4a95df5",
                    "callData": "",
                    "decodedMethod": null,
                    "errorInfo": "",
                    "fromAddress": "",
                    "gasUsed": 0,
                    "id": -1,
                    "methodDecoded": false,
                    "operation": "",
                    "output": "",
                    "revert": false,
                    "revertMessage": "",
                    "selector": "",
                    "status": false,
                    "value": ""
                },
                "nodeType": 0
            },
            "0": {
                "invocation": {
                    "address": "0xec67005c4e498ec7f55e092bd1d35cbc47c91892",
                    "callData": "0x0000000000000000000000007dca00d3f5f5f74a547817c74e52d206668b4bb20000000000000000000000000000000000000000000000003401e67c6e4353e6",
                    "decodedMethod": {
                        "callParams": [
                            {
                                "name": "to",
                                "type": "address",
                                "value": "0x7dca00d3f5f5f74a547817c74e52d206668b4bb2"
                            },
                            {
                                "decimalAvailable": true,
                                "name": "value",
                                "type": "uint256",
                                "value": "3,747,529,787,049,202,662"
                            }
                        ],
                        "constructorArguments": "",
                        "name": "transfer",
                        "returnParams": [
                            {
                                "name": "",
                                "type": "bool",
                                "value": true
                            }
                        ],
                        "signature": "transfer(address,uint256)"
                    },
                    "errorInfo": "",
                    "fromAddress": "0xf029e28af49a42098a97b6f46d16069cc4a95df5",
                    "gasUsed": 36189,
                    "id": 0,
                    "methodDecoded": true,
                    "operation": "CALL",
                    "output": "0x0000000000000000000000000000000000000000000000000000000000000001",
                    "revert": false,
                    "revertMessage": "",
                    "selector": "0xa9059cbb",
                    "status": true,
                    "value": "0"
                },
                "nodeType": 0
            },
            "1": {
                "event": {
                    "contract": "0xec67005c4e498ec7f55e092bd1d35cbc47c91892",
                    "decodedLog": {
                        "name": "Transfer",
                        "params": [
                            {
                                "name": "from",
                                "type": "address",
                                "value": "0xf029e28af49a42098a97b6f46d16069cc4a95df5"
                            },
                            {
                                "name": "to",
                                "type": "address",
                                "value": "0x7dca00d3f5f5f74a547817c74e52d206668b4bb2"
                            },
                            {
                                "decimalAvailable": true,
                                "name": "value",
                                "type": "uint256",
                                "value": "3,747,529,787,049,202,662"
                            }
                        ],
                        "signature": "Transfer(address,address,uint256)"
                    },
                    "id": 1,
                    "logData": "0x0000000000000000000000000000000000000000000000003401e67c6e4353e6",
                    "logDecoded": true,
                    "operation": "EVENT",
                    "revert": false,
                    "status": true,
                    "topics": [
                        "0xddf252ad1be2c89b69c2b068fc378daa952ba7f163c4a11628f55a4df523b3ef",
                        "0x000000000000000000000000f029e28af49a42098a97b6f46d16069cc4a95df5",
                        "0x0000000000000000000000007dca00d3f5f5f74a547817c74e52d206668b4bb2"
                    ]
                },
                "nodeType": 1
            }
        },
        "gasFlame": [
            {
                "children": [
                    {
                        "children": [
                            {
                                "children": [],
                                "depth": 0,
                                "name": "Initial Gas",
                                "value": 21644
                            },
                            {
                                "children": [],
                                "depth": 0,
                                "name": "Executed Gas",
                                "value": 29545
                            }
                        ],
                        "depth": -1,
                        "name": "Actual Gas Used",
                        "value": 36189
                    },
                    {
                        "children": [],
                        "depth": -1,
                        "name": "Refunded Gas",
                        "value": 15000
                    }
                ],
                "depth": -2,
                "name": "Total Gas",
                "value": 51189
            }
        ],
        "isConfirmed": true,
        "mainTrace": [
            {
                "children": [
                    {
                        "children": [
                            {
                                "children": [],
                                "depth": 1,
                                "id": 1,
                                "order": 1
                            }
                        ],
                        "depth": 0,
                        "id": 0,
                        "order": 0
                    }
                ],
                "depth": -1,
                "id": -1,
                "order": -1
            }
        ],
        "mainTraceNodeCount": 2,
        "parentIdMap": {
            "0": -1,
            "1": 0
        },
        "tidyTrace": [
            {
                "children": [
                    {
                        "children": [
                            {
                                "children": [],
                                "depth": 1,
                                "id": 1,
                                "order": 1
                            }
                        ],
                        "depth": 0,
                        "id": 0,
                        "order": 0
                    }
                ],
                "depth": -1,
                "id": -1,
                "order": -1
            }
        ],
        "tidyTraceNodeCount": 2
    },
    "state_change": {
        "stateChanges": [
            {
                "address": "0xec67005c4e498ec7f55e092bd1d35cbc47c91892",
                "erc": "ERC-20",
                "slots": [
                    {
                        "current": "0x0000000000000000000000000000000000000000000000000000000000000000",
                        "key": "0x507411b5717805344c247bb299663c37d7ec563194647e9fa50bc862fcdafaee",
                        "prev": "0x0000000000000000000000000000000000000000000000003401e67c6e4353e6"
                    },
                    {
                        "current": "0x0000000000000000000000000000000000000000000000003401e67c6e4353e6",
                        "key": "0x2a49504c3e4286acfcd92c720abd543c2b3ccf2c5b1f4fad01ae01a02b6c0aa9",
                        "prev": "0x0000000000000000000000000000000000000000000000000000000000000000"
                    }
                ],
                "storageVariables": [
                    {
                        "name": "_balances",
                        "type": "mapping(address => uint256)",
                        "value": {
                            "pairs": [
                                {
                                    "key": "0x7dca00d3f5f5f74a547817c74e52d206668b4bb2",
                                    "value": {
                                        "current": "3747529787049202662",
                                        "prev": "0",
                                        "typeTag": 1
                                    }
                                },
                                {
                                    "key": "0xf029e28af49a42098a97b6f46d16069cc4a95df5",
                                    "value": {
                                        "current": "0",
                                        "prev": "3747529787049202662",
                                        "typeTag": 1
                                    }
                                }
                            ],
                            "typeTag": 4
                        }
                    }
                ]
            }
        ]
    }
}