{
    "balance_change": {
        "balanceChanges": [
            {
                "account": "0x0c2e9000838e163f6cc23669d394afc884239555",
                "assets": [
                    {
                        "address": "0x3495ffcee09012ab7d827abf3e3b3ae428a38443",
                        "amount": "90.9165",
                        "iconUrl": "",
                        "isERC1155": false,
                        "isERC721": false,
                        "sign": false,
                        "value": ""
                    }
                ]
            },
            {
                "account": "0xa66a6c51c0a4306bcd571ff9289bb42400941be3",
                "assets": [
                    {
                        "address": "0x3495ffcee09012ab7d827abf3e3b3ae428a38443",
                        "amount": "90.9165",
                        "iconUrl": "",
                        "isERC1155": false,
                        "isERC721": false,
                        "sign": true,
                        "value": ""
                    }
                ]
            }
        ]
    },
    "profile": {
        "basic_info": {
            "baseFee": "",
            "blockNumber": 6150369,
            "callData": "0xa9059cbb000000000000000000000000a66a6c51c0a4306bcd571ff9289bb42400941be3000000000000000000000000000000000000000000000004edb84b0dc1cd4000",
            "debugEnable": true,
            "errorInfo": "",
            "eventCount": 1,
            "feeRecipient": "0xea674fdde714fd979de3edf0f56aa9716b898ec8",
            "formatValue": "0",
            "gasLimit": 37415,
            "gasPrice": "4",
            "gasUsed": 22415,
            "intTxnCount": 0,
            "internalRevert": false,
            "internalRevertMessage": "",
            "isContractCreation": false,
            "isFlashloan": false,
            "maxFee": "",
            "nonce": 2,
            "overwritedBlockNumber": -1,
            "priorityFee": "",
            "receiver": "0x3495ffcee09012ab7d827abf3e3b3ae428a38443",
            "revertMessage": "",
            "sender": "0x0c2e9000838e163f6cc23669d394afc884239555",
            "simulationEnable": true,
            "sourceTxnHash": "0x302d6be27598beee13767dd51b7f583888b1e66de9b7cacf774fb5c98bbdd941",
            "status": true,
            "timestamp": "2018-08-15T06:28:42Z",
            "transactionFee": "0.00008966",
            "txnHash": "0x302d6be27598beee13767dd51b7f583888b1e66de9b7cacf774fb5c98bbdd941",
            "txnIndex": 136,
            "type": 0,
            "value": "0"
        },
        "fund_flow": [
            {
                "amount": "90.9165",
                "from": "0x0c2e9000838e163f6cc23669d394afc884239555",
                "id": 1,
                "isERC1155": false,
                "isERC721": false,
                "isReverted": false,
                "order": 1,
                "to": "0xa66a6c51c0a4306bcd571ff9289bb42400941be3",
                "token": "0x3495ffcee09012ab7d827abf3e3b3ae428a38443"
            }
        ],
        "token_infos": [
            {
                "address": "0xeeeeeeeeeeeeeeeeeeeeeeeeeeeeeeeeeeeeeeee",
                "decimals": 18
            },
            {
                "address": "0x3495ffcee09012ab7d827abf3e3b3ae428a38443",
                "decimals": 18
            },
            {
                "address": "0xc02aaa39b223fe8d0a0e5c4f27ead9083c756cc2",
                "decimals": 18
            }
        ]
    },
    "address_label": {
        "labels": [
            {
                "address": "0xeeeeeeeeeeeeeeeeeeeeeeeeeeeeeeeeeeeeeeee",
                "label": "Ether"
            },
            {
                "address": "0x3495ffcee09012ab7d827abf3e3b3ae428a38443",
                "label": "BeautyChain (BEC)"
            },
            {
                "address": "0x0000000000000000000000000000000000000001",
                "label": "Precompiled"
            },
            {
                "address": "0x0000000000000000000000000000000000000002",
                "label": "Precompiled"
            },
            {
                "address": "0x0000000000000000000000000000000000000003",
                "label": "Precompiled"
            },
            {
                "address": "0x0000000000000000000000000000000000000004",
                "label": "Precompiled"
            }
        ]
    },
    "trace": {
        "accountLabels": null,
        "dataMap": {
            "-1": {
                "invocation": {
                    "address": "0x0c2e9000838e163f6cc23669d394afc884239555",
                    "callData": "",
                    "decodedMethod": null,
                    "errorInfo": "",
                    "fromAddress": "",
                    "gasUsed": 0,
                    "id": -1,
                    "methodDecoded": false,
                    "operation": "",
                    "output": "",
                    "revert": false,
                    "revertMessage": "",
                    "selector": "",
                    "status": false,
                    "value": ""
                },
                "nodeType": 0
            },
            "0": {
                "invocation": {
                    "address": "0x3495ffcee09012ab7d827abf3e3b3ae428a38443",
                    "callData": "0x000000000000000000000000a66a6c51c0a4306bcd571ff9289bb42400941be3000000000000000000000000000000000000000000000004edb84b0dc1cd4000",
                    "decodedMethod": {
                        "callParams": [
                            {
                                "name": "_to",
                                "type": "address",
                                "value": "0xa66a6c51c0a4306bcd571ff9289bb42400941be3"
                            },
                            {
                                "decimalAvailable": true,
                                "name": "_value",
                                "type": "uint256",
                                "value": "90,916,500,000,000,000,000"
                            }
                        ],
                        "constructorArguments": "",
                        "name": "transfer",
                        "returnParams": [
                            {
                                "name": "",
                                "type": "bool",
                                "value": true
                            }
                        ],
                        "signature": "transfer(address,uint256)"
                    },
                    "errorInfo": "",
                    "fromAddress": "0x0c2e9000838e163f6cc23669d394afc884239555",
                    "gasUsed": 22415,
                    "id": 0,
                    "methodDecoded": true,
                    "operation": "CALL",
                    "output": "0x0000000000000000000000000000000000000000000000000000000000000001",
                    "revert": false,
                    "revertMessage": "",
                    "selector": "0xa9059cbb",
                    "status": true,
                    "value": "0"
                },
                "nodeType": 0
            },
            "1": {
                "event": {
                    "contract": "0x3495ffcee09012ab7d827abf3e3b3ae428a38443",
                    "decodedLog": {
                        "name": "Transfer",
                        "params": [
                            {
                                "name": "from",
                                "type": "address",
                                "value": "0x0c2e9000838e163f6cc23669d394afc884239555"
                            },
                            {
                                "name": "to",
                                "type": "address",
                                "value": "0xa66a6c51c0a4306bcd571ff9289bb42400941be3"
                            },
                            {
                                "decimalAvailable": true,
                                "name": "value",
                                "type": "uint256",
                                "value": "90,916,500,000,000,000,000"
                            }
                        ],
                        "signature": "Transfer(address,address,uint256)"
                    },
                    "id": 1,
                    "logData": "0x000000000000000000000000000000000000000000000004edb84b0dc1cd4000",
                    "logDecoded": true,
                    "operation": "EVENT",
                    "revert": false,
                    "status": true,
                    "topics": [
                        "0xddf252ad1be2c89b69c2b068fc378daa952ba7f163c4a11628f55a4df523b3ef",
                        "0x0000000000000000000000000c2e9000838e163f6cc23669d394afc884239555",
                        "0x000000000000000000000000a66a6c51c0a4306bcd571ff9289bb42400941be3"
                    ]
                },
                "nodeType": 1
            }
        },
        "gasFlame": [
            {
                "children": [
                    {
                        "children": [
                            {
                                "children": [],
                                "depth": 0,
                                "name": "Initial Gas",
                                "value": 23256
                            },
                            {
                                "children": [],
                                "depth": 0,
                                "name": "Executed Gas",
                                "value": 14159
                            }
                        ],
                        "depth": -1,
                        "name": "Actual Gas Used",
                        "value": 22415
                    },
                    {
                        "children": [],
                        "depth": -1,
                        "name": "Refunded Gas",
                        "value": 15000
                    }
                ],
                "depth": -2,
                "name": "Total Gas",
                "value": 37415
            }
        ],
        "isConfirmed": true,
        "mainTrace": [
            {
                "children": [
                    {
                        "children": [
                            {
                                "children": [],
                                "depth": 1,
                                "id": 1,
                                "order": 1
                            }
                        ],
                        "depth": 0,
                        "id": 0,
                        "order": 0
                    }
                ],
                "depth": -1,
                "id": -1,
                "order": -1
            }
        ],
        "mainTraceNodeCount": 2,
        "parentIdMap": {
            "0": -1,
            "1": 0
        },
        "tidyTrace": [
            {
                "children": [
                    {
                        "children": [
                            {
                                "children": [],
                                "depth": 1,
                                "id": 1,
                                "order": 1
                            }
                        ],
                        "depth": 0,
                        "id": 0,
                        "order": 0
                    }
                ],
                "depth": -1,
                "id": -1,
                "order": -1
            }
        ],
        "tidyTraceNodeCount": 2
    },
    "state_change": {
        "stateChanges": [
            {
                "address": "0x3495ffcee09012ab7d827abf3e3b3ae428a38443",
                "erc": "ERC-20",
                "slots": [
                    {
                        "current": "0x000000000000000000000000000000000000000000000004f6bd8e9c21ce4000",
                        "key": "0x4ae031eff5872413bdabb5e1528ad15155848acba328408130733b0d40dd64b4",
                        "prev": "0x0000000000000000000000000000000000000000000000000905438e60010000"
                    },
                    {
                        "current": "0x0000000000000000000000000000000000000000000000000000000000000000",
                        "key": "0x7f2dbe1ff24a0701289a1f353399c3410e056f77a6d694e9c19a4b44804d5f3b",
                        "prev": "0x000000000000000000000000000000000000000000000004edb84b0dc1cd4000"
                    }
                ],
                "storageVariables": [
                    {
                        "name": "balances",
                        "type": "mapping(address => uint256)",
                        "value": {
                            "pairs": [
                                {
                                    "key": "0x0c2e9000838e163f6cc23669d394afc884239555",
                                    "value": {
                                        "current": "0",
                                        "prev": "90916500000000000000",
                                        "typeTag": 1
                                    }
                                },
                                {
                                    "key": "0xa66a6c51c0a4306bcd571ff9289bb42400941be3",
                                    "value": {
                                        "current": "91566500000000000000",
                                        "prev": "650000000000000000",
                                        "typeTag": 1
                                    }
                                }
                            ],
                            "typeTag": 4
                        }
                    }
                ]
            }
        ]
    }
}