{
    "balance_change": {
        "balanceChanges": [
            {
                "account": "0xccf43dcc4e52e0216e461955bd98b08da53213ea",
                "assets": [
                    {
                        "address": "0x21cd69abe5608ae4639d326b653cb7da59f72d14",
                        "amount": "1",
                        "iconUrl": "",
                        "isERC1155": false,
                        "isERC721": true,
                        "sign": false,
                        "tokenID": "1",
                        "value": ""
                    }
                ]
            },
            {
                "account": "0xe71ead0d2dad19910687a00ececf549901dec9a3",
                "assets": [
                    {
                        "address": "0x21cd69abe5608ae4639d326b653cb7da59f72d14",
                        "amount": "1",
                        "iconUrl": "",
                        "isERC1155": false,
                        "isERC721": true,
                        "sign": true,
                        "tokenID": "1",
                        "value": ""
                    }
                ]
            }
        ]
    },
    "profile": {
        "basic_info": {
            "baseFee": "69.742286208",
            "blockNumber": 13915671,
            "callData": "0x23b872dd000000000000000000000000ccf43dcc4e52e0216e461955bd98b08da53213ea000000000000000000000000e71ead0d2dad19910687a00ececf549901dec9a30000000000000000000000000000000000000000000000000000000000000001",
            "debugEnable": true,
            "errorInfo": "",
            "eventCount": 1,
            "feeRecipient": "0x7f101fe45e6649a6fb8f3f8b43ed03d353f2b90c",
            "formatValue": "0",
            "gasLimit": 118092,
            "gasPrice": "71.242286208",
            "gasUsed": 103692,
            "intTxnCount": 0,
            "internalRevert": false,
            "internalRevertMessage": "",
            "isContractCreation": false,
            "isFlashloan": false,
            "maxFee": "95.818997574",
            "nonce": 1064,
            "overwritedBlockNumber": -1,
            "priorityFee": "1.5",
            "receiver": "0x21cd69abe5608ae4639d326b653cb7da59f72d14",
            "revertMessage": "",
            "sender": "0xccf43dcc4e52e0216e461955bd98b08da53213ea",
            "simulationEnable": true,
            "sourceTxnHash": "0x31394626f976d4a8b9347bf80ac9765111bd97af458d4f2523e30a1fcf1ec8ab",
            "status": true,
            "timestamp": "2021-12-31T22:08:51Z",
            "transactionFee": "0.007387255141479936",
            "txnHash": "0x31394626f976d4a8b9347bf80ac9765111bd97af458d4f2523e30a1fcf1ec8ab",
            "txnIndex": 44,
            "type": 2,
            "value": "0"
        },
        "fund_flow": [
            {
                "amount": "1",
                "from": "0xccf43dcc4e52e0216e461955bd98b08da53213ea",
                "id": 1,
                "isERC1155": false,
                "isERC721": true,
                "isReverted": false,
                "order": 1,
                "to": "0xe71ead0d2dad19910687a00ececf549901dec9a3",
                "token": "0x21cd69abe5608ae4639d326b653cb7da59f72d14",
                "tokenID": "1"
            }
        ],
        "token_infos": [
            {
                "address": "0xc02aaa39b223fe8d0a0e5c4f27ead9083c756cc2",
                "decimals": 18
            },
            {
                "address": "0xeeeeeeeeeeeeeeeeeeeeeeeeeeeeeeeeeeeeeeee",
                "decimals": 18
            }
        ]
    },
    "address_label": {
        "labels": [
            {
                "address": "0x21cd69abe5608ae4639d326b653cb7da59f72d14",
                "label": "OpenSeaAsset"
            },
            {
                "address": "0x0000000000000000000000000000000000000001",
                "label": "Precompiled"
            },
            {
                "address": "0x0000000000000000000000000000000000000002",
                "label": "Precompiled"
            },
            {
                "address": "0x0000000000000000000000000000000000000003",
                "label": "Precompiled"
            },
            {
                "address": "0x0000000000000000000000000000000000000004",
                "label": "Precompiled"
            },
            {
                "address": "0xeeeeeeeeeeeeeeeeeeeeeeeeeeeeeeeeeeeeeeee",
                "label": "Ether"
            }
        ]
    },
    "trace": {
        "accountLabels": null,
        "dataMap": {
            "-1": {
                "invocation": {
                    "address": "0xccf43dcc4e52e0216e461955bd98b08da53213ea",
                    "callData": "",
                    "decodedMethod": null,
                    "errorInfo": "",
                    "fromAddress": "",
                    "gasUsed": 0,
                    "id": -1,
                    "methodDecoded": false,
                    "operation": "",
                    "output": "",
                    "revert": false,
                    "revertMessage": "",
                    "selector": "",
                    "status": false,
                    "value": ""
                },
                "nodeType": 0
            },
            "0": {
                "invocation": {
                    "address": "0x21cd69abe5608ae4639d326b653cb7da59f72d14",
                    "callData": "0x000000000000000000000000ccf43dcc4e52e0216e461955bd98b08da53213ea000000000000000000000000e71ead0d2dad19910687a00ececf549901dec9a30000000000000000000000000000000000000000000000000000000000000001",
                    "decodedMethod": {
                        "callParams": [
                            {
                                "name": "from",
                                "type": "address",
                                "value": "0xccf43dcc4e52e0216e461955bd98b08da53213ea"
                            },
                            {
                                "name": "to",
                                "type": "address",
                                "value": "0xe71ead0d2dad19910687a00ececf549901dec9a3"
                            },
                            {
                                "decimalAvailable": true,
                                "name": "tokenId",
                                "type": "uint256",
                                "value": "1"
                            }
                        ],
                        "constructorArguments": "",
                        "name": "transferFrom",
                        "returnParams": [],
                        "signature": "transferFrom(address,address,uint256)"
                    },
                    "errorInfo": "",
                    "fromAddress": "0xccf43dcc4e52e0216e461955bd98b08da53213ea",
                    "gasUsed": 103692,
                    "id": 0,
                    "methodDecoded": true,
                    "operation": "CALL",
                    "output": "",
                    "revert": false,
                    "revertMessage": "",
                    "selector": "0x23b872dd",
                    "status": true,
                    "value": "0"
                },
                "nodeType": 0
            },
            "1": {
                "event": {
                    "contract": "0x21cd69abe5608ae4639d326b653cb7da59f72d14",
                    "decodedLog": {
                        "name": "Transfer",
                        "params": [
                            {
                                "name": "from",
                                "type": "address",
                                "value": "0xccf43dcc4e52e0216e461955bd98b08da53213ea"
                            },
                            {
                                "name": "to",
                                "type": "address",
                                "value": "0xe71ead0d2dad19910687a00ececf549901dec9a3"
                            },
                            {
                                "decimalAvailable": true,
                                "name": "tokenId",
                                "type": "uint256",
                                "value": "1"
                            }
                        ],
                        "signature": "Transfer(address,address,uint256)"
                    },
                    "id": 1,
                    "logData": "0x",
                    "logDecoded": true,
                    "operation": "EVENT",
                    "revert": false,
                    "status": true,
                    "topics": [
                        "0xddf252ad1be2c89b69c2b068fc378daa952ba7f163c4a11628f55a4df523b3ef",
                        "0x000000000000000000000000ccf43dcc4e52e0216e461955bd98b08da53213ea",
                        "0x000000000000000000000000e71ead0d2dad19910687a00ececf549901dec9a3",
                        "0x0000000000000000000000000000000000000000000000000000000000000001"
                    ]
                },
                "nodeType": 1
            }
        },
        "gasFlame": [
            {
                "children": [
                    {
                        "children": [
                            {
                                "children": [],
                                "depth": 0,
                                "name": "Initial Gas",
                                "value": 21940
                            },
                            {
                                "children": [],
                                "depth": 0,
                                "name": "Executed Gas",
                                "value": 96152
                            }
                        ],
                        "depth": -1,
                        "name": "Actual Gas Used",
                        "value": 103692
                    },
                    {
                        "children": [],
                        "depth": -1,
                        "name": "Refunded Gas",
                        "value": 14400
                    }
                ],
                "depth": -2,
                "name": "Total Gas",
                "value": 118092
            }
        ],
        "isConfirmed": true,
        "mainTrace": [
            {
                "children": [
                    {
                        "children": [
                            {
                                "children": [],
                                "depth": 1,
                                "id": 1,
                                "order": 1
                            }
                        ],
                        "depth": 0,
                        "id": 0,
                        "order": 0
                    }
                ],
                "depth": -1,
                "id": -1,
                "order": -1
            }
        ],
        "mainTraceNodeCount": 2,
        "parentIdMap": {
            "0": -1,
            "1": 0
        },
        "tidyTrace": [
            {
                "children": [
                    {
                        "children": [
                            {
                                "children": [],
                                "depth": 1,
                                "id": 1,
                                "order": 1
                            }
                        ],
                        "depth": 0,
                        "id": 0,
                        "order": 0
                    }
                ],
                "depth": -1,
                "id": -1,
                "order": -1
            }
        ],
        "tidyTraceNodeCount": 2
    },
    "state_change": {
        "stateChanges": [
            {
                "address": "0x21cd69abe5608ae4639d326b653cb7da59f72d14",
                "erc": "ERC-721",
                "slots": [
                    {
                        "current": "0x000000000000000000000000e71ead0d2dad19910687a00ececf549901dec9a3",
                        "key": "0xcc69885fda6bcc1a4ace058b4a62bf5e179ea78fd58a1ccd71c22cc9b688792f",
                        "prev": "0x000000000000000000000000ccf43dcc4e52e0216e461955bd98b08da53213ea"
                    },
                    {
                        "current": "0x0000000000000000000000000000000000000000000000000000000000000000",
                        "key": "0xe1e15b9a80894589c6fd1a405d3a74c66f3500f2df4796355d4325e2d2a55498",
                        "prev": "0x0000000000000000000000000000000000000000000000000000000000000001"
                    },
                    {
                        "current": "0x0000000000000000000000000000000000000000000000000000000000000000",
                        "key": "0xdcf098c55e844691aac5d2a3bad556c26dd4bb74e5f7df6d06e5051b9d76612a",
                        "prev": "0x0000000000000000000000000000000000000000000000000000000000000001"
                    },
                    {
                        "current": "0x0000000000000000000000000000000000000000000000000000000000000001",
                        "key": "0xe4062c8d9561e794b6328b8e2ea0d1c15aeb01a8c1e95e32f7ea54a83cad8d29",
                        "prev": "0x0000000000000000000000000000000000000000000000000000000000000000"
                    },
                    {
                        "current": "0x0000000000000000000000000000000000000000000000000000000000000001",
                        "key": "0x765aa327a372904f5fc12a4ac040664ea23e3d14e446b65a31d198d37993c275",
                        "prev": "0x0000000000000000000000000000000000000000000000000000000000000000"
                    },
                    {
                        "current": "0x0000000000000000000000000000000000000000000000000000000000000000",
                        "key": "0xb895fc41c5e9e49bf5f36789beb6f8a2a079154fb881f3ce6baade7fb4cdf70c",
                        "prev": "0x0000000000000000000000000000000000000000000000000000000000000001"
                    },
                    {
                        "current": "0x0000000000000000000000000000000000000000000000000000000000000001",
                        "key": "0x9431c2cb6457cdc0c31c7c8f55a000ba2bf6a26996d73e2604eb6ff0ef588b80",
                        "prev": "0x0000000000000000000000000000000000000000000000000000000000000000"
                    }
                ],
                "storageVariables": [
                    {
                        "name": "_ownedTokensCount",
                        "type": "mapping(address => struct Counters.Counter)",
                        "value": {
                            "pairs": [
                                {
                                    "key": "0xccf43dcc4e52e0216e461955bd98b08da53213ea",
                                    "value": {
                                        "fields": [
                                            {
                                                "name": "_value",
                                                "type": "uint256",
                                                "value": {
                                                    "current": "0",
                                                    "prev": "1",
                                                    "typeTag": 1
                                                }
                                            }
                                        ],
                                        "typeTag": 3
                                    }
                                },
                                {
                                    "key": "0xe71ead0d2dad19910687a00ececf549901dec9a3",
                                    "value": {
                                        "fields": [
                                            {
                                                "name": "_value",
                                                "type": "uint256",
                                                "value": {
                                                    "current": "1",
                                                    "prev": "0",
                                                    "typeTag": 1
                                                }
                                            }
                                        ],
                                        "typeTag": 3
                                    }
                                }
                            ],
                            "typeTag": 4
                        }
                    },
                    {
                        "name": "_tokenOwner",
                        "type": "mapping(uint256 => address)",
                        "value": {
                            "pairs": [
                                {
                                    "key": "1",
                                    "value": {
                                        "current": "0xe71ead0d2dad19910687a00ececf549901dec9a3",
                                        "prev": "0xccf43dcc4e52e0216e461955bd98b08da53213ea",
                                        "typeTag": 1
                                    }
                                }
                            ],
                            "typeTag": 4
                        }
                    },
                    {
                        "name": "_ownedTokens",
                        "type": "mapping(address => uint256[])",
                        "value": {
                            "pairs": [
                                {
                                    "key": "0xe71ead0d2dad19910687a00ececf549901dec9a3",
                                    "value": {
                                        "elemType": "uint256",
                                        "elems": [
                                            {
                                                "index": 0,
                                                "value": {
                                                    "current": "1",
                                                    "prev": "0",
                                                    "typeTag": 1
                                                }
                                            }
                                        ],
                                        "typeTag": 2
                                    }
                                }
                            ],
                            "typeTag": 4
                        }
                    }
                ]
            }
        ]
    }
}