{
    "balance_change": {
        "balanceChanges": []
    },
    "profile": {
        "basic_info": {
            "baseFee": "",
            "blockNumber": 3942853,
            "callData": "0xa9059cbb00000000000000000000000095092b7acbd2c07409ca07432974b801bc948f21000000000000000000000000000000000000000000000504c7923004b5d00000",
            "debugEnable": true,
            "errorInfo": "out of gas",
            "eventCount": 0,
            "feeRecipient": "0xb2930b35844a230f00e51431acae96fe543a0347",
            "formatValue": "0",
            "gasLimit": 60000,
            "gasPrice": "35.082752902",
            "gasUsed": 60000,
            "intTxnCount": 1,
            "internalRevert": true,
            "internalRevertMessage": "",
            "isContractCreation": false,
            "isFlashloan": false,
            "maxFee": "",
            "nonce": 9,
            "overwritedBlockNumber": -1,
            "priorityFee": "",
            "receiver": "0x744d70fdbe2ba4cf95131626614a1763df805b9e",
            "revertMessage": "",
            "sender": "0x64fe3d560e381c262e6269a30ee562f682867550",
            "simulationEnable": true,
            "sourceTxnHash": "0x31c00df03f39dc195b02f360154d1db34aed8395c085007168f5922c15b56b4f",
            "status": false,
            "timestamp": "2017-06-28T13:11:40Z",
            "transactionFee": "0.00210496517412",
            "txnHash": "0x31c00df03f39dc195b02f360154d1db34aed8395c085007168f5922c15b56b4f",
            "txnIndex": 64,
            "type": 0,
            "value": "0"
        },
        "fund_flow": [],
        "token_infos": [
            {
                "address": "0xeeeeeeeeeeeeeeeeeeeeeeeeeeeeeeeeeeeeeeee",
                "decimals": 18
            },
            {
                "address": "0xc02aaa39b223fe8d0a0e5c4f27ead9083c756cc2",
                "decimals": 18
            }
        ]
    },
    "address_label": {
        "labels": [
            {
                "address": "0x0000000000000000000000000000000000000002",
                "label": "Precompiled"
            },
            {
                "address": "0x0000000000000000000000000000000000000003",
                "label": "Precompiled"
            },
            {
                "address": "0x0000000000000000000000000000000000000004",
                "label": "Precompiled"
            },
            {
                "address": "0xeeeeeeeeeeeeeeeeeeeeeeeeeeeeeeeeeeeeeeee",
                "label": "Ether"
            },
            {
                "address": "0x52ae2b53c847327f95a5084a7c38c0adb12fd302",
                "label": "SNTPlaceHolder"
            },
            {
                "address": "0x744d70fdbe2ba4cf95131626614a1763df805b9e",
                "label": "Status Network: SNT Token"
            },
            {
                "address": "0x0000000000000000000000000000000000000001",
                "label": "Precompiled"
            }
        ]
    },
    "trace": {
        "accountLabels": null,
        "dataMap": {
            "-1": {
                "invocation": {
                    "address": "0x64fe3d560e381c262e6269a30ee562f682867550",
                    "callData": "",
                    "decodedMethod": null,
                    "errorInfo": "",
                    "fromAddress": "",
                    "gasUsed": 0,
                    "id": -1,
                    "methodDecoded": false,
                    "operation": "",
                    "output": "",
                    "revert": false,
                    "revertMessage": "",
                    "selector": "",
                    "status": false,
                    "value": ""
                },
                "nodeType": 0
            },
            "0": {
                "invocation": {
                    "address": "0x744d70fdbe2ba4cf95131626614a1763df805b9e",
                    "callData": "0x00000000000000000000000095092b7acbd2c07409ca07432974b801bc948f21000000000000000000000000000000000000000000000504c7923004b5d00000",
                    "decodedMethod": {
                        "callParams": [
                            {
                                "name": "_to",
                                "type": "address",
                                "value": "0x95092b7acbd2c07409ca07432974b801bc948f21"
                            },
                            {
                                "decimalAvailable": true,
                                "name": "_amount",
                                "type": "uint256",
                                "value": "23,700,000,000,000,000,000,000"
                            }
                        ],
                        "constructorArguments": "",
                        "name": "transfer",
                        "returnParams": [],
                        "signature": "transfer(address,uint256)"
                    },
                    "errorInfo": "out of gas",
                    "fromAddress": "0x64fe3d560e381c262e6269a30ee562f682867550",
                    "gasUsed": 60000,
                    "id": 0,
                    "methodDecoded": true,
                    "operation": "CALL",
                    "output": "",
                    "revert": true,
                    "revertMessage": "",
                    "selector": "0xa9059cbb",
                    "status": false,
                    "value": "0"
                },
                "nodeType": 0
            },
            "1": {
                "invocation": {
                    "address": "0x52ae2b53c847327f95a5084a7c38c0adb12fd302",
                    "callData": "0x00000000000000000000000064fe3d560e381c262e6269a30ee562f68286755000000000000000000000000095092b7acbd2c07409ca07432974b801bc948f21000000000000000000000000000000000000000000000504c7923004b5d00000",
                    "decodedMethod": {
                        "callParams": [
                            {
                                "name": "_from",
                                "type": "address",
                                "value": "0x64fe3d560e381c262e6269a30ee562f682867550"
                            },
                            {
                                "name": "",
                                "type": "address",
                                "value": "0x95092b7acbd2c07409ca07432974b801bc948f21"
                            },
                            {
                                "name": "",
                                "type": "uint256",
                                "value": "23,700,000,000,000,000,000,000"
                            }
                        ],
                        "constructorArguments": "",
                        "name": "onTransfer",
                        "returnParams": [
                            {
                                "name": "",
                                "type": "bool",
                                "value": true
                            }
                        ],
                        "signature": "onTransfer(address,address,uint256)"
                    },
                    "errorInfo": "",
                    "fromAddress": "0x744d70fdbe2ba4cf95131626614a1763df805b9e",
                    "gasUsed": 869,
                    "id": 1,
                    "methodDecoded": true,
                    "operation": "CALL",
                    "output": "0x0000000000000000000000000000000000000000000000000000000000000001",
                    "revert": true,
                    "revertMessage": "",
                    "selector": "0x4a393149",
                    "status": true,
                    "value": "0"
                },
                "nodeType": 0
            }
        },
        "gasFlame": [
            {
                "children": [
                    {
                        "children": [
                            {
                                "children": [],
                                "depth": 0,
                                "name": "Initial Gas",
                                "value": 23320
                            },
                            {
                                "children": [
                                    {
                                        "children": [],
                                        "depth": 1,
                                        "name": "onTransfer",
                                        "value": 869
                                    }
                                ],
                                "depth": 0,
                                "name": "Executed Gas",
                                "value": 36680
                            }
                        ],
                        "depth": -1,
                        "name": "Actual Gas Used",
                        "value": 60000
                    },
                    {
                        "children": [],
                        "depth": -1,
                        "name": "Refunded Gas",
                        "value": 0
                    }
                ],
                "depth": -2,
                "name": "Total Gas",
                "value": 60000
            }
        ],
        "isConfirmed": true,
        "mainTrace": [
            {
                "children": [
                    {
                        "children": [
                            {
                                "children": [],
                                "depth": 1,
                                "id": 1,
                                "order": 1
                            }
                        ],
                        "depth": 0,
                        "id": 0,
                        "order": 0
                    }
                ],
                "depth": -1,
                "id": -1,
                "order": -1
            }
        ],
        "mainTraceNodeCount": 2,
        "parentIdMap": {
            "0": -1,
            "1": 0
        },
        "tidyTrace": [
            {
                "children": [
                    {
                        "children": [
                            {
                                "children": [],
                                "depth": 1,
                                "id": 1,
                                "order": 1
                            }
                        ],
                        "depth": 0,
                        "id": 0,
                        "order": 0
                    }
                ],
                "depth": -1,
                "id": -1,
                "order": -1
            }
        ],
        "tidyTraceNodeCount": 2
    },
    "state_change": {
        "stateChanges": []
    }
}