{
    "balance_change": {
        "balanceChanges": []
    },
    "profile": {
        "basic_info": {
            "baseFee": "",
            "blockNumber": 9852630,
            "callData": "0x272f3c5500000000000000000000000089d24a6b4ccb1b6faa2625fe562bdd9a232603590000000000000000000000000000000000000000000000000000000000000d850000000000000000000000000000000000000000000000000000000000000000",
            "debugEnable": true,
            "errorInfo": "",
            "eventCount": 0,
            "feeRecipient": "0x5a0b54d5dc17e0aadc383d2db43b0a0d3e029c4c",
            "formatValue": "0",
            "gasLimit": 70000,
            "gasPrice": "1",
            "gasUsed": 32528,
            "intTxnCount": 1,
            "internalRevert": false,
            "internalRevertMessage": "",
            "isContractCreation": false,
            "isFlashloan": false,
            "maxFee": "",
            "nonce": 2714,
            "overwritedBlockNumber": -1,
            "priorityFee": "",
            "receiver": "0x47903b455904ba07bebfd68af9dc5d36b921c88a",
            "revertMessage": "",
            "sender": "0x2470dcaed6417706d79d511f76f78a8ea1dbb54d",
            "simulationEnable": true,
            "sourceTxnHash": "0x312511006a7351919b96aa43b9b2c2939e2af67af8361f4242f51203925361fd",
            "status": true,
            "timestamp": "2020-04-11T18:36:17Z",
            "transactionFee": "0.000032528",
            "txnHash": "0x312511006a7351919b96aa43b9b2c2939e2af67af8361f4242f51203925361fd",
            "txnIndex": 10,
            "type": 0,
            "value": "0"
        },
        "fund_flow": [],
        "token_infos": [
            {
                "address": "0xc02aaa39b223fe8d0a0e5c4f27ead9083c756cc2",
                "decimals": 18
            },
            {
                "address": "0xeeeeeeeeeeeeeeeeeeeeeeeeeeeeeeeeeeeeeeee",
                "decimals": 18
            }
        ]
    },
    "address_label": {
        "labels": [
            {
                "address": "0x0000000000000000000000000000000000000003",
                "label": "Precompiled"
            },
            {
                "address": "0x0000000000000000000000000000000000000004",
                "label": "Precompiled"
            },
            {
                "address": "0xeeeeeeeeeeeeeeeeeeeeeeeeeeeeeeeeeeeeeeee",
                "label": "Ether"
            },
            {
                "address": "0x0000000000000000000000000000000000000001",
                "label": "Precompiled"
            },
            {
                "address": "0x0000000000000000000000000000000000000002",
                "label": "Precompiled"
            }
        ]
    },
    "trace": {
        "accountLabels": null,
        "dataMap": {
            "-1": {
                "invocation": {
                    "address": "0x2470dcaed6417706d79d511f76f78a8ea1dbb54d",
                    "callData": "",
                    "decodedMethod": null,
                    "errorInfo": "",
                    "fromAddress": "",
                    "gasUsed": 0,
                    "id": -1,
                    "methodDecoded": false,
                    "operation": "",
                    "output": "",
                    "revert": false,
                    "revertMessage": "",
                    "selector": "",
                    "status": false,
                    "value": ""
                },
                "nodeType": 0
            },
            "0": {
                "invocation": {
                    "address": "0x47903b455904ba07bebfd68af9dc5d36b921c88a",
                    "callData": "0x00000000000000000000000089d24a6b4ccb1b6faa2625fe562bdd9a232603590000000000000000000000000000000000000000000000000000000000000d850000000000000000000000000000000000000000000000000000000000000000",
                    "decodedMethod": null,
                    "errorInfo": "",
                    "fromAddress": "0x2470dcaed6417706d79d511f76f78a8ea1dbb54d",
                    "gasUsed": 32528,
                    "id": 0,
                    "methodDecoded": false,
                    "operation": "CALL",
                    "output": "",
                    "revert": false,
                    "revertMessage": "",
                    "selector": "0x272f3c55",
                    "status": true,
                    "value": "0"
                },
                "nodeType": 0
            },
            "1": {
                "invocation": {
                    "address": "0x5193e33f843012c27c502550fa77a543e48187f0",
                    "callData": "0x0000000000000000000000002470dcaed6417706d79d511f76f78a8ea1dbb54d",
                    "decodedMethod": {
                        "callParams": [
                            {
                                "name": "",
                                "type": "address",
                                "value": "0x2470dcaed6417706d79d511f76f78a8ea1dbb54d"
                            }
                        ],
                        "constructorArguments": "",
                        "name": "operators",
                        "returnParams": [
                            {
                                "name": "",
                                "type": "bool",
                                "value": true
                            }
                        ],
                        "signature": "operators(address)"
                    },
                    "errorInfo": "",
                    "fromAddress": "0x47903b455904ba07bebfd68af9dc5d36b921c88a",
                    "gasUsed": 1132,
                    "id": 1,
                    "methodDecoded": true,
                    "operation": "CALL",
                    "output": "0x0000000000000000000000000000000000000000000000000000000000000001",
                    "revert": false,
                    "revertMessage": "",
                    "selector": "0x13e7c9d8",
                    "status": true,
                    "value": "0"
                },
                "nodeType": 0
            }
        },
        "gasFlame": [
            {
                "children": [
                    {
                        "children": [
                            {
                                "children": [],
                                "depth": 0,
                                "name": "Initial Gas",
                                "value": 21712
                            },
                            {
                                "children": [
                                    {
                                        "children": [],
                                        "depth": 1,
                                        "name": "operators",
                                        "value": 1132
                                    }
                                ],
                                "depth": 0,
                                "name": "Executed Gas",
                                "value": 10816
                            }
                        ],
                        "depth": -1,
                        "name": "Actual Gas Used",
                        "value": 32528
                    },
                    {
                        "children": [],
                        "depth": -1,
                        "name": "Refunded Gas",
                        "value": 0
                    }
                ],
                "depth": -2,
                "name": "Total Gas",
                "value": 32528
            }
        ],
        "isConfirmed": true,
        "mainTrace": [
            {
                "children": [
                    {
                        "children": [
                            {
                                "children": [],
                                "depth": 1,
                                "id": 1,
                                "order": 1
                            }
                        ],
                        "depth": 0,
                        "id": 0,
                        "order": 0
                    }
                ],
                "depth": -1,
                "id": -1,
                "order": -1
            }
        ],
        "mainTraceNodeCount": 2,
        "parentIdMap": {
            "0": -1,
            "1": 0
        },
        "tidyTrace": [
            {
                "children": [
                    {
                        "children": [
                            {
                                "children": [],
                                "depth": 1,
                                "id": 1,
                                "order": 1
                            }
                        ],
                        "depth": 0,
                        "id": 0,
                        "order": 0
                    }
                ],
                "depth": -1,
                "id": -1,
                "order": -1
            }
        ],
        "tidyTraceNodeCount": 2
    },
    "state_change": {
        "stateChanges": [
            {
                "address": "0x47903b455904ba07bebfd68af9dc5d36b921c88a",
                "erc": "",
                "slots": [
                    {
                        "current": "0x0000000000000000000000000000000000000000000000000000000000000d85",
                        "key": "0xa3839e5141e7d3662961344234968b772a15f281c711faf031faea6603751298",
                        "prev": "0x0000000000000000000000000000000000000000000000000000000000000b0c"
                    }
                ],
                "storageVariables": []
            }
        ]
    }
}