{
    "balance_change": {
        "balanceChanges": [
            {
                "account": "0x71767fd5a9d3cd56076ac3770bb21f036f919560",
                "assets": [
                    {
                        "address": "0xb17e7e102e219450c2413a668e8f7ccad52deb3a",
                        "amount": "56.5007",
                        "iconUrl": "",
                        "isERC1155": false,
                        "isERC721": false,
                        "sign": false,
                        "value": ""
                    }
                ]
            },
            {
                "account": "0xa0ac43f54c015290bae7e5904452c136c2571d16",
                "assets": [
                    {
                        "address": "0xb17e7e102e219450c2413a668e8f7ccad52deb3a",
                        "amount": "56.5007",
                        "iconUrl": "",
                        "isERC1155": false,
                        "isERC721": false,
                        "sign": true,
                        "value": ""
                    }
                ]
            }
        ]
    },
    "profile": {
        "basic_info": {
            "baseFee": "",
            "blockNumber": 8128158,
            "callData": "0xa9059cbb000000000000000000000000a0ac43f54c015290bae7e5904452c136c2571d160000000000000000000000000000000000000000000000000000000150c539f0",
            "debugEnable": true,
            "errorInfo": "",
            "eventCount": 2,
            "feeRecipient": "0x829bd824b016326a401d083b33d092293333a830",
            "formatValue": "0",
            "gasLimit": 38097,
            "gasPrice": "3.3",
            "gasUsed": 38096,
            "intTxnCount": 0,
            "internalRevert": false,
            "internalRevertMessage": "",
            "isContractCreation": false,
            "isFlashloan": false,
            "maxFee": "",
            "nonce": 16290,
            "overwritedBlockNumber": -1,
            "priorityFee": "",
            "receiver": "0xb17e7e102e219450c2413a668e8f7ccad52deb3a",
            "revertMessage": "",
            "sender": "0x71767fd5a9d3cd56076ac3770bb21f036f919560",
            "simulationEnable": true,
            "sourceTxnHash": "0x313e578c7c55f202d75c7f800d97471fd54bc40ac3ffc4d8b3b3e896af609312",
            "status": true,
            "timestamp": "2019-07-11T05:45:08Z",
            "transactionFee": "0.0001257168",
            "txnHash": "0x313e578c7c55f202d75c7f800d97471fd54bc40ac3ffc4d8b3b3e896af609312",
            "txnIndex": 167,
            "type": 0,
            "value": "0"
        },
        "fund_flow": [
            {
                "amount": "56.5007",
                "from": "0x71767fd5a9d3cd56076ac3770bb21f036f919560",
                "id": 1,
                "isERC1155": false,
                "isERC721": false,
                "isReverted": false,
                "order": 1,
                "to": "0xa0ac43f54c015290bae7e5904452c136c2571d16",
                "token": "0xb17e7e102e219450c2413a668e8f7ccad52deb3a"
            }
        ],
        "token_infos": [
            {
                "address": "0xb17e7e102e219450c2413a668e8f7ccad52deb3a",
                "decimals": 8
            },
            {
                "address": "0xc02aaa39b223fe8d0a0e5c4f27ead9083c756cc2",
                "decimals": 18
            },
            {
                "address": "0xeeeeeeeeeeeeeeeeeeeeeeeeeeeeeeeeeeeeeeee",
                "decimals": 18
            }
        ]
    },
    "address_label": {
        "labels": [
            {
                "address": "0xeeeeeeeeeeeeeeeeeeeeeeeeeeeeeeeeeeeeeeee",
                "label": "Ether"
            },
            {
                "address": "0xb17e7e102e219450c2413a668e8f7ccad52deb3a",
                "label": "Yun Planet (YUN3)"
            },
            {
                "address": "0x0000000000000000000000000000000000000001",
                "label": "Precompiled"
            },
            {
                "address": "0x0000000000000000000000000000000000000002",
                "label": "Precompiled"
            },
            {
                "address": "0x0000000000000000000000000000000000000003",
                "label": "Precompiled"
            },
            {
                "address": "0x0000000000000000000000000000000000000004",
                "label": "Precompiled"
            }
        ]
    },
    "trace": {
        "accountLabels": null,
        "dataMap": {
            "-1": {
                "invocation": {
                    "address": "0x71767fd5a9d3cd56076ac3770bb21f036f919560",
                    "callData": "",
                    "decodedMethod": null,
                    "errorInfo": "",
                    "fromAddress": "",
                    "gasUsed": 0,
                    "id": -1,
                    "methodDecoded": false,
                    "operation": "",
                    "output": "",
                    "revert": false,
                    "revertMessage": "",
                    "selector": "",
                    "status": false,
                    "value": ""
                },
                "nodeType": 0
            },
            "0": {
                "invocation": {
                    "address": "0xb17e7e102e219450c2413a668e8f7ccad52deb3a",
                    "callData": "0x000000000000000000000000a0ac43f54c015290bae7e5904452c136c2571d160000000000000000000000000000000000000000000000000000000150c539f0",
                    "decodedMethod": {
                        "callParams": [
                            {
                                "name": "_to",
                                "type": "address",
                                "value": "0xa0ac43f54c015290bae7e5904452c136c2571d16"
                            },
                            {
                                "decimalAvailable": true,
                                "name": "_value",
                                "type": "uint256",
                                "value": "5,650,070,000"
                            }
                        ],
                        "constructorArguments": "",
                        "name": "transfer",
                        "returnParams": [],
                        "signature": "transfer(address,uint256)"
                    },
                    "errorInfo": "",
                    "fromAddress": "0x71767fd5a9d3cd56076ac3770bb21f036f919560",
                    "gasUsed": 38096,
                    "id": 0,
                    "methodDecoded": true,
                    "operation": "CALL",
                    "output": "",
                    "revert": false,
                    "revertMessage": "",
                    "selector": "0xa9059cbb",
                    "status": true,
                    "value": "0"
                },
                "nodeType": 0
            },
            "1": {
                "event": {
                    "contract": "0xb17e7e102e219450c2413a668e8f7ccad52deb3a",
                    "decodedLog": {
                        "name": "Transfer",
                        "params": [
                            {
                                "name": "from",
                                "type": "address",
                                "value": "0x71767fd5a9d3cd56076ac3770bb21f036f919560"
                            },
                            {
                                "name": "to",
                                "type": "address",
                                "value": "0xa0ac43f54c015290bae7e5904452c136c2571d16"
                            },
                            {
                                "decimalAvailable": true,
                                "name": "value",
                                "type": "uint256",
                                "value": "5,650,070,000"
                            }
                        ],
                        "signature": "Transfer(address,address,uint256)"
                    },
                    "id": 1,
                    "logData": "0x0000000000000000000000000000000000000000000000000000000150c539f0",
                    "logDecoded": true,
                    "operation": "EVENT",
                    "revert": false,
                    "status": true,
                    "topics": [
                        "0xddf252ad1be2c89b69c2b068fc378daa952ba7f163c4a11628f55a4df523b3ef",
                        "0x00000000000000000000000071767fd5a9d3cd56076ac3770bb21f036f919560",
                        "0x000000000000000000000000a0ac43f54c015290bae7e5904452c136c2571d16"
                    ]
                },
                "nodeType": 1
            },
            "2": {
                "event": {
                    "contract": "0xb17e7e102e219450c2413a668e8f7ccad52deb3a",
                    "decodedLog": {
                        "name": "mylog",
                        "params": [
                            {
                                "name": "code",
                                "type": "uint256",
                                "value": "0"
                            }
                        ],
                        "signature": "mylog(uint256)"
                    },
                    "id": 2,
                    "logData": "0x0000000000000000000000000000000000000000000000000000000000000000",
                    "logDecoded": true,
                    "operation": "EVENT",
                    "revert": false,
                    "status": true,
                    "topics": [
                        "0x67631d1bdda6fede513a18dab2d7282eb1233c8a01cd01f9580aa9543dd82b32"
                    ]
                },
                "nodeType": 1
            }
        },
        "gasFlame": [
            {
                "children": [
                    {
                        "children": [
                            {
                                "children": [],
                                "depth": 0,
                                "name": "Initial Gas",
                                "value": 23128
                            },
                            {
                                "children": [],
                                "depth": 0,
                                "name": "Executed Gas",
                                "value": 14968
                            }
                        ],
                        "depth": -1,
                        "name": "Actual Gas Used",
                        "value": 38096
                    },
                    {
                        "children": [],
                        "depth": -1,
                        "name": "Refunded Gas",
                        "value": 0
                    }
                ],
                "depth": -2,
                "name": "Total Gas",
                "value": 38096
            }
        ],
        "isConfirmed": true,
        "mainTrace": [
            {
                "children": [
                    {
                        "children": [
                            {
                                "children": [],
                                "depth": 1,
                                "id": 1,
                                "order": 1
                            },
                            {
                                "children": [],
                                "depth": 1,
                                "id": 2,
                                "order": 2
                            }
                        ],
                        "depth": 0,
                        "id": 0,
                        "order": 0
                    }
                ],
                "depth": -1,
                "id": -1,
                "order": -1
            }
        ],
        "mainTraceNodeCount": 3,
        "parentIdMap": {
            "0": -1,
            "1": 0,
            "2": 0
        },
        "tidyTrace": [
            {
                "children": [
                    {
                        "children": [
                            {
                                "children": [],
                                "depth": 1,
                                "id": 1,
                                "order": 1
                            },
                            {
                                "children": [],
                                "depth": 1,
                                "id": 2,
                                "order": 2
                            }
                        ],
                        "depth": 0,
                        "id": 0,
                        "order": 0
                    }
                ],
                "depth": -1,
                "id": -1,
                "order": -1
            }
        ],
        "tidyTraceNodeCount": 3
    },
    "state_change": {
        "stateChanges": [
            {
                "address": "0xb17e7e102e219450c2413a668e8f7ccad52deb3a",
                "erc": "",
                "slots": [
                    {
                        "current": "0x00000000000000000000000000000000000000000000000000005a87176e7640",
                        "key": "0xaf88057002cb2bdefd919dbf0e8008cd3886c8ca1a3d4cb6e14eee1dbd90f611",
                        "prev": "0x00000000000000000000000000000000000000000000000000005a886833b030"
                    },
                    {
                        "current": "0x00000000000000000000000000000000000000000000000000000002c0aa97a0",
                        "key": "0xdcae225d1dbbce2a22baf0fa3644ecb515ab74f8a79052b29bf7c9a9039f871c",
                        "prev": "0x000000000000000000000000000000000000000000000000000000016fe55db0"
                    }
                ],
                "storageVariables": [
                    {
                        "name": "balanceOf",
                        "type": "mapping(address => uint256)",
                        "value": {
                            "pairs": [
                                {
                                    "key": "0x71767fd5a9d3cd56076ac3770bb21f036f919560",
                                    "value": {
                                        "current": "99536260200000",
                                        "prev": "99541910270000",
                                        "typeTag": 1
                                    }
                                },
                                {
                                    "key": "0xa0ac43f54c015290bae7e5904452c136c2571d16",
                                    "value": {
                                        "current": "11822340000",
                                        "prev": "6172270000",
                                        "typeTag": 1
                                    }
                                }
                            ],
                            "typeTag": 4
                        }
                    }
                ]
            }
        ]
    }
}