{
    "balance_change": {
        "balanceChanges": [
            {
                "account": "0x7dcab2ce58c8e88f57d7b0ff821e5fc7ba13f6d5",
                "assets": [
                    {
                        "address": "0xeeeeeeeeeeeeeeeeeeeeeeeeeeeeeeeeeeeeeeee",
                        "amount": "10",
                        "iconUrl": "https://assets.blocksec.com/image/1663669189317-3.png",
                        "isERC1155": false,
                        "isERC721": false,
                        "sign": true,
                        "value": ""
                    },
                    {
                        "address": "0xdac17f958d2ee523a2206206994597c13d831ec7",
                        "amount": "2,243",
                        "iconUrl": "https://assets.blocksec.com/icon/fcea71f3193ce895be44bfdf941f7e4c9381dd587f273c2d1a27f1263d84e4ea.png",
                        "isERC1155": false,
                        "isERC721": false,
                        "sign": true,
                        "value": ""
                    },
                    {
                        "address": "0x04abeda201850ac0124161f037efd70c74ddc74c",
                        "amount": "22,752",
                        "iconUrl": "",
                        "isERC1155": false,
                        "isERC721": false,
                        "sign": true,
                        "value": ""
                    }
                ]
            },
            {
                "account": "0x0ae03a8112a036e65dd45040972f19919fd2b4ba",
                "assets": [
                    {
                        "address": "0xeeeeeeeeeeeeeeeeeeeeeeeeeeeeeeeeeeeeeeee",
                        "amount": "10",
                        "iconUrl": "https://assets.blocksec.com/image/1663669189317-3.png",
                        "isERC1155": false,
                        "isERC721": false,
                        "sign": false,
                        "value": ""
                    },
                    {
                        "address": "0xdac17f958d2ee523a2206206994597c13d831ec7",
                        "amount": "2,243",
                        "iconUrl": "https://assets.blocksec.com/icon/fcea71f3193ce895be44bfdf941f7e4c9381dd587f273c2d1a27f1263d84e4ea.png",
                        "isERC1155": false,
                        "isERC721": false,
                        "sign": false,
                        "value": ""
                    }
                ]
            },
            {
                "account": "0x101d8b63a081dfff2b1364864345b7f071b052ac",
                "assets": [
                    {
                        "address": "0x04abeda201850ac0124161f037efd70c74ddc74c",
                        "amount": "4,266",
                        "iconUrl": "",
                        "isERC1155": false,
                        "isERC721": false,
                        "sign": true,
                        "value": ""
                    }
                ]
            },
            {
                "account": "0x6756927922d2a32cb799f261e4abc47652cde54b",
                "assets": [
                    {
                        "address": "0x04abeda201850ac0124161f037efd70c74ddc74c",
                        "amount": "1,422",
                        "iconUrl": "",
                        "isERC1155": false,
                        "isERC721": false,
                        "sign": true,
                        "value": ""
                    }
                ]
            },
            {
                "account": "0x923f80828663e44e0ffd5eb499686dc1ccc78476",
                "assets": [
                    {
                        "address": "0x04abeda201850ac0124161f037efd70c74ddc74c",
                        "amount": "28,440",
                        "iconUrl": "",
                        "isERC1155": false,
                        "isERC721": false,
                        "sign": false,
                        "value": ""
                    }
                ]
            }
        ]
    },
    "profile": {
        "basic_info": {
            "baseFee": "",
            "blockNumber": 9458125,
            "callData": "0xe9ec551d0000000000000000000000000ae03a8112a036e65dd45040972f19919fd2b4ba",
            "debugEnable": true,
            "errorInfo": "",
            "eventCount": 7,
            "feeRecipient": "0x5a0b54d5dc17e0aadc383d2db43b0a0d3e029c4c",
            "formatValue": "0",
            "gasLimit": 500000,
            "gasPrice": "3",
            "gasUsed": 241808,
            "intTxnCount": 45,
            "internalRevert": false,
            "internalRevertMessage": "",
            "isContractCreation": false,
            "isFlashloan": false,
            "maxFee": "",
            "nonce": 3004,
            "overwritedBlockNumber": -1,
            "priorityFee": "",
            "receiver": "0x4f391c202a906eed9e2b63fdd387f28e952782e2",
            "revertMessage": "",
            "sender": "0x7dcab2ce58c8e88f57d7b0ff821e5fc7ba13f6d5",
            "simulationEnable": true,
            "sourceTxnHash": "0x319e99dd87aefae3ee0adea98f583d1f8cd26b00b672c853656a231dceee3d95",
            "status": true,
            "timestamp": "2020-02-10T23:18:27Z",
            "transactionFee": "0.000725424",
            "txnHash": "0x319e99dd87aefae3ee0adea98f583d1f8cd26b00b672c853656a231dceee3d95",
            "txnIndex": 3,
            "type": 0,
            "value": "0"
        },
        "fund_flow": [
            {
                "amount": "10",
                "from": "0x0ae03a8112a036e65dd45040972f19919fd2b4ba",
                "id": 1,
                "isERC1155": false,
                "isERC721": false,
                "isReverted": false,
                "order": 1,
                "to": "0x7dcab2ce58c8e88f57d7b0ff821e5fc7ba13f6d5",
                "token": "0xeeeeeeeeeeeeeeeeeeeeeeeeeeeeeeeeeeeeeeee"
            },
            {
                "amount": "2,243",
                "from": "0x0ae03a8112a036e65dd45040972f19919fd2b4ba",
                "id": 2,
                "isERC1155": false,
                "isERC721": false,
                "isReverted": false,
                "order": 2,
                "to": "0x7dcab2ce58c8e88f57d7b0ff821e5fc7ba13f6d5",
                "token": "0xdac17f958d2ee523a2206206994597c13d831ec7"
            },
            {
                "amount": "28,440",
                "from": "0x923f80828663e44e0ffd5eb499686dc1ccc78476",
                "id": 3,
                "isERC1155": false,
                "isERC721": false,
                "isReverted": false,
                "order": 3,
                "to": "0x4f391c202a906eed9e2b63fdd387f28e952782e2",
                "token": "0x04abeda201850ac0124161f037efd70c74ddc74c"
            },
            {
                "amount": "22,752",
                "from": "0x4f391c202a906eed9e2b63fdd387f28e952782e2",
                "id": 4,
                "isERC1155": false,
                "isERC721": false,
                "isReverted": false,
                "order": 4,
                "to": "0x7dcab2ce58c8e88f57d7b0ff821e5fc7ba13f6d5",
                "token": "0x04abeda201850ac0124161f037efd70c74ddc74c"
            },
            {
                "amount": "4,266",
                "from": "0x4f391c202a906eed9e2b63fdd387f28e952782e2",
                "id": 5,
                "isERC1155": false,
                "isERC721": false,
                "isReverted": false,
                "order": 5,
                "to": "0x101d8b63a081dfff2b1364864345b7f071b052ac",
                "token": "0x04abeda201850ac0124161f037efd70c74ddc74c"
            },
            {
                "amount": "1,422",
                "from": "0x4f391c202a906eed9e2b63fdd387f28e952782e2",
                "id": 6,
                "isERC1155": false,
                "isERC721": false,
                "isReverted": false,
                "order": 6,
                "to": "0x6756927922d2a32cb799f261e4abc47652cde54b",
                "token": "0x04abeda201850ac0124161f037efd70c74ddc74c"
            }
        ],
        "token_infos": [
            {
                "address": "0xeeeeeeeeeeeeeeeeeeeeeeeeeeeeeeeeeeeeeeee",
                "decimals": 18
            },
            {
                "address": "0x04abeda201850ac0124161f037efd70c74ddc74c",
                "decimals": 18
            },
            {
                "address": "0xc02aaa39b223fe8d0a0e5c4f27ead9083c756cc2",
                "decimals": 18
            },
            {
                "address": "0xdac17f958d2ee523a2206206994597c13d831ec7",
                "decimals": 6
            }
        ]
    },
    "address_label": {
        "labels": [
            {
                "address": "0x0000000000000000000000000000000000000001",
                "label": "Precompiled"
            },
            {
                "address": "0x0000000000000000000000000000000000000003",
                "label": "Precompiled"
            },
            {
                "address": "0x0000000000000000000000000000000000000004",
                "label": "Precompiled"
            },
            {
                "address": "0x4f391c202a906eed9e2b63fdd387f28e952782e2",
                "label": "NEST Protocol: Old Oracle"
            },
            {
                "address": "0x03c513ffbdbda34b4a66b3052fa5e0e6606e531b",
                "label": "IterableMapping"
            },
            {
                "address": "0x04abeda201850ac0124161f037efd70c74ddc74c",
                "label": "NEST Protocol: Old NEST Token"
            },
            {
                "address": "0x923f80828663e44e0ffd5eb499686dc1ccc78476",
                "label": "NEST Protocol: Pool"
            },
            {
                "address": "0xdac17f958d2ee523a2206206994597c13d831ec7",
                "label": "Tether: USDT Stablecoin"
            },
            {
                "address": "0x72b07fc5753a3564cfcac50cd6f246187d2d4306",
                "label": "NEST_3_OfferData"
            },
            {
                "address": "0x9c3c7bcf8993a58410016e29882c78b552d5c9b4",
                "label": "NEST_3_OrePoolLogic"
            },
            {
                "address": "0xeeeeeeeeeeeeeeeeeeeeeeeeeeeeeeeeeeeeeeee",
                "label": "Ether"
            },
            {
                "address": "0x472c31697633dacd24c4674b4571d4a393d54870",
                "label": "NEST Protocol: Guardian Node Allocation"
            },
            {
                "address": "0x5e7db2ffc5b2c7c47103e4f21c702bc402603fbf",
                "label": "IBMapping"
            },
            {
                "address": "0xb086f99e36c2c0ef6c051ee9e4d638717bbc6cbc",
                "label": "NEST_NodeAssignmentData"
            },
            {
                "address": "0x0000000000000000000000000000000000000002",
                "label": "Precompiled"
            }
        ]
    },
    "trace": {
        "accountLabels": null,
        "dataMap": {
            "-1": {
                "invocation": {
                    "address": "0x7dcab2ce58c8e88f57d7b0ff821e5fc7ba13f6d5",
                    "callData": "",
                    "decodedMethod": null,
                    "errorInfo": "",
                    "fromAddress": "",
                    "gasUsed": 0,
                    "id": -1,
                    "methodDecoded": false,
                    "operation": "",
                    "output": "",
                    "revert": false,
                    "revertMessage": "",
                    "selector": "",
                    "status": false,
                    "value": ""
                },
                "nodeType": 0
            },
            "0": {
                "invocation": {
                    "address": "0x4f391c202a906eed9e2b63fdd387f28e952782e2",
                    "callData": "0x0000000000000000000000000ae03a8112a036e65dd45040972f19919fd2b4ba",
                    "decodedMethod": {
                        "callParams": [
                            {
                                "name": "contractAddress",
                                "type": "address",
                                "value": "0x0ae03a8112a036e65dd45040972f19919fd2b4ba"
                            }
                        ],
                        "constructorArguments": "",
                        "name": "turnOut",
                        "returnParams": [],
                        "signature": "turnOut(address)"
                    },
                    "errorInfo": "",
                    "fromAddress": "0x7dcab2ce58c8e88f57d7b0ff821e5fc7ba13f6d5",
                    "gasUsed": 241808,
                    "id": 0,
                    "methodDecoded": true,
                    "operation": "CALL",
                    "output": "",
                    "revert": false,
                    "revertMessage": "",
                    "selector": "0xe9ec551d",
                    "status": true,
                    "value": "0"
                },
                "nodeType": 0
            },
            "1": {
                "invocation": {
                    "address": "0x72b07fc5753a3564cfcac50cd6f246187d2d4306",
                    "callData": "0x0000000000000000000000000ae03a8112a036e65dd45040972f19919fd2b4ba",
                    "decodedMethod": {
                        "callParams": [
                            {
                                "name": "contractAddress",
                                "type": "address",
                                "value": "0x0ae03a8112a036e65dd45040972f19919fd2b4ba"
                            }
                        ],
                        "constructorArguments": "",
                        "name": "checkContract",
                        "returnParams": [
                            {
                                "name": "",
                                "type": "bool",
                                "value": true
                            }
                        ],
                        "signature": "checkContract(address)"
                    },
                    "errorInfo": "",
                    "fromAddress": "0x4f391c202a906eed9e2b63fdd387f28e952782e2",
                    "gasUsed": 1219,
                    "id": 1,
                    "methodDecoded": true,
                    "operation": "STATICCALL",
                    "output": "0x0000000000000000000000000000000000000000000000000000000000000001",
                    "revert": false,
                    "revertMessage": "",
                    "selector": "0xd7b12454",
                    "status": true,
                    "value": "0"
                },
                "nodeType": 0
            },
            "10": {
                "invocation": {
                    "address": "0x0ae03a8112a036e65dd45040972f19919fd2b4ba",
                    "callData": "0x",
                    "decodedMethod": null,
                    "errorInfo": "",
                    "fromAddress": "0x4f391c202a906eed9e2b63fdd387f28e952782e2",
                    "gasUsed": 1039,
                    "id": 10,
                    "methodDecoded": false,
                    "operation": "STATICCALL",
                    "output": "0x000000000000000000000000dac17f958d2ee523a2206206994597c13d831ec7",
                    "revert": false,
                    "revertMessage": "",
                    "selector": "0x04f0c14e",
                    "status": true,
                    "value": "0"
                },
                "nodeType": 0
            },
            "11": {
                "invocation": {
                    "address": "0x9c3c7bcf8993a58410016e29882c78b552d5c9b4",
                    "callData": "0x000000000000000000000000000000000000000000000000016345785d8a000000000000000000000000000000000000000000000000000000000000009051950000000000000000000000004f391c202a906eed9e2b63fdd387f28e952782e2000000000000000000000000dac17f958d2ee523a2206206994597c13d831ec7",
                    "decodedMethod": {
                        "callParams": [
                            {
                                "name": "amount",
                                "type": "uint256",
                                "value": "100,000,000,000,000,000"
                            },
                            {
                                "name": "blockNum",
                                "type": "uint256",
                                "value": "9,458,069"
                            },
                            {
                                "name": "target",
                                "type": "address",
                                "value": "0x4f391c202a906eed9e2b63fdd387f28e952782e2"
                            },
                            {
                                "name": "token",
                                "type": "address",
                                "value": "0xdac17f958d2ee523a2206206994597c13d831ec7"
                            }
                        ],
                        "constructorArguments": "",
                        "name": "mining",
                        "returnParams": [
                            {
                                "name": "",
                                "type": "uint256",
                                "value": "28,440,000,000,000,000,000,000"
                            }
                        ],
                        "signature": "mining(uint256,uint256,address,address)"
                    },
                    "errorInfo": "",
                    "fromAddress": "0x4f391c202a906eed9e2b63fdd387f28e952782e2",
                    "gasUsed": 67413,
                    "id": 11,
                    "methodDecoded": true,
                    "operation": "CALL",
                    "output": "0x000000000000000000000000000000000000000000000605bc49066c0d600000",
                    "revert": false,
                    "revertMessage": "",
                    "selector": "0x5e54b157",
                    "status": true,
                    "value": "0"
                },
                "nodeType": 0
            },
            "12": {
                "invocation": {
                    "address": "0x923f80828663e44e0ffd5eb499686dc1ccc78476",
                    "callData": "0x000000000000000000000000000000000000000000000605bc49066c0d6000000000000000000000000000004f391c202a906eed9e2b63fdd387f28e952782e2",
                    "decodedMethod": {
                        "callParams": [
                            {
                                "name": "amount",
                                "type": "uint256",
                                "value": "28,440,000,000,000,000,000,000"
                            },
                            {
                                "name": "to",
                                "type": "address",
                                "value": "0x4f391c202a906eed9e2b63fdd387f28e952782e2"
                            }
                        ],
                        "constructorArguments": "",
                        "name": "turnOut",
                        "returnParams": [
                            {
                                "name": "",
                                "type": "uint256",
                                "value": "28,440,000,000,000,000,000,000"
                            }
                        ],
                        "signature": "turnOut(uint256,address)"
                    },
                    "errorInfo": "",
                    "fromAddress": "0x9c3c7bcf8993a58410016e29882c78b552d5c9b4",
                    "gasUsed": 56573,
                    "id": 12,
                    "methodDecoded": true,
                    "operation": "CALL",
                    "output": "0x000000000000000000000000000000000000000000000605bc49066c0d600000",
                    "revert": false,
                    "revertMessage": "",
                    "selector": "0x0addec08",
                    "status": true,
                    "value": "0"
                },
                "nodeType": 0
            },
            "13": {
                "invocation": {
                    "address": "0x5e7db2ffc5b2c7c47103e4f21c702bc402603fbf",
                    "callData": "0x000000000000000000000000000000000000000000000000000000000000002000000000000000000000000000000000000000000000000000000000000000116d696e696e6743616c63756c6174696f6e000000000000000000000000000000",
                    "decodedMethod": {
                        "callParams": [
                            {
                                "name": "name",
                                "type": "string",
                                "value": "miningCalculation"
                            }
                        ],
                        "constructorArguments": "",
                        "name": "checkAddress",
                        "returnParams": [
                            {
                                "name": "contractAddress",
                                "type": "address",
                                "value": "0x9c3c7bcf8993a58410016e29882c78b552d5c9b4"
                            }
                        ],
                        "signature": "checkAddress(string)"
                    },
                    "errorInfo": "",
                    "fromAddress": "0x923f80828663e44e0ffd5eb499686dc1ccc78476",
                    "gasUsed": 1805,
                    "id": 13,
                    "methodDecoded": true,
                    "operation": "STATICCALL",
                    "output": "0x0000000000000000000000009c3c7bcf8993a58410016e29882c78b552d5c9b4",
                    "revert": false,
                    "revertMessage": "",
                    "selector": "0x8fe77e86",
                    "status": true,
                    "value": "0"
                },
                "nodeType": 0
            },
            "14": {
                "invocation": {
                    "address": "0x04abeda201850ac0124161f037efd70c74ddc74c",
                    "callData": "0x000000000000000000000000923f80828663e44e0ffd5eb499686dc1ccc78476",
                    "decodedMethod": {
                        "callParams": [
                            {
                                "name": "_owner",
                                "type": "address",
                                "value": "0x923f80828663e44e0ffd5eb499686dc1ccc78476"
                            }
                        ],
                        "constructorArguments": "",
                        "name": "balanceOf",
                        "returnParams": [
                            {
                                "decimalAvailable": true,
                                "name": "",
                                "type": "uint256",
                                "value": "8,783,694,404,188,881,024,933,952,036"
                            }
                        ],
                        "signature": "balanceOf(address)"
                    },
                    "errorInfo": "",
                    "fromAddress": "0x923f80828663e44e0ffd5eb499686dc1ccc78476",
                    "gasUsed": 3554,
                    "id": 14,
                    "methodDecoded": true,
                    "operation": "STATICCALL",
                    "output": "0x00000000000000000000000000000000000000001c61b3a3c60540eefa8ffa24",
                    "revert": false,
                    "revertMessage": "",
                    "selector": "0x70a08231",
                    "status": true,
                    "value": "0"
                },
                "nodeType": 0
            },
            "15": {
                "invocation": {
                    "address": "0x03c513ffbdbda34b4a66b3052fa5e0e6606e531b",
                    "callData": "0x0000000000000000000000000000000000000000000000000000000000000000000000000000000000000000923f80828663e44e0ffd5eb499686dc1ccc78476",
                    "decodedMethod": null,
                    "errorInfo": "",
                    "fromAddress": "0x04abeda201850ac0124161f037efd70c74ddc74c",
                    "gasUsed": 1269,
                    "id": 15,
                    "methodDecoded": false,
                    "operation": "DELEGATECALL",
                    "output": "0x00000000000000000000000000000000000000001c61b3a3c60540eefa8ffa24",
                    "revert": false,
                    "revertMessage": "",
                    "selector": "0x4c5e1cae",
                    "status": true,
                    "value": "0"
                },
                "nodeType": 0
            },
            "16": {
                "invocation": {
                    "address": "0x04abeda201850ac0124161f037efd70c74ddc74c",
                    "callData": "0x0000000000000000000000004f391c202a906eed9e2b63fdd387f28e952782e2000000000000000000000000000000000000000000000605bc49066c0d600000",
                    "decodedMethod": {
                        "callParams": [
                            {
                                "name": "_to",
                                "type": "address",
                                "value": "0x4f391c202a906eed9e2b63fdd387f28e952782e2"
                            },
                            {
                                "decimalAvailable": true,
                                "name": "_value",
                                "type": "uint256",
                                "value": "28,440,000,000,000,000,000,000"
                            }
                        ],
                        "constructorArguments": "",
                        "name": "transfer",
                        "returnParams": [
                            {
                                "name": "",
                                "type": "bool",
                                "value": true
                            }
                        ],
                        "signature": "transfer(address,uint256)"
                    },
                    "errorInfo": "",
                    "fromAddress": "0x923f80828663e44e0ffd5eb499686dc1ccc78476",
                    "gasUsed": 43563,
                    "id": 16,
                    "methodDecoded": true,
                    "operation": "CALL",
                    "output": "0x0000000000000000000000000000000000000000000000000000000000000001",
                    "revert": false,
                    "revertMessage": "",
                    "selector": "0xa9059cbb",
                    "status": true,
                    "value": "0"
                },
                "nodeType": 0
            },
            "17": {
                "invocation": {
                    "address": "0x03c513ffbdbda34b4a66b3052fa5e0e6606e531b",
                    "callData": "0x0000000000000000000000000000000000000000000000000000000000000000000000000000000000000000923f80828663e44e0ffd5eb499686dc1ccc78476",
                    "decodedMethod": null,
                    "errorInfo": "",
                    "fromAddress": "0x04abeda201850ac0124161f037efd70c74ddc74c",
                    "gasUsed": 1269,
                    "id": 17,
                    "methodDecoded": false,
                    "operation": "DELEGATECALL",
                    "output": "0x00000000000000000000000000000000000000001c61b3a3c60540eefa8ffa24",
                    "revert": false,
                    "revertMessage": "",
                    "selector": "0x4c5e1cae",
                    "status": true,
                    "value": "0"
                },
                "nodeType": 0
            },
            "18": {
                "invocation": {
                    "address": "0x03c513ffbdbda34b4a66b3052fa5e0e6606e531b",
                    "callData": "0x0000000000000000000000000000000000000000000000000000000000000000000000000000000000000000923f80828663e44e0ffd5eb499686dc1ccc78476",
                    "decodedMethod": null,
                    "errorInfo": "",
                    "fromAddress": "0x04abeda201850ac0124161f037efd70c74ddc74c",
                    "gasUsed": 1269,
                    "id": 18,
                    "methodDecoded": false,
                    "operation": "DELEGATECALL",
                    "output": "0x00000000000000000000000000000000000000001c61b3a3c60540eefa8ffa24",
                    "revert": false,
                    "revertMessage": "",
                    "selector": "0x4c5e1cae",
                    "status": true,
                    "value": "0"
                },
                "nodeType": 0
            },
            "19": {
                "invocation": {
                    "address": "0x03c513ffbdbda34b4a66b3052fa5e0e6606e531b",
                    "callData": "0x0000000000000000000000000000000000000000000000000000000000000000000000000000000000000000923f80828663e44e0ffd5eb499686dc1ccc7847600000000000000000000000000000000000000001c61ad9e09bc3a82ed2ffa24",
                    "decodedMethod": null,
                    "errorInfo": "",
                    "fromAddress": "0x04abeda201850ac0124161f037efd70c74ddc74c",
                    "gasUsed": 6496,
                    "id": 19,
                    "methodDecoded": false,
                    "operation": "DELEGATECALL",
                    "output": "0x0000000000000000000000000000000000000000000000000000000000000001",
                    "revert": false,
                    "revertMessage": "",
                    "selector": "0xab517b4f",
                    "status": true,
                    "value": "0"
                },
                "nodeType": 0
            },
            "2": {
                "invocation": {
                    "address": "0x0ae03a8112a036e65dd45040972f19919fd2b4ba",
                    "callData": "0x",
                    "decodedMethod": null,
                    "errorInfo": "",
                    "fromAddress": "0x4f391c202a906eed9e2b63fdd387f28e952782e2",
                    "gasUsed": 50822,
                    "id": 2,
                    "methodDecoded": false,
                    "operation": "CALL",
                    "output": "",
                    "revert": false,
                    "revertMessage": "",
                    "selector": "0x28a8ef1f",
                    "status": true,
                    "value": "0"
                },
                "nodeType": 0
            },
            "20": {
                "invocation": {
                    "address": "0x03c513ffbdbda34b4a66b3052fa5e0e6606e531b",
                    "callData": "0x00000000000000000000000000000000000000000000000000000000000000000000000000000000000000004f391c202a906eed9e2b63fdd387f28e952782e2",
                    "decodedMethod": null,
                    "errorInfo": "",
                    "fromAddress": "0x04abeda201850ac0124161f037efd70c74ddc74c",
                    "gasUsed": 1269,
                    "id": 20,
                    "methodDecoded": false,
                    "operation": "DELEGATECALL",
                    "output": "0x0000000000000000000000000000000000000000000000000000000000000000",
                    "revert": false,
                    "revertMessage": "",
                    "selector": "0x4c5e1cae",
                    "status": true,
                    "value": "0"
                },
                "nodeType": 0
            },
            "21": {
                "invocation": {
                    "address": "0x03c513ffbdbda34b4a66b3052fa5e0e6606e531b",
                    "callData": "0x00000000000000000000000000000000000000000000000000000000000000000000000000000000000000004f391c202a906eed9e2b63fdd387f28e952782e2000000000000000000000000000000000000000000000605bc49066c0d600000",
                    "decodedMethod": null,
                    "errorInfo": "",
                    "fromAddress": "0x04abeda201850ac0124161f037efd70c74ddc74c",
                    "gasUsed": 21496,
                    "id": 21,
                    "methodDecoded": false,
                    "operation": "DELEGATECALL",
                    "output": "0x0000000000000000000000000000000000000000000000000000000000000001",
                    "revert": false,
                    "revertMessage": "",
                    "selector": "0xab517b4f",
                    "status": true,
                    "value": "0"
                },
                "nodeType": 0
            },
            "22": {
                "event": {
                    "contract": "0x04abeda201850ac0124161f037efd70c74ddc74c",
                    "decodedLog": {
                        "name": "Transfer",
                        "params": [
                            {
                                "name": "from",
                                "type": "address",
                                "value": "0x923f80828663e44e0ffd5eb499686dc1ccc78476"
                            },
                            {
                                "name": "to",
                                "type": "address",
                                "value": "0x4f391c202a906eed9e2b63fdd387f28e952782e2"
                            },
                            {
                                "decimalAvailable": true,
                                "name": "value",
                                "type": "uint256",
                                "value": "28,440,000,000,000,000,000,000"
                            }
                        ],
                        "signature": "Transfer(address,address,uint256)"
                    },
                    "id": 22,
                    "logData": "0x000000000000000000000000000000000000000000000605bc49066c0d600000",
                    "logDecoded": true,
                    "operation": "EVENT",
                    "revert": false,
                    "status": true,
                    "topics": [
                        "0xddf252ad1be2c89b69c2b068fc378daa952ba7f163c4a11628f55a4df523b3ef",
                        "0x000000000000000000000000923f80828663e44e0ffd5eb499686dc1ccc78476",
                        "0x0000000000000000000000004f391c202a906eed9e2b63fdd387f28e952782e2"
                    ]
                },
                "nodeType": 1
            },
            "23": {
                "event": {
                    "contract": "0x9c3c7bcf8993a58410016e29882c78b552d5c9b4",
                    "decodedLog": {
                        "name": "miningLog",
                        "params": [
                            {
                                "name": "blockNum",
                                "type": "uint256",
                                "value": "9,458,069"
                            },
                            {
                                "name": "tokenAddress",
                                "type": "address",
                                "value": "0xdac17f958d2ee523a2206206994597c13d831ec7"
                            },
                            {
                                "name": "miningEthAll",
                                "type": "uint256",
                                "value": "100,000,000,000,000,000"
                            },
                            {
                                "name": "miningEthSelf",
                                "type": "uint256",
                                "value": "100,000,000,000,000,000"
                            },
                            {
                                "name": "tokenNum",
                                "type": "uint256",
                                "value": "1"
                            }
                        ],
                        "signature": "miningLog(uint256,address,uint256,uint256,uint256)"
                    },
                    "id": 23,
                    "logData": "0x0000000000000000000000000000000000000000000000000000000000905195000000000000000000000000dac17f958d2ee523a2206206994597c13d831ec7000000000000000000000000000000000000000000000000016345785d8a0000000000000000000000000000000000000000000000000000016345785d8a00000000000000000000000000000000000000000000000000000000000000000001",
                    "logDecoded": true,
                    "operation": "EVENT",
                    "revert": false,
                    "status": true,
                    "topics": [
                        "0x0b39eebeb0ffed5ad1c716e6b10410b7f04a9f4ecabe3a3a0a1a5d11162c36d6"
                    ]
                },
                "nodeType": 1
            },
            "24": {
                "invocation": {
                    "address": "0x04abeda201850ac0124161f037efd70c74ddc74c",
                    "callData": "0x0000000000000000000000007dcab2ce58c8e88f57d7b0ff821e5fc7ba13f6d50000000000000000000000000000000000000000000004d1636d9ebcd7800000",
                    "decodedMethod": {
                        "callParams": [
                            {
                                "name": "_to",
                                "type": "address",
                                "value": "0x7dcab2ce58c8e88f57d7b0ff821e5fc7ba13f6d5"
                            },
                            {
                                "decimalAvailable": true,
                                "name": "_value",
                                "type": "uint256",
                                "value": "22,752,000,000,000,000,000,000"
                            }
                        ],
                        "constructorArguments": "",
                        "name": "transfer",
                        "returnParams": [
                            {
                                "name": "",
                                "type": "bool",
                                "value": true
                            }
                        ],
                        "signature": "transfer(address,uint256)"
                    },
                    "errorInfo": "",
                    "fromAddress": "0x4f391c202a906eed9e2b63fdd387f28e952782e2",
                    "gasUsed": 24363,
                    "id": 24,
                    "methodDecoded": true,
                    "operation": "CALL",
                    "output": "0x0000000000000000000000000000000000000000000000000000000000000001",
                    "revert": false,
                    "revertMessage": "",
                    "selector": "0xa9059cbb",
                    "status": true,
                    "value": "0"
                },
                "nodeType": 0
            },
            "25": {
                "invocation": {
                    "address": "0x03c513ffbdbda34b4a66b3052fa5e0e6606e531b",
                    "callData": "0x00000000000000000000000000000000000000000000000000000000000000000000000000000000000000004f391c202a906eed9e2b63fdd387f28e952782e2",
                    "decodedMethod": null,
                    "errorInfo": "",
                    "fromAddress": "0x04abeda201850ac0124161f037efd70c74ddc74c",
                    "gasUsed": 1269,
                    "id": 25,
                    "methodDecoded": false,
                    "operation": "DELEGATECALL",
                    "output": "0x000000000000000000000000000000000000000000000605bc49066c0d600000",
                    "revert": false,
                    "revertMessage": "",
                    "selector": "0x4c5e1cae",
                    "status": true,
                    "value": "0"
                },
                "nodeType": 0
            },
            "26": {
                "invocation": {
                    "address": "0x03c513ffbdbda34b4a66b3052fa5e0e6606e531b",
                    "callData": "0x00000000000000000000000000000000000000000000000000000000000000000000000000000000000000004f391c202a906eed9e2b63fdd387f28e952782e2",
                    "decodedMethod": null,
                    "errorInfo": "",
                    "fromAddress": "0x04abeda201850ac0124161f037efd70c74ddc74c",
                    "gasUsed": 1269,
                    "id": 26,
                    "methodDecoded": false,
                    "operation": "DELEGATECALL",
                    "output": "0x000000000000000000000000000000000000000000000605bc49066c0d600000",
                    "revert": false,
                    "revertMessage": "",
                    "selector": "0x4c5e1cae",
                    "status": true,
                    "value": "0"
                },
                "nodeType": 0
            },
            "27": {
                "invocation": {
                    "address": "0x03c513ffbdbda34b4a66b3052fa5e0e6606e531b",
                    "callData": "0x00000000000000000000000000000000000000000000000000000000000000000000000000000000000000004f391c202a906eed9e2b63fdd387f28e952782e200000000000000000000000000000000000000000000013458db67af35e00000",
                    "decodedMethod": null,
                    "errorInfo": "",
                    "fromAddress": "0x04abeda201850ac0124161f037efd70c74ddc74c",
                    "gasUsed": 2296,
                    "id": 27,
                    "methodDecoded": false,
                    "operation": "DELEGATECALL",
                    "output": "0x0000000000000000000000000000000000000000000000000000000000000001",
                    "revert": false,
                    "revertMessage": "",
                    "selector": "0xab517b4f",
                    "status": true,
                    "value": "0"
                },
                "nodeType": 0
            },
            "28": {
                "invocation": {
                    "address": "0x03c513ffbdbda34b4a66b3052fa5e0e6606e531b",
                    "callData": "0x00000000000000000000000000000000000000000000000000000000000000000000000000000000000000007dcab2ce58c8e88f57d7b0ff821e5fc7ba13f6d5",
                    "decodedMethod": null,
                    "errorInfo": "",
                    "fromAddress": "0x04abeda201850ac0124161f037efd70c74ddc74c",
                    "gasUsed": 1269,
                    "id": 28,
                    "methodDecoded": false,
                    "operation": "DELEGATECALL",
                    "output": "0x0000000000000000000000000000000000000000000407e3b0e03f688c000000",
                    "revert": false,
                    "revertMessage": "",
                    "selector": "0x4c5e1cae",
                    "status": true,
                    "value": "0"
                },
                "nodeType": 0
            },
            "29": {
                "invocation": {
                    "address": "0x03c513ffbdbda34b4a66b3052fa5e0e6606e531b",
                    "callData": "0x00000000000000000000000000000000000000000000000000000000000000000000000000000000000000007dcab2ce58c8e88f57d7b0ff821e5fc7ba13f6d5000000000000000000000000000000000000000000040cb5144dde2563800000",
                    "decodedMethod": null,
                    "errorInfo": "",
                    "fromAddress": "0x04abeda201850ac0124161f037efd70c74ddc74c",
                    "gasUsed": 6496,
                    "id": 29,
                    "methodDecoded": false,
                    "operation": "DELEGATECALL",
                    "output": "0x0000000000000000000000000000000000000000000000000000000000000001",
                    "revert": false,
                    "revertMessage": "",
                    "selector": "0xab517b4f",
                    "status": true,
                    "value": "0"
                },
                "nodeType": 0
            },
            "3": {
                "invocation": {
                    "address": "0x4f391c202a906eed9e2b63fdd387f28e952782e2",
                    "callData": "0x",
                    "decodedMethod": {
                        "callParams": [],
                        "constructorArguments": "",
                        "name": "checkBlockLimit",
                        "returnParams": [
                            {
                                "name": "",
                                "type": "uint256",
                                "value": "25"
                            }
                        ],
                        "signature": "checkBlockLimit()"
                    },
                    "errorInfo": "",
                    "fromAddress": "0x0ae03a8112a036e65dd45040972f19919fd2b4ba",
                    "gasUsed": 1131,
                    "id": 3,
                    "methodDecoded": true,
                    "operation": "STATICCALL",
                    "output": "0x0000000000000000000000000000000000000000000000000000000000000019",
                    "revert": false,
                    "revertMessage": "",
                    "selector": "0xcbc7ef09",
                    "status": true,
                    "value": "0"
                },
                "nodeType": 0
            },
            "30": {
                "event": {
                    "contract": "0x04abeda201850ac0124161f037efd70c74ddc74c",
                    "decodedLog": {
                        "name": "Transfer",
                        "params": [
                            {
                                "name": "from",
                                "type": "address",
                                "value": "0x4f391c202a906eed9e2b63fdd387f28e952782e2"
                            },
                            {
                                "name": "to",
                                "type": "address",
                                "value": "0x7dcab2ce58c8e88f57d7b0ff821e5fc7ba13f6d5"
                            },
                            {
                                "decimalAvailable": true,
                                "name": "value",
                                "type": "uint256",
                                "value": "22,752,000,000,000,000,000,000"
                            }
                        ],
                        "signature": "Transfer(address,address,uint256)"
                    },
                    "id": 30,
                    "logData": "0x0000000000000000000000000000000000000000000004d1636d9ebcd7800000",
                    "logDecoded": true,
                    "operation": "EVENT",
                    "revert": false,
                    "status": true,
                    "topics": [
                        "0xddf252ad1be2c89b69c2b068fc378daa952ba7f163c4a11628f55a4df523b3ef",
                        "0x0000000000000000000000004f391c202a906eed9e2b63fdd387f28e952782e2",
                        "0x0000000000000000000000007dcab2ce58c8e88f57d7b0ff821e5fc7ba13f6d5"
                    ]
                },
                "nodeType": 1
            },
            "31": {
                "invocation": {
                    "address": "0x04abeda201850ac0124161f037efd70c74ddc74c",
                    "callData": "0x000000000000000000000000472c31697633dacd24c4674b4571d4a393d548700000000000000000000000000000000000000000000000e742a48dc368680000",
                    "decodedMethod": {
                        "callParams": [
                            {
                                "name": "_spender",
                                "type": "address",
                                "value": "0x472c31697633dacd24c4674b4571d4a393d54870"
                            },
                            {
                                "decimalAvailable": true,
                                "name": "_value",
                                "type": "uint256",
                                "value": "4,266,000,000,000,000,000,000"
                            }
                        ],
                        "constructorArguments": "",
                        "name": "approve",
                        "returnParams": [
                            {
                                "name": "",
                                "type": "bool",
                                "value": true
                            }
                        ],
                        "signature": "approve(address,uint256)"
                    },
                    "errorInfo": "",
                    "fromAddress": "0x4f391c202a906eed9e2b63fdd387f28e952782e2",
                    "gasUsed": 22456,
                    "id": 31,
                    "methodDecoded": true,
                    "operation": "CALL",
                    "output": "0x0000000000000000000000000000000000000000000000000000000000000001",
                    "revert": false,
                    "revertMessage": "",
                    "selector": "0x095ea7b3",
                    "status": true,
                    "value": "0"
                },
                "nodeType": 0
            },
            "32": {
                "event": {
                    "contract": "0x04abeda201850ac0124161f037efd70c74ddc74c",
                    "decodedLog": {
                        "name": "Approval",
                        "params": [
                            {
                                "name": "owner",
                                "type": "address",
                                "value": "0x4f391c202a906eed9e2b63fdd387f28e952782e2"
                            },
                            {
                                "name": "spender",
                                "type": "address",
                                "value": "0x472c31697633dacd24c4674b4571d4a393d54870"
                            },
                            {
                                "decimalAvailable": true,
                                "name": "value",
                                "type": "uint256",
                                "value": "4,266,000,000,000,000,000,000"
                            }
                        ],
                        "signature": "Approval(address,address,uint256)"
                    },
                    "id": 32,
                    "logData": "0x0000000000000000000000000000000000000000000000e742a48dc368680000",
                    "logDecoded": true,
                    "operation": "EVENT",
                    "revert": false,
                    "status": true,
                    "topics": [
                        "0x8c5be1e5ebec7d5bd14f71427d1e84f3dd0314c0f7b2291e5b200ac8c7c3b925",
                        "0x0000000000000000000000004f391c202a906eed9e2b63fdd387f28e952782e2",
                        "0x000000000000000000000000472c31697633dacd24c4674b4571d4a393d54870"
                    ]
                },
                "nodeType": 1
            },
            "33": {
                "invocation": {
                    "address": "0x472c31697633dacd24c4674b4571d4a393d54870",
                    "callData": "0x0000000000000000000000000000000000000000000000e742a48dc368680000",
                    "decodedMethod": {
                        "callParams": [
                            {
                                "name": "amount",
                                "type": "uint256",
                                "value": "4,266,000,000,000,000,000,000"
                            }
                        ],
                        "constructorArguments": "",
                        "name": "bookKeeping",
                        "returnParams": [],
                        "signature": "bookKeeping(uint256)"
                    },
                    "errorInfo": "",
                    "fromAddress": "0x4f391c202a906eed9e2b63fdd387f28e952782e2",
                    "gasUsed": 53900,
                    "id": 33,
                    "methodDecoded": true,
                    "operation": "CALL",
                    "output": "",
                    "revert": false,
                    "revertMessage": "",
                    "selector": "0x40626025",
                    "status": true,
                    "value": "0"
                },
                "nodeType": 0
            },
            "34": {
                "invocation": {
                    "address": "0x04abeda201850ac0124161f037efd70c74ddc74c",
                    "callData": "0x0000000000000000000000004f391c202a906eed9e2b63fdd387f28e952782e2",
                    "decodedMethod": {
                        "callParams": [
                            {
                                "name": "_owner",
                                "type": "address",
                                "value": "0x4f391c202a906eed9e2b63fdd387f28e952782e2"
                            }
                        ],
                        "constructorArguments": "",
                        "name": "balanceOf",
                        "returnParams": [
                            {
                                "decimalAvailable": true,
                                "name": "",
                                "type": "uint256",
                                "value": "5,688,000,000,000,000,000,000"
                            }
                        ],
                        "signature": "balanceOf(address)"
                    },
                    "errorInfo": "",
                    "fromAddress": "0x472c31697633dacd24c4674b4571d4a393d54870",
                    "gasUsed": 3554,
                    "id": 34,
                    "methodDecoded": true,
                    "operation": "STATICCALL",
                    "output": "0x00000000000000000000000000000000000000000000013458db67af35e00000",
                    "revert": false,
                    "revertMessage": "",
                    "selector": "0x70a08231",
                    "status": true,
                    "value": "0"
                },
                "nodeType": 0
            },
            "35": {
                "invocation": {
                    "address": "0x03c513ffbdbda34b4a66b3052fa5e0e6606e531b",
                    "callData": "0x00000000000000000000000000000000000000000000000000000000000000000000000000000000000000004f391c202a906eed9e2b63fdd387f28e952782e2",
                    "decodedMethod": null,
                    "errorInfo": "",
                    "fromAddress": "0x04abeda201850ac0124161f037efd70c74ddc74c",
                    "gasUsed": 1269,
                    "id": 35,
                    "methodDecoded": false,
                    "operation": "DELEGATECALL",
                    "output": "0x00000000000000000000000000000000000000000000013458db67af35e00000",
                    "revert": false,
                    "revertMessage": "",
                    "selector": "0x4c5e1cae",
                    "status": true,
                    "value": "0"
                },
                "nodeType": 0
            },
            "36": {
                "invocation": {
                    "address": "0x04abeda201850ac0124161f037efd70c74ddc74c",
                    "callData": "0x0000000000000000000000004f391c202a906eed9e2b63fdd387f28e952782e2000000000000000000000000472c31697633dacd24c4674b4571d4a393d54870",
                    "decodedMethod": {
                        "callParams": [
                            {
                                "name": "_owner",
                                "type": "address",
                                "value": "0x4f391c202a906eed9e2b63fdd387f28e952782e2"
                            },
                            {
                                "name": "_spender",
                                "type": "address",
                                "value": "0x472c31697633dacd24c4674b4571d4a393d54870"
                            }
                        ],
                        "constructorArguments": "",
                        "name": "allowance",
                        "returnParams": [
                            {
                                "decimalAvailable": true,
                                "name": "",
                                "type": "uint256",
                                "value": "4,266,000,000,000,000,000,000"
                            }
                        ],
                        "signature": "allowance(address,address)"
                    },
                    "errorInfo": "",
                    "fromAddress": "0x472c31697633dacd24c4674b4571d4a393d54870",
                    "gasUsed": 1737,
                    "id": 36,
                    "methodDecoded": true,
                    "operation": "STATICCALL",
                    "output": "0x0000000000000000000000000000000000000000000000e742a48dc368680000",
                    "revert": false,
                    "revertMessage": "",
                    "selector": "0xdd62ed3e",
                    "status": true,
                    "value": "0"
                },
                "nodeType": 0
            },
            "37": {
                "invocation": {
                    "address": "0x04abeda201850ac0124161f037efd70c74ddc74c",
                    "callData": "0x0000000000000000000000004f391c202a906eed9e2b63fdd387f28e952782e2000000000000000000000000101d8b63a081dfff2b1364864345b7f071b052ac0000000000000000000000000000000000000000000000e742a48dc368680000",
                    "decodedMethod": {
                        "callParams": [
                            {
                                "name": "_from",
                                "type": "address",
                                "value": "0x4f391c202a906eed9e2b63fdd387f28e952782e2"
                            },
                            {
                                "name": "_to",
                                "type": "address",
                                "value": "0x101d8b63a081dfff2b1364864345b7f071b052ac"
                            },
                            {
                                "decimalAvailable": true,
                                "name": "_value",
                                "type": "uint256",
                                "value": "4,266,000,000,000,000,000,000"
                            }
                        ],
                        "constructorArguments": "",
                        "name": "transferFrom",
                        "returnParams": [
                            {
                                "name": "",
                                "type": "bool",
                                "value": true
                            }
                        ],
                        "signature": "transferFrom(address,address,uint256)"
                    },
                    "errorInfo": "",
                    "fromAddress": "0x472c31697633dacd24c4674b4571d4a393d54870",
                    "gasUsed": 27419,
                    "id": 37,
                    "methodDecoded": true,
                    "operation": "CALL",
                    "output": "0x0000000000000000000000000000000000000000000000000000000000000001",
                    "revert": false,
                    "revertMessage": "",
                    "selector": "0x23b872dd",
                    "status": true,
                    "value": "0"
                },
                "nodeType": 0
            },
            "38": {
                "invocation": {
                    "address": "0x03c513ffbdbda34b4a66b3052fa5e0e6606e531b",
                    "callData": "0x00000000000000000000000000000000000000000000000000000000000000000000000000000000000000004f391c202a906eed9e2b63fdd387f28e952782e2",
                    "decodedMethod": null,
                    "errorInfo": "",
                    "fromAddress": "0x04abeda201850ac0124161f037efd70c74ddc74c",
                    "gasUsed": 1269,
                    "id": 38,
                    "methodDecoded": false,
                    "operation": "DELEGATECALL",
                    "output": "0x00000000000000000000000000000000000000000000013458db67af35e00000",
                    "revert": false,
                    "revertMessage": "",
                    "selector": "0x4c5e1cae",
                    "status": true,
                    "value": "0"
                },
                "nodeType": 0
            },
            "39": {
                "invocation": {
                    "address": "0x03c513ffbdbda34b4a66b3052fa5e0e6606e531b",
                    "callData": "0x00000000000000000000000000000000000000000000000000000000000000000000000000000000000000004f391c202a906eed9e2b63fdd387f28e952782e2",
                    "decodedMethod": null,
                    "errorInfo": "",
                    "fromAddress": "0x04abeda201850ac0124161f037efd70c74ddc74c",
                    "gasUsed": 1269,
                    "id": 39,
                    "methodDecoded": false,
                    "operation": "DELEGATECALL",
                    "output": "0x00000000000000000000000000000000000000000000013458db67af35e00000",
                    "revert": false,
                    "revertMessage": "",
                    "selector": "0x4c5e1cae",
                    "status": true,
                    "value": "0"
                },
                "nodeType": 0
            },
            "4": {
                "invocation": {
                    "address": "0xdac17f958d2ee523a2206206994597c13d831ec7",
                    "callData": "0x0000000000000000000000000ae03a8112a036e65dd45040972f19919fd2b4ba",
                    "decodedMethod": {
                        "callParams": [
                            {
                                "name": "who",
                                "type": "address",
                                "value": "0x0ae03a8112a036e65dd45040972f19919fd2b4ba"
                            }
                        ],
                        "constructorArguments": "",
                        "name": "balanceOf",
                        "returnParams": [
                            {
                                "decimalAvailable": true,
                                "name": "",
                                "type": "uint256",
                                "value": "2,243,000,000"
                            }
                        ],
                        "signature": "balanceOf(address)"
                    },
                    "errorInfo": "",
                    "fromAddress": "0x0ae03a8112a036e65dd45040972f19919fd2b4ba",
                    "gasUsed": 2431,
                    "id": 4,
                    "methodDecoded": true,
                    "operation": "STATICCALL",
                    "output": "0x0000000000000000000000000000000000000000000000000000000085b176c0",
                    "revert": false,
                    "revertMessage": "",
                    "selector": "0x70a08231",
                    "status": true,
                    "value": "0"
                },
                "nodeType": 0
            },
            "40": {
                "invocation": {
                    "address": "0x03c513ffbdbda34b4a66b3052fa5e0e6606e531b",
                    "callData": "0x00000000000000000000000000000000000000000000000000000000000000000000000000000000000000004f391c202a906eed9e2b63fdd387f28e952782e200000000000000000000000000000000000000000000004d1636d9ebcd780000",
                    "decodedMethod": null,
                    "errorInfo": "",
                    "fromAddress": "0x04abeda201850ac0124161f037efd70c74ddc74c",
                    "gasUsed": 2296,
                    "id": 40,
                    "methodDecoded": false,
                    "operation": "DELEGATECALL",
                    "output": "0x0000000000000000000000000000000000000000000000000000000000000001",
                    "revert": false,
                    "revertMessage": "",
                    "selector": "0xab517b4f",
                    "status": true,
                    "value": "0"
                },
                "nodeType": 0
            },
            "41": {
                "invocation": {
                    "address": "0x03c513ffbdbda34b4a66b3052fa5e0e6606e531b",
                    "callData": "0x0000000000000000000000000000000000000000000000000000000000000000000000000000000000000000101d8b63a081dfff2b1364864345b7f071b052ac",
                    "decodedMethod": null,
                    "errorInfo": "",
                    "fromAddress": "0x04abeda201850ac0124161f037efd70c74ddc74c",
                    "gasUsed": 1269,
                    "id": 41,
                    "methodDecoded": false,
                    "operation": "DELEGATECALL",
                    "output": "0x00000000000000000000000000000000000000000003a0346d1e3baa795a5cde",
                    "revert": false,
                    "revertMessage": "",
                    "selector": "0x4c5e1cae",
                    "status": true,
                    "value": "0"
                },
                "nodeType": 0
            },
            "42": {
                "invocation": {
                    "address": "0x03c513ffbdbda34b4a66b3052fa5e0e6606e531b",
                    "callData": "0x0000000000000000000000000000000000000000000000000000000000000000000000000000000000000000101d8b63a081dfff2b1364864345b7f071b052ac00000000000000000000000000000000000000000003a11bafc2c96de1c25cde",
                    "decodedMethod": null,
                    "errorInfo": "",
                    "fromAddress": "0x04abeda201850ac0124161f037efd70c74ddc74c",
                    "gasUsed": 6496,
                    "id": 42,
                    "methodDecoded": false,
                    "operation": "DELEGATECALL",
                    "output": "0x0000000000000000000000000000000000000000000000000000000000000001",
                    "revert": false,
                    "revertMessage": "",
                    "selector": "0xab517b4f",
                    "status": true,
                    "value": "0"
                },
                "nodeType": 0
            },
            "43": {
                "event": {
                    "contract": "0x04abeda201850ac0124161f037efd70c74ddc74c",
                    "decodedLog": {
                        "name": "Transfer",
                        "params": [
                            {
                                "name": "from",
                                "type": "address",
                                "value": "0x4f391c202a906eed9e2b63fdd387f28e952782e2"
                            },
                            {
                                "name": "to",
                                "type": "address",
                                "value": "0x101d8b63a081dfff2b1364864345b7f071b052ac"
                            },
                            {
                                "decimalAvailable": true,
                                "name": "value",
                                "type": "uint256",
                                "value": "4,266,000,000,000,000,000,000"
                            }
                        ],
                        "signature": "Transfer(address,address,uint256)"
                    },
                    "id": 43,
                    "logData": "0x0000000000000000000000000000000000000000000000e742a48dc368680000",
                    "logDecoded": true,
                    "operation": "EVENT",
                    "revert": false,
                    "status": true,
                    "topics": [
                        "0xddf252ad1be2c89b69c2b068fc378daa952ba7f163c4a11628f55a4df523b3ef",
                        "0x0000000000000000000000004f391c202a906eed9e2b63fdd387f28e952782e2",
                        "0x000000000000000000000000101d8b63a081dfff2b1364864345b7f071b052ac"
                    ]
                },
                "nodeType": 1
            },
            "44": {
                "invocation": {
                    "address": "0xb086f99e36c2c0ef6c051ee9e4d638717bbc6cbc",
                    "callData": "0x0000000000000000000000000000000000000000000000e742a48dc368680000",
                    "decodedMethod": {
                        "callParams": [
                            {
                                "name": "amount",
                                "type": "uint256",
                                "value": "4,266,000,000,000,000,000,000"
                            }
                        ],
                        "constructorArguments": "",
                        "name": "addNest",
                        "returnParams": [],
                        "signature": "addNest(uint256)"
                    },
                    "errorInfo": "",
                    "fromAddress": "0x472c31697633dacd24c4674b4571d4a393d54870",
                    "gasUsed": 10380,
                    "id": 44,
                    "methodDecoded": true,
                    "operation": "CALL",
                    "output": "",
                    "revert": false,
                    "revertMessage": "",
                    "selector": "0x20c99aab",
                    "status": true,
                    "value": "0"
                },
                "nodeType": 0
            },
            "45": {
                "invocation": {
                    "address": "0x5e7db2ffc5b2c7c47103e4f21c702bc402603fbf",
                    "callData": "0x0000000000000000000000000000000000000000000000000000000000000020000000000000000000000000000000000000000000000000000000000000000e6e6f646541737369676e6d656e74000000000000000000000000000000000000",
                    "decodedMethod": {
                        "callParams": [
                            {
                                "name": "name",
                                "type": "string",
                                "value": "nodeAssignment"
                            }
                        ],
                        "constructorArguments": "",
                        "name": "checkAddress",
                        "returnParams": [
                            {
                                "name": "contractAddress",
                                "type": "address",
                                "value": "0x472c31697633dacd24c4674b4571d4a393d54870"
                            }
                        ],
                        "signature": "checkAddress(string)"
                    },
                    "errorInfo": "",
                    "fromAddress": "0xb086f99e36c2c0ef6c051ee9e4d638717bbc6cbc",
                    "gasUsed": 1805,
                    "id": 45,
                    "methodDecoded": true,
                    "operation": "STATICCALL",
                    "output": "0x000000000000000000000000472c31697633dacd24c4674b4571d4a393d54870",
                    "revert": false,
                    "revertMessage": "",
                    "selector": "0x8fe77e86",
                    "status": true,
                    "value": "0"
                },
                "nodeType": 0
            },
            "46": {
                "invocation": {
                    "address": "0x04abeda201850ac0124161f037efd70c74ddc74c",
                    "callData": "0x0000000000000000000000006756927922d2a32cb799f261e4abc47652cde54b00000000000000000000000000000000000000000000004d1636d9ebcd780000",
                    "decodedMethod": {
                        "callParams": [
                            {
                                "name": "_to",
                                "type": "address",
                                "value": "0x6756927922d2a32cb799f261e4abc47652cde54b"
                            },
                            {
                                "decimalAvailable": true,
                                "name": "_value",
                                "type": "uint256",
                                "value": "1,422,000,000,000,000,000,000"
                            }
                        ],
                        "constructorArguments": "",
                        "name": "transfer",
                        "returnParams": [
                            {
                                "name": "",
                                "type": "bool",
                                "value": true
                            }
                        ],
                        "signature": "transfer(address,uint256)"
                    },
                    "errorInfo": "",
                    "fromAddress": "0x4f391c202a906eed9e2b63fdd387f28e952782e2",
                    "gasUsed": 24363,
                    "id": 46,
                    "methodDecoded": true,
                    "operation": "CALL",
                    "output": "0x0000000000000000000000000000000000000000000000000000000000000001",
                    "revert": false,
                    "revertMessage": "",
                    "selector": "0xa9059cbb",
                    "status": true,
                    "value": "0"
                },
                "nodeType": 0
            },
            "47": {
                "invocation": {
                    "address": "0x03c513ffbdbda34b4a66b3052fa5e0e6606e531b",
                    "callData": "0x00000000000000000000000000000000000000000000000000000000000000000000000000000000000000004f391c202a906eed9e2b63fdd387f28e952782e2",
                    "decodedMethod": null,
                    "errorInfo": "",
                    "fromAddress": "0x04abeda201850ac0124161f037efd70c74ddc74c",
                    "gasUsed": 1269,
                    "id": 47,
                    "methodDecoded": false,
                    "operation": "DELEGATECALL",
                    "output": "0x00000000000000000000000000000000000000000000004d1636d9ebcd780000",
                    "revert": false,
                    "revertMessage": "",
                    "selector": "0x4c5e1cae",
                    "status": true,
                    "value": "0"
                },
                "nodeType": 0
            },
            "48": {
                "invocation": {
                    "address": "0x03c513ffbdbda34b4a66b3052fa5e0e6606e531b",
                    "callData": "0x00000000000000000000000000000000000000000000000000000000000000000000000000000000000000004f391c202a906eed9e2b63fdd387f28e952782e2",
                    "decodedMethod": null,
                    "errorInfo": "",
                    "fromAddress": "0x04abeda201850ac0124161f037efd70c74ddc74c",
                    "gasUsed": 1269,
                    "id": 48,
                    "methodDecoded": false,
                    "operation": "DELEGATECALL",
                    "output": "0x00000000000000000000000000000000000000000000004d1636d9ebcd780000",
                    "revert": false,
                    "revertMessage": "",
                    "selector": "0x4c5e1cae",
                    "status": true,
                    "value": "0"
                },
                "nodeType": 0
            },
            "49": {
                "invocation": {
                    "address": "0x03c513ffbdbda34b4a66b3052fa5e0e6606e531b",
                    "callData": "0x00000000000000000000000000000000000000000000000000000000000000000000000000000000000000004f391c202a906eed9e2b63fdd387f28e952782e20000000000000000000000000000000000000000000000000000000000000000",
                    "decodedMethod": null,
                    "errorInfo": "",
                    "fromAddress": "0x04abeda201850ac0124161f037efd70c74ddc74c",
                    "gasUsed": 2296,
                    "id": 49,
                    "methodDecoded": false,
                    "operation": "DELEGATECALL",
                    "output": "0x0000000000000000000000000000000000000000000000000000000000000001",
                    "revert": false,
                    "revertMessage": "",
                    "selector": "0xab517b4f",
                    "status": true,
                    "value": "0"
                },
                "nodeType": 0
            },
            "5": {
                "invocation": {
                    "address": "0x7dcab2ce58c8e88f57d7b0ff821e5fc7ba13f6d5",
                    "callData": "0x",
                    "decodedMethod": null,
                    "errorInfo": "",
                    "fromAddress": "0x0ae03a8112a036e65dd45040972f19919fd2b4ba",
                    "gasUsed": 0,
                    "id": 5,
                    "methodDecoded": false,
                    "operation": "CALL",
                    "output": "",
                    "revert": false,
                    "revertMessage": "",
                    "selector": "fallback",
                    "status": true,
                    "value": "10"
                },
                "nodeType": 0
            },
            "50": {
                "invocation": {
                    "address": "0x03c513ffbdbda34b4a66b3052fa5e0e6606e531b",
                    "callData": "0x00000000000000000000000000000000000000000000000000000000000000000000000000000000000000006756927922d2a32cb799f261e4abc47652cde54b",
                    "decodedMethod": null,
                    "errorInfo": "",
                    "fromAddress": "0x04abeda201850ac0124161f037efd70c74ddc74c",
                    "gasUsed": 1269,
                    "id": 50,
                    "methodDecoded": false,
                    "operation": "DELEGATECALL",
                    "output": "0x0000000000000000000000000000000000000000000062e2b80f9cebe57dbb2f",
                    "revert": false,
                    "revertMessage": "",
                    "selector": "0x4c5e1cae",
                    "status": true,
                    "value": "0"
                },
                "nodeType": 0
            },
            "51": {
                "invocation": {
                    "address": "0x03c513ffbdbda34b4a66b3052fa5e0e6606e531b",
                    "callData": "0x00000000000000000000000000000000000000000000000000000000000000000000000000000000000000006756927922d2a32cb799f261e4abc47652cde54b00000000000000000000000000000000000000000000632fce4676d7b2f5bb2f",
                    "decodedMethod": null,
                    "errorInfo": "",
                    "fromAddress": "0x04abeda201850ac0124161f037efd70c74ddc74c",
                    "gasUsed": 6496,
                    "id": 51,
                    "methodDecoded": false,
                    "operation": "DELEGATECALL",
                    "output": "0x0000000000000000000000000000000000000000000000000000000000000001",
                    "revert": false,
                    "revertMessage": "",
                    "selector": "0xab517b4f",
                    "status": true,
                    "value": "0"
                },
                "nodeType": 0
            },
            "52": {
                "event": {
                    "contract": "0x04abeda201850ac0124161f037efd70c74ddc74c",
                    "decodedLog": {
                        "name": "Transfer",
                        "params": [
                            {
                                "name": "from",
                                "type": "address",
                                "value": "0x4f391c202a906eed9e2b63fdd387f28e952782e2"
                            },
                            {
                                "name": "to",
                                "type": "address",
                                "value": "0x6756927922d2a32cb799f261e4abc47652cde54b"
                            },
                            {
                                "decimalAvailable": true,
                                "name": "value",
                                "type": "uint256",
                                "value": "1,422,000,000,000,000,000,000"
                            }
                        ],
                        "signature": "Transfer(address,address,uint256)"
                    },
                    "id": 52,
                    "logData": "0x00000000000000000000000000000000000000000000004d1636d9ebcd780000",
                    "logDecoded": true,
                    "operation": "EVENT",
                    "revert": false,
                    "status": true,
                    "topics": [
                        "0xddf252ad1be2c89b69c2b068fc378daa952ba7f163c4a11628f55a4df523b3ef",
                        "0x0000000000000000000000004f391c202a906eed9e2b63fdd387f28e952782e2",
                        "0x0000000000000000000000006756927922d2a32cb799f261e4abc47652cde54b"
                    ]
                },
                "nodeType": 1
            },
            "6": {
                "invocation": {
                    "address": "0xdac17f958d2ee523a2206206994597c13d831ec7",
                    "callData": "0x0000000000000000000000007dcab2ce58c8e88f57d7b0ff821e5fc7ba13f6d50000000000000000000000000000000000000000000000000000000085b176c0",
                    "decodedMethod": {
                        "callParams": [
                            {
                                "name": "_to",
                                "type": "address",
                                "value": "0x7dcab2ce58c8e88f57d7b0ff821e5fc7ba13f6d5"
                            },
                            {
                                "decimalAvailable": true,
                                "name": "_value",
                                "type": "uint256",
                                "value": "2,243,000,000"
                            }
                        ],
                        "constructorArguments": "",
                        "name": "transfer",
                        "returnParams": [],
                        "signature": "transfer(address,uint256)"
                    },
                    "errorInfo": "",
                    "fromAddress": "0x0ae03a8112a036e65dd45040972f19919fd2b4ba",
                    "gasUsed": 19601,
                    "id": 6,
                    "methodDecoded": true,
                    "operation": "CALL",
                    "output": "",
                    "revert": false,
                    "revertMessage": "",
                    "selector": "0xa9059cbb",
                    "status": true,
                    "value": "0"
                },
                "nodeType": 0
            },
            "7": {
                "event": {
                    "contract": "0xdac17f958d2ee523a2206206994597c13d831ec7",
                    "decodedLog": {
                        "name": "Transfer",
                        "params": [
                            {
                                "name": "from",
                                "type": "address",
                                "value": "0x0ae03a8112a036e65dd45040972f19919fd2b4ba"
                            },
                            {
                                "name": "to",
                                "type": "address",
                                "value": "0x7dcab2ce58c8e88f57d7b0ff821e5fc7ba13f6d5"
                            },
                            {
                                "decimalAvailable": true,
                                "name": "value",
                                "type": "uint256",
                                "value": "2,243,000,000"
                            }
                        ],
                        "signature": "Transfer(address,address,uint256)"
                    },
                    "id": 7,
                    "logData": "0x0000000000000000000000000000000000000000000000000000000085b176c0",
                    "logDecoded": true,
                    "operation": "EVENT",
                    "revert": false,
                    "status": true,
                    "topics": [
                        "0xddf252ad1be2c89b69c2b068fc378daa952ba7f163c4a11628f55a4df523b3ef",
                        "0x0000000000000000000000000ae03a8112a036e65dd45040972f19919fd2b4ba",
                        "0x0000000000000000000000007dcab2ce58c8e88f57d7b0ff821e5fc7ba13f6d5"
                    ]
                },
                "nodeType": 1
            },
            "8": {
                "invocation": {
                    "address": "0x0ae03a8112a036e65dd45040972f19919fd2b4ba",
                    "callData": "0x",
                    "decodedMethod": null,
                    "errorInfo": "",
                    "fromAddress": "0x4f391c202a906eed9e2b63fdd387f28e952782e2",
                    "gasUsed": 1020,
                    "id": 8,
                    "methodDecoded": false,
                    "operation": "STATICCALL",
                    "output": "0x000000000000000000000000000000000000000000000000016345785d8a0000",
                    "revert": false,
                    "revertMessage": "",
                    "selector": "0xb4f58a76",
                    "status": true,
                    "value": "0"
                },
                "nodeType": 0
            },
            "9": {
                "invocation": {
                    "address": "0x0ae03a8112a036e65dd45040972f19919fd2b4ba",
                    "callData": "0x",
                    "decodedMethod": null,
                    "errorInfo": "",
                    "fromAddress": "0x4f391c202a906eed9e2b63fdd387f28e952782e2",
                    "gasUsed": 1021,
                    "id": 9,
                    "methodDecoded": false,
                    "operation": "STATICCALL",
                    "output": "0x0000000000000000000000000000000000000000000000000000000000905195",
                    "revert": false,
                    "revertMessage": "",
                    "selector": "0x7aae3c6d",
                    "status": true,
                    "value": "0"
                },
                "nodeType": 0
            }
        },
        "gasFlame": [
            {
                "children": [
                    {
                        "children": [
                            {
                                "children": [],
                                "depth": 0,
                                "name": "Initial Gas",
                                "value": 21432
                            },
                            {
                                "children": [
                                    {
                                        "children": [],
                                        "depth": 1,
                                        "name": "checkContract",
                                        "value": 1219
                                    },
                                    {
                                        "children": [
                                            {
                                                "children": [],
                                                "depth": 2,
                                                "name": "checkBlockLimit",
                                                "value": 1131
                                            },
                                            {
                                                "children": [],
                                                "depth": 2,
                                                "name": "balanceOf",
                                                "value": 2431
                                            },
                                            {
                                                "children": [],
                                                "depth": 2,
                                                "name": "fallback",
                                                "value": 0
                                            },
                                            {
                                                "children": [],
                                                "depth": 2,
                                                "name": "transfer",
                                                "value": 19601
                                            }
                                        ],
                                        "depth": 1,
                                        "name": "0x28a8ef1f",
                                        "value": 50822
                                    },
                                    {
                                        "children": [],
                                        "depth": 1,
                                        "name": "0xb4f58a76",
                                        "value": 1020
                                    },
                                    {
                                        "children": [],
                                        "depth": 1,
                                        "name": "0x7aae3c6d",
                                        "value": 1021
                                    },
                                    {
                                        "children": [],
                                        "depth": 1,
                                        "name": "0x04f0c14e",
                                        "value": 1039
                                    },
                                    {
                                        "children": [
                                            {
                                                "children": [
                                                    {
                                                        "children": [],
                                                        "depth": 3,
                                                        "name": "checkAddress",
                                                        "value": 1805
                                                    },
                                                    {
                                                        "children": [
                                                            {
                                                                "children": [],
                                                                "depth": 4,
                                                                "name": "0x4c5e1cae",
                                                                "value": 1269
                                                            }
                                                        ],
                                                        "depth": 3,
                                                        "name": "balanceOf",
                                                        "value": 3554
                                                    },
                                                    {
                                                        "children": [
                                                            {
                                                                "children": [],
                                                                "depth": 4,
                                                                "name": "0x4c5e1cae",
                                                                "value": 1269
                                                            },
                                                            {
                                                                "children": [],
                                                                "depth": 4,
                                                                "name": "0x4c5e1cae",
                                                                "value": 1269
                                                            },
                                                            {
                                                                "children": [],
                                                                "depth": 4,
                                                                "name": "0xab517b4f",
                                                                "value": 6496
                                                            },
                                                            {
                                                                "children": [],
                                                                "depth": 4,
                                                                "name": "0x4c5e1cae",
                                                                "value": 1269
                                                            },
                                                            {
                                                                "children": [],
                                                                "depth": 4,
                                                                "name": "0xab517b4f",
                                                                "value": 21496
                                                            }
                                                        ],
                                                        "depth": 3,
                                                        "name": "transfer",
                                                        "value": 43563
                                                    }
                                                ],
                                                "depth": 2,
                                                "name": "turnOut",
                                                "value": 56573
                                            }
                                        ],
                                        "depth": 1,
                                        "name": "mining",
                                        "value": 67413
                                    },
                                    {
                                        "children": [
                                            {
                                                "children": [],
                                                "depth": 2,
                                                "name": "0x4c5e1cae",
                                                "value": 1269
                                            },
                                            {
                                                "children": [],
                                                "depth": 2,
                                                "name": "0x4c5e1cae",
                                                "value": 1269
                                            },
                                            {
                                                "children": [],
                                                "depth": 2,
                                                "name": "0xab517b4f",
                                                "value": 2296
                                            },
                                            {
                                                "children": [],
                                                "depth": 2,
                                                "name": "0x4c5e1cae",
                                                "value": 1269
                                            },
                                            {
                                                "children": [],
                                                "depth": 2,
                                                "name": "0xab517b4f",
                                                "value": 6496
                                            }
                                        ],
                                        "depth": 1,
                                        "name": "transfer",
                                        "value": 24363
                                    },
                                    {
                                        "children": [],
                                        "depth": 1,
                                        "name": "approve",
                                        "value": 22456
                                    },
                                    {
                                        "children": [
                                            {
                                                "children": [
                                                    {
                                                        "children": [],
                                                        "depth": 3,
                                                        "name": "0x4c5e1cae",
                                                        "value": 1269
                                                    }
                                                ],
                                                "depth": 2,
                                                "name": "balanceOf",
                                                "value": 3554
                                            },
                                            {
                                                "children": [],
                                                "depth": 2,
                                                "name": "allowance",
                                                "value": 1737
                                            },
                                            {
                                                "children": [
                                                    {
                                                        "children": [],
                                                        "depth": 3,
                                                        "name": "0x4c5e1cae",
                                                        "value": 1269
                                                    },
                                                    {
                                                        "children": [],
                                                        "depth": 3,
                                                        "name": "0x4c5e1cae",
                                                        "value": 1269
                                                    },
                                                    {
                                                        "children": [],
                                                        "depth": 3,
                                                        "name": "0xab517b4f",
                                                        "value": 2296
                                                    },
                                                    {
                                                        "children": [],
                                                        "depth": 3,
                                                        "name": "0x4c5e1cae",
                                                        "value": 1269
                                                    },
                                                    {
                                                        "children": [],
                                                        "depth": 3,
                                                        "name": "0xab517b4f",
                                                        "value": 6496
                                                    }
                                                ],
                                                "depth": 2,
                                                "name": "transferFrom",
                                                "value": 27419
                                            },
                                            {
                                                "children": [
                                                    {
                                                        "children": [],
                                                        "depth": 3,
                                                        "name": "checkAddress",
                                                        "value": 1805
                                                    }
                                                ],
                                                "depth": 2,
                                                "name": "addNest",
                                                "value": 10380
                                            }
                                        ],
                                        "depth": 1,
                                        "name": "bookKeeping",
                                        "value": 53900
                                    },
                                    {
                                        "children": [
                                            {
                                                "children": [],
                                                "depth": 2,
                                                "name": "0x4c5e1cae",
                                                "value": 1269
                                            },
                                            {
                                                "children": [],
                                                "depth": 2,
                                                "name": "0x4c5e1cae",
                                                "value": 1269
                                            },
                                            {
                                                "children": [],
                                                "depth": 2,
                                                "name": "0xab517b4f",
                                                "value": 2296
                                            },
                                            {
                                                "children": [],
                                                "depth": 2,
                                                "name": "0x4c5e1cae",
                                                "value": 1269
                                            },
                                            {
                                                "children": [],
                                                "depth": 2,
                                                "name": "0xab517b4f",
                                                "value": 6496
                                            }
                                        ],
                                        "depth": 1,
                                        "name": "transfer",
                                        "value": 24363
                                    }
                                ],
                                "depth": 0,
                                "name": "Executed Gas",
                                "value": 273776
                            }
                        ],
                        "depth": -1,
                        "name": "Actual Gas Used",
                        "value": 241808
                    },
                    {
                        "children": [],
                        "depth": -1,
                        "name": "Refunded Gas",
                        "value": 53400
                    }
                ],
                "depth": -2,
                "name": "Total Gas",
                "value": 295208
            }
        ],
        "isConfirmed": true,
        "mainTrace": [
            {
                "children": [
                    {
                        "children": [
                            {
                                "children": [],
                                "depth": 1,
                                "id": 1,
                                "order": 1
                            },
                            {
                                "children": [
                                    {
                                        "children": [],
                                        "depth": 2,
                                        "id": 3,
                                        "order": 3
                                    },
                                    {
                                        "children": [],
                                        "depth": 2,
                                        "id": 4,
                                        "order": 4
                                    },
                                    {
                                        "children": [],
                                        "depth": 2,
                                        "id": 5,
                                        "order": 5
                                    },
                                    {
                                        "children": [
                                            {
                                                "children": [],
                                                "depth": 3,
                                                "id": 7,
                                                "order": 7
                                            }
                                        ],
                                        "depth": 2,
                                        "id": 6,
                                        "order": 6
                                    }
                                ],
                                "depth": 1,
                                "id": 2,
                                "order": 2
                            },
                            {
                                "children": [],
                                "depth": 1,
                                "id": 8,
                                "order": 8
                            },
                            {
                                "children": [],
                                "depth": 1,
                                "id": 9,
                                "order": 9
                            },
                            {
                                "children": [],
                                "depth": 1,
                                "id": 10,
                                "order": 10
                            },
                            {
                                "children": [
                                    {
                                        "children": [
                                            {
                                                "children": [],
                                                "depth": 3,
                                                "id": 13,
                                                "order": 13
                                            },
                                            {
                                                "children": [
                                                    {
                                                        "children": [],
                                                        "depth": 4,
                                                        "id": 15,
                                                        "order": 15
                                                    }
                                                ],
                                                "depth": 3,
                                                "id": 14,
                                                "order": 14
                                            },
                                            {
                                                "children": [
                                                    {
                                                        "children": [],
                                                        "depth": 4,
                                                        "id": 17,
                                                        "order": 17
                                                    },
                                                    {
                                                        "children": [],
                                                        "depth": 4,
                                                        "id": 18,
                                                        "order": 18
                                                    },
                                                    {
                                                        "children": [],
                                                        "depth": 4,
                                                        "id": 19,
                                                        "order": 19
                                                    },
                                                    {
                                                        "children": [],
                                                        "depth": 4,
                                                        "id": 20,
                                                        "order": 20
                                                    },
                                                    {
                                                        "children": [],
                                                        "depth": 4,
                                                        "id": 21,
                                                        "order": 21
                                                    },
                                                    {
                                                        "children": [],
                                                        "depth": 4,
                                                        "id": 22,
                                                        "order": 22
                                                    }
                                                ],
                                                "depth": 3,
                                                "id": 16,
                                                "order": 16
                                            }
                                        ],
                                        "depth": 2,
                                        "id": 12,
                                        "order": 12
                                    },
                                    {
                                        "children": [],
                                        "depth": 2,
                                        "id": 23,
                                        "order": 23
                                    }
                                ],
                                "depth": 1,
                                "id": 11,
                                "order": 11
                            },
                            {
                                "children": [
                                    {
                                        "children": [],
                                        "depth": 2,
                                        "id": 25,
                                        "order": 25
                                    },
                                    {
                                        "children": [],
                                        "depth": 2,
                                        "id": 26,
                                        "order": 26
                                    },
                                    {
                                        "children": [],
                                        "depth": 2,
                                        "id": 27,
                                        "order": 27
                                    },
                                    {
                                        "children": [],
                                        "depth": 2,
                                        "id": 28,
                                        "order": 28
                                    },
                                    {
                                        "children": [],
                                        "depth": 2,
                                        "id": 29,
                                        "order": 29
                                    },
                                    {
                                        "children": [],
                                        "depth": 2,
                                        "id": 30,
                                        "order": 30
                                    }
                                ],
                                "depth": 1,
                                "id": 24,
                                "order": 24
                            },
                            {
                                "children": [
                                    {
                                        "children": [],
                                        "depth": 2,
                                        "id": 32,
                                        "order": 32
                                    }
                                ],
                                "depth": 1,
                                "id": 31,
                                "order": 31
                            },
                            {
                                "children": [
                                    {
                                        "children": [
                                            {
                                                "children": [],
                                                "depth": 3,
                                                "id": 35,
                                                "order": 35
                                            }
                                        ],
                                        "depth": 2,
                                        "id": 34,
                                        "order": 34
                                    },
                                    {
                                        "children": [],
                                        "depth": 2,
                                        "id": 36,
                                        "order": 36
                                    },
                                    {
                                        "children": [
                                            {
                                                "children": [],
                                                "depth": 3,
                                                "id": 38,
                                                "order": 38
                                            },
                                            {
                                                "children": [],
                                                "depth": 3,
                                                "id": 39,
                                                "order": 39
                                            },
                                            {
                                                "children": [],
                                                "depth": 3,
                                                "id": 40,
                                                "order": 40
                                            },
                                            {
                                                "children": [],
                                                "depth": 3,
                                                "id": 41,
                                                "order": 41
                                            },
                                            {
                                                "children": [],
                                                "depth": 3,
                                                "id": 42,
                                                "order": 42
                                            },
                                            {
                                                "children": [],
                                                "depth": 3,
                                                "id": 43,
                                                "order": 43
                                            }
                                        ],
                                        "depth": 2,
                                        "id": 37,
                                        "order": 37
                                    },
                                    {
                                        "children": [
                                            {
                                                "children": [],
                                                "depth": 3,
                                                "id": 45,
                                                "order": 45
                                            }
                                        ],
                                        "depth": 2,
                                        "id": 44,
                                        "order": 44
                                    }
                                ],
                                "depth": 1,
                                "id": 33,
                                "order": 33
                            },
                            {
                                "children": [
                                    {
                                        "children": [],
                                        "depth": 2,
                                        "id": 47,
                                        "order": 47
                                    },
                                    {
                                        "children": [],
                                        "depth": 2,
                                        "id": 48,
                                        "order": 48
                                    },
                                    {
                                        "children": [],
                                        "depth": 2,
                                        "id": 49,
                                        "order": 49
                                    },
                                    {
                                        "children": [],
                                        "depth": 2,
                                        "id": 50,
                                        "order": 50
                                    },
                                    {
                                        "children": [],
                                        "depth": 2,
                                        "id": 51,
                                        "order": 51
                                    },
                                    {
                                        "children": [],
                                        "depth": 2,
                                        "id": 52,
                                        "order": 52
                                    }
                                ],
                                "depth": 1,
                                "id": 46,
                                "order": 46
                            }
                        ],
                        "depth": 0,
                        "id": 0,
                        "order": 0
                    }
                ],
                "depth": -1,
                "id": -1,
                "order": -1
            }
        ],
        "mainTraceNodeCount": 53,
        "parentIdMap": {
            "0": -1,
            "1": 0,
            "10": 0,
            "11": 0,
            "12": 11,
            "13": 12,
            "14": 12,
            "15": 14,
            "16": 12,
            "17": 16,
            "18": 16,
            "19": 16,
            "2": 0,
            "20": 16,
            "21": 16,
            "22": 16,
            "23": 11,
            "24": 0,
            "25": 24,
            "26": 24,
            "27": 24,
            "28": 24,
            "29": 24,
            "3": 2,
            "30": 24,
            "31": 0,
            "32": 31,
            "33": 0,
            "34": 33,
            "35": 34,
            "36": 33,
            "37": 33,
            "38": 37,
            "39": 37,
            "4": 2,
            "40": 37,
            "41": 37,
            "42": 37,
            "43": 37,
            "44": 33,
            "45": 44,
            "46": 0,
            "47": 46,
            "48": 46,
            "49": 46,
            "5": 2,
            "50": 46,
            "51": 46,
            "52": 46,
            "6": 2,
            "7": 6,
            "8": 0,
            "9": 0
        },
        "tidyTrace": [
            {
                "children": [
                    {
                        "children": [
                            {
                                "children": [
                                    {
                                        "children": [],
                                        "depth": 2,
                                        "id": 5,
                                        "order": 5
                                    },
                                    {
                                        "children": [
                                            {
                                                "children": [],
                                                "depth": 3,
                                                "id": 7,
                                                "order": 7
                                            }
                                        ],
                                        "depth": 2,
                                        "id": 6,
                                        "order": 6
                                    }
                                ],
                                "depth": 1,
                                "id": 2,
                                "order": 2
                            },
                            {
                                "children": [
                                    {
                                        "children": [
                                            {
                                                "children": [
                                                    {
                                                        "children": [],
                                                        "depth": 4,
                                                        "id": 17,
                                                        "order": 17
                                                    },
                                                    {
                                                        "children": [],
                                                        "depth": 4,
                                                        "id": 18,
                                                        "order": 18
                                                    },
                                                    {
                                                        "children": [],
                                                        "depth": 4,
                                                        "id": 19,
                                                        "order": 19
                                                    },
                                                    {
                                                        "children": [],
                                                        "depth": 4,
                                                        "id": 20,
                                                        "order": 20
                                                    },
                                                    {
                                                        "children": [],
                                                        "depth": 4,
                                                        "id": 21,
                                                        "order": 21
                                                    },
                                                    {
                                                        "children": [],
                                                        "depth": 4,
                                                        "id": 22,
                                                        "order": 22
                                                    }
                                                ],
                                                "depth": 3,
                                                "id": 16,
                                                "order": 16
                                            }
                                        ],
                                        "depth": 2,
                                        "id": 12,
                                        "order": 12
                                    },
                                    {
                                        "children": [],
                                        "depth": 2,
                                        "id": 23,
                                        "order": 23
                                    }
                                ],
                                "depth": 1,
                                "id": 11,
                                "order": 11
                            },
                            {
                                "children": [
                                    {
                                        "children": [],
                                        "depth": 2,
                                        "id": 25,
                                        "order": 25
                                    },
                                    {
                                        "children": [],
                                        "depth": 2,
                                        "id": 26,
                                        "order": 26
                                    },
                                    {
                                        "children": [],
                                        "depth": 2,
                                        "id": 27,
                                        "order": 27
                                    },
                                    {
                                        "children": [],
                                        "depth": 2,
                                        "id": 28,
                                        "order": 28
                                    },
                                    {
                                        "children": [],
                                        "depth": 2,
                                        "id": 29,
                                        "order": 29
                                    },
                                    {
                                        "children": [],
                                        "depth": 2,
                                        "id": 30,
                                        "order": 30
                                    }
                                ],
                                "depth": 1,
                                "id": 24,
                                "order": 24
                            },
                            {
                                "children": [
                                    {
                                        "children": [],
                                        "depth": 2,
                                        "id": 32,
                                        "order": 32
                                    }
                                ],
                                "depth": 1,
                                "id": 31,
                                "order": 31
                            },
                            {
                                "children": [
                                    {
                                        "children": [
                                            {
                                                "children": [],
                                                "depth": 3,
                                                "id": 38,
                                                "order": 38
                                            },
                                            {
                                                "children": [],
                                                "depth": 3,
                                                "id": 39,
                                                "order": 39
                                            },
                                            {
                                                "children": [],
                                                "depth": 3,
                                                "id": 40,
                                                "order": 40
                                            },
                                            {
                                                "children": [],
                                                "depth": 3,
                                                "id": 41,
                                                "order": 41
                                            },
                                            {
                                                "children": [],
                                                "depth": 3,
                                                "id": 42,
                                                "order": 42
                                            },
                                            {
                                                "children": [],
                                                "depth": 3,
                                                "id": 43,
                                                "order": 43
                                            }
                                        ],
                                        "depth": 2,
                                        "id": 37,
                                        "order": 37
                                    },
                                    {
                                        "children": [],
                                        "depth": 2,
                                        "id": 44,
                                        "order": 44
                                    }
                                ],
                                "depth": 1,
                                "id": 33,
                                "order": 33
                            },
                            {
                                "children": [
                                    {
                                        "children": [],
                                        "depth": 2,
                                        "id": 47,
                                        "order": 47
                                    },
                                    {
                                        "children": [],
                                        "depth": 2,
                                        "id": 48,
                                        "order": 48
                                    },
                                    {
                                        "children": [],
                                        "depth": 2,
                                        "id": 49,
                                        "order": 49
                                    },
                                    {
                                        "children": [],
                                        "depth": 2,
                                        "id": 50,
                                        "order": 50
                                    },
                                    {
                                        "children": [],
                                        "depth": 2,
                                        "id": 51,
                                        "order": 51
                                    },
                                    {
                                        "children": [],
                                        "depth": 2,
                                        "id": 52,
                                        "order": 52
                                    }
                                ],
                                "depth": 1,
                                "id": 46,
                                "order": 46
                            }
                        ],
                        "depth": 0,
                        "id": 0,
                        "order": 0
                    }
                ],
                "depth": -1,
                "id": -1,
                "order": -1
            }
        ],
        "tidyTraceNodeCount": 40
    },
    "state_change": {
        "stateChanges": [
            {
                "address": "0x04abeda201850ac0124161f037efd70c74ddc74c",
                "erc": "ERC-20",
                "slots": [
                    {
                        "current": "0x000000000000000000000000000000000000000000040cb5144dde2563800000",
                        "key": "0xe412a96bad2b298c458bf7b73514691538229dfa63f2af53ff923433642ee64f",
                        "prev": "0x0000000000000000000000000000000000000000000407e3b0e03f688c000000"
                    },
                    {
                        "current": "0x00000000000000000000000000000000000000000003a11bafc2c96de1c25cde",
                        "key": "0x2d6513b6605472c7efadbc50dbe28784cd281d4c1856c24ea3d3adb7744076c6",
                        "prev": "0x00000000000000000000000000000000000000000003a0346d1e3baa795a5cde"
                    },
                    {
                        "current": "0x00000000000000000000000000000000000000000000632fce4676d7b2f5bb2f",
                        "key": "0x2503645f384a2a2edb85f9588119b1960647f7b51264973f32910a6d85b4635e",
                        "prev": "0x0000000000000000000000000000000000000000000062e2b80f9cebe57dbb2f"
                    },
                    {
                        "current": "0x00000000000000000000000000000000000000001c61ad9e09bc3a82ed2ffa24",
                        "key": "0x8ce52cd425345d466d1970263517a699faae14acf77cba483719d219e3a5f1bd",
                        "prev": "0x00000000000000000000000000000000000000001c61b3a3c60540eefa8ffa24"
                    }
                ],
                "storageVariables": [
                    {
                        "name": "balances",
                        "type": "struct IterableMapping.itmap",
                        "value": {
                            "fields": [
                                {
                                    "name": "data",
                                    "type": "mapping(address => struct IterableMapping.IndexValue)",
                                    "value": {
                                        "pairs": [
                                            {
                                                "key": "0x101d8b63a081dfff2b1364864345b7f071b052ac",
                                                "value": {
                                                    "fields": [
                                                        {
                                                            "name": "value",
                                                            "type": "uint256",
                                                            "value": {
                                                                "current": "4387589189582466456902878",
                                                                "prev": "4383323189582466456902878",
                                                                "typeTag": 1
                                                            }
                                                        }
                                                    ],
                                                    "typeTag": 3
                                                }
                                            },
                                            {
                                                "key": "0x6756927922d2a32cb799f261e4abc47652cde54b",
                                                "value": {
                                                    "fields": [
                                                        {
                                                            "name": "value",
                                                            "type": "uint256",
                                                            "value": {
                                                                "current": "468396142473848200477487",
                                                                "prev": "466974142473848200477487",
                                                                "typeTag": 1
                                                            }
                                                        }
                                                    ],
                                                    "typeTag": 3
                                                }
                                            },
                                            {
                                                "key": "0x7dcab2ce58c8e88f57d7b0ff821e5fc7ba13f6d5",
                                                "value": {
                                                    "fields": [
                                                        {
                                                            "name": "value",
                                                            "type": "uint256",
                                                            "value": {
                                                                "current": "4895712000000000000000000",
                                                                "prev": "4872960000000000000000000",
                                                                "typeTag": 1
                                                            }
                                                        }
                                                    ],
                                                    "typeTag": 3
                                                }
                                            },
                                            {
                                                "key": "0x923f80828663e44e0ffd5eb499686dc1ccc78476",
                                                "value": {
                                                    "fields": [
                                                        {
                                                            "name": "value",
                                                            "type": "uint256",
                                                            "value": {
                                                                "current": "8783665964188881024933952036",
                                                                "prev": "8783694404188881024933952036",
                                                                "typeTag": 1
                                                            }
                                                        }
                                                    ],
                                                    "typeTag": 3
                                                }
                                            }
                                        ],
                                        "typeTag": 4
                                    }
                                }
                            ],
                            "typeTag": 3
                        }
                    }
                ]
            },
            {
                "address": "0x0ae03a8112a036e65dd45040972f19919fd2b4ba",
                "erc": "",
                "slots": [
                    {
                        "current": "0x00000000000000000000005e7db2ffc5b2c7c47103e4f21c702bc402603fbf01",
                        "key": "0x0000000000000000000000000000000000000000000000000000000000000008",
                        "prev": "0x00000000000000000000005e7db2ffc5b2c7c47103e4f21c702bc402603fbf00"
                    }
                ],
                "storageVariables": []
            },
            {
                "address": "0xb086f99e36c2c0ef6c051ee9e4d638717bbc6cbc",
                "erc": "",
                "slots": [
                    {
                        "current": "0x0000000000000000000000000000000000000000003cc60e9c7d032a0742585e",
                        "key": "0x0000000000000000000000000000000000000000000000000000000000000001",
                        "prev": "0x0000000000000000000000000000000000000000003cc52759d875669eda585e"
                    }
                ],
                "storageVariables": [
                    {
                        "name": "nodeAllAmount",
                        "type": "uint256",
                        "value": {
                            "current": "73470847271075493219293278",
                            "prev": "73466581271075493219293278",
                            "typeTag": 1
                        }
                    }
                ]
            },
            {
                "address": "0xdac17f958d2ee523a2206206994597c13d831ec7",
                "erc": "ERC-20",
                "slots": [
                    {
                        "current": "0x0000000000000000000000000000000000000000000000000000000000000000",
                        "key": "0xa4253c7e004ab52ebfb329f285f6caebe9c46021e02f80b265491b0f5c4fcb3c",
                        "prev": "0x0000000000000000000000000000000000000000000000000000000085b176c0"
                    },
                    {
                        "current": "0x000000000000000000000000000000000000000000000000000000017cdfa980",
                        "key": "0x212619d53aa617d70fac4da1fbf6008171fb38a60fe94be9ced7d4b643853c7b",
                        "prev": "0x00000000000000000000000000000000000000000000000000000000f72e32c0"
                    }
                ],
                "storageVariables": [
                    {
                        "name": "balances",
                        "type": "mapping(address => uint256)",
                        "value": {
                            "pairs": [
                                {
                                    "key": "0x0ae03a8112a036e65dd45040972f19919fd2b4ba",
                                    "value": {
                                        "current": "0",
                                        "prev": "2243000000",
                                        "typeTag": 1
                                    }
                                },
                                {
                                    "key": "0x7dcab2ce58c8e88f57d7b0ff821e5fc7ba13f6d5",
                                    "value": {
                                        "current": "6390000000",
                                        "prev": "4147000000",
                                        "typeTag": 1
                                    }
                                }
                            ],
                            "typeTag": 4
                        }
                    }
                ]
            }
        ]
    }
}