{
    "balance_change": {
        "balanceChanges": [
            {
                "account": "0x6bcc373acf5960473af2cac8ecf841163d860dd2",
                "assets": [
                    {
                        "address": "0x1fdbf64fffa3f3fbdbe8cb5a54fff99c991d06be",
                        "amount": "10",
                        "iconUrl": "",
                        "isERC1155": false,
                        "isERC721": false,
                        "sign": false,
                        "value": ""
                    }
                ]
            },
            {
                "account": "0x17c23d3c2bf082bf77b5e51750795d32406eff5a",
                "assets": [
                    {
                        "address": "0x1fdbf64fffa3f3fbdbe8cb5a54fff99c991d06be",
                        "amount": "10",
                        "iconUrl": "",
                        "isERC1155": false,
                        "isERC721": false,
                        "sign": true,
                        "value": ""
                    }
                ]
            }
        ]
    },
    "profile": {
        "basic_info": {
            "baseFee": "",
            "blockNumber": 9506457,
            "callData": "0xa9059cbb00000000000000000000000017c23d3c2bf082bf77b5e51750795d32406eff5a00000000000000000000000000000000000000000000000000000002540be400",
            "debugEnable": true,
            "errorInfo": "",
            "eventCount": 1,
            "feeRecipient": "0xea674fdde714fd979de3edf0f56aa9716b898ec8",
            "formatValue": "0",
            "gasLimit": 60000,
            "gasPrice": "9.25",
            "gasUsed": 52241,
            "intTxnCount": 0,
            "internalRevert": false,
            "internalRevertMessage": "",
            "isContractCreation": false,
            "isFlashloan": false,
            "maxFee": "",
            "nonce": 111,
            "overwritedBlockNumber": -1,
            "priorityFee": "",
            "receiver": "0x1fdbf64fffa3f3fbdbe8cb5a54fff99c991d06be",
            "revertMessage": "",
            "sender": "0x6bcc373acf5960473af2cac8ecf841163d860dd2",
            "simulationEnable": true,
            "sourceTxnHash": "0x3294d151f5afd0b62c266a0d93baff8cdd9bf266bdb73b34614ccef33e1eff69",
            "status": true,
            "timestamp": "2020-02-18T10:04:23Z",
            "transactionFee": "0.00048322925",
            "txnHash": "0x3294d151f5afd0b62c266a0d93baff8cdd9bf266bdb73b34614ccef33e1eff69",
            "txnIndex": 129,
            "type": 0,
            "value": "0"
        },
        "fund_flow": [
            {
                "amount": "10",
                "from": "0x6bcc373acf5960473af2cac8ecf841163d860dd2",
                "id": 1,
                "isERC1155": false,
                "isERC721": false,
                "isReverted": false,
                "order": 1,
                "to": "0x17c23d3c2bf082bf77b5e51750795d32406eff5a",
                "token": "0x1fdbf64fffa3f3fbdbe8cb5a54fff99c991d06be"
            }
        ],
        "token_infos": [
            {
                "address": "0x1fdbf64fffa3f3fbdbe8cb5a54fff99c991d06be",
                "decimals": 9
            },
            {
                "address": "0xc02aaa39b223fe8d0a0e5c4f27ead9083c756cc2",
                "decimals": 18
            },
            {
                "address": "0xeeeeeeeeeeeeeeeeeeeeeeeeeeeeeeeeeeeeeeee",
                "decimals": 18
            }
        ]
    },
    "address_label": {
        "labels": [
            {
                "address": "0x0000000000000000000000000000000000000001",
                "label": "Precompiled"
            },
            {
                "address": "0x0000000000000000000000000000000000000002",
                "label": "Precompiled"
            },
            {
                "address": "0x0000000000000000000000000000000000000003",
                "label": "Precompiled"
            },
            {
                "address": "0x0000000000000000000000000000000000000004",
                "label": "Precompiled"
            },
            {
                "address": "0xeeeeeeeeeeeeeeeeeeeeeeeeeeeeeeeeeeeeeeee",
                "label": "Ether"
            },
            {
                "address": "0x1fdbf64fffa3f3fbdbe8cb5a54fff99c991d06be",
                "label": "9Token: 9TK Token"
            }
        ]
    },
    "trace": {
        "accountLabels": null,
        "dataMap": {
            "-1": {
                "invocation": {
                    "address": "0x6bcc373acf5960473af2cac8ecf841163d860dd2",
                    "callData": "",
                    "decodedMethod": null,
                    "errorInfo": "",
                    "fromAddress": "",
                    "gasUsed": 0,
                    "id": -1,
                    "methodDecoded": false,
                    "operation": "",
                    "output": "",
                    "revert": false,
                    "revertMessage": "",
                    "selector": "",
                    "status": false,
                    "value": ""
                },
                "nodeType": 0
            },
            "0": {
                "invocation": {
                    "address": "0x1fdbf64fffa3f3fbdbe8cb5a54fff99c991d06be",
                    "callData": "0x00000000000000000000000017c23d3c2bf082bf77b5e51750795d32406eff5a00000000000000000000000000000000000000000000000000000002540be400",
                    "decodedMethod": {
                        "callParams": [
                            {
                                "name": "_to",
                                "type": "address",
                                "value": "0x17c23d3c2bf082bf77b5e51750795d32406eff5a"
                            },
                            {
                                "decimalAvailable": true,
                                "name": "_value",
                                "type": "uint256",
                                "value": "10,000,000,000"
                            }
                        ],
                        "constructorArguments": "",
                        "name": "transfer",
                        "returnParams": [],
                        "signature": "transfer(address,uint256)"
                    },
                    "errorInfo": "",
                    "fromAddress": "0x6bcc373acf5960473af2cac8ecf841163d860dd2",
                    "gasUsed": 52241,
                    "id": 0,
                    "methodDecoded": true,
                    "operation": "CALL",
                    "output": "",
                    "revert": false,
                    "revertMessage": "",
                    "selector": "0xa9059cbb",
                    "status": true,
                    "value": "0"
                },
                "nodeType": 0
            },
            "1": {
                "event": {
                    "contract": "0x1fdbf64fffa3f3fbdbe8cb5a54fff99c991d06be",
                    "decodedLog": {
                        "name": "Transfer",
                        "params": [
                            {
                                "name": "from",
                                "type": "address",
                                "value": "0x6bcc373acf5960473af2cac8ecf841163d860dd2"
                            },
                            {
                                "name": "to",
                                "type": "address",
                                "value": "0x17c23d3c2bf082bf77b5e51750795d32406eff5a"
                            },
                            {
                                "decimalAvailable": true,
                                "name": "value",
                                "type": "uint256",
                                "value": "10,000,000,000"
                            }
                        ],
                        "signature": "Transfer(address,address,uint256)"
                    },
                    "id": 1,
                    "logData": "0x00000000000000000000000000000000000000000000000000000002540be400",
                    "logDecoded": true,
                    "operation": "EVENT",
                    "revert": false,
                    "status": true,
                    "topics": [
                        "0xddf252ad1be2c89b69c2b068fc378daa952ba7f163c4a11628f55a4df523b3ef",
                        "0x0000000000000000000000006bcc373acf5960473af2cac8ecf841163d860dd2",
                        "0x00000000000000000000000017c23d3c2bf082bf77b5e51750795d32406eff5a"
                    ]
                },
                "nodeType": 1
            }
        },
        "gasFlame": [
            {
                "children": [
                    {
                        "children": [
                            {
                                "children": [],
                                "depth": 0,
                                "name": "Initial Gas",
                                "value": 21608
                            },
                            {
                                "children": [],
                                "depth": 0,
                                "name": "Executed Gas",
                                "value": 30633
                            }
                        ],
                        "depth": -1,
                        "name": "Actual Gas Used",
                        "value": 52241
                    },
                    {
                        "children": [],
                        "depth": -1,
                        "name": "Refunded Gas",
                        "value": 0
                    }
                ],
                "depth": -2,
                "name": "Total Gas",
                "value": 52241
            }
        ],
        "isConfirmed": true,
        "mainTrace": [
            {
                "children": [
                    {
                        "children": [
                            {
                                "children": [],
                                "depth": 1,
                                "id": 1,
                                "order": 1
                            }
                        ],
                        "depth": 0,
                        "id": 0,
                        "order": 0
                    }
                ],
                "depth": -1,
                "id": -1,
                "order": -1
            }
        ],
        "mainTraceNodeCount": 2,
        "parentIdMap": {
            "0": -1,
            "1": 0
        },
        "tidyTrace": [
            {
                "children": [
                    {
                        "children": [
                            {
                                "children": [],
                                "depth": 1,
                                "id": 1,
                                "order": 1
                            }
                        ],
                        "depth": 0,
                        "id": 0,
                        "order": 0
                    }
                ],
                "depth": -1,
                "id": -1,
                "order": -1
            }
        ],
        "tidyTraceNodeCount": 2
    },
    "state_change": {
        "stateChanges": [
            {
                "address": "0x1fdbf64fffa3f3fbdbe8cb5a54fff99c991d06be",
                "erc": "ERC-20",
                "slots": [
                    {
                        "current": "0x00000000000000000000000000000000000000000000000000000845d3d95000",
                        "key": "0xb9a93496466521dc3613157dffd4e266a654f093ad81651a068c8dc50b57c8f9",
                        "prev": "0x0000000000000000000000000000000000000000000000000000084827e53400"
                    },
                    {
                        "current": "0x00000000000000000000000000000000000000000000000000000002540be400",
                        "key": "0x67a872cfa23e28822443bf277d3186af246db9167c73e01b50b40f0ba8eeb0d8",
                        "prev": "0x0000000000000000000000000000000000000000000000000000000000000000"
                    }
                ],
                "storageVariables": [
                    {
                        "name": "balances",
                        "type": "mapping(address => uint256)",
                        "value": {
                            "pairs": [
                                {
                                    "key": "0x17c23d3c2bf082bf77b5e51750795d32406eff5a",
                                    "value": {
                                        "current": "10000000000",
                                        "prev": "0",
                                        "typeTag": 1
                                    }
                                },
                                {
                                    "key": "0x6bcc373acf5960473af2cac8ecf841163d860dd2",
                                    "value": {
                                        "current": "9096000000000",
                                        "prev": "9106000000000",
                                        "typeTag": 1
                                    }
                                }
                            ],
                            "typeTag": 4
                        }
                    }
                ]
            }
        ]
    }
}