{
    "balance_change": {
        "balanceChanges": [
            {
                "account": "0xc1ed1e0d5bbf466e0860f93b51638da524d322e3",
                "assets": [
                    {
                        "address": "0x861c476597920dbf47672a1230acffd165b14815",
                        "amount": "44.1166667",
                        "iconUrl": "",
                        "isERC1155": false,
                        "isERC721": false,
                        "sign": false,
                        "value": ""
                    }
                ]
            },
            {
                "account": "0xde93f610444657cedf2660ffe457578088ccbb96",
                "assets": [
                    {
                        "address": "0x861c476597920dbf47672a1230acffd165b14815",
                        "amount": "44.1166667",
                        "iconUrl": "",
                        "isERC1155": false,
                        "isERC721": false,
                        "sign": true,
                        "value": ""
                    }
                ]
            }
        ]
    },
    "profile": {
        "basic_info": {
            "baseFee": "",
            "blockNumber": 5749966,
            "callData": "0x72262699000000000000000000000000c1ed1e0d5bbf466e0860f93b51638da524d322e3000000000000000000000000000000000000000000000000000000000000000000000000000000000000000000000000000000000000000000000000000000e00000000000000000000000000000000000000000000000000000002395d987c8000000000000000000000000000000000000000000000000000000000000001c62f25793952d1589cd303ee6816bc4adb9a7468c8313d1af34495142935b39c715f86e18f3fad65eddd79ae979bf89fbc1ba3ba8a05bf65b72fcbae6ece94b6a00000000000000000000000000000000000000000000000000000000000000e469a5e902000000000000000000000000861c476597920dbf47672a1230acffd165b14815000000000000000000000000000000000000000000000000000000000000000000000000000000000000000000000000000000000000000000000000000000600000000000000000000000000000000000000000000000000000000000000044a9059cbb000000000000000000000000de93f610444657cedf2660ffe457578088ccbb960000000000000000000000000000000000000000000000000000000106f4b0ee0000000000000000000000000000000000000000000000000000000000000000000000000000000000000000000000000000000000000000",
            "debugEnable": true,
            "errorInfo": "",
            "eventCount": 3,
            "feeRecipient": "0x829bd824b016326a401d083b33d092293333a830",
            "formatValue": "0",
            "gasLimit": 1000000,
            "gasPrice": "21.000000001",
            "gasUsed": 87765,
            "intTxnCount": 17,
            "internalRevert": true,
            "internalRevertMessage": "",
            "isContractCreation": false,
            "isFlashloan": false,
            "maxFee": "",
            "nonce": 7707,
            "overwritedBlockNumber": -1,
            "priorityFee": "",
            "receiver": "0x0e6cd57b9bd631f730db9e409010110ebfddfb13",
            "revertMessage": "",
            "sender": "0x359b107e897da644969eecb09a3a6a1ee0105334",
            "simulationEnable": true,
            "sourceTxnHash": "0x32b510d20b78620312f0d81988c264cdd9a91c1b8ef073d9ef0e8795b563a714",
            "status": true,
            "timestamp": "2018-06-07T22:14:59Z",
            "transactionFee": "0.001843065000087765",
            "txnHash": "0x32b510d20b78620312f0d81988c264cdd9a91c1b8ef073d9ef0e8795b563a714",
            "txnIndex": 72,
            "type": 0,
            "value": "0"
        },
        "fund_flow": [
            {
                "amount": "44.1166667",
                "from": "0xc1ed1e0d5bbf466e0860f93b51638da524d322e3",
                "id": 1,
                "isERC1155": false,
                "isERC721": false,
                "isReverted": false,
                "order": 1,
                "to": "0xde93f610444657cedf2660ffe457578088ccbb96",
                "token": "0x861c476597920dbf47672a1230acffd165b14815"
            }
        ],
        "token_infos": [
            {
                "address": "0x861c476597920dbf47672a1230acffd165b14815",
                "decimals": 8
            },
            {
                "address": "0xc02aaa39b223fe8d0a0e5c4f27ead9083c756cc2",
                "decimals": 18
            },
            {
                "address": "0xeeeeeeeeeeeeeeeeeeeeeeeeeeeeeeeeeeeeeeee",
                "decimals": 18
            }
        ]
    },
    "address_label": {
        "labels": [
            {
                "address": "0x0000000000000000000000000000000000000003",
                "label": "Precompiled"
            },
            {
                "address": "0xeeeeeeeeeeeeeeeeeeeeeeeeeeeeeeeeeeeeeeee",
                "label": "Ether"
            },
            {
                "address": "0x861c476597920dbf47672a1230acffd165b14815",
                "label": "Care Administration Network (CAN)"
            },
            {
                "address": "0x331d077518216c07c87f4f18ba64cd384c411f84",
                "label": "EToken2"
            },
            {
                "address": "0x0000000000000000000000000000000000000001",
                "label": "Precompiled"
            },
            {
                "address": "0x0000000000000000000000000000000000000002",
                "label": "Precompiled"
            },
            {
                "address": "0x60bf91ac87fee5a78c28f7b67701fbcfa79c18ec",
                "label": "historyEToken"
            },
            {
                "address": "0x0000000000000000000000000000000000000004",
                "label": "Precompiled"
            },
            {
                "address": "0x4e8703a59fec01a97d4d2d76271e4f086dbb52fc",
                "label": "MultiAssetEmitter"
            },
            {
                "address": "0x73539d08c87c0f801747c6e263a37137a688abb6",
                "label": "Asset"
            }
        ]
    },
    "trace": {
        "accountLabels": null,
        "dataMap": {
            "-1": {
                "invocation": {
                    "address": "0x359b107e897da644969eecb09a3a6a1ee0105334",
                    "callData": "",
                    "decodedMethod": null,
                    "errorInfo": "",
                    "fromAddress": "",
                    "gasUsed": 0,
                    "id": -1,
                    "methodDecoded": false,
                    "operation": "",
                    "output": "",
                    "revert": false,
                    "revertMessage": "",
                    "selector": "",
                    "status": false,
                    "value": ""
                },
                "nodeType": 0
            },
            "0": {
                "invocation": {
                    "address": "0x0e6cd57b9bd631f730db9e409010110ebfddfb13",
                    "callData": "0x000000000000000000000000c1ed1e0d5bbf466e0860f93b51638da524d322e3000000000000000000000000000000000000000000000000000000000000000000000000000000000000000000000000000000000000000000000000000000e00000000000000000000000000000000000000000000000000000002395d987c8000000000000000000000000000000000000000000000000000000000000001c62f25793952d1589cd303ee6816bc4adb9a7468c8313d1af34495142935b39c715f86e18f3fad65eddd79ae979bf89fbc1ba3ba8a05bf65b72fcbae6ece94b6a00000000000000000000000000000000000000000000000000000000000000e469a5e902000000000000000000000000861c476597920dbf47672a1230acffd165b14815000000000000000000000000000000000000000000000000000000000000000000000000000000000000000000000000000000000000000000000000000000600000000000000000000000000000000000000000000000000000000000000044a9059cbb000000000000000000000000de93f610444657cedf2660ffe457578088ccbb960000000000000000000000000000000000000000000000000000000106f4b0ee0000000000000000000000000000000000000000000000000000000000000000000000000000000000000000000000000000000000000000",
                    "decodedMethod": null,
                    "errorInfo": "",
                    "fromAddress": "0x359b107e897da644969eecb09a3a6a1ee0105334",
                    "gasUsed": 87765,
                    "id": 0,
                    "methodDecoded": false,
                    "operation": "CALL",
                    "output": "0x0000000000000000000000000000000000000000000000000000000000000001",
                    "revert": false,
                    "revertMessage": "",
                    "selector": "0x72262699",
                    "status": true,
                    "value": "0"
                },
                "nodeType": 0
            },
            "1": {
                "invocation": {
                    "address": "0xc3b2ae46792547a96b9f84405e36d0e07edcd05c",
                    "callData": "0x000000000000000000000000c1ed1e0d5bbf466e0860f93b51638da524d322e3000000000000000000000000000000000000000000000000000000000000000000000000000000000000000000000000000000000000000000000000000000e00000000000000000000000000000000000000000000000000000002395d987c8000000000000000000000000000000000000000000000000000000000000001c62f25793952d1589cd303ee6816bc4adb9a7468c8313d1af34495142935b39c715f86e18f3fad65eddd79ae979bf89fbc1ba3ba8a05bf65b72fcbae6ece94b6a00000000000000000000000000000000000000000000000000000000000000e469a5e902000000000000000000000000861c476597920dbf47672a1230acffd165b14815000000000000000000000000000000000000000000000000000000000000000000000000000000000000000000000000000000000000000000000000000000600000000000000000000000000000000000000000000000000000000000000044a9059cbb000000000000000000000000de93f610444657cedf2660ffe457578088ccbb960000000000000000000000000000000000000000000000000000000106f4b0ee0000000000000000000000000000000000000000000000000000000000000000000000000000000000000000000000000000000000000000",
                    "decodedMethod": null,
                    "errorInfo": "",
                    "fromAddress": "0x0e6cd57b9bd631f730db9e409010110ebfddfb13",
                    "gasUsed": 129092,
                    "id": 1,
                    "methodDecoded": false,
                    "operation": "DELEGATECALL",
                    "output": "0x0000000000000000000000000000000000000000000000000000000000000001",
                    "revert": false,
                    "revertMessage": "",
                    "selector": "0x72262699",
                    "status": true,
                    "value": "0"
                },
                "nodeType": 0
            },
            "10": {
                "invocation": {
                    "address": "0x861c476597920dbf47672a1230acffd165b14815",
                    "callData": "0x000000000000000000000000de93f610444657cedf2660ffe457578088ccbb960000000000000000000000000000000000000000000000000000000106f4b0ee00000000000000000000000000000000000000000000000000000000",
                    "decodedMethod": {
                        "callParams": [
                            {
                                "name": "_to",
                                "type": "address",
                                "value": "0xde93f610444657cedf2660ffe457578088ccbb96"
                            },
                            {
                                "decimalAvailable": true,
                                "name": "_value",
                                "type": "uint256",
                                "value": "4,411,666,670"
                            }
                        ],
                        "constructorArguments": "",
                        "name": "transfer",
                        "returnParams": [
                            {
                                "name": "",
                                "type": "bool",
                                "value": true
                            }
                        ],
                        "signature": "transfer(address,uint256)"
                    },
                    "errorInfo": "",
                    "fromAddress": "0xc1ed1e0d5bbf466e0860f93b51638da524d322e3",
                    "gasUsed": 40701,
                    "id": 10,
                    "methodDecoded": true,
                    "operation": "CALL",
                    "output": "0x0000000000000000000000000000000000000000000000000000000000000001",
                    "revert": false,
                    "revertMessage": "",
                    "selector": "0xa9059cbb",
                    "status": true,
                    "value": "0"
                },
                "nodeType": 0
            },
            "11": {
                "invocation": {
                    "address": "0x73539d08c87c0f801747c6e263a37137a688abb6",
                    "callData": "0x000000000000000000000000de93f610444657cedf2660ffe457578088ccbb960000000000000000000000000000000000000000000000000000000106f4b0ee0000000000000000000000000000000000000000000000000000000000000080000000000000000000000000c1ed1e0d5bbf466e0860f93b51638da524d322e30000000000000000000000000000000000000000000000000000000000000000",
                    "decodedMethod": {
                        "callParams": [
                            {
                                "name": "_to",
                                "type": "address",
                                "value": "0xde93f610444657cedf2660ffe457578088ccbb96"
                            },
                            {
                                "name": "_value",
                                "type": "uint256",
                                "value": "4,411,666,670"
                            },
                            {
                                "name": "_reference",
                                "type": "string",
                                "value": ""
                            },
                            {
                                "name": "_sender",
                                "type": "address",
                                "value": "0xc1ed1e0d5bbf466e0860f93b51638da524d322e3"
                            }
                        ],
                        "constructorArguments": "",
                        "name": "_performTransferWithReference",
                        "returnParams": [
                            {
                                "name": "",
                                "type": "bool",
                                "value": true
                            }
                        ],
                        "signature": "_performTransferWithReference(address,uint256,string,address)"
                    },
                    "errorInfo": "",
                    "fromAddress": "0x861c476597920dbf47672a1230acffd165b14815",
                    "gasUsed": 37390,
                    "id": 11,
                    "methodDecoded": true,
                    "operation": "CALL",
                    "output": "0x0000000000000000000000000000000000000000000000000000000000000001",
                    "revert": false,
                    "revertMessage": "",
                    "selector": "0x1962df71",
                    "status": true,
                    "value": "0"
                },
                "nodeType": 0
            },
            "12": {
                "invocation": {
                    "address": "0x861c476597920dbf47672a1230acffd165b14815",
                    "callData": "0x000000000000000000000000c1ed1e0d5bbf466e0860f93b51638da524d322e3000000000000000000000000de93f610444657cedf2660ffe457578088ccbb960000000000000000000000000000000000000000000000000000000106f4b0ee00000000000000000000000000000000000000000000000000000000000000a0000000000000000000000000c1ed1e0d5bbf466e0860f93b51638da524d322e30000000000000000000000000000000000000000000000000000000000000000",
                    "decodedMethod": {
                        "callParams": [
                            {
                                "name": "_from",
                                "type": "address",
                                "value": "0xc1ed1e0d5bbf466e0860f93b51638da524d322e3"
                            },
                            {
                                "name": "_to",
                                "type": "address",
                                "value": "0xde93f610444657cedf2660ffe457578088ccbb96"
                            },
                            {
                                "name": "_value",
                                "type": "uint256",
                                "value": "4,411,666,670"
                            },
                            {
                                "name": "_reference",
                                "type": "string",
                                "value": ""
                            },
                            {
                                "name": "_sender",
                                "type": "address",
                                "value": "0xc1ed1e0d5bbf466e0860f93b51638da524d322e3"
                            }
                        ],
                        "constructorArguments": "",
                        "name": "_forwardTransferFromWithReference",
                        "returnParams": [
                            {
                                "name": "",
                                "type": "bool",
                                "value": true
                            }
                        ],
                        "signature": "_forwardTransferFromWithReference(address,address,uint256,string,address)"
                    },
                    "errorInfo": "",
                    "fromAddress": "0x73539d08c87c0f801747c6e263a37137a688abb6",
                    "gasUsed": 34594,
                    "id": 12,
                    "methodDecoded": true,
                    "operation": "CALL",
                    "output": "0x0000000000000000000000000000000000000000000000000000000000000001",
                    "revert": false,
                    "revertMessage": "",
                    "selector": "0x14cba002",
                    "status": true,
                    "value": "0"
                },
                "nodeType": 0
            },
            "13": {
                "invocation": {
                    "address": "0x331d077518216c07c87f4f18ba64cd384c411f84",
                    "callData": "0x000000000000000000000000c1ed1e0d5bbf466e0860f93b51638da524d322e3000000000000000000000000de93f610444657cedf2660ffe457578088ccbb960000000000000000000000000000000000000000000000000000000106f4b0ee43414e000000000000000000000000000000000000000000000000000000000000000000000000000000000000000000000000000000000000000000000000c0000000000000000000000000c1ed1e0d5bbf466e0860f93b51638da524d322e30000000000000000000000000000000000000000000000000000000000000000",
                    "decodedMethod": {
                        "callParams": [
                            {
                                "name": "_from",
                                "type": "address",
                                "value": "0xc1ed1e0d5bbf466e0860f93b51638da524d322e3"
                            },
                            {
                                "name": "_to",
                                "type": "address",
                                "value": "0xde93f610444657cedf2660ffe457578088ccbb96"
                            },
                            {
                                "name": "_value",
                                "type": "uint256",
                                "value": "4,411,666,670"
                            },
                            {
                                "name": "_symbol",
                                "type": "bytes32",
                                "value": "0x43414e0000000000000000000000000000000000000000000000000000000000"
                            },
                            {
                                "name": "_reference",
                                "type": "string",
                                "value": ""
                            },
                            {
                                "name": "_sender",
                                "type": "address",
                                "value": "0xc1ed1e0d5bbf466e0860f93b51638da524d322e3"
                            }
                        ],
                        "constructorArguments": "",
                        "name": "proxyTransferFromWithReference",
                        "returnParams": [
                            {
                                "name": "",
                                "type": "bool",
                                "value": true
                            }
                        ],
                        "signature": "proxyTransferFromWithReference(address,address,uint256,bytes32,string,address)"
                    },
                    "errorInfo": "",
                    "fromAddress": "0x861c476597920dbf47672a1230acffd165b14815",
                    "gasUsed": 31138,
                    "id": 13,
                    "methodDecoded": true,
                    "operation": "CALL",
                    "output": "0x0000000000000000000000000000000000000000000000000000000000000001",
                    "revert": false,
                    "revertMessage": "",
                    "selector": "0x161ff662",
                    "status": true,
                    "value": "0"
                },
                "nodeType": 0
            },
            "14": {
                "invocation": {
                    "address": "0x60bf91ac87fee5a78c28f7b67701fbcfa79c18ec",
                    "callData": "0x000000000000000000000000c1ed1e0d5bbf466e0860f93b51638da524d322e3000000000000000000000000de93f610444657cedf2660ffe457578088ccbb9643414e00000000000000000000000000000000000000000000000000000000000000000000000000000000000000000000000000000000000000000106f4b0ee00000000000000000000000000000000000000000000000000000000000000a00000000000000000000000000000000000000000000000000000000000000000",
                    "decodedMethod": {
                        "callParams": [
                            {
                                "name": "_from",
                                "type": "address",
                                "value": "0xc1ed1e0d5bbf466e0860f93b51638da524d322e3"
                            },
                            {
                                "name": "_to",
                                "type": "address",
                                "value": "0xde93f610444657cedf2660ffe457578088ccbb96"
                            },
                            {
                                "name": "_symbol",
                                "type": "bytes32",
                                "value": "0x43414e0000000000000000000000000000000000000000000000000000000000"
                            },
                            {
                                "name": "_value",
                                "type": "uint256",
                                "value": "4,411,666,670"
                            },
                            {
                                "name": "_reference",
                                "type": "string",
                                "value": ""
                            }
                        ],
                        "constructorArguments": "",
                        "name": "emitTransfer",
                        "returnParams": [],
                        "signature": "emitTransfer(address,address,bytes32,uint256,string)"
                    },
                    "errorInfo": "",
                    "fromAddress": "0x331d077518216c07c87f4f18ba64cd384c411f84",
                    "gasUsed": 8102,
                    "id": 14,
                    "methodDecoded": true,
                    "operation": "CALL",
                    "output": "",
                    "revert": false,
                    "revertMessage": "",
                    "selector": "0x515c1457",
                    "status": true,
                    "value": "0"
                },
                "nodeType": 0
            },
            "15": {
                "invocation": {
                    "address": "0x4e8703a59fec01a97d4d2d76271e4f086dbb52fc",
                    "callData": "0x000000000000000000000000c1ed1e0d5bbf466e0860f93b51638da524d322e3000000000000000000000000de93f610444657cedf2660ffe457578088ccbb9643414e00000000000000000000000000000000000000000000000000000000000000000000000000000000000000000000000000000000000000000106f4b0ee00000000000000000000000000000000000000000000000000000000000000a00000000000000000000000000000000000000000000000000000000000000000",
                    "decodedMethod": {
                        "callParams": [
                            {
                                "name": "_from",
                                "type": "address",
                                "value": "0xc1ed1e0d5bbf466e0860f93b51638da524d322e3"
                            },
                            {
                                "name": "_to",
                                "type": "address",
                                "value": "0xde93f610444657cedf2660ffe457578088ccbb96"
                            },
                            {
                                "name": "_symbol",
                                "type": "bytes32",
                                "value": "0x43414e0000000000000000000000000000000000000000000000000000000000"
                            },
                            {
                                "name": "_value",
                                "type": "uint256",
                                "value": "4,411,666,670"
                            },
                            {
                                "name": "_reference",
                                "type": "string",
                                "value": ""
                            }
                        ],
                        "constructorArguments": "",
                        "name": "emitTransfer",
                        "returnParams": [],
                        "signature": "emitTransfer(address,address,bytes32,uint256,string)"
                    },
                    "errorInfo": "",
                    "fromAddress": "0x60bf91ac87fee5a78c28f7b67701fbcfa79c18ec",
                    "gasUsed": 5948,
                    "id": 15,
                    "methodDecoded": true,
                    "operation": "DELEGATECALL",
                    "output": "",
                    "revert": false,
                    "revertMessage": "",
                    "selector": "0x515c1457",
                    "status": true,
                    "value": "0"
                },
                "nodeType": 0
            },
            "16": {
                "invocation": {
                    "address": "0x60bf91ac87fee5a78c28f7b67701fbcfa79c18ec",
                    "callData": "0x000000000000000000000000331d077518216c07c87f4f18ba64cd384c411f84",
                    "decodedMethod": {
                        "callParams": [
                            {
                                "name": "",
                                "type": "address",
                                "value": "0x331d077518216c07c87f4f18ba64cd384c411f84"
                            }
                        ],
                        "constructorArguments": "",
                        "name": "versions",
                        "returnParams": [
                            {
                                "name": "",
                                "type": "uint256",
                                "value": "2"
                            }
                        ],
                        "signature": "versions(address)"
                    },
                    "errorInfo": "",
                    "fromAddress": "0x60bf91ac87fee5a78c28f7b67701fbcfa79c18ec",
                    "gasUsed": 559,
                    "id": 16,
                    "methodDecoded": true,
                    "operation": "CALL",
                    "output": "0x0000000000000000000000000000000000000000000000000000000000000002",
                    "revert": false,
                    "revertMessage": "",
                    "selector": "0x488725a0",
                    "status": true,
                    "value": "0"
                },
                "nodeType": 0
            },
            "17": {
                "invocation": {
                    "address": "0x0000000000000000000000000000000000000004",
                    "callData": "0x",
                    "decodedMethod": {
                        "callParams": [
                            {
                                "name": "data",
                                "type": "bytes",
                                "value": "0x"
                            }
                        ],
                        "constructorArguments": "",
                        "name": "dataCopy()",
                        "returnParams": [
                            {
                                "name": "data",
                                "type": "bytes",
                                "value": "0x"
                            }
                        ],
                        "signature": "dataCopy(bytes)"
                    },
                    "errorInfo": "out of gas",
                    "fromAddress": "0x60bf91ac87fee5a78c28f7b67701fbcfa79c18ec",
                    "gasUsed": 3,
                    "id": 17,
                    "methodDecoded": true,
                    "operation": "CALL",
                    "output": "",
                    "revert": true,
                    "revertMessage": "",
                    "selector": "0x",
                    "status": false,
                    "value": "0"
                },
                "nodeType": 0
            },
            "18": {
                "event": {
                    "contract": "0x60bf91ac87fee5a78c28f7b67701fbcfa79c18ec",
                    "decodedLog": {
                        "name": "Transfer",
                        "params": [
                            {
                                "name": "from",
                                "type": "address",
                                "value": "0xc1ed1e0d5bbf466e0860f93b51638da524d322e3"
                            },
                            {
                                "name": "to",
                                "type": "address",
                                "value": "0xde93f610444657cedf2660ffe457578088ccbb96"
                            },
                            {
                                "name": "symbol",
                                "type": "bytes32",
                                "value": "0x43414e0000000000000000000000000000000000000000000000000000000000"
                            },
                            {
                                "name": "value",
                                "type": "uint256",
                                "value": "4,411,666,670"
                            },
                            {
                                "name": "reference",
                                "type": "string",
                                "value": ""
                            },
                            {
                                "name": "version",
                                "type": "uint256",
                                "value": "2"
                            }
                        ],
                        "signature": "Transfer(address,address,bytes32,uint256,string,uint256)"
                    },
                    "id": 18,
                    "logData": "0x0000000000000000000000000000000000000000000000000000000106f4b0ee000000000000000000000000000000000000000000000000000000000000006000000000000000000000000000000000000000000000000000000000000000020000000000000000000000000000000000000000000000000000000000000000",
                    "logDecoded": true,
                    "operation": "EVENT",
                    "revert": false,
                    "status": true,
                    "topics": [
                        "0x940c4b3549ef0aaff95807dc27f62d88ca15532d1bf535d7d63800f40395d16c",
                        "0x000000000000000000000000c1ed1e0d5bbf466e0860f93b51638da524d322e3",
                        "0x000000000000000000000000de93f610444657cedf2660ffe457578088ccbb96",
                        "0x43414e0000000000000000000000000000000000000000000000000000000000"
                    ]
                },
                "nodeType": 1
            },
            "19": {
                "invocation": {
                    "address": "0x861c476597920dbf47672a1230acffd165b14815",
                    "callData": "0x000000000000000000000000c1ed1e0d5bbf466e0860f93b51638da524d322e3000000000000000000000000de93f610444657cedf2660ffe457578088ccbb960000000000000000000000000000000000000000000000000000000106f4b0ee",
                    "decodedMethod": {
                        "callParams": [
                            {
                                "name": "_from",
                                "type": "address",
                                "value": "0xc1ed1e0d5bbf466e0860f93b51638da524d322e3"
                            },
                            {
                                "name": "_to",
                                "type": "address",
                                "value": "0xde93f610444657cedf2660ffe457578088ccbb96"
                            },
                            {
                                "name": "_value",
                                "type": "uint256",
                                "value": "4,411,666,670"
                            }
                        ],
                        "constructorArguments": "",
                        "name": "emitTransfer",
                        "returnParams": [],
                        "signature": "emitTransfer(address,address,uint256)"
                    },
                    "errorInfo": "",
                    "fromAddress": "0x331d077518216c07c87f4f18ba64cd384c411f84",
                    "gasUsed": 2436,
                    "id": 19,
                    "methodDecoded": true,
                    "operation": "CALL",
                    "output": "",
                    "revert": false,
                    "revertMessage": "",
                    "selector": "0x23de6651",
                    "status": true,
                    "value": "0"
                },
                "nodeType": 0
            },
            "2": {
                "invocation": {
                    "address": "0x0000000000000000000000000000000000000001",
                    "callData": "0xd9db7de239d2e4fd8b435717dcbd7eb3a5327d7a06b6743839406424000000000000000000000000000000000000000000000000000000000000001c62f25793952d1589cd303ee6816bc4adb9a7468c8313d1af34495142935b39c715f86e18f3fad65eddd79ae979bf89fbc1ba3ba8a05bf65b72fcbae6ece94b6a",
                    "decodedMethod": {
                        "callParams": [
                            {
                                "name": "hash",
                                "type": "bytes32",
                                "value": "0x8abdf292d9db7de239d2e4fd8b435717dcbd7eb3a5327d7a06b6743839406424"
                            },
                            {
                                "name": "v",
                                "type": "uint256",
                                "value": "28"
                            },
                            {
                                "name": "r",
                                "type": "bytes32",
                                "value": "0x62f25793952d1589cd303ee6816bc4adb9a7468c8313d1af34495142935b39c7"
                            },
                            {
                                "name": "s",
                                "type": "bytes32",
                                "value": "0x15f86e18f3fad65eddd79ae979bf89fbc1ba3ba8a05bf65b72fcbae6ece94b6a"
                            }
                        ],
                        "constructorArguments": "",
                        "name": "ecrecover",
                        "returnParams": [
                            {
                                "name": "",
                                "type": "address",
                                "value": "0x6161dde2b3f82e705f3c149a88d71630b23f92ea"
                            }
                        ],
                        "signature": "ecrecover(bytes32,uint256,bytes32,bytes32)"
                    },
                    "errorInfo": "",
                    "fromAddress": "0x0e6cd57b9bd631f730db9e409010110ebfddfb13",
                    "gasUsed": 3000,
                    "id": 2,
                    "methodDecoded": true,
                    "operation": "CALL",
                    "output": "0x0000000000000000000000006161dde2b3f82e705f3c149a88d71630b23f92ea",
                    "revert": false,
                    "revertMessage": "",
                    "selector": "0x8abdf292",
                    "status": true,
                    "value": "0"
                },
                "nodeType": 0
            },
            "20": {
                "event": {
                    "contract": "0x861c476597920dbf47672a1230acffd165b14815",
                    "decodedLog": {
                        "name": "Transfer",
                        "params": [
                            {
                                "name": "from",
                                "type": "address",
                                "value": "0xc1ed1e0d5bbf466e0860f93b51638da524d322e3"
                            },
                            {
                                "name": "to",
                                "type": "address",
                                "value": "0xde93f610444657cedf2660ffe457578088ccbb96"
                            },
                            {
                                "decimalAvailable": true,
                                "name": "value",
                                "type": "uint256",
                                "value": "4,411,666,670"
                            }
                        ],
                        "signature": "Transfer(address,address,uint256)"
                    },
                    "id": 20,
                    "logData": "0x0000000000000000000000000000000000000000000000000000000106f4b0ee",
                    "logDecoded": true,
                    "operation": "EVENT",
                    "revert": false,
                    "status": true,
                    "topics": [
                        "0xddf252ad1be2c89b69c2b068fc378daa952ba7f163c4a11628f55a4df523b3ef",
                        "0x000000000000000000000000c1ed1e0d5bbf466e0860f93b51638da524d322e3",
                        "0x000000000000000000000000de93f610444657cedf2660ffe457578088ccbb96"
                    ]
                },
                "nodeType": 1
            },
            "3": {
                "invocation": {
                    "address": "0x0e6cd57b9bd631f730db9e409010110ebfddfb13",
                    "callData": "0x000000000000000000000000c1ed1e0d5bbf466e0860f93b51638da524d322e30000000000000000000000000000000000000000000000000000000000000000000000000000000000000000000000000000000000000000000000000000006000000000000000000000000000000000000000000000000000000000000000e469a5e902000000000000000000000000861c476597920dbf47672a1230acffd165b14815000000000000000000000000000000000000000000000000000000000000000000000000000000000000000000000000000000000000000000000000000000600000000000000000000000000000000000000000000000000000000000000044a9059cbb000000000000000000000000de93f610444657cedf2660ffe457578088ccbb960000000000000000000000000000000000000000000000000000000106f4b0ee0000000000000000000000000000000000000000000000000000000000000000000000000000000000000000000000000000000000000000",
                    "decodedMethod": null,
                    "errorInfo": "",
                    "fromAddress": "0x0e6cd57b9bd631f730db9e409010110ebfddfb13",
                    "gasUsed": 115209,
                    "id": 3,
                    "methodDecoded": false,
                    "operation": "CALL",
                    "output": "0x0000000000000000000000000000000000000000000000000000000000000001",
                    "revert": false,
                    "revertMessage": "",
                    "selector": "0xd7f31eb9",
                    "status": true,
                    "value": "0"
                },
                "nodeType": 0
            },
            "4": {
                "invocation": {
                    "address": "0xc3b2ae46792547a96b9f84405e36d0e07edcd05c",
                    "callData": "0x000000000000000000000000c1ed1e0d5bbf466e0860f93b51638da524d322e30000000000000000000000000000000000000000000000000000000000000000000000000000000000000000000000000000000000000000000000000000006000000000000000000000000000000000000000000000000000000000000000e469a5e902000000000000000000000000861c476597920dbf47672a1230acffd165b14815000000000000000000000000000000000000000000000000000000000000000000000000000000000000000000000000000000000000000000000000000000600000000000000000000000000000000000000000000000000000000000000044a9059cbb000000000000000000000000de93f610444657cedf2660ffe457578088ccbb960000000000000000000000000000000000000000000000000000000106f4b0ee0000000000000000000000000000000000000000000000000000000000000000000000000000000000000000000000000000000000000000",
                    "decodedMethod": null,
                    "errorInfo": "",
                    "fromAddress": "0x0e6cd57b9bd631f730db9e409010110ebfddfb13",
                    "gasUsed": 114288,
                    "id": 4,
                    "methodDecoded": false,
                    "operation": "DELEGATECALL",
                    "output": "0x0000000000000000000000000000000000000000000000000000000000000001",
                    "revert": false,
                    "revertMessage": "",
                    "selector": "0xd7f31eb9",
                    "status": true,
                    "value": "0"
                },
                "nodeType": 0
            },
            "5": {
                "invocation": {
                    "address": "0xb2478186be31d9232981ac83436474e8ff1f6fe1",
                    "callData": "0x000000000000000000000000c1ed1e0d5bbf466e0860f93b51638da524d322e300000000000000000000000000000000000000000000000000000000000000000000000000000000000000000000000000000000000000000000000000000080000000000000000000000000000000000000000000000000000000000000000000000000000000000000000000000000000000000000000000000000000000e469a5e902000000000000000000000000861c476597920dbf47672a1230acffd165b14815000000000000000000000000000000000000000000000000000000000000000000000000000000000000000000000000000000000000000000000000000000600000000000000000000000000000000000000000000000000000000000000044a9059cbb000000000000000000000000de93f610444657cedf2660ffe457578088ccbb960000000000000000000000000000000000000000000000000000000106f4b0ee0000000000000000000000000000000000000000000000000000000000000000000000000000000000000000000000000000000000000000",
                    "decodedMethod": null,
                    "errorInfo": "",
                    "fromAddress": "0x0e6cd57b9bd631f730db9e409010110ebfddfb13",
                    "gasUsed": 109987,
                    "id": 5,
                    "methodDecoded": false,
                    "operation": "CALL",
                    "output": "0x0000000000000000000000000000000000000000000000000000000000000001",
                    "revert": false,
                    "revertMessage": "",
                    "selector": "0xe04f31e9",
                    "status": true,
                    "value": "0"
                },
                "nodeType": 0
            },
            "6": {
                "invocation": {
                    "address": "0x072461a5e18f444b1cf2e8dde6dfb1af39197316",
                    "callData": "0x000000000000000000000000c1ed1e0d5bbf466e0860f93b51638da524d322e300000000000000000000000000000000000000000000000000000000000000000000000000000000000000000000000000000000000000000000000000000080000000000000000000000000000000000000000000000000000000000000000000000000000000000000000000000000000000000000000000000000000000e469a5e902000000000000000000000000861c476597920dbf47672a1230acffd165b14815000000000000000000000000000000000000000000000000000000000000000000000000000000000000000000000000000000000000000000000000000000600000000000000000000000000000000000000000000000000000000000000044a9059cbb000000000000000000000000de93f610444657cedf2660ffe457578088ccbb960000000000000000000000000000000000000000000000000000000106f4b0ee0000000000000000000000000000000000000000000000000000000000000000000000000000000000000000000000000000000000000000",
                    "decodedMethod": null,
                    "errorInfo": "",
                    "fromAddress": "0xb2478186be31d9232981ac83436474e8ff1f6fe1",
                    "gasUsed": 109060,
                    "id": 6,
                    "methodDecoded": false,
                    "operation": "DELEGATECALL",
                    "output": "0x0000000000000000000000000000000000000000000000000000000000000001",
                    "revert": false,
                    "revertMessage": "",
                    "selector": "0xe04f31e9",
                    "status": true,
                    "value": "0"
                },
                "nodeType": 0
            },
            "7": {
                "invocation": {
                    "address": "0xc1ed1e0d5bbf466e0860f93b51638da524d322e3",
                    "callData": "0x000000000000000000000000861c476597920dbf47672a1230acffd165b14815000000000000000000000000000000000000000000000000000000000000000000000000000000000000000000000000000000000000000000000000000000600000000000000000000000000000000000000000000000000000000000000044a9059cbb000000000000000000000000de93f610444657cedf2660ffe457578088ccbb960000000000000000000000000000000000000000000000000000000106f4b0ee00000000000000000000000000000000000000000000000000000000",
                    "decodedMethod": {
                        "callParams": [
                            {
                                "name": "_to",
                                "type": "address",
                                "value": "0x861c476597920dbf47672a1230acffd165b14815"
                            },
                            {
                                "name": "_value",
                                "type": "uint256",
                                "value": "0"
                            },
                            {
                                "name": "_data",
                                "type": "bytes",
                                "value": "0xa9059cbb000000000000000000000000de93f610444657cedf2660ffe457578088ccbb960000000000000000000000000000000000000000000000000000000106f4b0ee"
                            }
                        ],
                        "constructorArguments": "",
                        "name": "multiAccessCall",
                        "returnParams": [
                            {
                                "name": "",
                                "type": "bool",
                                "value": true
                            }
                        ],
                        "signature": "multiAccessCall(address,uint256,bytes)"
                    },
                    "errorInfo": "",
                    "fromAddress": "0xb2478186be31d9232981ac83436474e8ff1f6fe1",
                    "gasUsed": 107442,
                    "id": 7,
                    "methodDecoded": true,
                    "operation": "CALL",
                    "output": "0x0000000000000000000000000000000000000000000000000000000000000001",
                    "revert": false,
                    "revertMessage": "",
                    "selector": "0x69a5e902",
                    "status": true,
                    "value": "0"
                },
                "nodeType": 0
            },
            "8": {
                "event": {
                    "contract": "0xc1ed1e0d5bbf466e0860f93b51638da524d322e3",
                    "decodedLog": {
                        "name": "Confirmation",
                        "params": [
                            {
                                "name": "owner",
                                "type": "address",
                                "value": "0xb2478186be31d9232981ac83436474e8ff1f6fe1"
                            },
                            {
                                "name": "operation",
                                "type": "bytes32",
                                "value": "0x1d9e25b158952683f158166f25a9cf7664960f97d9929c1e9247447d7a12ffad"
                            },
                            {
                                "name": "completed",
                                "type": "bool",
                                "value": true
                            }
                        ],
                        "signature": "Confirmation(address,bytes32,bool)"
                    },
                    "id": 8,
                    "logData": "0x0000000000000000000000000000000000000000000000000000000000000001",
                    "logDecoded": true,
                    "operation": "EVENT",
                    "revert": false,
                    "status": true,
                    "topics": [
                        "0xe65b00b698ba37c614af350761c735c5f4a82b4ab365a1f1022d49d9dfc8e930",
                        "0x000000000000000000000000b2478186be31d9232981ac83436474e8ff1f6fe1",
                        "0x1d9e25b158952683f158166f25a9cf7664960f97d9929c1e9247447d7a12ffad"
                    ]
                },
                "nodeType": 1
            },
            "9": {
                "invocation": {
                    "address": "0x0000000000000000000000000000000000000004",
                    "callData": "0x000000000000000000000000de93f610444657cedf2660ffe457578088ccbb960000000000000000000000000000000000000000000000000000000106f4b0ee",
                    "decodedMethod": {
                        "callParams": [
                            {
                                "name": "data",
                                "type": "bytes",
                                "value": "0xa9059cbb000000000000000000000000de93f610444657cedf2660ffe457578088ccbb960000000000000000000000000000000000000000000000000000000106f4b0ee"
                            }
                        ],
                        "constructorArguments": "",
                        "name": "dataCopy()",
                        "returnParams": [
                            {
                                "name": "data",
                                "type": "bytes",
                                "value": "0xa9059cbb000000000000000000000000de93f610444657cedf2660ffe457578088ccbb960000000000000000000000000000000000000000000000000000000106f4b0ee"
                            }
                        ],
                        "signature": "dataCopy(bytes)"
                    },
                    "errorInfo": "",
                    "fromAddress": "0xc1ed1e0d5bbf466e0860f93b51638da524d322e3",
                    "gasUsed": 24,
                    "id": 9,
                    "methodDecoded": true,
                    "operation": "CALL",
                    "output": "0xa9059cbb000000000000000000000000de93f610444657cedf2660ffe457578088ccbb960000000000000000000000000000000000000000000000000000000106f4b0ee",
                    "revert": false,
                    "revertMessage": "",
                    "selector": "0xa9059cbb",
                    "status": true,
                    "value": "0"
                },
                "nodeType": 0
            }
        },
        "gasFlame": [
            {
                "children": [
                    {
                        "children": [
                            {
                                "children": [],
                                "depth": 0,
                                "name": "Initial Gas",
                                "value": 32728
                            },
                            {
                                "children": [
                                    {
                                        "children": [
                                            {
                                                "children": [],
                                                "depth": 2,
                                                "name": "ecrecover",
                                                "value": 3000
                                            },
                                            {
                                                "children": [
                                                    {
                                                        "children": [
                                                            {
                                                                "children": [
                                                                    {
                                                                        "children": [
                                                                            {
                                                                                "children": [
                                                                                    {
                                                                                        "children": [],
                                                                                        "depth": 7,
                                                                                        "name": "dataCopy()",
                                                                                        "value": 24
                                                                                    },
                                                                                    {
                                                                                        "children": [
                                                                                            {
                                                                                                "children": [
                                                                                                    {
                                                                                                        "children": [
                                                                                                            {
                                                                                                                "children": [
                                                                                                                    {
                                                                                                                        "children": [
                                                                                                                            {
                                                                                                                                "children": [
                                                                                                                                    {
                                                                                                                                        "children": [],
                                                                                                                                        "depth": 13,
                                                                                                                                        "name": "versions",
                                                                                                                                        "value": 559
                                                                                                                                    },
                                                                                                                                    {
                                                                                                                                        "children": [],
                                                                                                                                        "depth": 13,
                                                                                                                                        "name": "dataCopy()",
                                                                                                                                        "value": 3
                                                                                                                                    }
                                                                                                                                ],
                                                                                                                                "depth": 12,
                                                                                                                                "name": "emitTransfer",
                                                                                                                                "value": 5948
                                                                                                                            }
                                                                                                                        ],
                                                                                                                        "depth": 11,
                                                                                                                        "name": "emitTransfer",
                                                                                                                        "value": 8102
                                                                                                                    },
                                                                                                                    {
                                                                                                                        "children": [],
                                                                                                                        "depth": 11,
                                                                                                                        "name": "emitTransfer",
                                                                                                                        "value": 2436
                                                                                                                    }
                                                                                                                ],
                                                                                                                "depth": 10,
                                                                                                                "name": "proxyTransferFromWithReference",
                                                                                                                "value": 31138
                                                                                                            }
                                                                                                        ],
                                                                                                        "depth": 9,
                                                                                                        "name": "_forwardTransferFromWithReference",
                                                                                                        "value": 34594
                                                                                                    }
                                                                                                ],
                                                                                                "depth": 8,
                                                                                                "name": "_performTransferWithReference",
                                                                                                "value": 37390
                                                                                            }
                                                                                        ],
                                                                                        "depth": 7,
                                                                                        "name": "transfer",
                                                                                        "value": 40701
                                                                                    }
                                                                                ],
                                                                                "depth": 6,
                                                                                "name": "multiAccessCall",
                                                                                "value": 107442
                                                                            }
                                                                        ],
                                                                        "depth": 5,
                                                                        "name": "0xe04f31e9",
                                                                        "value": 109060
                                                                    }
                                                                ],
                                                                "depth": 4,
                                                                "name": "0xe04f31e9",
                                                                "value": 109987
                                                            }
                                                        ],
                                                        "depth": 3,
                                                        "name": "0xd7f31eb9",
                                                        "value": 114288
                                                    }
                                                ],
                                                "depth": 2,
                                                "name": "0xd7f31eb9",
                                                "value": 115209
                                            }
                                        ],
                                        "depth": 1,
                                        "name": "0x72262699",
                                        "value": 129092
                                    }
                                ],
                                "depth": 0,
                                "name": "Executed Gas",
                                "value": 130037
                            }
                        ],
                        "depth": -1,
                        "name": "Actual Gas Used",
                        "value": 87765
                    },
                    {
                        "children": [],
                        "depth": -1,
                        "name": "Refunded Gas",
                        "value": 75000
                    }
                ],
                "depth": -2,
                "name": "Total Gas",
                "value": 162765
            }
        ],
        "isConfirmed": true,
        "mainTrace": [
            {
                "children": [
                    {
                        "children": [
                            {
                                "children": [
                                    {
                                        "children": [],
                                        "depth": 2,
                                        "id": 2,
                                        "order": 2
                                    },
                                    {
                                        "children": [
                                            {
                                                "children": [
                                                    {
                                                        "children": [
                                                            {
                                                                "children": [
                                                                    {
                                                                        "children": [
                                                                            {
                                                                                "children": [],
                                                                                "depth": 7,
                                                                                "id": 8,
                                                                                "order": 8
                                                                            },
                                                                            {
                                                                                "children": [],
                                                                                "depth": 7,
                                                                                "id": 9,
                                                                                "order": 9
                                                                            },
                                                                            {
                                                                                "children": [
                                                                                    {
                                                                                        "children": [
                                                                                            {
                                                                                                "children": [
                                                                                                    {
                                                                                                        "children": [
                                                                                                            {
                                                                                                                "children": [
                                                                                                                    {
                                                                                                                        "children": [
                                                                                                                            {
                                                                                                                                "children": [],
                                                                                                                                "depth": 13,
                                                                                                                                "id": 16,
                                                                                                                                "order": 16
                                                                                                                            },
                                                                                                                            {
                                                                                                                                "children": [],
                                                                                                                                "depth": 13,
                                                                                                                                "id": 17,
                                                                                                                                "order": 17
                                                                                                                            },
                                                                                                                            {
                                                                                                                                "children": [],
                                                                                                                                "depth": 13,
                                                                                                                                "id": 18,
                                                                                                                                "order": 18
                                                                                                                            }
                                                                                                                        ],
                                                                                                                        "depth": 12,
                                                                                                                        "id": 15,
                                                                                                                        "order": 15
                                                                                                                    }
                                                                                                                ],
                                                                                                                "depth": 11,
                                                                                                                "id": 14,
                                                                                                                "order": 14
                                                                                                            },
                                                                                                            {
                                                                                                                "children": [
                                                                                                                    {
                                                                                                                        "children": [],
                                                                                                                        "depth": 12,
                                                                                                                        "id": 20,
                                                                                                                        "order": 20
                                                                                                                    }
                                                                                                                ],
                                                                                                                "depth": 11,
                                                                                                                "id": 19,
                                                                                                                "order": 19
                                                                                                            }
                                                                                                        ],
                                                                                                        "depth": 10,
                                                                                                        "id": 13,
                                                                                                        "order": 13
                                                                                                    }
                                                                                                ],
                                                                                                "depth": 9,
                                                                                                "id": 12,
                                                                                                "order": 12
                                                                                            }
                                                                                        ],
                                                                                        "depth": 8,
                                                                                        "id": 11,
                                                                                        "order": 11
                                                                                    }
                                                                                ],
                                                                                "depth": 7,
                                                                                "id": 10,
                                                                                "order": 10
                                                                            }
                                                                        ],
                                                                        "depth": 6,
                                                                        "id": 7,
                                                                        "order": 7
                                                                    }
                                                                ],
                                                                "depth": 5,
                                                                "id": 6,
                                                                "order": 6
                                                            }
                                                        ],
                                                        "depth": 4,
                                                        "id": 5,
                                                        "order": 5
                                                    }
                                                ],
                                                "depth": 3,
                                                "id": 4,
                                                "order": 4
                                            }
                                        ],
                                        "depth": 2,
                                        "id": 3,
                                        "order": 3
                                    }
                                ],
                                "depth": 1,
                                "id": 1,
                                "order": 1
                            }
                        ],
                        "depth": 0,
                        "id": 0,
                        "order": 0
                    }
                ],
                "depth": -1,
                "id": -1,
                "order": -1
            }
        ],
        "mainTraceNodeCount": 21,
        "parentIdMap": {
            "0": -1,
            "1": 0,
            "10": 7,
            "11": 10,
            "12": 11,
            "13": 12,
            "14": 13,
            "15": 14,
            "16": 15,
            "17": 15,
            "18": 15,
            "19": 13,
            "2": 1,
            "20": 19,
            "3": 1,
            "4": 3,
            "5": 4,
            "6": 5,
            "7": 6,
            "8": 7,
            "9": 7
        },
        "tidyTrace": [
            {
                "children": [
                    {
                        "children": [
                            {
                                "children": [
                                    {
                                        "children": [],
                                        "depth": 2,
                                        "id": 2,
                                        "order": 2
                                    },
                                    {
                                        "children": [
                                            {
                                                "children": [
                                                    {
                                                        "children": [
                                                            {
                                                                "children": [
                                                                    {
                                                                        "children": [
                                                                            {
                                                                                "children": [],
                                                                                "depth": 7,
                                                                                "id": 8,
                                                                                "order": 8
                                                                            },
                                                                            {
                                                                                "children": [],
                                                                                "depth": 7,
                                                                                "id": 9,
                                                                                "order": 9
                                                                            },
                                                                            {
                                                                                "children": [
                                                                                    {
                                                                                        "children": [
                                                                                            {
                                                                                                "children": [
                                                                                                    {
                                                                                                        "children": [
                                                                                                            {
                                                                                                                "children": [
                                                                                                                    {
                                                                                                                        "children": [
                                                                                                                            {
                                                                                                                                "children": [],
                                                                                                                                "depth": 13,
                                                                                                                                "id": 16,
                                                                                                                                "order": 16
                                                                                                                            },
                                                                                                                            {
                                                                                                                                "children": [],
                                                                                                                                "depth": 13,
                                                                                                                                "id": 17,
                                                                                                                                "order": 17
                                                                                                                            },
                                                                                                                            {
                                                                                                                                "children": [],
                                                                                                                                "depth": 13,
                                                                                                                                "id": 18,
                                                                                                                                "order": 18
                                                                                                                            }
                                                                                                                        ],
                                                                                                                        "depth": 12,
                                                                                                                        "id": 15,
                                                                                                                        "order": 15
                                                                                                                    }
                                                                                                                ],
                                                                                                                "depth": 11,
                                                                                                                "id": 14,
                                                                                                                "order": 14
                                                                                                            },
                                                                                                            {
                                                                                                                "children": [
                                                                                                                    {
                                                                                                                        "children": [],
                                                                                                                        "depth": 12,
                                                                                                                        "id": 20,
                                                                                                                        "order": 20
                                                                                                                    }
                                                                                                                ],
                                                                                                                "depth": 11,
                                                                                                                "id": 19,
                                                                                                                "order": 19
                                                                                                            }
                                                                                                        ],
                                                                                                        "depth": 10,
                                                                                                        "id": 13,
                                                                                                        "order": 13
                                                                                                    }
                                                                                                ],
                                                                                                "depth": 9,
                                                                                                "id": 12,
                                                                                                "order": 12
                                                                                            }
                                                                                        ],
                                                                                        "depth": 8,
                                                                                        "id": 11,
                                                                                        "order": 11
                                                                                    }
                                                                                ],
                                                                                "depth": 7,
                                                                                "id": 10,
                                                                                "order": 10
                                                                            }
                                                                        ],
                                                                        "depth": 6,
                                                                        "id": 7,
                                                                        "order": 7
                                                                    }
                                                                ],
                                                                "depth": 5,
                                                                "id": 6,
                                                                "order": 6
                                                            }
                                                        ],
                                                        "depth": 4,
                                                        "id": 5,
                                                        "order": 5
                                                    }
                                                ],
                                                "depth": 3,
                                                "id": 4,
                                                "order": 4
                                            }
                                        ],
                                        "depth": 2,
                                        "id": 3,
                                        "order": 3
                                    }
                                ],
                                "depth": 1,
                                "id": 1,
                                "order": 1
                            }
                        ],
                        "depth": 0,
                        "id": 0,
                        "order": 0
                    }
                ],
                "depth": -1,
                "id": -1,
                "order": -1
            }
        ],
        "tidyTraceNodeCount": 21
    },
    "state_change": {
        "stateChanges": [
            {
                "address": "0x0e6cd57b9bd631f730db9e409010110ebfddfb13",
                "erc": "",
                "slots": [
                    {
                        "current": "0x0000000000000000000000000000000000000000000000000000002395d987c8",
                        "key": "0x0000000000000000000000000000000000000000000000000000000000000003",
                        "prev": "0x0000000000000000000000000000000000000000000000000000002395d97576"
                    }
                ],
                "storageVariables": []
            },
            {
                "address": "0x331d077518216c07c87f4f18ba64cd384c411f84",
                "erc": "",
                "slots": [
                    {
                        "current": "0x00000000000000000000000000000000000000000000000001883f4755c2caba",
                        "key": "0x0fc2947b9e6594b03a10d989b35eef2b5e8d915e8bb5906282365acfefb1daed",
                        "prev": "0x00000000000000000000000000000000000000000000000001883f485cb77ba8"
                    },
                    {
                        "current": "0x0000000000000000000000000000000000000000000000000000013de8f18f2a",
                        "key": "0xce4057c97a479b03002bce8d348541aef2d9bcbe74a6534436632d9cbeb24f87",
                        "prev": "0x0000000000000000000000000000000000000000000000000000013ce1fcde3c"
                    }
                ],
                "storageVariables": []
            },
            {
                "address": "0xc1ed1e0d5bbf466e0860f93b51638da524d322e3",
                "erc": "",
                "slots": [
                    {
                        "current": "0x0000000000000000000000000000000000000000000000000000000000000000",
                        "key": "0x405787fa12a823e0f2b7631cc41b3ba8828b3321ca811111fa75cd3aa3bb5b99",
                        "prev": "0x9025ecd7091605f64953ae3764d022c2ab51ef565454c102e5fd6f718d7e7bbe"
                    },
                    {
                        "current": "0x0000000000000000000000000000000000000000000000000000000000000000",
                        "key": "0xa51db226ed4057c358b40a5d8fa65eba0afc2021ecbf2cc7cf99130f28b501d9",
                        "prev": "0x0000000000000000000000000000000000000000000000000000000000000034"
                    },
                    {
                        "current": "0x9025ecd7091605f64953ae3764d022c2ab51ef565454c102e5fd6f718d7e7bbe",
                        "key": "0x405787fa12a823e0f2b7631cc41b3ba8828b3321ca811111fa75cd3aa3bb5b6c",
                        "prev": "0x1d9e25b158952683f158166f25a9cf7664960f97d9929c1e9247447d7a12ffad"
                    },
                    {
                        "current": "0x0000000000000000000000000000000000000000000000000000000000000034",
                        "key": "0xed9f78cfe0c1f9150219c8506391330c4fb1ec918e2ce75d2b69c868aa607614",
                        "prev": "0x0000000000000000000000000000000000000000000000000000000000000043"
                    },
                    {
                        "current": "0x0000000000000000000000000000000000000000000000000000000000000043",
                        "key": "0x0000000000000000000000000000000000000000000000000000000000000002",
                        "prev": "0x0000000000000000000000000000000000000000000000000000000000000044"
                    },
                    {
                        "current": "0x0000000000000000000000000000000000000000000000000000000000000000",
                        "key": "0x405787fa12a823e0f2b7631cc41b3ba8828b3321ca811111fa75cd3aa3bb5b97",
                        "prev": "0x0000000000000000000000000000000000000000000000000000000000000005"
                    },
                    {
                        "current": "0x0000000000000000000000000000000000000000000000000000000000000000",
                        "key": "0x8a094eea88cd41c96ddc16a9fa3b51a3ba03d29b1b7c93ccb2b4088465f8c1c3",
                        "prev": "0x0000000000000000000000000000000000000000000000000000000100010000"
                    },
                    {
                        "current": "0x0000000000000000000000000000000000000000000000000000000000000000",
                        "key": "0x405787fa12a823e0f2b7631cc41b3ba8828b3321ca811111fa75cd3aa3bb5b98",
                        "prev": "0x0000000000000000000000000000000000000000000000000000000000000001"
                    }
                ],
                "storageVariables": []
            }
        ]
    }
}