{
    "balance_change": {
        "balanceChanges": [
            {
                "account": "0xa89c6a74312ef9a9327d2177e02708052ee40861",
                "assets": [
                    {
                        "address": "0xa0b86991c6218b36c1d19d4a2e9eb0ce3606eb48",
                        "amount": "3,760.133766",
                        "iconUrl": "https://assets.blocksec.com/icon/0347a86cc07dbd03fdc5db01a4e5ac7e1217f90e0b6e4bb0f75cbcca09160989.png",
                        "isERC1155": false,
                        "isERC721": false,
                        "sign": true,
                        "value": "3760.133766"
                    },
                    {
                        "address": "0x8143182a775c54578c8b7b3ef77982498866945d",
                        "amount": "15,000.156436",
                        "iconUrl": "",
                        "isERC1155": false,
                        "isERC721": false,
                        "sign": false,
                        "value": "3771.617708"
                    }
                ]
            },
            {
                "account": "0x43e7ade137b86798654d8e78c36d5a556a647224",
                "assets": [
                    {
                        "address": "0xc02aaa39b223fe8d0a0e5c4f27ead9083c756cc2",
                        "amount": "1.491400028677264813",
                        "iconUrl": "https://assets.blocksec.com/icon/f1cb2d02c471d545bbc7722daf3277fd852d98e63d118771af7047bd8256c516.png",
                        "isERC1155": false,
                        "isERC721": false,
                        "sign": false,
                        "value": "3756.0975351966273093"
                    },
                    {
                        "address": "0x8143182a775c54578c8b7b3ef77982498866945d",
                        "amount": "15,000.156436",
                        "iconUrl": "",
                        "isERC1155": false,
                        "isERC721": false,
                        "sign": true,
                        "value": "3771.617708"
                    }
                ]
            },
            {
                "account": "0xe0554a476a092703abdb3ef35c80e0d76d32939f",
                "assets": [
                    {
                        "address": "0xa0b86991c6218b36c1d19d4a2e9eb0ce3606eb48",
                        "amount": "3,760.133766",
                        "iconUrl": "https://assets.blocksec.com/icon/0347a86cc07dbd03fdc5db01a4e5ac7e1217f90e0b6e4bb0f75cbcca09160989.png",
                        "isERC1155": false,
                        "isERC721": false,
                        "sign": false,
                        "value": "3760.133766"
                    },
                    {
                        "address": "0xc02aaa39b223fe8d0a0e5c4f27ead9083c756cc2",
                        "amount": "1.491400028677264813",
                        "iconUrl": "https://assets.blocksec.com/icon/f1cb2d02c471d545bbc7722daf3277fd852d98e63d118771af7047bd8256c516.png",
                        "isERC1155": false,
                        "isERC721": false,
                        "sign": true,
                        "value": "3756.0975351966273093"
                    }
                ]
            }
        ]
    },
    "profile": {
        "basic_info": {
            "baseFee": "0.735062998",
            "blockNumber": 20668026,
            "callData": "0x0d5f0e3b000000000000000000000000a89c6a74312ef9a9327d2177e02708052ee408610000000000000000000000000000000000000000000000000000015d3fe64bd000000000000000000000000000000000000000000000000000000000df1d5dc60000000000000000000000000000000000000000000000000000000000000080000000000000000000000000000000000000000000000000000000000000000200000000000000000000000043e7ade137b86798654d8e78c36d5a556a647224800000000000000000000000e0554a476a092703abdb3ef35c80e0d76d32939f",
            "debugEnable": true,
            "errorInfo": "",
            "eventCount": 9,
            "feeRecipient": "0x95222290dd7278aa3ddd389cc1e1d165cc4bafe5",
            "formatValue": "0",
            "gasLimit": 324971,
            "gasPrice": "1.735062998",
            "gasUsed": 244475,
            "intTxnCount": 23,
            "internalRevert": false,
            "internalRevertMessage": "",
            "isContractCreation": false,
            "isFlashloan": false,
            "maxFee": "1.851745225",
            "nonce": 1,
            "overwritedBlockNumber": -1,
            "priorityFee": "1",
            "receiver": "0xf3de3c0d654fda23dad170f0f320a92172509127",
            "revertMessage": "",
            "sender": "0xa89c6a74312ef9a9327d2177e02708052ee40861",
            "simulationEnable": true,
            "sourceTxnHash": "0x327341ed09739cc791806cb53d40d77a444af46b8df5712676d8509962f70ff9",
            "status": true,
            "timestamp": "2024-09-03T05:41:35Z",
            "transactionFee": "0.00042417952643605",
            "txnHash": "0x327341ed09739cc791806cb53d40d77a444af46b8df5712676d8509962f70ff9",
            "txnIndex": 4,
            "type": 2,
            "value": "0"
        },
        "fund_flow": [
            {
                "amount": "1.491400028677264813",
                "from": "0x43e7ade137b86798654d8e78c36d5a556a647224",
                "id": 1,
                "isERC1155": false,
                "isERC721": false,
                "isReverted": false,
                "order": 1,
                "to": "0xf3de3c0d654fda23dad170f0f320a92172509127",
                "token": "0xc02aaa39b223fe8d0a0e5c4f27ead9083c756cc2"
            },
            {
                "amount": "15,000.156436",
                "from": "0xa89c6a74312ef9a9327d2177e02708052ee40861",
                "id": 2,
                "isERC1155": false,
                "isERC721": false,
                "isReverted": false,
                "order": 2,
                "to": "0x43e7ade137b86798654d8e78c36d5a556a647224",
                "token": "0x8143182a775c54578c8b7b3ef77982498866945d"
            },
            {
                "amount": "3,760.133766",
                "from": "0xe0554a476a092703abdb3ef35c80e0d76d32939f",
                "id": 3,
                "isERC1155": false,
                "isERC721": false,
                "isReverted": false,
                "order": 3,
                "to": "0xa89c6a74312ef9a9327d2177e02708052ee40861",
                "token": "0xa0b86991c6218b36c1d19d4a2e9eb0ce3606eb48"
            },
            {
                "amount": "1.491400028677264813",
                "from": "0xf3de3c0d654fda23dad170f0f320a92172509127",
                "id": 4,
                "isERC1155": false,
                "isERC721": false,
                "isReverted": false,
                "order": 4,
                "to": "0xe0554a476a092703abdb3ef35c80e0d76d32939f",
                "token": "0xc02aaa39b223fe8d0a0e5c4f27ead9083c756cc2"
            }
        ],
        "token_infos": [
            {
                "address": "0xa0b86991c6218b36c1d19d4a2e9eb0ce3606eb48",
                "decimals": 6
            },
            {
                "address": "0xc02aaa39b223fe8d0a0e5c4f27ead9083c756cc2",
                "decimals": 18
            },
            {
                "address": "0xeeeeeeeeeeeeeeeeeeeeeeeeeeeeeeeeeeeeeeee",
                "decimals": 18
            },
            {
                "address": "0x8143182a775c54578c8b7b3ef77982498866945d",
                "decimals": 8
            }
        ]
    },
    "address_label": {
        "labels": [
            {
                "address": "0x40aa958dd87fc8305b97f2ba922cddca374bcd7f",
                "label": "OKX DEX: TokenApprove"
            },
            {
                "address": "0x8143182a775c54578c8b7b3ef77982498866945d",
                "label": "wQUIL"
            },
            {
                "address": "0x0000000000000000000000000000000000000001",
                "label": "Precompiled"
            },
            {
                "address": "0x0000000000000000000000000000000000000003",
                "label": "Precompiled"
            },
            {
                "address": "0x0000000000000000000000000000000000000002",
                "label": "Precompiled"
            },
            {
                "address": "0x0000000000000000000000000000000000000004",
                "label": "Precompiled"
            },
            {
                "address": "0xeeeeeeeeeeeeeeeeeeeeeeeeeeeeeeeeeeeeeeee",
                "label": "Ether"
            },
            {
                "address": "0xe0554a476a092703abdb3ef35c80e0d76d32939f",
                "label": "Uniswap V3: USDC 4"
            },
            {
                "address": "0x43e7ade137b86798654d8e78c36d5a556a647224",
                "label": "Uniswap V3: wQUIL"
            },
            {
                "address": "0xc02aaa39b223fe8d0a0e5c4f27ead9083c756cc2",
                "label": "Wrapped Ether (WETH)"
            },
            {
                "address": "0xa0b86991c6218b36c1d19d4a2e9eb0ce3606eb48",
                "label": "Circle: USDC Token"
            },
            {
                "address": "0x43506849d7c04f9138d1a2050bbf3a0c054402dd",
                "label": "FiatTokenV2_2"
            }
        ]
    },
    "trace": {
        "accountLabels": null,
        "dataMap": {
            "-1": {
                "invocation": {
                    "address": "0xa89c6a74312ef9a9327d2177e02708052ee40861",
                    "callData": "",
                    "decodedMethod": null,
                    "errorInfo": "",
                    "fromAddress": "",
                    "gasUsed": 0,
                    "id": -1,
                    "methodDecoded": false,
                    "operation": "",
                    "output": "",
                    "revert": false,
                    "revertMessage": "",
                    "selector": "",
                    "status": false,
                    "value": ""
                },
                "nodeType": 0
            },
            "0": {
                "invocation": {
                    "address": "0xf3de3c0d654fda23dad170f0f320a92172509127",
                    "callData": "0x000000000000000000000000a89c6a74312ef9a9327d2177e02708052ee408610000000000000000000000000000000000000000000000000000015d3fe64bd000000000000000000000000000000000000000000000000000000000df1d5dc60000000000000000000000000000000000000000000000000000000000000080000000000000000000000000000000000000000000000000000000000000000200000000000000000000000043e7ade137b86798654d8e78c36d5a556a647224800000000000000000000000e0554a476a092703abdb3ef35c80e0d76d32939f",
                    "decodedMethod": null,
                    "errorInfo": "",
                    "fromAddress": "0xa89c6a74312ef9a9327d2177e02708052ee40861",
                    "gasUsed": 244475,
                    "id": 0,
                    "methodDecoded": false,
                    "operation": "CALL",
                    "output": "0x00000000000000000000000000000000000000000000000000000000e01f1686",
                    "revert": false,
                    "revertMessage": "",
                    "selector": "0x0d5f0e3b",
                    "status": true,
                    "value": "0"
                },
                "nodeType": 0
            },
            "1": {
                "event": {
                    "contract": "0xf3de3c0d654fda23dad170f0f320a92172509127",
                    "decodedLog": null,
                    "id": 1,
                    "logData": "0x0000000000000000000000000000000000000000000000000000000000000000",
                    "logDecoded": false,
                    "operation": "EVENT",
                    "revert": false,
                    "status": true,
                    "topics": [
                        "0x7724394874fdd8ad13292ec739b441f85c6559f10dc4141b8d4c0fa4cbf55bdb"
                    ]
                },
                "nodeType": 1
            },
            "10": {
                "invocation": {
                    "address": "0x70cbb871e8f30fc8ce23609e9e0ea87b6b222f58",
                    "callData": "0x0000000000000000000000008143182a775c54578c8b7b3ef77982498866945d000000000000000000000000a89c6a74312ef9a9327d2177e02708052ee4086100000000000000000000000043e7ade137b86798654d8e78c36d5a556a6472240000000000000000000000000000000000000000000000000000015d3fe64bd0",
                    "decodedMethod": {
                        "callParams": [
                            {
                                "name": "token",
                                "type": "address",
                                "value": "0x8143182a775c54578c8b7b3ef77982498866945d"
                            },
                            {
                                "name": "who",
                                "type": "address",
                                "value": "0xa89c6a74312ef9a9327d2177e02708052ee40861"
                            },
                            {
                                "name": "dest",
                                "type": "address",
                                "value": "0x43e7ade137b86798654d8e78c36d5a556a647224"
                            },
                            {
                                "name": "amount",
                                "type": "uint256",
                                "value": "1,500,015,643,600"
                            }
                        ],
                        "constructorArguments": "",
                        "name": "claimTokens",
                        "returnParams": [],
                        "signature": "claimTokens(address,address,address,uint256)"
                    },
                    "errorInfo": "",
                    "fromAddress": "0xf3de3c0d654fda23dad170f0f320a92172509127",
                    "gasUsed": 30337,
                    "id": 10,
                    "methodDecoded": true,
                    "operation": "CALL",
                    "output": "",
                    "revert": false,
                    "revertMessage": "",
                    "selector": "0x0a5ea466",
                    "status": true,
                    "value": "0"
                },
                "nodeType": 0
            },
            "11": {
                "invocation": {
                    "address": "0x40aa958dd87fc8305b97f2ba922cddca374bcd7f",
                    "callData": "0x0000000000000000000000008143182a775c54578c8b7b3ef77982498866945d000000000000000000000000a89c6a74312ef9a9327d2177e02708052ee4086100000000000000000000000043e7ade137b86798654d8e78c36d5a556a6472240000000000000000000000000000000000000000000000000000015d3fe64bd0",
                    "decodedMethod": {
                        "callParams": [
                            {
                                "name": "_token",
                                "type": "address",
                                "value": "0x8143182a775c54578c8b7b3ef77982498866945d"
                            },
                            {
                                "name": "_who",
                                "type": "address",
                                "value": "0xa89c6a74312ef9a9327d2177e02708052ee40861"
                            },
                            {
                                "name": "_dest",
                                "type": "address",
                                "value": "0x43e7ade137b86798654d8e78c36d5a556a647224"
                            },
                            {
                                "name": "_amount",
                                "type": "uint256",
                                "value": "1,500,015,643,600"
                            }
                        ],
                        "constructorArguments": "",
                        "name": "claimTokens",
                        "returnParams": [],
                        "signature": "claimTokens(address,address,address,uint256)"
                    },
                    "errorInfo": "",
                    "fromAddress": "0x70cbb871e8f30fc8ce23609e9e0ea87b6b222f58",
                    "gasUsed": 22566,
                    "id": 11,
                    "methodDecoded": true,
                    "operation": "CALL",
                    "output": "",
                    "revert": false,
                    "revertMessage": "",
                    "selector": "0x0a5ea466",
                    "status": true,
                    "value": "0"
                },
                "nodeType": 0
            },
            "12": {
                "invocation": {
                    "address": "0x8143182a775c54578c8b7b3ef77982498866945d",
                    "callData": "0x000000000000000000000000a89c6a74312ef9a9327d2177e02708052ee4086100000000000000000000000043e7ade137b86798654d8e78c36d5a556a6472240000000000000000000000000000000000000000000000000000015d3fe64bd0",
                    "decodedMethod": {
                        "callParams": [
                            {
                                "name": "from",
                                "type": "address",
                                "value": "0xa89c6a74312ef9a9327d2177e02708052ee40861"
                            },
                            {
                                "name": "to",
                                "type": "address",
                                "value": "0x43e7ade137b86798654d8e78c36d5a556a647224"
                            },
                            {
                                "decimalAvailable": true,
                                "name": "amount",
                                "type": "uint256",
                                "value": "1,500,015,643,600"
                            }
                        ],
                        "constructorArguments": "",
                        "name": "transferFrom",
                        "returnParams": [
                            {
                                "name": "",
                                "type": "bool",
                                "value": true
                            }
                        ],
                        "signature": "transferFrom(address,address,uint256)"
                    },
                    "errorInfo": "",
                    "fromAddress": "0x40aa958dd87fc8305b97f2ba922cddca374bcd7f",
                    "gasUsed": 18424,
                    "id": 12,
                    "methodDecoded": true,
                    "operation": "CALL",
                    "output": "0x0000000000000000000000000000000000000000000000000000000000000001",
                    "revert": false,
                    "revertMessage": "",
                    "selector": "0x23b872dd",
                    "status": true,
                    "value": "0"
                },
                "nodeType": 0
            },
            "13": {
                "event": {
                    "contract": "0x8143182a775c54578c8b7b3ef77982498866945d",
                    "decodedLog": {
                        "name": "Approval",
                        "params": [
                            {
                                "name": "owner",
                                "type": "address",
                                "value": "0xa89c6a74312ef9a9327d2177e02708052ee40861"
                            },
                            {
                                "name": "spender",
                                "type": "address",
                                "value": "0x40aa958dd87fc8305b97f2ba922cddca374bcd7f"
                            },
                            {
                                "decimalAvailable": true,
                                "name": "value",
                                "type": "uint256",
                                "value": "0"
                            }
                        ],
                        "signature": "Approval(address,address,uint256)"
                    },
                    "id": 13,
                    "logData": "0x0000000000000000000000000000000000000000000000000000000000000000",
                    "logDecoded": true,
                    "operation": "EVENT",
                    "revert": false,
                    "status": true,
                    "topics": [
                        "0x8c5be1e5ebec7d5bd14f71427d1e84f3dd0314c0f7b2291e5b200ac8c7c3b925",
                        "0x000000000000000000000000a89c6a74312ef9a9327d2177e02708052ee40861",
                        "0x00000000000000000000000040aa958dd87fc8305b97f2ba922cddca374bcd7f"
                    ]
                },
                "nodeType": 1
            },
            "14": {
                "event": {
                    "contract": "0x8143182a775c54578c8b7b3ef77982498866945d",
                    "decodedLog": {
                        "name": "Transfer",
                        "params": [
                            {
                                "name": "from",
                                "type": "address",
                                "value": "0xa89c6a74312ef9a9327d2177e02708052ee40861"
                            },
                            {
                                "name": "to",
                                "type": "address",
                                "value": "0x43e7ade137b86798654d8e78c36d5a556a647224"
                            },
                            {
                                "decimalAvailable": true,
                                "name": "value",
                                "type": "uint256",
                                "value": "1,500,015,643,600"
                            }
                        ],
                        "signature": "Transfer(address,address,uint256)"
                    },
                    "id": 14,
                    "logData": "0x0000000000000000000000000000000000000000000000000000015d3fe64bd0",
                    "logDecoded": true,
                    "operation": "EVENT",
                    "revert": false,
                    "status": true,
                    "topics": [
                        "0xddf252ad1be2c89b69c2b068fc378daa952ba7f163c4a11628f55a4df523b3ef",
                        "0x000000000000000000000000a89c6a74312ef9a9327d2177e02708052ee40861",
                        "0x00000000000000000000000043e7ade137b86798654d8e78c36d5a556a647224"
                    ]
                },
                "nodeType": 1
            },
            "15": {
                "invocation": {
                    "address": "0x8143182a775c54578c8b7b3ef77982498866945d",
                    "callData": "0x00000000000000000000000043e7ade137b86798654d8e78c36d5a556a647224",
                    "decodedMethod": {
                        "callParams": [
                            {
                                "name": "account",
                                "type": "address",
                                "value": "0x43e7ade137b86798654d8e78c36d5a556a647224"
                            }
                        ],
                        "constructorArguments": "",
                        "name": "balanceOf",
                        "returnParams": [
                            {
                                "decimalAvailable": true,
                                "name": "",
                                "type": "uint256",
                                "value": "764,642,078,483,131"
                            }
                        ],
                        "signature": "balanceOf(address)"
                    },
                    "errorInfo": "",
                    "fromAddress": "0x43e7ade137b86798654d8e78c36d5a556a647224",
                    "gasUsed": 648,
                    "id": 15,
                    "methodDecoded": true,
                    "operation": "STATICCALL",
                    "output": "0x0000000000000000000000000000000000000000000000000002b7701b77e2bb",
                    "revert": false,
                    "revertMessage": "",
                    "selector": "0x70a08231",
                    "status": true,
                    "value": "0"
                },
                "nodeType": 0
            },
            "16": {
                "event": {
                    "contract": "0x43e7ade137b86798654d8e78c36d5a556a647224",
                    "decodedLog": {
                        "name": "Swap",
                        "params": [
                            {
                                "name": "sender",
                                "type": "address",
                                "value": "0xf3de3c0d654fda23dad170f0f320a92172509127"
                            },
                            {
                                "name": "recipient",
                                "type": "address",
                                "value": "0xf3de3c0d654fda23dad170f0f320a92172509127"
                            },
                            {
                                "name": "amount0",
                                "type": "int256",
                                "value": "1,500,015,643,600"
                            },
                            {
                                "name": "amount1",
                                "type": "int256",
                                "value": "-1,491,400,028,677,264,813"
                            },
                            {
                                "name": "sqrtPriceX96",
                                "type": "uint160",
                                "value": "79,361,561,251,902,303,312,051,899,543,911"
                            },
                            {
                                "name": "liquidity",
                                "type": "uint128",
                                "value": "1,608,753,704,043,260,721"
                            },
                            {
                                "name": "tick",
                                "type": "int24",
                                "value": "138,195"
                            }
                        ],
                        "signature": "Swap(address,address,int256,int256,uint160,uint128,int24)"
                    },
                    "id": 16,
                    "logData": "0x0000000000000000000000000000000000000000000000000000015d3fe64bd0ffffffffffffffffffffffffffffffffffffffffffffffffeb4d7b9360af2a5300000000000000000000000000000000000003e9af08d979b20008a00fc93167000000000000000000000000000000000000000000000000165370f86497ab310000000000000000000000000000000000000000000000000000000000021bd3",
                    "logDecoded": true,
                    "operation": "EVENT",
                    "revert": false,
                    "status": true,
                    "topics": [
                        "0xc42079f94a6350d7e6235f29174924f928cc2ac818eb64fed8004e115fbcca67",
                        "0x000000000000000000000000f3de3c0d654fda23dad170f0f320a92172509127",
                        "0x000000000000000000000000f3de3c0d654fda23dad170f0f320a92172509127"
                    ]
                },
                "nodeType": 1
            },
            "17": {
                "invocation": {
                    "address": "0xe0554a476a092703abdb3ef35c80e0d76d32939f",
                    "callData": "0x000000000000000000000000a89c6a74312ef9a9327d2177e02708052ee40861000000000000000000000000000000000000000000000000000000000000000000000000000000000000000000000000000000000000000014b2846c9f50d5ad000000000000000000000000fffd8963efd1fc6a506488495d951d5263988d2500000000000000000000000000000000000000000000000000000000000000a00000000000000000000000000000000000000000000000000000000000000020000000000000000000000000f3de3c0d654fda23dad170f0f320a92172509127",
                    "decodedMethod": {
                        "callParams": [
                            {
                                "name": "recipient",
                                "type": "address",
                                "value": "0xa89c6a74312ef9a9327d2177e02708052ee40861"
                            },
                            {
                                "name": "zeroForOne",
                                "type": "bool",
                                "value": false
                            },
                            {
                                "name": "amountSpecified",
                                "type": "int256",
                                "value": "1,491,400,028,677,264,813"
                            },
                            {
                                "name": "sqrtPriceLimitX96",
                                "type": "uint160",
                                "value": "1,461,446,703,485,210,103,287,273,052,203,988,822,378,723,970,341"
                            },
                            {
                                "name": "data",
                                "type": "bytes",
                                "value": "0x000000000000000000000000f3de3c0d654fda23dad170f0f320a92172509127"
                            }
                        ],
                        "constructorArguments": "",
                        "name": "swap",
                        "returnParams": [
                            {
                                "name": "amount0",
                                "type": "int256",
                                "value": "-3,760,133,766"
                            },
                            {
                                "name": "amount1",
                                "type": "int256",
                                "value": "1,491,400,028,677,264,813"
                            }
                        ],
                        "signature": "swap(address,bool,int256,uint160,bytes)"
                    },
                    "errorInfo": "",
                    "fromAddress": "0xf3de3c0d654fda23dad170f0f320a92172509127",
                    "gasUsed": 94468,
                    "id": 17,
                    "methodDecoded": true,
                    "operation": "CALL",
                    "output": "0xffffffffffffffffffffffffffffffffffffffffffffffffffffffff1fe0e97a00000000000000000000000000000000000000000000000014b2846c9f50d5ad",
                    "revert": false,
                    "revertMessage": "",
                    "selector": "0x128acb08",
                    "status": true,
                    "value": "0"
                },
                "nodeType": 0
            },
            "18": {
                "invocation": {
                    "address": "0xa0b86991c6218b36c1d19d4a2e9eb0ce3606eb48",
                    "callData": "0x000000000000000000000000a89c6a74312ef9a9327d2177e02708052ee4086100000000000000000000000000000000000000000000000000000000e01f1686",
                    "decodedMethod": {
                        "callParams": [
                            {
                                "name": "to",
                                "type": "address",
                                "value": "0xa89c6a74312ef9a9327d2177e02708052ee40861"
                            },
                            {
                                "decimalAvailable": true,
                                "name": "value",
                                "type": "uint256",
                                "value": "3,760,133,766"
                            }
                        ],
                        "constructorArguments": "",
                        "name": "transfer",
                        "returnParams": [
                            {
                                "name": "",
                                "type": "bool",
                                "value": true
                            }
                        ],
                        "signature": "transfer(address,uint256)"
                    },
                    "errorInfo": "",
                    "fromAddress": "0xe0554a476a092703abdb3ef35c80e0d76d32939f",
                    "gasUsed": 40652,
                    "id": 18,
                    "methodDecoded": true,
                    "operation": "CALL",
                    "output": "0x0000000000000000000000000000000000000000000000000000000000000001",
                    "revert": false,
                    "revertMessage": "",
                    "selector": "0xa9059cbb",
                    "status": true,
                    "value": "0"
                },
                "nodeType": 0
            },
            "19": {
                "invocation": {
                    "address": "0x43506849d7c04f9138d1a2050bbf3a0c054402dd",
                    "callData": "0x000000000000000000000000a89c6a74312ef9a9327d2177e02708052ee4086100000000000000000000000000000000000000000000000000000000e01f1686",
                    "decodedMethod": {
                        "callParams": [
                            {
                                "name": "to",
                                "type": "address",
                                "value": "0xa89c6a74312ef9a9327d2177e02708052ee40861"
                            },
                            {
                                "decimalAvailable": true,
                                "name": "value",
                                "type": "uint256",
                                "value": "3,760,133,766"
                            }
                        ],
                        "constructorArguments": "",
                        "name": "transfer",
                        "returnParams": [
                            {
                                "name": "",
                                "type": "bool",
                                "value": true
                            }
                        ],
                        "signature": "transfer(address,uint256)"
                    },
                    "errorInfo": "",
                    "fromAddress": "0xa0b86991c6218b36c1d19d4a2e9eb0ce3606eb48",
                    "gasUsed": 33363,
                    "id": 19,
                    "methodDecoded": true,
                    "operation": "DELEGATECALL",
                    "output": "0x0000000000000000000000000000000000000000000000000000000000000001",
                    "revert": false,
                    "revertMessage": "",
                    "selector": "0xa9059cbb",
                    "status": true,
                    "value": "0"
                },
                "nodeType": 0
            },
            "2": {
                "invocation": {
                    "address": "0x43e7ade137b86798654d8e78c36d5a556a647224",
                    "callData": "0x000000000000000000000000f3de3c0d654fda23dad170f0f320a9217250912700000000000000000000000000000000000000000000000000000000000000010000000000000000000000000000000000000000000000000000015d3fe64bd000000000000000000000000000000000000000000000000000000001000276a400000000000000000000000000000000000000000000000000000000000000a00000000000000000000000000000000000000000000000000000000000000020000000000000000000000000a89c6a74312ef9a9327d2177e02708052ee40861",
                    "decodedMethod": {
                        "callParams": [
                            {
                                "name": "recipient",
                                "type": "address",
                                "value": "0xf3de3c0d654fda23dad170f0f320a92172509127"
                            },
                            {
                                "name": "zeroForOne",
                                "type": "bool",
                                "value": true
                            },
                            {
                                "name": "amountSpecified",
                                "type": "int256",
                                "value": "1,500,015,643,600"
                            },
                            {
                                "name": "sqrtPriceLimitX96",
                                "type": "uint160",
                                "value": "4,295,128,740"
                            },
                            {
                                "name": "data",
                                "type": "bytes",
                                "value": "0x000000000000000000000000a89c6a74312ef9a9327d2177e02708052ee40861"
                            }
                        ],
                        "constructorArguments": "",
                        "name": "swap",
                        "returnParams": [
                            {
                                "name": "amount0",
                                "type": "int256",
                                "value": "1,500,015,643,600"
                            },
                            {
                                "name": "amount1",
                                "type": "int256",
                                "value": "-1,491,400,028,677,264,813"
                            }
                        ],
                        "signature": "swap(address,bool,int256,uint160,bytes)"
                    },
                    "errorInfo": "",
                    "fromAddress": "0xf3de3c0d654fda23dad170f0f320a92172509127",
                    "gasUsed": 127986,
                    "id": 2,
                    "methodDecoded": true,
                    "operation": "CALL",
                    "output": "0x0000000000000000000000000000000000000000000000000000015d3fe64bd0ffffffffffffffffffffffffffffffffffffffffffffffffeb4d7b9360af2a53",
                    "revert": false,
                    "revertMessage": "",
                    "selector": "0x128acb08",
                    "status": true,
                    "value": "0"
                },
                "nodeType": 0
            },
            "20": {
                "event": {
                    "contract": "0xa0b86991c6218b36c1d19d4a2e9eb0ce3606eb48",
                    "decodedLog": {
                        "name": "Transfer",
                        "params": [
                            {
                                "name": "from",
                                "type": "address",
                                "value": "0xe0554a476a092703abdb3ef35c80e0d76d32939f"
                            },
                            {
                                "name": "to",
                                "type": "address",
                                "value": "0xa89c6a74312ef9a9327d2177e02708052ee40861"
                            },
                            {
                                "decimalAvailable": true,
                                "name": "value",
                                "type": "uint256",
                                "value": "3,760,133,766"
                            }
                        ],
                        "signature": "Transfer(address,address,uint256)"
                    },
                    "id": 20,
                    "logData": "0x00000000000000000000000000000000000000000000000000000000e01f1686",
                    "logDecoded": true,
                    "operation": "EVENT",
                    "revert": false,
                    "status": true,
                    "topics": [
                        "0xddf252ad1be2c89b69c2b068fc378daa952ba7f163c4a11628f55a4df523b3ef",
                        "0x000000000000000000000000e0554a476a092703abdb3ef35c80e0d76d32939f",
                        "0x000000000000000000000000a89c6a74312ef9a9327d2177e02708052ee40861"
                    ]
                },
                "nodeType": 1
            },
            "21": {
                "invocation": {
                    "address": "0xc02aaa39b223fe8d0a0e5c4f27ead9083c756cc2",
                    "callData": "0x000000000000000000000000e0554a476a092703abdb3ef35c80e0d76d32939f",
                    "decodedMethod": {
                        "callParams": [
                            {
                                "name": "",
                                "type": "address",
                                "value": "0xe0554a476a092703abdb3ef35c80e0d76d32939f"
                            }
                        ],
                        "constructorArguments": "",
                        "name": "balanceOf",
                        "returnParams": [
                            {
                                "decimalAvailable": true,
                                "name": "",
                                "type": "uint256",
                                "value": "367,853,848,314,104,531,772"
                            }
                        ],
                        "signature": "balanceOf(address)"
                    },
                    "errorInfo": "",
                    "fromAddress": "0xe0554a476a092703abdb3ef35c80e0d76d32939f",
                    "gasUsed": 2534,
                    "id": 21,
                    "methodDecoded": true,
                    "operation": "STATICCALL",
                    "output": "0x000000000000000000000000000000000000000000000013f0ff661186a04b3c",
                    "revert": false,
                    "revertMessage": "",
                    "selector": "0x70a08231",
                    "status": true,
                    "value": "0"
                },
                "nodeType": 0
            },
            "22": {
                "invocation": {
                    "address": "0xf3de3c0d654fda23dad170f0f320a92172509127",
                    "callData": "0xffffffffffffffffffffffffffffffffffffffffffffffffffffffff1fe0e97a00000000000000000000000000000000000000000000000014b2846c9f50d5ad00000000000000000000000000000000000000000000000000000000000000600000000000000000000000000000000000000000000000000000000000000020000000000000000000000000f3de3c0d654fda23dad170f0f320a92172509127",
                    "decodedMethod": {
                        "callParams": [
                            {
                                "name": "amount0Delta",
                                "type": "int256",
                                "value": "-3,760,133,766"
                            },
                            {
                                "name": "amount1Delta",
                                "type": "int256",
                                "value": "1,491,400,028,677,264,813"
                            },
                            {
                                "name": "data",
                                "type": "bytes",
                                "value": "0x000000000000000000000000f3de3c0d654fda23dad170f0f320a92172509127"
                            }
                        ],
                        "constructorArguments": "",
                        "name": "uniswapV3SwapCallback",
                        "returnParams": [],
                        "signature": "uniswapV3SwapCallback(int256,int256,bytes)"
                    },
                    "errorInfo": "",
                    "fromAddress": "0xe0554a476a092703abdb3ef35c80e0d76d32939f",
                    "gasUsed": 8553,
                    "id": 22,
                    "methodDecoded": true,
                    "operation": "CALL",
                    "output": "",
                    "revert": false,
                    "revertMessage": "",
                    "selector": "0xfa461e33",
                    "status": true,
                    "value": "0"
                },
                "nodeType": 0
            },
            "23": {
                "invocation": {
                    "address": "0xe0554a476a092703abdb3ef35c80e0d76d32939f",
                    "callData": "0x",
                    "decodedMethod": {
                        "callParams": [],
                        "constructorArguments": "",
                        "name": "token0",
                        "returnParams": [
                            {
                                "name": "",
                                "type": "address",
                                "value": "0xa0b86991c6218b36c1d19d4a2e9eb0ce3606eb48"
                            }
                        ],
                        "signature": "token0()"
                    },
                    "errorInfo": "",
                    "fromAddress": "0xf3de3c0d654fda23dad170f0f320a92172509127",
                    "gasUsed": 266,
                    "id": 23,
                    "methodDecoded": true,
                    "operation": "STATICCALL",
                    "output": "0x000000000000000000000000a0b86991c6218b36c1d19d4a2e9eb0ce3606eb48",
                    "revert": false,
                    "revertMessage": "",
                    "selector": "0x0dfe1681",
                    "status": true,
                    "value": "0"
                },
                "nodeType": 0
            },
            "24": {
                "invocation": {
                    "address": "0xe0554a476a092703abdb3ef35c80e0d76d32939f",
                    "callData": "0x",
                    "decodedMethod": {
                        "callParams": [],
                        "constructorArguments": "",
                        "name": "token1",
                        "returnParams": [
                            {
                                "name": "",
                                "type": "address",
                                "value": "0xc02aaa39b223fe8d0a0e5c4f27ead9083c756cc2"
                            }
                        ],
                        "signature": "token1()"
                    },
                    "errorInfo": "",
                    "fromAddress": "0xf3de3c0d654fda23dad170f0f320a92172509127",
                    "gasUsed": 308,
                    "id": 24,
                    "methodDecoded": true,
                    "operation": "STATICCALL",
                    "output": "0x000000000000000000000000c02aaa39b223fe8d0a0e5c4f27ead9083c756cc2",
                    "revert": false,
                    "revertMessage": "",
                    "selector": "0xd21220a7",
                    "status": true,
                    "value": "0"
                },
                "nodeType": 0
            },
            "25": {
                "invocation": {
                    "address": "0xe0554a476a092703abdb3ef35c80e0d76d32939f",
                    "callData": "0x",
                    "decodedMethod": {
                        "callParams": [],
                        "constructorArguments": "",
                        "name": "fee",
                        "returnParams": [
                            {
                                "name": "",
                                "type": "uint24",
                                "value": "100"
                            }
                        ],
                        "signature": "fee()"
                    },
                    "errorInfo": "",
                    "fromAddress": "0xf3de3c0d654fda23dad170f0f320a92172509127",
                    "gasUsed": 251,
                    "id": 25,
                    "methodDecoded": true,
                    "operation": "STATICCALL",
                    "output": "0x0000000000000000000000000000000000000000000000000000000000000064",
                    "revert": false,
                    "revertMessage": "",
                    "selector": "0xddca3f43",
                    "status": true,
                    "value": "0"
                },
                "nodeType": 0
            },
            "26": {
                "invocation": {
                    "address": "0xc02aaa39b223fe8d0a0e5c4f27ead9083c756cc2",
                    "callData": "0x000000000000000000000000e0554a476a092703abdb3ef35c80e0d76d32939f00000000000000000000000000000000000000000000000014b2846c9f50d5ad",
                    "decodedMethod": {
                        "callParams": [
                            {
                                "name": "dst",
                                "type": "address",
                                "value": "0xe0554a476a092703abdb3ef35c80e0d76d32939f"
                            },
                            {
                                "decimalAvailable": true,
                                "name": "wad",
                                "type": "uint256",
                                "value": "1,491,400,028,677,264,813"
                            }
                        ],
                        "constructorArguments": "",
                        "name": "transfer",
                        "returnParams": [
                            {
                                "name": "",
                                "type": "bool",
                                "value": true
                            }
                        ],
                        "signature": "transfer(address,uint256)"
                    },
                    "errorInfo": "",
                    "fromAddress": "0xf3de3c0d654fda23dad170f0f320a92172509127",
                    "gasUsed": 6062,
                    "id": 26,
                    "methodDecoded": true,
                    "operation": "CALL",
                    "output": "0x0000000000000000000000000000000000000000000000000000000000000001",
                    "revert": false,
                    "revertMessage": "",
                    "selector": "0xa9059cbb",
                    "status": true,
                    "value": "0"
                },
                "nodeType": 0
            },
            "27": {
                "event": {
                    "contract": "0xc02aaa39b223fe8d0a0e5c4f27ead9083c756cc2",
                    "decodedLog": {
                        "name": "Transfer",
                        "params": [
                            {
                                "name": "src",
                                "type": "address",
                                "value": "0xf3de3c0d654fda23dad170f0f320a92172509127"
                            },
                            {
                                "name": "dst",
                                "type": "address",
                                "value": "0xe0554a476a092703abdb3ef35c80e0d76d32939f"
                            },
                            {
                                "decimalAvailable": true,
                                "name": "wad",
                                "type": "uint256",
                                "value": "1,491,400,028,677,264,813"
                            }
                        ],
                        "signature": "Transfer(address,address,uint256)"
                    },
                    "id": 27,
                    "logData": "0x00000000000000000000000000000000000000000000000014b2846c9f50d5ad",
                    "logDecoded": true,
                    "operation": "EVENT",
                    "revert": false,
                    "status": true,
                    "topics": [
                        "0xddf252ad1be2c89b69c2b068fc378daa952ba7f163c4a11628f55a4df523b3ef",
                        "0x000000000000000000000000f3de3c0d654fda23dad170f0f320a92172509127",
                        "0x000000000000000000000000e0554a476a092703abdb3ef35c80e0d76d32939f"
                    ]
                },
                "nodeType": 1
            },
            "28": {
                "invocation": {
                    "address": "0xc02aaa39b223fe8d0a0e5c4f27ead9083c756cc2",
                    "callData": "0x000000000000000000000000e0554a476a092703abdb3ef35c80e0d76d32939f",
                    "decodedMethod": {
                        "callParams": [
                            {
                                "name": "",
                                "type": "address",
                                "value": "0xe0554a476a092703abdb3ef35c80e0d76d32939f"
                            }
                        ],
                        "constructorArguments": "",
                        "name": "balanceOf",
                        "returnParams": [
                            {
                                "decimalAvailable": true,
                                "name": "",
                                "type": "uint256",
                                "value": "369,345,248,342,781,796,585"
                            }
                        ],
                        "signature": "balanceOf(address)"
                    },
                    "errorInfo": "",
                    "fromAddress": "0xe0554a476a092703abdb3ef35c80e0d76d32939f",
                    "gasUsed": 534,
                    "id": 28,
                    "methodDecoded": true,
                    "operation": "STATICCALL",
                    "output": "0x00000000000000000000000000000000000000000000001405b1ea7e25f120e9",
                    "revert": false,
                    "revertMessage": "",
                    "selector": "0x70a08231",
                    "status": true,
                    "value": "0"
                },
                "nodeType": 0
            },
            "29": {
                "event": {
                    "contract": "0xe0554a476a092703abdb3ef35c80e0d76d32939f",
                    "decodedLog": {
                        "name": "Swap",
                        "params": [
                            {
                                "name": "sender",
                                "type": "address",
                                "value": "0xf3de3c0d654fda23dad170f0f320a92172509127"
                            },
                            {
                                "name": "recipient",
                                "type": "address",
                                "value": "0xa89c6a74312ef9a9327d2177e02708052ee40861"
                            },
                            {
                                "name": "amount0",
                                "type": "int256",
                                "value": "-3,760,133,766"
                            },
                            {
                                "name": "amount1",
                                "type": "int256",
                                "value": "1,491,400,028,677,264,813"
                            },
                            {
                                "name": "sqrtPriceX96",
                                "type": "uint160",
                                "value": "1,577,919,951,683,254,768,133,423,447,245,922"
                            },
                            {
                                "name": "liquidity",
                                "type": "uint128",
                                "value": "513,372,520,421,747,372"
                            },
                            {
                                "name": "tick",
                                "type": "int24",
                                "value": "197,995"
                            }
                        ],
                        "signature": "Swap(address,address,int256,int256,uint160,uint128,int24)"
                    },
                    "id": 29,
                    "logData": "0xffffffffffffffffffffffffffffffffffffffffffffffffffffffff1fe0e97a00000000000000000000000000000000000000000000000014b2846c9f50d5ad0000000000000000000000000000000000004dcc2658316859b613da9dc58462000000000000000000000000000000000000000000000000071fdd965d2f6aac000000000000000000000000000000000000000000000000000000000003056b",
                    "logDecoded": true,
                    "operation": "EVENT",
                    "revert": false,
                    "status": true,
                    "topics": [
                        "0xc42079f94a6350d7e6235f29174924f928cc2ac818eb64fed8004e115fbcca67",
                        "0x000000000000000000000000f3de3c0d654fda23dad170f0f320a92172509127",
                        "0x000000000000000000000000a89c6a74312ef9a9327d2177e02708052ee40861"
                    ]
                },
                "nodeType": 1
            },
            "3": {
                "invocation": {
                    "address": "0xc02aaa39b223fe8d0a0e5c4f27ead9083c756cc2",
                    "callData": "0x000000000000000000000000f3de3c0d654fda23dad170f0f320a9217250912700000000000000000000000000000000000000000000000014b2846c9f50d5ad",
                    "decodedMethod": {
                        "callParams": [
                            {
                                "name": "dst",
                                "type": "address",
                                "value": "0xf3de3c0d654fda23dad170f0f320a92172509127"
                            },
                            {
                                "decimalAvailable": true,
                                "name": "wad",
                                "type": "uint256",
                                "value": "1,491,400,028,677,264,813"
                            }
                        ],
                        "constructorArguments": "",
                        "name": "transfer",
                        "returnParams": [
                            {
                                "name": "",
                                "type": "bool",
                                "value": true
                            }
                        ],
                        "signature": "transfer(address,uint256)"
                    },
                    "errorInfo": "",
                    "fromAddress": "0x43e7ade137b86798654d8e78c36d5a556a647224",
                    "gasUsed": 12862,
                    "id": 3,
                    "methodDecoded": true,
                    "operation": "CALL",
                    "output": "0x0000000000000000000000000000000000000000000000000000000000000001",
                    "revert": false,
                    "revertMessage": "",
                    "selector": "0xa9059cbb",
                    "status": true,
                    "value": "0"
                },
                "nodeType": 0
            },
            "30": {
                "invocation": {
                    "address": "0x43e7ade137b86798654d8e78c36d5a556a647224",
                    "callData": "0x",
                    "decodedMethod": {
                        "callParams": [],
                        "constructorArguments": "",
                        "name": "token0",
                        "returnParams": [
                            {
                                "name": "",
                                "type": "address",
                                "value": "0x8143182a775c54578c8b7b3ef77982498866945d"
                            }
                        ],
                        "signature": "token0()"
                    },
                    "errorInfo": "",
                    "fromAddress": "0xf3de3c0d654fda23dad170f0f320a92172509127",
                    "gasUsed": 266,
                    "id": 30,
                    "methodDecoded": true,
                    "operation": "STATICCALL",
                    "output": "0x0000000000000000000000008143182a775c54578c8b7b3ef77982498866945d",
                    "revert": false,
                    "revertMessage": "",
                    "selector": "0x0dfe1681",
                    "status": true,
                    "value": "0"
                },
                "nodeType": 0
            },
            "31": {
                "invocation": {
                    "address": "0xe0554a476a092703abdb3ef35c80e0d76d32939f",
                    "callData": "0x",
                    "decodedMethod": {
                        "callParams": [],
                        "constructorArguments": "",
                        "name": "token0",
                        "returnParams": [
                            {
                                "name": "",
                                "type": "address",
                                "value": "0xa0b86991c6218b36c1d19d4a2e9eb0ce3606eb48"
                            }
                        ],
                        "signature": "token0()"
                    },
                    "errorInfo": "",
                    "fromAddress": "0xf3de3c0d654fda23dad170f0f320a92172509127",
                    "gasUsed": 266,
                    "id": 31,
                    "methodDecoded": true,
                    "operation": "STATICCALL",
                    "output": "0x000000000000000000000000a0b86991c6218b36c1d19d4a2e9eb0ce3606eb48",
                    "revert": false,
                    "revertMessage": "",
                    "selector": "0x0dfe1681",
                    "status": true,
                    "value": "0"
                },
                "nodeType": 0
            },
            "32": {
                "event": {
                    "contract": "0xf3de3c0d654fda23dad170f0f320a92172509127",
                    "decodedLog": {
                        "name": "OrderRecord",
                        "params": [
                            {
                                "name": "fromToken",
                                "type": "address",
                                "value": "0x8143182a775c54578c8b7b3ef77982498866945d"
                            },
                            {
                                "name": "toToken",
                                "type": "address",
                                "value": "0xa0b86991c6218b36c1d19d4a2e9eb0ce3606eb48"
                            },
                            {
                                "name": "sender",
                                "type": "address",
                                "value": "0xa89c6a74312ef9a9327d2177e02708052ee40861"
                            },
                            {
                                "name": "fromAmount",
                                "type": "uint256",
                                "value": "1,500,015,643,600"
                            },
                            {
                                "name": "returnAmount",
                                "type": "uint256",
                                "value": "3,760,133,766"
                            }
                        ],
                        "signature": "OrderRecord(address,address,address,uint256,uint256)"
                    },
                    "id": 32,
                    "logData": "0x0000000000000000000000008143182a775c54578c8b7b3ef77982498866945d000000000000000000000000a0b86991c6218b36c1d19d4a2e9eb0ce3606eb48000000000000000000000000a89c6a74312ef9a9327d2177e02708052ee408610000000000000000000000000000000000000000000000000000015d3fe64bd000000000000000000000000000000000000000000000000000000000e01f1686",
                    "logDecoded": true,
                    "operation": "EVENT",
                    "revert": false,
                    "status": true,
                    "topics": [
                        "0x1bb43f2da90e35f7b0cf38521ca95a49e68eb42fac49924930a5bd73cdf7576c"
                    ]
                },
                "nodeType": 1
            },
            "4": {
                "event": {
                    "contract": "0xc02aaa39b223fe8d0a0e5c4f27ead9083c756cc2",
                    "decodedLog": {
                        "name": "Transfer",
                        "params": [
                            {
                                "name": "src",
                                "type": "address",
                                "value": "0x43e7ade137b86798654d8e78c36d5a556a647224"
                            },
                            {
                                "name": "dst",
                                "type": "address",
                                "value": "0xf3de3c0d654fda23dad170f0f320a92172509127"
                            },
                            {
                                "decimalAvailable": true,
                                "name": "wad",
                                "type": "uint256",
                                "value": "1,491,400,028,677,264,813"
                            }
                        ],
                        "signature": "Transfer(address,address,uint256)"
                    },
                    "id": 4,
                    "logData": "0x00000000000000000000000000000000000000000000000014b2846c9f50d5ad",
                    "logDecoded": true,
                    "operation": "EVENT",
                    "revert": false,
                    "status": true,
                    "topics": [
                        "0xddf252ad1be2c89b69c2b068fc378daa952ba7f163c4a11628f55a4df523b3ef",
                        "0x00000000000000000000000043e7ade137b86798654d8e78c36d5a556a647224",
                        "0x000000000000000000000000f3de3c0d654fda23dad170f0f320a92172509127"
                    ]
                },
                "nodeType": 1
            },
            "5": {
                "invocation": {
                    "address": "0x8143182a775c54578c8b7b3ef77982498866945d",
                    "callData": "0x00000000000000000000000043e7ade137b86798654d8e78c36d5a556a647224",
                    "decodedMethod": {
                        "callParams": [
                            {
                                "name": "account",
                                "type": "address",
                                "value": "0x43e7ade137b86798654d8e78c36d5a556a647224"
                            }
                        ],
                        "constructorArguments": "",
                        "name": "balanceOf",
                        "returnParams": [
                            {
                                "decimalAvailable": true,
                                "name": "",
                                "type": "uint256",
                                "value": "763,142,062,839,531"
                            }
                        ],
                        "signature": "balanceOf(address)"
                    },
                    "errorInfo": "",
                    "fromAddress": "0x43e7ade137b86798654d8e78c36d5a556a647224",
                    "gasUsed": 2648,
                    "id": 5,
                    "methodDecoded": true,
                    "operation": "STATICCALL",
                    "output": "0x0000000000000000000000000000000000000000000000000002b612db9196eb",
                    "revert": false,
                    "revertMessage": "",
                    "selector": "0x70a08231",
                    "status": true,
                    "value": "0"
                },
                "nodeType": 0
            },
            "6": {
                "invocation": {
                    "address": "0xf3de3c0d654fda23dad170f0f320a92172509127",
                    "callData": "0x0000000000000000000000000000000000000000000000000000015d3fe64bd0ffffffffffffffffffffffffffffffffffffffffffffffffeb4d7b9360af2a5300000000000000000000000000000000000000000000000000000000000000600000000000000000000000000000000000000000000000000000000000000020000000000000000000000000a89c6a74312ef9a9327d2177e02708052ee40861",
                    "decodedMethod": {
                        "callParams": [
                            {
                                "name": "amount0Delta",
                                "type": "int256",
                                "value": "1,500,015,643,600"
                            },
                            {
                                "name": "amount1Delta",
                                "type": "int256",
                                "value": "-1,491,400,028,677,264,813"
                            },
                            {
                                "name": "data",
                                "type": "bytes",
                                "value": "0x000000000000000000000000a89c6a74312ef9a9327d2177e02708052ee40861"
                            }
                        ],
                        "constructorArguments": "",
                        "name": "uniswapV3SwapCallback",
                        "returnParams": [],
                        "signature": "uniswapV3SwapCallback(int256,int256,bytes)"
                    },
                    "errorInfo": "",
                    "fromAddress": "0x43e7ade137b86798654d8e78c36d5a556a647224",
                    "gasUsed": 35365,
                    "id": 6,
                    "methodDecoded": true,
                    "operation": "CALL",
                    "output": "",
                    "revert": false,
                    "revertMessage": "",
                    "selector": "0xfa461e33",
                    "status": true,
                    "value": "0"
                },
                "nodeType": 0
            },
            "7": {
                "invocation": {
                    "address": "0x43e7ade137b86798654d8e78c36d5a556a647224",
                    "callData": "0x",
                    "decodedMethod": {
                        "callParams": [],
                        "constructorArguments": "",
                        "name": "token0",
                        "returnParams": [
                            {
                                "name": "",
                                "type": "address",
                                "value": "0x8143182a775c54578c8b7b3ef77982498866945d"
                            }
                        ],
                        "signature": "token0()"
                    },
                    "errorInfo": "",
                    "fromAddress": "0xf3de3c0d654fda23dad170f0f320a92172509127",
                    "gasUsed": 266,
                    "id": 7,
                    "methodDecoded": true,
                    "operation": "STATICCALL",
                    "output": "0x0000000000000000000000008143182a775c54578c8b7b3ef77982498866945d",
                    "revert": false,
                    "revertMessage": "",
                    "selector": "0x0dfe1681",
                    "status": true,
                    "value": "0"
                },
                "nodeType": 0
            },
            "8": {
                "invocation": {
                    "address": "0x43e7ade137b86798654d8e78c36d5a556a647224",
                    "callData": "0x",
                    "decodedMethod": {
                        "callParams": [],
                        "constructorArguments": "",
                        "name": "token1",
                        "returnParams": [
                            {
                                "name": "",
                                "type": "address",
                                "value": "0xc02aaa39b223fe8d0a0e5c4f27ead9083c756cc2"
                            }
                        ],
                        "signature": "token1()"
                    },
                    "errorInfo": "",
                    "fromAddress": "0xf3de3c0d654fda23dad170f0f320a92172509127",
                    "gasUsed": 308,
                    "id": 8,
                    "methodDecoded": true,
                    "operation": "STATICCALL",
                    "output": "0x000000000000000000000000c02aaa39b223fe8d0a0e5c4f27ead9083c756cc2",
                    "revert": false,
                    "revertMessage": "",
                    "selector": "0xd21220a7",
                    "status": true,
                    "value": "0"
                },
                "nodeType": 0
            },
            "9": {
                "invocation": {
                    "address": "0x43e7ade137b86798654d8e78c36d5a556a647224",
                    "callData": "0x",
                    "decodedMethod": {
                        "callParams": [],
                        "constructorArguments": "",
                        "name": "fee",
                        "returnParams": [
                            {
                                "name": "",
                                "type": "uint24",
                                "value": "10,000"
                            }
                        ],
                        "signature": "fee()"
                    },
                    "errorInfo": "",
                    "fromAddress": "0xf3de3c0d654fda23dad170f0f320a92172509127",
                    "gasUsed": 251,
                    "id": 9,
                    "methodDecoded": true,
                    "operation": "STATICCALL",
                    "output": "0x0000000000000000000000000000000000000000000000000000000000002710",
                    "revert": false,
                    "revertMessage": "",
                    "selector": "0xddca3f43",
                    "status": true,
                    "value": "0"
                },
                "nodeType": 0
            }
        },
        "gasFlame": [
            {
                "children": [
                    {
                        "children": [
                            {
                                "children": [],
                                "depth": 0,
                                "name": "Initial Gas",
                                "value": 22836
                            },
                            {
                                "children": [
                                    {
                                        "children": [
                                            {
                                                "children": [],
                                                "depth": 2,
                                                "name": "transfer",
                                                "value": 12862
                                            },
                                            {
                                                "children": [],
                                                "depth": 2,
                                                "name": "balanceOf",
                                                "value": 2648
                                            },
                                            {
                                                "children": [
                                                    {
                                                        "children": [],
                                                        "depth": 3,
                                                        "name": "token0",
                                                        "value": 266
                                                    },
                                                    {
                                                        "children": [],
                                                        "depth": 3,
                                                        "name": "token1",
                                                        "value": 308
                                                    },
                                                    {
                                                        "children": [],
                                                        "depth": 3,
                                                        "name": "fee",
                                                        "value": 251
                                                    },
                                                    {
                                                        "children": [
                                                            {
                                                                "children": [
                                                                    {
                                                                        "children": [],
                                                                        "depth": 5,
                                                                        "name": "transferFrom",
                                                                        "value": 18424
                                                                    }
                                                                ],
                                                                "depth": 4,
                                                                "name": "claimTokens",
                                                                "value": 22566
                                                            }
                                                        ],
                                                        "depth": 3,
                                                        "name": "claimTokens",
                                                        "value": 30337
                                                    }
                                                ],
                                                "depth": 2,
                                                "name": "uniswapV3SwapCallback",
                                                "value": 35365
                                            },
                                            {
                                                "children": [],
                                                "depth": 2,
                                                "name": "balanceOf",
                                                "value": 648
                                            }
                                        ],
                                        "depth": 1,
                                        "name": "swap",
                                        "value": 127986
                                    },
                                    {
                                        "children": [
                                            {
                                                "children": [
                                                    {
                                                        "children": [],
                                                        "depth": 3,
                                                        "name": "transfer",
                                                        "value": 33363
                                                    }
                                                ],
                                                "depth": 2,
                                                "name": "transfer",
                                                "value": 40652
                                            },
                                            {
                                                "children": [],
                                                "depth": 2,
                                                "name": "balanceOf",
                                                "value": 2534
                                            },
                                            {
                                                "children": [
                                                    {
                                                        "children": [],
                                                        "depth": 3,
                                                        "name": "token0",
                                                        "value": 266
                                                    },
                                                    {
                                                        "children": [],
                                                        "depth": 3,
                                                        "name": "token1",
                                                        "value": 308
                                                    },
                                                    {
                                                        "children": [],
                                                        "depth": 3,
                                                        "name": "fee",
                                                        "value": 251
                                                    },
                                                    {
                                                        "children": [],
                                                        "depth": 3,
                                                        "name": "transfer",
                                                        "value": 6062
                                                    }
                                                ],
                                                "depth": 2,
                                                "name": "uniswapV3SwapCallback",
                                                "value": 8553
                                            },
                                            {
                                                "children": [],
                                                "depth": 2,
                                                "name": "balanceOf",
                                                "value": 534
                                            }
                                        ],
                                        "depth": 1,
                                        "name": "swap",
                                        "value": 94468
                                    },
                                    {
                                        "children": [],
                                        "depth": 1,
                                        "name": "token0",
                                        "value": 266
                                    },
                                    {
                                        "children": [],
                                        "depth": 1,
                                        "name": "token0",
                                        "value": 266
                                    }
                                ],
                                "depth": 0,
                                "name": "Executed Gas",
                                "value": 234039
                            }
                        ],
                        "depth": -1,
                        "name": "Actual Gas Used",
                        "value": 244475
                    },
                    {
                        "children": [],
                        "depth": -1,
                        "name": "Refunded Gas",
                        "value": 12400
                    }
                ],
                "depth": -2,
                "name": "Total Gas",
                "value": 256875
            }
        ],
        "isConfirmed": true,
        "mainTrace": [
            {
                "children": [
                    {
                        "children": [
                            {
                                "children": [],
                                "depth": 1,
                                "id": 1,
                                "order": 1
                            },
                            {
                                "children": [
                                    {
                                        "children": [
                                            {
                                                "children": [],
                                                "depth": 3,
                                                "id": 4,
                                                "order": 4
                                            }
                                        ],
                                        "depth": 2,
                                        "id": 3,
                                        "order": 3
                                    },
                                    {
                                        "children": [],
                                        "depth": 2,
                                        "id": 5,
                                        "order": 5
                                    },
                                    {
                                        "children": [
                                            {
                                                "children": [],
                                                "depth": 3,
                                                "id": 7,
                                                "order": 7
                                            },
                                            {
                                                "children": [],
                                                "depth": 3,
                                                "id": 8,
                                                "order": 8
                                            },
                                            {
                                                "children": [],
                                                "depth": 3,
                                                "id": 9,
                                                "order": 9
                                            },
                                            {
                                                "children": [
                                                    {
                                                        "children": [
                                                            {
                                                                "children": [
                                                                    {
                                                                        "children": [],
                                                                        "depth": 6,
                                                                        "id": 13,
                                                                        "order": 13
                                                                    },
                                                                    {
                                                                        "children": [],
                                                                        "depth": 6,
                                                                        "id": 14,
                                                                        "order": 14
                                                                    }
                                                                ],
                                                                "depth": 5,
                                                                "id": 12,
                                                                "order": 12
                                                            }
                                                        ],
                                                        "depth": 4,
                                                        "id": 11,
                                                        "order": 11
                                                    }
                                                ],
                                                "depth": 3,
                                                "id": 10,
                                                "order": 10
                                            }
                                        ],
                                        "depth": 2,
                                        "id": 6,
                                        "order": 6
                                    },
                                    {
                                        "children": [],
                                        "depth": 2,
                                        "id": 15,
                                        "order": 15
                                    },
                                    {
                                        "children": [],
                                        "depth": 2,
                                        "id": 16,
                                        "order": 16
                                    }
                                ],
                                "depth": 1,
                                "id": 2,
                                "order": 2
                            },
                            {
                                "children": [
                                    {
                                        "children": [
                                            {
                                                "children": [
                                                    {
                                                        "children": [],
                                                        "depth": 4,
                                                        "id": 20,
                                                        "order": 20
                                                    }
                                                ],
                                                "depth": 3,
                                                "id": 19,
                                                "order": 19
                                            }
                                        ],
                                        "depth": 2,
                                        "id": 18,
                                        "order": 18
                                    },
                                    {
                                        "children": [],
                                        "depth": 2,
                                        "id": 21,
                                        "order": 21
                                    },
                                    {
                                        "children": [
                                            {
                                                "children": [],
                                                "depth": 3,
                                                "id": 23,
                                                "order": 23
                                            },
                                            {
                                                "children": [],
                                                "depth": 3,
                                                "id": 24,
                                                "order": 24
                                            },
                                            {
                                                "children": [],
                                                "depth": 3,
                                                "id": 25,
                                                "order": 25
                                            },
                                            {
                                                "children": [
                                                    {
                                                        "children": [],
                                                        "depth": 4,
                                                        "id": 27,
                                                        "order": 27
                                                    }
                                                ],
                                                "depth": 3,
                                                "id": 26,
                                                "order": 26
                                            }
                                        ],
                                        "depth": 2,
                                        "id": 22,
                                        "order": 22
                                    },
                                    {
                                        "children": [],
                                        "depth": 2,
                                        "id": 28,
                                        "order": 28
                                    },
                                    {
                                        "children": [],
                                        "depth": 2,
                                        "id": 29,
                                        "order": 29
                                    }
                                ],
                                "depth": 1,
                                "id": 17,
                                "order": 17
                            },
                            {
                                "children": [],
                                "depth": 1,
                                "id": 30,
                                "order": 30
                            },
                            {
                                "children": [],
                                "depth": 1,
                                "id": 31,
                                "order": 31
                            },
                            {
                                "children": [],
                                "depth": 1,
                                "id": 32,
                                "order": 32
                            }
                        ],
                        "depth": 0,
                        "id": 0,
                        "order": 0
                    }
                ],
                "depth": -1,
                "id": -1,
                "order": -1
            }
        ],
        "mainTraceNodeCount": 33,
        "parentIdMap": {
            "0": -1,
            "1": 0,
            "10": 6,
            "11": 10,
            "12": 11,
            "13": 12,
            "14": 12,
            "15": 2,
            "16": 2,
            "17": 0,
            "18": 17,
            "19": 18,
            "2": 0,
            "20": 19,
            "21": 17,
            "22": 17,
            "23": 22,
            "24": 22,
            "25": 22,
            "26": 22,
            "27": 26,
            "28": 17,
            "29": 17,
            "3": 2,
            "30": 0,
            "31": 0,
            "32": 0,
            "4": 3,
            "5": 2,
            "6": 2,
            "7": 6,
            "8": 6,
            "9": 6
        },
        "tidyTrace": [
            {
                "children": [
                    {
                        "children": [
                            {
                                "children": [],
                                "depth": 1,
                                "id": 1,
                                "order": 1
                            },
                            {
                                "children": [
                                    {
                                        "children": [
                                            {
                                                "children": [],
                                                "depth": 3,
                                                "id": 4,
                                                "order": 4
                                            }
                                        ],
                                        "depth": 2,
                                        "id": 3,
                                        "order": 3
                                    },
                                    {
                                        "children": [
                                            {
                                                "children": [
                                                    {
                                                        "children": [
                                                            {
                                                                "children": [
                                                                    {
                                                                        "children": [],
                                                                        "depth": 6,
                                                                        "id": 13,
                                                                        "order": 13
                                                                    },
                                                                    {
                                                                        "children": [],
                                                                        "depth": 6,
                                                                        "id": 14,
                                                                        "order": 14
                                                                    }
                                                                ],
                                                                "depth": 5,
                                                                "id": 12,
                                                                "order": 12
                                                            }
                                                        ],
                                                        "depth": 4,
                                                        "id": 11,
                                                        "order": 11
                                                    }
                                                ],
                                                "depth": 3,
                                                "id": 10,
                                                "order": 10
                                            }
                                        ],
                                        "depth": 2,
                                        "id": 6,
                                        "order": 6
                                    },
                                    {
                                        "children": [],
                                        "depth": 2,
                                        "id": 16,
                                        "order": 16
                                    }
                                ],
                                "depth": 1,
                                "id": 2,
                                "order": 2
                            },
                            {
                                "children": [
                                    {
                                        "children": [
                                            {
                                                "children": [
                                                    {
                                                        "children": [],
                                                        "depth": 4,
                                                        "id": 20,
                                                        "order": 20
                                                    }
                                                ],
                                                "depth": 3,
                                                "id": 19,
                                                "order": 19
                                            }
                                        ],
                                        "depth": 2,
                                        "id": 18,
                                        "order": 18
                                    },
                                    {
                                        "children": [
                                            {
                                                "children": [
                                                    {
                                                        "children": [],
                                                        "depth": 4,
                                                        "id": 27,
                                                        "order": 27
                                                    }
                                                ],
                                                "depth": 3,
                                                "id": 26,
                                                "order": 26
                                            }
                                        ],
                                        "depth": 2,
                                        "id": 22,
                                        "order": 22
                                    },
                                    {
                                        "children": [],
                                        "depth": 2,
                                        "id": 29,
                                        "order": 29
                                    }
                                ],
                                "depth": 1,
                                "id": 17,
                                "order": 17
                            },
                            {
                                "children": [],
                                "depth": 1,
                                "id": 32,
                                "order": 32
                            }
                        ],
                        "depth": 0,
                        "id": 0,
                        "order": 0
                    }
                ],
                "depth": -1,
                "id": -1,
                "order": -1
            }
        ],
        "tidyTraceNodeCount": 21
    },
    "state_change": {
        "stateChanges": [
            {
                "address": "0x43e7ade137b86798654d8e78c36d5a556a647224",
                "erc": "",
                "slots": [
                    {
                        "current": "0x0000000000000000000000000000000146b7421e737973e8952ca3a8dfe30d32",
                        "key": "0x5fad3045a5e12d1dac067533b5d0377559a0a73962b2478f0b890e720a091834",
                        "prev": "0x000000000000000000000000000001b0dfe522de9c80351a5bc9e842ea7b7c05"
                    },
                    {
                        "current": "0x01000147300000000000000000000ec3d9543b0c60f9dc88a9000002b3e07a4c",
                        "key": "0x5fad3045a5e12d1dac067533b5d0377559a0a73962b2478f0b890e720a091835",
                        "prev": "0x0166d55a5f00000000000000001fefff94ff8d1388b652173c0001313675d390"
                    },
                    {
                        "current": "0x0100000000000000001ffec36e53c81fe9b02e9fe5000133ea564ddc66d6a18f",
                        "key": "0x0000000000000000000000000000000000000000000000000000000000000008",
                        "prev": "0x0100000000000000001ff9f91bb88e1ab149fd4e7800013307a0396c66d6365b"
                    },
                    {
                        "current": "0x000000000000000000000000000000000000000000000000165370f86497ab31",
                        "key": "0x0000000000000000000000000000000000000000000000000000000000000004",
                        "prev": "0x000000000000000000000000000000000000000000000000164f357be0b85d72"
                    },
                    {
                        "current": "0x0000000000000000000000000000000000474fc9c7b1d66995662799c794c0ae",
                        "key": "0x0000000000000000000000000000000000000000000000000000000000000001",
                        "prev": "0x0000000000000000000000000000000000474fa1b5f088dc818f9be46d483aaa"
                    },
                    {
                        "current": "0x000100002900290000021bd300000000000003e9af08d979b20008a00fc93167",
                        "key": "0x0000000000000000000000000000000000000000000000000000000000000000",
                        "prev": "0x000100002900290028021be600000000000003ea9c7eaad841983838d8245e5b"
                    },
                    {
                        "current": "0x000000000000000000000000000000000000149ac0eeaa3c4342d6106bef2b64",
                        "key": "0x5fad3045a5e12d1dac067533b5d0377559a0a73962b2478f0b890e720a091833",
                        "prev": "0x0000000000000000000000000000000000473b25a1cc0ae0b8b9373e0e5f27b7"
                    }
                ],
                "storageVariables": []
            },
            {
                "address": "0x8143182a775c54578c8b7b3ef77982498866945d",
                "erc": "ERC-20",
                "slots": [
                    {
                        "current": "0x0000000000000000000000000000000000000000000000000000000000000000",
                        "key": "0x06477796f893a2eefa8ab4606b5a88485c1ce457c704f81763853f33c0ae118d",
                        "prev": "0x0000000000000000000000000000000000000000000000000000015d3fe64bd0"
                    },
                    {
                        "current": "0x0000000000000000000000000000000000000000000000000000000000000000",
                        "key": "0xf94e8164b7061e17966490a3ebb425dbf739495bc10c7aac9bf00289a1ecac56",
                        "prev": "0x0000000000000000000000000000000000000000000000000000015d3fe64bd0"
                    },
                    {
                        "current": "0x0000000000000000000000000000000000000000000000000002b7701b77e2bb",
                        "key": "0x44f87e994f654c3206032d9cf72a658c83255f673482d613cb1cc82354a9617a",
                        "prev": "0x0000000000000000000000000000000000000000000000000002b612db9196eb"
                    }
                ],
                "storageVariables": [
                    {
                        "name": "_balances",
                        "type": "mapping(address => uint256)",
                        "value": {
                            "pairs": [
                                {
                                    "key": "0x43e7ade137b86798654d8e78c36d5a556a647224",
                                    "value": {
                                        "current": "764642078483131",
                                        "prev": "763142062839531",
                                        "typeTag": 1
                                    }
                                },
                                {
                                    "key": "0xa89c6a74312ef9a9327d2177e02708052ee40861",
                                    "value": {
                                        "current": "0",
                                        "prev": "1500015643600",
                                        "typeTag": 1
                                    }
                                }
                            ],
                            "typeTag": 4
                        }
                    },
                    {
                        "name": "_allowances",
                        "type": "mapping(address => mapping(address => uint256))",
                        "value": {
                            "pairs": [
                                {
                                    "key": "0xa89c6a74312ef9a9327d2177e02708052ee40861",
                                    "value": {
                                        "pairs": [
                                            {
                                                "key": "0x40aa958dd87fc8305b97f2ba922cddca374bcd7f",
                                                "value": {
                                                    "current": "0",
                                                    "prev": "1500015643600",
                                                    "typeTag": 1
                                                }
                                            }
                                        ],
                                        "typeTag": 4
                                    }
                                }
                            ],
                            "typeTag": 4
                        }
                    }
                ]
            },
            {
                "address": "0xa0b86991c6218b36c1d19d4a2e9eb0ce3606eb48",
                "erc": "ERC-20",
                "slots": [
                    {
                        "current": "0x00000000000000000000000000000000000000000000000000000099930e818a",
                        "key": "0xb9f6591fc52eba3e15c8a35522a85e6d320e9084debe30399ae4770e63f89389",
                        "prev": "0x0000000000000000000000000000000000000000000000000000009a732d9810"
                    },
                    {
                        "current": "0x00000000000000000000000000000000000000000000000000000000e01f1686",
                        "key": "0x2e23be52bff2b245b04da0bb97ad411feb38f0899fa5fc873bac50096454429b",
                        "prev": "0x0000000000000000000000000000000000000000000000000000000000000000"
                    }
                ],
                "storageVariables": [
                    {
                        "name": "balanceAndBlacklistStates",
                        "type": "mapping(address => uint256)",
                        "value": {
                            "pairs": [
                                {
                                    "key": "0xa89c6a74312ef9a9327d2177e02708052ee40861",
                                    "value": {
                                        "current": "3760133766",
                                        "prev": "0",
                                        "typeTag": 1
                                    }
                                },
                                {
                                    "key": "0xe0554a476a092703abdb3ef35c80e0d76d32939f",
                                    "value": {
                                        "current": "659597197706",
                                        "prev": "663357331472",
                                        "typeTag": 1
                                    }
                                }
                            ],
                            "typeTag": 4
                        }
                    }
                ]
            },
            {
                "address": "0xc02aaa39b223fe8d0a0e5c4f27ead9083c756cc2",
                "erc": "ERC-20",
                "slots": [
                    {
                        "current": "0x00000000000000000000000000000000000000000000001bf6d9e0ef37595ecb",
                        "key": "0xa0b2f529062360435deebfb2e4ff171264f661d4e0ee1a2ec3d7da4f43ae5839",
                        "prev": "0x00000000000000000000000000000000000000000000001c0b8c655bd6aa3478"
                    },
                    {
                        "current": "0x00000000000000000000000000000000000000000000001405b1ea7e25f120e9",
                        "key": "0x19b801df7d999cea8e6d7d7f7b2b0bb8ff07cb169b5922c61a5601805d4e5aa6",
                        "prev": "0x000000000000000000000000000000000000000000000013f0ff661186a04b3c"
                    }
                ],
                "storageVariables": [
                    {
                        "name": "balanceOf",
                        "type": "mapping(address => uint256)",
                        "value": {
                            "pairs": [
                                {
                                    "key": "0x43e7ade137b86798654d8e78c36d5a556a647224",
                                    "value": {
                                        "current": "515849585511464787659",
                                        "prev": "517340985540142052472",
                                        "typeTag": 1
                                    }
                                },
                                {
                                    "key": "0xe0554a476a092703abdb3ef35c80e0d76d32939f",
                                    "value": {
                                        "current": "369345248342781796585",
                                        "prev": "367853848314104531772",
                                        "typeTag": 1
                                    }
                                }
                            ],
                            "typeTag": 4
                        }
                    }
                ]
            },
            {
                "address": "0xe0554a476a092703abdb3ef35c80e0d76d32939f",
                "erc": "",
                "slots": [
                    {
                        "current": "0x01002a700a00003386e5ea2cc0e3da5f8a9643e6a800100e20017b7866d6a18f",
                        "key": "0x000000000000000000000000000000000000000000000000000000000000000c",
                        "prev": "0x01002a700a00003386e5ea101eaa661c088c93b19c00100e1d992d4c66d6a0c3"
                    },
                    {
                        "current": "0x0000000000000000000000000000043815a0c6c013861e326990e5d3827b625b",
                        "key": "0x0000000000000000000000000000000000000000000000000000000000000002",
                        "prev": "0x00000000000000000000000000000438158dbccbdb145bcfa70667520c04c7e7"
                    },
                    {
                        "current": "0x00010000050005000403056b0000000000004dcc2658316859b613da9dc58462",
                        "key": "0x0000000000000000000000000000000000000000000000000000000000000000",
                        "prev": "0x0001000005000500030305680000000000004dc93eb6677fb6717c7bdac5254d"
                    }
                ],
                "storageVariables": []
            }
        ]
    }
}