{
    "balance_change": {
        "balanceChanges": [
            {
                "account": "0x55937fc467b0bca9d1ee5a4358fe949a299c64c4",
                "assets": [
                    {
                        "address": "0xc5f6950c17b6eb1e9bff46f1ee7ba00a22a3053c",
                        "amount": "20,000",
                        "iconUrl": "",
                        "isERC1155": false,
                        "isERC721": false,
                        "sign": false,
                        "value": ""
                    }
                ]
            },
            {
                "account": "0x9ab9b902712041eb44171055e4b3e383df201477",
                "assets": [
                    {
                        "address": "0xc5f6950c17b6eb1e9bff46f1ee7ba00a22a3053c",
                        "amount": "20,000",
                        "iconUrl": "",
                        "isERC1155": false,
                        "isERC721": false,
                        "sign": true,
                        "value": ""
                    }
                ]
            }
        ]
    },
    "profile": {
        "basic_info": {
            "baseFee": "",
            "blockNumber": 5606172,
            "callData": "0xa9059cbb0000000000000000000000009ab9b902712041eb44171055e4b3e383df20147700000000000000000000000000000000000000000000043c33c1937564800000",
            "debugEnable": true,
            "errorInfo": "",
            "eventCount": 1,
            "feeRecipient": "0x829bd824b016326a401d083b33d092293333a830",
            "formatValue": "0",
            "gasLimit": 210000,
            "gasPrice": "8.1",
            "gasUsed": 52837,
            "intTxnCount": 0,
            "internalRevert": false,
            "internalRevertMessage": "",
            "isContractCreation": false,
            "isFlashloan": false,
            "maxFee": "",
            "nonce": 6787,
            "overwritedBlockNumber": -1,
            "priorityFee": "",
            "receiver": "0xc5f6950c17b6eb1e9bff46f1ee7ba00a22a3053c",
            "revertMessage": "",
            "sender": "0x55937fc467b0bca9d1ee5a4358fe949a299c64c4",
            "simulationEnable": true,
            "sourceTxnHash": "0x326a6105df0856051af3f6ea1566cffed60dae38c3fc9a1af2e4eecb34b1dd55",
            "status": true,
            "timestamp": "2018-05-13T11:15:27Z",
            "transactionFee": "0.0004279797",
            "txnHash": "0x326a6105df0856051af3f6ea1566cffed60dae38c3fc9a1af2e4eecb34b1dd55",
            "txnIndex": 115,
            "type": 0,
            "value": "0"
        },
        "fund_flow": [
            {
                "amount": "20,000",
                "from": "0x55937fc467b0bca9d1ee5a4358fe949a299c64c4",
                "id": 1,
                "isERC1155": false,
                "isERC721": false,
                "isReverted": false,
                "order": 1,
                "to": "0x9ab9b902712041eb44171055e4b3e383df201477",
                "token": "0xc5f6950c17b6eb1e9bff46f1ee7ba00a22a3053c"
            }
        ],
        "token_infos": [
            {
                "address": "0xc5f6950c17b6eb1e9bff46f1ee7ba00a22a3053c",
                "decimals": 18
            },
            {
                "address": "0xeeeeeeeeeeeeeeeeeeeeeeeeeeeeeeeeeeeeeeee",
                "decimals": 18
            },
            {
                "address": "0xc02aaa39b223fe8d0a0e5c4f27ead9083c756cc2",
                "decimals": 18
            }
        ]
    },
    "address_label": {
        "labels": [
            {
                "address": "0x0000000000000000000000000000000000000002",
                "label": "Precompiled"
            },
            {
                "address": "0x0000000000000000000000000000000000000003",
                "label": "Precompiled"
            },
            {
                "address": "0x0000000000000000000000000000000000000004",
                "label": "Precompiled"
            },
            {
                "address": "0xeeeeeeeeeeeeeeeeeeeeeeeeeeeeeeeeeeeeeeee",
                "label": "Ether"
            },
            {
                "address": "0xc5f6950c17b6eb1e9bff46f1ee7ba00a22a3053c",
                "label": "MNDC"
            },
            {
                "address": "0x0000000000000000000000000000000000000001",
                "label": "Precompiled"
            }
        ]
    },
    "trace": {
        "accountLabels": null,
        "dataMap": {
            "-1": {
                "invocation": {
                    "address": "0x55937fc467b0bca9d1ee5a4358fe949a299c64c4",
                    "callData": "",
                    "decodedMethod": null,
                    "errorInfo": "",
                    "fromAddress": "",
                    "gasUsed": 0,
                    "id": -1,
                    "methodDecoded": false,
                    "operation": "",
                    "output": "",
                    "revert": false,
                    "revertMessage": "",
                    "selector": "",
                    "status": false,
                    "value": ""
                },
                "nodeType": 0
            },
            "0": {
                "invocation": {
                    "address": "0xc5f6950c17b6eb1e9bff46f1ee7ba00a22a3053c",
                    "callData": "0x0000000000000000000000009ab9b902712041eb44171055e4b3e383df20147700000000000000000000000000000000000000000000043c33c1937564800000",
                    "decodedMethod": {
                        "callParams": [
                            {
                                "name": "_to",
                                "type": "address",
                                "value": "0x9ab9b902712041eb44171055e4b3e383df201477"
                            },
                            {
                                "decimalAvailable": true,
                                "name": "_value",
                                "type": "uint256",
                                "value": "20,000,000,000,000,000,000,000"
                            }
                        ],
                        "constructorArguments": "",
                        "name": "transfer",
                        "returnParams": [],
                        "signature": "transfer(address,uint256)"
                    },
                    "errorInfo": "",
                    "fromAddress": "0x55937fc467b0bca9d1ee5a4358fe949a299c64c4",
                    "gasUsed": 52837,
                    "id": 0,
                    "methodDecoded": true,
                    "operation": "CALL",
                    "output": "",
                    "revert": false,
                    "revertMessage": "",
                    "selector": "0xa9059cbb",
                    "status": true,
                    "value": "0"
                },
                "nodeType": 0
            },
            "1": {
                "event": {
                    "contract": "0xc5f6950c17b6eb1e9bff46f1ee7ba00a22a3053c",
                    "decodedLog": {
                        "name": "Transfer",
                        "params": [
                            {
                                "name": "from",
                                "type": "address",
                                "value": "0x55937fc467b0bca9d1ee5a4358fe949a299c64c4"
                            },
                            {
                                "name": "to",
                                "type": "address",
                                "value": "0x9ab9b902712041eb44171055e4b3e383df201477"
                            },
                            {
                                "decimalAvailable": true,
                                "name": "value",
                                "type": "uint256",
                                "value": "20,000,000,000,000,000,000,000"
                            }
                        ],
                        "signature": "Transfer(address,address,uint256)"
                    },
                    "id": 1,
                    "logData": "0x00000000000000000000000000000000000000000000043c33c1937564800000",
                    "logDecoded": true,
                    "operation": "EVENT",
                    "revert": false,
                    "status": true,
                    "topics": [
                        "0xddf252ad1be2c89b69c2b068fc378daa952ba7f163c4a11628f55a4df523b3ef",
                        "0x00000000000000000000000055937fc467b0bca9d1ee5a4358fe949a299c64c4",
                        "0x0000000000000000000000009ab9b902712041eb44171055e4b3e383df201477"
                    ]
                },
                "nodeType": 1
            }
        },
        "gasFlame": [
            {
                "children": [
                    {
                        "children": [
                            {
                                "children": [],
                                "depth": 0,
                                "name": "Initial Gas",
                                "value": 23320
                            },
                            {
                                "children": [],
                                "depth": 0,
                                "name": "Executed Gas",
                                "value": 29517
                            }
                        ],
                        "depth": -1,
                        "name": "Actual Gas Used",
                        "value": 52837
                    },
                    {
                        "children": [],
                        "depth": -1,
                        "name": "Refunded Gas",
                        "value": 0
                    }
                ],
                "depth": -2,
                "name": "Total Gas",
                "value": 52837
            }
        ],
        "isConfirmed": true,
        "mainTrace": [
            {
                "children": [
                    {
                        "children": [
                            {
                                "children": [],
                                "depth": 1,
                                "id": 1,
                                "order": 1
                            }
                        ],
                        "depth": 0,
                        "id": 0,
                        "order": 0
                    }
                ],
                "depth": -1,
                "id": -1,
                "order": -1
            }
        ],
        "mainTraceNodeCount": 2,
        "parentIdMap": {
            "0": -1,
            "1": 0
        },
        "tidyTrace": [
            {
                "children": [
                    {
                        "children": [
                            {
                                "children": [],
                                "depth": 1,
                                "id": 1,
                                "order": 1
                            }
                        ],
                        "depth": 0,
                        "id": 0,
                        "order": 0
                    }
                ],
                "depth": -1,
                "id": -1,
                "order": -1
            }
        ],
        "tidyTraceNodeCount": 2
    },
    "state_change": {
        "stateChanges": [
            {
                "address": "0xc5f6950c17b6eb1e9bff46f1ee7ba00a22a3053c",
                "erc": "",
                "slots": [
                    {
                        "current": "0x00000000000000000000000000000000000000000000043c33c1937564800000",
                        "key": "0x0e971db7e970fc7af1024fd165fa49ff9f9d64605b3c3171ad3ff82b7bfe906d",
                        "prev": "0x0000000000000000000000000000000000000000000000000000000000000000"
                    },
                    {
                        "current": "0x000000000000000000000000000000000000000008c645b8f50b62b7c957ff9d",
                        "key": "0x7bbd24b6678e0984f64eaafe6a6bcd50bdc44819e6e8fd7e8ce882cede6f6847",
                        "prev": "0x000000000000000000000000000000000000000008c649f528ccf62d2dd7ff9d"
                    }
                ],
                "storageVariables": []
            }
        ]
    }
}