{
    "balance_change": {
        "balanceChanges": [
            {
                "account": "0x6783e21454c437da124a52248b4997d31d28083e",
                "assets": [
                    {
                        "address": "0xe53ec727dbdeb9e2d5456c3be40cff031ab40a55",
                        "amount": "27.573694",
                        "iconUrl": "",
                        "isERC1155": false,
                        "isERC721": false,
                        "sign": false,
                        "value": "22.87825071"
                    }
                ]
            },
            {
                "account": "0x95a9bd206ae52c4ba8eecfc93d18eacdd41c88cc",
                "assets": [
                    {
                        "address": "0xe53ec727dbdeb9e2d5456c3be40cff031ab40a55",
                        "amount": "27.573694",
                        "iconUrl": "",
                        "isERC1155": false,
                        "isERC721": false,
                        "sign": true,
                        "value": "22.87825071"
                    }
                ]
            }
        ]
    },
    "profile": {
        "basic_info": {
            "baseFee": "54.670825009",
            "blockNumber": 14150312,
            "callData": "0xa9059cbb00000000000000000000000095a9bd206ae52c4ba8eecfc93d18eacdd41c88cc0000000000000000000000000000000000000000000000017ea97099ef51e000",
            "debugEnable": true,
            "errorInfo": "",
            "eventCount": 1,
            "feeRecipient": "0xea674fdde714fd979de3edf0f56aa9716b898ec8",
            "formatValue": "0",
            "gasLimit": 250000,
            "gasPrice": "56.670825009",
            "gasUsed": 34365,
            "intTxnCount": 0,
            "internalRevert": false,
            "internalRevertMessage": "",
            "isContractCreation": false,
            "isFlashloan": false,
            "maxFee": "103",
            "nonce": 0,
            "overwritedBlockNumber": -1,
            "priorityFee": "2",
            "receiver": "0xe53ec727dbdeb9e2d5456c3be40cff031ab40a55",
            "revertMessage": "",
            "sender": "0x6783e21454c437da124a52248b4997d31d28083e",
            "simulationEnable": true,
            "sourceTxnHash": "0x32e0c71212bb2ec7907bcef659448012e557f360ca0d45cbd5ecbc8564b234c8",
            "status": true,
            "timestamp": "2022-02-06T04:32:14Z",
            "transactionFee": "0.001947492901434285",
            "txnHash": "0x32e0c71212bb2ec7907bcef659448012e557f360ca0d45cbd5ecbc8564b234c8",
            "txnIndex": 88,
            "type": 2,
            "value": "0"
        },
        "fund_flow": [
            {
                "amount": "27.573694",
                "from": "0x6783e21454c437da124a52248b4997d31d28083e",
                "id": 1,
                "isERC1155": false,
                "isERC721": false,
                "isReverted": false,
                "order": 1,
                "to": "0x95a9bd206ae52c4ba8eecfc93d18eacdd41c88cc",
                "token": "0xe53ec727dbdeb9e2d5456c3be40cff031ab40a55"
            }
        ],
        "token_infos": [
            {
                "address": "0xc02aaa39b223fe8d0a0e5c4f27ead9083c756cc2",
                "decimals": 18
            },
            {
                "address": "0xe53ec727dbdeb9e2d5456c3be40cff031ab40a55",
                "decimals": 18
            },
            {
                "address": "0xeeeeeeeeeeeeeeeeeeeeeeeeeeeeeeeeeeeeeeee",
                "decimals": 18
            }
        ]
    },
    "address_label": {
        "labels": [
            {
                "address": "0x6783e21454c437da124a52248b4997d31d28083e",
                "label": "COINBASE"
            },
            {
                "address": "0x95a9bd206ae52c4ba8eecfc93d18eacdd41c88cc",
                "label": "Coinbase 13"
            },
            {
                "address": "0xe53ec727dbdeb9e2d5456c3be40cff031ab40a55",
                "label": "SuperFarm: SUPER Token"
            },
            {
                "address": "0x0000000000000000000000000000000000000001",
                "label": "Precompiled"
            },
            {
                "address": "0x0000000000000000000000000000000000000002",
                "label": "Precompiled"
            },
            {
                "address": "0x0000000000000000000000000000000000000003",
                "label": "Precompiled"
            },
            {
                "address": "0x0000000000000000000000000000000000000004",
                "label": "Precompiled"
            },
            {
                "address": "0xeeeeeeeeeeeeeeeeeeeeeeeeeeeeeeeeeeeeeeee",
                "label": "Ether"
            }
        ]
    },
    "trace": {
        "accountLabels": null,
        "dataMap": {
            "-1": {
                "invocation": {
                    "address": "0x6783e21454c437da124a52248b4997d31d28083e",
                    "callData": "",
                    "decodedMethod": null,
                    "errorInfo": "",
                    "fromAddress": "",
                    "gasUsed": 0,
                    "id": -1,
                    "methodDecoded": false,
                    "operation": "",
                    "output": "",
                    "revert": false,
                    "revertMessage": "",
                    "selector": "",
                    "status": false,
                    "value": ""
                },
                "nodeType": 0
            },
            "0": {
                "invocation": {
                    "address": "0xe53ec727dbdeb9e2d5456c3be40cff031ab40a55",
                    "callData": "0x00000000000000000000000095a9bd206ae52c4ba8eecfc93d18eacdd41c88cc0000000000000000000000000000000000000000000000017ea97099ef51e000",
                    "decodedMethod": {
                        "callParams": [
                            {
                                "name": "recipient",
                                "type": "address",
                                "value": "0x95a9bd206ae52c4ba8eecfc93d18eacdd41c88cc"
                            },
                            {
                                "decimalAvailable": true,
                                "name": "amount",
                                "type": "uint256",
                                "value": "27,573,694,000,000,000,000"
                            }
                        ],
                        "constructorArguments": "",
                        "name": "transfer",
                        "returnParams": [
                            {
                                "name": "",
                                "type": "bool",
                                "value": true
                            }
                        ],
                        "signature": "transfer(address,uint256)"
                    },
                    "errorInfo": "",
                    "fromAddress": "0x6783e21454c437da124a52248b4997d31d28083e",
                    "gasUsed": 34365,
                    "id": 0,
                    "methodDecoded": true,
                    "operation": "CALL",
                    "output": "0x0000000000000000000000000000000000000000000000000000000000000001",
                    "revert": false,
                    "revertMessage": "",
                    "selector": "0xa9059cbb",
                    "status": true,
                    "value": "0"
                },
                "nodeType": 0
            },
            "1": {
                "event": {
                    "contract": "0xe53ec727dbdeb9e2d5456c3be40cff031ab40a55",
                    "decodedLog": {
                        "name": "Transfer",
                        "params": [
                            {
                                "name": "from",
                                "type": "address",
                                "value": "0x6783e21454c437da124a52248b4997d31d28083e"
                            },
                            {
                                "name": "to",
                                "type": "address",
                                "value": "0x95a9bd206ae52c4ba8eecfc93d18eacdd41c88cc"
                            },
                            {
                                "decimalAvailable": true,
                                "name": "value",
                                "type": "uint256",
                                "value": "27,573,694,000,000,000,000"
                            }
                        ],
                        "signature": "Transfer(address,address,uint256)"
                    },
                    "id": 1,
                    "logData": "0x0000000000000000000000000000000000000000000000017ea97099ef51e000",
                    "logDecoded": true,
                    "operation": "EVENT",
                    "revert": false,
                    "status": true,
                    "topics": [
                        "0xddf252ad1be2c89b69c2b068fc378daa952ba7f163c4a11628f55a4df523b3ef",
                        "0x0000000000000000000000006783e21454c437da124a52248b4997d31d28083e",
                        "0x00000000000000000000000095a9bd206ae52c4ba8eecfc93d18eacdd41c88cc"
                    ]
                },
                "nodeType": 1
            }
        },
        "gasFlame": [
            {
                "children": [
                    {
                        "children": [
                            {
                                "children": [],
                                "depth": 0,
                                "name": "Initial Gas",
                                "value": 21656
                            },
                            {
                                "children": [],
                                "depth": 0,
                                "name": "Executed Gas",
                                "value": 17509
                            }
                        ],
                        "depth": -1,
                        "name": "Actual Gas Used",
                        "value": 34365
                    },
                    {
                        "children": [],
                        "depth": -1,
                        "name": "Refunded Gas",
                        "value": 4800
                    }
                ],
                "depth": -2,
                "name": "Total Gas",
                "value": 39165
            }
        ],
        "isConfirmed": true,
        "mainTrace": [
            {
                "children": [
                    {
                        "children": [
                            {
                                "children": [],
                                "depth": 1,
                                "id": 1,
                                "order": 1
                            }
                        ],
                        "depth": 0,
                        "id": 0,
                        "order": 0
                    }
                ],
                "depth": -1,
                "id": -1,
                "order": -1
            }
        ],
        "mainTraceNodeCount": 2,
        "parentIdMap": {
            "0": -1,
            "1": 0
        },
        "tidyTrace": [
            {
                "children": [
                    {
                        "children": [
                            {
                                "children": [],
                                "depth": 1,
                                "id": 1,
                                "order": 1
                            }
                        ],
                        "depth": 0,
                        "id": 0,
                        "order": 0
                    }
                ],
                "depth": -1,
                "id": -1,
                "order": -1
            }
        ],
        "tidyTraceNodeCount": 2
    },
    "state_change": {
        "stateChanges": [
            {
                "address": "0xe53ec727dbdeb9e2d5456c3be40cff031ab40a55",
                "erc": "ERC-20",
                "slots": [
                    {
                        "current": "0x0000000000000000000000000000000000000000000000000000000000000000",
                        "key": "0x33a37a9e8ba68ee1590e89b97d7da460101c45530345a1087937eb307bf19848",
                        "prev": "0x0000000000000000000000000000000000000000000000017ea97099ef51e000"
                    },
                    {
                        "current": "0x000000000000000000000000000000000000000000006f6d1833db7925305c48",
                        "key": "0x5d7884dd8ffa2d3dcdbcd8b260f24860b9e90621a85d23ecbf1177303595e841",
                        "prev": "0x000000000000000000000000000000000000000000006f6b998a6adf35de7c48"
                    }
                ],
                "storageVariables": [
                    {
                        "name": "_balances",
                        "type": "mapping(address => uint256)",
                        "value": {
                            "pairs": [
                                {
                                    "key": "0x6783e21454c437da124a52248b4997d31d28083e",
                                    "value": {
                                        "current": "0",
                                        "prev": "27573694000000000000",
                                        "typeTag": 1
                                    }
                                },
                                {
                                    "key": "0x95a9bd206ae52c4ba8eecfc93d18eacdd41c88cc",
                                    "value": {
                                        "current": "526195118681359043812424",
                                        "prev": "526167544987359043812424",
                                        "typeTag": 1
                                    }
                                }
                            ],
                            "typeTag": 4
                        }
                    }
                ]
            }
        ]
    }
}