{
    "balance_change": {
        "balanceChanges": [
            {
                "account": "0x30b0a65e4ee153946123578588273e4e5485c031",
                "assets": [
                    {
                        "address": "0xd533a949740bb3306d119cc777fa900ba034cd52",
                        "amount": "189.14671024542097573",
                        "iconUrl": "",
                        "isERC1155": false,
                        "isERC721": false,
                        "sign": true,
                        "value": ""
                    }
                ]
            },
            {
                "account": "0x575ccd8e2d300e2377b43478339e364000318e2c",
                "assets": [
                    {
                        "address": "0xd533a949740bb3306d119cc777fa900ba034cd52",
                        "amount": "189.14671024542097573",
                        "iconUrl": "",
                        "isERC1155": false,
                        "isERC721": false,
                        "sign": false,
                        "value": ""
                    }
                ]
            }
        ]
    },
    "profile": {
        "basic_info": {
            "baseFee": "",
            "blockNumber": 11075113,
            "callData": "0x1e83409a00000000000000000000000030b0a65e4ee153946123578588273e4e5485c031",
            "debugEnable": true,
            "errorInfo": "",
            "eventCount": 2,
            "feeRecipient": "0xc4aeb20798368c48b27280847e187bb332b9bc77",
            "formatValue": "0",
            "gasLimit": 132249,
            "gasPrice": "20",
            "gasUsed": 67465,
            "intTxnCount": 1,
            "internalRevert": false,
            "internalRevertMessage": "",
            "isContractCreation": false,
            "isFlashloan": false,
            "maxFee": "",
            "nonce": 735,
            "overwritedBlockNumber": -1,
            "priorityFee": "",
            "receiver": "0x575ccd8e2d300e2377b43478339e364000318e2c",
            "revertMessage": "",
            "sender": "0x30b0a65e4ee153946123578588273e4e5485c031",
            "simulationEnable": true,
            "sourceTxnHash": "0x32a53060d67f208c86b426ee2c9d3cb0e194faaf24645eefcc808b3e1ccfa356",
            "status": true,
            "timestamp": "2020-10-17T18:39:28Z",
            "transactionFee": "0.0013493",
            "txnHash": "0x32a53060d67f208c86b426ee2c9d3cb0e194faaf24645eefcc808b3e1ccfa356",
            "txnIndex": 48,
            "type": 0,
            "value": "0"
        },
        "fund_flow": [
            {
                "amount": "189.14671024542097573",
                "from": "0x575ccd8e2d300e2377b43478339e364000318e2c",
                "id": 1,
                "isERC1155": false,
                "isERC721": false,
                "isReverted": false,
                "order": 1,
                "to": "0x30b0a65e4ee153946123578588273e4e5485c031",
                "token": "0xd533a949740bb3306d119cc777fa900ba034cd52"
            }
        ],
        "token_infos": [
            {
                "address": "0xc02aaa39b223fe8d0a0e5c4f27ead9083c756cc2",
                "decimals": 18
            },
            {
                "address": "0xd533a949740bb3306d119cc777fa900ba034cd52",
                "decimals": 18
            },
            {
                "address": "0xeeeeeeeeeeeeeeeeeeeeeeeeeeeeeeeeeeeeeeee",
                "decimals": 18
            }
        ]
    },
    "address_label": {
        "labels": [
            {
                "address": "0xeeeeeeeeeeeeeeeeeeeeeeeeeeeeeeeeeeeeeeee",
                "label": "Ether"
            },
            {
                "address": "0x575ccd8e2d300e2377b43478339e364000318e2c",
                "label": "Curve.fi: Vesting Escrow"
            },
            {
                "address": "0xd533a949740bb3306d119cc777fa900ba034cd52",
                "label": "Curve.fi: CRV Token"
            },
            {
                "address": "0x0000000000000000000000000000000000000001",
                "label": "Precompiled"
            },
            {
                "address": "0x0000000000000000000000000000000000000002",
                "label": "Precompiled"
            },
            {
                "address": "0x0000000000000000000000000000000000000003",
                "label": "Precompiled"
            },
            {
                "address": "0x0000000000000000000000000000000000000004",
                "label": "Precompiled"
            }
        ]
    },
    "trace": {
        "accountLabels": null,
        "dataMap": {
            "-1": {
                "invocation": {
                    "address": "0x30b0a65e4ee153946123578588273e4e5485c031",
                    "callData": "",
                    "decodedMethod": null,
                    "errorInfo": "",
                    "fromAddress": "",
                    "gasUsed": 0,
                    "id": -1,
                    "methodDecoded": false,
                    "operation": "",
                    "output": "",
                    "revert": false,
                    "revertMessage": "",
                    "selector": "",
                    "status": false,
                    "value": ""
                },
                "nodeType": 0
            },
            "0": {
                "invocation": {
                    "address": "0x575ccd8e2d300e2377b43478339e364000318e2c",
                    "callData": "0x00000000000000000000000030b0a65e4ee153946123578588273e4e5485c031",
                    "decodedMethod": {
                        "callParams": [
                            {
                                "name": "_recipient",
                                "type": "address",
                                "value": "0x30b0a65e4ee153946123578588273e4e5485c031"
                            }
                        ],
                        "constructorArguments": "",
                        "name": "claim",
                        "returnParams": [],
                        "signature": "claim(address)"
                    },
                    "errorInfo": "",
                    "fromAddress": "0x30b0a65e4ee153946123578588273e4e5485c031",
                    "gasUsed": 67465,
                    "id": 0,
                    "methodDecoded": true,
                    "operation": "CALL",
                    "output": "",
                    "revert": false,
                    "revertMessage": "",
                    "selector": "0x1e83409a",
                    "status": true,
                    "value": "0"
                },
                "nodeType": 0
            },
            "1": {
                "invocation": {
                    "address": "0xd533a949740bb3306d119cc777fa900ba034cd52",
                    "callData": "0x00000000000000000000000030b0a65e4ee153946123578588273e4e5485c03100000000000000000000000000000000000000000000000a40f01ad3740e4672",
                    "decodedMethod": {
                        "callParams": [
                            {
                                "name": "recipient",
                                "type": "address",
                                "value": "0x30b0a65e4ee153946123578588273e4e5485c031"
                            },
                            {
                                "decimalAvailable": true,
                                "name": "amount",
                                "type": "uint256",
                                "value": "189,146,710,245,420,975,730"
                            }
                        ],
                        "constructorArguments": "",
                        "name": "transfer",
                        "returnParams": [
                            {
                                "name": "",
                                "type": "bool",
                                "value": true
                            }
                        ],
                        "signature": "transfer(address,uint256)"
                    },
                    "errorInfo": "",
                    "fromAddress": "0x575ccd8e2d300e2377b43478339e364000318e2c",
                    "gasUsed": 29181,
                    "id": 1,
                    "methodDecoded": true,
                    "operation": "CALL",
                    "output": "0x0000000000000000000000000000000000000000000000000000000000000001",
                    "revert": false,
                    "revertMessage": "",
                    "selector": "0xa9059cbb",
                    "status": true,
                    "value": "0"
                },
                "nodeType": 0
            },
            "2": {
                "event": {
                    "contract": "0xd533a949740bb3306d119cc777fa900ba034cd52",
                    "decodedLog": {
                        "name": "Transfer",
                        "params": [
                            {
                                "name": "from",
                                "type": "address",
                                "value": "0x575ccd8e2d300e2377b43478339e364000318e2c"
                            },
                            {
                                "name": "to",
                                "type": "address",
                                "value": "0x30b0a65e4ee153946123578588273e4e5485c031"
                            },
                            {
                                "decimalAvailable": true,
                                "name": "value",
                                "type": "uint256",
                                "value": "189,146,710,245,420,975,730"
                            }
                        ],
                        "signature": "Transfer(address,address,uint256)"
                    },
                    "id": 2,
                    "logData": "0x00000000000000000000000000000000000000000000000a40f01ad3740e4672",
                    "logDecoded": true,
                    "operation": "EVENT",
                    "revert": false,
                    "status": true,
                    "topics": [
                        "0xddf252ad1be2c89b69c2b068fc378daa952ba7f163c4a11628f55a4df523b3ef",
                        "0x000000000000000000000000575ccd8e2d300e2377b43478339e364000318e2c",
                        "0x00000000000000000000000030b0a65e4ee153946123578588273e4e5485c031"
                    ]
                },
                "nodeType": 1
            },
            "3": {
                "event": {
                    "contract": "0x575ccd8e2d300e2377b43478339e364000318e2c",
                    "decodedLog": {
                        "name": "Claim",
                        "params": [
                            {
                                "name": "user",
                                "type": "address",
                                "value": "0x30b0a65e4ee153946123578588273e4e5485c031"
                            },
                            {
                                "name": "amount",
                                "type": "uint256",
                                "value": "189,146,710,245,420,975,730"
                            }
                        ],
                        "signature": "Claim(address,uint256)"
                    },
                    "id": 3,
                    "logData": "0x00000000000000000000000000000000000000000000000a40f01ad3740e4672",
                    "logDecoded": true,
                    "operation": "EVENT",
                    "revert": false,
                    "status": true,
                    "topics": [
                        "0x47cee97cb7acd717b3c0aa1435d004cd5b3c8c57d70dbceb4e4458bbd60e39d4",
                        "0x00000000000000000000000030b0a65e4ee153946123578588273e4e5485c031"
                    ]
                },
                "nodeType": 1
            }
        },
        "gasFlame": [
            {
                "children": [
                    {
                        "children": [
                            {
                                "children": [],
                                "depth": 0,
                                "name": "Initial Gas",
                                "value": 21432
                            },
                            {
                                "children": [
                                    {
                                        "children": [],
                                        "depth": 1,
                                        "name": "transfer",
                                        "value": 29181
                                    }
                                ],
                                "depth": 0,
                                "name": "Executed Gas",
                                "value": 65233
                            }
                        ],
                        "depth": -1,
                        "name": "Actual Gas Used",
                        "value": 67465
                    },
                    {
                        "children": [],
                        "depth": -1,
                        "name": "Refunded Gas",
                        "value": 19200
                    }
                ],
                "depth": -2,
                "name": "Total Gas",
                "value": 86665
            }
        ],
        "isConfirmed": true,
        "mainTrace": [
            {
                "children": [
                    {
                        "children": [
                            {
                                "children": [
                                    {
                                        "children": [],
                                        "depth": 2,
                                        "id": 2,
                                        "order": 2
                                    }
                                ],
                                "depth": 1,
                                "id": 1,
                                "order": 1
                            },
                            {
                                "children": [],
                                "depth": 1,
                                "id": 3,
                                "order": 3
                            }
                        ],
                        "depth": 0,
                        "id": 0,
                        "order": 0
                    }
                ],
                "depth": -1,
                "id": -1,
                "order": -1
            }
        ],
        "mainTraceNodeCount": 4,
        "parentIdMap": {
            "0": -1,
            "1": 0,
            "2": 1,
            "3": 0
        },
        "tidyTrace": [
            {
                "children": [
                    {
                        "children": [
                            {
                                "children": [
                                    {
                                        "children": [],
                                        "depth": 2,
                                        "id": 2,
                                        "order": 2
                                    }
                                ],
                                "depth": 1,
                                "id": 1,
                                "order": 1
                            },
                            {
                                "children": [],
                                "depth": 1,
                                "id": 3,
                                "order": 3
                            }
                        ],
                        "depth": 0,
                        "id": 0,
                        "order": 0
                    }
                ],
                "depth": -1,
                "id": -1,
                "order": -1
            }
        ],
        "tidyTraceNodeCount": 4
    },
    "state_change": {
        "stateChanges": [
            {
                "address": "0x575ccd8e2d300e2377b43478339e364000318e2c",
                "erc": "",
                "slots": [
                    {
                        "current": "0x0000000000000000000000000000000000000000000004729ff8cf6fd57ade53",
                        "key": "0x09252c532571833583f90db05f0ac0febb0c346908f94fdce8ddf10e145b6054",
                        "prev": "0x0000000000000000000000000000000000000000000004685f08b49c616c97e1"
                    }
                ],
                "storageVariables": []
            },
            {
                "address": "0xd533a949740bb3306d119cc777fa900ba034cd52",
                "erc": "",
                "slots": [
                    {
                        "current": "0x0000000000000000000000000000000000000000006c56211f3f19245dfe35e7",
                        "key": "0x1bfb295e469a8b546cb4b59cd898491c831947ed709130d29821ff832641b66e",
                        "prev": "0x0000000000000000000000000000000000000000006c562b602f33f7d20c7c59"
                    },
                    {
                        "current": "0x00000000000000000000000000000000000000000000000a40f01ad3740e4672",
                        "key": "0x9a42037942dcf1ab6221a6f58704f0d855471ab4bf2a07fa810a0dae6eb32b1c",
                        "prev": "0x0000000000000000000000000000000000000000000000000000000000000000"
                    }
                ],
                "storageVariables": []
            }
        ]
    }
}