{
    "balance_change": {
        "balanceChanges": [
            {
                "account": "0xe2a54c41ba4aca8140fe60a883393d31752d5195",
                "assets": [
                    {
                        "address": "0xa236c3d4acaf7a3f465dbc5e0acd548df3004148",
                        "amount": "0.37078",
                        "iconUrl": "",
                        "isERC1155": false,
                        "isERC721": false,
                        "sign": false,
                        "value": ""
                    },
                    {
                        "address": "0x2260fac5e5542a773aa44fbcfedf7c193bc2c599",
                        "amount": "0.01488877",
                        "iconUrl": "https://assets.blocksec.com/icon/878f2983cb21c5816eb5879d9b6f7a3fe2eb6fce7560c367a0315527852a8a84.png",
                        "isERC1155": false,
                        "isERC721": false,
                        "sign": true,
                        "value": "365.34063826"
                    },
                    {
                        "address": "0xc02aaa39b223fe8d0a0e5c4f27ead9083c756cc2",
                        "amount": "0.561683123604709093",
                        "iconUrl": "https://assets.blocksec.com/icon/f1cb2d02c471d545bbc7722daf3277fd852d98e63d118771af7047bd8256c516.png",
                        "isERC1155": false,
                        "isERC721": false,
                        "sign": true,
                        "value": "948.9097045"
                    }
                ]
            },
            {
                "account": "0xa236c3d4acaf7a3f465dbc5e0acd548df3004148",
                "assets": [
                    {
                        "address": "0x2260fac5e5542a773aa44fbcfedf7c193bc2c599",
                        "amount": "0.00000072",
                        "iconUrl": "https://assets.blocksec.com/icon/878f2983cb21c5816eb5879d9b6f7a3fe2eb6fce7560c367a0315527852a8a84.png",
                        "isERC1155": false,
                        "isERC721": false,
                        "sign": true,
                        "value": "0.01766736"
                    },
                    {
                        "address": "0xc02aaa39b223fe8d0a0e5c4f27ead9083c756cc2",
                        "amount": "0.000036031849467456",
                        "iconUrl": "https://assets.blocksec.com/icon/f1cb2d02c471d545bbc7722daf3277fd852d98e63d118771af7047bd8256c516.png",
                        "isERC1155": false,
                        "isERC721": false,
                        "sign": true,
                        "value": "0.06087234"
                    }
                ]
            },
            {
                "account": "0x0000000000000000000000000000000000000000",
                "assets": [
                    {
                        "address": "0xa236c3d4acaf7a3f465dbc5e0acd548df3004148",
                        "amount": "0.37078",
                        "iconUrl": "",
                        "isERC1155": false,
                        "isERC721": false,
                        "sign": true,
                        "value": ""
                    }
                ]
            },
            {
                "account": "0x6ab3bba2f41e7eaa262fa5a1a9b3932fa161526f",
                "assets": [
                    {
                        "address": "0x2260fac5e5542a773aa44fbcfedf7c193bc2c599",
                        "amount": "0.01488949",
                        "iconUrl": "https://assets.blocksec.com/icon/878f2983cb21c5816eb5879d9b6f7a3fe2eb6fce7560c367a0315527852a8a84.png",
                        "isERC1155": false,
                        "isERC721": false,
                        "sign": false,
                        "value": "365.35830562"
                    },
                    {
                        "address": "0xc02aaa39b223fe8d0a0e5c4f27ead9083c756cc2",
                        "amount": "0.561719155454176549",
                        "iconUrl": "https://assets.blocksec.com/icon/f1cb2d02c471d545bbc7722daf3277fd852d98e63d118771af7047bd8256c516.png",
                        "isERC1155": false,
                        "isERC721": false,
                        "sign": false,
                        "value": "948.9705769"
                    }
                ]
            }
        ]
    },
    "profile": {
        "basic_info": {
            "baseFee": "22.782773909",
            "blockNumber": 16655228,
            "callData": "0xd331bef7000000000000000000000000000000000000000000000000052546720dd1c00000000000000000000000000000000000000000000000000000000000001472550000000000000000000000000000000000000000000000000703f30ae0e95568000000000000000000000000e2a54c41ba4aca8140fe60a883393d31752d5195",
            "debugEnable": true,
            "errorInfo": "",
            "eventCount": 13,
            "feeRecipient": "0x690b9a9e9aa1c9db991c7721a92d351db4fac990",
            "formatValue": "0",
            "gasLimit": 373215,
            "gasPrice": "23.782773909",
            "gasUsed": 292560,
            "intTxnCount": 15,
            "internalRevert": false,
            "internalRevertMessage": "",
            "isContractCreation": false,
            "isFlashloan": false,
            "maxFee": "29.799231095",
            "nonce": 222,
            "overwritedBlockNumber": -1,
            "priorityFee": "1",
            "receiver": "0xa236c3d4acaf7a3f465dbc5e0acd548df3004148",
            "revertMessage": "",
            "sender": "0xe2a54c41ba4aca8140fe60a883393d31752d5195",
            "simulationEnable": true,
            "sourceTxnHash": "0x32a187a0d9c6bf29e59046dc88f59c41ddd20693e6de8f06e49a8dee41e1f417",
            "status": true,
            "timestamp": "2023-02-18T11:29:23Z",
            "transactionFee": "0.00695788833481704",
            "txnHash": "0x32a187a0d9c6bf29e59046dc88f59c41ddd20693e6de8f06e49a8dee41e1f417",
            "txnIndex": 84,
            "type": 2,
            "value": "0"
        },
        "fund_flow": [
            {
                "amount": "0.37078",
                "from": "0xe2a54c41ba4aca8140fe60a883393d31752d5195",
                "id": 1,
                "isERC1155": false,
                "isERC721": false,
                "isReverted": false,
                "order": 1,
                "to": "0x0000000000000000000000000000000000000000",
                "token": "0xa236c3d4acaf7a3f465dbc5e0acd548df3004148"
            },
            {
                "amount": "0.01488949",
                "from": "0x6ab3bba2f41e7eaa262fa5a1a9b3932fa161526f",
                "id": 2,
                "isERC1155": false,
                "isERC721": false,
                "isReverted": false,
                "order": 2,
                "to": "0xa236c3d4acaf7a3f465dbc5e0acd548df3004148",
                "token": "0x2260fac5e5542a773aa44fbcfedf7c193bc2c599"
            },
            {
                "amount": "0.561719155454176549",
                "from": "0x6ab3bba2f41e7eaa262fa5a1a9b3932fa161526f",
                "id": 3,
                "isERC1155": false,
                "isERC721": false,
                "isReverted": false,
                "order": 3,
                "to": "0xa236c3d4acaf7a3f465dbc5e0acd548df3004148",
                "token": "0xc02aaa39b223fe8d0a0e5c4f27ead9083c756cc2"
            },
            {
                "amount": "0.01488877",
                "from": "0xa236c3d4acaf7a3f465dbc5e0acd548df3004148",
                "id": 4,
                "isERC1155": false,
                "isERC721": false,
                "isReverted": false,
                "order": 4,
                "to": "0xe2a54c41ba4aca8140fe60a883393d31752d5195",
                "token": "0x2260fac5e5542a773aa44fbcfedf7c193bc2c599"
            },
            {
                "amount": "0.561683123604709093",
                "from": "0xa236c3d4acaf7a3f465dbc5e0acd548df3004148",
                "id": 5,
                "isERC1155": false,
                "isERC721": false,
                "isReverted": false,
                "order": 5,
                "to": "0xe2a54c41ba4aca8140fe60a883393d31752d5195",
                "token": "0xc02aaa39b223fe8d0a0e5c4f27ead9083c756cc2"
            }
        ],
        "token_infos": [
            {
                "address": "0x2260fac5e5542a773aa44fbcfedf7c193bc2c599",
                "decimals": 8
            },
            {
                "address": "0xa236c3d4acaf7a3f465dbc5e0acd548df3004148",
                "decimals": 18
            },
            {
                "address": "0xc02aaa39b223fe8d0a0e5c4f27ead9083c756cc2",
                "decimals": 18
            },
            {
                "address": "0xeeeeeeeeeeeeeeeeeeeeeeeeeeeeeeeeeeeeeeee",
                "decimals": 18
            }
        ]
    },
    "address_label": {
        "labels": [
            {
                "address": "0x6ab3bba2f41e7eaa262fa5a1a9b3932fa161526f",
                "label": "Uniswap V3: WBTC 3"
            },
            {
                "address": "0xc02aaa39b223fe8d0a0e5c4f27ead9083c756cc2",
                "label": "Wrapped Ether (WETH)"
            },
            {
                "address": "0x2260fac5e5542a773aa44fbcfedf7c193bc2c599",
                "label": "Wrapped BTC: WBTC Token"
            },
            {
                "address": "0x0000000000000000000000000000000000000002",
                "label": "Precompiled"
            },
            {
                "address": "0x0000000000000000000000000000000000000004",
                "label": "Precompiled"
            },
            {
                "address": "0xeeeeeeeeeeeeeeeeeeeeeeeeeeeeeeeeeeeeeeee",
                "label": "Ether"
            },
            {
                "address": "0xa236c3d4acaf7a3f465dbc5e0acd548df3004148",
                "label": "AV_TEST"
            },
            {
                "address": "0x8cbc885ece6c515e092ba1b3e24b567a7d91572c",
                "label": "AlphaProVault"
            },
            {
                "address": "0x0000000000000000000000000000000000000001",
                "label": "Precompiled"
            },
            {
                "address": "0x0000000000000000000000000000000000000003",
                "label": "Precompiled"
            }
        ]
    },
    "trace": {
        "accountLabels": null,
        "dataMap": {
            "-1": {
                "invocation": {
                    "address": "0xe2a54c41ba4aca8140fe60a883393d31752d5195",
                    "callData": "",
                    "decodedMethod": null,
                    "errorInfo": "",
                    "fromAddress": "",
                    "gasUsed": 0,
                    "id": -1,
                    "methodDecoded": false,
                    "operation": "",
                    "output": "",
                    "revert": false,
                    "revertMessage": "",
                    "selector": "",
                    "status": false,
                    "value": ""
                },
                "nodeType": 0
            },
            "0": {
                "invocation": {
                    "address": "0xa236c3d4acaf7a3f465dbc5e0acd548df3004148",
                    "callData": "0x000000000000000000000000000000000000000000000000052546720dd1c00000000000000000000000000000000000000000000000000000000000001472550000000000000000000000000000000000000000000000000703f30ae0e95568000000000000000000000000e2a54c41ba4aca8140fe60a883393d31752d5195",
                    "decodedMethod": {
                        "callParams": [
                            {
                                "name": "shares",
                                "type": "uint256",
                                "value": "370,780,000,000,000,000"
                            },
                            {
                                "name": "amount0Min",
                                "type": "uint256",
                                "value": "1,339,989"
                            },
                            {
                                "name": "amount1Min",
                                "type": "uint256",
                                "value": "505,514,811,244,238,184"
                            },
                            {
                                "name": "to",
                                "type": "address",
                                "value": "0xe2a54c41ba4aca8140fe60a883393d31752d5195"
                            }
                        ],
                        "constructorArguments": "",
                        "name": "withdraw",
                        "returnParams": [
                            {
                                "name": "amount0",
                                "type": "uint256",
                                "value": "1,488,877"
                            },
                            {
                                "name": "amount1",
                                "type": "uint256",
                                "value": "561,683,123,604,709,093"
                            }
                        ],
                        "signature": "withdraw(uint256,uint256,uint256,address)"
                    },
                    "errorInfo": "",
                    "fromAddress": "0xe2a54c41ba4aca8140fe60a883393d31752d5195",
                    "gasUsed": 292560,
                    "id": 0,
                    "methodDecoded": true,
                    "operation": "CALL",
                    "output": "0x000000000000000000000000000000000000000000000000000000000016b7ed00000000000000000000000000000000000000000000000007cb7fd332ca5ee5",
                    "revert": false,
                    "revertMessage": "",
                    "selector": "0xd331bef7",
                    "status": true,
                    "value": "0"
                },
                "nodeType": 0
            },
            "1": {
                "invocation": {
                    "address": "0x8cbc885ece6c515e092ba1b3e24b567a7d91572c",
                    "callData": "0x000000000000000000000000000000000000000000000000052546720dd1c00000000000000000000000000000000000000000000000000000000000001472550000000000000000000000000000000000000000000000000703f30ae0e95568000000000000000000000000e2a54c41ba4aca8140fe60a883393d31752d5195",
                    "decodedMethod": {
                        "callParams": [
                            {
                                "name": "shares",
                                "type": "uint256",
                                "value": "370,780,000,000,000,000"
                            },
                            {
                                "name": "amount0Min",
                                "type": "uint256",
                                "value": "1,339,989"
                            },
                            {
                                "name": "amount1Min",
                                "type": "uint256",
                                "value": "505,514,811,244,238,184"
                            },
                            {
                                "name": "to",
                                "type": "address",
                                "value": "0xe2a54c41ba4aca8140fe60a883393d31752d5195"
                            }
                        ],
                        "constructorArguments": "",
                        "name": "withdraw",
                        "returnParams": [
                            {
                                "name": "amount0",
                                "type": "uint256",
                                "value": "1,488,877"
                            },
                            {
                                "name": "amount1",
                                "type": "uint256",
                                "value": "561,683,123,604,709,093"
                            }
                        ],
                        "signature": "withdraw(uint256,uint256,uint256,address)"
                    },
                    "errorInfo": "",
                    "fromAddress": "0xa236c3d4acaf7a3f465dbc5e0acd548df3004148",
                    "gasUsed": 340974,
                    "id": 1,
                    "methodDecoded": true,
                    "operation": "DELEGATECALL",
                    "output": "0x000000000000000000000000000000000000000000000000000000000016b7ed00000000000000000000000000000000000000000000000007cb7fd332ca5ee5",
                    "revert": false,
                    "revertMessage": "",
                    "selector": "0xd331bef7",
                    "status": true,
                    "value": "0"
                },
                "nodeType": 0
            },
            "10": {
                "invocation": {
                    "address": "0x2260fac5e5542a773aa44fbcfedf7c193bc2c599",
                    "callData": "0x000000000000000000000000a236c3d4acaf7a3f465dbc5e0acd548df3004148000000000000000000000000000000000000000000000000000000000016b835",
                    "decodedMethod": {
                        "callParams": [
                            {
                                "name": "_to",
                                "type": "address",
                                "value": "0xa236c3d4acaf7a3f465dbc5e0acd548df3004148"
                            },
                            {
                                "decimalAvailable": true,
                                "name": "_value",
                                "type": "uint256",
                                "value": "1,488,949"
                            }
                        ],
                        "constructorArguments": "",
                        "name": "transfer",
                        "returnParams": [
                            {
                                "name": "",
                                "type": "bool",
                                "value": true
                            }
                        ],
                        "signature": "transfer(address,uint256)"
                    },
                    "errorInfo": "",
                    "fromAddress": "0x6ab3bba2f41e7eaa262fa5a1a9b3932fa161526f",
                    "gasUsed": 13703,
                    "id": 10,
                    "methodDecoded": true,
                    "operation": "CALL",
                    "output": "0x0000000000000000000000000000000000000000000000000000000000000001",
                    "revert": false,
                    "revertMessage": "",
                    "selector": "0xa9059cbb",
                    "status": true,
                    "value": "0"
                },
                "nodeType": 0
            },
            "11": {
                "event": {
                    "contract": "0x2260fac5e5542a773aa44fbcfedf7c193bc2c599",
                    "decodedLog": {
                        "name": "Transfer",
                        "params": [
                            {
                                "name": "from",
                                "type": "address",
                                "value": "0x6ab3bba2f41e7eaa262fa5a1a9b3932fa161526f"
                            },
                            {
                                "name": "to",
                                "type": "address",
                                "value": "0xa236c3d4acaf7a3f465dbc5e0acd548df3004148"
                            },
                            {
                                "decimalAvailable": true,
                                "name": "value",
                                "type": "uint256",
                                "value": "1,488,949"
                            }
                        ],
                        "signature": "Transfer(address,address,uint256)"
                    },
                    "id": 11,
                    "logData": "0x000000000000000000000000000000000000000000000000000000000016b835",
                    "logDecoded": true,
                    "operation": "EVENT",
                    "revert": false,
                    "status": true,
                    "topics": [
                        "0xddf252ad1be2c89b69c2b068fc378daa952ba7f163c4a11628f55a4df523b3ef",
                        "0x0000000000000000000000006ab3bba2f41e7eaa262fa5a1a9b3932fa161526f",
                        "0x000000000000000000000000a236c3d4acaf7a3f465dbc5e0acd548df3004148"
                    ]
                },
                "nodeType": 1
            },
            "12": {
                "invocation": {
                    "address": "0xc02aaa39b223fe8d0a0e5c4f27ead9083c756cc2",
                    "callData": "0x000000000000000000000000a236c3d4acaf7a3f465dbc5e0acd548df30041480000000000000000000000000000000000000000000000000445353e5f523add",
                    "decodedMethod": {
                        "callParams": [
                            {
                                "name": "dst",
                                "type": "address",
                                "value": "0xa236c3d4acaf7a3f465dbc5e0acd548df3004148"
                            },
                            {
                                "decimalAvailable": true,
                                "name": "wad",
                                "type": "uint256",
                                "value": "307,710,691,548,216,029"
                            }
                        ],
                        "constructorArguments": "",
                        "name": "transfer",
                        "returnParams": [
                            {
                                "name": "",
                                "type": "bool",
                                "value": true
                            }
                        ],
                        "signature": "transfer(address,uint256)"
                    },
                    "errorInfo": "",
                    "fromAddress": "0x6ab3bba2f41e7eaa262fa5a1a9b3932fa161526f",
                    "gasUsed": 10862,
                    "id": 12,
                    "methodDecoded": true,
                    "operation": "CALL",
                    "output": "0x0000000000000000000000000000000000000000000000000000000000000001",
                    "revert": false,
                    "revertMessage": "",
                    "selector": "0xa9059cbb",
                    "status": true,
                    "value": "0"
                },
                "nodeType": 0
            },
            "13": {
                "event": {
                    "contract": "0xc02aaa39b223fe8d0a0e5c4f27ead9083c756cc2",
                    "decodedLog": {
                        "name": "Transfer",
                        "params": [
                            {
                                "name": "src",
                                "type": "address",
                                "value": "0x6ab3bba2f41e7eaa262fa5a1a9b3932fa161526f"
                            },
                            {
                                "name": "dst",
                                "type": "address",
                                "value": "0xa236c3d4acaf7a3f465dbc5e0acd548df3004148"
                            },
                            {
                                "decimalAvailable": true,
                                "name": "wad",
                                "type": "uint256",
                                "value": "307,710,691,548,216,029"
                            }
                        ],
                        "signature": "Transfer(address,address,uint256)"
                    },
                    "id": 13,
                    "logData": "0x0000000000000000000000000000000000000000000000000445353e5f523add",
                    "logDecoded": true,
                    "operation": "EVENT",
                    "revert": false,
                    "status": true,
                    "topics": [
                        "0xddf252ad1be2c89b69c2b068fc378daa952ba7f163c4a11628f55a4df523b3ef",
                        "0x0000000000000000000000006ab3bba2f41e7eaa262fa5a1a9b3932fa161526f",
                        "0x000000000000000000000000a236c3d4acaf7a3f465dbc5e0acd548df3004148"
                    ]
                },
                "nodeType": 1
            },
            "14": {
                "event": {
                    "contract": "0x6ab3bba2f41e7eaa262fa5a1a9b3932fa161526f",
                    "decodedLog": {
                        "name": "Collect",
                        "params": [
                            {
                                "name": "owner",
                                "type": "address",
                                "value": "0xa236c3d4acaf7a3f465dbc5e0acd548df3004148"
                            },
                            {
                                "name": "tickLower",
                                "type": "int24",
                                "value": "255,400"
                            },
                            {
                                "name": "tickUpper",
                                "type": "int24",
                                "value": "258,000"
                            },
                            {
                                "name": "recipient",
                                "type": "address",
                                "value": "0xa236c3d4acaf7a3f465dbc5e0acd548df3004148"
                            },
                            {
                                "name": "amount0",
                                "type": "uint128",
                                "value": "1,488,949"
                            },
                            {
                                "name": "amount1",
                                "type": "uint128",
                                "value": "307,710,691,548,216,029"
                            }
                        ],
                        "signature": "Collect(address,address,int24,int24,uint128,uint128)"
                    },
                    "id": 14,
                    "logData": "0x000000000000000000000000a236c3d4acaf7a3f465dbc5e0acd548df3004148000000000000000000000000000000000000000000000000000000000016b8350000000000000000000000000000000000000000000000000445353e5f523add",
                    "logDecoded": true,
                    "operation": "EVENT",
                    "revert": false,
                    "status": true,
                    "topics": [
                        "0x70935338e69775456a85ddef226c395fb668b63fa0115f5f20610b388e6ca9c0",
                        "0x000000000000000000000000a236c3d4acaf7a3f465dbc5e0acd548df3004148",
                        "0x000000000000000000000000000000000000000000000000000000000003e5a8",
                        "0x000000000000000000000000000000000000000000000000000000000003efd0"
                    ]
                },
                "nodeType": 1
            },
            "15": {
                "event": {
                    "contract": "0xa236c3d4acaf7a3f465dbc5e0acd548df3004148",
                    "decodedLog": {
                        "name": "CollectFees",
                        "params": [
                            {
                                "name": "feesToVault0",
                                "type": "uint256",
                                "value": "1,377"
                            },
                            {
                                "name": "feesToVault1",
                                "type": "uint256",
                                "value": "684,605,139,891,348"
                            },
                            {
                                "name": "feesToProtocol0",
                                "type": "uint256",
                                "value": "72"
                            },
                            {
                                "name": "feesToProtocol1",
                                "type": "uint256",
                                "value": "36,031,849,467,965"
                            }
                        ],
                        "signature": "CollectFees(uint256,uint256,uint256,uint256)"
                    },
                    "id": 15,
                    "logData": "0x000000000000000000000000000000000000000000000000000000000000056100000000000000000000000000000000000000000000000000026ea50e2cb4940000000000000000000000000000000000000000000000000000000000000048000000000000000000000000000000000000000000000000000020c55196903d",
                    "logDecoded": true,
                    "operation": "EVENT",
                    "revert": false,
                    "status": true,
                    "topics": [
                        "0x1ac56d7e866e3f5ea9aa92aa11758ead39a0a5f013f3fefb0f47cb9d008edd27"
                    ]
                },
                "nodeType": 1
            },
            "16": {
                "invocation": {
                    "address": "0x6ab3bba2f41e7eaa262fa5a1a9b3932fa161526f",
                    "callData": "0xdd5ad0f2bfa50fecb647f59be659ac6d7e34d93d9b72203e4c5b03ae078e0aea",
                    "decodedMethod": {
                        "callParams": [
                            {
                                "name": "",
                                "type": "bytes32",
                                "value": "0xdd5ad0f2bfa50fecb647f59be659ac6d7e34d93d9b72203e4c5b03ae078e0aea"
                            }
                        ],
                        "constructorArguments": "",
                        "name": "positions",
                        "returnParams": [
                            {
                                "name": "liquidity",
                                "type": "uint128",
                                "value": "17,367,879,402,414"
                            },
                            {
                                "name": "feeGrowthInside0LastX128",
                                "type": "uint256",
                                "value": "2,445,208,289,395,657,594,081,553,467,548"
                            },
                            {
                                "name": "feeGrowthInside1LastX128",
                                "type": "uint256",
                                "value": "376,072,011,039,739,239,128,986,700,392,843,981,570,382"
                            },
                            {
                                "name": "tokensOwed0",
                                "type": "uint128",
                                "value": "0"
                            },
                            {
                                "name": "tokensOwed1",
                                "type": "uint128",
                                "value": "0"
                            }
                        ],
                        "signature": "positions(bytes32)"
                    },
                    "errorInfo": "",
                    "fromAddress": "0xa236c3d4acaf7a3f465dbc5e0acd548df3004148",
                    "gasUsed": 9013,
                    "id": 16,
                    "methodDecoded": true,
                    "operation": "STATICCALL",
                    "output": "0x00000000000000000000000000000000000000000000000000000fcbc64843ae000000000000000000000000000000000000001edce4e4011de698af7750c89c000000000000000000000000000004512d22bb118549fe1e653d50bf7ae7414e00000000000000000000000000000000000000000000000000000000000000000000000000000000000000000000000000000000000000000000000000000000",
                    "revert": false,
                    "revertMessage": "",
                    "selector": "0x514ea4bf",
                    "status": true,
                    "value": "0"
                },
                "nodeType": 0
            },
            "17": {
                "invocation": {
                    "address": "0x6ab3bba2f41e7eaa262fa5a1a9b3932fa161526f",
                    "callData": "0x000000000000000000000000000000000000000000000000000000000003e738000000000000000000000000000000000000000000000000000000000003ea5800000000000000000000000000000000000000000000000000000fcbc64843ae",
                    "decodedMethod": {
                        "callParams": [
                            {
                                "name": "tickLower",
                                "type": "int24",
                                "value": "255,800"
                            },
                            {
                                "name": "tickUpper",
                                "type": "int24",
                                "value": "256,600"
                            },
                            {
                                "name": "amount",
                                "type": "uint128",
                                "value": "17,367,879,402,414"
                            }
                        ],
                        "constructorArguments": "",
                        "name": "burn",
                        "returnParams": [
                            {
                                "name": "amount0",
                                "type": "uint256",
                                "value": "0"
                            },
                            {
                                "name": "amount1",
                                "type": "uint256",
                                "value": "254,008,463,905,960,520"
                            }
                        ],
                        "signature": "burn(int24,int24,uint128)"
                    },
                    "errorInfo": "",
                    "fromAddress": "0xa236c3d4acaf7a3f465dbc5e0acd548df3004148",
                    "gasUsed": 74984,
                    "id": 17,
                    "methodDecoded": true,
                    "operation": "CALL",
                    "output": "0x000000000000000000000000000000000000000000000000000000000000000000000000000000000000000000000000000000000000000003866b5a250eb248",
                    "revert": false,
                    "revertMessage": "",
                    "selector": "0xa34123a7",
                    "status": true,
                    "value": "0"
                },
                "nodeType": 0
            },
            "18": {
                "event": {
                    "contract": "0x6ab3bba2f41e7eaa262fa5a1a9b3932fa161526f",
                    "decodedLog": {
                        "name": "Burn",
                        "params": [
                            {
                                "name": "owner",
                                "type": "address",
                                "value": "0xa236c3d4acaf7a3f465dbc5e0acd548df3004148"
                            },
                            {
                                "name": "tickLower",
                                "type": "int24",
                                "value": "255,800"
                            },
                            {
                                "name": "tickUpper",
                                "type": "int24",
                                "value": "256,600"
                            },
                            {
                                "name": "amount",
                                "type": "uint128",
                                "value": "17,367,879,402,414"
                            },
                            {
                                "name": "amount0",
                                "type": "uint256",
                                "value": "0"
                            },
                            {
                                "name": "amount1",
                                "type": "uint256",
                                "value": "254,008,463,905,960,520"
                            }
                        ],
                        "signature": "Burn(address,int24,int24,uint128,uint256,uint256)"
                    },
                    "id": 18,
                    "logData": "0x00000000000000000000000000000000000000000000000000000fcbc64843ae000000000000000000000000000000000000000000000000000000000000000000000000000000000000000000000000000000000000000003866b5a250eb248",
                    "logDecoded": true,
                    "operation": "EVENT",
                    "revert": false,
                    "status": true,
                    "topics": [
                        "0x0c396cd989a39f4459b5fa1aed6a9a8dcdbc45908acfd67e028cd568da98982c",
                        "0x000000000000000000000000a236c3d4acaf7a3f465dbc5e0acd548df3004148",
                        "0x000000000000000000000000000000000000000000000000000000000003e738",
                        "0x000000000000000000000000000000000000000000000000000000000003ea58"
                    ]
                },
                "nodeType": 1
            },
            "19": {
                "invocation": {
                    "address": "0x6ab3bba2f41e7eaa262fa5a1a9b3932fa161526f",
                    "callData": "0x000000000000000000000000a236c3d4acaf7a3f465dbc5e0acd548df3004148000000000000000000000000000000000000000000000000000000000003e738000000000000000000000000000000000000000000000000000000000003ea5800000000000000000000000000000000ffffffffffffffffffffffffffffffff00000000000000000000000000000000ffffffffffffffffffffffffffffffff",
                    "decodedMethod": {
                        "callParams": [
                            {
                                "name": "recipient",
                                "type": "address",
                                "value": "0xa236c3d4acaf7a3f465dbc5e0acd548df3004148"
                            },
                            {
                                "name": "tickLower",
                                "type": "int24",
                                "value": "255,800"
                            },
                            {
                                "name": "tickUpper",
                                "type": "int24",
                                "value": "256,600"
                            },
                            {
                                "name": "amount0Requested",
                                "type": "uint128",
                                "value": "340,282,366,920,938,463,463,374,607,431,768,211,455"
                            },
                            {
                                "name": "amount1Requested",
                                "type": "uint128",
                                "value": "340,282,366,920,938,463,463,374,607,431,768,211,455"
                            }
                        ],
                        "constructorArguments": "",
                        "name": "collect",
                        "returnParams": [
                            {
                                "name": "amount0",
                                "type": "uint128",
                                "value": "0"
                            },
                            {
                                "name": "amount1",
                                "type": "uint128",
                                "value": "254,008,463,905,960,520"
                            }
                        ],
                        "signature": "collect(address,int24,int24,uint128,uint128)"
                    },
                    "errorInfo": "",
                    "fromAddress": "0xa236c3d4acaf7a3f465dbc5e0acd548df3004148",
                    "gasUsed": 12346,
                    "id": 19,
                    "methodDecoded": true,
                    "operation": "CALL",
                    "output": "0x000000000000000000000000000000000000000000000000000000000000000000000000000000000000000000000000000000000000000003866b5a250eb248",
                    "revert": false,
                    "revertMessage": "",
                    "selector": "0x4f1eb3d8",
                    "status": true,
                    "value": "0"
                },
                "nodeType": 0
            },
            "2": {
                "event": {
                    "contract": "0xa236c3d4acaf7a3f465dbc5e0acd548df3004148",
                    "decodedLog": {
                        "name": "Transfer",
                        "params": [
                            {
                                "name": "from",
                                "type": "address",
                                "value": "0xe2a54c41ba4aca8140fe60a883393d31752d5195"
                            },
                            {
                                "name": "to",
                                "type": "address",
                                "value": "0x0000000000000000000000000000000000000000"
                            },
                            {
                                "decimalAvailable": true,
                                "name": "value",
                                "type": "uint256",
                                "value": "370,780,000,000,000,000"
                            }
                        ],
                        "signature": "Transfer(address,address,uint256)"
                    },
                    "id": 2,
                    "logData": "0x000000000000000000000000000000000000000000000000052546720dd1c000",
                    "logDecoded": true,
                    "operation": "EVENT",
                    "revert": false,
                    "status": true,
                    "topics": [
                        "0xddf252ad1be2c89b69c2b068fc378daa952ba7f163c4a11628f55a4df523b3ef",
                        "0x000000000000000000000000e2a54c41ba4aca8140fe60a883393d31752d5195",
                        "0x0000000000000000000000000000000000000000000000000000000000000000"
                    ]
                },
                "nodeType": 1
            },
            "20": {
                "invocation": {
                    "address": "0xc02aaa39b223fe8d0a0e5c4f27ead9083c756cc2",
                    "callData": "0x000000000000000000000000a236c3d4acaf7a3f465dbc5e0acd548df300414800000000000000000000000000000000000000000000000003866b5a250eb248",
                    "decodedMethod": {
                        "callParams": [
                            {
                                "name": "dst",
                                "type": "address",
                                "value": "0xa236c3d4acaf7a3f465dbc5e0acd548df3004148"
                            },
                            {
                                "decimalAvailable": true,
                                "name": "wad",
                                "type": "uint256",
                                "value": "254,008,463,905,960,520"
                            }
                        ],
                        "constructorArguments": "",
                        "name": "transfer",
                        "returnParams": [
                            {
                                "name": "",
                                "type": "bool",
                                "value": true
                            }
                        ],
                        "signature": "transfer(address,uint256)"
                    },
                    "errorInfo": "",
                    "fromAddress": "0x6ab3bba2f41e7eaa262fa5a1a9b3932fa161526f",
                    "gasUsed": 3262,
                    "id": 20,
                    "methodDecoded": true,
                    "operation": "CALL",
                    "output": "0x0000000000000000000000000000000000000000000000000000000000000001",
                    "revert": false,
                    "revertMessage": "",
                    "selector": "0xa9059cbb",
                    "status": true,
                    "value": "0"
                },
                "nodeType": 0
            },
            "21": {
                "event": {
                    "contract": "0xc02aaa39b223fe8d0a0e5c4f27ead9083c756cc2",
                    "decodedLog": {
                        "name": "Transfer",
                        "params": [
                            {
                                "name": "src",
                                "type": "address",
                                "value": "0x6ab3bba2f41e7eaa262fa5a1a9b3932fa161526f"
                            },
                            {
                                "name": "dst",
                                "type": "address",
                                "value": "0xa236c3d4acaf7a3f465dbc5e0acd548df3004148"
                            },
                            {
                                "decimalAvailable": true,
                                "name": "wad",
                                "type": "uint256",
                                "value": "254,008,463,905,960,520"
                            }
                        ],
                        "signature": "Transfer(address,address,uint256)"
                    },
                    "id": 21,
                    "logData": "0x00000000000000000000000000000000000000000000000003866b5a250eb248",
                    "logDecoded": true,
                    "operation": "EVENT",
                    "revert": false,
                    "status": true,
                    "topics": [
                        "0xddf252ad1be2c89b69c2b068fc378daa952ba7f163c4a11628f55a4df523b3ef",
                        "0x0000000000000000000000006ab3bba2f41e7eaa262fa5a1a9b3932fa161526f",
                        "0x000000000000000000000000a236c3d4acaf7a3f465dbc5e0acd548df3004148"
                    ]
                },
                "nodeType": 1
            },
            "22": {
                "event": {
                    "contract": "0x6ab3bba2f41e7eaa262fa5a1a9b3932fa161526f",
                    "decodedLog": {
                        "name": "Collect",
                        "params": [
                            {
                                "name": "owner",
                                "type": "address",
                                "value": "0xa236c3d4acaf7a3f465dbc5e0acd548df3004148"
                            },
                            {
                                "name": "tickLower",
                                "type": "int24",
                                "value": "255,800"
                            },
                            {
                                "name": "tickUpper",
                                "type": "int24",
                                "value": "256,600"
                            },
                            {
                                "name": "recipient",
                                "type": "address",
                                "value": "0xa236c3d4acaf7a3f465dbc5e0acd548df3004148"
                            },
                            {
                                "name": "amount0",
                                "type": "uint128",
                                "value": "0"
                            },
                            {
                                "name": "amount1",
                                "type": "uint128",
                                "value": "254,008,463,905,960,520"
                            }
                        ],
                        "signature": "Collect(address,address,int24,int24,uint128,uint128)"
                    },
                    "id": 22,
                    "logData": "0x000000000000000000000000a236c3d4acaf7a3f465dbc5e0acd548df3004148000000000000000000000000000000000000000000000000000000000000000000000000000000000000000000000000000000000000000003866b5a250eb248",
                    "logDecoded": true,
                    "operation": "EVENT",
                    "revert": false,
                    "status": true,
                    "topics": [
                        "0x70935338e69775456a85ddef226c395fb668b63fa0115f5f20610b388e6ca9c0",
                        "0x000000000000000000000000a236c3d4acaf7a3f465dbc5e0acd548df3004148",
                        "0x000000000000000000000000000000000000000000000000000000000003e738",
                        "0x000000000000000000000000000000000000000000000000000000000003ea58"
                    ]
                },
                "nodeType": 1
            },
            "23": {
                "event": {
                    "contract": "0xa236c3d4acaf7a3f465dbc5e0acd548df3004148",
                    "decodedLog": {
                        "name": "CollectFees",
                        "params": [
                            {
                                "name": "feesToVault0",
                                "type": "uint256",
                                "value": "0"
                            },
                            {
                                "name": "feesToVault1",
                                "type": "uint256",
                                "value": "0"
                            },
                            {
                                "name": "feesToProtocol0",
                                "type": "uint256",
                                "value": "0"
                            },
                            {
                                "name": "feesToProtocol1",
                                "type": "uint256",
                                "value": "0"
                            }
                        ],
                        "signature": "CollectFees(uint256,uint256,uint256,uint256)"
                    },
                    "id": 23,
                    "logData": "0x0000000000000000000000000000000000000000000000000000000000000000000000000000000000000000000000000000000000000000000000000000000000000000000000000000000000000000000000000000000000000000000000000000000000000000000000000000000000000000000000000000000000000000",
                    "logDecoded": true,
                    "operation": "EVENT",
                    "revert": false,
                    "status": true,
                    "topics": [
                        "0x1ac56d7e866e3f5ea9aa92aa11758ead39a0a5f013f3fefb0f47cb9d008edd27"
                    ]
                },
                "nodeType": 1
            },
            "24": {
                "invocation": {
                    "address": "0x2260fac5e5542a773aa44fbcfedf7c193bc2c599",
                    "callData": "0x000000000000000000000000e2a54c41ba4aca8140fe60a883393d31752d5195000000000000000000000000000000000000000000000000000000000016b7ed",
                    "decodedMethod": {
                        "callParams": [
                            {
                                "name": "_to",
                                "type": "address",
                                "value": "0xe2a54c41ba4aca8140fe60a883393d31752d5195"
                            },
                            {
                                "decimalAvailable": true,
                                "name": "_value",
                                "type": "uint256",
                                "value": "1,488,877"
                            }
                        ],
                        "constructorArguments": "",
                        "name": "transfer",
                        "returnParams": [
                            {
                                "name": "",
                                "type": "bool",
                                "value": true
                            }
                        ],
                        "signature": "transfer(address,uint256)"
                    },
                    "errorInfo": "",
                    "fromAddress": "0xa236c3d4acaf7a3f465dbc5e0acd548df3004148",
                    "gasUsed": 26003,
                    "id": 24,
                    "methodDecoded": true,
                    "operation": "CALL",
                    "output": "0x0000000000000000000000000000000000000000000000000000000000000001",
                    "revert": false,
                    "revertMessage": "",
                    "selector": "0xa9059cbb",
                    "status": true,
                    "value": "0"
                },
                "nodeType": 0
            },
            "25": {
                "event": {
                    "contract": "0x2260fac5e5542a773aa44fbcfedf7c193bc2c599",
                    "decodedLog": {
                        "name": "Transfer",
                        "params": [
                            {
                                "name": "from",
                                "type": "address",
                                "value": "0xa236c3d4acaf7a3f465dbc5e0acd548df3004148"
                            },
                            {
                                "name": "to",
                                "type": "address",
                                "value": "0xe2a54c41ba4aca8140fe60a883393d31752d5195"
                            },
                            {
                                "decimalAvailable": true,
                                "name": "value",
                                "type": "uint256",
                                "value": "1,488,877"
                            }
                        ],
                        "signature": "Transfer(address,address,uint256)"
                    },
                    "id": 25,
                    "logData": "0x000000000000000000000000000000000000000000000000000000000016b7ed",
                    "logDecoded": true,
                    "operation": "EVENT",
                    "revert": false,
                    "status": true,
                    "topics": [
                        "0xddf252ad1be2c89b69c2b068fc378daa952ba7f163c4a11628f55a4df523b3ef",
                        "0x000000000000000000000000a236c3d4acaf7a3f465dbc5e0acd548df3004148",
                        "0x000000000000000000000000e2a54c41ba4aca8140fe60a883393d31752d5195"
                    ]
                },
                "nodeType": 1
            },
            "26": {
                "invocation": {
                    "address": "0xc02aaa39b223fe8d0a0e5c4f27ead9083c756cc2",
                    "callData": "0x000000000000000000000000e2a54c41ba4aca8140fe60a883393d31752d519500000000000000000000000000000000000000000000000007cb7fd332ca5ee5",
                    "decodedMethod": {
                        "callParams": [
                            {
                                "name": "dst",
                                "type": "address",
                                "value": "0xe2a54c41ba4aca8140fe60a883393d31752d5195"
                            },
                            {
                                "decimalAvailable": true,
                                "name": "wad",
                                "type": "uint256",
                                "value": "561,683,123,604,709,093"
                            }
                        ],
                        "constructorArguments": "",
                        "name": "transfer",
                        "returnParams": [
                            {
                                "name": "",
                                "type": "bool",
                                "value": true
                            }
                        ],
                        "signature": "transfer(address,uint256)"
                    },
                    "errorInfo": "",
                    "fromAddress": "0xa236c3d4acaf7a3f465dbc5e0acd548df3004148",
                    "gasUsed": 8062,
                    "id": 26,
                    "methodDecoded": true,
                    "operation": "CALL",
                    "output": "0x0000000000000000000000000000000000000000000000000000000000000001",
                    "revert": false,
                    "revertMessage": "",
                    "selector": "0xa9059cbb",
                    "status": true,
                    "value": "0"
                },
                "nodeType": 0
            },
            "27": {
                "event": {
                    "contract": "0xc02aaa39b223fe8d0a0e5c4f27ead9083c756cc2",
                    "decodedLog": {
                        "name": "Transfer",
                        "params": [
                            {
                                "name": "src",
                                "type": "address",
                                "value": "0xa236c3d4acaf7a3f465dbc5e0acd548df3004148"
                            },
                            {
                                "name": "dst",
                                "type": "address",
                                "value": "0xe2a54c41ba4aca8140fe60a883393d31752d5195"
                            },
                            {
                                "decimalAvailable": true,
                                "name": "wad",
                                "type": "uint256",
                                "value": "561,683,123,604,709,093"
                            }
                        ],
                        "signature": "Transfer(address,address,uint256)"
                    },
                    "id": 27,
                    "logData": "0x00000000000000000000000000000000000000000000000007cb7fd332ca5ee5",
                    "logDecoded": true,
                    "operation": "EVENT",
                    "revert": false,
                    "status": true,
                    "topics": [
                        "0xddf252ad1be2c89b69c2b068fc378daa952ba7f163c4a11628f55a4df523b3ef",
                        "0x000000000000000000000000a236c3d4acaf7a3f465dbc5e0acd548df3004148",
                        "0x000000000000000000000000e2a54c41ba4aca8140fe60a883393d31752d5195"
                    ]
                },
                "nodeType": 1
            },
            "28": {
                "event": {
                    "contract": "0xa236c3d4acaf7a3f465dbc5e0acd548df3004148",
                    "decodedLog": {
                        "name": "Withdraw",
                        "params": [
                            {
                                "name": "sender",
                                "type": "address",
                                "value": "0xe2a54c41ba4aca8140fe60a883393d31752d5195"
                            },
                            {
                                "name": "to",
                                "type": "address",
                                "value": "0xe2a54c41ba4aca8140fe60a883393d31752d5195"
                            },
                            {
                                "name": "shares",
                                "type": "uint256",
                                "value": "370,780,000,000,000,000"
                            },
                            {
                                "name": "amount0",
                                "type": "uint256",
                                "value": "1,488,877"
                            },
                            {
                                "name": "amount1",
                                "type": "uint256",
                                "value": "561,683,123,604,709,093"
                            }
                        ],
                        "signature": "Withdraw(address,address,uint256,uint256,uint256)"
                    },
                    "id": 28,
                    "logData": "0x000000000000000000000000000000000000000000000000052546720dd1c000000000000000000000000000000000000000000000000000000000000016b7ed00000000000000000000000000000000000000000000000007cb7fd332ca5ee5",
                    "logDecoded": true,
                    "operation": "EVENT",
                    "revert": false,
                    "status": true,
                    "topics": [
                        "0xebff2602b3f468259e1e99f613fed6691f3a6526effe6ef3e768ba7ae7a36c4f",
                        "0x000000000000000000000000e2a54c41ba4aca8140fe60a883393d31752d5195",
                        "0x000000000000000000000000e2a54c41ba4aca8140fe60a883393d31752d5195"
                    ]
                },
                "nodeType": 1
            },
            "3": {
                "invocation": {
                    "address": "0x2260fac5e5542a773aa44fbcfedf7c193bc2c599",
                    "callData": "0x000000000000000000000000a236c3d4acaf7a3f465dbc5e0acd548df3004148",
                    "decodedMethod": {
                        "callParams": [
                            {
                                "name": "_owner",
                                "type": "address",
                                "value": "0xa236c3d4acaf7a3f465dbc5e0acd548df3004148"
                            }
                        ],
                        "constructorArguments": "",
                        "name": "balanceOf",
                        "returnParams": [
                            {
                                "decimalAvailable": true,
                                "name": "",
                                "type": "uint256",
                                "value": "963"
                            }
                        ],
                        "signature": "balanceOf(address)"
                    },
                    "errorInfo": "",
                    "fromAddress": "0xa236c3d4acaf7a3f465dbc5e0acd548df3004148",
                    "gasUsed": 2795,
                    "id": 3,
                    "methodDecoded": true,
                    "operation": "STATICCALL",
                    "output": "0x00000000000000000000000000000000000000000000000000000000000003c3",
                    "revert": false,
                    "revertMessage": "",
                    "selector": "0x70a08231",
                    "status": true,
                    "value": "0"
                },
                "nodeType": 0
            },
            "4": {
                "invocation": {
                    "address": "0xc02aaa39b223fe8d0a0e5c4f27ead9083c756cc2",
                    "callData": "0x000000000000000000000000a236c3d4acaf7a3f465dbc5e0acd548df3004148",
                    "decodedMethod": {
                        "callParams": [
                            {
                                "name": "",
                                "type": "address",
                                "value": "0xa236c3d4acaf7a3f465dbc5e0acd548df3004148"
                            }
                        ],
                        "constructorArguments": "",
                        "name": "balanceOf",
                        "returnParams": [
                            {
                                "decimalAvailable": true,
                                "name": "",
                                "type": "uint256",
                                "value": "203,004,267,875,649"
                            }
                        ],
                        "signature": "balanceOf(address)"
                    },
                    "errorInfo": "",
                    "fromAddress": "0xa236c3d4acaf7a3f465dbc5e0acd548df3004148",
                    "gasUsed": 2534,
                    "id": 4,
                    "methodDecoded": true,
                    "operation": "STATICCALL",
                    "output": "0x0000000000000000000000000000000000000000000000000000b8a19d464d41",
                    "revert": false,
                    "revertMessage": "",
                    "selector": "0x70a08231",
                    "status": true,
                    "value": "0"
                },
                "nodeType": 0
            },
            "5": {
                "invocation": {
                    "address": "0x6ab3bba2f41e7eaa262fa5a1a9b3932fa161526f",
                    "callData": "0x93eb60bea46d6bc8ea1a61ff01b6f2da42a25b4e918b5a5121bf6e8c40ea1192",
                    "decodedMethod": {
                        "callParams": [
                            {
                                "name": "",
                                "type": "bytes32",
                                "value": "0x93eb60bea46d6bc8ea1a61ff01b6f2da42a25b4e918b5a5121bf6e8c40ea1192"
                            }
                        ],
                        "constructorArguments": "",
                        "name": "positions",
                        "returnParams": [
                            {
                                "name": "liquidity",
                                "type": "uint128",
                                "value": "0"
                            },
                            {
                                "name": "feeGrowthInside0LastX128",
                                "type": "uint256",
                                "value": "0"
                            },
                            {
                                "name": "feeGrowthInside1LastX128",
                                "type": "uint256",
                                "value": "0"
                            },
                            {
                                "name": "tokensOwed0",
                                "type": "uint128",
                                "value": "0"
                            },
                            {
                                "name": "tokensOwed1",
                                "type": "uint128",
                                "value": "0"
                            }
                        ],
                        "signature": "positions(bytes32)"
                    },
                    "errorInfo": "",
                    "fromAddress": "0xa236c3d4acaf7a3f465dbc5e0acd548df3004148",
                    "gasUsed": 9013,
                    "id": 5,
                    "methodDecoded": true,
                    "operation": "STATICCALL",
                    "output": "0x00000000000000000000000000000000000000000000000000000000000000000000000000000000000000000000000000000000000000000000000000000000000000000000000000000000000000000000000000000000000000000000000000000000000000000000000000000000000000000000000000000000000000000000000000000000000000000000000000000000000000000000000000000000",
                    "revert": false,
                    "revertMessage": "",
                    "selector": "0x514ea4bf",
                    "status": true,
                    "value": "0"
                },
                "nodeType": 0
            },
            "6": {
                "invocation": {
                    "address": "0x6ab3bba2f41e7eaa262fa5a1a9b3932fa161526f",
                    "callData": "0x90492fd1761e988dcd70cdd43faf6cac701578c0c110853a9aa0f08df587b727",
                    "decodedMethod": {
                        "callParams": [
                            {
                                "name": "",
                                "type": "bytes32",
                                "value": "0x90492fd1761e988dcd70cdd43faf6cac701578c0c110853a9aa0f08df587b727"
                            }
                        ],
                        "constructorArguments": "",
                        "name": "positions",
                        "returnParams": [
                            {
                                "name": "liquidity",
                                "type": "uint128",
                                "value": "10,924,728,595,555"
                            },
                            {
                                "name": "feeGrowthInside0LastX128",
                                "type": "uint256",
                                "value": "115,792,089,237,316,195,423,570,985,008,687,907,853,269,984,658,310,020,820,717,174,411,579,037,160,111"
                            },
                            {
                                "name": "feeGrowthInside1LastX128",
                                "type": "uint256",
                                "value": "115,792,089,237,316,195,423,570,985,008,687,906,595,917,145,433,790,773,496,757,661,605,906,243,490,806"
                            },
                            {
                                "name": "tokensOwed0",
                                "type": "uint128",
                                "value": "0"
                            },
                            {
                                "name": "tokensOwed1",
                                "type": "uint128",
                                "value": "0"
                            }
                        ],
                        "signature": "positions(bytes32)"
                    },
                    "errorInfo": "",
                    "fromAddress": "0xa236c3d4acaf7a3f465dbc5e0acd548df3004148",
                    "gasUsed": 9013,
                    "id": 6,
                    "methodDecoded": true,
                    "operation": "STATICCALL",
                    "output": "0x000000000000000000000000000000000000000000000000000009ef9c913463ffffffffffffffffffffffffffffffffffffffa379bcc51d23663c8b24cd92affffffffffffffffffffffffffffff190f8dba055a88b3186d53806d9a4a593f600000000000000000000000000000000000000000000000000000000000000000000000000000000000000000000000000000000000000000000000000000000",
                    "revert": false,
                    "revertMessage": "",
                    "selector": "0x514ea4bf",
                    "status": true,
                    "value": "0"
                },
                "nodeType": 0
            },
            "7": {
                "invocation": {
                    "address": "0x6ab3bba2f41e7eaa262fa5a1a9b3932fa161526f",
                    "callData": "0x000000000000000000000000000000000000000000000000000000000003e5a8000000000000000000000000000000000000000000000000000000000003efd0000000000000000000000000000000000000000000000000000009ef9c913463",
                    "decodedMethod": {
                        "callParams": [
                            {
                                "name": "tickLower",
                                "type": "int24",
                                "value": "255,400"
                            },
                            {
                                "name": "tickUpper",
                                "type": "int24",
                                "value": "258,000"
                            },
                            {
                                "name": "amount",
                                "type": "uint128",
                                "value": "10,924,728,595,555"
                            }
                        ],
                        "constructorArguments": "",
                        "name": "burn",
                        "returnParams": [
                            {
                                "name": "amount0",
                                "type": "uint256",
                                "value": "1,487,500"
                            },
                            {
                                "name": "amount1",
                                "type": "uint256",
                                "value": "306,990,054,558,856,716"
                            }
                        ],
                        "signature": "burn(int24,int24,uint128)"
                    },
                    "errorInfo": "",
                    "fromAddress": "0xa236c3d4acaf7a3f465dbc5e0acd548df3004148",
                    "gasUsed": 83757,
                    "id": 7,
                    "methodDecoded": true,
                    "operation": "CALL",
                    "output": "0x000000000000000000000000000000000000000000000000000000000016b28c0000000000000000000000000000000000000000000000000442a5d3ff8ef60c",
                    "revert": false,
                    "revertMessage": "",
                    "selector": "0xa34123a7",
                    "status": true,
                    "value": "0"
                },
                "nodeType": 0
            },
            "8": {
                "event": {
                    "contract": "0x6ab3bba2f41e7eaa262fa5a1a9b3932fa161526f",
                    "decodedLog": {
                        "name": "Burn",
                        "params": [
                            {
                                "name": "owner",
                                "type": "address",
                                "value": "0xa236c3d4acaf7a3f465dbc5e0acd548df3004148"
                            },
                            {
                                "name": "tickLower",
                                "type": "int24",
                                "value": "255,400"
                            },
                            {
                                "name": "tickUpper",
                                "type": "int24",
                                "value": "258,000"
                            },
                            {
                                "name": "amount",
                                "type": "uint128",
                                "value": "10,924,728,595,555"
                            },
                            {
                                "name": "amount0",
                                "type": "uint256",
                                "value": "1,487,500"
                            },
                            {
                                "name": "amount1",
                                "type": "uint256",
                                "value": "306,990,054,558,856,716"
                            }
                        ],
                        "signature": "Burn(address,int24,int24,uint128,uint256,uint256)"
                    },
                    "id": 8,
                    "logData": "0x000000000000000000000000000000000000000000000000000009ef9c913463000000000000000000000000000000000000000000000000000000000016b28c0000000000000000000000000000000000000000000000000442a5d3ff8ef60c",
                    "logDecoded": true,
                    "operation": "EVENT",
                    "revert": false,
                    "status": true,
                    "topics": [
                        "0x0c396cd989a39f4459b5fa1aed6a9a8dcdbc45908acfd67e028cd568da98982c",
                        "0x000000000000000000000000a236c3d4acaf7a3f465dbc5e0acd548df3004148",
                        "0x000000000000000000000000000000000000000000000000000000000003e5a8",
                        "0x000000000000000000000000000000000000000000000000000000000003efd0"
                    ]
                },
                "nodeType": 1
            },
            "9": {
                "invocation": {
                    "address": "0x6ab3bba2f41e7eaa262fa5a1a9b3932fa161526f",
                    "callData": "0x000000000000000000000000a236c3d4acaf7a3f465dbc5e0acd548df3004148000000000000000000000000000000000000000000000000000000000003e5a8000000000000000000000000000000000000000000000000000000000003efd000000000000000000000000000000000ffffffffffffffffffffffffffffffff00000000000000000000000000000000ffffffffffffffffffffffffffffffff",
                    "decodedMethod": {
                        "callParams": [
                            {
                                "name": "recipient",
                                "type": "address",
                                "value": "0xa236c3d4acaf7a3f465dbc5e0acd548df3004148"
                            },
                            {
                                "name": "tickLower",
                                "type": "int24",
                                "value": "255,400"
                            },
                            {
                                "name": "tickUpper",
                                "type": "int24",
                                "value": "258,000"
                            },
                            {
                                "name": "amount0Requested",
                                "type": "uint128",
                                "value": "340,282,366,920,938,463,463,374,607,431,768,211,455"
                            },
                            {
                                "name": "amount1Requested",
                                "type": "uint128",
                                "value": "340,282,366,920,938,463,463,374,607,431,768,211,455"
                            }
                        ],
                        "constructorArguments": "",
                        "name": "collect",
                        "returnParams": [
                            {
                                "name": "amount0",
                                "type": "uint128",
                                "value": "1,488,949"
                            },
                            {
                                "name": "amount1",
                                "type": "uint128",
                                "value": "307,710,691,548,216,029"
                            }
                        ],
                        "signature": "collect(address,int24,int24,uint128,uint128)"
                    },
                    "errorInfo": "",
                    "fromAddress": "0xa236c3d4acaf7a3f465dbc5e0acd548df3004148",
                    "gasUsed": 34935,
                    "id": 9,
                    "methodDecoded": true,
                    "operation": "CALL",
                    "output": "0x000000000000000000000000000000000000000000000000000000000016b8350000000000000000000000000000000000000000000000000445353e5f523add",
                    "revert": false,
                    "revertMessage": "",
                    "selector": "0x4f1eb3d8",
                    "status": true,
                    "value": "0"
                },
                "nodeType": 0
            }
        },
        "gasFlame": [
            {
                "children": [
                    {
                        "children": [
                            {
                                "children": [],
                                "depth": 0,
                                "name": "Initial Gas",
                                "value": 22032
                            },
                            {
                                "children": [
                                    {
                                        "children": [
                                            {
                                                "children": [],
                                                "depth": 2,
                                                "name": "balanceOf",
                                                "value": 2795
                                            },
                                            {
                                                "children": [],
                                                "depth": 2,
                                                "name": "balanceOf",
                                                "value": 2534
                                            },
                                            {
                                                "children": [],
                                                "depth": 2,
                                                "name": "positions",
                                                "value": 9013
                                            },
                                            {
                                                "children": [],
                                                "depth": 2,
                                                "name": "positions",
                                                "value": 9013
                                            },
                                            {
                                                "children": [],
                                                "depth": 2,
                                                "name": "burn",
                                                "value": 83757
                                            },
                                            {
                                                "children": [
                                                    {
                                                        "children": [],
                                                        "depth": 3,
                                                        "name": "transfer",
                                                        "value": 13703
                                                    },
                                                    {
                                                        "children": [],
                                                        "depth": 3,
                                                        "name": "transfer",
                                                        "value": 10862
                                                    }
                                                ],
                                                "depth": 2,
                                                "name": "collect",
                                                "value": 34935
                                            },
                                            {
                                                "children": [],
                                                "depth": 2,
                                                "name": "positions",
                                                "value": 9013
                                            },
                                            {
                                                "children": [],
                                                "depth": 2,
                                                "name": "burn",
                                                "value": 74984
                                            },
                                            {
                                                "children": [
                                                    {
                                                        "children": [],
                                                        "depth": 3,
                                                        "name": "transfer",
                                                        "value": 3262
                                                    }
                                                ],
                                                "depth": 2,
                                                "name": "collect",
                                                "value": 12346
                                            },
                                            {
                                                "children": [],
                                                "depth": 2,
                                                "name": "transfer",
                                                "value": 26003
                                            },
                                            {
                                                "children": [],
                                                "depth": 2,
                                                "name": "transfer",
                                                "value": 8062
                                            }
                                        ],
                                        "depth": 1,
                                        "name": "withdraw",
                                        "value": 340974
                                    }
                                ],
                                "depth": 0,
                                "name": "Executed Gas",
                                "value": 343667
                            }
                        ],
                        "depth": -1,
                        "name": "Actual Gas Used",
                        "value": 292560
                    },
                    {
                        "children": [],
                        "depth": -1,
                        "name": "Refunded Gas",
                        "value": 73139
                    }
                ],
                "depth": -2,
                "name": "Total Gas",
                "value": 365699
            }
        ],
        "isConfirmed": true,
        "mainTrace": [
            {
                "children": [
                    {
                        "children": [
                            {
                                "children": [
                                    {
                                        "children": [],
                                        "depth": 2,
                                        "id": 2,
                                        "order": 2
                                    },
                                    {
                                        "children": [],
                                        "depth": 2,
                                        "id": 3,
                                        "order": 3
                                    },
                                    {
                                        "children": [],
                                        "depth": 2,
                                        "id": 4,
                                        "order": 4
                                    },
                                    {
                                        "children": [],
                                        "depth": 2,
                                        "id": 5,
                                        "order": 5
                                    },
                                    {
                                        "children": [],
                                        "depth": 2,
                                        "id": 6,
                                        "order": 6
                                    },
                                    {
                                        "children": [
                                            {
                                                "children": [],
                                                "depth": 3,
                                                "id": 8,
                                                "order": 8
                                            }
                                        ],
                                        "depth": 2,
                                        "id": 7,
                                        "order": 7
                                    },
                                    {
                                        "children": [
                                            {
                                                "children": [
                                                    {
                                                        "children": [],
                                                        "depth": 4,
                                                        "id": 11,
                                                        "order": 11
                                                    }
                                                ],
                                                "depth": 3,
                                                "id": 10,
                                                "order": 10
                                            },
                                            {
                                                "children": [
                                                    {
                                                        "children": [],
                                                        "depth": 4,
                                                        "id": 13,
                                                        "order": 13
                                                    }
                                                ],
                                                "depth": 3,
                                                "id": 12,
                                                "order": 12
                                            },
                                            {
                                                "children": [],
                                                "depth": 3,
                                                "id": 14,
                                                "order": 14
                                            }
                                        ],
                                        "depth": 2,
                                        "id": 9,
                                        "order": 9
                                    },
                                    {
                                        "children": [],
                                        "depth": 2,
                                        "id": 15,
                                        "order": 15
                                    },
                                    {
                                        "children": [],
                                        "depth": 2,
                                        "id": 16,
                                        "order": 16
                                    },
                                    {
                                        "children": [
                                            {
                                                "children": [],
                                                "depth": 3,
                                                "id": 18,
                                                "order": 18
                                            }
                                        ],
                                        "depth": 2,
                                        "id": 17,
                                        "order": 17
                                    },
                                    {
                                        "children": [
                                            {
                                                "children": [
                                                    {
                                                        "children": [],
                                                        "depth": 4,
                                                        "id": 21,
                                                        "order": 21
                                                    }
                                                ],
                                                "depth": 3,
                                                "id": 20,
                                                "order": 20
                                            },
                                            {
                                                "children": [],
                                                "depth": 3,
                                                "id": 22,
                                                "order": 22
                                            }
                                        ],
                                        "depth": 2,
                                        "id": 19,
                                        "order": 19
                                    },
                                    {
                                        "children": [],
                                        "depth": 2,
                                        "id": 23,
                                        "order": 23
                                    },
                                    {
                                        "children": [
                                            {
                                                "children": [],
                                                "depth": 3,
                                                "id": 25,
                                                "order": 25
                                            }
                                        ],
                                        "depth": 2,
                                        "id": 24,
                                        "order": 24
                                    },
                                    {
                                        "children": [
                                            {
                                                "children": [],
                                                "depth": 3,
                                                "id": 27,
                                                "order": 27
                                            }
                                        ],
                                        "depth": 2,
                                        "id": 26,
                                        "order": 26
                                    },
                                    {
                                        "children": [],
                                        "depth": 2,
                                        "id": 28,
                                        "order": 28
                                    }
                                ],
                                "depth": 1,
                                "id": 1,
                                "order": 1
                            }
                        ],
                        "depth": 0,
                        "id": 0,
                        "order": 0
                    }
                ],
                "depth": -1,
                "id": -1,
                "order": -1
            }
        ],
        "mainTraceNodeCount": 29,
        "parentIdMap": {
            "0": -1,
            "1": 0,
            "10": 9,
            "11": 10,
            "12": 9,
            "13": 12,
            "14": 9,
            "15": 1,
            "16": 1,
            "17": 1,
            "18": 17,
            "19": 1,
            "2": 1,
            "20": 19,
            "21": 20,
            "22": 19,
            "23": 1,
            "24": 1,
            "25": 24,
            "26": 1,
            "27": 26,
            "28": 1,
            "3": 1,
            "4": 1,
            "5": 1,
            "6": 1,
            "7": 1,
            "8": 7,
            "9": 1
        },
        "tidyTrace": [
            {
                "children": [
                    {
                        "children": [
                            {
                                "children": [
                                    {
                                        "children": [],
                                        "depth": 2,
                                        "id": 2,
                                        "order": 2
                                    },
                                    {
                                        "children": [
                                            {
                                                "children": [],
                                                "depth": 3,
                                                "id": 8,
                                                "order": 8
                                            }
                                        ],
                                        "depth": 2,
                                        "id": 7,
                                        "order": 7
                                    },
                                    {
                                        "children": [
                                            {
                                                "children": [
                                                    {
                                                        "children": [],
                                                        "depth": 4,
                                                        "id": 11,
                                                        "order": 11
                                                    }
                                                ],
                                                "depth": 3,
                                                "id": 10,
                                                "order": 10
                                            },
                                            {
                                                "children": [
                                                    {
                                                        "children": [],
                                                        "depth": 4,
                                                        "id": 13,
                                                        "order": 13
                                                    }
                                                ],
                                                "depth": 3,
                                                "id": 12,
                                                "order": 12
                                            },
                                            {
                                                "children": [],
                                                "depth": 3,
                                                "id": 14,
                                                "order": 14
                                            }
                                        ],
                                        "depth": 2,
                                        "id": 9,
                                        "order": 9
                                    },
                                    {
                                        "children": [],
                                        "depth": 2,
                                        "id": 15,
                                        "order": 15
                                    },
                                    {
                                        "children": [
                                            {
                                                "children": [],
                                                "depth": 3,
                                                "id": 18,
                                                "order": 18
                                            }
                                        ],
                                        "depth": 2,
                                        "id": 17,
                                        "order": 17
                                    },
                                    {
                                        "children": [
                                            {
                                                "children": [
                                                    {
                                                        "children": [],
                                                        "depth": 4,
                                                        "id": 21,
                                                        "order": 21
                                                    }
                                                ],
                                                "depth": 3,
                                                "id": 20,
                                                "order": 20
                                            },
                                            {
                                                "children": [],
                                                "depth": 3,
                                                "id": 22,
                                                "order": 22
                                            }
                                        ],
                                        "depth": 2,
                                        "id": 19,
                                        "order": 19
                                    },
                                    {
                                        "children": [],
                                        "depth": 2,
                                        "id": 23,
                                        "order": 23
                                    },
                                    {
                                        "children": [
                                            {
                                                "children": [],
                                                "depth": 3,
                                                "id": 25,
                                                "order": 25
                                            }
                                        ],
                                        "depth": 2,
                                        "id": 24,
                                        "order": 24
                                    },
                                    {
                                        "children": [
                                            {
                                                "children": [],
                                                "depth": 3,
                                                "id": 27,
                                                "order": 27
                                            }
                                        ],
                                        "depth": 2,
                                        "id": 26,
                                        "order": 26
                                    },
                                    {
                                        "children": [],
                                        "depth": 2,
                                        "id": 28,
                                        "order": 28
                                    }
                                ],
                                "depth": 1,
                                "id": 1,
                                "order": 1
                            }
                        ],
                        "depth": 0,
                        "id": 0,
                        "order": 0
                    }
                ],
                "depth": -1,
                "id": -1,
                "order": -1
            }
        ],
        "tidyTraceNodeCount": 24
    },
    "state_change": {
        "stateChanges": [
            {
                "address": "0x2260fac5e5542a773aa44fbcfedf7c193bc2c599",
                "erc": "ERC-20",
                "slots": [
                    {
                        "current": "0x0000000000000000000000000000000000000000000000000000000024e42fa9",
                        "key": "0x5980ada169cafaaeecb6c2e59928b85388e4f924b2d0512a1554b253c2c97b03",
                        "prev": "0x0000000000000000000000000000000000000000000000000000000024fae7de"
                    },
                    {
                        "current": "0x000000000000000000000000000000000000000000000000000000000000040b",
                        "key": "0x9ec24326b50609430dc484829e45b2a84fe241e13afecf9f2f4a509807db701d",
                        "prev": "0x00000000000000000000000000000000000000000000000000000000000003c3"
                    },
                    {
                        "current": "0x000000000000000000000000000000000000000000000000000000000016b7ed",
                        "key": "0xff62836764fa1da00b7693e096831ccd1a741fe3fef0ee1e19752654a0415862",
                        "prev": "0x0000000000000000000000000000000000000000000000000000000000000000"
                    }
                ],
                "storageVariables": [
                    {
                        "name": "balances",
                        "type": "mapping(address => uint256)",
                        "value": {
                            "pairs": [
                                {
                                    "key": "0x6ab3bba2f41e7eaa262fa5a1a9b3932fa161526f",
                                    "value": {
                                        "current": "618934185",
                                        "prev": "620423134",
                                        "typeTag": 1
                                    }
                                },
                                {
                                    "key": "0xa236c3d4acaf7a3f465dbc5e0acd548df3004148",
                                    "value": {
                                        "current": "1035",
                                        "prev": "963",
                                        "typeTag": 1
                                    }
                                },
                                {
                                    "key": "0xe2a54c41ba4aca8140fe60a883393d31752d5195",
                                    "value": {
                                        "current": "1488877",
                                        "prev": "0",
                                        "typeTag": 1
                                    }
                                }
                            ],
                            "typeTag": 4
                        }
                    }
                ]
            },
            {
                "address": "0x6ab3bba2f41e7eaa262fa5a1a9b3932fa161526f",
                "erc": "",
                "slots": [
                    {
                        "current": "0x01000000000000326ebb957b3077a95169bcef4171000d31a5c550d763f0b693",
                        "key": "0x0000000000000000000000000000000000000000000000000000000000000008",
                        "prev": "0x01000000000000326eafdd34b99fcade839cb32c92000d2c42860f9363ef56c7"
                    },
                    {
                        "current": "0x000000000000000000000000000000000000000000000000001dfa7a9dc468e6",
                        "key": "0x0000000000000000000000000000000000000000000000000000000000000004",
                        "prev": "0x000000000000000000000000000000000000000000000000001e046a3a559d49"
                    },
                    {
                        "current": "0x0000000000000000000000000000000000000000000000000000000000000000",
                        "key": "0xc43d8645d3c0267fe61f8a84263cdcfaa4b0eb8ff4211a06a78089c36dce23e4",
                        "prev": "0x000000000000000000000000000000000000000000000000000009ef9c913463"
                    },
                    {
                        "current": "0x0000000000000000000000000000000000000000000000000000000000000000",
                        "key": "0x0e0c5500526f00835867bd7db2111e136f3f14ddfa3abc889a5aa55c7fcded1c",
                        "prev": "0xfffffffffffffffffffff03439b7bc52000000000000000000000fcbc64843ae"
                    },
                    {
                        "current": "0x000000000000000000001f3fa97be269000000000000000000001f3fa97be269",
                        "key": "0x332163f6653bbe15f4e60326835d57ef631c08cadb40b55688b8c772e94a0d15",
                        "prev": "0x00000000000000000000292f460d16cc00000000000000000000292f460d16cc"
                    },
                    {
                        "current": "0x0000000000000000000000000000000000000000000000000000000000000000",
                        "key": "0x0e0c5500526f00835867bd7db2111e136f3f14ddfa3abc889a5aa55c7fcded1d",
                        "prev": "0x00000000000000000000000000000000000014fc7178b81d258e6323c3d07bc9"
                    },
                    {
                        "current": "0x0000000000000000000000000000000000000000000000000000000000000000",
                        "key": "0x0e0c5500526f00835867bd7db2111e136f3f14ddfa3abc889a5aa55c7fcded1f",
                        "prev": "0x0163e5e227000000000000326e614e87581b7b39546e569033000d073228c33f"
                    },
                    {
                        "current": "0xffffffffffffffffffffffffffffffffffffffa40b9d9fd8a259318830399657",
                        "key": "0xc43d8645d3c0267fe61f8a84263cdcfaa4b0eb8ff4211a06a78089c36dce23e5",
                        "prev": "0xffffffffffffffffffffffffffffffffffffffa379bcc51d23663c8b24cd92af"
                    },
                    {
                        "current": "0xfffffffffffffffffffffffffffff1d2ef997c6d9203450eabb0b6d5d8e4cc57",
                        "key": "0xc43d8645d3c0267fe61f8a84263cdcfaa4b0eb8ff4211a06a78089c36dce23e6",
                        "prev": "0xfffffffffffffffffffffffffffff190f8dba055a88b3186d53806d9a4a593f6"
                    },
                    {
                        "current": "0x0000000000000000000000000000000000000000000000000000000000000000",
                        "key": "0x0e0c5500526f00835867bd7db2111e136f3f14ddfa3abc889a5aa55c7fcded1e",
                        "prev": "0x00000000000000000000000000006df80802899acb8cb17a26ac3ba9a001299a"
                    },
                    {
                        "current": "0x0000000000000000000003182c7f2c8d0000000000000000000003182c7f2c8d",
                        "key": "0xf2d4f85c88cde1d098f09af4a4711d0f156c2b2a495e9c3b39a20f8e7973eac6",
                        "prev": "0xfffffffffffffffffffff9288fedf82a000000000000000000000d07c91060f0"
                    },
                    {
                        "current": "0x000000000000000000400000000000000000004000000009000000e100217fd6",
                        "key": "0xbfd358e93f18da3ed276c3afdbdba00b8f0b6008a03476a6a86bd6320ee6938b",
                        "prev": "0x000000000000000000400000000000000000004000000009000000e100217fde"
                    },
                    {
                        "current": "0x0000000000000000000021bdec884ab80000000000000000000021bdec884ab8",
                        "key": "0x79c1ff47bb97e68620399920bbaa2de539044bb4026d7e036187758a5dd52161",
                        "prev": "0x000000000000000000003189b2d08e66000000000000000000003189b2d08e66"
                    },
                    {
                        "current": "0x0000000000000000000000000000000000000000000000000000000000000000",
                        "key": "0xb753817ed5780f4bb6a2743733ca188e67d98143dddc0f9c6e4791c93e82df77",
                        "prev": "0x00000000000000000000000000000000000000000000000000000fcbc64843ae"
                    }
                ],
                "storageVariables": []
            },
            {
                "address": "0xa236c3d4acaf7a3f465dbc5e0acd548df3004148",
                "erc": "ERC-20",
                "slots": [
                    {
                        "current": "0x0000000000000000000000000000000000000000000000000000000000000000",
                        "key": "0x7b78a889252ba0b955f4ab38cd933c604bd385d85cfcbf7f536319cd45ef44ea",
                        "prev": "0x000000000000000000000000000000000000000000000000052546720dd1c000"
                    },
                    {
                        "current": "0x0000000000000000000000000000000000000000000000000000000000000000",
                        "key": "0x0000000000000000000000000000000000000000000000000000000000000035",
                        "prev": "0x000000000000000000000000000000000000000000000000052546720dd1c000"
                    },
                    {
                        "current": "0x000000000000000000000000000000000000000000000000000000000000040b",
                        "key": "0x00000000000000000000000000000000000000000000000000000000000000a3",
                        "prev": "0x00000000000000000000000000000000000000000000000000000000000003c3"
                    },
                    {
                        "current": "0x0000000000000000000000000000000000000000000000000000d966eedcdb81",
                        "key": "0x00000000000000000000000000000000000000000000000000000000000000a4",
                        "prev": "0x0000000000000000000000000000000000000000000000000000b8a19d464b44"
                    }
                ],
                "storageVariables": [
                    {
                        "name": "_totalSupply",
                        "type": "uint256",
                        "value": {
                            "current": "0",
                            "prev": "370780000000000000",
                            "typeTag": 1
                        }
                    },
                    {
                        "name": "accruedProtocolFees0",
                        "type": "uint256",
                        "value": {
                            "current": "1035",
                            "prev": "963",
                            "typeTag": 1
                        }
                    },
                    {
                        "name": "accruedProtocolFees1",
                        "type": "uint256",
                        "value": {
                            "current": "239036117343105",
                            "prev": "203004267875140",
                            "typeTag": 1
                        }
                    },
                    {
                        "name": "_balances",
                        "type": "mapping(address => uint256)",
                        "value": {
                            "pairs": [
                                {
                                    "key": "0xe2a54c41ba4aca8140fe60a883393d31752d5195",
                                    "value": {
                                        "current": "0",
                                        "prev": "370780000000000000",
                                        "typeTag": 1
                                    }
                                }
                            ],
                            "typeTag": 4
                        }
                    }
                ]
            },
            {
                "address": "0xc02aaa39b223fe8d0a0e5c4f27ead9083c756cc2",
                "erc": "ERC-20",
                "slots": [
                    {
                        "current": "0x00000000000000000000000000000000000000000000000fb82bb2dea1756e3b",
                        "key": "0xbd5330dde04de5dc32bdb1916de77eb3bef6677f5cb8579834ffb018cb99da44",
                        "prev": "0x00000000000000000000000000000000000000000000000fbff7537725d65b60"
                    },
                    {
                        "current": "0x0000000000000000000000000000000000000000000000000000d966eedcdb81",
                        "key": "0x5105a30b53bd8cd7cedc72354d7430fb44eff4319e62e62f675371f66f82a5a6",
                        "prev": "0x0000000000000000000000000000000000000000000000000000b8a19d464d41"
                    },
                    {
                        "current": "0x00000000000000000000000000000000000000000000000009820d83f71d73de",
                        "key": "0x5f67e775dd77100cf52dade45b0eea9210279e52d8c318c133269a02bf6fee3c",
                        "prev": "0x00000000000000000000000000000000000000000000000001b68db0c45314f9"
                    }
                ],
                "storageVariables": [
                    {
                        "name": "balanceOf",
                        "type": "mapping(address => uint256)",
                        "value": {
                            "pairs": [
                                {
                                    "key": "0x6ab3bba2f41e7eaa262fa5a1a9b3932fa161526f",
                                    "value": {
                                        "current": "289972058501881884219",
                                        "prev": "290533777657336060768",
                                        "typeTag": 1
                                    }
                                },
                                {
                                    "key": "0xa236c3d4acaf7a3f465dbc5e0acd548df3004148",
                                    "value": {
                                        "current": "239036117343105",
                                        "prev": "203004267875649",
                                        "typeTag": 1
                                    }
                                },
                                {
                                    "key": "0xe2a54c41ba4aca8140fe60a883393d31752d5195",
                                    "value": {
                                        "current": "685124953751516126",
                                        "prev": "123441830146807033",
                                        "typeTag": 1
                                    }
                                }
                            ],
                            "typeTag": 4
                        }
                    }
                ]
            }
        ]
    }
}