{
    "balance_change": {
        "balanceChanges": [
            {
                "account": "0x7107e8f7161f3bc85d4a9a353f4daa5d77f00d63",
                "assets": [
                    {
                        "address": "0x560a20eddeddf84217221aef0d5ca7d7ae7ae798",
                        "amount": "250",
                        "iconUrl": "",
                        "isERC1155": false,
                        "isERC721": false,
                        "sign": false,
                        "value": ""
                    }
                ]
            },
            {
                "account": "0x2c71980dcbc189d9cdf0450a349b79960e045415",
                "assets": [
                    {
                        "address": "0x560a20eddeddf84217221aef0d5ca7d7ae7ae798",
                        "amount": "250",
                        "iconUrl": "",
                        "isERC1155": false,
                        "isERC721": false,
                        "sign": true,
                        "value": ""
                    }
                ]
            }
        ]
    },
    "profile": {
        "basic_info": {
            "baseFee": "",
            "blockNumber": 8475708,
            "callData": "0xa9059cbb0000000000000000000000002c71980dcbc189d9cdf0450a349b79960e04541500000000000000000000000000000000000000000000000000000000000061a8",
            "debugEnable": true,
            "errorInfo": "",
            "eventCount": 1,
            "feeRecipient": "0x04668ec2f57cc15c381b461b9fedab5d451c8f7f",
            "formatValue": "0",
            "gasLimit": 52207,
            "gasPrice": "3.1",
            "gasUsed": 52207,
            "intTxnCount": 0,
            "internalRevert": false,
            "internalRevertMessage": "",
            "isContractCreation": false,
            "isFlashloan": false,
            "maxFee": "",
            "nonce": 7316,
            "overwritedBlockNumber": -1,
            "priorityFee": "",
            "receiver": "0x560a20eddeddf84217221aef0d5ca7d7ae7ae798",
            "revertMessage": "",
            "sender": "0x7107e8f7161f3bc85d4a9a353f4daa5d77f00d63",
            "simulationEnable": true,
            "sourceTxnHash": "0x3279d80bd6c6af6679c6f386d00b537f69a4eed0642b64a0f147945146d473c9",
            "status": true,
            "timestamp": "2019-09-03T06:53:32Z",
            "transactionFee": "0.0001618417",
            "txnHash": "0x3279d80bd6c6af6679c6f386d00b537f69a4eed0642b64a0f147945146d473c9",
            "txnIndex": 182,
            "type": 0,
            "value": "0"
        },
        "fund_flow": [
            {
                "amount": "250",
                "from": "0x7107e8f7161f3bc85d4a9a353f4daa5d77f00d63",
                "id": 1,
                "isERC1155": false,
                "isERC721": false,
                "isReverted": false,
                "order": 1,
                "to": "0x2c71980dcbc189d9cdf0450a349b79960e045415",
                "token": "0x560a20eddeddf84217221aef0d5ca7d7ae7ae798"
            }
        ],
        "token_infos": [
            {
                "address": "0x560a20eddeddf84217221aef0d5ca7d7ae7ae798",
                "decimals": 2
            },
            {
                "address": "0xc02aaa39b223fe8d0a0e5c4f27ead9083c756cc2",
                "decimals": 18
            },
            {
                "address": "0xeeeeeeeeeeeeeeeeeeeeeeeeeeeeeeeeeeeeeeee",
                "decimals": 18
            }
        ]
    },
    "address_label": {
        "labels": [
            {
                "address": "0xeeeeeeeeeeeeeeeeeeeeeeeeeeeeeeeeeeeeeeee",
                "label": "Ether"
            },
            {
                "address": "0x560a20eddeddf84217221aef0d5ca7d7ae7ae798",
                "label": "PlasmaBank token (PBK)"
            },
            {
                "address": "0x0000000000000000000000000000000000000001",
                "label": "Precompiled"
            },
            {
                "address": "0x0000000000000000000000000000000000000002",
                "label": "Precompiled"
            },
            {
                "address": "0x0000000000000000000000000000000000000003",
                "label": "Precompiled"
            },
            {
                "address": "0x0000000000000000000000000000000000000004",
                "label": "Precompiled"
            }
        ]
    },
    "trace": {
        "accountLabels": null,
        "dataMap": {
            "-1": {
                "invocation": {
                    "address": "0x7107e8f7161f3bc85d4a9a353f4daa5d77f00d63",
                    "callData": "",
                    "decodedMethod": null,
                    "errorInfo": "",
                    "fromAddress": "",
                    "gasUsed": 0,
                    "id": -1,
                    "methodDecoded": false,
                    "operation": "",
                    "output": "",
                    "revert": false,
                    "revertMessage": "",
                    "selector": "",
                    "status": false,
                    "value": ""
                },
                "nodeType": 0
            },
            "0": {
                "invocation": {
                    "address": "0x560a20eddeddf84217221aef0d5ca7d7ae7ae798",
                    "callData": "0x0000000000000000000000002c71980dcbc189d9cdf0450a349b79960e04541500000000000000000000000000000000000000000000000000000000000061a8",
                    "decodedMethod": {
                        "callParams": [
                            {
                                "name": "_to",
                                "type": "address",
                                "value": "0x2c71980dcbc189d9cdf0450a349b79960e045415"
                            },
                            {
                                "decimalAvailable": true,
                                "name": "_value",
                                "type": "uint256",
                                "value": "25,000"
                            }
                        ],
                        "constructorArguments": "",
                        "name": "transfer",
                        "returnParams": [
                            {
                                "name": "",
                                "type": "bool",
                                "value": true
                            }
                        ],
                        "signature": "transfer(address,uint256)"
                    },
                    "errorInfo": "",
                    "fromAddress": "0x7107e8f7161f3bc85d4a9a353f4daa5d77f00d63",
                    "gasUsed": 52207,
                    "id": 0,
                    "methodDecoded": true,
                    "operation": "CALL",
                    "output": "0x0000000000000000000000000000000000000000000000000000000000000001",
                    "revert": false,
                    "revertMessage": "",
                    "selector": "0xa9059cbb",
                    "status": true,
                    "value": "0"
                },
                "nodeType": 0
            },
            "1": {
                "event": {
                    "contract": "0x560a20eddeddf84217221aef0d5ca7d7ae7ae798",
                    "decodedLog": {
                        "name": "Transfer",
                        "params": [
                            {
                                "name": "from",
                                "type": "address",
                                "value": "0x7107e8f7161f3bc85d4a9a353f4daa5d77f00d63"
                            },
                            {
                                "name": "to",
                                "type": "address",
                                "value": "0x2c71980dcbc189d9cdf0450a349b79960e045415"
                            },
                            {
                                "decimalAvailable": true,
                                "name": "value",
                                "type": "uint256",
                                "value": "25,000"
                            }
                        ],
                        "signature": "Transfer(address,address,uint256)"
                    },
                    "id": 1,
                    "logData": "0x00000000000000000000000000000000000000000000000000000000000061a8",
                    "logDecoded": true,
                    "operation": "EVENT",
                    "revert": false,
                    "status": true,
                    "topics": [
                        "0xddf252ad1be2c89b69c2b068fc378daa952ba7f163c4a11628f55a4df523b3ef",
                        "0x0000000000000000000000007107e8f7161f3bc85d4a9a353f4daa5d77f00d63",
                        "0x0000000000000000000000002c71980dcbc189d9cdf0450a349b79960e045415"
                    ]
                },
                "nodeType": 1
            }
        },
        "gasFlame": [
            {
                "children": [
                    {
                        "children": [
                            {
                                "children": [],
                                "depth": 0,
                                "name": "Initial Gas",
                                "value": 22936
                            },
                            {
                                "children": [],
                                "depth": 0,
                                "name": "Executed Gas",
                                "value": 29271
                            }
                        ],
                        "depth": -1,
                        "name": "Actual Gas Used",
                        "value": 52207
                    },
                    {
                        "children": [],
                        "depth": -1,
                        "name": "Refunded Gas",
                        "value": 0
                    }
                ],
                "depth": -2,
                "name": "Total Gas",
                "value": 52207
            }
        ],
        "isConfirmed": true,
        "mainTrace": [
            {
                "children": [
                    {
                        "children": [
                            {
                                "children": [],
                                "depth": 1,
                                "id": 1,
                                "order": 1
                            }
                        ],
                        "depth": 0,
                        "id": 0,
                        "order": 0
                    }
                ],
                "depth": -1,
                "id": -1,
                "order": -1
            }
        ],
        "mainTraceNodeCount": 2,
        "parentIdMap": {
            "0": -1,
            "1": 0
        },
        "tidyTrace": [
            {
                "children": [
                    {
                        "children": [
                            {
                                "children": [],
                                "depth": 1,
                                "id": 1,
                                "order": 1
                            }
                        ],
                        "depth": 0,
                        "id": 0,
                        "order": 0
                    }
                ],
                "depth": -1,
                "id": -1,
                "order": -1
            }
        ],
        "tidyTraceNodeCount": 2
    },
    "state_change": {
        "stateChanges": [
            {
                "address": "0x560a20eddeddf84217221aef0d5ca7d7ae7ae798",
                "erc": "ERC-20",
                "slots": [
                    {
                        "current": "0x00000000000000000000000000000000000000000000000000000000014e0790",
                        "key": "0xe9cc0291f5dd1a1a44551fc7fa3c91608cf9706b163bf7db821bc0dea44c1442",
                        "prev": "0x00000000000000000000000000000000000000000000000000000000014e6938"
                    },
                    {
                        "current": "0x00000000000000000000000000000000000000000000000000000000000061a8",
                        "key": "0x69a7f6235bf50d6a1f6636066d779b0f2b0fbaebd4d23e5bed0ad8cea4c4a713",
                        "prev": "0x0000000000000000000000000000000000000000000000000000000000000000"
                    }
                ],
                "storageVariables": [
                    {
                        "name": "balances",
                        "type": "mapping(address => uint256)",
                        "value": {
                            "pairs": [
                                {
                                    "key": "0x2c71980dcbc189d9cdf0450a349b79960e045415",
                                    "value": {
                                        "current": "25000",
                                        "prev": "0",
                                        "typeTag": 1
                                    }
                                },
                                {
                                    "key": "0x7107e8f7161f3bc85d4a9a353f4daa5d77f00d63",
                                    "value": {
                                        "current": "21890960",
                                        "prev": "21915960",
                                        "typeTag": 1
                                    }
                                }
                            ],
                            "typeTag": 4
                        }
                    }
                ]
            }
        ]
    }
}