{
    "balance_change": {
        "balanceChanges": [
            {
                "account": "0x82c0ac2eeba62f8a104a718df8e8736fe90cbb8a",
                "assets": [
                    {
                        "address": "0xeeeeeeeeeeeeeeeeeeeeeeeeeeeeeeeeeeeeeeee",
                        "amount": "0.04",
                        "iconUrl": "https://assets.blocksec.com/image/1663669189317-3.png",
                        "isERC1155": false,
                        "isERC721": false,
                        "sign": false,
                        "value": "131.3875"
                    },
                    {
                        "address": "0x2dc22e077d9f13cf538ca4dd668ed6c550746343",
                        "amount": "2,147,157.842078147",
                        "iconUrl": "",
                        "isERC1155": false,
                        "isERC721": false,
                        "sign": true,
                        "value": "123.5259206"
                    }
                ]
            },
            {
                "account": "0x066dda24e13951e59434689b241bbb436027913e",
                "assets": [
                    {
                        "address": "0xc02aaa39b223fe8d0a0e5c4f27ead9083c756cc2",
                        "amount": "0.04",
                        "iconUrl": "https://assets.blocksec.com/icon/f1cb2d02c471d545bbc7722daf3277fd852d98e63d118771af7047bd8256c516.png",
                        "isERC1155": false,
                        "isERC721": false,
                        "sign": true,
                        "value": "131.3875"
                    },
                    {
                        "address": "0x2dc22e077d9f13cf538ca4dd668ed6c550746343",
                        "amount": "2,147,157.842078147",
                        "iconUrl": "",
                        "isERC1155": false,
                        "isERC721": false,
                        "sign": false,
                        "value": "123.5259206"
                    }
                ]
            },
            {
                "account": "0xc02aaa39b223fe8d0a0e5c4f27ead9083c756cc2",
                "assets": [
                    {
                        "address": "0xeeeeeeeeeeeeeeeeeeeeeeeeeeeeeeeeeeeeeeee",
                        "amount": "0.04",
                        "iconUrl": "https://assets.blocksec.com/image/1663669189317-3.png",
                        "isERC1155": false,
                        "isERC721": false,
                        "sign": true,
                        "value": "131.3875"
                    },
                    {
                        "address": "0xc02aaa39b223fe8d0a0e5c4f27ead9083c756cc2",
                        "amount": "0.04",
                        "iconUrl": "https://assets.blocksec.com/icon/f1cb2d02c471d545bbc7722daf3277fd852d98e63d118771af7047bd8256c516.png",
                        "isERC1155": false,
                        "isERC721": false,
                        "sign": false,
                        "value": "131.3875"
                    }
                ]
            }
        ]
    },
    "profile": {
        "basic_info": {
            "baseFee": "24.923751884",
            "blockNumber": 19572013,
            "callData": "0x3593564c000000000000000000000000000000000000000000000000000000000000006000000000000000000000000000000000000000000000000000000000000000a000000000000000000000000000000000000000000000000000000000660cb4fb00000000000000000000000000000000000000000000000000000000000000020b080000000000000000000000000000000000000000000000000000000000000000000000000000000000000000000000000000000000000000000000000002000000000000000000000000000000000000000000000000000000000000004000000000000000000000000000000000000000000000000000000000000000a000000000000000000000000000000000000000000000000000000000000000400000000000000000000000000000000000000000000000000000000000000002000000000000000000000000000000000000000000000000008e1bc9bf04000000000000000000000000000000000000000000000000000000000000000001000000000000000000000000000000000000000000000000000000000000000001000000000000000000000000000000000000000000000000008e1bc9bf0400000000000000000000000000000000000000000000000000000007971cf525e4c700000000000000000000000000000000000000000000000000000000000000a000000000000000000000000000000000000000000000000000000000000000000000000000000000000000000000000000000000000000000000000000000002000000000000000000000000c02aaa39b223fe8d0a0e5c4f27ead9083c756cc20000000000000000000000002dc22e077d9f13cf538ca4dd668ed6c550746343",
            "debugEnable": true,
            "errorInfo": "",
            "eventCount": 5,
            "feeRecipient": "0x95222290dd7278aa3ddd389cc1e1d165cc4bafe5",
            "formatValue": "0.04",
            "gasLimit": 234906,
            "gasPrice": "24.9430734",
            "gasUsed": 166798,
            "intTxnCount": 10,
            "internalRevert": false,
            "internalRevertMessage": "",
            "isContractCreation": false,
            "isFlashloan": false,
            "maxFee": "34.731090794",
            "nonce": 33,
            "overwritedBlockNumber": -1,
            "priorityFee": "0.019321516",
            "receiver": "0x3fc91a3afd70395cd496c647d5a6cc9d4b2b7fad",
            "revertMessage": "",
            "sender": "0x82c0ac2eeba62f8a104a718df8e8736fe90cbb8a",
            "simulationEnable": true,
            "sourceTxnHash": "0x32dd845d32e3bfcb3aeb3f7bb03145d8a315e3f0c96c58080493ccc924763951",
            "status": true,
            "timestamp": "2024-04-03T01:36:59Z",
            "transactionFee": "0.0041604547569732",
            "txnHash": "0x32dd845d32e3bfcb3aeb3f7bb03145d8a315e3f0c96c58080493ccc924763951",
            "txnIndex": 103,
            "type": 2,
            "value": "40000000000000000"
        },
        "fund_flow": [
            {
                "amount": "0.04",
                "from": "0x82c0ac2eeba62f8a104a718df8e8736fe90cbb8a",
                "id": 1,
                "isERC1155": false,
                "isERC721": false,
                "isReverted": false,
                "order": 1,
                "to": "0x3fc91a3afd70395cd496c647d5a6cc9d4b2b7fad",
                "token": "0xeeeeeeeeeeeeeeeeeeeeeeeeeeeeeeeeeeeeeeee"
            },
            {
                "amount": "0.04",
                "from": "0x3fc91a3afd70395cd496c647d5a6cc9d4b2b7fad",
                "id": 2,
                "isERC1155": false,
                "isERC721": false,
                "isReverted": false,
                "order": 2,
                "to": "0xc02aaa39b223fe8d0a0e5c4f27ead9083c756cc2",
                "token": "0xeeeeeeeeeeeeeeeeeeeeeeeeeeeeeeeeeeeeeeee"
            },
            {
                "amount": "0.04",
                "from": "0xc02aaa39b223fe8d0a0e5c4f27ead9083c756cc2",
                "id": 3,
                "isERC1155": false,
                "isERC721": false,
                "isReverted": false,
                "order": 3,
                "to": "0x3fc91a3afd70395cd496c647d5a6cc9d4b2b7fad",
                "token": "0xc02aaa39b223fe8d0a0e5c4f27ead9083c756cc2"
            },
            {
                "amount": "0.04",
                "from": "0x3fc91a3afd70395cd496c647d5a6cc9d4b2b7fad",
                "id": 4,
                "isERC1155": false,
                "isERC721": false,
                "isReverted": false,
                "order": 4,
                "to": "0x066dda24e13951e59434689b241bbb436027913e",
                "token": "0xc02aaa39b223fe8d0a0e5c4f27ead9083c756cc2"
            },
            {
                "amount": "2,147,157.842078147",
                "from": "0x066dda24e13951e59434689b241bbb436027913e",
                "id": 5,
                "isERC1155": false,
                "isERC721": false,
                "isReverted": false,
                "order": 5,
                "to": "0x82c0ac2eeba62f8a104a718df8e8736fe90cbb8a",
                "token": "0x2dc22e077d9f13cf538ca4dd668ed6c550746343"
            }
        ],
        "token_infos": [
            {
                "address": "0x2dc22e077d9f13cf538ca4dd668ed6c550746343",
                "decimals": 9
            },
            {
                "address": "0xc02aaa39b223fe8d0a0e5c4f27ead9083c756cc2",
                "decimals": 18
            },
            {
                "address": "0xeeeeeeeeeeeeeeeeeeeeeeeeeeeeeeeeeeeeeeee",
                "decimals": 18
            }
        ]
    },
    "address_label": {
        "labels": [
            {
                "address": "0xeeeeeeeeeeeeeeeeeeeeeeeeeeeeeeeeeeeeeeee",
                "label": "Ether"
            },
            {
                "address": "0x3fc91a3afd70395cd496c647d5a6cc9d4b2b7fad",
                "label": "Uniswap: Universal Router"
            },
            {
                "address": "0x066dda24e13951e59434689b241bbb436027913e",
                "label": "Uniswap V2: OGBOYS"
            },
            {
                "address": "0x0000000000000000000000000000000000000003",
                "label": "Precompiled"
            },
            {
                "address": "0x0000000000000000000000000000000000000004",
                "label": "Precompiled"
            },
            {
                "address": "0x2dc22e077d9f13cf538ca4dd668ed6c550746343",
                "label": "BOYS CLUB (OGBOYS)"
            },
            {
                "address": "0xc02aaa39b223fe8d0a0e5c4f27ead9083c756cc2",
                "label": "Wrapped Ether (WETH)"
            },
            {
                "address": "0x0000000000000000000000000000000000000001",
                "label": "Precompiled"
            },
            {
                "address": "0x0000000000000000000000000000000000000002",
                "label": "Precompiled"
            }
        ]
    },
    "trace": {
        "accountLabels": null,
        "dataMap": {
            "-1": {
                "invocation": {
                    "address": "0x82c0ac2eeba62f8a104a718df8e8736fe90cbb8a",
                    "callData": "",
                    "decodedMethod": null,
                    "errorInfo": "",
                    "fromAddress": "",
                    "gasUsed": 0,
                    "id": -1,
                    "methodDecoded": false,
                    "operation": "",
                    "output": "",
                    "revert": false,
                    "revertMessage": "",
                    "selector": "",
                    "status": false,
                    "value": ""
                },
                "nodeType": 0
            },
            "0": {
                "invocation": {
                    "address": "0x3fc91a3afd70395cd496c647d5a6cc9d4b2b7fad",
                    "callData": "0x000000000000000000000000000000000000000000000000000000000000006000000000000000000000000000000000000000000000000000000000000000a000000000000000000000000000000000000000000000000000000000660cb4fb00000000000000000000000000000000000000000000000000000000000000020b080000000000000000000000000000000000000000000000000000000000000000000000000000000000000000000000000000000000000000000000000002000000000000000000000000000000000000000000000000000000000000004000000000000000000000000000000000000000000000000000000000000000a000000000000000000000000000000000000000000000000000000000000000400000000000000000000000000000000000000000000000000000000000000002000000000000000000000000000000000000000000000000008e1bc9bf04000000000000000000000000000000000000000000000000000000000000000001000000000000000000000000000000000000000000000000000000000000000001000000000000000000000000000000000000000000000000008e1bc9bf0400000000000000000000000000000000000000000000000000000007971cf525e4c700000000000000000000000000000000000000000000000000000000000000a000000000000000000000000000000000000000000000000000000000000000000000000000000000000000000000000000000000000000000000000000000002000000000000000000000000c02aaa39b223fe8d0a0e5c4f27ead9083c756cc20000000000000000000000002dc22e077d9f13cf538ca4dd668ed6c550746343",
                    "decodedMethod": {
                        "callParams": [
                            {
                                "name": "commands",
                                "type": "bytes",
                                "value": "0x0b08"
                            },
                            {
                                "name": "inputs",
                                "type": "bytes[]",
                                "value": [
                                    "0x0000000000000000000000000000000000000000000000000000000000000002000000000000000000000000000000000000000000000000008e1bc9bf040000",
                                    "0x0000000000000000000000000000000000000000000000000000000000000001000000000000000000000000000000000000000000000000008e1bc9bf0400000000000000000000000000000000000000000000000000000007971cf525e4c700000000000000000000000000000000000000000000000000000000000000a000000000000000000000000000000000000000000000000000000000000000000000000000000000000000000000000000000000000000000000000000000002000000000000000000000000c02aaa39b223fe8d0a0e5c4f27ead9083c756cc20000000000000000000000002dc22e077d9f13cf538ca4dd668ed6c550746343"
                                ]
                            },
                            {
                                "name": "deadline",
                                "type": "uint256",
                                "value": "1,712,108,795"
                            }
                        ],
                        "constructorArguments": "",
                        "name": "execute",
                        "returnParams": [],
                        "signature": "execute(bytes,bytes[],uint256)"
                    },
                    "errorInfo": "",
                    "fromAddress": "0x82c0ac2eeba62f8a104a718df8e8736fe90cbb8a",
                    "gasUsed": 166798,
                    "id": 0,
                    "methodDecoded": true,
                    "operation": "CALL",
                    "output": "",
                    "revert": false,
                    "revertMessage": "",
                    "selector": "0x3593564c",
                    "status": true,
                    "value": "0.04"
                },
                "nodeType": 0
            },
            "1": {
                "invocation": {
                    "address": "0xc02aaa39b223fe8d0a0e5c4f27ead9083c756cc2",
                    "callData": "0x",
                    "decodedMethod": {
                        "callParams": [],
                        "constructorArguments": "",
                        "name": "deposit",
                        "returnParams": [],
                        "signature": "deposit()"
                    },
                    "errorInfo": "",
                    "fromAddress": "0x3fc91a3afd70395cd496c647d5a6cc9d4b2b7fad",
                    "gasUsed": 23974,
                    "id": 1,
                    "methodDecoded": true,
                    "operation": "CALL",
                    "output": "",
                    "revert": false,
                    "revertMessage": "",
                    "selector": "0xd0e30db0",
                    "status": true,
                    "value": "0.04"
                },
                "nodeType": 0
            },
            "10": {
                "event": {
                    "contract": "0x2dc22e077d9f13cf538ca4dd668ed6c550746343",
                    "decodedLog": {
                        "name": "Transfer",
                        "params": [
                            {
                                "name": "from",
                                "type": "address",
                                "value": "0x066dda24e13951e59434689b241bbb436027913e"
                            },
                            {
                                "name": "to",
                                "type": "address",
                                "value": "0x82c0ac2eeba62f8a104a718df8e8736fe90cbb8a"
                            },
                            {
                                "decimalAvailable": true,
                                "name": "value",
                                "type": "uint256",
                                "value": "2,147,157,842,078,147"
                            }
                        ],
                        "signature": "Transfer(address,address,uint256)"
                    },
                    "id": 10,
                    "logData": "0x0000000000000000000000000000000000000000000000000007a0d4247429c3",
                    "logDecoded": true,
                    "operation": "EVENT",
                    "revert": false,
                    "status": true,
                    "topics": [
                        "0xddf252ad1be2c89b69c2b068fc378daa952ba7f163c4a11628f55a4df523b3ef",
                        "0x000000000000000000000000066dda24e13951e59434689b241bbb436027913e",
                        "0x00000000000000000000000082c0ac2eeba62f8a104a718df8e8736fe90cbb8a"
                    ]
                },
                "nodeType": 1
            },
            "11": {
                "invocation": {
                    "address": "0x2dc22e077d9f13cf538ca4dd668ed6c550746343",
                    "callData": "0x000000000000000000000000066dda24e13951e59434689b241bbb436027913e",
                    "decodedMethod": {
                        "callParams": [
                            {
                                "name": "account",
                                "type": "address",
                                "value": "0x066dda24e13951e59434689b241bbb436027913e"
                            }
                        ],
                        "constructorArguments": "",
                        "name": "balanceOf",
                        "returnParams": [
                            {
                                "decimalAvailable": true,
                                "name": "",
                                "type": "uint256",
                                "value": "74,870,073,915,152,752"
                            }
                        ],
                        "signature": "balanceOf(address)"
                    },
                    "errorInfo": "",
                    "fromAddress": "0x066dda24e13951e59434689b241bbb436027913e",
                    "gasUsed": 576,
                    "id": 11,
                    "methodDecoded": true,
                    "operation": "STATICCALL",
                    "output": "0x0000000000000000000000000000000000000000000000000109fdef80051970",
                    "revert": false,
                    "revertMessage": "",
                    "selector": "0x70a08231",
                    "status": true,
                    "value": "0"
                },
                "nodeType": 0
            },
            "12": {
                "invocation": {
                    "address": "0xc02aaa39b223fe8d0a0e5c4f27ead9083c756cc2",
                    "callData": "0x000000000000000000000000066dda24e13951e59434689b241bbb436027913e",
                    "decodedMethod": {
                        "callParams": [
                            {
                                "name": "",
                                "type": "address",
                                "value": "0x066dda24e13951e59434689b241bbb436027913e"
                            }
                        ],
                        "constructorArguments": "",
                        "name": "balanceOf",
                        "returnParams": [
                            {
                                "decimalAvailable": true,
                                "name": "",
                                "type": "uint256",
                                "value": "1,430,591,082,417,321,815"
                            }
                        ],
                        "signature": "balanceOf(address)"
                    },
                    "errorInfo": "",
                    "fromAddress": "0x066dda24e13951e59434689b241bbb436027913e",
                    "gasUsed": 534,
                    "id": 12,
                    "methodDecoded": true,
                    "operation": "STATICCALL",
                    "output": "0x00000000000000000000000000000000000000000000000013da7b0286537757",
                    "revert": false,
                    "revertMessage": "",
                    "selector": "0x70a08231",
                    "status": true,
                    "value": "0"
                },
                "nodeType": 0
            },
            "13": {
                "event": {
                    "contract": "0x066dda24e13951e59434689b241bbb436027913e",
                    "decodedLog": {
                        "name": "Sync",
                        "params": [
                            {
                                "name": "reserve0",
                                "type": "uint112",
                                "value": "74,870,073,915,152,752"
                            },
                            {
                                "name": "reserve1",
                                "type": "uint112",
                                "value": "1,430,591,082,417,321,815"
                            }
                        ],
                        "signature": "Sync(uint112,uint112)"
                    },
                    "id": 13,
                    "logData": "0x0000000000000000000000000000000000000000000000000109fdef8005197000000000000000000000000000000000000000000000000013da7b0286537757",
                    "logDecoded": true,
                    "operation": "EVENT",
                    "revert": false,
                    "status": true,
                    "topics": [
                        "0x1c411e9a96e071241c2f21f7726b17ae89e3cab4c78be50e062b03a9fffbbad1"
                    ]
                },
                "nodeType": 1
            },
            "14": {
                "event": {
                    "contract": "0x066dda24e13951e59434689b241bbb436027913e",
                    "decodedLog": {
                        "name": "Swap",
                        "params": [
                            {
                                "name": "sender",
                                "type": "address",
                                "value": "0x3fc91a3afd70395cd496c647d5a6cc9d4b2b7fad"
                            },
                            {
                                "name": "to",
                                "type": "address",
                                "value": "0x82c0ac2eeba62f8a104a718df8e8736fe90cbb8a"
                            },
                            {
                                "name": "amount0In",
                                "type": "uint256",
                                "value": "0"
                            },
                            {
                                "name": "amount1In",
                                "type": "uint256",
                                "value": "40,000,000,000,000,000"
                            },
                            {
                                "name": "amount0Out",
                                "type": "uint256",
                                "value": "2,147,157,842,078,147"
                            },
                            {
                                "name": "amount1Out",
                                "type": "uint256",
                                "value": "0"
                            }
                        ],
                        "signature": "Swap(address,uint256,uint256,uint256,uint256,address)"
                    },
                    "id": 14,
                    "logData": "0x0000000000000000000000000000000000000000000000000000000000000000000000000000000000000000000000000000000000000000008e1bc9bf0400000000000000000000000000000000000000000000000000000007a0d4247429c30000000000000000000000000000000000000000000000000000000000000000",
                    "logDecoded": true,
                    "operation": "EVENT",
                    "revert": false,
                    "status": true,
                    "topics": [
                        "0xd78ad95fa46c994b6551d0da85fc275fe613ce37657fb8d5e3d130840159d822",
                        "0x0000000000000000000000003fc91a3afd70395cd496c647d5a6cc9d4b2b7fad",
                        "0x00000000000000000000000082c0ac2eeba62f8a104a718df8e8736fe90cbb8a"
                    ]
                },
                "nodeType": 1
            },
            "15": {
                "invocation": {
                    "address": "0x2dc22e077d9f13cf538ca4dd668ed6c550746343",
                    "callData": "0x00000000000000000000000082c0ac2eeba62f8a104a718df8e8736fe90cbb8a",
                    "decodedMethod": {
                        "callParams": [
                            {
                                "name": "account",
                                "type": "address",
                                "value": "0x82c0ac2eeba62f8a104a718df8e8736fe90cbb8a"
                            }
                        ],
                        "constructorArguments": "",
                        "name": "balanceOf",
                        "returnParams": [
                            {
                                "decimalAvailable": true,
                                "name": "",
                                "type": "uint256",
                                "value": "2,147,157,842,078,147"
                            }
                        ],
                        "signature": "balanceOf(address)"
                    },
                    "errorInfo": "",
                    "fromAddress": "0x3fc91a3afd70395cd496c647d5a6cc9d4b2b7fad",
                    "gasUsed": 576,
                    "id": 15,
                    "methodDecoded": true,
                    "operation": "STATICCALL",
                    "output": "0x0000000000000000000000000000000000000000000000000007a0d4247429c3",
                    "revert": false,
                    "revertMessage": "",
                    "selector": "0x70a08231",
                    "status": true,
                    "value": "0"
                },
                "nodeType": 0
            },
            "2": {
                "event": {
                    "contract": "0xc02aaa39b223fe8d0a0e5c4f27ead9083c756cc2",
                    "decodedLog": {
                        "name": "Deposit",
                        "params": [
                            {
                                "name": "dst",
                                "type": "address",
                                "value": "0x3fc91a3afd70395cd496c647d5a6cc9d4b2b7fad"
                            },
                            {
                                "name": "wad",
                                "type": "uint256",
                                "value": "40,000,000,000,000,000"
                            }
                        ],
                        "signature": "Deposit(address,uint256)"
                    },
                    "id": 2,
                    "logData": "0x000000000000000000000000000000000000000000000000008e1bc9bf040000",
                    "logDecoded": true,
                    "operation": "EVENT",
                    "revert": false,
                    "status": true,
                    "topics": [
                        "0xe1fffcc4923d04b559f4d29a8bfc6cda04eb5b0d3c460751c2402c5c5cc9109c",
                        "0x0000000000000000000000003fc91a3afd70395cd496c647d5a6cc9d4b2b7fad"
                    ]
                },
                "nodeType": 1
            },
            "3": {
                "invocation": {
                    "address": "0xc02aaa39b223fe8d0a0e5c4f27ead9083c756cc2",
                    "callData": "0x000000000000000000000000066dda24e13951e59434689b241bbb436027913e000000000000000000000000000000000000000000000000008e1bc9bf040000",
                    "decodedMethod": {
                        "callParams": [
                            {
                                "name": "dst",
                                "type": "address",
                                "value": "0x066dda24e13951e59434689b241bbb436027913e"
                            },
                            {
                                "decimalAvailable": true,
                                "name": "wad",
                                "type": "uint256",
                                "value": "40,000,000,000,000,000"
                            }
                        ],
                        "constructorArguments": "",
                        "name": "transfer",
                        "returnParams": [
                            {
                                "name": "",
                                "type": "bool",
                                "value": true
                            }
                        ],
                        "signature": "transfer(address,uint256)"
                    },
                    "errorInfo": "",
                    "fromAddress": "0x3fc91a3afd70395cd496c647d5a6cc9d4b2b7fad",
                    "gasUsed": 8062,
                    "id": 3,
                    "methodDecoded": true,
                    "operation": "CALL",
                    "output": "0x0000000000000000000000000000000000000000000000000000000000000001",
                    "revert": false,
                    "revertMessage": "",
                    "selector": "0xa9059cbb",
                    "status": true,
                    "value": "0"
                },
                "nodeType": 0
            },
            "4": {
                "event": {
                    "contract": "0xc02aaa39b223fe8d0a0e5c4f27ead9083c756cc2",
                    "decodedLog": {
                        "name": "Transfer",
                        "params": [
                            {
                                "name": "src",
                                "type": "address",
                                "value": "0x3fc91a3afd70395cd496c647d5a6cc9d4b2b7fad"
                            },
                            {
                                "name": "dst",
                                "type": "address",
                                "value": "0x066dda24e13951e59434689b241bbb436027913e"
                            },
                            {
                                "decimalAvailable": true,
                                "name": "wad",
                                "type": "uint256",
                                "value": "40,000,000,000,000,000"
                            }
                        ],
                        "signature": "Transfer(address,address,uint256)"
                    },
                    "id": 4,
                    "logData": "0x000000000000000000000000000000000000000000000000008e1bc9bf040000",
                    "logDecoded": true,
                    "operation": "EVENT",
                    "revert": false,
                    "status": true,
                    "topics": [
                        "0xddf252ad1be2c89b69c2b068fc378daa952ba7f163c4a11628f55a4df523b3ef",
                        "0x0000000000000000000000003fc91a3afd70395cd496c647d5a6cc9d4b2b7fad",
                        "0x000000000000000000000000066dda24e13951e59434689b241bbb436027913e"
                    ]
                },
                "nodeType": 1
            },
            "5": {
                "invocation": {
                    "address": "0x2dc22e077d9f13cf538ca4dd668ed6c550746343",
                    "callData": "0x00000000000000000000000082c0ac2eeba62f8a104a718df8e8736fe90cbb8a",
                    "decodedMethod": {
                        "callParams": [
                            {
                                "name": "account",
                                "type": "address",
                                "value": "0x82c0ac2eeba62f8a104a718df8e8736fe90cbb8a"
                            }
                        ],
                        "constructorArguments": "",
                        "name": "balanceOf",
                        "returnParams": [
                            {
                                "decimalAvailable": true,
                                "name": "",
                                "type": "uint256",
                                "value": "0"
                            }
                        ],
                        "signature": "balanceOf(address)"
                    },
                    "errorInfo": "",
                    "fromAddress": "0x3fc91a3afd70395cd496c647d5a6cc9d4b2b7fad",
                    "gasUsed": 2576,
                    "id": 5,
                    "methodDecoded": true,
                    "operation": "STATICCALL",
                    "output": "0x0000000000000000000000000000000000000000000000000000000000000000",
                    "revert": false,
                    "revertMessage": "",
                    "selector": "0x70a08231",
                    "status": true,
                    "value": "0"
                },
                "nodeType": 0
            },
            "6": {
                "invocation": {
                    "address": "0x066dda24e13951e59434689b241bbb436027913e",
                    "callData": "0x",
                    "decodedMethod": {
                        "callParams": [],
                        "constructorArguments": "",
                        "name": "getReserves",
                        "returnParams": [
                            {
                                "name": "_reserve0",
                                "type": "uint112",
                                "value": "77,017,231,757,230,899"
                            },
                            {
                                "name": "_reserve1",
                                "type": "uint112",
                                "value": "1,390,591,082,417,321,815"
                            },
                            {
                                "name": "_blockTimestampLast",
                                "type": "uint32",
                                "value": "1,712,104,031"
                            }
                        ],
                        "signature": "getReserves()"
                    },
                    "errorInfo": "",
                    "fromAddress": "0x3fc91a3afd70395cd496c647d5a6cc9d4b2b7fad",
                    "gasUsed": 2504,
                    "id": 6,
                    "methodDecoded": true,
                    "operation": "STATICCALL",
                    "output": "0x00000000000000000000000000000000000000000000000001119ec3a4794333000000000000000000000000000000000000000000000000134c5f38c74f775700000000000000000000000000000000000000000000000000000000660ca25f",
                    "revert": false,
                    "revertMessage": "",
                    "selector": "0x0902f1ac",
                    "status": true,
                    "value": "0"
                },
                "nodeType": 0
            },
            "7": {
                "invocation": {
                    "address": "0xc02aaa39b223fe8d0a0e5c4f27ead9083c756cc2",
                    "callData": "0x000000000000000000000000066dda24e13951e59434689b241bbb436027913e",
                    "decodedMethod": {
                        "callParams": [
                            {
                                "name": "",
                                "type": "address",
                                "value": "0x066dda24e13951e59434689b241bbb436027913e"
                            }
                        ],
                        "constructorArguments": "",
                        "name": "balanceOf",
                        "returnParams": [
                            {
                                "decimalAvailable": true,
                                "name": "",
                                "type": "uint256",
                                "value": "1,430,591,082,417,321,815"
                            }
                        ],
                        "signature": "balanceOf(address)"
                    },
                    "errorInfo": "",
                    "fromAddress": "0x3fc91a3afd70395cd496c647d5a6cc9d4b2b7fad",
                    "gasUsed": 534,
                    "id": 7,
                    "methodDecoded": true,
                    "operation": "STATICCALL",
                    "output": "0x00000000000000000000000000000000000000000000000013da7b0286537757",
                    "revert": false,
                    "revertMessage": "",
                    "selector": "0x70a08231",
                    "status": true,
                    "value": "0"
                },
                "nodeType": 0
            },
            "8": {
                "invocation": {
                    "address": "0x066dda24e13951e59434689b241bbb436027913e",
                    "callData": "0x0000000000000000000000000000000000000000000000000007a0d4247429c3000000000000000000000000000000000000000000000000000000000000000000000000000000000000000082c0ac2eeba62f8a104a718df8e8736fe90cbb8a00000000000000000000000000000000000000000000000000000000000000800000000000000000000000000000000000000000000000000000000000000000",
                    "decodedMethod": {
                        "callParams": [
                            {
                                "name": "amount0Out",
                                "type": "uint256",
                                "value": "2,147,157,842,078,147"
                            },
                            {
                                "name": "amount1Out",
                                "type": "uint256",
                                "value": "0"
                            },
                            {
                                "name": "to",
                                "type": "address",
                                "value": "0x82c0ac2eeba62f8a104a718df8e8736fe90cbb8a"
                            },
                            {
                                "name": "data",
                                "type": "bytes",
                                "value": "0x"
                            }
                        ],
                        "constructorArguments": "",
                        "name": "swap",
                        "returnParams": [],
                        "signature": "swap(uint256,uint256,address,bytes)"
                    },
                    "errorInfo": "",
                    "fromAddress": "0x3fc91a3afd70395cd496c647d5a6cc9d4b2b7fad",
                    "gasUsed": 101727,
                    "id": 8,
                    "methodDecoded": true,
                    "operation": "CALL",
                    "output": "",
                    "revert": false,
                    "revertMessage": "",
                    "selector": "0x022c0d9f",
                    "status": true,
                    "value": "0"
                },
                "nodeType": 0
            },
            "9": {
                "invocation": {
                    "address": "0x2dc22e077d9f13cf538ca4dd668ed6c550746343",
                    "callData": "0x00000000000000000000000082c0ac2eeba62f8a104a718df8e8736fe90cbb8a0000000000000000000000000000000000000000000000000007a0d4247429c3",
                    "decodedMethod": {
                        "callParams": [
                            {
                                "name": "recipient",
                                "type": "address",
                                "value": "0x82c0ac2eeba62f8a104a718df8e8736fe90cbb8a"
                            },
                            {
                                "decimalAvailable": true,
                                "name": "amount",
                                "type": "uint256",
                                "value": "2,147,157,842,078,147"
                            }
                        ],
                        "constructorArguments": "",
                        "name": "transfer",
                        "returnParams": [
                            {
                                "name": "",
                                "type": "bool",
                                "value": true
                            }
                        ],
                        "signature": "transfer(address,uint256)"
                    },
                    "errorInfo": "",
                    "fromAddress": "0x066dda24e13951e59434689b241bbb436027913e",
                    "gasUsed": 69294,
                    "id": 9,
                    "methodDecoded": true,
                    "operation": "CALL",
                    "output": "0x0000000000000000000000000000000000000000000000000000000000000001",
                    "revert": false,
                    "revertMessage": "",
                    "selector": "0xa9059cbb",
                    "status": true,
                    "value": "0"
                },
                "nodeType": 0
            }
        },
        "gasFlame": [
            {
                "children": [
                    {
                        "children": [
                            {
                                "children": [],
                                "depth": 0,
                                "name": "Initial Gas",
                                "value": 24524
                            },
                            {
                                "children": [
                                    {
                                        "children": [],
                                        "depth": 1,
                                        "name": "deposit",
                                        "value": 23974
                                    },
                                    {
                                        "children": [],
                                        "depth": 1,
                                        "name": "transfer",
                                        "value": 8062
                                    },
                                    {
                                        "children": [],
                                        "depth": 1,
                                        "name": "balanceOf",
                                        "value": 2576
                                    },
                                    {
                                        "children": [],
                                        "depth": 1,
                                        "name": "getReserves",
                                        "value": 2504
                                    },
                                    {
                                        "children": [],
                                        "depth": 1,
                                        "name": "balanceOf",
                                        "value": 534
                                    },
                                    {
                                        "children": [
                                            {
                                                "children": [],
                                                "depth": 2,
                                                "name": "transfer",
                                                "value": 69294
                                            },
                                            {
                                                "children": [],
                                                "depth": 2,
                                                "name": "balanceOf",
                                                "value": 576
                                            },
                                            {
                                                "children": [],
                                                "depth": 2,
                                                "name": "balanceOf",
                                                "value": 534
                                            }
                                        ],
                                        "depth": 1,
                                        "name": "swap",
                                        "value": 101727
                                    },
                                    {
                                        "children": [],
                                        "depth": 1,
                                        "name": "balanceOf",
                                        "value": 576
                                    }
                                ],
                                "depth": 0,
                                "name": "Executed Gas",
                                "value": 167774
                            }
                        ],
                        "depth": -1,
                        "name": "Actual Gas Used",
                        "value": 166798
                    },
                    {
                        "children": [],
                        "depth": -1,
                        "name": "Refunded Gas",
                        "value": 25500
                    }
                ],
                "depth": -2,
                "name": "Total Gas",
                "value": 192298
            }
        ],
        "isConfirmed": true,
        "mainTrace": [
            {
                "children": [
                    {
                        "children": [
                            {
                                "children": [
                                    {
                                        "children": [],
                                        "depth": 2,
                                        "id": 2,
                                        "order": 2
                                    }
                                ],
                                "depth": 1,
                                "id": 1,
                                "order": 1
                            },
                            {
                                "children": [
                                    {
                                        "children": [],
                                        "depth": 2,
                                        "id": 4,
                                        "order": 4
                                    }
                                ],
                                "depth": 1,
                                "id": 3,
                                "order": 3
                            },
                            {
                                "children": [],
                                "depth": 1,
                                "id": 5,
                                "order": 5
                            },
                            {
                                "children": [],
                                "depth": 1,
                                "id": 6,
                                "order": 6
                            },
                            {
                                "children": [],
                                "depth": 1,
                                "id": 7,
                                "order": 7
                            },
                            {
                                "children": [
                                    {
                                        "children": [
                                            {
                                                "children": [],
                                                "depth": 3,
                                                "id": 10,
                                                "order": 10
                                            }
                                        ],
                                        "depth": 2,
                                        "id": 9,
                                        "order": 9
                                    },
                                    {
                                        "children": [],
                                        "depth": 2,
                                        "id": 11,
                                        "order": 11
                                    },
                                    {
                                        "children": [],
                                        "depth": 2,
                                        "id": 12,
                                        "order": 12
                                    },
                                    {
                                        "children": [],
                                        "depth": 2,
                                        "id": 13,
                                        "order": 13
                                    },
                                    {
                                        "children": [],
                                        "depth": 2,
                                        "id": 14,
                                        "order": 14
                                    }
                                ],
                                "depth": 1,
                                "id": 8,
                                "order": 8
                            },
                            {
                                "children": [],
                                "depth": 1,
                                "id": 15,
                                "order": 15
                            }
                        ],
                        "depth": 0,
                        "id": 0,
                        "order": 0
                    }
                ],
                "depth": -1,
                "id": -1,
                "order": -1
            }
        ],
        "mainTraceNodeCount": 16,
        "parentIdMap": {
            "0": -1,
            "1": 0,
            "10": 9,
            "11": 8,
            "12": 8,
            "13": 8,
            "14": 8,
            "15": 0,
            "2": 1,
            "3": 0,
            "4": 3,
            "5": 0,
            "6": 0,
            "7": 0,
            "8": 0,
            "9": 8
        },
        "tidyTrace": [
            {
                "children": [
                    {
                        "children": [
                            {
                                "children": [
                                    {
                                        "children": [],
                                        "depth": 2,
                                        "id": 2,
                                        "order": 2
                                    }
                                ],
                                "depth": 1,
                                "id": 1,
                                "order": 1
                            },
                            {
                                "children": [
                                    {
                                        "children": [],
                                        "depth": 2,
                                        "id": 4,
                                        "order": 4
                                    }
                                ],
                                "depth": 1,
                                "id": 3,
                                "order": 3
                            },
                            {
                                "children": [
                                    {
                                        "children": [
                                            {
                                                "children": [],
                                                "depth": 3,
                                                "id": 10,
                                                "order": 10
                                            }
                                        ],
                                        "depth": 2,
                                        "id": 9,
                                        "order": 9
                                    },
                                    {
                                        "children": [],
                                        "depth": 2,
                                        "id": 13,
                                        "order": 13
                                    },
                                    {
                                        "children": [],
                                        "depth": 2,
                                        "id": 14,
                                        "order": 14
                                    }
                                ],
                                "depth": 1,
                                "id": 8,
                                "order": 8
                            }
                        ],
                        "depth": 0,
                        "id": 0,
                        "order": 0
                    }
                ],
                "depth": -1,
                "id": -1,
                "order": -1
            }
        ],
        "tidyTraceNodeCount": 10
    },
    "state_change": {
        "stateChanges": [
            {
                "address": "0x066dda24e13951e59434689b241bbb436027913e",
                "erc": "ERC-20",
                "slots": [
                    {
                        "current": "0x000000000000000000000000000020d876ca12d3bc4d9a50c9d89f3c87fffa38",
                        "key": "0x0000000000000000000000000000000000000000000000000000000000000009",
                        "prev": "0x000000000000000000000000000020d74f6949df9b8ba844b1ed2bdf4bef10e8"
                    },
                    {
                        "current": "0x00000000000000000000000000000018fcd1f59ecbea917644a32b5c80ab7ec0",
                        "key": "0x000000000000000000000000000000000000000000000000000000000000000a",
                        "prev": "0x00000000000000000000000000000018fbea0250f7b4bb5fc458a1be9810aad0"
                    },
                    {
                        "current": "0x660cb2bb00000000000013da7b02865377570000000000000109fdef80051970",
                        "key": "0x0000000000000000000000000000000000000000000000000000000000000008",
                        "prev": "0x660ca25f000000000000134c5f38c74f775700000000000001119ec3a4794333"
                    }
                ],
                "storageVariables": [
                    {
                        "name": "price1CumulativeLast",
                        "type": "uint256",
                        "value": {
                            "current": "8502832432855267306540456571608773656256",
                            "prev": "8501628077489167654251934226933741562576",
                            "typeTag": 1
                        }
                    },
                    {
                        "name": "reserve0",
                        "type": "uint112",
                        "value": {
                            "current": "74870073915152752",
                            "prev": "77017231757230899",
                            "typeTag": 1
                        }
                    },
                    {
                        "name": "reserve1",
                        "type": "uint112",
                        "value": {
                            "current": "1430591082417321815",
                            "prev": "1390591082417321815",
                            "typeTag": 1
                        }
                    },
                    {
                        "name": "blockTimestampLast",
                        "type": "uint32",
                        "value": {
                            "current": "1712108219",
                            "prev": "1712104031",
                            "typeTag": 1
                        }
                    },
                    {
                        "name": "price0CumulativeLast",
                        "type": "uint256",
                        "value": {
                            "current": "2861252039200577437062346400180234761534008",
                            "prev": "2860859414405498737166539612960434229809384",
                            "typeTag": 1
                        }
                    }
                ]
            },
            {
                "address": "0x2dc22e077d9f13cf538ca4dd668ed6c550746343",
                "erc": "ERC-20",
                "slots": [
                    {
                        "current": "0x0000000000000000000000000000000000000000000000000109fdef80051970",
                        "key": "0xedd90aa41559f851312957bd6bf6fa5ee5fd3149f46cddacb1d438b21fcac52b",
                        "prev": "0x00000000000000000000000000000000000000000000000001119ec3a4794333"
                    },
                    {
                        "current": "0x0000000000000000000000000000000000000000000000000007a0d4247429c3",
                        "key": "0xfb105d6a8d8959104a9d3d5d7291accc67fb53c150209ec33c5e99bbd7816d24",
                        "prev": "0x0000000000000000000000000000000000000000000000000000000000000000"
                    }
                ],
                "storageVariables": [
                    {
                        "name": "_balances",
                        "type": "mapping(address => uint256)",
                        "value": {
                            "pairs": [
                                {
                                    "key": "0x066dda24e13951e59434689b241bbb436027913e",
                                    "value": {
                                        "current": "74870073915152752",
                                        "prev": "77017231757230899",
                                        "typeTag": 1
                                    }
                                },
                                {
                                    "key": "0x82c0ac2eeba62f8a104a718df8e8736fe90cbb8a",
                                    "value": {
                                        "current": "2147157842078147",
                                        "prev": "0",
                                        "typeTag": 1
                                    }
                                }
                            ],
                            "typeTag": 4
                        }
                    }
                ]
            },
            {
                "address": "0xc02aaa39b223fe8d0a0e5c4f27ead9083c756cc2",
                "erc": "ERC-20",
                "slots": [
                    {
                        "current": "0x00000000000000000000000000000000000000000000000013da7b0286537757",
                        "key": "0x71acc96e678a6a820e4d0c3331c8ed2381a51fec6c0f14ea342b857b2b4dbd1c",
                        "prev": "0x000000000000000000000000000000000000000000000000134c5f38c74f7757"
                    }
                ],
                "storageVariables": [
                    {
                        "name": "balanceOf",
                        "type": "mapping(address => uint256)",
                        "value": {
                            "pairs": [
                                {
                                    "key": "0x066dda24e13951e59434689b241bbb436027913e",
                                    "value": {
                                        "current": "1430591082417321815",
                                        "prev": "1390591082417321815",
                                        "typeTag": 1
                                    }
                                }
                            ],
                            "typeTag": 4
                        }
                    }
                ]
            }
        ]
    }
}