{
    "balance_change": {
        "balanceChanges": [
            {
                "account": "0x59c62ffa192a83816c76c0b35ee498ebc89377e6",
                "assets": [
                    {
                        "address": "0xeeeeeeeeeeeeeeeeeeeeeeeeeeeeeeeeeeeeeeee",
                        "amount": "0.68",
                        "iconUrl": "https://assets.blocksec.com/image/1663669189317-3.png",
                        "isERC1155": false,
                        "isERC721": false,
                        "sign": false,
                        "value": "1665.397537"
                    },
                    {
                        "address": "0xc0d4ceb216b3ba9c3701b291766fdcba977cec3a",
                        "amount": "4.091804177",
                        "iconUrl": "https://assets.blocksec.com/icon/6dc3c6b52a3ee1f2904630504917d3c5874435c5742dcf75fefbd8fa9330158e.png",
                        "isERC1155": false,
                        "isERC721": false,
                        "sign": true,
                        "value": "2417.907768"
                    }
                ]
            },
            {
                "account": "0xc02aaa39b223fe8d0a0e5c4f27ead9083c756cc2",
                "assets": [
                    {
                        "address": "0xeeeeeeeeeeeeeeeeeeeeeeeeeeeeeeeeeeeeeeee",
                        "amount": "0.67405",
                        "iconUrl": "https://assets.blocksec.com/image/1663669189317-3.png",
                        "isERC1155": false,
                        "isERC721": false,
                        "sign": true,
                        "value": "1650.825308"
                    },
                    {
                        "address": "0xc02aaa39b223fe8d0a0e5c4f27ead9083c756cc2",
                        "amount": "0.67405",
                        "iconUrl": "https://assets.blocksec.com/icon/f1cb2d02c471d545bbc7722daf3277fd852d98e63d118771af7047bd8256c516.png",
                        "isERC1155": false,
                        "isERC721": false,
                        "sign": false,
                        "value": "1650.825308"
                    }
                ]
            },
            {
                "account": "0xdf9ab3c649005ebfdf682d2302ca1f673e0d37a2",
                "assets": [
                    {
                        "address": "0xc0d4ceb216b3ba9c3701b291766fdcba977cec3a",
                        "amount": "4.091804177",
                        "iconUrl": "https://assets.blocksec.com/icon/6dc3c6b52a3ee1f2904630504917d3c5874435c5742dcf75fefbd8fa9330158e.png",
                        "isERC1155": false,
                        "isERC721": false,
                        "sign": false,
                        "value": "2417.907768"
                    },
                    {
                        "address": "0xc02aaa39b223fe8d0a0e5c4f27ead9083c756cc2",
                        "amount": "0.67405",
                        "iconUrl": "https://assets.blocksec.com/icon/f1cb2d02c471d545bbc7722daf3277fd852d98e63d118771af7047bd8256c516.png",
                        "isERC1155": false,
                        "isERC721": false,
                        "sign": true,
                        "value": "1650.825308"
                    }
                ]
            },
            {
                "account": "0xf326e4de8f66a0bdc0970b79e0924e33c79f1915",
                "assets": [
                    {
                        "address": "0xeeeeeeeeeeeeeeeeeeeeeeeeeeeeeeeeeeeeeeee",
                        "amount": "0.00595",
                        "iconUrl": "https://assets.blocksec.com/image/1663669189317-3.png",
                        "isERC1155": false,
                        "isERC721": false,
                        "sign": true,
                        "value": "14.57222844"
                    }
                ]
            }
        ]
    },
    "profile": {
        "basic_info": {
            "baseFee": "293.203605953",
            "blockNumber": 14089141,
            "callData": "0x5f57552900000000000000000000000000000000000000000000000000000000000000800000000000000000000000000000000000000000000000000000000000000000000000000000000000000000000000000000000000000000096fd865af44000000000000000000000000000000000000000000000000000000000000000000c0000000000000000000000000000000000000000000000000000000000000000c307846656544796e616d6963000000000000000000000000000000000000000000000000000000000000000000000000000000000000000000000000000002400000000000000000000000000000000000000000000000000000000000000000000000000000000000000000c0d4ceb216b3ba9c3701b291766fdcba977cec3a000000000000000000000000000000000000000000000000095ab4e75ada200000000000000000000000000000000000000000000000000000000000ebd6202600000000000000000000000000000000000000000000000000000000000001200000000000000000000000000000000000000000000000000015237e5469e000000000000000000000000000f326e4de8f66a0bdc0970b79e0924e33c79f1915000000000000000000000000000000000000000000000000000000000000000000000000000000000000000000000000000000000000000000000000000001083598d8ab000000000000000000000000000000000000000000000000000000000000006000000000000000000000000000000000000000000000000000000000ebd620260000000000000000000000000000000000000000000000000000000000000000000000000000000000000000000000000000000000000000000000000000002bc02aaa39b223fe8d0a0e5c4f27ead9083c756cc2002710c0d4ceb216b3ba9c3701b291766fdcba977cec3a000000000000000000000000000000000000000000869584cd00000000000000000000000011ededebf63bef0ea2d2d071bdf88f71543ec6fb0000000000000000000000000000000000000000000000b85ff79dbc61f2dace00000000000000000000000000000000000000000000000036",
            "debugEnable": true,
            "errorInfo": "",
            "eventCount": 6,
            "feeRecipient": "0xea674fdde714fd979de3edf0f56aa9716b898ec8",
            "formatValue": "0.68",
            "gasLimit": 278981,
            "gasPrice": "295.203605953",
            "gasUsed": 203460,
            "intTxnCount": 16,
            "internalRevert": false,
            "internalRevertMessage": "",
            "isContractCreation": false,
            "isFlashloan": false,
            "maxFee": "303.569215227",
            "nonce": 0,
            "overwritedBlockNumber": -1,
            "priorityFee": "2",
            "receiver": "0x881d40237659c251811cec9c364ef91dc08d300c",
            "revertMessage": "",
            "sender": "0x59c62ffa192a83816c76c0b35ee498ebc89377e6",
            "simulationEnable": true,
            "sourceTxnHash": "0x32f489b1b48e9ec0faa9ee1f6752d9205a3e328112f8067ebe57b2cd3f216df2",
            "status": true,
            "timestamp": "2022-01-27T17:48:01Z",
            "transactionFee": "0.06006212566719738",
            "txnHash": "0x32f489b1b48e9ec0faa9ee1f6752d9205a3e328112f8067ebe57b2cd3f216df2",
            "txnIndex": 38,
            "type": 2,
            "value": "680000000000000000"
        },
        "fund_flow": [
            {
                "amount": "0.68",
                "from": "0x59c62ffa192a83816c76c0b35ee498ebc89377e6",
                "id": 1,
                "isERC1155": false,
                "isERC721": false,
                "isReverted": false,
                "order": 1,
                "to": "0x881d40237659c251811cec9c364ef91dc08d300c",
                "token": "0xeeeeeeeeeeeeeeeeeeeeeeeeeeeeeeeeeeeeeeee"
            },
            {
                "amount": "0.68",
                "from": "0x881d40237659c251811cec9c364ef91dc08d300c",
                "id": 2,
                "isERC1155": false,
                "isERC721": false,
                "isReverted": false,
                "order": 2,
                "to": "0x74de5d4fcbf63e00296fd95d33236b9794016631",
                "token": "0xeeeeeeeeeeeeeeeeeeeeeeeeeeeeeeeeeeeeeeee"
            },
            {
                "amount": "0.67405",
                "from": "0x74de5d4fcbf63e00296fd95d33236b9794016631",
                "id": 3,
                "isERC1155": false,
                "isERC721": false,
                "isReverted": false,
                "order": 3,
                "to": "0xdef1c0ded9bec7f1a1670819833240f027b25eff",
                "token": "0xeeeeeeeeeeeeeeeeeeeeeeeeeeeeeeeeeeeeeeee"
            },
            {
                "amount": "0.67405",
                "from": "0xdef1c0ded9bec7f1a1670819833240f027b25eff",
                "id": 4,
                "isERC1155": false,
                "isERC721": false,
                "isReverted": false,
                "order": 4,
                "to": "0xc02aaa39b223fe8d0a0e5c4f27ead9083c756cc2",
                "token": "0xeeeeeeeeeeeeeeeeeeeeeeeeeeeeeeeeeeeeeeee"
            },
            {
                "amount": "0.67405",
                "from": "0xc02aaa39b223fe8d0a0e5c4f27ead9083c756cc2",
                "id": 5,
                "isERC1155": false,
                "isERC721": false,
                "isReverted": false,
                "order": 5,
                "to": "0xdef1c0ded9bec7f1a1670819833240f027b25eff",
                "token": "0xc02aaa39b223fe8d0a0e5c4f27ead9083c756cc2"
            },
            {
                "amount": "4.091804177",
                "from": "0xdf9ab3c649005ebfdf682d2302ca1f673e0d37a2",
                "id": 6,
                "isERC1155": false,
                "isERC721": false,
                "isReverted": false,
                "order": 6,
                "to": "0x74de5d4fcbf63e00296fd95d33236b9794016631",
                "token": "0xc0d4ceb216b3ba9c3701b291766fdcba977cec3a"
            },
            {
                "amount": "0.67405",
                "from": "0xdef1c0ded9bec7f1a1670819833240f027b25eff",
                "id": 7,
                "isERC1155": false,
                "isERC721": false,
                "isReverted": false,
                "order": 7,
                "to": "0xdf9ab3c649005ebfdf682d2302ca1f673e0d37a2",
                "token": "0xc02aaa39b223fe8d0a0e5c4f27ead9083c756cc2"
            },
            {
                "amount": "0.00595",
                "from": "0x74de5d4fcbf63e00296fd95d33236b9794016631",
                "id": 8,
                "isERC1155": false,
                "isERC721": false,
                "isReverted": false,
                "order": 8,
                "to": "0xf326e4de8f66a0bdc0970b79e0924e33c79f1915",
                "token": "0xeeeeeeeeeeeeeeeeeeeeeeeeeeeeeeeeeeeeeeee"
            },
            {
                "amount": "4.091804177",
                "from": "0x74de5d4fcbf63e00296fd95d33236b9794016631",
                "id": 9,
                "isERC1155": false,
                "isERC721": false,
                "isReverted": false,
                "order": 9,
                "to": "0x59c62ffa192a83816c76c0b35ee498ebc89377e6",
                "token": "0xc0d4ceb216b3ba9c3701b291766fdcba977cec3a"
            }
        ],
        "token_infos": [
            {
                "address": "0xc02aaa39b223fe8d0a0e5c4f27ead9083c756cc2",
                "decimals": 18
            },
            {
                "address": "0xc0d4ceb216b3ba9c3701b291766fdcba977cec3a",
                "decimals": 9
            },
            {
                "address": "0xeeeeeeeeeeeeeeeeeeeeeeeeeeeeeeeeeeeeeeee",
                "decimals": 18
            }
        ]
    },
    "address_label": {
        "labels": [
            {
                "address": "0x0000000000000000000000000000000000000001",
                "label": "Precompiled"
            },
            {
                "address": "0xdef1c0ded9bec7f1a1670819833240f027b25eff",
                "label": "0x: Exchange Proxy"
            },
            {
                "address": "0x881d40237659c251811cec9c364ef91dc08d300c",
                "label": "Metamask: Swap Router"
            },
            {
                "address": "0xc02aaa39b223fe8d0a0e5c4f27ead9083c756cc2",
                "label": "Wrapped Ether (WETH)"
            },
            {
                "address": "0xdf9ab3c649005ebfdf682d2302ca1f673e0d37a2",
                "label": "Uniswap V3: BTRFLY"
            },
            {
                "address": "0xc0d4ceb216b3ba9c3701b291766fdcba977cec3a",
                "label": "BTRFLY (BTRFLY)"
            },
            {
                "address": "0x0000000000000000000000000000000000000004",
                "label": "Precompiled"
            },
            {
                "address": "0xeeeeeeeeeeeeeeeeeeeeeeeeeeeeeeeeeeeeeeee",
                "label": "Ether"
            },
            {
                "address": "0x74de5d4fcbf63e00296fd95d33236b9794016631",
                "label": "MetaMask: Swaps Spender"
            },
            {
                "address": "0x0000000000000000000000000000000000000000",
                "label": "Null Address"
            },
            {
                "address": "0x0000000000000000000000000000000000000002",
                "label": "Precompiled"
            },
            {
                "address": "0x0d53497746e70c8cc2e5e8d2ac5f0a33f93c9353",
                "label": "UniswapV3Feature"
            },
            {
                "address": "0xf326e4de8f66a0bdc0970b79e0924e33c79f1915",
                "label": "MetaMask: DS Proxy"
            },
            {
                "address": "0x34cfac646f301356faa8b21e94227e3583fe3f5f",
                "label": "Safe: Mastercopy 1.1.1"
            },
            {
                "address": "0x0000000000000000000000000000000000000003",
                "label": "Precompiled"
            }
        ]
    },
    "trace": {
        "accountLabels": null,
        "dataMap": {
            "-1": {
                "invocation": {
                    "address": "0x59c62ffa192a83816c76c0b35ee498ebc89377e6",
                    "callData": "",
                    "decodedMethod": null,
                    "errorInfo": "",
                    "fromAddress": "",
                    "gasUsed": 0,
                    "id": -1,
                    "methodDecoded": false,
                    "operation": "",
                    "output": "",
                    "revert": false,
                    "revertMessage": "",
                    "selector": "",
                    "status": false,
                    "value": ""
                },
                "nodeType": 0
            },
            "0": {
                "invocation": {
                    "address": "0x881d40237659c251811cec9c364ef91dc08d300c",
                    "callData": "0x00000000000000000000000000000000000000000000000000000000000000800000000000000000000000000000000000000000000000000000000000000000000000000000000000000000000000000000000000000000096fd865af44000000000000000000000000000000000000000000000000000000000000000000c0000000000000000000000000000000000000000000000000000000000000000c307846656544796e616d6963000000000000000000000000000000000000000000000000000000000000000000000000000000000000000000000000000002400000000000000000000000000000000000000000000000000000000000000000000000000000000000000000c0d4ceb216b3ba9c3701b291766fdcba977cec3a000000000000000000000000000000000000000000000000095ab4e75ada200000000000000000000000000000000000000000000000000000000000ebd6202600000000000000000000000000000000000000000000000000000000000001200000000000000000000000000000000000000000000000000015237e5469e000000000000000000000000000f326e4de8f66a0bdc0970b79e0924e33c79f1915000000000000000000000000000000000000000000000000000000000000000000000000000000000000000000000000000000000000000000000000000001083598d8ab000000000000000000000000000000000000000000000000000000000000006000000000000000000000000000000000000000000000000000000000ebd620260000000000000000000000000000000000000000000000000000000000000000000000000000000000000000000000000000000000000000000000000000002bc02aaa39b223fe8d0a0e5c4f27ead9083c756cc2002710c0d4ceb216b3ba9c3701b291766fdcba977cec3a000000000000000000000000000000000000000000869584cd00000000000000000000000011ededebf63bef0ea2d2d071bdf88f71543ec6fb0000000000000000000000000000000000000000000000b85ff79dbc61f2dace00000000000000000000000000000000000000000000000036",
                    "decodedMethod": {
                        "callParams": [
                            {
                                "name": "aggregatorId",
                                "type": "string",
                                "value": "0xFeeDynamic"
                            },
                            {
                                "name": "tokenFrom",
                                "type": "address",
                                "value": "0x0000000000000000000000000000000000000000"
                            },
                            {
                                "name": "amount",
                                "type": "uint256",
                                "value": "680,000,000,000,000,000"
                            },
                            {
                                "name": "data",
                                "type": "bytes",
                                "value": "0x0000000000000000000000000000000000000000000000000000000000000000000000000000000000000000c0d4ceb216b3ba9c3701b291766fdcba977cec3a000000000000000000000000000000000000000000000000095ab4e75ada200000000000000000000000000000000000000000000000000000000000ebd6202600000000000000000000000000000000000000000000000000000000000001200000000000000000000000000000000000000000000000000015237e5469e000000000000000000000000000f326e4de8f66a0bdc0970b79e0924e33c79f1915000000000000000000000000000000000000000000000000000000000000000000000000000000000000000000000000000000000000000000000000000001083598d8ab000000000000000000000000000000000000000000000000000000000000006000000000000000000000000000000000000000000000000000000000ebd620260000000000000000000000000000000000000000000000000000000000000000000000000000000000000000000000000000000000000000000000000000002bc02aaa39b223fe8d0a0e5c4f27ead9083c756cc2002710c0d4ceb216b3ba9c3701b291766fdcba977cec3a000000000000000000000000000000000000000000869584cd00000000000000000000000011ededebf63bef0ea2d2d071bdf88f71543ec6fb0000000000000000000000000000000000000000000000b85ff79dbc61f2dace000000000000000000000000000000000000000000000000"
                            }
                        ],
                        "constructorArguments": "",
                        "name": "swap",
                        "returnParams": [],
                        "signature": "swap(string,address,uint256,bytes)"
                    },
                    "errorInfo": "",
                    "fromAddress": "0x59c62ffa192a83816c76c0b35ee498ebc89377e6",
                    "gasUsed": 203460,
                    "id": 0,
                    "methodDecoded": true,
                    "operation": "CALL",
                    "output": "",
                    "revert": false,
                    "revertMessage": "",
                    "selector": "0x5f575529",
                    "status": true,
                    "value": "0.68"
                },
                "nodeType": 0
            },
            "1": {
                "invocation": {
                    "address": "0x74de5d4fcbf63e00296fd95d33236b9794016631",
                    "callData": "0x0000000000000000000000003d1d55c23dfc759c5ae48500ca88ddf477b3c9e50000000000000000000000000000000000000000000000000000000000000040000000000000000000000000000000000000000000000000000000000000026492f5f03700000000000000000000000059c62ffa192a83816c76c0b35ee498ebc89377e60000000000000000000000000000000000000000000000000000000000000000000000000000000000000000c0d4ceb216b3ba9c3701b291766fdcba977cec3a000000000000000000000000000000000000000000000000095ab4e75ada200000000000000000000000000000000000000000000000000000000000ebd6202600000000000000000000000000000000000000000000000000000000000001200000000000000000000000000000000000000000000000000015237e5469e000000000000000000000000000f326e4de8f66a0bdc0970b79e0924e33c79f1915000000000000000000000000000000000000000000000000000000000000000000000000000000000000000000000000000000000000000000000000000001083598d8ab000000000000000000000000000000000000000000000000000000000000006000000000000000000000000000000000000000000000000000000000ebd620260000000000000000000000000000000000000000000000000000000000000000000000000000000000000000000000000000000000000000000000000000002bc02aaa39b223fe8d0a0e5c4f27ead9083c756cc2002710c0d4ceb216b3ba9c3701b291766fdcba977cec3a000000000000000000000000000000000000000000869584cd00000000000000000000000011ededebf63bef0ea2d2d071bdf88f71543ec6fb0000000000000000000000000000000000000000000000b85ff79dbc61f2dace00000000000000000000000000000000000000000000000000000000000000000000000000000000000000000000000000000000",
                    "decodedMethod": {
                        "callParams": [
                            {
                                "name": "adapter",
                                "type": "address",
                                "value": "0x3d1d55c23dfc759c5ae48500ca88ddf477b3c9e5"
                            },
                            {
                                "name": "data",
                                "type": "bytes",
                                "value": "0x92f5f03700000000000000000000000059c62ffa192a83816c76c0b35ee498ebc89377e60000000000000000000000000000000000000000000000000000000000000000000000000000000000000000c0d4ceb216b3ba9c3701b291766fdcba977cec3a000000000000000000000000000000000000000000000000095ab4e75ada200000000000000000000000000000000000000000000000000000000000ebd6202600000000000000000000000000000000000000000000000000000000000001200000000000000000000000000000000000000000000000000015237e5469e000000000000000000000000000f326e4de8f66a0bdc0970b79e0924e33c79f1915000000000000000000000000000000000000000000000000000000000000000000000000000000000000000000000000000000000000000000000000000001083598d8ab000000000000000000000000000000000000000000000000000000000000006000000000000000000000000000000000000000000000000000000000ebd620260000000000000000000000000000000000000000000000000000000000000000000000000000000000000000000000000000000000000000000000000000002bc02aaa39b223fe8d0a0e5c4f27ead9083c756cc2002710c0d4ceb216b3ba9c3701b291766fdcba977cec3a000000000000000000000000000000000000000000869584cd00000000000000000000000011ededebf63bef0ea2d2d071bdf88f71543ec6fb0000000000000000000000000000000000000000000000b85ff79dbc61f2dace000000000000000000000000000000000000000000000000"
                            }
                        ],
                        "constructorArguments": "",
                        "name": "swap",
                        "returnParams": [],
                        "signature": "swap(address,bytes)"
                    },
                    "errorInfo": "",
                    "fromAddress": "0x881d40237659c251811cec9c364ef91dc08d300c",
                    "gasUsed": 176717,
                    "id": 1,
                    "methodDecoded": true,
                    "operation": "CALL",
                    "output": "",
                    "revert": false,
                    "revertMessage": "",
                    "selector": "0xe3547335",
                    "status": true,
                    "value": "0.68"
                },
                "nodeType": 0
            },
            "10": {
                "invocation": {
                    "address": "0xc02aaa39b223fe8d0a0e5c4f27ead9083c756cc2",
                    "callData": "0x000000000000000000000000df9ab3c649005ebfdf682d2302ca1f673e0d37a2",
                    "decodedMethod": {
                        "callParams": [
                            {
                                "name": "",
                                "type": "address",
                                "value": "0xdf9ab3c649005ebfdf682d2302ca1f673e0d37a2"
                            }
                        ],
                        "constructorArguments": "",
                        "name": "balanceOf",
                        "returnParams": [
                            {
                                "decimalAvailable": true,
                                "name": "",
                                "type": "uint256",
                                "value": "19,409,443,459,951,632,738"
                            }
                        ],
                        "signature": "balanceOf(address)"
                    },
                    "errorInfo": "",
                    "fromAddress": "0xdf9ab3c649005ebfdf682d2302ca1f673e0d37a2",
                    "gasUsed": 2534,
                    "id": 10,
                    "methodDecoded": true,
                    "operation": "STATICCALL",
                    "output": "0x0000000000000000000000000000000000000000000000010d5c31fdbe722162",
                    "revert": false,
                    "revertMessage": "",
                    "selector": "0x70a08231",
                    "status": true,
                    "value": "0"
                },
                "nodeType": 0
            },
            "11": {
                "invocation": {
                    "address": "0xdef1c0ded9bec7f1a1670819833240f027b25eff",
                    "callData": "0x000000000000000000000000000000000000000000000000095ab4e75ada2000ffffffffffffffffffffffffffffffffffffffffffffffffffffffff0c1c05ef00000000000000000000000000000000000000000000000000000000000000600000000000000000000000000000000000000000000000000000000000000080000000000000000000000000c02aaa39b223fe8d0a0e5c4f27ead9083c756cc2000000000000000000000000c0d4ceb216b3ba9c3701b291766fdcba977cec3a0000000000000000000000000000000000000000000000000000000000002710000000000000000000000000def1c0ded9bec7f1a1670819833240f027b25eff",
                    "decodedMethod": {
                        "callParams": [
                            {
                                "name": "amount0Delta",
                                "type": "int256",
                                "value": "674,050,000,000,000,000"
                            },
                            {
                                "name": "amount1Delta",
                                "type": "int256",
                                "value": "-4,091,804,177"
                            },
                            {
                                "name": "data",
                                "type": "bytes",
                                "value": "0x000000000000000000000000c02aaa39b223fe8d0a0e5c4f27ead9083c756cc2000000000000000000000000c0d4ceb216b3ba9c3701b291766fdcba977cec3a0000000000000000000000000000000000000000000000000000000000002710000000000000000000000000def1c0ded9bec7f1a1670819833240f027b25eff"
                            }
                        ],
                        "constructorArguments": "",
                        "name": "uniswapV3SwapCallback",
                        "returnParams": [],
                        "signature": "uniswapV3SwapCallback(int256,int256,bytes)"
                    },
                    "errorInfo": "",
                    "fromAddress": "0xdf9ab3c649005ebfdf682d2302ca1f673e0d37a2",
                    "gasUsed": 10708,
                    "id": 11,
                    "methodDecoded": true,
                    "operation": "CALL",
                    "output": "",
                    "revert": false,
                    "revertMessage": "",
                    "selector": "0xfa461e33",
                    "status": true,
                    "value": "0"
                },
                "nodeType": 0
            },
            "12": {
                "invocation": {
                    "address": "0x0d53497746e70c8cc2e5e8d2ac5f0a33f93c9353",
                    "callData": "0x000000000000000000000000000000000000000000000000095ab4e75ada2000ffffffffffffffffffffffffffffffffffffffffffffffffffffffff0c1c05ef00000000000000000000000000000000000000000000000000000000000000600000000000000000000000000000000000000000000000000000000000000080000000000000000000000000c02aaa39b223fe8d0a0e5c4f27ead9083c756cc2000000000000000000000000c0d4ceb216b3ba9c3701b291766fdcba977cec3a0000000000000000000000000000000000000000000000000000000000002710000000000000000000000000def1c0ded9bec7f1a1670819833240f027b25eff",
                    "decodedMethod": {
                        "callParams": [
                            {
                                "name": "amount0Delta",
                                "type": "int256",
                                "value": "674,050,000,000,000,000"
                            },
                            {
                                "name": "amount1Delta",
                                "type": "int256",
                                "value": "-4,091,804,177"
                            },
                            {
                                "name": "data",
                                "type": "bytes",
                                "value": "0x000000000000000000000000c02aaa39b223fe8d0a0e5c4f27ead9083c756cc2000000000000000000000000c0d4ceb216b3ba9c3701b291766fdcba977cec3a0000000000000000000000000000000000000000000000000000000000002710000000000000000000000000def1c0ded9bec7f1a1670819833240f027b25eff"
                            }
                        ],
                        "constructorArguments": "",
                        "name": "uniswapV3SwapCallback",
                        "returnParams": [],
                        "signature": "uniswapV3SwapCallback(int256,int256,bytes)"
                    },
                    "errorInfo": "",
                    "fromAddress": "0xdef1c0ded9bec7f1a1670819833240f027b25eff",
                    "gasUsed": 7536,
                    "id": 12,
                    "methodDecoded": true,
                    "operation": "DELEGATECALL",
                    "output": "",
                    "revert": false,
                    "revertMessage": "",
                    "selector": "0xfa461e33",
                    "status": true,
                    "value": "0"
                },
                "nodeType": 0
            },
            "13": {
                "invocation": {
                    "address": "0xc02aaa39b223fe8d0a0e5c4f27ead9083c756cc2",
                    "callData": "0x000000000000000000000000df9ab3c649005ebfdf682d2302ca1f673e0d37a2000000000000000000000000000000000000000000000000095ab4e75ada2000",
                    "decodedMethod": {
                        "callParams": [
                            {
                                "name": "dst",
                                "type": "address",
                                "value": "0xdf9ab3c649005ebfdf682d2302ca1f673e0d37a2"
                            },
                            {
                                "decimalAvailable": true,
                                "name": "wad",
                                "type": "uint256",
                                "value": "674,050,000,000,000,000"
                            }
                        ],
                        "constructorArguments": "",
                        "name": "transfer",
                        "returnParams": [
                            {
                                "name": "",
                                "type": "bool",
                                "value": true
                            }
                        ],
                        "signature": "transfer(address,uint256)"
                    },
                    "errorInfo": "",
                    "fromAddress": "0xdef1c0ded9bec7f1a1670819833240f027b25eff",
                    "gasUsed": 6062,
                    "id": 13,
                    "methodDecoded": true,
                    "operation": "CALL",
                    "output": "0x0000000000000000000000000000000000000000000000000000000000000001",
                    "revert": false,
                    "revertMessage": "",
                    "selector": "0xa9059cbb",
                    "status": true,
                    "value": "0"
                },
                "nodeType": 0
            },
            "14": {
                "event": {
                    "contract": "0xc02aaa39b223fe8d0a0e5c4f27ead9083c756cc2",
                    "decodedLog": {
                        "name": "Transfer",
                        "params": [
                            {
                                "name": "src",
                                "type": "address",
                                "value": "0xdef1c0ded9bec7f1a1670819833240f027b25eff"
                            },
                            {
                                "name": "dst",
                                "type": "address",
                                "value": "0xdf9ab3c649005ebfdf682d2302ca1f673e0d37a2"
                            },
                            {
                                "decimalAvailable": true,
                                "name": "wad",
                                "type": "uint256",
                                "value": "674,050,000,000,000,000"
                            }
                        ],
                        "signature": "Transfer(address,address,uint256)"
                    },
                    "id": 14,
                    "logData": "0x000000000000000000000000000000000000000000000000095ab4e75ada2000",
                    "logDecoded": true,
                    "operation": "EVENT",
                    "revert": false,
                    "status": true,
                    "topics": [
                        "0xddf252ad1be2c89b69c2b068fc378daa952ba7f163c4a11628f55a4df523b3ef",
                        "0x000000000000000000000000def1c0ded9bec7f1a1670819833240f027b25eff",
                        "0x000000000000000000000000df9ab3c649005ebfdf682d2302ca1f673e0d37a2"
                    ]
                },
                "nodeType": 1
            },
            "15": {
                "invocation": {
                    "address": "0xc02aaa39b223fe8d0a0e5c4f27ead9083c756cc2",
                    "callData": "0x000000000000000000000000df9ab3c649005ebfdf682d2302ca1f673e0d37a2",
                    "decodedMethod": {
                        "callParams": [
                            {
                                "name": "",
                                "type": "address",
                                "value": "0xdf9ab3c649005ebfdf682d2302ca1f673e0d37a2"
                            }
                        ],
                        "constructorArguments": "",
                        "name": "balanceOf",
                        "returnParams": [
                            {
                                "decimalAvailable": true,
                                "name": "",
                                "type": "uint256",
                                "value": "20,083,493,459,951,632,738"
                            }
                        ],
                        "signature": "balanceOf(address)"
                    },
                    "errorInfo": "",
                    "fromAddress": "0xdf9ab3c649005ebfdf682d2302ca1f673e0d37a2",
                    "gasUsed": 534,
                    "id": 15,
                    "methodDecoded": true,
                    "operation": "STATICCALL",
                    "output": "0x00000000000000000000000000000000000000000000000116b6e6e5194c4162",
                    "revert": false,
                    "revertMessage": "",
                    "selector": "0x70a08231",
                    "status": true,
                    "value": "0"
                },
                "nodeType": 0
            },
            "16": {
                "event": {
                    "contract": "0xdf9ab3c649005ebfdf682d2302ca1f673e0d37a2",
                    "decodedLog": {
                        "name": "Swap",
                        "params": [
                            {
                                "name": "sender",
                                "type": "address",
                                "value": "0xdef1c0ded9bec7f1a1670819833240f027b25eff"
                            },
                            {
                                "name": "recipient",
                                "type": "address",
                                "value": "0x74de5d4fcbf63e00296fd95d33236b9794016631"
                            },
                            {
                                "name": "amount0",
                                "type": "int256",
                                "value": "674,050,000,000,000,000"
                            },
                            {
                                "name": "amount1",
                                "type": "int256",
                                "value": "-4,091,804,177"
                            },
                            {
                                "name": "sqrtPriceX96",
                                "type": "uint160",
                                "value": "6,188,346,335,317,331,680,976,561"
                            },
                            {
                                "name": "liquidity",
                                "type": "uint128",
                                "value": "10,327,144,519,422,015"
                            },
                            {
                                "name": "tick",
                                "type": "int24",
                                "value": "-189,158"
                            }
                        ],
                        "signature": "Swap(address,address,int256,int256,uint160,uint128,int24)"
                    },
                    "id": 16,
                    "logData": "0x000000000000000000000000000000000000000000000000095ab4e75ada2000ffffffffffffffffffffffffffffffffffffffffffffffffffffffff0c1c05ef000000000000000000000000000000000000000000051e6eed52a307aa885eb10000000000000000000000000000000000000000000000000024b07bb49fd03ffffffffffffffffffffffffffffffffffffffffffffffffffffffffffffd1d1a",
                    "logDecoded": true,
                    "operation": "EVENT",
                    "revert": false,
                    "status": true,
                    "topics": [
                        "0xc42079f94a6350d7e6235f29174924f928cc2ac818eb64fed8004e115fbcca67",
                        "0x000000000000000000000000def1c0ded9bec7f1a1670819833240f027b25eff",
                        "0x00000000000000000000000074de5d4fcbf63e00296fd95d33236b9794016631"
                    ]
                },
                "nodeType": 1
            },
            "17": {
                "invocation": {
                    "address": "0xf326e4de8f66a0bdc0970b79e0924e33c79f1915",
                    "callData": "0x",
                    "decodedMethod": null,
                    "errorInfo": "",
                    "fromAddress": "0x74de5d4fcbf63e00296fd95d33236b9794016631",
                    "gasUsed": 4918,
                    "id": 17,
                    "methodDecoded": false,
                    "operation": "CALL",
                    "output": "",
                    "revert": false,
                    "revertMessage": "",
                    "selector": "fallback",
                    "status": true,
                    "value": "0.00595"
                },
                "nodeType": 0
            },
            "18": {
                "invocation": {
                    "address": "0x34cfac646f301356faa8b21e94227e3583fe3f5f",
                    "callData": "0x",
                    "decodedMethod": null,
                    "errorInfo": "",
                    "fromAddress": "0xf326e4de8f66a0bdc0970b79e0924e33c79f1915",
                    "gasUsed": 93,
                    "id": 18,
                    "methodDecoded": false,
                    "operation": "DELEGATECALL",
                    "output": "",
                    "revert": false,
                    "revertMessage": "",
                    "selector": "fallback",
                    "status": true,
                    "value": "0.00595"
                },
                "nodeType": 0
            },
            "19": {
                "invocation": {
                    "address": "0xc0d4ceb216b3ba9c3701b291766fdcba977cec3a",
                    "callData": "0x00000000000000000000000074de5d4fcbf63e00296fd95d33236b9794016631",
                    "decodedMethod": {
                        "callParams": [
                            {
                                "name": "account",
                                "type": "address",
                                "value": "0x74de5d4fcbf63e00296fd95d33236b9794016631"
                            }
                        ],
                        "constructorArguments": "",
                        "name": "balanceOf",
                        "returnParams": [
                            {
                                "decimalAvailable": true,
                                "name": "",
                                "type": "uint256",
                                "value": "4,091,804,177"
                            }
                        ],
                        "signature": "balanceOf(address)"
                    },
                    "errorInfo": "",
                    "fromAddress": "0x74de5d4fcbf63e00296fd95d33236b9794016631",
                    "gasUsed": 491,
                    "id": 19,
                    "methodDecoded": true,
                    "operation": "STATICCALL",
                    "output": "0x00000000000000000000000000000000000000000000000000000000f3e3fa11",
                    "revert": false,
                    "revertMessage": "",
                    "selector": "0x70a08231",
                    "status": true,
                    "value": "0"
                },
                "nodeType": 0
            },
            "2": {
                "invocation": {
                    "address": "0x3d1d55c23dfc759c5ae48500ca88ddf477b3c9e5",
                    "callData": "0x00000000000000000000000059c62ffa192a83816c76c0b35ee498ebc89377e60000000000000000000000000000000000000000000000000000000000000000000000000000000000000000c0d4ceb216b3ba9c3701b291766fdcba977cec3a000000000000000000000000000000000000000000000000095ab4e75ada200000000000000000000000000000000000000000000000000000000000ebd6202600000000000000000000000000000000000000000000000000000000000001200000000000000000000000000000000000000000000000000015237e5469e000000000000000000000000000f326e4de8f66a0bdc0970b79e0924e33c79f1915000000000000000000000000000000000000000000000000000000000000000000000000000000000000000000000000000000000000000000000000000001083598d8ab000000000000000000000000000000000000000000000000000000000000006000000000000000000000000000000000000000000000000000000000ebd620260000000000000000000000000000000000000000000000000000000000000000000000000000000000000000000000000000000000000000000000000000002bc02aaa39b223fe8d0a0e5c4f27ead9083c756cc2002710c0d4ceb216b3ba9c3701b291766fdcba977cec3a000000000000000000000000000000000000000000869584cd00000000000000000000000011ededebf63bef0ea2d2d071bdf88f71543ec6fb0000000000000000000000000000000000000000000000b85ff79dbc61f2dace000000000000000000000000000000000000000000000000",
                    "decodedMethod": null,
                    "errorInfo": "",
                    "fromAddress": "0x74de5d4fcbf63e00296fd95d33236b9794016631",
                    "gasUsed": 171416,
                    "id": 2,
                    "methodDecoded": false,
                    "operation": "DELEGATECALL",
                    "output": "",
                    "revert": false,
                    "revertMessage": "",
                    "selector": "0x92f5f037",
                    "status": true,
                    "value": "0.68"
                },
                "nodeType": 0
            },
            "20": {
                "invocation": {
                    "address": "0xc0d4ceb216b3ba9c3701b291766fdcba977cec3a",
                    "callData": "0x00000000000000000000000059c62ffa192a83816c76c0b35ee498ebc89377e600000000000000000000000000000000000000000000000000000000f3e3fa11",
                    "decodedMethod": {
                        "callParams": [
                            {
                                "name": "recipient",
                                "type": "address",
                                "value": "0x59c62ffa192a83816c76c0b35ee498ebc89377e6"
                            },
                            {
                                "decimalAvailable": true,
                                "name": "amount",
                                "type": "uint256",
                                "value": "4,091,804,177"
                            }
                        ],
                        "constructorArguments": "",
                        "name": "transfer",
                        "returnParams": [
                            {
                                "name": "",
                                "type": "bool",
                                "value": true
                            }
                        ],
                        "signature": "transfer(address,uint256)"
                    },
                    "errorInfo": "",
                    "fromAddress": "0x74de5d4fcbf63e00296fd95d33236b9794016631",
                    "gasUsed": 25404,
                    "id": 20,
                    "methodDecoded": true,
                    "operation": "CALL",
                    "output": "0x0000000000000000000000000000000000000000000000000000000000000001",
                    "revert": false,
                    "revertMessage": "",
                    "selector": "0xa9059cbb",
                    "status": true,
                    "value": "0"
                },
                "nodeType": 0
            },
            "21": {
                "event": {
                    "contract": "0xc0d4ceb216b3ba9c3701b291766fdcba977cec3a",
                    "decodedLog": {
                        "name": "Transfer",
                        "params": [
                            {
                                "name": "from",
                                "type": "address",
                                "value": "0x74de5d4fcbf63e00296fd95d33236b9794016631"
                            },
                            {
                                "name": "to",
                                "type": "address",
                                "value": "0x59c62ffa192a83816c76c0b35ee498ebc89377e6"
                            },
                            {
                                "decimalAvailable": true,
                                "name": "value",
                                "type": "uint256",
                                "value": "4,091,804,177"
                            }
                        ],
                        "signature": "Transfer(address,address,uint256)"
                    },
                    "id": 21,
                    "logData": "0x00000000000000000000000000000000000000000000000000000000f3e3fa11",
                    "logDecoded": true,
                    "operation": "EVENT",
                    "revert": false,
                    "status": true,
                    "topics": [
                        "0xddf252ad1be2c89b69c2b068fc378daa952ba7f163c4a11628f55a4df523b3ef",
                        "0x00000000000000000000000074de5d4fcbf63e00296fd95d33236b9794016631",
                        "0x00000000000000000000000059c62ffa192a83816c76c0b35ee498ebc89377e6"
                    ]
                },
                "nodeType": 1
            },
            "22": {
                "event": {
                    "contract": "0x881d40237659c251811cec9c364ef91dc08d300c",
                    "decodedLog": {
                        "name": "Swap",
                        "params": [
                            {
                                "name": "aggregatorId",
                                "type": "string",
                                "value": "0xa8dc30b66c6d4a8aac3d15925bfca09e42cac4a00c50f9949154b045088e2ac2"
                            },
                            {
                                "name": "sender",
                                "type": "address",
                                "value": "0x59c62ffa192a83816c76c0b35ee498ebc89377e6"
                            }
                        ],
                        "signature": "Swap(string,address)"
                    },
                    "id": 22,
                    "logData": "0x",
                    "logDecoded": true,
                    "operation": "EVENT",
                    "revert": false,
                    "status": true,
                    "topics": [
                        "0xbeee1e6e7fe307ddcf84b0a16137a4430ad5e2480fc4f4a8e250ab56ccd7630d",
                        "0xa8dc30b66c6d4a8aac3d15925bfca09e42cac4a00c50f9949154b045088e2ac2",
                        "0x00000000000000000000000059c62ffa192a83816c76c0b35ee498ebc89377e6"
                    ]
                },
                "nodeType": 1
            },
            "3": {
                "invocation": {
                    "address": "0xdef1c0ded9bec7f1a1670819833240f027b25eff",
                    "callData": "0x000000000000000000000000000000000000000000000000000000000000006000000000000000000000000000000000000000000000000000000000ebd620260000000000000000000000000000000000000000000000000000000000000000000000000000000000000000000000000000000000000000000000000000002bc02aaa39b223fe8d0a0e5c4f27ead9083c756cc2002710c0d4ceb216b3ba9c3701b291766fdcba977cec3a000000000000000000000000000000000000000000869584cd00000000000000000000000011ededebf63bef0ea2d2d071bdf88f71543ec6fb0000000000000000000000000000000000000000000000b85ff79dbc61f2dace",
                    "decodedMethod": {
                        "callParams": [
                            {
                                "name": "encodedPath",
                                "type": "bytes",
                                "value": "0xc02aaa39b223fe8d0a0e5c4f27ead9083c756cc2002710c0d4ceb216b3ba9c3701b291766fdcba977cec3a"
                            },
                            {
                                "name": "minBuyAmount",
                                "type": "uint256",
                                "value": "3,956,678,694"
                            },
                            {
                                "name": "recipient",
                                "type": "address",
                                "value": "0x0000000000000000000000000000000000000000"
                            }
                        ],
                        "constructorArguments": "",
                        "name": "sellEthForTokenToUniswapV3",
                        "returnParams": [
                            {
                                "name": "buyAmount",
                                "type": "uint256",
                                "value": "4,091,804,177"
                            }
                        ],
                        "signature": "sellEthForTokenToUniswapV3(bytes,uint256,address)"
                    },
                    "errorInfo": "",
                    "fromAddress": "0x74de5d4fcbf63e00296fd95d33236b9794016631",
                    "gasUsed": 117267,
                    "id": 3,
                    "methodDecoded": true,
                    "operation": "CALL",
                    "output": "0x00000000000000000000000000000000000000000000000000000000f3e3fa11",
                    "revert": false,
                    "revertMessage": "",
                    "selector": "0x3598d8ab",
                    "status": true,
                    "value": "0.67405"
                },
                "nodeType": 0
            },
            "4": {
                "invocation": {
                    "address": "0x0d53497746e70c8cc2e5e8d2ac5f0a33f93c9353",
                    "callData": "0x000000000000000000000000000000000000000000000000000000000000006000000000000000000000000000000000000000000000000000000000ebd620260000000000000000000000000000000000000000000000000000000000000000000000000000000000000000000000000000000000000000000000000000002bc02aaa39b223fe8d0a0e5c4f27ead9083c756cc2002710c0d4ceb216b3ba9c3701b291766fdcba977cec3a000000000000000000000000000000000000000000869584cd00000000000000000000000011ededebf63bef0ea2d2d071bdf88f71543ec6fb0000000000000000000000000000000000000000000000b85ff79dbc61f2dace",
                    "decodedMethod": {
                        "callParams": [
                            {
                                "name": "encodedPath",
                                "type": "bytes",
                                "value": "0xc02aaa39b223fe8d0a0e5c4f27ead9083c756cc2002710c0d4ceb216b3ba9c3701b291766fdcba977cec3a"
                            },
                            {
                                "name": "minBuyAmount",
                                "type": "uint256",
                                "value": "3,956,678,694"
                            },
                            {
                                "name": "recipient",
                                "type": "address",
                                "value": "0x0000000000000000000000000000000000000000"
                            }
                        ],
                        "constructorArguments": "",
                        "name": "sellEthForTokenToUniswapV3",
                        "returnParams": [
                            {
                                "name": "buyAmount",
                                "type": "uint256",
                                "value": "4,091,804,177"
                            }
                        ],
                        "signature": "sellEthForTokenToUniswapV3(bytes,uint256,address)"
                    },
                    "errorInfo": "",
                    "fromAddress": "0xdef1c0ded9bec7f1a1670819833240f027b25eff",
                    "gasUsed": 111525,
                    "id": 4,
                    "methodDecoded": true,
                    "operation": "DELEGATECALL",
                    "output": "0x00000000000000000000000000000000000000000000000000000000f3e3fa11",
                    "revert": false,
                    "revertMessage": "",
                    "selector": "0x3598d8ab",
                    "status": true,
                    "value": "0.67405"
                },
                "nodeType": 0
            },
            "5": {
                "invocation": {
                    "address": "0xc02aaa39b223fe8d0a0e5c4f27ead9083c756cc2",
                    "callData": "0x",
                    "decodedMethod": {
                        "callParams": [],
                        "constructorArguments": "",
                        "name": "deposit",
                        "returnParams": [],
                        "signature": "deposit()"
                    },
                    "errorInfo": "",
                    "fromAddress": "0xdef1c0ded9bec7f1a1670819833240f027b25eff",
                    "gasUsed": 6874,
                    "id": 5,
                    "methodDecoded": true,
                    "operation": "CALL",
                    "output": "",
                    "revert": false,
                    "revertMessage": "",
                    "selector": "0xd0e30db0",
                    "status": true,
                    "value": "0.67405"
                },
                "nodeType": 0
            },
            "6": {
                "event": {
                    "contract": "0xc02aaa39b223fe8d0a0e5c4f27ead9083c756cc2",
                    "decodedLog": {
                        "name": "Deposit",
                        "params": [
                            {
                                "name": "dst",
                                "type": "address",
                                "value": "0xdef1c0ded9bec7f1a1670819833240f027b25eff"
                            },
                            {
                                "name": "wad",
                                "type": "uint256",
                                "value": "674,050,000,000,000,000"
                            }
                        ],
                        "signature": "Deposit(address,uint256)"
                    },
                    "id": 6,
                    "logData": "0x000000000000000000000000000000000000000000000000095ab4e75ada2000",
                    "logDecoded": true,
                    "operation": "EVENT",
                    "revert": false,
                    "status": true,
                    "topics": [
                        "0xe1fffcc4923d04b559f4d29a8bfc6cda04eb5b0d3c460751c2402c5c5cc9109c",
                        "0x000000000000000000000000def1c0ded9bec7f1a1670819833240f027b25eff"
                    ]
                },
                "nodeType": 1
            },
            "7": {
                "invocation": {
                    "address": "0xdf9ab3c649005ebfdf682d2302ca1f673e0d37a2",
                    "callData": "0x00000000000000000000000074de5d4fcbf63e00296fd95d33236b97940166310000000000000000000000000000000000000000000000000000000000000001000000000000000000000000000000000000000000000000095ab4e75ada200000000000000000000000000000000000000000000000000000000001000276a400000000000000000000000000000000000000000000000000000000000000a00000000000000000000000000000000000000000000000000000000000000080000000000000000000000000c02aaa39b223fe8d0a0e5c4f27ead9083c756cc2000000000000000000000000c0d4ceb216b3ba9c3701b291766fdcba977cec3a0000000000000000000000000000000000000000000000000000000000002710000000000000000000000000def1c0ded9bec7f1a1670819833240f027b25eff",
                    "decodedMethod": {
                        "callParams": [
                            {
                                "name": "recipient",
                                "type": "address",
                                "value": "0x74de5d4fcbf63e00296fd95d33236b9794016631"
                            },
                            {
                                "name": "zeroForOne",
                                "type": "bool",
                                "value": true
                            },
                            {
                                "name": "amountSpecified",
                                "type": "int256",
                                "value": "674,050,000,000,000,000"
                            },
                            {
                                "name": "sqrtPriceLimitX96",
                                "type": "uint160",
                                "value": "4,295,128,740"
                            },
                            {
                                "name": "data",
                                "type": "bytes",
                                "value": "0x000000000000000000000000c02aaa39b223fe8d0a0e5c4f27ead9083c756cc2000000000000000000000000c0d4ceb216b3ba9c3701b291766fdcba977cec3a0000000000000000000000000000000000000000000000000000000000002710000000000000000000000000def1c0ded9bec7f1a1670819833240f027b25eff"
                            }
                        ],
                        "constructorArguments": "",
                        "name": "swap",
                        "returnParams": [
                            {
                                "name": "amount0",
                                "type": "int256",
                                "value": "674,050,000,000,000,000"
                            },
                            {
                                "name": "amount1",
                                "type": "int256",
                                "value": "-4,091,804,177"
                            }
                        ],
                        "signature": "swap(address,bool,int256,uint160,bytes)"
                    },
                    "errorInfo": "",
                    "fromAddress": "0xdef1c0ded9bec7f1a1670819833240f027b25eff",
                    "gasUsed": 89496,
                    "id": 7,
                    "methodDecoded": true,
                    "operation": "CALL",
                    "output": "0x000000000000000000000000000000000000000000000000095ab4e75ada2000ffffffffffffffffffffffffffffffffffffffffffffffffffffffff0c1c05ef",
                    "revert": false,
                    "revertMessage": "",
                    "selector": "0x128acb08",
                    "status": true,
                    "value": "0"
                },
                "nodeType": 0
            },
            "8": {
                "invocation": {
                    "address": "0xc0d4ceb216b3ba9c3701b291766fdcba977cec3a",
                    "callData": "0x00000000000000000000000074de5d4fcbf63e00296fd95d33236b979401663100000000000000000000000000000000000000000000000000000000f3e3fa11",
                    "decodedMethod": {
                        "callParams": [
                            {
                                "name": "recipient",
                                "type": "address",
                                "value": "0x74de5d4fcbf63e00296fd95d33236b9794016631"
                            },
                            {
                                "decimalAvailable": true,
                                "name": "amount",
                                "type": "uint256",
                                "value": "4,091,804,177"
                            }
                        ],
                        "constructorArguments": "",
                        "name": "transfer",
                        "returnParams": [
                            {
                                "name": "",
                                "type": "bool",
                                "value": true
                            }
                        ],
                        "signature": "transfer(address,uint256)"
                    },
                    "errorInfo": "",
                    "fromAddress": "0xdf9ab3c649005ebfdf682d2302ca1f673e0d37a2",
                    "gasUsed": 32204,
                    "id": 8,
                    "methodDecoded": true,
                    "operation": "CALL",
                    "output": "0x0000000000000000000000000000000000000000000000000000000000000001",
                    "revert": false,
                    "revertMessage": "",
                    "selector": "0xa9059cbb",
                    "status": true,
                    "value": "0"
                },
                "nodeType": 0
            },
            "9": {
                "event": {
                    "contract": "0xc0d4ceb216b3ba9c3701b291766fdcba977cec3a",
                    "decodedLog": {
                        "name": "Transfer",
                        "params": [
                            {
                                "name": "from",
                                "type": "address",
                                "value": "0xdf9ab3c649005ebfdf682d2302ca1f673e0d37a2"
                            },
                            {
                                "name": "to",
                                "type": "address",
                                "value": "0x74de5d4fcbf63e00296fd95d33236b9794016631"
                            },
                            {
                                "decimalAvailable": true,
                                "name": "value",
                                "type": "uint256",
                                "value": "4,091,804,177"
                            }
                        ],
                        "signature": "Transfer(address,address,uint256)"
                    },
                    "id": 9,
                    "logData": "0x00000000000000000000000000000000000000000000000000000000f3e3fa11",
                    "logDecoded": true,
                    "operation": "EVENT",
                    "revert": false,
                    "status": true,
                    "topics": [
                        "0xddf252ad1be2c89b69c2b068fc378daa952ba7f163c4a11628f55a4df523b3ef",
                        "0x000000000000000000000000df9ab3c649005ebfdf682d2302ca1f673e0d37a2",
                        "0x00000000000000000000000074de5d4fcbf63e00296fd95d33236b9794016631"
                    ]
                },
                "nodeType": 1
            }
        },
        "gasFlame": [
            {
                "children": [
                    {
                        "children": [
                            {
                                "children": [],
                                "depth": 0,
                                "name": "Initial Gas",
                                "value": 26308
                            },
                            {
                                "children": [
                                    {
                                        "children": [
                                            {
                                                "children": [
                                                    {
                                                        "children": [
                                                            {
                                                                "children": [
                                                                    {
                                                                        "children": [],
                                                                        "depth": 5,
                                                                        "name": "deposit",
                                                                        "value": 6874
                                                                    },
                                                                    {
                                                                        "children": [
                                                                            {
                                                                                "children": [],
                                                                                "depth": 6,
                                                                                "name": "transfer",
                                                                                "value": 32204
                                                                            },
                                                                            {
                                                                                "children": [],
                                                                                "depth": 6,
                                                                                "name": "balanceOf",
                                                                                "value": 2534
                                                                            },
                                                                            {
                                                                                "children": [
                                                                                    {
                                                                                        "children": [
                                                                                            {
                                                                                                "children": [],
                                                                                                "depth": 8,
                                                                                                "name": "transfer",
                                                                                                "value": 6062
                                                                                            }
                                                                                        ],
                                                                                        "depth": 7,
                                                                                        "name": "uniswapV3SwapCallback",
                                                                                        "value": 7536
                                                                                    }
                                                                                ],
                                                                                "depth": 6,
                                                                                "name": "uniswapV3SwapCallback",
                                                                                "value": 10708
                                                                            },
                                                                            {
                                                                                "children": [],
                                                                                "depth": 6,
                                                                                "name": "balanceOf",
                                                                                "value": 534
                                                                            }
                                                                        ],
                                                                        "depth": 5,
                                                                        "name": "swap",
                                                                        "value": 89496
                                                                    }
                                                                ],
                                                                "depth": 4,
                                                                "name": "sellEthForTokenToUniswapV3",
                                                                "value": 111525
                                                            }
                                                        ],
                                                        "depth": 3,
                                                        "name": "sellEthForTokenToUniswapV3",
                                                        "value": 117267
                                                    },
                                                    {
                                                        "children": [
                                                            {
                                                                "children": [],
                                                                "depth": 4,
                                                                "name": "fallback",
                                                                "value": 93
                                                            }
                                                        ],
                                                        "depth": 3,
                                                        "name": "fallback",
                                                        "value": 4918
                                                    },
                                                    {
                                                        "children": [],
                                                        "depth": 3,
                                                        "name": "balanceOf",
                                                        "value": 491
                                                    },
                                                    {
                                                        "children": [],
                                                        "depth": 3,
                                                        "name": "transfer",
                                                        "value": 25404
                                                    }
                                                ],
                                                "depth": 2,
                                                "name": "0x92f5f037",
                                                "value": 171416
                                            }
                                        ],
                                        "depth": 1,
                                        "name": "swap",
                                        "value": 176717
                                    }
                                ],
                                "depth": 0,
                                "name": "Executed Gas",
                                "value": 202652
                            }
                        ],
                        "depth": -1,
                        "name": "Actual Gas Used",
                        "value": 203460
                    },
                    {
                        "children": [],
                        "depth": -1,
                        "name": "Refunded Gas",
                        "value": 25500
                    }
                ],
                "depth": -2,
                "name": "Total Gas",
                "value": 228960
            }
        ],
        "isConfirmed": true,
        "mainTrace": [
            {
                "children": [
                    {
                        "children": [
                            {
                                "children": [
                                    {
                                        "children": [
                                            {
                                                "children": [
                                                    {
                                                        "children": [
                                                            {
                                                                "children": [
                                                                    {
                                                                        "children": [],
                                                                        "depth": 6,
                                                                        "id": 6,
                                                                        "order": 6
                                                                    }
                                                                ],
                                                                "depth": 5,
                                                                "id": 5,
                                                                "order": 5
                                                            },
                                                            {
                                                                "children": [
                                                                    {
                                                                        "children": [
                                                                            {
                                                                                "children": [],
                                                                                "depth": 7,
                                                                                "id": 9,
                                                                                "order": 9
                                                                            }
                                                                        ],
                                                                        "depth": 6,
                                                                        "id": 8,
                                                                        "order": 8
                                                                    },
                                                                    {
                                                                        "children": [],
                                                                        "depth": 6,
                                                                        "id": 10,
                                                                        "order": 10
                                                                    },
                                                                    {
                                                                        "children": [
                                                                            {
                                                                                "children": [
                                                                                    {
                                                                                        "children": [
                                                                                            {
                                                                                                "children": [],
                                                                                                "depth": 9,
                                                                                                "id": 14,
                                                                                                "order": 14
                                                                                            }
                                                                                        ],
                                                                                        "depth": 8,
                                                                                        "id": 13,
                                                                                        "order": 13
                                                                                    }
                                                                                ],
                                                                                "depth": 7,
                                                                                "id": 12,
                                                                                "order": 12
                                                                            }
                                                                        ],
                                                                        "depth": 6,
                                                                        "id": 11,
                                                                        "order": 11
                                                                    },
                                                                    {
                                                                        "children": [],
                                                                        "depth": 6,
                                                                        "id": 15,
                                                                        "order": 15
                                                                    },
                                                                    {
                                                                        "children": [],
                                                                        "depth": 6,
                                                                        "id": 16,
                                                                        "order": 16
                                                                    }
                                                                ],
                                                                "depth": 5,
                                                                "id": 7,
                                                                "order": 7
                                                            }
                                                        ],
                                                        "depth": 4,
                                                        "id": 4,
                                                        "order": 4
                                                    }
                                                ],
                                                "depth": 3,
                                                "id": 3,
                                                "order": 3
                                            },
                                            {
                                                "children": [
                                                    {
                                                        "children": [],
                                                        "depth": 4,
                                                        "id": 18,
                                                        "order": 18
                                                    }
                                                ],
                                                "depth": 3,
                                                "id": 17,
                                                "order": 17
                                            },
                                            {
                                                "children": [],
                                                "depth": 3,
                                                "id": 19,
                                                "order": 19
                                            },
                                            {
                                                "children": [
                                                    {
                                                        "children": [],
                                                        "depth": 4,
                                                        "id": 21,
                                                        "order": 21
                                                    }
                                                ],
                                                "depth": 3,
                                                "id": 20,
                                                "order": 20
                                            }
                                        ],
                                        "depth": 2,
                                        "id": 2,
                                        "order": 2
                                    }
                                ],
                                "depth": 1,
                                "id": 1,
                                "order": 1
                            },
                            {
                                "children": [],
                                "depth": 1,
                                "id": 22,
                                "order": 22
                            }
                        ],
                        "depth": 0,
                        "id": 0,
                        "order": 0
                    }
                ],
                "depth": -1,
                "id": -1,
                "order": -1
            }
        ],
        "mainTraceNodeCount": 23,
        "parentIdMap": {
            "0": -1,
            "1": 0,
            "10": 7,
            "11": 7,
            "12": 11,
            "13": 12,
            "14": 13,
            "15": 7,
            "16": 7,
            "17": 2,
            "18": 17,
            "19": 2,
            "2": 1,
            "20": 2,
            "21": 20,
            "22": 0,
            "3": 2,
            "4": 3,
            "5": 4,
            "6": 5,
            "7": 4,
            "8": 7,
            "9": 8
        },
        "tidyTrace": [
            {
                "children": [
                    {
                        "children": [
                            {
                                "children": [
                                    {
                                        "children": [
                                            {
                                                "children": [
                                                    {
                                                        "children": [
                                                            {
                                                                "children": [
                                                                    {
                                                                        "children": [],
                                                                        "depth": 6,
                                                                        "id": 6,
                                                                        "order": 6
                                                                    }
                                                                ],
                                                                "depth": 5,
                                                                "id": 5,
                                                                "order": 5
                                                            },
                                                            {
                                                                "children": [
                                                                    {
                                                                        "children": [
                                                                            {
                                                                                "children": [],
                                                                                "depth": 7,
                                                                                "id": 9,
                                                                                "order": 9
                                                                            }
                                                                        ],
                                                                        "depth": 6,
                                                                        "id": 8,
                                                                        "order": 8
                                                                    },
                                                                    {
                                                                        "children": [
                                                                            {
                                                                                "children": [
                                                                                    {
                                                                                        "children": [
                                                                                            {
                                                                                                "children": [],
                                                                                                "depth": 9,
                                                                                                "id": 14,
                                                                                                "order": 14
                                                                                            }
                                                                                        ],
                                                                                        "depth": 8,
                                                                                        "id": 13,
                                                                                        "order": 13
                                                                                    }
                                                                                ],
                                                                                "depth": 7,
                                                                                "id": 12,
                                                                                "order": 12
                                                                            }
                                                                        ],
                                                                        "depth": 6,
                                                                        "id": 11,
                                                                        "order": 11
                                                                    },
                                                                    {
                                                                        "children": [],
                                                                        "depth": 6,
                                                                        "id": 16,
                                                                        "order": 16
                                                                    }
                                                                ],
                                                                "depth": 5,
                                                                "id": 7,
                                                                "order": 7
                                                            }
                                                        ],
                                                        "depth": 4,
                                                        "id": 4,
                                                        "order": 4
                                                    }
                                                ],
                                                "depth": 3,
                                                "id": 3,
                                                "order": 3
                                            },
                                            {
                                                "children": [
                                                    {
                                                        "children": [],
                                                        "depth": 4,
                                                        "id": 18,
                                                        "order": 18
                                                    }
                                                ],
                                                "depth": 3,
                                                "id": 17,
                                                "order": 17
                                            },
                                            {
                                                "children": [
                                                    {
                                                        "children": [],
                                                        "depth": 4,
                                                        "id": 21,
                                                        "order": 21
                                                    }
                                                ],
                                                "depth": 3,
                                                "id": 20,
                                                "order": 20
                                            }
                                        ],
                                        "depth": 2,
                                        "id": 2,
                                        "order": 2
                                    }
                                ],
                                "depth": 1,
                                "id": 1,
                                "order": 1
                            },
                            {
                                "children": [],
                                "depth": 1,
                                "id": 22,
                                "order": 22
                            }
                        ],
                        "depth": 0,
                        "id": 0,
                        "order": 0
                    }
                ],
                "depth": -1,
                "id": -1,
                "order": -1
            }
        ],
        "tidyTraceNodeCount": 20
    },
    "state_change": {
        "stateChanges": [
            {
                "address": "0xc02aaa39b223fe8d0a0e5c4f27ead9083c756cc2",
                "erc": "ERC-20",
                "slots": [
                    {
                        "current": "0x00000000000000000000000000000000000000000000000116b6e6e5194c4162",
                        "key": "0x8b61248959ab452662e293659374ef4dc10e9ba372dea64919283b3d23a15ddb",
                        "prev": "0x0000000000000000000000000000000000000000000000010d5c31fdbe722162"
                    }
                ],
                "storageVariables": [
                    {
                        "name": "balanceOf",
                        "type": "mapping(address => uint256)",
                        "value": {
                            "pairs": [
                                {
                                    "key": "0xdf9ab3c649005ebfdf682d2302ca1f673e0d37a2",
                                    "value": {
                                        "current": "20083493459951632738",
                                        "prev": "19409443459951632738",
                                        "typeTag": 1
                                    }
                                }
                            ],
                            "typeTag": 4
                        }
                    }
                ]
            },
            {
                "address": "0xc0d4ceb216b3ba9c3701b291766fdcba977cec3a",
                "erc": "ERC-20",
                "slots": [
                    {
                        "current": "0x000000000000000000000000000000000000000000000000000000f2325b603c",
                        "key": "0x632446717e4e12b43b62e1d83c723b1289266083581dc9325aa321377f2054b3",
                        "prev": "0x000000000000000000000000000000000000000000000000000000f3263f5a4d"
                    },
                    {
                        "current": "0x00000000000000000000000000000000000000000000000000000000f3e3fa11",
                        "key": "0xd0524b7a81b99bc92850d1e8f71ea768a68b2062aa5810cec500c1b369cbd8e0",
                        "prev": "0x0000000000000000000000000000000000000000000000000000000000000000"
                    }
                ],
                "storageVariables": [
                    {
                        "name": "_balances",
                        "type": "mapping(address => uint256)",
                        "value": {
                            "pairs": [
                                {
                                    "key": "0x59c62ffa192a83816c76c0b35ee498ebc89377e6",
                                    "value": {
                                        "current": "4091804177",
                                        "prev": "0",
                                        "typeTag": 1
                                    }
                                },
                                {
                                    "key": "0xdf9ab3c649005ebfdf682d2302ca1f673e0d37a2",
                                    "value": {
                                        "current": "1040226934844",
                                        "prev": "1044318739021",
                                        "typeTag": 1
                                    }
                                }
                            ],
                            "typeTag": 4
                        }
                    }
                ]
            },
            {
                "address": "0xdf9ab3c649005ebfdf682d2302ca1f673e0d37a2",
                "erc": "",
                "slots": [
                    {
                        "current": "0x01000003280000000ec83b2093518f9b0cb71ad0ddffff5be65c744261f2dad1",
                        "key": "0x0000000000000000000000000000000000000000000000000000000000000049",
                        "prev": "0x01000003280000000ec645495f5453ed9c9972eec9ffff5d0a62821361f275ec"
                    },
                    {
                        "current": "0x0000000000000000000000000000380fd7716e431c12f73fde681e87b3173b82",
                        "key": "0x0000000000000000000000000000000000000000000000000000000000000001",
                        "prev": "0x0000000000000000000000000000380f305a419cd21d4cd170b5aa96a2cddd61"
                    },
                    {
                        "current": "0x000100005000500041fd1d1a000000000000000000051e6eed52a307aa885eb1",
                        "key": "0x0000000000000000000000000000000000000000000000000000000000000000",
                        "prev": "0x000100005000500040fd1d7f000000000000000000052514ac01eafee358b370"
                    }
                ],
                "storageVariables": []
            }
        ]
    }
}