{
    "balance_change": {
        "balanceChanges": [
            {
                "account": "0xb1b2d032aa2f52347fbcfd08e5c3cc55216e8404",
                "assets": [
                    {
                        "address": "0x33c04bed4533e31f2afb8ac4a61a48eda38c4fa0",
                        "amount": "405,744.084999999",
                        "iconUrl": "",
                        "isERC1155": false,
                        "isERC721": false,
                        "sign": false,
                        "value": "3739.816054"
                    },
                    {
                        "address": "0xc02aaa39b223fe8d0a0e5c4f27ead9083c756cc2",
                        "amount": "1.039144585279371218",
                        "iconUrl": "https://assets.blocksec.com/icon/f1cb2d02c471d545bbc7722daf3277fd852d98e63d118771af7047bd8256c516.png",
                        "isERC1155": false,
                        "isERC721": false,
                        "sign": true,
                        "value": "3702.8002579445568339"
                    }
                ]
            },
            {
                "account": "0x33c04bed4533e31f2afb8ac4a61a48eda38c4fa0",
                "assets": [
                    {
                        "address": "0x33c04bed4533e31f2afb8ac4a61a48eda38c4fa0",
                        "amount": "2,028.720424999",
                        "iconUrl": "",
                        "isERC1155": false,
                        "isERC721": false,
                        "sign": true,
                        "value": "18.52434309"
                    }
                ]
            },
            {
                "account": "0xdd2e069f0f5bca048ae596ae3309be6763aef236",
                "assets": [
                    {
                        "address": "0x33c04bed4533e31f2afb8ac4a61a48eda38c4fa0",
                        "amount": "403,715.364575",
                        "iconUrl": "",
                        "isERC1155": false,
                        "isERC721": false,
                        "sign": true,
                        "value": "3652.482056"
                    },
                    {
                        "address": "0xc02aaa39b223fe8d0a0e5c4f27ead9083c756cc2",
                        "amount": "1.039144585279371218",
                        "iconUrl": "https://assets.blocksec.com/icon/f1cb2d02c471d545bbc7722daf3277fd852d98e63d118771af7047bd8256c516.png",
                        "isERC1155": false,
                        "isERC721": false,
                        "sign": false,
                        "value": "3702.8002579445568339"
                    }
                ]
            }
        ]
    },
    "profile": {
        "basic_info": {
            "baseFee": "26.97042738",
            "blockNumber": 19460524,
            "callData": "0x5c11d79500000000000000000000000000000000000000000000000000017105a80e5f3f0000000000000000000000000000000000000000000000000d29b088403c1cac00000000000000000000000000000000000000000000000000000000000000a0000000000000000000000000b1b2d032aa2f52347fbcfd08e5c3cc55216e84040000000000000000000000000000000000000000000000000000000065f7fca2000000000000000000000000000000000000000000000000000000000000000200000000000000000000000033c04bed4533e31f2afb8ac4a61a48eda38c4fa0000000000000000000000000c02aaa39b223fe8d0a0e5c4f27ead9083c756cc2",
            "debugEnable": true,
            "errorInfo": "",
            "eventCount": 6,
            "feeRecipient": "0x388c818ca8b9251b393131c08a736a67ccb19297",
            "formatValue": "0",
            "gasLimit": 186192,
            "gasPrice": "30.877609209",
            "gasUsed": 143225,
            "intTxnCount": 9,
            "internalRevert": false,
            "internalRevertMessage": "",
            "isContractCreation": false,
            "isFlashloan": false,
            "maxFee": "",
            "nonce": 77303,
            "overwritedBlockNumber": -1,
            "priorityFee": "",
            "receiver": "0x7a250d5630b4cf539739df2c5dacb4c659f2488d",
            "revertMessage": "",
            "sender": "0xb1b2d032aa2f52347fbcfd08e5c3cc55216e8404",
            "simulationEnable": true,
            "sourceTxnHash": "0x32ebd4170e833fea2966db7b450d7b692acdcc9725e8b7569c420e67091f1a72",
            "status": true,
            "timestamp": "2024-03-18T08:34:23Z",
            "transactionFee": "0.004422445578959025",
            "txnHash": "0x32ebd4170e833fea2966db7b450d7b692acdcc9725e8b7569c420e67091f1a72",
            "txnIndex": 7,
            "type": 0,
            "value": "0"
        },
        "fund_flow": [
            {
                "amount": "2,028.720424999",
                "from": "0xb1b2d032aa2f52347fbcfd08e5c3cc55216e8404",
                "id": 1,
                "isERC1155": false,
                "isERC721": false,
                "isReverted": false,
                "order": 1,
                "to": "0x33c04bed4533e31f2afb8ac4a61a48eda38c4fa0",
                "token": "0x33c04bed4533e31f2afb8ac4a61a48eda38c4fa0"
            },
            {
                "amount": "403,715.364575",
                "from": "0xb1b2d032aa2f52347fbcfd08e5c3cc55216e8404",
                "id": 2,
                "isERC1155": false,
                "isERC721": false,
                "isReverted": false,
                "order": 2,
                "to": "0xdd2e069f0f5bca048ae596ae3309be6763aef236",
                "token": "0x33c04bed4533e31f2afb8ac4a61a48eda38c4fa0"
            },
            {
                "amount": "1.039144585279371218",
                "from": "0xdd2e069f0f5bca048ae596ae3309be6763aef236",
                "id": 3,
                "isERC1155": false,
                "isERC721": false,
                "isReverted": false,
                "order": 3,
                "to": "0xb1b2d032aa2f52347fbcfd08e5c3cc55216e8404",
                "token": "0xc02aaa39b223fe8d0a0e5c4f27ead9083c756cc2"
            }
        ],
        "token_infos": [
            {
                "address": "0x33c04bed4533e31f2afb8ac4a61a48eda38c4fa0",
                "decimals": 9
            },
            {
                "address": "0xc02aaa39b223fe8d0a0e5c4f27ead9083c756cc2",
                "decimals": 18
            },
            {
                "address": "0xeeeeeeeeeeeeeeeeeeeeeeeeeeeeeeeeeeeeeeee",
                "decimals": 18
            }
        ]
    },
    "address_label": {
        "labels": [
            {
                "address": "0x7a250d5630b4cf539739df2c5dacb4c659f2488d",
                "label": "Uniswap V2: Router 2"
            },
            {
                "address": "0xc02aaa39b223fe8d0a0e5c4f27ead9083c756cc2",
                "label": "Wrapped Ether (WETH)"
            },
            {
                "address": "0x0000000000000000000000000000000000000003",
                "label": "Precompiled"
            },
            {
                "address": "0x0000000000000000000000000000000000000004",
                "label": "Precompiled"
            },
            {
                "address": "0xeeeeeeeeeeeeeeeeeeeeeeeeeeeeeeeeeeeeeeee",
                "label": "Ether"
            },
            {
                "address": "0x33c04bed4533e31f2afb8ac4a61a48eda38c4fa0",
                "label": "Gorilla: GORILLA Token"
            },
            {
                "address": "0xdd2e069f0f5bca048ae596ae3309be6763aef236",
                "label": "Uniswap V2: GORILLA 14"
            },
            {
                "address": "0x388c818ca8b9251b393131c08a736a67ccb19297",
                "label": "LidoExecutionLayerRewardsVault"
            },
            {
                "address": "0x0000000000000000000000000000000000000001",
                "label": "Precompiled"
            },
            {
                "address": "0x0000000000000000000000000000000000000002",
                "label": "Precompiled"
            }
        ]
    },
    "trace": {
        "accountLabels": null,
        "dataMap": {
            "-1": {
                "invocation": {
                    "address": "0xb1b2d032aa2f52347fbcfd08e5c3cc55216e8404",
                    "callData": "",
                    "decodedMethod": null,
                    "errorInfo": "",
                    "fromAddress": "",
                    "gasUsed": 0,
                    "id": -1,
                    "methodDecoded": false,
                    "operation": "",
                    "output": "",
                    "revert": false,
                    "revertMessage": "",
                    "selector": "",
                    "status": false,
                    "value": ""
                },
                "nodeType": 0
            },
            "0": {
                "invocation": {
                    "address": "0x7a250d5630b4cf539739df2c5dacb4c659f2488d",
                    "callData": "0x00000000000000000000000000000000000000000000000000017105a80e5f3f0000000000000000000000000000000000000000000000000d29b088403c1cac00000000000000000000000000000000000000000000000000000000000000a0000000000000000000000000b1b2d032aa2f52347fbcfd08e5c3cc55216e84040000000000000000000000000000000000000000000000000000000065f7fca2000000000000000000000000000000000000000000000000000000000000000200000000000000000000000033c04bed4533e31f2afb8ac4a61a48eda38c4fa0000000000000000000000000c02aaa39b223fe8d0a0e5c4f27ead9083c756cc2",
                    "decodedMethod": {
                        "callParams": [
                            {
                                "name": "amountIn",
                                "type": "uint256",
                                "value": "405,744,084,999,999"
                            },
                            {
                                "name": "amountOutMin",
                                "type": "uint256",
                                "value": "948,483,295,777,922,220"
                            },
                            {
                                "name": "path",
                                "type": "address[]",
                                "value": [
                                    "0x33c04bed4533e31f2afb8ac4a61a48eda38c4fa0",
                                    "0xc02aaa39b223fe8d0a0e5c4f27ead9083c756cc2"
                                ]
                            },
                            {
                                "name": "to",
                                "type": "address",
                                "value": "0xb1b2d032aa2f52347fbcfd08e5c3cc55216e8404"
                            },
                            {
                                "name": "deadline",
                                "type": "uint256",
                                "value": "1,710,750,882"
                            }
                        ],
                        "constructorArguments": "",
                        "name": "swapExactTokensForTokensSupportingFeeOnTransferTokens",
                        "returnParams": [],
                        "signature": "swapExactTokensForTokensSupportingFeeOnTransferTokens(uint256,uint256,address[],address,uint256)"
                    },
                    "errorInfo": "",
                    "fromAddress": "0xb1b2d032aa2f52347fbcfd08e5c3cc55216e8404",
                    "gasUsed": 143225,
                    "id": 0,
                    "methodDecoded": true,
                    "operation": "CALL",
                    "output": "",
                    "revert": false,
                    "revertMessage": "",
                    "selector": "0x5c11d795",
                    "status": true,
                    "value": "0"
                },
                "nodeType": 0
            },
            "1": {
                "invocation": {
                    "address": "0x33c04bed4533e31f2afb8ac4a61a48eda38c4fa0",
                    "callData": "0x000000000000000000000000b1b2d032aa2f52347fbcfd08e5c3cc55216e8404000000000000000000000000dd2e069f0f5bca048ae596ae3309be6763aef23600000000000000000000000000000000000000000000000000017105a80e5f3f",
                    "decodedMethod": {
                        "callParams": [
                            {
                                "name": "sender",
                                "type": "address",
                                "value": "0xb1b2d032aa2f52347fbcfd08e5c3cc55216e8404"
                            },
                            {
                                "name": "recipient",
                                "type": "address",
                                "value": "0xdd2e069f0f5bca048ae596ae3309be6763aef236"
                            },
                            {
                                "decimalAvailable": true,
                                "name": "amount",
                                "type": "uint256",
                                "value": "405,744,084,999,999"
                            }
                        ],
                        "constructorArguments": "",
                        "name": "transferFrom",
                        "returnParams": [
                            {
                                "name": "",
                                "type": "bool",
                                "value": true
                            }
                        ],
                        "signature": "transferFrom(address,address,uint256)"
                    },
                    "errorInfo": "",
                    "fromAddress": "0x7a250d5630b4cf539739df2c5dacb4c659f2488d",
                    "gasUsed": 58836,
                    "id": 1,
                    "methodDecoded": true,
                    "operation": "CALL",
                    "output": "0x0000000000000000000000000000000000000000000000000000000000000001",
                    "revert": false,
                    "revertMessage": "",
                    "selector": "0x23b872dd",
                    "status": true,
                    "value": "0"
                },
                "nodeType": 0
            },
            "10": {
                "event": {
                    "contract": "0xc02aaa39b223fe8d0a0e5c4f27ead9083c756cc2",
                    "decodedLog": {
                        "name": "Transfer",
                        "params": [
                            {
                                "name": "src",
                                "type": "address",
                                "value": "0xdd2e069f0f5bca048ae596ae3309be6763aef236"
                            },
                            {
                                "name": "dst",
                                "type": "address",
                                "value": "0xb1b2d032aa2f52347fbcfd08e5c3cc55216e8404"
                            },
                            {
                                "decimalAvailable": true,
                                "name": "wad",
                                "type": "uint256",
                                "value": "1,039,144,585,279,371,218"
                            }
                        ],
                        "signature": "Transfer(address,address,uint256)"
                    },
                    "id": 10,
                    "logData": "0x0000000000000000000000000000000000000000000000000e6bc87ea3d8f7d2",
                    "logDecoded": true,
                    "operation": "EVENT",
                    "revert": false,
                    "status": true,
                    "topics": [
                        "0xddf252ad1be2c89b69c2b068fc378daa952ba7f163c4a11628f55a4df523b3ef",
                        "0x000000000000000000000000dd2e069f0f5bca048ae596ae3309be6763aef236",
                        "0x000000000000000000000000b1b2d032aa2f52347fbcfd08e5c3cc55216e8404"
                    ]
                },
                "nodeType": 1
            },
            "11": {
                "invocation": {
                    "address": "0x33c04bed4533e31f2afb8ac4a61a48eda38c4fa0",
                    "callData": "0x000000000000000000000000dd2e069f0f5bca048ae596ae3309be6763aef236",
                    "decodedMethod": {
                        "callParams": [
                            {
                                "name": "account",
                                "type": "address",
                                "value": "0xdd2e069f0f5bca048ae596ae3309be6763aef236"
                            }
                        ],
                        "constructorArguments": "",
                        "name": "balanceOf",
                        "returnParams": [
                            {
                                "decimalAvailable": true,
                                "name": "",
                                "type": "uint256",
                                "value": "43,632,126,292,652,703"
                            }
                        ],
                        "signature": "balanceOf(address)"
                    },
                    "errorInfo": "",
                    "fromAddress": "0xdd2e069f0f5bca048ae596ae3309be6763aef236",
                    "gasUsed": 598,
                    "id": 11,
                    "methodDecoded": true,
                    "operation": "STATICCALL",
                    "output": "0x000000000000000000000000000000000000000000000000009b03300c77f29f",
                    "revert": false,
                    "revertMessage": "",
                    "selector": "0x70a08231",
                    "status": true,
                    "value": "0"
                },
                "nodeType": 0
            },
            "12": {
                "invocation": {
                    "address": "0xc02aaa39b223fe8d0a0e5c4f27ead9083c756cc2",
                    "callData": "0x000000000000000000000000dd2e069f0f5bca048ae596ae3309be6763aef236",
                    "decodedMethod": {
                        "callParams": [
                            {
                                "name": "",
                                "type": "address",
                                "value": "0xdd2e069f0f5bca048ae596ae3309be6763aef236"
                            }
                        ],
                        "constructorArguments": "",
                        "name": "balanceOf",
                        "returnParams": [
                            {
                                "decimalAvailable": true,
                                "name": "",
                                "type": "uint256",
                                "value": "111,602,728,825,147,218,810"
                            }
                        ],
                        "signature": "balanceOf(address)"
                    },
                    "errorInfo": "",
                    "fromAddress": "0xdd2e069f0f5bca048ae596ae3309be6763aef236",
                    "gasUsed": 534,
                    "id": 12,
                    "methodDecoded": true,
                    "operation": "STATICCALL",
                    "output": "0x0000000000000000000000000000000000000000000000060ccc8a91e325db7a",
                    "revert": false,
                    "revertMessage": "",
                    "selector": "0x70a08231",
                    "status": true,
                    "value": "0"
                },
                "nodeType": 0
            },
            "13": {
                "event": {
                    "contract": "0xdd2e069f0f5bca048ae596ae3309be6763aef236",
                    "decodedLog": {
                        "name": "Sync",
                        "params": [
                            {
                                "name": "reserve0",
                                "type": "uint112",
                                "value": "43,632,126,292,652,703"
                            },
                            {
                                "name": "reserve1",
                                "type": "uint112",
                                "value": "111,602,728,825,147,218,810"
                            }
                        ],
                        "signature": "Sync(uint112,uint112)"
                    },
                    "id": 13,
                    "logData": "0x000000000000000000000000000000000000000000000000009b03300c77f29f0000000000000000000000000000000000000000000000060ccc8a91e325db7a",
                    "logDecoded": true,
                    "operation": "EVENT",
                    "revert": false,
                    "status": true,
                    "topics": [
                        "0x1c411e9a96e071241c2f21f7726b17ae89e3cab4c78be50e062b03a9fffbbad1"
                    ]
                },
                "nodeType": 1
            },
            "14": {
                "event": {
                    "contract": "0xdd2e069f0f5bca048ae596ae3309be6763aef236",
                    "decodedLog": {
                        "name": "Swap",
                        "params": [
                            {
                                "name": "sender",
                                "type": "address",
                                "value": "0x7a250d5630b4cf539739df2c5dacb4c659f2488d"
                            },
                            {
                                "name": "to",
                                "type": "address",
                                "value": "0xb1b2d032aa2f52347fbcfd08e5c3cc55216e8404"
                            },
                            {
                                "name": "amount0In",
                                "type": "uint256",
                                "value": "403,715,364,575,000"
                            },
                            {
                                "name": "amount1In",
                                "type": "uint256",
                                "value": "0"
                            },
                            {
                                "name": "amount0Out",
                                "type": "uint256",
                                "value": "0"
                            },
                            {
                                "name": "amount1Out",
                                "type": "uint256",
                                "value": "1,039,144,585,279,371,218"
                            }
                        ],
                        "signature": "Swap(address,uint256,uint256,uint256,uint256,address)"
                    },
                    "id": 14,
                    "logData": "0x00000000000000000000000000000000000000000000000000016f2d4ee55718000000000000000000000000000000000000000000000000000000000000000000000000000000000000000000000000000000000000000000000000000000000000000000000000000000000000000000000000000000000e6bc87ea3d8f7d2",
                    "logDecoded": true,
                    "operation": "EVENT",
                    "revert": false,
                    "status": true,
                    "topics": [
                        "0xd78ad95fa46c994b6551d0da85fc275fe613ce37657fb8d5e3d130840159d822",
                        "0x0000000000000000000000007a250d5630b4cf539739df2c5dacb4c659f2488d",
                        "0x000000000000000000000000b1b2d032aa2f52347fbcfd08e5c3cc55216e8404"
                    ]
                },
                "nodeType": 1
            },
            "15": {
                "invocation": {
                    "address": "0xc02aaa39b223fe8d0a0e5c4f27ead9083c756cc2",
                    "callData": "0x000000000000000000000000b1b2d032aa2f52347fbcfd08e5c3cc55216e8404",
                    "decodedMethod": {
                        "callParams": [
                            {
                                "name": "",
                                "type": "address",
                                "value": "0xb1b2d032aa2f52347fbcfd08e5c3cc55216e8404"
                            }
                        ],
                        "constructorArguments": "",
                        "name": "balanceOf",
                        "returnParams": [
                            {
                                "decimalAvailable": true,
                                "name": "",
                                "type": "uint256",
                                "value": "16,764,852,781,549,594,229"
                            }
                        ],
                        "signature": "balanceOf(address)"
                    },
                    "errorInfo": "",
                    "fromAddress": "0x7a250d5630b4cf539739df2c5dacb4c659f2488d",
                    "gasUsed": 534,
                    "id": 15,
                    "methodDecoded": true,
                    "operation": "STATICCALL",
                    "output": "0x000000000000000000000000000000000000000000000000e8a8b8c7e3fba675",
                    "revert": false,
                    "revertMessage": "",
                    "selector": "0x70a08231",
                    "status": true,
                    "value": "0"
                },
                "nodeType": 0
            },
            "2": {
                "event": {
                    "contract": "0x33c04bed4533e31f2afb8ac4a61a48eda38c4fa0",
                    "decodedLog": {
                        "name": "Transfer",
                        "params": [
                            {
                                "name": "from",
                                "type": "address",
                                "value": "0xb1b2d032aa2f52347fbcfd08e5c3cc55216e8404"
                            },
                            {
                                "name": "to",
                                "type": "address",
                                "value": "0x33c04bed4533e31f2afb8ac4a61a48eda38c4fa0"
                            },
                            {
                                "decimalAvailable": true,
                                "name": "value",
                                "type": "uint256",
                                "value": "2,028,720,424,999"
                            }
                        ],
                        "signature": "Transfer(address,address,uint256)"
                    },
                    "id": 2,
                    "logData": "0x000000000000000000000000000000000000000000000000000001d859290827",
                    "logDecoded": true,
                    "operation": "EVENT",
                    "revert": false,
                    "status": true,
                    "topics": [
                        "0xddf252ad1be2c89b69c2b068fc378daa952ba7f163c4a11628f55a4df523b3ef",
                        "0x000000000000000000000000b1b2d032aa2f52347fbcfd08e5c3cc55216e8404",
                        "0x00000000000000000000000033c04bed4533e31f2afb8ac4a61a48eda38c4fa0"
                    ]
                },
                "nodeType": 1
            },
            "3": {
                "event": {
                    "contract": "0x33c04bed4533e31f2afb8ac4a61a48eda38c4fa0",
                    "decodedLog": {
                        "name": "Transfer",
                        "params": [
                            {
                                "name": "from",
                                "type": "address",
                                "value": "0xb1b2d032aa2f52347fbcfd08e5c3cc55216e8404"
                            },
                            {
                                "name": "to",
                                "type": "address",
                                "value": "0xdd2e069f0f5bca048ae596ae3309be6763aef236"
                            },
                            {
                                "decimalAvailable": true,
                                "name": "value",
                                "type": "uint256",
                                "value": "403,715,364,575,000"
                            }
                        ],
                        "signature": "Transfer(address,address,uint256)"
                    },
                    "id": 3,
                    "logData": "0x00000000000000000000000000000000000000000000000000016f2d4ee55718",
                    "logDecoded": true,
                    "operation": "EVENT",
                    "revert": false,
                    "status": true,
                    "topics": [
                        "0xddf252ad1be2c89b69c2b068fc378daa952ba7f163c4a11628f55a4df523b3ef",
                        "0x000000000000000000000000b1b2d032aa2f52347fbcfd08e5c3cc55216e8404",
                        "0x000000000000000000000000dd2e069f0f5bca048ae596ae3309be6763aef236"
                    ]
                },
                "nodeType": 1
            },
            "4": {
                "event": {
                    "contract": "0x33c04bed4533e31f2afb8ac4a61a48eda38c4fa0",
                    "decodedLog": {
                        "name": "Approval",
                        "params": [
                            {
                                "name": "owner",
                                "type": "address",
                                "value": "0xb1b2d032aa2f52347fbcfd08e5c3cc55216e8404"
                            },
                            {
                                "name": "spender",
                                "type": "address",
                                "value": "0x7a250d5630b4cf539739df2c5dacb4c659f2488d"
                            },
                            {
                                "decimalAvailable": true,
                                "name": "value",
                                "type": "uint256",
                                "value": "115,792,089,237,316,195,423,570,985,008,687,907,853,269,984,665,640,564,039,457,564,486,444,014,389,938"
                            }
                        ],
                        "signature": "Approval(address,address,uint256)"
                    },
                    "id": 4,
                    "logData": "0xffffffffffffffffffffffffffffffffffffffffffffffffffbaa553c7e44ab2",
                    "logDecoded": true,
                    "operation": "EVENT",
                    "revert": false,
                    "status": true,
                    "topics": [
                        "0x8c5be1e5ebec7d5bd14f71427d1e84f3dd0314c0f7b2291e5b200ac8c7c3b925",
                        "0x000000000000000000000000b1b2d032aa2f52347fbcfd08e5c3cc55216e8404",
                        "0x0000000000000000000000007a250d5630b4cf539739df2c5dacb4c659f2488d"
                    ]
                },
                "nodeType": 1
            },
            "5": {
                "invocation": {
                    "address": "0xc02aaa39b223fe8d0a0e5c4f27ead9083c756cc2",
                    "callData": "0x000000000000000000000000b1b2d032aa2f52347fbcfd08e5c3cc55216e8404",
                    "decodedMethod": {
                        "callParams": [
                            {
                                "name": "",
                                "type": "address",
                                "value": "0xb1b2d032aa2f52347fbcfd08e5c3cc55216e8404"
                            }
                        ],
                        "constructorArguments": "",
                        "name": "balanceOf",
                        "returnParams": [
                            {
                                "decimalAvailable": true,
                                "name": "",
                                "type": "uint256",
                                "value": "15,725,708,196,270,223,011"
                            }
                        ],
                        "signature": "balanceOf(address)"
                    },
                    "errorInfo": "",
                    "fromAddress": "0x7a250d5630b4cf539739df2c5dacb4c659f2488d",
                    "gasUsed": 2534,
                    "id": 5,
                    "methodDecoded": true,
                    "operation": "STATICCALL",
                    "output": "0x000000000000000000000000000000000000000000000000da3cf0494022aea3",
                    "revert": false,
                    "revertMessage": "",
                    "selector": "0x70a08231",
                    "status": true,
                    "value": "0"
                },
                "nodeType": 0
            },
            "6": {
                "invocation": {
                    "address": "0xdd2e069f0f5bca048ae596ae3309be6763aef236",
                    "callData": "0x",
                    "decodedMethod": {
                        "callParams": [],
                        "constructorArguments": "",
                        "name": "getReserves",
                        "returnParams": [
                            {
                                "name": "_reserve0",
                                "type": "uint112",
                                "value": "43,228,410,928,077,703"
                            },
                            {
                                "name": "_reserve1",
                                "type": "uint112",
                                "value": "112,641,873,410,426,590,028"
                            },
                            {
                                "name": "_blockTimestampLast",
                                "type": "uint32",
                                "value": "1,710,750,851"
                            }
                        ],
                        "signature": "getReserves()"
                    },
                    "errorInfo": "",
                    "fromAddress": "0x7a250d5630b4cf539739df2c5dacb4c659f2488d",
                    "gasUsed": 2504,
                    "id": 6,
                    "methodDecoded": true,
                    "operation": "STATICCALL",
                    "output": "0x00000000000000000000000000000000000000000000000000999402bd929b870000000000000000000000000000000000000000000000061b38531086fed34c0000000000000000000000000000000000000000000000000000000065f7fc83",
                    "revert": false,
                    "revertMessage": "",
                    "selector": "0x0902f1ac",
                    "status": true,
                    "value": "0"
                },
                "nodeType": 0
            },
            "7": {
                "invocation": {
                    "address": "0x33c04bed4533e31f2afb8ac4a61a48eda38c4fa0",
                    "callData": "0x000000000000000000000000dd2e069f0f5bca048ae596ae3309be6763aef236",
                    "decodedMethod": {
                        "callParams": [
                            {
                                "name": "account",
                                "type": "address",
                                "value": "0xdd2e069f0f5bca048ae596ae3309be6763aef236"
                            }
                        ],
                        "constructorArguments": "",
                        "name": "balanceOf",
                        "returnParams": [
                            {
                                "decimalAvailable": true,
                                "name": "",
                                "type": "uint256",
                                "value": "43,632,126,292,652,703"
                            }
                        ],
                        "signature": "balanceOf(address)"
                    },
                    "errorInfo": "",
                    "fromAddress": "0x7a250d5630b4cf539739df2c5dacb4c659f2488d",
                    "gasUsed": 598,
                    "id": 7,
                    "methodDecoded": true,
                    "operation": "STATICCALL",
                    "output": "0x000000000000000000000000000000000000000000000000009b03300c77f29f",
                    "revert": false,
                    "revertMessage": "",
                    "selector": "0x70a08231",
                    "status": true,
                    "value": "0"
                },
                "nodeType": 0
            },
            "8": {
                "invocation": {
                    "address": "0xdd2e069f0f5bca048ae596ae3309be6763aef236",
                    "callData": "0x00000000000000000000000000000000000000000000000000000000000000000000000000000000000000000000000000000000000000000e6bc87ea3d8f7d2000000000000000000000000b1b2d032aa2f52347fbcfd08e5c3cc55216e840400000000000000000000000000000000000000000000000000000000000000800000000000000000000000000000000000000000000000000000000000000000",
                    "decodedMethod": {
                        "callParams": [
                            {
                                "name": "amount0Out",
                                "type": "uint256",
                                "value": "0"
                            },
                            {
                                "name": "amount1Out",
                                "type": "uint256",
                                "value": "1,039,144,585,279,371,218"
                            },
                            {
                                "name": "to",
                                "type": "address",
                                "value": "0xb1b2d032aa2f52347fbcfd08e5c3cc55216e8404"
                            },
                            {
                                "name": "data",
                                "type": "bytes",
                                "value": "0x"
                            }
                        ],
                        "constructorArguments": "",
                        "name": "swap",
                        "returnParams": [],
                        "signature": "swap(uint256,uint256,address,bytes)"
                    },
                    "errorInfo": "",
                    "fromAddress": "0x7a250d5630b4cf539739df2c5dacb4c659f2488d",
                    "gasUsed": 43317,
                    "id": 8,
                    "methodDecoded": true,
                    "operation": "CALL",
                    "output": "",
                    "revert": false,
                    "revertMessage": "",
                    "selector": "0x022c0d9f",
                    "status": true,
                    "value": "0"
                },
                "nodeType": 0
            },
            "9": {
                "invocation": {
                    "address": "0xc02aaa39b223fe8d0a0e5c4f27ead9083c756cc2",
                    "callData": "0x000000000000000000000000b1b2d032aa2f52347fbcfd08e5c3cc55216e84040000000000000000000000000000000000000000000000000e6bc87ea3d8f7d2",
                    "decodedMethod": {
                        "callParams": [
                            {
                                "name": "dst",
                                "type": "address",
                                "value": "0xb1b2d032aa2f52347fbcfd08e5c3cc55216e8404"
                            },
                            {
                                "decimalAvailable": true,
                                "name": "wad",
                                "type": "uint256",
                                "value": "1,039,144,585,279,371,218"
                            }
                        ],
                        "constructorArguments": "",
                        "name": "transfer",
                        "returnParams": [
                            {
                                "name": "",
                                "type": "bool",
                                "value": true
                            }
                        ],
                        "signature": "transfer(address,uint256)"
                    },
                    "errorInfo": "",
                    "fromAddress": "0xdd2e069f0f5bca048ae596ae3309be6763aef236",
                    "gasUsed": 10862,
                    "id": 9,
                    "methodDecoded": true,
                    "operation": "CALL",
                    "output": "0x0000000000000000000000000000000000000000000000000000000000000001",
                    "revert": false,
                    "revertMessage": "",
                    "selector": "0xa9059cbb",
                    "status": true,
                    "value": "0"
                },
                "nodeType": 0
            }
        },
        "gasFlame": [
            {
                "children": [
                    {
                        "children": [
                            {
                                "children": [],
                                "depth": 0,
                                "name": "Initial Gas",
                                "value": 23060
                            },
                            {
                                "children": [
                                    {
                                        "children": [],
                                        "depth": 1,
                                        "name": "transferFrom",
                                        "value": 58836
                                    },
                                    {
                                        "children": [],
                                        "depth": 1,
                                        "name": "balanceOf",
                                        "value": 2534
                                    },
                                    {
                                        "children": [],
                                        "depth": 1,
                                        "name": "getReserves",
                                        "value": 2504
                                    },
                                    {
                                        "children": [],
                                        "depth": 1,
                                        "name": "balanceOf",
                                        "value": 598
                                    },
                                    {
                                        "children": [
                                            {
                                                "children": [],
                                                "depth": 2,
                                                "name": "transfer",
                                                "value": 10862
                                            },
                                            {
                                                "children": [],
                                                "depth": 2,
                                                "name": "balanceOf",
                                                "value": 598
                                            },
                                            {
                                                "children": [],
                                                "depth": 2,
                                                "name": "balanceOf",
                                                "value": 534
                                            }
                                        ],
                                        "depth": 1,
                                        "name": "swap",
                                        "value": 43317
                                    },
                                    {
                                        "children": [],
                                        "depth": 1,
                                        "name": "balanceOf",
                                        "value": 534
                                    }
                                ],
                                "depth": 0,
                                "name": "Executed Gas",
                                "value": 122965
                            }
                        ],
                        "depth": -1,
                        "name": "Actual Gas Used",
                        "value": 143225
                    },
                    {
                        "children": [],
                        "depth": -1,
                        "name": "Refunded Gas",
                        "value": 2800
                    }
                ],
                "depth": -2,
                "name": "Total Gas",
                "value": 146025
            }
        ],
        "isConfirmed": true,
        "mainTrace": [
            {
                "children": [
                    {
                        "children": [
                            {
                                "children": [
                                    {
                                        "children": [],
                                        "depth": 2,
                                        "id": 2,
                                        "order": 2
                                    },
                                    {
                                        "children": [],
                                        "depth": 2,
                                        "id": 3,
                                        "order": 3
                                    },
                                    {
                                        "children": [],
                                        "depth": 2,
                                        "id": 4,
                                        "order": 4
                                    }
                                ],
                                "depth": 1,
                                "id": 1,
                                "order": 1
                            },
                            {
                                "children": [],
                                "depth": 1,
                                "id": 5,
                                "order": 5
                            },
                            {
                                "children": [],
                                "depth": 1,
                                "id": 6,
                                "order": 6
                            },
                            {
                                "children": [],
                                "depth": 1,
                                "id": 7,
                                "order": 7
                            },
                            {
                                "children": [
                                    {
                                        "children": [
                                            {
                                                "children": [],
                                                "depth": 3,
                                                "id": 10,
                                                "order": 10
                                            }
                                        ],
                                        "depth": 2,
                                        "id": 9,
                                        "order": 9
                                    },
                                    {
                                        "children": [],
                                        "depth": 2,
                                        "id": 11,
                                        "order": 11
                                    },
                                    {
                                        "children": [],
                                        "depth": 2,
                                        "id": 12,
                                        "order": 12
                                    },
                                    {
                                        "children": [],
                                        "depth": 2,
                                        "id": 13,
                                        "order": 13
                                    },
                                    {
                                        "children": [],
                                        "depth": 2,
                                        "id": 14,
                                        "order": 14
                                    }
                                ],
                                "depth": 1,
                                "id": 8,
                                "order": 8
                            },
                            {
                                "children": [],
                                "depth": 1,
                                "id": 15,
                                "order": 15
                            }
                        ],
                        "depth": 0,
                        "id": 0,
                        "order": 0
                    }
                ],
                "depth": -1,
                "id": -1,
                "order": -1
            }
        ],
        "mainTraceNodeCount": 16,
        "parentIdMap": {
            "0": -1,
            "1": 0,
            "10": 9,
            "11": 8,
            "12": 8,
            "13": 8,
            "14": 8,
            "15": 0,
            "2": 1,
            "3": 1,
            "4": 1,
            "5": 0,
            "6": 0,
            "7": 0,
            "8": 0,
            "9": 8
        },
        "tidyTrace": [
            {
                "children": [
                    {
                        "children": [
                            {
                                "children": [
                                    {
                                        "children": [],
                                        "depth": 2,
                                        "id": 2,
                                        "order": 2
                                    },
                                    {
                                        "children": [],
                                        "depth": 2,
                                        "id": 3,
                                        "order": 3
                                    },
                                    {
                                        "children": [],
                                        "depth": 2,
                                        "id": 4,
                                        "order": 4
                                    }
                                ],
                                "depth": 1,
                                "id": 1,
                                "order": 1
                            },
                            {
                                "children": [
                                    {
                                        "children": [
                                            {
                                                "children": [],
                                                "depth": 3,
                                                "id": 10,
                                                "order": 10
                                            }
                                        ],
                                        "depth": 2,
                                        "id": 9,
                                        "order": 9
                                    },
                                    {
                                        "children": [],
                                        "depth": 2,
                                        "id": 13,
                                        "order": 13
                                    },
                                    {
                                        "children": [],
                                        "depth": 2,
                                        "id": 14,
                                        "order": 14
                                    }
                                ],
                                "depth": 1,
                                "id": 8,
                                "order": 8
                            }
                        ],
                        "depth": 0,
                        "id": 0,
                        "order": 0
                    }
                ],
                "depth": -1,
                "id": -1,
                "order": -1
            }
        ],
        "tidyTraceNodeCount": 10
    },
    "state_change": {
        "stateChanges": [
            {
                "address": "0x33c04bed4533e31f2afb8ac4a61a48eda38c4fa0",
                "erc": "ERC-20",
                "slots": [
                    {
                        "current": "0x000000000000000000000000000000000000000000000000009b03300c77f29f",
                        "key": "0x7ac72621234b97e657796c4ab8c017fbb44e31189320c9d4f691a24820e1854e",
                        "prev": "0x00000000000000000000000000000000000000000000000000999402bd929b87"
                    },
                    {
                        "current": "0xffffffffffffffffffffffffffffffffffffffffffffffffffbaa553c7e44ab2",
                        "key": "0xe2a748e5db7fd38b5f94ac5e4503519a51a2fbdeff9f6fe8ddc28c3c2aade389",
                        "prev": "0xffffffffffffffffffffffffffffffffffffffffffffffffffbc16596ff2a9f1"
                    },
                    {
                        "current": "0x000000000000000000000000000000000000000000000000000296b980e04afa",
                        "key": "0x1dc5b1f3ffe01b58cdca1853d592833965df8cb18efca3892f4a4ebcb9763a44",
                        "prev": "0x000000000000000000000000000000000000000000000000000294e127b742d3"
                    },
                    {
                        "current": "0x0000000000000000000000000000000000000000000000000000000000000003",
                        "key": "0x84085f6b54444d1bb8d7b452a36c4ddd2555232b5db981b9d3eaf3e04dc086cd",
                        "prev": "0x00000000000000000000000000000000000000000000000000017105a80e5f42"
                    }
                ],
                "storageVariables": [
                    {
                        "name": "_balances",
                        "type": "mapping(address => uint256)",
                        "value": {
                            "pairs": [
                                {
                                    "key": "0x33c04bed4533e31f2afb8ac4a61a48eda38c4fa0",
                                    "value": {
                                        "current": "728673428720378",
                                        "prev": "726644708295379",
                                        "typeTag": 1
                                    }
                                },
                                {
                                    "key": "0xb1b2d032aa2f52347fbcfd08e5c3cc55216e8404",
                                    "value": {
                                        "current": "3",
                                        "prev": "405744085000002",
                                        "typeTag": 1
                                    }
                                },
                                {
                                    "key": "0xdd2e069f0f5bca048ae596ae3309be6763aef236",
                                    "value": {
                                        "current": "43632126292652703",
                                        "prev": "43228410928077703",
                                        "typeTag": 1
                                    }
                                }
                            ],
                            "typeTag": 4
                        }
                    },
                    {
                        "name": "_allowances",
                        "type": "mapping(address => mapping(address => uint256))",
                        "value": {
                            "pairs": [
                                {
                                    "key": "0xb1b2d032aa2f52347fbcfd08e5c3cc55216e8404",
                                    "value": {
                                        "pairs": [
                                            {
                                                "key": "0x7a250d5630b4cf539739df2c5dacb4c659f2488d",
                                                "value": {
                                                    "current": "115792089237316195423570985008687907853269984665640564039457564486444014389938",
                                                    "prev": "115792089237316195423570985008687907853269984665640564039457564892188099389937",
                                                    "typeTag": 1
                                                }
                                            }
                                        ],
                                        "typeTag": 4
                                    }
                                }
                            ],
                            "typeTag": 4
                        }
                    }
                ]
            },
            {
                "address": "0xc02aaa39b223fe8d0a0e5c4f27ead9083c756cc2",
                "erc": "ERC-20",
                "slots": [
                    {
                        "current": "0x0000000000000000000000000000000000000000000000060ccc8a91e325db7a",
                        "key": "0x91b791feb065c377b74ae29ff0cf2ce979812cc686dd8b446a35ba2ae4ecfdd7",
                        "prev": "0x0000000000000000000000000000000000000000000000061b38531086fed34c"
                    },
                    {
                        "current": "0x000000000000000000000000000000000000000000000000e8a8b8c7e3fba675",
                        "key": "0x51167deb97735007f7824edec257cf2fe6a5b1da11599dc106c1831263eaf5a4",
                        "prev": "0x000000000000000000000000000000000000000000000000da3cf0494022aea3"
                    }
                ],
                "storageVariables": [
                    {
                        "name": "balanceOf",
                        "type": "mapping(address => uint256)",
                        "value": {
                            "pairs": [
                                {
                                    "key": "0xb1b2d032aa2f52347fbcfd08e5c3cc55216e8404",
                                    "value": {
                                        "current": "16764852781549594229",
                                        "prev": "15725708196270223011",
                                        "typeTag": 1
                                    }
                                },
                                {
                                    "key": "0xdd2e069f0f5bca048ae596ae3309be6763aef236",
                                    "value": {
                                        "current": "111602728825147218810",
                                        "prev": "112641873410426590028",
                                        "typeTag": 1
                                    }
                                }
                            ],
                            "typeTag": 4
                        }
                    }
                ]
            },
            {
                "address": "0xdd2e069f0f5bca048ae596ae3309be6763aef236",
                "erc": "ERC-20",
                "slots": [
                    {
                        "current": "0x0000000000000000000000000006038a17a8dfc438c2d569a865ac3ec13c7c30",
                        "key": "0x0000000000000000000000000000000000000000000000000000000000000009",
                        "prev": "0x000000000000000000000000000603899d84077245f6ae469bc53ef6f835ed18"
                    },
                    {
                        "current": "0x000000000000000000000000000000003002ccf5ba48c169ab9777103e8b9bc4",
                        "key": "0x000000000000000000000000000000000000000000000000000000000000000a",
                        "prev": "0x000000000000000000000000000000003002cbc7eb77275f9665c3b89bb15574"
                    },
                    {
                        "current": "0x65f7fc8f0000000000060ccc8a91e325db7a000000000000009b03300c77f29f",
                        "key": "0x0000000000000000000000000000000000000000000000000000000000000008",
                        "prev": "0x65f7fc830000000000061b38531086fed34c00000000000000999402bd929b87"
                    }
                ],
                "storageVariables": [
                    {
                        "name": "price0CumulativeLast",
                        "type": "uint256",
                        "value": {
                            "current": "134112798464702408012195335829452731407170608",
                            "prev": "134112636107576742247474567909363067169139992",
                            "typeTag": 1
                        }
                    },
                    {
                        "name": "price1CumulativeLast",
                        "type": "uint256",
                        "value": {
                            "current": "63817485471504160341955235421683948484",
                            "prev": "63817461559819938598460076510046934388",
                            "typeTag": 1
                        }
                    },
                    {
                        "name": "reserve0",
                        "type": "uint112",
                        "value": {
                            "current": "43632126292652703",
                            "prev": "43228410928077703",
                            "typeTag": 1
                        }
                    },
                    {
                        "name": "reserve1",
                        "type": "uint112",
                        "value": {
                            "current": "111602728825147218810",
                            "prev": "112641873410426590028",
                            "typeTag": 1
                        }
                    },
                    {
                        "name": "blockTimestampLast",
                        "type": "uint32",
                        "value": {
                            "current": "1710750863",
                            "prev": "1710750851",
                            "typeTag": 1
                        }
                    }
                ]
            }
        ]
    }
}