{
    "balance_change": {
        "balanceChanges": [
            {
                "account": "0xc920e1768476f71f7fabc1ee2ee4f1dcff019ebc",
                "assets": [
                    {
                        "address": "0xe41d2489571d322189246dafa5ebde1f4699f498",
                        "amount": "12,587",
                        "iconUrl": "https://assets.blocksec.com/icon/6c4cfed2c799afeb85b9e6ad087e66bdd588f8169e94dcf9e90f3048ceb6c6f3.png",
                        "isERC1155": false,
                        "isERC721": false,
                        "sign": false,
                        "value": "3159.00206"
                    }
                ]
            },
            {
                "account": "0x738cf6903e6c4e699d1c2dd9ab8b67fcdb3121ea",
                "assets": [
                    {
                        "address": "0xe41d2489571d322189246dafa5ebde1f4699f498",
                        "amount": "12,587",
                        "iconUrl": "https://assets.blocksec.com/icon/6c4cfed2c799afeb85b9e6ad087e66bdd588f8169e94dcf9e90f3048ceb6c6f3.png",
                        "isERC1155": false,
                        "isERC721": false,
                        "sign": true,
                        "value": "3159.00206"
                    }
                ]
            }
        ]
    },
    "profile": {
        "basic_info": {
            "baseFee": "49.635230462",
            "blockNumber": 14960546,
            "callData": "0xa9059cbb000000000000000000000000738cf6903e6c4e699d1c2dd9ab8b67fcdb3121ea0000000000000000000000000000000000000000000002aa57b7133741cc0000",
            "debugEnable": true,
            "errorInfo": "",
            "eventCount": 1,
            "feeRecipient": "0xea674fdde714fd979de3edf0f56aa9716b898ec8",
            "formatValue": "0",
            "gasLimit": 100000,
            "gasPrice": "50.635230462",
            "gasUsed": 30006,
            "intTxnCount": 0,
            "internalRevert": false,
            "internalRevertMessage": "",
            "isContractCreation": false,
            "isFlashloan": false,
            "maxFee": "59.264124936",
            "nonce": 29,
            "overwritedBlockNumber": -1,
            "priorityFee": "1",
            "receiver": "0xe41d2489571d322189246dafa5ebde1f4699f498",
            "revertMessage": "",
            "sender": "0xc920e1768476f71f7fabc1ee2ee4f1dcff019ebc",
            "simulationEnable": true,
            "sourceTxnHash": "0x32c50a34197e27bec004d5e49b5c7b326cca35eeaa27287d4fbe187406f2649a",
            "status": true,
            "timestamp": "2022-06-14T07:24:12Z",
            "transactionFee": "0.001519360725242772",
            "txnHash": "0x32c50a34197e27bec004d5e49b5c7b326cca35eeaa27287d4fbe187406f2649a",
            "txnIndex": 211,
            "type": 2,
            "value": "0"
        },
        "fund_flow": [
            {
                "amount": "12,587",
                "from": "0xc920e1768476f71f7fabc1ee2ee4f1dcff019ebc",
                "id": 1,
                "isERC1155": false,
                "isERC721": false,
                "isReverted": false,
                "order": 1,
                "to": "0x738cf6903e6c4e699d1c2dd9ab8b67fcdb3121ea",
                "token": "0xe41d2489571d322189246dafa5ebde1f4699f498"
            }
        ],
        "token_infos": [
            {
                "address": "0xc02aaa39b223fe8d0a0e5c4f27ead9083c756cc2",
                "decimals": 18
            },
            {
                "address": "0xe41d2489571d322189246dafa5ebde1f4699f498",
                "decimals": 18
            },
            {
                "address": "0xeeeeeeeeeeeeeeeeeeeeeeeeeeeeeeeeeeeeeeee",
                "decimals": 18
            }
        ]
    },
    "address_label": {
        "labels": [
            {
                "address": "0xeeeeeeeeeeeeeeeeeeeeeeeeeeeeeeeeeeeeeeee",
                "label": "Ether"
            },
            {
                "address": "0x738cf6903e6c4e699d1c2dd9ab8b67fcdb3121ea",
                "label": "KuCoin 12"
            },
            {
                "address": "0xe41d2489571d322189246dafa5ebde1f4699f498",
                "label": "0x: ZRX Token"
            },
            {
                "address": "0x0000000000000000000000000000000000000001",
                "label": "Precompiled"
            },
            {
                "address": "0x0000000000000000000000000000000000000002",
                "label": "Precompiled"
            },
            {
                "address": "0x0000000000000000000000000000000000000003",
                "label": "Precompiled"
            },
            {
                "address": "0x0000000000000000000000000000000000000004",
                "label": "Precompiled"
            }
        ]
    },
    "trace": {
        "accountLabels": null,
        "dataMap": {
            "-1": {
                "invocation": {
                    "address": "0xc920e1768476f71f7fabc1ee2ee4f1dcff019ebc",
                    "callData": "",
                    "decodedMethod": null,
                    "errorInfo": "",
                    "fromAddress": "",
                    "gasUsed": 0,
                    "id": -1,
                    "methodDecoded": false,
                    "operation": "",
                    "output": "",
                    "revert": false,
                    "revertMessage": "",
                    "selector": "",
                    "status": false,
                    "value": ""
                },
                "nodeType": 0
            },
            "0": {
                "invocation": {
                    "address": "0xe41d2489571d322189246dafa5ebde1f4699f498",
                    "callData": "0x000000000000000000000000738cf6903e6c4e699d1c2dd9ab8b67fcdb3121ea0000000000000000000000000000000000000000000002aa57b7133741cc0000",
                    "decodedMethod": {
                        "callParams": [
                            {
                                "name": "_to",
                                "type": "address",
                                "value": "0x738cf6903e6c4e699d1c2dd9ab8b67fcdb3121ea"
                            },
                            {
                                "decimalAvailable": true,
                                "name": "_value",
                                "type": "uint256",
                                "value": "12,587,000,000,000,000,000,000"
                            }
                        ],
                        "constructorArguments": "",
                        "name": "transfer",
                        "returnParams": [
                            {
                                "name": "",
                                "type": "bool",
                                "value": true
                            }
                        ],
                        "signature": "transfer(address,uint256)"
                    },
                    "errorInfo": "",
                    "fromAddress": "0xc920e1768476f71f7fabc1ee2ee4f1dcff019ebc",
                    "gasUsed": 30006,
                    "id": 0,
                    "methodDecoded": true,
                    "operation": "CALL",
                    "output": "0x0000000000000000000000000000000000000000000000000000000000000001",
                    "revert": false,
                    "revertMessage": "",
                    "selector": "0xa9059cbb",
                    "status": true,
                    "value": "0"
                },
                "nodeType": 0
            },
            "1": {
                "event": {
                    "contract": "0xe41d2489571d322189246dafa5ebde1f4699f498",
                    "decodedLog": {
                        "name": "Transfer",
                        "params": [
                            {
                                "name": "_from",
                                "type": "address",
                                "value": "0xc920e1768476f71f7fabc1ee2ee4f1dcff019ebc"
                            },
                            {
                                "name": "_to",
                                "type": "address",
                                "value": "0x738cf6903e6c4e699d1c2dd9ab8b67fcdb3121ea"
                            },
                            {
                                "decimalAvailable": true,
                                "name": "_value",
                                "type": "uint256",
                                "value": "12,587,000,000,000,000,000,000"
                            }
                        ],
                        "signature": "Transfer(address,address,uint256)"
                    },
                    "id": 1,
                    "logData": "0x0000000000000000000000000000000000000000000002aa57b7133741cc0000",
                    "logDecoded": true,
                    "operation": "EVENT",
                    "revert": false,
                    "status": true,
                    "topics": [
                        "0xddf252ad1be2c89b69c2b068fc378daa952ba7f163c4a11628f55a4df523b3ef",
                        "0x000000000000000000000000c920e1768476f71f7fabc1ee2ee4f1dcff019ebc",
                        "0x000000000000000000000000738cf6903e6c4e699d1c2dd9ab8b67fcdb3121ea"
                    ]
                },
                "nodeType": 1
            }
        },
        "gasFlame": [
            {
                "children": [
                    {
                        "children": [
                            {
                                "children": [],
                                "depth": 0,
                                "name": "Initial Gas",
                                "value": 21656
                            },
                            {
                                "children": [],
                                "depth": 0,
                                "name": "Executed Gas",
                                "value": 13150
                            }
                        ],
                        "depth": -1,
                        "name": "Actual Gas Used",
                        "value": 30006
                    },
                    {
                        "children": [],
                        "depth": -1,
                        "name": "Refunded Gas",
                        "value": 4800
                    }
                ],
                "depth": -2,
                "name": "Total Gas",
                "value": 34806
            }
        ],
        "isConfirmed": true,
        "mainTrace": [
            {
                "children": [
                    {
                        "children": [
                            {
                                "children": [],
                                "depth": 1,
                                "id": 1,
                                "order": 1
                            }
                        ],
                        "depth": 0,
                        "id": 0,
                        "order": 0
                    }
                ],
                "depth": -1,
                "id": -1,
                "order": -1
            }
        ],
        "mainTraceNodeCount": 2,
        "parentIdMap": {
            "0": -1,
            "1": 0
        },
        "tidyTrace": [
            {
                "children": [
                    {
                        "children": [
                            {
                                "children": [],
                                "depth": 1,
                                "id": 1,
                                "order": 1
                            }
                        ],
                        "depth": 0,
                        "id": 0,
                        "order": 0
                    }
                ],
                "depth": -1,
                "id": -1,
                "order": -1
            }
        ],
        "tidyTraceNodeCount": 2
    },
    "state_change": {
        "stateChanges": [
            {
                "address": "0xe41d2489571d322189246dafa5ebde1f4699f498",
                "erc": "ERC-20",
                "slots": [
                    {
                        "current": "0x0000000000000000000000000000000000000000000000000000000000000000",
                        "key": "0xe00c347caf123d3318f97be27124b6c3958dc4c570de92d4f686c74021e3ff46",
                        "prev": "0x0000000000000000000000000000000000000000000002aa57b7133741cc0000"
                    },
                    {
                        "current": "0x0000000000000000000000000000000000000000000059b5150a29640fe5904c",
                        "key": "0x8dd6f0ba4abcc0efe1a78d4e141bebce4c66f5d500449f2e016186258bd0c698",
                        "prev": "0x00000000000000000000000000000000000000000000570abd53162cce19904c"
                    }
                ],
                "storageVariables": []
            }
        ]
    }
}