{
    "balance_change": {
        "balanceChanges": [
            {
                "account": "0x9d2134a64245542ae39dbad6cb0a248085333c03",
                "assets": [
                    {
                        "address": "0xab4e1802c61e12fd7b10a69a226f5d727c76a8aa",
                        "amount": "55.2",
                        "iconUrl": "",
                        "isERC1155": false,
                        "isERC721": false,
                        "sign": false,
                        "value": ""
                    }
                ]
            },
            {
                "account": "0x009f05562f8db20d35b609a89c85e162317f224a",
                "assets": [
                    {
                        "address": "0xab4e1802c61e12fd7b10a69a226f5d727c76a8aa",
                        "amount": "55.2",
                        "iconUrl": "",
                        "isERC1155": false,
                        "isERC721": false,
                        "sign": true,
                        "value": ""
                    }
                ]
            }
        ]
    },
    "profile": {
        "basic_info": {
            "baseFee": "",
            "blockNumber": 7216300,
            "callData": "0xa9059cbb000000000000000000000000009f05562f8db20d35b609a89c85e162317f224a000000000000000000000000000000000000000000000002fe0dcb89b1900000",
            "debugEnable": true,
            "errorInfo": "",
            "eventCount": 1,
            "feeRecipient": "0xea674fdde714fd979de3edf0f56aa9716b898ec8",
            "formatValue": "0",
            "gasLimit": 182000,
            "gasPrice": "9",
            "gasUsed": 54623,
            "intTxnCount": 0,
            "internalRevert": false,
            "internalRevertMessage": "",
            "isContractCreation": false,
            "isFlashloan": false,
            "maxFee": "",
            "nonce": 2127,
            "overwritedBlockNumber": -1,
            "priorityFee": "",
            "receiver": "0xab4e1802c61e12fd7b10a69a226f5d727c76a8aa",
            "revertMessage": "",
            "sender": "0x9d2134a64245542ae39dbad6cb0a248085333c03",
            "simulationEnable": true,
            "sourceTxnHash": "0x3328179b09740d46358f23b923f280105a1448883bb2730ca7923e6159fb0c7d",
            "status": true,
            "timestamp": "2019-02-13T18:56:34Z",
            "transactionFee": "0.000491607",
            "txnHash": "0x3328179b09740d46358f23b923f280105a1448883bb2730ca7923e6159fb0c7d",
            "txnIndex": 15,
            "type": 0,
            "value": "0"
        },
        "fund_flow": [
            {
                "amount": "55.2",
                "from": "0x9d2134a64245542ae39dbad6cb0a248085333c03",
                "id": 1,
                "isERC1155": false,
                "isERC721": false,
                "isReverted": false,
                "order": 1,
                "to": "0x009f05562f8db20d35b609a89c85e162317f224a",
                "token": "0xab4e1802c61e12fd7b10a69a226f5d727c76a8aa"
            }
        ],
        "token_infos": [
            {
                "address": "0xab4e1802c61e12fd7b10a69a226f5d727c76a8aa",
                "decimals": 18
            },
            {
                "address": "0xc02aaa39b223fe8d0a0e5c4f27ead9083c756cc2",
                "decimals": 18
            },
            {
                "address": "0xeeeeeeeeeeeeeeeeeeeeeeeeeeeeeeeeeeeeeeee",
                "decimals": 18
            }
        ]
    },
    "address_label": {
        "labels": [
            {
                "address": "0xeeeeeeeeeeeeeeeeeeeeeeeeeeeeeeeeeeeeeeee",
                "label": "Ether"
            },
            {
                "address": "0xab4e1802c61e12fd7b10a69a226f5d727c76a8aa",
                "label": "ODF"
            },
            {
                "address": "0x0000000000000000000000000000000000000001",
                "label": "Precompiled"
            },
            {
                "address": "0x0000000000000000000000000000000000000002",
                "label": "Precompiled"
            },
            {
                "address": "0x0000000000000000000000000000000000000003",
                "label": "Precompiled"
            },
            {
                "address": "0x0000000000000000000000000000000000000004",
                "label": "Precompiled"
            }
        ]
    },
    "trace": {
        "accountLabels": null,
        "dataMap": {
            "-1": {
                "invocation": {
                    "address": "0x9d2134a64245542ae39dbad6cb0a248085333c03",
                    "callData": "",
                    "decodedMethod": null,
                    "errorInfo": "",
                    "fromAddress": "",
                    "gasUsed": 0,
                    "id": -1,
                    "methodDecoded": false,
                    "operation": "",
                    "output": "",
                    "revert": false,
                    "revertMessage": "",
                    "selector": "",
                    "status": false,
                    "value": ""
                },
                "nodeType": 0
            },
            "0": {
                "invocation": {
                    "address": "0xab4e1802c61e12fd7b10a69a226f5d727c76a8aa",
                    "callData": "0x000000000000000000000000009f05562f8db20d35b609a89c85e162317f224a000000000000000000000000000000000000000000000002fe0dcb89b1900000",
                    "decodedMethod": {
                        "callParams": [
                            {
                                "name": "recipient",
                                "type": "address",
                                "value": "0x009f05562f8db20d35b609a89c85e162317f224a"
                            },
                            {
                                "decimalAvailable": true,
                                "name": "amount",
                                "type": "uint256",
                                "value": "55,200,000,000,000,000,000"
                            }
                        ],
                        "constructorArguments": "",
                        "name": "transfer",
                        "returnParams": [
                            {
                                "name": "",
                                "type": "bool",
                                "value": true
                            }
                        ],
                        "signature": "transfer(address,uint256)"
                    },
                    "errorInfo": "",
                    "fromAddress": "0x9d2134a64245542ae39dbad6cb0a248085333c03",
                    "gasUsed": 54623,
                    "id": 0,
                    "methodDecoded": true,
                    "operation": "CALL",
                    "output": "0x0000000000000000000000000000000000000000000000000000000000000001",
                    "revert": false,
                    "revertMessage": "",
                    "selector": "0xa9059cbb",
                    "status": true,
                    "value": "0"
                },
                "nodeType": 0
            },
            "1": {
                "event": {
                    "contract": "0xab4e1802c61e12fd7b10a69a226f5d727c76a8aa",
                    "decodedLog": {
                        "name": "Transfer",
                        "params": [
                            {
                                "name": "from",
                                "type": "address",
                                "value": "0x9d2134a64245542ae39dbad6cb0a248085333c03"
                            },
                            {
                                "name": "to",
                                "type": "address",
                                "value": "0x009f05562f8db20d35b609a89c85e162317f224a"
                            },
                            {
                                "decimalAvailable": true,
                                "name": "value",
                                "type": "uint256",
                                "value": "55,200,000,000,000,000,000"
                            }
                        ],
                        "signature": "Transfer(address,address,uint256)"
                    },
                    "id": 1,
                    "logData": "0x000000000000000000000000000000000000000000000002fe0dcb89b1900000",
                    "logDecoded": true,
                    "operation": "EVENT",
                    "revert": false,
                    "status": true,
                    "topics": [
                        "0xddf252ad1be2c89b69c2b068fc378daa952ba7f163c4a11628f55a4df523b3ef",
                        "0x0000000000000000000000009d2134a64245542ae39dbad6cb0a248085333c03",
                        "0x000000000000000000000000009f05562f8db20d35b609a89c85e162317f224a"
                    ]
                },
                "nodeType": 1
            }
        },
        "gasFlame": [
            {
                "children": [
                    {
                        "children": [
                            {
                                "children": [],
                                "depth": 0,
                                "name": "Initial Gas",
                                "value": 23192
                            },
                            {
                                "children": [],
                                "depth": 0,
                                "name": "Executed Gas",
                                "value": 31431
                            }
                        ],
                        "depth": -1,
                        "name": "Actual Gas Used",
                        "value": 54623
                    },
                    {
                        "children": [],
                        "depth": -1,
                        "name": "Refunded Gas",
                        "value": 0
                    }
                ],
                "depth": -2,
                "name": "Total Gas",
                "value": 54623
            }
        ],
        "isConfirmed": true,
        "mainTrace": [
            {
                "children": [
                    {
                        "children": [
                            {
                                "children": [],
                                "depth": 1,
                                "id": 1,
                                "order": 1
                            }
                        ],
                        "depth": 0,
                        "id": 0,
                        "order": 0
                    }
                ],
                "depth": -1,
                "id": -1,
                "order": -1
            }
        ],
        "mainTraceNodeCount": 2,
        "parentIdMap": {
            "0": -1,
            "1": 0
        },
        "tidyTrace": [
            {
                "children": [
                    {
                        "children": [
                            {
                                "children": [],
                                "depth": 1,
                                "id": 1,
                                "order": 1
                            }
                        ],
                        "depth": 0,
                        "id": 0,
                        "order": 0
                    }
                ],
                "depth": -1,
                "id": -1,
                "order": -1
            }
        ],
        "tidyTraceNodeCount": 2
    },
    "state_change": {
        "stateChanges": [
            {
                "address": "0xab4e1802c61e12fd7b10a69a226f5d727c76a8aa",
                "erc": "",
                "slots": [
                    {
                        "current": "0x00000000000000000000000000000000000000000003fbffb31ffbe9168f7000",
                        "key": "0x0635675f24337ebd1ca1ea0b40ed567772533da255d2fd3f15ecd43902554ed3",
                        "prev": "0x00000000000000000000000000000000000000000003fc02b12dc772c81f7000"
                    },
                    {
                        "current": "0x000000000000000000000000000000000000000000000002fe0dcb89b1900000",
                        "key": "0x4ce71fba2cecd49bb5b94466a4957448239a120329310665246455f0ed8c8fb9",
                        "prev": "0x0000000000000000000000000000000000000000000000000000000000000000"
                    }
                ],
                "storageVariables": []
            }
        ]
    }
}