{
    "balance_change": {
        "balanceChanges": [
            {
                "account": "0xaff69c67f5dbbdd088ccbc6d47cb9e0ea547e132",
                "assets": [
                    {
                        "address": "0xeeeeeeeeeeeeeeeeeeeeeeeeeeeeeeeeeeeeeeee",
                        "amount": "0.000602258320646648",
                        "iconUrl": "https://assets.blocksec.com/image/1663669189317-3.png",
                        "isERC1155": false,
                        "isERC721": false,
                        "sign": false,
                        "value": ""
                    }
                ]
            },
            {
                "account": "0x9018efb753f25f4f39c7da6f2acccd887d6a82a0",
                "assets": [
                    {
                        "address": "0xeeeeeeeeeeeeeeeeeeeeeeeeeeeeeeeeeeeeeeee",
                        "amount": "0.000602258320646648",
                        "iconUrl": "https://assets.blocksec.com/image/1663669189317-3.png",
                        "isERC1155": false,
                        "isERC721": false,
                        "sign": true,
                        "value": ""
                    }
                ]
            }
        ]
    },
    "profile": {
        "basic_info": {
            "baseFee": "",
            "blockNumber": 6262045,
            "callData": "0x82bfc7390000000000000000000000006f5e9486228f29a48d065f5a27888a31230a3c8800000000000000000000000000000000000000000000000000000000000000020000000000000000000000000000000000000000000000000047525bbf816c5b",
            "debugEnable": true,
            "errorInfo": "",
            "eventCount": 2,
            "feeRecipient": "0xea674fdde714fd979de3edf0f56aa9716b898ec8",
            "formatValue": "0",
            "gasLimit": 267432,
            "gasPrice": "3",
            "gasUsed": 190717,
            "intTxnCount": 1,
            "internalRevert": false,
            "internalRevertMessage": "",
            "isContractCreation": false,
            "isFlashloan": false,
            "maxFee": "",
            "nonce": 14,
            "overwritedBlockNumber": -1,
            "priorityFee": "",
            "receiver": "0xaff69c67f5dbbdd088ccbc6d47cb9e0ea547e132",
            "revertMessage": "",
            "sender": "0x2efd595b8a2206f5991ee954646cc141a484819d",
            "simulationEnable": true,
            "sourceTxnHash": "0x338354fccdacdd297f868a38ff5a4b8bc11709a3a3bd323f6e0ea06a4474938d",
            "status": true,
            "timestamp": "2018-09-03T02:59:08Z",
            "transactionFee": "0.000572151",
            "txnHash": "0x338354fccdacdd297f868a38ff5a4b8bc11709a3a3bd323f6e0ea06a4474938d",
            "txnIndex": 26,
            "type": 0,
            "value": "0"
        },
        "fund_flow": [
            {
                "amount": "0.000602258320646648",
                "from": "0xaff69c67f5dbbdd088ccbc6d47cb9e0ea547e132",
                "id": 1,
                "isERC1155": false,
                "isERC721": false,
                "isReverted": false,
                "order": 1,
                "to": "0x9018efb753f25f4f39c7da6f2acccd887d6a82a0",
                "token": "0xeeeeeeeeeeeeeeeeeeeeeeeeeeeeeeeeeeeeeeee"
            }
        ],
        "token_infos": [
            {
                "address": "0xc02aaa39b223fe8d0a0e5c4f27ead9083c756cc2",
                "decimals": 18
            },
            {
                "address": "0xeeeeeeeeeeeeeeeeeeeeeeeeeeeeeeeeeeeeeeee",
                "decimals": 18
            }
        ]
    },
    "address_label": {
        "labels": [
            {
                "address": "0xeeeeeeeeeeeeeeeeeeeeeeeeeeeeeeeeeeeeeeee",
                "label": "Ether"
            },
            {
                "address": "0xaff69c67f5dbbdd088ccbc6d47cb9e0ea547e132",
                "label": "Fomo"
            },
            {
                "address": "0x0000000000000000000000000000000000000001",
                "label": "Precompiled"
            },
            {
                "address": "0x0000000000000000000000000000000000000002",
                "label": "Precompiled"
            },
            {
                "address": "0x0000000000000000000000000000000000000003",
                "label": "Precompiled"
            },
            {
                "address": "0x0000000000000000000000000000000000000004",
                "label": "Precompiled"
            }
        ]
    },
    "trace": {
        "accountLabels": null,
        "dataMap": {
            "-1": {
                "invocation": {
                    "address": "0x2efd595b8a2206f5991ee954646cc141a484819d",
                    "callData": "",
                    "decodedMethod": null,
                    "errorInfo": "",
                    "fromAddress": "",
                    "gasUsed": 0,
                    "id": -1,
                    "methodDecoded": false,
                    "operation": "",
                    "output": "",
                    "revert": false,
                    "revertMessage": "",
                    "selector": "",
                    "status": false,
                    "value": ""
                },
                "nodeType": 0
            },
            "0": {
                "invocation": {
                    "address": "0xaff69c67f5dbbdd088ccbc6d47cb9e0ea547e132",
                    "callData": "0x0000000000000000000000006f5e9486228f29a48d065f5a27888a31230a3c8800000000000000000000000000000000000000000000000000000000000000020000000000000000000000000000000000000000000000000047525bbf816c5b",
                    "decodedMethod": {
                        "callParams": [
                            {
                                "name": "_affCode",
                                "type": "address",
                                "value": "0x6f5e9486228f29a48d065f5a27888a31230a3c88"
                            },
                            {
                                "name": "_team",
                                "type": "uint256",
                                "value": "2"
                            },
                            {
                                "name": "_eth",
                                "type": "uint256",
                                "value": "20,075,277,354,888,283"
                            }
                        ],
                        "constructorArguments": "",
                        "name": "reLoadXaddr",
                        "returnParams": [],
                        "signature": "reLoadXaddr(address,uint256,uint256)"
                    },
                    "errorInfo": "",
                    "fromAddress": "0x2efd595b8a2206f5991ee954646cc141a484819d",
                    "gasUsed": 190717,
                    "id": 0,
                    "methodDecoded": true,
                    "operation": "CALL",
                    "output": "",
                    "revert": false,
                    "revertMessage": "",
                    "selector": "0x82bfc739",
                    "status": true,
                    "value": "0"
                },
                "nodeType": 0
            },
            "1": {
                "invocation": {
                    "address": "0x9018efb753f25f4f39c7da6f2acccd887d6a82a0",
                    "callData": "0x",
                    "decodedMethod": null,
                    "errorInfo": "",
                    "fromAddress": "0xaff69c67f5dbbdd088ccbc6d47cb9e0ea547e132",
                    "gasUsed": 0,
                    "id": 1,
                    "methodDecoded": false,
                    "operation": "CALL",
                    "output": "",
                    "revert": false,
                    "revertMessage": "",
                    "selector": "fallback",
                    "status": true,
                    "value": "0.000602258320646648"
                },
                "nodeType": 0
            },
            "2": {
                "event": {
                    "contract": "0xaff69c67f5dbbdd088ccbc6d47cb9e0ea547e132",
                    "decodedLog": {
                        "name": "onAffiliatePayout",
                        "params": [
                            {
                                "name": "affiliateID",
                                "type": "uint256",
                                "value": "5"
                            },
                            {
                                "name": "roundID",
                                "type": "uint256",
                                "value": "1"
                            },
                            {
                                "name": "buyerID",
                                "type": "uint256",
                                "value": "228"
                            },
                            {
                                "name": "affiliateAddress",
                                "type": "address",
                                "value": "0x6f5e9486228f29a48d065f5a27888a31230a3c88"
                            },
                            {
                                "name": "affiliateName",
                                "type": "bytes32",
                                "value": "0x6261746d616e0000000000000000000000000000000000000000000000000000"
                            },
                            {
                                "name": "amount",
                                "type": "uint256",
                                "value": "3,011,291,603,233,242"
                            },
                            {
                                "name": "timeStamp",
                                "type": "uint256",
                                "value": "1,535,943,548"
                            }
                        ],
                        "signature": "onAffiliatePayout(uint256,address,bytes32,uint256,uint256,uint256,uint256)"
                    },
                    "id": 2,
                    "logData": "0x0000000000000000000000006f5e9486228f29a48d065f5a27888a31230a3c886261746d616e0000000000000000000000000000000000000000000000000000000000000000000000000000000000000000000000000000000ab2c0f65369da000000000000000000000000000000000000000000000000000000005b8ca37c",
                    "logDecoded": true,
                    "operation": "EVENT",
                    "revert": false,
                    "status": true,
                    "topics": [
                        "0x590bbc0fc16915a85269a48f74783c39842b7ae9eceb7c295c95dbe8b3ec7331",
                        "0x0000000000000000000000000000000000000000000000000000000000000005",
                        "0x0000000000000000000000000000000000000000000000000000000000000001",
                        "0x00000000000000000000000000000000000000000000000000000000000000e4"
                    ]
                },
                "nodeType": 1
            },
            "3": {
                "event": {
                    "contract": "0xaff69c67f5dbbdd088ccbc6d47cb9e0ea547e132",
                    "decodedLog": {
                        "name": "onEndTx",
                        "params": [
                            {
                                "name": "compressedData",
                                "type": "uint256",
                                "value": "201,535,943,548,000,000,000,000,000,100"
                            },
                            {
                                "name": "compressedIDs",
                                "type": "uint256",
                                "value": "10,000,000,000,000,000,000,000,000,000,000,000,000,000,000,000,000,228"
                            },
                            {
                                "name": "playerName",
                                "type": "bytes32",
                                "value": "0x62746320776f726c640000000000000000000000000000000000000000000000"
                            },
                            {
                                "name": "playerAddress",
                                "type": "address",
                                "value": "0x2efd595b8a2206f5991ee954646cc141a484819d"
                            },
                            {
                                "name": "ethIn",
                                "type": "uint256",
                                "value": "20,075,277,354,888,283"
                            },
                            {
                                "name": "keysBought",
                                "type": "uint256",
                                "value": "36,000,000,000,000,180,731"
                            },
                            {
                                "name": "winnerAddr",
                                "type": "address",
                                "value": "0x0000000000000000000000000000000000000000"
                            },
                            {
                                "name": "winnerName",
                                "type": "bytes32",
                                "value": "0x0000000000000000000000000000000000000000000000000000000000000000"
                            },
                            {
                                "name": "amountWon",
                                "type": "uint256",
                                "value": "0"
                            },
                            {
                                "name": "newPot",
                                "type": "uint256",
                                "value": "0"
                            },
                            {
                                "name": "P3DAmount",
                                "type": "uint256",
                                "value": "0"
                            },
                            {
                                "name": "genAmount",
                                "type": "uint256",
                                "value": "12,446,671,958,072,745"
                            },
                            {
                                "name": "potAmount",
                                "type": "uint256",
                                "value": "4,015,055,470,977,658"
                            },
                            {
                                "name": "airDropPot",
                                "type": "uint256",
                                "value": "0"
                            }
                        ],
                        "signature": "onEndTx(uint256,uint256,bytes32,address,uint256,uint256,address,bytes32,uint256,uint256,uint256,uint256,uint256,uint256)"
                    },
                    "id": 3,
                    "logData": "0x00000000000000000000000000000000000000028b32a00f6ed128df00700064000000000000000000001aba4714957d300d0e549208b31adb100000000000e462746320776f726c6400000000000000000000000000000000000000000000000000000000000000000000002efd595b8a2206f5991ee954646cc141a484819d0000000000000000000000000000000000000000000000000047525bbf816c5b000000000000000000000000000000000000000000000001f399b1438a12c1fb00000000000000000000000000000000000000000000000000000000000000000000000000000000000000000000000000000000000000000000000000000000000000000000000000000000000000000000000000000000000000000000000000000000000000000000000000000000000000000000000000000000000000000000000000000000000000000000000000000000000000000000000000000000000000000000000000000000000000000000000000000000002c382ea4b25da9000000000000000000000000000000000000000000000000000e43abf319e27a0000000000000000000000000000000000000000000000000000000000000000",
                    "logDecoded": true,
                    "operation": "EVENT",
                    "revert": false,
                    "status": true,
                    "topics": [
                        "0x500e72a0e114930aebdbcb371ccdbf43922c49f979794b5de4257ff7e310c746"
                    ]
                },
                "nodeType": 1
            }
        },
        "gasFlame": [
            {
                "children": [
                    {
                        "children": [
                            {
                                "children": [],
                                "depth": 0,
                                "name": "Initial Gas",
                                "value": 23448
                            },
                            {
                                "children": [
                                    {
                                        "children": [],
                                        "depth": 1,
                                        "name": "fallback",
                                        "value": 0
                                    }
                                ],
                                "depth": 0,
                                "name": "Executed Gas",
                                "value": 182269
                            }
                        ],
                        "depth": -1,
                        "name": "Actual Gas Used",
                        "value": 190717
                    },
                    {
                        "children": [],
                        "depth": -1,
                        "name": "Refunded Gas",
                        "value": 15000
                    }
                ],
                "depth": -2,
                "name": "Total Gas",
                "value": 205717
            }
        ],
        "isConfirmed": true,
        "mainTrace": [
            {
                "children": [
                    {
                        "children": [
                            {
                                "children": [],
                                "depth": 1,
                                "id": 1,
                                "order": 1
                            },
                            {
                                "children": [],
                                "depth": 1,
                                "id": 2,
                                "order": 2
                            },
                            {
                                "children": [],
                                "depth": 1,
                                "id": 3,
                                "order": 3
                            }
                        ],
                        "depth": 0,
                        "id": 0,
                        "order": 0
                    }
                ],
                "depth": -1,
                "id": -1,
                "order": -1
            }
        ],
        "mainTraceNodeCount": 4,
        "parentIdMap": {
            "0": -1,
            "1": 0,
            "2": 0,
            "3": 0
        },
        "tidyTrace": [
            {
                "children": [
                    {
                        "children": [
                            {
                                "children": [],
                                "depth": 1,
                                "id": 1,
                                "order": 1
                            },
                            {
                                "children": [],
                                "depth": 1,
                                "id": 2,
                                "order": 2
                            },
                            {
                                "children": [],
                                "depth": 1,
                                "id": 3,
                                "order": 3
                            }
                        ],
                        "depth": 0,
                        "id": 0,
                        "order": 0
                    }
                ],
                "depth": -1,
                "id": -1,
                "order": -1
            }
        ],
        "tidyTraceNodeCount": 4
    },
    "state_change": {
        "stateChanges": [
            {
                "address": "0xaff69c67f5dbbdd088ccbc6d47cb9e0ea547e132",
                "erc": "",
                "slots": [
                    {
                        "current": "0x000000000000000000000000000000000000000000000000000000005b8de300",
                        "key": "0xbbc70db1b6c7afd11e79c0fb0051300458f1a3acb8ee9789d9b6b26c61ad9bc9",
                        "prev": "0x000000000000000000000000000000000000000000000000000000005b8ddec8"
                    },
                    {
                        "current": "0x0000000000000000000000000000000000000000000000001aa7ccebc587215f",
                        "key": "0x3913ec71fe2fdae962f58b2ef922b9d78b49aeaaed60c8ed5052fcdbf763f258",
                        "prev": "0x0000000000000000000000000000000000000000000000001a607a900605b504"
                    },
                    {
                        "current": "0x000000000000000000000000000000000000000000000034dbd6cfb941b6d317",
                        "key": "0x9df0f1130baaf9831fe002174d6189491b54897c0714e1dc58ad37f5791ffbd0",
                        "prev": "0x000000000000000000000000000000000000000000000034db8f7d5d823566bc"
                    },
                    {
                        "current": "0x000000000000000000000000000000000000000000000000003b6e0a46fe7ca3",
                        "key": "0xbcdda56b5d08466ec462cbbe0adfa57cb0a15fcc8940ef68f702f21b787bc939",
                        "prev": "0x0000000000000000000000000000000000000000000000000030bb4950ab12c9"
                    },
                    {
                        "current": "0x000000000000000000000000000000000000000000000000000287c88e91e77f",
                        "key": "0xbbc70db1b6c7afd11e79c0fb0051300458f1a3acb8ee9789d9b6b26c61ad9bcf",
                        "prev": "0x000000000000000000000000000000000000000000000000000287c79e65fe01"
                    },
                    {
                        "current": "0x00000000000000000000000000000000000000000000000a9fb7c9ee51a69201",
                        "key": "0xbbc70db1b6c7afd11e79c0fb0051300458f1a3acb8ee9789d9b6b26c61ad9bce",
                        "prev": "0x00000000000000000000000000000000000000000000000a9fa986425e6ecf21"
                    },
                    {
                        "current": "0x0000000000000000000000000000000000000000000000000012d2ff7f0954df",
                        "key": "0x85ead359a994604a7181d5c27eb52cdbc9c0b3d18e944ed1b5ddf12f88d217f3",
                        "prev": "0x000000000000000000000000000000000000000000000000000b0b5ed733fc7f"
                    },
                    {
                        "current": "0x00000000000000000000000000000000000000000000000028adc73d0990cb18",
                        "key": "0x3913ec71fe2fdae962f58b2ef922b9d78b49aeaaed60c8ed5052fcdbf763f25a",
                        "prev": "0x0000000000000000000000000000000000000000000000002803952e5be24db9"
                    },
                    {
                        "current": "0x00000000000000000000000000000000000000000000000000000000000000e4",
                        "key": "0xbbc70db1b6c7afd11e79c0fb0051300458f1a3acb8ee9789d9b6b26c61ad9bc7",
                        "prev": "0x0000000000000000000000000000000000000000000000000000000000000182"
                    },
                    {
                        "current": "0x0000000000000000000000000000000000000000000000df19d049f55a562160",
                        "key": "0x3913ec71fe2fdae962f58b2ef922b9d78b49aeaaed60c8ed5052fcdbf763f259",
                        "prev": "0x0000000000000000000000000000000000000000000000dd263698b1d0435f65"
                    },
                    {
                        "current": "0x000000000000000000000000000000000000000000028e1cad949c266879e83e",
                        "key": "0xbbc70db1b6c7afd11e79c0fb0051300458f1a3acb8ee9789d9b6b26c61ad9bcc",
                        "prev": "0x000000000000000000000000000000000000000000028e1ab9faeae2de672643"
                    },
                    {
                        "current": "0x000000000000000000000000000000000000000000000034f82b63ea88c9d2e8",
                        "key": "0xbbc70db1b6c7afd11e79c0fb0051300458f1a3acb8ee9789d9b6b26c61ad9bcd",
                        "prev": "0x000000000000000000000000000000000000000000000034f7e4118ec948668d"
                    }
                ],
                "storageVariables": [
                    {
                        "name": "plyr_",
                        "type": "mapping(uint256 => struct F3Ddatasets.Player)",
                        "value": {
                            "pairs": [
                                {
                                    "key": "228",
                                    "value": {
                                        "fields": [
                                            {
                                                "name": "gen",
                                                "type": "uint256",
                                                "value": {
                                                    "current": "5298544370603231",
                                                    "prev": "3108726709156991",
                                                    "typeTag": 1
                                                }
                                            }
                                        ],
                                        "typeTag": 3
                                    }
                                },
                                {
                                    "key": "5",
                                    "value": {
                                        "fields": [
                                            {
                                                "name": "aff",
                                                "type": "uint256",
                                                "value": {
                                                    "current": "16728014045740195",
                                                    "prev": "13716722442506953",
                                                    "typeTag": 1
                                                }
                                            }
                                        ],
                                        "typeTag": 3
                                    }
                                }
                            ],
                            "typeTag": 4
                        }
                    },
                    {
                        "name": "round_",
                        "type": "mapping(uint256 => struct F3Ddatasets.Round)",
                        "value": {
                            "pairs": [
                                {
                                    "key": "1",
                                    "value": {
                                        "fields": [
                                            {
                                                "name": "plyr",
                                                "type": "uint256",
                                                "value": {
                                                    "current": "228",
                                                    "prev": "386",
                                                    "typeTag": 1
                                                }
                                            },
                                            {
                                                "name": "end",
                                                "type": "uint256",
                                                "value": {
                                                    "current": "1536025344",
                                                    "prev": "1536024264",
                                                    "typeTag": 1
                                                }
                                            },
                                            {
                                                "name": "keys",
                                                "type": "uint256",
                                                "value": {
                                                    "current": "3088956696424565727422526",
                                                    "prev": "3088920696424565727241795",
                                                    "typeTag": 1
                                                }
                                            },
                                            {
                                                "name": "eth",
                                                "type": "uint256",
                                                "value": {
                                                    "current": "977113188437269795560",
                                                    "prev": "977093113159914907277",
                                                    "typeTag": 1
                                                }
                                            },
                                            {
                                                "name": "pot",
                                                "type": "uint256",
                                                "value": {
                                                    "current": "195976330135273378305",
                                                    "prev": "195972315079800442657",
                                                    "typeTag": 1
                                                }
                                            },
                                            {
                                                "name": "mask",
                                                "type": "uint256",
                                                "value": {
                                                    "current": "712245408556927",
                                                    "prev": "712241379147265",
                                                    "typeTag": 1
                                                }
                                            }
                                        ],
                                        "typeTag": 3
                                    }
                                }
                            ],
                            "typeTag": 4
                        }
                    },
                    {
                        "name": "plyrRnds_",
                        "type": "mapping(uint256 => mapping(uint256 => struct F3Ddatasets.PlayerRounds))",
                        "value": {
                            "pairs": [
                                {
                                    "key": "228",
                                    "value": {
                                        "pairs": [
                                            {
                                                "key": "1",
                                                "value": {
                                                    "fields": [
                                                        {
                                                            "name": "eth",
                                                            "type": "uint256",
                                                            "value": {
                                                                "current": "1920729079100154207",
                                                                "prev": "1900653801745265924",
                                                                "typeTag": 1
                                                            }
                                                        },
                                                        {
                                                            "name": "keys",
                                                            "type": "uint256",
                                                            "value": {
                                                                "current": "4115483996401465434464",
                                                                "prev": "4079483996401465253733",
                                                                "typeTag": 1
                                                            }
                                                        },
                                                        {
                                                            "name": "mask",
                                                            "type": "uint256",
                                                            "value": {
                                                                "current": "2931217997455477528",
                                                                "prev": "2883312212789841337",
                                                                "typeTag": 1
                                                            }
                                                        }
                                                    ],
                                                    "typeTag": 3
                                                }
                                            }
                                        ],
                                        "typeTag": 4
                                    }
                                }
                            ],
                            "typeTag": 4
                        }
                    },
                    {
                        "name": "rndTmEth_",
                        "type": "mapping(uint256 => mapping(uint256 => uint256))",
                        "value": {
                            "pairs": [
                                {
                                    "key": "1",
                                    "value": {
                                        "pairs": [
                                            {
                                                "key": "2",
                                                "value": {
                                                    "current": "975071768966797382423",
                                                    "prev": "975051693689442494140",
                                                    "typeTag": 1
                                                }
                                            }
                                        ],
                                        "typeTag": 4
                                    }
                                }
                            ],
                            "typeTag": 4
                        }
                    }
                ]
            }
        ]
    }
}