{
    "balance_change": {
        "balanceChanges": [
            {
                "account": "0xb193d90ca445bc91652aae5f07b50b70efd354b6",
                "assets": [
                    {
                        "address": "0xbecaef53f18ec2d8668670383e2eee75f9d2367e",
                        "amount": "3,925,294.108663145767736363",
                        "iconUrl": "",
                        "isERC1155": false,
                        "isERC721": false,
                        "sign": false,
                        "value": "4916.528298"
                    },
                    {
                        "address": "0xeeeeeeeeeeeeeeeeeeeeeeeeeeeeeeeeeeeeeeee",
                        "amount": "2.116252504082327087",
                        "iconUrl": "https://assets.blocksec.com/image/1663669189317-3.png",
                        "isERC1155": false,
                        "isERC721": false,
                        "sign": true,
                        "value": "4878.421502463668047"
                    }
                ]
            },
            {
                "account": "0x3328f7f4a1d1c57c35df56bbf0c9dcafca309c49",
                "assets": [
                    {
                        "address": "0xeeeeeeeeeeeeeeeeeeeeeeeeeeeeeeeeeeeeeeee",
                        "amount": "0.01063443469388104",
                        "iconUrl": "https://assets.blocksec.com/image/1663669189317-3.png",
                        "isERC1155": false,
                        "isERC721": false,
                        "sign": true,
                        "value": "24.514680908909890622"
                    }
                ]
            },
            {
                "account": "0xc02aaa39b223fe8d0a0e5c4f27ead9083c756cc2",
                "assets": [
                    {
                        "address": "0xeeeeeeeeeeeeeeeeeeeeeeeeeeeeeeeeeeeeeeee",
                        "amount": "2.126886938776208127",
                        "iconUrl": "https://assets.blocksec.com/image/1663669189317-3.png",
                        "isERC1155": false,
                        "isERC721": false,
                        "sign": false,
                        "value": "4902.9361840871952447"
                    },
                    {
                        "address": "0xc02aaa39b223fe8d0a0e5c4f27ead9083c756cc2",
                        "amount": "2.126886938776208127",
                        "iconUrl": "https://assets.blocksec.com/icon/f1cb2d02c471d545bbc7722daf3277fd852d98e63d118771af7047bd8256c516.png",
                        "isERC1155": false,
                        "isERC721": false,
                        "sign": true,
                        "value": "4902.9361840871952447"
                    }
                ]
            },
            {
                "account": "0xcc335bb8dc9cabe62bd8e30b6fb461ae2c25b16f",
                "assets": [
                    {
                        "address": "0xbecaef53f18ec2d8668670383e2eee75f9d2367e",
                        "amount": "3,925,294.108663145767736363",
                        "iconUrl": "",
                        "isERC1155": false,
                        "isERC721": false,
                        "sign": true,
                        "value": "4916.528298"
                    },
                    {
                        "address": "0xc02aaa39b223fe8d0a0e5c4f27ead9083c756cc2",
                        "amount": "2.126886938776208127",
                        "iconUrl": "https://assets.blocksec.com/icon/f1cb2d02c471d545bbc7722daf3277fd852d98e63d118771af7047bd8256c516.png",
                        "isERC1155": false,
                        "isERC721": false,
                        "sign": false,
                        "value": "4902.9361840871952447"
                    }
                ]
            }
        ]
    },
    "profile": {
        "basic_info": {
            "baseFee": "11.262041538",
            "blockNumber": 19117330,
            "callData": "0x75713a08000000000000000000000000becaef53f18ec2d8668670383e2eee75f9d2367e000000000000000000000000c02aaa39b223fe8d0a0e5c4f27ead9083c756cc20000000000000000000000007a250d5630b4cf539739df2c5dacb4c659f2488d000000000000000000000000cc335bb8dc9cabe62bd8e30b6fb461ae2c25b16f000000000000000000000000000000000000000000033f369eb9299eb3a1942b00000000000000000000000000000000000000000000000016e50e72cfc7f856000000000000000000000000c465cc50b7d5a29b9308968f870a4b242a8e187300000000000000000000000000000000000000000000000000000000000001200000000000000000000000000000000000000000000000000000000000000005000000000000000000000000000000000000000000000000000000000000000600000000000000000000000000000000000000000000000000000000000000000000000000000000000000000000000000000000000000000000000000000001000000000000000000000000000000000000000000000000000000000000000000000000000000000000000000000000000000000000000000000000000000000000000000000000000000000000000000000000000000000000000065b88d770000000000000000000000000000000000000000000000000000000000000000",
            "debugEnable": true,
            "errorInfo": "",
            "eventCount": 8,
            "feeRecipient": "0x95222290dd7278aa3ddd389cc1e1d165cc4bafe5",
            "formatValue": "0",
            "gasLimit": 276077,
            "gasPrice": "122.262041538",
            "gasUsed": 168954,
            "intTxnCount": 15,
            "internalRevert": false,
            "internalRevertMessage": "",
            "isContractCreation": false,
            "isFlashloan": false,
            "maxFee": "122.262041538",
            "nonce": 3190,
            "overwritedBlockNumber": -1,
            "priorityFee": "111",
            "receiver": "0x3328f7f4a1d1c57c35df56bbf0c9dcafca309c49",
            "revertMessage": "",
            "sender": "0xb193d90ca445bc91652aae5f07b50b70efd354b6",
            "simulationEnable": true,
            "sourceTxnHash": "0x33b093b3b6457518725181616b240fc296bb38a37be622bfa80d33662d8bbc7b",
            "status": true,
            "timestamp": "2024-01-30T05:47:35Z",
            "transactionFee": "0.020656660966011252",
            "txnHash": "0x33b093b3b6457518725181616b240fc296bb38a37be622bfa80d33662d8bbc7b",
            "txnIndex": 10,
            "type": 2,
            "value": "0"
        },
        "fund_flow": [
            {
                "amount": "3,925,294.108663145767736363",
                "from": "0xb193d90ca445bc91652aae5f07b50b70efd354b6",
                "id": 1,
                "isERC1155": false,
                "isERC721": false,
                "isReverted": false,
                "order": 1,
                "to": "0xcc335bb8dc9cabe62bd8e30b6fb461ae2c25b16f",
                "token": "0xbecaef53f18ec2d8668670383e2eee75f9d2367e"
            },
            {
                "amount": "2.126886938776208127",
                "from": "0xcc335bb8dc9cabe62bd8e30b6fb461ae2c25b16f",
                "id": 2,
                "isERC1155": false,
                "isERC721": false,
                "isReverted": false,
                "order": 2,
                "to": "0x3328f7f4a1d1c57c35df56bbf0c9dcafca309c49",
                "token": "0xc02aaa39b223fe8d0a0e5c4f27ead9083c756cc2"
            },
            {
                "amount": "2.126886938776208127",
                "from": "0xc02aaa39b223fe8d0a0e5c4f27ead9083c756cc2",
                "id": 3,
                "isERC1155": false,
                "isERC721": false,
                "isReverted": false,
                "order": 3,
                "to": "0x3328f7f4a1d1c57c35df56bbf0c9dcafca309c49",
                "token": "0xeeeeeeeeeeeeeeeeeeeeeeeeeeeeeeeeeeeeeeee"
            },
            {
                "amount": "2.126886938776208127",
                "from": "0x3328f7f4a1d1c57c35df56bbf0c9dcafca309c49",
                "id": 4,
                "isERC1155": false,
                "isERC721": false,
                "isReverted": false,
                "order": 4,
                "to": "0xc02aaa39b223fe8d0a0e5c4f27ead9083c756cc2",
                "token": "0xc02aaa39b223fe8d0a0e5c4f27ead9083c756cc2"
            },
            {
                "amount": "2.116252504082327087",
                "from": "0x3328f7f4a1d1c57c35df56bbf0c9dcafca309c49",
                "id": 5,
                "isERC1155": false,
                "isERC721": false,
                "isReverted": false,
                "order": 5,
                "to": "0xb193d90ca445bc91652aae5f07b50b70efd354b6",
                "token": "0xeeeeeeeeeeeeeeeeeeeeeeeeeeeeeeeeeeeeeeee"
            }
        ],
        "token_infos": [
            {
                "address": "0xc02aaa39b223fe8d0a0e5c4f27ead9083c756cc2",
                "decimals": 18
            },
            {
                "address": "0xeeeeeeeeeeeeeeeeeeeeeeeeeeeeeeeeeeeeeeee",
                "decimals": 18
            },
            {
                "address": "0xbecaef53f18ec2d8668670383e2eee75f9d2367e",
                "decimals": 18
            }
        ]
    },
    "address_label": {
        "labels": [
            {
                "address": "0xc02aaa39b223fe8d0a0e5c4f27ead9083c756cc2",
                "label": "Wrapped Ether (WETH)"
            },
            {
                "address": "0x3328f7f4a1d1c57c35df56bbf0c9dcafca309c49",
                "label": "Banana Gun: Router 2"
            },
            {
                "address": "0x0000000000000000000000000000000000000004",
                "label": "Precompiled"
            },
            {
                "address": "0xeeeeeeeeeeeeeeeeeeeeeeeeeeeeeeeeeeeeeeee",
                "label": "Ether"
            },
            {
                "address": "0xcc335bb8dc9cabe62bd8e30b6fb461ae2c25b16f",
                "label": "Uniswap V2: Telepathy 15"
            },
            {
                "address": "0xbecaef53f18ec2d8668670383e2eee75f9d2367e",
                "label": "Telepathy"
            },
            {
                "address": "0x0000000000000000000000000000000000000001",
                "label": "Precompiled"
            },
            {
                "address": "0x0000000000000000000000000000000000000002",
                "label": "Precompiled"
            },
            {
                "address": "0x0000000000000000000000000000000000000003",
                "label": "Precompiled"
            }
        ]
    },
    "trace": {
        "accountLabels": null,
        "dataMap": {
            "-1": {
                "invocation": {
                    "address": "0xb193d90ca445bc91652aae5f07b50b70efd354b6",
                    "callData": "",
                    "decodedMethod": null,
                    "errorInfo": "",
                    "fromAddress": "",
                    "gasUsed": 0,
                    "id": -1,
                    "methodDecoded": false,
                    "operation": "",
                    "output": "",
                    "revert": false,
                    "revertMessage": "",
                    "selector": "",
                    "status": false,
                    "value": ""
                },
                "nodeType": 0
            },
            "0": {
                "invocation": {
                    "address": "0x3328f7f4a1d1c57c35df56bbf0c9dcafca309c49",
                    "callData": "0x000000000000000000000000becaef53f18ec2d8668670383e2eee75f9d2367e000000000000000000000000c02aaa39b223fe8d0a0e5c4f27ead9083c756cc20000000000000000000000007a250d5630b4cf539739df2c5dacb4c659f2488d000000000000000000000000cc335bb8dc9cabe62bd8e30b6fb461ae2c25b16f000000000000000000000000000000000000000000033f369eb9299eb3a1942b00000000000000000000000000000000000000000000000016e50e72cfc7f856000000000000000000000000c465cc50b7d5a29b9308968f870a4b242a8e187300000000000000000000000000000000000000000000000000000000000001200000000000000000000000000000000000000000000000000000000000000005000000000000000000000000000000000000000000000000000000000000000600000000000000000000000000000000000000000000000000000000000000000000000000000000000000000000000000000000000000000000000000000001000000000000000000000000000000000000000000000000000000000000000000000000000000000000000000000000000000000000000000000000000000000000000000000000000000000000000000000000000000000000000065b88d770000000000000000000000000000000000000000000000000000000000000000",
                    "decodedMethod": null,
                    "errorInfo": "",
                    "fromAddress": "0xb193d90ca445bc91652aae5f07b50b70efd354b6",
                    "gasUsed": 168954,
                    "id": 0,
                    "methodDecoded": false,
                    "operation": "CALL",
                    "output": "",
                    "revert": false,
                    "revertMessage": "",
                    "selector": "0x75713a08",
                    "status": true,
                    "value": "0"
                },
                "nodeType": 0
            },
            "1": {
                "invocation": {
                    "address": "0xbcd3a47e4d0000cf170e25d1bd3d53f7c08be0a6",
                    "callData": "0x000000000000000000000000becaef53f18ec2d8668670383e2eee75f9d2367e000000000000000000000000c02aaa39b223fe8d0a0e5c4f27ead9083c756cc20000000000000000000000007a250d5630b4cf539739df2c5dacb4c659f2488d000000000000000000000000cc335bb8dc9cabe62bd8e30b6fb461ae2c25b16f000000000000000000000000000000000000000000033f369eb9299eb3a1942b00000000000000000000000000000000000000000000000016e50e72cfc7f856000000000000000000000000c465cc50b7d5a29b9308968f870a4b242a8e187300000000000000000000000000000000000000000000000000000000000001200000000000000000000000000000000000000000000000000000000000000005000000000000000000000000000000000000000000000000000000000000000600000000000000000000000000000000000000000000000000000000000000000000000000000000000000000000000000000000000000000000000000000001000000000000000000000000000000000000000000000000000000000000000000000000000000000000000000000000000000000000000000000000000000000000000000000000000000000000000000000000000000000000000065b88d770000000000000000000000000000000000000000000000000000000000000000",
                    "decodedMethod": null,
                    "errorInfo": "",
                    "fromAddress": "0x3328f7f4a1d1c57c35df56bbf0c9dcafca309c49",
                    "gasUsed": 159762,
                    "id": 1,
                    "methodDecoded": false,
                    "operation": "DELEGATECALL",
                    "output": "",
                    "revert": false,
                    "revertMessage": "",
                    "selector": "0x75713a08",
                    "status": true,
                    "value": "0"
                },
                "nodeType": 0
            },
            "10": {
                "invocation": {
                    "address": "0xc02aaa39b223fe8d0a0e5c4f27ead9083c756cc2",
                    "callData": "0x0000000000000000000000003328f7f4a1d1c57c35df56bbf0c9dcafca309c490000000000000000000000000000000000000000000000001d843866ef2c82ff",
                    "decodedMethod": {
                        "callParams": [
                            {
                                "name": "dst",
                                "type": "address",
                                "value": "0x3328f7f4a1d1c57c35df56bbf0c9dcafca309c49"
                            },
                            {
                                "decimalAvailable": true,
                                "name": "wad",
                                "type": "uint256",
                                "value": "2,126,886,938,776,208,127"
                            }
                        ],
                        "constructorArguments": "",
                        "name": "transfer",
                        "returnParams": [
                            {
                                "name": "",
                                "type": "bool",
                                "value": true
                            }
                        ],
                        "signature": "transfer(address,uint256)"
                    },
                    "errorInfo": "",
                    "fromAddress": "0xcc335bb8dc9cabe62bd8e30b6fb461ae2c25b16f",
                    "gasUsed": 29962,
                    "id": 10,
                    "methodDecoded": true,
                    "operation": "CALL",
                    "output": "0x0000000000000000000000000000000000000000000000000000000000000001",
                    "revert": false,
                    "revertMessage": "",
                    "selector": "0xa9059cbb",
                    "status": true,
                    "value": "0"
                },
                "nodeType": 0
            },
            "11": {
                "event": {
                    "contract": "0xc02aaa39b223fe8d0a0e5c4f27ead9083c756cc2",
                    "decodedLog": {
                        "name": "Transfer",
                        "params": [
                            {
                                "name": "src",
                                "type": "address",
                                "value": "0xcc335bb8dc9cabe62bd8e30b6fb461ae2c25b16f"
                            },
                            {
                                "name": "dst",
                                "type": "address",
                                "value": "0x3328f7f4a1d1c57c35df56bbf0c9dcafca309c49"
                            },
                            {
                                "decimalAvailable": true,
                                "name": "wad",
                                "type": "uint256",
                                "value": "2,126,886,938,776,208,127"
                            }
                        ],
                        "signature": "Transfer(address,address,uint256)"
                    },
                    "id": 11,
                    "logData": "0x0000000000000000000000000000000000000000000000001d843866ef2c82ff",
                    "logDecoded": true,
                    "operation": "EVENT",
                    "revert": false,
                    "status": true,
                    "topics": [
                        "0xddf252ad1be2c89b69c2b068fc378daa952ba7f163c4a11628f55a4df523b3ef",
                        "0x000000000000000000000000cc335bb8dc9cabe62bd8e30b6fb461ae2c25b16f",
                        "0x0000000000000000000000003328f7f4a1d1c57c35df56bbf0c9dcafca309c49"
                    ]
                },
                "nodeType": 1
            },
            "12": {
                "invocation": {
                    "address": "0xbecaef53f18ec2d8668670383e2eee75f9d2367e",
                    "callData": "0x000000000000000000000000cc335bb8dc9cabe62bd8e30b6fb461ae2c25b16f",
                    "decodedMethod": {
                        "callParams": [
                            {
                                "name": "account",
                                "type": "address",
                                "value": "0xcc335bb8dc9cabe62bd8e30b6fb461ae2c25b16f"
                            }
                        ],
                        "constructorArguments": "",
                        "name": "balanceOf",
                        "returnParams": [
                            {
                                "decimalAvailable": true,
                                "name": "",
                                "type": "uint256",
                                "value": "50,741,668,560,036,642,220,091,684"
                            }
                        ],
                        "signature": "balanceOf(address)"
                    },
                    "errorInfo": "",
                    "fromAddress": "0xcc335bb8dc9cabe62bd8e30b6fb461ae2c25b16f",
                    "gasUsed": 668,
                    "id": 12,
                    "methodDecoded": true,
                    "operation": "STATICCALL",
                    "output": "0x00000000000000000000000000000000000000000029f8f75d4a674b80cb2924",
                    "revert": false,
                    "revertMessage": "",
                    "selector": "0x70a08231",
                    "status": true,
                    "value": "0"
                },
                "nodeType": 0
            },
            "13": {
                "invocation": {
                    "address": "0xc02aaa39b223fe8d0a0e5c4f27ead9083c756cc2",
                    "callData": "0x000000000000000000000000cc335bb8dc9cabe62bd8e30b6fb461ae2c25b16f",
                    "decodedMethod": {
                        "callParams": [
                            {
                                "name": "",
                                "type": "address",
                                "value": "0xcc335bb8dc9cabe62bd8e30b6fb461ae2c25b16f"
                            }
                        ],
                        "constructorArguments": "",
                        "name": "balanceOf",
                        "returnParams": [
                            {
                                "decimalAvailable": true,
                                "name": "",
                                "type": "uint256",
                                "value": "25,443,381,014,907,801,560"
                            }
                        ],
                        "signature": "balanceOf(address)"
                    },
                    "errorInfo": "",
                    "fromAddress": "0xcc335bb8dc9cabe62bd8e30b6fb461ae2c25b16f",
                    "gasUsed": 534,
                    "id": 13,
                    "methodDecoded": true,
                    "operation": "STATICCALL",
                    "output": "0x00000000000000000000000000000000000000000000000161190c3a6e7f4fd8",
                    "revert": false,
                    "revertMessage": "",
                    "selector": "0x70a08231",
                    "status": true,
                    "value": "0"
                },
                "nodeType": 0
            },
            "14": {
                "event": {
                    "contract": "0xcc335bb8dc9cabe62bd8e30b6fb461ae2c25b16f",
                    "decodedLog": {
                        "name": "Sync",
                        "params": [
                            {
                                "name": "reserve0",
                                "type": "uint112",
                                "value": "50,741,668,560,036,642,220,091,684"
                            },
                            {
                                "name": "reserve1",
                                "type": "uint112",
                                "value": "25,443,381,014,907,801,560"
                            }
                        ],
                        "signature": "Sync(uint112,uint112)"
                    },
                    "id": 14,
                    "logData": "0x00000000000000000000000000000000000000000029f8f75d4a674b80cb292400000000000000000000000000000000000000000000000161190c3a6e7f4fd8",
                    "logDecoded": true,
                    "operation": "EVENT",
                    "revert": false,
                    "status": true,
                    "topics": [
                        "0x1c411e9a96e071241c2f21f7726b17ae89e3cab4c78be50e062b03a9fffbbad1"
                    ]
                },
                "nodeType": 1
            },
            "15": {
                "event": {
                    "contract": "0xcc335bb8dc9cabe62bd8e30b6fb461ae2c25b16f",
                    "decodedLog": {
                        "name": "Swap",
                        "params": [
                            {
                                "name": "sender",
                                "type": "address",
                                "value": "0x3328f7f4a1d1c57c35df56bbf0c9dcafca309c49"
                            },
                            {
                                "name": "to",
                                "type": "address",
                                "value": "0x3328f7f4a1d1c57c35df56bbf0c9dcafca309c49"
                            },
                            {
                                "name": "amount0In",
                                "type": "uint256",
                                "value": "3,925,294,108,663,145,767,736,363"
                            },
                            {
                                "name": "amount1In",
                                "type": "uint256",
                                "value": "0"
                            },
                            {
                                "name": "amount0Out",
                                "type": "uint256",
                                "value": "0"
                            },
                            {
                                "name": "amount1Out",
                                "type": "uint256",
                                "value": "2,126,886,938,776,208,127"
                            }
                        ],
                        "signature": "Swap(address,uint256,uint256,uint256,uint256,address)"
                    },
                    "id": 15,
                    "logData": "0x000000000000000000000000000000000000000000033f369eb9299eb3a1942b000000000000000000000000000000000000000000000000000000000000000000000000000000000000000000000000000000000000000000000000000000000000000000000000000000000000000000000000000000001d843866ef2c82ff",
                    "logDecoded": true,
                    "operation": "EVENT",
                    "revert": false,
                    "status": true,
                    "topics": [
                        "0xd78ad95fa46c994b6551d0da85fc275fe613ce37657fb8d5e3d130840159d822",
                        "0x0000000000000000000000003328f7f4a1d1c57c35df56bbf0c9dcafca309c49",
                        "0x0000000000000000000000003328f7f4a1d1c57c35df56bbf0c9dcafca309c49"
                    ]
                },
                "nodeType": 1
            },
            "16": {
                "invocation": {
                    "address": "0xc02aaa39b223fe8d0a0e5c4f27ead9083c756cc2",
                    "callData": "0x0000000000000000000000003328f7f4a1d1c57c35df56bbf0c9dcafca309c49",
                    "decodedMethod": {
                        "callParams": [
                            {
                                "name": "",
                                "type": "address",
                                "value": "0x3328f7f4a1d1c57c35df56bbf0c9dcafca309c49"
                            }
                        ],
                        "constructorArguments": "",
                        "name": "balanceOf",
                        "returnParams": [
                            {
                                "decimalAvailable": true,
                                "name": "",
                                "type": "uint256",
                                "value": "2,126,886,938,776,208,127"
                            }
                        ],
                        "signature": "balanceOf(address)"
                    },
                    "errorInfo": "",
                    "fromAddress": "0x3328f7f4a1d1c57c35df56bbf0c9dcafca309c49",
                    "gasUsed": 534,
                    "id": 16,
                    "methodDecoded": true,
                    "operation": "STATICCALL",
                    "output": "0x0000000000000000000000000000000000000000000000001d843866ef2c82ff",
                    "revert": false,
                    "revertMessage": "",
                    "selector": "0x70a08231",
                    "status": true,
                    "value": "0"
                },
                "nodeType": 0
            },
            "17": {
                "invocation": {
                    "address": "0xc02aaa39b223fe8d0a0e5c4f27ead9083c756cc2",
                    "callData": "0x0000000000000000000000000000000000000000000000001d843866ef2c82ff",
                    "decodedMethod": {
                        "callParams": [
                            {
                                "name": "wad",
                                "type": "uint256",
                                "value": "2,126,886,938,776,208,127"
                            }
                        ],
                        "constructorArguments": "",
                        "name": "withdraw",
                        "returnParams": [],
                        "signature": "withdraw(uint256)"
                    },
                    "errorInfo": "",
                    "fromAddress": "0x3328f7f4a1d1c57c35df56bbf0c9dcafca309c49",
                    "gasUsed": 9856,
                    "id": 17,
                    "methodDecoded": true,
                    "operation": "CALL",
                    "output": "",
                    "revert": false,
                    "revertMessage": "",
                    "selector": "0x2e1a7d4d",
                    "status": true,
                    "value": "0"
                },
                "nodeType": 0
            },
            "18": {
                "invocation": {
                    "address": "0x3328f7f4a1d1c57c35df56bbf0c9dcafca309c49",
                    "callData": "0x",
                    "decodedMethod": null,
                    "errorInfo": "",
                    "fromAddress": "0xc02aaa39b223fe8d0a0e5c4f27ead9083c756cc2",
                    "gasUsed": 716,
                    "id": 18,
                    "methodDecoded": false,
                    "operation": "CALL",
                    "output": "",
                    "revert": false,
                    "revertMessage": "",
                    "selector": "fallback",
                    "status": true,
                    "value": "2.126886938776208127"
                },
                "nodeType": 0
            },
            "19": {
                "invocation": {
                    "address": "0xbcd3a47e4d0000cf170e25d1bd3d53f7c08be0a6",
                    "callData": "0x",
                    "decodedMethod": null,
                    "errorInfo": "",
                    "fromAddress": "0x3328f7f4a1d1c57c35df56bbf0c9dcafca309c49",
                    "gasUsed": 55,
                    "id": 19,
                    "methodDecoded": false,
                    "operation": "DELEGATECALL",
                    "output": "",
                    "revert": false,
                    "revertMessage": "",
                    "selector": "fallback",
                    "status": true,
                    "value": "2.126886938776208127"
                },
                "nodeType": 0
            },
            "2": {
                "invocation": {
                    "address": "0xbecaef53f18ec2d8668670383e2eee75f9d2367e",
                    "callData": "0x000000000000000000000000b193d90ca445bc91652aae5f07b50b70efd354b6",
                    "decodedMethod": {
                        "callParams": [
                            {
                                "name": "account",
                                "type": "address",
                                "value": "0xb193d90ca445bc91652aae5f07b50b70efd354b6"
                            }
                        ],
                        "constructorArguments": "",
                        "name": "balanceOf",
                        "returnParams": [
                            {
                                "decimalAvailable": true,
                                "name": "",
                                "type": "uint256",
                                "value": "5,024,056,968,540,161,854,739,461"
                            }
                        ],
                        "signature": "balanceOf(address)"
                    },
                    "errorInfo": "",
                    "fromAddress": "0x3328f7f4a1d1c57c35df56bbf0c9dcafca309c49",
                    "gasUsed": 2668,
                    "id": 2,
                    "methodDecoded": true,
                    "operation": "STATICCALL",
                    "output": "0x0000000000000000000000000000000000000000000427e2ac8b34a2ebed1405",
                    "revert": false,
                    "revertMessage": "",
                    "selector": "0x70a08231",
                    "status": true,
                    "value": "0"
                },
                "nodeType": 0
            },
            "20": {
                "event": {
                    "contract": "0xc02aaa39b223fe8d0a0e5c4f27ead9083c756cc2",
                    "decodedLog": {
                        "name": "Withdrawal",
                        "params": [
                            {
                                "name": "src",
                                "type": "address",
                                "value": "0x3328f7f4a1d1c57c35df56bbf0c9dcafca309c49"
                            },
                            {
                                "name": "wad",
                                "type": "uint256",
                                "value": "2,126,886,938,776,208,127"
                            }
                        ],
                        "signature": "Withdrawal(address,uint256)"
                    },
                    "id": 20,
                    "logData": "0x0000000000000000000000000000000000000000000000001d843866ef2c82ff",
                    "logDecoded": true,
                    "operation": "EVENT",
                    "revert": false,
                    "status": true,
                    "topics": [
                        "0x7fcf532c15f0a6db0bd6d0e038bea71d30d808c7d98cb3bf7268a95bf5081b65",
                        "0x0000000000000000000000003328f7f4a1d1c57c35df56bbf0c9dcafca309c49"
                    ]
                },
                "nodeType": 1
            },
            "21": {
                "invocation": {
                    "address": "0xb193d90ca445bc91652aae5f07b50b70efd354b6",
                    "callData": "0x",
                    "decodedMethod": null,
                    "errorInfo": "",
                    "fromAddress": "0x3328f7f4a1d1c57c35df56bbf0c9dcafca309c49",
                    "gasUsed": 0,
                    "id": 21,
                    "methodDecoded": false,
                    "operation": "CALL",
                    "output": "",
                    "revert": false,
                    "revertMessage": "",
                    "selector": "fallback",
                    "status": true,
                    "value": "2.116252504082327087"
                },
                "nodeType": 0
            },
            "22": {
                "event": {
                    "contract": "0x3328f7f4a1d1c57c35df56bbf0c9dcafca309c49",
                    "decodedLog": null,
                    "id": 22,
                    "logData": "0x0000000000000000000000000000000000000000000000000025c7f64650dcd0000000000000000000000000b193d90ca445bc91652aae5f07b50b70efd354b60000000000000000000000000000000000000000000000000000000000000000",
                    "logDecoded": false,
                    "operation": "EVENT",
                    "revert": false,
                    "status": true,
                    "topics": [
                        "0x72015ace03712f361249380657b3d40777dd8f8a686664cab48afd9dbbe4499f"
                    ]
                },
                "nodeType": 1
            },
            "23": {
                "event": {
                    "contract": "0x3328f7f4a1d1c57c35df56bbf0c9dcafca309c49",
                    "decodedLog": {
                        "name": "Sell",
                        "params": [
                            {
                                "name": "amount",
                                "type": "uint256",
                                "value": "2,126,886,938,776,208,127"
                            }
                        ],
                        "signature": "Sell(uint256)"
                    },
                    "id": 23,
                    "logData": "0x0000000000000000000000000000000000000000000000001d843866ef2c82ff",
                    "logDecoded": true,
                    "operation": "EVENT",
                    "revert": false,
                    "status": true,
                    "topics": [
                        "0x522881958b3c4a6fc0840ad3b7fb947b881edc28c004245a62541647422ade97"
                    ]
                },
                "nodeType": 1
            },
            "3": {
                "invocation": {
                    "address": "0xc465cc50b7d5a29b9308968f870a4b242a8e1873",
                    "callData": "0x000000000000000000000000becaef53f18ec2d8668670383e2eee75f9d2367e000000000000000000000000b193d90ca445bc91652aae5f07b50b70efd354b6000000000000000000000000cc335bb8dc9cabe62bd8e30b6fb461ae2c25b16f000000000000000000000000000000000000000000033f369eb9299eb3a1942b",
                    "decodedMethod": null,
                    "errorInfo": "",
                    "fromAddress": "0x3328f7f4a1d1c57c35df56bbf0c9dcafca309c49",
                    "gasUsed": 46244,
                    "id": 3,
                    "methodDecoded": false,
                    "operation": "CALL",
                    "output": "",
                    "revert": false,
                    "revertMessage": "",
                    "selector": "0x199f7260",
                    "status": true,
                    "value": "0"
                },
                "nodeType": 0
            },
            "4": {
                "invocation": {
                    "address": "0xbecaef53f18ec2d8668670383e2eee75f9d2367e",
                    "callData": "0x000000000000000000000000b193d90ca445bc91652aae5f07b50b70efd354b6000000000000000000000000cc335bb8dc9cabe62bd8e30b6fb461ae2c25b16f000000000000000000000000000000000000000000033f369eb9299eb3a1942b",
                    "decodedMethod": {
                        "callParams": [
                            {
                                "name": "sender",
                                "type": "address",
                                "value": "0xb193d90ca445bc91652aae5f07b50b70efd354b6"
                            },
                            {
                                "name": "recipient",
                                "type": "address",
                                "value": "0xcc335bb8dc9cabe62bd8e30b6fb461ae2c25b16f"
                            },
                            {
                                "decimalAvailable": true,
                                "name": "amount",
                                "type": "uint256",
                                "value": "3,925,294,108,663,145,767,736,363"
                            }
                        ],
                        "constructorArguments": "",
                        "name": "transferFrom",
                        "returnParams": [
                            {
                                "name": "",
                                "type": "bool",
                                "value": true
                            }
                        ],
                        "signature": "transferFrom(address,address,uint256)"
                    },
                    "errorInfo": "",
                    "fromAddress": "0xc465cc50b7d5a29b9308968f870a4b242a8e1873",
                    "gasUsed": 45389,
                    "id": 4,
                    "methodDecoded": true,
                    "operation": "CALL",
                    "output": "0x0000000000000000000000000000000000000000000000000000000000000001",
                    "revert": false,
                    "revertMessage": "",
                    "selector": "0x23b872dd",
                    "status": true,
                    "value": "0"
                },
                "nodeType": 0
            },
            "5": {
                "event": {
                    "contract": "0xbecaef53f18ec2d8668670383e2eee75f9d2367e",
                    "decodedLog": {
                        "name": "Transfer",
                        "params": [
                            {
                                "name": "from",
                                "type": "address",
                                "value": "0xb193d90ca445bc91652aae5f07b50b70efd354b6"
                            },
                            {
                                "name": "to",
                                "type": "address",
                                "value": "0xcc335bb8dc9cabe62bd8e30b6fb461ae2c25b16f"
                            },
                            {
                                "decimalAvailable": true,
                                "name": "value",
                                "type": "uint256",
                                "value": "3,925,294,108,663,145,767,736,363"
                            }
                        ],
                        "signature": "Transfer(address,address,uint256)"
                    },
                    "id": 5,
                    "logData": "0x000000000000000000000000000000000000000000033f369eb9299eb3a1942b",
                    "logDecoded": true,
                    "operation": "EVENT",
                    "revert": false,
                    "status": true,
                    "topics": [
                        "0xddf252ad1be2c89b69c2b068fc378daa952ba7f163c4a11628f55a4df523b3ef",
                        "0x000000000000000000000000b193d90ca445bc91652aae5f07b50b70efd354b6",
                        "0x000000000000000000000000cc335bb8dc9cabe62bd8e30b6fb461ae2c25b16f"
                    ]
                },
                "nodeType": 1
            },
            "6": {
                "event": {
                    "contract": "0xbecaef53f18ec2d8668670383e2eee75f9d2367e",
                    "decodedLog": {
                        "name": "Approval",
                        "params": [
                            {
                                "name": "owner",
                                "type": "address",
                                "value": "0xb193d90ca445bc91652aae5f07b50b70efd354b6"
                            },
                            {
                                "name": "spender",
                                "type": "address",
                                "value": "0xc465cc50b7d5a29b9308968f870a4b242a8e1873"
                            },
                            {
                                "decimalAvailable": true,
                                "name": "value",
                                "type": "uint256",
                                "value": "115,792,089,237,316,195,423,570,985,008,687,907,853,269,984,665,640,560,114,163,475,344,767,361,903,572"
                            }
                        ],
                        "signature": "Approval(address,address,uint256)"
                    },
                    "id": 6,
                    "logData": "0xfffffffffffffffffffffffffffffffffffffffffffcc0c96146d6614c5e6bd4",
                    "logDecoded": true,
                    "operation": "EVENT",
                    "revert": false,
                    "status": true,
                    "topics": [
                        "0x8c5be1e5ebec7d5bd14f71427d1e84f3dd0314c0f7b2291e5b200ac8c7c3b925",
                        "0x000000000000000000000000b193d90ca445bc91652aae5f07b50b70efd354b6",
                        "0x000000000000000000000000c465cc50b7d5a29b9308968f870a4b242a8e1873"
                    ]
                },
                "nodeType": 1
            },
            "7": {
                "invocation": {
                    "address": "0xcc335bb8dc9cabe62bd8e30b6fb461ae2c25b16f",
                    "callData": "0x",
                    "decodedMethod": {
                        "callParams": [],
                        "constructorArguments": "",
                        "name": "getReserves",
                        "returnParams": [
                            {
                                "name": "_reserve0",
                                "type": "uint112",
                                "value": "46,816,374,451,373,496,452,355,321"
                            },
                            {
                                "name": "_reserve1",
                                "type": "uint112",
                                "value": "27,570,267,953,684,009,687"
                            },
                            {
                                "name": "_blockTimestampLast",
                                "type": "uint32",
                                "value": "1,706,593,643"
                            }
                        ],
                        "signature": "getReserves()"
                    },
                    "errorInfo": "",
                    "fromAddress": "0x3328f7f4a1d1c57c35df56bbf0c9dcafca309c49",
                    "gasUsed": 2504,
                    "id": 7,
                    "methodDecoded": true,
                    "operation": "STATICCALL",
                    "output": "0x00000000000000000000000000000000000000000026b9c0be913daccd2994f90000000000000000000000000000000000000000000000017e9d44a15dabd2d70000000000000000000000000000000000000000000000000000000065b88d6b",
                    "revert": false,
                    "revertMessage": "",
                    "selector": "0x0902f1ac",
                    "status": true,
                    "value": "0"
                },
                "nodeType": 0
            },
            "8": {
                "invocation": {
                    "address": "0xbecaef53f18ec2d8668670383e2eee75f9d2367e",
                    "callData": "0x000000000000000000000000cc335bb8dc9cabe62bd8e30b6fb461ae2c25b16f",
                    "decodedMethod": {
                        "callParams": [
                            {
                                "name": "account",
                                "type": "address",
                                "value": "0xcc335bb8dc9cabe62bd8e30b6fb461ae2c25b16f"
                            }
                        ],
                        "constructorArguments": "",
                        "name": "balanceOf",
                        "returnParams": [
                            {
                                "decimalAvailable": true,
                                "name": "",
                                "type": "uint256",
                                "value": "50,741,668,560,036,642,220,091,684"
                            }
                        ],
                        "signature": "balanceOf(address)"
                    },
                    "errorInfo": "",
                    "fromAddress": "0x3328f7f4a1d1c57c35df56bbf0c9dcafca309c49",
                    "gasUsed": 668,
                    "id": 8,
                    "methodDecoded": true,
                    "operation": "STATICCALL",
                    "output": "0x00000000000000000000000000000000000000000029f8f75d4a674b80cb2924",
                    "revert": false,
                    "revertMessage": "",
                    "selector": "0x70a08231",
                    "status": true,
                    "value": "0"
                },
                "nodeType": 0
            },
            "9": {
                "invocation": {
                    "address": "0xcc335bb8dc9cabe62bd8e30b6fb461ae2c25b16f",
                    "callData": "0x00000000000000000000000000000000000000000000000000000000000000000000000000000000000000000000000000000000000000001d843866ef2c82ff0000000000000000000000003328f7f4a1d1c57c35df56bbf0c9dcafca309c4900000000000000000000000000000000000000000000000000000000000000800000000000000000000000000000000000000000000000000000000000000000",
                    "decodedMethod": {
                        "callParams": [
                            {
                                "name": "amount0Out",
                                "type": "uint256",
                                "value": "0"
                            },
                            {
                                "name": "amount1Out",
                                "type": "uint256",
                                "value": "2,126,886,938,776,208,127"
                            },
                            {
                                "name": "to",
                                "type": "address",
                                "value": "0x3328f7f4a1d1c57c35df56bbf0c9dcafca309c49"
                            },
                            {
                                "name": "data",
                                "type": "bytes",
                                "value": "0x"
                            }
                        ],
                        "constructorArguments": "",
                        "name": "swap",
                        "returnParams": [],
                        "signature": "swap(uint256,uint256,address,bytes)"
                    },
                    "errorInfo": "",
                    "fromAddress": "0x3328f7f4a1d1c57c35df56bbf0c9dcafca309c49",
                    "gasUsed": 64987,
                    "id": 9,
                    "methodDecoded": true,
                    "operation": "CALL",
                    "output": "",
                    "revert": false,
                    "revertMessage": "",
                    "selector": "0x022c0d9f",
                    "status": true,
                    "value": "0"
                },
                "nodeType": 0
            }
        },
        "gasFlame": [
            {
                "children": [
                    {
                        "children": [
                            {
                                "children": [],
                                "depth": 0,
                                "name": "Initial Gas",
                                "value": 24648
                            },
                            {
                                "children": [
                                    {
                                        "children": [
                                            {
                                                "children": [],
                                                "depth": 2,
                                                "name": "balanceOf",
                                                "value": 2668
                                            },
                                            {
                                                "children": [
                                                    {
                                                        "children": [],
                                                        "depth": 3,
                                                        "name": "transferFrom",
                                                        "value": 45389
                                                    }
                                                ],
                                                "depth": 2,
                                                "name": "0x199f7260",
                                                "value": 46244
                                            },
                                            {
                                                "children": [],
                                                "depth": 2,
                                                "name": "getReserves",
                                                "value": 2504
                                            },
                                            {
                                                "children": [],
                                                "depth": 2,
                                                "name": "balanceOf",
                                                "value": 668
                                            },
                                            {
                                                "children": [
                                                    {
                                                        "children": [],
                                                        "depth": 3,
                                                        "name": "transfer",
                                                        "value": 29962
                                                    },
                                                    {
                                                        "children": [],
                                                        "depth": 3,
                                                        "name": "balanceOf",
                                                        "value": 668
                                                    },
                                                    {
                                                        "children": [],
                                                        "depth": 3,
                                                        "name": "balanceOf",
                                                        "value": 534
                                                    }
                                                ],
                                                "depth": 2,
                                                "name": "swap",
                                                "value": 64987
                                            },
                                            {
                                                "children": [],
                                                "depth": 2,
                                                "name": "balanceOf",
                                                "value": 534
                                            },
                                            {
                                                "children": [
                                                    {
                                                        "children": [
                                                            {
                                                                "children": [],
                                                                "depth": 4,
                                                                "name": "fallback",
                                                                "value": 55
                                                            }
                                                        ],
                                                        "depth": 3,
                                                        "name": "fallback",
                                                        "value": 716
                                                    }
                                                ],
                                                "depth": 2,
                                                "name": "withdraw",
                                                "value": 9856
                                            },
                                            {
                                                "children": [],
                                                "depth": 2,
                                                "name": "fallback",
                                                "value": 0
                                            }
                                        ],
                                        "depth": 1,
                                        "name": "0x75713a08",
                                        "value": 159762
                                    }
                                ],
                                "depth": 0,
                                "name": "Executed Gas",
                                "value": 167006
                            }
                        ],
                        "depth": -1,
                        "name": "Actual Gas Used",
                        "value": 168954
                    },
                    {
                        "children": [],
                        "depth": -1,
                        "name": "Refunded Gas",
                        "value": 22700
                    }
                ],
                "depth": -2,
                "name": "Total Gas",
                "value": 191654
            }
        ],
        "isConfirmed": true,
        "mainTrace": [
            {
                "children": [
                    {
                        "children": [
                            {
                                "children": [
                                    {
                                        "children": [],
                                        "depth": 2,
                                        "id": 2,
                                        "order": 2
                                    },
                                    {
                                        "children": [
                                            {
                                                "children": [
                                                    {
                                                        "children": [],
                                                        "depth": 4,
                                                        "id": 5,
                                                        "order": 5
                                                    },
                                                    {
                                                        "children": [],
                                                        "depth": 4,
                                                        "id": 6,
                                                        "order": 6
                                                    }
                                                ],
                                                "depth": 3,
                                                "id": 4,
                                                "order": 4
                                            }
                                        ],
                                        "depth": 2,
                                        "id": 3,
                                        "order": 3
                                    },
                                    {
                                        "children": [],
                                        "depth": 2,
                                        "id": 7,
                                        "order": 7
                                    },
                                    {
                                        "children": [],
                                        "depth": 2,
                                        "id": 8,
                                        "order": 8
                                    },
                                    {
                                        "children": [
                                            {
                                                "children": [
                                                    {
                                                        "children": [],
                                                        "depth": 4,
                                                        "id": 11,
                                                        "order": 11
                                                    }
                                                ],
                                                "depth": 3,
                                                "id": 10,
                                                "order": 10
                                            },
                                            {
                                                "children": [],
                                                "depth": 3,
                                                "id": 12,
                                                "order": 12
                                            },
                                            {
                                                "children": [],
                                                "depth": 3,
                                                "id": 13,
                                                "order": 13
                                            },
                                            {
                                                "children": [],
                                                "depth": 3,
                                                "id": 14,
                                                "order": 14
                                            },
                                            {
                                                "children": [],
                                                "depth": 3,
                                                "id": 15,
                                                "order": 15
                                            }
                                        ],
                                        "depth": 2,
                                        "id": 9,
                                        "order": 9
                                    },
                                    {
                                        "children": [],
                                        "depth": 2,
                                        "id": 16,
                                        "order": 16
                                    },
                                    {
                                        "children": [
                                            {
                                                "children": [
                                                    {
                                                        "children": [],
                                                        "depth": 4,
                                                        "id": 19,
                                                        "order": 19
                                                    }
                                                ],
                                                "depth": 3,
                                                "id": 18,
                                                "order": 18
                                            },
                                            {
                                                "children": [],
                                                "depth": 3,
                                                "id": 20,
                                                "order": 20
                                            }
                                        ],
                                        "depth": 2,
                                        "id": 17,
                                        "order": 17
                                    },
                                    {
                                        "children": [],
                                        "depth": 2,
                                        "id": 21,
                                        "order": 21
                                    },
                                    {
                                        "children": [],
                                        "depth": 2,
                                        "id": 22,
                                        "order": 22
                                    },
                                    {
                                        "children": [],
                                        "depth": 2,
                                        "id": 23,
                                        "order": 23
                                    }
                                ],
                                "depth": 1,
                                "id": 1,
                                "order": 1
                            }
                        ],
                        "depth": 0,
                        "id": 0,
                        "order": 0
                    }
                ],
                "depth": -1,
                "id": -1,
                "order": -1
            }
        ],
        "mainTraceNodeCount": 24,
        "parentIdMap": {
            "0": -1,
            "1": 0,
            "10": 9,
            "11": 10,
            "12": 9,
            "13": 9,
            "14": 9,
            "15": 9,
            "16": 1,
            "17": 1,
            "18": 17,
            "19": 18,
            "2": 1,
            "20": 17,
            "21": 1,
            "22": 1,
            "23": 1,
            "3": 1,
            "4": 3,
            "5": 4,
            "6": 4,
            "7": 1,
            "8": 1,
            "9": 1
        },
        "tidyTrace": [
            {
                "children": [
                    {
                        "children": [
                            {
                                "children": [
                                    {
                                        "children": [
                                            {
                                                "children": [
                                                    {
                                                        "children": [],
                                                        "depth": 4,
                                                        "id": 5,
                                                        "order": 5
                                                    },
                                                    {
                                                        "children": [],
                                                        "depth": 4,
                                                        "id": 6,
                                                        "order": 6
                                                    }
                                                ],
                                                "depth": 3,
                                                "id": 4,
                                                "order": 4
                                            }
                                        ],
                                        "depth": 2,
                                        "id": 3,
                                        "order": 3
                                    },
                                    {
                                        "children": [
                                            {
                                                "children": [
                                                    {
                                                        "children": [],
                                                        "depth": 4,
                                                        "id": 11,
                                                        "order": 11
                                                    }
                                                ],
                                                "depth": 3,
                                                "id": 10,
                                                "order": 10
                                            },
                                            {
                                                "children": [],
                                                "depth": 3,
                                                "id": 14,
                                                "order": 14
                                            },
                                            {
                                                "children": [],
                                                "depth": 3,
                                                "id": 15,
                                                "order": 15
                                            }
                                        ],
                                        "depth": 2,
                                        "id": 9,
                                        "order": 9
                                    },
                                    {
                                        "children": [
                                            {
                                                "children": [
                                                    {
                                                        "children": [],
                                                        "depth": 4,
                                                        "id": 19,
                                                        "order": 19
                                                    }
                                                ],
                                                "depth": 3,
                                                "id": 18,
                                                "order": 18
                                            },
                                            {
                                                "children": [],
                                                "depth": 3,
                                                "id": 20,
                                                "order": 20
                                            }
                                        ],
                                        "depth": 2,
                                        "id": 17,
                                        "order": 17
                                    },
                                    {
                                        "children": [],
                                        "depth": 2,
                                        "id": 21,
                                        "order": 21
                                    },
                                    {
                                        "children": [],
                                        "depth": 2,
                                        "id": 22,
                                        "order": 22
                                    },
                                    {
                                        "children": [],
                                        "depth": 2,
                                        "id": 23,
                                        "order": 23
                                    }
                                ],
                                "depth": 1,
                                "id": 1,
                                "order": 1
                            }
                        ],
                        "depth": 0,
                        "id": 0,
                        "order": 0
                    }
                ],
                "depth": -1,
                "id": -1,
                "order": -1
            }
        ],
        "tidyTraceNodeCount": 18
    },
    "state_change": {
        "stateChanges": [
            {
                "address": "0x3328f7f4a1d1c57c35df56bbf0c9dcafca309c49",
                "erc": "",
                "slots": [
                    {
                        "current": "0x000000000000000000000000000000000000000000000000513ab1aa40c48cb8",
                        "key": "0x0000000000000000000000000000000000000000000000000000000000000001",
                        "prev": "0x0000000000000000000000000000000000000000000000005114e9b3fa73afe8"
                    }
                ],
                "storageVariables": []
            },
            {
                "address": "0xbecaef53f18ec2d8668670383e2eee75f9d2367e",
                "erc": "ERC-20",
                "slots": [
                    {
                        "current": "0x00000000000000000000000000000000000000000029f8f75d4a674b80cb2924",
                        "key": "0x8361c9460f9e2fa15d726bbef40388074cf7bbb5b59acf13b9859db543d9686e",
                        "prev": "0x00000000000000000000000000000000000000000026b9c0be913daccd2994f9"
                    },
                    {
                        "current": "0xfffffffffffffffffffffffffffffffffffffffffffcc0c96146d6614c5e6bd4",
                        "key": "0xbd2d0fedce64b9d840b37c46857f83db8178dbe4dd7187daf8c7e147555c7fda",
                        "prev": "0xffffffffffffffffffffffffffffffffffffffffffffffffffffffffffffffff"
                    },
                    {
                        "current": "0x00000000000000000000000000000000000000000000e8ac0dd20b04384b7fda",
                        "key": "0xc8b5255b021db1615e5ee2ffd159376841a158a3779923dcb9bc4b546c2c8942",
                        "prev": "0x0000000000000000000000000000000000000000000427e2ac8b34a2ebed1405"
                    }
                ],
                "storageVariables": [
                    {
                        "name": "_balances",
                        "type": "mapping(address => uint256)",
                        "value": {
                            "pairs": [
                                {
                                    "key": "0xb193d90ca445bc91652aae5f07b50b70efd354b6",
                                    "value": {
                                        "current": "1098762859877016087003098",
                                        "prev": "5024056968540161854739461",
                                        "typeTag": 1
                                    }
                                },
                                {
                                    "key": "0xcc335bb8dc9cabe62bd8e30b6fb461ae2c25b16f",
                                    "value": {
                                        "current": "50741668560036642220091684",
                                        "prev": "46816374451373496452355321",
                                        "typeTag": 1
                                    }
                                }
                            ],
                            "typeTag": 4
                        }
                    },
                    {
                        "name": "_allowances",
                        "type": "mapping(address => mapping(address => uint256))",
                        "value": {
                            "pairs": [
                                {
                                    "key": "0xb193d90ca445bc91652aae5f07b50b70efd354b6",
                                    "value": {
                                        "pairs": [
                                            {
                                                "key": "0xc465cc50b7d5a29b9308968f870a4b242a8e1873",
                                                "value": {
                                                    "current": "115792089237316195423570985008687907853269984665640560114163475344767361903572",
                                                    "prev": "115792089237316195423570985008687907853269984665640564039457584007913129639935",
                                                    "typeTag": 1
                                                }
                                            }
                                        ],
                                        "typeTag": 4
                                    }
                                }
                            ],
                            "typeTag": 4
                        }
                    }
                ]
            },
            {
                "address": "0xc02aaa39b223fe8d0a0e5c4f27ead9083c756cc2",
                "erc": "ERC-20",
                "slots": [
                    {
                        "current": "0x00000000000000000000000000000000000000000000000161190c3a6e7f4fd8",
                        "key": "0x20f98b26e7e5c640ea8cd5ec73f5ba1fc836e59e80473ffeef5d72c3b7a4a4c5",
                        "prev": "0x0000000000000000000000000000000000000000000000017e9d44a15dabd2d7"
                    }
                ],
                "storageVariables": [
                    {
                        "name": "balanceOf",
                        "type": "mapping(address => uint256)",
                        "value": {
                            "pairs": [
                                {
                                    "key": "0xcc335bb8dc9cabe62bd8e30b6fb461ae2c25b16f",
                                    "value": {
                                        "current": "25443381014907801560",
                                        "prev": "27570267953684009687",
                                        "typeTag": 1
                                    }
                                }
                            ],
                            "typeTag": 4
                        }
                    }
                ]
            },
            {
                "address": "0xcc335bb8dc9cabe62bd8e30b6fb461ae2c25b16f",
                "erc": "ERC-20",
                "slots": [
                    {
                        "current": "0x65b88d7700000000000161190c3a6e7f4fd800000029f8f75d4a674b80cb2924",
                        "key": "0x0000000000000000000000000000000000000000000000000000000000000008",
                        "prev": "0x65b88d6b0000000000017e9d44a15dabd2d700000026b9c0be913daccd2994f9"
                    },
                    {
                        "current": "0x000000000000000000000000000000000000026a091a7ae23ac704f4cfddb548",
                        "key": "0x0000000000000000000000000000000000000000000000000000000000000009",
                        "prev": "0x0000000000000000000000000000000000000269928ab082749fcf830b5614a0"
                    },
                    {
                        "current": "0x000000000000000000000000001a00e2a671806b8e7b1cf4f34e1ee0c9aec0cc",
                        "key": "0x000000000000000000000000000000000000000000000000000000000000000a",
                        "prev": "0x0000000000000000000000000019ffabb9311db26a5168e1368f5a80da147044"
                    }
                ],
                "storageVariables": [
                    {
                        "name": "price1CumulativeLast",
                        "type": "uint256",
                        "value": {
                            "current": "579896500217901849021504277147100660687093964",
                            "prev": "579790697322812013583440079758370076871651396",
                            "typeTag": 1
                        }
                    },
                    {
                        "name": "reserve0",
                        "type": "uint112",
                        "value": {
                            "current": "50741668560036642220091684",
                            "prev": "46816374451373496452355321",
                            "typeTag": 1
                        }
                    },
                    {
                        "name": "reserve1",
                        "type": "uint112",
                        "value": {
                            "current": "25443381014907801560",
                            "prev": "27570267953684009687",
                            "typeTag": 1
                        }
                    },
                    {
                        "name": "blockTimestampLast",
                        "type": "uint32",
                        "value": {
                            "current": "1706593655",
                            "prev": "1706593643",
                            "typeTag": 1
                        }
                    },
                    {
                        "name": "price0CumulativeLast",
                        "type": "uint256",
                        "value": {
                            "current": "48965821811276973148966372619592",
                            "prev": "48929128748041100872307778655392",
                            "typeTag": 1
                        }
                    }
                ]
            }
        ]
    }
}