{
    "balance_change": {
        "balanceChanges": [
            {
                "account": "0xd551234ae421e3bcba99a0da6d736074f22192ff",
                "assets": [
                    {
                        "address": "0x595832f8fc6bf59c85c527fec3740a1b7a361269",
                        "amount": "25,859",
                        "iconUrl": "https://assets.blocksec.com/icon/4871495d66ea41542a18e784ab8e96068997c15fa8d90dfbdc9cf905a3828065.png",
                        "isERC1155": false,
                        "isERC721": false,
                        "sign": false,
                        "value": ""
                    }
                ]
            },
            {
                "account": "0xe1baa3e29e84c986ee4968a25e7a03f8d8fb9bff",
                "assets": [
                    {
                        "address": "0x595832f8fc6bf59c85c527fec3740a1b7a361269",
                        "amount": "25,859",
                        "iconUrl": "https://assets.blocksec.com/icon/4871495d66ea41542a18e784ab8e96068997c15fa8d90dfbdc9cf905a3828065.png",
                        "isERC1155": false,
                        "isERC721": false,
                        "sign": true,
                        "value": ""
                    }
                ]
            }
        ]
    },
    "profile": {
        "basic_info": {
            "baseFee": "",
            "blockNumber": 7080889,
            "callData": "0xa9059cbb000000000000000000000000e1baa3e29e84c986ee4968a25e7a03f8d8fb9bff00000000000000000000000000000000000000000000000000000006055106c0",
            "debugEnable": true,
            "errorInfo": "",
            "eventCount": 1,
            "feeRecipient": "0x5a0b54d5dc17e0aadc383d2db43b0a0d3e029c4c",
            "formatValue": "0",
            "gasLimit": 103068,
            "gasPrice": "40",
            "gasUsed": 51534,
            "intTxnCount": 0,
            "internalRevert": false,
            "internalRevertMessage": "",
            "isContractCreation": false,
            "isFlashloan": false,
            "maxFee": "",
            "nonce": 1217171,
            "overwritedBlockNumber": -1,
            "priorityFee": "",
            "receiver": "0x595832f8fc6bf59c85c527fec3740a1b7a361269",
            "revertMessage": "",
            "sender": "0xd551234ae421e3bcba99a0da6d736074f22192ff",
            "simulationEnable": true,
            "sourceTxnHash": "0x332a72116c07ddaf867bcabc0190ffe84514186aea540c3313afb31a114992ca",
            "status": true,
            "timestamp": "2019-01-17T09:51:38Z",
            "transactionFee": "0.00206136",
            "txnHash": "0x332a72116c07ddaf867bcabc0190ffe84514186aea540c3313afb31a114992ca",
            "txnIndex": 16,
            "type": 0,
            "value": "0"
        },
        "fund_flow": [
            {
                "amount": "25,859",
                "from": "0xd551234ae421e3bcba99a0da6d736074f22192ff",
                "id": 1,
                "isERC1155": false,
                "isERC721": false,
                "isReverted": false,
                "order": 1,
                "to": "0xe1baa3e29e84c986ee4968a25e7a03f8d8fb9bff",
                "token": "0x595832f8fc6bf59c85c527fec3740a1b7a361269"
            }
        ],
        "token_infos": [
            {
                "address": "0x595832f8fc6bf59c85c527fec3740a1b7a361269",
                "decimals": 6
            },
            {
                "address": "0xc02aaa39b223fe8d0a0e5c4f27ead9083c756cc2",
                "decimals": 18
            },
            {
                "address": "0xeeeeeeeeeeeeeeeeeeeeeeeeeeeeeeeeeeeeeeee",
                "decimals": 18
            }
        ]
    },
    "address_label": {
        "labels": [
            {
                "address": "0x0000000000000000000000000000000000000003",
                "label": "Precompiled"
            },
            {
                "address": "0x0000000000000000000000000000000000000004",
                "label": "Precompiled"
            },
            {
                "address": "0xeeeeeeeeeeeeeeeeeeeeeeeeeeeeeeeeeeeeeeee",
                "label": "Ether"
            },
            {
                "address": "0x595832f8fc6bf59c85c527fec3740a1b7a361269",
                "label": "PowerLedger: POWR Token"
            },
            {
                "address": "0xd551234ae421e3bcba99a0da6d736074f22192ff",
                "label": "Binance 2"
            },
            {
                "address": "0xe1baa3e29e84c986ee4968a25e7a03f8d8fb9bff",
                "label": "UPBIT"
            },
            {
                "address": "0x0000000000000000000000000000000000000001",
                "label": "Precompiled"
            },
            {
                "address": "0x0000000000000000000000000000000000000002",
                "label": "Precompiled"
            }
        ]
    },
    "trace": {
        "accountLabels": null,
        "dataMap": {
            "-1": {
                "invocation": {
                    "address": "0xd551234ae421e3bcba99a0da6d736074f22192ff",
                    "callData": "",
                    "decodedMethod": null,
                    "errorInfo": "",
                    "fromAddress": "",
                    "gasUsed": 0,
                    "id": -1,
                    "methodDecoded": false,
                    "operation": "",
                    "output": "",
                    "revert": false,
                    "revertMessage": "",
                    "selector": "",
                    "status": false,
                    "value": ""
                },
                "nodeType": 0
            },
            "0": {
                "invocation": {
                    "address": "0x595832f8fc6bf59c85c527fec3740a1b7a361269",
                    "callData": "0x000000000000000000000000e1baa3e29e84c986ee4968a25e7a03f8d8fb9bff00000000000000000000000000000000000000000000000000000006055106c0",
                    "decodedMethod": {
                        "callParams": [
                            {
                                "name": "_to",
                                "type": "address",
                                "value": "0xe1baa3e29e84c986ee4968a25e7a03f8d8fb9bff"
                            },
                            {
                                "decimalAvailable": true,
                                "name": "_value",
                                "type": "uint256",
                                "value": "25,859,000,000"
                            }
                        ],
                        "constructorArguments": "",
                        "name": "transfer",
                        "returnParams": [
                            {
                                "name": "",
                                "type": "bool",
                                "value": true
                            }
                        ],
                        "signature": "transfer(address,uint256)"
                    },
                    "errorInfo": "",
                    "fromAddress": "0xd551234ae421e3bcba99a0da6d736074f22192ff",
                    "gasUsed": 51534,
                    "id": 0,
                    "methodDecoded": true,
                    "operation": "CALL",
                    "output": "0x0000000000000000000000000000000000000000000000000000000000000001",
                    "revert": false,
                    "revertMessage": "",
                    "selector": "0xa9059cbb",
                    "status": true,
                    "value": "0"
                },
                "nodeType": 0
            },
            "1": {
                "event": {
                    "contract": "0x595832f8fc6bf59c85c527fec3740a1b7a361269",
                    "decodedLog": {
                        "name": "Transfer",
                        "params": [
                            {
                                "name": "from",
                                "type": "address",
                                "value": "0xd551234ae421e3bcba99a0da6d736074f22192ff"
                            },
                            {
                                "name": "to",
                                "type": "address",
                                "value": "0xe1baa3e29e84c986ee4968a25e7a03f8d8fb9bff"
                            },
                            {
                                "decimalAvailable": true,
                                "name": "value",
                                "type": "uint256",
                                "value": "25,859,000,000"
                            }
                        ],
                        "signature": "Transfer(address,address,uint256)"
                    },
                    "id": 1,
                    "logData": "0x00000000000000000000000000000000000000000000000000000006055106c0",
                    "logDecoded": true,
                    "operation": "EVENT",
                    "revert": false,
                    "status": true,
                    "topics": [
                        "0xddf252ad1be2c89b69c2b068fc378daa952ba7f163c4a11628f55a4df523b3ef",
                        "0x000000000000000000000000d551234ae421e3bcba99a0da6d736074f22192ff",
                        "0x000000000000000000000000e1baa3e29e84c986ee4968a25e7a03f8d8fb9bff"
                    ]
                },
                "nodeType": 1
            }
        },
        "gasFlame": [
            {
                "children": [
                    {
                        "children": [
                            {
                                "children": [],
                                "depth": 0,
                                "name": "Initial Gas",
                                "value": 23128
                            },
                            {
                                "children": [],
                                "depth": 0,
                                "name": "Executed Gas",
                                "value": 28406
                            }
                        ],
                        "depth": -1,
                        "name": "Actual Gas Used",
                        "value": 51534
                    },
                    {
                        "children": [],
                        "depth": -1,
                        "name": "Refunded Gas",
                        "value": 0
                    }
                ],
                "depth": -2,
                "name": "Total Gas",
                "value": 51534
            }
        ],
        "isConfirmed": true,
        "mainTrace": [
            {
                "children": [
                    {
                        "children": [
                            {
                                "children": [],
                                "depth": 1,
                                "id": 1,
                                "order": 1
                            }
                        ],
                        "depth": 0,
                        "id": 0,
                        "order": 0
                    }
                ],
                "depth": -1,
                "id": -1,
                "order": -1
            }
        ],
        "mainTraceNodeCount": 2,
        "parentIdMap": {
            "0": -1,
            "1": 0
        },
        "tidyTrace": [
            {
                "children": [
                    {
                        "children": [
                            {
                                "children": [],
                                "depth": 1,
                                "id": 1,
                                "order": 1
                            }
                        ],
                        "depth": 0,
                        "id": 0,
                        "order": 0
                    }
                ],
                "depth": -1,
                "id": -1,
                "order": -1
            }
        ],
        "tidyTraceNodeCount": 2
    },
    "state_change": {
        "stateChanges": [
            {
                "address": "0x595832f8fc6bf59c85c527fec3740a1b7a361269",
                "erc": "ERC-20",
                "slots": [
                    {
                        "current": "0x0000000000000000000000000000000000000000000000000000011d4255d760",
                        "key": "0xd8a2d997c829e5fb34fd28799da940d8710277910bb394057710bcdfe67feb2f",
                        "prev": "0x0000000000000000000000000000000000000000000000000000012347a6de20"
                    },
                    {
                        "current": "0x00000000000000000000000000000000000000000000000000000006055106c0",
                        "key": "0x1a72506a9b69c98b163992c75bcae8b30be7e037c206244af718015323070dfb",
                        "prev": "0x0000000000000000000000000000000000000000000000000000000000000000"
                    }
                ],
                "storageVariables": []
            }
        ]
    }
}