{
    "balance_change": {
        "balanceChanges": [
            {
                "account": "0x6d200887cd05709b37a45fc0b35d45dc2a6b5337",
                "assets": [
                    {
                        "address": "0xe12da5c5b2f8686f923627ebdeef7bffed72270b",
                        "amount": "1",
                        "iconUrl": "",
                        "isERC1155": false,
                        "isERC721": false,
                        "sign": false,
                        "value": ""
                    }
                ]
            },
            {
                "account": "0x336f13eb3e252fe283906c8d2d400eb55213eb96",
                "assets": [
                    {
                        "address": "0xe12da5c5b2f8686f923627ebdeef7bffed72270b",
                        "amount": "1",
                        "iconUrl": "",
                        "isERC1155": false,
                        "isERC721": false,
                        "sign": true,
                        "value": ""
                    }
                ]
            }
        ]
    },
    "profile": {
        "basic_info": {
            "baseFee": "",
            "blockNumber": 5933005,
            "callData": "0xa9059cbb000000000000000000000000336f13eb3e252fe283906c8d2d400eb55213eb960000000000000000000000000000000000000000000000000000000000000064",
            "debugEnable": true,
            "errorInfo": "",
            "eventCount": 1,
            "feeRecipient": "0x829bd824b016326a401d083b33d092293333a830",
            "formatValue": "0",
            "gasLimit": 70000,
            "gasPrice": "16",
            "gasUsed": 51161,
            "intTxnCount": 0,
            "internalRevert": false,
            "internalRevertMessage": "",
            "isContractCreation": false,
            "isFlashloan": false,
            "maxFee": "",
            "nonce": 4984,
            "overwritedBlockNumber": -1,
            "priorityFee": "",
            "receiver": "0xe12da5c5b2f8686f923627ebdeef7bffed72270b",
            "revertMessage": "",
            "sender": "0x6d200887cd05709b37a45fc0b35d45dc2a6b5337",
            "simulationEnable": true,
            "sourceTxnHash": "0x33319137ad7c5053dc0c2f560d1160d08bd69e5500785f67649b160594d8c2fb",
            "status": true,
            "timestamp": "2018-07-09T11:59:50Z",
            "transactionFee": "0.000818576",
            "txnHash": "0x33319137ad7c5053dc0c2f560d1160d08bd69e5500785f67649b160594d8c2fb",
            "txnIndex": 88,
            "type": 0,
            "value": "0"
        },
        "fund_flow": [
            {
                "amount": "1",
                "from": "0x6d200887cd05709b37a45fc0b35d45dc2a6b5337",
                "id": 1,
                "isERC1155": false,
                "isERC721": false,
                "isReverted": false,
                "order": 1,
                "to": "0x336f13eb3e252fe283906c8d2d400eb55213eb96",
                "token": "0xe12da5c5b2f8686f923627ebdeef7bffed72270b"
            }
        ],
        "token_infos": [
            {
                "address": "0xe12da5c5b2f8686f923627ebdeef7bffed72270b",
                "decimals": 2
            },
            {
                "address": "0xeeeeeeeeeeeeeeeeeeeeeeeeeeeeeeeeeeeeeeee",
                "decimals": 18
            },
            {
                "address": "0xc02aaa39b223fe8d0a0e5c4f27ead9083c756cc2",
                "decimals": 18
            }
        ]
    },
    "address_label": {
        "labels": [
            {
                "address": "0xeeeeeeeeeeeeeeeeeeeeeeeeeeeeeeeeeeeeeeee",
                "label": "Ether"
            },
            {
                "address": "0xe12da5c5b2f8686f923627ebdeef7bffed72270b",
                "label": "TAS"
            },
            {
                "address": "0x0000000000000000000000000000000000000001",
                "label": "Precompiled"
            },
            {
                "address": "0x0000000000000000000000000000000000000002",
                "label": "Precompiled"
            },
            {
                "address": "0x0000000000000000000000000000000000000003",
                "label": "Precompiled"
            },
            {
                "address": "0x0000000000000000000000000000000000000004",
                "label": "Precompiled"
            }
        ]
    },
    "trace": {
        "accountLabels": null,
        "dataMap": {
            "-1": {
                "invocation": {
                    "address": "0x6d200887cd05709b37a45fc0b35d45dc2a6b5337",
                    "callData": "",
                    "decodedMethod": null,
                    "errorInfo": "",
                    "fromAddress": "",
                    "gasUsed": 0,
                    "id": -1,
                    "methodDecoded": false,
                    "operation": "",
                    "output": "",
                    "revert": false,
                    "revertMessage": "",
                    "selector": "",
                    "status": false,
                    "value": ""
                },
                "nodeType": 0
            },
            "0": {
                "invocation": {
                    "address": "0xe12da5c5b2f8686f923627ebdeef7bffed72270b",
                    "callData": "0x000000000000000000000000336f13eb3e252fe283906c8d2d400eb55213eb960000000000000000000000000000000000000000000000000000000000000064",
                    "decodedMethod": {
                        "callParams": [
                            {
                                "name": "_to",
                                "type": "address",
                                "value": "0x336f13eb3e252fe283906c8d2d400eb55213eb96"
                            },
                            {
                                "decimalAvailable": true,
                                "name": "_value",
                                "type": "uint256",
                                "value": "100"
                            }
                        ],
                        "constructorArguments": "",
                        "name": "transfer",
                        "returnParams": [
                            {
                                "name": "success",
                                "type": "bool",
                                "value": true
                            }
                        ],
                        "signature": "transfer(address,uint256)"
                    },
                    "errorInfo": "",
                    "fromAddress": "0x6d200887cd05709b37a45fc0b35d45dc2a6b5337",
                    "gasUsed": 51161,
                    "id": 0,
                    "methodDecoded": true,
                    "operation": "CALL",
                    "output": "0x0000000000000000000000000000000000000000000000000000000000000001",
                    "revert": false,
                    "revertMessage": "",
                    "selector": "0xa9059cbb",
                    "status": true,
                    "value": "0"
                },
                "nodeType": 0
            },
            "1": {
                "event": {
                    "contract": "0xe12da5c5b2f8686f923627ebdeef7bffed72270b",
                    "decodedLog": {
                        "name": "Transfer",
                        "params": [
                            {
                                "name": "_from",
                                "type": "address",
                                "value": "0x6d200887cd05709b37a45fc0b35d45dc2a6b5337"
                            },
                            {
                                "name": "_to",
                                "type": "address",
                                "value": "0x336f13eb3e252fe283906c8d2d400eb55213eb96"
                            },
                            {
                                "decimalAvailable": true,
                                "name": "_value",
                                "type": "uint256",
                                "value": "100"
                            }
                        ],
                        "signature": "Transfer(address,address,uint256)"
                    },
                    "id": 1,
                    "logData": "0x0000000000000000000000000000000000000000000000000000000000000064",
                    "logDecoded": true,
                    "operation": "EVENT",
                    "revert": false,
                    "status": true,
                    "topics": [
                        "0xddf252ad1be2c89b69c2b068fc378daa952ba7f163c4a11628f55a4df523b3ef",
                        "0x0000000000000000000000006d200887cd05709b37a45fc0b35d45dc2a6b5337",
                        "0x000000000000000000000000336f13eb3e252fe283906c8d2d400eb55213eb96"
                    ]
                },
                "nodeType": 1
            }
        },
        "gasFlame": [
            {
                "children": [
                    {
                        "children": [
                            {
                                "children": [],
                                "depth": 0,
                                "name": "Initial Gas",
                                "value": 22872
                            },
                            {
                                "children": [],
                                "depth": 0,
                                "name": "Executed Gas",
                                "value": 28289
                            }
                        ],
                        "depth": -1,
                        "name": "Actual Gas Used",
                        "value": 51161
                    },
                    {
                        "children": [],
                        "depth": -1,
                        "name": "Refunded Gas",
                        "value": 0
                    }
                ],
                "depth": -2,
                "name": "Total Gas",
                "value": 51161
            }
        ],
        "isConfirmed": true,
        "mainTrace": [
            {
                "children": [
                    {
                        "children": [
                            {
                                "children": [],
                                "depth": 1,
                                "id": 1,
                                "order": 1
                            }
                        ],
                        "depth": 0,
                        "id": 0,
                        "order": 0
                    }
                ],
                "depth": -1,
                "id": -1,
                "order": -1
            }
        ],
        "mainTraceNodeCount": 2,
        "parentIdMap": {
            "0": -1,
            "1": 0
        },
        "tidyTrace": [
            {
                "children": [
                    {
                        "children": [
                            {
                                "children": [],
                                "depth": 1,
                                "id": 1,
                                "order": 1
                            }
                        ],
                        "depth": 0,
                        "id": 0,
                        "order": 0
                    }
                ],
                "depth": -1,
                "id": -1,
                "order": -1
            }
        ],
        "tidyTraceNodeCount": 2
    },
    "state_change": {
        "stateChanges": [
            {
                "address": "0xe12da5c5b2f8686f923627ebdeef7bffed72270b",
                "erc": "ERC-20",
                "slots": [
                    {
                        "current": "0x000000000000000000000000000000000000000000000000000000000044c0c8",
                        "key": "0xd045d595549246b2eafcb16e8f0202cfa910385e8990b2bd93dd2b3e1df9f70f",
                        "prev": "0x000000000000000000000000000000000000000000000000000000000044c12c"
                    },
                    {
                        "current": "0x0000000000000000000000000000000000000000000000000000000000000064",
                        "key": "0xa27f4f2f45c2b1722725bcbb9cb75c68e09f6a7f34a3202d391d10980f71eab8",
                        "prev": "0x0000000000000000000000000000000000000000000000000000000000000000"
                    }
                ],
                "storageVariables": []
            }
        ]
    }
}