{
    "balance_change": {
        "balanceChanges": [
            {
                "account": "0xd64b8cbb0f39992d151ccb029d0c7d695d41eec7",
                "assets": [
                    {
                        "address": "0x667088b212ce3d06a1b553a7221e1fd19000d9af",
                        "amount": "598.56",
                        "iconUrl": "https://assets.blocksec.com/icon/86cb0e7ca2f76dc0b9eac250cc8c6fdae8db9dcf0b530f2c46e80038c8032766.png",
                        "isERC1155": false,
                        "isERC721": false,
                        "sign": false,
                        "value": ""
                    }
                ]
            },
            {
                "account": "0x8f278896f08cd28ec5d3f3b278a406e030bd620b",
                "assets": [
                    {
                        "address": "0x667088b212ce3d06a1b553a7221e1fd19000d9af",
                        "amount": "598.56",
                        "iconUrl": "https://assets.blocksec.com/icon/86cb0e7ca2f76dc0b9eac250cc8c6fdae8db9dcf0b530f2c46e80038c8032766.png",
                        "isERC1155": false,
                        "isERC721": false,
                        "sign": true,
                        "value": ""
                    }
                ]
            }
        ]
    },
    "profile": {
        "basic_info": {
            "baseFee": "",
            "blockNumber": 3728394,
            "callData": "0xa9059cbb0000000000000000000000008f278896f08cd28ec5d3f3b278a406e030bd620b00000000000000000000000000000000000000000000002072b04cb175d00000",
            "debugEnable": true,
            "errorInfo": "",
            "eventCount": 1,
            "feeRecipient": "0xb2930b35844a230f00e51431acae96fe543a0347",
            "formatValue": "0",
            "gasLimit": 42233,
            "gasPrice": "21",
            "gasUsed": 22233,
            "intTxnCount": 0,
            "internalRevert": false,
            "internalRevertMessage": "",
            "isContractCreation": false,
            "isFlashloan": false,
            "maxFee": "",
            "nonce": 0,
            "overwritedBlockNumber": -1,
            "priorityFee": "",
            "receiver": "0x667088b212ce3d06a1b553a7221e1fd19000d9af",
            "revertMessage": "",
            "sender": "0xd64b8cbb0f39992d151ccb029d0c7d695d41eec7",
            "simulationEnable": true,
            "sourceTxnHash": "0x33a03fa04525cc414dd8346e95115a903ced3197d87d42f02853ec4e5cf9a7c7",
            "status": true,
            "timestamp": "2017-05-18T18:18:04Z",
            "transactionFee": "0.000466893",
            "txnHash": "0x33a03fa04525cc414dd8346e95115a903ced3197d87d42f02853ec4e5cf9a7c7",
            "txnIndex": 14,
            "type": 0,
            "value": "0"
        },
        "fund_flow": [
            {
                "amount": "598.56",
                "from": "0xd64b8cbb0f39992d151ccb029d0c7d695d41eec7",
                "id": 1,
                "isERC1155": false,
                "isERC721": false,
                "isReverted": false,
                "order": 1,
                "to": "0x8f278896f08cd28ec5d3f3b278a406e030bd620b",
                "token": "0x667088b212ce3d06a1b553a7221e1fd19000d9af"
            }
        ],
        "token_infos": [
            {
                "address": "0xc02aaa39b223fe8d0a0e5c4f27ead9083c756cc2",
                "decimals": 18
            },
            {
                "address": "0xeeeeeeeeeeeeeeeeeeeeeeeeeeeeeeeeeeeeeeee",
                "decimals": 18
            },
            {
                "address": "0x667088b212ce3d06a1b553a7221e1fd19000d9af",
                "decimals": 18
            }
        ]
    },
    "address_label": {
        "labels": [
            {
                "address": "0x667088b212ce3d06a1b553a7221e1fd19000d9af",
                "label": "WingsDAO Token"
            },
            {
                "address": "0x0000000000000000000000000000000000000001",
                "label": "Precompiled"
            },
            {
                "address": "0x0000000000000000000000000000000000000002",
                "label": "Precompiled"
            },
            {
                "address": "0x0000000000000000000000000000000000000003",
                "label": "Precompiled"
            },
            {
                "address": "0x0000000000000000000000000000000000000004",
                "label": "Precompiled"
            },
            {
                "address": "0xeeeeeeeeeeeeeeeeeeeeeeeeeeeeeeeeeeeeeeee",
                "label": "Ether"
            }
        ]
    },
    "trace": {
        "accountLabels": null,
        "dataMap": {
            "-1": {
                "invocation": {
                    "address": "0xd64b8cbb0f39992d151ccb029d0c7d695d41eec7",
                    "callData": "",
                    "decodedMethod": null,
                    "errorInfo": "",
                    "fromAddress": "",
                    "gasUsed": 0,
                    "id": -1,
                    "methodDecoded": false,
                    "operation": "",
                    "output": "",
                    "revert": false,
                    "revertMessage": "",
                    "selector": "",
                    "status": false,
                    "value": ""
                },
                "nodeType": 0
            },
            "0": {
                "invocation": {
                    "address": "0x667088b212ce3d06a1b553a7221e1fd19000d9af",
                    "callData": "0x0000000000000000000000008f278896f08cd28ec5d3f3b278a406e030bd620b00000000000000000000000000000000000000000000002072b04cb175d00000",
                    "decodedMethod": {
                        "callParams": [
                            {
                                "name": "_to",
                                "type": "address",
                                "value": "0x8f278896f08cd28ec5d3f3b278a406e030bd620b"
                            },
                            {
                                "decimalAvailable": true,
                                "name": "_value",
                                "type": "uint256",
                                "value": "598,560,000,000,000,000,000"
                            }
                        ],
                        "constructorArguments": "",
                        "name": "transfer",
                        "returnParams": [
                            {
                                "name": "success",
                                "type": "bool",
                                "value": true
                            }
                        ],
                        "signature": "transfer(address,uint256)"
                    },
                    "errorInfo": "",
                    "fromAddress": "0xd64b8cbb0f39992d151ccb029d0c7d695d41eec7",
                    "gasUsed": 22233,
                    "id": 0,
                    "methodDecoded": true,
                    "operation": "CALL",
                    "output": "0x0000000000000000000000000000000000000000000000000000000000000001",
                    "revert": false,
                    "revertMessage": "",
                    "selector": "0xa9059cbb",
                    "status": true,
                    "value": "0"
                },
                "nodeType": 0
            },
            "1": {
                "event": {
                    "contract": "0x667088b212ce3d06a1b553a7221e1fd19000d9af",
                    "decodedLog": {
                        "name": "Transfer",
                        "params": [
                            {
                                "name": "from",
                                "type": "address",
                                "value": "0xd64b8cbb0f39992d151ccb029d0c7d695d41eec7"
                            },
                            {
                                "name": "to",
                                "type": "address",
                                "value": "0x8f278896f08cd28ec5d3f3b278a406e030bd620b"
                            },
                            {
                                "decimalAvailable": true,
                                "name": "value",
                                "type": "uint256",
                                "value": "598,560,000,000,000,000,000"
                            }
                        ],
                        "signature": "Transfer(address,address,uint256)"
                    },
                    "id": 1,
                    "logData": "0x00000000000000000000000000000000000000000000002072b04cb175d00000",
                    "logDecoded": true,
                    "operation": "EVENT",
                    "revert": false,
                    "status": true,
                    "topics": [
                        "0xddf252ad1be2c89b69c2b068fc378daa952ba7f163c4a11628f55a4df523b3ef",
                        "0x000000000000000000000000d64b8cbb0f39992d151ccb029d0c7d695d41eec7",
                        "0x0000000000000000000000008f278896f08cd28ec5d3f3b278a406e030bd620b"
                    ]
                },
                "nodeType": 1
            }
        },
        "gasFlame": [
            {
                "children": [
                    {
                        "children": [
                            {
                                "children": [],
                                "depth": 0,
                                "name": "Initial Gas",
                                "value": 23256
                            },
                            {
                                "children": [],
                                "depth": 0,
                                "name": "Executed Gas",
                                "value": 13977
                            }
                        ],
                        "depth": -1,
                        "name": "Actual Gas Used",
                        "value": 22233
                    },
                    {
                        "children": [],
                        "depth": -1,
                        "name": "Refunded Gas",
                        "value": 15000
                    }
                ],
                "depth": -2,
                "name": "Total Gas",
                "value": 37233
            }
        ],
        "isConfirmed": true,
        "mainTrace": [
            {
                "children": [
                    {
                        "children": [
                            {
                                "children": [],
                                "depth": 1,
                                "id": 1,
                                "order": 1
                            }
                        ],
                        "depth": 0,
                        "id": 0,
                        "order": 0
                    }
                ],
                "depth": -1,
                "id": -1,
                "order": -1
            }
        ],
        "mainTraceNodeCount": 2,
        "parentIdMap": {
            "0": -1,
            "1": 0
        },
        "tidyTrace": [
            {
                "children": [
                    {
                        "children": [
                            {
                                "children": [],
                                "depth": 1,
                                "id": 1,
                                "order": 1
                            }
                        ],
                        "depth": 0,
                        "id": 0,
                        "order": 0
                    }
                ],
                "depth": -1,
                "id": -1,
                "order": -1
            }
        ],
        "tidyTraceNodeCount": 2
    },
    "state_change": {
        "stateChanges": [
            {
                "address": "0x667088b212ce3d06a1b553a7221e1fd19000d9af",
                "erc": "ERC-20",
                "slots": [
                    {
                        "current": "0x0000000000000000000000000000000000000000000000000000000000000000",
                        "key": "0xf35f375920bbfeab97ea9732c6da756e7ac14ece6a963e1d563098529384b407",
                        "prev": "0x00000000000000000000000000000000000000000000002072b04cb175d00000"
                    },
                    {
                        "current": "0x0000000000000000000000000000000000000000000002f43b8e6692ca7b0000",
                        "key": "0xd5c436c885357c3838f68f96bc9470939a2806e607c406ad94f1bd7666ec12ba",
                        "prev": "0x0000000000000000000000000000000000000000000002d3c8de19e154ab0000"
                    }
                ],
                "storageVariables": []
            }
        ]
    }
}