{
    "balance_change": {
        "balanceChanges": [
            {
                "account": "0x59a5208b32e627891c389ebafc644145224006e8",
                "assets": [
                    {
                        "address": "0x4c1c4957d22d8f373aed54d0853b090666f6f9de",
                        "amount": "280,124.50000001",
                        "iconUrl": "",
                        "isERC1155": false,
                        "isERC721": false,
                        "sign": false,
                        "value": ""
                    }
                ]
            },
            {
                "account": "0xde3f3f81b695512808f1e2a3fd93f79318603e57",
                "assets": [
                    {
                        "address": "0x4c1c4957d22d8f373aed54d0853b090666f6f9de",
                        "amount": "280,124.50000001",
                        "iconUrl": "",
                        "isERC1155": false,
                        "isERC721": false,
                        "sign": true,
                        "value": ""
                    }
                ]
            }
        ]
    },
    "profile": {
        "basic_info": {
            "baseFee": "",
            "blockNumber": 9902719,
            "callData": "0xa9059cbb000000000000000000000000de3f3f81b695512808f1e2a3fd93f79318603e57000000000000000000000000000000000000000000003b51945eeaccbb2de400",
            "debugEnable": true,
            "errorInfo": "",
            "eventCount": 1,
            "feeRecipient": "0xd7a15baeb7ea05c9660cbe03fb7999c2c2e57625",
            "formatValue": "0",
            "gasLimit": 157686,
            "gasPrice": "10",
            "gasUsed": 52562,
            "intTxnCount": 0,
            "internalRevert": false,
            "internalRevertMessage": "",
            "isContractCreation": false,
            "isFlashloan": false,
            "maxFee": "",
            "nonce": 943457,
            "overwritedBlockNumber": -1,
            "priorityFee": "",
            "receiver": "0x4c1c4957d22d8f373aed54d0853b090666f6f9de",
            "revertMessage": "",
            "sender": "0x59a5208b32e627891c389ebafc644145224006e8",
            "simulationEnable": true,
            "sourceTxnHash": "0x3420fd59fa5eedb05ba87db74df99d764cbf79c078ee627ad78364a3e98110d9",
            "status": true,
            "timestamp": "2020-04-19T11:54:05Z",
            "transactionFee": "0.00052562",
            "txnHash": "0x3420fd59fa5eedb05ba87db74df99d764cbf79c078ee627ad78364a3e98110d9",
            "txnIndex": 32,
            "type": 0,
            "value": "0"
        },
        "fund_flow": [
            {
                "amount": "280,124.50000001",
                "from": "0x59a5208b32e627891c389ebafc644145224006e8",
                "id": 1,
                "isERC1155": false,
                "isERC721": false,
                "isReverted": false,
                "order": 1,
                "to": "0xde3f3f81b695512808f1e2a3fd93f79318603e57",
                "token": "0x4c1c4957d22d8f373aed54d0853b090666f6f9de"
            }
        ],
        "token_infos": [
            {
                "address": "0xc02aaa39b223fe8d0a0e5c4f27ead9083c756cc2",
                "decimals": 18
            },
            {
                "address": "0xeeeeeeeeeeeeeeeeeeeeeeeeeeeeeeeeeeeeeeee",
                "decimals": 18
            },
            {
                "address": "0x4c1c4957d22d8f373aed54d0853b090666f6f9de",
                "decimals": 18
            }
        ]
    },
    "address_label": {
        "labels": [
            {
                "address": "0x4c1c4957d22d8f373aed54d0853b090666f6f9de",
                "label": "Silverway Token"
            },
            {
                "address": "0x0000000000000000000000000000000000000001",
                "label": "Precompiled"
            },
            {
                "address": "0x0000000000000000000000000000000000000002",
                "label": "Precompiled"
            },
            {
                "address": "0x0000000000000000000000000000000000000003",
                "label": "Precompiled"
            },
            {
                "address": "0x0000000000000000000000000000000000000004",
                "label": "Precompiled"
            },
            {
                "address": "0xeeeeeeeeeeeeeeeeeeeeeeeeeeeeeeeeeeeeeeee",
                "label": "Ether"
            },
            {
                "address": "0x59a5208b32e627891c389ebafc644145224006e8",
                "label": "HitBTC 2"
            }
        ]
    },
    "trace": {
        "accountLabels": null,
        "dataMap": {
            "-1": {
                "invocation": {
                    "address": "0x59a5208b32e627891c389ebafc644145224006e8",
                    "callData": "",
                    "decodedMethod": null,
                    "errorInfo": "",
                    "fromAddress": "",
                    "gasUsed": 0,
                    "id": -1,
                    "methodDecoded": false,
                    "operation": "",
                    "output": "",
                    "revert": false,
                    "revertMessage": "",
                    "selector": "",
                    "status": false,
                    "value": ""
                },
                "nodeType": 0
            },
            "0": {
                "invocation": {
                    "address": "0x4c1c4957d22d8f373aed54d0853b090666f6f9de",
                    "callData": "0x000000000000000000000000de3f3f81b695512808f1e2a3fd93f79318603e57000000000000000000000000000000000000000000003b51945eeaccbb2de400",
                    "decodedMethod": {
                        "callParams": [
                            {
                                "name": "_to",
                                "type": "address",
                                "value": "0xde3f3f81b695512808f1e2a3fd93f79318603e57"
                            },
                            {
                                "decimalAvailable": true,
                                "name": "_value",
                                "type": "uint256",
                                "value": "280,124,500,000,010,000,000,000"
                            }
                        ],
                        "constructorArguments": "",
                        "name": "transfer",
                        "returnParams": [
                            {
                                "name": "success",
                                "type": "bool",
                                "value": true
                            }
                        ],
                        "signature": "transfer(address,uint256)"
                    },
                    "errorInfo": "",
                    "fromAddress": "0x59a5208b32e627891c389ebafc644145224006e8",
                    "gasUsed": 52562,
                    "id": 0,
                    "methodDecoded": true,
                    "operation": "CALL",
                    "output": "0x0000000000000000000000000000000000000000000000000000000000000001",
                    "revert": false,
                    "revertMessage": "",
                    "selector": "0xa9059cbb",
                    "status": true,
                    "value": "0"
                },
                "nodeType": 0
            },
            "1": {
                "event": {
                    "contract": "0x4c1c4957d22d8f373aed54d0853b090666f6f9de",
                    "decodedLog": {
                        "name": "Transfer",
                        "params": [
                            {
                                "name": "_from",
                                "type": "address",
                                "value": "0x59a5208b32e627891c389ebafc644145224006e8"
                            },
                            {
                                "name": "_to",
                                "type": "address",
                                "value": "0xde3f3f81b695512808f1e2a3fd93f79318603e57"
                            },
                            {
                                "decimalAvailable": true,
                                "name": "_value",
                                "type": "uint256",
                                "value": "280,124,500,000,010,000,000,000"
                            }
                        ],
                        "signature": "Transfer(address,address,uint256)"
                    },
                    "id": 1,
                    "logData": "0x000000000000000000000000000000000000000000003b51945eeaccbb2de400",
                    "logDecoded": true,
                    "operation": "EVENT",
                    "revert": false,
                    "status": true,
                    "topics": [
                        "0xddf252ad1be2c89b69c2b068fc378daa952ba7f163c4a11628f55a4df523b3ef",
                        "0x00000000000000000000000059a5208b32e627891c389ebafc644145224006e8",
                        "0x000000000000000000000000de3f3f81b695512808f1e2a3fd93f79318603e57"
                    ]
                },
                "nodeType": 1
            }
        },
        "gasFlame": [
            {
                "children": [
                    {
                        "children": [
                            {
                                "children": [],
                                "depth": 0,
                                "name": "Initial Gas",
                                "value": 21668
                            },
                            {
                                "children": [],
                                "depth": 0,
                                "name": "Executed Gas",
                                "value": 30894
                            }
                        ],
                        "depth": -1,
                        "name": "Actual Gas Used",
                        "value": 52562
                    },
                    {
                        "children": [],
                        "depth": -1,
                        "name": "Refunded Gas",
                        "value": 0
                    }
                ],
                "depth": -2,
                "name": "Total Gas",
                "value": 52562
            }
        ],
        "isConfirmed": true,
        "mainTrace": [
            {
                "children": [
                    {
                        "children": [
                            {
                                "children": [],
                                "depth": 1,
                                "id": 1,
                                "order": 1
                            }
                        ],
                        "depth": 0,
                        "id": 0,
                        "order": 0
                    }
                ],
                "depth": -1,
                "id": -1,
                "order": -1
            }
        ],
        "mainTraceNodeCount": 2,
        "parentIdMap": {
            "0": -1,
            "1": 0
        },
        "tidyTrace": [
            {
                "children": [
                    {
                        "children": [
                            {
                                "children": [],
                                "depth": 1,
                                "id": 1,
                                "order": 1
                            }
                        ],
                        "depth": 0,
                        "id": 0,
                        "order": 0
                    }
                ],
                "depth": -1,
                "id": -1,
                "order": -1
            }
        ],
        "tidyTraceNodeCount": 2
    },
    "state_change": {
        "stateChanges": [
            {
                "address": "0x4c1c4957d22d8f373aed54d0853b090666f6f9de",
                "erc": "ERC-20",
                "slots": [
                    {
                        "current": "0x000000000000000000000000000000000000000000002ac8bedfaf8064914800",
                        "key": "0x3821a3abb01ec7a05db7bbd928291e8325475ac9b647155b48d7cc55db801102",
                        "prev": "0x00000000000000000000000000000000000000000000661a533e9a4d1fbf2c00"
                    },
                    {
                        "current": "0x000000000000000000000000000000000000000000003b51945eeaccbb2de400",
                        "key": "0x448dafa9e526928d754ecff4569e71bbc9236eb091975fc07cb05ddbbeb3d4b0",
                        "prev": "0x0000000000000000000000000000000000000000000000000000000000000000"
                    }
                ],
                "storageVariables": [
                    {
                        "name": "accounts",
                        "type": "mapping(address => uint256)",
                        "value": {
                            "pairs": [
                                {
                                    "key": "0x59a5208b32e627891c389ebafc644145224006e8",
                                    "value": {
                                        "current": "202042495000020000000000",
                                        "prev": "482166995000030000000000",
                                        "typeTag": 1
                                    }
                                },
                                {
                                    "key": "0xde3f3f81b695512808f1e2a3fd93f79318603e57",
                                    "value": {
                                        "current": "280124500000010000000000",
                                        "prev": "0",
                                        "typeTag": 1
                                    }
                                }
                            ],
                            "typeTag": 4
                        }
                    }
                ]
            }
        ]
    }
}