{
    "balance_change": {
        "balanceChanges": []
    },
    "profile": {
        "basic_info": {
            "baseFee": "119.641335496",
            "blockNumber": 14166192,
            "callData": "0xa27f815600000000000000000000000000000000000000000000000000000000000002c000000000000000000000000000000000000000000000065cf5c8b37588eadffa000000000000000000000000000000000000000000000000000000000000006000000000000000000000000000000000000000000000000000000000000000845b41b908000000000000000000000000000000000000000000000000000000000000000000000000000000000000000000000000000000000000000000000000000000010000000000000000000000000000000000000000000000123c58e3d758d10000000000000000000000000000000000000000000000004102894acce7e400000000000000000000000000000000000000000000000000000000000000",
            "debugEnable": true,
            "errorInfo": "execution reverted",
            "eventCount": 0,
            "feeRecipient": "0xea674fdde714fd979de3edf0f56aa9716b898ec8",
            "formatValue": "0",
            "gasLimit": 700000,
            "gasPrice": "121.92002898",
            "gasUsed": 34287,
            "intTxnCount": 1,
            "internalRevert": true,
            "internalRevertMessage": "",
            "isContractCreation": false,
            "isFlashloan": false,
            "maxFee": "124.776982745",
            "nonce": 179,
            "overwritedBlockNumber": -1,
            "priorityFee": "2.278693484",
            "receiver": "0x8aff5ca996f77487a4f04f1ce905bf3d27455580",
            "revertMessage": "",
            "sender": "0x92824d144c6543f70a649b2c3e7596612375fd4d",
            "simulationEnable": true,
            "sourceTxnHash": "0x34083af33d4e0104adb5c578251b1db509f3a064089c1411b1abdc8f3a1c5901",
            "status": false,
            "timestamp": "2022-02-08T15:19:59Z",
            "transactionFee": "0.00418027203363726",
            "txnHash": "0x34083af33d4e0104adb5c578251b1db509f3a064089c1411b1abdc8f3a1c5901",
            "txnIndex": 95,
            "type": 2,
            "value": "0"
        },
        "fund_flow": [],
        "token_infos": [
            {
                "address": "0xc02aaa39b223fe8d0a0e5c4f27ead9083c756cc2",
                "decimals": 18
            },
            {
                "address": "0xeeeeeeeeeeeeeeeeeeeeeeeeeeeeeeeeeeeeeeee",
                "decimals": 18
            }
        ]
    },
    "address_label": {
        "labels": [
            {
                "address": "0x8aff5ca996f77487a4f04f1ce905bf3d27455580",
                "label": "MEV Bot: 0x8aF...580"
            },
            {
                "address": "0x0000000000000000000000000000000000000001",
                "label": "Precompiled"
            },
            {
                "address": "0x0000000000000000000000000000000000000002",
                "label": "Precompiled"
            },
            {
                "address": "0x0000000000000000000000000000000000000003",
                "label": "Precompiled"
            },
            {
                "address": "0x0000000000000000000000000000000000000004",
                "label": "Precompiled"
            },
            {
                "address": "0xeeeeeeeeeeeeeeeeeeeeeeeeeeeeeeeeeeeeeeee",
                "label": "Ether"
            },
            {
                "address": "0x8301ae4fc9c624d1d396cbdaa1ed877821d7c511",
                "label": "Curve.fi: CRV-ETH"
            }
        ]
    },
    "trace": {
        "accountLabels": null,
        "dataMap": {
            "-1": {
                "invocation": {
                    "address": "0x92824d144c6543f70a649b2c3e7596612375fd4d",
                    "callData": "",
                    "decodedMethod": null,
                    "errorInfo": "",
                    "fromAddress": "",
                    "gasUsed": 0,
                    "id": -1,
                    "methodDecoded": false,
                    "operation": "",
                    "output": "",
                    "revert": false,
                    "revertMessage": "",
                    "selector": "",
                    "status": false,
                    "value": ""
                },
                "nodeType": 0
            },
            "0": {
                "invocation": {
                    "address": "0x8aff5ca996f77487a4f04f1ce905bf3d27455580",
                    "callData": "0x00000000000000000000000000000000000000000000000000000000000002c000000000000000000000000000000000000000000000065cf5c8b37588eadffa000000000000000000000000000000000000000000000000000000000000006000000000000000000000000000000000000000000000000000000000000000845b41b908000000000000000000000000000000000000000000000000000000000000000000000000000000000000000000000000000000000000000000000000000000010000000000000000000000000000000000000000000000123c58e3d758d10000000000000000000000000000000000000000000000004102894acce7e400000000000000000000000000000000000000000000000000000000000000",
                    "decodedMethod": null,
                    "errorInfo": "execution reverted",
                    "fromAddress": "0x92824d144c6543f70a649b2c3e7596612375fd4d",
                    "gasUsed": 34287,
                    "id": 0,
                    "methodDecoded": false,
                    "operation": "CALL",
                    "output": "",
                    "revert": true,
                    "revertMessage": "",
                    "selector": "0xa27f8156",
                    "status": false,
                    "value": "0"
                },
                "nodeType": 0
            },
            "1": {
                "invocation": {
                    "address": "0x8301ae4fc9c624d1d396cbdaa1ed877821d7c511",
                    "callData": "0x0000000000000000000000000000000000000000000000000000000000000000",
                    "decodedMethod": {
                        "callParams": [
                            {
                                "name": "i",
                                "type": "uint256",
                                "value": "0"
                            }
                        ],
                        "constructorArguments": "",
                        "name": "balances",
                        "returnParams": [
                            {
                                "name": "",
                                "type": "uint256",
                                "value": "30,056,089,073,782,131,929,327"
                            }
                        ],
                        "signature": "balances(uint256)"
                    },
                    "errorInfo": "",
                    "fromAddress": "0x8aff5ca996f77487a4f04f1ce905bf3d27455580",
                    "gasUsed": 3654,
                    "id": 1,
                    "methodDecoded": true,
                    "operation": "STATICCALL",
                    "output": "0x00000000000000000000000000000000000000000000065d5806c89ebb6630ef",
                    "revert": true,
                    "revertMessage": "",
                    "selector": "0x4903b0d1",
                    "status": true,
                    "value": "0"
                },
                "nodeType": 0
            }
        },
        "gasFlame": [
            {
                "children": [
                    {
                        "children": [
                            {
                                "children": [],
                                "depth": 0,
                                "name": "Initial Gas",
                                "value": 22612
                            },
                            {
                                "children": [
                                    {
                                        "children": [],
                                        "depth": 1,
                                        "name": "balances",
                                        "value": 3654
                                    }
                                ],
                                "depth": 0,
                                "name": "Executed Gas",
                                "value": 11675
                            }
                        ],
                        "depth": -1,
                        "name": "Actual Gas Used",
                        "value": 34287
                    },
                    {
                        "children": [],
                        "depth": -1,
                        "name": "Refunded Gas",
                        "value": 0
                    }
                ],
                "depth": -2,
                "name": "Total Gas",
                "value": 34287
            }
        ],
        "isConfirmed": true,
        "mainTrace": [
            {
                "children": [
                    {
                        "children": [
                            {
                                "children": [],
                                "depth": 1,
                                "id": 1,
                                "order": 1
                            }
                        ],
                        "depth": 0,
                        "id": 0,
                        "order": 0
                    }
                ],
                "depth": -1,
                "id": -1,
                "order": -1
            }
        ],
        "mainTraceNodeCount": 2,
        "parentIdMap": {
            "0": -1,
            "1": 0
        },
        "tidyTrace": [
            {
                "children": [
                    {
                        "children": [],
                        "depth": 0,
                        "id": 0,
                        "order": 0
                    }
                ],
                "depth": -1,
                "id": -1,
                "order": -1
            }
        ],
        "tidyTraceNodeCount": 1
    },
    "state_change": {
        "stateChanges": []
    }
}