{
    "balance_change": {
        "balanceChanges": [
            {
                "account": "0x838f57ac7b08fcf07a9d0c4069abb328d87dec4a",
                "assets": [
                    {
                        "address": "0x4470bb87d77b963a013db939be332f927f2b992e",
                        "amount": "0.0898",
                        "iconUrl": "",
                        "isERC1155": false,
                        "isERC721": false,
                        "sign": true,
                        "value": ""
                    }
                ]
            },
            {
                "account": "0x8d12a197cb00d4747a1fe03395095ce2a5cc6819",
                "assets": [
                    {
                        "address": "0x4470bb87d77b963a013db939be332f927f2b992e",
                        "amount": "0.0898",
                        "iconUrl": "",
                        "isERC1155": false,
                        "isERC721": false,
                        "sign": false,
                        "value": ""
                    }
                ]
            }
        ]
    },
    "profile": {
        "basic_info": {
            "baseFee": "",
            "blockNumber": 4337172,
            "callData": "0x9e281a980000000000000000000000004470bb87d77b963a013db939be332f927f2b992e0000000000000000000000000000000000000000000000000000000000000382",
            "debugEnable": true,
            "errorInfo": "",
            "eventCount": 2,
            "feeRecipient": "0xbcdfc35b86bedf72f0cda046a3c16829a2ef41d1",
            "formatValue": "0",
            "gasLimit": 250000,
            "gasPrice": "8",
            "gasUsed": 49415,
            "intTxnCount": 1,
            "internalRevert": false,
            "internalRevertMessage": "",
            "isContractCreation": false,
            "isFlashloan": false,
            "maxFee": "",
            "nonce": 10,
            "overwritedBlockNumber": -1,
            "priorityFee": "",
            "receiver": "0x8d12a197cb00d4747a1fe03395095ce2a5cc6819",
            "revertMessage": "",
            "sender": "0x838f57ac7b08fcf07a9d0c4069abb328d87dec4a",
            "simulationEnable": true,
            "sourceTxnHash": "0x34e0b035fc674a9781d6465fecaf7467df88a660e61bd0774b17a76f8726a69f",
            "status": true,
            "timestamp": "2017-10-04T21:00:30Z",
            "transactionFee": "0.00039532",
            "txnHash": "0x34e0b035fc674a9781d6465fecaf7467df88a660e61bd0774b17a76f8726a69f",
            "txnIndex": 86,
            "type": 0,
            "value": "0"
        },
        "fund_flow": [
            {
                "amount": "0.0898",
                "from": "0x8d12a197cb00d4747a1fe03395095ce2a5cc6819",
                "id": 1,
                "isERC1155": false,
                "isERC721": false,
                "isReverted": false,
                "order": 1,
                "to": "0x838f57ac7b08fcf07a9d0c4069abb328d87dec4a",
                "token": "0x4470bb87d77b963a013db939be332f927f2b992e"
            }
        ],
        "token_infos": [
            {
                "address": "0x4470bb87d77b963a013db939be332f927f2b992e",
                "decimals": 4
            },
            {
                "address": "0xc02aaa39b223fe8d0a0e5c4f27ead9083c756cc2",
                "decimals": 18
            },
            {
                "address": "0xeeeeeeeeeeeeeeeeeeeeeeeeeeeeeeeeeeeeeeee",
                "decimals": 18
            }
        ]
    },
    "address_label": {
        "labels": [
            {
                "address": "0x4470bb87d77b963a013db939be332f927f2b992e",
                "label": "AdEx: Old Token"
            },
            {
                "address": "0x0000000000000000000000000000000000000001",
                "label": "Precompiled"
            },
            {
                "address": "0x0000000000000000000000000000000000000002",
                "label": "Precompiled"
            },
            {
                "address": "0x0000000000000000000000000000000000000003",
                "label": "Precompiled"
            },
            {
                "address": "0x0000000000000000000000000000000000000004",
                "label": "Precompiled"
            },
            {
                "address": "0xeeeeeeeeeeeeeeeeeeeeeeeeeeeeeeeeeeeeeeee",
                "label": "Ether"
            },
            {
                "address": "0x8d12a197cb00d4747a1fe03395095ce2a5cc6819",
                "label": "EtherDelta"
            }
        ]
    },
    "trace": {
        "accountLabels": null,
        "dataMap": {
            "-1": {
                "invocation": {
                    "address": "0x838f57ac7b08fcf07a9d0c4069abb328d87dec4a",
                    "callData": "",
                    "decodedMethod": null,
                    "errorInfo": "",
                    "fromAddress": "",
                    "gasUsed": 0,
                    "id": -1,
                    "methodDecoded": false,
                    "operation": "",
                    "output": "",
                    "revert": false,
                    "revertMessage": "",
                    "selector": "",
                    "status": false,
                    "value": ""
                },
                "nodeType": 0
            },
            "0": {
                "invocation": {
                    "address": "0x8d12a197cb00d4747a1fe03395095ce2a5cc6819",
                    "callData": "0x0000000000000000000000004470bb87d77b963a013db939be332f927f2b992e0000000000000000000000000000000000000000000000000000000000000382",
                    "decodedMethod": {
                        "callParams": [
                            {
                                "name": "token",
                                "type": "address",
                                "value": "0x4470bb87d77b963a013db939be332f927f2b992e"
                            },
                            {
                                "name": "amount",
                                "type": "uint256",
                                "value": "898"
                            }
                        ],
                        "constructorArguments": "",
                        "name": "withdrawToken",
                        "returnParams": [],
                        "signature": "withdrawToken(address,uint256)"
                    },
                    "errorInfo": "",
                    "fromAddress": "0x838f57ac7b08fcf07a9d0c4069abb328d87dec4a",
                    "gasUsed": 49415,
                    "id": 0,
                    "methodDecoded": true,
                    "operation": "CALL",
                    "output": "",
                    "revert": false,
                    "revertMessage": "",
                    "selector": "0x9e281a98",
                    "status": true,
                    "value": "0"
                },
                "nodeType": 0
            },
            "1": {
                "invocation": {
                    "address": "0x4470bb87d77b963a013db939be332f927f2b992e",
                    "callData": "0x000000000000000000000000838f57ac7b08fcf07a9d0c4069abb328d87dec4a0000000000000000000000000000000000000000000000000000000000000382",
                    "decodedMethod": {
                        "callParams": [
                            {
                                "name": "_to",
                                "type": "address",
                                "value": "0x838f57ac7b08fcf07a9d0c4069abb328d87dec4a"
                            },
                            {
                                "decimalAvailable": true,
                                "name": "_value",
                                "type": "uint256",
                                "value": "898"
                            }
                        ],
                        "constructorArguments": "",
                        "name": "transfer",
                        "returnParams": [],
                        "signature": "transfer(address,uint256)"
                    },
                    "errorInfo": "",
                    "fromAddress": "0x8d12a197cb00d4747a1fe03395095ce2a5cc6819",
                    "gasUsed": 30526,
                    "id": 1,
                    "methodDecoded": true,
                    "operation": "CALL",
                    "output": "",
                    "revert": false,
                    "revertMessage": "",
                    "selector": "0xa9059cbb",
                    "status": true,
                    "value": "0"
                },
                "nodeType": 0
            },
            "2": {
                "event": {
                    "contract": "0x4470bb87d77b963a013db939be332f927f2b992e",
                    "decodedLog": {
                        "name": "Transfer",
                        "params": [
                            {
                                "name": "from",
                                "type": "address",
                                "value": "0x8d12a197cb00d4747a1fe03395095ce2a5cc6819"
                            },
                            {
                                "name": "to",
                                "type": "address",
                                "value": "0x838f57ac7b08fcf07a9d0c4069abb328d87dec4a"
                            },
                            {
                                "decimalAvailable": true,
                                "name": "value",
                                "type": "uint256",
                                "value": "898"
                            }
                        ],
                        "signature": "Transfer(address,address,uint256)"
                    },
                    "id": 2,
                    "logData": "0x0000000000000000000000000000000000000000000000000000000000000382",
                    "logDecoded": true,
                    "operation": "EVENT",
                    "revert": false,
                    "status": true,
                    "topics": [
                        "0xddf252ad1be2c89b69c2b068fc378daa952ba7f163c4a11628f55a4df523b3ef",
                        "0x0000000000000000000000008d12a197cb00d4747a1fe03395095ce2a5cc6819",
                        "0x000000000000000000000000838f57ac7b08fcf07a9d0c4069abb328d87dec4a"
                    ]
                },
                "nodeType": 1
            },
            "3": {
                "event": {
                    "contract": "0x8d12a197cb00d4747a1fe03395095ce2a5cc6819",
                    "decodedLog": {
                        "name": "Withdraw",
                        "params": [
                            {
                                "name": "token",
                                "type": "address",
                                "value": "0x4470bb87d77b963a013db939be332f927f2b992e"
                            },
                            {
                                "name": "user",
                                "type": "address",
                                "value": "0x838f57ac7b08fcf07a9d0c4069abb328d87dec4a"
                            },
                            {
                                "name": "amount",
                                "type": "uint256",
                                "value": "898"
                            },
                            {
                                "name": "balance",
                                "type": "uint256",
                                "value": "0"
                            }
                        ],
                        "signature": "Withdraw(address,address,uint256,uint256)"
                    },
                    "id": 3,
                    "logData": "0x0000000000000000000000004470bb87d77b963a013db939be332f927f2b992e000000000000000000000000838f57ac7b08fcf07a9d0c4069abb328d87dec4a00000000000000000000000000000000000000000000000000000000000003820000000000000000000000000000000000000000000000000000000000000000",
                    "logDecoded": true,
                    "operation": "EVENT",
                    "revert": false,
                    "status": true,
                    "topics": [
                        "0xf341246adaac6f497bc2a656f546ab9e182111d630394f0c57c710a59a2cb567"
                    ]
                },
                "nodeType": 1
            }
        },
        "gasFlame": [
            {
                "children": [
                    {
                        "children": [
                            {
                                "children": [],
                                "depth": 0,
                                "name": "Initial Gas",
                                "value": 22936
                            },
                            {
                                "children": [
                                    {
                                        "children": [],
                                        "depth": 1,
                                        "name": "transfer",
                                        "value": 30526
                                    }
                                ],
                                "depth": 0,
                                "name": "Executed Gas",
                                "value": 41479
                            }
                        ],
                        "depth": -1,
                        "name": "Actual Gas Used",
                        "value": 49415
                    },
                    {
                        "children": [],
                        "depth": -1,
                        "name": "Refunded Gas",
                        "value": 15000
                    }
                ],
                "depth": -2,
                "name": "Total Gas",
                "value": 64415
            }
        ],
        "isConfirmed": true,
        "mainTrace": [
            {
                "children": [
                    {
                        "children": [
                            {
                                "children": [
                                    {
                                        "children": [],
                                        "depth": 2,
                                        "id": 2,
                                        "order": 2
                                    }
                                ],
                                "depth": 1,
                                "id": 1,
                                "order": 1
                            },
                            {
                                "children": [],
                                "depth": 1,
                                "id": 3,
                                "order": 3
                            }
                        ],
                        "depth": 0,
                        "id": 0,
                        "order": 0
                    }
                ],
                "depth": -1,
                "id": -1,
                "order": -1
            }
        ],
        "mainTraceNodeCount": 4,
        "parentIdMap": {
            "0": -1,
            "1": 0,
            "2": 1,
            "3": 0
        },
        "tidyTrace": [
            {
                "children": [
                    {
                        "children": [
                            {
                                "children": [
                                    {
                                        "children": [],
                                        "depth": 2,
                                        "id": 2,
                                        "order": 2
                                    }
                                ],
                                "depth": 1,
                                "id": 1,
                                "order": 1
                            },
                            {
                                "children": [],
                                "depth": 1,
                                "id": 3,
                                "order": 3
                            }
                        ],
                        "depth": 0,
                        "id": 0,
                        "order": 0
                    }
                ],
                "depth": -1,
                "id": -1,
                "order": -1
            }
        ],
        "tidyTraceNodeCount": 4
    },
    "state_change": {
        "stateChanges": [
            {
                "address": "0x4470bb87d77b963a013db939be332f927f2b992e",
                "erc": "ERC-20",
                "slots": [
                    {
                        "current": "0x00000000000000000000000000000000000000000000000000000000c9ff5de3",
                        "key": "0xb92522e638b186e13420d1d4f314a4ef16c92d13980d8e1d96891ef9aaa8c3e7",
                        "prev": "0x00000000000000000000000000000000000000000000000000000000c9ff6165"
                    },
                    {
                        "current": "0x0000000000000000000000000000000000000000000000000000000000000382",
                        "key": "0x5373efdd3ad6f879d6dd9d0dae20579c85e0639f5c175e152f4f19f0bd8a858d",
                        "prev": "0x0000000000000000000000000000000000000000000000000000000000000000"
                    }
                ],
                "storageVariables": []
            },
            {
                "address": "0x8d12a197cb00d4747a1fe03395095ce2a5cc6819",
                "erc": "",
                "slots": [
                    {
                        "current": "0x0000000000000000000000000000000000000000000000000000000000000000",
                        "key": "0x0b732ea7fa9c456001e46d2a6bf1f32c695903a8d25491c33e1470c3db1759e1",
                        "prev": "0x0000000000000000000000000000000000000000000000000000000000000382"
                    }
                ],
                "storageVariables": []
            }
        ]
    }
}