{
    "balance_change": {
        "balanceChanges": []
    },
    "profile": {
        "basic_info": {
            "baseFee": "20.029554008",
            "blockNumber": 17438606,
            "callData": "0xc10bea5c000000000000000000000000000000000000000000000000000000000000004000000000000000000000000000000000000000000000000000000000000001c00000000000000000000000000000000000000000000000000000000000000000000000000000000000000000000000000000000000000000000000000000000000000000000000000000000076f187059039c13a93d43b6b6dc929f5f9806929000000000000000000000000f7a2f863299c17dfa11cd8a14e7c7dca92f315b90000000000000000000000005a59bb68447265fc2df04fb12c4b0344c51cef2d00000000000000000000000000000000000000000000000016345785d8a00000000000000000000000000000000000000000002fcce401d7535dc863aa06676e00000000000000000000000000000000000000000000000000000000000001400000000000000000000000000000000000000000000000000000000000000000000000000000000000000000c02aaa39b223fe8d0a0e5c4f27ead9083c756cc2000000000000000000000000000000000000000000000000000000000000000377656200000000000000000000000000000000000000000000000000000000000000000000000000000000000000000000000000000000000000000000000000000000000000000000000000000000000000000000000000000000000000000000000000000000000000000000000000000000000000000000000000000000600000000000000000000000000000000000000000000000000000000000000360000000000000000000000000000000000000000000000000000000000000002000000000000000000000000076f187059039c13a93d43b6b6dc929f5f98069290000000000000000000000005a59bb68447265fc2df04fb12c4b0344c51cef2d00000000000000000000000000000000000000000000000000000000000000e00000000000000000000000000000000000000000000000000000000000000120000000000000000000000000000000000000000000000000000000000000016000000000000000000000000000000000000000000000000000000000000001a000000000000000000000000000000000000000000000000000000000000001e00000000000000000000000000000000000000000000000000000000000000001000000000000000000000000000000000000000000000000162349f2c1b400000000000000000000000000000000000000000000000000000000000000000001000000000000000000000000000000000000000000000000000000000000000000000000000000000000000000000000000000000000000000000000000000010000000000000000000000007a250d5630b4cf539739df2c5dacb4c659f2488d00000000000000000000000000000000000000000000000000000000000000010000000000000000000000007a250d5630b4cf539739df2c5dacb4c659f2488d0000000000000000000000000000000000000000000000000000000000000001000000000000000000000000000000000000000000000000000000000000002000000000000000000000000000000000000000000000000000000000000000e47ff36ab5000000000000000000000000000000000000000000000000000000000000000100000000000000000000000000000000000000000000000000000000000000800000000000000000000000005a59bb68447265fc2df04fb12c4b0344c51cef2d00000000000000000000000000000000000000000000000000000000648260590000000000000000000000000000000000000000000000000000000000000002000000000000000000000000c02aaa39b223fe8d0a0e5c4f27ead9083c756cc200000000000000000000000076f187059039c13a93d43b6b6dc929f5f980692900000000000000000000000000000000000000000000000000000000",
            "debugEnable": true,
            "errorInfo": "execution reverted",
            "eventCount": 5,
            "feeRecipient": "0x690b9a9e9aa1c9db991c7721a92d351db4fac990",
            "formatValue": "1.6",
            "gasLimit": 359080,
            "gasPrice": "20.150554008",
            "gasUsed": 220753,
            "intTxnCount": 14,
            "internalRevert": true,
            "internalRevertMessage": "",
            "isContractCreation": false,
            "isFlashloan": false,
            "maxFee": "27",
            "nonce": 35,
            "overwritedBlockNumber": -1,
            "priorityFee": "0.121",
            "receiver": "0xb45a2dda996c32e93b8c47098e90ed0e7ab18e39",
            "revertMessage": "'TransitSwap: insufficient return amount",
            "sender": "0x5a59bb68447265fc2df04fb12c4b0344c51cef2d",
            "simulationEnable": true,
            "sourceTxnHash": "0x3448cc2852ca3573f834c032c46ecf09d2b9915e277875ba69f2bd79e67d7502",
            "status": false,
            "timestamp": "2023-06-08T22:42:47Z",
            "transactionFee": "0.004448295248928024",
            "txnHash": "0x3448cc2852ca3573f834c032c46ecf09d2b9915e277875ba69f2bd79e67d7502",
            "txnIndex": 89,
            "type": 2,
            "value": "1600000000000000000"
        },
        "fund_flow": [],
        "token_infos": [
            {
                "address": "0x76f187059039c13a93d43b6b6dc929f5f9806929",
                "decimals": 18
            },
            {
                "address": "0xc02aaa39b223fe8d0a0e5c4f27ead9083c756cc2",
                "decimals": 18
            },
            {
                "address": "0xeeeeeeeeeeeeeeeeeeeeeeeeeeeeeeeeeeeeeeee",
                "decimals": 18
            }
        ]
    },
    "address_label": {
        "labels": [
            {
                "address": "0xf8f40390f2826ee811399bb8208bcc0c6f2f6a7a",
                "label": "TransitAllowed"
            },
            {
                "address": "0x7a250d5630b4cf539739df2c5dacb4c659f2488d",
                "label": "Uniswap V2: Router 2"
            },
            {
                "address": "0xc480936bc252e5d09a8cbec7fcc3b5ae03152c6b",
                "label": "Uniswap V2: WOOFIE 2"
            },
            {
                "address": "0x0000000000000000000000000000000000000000",
                "label": "Null Address"
            },
            {
                "address": "0xeeeeeeeeeeeeeeeeeeeeeeeeeeeeeeeeeeeeeeee",
                "label": "Ether"
            },
            {
                "address": "0x1f6e41c47349634fe261403a18f8515546f58826",
                "label": "TransitSwapFees"
            },
            {
                "address": "0xb45a2dda996c32e93b8c47098e90ed0e7ab18e39",
                "label": "Transit Swap: Router V4 2"
            },
            {
                "address": "0xf7a2f863299c17dfa11cd8a14e7c7dca92f315b9",
                "label": "TransitSwap"
            },
            {
                "address": "0x0000000000000000000000000000000000000002",
                "label": "Precompiled"
            },
            {
                "address": "0x76f187059039c13a93d43b6b6dc929f5f9806929",
                "label": "Woofie (WOOFIE)"
            },
            {
                "address": "0xc02aaa39b223fe8d0a0e5c4f27ead9083c756cc2",
                "label": "Wrapped Ether (WETH)"
            },
            {
                "address": "0x0000000000000000000000000000000000000001",
                "label": "Precompiled"
            },
            {
                "address": "0x0000000000000000000000000000000000000003",
                "label": "Precompiled"
            },
            {
                "address": "0x0000000000000000000000000000000000000004",
                "label": "Precompiled"
            }
        ]
    },
    "trace": {
        "accountLabels": null,
        "dataMap": {
            "-1": {
                "invocation": {
                    "address": "0x5a59bb68447265fc2df04fb12c4b0344c51cef2d",
                    "callData": "",
                    "decodedMethod": null,
                    "errorInfo": "",
                    "fromAddress": "",
                    "gasUsed": 0,
                    "id": -1,
                    "methodDecoded": false,
                    "operation": "",
                    "output": "",
                    "revert": false,
                    "revertMessage": "",
                    "selector": "",
                    "status": false,
                    "value": ""
                },
                "nodeType": 0
            },
            "0": {
                "invocation": {
                    "address": "0xb45a2dda996c32e93b8c47098e90ed0e7ab18e39",
                    "callData": "0x000000000000000000000000000000000000000000000000000000000000004000000000000000000000000000000000000000000000000000000000000001c00000000000000000000000000000000000000000000000000000000000000000000000000000000000000000000000000000000000000000000000000000000000000000000000000000000076f187059039c13a93d43b6b6dc929f5f9806929000000000000000000000000f7a2f863299c17dfa11cd8a14e7c7dca92f315b90000000000000000000000005a59bb68447265fc2df04fb12c4b0344c51cef2d00000000000000000000000000000000000000000000000016345785d8a00000000000000000000000000000000000000000002fcce401d7535dc863aa06676e00000000000000000000000000000000000000000000000000000000000001400000000000000000000000000000000000000000000000000000000000000000000000000000000000000000c02aaa39b223fe8d0a0e5c4f27ead9083c756cc2000000000000000000000000000000000000000000000000000000000000000377656200000000000000000000000000000000000000000000000000000000000000000000000000000000000000000000000000000000000000000000000000000000000000000000000000000000000000000000000000000000000000000000000000000000000000000000000000000000000000000000000000000000600000000000000000000000000000000000000000000000000000000000000360000000000000000000000000000000000000000000000000000000000000002000000000000000000000000076f187059039c13a93d43b6b6dc929f5f98069290000000000000000000000005a59bb68447265fc2df04fb12c4b0344c51cef2d00000000000000000000000000000000000000000000000000000000000000e00000000000000000000000000000000000000000000000000000000000000120000000000000000000000000000000000000000000000000000000000000016000000000000000000000000000000000000000000000000000000000000001a000000000000000000000000000000000000000000000000000000000000001e00000000000000000000000000000000000000000000000000000000000000001000000000000000000000000000000000000000000000000162349f2c1b400000000000000000000000000000000000000000000000000000000000000000001000000000000000000000000000000000000000000000000000000000000000000000000000000000000000000000000000000000000000000000000000000010000000000000000000000007a250d5630b4cf539739df2c5dacb4c659f2488d00000000000000000000000000000000000000000000000000000000000000010000000000000000000000007a250d5630b4cf539739df2c5dacb4c659f2488d0000000000000000000000000000000000000000000000000000000000000001000000000000000000000000000000000000000000000000000000000000002000000000000000000000000000000000000000000000000000000000000000e47ff36ab5000000000000000000000000000000000000000000000000000000000000000100000000000000000000000000000000000000000000000000000000000000800000000000000000000000005a59bb68447265fc2df04fb12c4b0344c51cef2d00000000000000000000000000000000000000000000000000000000648260590000000000000000000000000000000000000000000000000000000000000002000000000000000000000000c02aaa39b223fe8d0a0e5c4f27ead9083c756cc200000000000000000000000076f187059039c13a93d43b6b6dc929f5f980692900000000000000000000000000000000000000000000000000000000",
                    "decodedMethod": {
                        "callParams": [
                            {
                                "name": "desc",
                                "type": "(uint8,address,address,address,address,uint256,uint256,string,uint256,address)",
                                "value": [
                                    {
                                        "name": "swapType",
                                        "type": "uint8",
                                        "value": "0"
                                    },
                                    {
                                        "name": "srcToken",
                                        "type": "address",
                                        "value": "0x0000000000000000000000000000000000000000"
                                    },
                                    {
                                        "name": "dstToken",
                                        "type": "address",
                                        "value": "0x76f187059039c13a93d43b6b6dc929f5f9806929"
                                    },
                                    {
                                        "name": "srcReceiver",
                                        "type": "address",
                                        "value": "0xf7a2f863299c17dfa11cd8a14e7c7dca92f315b9"
                                    },
                                    {
                                        "name": "dstReceiver",
                                        "type": "address",
                                        "value": "0x5a59bb68447265fc2df04fb12c4b0344c51cef2d"
                                    },
                                    {
                                        "name": "amount",
                                        "type": "uint256",
                                        "value": "1,600,000,000,000,000,000"
                                    },
                                    {
                                        "name": "minReturnAmount",
                                        "type": "uint256",
                                        "value": "3,787,134,223,955,274,032,893,814,794,094"
                                    },
                                    {
                                        "name": "channel",
                                        "type": "string",
                                        "value": "web"
                                    },
                                    {
                                        "name": "toChainID",
                                        "type": "uint256",
                                        "value": "0"
                                    },
                                    {
                                        "name": "wrappedNative",
                                        "type": "address",
                                        "value": "0xc02aaa39b223fe8d0a0e5c4f27ead9083c756cc2"
                                    }
                                ]
                            },
                            {
                                "name": "callbytesDesc",
                                "type": "(uint8,address,bytes)",
                                "value": [
                                    {
                                        "name": "flag",
                                        "type": "uint8",
                                        "value": "0"
                                    },
                                    {
                                        "name": "srcToken",
                                        "type": "address",
                                        "value": "0x0000000000000000000000000000000000000000"
                                    },
                                    {
                                        "name": "calldatas",
                                        "type": "bytes",
                                        "value": "0x000000000000000000000000000000000000000000000000000000000000002000000000000000000000000076f187059039c13a93d43b6b6dc929f5f98069290000000000000000000000005a59bb68447265fc2df04fb12c4b0344c51cef2d00000000000000000000000000000000000000000000000000000000000000e00000000000000000000000000000000000000000000000000000000000000120000000000000000000000000000000000000000000000000000000000000016000000000000000000000000000000000000000000000000000000000000001a000000000000000000000000000000000000000000000000000000000000001e00000000000000000000000000000000000000000000000000000000000000001000000000000000000000000000000000000000000000000162349f2c1b400000000000000000000000000000000000000000000000000000000000000000001000000000000000000000000000000000000000000000000000000000000000000000000000000000000000000000000000000000000000000000000000000010000000000000000000000007a250d5630b4cf539739df2c5dacb4c659f2488d00000000000000000000000000000000000000000000000000000000000000010000000000000000000000007a250d5630b4cf539739df2c5dacb4c659f2488d0000000000000000000000000000000000000000000000000000000000000001000000000000000000000000000000000000000000000000000000000000002000000000000000000000000000000000000000000000000000000000000000e47ff36ab5000000000000000000000000000000000000000000000000000000000000000100000000000000000000000000000000000000000000000000000000000000800000000000000000000000005a59bb68447265fc2df04fb12c4b0344c51cef2d00000000000000000000000000000000000000000000000000000000648260590000000000000000000000000000000000000000000000000000000000000002000000000000000000000000c02aaa39b223fe8d0a0e5c4f27ead9083c756cc200000000000000000000000076f187059039c13a93d43b6b6dc929f5f980692900000000000000000000000000000000000000000000000000000000"
                                    }
                                ]
                            }
                        ],
                        "constructorArguments": "",
                        "name": "swap",
                        "returnParams": [],
                        "signature": "swap((uint8,address,address,address,address,uint256,uint256,string,uint256,address),(uint8,address,bytes))"
                    },
                    "errorInfo": "execution reverted",
                    "fromAddress": "0x5a59bb68447265fc2df04fb12c4b0344c51cef2d",
                    "gasUsed": 220753,
                    "id": 0,
                    "methodDecoded": true,
                    "operation": "CALL",
                    "output": "0x08c379a0000000000000000000000000000000000000000000000000000000000000002000000000000000000000000000000000000000000000000000000000000000275472616e736974537761703a20696e73756666696369656e742072657475726e20616d6f756e7400000000000000000000000000000000000000000000000000",
                    "revert": true,
                    "revertMessage": "'TransitSwap: insufficient return amount",
                    "selector": "0xc10bea5c",
                    "status": false,
                    "value": "1.6"
                },
                "nodeType": 0
            },
            "1": {
                "invocation": {
                    "address": "0x1f6e41c47349634fe261403a18f8515546f58826",
                    "callData": "0x0000000000000000000000005a59bb68447265fc2df04fb12c4b0344c51cef2d00000000000000000000000000000000000000000000000016345785d8a000000000000000000000000000000000000000000000000000000000000000000000000000000000000000000000000000000000000000000000000000000000008000000000000000000000000000000000000000000000000000000000000000037765620000000000000000000000000000000000000000000000000000000000",
                    "decodedMethod": {
                        "callParams": [
                            {
                                "name": "trader",
                                "type": "address",
                                "value": "0x5a59bb68447265fc2df04fb12c4b0344c51cef2d"
                            },
                            {
                                "name": "tradeAmount",
                                "type": "uint256",
                                "value": "1,600,000,000,000,000,000"
                            },
                            {
                                "name": "swapType",
                                "type": "uint8",
                                "value": "0"
                            },
                            {
                                "name": "channel",
                                "type": "string",
                                "value": "web"
                            }
                        ],
                        "constructorArguments": "",
                        "name": "getFeeRate",
                        "returnParams": [
                            {
                                "name": "payFees",
                                "type": "uint256",
                                "value": "4,800,000,000,000,000"
                            }
                        ],
                        "signature": "getFeeRate(address,uint256,uint8,string)"
                    },
                    "errorInfo": "",
                    "fromAddress": "0xb45a2dda996c32e93b8c47098e90ed0e7ab18e39",
                    "gasUsed": 8354,
                    "id": 1,
                    "methodDecoded": true,
                    "operation": "STATICCALL",
                    "output": "0x00000000000000000000000000000000000000000000000000110d9316ec0000",
                    "revert": true,
                    "revertMessage": "",
                    "selector": "0x19fa763a",
                    "status": true,
                    "value": "0"
                },
                "nodeType": 0
            },
            "10": {
                "invocation": {
                    "address": "0xc02aaa39b223fe8d0a0e5c4f27ead9083c756cc2",
                    "callData": "0x000000000000000000000000c480936bc252e5d09a8cbec7fcc3b5ae03152c6b000000000000000000000000000000000000000000000000162349f2c1b40000",
                    "decodedMethod": {
                        "callParams": [
                            {
                                "name": "dst",
                                "type": "address",
                                "value": "0xc480936bc252e5d09a8cbec7fcc3b5ae03152c6b"
                            },
                            {
                                "decimalAvailable": true,
                                "name": "wad",
                                "type": "uint256",
                                "value": "1,595,200,000,000,000,000"
                            }
                        ],
                        "constructorArguments": "",
                        "name": "transfer",
                        "returnParams": [
                            {
                                "name": "",
                                "type": "bool",
                                "value": true
                            }
                        ],
                        "signature": "transfer(address,uint256)"
                    },
                    "errorInfo": "",
                    "fromAddress": "0x7a250d5630b4cf539739df2c5dacb4c659f2488d",
                    "gasUsed": 8062,
                    "id": 10,
                    "methodDecoded": true,
                    "operation": "CALL",
                    "output": "0x0000000000000000000000000000000000000000000000000000000000000001",
                    "revert": true,
                    "revertMessage": "",
                    "selector": "0xa9059cbb",
                    "status": true,
                    "value": "0"
                },
                "nodeType": 0
            },
            "11": {
                "event": {
                    "contract": "0xc02aaa39b223fe8d0a0e5c4f27ead9083c756cc2",
                    "decodedLog": {
                        "name": "Transfer",
                        "params": [
                            {
                                "name": "src",
                                "type": "address",
                                "value": "0x7a250d5630b4cf539739df2c5dacb4c659f2488d"
                            },
                            {
                                "name": "dst",
                                "type": "address",
                                "value": "0xc480936bc252e5d09a8cbec7fcc3b5ae03152c6b"
                            },
                            {
                                "decimalAvailable": true,
                                "name": "wad",
                                "type": "uint256",
                                "value": "1,595,200,000,000,000,000"
                            }
                        ],
                        "signature": "Transfer(address,address,uint256)"
                    },
                    "id": 11,
                    "logData": "0x000000000000000000000000000000000000000000000000162349f2c1b40000",
                    "logDecoded": true,
                    "operation": "EVENT",
                    "revert": true,
                    "status": false,
                    "topics": [
                        "0xddf252ad1be2c89b69c2b068fc378daa952ba7f163c4a11628f55a4df523b3ef",
                        "0x0000000000000000000000007a250d5630b4cf539739df2c5dacb4c659f2488d",
                        "0x000000000000000000000000c480936bc252e5d09a8cbec7fcc3b5ae03152c6b"
                    ]
                },
                "nodeType": 1
            },
            "12": {
                "invocation": {
                    "address": "0xc480936bc252e5d09a8cbec7fcc3b5ae03152c6b",
                    "callData": "0x000000000000000000000000000000000000002dad59b1e3a9dbf152bbcd751f00000000000000000000000000000000000000000000000000000000000000000000000000000000000000005a59bb68447265fc2df04fb12c4b0344c51cef2d00000000000000000000000000000000000000000000000000000000000000800000000000000000000000000000000000000000000000000000000000000000",
                    "decodedMethod": {
                        "callParams": [
                            {
                                "name": "amount0Out",
                                "type": "uint256",
                                "value": "3,618,916,654,297,451,605,004,634,649,887"
                            },
                            {
                                "name": "amount1Out",
                                "type": "uint256",
                                "value": "0"
                            },
                            {
                                "name": "to",
                                "type": "address",
                                "value": "0x5a59bb68447265fc2df04fb12c4b0344c51cef2d"
                            },
                            {
                                "name": "data",
                                "type": "bytes",
                                "value": "0x"
                            }
                        ],
                        "constructorArguments": "",
                        "name": "swap",
                        "returnParams": [],
                        "signature": "swap(uint256,uint256,address,bytes)"
                    },
                    "errorInfo": "",
                    "fromAddress": "0x7a250d5630b4cf539739df2c5dacb4c659f2488d",
                    "gasUsed": 50387,
                    "id": 12,
                    "methodDecoded": true,
                    "operation": "CALL",
                    "output": "",
                    "revert": true,
                    "revertMessage": "",
                    "selector": "0x022c0d9f",
                    "status": true,
                    "value": "0"
                },
                "nodeType": 0
            },
            "13": {
                "invocation": {
                    "address": "0x76f187059039c13a93d43b6b6dc929f5f9806929",
                    "callData": "0x0000000000000000000000005a59bb68447265fc2df04fb12c4b0344c51cef2d000000000000000000000000000000000000002dad59b1e3a9dbf152bbcd751f",
                    "decodedMethod": {
                        "callParams": [
                            {
                                "name": "recipient",
                                "type": "address",
                                "value": "0x5a59bb68447265fc2df04fb12c4b0344c51cef2d"
                            },
                            {
                                "decimalAvailable": true,
                                "name": "amount",
                                "type": "uint256",
                                "value": "3,618,916,654,297,451,605,004,634,649,887"
                            }
                        ],
                        "constructorArguments": "",
                        "name": "transfer",
                        "returnParams": [
                            {
                                "name": "",
                                "type": "bool",
                                "value": true
                            }
                        ],
                        "signature": "transfer(address,uint256)"
                    },
                    "errorInfo": "",
                    "fromAddress": "0xc480936bc252e5d09a8cbec7fcc3b5ae03152c6b",
                    "gasUsed": 28339,
                    "id": 13,
                    "methodDecoded": true,
                    "operation": "CALL",
                    "output": "0x0000000000000000000000000000000000000000000000000000000000000001",
                    "revert": true,
                    "revertMessage": "",
                    "selector": "0xa9059cbb",
                    "status": true,
                    "value": "0"
                },
                "nodeType": 0
            },
            "14": {
                "event": {
                    "contract": "0x76f187059039c13a93d43b6b6dc929f5f9806929",
                    "decodedLog": {
                        "name": "Transfer",
                        "params": [
                            {
                                "name": "from",
                                "type": "address",
                                "value": "0xc480936bc252e5d09a8cbec7fcc3b5ae03152c6b"
                            },
                            {
                                "name": "to",
                                "type": "address",
                                "value": "0x5a59bb68447265fc2df04fb12c4b0344c51cef2d"
                            },
                            {
                                "decimalAvailable": true,
                                "name": "value",
                                "type": "uint256",
                                "value": "3,618,916,654,297,451,605,004,634,649,887"
                            }
                        ],
                        "signature": "Transfer(address,address,uint256)"
                    },
                    "id": 14,
                    "logData": "0x000000000000000000000000000000000000002dad59b1e3a9dbf152bbcd751f",
                    "logDecoded": true,
                    "operation": "EVENT",
                    "revert": true,
                    "status": false,
                    "topics": [
                        "0xddf252ad1be2c89b69c2b068fc378daa952ba7f163c4a11628f55a4df523b3ef",
                        "0x000000000000000000000000c480936bc252e5d09a8cbec7fcc3b5ae03152c6b",
                        "0x0000000000000000000000005a59bb68447265fc2df04fb12c4b0344c51cef2d"
                    ]
                },
                "nodeType": 1
            },
            "15": {
                "invocation": {
                    "address": "0x76f187059039c13a93d43b6b6dc929f5f9806929",
                    "callData": "0x000000000000000000000000c480936bc252e5d09a8cbec7fcc3b5ae03152c6b",
                    "decodedMethod": {
                        "callParams": [
                            {
                                "name": "account",
                                "type": "address",
                                "value": "0xc480936bc252e5d09a8cbec7fcc3b5ae03152c6b"
                            }
                        ],
                        "constructorArguments": "",
                        "name": "balanceOf",
                        "returnParams": [
                            {
                                "decimalAvailable": true,
                                "name": "",
                                "type": "uint256",
                                "value": "251,841,424,297,573,044,744,956,045,047,248"
                            }
                        ],
                        "signature": "balanceOf(address)"
                    },
                    "errorInfo": "",
                    "fromAddress": "0xc480936bc252e5d09a8cbec7fcc3b5ae03152c6b",
                    "gasUsed": 607,
                    "id": 15,
                    "methodDecoded": true,
                    "operation": "STATICCALL",
                    "output": "0x0000000000000000000000000000000000000c6aaf879ddf9eb0784f6d0235d0",
                    "revert": true,
                    "revertMessage": "",
                    "selector": "0x70a08231",
                    "status": true,
                    "value": "0"
                },
                "nodeType": 0
            },
            "16": {
                "invocation": {
                    "address": "0xc02aaa39b223fe8d0a0e5c4f27ead9083c756cc2",
                    "callData": "0x000000000000000000000000c480936bc252e5d09a8cbec7fcc3b5ae03152c6b",
                    "decodedMethod": {
                        "callParams": [
                            {
                                "name": "",
                                "type": "address",
                                "value": "0xc480936bc252e5d09a8cbec7fcc3b5ae03152c6b"
                            }
                        ],
                        "constructorArguments": "",
                        "name": "balanceOf",
                        "returnParams": [
                            {
                                "decimalAvailable": true,
                                "name": "",
                                "type": "uint256",
                                "value": "112,272,583,863,963,640,746"
                            }
                        ],
                        "signature": "balanceOf(address)"
                    },
                    "errorInfo": "",
                    "fromAddress": "0xc480936bc252e5d09a8cbec7fcc3b5ae03152c6b",
                    "gasUsed": 534,
                    "id": 16,
                    "methodDecoded": true,
                    "operation": "STATICCALL",
                    "output": "0x0000000000000000000000000000000000000000000000061618582dbace63aa",
                    "revert": true,
                    "revertMessage": "",
                    "selector": "0x70a08231",
                    "status": true,
                    "value": "0"
                },
                "nodeType": 0
            },
            "17": {
                "event": {
                    "contract": "0xc480936bc252e5d09a8cbec7fcc3b5ae03152c6b",
                    "decodedLog": {
                        "name": "Sync",
                        "params": [
                            {
                                "name": "reserve0",
                                "type": "uint112",
                                "value": "251,841,424,297,573,044,744,956,045,047,248"
                            },
                            {
                                "name": "reserve1",
                                "type": "uint112",
                                "value": "112,272,583,863,963,640,746"
                            }
                        ],
                        "signature": "Sync(uint112,uint112)"
                    },
                    "id": 17,
                    "logData": "0x0000000000000000000000000000000000000c6aaf879ddf9eb0784f6d0235d00000000000000000000000000000000000000000000000061618582dbace63aa",
                    "logDecoded": true,
                    "operation": "EVENT",
                    "revert": true,
                    "status": false,
                    "topics": [
                        "0x1c411e9a96e071241c2f21f7726b17ae89e3cab4c78be50e062b03a9fffbbad1"
                    ]
                },
                "nodeType": 1
            },
            "18": {
                "event": {
                    "contract": "0xc480936bc252e5d09a8cbec7fcc3b5ae03152c6b",
                    "decodedLog": {
                        "name": "Swap",
                        "params": [
                            {
                                "name": "sender",
                                "type": "address",
                                "value": "0x7a250d5630b4cf539739df2c5dacb4c659f2488d"
                            },
                            {
                                "name": "to",
                                "type": "address",
                                "value": "0x5a59bb68447265fc2df04fb12c4b0344c51cef2d"
                            },
                            {
                                "name": "amount0In",
                                "type": "uint256",
                                "value": "0"
                            },
                            {
                                "name": "amount1In",
                                "type": "uint256",
                                "value": "1,595,200,000,000,000,000"
                            },
                            {
                                "name": "amount0Out",
                                "type": "uint256",
                                "value": "3,618,916,654,297,451,605,004,634,649,887"
                            },
                            {
                                "name": "amount1Out",
                                "type": "uint256",
                                "value": "0"
                            }
                        ],
                        "signature": "Swap(address,uint256,uint256,uint256,uint256,address)"
                    },
                    "id": 18,
                    "logData": "0x0000000000000000000000000000000000000000000000000000000000000000000000000000000000000000000000000000000000000000162349f2c1b40000000000000000000000000000000000000000002dad59b1e3a9dbf152bbcd751f0000000000000000000000000000000000000000000000000000000000000000",
                    "logDecoded": true,
                    "operation": "EVENT",
                    "revert": true,
                    "status": false,
                    "topics": [
                        "0xd78ad95fa46c994b6551d0da85fc275fe613ce37657fb8d5e3d130840159d822",
                        "0x0000000000000000000000007a250d5630b4cf539739df2c5dacb4c659f2488d",
                        "0x0000000000000000000000005a59bb68447265fc2df04fb12c4b0344c51cef2d"
                    ]
                },
                "nodeType": 1
            },
            "19": {
                "invocation": {
                    "address": "0x76f187059039c13a93d43b6b6dc929f5f9806929",
                    "callData": "0x0000000000000000000000005a59bb68447265fc2df04fb12c4b0344c51cef2d",
                    "decodedMethod": {
                        "callParams": [
                            {
                                "name": "account",
                                "type": "address",
                                "value": "0x5a59bb68447265fc2df04fb12c4b0344c51cef2d"
                            }
                        ],
                        "constructorArguments": "",
                        "name": "balanceOf",
                        "returnParams": [
                            {
                                "decimalAvailable": true,
                                "name": "",
                                "type": "uint256",
                                "value": "3,618,916,654,297,451,605,004,634,649,887"
                            }
                        ],
                        "signature": "balanceOf(address)"
                    },
                    "errorInfo": "",
                    "fromAddress": "0xb45a2dda996c32e93b8c47098e90ed0e7ab18e39",
                    "gasUsed": 607,
                    "id": 19,
                    "methodDecoded": true,
                    "operation": "STATICCALL",
                    "output": "0x000000000000000000000000000000000000002dad59b1e3a9dbf152bbcd751f",
                    "revert": true,
                    "revertMessage": "",
                    "selector": "0x70a08231",
                    "status": true,
                    "value": "0"
                },
                "nodeType": 0
            },
            "2": {
                "invocation": {
                    "address": "0x76f187059039c13a93d43b6b6dc929f5f9806929",
                    "callData": "0x0000000000000000000000005a59bb68447265fc2df04fb12c4b0344c51cef2d",
                    "decodedMethod": {
                        "callParams": [
                            {
                                "name": "account",
                                "type": "address",
                                "value": "0x5a59bb68447265fc2df04fb12c4b0344c51cef2d"
                            }
                        ],
                        "constructorArguments": "",
                        "name": "balanceOf",
                        "returnParams": [
                            {
                                "decimalAvailable": true,
                                "name": "",
                                "type": "uint256",
                                "value": "0"
                            }
                        ],
                        "signature": "balanceOf(address)"
                    },
                    "errorInfo": "",
                    "fromAddress": "0xb45a2dda996c32e93b8c47098e90ed0e7ab18e39",
                    "gasUsed": 2607,
                    "id": 2,
                    "methodDecoded": true,
                    "operation": "STATICCALL",
                    "output": "0x0000000000000000000000000000000000000000000000000000000000000000",
                    "revert": true,
                    "revertMessage": "",
                    "selector": "0x70a08231",
                    "status": true,
                    "value": "0"
                },
                "nodeType": 0
            },
            "3": {
                "invocation": {
                    "address": "0xf7a2f863299c17dfa11cd8a14e7c7dca92f315b9",
                    "callData": "0x00000000000000000000000000000000000000000000000000000000000000200000000000000000000000000000000000000000000000000000000000000000000000000000000000000000000000000000000000000000000000000000000000000000000000000000000000000000000000000000000000000000000000600000000000000000000000000000000000000000000000000000000000000360000000000000000000000000000000000000000000000000000000000000002000000000000000000000000076f187059039c13a93d43b6b6dc929f5f98069290000000000000000000000005a59bb68447265fc2df04fb12c4b0344c51cef2d00000000000000000000000000000000000000000000000000000000000000e00000000000000000000000000000000000000000000000000000000000000120000000000000000000000000000000000000000000000000000000000000016000000000000000000000000000000000000000000000000000000000000001a000000000000000000000000000000000000000000000000000000000000001e00000000000000000000000000000000000000000000000000000000000000001000000000000000000000000000000000000000000000000162349f2c1b400000000000000000000000000000000000000000000000000000000000000000001000000000000000000000000000000000000000000000000000000000000000000000000000000000000000000000000000000000000000000000000000000010000000000000000000000007a250d5630b4cf539739df2c5dacb4c659f2488d00000000000000000000000000000000000000000000000000000000000000010000000000000000000000007a250d5630b4cf539739df2c5dacb4c659f2488d0000000000000000000000000000000000000000000000000000000000000001000000000000000000000000000000000000000000000000000000000000002000000000000000000000000000000000000000000000000000000000000000e47ff36ab5000000000000000000000000000000000000000000000000000000000000000100000000000000000000000000000000000000000000000000000000000000800000000000000000000000005a59bb68447265fc2df04fb12c4b0344c51cef2d00000000000000000000000000000000000000000000000000000000648260590000000000000000000000000000000000000000000000000000000000000002000000000000000000000000c02aaa39b223fe8d0a0e5c4f27ead9083c756cc200000000000000000000000076f187059039c13a93d43b6b6dc929f5f980692900000000000000000000000000000000000000000000000000000000",
                    "decodedMethod": {
                        "callParams": [
                            {
                                "name": "desc",
                                "type": "(uint8,address,bytes)",
                                "value": [
                                    {
                                        "name": "flag",
                                        "type": "uint8",
                                        "value": "0"
                                    },
                                    {
                                        "name": "srcToken",
                                        "type": "address",
                                        "value": "0x0000000000000000000000000000000000000000"
                                    },
                                    {
                                        "name": "calldatas",
                                        "type": "bytes",
                                        "value": "0x000000000000000000000000000000000000000000000000000000000000002000000000000000000000000076f187059039c13a93d43b6b6dc929f5f98069290000000000000000000000005a59bb68447265fc2df04fb12c4b0344c51cef2d00000000000000000000000000000000000000000000000000000000000000e00000000000000000000000000000000000000000000000000000000000000120000000000000000000000000000000000000000000000000000000000000016000000000000000000000000000000000000000000000000000000000000001a000000000000000000000000000000000000000000000000000000000000001e00000000000000000000000000000000000000000000000000000000000000001000000000000000000000000000000000000000000000000162349f2c1b400000000000000000000000000000000000000000000000000000000000000000001000000000000000000000000000000000000000000000000000000000000000000000000000000000000000000000000000000000000000000000000000000010000000000000000000000007a250d5630b4cf539739df2c5dacb4c659f2488d00000000000000000000000000000000000000000000000000000000000000010000000000000000000000007a250d5630b4cf539739df2c5dacb4c659f2488d0000000000000000000000000000000000000000000000000000000000000001000000000000000000000000000000000000000000000000000000000000002000000000000000000000000000000000000000000000000000000000000000e47ff36ab5000000000000000000000000000000000000000000000000000000000000000100000000000000000000000000000000000000000000000000000000000000800000000000000000000000005a59bb68447265fc2df04fb12c4b0344c51cef2d00000000000000000000000000000000000000000000000000000000648260590000000000000000000000000000000000000000000000000000000000000002000000000000000000000000c02aaa39b223fe8d0a0e5c4f27ead9083c756cc200000000000000000000000076f187059039c13a93d43b6b6dc929f5f980692900000000000000000000000000000000000000000000000000000000"
                                    }
                                ]
                            }
                        ],
                        "constructorArguments": "",
                        "name": "callbytes",
                        "returnParams": [],
                        "signature": "callbytes((uint8,address,bytes))"
                    },
                    "errorInfo": "",
                    "fromAddress": "0xb45a2dda996c32e93b8c47098e90ed0e7ab18e39",
                    "gasUsed": 143763,
                    "id": 3,
                    "methodDecoded": true,
                    "operation": "CALL",
                    "output": "",
                    "revert": true,
                    "revertMessage": "",
                    "selector": "0xccbe4007",
                    "status": true,
                    "value": "1.5952"
                },
                "nodeType": 0
            },
            "4": {
                "invocation": {
                    "address": "0xf8f40390f2826ee811399bb8208bcc0c6f2f6a7a",
                    "callData": "0x00000000000000000000000000000000000000000000000000000000000000000000000000000000000000007a250d5630b4cf539739df2c5dacb4c659f2488d7ff36ab500000000000000000000000000000000000000000000000000000000",
                    "decodedMethod": {
                        "callParams": [
                            {
                                "name": "flag",
                                "type": "uint8",
                                "value": "0"
                            },
                            {
                                "name": "caller",
                                "type": "address",
                                "value": "0x7a250d5630b4cf539739df2c5dacb4c659f2488d"
                            },
                            {
                                "name": "fun",
                                "type": "bytes4",
                                "value": "0x7ff36ab5"
                            }
                        ],
                        "constructorArguments": "",
                        "name": "checkAllowed",
                        "returnParams": [
                            {
                                "name": "",
                                "type": "bool",
                                "value": true
                            }
                        ],
                        "signature": "checkAllowed(uint8,address,bytes4)"
                    },
                    "errorInfo": "",
                    "fromAddress": "0xf7a2f863299c17dfa11cd8a14e7c7dca92f315b9",
                    "gasUsed": 7188,
                    "id": 4,
                    "methodDecoded": true,
                    "operation": "STATICCALL",
                    "output": "0x0000000000000000000000000000000000000000000000000000000000000001",
                    "revert": true,
                    "revertMessage": "",
                    "selector": "0x976a8056",
                    "status": true,
                    "value": "0"
                },
                "nodeType": 0
            },
            "5": {
                "invocation": {
                    "address": "0x76f187059039c13a93d43b6b6dc929f5f9806929",
                    "callData": "0x000000000000000000000000f7a2f863299c17dfa11cd8a14e7c7dca92f315b9",
                    "decodedMethod": {
                        "callParams": [
                            {
                                "name": "account",
                                "type": "address",
                                "value": "0xf7a2f863299c17dfa11cd8a14e7c7dca92f315b9"
                            }
                        ],
                        "constructorArguments": "",
                        "name": "balanceOf",
                        "returnParams": [
                            {
                                "decimalAvailable": true,
                                "name": "",
                                "type": "uint256",
                                "value": "14"
                            }
                        ],
                        "signature": "balanceOf(address)"
                    },
                    "errorInfo": "",
                    "fromAddress": "0xf7a2f863299c17dfa11cd8a14e7c7dca92f315b9",
                    "gasUsed": 2607,
                    "id": 5,
                    "methodDecoded": true,
                    "operation": "STATICCALL",
                    "output": "0x000000000000000000000000000000000000000000000000000000000000000e",
                    "revert": true,
                    "revertMessage": "",
                    "selector": "0x70a08231",
                    "status": true,
                    "value": "0"
                },
                "nodeType": 0
            },
            "6": {
                "invocation": {
                    "address": "0x7a250d5630b4cf539739df2c5dacb4c659f2488d",
                    "callData": "0x000000000000000000000000000000000000000000000000000000000000000100000000000000000000000000000000000000000000000000000000000000800000000000000000000000005a59bb68447265fc2df04fb12c4b0344c51cef2d00000000000000000000000000000000000000000000000000000000648260590000000000000000000000000000000000000000000000000000000000000002000000000000000000000000c02aaa39b223fe8d0a0e5c4f27ead9083c756cc200000000000000000000000076f187059039c13a93d43b6b6dc929f5f9806929",
                    "decodedMethod": {
                        "callParams": [
                            {
                                "name": "amountOutMin",
                                "type": "uint256",
                                "value": "1"
                            },
                            {
                                "name": "path",
                                "type": "address[]",
                                "value": [
                                    "0xc02aaa39b223fe8d0a0e5c4f27ead9083c756cc2",
                                    "0x76f187059039c13a93d43b6b6dc929f5f9806929"
                                ]
                            },
                            {
                                "name": "to",
                                "type": "address",
                                "value": "0x5a59bb68447265fc2df04fb12c4b0344c51cef2d"
                            },
                            {
                                "name": "deadline",
                                "type": "uint256",
                                "value": "1,686,265,945"
                            }
                        ],
                        "constructorArguments": "",
                        "name": "swapExactETHForTokens",
                        "returnParams": [
                            {
                                "name": "amounts",
                                "type": "uint256[]",
                                "value": [
                                    "1,595,200,000,000,000,000",
                                    "3,618,916,654,297,451,605,004,634,649,887"
                                ]
                            }
                        ],
                        "signature": "swapExactETHForTokens(uint256,address[],address,uint256)"
                    },
                    "errorInfo": "",
                    "fromAddress": "0xf7a2f863299c17dfa11cd8a14e7c7dca92f315b9",
                    "gasUsed": 104192,
                    "id": 6,
                    "methodDecoded": true,
                    "operation": "CALL",
                    "output": "0x00000000000000000000000000000000000000000000000000000000000000200000000000000000000000000000000000000000000000000000000000000002000000000000000000000000000000000000000000000000162349f2c1b40000000000000000000000000000000000000000002dad59b1e3a9dbf152bbcd751f",
                    "revert": true,
                    "revertMessage": "",
                    "selector": "0x7ff36ab5",
                    "status": true,
                    "value": "1.5952"
                },
                "nodeType": 0
            },
            "7": {
                "invocation": {
                    "address": "0xc480936bc252e5d09a8cbec7fcc3b5ae03152c6b",
                    "callData": "0x",
                    "decodedMethod": {
                        "callParams": [],
                        "constructorArguments": "",
                        "name": "getReserves",
                        "returnParams": [
                            {
                                "name": "_reserve0",
                                "type": "uint112",
                                "value": "255,460,340,951,870,496,349,960,679,697,135"
                            },
                            {
                                "name": "_reserve1",
                                "type": "uint112",
                                "value": "110,677,383,863,963,640,746"
                            },
                            {
                                "name": "_blockTimestampLast",
                                "type": "uint32",
                                "value": "1,686,264,167"
                            }
                        ],
                        "signature": "getReserves()"
                    },
                    "errorInfo": "",
                    "fromAddress": "0x7a250d5630b4cf539739df2c5dacb4c659f2488d",
                    "gasUsed": 2504,
                    "id": 7,
                    "methodDecoded": true,
                    "operation": "STATICCALL",
                    "output": "0x0000000000000000000000000000000000000c985ce14fc3488c69a228cfaaef000000000000000000000000000000000000000000000005fff50e3af91a63aa0000000000000000000000000000000000000000000000000000000064825967",
                    "revert": true,
                    "revertMessage": "",
                    "selector": "0x0902f1ac",
                    "status": true,
                    "value": "0"
                },
                "nodeType": 0
            },
            "8": {
                "invocation": {
                    "address": "0xc02aaa39b223fe8d0a0e5c4f27ead9083c756cc2",
                    "callData": "0x",
                    "decodedMethod": {
                        "callParams": [],
                        "constructorArguments": "",
                        "name": "deposit",
                        "returnParams": [],
                        "signature": "deposit()"
                    },
                    "errorInfo": "",
                    "fromAddress": "0x7a250d5630b4cf539739df2c5dacb4c659f2488d",
                    "gasUsed": 23974,
                    "id": 8,
                    "methodDecoded": true,
                    "operation": "CALL",
                    "output": "",
                    "revert": true,
                    "revertMessage": "",
                    "selector": "0xd0e30db0",
                    "status": true,
                    "value": "1.5952"
                },
                "nodeType": 0
            },
            "9": {
                "event": {
                    "contract": "0xc02aaa39b223fe8d0a0e5c4f27ead9083c756cc2",
                    "decodedLog": {
                        "name": "Deposit",
                        "params": [
                            {
                                "name": "dst",
                                "type": "address",
                                "value": "0x7a250d5630b4cf539739df2c5dacb4c659f2488d"
                            },
                            {
                                "name": "wad",
                                "type": "uint256",
                                "value": "1,595,200,000,000,000,000"
                            }
                        ],
                        "signature": "Deposit(address,uint256)"
                    },
                    "id": 9,
                    "logData": "0x000000000000000000000000000000000000000000000000162349f2c1b40000",
                    "logDecoded": true,
                    "operation": "EVENT",
                    "revert": true,
                    "status": false,
                    "topics": [
                        "0xe1fffcc4923d04b559f4d29a8bfc6cda04eb5b0d3c460751c2402c5c5cc9109c",
                        "0x0000000000000000000000007a250d5630b4cf539739df2c5dacb4c659f2488d"
                    ]
                },
                "nodeType": 1
            }
        },
        "gasFlame": [
            {
                "children": [
                    {
                        "children": [
                            {
                                "children": [],
                                "depth": 0,
                                "name": "Initial Gas",
                                "value": 30244
                            },
                            {
                                "children": [
                                    {
                                        "children": [],
                                        "depth": 1,
                                        "name": "getFeeRate",
                                        "value": 8354
                                    },
                                    {
                                        "children": [],
                                        "depth": 1,
                                        "name": "balanceOf",
                                        "value": 2607
                                    },
                                    {
                                        "children": [
                                            {
                                                "children": [],
                                                "depth": 2,
                                                "name": "checkAllowed",
                                                "value": 7188
                                            },
                                            {
                                                "children": [],
                                                "depth": 2,
                                                "name": "balanceOf",
                                                "value": 2607
                                            },
                                            {
                                                "children": [
                                                    {
                                                        "children": [],
                                                        "depth": 3,
                                                        "name": "getReserves",
                                                        "value": 2504
                                                    },
                                                    {
                                                        "children": [],
                                                        "depth": 3,
                                                        "name": "deposit",
                                                        "value": 23974
                                                    },
                                                    {
                                                        "children": [],
                                                        "depth": 3,
                                                        "name": "transfer",
                                                        "value": 8062
                                                    },
                                                    {
                                                        "children": [
                                                            {
                                                                "children": [],
                                                                "depth": 4,
                                                                "name": "transfer",
                                                                "value": 28339
                                                            },
                                                            {
                                                                "children": [],
                                                                "depth": 4,
                                                                "name": "balanceOf",
                                                                "value": 607
                                                            },
                                                            {
                                                                "children": [],
                                                                "depth": 4,
                                                                "name": "balanceOf",
                                                                "value": 534
                                                            }
                                                        ],
                                                        "depth": 3,
                                                        "name": "swap",
                                                        "value": 50387
                                                    }
                                                ],
                                                "depth": 2,
                                                "name": "swapExactETHForTokens",
                                                "value": 104192
                                            }
                                        ],
                                        "depth": 1,
                                        "name": "callbytes",
                                        "value": 143763
                                    },
                                    {
                                        "children": [],
                                        "depth": 1,
                                        "name": "balanceOf",
                                        "value": 607
                                    }
                                ],
                                "depth": 0,
                                "name": "Executed Gas",
                                "value": 190509
                            }
                        ],
                        "depth": -1,
                        "name": "Actual Gas Used",
                        "value": 220753
                    },
                    {
                        "children": [],
                        "depth": -1,
                        "name": "Refunded Gas",
                        "value": 0
                    }
                ],
                "depth": -2,
                "name": "Total Gas",
                "value": 220753
            }
        ],
        "isConfirmed": true,
        "mainTrace": [
            {
                "children": [
                    {
                        "children": [
                            {
                                "children": [],
                                "depth": 1,
                                "id": 1,
                                "order": 1
                            },
                            {
                                "children": [],
                                "depth": 1,
                                "id": 2,
                                "order": 2
                            },
                            {
                                "children": [
                                    {
                                        "children": [],
                                        "depth": 2,
                                        "id": 4,
                                        "order": 4
                                    },
                                    {
                                        "children": [],
                                        "depth": 2,
                                        "id": 5,
                                        "order": 5
                                    },
                                    {
                                        "children": [
                                            {
                                                "children": [],
                                                "depth": 3,
                                                "id": 7,
                                                "order": 7
                                            },
                                            {
                                                "children": [
                                                    {
                                                        "children": [],
                                                        "depth": 4,
                                                        "id": 9,
                                                        "order": 9
                                                    }
                                                ],
                                                "depth": 3,
                                                "id": 8,
                                                "order": 8
                                            },
                                            {
                                                "children": [
                                                    {
                                                        "children": [],
                                                        "depth": 4,
                                                        "id": 11,
                                                        "order": 11
                                                    }
                                                ],
                                                "depth": 3,
                                                "id": 10,
                                                "order": 10
                                            },
                                            {
                                                "children": [
                                                    {
                                                        "children": [
                                                            {
                                                                "children": [],
                                                                "depth": 5,
                                                                "id": 14,
                                                                "order": 14
                                                            }
                                                        ],
                                                        "depth": 4,
                                                        "id": 13,
                                                        "order": 13
                                                    },
                                                    {
                                                        "children": [],
                                                        "depth": 4,
                                                        "id": 15,
                                                        "order": 15
                                                    },
                                                    {
                                                        "children": [],
                                                        "depth": 4,
                                                        "id": 16,
                                                        "order": 16
                                                    },
                                                    {
                                                        "children": [],
                                                        "depth": 4,
                                                        "id": 17,
                                                        "order": 17
                                                    },
                                                    {
                                                        "children": [],
                                                        "depth": 4,
                                                        "id": 18,
                                                        "order": 18
                                                    }
                                                ],
                                                "depth": 3,
                                                "id": 12,
                                                "order": 12
                                            }
                                        ],
                                        "depth": 2,
                                        "id": 6,
                                        "order": 6
                                    }
                                ],
                                "depth": 1,
                                "id": 3,
                                "order": 3
                            },
                            {
                                "children": [],
                                "depth": 1,
                                "id": 19,
                                "order": 19
                            }
                        ],
                        "depth": 0,
                        "id": 0,
                        "order": 0
                    }
                ],
                "depth": -1,
                "id": -1,
                "order": -1
            }
        ],
        "mainTraceNodeCount": 20,
        "parentIdMap": {
            "0": -1,
            "1": 0,
            "10": 6,
            "11": 10,
            "12": 6,
            "13": 12,
            "14": 13,
            "15": 12,
            "16": 12,
            "17": 12,
            "18": 12,
            "19": 0,
            "2": 0,
            "3": 0,
            "4": 3,
            "5": 3,
            "6": 3,
            "7": 6,
            "8": 6,
            "9": 8
        },
        "tidyTrace": [
            {
                "children": [
                    {
                        "children": [
                            {
                                "children": [
                                    {
                                        "children": [
                                            {
                                                "children": [
                                                    {
                                                        "children": [],
                                                        "depth": 4,
                                                        "id": 9,
                                                        "order": 9
                                                    }
                                                ],
                                                "depth": 3,
                                                "id": 8,
                                                "order": 8
                                            },
                                            {
                                                "children": [
                                                    {
                                                        "children": [],
                                                        "depth": 4,
                                                        "id": 11,
                                                        "order": 11
                                                    }
                                                ],
                                                "depth": 3,
                                                "id": 10,
                                                "order": 10
                                            },
                                            {
                                                "children": [
                                                    {
                                                        "children": [
                                                            {
                                                                "children": [],
                                                                "depth": 5,
                                                                "id": 14,
                                                                "order": 14
                                                            }
                                                        ],
                                                        "depth": 4,
                                                        "id": 13,
                                                        "order": 13
                                                    },
                                                    {
                                                        "children": [],
                                                        "depth": 4,
                                                        "id": 17,
                                                        "order": 17
                                                    },
                                                    {
                                                        "children": [],
                                                        "depth": 4,
                                                        "id": 18,
                                                        "order": 18
                                                    }
                                                ],
                                                "depth": 3,
                                                "id": 12,
                                                "order": 12
                                            }
                                        ],
                                        "depth": 2,
                                        "id": 6,
                                        "order": 6
                                    }
                                ],
                                "depth": 1,
                                "id": 3,
                                "order": 3
                            }
                        ],
                        "depth": 0,
                        "id": 0,
                        "order": 0
                    }
                ],
                "depth": -1,
                "id": -1,
                "order": -1
            }
        ],
        "tidyTraceNodeCount": 12
    },
    "state_change": {
        "stateChanges": []
    }
}