{
    "balance_change": {
        "balanceChanges": [
            {
                "account": "0x88bad9708e579bc275c77cf21168a9ab93c8f5e3",
                "assets": [
                    {
                        "address": "0x57c75eccc8557136d32619a191fbcdc88560d711",
                        "amount": "13,042",
                        "iconUrl": "",
                        "isERC1155": false,
                        "isERC721": false,
                        "sign": false,
                        "value": ""
                    }
                ]
            },
            {
                "account": "0xcba8c77e75d20cb230ddcc64c7f8d8baa0b1be6d",
                "assets": [
                    {
                        "address": "0x57c75eccc8557136d32619a191fbcdc88560d711",
                        "amount": "13,042",
                        "iconUrl": "",
                        "isERC1155": false,
                        "isERC721": false,
                        "sign": true,
                        "value": ""
                    }
                ]
            }
        ]
    },
    "profile": {
        "basic_info": {
            "baseFee": "",
            "blockNumber": 8349876,
            "callData": "0xa9059cbb000000000000000000000000cba8c77e75d20cb230ddcc64c7f8d8baa0b1be6d00000000000000000000000000000000000000000000000000000000000032f2",
            "debugEnable": true,
            "errorInfo": "",
            "eventCount": 1,
            "feeRecipient": "0x5a0b54d5dc17e0aadc383d2db43b0a0d3e029c4c",
            "formatValue": "0",
            "gasLimit": 51638,
            "gasPrice": "10",
            "gasUsed": 51638,
            "intTxnCount": 0,
            "internalRevert": false,
            "internalRevertMessage": "",
            "isContractCreation": false,
            "isFlashloan": false,
            "maxFee": "",
            "nonce": 1428,
            "overwritedBlockNumber": -1,
            "priorityFee": "",
            "receiver": "0x57c75eccc8557136d32619a191fbcdc88560d711",
            "revertMessage": "",
            "sender": "0x88bad9708e579bc275c77cf21168a9ab93c8f5e3",
            "simulationEnable": true,
            "sourceTxnHash": "0x340bfa99012a8d9d764ae21e5f80f5ccdbaa76aa534360d1a96a4cabab4bb3ea",
            "status": true,
            "timestamp": "2019-08-14T17:01:35Z",
            "transactionFee": "0.00051638",
            "txnHash": "0x340bfa99012a8d9d764ae21e5f80f5ccdbaa76aa534360d1a96a4cabab4bb3ea",
            "txnIndex": 41,
            "type": 0,
            "value": "0"
        },
        "fund_flow": [
            {
                "amount": "13,042",
                "from": "0x88bad9708e579bc275c77cf21168a9ab93c8f5e3",
                "id": 1,
                "isERC1155": false,
                "isERC721": false,
                "isReverted": false,
                "order": 1,
                "to": "0xcba8c77e75d20cb230ddcc64c7f8d8baa0b1be6d",
                "token": "0x57c75eccc8557136d32619a191fbcdc88560d711"
            }
        ],
        "token_infos": [
            {
                "address": "0x57c75eccc8557136d32619a191fbcdc88560d711",
                "decimals": 0
            },
            {
                "address": "0xc02aaa39b223fe8d0a0e5c4f27ead9083c756cc2",
                "decimals": 18
            },
            {
                "address": "0xeeeeeeeeeeeeeeeeeeeeeeeeeeeeeeeeeeeeeeee",
                "decimals": 18
            }
        ]
    },
    "address_label": {
        "labels": [
            {
                "address": "0xeeeeeeeeeeeeeeeeeeeeeeeeeeeeeeeeeeeeeeee",
                "label": "Ether"
            },
            {
                "address": "0x57c75eccc8557136d32619a191fbcdc88560d711",
                "label": "VeriDocGlobal (VDG)"
            },
            {
                "address": "0x0000000000000000000000000000000000000001",
                "label": "Precompiled"
            },
            {
                "address": "0x0000000000000000000000000000000000000002",
                "label": "Precompiled"
            },
            {
                "address": "0x0000000000000000000000000000000000000003",
                "label": "Precompiled"
            },
            {
                "address": "0x0000000000000000000000000000000000000004",
                "label": "Precompiled"
            }
        ]
    },
    "trace": {
        "accountLabels": null,
        "dataMap": {
            "-1": {
                "invocation": {
                    "address": "0x88bad9708e579bc275c77cf21168a9ab93c8f5e3",
                    "callData": "",
                    "decodedMethod": null,
                    "errorInfo": "",
                    "fromAddress": "",
                    "gasUsed": 0,
                    "id": -1,
                    "methodDecoded": false,
                    "operation": "",
                    "output": "",
                    "revert": false,
                    "revertMessage": "",
                    "selector": "",
                    "status": false,
                    "value": ""
                },
                "nodeType": 0
            },
            "0": {
                "invocation": {
                    "address": "0x57c75eccc8557136d32619a191fbcdc88560d711",
                    "callData": "0x000000000000000000000000cba8c77e75d20cb230ddcc64c7f8d8baa0b1be6d00000000000000000000000000000000000000000000000000000000000032f2",
                    "decodedMethod": {
                        "callParams": [
                            {
                                "name": "_to",
                                "type": "address",
                                "value": "0xcba8c77e75d20cb230ddcc64c7f8d8baa0b1be6d"
                            },
                            {
                                "decimalAvailable": true,
                                "name": "_value",
                                "type": "uint256",
                                "value": "13,042"
                            }
                        ],
                        "constructorArguments": "",
                        "name": "transfer",
                        "returnParams": [
                            {
                                "name": "",
                                "type": "bool",
                                "value": true
                            }
                        ],
                        "signature": "transfer(address,uint256)"
                    },
                    "errorInfo": "",
                    "fromAddress": "0x88bad9708e579bc275c77cf21168a9ab93c8f5e3",
                    "gasUsed": 51638,
                    "id": 0,
                    "methodDecoded": true,
                    "operation": "CALL",
                    "output": "0x0000000000000000000000000000000000000000000000000000000000000001",
                    "revert": false,
                    "revertMessage": "",
                    "selector": "0xa9059cbb",
                    "status": true,
                    "value": "0"
                },
                "nodeType": 0
            },
            "1": {
                "event": {
                    "contract": "0x57c75eccc8557136d32619a191fbcdc88560d711",
                    "decodedLog": {
                        "name": "Transfer",
                        "params": [
                            {
                                "name": "from",
                                "type": "address",
                                "value": "0x88bad9708e579bc275c77cf21168a9ab93c8f5e3"
                            },
                            {
                                "name": "to",
                                "type": "address",
                                "value": "0xcba8c77e75d20cb230ddcc64c7f8d8baa0b1be6d"
                            },
                            {
                                "decimalAvailable": true,
                                "name": "value",
                                "type": "uint256",
                                "value": "13,042"
                            }
                        ],
                        "signature": "Transfer(address,address,uint256)"
                    },
                    "id": 1,
                    "logData": "0x00000000000000000000000000000000000000000000000000000000000032f2",
                    "logDecoded": true,
                    "operation": "EVENT",
                    "revert": false,
                    "status": true,
                    "topics": [
                        "0xddf252ad1be2c89b69c2b068fc378daa952ba7f163c4a11628f55a4df523b3ef",
                        "0x00000000000000000000000088bad9708e579bc275c77cf21168a9ab93c8f5e3",
                        "0x000000000000000000000000cba8c77e75d20cb230ddcc64c7f8d8baa0b1be6d"
                    ]
                },
                "nodeType": 1
            }
        },
        "gasFlame": [
            {
                "children": [
                    {
                        "children": [
                            {
                                "children": [],
                                "depth": 0,
                                "name": "Initial Gas",
                                "value": 22936
                            },
                            {
                                "children": [],
                                "depth": 0,
                                "name": "Executed Gas",
                                "value": 28702
                            }
                        ],
                        "depth": -1,
                        "name": "Actual Gas Used",
                        "value": 51638
                    },
                    {
                        "children": [],
                        "depth": -1,
                        "name": "Refunded Gas",
                        "value": 0
                    }
                ],
                "depth": -2,
                "name": "Total Gas",
                "value": 51638
            }
        ],
        "isConfirmed": true,
        "mainTrace": [
            {
                "children": [
                    {
                        "children": [
                            {
                                "children": [],
                                "depth": 1,
                                "id": 1,
                                "order": 1
                            }
                        ],
                        "depth": 0,
                        "id": 0,
                        "order": 0
                    }
                ],
                "depth": -1,
                "id": -1,
                "order": -1
            }
        ],
        "mainTraceNodeCount": 2,
        "parentIdMap": {
            "0": -1,
            "1": 0
        },
        "tidyTrace": [
            {
                "children": [
                    {
                        "children": [
                            {
                                "children": [],
                                "depth": 1,
                                "id": 1,
                                "order": 1
                            }
                        ],
                        "depth": 0,
                        "id": 0,
                        "order": 0
                    }
                ],
                "depth": -1,
                "id": -1,
                "order": -1
            }
        ],
        "tidyTraceNodeCount": 2
    },
    "state_change": {
        "stateChanges": [
            {
                "address": "0x57c75eccc8557136d32619a191fbcdc88560d711",
                "erc": "ERC-20",
                "slots": [
                    {
                        "current": "0x00000000000000000000000000000000000000000000000000000000010604f3",
                        "key": "0xf1e5e5e8c010691a6ad2a062ef8822cf971985b2dd9440d2c2eb342b429066ad",
                        "prev": "0x00000000000000000000000000000000000000000000000000000000010637e5"
                    },
                    {
                        "current": "0x00000000000000000000000000000000000000000000000000000000000032f2",
                        "key": "0x4b336fdb5b1e2279a03b3158bbb7c97f27538f3137b64378281cb24ba9a07a53",
                        "prev": "0x0000000000000000000000000000000000000000000000000000000000000000"
                    }
                ],
                "storageVariables": [
                    {
                        "name": "balances",
                        "type": "mapping(address => uint256)",
                        "value": {
                            "pairs": [
                                {
                                    "key": "0x88bad9708e579bc275c77cf21168a9ab93c8f5e3",
                                    "value": {
                                        "current": "17171699",
                                        "prev": "17184741",
                                        "typeTag": 1
                                    }
                                },
                                {
                                    "key": "0xcba8c77e75d20cb230ddcc64c7f8d8baa0b1be6d",
                                    "value": {
                                        "current": "13042",
                                        "prev": "0",
                                        "typeTag": 1
                                    }
                                }
                            ],
                            "typeTag": 4
                        }
                    }
                ]
            }
        ]
    }
}