{
    "balance_change": {
        "balanceChanges": [
            {
                "account": "0x169ca6801ec33668ae24bdab264f9b0109eb7347",
                "assets": [
                    {
                        "address": "0xe6aaceda7d6bc119df866f8b5228073d9a992734",
                        "amount": "2,970,000",
                        "iconUrl": "",
                        "isERC1155": false,
                        "isERC721": false,
                        "sign": false,
                        "value": ""
                    }
                ]
            },
            {
                "account": "0x3c81fc9bd31368f631b110a4f296c02d295ca926",
                "assets": [
                    {
                        "address": "0xe6aaceda7d6bc119df866f8b5228073d9a992734",
                        "amount": "2,970,000",
                        "iconUrl": "",
                        "isERC1155": false,
                        "isERC721": false,
                        "sign": true,
                        "value": ""
                    }
                ]
            }
        ]
    },
    "profile": {
        "basic_info": {
            "baseFee": "",
            "blockNumber": 9436214,
            "callData": "0xa9059cbb0000000000000000000000003c81fc9bd31368f631b110a4f296c02d295ca9260000000000000000000000000000000000000000000274ec05ca0998cc400000",
            "debugEnable": true,
            "errorInfo": "",
            "eventCount": 1,
            "feeRecipient": "0xea674fdde714fd979de3edf0f56aa9716b898ec8",
            "formatValue": "0",
            "gasLimit": 38616,
            "gasPrice": "7",
            "gasUsed": 38616,
            "intTxnCount": 0,
            "internalRevert": false,
            "internalRevertMessage": "",
            "isContractCreation": false,
            "isFlashloan": false,
            "maxFee": "",
            "nonce": 172172,
            "overwritedBlockNumber": -1,
            "priorityFee": "",
            "receiver": "0xe6aaceda7d6bc119df866f8b5228073d9a992734",
            "revertMessage": "",
            "sender": "0x169ca6801ec33668ae24bdab264f9b0109eb7347",
            "simulationEnable": true,
            "sourceTxnHash": "0x34cf3f3e8e96196279055eada755541684bd7147e16b19a7c252a44808bfb761",
            "status": true,
            "timestamp": "2020-02-07T14:57:57Z",
            "transactionFee": "0.000270312",
            "txnHash": "0x34cf3f3e8e96196279055eada755541684bd7147e16b19a7c252a44808bfb761",
            "txnIndex": 143,
            "type": 0,
            "value": "0"
        },
        "fund_flow": [
            {
                "amount": "2,970,000",
                "from": "0x169ca6801ec33668ae24bdab264f9b0109eb7347",
                "id": 1,
                "isERC1155": false,
                "isERC721": false,
                "isReverted": false,
                "order": 1,
                "to": "0x3c81fc9bd31368f631b110a4f296c02d295ca926",
                "token": "0xe6aaceda7d6bc119df866f8b5228073d9a992734"
            }
        ],
        "token_infos": [
            {
                "address": "0xc02aaa39b223fe8d0a0e5c4f27ead9083c756cc2",
                "decimals": 18
            },
            {
                "address": "0xe6aaceda7d6bc119df866f8b5228073d9a992734",
                "decimals": 18
            },
            {
                "address": "0xeeeeeeeeeeeeeeeeeeeeeeeeeeeeeeeeeeeeeeee",
                "decimals": 18
            }
        ]
    },
    "address_label": {
        "labels": [
            {
                "address": "0xeeeeeeeeeeeeeeeeeeeeeeeeeeeeeeeeeeeeeeee",
                "label": "Ether"
            },
            {
                "address": "0xe6aaceda7d6bc119df866f8b5228073d9a992734",
                "label": "NIOX (NIOX)"
            },
            {
                "address": "0x0000000000000000000000000000000000000001",
                "label": "Precompiled"
            },
            {
                "address": "0x0000000000000000000000000000000000000002",
                "label": "Precompiled"
            },
            {
                "address": "0x0000000000000000000000000000000000000003",
                "label": "Precompiled"
            },
            {
                "address": "0x0000000000000000000000000000000000000004",
                "label": "Precompiled"
            }
        ]
    },
    "trace": {
        "accountLabels": null,
        "dataMap": {
            "-1": {
                "invocation": {
                    "address": "0x169ca6801ec33668ae24bdab264f9b0109eb7347",
                    "callData": "",
                    "decodedMethod": null,
                    "errorInfo": "",
                    "fromAddress": "",
                    "gasUsed": 0,
                    "id": -1,
                    "methodDecoded": false,
                    "operation": "",
                    "output": "",
                    "revert": false,
                    "revertMessage": "",
                    "selector": "",
                    "status": false,
                    "value": ""
                },
                "nodeType": 0
            },
            "0": {
                "invocation": {
                    "address": "0xe6aaceda7d6bc119df866f8b5228073d9a992734",
                    "callData": "0x0000000000000000000000003c81fc9bd31368f631b110a4f296c02d295ca9260000000000000000000000000000000000000000000274ec05ca0998cc400000",
                    "decodedMethod": {
                        "callParams": [
                            {
                                "name": "_to",
                                "type": "address",
                                "value": "0x3c81fc9bd31368f631b110a4f296c02d295ca926"
                            },
                            {
                                "decimalAvailable": true,
                                "name": "_value",
                                "type": "uint256",
                                "value": "2,970,000,000,000,000,000,000,000"
                            }
                        ],
                        "constructorArguments": "",
                        "name": "transfer",
                        "returnParams": [
                            {
                                "name": "_success",
                                "type": "bool",
                                "value": true
                            }
                        ],
                        "signature": "transfer(address,uint256)"
                    },
                    "errorInfo": "",
                    "fromAddress": "0x169ca6801ec33668ae24bdab264f9b0109eb7347",
                    "gasUsed": 38616,
                    "id": 0,
                    "methodDecoded": true,
                    "operation": "CALL",
                    "output": "0x0000000000000000000000000000000000000000000000000000000000000001",
                    "revert": false,
                    "revertMessage": "",
                    "selector": "0xa9059cbb",
                    "status": true,
                    "value": "0"
                },
                "nodeType": 0
            },
            "1": {
                "event": {
                    "contract": "0xe6aaceda7d6bc119df866f8b5228073d9a992734",
                    "decodedLog": {
                        "name": "Transfer",
                        "params": [
                            {
                                "name": "from",
                                "type": "address",
                                "value": "0x169ca6801ec33668ae24bdab264f9b0109eb7347"
                            },
                            {
                                "name": "to",
                                "type": "address",
                                "value": "0x3c81fc9bd31368f631b110a4f296c02d295ca926"
                            },
                            {
                                "decimalAvailable": true,
                                "name": "value",
                                "type": "uint256",
                                "value": "2,970,000,000,000,000,000,000,000"
                            }
                        ],
                        "signature": "Transfer(address,address,uint256)"
                    },
                    "id": 1,
                    "logData": "0x0000000000000000000000000000000000000000000274ec05ca0998cc400000",
                    "logDecoded": true,
                    "operation": "EVENT",
                    "revert": false,
                    "status": true,
                    "topics": [
                        "0xddf252ad1be2c89b69c2b068fc378daa952ba7f163c4a11628f55a4df523b3ef",
                        "0x000000000000000000000000169ca6801ec33668ae24bdab264f9b0109eb7347",
                        "0x0000000000000000000000003c81fc9bd31368f631b110a4f296c02d295ca926"
                    ]
                },
                "nodeType": 1
            }
        },
        "gasFlame": [
            {
                "children": [
                    {
                        "children": [
                            {
                                "children": [],
                                "depth": 0,
                                "name": "Initial Gas",
                                "value": 21668
                            },
                            {
                                "children": [],
                                "depth": 0,
                                "name": "Executed Gas",
                                "value": 16948
                            }
                        ],
                        "depth": -1,
                        "name": "Actual Gas Used",
                        "value": 38616
                    },
                    {
                        "children": [],
                        "depth": -1,
                        "name": "Refunded Gas",
                        "value": 0
                    }
                ],
                "depth": -2,
                "name": "Total Gas",
                "value": 38616
            }
        ],
        "isConfirmed": true,
        "mainTrace": [
            {
                "children": [
                    {
                        "children": [
                            {
                                "children": [],
                                "depth": 1,
                                "id": 1,
                                "order": 1
                            }
                        ],
                        "depth": 0,
                        "id": 0,
                        "order": 0
                    }
                ],
                "depth": -1,
                "id": -1,
                "order": -1
            }
        ],
        "mainTraceNodeCount": 2,
        "parentIdMap": {
            "0": -1,
            "1": 0
        },
        "tidyTrace": [
            {
                "children": [
                    {
                        "children": [
                            {
                                "children": [],
                                "depth": 1,
                                "id": 1,
                                "order": 1
                            }
                        ],
                        "depth": 0,
                        "id": 0,
                        "order": 0
                    }
                ],
                "depth": -1,
                "id": -1,
                "order": -1
            }
        ],
        "tidyTraceNodeCount": 2
    },
    "state_change": {
        "stateChanges": [
            {
                "address": "0xe6aaceda7d6bc119df866f8b5228073d9a992734",
                "erc": "ERC-20",
                "slots": [
                    {
                        "current": "0x000000000000000000000000000000000000000000366b26a04ced6725800000",
                        "key": "0xf36a45c0588ca3c45a97c19bcab934aa1818e90aa3f21875777131ee1d82f232",
                        "prev": "0x00000000000000000000000000000000000000000033f63a9a82e3ce59400000"
                    },
                    {
                        "current": "0x000000000000000000000000000000000000000b63a67670e9796d98e48b73c0",
                        "key": "0x1114b8815e6806a195bdd5d9508fcd104854e10f04bb83184e8384a9cc7af478",
                        "prev": "0x000000000000000000000000000000000000000b63a8eb5cef437731b0cb73c0"
                    }
                ],
                "storageVariables": [
                    {
                        "name": "balances",
                        "type": "mapping(address => uint256)",
                        "value": {
                            "pairs": [
                                {
                                    "key": "0x169ca6801ec33668ae24bdab264f9b0109eb7347",
                                    "value": {
                                        "current": "902350044637380817035799000000",
                                        "prev": "902353014637380817035799000000",
                                        "typeTag": 1
                                    }
                                },
                                {
                                    "key": "0x3c81fc9bd31368f631b110a4f296c02d295ca926",
                                    "value": {
                                        "current": "65788000000000000000000000",
                                        "prev": "62818000000000000000000000",
                                        "typeTag": 1
                                    }
                                }
                            ],
                            "typeTag": 4
                        }
                    }
                ]
            }
        ]
    }
}