{
    "balance_change": {
        "balanceChanges": [
            {
                "account": "0xe73b9faa966f4c7aa629c092b41cbfddca4bd44e",
                "assets": [
                    {
                        "address": "0x653430560be843c4a3d143d0110e896c2ab8ac0d",
                        "amount": "1,480.52",
                        "iconUrl": "",
                        "isERC1155": false,
                        "isERC721": false,
                        "sign": false,
                        "value": ""
                    }
                ]
            },
            {
                "account": "0x78a90951bc30582fb8f5b1ec218a154634183744",
                "assets": [
                    {
                        "address": "0x653430560be843c4a3d143d0110e896c2ab8ac0d",
                        "amount": "1,480.52",
                        "iconUrl": "",
                        "isERC1155": false,
                        "isERC721": false,
                        "sign": true,
                        "value": ""
                    }
                ]
            }
        ]
    },
    "profile": {
        "basic_info": {
            "baseFee": "",
            "blockNumber": 4889602,
            "callData": "0xa9059cbb00000000000000000000000078a90951bc30582fb8f5b1ec218a154634183744000000000000000000000000000000000000000000000000cd76a2f56c9d0000",
            "debugEnable": true,
            "errorInfo": "",
            "eventCount": 1,
            "feeRecipient": "0x829bd824b016326a401d083b33d092293333a830",
            "formatValue": "0",
            "gasLimit": 133072,
            "gasPrice": "89",
            "gasUsed": 52113,
            "intTxnCount": 0,
            "internalRevert": false,
            "internalRevertMessage": "",
            "isContractCreation": false,
            "isFlashloan": false,
            "maxFee": "",
            "nonce": 3981,
            "overwritedBlockNumber": -1,
            "priorityFee": "",
            "receiver": "0x653430560be843c4a3d143d0110e896c2ab8ac0d",
            "revertMessage": "",
            "sender": "0xe73b9faa966f4c7aa629c092b41cbfddca4bd44e",
            "simulationEnable": true,
            "sourceTxnHash": "0x3433c2be8eb1550eb649a58839eb52201de8466a73ce370f233dbfe282fa1dc2",
            "status": true,
            "timestamp": "2018-01-11T07:46:11Z",
            "transactionFee": "0.004638057",
            "txnHash": "0x3433c2be8eb1550eb649a58839eb52201de8466a73ce370f233dbfe282fa1dc2",
            "txnIndex": 143,
            "type": 0,
            "value": "0"
        },
        "fund_flow": [
            {
                "amount": "1,480.52",
                "from": "0xe73b9faa966f4c7aa629c092b41cbfddca4bd44e",
                "id": 1,
                "isERC1155": false,
                "isERC721": false,
                "isReverted": false,
                "order": 1,
                "to": "0x78a90951bc30582fb8f5b1ec218a154634183744",
                "token": "0x653430560be843c4a3d143d0110e896c2ab8ac0d"
            }
        ],
        "token_infos": [
            {
                "address": "0x653430560be843c4a3d143d0110e896c2ab8ac0d",
                "decimals": 16
            },
            {
                "address": "0xc02aaa39b223fe8d0a0e5c4f27ead9083c756cc2",
                "decimals": 18
            },
            {
                "address": "0xeeeeeeeeeeeeeeeeeeeeeeeeeeeeeeeeeeeeeeee",
                "decimals": 18
            }
        ]
    },
    "address_label": {
        "labels": [
            {
                "address": "0x0000000000000000000000000000000000000002",
                "label": "Precompiled"
            },
            {
                "address": "0x0000000000000000000000000000000000000003",
                "label": "Precompiled"
            },
            {
                "address": "0x0000000000000000000000000000000000000004",
                "label": "Precompiled"
            },
            {
                "address": "0xeeeeeeeeeeeeeeeeeeeeeeeeeeeeeeeeeeeeeeee",
                "label": "Ether"
            },
            {
                "address": "0x653430560be843c4a3d143d0110e896c2ab8ac0d",
                "label": "Molecular Future: MOF Token"
            },
            {
                "address": "0x0000000000000000000000000000000000000001",
                "label": "Precompiled"
            }
        ]
    },
    "trace": {
        "accountLabels": null,
        "dataMap": {
            "-1": {
                "invocation": {
                    "address": "0xe73b9faa966f4c7aa629c092b41cbfddca4bd44e",
                    "callData": "",
                    "decodedMethod": null,
                    "errorInfo": "",
                    "fromAddress": "",
                    "gasUsed": 0,
                    "id": -1,
                    "methodDecoded": false,
                    "operation": "",
                    "output": "",
                    "revert": false,
                    "revertMessage": "",
                    "selector": "",
                    "status": false,
                    "value": ""
                },
                "nodeType": 0
            },
            "0": {
                "invocation": {
                    "address": "0x653430560be843c4a3d143d0110e896c2ab8ac0d",
                    "callData": "0x00000000000000000000000078a90951bc30582fb8f5b1ec218a154634183744000000000000000000000000000000000000000000000000cd76a2f56c9d0000",
                    "decodedMethod": {
                        "callParams": [
                            {
                                "name": "_to",
                                "type": "address",
                                "value": "0x78a90951bc30582fb8f5b1ec218a154634183744"
                            },
                            {
                                "decimalAvailable": true,
                                "name": "_value",
                                "type": "uint256",
                                "value": "14,805,200,000,000,000,000"
                            }
                        ],
                        "constructorArguments": "",
                        "name": "transfer",
                        "returnParams": [
                            {
                                "name": "success",
                                "type": "bool",
                                "value": true
                            }
                        ],
                        "signature": "transfer(address,uint256)"
                    },
                    "errorInfo": "",
                    "fromAddress": "0xe73b9faa966f4c7aa629c092b41cbfddca4bd44e",
                    "gasUsed": 52113,
                    "id": 0,
                    "methodDecoded": true,
                    "operation": "CALL",
                    "output": "0x0000000000000000000000000000000000000000000000000000000000000001",
                    "revert": false,
                    "revertMessage": "",
                    "selector": "0xa9059cbb",
                    "status": true,
                    "value": "0"
                },
                "nodeType": 0
            },
            "1": {
                "event": {
                    "contract": "0x653430560be843c4a3d143d0110e896c2ab8ac0d",
                    "decodedLog": {
                        "name": "Transfer",
                        "params": [
                            {
                                "name": "_from",
                                "type": "address",
                                "value": "0xe73b9faa966f4c7aa629c092b41cbfddca4bd44e"
                            },
                            {
                                "name": "_to",
                                "type": "address",
                                "value": "0x78a90951bc30582fb8f5b1ec218a154634183744"
                            },
                            {
                                "decimalAvailable": true,
                                "name": "_value",
                                "type": "uint256",
                                "value": "14,805,200,000,000,000,000"
                            }
                        ],
                        "signature": "Transfer(address,address,uint256)"
                    },
                    "id": 1,
                    "logData": "0x000000000000000000000000000000000000000000000000cd76a2f56c9d0000",
                    "logDecoded": true,
                    "operation": "EVENT",
                    "revert": false,
                    "status": true,
                    "topics": [
                        "0xddf252ad1be2c89b69c2b068fc378daa952ba7f163c4a11628f55a4df523b3ef",
                        "0x000000000000000000000000e73b9faa966f4c7aa629c092b41cbfddca4bd44e",
                        "0x00000000000000000000000078a90951bc30582fb8f5b1ec218a154634183744"
                    ]
                },
                "nodeType": 1
            }
        },
        "gasFlame": [
            {
                "children": [
                    {
                        "children": [
                            {
                                "children": [],
                                "depth": 0,
                                "name": "Initial Gas",
                                "value": 23192
                            },
                            {
                                "children": [],
                                "depth": 0,
                                "name": "Executed Gas",
                                "value": 28921
                            }
                        ],
                        "depth": -1,
                        "name": "Actual Gas Used",
                        "value": 52113
                    },
                    {
                        "children": [],
                        "depth": -1,
                        "name": "Refunded Gas",
                        "value": 0
                    }
                ],
                "depth": -2,
                "name": "Total Gas",
                "value": 52113
            }
        ],
        "isConfirmed": true,
        "mainTrace": [
            {
                "children": [
                    {
                        "children": [
                            {
                                "children": [],
                                "depth": 1,
                                "id": 1,
                                "order": 1
                            }
                        ],
                        "depth": 0,
                        "id": 0,
                        "order": 0
                    }
                ],
                "depth": -1,
                "id": -1,
                "order": -1
            }
        ],
        "mainTraceNodeCount": 2,
        "parentIdMap": {
            "0": -1,
            "1": 0
        },
        "tidyTrace": [
            {
                "children": [
                    {
                        "children": [
                            {
                                "children": [],
                                "depth": 1,
                                "id": 1,
                                "order": 1
                            }
                        ],
                        "depth": 0,
                        "id": 0,
                        "order": 0
                    }
                ],
                "depth": -1,
                "id": -1,
                "order": -1
            }
        ],
        "tidyTraceNodeCount": 2
    },
    "state_change": {
        "stateChanges": [
            {
                "address": "0x653430560be843c4a3d143d0110e896c2ab8ac0d",
                "erc": "ERC-20",
                "slots": [
                    {
                        "current": "0x000000000000000000000000000000000000000000000000cd76a2f56c9d0000",
                        "key": "0xfb56b32abe6b1fec9f4df5733166cb059917f193994fea519b39fe95ce16d6ca",
                        "prev": "0x0000000000000000000000000000000000000000000000000000000000000000"
                    },
                    {
                        "current": "0x0000000000000000000000000000000000000000000004cc5d2c8346d0718000",
                        "key": "0xb4cec3bece69d61d4ac2974542dc92b0766aafe7a132b8c4b8288cc0b7fb8a42",
                        "prev": "0x0000000000000000000000000000000000000000000004cd2aa3263c3d0e8000"
                    }
                ],
                "storageVariables": [
                    {
                        "name": "balanceOf",
                        "type": "mapping(address => uint256)",
                        "value": {
                            "pairs": [
                                {
                                    "key": "0x78a90951bc30582fb8f5b1ec218a154634183744",
                                    "value": {
                                        "current": "14805200000000000000",
                                        "prev": "0",
                                        "typeTag": 1
                                    }
                                },
                                {
                                    "key": "0xe73b9faa966f4c7aa629c092b41cbfddca4bd44e",
                                    "value": {
                                        "current": "22659315608000000000000",
                                        "prev": "22674120808000000000000",
                                        "typeTag": 1
                                    }
                                }
                            ],
                            "typeTag": 4
                        }
                    }
                ]
            }
        ]
    }
}