{
    "balance_change": {
        "balanceChanges": [
            {
                "account": "0x3c0573c3c7b4a7260e5585410b72b710865e534f",
                "assets": [
                    {
                        "address": "0x0abdace70d3790235af448c88547603b945604ea",
                        "amount": "60,413.59682014",
                        "iconUrl": "",
                        "isERC1155": false,
                        "isERC721": false,
                        "sign": false,
                        "value": ""
                    }
                ]
            },
            {
                "account": "0x412ce78c6cb4c227e1d1522ba484b4cc8c051b13",
                "assets": [
                    {
                        "address": "0x0abdace70d3790235af448c88547603b945604ea",
                        "amount": "60,413.59682014",
                        "iconUrl": "",
                        "isERC1155": false,
                        "isERC721": false,
                        "sign": true,
                        "value": ""
                    }
                ]
            }
        ]
    },
    "profile": {
        "basic_info": {
            "baseFee": "",
            "blockNumber": 4526388,
            "callData": "0xa9059cbb000000000000000000000000412ce78c6cb4c227e1d1522ba484b4cc8c051b13000000000000000000000000000000000000000000000ccb0713cef69153b800",
            "debugEnable": true,
            "errorInfo": "",
            "eventCount": 1,
            "feeRecipient": "0xea674fdde714fd979de3edf0f56aa9716b898ec8",
            "formatValue": "0",
            "gasLimit": 112872,
            "gasPrice": "10",
            "gasUsed": 74728,
            "intTxnCount": 1,
            "internalRevert": false,
            "internalRevertMessage": "",
            "isContractCreation": false,
            "isFlashloan": false,
            "maxFee": "",
            "nonce": 0,
            "overwritedBlockNumber": -1,
            "priorityFee": "",
            "receiver": "0x0abdace70d3790235af448c88547603b945604ea",
            "revertMessage": "",
            "sender": "0x3c0573c3c7b4a7260e5585410b72b710865e534f",
            "simulationEnable": true,
            "sourceTxnHash": "0x34e0eaf46dac35f2e6f8fa60f4dafbb93ac86614befc6f7c7c6544183eb5bee2",
            "status": true,
            "timestamp": "2017-11-10T13:38:55Z",
            "transactionFee": "0.00074728",
            "txnHash": "0x34e0eaf46dac35f2e6f8fa60f4dafbb93ac86614befc6f7c7c6544183eb5bee2",
            "txnIndex": 86,
            "type": 0,
            "value": "0"
        },
        "fund_flow": [
            {
                "amount": "60,413.59682014",
                "from": "0x3c0573c3c7b4a7260e5585410b72b710865e534f",
                "id": 1,
                "isERC1155": false,
                "isERC721": false,
                "isReverted": false,
                "order": 1,
                "to": "0x412ce78c6cb4c227e1d1522ba484b4cc8c051b13",
                "token": "0x0abdace70d3790235af448c88547603b945604ea"
            }
        ],
        "token_infos": [
            {
                "address": "0x0abdace70d3790235af448c88547603b945604ea",
                "decimals": 18
            },
            {
                "address": "0xc02aaa39b223fe8d0a0e5c4f27ead9083c756cc2",
                "decimals": 18
            },
            {
                "address": "0xeeeeeeeeeeeeeeeeeeeeeeeeeeeeeeeeeeeeeeee",
                "decimals": 18
            }
        ]
    },
    "address_label": {
        "labels": [
            {
                "address": "0xeeeeeeeeeeeeeeeeeeeeeeeeeeeeeeeeeeeeeeee",
                "label": "Ether"
            },
            {
                "address": "0xf8094e15c897518b5ac5287d7070ca5850efc6ff",
                "label": "District0x: Token Sale"
            },
            {
                "address": "0x0abdace70d3790235af448c88547603b945604ea",
                "label": "District0x: DNT Token"
            },
            {
                "address": "0x0000000000000000000000000000000000000001",
                "label": "Precompiled"
            },
            {
                "address": "0x0000000000000000000000000000000000000002",
                "label": "Precompiled"
            },
            {
                "address": "0x0000000000000000000000000000000000000003",
                "label": "Precompiled"
            },
            {
                "address": "0x0000000000000000000000000000000000000004",
                "label": "Precompiled"
            }
        ]
    },
    "trace": {
        "accountLabels": null,
        "dataMap": {
            "-1": {
                "invocation": {
                    "address": "0x3c0573c3c7b4a7260e5585410b72b710865e534f",
                    "callData": "",
                    "decodedMethod": null,
                    "errorInfo": "",
                    "fromAddress": "",
                    "gasUsed": 0,
                    "id": -1,
                    "methodDecoded": false,
                    "operation": "",
                    "output": "",
                    "revert": false,
                    "revertMessage": "",
                    "selector": "",
                    "status": false,
                    "value": ""
                },
                "nodeType": 0
            },
            "0": {
                "invocation": {
                    "address": "0x0abdace70d3790235af448c88547603b945604ea",
                    "callData": "0x000000000000000000000000412ce78c6cb4c227e1d1522ba484b4cc8c051b13000000000000000000000000000000000000000000000ccb0713cef69153b800",
                    "decodedMethod": {
                        "callParams": [
                            {
                                "name": "_to",
                                "type": "address",
                                "value": "0x412ce78c6cb4c227e1d1522ba484b4cc8c051b13"
                            },
                            {
                                "decimalAvailable": true,
                                "name": "_value",
                                "type": "uint256",
                                "value": "60,413,596,820,140,000,000,000"
                            }
                        ],
                        "constructorArguments": "",
                        "name": "transfer",
                        "returnParams": [
                            {
                                "name": "",
                                "type": "bool",
                                "value": true
                            }
                        ],
                        "signature": "transfer(address,uint256)"
                    },
                    "errorInfo": "",
                    "fromAddress": "0x3c0573c3c7b4a7260e5585410b72b710865e534f",
                    "gasUsed": 74728,
                    "id": 0,
                    "methodDecoded": true,
                    "operation": "CALL",
                    "output": "0x0000000000000000000000000000000000000000000000000000000000000001",
                    "revert": false,
                    "revertMessage": "",
                    "selector": "0xa9059cbb",
                    "status": true,
                    "value": "0"
                },
                "nodeType": 0
            },
            "1": {
                "invocation": {
                    "address": "0xf8094e15c897518b5ac5287d7070ca5850efc6ff",
                    "callData": "0x0000000000000000000000003c0573c3c7b4a7260e5585410b72b710865e534f000000000000000000000000412ce78c6cb4c227e1d1522ba484b4cc8c051b13000000000000000000000000000000000000000000000ccb0713cef69153b800",
                    "decodedMethod": {
                        "callParams": [
                            {
                                "name": "_from",
                                "type": "address",
                                "value": "0x3c0573c3c7b4a7260e5585410b72b710865e534f"
                            },
                            {
                                "name": "_to",
                                "type": "address",
                                "value": "0x412ce78c6cb4c227e1d1522ba484b4cc8c051b13"
                            },
                            {
                                "name": "_amount",
                                "type": "uint256",
                                "value": "60,413,596,820,140,000,000,000"
                            }
                        ],
                        "constructorArguments": "",
                        "name": "onTransfer",
                        "returnParams": [
                            {
                                "name": "",
                                "type": "bool",
                                "value": true
                            }
                        ],
                        "signature": "onTransfer(address,address,uint256)"
                    },
                    "errorInfo": "",
                    "fromAddress": "0x0abdace70d3790235af448c88547603b945604ea",
                    "gasUsed": 979,
                    "id": 1,
                    "methodDecoded": true,
                    "operation": "CALL",
                    "output": "0x0000000000000000000000000000000000000000000000000000000000000001",
                    "revert": false,
                    "revertMessage": "",
                    "selector": "0x4a393149",
                    "status": true,
                    "value": "0"
                },
                "nodeType": 0
            },
            "2": {
                "event": {
                    "contract": "0x0abdace70d3790235af448c88547603b945604ea",
                    "decodedLog": {
                        "name": "Transfer",
                        "params": [
                            {
                                "name": "_from",
                                "type": "address",
                                "value": "0x3c0573c3c7b4a7260e5585410b72b710865e534f"
                            },
                            {
                                "name": "_to",
                                "type": "address",
                                "value": "0x412ce78c6cb4c227e1d1522ba484b4cc8c051b13"
                            },
                            {
                                "decimalAvailable": true,
                                "name": "_amount",
                                "type": "uint256",
                                "value": "60,413,596,820,140,000,000,000"
                            }
                        ],
                        "signature": "Transfer(address,address,uint256)"
                    },
                    "id": 2,
                    "logData": "0x000000000000000000000000000000000000000000000ccb0713cef69153b800",
                    "logDecoded": true,
                    "operation": "EVENT",
                    "revert": false,
                    "status": true,
                    "topics": [
                        "0xddf252ad1be2c89b69c2b068fc378daa952ba7f163c4a11628f55a4df523b3ef",
                        "0x0000000000000000000000003c0573c3c7b4a7260e5585410b72b710865e534f",
                        "0x000000000000000000000000412ce78c6cb4c227e1d1522ba484b4cc8c051b13"
                    ]
                },
                "nodeType": 1
            }
        },
        "gasFlame": [
            {
                "children": [
                    {
                        "children": [
                            {
                                "children": [],
                                "depth": 0,
                                "name": "Initial Gas",
                                "value": 23384
                            },
                            {
                                "children": [
                                    {
                                        "children": [],
                                        "depth": 1,
                                        "name": "onTransfer",
                                        "value": 979
                                    }
                                ],
                                "depth": 0,
                                "name": "Executed Gas",
                                "value": 51344
                            }
                        ],
                        "depth": -1,
                        "name": "Actual Gas Used",
                        "value": 74728
                    },
                    {
                        "children": [],
                        "depth": -1,
                        "name": "Refunded Gas",
                        "value": 0
                    }
                ],
                "depth": -2,
                "name": "Total Gas",
                "value": 74728
            }
        ],
        "isConfirmed": true,
        "mainTrace": [
            {
                "children": [
                    {
                        "children": [
                            {
                                "children": [],
                                "depth": 1,
                                "id": 1,
                                "order": 1
                            },
                            {
                                "children": [],
                                "depth": 1,
                                "id": 2,
                                "order": 2
                            }
                        ],
                        "depth": 0,
                        "id": 0,
                        "order": 0
                    }
                ],
                "depth": -1,
                "id": -1,
                "order": -1
            }
        ],
        "mainTraceNodeCount": 3,
        "parentIdMap": {
            "0": -1,
            "1": 0,
            "2": 0
        },
        "tidyTrace": [
            {
                "children": [
                    {
                        "children": [
                            {
                                "children": [],
                                "depth": 1,
                                "id": 1,
                                "order": 1
                            },
                            {
                                "children": [],
                                "depth": 1,
                                "id": 2,
                                "order": 2
                            }
                        ],
                        "depth": 0,
                        "id": 0,
                        "order": 0
                    }
                ],
                "depth": -1,
                "id": -1,
                "order": -1
            }
        ],
        "tidyTraceNodeCount": 3
    },
    "state_change": {
        "stateChanges": [
            {
                "address": "0x0abdace70d3790235af448c88547603b945604ea",
                "erc": "ERC-20",
                "slots": [
                    {
                        "current": "0x0000000000000000000000000000000000000000000000000000000000000002",
                        "key": "0x51aab119470d70679a7b19997764ef831a5088f67a3b99645efbd6ede6517fcc",
                        "prev": "0x0000000000000000000000000000000000000000000000000000000000000001"
                    },
                    {
                        "current": "0x0000000000000000000000000000000000000000000000000000000000451134",
                        "key": "0x1744526269ae59a4d73fedf63976bff6879faeaae203d5efc8134de95c82a485",
                        "prev": "0x0000000000000000000000000000000000000000000000000000000000000000"
                    },
                    {
                        "current": "0x000000000000e9e0a1857bca78411fd300000000000000000000000000451134",
                        "key": "0xdb7b7dacba40fe9ce5c7ac8c826b461c6343d10fcf04b9fdf0a048a9acab37eb",
                        "prev": "0x000000000000dd159a71acd3e6ed67d300000000000000000000000000451134"
                    }
                ],
                "storageVariables": []
            }
        ]
    }
}