{
    "balance_change": {
        "balanceChanges": [
            {
                "account": "0xeae3676bfe2e017ece536b1e533166ec80407ddb",
                "assets": [
                    {
                        "address": "0x86fa049857e0209aa7d9e616f7eb3b3b78ecfdb0",
                        "amount": "25",
                        "iconUrl": "",
                        "isERC1155": false,
                        "isERC721": false,
                        "sign": false,
                        "value": ""
                    }
                ]
            },
            {
                "account": "0x2857681bcce3572a20132a10f4fce8f6a3c5a832",
                "assets": [
                    {
                        "address": "0x86fa049857e0209aa7d9e616f7eb3b3b78ecfdb0",
                        "amount": "25",
                        "iconUrl": "",
                        "isERC1155": false,
                        "isERC721": false,
                        "sign": true,
                        "value": ""
                    }
                ]
            }
        ]
    },
    "profile": {
        "basic_info": {
            "baseFee": "",
            "blockNumber": 5705432,
            "callData": "0xa9059cbb0000000000000000000000002857681bcce3572a20132a10f4fce8f6a3c5a8320000000000000000000000000000000000000000000000015af1d78b58c40000",
            "debugEnable": true,
            "errorInfo": "",
            "eventCount": 2,
            "feeRecipient": "0x829bd824b016326a401d083b33d092293333a830",
            "formatValue": "0",
            "gasLimit": 83764,
            "gasPrice": "22",
            "gasUsed": 55843,
            "intTxnCount": 0,
            "internalRevert": false,
            "internalRevertMessage": "",
            "isContractCreation": false,
            "isFlashloan": false,
            "maxFee": "",
            "nonce": 7,
            "overwritedBlockNumber": -1,
            "priorityFee": "",
            "receiver": "0x86fa049857e0209aa7d9e616f7eb3b3b78ecfdb0",
            "revertMessage": "",
            "sender": "0xeae3676bfe2e017ece536b1e533166ec80407ddb",
            "simulationEnable": true,
            "sourceTxnHash": "0x34a23cc5881285b62de920d47bb88b4a4277f2070e5b812a9bae208e8edab16b",
            "status": true,
            "timestamp": "2018-05-31T00:27:58Z",
            "transactionFee": "0.001228546",
            "txnHash": "0x34a23cc5881285b62de920d47bb88b4a4277f2070e5b812a9bae208e8edab16b",
            "txnIndex": 63,
            "type": 0,
            "value": "0"
        },
        "fund_flow": [
            {
                "amount": "25",
                "from": "0xeae3676bfe2e017ece536b1e533166ec80407ddb",
                "id": 1,
                "isERC1155": false,
                "isERC721": false,
                "isReverted": false,
                "order": 1,
                "to": "0x2857681bcce3572a20132a10f4fce8f6a3c5a832",
                "token": "0x86fa049857e0209aa7d9e616f7eb3b3b78ecfdb0"
            }
        ],
        "token_infos": [
            {
                "address": "0x86fa049857e0209aa7d9e616f7eb3b3b78ecfdb0",
                "decimals": 18
            },
            {
                "address": "0xc02aaa39b223fe8d0a0e5c4f27ead9083c756cc2",
                "decimals": 18
            },
            {
                "address": "0xeeeeeeeeeeeeeeeeeeeeeeeeeeeeeeeeeeeeeeee",
                "decimals": 18
            }
        ]
    },
    "address_label": {
        "labels": [
            {
                "address": "0x86fa049857e0209aa7d9e616f7eb3b3b78ecfdb0",
                "label": "EOS: Old Token"
            },
            {
                "address": "0x2857681bcce3572a20132a10f4fce8f6a3c5a832",
                "label": "UPBIT"
            },
            {
                "address": "0x0000000000000000000000000000000000000001",
                "label": "Precompiled"
            },
            {
                "address": "0x0000000000000000000000000000000000000002",
                "label": "Precompiled"
            },
            {
                "address": "0x0000000000000000000000000000000000000003",
                "label": "Precompiled"
            },
            {
                "address": "0x0000000000000000000000000000000000000004",
                "label": "Precompiled"
            },
            {
                "address": "0xeeeeeeeeeeeeeeeeeeeeeeeeeeeeeeeeeeeeeeee",
                "label": "Ether"
            }
        ]
    },
    "trace": {
        "accountLabels": null,
        "dataMap": {
            "-1": {
                "invocation": {
                    "address": "0xeae3676bfe2e017ece536b1e533166ec80407ddb",
                    "callData": "",
                    "decodedMethod": null,
                    "errorInfo": "",
                    "fromAddress": "",
                    "gasUsed": 0,
                    "id": -1,
                    "methodDecoded": false,
                    "operation": "",
                    "output": "",
                    "revert": false,
                    "revertMessage": "",
                    "selector": "",
                    "status": false,
                    "value": ""
                },
                "nodeType": 0
            },
            "0": {
                "invocation": {
                    "address": "0x86fa049857e0209aa7d9e616f7eb3b3b78ecfdb0",
                    "callData": "0x0000000000000000000000002857681bcce3572a20132a10f4fce8f6a3c5a8320000000000000000000000000000000000000000000000015af1d78b58c40000",
                    "decodedMethod": {
                        "callParams": [
                            {
                                "name": "dst",
                                "type": "address",
                                "value": "0x2857681bcce3572a20132a10f4fce8f6a3c5a832"
                            },
                            {
                                "decimalAvailable": true,
                                "name": "wad",
                                "type": "uint256",
                                "value": "25,000,000,000,000,000,000"
                            }
                        ],
                        "constructorArguments": "",
                        "name": "transfer",
                        "returnParams": [
                            {
                                "name": "",
                                "type": "bool",
                                "value": true
                            }
                        ],
                        "signature": "transfer(address,uint256)"
                    },
                    "errorInfo": "",
                    "fromAddress": "0xeae3676bfe2e017ece536b1e533166ec80407ddb",
                    "gasUsed": 55843,
                    "id": 0,
                    "methodDecoded": true,
                    "operation": "CALL",
                    "output": "0x0000000000000000000000000000000000000000000000000000000000000001",
                    "revert": false,
                    "revertMessage": "",
                    "selector": "0xa9059cbb",
                    "status": true,
                    "value": "0"
                },
                "nodeType": 0
            },
            "1": {
                "event": {
                    "contract": "0x86fa049857e0209aa7d9e616f7eb3b3b78ecfdb0",
                    "decodedLog": null,
                    "id": 1,
                    "logData": "0x000000000000000000000000000000000000000000000000000000000000000000000000000000000000000000000000000000000000000000000000000000400000000000000000000000000000000000000000000000000000000000000044a9059cbb0000000000000000000000002857681bcce3572a20132a10f4fce8f6a3c5a8320000000000000000000000000000000000000000000000015af1d78b58c40000",
                    "logDecoded": false,
                    "operation": "EVENT",
                    "revert": false,
                    "status": true,
                    "topics": [
                        "0xa9059cbb00000000000000000000000000000000000000000000000000000000",
                        "0x000000000000000000000000eae3676bfe2e017ece536b1e533166ec80407ddb",
                        "0x0000000000000000000000002857681bcce3572a20132a10f4fce8f6a3c5a832",
                        "0x0000000000000000000000000000000000000000000000015af1d78b58c40000"
                    ]
                },
                "nodeType": 1
            },
            "2": {
                "event": {
                    "contract": "0x86fa049857e0209aa7d9e616f7eb3b3b78ecfdb0",
                    "decodedLog": {
                        "name": "Transfer",
                        "params": [
                            {
                                "name": "from",
                                "type": "address",
                                "value": "0xeae3676bfe2e017ece536b1e533166ec80407ddb"
                            },
                            {
                                "name": "to",
                                "type": "address",
                                "value": "0x2857681bcce3572a20132a10f4fce8f6a3c5a832"
                            },
                            {
                                "decimalAvailable": true,
                                "name": "value",
                                "type": "uint256",
                                "value": "25,000,000,000,000,000,000"
                            }
                        ],
                        "signature": "Transfer(address,address,uint256)"
                    },
                    "id": 2,
                    "logData": "0x0000000000000000000000000000000000000000000000015af1d78b58c40000",
                    "logDecoded": true,
                    "operation": "EVENT",
                    "revert": false,
                    "status": true,
                    "topics": [
                        "0xddf252ad1be2c89b69c2b068fc378daa952ba7f163c4a11628f55a4df523b3ef",
                        "0x000000000000000000000000eae3676bfe2e017ece536b1e533166ec80407ddb",
                        "0x0000000000000000000000002857681bcce3572a20132a10f4fce8f6a3c5a832"
                    ]
                },
                "nodeType": 1
            }
        },
        "gasFlame": [
            {
                "children": [
                    {
                        "children": [
                            {
                                "children": [],
                                "depth": 0,
                                "name": "Initial Gas",
                                "value": 23256
                            },
                            {
                                "children": [],
                                "depth": 0,
                                "name": "Executed Gas",
                                "value": 32587
                            }
                        ],
                        "depth": -1,
                        "name": "Actual Gas Used",
                        "value": 55843
                    },
                    {
                        "children": [],
                        "depth": -1,
                        "name": "Refunded Gas",
                        "value": 0
                    }
                ],
                "depth": -2,
                "name": "Total Gas",
                "value": 55843
            }
        ],
        "isConfirmed": true,
        "mainTrace": [
            {
                "children": [
                    {
                        "children": [
                            {
                                "children": [],
                                "depth": 1,
                                "id": 1,
                                "order": 1
                            },
                            {
                                "children": [],
                                "depth": 1,
                                "id": 2,
                                "order": 2
                            }
                        ],
                        "depth": 0,
                        "id": 0,
                        "order": 0
                    }
                ],
                "depth": -1,
                "id": -1,
                "order": -1
            }
        ],
        "mainTraceNodeCount": 3,
        "parentIdMap": {
            "0": -1,
            "1": 0,
            "2": 0
        },
        "tidyTrace": [
            {
                "children": [
                    {
                        "children": [
                            {
                                "children": [],
                                "depth": 1,
                                "id": 1,
                                "order": 1
                            },
                            {
                                "children": [],
                                "depth": 1,
                                "id": 2,
                                "order": 2
                            }
                        ],
                        "depth": 0,
                        "id": 0,
                        "order": 0
                    }
                ],
                "depth": -1,
                "id": -1,
                "order": -1
            }
        ],
        "tidyTraceNodeCount": 3
    },
    "state_change": {
        "stateChanges": [
            {
                "address": "0x86fa049857e0209aa7d9e616f7eb3b3b78ecfdb0",
                "erc": "ERC-20",
                "slots": [
                    {
                        "current": "0x00000000000000000000000000000000000000000000001f2bba97e8b3cdd000",
                        "key": "0xfa7d4fefb762cd3e207bd2cff8ac363833321bab2dd0bd5fac748de04b4e451f",
                        "prev": "0x00000000000000000000000000000000000000000000002086ac6f740c91d000"
                    },
                    {
                        "current": "0x0000000000000000000000000000000000000000000000015af1d78b58c40000",
                        "key": "0xec74c5b6c42878aac9419a57a866ea227881f66f9f3cb568500c7569a626666c",
                        "prev": "0x0000000000000000000000000000000000000000000000000000000000000000"
                    }
                ],
                "storageVariables": []
            }
        ]
    }
}