{
    "balance_change": {
        "balanceChanges": [
            {
                "account": "0x0000000000000000000000000000000000000000",
                "assets": [
                    {
                        "address": "0x5c891d76584b46bc7f1e700169a76569bb77d2db",
                        "amount": "1",
                        "iconUrl": "",
                        "isERC1155": true,
                        "isERC721": false,
                        "sign": false,
                        "tokenID": "18",
                        "value": ""
                    }
                ]
            },
            {
                "account": "0x1688f70cfa352dad8e7f077589fb73117acaf706",
                "assets": [
                    {
                        "address": "0x5c891d76584b46bc7f1e700169a76569bb77d2db",
                        "amount": "1",
                        "iconUrl": "",
                        "isERC1155": true,
                        "isERC721": false,
                        "sign": true,
                        "tokenID": "18",
                        "value": ""
                    }
                ]
            }
        ]
    },
    "profile": {
        "basic_info": {
            "baseFee": "12.343757072",
            "blockNumber": 16002281,
            "callData": "0x32ee4ee30000000000000000000000001688f70cfa352dad8e7f077589fb73117acaf706000000000000000000000000000000000000000000000000000000000000006000000000000000000000000000000000000000000000000000000000000000a00000000000000000000000000000000000000000000000000000000000000001000000000000000000000000000000000000000000000000000000000000001200000000000000000000000000000000000000000000000000000000000000010000000000000000000000000000000000000000000000000000000000000001",
            "debugEnable": true,
            "errorInfo": "",
            "eventCount": 1,
            "feeRecipient": "0xdafea492d9c6733ae3d56b7ed1adb60692c98bc5",
            "formatValue": "0",
            "gasLimit": 200093,
            "gasPrice": "13.843757072",
            "gasUsed": 197429,
            "intTxnCount": 1,
            "internalRevert": false,
            "internalRevertMessage": "",
            "isContractCreation": false,
            "isFlashloan": false,
            "maxFee": "26.547354562",
            "nonce": 17878,
            "overwritedBlockNumber": -1,
            "priorityFee": "1.5",
            "receiver": "0x5c891d76584b46bc7f1e700169a76569bb77d2db",
            "revertMessage": "",
            "sender": "0x989e09f18a90dfe21fc19ffbb096a7ad6ba89fa5",
            "simulationEnable": true,
            "sourceTxnHash": "0x3402c74b654a99898045695b924818cfa79bb1a193b74df8af9d2f9e5f0c5fd1",
            "status": true,
            "timestamp": "2022-11-19T06:30:23Z",
            "transactionFee": "0.002733159114967888",
            "txnHash": "0x3402c74b654a99898045695b924818cfa79bb1a193b74df8af9d2f9e5f0c5fd1",
            "txnIndex": 39,
            "type": 2,
            "value": "0"
        },
        "fund_flow": [
            {
                "amount": "1",
                "from": "0x0000000000000000000000000000000000000000",
                "id": 1,
                "isERC1155": true,
                "isERC721": false,
                "isReverted": false,
                "order": 1,
                "to": "0x1688f70cfa352dad8e7f077589fb73117acaf706",
                "token": "0x5c891d76584b46bc7f1e700169a76569bb77d2db",
                "tokenID": "18"
            }
        ],
        "token_infos": [
            {
                "address": "0xc02aaa39b223fe8d0a0e5c4f27ead9083c756cc2",
                "decimals": 18
            },
            {
                "address": "0xeeeeeeeeeeeeeeeeeeeeeeeeeeeeeeeeeeeeeeee",
                "decimals": 18
            }
        ]
    },
    "address_label": {
        "labels": [
            {
                "address": "0xeeeeeeeeeeeeeeeeeeeeeeeeeeeeeeeeeeeeeeee",
                "label": "Ether"
            },
            {
                "address": "0x4b8946a6850e0ee486939790c0ccc0056c549df5",
                "label": "OKXFootballCup (OKXFC)"
            },
            {
                "address": "0x5c891d76584b46bc7f1e700169a76569bb77d2db",
                "label": "OKX Football Cup: OKXFC Token"
            },
            {
                "address": "0x0000000000000000000000000000000000000001",
                "label": "Precompiled"
            },
            {
                "address": "0x0000000000000000000000000000000000000002",
                "label": "Precompiled"
            },
            {
                "address": "0x0000000000000000000000000000000000000003",
                "label": "Precompiled"
            },
            {
                "address": "0x0000000000000000000000000000000000000004",
                "label": "Precompiled"
            }
        ]
    },
    "trace": {
        "accountLabels": null,
        "dataMap": {
            "-1": {
                "invocation": {
                    "address": "0x989e09f18a90dfe21fc19ffbb096a7ad6ba89fa5",
                    "callData": "",
                    "decodedMethod": null,
                    "errorInfo": "",
                    "fromAddress": "",
                    "gasUsed": 0,
                    "id": -1,
                    "methodDecoded": false,
                    "operation": "",
                    "output": "",
                    "revert": false,
                    "revertMessage": "",
                    "selector": "",
                    "status": false,
                    "value": ""
                },
                "nodeType": 0
            },
            "0": {
                "invocation": {
                    "address": "0x5c891d76584b46bc7f1e700169a76569bb77d2db",
                    "callData": "0x0000000000000000000000001688f70cfa352dad8e7f077589fb73117acaf706000000000000000000000000000000000000000000000000000000000000006000000000000000000000000000000000000000000000000000000000000000a00000000000000000000000000000000000000000000000000000000000000001000000000000000000000000000000000000000000000000000000000000001200000000000000000000000000000000000000000000000000000000000000010000000000000000000000000000000000000000000000000000000000000001",
                    "decodedMethod": {
                        "callParams": [
                            {
                                "name": "to",
                                "type": "address",
                                "value": "0x1688f70cfa352dad8e7f077589fb73117acaf706"
                            },
                            {
                                "name": "ids",
                                "type": "uint256[]",
                                "value": [
                                    "18"
                                ]
                            },
                            {
                                "name": "amounts",
                                "type": "uint256[]",
                                "value": [
                                    "1"
                                ]
                            }
                        ],
                        "constructorArguments": "",
                        "name": "mintForDrop",
                        "returnParams": [],
                        "signature": "mintForDrop(address,uint256[],uint256[])"
                    },
                    "errorInfo": "",
                    "fromAddress": "0x989e09f18a90dfe21fc19ffbb096a7ad6ba89fa5",
                    "gasUsed": 197429,
                    "id": 0,
                    "methodDecoded": true,
                    "operation": "CALL",
                    "output": "",
                    "revert": false,
                    "revertMessage": "",
                    "selector": "0x32ee4ee3",
                    "status": true,
                    "value": "0"
                },
                "nodeType": 0
            },
            "1": {
                "invocation": {
                    "address": "0x4b8946a6850e0ee486939790c0ccc0056c549df5",
                    "callData": "0x0000000000000000000000001688f70cfa352dad8e7f077589fb73117acaf706000000000000000000000000000000000000000000000000000000000000006000000000000000000000000000000000000000000000000000000000000000a00000000000000000000000000000000000000000000000000000000000000001000000000000000000000000000000000000000000000000000000000000001200000000000000000000000000000000000000000000000000000000000000010000000000000000000000000000000000000000000000000000000000000001",
                    "decodedMethod": {
                        "callParams": [
                            {
                                "name": "to",
                                "type": "address",
                                "value": "0x1688f70cfa352dad8e7f077589fb73117acaf706"
                            },
                            {
                                "name": "ids",
                                "type": "uint256[]",
                                "value": [
                                    "18"
                                ]
                            },
                            {
                                "name": "amounts",
                                "type": "uint256[]",
                                "value": [
                                    "1"
                                ]
                            }
                        ],
                        "constructorArguments": "",
                        "name": "mintForDrop",
                        "returnParams": [],
                        "signature": "mintForDrop(address,uint256[],uint256[])"
                    },
                    "errorInfo": "",
                    "fromAddress": "0x5c891d76584b46bc7f1e700169a76569bb77d2db",
                    "gasUsed": 170229,
                    "id": 1,
                    "methodDecoded": true,
                    "operation": "DELEGATECALL",
                    "output": "",
                    "revert": false,
                    "revertMessage": "",
                    "selector": "0x32ee4ee3",
                    "status": true,
                    "value": "0"
                },
                "nodeType": 0
            },
            "2": {
                "event": {
                    "contract": "0x5c891d76584b46bc7f1e700169a76569bb77d2db",
                    "decodedLog": {
                        "name": "TransferBatch",
                        "params": [
                            {
                                "name": "operator",
                                "type": "address",
                                "value": "0x989e09f18a90dfe21fc19ffbb096a7ad6ba89fa5"
                            },
                            {
                                "name": "from",
                                "type": "address",
                                "value": "0x0000000000000000000000000000000000000000"
                            },
                            {
                                "name": "to",
                                "type": "address",
                                "value": "0x1688f70cfa352dad8e7f077589fb73117acaf706"
                            },
                            {
                                "name": "ids",
                                "type": "uint256[]",
                                "value": [
                                    "18"
                                ]
                            },
                            {
                                "name": "values",
                                "type": "uint256[]",
                                "value": [
                                    "1"
                                ]
                            }
                        ],
                        "signature": "TransferBatch(address,address,address,uint256[],uint256[])"
                    },
                    "id": 2,
                    "logData": "0x000000000000000000000000000000000000000000000000000000000000004000000000000000000000000000000000000000000000000000000000000000800000000000000000000000000000000000000000000000000000000000000001000000000000000000000000000000000000000000000000000000000000001200000000000000000000000000000000000000000000000000000000000000010000000000000000000000000000000000000000000000000000000000000001",
                    "logDecoded": true,
                    "operation": "EVENT",
                    "revert": false,
                    "status": true,
                    "topics": [
                        "0x4a39dc06d4c0dbc64b70af90fd698a233a518aa5d07e595d983b8c0526c8f7fb",
                        "0x000000000000000000000000989e09f18a90dfe21fc19ffbb096a7ad6ba89fa5",
                        "0x0000000000000000000000000000000000000000000000000000000000000000",
                        "0x0000000000000000000000001688f70cfa352dad8e7f077589fb73117acaf706"
                    ]
                },
                "nodeType": 1
            }
        },
        "gasFlame": [
            {
                "children": [
                    {
                        "children": [
                            {
                                "children": [],
                                "depth": 0,
                                "name": "Initial Gas",
                                "value": 22272
                            },
                            {
                                "children": [
                                    {
                                        "children": [],
                                        "depth": 1,
                                        "name": "mintForDrop",
                                        "value": 170229
                                    }
                                ],
                                "depth": 0,
                                "name": "Executed Gas",
                                "value": 175157
                            }
                        ],
                        "depth": -1,
                        "name": "Actual Gas Used",
                        "value": 197429
                    },
                    {
                        "children": [],
                        "depth": -1,
                        "name": "Refunded Gas",
                        "value": 0
                    }
                ],
                "depth": -2,
                "name": "Total Gas",
                "value": 197429
            }
        ],
        "isConfirmed": true,
        "mainTrace": [
            {
                "children": [
                    {
                        "children": [
                            {
                                "children": [
                                    {
                                        "children": [],
                                        "depth": 2,
                                        "id": 2,
                                        "order": 2
                                    }
                                ],
                                "depth": 1,
                                "id": 1,
                                "order": 1
                            }
                        ],
                        "depth": 0,
                        "id": 0,
                        "order": 0
                    }
                ],
                "depth": -1,
                "id": -1,
                "order": -1
            }
        ],
        "mainTraceNodeCount": 3,
        "parentIdMap": {
            "0": -1,
            "1": 0,
            "2": 1
        },
        "tidyTrace": [
            {
                "children": [
                    {
                        "children": [
                            {
                                "children": [
                                    {
                                        "children": [],
                                        "depth": 2,
                                        "id": 2,
                                        "order": 2
                                    }
                                ],
                                "depth": 1,
                                "id": 1,
                                "order": 1
                            }
                        ],
                        "depth": 0,
                        "id": 0,
                        "order": 0
                    }
                ],
                "depth": -1,
                "id": -1,
                "order": -1
            }
        ],
        "tidyTraceNodeCount": 3
    },
    "state_change": {
        "stateChanges": [
            {
                "address": "0x5c891d76584b46bc7f1e700169a76569bb77d2db",
                "erc": "",
                "slots": [
                    {
                        "current": "0x00000000000000000000000000000000000000000000000000000000000048aa",
                        "key": "0x0000000000000000000000000000000000000000000000000000000000000198",
                        "prev": "0x00000000000000000000000000000000000000000000000000000000000048a9"
                    },
                    {
                        "current": "0x0000000000000000000000000000000000000000000000000000000000000001",
                        "key": "0xb37a7cca8306235457a7538913a9216124ae1bb1de0462675110fa80857406db",
                        "prev": "0x0000000000000000000000000000000000000000000000000000000000000000"
                    },
                    {
                        "current": "0x0000000000000000000000001688f70cfa352dad8e7f077589fb73117acaf706",
                        "key": "0x4da88da0519af1a7a9dc5d384f905bc0a6fb214f500498b6d3b5b58f3dc9d0a7",
                        "prev": "0x0000000000000000000000000000000000000000000000000000000000000000"
                    },
                    {
                        "current": "0x0000000000000000000000000000000000000000000000000000000000000001",
                        "key": "0xa8ea3eb6a0ef25fa32710c12986ebaadbf8db0efe31f4571b74b7004950d74ba",
                        "prev": "0x0000000000000000000000000000000000000000000000000000000000000000"
                    },
                    {
                        "current": "0x000000000000000000000000000000000000000000000000000000000000158b",
                        "key": "0xb8d2afb2b761dff126b0b1f13d71e178965fcc3269dacd09d38ba35b49c9f256",
                        "prev": "0x000000000000000000000000000000000000000000000000000000000000158a"
                    },
                    {
                        "current": "0x000000000000000000000000000000000000000000000000000000000000743f",
                        "key": "0x00000000000000000000000000000000000000000000000000000000000001a0",
                        "prev": "0x000000000000000000000000000000000000000000000000000000000000743e"
                    },
                    {
                        "current": "0x000000000000000000000000000000000000000000000000000000000000158b",
                        "key": "0x832b1b61dd922c83cd6acb4a527f26ac2864bcbd95d7604c1f712ae197ce22f5",
                        "prev": "0x0000000000000000000000000000000000000000000000000000000000000000"
                    },
                    {
                        "current": "0x0000000000000000000000000000000000000000000000000000000000000001",
                        "key": "0x56fa6824189910252d470279d8cbcbb9246e1e80a4316eab93c8f5b4872ab9b4",
                        "prev": "0x0000000000000000000000000000000000000000000000000000000000000000"
                    },
                    {
                        "current": "0x000000000000000000000000000000000000000000000000000000000000158b",
                        "key": "0x94423206b05d56f6fe7e3e041dd163cab4ef7ca5a2847061ced5ac93f347f7c7",
                        "prev": "0x000000000000000000000000000000000000000000000000000000000000158a"
                    },
                    {
                        "current": "0x0000000000000000000000000000000000000000000000000000000000001800",
                        "key": "0xe38802e1f1e54d1bdda74a3a153e918155103c99056ca359e9c5f6c32f7c9b92",
                        "prev": "0x00000000000000000000000000000000000000000000000000000000000017ff"
                    }
                ],
                "storageVariables": []
            }
        ]
    }
}