{
    "balance_change": {
        "balanceChanges": []
    },
    "profile": {
        "basic_info": {
            "baseFee": "",
            "blockNumber": 11709429,
            "callData": "0x095ea7b300000000000000000000000019d97d8fa813ee2f51ad4b4e04ea08baf4dffc28000000000000000000000000000000000000000000115eec47f6cf7e35000000",
            "debugEnable": true,
            "errorInfo": "",
            "eventCount": 1,
            "feeRecipient": "0xea674fdde714fd979de3edf0f56aa9716b898ec8",
            "formatValue": "0",
            "gasLimit": 73581,
            "gasPrice": "80.2",
            "gasUsed": 61318,
            "intTxnCount": 4,
            "internalRevert": false,
            "internalRevertMessage": "",
            "isContractCreation": false,
            "isFlashloan": false,
            "maxFee": "",
            "nonce": 235,
            "overwritedBlockNumber": -1,
            "priorityFee": "",
            "receiver": "0x3472a5a71965499acd81997a54bba8d852c6e53d",
            "revertMessage": "",
            "sender": "0xe04ff7f17305db881d30bcf109c3db0103c5c8b3",
            "simulationEnable": true,
            "sourceTxnHash": "0x352c8204e90dc26175c724a94ae893a7e760d95b19585ad6c5a12b79d0b465a7",
            "status": true,
            "timestamp": "2021-01-23T03:44:24Z",
            "transactionFee": "0.0049177036",
            "txnHash": "0x352c8204e90dc26175c724a94ae893a7e760d95b19585ad6c5a12b79d0b465a7",
            "txnIndex": 157,
            "type": 0,
            "value": "0"
        },
        "fund_flow": [],
        "token_infos": [
            {
                "address": "0xc02aaa39b223fe8d0a0e5c4f27ead9083c756cc2",
                "decimals": 18
            },
            {
                "address": "0xeeeeeeeeeeeeeeeeeeeeeeeeeeeeeeeeeeeeeeee",
                "decimals": 18
            }
        ]
    },
    "address_label": {
        "labels": [
            {
                "address": "0xeeeeeeeeeeeeeeeeeeeeeeeeeeeeeeeeeeeeeeee",
                "label": "Ether"
            },
            {
                "address": "0x2b33cf282f867a7ff693a66e11b0fcc5552e4425",
                "label": "Lido: DAO Impl 1.0.0"
            },
            {
                "address": "0xd86f07e5d9e391fae521b4b000b7ce639d167425",
                "label": "AppProxyUpgradeable"
            },
            {
                "address": "0x0000000000000000000000000000000000000002",
                "label": "Precompiled"
            },
            {
                "address": "0x0000000000000000000000000000000000000003",
                "label": "Precompiled"
            },
            {
                "address": "0x0000000000000000000000000000000000000004",
                "label": "Precompiled"
            },
            {
                "address": "0x3472a5a71965499acd81997a54bba8d852c6e53d",
                "label": "Badger: BADGER Token"
            },
            {
                "address": "0x33d53383314190b0b885d1b6913b5a50e2d3a639",
                "label": "Badger: DAO Governance Kernel"
            },
            {
                "address": "0xde3a93028f2283cc28756b3674bd657eafb992f4",
                "label": "Lido: Aragon Token Manager Impl"
            },
            {
                "address": "0x19d97d8fa813ee2f51ad4b4e04ea08baf4dffc28",
                "label": "Badger: Vault (Badger setts)"
            },
            {
                "address": "0x0000000000000000000000000000000000000001",
                "label": "Precompiled"
            }
        ]
    },
    "trace": {
        "accountLabels": null,
        "dataMap": {
            "-1": {
                "invocation": {
                    "address": "0xe04ff7f17305db881d30bcf109c3db0103c5c8b3",
                    "callData": "",
                    "decodedMethod": null,
                    "errorInfo": "",
                    "fromAddress": "",
                    "gasUsed": 0,
                    "id": -1,
                    "methodDecoded": false,
                    "operation": "",
                    "output": "",
                    "revert": false,
                    "revertMessage": "",
                    "selector": "",
                    "status": false,
                    "value": ""
                },
                "nodeType": 0
            },
            "0": {
                "invocation": {
                    "address": "0x3472a5a71965499acd81997a54bba8d852c6e53d",
                    "callData": "0x00000000000000000000000019d97d8fa813ee2f51ad4b4e04ea08baf4dffc28000000000000000000000000000000000000000000115eec47f6cf7e35000000",
                    "decodedMethod": {
                        "callParams": [
                            {
                                "name": "_spender",
                                "type": "address",
                                "value": "0x19d97d8fa813ee2f51ad4b4e04ea08baf4dffc28"
                            },
                            {
                                "decimalAvailable": true,
                                "name": "_amount",
                                "type": "uint256",
                                "value": "21,000,000,000,000,000,000,000,000"
                            }
                        ],
                        "constructorArguments": "",
                        "name": "approve",
                        "returnParams": [
                            {
                                "name": "success",
                                "type": "bool",
                                "value": true
                            }
                        ],
                        "signature": "approve(address,uint256)"
                    },
                    "errorInfo": "",
                    "fromAddress": "0xe04ff7f17305db881d30bcf109c3db0103c5c8b3",
                    "gasUsed": 61318,
                    "id": 0,
                    "methodDecoded": true,
                    "operation": "CALL",
                    "output": "0x0000000000000000000000000000000000000000000000000000000000000001",
                    "revert": false,
                    "revertMessage": "",
                    "selector": "0x095ea7b3",
                    "status": true,
                    "value": "0"
                },
                "nodeType": 0
            },
            "1": {
                "invocation": {
                    "address": "0xd86f07e5d9e391fae521b4b000b7ce639d167425",
                    "callData": "0x000000000000000000000000e04ff7f17305db881d30bcf109c3db0103c5c8b300000000000000000000000019d97d8fa813ee2f51ad4b4e04ea08baf4dffc28000000000000000000000000000000000000000000115eec47f6cf7e35000000",
                    "decodedMethod": {
                        "callParams": [
                            {
                                "name": "_owner",
                                "type": "address",
                                "value": "0xe04ff7f17305db881d30bcf109c3db0103c5c8b3"
                            },
                            {
                                "name": "_spender",
                                "type": "address",
                                "value": "0x19d97d8fa813ee2f51ad4b4e04ea08baf4dffc28"
                            },
                            {
                                "name": "_amount",
                                "type": "uint256",
                                "value": "21,000,000,000,000,000,000,000,000"
                            }
                        ],
                        "constructorArguments": "",
                        "name": "onApprove",
                        "returnParams": [
                            {
                                "name": "",
                                "type": "bool",
                                "value": true
                            }
                        ],
                        "signature": "onApprove(address,address,uint256)"
                    },
                    "errorInfo": "",
                    "fromAddress": "0x3472a5a71965499acd81997a54bba8d852c6e53d",
                    "gasUsed": 11491,
                    "id": 1,
                    "methodDecoded": true,
                    "operation": "CALL",
                    "output": "0x0000000000000000000000000000000000000000000000000000000000000001",
                    "revert": false,
                    "revertMessage": "",
                    "selector": "0xda682aeb",
                    "status": true,
                    "value": "0"
                },
                "nodeType": 0
            },
            "2": {
                "invocation": {
                    "address": "0x33d53383314190b0b885d1b6913b5a50e2d3a639",
                    "callData": "0xf1f3eb40f5bc1ad1344716ced8b8a0431d840b5783aea1fd01786bc26f35ac0f6b20a3010614eeebf2138ccec99f028a61c811b3b1a3343b6ff635985c75c91f",
                    "decodedMethod": {
                        "callParams": [
                            {
                                "name": "_namespace",
                                "type": "bytes32",
                                "value": "0xf1f3eb40f5bc1ad1344716ced8b8a0431d840b5783aea1fd01786bc26f35ac0f"
                            },
                            {
                                "name": "_appId",
                                "type": "bytes32",
                                "value": "0x6b20a3010614eeebf2138ccec99f028a61c811b3b1a3343b6ff635985c75c91f"
                            }
                        ],
                        "constructorArguments": "",
                        "name": "getApp",
                        "returnParams": [
                            {
                                "name": "",
                                "type": "address",
                                "value": "0xde3a93028f2283cc28756b3674bd657eafb992f4"
                            }
                        ],
                        "signature": "getApp(bytes32,bytes32)"
                    },
                    "errorInfo": "",
                    "fromAddress": "0xd86f07e5d9e391fae521b4b000b7ce639d167425",
                    "gasUsed": 4363,
                    "id": 2,
                    "methodDecoded": true,
                    "operation": "CALL",
                    "output": "0x000000000000000000000000de3a93028f2283cc28756b3674bd657eafb992f4",
                    "revert": false,
                    "revertMessage": "",
                    "selector": "0xbe00bbd8",
                    "status": true,
                    "value": "0"
                },
                "nodeType": 0
            },
            "3": {
                "invocation": {
                    "address": "0x2b33cf282f867a7ff693a66e11b0fcc5552e4425",
                    "callData": "0xf1f3eb40f5bc1ad1344716ced8b8a0431d840b5783aea1fd01786bc26f35ac0f6b20a3010614eeebf2138ccec99f028a61c811b3b1a3343b6ff635985c75c91f",
                    "decodedMethod": {
                        "callParams": [
                            {
                                "name": "_namespace",
                                "type": "bytes32",
                                "value": "0xf1f3eb40f5bc1ad1344716ced8b8a0431d840b5783aea1fd01786bc26f35ac0f"
                            },
                            {
                                "name": "_appId",
                                "type": "bytes32",
                                "value": "0x6b20a3010614eeebf2138ccec99f028a61c811b3b1a3343b6ff635985c75c91f"
                            }
                        ],
                        "constructorArguments": "",
                        "name": "getApp",
                        "returnParams": [
                            {
                                "name": "",
                                "type": "address",
                                "value": "0xde3a93028f2283cc28756b3674bd657eafb992f4"
                            }
                        ],
                        "signature": "getApp(bytes32,bytes32)"
                    },
                    "errorInfo": "",
                    "fromAddress": "0x33d53383314190b0b885d1b6913b5a50e2d3a639",
                    "gasUsed": 1520,
                    "id": 3,
                    "methodDecoded": true,
                    "operation": "DELEGATECALL",
                    "output": "0x000000000000000000000000de3a93028f2283cc28756b3674bd657eafb992f4",
                    "revert": false,
                    "revertMessage": "",
                    "selector": "0xbe00bbd8",
                    "status": true,
                    "value": "0"
                },
                "nodeType": 0
            },
            "4": {
                "invocation": {
                    "address": "0xde3a93028f2283cc28756b3674bd657eafb992f4",
                    "callData": "0x000000000000000000000000e04ff7f17305db881d30bcf109c3db0103c5c8b300000000000000000000000019d97d8fa813ee2f51ad4b4e04ea08baf4dffc28000000000000000000000000000000000000000000115eec47f6cf7e35000000",
                    "decodedMethod": {
                        "callParams": [
                            {
                                "name": "",
                                "type": "address",
                                "value": "0xe04ff7f17305db881d30bcf109c3db0103c5c8b3"
                            },
                            {
                                "name": "",
                                "type": "address",
                                "value": "0x19d97d8fa813ee2f51ad4b4e04ea08baf4dffc28"
                            },
                            {
                                "name": "",
                                "type": "uint256",
                                "value": "21,000,000,000,000,000,000,000,000"
                            }
                        ],
                        "constructorArguments": "",
                        "name": "onApprove",
                        "returnParams": [
                            {
                                "name": "",
                                "type": "bool",
                                "value": true
                            }
                        ],
                        "signature": "onApprove(address,address,uint256)"
                    },
                    "errorInfo": "",
                    "fromAddress": "0xd86f07e5d9e391fae521b4b000b7ce639d167425",
                    "gasUsed": 1699,
                    "id": 4,
                    "methodDecoded": true,
                    "operation": "DELEGATECALL",
                    "output": "0x0000000000000000000000000000000000000000000000000000000000000001",
                    "revert": false,
                    "revertMessage": "",
                    "selector": "0xda682aeb",
                    "status": true,
                    "value": "0"
                },
                "nodeType": 0
            },
            "5": {
                "event": {
                    "contract": "0x3472a5a71965499acd81997a54bba8d852c6e53d",
                    "decodedLog": {
                        "name": "Approval",
                        "params": [
                            {
                                "name": "_owner",
                                "type": "address",
                                "value": "0xe04ff7f17305db881d30bcf109c3db0103c5c8b3"
                            },
                            {
                                "name": "_spender",
                                "type": "address",
                                "value": "0x19d97d8fa813ee2f51ad4b4e04ea08baf4dffc28"
                            },
                            {
                                "decimalAvailable": true,
                                "name": "_amount",
                                "type": "uint256",
                                "value": "21,000,000,000,000,000,000,000,000"
                            }
                        ],
                        "signature": "Approval(address,address,uint256)"
                    },
                    "id": 5,
                    "logData": "0x000000000000000000000000000000000000000000115eec47f6cf7e35000000",
                    "logDecoded": true,
                    "operation": "EVENT",
                    "revert": false,
                    "status": true,
                    "topics": [
                        "0x8c5be1e5ebec7d5bd14f71427d1e84f3dd0314c0f7b2291e5b200ac8c7c3b925",
                        "0x000000000000000000000000e04ff7f17305db881d30bcf109c3db0103c5c8b3",
                        "0x00000000000000000000000019d97d8fa813ee2f51ad4b4e04ea08baf4dffc28"
                    ]
                },
                "nodeType": 1
            }
        },
        "gasFlame": [
            {
                "children": [
                    {
                        "children": [
                            {
                                "children": [],
                                "depth": 0,
                                "name": "Initial Gas",
                                "value": 21656
                            },
                            {
                                "children": [
                                    {
                                        "children": [
                                            {
                                                "children": [
                                                    {
                                                        "children": [],
                                                        "depth": 3,
                                                        "name": "getApp",
                                                        "value": 1520
                                                    }
                                                ],
                                                "depth": 2,
                                                "name": "getApp",
                                                "value": 4363
                                            },
                                            {
                                                "children": [],
                                                "depth": 2,
                                                "name": "onApprove",
                                                "value": 1699
                                            }
                                        ],
                                        "depth": 1,
                                        "name": "onApprove",
                                        "value": 11491
                                    }
                                ],
                                "depth": 0,
                                "name": "Executed Gas",
                                "value": 39662
                            }
                        ],
                        "depth": -1,
                        "name": "Actual Gas Used",
                        "value": 61318
                    },
                    {
                        "children": [],
                        "depth": -1,
                        "name": "Refunded Gas",
                        "value": 0
                    }
                ],
                "depth": -2,
                "name": "Total Gas",
                "value": 61318
            }
        ],
        "isConfirmed": true,
        "mainTrace": [
            {
                "children": [
                    {
                        "children": [
                            {
                                "children": [
                                    {
                                        "children": [
                                            {
                                                "children": [],
                                                "depth": 3,
                                                "id": 3,
                                                "order": 3
                                            }
                                        ],
                                        "depth": 2,
                                        "id": 2,
                                        "order": 2
                                    },
                                    {
                                        "children": [],
                                        "depth": 2,
                                        "id": 4,
                                        "order": 4
                                    }
                                ],
                                "depth": 1,
                                "id": 1,
                                "order": 1
                            },
                            {
                                "children": [],
                                "depth": 1,
                                "id": 5,
                                "order": 5
                            }
                        ],
                        "depth": 0,
                        "id": 0,
                        "order": 0
                    }
                ],
                "depth": -1,
                "id": -1,
                "order": -1
            }
        ],
        "mainTraceNodeCount": 6,
        "parentIdMap": {
            "0": -1,
            "1": 0,
            "2": 1,
            "3": 2,
            "4": 1,
            "5": 0
        },
        "tidyTrace": [
            {
                "children": [
                    {
                        "children": [
                            {
                                "children": [
                                    {
                                        "children": [
                                            {
                                                "children": [],
                                                "depth": 3,
                                                "id": 3,
                                                "order": 3
                                            }
                                        ],
                                        "depth": 2,
                                        "id": 2,
                                        "order": 2
                                    },
                                    {
                                        "children": [],
                                        "depth": 2,
                                        "id": 4,
                                        "order": 4
                                    }
                                ],
                                "depth": 1,
                                "id": 1,
                                "order": 1
                            },
                            {
                                "children": [],
                                "depth": 1,
                                "id": 5,
                                "order": 5
                            }
                        ],
                        "depth": 0,
                        "id": 0,
                        "order": 0
                    }
                ],
                "depth": -1,
                "id": -1,
                "order": -1
            }
        ],
        "tidyTraceNodeCount": 6
    },
    "state_change": {
        "stateChanges": [
            {
                "address": "0x3472a5a71965499acd81997a54bba8d852c6e53d",
                "erc": "ERC-20",
                "slots": [
                    {
                        "current": "0x000000000000000000000000000000000000000000115eec47f6cf7e35000000",
                        "key": "0x5f3f826beccb3beec576ec2b39a493906ca82da0d5a5fe78a01ad89220209806",
                        "prev": "0x0000000000000000000000000000000000000000000000000000000000000000"
                    }
                ],
                "storageVariables": [
                    {
                        "name": "allowed",
                        "type": "mapping(address => mapping(address => uint256))",
                        "value": {
                            "pairs": [
                                {
                                    "key": "0xe04ff7f17305db881d30bcf109c3db0103c5c8b3",
                                    "value": {
                                        "pairs": [
                                            {
                                                "key": "0x19d97d8fa813ee2f51ad4b4e04ea08baf4dffc28",
                                                "value": {
                                                    "current": "21000000000000000000000000",
                                                    "prev": "0",
                                                    "typeTag": 1
                                                }
                                            }
                                        ],
                                        "typeTag": 4
                                    }
                                }
                            ],
                            "typeTag": 4
                        }
                    }
                ]
            }
        ]
    }
}