{
    "balance_change": {
        "balanceChanges": [
            {
                "account": "0x7838cc5362529f93fdcc7768eab26c8dbf08bb29",
                "assets": [
                    {
                        "address": "0xa0b86991c6218b36c1d19d4a2e9eb0ce3606eb48",
                        "amount": "204",
                        "iconUrl": "https://assets.blocksec.com/icon/0347a86cc07dbd03fdc5db01a4e5ac7e1217f90e0b6e4bb0f75cbcca09160989.png",
                        "isERC1155": false,
                        "isERC721": false,
                        "sign": false,
                        "value": "204.0416364"
                    }
                ]
            },
            {
                "account": "0x4f6742badb049791cd9a37ea913f2bac38d01279",
                "assets": [
                    {
                        "address": "0xa0b86991c6218b36c1d19d4a2e9eb0ce3606eb48",
                        "amount": "204",
                        "iconUrl": "https://assets.blocksec.com/icon/0347a86cc07dbd03fdc5db01a4e5ac7e1217f90e0b6e4bb0f75cbcca09160989.png",
                        "isERC1155": false,
                        "isERC721": false,
                        "sign": true,
                        "value": "204.0416364"
                    }
                ]
            }
        ]
    },
    "profile": {
        "basic_info": {
            "baseFee": "72.380442875",
            "blockNumber": 13482763,
            "callData": "0xa9059cbb0000000000000000000000004f6742badb049791cd9a37ea913f2bac38d01279000000000000000000000000000000000000000000000000000000000c28cb00",
            "debugEnable": true,
            "errorInfo": "",
            "eventCount": 1,
            "feeRecipient": "0xea674fdde714fd979de3edf0f56aa9716b898ec8",
            "formatValue": "0",
            "gasLimit": 84000,
            "gasPrice": "82.5",
            "gasUsed": 43713,
            "intTxnCount": 1,
            "internalRevert": false,
            "internalRevertMessage": "",
            "isContractCreation": false,
            "isFlashloan": false,
            "maxFee": "82.5",
            "nonce": 1,
            "overwritedBlockNumber": -1,
            "priorityFee": "82.5",
            "receiver": "0xa0b86991c6218b36c1d19d4a2e9eb0ce3606eb48",
            "revertMessage": "",
            "sender": "0x7838cc5362529f93fdcc7768eab26c8dbf08bb29",
            "simulationEnable": true,
            "sourceTxnHash": "0x359c0960aba5bb571800113fcc772a4630a220c74b48357f99fae73d467b9a1e",
            "status": true,
            "timestamp": "2021-10-24T22:11:46Z",
            "transactionFee": "0.0036063225",
            "txnHash": "0x359c0960aba5bb571800113fcc772a4630a220c74b48357f99fae73d467b9a1e",
            "txnIndex": 103,
            "type": 2,
            "value": "0"
        },
        "fund_flow": [
            {
                "amount": "204",
                "from": "0x7838cc5362529f93fdcc7768eab26c8dbf08bb29",
                "id": 1,
                "isERC1155": false,
                "isERC721": false,
                "isReverted": false,
                "order": 1,
                "to": "0x4f6742badb049791cd9a37ea913f2bac38d01279",
                "token": "0xa0b86991c6218b36c1d19d4a2e9eb0ce3606eb48"
            }
        ],
        "token_infos": [
            {
                "address": "0xeeeeeeeeeeeeeeeeeeeeeeeeeeeeeeeeeeeeeeee",
                "decimals": 18
            },
            {
                "address": "0xa0b86991c6218b36c1d19d4a2e9eb0ce3606eb48",
                "decimals": 6
            },
            {
                "address": "0xc02aaa39b223fe8d0a0e5c4f27ead9083c756cc2",
                "decimals": 18
            }
        ]
    },
    "address_label": {
        "labels": [
            {
                "address": "0x0000000000000000000000000000000000000004",
                "label": "Precompiled"
            },
            {
                "address": "0xeeeeeeeeeeeeeeeeeeeeeeeeeeeeeeeeeeeeeeee",
                "label": "Ether"
            },
            {
                "address": "0x4f6742badb049791cd9a37ea913f2bac38d01279",
                "label": "Celsius Network: Wallet 5"
            },
            {
                "address": "0xa2327a938febf5fec13bacfb16ae10ecbc4cbdcf",
                "label": "FiatTokenV2_1"
            },
            {
                "address": "0xa0b86991c6218b36c1d19d4a2e9eb0ce3606eb48",
                "label": "Circle: USDC Token"
            },
            {
                "address": "0x0000000000000000000000000000000000000001",
                "label": "Precompiled"
            },
            {
                "address": "0x0000000000000000000000000000000000000002",
                "label": "Precompiled"
            },
            {
                "address": "0x0000000000000000000000000000000000000003",
                "label": "Precompiled"
            }
        ]
    },
    "trace": {
        "accountLabels": null,
        "dataMap": {
            "-1": {
                "invocation": {
                    "address": "0x7838cc5362529f93fdcc7768eab26c8dbf08bb29",
                    "callData": "",
                    "decodedMethod": null,
                    "errorInfo": "",
                    "fromAddress": "",
                    "gasUsed": 0,
                    "id": -1,
                    "methodDecoded": false,
                    "operation": "",
                    "output": "",
                    "revert": false,
                    "revertMessage": "",
                    "selector": "",
                    "status": false,
                    "value": ""
                },
                "nodeType": 0
            },
            "0": {
                "invocation": {
                    "address": "0xa0b86991c6218b36c1d19d4a2e9eb0ce3606eb48",
                    "callData": "0x0000000000000000000000004f6742badb049791cd9a37ea913f2bac38d01279000000000000000000000000000000000000000000000000000000000c28cb00",
                    "decodedMethod": {
                        "callParams": [
                            {
                                "name": "to",
                                "type": "address",
                                "value": "0x4f6742badb049791cd9a37ea913f2bac38d01279"
                            },
                            {
                                "decimalAvailable": true,
                                "name": "value",
                                "type": "uint256",
                                "value": "204,000,000"
                            }
                        ],
                        "constructorArguments": "",
                        "name": "transfer",
                        "returnParams": [
                            {
                                "name": "",
                                "type": "bool",
                                "value": true
                            }
                        ],
                        "signature": "transfer(address,uint256)"
                    },
                    "errorInfo": "",
                    "fromAddress": "0x7838cc5362529f93fdcc7768eab26c8dbf08bb29",
                    "gasUsed": 43713,
                    "id": 0,
                    "methodDecoded": true,
                    "operation": "CALL",
                    "output": "0x0000000000000000000000000000000000000000000000000000000000000001",
                    "revert": false,
                    "revertMessage": "",
                    "selector": "0xa9059cbb",
                    "status": true,
                    "value": "0"
                },
                "nodeType": 0
            },
            "1": {
                "invocation": {
                    "address": "0xa2327a938febf5fec13bacfb16ae10ecbc4cbdcf",
                    "callData": "0x0000000000000000000000004f6742badb049791cd9a37ea913f2bac38d01279000000000000000000000000000000000000000000000000000000000c28cb00",
                    "decodedMethod": {
                        "callParams": [
                            {
                                "name": "to",
                                "type": "address",
                                "value": "0x4f6742badb049791cd9a37ea913f2bac38d01279"
                            },
                            {
                                "decimalAvailable": true,
                                "name": "value",
                                "type": "uint256",
                                "value": "204,000,000"
                            }
                        ],
                        "constructorArguments": "",
                        "name": "transfer",
                        "returnParams": [
                            {
                                "name": "",
                                "type": "bool",
                                "value": true
                            }
                        ],
                        "signature": "transfer(address,uint256)"
                    },
                    "errorInfo": "",
                    "fromAddress": "0xa0b86991c6218b36c1d19d4a2e9eb0ce3606eb48",
                    "gasUsed": 19628,
                    "id": 1,
                    "methodDecoded": true,
                    "operation": "DELEGATECALL",
                    "output": "0x0000000000000000000000000000000000000000000000000000000000000001",
                    "revert": false,
                    "revertMessage": "",
                    "selector": "0xa9059cbb",
                    "status": true,
                    "value": "0"
                },
                "nodeType": 0
            },
            "2": {
                "event": {
                    "contract": "0xa0b86991c6218b36c1d19d4a2e9eb0ce3606eb48",
                    "decodedLog": {
                        "name": "Transfer",
                        "params": [
                            {
                                "name": "from",
                                "type": "address",
                                "value": "0x7838cc5362529f93fdcc7768eab26c8dbf08bb29"
                            },
                            {
                                "name": "to",
                                "type": "address",
                                "value": "0x4f6742badb049791cd9a37ea913f2bac38d01279"
                            },
                            {
                                "decimalAvailable": true,
                                "name": "value",
                                "type": "uint256",
                                "value": "204,000,000"
                            }
                        ],
                        "signature": "Transfer(address,address,uint256)"
                    },
                    "id": 2,
                    "logData": "0x000000000000000000000000000000000000000000000000000000000c28cb00",
                    "logDecoded": true,
                    "operation": "EVENT",
                    "revert": false,
                    "status": true,
                    "topics": [
                        "0xddf252ad1be2c89b69c2b068fc378daa952ba7f163c4a11628f55a4df523b3ef",
                        "0x0000000000000000000000007838cc5362529f93fdcc7768eab26c8dbf08bb29",
                        "0x0000000000000000000000004f6742badb049791cd9a37ea913f2bac38d01279"
                    ]
                },
                "nodeType": 1
            }
        },
        "gasFlame": [
            {
                "children": [
                    {
                        "children": [
                            {
                                "children": [],
                                "depth": 0,
                                "name": "Initial Gas",
                                "value": 21596
                            },
                            {
                                "children": [
                                    {
                                        "children": [],
                                        "depth": 1,
                                        "name": "transfer",
                                        "value": 19628
                                    }
                                ],
                                "depth": 0,
                                "name": "Executed Gas",
                                "value": 26917
                            }
                        ],
                        "depth": -1,
                        "name": "Actual Gas Used",
                        "value": 43713
                    },
                    {
                        "children": [],
                        "depth": -1,
                        "name": "Refunded Gas",
                        "value": 4800
                    }
                ],
                "depth": -2,
                "name": "Total Gas",
                "value": 48513
            }
        ],
        "isConfirmed": true,
        "mainTrace": [
            {
                "children": [
                    {
                        "children": [
                            {
                                "children": [
                                    {
                                        "children": [],
                                        "depth": 2,
                                        "id": 2,
                                        "order": 2
                                    }
                                ],
                                "depth": 1,
                                "id": 1,
                                "order": 1
                            }
                        ],
                        "depth": 0,
                        "id": 0,
                        "order": 0
                    }
                ],
                "depth": -1,
                "id": -1,
                "order": -1
            }
        ],
        "mainTraceNodeCount": 3,
        "parentIdMap": {
            "0": -1,
            "1": 0,
            "2": 1
        },
        "tidyTrace": [
            {
                "children": [
                    {
                        "children": [
                            {
                                "children": [
                                    {
                                        "children": [],
                                        "depth": 2,
                                        "id": 2,
                                        "order": 2
                                    }
                                ],
                                "depth": 1,
                                "id": 1,
                                "order": 1
                            }
                        ],
                        "depth": 0,
                        "id": 0,
                        "order": 0
                    }
                ],
                "depth": -1,
                "id": -1,
                "order": -1
            }
        ],
        "tidyTraceNodeCount": 3
    },
    "state_change": {
        "stateChanges": [
            {
                "address": "0xa0b86991c6218b36c1d19d4a2e9eb0ce3606eb48",
                "erc": "ERC-20",
                "slots": [
                    {
                        "current": "0x0000000000000000000000000000000000000000000000000000000000000000",
                        "key": "0x5c4a06aadd4ec175bd16e29151a1cdf8985ce79a0d365bfcdac5b1535b20a9b3",
                        "prev": "0x000000000000000000000000000000000000000000000000000000000c28cb00"
                    },
                    {
                        "current": "0x00000000000000000000000000000000000000000000000000000355bf60749e",
                        "key": "0x846877bcaff3dfb31f8b0ecff474e482e86dfa71fb3a26a9e3dadd3eea1e02fa",
                        "prev": "0x00000000000000000000000000000000000000000000000000000355b337a99e"
                    }
                ],
                "storageVariables": [
                    {
                        "name": "balances",
                        "type": "mapping(address => uint256)",
                        "value": {
                            "pairs": [
                                {
                                    "key": "0x4f6742badb049791cd9a37ea913f2bac38d01279",
                                    "value": {
                                        "current": "3666817873054",
                                        "prev": "3666613873054",
                                        "typeTag": 1
                                    }
                                },
                                {
                                    "key": "0x7838cc5362529f93fdcc7768eab26c8dbf08bb29",
                                    "value": {
                                        "current": "0",
                                        "prev": "204000000",
                                        "typeTag": 1
                                    }
                                }
                            ],
                            "typeTag": 4
                        }
                    }
                ]
            }
        ]
    }
}