{
    "balance_change": {
        "balanceChanges": [
            {
                "account": "0x956ea807b122afa75993d04e5e9c0180c2482c3d",
                "assets": [
                    {
                        "address": "0xeeeeeeeeeeeeeeeeeeeeeeeeeeeeeeeeeeeeeeee",
                        "amount": "0.050349289750761351",
                        "iconUrl": "https://assets.blocksec.com/image/1663669189317-3.png",
                        "isERC1155": false,
                        "isERC721": false,
                        "sign": true,
                        "value": "156.08371961700243413"
                    },
                    {
                        "address": "0x5b4d99e890e5210b88b4ef4c84cc2b92791c4d86",
                        "amount": "3,263,158,619,311.648967062",
                        "iconUrl": "",
                        "isERC1155": false,
                        "isERC721": false,
                        "sign": false,
                        "value": "162.2985927"
                    }
                ]
            },
            {
                "account": "0x2ec705d306b51e486b1bc0d6ebee708e0661add1",
                "assets": [
                    {
                        "address": "0xeeeeeeeeeeeeeeeeeeeeeeeeeeeeeeeeeeeeeeee",
                        "amount": "0.000000000000000001",
                        "iconUrl": "https://assets.blocksec.com/image/1663669189317-3.png",
                        "isERC1155": false,
                        "isERC721": false,
                        "sign": true,
                        "value": "0.000000000000003100018300000000181"
                    }
                ]
            },
            {
                "account": "0x6ca3625ae087537624ee9c3c03337add606d909c",
                "assets": [
                    {
                        "address": "0x5b4d99e890e5210b88b4ef4c84cc2b92791c4d86",
                        "amount": "3,263,158,619,311.648967062",
                        "iconUrl": "",
                        "isERC1155": false,
                        "isERC721": false,
                        "sign": true,
                        "value": "162.2985927"
                    },
                    {
                        "address": "0xc02aaa39b223fe8d0a0e5c4f27ead9083c756cc2",
                        "amount": "0.050857868435112476",
                        "iconUrl": "https://assets.blocksec.com/icon/f1cb2d02c471d545bbc7722daf3277fd852d98e63d118771af7047bd8256c516.png",
                        "isERC1155": false,
                        "isERC721": false,
                        "sign": false,
                        "value": "157.66032286299246122"
                    }
                ]
            },
            {
                "account": "0xc02aaa39b223fe8d0a0e5c4f27ead9083c756cc2",
                "assets": [
                    {
                        "address": "0xc02aaa39b223fe8d0a0e5c4f27ead9083c756cc2",
                        "amount": "0.050857868435112476",
                        "iconUrl": "https://assets.blocksec.com/icon/f1cb2d02c471d545bbc7722daf3277fd852d98e63d118771af7047bd8256c516.png",
                        "isERC1155": false,
                        "isERC721": false,
                        "sign": true,
                        "value": "157.66032286299246122"
                    },
                    {
                        "address": "0xeeeeeeeeeeeeeeeeeeeeeeeeeeeeeeeeeeeeeeee",
                        "amount": "0.050857868435112476",
                        "iconUrl": "https://assets.blocksec.com/image/1663669189317-3.png",
                        "isERC1155": false,
                        "isERC721": false,
                        "sign": false,
                        "value": "157.66032286299246122"
                    }
                ]
            },
            {
                "account": "0xfbfb42376ae89fccbde308c554bf55971d3433c7",
                "assets": [
                    {
                        "address": "0xeeeeeeeeeeeeeeeeeeeeeeeeeeeeeeeeeeeeeeee",
                        "amount": "0.000508578684351124",
                        "iconUrl": "https://assets.blocksec.com/image/1663669189317-3.png",
                        "isERC1155": false,
                        "isERC721": false,
                        "sign": true,
                        "value": "1.5766032286299246121"
                    }
                ]
            }
        ]
    },
    "profile": {
        "basic_info": {
            "baseFee": "5.267406286",
            "blockNumber": 20285133,
            "callData": "0x18cbafe50000000000000000000000000000000000000000000000b0e56c434f00f6899600000000000000000000000000000000000000000000000000a086f66a218bab00000000000000000000000000000000000000000000000000000000000000a0000000000000000000000000956ea807b122afa75993d04e5e9c0180c2482c3d0000000000000000000000000000000000000000000000000000000066902ea300000000000000000000000000000000000000000000000000000000000000020000000000000000000000005b4d99e890e5210b88b4ef4c84cc2b92791c4d86000000000000000000000000c02aaa39b223fe8d0a0e5c4f27ead9083c756cc2",
            "debugEnable": true,
            "errorInfo": "",
            "eventCount": 6,
            "feeRecipient": "0x4838b106fce9647bdf1e7877bf73ce8b0bad5f97",
            "formatValue": "0",
            "gasLimit": 219800,
            "gasPrice": "7.227406286",
            "gasUsed": 140451,
            "intTxnCount": 10,
            "internalRevert": false,
            "internalRevertMessage": "",
            "isContractCreation": false,
            "isFlashloan": false,
            "maxFee": "10.649727326",
            "nonce": 6232,
            "overwritedBlockNumber": -1,
            "priorityFee": "1.96",
            "receiver": "0x2ec705d306b51e486b1bc0d6ebee708e0661add1",
            "revertMessage": "",
            "sender": "0x956ea807b122afa75993d04e5e9c0180c2482c3d",
            "simulationEnable": true,
            "sourceTxnHash": "0x3542e3f4ee42c8b77eec7b25d3545d2c67703ad581188a284f6884e84ab5a6d5",
            "status": true,
            "timestamp": "2024-07-11T18:43:23Z",
            "transactionFee": "0.001015096440274986",
            "txnHash": "0x3542e3f4ee42c8b77eec7b25d3545d2c67703ad581188a284f6884e84ab5a6d5",
            "txnIndex": 31,
            "type": 2,
            "value": "0"
        },
        "fund_flow": [
            {
                "amount": "3,263,158,619,311.648967062",
                "from": "0x956ea807b122afa75993d04e5e9c0180c2482c3d",
                "id": 1,
                "isERC1155": false,
                "isERC721": false,
                "isReverted": false,
                "order": 1,
                "to": "0x6ca3625ae087537624ee9c3c03337add606d909c",
                "token": "0x5b4d99e890e5210b88b4ef4c84cc2b92791c4d86"
            },
            {
                "amount": "0.050857868435112476",
                "from": "0x6ca3625ae087537624ee9c3c03337add606d909c",
                "id": 2,
                "isERC1155": false,
                "isERC721": false,
                "isReverted": false,
                "order": 2,
                "to": "0x2ec705d306b51e486b1bc0d6ebee708e0661add1",
                "token": "0xc02aaa39b223fe8d0a0e5c4f27ead9083c756cc2"
            },
            {
                "amount": "0.050857868435112476",
                "from": "0xc02aaa39b223fe8d0a0e5c4f27ead9083c756cc2",
                "id": 3,
                "isERC1155": false,
                "isERC721": false,
                "isReverted": false,
                "order": 3,
                "to": "0x2ec705d306b51e486b1bc0d6ebee708e0661add1",
                "token": "0xeeeeeeeeeeeeeeeeeeeeeeeeeeeeeeeeeeeeeeee"
            },
            {
                "amount": "0.050857868435112476",
                "from": "0x2ec705d306b51e486b1bc0d6ebee708e0661add1",
                "id": 4,
                "isERC1155": false,
                "isERC721": false,
                "isReverted": false,
                "order": 4,
                "to": "0xc02aaa39b223fe8d0a0e5c4f27ead9083c756cc2",
                "token": "0xc02aaa39b223fe8d0a0e5c4f27ead9083c756cc2"
            },
            {
                "amount": "0.000508578684351124",
                "from": "0x2ec705d306b51e486b1bc0d6ebee708e0661add1",
                "id": 5,
                "isERC1155": false,
                "isERC721": false,
                "isReverted": false,
                "order": 5,
                "to": "0xfbfb42376ae89fccbde308c554bf55971d3433c7",
                "token": "0xeeeeeeeeeeeeeeeeeeeeeeeeeeeeeeeeeeeeeeee"
            },
            {
                "amount": "0.050349289750761351",
                "from": "0x2ec705d306b51e486b1bc0d6ebee708e0661add1",
                "id": 6,
                "isERC1155": false,
                "isERC721": false,
                "isReverted": false,
                "order": 6,
                "to": "0x956ea807b122afa75993d04e5e9c0180c2482c3d",
                "token": "0xeeeeeeeeeeeeeeeeeeeeeeeeeeeeeeeeeeeeeeee"
            }
        ],
        "token_infos": [
            {
                "address": "0xc02aaa39b223fe8d0a0e5c4f27ead9083c756cc2",
                "decimals": 18
            },
            {
                "address": "0xeeeeeeeeeeeeeeeeeeeeeeeeeeeeeeeeeeeeeeee",
                "decimals": 18
            },
            {
                "address": "0x5b4d99e890e5210b88b4ef4c84cc2b92791c4d86",
                "decimals": 9
            }
        ]
    },
    "address_label": {
        "labels": [
            {
                "address": "0x6ca3625ae087537624ee9c3c03337add606d909c",
                "label": "UNI-V2"
            },
            {
                "address": "0x0000000000000000000000000000000000000001",
                "label": "Precompiled"
            },
            {
                "address": "0x0000000000000000000000000000000000000002",
                "label": "Precompiled"
            },
            {
                "address": "0x0000000000000000000000000000000000000003",
                "label": "Precompiled"
            },
            {
                "address": "0x0000000000000000000000000000000000000004",
                "label": "Precompiled"
            },
            {
                "address": "0xeeeeeeeeeeeeeeeeeeeeeeeeeeeeeeeeeeeeeeee",
                "label": "Ether"
            },
            {
                "address": "0xc02aaa39b223fe8d0a0e5c4f27ead9083c756cc2",
                "label": "Wrapped Ether (WETH)"
            },
            {
                "address": "0x5b4d99e890e5210b88b4ef4c84cc2b92791c4d86",
                "label": "GRAPE"
            }
        ]
    },
    "trace": {
        "accountLabels": null,
        "dataMap": {
            "-1": {
                "invocation": {
                    "address": "0x956ea807b122afa75993d04e5e9c0180c2482c3d",
                    "callData": "",
                    "decodedMethod": null,
                    "errorInfo": "",
                    "fromAddress": "",
                    "gasUsed": 0,
                    "id": -1,
                    "methodDecoded": false,
                    "operation": "",
                    "output": "",
                    "revert": false,
                    "revertMessage": "",
                    "selector": "",
                    "status": false,
                    "value": ""
                },
                "nodeType": 0
            },
            "0": {
                "invocation": {
                    "address": "0x2ec705d306b51e486b1bc0d6ebee708e0661add1",
                    "callData": "0x0000000000000000000000000000000000000000000000b0e56c434f00f6899600000000000000000000000000000000000000000000000000a086f66a218bab00000000000000000000000000000000000000000000000000000000000000a0000000000000000000000000956ea807b122afa75993d04e5e9c0180c2482c3d0000000000000000000000000000000000000000000000000000000066902ea300000000000000000000000000000000000000000000000000000000000000020000000000000000000000005b4d99e890e5210b88b4ef4c84cc2b92791c4d86000000000000000000000000c02aaa39b223fe8d0a0e5c4f27ead9083c756cc2",
                    "decodedMethod": {
                        "callParams": [
                            {
                                "name": "amountIn",
                                "type": "uint256",
                                "value": "3,263,158,619,311,648,967,062"
                            },
                            {
                                "name": "amountOutMin",
                                "type": "uint256",
                                "value": "45,184,389,174,365,099"
                            },
                            {
                                "name": "path",
                                "type": "address[]",
                                "value": [
                                    "0x5b4d99e890e5210b88b4ef4c84cc2b92791c4d86",
                                    "0xc02aaa39b223fe8d0a0e5c4f27ead9083c756cc2"
                                ]
                            },
                            {
                                "name": "to",
                                "type": "address",
                                "value": "0x956ea807b122afa75993d04e5e9c0180c2482c3d"
                            },
                            {
                                "name": "deadline",
                                "type": "uint256",
                                "value": "1,720,725,155"
                            }
                        ],
                        "constructorArguments": "",
                        "name": "swapExactTokensForETH",
                        "returnParams": [
                            {
                                "name": "amounts",
                                "type": "uint256[]",
                                "value": [
                                    "3,263,158,619,311,648,967,062",
                                    "50,857,868,435,112,476"
                                ]
                            }
                        ],
                        "signature": "swapExactTokensForETH(uint256,uint256,address[],address,uint256)"
                    },
                    "errorInfo": "",
                    "fromAddress": "0x956ea807b122afa75993d04e5e9c0180c2482c3d",
                    "gasUsed": 140451,
                    "id": 0,
                    "methodDecoded": true,
                    "operation": "CALL",
                    "output": "0x000000000000000000000000000000000000000000000000000000000000002000000000000000000000000000000000000000000000000000000000000000020000000000000000000000000000000000000000000000b0e56c434f00f6899600000000000000000000000000000000000000000000000000b4aef63e1bc21c",
                    "revert": false,
                    "revertMessage": "",
                    "selector": "0x18cbafe5",
                    "status": true,
                    "value": "0"
                },
                "nodeType": 0
            },
            "1": {
                "invocation": {
                    "address": "0x6ca3625ae087537624ee9c3c03337add606d909c",
                    "callData": "0x",
                    "decodedMethod": {
                        "callParams": [],
                        "constructorArguments": "",
                        "name": "getReserves",
                        "returnParams": [
                            {
                                "name": "_reserve0",
                                "type": "uint112",
                                "value": "143,241,414,466,618,944,222,164"
                            },
                            {
                                "name": "_reserve1",
                                "type": "uint112",
                                "value": "2,290,060,581,124,874,281"
                            },
                            {
                                "name": "_blockTimestampLast",
                                "type": "uint32",
                                "value": "1,720,723,403"
                            }
                        ],
                        "signature": "getReserves()"
                    },
                    "errorInfo": "",
                    "fromAddress": "0x2ec705d306b51e486b1bc0d6ebee708e0661add1",
                    "gasUsed": 2504,
                    "id": 1,
                    "methodDecoded": true,
                    "operation": "STATICCALL",
                    "output": "0x000000000000000000000000000000000000000000001e5521f48bd999f173d40000000000000000000000000000000000000000000000001fc7edf71c12a02900000000000000000000000000000000000000000000000000000000669027cb",
                    "revert": false,
                    "revertMessage": "",
                    "selector": "0x0902f1ac",
                    "status": true,
                    "value": "0"
                },
                "nodeType": 0
            },
            "10": {
                "event": {
                    "contract": "0x6ca3625ae087537624ee9c3c03337add606d909c",
                    "decodedLog": {
                        "name": "Sync",
                        "params": [
                            {
                                "name": "reserve0",
                                "type": "uint112",
                                "value": "146,504,573,085,930,593,189,226"
                            },
                            {
                                "name": "reserve1",
                                "type": "uint112",
                                "value": "2,239,202,712,689,761,805"
                            }
                        ],
                        "signature": "Sync(uint112,uint112)"
                    },
                    "id": 10,
                    "logData": "0x000000000000000000000000000000000000000000001f060760cf289ae7fd6a0000000000000000000000000000000000000000000000001f133f00ddf6de0d",
                    "logDecoded": true,
                    "operation": "EVENT",
                    "revert": false,
                    "status": true,
                    "topics": [
                        "0x1c411e9a96e071241c2f21f7726b17ae89e3cab4c78be50e062b03a9fffbbad1"
                    ]
                },
                "nodeType": 1
            },
            "11": {
                "event": {
                    "contract": "0x6ca3625ae087537624ee9c3c03337add606d909c",
                    "decodedLog": {
                        "name": "Swap",
                        "params": [
                            {
                                "name": "sender",
                                "type": "address",
                                "value": "0x2ec705d306b51e486b1bc0d6ebee708e0661add1"
                            },
                            {
                                "name": "to",
                                "type": "address",
                                "value": "0x2ec705d306b51e486b1bc0d6ebee708e0661add1"
                            },
                            {
                                "name": "amount0In",
                                "type": "uint256",
                                "value": "3,263,158,619,311,648,967,062"
                            },
                            {
                                "name": "amount1In",
                                "type": "uint256",
                                "value": "0"
                            },
                            {
                                "name": "amount0Out",
                                "type": "uint256",
                                "value": "0"
                            },
                            {
                                "name": "amount1Out",
                                "type": "uint256",
                                "value": "50,857,868,435,112,476"
                            }
                        ],
                        "signature": "Swap(address,uint256,uint256,uint256,uint256,address)"
                    },
                    "id": 11,
                    "logData": "0x0000000000000000000000000000000000000000000000b0e56c434f00f689960000000000000000000000000000000000000000000000000000000000000000000000000000000000000000000000000000000000000000000000000000000000000000000000000000000000000000000000000000000000b4aef63e1bc21c",
                    "logDecoded": true,
                    "operation": "EVENT",
                    "revert": false,
                    "status": true,
                    "topics": [
                        "0xd78ad95fa46c994b6551d0da85fc275fe613ce37657fb8d5e3d130840159d822",
                        "0x0000000000000000000000002ec705d306b51e486b1bc0d6ebee708e0661add1",
                        "0x0000000000000000000000002ec705d306b51e486b1bc0d6ebee708e0661add1"
                    ]
                },
                "nodeType": 1
            },
            "12": {
                "invocation": {
                    "address": "0xc02aaa39b223fe8d0a0e5c4f27ead9083c756cc2",
                    "callData": "0x00000000000000000000000000000000000000000000000000b4aef63e1bc21c",
                    "decodedMethod": {
                        "callParams": [
                            {
                                "name": "wad",
                                "type": "uint256",
                                "value": "50,857,868,435,112,476"
                            }
                        ],
                        "constructorArguments": "",
                        "name": "withdraw",
                        "returnParams": [],
                        "signature": "withdraw(uint256)"
                    },
                    "errorInfo": "",
                    "fromAddress": "0x2ec705d306b51e486b1bc0d6ebee708e0661add1",
                    "gasUsed": 9235,
                    "id": 12,
                    "methodDecoded": true,
                    "operation": "CALL",
                    "output": "",
                    "revert": false,
                    "revertMessage": "",
                    "selector": "0x2e1a7d4d",
                    "status": true,
                    "value": "0"
                },
                "nodeType": 0
            },
            "13": {
                "invocation": {
                    "address": "0x2ec705d306b51e486b1bc0d6ebee708e0661add1",
                    "callData": "0x",
                    "decodedMethod": null,
                    "errorInfo": "",
                    "fromAddress": "0xc02aaa39b223fe8d0a0e5c4f27ead9083c756cc2",
                    "gasUsed": 95,
                    "id": 13,
                    "methodDecoded": false,
                    "operation": "CALL",
                    "output": "",
                    "revert": false,
                    "revertMessage": "",
                    "selector": "fallback",
                    "status": true,
                    "value": "0.050857868435112476"
                },
                "nodeType": 0
            },
            "14": {
                "event": {
                    "contract": "0xc02aaa39b223fe8d0a0e5c4f27ead9083c756cc2",
                    "decodedLog": {
                        "name": "Withdrawal",
                        "params": [
                            {
                                "name": "src",
                                "type": "address",
                                "value": "0x2ec705d306b51e486b1bc0d6ebee708e0661add1"
                            },
                            {
                                "name": "wad",
                                "type": "uint256",
                                "value": "50,857,868,435,112,476"
                            }
                        ],
                        "signature": "Withdrawal(address,uint256)"
                    },
                    "id": 14,
                    "logData": "0x00000000000000000000000000000000000000000000000000b4aef63e1bc21c",
                    "logDecoded": true,
                    "operation": "EVENT",
                    "revert": false,
                    "status": true,
                    "topics": [
                        "0x7fcf532c15f0a6db0bd6d0e038bea71d30d808c7d98cb3bf7268a95bf5081b65",
                        "0x0000000000000000000000002ec705d306b51e486b1bc0d6ebee708e0661add1"
                    ]
                },
                "nodeType": 1
            },
            "15": {
                "invocation": {
                    "address": "0xfbfb42376ae89fccbde308c554bf55971d3433c7",
                    "callData": "0x",
                    "decodedMethod": null,
                    "errorInfo": "",
                    "fromAddress": "0x2ec705d306b51e486b1bc0d6ebee708e0661add1",
                    "gasUsed": 0,
                    "id": 15,
                    "methodDecoded": false,
                    "operation": "CALL",
                    "output": "",
                    "revert": false,
                    "revertMessage": "",
                    "selector": "fallback",
                    "status": true,
                    "value": "0.000508578684351124"
                },
                "nodeType": 0
            },
            "16": {
                "invocation": {
                    "address": "0x956ea807b122afa75993d04e5e9c0180c2482c3d",
                    "callData": "0x",
                    "decodedMethod": null,
                    "errorInfo": "",
                    "fromAddress": "0x2ec705d306b51e486b1bc0d6ebee708e0661add1",
                    "gasUsed": 0,
                    "id": 16,
                    "methodDecoded": false,
                    "operation": "CALL",
                    "output": "",
                    "revert": false,
                    "revertMessage": "",
                    "selector": "fallback",
                    "status": true,
                    "value": "0.050349289750761351"
                },
                "nodeType": 0
            },
            "2": {
                "invocation": {
                    "address": "0x5b4d99e890e5210b88b4ef4c84cc2b92791c4d86",
                    "callData": "0x000000000000000000000000956ea807b122afa75993d04e5e9c0180c2482c3d0000000000000000000000006ca3625ae087537624ee9c3c03337add606d909c0000000000000000000000000000000000000000000000b0e56c434f00f68996",
                    "decodedMethod": {
                        "callParams": [
                            {
                                "name": "sender",
                                "type": "address",
                                "value": "0x956ea807b122afa75993d04e5e9c0180c2482c3d"
                            },
                            {
                                "name": "recipient",
                                "type": "address",
                                "value": "0x6ca3625ae087537624ee9c3c03337add606d909c"
                            },
                            {
                                "decimalAvailable": true,
                                "name": "amount",
                                "type": "uint256",
                                "value": "3,263,158,619,311,648,967,062"
                            }
                        ],
                        "constructorArguments": "",
                        "name": "transferFrom",
                        "returnParams": [
                            {
                                "name": "",
                                "type": "bool",
                                "value": true
                            }
                        ],
                        "signature": "transferFrom(address,address,uint256)"
                    },
                    "errorInfo": "",
                    "fromAddress": "0x2ec705d306b51e486b1bc0d6ebee708e0661add1",
                    "gasUsed": 44886,
                    "id": 2,
                    "methodDecoded": true,
                    "operation": "CALL",
                    "output": "0x0000000000000000000000000000000000000000000000000000000000000001",
                    "revert": false,
                    "revertMessage": "",
                    "selector": "0x23b872dd",
                    "status": true,
                    "value": "0"
                },
                "nodeType": 0
            },
            "3": {
                "event": {
                    "contract": "0x5b4d99e890e5210b88b4ef4c84cc2b92791c4d86",
                    "decodedLog": {
                        "name": "Transfer",
                        "params": [
                            {
                                "name": "from",
                                "type": "address",
                                "value": "0x956ea807b122afa75993d04e5e9c0180c2482c3d"
                            },
                            {
                                "name": "to",
                                "type": "address",
                                "value": "0x6ca3625ae087537624ee9c3c03337add606d909c"
                            },
                            {
                                "decimalAvailable": true,
                                "name": "value",
                                "type": "uint256",
                                "value": "3,263,158,619,311,648,967,062"
                            }
                        ],
                        "signature": "Transfer(address,address,uint256)"
                    },
                    "id": 3,
                    "logData": "0x0000000000000000000000000000000000000000000000b0e56c434f00f68996",
                    "logDecoded": true,
                    "operation": "EVENT",
                    "revert": false,
                    "status": true,
                    "topics": [
                        "0xddf252ad1be2c89b69c2b068fc378daa952ba7f163c4a11628f55a4df523b3ef",
                        "0x000000000000000000000000956ea807b122afa75993d04e5e9c0180c2482c3d",
                        "0x0000000000000000000000006ca3625ae087537624ee9c3c03337add606d909c"
                    ]
                },
                "nodeType": 1
            },
            "4": {
                "event": {
                    "contract": "0x5b4d99e890e5210b88b4ef4c84cc2b92791c4d86",
                    "decodedLog": {
                        "name": "Approval",
                        "params": [
                            {
                                "name": "owner",
                                "type": "address",
                                "value": "0x956ea807b122afa75993d04e5e9c0180c2482c3d"
                            },
                            {
                                "name": "spender",
                                "type": "address",
                                "value": "0x2ec705d306b51e486b1bc0d6ebee708e0661add1"
                            },
                            {
                                "decimalAvailable": true,
                                "name": "value",
                                "type": "uint256",
                                "value": "0"
                            }
                        ],
                        "signature": "Approval(address,address,uint256)"
                    },
                    "id": 4,
                    "logData": "0x0000000000000000000000000000000000000000000000000000000000000000",
                    "logDecoded": true,
                    "operation": "EVENT",
                    "revert": false,
                    "status": true,
                    "topics": [
                        "0x8c5be1e5ebec7d5bd14f71427d1e84f3dd0314c0f7b2291e5b200ac8c7c3b925",
                        "0x000000000000000000000000956ea807b122afa75993d04e5e9c0180c2482c3d",
                        "0x0000000000000000000000002ec705d306b51e486b1bc0d6ebee708e0661add1"
                    ]
                },
                "nodeType": 1
            },
            "5": {
                "invocation": {
                    "address": "0x6ca3625ae087537624ee9c3c03337add606d909c",
                    "callData": "0x000000000000000000000000000000000000000000000000000000000000000000000000000000000000000000000000000000000000000000b4aef63e1bc21c0000000000000000000000002ec705d306b51e486b1bc0d6ebee708e0661add100000000000000000000000000000000000000000000000000000000000000800000000000000000000000000000000000000000000000000000000000000000",
                    "decodedMethod": {
                        "callParams": [
                            {
                                "name": "amount0Out",
                                "type": "uint256",
                                "value": "0"
                            },
                            {
                                "name": "amount1Out",
                                "type": "uint256",
                                "value": "50,857,868,435,112,476"
                            },
                            {
                                "name": "to",
                                "type": "address",
                                "value": "0x2ec705d306b51e486b1bc0d6ebee708e0661add1"
                            },
                            {
                                "name": "data",
                                "type": "bytes",
                                "value": "0x"
                            }
                        ],
                        "constructorArguments": "",
                        "name": "swap",
                        "returnParams": [],
                        "signature": "swap(uint256,uint256,address,bytes)"
                    },
                    "errorInfo": "",
                    "fromAddress": "0x2ec705d306b51e486b1bc0d6ebee708e0661add1",
                    "gasUsed": 54454,
                    "id": 5,
                    "methodDecoded": true,
                    "operation": "CALL",
                    "output": "",
                    "revert": false,
                    "revertMessage": "",
                    "selector": "0x022c0d9f",
                    "status": true,
                    "value": "0"
                },
                "nodeType": 0
            },
            "6": {
                "invocation": {
                    "address": "0xc02aaa39b223fe8d0a0e5c4f27ead9083c756cc2",
                    "callData": "0x0000000000000000000000002ec705d306b51e486b1bc0d6ebee708e0661add100000000000000000000000000000000000000000000000000b4aef63e1bc21c",
                    "decodedMethod": {
                        "callParams": [
                            {
                                "name": "dst",
                                "type": "address",
                                "value": "0x2ec705d306b51e486b1bc0d6ebee708e0661add1"
                            },
                            {
                                "decimalAvailable": true,
                                "name": "wad",
                                "type": "uint256",
                                "value": "50,857,868,435,112,476"
                            }
                        ],
                        "constructorArguments": "",
                        "name": "transfer",
                        "returnParams": [
                            {
                                "name": "",
                                "type": "bool",
                                "value": true
                            }
                        ],
                        "signature": "transfer(address,uint256)"
                    },
                    "errorInfo": "",
                    "fromAddress": "0x6ca3625ae087537624ee9c3c03337add606d909c",
                    "gasUsed": 29962,
                    "id": 6,
                    "methodDecoded": true,
                    "operation": "CALL",
                    "output": "0x0000000000000000000000000000000000000000000000000000000000000001",
                    "revert": false,
                    "revertMessage": "",
                    "selector": "0xa9059cbb",
                    "status": true,
                    "value": "0"
                },
                "nodeType": 0
            },
            "7": {
                "event": {
                    "contract": "0xc02aaa39b223fe8d0a0e5c4f27ead9083c756cc2",
                    "decodedLog": {
                        "name": "Transfer",
                        "params": [
                            {
                                "name": "src",
                                "type": "address",
                                "value": "0x6ca3625ae087537624ee9c3c03337add606d909c"
                            },
                            {
                                "name": "dst",
                                "type": "address",
                                "value": "0x2ec705d306b51e486b1bc0d6ebee708e0661add1"
                            },
                            {
                                "decimalAvailable": true,
                                "name": "wad",
                                "type": "uint256",
                                "value": "50,857,868,435,112,476"
                            }
                        ],
                        "signature": "Transfer(address,address,uint256)"
                    },
                    "id": 7,
                    "logData": "0x00000000000000000000000000000000000000000000000000b4aef63e1bc21c",
                    "logDecoded": true,
                    "operation": "EVENT",
                    "revert": false,
                    "status": true,
                    "topics": [
                        "0xddf252ad1be2c89b69c2b068fc378daa952ba7f163c4a11628f55a4df523b3ef",
                        "0x0000000000000000000000006ca3625ae087537624ee9c3c03337add606d909c",
                        "0x0000000000000000000000002ec705d306b51e486b1bc0d6ebee708e0661add1"
                    ]
                },
                "nodeType": 1
            },
            "8": {
                "invocation": {
                    "address": "0x5b4d99e890e5210b88b4ef4c84cc2b92791c4d86",
                    "callData": "0x0000000000000000000000006ca3625ae087537624ee9c3c03337add606d909c",
                    "decodedMethod": {
                        "callParams": [
                            {
                                "name": "account",
                                "type": "address",
                                "value": "0x6ca3625ae087537624ee9c3c03337add606d909c"
                            }
                        ],
                        "constructorArguments": "",
                        "name": "balanceOf",
                        "returnParams": [
                            {
                                "decimalAvailable": true,
                                "name": "",
                                "type": "uint256",
                                "value": "146,504,573,085,930,593,189,226"
                            }
                        ],
                        "signature": "balanceOf(address)"
                    },
                    "errorInfo": "",
                    "fromAddress": "0x6ca3625ae087537624ee9c3c03337add606d909c",
                    "gasUsed": 551,
                    "id": 8,
                    "methodDecoded": true,
                    "operation": "STATICCALL",
                    "output": "0x000000000000000000000000000000000000000000001f060760cf289ae7fd6a",
                    "revert": false,
                    "revertMessage": "",
                    "selector": "0x70a08231",
                    "status": true,
                    "value": "0"
                },
                "nodeType": 0
            },
            "9": {
                "invocation": {
                    "address": "0xc02aaa39b223fe8d0a0e5c4f27ead9083c756cc2",
                    "callData": "0x0000000000000000000000006ca3625ae087537624ee9c3c03337add606d909c",
                    "decodedMethod": {
                        "callParams": [
                            {
                                "name": "",
                                "type": "address",
                                "value": "0x6ca3625ae087537624ee9c3c03337add606d909c"
                            }
                        ],
                        "constructorArguments": "",
                        "name": "balanceOf",
                        "returnParams": [
                            {
                                "decimalAvailable": true,
                                "name": "",
                                "type": "uint256",
                                "value": "2,239,202,712,689,761,805"
                            }
                        ],
                        "signature": "balanceOf(address)"
                    },
                    "errorInfo": "",
                    "fromAddress": "0x6ca3625ae087537624ee9c3c03337add606d909c",
                    "gasUsed": 534,
                    "id": 9,
                    "methodDecoded": true,
                    "operation": "STATICCALL",
                    "output": "0x0000000000000000000000000000000000000000000000001f133f00ddf6de0d",
                    "revert": false,
                    "revertMessage": "",
                    "selector": "0x70a08231",
                    "status": true,
                    "value": "0"
                },
                "nodeType": 0
            }
        },
        "gasFlame": [
            {
                "children": [
                    {
                        "children": [
                            {
                                "children": [],
                                "depth": 0,
                                "name": "Initial Gas",
                                "value": 23060
                            },
                            {
                                "children": [
                                    {
                                        "children": [],
                                        "depth": 1,
                                        "name": "getReserves",
                                        "value": 2504
                                    },
                                    {
                                        "children": [],
                                        "depth": 1,
                                        "name": "transferFrom",
                                        "value": 44886
                                    },
                                    {
                                        "children": [
                                            {
                                                "children": [],
                                                "depth": 2,
                                                "name": "transfer",
                                                "value": 29962
                                            },
                                            {
                                                "children": [],
                                                "depth": 2,
                                                "name": "balanceOf",
                                                "value": 551
                                            },
                                            {
                                                "children": [],
                                                "depth": 2,
                                                "name": "balanceOf",
                                                "value": 534
                                            }
                                        ],
                                        "depth": 1,
                                        "name": "swap",
                                        "value": 54454
                                    },
                                    {
                                        "children": [
                                            {
                                                "children": [],
                                                "depth": 2,
                                                "name": "fallback",
                                                "value": 95
                                            }
                                        ],
                                        "depth": 1,
                                        "name": "withdraw",
                                        "value": 9235
                                    },
                                    {
                                        "children": [],
                                        "depth": 1,
                                        "name": "fallback",
                                        "value": 0
                                    },
                                    {
                                        "children": [],
                                        "depth": 1,
                                        "name": "fallback",
                                        "value": 0
                                    }
                                ],
                                "depth": 0,
                                "name": "Executed Gas",
                                "value": 149691
                            }
                        ],
                        "depth": -1,
                        "name": "Actual Gas Used",
                        "value": 140451
                    },
                    {
                        "children": [],
                        "depth": -1,
                        "name": "Refunded Gas",
                        "value": 32300
                    }
                ],
                "depth": -2,
                "name": "Total Gas",
                "value": 172751
            }
        ],
        "isConfirmed": true,
        "mainTrace": [
            {
                "children": [
                    {
                        "children": [
                            {
                                "children": [],
                                "depth": 1,
                                "id": 1,
                                "order": 1
                            },
                            {
                                "children": [
                                    {
                                        "children": [],
                                        "depth": 2,
                                        "id": 3,
                                        "order": 3
                                    },
                                    {
                                        "children": [],
                                        "depth": 2,
                                        "id": 4,
                                        "order": 4
                                    }
                                ],
                                "depth": 1,
                                "id": 2,
                                "order": 2
                            },
                            {
                                "children": [
                                    {
                                        "children": [
                                            {
                                                "children": [],
                                                "depth": 3,
                                                "id": 7,
                                                "order": 7
                                            }
                                        ],
                                        "depth": 2,
                                        "id": 6,
                                        "order": 6
                                    },
                                    {
                                        "children": [],
                                        "depth": 2,
                                        "id": 8,
                                        "order": 8
                                    },
                                    {
                                        "children": [],
                                        "depth": 2,
                                        "id": 9,
                                        "order": 9
                                    },
                                    {
                                        "children": [],
                                        "depth": 2,
                                        "id": 10,
                                        "order": 10
                                    },
                                    {
                                        "children": [],
                                        "depth": 2,
                                        "id": 11,
                                        "order": 11
                                    }
                                ],
                                "depth": 1,
                                "id": 5,
                                "order": 5
                            },
                            {
                                "children": [
                                    {
                                        "children": [],
                                        "depth": 2,
                                        "id": 13,
                                        "order": 13
                                    },
                                    {
                                        "children": [],
                                        "depth": 2,
                                        "id": 14,
                                        "order": 14
                                    }
                                ],
                                "depth": 1,
                                "id": 12,
                                "order": 12
                            },
                            {
                                "children": [],
                                "depth": 1,
                                "id": 15,
                                "order": 15
                            },
                            {
                                "children": [],
                                "depth": 1,
                                "id": 16,
                                "order": 16
                            }
                        ],
                        "depth": 0,
                        "id": 0,
                        "order": 0
                    }
                ],
                "depth": -1,
                "id": -1,
                "order": -1
            }
        ],
        "mainTraceNodeCount": 17,
        "parentIdMap": {
            "0": -1,
            "1": 0,
            "10": 5,
            "11": 5,
            "12": 0,
            "13": 12,
            "14": 12,
            "15": 0,
            "16": 0,
            "2": 0,
            "3": 2,
            "4": 2,
            "5": 0,
            "6": 5,
            "7": 6,
            "8": 5,
            "9": 5
        },
        "tidyTrace": [
            {
                "children": [
                    {
                        "children": [
                            {
                                "children": [
                                    {
                                        "children": [],
                                        "depth": 2,
                                        "id": 3,
                                        "order": 3
                                    },
                                    {
                                        "children": [],
                                        "depth": 2,
                                        "id": 4,
                                        "order": 4
                                    }
                                ],
                                "depth": 1,
                                "id": 2,
                                "order": 2
                            },
                            {
                                "children": [
                                    {
                                        "children": [
                                            {
                                                "children": [],
                                                "depth": 3,
                                                "id": 7,
                                                "order": 7
                                            }
                                        ],
                                        "depth": 2,
                                        "id": 6,
                                        "order": 6
                                    },
                                    {
                                        "children": [],
                                        "depth": 2,
                                        "id": 10,
                                        "order": 10
                                    },
                                    {
                                        "children": [],
                                        "depth": 2,
                                        "id": 11,
                                        "order": 11
                                    }
                                ],
                                "depth": 1,
                                "id": 5,
                                "order": 5
                            },
                            {
                                "children": [
                                    {
                                        "children": [],
                                        "depth": 2,
                                        "id": 13,
                                        "order": 13
                                    },
                                    {
                                        "children": [],
                                        "depth": 2,
                                        "id": 14,
                                        "order": 14
                                    }
                                ],
                                "depth": 1,
                                "id": 12,
                                "order": 12
                            },
                            {
                                "children": [],
                                "depth": 1,
                                "id": 15,
                                "order": 15
                            },
                            {
                                "children": [],
                                "depth": 1,
                                "id": 16,
                                "order": 16
                            }
                        ],
                        "depth": 0,
                        "id": 0,
                        "order": 0
                    }
                ],
                "depth": -1,
                "id": -1,
                "order": -1
            }
        ],
        "tidyTraceNodeCount": 14
    },
    "state_change": {
        "stateChanges": [
            {
                "address": "0x2ec705d306b51e486b1bc0d6ebee708e0661add1",
                "erc": "",
                "slots": [
                    {
                        "current": "0x00000000000000000000000000000000000000000000176a9ff53aec0dcbd822",
                        "key": "0x0000000000000000000000000000000000000000000000000000000000000001",
                        "prev": "0x00000000000000000000000000000000000000000000176a9f425a828382489b"
                    }
                ],
                "storageVariables": []
            },
            {
                "address": "0x5b4d99e890e5210b88b4ef4c84cc2b92791c4d86",
                "erc": "ERC-20",
                "slots": [
                    {
                        "current": "0x0000000000000000000000000000000000000000000000000000000000000000",
                        "key": "0xfd8c18e71f32bc702d08fd469e9421731625668ee71c55a6e2ada44d50b69ce5",
                        "prev": "0x0000000000000000000000000000000000000000000000b0e56c434f00f68996"
                    },
                    {
                        "current": "0x0000000000000000000000000000000000000000000000000000000000000000",
                        "key": "0xcecaac84e316f1fc975babfba529fcb7b8229424ab7045fcd9c650d8618901a4",
                        "prev": "0x0000000000000000000000000000000000000000000000b0e56c434f00f68996"
                    },
                    {
                        "current": "0x000000000000000000000000000000000000000000001f060760cf289ae7fd6a",
                        "key": "0xaf2739d929930683a5cf30f5067d4ad4ebc257609734d6b9cf76c4a8cf77ba76",
                        "prev": "0x000000000000000000000000000000000000000000001e5521f48bd999f173d4"
                    }
                ],
                "storageVariables": [
                    {
                        "name": "_allowances",
                        "type": "mapping(address => mapping(address => uint256))",
                        "value": {
                            "pairs": [
                                {
                                    "key": "0x956ea807b122afa75993d04e5e9c0180c2482c3d",
                                    "value": {
                                        "pairs": [
                                            {
                                                "key": "0x2ec705d306b51e486b1bc0d6ebee708e0661add1",
                                                "value": {
                                                    "current": "0",
                                                    "prev": "3263158619311648967062",
                                                    "typeTag": 1
                                                }
                                            }
                                        ],
                                        "typeTag": 4
                                    }
                                }
                            ],
                            "typeTag": 4
                        }
                    },
                    {
                        "name": "_balances",
                        "type": "mapping(address => uint256)",
                        "value": {
                            "pairs": [
                                {
                                    "key": "0x6ca3625ae087537624ee9c3c03337add606d909c",
                                    "value": {
                                        "current": "146504573085930593189226",
                                        "prev": "143241414466618944222164",
                                        "typeTag": 1
                                    }
                                },
                                {
                                    "key": "0x956ea807b122afa75993d04e5e9c0180c2482c3d",
                                    "value": {
                                        "current": "0",
                                        "prev": "3263158619311648967062",
                                        "typeTag": 1
                                    }
                                }
                            ],
                            "typeTag": 4
                        }
                    }
                ]
            },
            {
                "address": "0x6ca3625ae087537624ee9c3c03337add606d909c",
                "erc": "ERC-20",
                "slots": [
                    {
                        "current": "0x669027cb0000000000001f133f00ddf6de0d000000001f060760cf289ae7fd6a",
                        "key": "0x0000000000000000000000000000000000000000000000000000000000000008",
                        "prev": "0x669027cb0000000000001fc7edf71c12a029000000001e5521f48bd999f173d4"
                    }
                ],
                "storageVariables": [
                    {
                        "name": "reserve0",
                        "type": "uint112",
                        "value": {
                            "current": "146504573085930593189226",
                            "prev": "143241414466618944222164",
                            "typeTag": 1
                        }
                    },
                    {
                        "name": "reserve1",
                        "type": "uint112",
                        "value": {
                            "current": "2239202712689761805",
                            "prev": "2290060581124874281",
                            "typeTag": 1
                        }
                    },
                    {
                        "name": "blockTimestampLast",
                        "type": "uint32",
                        "value": {
                            "current": "1720723403",
                            "prev": "1720723403",
                            "typeTag": 1
                        }
                    }
                ]
            },
            {
                "address": "0xc02aaa39b223fe8d0a0e5c4f27ead9083c756cc2",
                "erc": "ERC-20",
                "slots": [
                    {
                        "current": "0x0000000000000000000000000000000000000000000000001f133f00ddf6de0d",
                        "key": "0xd4b5313dbe0892ef99c4451e6c55e6066b893eabe4d1966bdb84f50e76b2891d",
                        "prev": "0x0000000000000000000000000000000000000000000000001fc7edf71c12a029"
                    }
                ],
                "storageVariables": [
                    {
                        "name": "balanceOf",
                        "type": "mapping(address => uint256)",
                        "value": {
                            "pairs": [
                                {
                                    "key": "0x6ca3625ae087537624ee9c3c03337add606d909c",
                                    "value": {
                                        "current": "2239202712689761805",
                                        "prev": "2290060581124874281",
                                        "typeTag": 1
                                    }
                                }
                            ],
                            "typeTag": 4
                        }
                    }
                ]
            }
        ]
    }
}