{
    "balance_change": {
        "balanceChanges": []
    },
    "profile": {
        "basic_info": {
            "baseFee": "15.694789115",
            "blockNumber": 18400481,
            "callData": "0x0d7a16c300000000000000000000000000000000000000000000000000000000000000200000000000000000000000000000000000000000000000000000000000000002000000000000000000000000000000000000000000000000000000000000004000000000000000000000000000000000000000000000000000000000000003e00000000000000000000000000000000000000000000000000000000000000040000000000000000000000000000000000000000000000000000000000000032000000000000000000000000000000000000000000000000000000000000002c000000000000000000000000000000000000000000000000000000000000000200000000000000000000000000000000000000000000000000000000000000120000000000000000000000000000000000000000000000000000000006534187100000000000000000000000000000000000000000000000000000000653418ad0000000000000000000000003b9260a928d30f2a069572805fbb6880fc719a1900000000000000000000000000000000000000000000000000000000000000640000000000000000000000006de037ef9ad2725eb40118bb1702ebb27e4aeb2400000000000000000000000000000000000000000000000147eef2708881380000000000000000000000000000000000000000000000000147eef2708881380000000000000000000000000000000000000000000000000000000000000002000000000000000000000000006000da47483062a0d734ba3dc7576ce6a0b645c400000000000000000000000038ab673824032243d1c071cd491c2ef4ddf052050468320dee755e9e07964f39c3af1dd9bd9d77d6aa10f3f9eb341fa74e04a60000000000000000000000000000000000000000000000000000000000653418b9000000000000000000000000000000000000000000000000000000000000000000000000000000000000000000000000000000000000000000000000000000c0000000000000000000000000000000000000000000000000000000000000000000000000000000000000000000000000000000000000000000000000000000010000000000000000000000000000000000000000000000000000000000000000000000000000000000000000000000000000000000000000005ad6ae6e8d0e9a0000000000000000000000000000000000000000000000000045ce4d9f5b054200000000000000000000000038ab673824032243d1c071cd491c2ef4ddf052050000000000000000000000000000000000000000000000000000000000000041db7ae2333aba89504d2945d6ff99f2b5213498e0ebf37687f0bfc10a68af155369f5ec9e80e731d21e354fe728471f3e938f94eef495bda4ef73516c63f5e80b1b000000000000000000000000000000000000000000000000000000000000000000000000000000000000000000000000000000000000000000000000000040000000000000000000000000000000000000000000000000000000000000032000000000000000000000000000000000000000000000000000000000000002c000000000000000000000000000000000000000000000000000000000000000200000000000000000000000000000000000000000000000000000000000000120000000000000000000000000000000000000000000000000000000006534187600000000000000000000000000000000000000000000000000000000653418b20000000000000000000000003b9260a928d30f2a069572805fbb6880fc719a190000000000000000000000000000000000000000000000000000000000000064000000000000000000000000514910771af9ca656af840dff83e8264ecf986ca00000000000000000000000000000000000000000000003635c9adc5dea0000000000000000000000000000000000000000000000000003635c9adc5dea0000000000000000000000000000000000000000000000000000000000000000002000000000000000000000000006000da47483062a0d734ba3dc7576ce6a0b645c40000000000000000000000002dbe3f1f55bc06569c400e9700854766a2ed2544046832bfc6a8216f8ca6465d49c32bfb5a10cda8e1e450b7930fb667b68ae70000000000000000000000000000000000000000000000000000000000653418be000000000000000000000000000000000000000000000000000000000000000000000000000000000000000000000000000000000000000000000000000000c00000000000000000000000000000000000000000000000000000000000000000000000000000000000000000000000000000000000000000000000000000000100000000000000000000000000000000000000000000000000000000000000000000000000000000000000000000000000000000000000004c304eda0a81e6880000000000000000000000000000000000000000000000004bb6ffc992f805e80000000000000000000000002dbe3f1f55bc06569c400e9700854766a2ed254400000000000000000000000000000000000000000000000000000000000000418e6d9c74fcd21413de022be8e33dfcfbffb1dc06839d3b0d5c15d35f441373a74e4bded1b85fd898be6641309c275cbbb5cfdf9a40811f91a773b431fa6590771c00000000000000000000000000000000000000000000000000000000000000",
            "debugEnable": true,
            "errorInfo": "execution reverted",
            "eventCount": 0,
            "feeRecipient": "0x690b9a9e9aa1c9db991c7721a92d351db4fac990",
            "formatValue": "0",
            "gasLimit": 300000,
            "gasPrice": "16.694789115",
            "gasUsed": 87875,
            "intTxnCount": 2,
            "internalRevert": true,
            "internalRevertMessage": "",
            "isContractCreation": false,
            "isFlashloan": false,
            "maxFee": "31.713624474",
            "nonce": 11831,
            "overwritedBlockNumber": -1,
            "priorityFee": "1",
            "receiver": "0x3b9260a928d30f2a069572805fbb6880fc719a19",
            "revertMessage": "InvalidNonce()",
            "sender": "0x2008b6c3d07b061a84f790c035c2f6dc11a0be70",
            "simulationEnable": true,
            "sourceTxnHash": "0x3523e77d6f15c91e1f97315484d829b96bce5f3c687219f8c612f5939b5fba2b",
            "status": false,
            "timestamp": "2023-10-21T18:29:59Z",
            "transactionFee": "0.001467054593480625",
            "txnHash": "0x3523e77d6f15c91e1f97315484d829b96bce5f3c687219f8c612f5939b5fba2b",
            "txnIndex": 73,
            "type": 2,
            "value": "0"
        },
        "fund_flow": [],
        "token_infos": [
            {
                "address": "0xc02aaa39b223fe8d0a0e5c4f27ead9083c756cc2",
                "decimals": 18
            },
            {
                "address": "0xeeeeeeeeeeeeeeeeeeeeeeeeeeeeeeeeeeeeeeee",
                "decimals": 18
            }
        ]
    },
    "address_label": {
        "labels": [
            {
                "address": "0x0000000000000000000000000000000000000004",
                "label": "Precompiled"
            },
            {
                "address": "0x000000000022d473030f116ddee9f6b43ac78ba3",
                "label": "Permit2"
            },
            {
                "address": "0x2008b6c3d07b061a84f790c035c2f6dc11a0be70",
                "label": "Native: PMM 1"
            },
            {
                "address": "0x0000000000000000000000000000000000000002",
                "label": "Precompiled"
            },
            {
                "address": "0x0000000000000000000000000000000000000001",
                "label": "Precompiled"
            },
            {
                "address": "0x0000000000000000000000000000000000000003",
                "label": "Precompiled"
            },
            {
                "address": "0xeeeeeeeeeeeeeeeeeeeeeeeeeeeeeeeeeeeeeeee",
                "label": "Ether"
            },
            {
                "address": "0x6000da47483062a0d734ba3dc7576ce6a0b645c4",
                "label": "UniswapX: Dutch Order Reactor"
            },
            {
                "address": "0x6de037ef9ad2725eb40118bb1702ebb27e4aeb24",
                "label": "Render : RNDR Token"
            }
        ]
    },
    "trace": {
        "accountLabels": null,
        "dataMap": {
            "-1": {
                "invocation": {
                    "address": "0x2008b6c3d07b061a84f790c035c2f6dc11a0be70",
                    "callData": "",
                    "decodedMethod": null,
                    "errorInfo": "",
                    "fromAddress": "",
                    "gasUsed": 0,
                    "id": -1,
                    "methodDecoded": false,
                    "operation": "",
                    "output": "",
                    "revert": false,
                    "revertMessage": "",
                    "selector": "",
                    "status": false,
                    "value": ""
                },
                "nodeType": 0
            },
            "0": {
                "invocation": {
                    "address": "0x3b9260a928d30f2a069572805fbb6880fc719a19",
                    "callData": "0x00000000000000000000000000000000000000000000000000000000000000200000000000000000000000000000000000000000000000000000000000000002000000000000000000000000000000000000000000000000000000000000004000000000000000000000000000000000000000000000000000000000000003e00000000000000000000000000000000000000000000000000000000000000040000000000000000000000000000000000000000000000000000000000000032000000000000000000000000000000000000000000000000000000000000002c000000000000000000000000000000000000000000000000000000000000000200000000000000000000000000000000000000000000000000000000000000120000000000000000000000000000000000000000000000000000000006534187100000000000000000000000000000000000000000000000000000000653418ad0000000000000000000000003b9260a928d30f2a069572805fbb6880fc719a1900000000000000000000000000000000000000000000000000000000000000640000000000000000000000006de037ef9ad2725eb40118bb1702ebb27e4aeb2400000000000000000000000000000000000000000000000147eef2708881380000000000000000000000000000000000000000000000000147eef2708881380000000000000000000000000000000000000000000000000000000000000002000000000000000000000000006000da47483062a0d734ba3dc7576ce6a0b645c400000000000000000000000038ab673824032243d1c071cd491c2ef4ddf052050468320dee755e9e07964f39c3af1dd9bd9d77d6aa10f3f9eb341fa74e04a60000000000000000000000000000000000000000000000000000000000653418b9000000000000000000000000000000000000000000000000000000000000000000000000000000000000000000000000000000000000000000000000000000c0000000000000000000000000000000000000000000000000000000000000000000000000000000000000000000000000000000000000000000000000000000010000000000000000000000000000000000000000000000000000000000000000000000000000000000000000000000000000000000000000005ad6ae6e8d0e9a0000000000000000000000000000000000000000000000000045ce4d9f5b054200000000000000000000000038ab673824032243d1c071cd491c2ef4ddf052050000000000000000000000000000000000000000000000000000000000000041db7ae2333aba89504d2945d6ff99f2b5213498e0ebf37687f0bfc10a68af155369f5ec9e80e731d21e354fe728471f3e938f94eef495bda4ef73516c63f5e80b1b000000000000000000000000000000000000000000000000000000000000000000000000000000000000000000000000000000000000000000000000000040000000000000000000000000000000000000000000000000000000000000032000000000000000000000000000000000000000000000000000000000000002c000000000000000000000000000000000000000000000000000000000000000200000000000000000000000000000000000000000000000000000000000000120000000000000000000000000000000000000000000000000000000006534187600000000000000000000000000000000000000000000000000000000653418b20000000000000000000000003b9260a928d30f2a069572805fbb6880fc719a190000000000000000000000000000000000000000000000000000000000000064000000000000000000000000514910771af9ca656af840dff83e8264ecf986ca00000000000000000000000000000000000000000000003635c9adc5dea0000000000000000000000000000000000000000000000000003635c9adc5dea0000000000000000000000000000000000000000000000000000000000000000002000000000000000000000000006000da47483062a0d734ba3dc7576ce6a0b645c40000000000000000000000002dbe3f1f55bc06569c400e9700854766a2ed2544046832bfc6a8216f8ca6465d49c32bfb5a10cda8e1e450b7930fb667b68ae70000000000000000000000000000000000000000000000000000000000653418be000000000000000000000000000000000000000000000000000000000000000000000000000000000000000000000000000000000000000000000000000000c00000000000000000000000000000000000000000000000000000000000000000000000000000000000000000000000000000000000000000000000000000000100000000000000000000000000000000000000000000000000000000000000000000000000000000000000000000000000000000000000004c304eda0a81e6880000000000000000000000000000000000000000000000004bb6ffc992f805e80000000000000000000000002dbe3f1f55bc06569c400e9700854766a2ed254400000000000000000000000000000000000000000000000000000000000000418e6d9c74fcd21413de022be8e33dfcfbffb1dc06839d3b0d5c15d35f441373a74e4bded1b85fd898be6641309c275cbbb5cfdf9a40811f91a773b431fa6590771c00000000000000000000000000000000000000000000000000000000000000",
                    "decodedMethod": {
                        "callParams": [
                            {
                                "name": "orders",
                                "type": "(bytes,bytes)[]",
                                "value": [
                                    [
                                        {
                                            "name": "order",
                                            "type": "bytes",
                                            "value": "0x00000000000000000000000000000000000000000000000000000000000000200000000000000000000000000000000000000000000000000000000000000120000000000000000000000000000000000000000000000000000000006534187100000000000000000000000000000000000000000000000000000000653418ad0000000000000000000000003b9260a928d30f2a069572805fbb6880fc719a1900000000000000000000000000000000000000000000000000000000000000640000000000000000000000006de037ef9ad2725eb40118bb1702ebb27e4aeb2400000000000000000000000000000000000000000000000147eef2708881380000000000000000000000000000000000000000000000000147eef2708881380000000000000000000000000000000000000000000000000000000000000002000000000000000000000000006000da47483062a0d734ba3dc7576ce6a0b645c400000000000000000000000038ab673824032243d1c071cd491c2ef4ddf052050468320dee755e9e07964f39c3af1dd9bd9d77d6aa10f3f9eb341fa74e04a60000000000000000000000000000000000000000000000000000000000653418b9000000000000000000000000000000000000000000000000000000000000000000000000000000000000000000000000000000000000000000000000000000c0000000000000000000000000000000000000000000000000000000000000000000000000000000000000000000000000000000000000000000000000000000010000000000000000000000000000000000000000000000000000000000000000000000000000000000000000000000000000000000000000005ad6ae6e8d0e9a0000000000000000000000000000000000000000000000000045ce4d9f5b054200000000000000000000000038ab673824032243d1c071cd491c2ef4ddf05205"
                                        },
                                        {
                                            "name": "sig",
                                            "type": "bytes",
                                            "value": "0xdb7ae2333aba89504d2945d6ff99f2b5213498e0ebf37687f0bfc10a68af155369f5ec9e80e731d21e354fe728471f3e938f94eef495bda4ef73516c63f5e80b1b"
                                        }
                                    ],
                                    [
                                        {
                                            "name": "order",
                                            "type": "bytes",
                                            "value": "0x00000000000000000000000000000000000000000000000000000000000000200000000000000000000000000000000000000000000000000000000000000120000000000000000000000000000000000000000000000000000000006534187600000000000000000000000000000000000000000000000000000000653418b20000000000000000000000003b9260a928d30f2a069572805fbb6880fc719a190000000000000000000000000000000000000000000000000000000000000064000000000000000000000000514910771af9ca656af840dff83e8264ecf986ca00000000000000000000000000000000000000000000003635c9adc5dea0000000000000000000000000000000000000000000000000003635c9adc5dea0000000000000000000000000000000000000000000000000000000000000000002000000000000000000000000006000da47483062a0d734ba3dc7576ce6a0b645c40000000000000000000000002dbe3f1f55bc06569c400e9700854766a2ed2544046832bfc6a8216f8ca6465d49c32bfb5a10cda8e1e450b7930fb667b68ae70000000000000000000000000000000000000000000000000000000000653418be000000000000000000000000000000000000000000000000000000000000000000000000000000000000000000000000000000000000000000000000000000c00000000000000000000000000000000000000000000000000000000000000000000000000000000000000000000000000000000000000000000000000000000100000000000000000000000000000000000000000000000000000000000000000000000000000000000000000000000000000000000000004c304eda0a81e6880000000000000000000000000000000000000000000000004bb6ffc992f805e80000000000000000000000002dbe3f1f55bc06569c400e9700854766a2ed2544"
                                        },
                                        {
                                            "name": "sig",
                                            "type": "bytes",
                                            "value": "0x8e6d9c74fcd21413de022be8e33dfcfbffb1dc06839d3b0d5c15d35f441373a74e4bded1b85fd898be6641309c275cbbb5cfdf9a40811f91a773b431fa6590771c"
                                        }
                                    ]
                                ]
                            }
                        ],
                        "constructorArguments": "",
                        "name": "executeBatch",
                        "returnParams": [],
                        "signature": "executeBatch((bytes,bytes)[])"
                    },
                    "errorInfo": "execution reverted",
                    "fromAddress": "0x2008b6c3d07b061a84f790c035c2f6dc11a0be70",
                    "gasUsed": 87875,
                    "id": 0,
                    "methodDecoded": true,
                    "operation": "CALL",
                    "output": "0x756688fe",
                    "revert": true,
                    "revertMessage": "",
                    "selector": "0x0d7a16c3",
                    "status": false,
                    "value": "0"
                },
                "nodeType": 0
            },
            "1": {
                "invocation": {
                    "address": "0x6000da47483062a0d734ba3dc7576ce6a0b645c4",
                    "callData": "0x000000000000000000000000000000000000000000000000000000000000004000000000000000000000000000000000000000000000000000000000000007e00000000000000000000000000000000000000000000000000000000000000002000000000000000000000000000000000000000000000000000000000000004000000000000000000000000000000000000000000000000000000000000003e00000000000000000000000000000000000000000000000000000000000000040000000000000000000000000000000000000000000000000000000000000032000000000000000000000000000000000000000000000000000000000000002c000000000000000000000000000000000000000000000000000000000000000200000000000000000000000000000000000000000000000000000000000000120000000000000000000000000000000000000000000000000000000006534187100000000000000000000000000000000000000000000000000000000653418ad0000000000000000000000003b9260a928d30f2a069572805fbb6880fc719a1900000000000000000000000000000000000000000000000000000000000000640000000000000000000000006de037ef9ad2725eb40118bb1702ebb27e4aeb2400000000000000000000000000000000000000000000000147eef2708881380000000000000000000000000000000000000000000000000147eef2708881380000000000000000000000000000000000000000000000000000000000000002000000000000000000000000006000da47483062a0d734ba3dc7576ce6a0b645c400000000000000000000000038ab673824032243d1c071cd491c2ef4ddf052050468320dee755e9e07964f39c3af1dd9bd9d77d6aa10f3f9eb341fa74e04a60000000000000000000000000000000000000000000000000000000000653418b9000000000000000000000000000000000000000000000000000000000000000000000000000000000000000000000000000000000000000000000000000000c0000000000000000000000000000000000000000000000000000000000000000000000000000000000000000000000000000000000000000000000000000000010000000000000000000000000000000000000000000000000000000000000000000000000000000000000000000000000000000000000000005ad6ae6e8d0e9a0000000000000000000000000000000000000000000000000045ce4d9f5b054200000000000000000000000038ab673824032243d1c071cd491c2ef4ddf052050000000000000000000000000000000000000000000000000000000000000041db7ae2333aba89504d2945d6ff99f2b5213498e0ebf37687f0bfc10a68af155369f5ec9e80e731d21e354fe728471f3e938f94eef495bda4ef73516c63f5e80b1b000000000000000000000000000000000000000000000000000000000000000000000000000000000000000000000000000000000000000000000000000040000000000000000000000000000000000000000000000000000000000000032000000000000000000000000000000000000000000000000000000000000002c000000000000000000000000000000000000000000000000000000000000000200000000000000000000000000000000000000000000000000000000000000120000000000000000000000000000000000000000000000000000000006534187600000000000000000000000000000000000000000000000000000000653418b20000000000000000000000003b9260a928d30f2a069572805fbb6880fc719a190000000000000000000000000000000000000000000000000000000000000064000000000000000000000000514910771af9ca656af840dff83e8264ecf986ca00000000000000000000000000000000000000000000003635c9adc5dea0000000000000000000000000000000000000000000000000003635c9adc5dea0000000000000000000000000000000000000000000000000000000000000000002000000000000000000000000006000da47483062a0d734ba3dc7576ce6a0b645c40000000000000000000000002dbe3f1f55bc06569c400e9700854766a2ed2544046832bfc6a8216f8ca6465d49c32bfb5a10cda8e1e450b7930fb667b68ae70000000000000000000000000000000000000000000000000000000000653418be000000000000000000000000000000000000000000000000000000000000000000000000000000000000000000000000000000000000000000000000000000c00000000000000000000000000000000000000000000000000000000000000000000000000000000000000000000000000000000000000000000000000000000100000000000000000000000000000000000000000000000000000000000000000000000000000000000000000000000000000000000000004c304eda0a81e6880000000000000000000000000000000000000000000000004bb6ffc992f805e80000000000000000000000002dbe3f1f55bc06569c400e9700854766a2ed254400000000000000000000000000000000000000000000000000000000000000418e6d9c74fcd21413de022be8e33dfcfbffb1dc06839d3b0d5c15d35f441373a74e4bded1b85fd898be6641309c275cbbb5cfdf9a40811f91a773b431fa6590771c000000000000000000000000000000000000000000000000000000000000000000000000000000000000000000000000000000000000000000000000000000",
                    "decodedMethod": {
                        "callParams": [
                            {
                                "name": "orders",
                                "type": "(bytes,bytes)[]",
                                "value": [
                                    [
                                        {
                                            "name": "order",
                                            "type": "bytes",
                                            "value": "0x00000000000000000000000000000000000000000000000000000000000000200000000000000000000000000000000000000000000000000000000000000120000000000000000000000000000000000000000000000000000000006534187100000000000000000000000000000000000000000000000000000000653418ad0000000000000000000000003b9260a928d30f2a069572805fbb6880fc719a1900000000000000000000000000000000000000000000000000000000000000640000000000000000000000006de037ef9ad2725eb40118bb1702ebb27e4aeb2400000000000000000000000000000000000000000000000147eef2708881380000000000000000000000000000000000000000000000000147eef2708881380000000000000000000000000000000000000000000000000000000000000002000000000000000000000000006000da47483062a0d734ba3dc7576ce6a0b645c400000000000000000000000038ab673824032243d1c071cd491c2ef4ddf052050468320dee755e9e07964f39c3af1dd9bd9d77d6aa10f3f9eb341fa74e04a60000000000000000000000000000000000000000000000000000000000653418b9000000000000000000000000000000000000000000000000000000000000000000000000000000000000000000000000000000000000000000000000000000c0000000000000000000000000000000000000000000000000000000000000000000000000000000000000000000000000000000000000000000000000000000010000000000000000000000000000000000000000000000000000000000000000000000000000000000000000000000000000000000000000005ad6ae6e8d0e9a0000000000000000000000000000000000000000000000000045ce4d9f5b054200000000000000000000000038ab673824032243d1c071cd491c2ef4ddf05205"
                                        },
                                        {
                                            "name": "sig",
                                            "type": "bytes",
                                            "value": "0xdb7ae2333aba89504d2945d6ff99f2b5213498e0ebf37687f0bfc10a68af155369f5ec9e80e731d21e354fe728471f3e938f94eef495bda4ef73516c63f5e80b1b"
                                        }
                                    ],
                                    [
                                        {
                                            "name": "order",
                                            "type": "bytes",
                                            "value": "0x00000000000000000000000000000000000000000000000000000000000000200000000000000000000000000000000000000000000000000000000000000120000000000000000000000000000000000000000000000000000000006534187600000000000000000000000000000000000000000000000000000000653418b20000000000000000000000003b9260a928d30f2a069572805fbb6880fc719a190000000000000000000000000000000000000000000000000000000000000064000000000000000000000000514910771af9ca656af840dff83e8264ecf986ca00000000000000000000000000000000000000000000003635c9adc5dea0000000000000000000000000000000000000000000000000003635c9adc5dea0000000000000000000000000000000000000000000000000000000000000000002000000000000000000000000006000da47483062a0d734ba3dc7576ce6a0b645c40000000000000000000000002dbe3f1f55bc06569c400e9700854766a2ed2544046832bfc6a8216f8ca6465d49c32bfb5a10cda8e1e450b7930fb667b68ae70000000000000000000000000000000000000000000000000000000000653418be000000000000000000000000000000000000000000000000000000000000000000000000000000000000000000000000000000000000000000000000000000c00000000000000000000000000000000000000000000000000000000000000000000000000000000000000000000000000000000000000000000000000000000100000000000000000000000000000000000000000000000000000000000000000000000000000000000000000000000000000000000000004c304eda0a81e6880000000000000000000000000000000000000000000000004bb6ffc992f805e80000000000000000000000002dbe3f1f55bc06569c400e9700854766a2ed2544"
                                        },
                                        {
                                            "name": "sig",
                                            "type": "bytes",
                                            "value": "0x8e6d9c74fcd21413de022be8e33dfcfbffb1dc06839d3b0d5c15d35f441373a74e4bded1b85fd898be6641309c275cbbb5cfdf9a40811f91a773b431fa6590771c"
                                        }
                                    ]
                                ]
                            },
                            {
                                "name": "callbackData",
                                "type": "bytes",
                                "value": "0x"
                            }
                        ],
                        "constructorArguments": "",
                        "name": "executeBatchWithCallback",
                        "returnParams": [],
                        "signature": "executeBatchWithCallback((bytes,bytes)[],bytes)"
                    },
                    "errorInfo": "execution reverted",
                    "fromAddress": "0x3b9260a928d30f2a069572805fbb6880fc719a19",
                    "gasUsed": 45025,
                    "id": 1,
                    "methodDecoded": true,
                    "operation": "CALL",
                    "output": "0x756688fe",
                    "revert": true,
                    "revertMessage": "",
                    "selector": "0x13fb72c7",
                    "status": false,
                    "value": "0"
                },
                "nodeType": 0
            },
            "2": {
                "invocation": {
                    "address": "0x000000000022d473030f116ddee9f6b43ac78ba3",
                    "callData": "0x0000000000000000000000006de037ef9ad2725eb40118bb1702ebb27e4aeb2400000000000000000000000000000000000000000000000147eef270888138000468320dee755e9e07964f39c3af1dd9bd9d77d6aa10f3f9eb341fa74e04a60000000000000000000000000000000000000000000000000000000000653418b90000000000000000000000003b9260a928d30f2a069572805fbb6880fc719a1900000000000000000000000000000000000000000000000147eef2708881380000000000000000000000000038ab673824032243d1c071cd491c2ef4ddf0520558d7b320c92c2aa6d2cae58693c730306f62c890715749d40eb8329cec5d840e0000000000000000000000000000000000000000000000000000000000000140000000000000000000000000000000000000000000000000000000000000038000000000000000000000000000000000000000000000000000000000000002084578636c757369766544757463684f72646572207769746e6573732944757463684f7574707574286164647265737320746f6b656e2c75696e74323536207374617274416d6f756e742c75696e7432353620656e64416d6f756e742c6164647265737320726563697069656e74294578636c757369766544757463684f72646572284f72646572496e666f20696e666f2c75696e74323536206465636179537461727454696d652c75696e74323536206465636179456e6454696d652c61646472657373206578636c757369766546696c6c65722c75696e74323536206578636c757369766974794f766572726964654270732c6164647265737320696e707574546f6b656e2c75696e7432353620696e7075745374617274416d6f756e742c75696e7432353620696e707574456e64416d6f756e742c44757463684f75747075745b5d206f757470757473294f72646572496e666f28616464726573732072656163746f722c6164647265737320737761707065722c75696e74323536206e6f6e63652c75696e7432353620646561646c696e652c61646472657373206164646974696f6e616c56616c69646174696f6e436f6e74726163742c6279746573206164646974696f6e616c56616c69646174696f6e4461746129546f6b656e5065726d697373696f6e73286164647265737320746f6b656e2c75696e7432353620616d6f756e74290000000000000000000000000000000000000000000000000000000000000000000000000000000000000000000000000000000000000041db7ae2333aba89504d2945d6ff99f2b5213498e0ebf37687f0bfc10a68af155369f5ec9e80e731d21e354fe728471f3e938f94eef495bda4ef73516c63f5e80b1b00000000000000000000000000000000000000000000000000000000000000",
                    "decodedMethod": {
                        "callParams": [
                            {
                                "name": "permit",
                                "type": "((address,uint256),uint256,uint256)",
                                "value": [
                                    {
                                        "name": "permitted",
                                        "type": "(address,uint256)",
                                        "value": [
                                            {
                                                "name": "token",
                                                "type": "address",
                                                "value": "0x6de037ef9ad2725eb40118bb1702ebb27e4aeb24"
                                            },
                                            {
                                                "name": "amount",
                                                "type": "uint256",
                                                "value": "23,630,090,860,000,000,000"
                                            }
                                        ]
                                    },
                                    {
                                        "name": "nonce",
                                        "type": "uint256",
                                        "value": "1,993,348,951,979,272,194,480,175,184,425,769,535,471,324,859,613,726,611,527,592,662,281,646,024,192"
                                    },
                                    {
                                        "name": "deadline",
                                        "type": "uint256",
                                        "value": "1,697,913,017"
                                    }
                                ]
                            },
                            {
                                "name": "transferDetails",
                                "type": "(address,uint256)",
                                "value": [
                                    {
                                        "name": "to",
                                        "type": "address",
                                        "value": "0x3b9260a928d30f2a069572805fbb6880fc719a19"
                                    },
                                    {
                                        "name": "requestedAmount",
                                        "type": "uint256",
                                        "value": "23,630,090,860,000,000,000"
                                    }
                                ]
                            },
                            {
                                "name": "owner",
                                "type": "address",
                                "value": "0x38ab673824032243d1c071cd491c2ef4ddf05205"
                            },
                            {
                                "name": "witness",
                                "type": "bytes32",
                                "value": "0x58d7b320c92c2aa6d2cae58693c730306f62c890715749d40eb8329cec5d840e"
                            },
                            {
                                "name": "witnessTypeString",
                                "type": "string",
                                "value": "ExclusiveDutchOrder witness)DutchOutput(address token,uint256 startAmount,uint256 endAmount,address recipient)ExclusiveDutchOrder(OrderInfo info,uint256 decayStartTime,uint256 decayEndTime,address exclusiveFiller,uint256 exclusivityOverrideBps,address inputToken,uint256 inputStartAmount,uint256 inputEndAmount,DutchOutput[] outputs)OrderInfo(address reactor,address swapper,uint256 nonce,uint256 deadline,address additionalValidationContract,bytes additionalValidationData)TokenPermissions(address token,uint256 amount)"
                            },
                            {
                                "name": "signature",
                                "type": "bytes",
                                "value": "0xdb7ae2333aba89504d2945d6ff99f2b5213498e0ebf37687f0bfc10a68af155369f5ec9e80e731d21e354fe728471f3e938f94eef495bda4ef73516c63f5e80b1b"
                            }
                        ],
                        "constructorArguments": "",
                        "name": "permitWitnessTransferFrom",
                        "returnParams": [],
                        "signature": "permitWitnessTransferFrom(((address,uint256),uint256,uint256),(address,uint256),address,bytes32,string,bytes)"
                    },
                    "errorInfo": "execution reverted",
                    "fromAddress": "0x6000da47483062a0d734ba3dc7576ce6a0b645c4",
                    "gasUsed": 7958,
                    "id": 2,
                    "methodDecoded": true,
                    "operation": "CALL",
                    "output": "0x756688fe",
                    "revert": true,
                    "revertMessage": "InvalidNonce()",
                    "selector": "0x137c29fe",
                    "status": false,
                    "value": "0"
                },
                "nodeType": 0
            }
        },
        "gasFlame": [
            {
                "children": [
                    {
                        "children": [
                            {
                                "children": [],
                                "depth": 0,
                                "name": "Initial Gas",
                                "value": 35036
                            },
                            {
                                "children": [
                                    {
                                        "children": [
                                            {
                                                "children": [],
                                                "depth": 2,
                                                "name": "permitWitnessTransferFrom",
                                                "value": 7958
                                            }
                                        ],
                                        "depth": 1,
                                        "name": "executeBatchWithCallback",
                                        "value": 45025
                                    }
                                ],
                                "depth": 0,
                                "name": "Executed Gas",
                                "value": 52839
                            }
                        ],
                        "depth": -1,
                        "name": "Actual Gas Used",
                        "value": 87875
                    },
                    {
                        "children": [],
                        "depth": -1,
                        "name": "Refunded Gas",
                        "value": 0
                    }
                ],
                "depth": -2,
                "name": "Total Gas",
                "value": 87875
            }
        ],
        "isConfirmed": true,
        "mainTrace": [
            {
                "children": [
                    {
                        "children": [
                            {
                                "children": [
                                    {
                                        "children": [],
                                        "depth": 2,
                                        "id": 2,
                                        "order": 2
                                    }
                                ],
                                "depth": 1,
                                "id": 1,
                                "order": 1
                            }
                        ],
                        "depth": 0,
                        "id": 0,
                        "order": 0
                    }
                ],
                "depth": -1,
                "id": -1,
                "order": -1
            }
        ],
        "mainTraceNodeCount": 3,
        "parentIdMap": {
            "0": -1,
            "1": 0,
            "2": 1
        },
        "tidyTrace": [
            {
                "children": [
                    {
                        "children": [
                            {
                                "children": [
                                    {
                                        "children": [],
                                        "depth": 2,
                                        "id": 2,
                                        "order": 2
                                    }
                                ],
                                "depth": 1,
                                "id": 1,
                                "order": 1
                            }
                        ],
                        "depth": 0,
                        "id": 0,
                        "order": 0
                    }
                ],
                "depth": -1,
                "id": -1,
                "order": -1
            }
        ],
        "tidyTraceNodeCount": 3
    },
    "state_change": {
        "stateChanges": []
    }
}