{
    "balance_change": {
        "balanceChanges": [
            {
                "account": "0x1a9e68582369ea569c84fb03eeaae3f8ae441e36",
                "assets": [
                    {
                        "address": "0xe498c0d37e1cab443d7f8bd74bd820bb9d5b6bd6",
                        "amount": "254.02",
                        "iconUrl": "",
                        "isERC1155": false,
                        "isERC721": false,
                        "sign": false,
                        "value": ""
                    }
                ]
            },
            {
                "account": "0xd97d09f3bd931a14382ac60f156c1285a56bb51b",
                "assets": [
                    {
                        "address": "0xe498c0d37e1cab443d7f8bd74bd820bb9d5b6bd6",
                        "amount": "254.02",
                        "iconUrl": "",
                        "isERC1155": false,
                        "isERC721": false,
                        "sign": true,
                        "value": ""
                    }
                ]
            }
        ]
    },
    "profile": {
        "basic_info": {
            "baseFee": "",
            "blockNumber": 9809840,
            "callData": "0x3ae50b73000000000000000000000000e498c0d37e1cab443d7f8bd74bd820bb9d5b6bd600000000000000000000000000000000000000000000000dc53c5424f4ba0000",
            "debugEnable": true,
            "errorInfo": "",
            "eventCount": 2,
            "feeRecipient": "0x829bd824b016326a401d083b33d092293333a830",
            "formatValue": "0",
            "gasLimit": 1000000,
            "gasPrice": "9.18",
            "gasUsed": 201412,
            "intTxnCount": 8,
            "internalRevert": false,
            "internalRevertMessage": "",
            "isContractCreation": false,
            "isFlashloan": false,
            "maxFee": "",
            "nonce": 71,
            "overwritedBlockNumber": -1,
            "priorityFee": "",
            "receiver": "0xd97d09f3bd931a14382ac60f156c1285a56bb51b",
            "revertMessage": "",
            "sender": "0x1a9e68582369ea569c84fb03eeaae3f8ae441e36",
            "simulationEnable": true,
            "sourceTxnHash": "0x35030014fffff319db11cca4bde51952062b35f0a15cb6f0e7498be5f43180d1",
            "status": true,
            "timestamp": "2020-04-05T04:22:11Z",
            "transactionFee": "0.00184896216",
            "txnHash": "0x35030014fffff319db11cca4bde51952062b35f0a15cb6f0e7498be5f43180d1",
            "txnIndex": 30,
            "type": 0,
            "value": "0"
        },
        "fund_flow": [
            {
                "amount": "254.02",
                "from": "0x1a9e68582369ea569c84fb03eeaae3f8ae441e36",
                "id": 1,
                "isERC1155": false,
                "isERC721": false,
                "isReverted": false,
                "order": 1,
                "to": "0xd97d09f3bd931a14382ac60f156c1285a56bb51b",
                "token": "0xe498c0d37e1cab443d7f8bd74bd820bb9d5b6bd6"
            }
        ],
        "token_infos": [
            {
                "address": "0xeeeeeeeeeeeeeeeeeeeeeeeeeeeeeeeeeeeeeeee",
                "decimals": 18
            },
            {
                "address": "0xc02aaa39b223fe8d0a0e5c4f27ead9083c756cc2",
                "decimals": 18
            },
            {
                "address": "0xe498c0d37e1cab443d7f8bd74bd820bb9d5b6bd6",
                "decimals": 18
            }
        ]
    },
    "address_label": {
        "labels": [
            {
                "address": "0x18dd1dda037b009f7c1024dddd58e4fe9f960ac7",
                "label": "LoopringV3"
            },
            {
                "address": "0xe498c0d37e1cab443d7f8bd74bd820bb9d5b6bd6",
                "label": "Dkey (Dkey)"
            },
            {
                "address": "0x0000000000000000000000000000000000000002",
                "label": "Precompiled"
            },
            {
                "address": "0xeeeeeeeeeeeeeeeeeeeeeeeeeeeeeeeeeeeeeeee",
                "label": "Ether"
            },
            {
                "address": "0xd97d09f3bd931a14382ac60f156c1285a56bb51b",
                "label": "WeDEX: Beta 2"
            },
            {
                "address": "0x730ea81c982939931d7514cc3fbc22eaf7d372ec",
                "label": "ExchangeV3"
            },
            {
                "address": "0xe9d63969d80da69ecb2ae1fecde31aab0a6f2975",
                "label": "ExchangeDeposits"
            },
            {
                "address": "0x0000000000000000000000000000000000000003",
                "label": "Precompiled"
            },
            {
                "address": "0x36f568ef555df25be4b6e15d16994f3a8374214e",
                "label": "UniversalRegistry"
            },
            {
                "address": "0x0805f5834b37eeea8108ae27755cc4ef27a80fb0",
                "label": "ExchangeAccounts"
            },
            {
                "address": "0x846d938611896188ba18ec69014a5f3801ba5037",
                "label": "ExchangeTokens"
            },
            {
                "address": "0x0000000000000000000000000000000000000001",
                "label": "Precompiled"
            },
            {
                "address": "0x0000000000000000000000000000000000000004",
                "label": "Precompiled"
            }
        ]
    },
    "trace": {
        "accountLabels": null,
        "dataMap": {
            "-1": {
                "invocation": {
                    "address": "0x1a9e68582369ea569c84fb03eeaae3f8ae441e36",
                    "callData": "",
                    "decodedMethod": null,
                    "errorInfo": "",
                    "fromAddress": "",
                    "gasUsed": 0,
                    "id": -1,
                    "methodDecoded": false,
                    "operation": "",
                    "output": "",
                    "revert": false,
                    "revertMessage": "",
                    "selector": "",
                    "status": false,
                    "value": ""
                },
                "nodeType": 0
            },
            "0": {
                "invocation": {
                    "address": "0xd97d09f3bd931a14382ac60f156c1285a56bb51b",
                    "callData": "0x000000000000000000000000e498c0d37e1cab443d7f8bd74bd820bb9d5b6bd600000000000000000000000000000000000000000000000dc53c5424f4ba0000",
                    "decodedMethod": {
                        "callParams": [
                            {
                                "name": "stvId",
                                "type": "address",
                                "value": "0xe498c0d37e1cab443d7f8bd74bd820bb9d5b6bd6"
                            },
                            {
                                "name": "amount",
                                "type": "uint96",
                                "value": "254,020,000,000,000,000,000"
                            }
                        ],
                        "constructorArguments": "",
                        "name": "deposit",
                        "returnParams": [],
                        "signature": "deposit(address,uint96)"
                    },
                    "errorInfo": "",
                    "fromAddress": "0x1a9e68582369ea569c84fb03eeaae3f8ae441e36",
                    "gasUsed": 201412,
                    "id": 0,
                    "methodDecoded": true,
                    "operation": "CALL",
                    "output": "",
                    "revert": false,
                    "revertMessage": "",
                    "selector": "0x3ae50b73",
                    "status": true,
                    "value": "0"
                },
                "nodeType": 0
            },
            "1": {
                "invocation": {
                    "address": "0x36f568ef555df25be4b6e15d16994f3a8374214e",
                    "callData": "0x000000000000000000000000d97d09f3bd931a14382ac60f156c1285a56bb51b",
                    "decodedMethod": {
                        "callParams": [
                            {
                                "name": "exchangeAddress",
                                "type": "address",
                                "value": "0xd97d09f3bd931a14382ac60f156c1285a56bb51b"
                            }
                        ],
                        "constructorArguments": "",
                        "name": "getExchangeProtocol",
                        "returnParams": [
                            {
                                "name": "protocol",
                                "type": "address",
                                "value": "0x18dd1dda037b009f7c1024dddd58e4fe9f960ac7"
                            },
                            {
                                "name": "manager",
                                "type": "address",
                                "value": "0x24ffcf27265c486bbc37ac1485764f80a5b5b65b"
                            }
                        ],
                        "signature": "getExchangeProtocol(address)"
                    },
                    "errorInfo": "",
                    "fromAddress": "0xd97d09f3bd931a14382ac60f156c1285a56bb51b",
                    "gasUsed": 2294,
                    "id": 1,
                    "methodDecoded": true,
                    "operation": "STATICCALL",
                    "output": "0x00000000000000000000000018dd1dda037b009f7c1024dddd58e4fe9f960ac700000000000000000000000024ffcf27265c486bbc37ac1485764f80a5b5b65b",
                    "revert": false,
                    "revertMessage": "",
                    "selector": "0x74e6365e",
                    "status": true,
                    "value": "0"
                },
                "nodeType": 0
            },
            "10": {
                "event": {
                    "contract": "0xd97d09f3bd931a14382ac60f156c1285a56bb51b",
                    "decodedLog": {
                        "name": "DepositRequested",
                        "params": [
                            {
                                "name": "depositIdx",
                                "type": "uint256",
                                "value": "7,453"
                            },
                            {
                                "name": "accountID",
                                "type": "uint24",
                                "value": "124"
                            },
                            {
                                "name": "tokenID",
                                "type": "uint16",
                                "value": "4"
                            },
                            {
                                "name": "amount",
                                "type": "uint96",
                                "value": "254,020,000,000,000,000,000"
                            },
                            {
                                "name": "pubKeyX",
                                "type": "uint256",
                                "value": "773,053,256,213,414,536,922,254,054,866,977,724,539,531,687,143,923,477,972,956,685,424,344,088,568"
                            },
                            {
                                "name": "pubKeyY",
                                "type": "uint256",
                                "value": "9,310,141,830,494,710,669,606,748,784,465,786,915,330,199,179,196,883,340,551,894,292,533,856,560,216"
                            }
                        ],
                        "signature": "DepositRequested(uint256,uint24,uint16,uint96,uint256,uint256)"
                    },
                    "id": 10,
                    "logData": "0x00000000000000000000000000000000000000000000000dc53c5424f4ba000001b5885aed746639404632179709513fd3203423e1472bf8331b08fb52a2bff814955a816a183c0a183cac852fc2522890c9c0b5937d6dcd14ee35bfed89e458",
                    "logDecoded": true,
                    "operation": "EVENT",
                    "revert": false,
                    "status": true,
                    "topics": [
                        "0x42f87b37c498779b1a4c2e55b15a47500174daaa7271cc50ee82d081f4e840ea",
                        "0x0000000000000000000000000000000000000000000000000000000000001d1d",
                        "0x000000000000000000000000000000000000000000000000000000000000007c",
                        "0x0000000000000000000000000000000000000000000000000000000000000004"
                    ]
                },
                "nodeType": 1
            },
            "2": {
                "invocation": {
                    "address": "0x24ffcf27265c486bbc37ac1485764f80a5b5b65b",
                    "callData": "0x",
                    "decodedMethod": {
                        "callParams": [],
                        "constructorArguments": "",
                        "name": "defaultImpl",
                        "returnParams": [
                            {
                                "name": "",
                                "type": "address",
                                "value": "0x730ea81c982939931d7514cc3fbc22eaf7d372ec"
                            }
                        ],
                        "signature": "defaultImpl()"
                    },
                    "errorInfo": "",
                    "fromAddress": "0xd97d09f3bd931a14382ac60f156c1285a56bb51b",
                    "gasUsed": 1082,
                    "id": 2,
                    "methodDecoded": true,
                    "operation": "STATICCALL",
                    "output": "0x000000000000000000000000730ea81c982939931d7514cc3fbc22eaf7d372ec",
                    "revert": false,
                    "revertMessage": "",
                    "selector": "0x631ffbf3",
                    "status": true,
                    "value": "0"
                },
                "nodeType": 0
            },
            "3": {
                "invocation": {
                    "address": "0x730ea81c982939931d7514cc3fbc22eaf7d372ec",
                    "callData": "0x000000000000000000000000e498c0d37e1cab443d7f8bd74bd820bb9d5b6bd600000000000000000000000000000000000000000000000dc53c5424f4ba0000",
                    "decodedMethod": {
                        "callParams": [
                            {
                                "name": "token",
                                "type": "address",
                                "value": "0xe498c0d37e1cab443d7f8bd74bd820bb9d5b6bd6"
                            },
                            {
                                "name": "amount",
                                "type": "uint96",
                                "value": "254,020,000,000,000,000,000"
                            }
                        ],
                        "constructorArguments": "",
                        "name": "deposit",
                        "returnParams": [],
                        "signature": "deposit(address,uint96)"
                    },
                    "errorInfo": "",
                    "fromAddress": "0xd97d09f3bd931a14382ac60f156c1285a56bb51b",
                    "gasUsed": 190415,
                    "id": 3,
                    "methodDecoded": true,
                    "operation": "DELEGATECALL",
                    "output": "",
                    "revert": false,
                    "revertMessage": "",
                    "selector": "0x3ae50b73",
                    "status": true,
                    "value": "0"
                },
                "nodeType": 0
            },
            "4": {
                "invocation": {
                    "address": "0xe9d63969d80da69ecb2ae1fecde31aab0a6f2975",
                    "callData": "0x00000000000000000000000000000000000000000000000000000000000000030000000000000000000000001a9e68582369ea569c84fb03eeaae3f8ae441e36000000000000000000000000e498c0d37e1cab443d7f8bd74bd820bb9d5b6bd600000000000000000000000000000000000000000000000dc53c5424f4ba00000000000000000000000000000000000000000000000000000000000000000000",
                    "decodedMethod": null,
                    "errorInfo": "",
                    "fromAddress": "0xd97d09f3bd931a14382ac60f156c1285a56bb51b",
                    "gasUsed": 166756,
                    "id": 4,
                    "methodDecoded": false,
                    "operation": "DELEGATECALL",
                    "output": "",
                    "revert": false,
                    "revertMessage": "",
                    "selector": "0x8f931682",
                    "status": true,
                    "value": "0"
                },
                "nodeType": 0
            },
            "5": {
                "invocation": {
                    "address": "0x846d938611896188ba18ec69014a5f3801ba5037",
                    "callData": "0x0000000000000000000000000000000000000000000000000000000000000003000000000000000000000000e498c0d37e1cab443d7f8bd74bd820bb9d5b6bd6",
                    "decodedMethod": null,
                    "errorInfo": "",
                    "fromAddress": "0xd97d09f3bd931a14382ac60f156c1285a56bb51b",
                    "gasUsed": 1199,
                    "id": 5,
                    "methodDecoded": false,
                    "operation": "DELEGATECALL",
                    "output": "0x0000000000000000000000000000000000000000000000000000000000000004",
                    "revert": false,
                    "revertMessage": "",
                    "selector": "0x08faabbb",
                    "status": true,
                    "value": "0"
                },
                "nodeType": 0
            },
            "6": {
                "invocation": {
                    "address": "0x0805f5834b37eeea8108ae27755cc4ef27a80fb0",
                    "callData": "0x00000000000000000000000000000000000000000000000000000000000000030000000000000000000000001a9e68582369ea569c84fb03eeaae3f8ae441e36",
                    "decodedMethod": null,
                    "errorInfo": "",
                    "fromAddress": "0xd97d09f3bd931a14382ac60f156c1285a56bb51b",
                    "gasUsed": 1198,
                    "id": 6,
                    "methodDecoded": false,
                    "operation": "DELEGATECALL",
                    "output": "0x000000000000000000000000000000000000000000000000000000000000007c",
                    "revert": false,
                    "revertMessage": "",
                    "selector": "0x666c011a",
                    "status": true,
                    "value": "0"
                },
                "nodeType": 0
            },
            "7": {
                "invocation": {
                    "address": "0xe498c0d37e1cab443d7f8bd74bd820bb9d5b6bd6",
                    "callData": "0x0000000000000000000000001a9e68582369ea569c84fb03eeaae3f8ae441e36000000000000000000000000d97d09f3bd931a14382ac60f156c1285a56bb51b00000000000000000000000000000000000000000000000dc53c5424f4ba0000",
                    "decodedMethod": {
                        "callParams": [
                            {
                                "name": "_from",
                                "type": "address",
                                "value": "0x1a9e68582369ea569c84fb03eeaae3f8ae441e36"
                            },
                            {
                                "name": "_to",
                                "type": "address",
                                "value": "0xd97d09f3bd931a14382ac60f156c1285a56bb51b"
                            },
                            {
                                "decimalAvailable": true,
                                "name": "_value",
                                "type": "uint256",
                                "value": "254,020,000,000,000,000,000"
                            }
                        ],
                        "constructorArguments": "",
                        "name": "transferFrom",
                        "returnParams": [
                            {
                                "name": "",
                                "type": "bool",
                                "value": true
                            }
                        ],
                        "signature": "transferFrom(address,address,uint256)"
                    },
                    "errorInfo": "",
                    "fromAddress": "0xd97d09f3bd931a14382ac60f156c1285a56bb51b",
                    "gasUsed": 17880,
                    "id": 7,
                    "methodDecoded": true,
                    "operation": "CALL",
                    "output": "0x0000000000000000000000000000000000000000000000000000000000000001",
                    "revert": false,
                    "revertMessage": "",
                    "selector": "0x23b872dd",
                    "status": true,
                    "value": "0"
                },
                "nodeType": 0
            },
            "8": {
                "event": {
                    "contract": "0xe498c0d37e1cab443d7f8bd74bd820bb9d5b6bd6",
                    "decodedLog": {
                        "name": "Transfer",
                        "params": [
                            {
                                "name": "_from",
                                "type": "address",
                                "value": "0x1a9e68582369ea569c84fb03eeaae3f8ae441e36"
                            },
                            {
                                "name": "_to",
                                "type": "address",
                                "value": "0xd97d09f3bd931a14382ac60f156c1285a56bb51b"
                            },
                            {
                                "decimalAvailable": true,
                                "name": "_value",
                                "type": "uint256",
                                "value": "254,020,000,000,000,000,000"
                            }
                        ],
                        "signature": "Transfer(address,address,uint256)"
                    },
                    "id": 8,
                    "logData": "0x00000000000000000000000000000000000000000000000dc53c5424f4ba0000",
                    "logDecoded": true,
                    "operation": "EVENT",
                    "revert": false,
                    "status": true,
                    "topics": [
                        "0xddf252ad1be2c89b69c2b068fc378daa952ba7f163c4a11628f55a4df523b3ef",
                        "0x0000000000000000000000001a9e68582369ea569c84fb03eeaae3f8ae441e36",
                        "0x000000000000000000000000d97d09f3bd931a14382ac60f156c1285a56bb51b"
                    ]
                },
                "nodeType": 1
            },
            "9": {
                "invocation": {
                    "address": "0x0000000000000000000000000000000000000002",
                    "callData": "0xb6d4fc838ac497bbbc5ad503284e070c89fc217faf452a3ad4ef368b00007c01b5885aed746639404632179709513fd3203423e1472bf8331b08fb52a2bff814955a816a183c0a183cac852fc2522890c9c0b5937d6dcd14ee35bfed89e458040000000dc53c5424f4ba0000",
                    "decodedMethod": {
                        "callParams": [
                            {
                                "name": "data",
                                "type": "bytes",
                                "value": "0xb09c8a63b6d4fc838ac497bbbc5ad503284e070c89fc217faf452a3ad4ef368b00007c01b5885aed746639404632179709513fd3203423e1472bf8331b08fb52a2bff814955a816a183c0a183cac852fc2522890c9c0b5937d6dcd14ee35bfed89e458040000000dc53c5424f4ba0000"
                            }
                        ],
                        "constructorArguments": "",
                        "name": "sha256hash",
                        "returnParams": [
                            {
                                "name": "hash",
                                "type": "bytes32",
                                "value": "0xdc8d3314b55ba6a5d4a8b20fb70602f6245a0ad52de0f5d06ab3bc8d6ad0d0bf"
                            }
                        ],
                        "signature": "sha256hash(bytes)"
                    },
                    "errorInfo": "",
                    "fromAddress": "0xd97d09f3bd931a14382ac60f156c1285a56bb51b",
                    "gasUsed": 108,
                    "id": 9,
                    "methodDecoded": true,
                    "operation": "STATICCALL",
                    "output": "0xdc8d3314b55ba6a5d4a8b20fb70602f6245a0ad52de0f5d06ab3bc8d6ad0d0bf",
                    "revert": false,
                    "revertMessage": "",
                    "selector": "0xb09c8a63",
                    "status": true,
                    "value": "0"
                },
                "nodeType": 0
            }
        },
        "gasFlame": [
            {
                "children": [
                    {
                        "children": [
                            {
                                "children": [],
                                "depth": 0,
                                "name": "Initial Gas",
                                "value": 21644
                            },
                            {
                                "children": [
                                    {
                                        "children": [],
                                        "depth": 1,
                                        "name": "getExchangeProtocol",
                                        "value": 2294
                                    },
                                    {
                                        "children": [],
                                        "depth": 1,
                                        "name": "defaultImpl",
                                        "value": 1082
                                    },
                                    {
                                        "children": [
                                            {
                                                "children": [
                                                    {
                                                        "children": [],
                                                        "depth": 3,
                                                        "name": "0x08faabbb",
                                                        "value": 1199
                                                    },
                                                    {
                                                        "children": [],
                                                        "depth": 3,
                                                        "name": "0x666c011a",
                                                        "value": 1198
                                                    },
                                                    {
                                                        "children": [],
                                                        "depth": 3,
                                                        "name": "transferFrom",
                                                        "value": 17880
                                                    },
                                                    {
                                                        "children": [],
                                                        "depth": 3,
                                                        "name": "sha256hash",
                                                        "value": 108
                                                    }
                                                ],
                                                "depth": 2,
                                                "name": "0x8f931682",
                                                "value": 166756
                                            }
                                        ],
                                        "depth": 1,
                                        "name": "deposit",
                                        "value": 190415
                                    }
                                ],
                                "depth": 0,
                                "name": "Executed Gas",
                                "value": 198968
                            }
                        ],
                        "depth": -1,
                        "name": "Actual Gas Used",
                        "value": 201412
                    },
                    {
                        "children": [],
                        "depth": -1,
                        "name": "Refunded Gas",
                        "value": 19200
                    }
                ],
                "depth": -2,
                "name": "Total Gas",
                "value": 220612
            }
        ],
        "isConfirmed": true,
        "mainTrace": [
            {
                "children": [
                    {
                        "children": [
                            {
                                "children": [],
                                "depth": 1,
                                "id": 1,
                                "order": 1
                            },
                            {
                                "children": [],
                                "depth": 1,
                                "id": 2,
                                "order": 2
                            },
                            {
                                "children": [
                                    {
                                        "children": [
                                            {
                                                "children": [],
                                                "depth": 3,
                                                "id": 5,
                                                "order": 5
                                            },
                                            {
                                                "children": [],
                                                "depth": 3,
                                                "id": 6,
                                                "order": 6
                                            },
                                            {
                                                "children": [
                                                    {
                                                        "children": [],
                                                        "depth": 4,
                                                        "id": 8,
                                                        "order": 8
                                                    }
                                                ],
                                                "depth": 3,
                                                "id": 7,
                                                "order": 7
                                            },
                                            {
                                                "children": [],
                                                "depth": 3,
                                                "id": 9,
                                                "order": 9
                                            },
                                            {
                                                "children": [],
                                                "depth": 3,
                                                "id": 10,
                                                "order": 10
                                            }
                                        ],
                                        "depth": 2,
                                        "id": 4,
                                        "order": 4
                                    }
                                ],
                                "depth": 1,
                                "id": 3,
                                "order": 3
                            }
                        ],
                        "depth": 0,
                        "id": 0,
                        "order": 0
                    }
                ],
                "depth": -1,
                "id": -1,
                "order": -1
            }
        ],
        "mainTraceNodeCount": 11,
        "parentIdMap": {
            "0": -1,
            "1": 0,
            "10": 4,
            "2": 0,
            "3": 0,
            "4": 3,
            "5": 4,
            "6": 4,
            "7": 4,
            "8": 7,
            "9": 4
        },
        "tidyTrace": [
            {
                "children": [
                    {
                        "children": [
                            {
                                "children": [
                                    {
                                        "children": [
                                            {
                                                "children": [],
                                                "depth": 3,
                                                "id": 5,
                                                "order": 5
                                            },
                                            {
                                                "children": [],
                                                "depth": 3,
                                                "id": 6,
                                                "order": 6
                                            },
                                            {
                                                "children": [
                                                    {
                                                        "children": [],
                                                        "depth": 4,
                                                        "id": 8,
                                                        "order": 8
                                                    }
                                                ],
                                                "depth": 3,
                                                "id": 7,
                                                "order": 7
                                            },
                                            {
                                                "children": [],
                                                "depth": 3,
                                                "id": 10,
                                                "order": 10
                                            }
                                        ],
                                        "depth": 2,
                                        "id": 4,
                                        "order": 4
                                    }
                                ],
                                "depth": 1,
                                "id": 3,
                                "order": 3
                            }
                        ],
                        "depth": 0,
                        "id": 0,
                        "order": 0
                    }
                ],
                "depth": -1,
                "id": -1,
                "order": -1
            }
        ],
        "tidyTraceNodeCount": 8
    },
    "state_change": {
        "stateChanges": [
            {
                "address": "0xd97d09f3bd931a14382ac60f156c1285a56bb51b",
                "erc": "",
                "slots": [
                    {
                        "current": "0x000000000000000000000000000000000000000000000000000000005e895cf3",
                        "key": "0x55f448fdea98c4d29eb340757ef0a66cd03dbb9538908a6a81d96026b71f1bce",
                        "prev": "0x0000000000000000000000000000000000000000000000000000000000000000"
                    },
                    {
                        "current": "0x0000000000000000000000000000000000000000000000000000000000001d1d",
                        "key": "0x0000000000000000000000000000000000000000000000000000000000000014",
                        "prev": "0x0000000000000000000000000000000000000000000000000000000000001d1c"
                    },
                    {
                        "current": "0x0000000000000000000000000000000000000dc53c5424f4ba0000000400007c",
                        "key": "0xce6d7b5282bd9a3661ae061feed1dbda4e52ab073b1f9285be6e155d9c38f208",
                        "prev": "0x0000000000000000000000000000000000000000000000000000000000000000"
                    },
                    {
                        "current": "0x00000000000000000000000000000000000000000000b293be3e8ed689c49000",
                        "key": "0xa076a845b1eb42944af924fbfde5b2d8ce8f28d9c392b7f31e5efbb8415fdb1e",
                        "prev": "0x00000000000000000000000000000000000000000000b285f9023ab1950a9000"
                    },
                    {
                        "current": "0x0000000000000000000000000000000000000000000000000000000000001d1e",
                        "key": "0x0000000000000000000000000000000000000000000000000000000000000015",
                        "prev": "0x0000000000000000000000000000000000000000000000000000000000001d1d"
                    },
                    {
                        "current": "0xdc8d3314b55ba6a5d4a8b20fb70602f6245a0ad52de0f5d06ab3bc8d6ad0d0bf",
                        "key": "0x55f448fdea98c4d29eb340757ef0a66cd03dbb9538908a6a81d96026b71f1bcc",
                        "prev": "0x0000000000000000000000000000000000000000000000000000000000000000"
                    },
                    {
                        "current": "0x00000000000000000000000000000000000000000000000070c1cc73b00c8000",
                        "key": "0x55f448fdea98c4d29eb340757ef0a66cd03dbb9538908a6a81d96026b71f1bcd",
                        "prev": "0x0000000000000000000000000000000000000000000000000000000000000000"
                    }
                ],
                "storageVariables": []
            },
            {
                "address": "0xe498c0d37e1cab443d7f8bd74bd820bb9d5b6bd6",
                "erc": "ERC-20",
                "slots": [
                    {
                        "current": "0x0000000000000000000000000000000000000000000000000000a8a3753bf800",
                        "key": "0xfbbb75ab5ab6e318ae98e0c3e113d319c5f4cbc39d14e7a2bbaa7408cec804dd",
                        "prev": "0x00000000000000000000000000000000000000000000000dc53cfcc869f5f800"
                    },
                    {
                        "current": "0x00000000000000000000000000000000000000000000b293be3e8ed689c49000",
                        "key": "0x2667a74738f8dceb07f3ebfd506850b337b971ba359fd40545fff80cc077dfbc",
                        "prev": "0x00000000000000000000000000000000000000000000b285f9023ab1950a9000"
                    }
                ],
                "storageVariables": [
                    {
                        "name": "balances",
                        "type": "mapping(address => uint256)",
                        "value": {
                            "pairs": [
                                {
                                    "key": "0x1a9e68582369ea569c84fb03eeaae3f8ae441e36",
                                    "value": {
                                        "current": "185420000000000",
                                        "prev": "254020185420000000000",
                                        "typeTag": 1
                                    }
                                },
                                {
                                    "key": "0xd97d09f3bd931a14382ac60f156c1285a56bb51b",
                                    "value": {
                                        "current": "843306613881000000000000",
                                        "prev": "843052593881000000000000",
                                        "typeTag": 1
                                    }
                                }
                            ],
                            "typeTag": 4
                        }
                    }
                ]
            }
        ]
    }
}