{
    "balance_change": {
        "balanceChanges": [
            {
                "account": "0x5db843004464572ac1690205fdd7be596fb4fc04",
                "assets": [
                    {
                        "address": "0x93e682107d1e9defb0b5ee701c71707a4b2e46bc",
                        "amount": "11.8604",
                        "iconUrl": "",
                        "isERC1155": false,
                        "isERC721": false,
                        "sign": false,
                        "value": ""
                    }
                ]
            },
            {
                "account": "0x10b86f533919183f052c1bd99961c05379a01bfc",
                "assets": [
                    {
                        "address": "0x93e682107d1e9defb0b5ee701c71707a4b2e46bc",
                        "amount": "11.8604",
                        "iconUrl": "",
                        "isERC1155": false,
                        "isERC721": false,
                        "sign": true,
                        "value": ""
                    }
                ]
            }
        ]
    },
    "profile": {
        "basic_info": {
            "baseFee": "",
            "blockNumber": 4531192,
            "callData": "0xa9059cbb00000000000000000000000010b86f533919183f052c1bd99961c05379a01bfc0000000000000000000000000000000000000000000000000000000046b188c0",
            "debugEnable": true,
            "errorInfo": "",
            "eventCount": 1,
            "feeRecipient": "0x829bd824b016326a401d083b33d092293333a830",
            "formatValue": "0",
            "gasLimit": 70000,
            "gasPrice": "4",
            "gasUsed": 21792,
            "intTxnCount": 0,
            "internalRevert": false,
            "internalRevertMessage": "",
            "isContractCreation": false,
            "isFlashloan": false,
            "maxFee": "",
            "nonce": 0,
            "overwritedBlockNumber": -1,
            "priorityFee": "",
            "receiver": "0x93e682107d1e9defb0b5ee701c71707a4b2e46bc",
            "revertMessage": "",
            "sender": "0x5db843004464572ac1690205fdd7be596fb4fc04",
            "simulationEnable": true,
            "sourceTxnHash": "0x35b4c54e53dddbb005230c66e89ae1d1a1661a9b83dfa9795ed5c8cdb3a57a1a",
            "status": true,
            "timestamp": "2017-11-11T08:02:53Z",
            "transactionFee": "0.000087168",
            "txnHash": "0x35b4c54e53dddbb005230c66e89ae1d1a1661a9b83dfa9795ed5c8cdb3a57a1a",
            "txnIndex": 57,
            "type": 0,
            "value": "0"
        },
        "fund_flow": [
            {
                "amount": "11.8604",
                "from": "0x5db843004464572ac1690205fdd7be596fb4fc04",
                "id": 1,
                "isERC1155": false,
                "isERC721": false,
                "isReverted": false,
                "order": 1,
                "to": "0x10b86f533919183f052c1bd99961c05379a01bfc",
                "token": "0x93e682107d1e9defb0b5ee701c71707a4b2e46bc"
            }
        ],
        "token_infos": [
            {
                "address": "0x93e682107d1e9defb0b5ee701c71707a4b2e46bc",
                "decimals": 8
            },
            {
                "address": "0xc02aaa39b223fe8d0a0e5c4f27ead9083c756cc2",
                "decimals": 18
            },
            {
                "address": "0xeeeeeeeeeeeeeeeeeeeeeeeeeeeeeeeeeeeeeeee",
                "decimals": 18
            }
        ]
    },
    "address_label": {
        "labels": [
            {
                "address": "0xeeeeeeeeeeeeeeeeeeeeeeeeeeeeeeeeeeeeeeee",
                "label": "Ether"
            },
            {
                "address": "0x93e682107d1e9defb0b5ee701c71707a4b2e46bc",
                "label": "MCAP"
            },
            {
                "address": "0x0000000000000000000000000000000000000001",
                "label": "Precompiled"
            },
            {
                "address": "0x0000000000000000000000000000000000000002",
                "label": "Precompiled"
            },
            {
                "address": "0x0000000000000000000000000000000000000003",
                "label": "Precompiled"
            },
            {
                "address": "0x0000000000000000000000000000000000000004",
                "label": "Precompiled"
            }
        ]
    },
    "trace": {
        "accountLabels": null,
        "dataMap": {
            "-1": {
                "invocation": {
                    "address": "0x5db843004464572ac1690205fdd7be596fb4fc04",
                    "callData": "",
                    "decodedMethod": null,
                    "errorInfo": "",
                    "fromAddress": "",
                    "gasUsed": 0,
                    "id": -1,
                    "methodDecoded": false,
                    "operation": "",
                    "output": "",
                    "revert": false,
                    "revertMessage": "",
                    "selector": "",
                    "status": false,
                    "value": ""
                },
                "nodeType": 0
            },
            "0": {
                "invocation": {
                    "address": "0x93e682107d1e9defb0b5ee701c71707a4b2e46bc",
                    "callData": "0x00000000000000000000000010b86f533919183f052c1bd99961c05379a01bfc0000000000000000000000000000000000000000000000000000000046b188c0",
                    "decodedMethod": {
                        "callParams": [
                            {
                                "name": "_to",
                                "type": "address",
                                "value": "0x10b86f533919183f052c1bd99961c05379a01bfc"
                            },
                            {
                                "decimalAvailable": true,
                                "name": "_value",
                                "type": "uint256",
                                "value": "1,186,040,000"
                            }
                        ],
                        "constructorArguments": "",
                        "name": "transfer",
                        "returnParams": [],
                        "signature": "transfer(address,uint256)"
                    },
                    "errorInfo": "",
                    "fromAddress": "0x5db843004464572ac1690205fdd7be596fb4fc04",
                    "gasUsed": 21792,
                    "id": 0,
                    "methodDecoded": true,
                    "operation": "CALL",
                    "output": "",
                    "revert": false,
                    "revertMessage": "",
                    "selector": "0xa9059cbb",
                    "status": true,
                    "value": "0"
                },
                "nodeType": 0
            },
            "1": {
                "event": {
                    "contract": "0x93e682107d1e9defb0b5ee701c71707a4b2e46bc",
                    "decodedLog": {
                        "name": "Transfer",
                        "params": [
                            {
                                "name": "from",
                                "type": "address",
                                "value": "0x5db843004464572ac1690205fdd7be596fb4fc04"
                            },
                            {
                                "name": "to",
                                "type": "address",
                                "value": "0x10b86f533919183f052c1bd99961c05379a01bfc"
                            },
                            {
                                "decimalAvailable": true,
                                "name": "value",
                                "type": "uint256",
                                "value": "1,186,040,000"
                            }
                        ],
                        "signature": "Transfer(address,address,uint256)"
                    },
                    "id": 1,
                    "logData": "0x0000000000000000000000000000000000000000000000000000000046b188c0",
                    "logDecoded": true,
                    "operation": "EVENT",
                    "revert": false,
                    "status": true,
                    "topics": [
                        "0xddf252ad1be2c89b69c2b068fc378daa952ba7f163c4a11628f55a4df523b3ef",
                        "0x0000000000000000000000005db843004464572ac1690205fdd7be596fb4fc04",
                        "0x00000000000000000000000010b86f533919183f052c1bd99961c05379a01bfc"
                    ]
                },
                "nodeType": 1
            }
        },
        "gasFlame": [
            {
                "children": [
                    {
                        "children": [
                            {
                                "children": [],
                                "depth": 0,
                                "name": "Initial Gas",
                                "value": 23064
                            },
                            {
                                "children": [],
                                "depth": 0,
                                "name": "Executed Gas",
                                "value": 13728
                            }
                        ],
                        "depth": -1,
                        "name": "Actual Gas Used",
                        "value": 21792
                    },
                    {
                        "children": [],
                        "depth": -1,
                        "name": "Refunded Gas",
                        "value": 15000
                    }
                ],
                "depth": -2,
                "name": "Total Gas",
                "value": 36792
            }
        ],
        "isConfirmed": true,
        "mainTrace": [
            {
                "children": [
                    {
                        "children": [
                            {
                                "children": [],
                                "depth": 1,
                                "id": 1,
                                "order": 1
                            }
                        ],
                        "depth": 0,
                        "id": 0,
                        "order": 0
                    }
                ],
                "depth": -1,
                "id": -1,
                "order": -1
            }
        ],
        "mainTraceNodeCount": 2,
        "parentIdMap": {
            "0": -1,
            "1": 0
        },
        "tidyTrace": [
            {
                "children": [
                    {
                        "children": [
                            {
                                "children": [],
                                "depth": 1,
                                "id": 1,
                                "order": 1
                            }
                        ],
                        "depth": 0,
                        "id": 0,
                        "order": 0
                    }
                ],
                "depth": -1,
                "id": -1,
                "order": -1
            }
        ],
        "tidyTraceNodeCount": 2
    },
    "state_change": {
        "stateChanges": [
            {
                "address": "0x93e682107d1e9defb0b5ee701c71707a4b2e46bc",
                "erc": "",
                "slots": [
                    {
                        "current": "0x0000000000000000000000000000000000000000000000000000000000000000",
                        "key": "0x90310e5dededf1d712be9b300c7e0666d1d10539eb50480012270f79e4d87abc",
                        "prev": "0x0000000000000000000000000000000000000000000000000000000046b188c0"
                    },
                    {
                        "current": "0x0000000000000000000000000000000000000000000000000007dedf4b4f66a1",
                        "key": "0x88c8eb4fbbba24aaef40981ddba9113a1a107814313f084e29ad0806dd1e907d",
                        "prev": "0x0000000000000000000000000000000000000000000000000007dedf049ddde1"
                    }
                ],
                "storageVariables": []
            }
        ]
    }
}