{
    "balance_change": {
        "balanceChanges": [
            {
                "account": "0x9e350f193a71f11102d4a079dae8d5943dbe48aa",
                "assets": [
                    {
                        "address": "0xbdc5bac39dbe132b1e030e898ae3830017d7d969",
                        "amount": "5,750",
                        "iconUrl": "",
                        "isERC1155": false,
                        "isERC721": false,
                        "sign": false,
                        "value": ""
                    }
                ]
            },
            {
                "account": "0x5e9a3586c5e3556cea13ecec2eec26ea250e4307",
                "assets": [
                    {
                        "address": "0xbdc5bac39dbe132b1e030e898ae3830017d7d969",
                        "amount": "5,750",
                        "iconUrl": "",
                        "isERC1155": false,
                        "isERC721": false,
                        "sign": true,
                        "value": ""
                    }
                ]
            }
        ]
    },
    "profile": {
        "basic_info": {
            "baseFee": "",
            "blockNumber": 9632452,
            "callData": "0xa9059cbb0000000000000000000000005e9a3586c5e3556cea13ecec2eec26ea250e4307000000000000000000000000000000000000000000000137b547a731c0180000",
            "debugEnable": true,
            "errorInfo": "",
            "eventCount": 1,
            "feeRecipient": "0xea674fdde714fd979de3edf0f56aa9716b898ec8",
            "formatValue": "0",
            "gasLimit": 54338,
            "gasPrice": "15",
            "gasUsed": 39338,
            "intTxnCount": 0,
            "internalRevert": false,
            "internalRevertMessage": "",
            "isContractCreation": false,
            "isFlashloan": false,
            "maxFee": "",
            "nonce": 45,
            "overwritedBlockNumber": -1,
            "priorityFee": "",
            "receiver": "0xbdc5bac39dbe132b1e030e898ae3830017d7d969",
            "revertMessage": "",
            "sender": "0x9e350f193a71f11102d4a079dae8d5943dbe48aa",
            "simulationEnable": true,
            "sourceTxnHash": "0x3631abb651ab37e21a26b378d4c08628c7eb0ff26cb413ba7eb53afd6750dda3",
            "status": true,
            "timestamp": "2020-03-08T18:38:18Z",
            "transactionFee": "0.00059007",
            "txnHash": "0x3631abb651ab37e21a26b378d4c08628c7eb0ff26cb413ba7eb53afd6750dda3",
            "txnIndex": 33,
            "type": 0,
            "value": "0"
        },
        "fund_flow": [
            {
                "amount": "5,750",
                "from": "0x9e350f193a71f11102d4a079dae8d5943dbe48aa",
                "id": 1,
                "isERC1155": false,
                "isERC721": false,
                "isReverted": false,
                "order": 1,
                "to": "0x5e9a3586c5e3556cea13ecec2eec26ea250e4307",
                "token": "0xbdc5bac39dbe132b1e030e898ae3830017d7d969"
            }
        ],
        "token_infos": [
            {
                "address": "0xbdc5bac39dbe132b1e030e898ae3830017d7d969",
                "decimals": 18
            },
            {
                "address": "0xc02aaa39b223fe8d0a0e5c4f27ead9083c756cc2",
                "decimals": 18
            },
            {
                "address": "0xeeeeeeeeeeeeeeeeeeeeeeeeeeeeeeeeeeeeeeee",
                "decimals": 18
            }
        ]
    },
    "address_label": {
        "labels": [
            {
                "address": "0xeeeeeeeeeeeeeeeeeeeeeeeeeeeeeeeeeeeeeeee",
                "label": "Ether"
            },
            {
                "address": "0xbdc5bac39dbe132b1e030e898ae3830017d7d969",
                "label": "Snovian.space: SNOV Token"
            },
            {
                "address": "0x0000000000000000000000000000000000000001",
                "label": "Precompiled"
            },
            {
                "address": "0x0000000000000000000000000000000000000002",
                "label": "Precompiled"
            },
            {
                "address": "0x0000000000000000000000000000000000000003",
                "label": "Precompiled"
            },
            {
                "address": "0x0000000000000000000000000000000000000004",
                "label": "Precompiled"
            }
        ]
    },
    "trace": {
        "accountLabels": null,
        "dataMap": {
            "-1": {
                "invocation": {
                    "address": "0x9e350f193a71f11102d4a079dae8d5943dbe48aa",
                    "callData": "",
                    "decodedMethod": null,
                    "errorInfo": "",
                    "fromAddress": "",
                    "gasUsed": 0,
                    "id": -1,
                    "methodDecoded": false,
                    "operation": "",
                    "output": "",
                    "revert": false,
                    "revertMessage": "",
                    "selector": "",
                    "status": false,
                    "value": ""
                },
                "nodeType": 0
            },
            "0": {
                "invocation": {
                    "address": "0xbdc5bac39dbe132b1e030e898ae3830017d7d969",
                    "callData": "0x0000000000000000000000005e9a3586c5e3556cea13ecec2eec26ea250e4307000000000000000000000000000000000000000000000137b547a731c0180000",
                    "decodedMethod": {
                        "callParams": [
                            {
                                "name": "_to",
                                "type": "address",
                                "value": "0x5e9a3586c5e3556cea13ecec2eec26ea250e4307"
                            },
                            {
                                "decimalAvailable": true,
                                "name": "_value",
                                "type": "uint256",
                                "value": "5,750,000,000,000,000,000,000"
                            }
                        ],
                        "constructorArguments": "",
                        "name": "transfer",
                        "returnParams": [
                            {
                                "name": "",
                                "type": "bool",
                                "value": true
                            }
                        ],
                        "signature": "transfer(address,uint256)"
                    },
                    "errorInfo": "",
                    "fromAddress": "0x9e350f193a71f11102d4a079dae8d5943dbe48aa",
                    "gasUsed": 39338,
                    "id": 0,
                    "methodDecoded": true,
                    "operation": "CALL",
                    "output": "0x0000000000000000000000000000000000000000000000000000000000000001",
                    "revert": false,
                    "revertMessage": "",
                    "selector": "0xa9059cbb",
                    "status": true,
                    "value": "0"
                },
                "nodeType": 0
            },
            "1": {
                "event": {
                    "contract": "0xbdc5bac39dbe132b1e030e898ae3830017d7d969",
                    "decodedLog": {
                        "name": "Transfer",
                        "params": [
                            {
                                "name": "_from",
                                "type": "address",
                                "value": "0x9e350f193a71f11102d4a079dae8d5943dbe48aa"
                            },
                            {
                                "name": "_to",
                                "type": "address",
                                "value": "0x5e9a3586c5e3556cea13ecec2eec26ea250e4307"
                            },
                            {
                                "decimalAvailable": true,
                                "name": "_value",
                                "type": "uint256",
                                "value": "5,750,000,000,000,000,000,000"
                            }
                        ],
                        "signature": "Transfer(address,address,uint256)"
                    },
                    "id": 1,
                    "logData": "0x000000000000000000000000000000000000000000000137b547a731c0180000",
                    "logDecoded": true,
                    "operation": "EVENT",
                    "revert": false,
                    "status": true,
                    "topics": [
                        "0xddf252ad1be2c89b69c2b068fc378daa952ba7f163c4a11628f55a4df523b3ef",
                        "0x0000000000000000000000009e350f193a71f11102d4a079dae8d5943dbe48aa",
                        "0x0000000000000000000000005e9a3586c5e3556cea13ecec2eec26ea250e4307"
                    ]
                },
                "nodeType": 1
            }
        },
        "gasFlame": [
            {
                "children": [
                    {
                        "children": [
                            {
                                "children": [],
                                "depth": 0,
                                "name": "Initial Gas",
                                "value": 21656
                            },
                            {
                                "children": [],
                                "depth": 0,
                                "name": "Executed Gas",
                                "value": 32682
                            }
                        ],
                        "depth": -1,
                        "name": "Actual Gas Used",
                        "value": 39338
                    },
                    {
                        "children": [],
                        "depth": -1,
                        "name": "Refunded Gas",
                        "value": 15000
                    }
                ],
                "depth": -2,
                "name": "Total Gas",
                "value": 54338
            }
        ],
        "isConfirmed": true,
        "mainTrace": [
            {
                "children": [
                    {
                        "children": [
                            {
                                "children": [],
                                "depth": 1,
                                "id": 1,
                                "order": 1
                            }
                        ],
                        "depth": 0,
                        "id": 0,
                        "order": 0
                    }
                ],
                "depth": -1,
                "id": -1,
                "order": -1
            }
        ],
        "mainTraceNodeCount": 2,
        "parentIdMap": {
            "0": -1,
            "1": 0
        },
        "tidyTrace": [
            {
                "children": [
                    {
                        "children": [
                            {
                                "children": [],
                                "depth": 1,
                                "id": 1,
                                "order": 1
                            }
                        ],
                        "depth": 0,
                        "id": 0,
                        "order": 0
                    }
                ],
                "depth": -1,
                "id": -1,
                "order": -1
            }
        ],
        "tidyTraceNodeCount": 2
    },
    "state_change": {
        "stateChanges": [
            {
                "address": "0xbdc5bac39dbe132b1e030e898ae3830017d7d969",
                "erc": "ERC-20",
                "slots": [
                    {
                        "current": "0x0000000000000000000000000000000000000000000000000000000000000000",
                        "key": "0x5a179e9556d27cab2f65aea25f1af32f5ddd8c3c54b1ac293adae6ca1fc2475c",
                        "prev": "0x000000000000000000000000000000000000000000000137b547a731c0180000"
                    },
                    {
                        "current": "0x000000000000000000000000000000000000000000000137b547a731c0180000",
                        "key": "0xa84c615190e5277de0506d487db832a38abe6bbf4fb37fd5f6f558903be6580a",
                        "prev": "0x0000000000000000000000000000000000000000000000000000000000000000"
                    }
                ],
                "storageVariables": [
                    {
                        "name": "balances",
                        "type": "mapping(address => uint256)",
                        "value": {
                            "pairs": [
                                {
                                    "key": "0x5e9a3586c5e3556cea13ecec2eec26ea250e4307",
                                    "value": {
                                        "current": "5750000000000000000000",
                                        "prev": "0",
                                        "typeTag": 1
                                    }
                                },
                                {
                                    "key": "0x9e350f193a71f11102d4a079dae8d5943dbe48aa",
                                    "value": {
                                        "current": "0",
                                        "prev": "5750000000000000000000",
                                        "typeTag": 1
                                    }
                                }
                            ],
                            "typeTag": 4
                        }
                    }
                ]
            }
        ]
    }
}