{
    "balance_change": {
        "balanceChanges": [
            {
                "account": "0xd845fc80e906d308e26aef937922759f8a2a9a3d",
                "assets": [
                    {
                        "address": "0xaa7fb1c8ce6f18d4fd4aabb61a2193d4d441c54f",
                        "amount": "3,450,000",
                        "iconUrl": "",
                        "isERC1155": false,
                        "isERC721": false,
                        "sign": true,
                        "value": ""
                    }
                ]
            },
            {
                "account": "0xd07e21dcddc9b816a04b023b0722c7044307ba04",
                "assets": [
                    {
                        "address": "0xaa7fb1c8ce6f18d4fd4aabb61a2193d4d441c54f",
                        "amount": "6,900,000",
                        "iconUrl": "",
                        "isERC1155": false,
                        "isERC721": false,
                        "sign": true,
                        "value": ""
                    }
                ]
            },
            {
                "account": "0xaa7fb1c8ce6f18d4fd4aabb61a2193d4d441c54f",
                "assets": [
                    {
                        "address": "0xaa7fb1c8ce6f18d4fd4aabb61a2193d4d441c54f",
                        "amount": "10,350,000",
                        "iconUrl": "",
                        "isERC1155": false,
                        "isERC721": false,
                        "sign": false,
                        "value": ""
                    }
                ]
            }
        ]
    },
    "profile": {
        "basic_info": {
            "baseFee": "",
            "blockNumber": 8375607,
            "callData": "0x069f5bdd000000000000000000000000d845fc80e906d308e26aef937922759f8a2a9a3d",
            "debugEnable": true,
            "errorInfo": "",
            "eventCount": 2,
            "feeRecipient": "0x5a0b54d5dc17e0aadc383d2db43b0a0d3e029c4c",
            "formatValue": "0",
            "gasLimit": 76244,
            "gasPrice": "1.1",
            "gasUsed": 71244,
            "intTxnCount": 0,
            "internalRevert": false,
            "internalRevertMessage": "",
            "isContractCreation": false,
            "isFlashloan": false,
            "maxFee": "",
            "nonce": 3,
            "overwritedBlockNumber": -1,
            "priorityFee": "",
            "receiver": "0xaa7fb1c8ce6f18d4fd4aabb61a2193d4d441c54f",
            "revertMessage": "",
            "sender": "0xd07e21dcddc9b816a04b023b0722c7044307ba04",
            "simulationEnable": true,
            "sourceTxnHash": "0x36b5d6f1f22ec1aed51dc375ae69c56de83facccd8efe48071289cd3a6e66d00",
            "status": true,
            "timestamp": "2019-08-18T17:09:28Z",
            "transactionFee": "0.0000783684",
            "txnHash": "0x36b5d6f1f22ec1aed51dc375ae69c56de83facccd8efe48071289cd3a6e66d00",
            "txnIndex": 18,
            "type": 0,
            "value": "0"
        },
        "fund_flow": [
            {
                "amount": "3,450,000",
                "from": "0xaa7fb1c8ce6f18d4fd4aabb61a2193d4d441c54f",
                "id": 1,
                "isERC1155": false,
                "isERC721": false,
                "isReverted": false,
                "order": 1,
                "to": "0xd845fc80e906d308e26aef937922759f8a2a9a3d",
                "token": "0xaa7fb1c8ce6f18d4fd4aabb61a2193d4d441c54f"
            },
            {
                "amount": "6,900,000",
                "from": "0xaa7fb1c8ce6f18d4fd4aabb61a2193d4d441c54f",
                "id": 2,
                "isERC1155": false,
                "isERC721": false,
                "isReverted": false,
                "order": 2,
                "to": "0xd07e21dcddc9b816a04b023b0722c7044307ba04",
                "token": "0xaa7fb1c8ce6f18d4fd4aabb61a2193d4d441c54f"
            }
        ],
        "token_infos": [
            {
                "address": "0xaa7fb1c8ce6f18d4fd4aabb61a2193d4d441c54f",
                "decimals": 6
            },
            {
                "address": "0xc02aaa39b223fe8d0a0e5c4f27ead9083c756cc2",
                "decimals": 18
            },
            {
                "address": "0xeeeeeeeeeeeeeeeeeeeeeeeeeeeeeeeeeeeeeeee",
                "decimals": 18
            }
        ]
    },
    "address_label": {
        "labels": [
            {
                "address": "0x0000000000000000000000000000000000000001",
                "label": "Precompiled"
            },
            {
                "address": "0x0000000000000000000000000000000000000002",
                "label": "Precompiled"
            },
            {
                "address": "0x0000000000000000000000000000000000000003",
                "label": "Precompiled"
            },
            {
                "address": "0x0000000000000000000000000000000000000004",
                "label": "Precompiled"
            },
            {
                "address": "0xeeeeeeeeeeeeeeeeeeeeeeeeeeeeeeeeeeeeeeee",
                "label": "Ether"
            },
            {
                "address": "0xaa7fb1c8ce6f18d4fd4aabb61a2193d4d441c54f",
                "label": "ShitCoin (SHIT)"
            }
        ]
    },
    "trace": {
        "accountLabels": null,
        "dataMap": {
            "-1": {
                "invocation": {
                    "address": "0xd07e21dcddc9b816a04b023b0722c7044307ba04",
                    "callData": "",
                    "decodedMethod": null,
                    "errorInfo": "",
                    "fromAddress": "",
                    "gasUsed": 0,
                    "id": -1,
                    "methodDecoded": false,
                    "operation": "",
                    "output": "",
                    "revert": false,
                    "revertMessage": "",
                    "selector": "",
                    "status": false,
                    "value": ""
                },
                "nodeType": 0
            },
            "0": {
                "invocation": {
                    "address": "0xaa7fb1c8ce6f18d4fd4aabb61a2193d4d441c54f",
                    "callData": "0x000000000000000000000000d845fc80e906d308e26aef937922759f8a2a9a3d",
                    "decodedMethod": {
                        "callParams": [
                            {
                                "name": "_refer",
                                "type": "address",
                                "value": "0xd845fc80e906d308e26aef937922759f8a2a9a3d"
                            }
                        ],
                        "constructorArguments": "",
                        "name": "getAirdrop",
                        "returnParams": [
                            {
                                "name": "success",
                                "type": "bool",
                                "value": true
                            }
                        ],
                        "signature": "getAirdrop(address)"
                    },
                    "errorInfo": "",
                    "fromAddress": "0xd07e21dcddc9b816a04b023b0722c7044307ba04",
                    "gasUsed": 71244,
                    "id": 0,
                    "methodDecoded": true,
                    "operation": "CALL",
                    "output": "0x0000000000000000000000000000000000000000000000000000000000000001",
                    "revert": false,
                    "revertMessage": "",
                    "selector": "0x069f5bdd",
                    "status": true,
                    "value": "0"
                },
                "nodeType": 0
            },
            "1": {
                "event": {
                    "contract": "0xaa7fb1c8ce6f18d4fd4aabb61a2193d4d441c54f",
                    "decodedLog": {
                        "name": "Transfer",
                        "params": [
                            {
                                "name": "from",
                                "type": "address",
                                "value": "0xaa7fb1c8ce6f18d4fd4aabb61a2193d4d441c54f"
                            },
                            {
                                "name": "to",
                                "type": "address",
                                "value": "0xd845fc80e906d308e26aef937922759f8a2a9a3d"
                            },
                            {
                                "decimalAvailable": true,
                                "name": "tokens",
                                "type": "uint256",
                                "value": "3,450,000,000,000"
                            }
                        ],
                        "signature": "Transfer(address,address,uint256)"
                    },
                    "id": 1,
                    "logData": "0x0000000000000000000000000000000000000000000000000000032344064400",
                    "logDecoded": true,
                    "operation": "EVENT",
                    "revert": false,
                    "status": true,
                    "topics": [
                        "0xddf252ad1be2c89b69c2b068fc378daa952ba7f163c4a11628f55a4df523b3ef",
                        "0x000000000000000000000000aa7fb1c8ce6f18d4fd4aabb61a2193d4d441c54f",
                        "0x000000000000000000000000d845fc80e906d308e26aef937922759f8a2a9a3d"
                    ]
                },
                "nodeType": 1
            },
            "2": {
                "event": {
                    "contract": "0xaa7fb1c8ce6f18d4fd4aabb61a2193d4d441c54f",
                    "decodedLog": {
                        "name": "Transfer",
                        "params": [
                            {
                                "name": "from",
                                "type": "address",
                                "value": "0xaa7fb1c8ce6f18d4fd4aabb61a2193d4d441c54f"
                            },
                            {
                                "name": "to",
                                "type": "address",
                                "value": "0xd07e21dcddc9b816a04b023b0722c7044307ba04"
                            },
                            {
                                "decimalAvailable": true,
                                "name": "tokens",
                                "type": "uint256",
                                "value": "6,900,000,000,000"
                            }
                        ],
                        "signature": "Transfer(address,address,uint256)"
                    },
                    "id": 2,
                    "logData": "0x00000000000000000000000000000000000000000000000000000646880c8800",
                    "logDecoded": true,
                    "operation": "EVENT",
                    "revert": false,
                    "status": true,
                    "topics": [
                        "0xddf252ad1be2c89b69c2b068fc378daa952ba7f163c4a11628f55a4df523b3ef",
                        "0x000000000000000000000000aa7fb1c8ce6f18d4fd4aabb61a2193d4d441c54f",
                        "0x000000000000000000000000d07e21dcddc9b816a04b023b0722c7044307ba04"
                    ]
                },
                "nodeType": 1
            }
        },
        "gasFlame": [
            {
                "children": [
                    {
                        "children": [
                            {
                                "children": [],
                                "depth": 0,
                                "name": "Initial Gas",
                                "value": 22680
                            },
                            {
                                "children": [],
                                "depth": 0,
                                "name": "Executed Gas",
                                "value": 48564
                            }
                        ],
                        "depth": -1,
                        "name": "Actual Gas Used",
                        "value": 71244
                    },
                    {
                        "children": [],
                        "depth": -1,
                        "name": "Refunded Gas",
                        "value": 0
                    }
                ],
                "depth": -2,
                "name": "Total Gas",
                "value": 71244
            }
        ],
        "isConfirmed": true,
        "mainTrace": [
            {
                "children": [
                    {
                        "children": [
                            {
                                "children": [],
                                "depth": 1,
                                "id": 1,
                                "order": 1
                            },
                            {
                                "children": [],
                                "depth": 1,
                                "id": 2,
                                "order": 2
                            }
                        ],
                        "depth": 0,
                        "id": 0,
                        "order": 0
                    }
                ],
                "depth": -1,
                "id": -1,
                "order": -1
            }
        ],
        "mainTraceNodeCount": 3,
        "parentIdMap": {
            "0": -1,
            "1": 0,
            "2": 0
        },
        "tidyTrace": [
            {
                "children": [
                    {
                        "children": [
                            {
                                "children": [],
                                "depth": 1,
                                "id": 1,
                                "order": 1
                            },
                            {
                                "children": [],
                                "depth": 1,
                                "id": 2,
                                "order": 2
                            }
                        ],
                        "depth": 0,
                        "id": 0,
                        "order": 0
                    }
                ],
                "depth": -1,
                "id": -1,
                "order": -1
            }
        ],
        "tidyTraceNodeCount": 3
    },
    "state_change": {
        "stateChanges": [
            {
                "address": "0xaa7fb1c8ce6f18d4fd4aabb61a2193d4d441c54f",
                "erc": "ERC-20",
                "slots": [
                    {
                        "current": "0x0000000000000000000000000000000000000000000000000000000000001266",
                        "key": "0x000000000000000000000000000000000000000000000000000000000000000b",
                        "prev": "0x0000000000000000000000000000000000000000000000000000000000001265"
                    },
                    {
                        "current": "0x00000000000000000000000000000000000000000000000000dd913a6e6fb400",
                        "key": "0xe38dd69b20363ad81d8c90715a5641bcf6b3c9fe5fb5aab0fbe2ce4ab4fb3fbc",
                        "prev": "0x00000000000000000000000000000000000000000000000000dd9aa43a828000"
                    },
                    {
                        "current": "0x00000000000000000000000000000000000000000000000000003b9e0c770c00",
                        "key": "0xc7a6d7c6a5e0fac663bb0c3b03542031d90e0b89d2dae5dfed7f91c84cfb3e12",
                        "prev": "0x0000000000000000000000000000000000000000000000000000387ac870c800"
                    },
                    {
                        "current": "0x00000000000000000000000000000000000000000000000000000646880c8800",
                        "key": "0x1cbb58adb429a552677a344cdadb784f2d5507a42badc7a4bef8f192644e8b93",
                        "prev": "0x0000000000000000000000000000000000000000000000000000000000000000"
                    }
                ],
                "storageVariables": [
                    {
                        "name": "aTot",
                        "type": "uint256",
                        "value": {
                            "current": "4710",
                            "prev": "4709",
                            "typeTag": 1
                        }
                    },
                    {
                        "name": "balances",
                        "type": "mapping(address => uint256)",
                        "value": {
                            "pairs": [
                                {
                                    "key": "0xaa7fb1c8ce6f18d4fd4aabb61a2193d4d441c54f",
                                    "value": {
                                        "current": "62365650000000000",
                                        "prev": "62376000000000000",
                                        "typeTag": 1
                                    }
                                },
                                {
                                    "key": "0xd07e21dcddc9b816a04b023b0722c7044307ba04",
                                    "value": {
                                        "current": "6900000000000",
                                        "prev": "0",
                                        "typeTag": 1
                                    }
                                },
                                {
                                    "key": "0xd845fc80e906d308e26aef937922759f8a2a9a3d",
                                    "value": {
                                        "current": "65550000000000",
                                        "prev": "62100000000000",
                                        "typeTag": 1
                                    }
                                }
                            ],
                            "typeTag": 4
                        }
                    }
                ]
            }
        ]
    }
}