{
    "balance_change": {
        "balanceChanges": [
            {
                "account": "0x1c3d2d14cb40ee63ba3c56128946a1bac98344c5",
                "assets": [
                    {
                        "address": "0x21ab6c9fac80c59d401b37cb43f81ea9dde7fe34",
                        "amount": "386",
                        "iconUrl": "",
                        "isERC1155": false,
                        "isERC721": false,
                        "sign": false,
                        "value": ""
                    }
                ]
            },
            {
                "account": "0x957d310fce4123b5b5219d880dceea48990608c6",
                "assets": [
                    {
                        "address": "0x21ab6c9fac80c59d401b37cb43f81ea9dde7fe34",
                        "amount": "386",
                        "iconUrl": "",
                        "isERC1155": false,
                        "isERC721": false,
                        "sign": true,
                        "value": ""
                    }
                ]
            }
        ]
    },
    "profile": {
        "basic_info": {
            "baseFee": "",
            "blockNumber": 7652166,
            "callData": "0xa9059cbb000000000000000000000000957d310fce4123b5b5219d880dceea48990608c600000000000000000000000000000000000000000000000000000008fcbd4200",
            "debugEnable": true,
            "errorInfo": "",
            "eventCount": 1,
            "feeRecipient": "0x00192fb10df37c9fb26829eb2cc623cd1bf599e8",
            "formatValue": "0",
            "gasLimit": 55000,
            "gasPrice": "20",
            "gasUsed": 37000,
            "intTxnCount": 0,
            "internalRevert": false,
            "internalRevertMessage": "",
            "isContractCreation": false,
            "isFlashloan": false,
            "maxFee": "",
            "nonce": 394194,
            "overwritedBlockNumber": -1,
            "priorityFee": "",
            "receiver": "0x21ab6c9fac80c59d401b37cb43f81ea9dde7fe34",
            "revertMessage": "",
            "sender": "0x1c3d2d14cb40ee63ba3c56128946a1bac98344c5",
            "simulationEnable": true,
            "sourceTxnHash": "0x366b1174f5a28df29d4e36f16d1d83cccb0c97262629826bddba54314c334921",
            "status": true,
            "timestamp": "2019-04-27T22:20:49Z",
            "transactionFee": "0.00074",
            "txnHash": "0x366b1174f5a28df29d4e36f16d1d83cccb0c97262629826bddba54314c334921",
            "txnIndex": 3,
            "type": 0,
            "value": "0"
        },
        "fund_flow": [
            {
                "amount": "386",
                "from": "0x1c3d2d14cb40ee63ba3c56128946a1bac98344c5",
                "id": 1,
                "isERC1155": false,
                "isERC721": false,
                "isReverted": false,
                "order": 1,
                "to": "0x957d310fce4123b5b5219d880dceea48990608c6",
                "token": "0x21ab6c9fac80c59d401b37cb43f81ea9dde7fe34"
            }
        ],
        "token_infos": [
            {
                "address": "0x21ab6c9fac80c59d401b37cb43f81ea9dde7fe34",
                "decimals": 8
            },
            {
                "address": "0xc02aaa39b223fe8d0a0e5c4f27ead9083c756cc2",
                "decimals": 18
            },
            {
                "address": "0xeeeeeeeeeeeeeeeeeeeeeeeeeeeeeeeeeeeeeeee",
                "decimals": 18
            }
        ]
    },
    "address_label": {
        "labels": [
            {
                "address": "0x0000000000000000000000000000000000000001",
                "label": "Precompiled"
            },
            {
                "address": "0x0000000000000000000000000000000000000002",
                "label": "Precompiled"
            },
            {
                "address": "0x0000000000000000000000000000000000000003",
                "label": "Precompiled"
            },
            {
                "address": "0x0000000000000000000000000000000000000004",
                "label": "Precompiled"
            },
            {
                "address": "0xeeeeeeeeeeeeeeeeeeeeeeeeeeeeeeeeeeeeeeee",
                "label": "Ether"
            },
            {
                "address": "0x21ab6c9fac80c59d401b37cb43f81ea9dde7fe34",
                "label": "Baer Chain: BRC Token"
            }
        ]
    },
    "trace": {
        "accountLabels": null,
        "dataMap": {
            "-1": {
                "invocation": {
                    "address": "0x1c3d2d14cb40ee63ba3c56128946a1bac98344c5",
                    "callData": "",
                    "decodedMethod": null,
                    "errorInfo": "",
                    "fromAddress": "",
                    "gasUsed": 0,
                    "id": -1,
                    "methodDecoded": false,
                    "operation": "",
                    "output": "",
                    "revert": false,
                    "revertMessage": "",
                    "selector": "",
                    "status": false,
                    "value": ""
                },
                "nodeType": 0
            },
            "0": {
                "invocation": {
                    "address": "0x21ab6c9fac80c59d401b37cb43f81ea9dde7fe34",
                    "callData": "0x000000000000000000000000957d310fce4123b5b5219d880dceea48990608c600000000000000000000000000000000000000000000000000000008fcbd4200",
                    "decodedMethod": {
                        "callParams": [
                            {
                                "name": "_to",
                                "type": "address",
                                "value": "0x957d310fce4123b5b5219d880dceea48990608c6"
                            },
                            {
                                "decimalAvailable": true,
                                "name": "_amount",
                                "type": "uint256",
                                "value": "38,600,000,000"
                            }
                        ],
                        "constructorArguments": "",
                        "name": "transfer",
                        "returnParams": [
                            {
                                "name": "success",
                                "type": "bool",
                                "value": true
                            }
                        ],
                        "signature": "transfer(address,uint256)"
                    },
                    "errorInfo": "",
                    "fromAddress": "0x1c3d2d14cb40ee63ba3c56128946a1bac98344c5",
                    "gasUsed": 37000,
                    "id": 0,
                    "methodDecoded": true,
                    "operation": "CALL",
                    "output": "0x0000000000000000000000000000000000000000000000000000000000000001",
                    "revert": false,
                    "revertMessage": "",
                    "selector": "0xa9059cbb",
                    "status": true,
                    "value": "0"
                },
                "nodeType": 0
            },
            "1": {
                "event": {
                    "contract": "0x21ab6c9fac80c59d401b37cb43f81ea9dde7fe34",
                    "decodedLog": {
                        "name": "Transfer",
                        "params": [
                            {
                                "name": "_from",
                                "type": "address",
                                "value": "0x1c3d2d14cb40ee63ba3c56128946a1bac98344c5"
                            },
                            {
                                "name": "_to",
                                "type": "address",
                                "value": "0x957d310fce4123b5b5219d880dceea48990608c6"
                            },
                            {
                                "decimalAvailable": true,
                                "name": "_value",
                                "type": "uint256",
                                "value": "38,600,000,000"
                            }
                        ],
                        "signature": "Transfer(address,address,uint256)"
                    },
                    "id": 1,
                    "logData": "0x00000000000000000000000000000000000000000000000000000008fcbd4200",
                    "logDecoded": true,
                    "operation": "EVENT",
                    "revert": false,
                    "status": true,
                    "topics": [
                        "0xddf252ad1be2c89b69c2b068fc378daa952ba7f163c4a11628f55a4df523b3ef",
                        "0x0000000000000000000000001c3d2d14cb40ee63ba3c56128946a1bac98344c5",
                        "0x000000000000000000000000957d310fce4123b5b5219d880dceea48990608c6"
                    ]
                },
                "nodeType": 1
            }
        },
        "gasFlame": [
            {
                "children": [
                    {
                        "children": [
                            {
                                "children": [],
                                "depth": 0,
                                "name": "Initial Gas",
                                "value": 23064
                            },
                            {
                                "children": [],
                                "depth": 0,
                                "name": "Executed Gas",
                                "value": 13936
                            }
                        ],
                        "depth": -1,
                        "name": "Actual Gas Used",
                        "value": 37000
                    },
                    {
                        "children": [],
                        "depth": -1,
                        "name": "Refunded Gas",
                        "value": 0
                    }
                ],
                "depth": -2,
                "name": "Total Gas",
                "value": 37000
            }
        ],
        "isConfirmed": true,
        "mainTrace": [
            {
                "children": [
                    {
                        "children": [
                            {
                                "children": [],
                                "depth": 1,
                                "id": 1,
                                "order": 1
                            }
                        ],
                        "depth": 0,
                        "id": 0,
                        "order": 0
                    }
                ],
                "depth": -1,
                "id": -1,
                "order": -1
            }
        ],
        "mainTraceNodeCount": 2,
        "parentIdMap": {
            "0": -1,
            "1": 0
        },
        "tidyTrace": [
            {
                "children": [
                    {
                        "children": [
                            {
                                "children": [],
                                "depth": 1,
                                "id": 1,
                                "order": 1
                            }
                        ],
                        "depth": 0,
                        "id": 0,
                        "order": 0
                    }
                ],
                "depth": -1,
                "id": -1,
                "order": -1
            }
        ],
        "tidyTraceNodeCount": 2
    },
    "state_change": {
        "stateChanges": [
            {
                "address": "0x21ab6c9fac80c59d401b37cb43f81ea9dde7fe34",
                "erc": "ERC-20",
                "slots": [
                    {
                        "current": "0x0000000000000000000000000000000000000000000000000000d825c933ba40",
                        "key": "0x09247ddfaa600a98a45119f120cfc12593a60c6cd75ec31ae79c7138795dab72",
                        "prev": "0x0000000000000000000000000000000000000000000000000000d81ccc767840"
                    },
                    {
                        "current": "0x000000000000000000000000000000000000000000000000000283bc6fc6bc76",
                        "key": "0x366e59abbe2fdca99005b8b8347bb5dc0ea93d2b4820050ca1d2e7e0cbb33f5e",
                        "prev": "0x000000000000000000000000000000000000000000000000000283c56c83fe76"
                    }
                ],
                "storageVariables": [
                    {
                        "name": "balances",
                        "type": "mapping(address => uint256)",
                        "value": {
                            "pairs": [
                                {
                                    "key": "0x1c3d2d14cb40ee63ba3c56128946a1bac98344c5",
                                    "value": {
                                        "current": "707795305806966",
                                        "prev": "707833905806966",
                                        "typeTag": 1
                                    }
                                },
                                {
                                    "key": "0x957d310fce4123b5b5219d880dceea48990608c6",
                                    "value": {
                                        "current": "237656801000000",
                                        "prev": "237618201000000",
                                        "typeTag": 1
                                    }
                                }
                            ],
                            "typeTag": 4
                        }
                    }
                ]
            }
        ]
    }
}