{
    "balance_change": {
        "balanceChanges": []
    },
    "profile": {
        "basic_info": {
            "baseFee": "",
            "blockNumber": 1693752,
            "callData": "0x27dc297ecd04445edaaab9f4dbed718e99a9828411bdf38fb3efc76d3e7e48b5790c6071000000000000000000000000000000000000000000000000000000000000004000000000000000000000000000000000000000000000000000000000000000000000000000000000000000000000000000000000000000000000000000000000",
            "debugEnable": true,
            "errorInfo": "",
            "eventCount": 1,
            "feeRecipient": "0xd3cff0deb682f079b04eaf22bb39a5f4052181b2",
            "formatValue": "0",
            "gasLimit": 200000,
            "gasPrice": "20",
            "gasUsed": 144096,
            "intTxnCount": 5,
            "internalRevert": false,
            "internalRevertMessage": "",
            "isContractCreation": false,
            "isFlashloan": false,
            "maxFee": "",
            "nonce": 36778,
            "overwritedBlockNumber": -1,
            "priorityFee": "",
            "receiver": "0x2fb36be5fc4a51e857321963702ee8d02987eb9e",
            "revertMessage": "",
            "sender": "0x26588a9301b0428d95e6fc3a5024fce8bec12d51",
            "simulationEnable": true,
            "sourceTxnHash": "0x3694d7ec875349b014c0c9b42c24454d3c48888f8f0c59e502d3af0c6dd35a79",
            "status": true,
            "timestamp": "2016-06-13T01:13:38Z",
            "transactionFee": "0.00288192",
            "txnHash": "0x3694d7ec875349b014c0c9b42c24454d3c48888f8f0c59e502d3af0c6dd35a79",
            "txnIndex": 0,
            "type": 0,
            "value": "0"
        },
        "fund_flow": [],
        "token_infos": [
            {
                "address": "0xc02aaa39b223fe8d0a0e5c4f27ead9083c756cc2",
                "decimals": 18
            },
            {
                "address": "0xeeeeeeeeeeeeeeeeeeeeeeeeeeeeeeeeeeeeeeee",
                "decimals": 18
            }
        ]
    },
    "address_label": {
        "labels": [
            {
                "address": "0xeeeeeeeeeeeeeeeeeeeeeeeeeeeeeeeeeeeeeeee",
                "label": "Ether"
            },
            {
                "address": "0x26588a9301b0428d95e6fc3a5024fce8bec12d51",
                "label": "Oraclize"
            },
            {
                "address": "0x0000000000000000000000000000000000000004",
                "label": "Precompiled"
            },
            {
                "address": "0x0000000000000000000000000000000000000001",
                "label": "Precompiled"
            },
            {
                "address": "0x0000000000000000000000000000000000000002",
                "label": "Precompiled"
            },
            {
                "address": "0x0000000000000000000000000000000000000003",
                "label": "Precompiled"
            }
        ]
    },
    "trace": {
        "accountLabels": null,
        "dataMap": {
            "-1": {
                "invocation": {
                    "address": "0x26588a9301b0428d95e6fc3a5024fce8bec12d51",
                    "callData": "",
                    "decodedMethod": null,
                    "errorInfo": "",
                    "fromAddress": "",
                    "gasUsed": 0,
                    "id": -1,
                    "methodDecoded": false,
                    "operation": "",
                    "output": "",
                    "revert": false,
                    "revertMessage": "",
                    "selector": "",
                    "status": false,
                    "value": ""
                },
                "nodeType": 0
            },
            "0": {
                "invocation": {
                    "address": "0x2fb36be5fc4a51e857321963702ee8d02987eb9e",
                    "callData": "0xcd04445edaaab9f4dbed718e99a9828411bdf38fb3efc76d3e7e48b5790c6071000000000000000000000000000000000000000000000000000000000000004000000000000000000000000000000000000000000000000000000000000000000000000000000000000000000000000000000000000000000000000000000000",
                    "decodedMethod": {
                        "callParams": [
                            {
                                "name": "myid",
                                "type": "bytes32",
                                "value": "0xcd04445edaaab9f4dbed718e99a9828411bdf38fb3efc76d3e7e48b5790c6071"
                            },
                            {
                                "name": "result",
                                "type": "string",
                                "value": ""
                            }
                        ],
                        "constructorArguments": "",
                        "name": "__callback",
                        "returnParams": [],
                        "signature": "__callback(bytes32,string)"
                    },
                    "errorInfo": "",
                    "fromAddress": "0x26588a9301b0428d95e6fc3a5024fce8bec12d51",
                    "gasUsed": 144096,
                    "id": 0,
                    "methodDecoded": true,
                    "operation": "CALL",
                    "output": "",
                    "revert": false,
                    "revertMessage": "",
                    "selector": "0x27dc297e",
                    "status": true,
                    "value": "0"
                },
                "nodeType": 0
            },
            "1": {
                "invocation": {
                    "address": "0x9252bee78428c7bfe765fd94626742e8b7c60c90",
                    "callData": "0x",
                    "decodedMethod": {
                        "callParams": [],
                        "constructorArguments": "",
                        "name": "multiply",
                        "returnParams": [],
                        "signature": "multiply()"
                    },
                    "errorInfo": "",
                    "fromAddress": "0x2fb36be5fc4a51e857321963702ee8d02987eb9e",
                    "gasUsed": 119723,
                    "id": 1,
                    "methodDecoded": true,
                    "operation": "CALL",
                    "output": "",
                    "revert": false,
                    "revertMessage": "",
                    "selector": "0xf3593cd0",
                    "status": true,
                    "value": "0"
                },
                "nodeType": 0
            },
            "2": {
                "invocation": {
                    "address": "0x321a4c79abe67cb80d113ea41a4b1672aa65edd1",
                    "callData": "0x60606040526040516020806101bd83395060806040525160008054600160a060020a031916821781557fadf59f990000000000000000000000000000000000000000000000000000000060809081526084829052606060a452600a60e49081527f426c6f636b636861696e000000000000000000000000000000000000000000006101045260a060c4526019610124527f626974636f696e20626c6f636b636861696e2068656967687400000000000000610144527388e1315687aec48a72786c6b3b3f075208b627139263adf59f9992610164926020928290876161da5a03f1156002575050505060c8806100f56000396000f3606060405260e060020a600035046327dc297e8114601a575b005b602060046024803582810135601f81018590049094026080908101604052606085815260189585359594604494929392019181908382808284375094965050505050505060008054604080517ff3593cd0000000000000000000000000000000000000000000000000000000008152905173ffffffffffffffffffffffffffffffffffffffff9092169263f3593cd092600483810193829003018183876161da5a03f1156002575050505050560000000000000000000000009252bee78428c7bfe765fd94626742e8b7c60c90",
                    "decodedMethod": null,
                    "errorInfo": "",
                    "fromAddress": "0x9252bee78428c7bfe765fd94626742e8b7c60c90",
                    "gasUsed": 87470,
                    "id": 2,
                    "methodDecoded": false,
                    "operation": "CREATE",
                    "output": "0x606060405260e060020a600035046327dc297e8114601a575b005b602060046024803582810135601f81018590049094026080908101604052606085815260189585359594604494929392019181908382808284375094965050505050505060008054604080517ff3593cd0000000000000000000000000000000000000000000000000000000008152905173ffffffffffffffffffffffffffffffffffffffff9092169263f3593cd092600483810193829003018183876161da5a03f115600257505050505056",
                    "revert": false,
                    "revertMessage": "",
                    "selector": "",
                    "status": true,
                    "value": "0"
                },
                "nodeType": 0
            },
            "3": {
                "invocation": {
                    "address": "0x88e1315687aec48a72786c6b3b3f075208b62713",
                    "callData": "0x0000000000000000000000000000000000000000000000000000000000000000000000000000000000000000000000000000000000000000000000000000006000000000000000000000000000000000000000000000000000000000000000a0000000000000000000000000000000000000000000000000000000000000000a426c6f636b636861696e000000000000000000000000000000000000000000000000000000000000000000000000000000000000000000000000000000000019626974636f696e20626c6f636b636861696e2068656967687400000000000000",
                    "decodedMethod": {
                        "callParams": [
                            {
                                "name": "_timestamp",
                                "type": "uint256",
                                "value": "0"
                            },
                            {
                                "name": "_datasource",
                                "type": "string",
                                "value": "Blockchain"
                            },
                            {
                                "name": "_arg",
                                "type": "string",
                                "value": "bitcoin blockchain height"
                            }
                        ],
                        "constructorArguments": "",
                        "name": "query",
                        "returnParams": [
                            {
                                "name": "_id",
                                "type": "bytes32",
                                "value": "0xc4d43004ce1309ac970654d6d26fb11fff0a4f3895bdd69330d607b131be0b02"
                            }
                        ],
                        "signature": "query(uint256,string,string)"
                    },
                    "errorInfo": "",
                    "fromAddress": "0x321a4c79abe67cb80d113ea41a4b1672aa65edd1",
                    "gasUsed": 27053,
                    "id": 3,
                    "methodDecoded": true,
                    "operation": "CALL",
                    "output": "0xc4d43004ce1309ac970654d6d26fb11fff0a4f3895bdd69330d607b131be0b02",
                    "revert": false,
                    "revertMessage": "",
                    "selector": "0xadf59f99",
                    "status": true,
                    "value": "0"
                },
                "nodeType": 0
            },
            "4": {
                "invocation": {
                    "address": "0x0000000000000000000000000000000000000004",
                    "callData": "0x6b636861696e",
                    "decodedMethod": {
                        "callParams": [
                            {
                                "name": "data",
                                "type": "bytes",
                                "value": "0x426c6f636b636861696e"
                            }
                        ],
                        "constructorArguments": "",
                        "name": "dataCopy()",
                        "returnParams": [
                            {
                                "name": "data",
                                "type": "bytes",
                                "value": "0x426c6f636b636861696e"
                            }
                        ],
                        "signature": "dataCopy(bytes)"
                    },
                    "errorInfo": "",
                    "fromAddress": "0x88e1315687aec48a72786c6b3b3f075208b62713",
                    "gasUsed": 18,
                    "id": 4,
                    "methodDecoded": true,
                    "operation": "CALL",
                    "output": "0x426c6f636b636861696e",
                    "revert": false,
                    "revertMessage": "",
                    "selector": "0x426c6f63",
                    "status": true,
                    "value": "0"
                },
                "nodeType": 0
            },
            "5": {
                "invocation": {
                    "address": "0x0000000000000000000000000000000000000004",
                    "callData": "0x6f696e20626c6f636b636861696e20686569676874",
                    "decodedMethod": {
                        "callParams": [
                            {
                                "name": "data",
                                "type": "bytes",
                                "value": "0x626974636f696e20626c6f636b636861696e20686569676874"
                            }
                        ],
                        "constructorArguments": "",
                        "name": "dataCopy()",
                        "returnParams": [
                            {
                                "name": "data",
                                "type": "bytes",
                                "value": "0x626974636f696e20626c6f636b636861696e20686569676874"
                            }
                        ],
                        "signature": "dataCopy(bytes)"
                    },
                    "errorInfo": "",
                    "fromAddress": "0x88e1315687aec48a72786c6b3b3f075208b62713",
                    "gasUsed": 18,
                    "id": 5,
                    "methodDecoded": true,
                    "operation": "CALL",
                    "output": "0x626974636f696e20626c6f636b636861696e20686569676874",
                    "revert": false,
                    "revertMessage": "",
                    "selector": "0x62697463",
                    "status": true,
                    "value": "0"
                },
                "nodeType": 0
            },
            "6": {
                "event": {
                    "contract": "0x88e1315687aec48a72786c6b3b3f075208b62713",
                    "decodedLog": {
                        "name": "Log1",
                        "params": [
                            {
                                "name": "sender",
                                "type": "address",
                                "value": "0x321a4c79abe67cb80d113ea41a4b1672aa65edd1"
                            },
                            {
                                "name": "cid",
                                "type": "bytes32",
                                "value": "0xc4d43004ce1309ac970654d6d26fb11fff0a4f3895bdd69330d607b131be0b02"
                            },
                            {
                                "name": "timestamp",
                                "type": "uint256",
                                "value": "0"
                            },
                            {
                                "name": "datasource",
                                "type": "string",
                                "value": "Blockchain"
                            },
                            {
                                "name": "arg",
                                "type": "string",
                                "value": "bitcoin blockchain height"
                            },
                            {
                                "name": "gaslimit",
                                "type": "uint256",
                                "value": "200,000"
                            },
                            {
                                "name": "proofType",
                                "type": "bytes1",
                                "value": "0x00"
                            },
                            {
                                "name": "gasPrice",
                                "type": "uint256",
                                "value": "0"
                            }
                        ],
                        "signature": "Log1(address,bytes32,uint256,string,string,uint256,bytes1,uint256)"
                    },
                    "id": 6,
                    "logData": "0x000000000000000000000000321a4c79abe67cb80d113ea41a4b1672aa65edd1c4d43004ce1309ac970654d6d26fb11fff0a4f3895bdd69330d607b131be0b020000000000000000000000000000000000000000000000000000000000000000000000000000000000000000000000000000000000000000000000000000010000000000000000000000000000000000000000000000000000000000000001400000000000000000000000000000000000000000000000000000000000030d4000000000000000000000000000000000000000000000000000000000000000000000000000000000000000000000000000000000000000000000000000000000000000000000000000000000000000000000000000000000000000000000000a426c6f636b636861696e000000000000000000000000000000000000000000000000000000000000000000000000000000000000000000000000000000000019626974636f696e20626c6f636b636861696e2068656967687400000000000000",
                    "logDecoded": true,
                    "operation": "EVENT",
                    "revert": false,
                    "status": true,
                    "topics": [
                        "0xb76d0edd90c6a07aa3ff7a222d7f5933e29c6acc660c059c97837f05c4ca1a84"
                    ]
                },
                "nodeType": 1
            }
        },
        "gasFlame": [
            {
                "children": [
                    {
                        "children": [
                            {
                                "children": [],
                                "depth": 0,
                                "name": "Initial Gas",
                                "value": 23896
                            },
                            {
                                "children": [
                                    {
                                        "children": [
                                            {
                                                "children": [
                                                    {
                                                        "children": [
                                                            {
                                                                "children": [],
                                                                "depth": 4,
                                                                "name": "dataCopy()",
                                                                "value": 18
                                                            },
                                                            {
                                                                "children": [],
                                                                "depth": 4,
                                                                "name": "dataCopy()",
                                                                "value": 18
                                                            }
                                                        ],
                                                        "depth": 3,
                                                        "name": "query",
                                                        "value": 27053
                                                    }
                                                ],
                                                "depth": 2,
                                                "name": "contract creation",
                                                "value": 87470
                                            }
                                        ],
                                        "depth": 1,
                                        "name": "multiply",
                                        "value": 119723
                                    }
                                ],
                                "depth": 0,
                                "name": "Executed Gas",
                                "value": 120200
                            }
                        ],
                        "depth": -1,
                        "name": "Actual Gas Used",
                        "value": 144096
                    },
                    {
                        "children": [],
                        "depth": -1,
                        "name": "Refunded Gas",
                        "value": 0
                    }
                ],
                "depth": -2,
                "name": "Total Gas",
                "value": 144096
            }
        ],
        "isConfirmed": true,
        "mainTrace": [
            {
                "children": [
                    {
                        "children": [
                            {
                                "children": [
                                    {
                                        "children": [
                                            {
                                                "children": [
                                                    {
                                                        "children": [],
                                                        "depth": 4,
                                                        "id": 4,
                                                        "order": 4
                                                    },
                                                    {
                                                        "children": [],
                                                        "depth": 4,
                                                        "id": 5,
                                                        "order": 5
                                                    },
                                                    {
                                                        "children": [],
                                                        "depth": 4,
                                                        "id": 6,
                                                        "order": 6
                                                    }
                                                ],
                                                "depth": 3,
                                                "id": 3,
                                                "order": 3
                                            }
                                        ],
                                        "depth": 2,
                                        "id": 2,
                                        "order": 2
                                    }
                                ],
                                "depth": 1,
                                "id": 1,
                                "order": 1
                            }
                        ],
                        "depth": 0,
                        "id": 0,
                        "order": 0
                    }
                ],
                "depth": -1,
                "id": -1,
                "order": -1
            }
        ],
        "mainTraceNodeCount": 7,
        "parentIdMap": {
            "0": -1,
            "1": 0,
            "2": 1,
            "3": 2,
            "4": 3,
            "5": 3,
            "6": 3
        },
        "tidyTrace": [
            {
                "children": [
                    {
                        "children": [
                            {
                                "children": [
                                    {
                                        "children": [
                                            {
                                                "children": [
                                                    {
                                                        "children": [],
                                                        "depth": 4,
                                                        "id": 4,
                                                        "order": 4
                                                    },
                                                    {
                                                        "children": [],
                                                        "depth": 4,
                                                        "id": 5,
                                                        "order": 5
                                                    },
                                                    {
                                                        "children": [],
                                                        "depth": 4,
                                                        "id": 6,
                                                        "order": 6
                                                    }
                                                ],
                                                "depth": 3,
                                                "id": 3,
                                                "order": 3
                                            }
                                        ],
                                        "depth": 2,
                                        "id": 2,
                                        "order": 2
                                    }
                                ],
                                "depth": 1,
                                "id": 1,
                                "order": 1
                            }
                        ],
                        "depth": 0,
                        "id": 0,
                        "order": 0
                    }
                ],
                "depth": -1,
                "id": -1,
                "order": -1
            }
        ],
        "tidyTraceNodeCount": 7
    },
    "state_change": {
        "stateChanges": [
            {
                "address": "0x321a4c79abe67cb80d113ea41a4b1672aa65edd1",
                "erc": "",
                "slots": [
                    {
                        "current": "0x0000000000000000000000009252bee78428c7bfe765fd94626742e8b7c60c90",
                        "key": "0x0000000000000000000000000000000000000000000000000000000000000000",
                        "prev": "0x0000000000000000000000000000000000000000000000000000000000000000"
                    }
                ],
                "storageVariables": []
            },
            {
                "address": "0x88e1315687aec48a72786c6b3b3f075208b62713",
                "erc": "",
                "slots": [
                    {
                        "current": "0x0000000000000000000000000000000000000000000000000000000000000001",
                        "key": "0x58001ce9040b5c399c1e38364fdc33dc30d3a45310127ab40b3cd380d81e002b",
                        "prev": "0x0000000000000000000000000000000000000000000000000000000000000000"
                    }
                ],
                "storageVariables": []
            }
        ]
    }
}