{
    "balance_change": {
        "balanceChanges": [
            {
                "account": "0x99d29bef14827aef7ba9fd92b7482404e1adb47e",
                "assets": [
                    {
                        "address": "0x0d152b9ee87ebae179f64c067a966dd716c50742",
                        "amount": "20",
                        "iconUrl": "",
                        "isERC1155": false,
                        "isERC721": false,
                        "sign": false,
                        "value": ""
                    }
                ]
            },
            {
                "account": "0x7b2428a55379eda456655226ecb989375240dfb5",
                "assets": [
                    {
                        "address": "0x0d152b9ee87ebae179f64c067a966dd716c50742",
                        "amount": "20",
                        "iconUrl": "",
                        "isERC1155": false,
                        "isERC721": false,
                        "sign": true,
                        "value": ""
                    }
                ]
            }
        ]
    },
    "profile": {
        "basic_info": {
            "baseFee": "",
            "blockNumber": 6901450,
            "callData": "0xa9059cbb0000000000000000000000007b2428a55379eda456655226ecb989375240dfb50000000000000000000000000000000000000000000000000000000000000014",
            "debugEnable": true,
            "errorInfo": "",
            "eventCount": 1,
            "feeRecipient": "0x52bc44d5378309ee2abf1539bf71de1b7d7be3b5",
            "formatValue": "0",
            "gasLimit": 51621,
            "gasPrice": "10",
            "gasUsed": 36621,
            "intTxnCount": 0,
            "internalRevert": false,
            "internalRevertMessage": "",
            "isContractCreation": false,
            "isFlashloan": false,
            "maxFee": "",
            "nonce": 0,
            "overwritedBlockNumber": -1,
            "priorityFee": "",
            "receiver": "0x0d152b9ee87ebae179f64c067a966dd716c50742",
            "revertMessage": "",
            "sender": "0x99d29bef14827aef7ba9fd92b7482404e1adb47e",
            "simulationEnable": true,
            "sourceTxnHash": "0x36c01e76851a0306becc1f80c618a2bd5a31ddc27a15c0d067ed498e3cd75fb1",
            "status": true,
            "timestamp": "2018-12-17T05:26:31Z",
            "transactionFee": "0.00036621",
            "txnHash": "0x36c01e76851a0306becc1f80c618a2bd5a31ddc27a15c0d067ed498e3cd75fb1",
            "txnIndex": 41,
            "type": 0,
            "value": "0"
        },
        "fund_flow": [
            {
                "amount": "20",
                "from": "0x99d29bef14827aef7ba9fd92b7482404e1adb47e",
                "id": 1,
                "isERC1155": false,
                "isERC721": false,
                "isReverted": false,
                "order": 1,
                "to": "0x7b2428a55379eda456655226ecb989375240dfb5",
                "token": "0x0d152b9ee87ebae179f64c067a966dd716c50742"
            }
        ],
        "token_infos": [
            {
                "address": "0x0d152b9ee87ebae179f64c067a966dd716c50742",
                "decimals": 0
            },
            {
                "address": "0xc02aaa39b223fe8d0a0e5c4f27ead9083c756cc2",
                "decimals": 18
            },
            {
                "address": "0xeeeeeeeeeeeeeeeeeeeeeeeeeeeeeeeeeeeeeeee",
                "decimals": 18
            }
        ]
    },
    "address_label": {
        "labels": [
            {
                "address": "0x0000000000000000000000000000000000000002",
                "label": "Precompiled"
            },
            {
                "address": "0x0000000000000000000000000000000000000003",
                "label": "Precompiled"
            },
            {
                "address": "0x0000000000000000000000000000000000000004",
                "label": "Precompiled"
            },
            {
                "address": "0xeeeeeeeeeeeeeeeeeeeeeeeeeeeeeeeeeeeeeeee",
                "label": "Ether"
            },
            {
                "address": "0x0d152b9ee87ebae179f64c067a966dd716c50742",
                "label": "Mavrodi (MAVRO)"
            },
            {
                "address": "0x0000000000000000000000000000000000000001",
                "label": "Precompiled"
            }
        ]
    },
    "trace": {
        "accountLabels": null,
        "dataMap": {
            "-1": {
                "invocation": {
                    "address": "0x99d29bef14827aef7ba9fd92b7482404e1adb47e",
                    "callData": "",
                    "decodedMethod": null,
                    "errorInfo": "",
                    "fromAddress": "",
                    "gasUsed": 0,
                    "id": -1,
                    "methodDecoded": false,
                    "operation": "",
                    "output": "",
                    "revert": false,
                    "revertMessage": "",
                    "selector": "",
                    "status": false,
                    "value": ""
                },
                "nodeType": 0
            },
            "0": {
                "invocation": {
                    "address": "0x0d152b9ee87ebae179f64c067a966dd716c50742",
                    "callData": "0x0000000000000000000000007b2428a55379eda456655226ecb989375240dfb50000000000000000000000000000000000000000000000000000000000000014",
                    "decodedMethod": {
                        "callParams": [
                            {
                                "name": "_to",
                                "type": "address",
                                "value": "0x7b2428a55379eda456655226ecb989375240dfb5"
                            },
                            {
                                "decimalAvailable": true,
                                "name": "_value",
                                "type": "uint256",
                                "value": "20"
                            }
                        ],
                        "constructorArguments": "",
                        "name": "transfer",
                        "returnParams": [
                            {
                                "name": "",
                                "type": "bool",
                                "value": true
                            }
                        ],
                        "signature": "transfer(address,uint256)"
                    },
                    "errorInfo": "",
                    "fromAddress": "0x99d29bef14827aef7ba9fd92b7482404e1adb47e",
                    "gasUsed": 36621,
                    "id": 0,
                    "methodDecoded": true,
                    "operation": "CALL",
                    "output": "0x0000000000000000000000000000000000000000000000000000000000000001",
                    "revert": false,
                    "revertMessage": "",
                    "selector": "0xa9059cbb",
                    "status": true,
                    "value": "0"
                },
                "nodeType": 0
            },
            "1": {
                "event": {
                    "contract": "0x0d152b9ee87ebae179f64c067a966dd716c50742",
                    "decodedLog": {
                        "name": "Transfer",
                        "params": [
                            {
                                "name": "from",
                                "type": "address",
                                "value": "0x99d29bef14827aef7ba9fd92b7482404e1adb47e"
                            },
                            {
                                "name": "to",
                                "type": "address",
                                "value": "0x7b2428a55379eda456655226ecb989375240dfb5"
                            },
                            {
                                "decimalAvailable": true,
                                "name": "value",
                                "type": "uint256",
                                "value": "20"
                            }
                        ],
                        "signature": "Transfer(address,address,uint256)"
                    },
                    "id": 1,
                    "logData": "0x0000000000000000000000000000000000000000000000000000000000000014",
                    "logDecoded": true,
                    "operation": "EVENT",
                    "revert": false,
                    "status": true,
                    "topics": [
                        "0xddf252ad1be2c89b69c2b068fc378daa952ba7f163c4a11628f55a4df523b3ef",
                        "0x00000000000000000000000099d29bef14827aef7ba9fd92b7482404e1adb47e",
                        "0x0000000000000000000000007b2428a55379eda456655226ecb989375240dfb5"
                    ]
                },
                "nodeType": 1
            }
        },
        "gasFlame": [
            {
                "children": [
                    {
                        "children": [
                            {
                                "children": [],
                                "depth": 0,
                                "name": "Initial Gas",
                                "value": 22872
                            },
                            {
                                "children": [],
                                "depth": 0,
                                "name": "Executed Gas",
                                "value": 13749
                            }
                        ],
                        "depth": -1,
                        "name": "Actual Gas Used",
                        "value": 36621
                    },
                    {
                        "children": [],
                        "depth": -1,
                        "name": "Refunded Gas",
                        "value": 0
                    }
                ],
                "depth": -2,
                "name": "Total Gas",
                "value": 36621
            }
        ],
        "isConfirmed": true,
        "mainTrace": [
            {
                "children": [
                    {
                        "children": [
                            {
                                "children": [],
                                "depth": 1,
                                "id": 1,
                                "order": 1
                            }
                        ],
                        "depth": 0,
                        "id": 0,
                        "order": 0
                    }
                ],
                "depth": -1,
                "id": -1,
                "order": -1
            }
        ],
        "mainTraceNodeCount": 2,
        "parentIdMap": {
            "0": -1,
            "1": 0
        },
        "tidyTrace": [
            {
                "children": [
                    {
                        "children": [
                            {
                                "children": [],
                                "depth": 1,
                                "id": 1,
                                "order": 1
                            }
                        ],
                        "depth": 0,
                        "id": 0,
                        "order": 0
                    }
                ],
                "depth": -1,
                "id": -1,
                "order": -1
            }
        ],
        "tidyTraceNodeCount": 2
    },
    "state_change": {
        "stateChanges": [
            {
                "address": "0x0d152b9ee87ebae179f64c067a966dd716c50742",
                "erc": "ERC-20",
                "slots": [
                    {
                        "current": "0x0000000000000000000000000000000000000000000000000000000000000018",
                        "key": "0x3be4f3a7e00c8b306ae5c7dc81f9437216e73f6a0794f361e64f91596fa45d02",
                        "prev": "0x000000000000000000000000000000000000000000000000000000000000002c"
                    },
                    {
                        "current": "0x0000000000000000000000000000000000000000000000000000000000199ac8",
                        "key": "0x2b0f4297de5894608f68e3e7dd6ad2b509fdfd98188ec04a7533f2c364a59264",
                        "prev": "0x0000000000000000000000000000000000000000000000000000000000199ab4"
                    }
                ],
                "storageVariables": [
                    {
                        "name": "balances",
                        "type": "mapping(address => uint256)",
                        "value": {
                            "pairs": [
                                {
                                    "key": "0x7b2428a55379eda456655226ecb989375240dfb5",
                                    "value": {
                                        "current": "1678024",
                                        "prev": "1678004",
                                        "typeTag": 1
                                    }
                                },
                                {
                                    "key": "0x99d29bef14827aef7ba9fd92b7482404e1adb47e",
                                    "value": {
                                        "current": "24",
                                        "prev": "44",
                                        "typeTag": 1
                                    }
                                }
                            ],
                            "typeTag": 4
                        }
                    }
                ]
            }
        ]
    }
}