{
    "balance_change": {
        "balanceChanges": [
            {
                "account": "0xc4c8c7f0dc27fed5a4ceb9ad4db57e49e86dbc3c",
                "assets": [
                    {
                        "address": "0x0c17c863bcdaf467f8fec857fd66793f62934b13",
                        "amount": "1,363,813,108,318,806",
                        "iconUrl": "",
                        "isERC1155": false,
                        "isERC721": false,
                        "sign": true,
                        "value": ""
                    },
                    {
                        "address": "0x4d8496d6508b79b21c0f16059dc82dd6113503a3",
                        "amount": "1,241.716273894904036312",
                        "iconUrl": "",
                        "isERC1155": false,
                        "isERC721": false,
                        "sign": false,
                        "value": ""
                    },
                    {
                        "address": "0xdac17f958d2ee523a2206206994597c13d831ec7",
                        "amount": "1,500",
                        "iconUrl": "https://assets.blocksec.com/icon/fcea71f3193ce895be44bfdf941f7e4c9381dd587f273c2d1a27f1263d84e4ea.png",
                        "isERC1155": false,
                        "isERC721": false,
                        "sign": false,
                        "value": ""
                    }
                ]
            },
            {
                "account": "0x0000000000000000000000000000000000000000",
                "assets": [
                    {
                        "address": "0x0c17c863bcdaf467f8fec857fd66793f62934b13",
                        "amount": "1,363,813,108,318,806",
                        "iconUrl": "",
                        "isERC1155": false,
                        "isERC721": false,
                        "sign": false,
                        "value": ""
                    }
                ]
            },
            {
                "account": "0x0c17c863bcdaf467f8fec857fd66793f62934b13",
                "assets": [
                    {
                        "address": "0x4d8496d6508b79b21c0f16059dc82dd6113503a3",
                        "amount": "1,241.716273894904036312",
                        "iconUrl": "",
                        "isERC1155": false,
                        "isERC721": false,
                        "sign": true,
                        "value": ""
                    },
                    {
                        "address": "0xdac17f958d2ee523a2206206994597c13d831ec7",
                        "amount": "1,500",
                        "iconUrl": "https://assets.blocksec.com/icon/fcea71f3193ce895be44bfdf941f7e4c9381dd587f273c2d1a27f1263d84e4ea.png",
                        "isERC1155": false,
                        "isERC721": false,
                        "sign": true,
                        "value": ""
                    }
                ]
            }
        ]
    },
    "profile": {
        "basic_info": {
            "baseFee": "",
            "blockNumber": 10990738,
            "callData": "0xe8e337000000000000000000000000004d8496d6508b79b21c0f16059dc82dd6113503a3000000000000000000000000dac17f958d2ee523a2206206994597c13d831ec7000000000000000000000000000000000000000000000043504664366f67fbd80000000000000000000000000000000000000000000000000000000059682f01000000000000000000000000000000000000000000000042fa1d145a00c4e7620000000000000000000000000000000000000000000000000000000058f5be20000000000000000000000000c4c8c7f0dc27fed5a4ceb9ad4db57e49e86dbc3c000000000000000000000000000000000000000000000000000000005f7a0bd9",
            "debugEnable": true,
            "errorInfo": "",
            "eventCount": 5,
            "feeRecipient": "0x04668ec2f57cc15c381b461b9fedab5d451c8f7f",
            "formatValue": "0",
            "gasLimit": 153442,
            "gasPrice": "78",
            "gasUsed": 133124,
            "intTxnCount": 8,
            "internalRevert": false,
            "internalRevertMessage": "",
            "isContractCreation": false,
            "isFlashloan": false,
            "maxFee": "",
            "nonce": 24,
            "overwritedBlockNumber": -1,
            "priorityFee": "",
            "receiver": "0x7a250d5630b4cf539739df2c5dacb4c659f2488d",
            "revertMessage": "",
            "sender": "0xc4c8c7f0dc27fed5a4ceb9ad4db57e49e86dbc3c",
            "simulationEnable": true,
            "sourceTxnHash": "0x366c6c5779837ef22ec58c45813ce78641ca17cd51ce759f6dcba86274ae8390",
            "status": true,
            "timestamp": "2020-10-04T17:33:31Z",
            "transactionFee": "0.010383672",
            "txnHash": "0x366c6c5779837ef22ec58c45813ce78641ca17cd51ce759f6dcba86274ae8390",
            "txnIndex": 10,
            "type": 0,
            "value": "0"
        },
        "fund_flow": [
            {
                "amount": "1,241.716273894904036312",
                "from": "0xc4c8c7f0dc27fed5a4ceb9ad4db57e49e86dbc3c",
                "id": 1,
                "isERC1155": false,
                "isERC721": false,
                "isReverted": false,
                "order": 1,
                "to": "0x0c17c863bcdaf467f8fec857fd66793f62934b13",
                "token": "0x4d8496d6508b79b21c0f16059dc82dd6113503a3"
            },
            {
                "amount": "1,500",
                "from": "0xc4c8c7f0dc27fed5a4ceb9ad4db57e49e86dbc3c",
                "id": 2,
                "isERC1155": false,
                "isERC721": false,
                "isReverted": false,
                "order": 2,
                "to": "0x0c17c863bcdaf467f8fec857fd66793f62934b13",
                "token": "0xdac17f958d2ee523a2206206994597c13d831ec7"
            },
            {
                "amount": "1,363,813,108,318,806",
                "from": "0x0000000000000000000000000000000000000000",
                "id": 3,
                "isERC1155": false,
                "isERC721": false,
                "isReverted": false,
                "order": 3,
                "to": "0xc4c8c7f0dc27fed5a4ceb9ad4db57e49e86dbc3c",
                "token": "0x0c17c863bcdaf467f8fec857fd66793f62934b13"
            }
        ],
        "token_infos": [
            {
                "address": "0x4d8496d6508b79b21c0f16059dc82dd6113503a3",
                "decimals": 18
            },
            {
                "address": "0xc02aaa39b223fe8d0a0e5c4f27ead9083c756cc2",
                "decimals": 18
            },
            {
                "address": "0xdac17f958d2ee523a2206206994597c13d831ec7",
                "decimals": 6
            },
            {
                "address": "0xeeeeeeeeeeeeeeeeeeeeeeeeeeeeeeeeeeeeeeee",
                "decimals": 18
            }
        ]
    },
    "address_label": {
        "labels": [
            {
                "address": "0x7a250d5630b4cf539739df2c5dacb4c659f2488d",
                "label": "Uniswap V2: Router 2"
            },
            {
                "address": "0x5c69bee701ef814a2b6a3edd4b1652cb9cc5aa6f",
                "label": "Uniswap V2: Factory Contract"
            },
            {
                "address": "0x0000000000000000000000000000000000000000",
                "label": "Null Address"
            },
            {
                "address": "0x0000000000000000000000000000000000000001",
                "label": "Precompiled"
            },
            {
                "address": "0x0000000000000000000000000000000000000002",
                "label": "Precompiled"
            },
            {
                "address": "0x0000000000000000000000000000000000000004",
                "label": "Precompiled"
            },
            {
                "address": "0xeeeeeeeeeeeeeeeeeeeeeeeeeeeeeeeeeeeeeeee",
                "label": "Ether"
            },
            {
                "address": "0x0c17c863bcdaf467f8fec857fd66793f62934b13",
                "label": "Uniswap V2: YFN-USDT"
            },
            {
                "address": "0xdac17f958d2ee523a2206206994597c13d831ec7",
                "label": "Tether: USDT Stablecoin"
            },
            {
                "address": "0x4d8496d6508b79b21c0f16059dc82dd6113503a3",
                "label": "YFN"
            },
            {
                "address": "0x0000000000000000000000000000000000000003",
                "label": "Precompiled"
            }
        ]
    },
    "trace": {
        "accountLabels": null,
        "dataMap": {
            "-1": {
                "invocation": {
                    "address": "0xc4c8c7f0dc27fed5a4ceb9ad4db57e49e86dbc3c",
                    "callData": "",
                    "decodedMethod": null,
                    "errorInfo": "",
                    "fromAddress": "",
                    "gasUsed": 0,
                    "id": -1,
                    "methodDecoded": false,
                    "operation": "",
                    "output": "",
                    "revert": false,
                    "revertMessage": "",
                    "selector": "",
                    "status": false,
                    "value": ""
                },
                "nodeType": 0
            },
            "0": {
                "invocation": {
                    "address": "0x7a250d5630b4cf539739df2c5dacb4c659f2488d",
                    "callData": "0x0000000000000000000000004d8496d6508b79b21c0f16059dc82dd6113503a3000000000000000000000000dac17f958d2ee523a2206206994597c13d831ec7000000000000000000000000000000000000000000000043504664366f67fbd80000000000000000000000000000000000000000000000000000000059682f01000000000000000000000000000000000000000000000042fa1d145a00c4e7620000000000000000000000000000000000000000000000000000000058f5be20000000000000000000000000c4c8c7f0dc27fed5a4ceb9ad4db57e49e86dbc3c000000000000000000000000000000000000000000000000000000005f7a0bd9",
                    "decodedMethod": {
                        "callParams": [
                            {
                                "name": "tokenA",
                                "type": "address",
                                "value": "0x4d8496d6508b79b21c0f16059dc82dd6113503a3"
                            },
                            {
                                "name": "tokenB",
                                "type": "address",
                                "value": "0xdac17f958d2ee523a2206206994597c13d831ec7"
                            },
                            {
                                "name": "amountADesired",
                                "type": "uint256",
                                "value": "1,241,716,273,894,904,036,312"
                            },
                            {
                                "name": "amountBDesired",
                                "type": "uint256",
                                "value": "1,500,000,001"
                            },
                            {
                                "name": "amountAMin",
                                "type": "uint256",
                                "value": "1,235,507,692,525,429,516,130"
                            },
                            {
                                "name": "amountBMin",
                                "type": "uint256",
                                "value": "1,492,500,000"
                            },
                            {
                                "name": "to",
                                "type": "address",
                                "value": "0xc4c8c7f0dc27fed5a4ceb9ad4db57e49e86dbc3c"
                            },
                            {
                                "name": "deadline",
                                "type": "uint256",
                                "value": "1,601,833,945"
                            }
                        ],
                        "constructorArguments": "",
                        "name": "addLiquidity",
                        "returnParams": [
                            {
                                "name": "amountA",
                                "type": "uint256",
                                "value": "1,241,716,273,894,904,036,312"
                            },
                            {
                                "name": "amountB",
                                "type": "uint256",
                                "value": "1,500,000,000"
                            },
                            {
                                "name": "liquidity",
                                "type": "uint256",
                                "value": "1,363,813,108,318,806"
                            }
                        ],
                        "signature": "addLiquidity(address,address,uint256,uint256,uint256,uint256,address,uint256)"
                    },
                    "errorInfo": "",
                    "fromAddress": "0xc4c8c7f0dc27fed5a4ceb9ad4db57e49e86dbc3c",
                    "gasUsed": 133124,
                    "id": 0,
                    "methodDecoded": true,
                    "operation": "CALL",
                    "output": "0x000000000000000000000000000000000000000000000043504664366f67fbd80000000000000000000000000000000000000000000000000000000059682f000000000000000000000000000000000000000000000000000004d8617bdc8256",
                    "revert": false,
                    "revertMessage": "",
                    "selector": "0xe8e33700",
                    "status": true,
                    "value": "0"
                },
                "nodeType": 0
            },
            "1": {
                "invocation": {
                    "address": "0x5c69bee701ef814a2b6a3edd4b1652cb9cc5aa6f",
                    "callData": "0x0000000000000000000000004d8496d6508b79b21c0f16059dc82dd6113503a3000000000000000000000000dac17f958d2ee523a2206206994597c13d831ec7",
                    "decodedMethod": {
                        "callParams": [
                            {
                                "name": "",
                                "type": "address",
                                "value": "0x4d8496d6508b79b21c0f16059dc82dd6113503a3"
                            },
                            {
                                "name": "",
                                "type": "address",
                                "value": "0xdac17f958d2ee523a2206206994597c13d831ec7"
                            }
                        ],
                        "constructorArguments": "",
                        "name": "getPair",
                        "returnParams": [
                            {
                                "name": "",
                                "type": "address",
                                "value": "0x0c17c863bcdaf467f8fec857fd66793f62934b13"
                            }
                        ],
                        "signature": "getPair(address,address)"
                    },
                    "errorInfo": "",
                    "fromAddress": "0x7a250d5630b4cf539739df2c5dacb4c659f2488d",
                    "gasUsed": 1264,
                    "id": 1,
                    "methodDecoded": true,
                    "operation": "STATICCALL",
                    "output": "0x0000000000000000000000000c17c863bcdaf467f8fec857fd66793f62934b13",
                    "revert": false,
                    "revertMessage": "",
                    "selector": "0xe6a43905",
                    "status": true,
                    "value": "0"
                },
                "nodeType": 0
            },
            "10": {
                "invocation": {
                    "address": "0x5c69bee701ef814a2b6a3edd4b1652cb9cc5aa6f",
                    "callData": "0x",
                    "decodedMethod": {
                        "callParams": [],
                        "constructorArguments": "",
                        "name": "feeTo",
                        "returnParams": [
                            {
                                "name": "",
                                "type": "address",
                                "value": "0x0000000000000000000000000000000000000000"
                            }
                        ],
                        "signature": "feeTo()"
                    },
                    "errorInfo": "",
                    "fromAddress": "0x0c17c863bcdaf467f8fec857fd66793f62934b13",
                    "gasUsed": 1014,
                    "id": 10,
                    "methodDecoded": true,
                    "operation": "STATICCALL",
                    "output": "0x0000000000000000000000000000000000000000000000000000000000000000",
                    "revert": false,
                    "revertMessage": "",
                    "selector": "0x017e7e58",
                    "status": true,
                    "value": "0"
                },
                "nodeType": 0
            },
            "11": {
                "event": {
                    "contract": "0x0c17c863bcdaf467f8fec857fd66793f62934b13",
                    "decodedLog": {
                        "name": "Transfer",
                        "params": [
                            {
                                "name": "from",
                                "type": "address",
                                "value": "0x0000000000000000000000000000000000000000"
                            },
                            {
                                "name": "to",
                                "type": "address",
                                "value": "0xc4c8c7f0dc27fed5a4ceb9ad4db57e49e86dbc3c"
                            },
                            {
                                "decimalAvailable": true,
                                "name": "value",
                                "type": "uint256",
                                "value": "1,363,813,108,318,806"
                            }
                        ],
                        "signature": "Transfer(address,address,uint256)"
                    },
                    "id": 11,
                    "logData": "0x0000000000000000000000000000000000000000000000000004d8617bdc8256",
                    "logDecoded": true,
                    "operation": "EVENT",
                    "revert": false,
                    "status": true,
                    "topics": [
                        "0xddf252ad1be2c89b69c2b068fc378daa952ba7f163c4a11628f55a4df523b3ef",
                        "0x0000000000000000000000000000000000000000000000000000000000000000",
                        "0x000000000000000000000000c4c8c7f0dc27fed5a4ceb9ad4db57e49e86dbc3c"
                    ]
                },
                "nodeType": 1
            },
            "12": {
                "event": {
                    "contract": "0x0c17c863bcdaf467f8fec857fd66793f62934b13",
                    "decodedLog": {
                        "name": "Sync",
                        "params": [
                            {
                                "name": "reserve0",
                                "type": "uint112",
                                "value": "2,211,310,422,408,100,357,005"
                            },
                            {
                                "name": "reserve1",
                                "type": "uint112",
                                "value": "2,671,274,996"
                            }
                        ],
                        "signature": "Sync(uint112,uint112)"
                    },
                    "id": 12,
                    "logData": "0x000000000000000000000000000000000000000000000077e018c927c9d0a38d000000000000000000000000000000000000000000000000000000009f386bf4",
                    "logDecoded": true,
                    "operation": "EVENT",
                    "revert": false,
                    "status": true,
                    "topics": [
                        "0x1c411e9a96e071241c2f21f7726b17ae89e3cab4c78be50e062b03a9fffbbad1"
                    ]
                },
                "nodeType": 1
            },
            "13": {
                "event": {
                    "contract": "0x0c17c863bcdaf467f8fec857fd66793f62934b13",
                    "decodedLog": {
                        "name": "Mint",
                        "params": [
                            {
                                "name": "sender",
                                "type": "address",
                                "value": "0x7a250d5630b4cf539739df2c5dacb4c659f2488d"
                            },
                            {
                                "name": "amount0",
                                "type": "uint256",
                                "value": "1,241,716,273,894,904,036,312"
                            },
                            {
                                "name": "amount1",
                                "type": "uint256",
                                "value": "1,500,000,000"
                            }
                        ],
                        "signature": "Mint(address,uint256,uint256)"
                    },
                    "id": 13,
                    "logData": "0x000000000000000000000000000000000000000000000043504664366f67fbd80000000000000000000000000000000000000000000000000000000059682f00",
                    "logDecoded": true,
                    "operation": "EVENT",
                    "revert": false,
                    "status": true,
                    "topics": [
                        "0x4c209b5fc8ad50758f13e2e1088ba56a560dff690a1c6fef26394f4c03821c4f",
                        "0x0000000000000000000000007a250d5630b4cf539739df2c5dacb4c659f2488d"
                    ]
                },
                "nodeType": 1
            },
            "2": {
                "invocation": {
                    "address": "0x0c17c863bcdaf467f8fec857fd66793f62934b13",
                    "callData": "0x",
                    "decodedMethod": {
                        "callParams": [],
                        "constructorArguments": "",
                        "name": "getReserves",
                        "returnParams": [
                            {
                                "name": "_reserve0",
                                "type": "uint112",
                                "value": "969,594,148,513,196,320,693"
                            },
                            {
                                "name": "_reserve1",
                                "type": "uint112",
                                "value": "1,171,274,996"
                            },
                            {
                                "name": "_blockTimestampLast",
                                "type": "uint32",
                                "value": "1,601,708,195"
                            }
                        ],
                        "signature": "getReserves()"
                    },
                    "errorInfo": "",
                    "fromAddress": "0x7a250d5630b4cf539739df2c5dacb4c659f2488d",
                    "gasUsed": 1204,
                    "id": 2,
                    "methodDecoded": true,
                    "operation": "STATICCALL",
                    "output": "0x0000000000000000000000000000000000000000000000348fd264f15a68a7b50000000000000000000000000000000000000000000000000000000045d03cf4000000000000000000000000000000000000000000000000000000005f7820a3",
                    "revert": false,
                    "revertMessage": "",
                    "selector": "0x0902f1ac",
                    "status": true,
                    "value": "0"
                },
                "nodeType": 0
            },
            "3": {
                "invocation": {
                    "address": "0x4d8496d6508b79b21c0f16059dc82dd6113503a3",
                    "callData": "0x000000000000000000000000c4c8c7f0dc27fed5a4ceb9ad4db57e49e86dbc3c0000000000000000000000000c17c863bcdaf467f8fec857fd66793f62934b13000000000000000000000000000000000000000000000043504664366f67fbd8",
                    "decodedMethod": {
                        "callParams": [
                            {
                                "name": "_from",
                                "type": "address",
                                "value": "0xc4c8c7f0dc27fed5a4ceb9ad4db57e49e86dbc3c"
                            },
                            {
                                "name": "_to",
                                "type": "address",
                                "value": "0x0c17c863bcdaf467f8fec857fd66793f62934b13"
                            },
                            {
                                "decimalAvailable": true,
                                "name": "_value",
                                "type": "uint256",
                                "value": "1,241,716,273,894,904,036,312"
                            }
                        ],
                        "constructorArguments": "",
                        "name": "transferFrom",
                        "returnParams": [
                            {
                                "name": "trans",
                                "type": "bool",
                                "value": true
                            }
                        ],
                        "signature": "transferFrom(address,address,uint256)"
                    },
                    "errorInfo": "",
                    "fromAddress": "0x7a250d5630b4cf539739df2c5dacb4c659f2488d",
                    "gasUsed": 22689,
                    "id": 3,
                    "methodDecoded": true,
                    "operation": "CALL",
                    "output": "0x0000000000000000000000000000000000000000000000000000000000000001",
                    "revert": false,
                    "revertMessage": "",
                    "selector": "0x23b872dd",
                    "status": true,
                    "value": "0"
                },
                "nodeType": 0
            },
            "4": {
                "event": {
                    "contract": "0x4d8496d6508b79b21c0f16059dc82dd6113503a3",
                    "decodedLog": {
                        "name": "Transfer",
                        "params": [
                            {
                                "name": "from",
                                "type": "address",
                                "value": "0xc4c8c7f0dc27fed5a4ceb9ad4db57e49e86dbc3c"
                            },
                            {
                                "name": "to",
                                "type": "address",
                                "value": "0x0c17c863bcdaf467f8fec857fd66793f62934b13"
                            },
                            {
                                "decimalAvailable": true,
                                "name": "value",
                                "type": "uint256",
                                "value": "1,241,716,273,894,904,036,312"
                            }
                        ],
                        "signature": "Transfer(address,address,uint256)"
                    },
                    "id": 4,
                    "logData": "0x000000000000000000000000000000000000000000000043504664366f67fbd8",
                    "logDecoded": true,
                    "operation": "EVENT",
                    "revert": false,
                    "status": true,
                    "topics": [
                        "0xddf252ad1be2c89b69c2b068fc378daa952ba7f163c4a11628f55a4df523b3ef",
                        "0x000000000000000000000000c4c8c7f0dc27fed5a4ceb9ad4db57e49e86dbc3c",
                        "0x0000000000000000000000000c17c863bcdaf467f8fec857fd66793f62934b13"
                    ]
                },
                "nodeType": 1
            },
            "5": {
                "invocation": {
                    "address": "0xdac17f958d2ee523a2206206994597c13d831ec7",
                    "callData": "0x000000000000000000000000c4c8c7f0dc27fed5a4ceb9ad4db57e49e86dbc3c0000000000000000000000000c17c863bcdaf467f8fec857fd66793f62934b130000000000000000000000000000000000000000000000000000000059682f00",
                    "decodedMethod": {
                        "callParams": [
                            {
                                "name": "_from",
                                "type": "address",
                                "value": "0xc4c8c7f0dc27fed5a4ceb9ad4db57e49e86dbc3c"
                            },
                            {
                                "name": "_to",
                                "type": "address",
                                "value": "0x0c17c863bcdaf467f8fec857fd66793f62934b13"
                            },
                            {
                                "decimalAvailable": true,
                                "name": "_value",
                                "type": "uint256",
                                "value": "1,500,000,000"
                            }
                        ],
                        "constructorArguments": "",
                        "name": "transferFrom",
                        "returnParams": [],
                        "signature": "transferFrom(address,address,uint256)"
                    },
                    "errorInfo": "",
                    "fromAddress": "0x7a250d5630b4cf539739df2c5dacb4c659f2488d",
                    "gasUsed": 20330,
                    "id": 5,
                    "methodDecoded": true,
                    "operation": "CALL",
                    "output": "",
                    "revert": false,
                    "revertMessage": "",
                    "selector": "0x23b872dd",
                    "status": true,
                    "value": "0"
                },
                "nodeType": 0
            },
            "6": {
                "event": {
                    "contract": "0xdac17f958d2ee523a2206206994597c13d831ec7",
                    "decodedLog": {
                        "name": "Transfer",
                        "params": [
                            {
                                "name": "from",
                                "type": "address",
                                "value": "0xc4c8c7f0dc27fed5a4ceb9ad4db57e49e86dbc3c"
                            },
                            {
                                "name": "to",
                                "type": "address",
                                "value": "0x0c17c863bcdaf467f8fec857fd66793f62934b13"
                            },
                            {
                                "decimalAvailable": true,
                                "name": "value",
                                "type": "uint256",
                                "value": "1,500,000,000"
                            }
                        ],
                        "signature": "Transfer(address,address,uint256)"
                    },
                    "id": 6,
                    "logData": "0x0000000000000000000000000000000000000000000000000000000059682f00",
                    "logDecoded": true,
                    "operation": "EVENT",
                    "revert": false,
                    "status": true,
                    "topics": [
                        "0xddf252ad1be2c89b69c2b068fc378daa952ba7f163c4a11628f55a4df523b3ef",
                        "0x000000000000000000000000c4c8c7f0dc27fed5a4ceb9ad4db57e49e86dbc3c",
                        "0x0000000000000000000000000c17c863bcdaf467f8fec857fd66793f62934b13"
                    ]
                },
                "nodeType": 1
            },
            "7": {
                "invocation": {
                    "address": "0x0c17c863bcdaf467f8fec857fd66793f62934b13",
                    "callData": "0x000000000000000000000000c4c8c7f0dc27fed5a4ceb9ad4db57e49e86dbc3c",
                    "decodedMethod": {
                        "callParams": [
                            {
                                "name": "to",
                                "type": "address",
                                "value": "0xc4c8c7f0dc27fed5a4ceb9ad4db57e49e86dbc3c"
                            }
                        ],
                        "constructorArguments": "",
                        "name": "mint",
                        "returnParams": [
                            {
                                "name": "liquidity",
                                "type": "uint256",
                                "value": "1,363,813,108,318,806"
                            }
                        ],
                        "signature": "mint(address)"
                    },
                    "errorInfo": "",
                    "fromAddress": "0x7a250d5630b4cf539739df2c5dacb4c659f2488d",
                    "gasUsed": 57975,
                    "id": 7,
                    "methodDecoded": true,
                    "operation": "CALL",
                    "output": "0x0000000000000000000000000000000000000000000000000004d8617bdc8256",
                    "revert": false,
                    "revertMessage": "",
                    "selector": "0x6a627842",
                    "status": true,
                    "value": "0"
                },
                "nodeType": 0
            },
            "8": {
                "invocation": {
                    "address": "0x4d8496d6508b79b21c0f16059dc82dd6113503a3",
                    "callData": "0x0000000000000000000000000c17c863bcdaf467f8fec857fd66793f62934b13",
                    "decodedMethod": {
                        "callParams": [
                            {
                                "name": "_owner",
                                "type": "address",
                                "value": "0x0c17c863bcdaf467f8fec857fd66793f62934b13"
                            }
                        ],
                        "constructorArguments": "",
                        "name": "balanceOf",
                        "returnParams": [
                            {
                                "decimalAvailable": true,
                                "name": "balance",
                                "type": "uint256",
                                "value": "2,211,310,422,408,100,357,005"
                            }
                        ],
                        "signature": "balanceOf(address)"
                    },
                    "errorInfo": "",
                    "fromAddress": "0x0c17c863bcdaf467f8fec857fd66793f62934b13",
                    "gasUsed": 1219,
                    "id": 8,
                    "methodDecoded": true,
                    "operation": "STATICCALL",
                    "output": "0x000000000000000000000000000000000000000000000077e018c927c9d0a38d",
                    "revert": false,
                    "revertMessage": "",
                    "selector": "0x70a08231",
                    "status": true,
                    "value": "0"
                },
                "nodeType": 0
            },
            "9": {
                "invocation": {
                    "address": "0xdac17f958d2ee523a2206206994597c13d831ec7",
                    "callData": "0x0000000000000000000000000c17c863bcdaf467f8fec857fd66793f62934b13",
                    "decodedMethod": {
                        "callParams": [
                            {
                                "name": "who",
                                "type": "address",
                                "value": "0x0c17c863bcdaf467f8fec857fd66793f62934b13"
                            }
                        ],
                        "constructorArguments": "",
                        "name": "balanceOf",
                        "returnParams": [
                            {
                                "decimalAvailable": true,
                                "name": "",
                                "type": "uint256",
                                "value": "2,671,274,996"
                            }
                        ],
                        "signature": "balanceOf(address)"
                    },
                    "errorInfo": "",
                    "fromAddress": "0x0c17c863bcdaf467f8fec857fd66793f62934b13",
                    "gasUsed": 2431,
                    "id": 9,
                    "methodDecoded": true,
                    "operation": "STATICCALL",
                    "output": "0x000000000000000000000000000000000000000000000000000000009f386bf4",
                    "revert": false,
                    "revertMessage": "",
                    "selector": "0x70a08231",
                    "status": true,
                    "value": "0"
                },
                "nodeType": 0
            }
        },
        "gasFlame": [
            {
                "children": [
                    {
                        "children": [
                            {
                                "children": [],
                                "depth": 0,
                                "name": "Initial Gas",
                                "value": 23144
                            },
                            {
                                "children": [
                                    {
                                        "children": [],
                                        "depth": 1,
                                        "name": "getPair",
                                        "value": 1264
                                    },
                                    {
                                        "children": [],
                                        "depth": 1,
                                        "name": "getReserves",
                                        "value": 1204
                                    },
                                    {
                                        "children": [],
                                        "depth": 1,
                                        "name": "transferFrom",
                                        "value": 22689
                                    },
                                    {
                                        "children": [],
                                        "depth": 1,
                                        "name": "transferFrom",
                                        "value": 20330
                                    },
                                    {
                                        "children": [
                                            {
                                                "children": [],
                                                "depth": 2,
                                                "name": "balanceOf",
                                                "value": 1219
                                            },
                                            {
                                                "children": [],
                                                "depth": 2,
                                                "name": "balanceOf",
                                                "value": 2431
                                            },
                                            {
                                                "children": [],
                                                "depth": 2,
                                                "name": "feeTo",
                                                "value": 1014
                                            }
                                        ],
                                        "depth": 1,
                                        "name": "mint",
                                        "value": 57975
                                    }
                                ],
                                "depth": 0,
                                "name": "Executed Gas",
                                "value": 114180
                            }
                        ],
                        "depth": -1,
                        "name": "Actual Gas Used",
                        "value": 133124
                    },
                    {
                        "children": [],
                        "depth": -1,
                        "name": "Refunded Gas",
                        "value": 4200
                    }
                ],
                "depth": -2,
                "name": "Total Gas",
                "value": 137324
            }
        ],
        "isConfirmed": true,
        "mainTrace": [
            {
                "children": [
                    {
                        "children": [
                            {
                                "children": [],
                                "depth": 1,
                                "id": 1,
                                "order": 1
                            },
                            {
                                "children": [],
                                "depth": 1,
                                "id": 2,
                                "order": 2
                            },
                            {
                                "children": [
                                    {
                                        "children": [],
                                        "depth": 2,
                                        "id": 4,
                                        "order": 4
                                    }
                                ],
                                "depth": 1,
                                "id": 3,
                                "order": 3
                            },
                            {
                                "children": [
                                    {
                                        "children": [],
                                        "depth": 2,
                                        "id": 6,
                                        "order": 6
                                    }
                                ],
                                "depth": 1,
                                "id": 5,
                                "order": 5
                            },
                            {
                                "children": [
                                    {
                                        "children": [],
                                        "depth": 2,
                                        "id": 8,
                                        "order": 8
                                    },
                                    {
                                        "children": [],
                                        "depth": 2,
                                        "id": 9,
                                        "order": 9
                                    },
                                    {
                                        "children": [],
                                        "depth": 2,
                                        "id": 10,
                                        "order": 10
                                    },
                                    {
                                        "children": [],
                                        "depth": 2,
                                        "id": 11,
                                        "order": 11
                                    },
                                    {
                                        "children": [],
                                        "depth": 2,
                                        "id": 12,
                                        "order": 12
                                    },
                                    {
                                        "children": [],
                                        "depth": 2,
                                        "id": 13,
                                        "order": 13
                                    }
                                ],
                                "depth": 1,
                                "id": 7,
                                "order": 7
                            }
                        ],
                        "depth": 0,
                        "id": 0,
                        "order": 0
                    }
                ],
                "depth": -1,
                "id": -1,
                "order": -1
            }
        ],
        "mainTraceNodeCount": 14,
        "parentIdMap": {
            "0": -1,
            "1": 0,
            "10": 7,
            "11": 7,
            "12": 7,
            "13": 7,
            "2": 0,
            "3": 0,
            "4": 3,
            "5": 0,
            "6": 5,
            "7": 0,
            "8": 7,
            "9": 7
        },
        "tidyTrace": [
            {
                "children": [
                    {
                        "children": [
                            {
                                "children": [
                                    {
                                        "children": [],
                                        "depth": 2,
                                        "id": 4,
                                        "order": 4
                                    }
                                ],
                                "depth": 1,
                                "id": 3,
                                "order": 3
                            },
                            {
                                "children": [
                                    {
                                        "children": [],
                                        "depth": 2,
                                        "id": 6,
                                        "order": 6
                                    }
                                ],
                                "depth": 1,
                                "id": 5,
                                "order": 5
                            },
                            {
                                "children": [
                                    {
                                        "children": [],
                                        "depth": 2,
                                        "id": 11,
                                        "order": 11
                                    },
                                    {
                                        "children": [],
                                        "depth": 2,
                                        "id": 12,
                                        "order": 12
                                    },
                                    {
                                        "children": [],
                                        "depth": 2,
                                        "id": 13,
                                        "order": 13
                                    }
                                ],
                                "depth": 1,
                                "id": 7,
                                "order": 7
                            }
                        ],
                        "depth": 0,
                        "id": 0,
                        "order": 0
                    }
                ],
                "depth": -1,
                "id": -1,
                "order": -1
            }
        ],
        "tidyTraceNodeCount": 9
    },
    "state_change": {
        "stateChanges": [
            {
                "address": "0x0c17c863bcdaf467f8fec857fd66793f62934b13",
                "erc": "ERC-20",
                "slots": [
                    {
                        "current": "0x0000000000000000000000000000000000000000000000000008a0eea092a81f",
                        "key": "0x6cb81ac31c25795e742c43a4231619088c78b2280e2bc9bf96af3e96521c267b",
                        "prev": "0x0000000000000000000000000000000000000000000000000003c88d24b625c9"
                    },
                    {
                        "current": "0x0000000000000000000000000000000000000000048768c4115199d638e911eb",
                        "key": "0x0000000000000000000000000000000000000000000000000000000000000009",
                        "prev": "0x00000000000000000000000000000000000000000200dbcc7dca347037e8e2c3"
                    },
                    {
                        "current": "0x000000000000000000000293fbbc4216a008e4bf8fc42a5fa3616e09e7559256",
                        "key": "0x000000000000000000000000000000000000000000000000000000000000000a",
                        "prev": "0x0000000000000000000001257da5b9714210730f6ee6d2dee2c5de48627fe656"
                    },
                    {
                        "current": "0x5f7a076b000000000000000000009f386bf4000000000077e018c927c9d0a38d",
                        "key": "0x0000000000000000000000000000000000000000000000000000000000000008",
                        "prev": "0x5f7820a30000000000000000000045d03cf40000000000348fd264f15a68a7b5"
                    },
                    {
                        "current": "0x0000000000000000000000000000000000000000000000000008a0eea092ac07",
                        "key": "0x0000000000000000000000000000000000000000000000000000000000000000",
                        "prev": "0x0000000000000000000000000000000000000000000000000003c88d24b629b1"
                    }
                ],
                "storageVariables": [
                    {
                        "name": "balanceOf",
                        "type": "mapping(address => uint256)",
                        "value": {
                            "pairs": [
                                {
                                    "key": "0xc4c8c7f0dc27fed5a4ceb9ad4db57e49e86dbc3c",
                                    "value": {
                                        "current": "2428746570311711",
                                        "prev": "1064933461992905",
                                        "typeTag": 1
                                    }
                                }
                            ],
                            "typeTag": 4
                        }
                    },
                    {
                        "name": "price0CumulativeLast",
                        "type": "uint256",
                        "value": {
                            "current": "1401639767857359820773986795",
                            "prev": "620007990102344483115426499",
                            "typeTag": 1
                        }
                    },
                    {
                        "name": "price1CumulativeLast",
                        "type": "uint256",
                        "value": {
                            "current": "964566733981748936799665274458824354598324356354646",
                            "prev": "428937299361577911822910218623230508107601603978838",
                            "typeTag": 1
                        }
                    },
                    {
                        "name": "reserve0",
                        "type": "uint112",
                        "value": {
                            "current": "2211310422408100357005",
                            "prev": "969594148513196320693",
                            "typeTag": 1
                        }
                    },
                    {
                        "name": "reserve1",
                        "type": "uint112",
                        "value": {
                            "current": "2671274996",
                            "prev": "1171274996",
                            "typeTag": 1
                        }
                    },
                    {
                        "name": "blockTimestampLast",
                        "type": "uint32",
                        "value": {
                            "current": "1601832811",
                            "prev": "1601708195",
                            "typeTag": 1
                        }
                    },
                    {
                        "name": "totalSupply",
                        "type": "uint256",
                        "value": {
                            "current": "2428746570312711",
                            "prev": "1064933461993905",
                            "typeTag": 1
                        }
                    }
                ]
            },
            {
                "address": "0x4d8496d6508b79b21c0f16059dc82dd6113503a3",
                "erc": "ERC-20",
                "slots": [
                    {
                        "current": "0x0000000000000000000000000000000000000000000b891e4858feb91885d681",
                        "key": "0x86d7f5471e2956ab19768ab33b37ed6dcc902fc09b829ec07def4b2d90d94c0b",
                        "prev": "0x0000000000000000000000000000000000000000000b8961989f62ef87edd259"
                    },
                    {
                        "current": "0x000000000000000000000000000000000000000000000077e018c927c9d0a38d",
                        "key": "0xd2a816e0a94ef85f0c8dbcc419ebc7983f54e6eadee61d213a88c5b89fab93da",
                        "prev": "0x0000000000000000000000000000000000000000000000348fd264f15a68a7b5"
                    },
                    {
                        "current": "0xffffffffffffffffffffffffffffffffffffffffffffff70ee59f14e22339d9e",
                        "key": "0x68d7ac584006da0e6f250b0cd6462b5050b9432489972a23ef8dc38b3aa00186",
                        "prev": "0xffffffffffffffffffffffffffffffffffffffffffffffb43ea05584919b9976"
                    }
                ],
                "storageVariables": [
                    {
                        "name": "balances",
                        "type": "mapping(address => uint256)",
                        "value": {
                            "pairs": [
                                {
                                    "key": "0x0c17c863bcdaf467f8fec857fd66793f62934b13",
                                    "value": {
                                        "current": "2211310422408100357005",
                                        "prev": "969594148513196320693",
                                        "typeTag": 1
                                    }
                                },
                                {
                                    "key": "0xc4c8c7f0dc27fed5a4ceb9ad4db57e49e86dbc3c",
                                    "value": {
                                        "current": "13945706839432913217771137",
                                        "prev": "13946948555706808121807449",
                                        "typeTag": 1
                                    }
                                }
                            ],
                            "typeTag": 4
                        }
                    },
                    {
                        "name": "allowed",
                        "type": "mapping(address => mapping(address => uint256))",
                        "value": {
                            "pairs": [
                                {
                                    "key": "0xc4c8c7f0dc27fed5a4ceb9ad4db57e49e86dbc3c",
                                    "value": {
                                        "pairs": [
                                            {
                                                "key": "0x7a250d5630b4cf539739df2c5dacb4c659f2488d",
                                                "value": {
                                                    "current": "115792089237316195423570985008687907853269984665640564036818427885270791855518",
                                                    "prev": "115792089237316195423570985008687907853269984665640564038060144159165695891830",
                                                    "typeTag": 1
                                                }
                                            }
                                        ],
                                        "typeTag": 4
                                    }
                                }
                            ],
                            "typeTag": 4
                        }
                    }
                ]
            },
            {
                "address": "0xdac17f958d2ee523a2206206994597c13d831ec7",
                "erc": "ERC-20",
                "slots": [
                    {
                        "current": "0x0000000000000000000000000000000000000000000000000000000000000001",
                        "key": "0x86d7f5471e2956ab19768ab33b37ed6dcc902fc09b829ec07def4b2d90d94c0b",
                        "prev": "0x0000000000000000000000000000000000000000000000000000000059682f01"
                    },
                    {
                        "current": "0x000000000000000000000000000000000000000000000000000000009f386bf4",
                        "key": "0xd2a816e0a94ef85f0c8dbcc419ebc7983f54e6eadee61d213a88c5b89fab93da",
                        "prev": "0x0000000000000000000000000000000000000000000000000000000045d03cf4"
                    }
                ],
                "storageVariables": [
                    {
                        "name": "balances",
                        "type": "mapping(address => uint256)",
                        "value": {
                            "pairs": [
                                {
                                    "key": "0x0c17c863bcdaf467f8fec857fd66793f62934b13",
                                    "value": {
                                        "current": "2671274996",
                                        "prev": "1171274996",
                                        "typeTag": 1
                                    }
                                },
                                {
                                    "key": "0xc4c8c7f0dc27fed5a4ceb9ad4db57e49e86dbc3c",
                                    "value": {
                                        "current": "1",
                                        "prev": "1500000001",
                                        "typeTag": 1
                                    }
                                }
                            ],
                            "typeTag": 4
                        }
                    }
                ]
            }
        ]
    }
}