{
    "balance_change": {
        "balanceChanges": [
            {
                "account": "0x63edee7c44b5e7a5f08fe0c0bd27f7492382bb89",
                "assets": [
                    {
                        "address": "0x69b5fe0bfe66b6b795d8f26c349eb432fe931e3b",
                        "amount": "6,000",
                        "iconUrl": "",
                        "isERC1155": false,
                        "isERC721": false,
                        "sign": false,
                        "value": ""
                    }
                ]
            },
            {
                "account": "0xfab09857304344aab64d1794f9995a350068a750",
                "assets": [
                    {
                        "address": "0x69b5fe0bfe66b6b795d8f26c349eb432fe931e3b",
                        "amount": "6,000",
                        "iconUrl": "",
                        "isERC1155": false,
                        "isERC721": false,
                        "sign": true,
                        "value": ""
                    }
                ]
            }
        ]
    },
    "profile": {
        "basic_info": {
            "baseFee": "",
            "blockNumber": 6407818,
            "callData": "0xa9059cbb000000000000000000000000fab09857304344aab64d1794f9995a350068a75000000000000000000000000000000000000000000000014542ba12a337c00000",
            "debugEnable": true,
            "errorInfo": "",
            "eventCount": 1,
            "feeRecipient": "0x52bc44d5378309ee2abf1539bf71de1b7d7be3b5",
            "formatValue": "0",
            "gasLimit": 60000,
            "gasPrice": "11.16",
            "gasUsed": 53399,
            "intTxnCount": 0,
            "internalRevert": false,
            "internalRevertMessage": "",
            "isContractCreation": false,
            "isFlashloan": false,
            "maxFee": "",
            "nonce": 173,
            "overwritedBlockNumber": -1,
            "priorityFee": "",
            "receiver": "0x69b5fe0bfe66b6b795d8f26c349eb432fe931e3b",
            "revertMessage": "",
            "sender": "0x63edee7c44b5e7a5f08fe0c0bd27f7492382bb89",
            "simulationEnable": true,
            "sourceTxnHash": "0x36476efed88171f38e0cdc9310a157a9576ffc50e11cccf6ab0ac3f7d334494f",
            "status": true,
            "timestamp": "2018-09-27T07:38:53Z",
            "transactionFee": "0.00059593284",
            "txnHash": "0x36476efed88171f38e0cdc9310a157a9576ffc50e11cccf6ab0ac3f7d334494f",
            "txnIndex": 79,
            "type": 0,
            "value": "0"
        },
        "fund_flow": [
            {
                "amount": "6,000",
                "from": "0x63edee7c44b5e7a5f08fe0c0bd27f7492382bb89",
                "id": 1,
                "isERC1155": false,
                "isERC721": false,
                "isReverted": false,
                "order": 1,
                "to": "0xfab09857304344aab64d1794f9995a350068a750",
                "token": "0x69b5fe0bfe66b6b795d8f26c349eb432fe931e3b"
            }
        ],
        "token_infos": [
            {
                "address": "0x69b5fe0bfe66b6b795d8f26c349eb432fe931e3b",
                "decimals": 18
            },
            {
                "address": "0xc02aaa39b223fe8d0a0e5c4f27ead9083c756cc2",
                "decimals": 18
            },
            {
                "address": "0xeeeeeeeeeeeeeeeeeeeeeeeeeeeeeeeeeeeeeeee",
                "decimals": 18
            }
        ]
    },
    "address_label": {
        "labels": [
            {
                "address": "0xeeeeeeeeeeeeeeeeeeeeeeeeeeeeeeeeeeeeeeee",
                "label": "Ether"
            },
            {
                "address": "0x69b5fe0bfe66b6b795d8f26c349eb432fe931e3b",
                "label": "EVER"
            },
            {
                "address": "0x0000000000000000000000000000000000000001",
                "label": "Precompiled"
            },
            {
                "address": "0x0000000000000000000000000000000000000002",
                "label": "Precompiled"
            },
            {
                "address": "0x0000000000000000000000000000000000000003",
                "label": "Precompiled"
            },
            {
                "address": "0x0000000000000000000000000000000000000004",
                "label": "Precompiled"
            }
        ]
    },
    "trace": {
        "accountLabels": null,
        "dataMap": {
            "-1": {
                "invocation": {
                    "address": "0x63edee7c44b5e7a5f08fe0c0bd27f7492382bb89",
                    "callData": "",
                    "decodedMethod": null,
                    "errorInfo": "",
                    "fromAddress": "",
                    "gasUsed": 0,
                    "id": -1,
                    "methodDecoded": false,
                    "operation": "",
                    "output": "",
                    "revert": false,
                    "revertMessage": "",
                    "selector": "",
                    "status": false,
                    "value": ""
                },
                "nodeType": 0
            },
            "0": {
                "invocation": {
                    "address": "0x69b5fe0bfe66b6b795d8f26c349eb432fe931e3b",
                    "callData": "0x000000000000000000000000fab09857304344aab64d1794f9995a350068a75000000000000000000000000000000000000000000000014542ba12a337c00000",
                    "decodedMethod": {
                        "callParams": [
                            {
                                "name": "_to",
                                "type": "address",
                                "value": "0xfab09857304344aab64d1794f9995a350068a750"
                            },
                            {
                                "decimalAvailable": true,
                                "name": "_value",
                                "type": "uint256",
                                "value": "6,000,000,000,000,000,000,000"
                            }
                        ],
                        "constructorArguments": "",
                        "name": "transfer",
                        "returnParams": [],
                        "signature": "transfer(address,uint256)"
                    },
                    "errorInfo": "",
                    "fromAddress": "0x63edee7c44b5e7a5f08fe0c0bd27f7492382bb89",
                    "gasUsed": 53399,
                    "id": 0,
                    "methodDecoded": true,
                    "operation": "CALL",
                    "output": "",
                    "revert": false,
                    "revertMessage": "",
                    "selector": "0xa9059cbb",
                    "status": true,
                    "value": "0"
                },
                "nodeType": 0
            },
            "1": {
                "event": {
                    "contract": "0x69b5fe0bfe66b6b795d8f26c349eb432fe931e3b",
                    "decodedLog": {
                        "name": "Transfer",
                        "params": [
                            {
                                "name": "from",
                                "type": "address",
                                "value": "0x63edee7c44b5e7a5f08fe0c0bd27f7492382bb89"
                            },
                            {
                                "name": "to",
                                "type": "address",
                                "value": "0xfab09857304344aab64d1794f9995a350068a750"
                            },
                            {
                                "decimalAvailable": true,
                                "name": "value",
                                "type": "uint256",
                                "value": "6,000,000,000,000,000,000,000"
                            }
                        ],
                        "signature": "Transfer(address,address,uint256)"
                    },
                    "id": 1,
                    "logData": "0x00000000000000000000000000000000000000000000014542ba12a337c00000",
                    "logDecoded": true,
                    "operation": "EVENT",
                    "revert": false,
                    "status": true,
                    "topics": [
                        "0xddf252ad1be2c89b69c2b068fc378daa952ba7f163c4a11628f55a4df523b3ef",
                        "0x00000000000000000000000063edee7c44b5e7a5f08fe0c0bd27f7492382bb89",
                        "0x000000000000000000000000fab09857304344aab64d1794f9995a350068a750"
                    ]
                },
                "nodeType": 1
            }
        },
        "gasFlame": [
            {
                "children": [
                    {
                        "children": [
                            {
                                "children": [],
                                "depth": 0,
                                "name": "Initial Gas",
                                "value": 23256
                            },
                            {
                                "children": [],
                                "depth": 0,
                                "name": "Executed Gas",
                                "value": 30143
                            }
                        ],
                        "depth": -1,
                        "name": "Actual Gas Used",
                        "value": 53399
                    },
                    {
                        "children": [],
                        "depth": -1,
                        "name": "Refunded Gas",
                        "value": 0
                    }
                ],
                "depth": -2,
                "name": "Total Gas",
                "value": 53399
            }
        ],
        "isConfirmed": true,
        "mainTrace": [
            {
                "children": [
                    {
                        "children": [
                            {
                                "children": [],
                                "depth": 1,
                                "id": 1,
                                "order": 1
                            }
                        ],
                        "depth": 0,
                        "id": 0,
                        "order": 0
                    }
                ],
                "depth": -1,
                "id": -1,
                "order": -1
            }
        ],
        "mainTraceNodeCount": 2,
        "parentIdMap": {
            "0": -1,
            "1": 0
        },
        "tidyTrace": [
            {
                "children": [
                    {
                        "children": [
                            {
                                "children": [],
                                "depth": 1,
                                "id": 1,
                                "order": 1
                            }
                        ],
                        "depth": 0,
                        "id": 0,
                        "order": 0
                    }
                ],
                "depth": -1,
                "id": -1,
                "order": -1
            }
        ],
        "tidyTraceNodeCount": 2
    },
    "state_change": {
        "stateChanges": [
            {
                "address": "0x69b5fe0bfe66b6b795d8f26c349eb432fe931e3b",
                "erc": "",
                "slots": [
                    {
                        "current": "0x00000000000000000000000000000000000000000000014542ba12a337c00000",
                        "key": "0x630f25e8681e67785753e9dfde919e45162e2414425dc27e96fe5eaa4d4d2f20",
                        "prev": "0x0000000000000000000000000000000000000000000000000000000000000000"
                    },
                    {
                        "current": "0x0000000000000000000000000000000000000000000116764af79f668fe00000",
                        "key": "0x76de1c07a2c40dd41a7d85a0a0521d217f2f603c0db0a660b7214453c3d2ea10",
                        "prev": "0x0000000000000000000000000000000000000000000117bb8db1b209c7a00000"
                    }
                ],
                "storageVariables": []
            }
        ]
    }
}