{
    "balance_change": {
        "balanceChanges": [
            {
                "account": "0x78e89a294d9359eee188c256096c892267a56de4",
                "assets": [
                    {
                        "address": "0x0b4bdc478791897274652dc15ef5c135cae61e60",
                        "amount": "41",
                        "iconUrl": "https://assets.blocksec.com/icon/601b201ff6ed8e2b096e05330953c84f79745dd9d8350f603d6b50a5c930435b.png",
                        "isERC1155": false,
                        "isERC721": false,
                        "sign": false,
                        "value": ""
                    }
                ]
            },
            {
                "account": "0xa1ac0887aa49af97624041ecffa23473421d3d92",
                "assets": [
                    {
                        "address": "0x0b4bdc478791897274652dc15ef5c135cae61e60",
                        "amount": "41",
                        "iconUrl": "https://assets.blocksec.com/icon/601b201ff6ed8e2b096e05330953c84f79745dd9d8350f603d6b50a5c930435b.png",
                        "isERC1155": false,
                        "isERC721": false,
                        "sign": true,
                        "value": ""
                    }
                ]
            }
        ]
    },
    "profile": {
        "basic_info": {
            "baseFee": "",
            "blockNumber": 6453005,
            "callData": "0xa9059cbb000000000000000000000000a1ac0887aa49af97624041ecffa23473421d3d9200000000000000000000000000000000000000000000000238fd42c5cf040000",
            "debugEnable": true,
            "errorInfo": "",
            "eventCount": 1,
            "feeRecipient": "0x5a0b54d5dc17e0aadc383d2db43b0a0d3e029c4c",
            "formatValue": "0",
            "gasLimit": 36530,
            "gasPrice": "4",
            "gasUsed": 21530,
            "intTxnCount": 0,
            "internalRevert": false,
            "internalRevertMessage": "",
            "isContractCreation": false,
            "isFlashloan": false,
            "maxFee": "",
            "nonce": 1,
            "overwritedBlockNumber": -1,
            "priorityFee": "",
            "receiver": "0x0b4bdc478791897274652dc15ef5c135cae61e60",
            "revertMessage": "",
            "sender": "0x78e89a294d9359eee188c256096c892267a56de4",
            "simulationEnable": true,
            "sourceTxnHash": "0x36a33dbfcc21c7c58830551c50838cbfeeaf6416b5bf6cfdb6c3b5e210cb5854",
            "status": true,
            "timestamp": "2018-10-04T17:15:28Z",
            "transactionFee": "0.00008612",
            "txnHash": "0x36a33dbfcc21c7c58830551c50838cbfeeaf6416b5bf6cfdb6c3b5e210cb5854",
            "txnIndex": 131,
            "type": 0,
            "value": "0"
        },
        "fund_flow": [
            {
                "amount": "41",
                "from": "0x78e89a294d9359eee188c256096c892267a56de4",
                "id": 1,
                "isERC1155": false,
                "isERC721": false,
                "isReverted": false,
                "order": 1,
                "to": "0xa1ac0887aa49af97624041ecffa23473421d3d92",
                "token": "0x0b4bdc478791897274652dc15ef5c135cae61e60"
            }
        ],
        "token_infos": [
            {
                "address": "0x0b4bdc478791897274652dc15ef5c135cae61e60",
                "decimals": 18
            },
            {
                "address": "0xc02aaa39b223fe8d0a0e5c4f27ead9083c756cc2",
                "decimals": 18
            },
            {
                "address": "0xeeeeeeeeeeeeeeeeeeeeeeeeeeeeeeeeeeeeeeee",
                "decimals": 18
            }
        ]
    },
    "address_label": {
        "labels": [
            {
                "address": "0x0000000000000000000000000000000000000002",
                "label": "Precompiled"
            },
            {
                "address": "0x0000000000000000000000000000000000000003",
                "label": "Precompiled"
            },
            {
                "address": "0x0000000000000000000000000000000000000004",
                "label": "Precompiled"
            },
            {
                "address": "0xeeeeeeeeeeeeeeeeeeeeeeeeeeeeeeeeeeeeeeee",
                "label": "Ether"
            },
            {
                "address": "0x0b4bdc478791897274652dc15ef5c135cae61e60",
                "label": "DAEX Token (DAX)"
            },
            {
                "address": "0x0000000000000000000000000000000000000001",
                "label": "Precompiled"
            }
        ]
    },
    "trace": {
        "accountLabels": null,
        "dataMap": {
            "-1": {
                "invocation": {
                    "address": "0x78e89a294d9359eee188c256096c892267a56de4",
                    "callData": "",
                    "decodedMethod": null,
                    "errorInfo": "",
                    "fromAddress": "",
                    "gasUsed": 0,
                    "id": -1,
                    "methodDecoded": false,
                    "operation": "",
                    "output": "",
                    "revert": false,
                    "revertMessage": "",
                    "selector": "",
                    "status": false,
                    "value": ""
                },
                "nodeType": 0
            },
            "0": {
                "invocation": {
                    "address": "0x0b4bdc478791897274652dc15ef5c135cae61e60",
                    "callData": "0x000000000000000000000000a1ac0887aa49af97624041ecffa23473421d3d9200000000000000000000000000000000000000000000000238fd42c5cf040000",
                    "decodedMethod": {
                        "callParams": [
                            {
                                "name": "_to",
                                "type": "address",
                                "value": "0xa1ac0887aa49af97624041ecffa23473421d3d92"
                            },
                            {
                                "decimalAvailable": true,
                                "name": "_value",
                                "type": "uint256",
                                "value": "41,000,000,000,000,000,000"
                            }
                        ],
                        "constructorArguments": "",
                        "name": "transfer",
                        "returnParams": [
                            {
                                "name": "success",
                                "type": "bool",
                                "value": true
                            }
                        ],
                        "signature": "transfer(address,uint256)"
                    },
                    "errorInfo": "",
                    "fromAddress": "0x78e89a294d9359eee188c256096c892267a56de4",
                    "gasUsed": 21530,
                    "id": 0,
                    "methodDecoded": true,
                    "operation": "CALL",
                    "output": "0x0000000000000000000000000000000000000000000000000000000000000001",
                    "revert": false,
                    "revertMessage": "",
                    "selector": "0xa9059cbb",
                    "status": true,
                    "value": "0"
                },
                "nodeType": 0
            },
            "1": {
                "event": {
                    "contract": "0x0b4bdc478791897274652dc15ef5c135cae61e60",
                    "decodedLog": {
                        "name": "Transfer",
                        "params": [
                            {
                                "name": "_from",
                                "type": "address",
                                "value": "0x78e89a294d9359eee188c256096c892267a56de4"
                            },
                            {
                                "name": "_to",
                                "type": "address",
                                "value": "0xa1ac0887aa49af97624041ecffa23473421d3d92"
                            },
                            {
                                "decimalAvailable": true,
                                "name": "_value",
                                "type": "uint256",
                                "value": "41,000,000,000,000,000,000"
                            }
                        ],
                        "signature": "Transfer(address,address,uint256)"
                    },
                    "id": 1,
                    "logData": "0x00000000000000000000000000000000000000000000000238fd42c5cf040000",
                    "logDecoded": true,
                    "operation": "EVENT",
                    "revert": false,
                    "status": true,
                    "topics": [
                        "0xddf252ad1be2c89b69c2b068fc378daa952ba7f163c4a11628f55a4df523b3ef",
                        "0x00000000000000000000000078e89a294d9359eee188c256096c892267a56de4",
                        "0x000000000000000000000000a1ac0887aa49af97624041ecffa23473421d3d92"
                    ]
                },
                "nodeType": 1
            }
        },
        "gasFlame": [
            {
                "children": [
                    {
                        "children": [
                            {
                                "children": [],
                                "depth": 0,
                                "name": "Initial Gas",
                                "value": 23256
                            },
                            {
                                "children": [],
                                "depth": 0,
                                "name": "Executed Gas",
                                "value": 13274
                            }
                        ],
                        "depth": -1,
                        "name": "Actual Gas Used",
                        "value": 21530
                    },
                    {
                        "children": [],
                        "depth": -1,
                        "name": "Refunded Gas",
                        "value": 15000
                    }
                ],
                "depth": -2,
                "name": "Total Gas",
                "value": 36530
            }
        ],
        "isConfirmed": true,
        "mainTrace": [
            {
                "children": [
                    {
                        "children": [
                            {
                                "children": [],
                                "depth": 1,
                                "id": 1,
                                "order": 1
                            }
                        ],
                        "depth": 0,
                        "id": 0,
                        "order": 0
                    }
                ],
                "depth": -1,
                "id": -1,
                "order": -1
            }
        ],
        "mainTraceNodeCount": 2,
        "parentIdMap": {
            "0": -1,
            "1": 0
        },
        "tidyTrace": [
            {
                "children": [
                    {
                        "children": [
                            {
                                "children": [],
                                "depth": 1,
                                "id": 1,
                                "order": 1
                            }
                        ],
                        "depth": 0,
                        "id": 0,
                        "order": 0
                    }
                ],
                "depth": -1,
                "id": -1,
                "order": -1
            }
        ],
        "tidyTraceNodeCount": 2
    },
    "state_change": {
        "stateChanges": [
            {
                "address": "0x0b4bdc478791897274652dc15ef5c135cae61e60",
                "erc": "",
                "slots": [
                    {
                        "current": "0x0000000000000000000000000000000000000000000000000000000000000000",
                        "key": "0xe6bf1fef07d86ff292c847987ff3c5348558f7e0c5ab0b380a25f7433c1cb7cd",
                        "prev": "0x00000000000000000000000000000000000000000000000238fd42c5cf040000"
                    },
                    {
                        "current": "0x00000000000000000000000000000000000000000000001ce4dc640b83340000",
                        "key": "0xda377a015030c16c8cd55295e7c93ae79edfbf3ab78811aea7caf4d1ed60a395",
                        "prev": "0x00000000000000000000000000000000000000000000001aabdf2145b4300000"
                    }
                ],
                "storageVariables": [
                    {
                        "name": "balances",
                        "type": "mapping(address => uint256)",
                        "value": {
                            "pairs": [
                                {
                                    "key": "0x78e89a294d9359eee188c256096c892267a56de4",
                                    "value": {
                                        "current": "0",
                                        "prev": "41000000000000000000",
                                        "typeTag": 1
                                    }
                                },
                                {
                                    "key": "0xa1ac0887aa49af97624041ecffa23473421d3d92",
                                    "value": {
                                        "current": "533000000000000000000",
                                        "prev": "492000000000000000000",
                                        "typeTag": 1
                                    }
                                }
                            ],
                            "typeTag": 4
                        }
                    }
                ]
            }
        ]
    }
}