{
    "balance_change": {
        "balanceChanges": [
            {
                "account": "0x2110619229c7d891b5ec3228bf0418ff5cfd8dd1",
                "assets": [
                    {
                        "address": "0xeeeeeeeeeeeeeeeeeeeeeeeeeeeeeeeeeeeeeeee",
                        "amount": "0.0632",
                        "iconUrl": "https://assets.blocksec.com/image/1663669189317-3.png",
                        "isERC1155": false,
                        "isERC721": false,
                        "sign": true,
                        "value": "117.36682399999999597"
                    }
                ]
            },
            {
                "account": "0xcda72070e455bb31c7690a170224ce43623d0b6f",
                "assets": [
                    {
                        "address": "0xe9c1a3614fc3baaafdfeefd7a901f8cadff91a7c",
                        "amount": "1",
                        "iconUrl": "",
                        "isERC1155": false,
                        "isERC721": true,
                        "sign": false,
                        "tokenID": "3",
                        "value": ""
                    },
                    {
                        "address": "0xeeeeeeeeeeeeeeeeeeeeeeeeeeeeeeeeeeeeeeee",
                        "amount": "0.079",
                        "iconUrl": "https://assets.blocksec.com/image/1663669189317-3.png",
                        "isERC1155": false,
                        "isERC721": false,
                        "sign": false,
                        "value": "146.70852999999999497"
                    }
                ]
            },
            {
                "account": "0x67df244584b67e8c51b10ad610aaffa9a402fdb6",
                "assets": [
                    {
                        "address": "0xeeeeeeeeeeeeeeeeeeeeeeeeeeeeeeeeeeeeeeee",
                        "amount": "0.00395",
                        "iconUrl": "https://assets.blocksec.com/image/1663669189317-3.png",
                        "isERC1155": false,
                        "isERC721": false,
                        "sign": true,
                        "value": "7.3354264999999997483"
                    }
                ]
            },
            {
                "account": "0xb24ce9443d701c811256f14aa50dc76aebe7f0d5",
                "assets": [
                    {
                        "address": "0xeeeeeeeeeeeeeeeeeeeeeeeeeeeeeeeeeeeeeeee",
                        "amount": "0.01185",
                        "iconUrl": "https://assets.blocksec.com/image/1663669189317-3.png",
                        "isERC1155": false,
                        "isERC721": false,
                        "sign": true,
                        "value": "22.006279499999999246"
                    }
                ]
            },
            {
                "account": "0xc8f2f8978798d4e8a8f89df6e68866cbf454d926",
                "assets": [
                    {
                        "address": "0xe9c1a3614fc3baaafdfeefd7a901f8cadff91a7c",
                        "amount": "1",
                        "iconUrl": "",
                        "isERC1155": false,
                        "isERC721": true,
                        "sign": true,
                        "tokenID": "3",
                        "value": ""
                    }
                ]
            }
        ]
    },
    "profile": {
        "basic_info": {
            "baseFee": "22.63172784",
            "blockNumber": 17637586,
            "callData": "0x7430e0c60000000000000000000000000000000000000000000000000000000000053c3f",
            "debugEnable": true,
            "errorInfo": "",
            "eventCount": 4,
            "feeRecipient": "0xdafea492d9c6733ae3d56b7ed1adb60692c98bc5",
            "formatValue": "0",
            "gasLimit": 224422,
            "gasPrice": "22.73172784",
            "gasUsed": 178021,
            "intTxnCount": 28,
            "internalRevert": true,
            "internalRevertMessage": "",
            "isContractCreation": false,
            "isFlashloan": false,
            "maxFee": "31.980779173",
            "nonce": 35,
            "overwritedBlockNumber": -1,
            "priorityFee": "0.1",
            "receiver": "0xcda72070e455bb31c7690a170224ce43623d0b6f",
            "revertMessage": "",
            "sender": "0x2110619229c7d891b5ec3228bf0418ff5cfd8dd1",
            "simulationEnable": true,
            "sourceTxnHash": "0x361b9c828398da53279794fc6008ce86fe39a13ca2943f98cfe09068dde276d7",
            "status": true,
            "timestamp": "2023-07-06T21:50:35Z",
            "transactionFee": "0.00404672492180464",
            "txnHash": "0x361b9c828398da53279794fc6008ce86fe39a13ca2943f98cfe09068dde276d7",
            "txnIndex": 135,
            "type": 2,
            "value": "0"
        },
        "fund_flow": [
            {
                "amount": "1",
                "from": "0xcda72070e455bb31c7690a170224ce43623d0b6f",
                "id": 1,
                "isERC1155": false,
                "isERC721": true,
                "isReverted": false,
                "order": 1,
                "to": "0xc8f2f8978798d4e8a8f89df6e68866cbf454d926",
                "token": "0xe9c1a3614fc3baaafdfeefd7a901f8cadff91a7c",
                "tokenID": "3"
            },
            {
                "amount": "0.0632",
                "from": "0xcda72070e455bb31c7690a170224ce43623d0b6f",
                "id": 2,
                "isERC1155": false,
                "isERC721": false,
                "isReverted": false,
                "order": 2,
                "to": "0x2110619229c7d891b5ec3228bf0418ff5cfd8dd1",
                "token": "0xeeeeeeeeeeeeeeeeeeeeeeeeeeeeeeeeeeeeeeee"
            },
            {
                "amount": "0.00395",
                "from": "0xcda72070e455bb31c7690a170224ce43623d0b6f",
                "id": 3,
                "isERC1155": false,
                "isERC721": false,
                "isReverted": false,
                "order": 3,
                "to": "0x67df244584b67e8c51b10ad610aaffa9a402fdb6",
                "token": "0xeeeeeeeeeeeeeeeeeeeeeeeeeeeeeeeeeeeeeeee"
            },
            {
                "amount": "0.01185",
                "from": "0xcda72070e455bb31c7690a170224ce43623d0b6f",
                "id": 4,
                "isERC1155": false,
                "isERC721": false,
                "isReverted": false,
                "order": 4,
                "to": "0xb24ce9443d701c811256f14aa50dc76aebe7f0d5",
                "token": "0xeeeeeeeeeeeeeeeeeeeeeeeeeeeeeeeeeeeeeeee"
            }
        ],
        "token_infos": [
            {
                "address": "0xeeeeeeeeeeeeeeeeeeeeeeeeeeeeeeeeeeeeeeee",
                "decimals": 18
            },
            {
                "address": "0xc02aaa39b223fe8d0a0e5c4f27ead9083c756cc2",
                "decimals": 18
            }
        ]
    },
    "address_label": {
        "labels": [
            {
                "address": "0xe9c1a3614fc3baaafdfeefd7a901f8cadff91a7c",
                "label": "RTR"
            },
            {
                "address": "0x2d3fc875de7fe7da43ad0afa0e7023c9b91d06b1",
                "label": "Manifold ERC721 Creator (M721)"
            },
            {
                "address": "0x67df244584b67e8c51b10ad610aaffa9a402fdb6",
                "label": "Foundation: Treasury"
            },
            {
                "address": "0xcda72070e455bb31c7690a170224ce43623d0b6f",
                "label": "Foundation: Market"
            },
            {
                "address": "0x0000000000000000000000000000000000000001",
                "label": "Precompiled"
            },
            {
                "address": "0x0000000000000000000000000000000000000000",
                "label": "Null Address"
            },
            {
                "address": "0x0000000000000000000000000000000000000002",
                "label": "Precompiled"
            },
            {
                "address": "0xad2184fb5dbcfc05d8f056542fb25b04fa32a95d",
                "label": "Manifold: Royalty Registry"
            },
            {
                "address": "0xb0a1cd3b31a8e3bbbaba15feddb88abd932a677d",
                "label": "NFTMarket"
            },
            {
                "address": "0xd389340d95c851655dd99c5781be1c5e39d30b31",
                "label": "RoyaltyRegistry"
            },
            {
                "address": "0x0000000000000000000000000000000000000003",
                "label": "Precompiled"
            },
            {
                "address": "0x0000000000000000000000000000000000000004",
                "label": "Precompiled"
            },
            {
                "address": "0xeeeeeeeeeeeeeeeeeeeeeeeeeeeeeeeeeeeeeeee",
                "label": "Ether"
            },
            {
                "address": "0x1c0df262a40f99d7d6145faba04db75d1126f93d",
                "label": "FoundationTreasury"
            }
        ]
    },
    "trace": {
        "accountLabels": null,
        "dataMap": {
            "-1": {
                "invocation": {
                    "address": "0x2110619229c7d891b5ec3228bf0418ff5cfd8dd1",
                    "callData": "",
                    "decodedMethod": null,
                    "errorInfo": "",
                    "fromAddress": "",
                    "gasUsed": 0,
                    "id": -1,
                    "methodDecoded": false,
                    "operation": "",
                    "output": "",
                    "revert": false,
                    "revertMessage": "",
                    "selector": "",
                    "status": false,
                    "value": ""
                },
                "nodeType": 0
            },
            "0": {
                "invocation": {
                    "address": "0xcda72070e455bb31c7690a170224ce43623d0b6f",
                    "callData": "0x0000000000000000000000000000000000000000000000000000000000053c3f",
                    "decodedMethod": {
                        "callParams": [
                            {
                                "name": "auctionId",
                                "type": "uint256",
                                "value": "343,103"
                            }
                        ],
                        "constructorArguments": "",
                        "name": "finalizeReserveAuction",
                        "returnParams": [],
                        "signature": "finalizeReserveAuction(uint256)"
                    },
                    "errorInfo": "",
                    "fromAddress": "0x2110619229c7d891b5ec3228bf0418ff5cfd8dd1",
                    "gasUsed": 178021,
                    "id": 0,
                    "methodDecoded": true,
                    "operation": "CALL",
                    "output": "",
                    "revert": false,
                    "revertMessage": "",
                    "selector": "0x7430e0c6",
                    "status": true,
                    "value": "0"
                },
                "nodeType": 0
            },
            "1": {
                "invocation": {
                    "address": "0xb0a1cd3b31a8e3bbbaba15feddb88abd932a677d",
                    "callData": "0x0000000000000000000000000000000000000000000000000000000000053c3f",
                    "decodedMethod": {
                        "callParams": [
                            {
                                "name": "auctionId",
                                "type": "uint256",
                                "value": "343,103"
                            }
                        ],
                        "constructorArguments": "",
                        "name": "finalizeReserveAuction",
                        "returnParams": [],
                        "signature": "finalizeReserveAuction(uint256)"
                    },
                    "errorInfo": "",
                    "fromAddress": "0xcda72070e455bb31c7690a170224ce43623d0b6f",
                    "gasUsed": 190720,
                    "id": 1,
                    "methodDecoded": true,
                    "operation": "DELEGATECALL",
                    "output": "",
                    "revert": false,
                    "revertMessage": "",
                    "selector": "0x7430e0c6",
                    "status": true,
                    "value": "0"
                },
                "nodeType": 0
            },
            "10": {
                "invocation": {
                    "address": "0xe9c1a3614fc3baaafdfeefd7a901f8cadff91a7c",
                    "callData": "0x2a55205a00000000000000000000000000000000000000000000000000000000",
                    "decodedMethod": {
                        "callParams": [
                            {
                                "name": "interfaceId",
                                "type": "bytes4",
                                "value": "0x2a55205a"
                            }
                        ],
                        "constructorArguments": "",
                        "name": "supportsInterface",
                        "returnParams": [
                            {
                                "name": "",
                                "type": "bool",
                                "value": true
                            }
                        ],
                        "signature": "supportsInterface(bytes4)"
                    },
                    "errorInfo": "",
                    "fromAddress": "0xb0a1cd3b31a8e3bbbaba15feddb88abd932a677d",
                    "gasUsed": 1498,
                    "id": 10,
                    "methodDecoded": true,
                    "operation": "STATICCALL",
                    "output": "0x0000000000000000000000000000000000000000000000000000000000000001",
                    "revert": false,
                    "revertMessage": "",
                    "selector": "0x01ffc9a7",
                    "status": true,
                    "value": "0"
                },
                "nodeType": 0
            },
            "11": {
                "invocation": {
                    "address": "0x2d3fc875de7fe7da43ad0afa0e7023c9b91d06b1",
                    "callData": "0x2a55205a00000000000000000000000000000000000000000000000000000000",
                    "decodedMethod": {
                        "callParams": [
                            {
                                "name": "interfaceId",
                                "type": "bytes4",
                                "value": "0x2a55205a"
                            }
                        ],
                        "constructorArguments": "",
                        "name": "supportsInterface",
                        "returnParams": [
                            {
                                "name": "",
                                "type": "bool",
                                "value": true
                            }
                        ],
                        "signature": "supportsInterface(bytes4)"
                    },
                    "errorInfo": "",
                    "fromAddress": "0xe9c1a3614fc3baaafdfeefd7a901f8cadff91a7c",
                    "gasUsed": 1073,
                    "id": 11,
                    "methodDecoded": true,
                    "operation": "DELEGATECALL",
                    "output": "0x0000000000000000000000000000000000000000000000000000000000000001",
                    "revert": false,
                    "revertMessage": "",
                    "selector": "0x01ffc9a7",
                    "status": true,
                    "value": "0"
                },
                "nodeType": 0
            },
            "12": {
                "invocation": {
                    "address": "0xe9c1a3614fc3baaafdfeefd7a901f8cadff91a7c",
                    "callData": "0x00000000000000000000000000000000000000000000000000000000000000030000000000000000000000000000000000000000000000000000000000002710",
                    "decodedMethod": {
                        "callParams": [
                            {
                                "name": "tokenId",
                                "type": "uint256",
                                "value": "3"
                            },
                            {
                                "name": "value",
                                "type": "uint256",
                                "value": "10,000"
                            }
                        ],
                        "constructorArguments": "",
                        "name": "royaltyInfo",
                        "returnParams": [
                            {
                                "name": "",
                                "type": "address",
                                "value": "0xe9c1a3614fc3baaafdfeefd7a901f8cadff91a7c"
                            },
                            {
                                "name": "",
                                "type": "uint256",
                                "value": "0"
                            }
                        ],
                        "signature": "royaltyInfo(uint256,uint256)"
                    },
                    "errorInfo": "",
                    "fromAddress": "0xb0a1cd3b31a8e3bbbaba15feddb88abd932a677d",
                    "gasUsed": 6170,
                    "id": 12,
                    "methodDecoded": true,
                    "operation": "STATICCALL",
                    "output": "0x000000000000000000000000e9c1a3614fc3baaafdfeefd7a901f8cadff91a7c0000000000000000000000000000000000000000000000000000000000000000",
                    "revert": false,
                    "revertMessage": "",
                    "selector": "0x2a55205a",
                    "status": true,
                    "value": "0"
                },
                "nodeType": 0
            },
            "13": {
                "invocation": {
                    "address": "0x2d3fc875de7fe7da43ad0afa0e7023c9b91d06b1",
                    "callData": "0x00000000000000000000000000000000000000000000000000000000000000030000000000000000000000000000000000000000000000000000000000002710",
                    "decodedMethod": {
                        "callParams": [
                            {
                                "name": "tokenId",
                                "type": "uint256",
                                "value": "3"
                            },
                            {
                                "name": "value",
                                "type": "uint256",
                                "value": "10,000"
                            }
                        ],
                        "constructorArguments": "",
                        "name": "royaltyInfo",
                        "returnParams": [
                            {
                                "name": "",
                                "type": "address",
                                "value": "0xe9c1a3614fc3baaafdfeefd7a901f8cadff91a7c"
                            },
                            {
                                "name": "",
                                "type": "uint256",
                                "value": "0"
                            }
                        ],
                        "signature": "royaltyInfo(uint256,uint256)"
                    },
                    "errorInfo": "",
                    "fromAddress": "0xe9c1a3614fc3baaafdfeefd7a901f8cadff91a7c",
                    "gasUsed": 5739,
                    "id": 13,
                    "methodDecoded": true,
                    "operation": "DELEGATECALL",
                    "output": "0x000000000000000000000000e9c1a3614fc3baaafdfeefd7a901f8cadff91a7c0000000000000000000000000000000000000000000000000000000000000000",
                    "revert": false,
                    "revertMessage": "",
                    "selector": "0x2a55205a",
                    "status": true,
                    "value": "0"
                },
                "nodeType": 0
            },
            "14": {
                "invocation": {
                    "address": "0xe9c1a3614fc3baaafdfeefd7a901f8cadff91a7c",
                    "callData": "0xbb3bafd600000000000000000000000000000000000000000000000000000000",
                    "decodedMethod": {
                        "callParams": [
                            {
                                "name": "interfaceId",
                                "type": "bytes4",
                                "value": "0xbb3bafd6"
                            }
                        ],
                        "constructorArguments": "",
                        "name": "supportsInterface",
                        "returnParams": [
                            {
                                "name": "",
                                "type": "bool",
                                "value": true
                            }
                        ],
                        "signature": "supportsInterface(bytes4)"
                    },
                    "errorInfo": "",
                    "fromAddress": "0xb0a1cd3b31a8e3bbbaba15feddb88abd932a677d",
                    "gasUsed": 1403,
                    "id": 14,
                    "methodDecoded": true,
                    "operation": "STATICCALL",
                    "output": "0x0000000000000000000000000000000000000000000000000000000000000001",
                    "revert": false,
                    "revertMessage": "",
                    "selector": "0x01ffc9a7",
                    "status": true,
                    "value": "0"
                },
                "nodeType": 0
            },
            "15": {
                "invocation": {
                    "address": "0x2d3fc875de7fe7da43ad0afa0e7023c9b91d06b1",
                    "callData": "0xbb3bafd600000000000000000000000000000000000000000000000000000000",
                    "decodedMethod": {
                        "callParams": [
                            {
                                "name": "interfaceId",
                                "type": "bytes4",
                                "value": "0xbb3bafd6"
                            }
                        ],
                        "constructorArguments": "",
                        "name": "supportsInterface",
                        "returnParams": [
                            {
                                "name": "",
                                "type": "bool",
                                "value": true
                            }
                        ],
                        "signature": "supportsInterface(bytes4)"
                    },
                    "errorInfo": "",
                    "fromAddress": "0xe9c1a3614fc3baaafdfeefd7a901f8cadff91a7c",
                    "gasUsed": 978,
                    "id": 15,
                    "methodDecoded": true,
                    "operation": "DELEGATECALL",
                    "output": "0x0000000000000000000000000000000000000000000000000000000000000001",
                    "revert": false,
                    "revertMessage": "",
                    "selector": "0x01ffc9a7",
                    "status": true,
                    "value": "0"
                },
                "nodeType": 0
            },
            "16": {
                "invocation": {
                    "address": "0xe9c1a3614fc3baaafdfeefd7a901f8cadff91a7c",
                    "callData": "0x0000000000000000000000000000000000000000000000000000000000000003",
                    "decodedMethod": {
                        "callParams": [
                            {
                                "name": "tokenId",
                                "type": "uint256",
                                "value": "3"
                            }
                        ],
                        "constructorArguments": "",
                        "name": "getRoyalties",
                        "returnParams": [
                            {
                                "name": "",
                                "type": "address[]",
                                "value": []
                            },
                            {
                                "name": "",
                                "type": "uint256[]",
                                "value": []
                            }
                        ],
                        "signature": "getRoyalties(uint256)"
                    },
                    "errorInfo": "",
                    "fromAddress": "0xb0a1cd3b31a8e3bbbaba15feddb88abd932a677d",
                    "gasUsed": 2251,
                    "id": 16,
                    "methodDecoded": true,
                    "operation": "STATICCALL",
                    "output": "0x0000000000000000000000000000000000000000000000000000000000000040000000000000000000000000000000000000000000000000000000000000006000000000000000000000000000000000000000000000000000000000000000000000000000000000000000000000000000000000000000000000000000000000",
                    "revert": false,
                    "revertMessage": "",
                    "selector": "0xbb3bafd6",
                    "status": true,
                    "value": "0"
                },
                "nodeType": 0
            },
            "17": {
                "invocation": {
                    "address": "0x2d3fc875de7fe7da43ad0afa0e7023c9b91d06b1",
                    "callData": "0x0000000000000000000000000000000000000000000000000000000000000003",
                    "decodedMethod": {
                        "callParams": [
                            {
                                "name": "tokenId",
                                "type": "uint256",
                                "value": "3"
                            }
                        ],
                        "constructorArguments": "",
                        "name": "getRoyalties",
                        "returnParams": [
                            {
                                "name": "",
                                "type": "address[]",
                                "value": []
                            },
                            {
                                "name": "",
                                "type": "uint256[]",
                                "value": []
                            }
                        ],
                        "signature": "getRoyalties(uint256)"
                    },
                    "errorInfo": "",
                    "fromAddress": "0xe9c1a3614fc3baaafdfeefd7a901f8cadff91a7c",
                    "gasUsed": 1814,
                    "id": 17,
                    "methodDecoded": true,
                    "operation": "DELEGATECALL",
                    "output": "0x0000000000000000000000000000000000000000000000000000000000000040000000000000000000000000000000000000000000000000000000000000006000000000000000000000000000000000000000000000000000000000000000000000000000000000000000000000000000000000000000000000000000000000",
                    "revert": false,
                    "revertMessage": "",
                    "selector": "0xbb3bafd6",
                    "status": true,
                    "value": "0"
                },
                "nodeType": 0
            },
            "18": {
                "invocation": {
                    "address": "0xb0a1cd3b31a8e3bbbaba15feddb88abd932a677d",
                    "callData": "0x000000000000000000000000e9c1a3614fc3baaafdfeefd7a901f8cadff91a7c00000000000000000000000000000000000000000000000000000000000000030000000000000000000000000000000000000000000000000000000000000000",
                    "decodedMethod": {
                        "callParams": [
                            {
                                "name": "nftContract",
                                "type": "address",
                                "value": "0xe9c1a3614fc3baaafdfeefd7a901f8cadff91a7c"
                            },
                            {
                                "name": "tokenId",
                                "type": "uint256",
                                "value": "3"
                            },
                            {
                                "name": "creator",
                                "type": "address",
                                "value": "0x0000000000000000000000000000000000000000"
                            }
                        ],
                        "constructorArguments": "",
                        "name": "internalGetMutableRoyalties",
                        "returnParams": [
                            {
                                "name": "recipients",
                                "type": "address[]",
                                "value": [
                                    "0x2110619229c7d891b5ec3228bf0418ff5cfd8dd1"
                                ]
                            },
                            {
                                "name": "splitPerRecipientInBasisPoints",
                                "type": "uint256[]",
                                "value": [
                                    "0"
                                ]
                            }
                        ],
                        "signature": "internalGetMutableRoyalties(address,uint256,address)"
                    },
                    "errorInfo": "",
                    "fromAddress": "0xcda72070e455bb31c7690a170224ce43623d0b6f",
                    "gasUsed": 22536,
                    "id": 18,
                    "methodDecoded": true,
                    "operation": "STATICCALL",
                    "output": "0x0000000000000000000000000000000000000000000000000000000000000040000000000000000000000000000000000000000000000000000000000000008000000000000000000000000000000000000000000000000000000000000000010000000000000000000000002110619229c7d891b5ec3228bf0418ff5cfd8dd100000000000000000000000000000000000000000000000000000000000000010000000000000000000000000000000000000000000000000000000000000000",
                    "revert": false,
                    "revertMessage": "",
                    "selector": "0xefef76f8",
                    "status": true,
                    "value": "0"
                },
                "nodeType": 0
            },
            "19": {
                "invocation": {
                    "address": "0xad2184fb5dbcfc05d8f056542fb25b04fa32a95d",
                    "callData": "0x000000000000000000000000e9c1a3614fc3baaafdfeefd7a901f8cadff91a7c",
                    "decodedMethod": {
                        "callParams": [
                            {
                                "name": "tokenAddress",
                                "type": "address",
                                "value": "0xe9c1a3614fc3baaafdfeefd7a901f8cadff91a7c"
                            }
                        ],
                        "constructorArguments": "",
                        "name": "getRoyaltyLookupAddress",
                        "returnParams": [
                            {
                                "name": "",
                                "type": "address",
                                "value": "0xe9c1a3614fc3baaafdfeefd7a901f8cadff91a7c"
                            }
                        ],
                        "signature": "getRoyaltyLookupAddress(address)"
                    },
                    "errorInfo": "",
                    "fromAddress": "0xb0a1cd3b31a8e3bbbaba15feddb88abd932a677d",
                    "gasUsed": 9948,
                    "id": 19,
                    "methodDecoded": true,
                    "operation": "STATICCALL",
                    "output": "0x000000000000000000000000e9c1a3614fc3baaafdfeefd7a901f8cadff91a7c",
                    "revert": false,
                    "revertMessage": "",
                    "selector": "0xde5488af",
                    "status": true,
                    "value": "0"
                },
                "nodeType": 0
            },
            "2": {
                "invocation": {
                    "address": "0xe9c1a3614fc3baaafdfeefd7a901f8cadff91a7c",
                    "callData": "0x000000000000000000000000cda72070e455bb31c7690a170224ce43623d0b6f000000000000000000000000c8f2f8978798d4e8a8f89df6e68866cbf454d9260000000000000000000000000000000000000000000000000000000000000003",
                    "decodedMethod": {
                        "callParams": [
                            {
                                "name": "from",
                                "type": "address",
                                "value": "0xcda72070e455bb31c7690a170224ce43623d0b6f"
                            },
                            {
                                "name": "to",
                                "type": "address",
                                "value": "0xc8f2f8978798d4e8a8f89df6e68866cbf454d926"
                            },
                            {
                                "decimalAvailable": true,
                                "name": "tokenId",
                                "type": "uint256",
                                "value": "3"
                            }
                        ],
                        "constructorArguments": "",
                        "name": "transferFrom",
                        "returnParams": [],
                        "signature": "transferFrom(address,address,uint256)"
                    },
                    "errorInfo": "",
                    "fromAddress": "0xcda72070e455bb31c7690a170224ce43623d0b6f",
                    "gasUsed": 51828,
                    "id": 2,
                    "methodDecoded": true,
                    "operation": "CALL",
                    "output": "",
                    "revert": false,
                    "revertMessage": "",
                    "selector": "0x23b872dd",
                    "status": true,
                    "value": "0"
                },
                "nodeType": 0
            },
            "20": {
                "invocation": {
                    "address": "0xd389340d95c851655dd99c5781be1c5e39d30b31",
                    "callData": "0x000000000000000000000000e9c1a3614fc3baaafdfeefd7a901f8cadff91a7c",
                    "decodedMethod": {
                        "callParams": [
                            {
                                "name": "tokenAddress",
                                "type": "address",
                                "value": "0xe9c1a3614fc3baaafdfeefd7a901f8cadff91a7c"
                            }
                        ],
                        "constructorArguments": "",
                        "name": "getRoyaltyLookupAddress",
                        "returnParams": [
                            {
                                "name": "",
                                "type": "address",
                                "value": "0xe9c1a3614fc3baaafdfeefd7a901f8cadff91a7c"
                            }
                        ],
                        "signature": "getRoyaltyLookupAddress(address)"
                    },
                    "errorInfo": "",
                    "fromAddress": "0xad2184fb5dbcfc05d8f056542fb25b04fa32a95d",
                    "gasUsed": 2617,
                    "id": 20,
                    "methodDecoded": true,
                    "operation": "DELEGATECALL",
                    "output": "0x000000000000000000000000e9c1a3614fc3baaafdfeefd7a901f8cadff91a7c",
                    "revert": false,
                    "revertMessage": "",
                    "selector": "0xde5488af",
                    "status": true,
                    "value": "0"
                },
                "nodeType": 0
            },
            "21": {
                "invocation": {
                    "address": "0xe9c1a3614fc3baaafdfeefd7a901f8cadff91a7c",
                    "callData": "0xb779958400000000000000000000000000000000000000000000000000000000",
                    "decodedMethod": {
                        "callParams": [
                            {
                                "name": "interfaceId",
                                "type": "bytes4",
                                "value": "0xb7799584"
                            }
                        ],
                        "constructorArguments": "",
                        "name": "supportsInterface",
                        "returnParams": [
                            {
                                "name": "",
                                "type": "bool",
                                "value": true
                            }
                        ],
                        "signature": "supportsInterface(bytes4)"
                    },
                    "errorInfo": "",
                    "fromAddress": "0xb0a1cd3b31a8e3bbbaba15feddb88abd932a677d",
                    "gasUsed": 1435,
                    "id": 21,
                    "methodDecoded": true,
                    "operation": "STATICCALL",
                    "output": "0x0000000000000000000000000000000000000000000000000000000000000001",
                    "revert": false,
                    "revertMessage": "",
                    "selector": "0x01ffc9a7",
                    "status": true,
                    "value": "0"
                },
                "nodeType": 0
            },
            "22": {
                "invocation": {
                    "address": "0x2d3fc875de7fe7da43ad0afa0e7023c9b91d06b1",
                    "callData": "0xb779958400000000000000000000000000000000000000000000000000000000",
                    "decodedMethod": {
                        "callParams": [
                            {
                                "name": "interfaceId",
                                "type": "bytes4",
                                "value": "0xb7799584"
                            }
                        ],
                        "constructorArguments": "",
                        "name": "supportsInterface",
                        "returnParams": [
                            {
                                "name": "",
                                "type": "bool",
                                "value": true
                            }
                        ],
                        "signature": "supportsInterface(bytes4)"
                    },
                    "errorInfo": "",
                    "fromAddress": "0xe9c1a3614fc3baaafdfeefd7a901f8cadff91a7c",
                    "gasUsed": 1010,
                    "id": 22,
                    "methodDecoded": true,
                    "operation": "DELEGATECALL",
                    "output": "0x0000000000000000000000000000000000000000000000000000000000000001",
                    "revert": false,
                    "revertMessage": "",
                    "selector": "0x01ffc9a7",
                    "status": true,
                    "value": "0"
                },
                "nodeType": 0
            },
            "23": {
                "invocation": {
                    "address": "0xe9c1a3614fc3baaafdfeefd7a901f8cadff91a7c",
                    "callData": "0x0000000000000000000000000000000000000000000000000000000000000003",
                    "decodedMethod": {
                        "callParams": [
                            {
                                "name": "tokenId",
                                "type": "uint256",
                                "value": "3"
                            }
                        ],
                        "constructorArguments": "",
                        "name": "getFeeRecipients",
                        "returnParams": [
                            {
                                "name": "",
                                "type": "address[]",
                                "value": []
                            }
                        ],
                        "signature": "getFeeRecipients(uint256)"
                    },
                    "errorInfo": "",
                    "fromAddress": "0xb0a1cd3b31a8e3bbbaba15feddb88abd932a677d",
                    "gasUsed": 2071,
                    "id": 23,
                    "methodDecoded": true,
                    "operation": "STATICCALL",
                    "output": "0x00000000000000000000000000000000000000000000000000000000000000200000000000000000000000000000000000000000000000000000000000000000",
                    "revert": false,
                    "revertMessage": "",
                    "selector": "0xb9c4d9fb",
                    "status": true,
                    "value": "0"
                },
                "nodeType": 0
            },
            "24": {
                "invocation": {
                    "address": "0x2d3fc875de7fe7da43ad0afa0e7023c9b91d06b1",
                    "callData": "0x0000000000000000000000000000000000000000000000000000000000000003",
                    "decodedMethod": {
                        "callParams": [
                            {
                                "name": "tokenId",
                                "type": "uint256",
                                "value": "3"
                            }
                        ],
                        "constructorArguments": "",
                        "name": "getFeeRecipients",
                        "returnParams": [
                            {
                                "name": "",
                                "type": "address[]",
                                "value": []
                            }
                        ],
                        "signature": "getFeeRecipients(uint256)"
                    },
                    "errorInfo": "",
                    "fromAddress": "0xe9c1a3614fc3baaafdfeefd7a901f8cadff91a7c",
                    "gasUsed": 1643,
                    "id": 24,
                    "methodDecoded": true,
                    "operation": "DELEGATECALL",
                    "output": "0x00000000000000000000000000000000000000000000000000000000000000200000000000000000000000000000000000000000000000000000000000000000",
                    "revert": false,
                    "revertMessage": "",
                    "selector": "0xb9c4d9fb",
                    "status": true,
                    "value": "0"
                },
                "nodeType": 0
            },
            "25": {
                "invocation": {
                    "address": "0xe9c1a3614fc3baaafdfeefd7a901f8cadff91a7c",
                    "callData": "0x",
                    "decodedMethod": {
                        "callParams": [],
                        "constructorArguments": "",
                        "name": "owner",
                        "returnParams": [
                            {
                                "name": "",
                                "type": "address",
                                "value": "0x2110619229c7d891b5ec3228bf0418ff5cfd8dd1"
                            }
                        ],
                        "signature": "owner()"
                    },
                    "errorInfo": "",
                    "fromAddress": "0xb0a1cd3b31a8e3bbbaba15feddb88abd932a677d",
                    "gasUsed": 2843,
                    "id": 25,
                    "methodDecoded": true,
                    "operation": "STATICCALL",
                    "output": "0x0000000000000000000000002110619229c7d891b5ec3228bf0418ff5cfd8dd1",
                    "revert": false,
                    "revertMessage": "",
                    "selector": "0x8da5cb5b",
                    "status": true,
                    "value": "0"
                },
                "nodeType": 0
            },
            "26": {
                "invocation": {
                    "address": "0x2d3fc875de7fe7da43ad0afa0e7023c9b91d06b1",
                    "callData": "0x",
                    "decodedMethod": {
                        "callParams": [],
                        "constructorArguments": "",
                        "name": "owner",
                        "returnParams": [
                            {
                                "name": "",
                                "type": "address",
                                "value": "0x2110619229c7d891b5ec3228bf0418ff5cfd8dd1"
                            }
                        ],
                        "signature": "owner()"
                    },
                    "errorInfo": "",
                    "fromAddress": "0xe9c1a3614fc3baaafdfeefd7a901f8cadff91a7c",
                    "gasUsed": 2421,
                    "id": 26,
                    "methodDecoded": true,
                    "operation": "DELEGATECALL",
                    "output": "0x0000000000000000000000002110619229c7d891b5ec3228bf0418ff5cfd8dd1",
                    "revert": false,
                    "revertMessage": "",
                    "selector": "0x8da5cb5b",
                    "status": true,
                    "value": "0"
                },
                "nodeType": 0
            },
            "27": {
                "invocation": {
                    "address": "0x2110619229c7d891b5ec3228bf0418ff5cfd8dd1",
                    "callData": "0x",
                    "decodedMethod": null,
                    "errorInfo": "",
                    "fromAddress": "0xcda72070e455bb31c7690a170224ce43623d0b6f",
                    "gasUsed": 0,
                    "id": 27,
                    "methodDecoded": false,
                    "operation": "CALL",
                    "output": "",
                    "revert": false,
                    "revertMessage": "",
                    "selector": "fallback",
                    "status": true,
                    "value": "0.0632"
                },
                "nodeType": 0
            },
            "28": {
                "invocation": {
                    "address": "0x67df244584b67e8c51b10ad610aaffa9a402fdb6",
                    "callData": "0x",
                    "decodedMethod": null,
                    "errorInfo": "",
                    "fromAddress": "0xcda72070e455bb31c7690a170224ce43623d0b6f",
                    "gasUsed": 7204,
                    "id": 28,
                    "methodDecoded": false,
                    "operation": "CALL",
                    "output": "",
                    "revert": false,
                    "revertMessage": "",
                    "selector": "fallback",
                    "status": true,
                    "value": "0.00395"
                },
                "nodeType": 0
            },
            "29": {
                "invocation": {
                    "address": "0x1c0df262a40f99d7d6145faba04db75d1126f93d",
                    "callData": "0x",
                    "decodedMethod": null,
                    "errorInfo": "",
                    "fromAddress": "0x67df244584b67e8c51b10ad610aaffa9a402fdb6",
                    "gasUsed": 55,
                    "id": 29,
                    "methodDecoded": false,
                    "operation": "DELEGATECALL",
                    "output": "",
                    "revert": false,
                    "revertMessage": "",
                    "selector": "fallback",
                    "status": true,
                    "value": "0.00395"
                },
                "nodeType": 0
            },
            "3": {
                "invocation": {
                    "address": "0x2d3fc875de7fe7da43ad0afa0e7023c9b91d06b1",
                    "callData": "0x000000000000000000000000cda72070e455bb31c7690a170224ce43623d0b6f000000000000000000000000c8f2f8978798d4e8a8f89df6e68866cbf454d9260000000000000000000000000000000000000000000000000000000000000003",
                    "decodedMethod": {
                        "callParams": [
                            {
                                "name": "from",
                                "type": "address",
                                "value": "0xcda72070e455bb31c7690a170224ce43623d0b6f"
                            },
                            {
                                "name": "to",
                                "type": "address",
                                "value": "0xc8f2f8978798d4e8a8f89df6e68866cbf454d926"
                            },
                            {
                                "decimalAvailable": true,
                                "name": "tokenId",
                                "type": "uint256",
                                "value": "3"
                            }
                        ],
                        "constructorArguments": "",
                        "name": "transferFrom",
                        "returnParams": [],
                        "signature": "transferFrom(address,address,uint256)"
                    },
                    "errorInfo": "",
                    "fromAddress": "0xe9c1a3614fc3baaafdfeefd7a901f8cadff91a7c",
                    "gasUsed": 46897,
                    "id": 3,
                    "methodDecoded": true,
                    "operation": "DELEGATECALL",
                    "output": "",
                    "revert": false,
                    "revertMessage": "",
                    "selector": "0x23b872dd",
                    "status": true,
                    "value": "0"
                },
                "nodeType": 0
            },
            "30": {
                "invocation": {
                    "address": "0xb24ce9443d701c811256f14aa50dc76aebe7f0d5",
                    "callData": "0x",
                    "decodedMethod": null,
                    "errorInfo": "",
                    "fromAddress": "0xcda72070e455bb31c7690a170224ce43623d0b6f",
                    "gasUsed": 0,
                    "id": 30,
                    "methodDecoded": false,
                    "operation": "CALL",
                    "output": "",
                    "revert": false,
                    "revertMessage": "",
                    "selector": "fallback",
                    "status": true,
                    "value": "0.01185"
                },
                "nodeType": 0
            },
            "31": {
                "event": {
                    "contract": "0xcda72070e455bb31c7690a170224ce43623d0b6f",
                    "decodedLog": {
                        "name": "SellerReferralPaid",
                        "params": [
                            {
                                "name": "nftContract",
                                "type": "address",
                                "value": "0xe9c1a3614fc3baaafdfeefd7a901f8cadff91a7c"
                            },
                            {
                                "name": "tokenId",
                                "type": "uint256",
                                "value": "3"
                            },
                            {
                                "name": "sellerReferrer",
                                "type": "address",
                                "value": "0xb24ce9443d701c811256f14aa50dc76aebe7f0d5"
                            },
                            {
                                "name": "sellerReferrerFee",
                                "type": "uint256",
                                "value": "11,850,000,000,000,000"
                            }
                        ],
                        "signature": "SellerReferralPaid(address,uint256,address,uint256)"
                    },
                    "id": 31,
                    "logData": "0x000000000000000000000000b24ce9443d701c811256f14aa50dc76aebe7f0d5000000000000000000000000000000000000000000000000002a19832096a000",
                    "logDecoded": true,
                    "operation": "EVENT",
                    "revert": false,
                    "status": true,
                    "topics": [
                        "0x27a4dd4ff659a9e6354fb079b2208365e5b83f55c22a4150eee2bca89501cb98",
                        "0x000000000000000000000000e9c1a3614fc3baaafdfeefd7a901f8cadff91a7c",
                        "0x0000000000000000000000000000000000000000000000000000000000000003"
                    ]
                },
                "nodeType": 1
            },
            "32": {
                "event": {
                    "contract": "0xcda72070e455bb31c7690a170224ce43623d0b6f",
                    "decodedLog": {
                        "name": "ReserveAuctionFinalized",
                        "params": [
                            {
                                "name": "auctionId",
                                "type": "uint256",
                                "value": "343,103"
                            },
                            {
                                "name": "seller",
                                "type": "address",
                                "value": "0x2110619229c7d891b5ec3228bf0418ff5cfd8dd1"
                            },
                            {
                                "name": "bidder",
                                "type": "address",
                                "value": "0xc8f2f8978798d4e8a8f89df6e68866cbf454d926"
                            },
                            {
                                "name": "totalFees",
                                "type": "uint256",
                                "value": "3,950,000,000,000,000"
                            },
                            {
                                "name": "creatorRev",
                                "type": "uint256",
                                "value": "75,050,000,000,000,000"
                            },
                            {
                                "name": "sellerRev",
                                "type": "uint256",
                                "value": "0"
                            }
                        ],
                        "signature": "ReserveAuctionFinalized(uint256,address,address,uint256,uint256,uint256)"
                    },
                    "id": 32,
                    "logData": "0x000000000000000000000000000000000000000000000000000e08810adce000000000000000000000000000000000000000000000000000010aa193ce64a0000000000000000000000000000000000000000000000000000000000000000000",
                    "logDecoded": true,
                    "operation": "EVENT",
                    "revert": false,
                    "status": true,
                    "topics": [
                        "0x2edb0e99c6ac35be6731dab554c1d1fa1b7beb675090dbb09fb14e615aca1c4a",
                        "0x0000000000000000000000000000000000000000000000000000000000053c3f",
                        "0x0000000000000000000000002110619229c7d891b5ec3228bf0418ff5cfd8dd1",
                        "0x000000000000000000000000c8f2f8978798d4e8a8f89df6e68866cbf454d926"
                    ]
                },
                "nodeType": 1
            },
            "4": {
                "event": {
                    "contract": "0xe9c1a3614fc3baaafdfeefd7a901f8cadff91a7c",
                    "decodedLog": {
                        "name": "Approval",
                        "params": [
                            {
                                "name": "owner",
                                "type": "address",
                                "value": "0xcda72070e455bb31c7690a170224ce43623d0b6f"
                            },
                            {
                                "name": "approved",
                                "type": "address",
                                "value": "0x0000000000000000000000000000000000000000"
                            },
                            {
                                "decimalAvailable": true,
                                "name": "tokenId",
                                "type": "uint256",
                                "value": "3"
                            }
                        ],
                        "signature": "Approval(address,address,uint256)"
                    },
                    "id": 4,
                    "logData": "0x",
                    "logDecoded": true,
                    "operation": "EVENT",
                    "revert": false,
                    "status": true,
                    "topics": [
                        "0x8c5be1e5ebec7d5bd14f71427d1e84f3dd0314c0f7b2291e5b200ac8c7c3b925",
                        "0x000000000000000000000000cda72070e455bb31c7690a170224ce43623d0b6f",
                        "0x0000000000000000000000000000000000000000000000000000000000000000",
                        "0x0000000000000000000000000000000000000000000000000000000000000003"
                    ]
                },
                "nodeType": 1
            },
            "5": {
                "event": {
                    "contract": "0xe9c1a3614fc3baaafdfeefd7a901f8cadff91a7c",
                    "decodedLog": {
                        "name": "Transfer",
                        "params": [
                            {
                                "name": "from",
                                "type": "address",
                                "value": "0xcda72070e455bb31c7690a170224ce43623d0b6f"
                            },
                            {
                                "name": "to",
                                "type": "address",
                                "value": "0xc8f2f8978798d4e8a8f89df6e68866cbf454d926"
                            },
                            {
                                "decimalAvailable": true,
                                "name": "tokenId",
                                "type": "uint256",
                                "value": "3"
                            }
                        ],
                        "signature": "Transfer(address,address,uint256)"
                    },
                    "id": 5,
                    "logData": "0x",
                    "logDecoded": true,
                    "operation": "EVENT",
                    "revert": false,
                    "status": true,
                    "topics": [
                        "0xddf252ad1be2c89b69c2b068fc378daa952ba7f163c4a11628f55a4df523b3ef",
                        "0x000000000000000000000000cda72070e455bb31c7690a170224ce43623d0b6f",
                        "0x000000000000000000000000c8f2f8978798d4e8a8f89df6e68866cbf454d926",
                        "0x0000000000000000000000000000000000000000000000000000000000000003"
                    ]
                },
                "nodeType": 1
            },
            "6": {
                "invocation": {
                    "address": "0xb0a1cd3b31a8e3bbbaba15feddb88abd932a677d",
                    "callData": "0x000000000000000000000000e9c1a3614fc3baaafdfeefd7a901f8cadff91a7c0000000000000000000000000000000000000000000000000000000000000003",
                    "decodedMethod": {
                        "callParams": [
                            {
                                "name": "nftContract",
                                "type": "address",
                                "value": "0xe9c1a3614fc3baaafdfeefd7a901f8cadff91a7c"
                            },
                            {
                                "name": "tokenId",
                                "type": "uint256",
                                "value": "3"
                            }
                        ],
                        "constructorArguments": "",
                        "name": "internalGetTokenCreator",
                        "returnParams": [],
                        "signature": "internalGetTokenCreator(address,uint256)"
                    },
                    "errorInfo": "execution reverted",
                    "fromAddress": "0xcda72070e455bb31c7690a170224ce43623d0b6f",
                    "gasUsed": 1330,
                    "id": 6,
                    "methodDecoded": true,
                    "operation": "STATICCALL",
                    "output": "",
                    "revert": true,
                    "revertMessage": "",
                    "selector": "0x4c542f77",
                    "status": false,
                    "value": "0"
                },
                "nodeType": 0
            },
            "7": {
                "invocation": {
                    "address": "0xe9c1a3614fc3baaafdfeefd7a901f8cadff91a7c",
                    "callData": "0x0000000000000000000000000000000000000000000000000000000000000003",
                    "decodedMethod": {
                        "callParams": [
                            {
                                "name": "",
                                "type": "uint256",
                                "value": "3"
                            }
                        ],
                        "constructorArguments": "",
                        "name": "tokenCreator",
                        "returnParams": [],
                        "signature": "tokenCreator(uint256)"
                    },
                    "errorInfo": "execution reverted",
                    "fromAddress": "0xb0a1cd3b31a8e3bbbaba15feddb88abd932a677d",
                    "gasUsed": 682,
                    "id": 7,
                    "methodDecoded": true,
                    "operation": "STATICCALL",
                    "output": "",
                    "revert": true,
                    "revertMessage": "",
                    "selector": "0x40c1a064",
                    "status": false,
                    "value": "0"
                },
                "nodeType": 0
            },
            "8": {
                "invocation": {
                    "address": "0x2d3fc875de7fe7da43ad0afa0e7023c9b91d06b1",
                    "callData": "0x0000000000000000000000000000000000000000000000000000000000000003",
                    "decodedMethod": {
                        "callParams": [
                            {
                                "name": "",
                                "type": "uint256",
                                "value": "3"
                            }
                        ],
                        "constructorArguments": "",
                        "name": "tokenCreator",
                        "returnParams": [],
                        "signature": "tokenCreator(uint256)"
                    },
                    "errorInfo": "execution reverted",
                    "fromAddress": "0xe9c1a3614fc3baaafdfeefd7a901f8cadff91a7c",
                    "gasUsed": 259,
                    "id": 8,
                    "methodDecoded": true,
                    "operation": "DELEGATECALL",
                    "output": "",
                    "revert": true,
                    "revertMessage": "",
                    "selector": "0x40c1a064",
                    "status": false,
                    "value": "0"
                },
                "nodeType": 0
            },
            "9": {
                "invocation": {
                    "address": "0xb0a1cd3b31a8e3bbbaba15feddb88abd932a677d",
                    "callData": "0x000000000000000000000000e9c1a3614fc3baaafdfeefd7a901f8cadff91a7c0000000000000000000000000000000000000000000000000000000000000003",
                    "decodedMethod": {
                        "callParams": [
                            {
                                "name": "nftContract",
                                "type": "address",
                                "value": "0xe9c1a3614fc3baaafdfeefd7a901f8cadff91a7c"
                            },
                            {
                                "name": "tokenId",
                                "type": "uint256",
                                "value": "3"
                            }
                        ],
                        "constructorArguments": "",
                        "name": "internalGetImmutableRoyalties",
                        "returnParams": [
                            {
                                "name": "recipients",
                                "type": "address[]",
                                "value": []
                            },
                            {
                                "name": "splitPerRecipientInBasisPoints",
                                "type": "uint256[]",
                                "value": []
                            }
                        ],
                        "signature": "internalGetImmutableRoyalties(address,uint256)"
                    },
                    "errorInfo": "",
                    "fromAddress": "0xcda72070e455bb31c7690a170224ce43623d0b6f",
                    "gasUsed": 14914,
                    "id": 9,
                    "methodDecoded": true,
                    "operation": "STATICCALL",
                    "output": "0x0000000000000000000000000000000000000000000000000000000000000040000000000000000000000000000000000000000000000000000000000000006000000000000000000000000000000000000000000000000000000000000000000000000000000000000000000000000000000000000000000000000000000000",
                    "revert": false,
                    "revertMessage": "",
                    "selector": "0x0d7daf3e",
                    "status": true,
                    "value": "0"
                },
                "nodeType": 0
            }
        },
        "gasFlame": [
            {
                "children": [
                    {
                        "children": [
                            {
                                "children": [],
                                "depth": 0,
                                "name": "Initial Gas",
                                "value": 21228
                            },
                            {
                                "children": [
                                    {
                                        "children": [
                                            {
                                                "children": [
                                                    {
                                                        "children": [],
                                                        "depth": 3,
                                                        "name": "transferFrom",
                                                        "value": 46897
                                                    }
                                                ],
                                                "depth": 2,
                                                "name": "transferFrom",
                                                "value": 51828
                                            },
                                            {
                                                "children": [
                                                    {
                                                        "children": [
                                                            {
                                                                "children": [],
                                                                "depth": 4,
                                                                "name": "tokenCreator",
                                                                "value": 259
                                                            }
                                                        ],
                                                        "depth": 3,
                                                        "name": "tokenCreator",
                                                        "value": 682
                                                    }
                                                ],
                                                "depth": 2,
                                                "name": "internalGetTokenCreator",
                                                "value": 1330
                                            },
                                            {
                                                "children": [
                                                    {
                                                        "children": [
                                                            {
                                                                "children": [],
                                                                "depth": 4,
                                                                "name": "supportsInterface",
                                                                "value": 1073
                                                            }
                                                        ],
                                                        "depth": 3,
                                                        "name": "supportsInterface",
                                                        "value": 1498
                                                    },
                                                    {
                                                        "children": [
                                                            {
                                                                "children": [],
                                                                "depth": 4,
                                                                "name": "royaltyInfo",
                                                                "value": 5739
                                                            }
                                                        ],
                                                        "depth": 3,
                                                        "name": "royaltyInfo",
                                                        "value": 6170
                                                    },
                                                    {
                                                        "children": [
                                                            {
                                                                "children": [],
                                                                "depth": 4,
                                                                "name": "supportsInterface",
                                                                "value": 978
                                                            }
                                                        ],
                                                        "depth": 3,
                                                        "name": "supportsInterface",
                                                        "value": 1403
                                                    },
                                                    {
                                                        "children": [
                                                            {
                                                                "children": [],
                                                                "depth": 4,
                                                                "name": "getRoyalties",
                                                                "value": 1814
                                                            }
                                                        ],
                                                        "depth": 3,
                                                        "name": "getRoyalties",
                                                        "value": 2251
                                                    }
                                                ],
                                                "depth": 2,
                                                "name": "internalGetImmutableRoyalties",
                                                "value": 14914
                                            },
                                            {
                                                "children": [
                                                    {
                                                        "children": [
                                                            {
                                                                "children": [],
                                                                "depth": 4,
                                                                "name": "getRoyaltyLookupAddress",
                                                                "value": 2617
                                                            }
                                                        ],
                                                        "depth": 3,
                                                        "name": "getRoyaltyLookupAddress",
                                                        "value": 9948
                                                    },
                                                    {
                                                        "children": [
                                                            {
                                                                "children": [],
                                                                "depth": 4,
                                                                "name": "supportsInterface",
                                                                "value": 1010
                                                            }
                                                        ],
                                                        "depth": 3,
                                                        "name": "supportsInterface",
                                                        "value": 1435
                                                    },
                                                    {
                                                        "children": [
                                                            {
                                                                "children": [],
                                                                "depth": 4,
                                                                "name": "getFeeRecipients",
                                                                "value": 1643
                                                            }
                                                        ],
                                                        "depth": 3,
                                                        "name": "getFeeRecipients",
                                                        "value": 2071
                                                    },
                                                    {
                                                        "children": [
                                                            {
                                                                "children": [],
                                                                "depth": 4,
                                                                "name": "owner",
                                                                "value": 2421
                                                            }
                                                        ],
                                                        "depth": 3,
                                                        "name": "owner",
                                                        "value": 2843
                                                    }
                                                ],
                                                "depth": 2,
                                                "name": "internalGetMutableRoyalties",
                                                "value": 22536
                                            },
                                            {
                                                "children": [],
                                                "depth": 2,
                                                "name": "fallback",
                                                "value": 0
                                            },
                                            {
                                                "children": [
                                                    {
                                                        "children": [],
                                                        "depth": 3,
                                                        "name": "fallback",
                                                        "value": 55
                                                    }
                                                ],
                                                "depth": 2,
                                                "name": "fallback",
                                                "value": 7204
                                            },
                                            {
                                                "children": [],
                                                "depth": 2,
                                                "name": "fallback",
                                                "value": 0
                                            }
                                        ],
                                        "depth": 1,
                                        "name": "finalizeReserveAuction",
                                        "value": 190720
                                    }
                                ],
                                "depth": 0,
                                "name": "Executed Gas",
                                "value": 197993
                            }
                        ],
                        "depth": -1,
                        "name": "Actual Gas Used",
                        "value": 178021
                    },
                    {
                        "children": [],
                        "depth": -1,
                        "name": "Refunded Gas",
                        "value": 41200
                    }
                ],
                "depth": -2,
                "name": "Total Gas",
                "value": 219221
            }
        ],
        "isConfirmed": true,
        "mainTrace": [
            {
                "children": [
                    {
                        "children": [
                            {
                                "children": [
                                    {
                                        "children": [
                                            {
                                                "children": [
                                                    {
                                                        "children": [],
                                                        "depth": 4,
                                                        "id": 4,
                                                        "order": 4
                                                    },
                                                    {
                                                        "children": [],
                                                        "depth": 4,
                                                        "id": 5,
                                                        "order": 5
                                                    }
                                                ],
                                                "depth": 3,
                                                "id": 3,
                                                "order": 3
                                            }
                                        ],
                                        "depth": 2,
                                        "id": 2,
                                        "order": 2
                                    },
                                    {
                                        "children": [
                                            {
                                                "children": [
                                                    {
                                                        "children": [],
                                                        "depth": 4,
                                                        "id": 8,
                                                        "order": 8
                                                    }
                                                ],
                                                "depth": 3,
                                                "id": 7,
                                                "order": 7
                                            }
                                        ],
                                        "depth": 2,
                                        "id": 6,
                                        "order": 6
                                    },
                                    {
                                        "children": [
                                            {
                                                "children": [
                                                    {
                                                        "children": [],
                                                        "depth": 4,
                                                        "id": 11,
                                                        "order": 11
                                                    }
                                                ],
                                                "depth": 3,
                                                "id": 10,
                                                "order": 10
                                            },
                                            {
                                                "children": [
                                                    {
                                                        "children": [],
                                                        "depth": 4,
                                                        "id": 13,
                                                        "order": 13
                                                    }
                                                ],
                                                "depth": 3,
                                                "id": 12,
                                                "order": 12
                                            },
                                            {
                                                "children": [
                                                    {
                                                        "children": [],
                                                        "depth": 4,
                                                        "id": 15,
                                                        "order": 15
                                                    }
                                                ],
                                                "depth": 3,
                                                "id": 14,
                                                "order": 14
                                            },
                                            {
                                                "children": [
                                                    {
                                                        "children": [],
                                                        "depth": 4,
                                                        "id": 17,
                                                        "order": 17
                                                    }
                                                ],
                                                "depth": 3,
                                                "id": 16,
                                                "order": 16
                                            }
                                        ],
                                        "depth": 2,
                                        "id": 9,
                                        "order": 9
                                    },
                                    {
                                        "children": [
                                            {
                                                "children": [
                                                    {
                                                        "children": [],
                                                        "depth": 4,
                                                        "id": 20,
                                                        "order": 20
                                                    }
                                                ],
                                                "depth": 3,
                                                "id": 19,
                                                "order": 19
                                            },
                                            {
                                                "children": [
                                                    {
                                                        "children": [],
                                                        "depth": 4,
                                                        "id": 22,
                                                        "order": 22
                                                    }
                                                ],
                                                "depth": 3,
                                                "id": 21,
                                                "order": 21
                                            },
                                            {
                                                "children": [
                                                    {
                                                        "children": [],
                                                        "depth": 4,
                                                        "id": 24,
                                                        "order": 24
                                                    }
                                                ],
                                                "depth": 3,
                                                "id": 23,
                                                "order": 23
                                            },
                                            {
                                                "children": [
                                                    {
                                                        "children": [],
                                                        "depth": 4,
                                                        "id": 26,
                                                        "order": 26
                                                    }
                                                ],
                                                "depth": 3,
                                                "id": 25,
                                                "order": 25
                                            }
                                        ],
                                        "depth": 2,
                                        "id": 18,
                                        "order": 18
                                    },
                                    {
                                        "children": [],
                                        "depth": 2,
                                        "id": 27,
                                        "order": 27
                                    },
                                    {
                                        "children": [
                                            {
                                                "children": [],
                                                "depth": 3,
                                                "id": 29,
                                                "order": 29
                                            }
                                        ],
                                        "depth": 2,
                                        "id": 28,
                                        "order": 28
                                    },
                                    {
                                        "children": [],
                                        "depth": 2,
                                        "id": 30,
                                        "order": 30
                                    },
                                    {
                                        "children": [],
                                        "depth": 2,
                                        "id": 31,
                                        "order": 31
                                    },
                                    {
                                        "children": [],
                                        "depth": 2,
                                        "id": 32,
                                        "order": 32
                                    }
                                ],
                                "depth": 1,
                                "id": 1,
                                "order": 1
                            }
                        ],
                        "depth": 0,
                        "id": 0,
                        "order": 0
                    }
                ],
                "depth": -1,
                "id": -1,
                "order": -1
            }
        ],
        "mainTraceNodeCount": 33,
        "parentIdMap": {
            "0": -1,
            "1": 0,
            "10": 9,
            "11": 10,
            "12": 9,
            "13": 12,
            "14": 9,
            "15": 14,
            "16": 9,
            "17": 16,
            "18": 1,
            "19": 18,
            "2": 1,
            "20": 19,
            "21": 18,
            "22": 21,
            "23": 18,
            "24": 23,
            "25": 18,
            "26": 25,
            "27": 1,
            "28": 1,
            "29": 28,
            "3": 2,
            "30": 1,
            "31": 1,
            "32": 1,
            "4": 3,
            "5": 3,
            "6": 1,
            "7": 6,
            "8": 7,
            "9": 1
        },
        "tidyTrace": [
            {
                "children": [
                    {
                        "children": [
                            {
                                "children": [
                                    {
                                        "children": [
                                            {
                                                "children": [
                                                    {
                                                        "children": [],
                                                        "depth": 4,
                                                        "id": 4,
                                                        "order": 4
                                                    },
                                                    {
                                                        "children": [],
                                                        "depth": 4,
                                                        "id": 5,
                                                        "order": 5
                                                    }
                                                ],
                                                "depth": 3,
                                                "id": 3,
                                                "order": 3
                                            }
                                        ],
                                        "depth": 2,
                                        "id": 2,
                                        "order": 2
                                    },
                                    {
                                        "children": [],
                                        "depth": 2,
                                        "id": 27,
                                        "order": 27
                                    },
                                    {
                                        "children": [
                                            {
                                                "children": [],
                                                "depth": 3,
                                                "id": 29,
                                                "order": 29
                                            }
                                        ],
                                        "depth": 2,
                                        "id": 28,
                                        "order": 28
                                    },
                                    {
                                        "children": [],
                                        "depth": 2,
                                        "id": 30,
                                        "order": 30
                                    },
                                    {
                                        "children": [],
                                        "depth": 2,
                                        "id": 31,
                                        "order": 31
                                    },
                                    {
                                        "children": [],
                                        "depth": 2,
                                        "id": 32,
                                        "order": 32
                                    }
                                ],
                                "depth": 1,
                                "id": 1,
                                "order": 1
                            }
                        ],
                        "depth": 0,
                        "id": 0,
                        "order": 0
                    }
                ],
                "depth": -1,
                "id": -1,
                "order": -1
            }
        ],
        "tidyTraceNodeCount": 12
    },
    "state_change": {
        "stateChanges": [
            {
                "address": "0xcda72070e455bb31c7690a170224ce43623d0b6f",
                "erc": "",
                "slots": [
                    {
                        "current": "0x0000000000000000000000000000000000000000000000000000000000000000",
                        "key": "0xe479a43e2ba6b9bb7d2f988d62527232519cd596b2273e05137cc09ae3707040",
                        "prev": "0x000000000000000000000000e9c1a3614fc3baaafdfeefd7a901f8cadff91a7c"
                    },
                    {
                        "current": "0x0000000000000000000000000000000000000000000000000000000000000000",
                        "key": "0xf25ad76204f8110e01e1f826a451cec1a602c7c23af323d8bc5bdc74b94f18cb",
                        "prev": "0x0000000000000000000000000000000000000000000000000000000000053c3f"
                    },
                    {
                        "current": "0x0000000000000000000000000000000000000000000000000000000000000000",
                        "key": "0xe479a43e2ba6b9bb7d2f988d62527232519cd596b2273e05137cc09ae3707042",
                        "prev": "0x0000000000000000000000002110619229c7d891b5ec3228bf0418ff5cfd8dd1"
                    },
                    {
                        "current": "0x0000000000000000000000000000000000000000000000000000000000000000",
                        "key": "0x89d021f719490b39d9e0a7752c72b74401a6891e812f24795701159b35dad2ef",
                        "prev": "0x0000000000000000000000000000000000000000000000000000000000000203"
                    },
                    {
                        "current": "0x0000000000000000000000000000000000000000000000000000000000000000",
                        "key": "0xe479a43e2ba6b9bb7d2f988d62527232519cd596b2273e05137cc09ae3707046",
                        "prev": "0x000000000000000000000000c8f2f8978798d4e8a8f89df6e68866cbf454d926"
                    },
                    {
                        "current": "0x0000000000000000000000000000000000000000000000000000000000000000",
                        "key": "0xe479a43e2ba6b9bb7d2f988d62527232519cd596b2273e05137cc09ae3707047",
                        "prev": "0x0000000000000000000000000000000000000000000000000118aa14d9418000"
                    },
                    {
                        "current": "0x0000000000000000000000000000000000000000000000000000000000000000",
                        "key": "0xe479a43e2ba6b9bb7d2f988d62527232519cd596b2273e05137cc09ae3707041",
                        "prev": "0x0000000000000000000000000000000000000000000000000000000000000003"
                    },
                    {
                        "current": "0x0000000000000000000000000000000000000000000000000000000000000000",
                        "key": "0xe479a43e2ba6b9bb7d2f988d62527232519cd596b2273e05137cc09ae3707045",
                        "prev": "0x0000000000000000000000000000000000000000000000000000000064a73593"
                    }
                ],
                "storageVariables": [
                    {
                        "name": "auctionIdToAuction",
                        "type": "mapping(uint256 => struct NFTMarketReserveAuction.ReserveAuctionStorage)",
                        "value": {
                            "pairs": [
                                {
                                    "key": "343103",
                                    "value": {
                                        "fields": [
                                            {
                                                "name": "nftContract",
                                                "type": "address",
                                                "value": {
                                                    "current": "0x0000000000000000000000000000000000000000",
                                                    "prev": "0xe9c1a3614fc3baaafdfeefd7a901f8cadff91a7c",
                                                    "typeTag": 1
                                                }
                                            },
                                            {
                                                "name": "tokenId",
                                                "type": "uint256",
                                                "value": {
                                                    "current": "0",
                                                    "prev": "3",
                                                    "typeTag": 1
                                                }
                                            },
                                            {
                                                "name": "seller",
                                                "type": "address payable",
                                                "value": {
                                                    "current": "0x0000000000000000000000000000000000000000",
                                                    "prev": "0x2110619229c7d891b5ec3228bf0418ff5cfd8dd1",
                                                    "typeTag": 1
                                                }
                                            },
                                            {
                                                "name": "bidReferrerAddressSlot0",
                                                "type": "uint96",
                                                "value": {
                                                    "current": "0",
                                                    "prev": "0",
                                                    "typeTag": 1
                                                }
                                            },
                                            {
                                                "name": "endTime",
                                                "type": "uint256",
                                                "value": {
                                                    "current": "0",
                                                    "prev": "1688679827",
                                                    "typeTag": 1
                                                }
                                            },
                                            {
                                                "name": "bidder",
                                                "type": "address payable",
                                                "value": {
                                                    "current": "0x0000000000000000000000000000000000000000",
                                                    "prev": "0xc8f2f8978798d4e8a8f89df6e68866cbf454d926",
                                                    "typeTag": 1
                                                }
                                            },
                                            {
                                                "name": "bidReferrerAddressSlot1",
                                                "type": "uint64",
                                                "value": {
                                                    "current": "0",
                                                    "prev": "0",
                                                    "typeTag": 1
                                                }
                                            },
                                            {
                                                "name": "duration",
                                                "type": "uint32",
                                                "value": {
                                                    "current": "0",
                                                    "prev": "0",
                                                    "typeTag": 1
                                                }
                                            },
                                            {
                                                "name": "amount",
                                                "type": "uint256",
                                                "value": {
                                                    "current": "0",
                                                    "prev": "79000000000000000",
                                                    "typeTag": 1
                                                }
                                            }
                                        ],
                                        "typeTag": 3
                                    }
                                }
                            ],
                            "typeTag": 4
                        }
                    },
                    {
                        "name": "nftContractToTokenIdToAuctionId",
                        "type": "mapping(address => mapping(uint256 => uint256))",
                        "value": {
                            "pairs": [
                                {
                                    "key": "0xe9c1a3614fc3baaafdfeefd7a901f8cadff91a7c",
                                    "value": {
                                        "pairs": [
                                            {
                                                "key": "3",
                                                "value": {
                                                    "current": "0",
                                                    "prev": "343103",
                                                    "typeTag": 1
                                                }
                                            }
                                        ],
                                        "typeTag": 4
                                    }
                                }
                            ],
                            "typeTag": 4
                        }
                    },
                    {
                        "name": "$nftContractToTokenIdToExhibitionId",
                        "type": "mapping(address => mapping(uint256 => uint256))",
                        "value": {
                            "pairs": [
                                {
                                    "key": "0xe9c1a3614fc3baaafdfeefd7a901f8cadff91a7c",
                                    "value": {
                                        "pairs": [
                                            {
                                                "key": "3",
                                                "value": {
                                                    "current": "0",
                                                    "prev": "515",
                                                    "typeTag": 1
                                                }
                                            }
                                        ],
                                        "typeTag": 4
                                    }
                                }
                            ],
                            "typeTag": 4
                        }
                    }
                ]
            },
            {
                "address": "0xe9c1a3614fc3baaafdfeefd7a901f8cadff91a7c",
                "erc": "ERC-721",
                "slots": [
                    {
                        "current": "0x0000000000000000000000000000000000000000000000000000000000000001",
                        "key": "0x15be874524e6bee1669b75aef2ea6c9de445bde4e8175cefa4d30edd1e64d6ac",
                        "prev": "0x0000000000000000000000000000000000000000000000000000000000000002"
                    },
                    {
                        "current": "0x0000000000000000000000000000000000000000000000000000000000000001",
                        "key": "0x7e17db9962cf99a7da9b0af9b1e3033d3b4093f712c1a18d010323e81f568721",
                        "prev": "0x0000000000000000000000000000000000000000000000000000000000000000"
                    },
                    {
                        "current": "0x000000000000000000000000c8f2f8978798d4e8a8f89df6e68866cbf454d926",
                        "key": "0xa166308694002ada49a080be065b41ffb107f08c6cd338f4ec60e54116d066b7",
                        "prev": "0x000000000000000000000000cda72070e455bb31c7690a170224ce43623d0b6f"
                    }
                ],
                "storageVariables": [
                    {
                        "name": "_balances",
                        "type": "mapping(address => uint256)",
                        "value": {
                            "pairs": [
                                {
                                    "key": "0xc8f2f8978798d4e8a8f89df6e68866cbf454d926",
                                    "value": {
                                        "current": "1",
                                        "prev": "0",
                                        "typeTag": 1
                                    }
                                },
                                {
                                    "key": "0xcda72070e455bb31c7690a170224ce43623d0b6f",
                                    "value": {
                                        "current": "1",
                                        "prev": "2",
                                        "typeTag": 1
                                    }
                                }
                            ],
                            "typeTag": 4
                        }
                    },
                    {
                        "name": "_owners",
                        "type": "mapping(uint256 => address)",
                        "value": {
                            "pairs": [
                                {
                                    "key": "3",
                                    "value": {
                                        "current": "0xc8f2f8978798d4e8a8f89df6e68866cbf454d926",
                                        "prev": "0xcda72070e455bb31c7690a170224ce43623d0b6f",
                                        "typeTag": 1
                                    }
                                }
                            ],
                            "typeTag": 4
                        }
                    }
                ]
            }
        ]
    }
}