{
    "balance_change": {
        "balanceChanges": [
            {
                "account": "0x5f593209bf7b58a31a4b8e7a99a7f3e2eb74daca",
                "assets": [
                    {
                        "address": "0xd4c435f5b09f855c3317c8524cb1f586e42795fa",
                        "amount": "25,000",
                        "iconUrl": "https://assets.blocksec.com/icon/1d60ee792f320f7e520f97b56ad105122b7789005533287f92c1333a3125c68b.png",
                        "isERC1155": false,
                        "isERC721": false,
                        "sign": false,
                        "value": ""
                    }
                ]
            },
            {
                "account": "0xc77f54eddc7ebed7a5fce34f580a8ad4705bcc5a",
                "assets": [
                    {
                        "address": "0xd4c435f5b09f855c3317c8524cb1f586e42795fa",
                        "amount": "25,000",
                        "iconUrl": "https://assets.blocksec.com/icon/1d60ee792f320f7e520f97b56ad105122b7789005533287f92c1333a3125c68b.png",
                        "isERC1155": false,
                        "isERC721": false,
                        "sign": true,
                        "value": ""
                    }
                ]
            }
        ]
    },
    "profile": {
        "basic_info": {
            "baseFee": "",
            "blockNumber": 4982797,
            "callData": "0xa9059cbb000000000000000000000000c77f54eddc7ebed7a5fce34f580a8ad4705bcc5a00000000000000000000000000000000000000000000054b40b1f852bda00000",
            "debugEnable": true,
            "errorInfo": "",
            "eventCount": 1,
            "feeRecipient": "0xea674fdde714fd979de3edf0f56aa9716b898ec8",
            "formatValue": "0",
            "gasLimit": 91372,
            "gasPrice": "21",
            "gasUsed": 91372,
            "intTxnCount": 1,
            "internalRevert": false,
            "internalRevertMessage": "",
            "isContractCreation": false,
            "isFlashloan": false,
            "maxFee": "",
            "nonce": 5,
            "overwritedBlockNumber": -1,
            "priorityFee": "",
            "receiver": "0xd4c435f5b09f855c3317c8524cb1f586e42795fa",
            "revertMessage": "",
            "sender": "0x5f593209bf7b58a31a4b8e7a99a7f3e2eb74daca",
            "simulationEnable": true,
            "sourceTxnHash": "0x363f53340d8f90e26593dc599adb95ece1010e6bde151e33be4a96d987fb2b04",
            "status": true,
            "timestamp": "2018-01-27T16:12:12Z",
            "transactionFee": "0.001918812",
            "txnHash": "0x363f53340d8f90e26593dc599adb95ece1010e6bde151e33be4a96d987fb2b04",
            "txnIndex": 12,
            "type": 0,
            "value": "0"
        },
        "fund_flow": [
            {
                "amount": "25,000",
                "from": "0x5f593209bf7b58a31a4b8e7a99a7f3e2eb74daca",
                "id": 1,
                "isERC1155": false,
                "isERC721": false,
                "isReverted": false,
                "order": 1,
                "to": "0xc77f54eddc7ebed7a5fce34f580a8ad4705bcc5a",
                "token": "0xd4c435f5b09f855c3317c8524cb1f586e42795fa"
            }
        ],
        "token_infos": [
            {
                "address": "0xc02aaa39b223fe8d0a0e5c4f27ead9083c756cc2",
                "decimals": 18
            },
            {
                "address": "0xd4c435f5b09f855c3317c8524cb1f586e42795fa",
                "decimals": 18
            },
            {
                "address": "0xeeeeeeeeeeeeeeeeeeeeeeeeeeeeeeeeeeeeeeee",
                "decimals": 18
            }
        ]
    },
    "address_label": {
        "labels": [
            {
                "address": "0xeeeeeeeeeeeeeeeeeeeeeeeeeeeeeeeeeeeeeeee",
                "label": "Ether"
            },
            {
                "address": "0xc77f54eddc7ebed7a5fce34f580a8ad4705bcc5a",
                "label": "BINANCE"
            },
            {
                "address": "0xc22462d4bc50952b061c9e6c585fdd9a04d0d75a",
                "label": "Cindicator: Token Sale"
            },
            {
                "address": "0xd4c435f5b09f855c3317c8524cb1f586e42795fa",
                "label": "Cindicator"
            },
            {
                "address": "0x0000000000000000000000000000000000000001",
                "label": "Precompiled"
            },
            {
                "address": "0x0000000000000000000000000000000000000002",
                "label": "Precompiled"
            },
            {
                "address": "0x0000000000000000000000000000000000000003",
                "label": "Precompiled"
            },
            {
                "address": "0x0000000000000000000000000000000000000004",
                "label": "Precompiled"
            }
        ]
    },
    "trace": {
        "accountLabels": null,
        "dataMap": {
            "-1": {
                "invocation": {
                    "address": "0x5f593209bf7b58a31a4b8e7a99a7f3e2eb74daca",
                    "callData": "",
                    "decodedMethod": null,
                    "errorInfo": "",
                    "fromAddress": "",
                    "gasUsed": 0,
                    "id": -1,
                    "methodDecoded": false,
                    "operation": "",
                    "output": "",
                    "revert": false,
                    "revertMessage": "",
                    "selector": "",
                    "status": false,
                    "value": ""
                },
                "nodeType": 0
            },
            "0": {
                "invocation": {
                    "address": "0xd4c435f5b09f855c3317c8524cb1f586e42795fa",
                    "callData": "0x000000000000000000000000c77f54eddc7ebed7a5fce34f580a8ad4705bcc5a00000000000000000000000000000000000000000000054b40b1f852bda00000",
                    "decodedMethod": {
                        "callParams": [
                            {
                                "name": "_to",
                                "type": "address",
                                "value": "0xc77f54eddc7ebed7a5fce34f580a8ad4705bcc5a"
                            },
                            {
                                "decimalAvailable": true,
                                "name": "_amount",
                                "type": "uint256",
                                "value": "25,000,000,000,000,000,000,000"
                            }
                        ],
                        "constructorArguments": "",
                        "name": "transfer",
                        "returnParams": [
                            {
                                "name": "success",
                                "type": "bool",
                                "value": true
                            }
                        ],
                        "signature": "transfer(address,uint256)"
                    },
                    "errorInfo": "",
                    "fromAddress": "0x5f593209bf7b58a31a4b8e7a99a7f3e2eb74daca",
                    "gasUsed": 91372,
                    "id": 0,
                    "methodDecoded": true,
                    "operation": "CALL",
                    "output": "0x0000000000000000000000000000000000000000000000000000000000000001",
                    "revert": false,
                    "revertMessage": "",
                    "selector": "0xa9059cbb",
                    "status": true,
                    "value": "0"
                },
                "nodeType": 0
            },
            "1": {
                "invocation": {
                    "address": "0xc22462d4bc50952b061c9e6c585fdd9a04d0d75a",
                    "callData": "0x0000000000000000000000005f593209bf7b58a31a4b8e7a99a7f3e2eb74daca000000000000000000000000c77f54eddc7ebed7a5fce34f580a8ad4705bcc5a00000000000000000000000000000000000000000000054b40b1f852bda00000",
                    "decodedMethod": {
                        "callParams": [
                            {
                                "name": "",
                                "type": "address",
                                "value": "0x5f593209bf7b58a31a4b8e7a99a7f3e2eb74daca"
                            },
                            {
                                "name": "",
                                "type": "address",
                                "value": "0xc77f54eddc7ebed7a5fce34f580a8ad4705bcc5a"
                            },
                            {
                                "name": "",
                                "type": "uint256",
                                "value": "25,000,000,000,000,000,000,000"
                            }
                        ],
                        "constructorArguments": "",
                        "name": "onTransfer",
                        "returnParams": [
                            {
                                "name": "",
                                "type": "bool",
                                "value": true
                            }
                        ],
                        "signature": "onTransfer(address,address,uint256)"
                    },
                    "errorInfo": "",
                    "fromAddress": "0xd4c435f5b09f855c3317c8524cb1f586e42795fa",
                    "gasUsed": 1032,
                    "id": 1,
                    "methodDecoded": true,
                    "operation": "CALL",
                    "output": "0x0000000000000000000000000000000000000000000000000000000000000001",
                    "revert": false,
                    "revertMessage": "",
                    "selector": "0x4a393149",
                    "status": true,
                    "value": "0"
                },
                "nodeType": 0
            },
            "2": {
                "event": {
                    "contract": "0xd4c435f5b09f855c3317c8524cb1f586e42795fa",
                    "decodedLog": {
                        "name": "Transfer",
                        "params": [
                            {
                                "name": "_from",
                                "type": "address",
                                "value": "0x5f593209bf7b58a31a4b8e7a99a7f3e2eb74daca"
                            },
                            {
                                "name": "_to",
                                "type": "address",
                                "value": "0xc77f54eddc7ebed7a5fce34f580a8ad4705bcc5a"
                            },
                            {
                                "decimalAvailable": true,
                                "name": "_amount",
                                "type": "uint256",
                                "value": "25,000,000,000,000,000,000,000"
                            }
                        ],
                        "signature": "Transfer(address,address,uint256)"
                    },
                    "id": 2,
                    "logData": "0x00000000000000000000000000000000000000000000054b40b1f852bda00000",
                    "logDecoded": true,
                    "operation": "EVENT",
                    "revert": false,
                    "status": true,
                    "topics": [
                        "0xddf252ad1be2c89b69c2b068fc378daa952ba7f163c4a11628f55a4df523b3ef",
                        "0x0000000000000000000000005f593209bf7b58a31a4b8e7a99a7f3e2eb74daca",
                        "0x000000000000000000000000c77f54eddc7ebed7a5fce34f580a8ad4705bcc5a"
                    ]
                },
                "nodeType": 1
            }
        },
        "gasFlame": [
            {
                "children": [
                    {
                        "children": [
                            {
                                "children": [],
                                "depth": 0,
                                "name": "Initial Gas",
                                "value": 23320
                            },
                            {
                                "children": [
                                    {
                                        "children": [],
                                        "depth": 1,
                                        "name": "onTransfer",
                                        "value": 1032
                                    }
                                ],
                                "depth": 0,
                                "name": "Executed Gas",
                                "value": 68052
                            }
                        ],
                        "depth": -1,
                        "name": "Actual Gas Used",
                        "value": 91372
                    },
                    {
                        "children": [],
                        "depth": -1,
                        "name": "Refunded Gas",
                        "value": 0
                    }
                ],
                "depth": -2,
                "name": "Total Gas",
                "value": 91372
            }
        ],
        "isConfirmed": true,
        "mainTrace": [
            {
                "children": [
                    {
                        "children": [
                            {
                                "children": [],
                                "depth": 1,
                                "id": 1,
                                "order": 1
                            },
                            {
                                "children": [],
                                "depth": 1,
                                "id": 2,
                                "order": 2
                            }
                        ],
                        "depth": 0,
                        "id": 0,
                        "order": 0
                    }
                ],
                "depth": -1,
                "id": -1,
                "order": -1
            }
        ],
        "mainTraceNodeCount": 3,
        "parentIdMap": {
            "0": -1,
            "1": 0,
            "2": 0
        },
        "tidyTrace": [
            {
                "children": [
                    {
                        "children": [
                            {
                                "children": [],
                                "depth": 1,
                                "id": 1,
                                "order": 1
                            },
                            {
                                "children": [],
                                "depth": 1,
                                "id": 2,
                                "order": 2
                            }
                        ],
                        "depth": 0,
                        "id": 0,
                        "order": 0
                    }
                ],
                "depth": -1,
                "id": -1,
                "order": -1
            }
        ],
        "tidyTraceNodeCount": 3
    },
    "state_change": {
        "stateChanges": [
            {
                "address": "0xd4c435f5b09f855c3317c8524cb1f586e42795fa",
                "erc": "ERC-20",
                "slots": [
                    {
                        "current": "0x000000000000000000000000000000000000000000000000000000000000000e",
                        "key": "0x812c2089dcf3535a420117fc5fbff99ceca7d3041f93de53b3417d27332aa6dd",
                        "prev": "0x000000000000000000000000000000000000000000000000000000000000000d"
                    },
                    {
                        "current": "0x0000000000007aa042c0b02d18140000000000000000000000000000004c080d",
                        "key": "0x8ec6c4bb13ff965ac62e0680e0c7fccfc33f7e89e1c4e098963ab0f8557dcb5d",
                        "prev": "0x0000000000000000000000000000000000000000000000000000000000000000"
                    },
                    {
                        "current": "0x0000000000000000000000000000000000000000000000000000000000000003",
                        "key": "0xa42c41ef58d046f6d26f415329f26c37609e1e55f8d7c2a1cc6ba62e64eaed7e",
                        "prev": "0x0000000000000000000000000000000000000000000000000000000000000002"
                    },
                    {
                        "current": "0x000000000000054b40b1f852bda00000000000000000000000000000004c080d",
                        "key": "0x1117354bd81617636fef0a1d664d760948f309d3df5ac1211178804e91928b32",
                        "prev": "0x0000000000000000000000000000000000000000000000000000000000000000"
                    }
                ],
                "storageVariables": [
                    {
                        "name": "balances",
                        "type": "mapping(address => struct MiniMeToken.Checkpoint[])",
                        "value": {
                            "pairs": [
                                {
                                    "key": "0x5f593209bf7b58a31a4b8e7a99a7f3e2eb74daca",
                                    "value": {
                                        "elemType": "struct MiniMeToken.Checkpoint",
                                        "elems": [
                                            {
                                                "index": 13,
                                                "value": {
                                                    "fields": [
                                                        {
                                                            "name": "fromBlock",
                                                            "type": "uint128",
                                                            "value": {
                                                                "current": "4982797",
                                                                "prev": "0",
                                                                "typeTag": 1
                                                            }
                                                        },
                                                        {
                                                            "name": "value",
                                                            "type": "uint128",
                                                            "value": {
                                                                "current": "579085000000000000000000",
                                                                "prev": "0",
                                                                "typeTag": 1
                                                            }
                                                        }
                                                    ],
                                                    "typeTag": 3
                                                }
                                            }
                                        ],
                                        "typeTag": 2
                                    }
                                },
                                {
                                    "key": "0xc77f54eddc7ebed7a5fce34f580a8ad4705bcc5a",
                                    "value": {
                                        "elemType": "struct MiniMeToken.Checkpoint",
                                        "elems": [
                                            {
                                                "index": 2,
                                                "value": {
                                                    "fields": [
                                                        {
                                                            "name": "fromBlock",
                                                            "type": "uint128",
                                                            "value": {
                                                                "current": "4982797",
                                                                "prev": "0",
                                                                "typeTag": 1
                                                            }
                                                        },
                                                        {
                                                            "name": "value",
                                                            "type": "uint128",
                                                            "value": {
                                                                "current": "25000000000000000000000",
                                                                "prev": "0",
                                                                "typeTag": 1
                                                            }
                                                        }
                                                    ],
                                                    "typeTag": 3
                                                }
                                            }
                                        ],
                                        "typeTag": 2
                                    }
                                }
                            ],
                            "typeTag": 4
                        }
                    }
                ]
            }
        ]
    }
}