{
    "balance_change": {
        "balanceChanges": [
            {
                "account": "0xbd96b4dcd4a45d5180b407234bda580645369a0b",
                "assets": [
                    {
                        "address": "0xf411903cbc70a74d22900a5de66a2dda66507255",
                        "amount": "15,820,557",
                        "iconUrl": "",
                        "isERC1155": false,
                        "isERC721": false,
                        "sign": false,
                        "value": "76486.19146"
                    }
                ]
            },
            {
                "account": "0xaf91f2d992f37450695bfdd15f26362c40d71088",
                "assets": [
                    {
                        "address": "0xf411903cbc70a74d22900a5de66a2dda66507255",
                        "amount": "15,820,557",
                        "iconUrl": "",
                        "isERC1155": false,
                        "isERC721": false,
                        "sign": true,
                        "value": "76486.19146"
                    }
                ]
            }
        ]
    },
    "profile": {
        "basic_info": {
            "baseFee": "19.604725249",
            "blockNumber": 19216674,
            "callData": "0x62ad1b83000000000000000000000000bd96b4dcd4a45d5180b407234bda580645369a0b000000000000000000000000af91f2d992f37450695bfdd15f26362c40d710880000000000000000000000000000000000000000000d16221d0c249cbc14000000000000000000000000000000000000000000000000000000000000000000a000000000000000000000000000000000000000000000000000000000000000e00000000000000000000000000000000000000000000000000000000000000020746e7277647764777467776b776168766a6a7661676964786979737361626c7900000000000000000000000000000000000000000000000000000000000000000000000000000000000000000000000000000000000000000000000000000000",
            "debugEnable": true,
            "errorInfo": "",
            "eventCount": 2,
            "feeRecipient": "0x95222290dd7278aa3ddd389cc1e1d165cc4bafe5",
            "formatValue": "0",
            "gasLimit": 60472,
            "gasPrice": "29.604725249",
            "gasUsed": 60472,
            "intTxnCount": 2,
            "internalRevert": false,
            "internalRevertMessage": "",
            "isContractCreation": false,
            "isFlashloan": false,
            "maxFee": "1000",
            "nonce": 4801,
            "overwritedBlockNumber": -1,
            "priorityFee": "10",
            "receiver": "0xf411903cbc70a74d22900a5de66a2dda66507255",
            "revertMessage": "",
            "sender": "0xbd96b4dcd4a45d5180b407234bda580645369a0b",
            "simulationEnable": true,
            "sourceTxnHash": "0x3634946178b42c8150cb210580bb556e0fd3600df3a27cb228dc95e68ec53c08",
            "status": true,
            "timestamp": "2024-02-13T04:21:23Z",
            "transactionFee": "0.001790256945257528",
            "txnHash": "0x3634946178b42c8150cb210580bb556e0fd3600df3a27cb228dc95e68ec53c08",
            "txnIndex": 9,
            "type": 2,
            "value": "0"
        },
        "fund_flow": [
            {
                "amount": "15,820,557",
                "from": "0xbd96b4dcd4a45d5180b407234bda580645369a0b",
                "id": 1,
                "isERC1155": false,
                "isERC721": false,
                "isReverted": false,
                "order": 1,
                "to": "0xaf91f2d992f37450695bfdd15f26362c40d71088",
                "token": "0xf411903cbc70a74d22900a5de66a2dda66507255"
            }
        ],
        "token_infos": [
            {
                "address": "0xc02aaa39b223fe8d0a0e5c4f27ead9083c756cc2",
                "decimals": 18
            },
            {
                "address": "0xf411903cbc70a74d22900a5de66a2dda66507255",
                "decimals": 18
            },
            {
                "address": "0xeeeeeeeeeeeeeeeeeeeeeeeeeeeeeeeeeeeeeeee",
                "decimals": 18
            }
        ]
    },
    "address_label": {
        "labels": [
            {
                "address": "0xeeeeeeeeeeeeeeeeeeeeeeeeeeeeeeeeeeeeeeee",
                "label": "Ether"
            },
            {
                "address": "0x1820a4b7618bde71dce8cdc73aab6c95905fad24",
                "label": "ERC1820Registry"
            },
            {
                "address": "0x0000000000000000000000000000000000000000",
                "label": "Null Address"
            },
            {
                "address": "0xf411903cbc70a74d22900a5de66a2dda66507255",
                "label": "Verasity: VRA Token"
            },
            {
                "address": "0x0000000000000000000000000000000000000001",
                "label": "Precompiled"
            },
            {
                "address": "0x0000000000000000000000000000000000000002",
                "label": "Precompiled"
            },
            {
                "address": "0x0000000000000000000000000000000000000003",
                "label": "Precompiled"
            },
            {
                "address": "0x0000000000000000000000000000000000000004",
                "label": "Precompiled"
            }
        ]
    },
    "trace": {
        "accountLabels": null,
        "dataMap": {
            "-1": {
                "invocation": {
                    "address": "0xbd96b4dcd4a45d5180b407234bda580645369a0b",
                    "callData": "",
                    "decodedMethod": null,
                    "errorInfo": "",
                    "fromAddress": "",
                    "gasUsed": 0,
                    "id": -1,
                    "methodDecoded": false,
                    "operation": "",
                    "output": "",
                    "revert": false,
                    "revertMessage": "",
                    "selector": "",
                    "status": false,
                    "value": ""
                },
                "nodeType": 0
            },
            "0": {
                "invocation": {
                    "address": "0xf411903cbc70a74d22900a5de66a2dda66507255",
                    "callData": "0x000000000000000000000000bd96b4dcd4a45d5180b407234bda580645369a0b000000000000000000000000af91f2d992f37450695bfdd15f26362c40d710880000000000000000000000000000000000000000000d16221d0c249cbc14000000000000000000000000000000000000000000000000000000000000000000a000000000000000000000000000000000000000000000000000000000000000e00000000000000000000000000000000000000000000000000000000000000020746e7277647764777467776b776168766a6a7661676964786979737361626c7900000000000000000000000000000000000000000000000000000000000000000000000000000000000000000000000000000000000000000000000000000000",
                    "decodedMethod": {
                        "callParams": [
                            {
                                "name": "sender",
                                "type": "address",
                                "value": "0xbd96b4dcd4a45d5180b407234bda580645369a0b"
                            },
                            {
                                "name": "recipient",
                                "type": "address",
                                "value": "0xaf91f2d992f37450695bfdd15f26362c40d71088"
                            },
                            {
                                "name": "amount",
                                "type": "uint256",
                                "value": "15,820,557,000,000,000,000,000,000"
                            },
                            {
                                "name": "data",
                                "type": "bytes",
                                "value": "0x746e7277647764777467776b776168766a6a7661676964786979737361626c79"
                            },
                            {
                                "name": "operatorData",
                                "type": "bytes",
                                "value": "0x"
                            }
                        ],
                        "constructorArguments": "",
                        "name": "operatorSend",
                        "returnParams": [],
                        "signature": "operatorSend(address,address,uint256,bytes,bytes)"
                    },
                    "errorInfo": "",
                    "fromAddress": "0xbd96b4dcd4a45d5180b407234bda580645369a0b",
                    "gasUsed": 60472,
                    "id": 0,
                    "methodDecoded": true,
                    "operation": "CALL",
                    "output": "",
                    "revert": false,
                    "revertMessage": "",
                    "selector": "0x62ad1b83",
                    "status": true,
                    "value": "0"
                },
                "nodeType": 0
            },
            "1": {
                "invocation": {
                    "address": "0x1820a4b7618bde71dce8cdc73aab6c95905fad24",
                    "callData": "0x000000000000000000000000bd96b4dcd4a45d5180b407234bda580645369a0b29ddb589b1fb5fc7cf394961c1adf5f8c6454761adf795e67fe149f658abe895",
                    "decodedMethod": {
                        "callParams": [
                            {
                                "name": "_addr",
                                "type": "address",
                                "value": "0xbd96b4dcd4a45d5180b407234bda580645369a0b"
                            },
                            {
                                "name": "_interfaceHash",
                                "type": "bytes32",
                                "value": "0x29ddb589b1fb5fc7cf394961c1adf5f8c6454761adf795e67fe149f658abe895"
                            }
                        ],
                        "constructorArguments": "",
                        "name": "getInterfaceImplementer",
                        "returnParams": [
                            {
                                "name": "",
                                "type": "address",
                                "value": "0x0000000000000000000000000000000000000000"
                            }
                        ],
                        "signature": "getInterfaceImplementer(address,bytes32)"
                    },
                    "errorInfo": "",
                    "fromAddress": "0xf411903cbc70a74d22900a5de66a2dda66507255",
                    "gasUsed": 2942,
                    "id": 1,
                    "methodDecoded": true,
                    "operation": "STATICCALL",
                    "output": "0x0000000000000000000000000000000000000000000000000000000000000000",
                    "revert": false,
                    "revertMessage": "",
                    "selector": "0xaabbb8ca",
                    "status": true,
                    "value": "0"
                },
                "nodeType": 0
            },
            "2": {
                "event": {
                    "contract": "0xf411903cbc70a74d22900a5de66a2dda66507255",
                    "decodedLog": {
                        "name": "Sent",
                        "params": [
                            {
                                "name": "operator",
                                "type": "address",
                                "value": "0xbd96b4dcd4a45d5180b407234bda580645369a0b"
                            },
                            {
                                "name": "from",
                                "type": "address",
                                "value": "0xbd96b4dcd4a45d5180b407234bda580645369a0b"
                            },
                            {
                                "name": "to",
                                "type": "address",
                                "value": "0xaf91f2d992f37450695bfdd15f26362c40d71088"
                            },
                            {
                                "name": "amount",
                                "type": "uint256",
                                "value": "15,820,557,000,000,000,000,000,000"
                            },
                            {
                                "name": "data",
                                "type": "bytes",
                                "value": "0x746e7277647764777467776b776168766a6a7661676964786979737361626c79"
                            },
                            {
                                "name": "operatorData",
                                "type": "bytes",
                                "value": "0x"
                            }
                        ],
                        "signature": "Sent(address,address,address,uint256,bytes,bytes)"
                    },
                    "id": 2,
                    "logData": "0x0000000000000000000000000000000000000000000d16221d0c249cbc140000000000000000000000000000000000000000000000000000000000000000006000000000000000000000000000000000000000000000000000000000000000a00000000000000000000000000000000000000000000000000000000000000020746e7277647764777467776b776168766a6a7661676964786979737361626c790000000000000000000000000000000000000000000000000000000000000000",
                    "logDecoded": true,
                    "operation": "EVENT",
                    "revert": false,
                    "status": true,
                    "topics": [
                        "0x06b541ddaa720db2b10a4d0cdac39b8d360425fc073085fac19bc82614677987",
                        "0x000000000000000000000000bd96b4dcd4a45d5180b407234bda580645369a0b",
                        "0x000000000000000000000000bd96b4dcd4a45d5180b407234bda580645369a0b",
                        "0x000000000000000000000000af91f2d992f37450695bfdd15f26362c40d71088"
                    ]
                },
                "nodeType": 1
            },
            "3": {
                "event": {
                    "contract": "0xf411903cbc70a74d22900a5de66a2dda66507255",
                    "decodedLog": {
                        "name": "Transfer",
                        "params": [
                            {
                                "name": "from",
                                "type": "address",
                                "value": "0xbd96b4dcd4a45d5180b407234bda580645369a0b"
                            },
                            {
                                "name": "to",
                                "type": "address",
                                "value": "0xaf91f2d992f37450695bfdd15f26362c40d71088"
                            },
                            {
                                "decimalAvailable": true,
                                "name": "value",
                                "type": "uint256",
                                "value": "15,820,557,000,000,000,000,000,000"
                            }
                        ],
                        "signature": "Transfer(address,address,uint256)"
                    },
                    "id": 3,
                    "logData": "0x0000000000000000000000000000000000000000000d16221d0c249cbc140000",
                    "logDecoded": true,
                    "operation": "EVENT",
                    "revert": false,
                    "status": true,
                    "topics": [
                        "0xddf252ad1be2c89b69c2b068fc378daa952ba7f163c4a11628f55a4df523b3ef",
                        "0x000000000000000000000000bd96b4dcd4a45d5180b407234bda580645369a0b",
                        "0x000000000000000000000000af91f2d992f37450695bfdd15f26362c40d71088"
                    ]
                },
                "nodeType": 1
            },
            "4": {
                "invocation": {
                    "address": "0x1820a4b7618bde71dce8cdc73aab6c95905fad24",
                    "callData": "0x000000000000000000000000af91f2d992f37450695bfdd15f26362c40d71088b281fc8c12954d22544db45de3159a39272895b169a852b314f9cc762e44c53b",
                    "decodedMethod": {
                        "callParams": [
                            {
                                "name": "_addr",
                                "type": "address",
                                "value": "0xaf91f2d992f37450695bfdd15f26362c40d71088"
                            },
                            {
                                "name": "_interfaceHash",
                                "type": "bytes32",
                                "value": "0xb281fc8c12954d22544db45de3159a39272895b169a852b314f9cc762e44c53b"
                            }
                        ],
                        "constructorArguments": "",
                        "name": "getInterfaceImplementer",
                        "returnParams": [
                            {
                                "name": "",
                                "type": "address",
                                "value": "0x0000000000000000000000000000000000000000"
                            }
                        ],
                        "signature": "getInterfaceImplementer(address,bytes32)"
                    },
                    "errorInfo": "",
                    "fromAddress": "0xf411903cbc70a74d22900a5de66a2dda66507255",
                    "gasUsed": 2942,
                    "id": 4,
                    "methodDecoded": true,
                    "operation": "STATICCALL",
                    "output": "0x0000000000000000000000000000000000000000000000000000000000000000",
                    "revert": false,
                    "revertMessage": "",
                    "selector": "0xaabbb8ca",
                    "status": true,
                    "value": "0"
                },
                "nodeType": 0
            }
        },
        "gasFlame": [
            {
                "children": [
                    {
                        "children": [
                            {
                                "children": [],
                                "depth": 0,
                                "name": "Initial Gas",
                                "value": 23224
                            },
                            {
                                "children": [
                                    {
                                        "children": [],
                                        "depth": 1,
                                        "name": "getInterfaceImplementer",
                                        "value": 2942
                                    },
                                    {
                                        "children": [],
                                        "depth": 1,
                                        "name": "getInterfaceImplementer",
                                        "value": 2942
                                    }
                                ],
                                "depth": 0,
                                "name": "Executed Gas",
                                "value": 37248
                            }
                        ],
                        "depth": -1,
                        "name": "Actual Gas Used",
                        "value": 60472
                    },
                    {
                        "children": [],
                        "depth": -1,
                        "name": "Refunded Gas",
                        "value": 0
                    }
                ],
                "depth": -2,
                "name": "Total Gas",
                "value": 60472
            }
        ],
        "isConfirmed": true,
        "mainTrace": [
            {
                "children": [
                    {
                        "children": [
                            {
                                "children": [],
                                "depth": 1,
                                "id": 1,
                                "order": 1
                            },
                            {
                                "children": [],
                                "depth": 1,
                                "id": 2,
                                "order": 2
                            },
                            {
                                "children": [],
                                "depth": 1,
                                "id": 3,
                                "order": 3
                            },
                            {
                                "children": [],
                                "depth": 1,
                                "id": 4,
                                "order": 4
                            }
                        ],
                        "depth": 0,
                        "id": 0,
                        "order": 0
                    }
                ],
                "depth": -1,
                "id": -1,
                "order": -1
            }
        ],
        "mainTraceNodeCount": 5,
        "parentIdMap": {
            "0": -1,
            "1": 0,
            "2": 0,
            "3": 0,
            "4": 0
        },
        "tidyTrace": [
            {
                "children": [
                    {
                        "children": [
                            {
                                "children": [],
                                "depth": 1,
                                "id": 2,
                                "order": 2
                            },
                            {
                                "children": [],
                                "depth": 1,
                                "id": 3,
                                "order": 3
                            }
                        ],
                        "depth": 0,
                        "id": 0,
                        "order": 0
                    }
                ],
                "depth": -1,
                "id": -1,
                "order": -1
            }
        ],
        "tidyTraceNodeCount": 3
    },
    "state_change": {
        "stateChanges": [
            {
                "address": "0xf411903cbc70a74d22900a5de66a2dda66507255",
                "erc": "ERC-20",
                "slots": [
                    {
                        "current": "0x0000000000000000000000000000000000000000004fb2cfbb8a7dd7e5e7a326",
                        "key": "0x4b7a99536838a7e4bf43dd05ded4b6a9ac28f6fedf97fa2e42c17f5fb7f3d655",
                        "prev": "0x000000000000000000000000000000000000000000429cad9e7e593b29d3a326"
                    },
                    {
                        "current": "0x0000000000000000000000000000000000000000000268777e10e0b77e780000",
                        "key": "0xf64fc75d46b04d9b2196d7602a26c204ca723cbd6fbb237d00c9cf2445c3fcdb",
                        "prev": "0x0000000000000000000000000000000000000000000f7e999b1d05543a8c0000"
                    }
                ],
                "storageVariables": [
                    {
                        "name": "_balances",
                        "type": "mapping(address => uint256)",
                        "value": {
                            "pairs": [
                                {
                                    "key": "0xaf91f2d992f37450695bfdd15f26362c40d71088",
                                    "value": {
                                        "current": "96349552973281757634208550",
                                        "prev": "80528995973281757634208550",
                                        "typeTag": 1
                                    }
                                },
                                {
                                    "key": "0xbd96b4dcd4a45d5180b407234bda580645369a0b",
                                    "value": {
                                        "current": "2911182000000000000000000",
                                        "prev": "18731739000000000000000000",
                                        "typeTag": 1
                                    }
                                }
                            ],
                            "typeTag": 4
                        }
                    }
                ]
            }
        ]
    }
}