{
    "balance_change": {
        "balanceChanges": [
            {
                "account": "0x1bcdf5be57297a12d12dada697972e0dd20c26ce",
                "assets": [
                    {
                        "address": "0xeeeeeeeeeeeeeeeeeeeeeeeeeeeeeeeeeeeeeeee",
                        "amount": "0.750370089",
                        "iconUrl": "https://assets.blocksec.com/image/1663669189317-3.png",
                        "isERC1155": false,
                        "isERC721": false,
                        "sign": false,
                        "value": "1223.2983412931399931"
                    }
                ]
            },
            {
                "account": "0x32400084c286cf3e17e7b677ea9583e60a000324",
                "assets": [
                    {
                        "address": "0xeeeeeeeeeeeeeeeeeeeeeeeeeeeeeeeeeeeeeeee",
                        "amount": "0.750370089",
                        "iconUrl": "https://assets.blocksec.com/image/1663669189317-3.png",
                        "isERC1155": false,
                        "isERC721": false,
                        "sign": true,
                        "value": "1223.2983412931399931"
                    }
                ]
            }
        ]
    },
    "profile": {
        "basic_info": {
            "baseFee": "8.498138017",
            "blockNumber": 18153063,
            "callData": "0xeb6724190000000000000000000000001bcdf5be57297a12d12dada697972e0dd20c26ce0000000000000000000000000000000000000000000000000a688906bd8b000000000000000000000000000000000000000000000000000000000000000000e000000000000000000000000000000000000000000000000000000000000b4b52000000000000000000000000000000000000000000000000000000000000032000000000000000000000000000000000000000000000000000000000000001000000000000000000000000001bcdf5be57297a12d12dada697972e0dd20c26ce00000000000000000000000000000000000000000000000000000000000000000000000000000000000000000000000000000000000000000000000000000000",
            "debugEnable": true,
            "errorInfo": "",
            "eventCount": 1,
            "feeRecipient": "0x1f9090aae28b8a3dceadf281b0f12828e676c326",
            "formatValue": "0.750370089",
            "gasLimit": 149293,
            "gasPrice": "9.998138017",
            "gasUsed": 118134,
            "intTxnCount": 3,
            "internalRevert": false,
            "internalRevertMessage": "",
            "isContractCreation": false,
            "isFlashloan": false,
            "maxFee": "13.681179349",
            "nonce": 0,
            "overwritedBlockNumber": -1,
            "priorityFee": "1.5",
            "receiver": "0x32400084c286cf3e17e7b677ea9583e60a000324",
            "revertMessage": "",
            "sender": "0x1bcdf5be57297a12d12dada697972e0dd20c26ce",
            "simulationEnable": true,
            "sourceTxnHash": "0x36cfe0df54f9403673785bd041be99b57e7229e175e75fd453b94fa970955f42",
            "status": true,
            "timestamp": "2023-09-17T03:18:47Z",
            "transactionFee": "0.001181120036500278",
            "txnHash": "0x36cfe0df54f9403673785bd041be99b57e7229e175e75fd453b94fa970955f42",
            "txnIndex": 33,
            "type": 2,
            "value": "750370089000000000"
        },
        "fund_flow": [
            {
                "amount": "0.750370089",
                "from": "0x1bcdf5be57297a12d12dada697972e0dd20c26ce",
                "id": 1,
                "isERC1155": false,
                "isERC721": false,
                "isReverted": false,
                "order": 1,
                "to": "0x32400084c286cf3e17e7b677ea9583e60a000324",
                "token": "0xeeeeeeeeeeeeeeeeeeeeeeeeeeeeeeeeeeeeeeee"
            }
        ],
        "token_infos": [
            {
                "address": "0xc02aaa39b223fe8d0a0e5c4f27ead9083c756cc2",
                "decimals": 18
            },
            {
                "address": "0xeeeeeeeeeeeeeeeeeeeeeeeeeeeeeeeeeeeeeeee",
                "decimals": 18
            }
        ]
    },
    "address_label": {
        "labels": [
            {
                "address": "0x0000000000000000000000000000000000000003",
                "label": "Precompiled"
            },
            {
                "address": "0xeeeeeeeeeeeeeeeeeeeeeeeeeeeeeeeeeeeeeeee",
                "label": "Ether"
            },
            {
                "address": "0x32400084c286cf3e17e7b677ea9583e60a000324",
                "label": "zkSync Era: Diamond Proxy"
            },
            {
                "address": "0x8ffd57a9b2dcc10327768b601468fa192adc5c86",
                "label": "AllowList"
            },
            {
                "address": "0x0000000000000000000000000000000000000002",
                "label": "Precompiled"
            },
            {
                "address": "0x0000000000000000000000000000000000000004",
                "label": "Precompiled"
            },
            {
                "address": "0x0000000000000000000000000000000000000000",
                "label": "Null Address"
            },
            {
                "address": "0x62aa95ac4740a367746a664c4c69034d52e968ef",
                "label": "MailboxFacet"
            },
            {
                "address": "0x0000000000000000000000000000000000000001",
                "label": "Precompiled"
            }
        ]
    },
    "trace": {
        "accountLabels": null,
        "dataMap": {
            "-1": {
                "invocation": {
                    "address": "0x1bcdf5be57297a12d12dada697972e0dd20c26ce",
                    "callData": "",
                    "decodedMethod": null,
                    "errorInfo": "",
                    "fromAddress": "",
                    "gasUsed": 0,
                    "id": -1,
                    "methodDecoded": false,
                    "operation": "",
                    "output": "",
                    "revert": false,
                    "revertMessage": "",
                    "selector": "",
                    "status": false,
                    "value": ""
                },
                "nodeType": 0
            },
            "0": {
                "invocation": {
                    "address": "0x32400084c286cf3e17e7b677ea9583e60a000324",
                    "callData": "0x0000000000000000000000001bcdf5be57297a12d12dada697972e0dd20c26ce0000000000000000000000000000000000000000000000000a688906bd8b000000000000000000000000000000000000000000000000000000000000000000e000000000000000000000000000000000000000000000000000000000000b4b52000000000000000000000000000000000000000000000000000000000000032000000000000000000000000000000000000000000000000000000000000001000000000000000000000000001bcdf5be57297a12d12dada697972e0dd20c26ce00000000000000000000000000000000000000000000000000000000000000000000000000000000000000000000000000000000000000000000000000000000",
                    "decodedMethod": {
                        "callParams": [
                            {
                                "name": "_contractL2",
                                "type": "address",
                                "value": "0x1bcdf5be57297a12d12dada697972e0dd20c26ce"
                            },
                            {
                                "name": "_l2Value",
                                "type": "uint256",
                                "value": "750,000,000,000,000,000"
                            },
                            {
                                "name": "_calldata",
                                "type": "bytes",
                                "value": "0x"
                            },
                            {
                                "name": "_l2GasLimit",
                                "type": "uint256",
                                "value": "740,178"
                            },
                            {
                                "name": "_l2GasPerPubdataByteLimit",
                                "type": "uint256",
                                "value": "800"
                            },
                            {
                                "name": "_factoryDeps",
                                "type": "bytes[]",
                                "value": []
                            },
                            {
                                "name": "_refundRecipient",
                                "type": "address",
                                "value": "0x1bcdf5be57297a12d12dada697972e0dd20c26ce"
                            }
                        ],
                        "constructorArguments": "",
                        "name": "requestL2Transaction",
                        "returnParams": [
                            {
                                "name": "canonicalTxHash",
                                "type": "bytes32",
                                "value": "0x2cf43ceeb9fd63bdb077ab510a4b917a286f89177adb4cb12d5c6d976e9d96bf"
                            }
                        ],
                        "signature": "requestL2Transaction(address,uint256,bytes,uint256,uint256,bytes[],address)"
                    },
                    "errorInfo": "",
                    "fromAddress": "0x1bcdf5be57297a12d12dada697972e0dd20c26ce",
                    "gasUsed": 118134,
                    "id": 0,
                    "methodDecoded": true,
                    "operation": "CALL",
                    "output": "0x2cf43ceeb9fd63bdb077ab510a4b917a286f89177adb4cb12d5c6d976e9d96bf",
                    "revert": false,
                    "revertMessage": "",
                    "selector": "0xeb672419",
                    "status": true,
                    "value": "0.750370089"
                },
                "nodeType": 0
            },
            "1": {
                "invocation": {
                    "address": "0x62aa95ac4740a367746a664c4c69034d52e968ef",
                    "callData": "0x0000000000000000000000001bcdf5be57297a12d12dada697972e0dd20c26ce0000000000000000000000000000000000000000000000000a688906bd8b000000000000000000000000000000000000000000000000000000000000000000e000000000000000000000000000000000000000000000000000000000000b4b52000000000000000000000000000000000000000000000000000000000000032000000000000000000000000000000000000000000000000000000000000001000000000000000000000000001bcdf5be57297a12d12dada697972e0dd20c26ce00000000000000000000000000000000000000000000000000000000000000000000000000000000000000000000000000000000000000000000000000000000",
                    "decodedMethod": {
                        "callParams": [
                            {
                                "name": "_contractL2",
                                "type": "address",
                                "value": "0x1bcdf5be57297a12d12dada697972e0dd20c26ce"
                            },
                            {
                                "name": "_l2Value",
                                "type": "uint256",
                                "value": "750,000,000,000,000,000"
                            },
                            {
                                "name": "_calldata",
                                "type": "bytes",
                                "value": "0x"
                            },
                            {
                                "name": "_l2GasLimit",
                                "type": "uint256",
                                "value": "740,178"
                            },
                            {
                                "name": "_l2GasPerPubdataByteLimit",
                                "type": "uint256",
                                "value": "800"
                            },
                            {
                                "name": "_factoryDeps",
                                "type": "bytes[]",
                                "value": []
                            },
                            {
                                "name": "_refundRecipient",
                                "type": "address",
                                "value": "0x1bcdf5be57297a12d12dada697972e0dd20c26ce"
                            }
                        ],
                        "constructorArguments": "",
                        "name": "requestL2Transaction",
                        "returnParams": [
                            {
                                "name": "canonicalTxHash",
                                "type": "bytes32",
                                "value": "0x2cf43ceeb9fd63bdb077ab510a4b917a286f89177adb4cb12d5c6d976e9d96bf"
                            }
                        ],
                        "signature": "requestL2Transaction(address,uint256,bytes,uint256,uint256,bytes[],address)"
                    },
                    "errorInfo": "",
                    "fromAddress": "0x32400084c286cf3e17e7b677ea9583e60a000324",
                    "gasUsed": 90720,
                    "id": 1,
                    "methodDecoded": true,
                    "operation": "DELEGATECALL",
                    "output": "0x2cf43ceeb9fd63bdb077ab510a4b917a286f89177adb4cb12d5c6d976e9d96bf",
                    "revert": false,
                    "revertMessage": "",
                    "selector": "0xeb672419",
                    "status": true,
                    "value": "0.750370089"
                },
                "nodeType": 0
            },
            "2": {
                "invocation": {
                    "address": "0x8ffd57a9b2dcc10327768b601468fa192adc5c86",
                    "callData": "0x0000000000000000000000001bcdf5be57297a12d12dada697972e0dd20c26ce00000000000000000000000032400084c286cf3e17e7b677ea9583e60a000324eb67241900000000000000000000000000000000000000000000000000000000",
                    "decodedMethod": {
                        "callParams": [
                            {
                                "name": "_caller",
                                "type": "address",
                                "value": "0x1bcdf5be57297a12d12dada697972e0dd20c26ce"
                            },
                            {
                                "name": "_target",
                                "type": "address",
                                "value": "0x32400084c286cf3e17e7b677ea9583e60a000324"
                            },
                            {
                                "name": "_functionSig",
                                "type": "bytes4",
                                "value": "0xeb672419"
                            }
                        ],
                        "constructorArguments": "",
                        "name": "canCall",
                        "returnParams": [
                            {
                                "name": "",
                                "type": "bool",
                                "value": true
                            }
                        ],
                        "signature": "canCall(address,address,bytes4)"
                    },
                    "errorInfo": "",
                    "fromAddress": "0x32400084c286cf3e17e7b677ea9583e60a000324",
                    "gasUsed": 2907,
                    "id": 2,
                    "methodDecoded": true,
                    "operation": "STATICCALL",
                    "output": "0x0000000000000000000000000000000000000000000000000000000000000001",
                    "revert": false,
                    "revertMessage": "",
                    "selector": "0xb7009613",
                    "status": true,
                    "value": "0"
                },
                "nodeType": 0
            },
            "3": {
                "invocation": {
                    "address": "0x8ffd57a9b2dcc10327768b601468fa192adc5c86",
                    "callData": "0x0000000000000000000000000000000000000000000000000000000000000000",
                    "decodedMethod": {
                        "callParams": [
                            {
                                "name": "_l1Token",
                                "type": "address",
                                "value": "0x0000000000000000000000000000000000000000"
                            }
                        ],
                        "constructorArguments": "",
                        "name": "getTokenDepositLimitData",
                        "returnParams": [
                            {
                                "name": "",
                                "type": "(bool,uint256)",
                                "value": [
                                    {
                                        "name": "depositLimitation",
                                        "type": "bool",
                                        "value": false
                                    },
                                    {
                                        "name": "depositCap",
                                        "type": "uint256",
                                        "value": "0"
                                    }
                                ]
                            }
                        ],
                        "signature": "getTokenDepositLimitData(address)"
                    },
                    "errorInfo": "",
                    "fromAddress": "0x32400084c286cf3e17e7b677ea9583e60a000324",
                    "gasUsed": 4848,
                    "id": 3,
                    "methodDecoded": true,
                    "operation": "STATICCALL",
                    "output": "0x00000000000000000000000000000000000000000000000000000000000000000000000000000000000000000000000000000000000000000000000000000000",
                    "revert": false,
                    "revertMessage": "",
                    "selector": "0x7cf14701",
                    "status": true,
                    "value": "0"
                },
                "nodeType": 0
            },
            "4": {
                "event": {
                    "contract": "0x32400084c286cf3e17e7b677ea9583e60a000324",
                    "decodedLog": {
                        "name": "NewPriorityRequest",
                        "params": [
                            {
                                "name": "txId",
                                "type": "uint256",
                                "value": "2,223,496"
                            },
                            {
                                "name": "txHash",
                                "type": "bytes32",
                                "value": "0x2cf43ceeb9fd63bdb077ab510a4b917a286f89177adb4cb12d5c6d976e9d96bf"
                            },
                            {
                                "name": "expirationTimestamp",
                                "type": "uint64",
                                "value": "1,694,920,727"
                            },
                            {
                                "name": "transaction",
                                "type": "(uint256,uint256,uint256,uint256,uint256,uint256,uint256,uint256,uint256,uint256,uint256[4],bytes,bytes,uint256[],bytes,bytes)",
                                "value": [
                                    {
                                        "name": "txType",
                                        "type": "uint256",
                                        "value": "255"
                                    },
                                    {
                                        "name": "from",
                                        "type": "uint256",
                                        "value": "158,735,810,857,503,636,886,349,956,235,970,764,637,433,767,630"
                                    },
                                    {
                                        "name": "to",
                                        "type": "uint256",
                                        "value": "158,735,810,857,503,636,886,349,956,235,970,764,637,433,767,630"
                                    },
                                    {
                                        "name": "gasLimit",
                                        "type": "uint256",
                                        "value": "740,178"
                                    },
                                    {
                                        "name": "gasPerPubdataByteLimit",
                                        "type": "uint256",
                                        "value": "800"
                                    },
                                    {
                                        "name": "maxFeePerGas",
                                        "type": "uint256",
                                        "value": "500,000,000"
                                    },
                                    {
                                        "name": "maxPriorityFeePerGas",
                                        "type": "uint256",
                                        "value": "0"
                                    },
                                    {
                                        "name": "paymaster",
                                        "type": "uint256",
                                        "value": "0"
                                    },
                                    {
                                        "name": "nonce",
                                        "type": "uint256",
                                        "value": "2,223,496"
                                    },
                                    {
                                        "name": "value",
                                        "type": "uint256",
                                        "value": "750,000,000,000,000,000"
                                    },
                                    {
                                        "name": "reserved",
                                        "type": "uint256[4]",
                                        "value": [
                                            "750,370,089,000,000,000",
                                            "158,735,810,857,503,636,886,349,956,235,970,764,637,433,767,630",
                                            "0",
                                            "0"
                                        ]
                                    },
                                    {
                                        "name": "data",
                                        "type": "bytes",
                                        "value": "0x"
                                    },
                                    {
                                        "name": "signature",
                                        "type": "bytes",
                                        "value": "0x"
                                    },
                                    {
                                        "name": "factoryDeps",
                                        "type": "uint256[]",
                                        "value": []
                                    },
                                    {
                                        "name": "paymasterInput",
                                        "type": "bytes",
                                        "value": "0x"
                                    },
                                    {
                                        "name": "reservedDynamic",
                                        "type": "bytes",
                                        "value": "0x"
                                    }
                                ]
                            },
                            {
                                "name": "factoryDeps",
                                "type": "bytes[]",
                                "value": []
                            }
                        ],
                        "signature": "NewPriorityRequest(uint256,bytes32,uint64,(uint256,uint256,uint256,uint256,uint256,uint256,uint256,uint256,uint256,uint256,uint256[4],bytes,bytes,uint256[],bytes,bytes),bytes[])"
                    },
                    "id": 4,
                    "logData": "0x000000000000000000000000000000000000000000000000000000000021ed882cf43ceeb9fd63bdb077ab510a4b917a286f89177adb4cb12d5c6d976e9d96bf000000000000000000000000000000000000000000000000000000006506701700000000000000000000000000000000000000000000000000000000000000a000000000000000000000000000000000000000000000000000000000000003a000000000000000000000000000000000000000000000000000000000000000ff0000000000000000000000001bcdf5be57297a12d12dada697972e0dd20c26ce0000000000000000000000001bcdf5be57297a12d12dada697972e0dd20c26ce00000000000000000000000000000000000000000000000000000000000b4b520000000000000000000000000000000000000000000000000000000000000320000000000000000000000000000000000000000000000000000000001dcd650000000000000000000000000000000000000000000000000000000000000000000000000000000000000000000000000000000000000000000000000000000000000000000000000000000000000000000000000000000000000000000021ed880000000000000000000000000000000000000000000000000a688906bd8b00000000000000000000000000000000000000000000000000000a69d99eccec5a000000000000000000000000001bcdf5be57297a12d12dada697972e0dd20c26ce000000000000000000000000000000000000000000000000000000000000000000000000000000000000000000000000000000000000000000000000000000000000000000000000000000000000000000000000000000000000000000000260000000000000000000000000000000000000000000000000000000000000028000000000000000000000000000000000000000000000000000000000000002a000000000000000000000000000000000000000000000000000000000000002c000000000000000000000000000000000000000000000000000000000000002e0000000000000000000000000000000000000000000000000000000000000000000000000000000000000000000000000000000000000000000000000000000000000000000000000000000000000000000000000000000000000000000000000000000000000000000000000000000000000000000000000000000000000000000000000000000000000000000000000000000000000000000000000000000000000000000000000000000000000000000000000000000000000000000000000",
                    "logDecoded": true,
                    "operation": "EVENT",
                    "revert": false,
                    "status": true,
                    "topics": [
                        "0x4531cd5795773d7101c17bdeb9f5ab7f47d7056017506f937083be5d6e77a382"
                    ]
                },
                "nodeType": 1
            }
        },
        "gasFlame": [
            {
                "children": [
                    {
                        "children": [
                            {
                                "children": [],
                                "depth": 0,
                                "name": "Initial Gas",
                                "value": 22852
                            },
                            {
                                "children": [
                                    {
                                        "children": [
                                            {
                                                "children": [],
                                                "depth": 2,
                                                "name": "canCall",
                                                "value": 2907
                                            },
                                            {
                                                "children": [],
                                                "depth": 2,
                                                "name": "getTokenDepositLimitData",
                                                "value": 4848
                                            }
                                        ],
                                        "depth": 1,
                                        "name": "requestL2Transaction",
                                        "value": 90720
                                    }
                                ],
                                "depth": 0,
                                "name": "Executed Gas",
                                "value": 98082
                            }
                        ],
                        "depth": -1,
                        "name": "Actual Gas Used",
                        "value": 118134
                    },
                    {
                        "children": [],
                        "depth": -1,
                        "name": "Refunded Gas",
                        "value": 2800
                    }
                ],
                "depth": -2,
                "name": "Total Gas",
                "value": 120934
            }
        ],
        "isConfirmed": true,
        "mainTrace": [
            {
                "children": [
                    {
                        "children": [
                            {
                                "children": [
                                    {
                                        "children": [],
                                        "depth": 2,
                                        "id": 2,
                                        "order": 2
                                    },
                                    {
                                        "children": [],
                                        "depth": 2,
                                        "id": 3,
                                        "order": 3
                                    },
                                    {
                                        "children": [],
                                        "depth": 2,
                                        "id": 4,
                                        "order": 4
                                    }
                                ],
                                "depth": 1,
                                "id": 1,
                                "order": 1
                            }
                        ],
                        "depth": 0,
                        "id": 0,
                        "order": 0
                    }
                ],
                "depth": -1,
                "id": -1,
                "order": -1
            }
        ],
        "mainTraceNodeCount": 5,
        "parentIdMap": {
            "0": -1,
            "1": 0,
            "2": 1,
            "3": 1,
            "4": 1
        },
        "tidyTrace": [
            {
                "children": [
                    {
                        "children": [
                            {
                                "children": [
                                    {
                                        "children": [],
                                        "depth": 2,
                                        "id": 4,
                                        "order": 4
                                    }
                                ],
                                "depth": 1,
                                "id": 1,
                                "order": 1
                            }
                        ],
                        "depth": 0,
                        "id": 0,
                        "order": 0
                    }
                ],
                "depth": -1,
                "id": -1,
                "order": -1
            }
        ],
        "tidyTraceNodeCount": 3
    },
    "state_change": {
        "stateChanges": [
            {
                "address": "0x32400084c286cf3e17e7b677ea9583e60a000324",
                "erc": "",
                "slots": [
                    {
                        "current": "0x0000000000000000000000000000000000000000000000000000000065067017",
                        "key": "0xf478e9d019e686f36f458fb1a9a5fb77f36ca94256fa9b79d06bfd6bd9d408f3",
                        "prev": "0x0000000000000000000000000000000000000000000000000000000000000000"
                    },
                    {
                        "current": "0x000000000000000000000000000000000000000000000000000000000021ed89",
                        "key": "0x0000000000000000000000000000000000000000000000000000000000000011",
                        "prev": "0x000000000000000000000000000000000000000000000000000000000021ed88"
                    },
                    {
                        "current": "0x2cf43ceeb9fd63bdb077ab510a4b917a286f89177adb4cb12d5c6d976e9d96bf",
                        "key": "0xf478e9d019e686f36f458fb1a9a5fb77f36ca94256fa9b79d06bfd6bd9d408f2",
                        "prev": "0x0000000000000000000000000000000000000000000000000000000000000000"
                    }
                ],
                "storageVariables": [
                    {
                        "name": "s",
                        "type": "struct AppStorage",
                        "value": {
                            "fields": [
                                {
                                    "name": "priorityQueue",
                                    "type": "struct PriorityQueue.Queue",
                                    "value": {
                                        "fields": [
                                            {
                                                "name": "data",
                                                "type": "mapping(uint256 => struct PriorityOperation)",
                                                "value": {
                                                    "pairs": [
                                                        {
                                                            "key": "2223496",
                                                            "value": {
                                                                "fields": [
                                                                    {
                                                                        "name": "canonicalTxHash",
                                                                        "type": "bytes32",
                                                                        "value": {
                                                                            "current": "0x2cf43ceeb9fd63bdb077ab510a4b917a286f89177adb4cb12d5c6d976e9d96bf",
                                                                            "prev": "0x0000000000000000000000000000000000000000000000000000000000000000",
                                                                            "typeTag": 1
                                                                        }
                                                                    },
                                                                    {
                                                                        "name": "expirationTimestamp",
                                                                        "type": "uint64",
                                                                        "value": {
                                                                            "current": "1694920727",
                                                                            "prev": "0",
                                                                            "typeTag": 1
                                                                        }
                                                                    },
                                                                    {
                                                                        "name": "layer2Tip",
                                                                        "type": "uint192",
                                                                        "value": {
                                                                            "current": "0",
                                                                            "prev": "0",
                                                                            "typeTag": 1
                                                                        }
                                                                    }
                                                                ],
                                                                "typeTag": 3
                                                            }
                                                        }
                                                    ],
                                                    "typeTag": 4
                                                }
                                            },
                                            {
                                                "name": "tail",
                                                "type": "uint256",
                                                "value": {
                                                    "current": "2223497",
                                                    "prev": "2223496",
                                                    "typeTag": 1
                                                }
                                            }
                                        ],
                                        "typeTag": 3
                                    }
                                }
                            ],
                            "typeTag": 3
                        }
                    }
                ]
            }
        ]
    }
}