{
    "balance_change": {
        "balanceChanges": []
    },
    "profile": {
        "basic_info": {
            "baseFee": "",
            "blockNumber": 12117792,
            "callData": "0x4ab0d190381f5960d07b0c4ed621ffdd1f872b160ac4cddf2b546080743b148ab631858d0000000000000000000000000000000000000000000000000a688906bd8b0000000000000000000000000000f79d6afbb6da890132f9d7c355e3015f15f3406f6a9705b40000000000000000000000000000000000000000000000000000000000000000000000000000000000000000000000000000000000000000605e76a10000000000000000000000000000000000000000000000000000002796feb740",
            "debugEnable": true,
            "errorInfo": "",
            "eventCount": 3,
            "feeRecipient": "0x5a0b54d5dc17e0aadc383d2db43b0a0d3e029c4c",
            "formatValue": "0",
            "gasLimit": 500000,
            "gasPrice": "150",
            "gasUsed": 86215,
            "intTxnCount": 1,
            "internalRevert": false,
            "internalRevertMessage": "",
            "isContractCreation": false,
            "isFlashloan": false,
            "maxFee": "",
            "nonce": 284695,
            "overwritedBlockNumber": -1,
            "priorityFee": "",
            "receiver": "0xf3b450002c7bc300ea03c9463d8e8ba7f821b7c6",
            "revertMessage": "",
            "sender": "0x9ab2a7af33d50738caf23e9283e584d954dfb287",
            "simulationEnable": true,
            "sourceTxnHash": "0x3606eff4709f343d98015aaaa7c918c67a7b38c0aff20bc41c708de8ea955ed1",
            "status": true,
            "timestamp": "2021-03-27T00:01:26Z",
            "transactionFee": "0.01293225",
            "txnHash": "0x3606eff4709f343d98015aaaa7c918c67a7b38c0aff20bc41c708de8ea955ed1",
            "txnIndex": 140,
            "type": 0,
            "value": "0"
        },
        "fund_flow": [],
        "token_infos": [
            {
                "address": "0xc02aaa39b223fe8d0a0e5c4f27ead9083c756cc2",
                "decimals": 18
            },
            {
                "address": "0xeeeeeeeeeeeeeeeeeeeeeeeeeeeeeeeeeeeeeeee",
                "decimals": 18
            }
        ]
    },
    "address_label": {
        "labels": [
            {
                "address": "0x0000000000000000000000000000000000000001",
                "label": "Precompiled"
            },
            {
                "address": "0x0000000000000000000000000000000000000002",
                "label": "Precompiled"
            },
            {
                "address": "0x0000000000000000000000000000000000000003",
                "label": "Precompiled"
            },
            {
                "address": "0x0000000000000000000000000000000000000004",
                "label": "Precompiled"
            },
            {
                "address": "0xeeeeeeeeeeeeeeeeeeeeeeeeeeeeeeeeeeeeeeee",
                "label": "Ether"
            },
            {
                "address": "0xf79d6afbb6da890132f9d7c355e3015f15f3406f",
                "label": "Chainlink: ETH / USD Aggregator"
            },
            {
                "address": "0xf3b450002c7bc300ea03c9463d8e8ba7f821b7c6",
                "label": "Oracle"
            }
        ]
    },
    "trace": {
        "accountLabels": null,
        "dataMap": {
            "-1": {
                "invocation": {
                    "address": "0x9ab2a7af33d50738caf23e9283e584d954dfb287",
                    "callData": "",
                    "decodedMethod": null,
                    "errorInfo": "",
                    "fromAddress": "",
                    "gasUsed": 0,
                    "id": -1,
                    "methodDecoded": false,
                    "operation": "",
                    "output": "",
                    "revert": false,
                    "revertMessage": "",
                    "selector": "",
                    "status": false,
                    "value": ""
                },
                "nodeType": 0
            },
            "0": {
                "invocation": {
                    "address": "0xf3b450002c7bc300ea03c9463d8e8ba7f821b7c6",
                    "callData": "0x381f5960d07b0c4ed621ffdd1f872b160ac4cddf2b546080743b148ab631858d0000000000000000000000000000000000000000000000000a688906bd8b0000000000000000000000000000f79d6afbb6da890132f9d7c355e3015f15f3406f6a9705b40000000000000000000000000000000000000000000000000000000000000000000000000000000000000000000000000000000000000000605e76a10000000000000000000000000000000000000000000000000000002796feb740",
                    "decodedMethod": {
                        "callParams": [
                            {
                                "name": "_requestId",
                                "type": "bytes32",
                                "value": "0x381f5960d07b0c4ed621ffdd1f872b160ac4cddf2b546080743b148ab631858d"
                            },
                            {
                                "name": "_payment",
                                "type": "uint256",
                                "value": "750,000,000,000,000,000"
                            },
                            {
                                "name": "_callbackAddress",
                                "type": "address",
                                "value": "0xf79d6afbb6da890132f9d7c355e3015f15f3406f"
                            },
                            {
                                "name": "_callbackFunctionId",
                                "type": "bytes4",
                                "value": "0x6a9705b4"
                            },
                            {
                                "name": "_expiration",
                                "type": "uint256",
                                "value": "1,616,803,489"
                            },
                            {
                                "name": "_data",
                                "type": "bytes32",
                                "value": "0x0000000000000000000000000000000000000000000000000000002796feb740"
                            }
                        ],
                        "constructorArguments": "",
                        "name": "fulfillOracleRequest",
                        "returnParams": [
                            {
                                "name": "",
                                "type": "bool",
                                "value": true
                            }
                        ],
                        "signature": "fulfillOracleRequest(bytes32,uint256,address,bytes4,uint256,bytes32)"
                    },
                    "errorInfo": "",
                    "fromAddress": "0x9ab2a7af33d50738caf23e9283e584d954dfb287",
                    "gasUsed": 86215,
                    "id": 0,
                    "methodDecoded": true,
                    "operation": "CALL",
                    "output": "0x0000000000000000000000000000000000000000000000000000000000000001",
                    "revert": false,
                    "revertMessage": "",
                    "selector": "0x4ab0d190",
                    "status": true,
                    "value": "0"
                },
                "nodeType": 0
            },
            "1": {
                "invocation": {
                    "address": "0xf79d6afbb6da890132f9d7c355e3015f15f3406f",
                    "callData": "0x381f5960d07b0c4ed621ffdd1f872b160ac4cddf2b546080743b148ab631858d0000000000000000000000000000000000000000000000000000002796feb740",
                    "decodedMethod": {
                        "callParams": [
                            {
                                "name": "_clRequestId",
                                "type": "bytes32",
                                "value": "0x381f5960d07b0c4ed621ffdd1f872b160ac4cddf2b546080743b148ab631858d"
                            },
                            {
                                "name": "_response",
                                "type": "int256",
                                "value": "170,037,000,000"
                            }
                        ],
                        "constructorArguments": "",
                        "name": "chainlinkCallback",
                        "returnParams": [],
                        "signature": "chainlinkCallback(bytes32,int256)"
                    },
                    "errorInfo": "",
                    "fromAddress": "0xf3b450002c7bc300ea03c9463d8e8ba7f821b7c6",
                    "gasUsed": 92590,
                    "id": 1,
                    "methodDecoded": true,
                    "operation": "CALL",
                    "output": "",
                    "revert": false,
                    "revertMessage": "",
                    "selector": "0x6a9705b4",
                    "status": true,
                    "value": "0"
                },
                "nodeType": 0
            },
            "2": {
                "event": {
                    "contract": "0xf79d6afbb6da890132f9d7c355e3015f15f3406f",
                    "decodedLog": {
                        "name": "ChainlinkFulfilled",
                        "params": [
                            {
                                "name": "id",
                                "type": "bytes32",
                                "value": "0x381f5960d07b0c4ed621ffdd1f872b160ac4cddf2b546080743b148ab631858d"
                            }
                        ],
                        "signature": "ChainlinkFulfilled(bytes32)"
                    },
                    "id": 2,
                    "logData": "0x",
                    "logDecoded": true,
                    "operation": "EVENT",
                    "revert": false,
                    "status": true,
                    "topics": [
                        "0x7cc135e0cebb02c3480ae5d74d377283180a2601f8f644edf7987b009316c63a",
                        "0x381f5960d07b0c4ed621ffdd1f872b160ac4cddf2b546080743b148ab631858d"
                    ]
                },
                "nodeType": 1
            },
            "3": {
                "event": {
                    "contract": "0xf79d6afbb6da890132f9d7c355e3015f15f3406f",
                    "decodedLog": {
                        "name": "ResponseReceived",
                        "params": [
                            {
                                "name": "response",
                                "type": "int256",
                                "value": "170,037,000,000"
                            },
                            {
                                "name": "answerId",
                                "type": "uint256",
                                "value": "5,614"
                            },
                            {
                                "name": "sender",
                                "type": "address",
                                "value": "0xf3b450002c7bc300ea03c9463d8e8ba7f821b7c6"
                            }
                        ],
                        "signature": "ResponseReceived(int256,uint256,address)"
                    },
                    "id": 3,
                    "logData": "0x",
                    "logDecoded": true,
                    "operation": "EVENT",
                    "revert": false,
                    "status": true,
                    "topics": [
                        "0xb51168059c83c860caf5b830c5d2e64c2172c6fb2fe9f25447d9838e18d93b60",
                        "0x0000000000000000000000000000000000000000000000000000002796feb740",
                        "0x00000000000000000000000000000000000000000000000000000000000015ee",
                        "0x000000000000000000000000f3b450002c7bc300ea03c9463d8e8ba7f821b7c6"
                    ]
                },
                "nodeType": 1
            },
            "4": {
                "event": {
                    "contract": "0xf79d6afbb6da890132f9d7c355e3015f15f3406f",
                    "decodedLog": {
                        "name": "AnswerUpdated",
                        "params": [
                            {
                                "name": "current",
                                "type": "int256",
                                "value": "170,284,201,957"
                            },
                            {
                                "name": "roundId",
                                "type": "uint256",
                                "value": "5,614"
                            },
                            {
                                "name": "timestamp",
                                "type": "uint256",
                                "value": "1,616,803,286"
                            }
                        ],
                        "signature": "AnswerUpdated(int256,uint256,uint256)"
                    },
                    "id": 4,
                    "logData": "0x00000000000000000000000000000000000000000000000000000000605e75d6",
                    "logDecoded": true,
                    "operation": "EVENT",
                    "revert": false,
                    "status": true,
                    "topics": [
                        "0x0559884fd3a460db3073b7fc896cc77986f16e378210ded43186175bf646fc5f",
                        "0x00000000000000000000000000000000000000000000000000000027a5bab7e5",
                        "0x00000000000000000000000000000000000000000000000000000000000015ee"
                    ]
                },
                "nodeType": 1
            }
        },
        "gasFlame": [
            {
                "children": [
                    {
                        "children": [
                            {
                                "children": [],
                                "depth": 0,
                                "name": "Initial Gas",
                                "value": 22684
                            },
                            {
                                "children": [
                                    {
                                        "children": [],
                                        "depth": 1,
                                        "name": "chainlinkCallback",
                                        "value": 92590
                                    }
                                ],
                                "depth": 0,
                                "name": "Executed Gas",
                                "value": 108531
                            }
                        ],
                        "depth": -1,
                        "name": "Actual Gas Used",
                        "value": 86215
                    },
                    {
                        "children": [],
                        "depth": -1,
                        "name": "Refunded Gas",
                        "value": 45000
                    }
                ],
                "depth": -2,
                "name": "Total Gas",
                "value": 131215
            }
        ],
        "isConfirmed": true,
        "mainTrace": [
            {
                "children": [
                    {
                        "children": [
                            {
                                "children": [
                                    {
                                        "children": [],
                                        "depth": 2,
                                        "id": 2,
                                        "order": 2
                                    },
                                    {
                                        "children": [],
                                        "depth": 2,
                                        "id": 3,
                                        "order": 3
                                    },
                                    {
                                        "children": [],
                                        "depth": 2,
                                        "id": 4,
                                        "order": 4
                                    }
                                ],
                                "depth": 1,
                                "id": 1,
                                "order": 1
                            }
                        ],
                        "depth": 0,
                        "id": 0,
                        "order": 0
                    }
                ],
                "depth": -1,
                "id": -1,
                "order": -1
            }
        ],
        "mainTraceNodeCount": 5,
        "parentIdMap": {
            "0": -1,
            "1": 0,
            "2": 1,
            "3": 1,
            "4": 1
        },
        "tidyTrace": [
            {
                "children": [
                    {
                        "children": [
                            {
                                "children": [
                                    {
                                        "children": [],
                                        "depth": 2,
                                        "id": 2,
                                        "order": 2
                                    },
                                    {
                                        "children": [],
                                        "depth": 2,
                                        "id": 3,
                                        "order": 3
                                    },
                                    {
                                        "children": [],
                                        "depth": 2,
                                        "id": 4,
                                        "order": 4
                                    }
                                ],
                                "depth": 1,
                                "id": 1,
                                "order": 1
                            }
                        ],
                        "depth": 0,
                        "id": 0,
                        "order": 0
                    }
                ],
                "depth": -1,
                "id": -1,
                "order": -1
            }
        ],
        "tidyTraceNodeCount": 5
    },
    "state_change": {
        "stateChanges": [
            {
                "address": "0xf3b450002c7bc300ea03c9463d8e8ba7f821b7c6",
                "erc": "",
                "slots": [
                    {
                        "current": "0x00000000000000000000000000000000000000000000001227f2dd848dd40001",
                        "key": "0x0000000000000000000000000000000000000000000000000000000000000004",
                        "prev": "0x0000000000000000000000000000000000000000000000121d8a547dd0490001"
                    },
                    {
                        "current": "0x0000000000000000000000000000000000000000000000000000000000000000",
                        "key": "0xef7c4e4deccfb5f924737fe543860bcfe139a4a63d1ad365dd988a97bbbc9fb1",
                        "prev": "0x4bea0769ded00c0ae50c4b4e4db208f6c9e210f6cd08ac8a3e9ea8bdf23cfbee"
                    }
                ],
                "storageVariables": [
                    {
                        "name": "commitments",
                        "type": "mapping(bytes32 => bytes32)",
                        "value": {
                            "pairs": [
                                {
                                    "key": "0x381f5960d07b0c4ed621ffdd1f872b160ac4cddf2b546080743b148ab631858d",
                                    "value": {
                                        "current": "0x0000000000000000000000000000000000000000000000000000000000000000",
                                        "prev": "0x4bea0769ded00c0ae50c4b4e4db208f6c9e210f6cd08ac8a3e9ea8bdf23cfbee",
                                        "typeTag": 1
                                    }
                                }
                            ],
                            "typeTag": 4
                        }
                    },
                    {
                        "name": "withdrawableTokens",
                        "type": "uint256",
                        "value": {
                            "current": "334920000000000000001",
                            "prev": "334170000000000000001",
                            "typeTag": 1
                        }
                    }
                ]
            },
            {
                "address": "0xf79d6afbb6da890132f9d7c355e3015f15f3406f",
                "erc": "",
                "slots": [
                    {
                        "current": "0x000000000000000000000000000000000000000000000000000000000000000f",
                        "key": "0xb519da2b14c0e2c39d5df442094aa042c85c7923a8ca5263007c3a8f7d59b3ee",
                        "prev": "0x000000000000000000000000000000000000000000000000000000000000000e"
                    },
                    {
                        "current": "0x0000000000000000000000000000000000000000000000000000002796feb740",
                        "key": "0x102f0ce5c4ee7f4f8aa2a54fc0db93b9ceb8958a023238a51d3d53212813dc24",
                        "prev": "0x0000000000000000000000000000000000000000000000000000000000000000"
                    },
                    {
                        "current": "0x00000000000000000000000000000000000000000000000000000027a5bab7e5",
                        "key": "0x0000000000000000000000000000000000000000000000000000000000000007",
                        "prev": "0x00000000000000000000000000000000000000000000000000000027a64a22d2"
                    },
                    {
                        "current": "0x00000000000000000000000000000000000000000000000000000027a5bab7e5",
                        "key": "0xa8da5f4338b871b9658415e5f394502f588916592129694c087ea138924f10ab",
                        "prev": "0x00000000000000000000000000000000000000000000000000000027a64a22d2"
                    },
                    {
                        "current": "0x0000000000000000000000000000000000000000000000000000000000000000",
                        "key": "0x03bc144e08136c9679f519a08dc5b39f1e9d1cac0f55e0f654b3667b90d83e78",
                        "prev": "0x000000000000000000000000f3b450002c7bc300ea03c9463d8e8ba7f821b7c6"
                    },
                    {
                        "current": "0x0000000000000000000000000000000000000000000000000000000000000000",
                        "key": "0xd10c45493ad155adaa1034a66a4b4b94adc7c15fe9e7234090a7797126c7a7b0",
                        "prev": "0x00000000000000000000000000000000000000000000000000000000000015ee"
                    }
                ],
                "storageVariables": [
                    {
                        "name": "pendingRequests",
                        "type": "mapping(bytes32 => address)",
                        "value": {
                            "pairs": [
                                {
                                    "key": "0x381f5960d07b0c4ed621ffdd1f872b160ac4cddf2b546080743b148ab631858d",
                                    "value": {
                                        "current": "0x0000000000000000000000000000000000000000",
                                        "prev": "0xf3b450002c7bc300ea03c9463d8e8ba7f821b7c6",
                                        "typeTag": 1
                                    }
                                }
                            ],
                            "typeTag": 4
                        }
                    },
                    {
                        "name": "requestAnswers",
                        "type": "mapping(bytes32 => uint256)",
                        "value": {
                            "pairs": [
                                {
                                    "key": "0x381f5960d07b0c4ed621ffdd1f872b160ac4cddf2b546080743b148ab631858d",
                                    "value": {
                                        "current": "0",
                                        "prev": "5614",
                                        "typeTag": 1
                                    }
                                }
                            ],
                            "typeTag": 4
                        }
                    },
                    {
                        "name": "answers",
                        "type": "mapping(uint256 => struct Aggregator.Answer)",
                        "value": {
                            "pairs": [
                                {
                                    "key": "5614",
                                    "value": {
                                        "fields": [
                                            {
                                                "name": "responses",
                                                "type": "int256[]",
                                                "value": {
                                                    "elemType": "int256",
                                                    "elems": [
                                                        {
                                                            "index": 14,
                                                            "value": {
                                                                "current": "170037000000",
                                                                "prev": "0",
                                                                "typeTag": 1
                                                            }
                                                        }
                                                    ],
                                                    "typeTag": 2
                                                }
                                            }
                                        ],
                                        "typeTag": 3
                                    }
                                }
                            ],
                            "typeTag": 4
                        }
                    },
                    {
                        "name": "currentAnswerValue",
                        "type": "int256",
                        "value": {
                            "current": "170284201957",
                            "prev": "170293600978",
                            "typeTag": 1
                        }
                    },
                    {
                        "name": "currentAnswers",
                        "type": "mapping(uint256 => int256)",
                        "value": {
                            "pairs": [
                                {
                                    "key": "5614",
                                    "value": {
                                        "current": "170284201957",
                                        "prev": "170293600978",
                                        "typeTag": 1
                                    }
                                }
                            ],
                            "typeTag": 4
                        }
                    }
                ]
            }
        ]
    }
}