{
    "balance_change": {
        "balanceChanges": []
    },
    "profile": {
        "basic_info": {
            "baseFee": "",
            "blockNumber": 4292649,
            "callData": "0x0a19b14a000000000000000000000000e814aee960a85208c3db542c53e7d4a6c8d5f60f000000000000000000000000000000000000000000000000d02ab486cedc00000000000000000000000000000000000000000000000000000000000000000000000000000000000000000000000000000000000000000000095e150f6415dc00000000000000000000000000000000000000000000000000000000000041a721000000000000000000000000000000000000000000000000000000001d9b79ff000000000000000000000000a693d26d330e0989b23e7918bf258593d4e09210000000000000000000000000000000000000000000000000000000000000001c6fc075d65ebc2139e5bd0b0f1a9be4287fb142202c443bc1c8ffb5ee4f81a8101dd85c9cec9b3e4718fa318f983424c68fb5643747b812edaf4d29bb09e5a2ec000000000000000000000000000000000000000000000000d02ab486cedc0000",
            "debugEnable": true,
            "errorInfo": "",
            "eventCount": 1,
            "feeRecipient": "0x90e4be5cd24970a87e23e281f3ad40a89558b433",
            "formatValue": "0",
            "gasLimit": 250000,
            "gasPrice": "40",
            "gasUsed": 108050,
            "intTxnCount": 2,
            "internalRevert": false,
            "internalRevertMessage": "",
            "isContractCreation": false,
            "isFlashloan": false,
            "maxFee": "",
            "nonce": 550,
            "overwritedBlockNumber": -1,
            "priorityFee": "",
            "receiver": "0x8d12a197cb00d4747a1fe03395095ce2a5cc6819",
            "revertMessage": "",
            "sender": "0x099c1ce9f8e59e9ba95f4f8dfc3a5e7a62e9031e",
            "simulationEnable": true,
            "sourceTxnHash": "0x37617d517c9c85bc714aa82c52658fb5bb592aa7475a5e698f0f804862785ee2",
            "status": true,
            "timestamp": "2017-09-19T22:45:48Z",
            "transactionFee": "0.004322",
            "txnHash": "0x37617d517c9c85bc714aa82c52658fb5bb592aa7475a5e698f0f804862785ee2",
            "txnIndex": 3,
            "type": 0,
            "value": "0"
        },
        "fund_flow": [],
        "token_infos": [
            {
                "address": "0xc02aaa39b223fe8d0a0e5c4f27ead9083c756cc2",
                "decimals": 18
            },
            {
                "address": "0xeeeeeeeeeeeeeeeeeeeeeeeeeeeeeeeeeeeeeeee",
                "decimals": 18
            }
        ]
    },
    "address_label": {
        "labels": [
            {
                "address": "0xe814aee960a85208c3db542c53e7d4a6c8d5f60f",
                "label": "ChronoLogic: Day Token"
            },
            {
                "address": "0x0000000000000000000000000000000000000000",
                "label": "Null Address"
            },
            {
                "address": "0x0000000000000000000000000000000000000001",
                "label": "Precompiled"
            },
            {
                "address": "0x0000000000000000000000000000000000000003",
                "label": "Precompiled"
            },
            {
                "address": "0x0000000000000000000000000000000000000004",
                "label": "Precompiled"
            },
            {
                "address": "0xeeeeeeeeeeeeeeeeeeeeeeeeeeeeeeeeeeeeeeee",
                "label": "Ether"
            },
            {
                "address": "0x8d12a197cb00d4747a1fe03395095ce2a5cc6819",
                "label": "EtherDelta"
            },
            {
                "address": "0x0000000000000000000000000000000000000002",
                "label": "Precompiled"
            }
        ]
    },
    "trace": {
        "accountLabels": null,
        "dataMap": {
            "-1": {
                "invocation": {
                    "address": "0x099c1ce9f8e59e9ba95f4f8dfc3a5e7a62e9031e",
                    "callData": "",
                    "decodedMethod": null,
                    "errorInfo": "",
                    "fromAddress": "",
                    "gasUsed": 0,
                    "id": -1,
                    "methodDecoded": false,
                    "operation": "",
                    "output": "",
                    "revert": false,
                    "revertMessage": "",
                    "selector": "",
                    "status": false,
                    "value": ""
                },
                "nodeType": 0
            },
            "0": {
                "invocation": {
                    "address": "0x8d12a197cb00d4747a1fe03395095ce2a5cc6819",
                    "callData": "0x000000000000000000000000e814aee960a85208c3db542c53e7d4a6c8d5f60f000000000000000000000000000000000000000000000000d02ab486cedc00000000000000000000000000000000000000000000000000000000000000000000000000000000000000000000000000000000000000000000095e150f6415dc00000000000000000000000000000000000000000000000000000000000041a721000000000000000000000000000000000000000000000000000000001d9b79ff000000000000000000000000a693d26d330e0989b23e7918bf258593d4e09210000000000000000000000000000000000000000000000000000000000000001c6fc075d65ebc2139e5bd0b0f1a9be4287fb142202c443bc1c8ffb5ee4f81a8101dd85c9cec9b3e4718fa318f983424c68fb5643747b812edaf4d29bb09e5a2ec000000000000000000000000000000000000000000000000d02ab486cedc0000",
                    "decodedMethod": {
                        "callParams": [
                            {
                                "name": "tokenGet",
                                "type": "address",
                                "value": "0xe814aee960a85208c3db542c53e7d4a6c8d5f60f"
                            },
                            {
                                "name": "amountGet",
                                "type": "uint256",
                                "value": "15,000,000,000,000,000,000"
                            },
                            {
                                "name": "tokenGive",
                                "type": "address",
                                "value": "0x0000000000000000000000000000000000000000"
                            },
                            {
                                "name": "amountGive",
                                "type": "uint256",
                                "value": "675,000,150,000,000,000"
                            },
                            {
                                "name": "expires",
                                "type": "uint256",
                                "value": "4,302,625"
                            },
                            {
                                "name": "nonce",
                                "type": "uint256",
                                "value": "496,728,575"
                            },
                            {
                                "name": "user",
                                "type": "address",
                                "value": "0xa693d26d330e0989b23e7918bf258593d4e09210"
                            },
                            {
                                "name": "v",
                                "type": "uint8",
                                "value": "28"
                            },
                            {
                                "name": "r",
                                "type": "bytes32",
                                "value": "0x6fc075d65ebc2139e5bd0b0f1a9be4287fb142202c443bc1c8ffb5ee4f81a810"
                            },
                            {
                                "name": "s",
                                "type": "bytes32",
                                "value": "0x1dd85c9cec9b3e4718fa318f983424c68fb5643747b812edaf4d29bb09e5a2ec"
                            },
                            {
                                "name": "amount",
                                "type": "uint256",
                                "value": "15,000,000,000,000,000,000"
                            }
                        ],
                        "constructorArguments": "",
                        "name": "trade",
                        "returnParams": [],
                        "signature": "trade(address,uint256,address,uint256,uint256,uint256,address,uint8,bytes32,bytes32,uint256)"
                    },
                    "errorInfo": "",
                    "fromAddress": "0x099c1ce9f8e59e9ba95f4f8dfc3a5e7a62e9031e",
                    "gasUsed": 108050,
                    "id": 0,
                    "methodDecoded": true,
                    "operation": "CALL",
                    "output": "",
                    "revert": false,
                    "revertMessage": "",
                    "selector": "0x0a19b14a",
                    "status": true,
                    "value": "0"
                },
                "nodeType": 0
            },
            "1": {
                "invocation": {
                    "address": "0x0000000000000000000000000000000000000002",
                    "callData": "0xcb00d4747a1fe03395095ce2a5cc6819e814aee960a85208c3db542c53e7d4a6c8d5f60f000000000000000000000000000000000000000000000000d02ab486cedc00000000000000000000000000000000000000000000000000000000000000000000000000000000000000000000095e150f6415dc00000000000000000000000000000000000000000000000000000000000041a721000000000000000000000000000000000000000000000000000000001d9b79ff",
                    "decodedMethod": {
                        "callParams": [
                            {
                                "name": "data",
                                "type": "bytes",
                                "value": "0x8d12a197cb00d4747a1fe03395095ce2a5cc6819e814aee960a85208c3db542c53e7d4a6c8d5f60f000000000000000000000000000000000000000000000000d02ab486cedc00000000000000000000000000000000000000000000000000000000000000000000000000000000000000000000095e150f6415dc00000000000000000000000000000000000000000000000000000000000041a721000000000000000000000000000000000000000000000000000000001d9b79ff"
                            }
                        ],
                        "constructorArguments": "",
                        "name": "sha256hash",
                        "returnParams": [
                            {
                                "name": "hash",
                                "type": "bytes32",
                                "value": "0x1b3bfec24c8130ef0b8565492fadb36c68802c15075b5c94fcf3547501bc6450"
                            }
                        ],
                        "signature": "sha256hash(bytes)"
                    },
                    "errorInfo": "",
                    "fromAddress": "0x8d12a197cb00d4747a1fe03395095ce2a5cc6819",
                    "gasUsed": 132,
                    "id": 1,
                    "methodDecoded": true,
                    "operation": "CALL",
                    "output": "0x1b3bfec24c8130ef0b8565492fadb36c68802c15075b5c94fcf3547501bc6450",
                    "revert": false,
                    "revertMessage": "",
                    "selector": "0x8d12a197",
                    "status": true,
                    "value": "0"
                },
                "nodeType": 0
            },
            "2": {
                "invocation": {
                    "address": "0x0000000000000000000000000000000000000001",
                    "callData": "0x6bec54c57b2c7bcd23d84c66dac658d3378ca6b30f8616473dde342c000000000000000000000000000000000000000000000000000000000000001c6fc075d65ebc2139e5bd0b0f1a9be4287fb142202c443bc1c8ffb5ee4f81a8101dd85c9cec9b3e4718fa318f983424c68fb5643747b812edaf4d29bb09e5a2ec",
                    "decodedMethod": {
                        "callParams": [
                            {
                                "name": "hash",
                                "type": "bytes32",
                                "value": "0x4a6a8fce6bec54c57b2c7bcd23d84c66dac658d3378ca6b30f8616473dde342c"
                            },
                            {
                                "name": "v",
                                "type": "uint256",
                                "value": "28"
                            },
                            {
                                "name": "r",
                                "type": "bytes32",
                                "value": "0x6fc075d65ebc2139e5bd0b0f1a9be4287fb142202c443bc1c8ffb5ee4f81a810"
                            },
                            {
                                "name": "s",
                                "type": "bytes32",
                                "value": "0x1dd85c9cec9b3e4718fa318f983424c68fb5643747b812edaf4d29bb09e5a2ec"
                            }
                        ],
                        "constructorArguments": "",
                        "name": "ecrecover",
                        "returnParams": [
                            {
                                "name": "",
                                "type": "address",
                                "value": "0xa693d26d330e0989b23e7918bf258593d4e09210"
                            }
                        ],
                        "signature": "ecrecover(bytes32,uint256,bytes32,bytes32)"
                    },
                    "errorInfo": "",
                    "fromAddress": "0x8d12a197cb00d4747a1fe03395095ce2a5cc6819",
                    "gasUsed": 3000,
                    "id": 2,
                    "methodDecoded": true,
                    "operation": "CALL",
                    "output": "0x000000000000000000000000a693d26d330e0989b23e7918bf258593d4e09210",
                    "revert": false,
                    "revertMessage": "",
                    "selector": "0x4a6a8fce",
                    "status": true,
                    "value": "0"
                },
                "nodeType": 0
            },
            "3": {
                "event": {
                    "contract": "0x8d12a197cb00d4747a1fe03395095ce2a5cc6819",
                    "decodedLog": {
                        "name": "Trade",
                        "params": [
                            {
                                "name": "tokenGet",
                                "type": "address",
                                "value": "0xe814aee960a85208c3db542c53e7d4a6c8d5f60f"
                            },
                            {
                                "name": "amountGet",
                                "type": "uint256",
                                "value": "15,000,000,000,000,000,000"
                            },
                            {
                                "name": "tokenGive",
                                "type": "address",
                                "value": "0x0000000000000000000000000000000000000000"
                            },
                            {
                                "name": "amountGive",
                                "type": "uint256",
                                "value": "675,000,150,000,000,000"
                            },
                            {
                                "name": "get",
                                "type": "address",
                                "value": "0xa693d26d330e0989b23e7918bf258593d4e09210"
                            },
                            {
                                "name": "give",
                                "type": "address",
                                "value": "0x099c1ce9f8e59e9ba95f4f8dfc3a5e7a62e9031e"
                            }
                        ],
                        "signature": "Trade(address,uint256,address,uint256,address,address)"
                    },
                    "id": 3,
                    "logData": "0x000000000000000000000000e814aee960a85208c3db542c53e7d4a6c8d5f60f000000000000000000000000000000000000000000000000d02ab486cedc00000000000000000000000000000000000000000000000000000000000000000000000000000000000000000000000000000000000000000000095e150f6415dc00000000000000000000000000a693d26d330e0989b23e7918bf258593d4e09210000000000000000000000000099c1ce9f8e59e9ba95f4f8dfc3a5e7a62e9031e",
                    "logDecoded": true,
                    "operation": "EVENT",
                    "revert": false,
                    "status": true,
                    "topics": [
                        "0x6effdda786735d5033bfad5f53e5131abcced9e52be6c507b62d639685fbed6d"
                    ]
                },
                "nodeType": 1
            }
        },
        "gasFlame": [
            {
                "children": [
                    {
                        "children": [
                            {
                                "children": [],
                                "depth": 0,
                                "name": "Initial Gas",
                                "value": 31064
                            },
                            {
                                "children": [
                                    {
                                        "children": [],
                                        "depth": 1,
                                        "name": "sha256hash",
                                        "value": 132
                                    },
                                    {
                                        "children": [],
                                        "depth": 1,
                                        "name": "ecrecover",
                                        "value": 3000
                                    }
                                ],
                                "depth": 0,
                                "name": "Executed Gas",
                                "value": 76986
                            }
                        ],
                        "depth": -1,
                        "name": "Actual Gas Used",
                        "value": 108050
                    },
                    {
                        "children": [],
                        "depth": -1,
                        "name": "Refunded Gas",
                        "value": 0
                    }
                ],
                "depth": -2,
                "name": "Total Gas",
                "value": 108050
            }
        ],
        "isConfirmed": true,
        "mainTrace": [
            {
                "children": [
                    {
                        "children": [
                            {
                                "children": [],
                                "depth": 1,
                                "id": 1,
                                "order": 1
                            },
                            {
                                "children": [],
                                "depth": 1,
                                "id": 2,
                                "order": 2
                            },
                            {
                                "children": [],
                                "depth": 1,
                                "id": 3,
                                "order": 3
                            }
                        ],
                        "depth": 0,
                        "id": 0,
                        "order": 0
                    }
                ],
                "depth": -1,
                "id": -1,
                "order": -1
            }
        ],
        "mainTraceNodeCount": 4,
        "parentIdMap": {
            "0": -1,
            "1": 0,
            "2": 0,
            "3": 0
        },
        "tidyTrace": [
            {
                "children": [
                    {
                        "children": [
                            {
                                "children": [],
                                "depth": 1,
                                "id": 1,
                                "order": 1
                            },
                            {
                                "children": [],
                                "depth": 1,
                                "id": 2,
                                "order": 2
                            },
                            {
                                "children": [],
                                "depth": 1,
                                "id": 3,
                                "order": 3
                            }
                        ],
                        "depth": 0,
                        "id": 0,
                        "order": 0
                    }
                ],
                "depth": -1,
                "id": -1,
                "order": -1
            }
        ],
        "tidyTraceNodeCount": 4
    },
    "state_change": {
        "stateChanges": [
            {
                "address": "0x8d12a197cb00d4747a1fe03395095ce2a5cc6819",
                "erc": "",
                "slots": [
                    {
                        "current": "0x000000000000000000000000000000000000000000000000259e7baafa713fff",
                        "key": "0x31a6b8011f40b92d187b801cc29d04c6b93158fac02ed206ffcf1962502b4fca",
                        "prev": "0x00000000000000000000000000000000000000000000000024fe9c68038cbfff"
                    },
                    {
                        "current": "0x000000000000000000000000000000000000000000000000002ac7c39db0b000",
                        "key": "0x903735b649a8353144b972183b2745deafcd8fb924f30cb88bb59f90c1dd788a",
                        "prev": "0x0000000000000000000000000000000000000000000000000988dcd301c68c00"
                    },
                    {
                        "current": "0x000000000000000000000000000000000000000000000008262da180f1bb72e6",
                        "key": "0xd76ca508db527fab87618a743b7cfa7f7d44b963b0a2b75e4239d601db1788ee",
                        "prev": "0x0000000000000000000000000000000000000000000000081ccf8c718da596e6"
                    },
                    {
                        "current": "0x000000000000000000000000000000000000000000000000d02ab486cedc0000",
                        "key": "0x461d8b2fe362cd3d1ffc71164677a25c87e4a8336abcea3df5238cb68e375e76",
                        "prev": "0x0000000000000000000000000000000000000000000000000000000000000000"
                    },
                    {
                        "current": "0x000000000000000000000000000000000000000000000006cb193d0573c70240",
                        "key": "0x18e33439cb7568544c9ea4fe5380b5c3c33d65371e90831bd35b7be0c1bde95a",
                        "prev": "0x0000000000000000000000000000000000000000000000079be3d0cf39878240"
                    },
                    {
                        "current": "0x000000000000000000000000000000000000000000000000d02ab486cedc0000",
                        "key": "0x8e6b6efefdbecb6cb576b8ca438ea22b8449ee273e8b7ed135535f4c91e32d78",
                        "prev": "0x0000000000000000000000000000000000000000000000000000000000000000"
                    }
                ],
                "storageVariables": []
            }
        ]
    }
}