{
    "balance_change": {
        "balanceChanges": [
            {
                "account": "0xe31f75f20c91aed5185d3107441220f9e9271b4c",
                "assets": [
                    {
                        "address": "0xf230b790e05390fc8295f4d3f60332c93bed42e2",
                        "amount": "5,000",
                        "iconUrl": "",
                        "isERC1155": false,
                        "isERC721": false,
                        "sign": false,
                        "value": ""
                    }
                ]
            },
            {
                "account": "0x1ca5c4accf6b8539410f925efa39481251ec6422",
                "assets": [
                    {
                        "address": "0xf230b790e05390fc8295f4d3f60332c93bed42e2",
                        "amount": "5,000",
                        "iconUrl": "",
                        "isERC1155": false,
                        "isERC721": false,
                        "sign": true,
                        "value": ""
                    }
                ]
            }
        ]
    },
    "profile": {
        "basic_info": {
            "baseFee": "22.704392636",
            "blockNumber": 18636763,
            "callData": "0xa9059cbb0000000000000000000000001ca5c4accf6b8539410f925efa39481251ec6422000000000000000000000000000000000000000000000000000000012a05f200",
            "debugEnable": true,
            "errorInfo": "",
            "eventCount": 1,
            "feeRecipient": "0x95222290dd7278aa3ddd389cc1e1d165cc4bafe5",
            "formatValue": "0",
            "gasLimit": 36935,
            "gasPrice": "23.954392636",
            "gasUsed": 36935,
            "intTxnCount": 0,
            "internalRevert": false,
            "internalRevertMessage": "",
            "isContractCreation": false,
            "isFlashloan": false,
            "maxFee": "31.917045399",
            "nonce": 10,
            "overwritedBlockNumber": -1,
            "priorityFee": "1.25",
            "receiver": "0xf230b790e05390fc8295f4d3f60332c93bed42e2",
            "revertMessage": "",
            "sender": "0xe31f75f20c91aed5185d3107441220f9e9271b4c",
            "simulationEnable": true,
            "sourceTxnHash": "0x37fb2290d8f5b5ecceca4f456f56238f176ce07b15a6b3f4d0dd9a97eaf1d074",
            "status": true,
            "timestamp": "2023-11-23T20:17:47Z",
            "transactionFee": "0.00088475549201066",
            "txnHash": "0x37fb2290d8f5b5ecceca4f456f56238f176ce07b15a6b3f4d0dd9a97eaf1d074",
            "txnIndex": 46,
            "type": 2,
            "value": "0"
        },
        "fund_flow": [
            {
                "amount": "5,000",
                "from": "0xe31f75f20c91aed5185d3107441220f9e9271b4c",
                "id": 1,
                "isERC1155": false,
                "isERC721": false,
                "isReverted": false,
                "order": 1,
                "to": "0x1ca5c4accf6b8539410f925efa39481251ec6422",
                "token": "0xf230b790e05390fc8295f4d3f60332c93bed42e2"
            }
        ],
        "token_infos": [
            {
                "address": "0xc02aaa39b223fe8d0a0e5c4f27ead9083c756cc2",
                "decimals": 18
            },
            {
                "address": "0xf230b790e05390fc8295f4d3f60332c93bed42e2",
                "decimals": 6
            },
            {
                "address": "0xeeeeeeeeeeeeeeeeeeeeeeeeeeeeeeeeeeeeeeee",
                "decimals": 18
            }
        ]
    },
    "address_label": {
        "labels": [
            {
                "address": "0x0000000000000000000000000000000000000001",
                "label": "Precompiled"
            },
            {
                "address": "0x0000000000000000000000000000000000000002",
                "label": "Precompiled"
            },
            {
                "address": "0x0000000000000000000000000000000000000003",
                "label": "Precompiled"
            },
            {
                "address": "0x0000000000000000000000000000000000000004",
                "label": "Precompiled"
            },
            {
                "address": "0xeeeeeeeeeeeeeeeeeeeeeeeeeeeeeeeeeeeeeeee",
                "label": "Ether"
            },
            {
                "address": "0xf230b790e05390fc8295f4d3f60332c93bed42e2",
                "label": "TRON: Old TRX Token"
            }
        ]
    },
    "trace": {
        "accountLabels": null,
        "dataMap": {
            "-1": {
                "invocation": {
                    "address": "0xe31f75f20c91aed5185d3107441220f9e9271b4c",
                    "callData": "",
                    "decodedMethod": null,
                    "errorInfo": "",
                    "fromAddress": "",
                    "gasUsed": 0,
                    "id": -1,
                    "methodDecoded": false,
                    "operation": "",
                    "output": "",
                    "revert": false,
                    "revertMessage": "",
                    "selector": "",
                    "status": false,
                    "value": ""
                },
                "nodeType": 0
            },
            "0": {
                "invocation": {
                    "address": "0xf230b790e05390fc8295f4d3f60332c93bed42e2",
                    "callData": "0x0000000000000000000000001ca5c4accf6b8539410f925efa39481251ec6422000000000000000000000000000000000000000000000000000000012a05f200",
                    "decodedMethod": {
                        "callParams": [
                            {
                                "name": "_to",
                                "type": "address",
                                "value": "0x1ca5c4accf6b8539410f925efa39481251ec6422"
                            },
                            {
                                "decimalAvailable": true,
                                "name": "_value",
                                "type": "uint256",
                                "value": "5,000,000,000"
                            }
                        ],
                        "constructorArguments": "",
                        "name": "transfer",
                        "returnParams": [
                            {
                                "name": "success",
                                "type": "bool",
                                "value": true
                            }
                        ],
                        "signature": "transfer(address,uint256)"
                    },
                    "errorInfo": "",
                    "fromAddress": "0xe31f75f20c91aed5185d3107441220f9e9271b4c",
                    "gasUsed": 36935,
                    "id": 0,
                    "methodDecoded": true,
                    "operation": "CALL",
                    "output": "0x0000000000000000000000000000000000000000000000000000000000000001",
                    "revert": false,
                    "revertMessage": "",
                    "selector": "0xa9059cbb",
                    "status": true,
                    "value": "0"
                },
                "nodeType": 0
            },
            "1": {
                "event": {
                    "contract": "0xf230b790e05390fc8295f4d3f60332c93bed42e2",
                    "decodedLog": {
                        "name": "Transfer",
                        "params": [
                            {
                                "name": "_from",
                                "type": "address",
                                "value": "0xe31f75f20c91aed5185d3107441220f9e9271b4c"
                            },
                            {
                                "name": "_to",
                                "type": "address",
                                "value": "0x1ca5c4accf6b8539410f925efa39481251ec6422"
                            },
                            {
                                "decimalAvailable": true,
                                "name": "_value",
                                "type": "uint256",
                                "value": "5,000,000,000"
                            }
                        ],
                        "signature": "Transfer(address,address,uint256)"
                    },
                    "id": 1,
                    "logData": "0x000000000000000000000000000000000000000000000000000000012a05f200",
                    "logDecoded": true,
                    "operation": "EVENT",
                    "revert": false,
                    "status": true,
                    "topics": [
                        "0xddf252ad1be2c89b69c2b068fc378daa952ba7f163c4a11628f55a4df523b3ef",
                        "0x000000000000000000000000e31f75f20c91aed5185d3107441220f9e9271b4c",
                        "0x0000000000000000000000001ca5c4accf6b8539410f925efa39481251ec6422"
                    ]
                },
                "nodeType": 1
            }
        },
        "gasFlame": [
            {
                "children": [
                    {
                        "children": [
                            {
                                "children": [],
                                "depth": 0,
                                "name": "Initial Gas",
                                "value": 21608
                            },
                            {
                                "children": [],
                                "depth": 0,
                                "name": "Executed Gas",
                                "value": 15327
                            }
                        ],
                        "depth": -1,
                        "name": "Actual Gas Used",
                        "value": 36935
                    },
                    {
                        "children": [],
                        "depth": -1,
                        "name": "Refunded Gas",
                        "value": 0
                    }
                ],
                "depth": -2,
                "name": "Total Gas",
                "value": 36935
            }
        ],
        "isConfirmed": true,
        "mainTrace": [
            {
                "children": [
                    {
                        "children": [
                            {
                                "children": [],
                                "depth": 1,
                                "id": 1,
                                "order": 1
                            }
                        ],
                        "depth": 0,
                        "id": 0,
                        "order": 0
                    }
                ],
                "depth": -1,
                "id": -1,
                "order": -1
            }
        ],
        "mainTraceNodeCount": 2,
        "parentIdMap": {
            "0": -1,
            "1": 0
        },
        "tidyTrace": [
            {
                "children": [
                    {
                        "children": [
                            {
                                "children": [],
                                "depth": 1,
                                "id": 1,
                                "order": 1
                            }
                        ],
                        "depth": 0,
                        "id": 0,
                        "order": 0
                    }
                ],
                "depth": -1,
                "id": -1,
                "order": -1
            }
        ],
        "tidyTraceNodeCount": 2
    },
    "state_change": {
        "stateChanges": [
            {
                "address": "0xf230b790e05390fc8295f4d3f60332c93bed42e2",
                "erc": "ERC-20",
                "slots": [
                    {
                        "current": "0x0000000000000000000000000000000000000000000000000000000929715980",
                        "key": "0x05048b1d8600a83eea4d295b15f240813a63d81d8f3687957665feb55697be9f",
                        "prev": "0x0000000000000000000000000000000000000000000000000000000a53774b80"
                    },
                    {
                        "current": "0x00000000000000000000000000000000000000000000000000000002553d1100",
                        "key": "0xe3cf7528ac851dd71f1332e7688dd49453817085aaac7e597c5c4dc9fc599e15",
                        "prev": "0x000000000000000000000000000000000000000000000000000000012b371f00"
                    }
                ],
                "storageVariables": [
                    {
                        "name": "balanceOf",
                        "type": "mapping(address => uint256)",
                        "value": {
                            "pairs": [
                                {
                                    "key": "0x1ca5c4accf6b8539410f925efa39481251ec6422",
                                    "value": {
                                        "current": "10020000000",
                                        "prev": "5020000000",
                                        "typeTag": 1
                                    }
                                },
                                {
                                    "key": "0xe31f75f20c91aed5185d3107441220f9e9271b4c",
                                    "value": {
                                        "current": "39350000000",
                                        "prev": "44350000000",
                                        "typeTag": 1
                                    }
                                }
                            ],
                            "typeTag": 4
                        }
                    }
                ]
            }
        ]
    }
}