{
    "balance_change": {
        "balanceChanges": [
            {
                "account": "0x33f20a09c9c077eb8b245d5022e73505cb07234b",
                "assets": [
                    {
                        "address": "0x3819f64f282bf135d62168c1e513280daf905e06",
                        "amount": "5,013,702.158291288",
                        "iconUrl": "",
                        "isERC1155": false,
                        "isERC721": false,
                        "sign": true,
                        "value": "8.95630061"
                    }
                ]
            },
            {
                "account": "0x0000000000000000000000000000000000000000",
                "assets": [
                    {
                        "address": "0x3819f64f282bf135d62168c1e513280daf905e06",
                        "amount": "9,571,613.211283368",
                        "iconUrl": "",
                        "isERC1155": false,
                        "isERC721": false,
                        "sign": false,
                        "value": "17.09813772"
                    }
                ]
            },
            {
                "account": "0x9d73ced2e36c89e5d167151809eee218a189f801",
                "assets": [
                    {
                        "address": "0x3819f64f282bf135d62168c1e513280daf905e06",
                        "amount": "4,557,911.05299208",
                        "iconUrl": "",
                        "isERC1155": false,
                        "isERC721": false,
                        "sign": true,
                        "value": "8.1421031"
                    }
                ]
            }
        ]
    },
    "profile": {
        "basic_info": {
            "baseFee": "4.093991683",
            "blockNumber": 15382599,
            "callData": "0xf812b9a4000000000000000000000000000000000000000000000000000000000000000d0000000000000000000000000000000000000000000000000000000000066df2",
            "debugEnable": true,
            "errorInfo": "",
            "eventCount": 3,
            "feeRecipient": "0x829bd824b016326a401d083b33d092293333a830",
            "formatValue": "0",
            "gasLimit": 75023,
            "gasPrice": "5.498923527",
            "gasUsed": 75023,
            "intTxnCount": 1,
            "internalRevert": false,
            "internalRevertMessage": "",
            "isContractCreation": false,
            "isFlashloan": false,
            "maxFee": "5.498923527",
            "nonce": 213,
            "overwritedBlockNumber": -1,
            "priorityFee": "1.5",
            "receiver": "0x3819f64f282bf135d62168c1e513280daf905e06",
            "revertMessage": "",
            "sender": "0x33f20a09c9c077eb8b245d5022e73505cb07234b",
            "simulationEnable": true,
            "sourceTxnHash": "0x37f2e25767f7797ffefc9189d0fe9518e8d68ea1095f7aab69045a98307302a6",
            "status": true,
            "timestamp": "2022-08-21T07:19:42Z",
            "transactionFee": "0.000412545739766121",
            "txnHash": "0x37f2e25767f7797ffefc9189d0fe9518e8d68ea1095f7aab69045a98307302a6",
            "txnIndex": 259,
            "type": 2,
            "value": "0"
        },
        "fund_flow": [
            {
                "amount": "4,557,911.05299208",
                "from": "0x0000000000000000000000000000000000000000",
                "id": 1,
                "isERC1155": false,
                "isERC721": false,
                "isReverted": false,
                "order": 1,
                "to": "0x9d73ced2e36c89e5d167151809eee218a189f801",
                "token": "0x3819f64f282bf135d62168c1e513280daf905e06"
            },
            {
                "amount": "5,013,702.158291288",
                "from": "0x0000000000000000000000000000000000000000",
                "id": 2,
                "isERC1155": false,
                "isERC721": false,
                "isReverted": false,
                "order": 2,
                "to": "0x33f20a09c9c077eb8b245d5022e73505cb07234b",
                "token": "0x3819f64f282bf135d62168c1e513280daf905e06"
            }
        ],
        "token_infos": [
            {
                "address": "0xeeeeeeeeeeeeeeeeeeeeeeeeeeeeeeeeeeeeeeee",
                "decimals": 18
            },
            {
                "address": "0x3819f64f282bf135d62168c1e513280daf905e06",
                "decimals": 9
            },
            {
                "address": "0xc02aaa39b223fe8d0a0e5c4f27ead9083c756cc2",
                "decimals": 18
            }
        ]
    },
    "address_label": {
        "labels": [
            {
                "address": "0x0000000000000000000000000000000000000003",
                "label": "Precompiled"
            },
            {
                "address": "0x0000000000000000000000000000000000000004",
                "label": "Precompiled"
            },
            {
                "address": "0xeeeeeeeeeeeeeeeeeeeeeeeeeeeeeeeeeeeeeeee",
                "label": "Ether"
            },
            {
                "address": "0x2b591e99afe9f32eaa6214f7b7629768c40eeb39",
                "label": "HEX.com: HEX Token"
            },
            {
                "address": "0x3819f64f282bf135d62168c1e513280daf905e06",
                "label": "Hedron: HDRN Token"
            },
            {
                "address": "0x0000000000000000000000000000000000000001",
                "label": "Precompiled"
            },
            {
                "address": "0x0000000000000000000000000000000000000002",
                "label": "Precompiled"
            }
        ]
    },
    "trace": {
        "accountLabels": null,
        "dataMap": {
            "-1": {
                "invocation": {
                    "address": "0x33f20a09c9c077eb8b245d5022e73505cb07234b",
                    "callData": "",
                    "decodedMethod": null,
                    "errorInfo": "",
                    "fromAddress": "",
                    "gasUsed": 0,
                    "id": -1,
                    "methodDecoded": false,
                    "operation": "",
                    "output": "",
                    "revert": false,
                    "revertMessage": "",
                    "selector": "",
                    "status": false,
                    "value": ""
                },
                "nodeType": 0
            },
            "0": {
                "invocation": {
                    "address": "0x3819f64f282bf135d62168c1e513280daf905e06",
                    "callData": "0x000000000000000000000000000000000000000000000000000000000000000d0000000000000000000000000000000000000000000000000000000000066df2",
                    "decodedMethod": {
                        "callParams": [
                            {
                                "name": "stakeIndex",
                                "type": "uint256",
                                "value": "13"
                            },
                            {
                                "name": "stakeId",
                                "type": "uint40",
                                "value": "421,362"
                            }
                        ],
                        "constructorArguments": "",
                        "name": "mintNative",
                        "returnParams": [
                            {
                                "name": "",
                                "type": "uint256",
                                "value": "5,013,702,158,291,288"
                            }
                        ],
                        "signature": "mintNative(uint256,uint40)"
                    },
                    "errorInfo": "",
                    "fromAddress": "0x33f20a09c9c077eb8b245d5022e73505cb07234b",
                    "gasUsed": 75023,
                    "id": 0,
                    "methodDecoded": true,
                    "operation": "CALL",
                    "output": "0x0000000000000000000000000000000000000000000000000011cfef80279158",
                    "revert": false,
                    "revertMessage": "",
                    "selector": "0xf812b9a4",
                    "status": true,
                    "value": "0"
                },
                "nodeType": 0
            },
            "1": {
                "invocation": {
                    "address": "0x2b591e99afe9f32eaa6214f7b7629768c40eeb39",
                    "callData": "0x00000000000000000000000033f20a09c9c077eb8b245d5022e73505cb07234b000000000000000000000000000000000000000000000000000000000000000d",
                    "decodedMethod": {
                        "callParams": [
                            {
                                "name": "",
                                "type": "address",
                                "value": "0x33f20a09c9c077eb8b245d5022e73505cb07234b"
                            },
                            {
                                "name": "",
                                "type": "uint256",
                                "value": "13"
                            }
                        ],
                        "constructorArguments": "",
                        "name": "stakeLists",
                        "returnParams": [
                            {
                                "name": "stakeId",
                                "type": "uint40",
                                "value": "421,362"
                            },
                            {
                                "name": "stakedHearts",
                                "type": "uint72",
                                "value": "5,000,000,000,000"
                            },
                            {
                                "name": "stakeShares",
                                "type": "uint72",
                                "value": "8,139,126,880,343"
                            },
                            {
                                "name": "lockedDay",
                                "type": "uint16",
                                "value": "619"
                            },
                            {
                                "name": "stakedDays",
                                "type": "uint16",
                                "value": "3,975"
                            },
                            {
                                "name": "unlockedDay",
                                "type": "uint16",
                                "value": "0"
                            },
                            {
                                "name": "isAutoStake",
                                "type": "bool",
                                "value": false
                            }
                        ],
                        "signature": "stakeLists(address,uint256)"
                    },
                    "errorInfo": "",
                    "fromAddress": "0x3819f64f282bf135d62168c1e513280daf905e06",
                    "gasUsed": 5020,
                    "id": 1,
                    "methodDecoded": true,
                    "operation": "STATICCALL",
                    "output": "0x0000000000000000000000000000000000000000000000000000000000066df20000000000000000000000000000000000000000000000000000048c273950000000000000000000000000000000000000000000000000000000076709c43857000000000000000000000000000000000000000000000000000000000000026b0000000000000000000000000000000000000000000000000000000000000f8700000000000000000000000000000000000000000000000000000000000000000000000000000000000000000000000000000000000000000000000000000000",
                    "revert": false,
                    "revertMessage": "",
                    "selector": "0x2607443b",
                    "status": true,
                    "value": "0"
                },
                "nodeType": 0
            },
            "2": {
                "event": {
                    "contract": "0x3819f64f282bf135d62168c1e513280daf905e06",
                    "decodedLog": {
                        "name": "Transfer",
                        "params": [
                            {
                                "name": "from",
                                "type": "address",
                                "value": "0x0000000000000000000000000000000000000000"
                            },
                            {
                                "name": "to",
                                "type": "address",
                                "value": "0x9d73ced2e36c89e5d167151809eee218a189f801"
                            },
                            {
                                "decimalAvailable": true,
                                "name": "value",
                                "type": "uint256",
                                "value": "4,557,911,052,992,080"
                            }
                        ],
                        "signature": "Transfer(address,address,uint256)"
                    },
                    "id": 2,
                    "logData": "0x000000000000000000000000000000000000000000000000001031655d3b3e50",
                    "logDecoded": true,
                    "operation": "EVENT",
                    "revert": false,
                    "status": true,
                    "topics": [
                        "0xddf252ad1be2c89b69c2b068fc378daa952ba7f163c4a11628f55a4df523b3ef",
                        "0x0000000000000000000000000000000000000000000000000000000000000000",
                        "0x0000000000000000000000009d73ced2e36c89e5d167151809eee218a189f801"
                    ]
                },
                "nodeType": 1
            },
            "3": {
                "event": {
                    "contract": "0x3819f64f282bf135d62168c1e513280daf905e06",
                    "decodedLog": {
                        "name": "Transfer",
                        "params": [
                            {
                                "name": "from",
                                "type": "address",
                                "value": "0x0000000000000000000000000000000000000000"
                            },
                            {
                                "name": "to",
                                "type": "address",
                                "value": "0x33f20a09c9c077eb8b245d5022e73505cb07234b"
                            },
                            {
                                "decimalAvailable": true,
                                "name": "value",
                                "type": "uint256",
                                "value": "5,013,702,158,291,288"
                            }
                        ],
                        "signature": "Transfer(address,address,uint256)"
                    },
                    "id": 3,
                    "logData": "0x0000000000000000000000000000000000000000000000000011cfef80279158",
                    "logDecoded": true,
                    "operation": "EVENT",
                    "revert": false,
                    "status": true,
                    "topics": [
                        "0xddf252ad1be2c89b69c2b068fc378daa952ba7f163c4a11628f55a4df523b3ef",
                        "0x0000000000000000000000000000000000000000000000000000000000000000",
                        "0x00000000000000000000000033f20a09c9c077eb8b245d5022e73505cb07234b"
                    ]
                },
                "nodeType": 1
            },
            "4": {
                "event": {
                    "contract": "0x3819f64f282bf135d62168c1e513280daf905e06",
                    "decodedLog": {
                        "name": "Mint",
                        "params": [
                            {
                                "name": "minter",
                                "type": "address",
                                "value": "0x33f20a09c9c077eb8b245d5022e73505cb07234b"
                            },
                            {
                                "name": "stakeId",
                                "type": "uint40",
                                "value": "421,362"
                            },
                            {
                                "name": "data",
                                "type": "uint256",
                                "value": "436,755,055,989,754,186,925,454,505,897,513,703,146,224,599,369,596,918,926"
                            }
                        ],
                        "signature": "Mint(uint256,address,uint40)"
                    },
                    "id": 4,
                    "logData": "0x000000000000000011cfef80279158640175000000076709c43857006301dc8e",
                    "logDecoded": true,
                    "operation": "EVENT",
                    "revert": false,
                    "status": true,
                    "topics": [
                        "0xce84afc26010d49051ae429b96ad50c0ef3a958a5c5bdc44c80e090dee642dbe",
                        "0x00000000000000000000000033f20a09c9c077eb8b245d5022e73505cb07234b",
                        "0x0000000000000000000000000000000000000000000000000000000000066df2"
                    ]
                },
                "nodeType": 1
            }
        },
        "gasFlame": [
            {
                "children": [
                    {
                        "children": [
                            {
                                "children": [],
                                "depth": 0,
                                "name": "Initial Gas",
                                "value": 21368
                            },
                            {
                                "children": [
                                    {
                                        "children": [],
                                        "depth": 1,
                                        "name": "stakeLists",
                                        "value": 5020
                                    }
                                ],
                                "depth": 0,
                                "name": "Executed Gas",
                                "value": 53655
                            }
                        ],
                        "depth": -1,
                        "name": "Actual Gas Used",
                        "value": 75023
                    },
                    {
                        "children": [],
                        "depth": -1,
                        "name": "Refunded Gas",
                        "value": 0
                    }
                ],
                "depth": -2,
                "name": "Total Gas",
                "value": 75023
            }
        ],
        "isConfirmed": true,
        "mainTrace": [
            {
                "children": [
                    {
                        "children": [
                            {
                                "children": [],
                                "depth": 1,
                                "id": 1,
                                "order": 1
                            },
                            {
                                "children": [],
                                "depth": 1,
                                "id": 2,
                                "order": 2
                            },
                            {
                                "children": [],
                                "depth": 1,
                                "id": 3,
                                "order": 3
                            },
                            {
                                "children": [],
                                "depth": 1,
                                "id": 4,
                                "order": 4
                            }
                        ],
                        "depth": 0,
                        "id": 0,
                        "order": 0
                    }
                ],
                "depth": -1,
                "id": -1,
                "order": -1
            }
        ],
        "mainTraceNodeCount": 5,
        "parentIdMap": {
            "0": -1,
            "1": 0,
            "2": 0,
            "3": 0,
            "4": 0
        },
        "tidyTrace": [
            {
                "children": [
                    {
                        "children": [
                            {
                                "children": [],
                                "depth": 1,
                                "id": 2,
                                "order": 2
                            },
                            {
                                "children": [],
                                "depth": 1,
                                "id": 3,
                                "order": 3
                            },
                            {
                                "children": [],
                                "depth": 1,
                                "id": 4,
                                "order": 4
                            }
                        ],
                        "depth": 0,
                        "id": 0,
                        "order": 0
                    }
                ],
                "depth": -1,
                "id": -1,
                "order": -1
            }
        ],
        "tidyTraceNodeCount": 4
    },
    "state_change": {
        "stateChanges": [
            {
                "address": "0x3819f64f282bf135d62168c1e513280daf905e06",
                "erc": "ERC-20",
                "slots": [
                    {
                        "current": "0x0000000000000000000000000000000000000000000008a47981eb0c9d36c50a",
                        "key": "0x592c5cdddcf1d855d0e244bcec265df08c0928ba7876ff47c3430b65ad892657",
                        "prev": "0x0000000000000000000000000000000000000000000008a47971b9a73ffb86ba"
                    },
                    {
                        "current": "0x0000000000000000000000000000000000000000000000000601b60f8e826dc8",
                        "key": "0xfddafe562e87c645f103699ab78cfe6ae6651856ded9836c1690904b6c03510f",
                        "prev": "0x00000000000000000000000000000000000000000000000005efe6200e5adc70"
                    },
                    {
                        "current": "0x0000000000000000000000000000000000000000000000000000000000640175",
                        "key": "0x024c5abd1a3d09f77f3bcd825b7fd8718c367c736cd2e0539f362a293ee6a1a3",
                        "prev": "0x000000000000000000000000000000000000000000000000000000000064013d"
                    },
                    {
                        "current": "0x0000000219000003f2b6b5f38ecc00122bf070d7ceacae02a3218bae7082f0ba",
                        "key": "0x92ef3eca61caed60dbbc5c8579b4b03a60980aad63288c70ff8eec4c1edba082",
                        "prev": "0x0000000219000003f2b6b5f38ecc00122bf070d7ceacae02a2ff8a5993202112"
                    },
                    {
                        "current": "0x0000000000000000000000000000000000000000000013b654b864f14f4d2237",
                        "key": "0x0000000000000000000000000000000000000000000000000000000000000002",
                        "prev": "0x0000000000000000000000000000000000000000000013b65496639c71ea528f"
                    }
                ],
                "storageVariables": [
                    {
                        "name": "_balances",
                        "type": "mapping(address => uint256)",
                        "value": {
                            "pairs": [
                                {
                                    "key": "0x33f20a09c9c077eb8b245d5022e73505cb07234b",
                                    "value": {
                                        "current": "432827217135955400",
                                        "prev": "427813514977664112",
                                        "typeTag": 1
                                    }
                                },
                                {
                                    "key": "0x9d73ced2e36c89e5d167151809eee218a189f801",
                                    "value": {
                                        "current": "40812953428635522876682",
                                        "prev": "40812948870724469884602",
                                        "typeTag": 1
                                    }
                                }
                            ],
                            "typeTag": 4
                        }
                    },
                    {
                        "name": "shareList",
                        "type": "mapping(uint256 => struct ShareStore)",
                        "value": {
                            "pairs": [
                                {
                                    "key": "421362",
                                    "value": {
                                        "fields": [
                                            {
                                                "name": "mintedDays",
                                                "type": "uint16",
                                                "value": {
                                                    "current": "373",
                                                    "prev": "317",
                                                    "typeTag": 1
                                                }
                                            },
                                            {
                                                "name": "launchBonus",
                                                "type": "uint8",
                                                "value": {
                                                    "current": "100",
                                                    "prev": "100",
                                                    "typeTag": 1
                                                }
                                            },
                                            {
                                                "name": "loanStart",
                                                "type": "uint16",
                                                "value": {
                                                    "current": "0",
                                                    "prev": "0",
                                                    "typeTag": 1
                                                }
                                            },
                                            {
                                                "name": "loanedDays",
                                                "type": "uint16",
                                                "value": {
                                                    "current": "0",
                                                    "prev": "0",
                                                    "typeTag": 1
                                                }
                                            },
                                            {
                                                "name": "interestRate",
                                                "type": "uint32",
                                                "value": {
                                                    "current": "0",
                                                    "prev": "0",
                                                    "typeTag": 1
                                                }
                                            },
                                            {
                                                "name": "paymentsMade",
                                                "type": "uint8",
                                                "value": {
                                                    "current": "0",
                                                    "prev": "0",
                                                    "typeTag": 1
                                                }
                                            },
                                            {
                                                "name": "isLoaned",
                                                "type": "bool",
                                                "value": {
                                                    "current": "false",
                                                    "prev": "false",
                                                    "typeTag": 1
                                                }
                                            }
                                        ],
                                        "typeTag": 3
                                    }
                                }
                            ],
                            "typeTag": 4
                        }
                    },
                    {
                        "name": "dailyDataList",
                        "type": "mapping(uint256 => struct Hedron.DailyDataStore)",
                        "value": {
                            "pairs": [
                                {
                                    "key": "176",
                                    "value": {
                                        "fields": [
                                            {
                                                "name": "dayMintedTotal",
                                                "type": "uint72",
                                                "value": {
                                                    "current": "48648318231161008314",
                                                    "prev": "48638746617949724946",
                                                    "typeTag": 1
                                                }
                                            },
                                            {
                                                "name": "dayLoanedTotal",
                                                "type": "uint72",
                                                "value": {
                                                    "current": "1309404484128910510",
                                                    "prev": "1309404484128910510",
                                                    "typeTag": 1
                                                }
                                            },
                                            {
                                                "name": "dayBurntTotal",
                                                "type": "uint72",
                                                "value": {
                                                    "current": "1111291480739532",
                                                    "prev": "1111291480739532",
                                                    "typeTag": 1
                                                }
                                            },
                                            {
                                                "name": "dayInterestRate",
                                                "type": "uint32",
                                                "value": {
                                                    "current": "537",
                                                    "prev": "537",
                                                    "typeTag": 1
                                                }
                                            },
                                            {
                                                "name": "dayMintMultiplier",
                                                "type": "uint8",
                                                "value": {
                                                    "current": "0",
                                                    "prev": "0",
                                                    "typeTag": 1
                                                }
                                            }
                                        ],
                                        "typeTag": 3
                                    }
                                }
                            ],
                            "typeTag": 4
                        }
                    },
                    {
                        "name": "_totalSupply",
                        "type": "uint256",
                        "value": {
                            "current": "93088375336220878512695",
                            "prev": "93088365764607667229327",
                            "typeTag": 1
                        }
                    }
                ]
            }
        ]
    }
}