{
    "balance_change": {
        "balanceChanges": [
            {
                "account": "0x18898548f219d5649c03d43aa8ffaf94d9f29ab9",
                "assets": [
                    {
                        "address": "0xb2f7eb1f2c37645be61d73953035360e768d81e6",
                        "amount": "10",
                        "iconUrl": "https://assets.blocksec.com/icon/2e742e8a9202fdf2bde34769c6cd1b9d8a1e8b5f40970ee559184f902fdcfd7b.png",
                        "isERC1155": false,
                        "isERC721": false,
                        "sign": false,
                        "value": ""
                    }
                ]
            },
            {
                "account": "0x00000f9ec07c056730188b975ead364e253547fa",
                "assets": [
                    {
                        "address": "0xb2f7eb1f2c37645be61d73953035360e768d81e6",
                        "amount": "10",
                        "iconUrl": "https://assets.blocksec.com/icon/2e742e8a9202fdf2bde34769c6cd1b9d8a1e8b5f40970ee559184f902fdcfd7b.png",
                        "isERC1155": false,
                        "isERC721": false,
                        "sign": true,
                        "value": ""
                    }
                ]
            }
        ]
    },
    "profile": {
        "basic_info": {
            "baseFee": "",
            "blockNumber": 4531490,
            "callData": "0xa9059cbb00000000000000000000000000000f9ec07c056730188b975ead364e253547fa0000000000000000000000000000000000000000000000008ac7230489e80000",
            "debugEnable": true,
            "errorInfo": "",
            "eventCount": 1,
            "feeRecipient": "0xbcdfc35b86bedf72f0cda046a3c16829a2ef41d1",
            "formatValue": "0",
            "gasLimit": 706950,
            "gasPrice": "1",
            "gasUsed": 21695,
            "intTxnCount": 0,
            "internalRevert": false,
            "internalRevertMessage": "",
            "isContractCreation": false,
            "isFlashloan": false,
            "maxFee": "",
            "nonce": 7,
            "overwritedBlockNumber": -1,
            "priorityFee": "",
            "receiver": "0xb2f7eb1f2c37645be61d73953035360e768d81e6",
            "revertMessage": "",
            "sender": "0x18898548f219d5649c03d43aa8ffaf94d9f29ab9",
            "simulationEnable": true,
            "sourceTxnHash": "0x370f28577e84314e2be4b5899068b3d1c0f78f40e4bc12cb8df196f02ab20fea",
            "status": true,
            "timestamp": "2017-11-11T09:10:34Z",
            "transactionFee": "0.000021695",
            "txnHash": "0x370f28577e84314e2be4b5899068b3d1c0f78f40e4bc12cb8df196f02ab20fea",
            "txnIndex": 105,
            "type": 0,
            "value": "0"
        },
        "fund_flow": [
            {
                "amount": "10",
                "from": "0x18898548f219d5649c03d43aa8ffaf94d9f29ab9",
                "id": 1,
                "isERC1155": false,
                "isERC721": false,
                "isReverted": false,
                "order": 1,
                "to": "0x00000f9ec07c056730188b975ead364e253547fa",
                "token": "0xb2f7eb1f2c37645be61d73953035360e768d81e6"
            }
        ],
        "token_infos": [
            {
                "address": "0xb2f7eb1f2c37645be61d73953035360e768d81e6",
                "decimals": 18
            },
            {
                "address": "0xc02aaa39b223fe8d0a0e5c4f27ead9083c756cc2",
                "decimals": 18
            },
            {
                "address": "0xeeeeeeeeeeeeeeeeeeeeeeeeeeeeeeeeeeeeeeee",
                "decimals": 18
            }
        ]
    },
    "address_label": {
        "labels": [
            {
                "address": "0x0000000000000000000000000000000000000003",
                "label": "Precompiled"
            },
            {
                "address": "0x0000000000000000000000000000000000000004",
                "label": "Precompiled"
            },
            {
                "address": "0xeeeeeeeeeeeeeeeeeeeeeeeeeeeeeeeeeeeeeeee",
                "label": "Ether"
            },
            {
                "address": "0xb2f7eb1f2c37645be61d73953035360e768d81e6",
                "label": "Cobinhood: COB Token"
            },
            {
                "address": "0x0000000000000000000000000000000000000001",
                "label": "Precompiled"
            },
            {
                "address": "0x0000000000000000000000000000000000000002",
                "label": "Precompiled"
            }
        ]
    },
    "trace": {
        "accountLabels": null,
        "dataMap": {
            "-1": {
                "invocation": {
                    "address": "0x18898548f219d5649c03d43aa8ffaf94d9f29ab9",
                    "callData": "",
                    "decodedMethod": null,
                    "errorInfo": "",
                    "fromAddress": "",
                    "gasUsed": 0,
                    "id": -1,
                    "methodDecoded": false,
                    "operation": "",
                    "output": "",
                    "revert": false,
                    "revertMessage": "",
                    "selector": "",
                    "status": false,
                    "value": ""
                },
                "nodeType": 0
            },
            "0": {
                "invocation": {
                    "address": "0xb2f7eb1f2c37645be61d73953035360e768d81e6",
                    "callData": "0x00000000000000000000000000000f9ec07c056730188b975ead364e253547fa0000000000000000000000000000000000000000000000008ac7230489e80000",
                    "decodedMethod": {
                        "callParams": [
                            {
                                "name": "_to",
                                "type": "address",
                                "value": "0x00000f9ec07c056730188b975ead364e253547fa"
                            },
                            {
                                "decimalAvailable": true,
                                "name": "_value",
                                "type": "uint256",
                                "value": "10,000,000,000,000,000,000"
                            }
                        ],
                        "constructorArguments": "",
                        "name": "transfer",
                        "returnParams": [
                            {
                                "name": "",
                                "type": "bool",
                                "value": true
                            }
                        ],
                        "signature": "transfer(address,uint256)"
                    },
                    "errorInfo": "",
                    "fromAddress": "0x18898548f219d5649c03d43aa8ffaf94d9f29ab9",
                    "gasUsed": 21695,
                    "id": 0,
                    "methodDecoded": true,
                    "operation": "CALL",
                    "output": "0x0000000000000000000000000000000000000000000000000000000000000001",
                    "revert": false,
                    "revertMessage": "",
                    "selector": "0xa9059cbb",
                    "status": true,
                    "value": "0"
                },
                "nodeType": 0
            },
            "1": {
                "event": {
                    "contract": "0xb2f7eb1f2c37645be61d73953035360e768d81e6",
                    "decodedLog": {
                        "name": "Transfer",
                        "params": [
                            {
                                "name": "from",
                                "type": "address",
                                "value": "0x18898548f219d5649c03d43aa8ffaf94d9f29ab9"
                            },
                            {
                                "name": "to",
                                "type": "address",
                                "value": "0x00000f9ec07c056730188b975ead364e253547fa"
                            },
                            {
                                "decimalAvailable": true,
                                "name": "value",
                                "type": "uint256",
                                "value": "10,000,000,000,000,000,000"
                            }
                        ],
                        "signature": "Transfer(address,address,uint256)"
                    },
                    "id": 1,
                    "logData": "0x0000000000000000000000000000000000000000000000008ac7230489e80000",
                    "logDecoded": true,
                    "operation": "EVENT",
                    "revert": false,
                    "status": true,
                    "topics": [
                        "0xddf252ad1be2c89b69c2b068fc378daa952ba7f163c4a11628f55a4df523b3ef",
                        "0x00000000000000000000000018898548f219d5649c03d43aa8ffaf94d9f29ab9",
                        "0x00000000000000000000000000000f9ec07c056730188b975ead364e253547fa"
                    ]
                },
                "nodeType": 1
            }
        },
        "gasFlame": [
            {
                "children": [
                    {
                        "children": [
                            {
                                "children": [],
                                "depth": 0,
                                "name": "Initial Gas",
                                "value": 23064
                            },
                            {
                                "children": [],
                                "depth": 0,
                                "name": "Executed Gas",
                                "value": 13631
                            }
                        ],
                        "depth": -1,
                        "name": "Actual Gas Used",
                        "value": 21695
                    },
                    {
                        "children": [],
                        "depth": -1,
                        "name": "Refunded Gas",
                        "value": 15000
                    }
                ],
                "depth": -2,
                "name": "Total Gas",
                "value": 36695
            }
        ],
        "isConfirmed": true,
        "mainTrace": [
            {
                "children": [
                    {
                        "children": [
                            {
                                "children": [],
                                "depth": 1,
                                "id": 1,
                                "order": 1
                            }
                        ],
                        "depth": 0,
                        "id": 0,
                        "order": 0
                    }
                ],
                "depth": -1,
                "id": -1,
                "order": -1
            }
        ],
        "mainTraceNodeCount": 2,
        "parentIdMap": {
            "0": -1,
            "1": 0
        },
        "tidyTrace": [
            {
                "children": [
                    {
                        "children": [
                            {
                                "children": [],
                                "depth": 1,
                                "id": 1,
                                "order": 1
                            }
                        ],
                        "depth": 0,
                        "id": 0,
                        "order": 0
                    }
                ],
                "depth": -1,
                "id": -1,
                "order": -1
            }
        ],
        "tidyTraceNodeCount": 2
    },
    "state_change": {
        "stateChanges": [
            {
                "address": "0xb2f7eb1f2c37645be61d73953035360e768d81e6",
                "erc": "ERC-20",
                "slots": [
                    {
                        "current": "0x0000000000000000000000000000000000000000000000000000000000000000",
                        "key": "0xa255199f51ebef85c24dd11230fd6b02c5a5509cc9e730bc558e5f8954f8c03e",
                        "prev": "0x0000000000000000000000000000000000000000000000008ac7230489e80000"
                    },
                    {
                        "current": "0x0000000000000000000000000000000000000000000004b97b52e3417c3c0000",
                        "key": "0x1cc526f54b3df3c4be469d3856e2e69d40e0ed4da9dc68963212ea3db60f0988",
                        "prev": "0x0000000000000000000000000000000000000000000004b8f08bc03cf2540000"
                    }
                ],
                "storageVariables": [
                    {
                        "name": "balances",
                        "type": "mapping(address => uint256)",
                        "value": {
                            "pairs": [
                                {
                                    "key": "0x00000f9ec07c056730188b975ead364e253547fa",
                                    "value": {
                                        "current": "22311000000000000000000",
                                        "prev": "22301000000000000000000",
                                        "typeTag": 1
                                    }
                                },
                                {
                                    "key": "0x18898548f219d5649c03d43aa8ffaf94d9f29ab9",
                                    "value": {
                                        "current": "0",
                                        "prev": "10000000000000000000",
                                        "typeTag": 1
                                    }
                                }
                            ],
                            "typeTag": 4
                        }
                    }
                ]
            }
        ]
    }
}