{
    "balance_change": {
        "balanceChanges": [
            {
                "account": "0x98c3d3183c4b8a650614ad179a1a98be0a8d6b8e",
                "assets": [
                    {
                        "address": "0x0f2d719407fdbeff09d87557abb7232601fd9f29",
                        "amount": "5,856.208377639656796514",
                        "iconUrl": "https://assets.blocksec.com/icon/23cd9fbcb7749d5d95cd6c00fd4dcc4112cf5bf7ddd355cd096d7cf126dbc4f1.png",
                        "isERC1155": false,
                        "isERC721": false,
                        "sign": false,
                        "value": "8023.0054778600006244"
                    },
                    {
                        "address": "0xc02aaa39b223fe8d0a0e5c4f27ead9083c756cc2",
                        "amount": "2.418295983365588186",
                        "iconUrl": "https://assets.blocksec.com/icon/f1cb2d02c471d545bbc7722daf3277fd852d98e63d118771af7047bd8256c516.png",
                        "isERC1155": false,
                        "isERC721": false,
                        "sign": true,
                        "value": "8009.883523"
                    }
                ]
            },
            {
                "account": "0x4a86c01d67965f8cb3d0aaa2c655705e64097c31",
                "assets": [
                    {
                        "address": "0x0f2d719407fdbeff09d87557abb7232601fd9f29",
                        "amount": "5,856.208377639656796514",
                        "iconUrl": "https://assets.blocksec.com/icon/23cd9fbcb7749d5d95cd6c00fd4dcc4112cf5bf7ddd355cd096d7cf126dbc4f1.png",
                        "isERC1155": false,
                        "isERC721": false,
                        "sign": true,
                        "value": "8023.0054778600006244"
                    },
                    {
                        "address": "0xc02aaa39b223fe8d0a0e5c4f27ead9083c756cc2",
                        "amount": "2.418295983365588186",
                        "iconUrl": "https://assets.blocksec.com/icon/f1cb2d02c471d545bbc7722daf3277fd852d98e63d118771af7047bd8256c516.png",
                        "isERC1155": false,
                        "isERC721": false,
                        "sign": false,
                        "value": "8009.883523"
                    }
                ]
            }
        ]
    },
    "profile": {
        "basic_info": {
            "baseFee": "23.615007436",
            "blockNumber": 19574737,
            "callData": "0xce2e62ff00000000000000000000000000000000000000000000013d77379bf10660b162000000000000000000000000000000000000000000000000218aaddfb312d2000000000000000000000000004a86c01d67965f8cb3d0aaa2c655705e64097c310000000000000000000000000f2d719407fdbeff09d87557abb7232601fd9f29000000000000000000000000000000000000000000000000000000000000000100000000000000000000000000000000000000000000000000000000660d33c0",
            "debugEnable": true,
            "errorInfo": "",
            "eventCount": 4,
            "feeRecipient": "0x88c6c46ebf353a52bdbab708c23d0c81daa8134a",
            "formatValue": "0",
            "gasLimit": 300005,
            "gasPrice": "60.804106728",
            "gasUsed": 100024,
            "intTxnCount": 8,
            "internalRevert": false,
            "internalRevertMessage": "",
            "isContractCreation": false,
            "isFlashloan": false,
            "maxFee": "67.180158735",
            "nonce": 904729,
            "overwritedBlockNumber": -1,
            "priorityFee": "37.189099292",
            "receiver": "0x98c3d3183c4b8a650614ad179a1a98be0a8d6b8e",
            "revertMessage": "",
            "sender": "0x91aae0aafd9d2d730111b395c6871f248d7bd728",
            "simulationEnable": true,
            "sourceTxnHash": "0x375ad3ba56768618520410bca0dde14f99340d3a829f1838ba169a841a27fb6d",
            "status": true,
            "timestamp": "2024-04-03T10:46:11Z",
            "transactionFee": "0.006081869971361472",
            "txnHash": "0x375ad3ba56768618520410bca0dde14f99340d3a829f1838ba169a841a27fb6d",
            "txnIndex": 0,
            "type": 2,
            "value": "0"
        },
        "fund_flow": [
            {
                "amount": "5,856.208377639656796514",
                "from": "0x98c3d3183c4b8a650614ad179a1a98be0a8d6b8e",
                "id": 1,
                "isERC1155": false,
                "isERC721": false,
                "isReverted": false,
                "order": 1,
                "to": "0x4a86c01d67965f8cb3d0aaa2c655705e64097c31",
                "token": "0x0f2d719407fdbeff09d87557abb7232601fd9f29"
            },
            {
                "amount": "2.418295983365588186",
                "from": "0x4a86c01d67965f8cb3d0aaa2c655705e64097c31",
                "id": 2,
                "isERC1155": false,
                "isERC721": false,
                "isReverted": false,
                "order": 2,
                "to": "0x98c3d3183c4b8a650614ad179a1a98be0a8d6b8e",
                "token": "0xc02aaa39b223fe8d0a0e5c4f27ead9083c756cc2"
            }
        ],
        "token_infos": [
            {
                "address": "0x0f2d719407fdbeff09d87557abb7232601fd9f29",
                "decimals": 18
            },
            {
                "address": "0xc02aaa39b223fe8d0a0e5c4f27ead9083c756cc2",
                "decimals": 18
            },
            {
                "address": "0xeeeeeeeeeeeeeeeeeeeeeeeeeeeeeeeeeeeeeeee",
                "decimals": 18
            }
        ]
    },
    "address_label": {
        "labels": [
            {
                "address": "0x98c3d3183c4b8a650614ad179a1a98be0a8d6b8e",
                "label": "MEV Bot: 0x98c...b8e"
            },
            {
                "address": "0x0000000000000000000000000000000000000003",
                "label": "Precompiled"
            },
            {
                "address": "0xeeeeeeeeeeeeeeeeeeeeeeeeeeeeeeeeeeeeeeee",
                "label": "Ether"
            },
            {
                "address": "0x0f2d719407fdbeff09d87557abb7232601fd9f29",
                "label": "Synapse: SYN Token"
            },
            {
                "address": "0x3c726e4eb2e0b36ca3097ee4f5cd4739d7cdc750",
                "label": "SynapseERC20"
            },
            {
                "address": "0xc02aaa39b223fe8d0a0e5c4f27ead9083c756cc2",
                "label": "Wrapped Ether (WETH)"
            },
            {
                "address": "0x4a86c01d67965f8cb3d0aaa2c655705e64097c31",
                "label": "SushiSwap LP Token (SLP)"
            },
            {
                "address": "0x0000000000000000000000000000000000000001",
                "label": "Precompiled"
            },
            {
                "address": "0x0000000000000000000000000000000000000002",
                "label": "Precompiled"
            },
            {
                "address": "0x0000000000000000000000000000000000000004",
                "label": "Precompiled"
            }
        ]
    },
    "trace": {
        "accountLabels": null,
        "dataMap": {
            "-1": {
                "invocation": {
                    "address": "0x91aae0aafd9d2d730111b395c6871f248d7bd728",
                    "callData": "",
                    "decodedMethod": null,
                    "errorInfo": "",
                    "fromAddress": "",
                    "gasUsed": 0,
                    "id": -1,
                    "methodDecoded": false,
                    "operation": "",
                    "output": "",
                    "revert": false,
                    "revertMessage": "",
                    "selector": "",
                    "status": false,
                    "value": ""
                },
                "nodeType": 0
            },
            "0": {
                "invocation": {
                    "address": "0x98c3d3183c4b8a650614ad179a1a98be0a8d6b8e",
                    "callData": "0x00000000000000000000000000000000000000000000013d77379bf10660b162000000000000000000000000000000000000000000000000218aaddfb312d2000000000000000000000000004a86c01d67965f8cb3d0aaa2c655705e64097c310000000000000000000000000f2d719407fdbeff09d87557abb7232601fd9f29000000000000000000000000000000000000000000000000000000000000000100000000000000000000000000000000000000000000000000000000660d33c0",
                    "decodedMethod": null,
                    "errorInfo": "",
                    "fromAddress": "0x91aae0aafd9d2d730111b395c6871f248d7bd728",
                    "gasUsed": 100024,
                    "id": 0,
                    "methodDecoded": false,
                    "operation": "CALL",
                    "output": "",
                    "revert": false,
                    "revertMessage": "",
                    "selector": "0xce2e62ff",
                    "status": true,
                    "value": "0"
                },
                "nodeType": 0
            },
            "1": {
                "invocation": {
                    "address": "0x4a86c01d67965f8cb3d0aaa2c655705e64097c31",
                    "callData": "0x",
                    "decodedMethod": {
                        "callParams": [],
                        "constructorArguments": "",
                        "name": "getReserves",
                        "returnParams": [
                            {
                                "name": "_reserve0",
                                "type": "uint112",
                                "value": "1,972,183,187,827,397,436,348,788"
                            },
                            {
                                "name": "_reserve1",
                                "type": "uint112",
                                "value": "819,273,399,868,905,881,147"
                            },
                            {
                                "name": "_blockTimestampLast",
                                "type": "uint32",
                                "value": "1,712,139,995"
                            }
                        ],
                        "signature": "getReserves()"
                    },
                    "errorInfo": "",
                    "fromAddress": "0x98c3d3183c4b8a650614ad179a1a98be0a8d6b8e",
                    "gasUsed": 2517,
                    "id": 1,
                    "methodDecoded": true,
                    "operation": "STATICCALL",
                    "output": "0x00000000000000000000000000000000000000000001a1a043cc7ea96843997400000000000000000000000000000000000000000000002c69b3d07bf8b1fe3b00000000000000000000000000000000000000000000000000000000660d2edb",
                    "revert": false,
                    "revertMessage": "",
                    "selector": "0x0902f1ac",
                    "status": true,
                    "value": "0"
                },
                "nodeType": 0
            },
            "10": {
                "invocation": {
                    "address": "0xc02aaa39b223fe8d0a0e5c4f27ead9083c756cc2",
                    "callData": "0x0000000000000000000000004a86c01d67965f8cb3d0aaa2c655705e64097c31",
                    "decodedMethod": {
                        "callParams": [
                            {
                                "name": "",
                                "type": "address",
                                "value": "0x4a86c01d67965f8cb3d0aaa2c655705e64097c31"
                            }
                        ],
                        "constructorArguments": "",
                        "name": "balanceOf",
                        "returnParams": [
                            {
                                "decimalAvailable": true,
                                "name": "",
                                "type": "uint256",
                                "value": "816,855,103,885,540,292,961"
                            }
                        ],
                        "signature": "balanceOf(address)"
                    },
                    "errorInfo": "",
                    "fromAddress": "0x4a86c01d67965f8cb3d0aaa2c655705e64097c31",
                    "gasUsed": 534,
                    "id": 10,
                    "methodDecoded": true,
                    "operation": "STATICCALL",
                    "output": "0x00000000000000000000000000000000000000000000002c48244d199e6f7961",
                    "revert": false,
                    "revertMessage": "",
                    "selector": "0x70a08231",
                    "status": true,
                    "value": "0"
                },
                "nodeType": 0
            },
            "11": {
                "event": {
                    "contract": "0x4a86c01d67965f8cb3d0aaa2c655705e64097c31",
                    "decodedLog": {
                        "name": "Sync",
                        "params": [
                            {
                                "name": "reserve0",
                                "type": "uint112",
                                "value": "1,978,039,396,205,037,093,145,302"
                            },
                            {
                                "name": "reserve1",
                                "type": "uint112",
                                "value": "816,855,103,885,540,292,961"
                            }
                        ],
                        "signature": "Sync(uint112,uint112)"
                    },
                    "id": 11,
                    "logData": "0x00000000000000000000000000000000000000000001a2ddbb041a9a6ea44ad600000000000000000000000000000000000000000000002c48244d199e6f7961",
                    "logDecoded": true,
                    "operation": "EVENT",
                    "revert": false,
                    "status": true,
                    "topics": [
                        "0x1c411e9a96e071241c2f21f7726b17ae89e3cab4c78be50e062b03a9fffbbad1"
                    ]
                },
                "nodeType": 1
            },
            "12": {
                "event": {
                    "contract": "0x4a86c01d67965f8cb3d0aaa2c655705e64097c31",
                    "decodedLog": {
                        "name": "Swap",
                        "params": [
                            {
                                "name": "sender",
                                "type": "address",
                                "value": "0x98c3d3183c4b8a650614ad179a1a98be0a8d6b8e"
                            },
                            {
                                "name": "to",
                                "type": "address",
                                "value": "0x98c3d3183c4b8a650614ad179a1a98be0a8d6b8e"
                            },
                            {
                                "name": "amount0In",
                                "type": "uint256",
                                "value": "5,856,208,377,639,656,796,514"
                            },
                            {
                                "name": "amount1In",
                                "type": "uint256",
                                "value": "0"
                            },
                            {
                                "name": "amount0Out",
                                "type": "uint256",
                                "value": "0"
                            },
                            {
                                "name": "amount1Out",
                                "type": "uint256",
                                "value": "2,418,295,983,365,588,186"
                            }
                        ],
                        "signature": "Swap(address,uint256,uint256,uint256,uint256,address)"
                    },
                    "id": 12,
                    "logData": "0x00000000000000000000000000000000000000000000013d77379bf10660b16200000000000000000000000000000000000000000000000000000000000000000000000000000000000000000000000000000000000000000000000000000000000000000000000000000000000000000000000000000000218f83625a4284da",
                    "logDecoded": true,
                    "operation": "EVENT",
                    "revert": false,
                    "status": true,
                    "topics": [
                        "0xd78ad95fa46c994b6551d0da85fc275fe613ce37657fb8d5e3d130840159d822",
                        "0x00000000000000000000000098c3d3183c4b8a650614ad179a1a98be0a8d6b8e",
                        "0x00000000000000000000000098c3d3183c4b8a650614ad179a1a98be0a8d6b8e"
                    ]
                },
                "nodeType": 1
            },
            "2": {
                "invocation": {
                    "address": "0x0f2d719407fdbeff09d87557abb7232601fd9f29",
                    "callData": "0x0000000000000000000000004a86c01d67965f8cb3d0aaa2c655705e64097c3100000000000000000000000000000000000000000000013d77379bf10660b162",
                    "decodedMethod": {
                        "callParams": [
                            {
                                "name": "recipient",
                                "type": "address",
                                "value": "0x4a86c01d67965f8cb3d0aaa2c655705e64097c31"
                            },
                            {
                                "decimalAvailable": true,
                                "name": "amount",
                                "type": "uint256",
                                "value": "5,856,208,377,639,656,796,514"
                            }
                        ],
                        "constructorArguments": "",
                        "name": "transfer",
                        "returnParams": [
                            {
                                "name": "",
                                "type": "bool",
                                "value": true
                            }
                        ],
                        "signature": "transfer(address,uint256)"
                    },
                    "errorInfo": "",
                    "fromAddress": "0x98c3d3183c4b8a650614ad179a1a98be0a8d6b8e",
                    "gasUsed": 15600,
                    "id": 2,
                    "methodDecoded": true,
                    "operation": "CALL",
                    "output": "0x0000000000000000000000000000000000000000000000000000000000000001",
                    "revert": false,
                    "revertMessage": "",
                    "selector": "0xa9059cbb",
                    "status": true,
                    "value": "0"
                },
                "nodeType": 0
            },
            "3": {
                "invocation": {
                    "address": "0x3c726e4eb2e0b36ca3097ee4f5cd4739d7cdc750",
                    "callData": "0x0000000000000000000000004a86c01d67965f8cb3d0aaa2c655705e64097c3100000000000000000000000000000000000000000000013d77379bf10660b162",
                    "decodedMethod": {
                        "callParams": [
                            {
                                "name": "recipient",
                                "type": "address",
                                "value": "0x4a86c01d67965f8cb3d0aaa2c655705e64097c31"
                            },
                            {
                                "decimalAvailable": true,
                                "name": "amount",
                                "type": "uint256",
                                "value": "5,856,208,377,639,656,796,514"
                            }
                        ],
                        "constructorArguments": "",
                        "name": "transfer",
                        "returnParams": [
                            {
                                "name": "",
                                "type": "bool",
                                "value": true
                            }
                        ],
                        "signature": "transfer(address,uint256)"
                    },
                    "errorInfo": "",
                    "fromAddress": "0x0f2d719407fdbeff09d87557abb7232601fd9f29",
                    "gasUsed": 12922,
                    "id": 3,
                    "methodDecoded": true,
                    "operation": "DELEGATECALL",
                    "output": "0x0000000000000000000000000000000000000000000000000000000000000001",
                    "revert": false,
                    "revertMessage": "",
                    "selector": "0xa9059cbb",
                    "status": true,
                    "value": "0"
                },
                "nodeType": 0
            },
            "4": {
                "event": {
                    "contract": "0x0f2d719407fdbeff09d87557abb7232601fd9f29",
                    "decodedLog": {
                        "name": "Transfer",
                        "params": [
                            {
                                "name": "from",
                                "type": "address",
                                "value": "0x98c3d3183c4b8a650614ad179a1a98be0a8d6b8e"
                            },
                            {
                                "name": "to",
                                "type": "address",
                                "value": "0x4a86c01d67965f8cb3d0aaa2c655705e64097c31"
                            },
                            {
                                "decimalAvailable": true,
                                "name": "value",
                                "type": "uint256",
                                "value": "5,856,208,377,639,656,796,514"
                            }
                        ],
                        "signature": "Transfer(address,address,uint256)"
                    },
                    "id": 4,
                    "logData": "0x00000000000000000000000000000000000000000000013d77379bf10660b162",
                    "logDecoded": true,
                    "operation": "EVENT",
                    "revert": false,
                    "status": true,
                    "topics": [
                        "0xddf252ad1be2c89b69c2b068fc378daa952ba7f163c4a11628f55a4df523b3ef",
                        "0x00000000000000000000000098c3d3183c4b8a650614ad179a1a98be0a8d6b8e",
                        "0x0000000000000000000000004a86c01d67965f8cb3d0aaa2c655705e64097c31"
                    ]
                },
                "nodeType": 1
            },
            "5": {
                "invocation": {
                    "address": "0x4a86c01d67965f8cb3d0aaa2c655705e64097c31",
                    "callData": "0x0000000000000000000000000000000000000000000000000000000000000000000000000000000000000000000000000000000000000000218f83625a4284da00000000000000000000000098c3d3183c4b8a650614ad179a1a98be0a8d6b8e00000000000000000000000000000000000000000000000000000000000000800000000000000000000000000000000000000000000000000000000000000000",
                    "decodedMethod": {
                        "callParams": [
                            {
                                "name": "amount0Out",
                                "type": "uint256",
                                "value": "0"
                            },
                            {
                                "name": "amount1Out",
                                "type": "uint256",
                                "value": "2,418,295,983,365,588,186"
                            },
                            {
                                "name": "to",
                                "type": "address",
                                "value": "0x98c3d3183c4b8a650614ad179a1a98be0a8d6b8e"
                            },
                            {
                                "name": "data",
                                "type": "bytes",
                                "value": "0x"
                            }
                        ],
                        "constructorArguments": "",
                        "name": "swap",
                        "returnParams": [],
                        "signature": "swap(uint256,uint256,address,bytes)"
                    },
                    "errorInfo": "",
                    "fromAddress": "0x98c3d3183c4b8a650614ad179a1a98be0a8d6b8e",
                    "gasUsed": 48317,
                    "id": 5,
                    "methodDecoded": true,
                    "operation": "CALL",
                    "output": "",
                    "revert": false,
                    "revertMessage": "",
                    "selector": "0x022c0d9f",
                    "status": true,
                    "value": "0"
                },
                "nodeType": 0
            },
            "6": {
                "invocation": {
                    "address": "0xc02aaa39b223fe8d0a0e5c4f27ead9083c756cc2",
                    "callData": "0x00000000000000000000000098c3d3183c4b8a650614ad179a1a98be0a8d6b8e000000000000000000000000000000000000000000000000218f83625a4284da",
                    "decodedMethod": {
                        "callParams": [
                            {
                                "name": "dst",
                                "type": "address",
                                "value": "0x98c3d3183c4b8a650614ad179a1a98be0a8d6b8e"
                            },
                            {
                                "decimalAvailable": true,
                                "name": "wad",
                                "type": "uint256",
                                "value": "2,418,295,983,365,588,186"
                            }
                        ],
                        "constructorArguments": "",
                        "name": "transfer",
                        "returnParams": [
                            {
                                "name": "",
                                "type": "bool",
                                "value": true
                            }
                        ],
                        "signature": "transfer(address,uint256)"
                    },
                    "errorInfo": "",
                    "fromAddress": "0x4a86c01d67965f8cb3d0aaa2c655705e64097c31",
                    "gasUsed": 12862,
                    "id": 6,
                    "methodDecoded": true,
                    "operation": "CALL",
                    "output": "0x0000000000000000000000000000000000000000000000000000000000000001",
                    "revert": false,
                    "revertMessage": "",
                    "selector": "0xa9059cbb",
                    "status": true,
                    "value": "0"
                },
                "nodeType": 0
            },
            "7": {
                "event": {
                    "contract": "0xc02aaa39b223fe8d0a0e5c4f27ead9083c756cc2",
                    "decodedLog": {
                        "name": "Transfer",
                        "params": [
                            {
                                "name": "src",
                                "type": "address",
                                "value": "0x4a86c01d67965f8cb3d0aaa2c655705e64097c31"
                            },
                            {
                                "name": "dst",
                                "type": "address",
                                "value": "0x98c3d3183c4b8a650614ad179a1a98be0a8d6b8e"
                            },
                            {
                                "decimalAvailable": true,
                                "name": "wad",
                                "type": "uint256",
                                "value": "2,418,295,983,365,588,186"
                            }
                        ],
                        "signature": "Transfer(address,address,uint256)"
                    },
                    "id": 7,
                    "logData": "0x000000000000000000000000000000000000000000000000218f83625a4284da",
                    "logDecoded": true,
                    "operation": "EVENT",
                    "revert": false,
                    "status": true,
                    "topics": [
                        "0xddf252ad1be2c89b69c2b068fc378daa952ba7f163c4a11628f55a4df523b3ef",
                        "0x0000000000000000000000004a86c01d67965f8cb3d0aaa2c655705e64097c31",
                        "0x00000000000000000000000098c3d3183c4b8a650614ad179a1a98be0a8d6b8e"
                    ]
                },
                "nodeType": 1
            },
            "8": {
                "invocation": {
                    "address": "0x0f2d719407fdbeff09d87557abb7232601fd9f29",
                    "callData": "0x0000000000000000000000004a86c01d67965f8cb3d0aaa2c655705e64097c31",
                    "decodedMethod": {
                        "callParams": [
                            {
                                "name": "account",
                                "type": "address",
                                "value": "0x4a86c01d67965f8cb3d0aaa2c655705e64097c31"
                            }
                        ],
                        "constructorArguments": "",
                        "name": "balanceOf",
                        "returnParams": [
                            {
                                "decimalAvailable": true,
                                "name": "",
                                "type": "uint256",
                                "value": "1,978,039,396,205,037,093,145,302"
                            }
                        ],
                        "signature": "balanceOf(address)"
                    },
                    "errorInfo": "",
                    "fromAddress": "0x4a86c01d67965f8cb3d0aaa2c655705e64097c31",
                    "gasUsed": 725,
                    "id": 8,
                    "methodDecoded": true,
                    "operation": "STATICCALL",
                    "output": "0x00000000000000000000000000000000000000000001a2ddbb041a9a6ea44ad6",
                    "revert": false,
                    "revertMessage": "",
                    "selector": "0x70a08231",
                    "status": true,
                    "value": "0"
                },
                "nodeType": 0
            },
            "9": {
                "invocation": {
                    "address": "0x3c726e4eb2e0b36ca3097ee4f5cd4739d7cdc750",
                    "callData": "0x0000000000000000000000004a86c01d67965f8cb3d0aaa2c655705e64097c31",
                    "decodedMethod": {
                        "callParams": [
                            {
                                "name": "account",
                                "type": "address",
                                "value": "0x4a86c01d67965f8cb3d0aaa2c655705e64097c31"
                            }
                        ],
                        "constructorArguments": "",
                        "name": "balanceOf",
                        "returnParams": [
                            {
                                "decimalAvailable": true,
                                "name": "",
                                "type": "uint256",
                                "value": "1,978,039,396,205,037,093,145,302"
                            }
                        ],
                        "signature": "balanceOf(address)"
                    },
                    "errorInfo": "",
                    "fromAddress": "0x0f2d719407fdbeff09d87557abb7232601fd9f29",
                    "gasUsed": 553,
                    "id": 9,
                    "methodDecoded": true,
                    "operation": "DELEGATECALL",
                    "output": "0x00000000000000000000000000000000000000000001a2ddbb041a9a6ea44ad6",
                    "revert": false,
                    "revertMessage": "",
                    "selector": "0x70a08231",
                    "status": true,
                    "value": "0"
                },
                "nodeType": 0
            }
        },
        "gasFlame": [
            {
                "children": [
                    {
                        "children": [
                            {
                                "children": [],
                                "depth": 0,
                                "name": "Initial Gas",
                                "value": 22576
                            },
                            {
                                "children": [
                                    {
                                        "children": [],
                                        "depth": 1,
                                        "name": "getReserves",
                                        "value": 2517
                                    },
                                    {
                                        "children": [
                                            {
                                                "children": [],
                                                "depth": 2,
                                                "name": "transfer",
                                                "value": 12922
                                            }
                                        ],
                                        "depth": 1,
                                        "name": "transfer",
                                        "value": 15600
                                    },
                                    {
                                        "children": [
                                            {
                                                "children": [],
                                                "depth": 2,
                                                "name": "transfer",
                                                "value": 12862
                                            },
                                            {
                                                "children": [
                                                    {
                                                        "children": [],
                                                        "depth": 3,
                                                        "name": "balanceOf",
                                                        "value": 553
                                                    }
                                                ],
                                                "depth": 2,
                                                "name": "balanceOf",
                                                "value": 725
                                            },
                                            {
                                                "children": [],
                                                "depth": 2,
                                                "name": "balanceOf",
                                                "value": 534
                                            }
                                        ],
                                        "depth": 1,
                                        "name": "swap",
                                        "value": 48317
                                    }
                                ],
                                "depth": 0,
                                "name": "Executed Gas",
                                "value": 80248
                            }
                        ],
                        "depth": -1,
                        "name": "Actual Gas Used",
                        "value": 100024
                    },
                    {
                        "children": [],
                        "depth": -1,
                        "name": "Refunded Gas",
                        "value": 2800
                    }
                ],
                "depth": -2,
                "name": "Total Gas",
                "value": 102824
            }
        ],
        "isConfirmed": true,
        "mainTrace": [
            {
                "children": [
                    {
                        "children": [
                            {
                                "children": [],
                                "depth": 1,
                                "id": 1,
                                "order": 1
                            },
                            {
                                "children": [
                                    {
                                        "children": [
                                            {
                                                "children": [],
                                                "depth": 3,
                                                "id": 4,
                                                "order": 4
                                            }
                                        ],
                                        "depth": 2,
                                        "id": 3,
                                        "order": 3
                                    }
                                ],
                                "depth": 1,
                                "id": 2,
                                "order": 2
                            },
                            {
                                "children": [
                                    {
                                        "children": [
                                            {
                                                "children": [],
                                                "depth": 3,
                                                "id": 7,
                                                "order": 7
                                            }
                                        ],
                                        "depth": 2,
                                        "id": 6,
                                        "order": 6
                                    },
                                    {
                                        "children": [
                                            {
                                                "children": [],
                                                "depth": 3,
                                                "id": 9,
                                                "order": 9
                                            }
                                        ],
                                        "depth": 2,
                                        "id": 8,
                                        "order": 8
                                    },
                                    {
                                        "children": [],
                                        "depth": 2,
                                        "id": 10,
                                        "order": 10
                                    },
                                    {
                                        "children": [],
                                        "depth": 2,
                                        "id": 11,
                                        "order": 11
                                    },
                                    {
                                        "children": [],
                                        "depth": 2,
                                        "id": 12,
                                        "order": 12
                                    }
                                ],
                                "depth": 1,
                                "id": 5,
                                "order": 5
                            }
                        ],
                        "depth": 0,
                        "id": 0,
                        "order": 0
                    }
                ],
                "depth": -1,
                "id": -1,
                "order": -1
            }
        ],
        "mainTraceNodeCount": 13,
        "parentIdMap": {
            "0": -1,
            "1": 0,
            "10": 5,
            "11": 5,
            "12": 5,
            "2": 0,
            "3": 2,
            "4": 3,
            "5": 0,
            "6": 5,
            "7": 6,
            "8": 5,
            "9": 8
        },
        "tidyTrace": [
            {
                "children": [
                    {
                        "children": [
                            {
                                "children": [
                                    {
                                        "children": [
                                            {
                                                "children": [],
                                                "depth": 3,
                                                "id": 4,
                                                "order": 4
                                            }
                                        ],
                                        "depth": 2,
                                        "id": 3,
                                        "order": 3
                                    }
                                ],
                                "depth": 1,
                                "id": 2,
                                "order": 2
                            },
                            {
                                "children": [
                                    {
                                        "children": [
                                            {
                                                "children": [],
                                                "depth": 3,
                                                "id": 7,
                                                "order": 7
                                            }
                                        ],
                                        "depth": 2,
                                        "id": 6,
                                        "order": 6
                                    },
                                    {
                                        "children": [],
                                        "depth": 2,
                                        "id": 11,
                                        "order": 11
                                    },
                                    {
                                        "children": [],
                                        "depth": 2,
                                        "id": 12,
                                        "order": 12
                                    }
                                ],
                                "depth": 1,
                                "id": 5,
                                "order": 5
                            }
                        ],
                        "depth": 0,
                        "id": 0,
                        "order": 0
                    }
                ],
                "depth": -1,
                "id": -1,
                "order": -1
            }
        ],
        "tidyTraceNodeCount": 9
    },
    "state_change": {
        "stateChanges": [
            {
                "address": "0x0f2d719407fdbeff09d87557abb7232601fd9f29",
                "erc": "ERC-20",
                "slots": [
                    {
                        "current": "0x00000000000000000000000000000000000000000000003bd001aef64da52579",
                        "key": "0x7e85f15ac636a7ffdc57435dd423e2db8d3996dac8f81949801bc7ab5209d230",
                        "prev": "0x00000000000000000000000000000000000000000000017947394ae75405d6db"
                    },
                    {
                        "current": "0x00000000000000000000000000000000000000000001a2ddbb041a9a6ea44ad6",
                        "key": "0xee9649f1161dffa1afa2b4dc439ed3b41095b0a71656abc9003056f788f96343",
                        "prev": "0x00000000000000000000000000000000000000000001a1a043cc7ea968439974"
                    }
                ],
                "storageVariables": [
                    {
                        "name": "_balances",
                        "type": "mapping(address => uint256)",
                        "value": {
                            "pairs": [
                                {
                                    "key": "0x4a86c01d67965f8cb3d0aaa2c655705e64097c31",
                                    "value": {
                                        "current": "1978039396205037093145302",
                                        "prev": "1972183187827397436348788",
                                        "typeTag": 1
                                    }
                                },
                                {
                                    "key": "0x98c3d3183c4b8a650614ad179a1a98be0a8d6b8e",
                                    "value": {
                                        "current": "1103346353756617123193",
                                        "prev": "6959554731396273919707",
                                        "typeTag": 1
                                    }
                                }
                            ],
                            "typeTag": 4
                        }
                    }
                ]
            },
            {
                "address": "0x4a86c01d67965f8cb3d0aaa2c655705e64097c31",
                "erc": "ERC-20",
                "slots": [
                    {
                        "current": "0x00000000000000000000000000000000af4e86237784671434e3f51ce6870d1a",
                        "key": "0x0000000000000000000000000000000000000000000000000000000000000009",
                        "prev": "0x00000000000000000000000000000000af4e091355dd1221b0110e3e967e42da"
                    },
                    {
                        "current": "0x000000000000000000000000002ed927a8942949ce53f1890e17d73bd6d128e0",
                        "key": "0x000000000000000000000000000000000000000000000000000000000000000a",
                        "prev": "0x000000000000000000000000002ed8fc76586597b53ccabeafb707c8beda23d8"
                    },
                    {
                        "current": "0x660d337300000000002c48244d199e6f796100000001a2ddbb041a9a6ea44ad6",
                        "key": "0x0000000000000000000000000000000000000000000000000000000000000008",
                        "prev": "0x660d2edb00000000002c69b3d07bf8b1fe3b00000001a1a043cc7ea968439974"
                    }
                ],
                "storageVariables": [
                    {
                        "name": "price0CumulativeLast",
                        "type": "uint256",
                        "value": {
                            "current": "233022619070187352789703209459569331482",
                            "prev": "233020082490920999014223191327836619482",
                            "typeTag": 1
                        }
                    },
                    {
                        "name": "price1CumulativeLast",
                        "type": "uint256",
                        "value": {
                            "current": "1044751140271511207867063379756614760264706272",
                            "prev": "1044736441358019123363032642236002876421448664",
                            "typeTag": 1
                        }
                    },
                    {
                        "name": "reserve0",
                        "type": "uint112",
                        "value": {
                            "current": "1978039396205037093145302",
                            "prev": "1972183187827397436348788",
                            "typeTag": 1
                        }
                    },
                    {
                        "name": "reserve1",
                        "type": "uint112",
                        "value": {
                            "current": "816855103885540292961",
                            "prev": "819273399868905881147",
                            "typeTag": 1
                        }
                    },
                    {
                        "name": "blockTimestampLast",
                        "type": "uint32",
                        "value": {
                            "current": "1712141171",
                            "prev": "1712139995",
                            "typeTag": 1
                        }
                    }
                ]
            },
            {
                "address": "0xc02aaa39b223fe8d0a0e5c4f27ead9083c756cc2",
                "erc": "ERC-20",
                "slots": [
                    {
                        "current": "0x00000000000000000000000000000000000000000000002c48244d199e6f7961",
                        "key": "0xb4f7405b3378ce3123fce6695642395a147de04c5a7b0403ed5c26f979d812ed",
                        "prev": "0x00000000000000000000000000000000000000000000002c69b3d07bf8b1fe3b"
                    },
                    {
                        "current": "0x00000000000000000000000000000000000000000000001c8cf0556c5a774647",
                        "key": "0x993460b7a842a34c6de2dc08dde1c527f4354825432b190bba2e4f8a7b04c6c8",
                        "prev": "0x00000000000000000000000000000000000000000000001c6b60d20a0034c16d"
                    }
                ],
                "storageVariables": [
                    {
                        "name": "balanceOf",
                        "type": "mapping(address => uint256)",
                        "value": {
                            "pairs": [
                                {
                                    "key": "0x4a86c01d67965f8cb3d0aaa2c655705e64097c31",
                                    "value": {
                                        "current": "816855103885540292961",
                                        "prev": "819273399868905881147",
                                        "typeTag": 1
                                    }
                                },
                                {
                                    "key": "0x98c3d3183c4b8a650614ad179a1a98be0a8d6b8e",
                                    "value": {
                                        "current": "526664545147450508871",
                                        "prev": "524246249164084920685",
                                        "typeTag": 1
                                    }
                                }
                            ],
                            "typeTag": 4
                        }
                    }
                ]
            }
        ]
    }
}