{
    "balance_change": {
        "balanceChanges": [
            {
                "account": "0xdae70b3e66425f974c504d2fe757d71f87f94c60",
                "assets": [
                    {
                        "address": "0xde30da39c46104798bb5aa3fe8b9e0e1f348163f",
                        "amount": "101",
                        "iconUrl": "https://assets.blocksec.com/icon/953dc5fbf57dad97b0da359dd8fa43a22305fec95d716248a18aeb59723d006a.png",
                        "isERC1155": false,
                        "isERC721": false,
                        "sign": true,
                        "value": "108.574999999999995515"
                    }
                ]
            },
            {
                "account": "0x0e3efd5be54cc0f4c64e0d186b0af4b7f2a0e95f",
                "assets": [
                    {
                        "address": "0xde30da39c46104798bb5aa3fe8b9e0e1f348163f",
                        "amount": "101",
                        "iconUrl": "https://assets.blocksec.com/icon/953dc5fbf57dad97b0da359dd8fa43a22305fec95d716248a18aeb59723d006a.png",
                        "isERC1155": false,
                        "isERC721": false,
                        "sign": false,
                        "value": "108.574999999999995515"
                    }
                ]
            }
        ]
    },
    "profile": {
        "basic_info": {
            "baseFee": "15.228031483",
            "blockNumber": 17761398,
            "callData": "0x9e2c8a5b000000000000000000000000000000000000000000000000000000000000000100000000000000000000000000000000000000000000000579a814e10a740000",
            "debugEnable": true,
            "errorInfo": "",
            "eventCount": 3,
            "feeRecipient": "0x1f9090aae28b8a3dceadf281b0f12828e676c326",
            "formatValue": "0",
            "gasLimit": 97187,
            "gasPrice": "15.328031483",
            "gasUsed": 92387,
            "intTxnCount": 1,
            "internalRevert": false,
            "internalRevertMessage": "",
            "isContractCreation": false,
            "isFlashloan": false,
            "maxFee": "21.297133376",
            "nonce": 43,
            "overwritedBlockNumber": -1,
            "priorityFee": "0.1",
            "receiver": "0x0e3efd5be54cc0f4c64e0d186b0af4b7f2a0e95f",
            "revertMessage": "",
            "sender": "0xdae70b3e66425f974c504d2fe757d71f87f94c60",
            "simulationEnable": true,
            "sourceTxnHash": "0x37c5236775e218e05271e5bc741df824cb2679ab90cce5c1b99669da790c492b",
            "status": true,
            "timestamp": "2023-07-24T07:12:59Z",
            "transactionFee": "0.001416110844619921",
            "txnHash": "0x37c5236775e218e05271e5bc741df824cb2679ab90cce5c1b99669da790c492b",
            "txnIndex": 60,
            "type": 2,
            "value": "0"
        },
        "fund_flow": [
            {
                "amount": "101",
                "from": "0x0e3efd5be54cc0f4c64e0d186b0af4b7f2a0e95f",
                "id": 1,
                "isERC1155": false,
                "isERC721": false,
                "isReverted": false,
                "order": 1,
                "to": "0xdae70b3e66425f974c504d2fe757d71f87f94c60",
                "token": "0xde30da39c46104798bb5aa3fe8b9e0e1f348163f"
            }
        ],
        "token_infos": [
            {
                "address": "0xeeeeeeeeeeeeeeeeeeeeeeeeeeeeeeeeeeeeeeee",
                "decimals": 18
            },
            {
                "address": "0xc02aaa39b223fe8d0a0e5c4f27ead9083c756cc2",
                "decimals": 18
            },
            {
                "address": "0xde30da39c46104798bb5aa3fe8b9e0e1f348163f",
                "decimals": 18
            }
        ]
    },
    "address_label": {
        "labels": [
            {
                "address": "0x0000000000000000000000000000000000000002",
                "label": "Precompiled"
            },
            {
                "address": "0x0000000000000000000000000000000000000003",
                "label": "Precompiled"
            },
            {
                "address": "0x0000000000000000000000000000000000000004",
                "label": "Precompiled"
            },
            {
                "address": "0xeeeeeeeeeeeeeeeeeeeeeeeeeeeeeeeeeeeeeeee",
                "label": "Ether"
            },
            {
                "address": "0xde30da39c46104798bb5aa3fe8b9e0e1f348163f",
                "label": "Gitcoin: GTC Token"
            },
            {
                "address": "0x0e3efd5be54cc0f4c64e0d186b0af4b7f2a0e95f",
                "label": "IDStaking"
            },
            {
                "address": "0x0000000000000000000000000000000000000001",
                "label": "Precompiled"
            }
        ]
    },
    "trace": {
        "accountLabels": null,
        "dataMap": {
            "-1": {
                "invocation": {
                    "address": "0xdae70b3e66425f974c504d2fe757d71f87f94c60",
                    "callData": "",
                    "decodedMethod": null,
                    "errorInfo": "",
                    "fromAddress": "",
                    "gasUsed": 0,
                    "id": -1,
                    "methodDecoded": false,
                    "operation": "",
                    "output": "",
                    "revert": false,
                    "revertMessage": "",
                    "selector": "",
                    "status": false,
                    "value": ""
                },
                "nodeType": 0
            },
            "0": {
                "invocation": {
                    "address": "0x0e3efd5be54cc0f4c64e0d186b0af4b7f2a0e95f",
                    "callData": "0x000000000000000000000000000000000000000000000000000000000000000100000000000000000000000000000000000000000000000579a814e10a740000",
                    "decodedMethod": {
                        "callParams": [
                            {
                                "name": "roundId",
                                "type": "uint256",
                                "value": "1"
                            },
                            {
                                "name": "amount",
                                "type": "uint256",
                                "value": "101,000,000,000,000,000,000"
                            }
                        ],
                        "constructorArguments": "",
                        "name": "unstake",
                        "returnParams": [],
                        "signature": "unstake(uint256,uint256)"
                    },
                    "errorInfo": "",
                    "fromAddress": "0xdae70b3e66425f974c504d2fe757d71f87f94c60",
                    "gasUsed": 92387,
                    "id": 0,
                    "methodDecoded": true,
                    "operation": "CALL",
                    "output": "",
                    "revert": false,
                    "revertMessage": "",
                    "selector": "0x9e2c8a5b",
                    "status": true,
                    "value": "0"
                },
                "nodeType": 0
            },
            "1": {
                "invocation": {
                    "address": "0xde30da39c46104798bb5aa3fe8b9e0e1f348163f",
                    "callData": "0x000000000000000000000000dae70b3e66425f974c504d2fe757d71f87f94c6000000000000000000000000000000000000000000000000579a814e10a740000",
                    "decodedMethod": {
                        "callParams": [
                            {
                                "name": "dst",
                                "type": "address",
                                "value": "0xdae70b3e66425f974c504d2fe757d71f87f94c60"
                            },
                            {
                                "decimalAvailable": true,
                                "name": "rawAmount",
                                "type": "uint256",
                                "value": "101,000,000,000,000,000,000"
                            }
                        ],
                        "constructorArguments": "",
                        "name": "transfer",
                        "returnParams": [
                            {
                                "name": "",
                                "type": "bool",
                                "value": true
                            }
                        ],
                        "signature": "transfer(address,uint256)"
                    },
                    "errorInfo": "",
                    "fromAddress": "0x0e3efd5be54cc0f4c64e0d186b0af4b7f2a0e95f",
                    "gasUsed": 51000,
                    "id": 1,
                    "methodDecoded": true,
                    "operation": "CALL",
                    "output": "0x0000000000000000000000000000000000000000000000000000000000000001",
                    "revert": false,
                    "revertMessage": "",
                    "selector": "0xa9059cbb",
                    "status": true,
                    "value": "0"
                },
                "nodeType": 0
            },
            "2": {
                "event": {
                    "contract": "0xde30da39c46104798bb5aa3fe8b9e0e1f348163f",
                    "decodedLog": {
                        "name": "Transfer",
                        "params": [
                            {
                                "name": "from",
                                "type": "address",
                                "value": "0x0e3efd5be54cc0f4c64e0d186b0af4b7f2a0e95f"
                            },
                            {
                                "name": "to",
                                "type": "address",
                                "value": "0xdae70b3e66425f974c504d2fe757d71f87f94c60"
                            },
                            {
                                "decimalAvailable": true,
                                "name": "amount",
                                "type": "uint256",
                                "value": "101,000,000,000,000,000,000"
                            }
                        ],
                        "signature": "Transfer(address,address,uint256)"
                    },
                    "id": 2,
                    "logData": "0x00000000000000000000000000000000000000000000000579a814e10a740000",
                    "logDecoded": true,
                    "operation": "EVENT",
                    "revert": false,
                    "status": true,
                    "topics": [
                        "0xddf252ad1be2c89b69c2b068fc378daa952ba7f163c4a11628f55a4df523b3ef",
                        "0x0000000000000000000000000e3efd5be54cc0f4c64e0d186b0af4b7f2a0e95f",
                        "0x000000000000000000000000dae70b3e66425f974c504d2fe757d71f87f94c60"
                    ]
                },
                "nodeType": 1
            },
            "3": {
                "event": {
                    "contract": "0xde30da39c46104798bb5aa3fe8b9e0e1f348163f",
                    "decodedLog": {
                        "name": "DelegateVotesChanged",
                        "params": [
                            {
                                "name": "delegate",
                                "type": "address",
                                "value": "0xdae70b3e66425f974c504d2fe757d71f87f94c60"
                            },
                            {
                                "name": "previousBalance",
                                "type": "uint256",
                                "value": "11,000,000,000,000,000,291"
                            },
                            {
                                "name": "newBalance",
                                "type": "uint256",
                                "value": "112,000,000,000,000,000,291"
                            }
                        ],
                        "signature": "DelegateVotesChanged(address,uint256,uint256)"
                    },
                    "id": 3,
                    "logData": "0x00000000000000000000000000000000000000000000000098a7d9b8314c0123000000000000000000000000000000000000000000000006124fee993bc00123",
                    "logDecoded": true,
                    "operation": "EVENT",
                    "revert": false,
                    "status": true,
                    "topics": [
                        "0xdec2bacdd2f05b59de34da9b523dff8be42e5e38e818c82fdb0bae774387a724",
                        "0x000000000000000000000000dae70b3e66425f974c504d2fe757d71f87f94c60"
                    ]
                },
                "nodeType": 1
            },
            "4": {
                "event": {
                    "contract": "0x0e3efd5be54cc0f4c64e0d186b0af4b7f2a0e95f",
                    "decodedLog": {
                        "name": "selfStake",
                        "params": [
                            {
                                "name": "roundId",
                                "type": "uint256",
                                "value": "1"
                            },
                            {
                                "name": "staker",
                                "type": "address",
                                "value": "0xdae70b3e66425f974c504d2fe757d71f87f94c60"
                            },
                            {
                                "name": "amount",
                                "type": "uint256",
                                "value": "101,000,000,000,000,000,000"
                            },
                            {
                                "name": "staked",
                                "type": "bool",
                                "value": false
                            }
                        ],
                        "signature": "selfStake(uint256,address,uint256,bool)"
                    },
                    "id": 4,
                    "logData": "0x0000000000000000000000000000000000000000000000000000000000000001000000000000000000000000dae70b3e66425f974c504d2fe757d71f87f94c6000000000000000000000000000000000000000000000000579a814e10a7400000000000000000000000000000000000000000000000000000000000000000000",
                    "logDecoded": true,
                    "operation": "EVENT",
                    "revert": false,
                    "status": true,
                    "topics": [
                        "0xdcf891885e788b94db6de05809e1c074e1396e919fa3ef010342de9dfbdd8361"
                    ]
                },
                "nodeType": 1
            }
        },
        "gasFlame": [
            {
                "children": [
                    {
                        "children": [
                            {
                                "children": [],
                                "depth": 0,
                                "name": "Initial Gas",
                                "value": 21416
                            },
                            {
                                "children": [
                                    {
                                        "children": [],
                                        "depth": 1,
                                        "name": "transfer",
                                        "value": 51000
                                    }
                                ],
                                "depth": 0,
                                "name": "Executed Gas",
                                "value": 75771
                            }
                        ],
                        "depth": -1,
                        "name": "Actual Gas Used",
                        "value": 92387
                    },
                    {
                        "children": [],
                        "depth": -1,
                        "name": "Refunded Gas",
                        "value": 4800
                    }
                ],
                "depth": -2,
                "name": "Total Gas",
                "value": 97187
            }
        ],
        "isConfirmed": true,
        "mainTrace": [
            {
                "children": [
                    {
                        "children": [
                            {
                                "children": [
                                    {
                                        "children": [],
                                        "depth": 2,
                                        "id": 2,
                                        "order": 2
                                    },
                                    {
                                        "children": [],
                                        "depth": 2,
                                        "id": 3,
                                        "order": 3
                                    }
                                ],
                                "depth": 1,
                                "id": 1,
                                "order": 1
                            },
                            {
                                "children": [],
                                "depth": 1,
                                "id": 4,
                                "order": 4
                            }
                        ],
                        "depth": 0,
                        "id": 0,
                        "order": 0
                    }
                ],
                "depth": -1,
                "id": -1,
                "order": -1
            }
        ],
        "mainTraceNodeCount": 5,
        "parentIdMap": {
            "0": -1,
            "1": 0,
            "2": 1,
            "3": 1,
            "4": 0
        },
        "tidyTrace": [
            {
                "children": [
                    {
                        "children": [
                            {
                                "children": [
                                    {
                                        "children": [],
                                        "depth": 2,
                                        "id": 2,
                                        "order": 2
                                    },
                                    {
                                        "children": [],
                                        "depth": 2,
                                        "id": 3,
                                        "order": 3
                                    }
                                ],
                                "depth": 1,
                                "id": 1,
                                "order": 1
                            },
                            {
                                "children": [],
                                "depth": 1,
                                "id": 4,
                                "order": 4
                            }
                        ],
                        "depth": 0,
                        "id": 0,
                        "order": 0
                    }
                ],
                "depth": -1,
                "id": -1,
                "order": -1
            }
        ],
        "tidyTraceNodeCount": 5
    },
    "state_change": {
        "stateChanges": [
            {
                "address": "0x0e3efd5be54cc0f4c64e0d186b0af4b7f2a0e95f",
                "erc": "",
                "slots": [
                    {
                        "current": "0x0000000000000000000000000000000000000000000011dccc7860bd27bda143",
                        "key": "0x3e5fec24aa4dc4e5aee2e025e51e1392c72a2500577559fae9665c6d52bd6a32",
                        "prev": "0x0000000000000000000000000000000000000000000011e24620759e3231a143"
                    },
                    {
                        "current": "0x0000000000000000000000000000000000000000000000000000000000000000",
                        "key": "0x704f3bf4fc9d18b739498e4fe7b893e422771b840b8bac550f3c9ba201bd348b",
                        "prev": "0x00000000000000000000000000000000000000000000000579a814e10a740000"
                    }
                ],
                "storageVariables": [
                    {
                        "name": "stakes",
                        "type": "mapping(uint256 => mapping(address => uint256))",
                        "value": {
                            "pairs": [
                                {
                                    "key": "1",
                                    "value": {
                                        "pairs": [
                                            {
                                                "key": "0xdae70b3e66425f974c504d2fe757d71f87f94c60",
                                                "value": {
                                                    "current": "0",
                                                    "prev": "101000000000000000000",
                                                    "typeTag": 1
                                                }
                                            }
                                        ],
                                        "typeTag": 4
                                    }
                                }
                            ],
                            "typeTag": 4
                        }
                    },
                    {
                        "name": "rounds",
                        "type": "mapping(uint256 => struct IDStaking.Round)",
                        "value": {
                            "pairs": [
                                {
                                    "key": "1",
                                    "value": {
                                        "fields": [
                                            {
                                                "name": "tvl",
                                                "type": "uint256",
                                                "value": {
                                                    "current": "84353247537546544390467",
                                                    "prev": "84454247537546544390467",
                                                    "typeTag": 1
                                                }
                                            }
                                        ],
                                        "typeTag": 3
                                    }
                                }
                            ],
                            "typeTag": 4
                        }
                    }
                ]
            },
            {
                "address": "0xde30da39c46104798bb5aa3fe8b9e0e1f348163f",
                "erc": "ERC-20",
                "slots": [
                    {
                        "current": "0x000000000000000000000000000000000000000000008b90462c7e3de656716e",
                        "key": "0xe80359485e9210366a455e3ee72ad650e8d8e83d55ec14e69717c5b1757c1897",
                        "prev": "0x000000000000000000000000000000000000000000008b95bfd4931ef0ca716e"
                    },
                    {
                        "current": "0x000000000000000000000000000000000000000000000006124fee993bc00123",
                        "key": "0x16cf0db270f2e59a674d70c03370a152eafba7d98dc8678b58fc32fd3d42c627",
                        "prev": "0x00000000000000000000000000000000000000000000000098a7d9b8314c0123"
                    },
                    {
                        "current": "0x0000000000000000000000000000000000000006124fee993bc00123010f0476",
                        "key": "0xbdf28943b505c57acfd2ff05d9fdf981d17de290da526575277358614fee23f2",
                        "prev": "0x0000000000000000000000000000000000000000000000000000000000000000"
                    },
                    {
                        "current": "0x0000000000000000000000000000000000000000000000000000000000000002",
                        "key": "0xfa03b9fd22aa15cc691f10f954e957c46dfd5cdc0a9b30c02f820d80718bec3c",
                        "prev": "0x0000000000000000000000000000000000000000000000000000000000000001"
                    }
                ],
                "storageVariables": [
                    {
                        "name": "balances",
                        "type": "mapping(address => uint96)",
                        "value": {
                            "pairs": [
                                {
                                    "key": "0x0e3efd5be54cc0f4c64e0d186b0af4b7f2a0e95f",
                                    "value": {
                                        "current": "659070328820780812890478",
                                        "prev": "659171328820780812890478",
                                        "typeTag": 1
                                    }
                                },
                                {
                                    "key": "0xdae70b3e66425f974c504d2fe757d71f87f94c60",
                                    "value": {
                                        "current": "112000000000000000291",
                                        "prev": "11000000000000000291",
                                        "typeTag": 1
                                    }
                                }
                            ],
                            "typeTag": 4
                        }
                    },
                    {
                        "name": "checkpoints",
                        "type": "mapping(address => mapping(uint32 => struct GTC.Checkpoint))",
                        "value": {
                            "pairs": [
                                {
                                    "key": "0xdae70b3e66425f974c504d2fe757d71f87f94c60",
                                    "value": {
                                        "pairs": [
                                            {
                                                "key": "1",
                                                "value": {
                                                    "fields": [
                                                        {
                                                            "name": "fromBlock",
                                                            "type": "uint32",
                                                            "value": {
                                                                "current": "17761398",
                                                                "prev": "0",
                                                                "typeTag": 1
                                                            }
                                                        },
                                                        {
                                                            "name": "votes",
                                                            "type": "uint96",
                                                            "value": {
                                                                "current": "112000000000000000291",
                                                                "prev": "0",
                                                                "typeTag": 1
                                                            }
                                                        }
                                                    ],
                                                    "typeTag": 3
                                                }
                                            }
                                        ],
                                        "typeTag": 4
                                    }
                                }
                            ],
                            "typeTag": 4
                        }
                    },
                    {
                        "name": "numCheckpoints",
                        "type": "mapping(address => uint32)",
                        "value": {
                            "pairs": [
                                {
                                    "key": "0xdae70b3e66425f974c504d2fe757d71f87f94c60",
                                    "value": {
                                        "current": "2",
                                        "prev": "1",
                                        "typeTag": 1
                                    }
                                }
                            ],
                            "typeTag": 4
                        }
                    }
                ]
            }
        ]
    }
}