{
    "balance_change": {
        "balanceChanges": [
            {
                "account": "0xcc731095cd449eabe6b02a313d78fd65f266cc29",
                "assets": [
                    {
                        "address": "0x8c282c35b5e1088bb208991c151182a782637699",
                        "amount": "647.5311329308206",
                        "iconUrl": "",
                        "isERC1155": false,
                        "isERC721": false,
                        "sign": true,
                        "value": "129.2771611"
                    }
                ]
            },
            {
                "account": "0x7cc7e125d83a581ff438608490cc0f7bdff79127",
                "assets": [
                    {
                        "address": "0x8c282c35b5e1088bb208991c151182a782637699",
                        "amount": "647.5311329308206",
                        "iconUrl": "",
                        "isERC1155": false,
                        "isERC721": false,
                        "sign": false,
                        "value": "129.2771611"
                    }
                ]
            }
        ]
    },
    "profile": {
        "basic_info": {
            "baseFee": "5.726728408",
            "blockNumber": 19803231,
            "callData": "0xfdd46d60000000000000000000000000000000000000000000000000000000000000015a000000000000000000000000cc731095cd449eabe6b02a313d78fd65f266cc290000000000000000000000000000000000000000000000231a4cb6a233cef0c0",
            "debugEnable": true,
            "errorInfo": "",
            "eventCount": 3,
            "feeRecipient": "0x95222290dd7278aa3ddd389cc1e1d165cc4bafe5",
            "formatValue": "0",
            "gasLimit": 300000,
            "gasPrice": "5.745464319",
            "gasUsed": 92218,
            "intTxnCount": 1,
            "internalRevert": false,
            "internalRevertMessage": "",
            "isContractCreation": false,
            "isFlashloan": false,
            "maxFee": "7.713552955",
            "nonce": 3608,
            "overwritedBlockNumber": -1,
            "priorityFee": "0.018735911",
            "receiver": "0x7cc7e125d83a581ff438608490cc0f7bdff79127",
            "revertMessage": "",
            "sender": "0xcc731095cd449eabe6b02a313d78fd65f266cc29",
            "simulationEnable": true,
            "sourceTxnHash": "0x3729e0e7e749db870f60b1e5f118c9a26690db1104cb72c6722b9cd2105b8e16",
            "status": true,
            "timestamp": "2024-05-05T10:15:35Z",
            "transactionFee": "0.000529835228569542",
            "txnHash": "0x3729e0e7e749db870f60b1e5f118c9a26690db1104cb72c6722b9cd2105b8e16",
            "txnIndex": 173,
            "type": 2,
            "value": "0"
        },
        "fund_flow": [
            {
                "amount": "647.5311329308206",
                "from": "0x7cc7e125d83a581ff438608490cc0f7bdff79127",
                "id": 1,
                "isERC1155": false,
                "isERC721": false,
                "isReverted": false,
                "order": 1,
                "to": "0xcc731095cd449eabe6b02a313d78fd65f266cc29",
                "token": "0x8c282c35b5e1088bb208991c151182a782637699"
            }
        ],
        "token_infos": [
            {
                "address": "0x8c282c35b5e1088bb208991c151182a782637699",
                "decimals": 18
            },
            {
                "address": "0xc02aaa39b223fe8d0a0e5c4f27ead9083c756cc2",
                "decimals": 18
            },
            {
                "address": "0xeeeeeeeeeeeeeeeeeeeeeeeeeeeeeeeeeeeeeeee",
                "decimals": 18
            }
        ]
    },
    "address_label": {
        "labels": [
            {
                "address": "0x8c282c35b5e1088bb208991c151182a782637699",
                "label": "MONAI"
            },
            {
                "address": "0x0000000000000000000000000000000000000001",
                "label": "Precompiled"
            },
            {
                "address": "0x0000000000000000000000000000000000000002",
                "label": "Precompiled"
            },
            {
                "address": "0x0000000000000000000000000000000000000003",
                "label": "Precompiled"
            },
            {
                "address": "0x0000000000000000000000000000000000000004",
                "label": "Precompiled"
            },
            {
                "address": "0xeeeeeeeeeeeeeeeeeeeeeeeeeeeeeeeeeeeeeeee",
                "label": "Ether"
            },
            {
                "address": "0x7cc7e125d83a581ff438608490cc0f7bdff79127",
                "label": "Sablier : V2 Lockup Dynamic"
            }
        ]
    },
    "trace": {
        "accountLabels": null,
        "dataMap": {
            "-1": {
                "invocation": {
                    "address": "0xcc731095cd449eabe6b02a313d78fd65f266cc29",
                    "callData": "",
                    "decodedMethod": null,
                    "errorInfo": "",
                    "fromAddress": "",
                    "gasUsed": 0,
                    "id": -1,
                    "methodDecoded": false,
                    "operation": "",
                    "output": "",
                    "revert": false,
                    "revertMessage": "",
                    "selector": "",
                    "status": false,
                    "value": ""
                },
                "nodeType": 0
            },
            "0": {
                "invocation": {
                    "address": "0x7cc7e125d83a581ff438608490cc0f7bdff79127",
                    "callData": "0x000000000000000000000000000000000000000000000000000000000000015a000000000000000000000000cc731095cd449eabe6b02a313d78fd65f266cc290000000000000000000000000000000000000000000000231a4cb6a233cef0c0",
                    "decodedMethod": {
                        "callParams": [
                            {
                                "name": "streamId",
                                "type": "uint256",
                                "value": "346"
                            },
                            {
                                "name": "to",
                                "type": "address",
                                "value": "0xcc731095cd449eabe6b02a313d78fd65f266cc29"
                            },
                            {
                                "name": "amount",
                                "type": "uint128",
                                "value": "647,531,132,930,820,600,000"
                            }
                        ],
                        "constructorArguments": "",
                        "name": "withdraw",
                        "returnParams": [],
                        "signature": "withdraw(uint256,address,uint128)"
                    },
                    "errorInfo": "",
                    "fromAddress": "0xcc731095cd449eabe6b02a313d78fd65f266cc29",
                    "gasUsed": 92218,
                    "id": 0,
                    "methodDecoded": true,
                    "operation": "CALL",
                    "output": "",
                    "revert": false,
                    "revertMessage": "",
                    "selector": "0xfdd46d60",
                    "status": true,
                    "value": "0"
                },
                "nodeType": 0
            },
            "1": {
                "invocation": {
                    "address": "0x8c282c35b5e1088bb208991c151182a782637699",
                    "callData": "0x000000000000000000000000cc731095cd449eabe6b02a313d78fd65f266cc290000000000000000000000000000000000000000000000231a4cb6a233cef0c0",
                    "decodedMethod": {
                        "callParams": [
                            {
                                "name": "_to",
                                "type": "address",
                                "value": "0xcc731095cd449eabe6b02a313d78fd65f266cc29"
                            },
                            {
                                "decimalAvailable": true,
                                "name": "_value",
                                "type": "uint256",
                                "value": "647,531,132,930,820,600,000"
                            }
                        ],
                        "constructorArguments": "",
                        "name": "transfer",
                        "returnParams": [
                            {
                                "name": "",
                                "type": "bool",
                                "value": true
                            }
                        ],
                        "signature": "transfer(address,uint256)"
                    },
                    "errorInfo": "",
                    "fromAddress": "0x7cc7e125d83a581ff438608490cc0f7bdff79127",
                    "gasUsed": 34960,
                    "id": 1,
                    "methodDecoded": true,
                    "operation": "CALL",
                    "output": "0x0000000000000000000000000000000000000000000000000000000000000001",
                    "revert": false,
                    "revertMessage": "",
                    "selector": "0xa9059cbb",
                    "status": true,
                    "value": "0"
                },
                "nodeType": 0
            },
            "2": {
                "event": {
                    "contract": "0x8c282c35b5e1088bb208991c151182a782637699",
                    "decodedLog": {
                        "name": "Transfer",
                        "params": [
                            {
                                "name": "from",
                                "type": "address",
                                "value": "0x7cc7e125d83a581ff438608490cc0f7bdff79127"
                            },
                            {
                                "name": "to",
                                "type": "address",
                                "value": "0xcc731095cd449eabe6b02a313d78fd65f266cc29"
                            },
                            {
                                "decimalAvailable": true,
                                "name": "value",
                                "type": "uint256",
                                "value": "647,531,132,930,820,600,000"
                            }
                        ],
                        "signature": "Transfer(address,address,uint256)"
                    },
                    "id": 2,
                    "logData": "0x0000000000000000000000000000000000000000000000231a4cb6a233cef0c0",
                    "logDecoded": true,
                    "operation": "EVENT",
                    "revert": false,
                    "status": true,
                    "topics": [
                        "0xddf252ad1be2c89b69c2b068fc378daa952ba7f163c4a11628f55a4df523b3ef",
                        "0x0000000000000000000000007cc7e125d83a581ff438608490cc0f7bdff79127",
                        "0x000000000000000000000000cc731095cd449eabe6b02a313d78fd65f266cc29"
                    ]
                },
                "nodeType": 1
            },
            "3": {
                "event": {
                    "contract": "0x7cc7e125d83a581ff438608490cc0f7bdff79127",
                    "decodedLog": {
                        "name": "WithdrawFromLockupStream",
                        "params": [
                            {
                                "name": "streamId",
                                "type": "uint256",
                                "value": "346"
                            },
                            {
                                "name": "to",
                                "type": "address",
                                "value": "0xcc731095cd449eabe6b02a313d78fd65f266cc29"
                            },
                            {
                                "name": "asset",
                                "type": "address",
                                "value": "0x8c282c35b5e1088bb208991c151182a782637699"
                            },
                            {
                                "name": "amount",
                                "type": "uint128",
                                "value": "647,531,132,930,820,600,000"
                            }
                        ],
                        "signature": "WithdrawFromLockupStream(uint256,address,address,uint128)"
                    },
                    "id": 3,
                    "logData": "0x0000000000000000000000000000000000000000000000231a4cb6a233cef0c0",
                    "logDecoded": true,
                    "operation": "EVENT",
                    "revert": false,
                    "status": true,
                    "topics": [
                        "0x40b88e5c41c5a97ffb7b6ef88a0a2d505aa0c634cf8a0275cb236ea7dd87ed4d",
                        "0x000000000000000000000000000000000000000000000000000000000000015a",
                        "0x000000000000000000000000cc731095cd449eabe6b02a313d78fd65f266cc29",
                        "0x0000000000000000000000008c282c35b5e1088bb208991c151182a782637699"
                    ]
                },
                "nodeType": 1
            },
            "4": {
                "event": {
                    "contract": "0x7cc7e125d83a581ff438608490cc0f7bdff79127",
                    "decodedLog": {
                        "name": "MetadataUpdate",
                        "params": [
                            {
                                "name": "_tokenId",
                                "type": "uint256",
                                "value": "346"
                            }
                        ],
                        "signature": "MetadataUpdate(uint256)"
                    },
                    "id": 4,
                    "logData": "0x000000000000000000000000000000000000000000000000000000000000015a",
                    "logDecoded": true,
                    "operation": "EVENT",
                    "revert": false,
                    "status": true,
                    "topics": [
                        "0xf8e1a15aba9398e019f0b49df1a4fde98ee17ae345cb5f6b5e2c27f5033e8ce7"
                    ]
                },
                "nodeType": 1
            }
        },
        "gasFlame": [
            {
                "children": [
                    {
                        "children": [
                            {
                                "children": [],
                                "depth": 0,
                                "name": "Initial Gas",
                                "value": 21820
                            },
                            {
                                "children": [
                                    {
                                        "children": [],
                                        "depth": 1,
                                        "name": "transfer",
                                        "value": 34960
                                    }
                                ],
                                "depth": 0,
                                "name": "Executed Gas",
                                "value": 70398
                            }
                        ],
                        "depth": -1,
                        "name": "Actual Gas Used",
                        "value": 92218
                    },
                    {
                        "children": [],
                        "depth": -1,
                        "name": "Refunded Gas",
                        "value": 0
                    }
                ],
                "depth": -2,
                "name": "Total Gas",
                "value": 92218
            }
        ],
        "isConfirmed": true,
        "mainTrace": [
            {
                "children": [
                    {
                        "children": [
                            {
                                "children": [
                                    {
                                        "children": [],
                                        "depth": 2,
                                        "id": 2,
                                        "order": 2
                                    }
                                ],
                                "depth": 1,
                                "id": 1,
                                "order": 1
                            },
                            {
                                "children": [],
                                "depth": 1,
                                "id": 3,
                                "order": 3
                            },
                            {
                                "children": [],
                                "depth": 1,
                                "id": 4,
                                "order": 4
                            }
                        ],
                        "depth": 0,
                        "id": 0,
                        "order": 0
                    }
                ],
                "depth": -1,
                "id": -1,
                "order": -1
            }
        ],
        "mainTraceNodeCount": 5,
        "parentIdMap": {
            "0": -1,
            "1": 0,
            "2": 1,
            "3": 0,
            "4": 0
        },
        "tidyTrace": [
            {
                "children": [
                    {
                        "children": [
                            {
                                "children": [
                                    {
                                        "children": [],
                                        "depth": 2,
                                        "id": 2,
                                        "order": 2
                                    }
                                ],
                                "depth": 1,
                                "id": 1,
                                "order": 1
                            },
                            {
                                "children": [],
                                "depth": 1,
                                "id": 3,
                                "order": 3
                            },
                            {
                                "children": [],
                                "depth": 1,
                                "id": 4,
                                "order": 4
                            }
                        ],
                        "depth": 0,
                        "id": 0,
                        "order": 0
                    }
                ],
                "depth": -1,
                "id": -1,
                "order": -1
            }
        ],
        "tidyTraceNodeCount": 5
    },
    "state_change": {
        "stateChanges": [
            {
                "address": "0x7cc7e125d83a581ff438608490cc0f7bdff79127",
                "erc": "ERC-721",
                "slots": [
                    {
                        "current": "0x00000000000012134d862b1587d5ce90000000000000152d02c7e14af6800000",
                        "key": "0xf7843a1249d87769f288a6b8e7ece89fdbbad3ac25cd5c55353711a7e67c5f06",
                        "prev": "0x00000000000011f0333974735406ddd0000000000000152d02c7e14af6800000"
                    }
                ],
                "storageVariables": [
                    {
                        "name": "_streams",
                        "type": "mapping(uint256 => struct LockupDynamic.Stream)",
                        "value": {
                            "pairs": [
                                {
                                    "key": "346",
                                    "value": {
                                        "fields": [
                                            {
                                                "name": "amounts",
                                                "type": "struct Lockup.Amounts",
                                                "value": {
                                                    "fields": [
                                                        {
                                                            "name": "deposited",
                                                            "type": "uint128",
                                                            "value": {
                                                                "current": "100000000000000000000000",
                                                                "prev": "100000000000000000000000",
                                                                "typeTag": 1
                                                            }
                                                        },
                                                        {
                                                            "name": "withdrawn",
                                                            "type": "uint128",
                                                            "value": {
                                                                "current": "85358671028813368250000",
                                                                "prev": "84711139895882547650000",
                                                                "typeTag": 1
                                                            }
                                                        }
                                                    ],
                                                    "typeTag": 3
                                                }
                                            }
                                        ],
                                        "typeTag": 3
                                    }
                                }
                            ],
                            "typeTag": 4
                        }
                    }
                ]
            },
            {
                "address": "0x8c282c35b5e1088bb208991c151182a782637699",
                "erc": "ERC-20",
                "slots": [
                    {
                        "current": "0x00000000000000000000000000000000000000000037ff9deb056e78b4ece34f",
                        "key": "0xdfbdf482eadf2fdab64a5fc6f5ee3ec9ec3f5e8237d388fa3124897b2f2d0d5b",
                        "prev": "0x00000000000000000000000000000000000000000037ffc10552251ae8bbd40f"
                    },
                    {
                        "current": "0x0000000000000000000000000000000000000000000000231a4cb6a233cef0c0",
                        "key": "0xaa459e4d780834c100f070b77c74d67b7378c54d50dff405db80ce6542c997bd",
                        "prev": "0x0000000000000000000000000000000000000000000000000000000000000000"
                    }
                ],
                "storageVariables": [
                    {
                        "name": "balances",
                        "type": "mapping(address => uint256)",
                        "value": {
                            "pairs": [
                                {
                                    "key": "0x7cc7e125d83a581ff438608490cc0f7bdff79127",
                                    "value": {
                                        "current": "67698036605819375045108559",
                                        "prev": "67698684136952305865708559",
                                        "typeTag": 1
                                    }
                                },
                                {
                                    "key": "0xcc731095cd449eabe6b02a313d78fd65f266cc29",
                                    "value": {
                                        "current": "647531132930820600000",
                                        "prev": "0",
                                        "typeTag": 1
                                    }
                                }
                            ],
                            "typeTag": 4
                        }
                    }
                ]
            }
        ]
    }
}