{
    "balance_change": {
        "balanceChanges": [
            {
                "account": "0x10e3086f3b2f4432415b674b06f875ff366f8164",
                "assets": [
                    {
                        "address": "0x50f7517029c505933cb5d6e9c897245226f4317b",
                        "amount": "10",
                        "iconUrl": "",
                        "isERC1155": false,
                        "isERC721": false,
                        "sign": false,
                        "value": ""
                    }
                ]
            },
            {
                "account": "0x8cd1242b2eb58cdda7d2b52743a1c4bd6bf51a9c",
                "assets": [
                    {
                        "address": "0x50f7517029c505933cb5d6e9c897245226f4317b",
                        "amount": "10",
                        "iconUrl": "",
                        "isERC1155": false,
                        "isERC721": false,
                        "sign": true,
                        "value": ""
                    }
                ]
            }
        ]
    },
    "profile": {
        "basic_info": {
            "baseFee": "",
            "blockNumber": 12728684,
            "callData": "0xa9059cbb0000000000000000000000008cd1242b2eb58cdda7d2b52743a1c4bd6bf51a9c0000000000000000000000000000000000000000000000008ac7230489e80000",
            "debugEnable": true,
            "errorInfo": "",
            "eventCount": 1,
            "feeRecipient": "0x829bd824b016326a401d083b33d092293333a830",
            "formatValue": "0",
            "gasLimit": 34474,
            "gasPrice": "16.25",
            "gasUsed": 34474,
            "intTxnCount": 0,
            "internalRevert": false,
            "internalRevertMessage": "",
            "isContractCreation": false,
            "isFlashloan": false,
            "maxFee": "",
            "nonce": 3533,
            "overwritedBlockNumber": -1,
            "priorityFee": "",
            "receiver": "0x50f7517029c505933cb5d6e9c897245226f4317b",
            "revertMessage": "",
            "sender": "0x10e3086f3b2f4432415b674b06f875ff366f8164",
            "simulationEnable": true,
            "sourceTxnHash": "0x375014758eb1cf2ee75292f8e9d74df9b45ceab4906ed29100c1c40eb6592a1d",
            "status": true,
            "timestamp": "2021-06-29T11:28:31Z",
            "transactionFee": "0.0005602025",
            "txnHash": "0x375014758eb1cf2ee75292f8e9d74df9b45ceab4906ed29100c1c40eb6592a1d",
            "txnIndex": 130,
            "type": 0,
            "value": "0"
        },
        "fund_flow": [
            {
                "amount": "10",
                "from": "0x10e3086f3b2f4432415b674b06f875ff366f8164",
                "id": 1,
                "isERC1155": false,
                "isERC721": false,
                "isReverted": false,
                "order": 1,
                "to": "0x8cd1242b2eb58cdda7d2b52743a1c4bd6bf51a9c",
                "token": "0x50f7517029c505933cb5d6e9c897245226f4317b"
            }
        ],
        "token_infos": [
            {
                "address": "0x50f7517029c505933cb5d6e9c897245226f4317b",
                "decimals": 18
            },
            {
                "address": "0xc02aaa39b223fe8d0a0e5c4f27ead9083c756cc2",
                "decimals": 18
            },
            {
                "address": "0xeeeeeeeeeeeeeeeeeeeeeeeeeeeeeeeeeeeeeeee",
                "decimals": 18
            }
        ]
    },
    "address_label": {
        "labels": [
            {
                "address": "0xeeeeeeeeeeeeeeeeeeeeeeeeeeeeeeeeeeeeeeee",
                "label": "Ether"
            },
            {
                "address": "0x50f7517029c505933cb5d6e9c897245226f4317b",
                "label": "Global Currency Restart (GCR)"
            },
            {
                "address": "0x0000000000000000000000000000000000000001",
                "label": "Precompiled"
            },
            {
                "address": "0x0000000000000000000000000000000000000002",
                "label": "Precompiled"
            },
            {
                "address": "0x0000000000000000000000000000000000000003",
                "label": "Precompiled"
            },
            {
                "address": "0x0000000000000000000000000000000000000004",
                "label": "Precompiled"
            }
        ]
    },
    "trace": {
        "accountLabels": null,
        "dataMap": {
            "-1": {
                "invocation": {
                    "address": "0x10e3086f3b2f4432415b674b06f875ff366f8164",
                    "callData": "",
                    "decodedMethod": null,
                    "errorInfo": "",
                    "fromAddress": "",
                    "gasUsed": 0,
                    "id": -1,
                    "methodDecoded": false,
                    "operation": "",
                    "output": "",
                    "revert": false,
                    "revertMessage": "",
                    "selector": "",
                    "status": false,
                    "value": ""
                },
                "nodeType": 0
            },
            "0": {
                "invocation": {
                    "address": "0x50f7517029c505933cb5d6e9c897245226f4317b",
                    "callData": "0x0000000000000000000000008cd1242b2eb58cdda7d2b52743a1c4bd6bf51a9c0000000000000000000000000000000000000000000000008ac7230489e80000",
                    "decodedMethod": {
                        "callParams": [
                            {
                                "name": "_to",
                                "type": "address",
                                "value": "0x8cd1242b2eb58cdda7d2b52743a1c4bd6bf51a9c"
                            },
                            {
                                "decimalAvailable": true,
                                "name": "_value",
                                "type": "uint256",
                                "value": "10,000,000,000,000,000,000"
                            }
                        ],
                        "constructorArguments": "",
                        "name": "transfer",
                        "returnParams": [
                            {
                                "name": "",
                                "type": "bool",
                                "value": true
                            }
                        ],
                        "signature": "transfer(address,uint256)"
                    },
                    "errorInfo": "",
                    "fromAddress": "0x10e3086f3b2f4432415b674b06f875ff366f8164",
                    "gasUsed": 34474,
                    "id": 0,
                    "methodDecoded": true,
                    "operation": "CALL",
                    "output": "0x0000000000000000000000000000000000000000000000000000000000000001",
                    "revert": false,
                    "revertMessage": "",
                    "selector": "0xa9059cbb",
                    "status": true,
                    "value": "0"
                },
                "nodeType": 0
            },
            "1": {
                "event": {
                    "contract": "0x50f7517029c505933cb5d6e9c897245226f4317b",
                    "decodedLog": {
                        "name": "Transfer",
                        "params": [
                            {
                                "name": "from",
                                "type": "address",
                                "value": "0x10e3086f3b2f4432415b674b06f875ff366f8164"
                            },
                            {
                                "name": "to",
                                "type": "address",
                                "value": "0x8cd1242b2eb58cdda7d2b52743a1c4bd6bf51a9c"
                            },
                            {
                                "decimalAvailable": true,
                                "name": "value",
                                "type": "uint256",
                                "value": "10,000,000,000,000,000,000"
                            }
                        ],
                        "signature": "Transfer(address,address,uint256)"
                    },
                    "id": 1,
                    "logData": "0x0000000000000000000000000000000000000000000000008ac7230489e80000",
                    "logDecoded": true,
                    "operation": "EVENT",
                    "revert": false,
                    "status": true,
                    "topics": [
                        "0xddf252ad1be2c89b69c2b068fc378daa952ba7f163c4a11628f55a4df523b3ef",
                        "0x00000000000000000000000010e3086f3b2f4432415b674b06f875ff366f8164",
                        "0x0000000000000000000000008cd1242b2eb58cdda7d2b52743a1c4bd6bf51a9c"
                    ]
                },
                "nodeType": 1
            }
        },
        "gasFlame": [
            {
                "children": [
                    {
                        "children": [
                            {
                                "children": [],
                                "depth": 0,
                                "name": "Initial Gas",
                                "value": 21632
                            },
                            {
                                "children": [],
                                "depth": 0,
                                "name": "Executed Gas",
                                "value": 12842
                            }
                        ],
                        "depth": -1,
                        "name": "Actual Gas Used",
                        "value": 34474
                    },
                    {
                        "children": [],
                        "depth": -1,
                        "name": "Refunded Gas",
                        "value": 0
                    }
                ],
                "depth": -2,
                "name": "Total Gas",
                "value": 34474
            }
        ],
        "isConfirmed": true,
        "mainTrace": [
            {
                "children": [
                    {
                        "children": [
                            {
                                "children": [],
                                "depth": 1,
                                "id": 1,
                                "order": 1
                            }
                        ],
                        "depth": 0,
                        "id": 0,
                        "order": 0
                    }
                ],
                "depth": -1,
                "id": -1,
                "order": -1
            }
        ],
        "mainTraceNodeCount": 2,
        "parentIdMap": {
            "0": -1,
            "1": 0
        },
        "tidyTrace": [
            {
                "children": [
                    {
                        "children": [
                            {
                                "children": [],
                                "depth": 1,
                                "id": 1,
                                "order": 1
                            }
                        ],
                        "depth": 0,
                        "id": 0,
                        "order": 0
                    }
                ],
                "depth": -1,
                "id": -1,
                "order": -1
            }
        ],
        "tidyTraceNodeCount": 2
    },
    "state_change": {
        "stateChanges": [
            {
                "address": "0x50f7517029c505933cb5d6e9c897245226f4317b",
                "erc": "ERC-20",
                "slots": [
                    {
                        "current": "0x000000000000000000000000000000000000000007f34e8f35b719ad42498800",
                        "key": "0x210fe438b8099aa79e90cbde59395885bd5b517748053476a2790a31267f3cef",
                        "prev": "0x000000000000000000000000000000000000000007f34e8fc07e3cb1cc318800"
                    },
                    {
                        "current": "0x0000000000000000000000000000000000000000000000ae03b2e8b0ebe80000",
                        "key": "0xf625a72fe93eb6476c7fbec0671f88cb3c54e76fd11747754861f5ca42411844",
                        "prev": "0x0000000000000000000000000000000000000000000000ad78ebc5ac62000000"
                    }
                ],
                "storageVariables": [
                    {
                        "name": "balances",
                        "type": "mapping(address => uint256)",
                        "value": {
                            "pairs": [
                                {
                                    "key": "0x10e3086f3b2f4432415b674b06f875ff366f8164",
                                    "value": {
                                        "current": "2460535029256427380000000000",
                                        "prev": "2460535039256427380000000000",
                                        "typeTag": 1
                                    }
                                },
                                {
                                    "key": "0x8cd1242b2eb58cdda7d2b52743a1c4bd6bf51a9c",
                                    "value": {
                                        "current": "3210000000000000000000",
                                        "prev": "3200000000000000000000",
                                        "typeTag": 1
                                    }
                                }
                            ],
                            "typeTag": 4
                        }
                    }
                ]
            }
        ]
    }
}