{
    "balance_change": {
        "balanceChanges": []
    },
    "profile": {
        "basic_info": {
            "baseFee": "",
            "blockNumber": 11721001,
            "callData": "0x202ee0ed000000000000000000000000000000000000000000000000000000000000198f000000000000000000000000000000000000000000000000000000001013e492",
            "debugEnable": true,
            "errorInfo": "",
            "eventCount": 3,
            "feeRecipient": "0x5a0b54d5dc17e0aadc383d2db43b0a0d3e029c4c",
            "formatValue": "0",
            "gasLimit": 500000,
            "gasPrice": "87",
            "gasUsed": 109870,
            "intTxnCount": 0,
            "internalRevert": false,
            "internalRevertMessage": "",
            "isContractCreation": false,
            "isFlashloan": false,
            "maxFee": "",
            "nonce": 234058,
            "overwritedBlockNumber": -1,
            "priorityFee": "",
            "receiver": "0x9c6b454d42a69088719ff8b2ab30c04808c8d061",
            "revertMessage": "",
            "sender": "0xcf2d187d3833dd9063b019d0c39e4566576c3c56",
            "simulationEnable": true,
            "sourceTxnHash": "0x38985ccbed66113dc8df015271fd26c6b35198491912031df4ef42dc94e7bc4c",
            "status": true,
            "timestamp": "2021-01-24T22:19:54Z",
            "transactionFee": "0.00955869",
            "txnHash": "0x38985ccbed66113dc8df015271fd26c6b35198491912031df4ef42dc94e7bc4c",
            "txnIndex": 51,
            "type": 0,
            "value": "0"
        },
        "fund_flow": [],
        "token_infos": [
            {
                "address": "0xc02aaa39b223fe8d0a0e5c4f27ead9083c756cc2",
                "decimals": 18
            },
            {
                "address": "0xeeeeeeeeeeeeeeeeeeeeeeeeeeeeeeeeeeeeeeee",
                "decimals": 18
            }
        ]
    },
    "address_label": {
        "labels": [
            {
                "address": "0x0000000000000000000000000000000000000004",
                "label": "Precompiled"
            },
            {
                "address": "0xeeeeeeeeeeeeeeeeeeeeeeeeeeeeeeeeeeeeeeee",
                "label": "Ether"
            },
            {
                "address": "0x9c6b454d42a69088719ff8b2ab30c04808c8d061",
                "label": "AccessControlledAggregator"
            },
            {
                "address": "0x0000000000000000000000000000000000000001",
                "label": "Precompiled"
            },
            {
                "address": "0x0000000000000000000000000000000000000002",
                "label": "Precompiled"
            },
            {
                "address": "0x0000000000000000000000000000000000000003",
                "label": "Precompiled"
            }
        ]
    },
    "trace": {
        "accountLabels": null,
        "dataMap": {
            "-1": {
                "invocation": {
                    "address": "0xcf2d187d3833dd9063b019d0c39e4566576c3c56",
                    "callData": "",
                    "decodedMethod": null,
                    "errorInfo": "",
                    "fromAddress": "",
                    "gasUsed": 0,
                    "id": -1,
                    "methodDecoded": false,
                    "operation": "",
                    "output": "",
                    "revert": false,
                    "revertMessage": "",
                    "selector": "",
                    "status": false,
                    "value": ""
                },
                "nodeType": 0
            },
            "0": {
                "invocation": {
                    "address": "0x9c6b454d42a69088719ff8b2ab30c04808c8d061",
                    "callData": "0x000000000000000000000000000000000000000000000000000000000000198f000000000000000000000000000000000000000000000000000000001013e492",
                    "decodedMethod": {
                        "callParams": [
                            {
                                "name": "_roundId",
                                "type": "uint256",
                                "value": "6,543"
                            },
                            {
                                "name": "_submission",
                                "type": "int256",
                                "value": "269,739,154"
                            }
                        ],
                        "constructorArguments": "",
                        "name": "submit",
                        "returnParams": [],
                        "signature": "submit(uint256,int256)"
                    },
                    "errorInfo": "",
                    "fromAddress": "0xcf2d187d3833dd9063b019d0c39e4566576c3c56",
                    "gasUsed": 109870,
                    "id": 0,
                    "methodDecoded": true,
                    "operation": "CALL",
                    "output": "",
                    "revert": false,
                    "revertMessage": "",
                    "selector": "0x202ee0ed",
                    "status": true,
                    "value": "0"
                },
                "nodeType": 0
            },
            "1": {
                "event": {
                    "contract": "0x9c6b454d42a69088719ff8b2ab30c04808c8d061",
                    "decodedLog": {
                        "name": "SubmissionReceived",
                        "params": [
                            {
                                "name": "submission",
                                "type": "int256",
                                "value": "269,739,154"
                            },
                            {
                                "name": "round",
                                "type": "uint32",
                                "value": "6,543"
                            },
                            {
                                "name": "oracle",
                                "type": "address",
                                "value": "0xcf2d187d3833dd9063b019d0c39e4566576c3c56"
                            }
                        ],
                        "signature": "SubmissionReceived(int256,uint32,address)"
                    },
                    "id": 1,
                    "logData": "0x",
                    "logDecoded": true,
                    "operation": "EVENT",
                    "revert": false,
                    "status": true,
                    "topics": [
                        "0x92e98423f8adac6e64d0608e519fd1cefb861498385c6dee70d58fc926ddc68c",
                        "0x000000000000000000000000000000000000000000000000000000001013e492",
                        "0x000000000000000000000000000000000000000000000000000000000000198f",
                        "0x000000000000000000000000cf2d187d3833dd9063b019d0c39e4566576c3c56"
                    ]
                },
                "nodeType": 1
            },
            "2": {
                "event": {
                    "contract": "0x9c6b454d42a69088719ff8b2ab30c04808c8d061",
                    "decodedLog": {
                        "name": "AnswerUpdated",
                        "params": [
                            {
                                "name": "current",
                                "type": "int256",
                                "value": "269,510,089"
                            },
                            {
                                "name": "roundId",
                                "type": "uint256",
                                "value": "6,543"
                            },
                            {
                                "name": "updatedAt",
                                "type": "uint256",
                                "value": "1,611,526,794"
                            }
                        ],
                        "signature": "AnswerUpdated(int256,uint256,uint256)"
                    },
                    "id": 2,
                    "logData": "0x00000000000000000000000000000000000000000000000000000000600df28a",
                    "logDecoded": true,
                    "operation": "EVENT",
                    "revert": false,
                    "status": true,
                    "topics": [
                        "0x0559884fd3a460db3073b7fc896cc77986f16e378210ded43186175bf646fc5f",
                        "0x00000000000000000000000000000000000000000000000000000000101065c9",
                        "0x000000000000000000000000000000000000000000000000000000000000198f"
                    ]
                },
                "nodeType": 1
            },
            "3": {
                "event": {
                    "contract": "0x9c6b454d42a69088719ff8b2ab30c04808c8d061",
                    "decodedLog": {
                        "name": "AvailableFundsUpdated",
                        "params": [
                            {
                                "name": "amount",
                                "type": "uint256",
                                "value": "9,536,870,000,000,000,000,000"
                            }
                        ],
                        "signature": "AvailableFundsUpdated(uint256)"
                    },
                    "id": 3,
                    "logData": "0x",
                    "logDecoded": true,
                    "operation": "EVENT",
                    "revert": false,
                    "status": true,
                    "topics": [
                        "0xfe25c73e3b9089fac37d55c4c7efcba6f04af04cebd2fc4d6d7dbb07e1e5234f",
                        "0x000000000000000000000000000000000000000000000204fea8807f47970000"
                    ]
                },
                "nodeType": 1
            }
        },
        "gasFlame": [
            {
                "children": [
                    {
                        "children": [
                            {
                                "children": [],
                                "depth": 0,
                                "name": "Initial Gas",
                                "value": 21392
                            },
                            {
                                "children": [],
                                "depth": 0,
                                "name": "Executed Gas",
                                "value": 88478
                            }
                        ],
                        "depth": -1,
                        "name": "Actual Gas Used",
                        "value": 109870
                    },
                    {
                        "children": [],
                        "depth": -1,
                        "name": "Refunded Gas",
                        "value": 0
                    }
                ],
                "depth": -2,
                "name": "Total Gas",
                "value": 109870
            }
        ],
        "isConfirmed": true,
        "mainTrace": [
            {
                "children": [
                    {
                        "children": [
                            {
                                "children": [],
                                "depth": 1,
                                "id": 1,
                                "order": 1
                            },
                            {
                                "children": [],
                                "depth": 1,
                                "id": 2,
                                "order": 2
                            },
                            {
                                "children": [],
                                "depth": 1,
                                "id": 3,
                                "order": 3
                            }
                        ],
                        "depth": 0,
                        "id": 0,
                        "order": 0
                    }
                ],
                "depth": -1,
                "id": -1,
                "order": -1
            }
        ],
        "mainTraceNodeCount": 4,
        "parentIdMap": {
            "0": -1,
            "1": 0,
            "2": 0,
            "3": 0
        },
        "tidyTrace": [
            {
                "children": [
                    {
                        "children": [
                            {
                                "children": [],
                                "depth": 1,
                                "id": 1,
                                "order": 1
                            },
                            {
                                "children": [],
                                "depth": 1,
                                "id": 2,
                                "order": 2
                            },
                            {
                                "children": [],
                                "depth": 1,
                                "id": 3,
                                "order": 3
                            }
                        ],
                        "depth": 0,
                        "id": 0,
                        "order": 0
                    }
                ],
                "depth": -1,
                "id": -1,
                "order": -1
            }
        ],
        "tidyTraceNodeCount": 4
    },
    "state_change": {
        "stateChanges": [
            {
                "address": "0x9c6b454d42a69088719ff8b2ab30c04808c8d061",
                "erc": "",
                "slots": [
                    {
                        "current": "0x000000000000007eedbadca00b1e00000000000000000204fea8807f47970000",
                        "key": "0x000000000000000000000000000000000000000000000000000000000000000d",
                        "prev": "0x000000000000007ee403f6557c5800000000000000000205085f66c9d65d0000"
                    },
                    {
                        "current": "0x0000000000000000000000000000000000000000000000000000000000000008",
                        "key": "0x0dc66134380c83a041733d6a99cf3d66ca0e2b02e9be493bb70d16f8100e0311",
                        "prev": "0x0000000000000000000000000000000000000000000000000000000000000007"
                    },
                    {
                        "current": "0x000000000000000000000000000000000000000000000000000000001013e492",
                        "key": "0xb176d1334d15792c8496cee53a29de69c344b1c91589fe3da4497724ab3e2f23",
                        "prev": "0x0000000000000000000000000000000000000000000000000000000000000000"
                    },
                    {
                        "current": "0x000019890000198fffffffff0000046900000000000000029e4c12187b5e0000",
                        "key": "0x98fd1eaead9ced1bda32a17349c5e383fb31697b5acae8c60ca1cc5a6599247d",
                        "prev": "0x000019890000198effffffff00000469000000000000000294952bcdec980000"
                    },
                    {
                        "current": "0x000000000000000000000000000000000000000000000000000000001013e492",
                        "key": "0x98fd1eaead9ced1bda32a17349c5e383fb31697b5acae8c60ca1cc5a6599247e",
                        "prev": "0x000000000000000000000000000000000000000000000000000000001002b061"
                    },
                    {
                        "current": "0x00000000000000000000000000000000000000000000000000000000101065c9",
                        "key": "0x23a5ebcce91b024f1e5ff70048700581378ca6d57da584378c267477c4790173",
                        "prev": "0x00000000000000000000000000000000000000000000000000000000100ce701"
                    },
                    {
                        "current": "0x0000000000000000000000000000198f00000000600df28a00000000600df271",
                        "key": "0x23a5ebcce91b024f1e5ff70048700581378ca6d57da584378c267477c4790174",
                        "prev": "0x0000000000000000000000000000198f00000000600df28400000000600df271"
                    }
                ],
                "storageVariables": [
                    {
                        "name": "oracles",
                        "type": "mapping(address => struct FluxAggregator.OracleStatus)",
                        "value": {
                            "pairs": [
                                {
                                    "key": "0xcf2d187d3833dd9063b019d0c39e4566576c3c56",
                                    "value": {
                                        "fields": [
                                            {
                                                "name": "withdrawable",
                                                "type": "uint128",
                                                "value": {
                                                    "current": "48300000000000000000",
                                                    "prev": "47600000000000000000",
                                                    "typeTag": 1
                                                }
                                            },
                                            {
                                                "name": "startingRound",
                                                "type": "uint32",
                                                "value": {
                                                    "current": "1129",
                                                    "prev": "1129",
                                                    "typeTag": 1
                                                }
                                            },
                                            {
                                                "name": "endingRound",
                                                "type": "uint32",
                                                "value": {
                                                    "current": "4294967295",
                                                    "prev": "4294967295",
                                                    "typeTag": 1
                                                }
                                            },
                                            {
                                                "name": "lastReportedRound",
                                                "type": "uint32",
                                                "value": {
                                                    "current": "6543",
                                                    "prev": "6542",
                                                    "typeTag": 1
                                                }
                                            },
                                            {
                                                "name": "lastStartedRound",
                                                "type": "uint32",
                                                "value": {
                                                    "current": "6537",
                                                    "prev": "6537",
                                                    "typeTag": 1
                                                }
                                            },
                                            {
                                                "name": "latestSubmission",
                                                "type": "int256",
                                                "value": {
                                                    "current": "269739154",
                                                    "prev": "268611681",
                                                    "typeTag": 1
                                                }
                                            }
                                        ],
                                        "typeTag": 3
                                    }
                                }
                            ],
                            "typeTag": 4
                        }
                    },
                    {
                        "name": "rounds",
                        "type": "mapping(uint32 => struct FluxAggregator.Round)",
                        "value": {
                            "pairs": [
                                {
                                    "key": "6543",
                                    "value": {
                                        "fields": [
                                            {
                                                "name": "answer",
                                                "type": "int256",
                                                "value": {
                                                    "current": "269510089",
                                                    "prev": "269281025",
                                                    "typeTag": 1
                                                }
                                            },
                                            {
                                                "name": "startedAt",
                                                "type": "uint64",
                                                "value": {
                                                    "current": "1611526769",
                                                    "prev": "1611526769",
                                                    "typeTag": 1
                                                }
                                            },
                                            {
                                                "name": "updatedAt",
                                                "type": "uint64",
                                                "value": {
                                                    "current": "1611526794",
                                                    "prev": "1611526788",
                                                    "typeTag": 1
                                                }
                                            },
                                            {
                                                "name": "answeredInRound",
                                                "type": "uint32",
                                                "value": {
                                                    "current": "6543",
                                                    "prev": "6543",
                                                    "typeTag": 1
                                                }
                                            }
                                        ],
                                        "typeTag": 3
                                    }
                                }
                            ],
                            "typeTag": 4
                        }
                    },
                    {
                        "name": "recordedFunds",
                        "type": "struct FluxAggregator.Funds",
                        "value": {
                            "fields": [
                                {
                                    "name": "available",
                                    "type": "uint128",
                                    "value": {
                                        "current": "9536870000000000000000",
                                        "prev": "9537570000000000000000",
                                        "typeTag": 1
                                    }
                                },
                                {
                                    "name": "allocated",
                                    "type": "uint128",
                                    "value": {
                                        "current": "2341420000000000000000",
                                        "prev": "2340720000000000000000",
                                        "typeTag": 1
                                    }
                                }
                            ],
                            "typeTag": 3
                        }
                    },
                    {
                        "name": "details",
                        "type": "mapping(uint32 => struct FluxAggregator.RoundDetails)",
                        "value": {
                            "pairs": [
                                {
                                    "key": "6543",
                                    "value": {
                                        "fields": [
                                            {
                                                "name": "submissions",
                                                "type": "int256[]",
                                                "value": {
                                                    "elemType": "int256",
                                                    "elems": [
                                                        {
                                                            "index": 7,
                                                            "value": {
                                                                "current": "269739154",
                                                                "prev": "0",
                                                                "typeTag": 1
                                                            }
                                                        }
                                                    ],
                                                    "typeTag": 2
                                                }
                                            }
                                        ],
                                        "typeTag": 3
                                    }
                                }
                            ],
                            "typeTag": 4
                        }
                    }
                ]
            }
        ]
    }
}