{
    "balance_change": {
        "balanceChanges": [
            {
                "account": "0xe008e45935ab51db7e7d3d673d82b6d81200a0c2",
                "assets": [
                    {
                        "address": "0xdac17f958d2ee523a2206206994597c13d831ec7",
                        "amount": "1.050353",
                        "iconUrl": "https://assets.blocksec.com/icon/fcea71f3193ce895be44bfdf941f7e4c9381dd587f273c2d1a27f1263d84e4ea.png",
                        "isERC1155": false,
                        "isERC721": false,
                        "sign": false,
                        "value": "1.0489875411000000338"
                    },
                    {
                        "address": "0xa0b86991c6218b36c1d19d4a2e9eb0ce3606eb48",
                        "amount": "0.35705",
                        "iconUrl": "https://assets.blocksec.com/icon/0347a86cc07dbd03fdc5db01a4e5ac7e1217f90e0b6e4bb0f75cbcca09160989.png",
                        "isERC1155": false,
                        "isERC721": false,
                        "sign": false,
                        "value": "0.35626449000000000723"
                    }
                ]
            },
            {
                "account": "0x35c246e66c8deaf4ed4ea201d67c4b8756892827",
                "assets": [
                    {
                        "address": "0xdac17f958d2ee523a2206206994597c13d831ec7",
                        "amount": "0.05",
                        "iconUrl": "https://assets.blocksec.com/icon/fcea71f3193ce895be44bfdf941f7e4c9381dd587f273c2d1a27f1263d84e4ea.png",
                        "isERC1155": false,
                        "isERC721": false,
                        "sign": true,
                        "value": "0.04993500000000000161"
                    }
                ]
            },
            {
                "account": "0x64224bae31db9a14df1b7e53fa6a2f0fe11ea767",
                "assets": [
                    {
                        "address": "0xdac17f958d2ee523a2206206994597c13d831ec7",
                        "amount": "0.054891",
                        "iconUrl": "https://assets.blocksec.com/icon/fcea71f3193ce895be44bfdf941f7e4c9381dd587f273c2d1a27f1263d84e4ea.png",
                        "isERC1155": false,
                        "isERC721": false,
                        "sign": true,
                        "value": "0.054819641700000001764"
                    }
                ]
            },
            {
                "account": "0x8d63f68d30bbf328462c693a82587d17d89318a6",
                "assets": [
                    {
                        "address": "0xdac17f958d2ee523a2206206994597c13d831ec7",
                        "amount": "0.151094",
                        "iconUrl": "https://assets.blocksec.com/icon/fcea71f3193ce895be44bfdf941f7e4c9381dd587f273c2d1a27f1263d84e4ea.png",
                        "isERC1155": false,
                        "isERC721": false,
                        "sign": true,
                        "value": "0.15089757780000000485"
                    }
                ]
            },
            {
                "account": "0xa8d71b6cdfa4336987637753daa1e2c8c9a880ed",
                "assets": [
                    {
                        "address": "0xa0b86991c6218b36c1d19d4a2e9eb0ce3606eb48",
                        "amount": "0.28005",
                        "iconUrl": "https://assets.blocksec.com/icon/0347a86cc07dbd03fdc5db01a4e5ac7e1217f90e0b6e4bb0f75cbcca09160989.png",
                        "isERC1155": false,
                        "isERC721": false,
                        "sign": true,
                        "value": "0.27943389000000000568"
                    }
                ]
            },
            {
                "account": "0xb36ca55e1f8e40b1fd9d51a78bb32b87c4616bee",
                "assets": [
                    {
                        "address": "0xdac17f958d2ee523a2206206994597c13d831ec7",
                        "amount": "0.02299",
                        "iconUrl": "https://assets.blocksec.com/icon/fcea71f3193ce895be44bfdf941f7e4c9381dd587f273c2d1a27f1263d84e4ea.png",
                        "isERC1155": false,
                        "isERC721": false,
                        "sign": true,
                        "value": "0.02296011300000000074"
                    }
                ]
            },
            {
                "account": "0xd4b69e8d62c880e9dd55d419d5e07435c3538342",
                "assets": [
                    {
                        "address": "0xa0b86991c6218b36c1d19d4a2e9eb0ce3606eb48",
                        "amount": "0.05",
                        "iconUrl": "https://assets.blocksec.com/icon/0347a86cc07dbd03fdc5db01a4e5ac7e1217f90e0b6e4bb0f75cbcca09160989.png",
                        "isERC1155": false,
                        "isERC721": false,
                        "sign": true,
                        "value": "0.049890000000000001013"
                    }
                ]
            },
            {
                "account": "0xe410d2e0449fc0d7937b3082f03cd803a06bfb44",
                "assets": [
                    {
                        "address": "0xa0b86991c6218b36c1d19d4a2e9eb0ce3606eb48",
                        "amount": "0.027",
                        "iconUrl": "https://assets.blocksec.com/icon/0347a86cc07dbd03fdc5db01a4e5ac7e1217f90e0b6e4bb0f75cbcca09160989.png",
                        "isERC1155": false,
                        "isERC721": false,
                        "sign": true,
                        "value": "0.026940600000000000546"
                    }
                ]
            },
            {
                "account": "0xfcc04f667c40590ef4ac9b9f3f1603dbddee870c",
                "assets": [
                    {
                        "address": "0xdac17f958d2ee523a2206206994597c13d831ec7",
                        "amount": "0.771378",
                        "iconUrl": "https://assets.blocksec.com/icon/fcea71f3193ce895be44bfdf941f7e4c9381dd587f273c2d1a27f1263d84e4ea.png",
                        "isERC1155": false,
                        "isERC721": false,
                        "sign": true,
                        "value": "0.7703752086000000248"
                    }
                ]
            }
        ]
    },
    "profile": {
        "basic_info": {
            "baseFee": "25.680051112",
            "blockNumber": 16683057,
            "callData": "0x5b1f763f000000000000000000000000000000000000000000000000000000000000008000000000000000000000000000000000000000000000000000000000000001a000000000000000000000000000000000000000000000000000000000000002c000000000000000000000000000000000000000000000000000000000000003e00000000000000000000000000000000000000000000000000000000000000008000000000000000000000000d5b6625c61ab4109f045d257d4688ee1891c76120000000000000000000000001ac0a14771f552b67530ac6969b02efbcd274d7800000000000000000000000075fb8a1817c5e57124546333f6395b591c6eb1ae0000000000000000000000006d6d4811de31547da45bc6d78ea0076442dfb4eb000000000000000000000000b6cc2d3fd0890560949c26e71603ce140eb62066000000000000000000000000caef30ade6654524538205156503afabda0e6d7d0000000000000000000000003bd046a89183f87482a90b3d4c68c2f4ff4ee940000000000000000000000000ad757728a4a6400e1b1ab30e8ab7c3d2b385a72c0000000000000000000000000000000000000000000000000000000000000008000000000000000000000000fcc04f667c40590ef4ac9b9f3f1603dbddee870c0000000000000000000000008d63f68d30bbf328462c693a82587d17d89318a6000000000000000000000000a8d71b6cdfa4336987637753daa1e2c8c9a880ed000000000000000000000000b36ca55e1f8e40b1fd9d51a78bb32b87c4616bee00000000000000000000000064224bae31db9a14df1b7e53fa6a2f0fe11ea76700000000000000000000000035c246e66c8deaf4ed4ea201d67c4b8756892827000000000000000000000000e410d2e0449fc0d7937b3082f03cd803a06bfb44000000000000000000000000d4b69e8d62c880e9dd55d419d5e07435c3538342000000000000000000000000000000000000000000000000000000000000000800000000000000000000000000000000000000000000000000000000000bc5320000000000000000000000000000000000000000000000000000000000024e3600000000000000000000000000000000000000000000000000000000000445f200000000000000000000000000000000000000000000000000000000000059ce000000000000000000000000000000000000000000000000000000000000d66b000000000000000000000000000000000000000000000000000000000000c3500000000000000000000000000000000000000000000000000000000000006978000000000000000000000000000000000000000000000000000000000000c350000000000000000000000000000000000000000000000000000000000000000800000000000000000000000000000000000000000000000000000000000000000000000000000000000000000000000000000000000000000000000000000000000000000000000000000000000000000000000000000000000000000000000100000000000000000000000000000000000000000000000000000000000000000000000000000000000000000000000000000000000000000000000000000000000000000000000000000000000000000000000000000000000000000000000000000000000000000000000000000000000000000000000000000000000000010000000000000000000000000000000000000000000000000000000000000001",
            "debugEnable": true,
            "errorInfo": "",
            "eventCount": 16,
            "feeRecipient": "0x95222290dd7278aa3ddd389cc1e1d165cc4bafe5",
            "formatValue": "0",
            "gasLimit": 6000000,
            "gasPrice": "28.680051112",
            "gasUsed": 399991,
            "intTxnCount": 22,
            "internalRevert": false,
            "internalRevertMessage": "",
            "isContractCreation": false,
            "isFlashloan": false,
            "maxFee": "80",
            "nonce": 6885,
            "overwritedBlockNumber": -1,
            "priorityFee": "3",
            "receiver": "0xe008e45935ab51db7e7d3d673d82b6d81200a0c2",
            "revertMessage": "",
            "sender": "0xefb3729bc9c0ee64c718185d612c9538c0323306",
            "simulationEnable": true,
            "sourceTxnHash": "0x38bccaa3ae8ac23c8a685153b0ead00577ab6b64918cfe065cc81e4717564131",
            "status": true,
            "timestamp": "2023-02-22T09:19:23Z",
            "transactionFee": "0.011471762324339992",
            "txnHash": "0x38bccaa3ae8ac23c8a685153b0ead00577ab6b64918cfe065cc81e4717564131",
            "txnIndex": 12,
            "type": 2,
            "value": "0"
        },
        "fund_flow": [
            {
                "amount": "0.771378",
                "from": "0xe008e45935ab51db7e7d3d673d82b6d81200a0c2",
                "id": 1,
                "isERC1155": false,
                "isERC721": false,
                "isReverted": false,
                "order": 1,
                "to": "0xd5b6625c61ab4109f045d257d4688ee1891c7612",
                "token": "0xdac17f958d2ee523a2206206994597c13d831ec7"
            },
            {
                "amount": "0.771378",
                "from": "0xd5b6625c61ab4109f045d257d4688ee1891c7612",
                "id": 2,
                "isERC1155": false,
                "isERC721": false,
                "isReverted": false,
                "order": 2,
                "to": "0xfcc04f667c40590ef4ac9b9f3f1603dbddee870c",
                "token": "0xdac17f958d2ee523a2206206994597c13d831ec7"
            },
            {
                "amount": "0.151094",
                "from": "0xe008e45935ab51db7e7d3d673d82b6d81200a0c2",
                "id": 3,
                "isERC1155": false,
                "isERC721": false,
                "isReverted": false,
                "order": 3,
                "to": "0x1ac0a14771f552b67530ac6969b02efbcd274d78",
                "token": "0xdac17f958d2ee523a2206206994597c13d831ec7"
            },
            {
                "amount": "0.151094",
                "from": "0x1ac0a14771f552b67530ac6969b02efbcd274d78",
                "id": 4,
                "isERC1155": false,
                "isERC721": false,
                "isReverted": false,
                "order": 4,
                "to": "0x8d63f68d30bbf328462c693a82587d17d89318a6",
                "token": "0xdac17f958d2ee523a2206206994597c13d831ec7"
            },
            {
                "amount": "0.28005",
                "from": "0xe008e45935ab51db7e7d3d673d82b6d81200a0c2",
                "id": 5,
                "isERC1155": false,
                "isERC721": false,
                "isReverted": false,
                "order": 5,
                "to": "0x75fb8a1817c5e57124546333f6395b591c6eb1ae",
                "token": "0xa0b86991c6218b36c1d19d4a2e9eb0ce3606eb48"
            },
            {
                "amount": "0.28005",
                "from": "0x75fb8a1817c5e57124546333f6395b591c6eb1ae",
                "id": 6,
                "isERC1155": false,
                "isERC721": false,
                "isReverted": false,
                "order": 6,
                "to": "0xa8d71b6cdfa4336987637753daa1e2c8c9a880ed",
                "token": "0xa0b86991c6218b36c1d19d4a2e9eb0ce3606eb48"
            },
            {
                "amount": "0.02299",
                "from": "0xe008e45935ab51db7e7d3d673d82b6d81200a0c2",
                "id": 7,
                "isERC1155": false,
                "isERC721": false,
                "isReverted": false,
                "order": 7,
                "to": "0x6d6d4811de31547da45bc6d78ea0076442dfb4eb",
                "token": "0xdac17f958d2ee523a2206206994597c13d831ec7"
            },
            {
                "amount": "0.02299",
                "from": "0x6d6d4811de31547da45bc6d78ea0076442dfb4eb",
                "id": 8,
                "isERC1155": false,
                "isERC721": false,
                "isReverted": false,
                "order": 8,
                "to": "0xb36ca55e1f8e40b1fd9d51a78bb32b87c4616bee",
                "token": "0xdac17f958d2ee523a2206206994597c13d831ec7"
            },
            {
                "amount": "0.054891",
                "from": "0xe008e45935ab51db7e7d3d673d82b6d81200a0c2",
                "id": 9,
                "isERC1155": false,
                "isERC721": false,
                "isReverted": false,
                "order": 9,
                "to": "0xb6cc2d3fd0890560949c26e71603ce140eb62066",
                "token": "0xdac17f958d2ee523a2206206994597c13d831ec7"
            },
            {
                "amount": "0.054891",
                "from": "0xb6cc2d3fd0890560949c26e71603ce140eb62066",
                "id": 10,
                "isERC1155": false,
                "isERC721": false,
                "isReverted": false,
                "order": 10,
                "to": "0x64224bae31db9a14df1b7e53fa6a2f0fe11ea767",
                "token": "0xdac17f958d2ee523a2206206994597c13d831ec7"
            },
            {
                "amount": "0.05",
                "from": "0xe008e45935ab51db7e7d3d673d82b6d81200a0c2",
                "id": 11,
                "isERC1155": false,
                "isERC721": false,
                "isReverted": false,
                "order": 11,
                "to": "0xcaef30ade6654524538205156503afabda0e6d7d",
                "token": "0xdac17f958d2ee523a2206206994597c13d831ec7"
            },
            {
                "amount": "0.05",
                "from": "0xcaef30ade6654524538205156503afabda0e6d7d",
                "id": 12,
                "isERC1155": false,
                "isERC721": false,
                "isReverted": false,
                "order": 12,
                "to": "0x35c246e66c8deaf4ed4ea201d67c4b8756892827",
                "token": "0xdac17f958d2ee523a2206206994597c13d831ec7"
            },
            {
                "amount": "0.027",
                "from": "0xe008e45935ab51db7e7d3d673d82b6d81200a0c2",
                "id": 13,
                "isERC1155": false,
                "isERC721": false,
                "isReverted": false,
                "order": 13,
                "to": "0x3bd046a89183f87482a90b3d4c68c2f4ff4ee940",
                "token": "0xa0b86991c6218b36c1d19d4a2e9eb0ce3606eb48"
            },
            {
                "amount": "0.027",
                "from": "0x3bd046a89183f87482a90b3d4c68c2f4ff4ee940",
                "id": 14,
                "isERC1155": false,
                "isERC721": false,
                "isReverted": false,
                "order": 14,
                "to": "0xe410d2e0449fc0d7937b3082f03cd803a06bfb44",
                "token": "0xa0b86991c6218b36c1d19d4a2e9eb0ce3606eb48"
            },
            {
                "amount": "0.05",
                "from": "0xe008e45935ab51db7e7d3d673d82b6d81200a0c2",
                "id": 15,
                "isERC1155": false,
                "isERC721": false,
                "isReverted": false,
                "order": 15,
                "to": "0xad757728a4a6400e1b1ab30e8ab7c3d2b385a72c",
                "token": "0xa0b86991c6218b36c1d19d4a2e9eb0ce3606eb48"
            },
            {
                "amount": "0.05",
                "from": "0xad757728a4a6400e1b1ab30e8ab7c3d2b385a72c",
                "id": 16,
                "isERC1155": false,
                "isERC721": false,
                "isReverted": false,
                "order": 16,
                "to": "0xd4b69e8d62c880e9dd55d419d5e07435c3538342",
                "token": "0xa0b86991c6218b36c1d19d4a2e9eb0ce3606eb48"
            }
        ],
        "token_infos": [
            {
                "address": "0xc02aaa39b223fe8d0a0e5c4f27ead9083c756cc2",
                "decimals": 18
            },
            {
                "address": "0xdac17f958d2ee523a2206206994597c13d831ec7",
                "decimals": 6
            },
            {
                "address": "0xeeeeeeeeeeeeeeeeeeeeeeeeeeeeeeeeeeeeeeee",
                "decimals": 18
            },
            {
                "address": "0xa0b86991c6218b36c1d19d4a2e9eb0ce3606eb48",
                "decimals": 6
            }
        ]
    },
    "address_label": {
        "labels": [
            {
                "address": "0x0000000000000000000000000000000000000002",
                "label": "Precompiled"
            },
            {
                "address": "0xefb3729bc9c0ee64c718185d612c9538c0323306",
                "label": "Fake_Phishing11701"
            },
            {
                "address": "0x0000000000000000000000000000000000000001",
                "label": "Precompiled"
            },
            {
                "address": "0xad757728a4a6400e1b1ab30e8ab7c3d2b385a72c",
                "label": "Fake_Phishing26199"
            },
            {
                "address": "0x6d6d4811de31547da45bc6d78ea0076442dfb4eb",
                "label": "Fake_Phishing36539"
            },
            {
                "address": "0xb6cc2d3fd0890560949c26e71603ce140eb62066",
                "label": "Fake_Phishing35503"
            },
            {
                "address": "0xcaef30ade6654524538205156503afabda0e6d7d",
                "label": "Fake_Phishing36540"
            },
            {
                "address": "0xd4b69e8d62c880e9dd55d419d5e07435c3538342",
                "label": "DWF Labs: 0xD4B...342"
            },
            {
                "address": "0x1ac0a14771f552b67530ac6969b02efbcd274d78",
                "label": "Fake_Phishing36538"
            },
            {
                "address": "0x75fb8a1817c5e57124546333f6395b591c6eb1ae",
                "label": "Fake_Phishing12254"
            },
            {
                "address": "0xdac17f958d2ee523a2206206994597c13d831ec7",
                "label": "Tether: USDT Stablecoin"
            },
            {
                "address": "0x3bd046a89183f87482a90b3d4c68c2f4ff4ee940",
                "label": "Fake_Phishing36541"
            },
            {
                "address": "0x0000000000000000000000000000000000000003",
                "label": "Precompiled"
            },
            {
                "address": "0xeeeeeeeeeeeeeeeeeeeeeeeeeeeeeeeeeeeeeeee",
                "label": "Ether"
            },
            {
                "address": "0xa2327a938febf5fec13bacfb16ae10ecbc4cbdcf",
                "label": "FiatTokenV2_1"
            },
            {
                "address": "0xe008e45935ab51db7e7d3d673d82b6d81200a0c2",
                "label": "Fake_Phishing11700"
            },
            {
                "address": "0x0000000000000000000000000000000000000004",
                "label": "Precompiled"
            },
            {
                "address": "0xd5b6625c61ab4109f045d257d4688ee1891c7612",
                "label": "Fake_Phishing13122"
            },
            {
                "address": "0xa0b86991c6218b36c1d19d4a2e9eb0ce3606eb48",
                "label": "Circle: USDC Token"
            }
        ]
    },
    "trace": {
        "accountLabels": null,
        "dataMap": {
            "-1": {
                "invocation": {
                    "address": "0xefb3729bc9c0ee64c718185d612c9538c0323306",
                    "callData": "",
                    "decodedMethod": null,
                    "errorInfo": "",
                    "fromAddress": "",
                    "gasUsed": 0,
                    "id": -1,
                    "methodDecoded": false,
                    "operation": "",
                    "output": "",
                    "revert": false,
                    "revertMessage": "",
                    "selector": "",
                    "status": false,
                    "value": ""
                },
                "nodeType": 0
            },
            "0": {
                "invocation": {
                    "address": "0xe008e45935ab51db7e7d3d673d82b6d81200a0c2",
                    "callData": "0x000000000000000000000000000000000000000000000000000000000000008000000000000000000000000000000000000000000000000000000000000001a000000000000000000000000000000000000000000000000000000000000002c000000000000000000000000000000000000000000000000000000000000003e00000000000000000000000000000000000000000000000000000000000000008000000000000000000000000d5b6625c61ab4109f045d257d4688ee1891c76120000000000000000000000001ac0a14771f552b67530ac6969b02efbcd274d7800000000000000000000000075fb8a1817c5e57124546333f6395b591c6eb1ae0000000000000000000000006d6d4811de31547da45bc6d78ea0076442dfb4eb000000000000000000000000b6cc2d3fd0890560949c26e71603ce140eb62066000000000000000000000000caef30ade6654524538205156503afabda0e6d7d0000000000000000000000003bd046a89183f87482a90b3d4c68c2f4ff4ee940000000000000000000000000ad757728a4a6400e1b1ab30e8ab7c3d2b385a72c0000000000000000000000000000000000000000000000000000000000000008000000000000000000000000fcc04f667c40590ef4ac9b9f3f1603dbddee870c0000000000000000000000008d63f68d30bbf328462c693a82587d17d89318a6000000000000000000000000a8d71b6cdfa4336987637753daa1e2c8c9a880ed000000000000000000000000b36ca55e1f8e40b1fd9d51a78bb32b87c4616bee00000000000000000000000064224bae31db9a14df1b7e53fa6a2f0fe11ea76700000000000000000000000035c246e66c8deaf4ed4ea201d67c4b8756892827000000000000000000000000e410d2e0449fc0d7937b3082f03cd803a06bfb44000000000000000000000000d4b69e8d62c880e9dd55d419d5e07435c3538342000000000000000000000000000000000000000000000000000000000000000800000000000000000000000000000000000000000000000000000000000bc5320000000000000000000000000000000000000000000000000000000000024e3600000000000000000000000000000000000000000000000000000000000445f200000000000000000000000000000000000000000000000000000000000059ce000000000000000000000000000000000000000000000000000000000000d66b000000000000000000000000000000000000000000000000000000000000c3500000000000000000000000000000000000000000000000000000000000006978000000000000000000000000000000000000000000000000000000000000c350000000000000000000000000000000000000000000000000000000000000000800000000000000000000000000000000000000000000000000000000000000000000000000000000000000000000000000000000000000000000000000000000000000000000000000000000000000000000000000000000000000000000000100000000000000000000000000000000000000000000000000000000000000000000000000000000000000000000000000000000000000000000000000000000000000000000000000000000000000000000000000000000000000000000000000000000000000000000000000000000000000000000000000000000000000010000000000000000000000000000000000000000000000000000000000000001",
                    "decodedMethod": null,
                    "errorInfo": "",
                    "fromAddress": "0xefb3729bc9c0ee64c718185d612c9538c0323306",
                    "gasUsed": 399991,
                    "id": 0,
                    "methodDecoded": false,
                    "operation": "CALL",
                    "output": "",
                    "revert": false,
                    "revertMessage": "",
                    "selector": "0x5b1f763f",
                    "status": true,
                    "value": "0"
                },
                "nodeType": 0
            },
            "1": {
                "invocation": {
                    "address": "0xdac17f958d2ee523a2206206994597c13d831ec7",
                    "callData": "0x000000000000000000000000d5b6625c61ab4109f045d257d4688ee1891c761200000000000000000000000000000000000000000000000000000000000bc532",
                    "decodedMethod": {
                        "callParams": [
                            {
                                "name": "_to",
                                "type": "address",
                                "value": "0xd5b6625c61ab4109f045d257d4688ee1891c7612"
                            },
                            {
                                "decimalAvailable": true,
                                "name": "_value",
                                "type": "uint256",
                                "value": "771,378"
                            }
                        ],
                        "constructorArguments": "",
                        "name": "transfer",
                        "returnParams": [],
                        "signature": "transfer(address,uint256)"
                    },
                    "errorInfo": "",
                    "fromAddress": "0xe008e45935ab51db7e7d3d673d82b6d81200a0c2",
                    "gasUsed": 41601,
                    "id": 1,
                    "methodDecoded": true,
                    "operation": "CALL",
                    "output": "",
                    "revert": false,
                    "revertMessage": "",
                    "selector": "0xa9059cbb",
                    "status": true,
                    "value": "0"
                },
                "nodeType": 0
            },
            "10": {
                "invocation": {
                    "address": "0xa2327a938febf5fec13bacfb16ae10ecbc4cbdcf",
                    "callData": "0x00000000000000000000000075fb8a1817c5e57124546333f6395b591c6eb1ae00000000000000000000000000000000000000000000000000000000000445f2",
                    "decodedMethod": {
                        "callParams": [
                            {
                                "name": "to",
                                "type": "address",
                                "value": "0x75fb8a1817c5e57124546333f6395b591c6eb1ae"
                            },
                            {
                                "decimalAvailable": true,
                                "name": "value",
                                "type": "uint256",
                                "value": "280,050"
                            }
                        ],
                        "constructorArguments": "",
                        "name": "transfer",
                        "returnParams": [
                            {
                                "name": "",
                                "type": "bool",
                                "value": true
                            }
                        ],
                        "signature": "transfer(address,uint256)"
                    },
                    "errorInfo": "",
                    "fromAddress": "0xa0b86991c6218b36c1d19d4a2e9eb0ce3606eb48",
                    "gasUsed": 36728,
                    "id": 10,
                    "methodDecoded": true,
                    "operation": "DELEGATECALL",
                    "output": "0x0000000000000000000000000000000000000000000000000000000000000001",
                    "revert": false,
                    "revertMessage": "",
                    "selector": "0xa9059cbb",
                    "status": true,
                    "value": "0"
                },
                "nodeType": 0
            },
            "11": {
                "event": {
                    "contract": "0xa0b86991c6218b36c1d19d4a2e9eb0ce3606eb48",
                    "decodedLog": {
                        "name": "Transfer",
                        "params": [
                            {
                                "name": "from",
                                "type": "address",
                                "value": "0xe008e45935ab51db7e7d3d673d82b6d81200a0c2"
                            },
                            {
                                "name": "to",
                                "type": "address",
                                "value": "0x75fb8a1817c5e57124546333f6395b591c6eb1ae"
                            },
                            {
                                "decimalAvailable": true,
                                "name": "value",
                                "type": "uint256",
                                "value": "280,050"
                            }
                        ],
                        "signature": "Transfer(address,address,uint256)"
                    },
                    "id": 11,
                    "logData": "0x00000000000000000000000000000000000000000000000000000000000445f2",
                    "logDecoded": true,
                    "operation": "EVENT",
                    "revert": false,
                    "status": true,
                    "topics": [
                        "0xddf252ad1be2c89b69c2b068fc378daa952ba7f163c4a11628f55a4df523b3ef",
                        "0x000000000000000000000000e008e45935ab51db7e7d3d673d82b6d81200a0c2",
                        "0x00000000000000000000000075fb8a1817c5e57124546333f6395b591c6eb1ae"
                    ]
                },
                "nodeType": 1
            },
            "12": {
                "invocation": {
                    "address": "0xa0b86991c6218b36c1d19d4a2e9eb0ce3606eb48",
                    "callData": "0x00000000000000000000000075fb8a1817c5e57124546333f6395b591c6eb1ae000000000000000000000000a8d71b6cdfa4336987637753daa1e2c8c9a880ed00000000000000000000000000000000000000000000000000000000000445f2",
                    "decodedMethod": {
                        "callParams": [
                            {
                                "name": "from",
                                "type": "address",
                                "value": "0x75fb8a1817c5e57124546333f6395b591c6eb1ae"
                            },
                            {
                                "name": "to",
                                "type": "address",
                                "value": "0xa8d71b6cdfa4336987637753daa1e2c8c9a880ed"
                            },
                            {
                                "decimalAvailable": true,
                                "name": "value",
                                "type": "uint256",
                                "value": "280,050"
                            }
                        ],
                        "constructorArguments": "",
                        "name": "transferFrom",
                        "returnParams": [
                            {
                                "name": "",
                                "type": "bool",
                                "value": true
                            }
                        ],
                        "signature": "transferFrom(address,address,uint256)"
                    },
                    "errorInfo": "",
                    "fromAddress": "0xe008e45935ab51db7e7d3d673d82b6d81200a0c2",
                    "gasUsed": 34692,
                    "id": 12,
                    "methodDecoded": true,
                    "operation": "CALL",
                    "output": "0x0000000000000000000000000000000000000000000000000000000000000001",
                    "revert": false,
                    "revertMessage": "",
                    "selector": "0x23b872dd",
                    "status": true,
                    "value": "0"
                },
                "nodeType": 0
            },
            "13": {
                "invocation": {
                    "address": "0xa2327a938febf5fec13bacfb16ae10ecbc4cbdcf",
                    "callData": "0x00000000000000000000000075fb8a1817c5e57124546333f6395b591c6eb1ae000000000000000000000000a8d71b6cdfa4336987637753daa1e2c8c9a880ed00000000000000000000000000000000000000000000000000000000000445f2",
                    "decodedMethod": {
                        "callParams": [
                            {
                                "name": "from",
                                "type": "address",
                                "value": "0x75fb8a1817c5e57124546333f6395b591c6eb1ae"
                            },
                            {
                                "name": "to",
                                "type": "address",
                                "value": "0xa8d71b6cdfa4336987637753daa1e2c8c9a880ed"
                            },
                            {
                                "decimalAvailable": true,
                                "name": "value",
                                "type": "uint256",
                                "value": "280,050"
                            }
                        ],
                        "constructorArguments": "",
                        "name": "transferFrom",
                        "returnParams": [
                            {
                                "name": "",
                                "type": "bool",
                                "value": true
                            }
                        ],
                        "signature": "transferFrom(address,address,uint256)"
                    },
                    "errorInfo": "",
                    "fromAddress": "0xa0b86991c6218b36c1d19d4a2e9eb0ce3606eb48",
                    "gasUsed": 33897,
                    "id": 13,
                    "methodDecoded": true,
                    "operation": "DELEGATECALL",
                    "output": "0x0000000000000000000000000000000000000000000000000000000000000001",
                    "revert": false,
                    "revertMessage": "",
                    "selector": "0x23b872dd",
                    "status": true,
                    "value": "0"
                },
                "nodeType": 0
            },
            "14": {
                "event": {
                    "contract": "0xa0b86991c6218b36c1d19d4a2e9eb0ce3606eb48",
                    "decodedLog": {
                        "name": "Transfer",
                        "params": [
                            {
                                "name": "from",
                                "type": "address",
                                "value": "0x75fb8a1817c5e57124546333f6395b591c6eb1ae"
                            },
                            {
                                "name": "to",
                                "type": "address",
                                "value": "0xa8d71b6cdfa4336987637753daa1e2c8c9a880ed"
                            },
                            {
                                "decimalAvailable": true,
                                "name": "value",
                                "type": "uint256",
                                "value": "280,050"
                            }
                        ],
                        "signature": "Transfer(address,address,uint256)"
                    },
                    "id": 14,
                    "logData": "0x00000000000000000000000000000000000000000000000000000000000445f2",
                    "logDecoded": true,
                    "operation": "EVENT",
                    "revert": false,
                    "status": true,
                    "topics": [
                        "0xddf252ad1be2c89b69c2b068fc378daa952ba7f163c4a11628f55a4df523b3ef",
                        "0x00000000000000000000000075fb8a1817c5e57124546333f6395b591c6eb1ae",
                        "0x000000000000000000000000a8d71b6cdfa4336987637753daa1e2c8c9a880ed"
                    ]
                },
                "nodeType": 1
            },
            "15": {
                "invocation": {
                    "address": "0xdac17f958d2ee523a2206206994597c13d831ec7",
                    "callData": "0x0000000000000000000000006d6d4811de31547da45bc6d78ea0076442dfb4eb00000000000000000000000000000000000000000000000000000000000059ce",
                    "decodedMethod": {
                        "callParams": [
                            {
                                "name": "_to",
                                "type": "address",
                                "value": "0x6d6d4811de31547da45bc6d78ea0076442dfb4eb"
                            },
                            {
                                "decimalAvailable": true,
                                "name": "_value",
                                "type": "uint256",
                                "value": "22,990"
                            }
                        ],
                        "constructorArguments": "",
                        "name": "transfer",
                        "returnParams": [],
                        "signature": "transfer(address,uint256)"
                    },
                    "errorInfo": "",
                    "fromAddress": "0xe008e45935ab51db7e7d3d673d82b6d81200a0c2",
                    "gasUsed": 26801,
                    "id": 15,
                    "methodDecoded": true,
                    "operation": "CALL",
                    "output": "",
                    "revert": false,
                    "revertMessage": "",
                    "selector": "0xa9059cbb",
                    "status": true,
                    "value": "0"
                },
                "nodeType": 0
            },
            "16": {
                "event": {
                    "contract": "0xdac17f958d2ee523a2206206994597c13d831ec7",
                    "decodedLog": {
                        "name": "Transfer",
                        "params": [
                            {
                                "name": "from",
                                "type": "address",
                                "value": "0xe008e45935ab51db7e7d3d673d82b6d81200a0c2"
                            },
                            {
                                "name": "to",
                                "type": "address",
                                "value": "0x6d6d4811de31547da45bc6d78ea0076442dfb4eb"
                            },
                            {
                                "decimalAvailable": true,
                                "name": "value",
                                "type": "uint256",
                                "value": "22,990"
                            }
                        ],
                        "signature": "Transfer(address,address,uint256)"
                    },
                    "id": 16,
                    "logData": "0x00000000000000000000000000000000000000000000000000000000000059ce",
                    "logDecoded": true,
                    "operation": "EVENT",
                    "revert": false,
                    "status": true,
                    "topics": [
                        "0xddf252ad1be2c89b69c2b068fc378daa952ba7f163c4a11628f55a4df523b3ef",
                        "0x000000000000000000000000e008e45935ab51db7e7d3d673d82b6d81200a0c2",
                        "0x0000000000000000000000006d6d4811de31547da45bc6d78ea0076442dfb4eb"
                    ]
                },
                "nodeType": 1
            },
            "17": {
                "invocation": {
                    "address": "0xdac17f958d2ee523a2206206994597c13d831ec7",
                    "callData": "0x0000000000000000000000006d6d4811de31547da45bc6d78ea0076442dfb4eb000000000000000000000000b36ca55e1f8e40b1fd9d51a78bb32b87c4616bee00000000000000000000000000000000000000000000000000000000000059ce",
                    "decodedMethod": {
                        "callParams": [
                            {
                                "name": "_from",
                                "type": "address",
                                "value": "0x6d6d4811de31547da45bc6d78ea0076442dfb4eb"
                            },
                            {
                                "name": "_to",
                                "type": "address",
                                "value": "0xb36ca55e1f8e40b1fd9d51a78bb32b87c4616bee"
                            },
                            {
                                "decimalAvailable": true,
                                "name": "_value",
                                "type": "uint256",
                                "value": "22,990"
                            }
                        ],
                        "constructorArguments": "",
                        "name": "transferFrom",
                        "returnParams": [],
                        "signature": "transferFrom(address,address,uint256)"
                    },
                    "errorInfo": "",
                    "fromAddress": "0xe008e45935ab51db7e7d3d673d82b6d81200a0c2",
                    "gasUsed": 16924,
                    "id": 17,
                    "methodDecoded": true,
                    "operation": "CALL",
                    "output": "",
                    "revert": false,
                    "revertMessage": "",
                    "selector": "0x23b872dd",
                    "status": true,
                    "value": "0"
                },
                "nodeType": 0
            },
            "18": {
                "event": {
                    "contract": "0xdac17f958d2ee523a2206206994597c13d831ec7",
                    "decodedLog": {
                        "name": "Transfer",
                        "params": [
                            {
                                "name": "from",
                                "type": "address",
                                "value": "0x6d6d4811de31547da45bc6d78ea0076442dfb4eb"
                            },
                            {
                                "name": "to",
                                "type": "address",
                                "value": "0xb36ca55e1f8e40b1fd9d51a78bb32b87c4616bee"
                            },
                            {
                                "decimalAvailable": true,
                                "name": "value",
                                "type": "uint256",
                                "value": "22,990"
                            }
                        ],
                        "signature": "Transfer(address,address,uint256)"
                    },
                    "id": 18,
                    "logData": "0x00000000000000000000000000000000000000000000000000000000000059ce",
                    "logDecoded": true,
                    "operation": "EVENT",
                    "revert": false,
                    "status": true,
                    "topics": [
                        "0xddf252ad1be2c89b69c2b068fc378daa952ba7f163c4a11628f55a4df523b3ef",
                        "0x0000000000000000000000006d6d4811de31547da45bc6d78ea0076442dfb4eb",
                        "0x000000000000000000000000b36ca55e1f8e40b1fd9d51a78bb32b87c4616bee"
                    ]
                },
                "nodeType": 1
            },
            "19": {
                "invocation": {
                    "address": "0xdac17f958d2ee523a2206206994597c13d831ec7",
                    "callData": "0x000000000000000000000000b6cc2d3fd0890560949c26e71603ce140eb62066000000000000000000000000000000000000000000000000000000000000d66b",
                    "decodedMethod": {
                        "callParams": [
                            {
                                "name": "_to",
                                "type": "address",
                                "value": "0xb6cc2d3fd0890560949c26e71603ce140eb62066"
                            },
                            {
                                "decimalAvailable": true,
                                "name": "_value",
                                "type": "uint256",
                                "value": "54,891"
                            }
                        ],
                        "constructorArguments": "",
                        "name": "transfer",
                        "returnParams": [],
                        "signature": "transfer(address,uint256)"
                    },
                    "errorInfo": "",
                    "fromAddress": "0xe008e45935ab51db7e7d3d673d82b6d81200a0c2",
                    "gasUsed": 26801,
                    "id": 19,
                    "methodDecoded": true,
                    "operation": "CALL",
                    "output": "",
                    "revert": false,
                    "revertMessage": "",
                    "selector": "0xa9059cbb",
                    "status": true,
                    "value": "0"
                },
                "nodeType": 0
            },
            "2": {
                "event": {
                    "contract": "0xdac17f958d2ee523a2206206994597c13d831ec7",
                    "decodedLog": {
                        "name": "Transfer",
                        "params": [
                            {
                                "name": "from",
                                "type": "address",
                                "value": "0xe008e45935ab51db7e7d3d673d82b6d81200a0c2"
                            },
                            {
                                "name": "to",
                                "type": "address",
                                "value": "0xd5b6625c61ab4109f045d257d4688ee1891c7612"
                            },
                            {
                                "decimalAvailable": true,
                                "name": "value",
                                "type": "uint256",
                                "value": "771,378"
                            }
                        ],
                        "signature": "Transfer(address,address,uint256)"
                    },
                    "id": 2,
                    "logData": "0x00000000000000000000000000000000000000000000000000000000000bc532",
                    "logDecoded": true,
                    "operation": "EVENT",
                    "revert": false,
                    "status": true,
                    "topics": [
                        "0xddf252ad1be2c89b69c2b068fc378daa952ba7f163c4a11628f55a4df523b3ef",
                        "0x000000000000000000000000e008e45935ab51db7e7d3d673d82b6d81200a0c2",
                        "0x000000000000000000000000d5b6625c61ab4109f045d257d4688ee1891c7612"
                    ]
                },
                "nodeType": 1
            },
            "20": {
                "event": {
                    "contract": "0xdac17f958d2ee523a2206206994597c13d831ec7",
                    "decodedLog": {
                        "name": "Transfer",
                        "params": [
                            {
                                "name": "from",
                                "type": "address",
                                "value": "0xe008e45935ab51db7e7d3d673d82b6d81200a0c2"
                            },
                            {
                                "name": "to",
                                "type": "address",
                                "value": "0xb6cc2d3fd0890560949c26e71603ce140eb62066"
                            },
                            {
                                "decimalAvailable": true,
                                "name": "value",
                                "type": "uint256",
                                "value": "54,891"
                            }
                        ],
                        "signature": "Transfer(address,address,uint256)"
                    },
                    "id": 20,
                    "logData": "0x000000000000000000000000000000000000000000000000000000000000d66b",
                    "logDecoded": true,
                    "operation": "EVENT",
                    "revert": false,
                    "status": true,
                    "topics": [
                        "0xddf252ad1be2c89b69c2b068fc378daa952ba7f163c4a11628f55a4df523b3ef",
                        "0x000000000000000000000000e008e45935ab51db7e7d3d673d82b6d81200a0c2",
                        "0x000000000000000000000000b6cc2d3fd0890560949c26e71603ce140eb62066"
                    ]
                },
                "nodeType": 1
            },
            "21": {
                "invocation": {
                    "address": "0xdac17f958d2ee523a2206206994597c13d831ec7",
                    "callData": "0x000000000000000000000000b6cc2d3fd0890560949c26e71603ce140eb6206600000000000000000000000064224bae31db9a14df1b7e53fa6a2f0fe11ea767000000000000000000000000000000000000000000000000000000000000d66b",
                    "decodedMethod": {
                        "callParams": [
                            {
                                "name": "_from",
                                "type": "address",
                                "value": "0xb6cc2d3fd0890560949c26e71603ce140eb62066"
                            },
                            {
                                "name": "_to",
                                "type": "address",
                                "value": "0x64224bae31db9a14df1b7e53fa6a2f0fe11ea767"
                            },
                            {
                                "decimalAvailable": true,
                                "name": "_value",
                                "type": "uint256",
                                "value": "54,891"
                            }
                        ],
                        "constructorArguments": "",
                        "name": "transferFrom",
                        "returnParams": [],
                        "signature": "transferFrom(address,address,uint256)"
                    },
                    "errorInfo": "",
                    "fromAddress": "0xe008e45935ab51db7e7d3d673d82b6d81200a0c2",
                    "gasUsed": 16924,
                    "id": 21,
                    "methodDecoded": true,
                    "operation": "CALL",
                    "output": "",
                    "revert": false,
                    "revertMessage": "",
                    "selector": "0x23b872dd",
                    "status": true,
                    "value": "0"
                },
                "nodeType": 0
            },
            "22": {
                "event": {
                    "contract": "0xdac17f958d2ee523a2206206994597c13d831ec7",
                    "decodedLog": {
                        "name": "Transfer",
                        "params": [
                            {
                                "name": "from",
                                "type": "address",
                                "value": "0xb6cc2d3fd0890560949c26e71603ce140eb62066"
                            },
                            {
                                "name": "to",
                                "type": "address",
                                "value": "0x64224bae31db9a14df1b7e53fa6a2f0fe11ea767"
                            },
                            {
                                "decimalAvailable": true,
                                "name": "value",
                                "type": "uint256",
                                "value": "54,891"
                            }
                        ],
                        "signature": "Transfer(address,address,uint256)"
                    },
                    "id": 22,
                    "logData": "0x000000000000000000000000000000000000000000000000000000000000d66b",
                    "logDecoded": true,
                    "operation": "EVENT",
                    "revert": false,
                    "status": true,
                    "topics": [
                        "0xddf252ad1be2c89b69c2b068fc378daa952ba7f163c4a11628f55a4df523b3ef",
                        "0x000000000000000000000000b6cc2d3fd0890560949c26e71603ce140eb62066",
                        "0x00000000000000000000000064224bae31db9a14df1b7e53fa6a2f0fe11ea767"
                    ]
                },
                "nodeType": 1
            },
            "23": {
                "invocation": {
                    "address": "0xdac17f958d2ee523a2206206994597c13d831ec7",
                    "callData": "0x000000000000000000000000caef30ade6654524538205156503afabda0e6d7d000000000000000000000000000000000000000000000000000000000000c350",
                    "decodedMethod": {
                        "callParams": [
                            {
                                "name": "_to",
                                "type": "address",
                                "value": "0xcaef30ade6654524538205156503afabda0e6d7d"
                            },
                            {
                                "decimalAvailable": true,
                                "name": "_value",
                                "type": "uint256",
                                "value": "50,000"
                            }
                        ],
                        "constructorArguments": "",
                        "name": "transfer",
                        "returnParams": [],
                        "signature": "transfer(address,uint256)"
                    },
                    "errorInfo": "",
                    "fromAddress": "0xe008e45935ab51db7e7d3d673d82b6d81200a0c2",
                    "gasUsed": 26801,
                    "id": 23,
                    "methodDecoded": true,
                    "operation": "CALL",
                    "output": "",
                    "revert": false,
                    "revertMessage": "",
                    "selector": "0xa9059cbb",
                    "status": true,
                    "value": "0"
                },
                "nodeType": 0
            },
            "24": {
                "event": {
                    "contract": "0xdac17f958d2ee523a2206206994597c13d831ec7",
                    "decodedLog": {
                        "name": "Transfer",
                        "params": [
                            {
                                "name": "from",
                                "type": "address",
                                "value": "0xe008e45935ab51db7e7d3d673d82b6d81200a0c2"
                            },
                            {
                                "name": "to",
                                "type": "address",
                                "value": "0xcaef30ade6654524538205156503afabda0e6d7d"
                            },
                            {
                                "decimalAvailable": true,
                                "name": "value",
                                "type": "uint256",
                                "value": "50,000"
                            }
                        ],
                        "signature": "Transfer(address,address,uint256)"
                    },
                    "id": 24,
                    "logData": "0x000000000000000000000000000000000000000000000000000000000000c350",
                    "logDecoded": true,
                    "operation": "EVENT",
                    "revert": false,
                    "status": true,
                    "topics": [
                        "0xddf252ad1be2c89b69c2b068fc378daa952ba7f163c4a11628f55a4df523b3ef",
                        "0x000000000000000000000000e008e45935ab51db7e7d3d673d82b6d81200a0c2",
                        "0x000000000000000000000000caef30ade6654524538205156503afabda0e6d7d"
                    ]
                },
                "nodeType": 1
            },
            "25": {
                "invocation": {
                    "address": "0xdac17f958d2ee523a2206206994597c13d831ec7",
                    "callData": "0x000000000000000000000000caef30ade6654524538205156503afabda0e6d7d00000000000000000000000035c246e66c8deaf4ed4ea201d67c4b8756892827000000000000000000000000000000000000000000000000000000000000c350",
                    "decodedMethod": {
                        "callParams": [
                            {
                                "name": "_from",
                                "type": "address",
                                "value": "0xcaef30ade6654524538205156503afabda0e6d7d"
                            },
                            {
                                "name": "_to",
                                "type": "address",
                                "value": "0x35c246e66c8deaf4ed4ea201d67c4b8756892827"
                            },
                            {
                                "decimalAvailable": true,
                                "name": "_value",
                                "type": "uint256",
                                "value": "50,000"
                            }
                        ],
                        "constructorArguments": "",
                        "name": "transferFrom",
                        "returnParams": [],
                        "signature": "transferFrom(address,address,uint256)"
                    },
                    "errorInfo": "",
                    "fromAddress": "0xe008e45935ab51db7e7d3d673d82b6d81200a0c2",
                    "gasUsed": 16924,
                    "id": 25,
                    "methodDecoded": true,
                    "operation": "CALL",
                    "output": "",
                    "revert": false,
                    "revertMessage": "",
                    "selector": "0x23b872dd",
                    "status": true,
                    "value": "0"
                },
                "nodeType": 0
            },
            "26": {
                "event": {
                    "contract": "0xdac17f958d2ee523a2206206994597c13d831ec7",
                    "decodedLog": {
                        "name": "Transfer",
                        "params": [
                            {
                                "name": "from",
                                "type": "address",
                                "value": "0xcaef30ade6654524538205156503afabda0e6d7d"
                            },
                            {
                                "name": "to",
                                "type": "address",
                                "value": "0x35c246e66c8deaf4ed4ea201d67c4b8756892827"
                            },
                            {
                                "decimalAvailable": true,
                                "name": "value",
                                "type": "uint256",
                                "value": "50,000"
                            }
                        ],
                        "signature": "Transfer(address,address,uint256)"
                    },
                    "id": 26,
                    "logData": "0x000000000000000000000000000000000000000000000000000000000000c350",
                    "logDecoded": true,
                    "operation": "EVENT",
                    "revert": false,
                    "status": true,
                    "topics": [
                        "0xddf252ad1be2c89b69c2b068fc378daa952ba7f163c4a11628f55a4df523b3ef",
                        "0x000000000000000000000000caef30ade6654524538205156503afabda0e6d7d",
                        "0x00000000000000000000000035c246e66c8deaf4ed4ea201d67c4b8756892827"
                    ]
                },
                "nodeType": 1
            },
            "27": {
                "invocation": {
                    "address": "0xa0b86991c6218b36c1d19d4a2e9eb0ce3606eb48",
                    "callData": "0x0000000000000000000000003bd046a89183f87482a90b3d4c68c2f4ff4ee9400000000000000000000000000000000000000000000000000000000000006978",
                    "decodedMethod": {
                        "callParams": [
                            {
                                "name": "to",
                                "type": "address",
                                "value": "0x3bd046a89183f87482a90b3d4c68c2f4ff4ee940"
                            },
                            {
                                "decimalAvailable": true,
                                "name": "value",
                                "type": "uint256",
                                "value": "27,000"
                            }
                        ],
                        "constructorArguments": "",
                        "name": "transfer",
                        "returnParams": [
                            {
                                "name": "",
                                "type": "bool",
                                "value": true
                            }
                        ],
                        "signature": "transfer(address,uint256)"
                    },
                    "errorInfo": "",
                    "fromAddress": "0xe008e45935ab51db7e7d3d673d82b6d81200a0c2",
                    "gasUsed": 28717,
                    "id": 27,
                    "methodDecoded": true,
                    "operation": "CALL",
                    "output": "0x0000000000000000000000000000000000000000000000000000000000000001",
                    "revert": false,
                    "revertMessage": "",
                    "selector": "0xa9059cbb",
                    "status": true,
                    "value": "0"
                },
                "nodeType": 0
            },
            "28": {
                "invocation": {
                    "address": "0xa2327a938febf5fec13bacfb16ae10ecbc4cbdcf",
                    "callData": "0x0000000000000000000000003bd046a89183f87482a90b3d4c68c2f4ff4ee9400000000000000000000000000000000000000000000000000000000000006978",
                    "decodedMethod": {
                        "callParams": [
                            {
                                "name": "to",
                                "type": "address",
                                "value": "0x3bd046a89183f87482a90b3d4c68c2f4ff4ee940"
                            },
                            {
                                "decimalAvailable": true,
                                "name": "value",
                                "type": "uint256",
                                "value": "27,000"
                            }
                        ],
                        "constructorArguments": "",
                        "name": "transfer",
                        "returnParams": [
                            {
                                "name": "",
                                "type": "bool",
                                "value": true
                            }
                        ],
                        "signature": "transfer(address,uint256)"
                    },
                    "errorInfo": "",
                    "fromAddress": "0xa0b86991c6218b36c1d19d4a2e9eb0ce3606eb48",
                    "gasUsed": 27928,
                    "id": 28,
                    "methodDecoded": true,
                    "operation": "DELEGATECALL",
                    "output": "0x0000000000000000000000000000000000000000000000000000000000000001",
                    "revert": false,
                    "revertMessage": "",
                    "selector": "0xa9059cbb",
                    "status": true,
                    "value": "0"
                },
                "nodeType": 0
            },
            "29": {
                "event": {
                    "contract": "0xa0b86991c6218b36c1d19d4a2e9eb0ce3606eb48",
                    "decodedLog": {
                        "name": "Transfer",
                        "params": [
                            {
                                "name": "from",
                                "type": "address",
                                "value": "0xe008e45935ab51db7e7d3d673d82b6d81200a0c2"
                            },
                            {
                                "name": "to",
                                "type": "address",
                                "value": "0x3bd046a89183f87482a90b3d4c68c2f4ff4ee940"
                            },
                            {
                                "decimalAvailable": true,
                                "name": "value",
                                "type": "uint256",
                                "value": "27,000"
                            }
                        ],
                        "signature": "Transfer(address,address,uint256)"
                    },
                    "id": 29,
                    "logData": "0x0000000000000000000000000000000000000000000000000000000000006978",
                    "logDecoded": true,
                    "operation": "EVENT",
                    "revert": false,
                    "status": true,
                    "topics": [
                        "0xddf252ad1be2c89b69c2b068fc378daa952ba7f163c4a11628f55a4df523b3ef",
                        "0x000000000000000000000000e008e45935ab51db7e7d3d673d82b6d81200a0c2",
                        "0x0000000000000000000000003bd046a89183f87482a90b3d4c68c2f4ff4ee940"
                    ]
                },
                "nodeType": 1
            },
            "3": {
                "invocation": {
                    "address": "0xdac17f958d2ee523a2206206994597c13d831ec7",
                    "callData": "0x000000000000000000000000d5b6625c61ab4109f045d257d4688ee1891c7612000000000000000000000000fcc04f667c40590ef4ac9b9f3f1603dbddee870c00000000000000000000000000000000000000000000000000000000000bc532",
                    "decodedMethod": {
                        "callParams": [
                            {
                                "name": "_from",
                                "type": "address",
                                "value": "0xd5b6625c61ab4109f045d257d4688ee1891c7612"
                            },
                            {
                                "name": "_to",
                                "type": "address",
                                "value": "0xfcc04f667c40590ef4ac9b9f3f1603dbddee870c"
                            },
                            {
                                "decimalAvailable": true,
                                "name": "_value",
                                "type": "uint256",
                                "value": "771,378"
                            }
                        ],
                        "constructorArguments": "",
                        "name": "transferFrom",
                        "returnParams": [],
                        "signature": "transferFrom(address,address,uint256)"
                    },
                    "errorInfo": "",
                    "fromAddress": "0xe008e45935ab51db7e7d3d673d82b6d81200a0c2",
                    "gasUsed": 16924,
                    "id": 3,
                    "methodDecoded": true,
                    "operation": "CALL",
                    "output": "",
                    "revert": false,
                    "revertMessage": "",
                    "selector": "0x23b872dd",
                    "status": true,
                    "value": "0"
                },
                "nodeType": 0
            },
            "30": {
                "invocation": {
                    "address": "0xa0b86991c6218b36c1d19d4a2e9eb0ce3606eb48",
                    "callData": "0x0000000000000000000000003bd046a89183f87482a90b3d4c68c2f4ff4ee940000000000000000000000000e410d2e0449fc0d7937b3082f03cd803a06bfb440000000000000000000000000000000000000000000000000000000000006978",
                    "decodedMethod": {
                        "callParams": [
                            {
                                "name": "from",
                                "type": "address",
                                "value": "0x3bd046a89183f87482a90b3d4c68c2f4ff4ee940"
                            },
                            {
                                "name": "to",
                                "type": "address",
                                "value": "0xe410d2e0449fc0d7937b3082f03cd803a06bfb44"
                            },
                            {
                                "decimalAvailable": true,
                                "name": "value",
                                "type": "uint256",
                                "value": "27,000"
                            }
                        ],
                        "constructorArguments": "",
                        "name": "transferFrom",
                        "returnParams": [
                            {
                                "name": "",
                                "type": "bool",
                                "value": true
                            }
                        ],
                        "signature": "transferFrom(address,address,uint256)"
                    },
                    "errorInfo": "",
                    "fromAddress": "0xe008e45935ab51db7e7d3d673d82b6d81200a0c2",
                    "gasUsed": 17592,
                    "id": 30,
                    "methodDecoded": true,
                    "operation": "CALL",
                    "output": "0x0000000000000000000000000000000000000000000000000000000000000001",
                    "revert": false,
                    "revertMessage": "",
                    "selector": "0x23b872dd",
                    "status": true,
                    "value": "0"
                },
                "nodeType": 0
            },
            "31": {
                "invocation": {
                    "address": "0xa2327a938febf5fec13bacfb16ae10ecbc4cbdcf",
                    "callData": "0x0000000000000000000000003bd046a89183f87482a90b3d4c68c2f4ff4ee940000000000000000000000000e410d2e0449fc0d7937b3082f03cd803a06bfb440000000000000000000000000000000000000000000000000000000000006978",
                    "decodedMethod": {
                        "callParams": [
                            {
                                "name": "from",
                                "type": "address",
                                "value": "0x3bd046a89183f87482a90b3d4c68c2f4ff4ee940"
                            },
                            {
                                "name": "to",
                                "type": "address",
                                "value": "0xe410d2e0449fc0d7937b3082f03cd803a06bfb44"
                            },
                            {
                                "decimalAvailable": true,
                                "name": "value",
                                "type": "uint256",
                                "value": "27,000"
                            }
                        ],
                        "constructorArguments": "",
                        "name": "transferFrom",
                        "returnParams": [
                            {
                                "name": "",
                                "type": "bool",
                                "value": true
                            }
                        ],
                        "signature": "transferFrom(address,address,uint256)"
                    },
                    "errorInfo": "",
                    "fromAddress": "0xa0b86991c6218b36c1d19d4a2e9eb0ce3606eb48",
                    "gasUsed": 16797,
                    "id": 31,
                    "methodDecoded": true,
                    "operation": "DELEGATECALL",
                    "output": "0x0000000000000000000000000000000000000000000000000000000000000001",
                    "revert": false,
                    "revertMessage": "",
                    "selector": "0x23b872dd",
                    "status": true,
                    "value": "0"
                },
                "nodeType": 0
            },
            "32": {
                "event": {
                    "contract": "0xa0b86991c6218b36c1d19d4a2e9eb0ce3606eb48",
                    "decodedLog": {
                        "name": "Transfer",
                        "params": [
                            {
                                "name": "from",
                                "type": "address",
                                "value": "0x3bd046a89183f87482a90b3d4c68c2f4ff4ee940"
                            },
                            {
                                "name": "to",
                                "type": "address",
                                "value": "0xe410d2e0449fc0d7937b3082f03cd803a06bfb44"
                            },
                            {
                                "decimalAvailable": true,
                                "name": "value",
                                "type": "uint256",
                                "value": "27,000"
                            }
                        ],
                        "signature": "Transfer(address,address,uint256)"
                    },
                    "id": 32,
                    "logData": "0x0000000000000000000000000000000000000000000000000000000000006978",
                    "logDecoded": true,
                    "operation": "EVENT",
                    "revert": false,
                    "status": true,
                    "topics": [
                        "0xddf252ad1be2c89b69c2b068fc378daa952ba7f163c4a11628f55a4df523b3ef",
                        "0x0000000000000000000000003bd046a89183f87482a90b3d4c68c2f4ff4ee940",
                        "0x000000000000000000000000e410d2e0449fc0d7937b3082f03cd803a06bfb44"
                    ]
                },
                "nodeType": 1
            },
            "33": {
                "invocation": {
                    "address": "0xa0b86991c6218b36c1d19d4a2e9eb0ce3606eb48",
                    "callData": "0x000000000000000000000000ad757728a4a6400e1b1ab30e8ab7c3d2b385a72c000000000000000000000000000000000000000000000000000000000000c350",
                    "decodedMethod": {
                        "callParams": [
                            {
                                "name": "to",
                                "type": "address",
                                "value": "0xad757728a4a6400e1b1ab30e8ab7c3d2b385a72c"
                            },
                            {
                                "decimalAvailable": true,
                                "name": "value",
                                "type": "uint256",
                                "value": "50,000"
                            }
                        ],
                        "constructorArguments": "",
                        "name": "transfer",
                        "returnParams": [
                            {
                                "name": "",
                                "type": "bool",
                                "value": true
                            }
                        ],
                        "signature": "transfer(address,uint256)"
                    },
                    "errorInfo": "",
                    "fromAddress": "0xe008e45935ab51db7e7d3d673d82b6d81200a0c2",
                    "gasUsed": 28717,
                    "id": 33,
                    "methodDecoded": true,
                    "operation": "CALL",
                    "output": "0x0000000000000000000000000000000000000000000000000000000000000001",
                    "revert": false,
                    "revertMessage": "",
                    "selector": "0xa9059cbb",
                    "status": true,
                    "value": "0"
                },
                "nodeType": 0
            },
            "34": {
                "invocation": {
                    "address": "0xa2327a938febf5fec13bacfb16ae10ecbc4cbdcf",
                    "callData": "0x000000000000000000000000ad757728a4a6400e1b1ab30e8ab7c3d2b385a72c000000000000000000000000000000000000000000000000000000000000c350",
                    "decodedMethod": {
                        "callParams": [
                            {
                                "name": "to",
                                "type": "address",
                                "value": "0xad757728a4a6400e1b1ab30e8ab7c3d2b385a72c"
                            },
                            {
                                "decimalAvailable": true,
                                "name": "value",
                                "type": "uint256",
                                "value": "50,000"
                            }
                        ],
                        "constructorArguments": "",
                        "name": "transfer",
                        "returnParams": [
                            {
                                "name": "",
                                "type": "bool",
                                "value": true
                            }
                        ],
                        "signature": "transfer(address,uint256)"
                    },
                    "errorInfo": "",
                    "fromAddress": "0xa0b86991c6218b36c1d19d4a2e9eb0ce3606eb48",
                    "gasUsed": 27928,
                    "id": 34,
                    "methodDecoded": true,
                    "operation": "DELEGATECALL",
                    "output": "0x0000000000000000000000000000000000000000000000000000000000000001",
                    "revert": false,
                    "revertMessage": "",
                    "selector": "0xa9059cbb",
                    "status": true,
                    "value": "0"
                },
                "nodeType": 0
            },
            "35": {
                "event": {
                    "contract": "0xa0b86991c6218b36c1d19d4a2e9eb0ce3606eb48",
                    "decodedLog": {
                        "name": "Transfer",
                        "params": [
                            {
                                "name": "from",
                                "type": "address",
                                "value": "0xe008e45935ab51db7e7d3d673d82b6d81200a0c2"
                            },
                            {
                                "name": "to",
                                "type": "address",
                                "value": "0xad757728a4a6400e1b1ab30e8ab7c3d2b385a72c"
                            },
                            {
                                "decimalAvailable": true,
                                "name": "value",
                                "type": "uint256",
                                "value": "50,000"
                            }
                        ],
                        "signature": "Transfer(address,address,uint256)"
                    },
                    "id": 35,
                    "logData": "0x000000000000000000000000000000000000000000000000000000000000c350",
                    "logDecoded": true,
                    "operation": "EVENT",
                    "revert": false,
                    "status": true,
                    "topics": [
                        "0xddf252ad1be2c89b69c2b068fc378daa952ba7f163c4a11628f55a4df523b3ef",
                        "0x000000000000000000000000e008e45935ab51db7e7d3d673d82b6d81200a0c2",
                        "0x000000000000000000000000ad757728a4a6400e1b1ab30e8ab7c3d2b385a72c"
                    ]
                },
                "nodeType": 1
            },
            "36": {
                "invocation": {
                    "address": "0xa0b86991c6218b36c1d19d4a2e9eb0ce3606eb48",
                    "callData": "0x000000000000000000000000ad757728a4a6400e1b1ab30e8ab7c3d2b385a72c000000000000000000000000d4b69e8d62c880e9dd55d419d5e07435c3538342000000000000000000000000000000000000000000000000000000000000c350",
                    "decodedMethod": {
                        "callParams": [
                            {
                                "name": "from",
                                "type": "address",
                                "value": "0xad757728a4a6400e1b1ab30e8ab7c3d2b385a72c"
                            },
                            {
                                "name": "to",
                                "type": "address",
                                "value": "0xd4b69e8d62c880e9dd55d419d5e07435c3538342"
                            },
                            {
                                "decimalAvailable": true,
                                "name": "value",
                                "type": "uint256",
                                "value": "50,000"
                            }
                        ],
                        "constructorArguments": "",
                        "name": "transferFrom",
                        "returnParams": [
                            {
                                "name": "",
                                "type": "bool",
                                "value": true
                            }
                        ],
                        "signature": "transferFrom(address,address,uint256)"
                    },
                    "errorInfo": "",
                    "fromAddress": "0xe008e45935ab51db7e7d3d673d82b6d81200a0c2",
                    "gasUsed": 17592,
                    "id": 36,
                    "methodDecoded": true,
                    "operation": "CALL",
                    "output": "0x0000000000000000000000000000000000000000000000000000000000000001",
                    "revert": false,
                    "revertMessage": "",
                    "selector": "0x23b872dd",
                    "status": true,
                    "value": "0"
                },
                "nodeType": 0
            },
            "37": {
                "invocation": {
                    "address": "0xa2327a938febf5fec13bacfb16ae10ecbc4cbdcf",
                    "callData": "0x000000000000000000000000ad757728a4a6400e1b1ab30e8ab7c3d2b385a72c000000000000000000000000d4b69e8d62c880e9dd55d419d5e07435c3538342000000000000000000000000000000000000000000000000000000000000c350",
                    "decodedMethod": {
                        "callParams": [
                            {
                                "name": "from",
                                "type": "address",
                                "value": "0xad757728a4a6400e1b1ab30e8ab7c3d2b385a72c"
                            },
                            {
                                "name": "to",
                                "type": "address",
                                "value": "0xd4b69e8d62c880e9dd55d419d5e07435c3538342"
                            },
                            {
                                "decimalAvailable": true,
                                "name": "value",
                                "type": "uint256",
                                "value": "50,000"
                            }
                        ],
                        "constructorArguments": "",
                        "name": "transferFrom",
                        "returnParams": [
                            {
                                "name": "",
                                "type": "bool",
                                "value": true
                            }
                        ],
                        "signature": "transferFrom(address,address,uint256)"
                    },
                    "errorInfo": "",
                    "fromAddress": "0xa0b86991c6218b36c1d19d4a2e9eb0ce3606eb48",
                    "gasUsed": 16797,
                    "id": 37,
                    "methodDecoded": true,
                    "operation": "DELEGATECALL",
                    "output": "0x0000000000000000000000000000000000000000000000000000000000000001",
                    "revert": false,
                    "revertMessage": "",
                    "selector": "0x23b872dd",
                    "status": true,
                    "value": "0"
                },
                "nodeType": 0
            },
            "38": {
                "event": {
                    "contract": "0xa0b86991c6218b36c1d19d4a2e9eb0ce3606eb48",
                    "decodedLog": {
                        "name": "Transfer",
                        "params": [
                            {
                                "name": "from",
                                "type": "address",
                                "value": "0xad757728a4a6400e1b1ab30e8ab7c3d2b385a72c"
                            },
                            {
                                "name": "to",
                                "type": "address",
                                "value": "0xd4b69e8d62c880e9dd55d419d5e07435c3538342"
                            },
                            {
                                "decimalAvailable": true,
                                "name": "value",
                                "type": "uint256",
                                "value": "50,000"
                            }
                        ],
                        "signature": "Transfer(address,address,uint256)"
                    },
                    "id": 38,
                    "logData": "0x000000000000000000000000000000000000000000000000000000000000c350",
                    "logDecoded": true,
                    "operation": "EVENT",
                    "revert": false,
                    "status": true,
                    "topics": [
                        "0xddf252ad1be2c89b69c2b068fc378daa952ba7f163c4a11628f55a4df523b3ef",
                        "0x000000000000000000000000ad757728a4a6400e1b1ab30e8ab7c3d2b385a72c",
                        "0x000000000000000000000000d4b69e8d62c880e9dd55d419d5e07435c3538342"
                    ]
                },
                "nodeType": 1
            },
            "4": {
                "event": {
                    "contract": "0xdac17f958d2ee523a2206206994597c13d831ec7",
                    "decodedLog": {
                        "name": "Transfer",
                        "params": [
                            {
                                "name": "from",
                                "type": "address",
                                "value": "0xd5b6625c61ab4109f045d257d4688ee1891c7612"
                            },
                            {
                                "name": "to",
                                "type": "address",
                                "value": "0xfcc04f667c40590ef4ac9b9f3f1603dbddee870c"
                            },
                            {
                                "decimalAvailable": true,
                                "name": "value",
                                "type": "uint256",
                                "value": "771,378"
                            }
                        ],
                        "signature": "Transfer(address,address,uint256)"
                    },
                    "id": 4,
                    "logData": "0x00000000000000000000000000000000000000000000000000000000000bc532",
                    "logDecoded": true,
                    "operation": "EVENT",
                    "revert": false,
                    "status": true,
                    "topics": [
                        "0xddf252ad1be2c89b69c2b068fc378daa952ba7f163c4a11628f55a4df523b3ef",
                        "0x000000000000000000000000d5b6625c61ab4109f045d257d4688ee1891c7612",
                        "0x000000000000000000000000fcc04f667c40590ef4ac9b9f3f1603dbddee870c"
                    ]
                },
                "nodeType": 1
            },
            "5": {
                "invocation": {
                    "address": "0xdac17f958d2ee523a2206206994597c13d831ec7",
                    "callData": "0x0000000000000000000000001ac0a14771f552b67530ac6969b02efbcd274d780000000000000000000000000000000000000000000000000000000000024e36",
                    "decodedMethod": {
                        "callParams": [
                            {
                                "name": "_to",
                                "type": "address",
                                "value": "0x1ac0a14771f552b67530ac6969b02efbcd274d78"
                            },
                            {
                                "decimalAvailable": true,
                                "name": "_value",
                                "type": "uint256",
                                "value": "151,094"
                            }
                        ],
                        "constructorArguments": "",
                        "name": "transfer",
                        "returnParams": [],
                        "signature": "transfer(address,uint256)"
                    },
                    "errorInfo": "",
                    "fromAddress": "0xe008e45935ab51db7e7d3d673d82b6d81200a0c2",
                    "gasUsed": 26801,
                    "id": 5,
                    "methodDecoded": true,
                    "operation": "CALL",
                    "output": "",
                    "revert": false,
                    "revertMessage": "",
                    "selector": "0xa9059cbb",
                    "status": true,
                    "value": "0"
                },
                "nodeType": 0
            },
            "6": {
                "event": {
                    "contract": "0xdac17f958d2ee523a2206206994597c13d831ec7",
                    "decodedLog": {
                        "name": "Transfer",
                        "params": [
                            {
                                "name": "from",
                                "type": "address",
                                "value": "0xe008e45935ab51db7e7d3d673d82b6d81200a0c2"
                            },
                            {
                                "name": "to",
                                "type": "address",
                                "value": "0x1ac0a14771f552b67530ac6969b02efbcd274d78"
                            },
                            {
                                "decimalAvailable": true,
                                "name": "value",
                                "type": "uint256",
                                "value": "151,094"
                            }
                        ],
                        "signature": "Transfer(address,address,uint256)"
                    },
                    "id": 6,
                    "logData": "0x0000000000000000000000000000000000000000000000000000000000024e36",
                    "logDecoded": true,
                    "operation": "EVENT",
                    "revert": false,
                    "status": true,
                    "topics": [
                        "0xddf252ad1be2c89b69c2b068fc378daa952ba7f163c4a11628f55a4df523b3ef",
                        "0x000000000000000000000000e008e45935ab51db7e7d3d673d82b6d81200a0c2",
                        "0x0000000000000000000000001ac0a14771f552b67530ac6969b02efbcd274d78"
                    ]
                },
                "nodeType": 1
            },
            "7": {
                "invocation": {
                    "address": "0xdac17f958d2ee523a2206206994597c13d831ec7",
                    "callData": "0x0000000000000000000000001ac0a14771f552b67530ac6969b02efbcd274d780000000000000000000000008d63f68d30bbf328462c693a82587d17d89318a60000000000000000000000000000000000000000000000000000000000024e36",
                    "decodedMethod": {
                        "callParams": [
                            {
                                "name": "_from",
                                "type": "address",
                                "value": "0x1ac0a14771f552b67530ac6969b02efbcd274d78"
                            },
                            {
                                "name": "_to",
                                "type": "address",
                                "value": "0x8d63f68d30bbf328462c693a82587d17d89318a6"
                            },
                            {
                                "decimalAvailable": true,
                                "name": "_value",
                                "type": "uint256",
                                "value": "151,094"
                            }
                        ],
                        "constructorArguments": "",
                        "name": "transferFrom",
                        "returnParams": [],
                        "signature": "transferFrom(address,address,uint256)"
                    },
                    "errorInfo": "",
                    "fromAddress": "0xe008e45935ab51db7e7d3d673d82b6d81200a0c2",
                    "gasUsed": 16924,
                    "id": 7,
                    "methodDecoded": true,
                    "operation": "CALL",
                    "output": "",
                    "revert": false,
                    "revertMessage": "",
                    "selector": "0x23b872dd",
                    "status": true,
                    "value": "0"
                },
                "nodeType": 0
            },
            "8": {
                "event": {
                    "contract": "0xdac17f958d2ee523a2206206994597c13d831ec7",
                    "decodedLog": {
                        "name": "Transfer",
                        "params": [
                            {
                                "name": "from",
                                "type": "address",
                                "value": "0x1ac0a14771f552b67530ac6969b02efbcd274d78"
                            },
                            {
                                "name": "to",
                                "type": "address",
                                "value": "0x8d63f68d30bbf328462c693a82587d17d89318a6"
                            },
                            {
                                "decimalAvailable": true,
                                "name": "value",
                                "type": "uint256",
                                "value": "151,094"
                            }
                        ],
                        "signature": "Transfer(address,address,uint256)"
                    },
                    "id": 8,
                    "logData": "0x0000000000000000000000000000000000000000000000000000000000024e36",
                    "logDecoded": true,
                    "operation": "EVENT",
                    "revert": false,
                    "status": true,
                    "topics": [
                        "0xddf252ad1be2c89b69c2b068fc378daa952ba7f163c4a11628f55a4df523b3ef",
                        "0x0000000000000000000000001ac0a14771f552b67530ac6969b02efbcd274d78",
                        "0x0000000000000000000000008d63f68d30bbf328462c693a82587d17d89318a6"
                    ]
                },
                "nodeType": 1
            },
            "9": {
                "invocation": {
                    "address": "0xa0b86991c6218b36c1d19d4a2e9eb0ce3606eb48",
                    "callData": "0x00000000000000000000000075fb8a1817c5e57124546333f6395b591c6eb1ae00000000000000000000000000000000000000000000000000000000000445f2",
                    "decodedMethod": {
                        "callParams": [
                            {
                                "name": "to",
                                "type": "address",
                                "value": "0x75fb8a1817c5e57124546333f6395b591c6eb1ae"
                            },
                            {
                                "decimalAvailable": true,
                                "name": "value",
                                "type": "uint256",
                                "value": "280,050"
                            }
                        ],
                        "constructorArguments": "",
                        "name": "transfer",
                        "returnParams": [
                            {
                                "name": "",
                                "type": "bool",
                                "value": true
                            }
                        ],
                        "signature": "transfer(address,uint256)"
                    },
                    "errorInfo": "",
                    "fromAddress": "0xe008e45935ab51db7e7d3d673d82b6d81200a0c2",
                    "gasUsed": 44017,
                    "id": 9,
                    "methodDecoded": true,
                    "operation": "CALL",
                    "output": "0x0000000000000000000000000000000000000000000000000000000000000001",
                    "revert": false,
                    "revertMessage": "",
                    "selector": "0xa9059cbb",
                    "status": true,
                    "value": "0"
                },
                "nodeType": 0
            }
        },
        "gasFlame": [
            {
                "children": [
                    {
                        "children": [
                            {
                                "children": [],
                                "depth": 0,
                                "name": "Initial Gas",
                                "value": 30420
                            },
                            {
                                "children": [
                                    {
                                        "children": [],
                                        "depth": 1,
                                        "name": "transfer",
                                        "value": 41601
                                    },
                                    {
                                        "children": [],
                                        "depth": 1,
                                        "name": "transferFrom",
                                        "value": 16924
                                    },
                                    {
                                        "children": [],
                                        "depth": 1,
                                        "name": "transfer",
                                        "value": 26801
                                    },
                                    {
                                        "children": [],
                                        "depth": 1,
                                        "name": "transferFrom",
                                        "value": 16924
                                    },
                                    {
                                        "children": [
                                            {
                                                "children": [],
                                                "depth": 2,
                                                "name": "transfer",
                                                "value": 36728
                                            }
                                        ],
                                        "depth": 1,
                                        "name": "transfer",
                                        "value": 44017
                                    },
                                    {
                                        "children": [
                                            {
                                                "children": [],
                                                "depth": 2,
                                                "name": "transferFrom",
                                                "value": 33897
                                            }
                                        ],
                                        "depth": 1,
                                        "name": "transferFrom",
                                        "value": 34692
                                    },
                                    {
                                        "children": [],
                                        "depth": 1,
                                        "name": "transfer",
                                        "value": 26801
                                    },
                                    {
                                        "children": [],
                                        "depth": 1,
                                        "name": "transferFrom",
                                        "value": 16924
                                    },
                                    {
                                        "children": [],
                                        "depth": 1,
                                        "name": "transfer",
                                        "value": 26801
                                    },
                                    {
                                        "children": [],
                                        "depth": 1,
                                        "name": "transferFrom",
                                        "value": 16924
                                    },
                                    {
                                        "children": [],
                                        "depth": 1,
                                        "name": "transfer",
                                        "value": 26801
                                    },
                                    {
                                        "children": [],
                                        "depth": 1,
                                        "name": "transferFrom",
                                        "value": 16924
                                    },
                                    {
                                        "children": [
                                            {
                                                "children": [],
                                                "depth": 2,
                                                "name": "transfer",
                                                "value": 27928
                                            }
                                        ],
                                        "depth": 1,
                                        "name": "transfer",
                                        "value": 28717
                                    },
                                    {
                                        "children": [
                                            {
                                                "children": [],
                                                "depth": 2,
                                                "name": "transferFrom",
                                                "value": 16797
                                            }
                                        ],
                                        "depth": 1,
                                        "name": "transferFrom",
                                        "value": 17592
                                    },
                                    {
                                        "children": [
                                            {
                                                "children": [],
                                                "depth": 2,
                                                "name": "transfer",
                                                "value": 27928
                                            }
                                        ],
                                        "depth": 1,
                                        "name": "transfer",
                                        "value": 28717
                                    },
                                    {
                                        "children": [
                                            {
                                                "children": [],
                                                "depth": 2,
                                                "name": "transferFrom",
                                                "value": 16797
                                            }
                                        ],
                                        "depth": 1,
                                        "name": "transferFrom",
                                        "value": 17592
                                    }
                                ],
                                "depth": 0,
                                "name": "Executed Gas",
                                "value": 469568
                            }
                        ],
                        "depth": -1,
                        "name": "Actual Gas Used",
                        "value": 399991
                    },
                    {
                        "children": [],
                        "depth": -1,
                        "name": "Refunded Gas",
                        "value": 99997
                    }
                ],
                "depth": -2,
                "name": "Total Gas",
                "value": 499988
            }
        ],
        "isConfirmed": true,
        "mainTrace": [
            {
                "children": [
                    {
                        "children": [
                            {
                                "children": [
                                    {
                                        "children": [],
                                        "depth": 2,
                                        "id": 2,
                                        "order": 2
                                    }
                                ],
                                "depth": 1,
                                "id": 1,
                                "order": 1
                            },
                            {
                                "children": [
                                    {
                                        "children": [],
                                        "depth": 2,
                                        "id": 4,
                                        "order": 4
                                    }
                                ],
                                "depth": 1,
                                "id": 3,
                                "order": 3
                            },
                            {
                                "children": [
                                    {
                                        "children": [],
                                        "depth": 2,
                                        "id": 6,
                                        "order": 6
                                    }
                                ],
                                "depth": 1,
                                "id": 5,
                                "order": 5
                            },
                            {
                                "children": [
                                    {
                                        "children": [],
                                        "depth": 2,
                                        "id": 8,
                                        "order": 8
                                    }
                                ],
                                "depth": 1,
                                "id": 7,
                                "order": 7
                            },
                            {
                                "children": [
                                    {
                                        "children": [
                                            {
                                                "children": [],
                                                "depth": 3,
                                                "id": 11,
                                                "order": 11
                                            }
                                        ],
                                        "depth": 2,
                                        "id": 10,
                                        "order": 10
                                    }
                                ],
                                "depth": 1,
                                "id": 9,
                                "order": 9
                            },
                            {
                                "children": [
                                    {
                                        "children": [
                                            {
                                                "children": [],
                                                "depth": 3,
                                                "id": 14,
                                                "order": 14
                                            }
                                        ],
                                        "depth": 2,
                                        "id": 13,
                                        "order": 13
                                    }
                                ],
                                "depth": 1,
                                "id": 12,
                                "order": 12
                            },
                            {
                                "children": [
                                    {
                                        "children": [],
                                        "depth": 2,
                                        "id": 16,
                                        "order": 16
                                    }
                                ],
                                "depth": 1,
                                "id": 15,
                                "order": 15
                            },
                            {
                                "children": [
                                    {
                                        "children": [],
                                        "depth": 2,
                                        "id": 18,
                                        "order": 18
                                    }
                                ],
                                "depth": 1,
                                "id": 17,
                                "order": 17
                            },
                            {
                                "children": [
                                    {
                                        "children": [],
                                        "depth": 2,
                                        "id": 20,
                                        "order": 20
                                    }
                                ],
                                "depth": 1,
                                "id": 19,
                                "order": 19
                            },
                            {
                                "children": [
                                    {
                                        "children": [],
                                        "depth": 2,
                                        "id": 22,
                                        "order": 22
                                    }
                                ],
                                "depth": 1,
                                "id": 21,
                                "order": 21
                            },
                            {
                                "children": [
                                    {
                                        "children": [],
                                        "depth": 2,
                                        "id": 24,
                                        "order": 24
                                    }
                                ],
                                "depth": 1,
                                "id": 23,
                                "order": 23
                            },
                            {
                                "children": [
                                    {
                                        "children": [],
                                        "depth": 2,
                                        "id": 26,
                                        "order": 26
                                    }
                                ],
                                "depth": 1,
                                "id": 25,
                                "order": 25
                            },
                            {
                                "children": [
                                    {
                                        "children": [
                                            {
                                                "children": [],
                                                "depth": 3,
                                                "id": 29,
                                                "order": 29
                                            }
                                        ],
                                        "depth": 2,
                                        "id": 28,
                                        "order": 28
                                    }
                                ],
                                "depth": 1,
                                "id": 27,
                                "order": 27
                            },
                            {
                                "children": [
                                    {
                                        "children": [
                                            {
                                                "children": [],
                                                "depth": 3,
                                                "id": 32,
                                                "order": 32
                                            }
                                        ],
                                        "depth": 2,
                                        "id": 31,
                                        "order": 31
                                    }
                                ],
                                "depth": 1,
                                "id": 30,
                                "order": 30
                            },
                            {
                                "children": [
                                    {
                                        "children": [
                                            {
                                                "children": [],
                                                "depth": 3,
                                                "id": 35,
                                                "order": 35
                                            }
                                        ],
                                        "depth": 2,
                                        "id": 34,
                                        "order": 34
                                    }
                                ],
                                "depth": 1,
                                "id": 33,
                                "order": 33
                            },
                            {
                                "children": [
                                    {
                                        "children": [
                                            {
                                                "children": [],
                                                "depth": 3,
                                                "id": 38,
                                                "order": 38
                                            }
                                        ],
                                        "depth": 2,
                                        "id": 37,
                                        "order": 37
                                    }
                                ],
                                "depth": 1,
                                "id": 36,
                                "order": 36
                            }
                        ],
                        "depth": 0,
                        "id": 0,
                        "order": 0
                    }
                ],
                "depth": -1,
                "id": -1,
                "order": -1
            }
        ],
        "mainTraceNodeCount": 39,
        "parentIdMap": {
            "0": -1,
            "1": 0,
            "10": 9,
            "11": 10,
            "12": 0,
            "13": 12,
            "14": 13,
            "15": 0,
            "16": 15,
            "17": 0,
            "18": 17,
            "19": 0,
            "2": 1,
            "20": 19,
            "21": 0,
            "22": 21,
            "23": 0,
            "24": 23,
            "25": 0,
            "26": 25,
            "27": 0,
            "28": 27,
            "29": 28,
            "3": 0,
            "30": 0,
            "31": 30,
            "32": 31,
            "33": 0,
            "34": 33,
            "35": 34,
            "36": 0,
            "37": 36,
            "38": 37,
            "4": 3,
            "5": 0,
            "6": 5,
            "7": 0,
            "8": 7,
            "9": 0
        },
        "tidyTrace": [
            {
                "children": [
                    {
                        "children": [
                            {
                                "children": [
                                    {
                                        "children": [],
                                        "depth": 2,
                                        "id": 2,
                                        "order": 2
                                    }
                                ],
                                "depth": 1,
                                "id": 1,
                                "order": 1
                            },
                            {
                                "children": [
                                    {
                                        "children": [],
                                        "depth": 2,
                                        "id": 4,
                                        "order": 4
                                    }
                                ],
                                "depth": 1,
                                "id": 3,
                                "order": 3
                            },
                            {
                                "children": [
                                    {
                                        "children": [],
                                        "depth": 2,
                                        "id": 6,
                                        "order": 6
                                    }
                                ],
                                "depth": 1,
                                "id": 5,
                                "order": 5
                            },
                            {
                                "children": [
                                    {
                                        "children": [],
                                        "depth": 2,
                                        "id": 8,
                                        "order": 8
                                    }
                                ],
                                "depth": 1,
                                "id": 7,
                                "order": 7
                            },
                            {
                                "children": [
                                    {
                                        "children": [
                                            {
                                                "children": [],
                                                "depth": 3,
                                                "id": 11,
                                                "order": 11
                                            }
                                        ],
                                        "depth": 2,
                                        "id": 10,
                                        "order": 10
                                    }
                                ],
                                "depth": 1,
                                "id": 9,
                                "order": 9
                            },
                            {
                                "children": [
                                    {
                                        "children": [
                                            {
                                                "children": [],
                                                "depth": 3,
                                                "id": 14,
                                                "order": 14
                                            }
                                        ],
                                        "depth": 2,
                                        "id": 13,
                                        "order": 13
                                    }
                                ],
                                "depth": 1,
                                "id": 12,
                                "order": 12
                            },
                            {
                                "children": [
                                    {
                                        "children": [],
                                        "depth": 2,
                                        "id": 16,
                                        "order": 16
                                    }
                                ],
                                "depth": 1,
                                "id": 15,
                                "order": 15
                            },
                            {
                                "children": [
                                    {
                                        "children": [],
                                        "depth": 2,
                                        "id": 18,
                                        "order": 18
                                    }
                                ],
                                "depth": 1,
                                "id": 17,
                                "order": 17
                            },
                            {
                                "children": [
                                    {
                                        "children": [],
                                        "depth": 2,
                                        "id": 20,
                                        "order": 20
                                    }
                                ],
                                "depth": 1,
                                "id": 19,
                                "order": 19
                            },
                            {
                                "children": [
                                    {
                                        "children": [],
                                        "depth": 2,
                                        "id": 22,
                                        "order": 22
                                    }
                                ],
                                "depth": 1,
                                "id": 21,
                                "order": 21
                            },
                            {
                                "children": [
                                    {
                                        "children": [],
                                        "depth": 2,
                                        "id": 24,
                                        "order": 24
                                    }
                                ],
                                "depth": 1,
                                "id": 23,
                                "order": 23
                            },
                            {
                                "children": [
                                    {
                                        "children": [],
                                        "depth": 2,
                                        "id": 26,
                                        "order": 26
                                    }
                                ],
                                "depth": 1,
                                "id": 25,
                                "order": 25
                            },
                            {
                                "children": [
                                    {
                                        "children": [
                                            {
                                                "children": [],
                                                "depth": 3,
                                                "id": 29,
                                                "order": 29
                                            }
                                        ],
                                        "depth": 2,
                                        "id": 28,
                                        "order": 28
                                    }
                                ],
                                "depth": 1,
                                "id": 27,
                                "order": 27
                            },
                            {
                                "children": [
                                    {
                                        "children": [
                                            {
                                                "children": [],
                                                "depth": 3,
                                                "id": 32,
                                                "order": 32
                                            }
                                        ],
                                        "depth": 2,
                                        "id": 31,
                                        "order": 31
                                    }
                                ],
                                "depth": 1,
                                "id": 30,
                                "order": 30
                            },
                            {
                                "children": [
                                    {
                                        "children": [
                                            {
                                                "children": [],
                                                "depth": 3,
                                                "id": 35,
                                                "order": 35
                                            }
                                        ],
                                        "depth": 2,
                                        "id": 34,
                                        "order": 34
                                    }
                                ],
                                "depth": 1,
                                "id": 33,
                                "order": 33
                            },
                            {
                                "children": [
                                    {
                                        "children": [
                                            {
                                                "children": [],
                                                "depth": 3,
                                                "id": 38,
                                                "order": 38
                                            }
                                        ],
                                        "depth": 2,
                                        "id": 37,
                                        "order": 37
                                    }
                                ],
                                "depth": 1,
                                "id": 36,
                                "order": 36
                            }
                        ],
                        "depth": 0,
                        "id": 0,
                        "order": 0
                    }
                ],
                "depth": -1,
                "id": -1,
                "order": -1
            }
        ],
        "tidyTraceNodeCount": 39
    },
    "state_change": {
        "stateChanges": [
            {
                "address": "0xa0b86991c6218b36c1d19d4a2e9eb0ce3606eb48",
                "erc": "ERC-20",
                "slots": [
                    {
                        "current": "0x0000000000000000000000000000000000000000000000000000000051d5d490",
                        "key": "0xebe0d9be493de8d306e0d2f2cc0d0138482356aafaafefc6872b56717f5548f6",
                        "prev": "0x0000000000000000000000000000000000000000000000000000000051db474a"
                    },
                    {
                        "current": "0x00000000000000000000000000000000000000000000000000000000000445f2",
                        "key": "0x85acc1f3d6b632284248f826950b14d68f4e4660e12fc397b3956094a2f88c91",
                        "prev": "0x0000000000000000000000000000000000000000000000000000000000000000"
                    },
                    {
                        "current": "0x00000000000000000000000000000000000000000000000000005af31071673c",
                        "key": "0x6035933626abbe9780546cf5979c28223faf2384066fdbda58ca60f427fe5782",
                        "prev": "0x00000000000000000000000000000000000000000000000000005af31075ad2e"
                    },
                    {
                        "current": "0x0000000000000000000000000000000000000000000000000000001336e03a92",
                        "key": "0x8f26e560b8cd16f93e52d69a0a4f5ed2b3320b75a94411beb589494130950d55",
                        "prev": "0x0000000000000000000000000000000000000000000000000000001336dfd11a"
                    },
                    {
                        "current": "0x00000000000000000000000000000000000000000000000000005af31079d688",
                        "key": "0xb5c036ab7c91768eb489d10b97ef8e9a1312b37256c79bd2f867be50e87e458b",
                        "prev": "0x00000000000000000000000000000000000000000000000000005af3107a4000"
                    },
                    {
                        "current": "0x0000000000000000000000000000000000000000000000000000008a7c1a236f",
                        "key": "0x486d993648f4e38b81bf573133038674421c71d2c7a081976ba2fc2b9b2cb9fa",
                        "prev": "0x0000000000000000000000000000000000000000000000000000008a7c19601f"
                    },
                    {
                        "current": "0x00000000000000000000000000000000000000000000000000005af31078b960",
                        "key": "0x62707d6d1410572b0cb17098025883e421a3f3b264d81bd801dc0a73fa80fac5",
                        "prev": "0x00000000000000000000000000000000000000000000000000005af310797cb0"
                    }
                ],
                "storageVariables": [
                    {
                        "name": "balances",
                        "type": "mapping(address => uint256)",
                        "value": {
                            "pairs": [
                                {
                                    "key": "0xa8d71b6cdfa4336987637753daa1e2c8c9a880ed",
                                    "value": {
                                        "current": "280050",
                                        "prev": "0",
                                        "typeTag": 1
                                    }
                                },
                                {
                                    "key": "0xd4b69e8d62c880e9dd55d419d5e07435c3538342",
                                    "value": {
                                        "current": "594787574639",
                                        "prev": "594787524639",
                                        "typeTag": 1
                                    }
                                },
                                {
                                    "key": "0xe008e45935ab51db7e7d3d673d82b6d81200a0c2",
                                    "value": {
                                        "current": "1372968080",
                                        "prev": "1373325130",
                                        "typeTag": 1
                                    }
                                },
                                {
                                    "key": "0xe410d2e0449fc0d7937b3082f03cd803a06bfb44",
                                    "value": {
                                        "current": "82525043346",
                                        "prev": "82525016346",
                                        "typeTag": 1
                                    }
                                }
                            ],
                            "typeTag": 4
                        }
                    },
                    {
                        "name": "allowed",
                        "type": "mapping(address => mapping(address => uint256))",
                        "value": {
                            "pairs": [
                                {
                                    "key": "0x3bd046a89183f87482a90b3d4c68c2f4ff4ee940",
                                    "value": {
                                        "pairs": [
                                            {
                                                "key": "0xe008e45935ab51db7e7d3d673d82b6d81200a0c2",
                                                "value": {
                                                    "current": "99999999973000",
                                                    "prev": "100000000000000",
                                                    "typeTag": 1
                                                }
                                            }
                                        ],
                                        "typeTag": 4
                                    }
                                },
                                {
                                    "key": "0x75fb8a1817c5e57124546333f6395b591c6eb1ae",
                                    "value": {
                                        "pairs": [
                                            {
                                                "key": "0xe008e45935ab51db7e7d3d673d82b6d81200a0c2",
                                                "value": {
                                                    "current": "99999999420220",
                                                    "prev": "99999999700270",
                                                    "typeTag": 1
                                                }
                                            }
                                        ],
                                        "typeTag": 4
                                    }
                                },
                                {
                                    "key": "0xad757728a4a6400e1b1ab30e8ab7c3d2b385a72c",
                                    "value": {
                                        "pairs": [
                                            {
                                                "key": "0xe008e45935ab51db7e7d3d673d82b6d81200a0c2",
                                                "value": {
                                                    "current": "99999999900000",
                                                    "prev": "99999999950000",
                                                    "typeTag": 1
                                                }
                                            }
                                        ],
                                        "typeTag": 4
                                    }
                                }
                            ],
                            "typeTag": 4
                        }
                    }
                ]
            },
            {
                "address": "0xdac17f958d2ee523a2206206994597c13d831ec7",
                "erc": "ERC-20",
                "slots": [
                    {
                        "current": "0x00000000000000000000000000000000000000000000000000000064ecbc855e",
                        "key": "0xe30dab34102b16e06d68e675f0b65020db222bd69b877ce913e2f34b6b7f203d",
                        "prev": "0x00000000000000000000000000000000000000000000000000000064ecba3728"
                    },
                    {
                        "current": "0x00000000000000000000000000000000000000000000000000000000000301de",
                        "key": "0x0289540ecc4b6a594c734bebd7de64289f4900c2f6f00a92c3ff2b03c29691a3",
                        "prev": "0x000000000000000000000000000000000000000000000000000000000002a810"
                    },
                    {
                        "current": "0x00000000000000000000000000000000000000000000000000000009503c09a5",
                        "key": "0x93877856296ec8f22ecc88e9c1768a6061807bbe8fe944922ddda919d9c11ae6",
                        "prev": "0x00000000000000000000000000000000000000000000000000000009503b4655"
                    },
                    {
                        "current": "0x000000000000000000000000000000000000000000000000000000000019c83a",
                        "key": "0x28034a0bcd9fd3e50b35ee1b1c988a3a2abd279e9bcf3b50b2de004956ffce14",
                        "prev": "0x00000000000000000000000000000000000000000000000000000000000e0308"
                    },
                    {
                        "current": "0x00000000000000000000000000000000000000000000000000005af31079e632",
                        "key": "0x0ddf5a6f6a22256b06ce03573a6f8c35185804153685490ca71d805020e1f1f6",
                        "prev": "0x00000000000000000000000000000000000000000000000000005af3107a4000"
                    },
                    {
                        "current": "0x00000000000000000000000000000000000000000000000000005af310797cb0",
                        "key": "0x04118c08be17f44989e3b4fb55c7de07a0144084ff9eccb3af0e004988aac619",
                        "prev": "0x00000000000000000000000000000000000000000000000000005af3107a4000"
                    },
                    {
                        "current": "0x00000000000000000000000000000000000000000000000000000000916f105e",
                        "key": "0xb5926e76f53dbcb5bc7a7e357401feb945e6e043967ffc97612ed484c777aff7",
                        "prev": "0x00000000000000000000000000000000000000000000000000000000917f174f"
                    },
                    {
                        "current": "0x00000000000000000000000000000000000000000000000000005af310789d4d",
                        "key": "0xe16cff947a48b952629f03466d48f38226d90e3f99270ccfa23743fe1ae49e04",
                        "prev": "0x00000000000000000000000000000000000000000000000000005af3107973b8"
                    },
                    {
                        "current": "0x00000000000000000000000000000000000000000000000000005af31077f1ca",
                        "key": "0x96fd7e3e1d8bac2169fe2f29b6f114e37419a36abb31d4711eb9d6cfb7eaed47",
                        "prev": "0x00000000000000000000000000000000000000000000000000005af3107a4000"
                    },
                    {
                        "current": "0x00000000000000000000000000000000000000000000000000000057564d6946",
                        "key": "0x243c30e776d9348de8e0c7b6f4aec509030ae5710553305230462c98741fb74d",
                        "prev": "0x00000000000000000000000000000000000000000000000000000057564c92db"
                    },
                    {
                        "current": "0x00000000000000000000000000000000000000000000000000005af3105f388e",
                        "key": "0xb9da817e737547046aaaa70d8be262e59b2e5edf1634f8d58c245ed5df2f4ae5",
                        "prev": "0x00000000000000000000000000000000000000000000000000005af3106afdc0"
                    }
                ],
                "storageVariables": [
                    {
                        "name": "balances",
                        "type": "mapping(address => uint256)",
                        "value": {
                            "pairs": [
                                {
                                    "key": "0x35c246e66c8deaf4ed4ea201d67c4b8756892827",
                                    "value": {
                                        "current": "40000817573",
                                        "prev": "40000767573",
                                        "typeTag": 1
                                    }
                                },
                                {
                                    "key": "0x64224bae31db9a14df1b7e53fa6a2f0fe11ea767",
                                    "value": {
                                        "current": "375110068550",
                                        "prev": "375110013659",
                                        "typeTag": 1
                                    }
                                },
                                {
                                    "key": "0x8d63f68d30bbf328462c693a82587d17d89318a6",
                                    "value": {
                                        "current": "433468507486",
                                        "prev": "433468356392",
                                        "typeTag": 1
                                    }
                                },
                                {
                                    "key": "0xb36ca55e1f8e40b1fd9d51a78bb32b87c4616bee",
                                    "value": {
                                        "current": "197086",
                                        "prev": "174096",
                                        "typeTag": 1
                                    }
                                },
                                {
                                    "key": "0xe008e45935ab51db7e7d3d673d82b6d81200a0c2",
                                    "value": {
                                        "current": "2439975006",
                                        "prev": "2441025359",
                                        "typeTag": 1
                                    }
                                },
                                {
                                    "key": "0xfcc04f667c40590ef4ac9b9f3f1603dbddee870c",
                                    "value": {
                                        "current": "1689658",
                                        "prev": "918280",
                                        "typeTag": 1
                                    }
                                }
                            ],
                            "typeTag": 4
                        }
                    },
                    {
                        "name": "allowed",
                        "type": "mapping(address => mapping(address => uint256))",
                        "value": {
                            "pairs": [
                                {
                                    "key": "0x1ac0a14771f552b67530ac6969b02efbcd274d78",
                                    "value": {
                                        "pairs": [
                                            {
                                                "key": "0xe008e45935ab51db7e7d3d673d82b6d81200a0c2",
                                                "value": {
                                                    "current": "99999999848906",
                                                    "prev": "100000000000000",
                                                    "typeTag": 1
                                                }
                                            }
                                        ],
                                        "typeTag": 4
                                    }
                                },
                                {
                                    "key": "0x6d6d4811de31547da45bc6d78ea0076442dfb4eb",
                                    "value": {
                                        "pairs": [
                                            {
                                                "key": "0xe008e45935ab51db7e7d3d673d82b6d81200a0c2",
                                                "value": {
                                                    "current": "99999999977010",
                                                    "prev": "100000000000000",
                                                    "typeTag": 1
                                                }
                                            }
                                        ],
                                        "typeTag": 4
                                    }
                                },
                                {
                                    "key": "0xb6cc2d3fd0890560949c26e71603ce140eb62066",
                                    "value": {
                                        "pairs": [
                                            {
                                                "key": "0xe008e45935ab51db7e7d3d673d82b6d81200a0c2",
                                                "value": {
                                                    "current": "99999999892813",
                                                    "prev": "99999999947704",
                                                    "typeTag": 1
                                                }
                                            }
                                        ],
                                        "typeTag": 4
                                    }
                                },
                                {
                                    "key": "0xcaef30ade6654524538205156503afabda0e6d7d",
                                    "value": {
                                        "pairs": [
                                            {
                                                "key": "0xe008e45935ab51db7e7d3d673d82b6d81200a0c2",
                                                "value": {
                                                    "current": "99999999950000",
                                                    "prev": "100000000000000",
                                                    "typeTag": 1
                                                }
                                            }
                                        ],
                                        "typeTag": 4
                                    }
                                },
                                {
                                    "key": "0xd5b6625c61ab4109f045d257d4688ee1891c7612",
                                    "value": {
                                        "pairs": [
                                            {
                                                "key": "0xe008e45935ab51db7e7d3d673d82b6d81200a0c2",
                                                "value": {
                                                    "current": "99999998228622",
                                                    "prev": "99999999000000",
                                                    "typeTag": 1
                                                }
                                            }
                                        ],
                                        "typeTag": 4
                                    }
                                }
                            ],
                            "typeTag": 4
                        }
                    }
                ]
            }
        ]
    }
}