{
    "balance_change": {
        "balanceChanges": [
            {
                "account": "0xfbfd72496c40f105512082e0bf91100c2ea4267c",
                "assets": [
                    {
                        "address": "0x2dff88a56767223a5529ea5960da7a3f5f766406",
                        "amount": "24,646.50005934",
                        "iconUrl": "",
                        "isERC1155": false,
                        "isERC721": false,
                        "sign": false,
                        "value": "17444.792742467999624"
                    }
                ]
            },
            {
                "account": "0x8086fae0c2976fdae6afb1e40c11c31bd9ad6097",
                "assets": [
                    {
                        "address": "0x2dff88a56767223a5529ea5960da7a3f5f766406",
                        "amount": "24,646.50005934",
                        "iconUrl": "",
                        "isERC1155": false,
                        "isERC721": false,
                        "sign": true,
                        "value": "17444.792742467999624"
                    }
                ]
            }
        ]
    },
    "profile": {
        "basic_info": {
            "baseFee": "5.490949883",
            "blockNumber": 19846094,
            "callData": "0xa9059cbb0000000000000000000000008086fae0c2976fdae6afb1e40c11c31bd9ad609700000000000000000000000000000000000000000000053816e5e53744a8f800",
            "debugEnable": true,
            "errorInfo": "",
            "eventCount": 1,
            "feeRecipient": "0x1f9090aae28b8a3dceadf281b0f12828e676c326",
            "formatValue": "0",
            "gasLimit": 55000,
            "gasPrice": "7.490949883",
            "gasUsed": 31699,
            "intTxnCount": 0,
            "internalRevert": false,
            "internalRevertMessage": "",
            "isContractCreation": false,
            "isFlashloan": false,
            "maxFee": "13.063108517",
            "nonce": 26,
            "overwritedBlockNumber": -1,
            "priorityFee": "2",
            "receiver": "0x2dff88a56767223a5529ea5960da7a3f5f766406",
            "revertMessage": "",
            "sender": "0xfbfd72496c40f105512082e0bf91100c2ea4267c",
            "simulationEnable": true,
            "sourceTxnHash": "0x38114e79b4ed2ca0ddcccfcd048b05faf2a8d49eb7331f8ce4d8becdce9f1b83",
            "status": true,
            "timestamp": "2024-05-11T10:07:59Z",
            "transactionFee": "0.000237455620341217",
            "txnHash": "0x38114e79b4ed2ca0ddcccfcd048b05faf2a8d49eb7331f8ce4d8becdce9f1b83",
            "txnIndex": 12,
            "type": 2,
            "value": "0"
        },
        "fund_flow": [
            {
                "amount": "24,646.50005934",
                "from": "0xfbfd72496c40f105512082e0bf91100c2ea4267c",
                "id": 1,
                "isERC1155": false,
                "isERC721": false,
                "isReverted": false,
                "order": 1,
                "to": "0x8086fae0c2976fdae6afb1e40c11c31bd9ad6097",
                "token": "0x2dff88a56767223a5529ea5960da7a3f5f766406"
            }
        ],
        "token_infos": [
            {
                "address": "0xeeeeeeeeeeeeeeeeeeeeeeeeeeeeeeeeeeeeeeee",
                "decimals": 18
            },
            {
                "address": "0x2dff88a56767223a5529ea5960da7a3f5f766406",
                "decimals": 18
            },
            {
                "address": "0xc02aaa39b223fe8d0a0e5c4f27ead9083c756cc2",
                "decimals": 18
            }
        ]
    },
    "address_label": {
        "labels": [
            {
                "address": "0x0000000000000000000000000000000000000004",
                "label": "Precompiled"
            },
            {
                "address": "0xeeeeeeeeeeeeeeeeeeeeeeeeeeeeeeeeeeeeeeee",
                "label": "Ether"
            },
            {
                "address": "0x2dff88a56767223a5529ea5960da7a3f5f766406",
                "label": "SPACE ID: ID Token"
            },
            {
                "address": "0x0000000000000000000000000000000000000001",
                "label": "Precompiled"
            },
            {
                "address": "0x0000000000000000000000000000000000000002",
                "label": "Precompiled"
            },
            {
                "address": "0x0000000000000000000000000000000000000003",
                "label": "Precompiled"
            }
        ]
    },
    "trace": {
        "accountLabels": null,
        "dataMap": {
            "-1": {
                "invocation": {
                    "address": "0xfbfd72496c40f105512082e0bf91100c2ea4267c",
                    "callData": "",
                    "decodedMethod": null,
                    "errorInfo": "",
                    "fromAddress": "",
                    "gasUsed": 0,
                    "id": -1,
                    "methodDecoded": false,
                    "operation": "",
                    "output": "",
                    "revert": false,
                    "revertMessage": "",
                    "selector": "",
                    "status": false,
                    "value": ""
                },
                "nodeType": 0
            },
            "0": {
                "invocation": {
                    "address": "0x2dff88a56767223a5529ea5960da7a3f5f766406",
                    "callData": "0x0000000000000000000000008086fae0c2976fdae6afb1e40c11c31bd9ad609700000000000000000000000000000000000000000000053816e5e53744a8f800",
                    "decodedMethod": {
                        "callParams": [
                            {
                                "name": "to",
                                "type": "address",
                                "value": "0x8086fae0c2976fdae6afb1e40c11c31bd9ad6097"
                            },
                            {
                                "decimalAvailable": true,
                                "name": "amount",
                                "type": "uint256",
                                "value": "24,646,500,059,340,000,000,000"
                            }
                        ],
                        "constructorArguments": "",
                        "name": "transfer",
                        "returnParams": [
                            {
                                "name": "",
                                "type": "bool",
                                "value": true
                            }
                        ],
                        "signature": "transfer(address,uint256)"
                    },
                    "errorInfo": "",
                    "fromAddress": "0xfbfd72496c40f105512082e0bf91100c2ea4267c",
                    "gasUsed": 31699,
                    "id": 0,
                    "methodDecoded": true,
                    "operation": "CALL",
                    "output": "0x0000000000000000000000000000000000000000000000000000000000000001",
                    "revert": false,
                    "revertMessage": "",
                    "selector": "0xa9059cbb",
                    "status": true,
                    "value": "0"
                },
                "nodeType": 0
            },
            "1": {
                "event": {
                    "contract": "0x2dff88a56767223a5529ea5960da7a3f5f766406",
                    "decodedLog": {
                        "name": "Transfer",
                        "params": [
                            {
                                "name": "from",
                                "type": "address",
                                "value": "0xfbfd72496c40f105512082e0bf91100c2ea4267c"
                            },
                            {
                                "name": "to",
                                "type": "address",
                                "value": "0x8086fae0c2976fdae6afb1e40c11c31bd9ad6097"
                            },
                            {
                                "decimalAvailable": true,
                                "name": "value",
                                "type": "uint256",
                                "value": "24,646,500,059,340,000,000,000"
                            }
                        ],
                        "signature": "Transfer(address,address,uint256)"
                    },
                    "id": 1,
                    "logData": "0x00000000000000000000000000000000000000000000053816e5e53744a8f800",
                    "logDecoded": true,
                    "operation": "EVENT",
                    "revert": false,
                    "status": true,
                    "topics": [
                        "0xddf252ad1be2c89b69c2b068fc378daa952ba7f163c4a11628f55a4df523b3ef",
                        "0x000000000000000000000000fbfd72496c40f105512082e0bf91100c2ea4267c",
                        "0x0000000000000000000000008086fae0c2976fdae6afb1e40c11c31bd9ad6097"
                    ]
                },
                "nodeType": 1
            }
        },
        "gasFlame": [
            {
                "children": [
                    {
                        "children": [
                            {
                                "children": [],
                                "depth": 0,
                                "name": "Initial Gas",
                                "value": 21668
                            },
                            {
                                "children": [],
                                "depth": 0,
                                "name": "Executed Gas",
                                "value": 14831
                            }
                        ],
                        "depth": -1,
                        "name": "Actual Gas Used",
                        "value": 31699
                    },
                    {
                        "children": [],
                        "depth": -1,
                        "name": "Refunded Gas",
                        "value": 4800
                    }
                ],
                "depth": -2,
                "name": "Total Gas",
                "value": 36499
            }
        ],
        "isConfirmed": true,
        "mainTrace": [
            {
                "children": [
                    {
                        "children": [
                            {
                                "children": [],
                                "depth": 1,
                                "id": 1,
                                "order": 1
                            }
                        ],
                        "depth": 0,
                        "id": 0,
                        "order": 0
                    }
                ],
                "depth": -1,
                "id": -1,
                "order": -1
            }
        ],
        "mainTraceNodeCount": 2,
        "parentIdMap": {
            "0": -1,
            "1": 0
        },
        "tidyTrace": [
            {
                "children": [
                    {
                        "children": [
                            {
                                "children": [],
                                "depth": 1,
                                "id": 1,
                                "order": 1
                            }
                        ],
                        "depth": 0,
                        "id": 0,
                        "order": 0
                    }
                ],
                "depth": -1,
                "id": -1,
                "order": -1
            }
        ],
        "tidyTraceNodeCount": 2
    },
    "state_change": {
        "stateChanges": [
            {
                "address": "0x2dff88a56767223a5529ea5960da7a3f5f766406",
                "erc": "ERC-20",
                "slots": [
                    {
                        "current": "0x0000000000000000000000000000000000000000000000000000000000000000",
                        "key": "0x1690821a419ebdc19f375503d615a734e480e31654dfcdeb204a4e91921e1892",
                        "prev": "0x00000000000000000000000000000000000000000000053816e5e53744a8f800"
                    },
                    {
                        "current": "0x00000000000000000000000000000000000000000000f4c7e78cb21c2b6e33f3",
                        "key": "0xf5b93bf1cf37d7a6baf710202e074325583a01e2383adb367cd2706ab569ddb9",
                        "prev": "0x00000000000000000000000000000000000000000000ef8fd0a6cce4e6c53bf3"
                    }
                ],
                "storageVariables": [
                    {
                        "name": "_balances",
                        "type": "mapping(address => uint256)",
                        "value": {
                            "pairs": [
                                {
                                    "key": "0x8086fae0c2976fdae6afb1e40c11c31bd9ad6097",
                                    "value": {
                                        "current": "1155945008797415191229427",
                                        "prev": "1131298508738075191229427",
                                        "typeTag": 1
                                    }
                                },
                                {
                                    "key": "0xfbfd72496c40f105512082e0bf91100c2ea4267c",
                                    "value": {
                                        "current": "0",
                                        "prev": "24646500059340000000000",
                                        "typeTag": 1
                                    }
                                }
                            ],
                            "typeTag": 4
                        }
                    }
                ]
            }
        ]
    }
}