{
    "balance_change": {
        "balanceChanges": [
            {
                "account": "0x62354498a2c376037812b8e4a6f1950694344732",
                "assets": [
                    {
                        "address": "0xdac17f958d2ee523a2206206994597c13d831ec7",
                        "amount": "315",
                        "iconUrl": "https://assets.blocksec.com/icon/fcea71f3193ce895be44bfdf941f7e4c9381dd587f273c2d1a27f1263d84e4ea.png",
                        "isERC1155": false,
                        "isERC721": false,
                        "sign": false,
                        "value": "315.63000000000000056"
                    }
                ]
            },
            {
                "account": "0x5631ae503b452175157c7161d3c078fdd0c6215d",
                "assets": [
                    {
                        "address": "0xdac17f958d2ee523a2206206994597c13d831ec7",
                        "amount": "315",
                        "iconUrl": "https://assets.blocksec.com/icon/fcea71f3193ce895be44bfdf941f7e4c9381dd587f273c2d1a27f1263d84e4ea.png",
                        "isERC1155": false,
                        "isERC721": false,
                        "sign": true,
                        "value": "315.63000000000000056"
                    }
                ]
            }
        ]
    },
    "profile": {
        "basic_info": {
            "baseFee": "24.351950196",
            "blockNumber": 18965281,
            "callData": "0x69328dec000000000000000000000000dac17f958d2ee523a2206206994597c13d831ec70000000000000000000000000000000000000000000000000000000012c684c00000000000000000000000005631ae503b452175157c7161d3c078fdd0c6215d",
            "debugEnable": true,
            "errorInfo": "",
            "eventCount": 2,
            "feeRecipient": "0x4838b106fce9647bdf1e7877bf73ce8b0bad5f97",
            "formatValue": "0",
            "gasLimit": 56813,
            "gasPrice": "25.851950196",
            "gasUsed": 56813,
            "intTxnCount": 2,
            "internalRevert": false,
            "internalRevertMessage": "",
            "isContractCreation": false,
            "isFlashloan": false,
            "maxFee": "50.133440264",
            "nonce": 46,
            "overwritedBlockNumber": -1,
            "priorityFee": "1.5",
            "receiver": "0x62354498a2c376037812b8e4a6f1950694344732",
            "revertMessage": "",
            "sender": "0x1aec3a60505d66d635cb42428e71ec651e232ee0",
            "simulationEnable": true,
            "sourceTxnHash": "0x387e7140e2b2b5de5e110cbb384d8b6698132faabe6cee065113bfa85ed1dbe4",
            "status": true,
            "timestamp": "2024-01-08T22:32:47Z",
            "transactionFee": "0.001468726846485348",
            "txnHash": "0x387e7140e2b2b5de5e110cbb384d8b6698132faabe6cee065113bfa85ed1dbe4",
            "txnIndex": 31,
            "type": 2,
            "value": "0"
        },
        "fund_flow": [
            {
                "amount": "315",
                "from": "0x62354498a2c376037812b8e4a6f1950694344732",
                "id": 1,
                "isERC1155": false,
                "isERC721": false,
                "isReverted": false,
                "order": 1,
                "to": "0x5631ae503b452175157c7161d3c078fdd0c6215d",
                "token": "0xdac17f958d2ee523a2206206994597c13d831ec7"
            }
        ],
        "token_infos": [
            {
                "address": "0xc02aaa39b223fe8d0a0e5c4f27ead9083c756cc2",
                "decimals": 18
            },
            {
                "address": "0xdac17f958d2ee523a2206206994597c13d831ec7",
                "decimals": 6
            },
            {
                "address": "0xeeeeeeeeeeeeeeeeeeeeeeeeeeeeeeeeeeeeeeee",
                "decimals": 18
            }
        ]
    },
    "address_label": {
        "labels": [
            {
                "address": "0xdac17f958d2ee523a2206206994597c13d831ec7",
                "label": "Tether: USDT Stablecoin"
            },
            {
                "address": "0x0000000000000000000000000000000000000001",
                "label": "Precompiled"
            },
            {
                "address": "0x0000000000000000000000000000000000000002",
                "label": "Precompiled"
            },
            {
                "address": "0x0000000000000000000000000000000000000003",
                "label": "Precompiled"
            },
            {
                "address": "0x0000000000000000000000000000000000000004",
                "label": "Precompiled"
            },
            {
                "address": "0xeeeeeeeeeeeeeeeeeeeeeeeeeeeeeeeeeeeeeeee",
                "label": "Ether"
            }
        ]
    },
    "trace": {
        "accountLabels": null,
        "dataMap": {
            "-1": {
                "invocation": {
                    "address": "0x1aec3a60505d66d635cb42428e71ec651e232ee0",
                    "callData": "",
                    "decodedMethod": null,
                    "errorInfo": "",
                    "fromAddress": "",
                    "gasUsed": 0,
                    "id": -1,
                    "methodDecoded": false,
                    "operation": "",
                    "output": "",
                    "revert": false,
                    "revertMessage": "",
                    "selector": "",
                    "status": false,
                    "value": ""
                },
                "nodeType": 0
            },
            "0": {
                "invocation": {
                    "address": "0x62354498a2c376037812b8e4a6f1950694344732",
                    "callData": "0x000000000000000000000000dac17f958d2ee523a2206206994597c13d831ec70000000000000000000000000000000000000000000000000000000012c684c00000000000000000000000005631ae503b452175157c7161d3c078fdd0c6215d",
                    "decodedMethod": {
                        "callParams": [
                            {
                                "name": "token",
                                "type": "address",
                                "value": "0xdac17f958d2ee523a2206206994597c13d831ec7"
                            },
                            {
                                "name": "amount",
                                "type": "uint256",
                                "value": "315,000,000"
                            },
                            {
                                "name": "to",
                                "type": "address",
                                "value": "0x5631ae503b452175157c7161d3c078fdd0c6215d"
                            }
                        ],
                        "constructorArguments": "",
                        "name": "withdraw",
                        "returnParams": [],
                        "signature": "withdraw(address,uint256,address)"
                    },
                    "errorInfo": "",
                    "fromAddress": "0x1aec3a60505d66d635cb42428e71ec651e232ee0",
                    "gasUsed": 56813,
                    "id": 0,
                    "methodDecoded": true,
                    "operation": "CALL",
                    "output": "",
                    "revert": false,
                    "revertMessage": "",
                    "selector": "0x69328dec",
                    "status": true,
                    "value": "0"
                },
                "nodeType": 0
            },
            "1": {
                "invocation": {
                    "address": "0xdac17f958d2ee523a2206206994597c13d831ec7",
                    "callData": "0x00000000000000000000000062354498a2c376037812b8e4a6f1950694344732",
                    "decodedMethod": {
                        "callParams": [
                            {
                                "name": "who",
                                "type": "address",
                                "value": "0x62354498a2c376037812b8e4a6f1950694344732"
                            }
                        ],
                        "constructorArguments": "",
                        "name": "balanceOf",
                        "returnParams": [
                            {
                                "decimalAvailable": true,
                                "name": "",
                                "type": "uint256",
                                "value": "103,133,230,000"
                            }
                        ],
                        "signature": "balanceOf(address)"
                    },
                    "errorInfo": "",
                    "fromAddress": "0x62354498a2c376037812b8e4a6f1950694344732",
                    "gasUsed": 5031,
                    "id": 1,
                    "methodDecoded": true,
                    "operation": "CALL",
                    "output": "0x00000000000000000000000000000000000000000000000000000018033833b0",
                    "revert": false,
                    "revertMessage": "",
                    "selector": "0x70a08231",
                    "status": true,
                    "value": "0"
                },
                "nodeType": 0
            },
            "2": {
                "invocation": {
                    "address": "0xdac17f958d2ee523a2206206994597c13d831ec7",
                    "callData": "0x0000000000000000000000005631ae503b452175157c7161d3c078fdd0c6215d0000000000000000000000000000000000000000000000000000000012c684c0",
                    "decodedMethod": {
                        "callParams": [
                            {
                                "name": "_to",
                                "type": "address",
                                "value": "0x5631ae503b452175157c7161d3c078fdd0c6215d"
                            },
                            {
                                "decimalAvailable": true,
                                "name": "_value",
                                "type": "uint256",
                                "value": "315,000,000"
                            }
                        ],
                        "constructorArguments": "",
                        "name": "transfer",
                        "returnParams": [],
                        "signature": "transfer(address,uint256)"
                    },
                    "errorInfo": "",
                    "fromAddress": "0x62354498a2c376037812b8e4a6f1950694344732",
                    "gasUsed": 20501,
                    "id": 2,
                    "methodDecoded": true,
                    "operation": "CALL",
                    "output": "",
                    "revert": false,
                    "revertMessage": "",
                    "selector": "0xa9059cbb",
                    "status": true,
                    "value": "0"
                },
                "nodeType": 0
            },
            "3": {
                "event": {
                    "contract": "0xdac17f958d2ee523a2206206994597c13d831ec7",
                    "decodedLog": {
                        "name": "Transfer",
                        "params": [
                            {
                                "name": "from",
                                "type": "address",
                                "value": "0x62354498a2c376037812b8e4a6f1950694344732"
                            },
                            {
                                "name": "to",
                                "type": "address",
                                "value": "0x5631ae503b452175157c7161d3c078fdd0c6215d"
                            },
                            {
                                "decimalAvailable": true,
                                "name": "value",
                                "type": "uint256",
                                "value": "315,000,000"
                            }
                        ],
                        "signature": "Transfer(address,address,uint256)"
                    },
                    "id": 3,
                    "logData": "0x0000000000000000000000000000000000000000000000000000000012c684c0",
                    "logDecoded": true,
                    "operation": "EVENT",
                    "revert": false,
                    "status": true,
                    "topics": [
                        "0xddf252ad1be2c89b69c2b068fc378daa952ba7f163c4a11628f55a4df523b3ef",
                        "0x00000000000000000000000062354498a2c376037812b8e4a6f1950694344732",
                        "0x0000000000000000000000005631ae503b452175157c7161d3c078fdd0c6215d"
                    ]
                },
                "nodeType": 1
            },
            "4": {
                "event": {
                    "contract": "0x62354498a2c376037812b8e4a6f1950694344732",
                    "decodedLog": null,
                    "id": 4,
                    "logData": "0x0000000000000000000000000000000000000000000000000000000012c684c0",
                    "logDecoded": false,
                    "operation": "EVENT",
                    "revert": false,
                    "status": true,
                    "topics": [
                        "0x1e9eeaf1a9185f8b4c0c3394a8209f8c4bd7a41d93c23704144795f5b3d8bb88",
                        "0x0000000000000000000000001aec3a60505d66d635cb42428e71ec651e232ee0",
                        "0x000000000000000000000000dac17f958d2ee523a2206206994597c13d831ec7",
                        "0x0000000000000000000000005631ae503b452175157c7161d3c078fdd0c6215d"
                    ]
                },
                "nodeType": 1
            }
        },
        "gasFlame": [
            {
                "children": [
                    {
                        "children": [
                            {
                                "children": [],
                                "depth": 0,
                                "name": "Initial Gas",
                                "value": 21976
                            },
                            {
                                "children": [
                                    {
                                        "children": [],
                                        "depth": 1,
                                        "name": "balanceOf",
                                        "value": 5031
                                    },
                                    {
                                        "children": [],
                                        "depth": 1,
                                        "name": "transfer",
                                        "value": 20501
                                    }
                                ],
                                "depth": 0,
                                "name": "Executed Gas",
                                "value": 34837
                            }
                        ],
                        "depth": -1,
                        "name": "Actual Gas Used",
                        "value": 56813
                    },
                    {
                        "children": [],
                        "depth": -1,
                        "name": "Refunded Gas",
                        "value": 0
                    }
                ],
                "depth": -2,
                "name": "Total Gas",
                "value": 56813
            }
        ],
        "isConfirmed": true,
        "mainTrace": [
            {
                "children": [
                    {
                        "children": [
                            {
                                "children": [],
                                "depth": 1,
                                "id": 1,
                                "order": 1
                            },
                            {
                                "children": [
                                    {
                                        "children": [],
                                        "depth": 2,
                                        "id": 3,
                                        "order": 3
                                    }
                                ],
                                "depth": 1,
                                "id": 2,
                                "order": 2
                            },
                            {
                                "children": [],
                                "depth": 1,
                                "id": 4,
                                "order": 4
                            }
                        ],
                        "depth": 0,
                        "id": 0,
                        "order": 0
                    }
                ],
                "depth": -1,
                "id": -1,
                "order": -1
            }
        ],
        "mainTraceNodeCount": 5,
        "parentIdMap": {
            "0": -1,
            "1": 0,
            "2": 0,
            "3": 2,
            "4": 0
        },
        "tidyTrace": [
            {
                "children": [
                    {
                        "children": [
                            {
                                "children": [],
                                "depth": 1,
                                "id": 1,
                                "order": 1
                            },
                            {
                                "children": [
                                    {
                                        "children": [],
                                        "depth": 2,
                                        "id": 3,
                                        "order": 3
                                    }
                                ],
                                "depth": 1,
                                "id": 2,
                                "order": 2
                            },
                            {
                                "children": [],
                                "depth": 1,
                                "id": 4,
                                "order": 4
                            }
                        ],
                        "depth": 0,
                        "id": 0,
                        "order": 0
                    }
                ],
                "depth": -1,
                "id": -1,
                "order": -1
            }
        ],
        "tidyTraceNodeCount": 5
    },
    "state_change": {
        "stateChanges": [
            {
                "address": "0xdac17f958d2ee523a2206206994597c13d831ec7",
                "erc": "ERC-20",
                "slots": [
                    {
                        "current": "0x00000000000000000000000000000000000000000000000000000017f071aef0",
                        "key": "0x3dfd4ef2067c1004476c37b4cd2a458a93adc44865861d64527e384e86465567",
                        "prev": "0x00000000000000000000000000000000000000000000000000000018033833b0"
                    },
                    {
                        "current": "0x0000000000000000000000000000000000000000000000000000000012cc0300",
                        "key": "0x95cfd8f5109507217aaaca48db6908037c71198a5dae27c2085340cd8ca91711",
                        "prev": "0x0000000000000000000000000000000000000000000000000000000000057e40"
                    }
                ],
                "storageVariables": [
                    {
                        "name": "balances",
                        "type": "mapping(address => uint256)",
                        "value": {
                            "pairs": [
                                {
                                    "key": "0x5631ae503b452175157c7161d3c078fdd0c6215d",
                                    "value": {
                                        "current": "315360000",
                                        "prev": "360000",
                                        "typeTag": 1
                                    }
                                },
                                {
                                    "key": "0x62354498a2c376037812b8e4a6f1950694344732",
                                    "value": {
                                        "current": "102818230000",
                                        "prev": "103133230000",
                                        "typeTag": 1
                                    }
                                }
                            ],
                            "typeTag": 4
                        }
                    }
                ]
            }
        ]
    }
}