{
    "balance_change": {
        "balanceChanges": []
    },
    "profile": {
        "basic_info": {
            "baseFee": "12.865773121",
            "blockNumber": 15064156,
            "callData": "0xdbb5893a000000000000000000000000000000000000000000112c4a41c6c91e83e9ea95000000000000000000000000000000000000000000111658304706e694f817cb0209006e0000000000000000236f301e89ec6d060000ce2cc0513634cef3a7c9c257e294ef5e3092f185030070bb8e6844dfb681810fd557dd741bcaf027bf94000000000000000000000000000000000000000000111658304706e694f8b15300000000000000000000000000000000000000000011073352bb1f22f4fe297e0217006e000000000000000018a3d03c39cb6eaf000072ea6ca0d47b337f1ea44314d9d90e2a897edaf5030070bb8e6844dfb681810fd557dd741bcaf027bf94",
            "debugEnable": true,
            "errorInfo": "",
            "eventCount": 8,
            "feeRecipient": "0x8f03f1a3f10c05e7cccf75c1fd10168e06659be7",
            "formatValue": "0",
            "gasLimit": 600549,
            "gasPrice": "35.53721639",
            "gasUsed": 312759,
            "intTxnCount": 26,
            "internalRevert": true,
            "internalRevertMessage": "",
            "isContractCreation": false,
            "isFlashloan": true,
            "maxFee": "58.165402857",
            "nonce": 5421,
            "overwritedBlockNumber": -1,
            "priorityFee": "22.671443269",
            "receiver": "0xf71530c1f043703085b42608ff9dcccc43210a8e",
            "revertMessage": "",
            "sender": "0x81b9fc08d57f2b61ad9c89b20f6a4d6127197b2e",
            "simulationEnable": true,
            "sourceTxnHash": "0x38a56cda6d2fd82c3ac7e466244d53829de9465eeaf7483110ba64af278ff9e0",
            "status": true,
            "timestamp": "2022-07-02T16:24:00Z",
            "transactionFee": "0.01111458426092001",
            "txnHash": "0x38a56cda6d2fd82c3ac7e466244d53829de9465eeaf7483110ba64af278ff9e0",
            "txnIndex": 23,
            "type": 2,
            "value": "0"
        },
        "fund_flow": [],
        "token_infos": [
            {
                "address": "0x8207c1ffc5b6804f6024322ccf34f29c3541ae26",
                "decimals": 18
            },
            {
                "address": "0xc02aaa39b223fe8d0a0e5c4f27ead9083c756cc2",
                "decimals": 18
            },
            {
                "address": "0xeeeeeeeeeeeeeeeeeeeeeeeeeeeeeeeeeeeeeeee",
                "decimals": 18
            }
        ]
    },
    "address_label": {
        "labels": [
            {
                "address": "0x8207c1ffc5b6804f6024322ccf34f29c3541ae26",
                "label": "Origin: OGN Token"
            },
            {
                "address": "0xf71530c1f043703085b42608ff9dcccc43210a8e",
                "label": "MEV Bot: 0xF71...a8E"
            },
            {
                "address": "0x72ea6ca0d47b337f1ea44314d9d90e2a897edaf5",
                "label": "SushiSwap: OGN"
            },
            {
                "address": "0xc02aaa39b223fe8d0a0e5c4f27ead9083c756cc2",
                "label": "Wrapped Ether (WETH)"
            },
            {
                "address": "0x70bb8e6844dfb681810fd557dd741bcaf027bf94",
                "label": "Uniswap V3: OGN"
            },
            {
                "address": "0x0000000000000000000000000000000000000001",
                "label": "Precompiled"
            },
            {
                "address": "0x0000000000000000000000000000000000000002",
                "label": "Precompiled"
            },
            {
                "address": "0x0000000000000000000000000000000000000003",
                "label": "Precompiled"
            },
            {
                "address": "0x0000000000000000000000000000000000000004",
                "label": "Precompiled"
            },
            {
                "address": "0xeeeeeeeeeeeeeeeeeeeeeeeeeeeeeeeeeeeeeeee",
                "label": "Ether"
            },
            {
                "address": "0xce2cc0513634cef3a7c9c257e294ef5e3092f185",
                "label": "Uniswap V2: OGN"
            }
        ]
    },
    "trace": {
        "accountLabels": null,
        "dataMap": {
            "-1": {
                "invocation": {
                    "address": "0x81b9fc08d57f2b61ad9c89b20f6a4d6127197b2e",
                    "callData": "",
                    "decodedMethod": null,
                    "errorInfo": "",
                    "fromAddress": "",
                    "gasUsed": 0,
                    "id": -1,
                    "methodDecoded": false,
                    "operation": "",
                    "output": "",
                    "revert": false,
                    "revertMessage": "",
                    "selector": "",
                    "status": false,
                    "value": ""
                },
                "nodeType": 0
            },
            "0": {
                "invocation": {
                    "address": "0xf71530c1f043703085b42608ff9dcccc43210a8e",
                    "callData": "0x000000000000000000000000000000000000000000112c4a41c6c91e83e9ea95000000000000000000000000000000000000000000111658304706e694f817cb0209006e0000000000000000236f301e89ec6d060000ce2cc0513634cef3a7c9c257e294ef5e3092f185030070bb8e6844dfb681810fd557dd741bcaf027bf94000000000000000000000000000000000000000000111658304706e694f8b15300000000000000000000000000000000000000000011073352bb1f22f4fe297e0217006e000000000000000018a3d03c39cb6eaf000072ea6ca0d47b337f1ea44314d9d90e2a897edaf5030070bb8e6844dfb681810fd557dd741bcaf027bf94",
                    "decodedMethod": {
                        "callParams": [],
                        "constructorArguments": "",
                        "name": "AmIYoinkZ20270084",
                        "returnParams": [],
                        "signature": "AmIYoinkZ20270084()"
                    },
                    "errorInfo": "",
                    "fromAddress": "0x81b9fc08d57f2b61ad9c89b20f6a4d6127197b2e",
                    "gasUsed": 312759,
                    "id": 0,
                    "methodDecoded": true,
                    "operation": "CALL",
                    "output": "",
                    "revert": false,
                    "revertMessage": "",
                    "selector": "0xdbb5893a",
                    "status": true,
                    "value": "0"
                },
                "nodeType": 0
            },
            "1": {
                "invocation": {
                    "address": "0xf71530c1f043703085b42608ff9dcccc43210a8e",
                    "callData": "0x000000000000000000000000000000000000000000112c4a41c6c91e83e9ea95000000000000000000000000000000000000000000111658304706e694f817cb0209006e0000000000000000236f301e89ec6d060000ce2cc0513634cef3a7c9c257e294ef5e3092f185030070bb8e6844dfb681810fd557dd741bcaf027bf94",
                    "decodedMethod": {
                        "callParams": [],
                        "constructorArguments": "",
                        "name": "AmIYoinkZ5534023222657174543",
                        "returnParams": [],
                        "signature": "AmIYoinkZ5534023222657174543()"
                    },
                    "errorInfo": "execution reverted",
                    "fromAddress": "0xf71530c1f043703085b42608ff9dcccc43210a8e",
                    "gasUsed": 144494,
                    "id": 1,
                    "methodDecoded": true,
                    "operation": "CALL",
                    "output": "",
                    "revert": true,
                    "revertMessage": "",
                    "selector": "0x89eaa45c",
                    "status": false,
                    "value": "0"
                },
                "nodeType": 0
            },
            "10": {
                "event": {
                    "contract": "0xc02aaa39b223fe8d0a0e5c4f27ead9083c756cc2",
                    "decodedLog": {
                        "name": "Transfer",
                        "params": [
                            {
                                "name": "src",
                                "type": "address",
                                "value": "0x70bb8e6844dfb681810fd557dd741bcaf027bf94"
                            },
                            {
                                "name": "dst",
                                "type": "address",
                                "value": "0xf71530c1f043703085b42608ff9dcccc43210a8e"
                            },
                            {
                                "decimalAvailable": true,
                                "name": "wad",
                                "type": "uint256",
                                "value": "9,916,443,173,862,770,587"
                            }
                        ],
                        "signature": "Transfer(address,address,uint256)"
                    },
                    "id": 10,
                    "logData": "0x000000000000000000000000000000000000000000000000899e4886ed70079b",
                    "logDecoded": true,
                    "operation": "EVENT",
                    "revert": true,
                    "status": false,
                    "topics": [
                        "0xddf252ad1be2c89b69c2b068fc378daa952ba7f163c4a11628f55a4df523b3ef",
                        "0x00000000000000000000000070bb8e6844dfb681810fd557dd741bcaf027bf94",
                        "0x000000000000000000000000f71530c1f043703085b42608ff9dcccc43210a8e"
                    ]
                },
                "nodeType": 1
            },
            "11": {
                "invocation": {
                    "address": "0x8207c1ffc5b6804f6024322ccf34f29c3541ae26",
                    "callData": "0x00000000000000000000000070bb8e6844dfb681810fd557dd741bcaf027bf94",
                    "decodedMethod": {
                        "callParams": [
                            {
                                "name": "_owner",
                                "type": "address",
                                "value": "0x70bb8e6844dfb681810fd557dd741bcaf027bf94"
                            }
                        ],
                        "constructorArguments": "",
                        "name": "balanceOf",
                        "returnParams": [
                            {
                                "decimalAvailable": true,
                                "name": "",
                                "type": "uint256",
                                "value": "1,578,988,379,190,957,966,158,058"
                            }
                        ],
                        "signature": "balanceOf(address)"
                    },
                    "errorInfo": "",
                    "fromAddress": "0x70bb8e6844dfb681810fd557dd741bcaf027bf94",
                    "gasUsed": 2817,
                    "id": 11,
                    "methodDecoded": true,
                    "operation": "STATICCALL",
                    "output": "0x000000000000000000000000000000000000000000014e5d21ad6b331bcce8ea",
                    "revert": true,
                    "revertMessage": "",
                    "selector": "0x70a08231",
                    "status": true,
                    "value": "0"
                },
                "nodeType": 0
            },
            "12": {
                "invocation": {
                    "address": "0xf71530c1f043703085b42608ff9dcccc43210a8e",
                    "callData": "0x0000000000000000000000000000000000000000000007ff2b0a8c2e2a7ebadcffffffffffffffffffffffffffffffffffffffffffffffff7661b779128ff86500000000000000000000000000000000000000000000000000000000000000600000000000000000000000000000000000000000000000000000000000000000",
                    "decodedMethod": {
                        "callParams": [
                            {
                                "name": "amount0Delta",
                                "type": "int256",
                                "value": "37,763,586,564,306,759,498,460"
                            },
                            {
                                "name": "amount1Delta",
                                "type": "int256",
                                "value": "-9,916,443,173,862,770,587"
                            },
                            {
                                "name": "data",
                                "type": "bytes",
                                "value": "0x"
                            }
                        ],
                        "constructorArguments": "",
                        "name": "uniswapV3SwapCallback",
                        "returnParams": [],
                        "signature": "uniswapV3SwapCallback(int256,int256,bytes)"
                    },
                    "errorInfo": "",
                    "fromAddress": "0x70bb8e6844dfb681810fd557dd741bcaf027bf94",
                    "gasUsed": 9473,
                    "id": 12,
                    "methodDecoded": true,
                    "operation": "CALL",
                    "output": "",
                    "revert": true,
                    "revertMessage": "",
                    "selector": "0xfa461e33",
                    "status": true,
                    "value": "0"
                },
                "nodeType": 0
            },
            "13": {
                "invocation": {
                    "address": "0x70bb8e6844dfb681810fd557dd741bcaf027bf94",
                    "callData": "0x",
                    "decodedMethod": {
                        "callParams": [],
                        "constructorArguments": "",
                        "name": "token0",
                        "returnParams": [
                            {
                                "name": "",
                                "type": "address",
                                "value": "0x8207c1ffc5b6804f6024322ccf34f29c3541ae26"
                            }
                        ],
                        "signature": "token0()"
                    },
                    "errorInfo": "",
                    "fromAddress": "0xf71530c1f043703085b42608ff9dcccc43210a8e",
                    "gasUsed": 266,
                    "id": 13,
                    "methodDecoded": true,
                    "operation": "STATICCALL",
                    "output": "0x0000000000000000000000008207c1ffc5b6804f6024322ccf34f29c3541ae26",
                    "revert": true,
                    "revertMessage": "",
                    "selector": "0x0dfe1681",
                    "status": true,
                    "value": "0"
                },
                "nodeType": 0
            },
            "14": {
                "invocation": {
                    "address": "0x8207c1ffc5b6804f6024322ccf34f29c3541ae26",
                    "callData": "0x00000000000000000000000070bb8e6844dfb681810fd557dd741bcaf027bf940000000000000000000000000000000000000000000007ff2b0a8c2e2a7ebadc",
                    "decodedMethod": {
                        "callParams": [
                            {
                                "name": "_to",
                                "type": "address",
                                "value": "0x70bb8e6844dfb681810fd557dd741bcaf027bf94"
                            },
                            {
                                "decimalAvailable": true,
                                "name": "_value",
                                "type": "uint256",
                                "value": "37,763,586,564,306,759,498,460"
                            }
                        ],
                        "constructorArguments": "",
                        "name": "transfer",
                        "returnParams": [
                            {
                                "name": "",
                                "type": "bool",
                                "value": true
                            }
                        ],
                        "signature": "transfer(address,uint256)"
                    },
                    "errorInfo": "",
                    "fromAddress": "0xf71530c1f043703085b42608ff9dcccc43210a8e",
                    "gasUsed": 7240,
                    "id": 14,
                    "methodDecoded": true,
                    "operation": "CALL",
                    "output": "0x0000000000000000000000000000000000000000000000000000000000000001",
                    "revert": true,
                    "revertMessage": "",
                    "selector": "0xa9059cbb",
                    "status": true,
                    "value": "0"
                },
                "nodeType": 0
            },
            "15": {
                "event": {
                    "contract": "0x8207c1ffc5b6804f6024322ccf34f29c3541ae26",
                    "decodedLog": {
                        "name": "Transfer",
                        "params": [
                            {
                                "name": "from",
                                "type": "address",
                                "value": "0xf71530c1f043703085b42608ff9dcccc43210a8e"
                            },
                            {
                                "name": "to",
                                "type": "address",
                                "value": "0x70bb8e6844dfb681810fd557dd741bcaf027bf94"
                            },
                            {
                                "decimalAvailable": true,
                                "name": "value",
                                "type": "uint256",
                                "value": "37,763,586,564,306,759,498,460"
                            }
                        ],
                        "signature": "Transfer(address,address,uint256)"
                    },
                    "id": 15,
                    "logData": "0x0000000000000000000000000000000000000000000007ff2b0a8c2e2a7ebadc",
                    "logDecoded": true,
                    "operation": "EVENT",
                    "revert": true,
                    "status": false,
                    "topics": [
                        "0xddf252ad1be2c89b69c2b068fc378daa952ba7f163c4a11628f55a4df523b3ef",
                        "0x000000000000000000000000f71530c1f043703085b42608ff9dcccc43210a8e",
                        "0x00000000000000000000000070bb8e6844dfb681810fd557dd741bcaf027bf94"
                    ]
                },
                "nodeType": 1
            },
            "16": {
                "invocation": {
                    "address": "0x8207c1ffc5b6804f6024322ccf34f29c3541ae26",
                    "callData": "0x00000000000000000000000070bb8e6844dfb681810fd557dd741bcaf027bf94",
                    "decodedMethod": {
                        "callParams": [
                            {
                                "name": "_owner",
                                "type": "address",
                                "value": "0x70bb8e6844dfb681810fd557dd741bcaf027bf94"
                            }
                        ],
                        "constructorArguments": "",
                        "name": "balanceOf",
                        "returnParams": [
                            {
                                "decimalAvailable": true,
                                "name": "",
                                "type": "uint256",
                                "value": "1,616,751,965,755,264,725,656,518"
                            }
                        ],
                        "signature": "balanceOf(address)"
                    },
                    "errorInfo": "",
                    "fromAddress": "0x70bb8e6844dfb681810fd557dd741bcaf027bf94",
                    "gasUsed": 817,
                    "id": 16,
                    "methodDecoded": true,
                    "operation": "STATICCALL",
                    "output": "0x00000000000000000000000000000000000000000001565c4cb7f761464ba3c6",
                    "revert": true,
                    "revertMessage": "",
                    "selector": "0x70a08231",
                    "status": true,
                    "value": "0"
                },
                "nodeType": 0
            },
            "17": {
                "event": {
                    "contract": "0x70bb8e6844dfb681810fd557dd741bcaf027bf94",
                    "decodedLog": {
                        "name": "Swap",
                        "params": [
                            {
                                "name": "sender",
                                "type": "address",
                                "value": "0xf71530c1f043703085b42608ff9dcccc43210a8e"
                            },
                            {
                                "name": "recipient",
                                "type": "address",
                                "value": "0xf71530c1f043703085b42608ff9dcccc43210a8e"
                            },
                            {
                                "name": "amount0",
                                "type": "int256",
                                "value": "37,763,586,564,306,759,498,460"
                            },
                            {
                                "name": "amount1",
                                "type": "int256",
                                "value": "-9,916,443,173,862,770,587"
                            },
                            {
                                "name": "sqrtPriceX96",
                                "type": "uint160",
                                "value": "1,279,666,061,592,220,353,702,339,984"
                            },
                            {
                                "name": "liquidity",
                                "type": "uint128",
                                "value": "63,891,228,807,688,924,196,692"
                            },
                            {
                                "name": "tick",
                                "type": "int24",
                                "value": "-82,519"
                            }
                        ],
                        "signature": "Swap(address,address,int256,int256,uint160,uint128,int24)"
                    },
                    "id": 17,
                    "logData": "0x0000000000000000000000000000000000000000000007ff2b0a8c2e2a7ebadcffffffffffffffffffffffffffffffffffffffffffffffff7661b779128ff8650000000000000000000000000000000000000000042283d433a3721191432590000000000000000000000000000000000000000000000d878cea8a5adea06f54fffffffffffffffffffffffffffffffffffffffffffffffffffffffffffebda9",
                    "logDecoded": true,
                    "operation": "EVENT",
                    "revert": true,
                    "status": false,
                    "topics": [
                        "0xc42079f94a6350d7e6235f29174924f928cc2ac818eb64fed8004e115fbcca67",
                        "0x000000000000000000000000f71530c1f043703085b42608ff9dcccc43210a8e",
                        "0x000000000000000000000000f71530c1f043703085b42608ff9dcccc43210a8e"
                    ]
                },
                "nodeType": 1
            },
            "18": {
                "invocation": {
                    "address": "0xf71530c1f043703085b42608ff9dcccc43210a8e",
                    "callData": "0x000000000000000000000000000000000000000000111658304706e694f8b15300000000000000000000000000000000000000000011073352bb1f22f4fe297e0217006e000000000000000018a3d03c39cb6eaf000072ea6ca0d47b337f1ea44314d9d90e2a897edaf5030070bb8e6844dfb681810fd557dd741bcaf027bf94",
                    "decodedMethod": {
                        "callParams": [],
                        "constructorArguments": "",
                        "name": "AmIYoinkZ5534023222657174543",
                        "returnParams": [],
                        "signature": "AmIYoinkZ5534023222657174543()"
                    },
                    "errorInfo": "execution reverted",
                    "fromAddress": "0xf71530c1f043703085b42608ff9dcccc43210a8e",
                    "gasUsed": 143704,
                    "id": 18,
                    "methodDecoded": true,
                    "operation": "CALL",
                    "output": "",
                    "revert": true,
                    "revertMessage": "",
                    "selector": "0x89eaa45c",
                    "status": false,
                    "value": "0"
                },
                "nodeType": 0
            },
            "19": {
                "invocation": {
                    "address": "0x70bb8e6844dfb681810fd557dd741bcaf027bf94",
                    "callData": "0x",
                    "decodedMethod": {
                        "callParams": [],
                        "constructorArguments": "",
                        "name": "slot0",
                        "returnParams": [
                            {
                                "name": "sqrtPriceX96",
                                "type": "uint160",
                                "value": "1,291,962,922,773,386,385,689,808,693"
                            },
                            {
                                "name": "tick",
                                "type": "int24",
                                "value": "-82,328"
                            },
                            {
                                "name": "observationIndex",
                                "type": "uint16",
                                "value": "92"
                            },
                            {
                                "name": "observationCardinality",
                                "type": "uint16",
                                "value": "144"
                            },
                            {
                                "name": "observationCardinalityNext",
                                "type": "uint16",
                                "value": "144"
                            },
                            {
                                "name": "feeProtocol",
                                "type": "uint8",
                                "value": "0"
                            },
                            {
                                "name": "unlocked",
                                "type": "bool",
                                "value": true
                            }
                        ],
                        "signature": "slot0()"
                    },
                    "errorInfo": "",
                    "fromAddress": "0xf71530c1f043703085b42608ff9dcccc43210a8e",
                    "gasUsed": 2696,
                    "id": 19,
                    "methodDecoded": true,
                    "operation": "STATICCALL",
                    "output": "0x0000000000000000000000000000000000000000042cafca61d015c457920f35fffffffffffffffffffffffffffffffffffffffffffffffffffffffffffebe68000000000000000000000000000000000000000000000000000000000000005c0000000000000000000000000000000000000000000000000000000000000090000000000000000000000000000000000000000000000000000000000000009000000000000000000000000000000000000000000000000000000000000000000000000000000000000000000000000000000000000000000000000000000001",
                    "revert": true,
                    "revertMessage": "",
                    "selector": "0x3850c7bd",
                    "status": true,
                    "value": "0"
                },
                "nodeType": 0
            },
            "2": {
                "invocation": {
                    "address": "0x70bb8e6844dfb681810fd557dd741bcaf027bf94",
                    "callData": "0x",
                    "decodedMethod": {
                        "callParams": [],
                        "constructorArguments": "",
                        "name": "slot0",
                        "returnParams": [
                            {
                                "name": "sqrtPriceX96",
                                "type": "uint160",
                                "value": "1,291,962,922,773,386,385,689,808,693"
                            },
                            {
                                "name": "tick",
                                "type": "int24",
                                "value": "-82,328"
                            },
                            {
                                "name": "observationIndex",
                                "type": "uint16",
                                "value": "92"
                            },
                            {
                                "name": "observationCardinality",
                                "type": "uint16",
                                "value": "144"
                            },
                            {
                                "name": "observationCardinalityNext",
                                "type": "uint16",
                                "value": "144"
                            },
                            {
                                "name": "feeProtocol",
                                "type": "uint8",
                                "value": "0"
                            },
                            {
                                "name": "unlocked",
                                "type": "bool",
                                "value": true
                            }
                        ],
                        "signature": "slot0()"
                    },
                    "errorInfo": "",
                    "fromAddress": "0xf71530c1f043703085b42608ff9dcccc43210a8e",
                    "gasUsed": 2696,
                    "id": 2,
                    "methodDecoded": true,
                    "operation": "STATICCALL",
                    "output": "0x0000000000000000000000000000000000000000042cafca61d015c457920f35fffffffffffffffffffffffffffffffffffffffffffffffffffffffffffebe68000000000000000000000000000000000000000000000000000000000000005c0000000000000000000000000000000000000000000000000000000000000090000000000000000000000000000000000000000000000000000000000000009000000000000000000000000000000000000000000000000000000000000000000000000000000000000000000000000000000000000000000000000000000001",
                    "revert": true,
                    "revertMessage": "",
                    "selector": "0x3850c7bd",
                    "status": true,
                    "value": "0"
                },
                "nodeType": 0
            },
            "20": {
                "invocation": {
                    "address": "0x72ea6ca0d47b337f1ea44314d9d90e2a897edaf5",
                    "callData": "0x",
                    "decodedMethod": {
                        "callParams": [],
                        "constructorArguments": "",
                        "name": "getReserves",
                        "returnParams": [
                            {
                                "name": "_reserve0",
                                "type": "uint112",
                                "value": "1,392,639,837,137,826,249,600,502"
                            },
                            {
                                "name": "_reserve1",
                                "type": "uint112",
                                "value": "360,577,006,981,486,395,123"
                            },
                            {
                                "name": "_blockTimestampLast",
                                "type": "uint32",
                                "value": "1,656,779,040"
                            }
                        ],
                        "signature": "getReserves()"
                    },
                    "errorInfo": "",
                    "fromAddress": "0xf71530c1f043703085b42608ff9dcccc43210a8e",
                    "gasUsed": 2517,
                    "id": 20,
                    "methodDecoded": true,
                    "operation": "STATICCALL",
                    "output": "0x0000000000000000000000000000000000000000000126e728270ac442426df60000000000000000000000000000000000000000000000138c02dd6e490abef30000000000000000000000000000000000000000000000000000000062c07120",
                    "revert": true,
                    "revertMessage": "",
                    "selector": "0x0902f1ac",
                    "status": true,
                    "value": "0"
                },
                "nodeType": 0
            },
            "21": {
                "invocation": {
                    "address": "0x72ea6ca0d47b337f1ea44314d9d90e2a897edaf5",
                    "callData": "0x0000000000000000000000000000000000000000000009728704fc8b5618c3b90000000000000000000000000000000000000000000000000000000000000000000000000000000000000000f71530c1f043703085b42608ff9dcccc43210a8e000000000000000000000000000000000000000000000000000000000000008000000000000000000000000000000000000000000000000000000000000000260000000000000000a61c250950b63d2a030070bb8e6844dfb681810fd557dd741bcaf027bf94",
                    "decodedMethod": {
                        "callParams": [
                            {
                                "name": "amount0Out",
                                "type": "uint256",
                                "value": "44,613,956,349,000,098,038,713"
                            },
                            {
                                "name": "amount1Out",
                                "type": "uint256",
                                "value": "0"
                            },
                            {
                                "name": "to",
                                "type": "address",
                                "value": "0xf71530c1f043703085b42608ff9dcccc43210a8e"
                            },
                            {
                                "name": "data",
                                "type": "bytes",
                                "value": "0x0000000000000000a61c250950b63d2a030070bb8e6844dfb681810fd557dd741bcaf027bf94"
                            }
                        ],
                        "constructorArguments": "",
                        "name": "swap",
                        "returnParams": [],
                        "signature": "swap(uint256,uint256,address,bytes)"
                    },
                    "errorInfo": "execution reverted",
                    "fromAddress": "0xf71530c1f043703085b42608ff9dcccc43210a8e",
                    "gasUsed": 129390,
                    "id": 21,
                    "methodDecoded": true,
                    "operation": "CALL",
                    "output": "",
                    "revert": true,
                    "revertMessage": "",
                    "selector": "0x022c0d9f",
                    "status": false,
                    "value": "0"
                },
                "nodeType": 0
            },
            "22": {
                "invocation": {
                    "address": "0x8207c1ffc5b6804f6024322ccf34f29c3541ae26",
                    "callData": "0x000000000000000000000000f71530c1f043703085b42608ff9dcccc43210a8e0000000000000000000000000000000000000000000009728704fc8b5618c3b9",
                    "decodedMethod": {
                        "callParams": [
                            {
                                "name": "_to",
                                "type": "address",
                                "value": "0xf71530c1f043703085b42608ff9dcccc43210a8e"
                            },
                            {
                                "decimalAvailable": true,
                                "name": "_value",
                                "type": "uint256",
                                "value": "44,613,956,349,000,098,038,713"
                            }
                        ],
                        "constructorArguments": "",
                        "name": "transfer",
                        "returnParams": [
                            {
                                "name": "",
                                "type": "bool",
                                "value": true
                            }
                        ],
                        "signature": "transfer(address,uint256)"
                    },
                    "errorInfo": "",
                    "fromAddress": "0x72ea6ca0d47b337f1ea44314d9d90e2a897edaf5",
                    "gasUsed": 35140,
                    "id": 22,
                    "methodDecoded": true,
                    "operation": "CALL",
                    "output": "0x0000000000000000000000000000000000000000000000000000000000000001",
                    "revert": true,
                    "revertMessage": "",
                    "selector": "0xa9059cbb",
                    "status": true,
                    "value": "0"
                },
                "nodeType": 0
            },
            "23": {
                "event": {
                    "contract": "0x8207c1ffc5b6804f6024322ccf34f29c3541ae26",
                    "decodedLog": {
                        "name": "Transfer",
                        "params": [
                            {
                                "name": "from",
                                "type": "address",
                                "value": "0x72ea6ca0d47b337f1ea44314d9d90e2a897edaf5"
                            },
                            {
                                "name": "to",
                                "type": "address",
                                "value": "0xf71530c1f043703085b42608ff9dcccc43210a8e"
                            },
                            {
                                "decimalAvailable": true,
                                "name": "value",
                                "type": "uint256",
                                "value": "44,613,956,349,000,098,038,713"
                            }
                        ],
                        "signature": "Transfer(address,address,uint256)"
                    },
                    "id": 23,
                    "logData": "0x0000000000000000000000000000000000000000000009728704fc8b5618c3b9",
                    "logDecoded": true,
                    "operation": "EVENT",
                    "revert": true,
                    "status": false,
                    "topics": [
                        "0xddf252ad1be2c89b69c2b068fc378daa952ba7f163c4a11628f55a4df523b3ef",
                        "0x00000000000000000000000072ea6ca0d47b337f1ea44314d9d90e2a897edaf5",
                        "0x000000000000000000000000f71530c1f043703085b42608ff9dcccc43210a8e"
                    ]
                },
                "nodeType": 1
            },
            "24": {
                "invocation": {
                    "address": "0xf71530c1f043703085b42608ff9dcccc43210a8e",
                    "callData": "0x000000000000000000000000f71530c1f043703085b42608ff9dcccc43210a8e0000000000000000000000000000000000000000000009728704fc8b5618c3b90000000000000000000000000000000000000000000000000000000000000000000000000000000000000000000000000000000000000000000000000000008000000000000000000000000000000000000000000000000000000000000000260000000000000000a61c250950b63d2a030070bb8e6844dfb681810fd557dd741bcaf027bf940000000000000000000000000000000000000000000000000000",
                    "decodedMethod": {
                        "callParams": [
                            {
                                "name": "sender",
                                "type": "address",
                                "value": "0xf71530c1f043703085b42608ff9dcccc43210a8e"
                            },
                            {
                                "name": "amount0",
                                "type": "uint256",
                                "value": "44,613,956,349,000,098,038,713"
                            },
                            {
                                "name": "amount1",
                                "type": "uint256",
                                "value": "0"
                            },
                            {
                                "name": "data",
                                "type": "bytes",
                                "value": "0x0000000000000000a61c250950b63d2a030070bb8e6844dfb681810fd557dd741bcaf027bf94"
                            }
                        ],
                        "constructorArguments": "",
                        "name": "uniswapV2Call",
                        "returnParams": [],
                        "signature": "uniswapV2Call(address,uint256,uint256,bytes)"
                    },
                    "errorInfo": "execution reverted",
                    "fromAddress": "0x72ea6ca0d47b337f1ea44314d9d90e2a897edaf5",
                    "gasUsed": 79873,
                    "id": 24,
                    "methodDecoded": true,
                    "operation": "CALL",
                    "output": "",
                    "revert": true,
                    "revertMessage": "",
                    "selector": "0x10d1e85c",
                    "status": false,
                    "value": "0"
                },
                "nodeType": 0
            },
            "25": {
                "invocation": {
                    "address": "0x70bb8e6844dfb681810fd557dd741bcaf027bf94",
                    "callData": "0x000000000000000000000000f71530c1f043703085b42608ff9dcccc43210a8e00000000000000000000000000000000000000000000000000000000000000010000000000000000000000000000000000000000000009728704fc8b5618c3b900000000000000000000000000000000000000000000000000000001000276a400000000000000000000000000000000000000000000000000000000000000a00000000000000000000000000000000000000000000000000000000000000000",
                    "decodedMethod": {
                        "callParams": [
                            {
                                "name": "recipient",
                                "type": "address",
                                "value": "0xf71530c1f043703085b42608ff9dcccc43210a8e"
                            },
                            {
                                "name": "zeroForOne",
                                "type": "bool",
                                "value": true
                            },
                            {
                                "name": "amountSpecified",
                                "type": "int256",
                                "value": "44,613,956,349,000,098,038,713"
                            },
                            {
                                "name": "sqrtPriceLimitX96",
                                "type": "uint160",
                                "value": "4,295,128,740"
                            },
                            {
                                "name": "data",
                                "type": "bytes",
                                "value": "0x"
                            }
                        ],
                        "constructorArguments": "",
                        "name": "swap",
                        "returnParams": [
                            {
                                "name": "amount0",
                                "type": "int256",
                                "value": "44,613,956,349,000,098,038,713"
                            },
                            {
                                "name": "amount1",
                                "type": "int256",
                                "value": "-11,695,107,995,674,043,423"
                            }
                        ],
                        "signature": "swap(address,bool,int256,uint160,bytes)"
                    },
                    "errorInfo": "",
                    "fromAddress": "0xf71530c1f043703085b42608ff9dcccc43210a8e",
                    "gasUsed": 78266,
                    "id": 25,
                    "methodDecoded": true,
                    "operation": "CALL",
                    "output": "0x0000000000000000000000000000000000000000000009728704fc8b5618c3b9ffffffffffffffffffffffffffffffffffffffffffffffff5db2a13dc4049be1",
                    "revert": true,
                    "revertMessage": "",
                    "selector": "0x128acb08",
                    "status": true,
                    "value": "0"
                },
                "nodeType": 0
            },
            "26": {
                "invocation": {
                    "address": "0xc02aaa39b223fe8d0a0e5c4f27ead9083c756cc2",
                    "callData": "0x000000000000000000000000f71530c1f043703085b42608ff9dcccc43210a8e000000000000000000000000000000000000000000000000a24d5ec23bfb641f",
                    "decodedMethod": {
                        "callParams": [
                            {
                                "name": "dst",
                                "type": "address",
                                "value": "0xf71530c1f043703085b42608ff9dcccc43210a8e"
                            },
                            {
                                "decimalAvailable": true,
                                "name": "wad",
                                "type": "uint256",
                                "value": "11,695,107,995,674,043,423"
                            }
                        ],
                        "constructorArguments": "",
                        "name": "transfer",
                        "returnParams": [
                            {
                                "name": "",
                                "type": "bool",
                                "value": true
                            }
                        ],
                        "signature": "transfer(address,uint256)"
                    },
                    "errorInfo": "",
                    "fromAddress": "0x70bb8e6844dfb681810fd557dd741bcaf027bf94",
                    "gasUsed": 29962,
                    "id": 26,
                    "methodDecoded": true,
                    "operation": "CALL",
                    "output": "0x0000000000000000000000000000000000000000000000000000000000000001",
                    "revert": true,
                    "revertMessage": "",
                    "selector": "0xa9059cbb",
                    "status": true,
                    "value": "0"
                },
                "nodeType": 0
            },
            "27": {
                "event": {
                    "contract": "0xc02aaa39b223fe8d0a0e5c4f27ead9083c756cc2",
                    "decodedLog": {
                        "name": "Transfer",
                        "params": [
                            {
                                "name": "src",
                                "type": "address",
                                "value": "0x70bb8e6844dfb681810fd557dd741bcaf027bf94"
                            },
                            {
                                "name": "dst",
                                "type": "address",
                                "value": "0xf71530c1f043703085b42608ff9dcccc43210a8e"
                            },
                            {
                                "decimalAvailable": true,
                                "name": "wad",
                                "type": "uint256",
                                "value": "11,695,107,995,674,043,423"
                            }
                        ],
                        "signature": "Transfer(address,address,uint256)"
                    },
                    "id": 27,
                    "logData": "0x000000000000000000000000000000000000000000000000a24d5ec23bfb641f",
                    "logDecoded": true,
                    "operation": "EVENT",
                    "revert": true,
                    "status": false,
                    "topics": [
                        "0xddf252ad1be2c89b69c2b068fc378daa952ba7f163c4a11628f55a4df523b3ef",
                        "0x00000000000000000000000070bb8e6844dfb681810fd557dd741bcaf027bf94",
                        "0x000000000000000000000000f71530c1f043703085b42608ff9dcccc43210a8e"
                    ]
                },
                "nodeType": 1
            },
            "28": {
                "invocation": {
                    "address": "0x8207c1ffc5b6804f6024322ccf34f29c3541ae26",
                    "callData": "0x00000000000000000000000070bb8e6844dfb681810fd557dd741bcaf027bf94",
                    "decodedMethod": {
                        "callParams": [
                            {
                                "name": "_owner",
                                "type": "address",
                                "value": "0x70bb8e6844dfb681810fd557dd741bcaf027bf94"
                            }
                        ],
                        "constructorArguments": "",
                        "name": "balanceOf",
                        "returnParams": [
                            {
                                "decimalAvailable": true,
                                "name": "",
                                "type": "uint256",
                                "value": "1,578,988,379,190,957,966,158,058"
                            }
                        ],
                        "signature": "balanceOf(address)"
                    },
                    "errorInfo": "",
                    "fromAddress": "0x70bb8e6844dfb681810fd557dd741bcaf027bf94",
                    "gasUsed": 2817,
                    "id": 28,
                    "methodDecoded": true,
                    "operation": "STATICCALL",
                    "output": "0x000000000000000000000000000000000000000000014e5d21ad6b331bcce8ea",
                    "revert": true,
                    "revertMessage": "",
                    "selector": "0x70a08231",
                    "status": true,
                    "value": "0"
                },
                "nodeType": 0
            },
            "29": {
                "invocation": {
                    "address": "0xf71530c1f043703085b42608ff9dcccc43210a8e",
                    "callData": "0x0000000000000000000000000000000000000000000009728704fc8b5618c3b9ffffffffffffffffffffffffffffffffffffffffffffffff5db2a13dc4049be100000000000000000000000000000000000000000000000000000000000000600000000000000000000000000000000000000000000000000000000000000000",
                    "decodedMethod": {
                        "callParams": [
                            {
                                "name": "amount0Delta",
                                "type": "int256",
                                "value": "44,613,956,349,000,098,038,713"
                            },
                            {
                                "name": "amount1Delta",
                                "type": "int256",
                                "value": "-11,695,107,995,674,043,423"
                            },
                            {
                                "name": "data",
                                "type": "bytes",
                                "value": "0x"
                            }
                        ],
                        "constructorArguments": "",
                        "name": "uniswapV3SwapCallback",
                        "returnParams": [],
                        "signature": "uniswapV3SwapCallback(int256,int256,bytes)"
                    },
                    "errorInfo": "",
                    "fromAddress": "0x70bb8e6844dfb681810fd557dd741bcaf027bf94",
                    "gasUsed": 9473,
                    "id": 29,
                    "methodDecoded": true,
                    "operation": "CALL",
                    "output": "",
                    "revert": true,
                    "revertMessage": "",
                    "selector": "0xfa461e33",
                    "status": true,
                    "value": "0"
                },
                "nodeType": 0
            },
            "3": {
                "invocation": {
                    "address": "0xce2cc0513634cef3a7c9c257e294ef5e3092f185",
                    "callData": "0x",
                    "decodedMethod": {
                        "callParams": [],
                        "constructorArguments": "",
                        "name": "getReserves",
                        "returnParams": [
                            {
                                "name": "_reserve0",
                                "type": "uint112",
                                "value": "1,024,989,814,130,288,102,952,514"
                            },
                            {
                                "name": "_reserve1",
                                "type": "uint112",
                                "value": "263,670,709,425,651,234,532"
                            },
                            {
                                "name": "_blockTimestampLast",
                                "type": "uint32",
                                "value": "1,656,779,040"
                            }
                        ],
                        "signature": "getReserves()"
                    },
                    "errorInfo": "",
                    "fromAddress": "0xf71530c1f043703085b42608ff9dcccc43210a8e",
                    "gasUsed": 2504,
                    "id": 3,
                    "methodDecoded": true,
                    "operation": "STATICCALL",
                    "output": "0x00000000000000000000000000000000000000000000d90ccf254ab72c974e4200000000000000000000000000000000000000000000000e4b2a893c3f2eb6e40000000000000000000000000000000000000000000000000000000062c07120",
                    "revert": true,
                    "revertMessage": "",
                    "selector": "0x0902f1ac",
                    "status": true,
                    "value": "0"
                },
                "nodeType": 0
            },
            "30": {
                "invocation": {
                    "address": "0x70bb8e6844dfb681810fd557dd741bcaf027bf94",
                    "callData": "0x",
                    "decodedMethod": {
                        "callParams": [],
                        "constructorArguments": "",
                        "name": "token0",
                        "returnParams": [
                            {
                                "name": "",
                                "type": "address",
                                "value": "0x8207c1ffc5b6804f6024322ccf34f29c3541ae26"
                            }
                        ],
                        "signature": "token0()"
                    },
                    "errorInfo": "",
                    "fromAddress": "0xf71530c1f043703085b42608ff9dcccc43210a8e",
                    "gasUsed": 266,
                    "id": 30,
                    "methodDecoded": true,
                    "operation": "STATICCALL",
                    "output": "0x0000000000000000000000008207c1ffc5b6804f6024322ccf34f29c3541ae26",
                    "revert": true,
                    "revertMessage": "",
                    "selector": "0x0dfe1681",
                    "status": true,
                    "value": "0"
                },
                "nodeType": 0
            },
            "31": {
                "invocation": {
                    "address": "0x8207c1ffc5b6804f6024322ccf34f29c3541ae26",
                    "callData": "0x00000000000000000000000070bb8e6844dfb681810fd557dd741bcaf027bf940000000000000000000000000000000000000000000009728704fc8b5618c3b9",
                    "decodedMethod": {
                        "callParams": [
                            {
                                "name": "_to",
                                "type": "address",
                                "value": "0x70bb8e6844dfb681810fd557dd741bcaf027bf94"
                            },
                            {
                                "decimalAvailable": true,
                                "name": "_value",
                                "type": "uint256",
                                "value": "44,613,956,349,000,098,038,713"
                            }
                        ],
                        "constructorArguments": "",
                        "name": "transfer",
                        "returnParams": [
                            {
                                "name": "",
                                "type": "bool",
                                "value": true
                            }
                        ],
                        "signature": "transfer(address,uint256)"
                    },
                    "errorInfo": "",
                    "fromAddress": "0xf71530c1f043703085b42608ff9dcccc43210a8e",
                    "gasUsed": 7240,
                    "id": 31,
                    "methodDecoded": true,
                    "operation": "CALL",
                    "output": "0x0000000000000000000000000000000000000000000000000000000000000001",
                    "revert": true,
                    "revertMessage": "",
                    "selector": "0xa9059cbb",
                    "status": true,
                    "value": "0"
                },
                "nodeType": 0
            },
            "32": {
                "event": {
                    "contract": "0x8207c1ffc5b6804f6024322ccf34f29c3541ae26",
                    "decodedLog": {
                        "name": "Transfer",
                        "params": [
                            {
                                "name": "from",
                                "type": "address",
                                "value": "0xf71530c1f043703085b42608ff9dcccc43210a8e"
                            },
                            {
                                "name": "to",
                                "type": "address",
                                "value": "0x70bb8e6844dfb681810fd557dd741bcaf027bf94"
                            },
                            {
                                "decimalAvailable": true,
                                "name": "value",
                                "type": "uint256",
                                "value": "44,613,956,349,000,098,038,713"
                            }
                        ],
                        "signature": "Transfer(address,address,uint256)"
                    },
                    "id": 32,
                    "logData": "0x0000000000000000000000000000000000000000000009728704fc8b5618c3b9",
                    "logDecoded": true,
                    "operation": "EVENT",
                    "revert": true,
                    "status": false,
                    "topics": [
                        "0xddf252ad1be2c89b69c2b068fc378daa952ba7f163c4a11628f55a4df523b3ef",
                        "0x000000000000000000000000f71530c1f043703085b42608ff9dcccc43210a8e",
                        "0x00000000000000000000000070bb8e6844dfb681810fd557dd741bcaf027bf94"
                    ]
                },
                "nodeType": 1
            },
            "33": {
                "invocation": {
                    "address": "0x8207c1ffc5b6804f6024322ccf34f29c3541ae26",
                    "callData": "0x00000000000000000000000070bb8e6844dfb681810fd557dd741bcaf027bf94",
                    "decodedMethod": {
                        "callParams": [
                            {
                                "name": "_owner",
                                "type": "address",
                                "value": "0x70bb8e6844dfb681810fd557dd741bcaf027bf94"
                            }
                        ],
                        "constructorArguments": "",
                        "name": "balanceOf",
                        "returnParams": [
                            {
                                "decimalAvailable": true,
                                "name": "",
                                "type": "uint256",
                                "value": "1,623,602,335,539,958,064,196,771"
                            }
                        ],
                        "signature": "balanceOf(address)"
                    },
                    "errorInfo": "",
                    "fromAddress": "0x70bb8e6844dfb681810fd557dd741bcaf027bf94",
                    "gasUsed": 817,
                    "id": 33,
                    "methodDecoded": true,
                    "operation": "STATICCALL",
                    "output": "0x0000000000000000000000000000000000000000000157cfa8b267be71e5aca3",
                    "revert": true,
                    "revertMessage": "",
                    "selector": "0x70a08231",
                    "status": true,
                    "value": "0"
                },
                "nodeType": 0
            },
            "34": {
                "event": {
                    "contract": "0x70bb8e6844dfb681810fd557dd741bcaf027bf94",
                    "decodedLog": {
                        "name": "Swap",
                        "params": [
                            {
                                "name": "sender",
                                "type": "address",
                                "value": "0xf71530c1f043703085b42608ff9dcccc43210a8e"
                            },
                            {
                                "name": "recipient",
                                "type": "address",
                                "value": "0xf71530c1f043703085b42608ff9dcccc43210a8e"
                            },
                            {
                                "name": "amount0",
                                "type": "int256",
                                "value": "44,613,956,349,000,098,038,713"
                            },
                            {
                                "name": "amount1",
                                "type": "int256",
                                "value": "-11,695,107,995,674,043,423"
                            },
                            {
                                "name": "sqrtPriceX96",
                                "type": "uint160",
                                "value": "1,277,460,432,616,370,860,727,493,374"
                            },
                            {
                                "name": "liquidity",
                                "type": "uint128",
                                "value": "63,891,228,807,688,924,196,692"
                            },
                            {
                                "name": "tick",
                                "type": "int24",
                                "value": "-82,554"
                            }
                        ],
                        "signature": "Swap(address,address,int256,int256,uint160,uint128,int24)"
                    },
                    "id": 34,
                    "logData": "0x0000000000000000000000000000000000000000000009728704fc8b5618c3b9ffffffffffffffffffffffffffffffffffffffffffffffff5db2a13dc4049be100000000000000000000000000000000000000000420b0c4d0ba961ad8d062fe000000000000000000000000000000000000000000000d878cea8a5adea06f54fffffffffffffffffffffffffffffffffffffffffffffffffffffffffffebd86",
                    "logDecoded": true,
                    "operation": "EVENT",
                    "revert": true,
                    "status": false,
                    "topics": [
                        "0xc42079f94a6350d7e6235f29174924f928cc2ac818eb64fed8004e115fbcca67",
                        "0x000000000000000000000000f71530c1f043703085b42608ff9dcccc43210a8e",
                        "0x000000000000000000000000f71530c1f043703085b42608ff9dcccc43210a8e"
                    ]
                },
                "nodeType": 1
            },
            "4": {
                "invocation": {
                    "address": "0xce2cc0513634cef3a7c9c257e294ef5e3092f185",
                    "callData": "0x0000000000000000000000000000000000000000000007ff2b0a8c2e2a7ebadc0000000000000000000000000000000000000000000000000000000000000000000000000000000000000000f71530c1f043703085b42608ff9dcccc43210a8e0000000000000000000000000000000000000000000000000000000000000080000000000000000000000000000000000000000000000000000000000000002600000000000000008c6472b48ea22021030070bb8e6844dfb681810fd557dd741bcaf027bf94",
                    "decodedMethod": {
                        "callParams": [
                            {
                                "name": "amount0Out",
                                "type": "uint256",
                                "value": "37,763,586,564,306,759,498,460"
                            },
                            {
                                "name": "amount1Out",
                                "type": "uint256",
                                "value": "0"
                            },
                            {
                                "name": "to",
                                "type": "address",
                                "value": "0xf71530c1f043703085b42608ff9dcccc43210a8e"
                            },
                            {
                                "name": "data",
                                "type": "bytes",
                                "value": "0x00000000000000008c6472b48ea22021030070bb8e6844dfb681810fd557dd741bcaf027bf94"
                            }
                        ],
                        "constructorArguments": "",
                        "name": "swap",
                        "returnParams": [],
                        "signature": "swap(uint256,uint256,address,bytes)"
                    },
                    "errorInfo": "execution reverted",
                    "fromAddress": "0xf71530c1f043703085b42608ff9dcccc43210a8e",
                    "gasUsed": 130193,
                    "id": 4,
                    "methodDecoded": true,
                    "operation": "CALL",
                    "output": "",
                    "revert": true,
                    "revertMessage": "",
                    "selector": "0x022c0d9f",
                    "status": false,
                    "value": "0"
                },
                "nodeType": 0
            },
            "5": {
                "invocation": {
                    "address": "0x8207c1ffc5b6804f6024322ccf34f29c3541ae26",
                    "callData": "0x000000000000000000000000f71530c1f043703085b42608ff9dcccc43210a8e0000000000000000000000000000000000000000000007ff2b0a8c2e2a7ebadc",
                    "decodedMethod": {
                        "callParams": [
                            {
                                "name": "_to",
                                "type": "address",
                                "value": "0xf71530c1f043703085b42608ff9dcccc43210a8e"
                            },
                            {
                                "decimalAvailable": true,
                                "name": "_value",
                                "type": "uint256",
                                "value": "37,763,586,564,306,759,498,460"
                            }
                        ],
                        "constructorArguments": "",
                        "name": "transfer",
                        "returnParams": [
                            {
                                "name": "",
                                "type": "bool",
                                "value": true
                            }
                        ],
                        "signature": "transfer(address,uint256)"
                    },
                    "errorInfo": "",
                    "fromAddress": "0xce2cc0513634cef3a7c9c257e294ef5e3092f185",
                    "gasUsed": 35140,
                    "id": 5,
                    "methodDecoded": true,
                    "operation": "CALL",
                    "output": "0x0000000000000000000000000000000000000000000000000000000000000001",
                    "revert": true,
                    "revertMessage": "",
                    "selector": "0xa9059cbb",
                    "status": true,
                    "value": "0"
                },
                "nodeType": 0
            },
            "6": {
                "event": {
                    "contract": "0x8207c1ffc5b6804f6024322ccf34f29c3541ae26",
                    "decodedLog": {
                        "name": "Transfer",
                        "params": [
                            {
                                "name": "from",
                                "type": "address",
                                "value": "0xce2cc0513634cef3a7c9c257e294ef5e3092f185"
                            },
                            {
                                "name": "to",
                                "type": "address",
                                "value": "0xf71530c1f043703085b42608ff9dcccc43210a8e"
                            },
                            {
                                "decimalAvailable": true,
                                "name": "value",
                                "type": "uint256",
                                "value": "37,763,586,564,306,759,498,460"
                            }
                        ],
                        "signature": "Transfer(address,address,uint256)"
                    },
                    "id": 6,
                    "logData": "0x0000000000000000000000000000000000000000000007ff2b0a8c2e2a7ebadc",
                    "logDecoded": true,
                    "operation": "EVENT",
                    "revert": true,
                    "status": false,
                    "topics": [
                        "0xddf252ad1be2c89b69c2b068fc378daa952ba7f163c4a11628f55a4df523b3ef",
                        "0x000000000000000000000000ce2cc0513634cef3a7c9c257e294ef5e3092f185",
                        "0x000000000000000000000000f71530c1f043703085b42608ff9dcccc43210a8e"
                    ]
                },
                "nodeType": 1
            },
            "7": {
                "invocation": {
                    "address": "0xf71530c1f043703085b42608ff9dcccc43210a8e",
                    "callData": "0x000000000000000000000000f71530c1f043703085b42608ff9dcccc43210a8e0000000000000000000000000000000000000000000007ff2b0a8c2e2a7ebadc00000000000000000000000000000000000000000000000000000000000000000000000000000000000000000000000000000000000000000000000000000080000000000000000000000000000000000000000000000000000000000000002600000000000000008c6472b48ea22021030070bb8e6844dfb681810fd557dd741bcaf027bf940000000000000000000000000000000000000000000000000000",
                    "decodedMethod": {
                        "callParams": [
                            {
                                "name": "sender",
                                "type": "address",
                                "value": "0xf71530c1f043703085b42608ff9dcccc43210a8e"
                            },
                            {
                                "name": "amount0",
                                "type": "uint256",
                                "value": "37,763,586,564,306,759,498,460"
                            },
                            {
                                "name": "amount1",
                                "type": "uint256",
                                "value": "0"
                            },
                            {
                                "name": "data",
                                "type": "bytes",
                                "value": "0x00000000000000008c6472b48ea22021030070bb8e6844dfb681810fd557dd741bcaf027bf94"
                            }
                        ],
                        "constructorArguments": "",
                        "name": "uniswapV2Call",
                        "returnParams": [],
                        "signature": "uniswapV2Call(address,uint256,uint256,bytes)"
                    },
                    "errorInfo": "execution reverted",
                    "fromAddress": "0xce2cc0513634cef3a7c9c257e294ef5e3092f185",
                    "gasUsed": 80803,
                    "id": 7,
                    "methodDecoded": true,
                    "operation": "CALL",
                    "output": "",
                    "revert": true,
                    "revertMessage": "",
                    "selector": "0x10d1e85c",
                    "status": false,
                    "value": "0"
                },
                "nodeType": 0
            },
            "8": {
                "invocation": {
                    "address": "0x70bb8e6844dfb681810fd557dd741bcaf027bf94",
                    "callData": "0x000000000000000000000000f71530c1f043703085b42608ff9dcccc43210a8e00000000000000000000000000000000000000000000000000000000000000010000000000000000000000000000000000000000000007ff2b0a8c2e2a7ebadc00000000000000000000000000000000000000000000000000000001000276a400000000000000000000000000000000000000000000000000000000000000a00000000000000000000000000000000000000000000000000000000000000000",
                    "decodedMethod": {
                        "callParams": [
                            {
                                "name": "recipient",
                                "type": "address",
                                "value": "0xf71530c1f043703085b42608ff9dcccc43210a8e"
                            },
                            {
                                "name": "zeroForOne",
                                "type": "bool",
                                "value": true
                            },
                            {
                                "name": "amountSpecified",
                                "type": "int256",
                                "value": "37,763,586,564,306,759,498,460"
                            },
                            {
                                "name": "sqrtPriceLimitX96",
                                "type": "uint160",
                                "value": "4,295,128,740"
                            },
                            {
                                "name": "data",
                                "type": "bytes",
                                "value": "0x"
                            }
                        ],
                        "constructorArguments": "",
                        "name": "swap",
                        "returnParams": [
                            {
                                "name": "amount0",
                                "type": "int256",
                                "value": "37,763,586,564,306,759,498,460"
                            },
                            {
                                "name": "amount1",
                                "type": "int256",
                                "value": "-9,916,443,173,862,770,587"
                            }
                        ],
                        "signature": "swap(address,bool,int256,uint160,bytes)"
                    },
                    "errorInfo": "",
                    "fromAddress": "0xf71530c1f043703085b42608ff9dcccc43210a8e",
                    "gasUsed": 79196,
                    "id": 8,
                    "methodDecoded": true,
                    "operation": "CALL",
                    "output": "0x0000000000000000000000000000000000000000000007ff2b0a8c2e2a7ebadcffffffffffffffffffffffffffffffffffffffffffffffff7661b779128ff865",
                    "revert": true,
                    "revertMessage": "",
                    "selector": "0x128acb08",
                    "status": true,
                    "value": "0"
                },
                "nodeType": 0
            },
            "9": {
                "invocation": {
                    "address": "0xc02aaa39b223fe8d0a0e5c4f27ead9083c756cc2",
                    "callData": "0x000000000000000000000000f71530c1f043703085b42608ff9dcccc43210a8e000000000000000000000000000000000000000000000000899e4886ed70079b",
                    "decodedMethod": {
                        "callParams": [
                            {
                                "name": "dst",
                                "type": "address",
                                "value": "0xf71530c1f043703085b42608ff9dcccc43210a8e"
                            },
                            {
                                "decimalAvailable": true,
                                "name": "wad",
                                "type": "uint256",
                                "value": "9,916,443,173,862,770,587"
                            }
                        ],
                        "constructorArguments": "",
                        "name": "transfer",
                        "returnParams": [
                            {
                                "name": "",
                                "type": "bool",
                                "value": true
                            }
                        ],
                        "signature": "transfer(address,uint256)"
                    },
                    "errorInfo": "",
                    "fromAddress": "0x70bb8e6844dfb681810fd557dd741bcaf027bf94",
                    "gasUsed": 29962,
                    "id": 9,
                    "methodDecoded": true,
                    "operation": "CALL",
                    "output": "0x0000000000000000000000000000000000000000000000000000000000000001",
                    "revert": true,
                    "revertMessage": "",
                    "selector": "0xa9059cbb",
                    "status": true,
                    "value": "0"
                },
                "nodeType": 0
            }
        },
        "gasFlame": [
            {
                "children": [
                    {
                        "children": [
                            {
                                "children": [],
                                "depth": 0,
                                "name": "Initial Gas",
                                "value": 23864
                            },
                            {
                                "children": [
                                    {
                                        "children": [
                                            {
                                                "children": [],
                                                "depth": 2,
                                                "name": "slot0",
                                                "value": 2696
                                            },
                                            {
                                                "children": [],
                                                "depth": 2,
                                                "name": "getReserves",
                                                "value": 2504
                                            },
                                            {
                                                "children": [
                                                    {
                                                        "children": [],
                                                        "depth": 3,
                                                        "name": "transfer",
                                                        "value": 35140
                                                    },
                                                    {
                                                        "children": [
                                                            {
                                                                "children": [
                                                                    {
                                                                        "children": [],
                                                                        "depth": 5,
                                                                        "name": "transfer",
                                                                        "value": 29962
                                                                    },
                                                                    {
                                                                        "children": [],
                                                                        "depth": 5,
                                                                        "name": "balanceOf",
                                                                        "value": 2817
                                                                    },
                                                                    {
                                                                        "children": [
                                                                            {
                                                                                "children": [],
                                                                                "depth": 6,
                                                                                "name": "token0",
                                                                                "value": 266
                                                                            },
                                                                            {
                                                                                "children": [],
                                                                                "depth": 6,
                                                                                "name": "transfer",
                                                                                "value": 7240
                                                                            }
                                                                        ],
                                                                        "depth": 5,
                                                                        "name": "uniswapV3SwapCallback",
                                                                        "value": 9473
                                                                    },
                                                                    {
                                                                        "children": [],
                                                                        "depth": 5,
                                                                        "name": "balanceOf",
                                                                        "value": 817
                                                                    }
                                                                ],
                                                                "depth": 4,
                                                                "name": "swap",
                                                                "value": 79196
                                                            }
                                                        ],
                                                        "depth": 3,
                                                        "name": "uniswapV2Call",
                                                        "value": 80803
                                                    }
                                                ],
                                                "depth": 2,
                                                "name": "swap",
                                                "value": 130193
                                            }
                                        ],
                                        "depth": 1,
                                        "name": "AmIYoinkZ5534023222657174543",
                                        "value": 144494
                                    },
                                    {
                                        "children": [
                                            {
                                                "children": [],
                                                "depth": 2,
                                                "name": "slot0",
                                                "value": 2696
                                            },
                                            {
                                                "children": [],
                                                "depth": 2,
                                                "name": "getReserves",
                                                "value": 2517
                                            },
                                            {
                                                "children": [
                                                    {
                                                        "children": [],
                                                        "depth": 3,
                                                        "name": "transfer",
                                                        "value": 35140
                                                    },
                                                    {
                                                        "children": [
                                                            {
                                                                "children": [
                                                                    {
                                                                        "children": [],
                                                                        "depth": 5,
                                                                        "name": "transfer",
                                                                        "value": 29962
                                                                    },
                                                                    {
                                                                        "children": [],
                                                                        "depth": 5,
                                                                        "name": "balanceOf",
                                                                        "value": 2817
                                                                    },
                                                                    {
                                                                        "children": [
                                                                            {
                                                                                "children": [],
                                                                                "depth": 6,
                                                                                "name": "token0",
                                                                                "value": 266
                                                                            },
                                                                            {
                                                                                "children": [],
                                                                                "depth": 6,
                                                                                "name": "transfer",
                                                                                "value": 7240
                                                                            }
                                                                        ],
                                                                        "depth": 5,
                                                                        "name": "uniswapV3SwapCallback",
                                                                        "value": 9473
                                                                    },
                                                                    {
                                                                        "children": [],
                                                                        "depth": 5,
                                                                        "name": "balanceOf",
                                                                        "value": 817
                                                                    }
                                                                ],
                                                                "depth": 4,
                                                                "name": "swap",
                                                                "value": 78266
                                                            }
                                                        ],
                                                        "depth": 3,
                                                        "name": "uniswapV2Call",
                                                        "value": 79873
                                                    }
                                                ],
                                                "depth": 2,
                                                "name": "swap",
                                                "value": 129390
                                            }
                                        ],
                                        "depth": 1,
                                        "name": "AmIYoinkZ5534023222657174543",
                                        "value": 143704
                                    }
                                ],
                                "depth": 0,
                                "name": "Executed Gas",
                                "value": 288895
                            }
                        ],
                        "depth": -1,
                        "name": "Actual Gas Used",
                        "value": 312759
                    },
                    {
                        "children": [],
                        "depth": -1,
                        "name": "Refunded Gas",
                        "value": 0
                    }
                ],
                "depth": -2,
                "name": "Total Gas",
                "value": 312759
            }
        ],
        "isConfirmed": true,
        "mainTrace": [
            {
                "children": [
                    {
                        "children": [
                            {
                                "children": [
                                    {
                                        "children": [],
                                        "depth": 2,
                                        "id": 2,
                                        "order": 2
                                    },
                                    {
                                        "children": [],
                                        "depth": 2,
                                        "id": 3,
                                        "order": 3
                                    },
                                    {
                                        "children": [
                                            {
                                                "children": [
                                                    {
                                                        "children": [],
                                                        "depth": 4,
                                                        "id": 6,
                                                        "order": 6
                                                    }
                                                ],
                                                "depth": 3,
                                                "id": 5,
                                                "order": 5
                                            },
                                            {
                                                "children": [
                                                    {
                                                        "children": [
                                                            {
                                                                "children": [
                                                                    {
                                                                        "children": [],
                                                                        "depth": 6,
                                                                        "id": 10,
                                                                        "order": 10
                                                                    }
                                                                ],
                                                                "depth": 5,
                                                                "id": 9,
                                                                "order": 9
                                                            },
                                                            {
                                                                "children": [],
                                                                "depth": 5,
                                                                "id": 11,
                                                                "order": 11
                                                            },
                                                            {
                                                                "children": [
                                                                    {
                                                                        "children": [],
                                                                        "depth": 6,
                                                                        "id": 13,
                                                                        "order": 13
                                                                    },
                                                                    {
                                                                        "children": [
                                                                            {
                                                                                "children": [],
                                                                                "depth": 7,
                                                                                "id": 15,
                                                                                "order": 15
                                                                            }
                                                                        ],
                                                                        "depth": 6,
                                                                        "id": 14,
                                                                        "order": 14
                                                                    }
                                                                ],
                                                                "depth": 5,
                                                                "id": 12,
                                                                "order": 12
                                                            },
                                                            {
                                                                "children": [],
                                                                "depth": 5,
                                                                "id": 16,
                                                                "order": 16
                                                            },
                                                            {
                                                                "children": [],
                                                                "depth": 5,
                                                                "id": 17,
                                                                "order": 17
                                                            }
                                                        ],
                                                        "depth": 4,
                                                        "id": 8,
                                                        "order": 8
                                                    }
                                                ],
                                                "depth": 3,
                                                "id": 7,
                                                "order": 7
                                            }
                                        ],
                                        "depth": 2,
                                        "id": 4,
                                        "order": 4
                                    }
                                ],
                                "depth": 1,
                                "id": 1,
                                "order": 1
                            },
                            {
                                "children": [
                                    {
                                        "children": [],
                                        "depth": 2,
                                        "id": 19,
                                        "order": 19
                                    },
                                    {
                                        "children": [],
                                        "depth": 2,
                                        "id": 20,
                                        "order": 20
                                    },
                                    {
                                        "children": [
                                            {
                                                "children": [
                                                    {
                                                        "children": [],
                                                        "depth": 4,
                                                        "id": 23,
                                                        "order": 23
                                                    }
                                                ],
                                                "depth": 3,
                                                "id": 22,
                                                "order": 22
                                            },
                                            {
                                                "children": [
                                                    {
                                                        "children": [
                                                            {
                                                                "children": [
                                                                    {
                                                                        "children": [],
                                                                        "depth": 6,
                                                                        "id": 27,
                                                                        "order": 27
                                                                    }
                                                                ],
                                                                "depth": 5,
                                                                "id": 26,
                                                                "order": 26
                                                            },
                                                            {
                                                                "children": [],
                                                                "depth": 5,
                                                                "id": 28,
                                                                "order": 28
                                                            },
                                                            {
                                                                "children": [
                                                                    {
                                                                        "children": [],
                                                                        "depth": 6,
                                                                        "id": 30,
                                                                        "order": 30
                                                                    },
                                                                    {
                                                                        "children": [
                                                                            {
                                                                                "children": [],
                                                                                "depth": 7,
                                                                                "id": 32,
                                                                                "order": 32
                                                                            }
                                                                        ],
                                                                        "depth": 6,
                                                                        "id": 31,
                                                                        "order": 31
                                                                    }
                                                                ],
                                                                "depth": 5,
                                                                "id": 29,
                                                                "order": 29
                                                            },
                                                            {
                                                                "children": [],
                                                                "depth": 5,
                                                                "id": 33,
                                                                "order": 33
                                                            },
                                                            {
                                                                "children": [],
                                                                "depth": 5,
                                                                "id": 34,
                                                                "order": 34
                                                            }
                                                        ],
                                                        "depth": 4,
                                                        "id": 25,
                                                        "order": 25
                                                    }
                                                ],
                                                "depth": 3,
                                                "id": 24,
                                                "order": 24
                                            }
                                        ],
                                        "depth": 2,
                                        "id": 21,
                                        "order": 21
                                    }
                                ],
                                "depth": 1,
                                "id": 18,
                                "order": 18
                            }
                        ],
                        "depth": 0,
                        "id": 0,
                        "order": 0
                    }
                ],
                "depth": -1,
                "id": -1,
                "order": -1
            }
        ],
        "mainTraceNodeCount": 35,
        "parentIdMap": {
            "0": -1,
            "1": 0,
            "10": 9,
            "11": 8,
            "12": 8,
            "13": 12,
            "14": 12,
            "15": 14,
            "16": 8,
            "17": 8,
            "18": 0,
            "19": 18,
            "2": 1,
            "20": 18,
            "21": 18,
            "22": 21,
            "23": 22,
            "24": 21,
            "25": 24,
            "26": 25,
            "27": 26,
            "28": 25,
            "29": 25,
            "3": 1,
            "30": 29,
            "31": 29,
            "32": 31,
            "33": 25,
            "34": 25,
            "4": 1,
            "5": 4,
            "6": 5,
            "7": 4,
            "8": 7,
            "9": 8
        },
        "tidyTrace": [
            {
                "children": [
                    {
                        "children": [
                            {
                                "children": [
                                    {
                                        "children": [
                                            {
                                                "children": [
                                                    {
                                                        "children": [],
                                                        "depth": 4,
                                                        "id": 6,
                                                        "order": 6
                                                    }
                                                ],
                                                "depth": 3,
                                                "id": 5,
                                                "order": 5
                                            },
                                            {
                                                "children": [
                                                    {
                                                        "children": [
                                                            {
                                                                "children": [
                                                                    {
                                                                        "children": [],
                                                                        "depth": 6,
                                                                        "id": 10,
                                                                        "order": 10
                                                                    }
                                                                ],
                                                                "depth": 5,
                                                                "id": 9,
                                                                "order": 9
                                                            },
                                                            {
                                                                "children": [
                                                                    {
                                                                        "children": [
                                                                            {
                                                                                "children": [],
                                                                                "depth": 7,
                                                                                "id": 15,
                                                                                "order": 15
                                                                            }
                                                                        ],
                                                                        "depth": 6,
                                                                        "id": 14,
                                                                        "order": 14
                                                                    }
                                                                ],
                                                                "depth": 5,
                                                                "id": 12,
                                                                "order": 12
                                                            },
                                                            {
                                                                "children": [],
                                                                "depth": 5,
                                                                "id": 17,
                                                                "order": 17
                                                            }
                                                        ],
                                                        "depth": 4,
                                                        "id": 8,
                                                        "order": 8
                                                    }
                                                ],
                                                "depth": 3,
                                                "id": 7,
                                                "order": 7
                                            }
                                        ],
                                        "depth": 2,
                                        "id": 4,
                                        "order": 4
                                    }
                                ],
                                "depth": 1,
                                "id": 1,
                                "order": 1
                            },
                            {
                                "children": [
                                    {
                                        "children": [
                                            {
                                                "children": [
                                                    {
                                                        "children": [],
                                                        "depth": 4,
                                                        "id": 23,
                                                        "order": 23
                                                    }
                                                ],
                                                "depth": 3,
                                                "id": 22,
                                                "order": 22
                                            },
                                            {
                                                "children": [
                                                    {
                                                        "children": [
                                                            {
                                                                "children": [
                                                                    {
                                                                        "children": [],
                                                                        "depth": 6,
                                                                        "id": 27,
                                                                        "order": 27
                                                                    }
                                                                ],
                                                                "depth": 5,
                                                                "id": 26,
                                                                "order": 26
                                                            },
                                                            {
                                                                "children": [
                                                                    {
                                                                        "children": [
                                                                            {
                                                                                "children": [],
                                                                                "depth": 7,
                                                                                "id": 32,
                                                                                "order": 32
                                                                            }
                                                                        ],
                                                                        "depth": 6,
                                                                        "id": 31,
                                                                        "order": 31
                                                                    }
                                                                ],
                                                                "depth": 5,
                                                                "id": 29,
                                                                "order": 29
                                                            },
                                                            {
                                                                "children": [],
                                                                "depth": 5,
                                                                "id": 34,
                                                                "order": 34
                                                            }
                                                        ],
                                                        "depth": 4,
                                                        "id": 25,
                                                        "order": 25
                                                    }
                                                ],
                                                "depth": 3,
                                                "id": 24,
                                                "order": 24
                                            }
                                        ],
                                        "depth": 2,
                                        "id": 21,
                                        "order": 21
                                    }
                                ],
                                "depth": 1,
                                "id": 18,
                                "order": 18
                            }
                        ],
                        "depth": 0,
                        "id": 0,
                        "order": 0
                    }
                ],
                "depth": -1,
                "id": -1,
                "order": -1
            }
        ],
        "tidyTraceNodeCount": 25
    },
    "state_change": {
        "stateChanges": []
    }
}