{
    "balance_change": {
        "balanceChanges": []
    },
    "profile": {
        "basic_info": {
            "baseFee": "5.016073779",
            "blockNumber": 20342517,
            "callData": "0xeee3b780000000000000000000000000463e6baf6abd4be3f384ca54adc7c66d2b937e5e000000000000000000000000c02aaa39b223fe8d0a0e5c4f27ead9083c756cc2000000000000000000000000000000000000000000000000016345785d8a0000000000000000000000000000000000000000000000000000001dbe0b8468fdff000000000000000000000000000000000000000000000000000000000000000400000000000000000000000000000000000000000000000000000000000000e000000000000000000000000000000000000000000000000000431a89328480000000000000000000000000000000000000000000000000000000000000000008000000000000000000000000da8324fbc7afbb13a0a12f99b5a32bda97d19f750000000000000000000000007f30bc6446d91c2945355a879271d7e51460501b0000000000000000000000002400be9fdc8a9045a8bb56dec82965cac5b8ea9f00000000000000000000000001c976ae9d96a9e83f796676b7f8a24e58664a1e0000000000000000000000006df05a8122b173480a5c5a9aaafe0b6c69485d3e000000000000000000000000f61cf87c23e92fd79b67a332b35d5ac7d070dcb20000000000000000000000004963034f57d1d4732560b696d83b4250a14ef987000000000000000000000000b0d47cd8e8390fea5b3c9f2512d026a2ce1803c6",
            "debugEnable": true,
            "errorInfo": "execution reverted",
            "eventCount": 0,
            "feeRecipient": "0x1f9090aae28b8a3dceadf281b0f12828e676c326",
            "formatValue": "0",
            "gasLimit": 2000000,
            "gasPrice": "8.116073779",
            "gasUsed": 38880,
            "intTxnCount": 1,
            "internalRevert": true,
            "internalRevertMessage": "",
            "isContractCreation": false,
            "isFlashloan": false,
            "maxFee": "100",
            "nonce": 6735,
            "overwritedBlockNumber": -1,
            "priorityFee": "3.1",
            "receiver": "0xe1f16b94e5f7df1b721f42945f72b153d3250693",
            "revertMessage": "pair",
            "sender": "0x74ea5865b17c3ae54b8c7fbfbb1dac038d949128",
            "simulationEnable": true,
            "sourceTxnHash": "0x382ad353fb4ee03096f4874c64828b62c43d758951bfe49cfdc0d1e8160f575f",
            "status": false,
            "timestamp": "2024-07-19T18:58:11Z",
            "transactionFee": "0.00031555294852752",
            "txnHash": "0x382ad353fb4ee03096f4874c64828b62c43d758951bfe49cfdc0d1e8160f575f",
            "txnIndex": 41,
            "type": 2,
            "value": "0"
        },
        "fund_flow": [],
        "token_infos": [
            {
                "address": "0xc02aaa39b223fe8d0a0e5c4f27ead9083c756cc2",
                "decimals": 18
            },
            {
                "address": "0xeeeeeeeeeeeeeeeeeeeeeeeeeeeeeeeeeeeeeeee",
                "decimals": 18
            }
        ]
    },
    "address_label": {
        "labels": [
            {
                "address": "0x0000000000000000000000000000000000000001",
                "label": "Precompiled"
            },
            {
                "address": "0x0000000000000000000000000000000000000003",
                "label": "Precompiled"
            },
            {
                "address": "0x5c69bee701ef814a2b6a3edd4b1652cb9cc5aa6f",
                "label": "Uniswap V2: Factory Contract"
            },
            {
                "address": "0x0000000000000000000000000000000000000000",
                "label": "Null Address"
            },
            {
                "address": "0x463e6baf6abd4be3f384ca54adc7c66d2b937e5e",
                "label": "SOL"
            },
            {
                "address": "0x0000000000000000000000000000000000000002",
                "label": "Precompiled"
            },
            {
                "address": "0x0000000000000000000000000000000000000004",
                "label": "Precompiled"
            },
            {
                "address": "0xeeeeeeeeeeeeeeeeeeeeeeeeeeeeeeeeeeeeeeee",
                "label": "Ether"
            },
            {
                "address": "0xc02aaa39b223fe8d0a0e5c4f27ead9083c756cc2",
                "label": "Wrapped Ether (WETH)"
            }
        ]
    },
    "trace": {
        "accountLabels": null,
        "dataMap": {
            "-1": {
                "invocation": {
                    "address": "0x74ea5865b17c3ae54b8c7fbfbb1dac038d949128",
                    "callData": "",
                    "decodedMethod": null,
                    "errorInfo": "",
                    "fromAddress": "",
                    "gasUsed": 0,
                    "id": -1,
                    "methodDecoded": false,
                    "operation": "",
                    "output": "",
                    "revert": false,
                    "revertMessage": "",
                    "selector": "",
                    "status": false,
                    "value": ""
                },
                "nodeType": 0
            },
            "0": {
                "invocation": {
                    "address": "0xe1f16b94e5f7df1b721f42945f72b153d3250693",
                    "callData": "0x000000000000000000000000463e6baf6abd4be3f384ca54adc7c66d2b937e5e000000000000000000000000c02aaa39b223fe8d0a0e5c4f27ead9083c756cc2000000000000000000000000000000000000000000000000016345785d8a0000000000000000000000000000000000000000000000000000001dbe0b8468fdff000000000000000000000000000000000000000000000000000000000000000400000000000000000000000000000000000000000000000000000000000000e000000000000000000000000000000000000000000000000000431a89328480000000000000000000000000000000000000000000000000000000000000000008000000000000000000000000da8324fbc7afbb13a0a12f99b5a32bda97d19f750000000000000000000000007f30bc6446d91c2945355a879271d7e51460501b0000000000000000000000002400be9fdc8a9045a8bb56dec82965cac5b8ea9f00000000000000000000000001c976ae9d96a9e83f796676b7f8a24e58664a1e0000000000000000000000006df05a8122b173480a5c5a9aaafe0b6c69485d3e000000000000000000000000f61cf87c23e92fd79b67a332b35d5ac7d070dcb20000000000000000000000004963034f57d1d4732560b696d83b4250a14ef987000000000000000000000000b0d47cd8e8390fea5b3c9f2512d026a2ce1803c6",
                    "decodedMethod": null,
                    "errorInfo": "execution reverted",
                    "fromAddress": "0x74ea5865b17c3ae54b8c7fbfbb1dac038d949128",
                    "gasUsed": 38880,
                    "id": 0,
                    "methodDecoded": false,
                    "operation": "CALL",
                    "output": "0x08c379a0000000000000000000000000000000000000000000000000000000000000002000000000000000000000000000000000000000000000000000000000000000047061697200000000000000000000000000000000000000000000000000000000",
                    "revert": true,
                    "revertMessage": "pair",
                    "selector": "0xeee3b780",
                    "status": false,
                    "value": "0"
                },
                "nodeType": 0
            },
            "1": {
                "invocation": {
                    "address": "0x5c69bee701ef814a2b6a3edd4b1652cb9cc5aa6f",
                    "callData": "0x000000000000000000000000463e6baf6abd4be3f384ca54adc7c66d2b937e5e000000000000000000000000c02aaa39b223fe8d0a0e5c4f27ead9083c756cc2",
                    "decodedMethod": {
                        "callParams": [
                            {
                                "name": "",
                                "type": "address",
                                "value": "0x463e6baf6abd4be3f384ca54adc7c66d2b937e5e"
                            },
                            {
                                "name": "",
                                "type": "address",
                                "value": "0xc02aaa39b223fe8d0a0e5c4f27ead9083c756cc2"
                            }
                        ],
                        "constructorArguments": "",
                        "name": "getPair",
                        "returnParams": [
                            {
                                "name": "",
                                "type": "address",
                                "value": "0x0000000000000000000000000000000000000000"
                            }
                        ],
                        "signature": "getPair(address,address)"
                    },
                    "errorInfo": "",
                    "fromAddress": "0xe1f16b94e5f7df1b721f42945f72b153d3250693",
                    "gasUsed": 2564,
                    "id": 1,
                    "methodDecoded": true,
                    "operation": "STATICCALL",
                    "output": "0x0000000000000000000000000000000000000000000000000000000000000000",
                    "revert": true,
                    "revertMessage": "",
                    "selector": "0xe6a43905",
                    "status": true,
                    "value": "0"
                },
                "nodeType": 0
            }
        },
        "gasFlame": [
            {
                "children": [
                    {
                        "children": [
                            {
                                "children": [],
                                "depth": 0,
                                "name": "Initial Gas",
                                "value": 25764
                            },
                            {
                                "children": [
                                    {
                                        "children": [],
                                        "depth": 1,
                                        "name": "getPair",
                                        "value": 2564
                                    }
                                ],
                                "depth": 0,
                                "name": "Executed Gas",
                                "value": 13116
                            }
                        ],
                        "depth": -1,
                        "name": "Actual Gas Used",
                        "value": 38880
                    },
                    {
                        "children": [],
                        "depth": -1,
                        "name": "Refunded Gas",
                        "value": 0
                    }
                ],
                "depth": -2,
                "name": "Total Gas",
                "value": 38880
            }
        ],
        "isConfirmed": true,
        "mainTrace": [
            {
                "children": [
                    {
                        "children": [
                            {
                                "children": [],
                                "depth": 1,
                                "id": 1,
                                "order": 1
                            }
                        ],
                        "depth": 0,
                        "id": 0,
                        "order": 0
                    }
                ],
                "depth": -1,
                "id": -1,
                "order": -1
            }
        ],
        "mainTraceNodeCount": 2,
        "parentIdMap": {
            "0": -1,
            "1": 0
        },
        "tidyTrace": [
            {
                "children": [
                    {
                        "children": [],
                        "depth": 0,
                        "id": 0,
                        "order": 0
                    }
                ],
                "depth": -1,
                "id": -1,
                "order": -1
            }
        ],
        "tidyTraceNodeCount": 1
    },
    "state_change": {
        "stateChanges": []
    }
}