{
    "balance_change": {
        "balanceChanges": [
            {
                "account": "0xd4a69440c5831b30d0ddcdfba8c4aa2ab5cd9b36",
                "assets": [
                    {
                        "address": "0x9b9647431632af44be02ddd22477ed94d14aacaa",
                        "amount": "142.85714285",
                        "iconUrl": "",
                        "isERC1155": false,
                        "isERC721": false,
                        "sign": false,
                        "value": ""
                    }
                ]
            },
            {
                "account": "0xa1d8d972560c2f8144af871db508f0b0b10a3fbf",
                "assets": [
                    {
                        "address": "0x9b9647431632af44be02ddd22477ed94d14aacaa",
                        "amount": "142.85714285",
                        "iconUrl": "",
                        "isERC1155": false,
                        "isERC721": false,
                        "sign": true,
                        "value": ""
                    }
                ]
            }
        ]
    },
    "profile": {
        "basic_info": {
            "baseFee": "45.477338117",
            "blockNumber": 14295288,
            "callData": "0xa9059cbb000000000000000000000000a1d8d972560c2f8144af871db508f0b0b10a3fbf000000000000000000000000000000000000000000000007be8a8688517c1400",
            "debugEnable": true,
            "errorInfo": "",
            "eventCount": 1,
            "feeRecipient": "0xea674fdde714fd979de3edf0f56aa9716b898ec8",
            "formatValue": "0",
            "gasLimit": 111954,
            "gasPrice": "49.179920534",
            "gasUsed": 36515,
            "intTxnCount": 0,
            "internalRevert": false,
            "internalRevertMessage": "",
            "isContractCreation": false,
            "isFlashloan": false,
            "maxFee": "",
            "nonce": 8,
            "overwritedBlockNumber": -1,
            "priorityFee": "",
            "receiver": "0x9b9647431632af44be02ddd22477ed94d14aacaa",
            "revertMessage": "",
            "sender": "0xd4a69440c5831b30d0ddcdfba8c4aa2ab5cd9b36",
            "simulationEnable": true,
            "sourceTxnHash": "0x3807d824e2ea4157b811e094ad1518bdff2b7c40cc41f860b0406032c080229d",
            "status": true,
            "timestamp": "2022-02-28T14:52:31Z",
            "transactionFee": "0.00179580479829901",
            "txnHash": "0x3807d824e2ea4157b811e094ad1518bdff2b7c40cc41f860b0406032c080229d",
            "txnIndex": 9,
            "type": 0,
            "value": "0"
        },
        "fund_flow": [
            {
                "amount": "142.85714285",
                "from": "0xd4a69440c5831b30d0ddcdfba8c4aa2ab5cd9b36",
                "id": 1,
                "isERC1155": false,
                "isERC721": false,
                "isReverted": false,
                "order": 1,
                "to": "0xa1d8d972560c2f8144af871db508f0b0b10a3fbf",
                "token": "0x9b9647431632af44be02ddd22477ed94d14aacaa"
            }
        ],
        "token_infos": [
            {
                "address": "0xc02aaa39b223fe8d0a0e5c4f27ead9083c756cc2",
                "decimals": 18
            },
            {
                "address": "0xeeeeeeeeeeeeeeeeeeeeeeeeeeeeeeeeeeeeeeee",
                "decimals": 18
            },
            {
                "address": "0x9b9647431632af44be02ddd22477ed94d14aacaa",
                "decimals": 18
            }
        ]
    },
    "address_label": {
        "labels": [
            {
                "address": "0x0000000000000000000000000000000000000003",
                "label": "Precompiled"
            },
            {
                "address": "0x0000000000000000000000000000000000000004",
                "label": "Precompiled"
            },
            {
                "address": "0xeeeeeeeeeeeeeeeeeeeeeeeeeeeeeeeeeeeeeeee",
                "label": "Ether"
            },
            {
                "address": "0xa1d8d972560c2f8144af871db508f0b0b10a3fbf",
                "label": "KuCoin 3"
            },
            {
                "address": "0x9b9647431632af44be02ddd22477ed94d14aacaa",
                "label": "KOK PLAY: KOK Token"
            },
            {
                "address": "0xd4a69440c5831b30d0ddcdfba8c4aa2ab5cd9b36",
                "label": "KUCOIN"
            },
            {
                "address": "0x0000000000000000000000000000000000000001",
                "label": "Precompiled"
            },
            {
                "address": "0x0000000000000000000000000000000000000002",
                "label": "Precompiled"
            }
        ]
    },
    "trace": {
        "accountLabels": null,
        "dataMap": {
            "-1": {
                "invocation": {
                    "address": "0xd4a69440c5831b30d0ddcdfba8c4aa2ab5cd9b36",
                    "callData": "",
                    "decodedMethod": null,
                    "errorInfo": "",
                    "fromAddress": "",
                    "gasUsed": 0,
                    "id": -1,
                    "methodDecoded": false,
                    "operation": "",
                    "output": "",
                    "revert": false,
                    "revertMessage": "",
                    "selector": "",
                    "status": false,
                    "value": ""
                },
                "nodeType": 0
            },
            "0": {
                "invocation": {
                    "address": "0x9b9647431632af44be02ddd22477ed94d14aacaa",
                    "callData": "0x000000000000000000000000a1d8d972560c2f8144af871db508f0b0b10a3fbf000000000000000000000000000000000000000000000007be8a8688517c1400",
                    "decodedMethod": {
                        "callParams": [
                            {
                                "name": "_to",
                                "type": "address",
                                "value": "0xa1d8d972560c2f8144af871db508f0b0b10a3fbf"
                            },
                            {
                                "decimalAvailable": true,
                                "name": "_value",
                                "type": "uint256",
                                "value": "142,857,142,850,000,000,000"
                            }
                        ],
                        "constructorArguments": "",
                        "name": "transfer",
                        "returnParams": [
                            {
                                "name": "success",
                                "type": "bool",
                                "value": true
                            }
                        ],
                        "signature": "transfer(address,uint256)"
                    },
                    "errorInfo": "",
                    "fromAddress": "0xd4a69440c5831b30d0ddcdfba8c4aa2ab5cd9b36",
                    "gasUsed": 36515,
                    "id": 0,
                    "methodDecoded": true,
                    "operation": "CALL",
                    "output": "0x0000000000000000000000000000000000000000000000000000000000000001",
                    "revert": false,
                    "revertMessage": "",
                    "selector": "0xa9059cbb",
                    "status": true,
                    "value": "0"
                },
                "nodeType": 0
            },
            "1": {
                "event": {
                    "contract": "0x9b9647431632af44be02ddd22477ed94d14aacaa",
                    "decodedLog": {
                        "name": "Transfer",
                        "params": [
                            {
                                "name": "_from",
                                "type": "address",
                                "value": "0xd4a69440c5831b30d0ddcdfba8c4aa2ab5cd9b36"
                            },
                            {
                                "name": "_to",
                                "type": "address",
                                "value": "0xa1d8d972560c2f8144af871db508f0b0b10a3fbf"
                            },
                            {
                                "decimalAvailable": true,
                                "name": "_value",
                                "type": "uint256",
                                "value": "142,857,142,850,000,000,000"
                            }
                        ],
                        "signature": "Transfer(address,address,uint256)"
                    },
                    "id": 1,
                    "logData": "0x000000000000000000000000000000000000000000000007be8a8688517c1400",
                    "logDecoded": true,
                    "operation": "EVENT",
                    "revert": false,
                    "status": true,
                    "topics": [
                        "0xddf252ad1be2c89b69c2b068fc378daa952ba7f163c4a11628f55a4df523b3ef",
                        "0x000000000000000000000000d4a69440c5831b30d0ddcdfba8c4aa2ab5cd9b36",
                        "0x000000000000000000000000a1d8d972560c2f8144af871db508f0b0b10a3fbf"
                    ]
                },
                "nodeType": 1
            }
        },
        "gasFlame": [
            {
                "children": [
                    {
                        "children": [
                            {
                                "children": [],
                                "depth": 0,
                                "name": "Initial Gas",
                                "value": 21656
                            },
                            {
                                "children": [],
                                "depth": 0,
                                "name": "Executed Gas",
                                "value": 19659
                            }
                        ],
                        "depth": -1,
                        "name": "Actual Gas Used",
                        "value": 36515
                    },
                    {
                        "children": [],
                        "depth": -1,
                        "name": "Refunded Gas",
                        "value": 4800
                    }
                ],
                "depth": -2,
                "name": "Total Gas",
                "value": 41315
            }
        ],
        "isConfirmed": true,
        "mainTrace": [
            {
                "children": [
                    {
                        "children": [
                            {
                                "children": [],
                                "depth": 1,
                                "id": 1,
                                "order": 1
                            }
                        ],
                        "depth": 0,
                        "id": 0,
                        "order": 0
                    }
                ],
                "depth": -1,
                "id": -1,
                "order": -1
            }
        ],
        "mainTraceNodeCount": 2,
        "parentIdMap": {
            "0": -1,
            "1": 0
        },
        "tidyTrace": [
            {
                "children": [
                    {
                        "children": [
                            {
                                "children": [],
                                "depth": 1,
                                "id": 1,
                                "order": 1
                            }
                        ],
                        "depth": 0,
                        "id": 0,
                        "order": 0
                    }
                ],
                "depth": -1,
                "id": -1,
                "order": -1
            }
        ],
        "tidyTraceNodeCount": 2
    },
    "state_change": {
        "stateChanges": [
            {
                "address": "0x9b9647431632af44be02ddd22477ed94d14aacaa",
                "erc": "ERC-20",
                "slots": [
                    {
                        "current": "0x0000000000000000000000000000000000000000000000000000000000000000",
                        "key": "0xf13925f0ef0e999361c9b4219b3757fbf2c36f7174cf286afaccffb3bf885a19",
                        "prev": "0x000000000000000000000000000000000000000000000007be8a8688517c1400"
                    },
                    {
                        "current": "0x000000000000000000000000000000000000000000000557bfec6c1a39d1a600",
                        "key": "0x993efcb2b2f56d51dfad07a0ac109d62704385e3ec772f6fcaff3e2a082b062f",
                        "prev": "0x0000000000000000000000000000000000000000000005500161e591e8559200"
                    }
                ],
                "storageVariables": [
                    {
                        "name": "balances",
                        "type": "mapping(address => uint256)",
                        "value": {
                            "pairs": [
                                {
                                    "key": "0xa1d8d972560c2f8144af871db508f0b0b10a3fbf",
                                    "value": {
                                        "current": "25230528696176600000000",
                                        "prev": "25087671553326600000000",
                                        "typeTag": 1
                                    }
                                },
                                {
                                    "key": "0xd4a69440c5831b30d0ddcdfba8c4aa2ab5cd9b36",
                                    "value": {
                                        "current": "0",
                                        "prev": "142857142850000000000",
                                        "typeTag": 1
                                    }
                                }
                            ],
                            "typeTag": 4
                        }
                    }
                ]
            }
        ]
    }
}