{
    "balance_change": {
        "balanceChanges": [
            {
                "account": "0x5c1ecad0854470af20091f1d2a8be9fa7000dfcf",
                "assets": [
                    {
                        "address": "0xeeeeeeeeeeeeeeeeeeeeeeeeeeeeeeeeeeeeeeee",
                        "amount": "0.1047678026",
                        "iconUrl": "https://assets.blocksec.com/image/1663669189317-3.png",
                        "isERC1155": false,
                        "isERC721": false,
                        "sign": false,
                        "value": "219.7927333"
                    },
                    {
                        "address": "0xac8e13ecc30da7ff04b842f21a62a1fb0f10ebd5",
                        "amount": "2,460,324,153,231.840502475",
                        "iconUrl": "",
                        "isERC1155": false,
                        "isERC721": false,
                        "sign": true,
                        "value": "208.6744972"
                    }
                ]
            },
            {
                "account": "0xaba7af37dbdc67b7463917e483b55340d153928a",
                "assets": [
                    {
                        "address": "0xac8e13ecc30da7ff04b842f21a62a1fb0f10ebd5",
                        "amount": "2,460,324,153,231.840502475",
                        "iconUrl": "",
                        "isERC1155": false,
                        "isERC721": false,
                        "sign": false,
                        "value": "208.6744972"
                    },
                    {
                        "address": "0xc02aaa39b223fe8d0a0e5c4f27ead9083c756cc2",
                        "amount": "0.1047678026",
                        "iconUrl": "https://assets.blocksec.com/icon/f1cb2d02c471d545bbc7722daf3277fd852d98e63d118771af7047bd8256c516.png",
                        "isERC1155": false,
                        "isERC721": false,
                        "sign": true,
                        "value": "219.7927333"
                    }
                ]
            },
            {
                "account": "0xc02aaa39b223fe8d0a0e5c4f27ead9083c756cc2",
                "assets": [
                    {
                        "address": "0xeeeeeeeeeeeeeeeeeeeeeeeeeeeeeeeeeeeeeeee",
                        "amount": "0.1047678026",
                        "iconUrl": "https://assets.blocksec.com/image/1663669189317-3.png",
                        "isERC1155": false,
                        "isERC721": false,
                        "sign": true,
                        "value": "219.7927333"
                    },
                    {
                        "address": "0xc02aaa39b223fe8d0a0e5c4f27ead9083c756cc2",
                        "amount": "0.1047678026",
                        "iconUrl": "https://assets.blocksec.com/icon/f1cb2d02c471d545bbc7722daf3277fd852d98e63d118771af7047bd8256c516.png",
                        "isERC1155": false,
                        "isERC721": false,
                        "sign": false,
                        "value": "219.7927333"
                    }
                ]
            }
        ]
    },
    "profile": {
        "basic_info": {
            "baseFee": "",
            "blockNumber": 12812754,
            "callData": "0x7ff36ab500000000000000000000000000000000000000000000005fee0d7a9198ffd8e400000000000000000000000000000000000000000000000000000000000000800000000000000000000000005c1ecad0854470af20091f1d2a8be9fa7000dfcf0000000000000000000000000000000000000000000000000000000060ec4a2b0000000000000000000000000000000000000000000000000000000000000002000000000000000000000000c02aaa39b223fe8d0a0e5c4f27ead9083c756cc2000000000000000000000000ac8e13ecc30da7ff04b842f21a62a1fb0f10ebd5",
            "debugEnable": true,
            "errorInfo": "",
            "eventCount": 5,
            "feeRecipient": "0xea674fdde714fd979de3edf0f56aa9716b898ec8",
            "formatValue": "0.1047678026",
            "gasLimit": 179601,
            "gasPrice": "37.5",
            "gasUsed": 147912,
            "intTxnCount": 7,
            "internalRevert": false,
            "internalRevertMessage": "",
            "isContractCreation": false,
            "isFlashloan": false,
            "maxFee": "",
            "nonce": 1,
            "overwritedBlockNumber": -1,
            "priorityFee": "",
            "receiver": "0x7a250d5630b4cf539739df2c5dacb4c659f2488d",
            "revertMessage": "",
            "sender": "0x5c1ecad0854470af20091f1d2a8be9fa7000dfcf",
            "simulationEnable": true,
            "sourceTxnHash": "0x383eecb3097b323693b13605df7ca570acb588971514a38dff6ae7d6958fe847",
            "status": true,
            "timestamp": "2021-07-12T13:42:26Z",
            "transactionFee": "0.0055467",
            "txnHash": "0x383eecb3097b323693b13605df7ca570acb588971514a38dff6ae7d6958fe847",
            "txnIndex": 80,
            "type": 0,
            "value": "104767802600000000"
        },
        "fund_flow": [
            {
                "amount": "0.1047678026",
                "from": "0x5c1ecad0854470af20091f1d2a8be9fa7000dfcf",
                "id": 1,
                "isERC1155": false,
                "isERC721": false,
                "isReverted": false,
                "order": 1,
                "to": "0x7a250d5630b4cf539739df2c5dacb4c659f2488d",
                "token": "0xeeeeeeeeeeeeeeeeeeeeeeeeeeeeeeeeeeeeeeee"
            },
            {
                "amount": "0.1047678026",
                "from": "0x7a250d5630b4cf539739df2c5dacb4c659f2488d",
                "id": 2,
                "isERC1155": false,
                "isERC721": false,
                "isReverted": false,
                "order": 2,
                "to": "0xc02aaa39b223fe8d0a0e5c4f27ead9083c756cc2",
                "token": "0xeeeeeeeeeeeeeeeeeeeeeeeeeeeeeeeeeeeeeeee"
            },
            {
                "amount": "0.1047678026",
                "from": "0xc02aaa39b223fe8d0a0e5c4f27ead9083c756cc2",
                "id": 3,
                "isERC1155": false,
                "isERC721": false,
                "isReverted": false,
                "order": 3,
                "to": "0x7a250d5630b4cf539739df2c5dacb4c659f2488d",
                "token": "0xc02aaa39b223fe8d0a0e5c4f27ead9083c756cc2"
            },
            {
                "amount": "0.1047678026",
                "from": "0x7a250d5630b4cf539739df2c5dacb4c659f2488d",
                "id": 4,
                "isERC1155": false,
                "isERC721": false,
                "isReverted": false,
                "order": 4,
                "to": "0xaba7af37dbdc67b7463917e483b55340d153928a",
                "token": "0xc02aaa39b223fe8d0a0e5c4f27ead9083c756cc2"
            },
            {
                "amount": "2,460,324,153,231.840502475",
                "from": "0xaba7af37dbdc67b7463917e483b55340d153928a",
                "id": 5,
                "isERC1155": false,
                "isERC721": false,
                "isReverted": false,
                "order": 5,
                "to": "0x5c1ecad0854470af20091f1d2a8be9fa7000dfcf",
                "token": "0xac8e13ecc30da7ff04b842f21a62a1fb0f10ebd5"
            }
        ],
        "token_infos": [
            {
                "address": "0xac8e13ecc30da7ff04b842f21a62a1fb0f10ebd5",
                "decimals": 9
            },
            {
                "address": "0xc02aaa39b223fe8d0a0e5c4f27ead9083c756cc2",
                "decimals": 18
            },
            {
                "address": "0xeeeeeeeeeeeeeeeeeeeeeeeeeeeeeeeeeeeeeeee",
                "decimals": 18
            }
        ]
    },
    "address_label": {
        "labels": [
            {
                "address": "0xeeeeeeeeeeeeeeeeeeeeeeeeeeeeeeeeeeeeeeee",
                "label": "Ether"
            },
            {
                "address": "0x7a250d5630b4cf539739df2c5dacb4c659f2488d",
                "label": "Uniswap V2: Router 2"
            },
            {
                "address": "0xc02aaa39b223fe8d0a0e5c4f27ead9083c756cc2",
                "label": "Wrapped Ether (WETH)"
            },
            {
                "address": "0x0000000000000000000000000000000000000003",
                "label": "Precompiled"
            },
            {
                "address": "0x0000000000000000000000000000000000000004",
                "label": "Precompiled"
            },
            {
                "address": "0xaba7af37dbdc67b7463917e483b55340d153928a",
                "label": "Uniswap V2: BABYDOGE 38"
            },
            {
                "address": "0xac8e13ecc30da7ff04b842f21a62a1fb0f10ebd5",
                "label": "BabyDoge Coin: BABYDOGE Token"
            },
            {
                "address": "0x0000000000000000000000000000000000000001",
                "label": "Precompiled"
            },
            {
                "address": "0x0000000000000000000000000000000000000002",
                "label": "Precompiled"
            }
        ]
    },
    "trace": {
        "accountLabels": null,
        "dataMap": {
            "-1": {
                "invocation": {
                    "address": "0x5c1ecad0854470af20091f1d2a8be9fa7000dfcf",
                    "callData": "",
                    "decodedMethod": null,
                    "errorInfo": "",
                    "fromAddress": "",
                    "gasUsed": 0,
                    "id": -1,
                    "methodDecoded": false,
                    "operation": "",
                    "output": "",
                    "revert": false,
                    "revertMessage": "",
                    "selector": "",
                    "status": false,
                    "value": ""
                },
                "nodeType": 0
            },
            "0": {
                "invocation": {
                    "address": "0x7a250d5630b4cf539739df2c5dacb4c659f2488d",
                    "callData": "0x00000000000000000000000000000000000000000000005fee0d7a9198ffd8e400000000000000000000000000000000000000000000000000000000000000800000000000000000000000005c1ecad0854470af20091f1d2a8be9fa7000dfcf0000000000000000000000000000000000000000000000000000000060ec4a2b0000000000000000000000000000000000000000000000000000000000000002000000000000000000000000c02aaa39b223fe8d0a0e5c4f27ead9083c756cc2000000000000000000000000ac8e13ecc30da7ff04b842f21a62a1fb0f10ebd5",
                    "decodedMethod": {
                        "callParams": [
                            {
                                "name": "amountOutMin",
                                "type": "uint256",
                                "value": "1,769,594,188,323,887,241,444"
                            },
                            {
                                "name": "path",
                                "type": "address[]",
                                "value": [
                                    "0xc02aaa39b223fe8d0a0e5c4f27ead9083c756cc2",
                                    "0xac8e13ecc30da7ff04b842f21a62a1fb0f10ebd5"
                                ]
                            },
                            {
                                "name": "to",
                                "type": "address",
                                "value": "0x5c1ecad0854470af20091f1d2a8be9fa7000dfcf"
                            },
                            {
                                "name": "deadline",
                                "type": "uint256",
                                "value": "1,626,098,219"
                            }
                        ],
                        "constructorArguments": "",
                        "name": "swapExactETHForTokens",
                        "returnParams": [
                            {
                                "name": "amounts",
                                "type": "uint256[]",
                                "value": [
                                    "104,767,802,600,000,000",
                                    "2,510,534,850,236,571,941,301"
                                ]
                            }
                        ],
                        "signature": "swapExactETHForTokens(uint256,address[],address,uint256)"
                    },
                    "errorInfo": "",
                    "fromAddress": "0x5c1ecad0854470af20091f1d2a8be9fa7000dfcf",
                    "gasUsed": 147912,
                    "id": 0,
                    "methodDecoded": true,
                    "operation": "CALL",
                    "output": "0x00000000000000000000000000000000000000000000000000000000000000200000000000000000000000000000000000000000000000000000000000000002000000000000000000000000000000000000000000000000017435c2e9df0a0000000000000000000000000000000000000000000000008818ab80e80d5f79b5",
                    "revert": false,
                    "revertMessage": "",
                    "selector": "0x7ff36ab5",
                    "status": true,
                    "value": "0.1047678026"
                },
                "nodeType": 0
            },
            "1": {
                "invocation": {
                    "address": "0xaba7af37dbdc67b7463917e483b55340d153928a",
                    "callData": "0x",
                    "decodedMethod": {
                        "callParams": [],
                        "constructorArguments": "",
                        "name": "getReserves",
                        "returnParams": [
                            {
                                "name": "_reserve0",
                                "type": "uint112",
                                "value": "193,188,545,364,281,456,739,460"
                            },
                            {
                                "name": "_reserve1",
                                "type": "uint112",
                                "value": "7,933,363,448,558,493,139"
                            },
                            {
                                "name": "_blockTimestampLast",
                                "type": "uint32",
                                "value": "1,626,097,323"
                            }
                        ],
                        "signature": "getReserves()"
                    },
                    "errorInfo": "",
                    "fromAddress": "0x7a250d5630b4cf539739df2c5dacb4c659f2488d",
                    "gasUsed": 2504,
                    "id": 1,
                    "methodDecoded": true,
                    "operation": "STATICCALL",
                    "output": "0x0000000000000000000000000000000000000000000028e8c5a3b408717a44840000000000000000000000000000000000000000000000006e18f80611659dd30000000000000000000000000000000000000000000000000000000060ec46ab",
                    "revert": false,
                    "revertMessage": "",
                    "selector": "0x0902f1ac",
                    "status": true,
                    "value": "0"
                },
                "nodeType": 0
            },
            "10": {
                "invocation": {
                    "address": "0xc02aaa39b223fe8d0a0e5c4f27ead9083c756cc2",
                    "callData": "0x000000000000000000000000aba7af37dbdc67b7463917e483b55340d153928a",
                    "decodedMethod": {
                        "callParams": [
                            {
                                "name": "",
                                "type": "address",
                                "value": "0xaba7af37dbdc67b7463917e483b55340d153928a"
                            }
                        ],
                        "constructorArguments": "",
                        "name": "balanceOf",
                        "returnParams": [
                            {
                                "decimalAvailable": true,
                                "name": "",
                                "type": "uint256",
                                "value": "8,038,131,251,158,493,139"
                            }
                        ],
                        "signature": "balanceOf(address)"
                    },
                    "errorInfo": "",
                    "fromAddress": "0xaba7af37dbdc67b7463917e483b55340d153928a",
                    "gasUsed": 534,
                    "id": 10,
                    "methodDecoded": true,
                    "operation": "STATICCALL",
                    "output": "0x0000000000000000000000000000000000000000000000006f8d2dc8fb44a7d3",
                    "revert": false,
                    "revertMessage": "",
                    "selector": "0x70a08231",
                    "status": true,
                    "value": "0"
                },
                "nodeType": 0
            },
            "11": {
                "event": {
                    "contract": "0xaba7af37dbdc67b7463917e483b55340d153928a",
                    "decodedLog": {
                        "name": "Sync",
                        "params": [
                            {
                                "name": "reserve0",
                                "type": "uint112",
                                "value": "190,687,585,070,601,428,716,748"
                            },
                            {
                                "name": "reserve1",
                                "type": "uint112",
                                "value": "8,038,131,251,158,493,139"
                            }
                        ],
                        "signature": "Sync(uint112,uint112)"
                    },
                    "id": 11,
                    "logData": "0x00000000000000000000000000000000000000000000286131d7db9626cacccc0000000000000000000000000000000000000000000000006f8d2dc8fb44a7d3",
                    "logDecoded": true,
                    "operation": "EVENT",
                    "revert": false,
                    "status": true,
                    "topics": [
                        "0x1c411e9a96e071241c2f21f7726b17ae89e3cab4c78be50e062b03a9fffbbad1"
                    ]
                },
                "nodeType": 1
            },
            "12": {
                "event": {
                    "contract": "0xaba7af37dbdc67b7463917e483b55340d153928a",
                    "decodedLog": {
                        "name": "Swap",
                        "params": [
                            {
                                "name": "sender",
                                "type": "address",
                                "value": "0x7a250d5630b4cf539739df2c5dacb4c659f2488d"
                            },
                            {
                                "name": "to",
                                "type": "address",
                                "value": "0x5c1ecad0854470af20091f1d2a8be9fa7000dfcf"
                            },
                            {
                                "name": "amount0In",
                                "type": "uint256",
                                "value": "9,574,556,556,543,918,589"
                            },
                            {
                                "name": "amount1In",
                                "type": "uint256",
                                "value": "104,767,802,600,000,000"
                            },
                            {
                                "name": "amount0Out",
                                "type": "uint256",
                                "value": "2,510,534,850,236,571,941,301"
                            },
                            {
                                "name": "amount1Out",
                                "type": "uint256",
                                "value": "0"
                            }
                        ],
                        "signature": "Swap(address,uint256,uint256,uint256,uint256,address)"
                    },
                    "id": 12,
                    "logData": "0x00000000000000000000000000000000000000000000000084dfa875c2b001fd000000000000000000000000000000000000000000000000017435c2e9df0a0000000000000000000000000000000000000000000000008818ab80e80d5f79b50000000000000000000000000000000000000000000000000000000000000000",
                    "logDecoded": true,
                    "operation": "EVENT",
                    "revert": false,
                    "status": true,
                    "topics": [
                        "0xd78ad95fa46c994b6551d0da85fc275fe613ce37657fb8d5e3d130840159d822",
                        "0x0000000000000000000000007a250d5630b4cf539739df2c5dacb4c659f2488d",
                        "0x0000000000000000000000005c1ecad0854470af20091f1d2a8be9fa7000dfcf"
                    ]
                },
                "nodeType": 1
            },
            "2": {
                "invocation": {
                    "address": "0xc02aaa39b223fe8d0a0e5c4f27ead9083c756cc2",
                    "callData": "0x",
                    "decodedMethod": {
                        "callParams": [],
                        "constructorArguments": "",
                        "name": "deposit",
                        "returnParams": [],
                        "signature": "deposit()"
                    },
                    "errorInfo": "",
                    "fromAddress": "0x7a250d5630b4cf539739df2c5dacb4c659f2488d",
                    "gasUsed": 23974,
                    "id": 2,
                    "methodDecoded": true,
                    "operation": "CALL",
                    "output": "",
                    "revert": false,
                    "revertMessage": "",
                    "selector": "0xd0e30db0",
                    "status": true,
                    "value": "0.1047678026"
                },
                "nodeType": 0
            },
            "3": {
                "event": {
                    "contract": "0xc02aaa39b223fe8d0a0e5c4f27ead9083c756cc2",
                    "decodedLog": {
                        "name": "Deposit",
                        "params": [
                            {
                                "name": "dst",
                                "type": "address",
                                "value": "0x7a250d5630b4cf539739df2c5dacb4c659f2488d"
                            },
                            {
                                "name": "wad",
                                "type": "uint256",
                                "value": "104,767,802,600,000,000"
                            }
                        ],
                        "signature": "Deposit(address,uint256)"
                    },
                    "id": 3,
                    "logData": "0x000000000000000000000000000000000000000000000000017435c2e9df0a00",
                    "logDecoded": true,
                    "operation": "EVENT",
                    "revert": false,
                    "status": true,
                    "topics": [
                        "0xe1fffcc4923d04b559f4d29a8bfc6cda04eb5b0d3c460751c2402c5c5cc9109c",
                        "0x0000000000000000000000007a250d5630b4cf539739df2c5dacb4c659f2488d"
                    ]
                },
                "nodeType": 1
            },
            "4": {
                "invocation": {
                    "address": "0xc02aaa39b223fe8d0a0e5c4f27ead9083c756cc2",
                    "callData": "0x000000000000000000000000aba7af37dbdc67b7463917e483b55340d153928a000000000000000000000000000000000000000000000000017435c2e9df0a00",
                    "decodedMethod": {
                        "callParams": [
                            {
                                "name": "dst",
                                "type": "address",
                                "value": "0xaba7af37dbdc67b7463917e483b55340d153928a"
                            },
                            {
                                "decimalAvailable": true,
                                "name": "wad",
                                "type": "uint256",
                                "value": "104,767,802,600,000,000"
                            }
                        ],
                        "constructorArguments": "",
                        "name": "transfer",
                        "returnParams": [
                            {
                                "name": "",
                                "type": "bool",
                                "value": true
                            }
                        ],
                        "signature": "transfer(address,uint256)"
                    },
                    "errorInfo": "",
                    "fromAddress": "0x7a250d5630b4cf539739df2c5dacb4c659f2488d",
                    "gasUsed": 8062,
                    "id": 4,
                    "methodDecoded": true,
                    "operation": "CALL",
                    "output": "0x0000000000000000000000000000000000000000000000000000000000000001",
                    "revert": false,
                    "revertMessage": "",
                    "selector": "0xa9059cbb",
                    "status": true,
                    "value": "0"
                },
                "nodeType": 0
            },
            "5": {
                "event": {
                    "contract": "0xc02aaa39b223fe8d0a0e5c4f27ead9083c756cc2",
                    "decodedLog": {
                        "name": "Transfer",
                        "params": [
                            {
                                "name": "src",
                                "type": "address",
                                "value": "0x7a250d5630b4cf539739df2c5dacb4c659f2488d"
                            },
                            {
                                "name": "dst",
                                "type": "address",
                                "value": "0xaba7af37dbdc67b7463917e483b55340d153928a"
                            },
                            {
                                "decimalAvailable": true,
                                "name": "wad",
                                "type": "uint256",
                                "value": "104,767,802,600,000,000"
                            }
                        ],
                        "signature": "Transfer(address,address,uint256)"
                    },
                    "id": 5,
                    "logData": "0x000000000000000000000000000000000000000000000000017435c2e9df0a00",
                    "logDecoded": true,
                    "operation": "EVENT",
                    "revert": false,
                    "status": true,
                    "topics": [
                        "0xddf252ad1be2c89b69c2b068fc378daa952ba7f163c4a11628f55a4df523b3ef",
                        "0x0000000000000000000000007a250d5630b4cf539739df2c5dacb4c659f2488d",
                        "0x000000000000000000000000aba7af37dbdc67b7463917e483b55340d153928a"
                    ]
                },
                "nodeType": 1
            },
            "6": {
                "invocation": {
                    "address": "0xaba7af37dbdc67b7463917e483b55340d153928a",
                    "callData": "0x00000000000000000000000000000000000000000000008818ab80e80d5f79b500000000000000000000000000000000000000000000000000000000000000000000000000000000000000005c1ecad0854470af20091f1d2a8be9fa7000dfcf00000000000000000000000000000000000000000000000000000000000000800000000000000000000000000000000000000000000000000000000000000000",
                    "decodedMethod": {
                        "callParams": [
                            {
                                "name": "amount0Out",
                                "type": "uint256",
                                "value": "2,510,534,850,236,571,941,301"
                            },
                            {
                                "name": "amount1Out",
                                "type": "uint256",
                                "value": "0"
                            },
                            {
                                "name": "to",
                                "type": "address",
                                "value": "0x5c1ecad0854470af20091f1d2a8be9fa7000dfcf"
                            },
                            {
                                "name": "data",
                                "type": "bytes",
                                "value": "0x"
                            }
                        ],
                        "constructorArguments": "",
                        "name": "swap",
                        "returnParams": [],
                        "signature": "swap(uint256,uint256,address,bytes)"
                    },
                    "errorInfo": "",
                    "fromAddress": "0x7a250d5630b4cf539739df2c5dacb4c659f2488d",
                    "gasUsed": 93959,
                    "id": 6,
                    "methodDecoded": true,
                    "operation": "CALL",
                    "output": "",
                    "revert": false,
                    "revertMessage": "",
                    "selector": "0x022c0d9f",
                    "status": true,
                    "value": "0"
                },
                "nodeType": 0
            },
            "7": {
                "invocation": {
                    "address": "0xac8e13ecc30da7ff04b842f21a62a1fb0f10ebd5",
                    "callData": "0x0000000000000000000000005c1ecad0854470af20091f1d2a8be9fa7000dfcf00000000000000000000000000000000000000000000008818ab80e80d5f79b5",
                    "decodedMethod": {
                        "callParams": [
                            {
                                "name": "recipient",
                                "type": "address",
                                "value": "0x5c1ecad0854470af20091f1d2a8be9fa7000dfcf"
                            },
                            {
                                "decimalAvailable": true,
                                "name": "amount",
                                "type": "uint256",
                                "value": "2,510,534,850,236,571,941,301"
                            }
                        ],
                        "constructorArguments": "",
                        "name": "transfer",
                        "returnParams": [
                            {
                                "name": "",
                                "type": "bool",
                                "value": true
                            }
                        ],
                        "signature": "transfer(address,uint256)"
                    },
                    "errorInfo": "",
                    "fromAddress": "0xaba7af37dbdc67b7463917e483b55340d153928a",
                    "gasUsed": 57399,
                    "id": 7,
                    "methodDecoded": true,
                    "operation": "CALL",
                    "output": "0x0000000000000000000000000000000000000000000000000000000000000001",
                    "revert": false,
                    "revertMessage": "",
                    "selector": "0xa9059cbb",
                    "status": true,
                    "value": "0"
                },
                "nodeType": 0
            },
            "8": {
                "event": {
                    "contract": "0xac8e13ecc30da7ff04b842f21a62a1fb0f10ebd5",
                    "decodedLog": {
                        "name": "Transfer",
                        "params": [
                            {
                                "name": "from",
                                "type": "address",
                                "value": "0xaba7af37dbdc67b7463917e483b55340d153928a"
                            },
                            {
                                "name": "to",
                                "type": "address",
                                "value": "0x5c1ecad0854470af20091f1d2a8be9fa7000dfcf"
                            },
                            {
                                "decimalAvailable": true,
                                "name": "value",
                                "type": "uint256",
                                "value": "2,460,324,153,231,840,502,475"
                            }
                        ],
                        "signature": "Transfer(address,address,uint256)"
                    },
                    "id": 8,
                    "logData": "0x0000000000000000000000000000000000000000000000855fdb46022195e2cb",
                    "logDecoded": true,
                    "operation": "EVENT",
                    "revert": false,
                    "status": true,
                    "topics": [
                        "0xddf252ad1be2c89b69c2b068fc378daa952ba7f163c4a11628f55a4df523b3ef",
                        "0x000000000000000000000000aba7af37dbdc67b7463917e483b55340d153928a",
                        "0x0000000000000000000000005c1ecad0854470af20091f1d2a8be9fa7000dfcf"
                    ]
                },
                "nodeType": 1
            },
            "9": {
                "invocation": {
                    "address": "0xac8e13ecc30da7ff04b842f21a62a1fb0f10ebd5",
                    "callData": "0x000000000000000000000000aba7af37dbdc67b7463917e483b55340d153928a",
                    "decodedMethod": {
                        "callParams": [
                            {
                                "name": "account",
                                "type": "address",
                                "value": "0xaba7af37dbdc67b7463917e483b55340d153928a"
                            }
                        ],
                        "constructorArguments": "",
                        "name": "balanceOf",
                        "returnParams": [
                            {
                                "decimalAvailable": true,
                                "name": "",
                                "type": "uint256",
                                "value": "190,687,585,070,601,428,716,748"
                            }
                        ],
                        "signature": "balanceOf(address)"
                    },
                    "errorInfo": "",
                    "fromAddress": "0xaba7af37dbdc67b7463917e483b55340d153928a",
                    "gasUsed": 2206,
                    "id": 9,
                    "methodDecoded": true,
                    "operation": "STATICCALL",
                    "output": "0x00000000000000000000000000000000000000000000286131d7db9626cacccc",
                    "revert": false,
                    "revertMessage": "",
                    "selector": "0x70a08231",
                    "status": true,
                    "value": "0"
                },
                "nodeType": 0
            }
        },
        "gasFlame": [
            {
                "children": [
                    {
                        "children": [
                            {
                                "children": [],
                                "depth": 0,
                                "name": "Initial Gas",
                                "value": 22848
                            },
                            {
                                "children": [
                                    {
                                        "children": [],
                                        "depth": 1,
                                        "name": "getReserves",
                                        "value": 2504
                                    },
                                    {
                                        "children": [],
                                        "depth": 1,
                                        "name": "deposit",
                                        "value": 23974
                                    },
                                    {
                                        "children": [],
                                        "depth": 1,
                                        "name": "transfer",
                                        "value": 8062
                                    },
                                    {
                                        "children": [
                                            {
                                                "children": [],
                                                "depth": 2,
                                                "name": "transfer",
                                                "value": 57399
                                            },
                                            {
                                                "children": [],
                                                "depth": 2,
                                                "name": "balanceOf",
                                                "value": 2206
                                            },
                                            {
                                                "children": [],
                                                "depth": 2,
                                                "name": "balanceOf",
                                                "value": 534
                                            }
                                        ],
                                        "depth": 1,
                                        "name": "swap",
                                        "value": 93959
                                    }
                                ],
                                "depth": 0,
                                "name": "Executed Gas",
                                "value": 147764
                            }
                        ],
                        "depth": -1,
                        "name": "Actual Gas Used",
                        "value": 147912
                    },
                    {
                        "children": [],
                        "depth": -1,
                        "name": "Refunded Gas",
                        "value": 22700
                    }
                ],
                "depth": -2,
                "name": "Total Gas",
                "value": 170612
            }
        ],
        "isConfirmed": true,
        "mainTrace": [
            {
                "children": [
                    {
                        "children": [
                            {
                                "children": [],
                                "depth": 1,
                                "id": 1,
                                "order": 1
                            },
                            {
                                "children": [
                                    {
                                        "children": [],
                                        "depth": 2,
                                        "id": 3,
                                        "order": 3
                                    }
                                ],
                                "depth": 1,
                                "id": 2,
                                "order": 2
                            },
                            {
                                "children": [
                                    {
                                        "children": [],
                                        "depth": 2,
                                        "id": 5,
                                        "order": 5
                                    }
                                ],
                                "depth": 1,
                                "id": 4,
                                "order": 4
                            },
                            {
                                "children": [
                                    {
                                        "children": [
                                            {
                                                "children": [],
                                                "depth": 3,
                                                "id": 8,
                                                "order": 8
                                            }
                                        ],
                                        "depth": 2,
                                        "id": 7,
                                        "order": 7
                                    },
                                    {
                                        "children": [],
                                        "depth": 2,
                                        "id": 9,
                                        "order": 9
                                    },
                                    {
                                        "children": [],
                                        "depth": 2,
                                        "id": 10,
                                        "order": 10
                                    },
                                    {
                                        "children": [],
                                        "depth": 2,
                                        "id": 11,
                                        "order": 11
                                    },
                                    {
                                        "children": [],
                                        "depth": 2,
                                        "id": 12,
                                        "order": 12
                                    }
                                ],
                                "depth": 1,
                                "id": 6,
                                "order": 6
                            }
                        ],
                        "depth": 0,
                        "id": 0,
                        "order": 0
                    }
                ],
                "depth": -1,
                "id": -1,
                "order": -1
            }
        ],
        "mainTraceNodeCount": 13,
        "parentIdMap": {
            "0": -1,
            "1": 0,
            "10": 6,
            "11": 6,
            "12": 6,
            "2": 0,
            "3": 2,
            "4": 0,
            "5": 4,
            "6": 0,
            "7": 6,
            "8": 7,
            "9": 6
        },
        "tidyTrace": [
            {
                "children": [
                    {
                        "children": [
                            {
                                "children": [
                                    {
                                        "children": [],
                                        "depth": 2,
                                        "id": 3,
                                        "order": 3
                                    }
                                ],
                                "depth": 1,
                                "id": 2,
                                "order": 2
                            },
                            {
                                "children": [
                                    {
                                        "children": [],
                                        "depth": 2,
                                        "id": 5,
                                        "order": 5
                                    }
                                ],
                                "depth": 1,
                                "id": 4,
                                "order": 4
                            },
                            {
                                "children": [
                                    {
                                        "children": [
                                            {
                                                "children": [],
                                                "depth": 3,
                                                "id": 8,
                                                "order": 8
                                            }
                                        ],
                                        "depth": 2,
                                        "id": 7,
                                        "order": 7
                                    },
                                    {
                                        "children": [],
                                        "depth": 2,
                                        "id": 11,
                                        "order": 11
                                    },
                                    {
                                        "children": [],
                                        "depth": 2,
                                        "id": 12,
                                        "order": 12
                                    }
                                ],
                                "depth": 1,
                                "id": 6,
                                "order": 6
                            }
                        ],
                        "depth": 0,
                        "id": 0,
                        "order": 0
                    }
                ],
                "depth": -1,
                "id": -1,
                "order": -1
            }
        ],
        "tidyTraceNodeCount": 10
    },
    "state_change": {
        "stateChanges": [
            {
                "address": "0xaba7af37dbdc67b7463917e483b55340d153928a",
                "erc": "ERC-20",
                "slots": [
                    {
                        "current": "0x00000000000000000000000000000000000004838fd4cf05ec2dbba3db04dde2",
                        "key": "0x0000000000000000000000000000000000000000000000000000000000000009",
                        "prev": "0x0000000000000000000000000000000000000445a9aee56eb6d14d1ca0f4fdca"
                    },
                    {
                        "current": "0x000000000000000000000000000003d1057f778c624facf08acc80667f72990c",
                        "key": "0x000000000000000000000000000000000000000000000000000000000000000a",
                        "prev": "0x000000000000000000000000000003c879ad27a37528031361bc30ea7a75d966"
                    },
                    {
                        "current": "0x60ec46c20000000000006f8d2dc8fb44a7d300000000286131d7db9626cacccc",
                        "key": "0x0000000000000000000000000000000000000000000000000000000000000008",
                        "prev": "0x60ec46ab0000000000006e18f80611659dd30000000028e8c5a3b408717a4484"
                    }
                ],
                "storageVariables": [
                    {
                        "name": "reserve0",
                        "type": "uint112",
                        "value": {
                            "current": "190687585070601428716748",
                            "prev": "193188545364281456739460",
                            "typeTag": 1
                        }
                    },
                    {
                        "name": "reserve1",
                        "type": "uint112",
                        "value": {
                            "current": "8038131251158493139",
                            "prev": "7933363448558493139",
                            "typeTag": 1
                        }
                    },
                    {
                        "name": "blockTimestampLast",
                        "type": "uint32",
                        "value": {
                            "current": "1626097346",
                            "prev": "1626097323",
                            "typeTag": 1
                        }
                    },
                    {
                        "name": "price0CumulativeLast",
                        "type": "uint256",
                        "value": {
                            "current": "91553041330292634706020382596578",
                            "prev": "86648896031307581072261619449290",
                            "typeTag": 1
                        }
                    },
                    {
                        "name": "price1CumulativeLast",
                        "type": "uint256",
                        "value": {
                            "current": "332463180468165948745522618095751107090700",
                            "prev": "329555066838279357128294462087719109908838",
                            "typeTag": 1
                        }
                    }
                ]
            },
            {
                "address": "0xac8e13ecc30da7ff04b842f21a62a1fb0f10ebd5",
                "erc": "ERC-20",
                "slots": [
                    {
                        "current": "0x00000000000000000000000000000000000000000000033eaab988e429834df4",
                        "key": "0x0000000000000000000000000000000000000000000000000000000000000007",
                        "prev": "0x00000000000000000000000000000000000000000000033bf1e94dfe3db9b70a"
                    },
                    {
                        "current": "0x30124b2a912577268e2cc4b0763a3bbe169bc9d6538bd78289444a226af86c2b",
                        "key": "0x696bfdc4efe6e5add31b03cc4d76097dc1631cff2267ff45b7c1c215d65182fa",
                        "prev": "0x30b4529b1c9c2cd5675d6bf5137372f8338b7cd3c89263af1ebf27fd683bb522"
                    },
                    {
                        "current": "0x009ec9d9d05abc4a12494ddbb70dc95d394abca2450187b56423c59df9eda889",
                        "key": "0x829465fce3aab31ad06be3e0b20a17f5f2ceddff9c37a95dcb9129f3b11e2a4e",
                        "prev": "0x0000000000000000000000000000000000000000000000000000000000000000"
                    },
                    {
                        "current": "0xfc186ae6cf18c29355a37873120ef090fc5c7a41f17ad697b354115920189e4c",
                        "key": "0x0000000000000000000000000000000000000000000000000000000000000006",
                        "prev": "0xfc1ba87d8a34bbf81c8ad1dbf83a5e6de001709d217fdb0ee4ab2996236e3eba"
                    }
                ],
                "storageVariables": [
                    {
                        "name": "_tFeeTotal",
                        "type": "uint256",
                        "value": {
                            "current": "15323099595549597453812",
                            "prev": "15272888898544866014986",
                            "typeTag": 1
                        }
                    },
                    {
                        "name": "_rOwned",
                        "type": "mapping(address => uint256)",
                        "value": {
                            "pairs": [
                                {
                                    "key": "0x5c1ecad0854470af20091f1d2a8be9fa7000dfcf",
                                    "value": {
                                        "current": "280554959501399487990121768598350681799065682440991577948604854273586342025",
                                        "prev": "0",
                                        "typeTag": 1
                                    }
                                },
                                {
                                    "key": "0xaba7af37dbdc67b7463917e483b55340d153928a",
                                    "value": {
                                        "current": "21743338757742261549202251840261448810487980555985045995778709174454566022187",
                                        "prev": "22029619328662056945110537032061692533414979826554847263777185209402487715106",
                                        "typeTag": 1
                                    }
                                }
                            ],
                            "typeTag": 4
                        }
                    },
                    {
                        "name": "_rTotal",
                        "type": "uint256",
                        "value": {
                            "current": "114025979980248134411945965893563611875873297566019409656357827059274732838476",
                            "prev": "114031705591666530319864129316765504917001231154148219346407698239949068189370",
                            "typeTag": 1
                        }
                    }
                ]
            },
            {
                "address": "0xc02aaa39b223fe8d0a0e5c4f27ead9083c756cc2",
                "erc": "ERC-20",
                "slots": [
                    {
                        "current": "0x0000000000000000000000000000000000000000000000006f8d2dc8fb44a7d3",
                        "key": "0x022dddfc48e56a711ac7a4e03a5869c5b273f5381f1589b6c456bd51267925cc",
                        "prev": "0x0000000000000000000000000000000000000000000000006e18f80611659dd3"
                    }
                ],
                "storageVariables": [
                    {
                        "name": "balanceOf",
                        "type": "mapping(address => uint256)",
                        "value": {
                            "pairs": [
                                {
                                    "key": "0xaba7af37dbdc67b7463917e483b55340d153928a",
                                    "value": {
                                        "current": "8038131251158493139",
                                        "prev": "7933363448558493139",
                                        "typeTag": 1
                                    }
                                }
                            ],
                            "typeTag": 4
                        }
                    }
                ]
            }
        ]
    }
}