{
    "balance_change": {
        "balanceChanges": [
            {
                "account": "0x2a9cafc77302db551807ab43920adf2a2b727a71",
                "assets": [
                    {
                        "address": "0xcbcc0f036ed4788f63fc0fee32873d6a7487b908",
                        "amount": "104.2",
                        "iconUrl": "https://assets.blocksec.com/icon/ec49f5fe1fdef177c1f0a12ddac4132415758337a77d8d2246efdd6414530f4a.png",
                        "isERC1155": false,
                        "isERC721": false,
                        "sign": false,
                        "value": ""
                    }
                ]
            },
            {
                "account": "0x9db3f62e89fa8d862ee7f2c32efe7fcc7bec63cf",
                "assets": [
                    {
                        "address": "0xcbcc0f036ed4788f63fc0fee32873d6a7487b908",
                        "amount": "104.2",
                        "iconUrl": "https://assets.blocksec.com/icon/ec49f5fe1fdef177c1f0a12ddac4132415758337a77d8d2246efdd6414530f4a.png",
                        "isERC1155": false,
                        "isERC721": false,
                        "sign": true,
                        "value": ""
                    }
                ]
            }
        ]
    },
    "profile": {
        "basic_info": {
            "baseFee": "",
            "blockNumber": 5770603,
            "callData": "0xa9059cbb0000000000000000000000009db3f62e89fa8d862ee7f2c32efe7fcc7bec63cf000000000000000000000000000000000000000000000000000000026d149500",
            "debugEnable": true,
            "errorInfo": "",
            "eventCount": 1,
            "feeRecipient": "0xea674fdde714fd979de3edf0f56aa9716b898ec8",
            "formatValue": "0",
            "gasLimit": 65000,
            "gasPrice": "6",
            "gasUsed": 52053,
            "intTxnCount": 0,
            "internalRevert": false,
            "internalRevertMessage": "",
            "isContractCreation": false,
            "isFlashloan": false,
            "maxFee": "",
            "nonce": 1057,
            "overwritedBlockNumber": -1,
            "priorityFee": "",
            "receiver": "0xcbcc0f036ed4788f63fc0fee32873d6a7487b908",
            "revertMessage": "",
            "sender": "0x2a9cafc77302db551807ab43920adf2a2b727a71",
            "simulationEnable": true,
            "sourceTxnHash": "0x382cd32cb40d267ceae475ed9c2b9e1e11d6bc919b22f3130313da69b30eab17",
            "status": true,
            "timestamp": "2018-06-11T14:12:21Z",
            "transactionFee": "0.000312318",
            "txnHash": "0x382cd32cb40d267ceae475ed9c2b9e1e11d6bc919b22f3130313da69b30eab17",
            "txnIndex": 169,
            "type": 0,
            "value": "0"
        },
        "fund_flow": [
            {
                "amount": "104.2",
                "from": "0x2a9cafc77302db551807ab43920adf2a2b727a71",
                "id": 1,
                "isERC1155": false,
                "isERC721": false,
                "isReverted": false,
                "order": 1,
                "to": "0x9db3f62e89fa8d862ee7f2c32efe7fcc7bec63cf",
                "token": "0xcbcc0f036ed4788f63fc0fee32873d6a7487b908"
            }
        ],
        "token_infos": [
            {
                "address": "0xcbcc0f036ed4788f63fc0fee32873d6a7487b908",
                "decimals": 8
            },
            {
                "address": "0xeeeeeeeeeeeeeeeeeeeeeeeeeeeeeeeeeeeeeeee",
                "decimals": 18
            },
            {
                "address": "0xc02aaa39b223fe8d0a0e5c4f27ead9083c756cc2",
                "decimals": 18
            }
        ]
    },
    "address_label": {
        "labels": [
            {
                "address": "0xcbcc0f036ed4788f63fc0fee32873d6a7487b908",
                "label": "Humaniq Token"
            },
            {
                "address": "0x9db3f62e89fa8d862ee7f2c32efe7fcc7bec63cf",
                "label": "BITTREX"
            },
            {
                "address": "0x0000000000000000000000000000000000000001",
                "label": "Precompiled"
            },
            {
                "address": "0x0000000000000000000000000000000000000002",
                "label": "Precompiled"
            },
            {
                "address": "0x0000000000000000000000000000000000000003",
                "label": "Precompiled"
            },
            {
                "address": "0x0000000000000000000000000000000000000004",
                "label": "Precompiled"
            },
            {
                "address": "0xeeeeeeeeeeeeeeeeeeeeeeeeeeeeeeeeeeeeeeee",
                "label": "Ether"
            }
        ]
    },
    "trace": {
        "accountLabels": null,
        "dataMap": {
            "-1": {
                "invocation": {
                    "address": "0x2a9cafc77302db551807ab43920adf2a2b727a71",
                    "callData": "",
                    "decodedMethod": null,
                    "errorInfo": "",
                    "fromAddress": "",
                    "gasUsed": 0,
                    "id": -1,
                    "methodDecoded": false,
                    "operation": "",
                    "output": "",
                    "revert": false,
                    "revertMessage": "",
                    "selector": "",
                    "status": false,
                    "value": ""
                },
                "nodeType": 0
            },
            "0": {
                "invocation": {
                    "address": "0xcbcc0f036ed4788f63fc0fee32873d6a7487b908",
                    "callData": "0x0000000000000000000000009db3f62e89fa8d862ee7f2c32efe7fcc7bec63cf000000000000000000000000000000000000000000000000000000026d149500",
                    "decodedMethod": {
                        "callParams": [
                            {
                                "name": "_to",
                                "type": "address",
                                "value": "0x9db3f62e89fa8d862ee7f2c32efe7fcc7bec63cf"
                            },
                            {
                                "decimalAvailable": true,
                                "name": "_value",
                                "type": "uint256",
                                "value": "10,420,000,000"
                            }
                        ],
                        "constructorArguments": "",
                        "name": "transfer",
                        "returnParams": [
                            {
                                "name": "success",
                                "type": "bool",
                                "value": true
                            }
                        ],
                        "signature": "transfer(address,uint256)"
                    },
                    "errorInfo": "",
                    "fromAddress": "0x2a9cafc77302db551807ab43920adf2a2b727a71",
                    "gasUsed": 52053,
                    "id": 0,
                    "methodDecoded": true,
                    "operation": "CALL",
                    "output": "0x0000000000000000000000000000000000000000000000000000000000000001",
                    "revert": false,
                    "revertMessage": "",
                    "selector": "0xa9059cbb",
                    "status": true,
                    "value": "0"
                },
                "nodeType": 0
            },
            "1": {
                "event": {
                    "contract": "0xcbcc0f036ed4788f63fc0fee32873d6a7487b908",
                    "decodedLog": {
                        "name": "Transfer",
                        "params": [
                            {
                                "name": "from",
                                "type": "address",
                                "value": "0x2a9cafc77302db551807ab43920adf2a2b727a71"
                            },
                            {
                                "name": "to",
                                "type": "address",
                                "value": "0x9db3f62e89fa8d862ee7f2c32efe7fcc7bec63cf"
                            },
                            {
                                "decimalAvailable": true,
                                "name": "value",
                                "type": "uint256",
                                "value": "10,420,000,000"
                            }
                        ],
                        "signature": "Transfer(address,address,uint256)"
                    },
                    "id": 1,
                    "logData": "0x000000000000000000000000000000000000000000000000000000026d149500",
                    "logDecoded": true,
                    "operation": "EVENT",
                    "revert": false,
                    "status": true,
                    "topics": [
                        "0xddf252ad1be2c89b69c2b068fc378daa952ba7f163c4a11628f55a4df523b3ef",
                        "0x0000000000000000000000002a9cafc77302db551807ab43920adf2a2b727a71",
                        "0x0000000000000000000000009db3f62e89fa8d862ee7f2c32efe7fcc7bec63cf"
                    ]
                },
                "nodeType": 1
            }
        },
        "gasFlame": [
            {
                "children": [
                    {
                        "children": [
                            {
                                "children": [],
                                "depth": 0,
                                "name": "Initial Gas",
                                "value": 23064
                            },
                            {
                                "children": [],
                                "depth": 0,
                                "name": "Executed Gas",
                                "value": 28989
                            }
                        ],
                        "depth": -1,
                        "name": "Actual Gas Used",
                        "value": 52053
                    },
                    {
                        "children": [],
                        "depth": -1,
                        "name": "Refunded Gas",
                        "value": 0
                    }
                ],
                "depth": -2,
                "name": "Total Gas",
                "value": 52053
            }
        ],
        "isConfirmed": true,
        "mainTrace": [
            {
                "children": [
                    {
                        "children": [
                            {
                                "children": [],
                                "depth": 1,
                                "id": 1,
                                "order": 1
                            }
                        ],
                        "depth": 0,
                        "id": 0,
                        "order": 0
                    }
                ],
                "depth": -1,
                "id": -1,
                "order": -1
            }
        ],
        "mainTraceNodeCount": 2,
        "parentIdMap": {
            "0": -1,
            "1": 0
        },
        "tidyTrace": [
            {
                "children": [
                    {
                        "children": [
                            {
                                "children": [],
                                "depth": 1,
                                "id": 1,
                                "order": 1
                            }
                        ],
                        "depth": 0,
                        "id": 0,
                        "order": 0
                    }
                ],
                "depth": -1,
                "id": -1,
                "order": -1
            }
        ],
        "tidyTraceNodeCount": 2
    },
    "state_change": {
        "stateChanges": [
            {
                "address": "0xcbcc0f036ed4788f63fc0fee32873d6a7487b908",
                "erc": "ERC-20",
                "slots": [
                    {
                        "current": "0x00000000000000000000000000000000000000000000000000000eebfc3426b1",
                        "key": "0xf5c849251709ba8c41ffd909b829224333c46d8bb7306a0b12420131b1a695fe",
                        "prev": "0x00000000000000000000000000000000000000000000000000000eee6948bbb1"
                    },
                    {
                        "current": "0x000000000000000000000000000000000000000000000000000000026d149500",
                        "key": "0x49f03c500a38c653f27ce5ae0f2fae9597a9966d72b42747b2a14f9a564360c7",
                        "prev": "0x0000000000000000000000000000000000000000000000000000000000000000"
                    }
                ],
                "storageVariables": []
            }
        ]
    }
}