{
    "balance_change": {
        "balanceChanges": [
            {
                "account": "0xa1d3db5b3a84685a7b5cd662836fef35be3b6228",
                "assets": [
                    {
                        "address": "0xe3f7f1d4ae7189f30d9927f9c759e9da617f5d55",
                        "amount": "888,206.722885874134277344",
                        "iconUrl": "",
                        "isERC1155": false,
                        "isERC721": false,
                        "sign": true,
                        "value": "10.49284735"
                    },
                    {
                        "address": "0xeeeeeeeeeeeeeeeeeeeeeeeeeeeeeeeeeeeeeeee",
                        "amount": "0.007428486490611853",
                        "iconUrl": "https://assets.blocksec.com/image/1663669189317-3.png",
                        "isERC1155": false,
                        "isERC721": false,
                        "sign": false,
                        "value": "12.517816870849009257"
                    }
                ]
            },
            {
                "account": "0x27bf8b39f850750c0d4ca8bc05b7c97859be1627",
                "assets": [
                    {
                        "address": "0xc02aaa39b223fe8d0a0e5c4f27ead9083c756cc2",
                        "amount": "0.007428486490611853",
                        "iconUrl": "https://assets.blocksec.com/icon/f1cb2d02c471d545bbc7722daf3277fd852d98e63d118771af7047bd8256c516.png",
                        "isERC1155": false,
                        "isERC721": false,
                        "sign": true,
                        "value": "12.517816870849009257"
                    },
                    {
                        "address": "0xe3f7f1d4ae7189f30d9927f9c759e9da617f5d55",
                        "amount": "1,044,949.085748087216796875",
                        "iconUrl": "",
                        "isERC1155": false,
                        "isERC721": false,
                        "sign": false,
                        "value": "12.42477893"
                    }
                ]
            },
            {
                "account": "0xc02aaa39b223fe8d0a0e5c4f27ead9083c756cc2",
                "assets": [
                    {
                        "address": "0xeeeeeeeeeeeeeeeeeeeeeeeeeeeeeeeeeeeeeeee",
                        "amount": "0.007428486490611853",
                        "iconUrl": "https://assets.blocksec.com/image/1663669189317-3.png",
                        "isERC1155": false,
                        "isERC721": false,
                        "sign": true,
                        "value": "12.517816870849009257"
                    },
                    {
                        "address": "0xc02aaa39b223fe8d0a0e5c4f27ead9083c756cc2",
                        "amount": "0.007428486490611853",
                        "iconUrl": "https://assets.blocksec.com/icon/f1cb2d02c471d545bbc7722daf3277fd852d98e63d118771af7047bd8256c516.png",
                        "isERC1155": false,
                        "isERC721": false,
                        "sign": false,
                        "value": "12.517816870849009257"
                    }
                ]
            },
            {
                "account": "0xe3f7f1d4ae7189f30d9927f9c759e9da617f5d55",
                "assets": [
                    {
                        "address": "0xe3f7f1d4ae7189f30d9927f9c759e9da617f5d55",
                        "amount": "156,742.362862213082519531",
                        "iconUrl": "",
                        "isERC1155": false,
                        "isERC721": false,
                        "sign": true,
                        "value": "1.85725344"
                    }
                ]
            }
        ]
    },
    "profile": {
        "basic_info": {
            "baseFee": "33.404840193",
            "blockNumber": 18264166,
            "callData": "0xfb3bdb4100000000000000000000000000000000000000000000dd46cdae9659c0edf4cb0000000000000000000000000000000000000000000000000000000000000080000000000000000000000000a1d3db5b3a84685a7b5cd662836fef35be3b622800000000000000000000000000000000000000000000000000000000651af5fe0000000000000000000000000000000000000000000000000000000000000002000000000000000000000000c02aaa39b223fe8d0a0e5c4f27ead9083c756cc2000000000000000000000000e3f7f1d4ae7189f30d9927f9c759e9da617f5d55",
            "debugEnable": true,
            "errorInfo": "",
            "eventCount": 6,
            "feeRecipient": "0x1f9090aae28b8a3dceadf281b0f12828e676c326",
            "formatValue": "0.009657032437795409",
            "gasLimit": 341760,
            "gasPrice": "63.404840193",
            "gasUsed": 203256,
            "intTxnCount": 8,
            "internalRevert": false,
            "internalRevertMessage": "",
            "isContractCreation": false,
            "isFlashloan": false,
            "maxFee": "80.10726029",
            "nonce": 102,
            "overwritedBlockNumber": -1,
            "priorityFee": "30",
            "receiver": "0x7a250d5630b4cf539739df2c5dacb4c659f2488d",
            "revertMessage": "",
            "sender": "0xa1d3db5b3a84685a7b5cd662836fef35be3b6228",
            "simulationEnable": true,
            "sourceTxnHash": "0x397f1ba27cbab94301fa3aec77ee74811a6202ec2f8b2324d3a0b0c137df58ae",
            "status": true,
            "timestamp": "2023-10-02T16:53:35Z",
            "transactionFee": "0.012887414198268408",
            "txnHash": "0x397f1ba27cbab94301fa3aec77ee74811a6202ec2f8b2324d3a0b0c137df58ae",
            "txnIndex": 8,
            "type": 2,
            "value": "9657032437795409"
        },
        "fund_flow": [
            {
                "amount": "0.009657032437795409",
                "from": "0xa1d3db5b3a84685a7b5cd662836fef35be3b6228",
                "id": 1,
                "isERC1155": false,
                "isERC721": false,
                "isReverted": false,
                "order": 1,
                "to": "0x7a250d5630b4cf539739df2c5dacb4c659f2488d",
                "token": "0xeeeeeeeeeeeeeeeeeeeeeeeeeeeeeeeeeeeeeeee"
            },
            {
                "amount": "0.007428486490611853",
                "from": "0x7a250d5630b4cf539739df2c5dacb4c659f2488d",
                "id": 2,
                "isERC1155": false,
                "isERC721": false,
                "isReverted": false,
                "order": 2,
                "to": "0xc02aaa39b223fe8d0a0e5c4f27ead9083c756cc2",
                "token": "0xeeeeeeeeeeeeeeeeeeeeeeeeeeeeeeeeeeeeeeee"
            },
            {
                "amount": "0.007428486490611853",
                "from": "0xc02aaa39b223fe8d0a0e5c4f27ead9083c756cc2",
                "id": 3,
                "isERC1155": false,
                "isERC721": false,
                "isReverted": false,
                "order": 3,
                "to": "0x7a250d5630b4cf539739df2c5dacb4c659f2488d",
                "token": "0xc02aaa39b223fe8d0a0e5c4f27ead9083c756cc2"
            },
            {
                "amount": "0.007428486490611853",
                "from": "0x7a250d5630b4cf539739df2c5dacb4c659f2488d",
                "id": 4,
                "isERC1155": false,
                "isERC721": false,
                "isReverted": false,
                "order": 4,
                "to": "0x27bf8b39f850750c0d4ca8bc05b7c97859be1627",
                "token": "0xc02aaa39b223fe8d0a0e5c4f27ead9083c756cc2"
            },
            {
                "amount": "156,742.362862213082519531",
                "from": "0x27bf8b39f850750c0d4ca8bc05b7c97859be1627",
                "id": 5,
                "isERC1155": false,
                "isERC721": false,
                "isReverted": false,
                "order": 5,
                "to": "0xe3f7f1d4ae7189f30d9927f9c759e9da617f5d55",
                "token": "0xe3f7f1d4ae7189f30d9927f9c759e9da617f5d55"
            },
            {
                "amount": "888,206.722885874134277344",
                "from": "0x27bf8b39f850750c0d4ca8bc05b7c97859be1627",
                "id": 6,
                "isERC1155": false,
                "isERC721": false,
                "isReverted": false,
                "order": 6,
                "to": "0xa1d3db5b3a84685a7b5cd662836fef35be3b6228",
                "token": "0xe3f7f1d4ae7189f30d9927f9c759e9da617f5d55"
            },
            {
                "amount": "0.002228545947183556",
                "from": "0x7a250d5630b4cf539739df2c5dacb4c659f2488d",
                "id": 7,
                "isERC1155": false,
                "isERC721": false,
                "isReverted": false,
                "order": 7,
                "to": "0xa1d3db5b3a84685a7b5cd662836fef35be3b6228",
                "token": "0xeeeeeeeeeeeeeeeeeeeeeeeeeeeeeeeeeeeeeeee"
            }
        ],
        "token_infos": [
            {
                "address": "0xeeeeeeeeeeeeeeeeeeeeeeeeeeeeeeeeeeeeeeee",
                "decimals": 18
            },
            {
                "address": "0xc02aaa39b223fe8d0a0e5c4f27ead9083c756cc2",
                "decimals": 18
            },
            {
                "address": "0xe3f7f1d4ae7189f30d9927f9c759e9da617f5d55",
                "decimals": 18
            }
        ]
    },
    "address_label": {
        "labels": [
            {
                "address": "0x27bf8b39f850750c0d4ca8bc05b7c97859be1627",
                "label": "Uniswap V2: BABYCAL 12"
            },
            {
                "address": "0x0000000000000000000000000000000000000001",
                "label": "Precompiled"
            },
            {
                "address": "0x0000000000000000000000000000000000000002",
                "label": "Precompiled"
            },
            {
                "address": "0x0000000000000000000000000000000000000003",
                "label": "Precompiled"
            },
            {
                "address": "0x0000000000000000000000000000000000000004",
                "label": "Precompiled"
            },
            {
                "address": "0xeeeeeeeeeeeeeeeeeeeeeeeeeeeeeeeeeeeeeeee",
                "label": "Ether"
            },
            {
                "address": "0xe3f7f1d4ae7189f30d9927f9c759e9da617f5d55",
                "label": "Baby Calcium (BABYCAL)"
            },
            {
                "address": "0x7a250d5630b4cf539739df2c5dacb4c659f2488d",
                "label": "Uniswap V2: Router 2"
            },
            {
                "address": "0xc02aaa39b223fe8d0a0e5c4f27ead9083c756cc2",
                "label": "Wrapped Ether (WETH)"
            }
        ]
    },
    "trace": {
        "accountLabels": null,
        "dataMap": {
            "-1": {
                "invocation": {
                    "address": "0xa1d3db5b3a84685a7b5cd662836fef35be3b6228",
                    "callData": "",
                    "decodedMethod": null,
                    "errorInfo": "",
                    "fromAddress": "",
                    "gasUsed": 0,
                    "id": -1,
                    "methodDecoded": false,
                    "operation": "",
                    "output": "",
                    "revert": false,
                    "revertMessage": "",
                    "selector": "",
                    "status": false,
                    "value": ""
                },
                "nodeType": 0
            },
            "0": {
                "invocation": {
                    "address": "0x7a250d5630b4cf539739df2c5dacb4c659f2488d",
                    "callData": "0x00000000000000000000000000000000000000000000dd46cdae9659c0edf4cb0000000000000000000000000000000000000000000000000000000000000080000000000000000000000000a1d3db5b3a84685a7b5cd662836fef35be3b622800000000000000000000000000000000000000000000000000000000651af5fe0000000000000000000000000000000000000000000000000000000000000002000000000000000000000000c02aaa39b223fe8d0a0e5c4f27ead9083c756cc2000000000000000000000000e3f7f1d4ae7189f30d9927f9c759e9da617f5d55",
                    "decodedMethod": {
                        "callParams": [
                            {
                                "name": "amountOut",
                                "type": "uint256",
                                "value": "1,044,949,085,748,087,216,796,875"
                            },
                            {
                                "name": "path",
                                "type": "address[]",
                                "value": [
                                    "0xc02aaa39b223fe8d0a0e5c4f27ead9083c756cc2",
                                    "0xe3f7f1d4ae7189f30d9927f9c759e9da617f5d55"
                                ]
                            },
                            {
                                "name": "to",
                                "type": "address",
                                "value": "0xa1d3db5b3a84685a7b5cd662836fef35be3b6228"
                            },
                            {
                                "name": "deadline",
                                "type": "uint256",
                                "value": "1,696,265,726"
                            }
                        ],
                        "constructorArguments": "",
                        "name": "swapETHForExactTokens",
                        "returnParams": [
                            {
                                "name": "amounts",
                                "type": "uint256[]",
                                "value": [
                                    "7,428,486,490,611,853",
                                    "1,044,949,085,748,087,216,796,875"
                                ]
                            }
                        ],
                        "signature": "swapETHForExactTokens(uint256,address[],address,uint256)"
                    },
                    "errorInfo": "",
                    "fromAddress": "0xa1d3db5b3a84685a7b5cd662836fef35be3b6228",
                    "gasUsed": 203256,
                    "id": 0,
                    "methodDecoded": true,
                    "operation": "CALL",
                    "output": "0x00000000000000000000000000000000000000000000000000000000000000200000000000000000000000000000000000000000000000000000000000000002000000000000000000000000000000000000000000000000001a642b4a7de08d00000000000000000000000000000000000000000000dd46cdae9659c0edf4cb",
                    "revert": false,
                    "revertMessage": "",
                    "selector": "0xfb3bdb41",
                    "status": true,
                    "value": "0.009657032437795409"
                },
                "nodeType": 0
            },
            "1": {
                "invocation": {
                    "address": "0x27bf8b39f850750c0d4ca8bc05b7c97859be1627",
                    "callData": "0x",
                    "decodedMethod": {
                        "callParams": [],
                        "constructorArguments": "",
                        "name": "getReserves",
                        "returnParams": [
                            {
                                "name": "_reserve0",
                                "type": "uint112",
                                "value": "2,439,029,236,351,885,063"
                            },
                            {
                                "name": "_reserve1",
                                "type": "uint112",
                                "value": "345,170,278,647,110,118,880,603,670"
                            },
                            {
                                "name": "_blockTimestampLast",
                                "type": "uint32",
                                "value": "1,696,265,603"
                            }
                        ],
                        "signature": "getReserves()"
                    },
                    "errorInfo": "",
                    "fromAddress": "0x7a250d5630b4cf539739df2c5dacb4c659f2488d",
                    "gasUsed": 2504,
                    "id": 1,
                    "methodDecoded": true,
                    "operation": "STATICCALL",
                    "output": "0x00000000000000000000000000000000000000000000000021d92c2afd8bdf070000000000000000000000000000000000000000011d84a64ca0f7f514486e1600000000000000000000000000000000000000000000000000000000651af583",
                    "revert": false,
                    "revertMessage": "",
                    "selector": "0x0902f1ac",
                    "status": true,
                    "value": "0"
                },
                "nodeType": 0
            },
            "10": {
                "invocation": {
                    "address": "0xc02aaa39b223fe8d0a0e5c4f27ead9083c756cc2",
                    "callData": "0x00000000000000000000000027bf8b39f850750c0d4ca8bc05b7c97859be1627",
                    "decodedMethod": {
                        "callParams": [
                            {
                                "name": "",
                                "type": "address",
                                "value": "0x27bf8b39f850750c0d4ca8bc05b7c97859be1627"
                            }
                        ],
                        "constructorArguments": "",
                        "name": "balanceOf",
                        "returnParams": [
                            {
                                "decimalAvailable": true,
                                "name": "",
                                "type": "uint256",
                                "value": "2,446,457,722,842,496,916"
                            }
                        ],
                        "signature": "balanceOf(address)"
                    },
                    "errorInfo": "",
                    "fromAddress": "0x27bf8b39f850750c0d4ca8bc05b7c97859be1627",
                    "gasUsed": 534,
                    "id": 10,
                    "methodDecoded": true,
                    "operation": "STATICCALL",
                    "output": "0x00000000000000000000000000000000000000000000000021f390564809bf94",
                    "revert": false,
                    "revertMessage": "",
                    "selector": "0x70a08231",
                    "status": true,
                    "value": "0"
                },
                "nodeType": 0
            },
            "11": {
                "invocation": {
                    "address": "0xe3f7f1d4ae7189f30d9927f9c759e9da617f5d55",
                    "callData": "0x00000000000000000000000027bf8b39f850750c0d4ca8bc05b7c97859be1627",
                    "decodedMethod": {
                        "callParams": [
                            {
                                "name": "account",
                                "type": "address",
                                "value": "0x27bf8b39f850750c0d4ca8bc05b7c97859be1627"
                            }
                        ],
                        "constructorArguments": "",
                        "name": "balanceOf",
                        "returnParams": [
                            {
                                "decimalAvailable": true,
                                "name": "",
                                "type": "uint256",
                                "value": "344,125,329,561,362,031,663,806,795"
                            }
                        ],
                        "signature": "balanceOf(address)"
                    },
                    "errorInfo": "",
                    "fromAddress": "0x27bf8b39f850750c0d4ca8bc05b7c97859be1627",
                    "gasUsed": 931,
                    "id": 11,
                    "methodDecoded": true,
                    "operation": "STATICCALL",
                    "output": "0x0000000000000000000000000000000000000000011ca75f7ef2619b535a794b",
                    "revert": false,
                    "revertMessage": "",
                    "selector": "0x70a08231",
                    "status": true,
                    "value": "0"
                },
                "nodeType": 0
            },
            "12": {
                "event": {
                    "contract": "0x27bf8b39f850750c0d4ca8bc05b7c97859be1627",
                    "decodedLog": {
                        "name": "Sync",
                        "params": [
                            {
                                "name": "reserve0",
                                "type": "uint112",
                                "value": "2,446,457,722,842,496,916"
                            },
                            {
                                "name": "reserve1",
                                "type": "uint112",
                                "value": "344,125,329,561,362,031,663,806,795"
                            }
                        ],
                        "signature": "Sync(uint112,uint112)"
                    },
                    "id": 12,
                    "logData": "0x00000000000000000000000000000000000000000000000021f390564809bf940000000000000000000000000000000000000000011ca75f7ef2619b535a794b",
                    "logDecoded": true,
                    "operation": "EVENT",
                    "revert": false,
                    "status": true,
                    "topics": [
                        "0x1c411e9a96e071241c2f21f7726b17ae89e3cab4c78be50e062b03a9fffbbad1"
                    ]
                },
                "nodeType": 1
            },
            "13": {
                "event": {
                    "contract": "0x27bf8b39f850750c0d4ca8bc05b7c97859be1627",
                    "decodedLog": {
                        "name": "Swap",
                        "params": [
                            {
                                "name": "sender",
                                "type": "address",
                                "value": "0x7a250d5630b4cf539739df2c5dacb4c659f2488d"
                            },
                            {
                                "name": "to",
                                "type": "address",
                                "value": "0xa1d3db5b3a84685a7b5cd662836fef35be3b6228"
                            },
                            {
                                "name": "amount0In",
                                "type": "uint256",
                                "value": "7,428,486,490,611,853"
                            },
                            {
                                "name": "amount1In",
                                "type": "uint256",
                                "value": "0"
                            },
                            {
                                "name": "amount0Out",
                                "type": "uint256",
                                "value": "0"
                            },
                            {
                                "name": "amount1Out",
                                "type": "uint256",
                                "value": "1,044,949,085,748,087,216,796,875"
                            }
                        ],
                        "signature": "Swap(address,uint256,uint256,uint256,uint256,address)"
                    },
                    "id": 13,
                    "logData": "0x000000000000000000000000000000000000000000000000001a642b4a7de08d0000000000000000000000000000000000000000000000000000000000000000000000000000000000000000000000000000000000000000000000000000000000000000000000000000000000000000000000000000dd46cdae9659c0edf4cb",
                    "logDecoded": true,
                    "operation": "EVENT",
                    "revert": false,
                    "status": true,
                    "topics": [
                        "0xd78ad95fa46c994b6551d0da85fc275fe613ce37657fb8d5e3d130840159d822",
                        "0x0000000000000000000000007a250d5630b4cf539739df2c5dacb4c659f2488d",
                        "0x000000000000000000000000a1d3db5b3a84685a7b5cd662836fef35be3b6228"
                    ]
                },
                "nodeType": 1
            },
            "14": {
                "invocation": {
                    "address": "0xa1d3db5b3a84685a7b5cd662836fef35be3b6228",
                    "callData": "0x",
                    "decodedMethod": null,
                    "errorInfo": "",
                    "fromAddress": "0x7a250d5630b4cf539739df2c5dacb4c659f2488d",
                    "gasUsed": 0,
                    "id": 14,
                    "methodDecoded": false,
                    "operation": "CALL",
                    "output": "",
                    "revert": false,
                    "revertMessage": "",
                    "selector": "fallback",
                    "status": true,
                    "value": "0.002228545947183556"
                },
                "nodeType": 0
            },
            "2": {
                "invocation": {
                    "address": "0xc02aaa39b223fe8d0a0e5c4f27ead9083c756cc2",
                    "callData": "0x",
                    "decodedMethod": {
                        "callParams": [],
                        "constructorArguments": "",
                        "name": "deposit",
                        "returnParams": [],
                        "signature": "deposit()"
                    },
                    "errorInfo": "",
                    "fromAddress": "0x7a250d5630b4cf539739df2c5dacb4c659f2488d",
                    "gasUsed": 23974,
                    "id": 2,
                    "methodDecoded": true,
                    "operation": "CALL",
                    "output": "",
                    "revert": false,
                    "revertMessage": "",
                    "selector": "0xd0e30db0",
                    "status": true,
                    "value": "0.007428486490611853"
                },
                "nodeType": 0
            },
            "3": {
                "event": {
                    "contract": "0xc02aaa39b223fe8d0a0e5c4f27ead9083c756cc2",
                    "decodedLog": {
                        "name": "Deposit",
                        "params": [
                            {
                                "name": "dst",
                                "type": "address",
                                "value": "0x7a250d5630b4cf539739df2c5dacb4c659f2488d"
                            },
                            {
                                "name": "wad",
                                "type": "uint256",
                                "value": "7,428,486,490,611,853"
                            }
                        ],
                        "signature": "Deposit(address,uint256)"
                    },
                    "id": 3,
                    "logData": "0x000000000000000000000000000000000000000000000000001a642b4a7de08d",
                    "logDecoded": true,
                    "operation": "EVENT",
                    "revert": false,
                    "status": true,
                    "topics": [
                        "0xe1fffcc4923d04b559f4d29a8bfc6cda04eb5b0d3c460751c2402c5c5cc9109c",
                        "0x0000000000000000000000007a250d5630b4cf539739df2c5dacb4c659f2488d"
                    ]
                },
                "nodeType": 1
            },
            "4": {
                "invocation": {
                    "address": "0xc02aaa39b223fe8d0a0e5c4f27ead9083c756cc2",
                    "callData": "0x00000000000000000000000027bf8b39f850750c0d4ca8bc05b7c97859be1627000000000000000000000000000000000000000000000000001a642b4a7de08d",
                    "decodedMethod": {
                        "callParams": [
                            {
                                "name": "dst",
                                "type": "address",
                                "value": "0x27bf8b39f850750c0d4ca8bc05b7c97859be1627"
                            },
                            {
                                "decimalAvailable": true,
                                "name": "wad",
                                "type": "uint256",
                                "value": "7,428,486,490,611,853"
                            }
                        ],
                        "constructorArguments": "",
                        "name": "transfer",
                        "returnParams": [
                            {
                                "name": "",
                                "type": "bool",
                                "value": true
                            }
                        ],
                        "signature": "transfer(address,uint256)"
                    },
                    "errorInfo": "",
                    "fromAddress": "0x7a250d5630b4cf539739df2c5dacb4c659f2488d",
                    "gasUsed": 8062,
                    "id": 4,
                    "methodDecoded": true,
                    "operation": "CALL",
                    "output": "0x0000000000000000000000000000000000000000000000000000000000000001",
                    "revert": false,
                    "revertMessage": "",
                    "selector": "0xa9059cbb",
                    "status": true,
                    "value": "0"
                },
                "nodeType": 0
            },
            "5": {
                "event": {
                    "contract": "0xc02aaa39b223fe8d0a0e5c4f27ead9083c756cc2",
                    "decodedLog": {
                        "name": "Transfer",
                        "params": [
                            {
                                "name": "src",
                                "type": "address",
                                "value": "0x7a250d5630b4cf539739df2c5dacb4c659f2488d"
                            },
                            {
                                "name": "dst",
                                "type": "address",
                                "value": "0x27bf8b39f850750c0d4ca8bc05b7c97859be1627"
                            },
                            {
                                "decimalAvailable": true,
                                "name": "wad",
                                "type": "uint256",
                                "value": "7,428,486,490,611,853"
                            }
                        ],
                        "signature": "Transfer(address,address,uint256)"
                    },
                    "id": 5,
                    "logData": "0x000000000000000000000000000000000000000000000000001a642b4a7de08d",
                    "logDecoded": true,
                    "operation": "EVENT",
                    "revert": false,
                    "status": true,
                    "topics": [
                        "0xddf252ad1be2c89b69c2b068fc378daa952ba7f163c4a11628f55a4df523b3ef",
                        "0x0000000000000000000000007a250d5630b4cf539739df2c5dacb4c659f2488d",
                        "0x00000000000000000000000027bf8b39f850750c0d4ca8bc05b7c97859be1627"
                    ]
                },
                "nodeType": 1
            },
            "6": {
                "invocation": {
                    "address": "0x27bf8b39f850750c0d4ca8bc05b7c97859be1627",
                    "callData": "0x000000000000000000000000000000000000000000000000000000000000000000000000000000000000000000000000000000000000dd46cdae9659c0edf4cb000000000000000000000000a1d3db5b3a84685a7b5cd662836fef35be3b622800000000000000000000000000000000000000000000000000000000000000800000000000000000000000000000000000000000000000000000000000000000",
                    "decodedMethod": {
                        "callParams": [
                            {
                                "name": "amount0Out",
                                "type": "uint256",
                                "value": "0"
                            },
                            {
                                "name": "amount1Out",
                                "type": "uint256",
                                "value": "1,044,949,085,748,087,216,796,875"
                            },
                            {
                                "name": "to",
                                "type": "address",
                                "value": "0xa1d3db5b3a84685a7b5cd662836fef35be3b6228"
                            },
                            {
                                "name": "data",
                                "type": "bytes",
                                "value": "0x"
                            }
                        ],
                        "constructorArguments": "",
                        "name": "swap",
                        "returnParams": [],
                        "signature": "swap(uint256,uint256,address,bytes)"
                    },
                    "errorInfo": "",
                    "fromAddress": "0x7a250d5630b4cf539739df2c5dacb4c659f2488d",
                    "gasUsed": 141946,
                    "id": 6,
                    "methodDecoded": true,
                    "operation": "CALL",
                    "output": "",
                    "revert": false,
                    "revertMessage": "",
                    "selector": "0x022c0d9f",
                    "status": true,
                    "value": "0"
                },
                "nodeType": 0
            },
            "7": {
                "invocation": {
                    "address": "0xe3f7f1d4ae7189f30d9927f9c759e9da617f5d55",
                    "callData": "0x000000000000000000000000a1d3db5b3a84685a7b5cd662836fef35be3b622800000000000000000000000000000000000000000000dd46cdae9659c0edf4cb",
                    "decodedMethod": {
                        "callParams": [
                            {
                                "name": "recipient",
                                "type": "address",
                                "value": "0xa1d3db5b3a84685a7b5cd662836fef35be3b6228"
                            },
                            {
                                "decimalAvailable": true,
                                "name": "amount",
                                "type": "uint256",
                                "value": "1,044,949,085,748,087,216,796,875"
                            }
                        ],
                        "constructorArguments": "",
                        "name": "transfer",
                        "returnParams": [
                            {
                                "name": "",
                                "type": "bool",
                                "value": true
                            }
                        ],
                        "signature": "transfer(address,uint256)"
                    },
                    "errorInfo": "",
                    "fromAddress": "0x27bf8b39f850750c0d4ca8bc05b7c97859be1627",
                    "gasUsed": 106658,
                    "id": 7,
                    "methodDecoded": true,
                    "operation": "CALL",
                    "output": "0x0000000000000000000000000000000000000000000000000000000000000001",
                    "revert": false,
                    "revertMessage": "",
                    "selector": "0xa9059cbb",
                    "status": true,
                    "value": "0"
                },
                "nodeType": 0
            },
            "8": {
                "event": {
                    "contract": "0xe3f7f1d4ae7189f30d9927f9c759e9da617f5d55",
                    "decodedLog": {
                        "name": "Transfer",
                        "params": [
                            {
                                "name": "from",
                                "type": "address",
                                "value": "0x27bf8b39f850750c0d4ca8bc05b7c97859be1627"
                            },
                            {
                                "name": "to",
                                "type": "address",
                                "value": "0xe3f7f1d4ae7189f30d9927f9c759e9da617f5d55"
                            },
                            {
                                "decimalAvailable": true,
                                "name": "value",
                                "type": "uint256",
                                "value": "156,742,362,862,213,082,519,531"
                            }
                        ],
                        "signature": "Transfer(address,address,uint256)"
                    },
                    "id": 8,
                    "logData": "0x0000000000000000000000000000000000000000000021310540968d768a17eb",
                    "logDecoded": true,
                    "operation": "EVENT",
                    "revert": false,
                    "status": true,
                    "topics": [
                        "0xddf252ad1be2c89b69c2b068fc378daa952ba7f163c4a11628f55a4df523b3ef",
                        "0x00000000000000000000000027bf8b39f850750c0d4ca8bc05b7c97859be1627",
                        "0x000000000000000000000000e3f7f1d4ae7189f30d9927f9c759e9da617f5d55"
                    ]
                },
                "nodeType": 1
            },
            "9": {
                "event": {
                    "contract": "0xe3f7f1d4ae7189f30d9927f9c759e9da617f5d55",
                    "decodedLog": {
                        "name": "Transfer",
                        "params": [
                            {
                                "name": "from",
                                "type": "address",
                                "value": "0x27bf8b39f850750c0d4ca8bc05b7c97859be1627"
                            },
                            {
                                "name": "to",
                                "type": "address",
                                "value": "0xa1d3db5b3a84685a7b5cd662836fef35be3b6228"
                            },
                            {
                                "decimalAvailable": true,
                                "name": "value",
                                "type": "uint256",
                                "value": "888,206,722,885,874,134,277,344"
                            }
                        ],
                        "signature": "Transfer(address,address,uint256)"
                    },
                    "id": 9,
                    "logData": "0x00000000000000000000000000000000000000000000bc15c86dffcc4a63dce0",
                    "logDecoded": true,
                    "operation": "EVENT",
                    "revert": false,
                    "status": true,
                    "topics": [
                        "0xddf252ad1be2c89b69c2b068fc378daa952ba7f163c4a11628f55a4df523b3ef",
                        "0x00000000000000000000000027bf8b39f850750c0d4ca8bc05b7c97859be1627",
                        "0x000000000000000000000000a1d3db5b3a84685a7b5cd662836fef35be3b6228"
                    ]
                },
                "nodeType": 1
            }
        },
        "gasFlame": [
            {
                "children": [
                    {
                        "children": [
                            {
                                "children": [],
                                "depth": 0,
                                "name": "Initial Gas",
                                "value": 22872
                            },
                            {
                                "children": [
                                    {
                                        "children": [],
                                        "depth": 1,
                                        "name": "getReserves",
                                        "value": 2504
                                    },
                                    {
                                        "children": [],
                                        "depth": 1,
                                        "name": "deposit",
                                        "value": 23974
                                    },
                                    {
                                        "children": [],
                                        "depth": 1,
                                        "name": "transfer",
                                        "value": 8062
                                    },
                                    {
                                        "children": [
                                            {
                                                "children": [],
                                                "depth": 2,
                                                "name": "transfer",
                                                "value": 106658
                                            },
                                            {
                                                "children": [],
                                                "depth": 2,
                                                "name": "balanceOf",
                                                "value": 534
                                            },
                                            {
                                                "children": [],
                                                "depth": 2,
                                                "name": "balanceOf",
                                                "value": 931
                                            }
                                        ],
                                        "depth": 1,
                                        "name": "swap",
                                        "value": 141946
                                    },
                                    {
                                        "children": [],
                                        "depth": 1,
                                        "name": "fallback",
                                        "value": 0
                                    }
                                ],
                                "depth": 0,
                                "name": "Executed Gas",
                                "value": 203084
                            }
                        ],
                        "depth": -1,
                        "name": "Actual Gas Used",
                        "value": 203256
                    },
                    {
                        "children": [],
                        "depth": -1,
                        "name": "Refunded Gas",
                        "value": 22700
                    }
                ],
                "depth": -2,
                "name": "Total Gas",
                "value": 225956
            }
        ],
        "isConfirmed": true,
        "mainTrace": [
            {
                "children": [
                    {
                        "children": [
                            {
                                "children": [],
                                "depth": 1,
                                "id": 1,
                                "order": 1
                            },
                            {
                                "children": [
                                    {
                                        "children": [],
                                        "depth": 2,
                                        "id": 3,
                                        "order": 3
                                    }
                                ],
                                "depth": 1,
                                "id": 2,
                                "order": 2
                            },
                            {
                                "children": [
                                    {
                                        "children": [],
                                        "depth": 2,
                                        "id": 5,
                                        "order": 5
                                    }
                                ],
                                "depth": 1,
                                "id": 4,
                                "order": 4
                            },
                            {
                                "children": [
                                    {
                                        "children": [
                                            {
                                                "children": [],
                                                "depth": 3,
                                                "id": 8,
                                                "order": 8
                                            },
                                            {
                                                "children": [],
                                                "depth": 3,
                                                "id": 9,
                                                "order": 9
                                            }
                                        ],
                                        "depth": 2,
                                        "id": 7,
                                        "order": 7
                                    },
                                    {
                                        "children": [],
                                        "depth": 2,
                                        "id": 10,
                                        "order": 10
                                    },
                                    {
                                        "children": [],
                                        "depth": 2,
                                        "id": 11,
                                        "order": 11
                                    },
                                    {
                                        "children": [],
                                        "depth": 2,
                                        "id": 12,
                                        "order": 12
                                    },
                                    {
                                        "children": [],
                                        "depth": 2,
                                        "id": 13,
                                        "order": 13
                                    }
                                ],
                                "depth": 1,
                                "id": 6,
                                "order": 6
                            },
                            {
                                "children": [],
                                "depth": 1,
                                "id": 14,
                                "order": 14
                            }
                        ],
                        "depth": 0,
                        "id": 0,
                        "order": 0
                    }
                ],
                "depth": -1,
                "id": -1,
                "order": -1
            }
        ],
        "mainTraceNodeCount": 15,
        "parentIdMap": {
            "0": -1,
            "1": 0,
            "10": 6,
            "11": 6,
            "12": 6,
            "13": 6,
            "14": 0,
            "2": 0,
            "3": 2,
            "4": 0,
            "5": 4,
            "6": 0,
            "7": 6,
            "8": 7,
            "9": 7
        },
        "tidyTrace": [
            {
                "children": [
                    {
                        "children": [
                            {
                                "children": [
                                    {
                                        "children": [],
                                        "depth": 2,
                                        "id": 3,
                                        "order": 3
                                    }
                                ],
                                "depth": 1,
                                "id": 2,
                                "order": 2
                            },
                            {
                                "children": [
                                    {
                                        "children": [],
                                        "depth": 2,
                                        "id": 5,
                                        "order": 5
                                    }
                                ],
                                "depth": 1,
                                "id": 4,
                                "order": 4
                            },
                            {
                                "children": [
                                    {
                                        "children": [
                                            {
                                                "children": [],
                                                "depth": 3,
                                                "id": 8,
                                                "order": 8
                                            },
                                            {
                                                "children": [],
                                                "depth": 3,
                                                "id": 9,
                                                "order": 9
                                            }
                                        ],
                                        "depth": 2,
                                        "id": 7,
                                        "order": 7
                                    },
                                    {
                                        "children": [],
                                        "depth": 2,
                                        "id": 12,
                                        "order": 12
                                    },
                                    {
                                        "children": [],
                                        "depth": 2,
                                        "id": 13,
                                        "order": 13
                                    }
                                ],
                                "depth": 1,
                                "id": 6,
                                "order": 6
                            },
                            {
                                "children": [],
                                "depth": 1,
                                "id": 14,
                                "order": 14
                            }
                        ],
                        "depth": 0,
                        "id": 0,
                        "order": 0
                    }
                ],
                "depth": -1,
                "id": -1,
                "order": -1
            }
        ],
        "tidyTraceNodeCount": 12
    },
    "state_change": {
        "stateChanges": [
            {
                "address": "0x27bf8b39f850750c0d4ca8bc05b7c97859be1627",
                "erc": "ERC-20",
                "slots": [
                    {
                        "current": "0x00000000000000000000000000000000000000001fa85ef9406653c15faef5f8",
                        "key": "0x000000000000000000000000000000000000000000000000000000000000000a",
                        "prev": "0x00000000000000000000000000000000000000001e3c2f0a917e3e5ebd110798"
                    },
                    {
                        "current": "0x651af58f0000011ca75f7ef2619b535a794b00000000000021f390564809bf94",
                        "key": "0x0000000000000000000000000000000000000000000000000000000000000008",
                        "prev": "0x651af5830000011d84a64ca0f7f514486e1600000000000021d92c2afd8bdf07"
                    },
                    {
                        "current": "0x00000000000000000000000000115563206d377007ea5edd6a434d90d677b870",
                        "key": "0x0000000000000000000000000000000000000000000000000000000000000009",
                        "prev": "0x0000000000000000000000000010f02a2050807fd59ba06780635b1eb2a62a40"
                    }
                ],
                "storageVariables": [
                    {
                        "name": "price1CumulativeLast",
                        "type": "uint256",
                        "value": {
                            "current": "9797583342486107488198260216",
                            "prev": "9357307989993250981831313304",
                            "typeTag": 1
                        }
                    },
                    {
                        "name": "reserve0",
                        "type": "uint112",
                        "value": {
                            "current": "2446457722842496916",
                            "prev": "2439029236351885063",
                            "typeTag": 1
                        }
                    },
                    {
                        "name": "reserve1",
                        "type": "uint112",
                        "value": {
                            "current": "344125329561362031663806795",
                            "prev": "345170278647110118880603670",
                            "typeTag": 1
                        }
                    },
                    {
                        "name": "blockTimestampLast",
                        "type": "uint32",
                        "value": {
                            "current": "1696265615",
                            "prev": "1696265603",
                            "typeTag": 1
                        }
                    },
                    {
                        "name": "price0CumulativeLast",
                        "type": "uint256",
                        "value": {
                            "current": "386550943735926018508691397465768591879551088",
                            "prev": "377733206612808999189675640455903163556702784",
                            "typeTag": 1
                        }
                    }
                ]
            },
            {
                "address": "0xc02aaa39b223fe8d0a0e5c4f27ead9083c756cc2",
                "erc": "ERC-20",
                "slots": [
                    {
                        "current": "0x00000000000000000000000000000000000000000000000021f390564809bf94",
                        "key": "0x07ce4876eff3ff22a62a3110a1f6da7497e23aad6ba06f057e1a9684d505cbea",
                        "prev": "0x00000000000000000000000000000000000000000000000021d92c2afd8bdf07"
                    }
                ],
                "storageVariables": [
                    {
                        "name": "balanceOf",
                        "type": "mapping(address => uint256)",
                        "value": {
                            "pairs": [
                                {
                                    "key": "0x27bf8b39f850750c0d4ca8bc05b7c97859be1627",
                                    "value": {
                                        "current": "2446457722842496916",
                                        "prev": "2439029236351885063",
                                        "typeTag": 1
                                    }
                                }
                            ],
                            "typeTag": 4
                        }
                    }
                ]
            },
            {
                "address": "0xe3f7f1d4ae7189f30d9927f9c759e9da617f5d55",
                "erc": "ERC-20",
                "slots": [
                    {
                        "current": "0x00000000000000000000000000000000000000000000a221ca7fcd50d41e747b",
                        "key": "0x0000000000000000000000000000000000000000000000000000000000000014",
                        "prev": "0x000000000000000000000000000000000000000000009feb52aeb23654bfea5b"
                    },
                    {
                        "current": "0x00000000000000000000000000000000000000000008ddd912fd3a6b99aa5f95",
                        "key": "0x0000000000000000000000000000000000000000000000000000000000000015",
                        "prev": "0x00000000000000000000000000000000000000000008bede858dbef8a27ed1cb"
                    },
                    {
                        "current": "0x00000000000000000000000000000000000000000000bc15c86dffcc4a63dce0",
                        "key": "0x2b351bff157bd305a0226fff02f453cc84b289be935bd69f807f00bb5571f29c",
                        "prev": "0x0000000000000000000000000000000000000000000000000000000000000000"
                    },
                    {
                        "current": "0x0000000000000000000000000000000000000000011ca75f7ef2619b535a794b",
                        "key": "0x0af16e9ca12c182603ab9a388e1a78fa1c5721872ecf26592c4e7387f38ab5ce",
                        "prev": "0x0000000000000000000000000000000000000000011d84a64ca0f7f514486e16"
                    },
                    {
                        "current": "0x000000000000000000000000000000000000000000097ffadd7d07bc6dc8d428",
                        "key": "0xa22f2977488b7ef31a9f950384442e60c331aded42667ed720079ffb083ea10a",
                        "prev": "0x000000000000000000000000000000000000000000095ec9d83c712ef73ebc3d"
                    },
                    {
                        "current": "0x00000000000000000000000000000000000000000000bc15c86dffcc4a63dce0",
                        "key": "0x7bfd18b429a1de1ba1e96fe3b6b9e0c968eb42fb572dc003dde17f47b757b4ea",
                        "prev": "0x0000000000000000000000000000000000000000000000000000000000000000"
                    }
                ],
                "storageVariables": [
                    {
                        "name": "_balances",
                        "type": "mapping(address => uint256)",
                        "value": {
                            "pairs": [
                                {
                                    "key": "0x27bf8b39f850750c0d4ca8bc05b7c97859be1627",
                                    "value": {
                                        "current": "344125329561362031663806795",
                                        "prev": "345170278647110118880603670",
                                        "typeTag": 1
                                    }
                                },
                                {
                                    "key": "0xa1d3db5b3a84685a7b5cd662836fef35be3b6228",
                                    "value": {
                                        "current": "888206722885874134277344",
                                        "prev": "0",
                                        "typeTag": 1
                                    }
                                },
                                {
                                    "key": "0xe3f7f1d4ae7189f30d9927f9c759e9da617f5d55",
                                    "value": {
                                        "current": "11484700565795695250428968",
                                        "prev": "11327958202933482167909437",
                                        "typeTag": 1
                                    }
                                }
                            ],
                            "typeTag": 4
                        }
                    },
                    {
                        "name": "tokensForLiquidity",
                        "type": "uint256",
                        "value": {
                            "current": "765646704386379683361915",
                            "prev": "755197213528898811193947",
                            "typeTag": 1
                        }
                    },
                    {
                        "name": "tokensForMarketing",
                        "type": "uint256",
                        "value": {
                            "current": "10719053861409315567067029",
                            "prev": "10572760989404583356715467",
                            "typeTag": 1
                        }
                    },
                    {
                        "name": "_rewardCounts",
                        "type": "mapping(address => uint256)",
                        "value": {
                            "pairs": [
                                {
                                    "key": "0xa1d3db5b3a84685a7b5cd662836fef35be3b6228",
                                    "value": {
                                        "current": "888206722885874134277344",
                                        "prev": "0",
                                        "typeTag": 1
                                    }
                                }
                            ],
                            "typeTag": 4
                        }
                    }
                ]
            }
        ]
    }
}