{
    "balance_change": {
        "balanceChanges": [
            {
                "account": "0xc94f7722ac1fb85b63fade4f12eae3b0c1961cfb",
                "assets": [
                    {
                        "address": "0xeeeeeeeeeeeeeeeeeeeeeeeeeeeeeeeeeeeeeeee",
                        "amount": "0.0009225",
                        "iconUrl": "https://assets.blocksec.com/image/1663669189317-3.png",
                        "isERC1155": false,
                        "isERC721": false,
                        "sign": false,
                        "value": ""
                    },
                    {
                        "address": "0x0e3a2a1f2146d86a604adc220b4967a898d7fe07",
                        "amount": "1",
                        "iconUrl": "",
                        "isERC1155": false,
                        "isERC721": true,
                        "sign": true,
                        "tokenID": "120750442",
                        "value": ""
                    }
                ]
            },
            {
                "account": "0x0d056bb17ad4df5593b93a1efc29cb35ba4aa38d",
                "assets": [
                    {
                        "address": "0xeeeeeeeeeeeeeeeeeeeeeeeeeeeeeeeeeeeeeeee",
                        "amount": "0.0000225",
                        "iconUrl": "https://assets.blocksec.com/image/1663669189317-3.png",
                        "isERC1155": false,
                        "isERC721": false,
                        "sign": true,
                        "value": ""
                    }
                ]
            },
            {
                "account": "0x69b4f1d198783baca5da8bb69f4447514ffa26df",
                "assets": [
                    {
                        "address": "0xc02aaa39b223fe8d0a0e5c4f27ead9083c756cc2",
                        "amount": "0.0009",
                        "iconUrl": "https://assets.blocksec.com/icon/f1cb2d02c471d545bbc7722daf3277fd852d98e63d118771af7047bd8256c516.png",
                        "isERC1155": false,
                        "isERC721": false,
                        "sign": true,
                        "value": ""
                    },
                    {
                        "address": "0x0e3a2a1f2146d86a604adc220b4967a898d7fe07",
                        "amount": "1",
                        "iconUrl": "",
                        "isERC1155": false,
                        "isERC721": true,
                        "sign": false,
                        "tokenID": "120750442",
                        "value": ""
                    }
                ]
            },
            {
                "account": "0xc02aaa39b223fe8d0a0e5c4f27ead9083c756cc2",
                "assets": [
                    {
                        "address": "0xeeeeeeeeeeeeeeeeeeeeeeeeeeeeeeeeeeeeeeee",
                        "amount": "0.0009",
                        "iconUrl": "https://assets.blocksec.com/image/1663669189317-3.png",
                        "isERC1155": false,
                        "isERC721": false,
                        "sign": true,
                        "value": ""
                    },
                    {
                        "address": "0xc02aaa39b223fe8d0a0e5c4f27ead9083c756cc2",
                        "amount": "0.0009",
                        "iconUrl": "https://assets.blocksec.com/icon/f1cb2d02c471d545bbc7722daf3277fd852d98e63d118771af7047bd8256c516.png",
                        "isERC1155": false,
                        "isERC721": false,
                        "sign": false,
                        "value": ""
                    }
                ]
            }
        ]
    },
    "profile": {
        "basic_info": {
            "baseFee": "",
            "blockNumber": 9262679,
            "callData": "0x18978e8200000000000000000000000000000000000000000000000000000000000000e000000000000000000000000000000000000000000000000000000000000000010000000000000000000000000000000000000000000000000000000000000380000000000000000000000000000000000000000000000000000000000000044000000000000000000000000000000000000000000000000000000000000004400000000000000000000000000000000000000000000000000058d15e176280000000000000000000000000000d056bb17ad4df5593b93a1efc29cb35ba4aa38d0000000000000000000000000000000000000000000000000000000000000001000000000000000000000000000000000000000000000000000000000000002000000000000000000000000069b4f1d198783baca5da8bb69f4447514ffa26df00000000000000000000000000000000000000000000000000000000000000000000000000000000000000000d056bb17ad4df5593b93a1efc29cb35ba4aa38d000000000000000000000000000000000000000000000000000000000000000000000000000000000000000000000000000000000000000000000000000000010000000000000000000000000000000000000000000000000003328b944c400000000000000000000000000000000000000000000000000000000000000000000000000000000000000000000000000000000000000000000000000000000000000000000000000000000000000000000000000000000000000000005eb73fc10000000000000000000000000000000000000000000000000000016f91d5ec80000000000000000000000000000000000000000000000000000000000000018000000000000000000000000000000000000000000000000000000000000002000000000000000000000000000000000000000000000000000000000000000044025717920000000000000000000000000e3a2a1f2146d86a604adc220b4967a898d7fe07000000000000000000000000000000000000000000000000000000000732816a000000000000000000000000000000000000000000000000000000000000000000000000000000000000000000000000000000000000000000000024f47261b0000000000000000000000000c02aaa39b223fe8d0a0e5c4f27ead9083c756cc2000000000000000000000000000000000000000000000000000000000000000000000000000000000000000000000000000000000000000000000001000000000000000000000000000000000000000000000000000000000000002000000000000000000000000000000000000000000000000000000000000000421c1bcd305202506561d54b4d09b1c8bb0ac6a6e4ecd6aece398341d334cf302de12b67d3460994abb5bb21cc0d763b572af1ffb6a8789902b994d7d6c85cc0c833020000000000000000000000000000000000000000000000000000000000000000000000000000000000000000000000000000000000000000000000000000",
            "debugEnable": true,
            "errorInfo": "",
            "eventCount": 6,
            "feeRecipient": "0x5a0b54d5dc17e0aadc383d2db43b0a0d3e029c4c",
            "formatValue": "0.0009225",
            "gasLimit": 443821,
            "gasPrice": "1",
            "gasUsed": 286221,
            "intTxnCount": 15,
            "internalRevert": false,
            "internalRevertMessage": "",
            "isContractCreation": false,
            "isFlashloan": false,
            "maxFee": "",
            "nonce": 357,
            "overwritedBlockNumber": -1,
            "priorityFee": "",
            "receiver": "0x76481caa104b5f6bccb540dae4cefaf1c398ebea",
            "revertMessage": "",
            "sender": "0xc94f7722ac1fb85b63fade4f12eae3b0c1961cfb",
            "simulationEnable": true,
            "sourceTxnHash": "0x39c0761bc866baf494fe83bcf68b39e97490a830528bd9710daf25e4f60306d6",
            "status": true,
            "timestamp": "2020-01-11T23:49:41Z",
            "transactionFee": "0.000286221",
            "txnHash": "0x39c0761bc866baf494fe83bcf68b39e97490a830528bd9710daf25e4f60306d6",
            "txnIndex": 8,
            "type": 0,
            "value": "922500000000000"
        },
        "fund_flow": [
            {
                "amount": "0.0009225",
                "from": "0xc94f7722ac1fb85b63fade4f12eae3b0c1961cfb",
                "id": 1,
                "isERC1155": false,
                "isERC721": false,
                "isReverted": false,
                "order": 1,
                "to": "0x76481caa104b5f6bccb540dae4cefaf1c398ebea",
                "token": "0xeeeeeeeeeeeeeeeeeeeeeeeeeeeeeeeeeeeeeeee"
            },
            {
                "amount": "0.0009225",
                "from": "0x76481caa104b5f6bccb540dae4cefaf1c398ebea",
                "id": 2,
                "isERC1155": false,
                "isERC721": false,
                "isReverted": false,
                "order": 2,
                "to": "0xc02aaa39b223fe8d0a0e5c4f27ead9083c756cc2",
                "token": "0xeeeeeeeeeeeeeeeeeeeeeeeeeeeeeeeeeeeeeeee"
            },
            {
                "amount": "0.0009225",
                "from": "0xc02aaa39b223fe8d0a0e5c4f27ead9083c756cc2",
                "id": 3,
                "isERC1155": false,
                "isERC721": false,
                "isReverted": false,
                "order": 3,
                "to": "0x76481caa104b5f6bccb540dae4cefaf1c398ebea",
                "token": "0xc02aaa39b223fe8d0a0e5c4f27ead9083c756cc2"
            },
            {
                "amount": "1",
                "from": "0x69b4f1d198783baca5da8bb69f4447514ffa26df",
                "id": 4,
                "isERC1155": false,
                "isERC721": true,
                "isReverted": false,
                "order": 4,
                "to": "0x76481caa104b5f6bccb540dae4cefaf1c398ebea",
                "token": "0x0e3a2a1f2146d86a604adc220b4967a898d7fe07",
                "tokenID": "120750442"
            },
            {
                "amount": "0.0009",
                "from": "0x76481caa104b5f6bccb540dae4cefaf1c398ebea",
                "id": 5,
                "isERC1155": false,
                "isERC721": false,
                "isReverted": false,
                "order": 5,
                "to": "0x69b4f1d198783baca5da8bb69f4447514ffa26df",
                "token": "0xc02aaa39b223fe8d0a0e5c4f27ead9083c756cc2"
            },
            {
                "amount": "0.0000225",
                "from": "0xc02aaa39b223fe8d0a0e5c4f27ead9083c756cc2",
                "id": 6,
                "isERC1155": false,
                "isERC721": false,
                "isReverted": false,
                "order": 6,
                "to": "0x76481caa104b5f6bccb540dae4cefaf1c398ebea",
                "token": "0xeeeeeeeeeeeeeeeeeeeeeeeeeeeeeeeeeeeeeeee"
            },
            {
                "amount": "0.0000225",
                "from": "0x76481caa104b5f6bccb540dae4cefaf1c398ebea",
                "id": 7,
                "isERC1155": false,
                "isERC721": false,
                "isReverted": false,
                "order": 7,
                "to": "0xc02aaa39b223fe8d0a0e5c4f27ead9083c756cc2",
                "token": "0xc02aaa39b223fe8d0a0e5c4f27ead9083c756cc2"
            },
            {
                "amount": "0.0000225",
                "from": "0x76481caa104b5f6bccb540dae4cefaf1c398ebea",
                "id": 8,
                "isERC1155": false,
                "isERC721": false,
                "isReverted": false,
                "order": 8,
                "to": "0x0d056bb17ad4df5593b93a1efc29cb35ba4aa38d",
                "token": "0xeeeeeeeeeeeeeeeeeeeeeeeeeeeeeeeeeeeeeeee"
            },
            {
                "amount": "1",
                "from": "0x76481caa104b5f6bccb540dae4cefaf1c398ebea",
                "id": 9,
                "isERC1155": false,
                "isERC721": true,
                "isReverted": false,
                "order": 9,
                "to": "0xc94f7722ac1fb85b63fade4f12eae3b0c1961cfb",
                "token": "0x0e3a2a1f2146d86a604adc220b4967a898d7fe07",
                "tokenID": "120750442"
            }
        ],
        "token_infos": [
            {
                "address": "0xeeeeeeeeeeeeeeeeeeeeeeeeeeeeeeeeeeeeeeee",
                "decimals": 18
            },
            {
                "address": "0xc02aaa39b223fe8d0a0e5c4f27ead9083c756cc2",
                "decimals": 18
            }
        ]
    },
    "address_label": {
        "labels": [
            {
                "address": "0x76481caa104b5f6bccb540dae4cefaf1c398ebea",
                "label": "\ufffdy\ufffd #DEFAULT_FUNCTION_WETH_CONTRAC... (\ufffdy\ufffd #DEFA...)"
            },
            {
                "address": "0xc02aaa39b223fe8d0a0e5c4f27ead9083c756cc2",
                "label": "Wrapped Ether (WETH)"
            },
            {
                "address": "0x629cdec6acc980ebeebea9e5003bcd44db9fc5ce",
                "label": "Gods Unchained Cards (CARD)"
            },
            {
                "address": "0x95e6f48254609a6ee006f7d493c8e5fb97094cef",
                "label": "0x: ERC20 Proxy V3"
            },
            {
                "address": "0x0000000000000000000000000000000000000003",
                "label": "Precompiled"
            },
            {
                "address": "0xeeeeeeeeeeeeeeeeeeeeeeeeeeeeeeeeeeeeeeee",
                "label": "Ether"
            },
            {
                "address": "0x0e3a2a1f2146d86a604adc220b4967a898d7fe07",
                "label": "Gods Unchained: CARD"
            },
            {
                "address": "0x080bf510fcbf18b91105470639e9561022937712",
                "label": "0x: Exchange v2.1"
            },
            {
                "address": "0xefc70a1b18c432bdc64b596838b4d138f6bc6cad",
                "label": "0x: ERC721 Proxy V3"
            },
            {
                "address": "0x0000000000000000000000000000000000000001",
                "label": "Precompiled"
            },
            {
                "address": "0x0000000000000000000000000000000000000000",
                "label": "Null Address"
            },
            {
                "address": "0x0000000000000000000000000000000000000002",
                "label": "Precompiled"
            },
            {
                "address": "0x0000000000000000000000000000000000000004",
                "label": "Precompiled"
            }
        ]
    },
    "trace": {
        "accountLabels": null,
        "dataMap": {
            "-1": {
                "invocation": {
                    "address": "0xc94f7722ac1fb85b63fade4f12eae3b0c1961cfb",
                    "callData": "",
                    "decodedMethod": null,
                    "errorInfo": "",
                    "fromAddress": "",
                    "gasUsed": 0,
                    "id": -1,
                    "methodDecoded": false,
                    "operation": "",
                    "output": "",
                    "revert": false,
                    "revertMessage": "",
                    "selector": "",
                    "status": false,
                    "value": ""
                },
                "nodeType": 0
            },
            "0": {
                "invocation": {
                    "address": "0x76481caa104b5f6bccb540dae4cefaf1c398ebea",
                    "callData": "0x00000000000000000000000000000000000000000000000000000000000000e000000000000000000000000000000000000000000000000000000000000000010000000000000000000000000000000000000000000000000000000000000380000000000000000000000000000000000000000000000000000000000000044000000000000000000000000000000000000000000000000000000000000004400000000000000000000000000000000000000000000000000058d15e176280000000000000000000000000000d056bb17ad4df5593b93a1efc29cb35ba4aa38d0000000000000000000000000000000000000000000000000000000000000001000000000000000000000000000000000000000000000000000000000000002000000000000000000000000069b4f1d198783baca5da8bb69f4447514ffa26df00000000000000000000000000000000000000000000000000000000000000000000000000000000000000000d056bb17ad4df5593b93a1efc29cb35ba4aa38d000000000000000000000000000000000000000000000000000000000000000000000000000000000000000000000000000000000000000000000000000000010000000000000000000000000000000000000000000000000003328b944c400000000000000000000000000000000000000000000000000000000000000000000000000000000000000000000000000000000000000000000000000000000000000000000000000000000000000000000000000000000000000000005eb73fc10000000000000000000000000000000000000000000000000000016f91d5ec80000000000000000000000000000000000000000000000000000000000000018000000000000000000000000000000000000000000000000000000000000002000000000000000000000000000000000000000000000000000000000000000044025717920000000000000000000000000e3a2a1f2146d86a604adc220b4967a898d7fe07000000000000000000000000000000000000000000000000000000000732816a000000000000000000000000000000000000000000000000000000000000000000000000000000000000000000000000000000000000000000000024f47261b0000000000000000000000000c02aaa39b223fe8d0a0e5c4f27ead9083c756cc2000000000000000000000000000000000000000000000000000000000000000000000000000000000000000000000000000000000000000000000001000000000000000000000000000000000000000000000000000000000000002000000000000000000000000000000000000000000000000000000000000000421c1bcd305202506561d54b4d09b1c8bb0ac6a6e4ecd6aece398341d334cf302de12b67d3460994abb5bb21cc0d763b572af1ffb6a8789902b994d7d6c85cc0c833020000000000000000000000000000000000000000000000000000000000000000000000000000000000000000000000000000000000000000000000000000",
                    "decodedMethod": {
                        "callParams": [
                            {
                                "name": "orders",
                                "type": "(address,address,address,address,uint256,uint256,uint256,uint256,uint256,uint256,bytes,bytes)[]",
                                "value": [
                                    [
                                        {
                                            "name": "makerAddress",
                                            "type": "address",
                                            "value": "0x69b4f1d198783baca5da8bb69f4447514ffa26df"
                                        },
                                        {
                                            "name": "takerAddress",
                                            "type": "address",
                                            "value": "0x0000000000000000000000000000000000000000"
                                        },
                                        {
                                            "name": "feeRecipientAddress",
                                            "type": "address",
                                            "value": "0x0d056bb17ad4df5593b93a1efc29cb35ba4aa38d"
                                        },
                                        {
                                            "name": "senderAddress",
                                            "type": "address",
                                            "value": "0x0000000000000000000000000000000000000000"
                                        },
                                        {
                                            "name": "makerAssetAmount",
                                            "type": "uint256",
                                            "value": "1"
                                        },
                                        {
                                            "name": "takerAssetAmount",
                                            "type": "uint256",
                                            "value": "900,000,000,000,000"
                                        },
                                        {
                                            "name": "makerFee",
                                            "type": "uint256",
                                            "value": "0"
                                        },
                                        {
                                            "name": "takerFee",
                                            "type": "uint256",
                                            "value": "0"
                                        },
                                        {
                                            "name": "expirationTimeSeconds",
                                            "type": "uint256",
                                            "value": "1,589,067,713"
                                        },
                                        {
                                            "name": "salt",
                                            "type": "uint256",
                                            "value": "1,578,699,713,664"
                                        },
                                        {
                                            "name": "makerAssetData",
                                            "type": "bytes",
                                            "value": "0x025717920000000000000000000000000e3a2a1f2146d86a604adc220b4967a898d7fe07000000000000000000000000000000000000000000000000000000000732816a"
                                        },
                                        {
                                            "name": "takerAssetData",
                                            "type": "bytes",
                                            "value": "0xf47261b0000000000000000000000000c02aaa39b223fe8d0a0e5c4f27ead9083c756cc2"
                                        }
                                    ]
                                ]
                            },
                            {
                                "name": "makerAssetFillAmount",
                                "type": "uint256",
                                "value": "1"
                            },
                            {
                                "name": "signatures",
                                "type": "bytes[]",
                                "value": [
                                    "0x1c1bcd305202506561d54b4d09b1c8bb0ac6a6e4ecd6aece398341d334cf302de12b67d3460994abb5bb21cc0d763b572af1ffb6a8789902b994d7d6c85cc0c83302"
                                ]
                            },
                            {
                                "name": "feeOrders",
                                "type": "(address,address,address,address,uint256,uint256,uint256,uint256,uint256,uint256,bytes,bytes)[]",
                                "value": []
                            },
                            {
                                "name": "feeSignatures",
                                "type": "bytes[]",
                                "value": []
                            },
                            {
                                "name": "feePercentage",
                                "type": "uint256",
                                "value": "25,000,000,000,000,000"
                            },
                            {
                                "name": "feeRecipient",
                                "type": "address",
                                "value": "0x0d056bb17ad4df5593b93a1efc29cb35ba4aa38d"
                            }
                        ],
                        "constructorArguments": "",
                        "name": "marketBuyOrdersWithEth",
                        "returnParams": [
                            {
                                "name": "orderFillResults",
                                "type": "(uint256,uint256,uint256,uint256)",
                                "value": [
                                    {
                                        "name": "makerAssetFilledAmount",
                                        "type": "uint256",
                                        "value": "1"
                                    },
                                    {
                                        "name": "takerAssetFilledAmount",
                                        "type": "uint256",
                                        "value": "900,000,000,000,000"
                                    },
                                    {
                                        "name": "makerFeePaid",
                                        "type": "uint256",
                                        "value": "0"
                                    },
                                    {
                                        "name": "takerFeePaid",
                                        "type": "uint256",
                                        "value": "0"
                                    }
                                ]
                            },
                            {
                                "name": "feeOrderFillResults",
                                "type": "(uint256,uint256,uint256,uint256)",
                                "value": [
                                    {
                                        "name": "makerAssetFilledAmount",
                                        "type": "uint256",
                                        "value": "0"
                                    },
                                    {
                                        "name": "takerAssetFilledAmount",
                                        "type": "uint256",
                                        "value": "0"
                                    },
                                    {
                                        "name": "makerFeePaid",
                                        "type": "uint256",
                                        "value": "0"
                                    },
                                    {
                                        "name": "takerFeePaid",
                                        "type": "uint256",
                                        "value": "0"
                                    }
                                ]
                            }
                        ],
                        "signature": "marketBuyOrdersWithEth((address,address,address,address,uint256,uint256,uint256,uint256,uint256,uint256,bytes,bytes)[],uint256,bytes[],(address,address,address,address,uint256,uint256,uint256,uint256,uint256,uint256,bytes,bytes)[],bytes[],uint256,address)"
                    },
                    "errorInfo": "",
                    "fromAddress": "0xc94f7722ac1fb85b63fade4f12eae3b0c1961cfb",
                    "gasUsed": 286221,
                    "id": 0,
                    "methodDecoded": true,
                    "operation": "CALL",
                    "output": "0x00000000000000000000000000000000000000000000000000000000000000010000000000000000000000000000000000000000000000000003328b944c4000000000000000000000000000000000000000000000000000000000000000000000000000000000000000000000000000000000000000000000000000000000000000000000000000000000000000000000000000000000000000000000000000000000000000000000000000000000000000000000000000000000000000000000000000000000000000000000000000000000000000000000000000000000000000000000000000000000000000000000000000000000000000000000000000",
                    "revert": false,
                    "revertMessage": "",
                    "selector": "0x18978e82",
                    "status": true,
                    "value": "0.0009225"
                },
                "nodeType": 0
            },
            "1": {
                "invocation": {
                    "address": "0xc02aaa39b223fe8d0a0e5c4f27ead9083c756cc2",
                    "callData": "0x",
                    "decodedMethod": {
                        "callParams": [],
                        "constructorArguments": "",
                        "name": "deposit",
                        "returnParams": [],
                        "signature": "deposit()"
                    },
                    "errorInfo": "",
                    "fromAddress": "0x76481caa104b5f6bccb540dae4cefaf1c398ebea",
                    "gasUsed": 22674,
                    "id": 1,
                    "methodDecoded": true,
                    "operation": "CALL",
                    "output": "",
                    "revert": false,
                    "revertMessage": "",
                    "selector": "0xd0e30db0",
                    "status": true,
                    "value": "0.0009225"
                },
                "nodeType": 0
            },
            "10": {
                "event": {
                    "contract": "0x0e3a2a1f2146d86a604adc220b4967a898d7fe07",
                    "decodedLog": {
                        "name": "Transfer",
                        "params": [
                            {
                                "name": "from",
                                "type": "address",
                                "value": "0x69b4f1d198783baca5da8bb69f4447514ffa26df"
                            },
                            {
                                "name": "to",
                                "type": "address",
                                "value": "0x76481caa104b5f6bccb540dae4cefaf1c398ebea"
                            },
                            {
                                "decimalAvailable": true,
                                "name": "tokenId",
                                "type": "uint256",
                                "value": "120,750,442"
                            }
                        ],
                        "signature": "Transfer(address,address,uint256)"
                    },
                    "id": 10,
                    "logData": "0x",
                    "logDecoded": true,
                    "operation": "EVENT",
                    "revert": false,
                    "status": true,
                    "topics": [
                        "0xddf252ad1be2c89b69c2b068fc378daa952ba7f163c4a11628f55a4df523b3ef",
                        "0x00000000000000000000000069b4f1d198783baca5da8bb69f4447514ffa26df",
                        "0x00000000000000000000000076481caa104b5f6bccb540dae4cefaf1c398ebea",
                        "0x000000000000000000000000000000000000000000000000000000000732816a"
                    ]
                },
                "nodeType": 1
            },
            "11": {
                "invocation": {
                    "address": "0x95e6f48254609a6ee006f7d493c8e5fb97094cef",
                    "callData": "0x000000000000000000000000000000000000000000000000000000000000008000000000000000000000000076481caa104b5f6bccb540dae4cefaf1c398ebea00000000000000000000000069b4f1d198783baca5da8bb69f4447514ffa26df0000000000000000000000000000000000000000000000000003328b944c40000000000000000000000000000000000000000000000000000000000000000024f47261b0000000000000000000000000c02aaa39b223fe8d0a0e5c4f27ead9083c756cc200000000000000000000000000000000000000000000000000000000",
                    "decodedMethod": {
                        "callParams": [
                            {
                                "name": "assetData",
                                "type": "bytes",
                                "value": "0xf47261b0000000000000000000000000c02aaa39b223fe8d0a0e5c4f27ead9083c756cc2"
                            },
                            {
                                "name": "from",
                                "type": "address",
                                "value": "0x76481caa104b5f6bccb540dae4cefaf1c398ebea"
                            },
                            {
                                "name": "to",
                                "type": "address",
                                "value": "0x69b4f1d198783baca5da8bb69f4447514ffa26df"
                            },
                            {
                                "name": "amount",
                                "type": "uint256",
                                "value": "900,000,000,000,000"
                            }
                        ],
                        "constructorArguments": "",
                        "name": "transferFrom",
                        "returnParams": [],
                        "signature": "transferFrom(bytes,address,address,uint256)"
                    },
                    "errorInfo": "",
                    "fromAddress": "0x080bf510fcbf18b91105470639e9561022937712",
                    "gasUsed": 13879,
                    "id": 11,
                    "methodDecoded": true,
                    "operation": "CALL",
                    "output": "",
                    "revert": false,
                    "revertMessage": "",
                    "selector": "0xa85e59e4",
                    "status": true,
                    "value": "0"
                },
                "nodeType": 0
            },
            "12": {
                "invocation": {
                    "address": "0xc02aaa39b223fe8d0a0e5c4f27ead9083c756cc2",
                    "callData": "0x00000000000000000000000076481caa104b5f6bccb540dae4cefaf1c398ebea00000000000000000000000069b4f1d198783baca5da8bb69f4447514ffa26df0000000000000000000000000000000000000000000000000003328b944c4000",
                    "decodedMethod": {
                        "callParams": [
                            {
                                "name": "src",
                                "type": "address",
                                "value": "0x76481caa104b5f6bccb540dae4cefaf1c398ebea"
                            },
                            {
                                "name": "dst",
                                "type": "address",
                                "value": "0x69b4f1d198783baca5da8bb69f4447514ffa26df"
                            },
                            {
                                "decimalAvailable": true,
                                "name": "wad",
                                "type": "uint256",
                                "value": "900,000,000,000,000"
                            }
                        ],
                        "constructorArguments": "",
                        "name": "transferFrom",
                        "returnParams": [
                            {
                                "name": "",
                                "type": "bool",
                                "value": true
                            }
                        ],
                        "signature": "transferFrom(address,address,uint256)"
                    },
                    "errorInfo": "",
                    "fromAddress": "0x95e6f48254609a6ee006f7d493c8e5fb97094cef",
                    "gasUsed": 11825,
                    "id": 12,
                    "methodDecoded": true,
                    "operation": "CALL",
                    "output": "0x0000000000000000000000000000000000000000000000000000000000000001",
                    "revert": false,
                    "revertMessage": "",
                    "selector": "0x23b872dd",
                    "status": true,
                    "value": "0"
                },
                "nodeType": 0
            },
            "13": {
                "event": {
                    "contract": "0xc02aaa39b223fe8d0a0e5c4f27ead9083c756cc2",
                    "decodedLog": {
                        "name": "Transfer",
                        "params": [
                            {
                                "name": "src",
                                "type": "address",
                                "value": "0x76481caa104b5f6bccb540dae4cefaf1c398ebea"
                            },
                            {
                                "name": "dst",
                                "type": "address",
                                "value": "0x69b4f1d198783baca5da8bb69f4447514ffa26df"
                            },
                            {
                                "decimalAvailable": true,
                                "name": "wad",
                                "type": "uint256",
                                "value": "900,000,000,000,000"
                            }
                        ],
                        "signature": "Transfer(address,address,uint256)"
                    },
                    "id": 13,
                    "logData": "0x0000000000000000000000000000000000000000000000000003328b944c4000",
                    "logDecoded": true,
                    "operation": "EVENT",
                    "revert": false,
                    "status": true,
                    "topics": [
                        "0xddf252ad1be2c89b69c2b068fc378daa952ba7f163c4a11628f55a4df523b3ef",
                        "0x00000000000000000000000076481caa104b5f6bccb540dae4cefaf1c398ebea",
                        "0x00000000000000000000000069b4f1d198783baca5da8bb69f4447514ffa26df"
                    ]
                },
                "nodeType": 1
            },
            "14": {
                "invocation": {
                    "address": "0xc02aaa39b223fe8d0a0e5c4f27ead9083c756cc2",
                    "callData": "0x00000000000000000000000000000000000000000000000000001476b081e800",
                    "decodedMethod": {
                        "callParams": [
                            {
                                "name": "wad",
                                "type": "uint256",
                                "value": "22,500,000,000,000"
                            }
                        ],
                        "constructorArguments": "",
                        "name": "withdraw",
                        "returnParams": [],
                        "signature": "withdraw(uint256)"
                    },
                    "errorInfo": "",
                    "fromAddress": "0x76481caa104b5f6bccb540dae4cefaf1c398ebea",
                    "gasUsed": 12708,
                    "id": 14,
                    "methodDecoded": true,
                    "operation": "CALL",
                    "output": "",
                    "revert": false,
                    "revertMessage": "",
                    "selector": "0x2e1a7d4d",
                    "status": true,
                    "value": "0"
                },
                "nodeType": 0
            },
            "15": {
                "invocation": {
                    "address": "0x76481caa104b5f6bccb540dae4cefaf1c398ebea",
                    "callData": "0x",
                    "decodedMethod": null,
                    "errorInfo": "",
                    "fromAddress": "0xc02aaa39b223fe8d0a0e5c4f27ead9083c756cc2",
                    "gasUsed": 868,
                    "id": 15,
                    "methodDecoded": false,
                    "operation": "CALL",
                    "output": "",
                    "revert": false,
                    "revertMessage": "",
                    "selector": "fallback",
                    "status": true,
                    "value": "0.0000225"
                },
                "nodeType": 0
            },
            "16": {
                "event": {
                    "contract": "0xc02aaa39b223fe8d0a0e5c4f27ead9083c756cc2",
                    "decodedLog": {
                        "name": "Withdrawal",
                        "params": [
                            {
                                "name": "src",
                                "type": "address",
                                "value": "0x76481caa104b5f6bccb540dae4cefaf1c398ebea"
                            },
                            {
                                "name": "wad",
                                "type": "uint256",
                                "value": "22,500,000,000,000"
                            }
                        ],
                        "signature": "Withdrawal(address,uint256)"
                    },
                    "id": 16,
                    "logData": "0x00000000000000000000000000000000000000000000000000001476b081e800",
                    "logDecoded": true,
                    "operation": "EVENT",
                    "revert": false,
                    "status": true,
                    "topics": [
                        "0x7fcf532c15f0a6db0bd6d0e038bea71d30d808c7d98cb3bf7268a95bf5081b65",
                        "0x00000000000000000000000076481caa104b5f6bccb540dae4cefaf1c398ebea"
                    ]
                },
                "nodeType": 1
            },
            "17": {
                "invocation": {
                    "address": "0x0d056bb17ad4df5593b93a1efc29cb35ba4aa38d",
                    "callData": "0x",
                    "decodedMethod": null,
                    "errorInfo": "",
                    "fromAddress": "0x76481caa104b5f6bccb540dae4cefaf1c398ebea",
                    "gasUsed": 0,
                    "id": 17,
                    "methodDecoded": false,
                    "operation": "CALL",
                    "output": "",
                    "revert": false,
                    "revertMessage": "",
                    "selector": "fallback",
                    "status": true,
                    "value": "0.0000225"
                },
                "nodeType": 0
            },
            "18": {
                "invocation": {
                    "address": "0x0e3a2a1f2146d86a604adc220b4967a898d7fe07",
                    "callData": "0x00000000000000000000000076481caa104b5f6bccb540dae4cefaf1c398ebea000000000000000000000000c94f7722ac1fb85b63fade4f12eae3b0c1961cfb000000000000000000000000000000000000000000000000000000000732816a",
                    "decodedMethod": {
                        "callParams": [
                            {
                                "name": "from",
                                "type": "address",
                                "value": "0x76481caa104b5f6bccb540dae4cefaf1c398ebea"
                            },
                            {
                                "name": "to",
                                "type": "address",
                                "value": "0xc94f7722ac1fb85b63fade4f12eae3b0c1961cfb"
                            },
                            {
                                "decimalAvailable": true,
                                "name": "tokenId",
                                "type": "uint256",
                                "value": "120,750,442"
                            }
                        ],
                        "constructorArguments": "",
                        "name": "transferFrom",
                        "returnParams": [],
                        "signature": "transferFrom(address,address,uint256)"
                    },
                    "errorInfo": "",
                    "fromAddress": "0x76481caa104b5f6bccb540dae4cefaf1c398ebea",
                    "gasUsed": 54642,
                    "id": 18,
                    "methodDecoded": true,
                    "operation": "CALL",
                    "output": "",
                    "revert": false,
                    "revertMessage": "",
                    "selector": "0x23b872dd",
                    "status": true,
                    "value": "0"
                },
                "nodeType": 0
            },
            "19": {
                "invocation": {
                    "address": "0x629cdec6acc980ebeebea9e5003bcd44db9fc5ce",
                    "callData": "0x000000000000000000000000000000000000000000000000000000000732816a",
                    "decodedMethod": {
                        "callParams": [
                            {
                                "name": "",
                                "type": "uint256",
                                "value": "120,750,442"
                            }
                        ],
                        "constructorArguments": "",
                        "name": "cardProtos",
                        "returnParams": [
                            {
                                "name": "",
                                "type": "uint16",
                                "value": "10"
                            }
                        ],
                        "signature": "cardProtos(uint256)"
                    },
                    "errorInfo": "",
                    "fromAddress": "0x0e3a2a1f2146d86a604adc220b4967a898d7fe07",
                    "gasUsed": 2163,
                    "id": 19,
                    "methodDecoded": true,
                    "operation": "STATICCALL",
                    "output": "0x000000000000000000000000000000000000000000000000000000000000000a",
                    "revert": false,
                    "revertMessage": "",
                    "selector": "0xf3beae6b",
                    "status": true,
                    "value": "0"
                },
                "nodeType": 0
            },
            "2": {
                "event": {
                    "contract": "0xc02aaa39b223fe8d0a0e5c4f27ead9083c756cc2",
                    "decodedLog": {
                        "name": "Deposit",
                        "params": [
                            {
                                "name": "dst",
                                "type": "address",
                                "value": "0x76481caa104b5f6bccb540dae4cefaf1c398ebea"
                            },
                            {
                                "name": "wad",
                                "type": "uint256",
                                "value": "922,500,000,000,000"
                            }
                        ],
                        "signature": "Deposit(address,uint256)"
                    },
                    "id": 2,
                    "logData": "0x0000000000000000000000000000000000000000000000000003470244ce2800",
                    "logDecoded": true,
                    "operation": "EVENT",
                    "revert": false,
                    "status": true,
                    "topics": [
                        "0xe1fffcc4923d04b559f4d29a8bfc6cda04eb5b0d3c460751c2402c5c5cc9109c",
                        "0x00000000000000000000000076481caa104b5f6bccb540dae4cefaf1c398ebea"
                    ]
                },
                "nodeType": 1
            },
            "20": {
                "invocation": {
                    "address": "0x629cdec6acc980ebeebea9e5003bcd44db9fc5ce",
                    "callData": "0x000000000000000000000000000000000000000000000000000000000732816a",
                    "decodedMethod": {
                        "callParams": [
                            {
                                "name": "",
                                "type": "uint256",
                                "value": "120,750,442"
                            }
                        ],
                        "constructorArguments": "",
                        "name": "cardProtos",
                        "returnParams": [
                            {
                                "name": "",
                                "type": "uint16",
                                "value": "10"
                            }
                        ],
                        "signature": "cardProtos(uint256)"
                    },
                    "errorInfo": "",
                    "fromAddress": "0x0e3a2a1f2146d86a604adc220b4967a898d7fe07",
                    "gasUsed": 2163,
                    "id": 20,
                    "methodDecoded": true,
                    "operation": "STATICCALL",
                    "output": "0x000000000000000000000000000000000000000000000000000000000000000a",
                    "revert": false,
                    "revertMessage": "",
                    "selector": "0xf3beae6b",
                    "status": true,
                    "value": "0"
                },
                "nodeType": 0
            },
            "21": {
                "event": {
                    "contract": "0x0e3a2a1f2146d86a604adc220b4967a898d7fe07",
                    "decodedLog": {
                        "name": "Transfer",
                        "params": [
                            {
                                "name": "from",
                                "type": "address",
                                "value": "0x76481caa104b5f6bccb540dae4cefaf1c398ebea"
                            },
                            {
                                "name": "to",
                                "type": "address",
                                "value": "0xc94f7722ac1fb85b63fade4f12eae3b0c1961cfb"
                            },
                            {
                                "decimalAvailable": true,
                                "name": "tokenId",
                                "type": "uint256",
                                "value": "120,750,442"
                            }
                        ],
                        "signature": "Transfer(address,address,uint256)"
                    },
                    "id": 21,
                    "logData": "0x",
                    "logDecoded": true,
                    "operation": "EVENT",
                    "revert": false,
                    "status": true,
                    "topics": [
                        "0xddf252ad1be2c89b69c2b068fc378daa952ba7f163c4a11628f55a4df523b3ef",
                        "0x00000000000000000000000076481caa104b5f6bccb540dae4cefaf1c398ebea",
                        "0x000000000000000000000000c94f7722ac1fb85b63fade4f12eae3b0c1961cfb",
                        "0x000000000000000000000000000000000000000000000000000000000732816a"
                    ]
                },
                "nodeType": 1
            },
            "3": {
                "invocation": {
                    "address": "0x080bf510fcbf18b91105470639e9561022937712",
                    "callData": "0x00000000000000000000000000000000000000000000000000000000000000600000000000000000000000000000000000000000000000000003328b944c400000000000000000000000000000000000000000000000000000000000000002c000000000000000000000000069b4f1d198783baca5da8bb69f4447514ffa26df00000000000000000000000000000000000000000000000000000000000000000000000000000000000000000d056bb17ad4df5593b93a1efc29cb35ba4aa38d000000000000000000000000000000000000000000000000000000000000000000000000000000000000000000000000000000000000000000000000000000010000000000000000000000000000000000000000000000000003328b944c400000000000000000000000000000000000000000000000000000000000000000000000000000000000000000000000000000000000000000000000000000000000000000000000000000000000000000000000000000000000000000005eb73fc10000000000000000000000000000000000000000000000000000016f91d5ec80000000000000000000000000000000000000000000000000000000000000018000000000000000000000000000000000000000000000000000000000000002000000000000000000000000000000000000000000000000000000000000000044025717920000000000000000000000000e3a2a1f2146d86a604adc220b4967a898d7fe07000000000000000000000000000000000000000000000000000000000732816a000000000000000000000000000000000000000000000000000000000000000000000000000000000000000000000000000000000000000000000024f47261b0000000000000000000000000c02aaa39b223fe8d0a0e5c4f27ead9083c756cc20000000000000000000000000000000000000000000000000000000000000000000000000000000000000000000000000000000000000000000000421c1bcd305202506561d54b4d09b1c8bb0ac6a6e4ecd6aece398341d334cf302de12b67d3460994abb5bb21cc0d763b572af1ffb6a8789902b994d7d6c85cc0c83302000000000000000000000000000000000000000000000000000000000000",
                    "decodedMethod": {
                        "callParams": [
                            {
                                "name": "order",
                                "type": "(address,address,address,address,uint256,uint256,uint256,uint256,uint256,uint256,bytes,bytes)",
                                "value": [
                                    {
                                        "name": "makerAddress",
                                        "type": "address",
                                        "value": "0x69b4f1d198783baca5da8bb69f4447514ffa26df"
                                    },
                                    {
                                        "name": "takerAddress",
                                        "type": "address",
                                        "value": "0x0000000000000000000000000000000000000000"
                                    },
                                    {
                                        "name": "feeRecipientAddress",
                                        "type": "address",
                                        "value": "0x0d056bb17ad4df5593b93a1efc29cb35ba4aa38d"
                                    },
                                    {
                                        "name": "senderAddress",
                                        "type": "address",
                                        "value": "0x0000000000000000000000000000000000000000"
                                    },
                                    {
                                        "name": "makerAssetAmount",
                                        "type": "uint256",
                                        "value": "1"
                                    },
                                    {
                                        "name": "takerAssetAmount",
                                        "type": "uint256",
                                        "value": "900,000,000,000,000"
                                    },
                                    {
                                        "name": "makerFee",
                                        "type": "uint256",
                                        "value": "0"
                                    },
                                    {
                                        "name": "takerFee",
                                        "type": "uint256",
                                        "value": "0"
                                    },
                                    {
                                        "name": "expirationTimeSeconds",
                                        "type": "uint256",
                                        "value": "1,589,067,713"
                                    },
                                    {
                                        "name": "salt",
                                        "type": "uint256",
                                        "value": "1,578,699,713,664"
                                    },
                                    {
                                        "name": "makerAssetData",
                                        "type": "bytes",
                                        "value": "0x025717920000000000000000000000000e3a2a1f2146d86a604adc220b4967a898d7fe07000000000000000000000000000000000000000000000000000000000732816a"
                                    },
                                    {
                                        "name": "takerAssetData",
                                        "type": "bytes",
                                        "value": "0xf47261b0000000000000000000000000c02aaa39b223fe8d0a0e5c4f27ead9083c756cc2"
                                    }
                                ]
                            },
                            {
                                "name": "takerAssetFillAmount",
                                "type": "uint256",
                                "value": "900,000,000,000,000"
                            },
                            {
                                "name": "signature",
                                "type": "bytes",
                                "value": "0x1c1bcd305202506561d54b4d09b1c8bb0ac6a6e4ecd6aece398341d334cf302de12b67d3460994abb5bb21cc0d763b572af1ffb6a8789902b994d7d6c85cc0c83302"
                            }
                        ],
                        "constructorArguments": "",
                        "name": "fillOrder",
                        "returnParams": [
                            {
                                "name": "fillResults",
                                "type": "(uint256,uint256,uint256,uint256)",
                                "value": [
                                    {
                                        "name": "makerAssetFilledAmount",
                                        "type": "uint256",
                                        "value": "1"
                                    },
                                    {
                                        "name": "takerAssetFilledAmount",
                                        "type": "uint256",
                                        "value": "900,000,000,000,000"
                                    },
                                    {
                                        "name": "makerFeePaid",
                                        "type": "uint256",
                                        "value": "0"
                                    },
                                    {
                                        "name": "takerFeePaid",
                                        "type": "uint256",
                                        "value": "0"
                                    }
                                ]
                            }
                        ],
                        "signature": "fillOrder((address,address,address,address,uint256,uint256,uint256,uint256,uint256,uint256,bytes,bytes),uint256,bytes)"
                    },
                    "errorInfo": "",
                    "fromAddress": "0x76481caa104b5f6bccb540dae4cefaf1c398ebea",
                    "gasUsed": 185479,
                    "id": 3,
                    "methodDecoded": true,
                    "operation": "CALL",
                    "output": "0x00000000000000000000000000000000000000000000000000000000000000010000000000000000000000000000000000000000000000000003328b944c400000000000000000000000000000000000000000000000000000000000000000000000000000000000000000000000000000000000000000000000000000000000",
                    "revert": false,
                    "revertMessage": "",
                    "selector": "0xb4be83d5",
                    "status": true,
                    "value": "0"
                },
                "nodeType": 0
            },
            "4": {
                "invocation": {
                    "address": "0x0000000000000000000000000000000000000001",
                    "callData": "0x26c229368797826b08c6490c2dd1dcffffc5e3def096e020b6ea14c7000000000000000000000000000000000000000000000000000000000000001c1bcd305202506561d54b4d09b1c8bb0ac6a6e4ecd6aece398341d334cf302de12b67d3460994abb5bb21cc0d763b572af1ffb6a8789902b994d7d6c85cc0c833",
                    "decodedMethod": {
                        "callParams": [
                            {
                                "name": "hash",
                                "type": "bytes32",
                                "value": "0x31b4f05426c229368797826b08c6490c2dd1dcffffc5e3def096e020b6ea14c7"
                            },
                            {
                                "name": "v",
                                "type": "uint256",
                                "value": "28"
                            },
                            {
                                "name": "r",
                                "type": "bytes32",
                                "value": "0x1bcd305202506561d54b4d09b1c8bb0ac6a6e4ecd6aece398341d334cf302de1"
                            },
                            {
                                "name": "s",
                                "type": "bytes32",
                                "value": "0x2b67d3460994abb5bb21cc0d763b572af1ffb6a8789902b994d7d6c85cc0c833"
                            }
                        ],
                        "constructorArguments": "",
                        "name": "ecrecover",
                        "returnParams": [
                            {
                                "name": "",
                                "type": "address",
                                "value": "0x69b4f1d198783baca5da8bb69f4447514ffa26df"
                            }
                        ],
                        "signature": "ecrecover(bytes32,uint256,bytes32,bytes32)"
                    },
                    "errorInfo": "",
                    "fromAddress": "0x080bf510fcbf18b91105470639e9561022937712",
                    "gasUsed": 3000,
                    "id": 4,
                    "methodDecoded": true,
                    "operation": "CALL",
                    "output": "0x00000000000000000000000069b4f1d198783baca5da8bb69f4447514ffa26df",
                    "revert": false,
                    "revertMessage": "",
                    "selector": "0x31b4f054",
                    "status": true,
                    "value": "0"
                },
                "nodeType": 0
            },
            "5": {
                "event": {
                    "contract": "0x080bf510fcbf18b91105470639e9561022937712",
                    "decodedLog": {
                        "name": "Fill",
                        "params": [
                            {
                                "name": "makerAddress",
                                "type": "address",
                                "value": "0x69b4f1d198783baca5da8bb69f4447514ffa26df"
                            },
                            {
                                "name": "feeRecipientAddress",
                                "type": "address",
                                "value": "0x0d056bb17ad4df5593b93a1efc29cb35ba4aa38d"
                            },
                            {
                                "name": "orderHash",
                                "type": "bytes32",
                                "value": "0x31b4f05426c229368797826b08c6490c2dd1dcffffc5e3def096e020b6ea14c7"
                            },
                            {
                                "name": "takerAddress",
                                "type": "address",
                                "value": "0x76481caa104b5f6bccb540dae4cefaf1c398ebea"
                            },
                            {
                                "name": "senderAddress",
                                "type": "address",
                                "value": "0x76481caa104b5f6bccb540dae4cefaf1c398ebea"
                            },
                            {
                                "name": "makerAssetFilledAmount",
                                "type": "uint256",
                                "value": "1"
                            },
                            {
                                "name": "takerAssetFilledAmount",
                                "type": "uint256",
                                "value": "900,000,000,000,000"
                            },
                            {
                                "name": "makerFeePaid",
                                "type": "uint256",
                                "value": "0"
                            },
                            {
                                "name": "takerFeePaid",
                                "type": "uint256",
                                "value": "0"
                            },
                            {
                                "name": "makerAssetData",
                                "type": "bytes",
                                "value": "0x025717920000000000000000000000000e3a2a1f2146d86a604adc220b4967a898d7fe07000000000000000000000000000000000000000000000000000000000732816a"
                            },
                            {
                                "name": "takerAssetData",
                                "type": "bytes",
                                "value": "0xf47261b0000000000000000000000000c02aaa39b223fe8d0a0e5c4f27ead9083c756cc2"
                            }
                        ],
                        "signature": "Fill(address,address,address,address,uint256,uint256,uint256,uint256,bytes32,bytes,bytes)"
                    },
                    "id": 5,
                    "logData": "0x00000000000000000000000076481caa104b5f6bccb540dae4cefaf1c398ebea00000000000000000000000076481caa104b5f6bccb540dae4cefaf1c398ebea00000000000000000000000000000000000000000000000000000000000000010000000000000000000000000000000000000000000000000003328b944c400000000000000000000000000000000000000000000000000000000000000000000000000000000000000000000000000000000000000000000000000000000000000000000000000000000000000000000000000000000000000000000000010000000000000000000000000000000000000000000000000000000000000001800000000000000000000000000000000000000000000000000000000000000044025717920000000000000000000000000e3a2a1f2146d86a604adc220b4967a898d7fe07000000000000000000000000000000000000000000000000000000000732816a000000000000000000000000000000000000000000000000000000000000000000000000000000000000000000000000000000000000000000000024f47261b0000000000000000000000000c02aaa39b223fe8d0a0e5c4f27ead9083c756cc200000000000000000000000000000000000000000000000000000000",
                    "logDecoded": true,
                    "operation": "EVENT",
                    "revert": false,
                    "status": true,
                    "topics": [
                        "0x0bcc4c97732e47d9946f229edb95f5b6323f601300e4690de719993f3c371129",
                        "0x00000000000000000000000069b4f1d198783baca5da8bb69f4447514ffa26df",
                        "0x0000000000000000000000000d056bb17ad4df5593b93a1efc29cb35ba4aa38d",
                        "0x31b4f05426c229368797826b08c6490c2dd1dcffffc5e3def096e020b6ea14c7"
                    ]
                },
                "nodeType": 1
            },
            "6": {
                "invocation": {
                    "address": "0xefc70a1b18c432bdc64b596838b4d138f6bc6cad",
                    "callData": "0x000000000000000000000000000000000000000000000000000000000000008000000000000000000000000069b4f1d198783baca5da8bb69f4447514ffa26df00000000000000000000000076481caa104b5f6bccb540dae4cefaf1c398ebea00000000000000000000000000000000000000000000000000000000000000010000000000000000000000000000000000000000000000000000000000000044025717920000000000000000000000000e3a2a1f2146d86a604adc220b4967a898d7fe07000000000000000000000000000000000000000000000000000000000732816a00000000000000000000000000000000000000000000000000000000",
                    "decodedMethod": {
                        "callParams": [
                            {
                                "name": "assetData",
                                "type": "bytes",
                                "value": "0x025717920000000000000000000000000e3a2a1f2146d86a604adc220b4967a898d7fe07000000000000000000000000000000000000000000000000000000000732816a"
                            },
                            {
                                "name": "from",
                                "type": "address",
                                "value": "0x69b4f1d198783baca5da8bb69f4447514ffa26df"
                            },
                            {
                                "name": "to",
                                "type": "address",
                                "value": "0x76481caa104b5f6bccb540dae4cefaf1c398ebea"
                            },
                            {
                                "name": "amount",
                                "type": "uint256",
                                "value": "1"
                            }
                        ],
                        "constructorArguments": "",
                        "name": "transferFrom",
                        "returnParams": [],
                        "signature": "transferFrom(bytes,address,address,uint256)"
                    },
                    "errorInfo": "",
                    "fromAddress": "0x080bf510fcbf18b91105470639e9561022937712",
                    "gasUsed": 93426,
                    "id": 6,
                    "methodDecoded": true,
                    "operation": "CALL",
                    "output": "",
                    "revert": false,
                    "revertMessage": "",
                    "selector": "0xa85e59e4",
                    "status": true,
                    "value": "0"
                },
                "nodeType": 0
            },
            "7": {
                "invocation": {
                    "address": "0x0e3a2a1f2146d86a604adc220b4967a898d7fe07",
                    "callData": "0x00000000000000000000000069b4f1d198783baca5da8bb69f4447514ffa26df00000000000000000000000076481caa104b5f6bccb540dae4cefaf1c398ebea000000000000000000000000000000000000000000000000000000000732816a",
                    "decodedMethod": {
                        "callParams": [
                            {
                                "name": "from",
                                "type": "address",
                                "value": "0x69b4f1d198783baca5da8bb69f4447514ffa26df"
                            },
                            {
                                "name": "to",
                                "type": "address",
                                "value": "0x76481caa104b5f6bccb540dae4cefaf1c398ebea"
                            },
                            {
                                "decimalAvailable": true,
                                "name": "tokenId",
                                "type": "uint256",
                                "value": "120,750,442"
                            }
                        ],
                        "constructorArguments": "",
                        "name": "transferFrom",
                        "returnParams": [],
                        "signature": "transferFrom(address,address,uint256)"
                    },
                    "errorInfo": "",
                    "fromAddress": "0xefc70a1b18c432bdc64b596838b4d138f6bc6cad",
                    "gasUsed": 91364,
                    "id": 7,
                    "methodDecoded": true,
                    "operation": "CALL",
                    "output": "",
                    "revert": false,
                    "revertMessage": "",
                    "selector": "0x23b872dd",
                    "status": true,
                    "value": "0"
                },
                "nodeType": 0
            },
            "8": {
                "invocation": {
                    "address": "0x629cdec6acc980ebeebea9e5003bcd44db9fc5ce",
                    "callData": "0x000000000000000000000000000000000000000000000000000000000732816a",
                    "decodedMethod": {
                        "callParams": [
                            {
                                "name": "",
                                "type": "uint256",
                                "value": "120,750,442"
                            }
                        ],
                        "constructorArguments": "",
                        "name": "cardProtos",
                        "returnParams": [
                            {
                                "name": "",
                                "type": "uint16",
                                "value": "10"
                            }
                        ],
                        "signature": "cardProtos(uint256)"
                    },
                    "errorInfo": "",
                    "fromAddress": "0x0e3a2a1f2146d86a604adc220b4967a898d7fe07",
                    "gasUsed": 2163,
                    "id": 8,
                    "methodDecoded": true,
                    "operation": "STATICCALL",
                    "output": "0x000000000000000000000000000000000000000000000000000000000000000a",
                    "revert": false,
                    "revertMessage": "",
                    "selector": "0xf3beae6b",
                    "status": true,
                    "value": "0"
                },
                "nodeType": 0
            },
            "9": {
                "invocation": {
                    "address": "0x629cdec6acc980ebeebea9e5003bcd44db9fc5ce",
                    "callData": "0x000000000000000000000000000000000000000000000000000000000732816a",
                    "decodedMethod": {
                        "callParams": [
                            {
                                "name": "",
                                "type": "uint256",
                                "value": "120,750,442"
                            }
                        ],
                        "constructorArguments": "",
                        "name": "cardProtos",
                        "returnParams": [
                            {
                                "name": "",
                                "type": "uint16",
                                "value": "10"
                            }
                        ],
                        "signature": "cardProtos(uint256)"
                    },
                    "errorInfo": "",
                    "fromAddress": "0x0e3a2a1f2146d86a604adc220b4967a898d7fe07",
                    "gasUsed": 2163,
                    "id": 9,
                    "methodDecoded": true,
                    "operation": "STATICCALL",
                    "output": "0x000000000000000000000000000000000000000000000000000000000000000a",
                    "revert": false,
                    "revertMessage": "",
                    "selector": "0xf3beae6b",
                    "status": true,
                    "value": "0"
                },
                "nodeType": 0
            }
        },
        "gasFlame": [
            {
                "children": [
                    {
                        "children": [
                            {
                                "children": [],
                                "depth": 0,
                                "name": "Initial Gas",
                                "value": 28172
                            },
                            {
                                "children": [
                                    {
                                        "children": [],
                                        "depth": 1,
                                        "name": "deposit",
                                        "value": 22674
                                    },
                                    {
                                        "children": [
                                            {
                                                "children": [],
                                                "depth": 2,
                                                "name": "ecrecover",
                                                "value": 3000
                                            },
                                            {
                                                "children": [
                                                    {
                                                        "children": [
                                                            {
                                                                "children": [],
                                                                "depth": 4,
                                                                "name": "cardProtos",
                                                                "value": 2163
                                                            },
                                                            {
                                                                "children": [],
                                                                "depth": 4,
                                                                "name": "cardProtos",
                                                                "value": 2163
                                                            }
                                                        ],
                                                        "depth": 3,
                                                        "name": "transferFrom",
                                                        "value": 91364
                                                    }
                                                ],
                                                "depth": 2,
                                                "name": "transferFrom",
                                                "value": 93426
                                            },
                                            {
                                                "children": [
                                                    {
                                                        "children": [],
                                                        "depth": 3,
                                                        "name": "transferFrom",
                                                        "value": 11825
                                                    }
                                                ],
                                                "depth": 2,
                                                "name": "transferFrom",
                                                "value": 13879
                                            }
                                        ],
                                        "depth": 1,
                                        "name": "fillOrder",
                                        "value": 185479
                                    },
                                    {
                                        "children": [
                                            {
                                                "children": [],
                                                "depth": 2,
                                                "name": "fallback",
                                                "value": 868
                                            }
                                        ],
                                        "depth": 1,
                                        "name": "withdraw",
                                        "value": 12708
                                    },
                                    {
                                        "children": [],
                                        "depth": 1,
                                        "name": "fallback",
                                        "value": 0
                                    },
                                    {
                                        "children": [
                                            {
                                                "children": [],
                                                "depth": 2,
                                                "name": "cardProtos",
                                                "value": 2163
                                            },
                                            {
                                                "children": [],
                                                "depth": 2,
                                                "name": "cardProtos",
                                                "value": 2163
                                            }
                                        ],
                                        "depth": 1,
                                        "name": "transferFrom",
                                        "value": 54642
                                    }
                                ],
                                "depth": 0,
                                "name": "Executed Gas",
                                "value": 315649
                            }
                        ],
                        "depth": -1,
                        "name": "Actual Gas Used",
                        "value": 286221
                    },
                    {
                        "children": [],
                        "depth": -1,
                        "name": "Refunded Gas",
                        "value": 57600
                    }
                ],
                "depth": -2,
                "name": "Total Gas",
                "value": 343821
            }
        ],
        "isConfirmed": true,
        "mainTrace": [
            {
                "children": [
                    {
                        "children": [
                            {
                                "children": [
                                    {
                                        "children": [],
                                        "depth": 2,
                                        "id": 2,
                                        "order": 2
                                    }
                                ],
                                "depth": 1,
                                "id": 1,
                                "order": 1
                            },
                            {
                                "children": [
                                    {
                                        "children": [],
                                        "depth": 2,
                                        "id": 4,
                                        "order": 4
                                    },
                                    {
                                        "children": [],
                                        "depth": 2,
                                        "id": 5,
                                        "order": 5
                                    },
                                    {
                                        "children": [
                                            {
                                                "children": [
                                                    {
                                                        "children": [],
                                                        "depth": 4,
                                                        "id": 8,
                                                        "order": 8
                                                    },
                                                    {
                                                        "children": [],
                                                        "depth": 4,
                                                        "id": 9,
                                                        "order": 9
                                                    },
                                                    {
                                                        "children": [],
                                                        "depth": 4,
                                                        "id": 10,
                                                        "order": 10
                                                    }
                                                ],
                                                "depth": 3,
                                                "id": 7,
                                                "order": 7
                                            }
                                        ],
                                        "depth": 2,
                                        "id": 6,
                                        "order": 6
                                    },
                                    {
                                        "children": [
                                            {
                                                "children": [
                                                    {
                                                        "children": [],
                                                        "depth": 4,
                                                        "id": 13,
                                                        "order": 13
                                                    }
                                                ],
                                                "depth": 3,
                                                "id": 12,
                                                "order": 12
                                            }
                                        ],
                                        "depth": 2,
                                        "id": 11,
                                        "order": 11
                                    }
                                ],
                                "depth": 1,
                                "id": 3,
                                "order": 3
                            },
                            {
                                "children": [
                                    {
                                        "children": [],
                                        "depth": 2,
                                        "id": 15,
                                        "order": 15
                                    },
                                    {
                                        "children": [],
                                        "depth": 2,
                                        "id": 16,
                                        "order": 16
                                    }
                                ],
                                "depth": 1,
                                "id": 14,
                                "order": 14
                            },
                            {
                                "children": [],
                                "depth": 1,
                                "id": 17,
                                "order": 17
                            },
                            {
                                "children": [
                                    {
                                        "children": [],
                                        "depth": 2,
                                        "id": 19,
                                        "order": 19
                                    },
                                    {
                                        "children": [],
                                        "depth": 2,
                                        "id": 20,
                                        "order": 20
                                    },
                                    {
                                        "children": [],
                                        "depth": 2,
                                        "id": 21,
                                        "order": 21
                                    }
                                ],
                                "depth": 1,
                                "id": 18,
                                "order": 18
                            }
                        ],
                        "depth": 0,
                        "id": 0,
                        "order": 0
                    }
                ],
                "depth": -1,
                "id": -1,
                "order": -1
            }
        ],
        "mainTraceNodeCount": 22,
        "parentIdMap": {
            "0": -1,
            "1": 0,
            "10": 7,
            "11": 3,
            "12": 11,
            "13": 12,
            "14": 0,
            "15": 14,
            "16": 14,
            "17": 0,
            "18": 0,
            "19": 18,
            "2": 1,
            "20": 18,
            "21": 18,
            "3": 0,
            "4": 3,
            "5": 3,
            "6": 3,
            "7": 6,
            "8": 7,
            "9": 7
        },
        "tidyTrace": [
            {
                "children": [
                    {
                        "children": [
                            {
                                "children": [
                                    {
                                        "children": [],
                                        "depth": 2,
                                        "id": 2,
                                        "order": 2
                                    }
                                ],
                                "depth": 1,
                                "id": 1,
                                "order": 1
                            },
                            {
                                "children": [
                                    {
                                        "children": [],
                                        "depth": 2,
                                        "id": 4,
                                        "order": 4
                                    },
                                    {
                                        "children": [],
                                        "depth": 2,
                                        "id": 5,
                                        "order": 5
                                    },
                                    {
                                        "children": [
                                            {
                                                "children": [
                                                    {
                                                        "children": [],
                                                        "depth": 4,
                                                        "id": 10,
                                                        "order": 10
                                                    }
                                                ],
                                                "depth": 3,
                                                "id": 7,
                                                "order": 7
                                            }
                                        ],
                                        "depth": 2,
                                        "id": 6,
                                        "order": 6
                                    },
                                    {
                                        "children": [
                                            {
                                                "children": [
                                                    {
                                                        "children": [],
                                                        "depth": 4,
                                                        "id": 13,
                                                        "order": 13
                                                    }
                                                ],
                                                "depth": 3,
                                                "id": 12,
                                                "order": 12
                                            }
                                        ],
                                        "depth": 2,
                                        "id": 11,
                                        "order": 11
                                    }
                                ],
                                "depth": 1,
                                "id": 3,
                                "order": 3
                            },
                            {
                                "children": [
                                    {
                                        "children": [],
                                        "depth": 2,
                                        "id": 15,
                                        "order": 15
                                    },
                                    {
                                        "children": [],
                                        "depth": 2,
                                        "id": 16,
                                        "order": 16
                                    }
                                ],
                                "depth": 1,
                                "id": 14,
                                "order": 14
                            },
                            {
                                "children": [],
                                "depth": 1,
                                "id": 17,
                                "order": 17
                            },
                            {
                                "children": [
                                    {
                                        "children": [],
                                        "depth": 2,
                                        "id": 21,
                                        "order": 21
                                    }
                                ],
                                "depth": 1,
                                "id": 18,
                                "order": 18
                            }
                        ],
                        "depth": 0,
                        "id": 0,
                        "order": 0
                    }
                ],
                "depth": -1,
                "id": -1,
                "order": -1
            }
        ],
        "tidyTraceNodeCount": 18
    },
    "state_change": {}
}