{
    "balance_change": {
        "balanceChanges": []
    },
    "profile": {
        "basic_info": {
            "baseFee": "",
            "blockNumber": 6498181,
            "callData": "0x47807f8700000000000000000000000000000000000000000000000000000000000000400000000000000000000000000000000000000000000000000000000000001388000000000000000000000000000000000000000000000000000000000000000b4e616d6565656565656565000000000000000000000000000000000000000000",
            "debugEnable": true,
            "errorInfo": "out of gas",
            "eventCount": 4,
            "feeRecipient": "0x5a0b54d5dc17e0aadc383d2db43b0a0d3e029c4c",
            "formatValue": "0.01",
            "gasLimit": 243404,
            "gasPrice": "5",
            "gasUsed": 243404,
            "intTxnCount": 4,
            "internalRevert": true,
            "internalRevertMessage": "",
            "isContractCreation": false,
            "isFlashloan": false,
            "maxFee": "",
            "nonce": 39,
            "overwritedBlockNumber": -1,
            "priorityFee": "",
            "receiver": "0x011c77fa577c500deedad364b8af9e8540b808c0",
            "revertMessage": "",
            "sender": "0x4383e10a9fd27fc6332a91e5398484cb7bc4da89",
            "simulationEnable": true,
            "sourceTxnHash": "0x39f15e094c33e9be6a67003fe29f3de55a68808e34f5ea431dab3c14a3c9fe66",
            "status": false,
            "timestamp": "2018-10-12T00:48:26Z",
            "transactionFee": "0.00121702",
            "txnHash": "0x39f15e094c33e9be6a67003fe29f3de55a68808e34f5ea431dab3c14a3c9fe66",
            "txnIndex": 106,
            "type": 0,
            "value": "10000000000000000"
        },
        "fund_flow": [],
        "token_infos": [
            {
                "address": "0xeeeeeeeeeeeeeeeeeeeeeeeeeeeeeeeeeeeeeeee",
                "decimals": 18
            },
            {
                "address": "0xc02aaa39b223fe8d0a0e5c4f27ead9083c756cc2",
                "decimals": 18
            }
        ]
    },
    "address_label": {
        "labels": [
            {
                "address": "0x0000000000000000000000000000000000000001",
                "label": "Precompiled"
            },
            {
                "address": "0x0000000000000000000000000000000000000002",
                "label": "Precompiled"
            },
            {
                "address": "0x0000000000000000000000000000000000000003",
                "label": "Precompiled"
            },
            {
                "address": "0x0000000000000000000000000000000000000004",
                "label": "Precompiled"
            },
            {
                "address": "0xeeeeeeeeeeeeeeeeeeeeeeeeeeeeeeeeeeeeeeee",
                "label": "Ether"
            },
            {
                "address": "0x011c77fa577c500deedad364b8af9e8540b808c0",
                "label": "ImmortalPlayerCharacter (IPC)"
            },
            {
                "address": "0x8055d0504666e2b6942beb8d6014c964658ca591",
                "label": "FiatContract"
            }
        ]
    },
    "trace": {
        "accountLabels": null,
        "dataMap": {
            "-1": {
                "invocation": {
                    "address": "0x4383e10a9fd27fc6332a91e5398484cb7bc4da89",
                    "callData": "",
                    "decodedMethod": null,
                    "errorInfo": "",
                    "fromAddress": "",
                    "gasUsed": 0,
                    "id": -1,
                    "methodDecoded": false,
                    "operation": "",
                    "output": "",
                    "revert": false,
                    "revertMessage": "",
                    "selector": "",
                    "status": false,
                    "value": ""
                },
                "nodeType": 0
            },
            "0": {
                "invocation": {
                    "address": "0x011c77fa577c500deedad364b8af9e8540b808c0",
                    "callData": "0x00000000000000000000000000000000000000000000000000000000000000400000000000000000000000000000000000000000000000000000000000001388000000000000000000000000000000000000000000000000000000000000000b4e616d6565656565656565000000000000000000000000000000000000000000",
                    "decodedMethod": null,
                    "errorInfo": "out of gas",
                    "fromAddress": "0x4383e10a9fd27fc6332a91e5398484cb7bc4da89",
                    "gasUsed": 243404,
                    "id": 0,
                    "methodDecoded": false,
                    "operation": "CALL",
                    "output": "",
                    "revert": true,
                    "revertMessage": "",
                    "selector": "0x47807f87",
                    "status": false,
                    "value": "0.01"
                },
                "nodeType": 0
            },
            "1": {
                "invocation": {
                    "address": "0x8055d0504666e2b6942beb8d6014c964658ca591",
                    "callData": "0x0000000000000000000000000000000000000000000000000000000000000000",
                    "decodedMethod": {
                        "callParams": [
                            {
                                "name": "_id",
                                "type": "uint256",
                                "value": "0"
                            }
                        ],
                        "constructorArguments": "",
                        "name": "USD",
                        "returnParams": [
                            {
                                "name": "",
                                "type": "uint256",
                                "value": "52,834,746,820,000"
                            }
                        ],
                        "signature": "USD(uint256)"
                    },
                    "errorInfo": "",
                    "fromAddress": "0x011c77fa577c500deedad364b8af9e8540b808c0",
                    "gasUsed": 537,
                    "id": 1,
                    "methodDecoded": true,
                    "operation": "CALL",
                    "output": "0x0000000000000000000000000000000000000000000000000000300d8c50e5a0",
                    "revert": true,
                    "revertMessage": "",
                    "selector": "0x0c560c64",
                    "status": true,
                    "value": "0"
                },
                "nodeType": 0
            },
            "2": {
                "invocation": {
                    "address": "0x8055d0504666e2b6942beb8d6014c964658ca591",
                    "callData": "0x0000000000000000000000000000000000000000000000000000000000000000",
                    "decodedMethod": {
                        "callParams": [
                            {
                                "name": "_id",
                                "type": "uint256",
                                "value": "0"
                            }
                        ],
                        "constructorArguments": "",
                        "name": "USD",
                        "returnParams": [
                            {
                                "name": "",
                                "type": "uint256",
                                "value": "52,834,746,820,000"
                            }
                        ],
                        "signature": "USD(uint256)"
                    },
                    "errorInfo": "",
                    "fromAddress": "0x011c77fa577c500deedad364b8af9e8540b808c0",
                    "gasUsed": 537,
                    "id": 2,
                    "methodDecoded": true,
                    "operation": "CALL",
                    "output": "0x0000000000000000000000000000000000000000000000000000300d8c50e5a0",
                    "revert": true,
                    "revertMessage": "",
                    "selector": "0x0c560c64",
                    "status": true,
                    "value": "0"
                },
                "nodeType": 0
            },
            "3": {
                "event": {
                    "contract": "0x011c77fa577c500deedad364b8af9e8540b808c0",
                    "decodedLog": {
                        "name": "PriceChanged",
                        "params": [
                            {
                                "name": "issuanceId",
                                "type": "uint256",
                                "value": "1,000"
                            },
                            {
                                "name": "from",
                                "type": "uint256",
                                "value": "0"
                            },
                            {
                                "name": "to",
                                "type": "uint256",
                                "value": "5,000"
                            }
                        ],
                        "signature": "PriceChanged(uint256,uint256,uint256)"
                    },
                    "id": 3,
                    "logData": "0x00000000000000000000000000000000000000000000000000000000000000000000000000000000000000000000000000000000000000000000000000001388",
                    "logDecoded": true,
                    "operation": "EVENT",
                    "revert": true,
                    "status": false,
                    "topics": [
                        "0x2bce37c591c5b0d254c3056688b080a088f160fff82b6e79f456c8a20d5570f6",
                        "0x00000000000000000000000000000000000000000000000000000000000003e8"
                    ]
                },
                "nodeType": 1
            },
            "4": {
                "event": {
                    "contract": "0x011c77fa577c500deedad364b8af9e8540b808c0",
                    "decodedLog": null,
                    "id": 4,
                    "logData": "0x00000000000000000000000000000000000000000000000000000000000003e80000000000000000000000000000000000000000000000000000000000000040000000000000000000000000000000000000000000000000000000000000000b4e616d6565656565656565000000000000000000000000000000000000000000",
                    "logDecoded": false,
                    "operation": "EVENT",
                    "revert": true,
                    "status": false,
                    "topics": [
                        "0xa8aa44d4c04f6a42cbcb3e9422cced663c11b9662445100f1d09c3dd39b2c763",
                        "0x0000000000000000000000004383e10a9fd27fc6332a91e5398484cb7bc4da89"
                    ]
                },
                "nodeType": 1
            },
            "5": {
                "event": {
                    "contract": "0x011c77fa577c500deedad364b8af9e8540b808c0",
                    "decodedLog": {
                        "name": "Transfer",
                        "params": [
                            {
                                "name": "from",
                                "type": "address",
                                "value": "0x0000000000000000000000000000000000000000"
                            },
                            {
                                "name": "to",
                                "type": "address",
                                "value": "0x4383e10a9fd27fc6332a91e5398484cb7bc4da89"
                            },
                            {
                                "decimalAvailable": true,
                                "name": "tokenId",
                                "type": "uint256",
                                "value": "1,000"
                            }
                        ],
                        "signature": "Transfer(address,address,uint256)"
                    },
                    "id": 5,
                    "logData": "0x",
                    "logDecoded": true,
                    "operation": "EVENT",
                    "revert": true,
                    "status": false,
                    "topics": [
                        "0xddf252ad1be2c89b69c2b068fc378daa952ba7f163c4a11628f55a4df523b3ef",
                        "0x0000000000000000000000000000000000000000000000000000000000000000",
                        "0x0000000000000000000000004383e10a9fd27fc6332a91e5398484cb7bc4da89",
                        "0x00000000000000000000000000000000000000000000000000000000000003e8"
                    ]
                },
                "nodeType": 1
            },
            "6": {
                "event": {
                    "contract": "0x011c77fa577c500deedad364b8af9e8540b808c0",
                    "decodedLog": null,
                    "id": 6,
                    "logData": "0x00000000000000000000000000000000000000000000000000000000000003e87135b4d1853715974bdbeeb64a8e80e950ba35bbefdcb2b8c180409f66d8ddecfa18020cd527241b9be074f70bb55584c1cb3daa819dc1ac72caa570eb9424d0",
                    "logDecoded": false,
                    "operation": "EVENT",
                    "revert": true,
                    "status": false,
                    "topics": [
                        "0x0d1543c58f2f65d9a93c401d172d417b2a0565b31efa6b2ad8050fcb027fcfb0"
                    ]
                },
                "nodeType": 1
            },
            "7": {
                "invocation": {
                    "address": "0x4383e10a9fd27fc6332a91e5398484cb7bc4da89",
                    "callData": "0x",
                    "decodedMethod": null,
                    "errorInfo": "",
                    "fromAddress": "0x011c77fa577c500deedad364b8af9e8540b808c0",
                    "gasUsed": 0,
                    "id": 7,
                    "methodDecoded": false,
                    "operation": "CALL",
                    "output": "",
                    "revert": true,
                    "revertMessage": "",
                    "selector": "fallback",
                    "status": true,
                    "value": "0.0086791313295"
                },
                "nodeType": 0
            },
            "8": {
                "invocation": {
                    "address": "0x4a4567edbe748e540fb002967ff862b5d0b8f811",
                    "callData": "0x",
                    "decodedMethod": null,
                    "errorInfo": "",
                    "fromAddress": "0x011c77fa577c500deedad364b8af9e8540b808c0",
                    "gasUsed": 0,
                    "id": 8,
                    "methodDecoded": false,
                    "operation": "CALL",
                    "output": "",
                    "revert": true,
                    "revertMessage": "",
                    "selector": "fallback",
                    "status": true,
                    "value": "0.0013208686705"
                },
                "nodeType": 0
            }
        },
        "gasFlame": [
            {
                "children": [
                    {
                        "children": [
                            {
                                "children": [],
                                "depth": 0,
                                "name": "Initial Gas",
                                "value": 22744
                            },
                            {
                                "children": [
                                    {
                                        "children": [],
                                        "depth": 1,
                                        "name": "USD",
                                        "value": 537
                                    },
                                    {
                                        "children": [],
                                        "depth": 1,
                                        "name": "USD",
                                        "value": 537
                                    },
                                    {
                                        "children": [],
                                        "depth": 1,
                                        "name": "fallback",
                                        "value": 0
                                    },
                                    {
                                        "children": [],
                                        "depth": 1,
                                        "name": "fallback",
                                        "value": 0
                                    }
                                ],
                                "depth": 0,
                                "name": "Executed Gas",
                                "value": 220660
                            }
                        ],
                        "depth": -1,
                        "name": "Actual Gas Used",
                        "value": 243404
                    },
                    {
                        "children": [],
                        "depth": -1,
                        "name": "Refunded Gas",
                        "value": 0
                    }
                ],
                "depth": -2,
                "name": "Total Gas",
                "value": 243404
            }
        ],
        "isConfirmed": true,
        "mainTrace": [
            {
                "children": [
                    {
                        "children": [
                            {
                                "children": [],
                                "depth": 1,
                                "id": 1,
                                "order": 1
                            },
                            {
                                "children": [],
                                "depth": 1,
                                "id": 2,
                                "order": 2
                            },
                            {
                                "children": [],
                                "depth": 1,
                                "id": 3,
                                "order": 3
                            },
                            {
                                "children": [],
                                "depth": 1,
                                "id": 4,
                                "order": 4
                            },
                            {
                                "children": [],
                                "depth": 1,
                                "id": 5,
                                "order": 5
                            },
                            {
                                "children": [],
                                "depth": 1,
                                "id": 6,
                                "order": 6
                            },
                            {
                                "children": [],
                                "depth": 1,
                                "id": 7,
                                "order": 7
                            },
                            {
                                "children": [],
                                "depth": 1,
                                "id": 8,
                                "order": 8
                            }
                        ],
                        "depth": 0,
                        "id": 0,
                        "order": 0
                    }
                ],
                "depth": -1,
                "id": -1,
                "order": -1
            }
        ],
        "mainTraceNodeCount": 9,
        "parentIdMap": {
            "0": -1,
            "1": 0,
            "2": 0,
            "3": 0,
            "4": 0,
            "5": 0,
            "6": 0,
            "7": 0,
            "8": 0
        },
        "tidyTrace": [
            {
                "children": [
                    {
                        "children": [
                            {
                                "children": [],
                                "depth": 1,
                                "id": 1,
                                "order": 1
                            },
                            {
                                "children": [],
                                "depth": 1,
                                "id": 2,
                                "order": 2
                            },
                            {
                                "children": [],
                                "depth": 1,
                                "id": 3,
                                "order": 3
                            },
                            {
                                "children": [],
                                "depth": 1,
                                "id": 4,
                                "order": 4
                            },
                            {
                                "children": [],
                                "depth": 1,
                                "id": 5,
                                "order": 5
                            },
                            {
                                "children": [],
                                "depth": 1,
                                "id": 6,
                                "order": 6
                            },
                            {
                                "children": [],
                                "depth": 1,
                                "id": 7,
                                "order": 7
                            },
                            {
                                "children": [],
                                "depth": 1,
                                "id": 8,
                                "order": 8
                            }
                        ],
                        "depth": 0,
                        "id": 0,
                        "order": 0
                    }
                ],
                "depth": -1,
                "id": -1,
                "order": -1
            }
        ],
        "tidyTraceNodeCount": 9
    },
    "state_change": {
        "stateChanges": []
    }
}