{
    "balance_change": {
        "balanceChanges": [
            {
                "account": "0xe33e62e12f9a9b33eafafb633d8d061dbc9c2fb6",
                "assets": [
                    {
                        "address": "0x6b175474e89094c44da98b954eedeac495271d0f",
                        "amount": "1,844.286189858550177664",
                        "iconUrl": "https://assets.blocksec.com/icon/39aead569b9c011cb6f69734d9abbc9ab6a80049fe93bbd12bb473a3e0e859a3.png",
                        "isERC1155": false,
                        "isERC721": false,
                        "sign": false,
                        "value": "1842.4419038099999985"
                    }
                ]
            },
            {
                "account": "0x28c6c06298d514db089934071355e5743bf21d60",
                "assets": [
                    {
                        "address": "0x6b175474e89094c44da98b954eedeac495271d0f",
                        "amount": "1,844.286189858550177664",
                        "iconUrl": "https://assets.blocksec.com/icon/39aead569b9c011cb6f69734d9abbc9ab6a80049fe93bbd12bb473a3e0e859a3.png",
                        "isERC1155": false,
                        "isERC721": false,
                        "sign": true,
                        "value": "1842.4419038099999985"
                    }
                ]
            }
        ]
    },
    "profile": {
        "basic_info": {
            "baseFee": "4.893584216",
            "blockNumber": 20473750,
            "callData": "0xa9059cbb00000000000000000000000028c6c06298d514db089934071355e5743bf21d60000000000000000000000000000000000000000000000063fa9cc63ab583df80",
            "debugEnable": true,
            "errorInfo": "",
            "eventCount": 1,
            "feeRecipient": "0xdf99a0839818b3f120ebac9b73f82b617dc6a555",
            "formatValue": "0",
            "gasLimit": 41691,
            "gasPrice": "5",
            "gasUsed": 29942,
            "intTxnCount": 0,
            "internalRevert": false,
            "internalRevertMessage": "",
            "isContractCreation": false,
            "isFlashloan": false,
            "maxFee": "5",
            "nonce": 28,
            "overwritedBlockNumber": -1,
            "priorityFee": "2",
            "receiver": "0x6b175474e89094c44da98b954eedeac495271d0f",
            "revertMessage": "",
            "sender": "0xe33e62e12f9a9b33eafafb633d8d061dbc9c2fb6",
            "simulationEnable": true,
            "sourceTxnHash": "0x393428d416fe48dcbada18e4a0c77a5fcbcae0c1c568480e5caca718fa3da7b1",
            "status": true,
            "timestamp": "2024-08-07T02:36:35Z",
            "transactionFee": "0.00014971",
            "txnHash": "0x393428d416fe48dcbada18e4a0c77a5fcbcae0c1c568480e5caca718fa3da7b1",
            "txnIndex": 132,
            "type": 2,
            "value": "0"
        },
        "fund_flow": [
            {
                "amount": "1,844.286189858550177664",
                "from": "0xe33e62e12f9a9b33eafafb633d8d061dbc9c2fb6",
                "id": 1,
                "isERC1155": false,
                "isERC721": false,
                "isReverted": false,
                "order": 1,
                "to": "0x28c6c06298d514db089934071355e5743bf21d60",
                "token": "0x6b175474e89094c44da98b954eedeac495271d0f"
            }
        ],
        "token_infos": [
            {
                "address": "0x6b175474e89094c44da98b954eedeac495271d0f",
                "decimals": 18
            },
            {
                "address": "0xc02aaa39b223fe8d0a0e5c4f27ead9083c756cc2",
                "decimals": 18
            },
            {
                "address": "0xeeeeeeeeeeeeeeeeeeeeeeeeeeeeeeeeeeeeeeee",
                "decimals": 18
            }
        ]
    },
    "address_label": {
        "labels": [
            {
                "address": "0xeeeeeeeeeeeeeeeeeeeeeeeeeeeeeeeeeeeeeeee",
                "label": "Ether"
            },
            {
                "address": "0x6b175474e89094c44da98b954eedeac495271d0f",
                "label": "Sky: Dai Stablecoin"
            },
            {
                "address": "0x28c6c06298d514db089934071355e5743bf21d60",
                "label": "Binance 14"
            },
            {
                "address": "0xe33e62e12f9a9b33eafafb633d8d061dbc9c2fb6",
                "label": "BINANCE"
            },
            {
                "address": "0x0000000000000000000000000000000000000001",
                "label": "Precompiled"
            },
            {
                "address": "0x0000000000000000000000000000000000000002",
                "label": "Precompiled"
            },
            {
                "address": "0x0000000000000000000000000000000000000003",
                "label": "Precompiled"
            },
            {
                "address": "0x0000000000000000000000000000000000000004",
                "label": "Precompiled"
            }
        ]
    },
    "trace": {
        "accountLabels": null,
        "dataMap": {
            "-1": {
                "invocation": {
                    "address": "0xe33e62e12f9a9b33eafafb633d8d061dbc9c2fb6",
                    "callData": "",
                    "decodedMethod": null,
                    "errorInfo": "",
                    "fromAddress": "",
                    "gasUsed": 0,
                    "id": -1,
                    "methodDecoded": false,
                    "operation": "",
                    "output": "",
                    "revert": false,
                    "revertMessage": "",
                    "selector": "",
                    "status": false,
                    "value": ""
                },
                "nodeType": 0
            },
            "0": {
                "invocation": {
                    "address": "0x6b175474e89094c44da98b954eedeac495271d0f",
                    "callData": "0x00000000000000000000000028c6c06298d514db089934071355e5743bf21d60000000000000000000000000000000000000000000000063fa9cc63ab583df80",
                    "decodedMethod": {
                        "callParams": [
                            {
                                "name": "dst",
                                "type": "address",
                                "value": "0x28c6c06298d514db089934071355e5743bf21d60"
                            },
                            {
                                "decimalAvailable": true,
                                "name": "wad",
                                "type": "uint256",
                                "value": "1,844,286,189,858,550,177,664"
                            }
                        ],
                        "constructorArguments": "",
                        "name": "transfer",
                        "returnParams": [
                            {
                                "name": "",
                                "type": "bool",
                                "value": true
                            }
                        ],
                        "signature": "transfer(address,uint256)"
                    },
                    "errorInfo": "",
                    "fromAddress": "0xe33e62e12f9a9b33eafafb633d8d061dbc9c2fb6",
                    "gasUsed": 29942,
                    "id": 0,
                    "methodDecoded": true,
                    "operation": "CALL",
                    "output": "0x0000000000000000000000000000000000000000000000000000000000000001",
                    "revert": false,
                    "revertMessage": "",
                    "selector": "0xa9059cbb",
                    "status": true,
                    "value": "0"
                },
                "nodeType": 0
            },
            "1": {
                "event": {
                    "contract": "0x6b175474e89094c44da98b954eedeac495271d0f",
                    "decodedLog": {
                        "name": "Transfer",
                        "params": [
                            {
                                "name": "src",
                                "type": "address",
                                "value": "0xe33e62e12f9a9b33eafafb633d8d061dbc9c2fb6"
                            },
                            {
                                "name": "dst",
                                "type": "address",
                                "value": "0x28c6c06298d514db089934071355e5743bf21d60"
                            },
                            {
                                "decimalAvailable": true,
                                "name": "wad",
                                "type": "uint256",
                                "value": "1,844,286,189,858,550,177,664"
                            }
                        ],
                        "signature": "Transfer(address,address,uint256)"
                    },
                    "id": 1,
                    "logData": "0x000000000000000000000000000000000000000000000063fa9cc63ab583df80",
                    "logDecoded": true,
                    "operation": "EVENT",
                    "revert": false,
                    "status": true,
                    "topics": [
                        "0xddf252ad1be2c89b69c2b068fc378daa952ba7f163c4a11628f55a4df523b3ef",
                        "0x000000000000000000000000e33e62e12f9a9b33eafafb633d8d061dbc9c2fb6",
                        "0x00000000000000000000000028c6c06298d514db089934071355e5743bf21d60"
                    ]
                },
                "nodeType": 1
            }
        },
        "gasFlame": [
            {
                "children": [
                    {
                        "children": [
                            {
                                "children": [],
                                "depth": 0,
                                "name": "Initial Gas",
                                "value": 21668
                            },
                            {
                                "children": [],
                                "depth": 0,
                                "name": "Executed Gas",
                                "value": 13074
                            }
                        ],
                        "depth": -1,
                        "name": "Actual Gas Used",
                        "value": 29942
                    },
                    {
                        "children": [],
                        "depth": -1,
                        "name": "Refunded Gas",
                        "value": 4800
                    }
                ],
                "depth": -2,
                "name": "Total Gas",
                "value": 34742
            }
        ],
        "isConfirmed": true,
        "mainTrace": [
            {
                "children": [
                    {
                        "children": [
                            {
                                "children": [],
                                "depth": 1,
                                "id": 1,
                                "order": 1
                            }
                        ],
                        "depth": 0,
                        "id": 0,
                        "order": 0
                    }
                ],
                "depth": -1,
                "id": -1,
                "order": -1
            }
        ],
        "mainTraceNodeCount": 2,
        "parentIdMap": {
            "0": -1,
            "1": 0
        },
        "tidyTrace": [
            {
                "children": [
                    {
                        "children": [
                            {
                                "children": [],
                                "depth": 1,
                                "id": 1,
                                "order": 1
                            }
                        ],
                        "depth": 0,
                        "id": 0,
                        "order": 0
                    }
                ],
                "depth": -1,
                "id": -1,
                "order": -1
            }
        ],
        "tidyTraceNodeCount": 2
    },
    "state_change": {
        "stateChanges": [
            {
                "address": "0x6b175474e89094c44da98b954eedeac495271d0f",
                "erc": "ERC-20",
                "slots": [
                    {
                        "current": "0x00000000000000000000000000000000000000000001f4089d96a8b0d95cb861",
                        "key": "0x78b35599871be95768b2fdfaf9293a4491ecdc8ef25b872ee404fa1e441436e0",
                        "prev": "0x00000000000000000000000000000000000000000001f3a4a2f9e27623d8d8e1"
                    },
                    {
                        "current": "0x0000000000000000000000000000000000000000000000000000000000000000",
                        "key": "0x42537829146f9cdac2f0a2a064140a7750bd7eb726e807a57fa613da464e8e13",
                        "prev": "0x000000000000000000000000000000000000000000000063fa9cc63ab583df80"
                    }
                ],
                "storageVariables": [
                    {
                        "name": "balanceOf",
                        "type": "mapping(address => uint256)",
                        "value": {
                            "pairs": [
                                {
                                    "key": "0x28c6c06298d514db089934071355e5743bf21d60",
                                    "value": {
                                        "current": "2361342170836400258988129",
                                        "prev": "2359497884646541708810465",
                                        "typeTag": 1
                                    }
                                },
                                {
                                    "key": "0xe33e62e12f9a9b33eafafb633d8d061dbc9c2fb6",
                                    "value": {
                                        "current": "0",
                                        "prev": "1844286189858550177664",
                                        "typeTag": 1
                                    }
                                }
                            ],
                            "typeTag": 4
                        }
                    }
                ]
            }
        ]
    }
}