{
    "balance_change": {
        "balanceChanges": [
            {
                "account": "0xc94435c844997e866c8d2d6a554f993a082265cc",
                "assets": [
                    {
                        "address": "0xeeeeeeeeeeeeeeeeeeeeeeeeeeeeeeeeeeeeeeee",
                        "amount": "2",
                        "iconUrl": "https://assets.blocksec.com/image/1663669189317-3.png",
                        "isERC1155": false,
                        "isERC721": false,
                        "sign": false,
                        "value": ""
                    }
                ]
            },
            {
                "account": "0xd2bfceeab8ffa24cdf94faa2683df63df4bcbdc8",
                "assets": [
                    {
                        "address": "0xeeeeeeeeeeeeeeeeeeeeeeeeeeeeeeeeeeeeeeee",
                        "amount": "2",
                        "iconUrl": "https://assets.blocksec.com/image/1663669189317-3.png",
                        "isERC1155": false,
                        "isERC721": false,
                        "sign": true,
                        "value": ""
                    }
                ]
            }
        ]
    },
    "profile": {
        "basic_info": {
            "baseFee": "",
            "blockNumber": 6472023,
            "callData": "0xf088d5470000000000000000000000003a992fa0a54460551aaf1919c4b2f77c5087ca1e",
            "debugEnable": true,
            "errorInfo": "",
            "eventCount": 1,
            "feeRecipient": "0x5a0b54d5dc17e0aadc383d2db43b0a0d3e029c4c",
            "formatValue": "2",
            "gasLimit": 400000,
            "gasPrice": "50",
            "gasUsed": 126693,
            "intTxnCount": 0,
            "internalRevert": false,
            "internalRevertMessage": "",
            "isContractCreation": false,
            "isFlashloan": false,
            "maxFee": "",
            "nonce": 213,
            "overwritedBlockNumber": -1,
            "priorityFee": "",
            "receiver": "0xd2bfceeab8ffa24cdf94faa2683df63df4bcbdc8",
            "revertMessage": "",
            "sender": "0xc94435c844997e866c8d2d6a554f993a082265cc",
            "simulationEnable": true,
            "sourceTxnHash": "0x395d969e503c2b9f0ce270891e0a304b81a033edb45c59156fe90c9fdf4c4c87",
            "status": true,
            "timestamp": "2018-10-07T18:59:28Z",
            "transactionFee": "0.00633465",
            "txnHash": "0x395d969e503c2b9f0ce270891e0a304b81a033edb45c59156fe90c9fdf4c4c87",
            "txnIndex": 56,
            "type": 0,
            "value": "2000000000000000000"
        },
        "fund_flow": [
            {
                "amount": "2",
                "from": "0xc94435c844997e866c8d2d6a554f993a082265cc",
                "id": 1,
                "isERC1155": false,
                "isERC721": false,
                "isReverted": false,
                "order": 1,
                "to": "0xd2bfceeab8ffa24cdf94faa2683df63df4bcbdc8",
                "token": "0xeeeeeeeeeeeeeeeeeeeeeeeeeeeeeeeeeeeeeeee"
            }
        ],
        "token_infos": [
            {
                "address": "0xc02aaa39b223fe8d0a0e5c4f27ead9083c756cc2",
                "decimals": 18
            },
            {
                "address": "0xeeeeeeeeeeeeeeeeeeeeeeeeeeeeeeeeeeeeeeee",
                "decimals": 18
            }
        ]
    },
    "address_label": {
        "labels": [
            {
                "address": "0x0000000000000000000000000000000000000001",
                "label": "Precompiled"
            },
            {
                "address": "0x0000000000000000000000000000000000000002",
                "label": "Precompiled"
            },
            {
                "address": "0x0000000000000000000000000000000000000003",
                "label": "Precompiled"
            },
            {
                "address": "0x0000000000000000000000000000000000000004",
                "label": "Precompiled"
            },
            {
                "address": "0xeeeeeeeeeeeeeeeeeeeeeeeeeeeeeeeeeeeeeeee",
                "label": "Ether"
            },
            {
                "address": "0xd2bfceeab8ffa24cdf94faa2683df63df4bcbdc8",
                "label": "DDT"
            }
        ]
    },
    "trace": {
        "accountLabels": null,
        "dataMap": {
            "-1": {
                "invocation": {
                    "address": "0xc94435c844997e866c8d2d6a554f993a082265cc",
                    "callData": "",
                    "decodedMethod": null,
                    "errorInfo": "",
                    "fromAddress": "",
                    "gasUsed": 0,
                    "id": -1,
                    "methodDecoded": false,
                    "operation": "",
                    "output": "",
                    "revert": false,
                    "revertMessage": "",
                    "selector": "",
                    "status": false,
                    "value": ""
                },
                "nodeType": 0
            },
            "0": {
                "invocation": {
                    "address": "0xd2bfceeab8ffa24cdf94faa2683df63df4bcbdc8",
                    "callData": "0x0000000000000000000000003a992fa0a54460551aaf1919c4b2f77c5087ca1e",
                    "decodedMethod": {
                        "callParams": [
                            {
                                "name": "_referredBy",
                                "type": "address",
                                "value": "0x3a992fa0a54460551aaf1919c4b2f77c5087ca1e"
                            }
                        ],
                        "constructorArguments": "",
                        "name": "buy",
                        "returnParams": [
                            {
                                "name": "",
                                "type": "uint256",
                                "value": "0"
                            }
                        ],
                        "signature": "buy(address)"
                    },
                    "errorInfo": "",
                    "fromAddress": "0xc94435c844997e866c8d2d6a554f993a082265cc",
                    "gasUsed": 126693,
                    "id": 0,
                    "methodDecoded": true,
                    "operation": "CALL",
                    "output": "0x0000000000000000000000000000000000000000000000000000000000000000",
                    "revert": false,
                    "revertMessage": "",
                    "selector": "0xf088d547",
                    "status": true,
                    "value": "2"
                },
                "nodeType": 0
            },
            "1": {
                "event": {
                    "contract": "0xd2bfceeab8ffa24cdf94faa2683df63df4bcbdc8",
                    "decodedLog": {
                        "name": "onTokenPurchase",
                        "params": [
                            {
                                "name": "customerAddress",
                                "type": "address",
                                "value": "0xc94435c844997e866c8d2d6a554f993a082265cc"
                            },
                            {
                                "name": "referredBy",
                                "type": "address",
                                "value": "0x3a992fa0a54460551aaf1919c4b2f77c5087ca1e"
                            },
                            {
                                "name": "incomingEthereum",
                                "type": "uint256",
                                "value": "2,000,000,000,000,000,000"
                            },
                            {
                                "name": "tokensMinted",
                                "type": "uint256",
                                "value": "2,661,615,014,765,035,207,522"
                            }
                        ],
                        "signature": "onTokenPurchase(address,uint256,uint256,address)"
                    },
                    "id": 1,
                    "logData": "0x0000000000000000000000000000000000000000000000001bc16d674ec80000000000000000000000000000000000000000000000000090495412168bff3b62",
                    "logDecoded": true,
                    "operation": "EVENT",
                    "revert": false,
                    "status": true,
                    "topics": [
                        "0x022c0d992e4d873a3748436d960d5140c1f9721cf73f7ca5ec679d3d9f4fe2d5",
                        "0x000000000000000000000000c94435c844997e866c8d2d6a554f993a082265cc",
                        "0x0000000000000000000000003a992fa0a54460551aaf1919c4b2f77c5087ca1e"
                    ]
                },
                "nodeType": 1
            }
        },
        "gasFlame": [
            {
                "children": [
                    {
                        "children": [
                            {
                                "children": [],
                                "depth": 0,
                                "name": "Initial Gas",
                                "value": 22680
                            },
                            {
                                "children": [],
                                "depth": 0,
                                "name": "Executed Gas",
                                "value": 104013
                            }
                        ],
                        "depth": -1,
                        "name": "Actual Gas Used",
                        "value": 126693
                    },
                    {
                        "children": [],
                        "depth": -1,
                        "name": "Refunded Gas",
                        "value": 0
                    }
                ],
                "depth": -2,
                "name": "Total Gas",
                "value": 126693
            }
        ],
        "isConfirmed": true,
        "mainTrace": [
            {
                "children": [
                    {
                        "children": [
                            {
                                "children": [],
                                "depth": 1,
                                "id": 1,
                                "order": 1
                            }
                        ],
                        "depth": 0,
                        "id": 0,
                        "order": 0
                    }
                ],
                "depth": -1,
                "id": -1,
                "order": -1
            }
        ],
        "mainTraceNodeCount": 2,
        "parentIdMap": {
            "0": -1,
            "1": 0
        },
        "tidyTrace": [
            {
                "children": [
                    {
                        "children": [
                            {
                                "children": [],
                                "depth": 1,
                                "id": 1,
                                "order": 1
                            }
                        ],
                        "depth": 0,
                        "id": 0,
                        "order": 0
                    }
                ],
                "depth": -1,
                "id": -1,
                "order": -1
            }
        ],
        "tidyTraceNodeCount": 2
    },
    "state_change": {
        "stateChanges": [
            {
                "address": "0xd2bfceeab8ffa24cdf94faa2683df63df4bcbdc8",
                "erc": "",
                "slots": [
                    {
                        "current": "0x00000000000000000000000000000000049ab0d6cde1195ebb8096284166b1d4",
                        "key": "0xfb46c2bb14a9cf0a8b0ab728d49787b9b172ad4d37a7212efad088b78ca8ef89",
                        "prev": "0x0000000000000000000000000000000000000000000000000000000000000000"
                    },
                    {
                        "current": "0x00000000000000000000000000000000000000000000000094d50e8cb524c380",
                        "key": "0x0000000000000000000000000000000000000000000000000000000000000004",
                        "prev": "0x0000000000000000000000000000000000000000000000009371c914579ac380"
                    },
                    {
                        "current": "0x00000000000000000000000000000000000000000000000001d9b1f5d20d5555",
                        "key": "0xa8de1f2845c7bb2cb912f86aae947318660e169cab2e68a1d199011fe7c250b7",
                        "prev": "0x0000000000000000000000000000000000000000000000000000000000000000"
                    },
                    {
                        "current": "0x00000000000000000000000000000000000000000000779ea9870a7f2f6dc91a",
                        "key": "0x000000000000000000000000000000000000000000000000000000000000000b",
                        "prev": "0x00000000000000000000000000000000000000000000770e6032f868a36e8db8"
                    },
                    {
                        "current": "0x00000000000000000000000000000000000000000000000000083335db139f73",
                        "key": "0x000000000000000000000000000000000000000000000000000000000000000c",
                        "prev": "0x00000000000000000000000000000000000000000000000000082b4a5506300a"
                    },
                    {
                        "current": "0x000000000000000000000000000000000000000000000090495412168bff3b62",
                        "key": "0x9be91edaddd20870fd1eac957ddd971cd14b4bc4b8b15bba4edef62b316dcb17",
                        "prev": "0x0000000000000000000000000000000000000000000000000000000000000000"
                    }
                ],
                "storageVariables": [
                    {
                        "name": "tokenSupply_",
                        "type": "uint256",
                        "value": {
                            "current": "564888412769189528193306",
                            "prev": "562226797754424492985784",
                            "typeTag": 1
                        }
                    },
                    {
                        "name": "profitPerShare_",
                        "type": "uint256",
                        "value": {
                            "current": "2308106215464819",
                            "prev": "2299398067728394",
                            "typeTag": 1
                        }
                    },
                    {
                        "name": "tokenBalanceLedger_",
                        "type": "mapping(address => uint256)",
                        "value": {
                            "pairs": [
                                {
                                    "key": "0xc94435c844997e866c8d2d6a554f993a082265cc",
                                    "value": {
                                        "current": "2661615014765035207522",
                                        "prev": "0",
                                        "typeTag": 1
                                    }
                                }
                            ],
                            "typeTag": 4
                        }
                    },
                    {
                        "name": "payoutsTo_",
                        "type": "mapping(address => int256)",
                        "value": {
                            "pairs": [
                                {
                                    "key": "0xc94435c844997e866c8d2d6a554f993a082265cc",
                                    "value": {
                                        "current": "6120112421987602822427793714921779668",
                                        "prev": "0",
                                        "typeTag": 1
                                    }
                                }
                            ],
                            "typeTag": 4
                        }
                    },
                    {
                        "name": "totalEthFundCollected",
                        "type": "uint256",
                        "value": {
                            "current": "10724494085150000000",
                            "prev": "10624494085150000000",
                            "typeTag": 1
                        }
                    },
                    {
                        "name": "referralBalance_",
                        "type": "mapping(address => uint256)",
                        "value": {
                            "pairs": [
                                {
                                    "key": "0x3a992fa0a54460551aaf1919c4b2f77c5087ca1e",
                                    "value": {
                                        "current": "133333333333333333",
                                        "prev": "0",
                                        "typeTag": 1
                                    }
                                }
                            ],
                            "typeTag": 4
                        }
                    }
                ]
            }
        ]
    }
}