{
    "balance_change": {
        "balanceChanges": []
    },
    "profile": {
        "basic_info": {
            "baseFee": "",
            "blockNumber": 3979261,
            "callData": "0x13f955e10000000000000000000000000000000000000000000000000000000000000040000000000000000000000000000000000000000000000000000000000000000200000000000000000000000000000000000000000000000000000000000000a0020000205ef400ff49ffd05b58c27bb1a589731915ac4003dbb45e00000000000000000048289d647b88286905eaf5f07e98995032cfcf60ba22c3162b7bbf7921b07c79fa59255954d8011875ee7c3a020000208e843a019ea678c67c87ca3c325a0aea025fc01f15129100000000000000000066980e2297eb97f3529fe0226517baff07be7a26a2b4cdaf40bcae09d403ad01c95c255954d80118c6daa32f",
            "debugEnable": true,
            "errorInfo": "",
            "eventCount": 2,
            "feeRecipient": "0x52bc44d5378309ee2abf1539bf71de1b7d7be3b5",
            "formatValue": "0",
            "gasLimit": 500000,
            "gasPrice": "1",
            "gasUsed": 377277,
            "intTxnCount": 12,
            "internalRevert": false,
            "internalRevertMessage": "",
            "isContractCreation": false,
            "isFlashloan": false,
            "maxFee": "",
            "nonce": 17899,
            "overwritedBlockNumber": -1,
            "priorityFee": "",
            "receiver": "0x41f274c0023f83391de4e0733c609df5a124c3d4",
            "revertMessage": "",
            "sender": "0x1d858dfbff7d2557e86a92e7a5593981bea12c94",
            "simulationEnable": true,
            "sourceTxnHash": "0x3954a58b8202e5301088a3bb568f64bd830719a3c96bc47842d5719087d87150",
            "status": true,
            "timestamp": "2017-07-05T18:42:55Z",
            "transactionFee": "0.000377277",
            "txnHash": "0x3954a58b8202e5301088a3bb568f64bd830719a3c96bc47842d5719087d87150",
            "txnIndex": 28,
            "type": 0,
            "value": "0"
        },
        "fund_flow": [],
        "token_infos": [
            {
                "address": "0xc02aaa39b223fe8d0a0e5c4f27ead9083c756cc2",
                "decimals": 18
            },
            {
                "address": "0xeeeeeeeeeeeeeeeeeeeeeeeeeeeeeeeeeeeeeeee",
                "decimals": 18
            }
        ]
    },
    "address_label": {
        "labels": [
            {
                "address": "0x0000000000000000000000000000000000000002",
                "label": "Precompiled"
            },
            {
                "address": "0x0000000000000000000000000000000000000004",
                "label": "Precompiled"
            },
            {
                "address": "0x0000000000000000000000000000000000000001",
                "label": "Precompiled"
            },
            {
                "address": "0x0000000000000000000000000000000000000003",
                "label": "Precompiled"
            },
            {
                "address": "0xeeeeeeeeeeeeeeeeeeeeeeeeeeeeeeeeeeeeeeee",
                "label": "Ether"
            },
            {
                "address": "0x41f274c0023f83391de4e0733c609df5a124c3d4",
                "label": "BTCRelay"
            }
        ]
    },
    "trace": {
        "accountLabels": null,
        "dataMap": {
            "-1": {
                "invocation": {
                    "address": "0x1d858dfbff7d2557e86a92e7a5593981bea12c94",
                    "callData": "",
                    "decodedMethod": null,
                    "errorInfo": "",
                    "fromAddress": "",
                    "gasUsed": 0,
                    "id": -1,
                    "methodDecoded": false,
                    "operation": "",
                    "output": "",
                    "revert": false,
                    "revertMessage": "",
                    "selector": "",
                    "status": false,
                    "value": ""
                },
                "nodeType": 0
            },
            "0": {
                "invocation": {
                    "address": "0x41f274c0023f83391de4e0733c609df5a124c3d4",
                    "callData": "0x0000000000000000000000000000000000000000000000000000000000000040000000000000000000000000000000000000000000000000000000000000000200000000000000000000000000000000000000000000000000000000000000a0020000205ef400ff49ffd05b58c27bb1a589731915ac4003dbb45e00000000000000000048289d647b88286905eaf5f07e98995032cfcf60ba22c3162b7bbf7921b07c79fa59255954d8011875ee7c3a020000208e843a019ea678c67c87ca3c325a0aea025fc01f15129100000000000000000066980e2297eb97f3529fe0226517baff07be7a26a2b4cdaf40bcae09d403ad01c95c255954d80118c6daa32f",
                    "decodedMethod": null,
                    "errorInfo": "",
                    "fromAddress": "0x1d858dfbff7d2557e86a92e7a5593981bea12c94",
                    "gasUsed": 377277,
                    "id": 0,
                    "methodDecoded": false,
                    "operation": "CALL",
                    "output": "0x00000000000000000000000000000000000000000000000000000000000723ad",
                    "revert": false,
                    "revertMessage": "",
                    "selector": "0x13f955e1",
                    "status": true,
                    "value": "0"
                },
                "nodeType": 0
            },
            "1": {
                "invocation": {
                    "address": "0x0000000000000000000000000000000000000004",
                    "callData": "0x5ef400ff49ffd05b58c27bb1a589731915ac4003dbb45e00000000000000000048289d647b88286905eaf5f07e98995032cfcf60ba22c3162b7bbf7921b07c79fa59255954d8011875ee7c3a",
                    "decodedMethod": {
                        "callParams": [
                            {
                                "name": "data",
                                "type": "bytes",
                                "value": "0x020000205ef400ff49ffd05b58c27bb1a589731915ac4003dbb45e00000000000000000048289d647b88286905eaf5f07e98995032cfcf60ba22c3162b7bbf7921b07c79fa59255954d8011875ee7c3a"
                            }
                        ],
                        "constructorArguments": "",
                        "name": "dataCopy()",
                        "returnParams": [
                            {
                                "name": "data",
                                "type": "bytes",
                                "value": "0x020000205ef400ff49ffd05b58c27bb1a589731915ac4003dbb45e00000000000000000048289d647b88286905eaf5f07e98995032cfcf60ba22c3162b7bbf7921b07c79fa59255954d8011875ee7c3a"
                            }
                        ],
                        "signature": "dataCopy(bytes)"
                    },
                    "errorInfo": "",
                    "fromAddress": "0x41f274c0023f83391de4e0733c609df5a124c3d4",
                    "gasUsed": 24,
                    "id": 1,
                    "methodDecoded": true,
                    "operation": "CALL",
                    "output": "0x020000205ef400ff49ffd05b58c27bb1a589731915ac4003dbb45e00000000000000000048289d647b88286905eaf5f07e98995032cfcf60ba22c3162b7bbf7921b07c79fa59255954d8011875ee7c3a",
                    "revert": false,
                    "revertMessage": "",
                    "selector": "0x02000020",
                    "status": true,
                    "value": "0"
                },
                "nodeType": 0
            },
            "10": {
                "invocation": {
                    "address": "0x0000000000000000000000000000000000000004",
                    "callData": "0x00000000000000000000000000000000000000000000000000000050020000208e843a019ea678c67c87ca3c325a0aea025fc01f15129100000000000000000066980e2297eb97f3529fe0226517baff07be7a26a2b4cdaf40bcae09d403ad01c95c255954d80118c6daa32f00000000000000000000000000000000",
                    "decodedMethod": {
                        "callParams": [
                            {
                                "name": "data",
                                "type": "bytes",
                                "value": "0x0000000000000000000000000000000000000000000000000000000000000050020000208e843a019ea678c67c87ca3c325a0aea025fc01f15129100000000000000000066980e2297eb97f3529fe0226517baff07be7a26a2b4cdaf40bcae09d403ad01c95c255954d80118c6daa32f00000000000000000000000000000000"
                            }
                        ],
                        "constructorArguments": "",
                        "name": "dataCopy()",
                        "returnParams": [
                            {
                                "name": "data",
                                "type": "bytes",
                                "value": "0x0000000000000000000000000000000000000000000000000000000000000050020000208e843a019ea678c67c87ca3c325a0aea025fc01f15129100000000000000000066980e2297eb97f3529fe0226517baff07be7a26a2b4cdaf40bcae09d403ad01c95c255954d80118c6daa32f00000000000000000000000000000000"
                            }
                        ],
                        "signature": "dataCopy(bytes)"
                    },
                    "errorInfo": "",
                    "fromAddress": "0x41f274c0023f83391de4e0733c609df5a124c3d4",
                    "gasUsed": 27,
                    "id": 10,
                    "methodDecoded": true,
                    "operation": "CALL",
                    "output": "0x0000000000000000000000000000000000000000000000000000000000000050020000208e843a019ea678c67c87ca3c325a0aea025fc01f15129100000000000000000066980e2297eb97f3529fe0226517baff07be7a26a2b4cdaf40bcae09d403ad01c95c255954d80118c6daa32f00000000000000000000000000000000",
                    "revert": false,
                    "revertMessage": "",
                    "selector": "0x00000000",
                    "status": true,
                    "value": "0"
                },
                "nodeType": 0
            },
            "11": {
                "invocation": {
                    "address": "0x41f274c0023f83391de4e0733c609df5a124c3d4",
                    "callData": "0x00000000000000000000000000000000000000000000000000000000000000200000000000000000000000000000000000000000000000000000000000000050020000208e843a019ea678c67c87ca3c325a0aea025fc01f15129100000000000000000066980e2297eb97f3529fe0226517baff07be7a26a2b4cdaf40bcae09d403ad01c95c255954d80118c6daa32f00000000000000000000000000000000",
                    "decodedMethod": {
                        "callParams": [
                            {
                                "name": "header",
                                "type": "bytes",
                                "value": "0x020000208e843a019ea678c67c87ca3c325a0aea025fc01f15129100000000000000000066980e2297eb97f3529fe0226517baff07be7a26a2b4cdaf40bcae09d403ad01c95c255954d80118c6daa32f"
                            }
                        ],
                        "constructorArguments": "",
                        "name": "storeBlockHeader",
                        "returnParams": [
                            {
                                "name": "",
                                "type": "uint256",
                                "value": "467,885"
                            }
                        ],
                        "signature": "storeBlockHeader(bytes)"
                    },
                    "errorInfo": "",
                    "fromAddress": "0x41f274c0023f83391de4e0733c609df5a124c3d4",
                    "gasUsed": 168491,
                    "id": 11,
                    "methodDecoded": true,
                    "operation": "CALL",
                    "output": "0x00000000000000000000000000000000000000000000000000000000000723ad",
                    "revert": false,
                    "revertMessage": "",
                    "selector": "0x2b861629",
                    "status": true,
                    "value": "0"
                },
                "nodeType": 0
            },
            "12": {
                "invocation": {
                    "address": "0x0000000000000000000000000000000000000002",
                    "callData": "0x8e843a019ea678c67c87ca3c325a0aea025fc01f15129100000000000000000066980e2297eb97f3529fe0226517baff07be7a26a2b4cdaf40bcae09d403ad01c95c255954d80118c6daa32f",
                    "decodedMethod": {
                        "callParams": [
                            {
                                "name": "data",
                                "type": "bytes",
                                "value": "0x020000208e843a019ea678c67c87ca3c325a0aea025fc01f15129100000000000000000066980e2297eb97f3529fe0226517baff07be7a26a2b4cdaf40bcae09d403ad01c95c255954d80118c6daa32f"
                            }
                        ],
                        "constructorArguments": "",
                        "name": "sha256hash",
                        "returnParams": [
                            {
                                "name": "hash",
                                "type": "bytes32",
                                "value": "0x21f146134619e92ee55851cccafb07ed5916b1064dd7c2f908dea1ed99959dd2"
                            }
                        ],
                        "signature": "sha256hash(bytes)"
                    },
                    "errorInfo": "",
                    "fromAddress": "0x41f274c0023f83391de4e0733c609df5a124c3d4",
                    "gasUsed": 96,
                    "id": 12,
                    "methodDecoded": true,
                    "operation": "CALL",
                    "output": "0x21f146134619e92ee55851cccafb07ed5916b1064dd7c2f908dea1ed99959dd2",
                    "revert": false,
                    "revertMessage": "",
                    "selector": "0x02000020",
                    "status": true,
                    "value": "0"
                },
                "nodeType": 0
            },
            "13": {
                "invocation": {
                    "address": "0x0000000000000000000000000000000000000002",
                    "callData": "0x4619e92ee55851cccafb07ed5916b1064dd7c2f908dea1ed99959dd2",
                    "decodedMethod": {
                        "callParams": [
                            {
                                "name": "data",
                                "type": "bytes",
                                "value": "0x21f146134619e92ee55851cccafb07ed5916b1064dd7c2f908dea1ed99959dd2"
                            }
                        ],
                        "constructorArguments": "",
                        "name": "sha256hash",
                        "returnParams": [
                            {
                                "name": "hash",
                                "type": "bytes32",
                                "value": "0x57c1b2d89dfb174415a051fd8e810c868cd5e78656be5b010000000000000000"
                            }
                        ],
                        "signature": "sha256hash(bytes)"
                    },
                    "errorInfo": "",
                    "fromAddress": "0x41f274c0023f83391de4e0733c609df5a124c3d4",
                    "gasUsed": 72,
                    "id": 13,
                    "methodDecoded": true,
                    "operation": "CALL",
                    "output": "0x57c1b2d89dfb174415a051fd8e810c868cd5e78656be5b010000000000000000",
                    "revert": false,
                    "revertMessage": "",
                    "selector": "0x21f14613",
                    "status": true,
                    "value": "0"
                },
                "nodeType": 0
            },
            "14": {
                "event": {
                    "contract": "0x41f274c0023f83391de4e0733c609df5a124c3d4",
                    "decodedLog": null,
                    "id": 14,
                    "logData": "0x",
                    "logDecoded": false,
                    "operation": "EVENT",
                    "revert": false,
                    "status": true,
                    "topics": [
                        "0x055e4f8dd3a534789b3feb8e0681afa2aee8713fdd6472f25b2c30dc7bf4e0f4",
                        "0x0000000000000000015bbe5686e7d58c860c818efd51a0154417fb9dd8b2c157",
                        "0x00000000000000000000000000000000000000000000000000000000000723ad"
                    ]
                },
                "nodeType": 1
            },
            "2": {
                "invocation": {
                    "address": "0x0000000000000000000000000000000000000004",
                    "callData": "0x0000000000000000000000000000000000000000000000000000000000000020",
                    "decodedMethod": {
                        "callParams": [
                            {
                                "name": "data",
                                "type": "bytes",
                                "value": "0x2b8616290000000000000000000000000000000000000000000000000000000000000020"
                            }
                        ],
                        "constructorArguments": "",
                        "name": "dataCopy()",
                        "returnParams": [
                            {
                                "name": "data",
                                "type": "bytes",
                                "value": "0x2b8616290000000000000000000000000000000000000000000000000000000000000020"
                            }
                        ],
                        "signature": "dataCopy(bytes)"
                    },
                    "errorInfo": "",
                    "fromAddress": "0x41f274c0023f83391de4e0733c609df5a124c3d4",
                    "gasUsed": 21,
                    "id": 2,
                    "methodDecoded": true,
                    "operation": "CALL",
                    "output": "0x2b8616290000000000000000000000000000000000000000000000000000000000000020",
                    "revert": false,
                    "revertMessage": "",
                    "selector": "0x2b861629",
                    "status": true,
                    "value": "0"
                },
                "nodeType": 0
            },
            "3": {
                "invocation": {
                    "address": "0x0000000000000000000000000000000000000004",
                    "callData": "0x00000000000000000000000000000000000000000000000000000050020000205ef400ff49ffd05b58c27bb1a589731915ac4003dbb45e00000000000000000048289d647b88286905eaf5f07e98995032cfcf60ba22c3162b7bbf7921b07c79fa59255954d8011875ee7c3a00000000000000000000000000000000",
                    "decodedMethod": {
                        "callParams": [
                            {
                                "name": "data",
                                "type": "bytes",
                                "value": "0x0000000000000000000000000000000000000000000000000000000000000050020000205ef400ff49ffd05b58c27bb1a589731915ac4003dbb45e00000000000000000048289d647b88286905eaf5f07e98995032cfcf60ba22c3162b7bbf7921b07c79fa59255954d8011875ee7c3a00000000000000000000000000000000"
                            }
                        ],
                        "constructorArguments": "",
                        "name": "dataCopy()",
                        "returnParams": [
                            {
                                "name": "data",
                                "type": "bytes",
                                "value": "0x0000000000000000000000000000000000000000000000000000000000000050020000205ef400ff49ffd05b58c27bb1a589731915ac4003dbb45e00000000000000000048289d647b88286905eaf5f07e98995032cfcf60ba22c3162b7bbf7921b07c79fa59255954d8011875ee7c3a00000000000000000000000000000000"
                            }
                        ],
                        "signature": "dataCopy(bytes)"
                    },
                    "errorInfo": "",
                    "fromAddress": "0x41f274c0023f83391de4e0733c609df5a124c3d4",
                    "gasUsed": 27,
                    "id": 3,
                    "methodDecoded": true,
                    "operation": "CALL",
                    "output": "0x0000000000000000000000000000000000000000000000000000000000000050020000205ef400ff49ffd05b58c27bb1a589731915ac4003dbb45e00000000000000000048289d647b88286905eaf5f07e98995032cfcf60ba22c3162b7bbf7921b07c79fa59255954d8011875ee7c3a00000000000000000000000000000000",
                    "revert": false,
                    "revertMessage": "",
                    "selector": "0x00000000",
                    "status": true,
                    "value": "0"
                },
                "nodeType": 0
            },
            "4": {
                "invocation": {
                    "address": "0x41f274c0023f83391de4e0733c609df5a124c3d4",
                    "callData": "0x00000000000000000000000000000000000000000000000000000000000000200000000000000000000000000000000000000000000000000000000000000050020000205ef400ff49ffd05b58c27bb1a589731915ac4003dbb45e00000000000000000048289d647b88286905eaf5f07e98995032cfcf60ba22c3162b7bbf7921b07c79fa59255954d8011875ee7c3a00000000000000000000000000000000",
                    "decodedMethod": {
                        "callParams": [
                            {
                                "name": "header",
                                "type": "bytes",
                                "value": "0x020000205ef400ff49ffd05b58c27bb1a589731915ac4003dbb45e00000000000000000048289d647b88286905eaf5f07e98995032cfcf60ba22c3162b7bbf7921b07c79fa59255954d8011875ee7c3a"
                            }
                        ],
                        "constructorArguments": "",
                        "name": "storeBlockHeader",
                        "returnParams": [
                            {
                                "name": "",
                                "type": "uint256",
                                "value": "467,884"
                            }
                        ],
                        "signature": "storeBlockHeader(bytes)"
                    },
                    "errorInfo": "",
                    "fromAddress": "0x41f274c0023f83391de4e0733c609df5a124c3d4",
                    "gasUsed": 168491,
                    "id": 4,
                    "methodDecoded": true,
                    "operation": "CALL",
                    "output": "0x00000000000000000000000000000000000000000000000000000000000723ac",
                    "revert": false,
                    "revertMessage": "",
                    "selector": "0x2b861629",
                    "status": true,
                    "value": "0"
                },
                "nodeType": 0
            },
            "5": {
                "invocation": {
                    "address": "0x0000000000000000000000000000000000000002",
                    "callData": "0x5ef400ff49ffd05b58c27bb1a589731915ac4003dbb45e00000000000000000048289d647b88286905eaf5f07e98995032cfcf60ba22c3162b7bbf7921b07c79fa59255954d8011875ee7c3a",
                    "decodedMethod": {
                        "callParams": [
                            {
                                "name": "data",
                                "type": "bytes",
                                "value": "0x020000205ef400ff49ffd05b58c27bb1a589731915ac4003dbb45e00000000000000000048289d647b88286905eaf5f07e98995032cfcf60ba22c3162b7bbf7921b07c79fa59255954d8011875ee7c3a"
                            }
                        ],
                        "constructorArguments": "",
                        "name": "sha256hash",
                        "returnParams": [
                            {
                                "name": "hash",
                                "type": "bytes32",
                                "value": "0xeaf9f5181bd1e3f3b46d31601b43938ec4dc71ac47478ded8450be6943f0a0ac"
                            }
                        ],
                        "signature": "sha256hash(bytes)"
                    },
                    "errorInfo": "",
                    "fromAddress": "0x41f274c0023f83391de4e0733c609df5a124c3d4",
                    "gasUsed": 96,
                    "id": 5,
                    "methodDecoded": true,
                    "operation": "CALL",
                    "output": "0xeaf9f5181bd1e3f3b46d31601b43938ec4dc71ac47478ded8450be6943f0a0ac",
                    "revert": false,
                    "revertMessage": "",
                    "selector": "0x02000020",
                    "status": true,
                    "value": "0"
                },
                "nodeType": 0
            },
            "6": {
                "invocation": {
                    "address": "0x0000000000000000000000000000000000000002",
                    "callData": "0x1bd1e3f3b46d31601b43938ec4dc71ac47478ded8450be6943f0a0ac",
                    "decodedMethod": {
                        "callParams": [
                            {
                                "name": "data",
                                "type": "bytes",
                                "value": "0xeaf9f5181bd1e3f3b46d31601b43938ec4dc71ac47478ded8450be6943f0a0ac"
                            }
                        ],
                        "constructorArguments": "",
                        "name": "sha256hash",
                        "returnParams": [
                            {
                                "name": "hash",
                                "type": "bytes32",
                                "value": "0x8e843a019ea678c67c87ca3c325a0aea025fc01f151291000000000000000000"
                            }
                        ],
                        "signature": "sha256hash(bytes)"
                    },
                    "errorInfo": "",
                    "fromAddress": "0x41f274c0023f83391de4e0733c609df5a124c3d4",
                    "gasUsed": 72,
                    "id": 6,
                    "methodDecoded": true,
                    "operation": "CALL",
                    "output": "0x8e843a019ea678c67c87ca3c325a0aea025fc01f151291000000000000000000",
                    "revert": false,
                    "revertMessage": "",
                    "selector": "0xeaf9f518",
                    "status": true,
                    "value": "0"
                },
                "nodeType": 0
            },
            "7": {
                "event": {
                    "contract": "0x41f274c0023f83391de4e0733c609df5a124c3d4",
                    "decodedLog": null,
                    "id": 7,
                    "logData": "0x",
                    "logDecoded": false,
                    "operation": "EVENT",
                    "revert": false,
                    "status": true,
                    "topics": [
                        "0x055e4f8dd3a534789b3feb8e0681afa2aee8713fdd6472f25b2c30dc7bf4e0f4",
                        "0x0000000000000000009112151fc05f02ea0a5a323cca877cc678a69e013a848e",
                        "0x00000000000000000000000000000000000000000000000000000000000723ac"
                    ]
                },
                "nodeType": 1
            },
            "8": {
                "invocation": {
                    "address": "0x0000000000000000000000000000000000000004",
                    "callData": "0x8e843a019ea678c67c87ca3c325a0aea025fc01f15129100000000000000000066980e2297eb97f3529fe0226517baff07be7a26a2b4cdaf40bcae09d403ad01c95c255954d80118c6daa32f",
                    "decodedMethod": {
                        "callParams": [
                            {
                                "name": "data",
                                "type": "bytes",
                                "value": "0x020000208e843a019ea678c67c87ca3c325a0aea025fc01f15129100000000000000000066980e2297eb97f3529fe0226517baff07be7a26a2b4cdaf40bcae09d403ad01c95c255954d80118c6daa32f"
                            }
                        ],
                        "constructorArguments": "",
                        "name": "dataCopy()",
                        "returnParams": [
                            {
                                "name": "data",
                                "type": "bytes",
                                "value": "0x020000208e843a019ea678c67c87ca3c325a0aea025fc01f15129100000000000000000066980e2297eb97f3529fe0226517baff07be7a26a2b4cdaf40bcae09d403ad01c95c255954d80118c6daa32f"
                            }
                        ],
                        "signature": "dataCopy(bytes)"
                    },
                    "errorInfo": "",
                    "fromAddress": "0x41f274c0023f83391de4e0733c609df5a124c3d4",
                    "gasUsed": 24,
                    "id": 8,
                    "methodDecoded": true,
                    "operation": "CALL",
                    "output": "0x020000208e843a019ea678c67c87ca3c325a0aea025fc01f15129100000000000000000066980e2297eb97f3529fe0226517baff07be7a26a2b4cdaf40bcae09d403ad01c95c255954d80118c6daa32f",
                    "revert": false,
                    "revertMessage": "",
                    "selector": "0x02000020",
                    "status": true,
                    "value": "0"
                },
                "nodeType": 0
            },
            "9": {
                "invocation": {
                    "address": "0x0000000000000000000000000000000000000004",
                    "callData": "0x0000000000000000000000000000000000000000000000000000000000000020",
                    "decodedMethod": {
                        "callParams": [
                            {
                                "name": "data",
                                "type": "bytes",
                                "value": "0x2b8616290000000000000000000000000000000000000000000000000000000000000020"
                            }
                        ],
                        "constructorArguments": "",
                        "name": "dataCopy()",
                        "returnParams": [
                            {
                                "name": "data",
                                "type": "bytes",
                                "value": "0x2b8616290000000000000000000000000000000000000000000000000000000000000020"
                            }
                        ],
                        "signature": "dataCopy(bytes)"
                    },
                    "errorInfo": "",
                    "fromAddress": "0x41f274c0023f83391de4e0733c609df5a124c3d4",
                    "gasUsed": 21,
                    "id": 9,
                    "methodDecoded": true,
                    "operation": "CALL",
                    "output": "0x2b8616290000000000000000000000000000000000000000000000000000000000000020",
                    "revert": false,
                    "revertMessage": "",
                    "selector": "0x2b861629",
                    "status": true,
                    "value": "0"
                },
                "nodeType": 0
            }
        },
        "gasFlame": [
            {
                "children": [
                    {
                        "children": [
                            {
                                "children": [],
                                "depth": 0,
                                "name": "Initial Gas",
                                "value": 31256
                            },
                            {
                                "children": [
                                    {
                                        "children": [],
                                        "depth": 1,
                                        "name": "dataCopy()",
                                        "value": 24
                                    },
                                    {
                                        "children": [],
                                        "depth": 1,
                                        "name": "dataCopy()",
                                        "value": 21
                                    },
                                    {
                                        "children": [],
                                        "depth": 1,
                                        "name": "dataCopy()",
                                        "value": 27
                                    },
                                    {
                                        "children": [
                                            {
                                                "children": [],
                                                "depth": 2,
                                                "name": "sha256hash",
                                                "value": 96
                                            },
                                            {
                                                "children": [],
                                                "depth": 2,
                                                "name": "sha256hash",
                                                "value": 72
                                            }
                                        ],
                                        "depth": 1,
                                        "name": "storeBlockHeader",
                                        "value": 168491
                                    },
                                    {
                                        "children": [],
                                        "depth": 1,
                                        "name": "dataCopy()",
                                        "value": 24
                                    },
                                    {
                                        "children": [],
                                        "depth": 1,
                                        "name": "dataCopy()",
                                        "value": 21
                                    },
                                    {
                                        "children": [],
                                        "depth": 1,
                                        "name": "dataCopy()",
                                        "value": 27
                                    },
                                    {
                                        "children": [
                                            {
                                                "children": [],
                                                "depth": 2,
                                                "name": "sha256hash",
                                                "value": 96
                                            },
                                            {
                                                "children": [],
                                                "depth": 2,
                                                "name": "sha256hash",
                                                "value": 72
                                            }
                                        ],
                                        "depth": 1,
                                        "name": "storeBlockHeader",
                                        "value": 168491
                                    }
                                ],
                                "depth": 0,
                                "name": "Executed Gas",
                                "value": 346021
                            }
                        ],
                        "depth": -1,
                        "name": "Actual Gas Used",
                        "value": 377277
                    },
                    {
                        "children": [],
                        "depth": -1,
                        "name": "Refunded Gas",
                        "value": 0
                    }
                ],
                "depth": -2,
                "name": "Total Gas",
                "value": 377277
            }
        ],
        "isConfirmed": true,
        "mainTrace": [
            {
                "children": [
                    {
                        "children": [
                            {
                                "children": [],
                                "depth": 1,
                                "id": 1,
                                "order": 1
                            },
                            {
                                "children": [],
                                "depth": 1,
                                "id": 2,
                                "order": 2
                            },
                            {
                                "children": [],
                                "depth": 1,
                                "id": 3,
                                "order": 3
                            },
                            {
                                "children": [
                                    {
                                        "children": [],
                                        "depth": 2,
                                        "id": 5,
                                        "order": 5
                                    },
                                    {
                                        "children": [],
                                        "depth": 2,
                                        "id": 6,
                                        "order": 6
                                    },
                                    {
                                        "children": [],
                                        "depth": 2,
                                        "id": 7,
                                        "order": 7
                                    }
                                ],
                                "depth": 1,
                                "id": 4,
                                "order": 4
                            },
                            {
                                "children": [],
                                "depth": 1,
                                "id": 8,
                                "order": 8
                            },
                            {
                                "children": [],
                                "depth": 1,
                                "id": 9,
                                "order": 9
                            },
                            {
                                "children": [],
                                "depth": 1,
                                "id": 10,
                                "order": 10
                            },
                            {
                                "children": [
                                    {
                                        "children": [],
                                        "depth": 2,
                                        "id": 12,
                                        "order": 12
                                    },
                                    {
                                        "children": [],
                                        "depth": 2,
                                        "id": 13,
                                        "order": 13
                                    },
                                    {
                                        "children": [],
                                        "depth": 2,
                                        "id": 14,
                                        "order": 14
                                    }
                                ],
                                "depth": 1,
                                "id": 11,
                                "order": 11
                            }
                        ],
                        "depth": 0,
                        "id": 0,
                        "order": 0
                    }
                ],
                "depth": -1,
                "id": -1,
                "order": -1
            }
        ],
        "mainTraceNodeCount": 15,
        "parentIdMap": {
            "0": -1,
            "1": 0,
            "10": 0,
            "11": 0,
            "12": 11,
            "13": 11,
            "14": 11,
            "2": 0,
            "3": 0,
            "4": 0,
            "5": 4,
            "6": 4,
            "7": 4,
            "8": 0,
            "9": 0
        },
        "tidyTrace": [
            {
                "children": [
                    {
                        "children": [
                            {
                                "children": [],
                                "depth": 1,
                                "id": 1,
                                "order": 1
                            },
                            {
                                "children": [],
                                "depth": 1,
                                "id": 2,
                                "order": 2
                            },
                            {
                                "children": [],
                                "depth": 1,
                                "id": 3,
                                "order": 3
                            },
                            {
                                "children": [
                                    {
                                        "children": [],
                                        "depth": 2,
                                        "id": 5,
                                        "order": 5
                                    },
                                    {
                                        "children": [],
                                        "depth": 2,
                                        "id": 6,
                                        "order": 6
                                    },
                                    {
                                        "children": [],
                                        "depth": 2,
                                        "id": 7,
                                        "order": 7
                                    }
                                ],
                                "depth": 1,
                                "id": 4,
                                "order": 4
                            },
                            {
                                "children": [],
                                "depth": 1,
                                "id": 8,
                                "order": 8
                            },
                            {
                                "children": [],
                                "depth": 1,
                                "id": 9,
                                "order": 9
                            },
                            {
                                "children": [],
                                "depth": 1,
                                "id": 10,
                                "order": 10
                            },
                            {
                                "children": [
                                    {
                                        "children": [],
                                        "depth": 2,
                                        "id": 12,
                                        "order": 12
                                    },
                                    {
                                        "children": [],
                                        "depth": 2,
                                        "id": 13,
                                        "order": 13
                                    },
                                    {
                                        "children": [],
                                        "depth": 2,
                                        "id": 14,
                                        "order": 14
                                    }
                                ],
                                "depth": 1,
                                "id": 11,
                                "order": 11
                            }
                        ],
                        "depth": 0,
                        "id": 0,
                        "order": 0
                    }
                ],
                "depth": -1,
                "id": -1,
                "order": -1
            }
        ],
        "tidyTraceNodeCount": 15
    },
    "state_change": {
        "stateChanges": [
            {
                "address": "0x41f274c0023f83391de4e0733c609df5a124c3d4",
                "erc": "",
                "slots": [
                    {
                        "current": "0x21b07c79fa59255954d8011875ee7c3a00000000000000000000000000000000",
                        "key": "0x2fef74c47f843ea7983297057727925ecc6299e547a4c1e14a6105b202f670d0",
                        "prev": "0x0000000000000000000000000000000000000000000000000000000000000000"
                    },
                    {
                        "current": "0x0000000000000000015bbe5686e7d58c860c818efd51a0154417fb9dd8b2c157",
                        "key": "0x0000000000000000000000000000000000000000000000000004000000000002",
                        "prev": "0x0000000000000000005eb4db0340ac15197389a5b17bc2585bd0ff49ff00f45e"
                    },
                    {
                        "current": "0x0000ecfa0000ecf70000ecf20000ecf20000eb7b0000e4280000b35400000000",
                        "key": "0x34bb4066e31f92e3646764ed76a5be227087724fc698ab7aaaebe03cc013be16",
                        "prev": "0x0000000000000000000000000000000000000000000000000000000000000000"
                    },
                    {
                        "current": "0x0000000048289d647b88286905eaf5f07e98995032cfcf60ba22c3162b7bbf79",
                        "key": "0x2fef74c47f843ea7983297057727925ecc6299e547a4c1e14a6105b202f670cf",
                        "prev": "0x0000000000000000000000000000000000000000000000000000000000000000"
                    },
                    {
                        "current": "0x00000000000723ac000000000000ecfb0000000000165dec4c3b68fd7b31b7d9",
                        "key": "0x796f87058255573c7d63c6960b09fbabc8007227ac0f8f0412d2ee83b4e8b7ae",
                        "prev": "0x0000000000000000000000000000000000000000000000000000000000000000"
                    },
                    {
                        "current": "0x00000000000723ad000000000000ecfc0000000000165dec4c3b69883ae88c76",
                        "key": "0xb4363f59253ae773c1899b87e3b3b72dd19cb333f0186269d4d31b3314405e53",
                        "prev": "0x0000000000000000000000000000000000000000000000000000000000000000"
                    },
                    {
                        "current": "0x0000000000000000015bbe5686e7d58c860c818efd51a0154417fb9dd8b2c157",
                        "key": "0x000000000000000000000000000000000000000000000000000000000000ecfc",
                        "prev": "0x0000000000000000000000000000000000000000000000000000000000000000"
                    },
                    {
                        "current": "0x020000208e843a019ea678c67c87ca3c325a0aea025fc01f1512910000000000",
                        "key": "0x2ceb3f784998585ce86f8bdda84b9249b48cbe8c600d121503cd9758341bb645",
                        "prev": "0x0000000000000000000000000000000000000000000000000000000000000000"
                    },
                    {
                        "current": "0x000000000000000000000000000000000000000000000000000000000000ecfd",
                        "key": "0x0000000000000000000000000000000000000000000000000004000000000000",
                        "prev": "0x000000000000000000000000000000000000000000000000000000000000ecfb"
                    },
                    {
                        "current": "0x0000000066980e2297eb97f3529fe0226517baff07be7a26a2b4cdaf40bcae09",
                        "key": "0x2ceb3f784998585ce86f8bdda84b9249b48cbe8c600d121503cd9758341bb646",
                        "prev": "0x0000000000000000000000000000000000000000000000000000000000000000"
                    },
                    {
                        "current": "0x0000000000000000009112151fc05f02ea0a5a323cca877cc678a69e013a848e",
                        "key": "0x000000000000000000000000000000000000000000000000000000000000ecfb",
                        "prev": "0x0000000000000000000000000000000000000000000000000000000000000000"
                    },
                    {
                        "current": "0x000000000000000000000000000000000000000000165dec4c3b69883ae88c76",
                        "key": "0x0000000000000000000000000000000000000000000000000004000000000003",
                        "prev": "0x000000000000000000000000000000000000000000165dec4c3b6872bb7ae33c"
                    },
                    {
                        "current": "0x020000205ef400ff49ffd05b58c27bb1a589731915ac4003dbb45e0000000000",
                        "key": "0x2fef74c47f843ea7983297057727925ecc6299e547a4c1e14a6105b202f670ce",
                        "prev": "0x0000000000000000000000000000000000000000000000000000000000000000"
                    },
                    {
                        "current": "0x0000ecfb0000ecf70000ecf20000ecf20000eb7b0000e4280000b35400000000",
                        "key": "0x50d867d4ff809443c4dbac37e88c0520b04affe7c4aeb8fa6be4ef19e610eea9",
                        "prev": "0x0000000000000000000000000000000000000000000000000000000000000000"
                    },
                    {
                        "current": "0xd403ad01c95c255954d80118c6daa32f00000000000000000000000000000000",
                        "key": "0x2ceb3f784998585ce86f8bdda84b9249b48cbe8c600d121503cd9758341bb647",
                        "prev": "0x0000000000000000000000000000000000000000000000000000000000000000"
                    }
                ],
                "storageVariables": []
            }
        ]
    }
}