{
    "balance_change": {
        "balanceChanges": [
            {
                "account": "0xfb89a365b9365091df5393a3ee504bfde6e298e6",
                "assets": [
                    {
                        "address": "0x4a8f44be523580a11cdb20e2c7c470adf44ec9bb",
                        "amount": "299,400",
                        "iconUrl": "",
                        "isERC1155": false,
                        "isERC721": false,
                        "sign": false,
                        "value": ""
                    }
                ]
            },
            {
                "account": "0xb00fd962b759affbf8c75d3f3ab051007dee9f1f",
                "assets": [
                    {
                        "address": "0x4a8f44be523580a11cdb20e2c7c470adf44ec9bb",
                        "amount": "299,400",
                        "iconUrl": "",
                        "isERC1155": false,
                        "isERC721": false,
                        "sign": true,
                        "value": ""
                    }
                ]
            }
        ]
    },
    "profile": {
        "basic_info": {
            "baseFee": "",
            "blockNumber": 6058118,
            "callData": "0xa9059cbb000000000000000000000000b00fd962b759affbf8c75d3f3ab051007dee9f1f000000000000000000000000000000000000000000003f6681ab6ed091200000",
            "debugEnable": true,
            "errorInfo": "",
            "eventCount": 1,
            "feeRecipient": "0xea674fdde714fd979de3edf0f56aa9716b898ec8",
            "formatValue": "0",
            "gasLimit": 37389,
            "gasPrice": "1.8",
            "gasUsed": 37389,
            "intTxnCount": 0,
            "internalRevert": false,
            "internalRevertMessage": "",
            "isContractCreation": false,
            "isFlashloan": false,
            "maxFee": "",
            "nonce": 146,
            "overwritedBlockNumber": -1,
            "priorityFee": "",
            "receiver": "0x4a8f44be523580a11cdb20e2c7c470adf44ec9bb",
            "revertMessage": "",
            "sender": "0xfb89a365b9365091df5393a3ee504bfde6e298e6",
            "simulationEnable": true,
            "sourceTxnHash": "0x39b7bbdc8b7f63a19a7f906acb1bbee451569a6261ca37cb0e9065d5c2284606",
            "status": true,
            "timestamp": "2018-07-30T16:11:05Z",
            "transactionFee": "0.0000673002",
            "txnHash": "0x39b7bbdc8b7f63a19a7f906acb1bbee451569a6261ca37cb0e9065d5c2284606",
            "txnIndex": 36,
            "type": 0,
            "value": "0"
        },
        "fund_flow": [
            {
                "amount": "299,400",
                "from": "0xfb89a365b9365091df5393a3ee504bfde6e298e6",
                "id": 1,
                "isERC1155": false,
                "isERC721": false,
                "isReverted": false,
                "order": 1,
                "to": "0xb00fd962b759affbf8c75d3f3ab051007dee9f1f",
                "token": "0x4a8f44be523580a11cdb20e2c7c470adf44ec9bb"
            }
        ],
        "token_infos": [
            {
                "address": "0x4a8f44be523580a11cdb20e2c7c470adf44ec9bb",
                "decimals": 18
            },
            {
                "address": "0xc02aaa39b223fe8d0a0e5c4f27ead9083c756cc2",
                "decimals": 18
            },
            {
                "address": "0xeeeeeeeeeeeeeeeeeeeeeeeeeeeeeeeeeeeeeeee",
                "decimals": 18
            }
        ]
    },
    "address_label": {
        "labels": [
            {
                "address": "0xeeeeeeeeeeeeeeeeeeeeeeeeeeeeeeeeeeeeeeee",
                "label": "Ether"
            },
            {
                "address": "0x4a8f44be523580a11cdb20e2c7c470adf44ec9bb",
                "label": "Bit Miner Chain: BTMC Token"
            },
            {
                "address": "0x0000000000000000000000000000000000000001",
                "label": "Precompiled"
            },
            {
                "address": "0x0000000000000000000000000000000000000002",
                "label": "Precompiled"
            },
            {
                "address": "0x0000000000000000000000000000000000000003",
                "label": "Precompiled"
            },
            {
                "address": "0x0000000000000000000000000000000000000004",
                "label": "Precompiled"
            }
        ]
    },
    "trace": {
        "accountLabels": null,
        "dataMap": {
            "-1": {
                "invocation": {
                    "address": "0xfb89a365b9365091df5393a3ee504bfde6e298e6",
                    "callData": "",
                    "decodedMethod": null,
                    "errorInfo": "",
                    "fromAddress": "",
                    "gasUsed": 0,
                    "id": -1,
                    "methodDecoded": false,
                    "operation": "",
                    "output": "",
                    "revert": false,
                    "revertMessage": "",
                    "selector": "",
                    "status": false,
                    "value": ""
                },
                "nodeType": 0
            },
            "0": {
                "invocation": {
                    "address": "0x4a8f44be523580a11cdb20e2c7c470adf44ec9bb",
                    "callData": "0x000000000000000000000000b00fd962b759affbf8c75d3f3ab051007dee9f1f000000000000000000000000000000000000000000003f6681ab6ed091200000",
                    "decodedMethod": {
                        "callParams": [
                            {
                                "name": "_to",
                                "type": "address",
                                "value": "0xb00fd962b759affbf8c75d3f3ab051007dee9f1f"
                            },
                            {
                                "decimalAvailable": true,
                                "name": "_value",
                                "type": "uint256",
                                "value": "299,400,000,000,000,000,000,000"
                            }
                        ],
                        "constructorArguments": "",
                        "name": "transfer",
                        "returnParams": [
                            {
                                "name": "",
                                "type": "bool",
                                "value": true
                            }
                        ],
                        "signature": "transfer(address,uint256)"
                    },
                    "errorInfo": "",
                    "fromAddress": "0xfb89a365b9365091df5393a3ee504bfde6e298e6",
                    "gasUsed": 37389,
                    "id": 0,
                    "methodDecoded": true,
                    "operation": "CALL",
                    "output": "0x0000000000000000000000000000000000000000000000000000000000000001",
                    "revert": false,
                    "revertMessage": "",
                    "selector": "0xa9059cbb",
                    "status": true,
                    "value": "0"
                },
                "nodeType": 0
            },
            "1": {
                "event": {
                    "contract": "0x4a8f44be523580a11cdb20e2c7c470adf44ec9bb",
                    "decodedLog": {
                        "name": "Transfer",
                        "params": [
                            {
                                "name": "from",
                                "type": "address",
                                "value": "0xfb89a365b9365091df5393a3ee504bfde6e298e6"
                            },
                            {
                                "name": "to",
                                "type": "address",
                                "value": "0xb00fd962b759affbf8c75d3f3ab051007dee9f1f"
                            },
                            {
                                "decimalAvailable": true,
                                "name": "value",
                                "type": "uint256",
                                "value": "299,400,000,000,000,000,000,000"
                            }
                        ],
                        "signature": "Transfer(address,address,uint256)"
                    },
                    "id": 1,
                    "logData": "0x000000000000000000000000000000000000000000003f6681ab6ed091200000",
                    "logDecoded": true,
                    "operation": "EVENT",
                    "revert": false,
                    "status": true,
                    "topics": [
                        "0xddf252ad1be2c89b69c2b068fc378daa952ba7f163c4a11628f55a4df523b3ef",
                        "0x000000000000000000000000fb89a365b9365091df5393a3ee504bfde6e298e6",
                        "0x000000000000000000000000b00fd962b759affbf8c75d3f3ab051007dee9f1f"
                    ]
                },
                "nodeType": 1
            }
        },
        "gasFlame": [
            {
                "children": [
                    {
                        "children": [
                            {
                                "children": [],
                                "depth": 0,
                                "name": "Initial Gas",
                                "value": 23256
                            },
                            {
                                "children": [],
                                "depth": 0,
                                "name": "Executed Gas",
                                "value": 14133
                            }
                        ],
                        "depth": -1,
                        "name": "Actual Gas Used",
                        "value": 37389
                    },
                    {
                        "children": [],
                        "depth": -1,
                        "name": "Refunded Gas",
                        "value": 0
                    }
                ],
                "depth": -2,
                "name": "Total Gas",
                "value": 37389
            }
        ],
        "isConfirmed": true,
        "mainTrace": [
            {
                "children": [
                    {
                        "children": [
                            {
                                "children": [],
                                "depth": 1,
                                "id": 1,
                                "order": 1
                            }
                        ],
                        "depth": 0,
                        "id": 0,
                        "order": 0
                    }
                ],
                "depth": -1,
                "id": -1,
                "order": -1
            }
        ],
        "mainTraceNodeCount": 2,
        "parentIdMap": {
            "0": -1,
            "1": 0
        },
        "tidyTrace": [
            {
                "children": [
                    {
                        "children": [
                            {
                                "children": [],
                                "depth": 1,
                                "id": 1,
                                "order": 1
                            }
                        ],
                        "depth": 0,
                        "id": 0,
                        "order": 0
                    }
                ],
                "depth": -1,
                "id": -1,
                "order": -1
            }
        ],
        "tidyTraceNodeCount": 2
    },
    "state_change": {
        "stateChanges": [
            {
                "address": "0x4a8f44be523580a11cdb20e2c7c470adf44ec9bb",
                "erc": "ERC-20",
                "slots": [
                    {
                        "current": "0x00000000000000000000000000000000000000000001f3d9ecac8ff081132800",
                        "key": "0xa37739025337d729cb5aeb9d910323109283c7933c96f9f86876b3d77e48e4f1",
                        "prev": "0x0000000000000000000000000000000000000000000233406e57fec112332800"
                    },
                    {
                        "current": "0x00000000000000000000000000000000000000000000be9fb912cd2ed3100000",
                        "key": "0xd6446883ab2bcaf7156d769521f2b3ca62b54d08d560bb2f4b38d96d8ad6b2d5",
                        "prev": "0x000000000000000000000000000000000000000000007f3937675e5e41f00000"
                    }
                ],
                "storageVariables": [
                    {
                        "name": "balances",
                        "type": "mapping(address => uint256)",
                        "value": {
                            "pairs": [
                                {
                                    "key": "0xb00fd962b759affbf8c75d3f3ab051007dee9f1f",
                                    "value": {
                                        "current": "900196000000000000000000",
                                        "prev": "600796000000000000000000",
                                        "typeTag": 1
                                    }
                                },
                                {
                                    "key": "0xfb89a365b9365091df5393a3ee504bfde6e298e6",
                                    "value": {
                                        "current": "2360480872580100000000000",
                                        "prev": "2659880872580100000000000",
                                        "typeTag": 1
                                    }
                                }
                            ],
                            "typeTag": 4
                        }
                    }
                ]
            }
        ]
    }
}