{
    "balance_change": {
        "balanceChanges": []
    },
    "profile": {
        "basic_info": {
            "baseFee": "30.187525603",
            "blockNumber": 16985895,
            "callData": "0xa22cb4650000000000000000000000004fee7b061c97c9c496b01dbce9cdb10c02f0a0be0000000000000000000000000000000000000000000000000000000000000000",
            "debugEnable": true,
            "errorInfo": "",
            "eventCount": 1,
            "feeRecipient": "0x064eb879d95eb6785de34e2758949609b1d870cb",
            "formatValue": "0",
            "gasLimit": 32443,
            "gasPrice": "30.525308228",
            "gasUsed": 24694,
            "intTxnCount": 0,
            "internalRevert": false,
            "internalRevertMessage": "",
            "isContractCreation": false,
            "isFlashloan": false,
            "maxFee": "53.662217375",
            "nonce": 26,
            "overwritedBlockNumber": -1,
            "priorityFee": "0.337782625",
            "receiver": "0x60f80121c31a0d46b5279700f9df786054aa5ee5",
            "revertMessage": "",
            "sender": "0xfcfa8769ca8cb2a00d2f28b4b96fb131da3bfdd4",
            "simulationEnable": true,
            "sourceTxnHash": "0x395691dd4020773b57d3a6c9070414ab4992d6c0fb6960df9a4ba448864e4753",
            "status": true,
            "timestamp": "2023-04-05T23:47:47Z",
            "transactionFee": "0.000753791961382232",
            "txnHash": "0x395691dd4020773b57d3a6c9070414ab4992d6c0fb6960df9a4ba448864e4753",
            "txnIndex": 52,
            "type": 2,
            "value": "0"
        },
        "fund_flow": [],
        "token_infos": [
            {
                "address": "0xc02aaa39b223fe8d0a0e5c4f27ead9083c756cc2",
                "decimals": 18
            },
            {
                "address": "0xeeeeeeeeeeeeeeeeeeeeeeeeeeeeeeeeeeeeeeee",
                "decimals": 18
            }
        ]
    },
    "address_label": {
        "labels": [
            {
                "address": "0x0000000000000000000000000000000000000002",
                "label": "Precompiled"
            },
            {
                "address": "0x0000000000000000000000000000000000000003",
                "label": "Precompiled"
            },
            {
                "address": "0x0000000000000000000000000000000000000004",
                "label": "Precompiled"
            },
            {
                "address": "0xeeeeeeeeeeeeeeeeeeeeeeeeeeeeeeeeeeeeeeee",
                "label": "Ether"
            },
            {
                "address": "0x4fee7b061c97c9c496b01dbce9cdb10c02f0a0be",
                "label": "Rarible:Transfer Proxy"
            },
            {
                "address": "0x60f80121c31a0d46b5279700f9df786054aa5ee5",
                "label": "Rarible: RARI Token 2"
            },
            {
                "address": "0x0000000000000000000000000000000000000001",
                "label": "Precompiled"
            }
        ]
    },
    "trace": {
        "accountLabels": null,
        "dataMap": {
            "-1": {
                "invocation": {
                    "address": "0xfcfa8769ca8cb2a00d2f28b4b96fb131da3bfdd4",
                    "callData": "",
                    "decodedMethod": null,
                    "errorInfo": "",
                    "fromAddress": "",
                    "gasUsed": 0,
                    "id": -1,
                    "methodDecoded": false,
                    "operation": "",
                    "output": "",
                    "revert": false,
                    "revertMessage": "",
                    "selector": "",
                    "status": false,
                    "value": ""
                },
                "nodeType": 0
            },
            "0": {
                "invocation": {
                    "address": "0x60f80121c31a0d46b5279700f9df786054aa5ee5",
                    "callData": "0x0000000000000000000000004fee7b061c97c9c496b01dbce9cdb10c02f0a0be0000000000000000000000000000000000000000000000000000000000000000",
                    "decodedMethod": {
                        "callParams": [
                            {
                                "name": "to",
                                "type": "address",
                                "value": "0x4fee7b061c97c9c496b01dbce9cdb10c02f0a0be"
                            },
                            {
                                "name": "approved",
                                "type": "bool",
                                "value": false
                            }
                        ],
                        "constructorArguments": "",
                        "name": "setApprovalForAll",
                        "returnParams": [],
                        "signature": "setApprovalForAll(address,bool)"
                    },
                    "errorInfo": "",
                    "fromAddress": "0xfcfa8769ca8cb2a00d2f28b4b96fb131da3bfdd4",
                    "gasUsed": 24694,
                    "id": 0,
                    "methodDecoded": true,
                    "operation": "CALL",
                    "output": "",
                    "revert": false,
                    "revertMessage": "",
                    "selector": "0xa22cb465",
                    "status": true,
                    "value": "0"
                },
                "nodeType": 0
            },
            "1": {
                "event": {
                    "contract": "0x60f80121c31a0d46b5279700f9df786054aa5ee5",
                    "decodedLog": {
                        "name": "ApprovalForAll",
                        "params": [
                            {
                                "name": "owner",
                                "type": "address",
                                "value": "0xfcfa8769ca8cb2a00d2f28b4b96fb131da3bfdd4"
                            },
                            {
                                "name": "operator",
                                "type": "address",
                                "value": "0x4fee7b061c97c9c496b01dbce9cdb10c02f0a0be"
                            },
                            {
                                "name": "approved",
                                "type": "bool",
                                "value": false
                            }
                        ],
                        "signature": "ApprovalForAll(address,address,bool)"
                    },
                    "id": 1,
                    "logData": "0x0000000000000000000000000000000000000000000000000000000000000000",
                    "logDecoded": true,
                    "operation": "EVENT",
                    "revert": false,
                    "status": true,
                    "topics": [
                        "0x17307eab39ab6107e8899845ad3d59bd9653f200f220920489ca2b5937696c31",
                        "0x000000000000000000000000fcfa8769ca8cb2a00d2f28b4b96fb131da3bfdd4",
                        "0x0000000000000000000000004fee7b061c97c9c496b01dbce9cdb10c02f0a0be"
                    ]
                },
                "nodeType": 1
            }
        },
        "gasFlame": [
            {
                "children": [
                    {
                        "children": [
                            {
                                "children": [],
                                "depth": 0,
                                "name": "Initial Gas",
                                "value": 21560
                            },
                            {
                                "children": [],
                                "depth": 0,
                                "name": "Executed Gas",
                                "value": 7934
                            }
                        ],
                        "depth": -1,
                        "name": "Actual Gas Used",
                        "value": 24694
                    },
                    {
                        "children": [],
                        "depth": -1,
                        "name": "Refunded Gas",
                        "value": 4800
                    }
                ],
                "depth": -2,
                "name": "Total Gas",
                "value": 29494
            }
        ],
        "isConfirmed": true,
        "mainTrace": [
            {
                "children": [
                    {
                        "children": [
                            {
                                "children": [],
                                "depth": 1,
                                "id": 1,
                                "order": 1
                            }
                        ],
                        "depth": 0,
                        "id": 0,
                        "order": 0
                    }
                ],
                "depth": -1,
                "id": -1,
                "order": -1
            }
        ],
        "mainTraceNodeCount": 2,
        "parentIdMap": {
            "0": -1,
            "1": 0
        },
        "tidyTrace": [
            {
                "children": [
                    {
                        "children": [
                            {
                                "children": [],
                                "depth": 1,
                                "id": 1,
                                "order": 1
                            }
                        ],
                        "depth": 0,
                        "id": 0,
                        "order": 0
                    }
                ],
                "depth": -1,
                "id": -1,
                "order": -1
            }
        ],
        "tidyTraceNodeCount": 2
    },
    "state_change": {
        "stateChanges": [
            {
                "address": "0x60f80121c31a0d46b5279700f9df786054aa5ee5",
                "erc": "ERC-721",
                "slots": [
                    {
                        "current": "0x0000000000000000000000000000000000000000000000000000000000000000",
                        "key": "0xa543ea2ea43c16fef48346c25f8f1ca59f21f19dff4480a192497c66fe572207",
                        "prev": "0x0000000000000000000000000000000000000000000000000000000000000001"
                    }
                ],
                "storageVariables": [
                    {
                        "name": "_operatorApprovals",
                        "type": "mapping(address => mapping(address => bool))",
                        "value": {
                            "pairs": [
                                {
                                    "key": "0xfcfa8769ca8cb2a00d2f28b4b96fb131da3bfdd4",
                                    "value": {
                                        "pairs": [
                                            {
                                                "key": "0x4fee7b061c97c9c496b01dbce9cdb10c02f0a0be",
                                                "value": {
                                                    "current": "false",
                                                    "prev": "true",
                                                    "typeTag": 1
                                                }
                                            }
                                        ],
                                        "typeTag": 4
                                    }
                                }
                            ],
                            "typeTag": 4
                        }
                    }
                ]
            }
        ]
    }
}