{
    "balance_change": {
        "balanceChanges": [
            {
                "account": "0x585c3d4da9b533c7e3df8ac7356c882859298cee",
                "assets": [
                    {
                        "address": "0xc02aaa39b223fe8d0a0e5c4f27ead9083c756cc2",
                        "amount": "0.24237685691946835",
                        "iconUrl": "https://assets.blocksec.com/icon/f1cb2d02c471d545bbc7722daf3277fd852d98e63d118771af7047bd8256c516.png",
                        "isERC1155": false,
                        "isERC721": false,
                        "sign": false,
                        "value": "308.21853007688502205"
                    }
                ]
            },
            {
                "account": "0x4bba5f077a8fcfaf8d6d07c6cfbce553e2d94c9c",
                "assets": [
                    {
                        "address": "0x45c2f8c9b4c0bdc76200448cc26c48ab6ffef83f",
                        "amount": "18,322.709716092957040086",
                        "iconUrl": "",
                        "isERC1155": false,
                        "isERC721": false,
                        "sign": true,
                        "value": "304.2620777"
                    }
                ]
            },
            {
                "account": "0x75d308a90ef8c0de983bd6eddc4aae7d8fe226df",
                "assets": [
                    {
                        "address": "0xc02aaa39b223fe8d0a0e5c4f27ead9083c756cc2",
                        "amount": "0.24237685691946835",
                        "iconUrl": "https://assets.blocksec.com/icon/f1cb2d02c471d545bbc7722daf3277fd852d98e63d118771af7047bd8256c516.png",
                        "isERC1155": false,
                        "isERC721": false,
                        "sign": true,
                        "value": "308.21853007688502205"
                    },
                    {
                        "address": "0x45c2f8c9b4c0bdc76200448cc26c48ab6ffef83f",
                        "amount": "18,322.709716092957040086",
                        "iconUrl": "",
                        "isERC1155": false,
                        "isERC721": false,
                        "sign": false,
                        "value": "304.2620777"
                    }
                ]
            }
        ]
    },
    "profile": {
        "basic_info": {
            "baseFee": "7.516403439",
            "blockNumber": 15663668,
            "callData": "0x11f6bff2000000000000000000000000000000000000000000000000035d18779a75e93e000000000000000000000000c02aaa39b223fe8d0a0e5c4f27ead9083c756cc200000000000000000000000075d308a90ef8c0de983bd6eddc4aae7d8fe226df00000000000000000000000045c2f8c9b4c0bdc76200448cc26c48ab6ffef83f0000000000000000000000004bba5f077a8fcfaf8d6d07c6cfbce553e2d94c9c0000000000000000000000000000000000000000000003d761abb92c72200000",
            "debugEnable": true,
            "errorInfo": "",
            "eventCount": 4,
            "feeRecipient": "0xfe843fc772c799a257c04db72694164b4e94b682",
            "formatValue": "0",
            "gasLimit": 500000,
            "gasPrice": "9.516403439",
            "gasUsed": 97449,
            "intTxnCount": 6,
            "internalRevert": false,
            "internalRevertMessage": "",
            "isContractCreation": false,
            "isFlashloan": false,
            "maxFee": "50.152303751",
            "nonce": 66507,
            "overwritedBlockNumber": -1,
            "priorityFee": "2",
            "receiver": "0x585c3d4da9b533c7e3df8ac7356c882859298cee",
            "revertMessage": "",
            "sender": "0xd5cf0cb9a8df9b46f077f561d8b76c34a69bd82f",
            "simulationEnable": true,
            "sourceTxnHash": "0x3957c51c2299e0b0b33a9ce6da5fc87e66d84ef28229212f6db6dfb9442141fa",
            "status": true,
            "timestamp": "2022-10-02T23:12:11Z",
            "transactionFee": "0.000927363998727111",
            "txnHash": "0x3957c51c2299e0b0b33a9ce6da5fc87e66d84ef28229212f6db6dfb9442141fa",
            "txnIndex": 48,
            "type": 2,
            "value": "0"
        },
        "fund_flow": [
            {
                "amount": "0.24237685691946835",
                "from": "0x585c3d4da9b533c7e3df8ac7356c882859298cee",
                "id": 1,
                "isERC1155": false,
                "isERC721": false,
                "isReverted": false,
                "order": 1,
                "to": "0x75d308a90ef8c0de983bd6eddc4aae7d8fe226df",
                "token": "0xc02aaa39b223fe8d0a0e5c4f27ead9083c756cc2"
            },
            {
                "amount": "18,322.709716092957040086",
                "from": "0x75d308a90ef8c0de983bd6eddc4aae7d8fe226df",
                "id": 2,
                "isERC1155": false,
                "isERC721": false,
                "isReverted": false,
                "order": 2,
                "to": "0x4bba5f077a8fcfaf8d6d07c6cfbce553e2d94c9c",
                "token": "0x45c2f8c9b4c0bdc76200448cc26c48ab6ffef83f"
            }
        ],
        "token_infos": [
            {
                "address": "0x45c2f8c9b4c0bdc76200448cc26c48ab6ffef83f",
                "decimals": 18
            },
            {
                "address": "0xc02aaa39b223fe8d0a0e5c4f27ead9083c756cc2",
                "decimals": 18
            },
            {
                "address": "0xeeeeeeeeeeeeeeeeeeeeeeeeeeeeeeeeeeeeeeee",
                "decimals": 18
            }
        ]
    },
    "address_label": {
        "labels": [
            {
                "address": "0x75d308a90ef8c0de983bd6eddc4aae7d8fe226df",
                "label": "Uniswap V2: DOMI 2"
            },
            {
                "address": "0x4bba5f077a8fcfaf8d6d07c6cfbce553e2d94c9c",
                "label": "GATE.IO"
            },
            {
                "address": "0x0000000000000000000000000000000000000001",
                "label": "Precompiled"
            },
            {
                "address": "0x0000000000000000000000000000000000000002",
                "label": "Precompiled"
            },
            {
                "address": "0x0000000000000000000000000000000000000004",
                "label": "Precompiled"
            },
            {
                "address": "0xeeeeeeeeeeeeeeeeeeeeeeeeeeeeeeeeeeeeeeee",
                "label": "Ether"
            },
            {
                "address": "0x585c3d4da9b533c7e3df8ac7356c882859298cee",
                "label": "MEV Bot: 0x585...cEe"
            },
            {
                "address": "0x45c2f8c9b4c0bdc76200448cc26c48ab6ffef83f",
                "label": "DomiOnline: DOMI Token"
            },
            {
                "address": "0x0000000000000000000000000000000000000003",
                "label": "Precompiled"
            },
            {
                "address": "0xc02aaa39b223fe8d0a0e5c4f27ead9083c756cc2",
                "label": "Wrapped Ether (WETH)"
            }
        ]
    },
    "trace": {
        "accountLabels": null,
        "dataMap": {
            "-1": {
                "invocation": {
                    "address": "0xd5cf0cb9a8df9b46f077f561d8b76c34a69bd82f",
                    "callData": "",
                    "decodedMethod": null,
                    "errorInfo": "",
                    "fromAddress": "",
                    "gasUsed": 0,
                    "id": -1,
                    "methodDecoded": false,
                    "operation": "",
                    "output": "",
                    "revert": false,
                    "revertMessage": "",
                    "selector": "",
                    "status": false,
                    "value": ""
                },
                "nodeType": 0
            },
            "0": {
                "invocation": {
                    "address": "0x585c3d4da9b533c7e3df8ac7356c882859298cee",
                    "callData": "0x000000000000000000000000000000000000000000000000035d18779a75e93e000000000000000000000000c02aaa39b223fe8d0a0e5c4f27ead9083c756cc200000000000000000000000075d308a90ef8c0de983bd6eddc4aae7d8fe226df00000000000000000000000045c2f8c9b4c0bdc76200448cc26c48ab6ffef83f0000000000000000000000004bba5f077a8fcfaf8d6d07c6cfbce553e2d94c9c0000000000000000000000000000000000000000000003d761abb92c72200000",
                    "decodedMethod": null,
                    "errorInfo": "",
                    "fromAddress": "0xd5cf0cb9a8df9b46f077f561d8b76c34a69bd82f",
                    "gasUsed": 97449,
                    "id": 0,
                    "methodDecoded": false,
                    "operation": "CALL",
                    "output": "",
                    "revert": false,
                    "revertMessage": "",
                    "selector": "0x11f6bff2",
                    "status": true,
                    "value": "0"
                },
                "nodeType": 0
            },
            "1": {
                "invocation": {
                    "address": "0x75d308a90ef8c0de983bd6eddc4aae7d8fe226df",
                    "callData": "0x",
                    "decodedMethod": {
                        "callParams": [],
                        "constructorArguments": "",
                        "name": "getReserves",
                        "returnParams": [
                            {
                                "name": "_reserve0",
                                "type": "uint112",
                                "value": "2,935,004,883,115,350,175,886,784"
                            },
                            {
                                "name": "_reserve1",
                                "type": "uint112",
                                "value": "38,466,769,379,042,610,088"
                            },
                            {
                                "name": "_blockTimestampLast",
                                "type": "uint32",
                                "value": "1,664,650,847"
                            }
                        ],
                        "signature": "getReserves()"
                    },
                    "errorInfo": "",
                    "fromAddress": "0x585c3d4da9b533c7e3df8ac7356c882859298cee",
                    "gasUsed": 2504,
                    "id": 1,
                    "methodDecoded": true,
                    "operation": "STATICCALL",
                    "output": "0x000000000000000000000000000000000000000000026d82eefb971560ddadc000000000000000000000000000000000000000000000000215d56af1ceb54ba80000000000000000000000000000000000000000000000000000000063388e5f",
                    "revert": false,
                    "revertMessage": "",
                    "selector": "0x0902f1ac",
                    "status": true,
                    "value": "0"
                },
                "nodeType": 0
            },
            "10": {
                "event": {
                    "contract": "0x75d308a90ef8c0de983bd6eddc4aae7d8fe226df",
                    "decodedLog": {
                        "name": "Swap",
                        "params": [
                            {
                                "name": "sender",
                                "type": "address",
                                "value": "0x585c3d4da9b533c7e3df8ac7356c882859298cee"
                            },
                            {
                                "name": "to",
                                "type": "address",
                                "value": "0x4bba5f077a8fcfaf8d6d07c6cfbce553e2d94c9c"
                            },
                            {
                                "name": "amount0In",
                                "type": "uint256",
                                "value": "0"
                            },
                            {
                                "name": "amount1In",
                                "type": "uint256",
                                "value": "242,376,856,919,468,350"
                            },
                            {
                                "name": "amount0Out",
                                "type": "uint256",
                                "value": "18,322,709,716,092,957,040,085"
                            },
                            {
                                "name": "amount1Out",
                                "type": "uint256",
                                "value": "0"
                            }
                        ],
                        "signature": "Swap(address,uint256,uint256,uint256,uint256,address)"
                    },
                    "id": 10,
                    "logData": "0x0000000000000000000000000000000000000000000000000000000000000000000000000000000000000000000000000000000000000000035d18779a75e93e0000000000000000000000000000000000000000000003e146ad70e8ef1d1dd50000000000000000000000000000000000000000000000000000000000000000",
                    "logDecoded": true,
                    "operation": "EVENT",
                    "revert": false,
                    "status": true,
                    "topics": [
                        "0xd78ad95fa46c994b6551d0da85fc275fe613ce37657fb8d5e3d130840159d822",
                        "0x000000000000000000000000585c3d4da9b533c7e3df8ac7356c882859298cee",
                        "0x0000000000000000000000004bba5f077a8fcfaf8d6d07c6cfbce553e2d94c9c"
                    ]
                },
                "nodeType": 1
            },
            "2": {
                "invocation": {
                    "address": "0xc02aaa39b223fe8d0a0e5c4f27ead9083c756cc2",
                    "callData": "0x00000000000000000000000075d308a90ef8c0de983bd6eddc4aae7d8fe226df000000000000000000000000000000000000000000000000035d18779a75e93e",
                    "decodedMethod": {
                        "callParams": [
                            {
                                "name": "dst",
                                "type": "address",
                                "value": "0x75d308a90ef8c0de983bd6eddc4aae7d8fe226df"
                            },
                            {
                                "decimalAvailable": true,
                                "name": "wad",
                                "type": "uint256",
                                "value": "242,376,856,919,468,350"
                            }
                        ],
                        "constructorArguments": "",
                        "name": "transfer",
                        "returnParams": [
                            {
                                "name": "",
                                "type": "bool",
                                "value": true
                            }
                        ],
                        "signature": "transfer(address,uint256)"
                    },
                    "errorInfo": "",
                    "fromAddress": "0x585c3d4da9b533c7e3df8ac7356c882859298cee",
                    "gasUsed": 12862,
                    "id": 2,
                    "methodDecoded": true,
                    "operation": "CALL",
                    "output": "0x0000000000000000000000000000000000000000000000000000000000000001",
                    "revert": false,
                    "revertMessage": "",
                    "selector": "0xa9059cbb",
                    "status": true,
                    "value": "0"
                },
                "nodeType": 0
            },
            "3": {
                "event": {
                    "contract": "0xc02aaa39b223fe8d0a0e5c4f27ead9083c756cc2",
                    "decodedLog": {
                        "name": "Transfer",
                        "params": [
                            {
                                "name": "src",
                                "type": "address",
                                "value": "0x585c3d4da9b533c7e3df8ac7356c882859298cee"
                            },
                            {
                                "name": "dst",
                                "type": "address",
                                "value": "0x75d308a90ef8c0de983bd6eddc4aae7d8fe226df"
                            },
                            {
                                "decimalAvailable": true,
                                "name": "wad",
                                "type": "uint256",
                                "value": "242,376,856,919,468,350"
                            }
                        ],
                        "signature": "Transfer(address,address,uint256)"
                    },
                    "id": 3,
                    "logData": "0x000000000000000000000000000000000000000000000000035d18779a75e93e",
                    "logDecoded": true,
                    "operation": "EVENT",
                    "revert": false,
                    "status": true,
                    "topics": [
                        "0xddf252ad1be2c89b69c2b068fc378daa952ba7f163c4a11628f55a4df523b3ef",
                        "0x000000000000000000000000585c3d4da9b533c7e3df8ac7356c882859298cee",
                        "0x00000000000000000000000075d308a90ef8c0de983bd6eddc4aae7d8fe226df"
                    ]
                },
                "nodeType": 1
            },
            "4": {
                "invocation": {
                    "address": "0x75d308a90ef8c0de983bd6eddc4aae7d8fe226df",
                    "callData": "0x0000000000000000000000000000000000000000000003e146ad70e8ef1d1dd500000000000000000000000000000000000000000000000000000000000000000000000000000000000000004bba5f077a8fcfaf8d6d07c6cfbce553e2d94c9c00000000000000000000000000000000000000000000000000000000000000800000000000000000000000000000000000000000000000000000000000000000",
                    "decodedMethod": {
                        "callParams": [
                            {
                                "name": "amount0Out",
                                "type": "uint256",
                                "value": "18,322,709,716,092,957,040,085"
                            },
                            {
                                "name": "amount1Out",
                                "type": "uint256",
                                "value": "0"
                            },
                            {
                                "name": "to",
                                "type": "address",
                                "value": "0x4bba5f077a8fcfaf8d6d07c6cfbce553e2d94c9c"
                            },
                            {
                                "name": "data",
                                "type": "bytes",
                                "value": "0x"
                            }
                        ],
                        "constructorArguments": "",
                        "name": "swap",
                        "returnParams": [],
                        "signature": "swap(uint256,uint256,address,bytes)"
                    },
                    "errorInfo": "",
                    "fromAddress": "0x585c3d4da9b533c7e3df8ac7356c882859298cee",
                    "gasUsed": 48868,
                    "id": 4,
                    "methodDecoded": true,
                    "operation": "CALL",
                    "output": "",
                    "revert": false,
                    "revertMessage": "",
                    "selector": "0x022c0d9f",
                    "status": true,
                    "value": "0"
                },
                "nodeType": 0
            },
            "5": {
                "invocation": {
                    "address": "0x45c2f8c9b4c0bdc76200448cc26c48ab6ffef83f",
                    "callData": "0x0000000000000000000000004bba5f077a8fcfaf8d6d07c6cfbce553e2d94c9c0000000000000000000000000000000000000000000003e146ad70e8ef1d1dd5",
                    "decodedMethod": {
                        "callParams": [
                            {
                                "name": "recipient",
                                "type": "address",
                                "value": "0x4bba5f077a8fcfaf8d6d07c6cfbce553e2d94c9c"
                            },
                            {
                                "decimalAvailable": true,
                                "name": "amount",
                                "type": "uint256",
                                "value": "18,322,709,716,092,957,040,085"
                            }
                        ],
                        "constructorArguments": "",
                        "name": "transfer",
                        "returnParams": [
                            {
                                "name": "",
                                "type": "bool",
                                "value": true
                            }
                        ],
                        "signature": "transfer(address,uint256)"
                    },
                    "errorInfo": "",
                    "fromAddress": "0x75d308a90ef8c0de983bd6eddc4aae7d8fe226df",
                    "gasUsed": 13648,
                    "id": 5,
                    "methodDecoded": true,
                    "operation": "CALL",
                    "output": "0x0000000000000000000000000000000000000000000000000000000000000001",
                    "revert": false,
                    "revertMessage": "",
                    "selector": "0xa9059cbb",
                    "status": true,
                    "value": "0"
                },
                "nodeType": 0
            },
            "6": {
                "event": {
                    "contract": "0x45c2f8c9b4c0bdc76200448cc26c48ab6ffef83f",
                    "decodedLog": {
                        "name": "Transfer",
                        "params": [
                            {
                                "name": "from",
                                "type": "address",
                                "value": "0x75d308a90ef8c0de983bd6eddc4aae7d8fe226df"
                            },
                            {
                                "name": "to",
                                "type": "address",
                                "value": "0x4bba5f077a8fcfaf8d6d07c6cfbce553e2d94c9c"
                            },
                            {
                                "decimalAvailable": true,
                                "name": "value",
                                "type": "uint256",
                                "value": "18,322,709,716,092,957,040,085"
                            }
                        ],
                        "signature": "Transfer(address,address,uint256)"
                    },
                    "id": 6,
                    "logData": "0x0000000000000000000000000000000000000000000003e146ad70e8ef1d1dd5",
                    "logDecoded": true,
                    "operation": "EVENT",
                    "revert": false,
                    "status": true,
                    "topics": [
                        "0xddf252ad1be2c89b69c2b068fc378daa952ba7f163c4a11628f55a4df523b3ef",
                        "0x00000000000000000000000075d308a90ef8c0de983bd6eddc4aae7d8fe226df",
                        "0x0000000000000000000000004bba5f077a8fcfaf8d6d07c6cfbce553e2d94c9c"
                    ]
                },
                "nodeType": 1
            },
            "7": {
                "invocation": {
                    "address": "0x45c2f8c9b4c0bdc76200448cc26c48ab6ffef83f",
                    "callData": "0x00000000000000000000000075d308a90ef8c0de983bd6eddc4aae7d8fe226df",
                    "decodedMethod": {
                        "callParams": [
                            {
                                "name": "account",
                                "type": "address",
                                "value": "0x75d308a90ef8c0de983bd6eddc4aae7d8fe226df"
                            }
                        ],
                        "constructorArguments": "",
                        "name": "balanceOf",
                        "returnParams": [
                            {
                                "decimalAvailable": true,
                                "name": "",
                                "type": "uint256",
                                "value": "2,916,682,173,399,257,218,846,699"
                            }
                        ],
                        "signature": "balanceOf(address)"
                    },
                    "errorInfo": "",
                    "fromAddress": "0x75d308a90ef8c0de983bd6eddc4aae7d8fe226df",
                    "gasUsed": 863,
                    "id": 7,
                    "methodDecoded": true,
                    "operation": "STATICCALL",
                    "output": "0x0000000000000000000000000000000000000000000269a1a84e262c71c08feb",
                    "revert": false,
                    "revertMessage": "",
                    "selector": "0x70a08231",
                    "status": true,
                    "value": "0"
                },
                "nodeType": 0
            },
            "8": {
                "invocation": {
                    "address": "0xc02aaa39b223fe8d0a0e5c4f27ead9083c756cc2",
                    "callData": "0x00000000000000000000000075d308a90ef8c0de983bd6eddc4aae7d8fe226df",
                    "decodedMethod": {
                        "callParams": [
                            {
                                "name": "",
                                "type": "address",
                                "value": "0x75d308a90ef8c0de983bd6eddc4aae7d8fe226df"
                            }
                        ],
                        "constructorArguments": "",
                        "name": "balanceOf",
                        "returnParams": [
                            {
                                "decimalAvailable": true,
                                "name": "",
                                "type": "uint256",
                                "value": "38,709,146,235,962,078,438"
                            }
                        ],
                        "signature": "balanceOf(address)"
                    },
                    "errorInfo": "",
                    "fromAddress": "0x75d308a90ef8c0de983bd6eddc4aae7d8fe226df",
                    "gasUsed": 534,
                    "id": 8,
                    "methodDecoded": true,
                    "operation": "STATICCALL",
                    "output": "0x00000000000000000000000000000000000000000000000219328369692b34e6",
                    "revert": false,
                    "revertMessage": "",
                    "selector": "0x70a08231",
                    "status": true,
                    "value": "0"
                },
                "nodeType": 0
            },
            "9": {
                "event": {
                    "contract": "0x75d308a90ef8c0de983bd6eddc4aae7d8fe226df",
                    "decodedLog": {
                        "name": "Sync",
                        "params": [
                            {
                                "name": "reserve0",
                                "type": "uint112",
                                "value": "2,916,682,173,399,257,218,846,699"
                            },
                            {
                                "name": "reserve1",
                                "type": "uint112",
                                "value": "38,709,146,235,962,078,438"
                            }
                        ],
                        "signature": "Sync(uint112,uint112)"
                    },
                    "id": 9,
                    "logData": "0x0000000000000000000000000000000000000000000269a1a84e262c71c08feb00000000000000000000000000000000000000000000000219328369692b34e6",
                    "logDecoded": true,
                    "operation": "EVENT",
                    "revert": false,
                    "status": true,
                    "topics": [
                        "0x1c411e9a96e071241c2f21f7726b17ae89e3cab4c78be50e062b03a9fffbbad1"
                    ]
                },
                "nodeType": 1
            }
        },
        "gasFlame": [
            {
                "children": [
                    {
                        "children": [
                            {
                                "children": [],
                                "depth": 0,
                                "name": "Initial Gas",
                                "value": 22972
                            },
                            {
                                "children": [
                                    {
                                        "children": [],
                                        "depth": 1,
                                        "name": "getReserves",
                                        "value": 2504
                                    },
                                    {
                                        "children": [],
                                        "depth": 1,
                                        "name": "transfer",
                                        "value": 12862
                                    },
                                    {
                                        "children": [
                                            {
                                                "children": [],
                                                "depth": 2,
                                                "name": "transfer",
                                                "value": 13648
                                            },
                                            {
                                                "children": [],
                                                "depth": 2,
                                                "name": "balanceOf",
                                                "value": 863
                                            },
                                            {
                                                "children": [],
                                                "depth": 2,
                                                "name": "balanceOf",
                                                "value": 534
                                            }
                                        ],
                                        "depth": 1,
                                        "name": "swap",
                                        "value": 48868
                                    }
                                ],
                                "depth": 0,
                                "name": "Executed Gas",
                                "value": 77277
                            }
                        ],
                        "depth": -1,
                        "name": "Actual Gas Used",
                        "value": 97449
                    },
                    {
                        "children": [],
                        "depth": -1,
                        "name": "Refunded Gas",
                        "value": 2800
                    }
                ],
                "depth": -2,
                "name": "Total Gas",
                "value": 100249
            }
        ],
        "isConfirmed": true,
        "mainTrace": [
            {
                "children": [
                    {
                        "children": [
                            {
                                "children": [],
                                "depth": 1,
                                "id": 1,
                                "order": 1
                            },
                            {
                                "children": [
                                    {
                                        "children": [],
                                        "depth": 2,
                                        "id": 3,
                                        "order": 3
                                    }
                                ],
                                "depth": 1,
                                "id": 2,
                                "order": 2
                            },
                            {
                                "children": [
                                    {
                                        "children": [
                                            {
                                                "children": [],
                                                "depth": 3,
                                                "id": 6,
                                                "order": 6
                                            }
                                        ],
                                        "depth": 2,
                                        "id": 5,
                                        "order": 5
                                    },
                                    {
                                        "children": [],
                                        "depth": 2,
                                        "id": 7,
                                        "order": 7
                                    },
                                    {
                                        "children": [],
                                        "depth": 2,
                                        "id": 8,
                                        "order": 8
                                    },
                                    {
                                        "children": [],
                                        "depth": 2,
                                        "id": 9,
                                        "order": 9
                                    },
                                    {
                                        "children": [],
                                        "depth": 2,
                                        "id": 10,
                                        "order": 10
                                    }
                                ],
                                "depth": 1,
                                "id": 4,
                                "order": 4
                            }
                        ],
                        "depth": 0,
                        "id": 0,
                        "order": 0
                    }
                ],
                "depth": -1,
                "id": -1,
                "order": -1
            }
        ],
        "mainTraceNodeCount": 11,
        "parentIdMap": {
            "0": -1,
            "1": 0,
            "10": 4,
            "2": 0,
            "3": 2,
            "4": 0,
            "5": 4,
            "6": 5,
            "7": 4,
            "8": 4,
            "9": 4
        },
        "tidyTrace": [
            {
                "children": [
                    {
                        "children": [
                            {
                                "children": [
                                    {
                                        "children": [],
                                        "depth": 2,
                                        "id": 3,
                                        "order": 3
                                    }
                                ],
                                "depth": 1,
                                "id": 2,
                                "order": 2
                            },
                            {
                                "children": [
                                    {
                                        "children": [
                                            {
                                                "children": [],
                                                "depth": 3,
                                                "id": 6,
                                                "order": 6
                                            }
                                        ],
                                        "depth": 2,
                                        "id": 5,
                                        "order": 5
                                    },
                                    {
                                        "children": [],
                                        "depth": 2,
                                        "id": 9,
                                        "order": 9
                                    },
                                    {
                                        "children": [],
                                        "depth": 2,
                                        "id": 10,
                                        "order": 10
                                    }
                                ],
                                "depth": 1,
                                "id": 4,
                                "order": 4
                            }
                        ],
                        "depth": 0,
                        "id": 0,
                        "order": 0
                    }
                ],
                "depth": -1,
                "id": -1,
                "order": -1
            }
        ],
        "tidyTraceNodeCount": 8
    },
    "state_change": {
        "stateChanges": [
            {
                "address": "0x45c2f8c9b4c0bdc76200448cc26c48ab6ffef83f",
                "erc": "ERC-20",
                "slots": [
                    {
                        "current": "0x0000000000000000000000000000000000000000000269a1a84e262c71c08feb",
                        "key": "0xae8ecf76df6ba8b39878b2a35354bb85c151086ac378abcb66bfe0507dec1a5f",
                        "prev": "0x000000000000000000000000000000000000000000026d82eefb971560ddadc0"
                    },
                    {
                        "current": "0x0000000000000000000000000000000000000000000045dfc02c12e6c6232e4a",
                        "key": "0x84f7df1ffdc9a092a9756d98aaa8585cf7a1932ff74ffb0da3d9ce1c9dc92917",
                        "prev": "0x0000000000000000000000000000000000000000000041fe797ea1fdd7061075"
                    }
                ],
                "storageVariables": [
                    {
                        "name": "_balances",
                        "type": "mapping(address => uint256)",
                        "value": {
                            "pairs": [
                                {
                                    "key": "0x4bba5f077a8fcfaf8d6d07c6cfbce553e2d94c9c",
                                    "value": {
                                        "current": "329970758710179383160394",
                                        "prev": "311648048994086426120309",
                                        "typeTag": 1
                                    }
                                },
                                {
                                    "key": "0x75d308a90ef8c0de983bd6eddc4aae7d8fe226df",
                                    "value": {
                                        "current": "2916682173399257218846699",
                                        "prev": "2935004883115350175886784",
                                        "typeTag": 1
                                    }
                                }
                            ],
                            "typeTag": 4
                        }
                    }
                ]
            },
            {
                "address": "0x75d308a90ef8c0de983bd6eddc4aae7d8fe226df",
                "erc": "ERC-20",
                "slots": [
                    {
                        "current": "0x633a1acb00000000000219328369692b34e60000000269a1a84e262c71c08feb",
                        "key": "0x0000000000000000000000000000000000000000000000000000000000000008",
                        "prev": "0x63388e5f00000000000215d56af1ceb54ba8000000026d82eefb971560ddadc0"
                    },
                    {
                        "current": "0x00000000000000000000000000000000031f7aa34cf69a4cc850b6a7b01b1ac3",
                        "key": "0x0000000000000000000000000000000000000000000000000000000000000009",
                        "prev": "0x00000000000000000000000000000000031e2623d71d46a641648688d355cf13"
                    },
                    {
                        "current": "0x00000000000000000000000001042588d094d43d717484270714cc8bf5d6542a",
                        "key": "0x000000000000000000000000000000000000000000000000000000000000000a",
                        "prev": "0x00000000000000000000000001025800e6a9e3a895b8de27500704e3996e59a6"
                    }
                ],
                "storageVariables": [
                    {
                        "name": "reserve0",
                        "type": "uint112",
                        "value": {
                            "current": "2916682173399257218846699",
                            "prev": "2935004883115350175886784",
                            "typeTag": 1
                        }
                    },
                    {
                        "name": "reserve1",
                        "type": "uint112",
                        "value": {
                            "current": "38709146235962078438",
                            "prev": "38466769379042610088",
                            "typeTag": 1
                        }
                    },
                    {
                        "name": "blockTimestampLast",
                        "type": "uint32",
                        "value": {
                            "current": "1664752331",
                            "prev": "1664650847",
                            "typeTag": 1
                        }
                    },
                    {
                        "name": "price0CumulativeLast",
                        "type": "uint256",
                        "value": {
                            "current": "4151132581950447762947189043770366659",
                            "prev": "4144226464236088803178632005505371923",
                            "typeTag": 1
                        }
                    },
                    {
                        "name": "price1CumulativeLast",
                        "type": "uint256",
                        "value": {
                            "current": "5801463461851526190748452008581935416324019242",
                            "prev": "5761258448987450335492244084930035795851368870",
                            "typeTag": 1
                        }
                    }
                ]
            },
            {
                "address": "0xc02aaa39b223fe8d0a0e5c4f27ead9083c756cc2",
                "erc": "ERC-20",
                "slots": [
                    {
                        "current": "0x00000000000000000000000000000000000000000000000219328369692b34e6",
                        "key": "0x5cbfa816815399b57309f2cf2acec1008c447fba0a3723377c2619b46f2acb36",
                        "prev": "0x00000000000000000000000000000000000000000000000215d56af1ceb54ba8"
                    },
                    {
                        "current": "0x0000000000000000000000000000000000000000000000024b24cd9282203ce8",
                        "key": "0x5a3775f3f1a75d62d12059ac1ce5cc125a63241db9f88b5321653ebab0c5988b",
                        "prev": "0x0000000000000000000000000000000000000000000000024e81e60a1c962626"
                    }
                ],
                "storageVariables": [
                    {
                        "name": "balanceOf",
                        "type": "mapping(address => uint256)",
                        "value": {
                            "pairs": [
                                {
                                    "key": "0x585c3d4da9b533c7e3df8ac7356c882859298cee",
                                    "value": {
                                        "current": "42308166828557352168",
                                        "prev": "42550543685476820518",
                                        "typeTag": 1
                                    }
                                },
                                {
                                    "key": "0x75d308a90ef8c0de983bd6eddc4aae7d8fe226df",
                                    "value": {
                                        "current": "38709146235962078438",
                                        "prev": "38466769379042610088",
                                        "typeTag": 1
                                    }
                                }
                            ],
                            "typeTag": 4
                        }
                    }
                ]
            }
        ]
    }
}