{
    "balance_change": {
        "balanceChanges": [
            {
                "account": "0xa223ff023a675d9e4b1800e6c943a248f23d12c9",
                "assets": [
                    {
                        "address": "0x2559813bbb508c4c79e9ccce4703bcb1f149edd7",
                        "amount": "4,500",
                        "iconUrl": "",
                        "isERC1155": false,
                        "isERC721": false,
                        "sign": false,
                        "value": "990.1987706"
                    }
                ]
            },
            {
                "account": "0x51818b30dfd5d880e6bf5800f258e95f81fa1c7a",
                "assets": [
                    {
                        "address": "0x2559813bbb508c4c79e9ccce4703bcb1f149edd7",
                        "amount": "4,500",
                        "iconUrl": "",
                        "isERC1155": false,
                        "isERC721": false,
                        "sign": true,
                        "value": "990.1987706"
                    }
                ]
            }
        ]
    },
    "profile": {
        "basic_info": {
            "baseFee": "32.268697865",
            "blockNumber": 17915334,
            "callData": "0xa9059cbb00000000000000000000000051818b30dfd5d880e6bf5800f258e95f81fa1c7a00000000000000000000000000000000000000000000000000000417bce6c800",
            "debugEnable": true,
            "errorInfo": "",
            "eventCount": 1,
            "feeRecipient": "0x690b9a9e9aa1c9db991c7721a92d351db4fac990",
            "formatValue": "0",
            "gasLimit": 138838,
            "gasPrice": "32.968697865",
            "gasUsed": 115698,
            "intTxnCount": 0,
            "internalRevert": false,
            "internalRevertMessage": "",
            "isContractCreation": false,
            "isFlashloan": false,
            "maxFee": "58.088983952",
            "nonce": 15,
            "overwritedBlockNumber": -1,
            "priorityFee": "0.7",
            "receiver": "0x2559813bbb508c4c79e9ccce4703bcb1f149edd7",
            "revertMessage": "",
            "sender": "0xa223ff023a675d9e4b1800e6c943a248f23d12c9",
            "simulationEnable": true,
            "sourceTxnHash": "0x3ac4f586ba0d983bcb270b40e9a2c691dac09da3c5380fe9ee8dd8b5f561a311",
            "status": true,
            "timestamp": "2023-08-14T20:00:23Z",
            "transactionFee": "0.00381441240558477",
            "txnHash": "0x3ac4f586ba0d983bcb270b40e9a2c691dac09da3c5380fe9ee8dd8b5f561a311",
            "txnIndex": 314,
            "type": 2,
            "value": "0"
        },
        "fund_flow": [
            {
                "amount": "4,500",
                "from": "0xa223ff023a675d9e4b1800e6c943a248f23d12c9",
                "id": 1,
                "isERC1155": false,
                "isERC721": false,
                "isReverted": false,
                "order": 1,
                "to": "0x51818b30dfd5d880e6bf5800f258e95f81fa1c7a",
                "token": "0x2559813bbb508c4c79e9ccce4703bcb1f149edd7"
            }
        ],
        "token_infos": [
            {
                "address": "0x2559813bbb508c4c79e9ccce4703bcb1f149edd7",
                "decimals": 9
            },
            {
                "address": "0xc02aaa39b223fe8d0a0e5c4f27ead9083c756cc2",
                "decimals": 18
            },
            {
                "address": "0xeeeeeeeeeeeeeeeeeeeeeeeeeeeeeeeeeeeeeeee",
                "decimals": 18
            }
        ]
    },
    "address_label": {
        "labels": [
            {
                "address": "0xeeeeeeeeeeeeeeeeeeeeeeeeeeeeeeeeeeeeeeee",
                "label": "Ether"
            },
            {
                "address": "0x2559813bbb508c4c79e9ccce4703bcb1f149edd7",
                "label": "Hourglass: WAIT Token"
            },
            {
                "address": "0x0000000000000000000000000000000000000001",
                "label": "Precompiled"
            },
            {
                "address": "0x0000000000000000000000000000000000000002",
                "label": "Precompiled"
            },
            {
                "address": "0x0000000000000000000000000000000000000003",
                "label": "Precompiled"
            },
            {
                "address": "0x0000000000000000000000000000000000000004",
                "label": "Precompiled"
            }
        ]
    },
    "trace": {
        "accountLabels": null,
        "dataMap": {
            "-1": {
                "invocation": {
                    "address": "0xa223ff023a675d9e4b1800e6c943a248f23d12c9",
                    "callData": "",
                    "decodedMethod": null,
                    "errorInfo": "",
                    "fromAddress": "",
                    "gasUsed": 0,
                    "id": -1,
                    "methodDecoded": false,
                    "operation": "",
                    "output": "",
                    "revert": false,
                    "revertMessage": "",
                    "selector": "",
                    "status": false,
                    "value": ""
                },
                "nodeType": 0
            },
            "0": {
                "invocation": {
                    "address": "0x2559813bbb508c4c79e9ccce4703bcb1f149edd7",
                    "callData": "0x00000000000000000000000051818b30dfd5d880e6bf5800f258e95f81fa1c7a00000000000000000000000000000000000000000000000000000417bce6c800",
                    "decodedMethod": {
                        "callParams": [
                            {
                                "name": "recipient",
                                "type": "address",
                                "value": "0x51818b30dfd5d880e6bf5800f258e95f81fa1c7a"
                            },
                            {
                                "decimalAvailable": true,
                                "name": "amount",
                                "type": "uint256",
                                "value": "4,500,000,000,000"
                            }
                        ],
                        "constructorArguments": "",
                        "name": "transfer",
                        "returnParams": [
                            {
                                "name": "",
                                "type": "bool",
                                "value": true
                            }
                        ],
                        "signature": "transfer(address,uint256)"
                    },
                    "errorInfo": "",
                    "fromAddress": "0xa223ff023a675d9e4b1800e6c943a248f23d12c9",
                    "gasUsed": 115698,
                    "id": 0,
                    "methodDecoded": true,
                    "operation": "CALL",
                    "output": "0x0000000000000000000000000000000000000000000000000000000000000001",
                    "revert": false,
                    "revertMessage": "",
                    "selector": "0xa9059cbb",
                    "status": true,
                    "value": "0"
                },
                "nodeType": 0
            },
            "1": {
                "event": {
                    "contract": "0x2559813bbb508c4c79e9ccce4703bcb1f149edd7",
                    "decodedLog": {
                        "name": "Transfer",
                        "params": [
                            {
                                "name": "from",
                                "type": "address",
                                "value": "0xa223ff023a675d9e4b1800e6c943a248f23d12c9"
                            },
                            {
                                "name": "to",
                                "type": "address",
                                "value": "0x51818b30dfd5d880e6bf5800f258e95f81fa1c7a"
                            },
                            {
                                "decimalAvailable": true,
                                "name": "value",
                                "type": "uint256",
                                "value": "4,500,000,000,000"
                            }
                        ],
                        "signature": "Transfer(address,address,uint256)"
                    },
                    "id": 1,
                    "logData": "0x00000000000000000000000000000000000000000000000000000417bce6c800",
                    "logDecoded": true,
                    "operation": "EVENT",
                    "revert": false,
                    "status": true,
                    "topics": [
                        "0xddf252ad1be2c89b69c2b068fc378daa952ba7f163c4a11628f55a4df523b3ef",
                        "0x000000000000000000000000a223ff023a675d9e4b1800e6c943a248f23d12c9",
                        "0x00000000000000000000000051818b30dfd5d880e6bf5800f258e95f81fa1c7a"
                    ]
                },
                "nodeType": 1
            }
        },
        "gasFlame": [
            {
                "children": [
                    {
                        "children": [
                            {
                                "children": [],
                                "depth": 0,
                                "name": "Initial Gas",
                                "value": 21608
                            },
                            {
                                "children": [],
                                "depth": 0,
                                "name": "Executed Gas",
                                "value": 94090
                            }
                        ],
                        "depth": -1,
                        "name": "Actual Gas Used",
                        "value": 115698
                    },
                    {
                        "children": [],
                        "depth": -1,
                        "name": "Refunded Gas",
                        "value": 0
                    }
                ],
                "depth": -2,
                "name": "Total Gas",
                "value": 115698
            }
        ],
        "isConfirmed": true,
        "mainTrace": [
            {
                "children": [
                    {
                        "children": [
                            {
                                "children": [],
                                "depth": 1,
                                "id": 1,
                                "order": 1
                            }
                        ],
                        "depth": 0,
                        "id": 0,
                        "order": 0
                    }
                ],
                "depth": -1,
                "id": -1,
                "order": -1
            }
        ],
        "mainTraceNodeCount": 2,
        "parentIdMap": {
            "0": -1,
            "1": 0
        },
        "tidyTrace": [
            {
                "children": [
                    {
                        "children": [
                            {
                                "children": [],
                                "depth": 1,
                                "id": 1,
                                "order": 1
                            }
                        ],
                        "depth": 0,
                        "id": 0,
                        "order": 0
                    }
                ],
                "depth": -1,
                "id": -1,
                "order": -1
            }
        ],
        "tidyTraceNodeCount": 2
    },
    "state_change": {
        "stateChanges": [
            {
                "address": "0x2559813bbb508c4c79e9ccce4703bcb1f149edd7",
                "erc": "ERC-20",
                "slots": [
                    {
                        "current": "0x010538c6412f1448c5539e5b033d3229815063f2516eec8bed65b5f4646e94e6",
                        "key": "0x796317af5d68dcfd5fb267fea51de31b92a2504f52b95f651f048734d55d5530",
                        "prev": "0x01082bbfc86f0f0a97f16580c71c19ab05498256c0844e1d01f58c816c9e4ce6"
                    },
                    {
                        "current": "0x0002f2f9873ffac1d29dc725c3dee78183f91e646f156191148fd68d082fb800",
                        "key": "0xf104f7de65d8bf332044c338fdd252dfd7828603a12445058ad7aae03da6f92b",
                        "prev": "0x0000000000000000000000000000000000000000000000000000000000000000"
                    },
                    {
                        "current": "0x0000000000000000000000000000000000000000000000000000000000000003",
                        "key": "0x000000000000000000000000000000000000000000000000000000000000000d",
                        "prev": "0x0000000000000000000000000000000000000000000000000000000000000000"
                    }
                ],
                "storageVariables": [
                    {
                        "name": "_rOwned",
                        "type": "mapping(address => uint256)",
                        "value": {
                            "pairs": [
                                {
                                    "key": "0x51818b30dfd5d880e6bf5800f258e95f81fa1c7a",
                                    "value": {
                                        "current": "5210644015679228794060694325390955853397149309953825381775587500000000000",
                                        "prev": "0",
                                        "typeTag": 1
                                    }
                                },
                                {
                                    "key": "0xa223ff023a675d9e4b1800e6c943a248f23d12c9",
                                    "value": {
                                        "current": "461538926636684909975402785358585923674484357384932616809110748769685509350",
                                        "prev": "466749570652364138769463479683976879527881506694886442190886336269685509350",
                                        "typeTag": 1
                                    }
                                }
                            ],
                            "typeTag": 4
                        }
                    },
                    {
                        "name": "_taxFee",
                        "type": "uint256",
                        "value": {
                            "current": "3",
                            "prev": "0",
                            "typeTag": 1
                        }
                    }
                ]
            }
        ]
    }
}