{
    "balance_change": {
        "balanceChanges": [
            {
                "account": "0x3a5cc8689d1b0cef2c317bc5c0ad6ce88b27d597",
                "assets": [
                    {
                        "address": "0xa0b86991c6218b36c1d19d4a2e9eb0ce3606eb48",
                        "amount": "64.943759",
                        "iconUrl": "https://assets.blocksec.com/icon/0347a86cc07dbd03fdc5db01a4e5ac7e1217f90e0b6e4bb0f75cbcca09160989.png",
                        "isERC1155": false,
                        "isERC721": false,
                        "sign": false,
                        "value": "65.20353403600000023"
                    }
                ]
            },
            {
                "account": "0x2ab3cc82ba243cddebacd6dbc6ee131972a8ffa5",
                "assets": [
                    {
                        "address": "0xa0b86991c6218b36c1d19d4a2e9eb0ce3606eb48",
                        "amount": "64.943759",
                        "iconUrl": "https://assets.blocksec.com/icon/0347a86cc07dbd03fdc5db01a4e5ac7e1217f90e0b6e4bb0f75cbcca09160989.png",
                        "isERC1155": false,
                        "isERC721": false,
                        "sign": true,
                        "value": "65.20353403600000023"
                    }
                ]
            }
        ]
    },
    "profile": {
        "basic_info": {
            "baseFee": "18.333595031",
            "blockNumber": 16027515,
            "callData": "0x0dcd7a6c0000000000000000000000002ab3cc82ba243cddebacd6dbc6ee131972a8ffa50000000000000000000000000000000000000000000000000000000003def68f000000000000000000000000a0b86991c6218b36c1d19d4a2e9eb0ce3606eb4800000000000000000000000000000000000000000000000000000000637e6ef40000000000000000000000000000000000000000000000000000000000005b9b00000000000000000000000000000000000000000000000000000000000000c000000000000000000000000000000000000000000000000000000000000000410ba27dffca03d5b964a64f9105b7637602e448f5ee40c019c17ee977190660d568e63234a0d2828e006920602e08c1d3268aebf2e2fdd6bfb1cba44a25cceb1d1c00000000000000000000000000000000000000000000000000000000000000",
            "debugEnable": true,
            "errorInfo": "",
            "eventCount": 1,
            "feeRecipient": "0xf2f5c73fa04406b1995e397b55c24ab1f3ea726c",
            "formatValue": "0",
            "gasLimit": 219486,
            "gasPrice": "26.193324",
            "gasUsed": 118329,
            "intTxnCount": 3,
            "internalRevert": false,
            "internalRevertMessage": "",
            "isContractCreation": false,
            "isFlashloan": false,
            "maxFee": "",
            "nonce": 62526,
            "overwritedBlockNumber": -1,
            "priorityFee": "",
            "receiver": "0x3a5cc8689d1b0cef2c317bc5c0ad6ce88b27d597",
            "revertMessage": "",
            "sender": "0xb02c6c40a798184d5e012fbb1dc698977671f8fc",
            "simulationEnable": true,
            "sourceTxnHash": "0x3a750a8833a552b7d60cc44034827c3be40408246bd58bc06a27e50d4848a461",
            "status": true,
            "timestamp": "2022-11-22T19:05:47Z",
            "transactionFee": "0.003099429835596",
            "txnHash": "0x3a750a8833a552b7d60cc44034827c3be40408246bd58bc06a27e50d4848a461",
            "txnIndex": 16,
            "type": 0,
            "value": "0"
        },
        "fund_flow": [
            {
                "amount": "64.943759",
                "from": "0x3a5cc8689d1b0cef2c317bc5c0ad6ce88b27d597",
                "id": 1,
                "isERC1155": false,
                "isERC721": false,
                "isReverted": false,
                "order": 1,
                "to": "0x2ab3cc82ba243cddebacd6dbc6ee131972a8ffa5",
                "token": "0xa0b86991c6218b36c1d19d4a2e9eb0ce3606eb48"
            }
        ],
        "token_infos": [
            {
                "address": "0xa0b86991c6218b36c1d19d4a2e9eb0ce3606eb48",
                "decimals": 6
            },
            {
                "address": "0xc02aaa39b223fe8d0a0e5c4f27ead9083c756cc2",
                "decimals": 18
            },
            {
                "address": "0xeeeeeeeeeeeeeeeeeeeeeeeeeeeeeeeeeeeeeeee",
                "decimals": 18
            }
        ]
    },
    "address_label": {
        "labels": [
            {
                "address": "0x0000000000000000000000000000000000000002",
                "label": "Precompiled"
            },
            {
                "address": "0x0000000000000000000000000000000000000003",
                "label": "Precompiled"
            },
            {
                "address": "0x0000000000000000000000000000000000000004",
                "label": "Precompiled"
            },
            {
                "address": "0xeeeeeeeeeeeeeeeeeeeeeeeeeeeeeeeeeeeeeeee",
                "label": "Ether"
            },
            {
                "address": "0xa2327a938febf5fec13bacfb16ae10ecbc4cbdcf",
                "label": "FiatTokenV2_1"
            },
            {
                "address": "0xa0b86991c6218b36c1d19d4a2e9eb0ce3606eb48",
                "label": "Circle: USDC Token"
            },
            {
                "address": "0x0000000000000000000000000000000000000001",
                "label": "Precompiled"
            }
        ]
    },
    "trace": {
        "accountLabels": null,
        "dataMap": {
            "-1": {
                "invocation": {
                    "address": "0xb02c6c40a798184d5e012fbb1dc698977671f8fc",
                    "callData": "",
                    "decodedMethod": null,
                    "errorInfo": "",
                    "fromAddress": "",
                    "gasUsed": 0,
                    "id": -1,
                    "methodDecoded": false,
                    "operation": "",
                    "output": "",
                    "revert": false,
                    "revertMessage": "",
                    "selector": "",
                    "status": false,
                    "value": ""
                },
                "nodeType": 0
            },
            "0": {
                "invocation": {
                    "address": "0x3a5cc8689d1b0cef2c317bc5c0ad6ce88b27d597",
                    "callData": "0x0000000000000000000000002ab3cc82ba243cddebacd6dbc6ee131972a8ffa50000000000000000000000000000000000000000000000000000000003def68f000000000000000000000000a0b86991c6218b36c1d19d4a2e9eb0ce3606eb4800000000000000000000000000000000000000000000000000000000637e6ef40000000000000000000000000000000000000000000000000000000000005b9b00000000000000000000000000000000000000000000000000000000000000c000000000000000000000000000000000000000000000000000000000000000410ba27dffca03d5b964a64f9105b7637602e448f5ee40c019c17ee977190660d568e63234a0d2828e006920602e08c1d3268aebf2e2fdd6bfb1cba44a25cceb1d1c00000000000000000000000000000000000000000000000000000000000000",
                    "decodedMethod": {
                        "callParams": [
                            {
                                "name": "toAddress",
                                "type": "address",
                                "value": "0x2ab3cc82ba243cddebacd6dbc6ee131972a8ffa5"
                            },
                            {
                                "name": "value",
                                "type": "uint256",
                                "value": "64,943,759"
                            },
                            {
                                "name": "tokenContractAddress",
                                "type": "address",
                                "value": "0xa0b86991c6218b36c1d19d4a2e9eb0ce3606eb48"
                            },
                            {
                                "name": "expireTime",
                                "type": "uint256",
                                "value": "1,669,230,324"
                            },
                            {
                                "name": "sequenceId",
                                "type": "uint256",
                                "value": "23,451"
                            },
                            {
                                "name": "signature",
                                "type": "bytes",
                                "value": "0x0ba27dffca03d5b964a64f9105b7637602e448f5ee40c019c17ee977190660d568e63234a0d2828e006920602e08c1d3268aebf2e2fdd6bfb1cba44a25cceb1d1c"
                            }
                        ],
                        "constructorArguments": "",
                        "name": "sendMultiSigToken",
                        "returnParams": [],
                        "signature": "sendMultiSigToken(address,uint256,address,uint256,uint256,bytes)"
                    },
                    "errorInfo": "",
                    "fromAddress": "0xb02c6c40a798184d5e012fbb1dc698977671f8fc",
                    "gasUsed": 118329,
                    "id": 0,
                    "methodDecoded": true,
                    "operation": "CALL",
                    "output": "",
                    "revert": false,
                    "revertMessage": "",
                    "selector": "0x0dcd7a6c",
                    "status": true,
                    "value": "0"
                },
                "nodeType": 0
            },
            "1": {
                "invocation": {
                    "address": "0x0000000000000000000000000000000000000001",
                    "callData": "0x088598588237cfa4242eda9f10bd09afb2e566287f8746c72c04e454000000000000000000000000000000000000000000000000000000000000001c0ba27dffca03d5b964a64f9105b7637602e448f5ee40c019c17ee977190660d568e63234a0d2828e006920602e08c1d3268aebf2e2fdd6bfb1cba44a25cceb1d",
                    "decodedMethod": {
                        "callParams": [
                            {
                                "name": "hash",
                                "type": "bytes32",
                                "value": "0x78de72ac088598588237cfa4242eda9f10bd09afb2e566287f8746c72c04e454"
                            },
                            {
                                "name": "v",
                                "type": "uint256",
                                "value": "28"
                            },
                            {
                                "name": "r",
                                "type": "bytes32",
                                "value": "0x0ba27dffca03d5b964a64f9105b7637602e448f5ee40c019c17ee977190660d5"
                            },
                            {
                                "name": "s",
                                "type": "bytes32",
                                "value": "0x68e63234a0d2828e006920602e08c1d3268aebf2e2fdd6bfb1cba44a25cceb1d"
                            }
                        ],
                        "constructorArguments": "",
                        "name": "ecrecover",
                        "returnParams": [
                            {
                                "name": "",
                                "type": "address",
                                "value": "0xd9d77776248c884fb1363e8b8defab6183789680"
                            }
                        ],
                        "signature": "ecrecover(bytes32,uint256,bytes32,bytes32)"
                    },
                    "errorInfo": "",
                    "fromAddress": "0x3a5cc8689d1b0cef2c317bc5c0ad6ce88b27d597",
                    "gasUsed": 3000,
                    "id": 1,
                    "methodDecoded": true,
                    "operation": "CALL",
                    "output": "0x000000000000000000000000d9d77776248c884fb1363e8b8defab6183789680",
                    "revert": false,
                    "revertMessage": "",
                    "selector": "0x78de72ac",
                    "status": true,
                    "value": "0"
                },
                "nodeType": 0
            },
            "2": {
                "invocation": {
                    "address": "0xa0b86991c6218b36c1d19d4a2e9eb0ce3606eb48",
                    "callData": "0x0000000000000000000000002ab3cc82ba243cddebacd6dbc6ee131972a8ffa50000000000000000000000000000000000000000000000000000000003def68f",
                    "decodedMethod": {
                        "callParams": [
                            {
                                "name": "to",
                                "type": "address",
                                "value": "0x2ab3cc82ba243cddebacd6dbc6ee131972a8ffa5"
                            },
                            {
                                "decimalAvailable": true,
                                "name": "value",
                                "type": "uint256",
                                "value": "64,943,759"
                            }
                        ],
                        "constructorArguments": "",
                        "name": "transfer",
                        "returnParams": [
                            {
                                "name": "",
                                "type": "bool",
                                "value": true
                            }
                        ],
                        "signature": "transfer(address,uint256)"
                    },
                    "errorInfo": "",
                    "fromAddress": "0x3a5cc8689d1b0cef2c317bc5c0ad6ce88b27d597",
                    "gasUsed": 44017,
                    "id": 2,
                    "methodDecoded": true,
                    "operation": "CALL",
                    "output": "0x0000000000000000000000000000000000000000000000000000000000000001",
                    "revert": false,
                    "revertMessage": "",
                    "selector": "0xa9059cbb",
                    "status": true,
                    "value": "0"
                },
                "nodeType": 0
            },
            "3": {
                "invocation": {
                    "address": "0xa2327a938febf5fec13bacfb16ae10ecbc4cbdcf",
                    "callData": "0x0000000000000000000000002ab3cc82ba243cddebacd6dbc6ee131972a8ffa50000000000000000000000000000000000000000000000000000000003def68f",
                    "decodedMethod": {
                        "callParams": [
                            {
                                "name": "to",
                                "type": "address",
                                "value": "0x2ab3cc82ba243cddebacd6dbc6ee131972a8ffa5"
                            },
                            {
                                "decimalAvailable": true,
                                "name": "value",
                                "type": "uint256",
                                "value": "64,943,759"
                            }
                        ],
                        "constructorArguments": "",
                        "name": "transfer",
                        "returnParams": [
                            {
                                "name": "",
                                "type": "bool",
                                "value": true
                            }
                        ],
                        "signature": "transfer(address,uint256)"
                    },
                    "errorInfo": "",
                    "fromAddress": "0xa0b86991c6218b36c1d19d4a2e9eb0ce3606eb48",
                    "gasUsed": 36728,
                    "id": 3,
                    "methodDecoded": true,
                    "operation": "DELEGATECALL",
                    "output": "0x0000000000000000000000000000000000000000000000000000000000000001",
                    "revert": false,
                    "revertMessage": "",
                    "selector": "0xa9059cbb",
                    "status": true,
                    "value": "0"
                },
                "nodeType": 0
            },
            "4": {
                "event": {
                    "contract": "0xa0b86991c6218b36c1d19d4a2e9eb0ce3606eb48",
                    "decodedLog": {
                        "name": "Transfer",
                        "params": [
                            {
                                "name": "from",
                                "type": "address",
                                "value": "0x3a5cc8689d1b0cef2c317bc5c0ad6ce88b27d597"
                            },
                            {
                                "name": "to",
                                "type": "address",
                                "value": "0x2ab3cc82ba243cddebacd6dbc6ee131972a8ffa5"
                            },
                            {
                                "decimalAvailable": true,
                                "name": "value",
                                "type": "uint256",
                                "value": "64,943,759"
                            }
                        ],
                        "signature": "Transfer(address,address,uint256)"
                    },
                    "id": 4,
                    "logData": "0x0000000000000000000000000000000000000000000000000000000003def68f",
                    "logDecoded": true,
                    "operation": "EVENT",
                    "revert": false,
                    "status": true,
                    "topics": [
                        "0xddf252ad1be2c89b69c2b068fc378daa952ba7f163c4a11628f55a4df523b3ef",
                        "0x0000000000000000000000003a5cc8689d1b0cef2c317bc5c0ad6ce88b27d597",
                        "0x0000000000000000000000002ab3cc82ba243cddebacd6dbc6ee131972a8ffa5"
                    ]
                },
                "nodeType": 1
            }
        },
        "gasFlame": [
            {
                "children": [
                    {
                        "children": [
                            {
                                "children": [],
                                "depth": 0,
                                "name": "Initial Gas",
                                "value": 23736
                            },
                            {
                                "children": [
                                    {
                                        "children": [],
                                        "depth": 1,
                                        "name": "ecrecover",
                                        "value": 3000
                                    },
                                    {
                                        "children": [
                                            {
                                                "children": [],
                                                "depth": 2,
                                                "name": "transfer",
                                                "value": 36728
                                            }
                                        ],
                                        "depth": 1,
                                        "name": "transfer",
                                        "value": 44017
                                    }
                                ],
                                "depth": 0,
                                "name": "Executed Gas",
                                "value": 94593
                            }
                        ],
                        "depth": -1,
                        "name": "Actual Gas Used",
                        "value": 118329
                    },
                    {
                        "children": [],
                        "depth": -1,
                        "name": "Refunded Gas",
                        "value": 0
                    }
                ],
                "depth": -2,
                "name": "Total Gas",
                "value": 118329
            }
        ],
        "isConfirmed": true,
        "mainTrace": [
            {
                "children": [
                    {
                        "children": [
                            {
                                "children": [],
                                "depth": 1,
                                "id": 1,
                                "order": 1
                            },
                            {
                                "children": [
                                    {
                                        "children": [
                                            {
                                                "children": [],
                                                "depth": 3,
                                                "id": 4,
                                                "order": 4
                                            }
                                        ],
                                        "depth": 2,
                                        "id": 3,
                                        "order": 3
                                    }
                                ],
                                "depth": 1,
                                "id": 2,
                                "order": 2
                            }
                        ],
                        "depth": 0,
                        "id": 0,
                        "order": 0
                    }
                ],
                "depth": -1,
                "id": -1,
                "order": -1
            }
        ],
        "mainTraceNodeCount": 5,
        "parentIdMap": {
            "0": -1,
            "1": 0,
            "2": 0,
            "3": 2,
            "4": 3
        },
        "tidyTrace": [
            {
                "children": [
                    {
                        "children": [
                            {
                                "children": [],
                                "depth": 1,
                                "id": 1,
                                "order": 1
                            },
                            {
                                "children": [
                                    {
                                        "children": [
                                            {
                                                "children": [],
                                                "depth": 3,
                                                "id": 4,
                                                "order": 4
                                            }
                                        ],
                                        "depth": 2,
                                        "id": 3,
                                        "order": 3
                                    }
                                ],
                                "depth": 1,
                                "id": 2,
                                "order": 2
                            }
                        ],
                        "depth": 0,
                        "id": 0,
                        "order": 0
                    }
                ],
                "depth": -1,
                "id": -1,
                "order": -1
            }
        ],
        "tidyTraceNodeCount": 5
    },
    "state_change": {
        "stateChanges": [
            {
                "address": "0x3a5cc8689d1b0cef2c317bc5c0ad6ce88b27d597",
                "erc": "",
                "slots": [
                    {
                        "current": "0x0000000000000000000000000000000000000000000000000000000000005b9b",
                        "key": "0x000000000000000000000000000000000000000000000000000000000000000b",
                        "prev": "0x0000000000000000000000000000000000000000000000000000000000005b91"
                    }
                ],
                "storageVariables": []
            },
            {
                "address": "0xa0b86991c6218b36c1d19d4a2e9eb0ce3606eb48",
                "erc": "ERC-20",
                "slots": [
                    {
                        "current": "0x00000000000000000000000000000000000000000000000000000cb5822fcb94",
                        "key": "0x829df9e4b8065e25e8bc49c205a71995f29c3dfe64a1f0ba57ad987c4aebbdd0",
                        "prev": "0x00000000000000000000000000000000000000000000000000000cb5860ec223"
                    },
                    {
                        "current": "0x0000000000000000000000000000000000000000000000000000000003def68f",
                        "key": "0xdab9d0f635e3720edf79e8b81d139ed574f6576e4cab8262c9975dbe0eaa1975",
                        "prev": "0x0000000000000000000000000000000000000000000000000000000000000000"
                    }
                ],
                "storageVariables": [
                    {
                        "name": "balances",
                        "type": "mapping(address => uint256)",
                        "value": {
                            "pairs": [
                                {
                                    "key": "0x2ab3cc82ba243cddebacd6dbc6ee131972a8ffa5",
                                    "value": {
                                        "current": "64943759",
                                        "prev": "0",
                                        "typeTag": 1
                                    }
                                },
                                {
                                    "key": "0x3a5cc8689d1b0cef2c317bc5c0ad6ce88b27d597",
                                    "value": {
                                        "current": "13973712784276",
                                        "prev": "13973777728035",
                                        "typeTag": 1
                                    }
                                }
                            ],
                            "typeTag": 4
                        }
                    }
                ]
            }
        ]
    }
}