{
    "balance_change": {
        "balanceChanges": [
            {
                "account": "0x058905e267c1c2d9a3aa2f589f702880ecb55f9f",
                "assets": [
                    {
                        "address": "0x88acdd2a6425c3faae4bc9650fd7e27e0bebb7ab",
                        "amount": "15",
                        "iconUrl": "",
                        "isERC1155": false,
                        "isERC721": false,
                        "sign": false,
                        "value": "2441.017586"
                    },
                    {
                        "address": "0x33840024177a7daca3468912363bed8b425015c5",
                        "amount": "8,191.726881477020271188",
                        "iconUrl": "",
                        "isERC1155": false,
                        "isERC721": false,
                        "sign": true,
                        "value": "2405.3275"
                    }
                ]
            },
            {
                "account": "0x1b4f9f96884eb976d7ffcb461471749a78c2b5db",
                "assets": [
                    {
                        "address": "0xc02aaa39b223fe8d0a0e5c4f27ead9083c756cc2",
                        "amount": "0.69386711888827938",
                        "iconUrl": "https://assets.blocksec.com/icon/f1cb2d02c471d545bbc7722daf3277fd852d98e63d118771af7047bd8256c516.png",
                        "isERC1155": false,
                        "isERC721": false,
                        "sign": true,
                        "value": "2441.017586"
                    },
                    {
                        "address": "0x33840024177a7daca3468912363bed8b425015c5",
                        "amount": "8,191.726881477020271188",
                        "iconUrl": "",
                        "isERC1155": false,
                        "isERC721": false,
                        "sign": false,
                        "value": "2405.3275"
                    }
                ]
            },
            {
                "account": "0xcd6bcca48069f8588780dfa274960f15685aee0e",
                "assets": [
                    {
                        "address": "0x88acdd2a6425c3faae4bc9650fd7e27e0bebb7ab",
                        "amount": "15",
                        "iconUrl": "",
                        "isERC1155": false,
                        "isERC721": false,
                        "sign": true,
                        "value": "2441.017586"
                    },
                    {
                        "address": "0xc02aaa39b223fe8d0a0e5c4f27ead9083c756cc2",
                        "amount": "0.69386711888827938",
                        "iconUrl": "https://assets.blocksec.com/icon/f1cb2d02c471d545bbc7722daf3277fd852d98e63d118771af7047bd8256c516.png",
                        "isERC1155": false,
                        "isERC721": false,
                        "sign": false,
                        "value": "2441.017586"
                    }
                ]
            }
        ]
    },
    "profile": {
        "basic_info": {
            "baseFee": "",
            "blockNumber": 12380625,
            "callData": "0x38ed1739000000000000000000000000000000000000000000000000d02ab486cedc00000000000000000000000000000000000000000000000001af23e4062b4d41976200000000000000000000000000000000000000000000000000000000000000a0000000000000000000000000058905e267c1c2d9a3aa2f589f702880ecb55f9f000000000000000000000000000000000000000000000000000000006093dee7000000000000000000000000000000000000000000000000000000000000000300000000000000000000000088acdd2a6425c3faae4bc9650fd7e27e0bebb7ab000000000000000000000000c02aaa39b223fe8d0a0e5c4f27ead9083c756cc200000000000000000000000033840024177a7daca3468912363bed8b425015c5",
            "debugEnable": true,
            "errorInfo": "",
            "eventCount": 8,
            "feeRecipient": "0x7f101fe45e6649a6fb8f3f8b43ed03d353f2b90c",
            "formatValue": "0",
            "gasLimit": 218153,
            "gasPrice": "53",
            "gasUsed": 189988,
            "intTxnCount": 11,
            "internalRevert": false,
            "internalRevertMessage": "",
            "isContractCreation": false,
            "isFlashloan": false,
            "maxFee": "",
            "nonce": 247,
            "overwritedBlockNumber": -1,
            "priorityFee": "",
            "receiver": "0x7a250d5630b4cf539739df2c5dacb4c659f2488d",
            "revertMessage": "",
            "sender": "0x058905e267c1c2d9a3aa2f589f702880ecb55f9f",
            "simulationEnable": true,
            "sourceTxnHash": "0x3a7f41ae064baf6a90b5aa494fbf18f3117a7a110baf27149dfc566db410bf74",
            "status": true,
            "timestamp": "2021-05-06T12:02:27Z",
            "transactionFee": "0.010069364",
            "txnHash": "0x3a7f41ae064baf6a90b5aa494fbf18f3117a7a110baf27149dfc566db410bf74",
            "txnIndex": 220,
            "type": 0,
            "value": "0"
        },
        "fund_flow": [
            {
                "amount": "15",
                "from": "0x058905e267c1c2d9a3aa2f589f702880ecb55f9f",
                "id": 1,
                "isERC1155": false,
                "isERC721": false,
                "isReverted": false,
                "order": 1,
                "to": "0xcd6bcca48069f8588780dfa274960f15685aee0e",
                "token": "0x88acdd2a6425c3faae4bc9650fd7e27e0bebb7ab"
            },
            {
                "amount": "0.69386711888827938",
                "from": "0xcd6bcca48069f8588780dfa274960f15685aee0e",
                "id": 2,
                "isERC1155": false,
                "isERC721": false,
                "isReverted": false,
                "order": 2,
                "to": "0x1b4f9f96884eb976d7ffcb461471749a78c2b5db",
                "token": "0xc02aaa39b223fe8d0a0e5c4f27ead9083c756cc2"
            },
            {
                "amount": "8,191.726881477020271188",
                "from": "0x1b4f9f96884eb976d7ffcb461471749a78c2b5db",
                "id": 3,
                "isERC1155": false,
                "isERC721": false,
                "isReverted": false,
                "order": 3,
                "to": "0x058905e267c1c2d9a3aa2f589f702880ecb55f9f",
                "token": "0x33840024177a7daca3468912363bed8b425015c5"
            }
        ],
        "token_infos": [
            {
                "address": "0x88acdd2a6425c3faae4bc9650fd7e27e0bebb7ab",
                "decimals": 18
            },
            {
                "address": "0xc02aaa39b223fe8d0a0e5c4f27ead9083c756cc2",
                "decimals": 18
            },
            {
                "address": "0xeeeeeeeeeeeeeeeeeeeeeeeeeeeeeeeeeeeeeeee",
                "decimals": 18
            },
            {
                "address": "0x33840024177a7daca3468912363bed8b425015c5",
                "decimals": 18
            }
        ]
    },
    "address_label": {
        "labels": [
            {
                "address": "0x7a250d5630b4cf539739df2c5dacb4c659f2488d",
                "label": "Uniswap V2: Router 2"
            },
            {
                "address": "0xc02aaa39b223fe8d0a0e5c4f27ead9083c756cc2",
                "label": "Wrapped Ether (WETH)"
            },
            {
                "address": "0x88acdd2a6425c3faae4bc9650fd7e27e0bebb7ab",
                "label": "Alchemist Coin: MIST Token"
            },
            {
                "address": "0x0000000000000000000000000000000000000001",
                "label": "Precompiled"
            },
            {
                "address": "0x0000000000000000000000000000000000000002",
                "label": "Precompiled"
            },
            {
                "address": "0x0000000000000000000000000000000000000003",
                "label": "Precompiled"
            },
            {
                "address": "0x0000000000000000000000000000000000000004",
                "label": "Precompiled"
            },
            {
                "address": "0xeeeeeeeeeeeeeeeeeeeeeeeeeeeeeeeeeeeeeeee",
                "label": "Ether"
            },
            {
                "address": "0x33840024177a7daca3468912363bed8b425015c5",
                "label": "ebox: EBOX Token"
            },
            {
                "address": "0xcd6bcca48069f8588780dfa274960f15685aee0e",
                "label": "Uniswap V2: \u2697\ufe0f"
            },
            {
                "address": "0x1b4f9f96884eb976d7ffcb461471749a78c2b5db",
                "label": "Uniswap V2: EBOX 3"
            }
        ]
    },
    "trace": {
        "accountLabels": null,
        "dataMap": {
            "-1": {
                "invocation": {
                    "address": "0x058905e267c1c2d9a3aa2f589f702880ecb55f9f",
                    "callData": "",
                    "decodedMethod": null,
                    "errorInfo": "",
                    "fromAddress": "",
                    "gasUsed": 0,
                    "id": -1,
                    "methodDecoded": false,
                    "operation": "",
                    "output": "",
                    "revert": false,
                    "revertMessage": "",
                    "selector": "",
                    "status": false,
                    "value": ""
                },
                "nodeType": 0
            },
            "0": {
                "invocation": {
                    "address": "0x7a250d5630b4cf539739df2c5dacb4c659f2488d",
                    "callData": "0x000000000000000000000000000000000000000000000000d02ab486cedc00000000000000000000000000000000000000000000000001af23e4062b4d41976200000000000000000000000000000000000000000000000000000000000000a0000000000000000000000000058905e267c1c2d9a3aa2f589f702880ecb55f9f000000000000000000000000000000000000000000000000000000006093dee7000000000000000000000000000000000000000000000000000000000000000300000000000000000000000088acdd2a6425c3faae4bc9650fd7e27e0bebb7ab000000000000000000000000c02aaa39b223fe8d0a0e5c4f27ead9083c756cc200000000000000000000000033840024177a7daca3468912363bed8b425015c5",
                    "decodedMethod": {
                        "callParams": [
                            {
                                "name": "amountIn",
                                "type": "uint256",
                                "value": "15,000,000,000,000,000,000"
                            },
                            {
                                "name": "amountOutMin",
                                "type": "uint256",
                                "value": "7,953,132,894,637,883,758,434"
                            },
                            {
                                "name": "path",
                                "type": "address[]",
                                "value": [
                                    "0x88acdd2a6425c3faae4bc9650fd7e27e0bebb7ab",
                                    "0xc02aaa39b223fe8d0a0e5c4f27ead9083c756cc2",
                                    "0x33840024177a7daca3468912363bed8b425015c5"
                                ]
                            },
                            {
                                "name": "to",
                                "type": "address",
                                "value": "0x058905e267c1c2d9a3aa2f589f702880ecb55f9f"
                            },
                            {
                                "name": "deadline",
                                "type": "uint256",
                                "value": "1,620,303,591"
                            }
                        ],
                        "constructorArguments": "",
                        "name": "swapExactTokensForTokens",
                        "returnParams": [
                            {
                                "name": "amounts",
                                "type": "uint256[]",
                                "value": [
                                    "15,000,000,000,000,000,000",
                                    "693,867,118,888,279,380",
                                    "8,191,726,881,477,020,271,188"
                                ]
                            }
                        ],
                        "signature": "swapExactTokensForTokens(uint256,uint256,address[],address,uint256)"
                    },
                    "errorInfo": "",
                    "fromAddress": "0x058905e267c1c2d9a3aa2f589f702880ecb55f9f",
                    "gasUsed": 189988,
                    "id": 0,
                    "methodDecoded": true,
                    "operation": "CALL",
                    "output": "0x00000000000000000000000000000000000000000000000000000000000000200000000000000000000000000000000000000000000000000000000000000003000000000000000000000000000000000000000000000000d02ab486cedc000000000000000000000000000000000000000000000000000009a11c77e6a8dd540000000000000000000000000000000000000000000001bc130c25130036c254",
                    "revert": false,
                    "revertMessage": "",
                    "selector": "0x38ed1739",
                    "status": true,
                    "value": "0"
                },
                "nodeType": 0
            },
            "1": {
                "invocation": {
                    "address": "0xcd6bcca48069f8588780dfa274960f15685aee0e",
                    "callData": "0x",
                    "decodedMethod": {
                        "callParams": [],
                        "constructorArguments": "",
                        "name": "getReserves",
                        "returnParams": [
                            {
                                "name": "_reserve0",
                                "type": "uint112",
                                "value": "124,504,331,274,097,707,415,058"
                            },
                            {
                                "name": "_reserve1",
                                "type": "uint112",
                                "value": "5,777,321,191,108,863,177,840"
                            },
                            {
                                "name": "_blockTimestampLast",
                                "type": "uint32",
                                "value": "1,620,302,002"
                            }
                        ],
                        "signature": "getReserves()"
                    },
                    "errorInfo": "",
                    "fromAddress": "0x7a250d5630b4cf539739df2c5dacb4c659f2488d",
                    "gasUsed": 2504,
                    "id": 1,
                    "methodDecoded": true,
                    "operation": "STATICCALL",
                    "output": "0x000000000000000000000000000000000000000000001a5d64b0c992c7837612000000000000000000000000000000000000000000000139307005c10471b470000000000000000000000000000000000000000000000000000000006093d8b2",
                    "revert": false,
                    "revertMessage": "",
                    "selector": "0x0902f1ac",
                    "status": true,
                    "value": "0"
                },
                "nodeType": 0
            },
            "10": {
                "invocation": {
                    "address": "0xc02aaa39b223fe8d0a0e5c4f27ead9083c756cc2",
                    "callData": "0x000000000000000000000000cd6bcca48069f8588780dfa274960f15685aee0e",
                    "decodedMethod": {
                        "callParams": [
                            {
                                "name": "",
                                "type": "address",
                                "value": "0xcd6bcca48069f8588780dfa274960f15685aee0e"
                            }
                        ],
                        "constructorArguments": "",
                        "name": "balanceOf",
                        "returnParams": [
                            {
                                "decimalAvailable": true,
                                "name": "",
                                "type": "uint256",
                                "value": "5,776,627,323,989,974,898,460"
                            }
                        ],
                        "signature": "balanceOf(address)"
                    },
                    "errorInfo": "",
                    "fromAddress": "0xcd6bcca48069f8588780dfa274960f15685aee0e",
                    "gasUsed": 534,
                    "id": 10,
                    "methodDecoded": true,
                    "operation": "STATICCALL",
                    "output": "0x00000000000000000000000000000000000000000000013926cee9491dc8d71c",
                    "revert": false,
                    "revertMessage": "",
                    "selector": "0x70a08231",
                    "status": true,
                    "value": "0"
                },
                "nodeType": 0
            },
            "11": {
                "event": {
                    "contract": "0xcd6bcca48069f8588780dfa274960f15685aee0e",
                    "decodedLog": {
                        "name": "Sync",
                        "params": [
                            {
                                "name": "reserve0",
                                "type": "uint112",
                                "value": "124,519,331,274,097,707,415,058"
                            },
                            {
                                "name": "reserve1",
                                "type": "uint112",
                                "value": "5,776,627,323,989,974,898,460"
                            }
                        ],
                        "signature": "Sync(uint112,uint112)"
                    },
                    "id": 11,
                    "logData": "0x000000000000000000000000000000000000000000001a5e34db7e19965f761200000000000000000000000000000000000000000000013926cee9491dc8d71c",
                    "logDecoded": true,
                    "operation": "EVENT",
                    "revert": false,
                    "status": true,
                    "topics": [
                        "0x1c411e9a96e071241c2f21f7726b17ae89e3cab4c78be50e062b03a9fffbbad1"
                    ]
                },
                "nodeType": 1
            },
            "12": {
                "event": {
                    "contract": "0xcd6bcca48069f8588780dfa274960f15685aee0e",
                    "decodedLog": {
                        "name": "Swap",
                        "params": [
                            {
                                "name": "sender",
                                "type": "address",
                                "value": "0x7a250d5630b4cf539739df2c5dacb4c659f2488d"
                            },
                            {
                                "name": "to",
                                "type": "address",
                                "value": "0x1b4f9f96884eb976d7ffcb461471749a78c2b5db"
                            },
                            {
                                "name": "amount0In",
                                "type": "uint256",
                                "value": "15,000,000,000,000,000,000"
                            },
                            {
                                "name": "amount1In",
                                "type": "uint256",
                                "value": "0"
                            },
                            {
                                "name": "amount0Out",
                                "type": "uint256",
                                "value": "0"
                            },
                            {
                                "name": "amount1Out",
                                "type": "uint256",
                                "value": "693,867,118,888,279,380"
                            }
                        ],
                        "signature": "Swap(address,uint256,uint256,uint256,uint256,address)"
                    },
                    "id": 12,
                    "logData": "0x000000000000000000000000000000000000000000000000d02ab486cedc00000000000000000000000000000000000000000000000000000000000000000000000000000000000000000000000000000000000000000000000000000000000000000000000000000000000000000000000000000000000009a11c77e6a8dd54",
                    "logDecoded": true,
                    "operation": "EVENT",
                    "revert": false,
                    "status": true,
                    "topics": [
                        "0xd78ad95fa46c994b6551d0da85fc275fe613ce37657fb8d5e3d130840159d822",
                        "0x0000000000000000000000007a250d5630b4cf539739df2c5dacb4c659f2488d",
                        "0x0000000000000000000000001b4f9f96884eb976d7ffcb461471749a78c2b5db"
                    ]
                },
                "nodeType": 1
            },
            "13": {
                "invocation": {
                    "address": "0x1b4f9f96884eb976d7ffcb461471749a78c2b5db",
                    "callData": "0x0000000000000000000000000000000000000000000001bc130c25130036c2540000000000000000000000000000000000000000000000000000000000000000000000000000000000000000058905e267c1c2d9a3aa2f589f702880ecb55f9f00000000000000000000000000000000000000000000000000000000000000800000000000000000000000000000000000000000000000000000000000000000",
                    "decodedMethod": {
                        "callParams": [
                            {
                                "name": "amount0Out",
                                "type": "uint256",
                                "value": "8,191,726,881,477,020,271,188"
                            },
                            {
                                "name": "amount1Out",
                                "type": "uint256",
                                "value": "0"
                            },
                            {
                                "name": "to",
                                "type": "address",
                                "value": "0x058905e267c1c2d9a3aa2f589f702880ecb55f9f"
                            },
                            {
                                "name": "data",
                                "type": "bytes",
                                "value": "0x"
                            }
                        ],
                        "constructorArguments": "",
                        "name": "swap",
                        "returnParams": [],
                        "signature": "swap(uint256,uint256,address,bytes)"
                    },
                    "errorInfo": "",
                    "fromAddress": "0x7a250d5630b4cf539739df2c5dacb4c659f2488d",
                    "gasUsed": 66152,
                    "id": 13,
                    "methodDecoded": true,
                    "operation": "CALL",
                    "output": "",
                    "revert": false,
                    "revertMessage": "",
                    "selector": "0x022c0d9f",
                    "status": true,
                    "value": "0"
                },
                "nodeType": 0
            },
            "14": {
                "invocation": {
                    "address": "0x33840024177a7daca3468912363bed8b425015c5",
                    "callData": "0x000000000000000000000000058905e267c1c2d9a3aa2f589f702880ecb55f9f0000000000000000000000000000000000000000000001bc130c25130036c254",
                    "decodedMethod": {
                        "callParams": [
                            {
                                "name": "to",
                                "type": "address",
                                "value": "0x058905e267c1c2d9a3aa2f589f702880ecb55f9f"
                            },
                            {
                                "decimalAvailable": true,
                                "name": "tokens",
                                "type": "uint256",
                                "value": "8,191,726,881,477,020,271,188"
                            }
                        ],
                        "constructorArguments": "",
                        "name": "transfer",
                        "returnParams": [
                            {
                                "name": "",
                                "type": "bool",
                                "value": true
                            }
                        ],
                        "signature": "transfer(address,uint256)"
                    },
                    "errorInfo": "",
                    "fromAddress": "0x1b4f9f96884eb976d7ffcb461471749a78c2b5db",
                    "gasUsed": 30865,
                    "id": 14,
                    "methodDecoded": true,
                    "operation": "CALL",
                    "output": "0x0000000000000000000000000000000000000000000000000000000000000001",
                    "revert": false,
                    "revertMessage": "",
                    "selector": "0xa9059cbb",
                    "status": true,
                    "value": "0"
                },
                "nodeType": 0
            },
            "15": {
                "event": {
                    "contract": "0x33840024177a7daca3468912363bed8b425015c5",
                    "decodedLog": {
                        "name": "Transfer",
                        "params": [
                            {
                                "name": "from",
                                "type": "address",
                                "value": "0x1b4f9f96884eb976d7ffcb461471749a78c2b5db"
                            },
                            {
                                "name": "to",
                                "type": "address",
                                "value": "0x058905e267c1c2d9a3aa2f589f702880ecb55f9f"
                            },
                            {
                                "decimalAvailable": true,
                                "name": "tokens",
                                "type": "uint256",
                                "value": "8,191,726,881,477,020,271,188"
                            }
                        ],
                        "signature": "Transfer(address,address,uint256)"
                    },
                    "id": 15,
                    "logData": "0x0000000000000000000000000000000000000000000001bc130c25130036c254",
                    "logDecoded": true,
                    "operation": "EVENT",
                    "revert": false,
                    "status": true,
                    "topics": [
                        "0xddf252ad1be2c89b69c2b068fc378daa952ba7f163c4a11628f55a4df523b3ef",
                        "0x0000000000000000000000001b4f9f96884eb976d7ffcb461471749a78c2b5db",
                        "0x000000000000000000000000058905e267c1c2d9a3aa2f589f702880ecb55f9f"
                    ]
                },
                "nodeType": 1
            },
            "16": {
                "invocation": {
                    "address": "0x33840024177a7daca3468912363bed8b425015c5",
                    "callData": "0x0000000000000000000000001b4f9f96884eb976d7ffcb461471749a78c2b5db",
                    "decodedMethod": {
                        "callParams": [
                            {
                                "name": "tokenOwner",
                                "type": "address",
                                "value": "0x1b4f9f96884eb976d7ffcb461471749a78c2b5db"
                            }
                        ],
                        "constructorArguments": "",
                        "name": "balanceOf",
                        "returnParams": [
                            {
                                "decimalAvailable": true,
                                "name": "",
                                "type": "uint256",
                                "value": "1,867,870,291,542,476,572,755,344"
                            }
                        ],
                        "signature": "balanceOf(address)"
                    },
                    "errorInfo": "",
                    "fromAddress": "0x1b4f9f96884eb976d7ffcb461471749a78c2b5db",
                    "gasUsed": 930,
                    "id": 16,
                    "methodDecoded": true,
                    "operation": "STATICCALL",
                    "output": "0x000000000000000000000000000000000000000000018b89738efcefefc68590",
                    "revert": false,
                    "revertMessage": "",
                    "selector": "0x70a08231",
                    "status": true,
                    "value": "0"
                },
                "nodeType": 0
            },
            "17": {
                "invocation": {
                    "address": "0xc02aaa39b223fe8d0a0e5c4f27ead9083c756cc2",
                    "callData": "0x0000000000000000000000001b4f9f96884eb976d7ffcb461471749a78c2b5db",
                    "decodedMethod": {
                        "callParams": [
                            {
                                "name": "",
                                "type": "address",
                                "value": "0x1b4f9f96884eb976d7ffcb461471749a78c2b5db"
                            }
                        ],
                        "constructorArguments": "",
                        "name": "balanceOf",
                        "returnParams": [
                            {
                                "decimalAvailable": true,
                                "name": "",
                                "type": "uint256",
                                "value": "158,434,186,713,583,341,163"
                            }
                        ],
                        "signature": "balanceOf(address)"
                    },
                    "errorInfo": "",
                    "fromAddress": "0x1b4f9f96884eb976d7ffcb461471749a78c2b5db",
                    "gasUsed": 534,
                    "id": 17,
                    "methodDecoded": true,
                    "operation": "STATICCALL",
                    "output": "0x00000000000000000000000000000000000000000000000896b74d654d0c4e6b",
                    "revert": false,
                    "revertMessage": "",
                    "selector": "0x70a08231",
                    "status": true,
                    "value": "0"
                },
                "nodeType": 0
            },
            "18": {
                "event": {
                    "contract": "0x1b4f9f96884eb976d7ffcb461471749a78c2b5db",
                    "decodedLog": {
                        "name": "Sync",
                        "params": [
                            {
                                "name": "reserve0",
                                "type": "uint112",
                                "value": "1,867,870,291,542,476,572,755,344"
                            },
                            {
                                "name": "reserve1",
                                "type": "uint112",
                                "value": "158,434,186,713,583,341,163"
                            }
                        ],
                        "signature": "Sync(uint112,uint112)"
                    },
                    "id": 18,
                    "logData": "0x000000000000000000000000000000000000000000018b89738efcefefc6859000000000000000000000000000000000000000000000000896b74d654d0c4e6b",
                    "logDecoded": true,
                    "operation": "EVENT",
                    "revert": false,
                    "status": true,
                    "topics": [
                        "0x1c411e9a96e071241c2f21f7726b17ae89e3cab4c78be50e062b03a9fffbbad1"
                    ]
                },
                "nodeType": 1
            },
            "19": {
                "event": {
                    "contract": "0x1b4f9f96884eb976d7ffcb461471749a78c2b5db",
                    "decodedLog": {
                        "name": "Swap",
                        "params": [
                            {
                                "name": "sender",
                                "type": "address",
                                "value": "0x7a250d5630b4cf539739df2c5dacb4c659f2488d"
                            },
                            {
                                "name": "to",
                                "type": "address",
                                "value": "0x058905e267c1c2d9a3aa2f589f702880ecb55f9f"
                            },
                            {
                                "name": "amount0In",
                                "type": "uint256",
                                "value": "0"
                            },
                            {
                                "name": "amount1In",
                                "type": "uint256",
                                "value": "693,867,118,888,279,380"
                            },
                            {
                                "name": "amount0Out",
                                "type": "uint256",
                                "value": "8,191,726,881,477,020,271,188"
                            },
                            {
                                "name": "amount1Out",
                                "type": "uint256",
                                "value": "0"
                            }
                        ],
                        "signature": "Swap(address,uint256,uint256,uint256,uint256,address)"
                    },
                    "id": 19,
                    "logData": "0x000000000000000000000000000000000000000000000000000000000000000000000000000000000000000000000000000000000000000009a11c77e6a8dd540000000000000000000000000000000000000000000001bc130c25130036c2540000000000000000000000000000000000000000000000000000000000000000",
                    "logDecoded": true,
                    "operation": "EVENT",
                    "revert": false,
                    "status": true,
                    "topics": [
                        "0xd78ad95fa46c994b6551d0da85fc275fe613ce37657fb8d5e3d130840159d822",
                        "0x0000000000000000000000007a250d5630b4cf539739df2c5dacb4c659f2488d",
                        "0x000000000000000000000000058905e267c1c2d9a3aa2f589f702880ecb55f9f"
                    ]
                },
                "nodeType": 1
            },
            "2": {
                "invocation": {
                    "address": "0x1b4f9f96884eb976d7ffcb461471749a78c2b5db",
                    "callData": "0x",
                    "decodedMethod": {
                        "callParams": [],
                        "constructorArguments": "",
                        "name": "getReserves",
                        "returnParams": [
                            {
                                "name": "_reserve0",
                                "type": "uint112",
                                "value": "1,876,062,018,423,953,593,026,532"
                            },
                            {
                                "name": "_reserve1",
                                "type": "uint112",
                                "value": "157,740,319,594,695,061,783"
                            },
                            {
                                "name": "_blockTimestampLast",
                                "type": "uint32",
                                "value": "1,620,301,870"
                            }
                        ],
                        "signature": "getReserves()"
                    },
                    "errorInfo": "",
                    "fromAddress": "0x7a250d5630b4cf539739df2c5dacb4c659f2488d",
                    "gasUsed": 2504,
                    "id": 2,
                    "methodDecoded": true,
                    "operation": "STATICCALL",
                    "output": "0x000000000000000000000000000000000000000000018d45869b2202effd47e40000000000000000000000000000000000000000000000088d1630ed66637117000000000000000000000000000000000000000000000000000000006093d82e",
                    "revert": false,
                    "revertMessage": "",
                    "selector": "0x0902f1ac",
                    "status": true,
                    "value": "0"
                },
                "nodeType": 0
            },
            "3": {
                "invocation": {
                    "address": "0x88acdd2a6425c3faae4bc9650fd7e27e0bebb7ab",
                    "callData": "0x000000000000000000000000058905e267c1c2d9a3aa2f589f702880ecb55f9f000000000000000000000000cd6bcca48069f8588780dfa274960f15685aee0e000000000000000000000000000000000000000000000000d02ab486cedc0000",
                    "decodedMethod": {
                        "callParams": [
                            {
                                "name": "sender",
                                "type": "address",
                                "value": "0x058905e267c1c2d9a3aa2f589f702880ecb55f9f"
                            },
                            {
                                "name": "recipient",
                                "type": "address",
                                "value": "0xcd6bcca48069f8588780dfa274960f15685aee0e"
                            },
                            {
                                "decimalAvailable": true,
                                "name": "amount",
                                "type": "uint256",
                                "value": "15,000,000,000,000,000,000"
                            }
                        ],
                        "constructorArguments": "",
                        "name": "transferFrom",
                        "returnParams": [
                            {
                                "name": "",
                                "type": "bool",
                                "value": true
                            }
                        ],
                        "signature": "transferFrom(address,address,uint256)"
                    },
                    "errorInfo": "",
                    "fromAddress": "0x7a250d5630b4cf539739df2c5dacb4c659f2488d",
                    "gasUsed": 32849,
                    "id": 3,
                    "methodDecoded": true,
                    "operation": "CALL",
                    "output": "0x0000000000000000000000000000000000000000000000000000000000000001",
                    "revert": false,
                    "revertMessage": "",
                    "selector": "0x23b872dd",
                    "status": true,
                    "value": "0"
                },
                "nodeType": 0
            },
            "4": {
                "event": {
                    "contract": "0x88acdd2a6425c3faae4bc9650fd7e27e0bebb7ab",
                    "decodedLog": {
                        "name": "Transfer",
                        "params": [
                            {
                                "name": "from",
                                "type": "address",
                                "value": "0x058905e267c1c2d9a3aa2f589f702880ecb55f9f"
                            },
                            {
                                "name": "to",
                                "type": "address",
                                "value": "0xcd6bcca48069f8588780dfa274960f15685aee0e"
                            },
                            {
                                "decimalAvailable": true,
                                "name": "value",
                                "type": "uint256",
                                "value": "15,000,000,000,000,000,000"
                            }
                        ],
                        "signature": "Transfer(address,address,uint256)"
                    },
                    "id": 4,
                    "logData": "0x000000000000000000000000000000000000000000000000d02ab486cedc0000",
                    "logDecoded": true,
                    "operation": "EVENT",
                    "revert": false,
                    "status": true,
                    "topics": [
                        "0xddf252ad1be2c89b69c2b068fc378daa952ba7f163c4a11628f55a4df523b3ef",
                        "0x000000000000000000000000058905e267c1c2d9a3aa2f589f702880ecb55f9f",
                        "0x000000000000000000000000cd6bcca48069f8588780dfa274960f15685aee0e"
                    ]
                },
                "nodeType": 1
            },
            "5": {
                "event": {
                    "contract": "0x88acdd2a6425c3faae4bc9650fd7e27e0bebb7ab",
                    "decodedLog": {
                        "name": "Approval",
                        "params": [
                            {
                                "name": "owner",
                                "type": "address",
                                "value": "0x058905e267c1c2d9a3aa2f589f702880ecb55f9f"
                            },
                            {
                                "name": "spender",
                                "type": "address",
                                "value": "0x7a250d5630b4cf539739df2c5dacb4c659f2488d"
                            },
                            {
                                "decimalAvailable": true,
                                "name": "value",
                                "type": "uint256",
                                "value": "115,792,089,237,316,195,423,570,985,008,687,907,853,269,984,665,640,564,039,414,584,007,913,129,639,935"
                            }
                        ],
                        "signature": "Approval(address,address,uint256)"
                    },
                    "id": 5,
                    "logData": "0xfffffffffffffffffffffffffffffffffffffffffffffffdab414fd2e233ffff",
                    "logDecoded": true,
                    "operation": "EVENT",
                    "revert": false,
                    "status": true,
                    "topics": [
                        "0x8c5be1e5ebec7d5bd14f71427d1e84f3dd0314c0f7b2291e5b200ac8c7c3b925",
                        "0x000000000000000000000000058905e267c1c2d9a3aa2f589f702880ecb55f9f",
                        "0x0000000000000000000000007a250d5630b4cf539739df2c5dacb4c659f2488d"
                    ]
                },
                "nodeType": 1
            },
            "6": {
                "invocation": {
                    "address": "0xcd6bcca48069f8588780dfa274960f15685aee0e",
                    "callData": "0x000000000000000000000000000000000000000000000000000000000000000000000000000000000000000000000000000000000000000009a11c77e6a8dd540000000000000000000000001b4f9f96884eb976d7ffcb461471749a78c2b5db00000000000000000000000000000000000000000000000000000000000000800000000000000000000000000000000000000000000000000000000000000000",
                    "decodedMethod": {
                        "callParams": [
                            {
                                "name": "amount0Out",
                                "type": "uint256",
                                "value": "0"
                            },
                            {
                                "name": "amount1Out",
                                "type": "uint256",
                                "value": "693,867,118,888,279,380"
                            },
                            {
                                "name": "to",
                                "type": "address",
                                "value": "0x1b4f9f96884eb976d7ffcb461471749a78c2b5db"
                            },
                            {
                                "name": "data",
                                "type": "bytes",
                                "value": "0x"
                            }
                        ],
                        "constructorArguments": "",
                        "name": "swap",
                        "returnParams": [],
                        "signature": "swap(uint256,uint256,address,bytes)"
                    },
                    "errorInfo": "",
                    "fromAddress": "0x7a250d5630b4cf539739df2c5dacb4c659f2488d",
                    "gasUsed": 47903,
                    "id": 6,
                    "methodDecoded": true,
                    "operation": "CALL",
                    "output": "",
                    "revert": false,
                    "revertMessage": "",
                    "selector": "0x022c0d9f",
                    "status": true,
                    "value": "0"
                },
                "nodeType": 0
            },
            "7": {
                "invocation": {
                    "address": "0xc02aaa39b223fe8d0a0e5c4f27ead9083c756cc2",
                    "callData": "0x0000000000000000000000001b4f9f96884eb976d7ffcb461471749a78c2b5db00000000000000000000000000000000000000000000000009a11c77e6a8dd54",
                    "decodedMethod": {
                        "callParams": [
                            {
                                "name": "dst",
                                "type": "address",
                                "value": "0x1b4f9f96884eb976d7ffcb461471749a78c2b5db"
                            },
                            {
                                "decimalAvailable": true,
                                "name": "wad",
                                "type": "uint256",
                                "value": "693,867,118,888,279,380"
                            }
                        ],
                        "constructorArguments": "",
                        "name": "transfer",
                        "returnParams": [
                            {
                                "name": "",
                                "type": "bool",
                                "value": true
                            }
                        ],
                        "signature": "transfer(address,uint256)"
                    },
                    "errorInfo": "",
                    "fromAddress": "0xcd6bcca48069f8588780dfa274960f15685aee0e",
                    "gasUsed": 12862,
                    "id": 7,
                    "methodDecoded": true,
                    "operation": "CALL",
                    "output": "0x0000000000000000000000000000000000000000000000000000000000000001",
                    "revert": false,
                    "revertMessage": "",
                    "selector": "0xa9059cbb",
                    "status": true,
                    "value": "0"
                },
                "nodeType": 0
            },
            "8": {
                "event": {
                    "contract": "0xc02aaa39b223fe8d0a0e5c4f27ead9083c756cc2",
                    "decodedLog": {
                        "name": "Transfer",
                        "params": [
                            {
                                "name": "src",
                                "type": "address",
                                "value": "0xcd6bcca48069f8588780dfa274960f15685aee0e"
                            },
                            {
                                "name": "dst",
                                "type": "address",
                                "value": "0x1b4f9f96884eb976d7ffcb461471749a78c2b5db"
                            },
                            {
                                "decimalAvailable": true,
                                "name": "wad",
                                "type": "uint256",
                                "value": "693,867,118,888,279,380"
                            }
                        ],
                        "signature": "Transfer(address,address,uint256)"
                    },
                    "id": 8,
                    "logData": "0x00000000000000000000000000000000000000000000000009a11c77e6a8dd54",
                    "logDecoded": true,
                    "operation": "EVENT",
                    "revert": false,
                    "status": true,
                    "topics": [
                        "0xddf252ad1be2c89b69c2b068fc378daa952ba7f163c4a11628f55a4df523b3ef",
                        "0x000000000000000000000000cd6bcca48069f8588780dfa274960f15685aee0e",
                        "0x0000000000000000000000001b4f9f96884eb976d7ffcb461471749a78c2b5db"
                    ]
                },
                "nodeType": 1
            },
            "9": {
                "invocation": {
                    "address": "0x88acdd2a6425c3faae4bc9650fd7e27e0bebb7ab",
                    "callData": "0x000000000000000000000000cd6bcca48069f8588780dfa274960f15685aee0e",
                    "decodedMethod": {
                        "callParams": [
                            {
                                "name": "account",
                                "type": "address",
                                "value": "0xcd6bcca48069f8588780dfa274960f15685aee0e"
                            }
                        ],
                        "constructorArguments": "",
                        "name": "balanceOf",
                        "returnParams": [
                            {
                                "decimalAvailable": true,
                                "name": "",
                                "type": "uint256",
                                "value": "124,519,331,274,097,707,415,058"
                            }
                        ],
                        "signature": "balanceOf(address)"
                    },
                    "errorInfo": "",
                    "fromAddress": "0xcd6bcca48069f8588780dfa274960f15685aee0e",
                    "gasUsed": 684,
                    "id": 9,
                    "methodDecoded": true,
                    "operation": "STATICCALL",
                    "output": "0x000000000000000000000000000000000000000000001a5e34db7e19965f7612",
                    "revert": false,
                    "revertMessage": "",
                    "selector": "0x70a08231",
                    "status": true,
                    "value": "0"
                },
                "nodeType": 0
            }
        },
        "gasFlame": [
            {
                "children": [
                    {
                        "children": [
                            {
                                "children": [],
                                "depth": 0,
                                "name": "Initial Gas",
                                "value": 23428
                            },
                            {
                                "children": [
                                    {
                                        "children": [],
                                        "depth": 1,
                                        "name": "getReserves",
                                        "value": 2504
                                    },
                                    {
                                        "children": [],
                                        "depth": 1,
                                        "name": "getReserves",
                                        "value": 2504
                                    },
                                    {
                                        "children": [],
                                        "depth": 1,
                                        "name": "transferFrom",
                                        "value": 32849
                                    },
                                    {
                                        "children": [
                                            {
                                                "children": [],
                                                "depth": 2,
                                                "name": "transfer",
                                                "value": 12862
                                            },
                                            {
                                                "children": [],
                                                "depth": 2,
                                                "name": "balanceOf",
                                                "value": 684
                                            },
                                            {
                                                "children": [],
                                                "depth": 2,
                                                "name": "balanceOf",
                                                "value": 534
                                            }
                                        ],
                                        "depth": 1,
                                        "name": "swap",
                                        "value": 47903
                                    },
                                    {
                                        "children": [
                                            {
                                                "children": [],
                                                "depth": 2,
                                                "name": "transfer",
                                                "value": 30865
                                            },
                                            {
                                                "children": [],
                                                "depth": 2,
                                                "name": "balanceOf",
                                                "value": 930
                                            },
                                            {
                                                "children": [],
                                                "depth": 2,
                                                "name": "balanceOf",
                                                "value": 534
                                            }
                                        ],
                                        "depth": 1,
                                        "name": "swap",
                                        "value": 66152
                                    }
                                ],
                                "depth": 0,
                                "name": "Executed Gas",
                                "value": 172160
                            }
                        ],
                        "depth": -1,
                        "name": "Actual Gas Used",
                        "value": 189988
                    },
                    {
                        "children": [],
                        "depth": -1,
                        "name": "Refunded Gas",
                        "value": 5600
                    }
                ],
                "depth": -2,
                "name": "Total Gas",
                "value": 195588
            }
        ],
        "isConfirmed": true,
        "mainTrace": [
            {
                "children": [
                    {
                        "children": [
                            {
                                "children": [],
                                "depth": 1,
                                "id": 1,
                                "order": 1
                            },
                            {
                                "children": [],
                                "depth": 1,
                                "id": 2,
                                "order": 2
                            },
                            {
                                "children": [
                                    {
                                        "children": [],
                                        "depth": 2,
                                        "id": 4,
                                        "order": 4
                                    },
                                    {
                                        "children": [],
                                        "depth": 2,
                                        "id": 5,
                                        "order": 5
                                    }
                                ],
                                "depth": 1,
                                "id": 3,
                                "order": 3
                            },
                            {
                                "children": [
                                    {
                                        "children": [
                                            {
                                                "children": [],
                                                "depth": 3,
                                                "id": 8,
                                                "order": 8
                                            }
                                        ],
                                        "depth": 2,
                                        "id": 7,
                                        "order": 7
                                    },
                                    {
                                        "children": [],
                                        "depth": 2,
                                        "id": 9,
                                        "order": 9
                                    },
                                    {
                                        "children": [],
                                        "depth": 2,
                                        "id": 10,
                                        "order": 10
                                    },
                                    {
                                        "children": [],
                                        "depth": 2,
                                        "id": 11,
                                        "order": 11
                                    },
                                    {
                                        "children": [],
                                        "depth": 2,
                                        "id": 12,
                                        "order": 12
                                    }
                                ],
                                "depth": 1,
                                "id": 6,
                                "order": 6
                            },
                            {
                                "children": [
                                    {
                                        "children": [
                                            {
                                                "children": [],
                                                "depth": 3,
                                                "id": 15,
                                                "order": 15
                                            }
                                        ],
                                        "depth": 2,
                                        "id": 14,
                                        "order": 14
                                    },
                                    {
                                        "children": [],
                                        "depth": 2,
                                        "id": 16,
                                        "order": 16
                                    },
                                    {
                                        "children": [],
                                        "depth": 2,
                                        "id": 17,
                                        "order": 17
                                    },
                                    {
                                        "children": [],
                                        "depth": 2,
                                        "id": 18,
                                        "order": 18
                                    },
                                    {
                                        "children": [],
                                        "depth": 2,
                                        "id": 19,
                                        "order": 19
                                    }
                                ],
                                "depth": 1,
                                "id": 13,
                                "order": 13
                            }
                        ],
                        "depth": 0,
                        "id": 0,
                        "order": 0
                    }
                ],
                "depth": -1,
                "id": -1,
                "order": -1
            }
        ],
        "mainTraceNodeCount": 20,
        "parentIdMap": {
            "0": -1,
            "1": 0,
            "10": 6,
            "11": 6,
            "12": 6,
            "13": 0,
            "14": 13,
            "15": 14,
            "16": 13,
            "17": 13,
            "18": 13,
            "19": 13,
            "2": 0,
            "3": 0,
            "4": 3,
            "5": 3,
            "6": 0,
            "7": 6,
            "8": 7,
            "9": 6
        },
        "tidyTrace": [
            {
                "children": [
                    {
                        "children": [
                            {
                                "children": [
                                    {
                                        "children": [],
                                        "depth": 2,
                                        "id": 4,
                                        "order": 4
                                    },
                                    {
                                        "children": [],
                                        "depth": 2,
                                        "id": 5,
                                        "order": 5
                                    }
                                ],
                                "depth": 1,
                                "id": 3,
                                "order": 3
                            },
                            {
                                "children": [
                                    {
                                        "children": [
                                            {
                                                "children": [],
                                                "depth": 3,
                                                "id": 8,
                                                "order": 8
                                            }
                                        ],
                                        "depth": 2,
                                        "id": 7,
                                        "order": 7
                                    },
                                    {
                                        "children": [],
                                        "depth": 2,
                                        "id": 11,
                                        "order": 11
                                    },
                                    {
                                        "children": [],
                                        "depth": 2,
                                        "id": 12,
                                        "order": 12
                                    }
                                ],
                                "depth": 1,
                                "id": 6,
                                "order": 6
                            },
                            {
                                "children": [
                                    {
                                        "children": [
                                            {
                                                "children": [],
                                                "depth": 3,
                                                "id": 15,
                                                "order": 15
                                            }
                                        ],
                                        "depth": 2,
                                        "id": 14,
                                        "order": 14
                                    },
                                    {
                                        "children": [],
                                        "depth": 2,
                                        "id": 18,
                                        "order": 18
                                    },
                                    {
                                        "children": [],
                                        "depth": 2,
                                        "id": 19,
                                        "order": 19
                                    }
                                ],
                                "depth": 1,
                                "id": 13,
                                "order": 13
                            }
                        ],
                        "depth": 0,
                        "id": 0,
                        "order": 0
                    }
                ],
                "depth": -1,
                "id": -1,
                "order": -1
            }
        ],
        "tidyTraceNodeCount": 14
    },
    "state_change": {
        "stateChanges": [
            {
                "address": "0x1b4f9f96884eb976d7ffcb461471749a78c2b5db",
                "erc": "ERC-20",
                "slots": [
                    {
                        "current": "0x0000000000000000000000000000000003142f2c96ddac2ddb01a7d1e29d6b35",
                        "key": "0x0000000000000000000000000000000000000000000000000000000000000009",
                        "prev": "0x000000000000000000000000000000000314209a1d49488443468025caa27fc0"
                    },
                    {
                        "current": "0x00000000000000000000000000053f265c7c3dc1160e3cc4a9dc9e132d26f561",
                        "key": "0x000000000000000000000000000000000000000000000000000000000000000a",
                        "prev": "0x00000000000000000000000000053eab802130de7be9056b61fe45c9db7abaf8"
                    },
                    {
                        "current": "0x6093dad300000000000896b74d654d0c4e6b000000018b89738efcefefc68590",
                        "key": "0x0000000000000000000000000000000000000000000000000000000000000008",
                        "prev": "0x6093d82e0000000000088d1630ed66637117000000018d45869b2202effd47e4"
                    }
                ],
                "storageVariables": [
                    {
                        "name": "price0CumulativeLast",
                        "type": "uint256",
                        "value": {
                            "current": "4092486730506703599679020085578394421",
                            "prev": "4092191171833447541299149040836050880",
                            "typeTag": 1
                        }
                    },
                    {
                        "name": "price1CumulativeLast",
                        "type": "uint256",
                        "value": {
                            "current": "117004853670369954425676590602869838023423329",
                            "prev": "116963046318686170939317517173215279552576248",
                            "typeTag": 1
                        }
                    },
                    {
                        "name": "reserve0",
                        "type": "uint112",
                        "value": {
                            "current": "1867870291542476572755344",
                            "prev": "1876062018423953593026532",
                            "typeTag": 1
                        }
                    },
                    {
                        "name": "reserve1",
                        "type": "uint112",
                        "value": {
                            "current": "158434186713583341163",
                            "prev": "157740319594695061783",
                            "typeTag": 1
                        }
                    },
                    {
                        "name": "blockTimestampLast",
                        "type": "uint32",
                        "value": {
                            "current": "1620302547",
                            "prev": "1620301870",
                            "typeTag": 1
                        }
                    }
                ]
            },
            {
                "address": "0x33840024177a7daca3468912363bed8b425015c5",
                "erc": "ERC-20",
                "slots": [
                    {
                        "current": "0x000000000000000000000000000000000000000000018b89738efcefefc68590",
                        "key": "0x7ae87fc6dd2990d9a315a3da07dbbee0000b97d1c0d621ff8f19952faf900b82",
                        "prev": "0x000000000000000000000000000000000000000000018d45869b2202effd47e4"
                    },
                    {
                        "current": "0x0000000000000000000000000000000000000000000001bc130c25130036c254",
                        "key": "0xa84a3522ea86db3b7bac18460706c52bff8f590c5741c244c386213025293007",
                        "prev": "0x0000000000000000000000000000000000000000000000000000000000000000"
                    }
                ],
                "storageVariables": [
                    {
                        "name": "balances",
                        "type": "mapping(address => uint256)",
                        "value": {
                            "pairs": [
                                {
                                    "key": "0x058905e267c1c2d9a3aa2f589f702880ecb55f9f",
                                    "value": {
                                        "current": "8191726881477020271188",
                                        "prev": "0",
                                        "typeTag": 1
                                    }
                                },
                                {
                                    "key": "0x1b4f9f96884eb976d7ffcb461471749a78c2b5db",
                                    "value": {
                                        "current": "1867870291542476572755344",
                                        "prev": "1876062018423953593026532",
                                        "typeTag": 1
                                    }
                                }
                            ],
                            "typeTag": 4
                        }
                    }
                ]
            },
            {
                "address": "0x88acdd2a6425c3faae4bc9650fd7e27e0bebb7ab",
                "erc": "ERC-20",
                "slots": [
                    {
                        "current": "0x000000000000000000000000000000000000000000000000ba046e3eca15fb7e",
                        "key": "0x7cb0b8b0732d9c2fa3cd669b29856679140e07a457fecddff8981ffa72593f66",
                        "prev": "0x0000000000000000000000000000000000000000000000018a2f22c598f1fb7e"
                    },
                    {
                        "current": "0x000000000000000000000000000000000000000000001a5e34db7e19965f7612",
                        "key": "0x6b66e22d44245d281fc0bc51cc254ce325192b97d68395488be977277b02bc7e",
                        "prev": "0x000000000000000000000000000000000000000000001a5d64b0c992c7837612"
                    },
                    {
                        "current": "0xfffffffffffffffffffffffffffffffffffffffffffffffdab414fd2e233ffff",
                        "key": "0x456446025456be4696aeca972e3198b7b0f8d4ff97e34889dd72fa908745966e",
                        "prev": "0xfffffffffffffffffffffffffffffffffffffffffffffffe7b6c0459b10fffff"
                    }
                ],
                "storageVariables": [
                    {
                        "name": "_balances",
                        "type": "mapping(address => uint256)",
                        "value": {
                            "pairs": [
                                {
                                    "key": "0x058905e267c1c2d9a3aa2f589f702880ecb55f9f",
                                    "value": {
                                        "current": "13403959606918904702",
                                        "prev": "28403959606918904702",
                                        "typeTag": 1
                                    }
                                },
                                {
                                    "key": "0xcd6bcca48069f8588780dfa274960f15685aee0e",
                                    "value": {
                                        "current": "124519331274097707415058",
                                        "prev": "124504331274097707415058",
                                        "typeTag": 1
                                    }
                                }
                            ],
                            "typeTag": 4
                        }
                    },
                    {
                        "name": "_allowances",
                        "type": "mapping(address => mapping(address => uint256))",
                        "value": {
                            "pairs": [
                                {
                                    "key": "0x058905e267c1c2d9a3aa2f589f702880ecb55f9f",
                                    "value": {
                                        "pairs": [
                                            {
                                                "key": "0x7a250d5630b4cf539739df2c5dacb4c659f2488d",
                                                "value": {
                                                    "current": "115792089237316195423570985008687907853269984665640564039414584007913129639935",
                                                    "prev": "115792089237316195423570985008687907853269984665640564039429584007913129639935",
                                                    "typeTag": 1
                                                }
                                            }
                                        ],
                                        "typeTag": 4
                                    }
                                }
                            ],
                            "typeTag": 4
                        }
                    }
                ]
            },
            {
                "address": "0xc02aaa39b223fe8d0a0e5c4f27ead9083c756cc2",
                "erc": "ERC-20",
                "slots": [
                    {
                        "current": "0x00000000000000000000000000000000000000000000013926cee9491dc8d71c",
                        "key": "0xcc98a4f9a4b4b67d47fdabc84605b9cac012a29b122362448762fd2c60a4409a",
                        "prev": "0x000000000000000000000000000000000000000000000139307005c10471b470"
                    },
                    {
                        "current": "0x00000000000000000000000000000000000000000000000896b74d654d0c4e6b",
                        "key": "0xb79a31e4340314a8e18e345198c6c919b68f8c9d05f40583909fb8b577e46493",
                        "prev": "0x0000000000000000000000000000000000000000000000088d1630ed66637117"
                    }
                ],
                "storageVariables": [
                    {
                        "name": "balanceOf",
                        "type": "mapping(address => uint256)",
                        "value": {
                            "pairs": [
                                {
                                    "key": "0x1b4f9f96884eb976d7ffcb461471749a78c2b5db",
                                    "value": {
                                        "current": "158434186713583341163",
                                        "prev": "157740319594695061783",
                                        "typeTag": 1
                                    }
                                },
                                {
                                    "key": "0xcd6bcca48069f8588780dfa274960f15685aee0e",
                                    "value": {
                                        "current": "5776627323989974898460",
                                        "prev": "5777321191108863177840",
                                        "typeTag": 1
                                    }
                                }
                            ],
                            "typeTag": 4
                        }
                    }
                ]
            },
            {
                "address": "0xcd6bcca48069f8588780dfa274960f15685aee0e",
                "erc": "ERC-20",
                "slots": [
                    {
                        "current": "0x6093dad300000000013926cee9491dc8d71c000000001a5e34db7e19965f7612",
                        "key": "0x0000000000000000000000000000000000000000000000000000000000000008",
                        "prev": "0x6093d8b2000000000139307005c10471b470000000001a5d64b0c992c7837612"
                    },
                    {
                        "current": "0x000000000000000000000000000000034d690e9320d5a3aeb46ad2ef17a6d5dd",
                        "key": "0x0000000000000000000000000000000000000000000000000000000000000009",
                        "prev": "0x000000000000000000000000000000034d4fc47ce5b5be76e90faa8dd869c34a"
                    },
                    {
                        "current": "0x000000000000000000000000000092056de0c257dc56ea6bb5064061ea807089",
                        "key": "0x000000000000000000000000000000000000000000000000000000000000000a",
                        "prev": "0x000000000000000000000000000092053fffb874779727d35db8e5a553a8b103"
                    }
                ],
                "storageVariables": [
                    {
                        "name": "price0CumulativeLast",
                        "type": "uint256",
                        "value": {
                            "current": "1123743143218836204707287799553669387741",
                            "prev": "1123611833137744413748131474018201617226",
                            "typeTag": 1
                        }
                    },
                    {
                        "name": "price1CumulativeLast",
                        "type": "uint256",
                        "value": {
                            "current": "12720241210739386075379908351388853282566281",
                            "prev": "12720180227012224924181045247799226446426371",
                            "typeTag": 1
                        }
                    },
                    {
                        "name": "reserve0",
                        "type": "uint112",
                        "value": {
                            "current": "124519331274097707415058",
                            "prev": "124504331274097707415058",
                            "typeTag": 1
                        }
                    },
                    {
                        "name": "reserve1",
                        "type": "uint112",
                        "value": {
                            "current": "5776627323989974898460",
                            "prev": "5777321191108863177840",
                            "typeTag": 1
                        }
                    },
                    {
                        "name": "blockTimestampLast",
                        "type": "uint32",
                        "value": {
                            "current": "1620302547",
                            "prev": "1620302002",
                            "typeTag": 1
                        }
                    }
                ]
            }
        ]
    }
}