{
    "balance_change": {
        "balanceChanges": [
            {
                "account": "0x2ea8d01120580257c03e013f6d0414a712606f15",
                "assets": [
                    {
                        "address": "0xb131f4a55907b10d1f0a50d8ab8fa09ec342cd74",
                        "amount": "40,430.08824",
                        "iconUrl": "",
                        "isERC1155": false,
                        "isERC721": false,
                        "sign": false,
                        "value": "614.5373412479999988"
                    },
                    {
                        "address": "0xc059a531b4234d05e9ef4ac51028f7e6156e2cce",
                        "amount": "40,430.08824",
                        "iconUrl": "",
                        "isERC1155": false,
                        "isERC721": false,
                        "sign": true,
                        "value": "614.5373412479999988"
                    }
                ]
            },
            {
                "account": "0xc059a531b4234d05e9ef4ac51028f7e6156e2cce",
                "assets": [
                    {
                        "address": "0xb131f4a55907b10d1f0a50d8ab8fa09ec342cd74",
                        "amount": "40,430.08824",
                        "iconUrl": "",
                        "isERC1155": false,
                        "isERC721": false,
                        "sign": true,
                        "value": "614.5373412479999988"
                    }
                ]
            },
            {
                "account": "0x0000000000000000000000000000000000000000",
                "assets": [
                    {
                        "address": "0xc059a531b4234d05e9ef4ac51028f7e6156e2cce",
                        "amount": "40,430.08824",
                        "iconUrl": "",
                        "isERC1155": false,
                        "isERC721": false,
                        "sign": false,
                        "value": "614.5373412479999988"
                    }
                ]
            }
        ]
    },
    "profile": {
        "basic_info": {
            "baseFee": "5.09956254",
            "blockNumber": 20413320,
            "callData": "0xd6b8f50000000000000000000000000000000000000000000000088fb82f867df1f3000000000000000000000000000000000000000000000000000000000000000000600000000000000000000000000000000000000000000000000000000000000080000000000000000000000000000000000000000000000000000000000000000000000000000000000000000000000000000000000000000000000000000000a000000000000000000000000000000000000000000000088fb82f867df1f300000000000000000000000000000000000000000000000000000000000066a86743000000000000000000000000000000000000000000000000000000000000001cbe9e3c0bf9de0bf91d881703f2b88baac8eab7759ce2a1229059c5911898b9785632053e5d23236e24d26a52b1e5b826748d32131b02d11e3da6116fffec0575",
            "debugEnable": true,
            "errorInfo": "",
            "eventCount": 5,
            "feeRecipient": "0x95222290dd7278aa3ddd389cc1e1d165cc4bafe5",
            "formatValue": "0",
            "gasLimit": 171453,
            "gasPrice": "6.09956254",
            "gasUsed": 88174,
            "intTxnCount": 6,
            "internalRevert": false,
            "internalRevertMessage": "",
            "isContractCreation": false,
            "isFlashloan": false,
            "maxFee": "6.785292725",
            "nonce": 9,
            "overwritedBlockNumber": -1,
            "priorityFee": "1",
            "receiver": "0xc059a531b4234d05e9ef4ac51028f7e6156e2cce",
            "revertMessage": "",
            "sender": "0x2ea8d01120580257c03e013f6d0414a712606f15",
            "simulationEnable": true,
            "sourceTxnHash": "0x3acc8c409a135e972f2966df787014cb23ca0e982422758575b76384b611848f",
            "status": true,
            "timestamp": "2024-07-29T16:08:59Z",
            "transactionFee": "0.00053782282740196",
            "txnHash": "0x3acc8c409a135e972f2966df787014cb23ca0e982422758575b76384b611848f",
            "txnIndex": 93,
            "type": 2,
            "value": "0"
        },
        "fund_flow": [
            {
                "amount": "40,430.08824",
                "from": "0x2ea8d01120580257c03e013f6d0414a712606f15",
                "id": 1,
                "isERC1155": false,
                "isERC721": false,
                "isReverted": false,
                "order": 1,
                "to": "0xc059a531b4234d05e9ef4ac51028f7e6156e2cce",
                "token": "0xb131f4a55907b10d1f0a50d8ab8fa09ec342cd74"
            },
            {
                "amount": "40,430.08824",
                "from": "0x0000000000000000000000000000000000000000",
                "id": 2,
                "isERC1155": false,
                "isERC721": false,
                "isReverted": false,
                "order": 2,
                "to": "0x2ea8d01120580257c03e013f6d0414a712606f15",
                "token": "0xc059a531b4234d05e9ef4ac51028f7e6156e2cce"
            }
        ],
        "token_infos": [
            {
                "address": "0xc059a531b4234d05e9ef4ac51028f7e6156e2cce",
                "decimals": 18
            },
            {
                "address": "0xeeeeeeeeeeeeeeeeeeeeeeeeeeeeeeeeeeeeeeee",
                "decimals": 18
            },
            {
                "address": "0xb131f4a55907b10d1f0a50d8ab8fa09ec342cd74",
                "decimals": 18
            },
            {
                "address": "0xc02aaa39b223fe8d0a0e5c4f27ead9083c756cc2",
                "decimals": 18
            }
        ]
    },
    "address_label": {
        "labels": [
            {
                "address": "0x0000000000000000000000000000000000000002",
                "label": "Precompiled"
            },
            {
                "address": "0xeeeeeeeeeeeeeeeeeeeeeeeeeeeeeeeeeeeeeeee",
                "label": "Ether"
            },
            {
                "address": "0xc059a531b4234d05e9ef4ac51028f7e6156e2cce",
                "label": "Memecoin: Staked Memecoin Token"
            },
            {
                "address": "0xb131f4a55907b10d1f0a50d8ab8fa09ec342cd74",
                "label": "Memecoin: MEME Token"
            },
            {
                "address": "0x319e9a7a3d4cf01625379e3c75ef7ae2e70960b2",
                "label": "MemecoinStaking"
            },
            {
                "address": "0x32c1f663919102dc032dc3c22fe434af686f3b15",
                "label": "Memecoin: Delegate"
            },
            {
                "address": "0x0000000000000000000000000000000000000001",
                "label": "Precompiled"
            },
            {
                "address": "0x0000000000000000000000000000000000000003",
                "label": "Precompiled"
            },
            {
                "address": "0x0000000000000000000000000000000000000004",
                "label": "Precompiled"
            }
        ]
    },
    "trace": {
        "accountLabels": null,
        "dataMap": {
            "-1": {
                "invocation": {
                    "address": "0x2ea8d01120580257c03e013f6d0414a712606f15",
                    "callData": "",
                    "decodedMethod": null,
                    "errorInfo": "",
                    "fromAddress": "",
                    "gasUsed": 0,
                    "id": -1,
                    "methodDecoded": false,
                    "operation": "",
                    "output": "",
                    "revert": false,
                    "revertMessage": "",
                    "selector": "",
                    "status": false,
                    "value": ""
                },
                "nodeType": 0
            },
            "0": {
                "invocation": {
                    "address": "0xc059a531b4234d05e9ef4ac51028f7e6156e2cce",
                    "callData": "0x00000000000000000000000000000000000000000000088fb82f867df1f3000000000000000000000000000000000000000000000000000000000000000000600000000000000000000000000000000000000000000000000000000000000080000000000000000000000000000000000000000000000000000000000000000000000000000000000000000000000000000000000000000000000000000000a000000000000000000000000000000000000000000000088fb82f867df1f300000000000000000000000000000000000000000000000000000000000066a86743000000000000000000000000000000000000000000000000000000000000001cbe9e3c0bf9de0bf91d881703f2b88baac8eab7759ce2a1229059c5911898b9785632053e5d23236e24d26a52b1e5b826748d32131b02d11e3da6116fffec0575",
                    "decodedMethod": {
                        "callParams": [
                            {
                                "name": "amount",
                                "type": "uint256",
                                "value": "40,430,088,240,000,000,000,000"
                            },
                            {
                                "name": "rewards",
                                "type": "(uint256,uint256,bytes32[])[]",
                                "value": []
                            },
                            {
                                "name": "permit",
                                "type": "bytes",
                                "value": "0x00000000000000000000000000000000000000000000088fb82f867df1f300000000000000000000000000000000000000000000000000000000000066a86743000000000000000000000000000000000000000000000000000000000000001cbe9e3c0bf9de0bf91d881703f2b88baac8eab7759ce2a1229059c5911898b9785632053e5d23236e24d26a52b1e5b826748d32131b02d11e3da6116fffec0575"
                            }
                        ],
                        "constructorArguments": "",
                        "name": "stake",
                        "returnParams": [],
                        "signature": "stake(uint256,(uint256,uint256,bytes32[])[],bytes)"
                    },
                    "errorInfo": "",
                    "fromAddress": "0x2ea8d01120580257c03e013f6d0414a712606f15",
                    "gasUsed": 88174,
                    "id": 0,
                    "methodDecoded": true,
                    "operation": "CALL",
                    "output": "",
                    "revert": false,
                    "revertMessage": "",
                    "selector": "0xd6b8f500",
                    "status": true,
                    "value": "0"
                },
                "nodeType": 0
            },
            "1": {
                "invocation": {
                    "address": "0x319e9a7a3d4cf01625379e3c75ef7ae2e70960b2",
                    "callData": "0x00000000000000000000000000000000000000000000088fb82f867df1f3000000000000000000000000000000000000000000000000000000000000000000600000000000000000000000000000000000000000000000000000000000000080000000000000000000000000000000000000000000000000000000000000000000000000000000000000000000000000000000000000000000000000000000a000000000000000000000000000000000000000000000088fb82f867df1f300000000000000000000000000000000000000000000000000000000000066a86743000000000000000000000000000000000000000000000000000000000000001cbe9e3c0bf9de0bf91d881703f2b88baac8eab7759ce2a1229059c5911898b9785632053e5d23236e24d26a52b1e5b826748d32131b02d11e3da6116fffec0575",
                    "decodedMethod": {
                        "callParams": [
                            {
                                "name": "amount",
                                "type": "uint256",
                                "value": "40,430,088,240,000,000,000,000"
                            },
                            {
                                "name": "rewards",
                                "type": "(uint256,uint256,bytes32[])[]",
                                "value": []
                            },
                            {
                                "name": "permit",
                                "type": "bytes",
                                "value": "0x00000000000000000000000000000000000000000000088fb82f867df1f300000000000000000000000000000000000000000000000000000000000066a86743000000000000000000000000000000000000000000000000000000000000001cbe9e3c0bf9de0bf91d881703f2b88baac8eab7759ce2a1229059c5911898b9785632053e5d23236e24d26a52b1e5b826748d32131b02d11e3da6116fffec0575"
                            }
                        ],
                        "constructorArguments": "",
                        "name": "stake",
                        "returnParams": [],
                        "signature": "stake(uint256,(uint256,uint256,bytes32[])[],bytes)"
                    },
                    "errorInfo": "",
                    "fromAddress": "0xc059a531b4234d05e9ef4ac51028f7e6156e2cce",
                    "gasUsed": 81883,
                    "id": 1,
                    "methodDecoded": true,
                    "operation": "DELEGATECALL",
                    "output": "",
                    "revert": false,
                    "revertMessage": "",
                    "selector": "0xd6b8f500",
                    "status": true,
                    "value": "0"
                },
                "nodeType": 0
            },
            "10": {
                "event": {
                    "contract": "0xc059a531b4234d05e9ef4ac51028f7e6156e2cce",
                    "decodedLog": {
                        "name": "Transfer",
                        "params": [
                            {
                                "name": "from",
                                "type": "address",
                                "value": "0x0000000000000000000000000000000000000000"
                            },
                            {
                                "name": "to",
                                "type": "address",
                                "value": "0x2ea8d01120580257c03e013f6d0414a712606f15"
                            },
                            {
                                "decimalAvailable": true,
                                "name": "value",
                                "type": "uint256",
                                "value": "40,430,088,240,000,000,000,000"
                            }
                        ],
                        "signature": "Transfer(address,address,uint256)"
                    },
                    "id": 10,
                    "logData": "0x00000000000000000000000000000000000000000000088fb82f867df1f30000",
                    "logDecoded": true,
                    "operation": "EVENT",
                    "revert": false,
                    "status": true,
                    "topics": [
                        "0xddf252ad1be2c89b69c2b068fc378daa952ba7f163c4a11628f55a4df523b3ef",
                        "0x0000000000000000000000000000000000000000000000000000000000000000",
                        "0x0000000000000000000000002ea8d01120580257c03e013f6d0414a712606f15"
                    ]
                },
                "nodeType": 1
            },
            "11": {
                "event": {
                    "contract": "0xc059a531b4234d05e9ef4ac51028f7e6156e2cce",
                    "decodedLog": {
                        "name": "Staked",
                        "params": [
                            {
                                "name": "user",
                                "type": "address",
                                "value": "0x2ea8d01120580257c03e013f6d0414a712606f15"
                            },
                            {
                                "name": "amount",
                                "type": "uint256",
                                "value": "40,430,088,240,000,000,000,000"
                            },
                            {
                                "name": "timestamp",
                                "type": "uint256",
                                "value": "1,722,269,339"
                            }
                        ],
                        "signature": "Staked(address,uint256,uint256)"
                    },
                    "id": 11,
                    "logData": "0x00000000000000000000000000000000000000000000088fb82f867df1f300000000000000000000000000000000000000000000000000000000000066a7be9b",
                    "logDecoded": true,
                    "operation": "EVENT",
                    "revert": false,
                    "status": true,
                    "topics": [
                        "0x1449c6dd7851abc30abf37f57715f492010519147cc2652fbc38202c18a6ee90",
                        "0x0000000000000000000000002ea8d01120580257c03e013f6d0414a712606f15"
                    ]
                },
                "nodeType": 1
            },
            "2": {
                "invocation": {
                    "address": "0x32c1f663919102dc032dc3c22fe434af686f3b15",
                    "callData": "0x",
                    "decodedMethod": {
                        "callParams": [],
                        "constructorArguments": "",
                        "name": "memecoin",
                        "returnParams": [
                            {
                                "name": "",
                                "type": "address",
                                "value": "0xb131f4a55907b10d1f0a50d8ab8fa09ec342cd74"
                            }
                        ],
                        "signature": "memecoin()"
                    },
                    "errorInfo": "",
                    "fromAddress": "0xc059a531b4234d05e9ef4ac51028f7e6156e2cce",
                    "gasUsed": 205,
                    "id": 2,
                    "methodDecoded": true,
                    "operation": "STATICCALL",
                    "output": "0x000000000000000000000000b131f4a55907b10d1f0a50d8ab8fa09ec342cd74",
                    "revert": false,
                    "revertMessage": "",
                    "selector": "0x1a37ea11",
                    "status": true,
                    "value": "0"
                },
                "nodeType": 0
            },
            "3": {
                "invocation": {
                    "address": "0xb131f4a55907b10d1f0a50d8ab8fa09ec342cd74",
                    "callData": "0x0000000000000000000000002ea8d01120580257c03e013f6d0414a712606f1500000000000000000000000032c1f663919102dc032dc3c22fe434af686f3b1500000000000000000000000000000000000000000000088fb82f867df1f300000000000000000000000000000000000000000000000000000000000066a86743000000000000000000000000000000000000000000000000000000000000001cbe9e3c0bf9de0bf91d881703f2b88baac8eab7759ce2a1229059c5911898b9785632053e5d23236e24d26a52b1e5b826748d32131b02d11e3da6116fffec0575",
                    "decodedMethod": {
                        "callParams": [
                            {
                                "name": "owner",
                                "type": "address",
                                "value": "0x2ea8d01120580257c03e013f6d0414a712606f15"
                            },
                            {
                                "name": "spender",
                                "type": "address",
                                "value": "0x32c1f663919102dc032dc3c22fe434af686f3b15"
                            },
                            {
                                "name": "value",
                                "type": "uint256",
                                "value": "40,430,088,240,000,000,000,000"
                            },
                            {
                                "name": "deadline",
                                "type": "uint256",
                                "value": "1,722,312,515"
                            },
                            {
                                "name": "v",
                                "type": "uint8",
                                "value": "28"
                            },
                            {
                                "name": "r",
                                "type": "bytes32",
                                "value": "0xbe9e3c0bf9de0bf91d881703f2b88baac8eab7759ce2a1229059c5911898b978"
                            },
                            {
                                "name": "s",
                                "type": "bytes32",
                                "value": "0x5632053e5d23236e24d26a52b1e5b826748d32131b02d11e3da6116fffec0575"
                            }
                        ],
                        "constructorArguments": "",
                        "name": "permit",
                        "returnParams": [],
                        "signature": "permit(address,address,uint256,uint256,uint8,bytes32,bytes32)"
                    },
                    "errorInfo": "",
                    "fromAddress": "0xc059a531b4234d05e9ef4ac51028f7e6156e2cce",
                    "gasUsed": 36473,
                    "id": 3,
                    "methodDecoded": true,
                    "operation": "CALL",
                    "output": "",
                    "revert": false,
                    "revertMessage": "",
                    "selector": "0xd505accf",
                    "status": true,
                    "value": "0"
                },
                "nodeType": 0
            },
            "4": {
                "invocation": {
                    "address": "0x0000000000000000000000000000000000000001",
                    "callData": "0xc45a4995ce85f3dd03785920aa6592a3a6f5dd43b0a710cda32b9b6e000000000000000000000000000000000000000000000000000000000000001cbe9e3c0bf9de0bf91d881703f2b88baac8eab7759ce2a1229059c5911898b9785632053e5d23236e24d26a52b1e5b826748d32131b02d11e3da6116fffec0575",
                    "decodedMethod": {
                        "callParams": [
                            {
                                "name": "hash",
                                "type": "bytes32",
                                "value": "0x41c925bec45a4995ce85f3dd03785920aa6592a3a6f5dd43b0a710cda32b9b6e"
                            },
                            {
                                "name": "v",
                                "type": "uint256",
                                "value": "28"
                            },
                            {
                                "name": "r",
                                "type": "bytes32",
                                "value": "0xbe9e3c0bf9de0bf91d881703f2b88baac8eab7759ce2a1229059c5911898b978"
                            },
                            {
                                "name": "s",
                                "type": "bytes32",
                                "value": "0x5632053e5d23236e24d26a52b1e5b826748d32131b02d11e3da6116fffec0575"
                            }
                        ],
                        "constructorArguments": "",
                        "name": "ecrecover",
                        "returnParams": [
                            {
                                "name": "",
                                "type": "address",
                                "value": "0x2ea8d01120580257c03e013f6d0414a712606f15"
                            }
                        ],
                        "signature": "ecrecover(bytes32,uint256,bytes32,bytes32)"
                    },
                    "errorInfo": "",
                    "fromAddress": "0xb131f4a55907b10d1f0a50d8ab8fa09ec342cd74",
                    "gasUsed": 3000,
                    "id": 4,
                    "methodDecoded": true,
                    "operation": "STATICCALL",
                    "output": "0x0000000000000000000000002ea8d01120580257c03e013f6d0414a712606f15",
                    "revert": false,
                    "revertMessage": "",
                    "selector": "0x41c925be",
                    "status": true,
                    "value": "0"
                },
                "nodeType": 0
            },
            "5": {
                "event": {
                    "contract": "0xb131f4a55907b10d1f0a50d8ab8fa09ec342cd74",
                    "decodedLog": {
                        "name": "Approval",
                        "params": [
                            {
                                "name": "owner",
                                "type": "address",
                                "value": "0x2ea8d01120580257c03e013f6d0414a712606f15"
                            },
                            {
                                "name": "spender",
                                "type": "address",
                                "value": "0x32c1f663919102dc032dc3c22fe434af686f3b15"
                            },
                            {
                                "decimalAvailable": true,
                                "name": "value",
                                "type": "uint256",
                                "value": "40,430,088,240,000,000,000,000"
                            }
                        ],
                        "signature": "Approval(address,address,uint256)"
                    },
                    "id": 5,
                    "logData": "0x00000000000000000000000000000000000000000000088fb82f867df1f30000",
                    "logDecoded": true,
                    "operation": "EVENT",
                    "revert": false,
                    "status": true,
                    "topics": [
                        "0x8c5be1e5ebec7d5bd14f71427d1e84f3dd0314c0f7b2291e5b200ac8c7c3b925",
                        "0x0000000000000000000000002ea8d01120580257c03e013f6d0414a712606f15",
                        "0x00000000000000000000000032c1f663919102dc032dc3c22fe434af686f3b15"
                    ]
                },
                "nodeType": 1
            },
            "6": {
                "invocation": {
                    "address": "0x32c1f663919102dc032dc3c22fe434af686f3b15",
                    "callData": "0x0000000000000000000000002ea8d01120580257c03e013f6d0414a712606f15000000000000000000000000c059a531b4234d05e9ef4ac51028f7e6156e2cce00000000000000000000000000000000000000000000088fb82f867df1f30000",
                    "decodedMethod": {
                        "callParams": [
                            {
                                "name": "from",
                                "type": "address",
                                "value": "0x2ea8d01120580257c03e013f6d0414a712606f15"
                            },
                            {
                                "name": "to",
                                "type": "address",
                                "value": "0xc059a531b4234d05e9ef4ac51028f7e6156e2cce"
                            },
                            {
                                "decimalAvailable": true,
                                "name": "amount",
                                "type": "uint256",
                                "value": "40,430,088,240,000,000,000,000"
                            }
                        ],
                        "constructorArguments": "",
                        "name": "transferFrom",
                        "returnParams": [
                            {
                                "name": "",
                                "type": "bool",
                                "value": true
                            }
                        ],
                        "signature": "transferFrom(address,address,uint256)"
                    },
                    "errorInfo": "",
                    "fromAddress": "0xc059a531b4234d05e9ef4ac51028f7e6156e2cce",
                    "gasUsed": 18652,
                    "id": 6,
                    "methodDecoded": true,
                    "operation": "CALL",
                    "output": "0x0000000000000000000000000000000000000000000000000000000000000001",
                    "revert": false,
                    "revertMessage": "",
                    "selector": "0x23b872dd",
                    "status": true,
                    "value": "0"
                },
                "nodeType": 0
            },
            "7": {
                "invocation": {
                    "address": "0xb131f4a55907b10d1f0a50d8ab8fa09ec342cd74",
                    "callData": "0x0000000000000000000000002ea8d01120580257c03e013f6d0414a712606f15000000000000000000000000c059a531b4234d05e9ef4ac51028f7e6156e2cce00000000000000000000000000000000000000000000088fb82f867df1f30000",
                    "decodedMethod": {
                        "callParams": [
                            {
                                "name": "from",
                                "type": "address",
                                "value": "0x2ea8d01120580257c03e013f6d0414a712606f15"
                            },
                            {
                                "name": "to",
                                "type": "address",
                                "value": "0xc059a531b4234d05e9ef4ac51028f7e6156e2cce"
                            },
                            {
                                "decimalAvailable": true,
                                "name": "amount",
                                "type": "uint256",
                                "value": "40,430,088,240,000,000,000,000"
                            }
                        ],
                        "constructorArguments": "",
                        "name": "transferFrom",
                        "returnParams": [
                            {
                                "name": "",
                                "type": "bool",
                                "value": true
                            }
                        ],
                        "signature": "transferFrom(address,address,uint256)"
                    },
                    "errorInfo": "",
                    "fromAddress": "0x32c1f663919102dc032dc3c22fe434af686f3b15",
                    "gasUsed": 15467,
                    "id": 7,
                    "methodDecoded": true,
                    "operation": "CALL",
                    "output": "0x0000000000000000000000000000000000000000000000000000000000000001",
                    "revert": false,
                    "revertMessage": "",
                    "selector": "0x23b872dd",
                    "status": true,
                    "value": "0"
                },
                "nodeType": 0
            },
            "8": {
                "event": {
                    "contract": "0xb131f4a55907b10d1f0a50d8ab8fa09ec342cd74",
                    "decodedLog": {
                        "name": "Approval",
                        "params": [
                            {
                                "name": "owner",
                                "type": "address",
                                "value": "0x2ea8d01120580257c03e013f6d0414a712606f15"
                            },
                            {
                                "name": "spender",
                                "type": "address",
                                "value": "0x32c1f663919102dc032dc3c22fe434af686f3b15"
                            },
                            {
                                "decimalAvailable": true,
                                "name": "value",
                                "type": "uint256",
                                "value": "0"
                            }
                        ],
                        "signature": "Approval(address,address,uint256)"
                    },
                    "id": 8,
                    "logData": "0x0000000000000000000000000000000000000000000000000000000000000000",
                    "logDecoded": true,
                    "operation": "EVENT",
                    "revert": false,
                    "status": true,
                    "topics": [
                        "0x8c5be1e5ebec7d5bd14f71427d1e84f3dd0314c0f7b2291e5b200ac8c7c3b925",
                        "0x0000000000000000000000002ea8d01120580257c03e013f6d0414a712606f15",
                        "0x00000000000000000000000032c1f663919102dc032dc3c22fe434af686f3b15"
                    ]
                },
                "nodeType": 1
            },
            "9": {
                "event": {
                    "contract": "0xb131f4a55907b10d1f0a50d8ab8fa09ec342cd74",
                    "decodedLog": {
                        "name": "Transfer",
                        "params": [
                            {
                                "name": "from",
                                "type": "address",
                                "value": "0x2ea8d01120580257c03e013f6d0414a712606f15"
                            },
                            {
                                "name": "to",
                                "type": "address",
                                "value": "0xc059a531b4234d05e9ef4ac51028f7e6156e2cce"
                            },
                            {
                                "decimalAvailable": true,
                                "name": "value",
                                "type": "uint256",
                                "value": "40,430,088,240,000,000,000,000"
                            }
                        ],
                        "signature": "Transfer(address,address,uint256)"
                    },
                    "id": 9,
                    "logData": "0x00000000000000000000000000000000000000000000088fb82f867df1f30000",
                    "logDecoded": true,
                    "operation": "EVENT",
                    "revert": false,
                    "status": true,
                    "topics": [
                        "0xddf252ad1be2c89b69c2b068fc378daa952ba7f163c4a11628f55a4df523b3ef",
                        "0x0000000000000000000000002ea8d01120580257c03e013f6d0414a712606f15",
                        "0x000000000000000000000000c059a531b4234d05e9ef4ac51028f7e6156e2cce"
                    ]
                },
                "nodeType": 1
            }
        },
        "gasFlame": [
            {
                "children": [
                    {
                        "children": [
                            {
                                "children": [],
                                "depth": 0,
                                "name": "Initial Gas",
                                "value": 23388
                            },
                            {
                                "children": [
                                    {
                                        "children": [
                                            {
                                                "children": [],
                                                "depth": 2,
                                                "name": "memecoin",
                                                "value": 205
                                            },
                                            {
                                                "children": [
                                                    {
                                                        "children": [],
                                                        "depth": 3,
                                                        "name": "ecrecover",
                                                        "value": 3000
                                                    }
                                                ],
                                                "depth": 2,
                                                "name": "permit",
                                                "value": 36473
                                            },
                                            {
                                                "children": [
                                                    {
                                                        "children": [],
                                                        "depth": 3,
                                                        "name": "transferFrom",
                                                        "value": 15467
                                                    }
                                                ],
                                                "depth": 2,
                                                "name": "transferFrom",
                                                "value": 18652
                                            }
                                        ],
                                        "depth": 1,
                                        "name": "stake",
                                        "value": 81883
                                    }
                                ],
                                "depth": 0,
                                "name": "Executed Gas",
                                "value": 86829
                            }
                        ],
                        "depth": -1,
                        "name": "Actual Gas Used",
                        "value": 88174
                    },
                    {
                        "children": [],
                        "depth": -1,
                        "name": "Refunded Gas",
                        "value": 22043
                    }
                ],
                "depth": -2,
                "name": "Total Gas",
                "value": 110217
            }
        ],
        "isConfirmed": true,
        "mainTrace": [
            {
                "children": [
                    {
                        "children": [
                            {
                                "children": [
                                    {
                                        "children": [],
                                        "depth": 2,
                                        "id": 2,
                                        "order": 2
                                    },
                                    {
                                        "children": [
                                            {
                                                "children": [],
                                                "depth": 3,
                                                "id": 4,
                                                "order": 4
                                            },
                                            {
                                                "children": [],
                                                "depth": 3,
                                                "id": 5,
                                                "order": 5
                                            }
                                        ],
                                        "depth": 2,
                                        "id": 3,
                                        "order": 3
                                    },
                                    {
                                        "children": [
                                            {
                                                "children": [
                                                    {
                                                        "children": [],
                                                        "depth": 4,
                                                        "id": 8,
                                                        "order": 8
                                                    },
                                                    {
                                                        "children": [],
                                                        "depth": 4,
                                                        "id": 9,
                                                        "order": 9
                                                    }
                                                ],
                                                "depth": 3,
                                                "id": 7,
                                                "order": 7
                                            }
                                        ],
                                        "depth": 2,
                                        "id": 6,
                                        "order": 6
                                    },
                                    {
                                        "children": [],
                                        "depth": 2,
                                        "id": 10,
                                        "order": 10
                                    },
                                    {
                                        "children": [],
                                        "depth": 2,
                                        "id": 11,
                                        "order": 11
                                    }
                                ],
                                "depth": 1,
                                "id": 1,
                                "order": 1
                            }
                        ],
                        "depth": 0,
                        "id": 0,
                        "order": 0
                    }
                ],
                "depth": -1,
                "id": -1,
                "order": -1
            }
        ],
        "mainTraceNodeCount": 12,
        "parentIdMap": {
            "0": -1,
            "1": 0,
            "10": 1,
            "11": 1,
            "2": 1,
            "3": 1,
            "4": 3,
            "5": 3,
            "6": 1,
            "7": 6,
            "8": 7,
            "9": 7
        },
        "tidyTrace": [
            {
                "children": [
                    {
                        "children": [
                            {
                                "children": [
                                    {
                                        "children": [
                                            {
                                                "children": [],
                                                "depth": 3,
                                                "id": 5,
                                                "order": 5
                                            }
                                        ],
                                        "depth": 2,
                                        "id": 3,
                                        "order": 3
                                    },
                                    {
                                        "children": [
                                            {
                                                "children": [
                                                    {
                                                        "children": [],
                                                        "depth": 4,
                                                        "id": 8,
                                                        "order": 8
                                                    },
                                                    {
                                                        "children": [],
                                                        "depth": 4,
                                                        "id": 9,
                                                        "order": 9
                                                    }
                                                ],
                                                "depth": 3,
                                                "id": 7,
                                                "order": 7
                                            }
                                        ],
                                        "depth": 2,
                                        "id": 6,
                                        "order": 6
                                    },
                                    {
                                        "children": [],
                                        "depth": 2,
                                        "id": 10,
                                        "order": 10
                                    },
                                    {
                                        "children": [],
                                        "depth": 2,
                                        "id": 11,
                                        "order": 11
                                    }
                                ],
                                "depth": 1,
                                "id": 1,
                                "order": 1
                            }
                        ],
                        "depth": 0,
                        "id": 0,
                        "order": 0
                    }
                ],
                "depth": -1,
                "id": -1,
                "order": -1
            }
        ],
        "tidyTraceNodeCount": 10
    },
    "state_change": {
        "stateChanges": [
            {
                "address": "0xb131f4a55907b10d1f0a50d8ab8fa09ec342cd74",
                "erc": "ERC-20",
                "slots": [
                    {
                        "current": "0x0000000000000000000000000000000000000000000000000000000000000000",
                        "key": "0x0273d1f71bd9ed52f095f29ea463faea7b74dc1477500f6b35efafad4c9d7273",
                        "prev": "0x00000000000000000000000000000000000000000000088fb82f867df1f30000"
                    },
                    {
                        "current": "0x00000000000000000000000000000000000000000ffa7ff4d2c3d17af2db6e79",
                        "key": "0xfa41cde411bfcd78733609b1e3a2311ca5ccf4b94881539846ce5500d2e4a008",
                        "prev": "0x00000000000000000000000000000000000000000ffa77651a944afd00e86e79"
                    },
                    {
                        "current": "0x0000000000000000000000000000000000000000000000000000000000000003",
                        "key": "0x0899d2c43fa8bd6e6542673a2d157d629548c68aba6b73d2d8189cbcbb8492d1",
                        "prev": "0x0000000000000000000000000000000000000000000000000000000000000002"
                    }
                ],
                "storageVariables": [
                    {
                        "name": "_balances",
                        "type": "mapping(address => uint256)",
                        "value": {
                            "pairs": [
                                {
                                    "key": "0x2ea8d01120580257c03e013f6d0414a712606f15",
                                    "value": {
                                        "current": "0",
                                        "prev": "40430088240000000000000",
                                        "typeTag": 1
                                    }
                                },
                                {
                                    "key": "0xc059a531b4234d05e9ef4ac51028f7e6156e2cce",
                                    "value": {
                                        "current": "4945110858959924449035120249",
                                        "prev": "4945070428871684449035120249",
                                        "typeTag": 1
                                    }
                                }
                            ],
                            "typeTag": 4
                        }
                    },
                    {
                        "name": "_nonces",
                        "type": "mapping(address => struct Counters.Counter)",
                        "value": {
                            "pairs": [
                                {
                                    "key": "0x2ea8d01120580257c03e013f6d0414a712606f15",
                                    "value": {
                                        "fields": [
                                            {
                                                "name": "_value",
                                                "type": "uint256",
                                                "value": {
                                                    "current": "3",
                                                    "prev": "2",
                                                    "typeTag": 1
                                                }
                                            }
                                        ],
                                        "typeTag": 3
                                    }
                                }
                            ],
                            "typeTag": 4
                        }
                    }
                ]
            },
            {
                "address": "0xc059a531b4234d05e9ef4ac51028f7e6156e2cce",
                "erc": "",
                "slots": [
                    {
                        "current": "0x00000000000000000000000000000000000000000000174347f4d0eb64390d38",
                        "key": "0x8d417cacd04b396d29236ed791f798a1fdbb895f69ad3415633fc9973d86b6bc",
                        "prev": "0x000000000000000000000000000000000000000000000eb38fc54a6d72460d38"
                    }
                ],
                "storageVariables": [
                    {
                        "name": "balanceOf",
                        "type": "mapping(address => uint256)",
                        "value": {
                            "pairs": [
                                {
                                    "key": "0x2ea8d01120580257c03e013f6d0414a712606f15",
                                    "value": {
                                        "current": "109855545957720807509304",
                                        "prev": "69425457717720807509304",
                                        "typeTag": 1
                                    }
                                }
                            ],
                            "typeTag": 4
                        }
                    }
                ]
            }
        ]
    }
}