{
    "balance_change": {
        "balanceChanges": []
    },
    "profile": {
        "basic_info": {
            "baseFee": "59.201132268",
            "blockNumber": 14636955,
            "callData": "0x33500e260000000000000000000000000000000000000000000000000000000000000000",
            "debugEnable": true,
            "errorInfo": "",
            "eventCount": 0,
            "feeRecipient": "0xea674fdde714fd979de3edf0f56aa9716b898ec8",
            "formatValue": "0",
            "gasLimit": 128626,
            "gasPrice": "60.701132268",
            "gasUsed": 83755,
            "intTxnCount": 0,
            "internalRevert": false,
            "internalRevertMessage": "",
            "isContractCreation": false,
            "isFlashloan": false,
            "maxFee": "80.909431583",
            "nonce": 609,
            "overwritedBlockNumber": -1,
            "priorityFee": "1.5",
            "receiver": "0xf42c318dbfbaab0eee040279c6a2588fa01a961d",
            "revertMessage": "",
            "sender": "0xfb5da9aab03806353687010e9a5623b448f555f4",
            "simulationEnable": true,
            "sourceTxnHash": "0x3ac248907bb42d55c8f24e68e67d458920d78004ace85460c374fede41bb3827",
            "status": true,
            "timestamp": "2022-04-22T21:01:46Z",
            "transactionFee": "0.00508402333310634",
            "txnHash": "0x3ac248907bb42d55c8f24e68e67d458920d78004ace85460c374fede41bb3827",
            "txnIndex": 27,
            "type": 2,
            "value": "0"
        },
        "fund_flow": [],
        "token_infos": [
            {
                "address": "0xeeeeeeeeeeeeeeeeeeeeeeeeeeeeeeeeeeeeeeee",
                "decimals": 18
            },
            {
                "address": "0xc02aaa39b223fe8d0a0e5c4f27ead9083c756cc2",
                "decimals": 18
            }
        ]
    },
    "address_label": {
        "labels": [
            {
                "address": "0x0000000000000000000000000000000000000001",
                "label": "Precompiled"
            },
            {
                "address": "0x0000000000000000000000000000000000000002",
                "label": "Precompiled"
            },
            {
                "address": "0x0000000000000000000000000000000000000003",
                "label": "Precompiled"
            },
            {
                "address": "0x0000000000000000000000000000000000000004",
                "label": "Precompiled"
            },
            {
                "address": "0xeeeeeeeeeeeeeeeeeeeeeeeeeeeeeeeeeeeeeeee",
                "label": "Ether"
            },
            {
                "address": "0xf42c318dbfbaab0eee040279c6a2588fa01a961d",
                "label": "AkuAuction"
            }
        ]
    },
    "trace": {
        "accountLabels": null,
        "dataMap": {
            "-1": {
                "invocation": {
                    "address": "0xfb5da9aab03806353687010e9a5623b448f555f4",
                    "callData": "",
                    "decodedMethod": null,
                    "errorInfo": "",
                    "fromAddress": "",
                    "gasUsed": 0,
                    "id": -1,
                    "methodDecoded": false,
                    "operation": "",
                    "output": "",
                    "revert": false,
                    "revertMessage": "",
                    "selector": "",
                    "status": false,
                    "value": ""
                },
                "nodeType": 0
            },
            "0": {
                "invocation": {
                    "address": "0xf42c318dbfbaab0eee040279c6a2588fa01a961d",
                    "callData": "0x0000000000000000000000000000000000000000000000000000000000000000",
                    "decodedMethod": {
                        "callParams": [
                            {
                                "name": "amount",
                                "type": "uint8",
                                "value": "0"
                            }
                        ],
                        "constructorArguments": "",
                        "name": "bid",
                        "returnParams": [],
                        "signature": "bid(uint8)"
                    },
                    "errorInfo": "",
                    "fromAddress": "0xfb5da9aab03806353687010e9a5623b448f555f4",
                    "gasUsed": 83755,
                    "id": 0,
                    "methodDecoded": true,
                    "operation": "CALL",
                    "output": "",
                    "revert": false,
                    "revertMessage": "",
                    "selector": "0x33500e26",
                    "status": true,
                    "value": "0"
                },
                "nodeType": 0
            }
        },
        "gasFlame": [
            {
                "children": [
                    {
                        "children": [
                            {
                                "children": [],
                                "depth": 0,
                                "name": "Initial Gas",
                                "value": 21192
                            },
                            {
                                "children": [],
                                "depth": 0,
                                "name": "Executed Gas",
                                "value": 62563
                            }
                        ],
                        "depth": -1,
                        "name": "Actual Gas Used",
                        "value": 83755
                    },
                    {
                        "children": [],
                        "depth": -1,
                        "name": "Refunded Gas",
                        "value": 0
                    }
                ],
                "depth": -2,
                "name": "Total Gas",
                "value": 83755
            }
        ],
        "isConfirmed": true,
        "mainTrace": [
            {
                "children": [
                    {
                        "children": [],
                        "depth": 0,
                        "id": 0,
                        "order": 0
                    }
                ],
                "depth": -1,
                "id": -1,
                "order": -1
            }
        ],
        "mainTraceNodeCount": 1,
        "parentIdMap": {
            "0": -1
        },
        "tidyTrace": [
            {
                "children": [
                    {
                        "children": [],
                        "depth": 0,
                        "id": 0,
                        "order": 0
                    }
                ],
                "depth": -1,
                "id": -1,
                "order": -1
            }
        ],
        "tidyTraceNodeCount": 1
    },
    "state_change": {
        "stateChanges": [
            {
                "address": "0xf42c318dbfbaab0eee040279c6a2588fa01a961d",
                "erc": "",
                "slots": [
                    {
                        "current": "0x00000000000000000000000000000000000000000000000000000000000006a8",
                        "key": "0x1850a1fb5c8b57e9da0a227beac53b425fc8103fb2913ac31529430e39694869",
                        "prev": "0x0000000000000000000000000000000000000000000000000000000000000000"
                    },
                    {
                        "current": "0x000000002b05699353b60000fb5da9aab03806353687010e9a5623b448f555f4",
                        "key": "0x95b160dc4e8b3b6eabdfa83ca21a9ed82c09e3924147a1dc93f99b2a781111fd",
                        "prev": "0x0000000000000000000000000000000000000000000000000000000000000000"
                    },
                    {
                        "current": "0x00000000000000000000000000000000000000000000000000000000000006a9",
                        "key": "0x0000000000000000000000000000000000000000000000000000000000000007",
                        "prev": "0x00000000000000000000000000000000000000000000000000000000000006a8"
                    }
                ],
                "storageVariables": [
                    {
                        "name": "personalBids",
                        "type": "mapping(address => uint256)",
                        "value": {
                            "pairs": [
                                {
                                    "key": "0xfb5da9aab03806353687010e9a5623b448f555f4",
                                    "value": {
                                        "current": "1704",
                                        "prev": "0",
                                        "typeTag": 1
                                    }
                                }
                            ],
                            "typeTag": 4
                        }
                    },
                    {
                        "name": "allBids",
                        "type": "mapping(uint256 => struct AkuAuction.bids)",
                        "value": {
                            "pairs": [
                                {
                                    "key": "1704",
                                    "value": {
                                        "fields": [
                                            {
                                                "name": "bidder",
                                                "type": "address",
                                                "value": {
                                                    "current": "0xfb5da9aab03806353687010e9a5623b448f555f4",
                                                    "prev": "0x0000000000000000000000000000000000000000",
                                                    "typeTag": 1
                                                }
                                            },
                                            {
                                                "name": "price",
                                                "type": "uint80",
                                                "value": {
                                                    "current": "3100000000000000000",
                                                    "prev": "0",
                                                    "typeTag": 1
                                                }
                                            },
                                            {
                                                "name": "bidsPlaced",
                                                "type": "uint8",
                                                "value": {
                                                    "current": "0",
                                                    "prev": "0",
                                                    "typeTag": 1
                                                }
                                            },
                                            {
                                                "name": "finalProcess",
                                                "type": "uint8",
                                                "value": {
                                                    "current": "0",
                                                    "prev": "0",
                                                    "typeTag": 1
                                                }
                                            }
                                        ],
                                        "typeTag": 3
                                    }
                                }
                            ],
                            "typeTag": 4
                        }
                    },
                    {
                        "name": "bidIndex",
                        "type": "uint256",
                        "value": {
                            "current": "1705",
                            "prev": "1704",
                            "typeTag": 1
                        }
                    }
                ]
            }
        ]
    }
}