{
    "balance_change": {
        "balanceChanges": [
            {
                "account": "0x58edf78281334335effa23101bbe3371b6a36a51",
                "assets": [
                    {
                        "address": "0x69af81e73a73b40adf4f3d4223cd9b1ece623074",
                        "amount": "4,185.43",
                        "iconUrl": "https://assets.blocksec.com/icon/639086846263104b61d15d2dad10c050cd67b997c5e207275733791b2067fbcc.png",
                        "isERC1155": false,
                        "isERC721": false,
                        "sign": false,
                        "value": "18667.017799999999852"
                    }
                ]
            },
            {
                "account": "0x1348550eff161a0ac890dbf524993382ddb1cc6f",
                "assets": [
                    {
                        "address": "0x69af81e73a73b40adf4f3d4223cd9b1ece623074",
                        "amount": "4,185.43",
                        "iconUrl": "https://assets.blocksec.com/icon/639086846263104b61d15d2dad10c050cd67b997c5e207275733791b2067fbcc.png",
                        "isERC1155": false,
                        "isERC721": false,
                        "sign": true,
                        "value": "18667.017799999999852"
                    }
                ]
            }
        ]
    },
    "profile": {
        "basic_info": {
            "baseFee": "19.804705025",
            "blockNumber": 18949430,
            "callData": "0xa9059cbb0000000000000000000000001348550eff161a0ac890dbf524993382ddb1cc6f0000000000000000000000000000000000000000000000e2e48269a4372f0000",
            "debugEnable": true,
            "errorInfo": "",
            "eventCount": 1,
            "feeRecipient": "0xb279d48442aafcf8f2af6d9e7d5d9c23f63b4e16",
            "formatValue": "0",
            "gasLimit": 100000,
            "gasPrice": "21.990706898",
            "gasUsed": 51866,
            "intTxnCount": 0,
            "internalRevert": false,
            "internalRevertMessage": "",
            "isContractCreation": false,
            "isFlashloan": false,
            "maxFee": "46",
            "nonce": 122165,
            "overwritedBlockNumber": -1,
            "priorityFee": "2.186001873",
            "receiver": "0x69af81e73a73b40adf4f3d4223cd9b1ece623074",
            "revertMessage": "",
            "sender": "0x58edf78281334335effa23101bbe3371b6a36a51",
            "simulationEnable": true,
            "sourceTxnHash": "0x3adeed2e3ae1ef829d6777c77d3e0015b002253f07218a87977e5916c53931ca",
            "status": true,
            "timestamp": "2024-01-06T16:47:59Z",
            "transactionFee": "0.001140570003971668",
            "txnHash": "0x3adeed2e3ae1ef829d6777c77d3e0015b002253f07218a87977e5916c53931ca",
            "txnIndex": 16,
            "type": 2,
            "value": "0"
        },
        "fund_flow": [
            {
                "amount": "4,185.43",
                "from": "0x58edf78281334335effa23101bbe3371b6a36a51",
                "id": 1,
                "isERC1155": false,
                "isERC721": false,
                "isReverted": false,
                "order": 1,
                "to": "0x1348550eff161a0ac890dbf524993382ddb1cc6f",
                "token": "0x69af81e73a73b40adf4f3d4223cd9b1ece623074"
            }
        ],
        "token_infos": [
            {
                "address": "0x69af81e73a73b40adf4f3d4223cd9b1ece623074",
                "decimals": 18
            },
            {
                "address": "0xc02aaa39b223fe8d0a0e5c4f27ead9083c756cc2",
                "decimals": 18
            },
            {
                "address": "0xeeeeeeeeeeeeeeeeeeeeeeeeeeeeeeeeeeeeeeee",
                "decimals": 18
            }
        ]
    },
    "address_label": {
        "labels": [
            {
                "address": "0x0000000000000000000000000000000000000004",
                "label": "Precompiled"
            },
            {
                "address": "0xeeeeeeeeeeeeeeeeeeeeeeeeeeeeeeeeeeeeeeee",
                "label": "Ether"
            },
            {
                "address": "0x69af81e73a73b40adf4f3d4223cd9b1ece623074",
                "label": "Mask Network: MASK Token"
            },
            {
                "address": "0x58edf78281334335effa23101bbe3371b6a36a51",
                "label": "KuCoin 20"
            },
            {
                "address": "0x0000000000000000000000000000000000000001",
                "label": "Precompiled"
            },
            {
                "address": "0x0000000000000000000000000000000000000002",
                "label": "Precompiled"
            },
            {
                "address": "0x0000000000000000000000000000000000000003",
                "label": "Precompiled"
            }
        ]
    },
    "trace": {
        "accountLabels": null,
        "dataMap": {
            "-1": {
                "invocation": {
                    "address": "0x58edf78281334335effa23101bbe3371b6a36a51",
                    "callData": "",
                    "decodedMethod": null,
                    "errorInfo": "",
                    "fromAddress": "",
                    "gasUsed": 0,
                    "id": -1,
                    "methodDecoded": false,
                    "operation": "",
                    "output": "",
                    "revert": false,
                    "revertMessage": "",
                    "selector": "",
                    "status": false,
                    "value": ""
                },
                "nodeType": 0
            },
            "0": {
                "invocation": {
                    "address": "0x69af81e73a73b40adf4f3d4223cd9b1ece623074",
                    "callData": "0x0000000000000000000000001348550eff161a0ac890dbf524993382ddb1cc6f0000000000000000000000000000000000000000000000e2e48269a4372f0000",
                    "decodedMethod": {
                        "callParams": [
                            {
                                "name": "recipient",
                                "type": "address",
                                "value": "0x1348550eff161a0ac890dbf524993382ddb1cc6f"
                            },
                            {
                                "decimalAvailable": true,
                                "name": "amount",
                                "type": "uint256",
                                "value": "4,185,430,000,000,000,000,000"
                            }
                        ],
                        "constructorArguments": "",
                        "name": "transfer",
                        "returnParams": [
                            {
                                "name": "",
                                "type": "bool",
                                "value": true
                            }
                        ],
                        "signature": "transfer(address,uint256)"
                    },
                    "errorInfo": "",
                    "fromAddress": "0x58edf78281334335effa23101bbe3371b6a36a51",
                    "gasUsed": 51866,
                    "id": 0,
                    "methodDecoded": true,
                    "operation": "CALL",
                    "output": "0x0000000000000000000000000000000000000000000000000000000000000001",
                    "revert": false,
                    "revertMessage": "",
                    "selector": "0xa9059cbb",
                    "status": true,
                    "value": "0"
                },
                "nodeType": 0
            },
            "1": {
                "event": {
                    "contract": "0x69af81e73a73b40adf4f3d4223cd9b1ece623074",
                    "decodedLog": {
                        "name": "Transfer",
                        "params": [
                            {
                                "name": "from",
                                "type": "address",
                                "value": "0x58edf78281334335effa23101bbe3371b6a36a51"
                            },
                            {
                                "name": "to",
                                "type": "address",
                                "value": "0x1348550eff161a0ac890dbf524993382ddb1cc6f"
                            },
                            {
                                "decimalAvailable": true,
                                "name": "value",
                                "type": "uint256",
                                "value": "4,185,430,000,000,000,000,000"
                            }
                        ],
                        "signature": "Transfer(address,address,uint256)"
                    },
                    "id": 1,
                    "logData": "0x0000000000000000000000000000000000000000000000e2e48269a4372f0000",
                    "logDecoded": true,
                    "operation": "EVENT",
                    "revert": false,
                    "status": true,
                    "topics": [
                        "0xddf252ad1be2c89b69c2b068fc378daa952ba7f163c4a11628f55a4df523b3ef",
                        "0x00000000000000000000000058edf78281334335effa23101bbe3371b6a36a51",
                        "0x0000000000000000000000001348550eff161a0ac890dbf524993382ddb1cc6f"
                    ]
                },
                "nodeType": 1
            }
        },
        "gasFlame": [
            {
                "children": [
                    {
                        "children": [
                            {
                                "children": [],
                                "depth": 0,
                                "name": "Initial Gas",
                                "value": 21644
                            },
                            {
                                "children": [],
                                "depth": 0,
                                "name": "Executed Gas",
                                "value": 30222
                            }
                        ],
                        "depth": -1,
                        "name": "Actual Gas Used",
                        "value": 51866
                    },
                    {
                        "children": [],
                        "depth": -1,
                        "name": "Refunded Gas",
                        "value": 0
                    }
                ],
                "depth": -2,
                "name": "Total Gas",
                "value": 51866
            }
        ],
        "isConfirmed": true,
        "mainTrace": [
            {
                "children": [
                    {
                        "children": [
                            {
                                "children": [],
                                "depth": 1,
                                "id": 1,
                                "order": 1
                            }
                        ],
                        "depth": 0,
                        "id": 0,
                        "order": 0
                    }
                ],
                "depth": -1,
                "id": -1,
                "order": -1
            }
        ],
        "mainTraceNodeCount": 2,
        "parentIdMap": {
            "0": -1,
            "1": 0
        },
        "tidyTrace": [
            {
                "children": [
                    {
                        "children": [
                            {
                                "children": [],
                                "depth": 1,
                                "id": 1,
                                "order": 1
                            }
                        ],
                        "depth": 0,
                        "id": 0,
                        "order": 0
                    }
                ],
                "depth": -1,
                "id": -1,
                "order": -1
            }
        ],
        "tidyTraceNodeCount": 2
    },
    "state_change": {
        "stateChanges": [
            {
                "address": "0x69af81e73a73b40adf4f3d4223cd9b1ece623074",
                "erc": "ERC-20",
                "slots": [
                    {
                        "current": "0x000000000000000000000000000000000000000000000ceb3847601767d2d600",
                        "key": "0xfd552f91b7c6f6cf7c162367a465f9580d4cba7e35f4a0854e7c549b782cdde9",
                        "prev": "0x000000000000000000000000000000000000000000000dce1cc9c9bb9f01d600"
                    },
                    {
                        "current": "0x0000000000000000000000000000000000000000000000e2e48269a4372f0000",
                        "key": "0x0a45ed0e209272ead94e1ac43a06954962f60ce43c17d10ef106c04b01402384",
                        "prev": "0x0000000000000000000000000000000000000000000000000000000000000000"
                    }
                ],
                "storageVariables": [
                    {
                        "name": "_balances",
                        "type": "mapping(address => uint256)",
                        "value": {
                            "pairs": [
                                {
                                    "key": "0x1348550eff161a0ac890dbf524993382ddb1cc6f",
                                    "value": {
                                        "current": "4185430000000000000000",
                                        "prev": "0",
                                        "typeTag": 1
                                    }
                                },
                                {
                                    "key": "0x58edf78281334335effa23101bbe3371b6a36a51",
                                    "value": {
                                        "current": "61007437967400600000000",
                                        "prev": "65192867967400600000000",
                                        "typeTag": 1
                                    }
                                }
                            ],
                            "typeTag": 4
                        }
                    }
                ]
            }
        ]
    }
}