{
    "balance_change": {
        "balanceChanges": [
            {
                "account": "0x40d018045fb04fd0b4dff98a3bda69221e07f18f",
                "assets": [
                    {
                        "address": "0x56a67d475ded20f1120d6377988ae12992888ac4",
                        "amount": "1",
                        "iconUrl": "",
                        "isERC1155": true,
                        "isERC721": false,
                        "sign": false,
                        "tokenID": "1",
                        "value": ""
                    }
                ]
            },
            {
                "account": "0x8c01eb35d6b23b2b3f57cd76c62db2022f36e0f2",
                "assets": [
                    {
                        "address": "0x56a67d475ded20f1120d6377988ae12992888ac4",
                        "amount": "1",
                        "iconUrl": "",
                        "isERC1155": true,
                        "isERC721": false,
                        "sign": true,
                        "tokenID": "1",
                        "value": ""
                    }
                ]
            }
        ]
    },
    "profile": {
        "basic_info": {
            "baseFee": "15.710153567",
            "blockNumber": 16472859,
            "callData": "0xf242432a00000000000000000000000040d018045fb04fd0b4dff98a3bda69221e07f18f0000000000000000000000008c01eb35d6b23b2b3f57cd76c62db2022f36e0f20000000000000000000000000000000000000000000000000000000000000001000000000000000000000000000000000000000000000000000000000000000100000000000000000000000000000000000000000000000000000000000000a00000000000000000000000000000000000000000000000000000000000000000",
            "debugEnable": true,
            "errorInfo": "",
            "eventCount": 1,
            "feeRecipient": "0xdafea492d9c6733ae3d56b7ed1adb60692c98bc5",
            "formatValue": "0",
            "gasLimit": 61086,
            "gasPrice": "17.210153567",
            "gasUsed": 56286,
            "intTxnCount": 0,
            "internalRevert": false,
            "internalRevertMessage": "",
            "isContractCreation": false,
            "isFlashloan": false,
            "maxFee": "21.810311593",
            "nonce": 302,
            "overwritedBlockNumber": -1,
            "priorityFee": "1.5",
            "receiver": "0x56a67d475ded20f1120d6377988ae12992888ac4",
            "revertMessage": "",
            "sender": "0x40d018045fb04fd0b4dff98a3bda69221e07f18f",
            "simulationEnable": true,
            "sourceTxnHash": "0x3a7d9a26c7eb3c49a1510513e60529af05ec1753301e9398ae5286c0ff87eec9",
            "status": true,
            "timestamp": "2023-01-23T23:42:35Z",
            "transactionFee": "0.000968690703672162",
            "txnHash": "0x3a7d9a26c7eb3c49a1510513e60529af05ec1753301e9398ae5286c0ff87eec9",
            "txnIndex": 78,
            "type": 2,
            "value": "0"
        },
        "fund_flow": [
            {
                "amount": "1",
                "from": "0x40d018045fb04fd0b4dff98a3bda69221e07f18f",
                "id": 1,
                "isERC1155": true,
                "isERC721": false,
                "isReverted": false,
                "order": 1,
                "to": "0x8c01eb35d6b23b2b3f57cd76c62db2022f36e0f2",
                "token": "0x56a67d475ded20f1120d6377988ae12992888ac4",
                "tokenID": "1"
            }
        ],
        "token_infos": [
            {
                "address": "0xc02aaa39b223fe8d0a0e5c4f27ead9083c756cc2",
                "decimals": 18
            },
            {
                "address": "0xeeeeeeeeeeeeeeeeeeeeeeeeeeeeeeeeeeeeeeee",
                "decimals": 18
            }
        ]
    },
    "address_label": {
        "labels": [
            {
                "address": "0x0000000000000000000000000000000000000004",
                "label": "Precompiled"
            },
            {
                "address": "0xeeeeeeeeeeeeeeeeeeeeeeeeeeeeeeeeeeeeeeee",
                "label": "Ether"
            },
            {
                "address": "0x56a67d475ded20f1120d6377988ae12992888ac4",
                "label": "RTFKT - MNLTH X: Token"
            },
            {
                "address": "0x000000000000aaeb6d7670e522a718067333cd4e",
                "label": "OperatorFilterRegistry"
            },
            {
                "address": "0x0000000000000000000000000000000000000001",
                "label": "Precompiled"
            },
            {
                "address": "0x0000000000000000000000000000000000000002",
                "label": "Precompiled"
            },
            {
                "address": "0x0000000000000000000000000000000000000003",
                "label": "Precompiled"
            }
        ]
    },
    "trace": {
        "accountLabels": null,
        "dataMap": {
            "-1": {
                "invocation": {
                    "address": "0x40d018045fb04fd0b4dff98a3bda69221e07f18f",
                    "callData": "",
                    "decodedMethod": null,
                    "errorInfo": "",
                    "fromAddress": "",
                    "gasUsed": 0,
                    "id": -1,
                    "methodDecoded": false,
                    "operation": "",
                    "output": "",
                    "revert": false,
                    "revertMessage": "",
                    "selector": "",
                    "status": false,
                    "value": ""
                },
                "nodeType": 0
            },
            "0": {
                "invocation": {
                    "address": "0x56a67d475ded20f1120d6377988ae12992888ac4",
                    "callData": "0x00000000000000000000000040d018045fb04fd0b4dff98a3bda69221e07f18f0000000000000000000000008c01eb35d6b23b2b3f57cd76c62db2022f36e0f20000000000000000000000000000000000000000000000000000000000000001000000000000000000000000000000000000000000000000000000000000000100000000000000000000000000000000000000000000000000000000000000a00000000000000000000000000000000000000000000000000000000000000000",
                    "decodedMethod": {
                        "callParams": [
                            {
                                "name": "from",
                                "type": "address",
                                "value": "0x40d018045fb04fd0b4dff98a3bda69221e07f18f"
                            },
                            {
                                "name": "to",
                                "type": "address",
                                "value": "0x8c01eb35d6b23b2b3f57cd76c62db2022f36e0f2"
                            },
                            {
                                "name": "tokenId",
                                "type": "uint256",
                                "value": "1"
                            },
                            {
                                "name": "amount",
                                "type": "uint256",
                                "value": "1"
                            },
                            {
                                "name": "data",
                                "type": "bytes",
                                "value": "0x"
                            }
                        ],
                        "constructorArguments": "",
                        "name": "safeTransferFrom",
                        "returnParams": [],
                        "signature": "safeTransferFrom(address,address,uint256,uint256,bytes)"
                    },
                    "errorInfo": "",
                    "fromAddress": "0x40d018045fb04fd0b4dff98a3bda69221e07f18f",
                    "gasUsed": 56286,
                    "id": 0,
                    "methodDecoded": true,
                    "operation": "CALL",
                    "output": "",
                    "revert": false,
                    "revertMessage": "",
                    "selector": "0xf242432a",
                    "status": true,
                    "value": "0"
                },
                "nodeType": 0
            },
            "1": {
                "event": {
                    "contract": "0x56a67d475ded20f1120d6377988ae12992888ac4",
                    "decodedLog": {
                        "name": "TransferSingle",
                        "params": [
                            {
                                "name": "operator",
                                "type": "address",
                                "value": "0x40d018045fb04fd0b4dff98a3bda69221e07f18f"
                            },
                            {
                                "name": "from",
                                "type": "address",
                                "value": "0x40d018045fb04fd0b4dff98a3bda69221e07f18f"
                            },
                            {
                                "name": "to",
                                "type": "address",
                                "value": "0x8c01eb35d6b23b2b3f57cd76c62db2022f36e0f2"
                            },
                            {
                                "name": "id",
                                "type": "uint256",
                                "value": "1"
                            },
                            {
                                "name": "value",
                                "type": "uint256",
                                "value": "1"
                            }
                        ],
                        "signature": "TransferSingle(address,address,address,uint256,uint256)"
                    },
                    "id": 1,
                    "logData": "0x00000000000000000000000000000000000000000000000000000000000000010000000000000000000000000000000000000000000000000000000000000001",
                    "logDecoded": true,
                    "operation": "EVENT",
                    "revert": false,
                    "status": true,
                    "topics": [
                        "0xc3d58168c5ae7397731d063d5bbf3d657854427343f4c083240f7aacaa2d0f62",
                        "0x00000000000000000000000040d018045fb04fd0b4dff98a3bda69221e07f18f",
                        "0x00000000000000000000000040d018045fb04fd0b4dff98a3bda69221e07f18f",
                        "0x0000000000000000000000008c01eb35d6b23b2b3f57cd76c62db2022f36e0f2"
                    ]
                },
                "nodeType": 1
            }
        },
        "gasFlame": [
            {
                "children": [
                    {
                        "children": [
                            {
                                "children": [],
                                "depth": 0,
                                "name": "Initial Gas",
                                "value": 22348
                            },
                            {
                                "children": [],
                                "depth": 0,
                                "name": "Executed Gas",
                                "value": 38738
                            }
                        ],
                        "depth": -1,
                        "name": "Actual Gas Used",
                        "value": 56286
                    },
                    {
                        "children": [],
                        "depth": -1,
                        "name": "Refunded Gas",
                        "value": 4800
                    }
                ],
                "depth": -2,
                "name": "Total Gas",
                "value": 61086
            }
        ],
        "isConfirmed": true,
        "mainTrace": [
            {
                "children": [
                    {
                        "children": [
                            {
                                "children": [],
                                "depth": 1,
                                "id": 1,
                                "order": 1
                            }
                        ],
                        "depth": 0,
                        "id": 0,
                        "order": 0
                    }
                ],
                "depth": -1,
                "id": -1,
                "order": -1
            }
        ],
        "mainTraceNodeCount": 2,
        "parentIdMap": {
            "0": -1,
            "1": 0
        },
        "tidyTrace": [
            {
                "children": [
                    {
                        "children": [
                            {
                                "children": [],
                                "depth": 1,
                                "id": 1,
                                "order": 1
                            }
                        ],
                        "depth": 0,
                        "id": 0,
                        "order": 0
                    }
                ],
                "depth": -1,
                "id": -1,
                "order": -1
            }
        ],
        "tidyTraceNodeCount": 2
    },
    "state_change": {
        "stateChanges": [
            {
                "address": "0x56a67d475ded20f1120d6377988ae12992888ac4",
                "erc": "ERC-1155",
                "slots": [
                    {
                        "current": "0x0000000000000000000000000000000000000000000000000000000000000000",
                        "key": "0x172e21401ea275d09b12b046e8a5ae1d8c321513911ddde9579a90bb166a3630",
                        "prev": "0x0000000000000000000000000000000000000000000000000000000000000001"
                    },
                    {
                        "current": "0x0000000000000000000000000000000000000000000000000000000000000001",
                        "key": "0xfbb44a467277d7f363499bb9dd72f79e5b45f86f80bdcc524fc4d09e3a22b9e9",
                        "prev": "0x0000000000000000000000000000000000000000000000000000000000000000"
                    }
                ],
                "storageVariables": [
                    {
                        "name": "_balances",
                        "type": "mapping(uint256 => mapping(address => uint256))",
                        "value": {
                            "pairs": [
                                {
                                    "key": "1",
                                    "value": {
                                        "pairs": [
                                            {
                                                "key": "0x40d018045fb04fd0b4dff98a3bda69221e07f18f",
                                                "value": {
                                                    "current": "0",
                                                    "prev": "1",
                                                    "typeTag": 1
                                                }
                                            },
                                            {
                                                "key": "0x8c01eb35d6b23b2b3f57cd76c62db2022f36e0f2",
                                                "value": {
                                                    "current": "1",
                                                    "prev": "0",
                                                    "typeTag": 1
                                                }
                                            }
                                        ],
                                        "typeTag": 4
                                    }
                                }
                            ],
                            "typeTag": 4
                        }
                    }
                ]
            }
        ]
    }
}