{
    "balance_change": {
        "balanceChanges": []
    },
    "profile": {
        "basic_info": {
            "baseFee": "2.610742808",
            "blockNumber": 20691538,
            "callData": "0x095ea7b3000000000000000000000000eaaa41cb2a64b11fe761d41e747c032cdd60caceffffffffffffffffffffffffffffffffffffffffffffffffffffffffffffffff",
            "debugEnable": true,
            "errorInfo": "",
            "eventCount": 1,
            "feeRecipient": "0x95222290dd7278aa3ddd389cc1e1d165cc4bafe5",
            "formatValue": "0",
            "gasLimit": 66210,
            "gasPrice": "5.610742808",
            "gasUsed": 54376,
            "intTxnCount": 1,
            "internalRevert": false,
            "internalRevertMessage": "",
            "isContractCreation": false,
            "isFlashloan": false,
            "maxFee": "6.304221366",
            "nonce": 44,
            "overwritedBlockNumber": -1,
            "priorityFee": "3",
            "receiver": "0xd0107f213e927289240563cb51e9759c003c4ed9",
            "revertMessage": "",
            "sender": "0x86c13eb816970c58649bde636cea3622c9cd4ff2",
            "simulationEnable": true,
            "sourceTxnHash": "0x3b6343bfd1c1a4fbe573750cfe6984816a8ecf15ef3811c569e95ddfb2976c21",
            "status": true,
            "timestamp": "2024-09-06T12:25:23Z",
            "transactionFee": "0.000305089750927808",
            "txnHash": "0x3b6343bfd1c1a4fbe573750cfe6984816a8ecf15ef3811c569e95ddfb2976c21",
            "txnIndex": 16,
            "type": 2,
            "value": "0"
        },
        "fund_flow": [],
        "token_infos": [
            {
                "address": "0xc02aaa39b223fe8d0a0e5c4f27ead9083c756cc2",
                "decimals": 18
            },
            {
                "address": "0xeeeeeeeeeeeeeeeeeeeeeeeeeeeeeeeeeeeeeeee",
                "decimals": 18
            }
        ]
    },
    "address_label": {
        "labels": [
            {
                "address": "0x0000000000000000000000000000000000000002",
                "label": "Precompiled"
            },
            {
                "address": "0x0000000000000000000000000000000000000003",
                "label": "Precompiled"
            },
            {
                "address": "0x0000000000000000000000000000000000000004",
                "label": "Precompiled"
            },
            {
                "address": "0xeeeeeeeeeeeeeeeeeeeeeeeeeeeeeeeeeeeeeeee",
                "label": "Ether"
            },
            {
                "address": "0xeaaa41cb2a64b11fe761d41e747c032cdd60cace",
                "label": "Ethervista: Router"
            },
            {
                "address": "0xd0107f213e927289240563cb51e9759c003c4ed9",
                "label": "IE"
            },
            {
                "address": "0x9a27cb5ae0b2cee0bb71f9a85c0d60f3920757b4",
                "label": "EtherVistaFactory"
            },
            {
                "address": "0x0000000000000000000000000000000000000001",
                "label": "Precompiled"
            }
        ]
    },
    "trace": {
        "accountLabels": null,
        "dataMap": {
            "-1": {
                "invocation": {
                    "address": "0x86c13eb816970c58649bde636cea3622c9cd4ff2",
                    "callData": "",
                    "decodedMethod": null,
                    "errorInfo": "",
                    "fromAddress": "",
                    "gasUsed": 0,
                    "id": -1,
                    "methodDecoded": false,
                    "operation": "",
                    "output": "",
                    "revert": false,
                    "revertMessage": "",
                    "selector": "",
                    "status": false,
                    "value": ""
                },
                "nodeType": 0
            },
            "0": {
                "invocation": {
                    "address": "0xd0107f213e927289240563cb51e9759c003c4ed9",
                    "callData": "0x000000000000000000000000eaaa41cb2a64b11fe761d41e747c032cdd60caceffffffffffffffffffffffffffffffffffffffffffffffffffffffffffffffff",
                    "decodedMethod": {
                        "callParams": [
                            {
                                "name": "spender",
                                "type": "address",
                                "value": "0xeaaa41cb2a64b11fe761d41e747c032cdd60cace"
                            },
                            {
                                "decimalAvailable": true,
                                "name": "value",
                                "type": "uint256",
                                "value": "115,792,089,237,316,195,423,570,985,008,687,907,853,269,984,665,640,564,039,457,584,007,913,129,639,935"
                            }
                        ],
                        "constructorArguments": "",
                        "name": "approve",
                        "returnParams": [
                            {
                                "name": "",
                                "type": "bool",
                                "value": true
                            }
                        ],
                        "signature": "approve(address,uint256)"
                    },
                    "errorInfo": "",
                    "fromAddress": "0x86c13eb816970c58649bde636cea3622c9cd4ff2",
                    "gasUsed": 54376,
                    "id": 0,
                    "methodDecoded": true,
                    "operation": "CALL",
                    "output": "0x0000000000000000000000000000000000000000000000000000000000000001",
                    "revert": false,
                    "revertMessage": "",
                    "selector": "0x095ea7b3",
                    "status": true,
                    "value": "0"
                },
                "nodeType": 0
            },
            "1": {
                "invocation": {
                    "address": "0x9a27cb5ae0b2cee0bb71f9a85c0d60f3920757b4",
                    "callData": "0x",
                    "decodedMethod": {
                        "callParams": [],
                        "constructorArguments": "",
                        "name": "router",
                        "returnParams": [
                            {
                                "name": "",
                                "type": "address",
                                "value": "0xeaaa41cb2a64b11fe761d41e747c032cdd60cace"
                            }
                        ],
                        "signature": "router()"
                    },
                    "errorInfo": "",
                    "fromAddress": "0xd0107f213e927289240563cb51e9759c003c4ed9",
                    "gasUsed": 2425,
                    "id": 1,
                    "methodDecoded": true,
                    "operation": "STATICCALL",
                    "output": "0x000000000000000000000000eaaa41cb2a64b11fe761d41e747c032cdd60cace",
                    "revert": false,
                    "revertMessage": "",
                    "selector": "0xf887ea40",
                    "status": true,
                    "value": "0"
                },
                "nodeType": 0
            },
            "2": {
                "event": {
                    "contract": "0xd0107f213e927289240563cb51e9759c003c4ed9",
                    "decodedLog": {
                        "name": "Approval",
                        "params": [
                            {
                                "name": "owner",
                                "type": "address",
                                "value": "0x86c13eb816970c58649bde636cea3622c9cd4ff2"
                            },
                            {
                                "name": "spender",
                                "type": "address",
                                "value": "0xeaaa41cb2a64b11fe761d41e747c032cdd60cace"
                            },
                            {
                                "decimalAvailable": true,
                                "name": "value",
                                "type": "uint256",
                                "value": "115,792,089,237,316,195,423,570,985,008,687,907,853,269,984,665,640,564,039,457,584,007,913,129,639,935"
                            }
                        ],
                        "signature": "Approval(address,address,uint256)"
                    },
                    "id": 2,
                    "logData": "0xffffffffffffffffffffffffffffffffffffffffffffffffffffffffffffffff",
                    "logDecoded": true,
                    "operation": "EVENT",
                    "revert": false,
                    "status": true,
                    "topics": [
                        "0x8c5be1e5ebec7d5bd14f71427d1e84f3dd0314c0f7b2291e5b200ac8c7c3b925",
                        "0x00000000000000000000000086c13eb816970c58649bde636cea3622c9cd4ff2",
                        "0x000000000000000000000000eaaa41cb2a64b11fe761d41e747c032cdd60cace"
                    ]
                },
                "nodeType": 1
            }
        },
        "gasFlame": [
            {
                "children": [
                    {
                        "children": [
                            {
                                "children": [],
                                "depth": 0,
                                "name": "Initial Gas",
                                "value": 21944
                            },
                            {
                                "children": [
                                    {
                                        "children": [],
                                        "depth": 1,
                                        "name": "router",
                                        "value": 2425
                                    }
                                ],
                                "depth": 0,
                                "name": "Executed Gas",
                                "value": 32432
                            }
                        ],
                        "depth": -1,
                        "name": "Actual Gas Used",
                        "value": 54376
                    },
                    {
                        "children": [],
                        "depth": -1,
                        "name": "Refunded Gas",
                        "value": 0
                    }
                ],
                "depth": -2,
                "name": "Total Gas",
                "value": 54376
            }
        ],
        "isConfirmed": true,
        "mainTrace": [
            {
                "children": [
                    {
                        "children": [
                            {
                                "children": [],
                                "depth": 1,
                                "id": 1,
                                "order": 1
                            },
                            {
                                "children": [],
                                "depth": 1,
                                "id": 2,
                                "order": 2
                            }
                        ],
                        "depth": 0,
                        "id": 0,
                        "order": 0
                    }
                ],
                "depth": -1,
                "id": -1,
                "order": -1
            }
        ],
        "mainTraceNodeCount": 3,
        "parentIdMap": {
            "0": -1,
            "1": 0,
            "2": 0
        },
        "tidyTrace": [
            {
                "children": [
                    {
                        "children": [
                            {
                                "children": [],
                                "depth": 1,
                                "id": 2,
                                "order": 2
                            }
                        ],
                        "depth": 0,
                        "id": 0,
                        "order": 0
                    }
                ],
                "depth": -1,
                "id": -1,
                "order": -1
            }
        ],
        "tidyTraceNodeCount": 2
    },
    "state_change": {
        "stateChanges": [
            {
                "address": "0xd0107f213e927289240563cb51e9759c003c4ed9",
                "erc": "ERC-20",
                "slots": [
                    {
                        "current": "0xffffffffffffffffffffffffffffffffffffffffffffffffffffffffffffffff",
                        "key": "0x735efef4e8e982d7fd9182230d6b53424f37641cbc6ded5419d2837b8b227417",
                        "prev": "0x0000000000000000000000000000000000000000000000000000000000000000"
                    }
                ],
                "storageVariables": [
                    {
                        "name": "_allowances",
                        "type": "mapping(address => mapping(address => uint256))",
                        "value": {
                            "pairs": [
                                {
                                    "key": "0x86c13eb816970c58649bde636cea3622c9cd4ff2",
                                    "value": {
                                        "pairs": [
                                            {
                                                "key": "0xeaaa41cb2a64b11fe761d41e747c032cdd60cace",
                                                "value": {
                                                    "current": "115792089237316195423570985008687907853269984665640564039457584007913129639935",
                                                    "prev": "0",
                                                    "typeTag": 1
                                                }
                                            }
                                        ],
                                        "typeTag": 4
                                    }
                                }
                            ],
                            "typeTag": 4
                        }
                    }
                ]
            }
        ]
    }
}