{
    "balance_change": {
        "balanceChanges": [
            {
                "account": "0x8373dcec26ba05e866b093718ef83e4c464c8b40",
                "assets": [
                    {
                        "address": "0xd2bd6415db70a0f0b26c973b15b63bac74f5c9c6",
                        "amount": "2,000",
                        "iconUrl": "",
                        "isERC1155": false,
                        "isERC721": false,
                        "sign": false,
                        "value": ""
                    }
                ]
            },
            {
                "account": "0x6cae48fd94358e27b1714d3820dc93a561c57224",
                "assets": [
                    {
                        "address": "0xd2bd6415db70a0f0b26c973b15b63bac74f5c9c6",
                        "amount": "2,000",
                        "iconUrl": "",
                        "isERC1155": false,
                        "isERC721": false,
                        "sign": true,
                        "value": ""
                    }
                ]
            }
        ]
    },
    "profile": {
        "basic_info": {
            "baseFee": "",
            "blockNumber": 7694379,
            "callData": "0xa9059cbb0000000000000000000000006cae48fd94358e27b1714d3820dc93a561c5722400000000000000000000000000000000000000000000006c6b935b8bbd400000",
            "debugEnable": true,
            "errorInfo": "",
            "eventCount": 1,
            "feeRecipient": "0x04668ec2f57cc15c381b461b9fedab5d451c8f7f",
            "formatValue": "0",
            "gasLimit": 60000,
            "gasPrice": "1",
            "gasUsed": 52475,
            "intTxnCount": 0,
            "internalRevert": false,
            "internalRevertMessage": "",
            "isContractCreation": false,
            "isFlashloan": false,
            "maxFee": "",
            "nonce": 1,
            "overwritedBlockNumber": -1,
            "priorityFee": "",
            "receiver": "0xd2bd6415db70a0f0b26c973b15b63bac74f5c9c6",
            "revertMessage": "",
            "sender": "0x8373dcec26ba05e866b093718ef83e4c464c8b40",
            "simulationEnable": true,
            "sourceTxnHash": "0x3b86a40732b0100d7d9df72248b10c37dc80edeca6aab9f29113a5308577cf6b",
            "status": true,
            "timestamp": "2019-05-04T12:00:31Z",
            "transactionFee": "0.000052475",
            "txnHash": "0x3b86a40732b0100d7d9df72248b10c37dc80edeca6aab9f29113a5308577cf6b",
            "txnIndex": 122,
            "type": 0,
            "value": "0"
        },
        "fund_flow": [
            {
                "amount": "2,000",
                "from": "0x8373dcec26ba05e866b093718ef83e4c464c8b40",
                "id": 1,
                "isERC1155": false,
                "isERC721": false,
                "isReverted": false,
                "order": 1,
                "to": "0x6cae48fd94358e27b1714d3820dc93a561c57224",
                "token": "0xd2bd6415db70a0f0b26c973b15b63bac74f5c9c6"
            }
        ],
        "token_infos": [
            {
                "address": "0xeeeeeeeeeeeeeeeeeeeeeeeeeeeeeeeeeeeeeeee",
                "decimals": 18
            },
            {
                "address": "0xc02aaa39b223fe8d0a0e5c4f27ead9083c756cc2",
                "decimals": 18
            },
            {
                "address": "0xd2bd6415db70a0f0b26c973b15b63bac74f5c9c6",
                "decimals": 18
            }
        ]
    },
    "address_label": {
        "labels": [
            {
                "address": "0xd2bd6415db70a0f0b26c973b15b63bac74f5c9c6",
                "label": "Blockchain To Application (BTA)"
            },
            {
                "address": "0x0000000000000000000000000000000000000001",
                "label": "Precompiled"
            },
            {
                "address": "0x0000000000000000000000000000000000000002",
                "label": "Precompiled"
            },
            {
                "address": "0x0000000000000000000000000000000000000003",
                "label": "Precompiled"
            },
            {
                "address": "0x0000000000000000000000000000000000000004",
                "label": "Precompiled"
            },
            {
                "address": "0xeeeeeeeeeeeeeeeeeeeeeeeeeeeeeeeeeeeeeeee",
                "label": "Ether"
            }
        ]
    },
    "trace": {
        "accountLabels": null,
        "dataMap": {
            "-1": {
                "invocation": {
                    "address": "0x8373dcec26ba05e866b093718ef83e4c464c8b40",
                    "callData": "",
                    "decodedMethod": null,
                    "errorInfo": "",
                    "fromAddress": "",
                    "gasUsed": 0,
                    "id": -1,
                    "methodDecoded": false,
                    "operation": "",
                    "output": "",
                    "revert": false,
                    "revertMessage": "",
                    "selector": "",
                    "status": false,
                    "value": ""
                },
                "nodeType": 0
            },
            "0": {
                "invocation": {
                    "address": "0xd2bd6415db70a0f0b26c973b15b63bac74f5c9c6",
                    "callData": "0x0000000000000000000000006cae48fd94358e27b1714d3820dc93a561c5722400000000000000000000000000000000000000000000006c6b935b8bbd400000",
                    "decodedMethod": {
                        "callParams": [
                            {
                                "name": "_to",
                                "type": "address",
                                "value": "0x6cae48fd94358e27b1714d3820dc93a561c57224"
                            },
                            {
                                "decimalAvailable": true,
                                "name": "_value",
                                "type": "uint256",
                                "value": "2,000,000,000,000,000,000,000"
                            }
                        ],
                        "constructorArguments": "",
                        "name": "transfer",
                        "returnParams": [
                            {
                                "name": "",
                                "type": "bool",
                                "value": true
                            }
                        ],
                        "signature": "transfer(address,uint256)"
                    },
                    "errorInfo": "",
                    "fromAddress": "0x8373dcec26ba05e866b093718ef83e4c464c8b40",
                    "gasUsed": 52475,
                    "id": 0,
                    "methodDecoded": true,
                    "operation": "CALL",
                    "output": "0x0000000000000000000000000000000000000000000000000000000000000001",
                    "revert": false,
                    "revertMessage": "",
                    "selector": "0xa9059cbb",
                    "status": true,
                    "value": "0"
                },
                "nodeType": 0
            },
            "1": {
                "event": {
                    "contract": "0xd2bd6415db70a0f0b26c973b15b63bac74f5c9c6",
                    "decodedLog": {
                        "name": "Transfer",
                        "params": [
                            {
                                "name": "from",
                                "type": "address",
                                "value": "0x8373dcec26ba05e866b093718ef83e4c464c8b40"
                            },
                            {
                                "name": "to",
                                "type": "address",
                                "value": "0x6cae48fd94358e27b1714d3820dc93a561c57224"
                            },
                            {
                                "decimalAvailable": true,
                                "name": "value",
                                "type": "uint256",
                                "value": "2,000,000,000,000,000,000,000"
                            }
                        ],
                        "signature": "Transfer(address,address,uint256)"
                    },
                    "id": 1,
                    "logData": "0x00000000000000000000000000000000000000000000006c6b935b8bbd400000",
                    "logDecoded": true,
                    "operation": "EVENT",
                    "revert": false,
                    "status": true,
                    "topics": [
                        "0xddf252ad1be2c89b69c2b068fc378daa952ba7f163c4a11628f55a4df523b3ef",
                        "0x0000000000000000000000008373dcec26ba05e866b093718ef83e4c464c8b40",
                        "0x0000000000000000000000006cae48fd94358e27b1714d3820dc93a561c57224"
                    ]
                },
                "nodeType": 1
            }
        },
        "gasFlame": [
            {
                "children": [
                    {
                        "children": [
                            {
                                "children": [],
                                "depth": 0,
                                "name": "Initial Gas",
                                "value": 23256
                            },
                            {
                                "children": [],
                                "depth": 0,
                                "name": "Executed Gas",
                                "value": 29219
                            }
                        ],
                        "depth": -1,
                        "name": "Actual Gas Used",
                        "value": 52475
                    },
                    {
                        "children": [],
                        "depth": -1,
                        "name": "Refunded Gas",
                        "value": 0
                    }
                ],
                "depth": -2,
                "name": "Total Gas",
                "value": 52475
            }
        ],
        "isConfirmed": true,
        "mainTrace": [
            {
                "children": [
                    {
                        "children": [
                            {
                                "children": [],
                                "depth": 1,
                                "id": 1,
                                "order": 1
                            }
                        ],
                        "depth": 0,
                        "id": 0,
                        "order": 0
                    }
                ],
                "depth": -1,
                "id": -1,
                "order": -1
            }
        ],
        "mainTraceNodeCount": 2,
        "parentIdMap": {
            "0": -1,
            "1": 0
        },
        "tidyTrace": [
            {
                "children": [
                    {
                        "children": [
                            {
                                "children": [],
                                "depth": 1,
                                "id": 1,
                                "order": 1
                            }
                        ],
                        "depth": 0,
                        "id": 0,
                        "order": 0
                    }
                ],
                "depth": -1,
                "id": -1,
                "order": -1
            }
        ],
        "tidyTraceNodeCount": 2
    },
    "state_change": {
        "stateChanges": [
            {
                "address": "0xd2bd6415db70a0f0b26c973b15b63bac74f5c9c6",
                "erc": "ERC-20",
                "slots": [
                    {
                        "current": "0x0000000000000000000000000000000000000000000000821ab0d44149800000",
                        "key": "0xf7e6dde6a03f866a8e93ea87837c0f66979bf0a68ba91eadbe434214f2c16c04",
                        "prev": "0x0000000000000000000000000000000000000000000000ee86442fcd06c00000"
                    },
                    {
                        "current": "0x00000000000000000000000000000000000000000000006c6b935b8bbd400000",
                        "key": "0x935e6b2a989a7e341baaf8fba05428ea325ff099f445e2a5ca00e2e20e4032fc",
                        "prev": "0x0000000000000000000000000000000000000000000000000000000000000000"
                    }
                ],
                "storageVariables": [
                    {
                        "name": "balances",
                        "type": "mapping(address => uint256)",
                        "value": {
                            "pairs": [
                                {
                                    "key": "0x6cae48fd94358e27b1714d3820dc93a561c57224",
                                    "value": {
                                        "current": "2000000000000000000000",
                                        "prev": "0",
                                        "typeTag": 1
                                    }
                                },
                                {
                                    "key": "0x8373dcec26ba05e866b093718ef83e4c464c8b40",
                                    "value": {
                                        "current": "2400000000000000000000",
                                        "prev": "4400000000000000000000",
                                        "typeTag": 1
                                    }
                                }
                            ],
                            "typeTag": 4
                        }
                    }
                ]
            }
        ]
    }
}