{
    "balance_change": {
        "balanceChanges": [
            {
                "account": "0xceb1d2d9c218f1f798cca82722fee1816111d31f",
                "assets": [
                    {
                        "address": "0x3b484b82567a09e2588a13d54d032153f0c0aee0",
                        "amount": "511,318,916.3611",
                        "iconUrl": "",
                        "isERC1155": false,
                        "isERC721": false,
                        "sign": true,
                        "value": "543.4792422"
                    }
                ]
            },
            {
                "account": "0x0000000000000000000000000000000000000000",
                "assets": [
                    {
                        "address": "0x3b484b82567a09e2588a13d54d032153f0c0aee0",
                        "amount": "511,318,916.3611",
                        "iconUrl": "",
                        "isERC1155": false,
                        "isERC721": false,
                        "sign": false,
                        "value": "543.4792422"
                    }
                ]
            }
        ]
    },
    "profile": {
        "basic_info": {
            "baseFee": "73.948416419",
            "blockNumber": 13868963,
            "callData": "0xabf2ebd81c0000000000000000000000000000000000000001a6f3fdff61877b47f4c000b5f0371bd907487906e00aa1858159e2e6d0b8fb3cdbcc8bdb664a9193d47fbb759bf92c6bf5095de2bd4bb5ae70edd1a65fda3360577c1f6483b559150daa5f",
            "debugEnable": true,
            "errorInfo": "",
            "eventCount": 1,
            "feeRecipient": "0x45a36a8e118c37e4c47ef4ab827a7c9e579e11e2",
            "formatValue": "0",
            "gasLimit": 56335,
            "gasPrice": "75.448416419",
            "gasUsed": 56335,
            "intTxnCount": 1,
            "internalRevert": false,
            "internalRevertMessage": "",
            "isContractCreation": false,
            "isFlashloan": false,
            "maxFee": "91.890027075",
            "nonce": 349,
            "overwritedBlockNumber": -1,
            "priorityFee": "1.5",
            "receiver": "0x3b484b82567a09e2588a13d54d032153f0c0aee0",
            "revertMessage": "",
            "sender": "0xceb1d2d9c218f1f798cca82722fee1816111d31f",
            "simulationEnable": true,
            "sourceTxnHash": "0x3b4639a41f932b4f083b2ebb5fda0ffadd404341c713abfb63984ee641954edf",
            "status": true,
            "timestamp": "2021-12-24T16:25:34Z",
            "transactionFee": "0.004250386538964365",
            "txnHash": "0x3b4639a41f932b4f083b2ebb5fda0ffadd404341c713abfb63984ee641954edf",
            "txnIndex": 143,
            "type": 2,
            "value": "0"
        },
        "fund_flow": [
            {
                "amount": "511,318,916.3611",
                "from": "0x0000000000000000000000000000000000000000",
                "id": 1,
                "isERC1155": false,
                "isERC721": false,
                "isReverted": false,
                "order": 1,
                "to": "0xceb1d2d9c218f1f798cca82722fee1816111d31f",
                "token": "0x3b484b82567a09e2588a13d54d032153f0c0aee0"
            }
        ],
        "token_infos": [
            {
                "address": "0x3b484b82567a09e2588a13d54d032153f0c0aee0",
                "decimals": 18
            },
            {
                "address": "0xc02aaa39b223fe8d0a0e5c4f27ead9083c756cc2",
                "decimals": 18
            },
            {
                "address": "0xeeeeeeeeeeeeeeeeeeeeeeeeeeeeeeeeeeeeeeee",
                "decimals": 18
            }
        ]
    },
    "address_label": {
        "labels": [
            {
                "address": "0x3b484b82567a09e2588a13d54d032153f0c0aee0",
                "label": "The OpenDAO: SOS Token"
            },
            {
                "address": "0x0000000000000000000000000000000000000001",
                "label": "Precompiled"
            },
            {
                "address": "0x0000000000000000000000000000000000000002",
                "label": "Precompiled"
            },
            {
                "address": "0x0000000000000000000000000000000000000003",
                "label": "Precompiled"
            },
            {
                "address": "0x0000000000000000000000000000000000000004",
                "label": "Precompiled"
            },
            {
                "address": "0xeeeeeeeeeeeeeeeeeeeeeeeeeeeeeeeeeeeeeeee",
                "label": "Ether"
            }
        ]
    },
    "trace": {
        "accountLabels": null,
        "dataMap": {
            "-1": {
                "invocation": {
                    "address": "0xceb1d2d9c218f1f798cca82722fee1816111d31f",
                    "callData": "",
                    "decodedMethod": null,
                    "errorInfo": "",
                    "fromAddress": "",
                    "gasUsed": 0,
                    "id": -1,
                    "methodDecoded": false,
                    "operation": "",
                    "output": "",
                    "revert": false,
                    "revertMessage": "",
                    "selector": "",
                    "status": false,
                    "value": ""
                },
                "nodeType": 0
            },
            "0": {
                "invocation": {
                    "address": "0x3b484b82567a09e2588a13d54d032153f0c0aee0",
                    "callData": "0x1c0000000000000000000000000000000000000001a6f3fdff61877b47f4c000b5f0371bd907487906e00aa1858159e2e6d0b8fb3cdbcc8bdb664a9193d47fbb759bf92c6bf5095de2bd4bb5ae70edd1a65fda3360577c1f6483b559150daa5f",
                    "decodedMethod": {
                        "callParams": [
                            {
                                "name": "amountV",
                                "type": "uint256",
                                "value": "12,664,759,760,331,458,874,453,076,485,325,239,921,451,404,572,804,948,010,732,034,350,865,498,554,368"
                            },
                            {
                                "name": "r",
                                "type": "bytes32",
                                "value": "0xb5f0371bd907487906e00aa1858159e2e6d0b8fb3cdbcc8bdb664a9193d47fbb"
                            },
                            {
                                "name": "s",
                                "type": "bytes32",
                                "value": "0x759bf92c6bf5095de2bd4bb5ae70edd1a65fda3360577c1f6483b559150daa5f"
                            }
                        ],
                        "constructorArguments": "",
                        "name": "claim",
                        "returnParams": [],
                        "signature": "claim(uint256,bytes32,bytes32)"
                    },
                    "errorInfo": "",
                    "fromAddress": "0xceb1d2d9c218f1f798cca82722fee1816111d31f",
                    "gasUsed": 56335,
                    "id": 0,
                    "methodDecoded": true,
                    "operation": "CALL",
                    "output": "",
                    "revert": false,
                    "revertMessage": "",
                    "selector": "0xabf2ebd8",
                    "status": true,
                    "value": "0"
                },
                "nodeType": 0
            },
            "1": {
                "invocation": {
                    "address": "0x0000000000000000000000000000000000000001",
                    "callData": "0x6297c827f8761eaf6eb434e8260985777f3b536dffb91b4e7a60f2f0000000000000000000000000000000000000000000000000000000000000001cb5f0371bd907487906e00aa1858159e2e6d0b8fb3cdbcc8bdb664a9193d47fbb759bf92c6bf5095de2bd4bb5ae70edd1a65fda3360577c1f6483b559150daa5f",
                    "decodedMethod": {
                        "callParams": [
                            {
                                "name": "hash",
                                "type": "bytes32",
                                "value": "0xc600f8736297c827f8761eaf6eb434e8260985777f3b536dffb91b4e7a60f2f0"
                            },
                            {
                                "name": "v",
                                "type": "uint256",
                                "value": "28"
                            },
                            {
                                "name": "r",
                                "type": "bytes32",
                                "value": "0xb5f0371bd907487906e00aa1858159e2e6d0b8fb3cdbcc8bdb664a9193d47fbb"
                            },
                            {
                                "name": "s",
                                "type": "bytes32",
                                "value": "0x759bf92c6bf5095de2bd4bb5ae70edd1a65fda3360577c1f6483b559150daa5f"
                            }
                        ],
                        "constructorArguments": "",
                        "name": "ecrecover",
                        "returnParams": [
                            {
                                "name": "",
                                "type": "address",
                                "value": "0xa141df28368d444c10a684bc40f23d2e4a8fa3be"
                            }
                        ],
                        "signature": "ecrecover(bytes32,uint256,bytes32,bytes32)"
                    },
                    "errorInfo": "",
                    "fromAddress": "0x3b484b82567a09e2588a13d54d032153f0c0aee0",
                    "gasUsed": 3000,
                    "id": 1,
                    "methodDecoded": true,
                    "operation": "STATICCALL",
                    "output": "0x000000000000000000000000a141df28368d444c10a684bc40f23d2e4a8fa3be",
                    "revert": false,
                    "revertMessage": "",
                    "selector": "0xc600f873",
                    "status": true,
                    "value": "0"
                },
                "nodeType": 0
            },
            "2": {
                "event": {
                    "contract": "0x3b484b82567a09e2588a13d54d032153f0c0aee0",
                    "decodedLog": {
                        "name": "Transfer",
                        "params": [
                            {
                                "name": "from",
                                "type": "address",
                                "value": "0x0000000000000000000000000000000000000000"
                            },
                            {
                                "name": "to",
                                "type": "address",
                                "value": "0xceb1d2d9c218f1f798cca82722fee1816111d31f"
                            },
                            {
                                "decimalAvailable": true,
                                "name": "value",
                                "type": "uint256",
                                "value": "511,318,916,361,100,000,000,000,000"
                            }
                        ],
                        "signature": "Transfer(address,address,uint256)"
                    },
                    "id": 2,
                    "logData": "0x000000000000000000000000000000000000000001a6f3fdff61877b47f4c000",
                    "logDecoded": true,
                    "operation": "EVENT",
                    "revert": false,
                    "status": true,
                    "topics": [
                        "0xddf252ad1be2c89b69c2b068fc378daa952ba7f163c4a11628f55a4df523b3ef",
                        "0x0000000000000000000000000000000000000000000000000000000000000000",
                        "0x000000000000000000000000ceb1d2d9c218f1f798cca82722fee1816111d31f"
                    ]
                },
                "nodeType": 1
            }
        },
        "gasFlame": [
            {
                "children": [
                    {
                        "children": [
                            {
                                "children": [],
                                "depth": 0,
                                "name": "Initial Gas",
                                "value": 22360
                            },
                            {
                                "children": [
                                    {
                                        "children": [],
                                        "depth": 1,
                                        "name": "ecrecover",
                                        "value": 3000
                                    }
                                ],
                                "depth": 0,
                                "name": "Executed Gas",
                                "value": 33975
                            }
                        ],
                        "depth": -1,
                        "name": "Actual Gas Used",
                        "value": 56335
                    },
                    {
                        "children": [],
                        "depth": -1,
                        "name": "Refunded Gas",
                        "value": 0
                    }
                ],
                "depth": -2,
                "name": "Total Gas",
                "value": 56335
            }
        ],
        "isConfirmed": true,
        "mainTrace": [
            {
                "children": [
                    {
                        "children": [
                            {
                                "children": [],
                                "depth": 1,
                                "id": 1,
                                "order": 1
                            },
                            {
                                "children": [],
                                "depth": 1,
                                "id": 2,
                                "order": 2
                            }
                        ],
                        "depth": 0,
                        "id": 0,
                        "order": 0
                    }
                ],
                "depth": -1,
                "id": -1,
                "order": -1
            }
        ],
        "mainTraceNodeCount": 3,
        "parentIdMap": {
            "0": -1,
            "1": 0,
            "2": 0
        },
        "tidyTrace": [
            {
                "children": [
                    {
                        "children": [
                            {
                                "children": [],
                                "depth": 1,
                                "id": 2,
                                "order": 2
                            }
                        ],
                        "depth": 0,
                        "id": 0,
                        "order": 0
                    }
                ],
                "depth": -1,
                "id": -1,
                "order": -1
            }
        ],
        "tidyTraceNodeCount": 2
    },
    "state_change": {
        "stateChanges": [
            {
                "address": "0x3b484b82567a09e2588a13d54d032153f0c0aee0",
                "erc": "ERC-20",
                "slots": [
                    {
                        "current": "0x00000000000000000000000000000000000002f0309a9ac5bb016ad399390000",
                        "key": "0x0000000000000000000000000000000000000000000000000000000000000002",
                        "prev": "0x00000000000000000000000000000000000002f02ef3a6c7bb9fe35851444000"
                    },
                    {
                        "current": "0x0000000000000000000000000000000000000001a6f3fdff61877b47f4c00001",
                        "key": "0xf417617d17133d38ac519daf3f115d242a597e9336f8b49f68940704bb62a50d",
                        "prev": "0x0000000000000000000000000000000000000000000000000000000000000000"
                    }
                ],
                "storageVariables": [
                    {
                        "name": "_totalSupply",
                        "type": "uint256",
                        "value": {
                            "current": "59594620396666349200000000000000",
                            "prev": "59594109077749988100000000000000",
                            "typeTag": 1
                        }
                    },
                    {
                        "name": "_balances",
                        "type": "mapping(address => struct ERC20.MintBalance)",
                        "value": {
                            "pairs": [
                                {
                                    "key": "0xceb1d2d9c218f1f798cca82722fee1816111d31f",
                                    "value": {
                                        "fields": [
                                            {
                                                "name": "minted",
                                                "type": "uint8",
                                                "value": {
                                                    "current": "1",
                                                    "prev": "0",
                                                    "typeTag": 1
                                                }
                                            },
                                            {
                                                "name": "balance",
                                                "type": "uint248",
                                                "value": {
                                                    "current": "511318916361100000000000000",
                                                    "prev": "0",
                                                    "typeTag": 1
                                                }
                                            }
                                        ],
                                        "typeTag": 3
                                    }
                                }
                            ],
                            "typeTag": 4
                        }
                    }
                ]
            }
        ]
    }
}