{
    "balance_change": {
        "balanceChanges": [
            {
                "account": "0xe1af840a5a1cb1efdf608a97aa632f4aa39ed199",
                "assets": [
                    {
                        "address": "0xeeeeeeeeeeeeeeeeeeeeeeeeeeeeeeeeeeeeeeee",
                        "amount": "1.0099",
                        "iconUrl": "https://assets.blocksec.com/image/1663669189317-3.png",
                        "isERC1155": false,
                        "isERC721": false,
                        "sign": true,
                        "value": ""
                    }
                ]
            },
            {
                "account": "0xed3f5352ba43f85a5e1e2218f5085ce6106a214f",
                "assets": [
                    {
                        "address": "0xeeeeeeeeeeeeeeeeeeeeeeeeeeeeeeeeeeeeeeee",
                        "amount": "1.0099",
                        "iconUrl": "https://assets.blocksec.com/image/1663669189317-3.png",
                        "isERC1155": false,
                        "isERC721": false,
                        "sign": false,
                        "value": ""
                    }
                ]
            }
        ]
    },
    "profile": {
        "basic_info": {
            "baseFee": "",
            "blockNumber": 3624662,
            "callData": "0xb61d27f6000000000000000000000000e1af840a5a1cb1efdf608a97aa632f4aa39ed1990000000000000000000000000000000000000000000000000e03e2b306aac000000000000000000000000000000000000000000000000000000000000000006000000000000000000000000000000000000000000000000000000000000000000000000000000000000000000000000000000000000000000000000000000000",
            "debugEnable": true,
            "errorInfo": "",
            "eventCount": 1,
            "feeRecipient": "0x52bc44d5378309ee2abf1539bf71de1b7d7be3b5",
            "formatValue": "0",
            "gasLimit": 151335,
            "gasPrice": "20",
            "gasUsed": 51335,
            "intTxnCount": 1,
            "internalRevert": false,
            "internalRevertMessage": "",
            "isContractCreation": false,
            "isFlashloan": false,
            "maxFee": "",
            "nonce": 2168,
            "overwritedBlockNumber": -1,
            "priorityFee": "",
            "receiver": "0xed3f5352ba43f85a5e1e2218f5085ce6106a214f",
            "revertMessage": "",
            "sender": "0xe1af840a5a1cb1efdf608a97aa632f4aa39ed199",
            "simulationEnable": true,
            "sourceTxnHash": "0x3b0ead7e6f4af7b2bfcf9717f2405a3ef8cd422c43a0f3a2dbf8f72108223603",
            "status": true,
            "timestamp": "2017-04-30T05:15:31Z",
            "transactionFee": "0.0010267",
            "txnHash": "0x3b0ead7e6f4af7b2bfcf9717f2405a3ef8cd422c43a0f3a2dbf8f72108223603",
            "txnIndex": 2,
            "type": 0,
            "value": "0"
        },
        "fund_flow": [
            {
                "amount": "1.0099",
                "from": "0xed3f5352ba43f85a5e1e2218f5085ce6106a214f",
                "id": 1,
                "isERC1155": false,
                "isERC721": false,
                "isReverted": false,
                "order": 1,
                "to": "0xe1af840a5a1cb1efdf608a97aa632f4aa39ed199",
                "token": "0xeeeeeeeeeeeeeeeeeeeeeeeeeeeeeeeeeeeeeeee"
            }
        ],
        "token_infos": [
            {
                "address": "0xc02aaa39b223fe8d0a0e5c4f27ead9083c756cc2",
                "decimals": 18
            },
            {
                "address": "0xeeeeeeeeeeeeeeeeeeeeeeeeeeeeeeeeeeeeeeee",
                "decimals": 18
            }
        ]
    },
    "address_label": {
        "labels": [
            {
                "address": "0x0000000000000000000000000000000000000003",
                "label": "Precompiled"
            },
            {
                "address": "0x0000000000000000000000000000000000000004",
                "label": "Precompiled"
            },
            {
                "address": "0xeeeeeeeeeeeeeeeeeeeeeeeeeeeeeeeeeeeeeeee",
                "label": "Ether"
            },
            {
                "address": "0xed3f5352ba43f85a5e1e2218f5085ce6106a214f",
                "label": "Wallet"
            },
            {
                "address": "0x0000000000000000000000000000000000000001",
                "label": "Precompiled"
            },
            {
                "address": "0x0000000000000000000000000000000000000002",
                "label": "Precompiled"
            }
        ]
    },
    "trace": {
        "accountLabels": null,
        "dataMap": {
            "-1": {
                "invocation": {
                    "address": "0xe1af840a5a1cb1efdf608a97aa632f4aa39ed199",
                    "callData": "",
                    "decodedMethod": null,
                    "errorInfo": "",
                    "fromAddress": "",
                    "gasUsed": 0,
                    "id": -1,
                    "methodDecoded": false,
                    "operation": "",
                    "output": "",
                    "revert": false,
                    "revertMessage": "",
                    "selector": "",
                    "status": false,
                    "value": ""
                },
                "nodeType": 0
            },
            "0": {
                "invocation": {
                    "address": "0xed3f5352ba43f85a5e1e2218f5085ce6106a214f",
                    "callData": "0x000000000000000000000000e1af840a5a1cb1efdf608a97aa632f4aa39ed1990000000000000000000000000000000000000000000000000e03e2b306aac000000000000000000000000000000000000000000000000000000000000000006000000000000000000000000000000000000000000000000000000000000000000000000000000000000000000000000000000000000000000000000000000000",
                    "decodedMethod": {
                        "callParams": [
                            {
                                "name": "_to",
                                "type": "address",
                                "value": "0xe1af840a5a1cb1efdf608a97aa632f4aa39ed199"
                            },
                            {
                                "name": "_value",
                                "type": "uint256",
                                "value": "1,009,900,000,000,000,000"
                            },
                            {
                                "name": "_data",
                                "type": "bytes",
                                "value": "0x"
                            }
                        ],
                        "constructorArguments": "",
                        "name": "execute",
                        "returnParams": [
                            {
                                "name": "_r",
                                "type": "bytes32",
                                "value": "0x0000000000000000000000000000000000000000000000000000000000000000"
                            }
                        ],
                        "signature": "execute(address,uint256,bytes)"
                    },
                    "errorInfo": "",
                    "fromAddress": "0xe1af840a5a1cb1efdf608a97aa632f4aa39ed199",
                    "gasUsed": 51335,
                    "id": 0,
                    "methodDecoded": true,
                    "operation": "CALL",
                    "output": "0x0000000000000000000000000000000000000000000000000000000000000000",
                    "revert": false,
                    "revertMessage": "",
                    "selector": "0xb61d27f6",
                    "status": true,
                    "value": "0"
                },
                "nodeType": 0
            },
            "1": {
                "event": {
                    "contract": "0xed3f5352ba43f85a5e1e2218f5085ce6106a214f",
                    "decodedLog": {
                        "name": "SingleTransact",
                        "params": [
                            {
                                "name": "owner",
                                "type": "address",
                                "value": "0xe1af840a5a1cb1efdf608a97aa632f4aa39ed199"
                            },
                            {
                                "name": "value",
                                "type": "uint256",
                                "value": "1,009,900,000,000,000,000"
                            },
                            {
                                "name": "to",
                                "type": "address",
                                "value": "0xe1af840a5a1cb1efdf608a97aa632f4aa39ed199"
                            },
                            {
                                "name": "data",
                                "type": "bytes",
                                "value": "0x"
                            }
                        ],
                        "signature": "SingleTransact(address,uint256,address,bytes)"
                    },
                    "id": 1,
                    "logData": "0x000000000000000000000000e1af840a5a1cb1efdf608a97aa632f4aa39ed1990000000000000000000000000000000000000000000000000e03e2b306aac000000000000000000000000000e1af840a5a1cb1efdf608a97aa632f4aa39ed19900000000000000000000000000000000000000000000000000000000000000800000000000000000000000000000000000000000000000000000000000000000",
                    "logDecoded": true,
                    "operation": "EVENT",
                    "revert": false,
                    "status": true,
                    "topics": [
                        "0x92ca3a80853e6663fa31fa10b99225f18d4902939b4c53a9caae9043f6efd004"
                    ]
                },
                "nodeType": 1
            },
            "2": {
                "invocation": {
                    "address": "0xe1af840a5a1cb1efdf608a97aa632f4aa39ed199",
                    "callData": "0x",
                    "decodedMethod": null,
                    "errorInfo": "",
                    "fromAddress": "0xed3f5352ba43f85a5e1e2218f5085ce6106a214f",
                    "gasUsed": 0,
                    "id": 2,
                    "methodDecoded": false,
                    "operation": "CALL",
                    "output": "",
                    "revert": false,
                    "revertMessage": "",
                    "selector": "fallback",
                    "status": true,
                    "value": "1.0099"
                },
                "nodeType": 0
            }
        },
        "gasFlame": [
            {
                "children": [
                    {
                        "children": [
                            {
                                "children": [],
                                "depth": 0,
                                "name": "Initial Gas",
                                "value": 23704
                            },
                            {
                                "children": [
                                    {
                                        "children": [],
                                        "depth": 1,
                                        "name": "fallback",
                                        "value": 0
                                    }
                                ],
                                "depth": 0,
                                "name": "Executed Gas",
                                "value": 42631
                            }
                        ],
                        "depth": -1,
                        "name": "Actual Gas Used",
                        "value": 51335
                    },
                    {
                        "children": [],
                        "depth": -1,
                        "name": "Refunded Gas",
                        "value": 15000
                    }
                ],
                "depth": -2,
                "name": "Total Gas",
                "value": 66335
            }
        ],
        "isConfirmed": true,
        "mainTrace": [
            {
                "children": [
                    {
                        "children": [
                            {
                                "children": [],
                                "depth": 1,
                                "id": 1,
                                "order": 1
                            },
                            {
                                "children": [],
                                "depth": 1,
                                "id": 2,
                                "order": 2
                            }
                        ],
                        "depth": 0,
                        "id": 0,
                        "order": 0
                    }
                ],
                "depth": -1,
                "id": -1,
                "order": -1
            }
        ],
        "mainTraceNodeCount": 3,
        "parentIdMap": {
            "0": -1,
            "1": 0,
            "2": 0
        },
        "tidyTrace": [
            {
                "children": [
                    {
                        "children": [
                            {
                                "children": [],
                                "depth": 1,
                                "id": 1,
                                "order": 1
                            },
                            {
                                "children": [],
                                "depth": 1,
                                "id": 2,
                                "order": 2
                            }
                        ],
                        "depth": 0,
                        "id": 0,
                        "order": 0
                    }
                ],
                "depth": -1,
                "id": -1,
                "order": -1
            }
        ],
        "tidyTraceNodeCount": 3
    },
    "state_change": {
        "stateChanges": [
            {
                "address": "0xed3f5352ba43f85a5e1e2218f5085ce6106a214f",
                "erc": "",
                "slots": [
                    {
                        "current": "0x0000000000000000000000000000000000000000000000000e03e2b306aac000",
                        "key": "0x0000000000000000000000000000000000000000000000000000000000000106",
                        "prev": "0x00000000000000000000000000000000000000000000000067cef5dcd985af80"
                    },
                    {
                        "current": "0x0000000000000000000000000000000000000000000000000000000000004386",
                        "key": "0x0000000000000000000000000000000000000000000000000000000000000107",
                        "prev": "0x0000000000000000000000000000000000000000000000000000000000004385"
                    }
                ],
                "storageVariables": []
            }
        ]
    }
}