{
    "balance_change": {
        "balanceChanges": [
            {
                "account": "0x0000000000000000000000000000000000000000",
                "assets": [
                    {
                        "address": "0x5869223cdee1c521e6e69813d9d694b9a5fc285c",
                        "amount": "1",
                        "iconUrl": "",
                        "isERC1155": true,
                        "isERC721": false,
                        "sign": false,
                        "tokenID": "1",
                        "value": ""
                    }
                ]
            },
            {
                "account": "0xc7b13402c155432ee9f55b929ee1c0456eafa405",
                "assets": [
                    {
                        "address": "0x5869223cdee1c521e6e69813d9d694b9a5fc285c",
                        "amount": "1",
                        "iconUrl": "",
                        "isERC1155": true,
                        "isERC721": false,
                        "sign": true,
                        "tokenID": "1",
                        "value": ""
                    }
                ]
            }
        ]
    },
    "profile": {
        "basic_info": {
            "baseFee": "20.424054403",
            "blockNumber": 17989813,
            "callData": "0x9821de16000000000000000000000000000000000000000000000000000000000000000100000000000000000000000000000000000000000000000000000000000000010000000000000000000000000000000000000000000000000000000000000060000000000000000000000000000000000000000000000000000000000000000accb824c99ee9680dc2624caa836530ac2bd04265a51985536df006b25410f50ee630a84064bda965b34e3ebc43d47672d97777d9f7d237cb04ca4f4f66772dbbe879ac37193bbcbbff0db34c689b03bdf50b74dbdc384bbcdc5a4f5a6b135a178d894d1ca98bd4e41a14911358309ec04e5497e5486f5194a6eecb341a3a1c134644f11cc8f9957844ca20f873ff20d623a83503353cd06cadf696d52907b38e5ff0eba67e2ba18bbe5f93a484634a2c5c18e37ffeb262fb89d830da0c66c68ca2fe389c13106d3a54dc65d43bd1ece76861725d00ce7b33b62388d575c2ea901dda0ee598205dfc8982c3d9a4ca14f7a72449e29fc1b924c74f1774aedf226a9175ed3354677e2e9a6ddd287c31bc714821d52d7818e65016e79d5f07433c1d5790c6f7ee58c663b7615bf8d2241f98c5687d319f27ede3f5db00b64259cda3",
            "debugEnable": true,
            "errorInfo": "",
            "eventCount": 2,
            "feeRecipient": "0x1f9090aae28b8a3dceadf281b0f12828e676c326",
            "formatValue": "0",
            "gasLimit": 135870,
            "gasPrice": "20.524054403",
            "gasUsed": 134280,
            "intTxnCount": 2,
            "internalRevert": false,
            "internalRevertMessage": "",
            "isContractCreation": false,
            "isFlashloan": false,
            "maxFee": "28.779978744",
            "nonce": 0,
            "overwritedBlockNumber": -1,
            "priorityFee": "0.1",
            "receiver": "0x5869223cdee1c521e6e69813d9d694b9a5fc285c",
            "revertMessage": "",
            "sender": "0xc7b13402c155432ee9f55b929ee1c0456eafa405",
            "simulationEnable": true,
            "sourceTxnHash": "0x3baacd40cffe33dd275971586590fadc5bcb256280d837b981731f3d92fd8f00",
            "status": true,
            "timestamp": "2023-08-25T06:06:23Z",
            "transactionFee": "0.00275597002523484",
            "txnHash": "0x3baacd40cffe33dd275971586590fadc5bcb256280d837b981731f3d92fd8f00",
            "txnIndex": 124,
            "type": 2,
            "value": "0"
        },
        "fund_flow": [
            {
                "amount": "1",
                "from": "0x0000000000000000000000000000000000000000",
                "id": 1,
                "isERC1155": true,
                "isERC721": false,
                "isReverted": false,
                "order": 1,
                "to": "0xc7b13402c155432ee9f55b929ee1c0456eafa405",
                "token": "0x5869223cdee1c521e6e69813d9d694b9a5fc285c",
                "tokenID": "1"
            }
        ],
        "token_infos": [
            {
                "address": "0xeeeeeeeeeeeeeeeeeeeeeeeeeeeeeeeeeeeeeeee",
                "decimals": 18
            },
            {
                "address": "0xc02aaa39b223fe8d0a0e5c4f27ead9083c756cc2",
                "decimals": 18
            }
        ]
    },
    "address_label": {
        "labels": [
            {
                "address": "0x0000000000000000000000000000000000000002",
                "label": "Precompiled"
            },
            {
                "address": "0x0000000000000000000000000000000000000003",
                "label": "Precompiled"
            },
            {
                "address": "0x0000000000000000000000000000000000000004",
                "label": "Precompiled"
            },
            {
                "address": "0xeeeeeeeeeeeeeeeeeeeeeeeeeeeeeeeeeeeeeeee",
                "label": "Ether"
            },
            {
                "address": "0x5869223cdee1c521e6e69813d9d694b9a5fc285c",
                "label": "Celeros Racetracks (CRT)"
            },
            {
                "address": "0x000000000000aaeb6d7670e522a718067333cd4e",
                "label": "OperatorFilterRegistry"
            },
            {
                "address": "0x0000000000000000000000000000000000000001",
                "label": "Precompiled"
            }
        ]
    },
    "trace": {
        "accountLabels": null,
        "dataMap": {
            "-1": {
                "invocation": {
                    "address": "0xc7b13402c155432ee9f55b929ee1c0456eafa405",
                    "callData": "",
                    "decodedMethod": null,
                    "errorInfo": "",
                    "fromAddress": "",
                    "gasUsed": 0,
                    "id": -1,
                    "methodDecoded": false,
                    "operation": "",
                    "output": "",
                    "revert": false,
                    "revertMessage": "",
                    "selector": "",
                    "status": false,
                    "value": ""
                },
                "nodeType": 0
            },
            "0": {
                "invocation": {
                    "address": "0x5869223cdee1c521e6e69813d9d694b9a5fc285c",
                    "callData": "0x000000000000000000000000000000000000000000000000000000000000000100000000000000000000000000000000000000000000000000000000000000010000000000000000000000000000000000000000000000000000000000000060000000000000000000000000000000000000000000000000000000000000000accb824c99ee9680dc2624caa836530ac2bd04265a51985536df006b25410f50ee630a84064bda965b34e3ebc43d47672d97777d9f7d237cb04ca4f4f66772dbbe879ac37193bbcbbff0db34c689b03bdf50b74dbdc384bbcdc5a4f5a6b135a178d894d1ca98bd4e41a14911358309ec04e5497e5486f5194a6eecb341a3a1c134644f11cc8f9957844ca20f873ff20d623a83503353cd06cadf696d52907b38e5ff0eba67e2ba18bbe5f93a484634a2c5c18e37ffeb262fb89d830da0c66c68ca2fe389c13106d3a54dc65d43bd1ece76861725d00ce7b33b62388d575c2ea901dda0ee598205dfc8982c3d9a4ca14f7a72449e29fc1b924c74f1774aedf226a9175ed3354677e2e9a6ddd287c31bc714821d52d7818e65016e79d5f07433c1d5790c6f7ee58c663b7615bf8d2241f98c5687d319f27ede3f5db00b64259cda3",
                    "decodedMethod": null,
                    "errorInfo": "",
                    "fromAddress": "0xc7b13402c155432ee9f55b929ee1c0456eafa405",
                    "gasUsed": 134280,
                    "id": 0,
                    "methodDecoded": false,
                    "operation": "CALL",
                    "output": "",
                    "revert": false,
                    "revertMessage": "",
                    "selector": "0x9821de16",
                    "status": true,
                    "value": "0"
                },
                "nodeType": 0
            },
            "1": {
                "invocation": {
                    "address": "0x1d3e86ae94e806c2afbd009c03aa6b462cce62b2",
                    "callData": "0x000000000000000000000000000000000000000000000000000000000000000100000000000000000000000000000000000000000000000000000000000000010000000000000000000000000000000000000000000000000000000000000060000000000000000000000000000000000000000000000000000000000000000accb824c99ee9680dc2624caa836530ac2bd04265a51985536df006b25410f50ee630a84064bda965b34e3ebc43d47672d97777d9f7d237cb04ca4f4f66772dbbe879ac37193bbcbbff0db34c689b03bdf50b74dbdc384bbcdc5a4f5a6b135a178d894d1ca98bd4e41a14911358309ec04e5497e5486f5194a6eecb341a3a1c134644f11cc8f9957844ca20f873ff20d623a83503353cd06cadf696d52907b38e5ff0eba67e2ba18bbe5f93a484634a2c5c18e37ffeb262fb89d830da0c66c68ca2fe389c13106d3a54dc65d43bd1ece76861725d00ce7b33b62388d575c2ea901dda0ee598205dfc8982c3d9a4ca14f7a72449e29fc1b924c74f1774aedf226a9175ed3354677e2e9a6ddd287c31bc714821d52d7818e65016e79d5f07433c1d5790c6f7ee58c663b7615bf8d2241f98c5687d319f27ede3f5db00b64259cda3",
                    "decodedMethod": null,
                    "errorInfo": "",
                    "fromAddress": "0x5869223cdee1c521e6e69813d9d694b9a5fc285c",
                    "gasUsed": 102590,
                    "id": 1,
                    "methodDecoded": false,
                    "operation": "DELEGATECALL",
                    "output": "",
                    "revert": false,
                    "revertMessage": "",
                    "selector": "0x9821de16",
                    "status": true,
                    "value": "0"
                },
                "nodeType": 0
            },
            "2": {
                "event": {
                    "contract": "0x5869223cdee1c521e6e69813d9d694b9a5fc285c",
                    "decodedLog": null,
                    "id": 2,
                    "logData": "0x00000000000000000000000000000000000000000000000000000000000000010000000000000000000000000000000000000000000000000000000000000040000000000000000000000000000000000000000000000000000000000000000accb824c99ee9680dc2624caa836530ac2bd04265a51985536df006b25410f50ee630a84064bda965b34e3ebc43d47672d97777d9f7d237cb04ca4f4f66772dbbe879ac37193bbcbbff0db34c689b03bdf50b74dbdc384bbcdc5a4f5a6b135a178d894d1ca98bd4e41a14911358309ec04e5497e5486f5194a6eecb341a3a1c134644f11cc8f9957844ca20f873ff20d623a83503353cd06cadf696d52907b38e5ff0eba67e2ba18bbe5f93a484634a2c5c18e37ffeb262fb89d830da0c66c68ca2fe389c13106d3a54dc65d43bd1ece76861725d00ce7b33b62388d575c2ea901dda0ee598205dfc8982c3d9a4ca14f7a72449e29fc1b924c74f1774aedf226a9175ed3354677e2e9a6ddd287c31bc714821d52d7818e65016e79d5f07433c1d5790c6f7ee58c663b7615bf8d2241f98c5687d319f27ede3f5db00b64259cda3",
                    "logDecoded": false,
                    "operation": "EVENT",
                    "revert": false,
                    "status": true,
                    "topics": [
                        "0x104aae189f2ea407fd196c1791f740545ea5a25176cd41c190a0122a6149373e",
                        "0x000000000000000000000000c7b13402c155432ee9f55b929ee1c0456eafa405",
                        "0x0000000000000000000000000000000000000000000000000000000000000001",
                        "0x70de8a348fe493d592aa7b8136880b73eac8290eea5649da47a6efd3dfeff2c3"
                    ]
                },
                "nodeType": 1
            },
            "3": {
                "invocation": {
                    "address": "0x000000000000aaeb6d7670e522a718067333cd4e",
                    "callData": "0x0000000000000000000000005869223cdee1c521e6e69813d9d694b9a5fc285c000000000000000000000000c7b13402c155432ee9f55b929ee1c0456eafa405",
                    "decodedMethod": {
                        "callParams": [
                            {
                                "name": "registrant",
                                "type": "address",
                                "value": "0x5869223cdee1c521e6e69813d9d694b9a5fc285c"
                            },
                            {
                                "name": "operator",
                                "type": "address",
                                "value": "0xc7b13402c155432ee9f55b929ee1c0456eafa405"
                            }
                        ],
                        "constructorArguments": "",
                        "name": "isOperatorAllowed",
                        "returnParams": [
                            {
                                "name": "",
                                "type": "bool",
                                "value": true
                            }
                        ],
                        "signature": "isOperatorAllowed(address,address)"
                    },
                    "errorInfo": "",
                    "fromAddress": "0x5869223cdee1c521e6e69813d9d694b9a5fc285c",
                    "gasUsed": 5264,
                    "id": 3,
                    "methodDecoded": true,
                    "operation": "STATICCALL",
                    "output": "0x0000000000000000000000000000000000000000000000000000000000000001",
                    "revert": false,
                    "revertMessage": "",
                    "selector": "0xc6171134",
                    "status": true,
                    "value": "0"
                },
                "nodeType": 0
            },
            "4": {
                "event": {
                    "contract": "0x5869223cdee1c521e6e69813d9d694b9a5fc285c",
                    "decodedLog": {
                        "name": "TransferSingle",
                        "params": [
                            {
                                "name": "operator",
                                "type": "address",
                                "value": "0xc7b13402c155432ee9f55b929ee1c0456eafa405"
                            },
                            {
                                "name": "from",
                                "type": "address",
                                "value": "0x0000000000000000000000000000000000000000"
                            },
                            {
                                "name": "to",
                                "type": "address",
                                "value": "0xc7b13402c155432ee9f55b929ee1c0456eafa405"
                            },
                            {
                                "name": "id",
                                "type": "uint256",
                                "value": "1"
                            },
                            {
                                "name": "value",
                                "type": "uint256",
                                "value": "1"
                            }
                        ],
                        "signature": "TransferSingle(address,address,address,uint256,uint256)"
                    },
                    "id": 4,
                    "logData": "0x00000000000000000000000000000000000000000000000000000000000000010000000000000000000000000000000000000000000000000000000000000001",
                    "logDecoded": true,
                    "operation": "EVENT",
                    "revert": false,
                    "status": true,
                    "topics": [
                        "0xc3d58168c5ae7397731d063d5bbf3d657854427343f4c083240f7aacaa2d0f62",
                        "0x000000000000000000000000c7b13402c155432ee9f55b929ee1c0456eafa405",
                        "0x0000000000000000000000000000000000000000000000000000000000000000",
                        "0x000000000000000000000000c7b13402c155432ee9f55b929ee1c0456eafa405"
                    ]
                },
                "nodeType": 1
            }
        },
        "gasFlame": [
            {
                "children": [
                    {
                        "children": [
                            {
                                "children": [],
                                "depth": 0,
                                "name": "Initial Gas",
                                "value": 26720
                            },
                            {
                                "children": [
                                    {
                                        "children": [
                                            {
                                                "children": [],
                                                "depth": 2,
                                                "name": "isOperatorAllowed",
                                                "value": 5264
                                            }
                                        ],
                                        "depth": 1,
                                        "name": "0x9821de16",
                                        "value": 102590
                                    }
                                ],
                                "depth": 0,
                                "name": "Executed Gas",
                                "value": 107560
                            }
                        ],
                        "depth": -1,
                        "name": "Actual Gas Used",
                        "value": 134280
                    },
                    {
                        "children": [],
                        "depth": -1,
                        "name": "Refunded Gas",
                        "value": 0
                    }
                ],
                "depth": -2,
                "name": "Total Gas",
                "value": 134280
            }
        ],
        "isConfirmed": true,
        "mainTrace": [
            {
                "children": [
                    {
                        "children": [
                            {
                                "children": [
                                    {
                                        "children": [],
                                        "depth": 2,
                                        "id": 2,
                                        "order": 2
                                    },
                                    {
                                        "children": [],
                                        "depth": 2,
                                        "id": 3,
                                        "order": 3
                                    },
                                    {
                                        "children": [],
                                        "depth": 2,
                                        "id": 4,
                                        "order": 4
                                    }
                                ],
                                "depth": 1,
                                "id": 1,
                                "order": 1
                            }
                        ],
                        "depth": 0,
                        "id": 0,
                        "order": 0
                    }
                ],
                "depth": -1,
                "id": -1,
                "order": -1
            }
        ],
        "mainTraceNodeCount": 5,
        "parentIdMap": {
            "0": -1,
            "1": 0,
            "2": 1,
            "3": 1,
            "4": 1
        },
        "tidyTrace": [
            {
                "children": [
                    {
                        "children": [
                            {
                                "children": [
                                    {
                                        "children": [],
                                        "depth": 2,
                                        "id": 2,
                                        "order": 2
                                    },
                                    {
                                        "children": [],
                                        "depth": 2,
                                        "id": 4,
                                        "order": 4
                                    }
                                ],
                                "depth": 1,
                                "id": 1,
                                "order": 1
                            }
                        ],
                        "depth": 0,
                        "id": 0,
                        "order": 0
                    }
                ],
                "depth": -1,
                "id": -1,
                "order": -1
            }
        ],
        "tidyTraceNodeCount": 4
    },
    "state_change": {
        "stateChanges": [
            {
                "address": "0x5869223cdee1c521e6e69813d9d694b9a5fc285c",
                "erc": "",
                "slots": [
                    {
                        "current": "0x0000000000000000000000000000000000000000000000000000000000000001",
                        "key": "0xb28f0bafc8c6b3146b489502f42b2355a57c0929b5b4a65891ccbc0393c68c77",
                        "prev": "0x0000000000000000000000000000000000000000000000000000000000000000"
                    },
                    {
                        "current": "0x00000000000000000000000000000000000000000000000000000000000002fa",
                        "key": "0xe278171178ecf2583e4e9c73c9a18d3ff0f6142f8f9926be1eba7c0b61591f50",
                        "prev": "0x00000000000000000000000000000000000000000000000000000000000002f9"
                    },
                    {
                        "current": "0x0000000000000000000000000000000000000000000000000000000000000001",
                        "key": "0x8dc6b9db360d09216e12a851badeaa65af6206fc2b558511cd723f087ed45aa8",
                        "prev": "0x0000000000000000000000000000000000000000000000000000000000000000"
                    }
                ],
                "storageVariables": []
            }
        ]
    }
}