{
    "balance_change": {
        "balanceChanges": [
            {
                "account": "0x3f0daf1c51eaa140340c627729301c2edbb02dca",
                "assets": [
                    {
                        "address": "0x93e682107d1e9defb0b5ee701c71707a4b2e46bc",
                        "amount": "56.25835411",
                        "iconUrl": "",
                        "isERC1155": false,
                        "isERC721": false,
                        "sign": false,
                        "value": ""
                    }
                ]
            },
            {
                "account": "0xe4c6bb22e3de065e372a12a5a3e8d44802b3c38b",
                "assets": [
                    {
                        "address": "0x93e682107d1e9defb0b5ee701c71707a4b2e46bc",
                        "amount": "56.25835411",
                        "iconUrl": "",
                        "isERC1155": false,
                        "isERC721": false,
                        "sign": true,
                        "value": ""
                    }
                ]
            }
        ]
    },
    "profile": {
        "basic_info": {
            "baseFee": "",
            "blockNumber": 4008773,
            "callData": "0xa9059cbb000000000000000000000000e4c6bb22e3de065e372a12a5a3e8d44802b3c38b000000000000000000000000000000000000000000000000000000014f536f93",
            "debugEnable": true,
            "errorInfo": "",
            "eventCount": 1,
            "feeRecipient": "0x829bd824b016326a401d083b33d092293333a830",
            "formatValue": "0",
            "gasLimit": 100000,
            "gasPrice": "21",
            "gasUsed": 51856,
            "intTxnCount": 0,
            "internalRevert": false,
            "internalRevertMessage": "",
            "isContractCreation": false,
            "isFlashloan": false,
            "maxFee": "",
            "nonce": 22223,
            "overwritedBlockNumber": -1,
            "priorityFee": "",
            "receiver": "0x93e682107d1e9defb0b5ee701c71707a4b2e46bc",
            "revertMessage": "",
            "sender": "0x3f0daf1c51eaa140340c627729301c2edbb02dca",
            "simulationEnable": true,
            "sourceTxnHash": "0x3b16a0ff73be7961c1f8c94400971ac3b524c1d5cc66e728c15f6eb68bdb88fc",
            "status": true,
            "timestamp": "2017-07-11T18:50:42Z",
            "transactionFee": "0.001088976",
            "txnHash": "0x3b16a0ff73be7961c1f8c94400971ac3b524c1d5cc66e728c15f6eb68bdb88fc",
            "txnIndex": 30,
            "type": 0,
            "value": "0"
        },
        "fund_flow": [
            {
                "amount": "56.25835411",
                "from": "0x3f0daf1c51eaa140340c627729301c2edbb02dca",
                "id": 1,
                "isERC1155": false,
                "isERC721": false,
                "isReverted": false,
                "order": 1,
                "to": "0xe4c6bb22e3de065e372a12a5a3e8d44802b3c38b",
                "token": "0x93e682107d1e9defb0b5ee701c71707a4b2e46bc"
            }
        ],
        "token_infos": [
            {
                "address": "0x93e682107d1e9defb0b5ee701c71707a4b2e46bc",
                "decimals": 8
            },
            {
                "address": "0xc02aaa39b223fe8d0a0e5c4f27ead9083c756cc2",
                "decimals": 18
            },
            {
                "address": "0xeeeeeeeeeeeeeeeeeeeeeeeeeeeeeeeeeeeeeeee",
                "decimals": 18
            }
        ]
    },
    "address_label": {
        "labels": [
            {
                "address": "0x0000000000000000000000000000000000000001",
                "label": "Precompiled"
            },
            {
                "address": "0x0000000000000000000000000000000000000002",
                "label": "Precompiled"
            },
            {
                "address": "0x0000000000000000000000000000000000000003",
                "label": "Precompiled"
            },
            {
                "address": "0x0000000000000000000000000000000000000004",
                "label": "Precompiled"
            },
            {
                "address": "0xeeeeeeeeeeeeeeeeeeeeeeeeeeeeeeeeeeeeeeee",
                "label": "Ether"
            },
            {
                "address": "0x93e682107d1e9defb0b5ee701c71707a4b2e46bc",
                "label": "MCAP"
            }
        ]
    },
    "trace": {
        "accountLabels": null,
        "dataMap": {
            "-1": {
                "invocation": {
                    "address": "0x3f0daf1c51eaa140340c627729301c2edbb02dca",
                    "callData": "",
                    "decodedMethod": null,
                    "errorInfo": "",
                    "fromAddress": "",
                    "gasUsed": 0,
                    "id": -1,
                    "methodDecoded": false,
                    "operation": "",
                    "output": "",
                    "revert": false,
                    "revertMessage": "",
                    "selector": "",
                    "status": false,
                    "value": ""
                },
                "nodeType": 0
            },
            "0": {
                "invocation": {
                    "address": "0x93e682107d1e9defb0b5ee701c71707a4b2e46bc",
                    "callData": "0x000000000000000000000000e4c6bb22e3de065e372a12a5a3e8d44802b3c38b000000000000000000000000000000000000000000000000000000014f536f93",
                    "decodedMethod": {
                        "callParams": [
                            {
                                "name": "_to",
                                "type": "address",
                                "value": "0xe4c6bb22e3de065e372a12a5a3e8d44802b3c38b"
                            },
                            {
                                "decimalAvailable": true,
                                "name": "_value",
                                "type": "uint256",
                                "value": "5,625,835,411"
                            }
                        ],
                        "constructorArguments": "",
                        "name": "transfer",
                        "returnParams": [],
                        "signature": "transfer(address,uint256)"
                    },
                    "errorInfo": "",
                    "fromAddress": "0x3f0daf1c51eaa140340c627729301c2edbb02dca",
                    "gasUsed": 51856,
                    "id": 0,
                    "methodDecoded": true,
                    "operation": "CALL",
                    "output": "",
                    "revert": false,
                    "revertMessage": "",
                    "selector": "0xa9059cbb",
                    "status": true,
                    "value": "0"
                },
                "nodeType": 0
            },
            "1": {
                "event": {
                    "contract": "0x93e682107d1e9defb0b5ee701c71707a4b2e46bc",
                    "decodedLog": {
                        "name": "Transfer",
                        "params": [
                            {
                                "name": "from",
                                "type": "address",
                                "value": "0x3f0daf1c51eaa140340c627729301c2edbb02dca"
                            },
                            {
                                "name": "to",
                                "type": "address",
                                "value": "0xe4c6bb22e3de065e372a12a5a3e8d44802b3c38b"
                            },
                            {
                                "decimalAvailable": true,
                                "name": "value",
                                "type": "uint256",
                                "value": "5,625,835,411"
                            }
                        ],
                        "signature": "Transfer(address,address,uint256)"
                    },
                    "id": 1,
                    "logData": "0x000000000000000000000000000000000000000000000000000000014f536f93",
                    "logDecoded": true,
                    "operation": "EVENT",
                    "revert": false,
                    "status": true,
                    "topics": [
                        "0xddf252ad1be2c89b69c2b068fc378daa952ba7f163c4a11628f55a4df523b3ef",
                        "0x0000000000000000000000003f0daf1c51eaa140340c627729301c2edbb02dca",
                        "0x000000000000000000000000e4c6bb22e3de065e372a12a5a3e8d44802b3c38b"
                    ]
                },
                "nodeType": 1
            }
        },
        "gasFlame": [
            {
                "children": [
                    {
                        "children": [
                            {
                                "children": [],
                                "depth": 0,
                                "name": "Initial Gas",
                                "value": 23128
                            },
                            {
                                "children": [],
                                "depth": 0,
                                "name": "Executed Gas",
                                "value": 28728
                            }
                        ],
                        "depth": -1,
                        "name": "Actual Gas Used",
                        "value": 51856
                    },
                    {
                        "children": [],
                        "depth": -1,
                        "name": "Refunded Gas",
                        "value": 0
                    }
                ],
                "depth": -2,
                "name": "Total Gas",
                "value": 51856
            }
        ],
        "isConfirmed": true,
        "mainTrace": [
            {
                "children": [
                    {
                        "children": [
                            {
                                "children": [],
                                "depth": 1,
                                "id": 1,
                                "order": 1
                            }
                        ],
                        "depth": 0,
                        "id": 0,
                        "order": 0
                    }
                ],
                "depth": -1,
                "id": -1,
                "order": -1
            }
        ],
        "mainTraceNodeCount": 2,
        "parentIdMap": {
            "0": -1,
            "1": 0
        },
        "tidyTrace": [
            {
                "children": [
                    {
                        "children": [
                            {
                                "children": [],
                                "depth": 1,
                                "id": 1,
                                "order": 1
                            }
                        ],
                        "depth": 0,
                        "id": 0,
                        "order": 0
                    }
                ],
                "depth": -1,
                "id": -1,
                "order": -1
            }
        ],
        "tidyTraceNodeCount": 2
    },
    "state_change": {
        "stateChanges": [
            {
                "address": "0x93e682107d1e9defb0b5ee701c71707a4b2e46bc",
                "erc": "",
                "slots": [
                    {
                        "current": "0x00000000000000000000000000000000000000000000000000028cec0beac91d",
                        "key": "0xdb233bec67814edf5d6e1f8a3c1b19c09e9ba2b0b7a1a71ebb094ef87b2da84f",
                        "prev": "0x00000000000000000000000000000000000000000000000000028ced5b3e38b0"
                    },
                    {
                        "current": "0x000000000000000000000000000000000000000000000000000000014f536f93",
                        "key": "0x07fde0cd775ef53769a2f2c71490189ab3160777de0efc8fbed5dacba05f8939",
                        "prev": "0x0000000000000000000000000000000000000000000000000000000000000000"
                    }
                ],
                "storageVariables": []
            }
        ]
    }
}