{
    "balance_change": {
        "balanceChanges": [
            {
                "account": "0x1714a5badf44f9aade2e902eb083b80f6d4129a2",
                "assets": [
                    {
                        "address": "0x1f573d6fb3f13d689ff844b4ce37794d79a7ff1c",
                        "amount": "523,590.427327608624486439",
                        "iconUrl": "https://assets.blocksec.com/icon/2134050168d6c4780030be02f0a6ca44fe9e3462a2cefed4fac3abde8839c5b0.png",
                        "isERC1155": false,
                        "isERC721": false,
                        "sign": false,
                        "value": ""
                    }
                ]
            },
            {
                "account": "0xbc5419da03574e0464f4ce09f51227098135af69",
                "assets": [
                    {
                        "address": "0x1f573d6fb3f13d689ff844b4ce37794d79a7ff1c",
                        "amount": "523,590.427327608624486439",
                        "iconUrl": "https://assets.blocksec.com/icon/2134050168d6c4780030be02f0a6ca44fe9e3462a2cefed4fac3abde8839c5b0.png",
                        "isERC1155": false,
                        "isERC721": false,
                        "sign": true,
                        "value": ""
                    }
                ]
            }
        ]
    },
    "profile": {
        "basic_info": {
            "baseFee": "",
            "blockNumber": 10566115,
            "callData": "0xa9059cbb000000000000000000000000bc5419da03574e0464f4ce09f51227098135af69000000000000000000000000000000000000000000006edfe4d9417bc41f9827",
            "debugEnable": true,
            "errorInfo": "",
            "eventCount": 1,
            "feeRecipient": "0xe9b54a47e3f401d37798fc4e22f14b78475c2afc",
            "formatValue": "0",
            "gasLimit": 78948,
            "gasPrice": "76",
            "gasUsed": 37632,
            "intTxnCount": 0,
            "internalRevert": false,
            "internalRevertMessage": "",
            "isContractCreation": false,
            "isFlashloan": false,
            "maxFee": "",
            "nonce": 71,
            "overwritedBlockNumber": -1,
            "priorityFee": "",
            "receiver": "0x1f573d6fb3f13d689ff844b4ce37794d79a7ff1c",
            "revertMessage": "",
            "sender": "0x1714a5badf44f9aade2e902eb083b80f6d4129a2",
            "simulationEnable": true,
            "sourceTxnHash": "0x3be65d4489252f19e9197864b7b0bbe357c90b4b819794817715d5a28eac37c6",
            "status": true,
            "timestamp": "2020-07-31T07:59:26Z",
            "transactionFee": "0.002860032",
            "txnHash": "0x3be65d4489252f19e9197864b7b0bbe357c90b4b819794817715d5a28eac37c6",
            "txnIndex": 181,
            "type": 0,
            "value": "0"
        },
        "fund_flow": [
            {
                "amount": "523,590.427327608624486439",
                "from": "0x1714a5badf44f9aade2e902eb083b80f6d4129a2",
                "id": 1,
                "isERC1155": false,
                "isERC721": false,
                "isReverted": false,
                "order": 1,
                "to": "0xbc5419da03574e0464f4ce09f51227098135af69",
                "token": "0x1f573d6fb3f13d689ff844b4ce37794d79a7ff1c"
            }
        ],
        "token_infos": [
            {
                "address": "0xeeeeeeeeeeeeeeeeeeeeeeeeeeeeeeeeeeeeeeee",
                "decimals": 18
            },
            {
                "address": "0x1f573d6fb3f13d689ff844b4ce37794d79a7ff1c",
                "decimals": 18
            },
            {
                "address": "0xc02aaa39b223fe8d0a0e5c4f27ead9083c756cc2",
                "decimals": 18
            }
        ]
    },
    "address_label": {
        "labels": [
            {
                "address": "0x0000000000000000000000000000000000000002",
                "label": "Precompiled"
            },
            {
                "address": "0x0000000000000000000000000000000000000003",
                "label": "Precompiled"
            },
            {
                "address": "0x0000000000000000000000000000000000000004",
                "label": "Precompiled"
            },
            {
                "address": "0xeeeeeeeeeeeeeeeeeeeeeeeeeeeeeeeeeeeeeeee",
                "label": "Ether"
            },
            {
                "address": "0x1f573d6fb3f13d689ff844b4ce37794d79a7ff1c",
                "label": "Bancor: BNT Token"
            },
            {
                "address": "0xbc5419da03574e0464f4ce09f51227098135af69",
                "label": "Proxy_bc54_af69"
            },
            {
                "address": "0x0000000000000000000000000000000000000001",
                "label": "Precompiled"
            }
        ]
    },
    "trace": {
        "accountLabels": null,
        "dataMap": {
            "-1": {
                "invocation": {
                    "address": "0x1714a5badf44f9aade2e902eb083b80f6d4129a2",
                    "callData": "",
                    "decodedMethod": null,
                    "errorInfo": "",
                    "fromAddress": "",
                    "gasUsed": 0,
                    "id": -1,
                    "methodDecoded": false,
                    "operation": "",
                    "output": "",
                    "revert": false,
                    "revertMessage": "",
                    "selector": "",
                    "status": false,
                    "value": ""
                },
                "nodeType": 0
            },
            "0": {
                "invocation": {
                    "address": "0x1f573d6fb3f13d689ff844b4ce37794d79a7ff1c",
                    "callData": "0x000000000000000000000000bc5419da03574e0464f4ce09f51227098135af69000000000000000000000000000000000000000000006edfe4d9417bc41f9827",
                    "decodedMethod": {
                        "callParams": [
                            {
                                "name": "_to",
                                "type": "address",
                                "value": "0xbc5419da03574e0464f4ce09f51227098135af69"
                            },
                            {
                                "decimalAvailable": true,
                                "name": "_value",
                                "type": "uint256",
                                "value": "523,590,427,327,608,624,486,439"
                            }
                        ],
                        "constructorArguments": "",
                        "name": "transfer",
                        "returnParams": [
                            {
                                "name": "success",
                                "type": "bool",
                                "value": true
                            }
                        ],
                        "signature": "transfer(address,uint256)"
                    },
                    "errorInfo": "",
                    "fromAddress": "0x1714a5badf44f9aade2e902eb083b80f6d4129a2",
                    "gasUsed": 37632,
                    "id": 0,
                    "methodDecoded": true,
                    "operation": "CALL",
                    "output": "0x0000000000000000000000000000000000000000000000000000000000000001",
                    "revert": false,
                    "revertMessage": "",
                    "selector": "0xa9059cbb",
                    "status": true,
                    "value": "0"
                },
                "nodeType": 0
            },
            "1": {
                "event": {
                    "contract": "0x1f573d6fb3f13d689ff844b4ce37794d79a7ff1c",
                    "decodedLog": {
                        "name": "Transfer",
                        "params": [
                            {
                                "name": "_from",
                                "type": "address",
                                "value": "0x1714a5badf44f9aade2e902eb083b80f6d4129a2"
                            },
                            {
                                "name": "_to",
                                "type": "address",
                                "value": "0xbc5419da03574e0464f4ce09f51227098135af69"
                            },
                            {
                                "decimalAvailable": true,
                                "name": "_value",
                                "type": "uint256",
                                "value": "523,590,427,327,608,624,486,439"
                            }
                        ],
                        "signature": "Transfer(address,address,uint256)"
                    },
                    "id": 1,
                    "logData": "0x000000000000000000000000000000000000000000006edfe4d9417bc41f9827",
                    "logDecoded": true,
                    "operation": "EVENT",
                    "revert": false,
                    "status": true,
                    "topics": [
                        "0xddf252ad1be2c89b69c2b068fc378daa952ba7f163c4a11628f55a4df523b3ef",
                        "0x0000000000000000000000001714a5badf44f9aade2e902eb083b80f6d4129a2",
                        "0x000000000000000000000000bc5419da03574e0464f4ce09f51227098135af69"
                    ]
                },
                "nodeType": 1
            }
        },
        "gasFlame": [
            {
                "children": [
                    {
                        "children": [
                            {
                                "children": [],
                                "depth": 0,
                                "name": "Initial Gas",
                                "value": 21680
                            },
                            {
                                "children": [],
                                "depth": 0,
                                "name": "Executed Gas",
                                "value": 30952
                            }
                        ],
                        "depth": -1,
                        "name": "Actual Gas Used",
                        "value": 37632
                    },
                    {
                        "children": [],
                        "depth": -1,
                        "name": "Refunded Gas",
                        "value": 15000
                    }
                ],
                "depth": -2,
                "name": "Total Gas",
                "value": 52632
            }
        ],
        "isConfirmed": true,
        "mainTrace": [
            {
                "children": [
                    {
                        "children": [
                            {
                                "children": [],
                                "depth": 1,
                                "id": 1,
                                "order": 1
                            }
                        ],
                        "depth": 0,
                        "id": 0,
                        "order": 0
                    }
                ],
                "depth": -1,
                "id": -1,
                "order": -1
            }
        ],
        "mainTraceNodeCount": 2,
        "parentIdMap": {
            "0": -1,
            "1": 0
        },
        "tidyTrace": [
            {
                "children": [
                    {
                        "children": [
                            {
                                "children": [],
                                "depth": 1,
                                "id": 1,
                                "order": 1
                            }
                        ],
                        "depth": 0,
                        "id": 0,
                        "order": 0
                    }
                ],
                "depth": -1,
                "id": -1,
                "order": -1
            }
        ],
        "tidyTraceNodeCount": 2
    },
    "state_change": {
        "stateChanges": [
            {
                "address": "0x1f573d6fb3f13d689ff844b4ce37794d79a7ff1c",
                "erc": "ERC-20",
                "slots": [
                    {
                        "current": "0x0000000000000000000000000000000000000000000000000000000000000000",
                        "key": "0xf8f971455dd300ac09f3d94c73b80ff3c680ea1d6c229b189ffc409a7c14c294",
                        "prev": "0x000000000000000000000000000000000000000000006edfe4d9417bc41f9827"
                    },
                    {
                        "current": "0x000000000000000000000000000000000000000000006edfe4d9417bc41f9827",
                        "key": "0x76804a293b2774d1c633efe3d0655ef1b12ffcf41f4c37749776ce5a7bc7d7da",
                        "prev": "0x0000000000000000000000000000000000000000000000000000000000000000"
                    }
                ],
                "storageVariables": []
            }
        ]
    }
}