{
    "balance_change": {
        "balanceChanges": [
            {
                "account": "0xa85e9e26b6f41f2a5483edc5395838f4553a6fe2",
                "assets": [
                    {
                        "address": "0xb582baaf5e749d6aa98a22355a9d08b4c4d013c8",
                        "amount": "300",
                        "iconUrl": "",
                        "isERC1155": false,
                        "isERC721": false,
                        "sign": false,
                        "value": ""
                    }
                ]
            },
            {
                "account": "0x140397b04e67b435f05f7f620fe04bce4bfd8294",
                "assets": [
                    {
                        "address": "0xb582baaf5e749d6aa98a22355a9d08b4c4d013c8",
                        "amount": "300",
                        "iconUrl": "",
                        "isERC1155": false,
                        "isERC721": false,
                        "sign": true,
                        "value": ""
                    }
                ]
            }
        ]
    },
    "profile": {
        "basic_info": {
            "baseFee": "",
            "blockNumber": 2817805,
            "callData": "0xa9059cbb000000000000000000000000140397b04e67b435f05f7f620fe04bce4bfd829400000000000000000000000000000000000000000000000000000000000493e0",
            "debugEnable": true,
            "errorInfo": "",
            "eventCount": 1,
            "feeRecipient": "0xc0ea08a2d404d3172d2add29a45be56da40e2949",
            "formatValue": "0",
            "gasLimit": 51301,
            "gasPrice": "41",
            "gasUsed": 36301,
            "intTxnCount": 0,
            "internalRevert": false,
            "internalRevertMessage": "",
            "isContractCreation": false,
            "isFlashloan": false,
            "maxFee": "",
            "nonce": 3,
            "overwritedBlockNumber": -1,
            "priorityFee": "",
            "receiver": "0xb582baaf5e749d6aa98a22355a9d08b4c4d013c8",
            "revertMessage": "",
            "sender": "0xa85e9e26b6f41f2a5483edc5395838f4553a6fe2",
            "simulationEnable": true,
            "sourceTxnHash": "0x3bbff43e431bdc42f1c46ce45942b1acd0c6871c8c401219eacdda5ebafc7ed3",
            "status": true,
            "timestamp": "2016-12-16T08:16:39Z",
            "transactionFee": "0.001488341",
            "txnHash": "0x3bbff43e431bdc42f1c46ce45942b1acd0c6871c8c401219eacdda5ebafc7ed3",
            "txnIndex": 0,
            "type": 0,
            "value": "0"
        },
        "fund_flow": [
            {
                "amount": "300",
                "from": "0xa85e9e26b6f41f2a5483edc5395838f4553a6fe2",
                "id": 1,
                "isERC1155": false,
                "isERC721": false,
                "isReverted": false,
                "order": 1,
                "to": "0x140397b04e67b435f05f7f620fe04bce4bfd8294",
                "token": "0xb582baaf5e749d6aa98a22355a9d08b4c4d013c8"
            }
        ],
        "token_infos": [
            {
                "address": "0xb582baaf5e749d6aa98a22355a9d08b4c4d013c8",
                "decimals": 3
            },
            {
                "address": "0xc02aaa39b223fe8d0a0e5c4f27ead9083c756cc2",
                "decimals": 18
            },
            {
                "address": "0xeeeeeeeeeeeeeeeeeeeeeeeeeeeeeeeeeeeeeeee",
                "decimals": 18
            }
        ]
    },
    "address_label": {
        "labels": [
            {
                "address": "0x0000000000000000000000000000000000000004",
                "label": "Precompiled"
            },
            {
                "address": "0xeeeeeeeeeeeeeeeeeeeeeeeeeeeeeeeeeeeeeeee",
                "label": "Ether"
            },
            {
                "address": "0xb582baaf5e749d6aa98a22355a9d08b4c4d013c8",
                "label": "HackerGold: Old Token"
            },
            {
                "address": "0x0000000000000000000000000000000000000001",
                "label": "Precompiled"
            },
            {
                "address": "0x0000000000000000000000000000000000000002",
                "label": "Precompiled"
            },
            {
                "address": "0x0000000000000000000000000000000000000003",
                "label": "Precompiled"
            }
        ]
    },
    "trace": {
        "accountLabels": null,
        "dataMap": {
            "-1": {
                "invocation": {
                    "address": "0xa85e9e26b6f41f2a5483edc5395838f4553a6fe2",
                    "callData": "",
                    "decodedMethod": null,
                    "errorInfo": "",
                    "fromAddress": "",
                    "gasUsed": 0,
                    "id": -1,
                    "methodDecoded": false,
                    "operation": "",
                    "output": "",
                    "revert": false,
                    "revertMessage": "",
                    "selector": "",
                    "status": false,
                    "value": ""
                },
                "nodeType": 0
            },
            "0": {
                "invocation": {
                    "address": "0xb582baaf5e749d6aa98a22355a9d08b4c4d013c8",
                    "callData": "0x000000000000000000000000140397b04e67b435f05f7f620fe04bce4bfd829400000000000000000000000000000000000000000000000000000000000493e0",
                    "decodedMethod": {
                        "callParams": [
                            {
                                "name": "to",
                                "type": "address",
                                "value": "0x140397b04e67b435f05f7f620fe04bce4bfd8294"
                            },
                            {
                                "decimalAvailable": true,
                                "name": "value",
                                "type": "uint256",
                                "value": "300,000"
                            }
                        ],
                        "constructorArguments": "",
                        "name": "transfer",
                        "returnParams": [
                            {
                                "name": "success",
                                "type": "bool",
                                "value": true
                            }
                        ],
                        "signature": "transfer(address,uint256)"
                    },
                    "errorInfo": "",
                    "fromAddress": "0xa85e9e26b6f41f2a5483edc5395838f4553a6fe2",
                    "gasUsed": 36301,
                    "id": 0,
                    "methodDecoded": true,
                    "operation": "CALL",
                    "output": "0x0000000000000000000000000000000000000000000000000000000000000001",
                    "revert": false,
                    "revertMessage": "",
                    "selector": "0xa9059cbb",
                    "status": true,
                    "value": "0"
                },
                "nodeType": 0
            },
            "1": {
                "event": {
                    "contract": "0xb582baaf5e749d6aa98a22355a9d08b4c4d013c8",
                    "decodedLog": {
                        "name": "Transfer",
                        "params": [
                            {
                                "name": "from",
                                "type": "address",
                                "value": "0xa85e9e26b6f41f2a5483edc5395838f4553a6fe2"
                            },
                            {
                                "name": "to",
                                "type": "address",
                                "value": "0x140397b04e67b435f05f7f620fe04bce4bfd8294"
                            },
                            {
                                "decimalAvailable": true,
                                "name": "value",
                                "type": "uint256",
                                "value": "300,000"
                            }
                        ],
                        "signature": "Transfer(address,address,uint256)"
                    },
                    "id": 1,
                    "logData": "0x00000000000000000000000000000000000000000000000000000000000493e0",
                    "logDecoded": true,
                    "operation": "EVENT",
                    "revert": false,
                    "status": true,
                    "topics": [
                        "0xddf252ad1be2c89b69c2b068fc378daa952ba7f163c4a11628f55a4df523b3ef",
                        "0x000000000000000000000000a85e9e26b6f41f2a5483edc5395838f4553a6fe2",
                        "0x000000000000000000000000140397b04e67b435f05f7f620fe04bce4bfd8294"
                    ]
                },
                "nodeType": 1
            }
        },
        "gasFlame": [
            {
                "children": [
                    {
                        "children": [
                            {
                                "children": [],
                                "depth": 0,
                                "name": "Initial Gas",
                                "value": 23000
                            },
                            {
                                "children": [],
                                "depth": 0,
                                "name": "Executed Gas",
                                "value": 28301
                            }
                        ],
                        "depth": -1,
                        "name": "Actual Gas Used",
                        "value": 36301
                    },
                    {
                        "children": [],
                        "depth": -1,
                        "name": "Refunded Gas",
                        "value": 15000
                    }
                ],
                "depth": -2,
                "name": "Total Gas",
                "value": 51301
            }
        ],
        "isConfirmed": true,
        "mainTrace": [
            {
                "children": [
                    {
                        "children": [
                            {
                                "children": [],
                                "depth": 1,
                                "id": 1,
                                "order": 1
                            }
                        ],
                        "depth": 0,
                        "id": 0,
                        "order": 0
                    }
                ],
                "depth": -1,
                "id": -1,
                "order": -1
            }
        ],
        "mainTraceNodeCount": 2,
        "parentIdMap": {
            "0": -1,
            "1": 0
        },
        "tidyTrace": [
            {
                "children": [
                    {
                        "children": [
                            {
                                "children": [],
                                "depth": 1,
                                "id": 1,
                                "order": 1
                            }
                        ],
                        "depth": 0,
                        "id": 0,
                        "order": 0
                    }
                ],
                "depth": -1,
                "id": -1,
                "order": -1
            }
        ],
        "tidyTraceNodeCount": 2
    },
    "state_change": {
        "stateChanges": [
            {
                "address": "0xb582baaf5e749d6aa98a22355a9d08b4c4d013c8",
                "erc": "",
                "slots": [
                    {
                        "current": "0x0000000000000000000000000000000000000000000000000000000000000000",
                        "key": "0x8f792388d175bf8bd0d368ae3461d90e47ed4b52b2eeffe13bafbf668ef8bb0f",
                        "prev": "0x00000000000000000000000000000000000000000000000000000000000493e0"
                    },
                    {
                        "current": "0x00000000000000000000000000000000000000000000000000000000000493e0",
                        "key": "0x2364452e0b88263cb464605582d7fa134cc3b12f95957511c997f56e2cf3d236",
                        "prev": "0x0000000000000000000000000000000000000000000000000000000000000000"
                    }
                ],
                "storageVariables": []
            }
        ]
    }
}