{
    "balance_change": {
        "balanceChanges": []
    },
    "profile": {
        "basic_info": {
            "baseFee": "",
            "blockNumber": 8222733,
            "callData": "0xa9059cbb0000000000000000000000004b84a50986f270260f04a1c3ce8f964b9aae067a000000000000000000000000000000000000000000000000000000000000001e",
            "debugEnable": true,
            "errorInfo": "",
            "eventCount": 1,
            "feeRecipient": "0xaa5c4244f05c92781c4f259913319d8ba1acf05e",
            "formatValue": "0",
            "gasLimit": 57512,
            "gasPrice": "1",
            "gasUsed": 38341,
            "intTxnCount": 0,
            "internalRevert": false,
            "internalRevertMessage": "",
            "isContractCreation": false,
            "isFlashloan": false,
            "maxFee": "",
            "nonce": 7767,
            "overwritedBlockNumber": -1,
            "priorityFee": "",
            "receiver": "0xac3ae8acd3ae1705359cee2c6d98e946d508eb1b",
            "revertMessage": "",
            "sender": "0x9af5aa88c4e59280a932a9679407b113f4edb548",
            "simulationEnable": true,
            "sourceTxnHash": "0x3cb978b13cfde340c7245b0ea0345f020992427b7f6d82d1dd333d39d0ab21e2",
            "status": true,
            "timestamp": "2019-07-25T23:38:30Z",
            "transactionFee": "0.000038341",
            "txnHash": "0x3cb978b13cfde340c7245b0ea0345f020992427b7f6d82d1dd333d39d0ab21e2",
            "txnIndex": 81,
            "type": 0,
            "value": "0"
        },
        "fund_flow": [],
        "token_infos": [
            {
                "address": "0xc02aaa39b223fe8d0a0e5c4f27ead9083c756cc2",
                "decimals": 18
            },
            {
                "address": "0xeeeeeeeeeeeeeeeeeeeeeeeeeeeeeeeeeeeeeeee",
                "decimals": 18
            }
        ]
    },
    "address_label": {
        "labels": [
            {
                "address": "0x0000000000000000000000000000000000000003",
                "label": "Precompiled"
            },
            {
                "address": "0x0000000000000000000000000000000000000004",
                "label": "Precompiled"
            },
            {
                "address": "0xeeeeeeeeeeeeeeeeeeeeeeeeeeeeeeeeeeeeeeee",
                "label": "Ether"
            },
            {
                "address": "0x0000000000000000000000000000000000000001",
                "label": "Precompiled"
            },
            {
                "address": "0x0000000000000000000000000000000000000002",
                "label": "Precompiled"
            }
        ]
    },
    "trace": {
        "accountLabels": null,
        "dataMap": {
            "-1": {
                "invocation": {
                    "address": "0x9af5aa88c4e59280a932a9679407b113f4edb548",
                    "callData": "",
                    "decodedMethod": null,
                    "errorInfo": "",
                    "fromAddress": "",
                    "gasUsed": 0,
                    "id": -1,
                    "methodDecoded": false,
                    "operation": "",
                    "output": "",
                    "revert": false,
                    "revertMessage": "",
                    "selector": "",
                    "status": false,
                    "value": ""
                },
                "nodeType": 0
            },
            "0": {
                "invocation": {
                    "address": "0xac3ae8acd3ae1705359cee2c6d98e946d508eb1b",
                    "callData": "0x0000000000000000000000004b84a50986f270260f04a1c3ce8f964b9aae067a000000000000000000000000000000000000000000000000000000000000001e",
                    "decodedMethod": {
                        "callParams": [
                            {
                                "name": "recipient",
                                "type": "address",
                                "value": "0x4b84a50986f270260f04a1c3ce8f964b9aae067a"
                            },
                            {
                                "decimalAvailable": true,
                                "name": "amount",
                                "type": "uint256",
                                "value": "30"
                            }
                        ],
                        "constructorArguments": "",
                        "name": "transfer",
                        "returnParams": [
                            {
                                "name": "",
                                "type": "bool",
                                "value": true
                            }
                        ],
                        "signature": "transfer(address,uint256)"
                    },
                    "errorInfo": "",
                    "fromAddress": "0x9af5aa88c4e59280a932a9679407b113f4edb548",
                    "gasUsed": 38341,
                    "id": 0,
                    "methodDecoded": true,
                    "operation": "CALL",
                    "output": "0x0000000000000000000000000000000000000000000000000000000000000001",
                    "revert": false,
                    "revertMessage": "",
                    "selector": "0xa9059cbb",
                    "status": true,
                    "value": "0"
                },
                "nodeType": 0
            },
            "1": {
                "event": {
                    "contract": "0xac3ae8acd3ae1705359cee2c6d98e946d508eb1b",
                    "decodedLog": {
                        "name": "Transfer",
                        "params": [
                            {
                                "name": "from",
                                "type": "address",
                                "value": "0x9af5aa88c4e59280a932a9679407b113f4edb548"
                            },
                            {
                                "name": "to",
                                "type": "address",
                                "value": "0x4b84a50986f270260f04a1c3ce8f964b9aae067a"
                            },
                            {
                                "name": "amount",
                                "type": "uint256",
                                "value": "30"
                            },
                            {
                                "name": "message",
                                "type": "string",
                                "value": "transfer"
                            }
                        ],
                        "signature": "Transfer(address,address,uint256,string)"
                    },
                    "id": 1,
                    "logData": "0x000000000000000000000000000000000000000000000000000000000000001e000000000000000000000000000000000000000000000000000000000000004000000000000000000000000000000000000000000000000000000000000000087472616e73666572000000000000000000000000000000000000000000000000",
                    "logDecoded": true,
                    "operation": "EVENT",
                    "revert": false,
                    "status": true,
                    "topics": [
                        "0xcd6e659e4c2e75c3bfe47fecaccf39aeb368116a0ee52afb532e07f6cba6c0d1",
                        "0x0000000000000000000000009af5aa88c4e59280a932a9679407b113f4edb548",
                        "0x0000000000000000000000004b84a50986f270260f04a1c3ce8f964b9aae067a"
                    ]
                },
                "nodeType": 1
            }
        },
        "gasFlame": [
            {
                "children": [
                    {
                        "children": [
                            {
                                "children": [],
                                "depth": 0,
                                "name": "Initial Gas",
                                "value": 22872
                            },
                            {
                                "children": [],
                                "depth": 0,
                                "name": "Executed Gas",
                                "value": 15469
                            }
                        ],
                        "depth": -1,
                        "name": "Actual Gas Used",
                        "value": 38341
                    },
                    {
                        "children": [],
                        "depth": -1,
                        "name": "Refunded Gas",
                        "value": 0
                    }
                ],
                "depth": -2,
                "name": "Total Gas",
                "value": 38341
            }
        ],
        "isConfirmed": true,
        "mainTrace": [
            {
                "children": [
                    {
                        "children": [
                            {
                                "children": [],
                                "depth": 1,
                                "id": 1,
                                "order": 1
                            }
                        ],
                        "depth": 0,
                        "id": 0,
                        "order": 0
                    }
                ],
                "depth": -1,
                "id": -1,
                "order": -1
            }
        ],
        "mainTraceNodeCount": 2,
        "parentIdMap": {
            "0": -1,
            "1": 0
        },
        "tidyTrace": [
            {
                "children": [
                    {
                        "children": [
                            {
                                "children": [],
                                "depth": 1,
                                "id": 1,
                                "order": 1
                            }
                        ],
                        "depth": 0,
                        "id": 0,
                        "order": 0
                    }
                ],
                "depth": -1,
                "id": -1,
                "order": -1
            }
        ],
        "tidyTraceNodeCount": 2
    },
    "state_change": {
        "stateChanges": [
            {
                "address": "0xac3ae8acd3ae1705359cee2c6d98e946d508eb1b",
                "erc": "",
                "slots": [
                    {
                        "current": "0x0000000000000000000000000000000000000000000000000000000000030b96",
                        "key": "0x9e2baa85b93f9c501c160843d06cdff9796e466b1c139dee245c2a3747ec2425",
                        "prev": "0x0000000000000000000000000000000000000000000000000000000000030b78"
                    },
                    {
                        "current": "0x0000000000000000000000000000000000000000000000000000000005ee5724",
                        "key": "0x98dacf6de06873f36040996321253c4af1fa84de1817e1183f2739d13be6bd69",
                        "prev": "0x0000000000000000000000000000000000000000000000000000000005ee5742"
                    }
                ],
                "storageVariables": []
            }
        ]
    }
}