{
    "balance_change": {
        "balanceChanges": [
            {
                "account": "0x59a5208b32e627891c389ebafc644145224006e8",
                "assets": [
                    {
                        "address": "0xd533a949740bb3306d119cc777fa900ba034cd52",
                        "amount": "30.2092622",
                        "iconUrl": "",
                        "isERC1155": false,
                        "isERC721": false,
                        "sign": false,
                        "value": "133.911964"
                    }
                ]
            },
            {
                "account": "0x6090a8a703e91ce0b121afc3be98c13b48ea60bb",
                "assets": [
                    {
                        "address": "0xd533a949740bb3306d119cc777fa900ba034cd52",
                        "amount": "30.2092622",
                        "iconUrl": "",
                        "isERC1155": false,
                        "isERC721": false,
                        "sign": true,
                        "value": "133.911964"
                    }
                ]
            }
        ]
    },
    "profile": {
        "basic_info": {
            "baseFee": "115.082767886",
            "blockNumber": 13572622,
            "callData": "0xa9059cbb0000000000000000000000006090a8a703e91ce0b121afc3be98c13b48ea60bb000000000000000000000000000000000000000000000001a33cdbea55a2b000",
            "debugEnable": true,
            "errorInfo": "",
            "eventCount": 1,
            "feeRecipient": "0x829bd824b016326a401d083b33d092293333a830",
            "formatValue": "0",
            "gasLimit": 54779,
            "gasPrice": "134.686178269",
            "gasUsed": 34237,
            "intTxnCount": 0,
            "internalRevert": false,
            "internalRevertMessage": "",
            "isContractCreation": false,
            "isFlashloan": false,
            "maxFee": "",
            "nonce": 1775069,
            "overwritedBlockNumber": -1,
            "priorityFee": "",
            "receiver": "0xd533a949740bb3306d119cc777fa900ba034cd52",
            "revertMessage": "",
            "sender": "0x59a5208b32e627891c389ebafc644145224006e8",
            "simulationEnable": true,
            "sourceTxnHash": "0x3c16e615bfdd1b32457f79caee046edc58d2d218487145bee695099244db8744",
            "status": true,
            "timestamp": "2021-11-08T00:27:52Z",
            "transactionFee": "0.004611250685395753",
            "txnHash": "0x3c16e615bfdd1b32457f79caee046edc58d2d218487145bee695099244db8744",
            "txnIndex": 142,
            "type": 0,
            "value": "0"
        },
        "fund_flow": [
            {
                "amount": "30.2092622",
                "from": "0x59a5208b32e627891c389ebafc644145224006e8",
                "id": 1,
                "isERC1155": false,
                "isERC721": false,
                "isReverted": false,
                "order": 1,
                "to": "0x6090a8a703e91ce0b121afc3be98c13b48ea60bb",
                "token": "0xd533a949740bb3306d119cc777fa900ba034cd52"
            }
        ],
        "token_infos": [
            {
                "address": "0xc02aaa39b223fe8d0a0e5c4f27ead9083c756cc2",
                "decimals": 18
            },
            {
                "address": "0xd533a949740bb3306d119cc777fa900ba034cd52",
                "decimals": 18
            },
            {
                "address": "0xeeeeeeeeeeeeeeeeeeeeeeeeeeeeeeeeeeeeeeee",
                "decimals": 18
            }
        ]
    },
    "address_label": {
        "labels": [
            {
                "address": "0xd533a949740bb3306d119cc777fa900ba034cd52",
                "label": "Curve.fi: CRV Token"
            },
            {
                "address": "0x0000000000000000000000000000000000000001",
                "label": "Precompiled"
            },
            {
                "address": "0x0000000000000000000000000000000000000002",
                "label": "Precompiled"
            },
            {
                "address": "0x0000000000000000000000000000000000000003",
                "label": "Precompiled"
            },
            {
                "address": "0x0000000000000000000000000000000000000004",
                "label": "Precompiled"
            },
            {
                "address": "0xeeeeeeeeeeeeeeeeeeeeeeeeeeeeeeeeeeeeeeee",
                "label": "Ether"
            },
            {
                "address": "0x59a5208b32e627891c389ebafc644145224006e8",
                "label": "HitBTC 2"
            }
        ]
    },
    "trace": {
        "accountLabels": null,
        "dataMap": {
            "-1": {
                "invocation": {
                    "address": "0x59a5208b32e627891c389ebafc644145224006e8",
                    "callData": "",
                    "decodedMethod": null,
                    "errorInfo": "",
                    "fromAddress": "",
                    "gasUsed": 0,
                    "id": -1,
                    "methodDecoded": false,
                    "operation": "",
                    "output": "",
                    "revert": false,
                    "revertMessage": "",
                    "selector": "",
                    "status": false,
                    "value": ""
                },
                "nodeType": 0
            },
            "0": {
                "invocation": {
                    "address": "0xd533a949740bb3306d119cc777fa900ba034cd52",
                    "callData": "0x0000000000000000000000006090a8a703e91ce0b121afc3be98c13b48ea60bb000000000000000000000000000000000000000000000001a33cdbea55a2b000",
                    "decodedMethod": {
                        "callParams": [
                            {
                                "name": "recipient",
                                "type": "address",
                                "value": "0x6090a8a703e91ce0b121afc3be98c13b48ea60bb"
                            },
                            {
                                "decimalAvailable": true,
                                "name": "amount",
                                "type": "uint256",
                                "value": "30,209,262,200,000,000,000"
                            }
                        ],
                        "constructorArguments": "",
                        "name": "transfer",
                        "returnParams": [
                            {
                                "name": "",
                                "type": "bool",
                                "value": true
                            }
                        ],
                        "signature": "transfer(address,uint256)"
                    },
                    "errorInfo": "",
                    "fromAddress": "0x59a5208b32e627891c389ebafc644145224006e8",
                    "gasUsed": 34237,
                    "id": 0,
                    "methodDecoded": true,
                    "operation": "CALL",
                    "output": "0x0000000000000000000000000000000000000000000000000000000000000001",
                    "revert": false,
                    "revertMessage": "",
                    "selector": "0xa9059cbb",
                    "status": true,
                    "value": "0"
                },
                "nodeType": 0
            },
            "1": {
                "event": {
                    "contract": "0xd533a949740bb3306d119cc777fa900ba034cd52",
                    "decodedLog": {
                        "name": "Transfer",
                        "params": [
                            {
                                "name": "from",
                                "type": "address",
                                "value": "0x59a5208b32e627891c389ebafc644145224006e8"
                            },
                            {
                                "name": "to",
                                "type": "address",
                                "value": "0x6090a8a703e91ce0b121afc3be98c13b48ea60bb"
                            },
                            {
                                "decimalAvailable": true,
                                "name": "value",
                                "type": "uint256",
                                "value": "30,209,262,200,000,000,000"
                            }
                        ],
                        "signature": "Transfer(address,address,uint256)"
                    },
                    "id": 1,
                    "logData": "0x000000000000000000000000000000000000000000000001a33cdbea55a2b000",
                    "logDecoded": true,
                    "operation": "EVENT",
                    "revert": false,
                    "status": true,
                    "topics": [
                        "0xddf252ad1be2c89b69c2b068fc378daa952ba7f163c4a11628f55a4df523b3ef",
                        "0x00000000000000000000000059a5208b32e627891c389ebafc644145224006e8",
                        "0x0000000000000000000000006090a8a703e91ce0b121afc3be98c13b48ea60bb"
                    ]
                },
                "nodeType": 1
            }
        },
        "gasFlame": [
            {
                "children": [
                    {
                        "children": [
                            {
                                "children": [],
                                "depth": 0,
                                "name": "Initial Gas",
                                "value": 21656
                            },
                            {
                                "children": [],
                                "depth": 0,
                                "name": "Executed Gas",
                                "value": 12581
                            }
                        ],
                        "depth": -1,
                        "name": "Actual Gas Used",
                        "value": 34237
                    },
                    {
                        "children": [],
                        "depth": -1,
                        "name": "Refunded Gas",
                        "value": 0
                    }
                ],
                "depth": -2,
                "name": "Total Gas",
                "value": 34237
            }
        ],
        "isConfirmed": true,
        "mainTrace": [
            {
                "children": [
                    {
                        "children": [
                            {
                                "children": [],
                                "depth": 1,
                                "id": 1,
                                "order": 1
                            }
                        ],
                        "depth": 0,
                        "id": 0,
                        "order": 0
                    }
                ],
                "depth": -1,
                "id": -1,
                "order": -1
            }
        ],
        "mainTraceNodeCount": 2,
        "parentIdMap": {
            "0": -1,
            "1": 0
        },
        "tidyTrace": [
            {
                "children": [
                    {
                        "children": [
                            {
                                "children": [],
                                "depth": 1,
                                "id": 1,
                                "order": 1
                            }
                        ],
                        "depth": 0,
                        "id": 0,
                        "order": 0
                    }
                ],
                "depth": -1,
                "id": -1,
                "order": -1
            }
        ],
        "tidyTraceNodeCount": 2
    },
    "state_change": {
        "stateChanges": [
            {
                "address": "0xd533a949740bb3306d119cc777fa900ba034cd52",
                "erc": "",
                "slots": [
                    {
                        "current": "0x00000000000000000000000000000000000000000000000a58901da67e490400",
                        "key": "0x5cf751823b9ca36f539589d7e63045cb1b9f4546963c6b6b12ca9b82e055f863",
                        "prev": "0x000000000000000000000000000000000000000000000008b55341bc28a65400"
                    },
                    {
                        "current": "0x0000000000000000000000000000000000000000000000df6ae7cea665bfc7f7",
                        "key": "0x6c00753b82f09e7fa9d21bbb1ec411054d9f9a2b01707f07649608e5c66c4b1c",
                        "prev": "0x0000000000000000000000000000000000000000000000e10e24aa90bb6277f7"
                    }
                ],
                "storageVariables": []
            }
        ]
    }
}