{
    "balance_change": {
        "balanceChanges": [
            {
                "account": "0xdfe51f6f0c5a9f02a1d0a995b688e0b9daa9b4dd",
                "assets": [
                    {
                        "address": "0xeeeeeeeeeeeeeeeeeeeeeeeeeeeeeeeeeeeeeeee",
                        "amount": "0.089",
                        "iconUrl": "https://assets.blocksec.com/image/1663669189317-3.png",
                        "isERC1155": false,
                        "isERC721": false,
                        "sign": false,
                        "value": "261.6083150299999884"
                    },
                    {
                        "address": "0x4f94a08744fa36fae992a4f8830c65e37e8f388b",
                        "amount": "1",
                        "iconUrl": "",
                        "isERC1155": false,
                        "isERC721": true,
                        "sign": true,
                        "tokenID": "1151",
                        "value": ""
                    }
                ]
            },
            {
                "account": "0x4f94a08744fa36fae992a4f8830c65e37e8f388b",
                "assets": [
                    {
                        "address": "0xeeeeeeeeeeeeeeeeeeeeeeeeeeeeeeeeeeeeeeee",
                        "amount": "0.089",
                        "iconUrl": "https://assets.blocksec.com/image/1663669189317-3.png",
                        "isERC1155": false,
                        "isERC721": false,
                        "sign": true,
                        "value": "261.6083150299999884"
                    }
                ]
            },
            {
                "account": "0x0000000000000000000000000000000000000000",
                "assets": [
                    {
                        "address": "0x4f94a08744fa36fae992a4f8830c65e37e8f388b",
                        "amount": "1",
                        "iconUrl": "",
                        "isERC1155": false,
                        "isERC721": true,
                        "sign": false,
                        "tokenID": "1151",
                        "value": ""
                    }
                ]
            }
        ]
    },
    "profile": {
        "basic_info": {
            "baseFee": "19.668504738",
            "blockNumber": 14867445,
            "callData": "0xf464f775000000000000000000000000000000000000000000000000000000000000006000000000000000000000000000000000000000000000000000000000000000010000000000000000000000000000000000000000000000000000000000000001000000000000000000000000000000000000000000000000000000000000004163a23a770d4fbb81609a5b24c0bc8a78a9b1c6ac09be07977198c6f00aa21bee2c965e1c4a904e1250f82976f21e44f5696774da7c15627ee0d997ff401b9a3a1b00000000000000000000000000000000000000000000000000000000000000",
            "debugEnable": true,
            "errorInfo": "",
            "eventCount": 1,
            "feeRecipient": "0x829bd824b016326a401d083b33d092293333a830",
            "formatValue": "0.089",
            "gasLimit": 96269,
            "gasPrice": "22.168504738",
            "gasUsed": 96269,
            "intTxnCount": 1,
            "internalRevert": false,
            "internalRevertMessage": "",
            "isContractCreation": false,
            "isFlashloan": false,
            "maxFee": "37.213736076",
            "nonce": 252,
            "overwritedBlockNumber": -1,
            "priorityFee": "2.5",
            "receiver": "0x4f94a08744fa36fae992a4f8830c65e37e8f388b",
            "revertMessage": "",
            "sender": "0xdfe51f6f0c5a9f02a1d0a995b688e0b9daa9b4dd",
            "simulationEnable": true,
            "sourceTxnHash": "0x3c323e5bd2c3975f69b5bc02ae112a50c6b93d936fbf85fe36a7d9b7ace91c19",
            "status": true,
            "timestamp": "2022-05-29T16:14:48Z",
            "transactionFee": "0.002134139782622522",
            "txnHash": "0x3c323e5bd2c3975f69b5bc02ae112a50c6b93d936fbf85fe36a7d9b7ace91c19",
            "txnIndex": 91,
            "type": 2,
            "value": "89000000000000000"
        },
        "fund_flow": [
            {
                "amount": "0.089",
                "from": "0xdfe51f6f0c5a9f02a1d0a995b688e0b9daa9b4dd",
                "id": 1,
                "isERC1155": false,
                "isERC721": false,
                "isReverted": false,
                "order": 1,
                "to": "0x4f94a08744fa36fae992a4f8830c65e37e8f388b",
                "token": "0xeeeeeeeeeeeeeeeeeeeeeeeeeeeeeeeeeeeeeeee"
            },
            {
                "amount": "1",
                "from": "0x0000000000000000000000000000000000000000",
                "id": 2,
                "isERC1155": false,
                "isERC721": true,
                "isReverted": false,
                "order": 2,
                "to": "0xdfe51f6f0c5a9f02a1d0a995b688e0b9daa9b4dd",
                "token": "0x4f94a08744fa36fae992a4f8830c65e37e8f388b",
                "tokenID": "1151"
            }
        ],
        "token_infos": [
            {
                "address": "0xc02aaa39b223fe8d0a0e5c4f27ead9083c756cc2",
                "decimals": 18
            },
            {
                "address": "0xeeeeeeeeeeeeeeeeeeeeeeeeeeeeeeeeeeeeeeee",
                "decimals": 18
            }
        ]
    },
    "address_label": {
        "labels": [
            {
                "address": "0x0000000000000000000000000000000000000001",
                "label": "Precompiled"
            },
            {
                "address": "0x0000000000000000000000000000000000000002",
                "label": "Precompiled"
            },
            {
                "address": "0x0000000000000000000000000000000000000003",
                "label": "Precompiled"
            },
            {
                "address": "0x0000000000000000000000000000000000000004",
                "label": "Precompiled"
            },
            {
                "address": "0xeeeeeeeeeeeeeeeeeeeeeeeeeeeeeeeeeeeeeeee",
                "label": "Ether"
            },
            {
                "address": "0x4f94a08744fa36fae992a4f8830c65e37e8f388b",
                "label": "NineTalesTwo"
            }
        ]
    },
    "trace": {
        "accountLabels": null,
        "dataMap": {
            "-1": {
                "invocation": {
                    "address": "0xdfe51f6f0c5a9f02a1d0a995b688e0b9daa9b4dd",
                    "callData": "",
                    "decodedMethod": null,
                    "errorInfo": "",
                    "fromAddress": "",
                    "gasUsed": 0,
                    "id": -1,
                    "methodDecoded": false,
                    "operation": "",
                    "output": "",
                    "revert": false,
                    "revertMessage": "",
                    "selector": "",
                    "status": false,
                    "value": ""
                },
                "nodeType": 0
            },
            "0": {
                "invocation": {
                    "address": "0x4f94a08744fa36fae992a4f8830c65e37e8f388b",
                    "callData": "0x000000000000000000000000000000000000000000000000000000000000006000000000000000000000000000000000000000000000000000000000000000010000000000000000000000000000000000000000000000000000000000000001000000000000000000000000000000000000000000000000000000000000004163a23a770d4fbb81609a5b24c0bc8a78a9b1c6ac09be07977198c6f00aa21bee2c965e1c4a904e1250f82976f21e44f5696774da7c15627ee0d997ff401b9a3a1b00000000000000000000000000000000000000000000000000000000000000",
                    "decodedMethod": {
                        "callParams": [
                            {
                                "name": "signature",
                                "type": "bytes",
                                "value": "0x63a23a770d4fbb81609a5b24c0bc8a78a9b1c6ac09be07977198c6f00aa21bee2c965e1c4a904e1250f82976f21e44f5696774da7c15627ee0d997ff401b9a3a1b"
                            },
                            {
                                "name": "tokenQuantity",
                                "type": "uint64",
                                "value": "1"
                            },
                            {
                                "name": "tokenLimit",
                                "type": "uint256",
                                "value": "1"
                            }
                        ],
                        "constructorArguments": "",
                        "name": "whitelistMint",
                        "returnParams": [],
                        "signature": "whitelistMint(bytes,uint64,uint256)"
                    },
                    "errorInfo": "",
                    "fromAddress": "0xdfe51f6f0c5a9f02a1d0a995b688e0b9daa9b4dd",
                    "gasUsed": 96269,
                    "id": 0,
                    "methodDecoded": true,
                    "operation": "CALL",
                    "output": "",
                    "revert": false,
                    "revertMessage": "",
                    "selector": "0xf464f775",
                    "status": true,
                    "value": "0.089"
                },
                "nodeType": 0
            },
            "1": {
                "invocation": {
                    "address": "0x0000000000000000000000000000000000000001",
                    "callData": "0xdfeb54d896ecc530488494217e4c4fd23d7e4604b2ee89334d6f5e56000000000000000000000000000000000000000000000000000000000000001b63a23a770d4fbb81609a5b24c0bc8a78a9b1c6ac09be07977198c6f00aa21bee2c965e1c4a904e1250f82976f21e44f5696774da7c15627ee0d997ff401b9a3a",
                    "decodedMethod": {
                        "callParams": [
                            {
                                "name": "hash",
                                "type": "bytes32",
                                "value": "0xc9e71815dfeb54d896ecc530488494217e4c4fd23d7e4604b2ee89334d6f5e56"
                            },
                            {
                                "name": "v",
                                "type": "uint256",
                                "value": "27"
                            },
                            {
                                "name": "r",
                                "type": "bytes32",
                                "value": "0x63a23a770d4fbb81609a5b24c0bc8a78a9b1c6ac09be07977198c6f00aa21bee"
                            },
                            {
                                "name": "s",
                                "type": "bytes32",
                                "value": "0x2c965e1c4a904e1250f82976f21e44f5696774da7c15627ee0d997ff401b9a3a"
                            }
                        ],
                        "constructorArguments": "",
                        "name": "ecrecover",
                        "returnParams": [
                            {
                                "name": "",
                                "type": "address",
                                "value": "0xe3b4e7c041627b1726d8167673b38c9ba07de436"
                            }
                        ],
                        "signature": "ecrecover(bytes32,uint256,bytes32,bytes32)"
                    },
                    "errorInfo": "",
                    "fromAddress": "0x4f94a08744fa36fae992a4f8830c65e37e8f388b",
                    "gasUsed": 3000,
                    "id": 1,
                    "methodDecoded": true,
                    "operation": "STATICCALL",
                    "output": "0x000000000000000000000000e3b4e7c041627b1726d8167673b38c9ba07de436",
                    "revert": false,
                    "revertMessage": "",
                    "selector": "0xc9e71815",
                    "status": true,
                    "value": "0"
                },
                "nodeType": 0
            },
            "2": {
                "event": {
                    "contract": "0x4f94a08744fa36fae992a4f8830c65e37e8f388b",
                    "decodedLog": {
                        "name": "Transfer",
                        "params": [
                            {
                                "name": "from",
                                "type": "address",
                                "value": "0x0000000000000000000000000000000000000000"
                            },
                            {
                                "name": "to",
                                "type": "address",
                                "value": "0xdfe51f6f0c5a9f02a1d0a995b688e0b9daa9b4dd"
                            },
                            {
                                "decimalAvailable": true,
                                "name": "tokenId",
                                "type": "uint256",
                                "value": "1,151"
                            }
                        ],
                        "signature": "Transfer(address,address,uint256)"
                    },
                    "id": 2,
                    "logData": "0x",
                    "logDecoded": true,
                    "operation": "EVENT",
                    "revert": false,
                    "status": true,
                    "topics": [
                        "0xddf252ad1be2c89b69c2b068fc378daa952ba7f163c4a11628f55a4df523b3ef",
                        "0x0000000000000000000000000000000000000000000000000000000000000000",
                        "0x000000000000000000000000dfe51f6f0c5a9f02a1d0a995b688e0b9daa9b4dd",
                        "0x000000000000000000000000000000000000000000000000000000000000047f"
                    ]
                },
                "nodeType": 1
            }
        },
        "gasFlame": [
            {
                "children": [
                    {
                        "children": [
                            {
                                "children": [],
                                "depth": 0,
                                "name": "Initial Gas",
                                "value": 22788
                            },
                            {
                                "children": [
                                    {
                                        "children": [],
                                        "depth": 1,
                                        "name": "ecrecover",
                                        "value": 3000
                                    }
                                ],
                                "depth": 0,
                                "name": "Executed Gas",
                                "value": 73481
                            }
                        ],
                        "depth": -1,
                        "name": "Actual Gas Used",
                        "value": 96269
                    },
                    {
                        "children": [],
                        "depth": -1,
                        "name": "Refunded Gas",
                        "value": 0
                    }
                ],
                "depth": -2,
                "name": "Total Gas",
                "value": 96269
            }
        ],
        "isConfirmed": true,
        "mainTrace": [
            {
                "children": [
                    {
                        "children": [
                            {
                                "children": [],
                                "depth": 1,
                                "id": 1,
                                "order": 1
                            },
                            {
                                "children": [],
                                "depth": 1,
                                "id": 2,
                                "order": 2
                            }
                        ],
                        "depth": 0,
                        "id": 0,
                        "order": 0
                    }
                ],
                "depth": -1,
                "id": -1,
                "order": -1
            }
        ],
        "mainTraceNodeCount": 3,
        "parentIdMap": {
            "0": -1,
            "1": 0,
            "2": 0
        },
        "tidyTrace": [
            {
                "children": [
                    {
                        "children": [
                            {
                                "children": [],
                                "depth": 1,
                                "id": 2,
                                "order": 2
                            }
                        ],
                        "depth": 0,
                        "id": 0,
                        "order": 0
                    }
                ],
                "depth": -1,
                "id": -1,
                "order": -1
            }
        ],
        "tidyTraceNodeCount": 2
    },
    "state_change": {
        "stateChanges": [
            {
                "address": "0x4f94a08744fa36fae992a4f8830c65e37e8f388b",
                "erc": "ERC-721",
                "slots": [
                    {
                        "current": "0x0000000000000001000000000000000000000000000000010000000000000001",
                        "key": "0x00238f1565c4c865ce74a2ac187c6650353805b28d33afff99bc0ec07f89939d",
                        "prev": "0x0000000000000000000000000000000000000000000000000000000000000000"
                    },
                    {
                        "current": "0x000000020000000062939bf8dfe51f6f0c5a9f02a1d0a995b688e0b9daa9b4dd",
                        "key": "0xd8d0a66a47ea77e4055eb75eda664a9c2a1909ae414a4fead03f9cc413a9c512",
                        "prev": "0x0000000000000000000000000000000000000000000000000000000000000000"
                    },
                    {
                        "current": "0x0000000000000000000000000000000000000000000000000000000000000480",
                        "key": "0x0000000000000000000000000000000000000000000000000000000000000000",
                        "prev": "0x000000000000000000000000000000000000000000000000000000000000047f"
                    },
                    {
                        "current": "0x00000000000000000000000000010101000000000000022400000000000001f7",
                        "key": "0x0000000000000000000000000000000000000000000000000000000000000014",
                        "prev": "0x00000000000000000000000000010101000000000000022300000000000001f7"
                    }
                ],
                "storageVariables": [
                    {
                        "name": "_packedAddressData",
                        "type": "mapping(address => uint256)",
                        "value": {
                            "pairs": [
                                {
                                    "key": "0xdfe51f6f0c5a9f02a1d0a995b688e0b9daa9b4dd",
                                    "value": {
                                        "current": "6277101735386680763835789423207666416120802188537744064513",
                                        "prev": "0",
                                        "typeTag": 1
                                    }
                                }
                            ],
                            "typeTag": 4
                        }
                    },
                    {
                        "name": "_packedOwnerships",
                        "type": "mapping(uint256 => uint256)",
                        "value": {
                            "pairs": [
                                {
                                    "key": "1151",
                                    "value": {
                                        "current": "53919893336718370756309039156935842443059485834975995426307230512349",
                                        "prev": "0",
                                        "typeTag": 1
                                    }
                                }
                            ],
                            "typeTag": 4
                        }
                    },
                    {
                        "name": "_currentIndex",
                        "type": "uint256",
                        "value": {
                            "current": "1152",
                            "prev": "1151",
                            "typeTag": 1
                        }
                    },
                    {
                        "name": "publicAmountMinted",
                        "type": "uint64",
                        "value": {
                            "current": "503",
                            "prev": "503",
                            "typeTag": 1
                        }
                    },
                    {
                        "name": "whitelistAmountMinted",
                        "type": "uint64",
                        "value": {
                            "current": "548",
                            "prev": "547",
                            "typeTag": 1
                        }
                    },
                    {
                        "name": "saleIsLive",
                        "type": "bool",
                        "value": {
                            "current": "true",
                            "prev": "true",
                            "typeTag": 1
                        }
                    },
                    {
                        "name": "whitelistLive",
                        "type": "bool",
                        "value": {
                            "current": "true",
                            "prev": "true",
                            "typeTag": 1
                        }
                    },
                    {
                        "name": "publicSaleLive",
                        "type": "bool",
                        "value": {
                            "current": "true",
                            "prev": "true",
                            "typeTag": 1
                        }
                    },
                    {
                        "name": "provenanceLocked",
                        "type": "bool",
                        "value": {
                            "current": "false",
                            "prev": "false",
                            "typeTag": 1
                        }
                    }
                ]
            }
        ]
    }
}