{
    "balance_change": {
        "balanceChanges": [
            {
                "account": "0x8597db1929da6b3e7680caae915e5edc7729d7c7",
                "assets": [
                    {
                        "address": "0xb6f43025b29196af2dddd69b0a58afba079cd600",
                        "amount": "1",
                        "iconUrl": "https://assets.blocksec.com/icon/b9052c97ff039f98ea84b7852fb813d393b7fd10dab8e145ca4846cac676d105.png",
                        "isERC1155": false,
                        "isERC721": false,
                        "sign": false,
                        "value": ""
                    }
                ]
            },
            {
                "account": "0x6809291cc650de7dca3accc9a19aabf6a637399c",
                "assets": [
                    {
                        "address": "0xb6f43025b29196af2dddd69b0a58afba079cd600",
                        "amount": "1",
                        "iconUrl": "https://assets.blocksec.com/icon/b9052c97ff039f98ea84b7852fb813d393b7fd10dab8e145ca4846cac676d105.png",
                        "isERC1155": false,
                        "isERC721": false,
                        "sign": true,
                        "value": ""
                    }
                ]
            }
        ]
    },
    "profile": {
        "basic_info": {
            "baseFee": "",
            "blockNumber": 5904782,
            "callData": "0xa9059cbb0000000000000000000000006809291cc650de7dca3accc9a19aabf6a637399c0000000000000000000000000000000000000000000000000de0b6b3a7640000",
            "debugEnable": true,
            "errorInfo": "",
            "eventCount": 1,
            "feeRecipient": "0x5a0b54d5dc17e0aadc383d2db43b0a0d3e029c4c",
            "formatValue": "0",
            "gasLimit": 60000,
            "gasPrice": "85.2",
            "gasUsed": 53291,
            "intTxnCount": 0,
            "internalRevert": false,
            "internalRevertMessage": "",
            "isContractCreation": false,
            "isFlashloan": false,
            "maxFee": "",
            "nonce": 342,
            "overwritedBlockNumber": -1,
            "priorityFee": "",
            "receiver": "0xb6f43025b29196af2dddd69b0a58afba079cd600",
            "revertMessage": "",
            "sender": "0x8597db1929da6b3e7680caae915e5edc7729d7c7",
            "simulationEnable": true,
            "sourceTxnHash": "0x3d5cea9e81f829171264ef295786da6bf06bc7272a12288dfa49db2636bfb548",
            "status": true,
            "timestamp": "2018-07-04T15:21:00Z",
            "transactionFee": "0.0045403932",
            "txnHash": "0x3d5cea9e81f829171264ef295786da6bf06bc7272a12288dfa49db2636bfb548",
            "txnIndex": 23,
            "type": 0,
            "value": "0"
        },
        "fund_flow": [
            {
                "amount": "1",
                "from": "0x8597db1929da6b3e7680caae915e5edc7729d7c7",
                "id": 1,
                "isERC1155": false,
                "isERC721": false,
                "isReverted": false,
                "order": 1,
                "to": "0x6809291cc650de7dca3accc9a19aabf6a637399c",
                "token": "0xb6f43025b29196af2dddd69b0a58afba079cd600"
            }
        ],
        "token_infos": [
            {
                "address": "0xc02aaa39b223fe8d0a0e5c4f27ead9083c756cc2",
                "decimals": 18
            },
            {
                "address": "0xeeeeeeeeeeeeeeeeeeeeeeeeeeeeeeeeeeeeeeee",
                "decimals": 18
            },
            {
                "address": "0xb6f43025b29196af2dddd69b0a58afba079cd600",
                "decimals": 18
            }
        ]
    },
    "address_label": {
        "labels": [
            {
                "address": "0x0000000000000000000000000000000000000002",
                "label": "Precompiled"
            },
            {
                "address": "0x0000000000000000000000000000000000000003",
                "label": "Precompiled"
            },
            {
                "address": "0x0000000000000000000000000000000000000004",
                "label": "Precompiled"
            },
            {
                "address": "0xeeeeeeeeeeeeeeeeeeeeeeeeeeeeeeeeeeeeeeee",
                "label": "Ether"
            },
            {
                "address": "0xb6f43025b29196af2dddd69b0a58afba079cd600",
                "label": "\u667a\u6295\u94fe (IIC)"
            },
            {
                "address": "0x0000000000000000000000000000000000000001",
                "label": "Precompiled"
            }
        ]
    },
    "trace": {
        "accountLabels": null,
        "dataMap": {
            "-1": {
                "invocation": {
                    "address": "0x8597db1929da6b3e7680caae915e5edc7729d7c7",
                    "callData": "",
                    "decodedMethod": null,
                    "errorInfo": "",
                    "fromAddress": "",
                    "gasUsed": 0,
                    "id": -1,
                    "methodDecoded": false,
                    "operation": "",
                    "output": "",
                    "revert": false,
                    "revertMessage": "",
                    "selector": "",
                    "status": false,
                    "value": ""
                },
                "nodeType": 0
            },
            "0": {
                "invocation": {
                    "address": "0xb6f43025b29196af2dddd69b0a58afba079cd600",
                    "callData": "0x0000000000000000000000006809291cc650de7dca3accc9a19aabf6a637399c0000000000000000000000000000000000000000000000000de0b6b3a7640000",
                    "decodedMethod": {
                        "callParams": [
                            {
                                "name": "_to",
                                "type": "address",
                                "value": "0x6809291cc650de7dca3accc9a19aabf6a637399c"
                            },
                            {
                                "decimalAvailable": true,
                                "name": "_value",
                                "type": "uint256",
                                "value": "1,000,000,000,000,000,000"
                            }
                        ],
                        "constructorArguments": "",
                        "name": "transfer",
                        "returnParams": [],
                        "signature": "transfer(address,uint256)"
                    },
                    "errorInfo": "",
                    "fromAddress": "0x8597db1929da6b3e7680caae915e5edc7729d7c7",
                    "gasUsed": 53291,
                    "id": 0,
                    "methodDecoded": true,
                    "operation": "CALL",
                    "output": "",
                    "revert": false,
                    "revertMessage": "",
                    "selector": "0xa9059cbb",
                    "status": true,
                    "value": "0"
                },
                "nodeType": 0
            },
            "1": {
                "event": {
                    "contract": "0xb6f43025b29196af2dddd69b0a58afba079cd600",
                    "decodedLog": {
                        "name": "Transfer",
                        "params": [
                            {
                                "name": "from",
                                "type": "address",
                                "value": "0x8597db1929da6b3e7680caae915e5edc7729d7c7"
                            },
                            {
                                "name": "to",
                                "type": "address",
                                "value": "0x6809291cc650de7dca3accc9a19aabf6a637399c"
                            },
                            {
                                "decimalAvailable": true,
                                "name": "value",
                                "type": "uint256",
                                "value": "1,000,000,000,000,000,000"
                            }
                        ],
                        "signature": "Transfer(address,address,uint256)"
                    },
                    "id": 1,
                    "logData": "0x0000000000000000000000000000000000000000000000000de0b6b3a7640000",
                    "logDecoded": true,
                    "operation": "EVENT",
                    "revert": false,
                    "status": true,
                    "topics": [
                        "0xddf252ad1be2c89b69c2b068fc378daa952ba7f163c4a11628f55a4df523b3ef",
                        "0x0000000000000000000000008597db1929da6b3e7680caae915e5edc7729d7c7",
                        "0x0000000000000000000000006809291cc650de7dca3accc9a19aabf6a637399c"
                    ]
                },
                "nodeType": 1
            }
        },
        "gasFlame": [
            {
                "children": [
                    {
                        "children": [
                            {
                                "children": [],
                                "depth": 0,
                                "name": "Initial Gas",
                                "value": 23192
                            },
                            {
                                "children": [],
                                "depth": 0,
                                "name": "Executed Gas",
                                "value": 30099
                            }
                        ],
                        "depth": -1,
                        "name": "Actual Gas Used",
                        "value": 53291
                    },
                    {
                        "children": [],
                        "depth": -1,
                        "name": "Refunded Gas",
                        "value": 0
                    }
                ],
                "depth": -2,
                "name": "Total Gas",
                "value": 53291
            }
        ],
        "isConfirmed": true,
        "mainTrace": [
            {
                "children": [
                    {
                        "children": [
                            {
                                "children": [],
                                "depth": 1,
                                "id": 1,
                                "order": 1
                            }
                        ],
                        "depth": 0,
                        "id": 0,
                        "order": 0
                    }
                ],
                "depth": -1,
                "id": -1,
                "order": -1
            }
        ],
        "mainTraceNodeCount": 2,
        "parentIdMap": {
            "0": -1,
            "1": 0
        },
        "tidyTrace": [
            {
                "children": [
                    {
                        "children": [
                            {
                                "children": [],
                                "depth": 1,
                                "id": 1,
                                "order": 1
                            }
                        ],
                        "depth": 0,
                        "id": 0,
                        "order": 0
                    }
                ],
                "depth": -1,
                "id": -1,
                "order": -1
            }
        ],
        "tidyTraceNodeCount": 2
    },
    "state_change": {
        "stateChanges": [
            {
                "address": "0xb6f43025b29196af2dddd69b0a58afba079cd600",
                "erc": "",
                "slots": [
                    {
                        "current": "0x00000000000000000000000000000000000000000000020b81cbff056b440000",
                        "key": "0xeb920d0c9d29a4d9317921b6f850cea432b57b38ffcc9d0af78b89684e1a7413",
                        "prev": "0x00000000000000000000000000000000000000000000020b8facb5b912a80000"
                    },
                    {
                        "current": "0x0000000000000000000000000000000000000000000000000de0b6b3a7640000",
                        "key": "0xe9b06f67f5faabed3323c740a8915a8ee55c063a98d6155cfeeaf13497ed4794",
                        "prev": "0x0000000000000000000000000000000000000000000000000000000000000000"
                    }
                ],
                "storageVariables": [
                    {
                        "name": "balanceOf",
                        "type": "mapping(address => uint256)",
                        "value": {
                            "pairs": [
                                {
                                    "key": "0x6809291cc650de7dca3accc9a19aabf6a637399c",
                                    "value": {
                                        "current": "1000000000000000000",
                                        "prev": "0",
                                        "typeTag": 1
                                    }
                                },
                                {
                                    "key": "0x8597db1929da6b3e7680caae915e5edc7729d7c7",
                                    "value": {
                                        "current": "9657000000000000000000",
                                        "prev": "9658000000000000000000",
                                        "typeTag": 1
                                    }
                                }
                            ],
                            "typeTag": 4
                        }
                    }
                ]
            }
        ]
    }
}