{
    "balance_change": {
        "balanceChanges": [
            {
                "account": "0x98c3d3183c4b8a650614ad179a1a98be0a8d6b8e",
                "assets": [
                    {
                        "address": "0xe28b3b32b6c345a34ff64674606124dd5aceca30",
                        "amount": "287.704955358658071652",
                        "iconUrl": "https://assets.blocksec.com/icon/ae97f899367f37e9ff5f7f282c0326f6748ac82236dae34e21d0f3ccf6aeaff6.png",
                        "isERC1155": false,
                        "isERC721": false,
                        "sign": true,
                        "value": "11634.788396375999346"
                    },
                    {
                        "address": "0xc02aaa39b223fe8d0a0e5c4f27ead9083c756cc2",
                        "amount": "5.040900324575035392",
                        "iconUrl": "https://assets.blocksec.com/icon/f1cb2d02c471d545bbc7722daf3277fd852d98e63d118771af7047bd8256c516.png",
                        "isERC1155": false,
                        "isERC721": false,
                        "sign": false,
                        "value": "11550.4165506855007335"
                    }
                ]
            },
            {
                "account": "0x6c063a6e8cd45869b5eb75291e65a3de298f3aa8",
                "assets": [
                    {
                        "address": "0xe28b3b32b6c345a34ff64674606124dd5aceca30",
                        "amount": "287.704955358658071652",
                        "iconUrl": "https://assets.blocksec.com/icon/ae97f899367f37e9ff5f7f282c0326f6748ac82236dae34e21d0f3ccf6aeaff6.png",
                        "isERC1155": false,
                        "isERC721": false,
                        "sign": false,
                        "value": "11634.788396375999346"
                    },
                    {
                        "address": "0xc02aaa39b223fe8d0a0e5c4f27ead9083c756cc2",
                        "amount": "5.040900324575035392",
                        "iconUrl": "https://assets.blocksec.com/icon/f1cb2d02c471d545bbc7722daf3277fd852d98e63d118771af7047bd8256c516.png",
                        "isERC1155": false,
                        "isERC721": false,
                        "sign": true,
                        "value": "11550.4165506855007335"
                    }
                ]
            }
        ]
    },
    "profile": {
        "basic_info": {
            "baseFee": "23.338180792",
            "blockNumber": 18850873,
            "callData": "0x49c36c070000000000000000000000006c063a6e8cd45869b5eb75291e65a3de298f3aa800000000000000000000000000000000000000000000000045f4e0232a724000000000000000000000000000000000000000000791f1d6d2759880000000000000000000000000000000000000000000000000078fb0636bbe0f0000000000000000000000000000000000000000000000000000000000000000000000000001",
            "debugEnable": true,
            "errorInfo": "",
            "eventCount": 3,
            "feeRecipient": "0xdafea492d9c6733ae3d56b7ed1adb60692c98bc5",
            "formatValue": "0",
            "gasLimit": 360000,
            "gasPrice": "45.801280546",
            "gasUsed": 110033,
            "intTxnCount": 7,
            "internalRevert": false,
            "internalRevertMessage": "",
            "isContractCreation": false,
            "isFlashloan": false,
            "maxFee": "50.951468559",
            "nonce": 395917,
            "overwritedBlockNumber": -1,
            "priorityFee": "22.463099754",
            "receiver": "0x98c3d3183c4b8a650614ad179a1a98be0a8d6b8e",
            "revertMessage": "",
            "sender": "0x8e8f818d3371f797a2db7edb32803607c8b3c6a9",
            "simulationEnable": true,
            "sourceTxnHash": "0x3df24da5f47311ea6c96af2f0927a2f44b7e20e9183b5bb308c5a8a6a6f7a445",
            "status": true,
            "timestamp": "2023-12-23T20:24:35Z",
            "transactionFee": "0.005039652302318018",
            "txnHash": "0x3df24da5f47311ea6c96af2f0927a2f44b7e20e9183b5bb308c5a8a6a6f7a445",
            "txnIndex": 1,
            "type": 2,
            "value": "0"
        },
        "fund_flow": [
            {
                "amount": "287.704955358658071652",
                "from": "0x6c063a6e8cd45869b5eb75291e65a3de298f3aa8",
                "id": 1,
                "isERC1155": false,
                "isERC721": false,
                "isReverted": false,
                "order": 1,
                "to": "0x98c3d3183c4b8a650614ad179a1a98be0a8d6b8e",
                "token": "0xe28b3b32b6c345a34ff64674606124dd5aceca30"
            },
            {
                "amount": "5.040900324575035392",
                "from": "0x98c3d3183c4b8a650614ad179a1a98be0a8d6b8e",
                "id": 2,
                "isERC1155": false,
                "isERC721": false,
                "isReverted": false,
                "order": 2,
                "to": "0x6c063a6e8cd45869b5eb75291e65a3de298f3aa8",
                "token": "0xc02aaa39b223fe8d0a0e5c4f27ead9083c756cc2"
            }
        ],
        "token_infos": [
            {
                "address": "0xc02aaa39b223fe8d0a0e5c4f27ead9083c756cc2",
                "decimals": 18
            },
            {
                "address": "0xe28b3b32b6c345a34ff64674606124dd5aceca30",
                "decimals": 18
            },
            {
                "address": "0xeeeeeeeeeeeeeeeeeeeeeeeeeeeeeeeeeeeeeeee",
                "decimals": 18
            }
        ]
    },
    "address_label": {
        "labels": [
            {
                "address": "0x6c063a6e8cd45869b5eb75291e65a3de298f3aa8",
                "label": "Uniswap V3: INJ 2"
            },
            {
                "address": "0xc02aaa39b223fe8d0a0e5c4f27ead9083c756cc2",
                "label": "Wrapped Ether (WETH)"
            },
            {
                "address": "0x98c3d3183c4b8a650614ad179a1a98be0a8d6b8e",
                "label": "MEV Bot: 0x98c...b8e"
            },
            {
                "address": "0x0000000000000000000000000000000000000004",
                "label": "Precompiled"
            },
            {
                "address": "0xeeeeeeeeeeeeeeeeeeeeeeeeeeeeeeeeeeeeeeee",
                "label": "Ether"
            },
            {
                "address": "0xe28b3b32b6c345a34ff64674606124dd5aceca30",
                "label": "Injective Protocol: INJ Token"
            },
            {
                "address": "0x0000000000000000000000000000000000000001",
                "label": "Precompiled"
            },
            {
                "address": "0x0000000000000000000000000000000000000002",
                "label": "Precompiled"
            },
            {
                "address": "0x0000000000000000000000000000000000000003",
                "label": "Precompiled"
            }
        ]
    },
    "trace": {
        "accountLabels": null,
        "dataMap": {
            "-1": {
                "invocation": {
                    "address": "0x8e8f818d3371f797a2db7edb32803607c8b3c6a9",
                    "callData": "",
                    "decodedMethod": null,
                    "errorInfo": "",
                    "fromAddress": "",
                    "gasUsed": 0,
                    "id": -1,
                    "methodDecoded": false,
                    "operation": "",
                    "output": "",
                    "revert": false,
                    "revertMessage": "",
                    "selector": "",
                    "status": false,
                    "value": ""
                },
                "nodeType": 0
            },
            "0": {
                "invocation": {
                    "address": "0x98c3d3183c4b8a650614ad179a1a98be0a8d6b8e",
                    "callData": "0x0000000000000000000000006c063a6e8cd45869b5eb75291e65a3de298f3aa800000000000000000000000000000000000000000000000045f4e0232a724000000000000000000000000000000000000000000791f1d6d2759880000000000000000000000000000000000000000000000000078fb0636bbe0f0000000000000000000000000000000000000000000000000000000000000000000000000001",
                    "decodedMethod": null,
                    "errorInfo": "",
                    "fromAddress": "0x8e8f818d3371f797a2db7edb32803607c8b3c6a9",
                    "gasUsed": 110033,
                    "id": 0,
                    "methodDecoded": false,
                    "operation": "CALL",
                    "output": "",
                    "revert": false,
                    "revertMessage": "",
                    "selector": "0x49c36c07",
                    "status": true,
                    "value": "0"
                },
                "nodeType": 0
            },
            "1": {
                "invocation": {
                    "address": "0x6c063a6e8cd45869b5eb75291e65a3de298f3aa8",
                    "callData": "0x",
                    "decodedMethod": {
                        "callParams": [],
                        "constructorArguments": "",
                        "name": "slot0",
                        "returnParams": [
                            {
                                "name": "sqrtPriceX96",
                                "type": "uint160",
                                "value": "599,797,313,137,758,915,033,547,374,763"
                            },
                            {
                                "name": "tick",
                                "type": "int24",
                                "value": "40,487"
                            },
                            {
                                "name": "observationIndex",
                                "type": "uint16",
                                "value": "33"
                            },
                            {
                                "name": "observationCardinality",
                                "type": "uint16",
                                "value": "41"
                            },
                            {
                                "name": "observationCardinalityNext",
                                "type": "uint16",
                                "value": "41"
                            },
                            {
                                "name": "feeProtocol",
                                "type": "uint8",
                                "value": "0"
                            },
                            {
                                "name": "unlocked",
                                "type": "bool",
                                "value": true
                            }
                        ],
                        "signature": "slot0()"
                    },
                    "errorInfo": "",
                    "fromAddress": "0x98c3d3183c4b8a650614ad179a1a98be0a8d6b8e",
                    "gasUsed": 2696,
                    "id": 1,
                    "methodDecoded": true,
                    "operation": "STATICCALL",
                    "output": "0x0000000000000000000000000000000000000007920cb579bf0f8096986f80ab0000000000000000000000000000000000000000000000000000000000009e2700000000000000000000000000000000000000000000000000000000000000210000000000000000000000000000000000000000000000000000000000000029000000000000000000000000000000000000000000000000000000000000002900000000000000000000000000000000000000000000000000000000000000000000000000000000000000000000000000000000000000000000000000000001",
                    "revert": false,
                    "revertMessage": "",
                    "selector": "0x3850c7bd",
                    "status": true,
                    "value": "0"
                },
                "nodeType": 0
            },
            "10": {
                "event": {
                    "contract": "0x6c063a6e8cd45869b5eb75291e65a3de298f3aa8",
                    "decodedLog": {
                        "name": "Swap",
                        "params": [
                            {
                                "name": "sender",
                                "type": "address",
                                "value": "0x98c3d3183c4b8a650614ad179a1a98be0a8d6b8e"
                            },
                            {
                                "name": "recipient",
                                "type": "address",
                                "value": "0x98c3d3183c4b8a650614ad179a1a98be0a8d6b8e"
                            },
                            {
                                "name": "amount0",
                                "type": "int256",
                                "value": "5,040,900,324,575,035,392"
                            },
                            {
                                "name": "amount1",
                                "type": "int256",
                                "value": "-287,704,955,358,658,071,652"
                            },
                            {
                                "name": "sqrtPriceX96",
                                "type": "uint160",
                                "value": "599,099,180,163,766,577,308,680,544,224"
                            },
                            {
                                "name": "liquidity",
                                "type": "uint128",
                                "value": "32,650,420,204,282,034,952,558"
                            },
                            {
                                "name": "tick",
                                "type": "int24",
                                "value": "40,463"
                            }
                        ],
                        "signature": "Swap(address,address,int256,int256,uint160,uint128,int24)"
                    },
                    "id": 10,
                    "logData": "0x00000000000000000000000000000000000000000000000045f4e0232a724000fffffffffffffffffffffffffffffffffffffffffffffff0674aab6d6f91739c00000000000000000000000000000000000000078fcb3a11645b3fec68f35fe00000000000000000000000000000000000000000000006e9fb9a7a744bb2996e0000000000000000000000000000000000000000000000000000000000009e0f",
                    "logDecoded": true,
                    "operation": "EVENT",
                    "revert": false,
                    "status": true,
                    "topics": [
                        "0xc42079f94a6350d7e6235f29174924f928cc2ac818eb64fed8004e115fbcca67",
                        "0x00000000000000000000000098c3d3183c4b8a650614ad179a1a98be0a8d6b8e",
                        "0x00000000000000000000000098c3d3183c4b8a650614ad179a1a98be0a8d6b8e"
                    ]
                },
                "nodeType": 1
            },
            "2": {
                "invocation": {
                    "address": "0x6c063a6e8cd45869b5eb75291e65a3de298f3aa8",
                    "callData": "0x00000000000000000000000098c3d3183c4b8a650614ad179a1a98be0a8d6b8e000000000000000000000000000000000000000000000000000000000000000100000000000000000000000000000000000000000000000045f4e0232a72400000000000000000000000000000000000000000078fb0636bbe0f00000000000000000000000000000000000000000000000000000000000000000000000000a00000000000000000000000000000000000000000000000000000000000000000",
                    "decodedMethod": {
                        "callParams": [
                            {
                                "name": "recipient",
                                "type": "address",
                                "value": "0x98c3d3183c4b8a650614ad179a1a98be0a8d6b8e"
                            },
                            {
                                "name": "zeroForOne",
                                "type": "bool",
                                "value": true
                            },
                            {
                                "name": "amountSpecified",
                                "type": "int256",
                                "value": "5,040,900,324,575,035,392"
                            },
                            {
                                "name": "sqrtPriceLimitX96",
                                "type": "uint160",
                                "value": "599,066,734,450,333,467,690,854,776,832"
                            },
                            {
                                "name": "data",
                                "type": "bytes",
                                "value": "0x"
                            }
                        ],
                        "constructorArguments": "",
                        "name": "swap",
                        "returnParams": [
                            {
                                "name": "amount0",
                                "type": "int256",
                                "value": "5,040,900,324,575,035,392"
                            },
                            {
                                "name": "amount1",
                                "type": "int256",
                                "value": "-287,704,955,358,658,071,652"
                            }
                        ],
                        "signature": "swap(address,bool,int256,uint160,bytes)"
                    },
                    "errorInfo": "",
                    "fromAddress": "0x98c3d3183c4b8a650614ad179a1a98be0a8d6b8e",
                    "gasUsed": 74345,
                    "id": 2,
                    "methodDecoded": true,
                    "operation": "CALL",
                    "output": "0x00000000000000000000000000000000000000000000000045f4e0232a724000fffffffffffffffffffffffffffffffffffffffffffffff0674aab6d6f91739c",
                    "revert": false,
                    "revertMessage": "",
                    "selector": "0x128acb08",
                    "status": true,
                    "value": "0"
                },
                "nodeType": 0
            },
            "3": {
                "invocation": {
                    "address": "0xe28b3b32b6c345a34ff64674606124dd5aceca30",
                    "callData": "0x00000000000000000000000098c3d3183c4b8a650614ad179a1a98be0a8d6b8e00000000000000000000000000000000000000000000000f98b55492906e8c64",
                    "decodedMethod": {
                        "callParams": [
                            {
                                "name": "recipient",
                                "type": "address",
                                "value": "0x98c3d3183c4b8a650614ad179a1a98be0a8d6b8e"
                            },
                            {
                                "decimalAvailable": true,
                                "name": "amount",
                                "type": "uint256",
                                "value": "287,704,955,358,658,071,652"
                            }
                        ],
                        "constructorArguments": "",
                        "name": "transfer",
                        "returnParams": [
                            {
                                "name": "",
                                "type": "bool",
                                "value": true
                            }
                        ],
                        "signature": "transfer(address,uint256)"
                    },
                    "errorInfo": "",
                    "fromAddress": "0x6c063a6e8cd45869b5eb75291e65a3de298f3aa8",
                    "gasUsed": 13129,
                    "id": 3,
                    "methodDecoded": true,
                    "operation": "CALL",
                    "output": "0x0000000000000000000000000000000000000000000000000000000000000001",
                    "revert": false,
                    "revertMessage": "",
                    "selector": "0xa9059cbb",
                    "status": true,
                    "value": "0"
                },
                "nodeType": 0
            },
            "4": {
                "event": {
                    "contract": "0xe28b3b32b6c345a34ff64674606124dd5aceca30",
                    "decodedLog": {
                        "name": "Transfer",
                        "params": [
                            {
                                "name": "from",
                                "type": "address",
                                "value": "0x6c063a6e8cd45869b5eb75291e65a3de298f3aa8"
                            },
                            {
                                "name": "to",
                                "type": "address",
                                "value": "0x98c3d3183c4b8a650614ad179a1a98be0a8d6b8e"
                            },
                            {
                                "decimalAvailable": true,
                                "name": "value",
                                "type": "uint256",
                                "value": "287,704,955,358,658,071,652"
                            }
                        ],
                        "signature": "Transfer(address,address,uint256)"
                    },
                    "id": 4,
                    "logData": "0x00000000000000000000000000000000000000000000000f98b55492906e8c64",
                    "logDecoded": true,
                    "operation": "EVENT",
                    "revert": false,
                    "status": true,
                    "topics": [
                        "0xddf252ad1be2c89b69c2b068fc378daa952ba7f163c4a11628f55a4df523b3ef",
                        "0x0000000000000000000000006c063a6e8cd45869b5eb75291e65a3de298f3aa8",
                        "0x00000000000000000000000098c3d3183c4b8a650614ad179a1a98be0a8d6b8e"
                    ]
                },
                "nodeType": 1
            },
            "5": {
                "invocation": {
                    "address": "0xc02aaa39b223fe8d0a0e5c4f27ead9083c756cc2",
                    "callData": "0x0000000000000000000000006c063a6e8cd45869b5eb75291e65a3de298f3aa8",
                    "decodedMethod": {
                        "callParams": [
                            {
                                "name": "",
                                "type": "address",
                                "value": "0x6c063a6e8cd45869b5eb75291e65a3de298f3aa8"
                            }
                        ],
                        "constructorArguments": "",
                        "name": "balanceOf",
                        "returnParams": [
                            {
                                "decimalAvailable": true,
                                "name": "",
                                "type": "uint256",
                                "value": "687,456,772,376,159,259,076"
                            }
                        ],
                        "signature": "balanceOf(address)"
                    },
                    "errorInfo": "",
                    "fromAddress": "0x6c063a6e8cd45869b5eb75291e65a3de298f3aa8",
                    "gasUsed": 2534,
                    "id": 5,
                    "methodDecoded": true,
                    "operation": "STATICCALL",
                    "output": "0x0000000000000000000000000000000000000000000000254461142c8d8b09c4",
                    "revert": false,
                    "revertMessage": "",
                    "selector": "0x70a08231",
                    "status": true,
                    "value": "0"
                },
                "nodeType": 0
            },
            "6": {
                "invocation": {
                    "address": "0x98c3d3183c4b8a650614ad179a1a98be0a8d6b8e",
                    "callData": "0x00000000000000000000000000000000000000000000000045f4e0232a724000fffffffffffffffffffffffffffffffffffffffffffffff0674aab6d6f91739c00000000000000000000000000000000000000000000000000000000000000600000000000000000000000000000000000000000000000000000000000000000",
                    "decodedMethod": {
                        "callParams": [
                            {
                                "name": "amount0Delta",
                                "type": "int256",
                                "value": "5,040,900,324,575,035,392"
                            },
                            {
                                "name": "amount1Delta",
                                "type": "int256",
                                "value": "-287,704,955,358,658,071,652"
                            },
                            {
                                "name": "data",
                                "type": "bytes",
                                "value": "0x"
                            }
                        ],
                        "constructorArguments": "",
                        "name": "uniswapV3SwapCallback",
                        "returnParams": [],
                        "signature": "uniswapV3SwapCallback(int256,int256,bytes)"
                    },
                    "errorInfo": "",
                    "fromAddress": "0x6c063a6e8cd45869b5eb75291e65a3de298f3aa8",
                    "gasUsed": 13361,
                    "id": 6,
                    "methodDecoded": true,
                    "operation": "CALL",
                    "output": "",
                    "revert": false,
                    "revertMessage": "",
                    "selector": "0xfa461e33",
                    "status": true,
                    "value": "0"
                },
                "nodeType": 0
            },
            "7": {
                "invocation": {
                    "address": "0xc02aaa39b223fe8d0a0e5c4f27ead9083c756cc2",
                    "callData": "0x0000000000000000000000006c063a6e8cd45869b5eb75291e65a3de298f3aa800000000000000000000000000000000000000000000000045f4e0232a724000",
                    "decodedMethod": {
                        "callParams": [
                            {
                                "name": "dst",
                                "type": "address",
                                "value": "0x6c063a6e8cd45869b5eb75291e65a3de298f3aa8"
                            },
                            {
                                "decimalAvailable": true,
                                "name": "wad",
                                "type": "uint256",
                                "value": "5,040,900,324,575,035,392"
                            }
                        ],
                        "constructorArguments": "",
                        "name": "transfer",
                        "returnParams": [
                            {
                                "name": "",
                                "type": "bool",
                                "value": true
                            }
                        ],
                        "signature": "transfer(address,uint256)"
                    },
                    "errorInfo": "",
                    "fromAddress": "0x98c3d3183c4b8a650614ad179a1a98be0a8d6b8e",
                    "gasUsed": 10862,
                    "id": 7,
                    "methodDecoded": true,
                    "operation": "CALL",
                    "output": "0x0000000000000000000000000000000000000000000000000000000000000001",
                    "revert": false,
                    "revertMessage": "",
                    "selector": "0xa9059cbb",
                    "status": true,
                    "value": "0"
                },
                "nodeType": 0
            },
            "8": {
                "event": {
                    "contract": "0xc02aaa39b223fe8d0a0e5c4f27ead9083c756cc2",
                    "decodedLog": {
                        "name": "Transfer",
                        "params": [
                            {
                                "name": "src",
                                "type": "address",
                                "value": "0x98c3d3183c4b8a650614ad179a1a98be0a8d6b8e"
                            },
                            {
                                "name": "dst",
                                "type": "address",
                                "value": "0x6c063a6e8cd45869b5eb75291e65a3de298f3aa8"
                            },
                            {
                                "decimalAvailable": true,
                                "name": "wad",
                                "type": "uint256",
                                "value": "5,040,900,324,575,035,392"
                            }
                        ],
                        "signature": "Transfer(address,address,uint256)"
                    },
                    "id": 8,
                    "logData": "0x00000000000000000000000000000000000000000000000045f4e0232a724000",
                    "logDecoded": true,
                    "operation": "EVENT",
                    "revert": false,
                    "status": true,
                    "topics": [
                        "0xddf252ad1be2c89b69c2b068fc378daa952ba7f163c4a11628f55a4df523b3ef",
                        "0x00000000000000000000000098c3d3183c4b8a650614ad179a1a98be0a8d6b8e",
                        "0x0000000000000000000000006c063a6e8cd45869b5eb75291e65a3de298f3aa8"
                    ]
                },
                "nodeType": 1
            },
            "9": {
                "invocation": {
                    "address": "0xc02aaa39b223fe8d0a0e5c4f27ead9083c756cc2",
                    "callData": "0x0000000000000000000000006c063a6e8cd45869b5eb75291e65a3de298f3aa8",
                    "decodedMethod": {
                        "callParams": [
                            {
                                "name": "",
                                "type": "address",
                                "value": "0x6c063a6e8cd45869b5eb75291e65a3de298f3aa8"
                            }
                        ],
                        "constructorArguments": "",
                        "name": "balanceOf",
                        "returnParams": [
                            {
                                "decimalAvailable": true,
                                "name": "",
                                "type": "uint256",
                                "value": "692,497,672,700,734,294,468"
                            }
                        ],
                        "signature": "balanceOf(address)"
                    },
                    "errorInfo": "",
                    "fromAddress": "0x6c063a6e8cd45869b5eb75291e65a3de298f3aa8",
                    "gasUsed": 534,
                    "id": 9,
                    "methodDecoded": true,
                    "operation": "STATICCALL",
                    "output": "0x0000000000000000000000000000000000000000000000258a55f44fb7fd49c4",
                    "revert": false,
                    "revertMessage": "",
                    "selector": "0x70a08231",
                    "status": true,
                    "value": "0"
                },
                "nodeType": 0
            }
        },
        "gasFlame": [
            {
                "children": [
                    {
                        "children": [
                            {
                                "children": [],
                                "depth": 0,
                                "name": "Initial Gas",
                                "value": 22220
                            },
                            {
                                "children": [
                                    {
                                        "children": [],
                                        "depth": 1,
                                        "name": "slot0",
                                        "value": 2696
                                    },
                                    {
                                        "children": [
                                            {
                                                "children": [],
                                                "depth": 2,
                                                "name": "transfer",
                                                "value": 13129
                                            },
                                            {
                                                "children": [],
                                                "depth": 2,
                                                "name": "balanceOf",
                                                "value": 2534
                                            },
                                            {
                                                "children": [
                                                    {
                                                        "children": [],
                                                        "depth": 3,
                                                        "name": "transfer",
                                                        "value": 10862
                                                    }
                                                ],
                                                "depth": 2,
                                                "name": "uniswapV3SwapCallback",
                                                "value": 13361
                                            },
                                            {
                                                "children": [],
                                                "depth": 2,
                                                "name": "balanceOf",
                                                "value": 534
                                            }
                                        ],
                                        "depth": 1,
                                        "name": "swap",
                                        "value": 74345
                                    }
                                ],
                                "depth": 0,
                                "name": "Executed Gas",
                                "value": 87813
                            }
                        ],
                        "depth": -1,
                        "name": "Actual Gas Used",
                        "value": 110033
                    },
                    {
                        "children": [],
                        "depth": -1,
                        "name": "Refunded Gas",
                        "value": 0
                    }
                ],
                "depth": -2,
                "name": "Total Gas",
                "value": 110033
            }
        ],
        "isConfirmed": true,
        "mainTrace": [
            {
                "children": [
                    {
                        "children": [
                            {
                                "children": [],
                                "depth": 1,
                                "id": 1,
                                "order": 1
                            },
                            {
                                "children": [
                                    {
                                        "children": [
                                            {
                                                "children": [],
                                                "depth": 3,
                                                "id": 4,
                                                "order": 4
                                            }
                                        ],
                                        "depth": 2,
                                        "id": 3,
                                        "order": 3
                                    },
                                    {
                                        "children": [],
                                        "depth": 2,
                                        "id": 5,
                                        "order": 5
                                    },
                                    {
                                        "children": [
                                            {
                                                "children": [
                                                    {
                                                        "children": [],
                                                        "depth": 4,
                                                        "id": 8,
                                                        "order": 8
                                                    }
                                                ],
                                                "depth": 3,
                                                "id": 7,
                                                "order": 7
                                            }
                                        ],
                                        "depth": 2,
                                        "id": 6,
                                        "order": 6
                                    },
                                    {
                                        "children": [],
                                        "depth": 2,
                                        "id": 9,
                                        "order": 9
                                    },
                                    {
                                        "children": [],
                                        "depth": 2,
                                        "id": 10,
                                        "order": 10
                                    }
                                ],
                                "depth": 1,
                                "id": 2,
                                "order": 2
                            }
                        ],
                        "depth": 0,
                        "id": 0,
                        "order": 0
                    }
                ],
                "depth": -1,
                "id": -1,
                "order": -1
            }
        ],
        "mainTraceNodeCount": 11,
        "parentIdMap": {
            "0": -1,
            "1": 0,
            "10": 2,
            "2": 0,
            "3": 2,
            "4": 3,
            "5": 2,
            "6": 2,
            "7": 6,
            "8": 7,
            "9": 2
        },
        "tidyTrace": [
            {
                "children": [
                    {
                        "children": [
                            {
                                "children": [
                                    {
                                        "children": [
                                            {
                                                "children": [],
                                                "depth": 3,
                                                "id": 4,
                                                "order": 4
                                            }
                                        ],
                                        "depth": 2,
                                        "id": 3,
                                        "order": 3
                                    },
                                    {
                                        "children": [
                                            {
                                                "children": [
                                                    {
                                                        "children": [],
                                                        "depth": 4,
                                                        "id": 8,
                                                        "order": 8
                                                    }
                                                ],
                                                "depth": 3,
                                                "id": 7,
                                                "order": 7
                                            }
                                        ],
                                        "depth": 2,
                                        "id": 6,
                                        "order": 6
                                    },
                                    {
                                        "children": [],
                                        "depth": 2,
                                        "id": 10,
                                        "order": 10
                                    }
                                ],
                                "depth": 1,
                                "id": 2,
                                "order": 2
                            }
                        ],
                        "depth": 0,
                        "id": 0,
                        "order": 0
                    }
                ],
                "depth": -1,
                "id": -1,
                "order": -1
            }
        ],
        "tidyTraceNodeCount": 8
    },
    "state_change": {
        "stateChanges": [
            {
                "address": "0x6c063a6e8cd45869b5eb75291e65a3de298f3aa8",
                "erc": "",
                "slots": [
                    {
                        "current": "0x0000000000000000000000000000000005beb173969dd983891858ae30a5b8e2",
                        "key": "0x0000000000000000000000000000000000000000000000000000000000000001",
                        "prev": "0x0000000000000000000000000000000005bea9ae499e7969b5cde85143517bd1"
                    },
                    {
                        "current": "0x000100002900290022009e0f00000000000000078fcb3a11645b3fec68f35fe0",
                        "key": "0x0000000000000000000000000000000000000000000000000000000000000000",
                        "prev": "0x000100002900290021009e270000000000000007920cb579bf0f8096986f80ab"
                    },
                    {
                        "current": "0x010000000000000000035f24de8c9e9cd20bc1c5bb00045de4884a8f65874203",
                        "key": "0x000000000000000000000000000000000000000000000000000000000000002a",
                        "prev": "0x010000000000000000035f24dc9ce4d66472c4207000045ddc08fb6f65873447"
                    }
                ],
                "storageVariables": []
            },
            {
                "address": "0xc02aaa39b223fe8d0a0e5c4f27ead9083c756cc2",
                "erc": "ERC-20",
                "slots": [
                    {
                        "current": "0x00000000000000000000000000000000000000000000001d59646fd047e01e55",
                        "key": "0x993460b7a842a34c6de2dc08dde1c527f4354825432b190bba2e4f8a7b04c6c8",
                        "prev": "0x00000000000000000000000000000000000000000000001d9f594ff372525e55"
                    },
                    {
                        "current": "0x0000000000000000000000000000000000000000000000258a55f44fb7fd49c4",
                        "key": "0x6fb7173931c795313ec7b4fe9a203cf03726c329ceab0d00c114fca68d3c6ff9",
                        "prev": "0x0000000000000000000000000000000000000000000000254461142c8d8b09c4"
                    }
                ],
                "storageVariables": [
                    {
                        "name": "balanceOf",
                        "type": "mapping(address => uint256)",
                        "value": {
                            "pairs": [
                                {
                                    "key": "0x6c063a6e8cd45869b5eb75291e65a3de298f3aa8",
                                    "value": {
                                        "current": "692497672700734294468",
                                        "prev": "687456772376159259076",
                                        "typeTag": 1
                                    }
                                },
                                {
                                    "key": "0x98c3d3183c4b8a650614ad179a1a98be0a8d6b8e",
                                    "value": {
                                        "current": "541396974444973399637",
                                        "prev": "546437874769548435029",
                                        "typeTag": 1
                                    }
                                }
                            ],
                            "typeTag": 4
                        }
                    }
                ]
            },
            {
                "address": "0xe28b3b32b6c345a34ff64674606124dd5aceca30",
                "erc": "ERC-20",
                "slots": [
                    {
                        "current": "0x0000000000000000000000000000000000000000000003b634fd43e71645eb0c",
                        "key": "0xa44b731602b5f99009ea5bf8fe3e732f61d79da751ded1d6123bb19e45289151",
                        "prev": "0x0000000000000000000000000000000000000000000003c5cdb29879a6b47770"
                    },
                    {
                        "current": "0x0000000000000000000000000000000000000000000000d463bd43829f077aa5",
                        "key": "0xf4e54bb51e10c9ff52102ae731b015539d4e9d60e64768267b59846a24141fd7",
                        "prev": "0x0000000000000000000000000000000000000000000000c4cb07eef00e98ee41"
                    }
                ],
                "storageVariables": [
                    {
                        "name": "_balances",
                        "type": "mapping(address => uint256)",
                        "value": {
                            "pairs": [
                                {
                                    "key": "0x6c063a6e8cd45869b5eb75291e65a3de298f3aa8",
                                    "value": {
                                        "current": "17528225152742944271116",
                                        "prev": "17815930108101602342768",
                                        "typeTag": 1
                                    }
                                },
                                {
                                    "key": "0x98c3d3183c4b8a650614ad179a1a98be0a8d6b8e",
                                    "value": {
                                        "current": "3917896718435070999205",
                                        "prev": "3630191763076412927553",
                                        "typeTag": 1
                                    }
                                }
                            ],
                            "typeTag": 4
                        }
                    }
                ]
            }
        ]
    }
}