{
    "balance_change": {
        "balanceChanges": [
            {
                "account": "0xe05e391c437fd065d2b288947a74d8df9dcfc300",
                "assets": [
                    {
                        "address": "0x3b8a1122316a9520b4ffe867f56a130c1524a64f",
                        "amount": "1,000,000",
                        "iconUrl": "",
                        "isERC1155": false,
                        "isERC721": false,
                        "sign": false,
                        "value": ""
                    }
                ]
            },
            {
                "account": "0xa4bca04f69c9441e83cab9e2d7223a13b9717a5f",
                "assets": [
                    {
                        "address": "0x3b8a1122316a9520b4ffe867f56a130c1524a64f",
                        "amount": "1,000,000",
                        "iconUrl": "",
                        "isERC1155": false,
                        "isERC721": false,
                        "sign": true,
                        "value": ""
                    }
                ]
            }
        ]
    },
    "profile": {
        "basic_info": {
            "baseFee": "",
            "blockNumber": 8919903,
            "callData": "0xa9059cbb000000000000000000000000a4bca04f69c9441e83cab9e2d7223a13b9717a5f00000000000000000000000000000000000000000000000000000002540be400",
            "debugEnable": true,
            "errorInfo": "",
            "eventCount": 1,
            "feeRecipient": "0x09ab1303d3ccaf5f018cd511146b07a240c70294",
            "formatValue": "0",
            "gasLimit": 90000,
            "gasPrice": "25",
            "gasUsed": 52360,
            "intTxnCount": 0,
            "internalRevert": false,
            "internalRevertMessage": "",
            "isContractCreation": false,
            "isFlashloan": false,
            "maxFee": "",
            "nonce": 121959,
            "overwritedBlockNumber": -1,
            "priorityFee": "",
            "receiver": "0x3b8a1122316a9520b4ffe867f56a130c1524a64f",
            "revertMessage": "",
            "sender": "0xe05e391c437fd065d2b288947a74d8df9dcfc300",
            "simulationEnable": true,
            "sourceTxnHash": "0x3dbbecb423696c0a7f7385047fe0a170b3599522cc63510bacc71cefd48ddcd9",
            "status": true,
            "timestamp": "2019-11-12T10:23:46Z",
            "transactionFee": "0.001309",
            "txnHash": "0x3dbbecb423696c0a7f7385047fe0a170b3599522cc63510bacc71cefd48ddcd9",
            "txnIndex": 54,
            "type": 0,
            "value": "0"
        },
        "fund_flow": [
            {
                "amount": "1,000,000",
                "from": "0xe05e391c437fd065d2b288947a74d8df9dcfc300",
                "id": 1,
                "isERC1155": false,
                "isERC721": false,
                "isReverted": false,
                "order": 1,
                "to": "0xa4bca04f69c9441e83cab9e2d7223a13b9717a5f",
                "token": "0x3b8a1122316a9520b4ffe867f56a130c1524a64f"
            }
        ],
        "token_infos": [
            {
                "address": "0x3b8a1122316a9520b4ffe867f56a130c1524a64f",
                "decimals": 4
            },
            {
                "address": "0xc02aaa39b223fe8d0a0e5c4f27ead9083c756cc2",
                "decimals": 18
            },
            {
                "address": "0xeeeeeeeeeeeeeeeeeeeeeeeeeeeeeeeeeeeeeeee",
                "decimals": 18
            }
        ]
    },
    "address_label": {
        "labels": [
            {
                "address": "0x0000000000000000000000000000000000000004",
                "label": "Precompiled"
            },
            {
                "address": "0xeeeeeeeeeeeeeeeeeeeeeeeeeeeeeeeeeeeeeeee",
                "label": "Ether"
            },
            {
                "address": "0x3b8a1122316a9520b4ffe867f56a130c1524a64f",
                "label": "CoinPOS (CPOS)"
            },
            {
                "address": "0x0000000000000000000000000000000000000001",
                "label": "Precompiled"
            },
            {
                "address": "0x0000000000000000000000000000000000000002",
                "label": "Precompiled"
            },
            {
                "address": "0x0000000000000000000000000000000000000003",
                "label": "Precompiled"
            }
        ]
    },
    "trace": {
        "accountLabels": null,
        "dataMap": {
            "-1": {
                "invocation": {
                    "address": "0xe05e391c437fd065d2b288947a74d8df9dcfc300",
                    "callData": "",
                    "decodedMethod": null,
                    "errorInfo": "",
                    "fromAddress": "",
                    "gasUsed": 0,
                    "id": -1,
                    "methodDecoded": false,
                    "operation": "",
                    "output": "",
                    "revert": false,
                    "revertMessage": "",
                    "selector": "",
                    "status": false,
                    "value": ""
                },
                "nodeType": 0
            },
            "0": {
                "invocation": {
                    "address": "0x3b8a1122316a9520b4ffe867f56a130c1524a64f",
                    "callData": "0x000000000000000000000000a4bca04f69c9441e83cab9e2d7223a13b9717a5f00000000000000000000000000000000000000000000000000000002540be400",
                    "decodedMethod": {
                        "callParams": [
                            {
                                "name": "_to",
                                "type": "address",
                                "value": "0xa4bca04f69c9441e83cab9e2d7223a13b9717a5f"
                            },
                            {
                                "decimalAvailable": true,
                                "name": "_value",
                                "type": "uint256",
                                "value": "10,000,000,000"
                            }
                        ],
                        "constructorArguments": "",
                        "name": "transfer",
                        "returnParams": [],
                        "signature": "transfer(address,uint256)"
                    },
                    "errorInfo": "",
                    "fromAddress": "0xe05e391c437fd065d2b288947a74d8df9dcfc300",
                    "gasUsed": 52360,
                    "id": 0,
                    "methodDecoded": true,
                    "operation": "CALL",
                    "output": "",
                    "revert": false,
                    "revertMessage": "",
                    "selector": "0xa9059cbb",
                    "status": true,
                    "value": "0"
                },
                "nodeType": 0
            },
            "1": {
                "event": {
                    "contract": "0x3b8a1122316a9520b4ffe867f56a130c1524a64f",
                    "decodedLog": {
                        "name": "Transfer",
                        "params": [
                            {
                                "name": "from",
                                "type": "address",
                                "value": "0xe05e391c437fd065d2b288947a74d8df9dcfc300"
                            },
                            {
                                "name": "to",
                                "type": "address",
                                "value": "0xa4bca04f69c9441e83cab9e2d7223a13b9717a5f"
                            },
                            {
                                "decimalAvailable": true,
                                "name": "value",
                                "type": "uint256",
                                "value": "10,000,000,000"
                            }
                        ],
                        "signature": "Transfer(address,address,uint256)"
                    },
                    "id": 1,
                    "logData": "0x00000000000000000000000000000000000000000000000000000002540be400",
                    "logDecoded": true,
                    "operation": "EVENT",
                    "revert": false,
                    "status": true,
                    "topics": [
                        "0xddf252ad1be2c89b69c2b068fc378daa952ba7f163c4a11628f55a4df523b3ef",
                        "0x000000000000000000000000e05e391c437fd065d2b288947a74d8df9dcfc300",
                        "0x000000000000000000000000a4bca04f69c9441e83cab9e2d7223a13b9717a5f"
                    ]
                },
                "nodeType": 1
            }
        },
        "gasFlame": [
            {
                "children": [
                    {
                        "children": [
                            {
                                "children": [],
                                "depth": 0,
                                "name": "Initial Gas",
                                "value": 23064
                            },
                            {
                                "children": [],
                                "depth": 0,
                                "name": "Executed Gas",
                                "value": 29296
                            }
                        ],
                        "depth": -1,
                        "name": "Actual Gas Used",
                        "value": 52360
                    },
                    {
                        "children": [],
                        "depth": -1,
                        "name": "Refunded Gas",
                        "value": 0
                    }
                ],
                "depth": -2,
                "name": "Total Gas",
                "value": 52360
            }
        ],
        "isConfirmed": true,
        "mainTrace": [
            {
                "children": [
                    {
                        "children": [
                            {
                                "children": [],
                                "depth": 1,
                                "id": 1,
                                "order": 1
                            }
                        ],
                        "depth": 0,
                        "id": 0,
                        "order": 0
                    }
                ],
                "depth": -1,
                "id": -1,
                "order": -1
            }
        ],
        "mainTraceNodeCount": 2,
        "parentIdMap": {
            "0": -1,
            "1": 0
        },
        "tidyTrace": [
            {
                "children": [
                    {
                        "children": [
                            {
                                "children": [],
                                "depth": 1,
                                "id": 1,
                                "order": 1
                            }
                        ],
                        "depth": 0,
                        "id": 0,
                        "order": 0
                    }
                ],
                "depth": -1,
                "id": -1,
                "order": -1
            }
        ],
        "tidyTraceNodeCount": 2
    },
    "state_change": {
        "stateChanges": [
            {
                "address": "0x3b8a1122316a9520b4ffe867f56a130c1524a64f",
                "erc": "",
                "slots": [
                    {
                        "current": "0x000000000000000000000000000000000000000000000000000002fedec5c916",
                        "key": "0x39545ee57a66b1e1bfe90b8d99b7e750c44d389685be15951ea701c02665cdd2",
                        "prev": "0x0000000000000000000000000000000000000000000000000000030132d1ad16"
                    },
                    {
                        "current": "0x00000000000000000000000000000000000000000000000000000002540be400",
                        "key": "0x7b3cfc85996c90708d3a7b0eea251f1d37530918d9960396639088a33b32880e",
                        "prev": "0x0000000000000000000000000000000000000000000000000000000000000000"
                    }
                ],
                "storageVariables": []
            }
        ]
    }
}