{
    "balance_change": {
        "balanceChanges": []
    },
    "profile": {
        "basic_info": {
            "baseFee": "22.492554794",
            "blockNumber": 19549751,
            "callData": "0x9aaab648641d5d5a62d4f9f32089cd926bb6a9b52b310247e14f73ede8e704e0252a1b6200000000000000000000000000000000000000000000000000000000005a1d881972e717953e175fb9e08eecb7e7297ab9fe9457f7a89947f748532758dc649d00000000000000000000000000000000000000000000000000000000012a4e30",
            "debugEnable": true,
            "errorInfo": "",
            "eventCount": 1,
            "feeRecipient": "0x95222290dd7278aa3ddd389cc1e1d165cc4bafe5",
            "formatValue": "0",
            "gasLimit": 87758,
            "gasPrice": "23.492554794",
            "gasUsed": 86850,
            "intTxnCount": 1,
            "internalRevert": false,
            "internalRevertMessage": "",
            "isContractCreation": false,
            "isFlashloan": false,
            "maxFee": "45.27499657",
            "nonce": 3281,
            "overwritedBlockNumber": -1,
            "priorityFee": "1",
            "receiver": "0x1145e7848c8b64c6cab86fd6d378733385c5c3ba",
            "revertMessage": "",
            "sender": "0x03e820562ffd2e0390787cad706eaf1ff98c2608",
            "simulationEnable": true,
            "sourceTxnHash": "0x3d8d0ae44e67caae71e25bd54a2ad0c485d5c44907be685e34e7daeb89c43f89",
            "status": true,
            "timestamp": "2024-03-30T22:32:23Z",
            "transactionFee": "0.0020403283838589",
            "txnHash": "0x3d8d0ae44e67caae71e25bd54a2ad0c485d5c44907be685e34e7daeb89c43f89",
            "txnIndex": 70,
            "type": 2,
            "value": "0"
        },
        "fund_flow": [],
        "token_infos": [
            {
                "address": "0xc02aaa39b223fe8d0a0e5c4f27ead9083c756cc2",
                "decimals": 18
            },
            {
                "address": "0xeeeeeeeeeeeeeeeeeeeeeeeeeeeeeeeeeeeeeeee",
                "decimals": 18
            }
        ]
    },
    "address_label": {
        "labels": [
            {
                "address": "0x0000000000000000000000000000000000000004",
                "label": "Precompiled"
            },
            {
                "address": "0xeeeeeeeeeeeeeeeeeeeeeeeeeeeeeeeeeeeeeeee",
                "label": "Ether"
            },
            {
                "address": "0x1145e7848c8b64c6cab86fd6d378733385c5c3ba",
                "label": "Proxy"
            },
            {
                "address": "0xad206309916fe08a27221133dde05a8f30f75e29",
                "label": "L2OutputOracle"
            },
            {
                "address": "0x0000000000000000000000000000000000000001",
                "label": "Precompiled"
            },
            {
                "address": "0x0000000000000000000000000000000000000002",
                "label": "Precompiled"
            },
            {
                "address": "0x0000000000000000000000000000000000000003",
                "label": "Precompiled"
            }
        ]
    },
    "trace": {
        "accountLabels": null,
        "dataMap": {
            "-1": {
                "invocation": {
                    "address": "0x03e820562ffd2e0390787cad706eaf1ff98c2608",
                    "callData": "",
                    "decodedMethod": null,
                    "errorInfo": "",
                    "fromAddress": "",
                    "gasUsed": 0,
                    "id": -1,
                    "methodDecoded": false,
                    "operation": "",
                    "output": "",
                    "revert": false,
                    "revertMessage": "",
                    "selector": "",
                    "status": false,
                    "value": ""
                },
                "nodeType": 0
            },
            "0": {
                "invocation": {
                    "address": "0x1145e7848c8b64c6cab86fd6d378733385c5c3ba",
                    "callData": "0x641d5d5a62d4f9f32089cd926bb6a9b52b310247e14f73ede8e704e0252a1b6200000000000000000000000000000000000000000000000000000000005a1d881972e717953e175fb9e08eecb7e7297ab9fe9457f7a89947f748532758dc649d00000000000000000000000000000000000000000000000000000000012a4e30",
                    "decodedMethod": {
                        "callParams": [
                            {
                                "name": "_outputRoot",
                                "type": "bytes32",
                                "value": "0x641d5d5a62d4f9f32089cd926bb6a9b52b310247e14f73ede8e704e0252a1b62"
                            },
                            {
                                "name": "_l2BlockNumber",
                                "type": "uint256",
                                "value": "5,905,800"
                            },
                            {
                                "name": "_l1BlockHash",
                                "type": "bytes32",
                                "value": "0x1972e717953e175fb9e08eecb7e7297ab9fe9457f7a89947f748532758dc649d"
                            },
                            {
                                "name": "_l1BlockNumber",
                                "type": "uint256",
                                "value": "19,549,744"
                            }
                        ],
                        "constructorArguments": "",
                        "name": "proposeL2Output",
                        "returnParams": [],
                        "signature": "proposeL2Output(bytes32,uint256,bytes32,uint256)"
                    },
                    "errorInfo": "",
                    "fromAddress": "0x03e820562ffd2e0390787cad706eaf1ff98c2608",
                    "gasUsed": 86850,
                    "id": 0,
                    "methodDecoded": true,
                    "operation": "CALL",
                    "output": "",
                    "revert": false,
                    "revertMessage": "",
                    "selector": "0x9aaab648",
                    "status": true,
                    "value": "0"
                },
                "nodeType": 0
            },
            "1": {
                "invocation": {
                    "address": "0xad206309916fe08a27221133dde05a8f30f75e29",
                    "callData": "0x641d5d5a62d4f9f32089cd926bb6a9b52b310247e14f73ede8e704e0252a1b6200000000000000000000000000000000000000000000000000000000005a1d881972e717953e175fb9e08eecb7e7297ab9fe9457f7a89947f748532758dc649d00000000000000000000000000000000000000000000000000000000012a4e30",
                    "decodedMethod": {
                        "callParams": [
                            {
                                "name": "_outputRoot",
                                "type": "bytes32",
                                "value": "0x641d5d5a62d4f9f32089cd926bb6a9b52b310247e14f73ede8e704e0252a1b62"
                            },
                            {
                                "name": "_l2BlockNumber",
                                "type": "uint256",
                                "value": "5,905,800"
                            },
                            {
                                "name": "_l1BlockHash",
                                "type": "bytes32",
                                "value": "0x1972e717953e175fb9e08eecb7e7297ab9fe9457f7a89947f748532758dc649d"
                            },
                            {
                                "name": "_l1BlockNumber",
                                "type": "uint256",
                                "value": "19,549,744"
                            }
                        ],
                        "constructorArguments": "",
                        "name": "proposeL2Output",
                        "returnParams": [],
                        "signature": "proposeL2Output(bytes32,uint256,bytes32,uint256)"
                    },
                    "errorInfo": "",
                    "fromAddress": "0x1145e7848c8b64c6cab86fd6d378733385c5c3ba",
                    "gasUsed": 59424,
                    "id": 1,
                    "methodDecoded": true,
                    "operation": "DELEGATECALL",
                    "output": "",
                    "revert": false,
                    "revertMessage": "",
                    "selector": "0x9aaab648",
                    "status": true,
                    "value": "0"
                },
                "nodeType": 0
            },
            "2": {
                "event": {
                    "contract": "0x1145e7848c8b64c6cab86fd6d378733385c5c3ba",
                    "decodedLog": {
                        "name": "OutputProposed",
                        "params": [
                            {
                                "name": "outputRoot",
                                "type": "bytes32",
                                "value": "0x641d5d5a62d4f9f32089cd926bb6a9b52b310247e14f73ede8e704e0252a1b62"
                            },
                            {
                                "name": "l2OutputIndex",
                                "type": "uint256",
                                "value": "3,280"
                            },
                            {
                                "name": "l2BlockNumber",
                                "type": "uint256",
                                "value": "5,905,800"
                            },
                            {
                                "name": "l1Timestamp",
                                "type": "uint256",
                                "value": "1,711,837,943"
                            }
                        ],
                        "signature": "OutputProposed(bytes32,uint256,uint256,uint256)"
                    },
                    "id": 2,
                    "logData": "0x00000000000000000000000000000000000000000000000000000000660892f7",
                    "logDecoded": true,
                    "operation": "EVENT",
                    "revert": false,
                    "status": true,
                    "topics": [
                        "0xa7aaf2512769da4e444e3de247be2564225c2e7a8f74cfe528e46e17d24868e2",
                        "0x641d5d5a62d4f9f32089cd926bb6a9b52b310247e14f73ede8e704e0252a1b62",
                        "0x0000000000000000000000000000000000000000000000000000000000000cd0",
                        "0x00000000000000000000000000000000000000000000000000000000005a1d88"
                    ]
                },
                "nodeType": 1
            }
        },
        "gasFlame": [
            {
                "children": [
                    {
                        "children": [
                            {
                                "children": [],
                                "depth": 0,
                                "name": "Initial Gas",
                                "value": 22428
                            },
                            {
                                "children": [
                                    {
                                        "children": [],
                                        "depth": 1,
                                        "name": "proposeL2Output",
                                        "value": 59424
                                    }
                                ],
                                "depth": 0,
                                "name": "Executed Gas",
                                "value": 64422
                            }
                        ],
                        "depth": -1,
                        "name": "Actual Gas Used",
                        "value": 86850
                    },
                    {
                        "children": [],
                        "depth": -1,
                        "name": "Refunded Gas",
                        "value": 0
                    }
                ],
                "depth": -2,
                "name": "Total Gas",
                "value": 86850
            }
        ],
        "isConfirmed": true,
        "mainTrace": [
            {
                "children": [
                    {
                        "children": [
                            {
                                "children": [
                                    {
                                        "children": [],
                                        "depth": 2,
                                        "id": 2,
                                        "order": 2
                                    }
                                ],
                                "depth": 1,
                                "id": 1,
                                "order": 1
                            }
                        ],
                        "depth": 0,
                        "id": 0,
                        "order": 0
                    }
                ],
                "depth": -1,
                "id": -1,
                "order": -1
            }
        ],
        "mainTraceNodeCount": 3,
        "parentIdMap": {
            "0": -1,
            "1": 0,
            "2": 1
        },
        "tidyTrace": [
            {
                "children": [
                    {
                        "children": [
                            {
                                "children": [
                                    {
                                        "children": [],
                                        "depth": 2,
                                        "id": 2,
                                        "order": 2
                                    }
                                ],
                                "depth": 1,
                                "id": 1,
                                "order": 1
                            }
                        ],
                        "depth": 0,
                        "id": 0,
                        "order": 0
                    }
                ],
                "depth": -1,
                "id": -1,
                "order": -1
            }
        ],
        "tidyTraceNodeCount": 3
    },
    "state_change": {
        "stateChanges": [
            {
                "address": "0x1145e7848c8b64c6cab86fd6d378733385c5c3ba",
                "erc": "",
                "slots": [
                    {
                        "current": "0x0000000000000000000000000000000000000000000000000000000000000cd1",
                        "key": "0x0000000000000000000000000000000000000000000000000000000000000003",
                        "prev": "0x0000000000000000000000000000000000000000000000000000000000000cd0"
                    },
                    {
                        "current": "0x641d5d5a62d4f9f32089cd926bb6a9b52b310247e14f73ede8e704e0252a1b62",
                        "key": "0xc2575a0e9e593c00f959f8c92f12db2869c3395a3b0502d05e2516446f7211fb",
                        "prev": "0x0000000000000000000000000000000000000000000000000000000000000000"
                    },
                    {
                        "current": "0x000000000000000000000000005a1d88000000000000000000000000660892f7",
                        "key": "0xc2575a0e9e593c00f959f8c92f12db2869c3395a3b0502d05e2516446f7211fc",
                        "prev": "0x0000000000000000000000000000000000000000000000000000000000000000"
                    }
                ],
                "storageVariables": []
            }
        ]
    }
}