{
    "balance_change": {
        "balanceChanges": [
            {
                "account": "0x000000000000084e91743124a982076c59f10084",
                "assets": [
                    {
                        "address": "0xc02aaa39b223fe8d0a0e5c4f27ead9083c756cc2",
                        "amount": "55.170038402776106887",
                        "iconUrl": "https://assets.blocksec.com/icon/f1cb2d02c471d545bbc7722daf3277fd852d98e63d118771af7047bd8256c516.png",
                        "isERC1155": false,
                        "isERC721": false,
                        "sign": false,
                        "value": "29685.56324204159754"
                    },
                    {
                        "address": "0x28cb7e841ee97947a86b06fa4090c8451f64c0be",
                        "amount": "40.331007220926767163",
                        "iconUrl": "",
                        "isERC1155": false,
                        "isERC721": false,
                        "sign": true,
                        "value": "27857.34242"
                    }
                ]
            },
            {
                "account": "0x1d6432aefeae2c0ff1393120541863822a4e6fa7",
                "assets": [
                    {
                        "address": "0xc02aaa39b223fe8d0a0e5c4f27ead9083c756cc2",
                        "amount": "55.170038402776106887",
                        "iconUrl": "https://assets.blocksec.com/icon/f1cb2d02c471d545bbc7722daf3277fd852d98e63d118771af7047bd8256c516.png",
                        "isERC1155": false,
                        "isERC721": false,
                        "sign": true,
                        "value": "29685.56324204159754"
                    },
                    {
                        "address": "0x28cb7e841ee97947a86b06fa4090c8451f64c0be",
                        "amount": "40.331007220926767163",
                        "iconUrl": "",
                        "isERC1155": false,
                        "isERC721": false,
                        "sign": false,
                        "value": "27857.34242"
                    }
                ]
            }
        ]
    },
    "profile": {
        "basic_info": {
            "baseFee": "",
            "blockNumber": 11348594,
            "callData": "0x1a8d6265000002191100000000f9304008fcf8dacb75e37f59393cd4f9538a5a9a85e51000000000000000d5e97887c6ffe3be7a0000000000000002fda3599fba2107870000000000000000000000000000000000000000000000013241570cb0da0303",
            "debugEnable": true,
            "errorInfo": "",
            "eventCount": 4,
            "feeRecipient": "0xea674fdde714fd979de3edf0f56aa9716b898ec8",
            "formatValue": "0",
            "gasLimit": 177584,
            "gasPrice": "89.792203289",
            "gasUsed": 84623,
            "intTxnCount": 6,
            "internalRevert": false,
            "internalRevertMessage": "",
            "isContractCreation": false,
            "isFlashloan": false,
            "maxFee": "",
            "nonce": 41367,
            "overwritedBlockNumber": -1,
            "priorityFee": "",
            "receiver": "0x000000000000084e91743124a982076c59f10084",
            "revertMessage": "",
            "sender": "0xdd07249e403979bd79848c27aa5454c7e66bdee7",
            "simulationEnable": true,
            "sourceTxnHash": "0x3d7991614964c6207db97087e825a4677e44eb094c582a7db99b4d9a9cfea719",
            "status": true,
            "timestamp": "2020-11-28T18:09:47Z",
            "transactionFee": "0.007598485618925047",
            "txnHash": "0x3d7991614964c6207db97087e825a4677e44eb094c582a7db99b4d9a9cfea719",
            "txnIndex": 34,
            "type": 0,
            "value": "0"
        },
        "fund_flow": [
            {
                "amount": "55.170038402776106887",
                "from": "0x000000000000084e91743124a982076c59f10084",
                "id": 1,
                "isERC1155": false,
                "isERC721": false,
                "isReverted": false,
                "order": 1,
                "to": "0x1d6432aefeae2c0ff1393120541863822a4e6fa7",
                "token": "0xc02aaa39b223fe8d0a0e5c4f27ead9083c756cc2"
            },
            {
                "amount": "40.331007220926767163",
                "from": "0x1d6432aefeae2c0ff1393120541863822a4e6fa7",
                "id": 2,
                "isERC1155": false,
                "isERC721": false,
                "isReverted": false,
                "order": 2,
                "to": "0x000000000000084e91743124a982076c59f10084",
                "token": "0x28cb7e841ee97947a86b06fa4090c8451f64c0be"
            }
        ],
        "token_infos": [
            {
                "address": "0x28cb7e841ee97947a86b06fa4090c8451f64c0be",
                "decimals": 18
            },
            {
                "address": "0xc02aaa39b223fe8d0a0e5c4f27ead9083c756cc2",
                "decimals": 18
            },
            {
                "address": "0xeeeeeeeeeeeeeeeeeeeeeeeeeeeeeeeeeeeeeeee",
                "decimals": 18
            }
        ]
    },
    "address_label": {
        "labels": [
            {
                "address": "0xeeeeeeeeeeeeeeeeeeeeeeeeeeeeeeeeeeeeeeee",
                "label": "Ether"
            },
            {
                "address": "0x1d6432aefeae2c0ff1393120541863822a4e6fa7",
                "label": "Uniswap V2: YFL"
            },
            {
                "address": "0x28cb7e841ee97947a86b06fa4090c8451f64c0be",
                "label": "Yflink: YFL Token"
            },
            {
                "address": "0x0000000000000000000000000000000000000002",
                "label": "Precompiled"
            },
            {
                "address": "0x000000000000084e91743124a982076c59f10084",
                "label": "MEV Bot: 0x000...084"
            },
            {
                "address": "0xc02aaa39b223fe8d0a0e5c4f27ead9083c756cc2",
                "label": "Wrapped Ether (WETH)"
            },
            {
                "address": "0x0000000000000000000000000000000000000001",
                "label": "Precompiled"
            },
            {
                "address": "0x0000000000000000000000000000000000000003",
                "label": "Precompiled"
            },
            {
                "address": "0x0000000000000000000000000000000000000004",
                "label": "Precompiled"
            }
        ]
    },
    "trace": {
        "accountLabels": null,
        "dataMap": {
            "-1": {
                "invocation": {
                    "address": "0xdd07249e403979bd79848c27aa5454c7e66bdee7",
                    "callData": "",
                    "decodedMethod": null,
                    "errorInfo": "",
                    "fromAddress": "",
                    "gasUsed": 0,
                    "id": -1,
                    "methodDecoded": false,
                    "operation": "",
                    "output": "",
                    "revert": false,
                    "revertMessage": "",
                    "selector": "",
                    "status": false,
                    "value": ""
                },
                "nodeType": 0
            },
            "0": {
                "invocation": {
                    "address": "0x000000000000084e91743124a982076c59f10084",
                    "callData": "0x000002191100000000f9304008fcf8dacb75e37f59393cd4f9538a5a9a85e51000000000000000d5e97887c6ffe3be7a0000000000000002fda3599fba2107870000000000000000000000000000000000000000000000013241570cb0da0303",
                    "decodedMethod": null,
                    "errorInfo": "",
                    "fromAddress": "0xdd07249e403979bd79848c27aa5454c7e66bdee7",
                    "gasUsed": 84623,
                    "id": 0,
                    "methodDecoded": false,
                    "operation": "CALL",
                    "output": "",
                    "revert": false,
                    "revertMessage": "",
                    "selector": "0x1a8d6265",
                    "status": true,
                    "value": "0"
                },
                "nodeType": 0
            },
            "1": {
                "invocation": {
                    "address": "0x1d6432aefeae2c0ff1393120541863822a4e6fa7",
                    "callData": "0x",
                    "decodedMethod": {
                        "callParams": [],
                        "constructorArguments": "",
                        "name": "getReserves",
                        "returnParams": [
                            {
                                "name": "_reserve0",
                                "type": "uint112",
                                "value": "2,732,733,456,496,443,694,737"
                            },
                            {
                                "name": "_reserve1",
                                "type": "uint112",
                                "value": "3,671,971,936,417,433,189,192"
                            },
                            {
                                "name": "_blockTimestampLast",
                                "type": "uint32",
                                "value": "1,606,586,987"
                            }
                        ],
                        "signature": "getReserves()"
                    },
                    "errorInfo": "",
                    "fromAddress": "0x000000000000084e91743124a982076c59f10084",
                    "gasUsed": 1204,
                    "id": 1,
                    "methodDecoded": true,
                    "operation": "STATICCALL",
                    "output": "0x000000000000000000000000000000000000000000000094244b880a87ea9e910000000000000000000000000000000000000000000000c70ed8ed3b045afb48000000000000000000000000000000000000000000000000000000005fc2926b",
                    "revert": false,
                    "revertMessage": "",
                    "selector": "0x0902f1ac",
                    "status": true,
                    "value": "0"
                },
                "nodeType": 0
            },
            "10": {
                "event": {
                    "contract": "0x1d6432aefeae2c0ff1393120541863822a4e6fa7",
                    "decodedLog": {
                        "name": "Swap",
                        "params": [
                            {
                                "name": "sender",
                                "type": "address",
                                "value": "0x000000000000084e91743124a982076c59f10084"
                            },
                            {
                                "name": "to",
                                "type": "address",
                                "value": "0x000000000000084e91743124a982076c59f10084"
                            },
                            {
                                "name": "amount0In",
                                "type": "uint256",
                                "value": "0"
                            },
                            {
                                "name": "amount1In",
                                "type": "uint256",
                                "value": "55,170,038,402,776,106,887"
                            },
                            {
                                "name": "amount0Out",
                                "type": "uint256",
                                "value": "40,331,007,220,926,767,163"
                            },
                            {
                                "name": "amount1Out",
                                "type": "uint256",
                                "value": "0"
                            }
                        ],
                        "signature": "Swap(address,uint256,uint256,uint256,uint256,address)"
                    },
                    "id": 10,
                    "logData": "0x0000000000000000000000000000000000000000000000000000000000000000000000000000000000000000000000000000000000000002fda3599fba2107870000000000000000000000000000000000000000000000022fb48562750de03b0000000000000000000000000000000000000000000000000000000000000000",
                    "logDecoded": true,
                    "operation": "EVENT",
                    "revert": false,
                    "status": true,
                    "topics": [
                        "0xd78ad95fa46c994b6551d0da85fc275fe613ce37657fb8d5e3d130840159d822",
                        "0x000000000000000000000000000000000000084e91743124a982076c59f10084",
                        "0x000000000000000000000000000000000000084e91743124a982076c59f10084"
                    ]
                },
                "nodeType": 1
            },
            "2": {
                "invocation": {
                    "address": "0xc02aaa39b223fe8d0a0e5c4f27ead9083c756cc2",
                    "callData": "0x0000000000000000000000001d6432aefeae2c0ff1393120541863822a4e6fa7000000000000000000000000000000000000000000000002fda3599fba210787",
                    "decodedMethod": {
                        "callParams": [
                            {
                                "name": "dst",
                                "type": "address",
                                "value": "0x1d6432aefeae2c0ff1393120541863822a4e6fa7"
                            },
                            {
                                "decimalAvailable": true,
                                "name": "wad",
                                "type": "uint256",
                                "value": "55,170,038,402,776,106,887"
                            }
                        ],
                        "constructorArguments": "",
                        "name": "transfer",
                        "returnParams": [
                            {
                                "name": "",
                                "type": "bool",
                                "value": true
                            }
                        ],
                        "signature": "transfer(address,uint256)"
                    },
                    "errorInfo": "",
                    "fromAddress": "0x000000000000084e91743124a982076c59f10084",
                    "gasUsed": 15162,
                    "id": 2,
                    "methodDecoded": true,
                    "operation": "CALL",
                    "output": "0x0000000000000000000000000000000000000000000000000000000000000001",
                    "revert": false,
                    "revertMessage": "",
                    "selector": "0xa9059cbb",
                    "status": true,
                    "value": "0"
                },
                "nodeType": 0
            },
            "3": {
                "event": {
                    "contract": "0xc02aaa39b223fe8d0a0e5c4f27ead9083c756cc2",
                    "decodedLog": {
                        "name": "Transfer",
                        "params": [
                            {
                                "name": "src",
                                "type": "address",
                                "value": "0x000000000000084e91743124a982076c59f10084"
                            },
                            {
                                "name": "dst",
                                "type": "address",
                                "value": "0x1d6432aefeae2c0ff1393120541863822a4e6fa7"
                            },
                            {
                                "decimalAvailable": true,
                                "name": "wad",
                                "type": "uint256",
                                "value": "55,170,038,402,776,106,887"
                            }
                        ],
                        "signature": "Transfer(address,address,uint256)"
                    },
                    "id": 3,
                    "logData": "0x000000000000000000000000000000000000000000000002fda3599fba210787",
                    "logDecoded": true,
                    "operation": "EVENT",
                    "revert": false,
                    "status": true,
                    "topics": [
                        "0xddf252ad1be2c89b69c2b068fc378daa952ba7f163c4a11628f55a4df523b3ef",
                        "0x000000000000000000000000000000000000084e91743124a982076c59f10084",
                        "0x0000000000000000000000001d6432aefeae2c0ff1393120541863822a4e6fa7"
                    ]
                },
                "nodeType": 1
            },
            "4": {
                "invocation": {
                    "address": "0x1d6432aefeae2c0ff1393120541863822a4e6fa7",
                    "callData": "0x0000000000000000000000000000000000000000000000022fb48562750de03b0000000000000000000000000000000000000000000000000000000000000000000000000000000000000000000000000000084e91743124a982076c59f1008400000000000000000000000000000000000000000000000000000000000000800000000000000000000000000000000000000000000000000000000000000000",
                    "decodedMethod": {
                        "callParams": [
                            {
                                "name": "amount0Out",
                                "type": "uint256",
                                "value": "40,331,007,220,926,767,163"
                            },
                            {
                                "name": "amount1Out",
                                "type": "uint256",
                                "value": "0"
                            },
                            {
                                "name": "to",
                                "type": "address",
                                "value": "0x000000000000084e91743124a982076c59f10084"
                            },
                            {
                                "name": "data",
                                "type": "bytes",
                                "value": "0x"
                            }
                        ],
                        "constructorArguments": "",
                        "name": "swap",
                        "returnParams": [],
                        "signature": "swap(uint256,uint256,address,bytes)"
                    },
                    "errorInfo": "",
                    "fromAddress": "0x000000000000084e91743124a982076c59f10084",
                    "gasUsed": 43927,
                    "id": 4,
                    "methodDecoded": true,
                    "operation": "CALL",
                    "output": "",
                    "revert": false,
                    "revertMessage": "",
                    "selector": "0x022c0d9f",
                    "status": true,
                    "value": "0"
                },
                "nodeType": 0
            },
            "5": {
                "invocation": {
                    "address": "0x28cb7e841ee97947a86b06fa4090c8451f64c0be",
                    "callData": "0x000000000000000000000000000000000000084e91743124a982076c59f100840000000000000000000000000000000000000000000000022fb48562750de03b",
                    "decodedMethod": {
                        "callParams": [
                            {
                                "name": "recipient",
                                "type": "address",
                                "value": "0x000000000000084e91743124a982076c59f10084"
                            },
                            {
                                "decimalAvailable": true,
                                "name": "amount",
                                "type": "uint256",
                                "value": "40,331,007,220,926,767,163"
                            }
                        ],
                        "constructorArguments": "",
                        "name": "transfer",
                        "returnParams": [
                            {
                                "name": "",
                                "type": "bool",
                                "value": true
                            }
                        ],
                        "signature": "transfer(address,uint256)"
                    },
                    "errorInfo": "",
                    "fromAddress": "0x1d6432aefeae2c0ff1393120541863822a4e6fa7",
                    "gasUsed": 14496,
                    "id": 5,
                    "methodDecoded": true,
                    "operation": "CALL",
                    "output": "0x0000000000000000000000000000000000000000000000000000000000000001",
                    "revert": false,
                    "revertMessage": "",
                    "selector": "0xa9059cbb",
                    "status": true,
                    "value": "0"
                },
                "nodeType": 0
            },
            "6": {
                "event": {
                    "contract": "0x28cb7e841ee97947a86b06fa4090c8451f64c0be",
                    "decodedLog": {
                        "name": "Transfer",
                        "params": [
                            {
                                "name": "from",
                                "type": "address",
                                "value": "0x1d6432aefeae2c0ff1393120541863822a4e6fa7"
                            },
                            {
                                "name": "to",
                                "type": "address",
                                "value": "0x000000000000084e91743124a982076c59f10084"
                            },
                            {
                                "decimalAvailable": true,
                                "name": "value",
                                "type": "uint256",
                                "value": "40,331,007,220,926,767,163"
                            }
                        ],
                        "signature": "Transfer(address,address,uint256)"
                    },
                    "id": 6,
                    "logData": "0x0000000000000000000000000000000000000000000000022fb48562750de03b",
                    "logDecoded": true,
                    "operation": "EVENT",
                    "revert": false,
                    "status": true,
                    "topics": [
                        "0xddf252ad1be2c89b69c2b068fc378daa952ba7f163c4a11628f55a4df523b3ef",
                        "0x0000000000000000000000001d6432aefeae2c0ff1393120541863822a4e6fa7",
                        "0x000000000000000000000000000000000000084e91743124a982076c59f10084"
                    ]
                },
                "nodeType": 1
            },
            "7": {
                "invocation": {
                    "address": "0x28cb7e841ee97947a86b06fa4090c8451f64c0be",
                    "callData": "0x0000000000000000000000001d6432aefeae2c0ff1393120541863822a4e6fa7",
                    "decodedMethod": {
                        "callParams": [
                            {
                                "name": "account",
                                "type": "address",
                                "value": "0x1d6432aefeae2c0ff1393120541863822a4e6fa7"
                            }
                        ],
                        "constructorArguments": "",
                        "name": "balanceOf",
                        "returnParams": [
                            {
                                "decimalAvailable": true,
                                "name": "",
                                "type": "uint256",
                                "value": "2,692,402,449,275,516,927,574"
                            }
                        ],
                        "signature": "balanceOf(address)"
                    },
                    "errorInfo": "",
                    "fromAddress": "0x1d6432aefeae2c0ff1393120541863822a4e6fa7",
                    "gasUsed": 1190,
                    "id": 7,
                    "methodDecoded": true,
                    "operation": "STATICCALL",
                    "output": "0x000000000000000000000000000000000000000000000091f49702a812dcbe56",
                    "revert": false,
                    "revertMessage": "",
                    "selector": "0x70a08231",
                    "status": true,
                    "value": "0"
                },
                "nodeType": 0
            },
            "8": {
                "invocation": {
                    "address": "0xc02aaa39b223fe8d0a0e5c4f27ead9083c756cc2",
                    "callData": "0x0000000000000000000000001d6432aefeae2c0ff1393120541863822a4e6fa7",
                    "decodedMethod": {
                        "callParams": [
                            {
                                "name": "",
                                "type": "address",
                                "value": "0x1d6432aefeae2c0ff1393120541863822a4e6fa7"
                            }
                        ],
                        "constructorArguments": "",
                        "name": "balanceOf",
                        "returnParams": [
                            {
                                "decimalAvailable": true,
                                "name": "",
                                "type": "uint256",
                                "value": "3,727,141,974,820,209,296,079"
                            }
                        ],
                        "signature": "balanceOf(address)"
                    },
                    "errorInfo": "",
                    "fromAddress": "0x1d6432aefeae2c0ff1393120541863822a4e6fa7",
                    "gasUsed": 1234,
                    "id": 8,
                    "methodDecoded": true,
                    "operation": "STATICCALL",
                    "output": "0x0000000000000000000000000000000000000000000000ca0c7c46dabe7c02cf",
                    "revert": false,
                    "revertMessage": "",
                    "selector": "0x70a08231",
                    "status": true,
                    "value": "0"
                },
                "nodeType": 0
            },
            "9": {
                "event": {
                    "contract": "0x1d6432aefeae2c0ff1393120541863822a4e6fa7",
                    "decodedLog": {
                        "name": "Sync",
                        "params": [
                            {
                                "name": "reserve0",
                                "type": "uint112",
                                "value": "2,692,402,449,275,516,927,574"
                            },
                            {
                                "name": "reserve1",
                                "type": "uint112",
                                "value": "3,727,141,974,820,209,296,079"
                            }
                        ],
                        "signature": "Sync(uint112,uint112)"
                    },
                    "id": 9,
                    "logData": "0x000000000000000000000000000000000000000000000091f49702a812dcbe560000000000000000000000000000000000000000000000ca0c7c46dabe7c02cf",
                    "logDecoded": true,
                    "operation": "EVENT",
                    "revert": false,
                    "status": true,
                    "topics": [
                        "0x1c411e9a96e071241c2f21f7726b17ae89e3cab4c78be50e062b03a9fffbbad1"
                    ]
                },
                "nodeType": 1
            }
        },
        "gasFlame": [
            {
                "children": [
                    {
                        "children": [
                            {
                                "children": [],
                                "depth": 0,
                                "name": "Initial Gas",
                                "value": 22084
                            },
                            {
                                "children": [
                                    {
                                        "children": [],
                                        "depth": 1,
                                        "name": "getReserves",
                                        "value": 1204
                                    },
                                    {
                                        "children": [],
                                        "depth": 1,
                                        "name": "transfer",
                                        "value": 15162
                                    },
                                    {
                                        "children": [
                                            {
                                                "children": [],
                                                "depth": 2,
                                                "name": "transfer",
                                                "value": 14496
                                            },
                                            {
                                                "children": [],
                                                "depth": 2,
                                                "name": "balanceOf",
                                                "value": 1190
                                            },
                                            {
                                                "children": [],
                                                "depth": 2,
                                                "name": "balanceOf",
                                                "value": 1234
                                            }
                                        ],
                                        "depth": 1,
                                        "name": "swap",
                                        "value": 43927
                                    }
                                ],
                                "depth": 0,
                                "name": "Executed Gas",
                                "value": 66739
                            }
                        ],
                        "depth": -1,
                        "name": "Actual Gas Used",
                        "value": 84623
                    },
                    {
                        "children": [],
                        "depth": -1,
                        "name": "Refunded Gas",
                        "value": 4200
                    }
                ],
                "depth": -2,
                "name": "Total Gas",
                "value": 88823
            }
        ],
        "isConfirmed": true,
        "mainTrace": [
            {
                "children": [
                    {
                        "children": [
                            {
                                "children": [],
                                "depth": 1,
                                "id": 1,
                                "order": 1
                            },
                            {
                                "children": [
                                    {
                                        "children": [],
                                        "depth": 2,
                                        "id": 3,
                                        "order": 3
                                    }
                                ],
                                "depth": 1,
                                "id": 2,
                                "order": 2
                            },
                            {
                                "children": [
                                    {
                                        "children": [
                                            {
                                                "children": [],
                                                "depth": 3,
                                                "id": 6,
                                                "order": 6
                                            }
                                        ],
                                        "depth": 2,
                                        "id": 5,
                                        "order": 5
                                    },
                                    {
                                        "children": [],
                                        "depth": 2,
                                        "id": 7,
                                        "order": 7
                                    },
                                    {
                                        "children": [],
                                        "depth": 2,
                                        "id": 8,
                                        "order": 8
                                    },
                                    {
                                        "children": [],
                                        "depth": 2,
                                        "id": 9,
                                        "order": 9
                                    },
                                    {
                                        "children": [],
                                        "depth": 2,
                                        "id": 10,
                                        "order": 10
                                    }
                                ],
                                "depth": 1,
                                "id": 4,
                                "order": 4
                            }
                        ],
                        "depth": 0,
                        "id": 0,
                        "order": 0
                    }
                ],
                "depth": -1,
                "id": -1,
                "order": -1
            }
        ],
        "mainTraceNodeCount": 11,
        "parentIdMap": {
            "0": -1,
            "1": 0,
            "10": 4,
            "2": 0,
            "3": 2,
            "4": 0,
            "5": 4,
            "6": 5,
            "7": 4,
            "8": 4,
            "9": 4
        },
        "tidyTrace": [
            {
                "children": [
                    {
                        "children": [
                            {
                                "children": [
                                    {
                                        "children": [],
                                        "depth": 2,
                                        "id": 3,
                                        "order": 3
                                    }
                                ],
                                "depth": 1,
                                "id": 2,
                                "order": 2
                            },
                            {
                                "children": [
                                    {
                                        "children": [
                                            {
                                                "children": [],
                                                "depth": 3,
                                                "id": 6,
                                                "order": 6
                                            }
                                        ],
                                        "depth": 2,
                                        "id": 5,
                                        "order": 5
                                    },
                                    {
                                        "children": [],
                                        "depth": 2,
                                        "id": 9,
                                        "order": 9
                                    },
                                    {
                                        "children": [],
                                        "depth": 2,
                                        "id": 10,
                                        "order": 10
                                    }
                                ],
                                "depth": 1,
                                "id": 4,
                                "order": 4
                            }
                        ],
                        "depth": 0,
                        "id": 0,
                        "order": 0
                    }
                ],
                "depth": -1,
                "id": -1,
                "order": -1
            }
        ],
        "tidyTraceNodeCount": 8
    },
    "state_change": {
        "stateChanges": [
            {
                "address": "0x1d6432aefeae2c0ff1393120541863822a4e6fa7",
                "erc": "ERC-20",
                "slots": [
                    {
                        "current": "0x5fc2926b0000000000ca0c7c46dabe7c02cf000000000091f49702a812dcbe56",
                        "key": "0x0000000000000000000000000000000000000000000000000000000000000008",
                        "prev": "0x5fc2926b0000000000c70ed8ed3b045afb48000000000094244b880a87ea9e91"
                    }
                ],
                "storageVariables": [
                    {
                        "name": "reserve0",
                        "type": "uint112",
                        "value": {
                            "current": "2692402449275516927574",
                            "prev": "2732733456496443694737",
                            "typeTag": 1
                        }
                    },
                    {
                        "name": "reserve1",
                        "type": "uint112",
                        "value": {
                            "current": "3727141974820209296079",
                            "prev": "3671971936417433189192",
                            "typeTag": 1
                        }
                    },
                    {
                        "name": "blockTimestampLast",
                        "type": "uint32",
                        "value": {
                            "current": "1606586987",
                            "prev": "1606586987",
                            "typeTag": 1
                        }
                    }
                ]
            },
            {
                "address": "0x28cb7e841ee97947a86b06fa4090c8451f64c0be",
                "erc": "ERC-20",
                "slots": [
                    {
                        "current": "0x0000000000000000000000000000000000000000000000022fb48562750de03c",
                        "key": "0x4329cdf4e43701215d85144678d116e65340d87bd9c186b57ecb81a2ae021a73",
                        "prev": "0x0000000000000000000000000000000000000000000000000000000000000001"
                    },
                    {
                        "current": "0x000000000000000000000000000000000000000000000091f49702a812dcbe56",
                        "key": "0xef82aeb5cece7d78e3bbe6f60febfb97a20c1af6246bc6d9e099d972750606d9",
                        "prev": "0x000000000000000000000000000000000000000000000094244b880a87ea9e91"
                    }
                ],
                "storageVariables": [
                    {
                        "name": "_balances",
                        "type": "mapping(address => uint256)",
                        "value": {
                            "pairs": [
                                {
                                    "key": "0x000000000000084e91743124a982076c59f10084",
                                    "value": {
                                        "current": "40331007220926767164",
                                        "prev": "1",
                                        "typeTag": 1
                                    }
                                },
                                {
                                    "key": "0x1d6432aefeae2c0ff1393120541863822a4e6fa7",
                                    "value": {
                                        "current": "2692402449275516927574",
                                        "prev": "2732733456496443694737",
                                        "typeTag": 1
                                    }
                                }
                            ],
                            "typeTag": 4
                        }
                    }
                ]
            },
            {
                "address": "0xc02aaa39b223fe8d0a0e5c4f27ead9083c756cc2",
                "erc": "ERC-20",
                "slots": [
                    {
                        "current": "0x000000000000000000000000000000000000000000000011a00e4beb493871c6",
                        "key": "0xb413ba78c8e8c6c304c1a907e5912e6a79df0d7e2c4a61304908b023a7cd9ac0",
                        "prev": "0x0000000000000000000000000000000000000000000000149db1a58b0359794d"
                    },
                    {
                        "current": "0x0000000000000000000000000000000000000000000000ca0c7c46dabe7c02cf",
                        "key": "0xeda57f0e46e74183d8de0b1b1e7fbd258ad79beaa83fe940550f84ba13e6ec76",
                        "prev": "0x0000000000000000000000000000000000000000000000c70ed8ed3b045afb48"
                    }
                ],
                "storageVariables": [
                    {
                        "name": "balanceOf",
                        "type": "mapping(address => uint256)",
                        "value": {
                            "pairs": [
                                {
                                    "key": "0x000000000000084e91743124a982076c59f10084",
                                    "value": {
                                        "current": "325127888422722630086",
                                        "prev": "380297926825498736973",
                                        "typeTag": 1
                                    }
                                },
                                {
                                    "key": "0x1d6432aefeae2c0ff1393120541863822a4e6fa7",
                                    "value": {
                                        "current": "3727141974820209296079",
                                        "prev": "3671971936417433189192",
                                        "typeTag": 1
                                    }
                                }
                            ],
                            "typeTag": 4
                        }
                    }
                ]
            }
        ]
    }
}