{
    "balance_change": {
        "balanceChanges": [
            {
                "account": "0x617a748cfc721bd66840ee9bc54300285fcd9bce",
                "assets": [
                    {
                        "address": "0xaeab22489112ca267ab8deed00d42d0a4d0dfebf",
                        "amount": "3,950.141789719",
                        "iconUrl": "",
                        "isERC1155": false,
                        "isERC721": false,
                        "sign": true,
                        "value": "36.37039733"
                    },
                    {
                        "address": "0xeeeeeeeeeeeeeeeeeeeeeeeeeeeeeeeeeeeeeeee",
                        "amount": "0.04",
                        "iconUrl": "https://assets.blocksec.com/image/1663669189317-3.png",
                        "isERC1155": false,
                        "isERC721": false,
                        "sign": false,
                        "value": "47.310399999999999635"
                    }
                ]
            },
            {
                "account": "0x7cf441f0bcd44615365d39daba2db8ec1a86f340",
                "assets": [
                    {
                        "address": "0xeeeeeeeeeeeeeeeeeeeeeeeeeeeeeeeeeeeeeeee",
                        "amount": "0.0004",
                        "iconUrl": "https://assets.blocksec.com/image/1663669189317-3.png",
                        "isERC1155": false,
                        "isERC721": false,
                        "sign": true,
                        "value": "0.47310399999999999636"
                    }
                ]
            },
            {
                "account": "0xaeab22489112ca267ab8deed00d42d0a4d0dfebf",
                "assets": [
                    {
                        "address": "0xaeab22489112ca267ab8deed00d42d0a4d0dfebf",
                        "amount": "987.535446",
                        "iconUrl": "",
                        "isERC1155": false,
                        "isERC721": false,
                        "sign": true,
                        "value": "8.78704032"
                    }
                ]
            },
            {
                "account": "0xc02aaa39b223fe8d0a0e5c4f27ead9083c756cc2",
                "assets": [
                    {
                        "address": "0xeeeeeeeeeeeeeeeeeeeeeeeeeeeeeeeeeeeeeeee",
                        "amount": "0.0396",
                        "iconUrl": "https://assets.blocksec.com/image/1663669189317-3.png",
                        "isERC1155": false,
                        "isERC721": false,
                        "sign": true,
                        "value": "46.83729599999999964"
                    },
                    {
                        "address": "0xc02aaa39b223fe8d0a0e5c4f27ead9083c756cc2",
                        "amount": "0.0396",
                        "iconUrl": "https://assets.blocksec.com/icon/f1cb2d02c471d545bbc7722daf3277fd852d98e63d118771af7047bd8256c516.png",
                        "isERC1155": false,
                        "isERC721": false,
                        "sign": false,
                        "value": "46.83729599999999964"
                    }
                ]
            },
            {
                "account": "0xdcce69bfa7041383a9afee26d50a18af5a1d098f",
                "assets": [
                    {
                        "address": "0xc02aaa39b223fe8d0a0e5c4f27ead9083c756cc2",
                        "amount": "0.0396",
                        "iconUrl": "https://assets.blocksec.com/icon/f1cb2d02c471d545bbc7722daf3277fd852d98e63d118771af7047bd8256c516.png",
                        "isERC1155": false,
                        "isERC721": false,
                        "sign": true,
                        "value": "46.83729599999999964"
                    },
                    {
                        "address": "0xaeab22489112ca267ab8deed00d42d0a4d0dfebf",
                        "amount": "4,937.677235719",
                        "iconUrl": "",
                        "isERC1155": false,
                        "isERC721": false,
                        "sign": false,
                        "value": "44.5383924"
                    }
                ]
            }
        ]
    },
    "profile": {
        "basic_info": {
            "baseFee": "11.593695902",
            "blockNumber": 16216054,
            "callData": "0x7ff36ab5000000000000000000000000000000000000000000000000000004160dc0819c0000000000000000000000000000000000000000000000000000000000000080000000000000000000000000617a748cfc721bd66840ee9bc54300285fcd9bce00000000000000000000000000000000000000000000000000000000639fe1530000000000000000000000000000000000000000000000000000000000000002000000000000000000000000c02aaa39b223fe8d0a0e5c4f27ead9083c756cc2000000000000000000000000aeab22489112ca267ab8deed00d42d0a4d0dfebf",
            "debugEnable": true,
            "errorInfo": "",
            "eventCount": 6,
            "feeRecipient": "0x690b9a9e9aa1c9db991c7721a92d351db4fac990",
            "formatValue": "0.04",
            "gasLimit": 251422,
            "gasPrice": "19",
            "gasUsed": 186819,
            "intTxnCount": 8,
            "internalRevert": false,
            "internalRevertMessage": "",
            "isContractCreation": false,
            "isFlashloan": false,
            "maxFee": "19",
            "nonce": 302,
            "overwritedBlockNumber": -1,
            "priorityFee": "19",
            "receiver": "0x25553828f22bdd19a20e4f12f052903cb474a335",
            "revertMessage": "",
            "sender": "0x617a748cfc721bd66840ee9bc54300285fcd9bce",
            "simulationEnable": true,
            "sourceTxnHash": "0x3d5e67384039ee242271dfac0c55fbf327d6c9946f7af6ca0e2f97501e110fdd",
            "status": true,
            "timestamp": "2022-12-19T03:28:35Z",
            "transactionFee": "0.003549561",
            "txnHash": "0x3d5e67384039ee242271dfac0c55fbf327d6c9946f7af6ca0e2f97501e110fdd",
            "txnIndex": 7,
            "type": 2,
            "value": "40000000000000000"
        },
        "fund_flow": [
            {
                "amount": "0.04",
                "from": "0x617a748cfc721bd66840ee9bc54300285fcd9bce",
                "id": 1,
                "isERC1155": false,
                "isERC721": false,
                "isReverted": false,
                "order": 1,
                "to": "0x25553828f22bdd19a20e4f12f052903cb474a335",
                "token": "0xeeeeeeeeeeeeeeeeeeeeeeeeeeeeeeeeeeeeeeee"
            },
            {
                "amount": "0.0396",
                "from": "0x25553828f22bdd19a20e4f12f052903cb474a335",
                "id": 2,
                "isERC1155": false,
                "isERC721": false,
                "isReverted": false,
                "order": 2,
                "to": "0xc02aaa39b223fe8d0a0e5c4f27ead9083c756cc2",
                "token": "0xeeeeeeeeeeeeeeeeeeeeeeeeeeeeeeeeeeeeeeee"
            },
            {
                "amount": "0.0396",
                "from": "0xc02aaa39b223fe8d0a0e5c4f27ead9083c756cc2",
                "id": 3,
                "isERC1155": false,
                "isERC721": false,
                "isReverted": false,
                "order": 3,
                "to": "0x25553828f22bdd19a20e4f12f052903cb474a335",
                "token": "0xc02aaa39b223fe8d0a0e5c4f27ead9083c756cc2"
            },
            {
                "amount": "0.0396",
                "from": "0x25553828f22bdd19a20e4f12f052903cb474a335",
                "id": 4,
                "isERC1155": false,
                "isERC721": false,
                "isReverted": false,
                "order": 4,
                "to": "0xdcce69bfa7041383a9afee26d50a18af5a1d098f",
                "token": "0xc02aaa39b223fe8d0a0e5c4f27ead9083c756cc2"
            },
            {
                "amount": "987.535446",
                "from": "0xdcce69bfa7041383a9afee26d50a18af5a1d098f",
                "id": 5,
                "isERC1155": false,
                "isERC721": false,
                "isReverted": false,
                "order": 5,
                "to": "0xaeab22489112ca267ab8deed00d42d0a4d0dfebf",
                "token": "0xaeab22489112ca267ab8deed00d42d0a4d0dfebf"
            },
            {
                "amount": "3,950.141789719",
                "from": "0xdcce69bfa7041383a9afee26d50a18af5a1d098f",
                "id": 6,
                "isERC1155": false,
                "isERC721": false,
                "isReverted": false,
                "order": 6,
                "to": "0x617a748cfc721bd66840ee9bc54300285fcd9bce",
                "token": "0xaeab22489112ca267ab8deed00d42d0a4d0dfebf"
            },
            {
                "amount": "0.0004",
                "from": "0x25553828f22bdd19a20e4f12f052903cb474a335",
                "id": 7,
                "isERC1155": false,
                "isERC721": false,
                "isReverted": false,
                "order": 7,
                "to": "0x7cf441f0bcd44615365d39daba2db8ec1a86f340",
                "token": "0xeeeeeeeeeeeeeeeeeeeeeeeeeeeeeeeeeeeeeeee"
            }
        ],
        "token_infos": [
            {
                "address": "0xaeab22489112ca267ab8deed00d42d0a4d0dfebf",
                "decimals": 9
            },
            {
                "address": "0xc02aaa39b223fe8d0a0e5c4f27ead9083c756cc2",
                "decimals": 18
            },
            {
                "address": "0xeeeeeeeeeeeeeeeeeeeeeeeeeeeeeeeeeeeeeeee",
                "decimals": 18
            }
        ]
    },
    "address_label": {
        "labels": [
            {
                "address": "0xdcce69bfa7041383a9afee26d50a18af5a1d098f",
                "label": "Uniswap V2: ROBAGI"
            },
            {
                "address": "0xaeab22489112ca267ab8deed00d42d0a4d0dfebf",
                "label": "ROBAGI"
            },
            {
                "address": "0x0000000000000000000000000000000000000001",
                "label": "Precompiled"
            },
            {
                "address": "0x0000000000000000000000000000000000000002",
                "label": "Precompiled"
            },
            {
                "address": "0x0000000000000000000000000000000000000003",
                "label": "Precompiled"
            },
            {
                "address": "0x0000000000000000000000000000000000000004",
                "label": "Precompiled"
            },
            {
                "address": "0xeeeeeeeeeeeeeeeeeeeeeeeeeeeeeeeeeeeeeeee",
                "label": "Ether"
            },
            {
                "address": "0xc02aaa39b223fe8d0a0e5c4f27ead9083c756cc2",
                "label": "Wrapped Ether (WETH)"
            }
        ]
    },
    "trace": {
        "accountLabels": null,
        "dataMap": {
            "-1": {
                "invocation": {
                    "address": "0x617a748cfc721bd66840ee9bc54300285fcd9bce",
                    "callData": "",
                    "decodedMethod": null,
                    "errorInfo": "",
                    "fromAddress": "",
                    "gasUsed": 0,
                    "id": -1,
                    "methodDecoded": false,
                    "operation": "",
                    "output": "",
                    "revert": false,
                    "revertMessage": "",
                    "selector": "",
                    "status": false,
                    "value": ""
                },
                "nodeType": 0
            },
            "0": {
                "invocation": {
                    "address": "0x25553828f22bdd19a20e4f12f052903cb474a335",
                    "callData": "0x000000000000000000000000000000000000000000000000000004160dc0819c0000000000000000000000000000000000000000000000000000000000000080000000000000000000000000617a748cfc721bd66840ee9bc54300285fcd9bce00000000000000000000000000000000000000000000000000000000639fe1530000000000000000000000000000000000000000000000000000000000000002000000000000000000000000c02aaa39b223fe8d0a0e5c4f27ead9083c756cc2000000000000000000000000aeab22489112ca267ab8deed00d42d0a4d0dfebf",
                    "decodedMethod": {
                        "callParams": [
                            {
                                "name": "amountOutMin",
                                "type": "uint256",
                                "value": "4,492,766,511,516"
                            },
                            {
                                "name": "path",
                                "type": "address[]",
                                "value": [
                                    "0xc02aaa39b223fe8d0a0e5c4f27ead9083c756cc2",
                                    "0xaeab22489112ca267ab8deed00d42d0a4d0dfebf"
                                ]
                            },
                            {
                                "name": "to",
                                "type": "address",
                                "value": "0x617a748cfc721bd66840ee9bc54300285fcd9bce"
                            },
                            {
                                "name": "deadline",
                                "type": "uint256",
                                "value": "1,671,422,291"
                            }
                        ],
                        "constructorArguments": "",
                        "name": "swapExactETHForTokens",
                        "returnParams": [
                            {
                                "name": "amounts",
                                "type": "uint256[]",
                                "value": [
                                    "39,600,000,000,000,000",
                                    "4,937,677,235,719"
                                ]
                            }
                        ],
                        "signature": "swapExactETHForTokens(uint256,address[],address,uint256)"
                    },
                    "errorInfo": "",
                    "fromAddress": "0x617a748cfc721bd66840ee9bc54300285fcd9bce",
                    "gasUsed": 186819,
                    "id": 0,
                    "methodDecoded": true,
                    "operation": "CALL",
                    "output": "0x00000000000000000000000000000000000000000000000000000000000000200000000000000000000000000000000000000000000000000000000000000002000000000000000000000000000000000000000000000000008caffd7d1b00000000000000000000000000000000000000000000000000000000047da47f6607",
                    "revert": false,
                    "revertMessage": "",
                    "selector": "0x7ff36ab5",
                    "status": true,
                    "value": "0.04"
                },
                "nodeType": 0
            },
            "1": {
                "invocation": {
                    "address": "0xdcce69bfa7041383a9afee26d50a18af5a1d098f",
                    "callData": "0x",
                    "decodedMethod": {
                        "callParams": [],
                        "constructorArguments": "",
                        "name": "getReserves",
                        "returnParams": [
                            {
                                "name": "_reserve0",
                                "type": "uint112",
                                "value": "427,414,672,627,469"
                            },
                            {
                                "name": "_reserve1",
                                "type": "uint112",
                                "value": "3,378,086,082,621,123,970"
                            },
                            {
                                "name": "_blockTimestampLast",
                                "type": "uint32",
                                "value": "1,671,420,491"
                            }
                        ],
                        "signature": "getReserves()"
                    },
                    "errorInfo": "",
                    "fromAddress": "0x25553828f22bdd19a20e4f12f052903cb474a335",
                    "gasUsed": 2504,
                    "id": 1,
                    "methodDecoded": true,
                    "operation": "STATICCALL",
                    "output": "0x000000000000000000000000000000000000000000000000000184bb3bbbd70d0000000000000000000000000000000000000000000000002ee15f64ef52ad8200000000000000000000000000000000000000000000000000000000639fda4b",
                    "revert": false,
                    "revertMessage": "",
                    "selector": "0x0902f1ac",
                    "status": true,
                    "value": "0"
                },
                "nodeType": 0
            },
            "10": {
                "invocation": {
                    "address": "0xaeab22489112ca267ab8deed00d42d0a4d0dfebf",
                    "callData": "0x000000000000000000000000dcce69bfa7041383a9afee26d50a18af5a1d098f",
                    "decodedMethod": {
                        "callParams": [
                            {
                                "name": "account",
                                "type": "address",
                                "value": "0xdcce69bfa7041383a9afee26d50a18af5a1d098f"
                            }
                        ],
                        "constructorArguments": "",
                        "name": "balanceOf",
                        "returnParams": [
                            {
                                "decimalAvailable": true,
                                "name": "",
                                "type": "uint256",
                                "value": "422,476,995,391,750"
                            }
                        ],
                        "signature": "balanceOf(address)"
                    },
                    "errorInfo": "",
                    "fromAddress": "0xdcce69bfa7041383a9afee26d50a18af5a1d098f",
                    "gasUsed": 576,
                    "id": 10,
                    "methodDecoded": true,
                    "operation": "STATICCALL",
                    "output": "0x0000000000000000000000000000000000000000000000000001803d973c7106",
                    "revert": false,
                    "revertMessage": "",
                    "selector": "0x70a08231",
                    "status": true,
                    "value": "0"
                },
                "nodeType": 0
            },
            "11": {
                "invocation": {
                    "address": "0xc02aaa39b223fe8d0a0e5c4f27ead9083c756cc2",
                    "callData": "0x000000000000000000000000dcce69bfa7041383a9afee26d50a18af5a1d098f",
                    "decodedMethod": {
                        "callParams": [
                            {
                                "name": "",
                                "type": "address",
                                "value": "0xdcce69bfa7041383a9afee26d50a18af5a1d098f"
                            }
                        ],
                        "constructorArguments": "",
                        "name": "balanceOf",
                        "returnParams": [
                            {
                                "decimalAvailable": true,
                                "name": "",
                                "type": "uint256",
                                "value": "3,417,686,082,621,123,970"
                            }
                        ],
                        "signature": "balanceOf(address)"
                    },
                    "errorInfo": "",
                    "fromAddress": "0xdcce69bfa7041383a9afee26d50a18af5a1d098f",
                    "gasUsed": 534,
                    "id": 11,
                    "methodDecoded": true,
                    "operation": "STATICCALL",
                    "output": "0x0000000000000000000000000000000000000000000000002f6e0f626c6dad82",
                    "revert": false,
                    "revertMessage": "",
                    "selector": "0x70a08231",
                    "status": true,
                    "value": "0"
                },
                "nodeType": 0
            },
            "12": {
                "event": {
                    "contract": "0xdcce69bfa7041383a9afee26d50a18af5a1d098f",
                    "decodedLog": {
                        "name": "Sync",
                        "params": [
                            {
                                "name": "reserve0",
                                "type": "uint112",
                                "value": "422,476,995,391,750"
                            },
                            {
                                "name": "reserve1",
                                "type": "uint112",
                                "value": "3,417,686,082,621,123,970"
                            }
                        ],
                        "signature": "Sync(uint112,uint112)"
                    },
                    "id": 12,
                    "logData": "0x0000000000000000000000000000000000000000000000000001803d973c71060000000000000000000000000000000000000000000000002f6e0f626c6dad82",
                    "logDecoded": true,
                    "operation": "EVENT",
                    "revert": false,
                    "status": true,
                    "topics": [
                        "0x1c411e9a96e071241c2f21f7726b17ae89e3cab4c78be50e062b03a9fffbbad1"
                    ]
                },
                "nodeType": 1
            },
            "13": {
                "event": {
                    "contract": "0xdcce69bfa7041383a9afee26d50a18af5a1d098f",
                    "decodedLog": {
                        "name": "Swap",
                        "params": [
                            {
                                "name": "sender",
                                "type": "address",
                                "value": "0x25553828f22bdd19a20e4f12f052903cb474a335"
                            },
                            {
                                "name": "to",
                                "type": "address",
                                "value": "0x617a748cfc721bd66840ee9bc54300285fcd9bce"
                            },
                            {
                                "name": "amount0In",
                                "type": "uint256",
                                "value": "0"
                            },
                            {
                                "name": "amount1In",
                                "type": "uint256",
                                "value": "39,600,000,000,000,000"
                            },
                            {
                                "name": "amount0Out",
                                "type": "uint256",
                                "value": "4,937,677,235,719"
                            },
                            {
                                "name": "amount1Out",
                                "type": "uint256",
                                "value": "0"
                            }
                        ],
                        "signature": "Swap(address,uint256,uint256,uint256,uint256,address)"
                    },
                    "id": 13,
                    "logData": "0x0000000000000000000000000000000000000000000000000000000000000000000000000000000000000000000000000000000000000000008caffd7d1b00000000000000000000000000000000000000000000000000000000047da47f66070000000000000000000000000000000000000000000000000000000000000000",
                    "logDecoded": true,
                    "operation": "EVENT",
                    "revert": false,
                    "status": true,
                    "topics": [
                        "0xd78ad95fa46c994b6551d0da85fc275fe613ce37657fb8d5e3d130840159d822",
                        "0x00000000000000000000000025553828f22bdd19a20e4f12f052903cb474a335",
                        "0x000000000000000000000000617a748cfc721bd66840ee9bc54300285fcd9bce"
                    ]
                },
                "nodeType": 1
            },
            "14": {
                "invocation": {
                    "address": "0x7cf441f0bcd44615365d39daba2db8ec1a86f340",
                    "callData": "0x",
                    "decodedMethod": null,
                    "errorInfo": "",
                    "fromAddress": "0x25553828f22bdd19a20e4f12f052903cb474a335",
                    "gasUsed": 0,
                    "id": 14,
                    "methodDecoded": false,
                    "operation": "CALL",
                    "output": "",
                    "revert": false,
                    "revertMessage": "",
                    "selector": "fallback",
                    "status": true,
                    "value": "0.0004"
                },
                "nodeType": 0
            },
            "2": {
                "invocation": {
                    "address": "0xc02aaa39b223fe8d0a0e5c4f27ead9083c756cc2",
                    "callData": "0x",
                    "decodedMethod": {
                        "callParams": [],
                        "constructorArguments": "",
                        "name": "deposit",
                        "returnParams": [],
                        "signature": "deposit()"
                    },
                    "errorInfo": "",
                    "fromAddress": "0x25553828f22bdd19a20e4f12f052903cb474a335",
                    "gasUsed": 23974,
                    "id": 2,
                    "methodDecoded": true,
                    "operation": "CALL",
                    "output": "",
                    "revert": false,
                    "revertMessage": "",
                    "selector": "0xd0e30db0",
                    "status": true,
                    "value": "0.0396"
                },
                "nodeType": 0
            },
            "3": {
                "event": {
                    "contract": "0xc02aaa39b223fe8d0a0e5c4f27ead9083c756cc2",
                    "decodedLog": {
                        "name": "Deposit",
                        "params": [
                            {
                                "name": "dst",
                                "type": "address",
                                "value": "0x25553828f22bdd19a20e4f12f052903cb474a335"
                            },
                            {
                                "name": "wad",
                                "type": "uint256",
                                "value": "39,600,000,000,000,000"
                            }
                        ],
                        "signature": "Deposit(address,uint256)"
                    },
                    "id": 3,
                    "logData": "0x000000000000000000000000000000000000000000000000008caffd7d1b0000",
                    "logDecoded": true,
                    "operation": "EVENT",
                    "revert": false,
                    "status": true,
                    "topics": [
                        "0xe1fffcc4923d04b559f4d29a8bfc6cda04eb5b0d3c460751c2402c5c5cc9109c",
                        "0x00000000000000000000000025553828f22bdd19a20e4f12f052903cb474a335"
                    ]
                },
                "nodeType": 1
            },
            "4": {
                "invocation": {
                    "address": "0xc02aaa39b223fe8d0a0e5c4f27ead9083c756cc2",
                    "callData": "0x000000000000000000000000dcce69bfa7041383a9afee26d50a18af5a1d098f000000000000000000000000000000000000000000000000008caffd7d1b0000",
                    "decodedMethod": {
                        "callParams": [
                            {
                                "name": "dst",
                                "type": "address",
                                "value": "0xdcce69bfa7041383a9afee26d50a18af5a1d098f"
                            },
                            {
                                "decimalAvailable": true,
                                "name": "wad",
                                "type": "uint256",
                                "value": "39,600,000,000,000,000"
                            }
                        ],
                        "constructorArguments": "",
                        "name": "transfer",
                        "returnParams": [
                            {
                                "name": "",
                                "type": "bool",
                                "value": true
                            }
                        ],
                        "signature": "transfer(address,uint256)"
                    },
                    "errorInfo": "",
                    "fromAddress": "0x25553828f22bdd19a20e4f12f052903cb474a335",
                    "gasUsed": 8062,
                    "id": 4,
                    "methodDecoded": true,
                    "operation": "CALL",
                    "output": "0x0000000000000000000000000000000000000000000000000000000000000001",
                    "revert": false,
                    "revertMessage": "",
                    "selector": "0xa9059cbb",
                    "status": true,
                    "value": "0"
                },
                "nodeType": 0
            },
            "5": {
                "event": {
                    "contract": "0xc02aaa39b223fe8d0a0e5c4f27ead9083c756cc2",
                    "decodedLog": {
                        "name": "Transfer",
                        "params": [
                            {
                                "name": "src",
                                "type": "address",
                                "value": "0x25553828f22bdd19a20e4f12f052903cb474a335"
                            },
                            {
                                "name": "dst",
                                "type": "address",
                                "value": "0xdcce69bfa7041383a9afee26d50a18af5a1d098f"
                            },
                            {
                                "decimalAvailable": true,
                                "name": "wad",
                                "type": "uint256",
                                "value": "39,600,000,000,000,000"
                            }
                        ],
                        "signature": "Transfer(address,address,uint256)"
                    },
                    "id": 5,
                    "logData": "0x000000000000000000000000000000000000000000000000008caffd7d1b0000",
                    "logDecoded": true,
                    "operation": "EVENT",
                    "revert": false,
                    "status": true,
                    "topics": [
                        "0xddf252ad1be2c89b69c2b068fc378daa952ba7f163c4a11628f55a4df523b3ef",
                        "0x00000000000000000000000025553828f22bdd19a20e4f12f052903cb474a335",
                        "0x000000000000000000000000dcce69bfa7041383a9afee26d50a18af5a1d098f"
                    ]
                },
                "nodeType": 1
            },
            "6": {
                "invocation": {
                    "address": "0xdcce69bfa7041383a9afee26d50a18af5a1d098f",
                    "callData": "0x0000000000000000000000000000000000000000000000000000047da47f66070000000000000000000000000000000000000000000000000000000000000000000000000000000000000000617a748cfc721bd66840ee9bc54300285fcd9bce00000000000000000000000000000000000000000000000000000000000000800000000000000000000000000000000000000000000000000000000000000000",
                    "decodedMethod": {
                        "callParams": [
                            {
                                "name": "amount0Out",
                                "type": "uint256",
                                "value": "4,937,677,235,719"
                            },
                            {
                                "name": "amount1Out",
                                "type": "uint256",
                                "value": "0"
                            },
                            {
                                "name": "to",
                                "type": "address",
                                "value": "0x617a748cfc721bd66840ee9bc54300285fcd9bce"
                            },
                            {
                                "name": "data",
                                "type": "bytes",
                                "value": "0x"
                            }
                        ],
                        "constructorArguments": "",
                        "name": "swap",
                        "returnParams": [],
                        "signature": "swap(uint256,uint256,address,bytes)"
                    },
                    "errorInfo": "",
                    "fromAddress": "0x25553828f22bdd19a20e4f12f052903cb474a335",
                    "gasUsed": 114873,
                    "id": 6,
                    "methodDecoded": true,
                    "operation": "CALL",
                    "output": "",
                    "revert": false,
                    "revertMessage": "",
                    "selector": "0x022c0d9f",
                    "status": true,
                    "value": "0"
                },
                "nodeType": 0
            },
            "7": {
                "invocation": {
                    "address": "0xaeab22489112ca267ab8deed00d42d0a4d0dfebf",
                    "callData": "0x000000000000000000000000617a748cfc721bd66840ee9bc54300285fcd9bce0000000000000000000000000000000000000000000000000000047da47f6607",
                    "decodedMethod": {
                        "callParams": [
                            {
                                "name": "recipient",
                                "type": "address",
                                "value": "0x617a748cfc721bd66840ee9bc54300285fcd9bce"
                            },
                            {
                                "decimalAvailable": true,
                                "name": "amount",
                                "type": "uint256",
                                "value": "4,937,677,235,719"
                            }
                        ],
                        "constructorArguments": "",
                        "name": "transfer",
                        "returnParams": [
                            {
                                "name": "",
                                "type": "bool",
                                "value": true
                            }
                        ],
                        "signature": "transfer(address,uint256)"
                    },
                    "errorInfo": "",
                    "fromAddress": "0xdcce69bfa7041383a9afee26d50a18af5a1d098f",
                    "gasUsed": 79940,
                    "id": 7,
                    "methodDecoded": true,
                    "operation": "CALL",
                    "output": "0x0000000000000000000000000000000000000000000000000000000000000001",
                    "revert": false,
                    "revertMessage": "",
                    "selector": "0xa9059cbb",
                    "status": true,
                    "value": "0"
                },
                "nodeType": 0
            },
            "8": {
                "event": {
                    "contract": "0xaeab22489112ca267ab8deed00d42d0a4d0dfebf",
                    "decodedLog": {
                        "name": "Transfer",
                        "params": [
                            {
                                "name": "from",
                                "type": "address",
                                "value": "0xdcce69bfa7041383a9afee26d50a18af5a1d098f"
                            },
                            {
                                "name": "to",
                                "type": "address",
                                "value": "0xaeab22489112ca267ab8deed00d42d0a4d0dfebf"
                            },
                            {
                                "decimalAvailable": true,
                                "name": "value",
                                "type": "uint256",
                                "value": "987,535,446,000"
                            }
                        ],
                        "signature": "Transfer(address,address,uint256)"
                    },
                    "id": 8,
                    "logData": "0x000000000000000000000000000000000000000000000000000000e5edb30ff0",
                    "logDecoded": true,
                    "operation": "EVENT",
                    "revert": false,
                    "status": true,
                    "topics": [
                        "0xddf252ad1be2c89b69c2b068fc378daa952ba7f163c4a11628f55a4df523b3ef",
                        "0x000000000000000000000000dcce69bfa7041383a9afee26d50a18af5a1d098f",
                        "0x000000000000000000000000aeab22489112ca267ab8deed00d42d0a4d0dfebf"
                    ]
                },
                "nodeType": 1
            },
            "9": {
                "event": {
                    "contract": "0xaeab22489112ca267ab8deed00d42d0a4d0dfebf",
                    "decodedLog": {
                        "name": "Transfer",
                        "params": [
                            {
                                "name": "from",
                                "type": "address",
                                "value": "0xdcce69bfa7041383a9afee26d50a18af5a1d098f"
                            },
                            {
                                "name": "to",
                                "type": "address",
                                "value": "0x617a748cfc721bd66840ee9bc54300285fcd9bce"
                            },
                            {
                                "decimalAvailable": true,
                                "name": "value",
                                "type": "uint256",
                                "value": "3,950,141,789,719"
                            }
                        ],
                        "signature": "Transfer(address,address,uint256)"
                    },
                    "id": 9,
                    "logData": "0x00000000000000000000000000000000000000000000000000000397b6cc5617",
                    "logDecoded": true,
                    "operation": "EVENT",
                    "revert": false,
                    "status": true,
                    "topics": [
                        "0xddf252ad1be2c89b69c2b068fc378daa952ba7f163c4a11628f55a4df523b3ef",
                        "0x000000000000000000000000dcce69bfa7041383a9afee26d50a18af5a1d098f",
                        "0x000000000000000000000000617a748cfc721bd66840ee9bc54300285fcd9bce"
                    ]
                },
                "nodeType": 1
            }
        },
        "gasFlame": [
            {
                "children": [
                    {
                        "children": [
                            {
                                "children": [],
                                "depth": 0,
                                "name": "Initial Gas",
                                "value": 22800
                            },
                            {
                                "children": [
                                    {
                                        "children": [],
                                        "depth": 1,
                                        "name": "getReserves",
                                        "value": 2504
                                    },
                                    {
                                        "children": [],
                                        "depth": 1,
                                        "name": "deposit",
                                        "value": 23974
                                    },
                                    {
                                        "children": [],
                                        "depth": 1,
                                        "name": "transfer",
                                        "value": 8062
                                    },
                                    {
                                        "children": [
                                            {
                                                "children": [],
                                                "depth": 2,
                                                "name": "transfer",
                                                "value": 79940
                                            },
                                            {
                                                "children": [],
                                                "depth": 2,
                                                "name": "balanceOf",
                                                "value": 576
                                            },
                                            {
                                                "children": [],
                                                "depth": 2,
                                                "name": "balanceOf",
                                                "value": 534
                                            }
                                        ],
                                        "depth": 1,
                                        "name": "swap",
                                        "value": 114873
                                    },
                                    {
                                        "children": [],
                                        "depth": 1,
                                        "name": "fallback",
                                        "value": 0
                                    }
                                ],
                                "depth": 0,
                                "name": "Executed Gas",
                                "value": 186719
                            }
                        ],
                        "depth": -1,
                        "name": "Actual Gas Used",
                        "value": 186819
                    },
                    {
                        "children": [],
                        "depth": -1,
                        "name": "Refunded Gas",
                        "value": 22700
                    }
                ],
                "depth": -2,
                "name": "Total Gas",
                "value": 209519
            }
        ],
        "isConfirmed": true,
        "mainTrace": [
            {
                "children": [
                    {
                        "children": [
                            {
                                "children": [],
                                "depth": 1,
                                "id": 1,
                                "order": 1
                            },
                            {
                                "children": [
                                    {
                                        "children": [],
                                        "depth": 2,
                                        "id": 3,
                                        "order": 3
                                    }
                                ],
                                "depth": 1,
                                "id": 2,
                                "order": 2
                            },
                            {
                                "children": [
                                    {
                                        "children": [],
                                        "depth": 2,
                                        "id": 5,
                                        "order": 5
                                    }
                                ],
                                "depth": 1,
                                "id": 4,
                                "order": 4
                            },
                            {
                                "children": [
                                    {
                                        "children": [
                                            {
                                                "children": [],
                                                "depth": 3,
                                                "id": 8,
                                                "order": 8
                                            },
                                            {
                                                "children": [],
                                                "depth": 3,
                                                "id": 9,
                                                "order": 9
                                            }
                                        ],
                                        "depth": 2,
                                        "id": 7,
                                        "order": 7
                                    },
                                    {
                                        "children": [],
                                        "depth": 2,
                                        "id": 10,
                                        "order": 10
                                    },
                                    {
                                        "children": [],
                                        "depth": 2,
                                        "id": 11,
                                        "order": 11
                                    },
                                    {
                                        "children": [],
                                        "depth": 2,
                                        "id": 12,
                                        "order": 12
                                    },
                                    {
                                        "children": [],
                                        "depth": 2,
                                        "id": 13,
                                        "order": 13
                                    }
                                ],
                                "depth": 1,
                                "id": 6,
                                "order": 6
                            },
                            {
                                "children": [],
                                "depth": 1,
                                "id": 14,
                                "order": 14
                            }
                        ],
                        "depth": 0,
                        "id": 0,
                        "order": 0
                    }
                ],
                "depth": -1,
                "id": -1,
                "order": -1
            }
        ],
        "mainTraceNodeCount": 15,
        "parentIdMap": {
            "0": -1,
            "1": 0,
            "10": 6,
            "11": 6,
            "12": 6,
            "13": 6,
            "14": 0,
            "2": 0,
            "3": 2,
            "4": 0,
            "5": 4,
            "6": 0,
            "7": 6,
            "8": 7,
            "9": 7
        },
        "tidyTrace": [
            {
                "children": [
                    {
                        "children": [
                            {
                                "children": [
                                    {
                                        "children": [],
                                        "depth": 2,
                                        "id": 3,
                                        "order": 3
                                    }
                                ],
                                "depth": 1,
                                "id": 2,
                                "order": 2
                            },
                            {
                                "children": [
                                    {
                                        "children": [],
                                        "depth": 2,
                                        "id": 5,
                                        "order": 5
                                    }
                                ],
                                "depth": 1,
                                "id": 4,
                                "order": 4
                            },
                            {
                                "children": [
                                    {
                                        "children": [
                                            {
                                                "children": [],
                                                "depth": 3,
                                                "id": 8,
                                                "order": 8
                                            },
                                            {
                                                "children": [],
                                                "depth": 3,
                                                "id": 9,
                                                "order": 9
                                            }
                                        ],
                                        "depth": 2,
                                        "id": 7,
                                        "order": 7
                                    },
                                    {
                                        "children": [],
                                        "depth": 2,
                                        "id": 12,
                                        "order": 12
                                    },
                                    {
                                        "children": [],
                                        "depth": 2,
                                        "id": 13,
                                        "order": 13
                                    }
                                ],
                                "depth": 1,
                                "id": 6,
                                "order": 6
                            },
                            {
                                "children": [],
                                "depth": 1,
                                "id": 14,
                                "order": 14
                            }
                        ],
                        "depth": 0,
                        "id": 0,
                        "order": 0
                    }
                ],
                "depth": -1,
                "id": -1,
                "order": -1
            }
        ],
        "tidyTraceNodeCount": 12
    },
    "state_change": {
        "stateChanges": [
            {
                "address": "0x25553828f22bdd19a20e4f12f052903cb474a335",
                "erc": "",
                "slots": [
                    {
                        "current": "0x000000000000000000000000000000000000000000000730a699950f604b8522",
                        "key": "0x0000000000000000000000000000000000000000000000000000000000000001",
                        "prev": "0x000000000000000000000000000000000000000000000730a60ce511e3308522"
                    }
                ],
                "storageVariables": []
            },
            {
                "address": "0xaeab22489112ca267ab8deed00d42d0a4d0dfebf",
                "erc": "ERC-20",
                "slots": [
                    {
                        "current": "0x000000000000000000000000000000000000000000000000000067bc0b0c7b80",
                        "key": "0x4fcb9023c712006b14f64e2df12bf34552fa96c5a5bd6e68ca512e136af1bfc5",
                        "prev": "0x000000000000000000000000000000000000000000000000000066d61d596b90"
                    },
                    {
                        "current": "0x00000000000000000000000000000000000000000000000000000397b6cc5617",
                        "key": "0x2d2ec852819973ab670502a640657864c123d7318e2e882406cf586b4a6e4869",
                        "prev": "0x0000000000000000000000000000000000000000000000000000000000000000"
                    },
                    {
                        "current": "0x0000000000000000000000000000000000000000000000000001803d973c7106",
                        "key": "0xcee3b3e730ce963475006109e60c6cdf45323c32a9e8ba54336867df0ae9b935",
                        "prev": "0x000000000000000000000000000000000000000000000000000184bb3bbbd70d"
                    }
                ],
                "storageVariables": [
                    {
                        "name": "_balances",
                        "type": "mapping(address => uint256)",
                        "value": {
                            "pairs": [
                                {
                                    "key": "0x617a748cfc721bd66840ee9bc54300285fcd9bce",
                                    "value": {
                                        "current": "3950141789719",
                                        "prev": "0",
                                        "typeTag": 1
                                    }
                                },
                                {
                                    "key": "0xaeab22489112ca267ab8deed00d42d0a4d0dfebf",
                                    "value": {
                                        "current": "114057336880000",
                                        "prev": "113069801434000",
                                        "typeTag": 1
                                    }
                                },
                                {
                                    "key": "0xdcce69bfa7041383a9afee26d50a18af5a1d098f",
                                    "value": {
                                        "current": "422476995391750",
                                        "prev": "427414672627469",
                                        "typeTag": 1
                                    }
                                }
                            ],
                            "typeTag": 4
                        }
                    }
                ]
            },
            {
                "address": "0xc02aaa39b223fe8d0a0e5c4f27ead9083c756cc2",
                "erc": "ERC-20",
                "slots": [
                    {
                        "current": "0x0000000000000000000000000000000000000000000000002f6e0f626c6dad82",
                        "key": "0x5d366858cff6b1e9eee9dde9d151940f6b79d7a4e89108a0a40525a7a4d474dc",
                        "prev": "0x0000000000000000000000000000000000000000000000002ee15f64ef52ad82"
                    }
                ],
                "storageVariables": [
                    {
                        "name": "balanceOf",
                        "type": "mapping(address => uint256)",
                        "value": {
                            "pairs": [
                                {
                                    "key": "0xdcce69bfa7041383a9afee26d50a18af5a1d098f",
                                    "value": {
                                        "current": "3417686082621123970",
                                        "prev": "3378086082621123970",
                                        "typeTag": 1
                                    }
                                }
                            ],
                            "typeTag": 4
                        }
                    }
                ]
            },
            {
                "address": "0xdcce69bfa7041383a9afee26d50a18af5a1d098f",
                "erc": "ERC-20",
                "slots": [
                    {
                        "current": "0x639fda630000000000002f6e0f626c6dad820000000000000001803d973c7106",
                        "key": "0x0000000000000000000000000000000000000000000000000000000000000008",
                        "prev": "0x639fda4b0000000000002ee15f64ef52ad82000000000000000184bb3bbbd70d"
                    },
                    {
                        "current": "0x0000000000000000000000000000002e6d98fe40b08e5639cd7859c90b8ae47c",
                        "key": "0x0000000000000000000000000000000000000000000000000000000000000009",
                        "prev": "0x0000000000000000000000000000002b88a431e0fc1c438f3d63578cf2c0b33c"
                    },
                    {
                        "current": "0x0000000000000000000000000000000000001d48596b6698b76fffa3f3a97d78",
                        "key": "0x000000000000000000000000000000000000000000000000000000000000000a",
                        "prev": "0x0000000000000000000000000000000000001c81577294a6b04e10ef41efd1e8"
                    }
                ],
                "storageVariables": [
                    {
                        "name": "reserve0",
                        "type": "uint112",
                        "value": {
                            "current": "422476995391750",
                            "prev": "427414672627469",
                            "typeTag": 1
                        }
                    },
                    {
                        "name": "reserve1",
                        "type": "uint112",
                        "value": {
                            "current": "3417686082621123970",
                            "prev": "3378086082621123970",
                            "typeTag": 1
                        }
                    },
                    {
                        "name": "blockTimestampLast",
                        "type": "uint32",
                        "value": {
                            "current": "1671420515",
                            "prev": "1671420491",
                            "typeTag": 1
                        }
                    },
                    {
                        "name": "price0CumulativeLast",
                        "type": "uint256",
                        "value": {
                            "current": "15798669115883505608083218466386876228732",
                            "prev": "14813769333375105572936957672795429450556",
                            "typeTag": 1
                        }
                    },
                    {
                        "name": "price1CumulativeLast",
                        "type": "uint256",
                        "value": {
                            "current": "593921980212360777494062302854520",
                            "prev": "578154965581969867599957103464936",
                            "typeTag": 1
                        }
                    }
                ]
            }
        ]
    }
}