{
    "balance_change": {
        "balanceChanges": [
            {
                "account": "0x561e57cc984021cce6b5dfd43df3ff3fcac71b4d",
                "assets": [
                    {
                        "address": "0xdac17f958d2ee523a2206206994597c13d831ec7",
                        "amount": "90,000",
                        "iconUrl": "https://assets.blocksec.com/icon/fcea71f3193ce895be44bfdf941f7e4c9381dd587f273c2d1a27f1263d84e4ea.png",
                        "isERC1155": false,
                        "isERC721": false,
                        "sign": false,
                        "value": "90269.99999999999025"
                    }
                ]
            },
            {
                "account": "0x61477434fd9782338c9badd69809bcd2b0d40f81",
                "assets": [
                    {
                        "address": "0xdac17f958d2ee523a2206206994597c13d831ec7",
                        "amount": "90,000",
                        "iconUrl": "https://assets.blocksec.com/icon/fcea71f3193ce895be44bfdf941f7e4c9381dd587f273c2d1a27f1263d84e4ea.png",
                        "isERC1155": false,
                        "isERC721": false,
                        "sign": true,
                        "value": "90269.99999999999025"
                    }
                ]
            }
        ]
    },
    "profile": {
        "basic_info": {
            "baseFee": "10.807021304",
            "blockNumber": 16018791,
            "callData": "0x6a761202000000000000000000000000dac17f958d2ee523a2206206994597c13d831ec70000000000000000000000000000000000000000000000000000000000000000000000000000000000000000000000000000000000000000000000000000014000000000000000000000000000000000000000000000000000000000000000000000000000000000000000000000000000000000000000000000000000000000000000000000000000000000000000000000000000000000000000000000000000000000000000000000000000000000000000000000000000000000000000000000000000000000000000000000000000000000000000000000000000000000000000000000000000000000000000000000000000000000000000000000000000000000000000000000000000000000000000000000000000000000000001c00000000000000000000000000000000000000000000000000000000000000044a9059cbb00000000000000000000000061477434fd9782338c9badd69809bcd2b0d40f8100000000000000000000000000000000000000000000000000000014f46b0400000000000000000000000000000000000000000000000000000000000000000000000000000000000000000000000000000000000000000000000082000000000000000000000000677171dfb69a6087d42dfb35fce2e36a296ab65d000000000000000000000000000000000000000000000000000000000000000001d5cb71bcddfe46888c668e571a1946369a3a954278d1bc2591855193efebfe7f352e2321b583f33d097775e8aaba761008f397b0896a165f8d67b950214a4a951b000000000000000000000000000000000000000000000000000000000000",
            "debugEnable": true,
            "errorInfo": "",
            "eventCount": 2,
            "feeRecipient": "0x690b9a9e9aa1c9db991c7721a92d351db4fac990",
            "formatValue": "0",
            "gasLimit": 81182,
            "gasPrice": "12.307021304",
            "gasUsed": 80431,
            "intTxnCount": 3,
            "internalRevert": false,
            "internalRevertMessage": "",
            "isContractCreation": false,
            "isFlashloan": false,
            "maxFee": "14",
            "nonce": 34,
            "overwritedBlockNumber": -1,
            "priorityFee": "1.5",
            "receiver": "0x561e57cc984021cce6b5dfd43df3ff3fcac71b4d",
            "revertMessage": "",
            "sender": "0x677171dfb69a6087d42dfb35fce2e36a296ab65d",
            "simulationEnable": true,
            "sourceTxnHash": "0x3ded45e49991097b2a36ee208af57a4615b615f460ebac28832479ee640190cc",
            "status": true,
            "timestamp": "2022-11-21T13:49:35Z",
            "transactionFee": "0.000989866030502024",
            "txnHash": "0x3ded45e49991097b2a36ee208af57a4615b615f460ebac28832479ee640190cc",
            "txnIndex": 99,
            "type": 2,
            "value": "0"
        },
        "fund_flow": [
            {
                "amount": "90,000",
                "from": "0x561e57cc984021cce6b5dfd43df3ff3fcac71b4d",
                "id": 1,
                "isERC1155": false,
                "isERC721": false,
                "isReverted": false,
                "order": 1,
                "to": "0x61477434fd9782338c9badd69809bcd2b0d40f81",
                "token": "0xdac17f958d2ee523a2206206994597c13d831ec7"
            }
        ],
        "token_infos": [
            {
                "address": "0xc02aaa39b223fe8d0a0e5c4f27ead9083c756cc2",
                "decimals": 18
            },
            {
                "address": "0xdac17f958d2ee523a2206206994597c13d831ec7",
                "decimals": 6
            },
            {
                "address": "0xeeeeeeeeeeeeeeeeeeeeeeeeeeeeeeeeeeeeeeee",
                "decimals": 18
            }
        ]
    },
    "address_label": {
        "labels": [
            {
                "address": "0x0000000000000000000000000000000000000004",
                "label": "Precompiled"
            },
            {
                "address": "0xeeeeeeeeeeeeeeeeeeeeeeeeeeeeeeeeeeeeeeee",
                "label": "Ether"
            },
            {
                "address": "0x561e57cc984021cce6b5dfd43df3ff3fcac71b4d",
                "label": "GnosisSafeProxy_561e_1b4d"
            },
            {
                "address": "0xdac17f958d2ee523a2206206994597c13d831ec7",
                "label": "Tether: USDT Stablecoin"
            },
            {
                "address": "0x0000000000000000000000000000000000000000",
                "label": "Null Address"
            },
            {
                "address": "0x61477434fd9782338c9badd69809bcd2b0d40f81",
                "label": "GnosisSafeProxy_6147_0f81"
            },
            {
                "address": "0x0000000000000000000000000000000000000001",
                "label": "Precompiled"
            },
            {
                "address": "0x0000000000000000000000000000000000000003",
                "label": "Precompiled"
            },
            {
                "address": "0xd9db270c1b5e3bd161e8c8503c55ceabee709552",
                "label": "Safe: Singleton 1.3.0"
            },
            {
                "address": "0x0000000000000000000000000000000000000002",
                "label": "Precompiled"
            }
        ]
    },
    "trace": {
        "accountLabels": null,
        "dataMap": {
            "-1": {
                "invocation": {
                    "address": "0x677171dfb69a6087d42dfb35fce2e36a296ab65d",
                    "callData": "",
                    "decodedMethod": null,
                    "errorInfo": "",
                    "fromAddress": "",
                    "gasUsed": 0,
                    "id": -1,
                    "methodDecoded": false,
                    "operation": "",
                    "output": "",
                    "revert": false,
                    "revertMessage": "",
                    "selector": "",
                    "status": false,
                    "value": ""
                },
                "nodeType": 0
            },
            "0": {
                "invocation": {
                    "address": "0x561e57cc984021cce6b5dfd43df3ff3fcac71b4d",
                    "callData": "0x000000000000000000000000dac17f958d2ee523a2206206994597c13d831ec70000000000000000000000000000000000000000000000000000000000000000000000000000000000000000000000000000000000000000000000000000014000000000000000000000000000000000000000000000000000000000000000000000000000000000000000000000000000000000000000000000000000000000000000000000000000000000000000000000000000000000000000000000000000000000000000000000000000000000000000000000000000000000000000000000000000000000000000000000000000000000000000000000000000000000000000000000000000000000000000000000000000000000000000000000000000000000000000000000000000000000000000000000000000000000000001c00000000000000000000000000000000000000000000000000000000000000044a9059cbb00000000000000000000000061477434fd9782338c9badd69809bcd2b0d40f8100000000000000000000000000000000000000000000000000000014f46b0400000000000000000000000000000000000000000000000000000000000000000000000000000000000000000000000000000000000000000000000082000000000000000000000000677171dfb69a6087d42dfb35fce2e36a296ab65d000000000000000000000000000000000000000000000000000000000000000001d5cb71bcddfe46888c668e571a1946369a3a954278d1bc2591855193efebfe7f352e2321b583f33d097775e8aaba761008f397b0896a165f8d67b950214a4a951b000000000000000000000000000000000000000000000000000000000000",
                    "decodedMethod": {
                        "callParams": [
                            {
                                "name": "to",
                                "type": "address",
                                "value": "0xdac17f958d2ee523a2206206994597c13d831ec7"
                            },
                            {
                                "name": "value",
                                "type": "uint256",
                                "value": "0"
                            },
                            {
                                "name": "data",
                                "type": "bytes",
                                "value": "0xa9059cbb00000000000000000000000061477434fd9782338c9badd69809bcd2b0d40f8100000000000000000000000000000000000000000000000000000014f46b0400"
                            },
                            {
                                "name": "operation",
                                "type": "uint8",
                                "value": "0"
                            },
                            {
                                "name": "safeTxGas",
                                "type": "uint256",
                                "value": "0"
                            },
                            {
                                "name": "baseGas",
                                "type": "uint256",
                                "value": "0"
                            },
                            {
                                "name": "gasPrice",
                                "type": "uint256",
                                "value": "0"
                            },
                            {
                                "name": "gasToken",
                                "type": "address",
                                "value": "0x0000000000000000000000000000000000000000"
                            },
                            {
                                "name": "refundReceiver",
                                "type": "address",
                                "value": "0x0000000000000000000000000000000000000000"
                            },
                            {
                                "name": "signatures",
                                "type": "bytes",
                                "value": "0x000000000000000000000000677171dfb69a6087d42dfb35fce2e36a296ab65d000000000000000000000000000000000000000000000000000000000000000001d5cb71bcddfe46888c668e571a1946369a3a954278d1bc2591855193efebfe7f352e2321b583f33d097775e8aaba761008f397b0896a165f8d67b950214a4a951b"
                            }
                        ],
                        "constructorArguments": "",
                        "name": "execTransaction",
                        "returnParams": [
                            {
                                "name": "success",
                                "type": "bool",
                                "value": true
                            }
                        ],
                        "signature": "execTransaction(address,uint256,bytes,uint8,uint256,uint256,uint256,address,address,bytes)"
                    },
                    "errorInfo": "",
                    "fromAddress": "0x677171dfb69a6087d42dfb35fce2e36a296ab65d",
                    "gasUsed": 80431,
                    "id": 0,
                    "methodDecoded": true,
                    "operation": "CALL",
                    "output": "0x0000000000000000000000000000000000000000000000000000000000000001",
                    "revert": false,
                    "revertMessage": "",
                    "selector": "0x6a761202",
                    "status": true,
                    "value": "0"
                },
                "nodeType": 0
            },
            "1": {
                "invocation": {
                    "address": "0xd9db270c1b5e3bd161e8c8503c55ceabee709552",
                    "callData": "0x000000000000000000000000dac17f958d2ee523a2206206994597c13d831ec70000000000000000000000000000000000000000000000000000000000000000000000000000000000000000000000000000000000000000000000000000014000000000000000000000000000000000000000000000000000000000000000000000000000000000000000000000000000000000000000000000000000000000000000000000000000000000000000000000000000000000000000000000000000000000000000000000000000000000000000000000000000000000000000000000000000000000000000000000000000000000000000000000000000000000000000000000000000000000000000000000000000000000000000000000000000000000000000000000000000000000000000000000000000000000000001c00000000000000000000000000000000000000000000000000000000000000044a9059cbb00000000000000000000000061477434fd9782338c9badd69809bcd2b0d40f8100000000000000000000000000000000000000000000000000000014f46b0400000000000000000000000000000000000000000000000000000000000000000000000000000000000000000000000000000000000000000000000082000000000000000000000000677171dfb69a6087d42dfb35fce2e36a296ab65d000000000000000000000000000000000000000000000000000000000000000001d5cb71bcddfe46888c668e571a1946369a3a954278d1bc2591855193efebfe7f352e2321b583f33d097775e8aaba761008f397b0896a165f8d67b950214a4a951b000000000000000000000000000000000000000000000000000000000000",
                    "decodedMethod": {
                        "callParams": [
                            {
                                "name": "to",
                                "type": "address",
                                "value": "0xdac17f958d2ee523a2206206994597c13d831ec7"
                            },
                            {
                                "name": "value",
                                "type": "uint256",
                                "value": "0"
                            },
                            {
                                "name": "data",
                                "type": "bytes",
                                "value": "0xa9059cbb00000000000000000000000061477434fd9782338c9badd69809bcd2b0d40f8100000000000000000000000000000000000000000000000000000014f46b0400"
                            },
                            {
                                "name": "operation",
                                "type": "uint8",
                                "value": "0"
                            },
                            {
                                "name": "safeTxGas",
                                "type": "uint256",
                                "value": "0"
                            },
                            {
                                "name": "baseGas",
                                "type": "uint256",
                                "value": "0"
                            },
                            {
                                "name": "gasPrice",
                                "type": "uint256",
                                "value": "0"
                            },
                            {
                                "name": "gasToken",
                                "type": "address",
                                "value": "0x0000000000000000000000000000000000000000"
                            },
                            {
                                "name": "refundReceiver",
                                "type": "address",
                                "value": "0x0000000000000000000000000000000000000000"
                            },
                            {
                                "name": "signatures",
                                "type": "bytes",
                                "value": "0x000000000000000000000000677171dfb69a6087d42dfb35fce2e36a296ab65d000000000000000000000000000000000000000000000000000000000000000001d5cb71bcddfe46888c668e571a1946369a3a954278d1bc2591855193efebfe7f352e2321b583f33d097775e8aaba761008f397b0896a165f8d67b950214a4a951b"
                            }
                        ],
                        "constructorArguments": "",
                        "name": "execTransaction",
                        "returnParams": [
                            {
                                "name": "success",
                                "type": "bool",
                                "value": true
                            }
                        ],
                        "signature": "execTransaction(address,uint256,bytes,uint8,uint256,uint256,uint256,address,address,bytes)"
                    },
                    "errorInfo": "",
                    "fromAddress": "0x561e57cc984021cce6b5dfd43df3ff3fcac71b4d",
                    "gasUsed": 50182,
                    "id": 1,
                    "methodDecoded": true,
                    "operation": "DELEGATECALL",
                    "output": "0x0000000000000000000000000000000000000000000000000000000000000001",
                    "revert": false,
                    "revertMessage": "",
                    "selector": "0x6a761202",
                    "status": true,
                    "value": "0"
                },
                "nodeType": 0
            },
            "2": {
                "invocation": {
                    "address": "0x0000000000000000000000000000000000000001",
                    "callData": "0xa0078c943d4ec0e417dc7f8ae8682703896a1dbbd1e9ca0e842b4f92000000000000000000000000000000000000000000000000000000000000001bd5cb71bcddfe46888c668e571a1946369a3a954278d1bc2591855193efebfe7f352e2321b583f33d097775e8aaba761008f397b0896a165f8d67b950214a4a95",
                    "decodedMethod": {
                        "callParams": [
                            {
                                "name": "hash",
                                "type": "bytes32",
                                "value": "0x3a00192ea0078c943d4ec0e417dc7f8ae8682703896a1dbbd1e9ca0e842b4f92"
                            },
                            {
                                "name": "v",
                                "type": "uint256",
                                "value": "27"
                            },
                            {
                                "name": "r",
                                "type": "bytes32",
                                "value": "0xd5cb71bcddfe46888c668e571a1946369a3a954278d1bc2591855193efebfe7f"
                            },
                            {
                                "name": "s",
                                "type": "bytes32",
                                "value": "0x352e2321b583f33d097775e8aaba761008f397b0896a165f8d67b950214a4a95"
                            }
                        ],
                        "constructorArguments": "",
                        "name": "ecrecover",
                        "returnParams": [
                            {
                                "name": "",
                                "type": "address",
                                "value": "0x815c1009edb338caba7b7e20b29055880fa85e3b"
                            }
                        ],
                        "signature": "ecrecover(bytes32,uint256,bytes32,bytes32)"
                    },
                    "errorInfo": "",
                    "fromAddress": "0x561e57cc984021cce6b5dfd43df3ff3fcac71b4d",
                    "gasUsed": 3000,
                    "id": 2,
                    "methodDecoded": true,
                    "operation": "STATICCALL",
                    "output": "0x000000000000000000000000815c1009edb338caba7b7e20b29055880fa85e3b",
                    "revert": false,
                    "revertMessage": "",
                    "selector": "0x3a00192e",
                    "status": true,
                    "value": "0"
                },
                "nodeType": 0
            },
            "3": {
                "invocation": {
                    "address": "0xdac17f958d2ee523a2206206994597c13d831ec7",
                    "callData": "0x00000000000000000000000061477434fd9782338c9badd69809bcd2b0d40f8100000000000000000000000000000000000000000000000000000014f46b0400",
                    "decodedMethod": {
                        "callParams": [
                            {
                                "name": "_to",
                                "type": "address",
                                "value": "0x61477434fd9782338c9badd69809bcd2b0d40f81"
                            },
                            {
                                "decimalAvailable": true,
                                "name": "_value",
                                "type": "uint256",
                                "value": "90,000,000,000"
                            }
                        ],
                        "constructorArguments": "",
                        "name": "transfer",
                        "returnParams": [],
                        "signature": "transfer(address,uint256)"
                    },
                    "errorInfo": "",
                    "fromAddress": "0x561e57cc984021cce6b5dfd43df3ff3fcac71b4d",
                    "gasUsed": 24501,
                    "id": 3,
                    "methodDecoded": true,
                    "operation": "CALL",
                    "output": "",
                    "revert": false,
                    "revertMessage": "",
                    "selector": "0xa9059cbb",
                    "status": true,
                    "value": "0"
                },
                "nodeType": 0
            },
            "4": {
                "event": {
                    "contract": "0xdac17f958d2ee523a2206206994597c13d831ec7",
                    "decodedLog": {
                        "name": "Transfer",
                        "params": [
                            {
                                "name": "from",
                                "type": "address",
                                "value": "0x561e57cc984021cce6b5dfd43df3ff3fcac71b4d"
                            },
                            {
                                "name": "to",
                                "type": "address",
                                "value": "0x61477434fd9782338c9badd69809bcd2b0d40f81"
                            },
                            {
                                "decimalAvailable": true,
                                "name": "value",
                                "type": "uint256",
                                "value": "90,000,000,000"
                            }
                        ],
                        "signature": "Transfer(address,address,uint256)"
                    },
                    "id": 4,
                    "logData": "0x00000000000000000000000000000000000000000000000000000014f46b0400",
                    "logDecoded": true,
                    "operation": "EVENT",
                    "revert": false,
                    "status": true,
                    "topics": [
                        "0xddf252ad1be2c89b69c2b068fc378daa952ba7f163c4a11628f55a4df523b3ef",
                        "0x000000000000000000000000561e57cc984021cce6b5dfd43df3ff3fcac71b4d",
                        "0x00000000000000000000000061477434fd9782338c9badd69809bcd2b0d40f81"
                    ]
                },
                "nodeType": 1
            },
            "5": {
                "event": {
                    "contract": "0x561e57cc984021cce6b5dfd43df3ff3fcac71b4d",
                    "decodedLog": {
                        "name": "ExecutionSuccess",
                        "params": [
                            {
                                "name": "txHash",
                                "type": "bytes32",
                                "value": "0x3a00192ea0078c943d4ec0e417dc7f8ae8682703896a1dbbd1e9ca0e842b4f92"
                            },
                            {
                                "name": "payment",
                                "type": "uint256",
                                "value": "0"
                            }
                        ],
                        "signature": "ExecutionSuccess(bytes32,uint256)"
                    },
                    "id": 5,
                    "logData": "0x3a00192ea0078c943d4ec0e417dc7f8ae8682703896a1dbbd1e9ca0e842b4f920000000000000000000000000000000000000000000000000000000000000000",
                    "logDecoded": true,
                    "operation": "EVENT",
                    "revert": false,
                    "status": true,
                    "topics": [
                        "0x442e715f626346e8c54381002da614f62bee8d27386535b2521ec8540898556e"
                    ]
                },
                "nodeType": 1
            }
        },
        "gasFlame": [
            {
                "children": [
                    {
                        "children": [
                            {
                                "children": [],
                                "depth": 0,
                                "name": "Initial Gas",
                                "value": 25304
                            },
                            {
                                "children": [
                                    {
                                        "children": [
                                            {
                                                "children": [],
                                                "depth": 2,
                                                "name": "ecrecover",
                                                "value": 3000
                                            },
                                            {
                                                "children": [],
                                                "depth": 2,
                                                "name": "transfer",
                                                "value": 24501
                                            }
                                        ],
                                        "depth": 1,
                                        "name": "execTransaction",
                                        "value": 50182
                                    }
                                ],
                                "depth": 0,
                                "name": "Executed Gas",
                                "value": 55127
                            }
                        ],
                        "depth": -1,
                        "name": "Actual Gas Used",
                        "value": 80431
                    },
                    {
                        "children": [],
                        "depth": -1,
                        "name": "Refunded Gas",
                        "value": 0
                    }
                ],
                "depth": -2,
                "name": "Total Gas",
                "value": 80431
            }
        ],
        "isConfirmed": true,
        "mainTrace": [
            {
                "children": [
                    {
                        "children": [
                            {
                                "children": [
                                    {
                                        "children": [],
                                        "depth": 2,
                                        "id": 2,
                                        "order": 2
                                    },
                                    {
                                        "children": [
                                            {
                                                "children": [],
                                                "depth": 3,
                                                "id": 4,
                                                "order": 4
                                            }
                                        ],
                                        "depth": 2,
                                        "id": 3,
                                        "order": 3
                                    },
                                    {
                                        "children": [],
                                        "depth": 2,
                                        "id": 5,
                                        "order": 5
                                    }
                                ],
                                "depth": 1,
                                "id": 1,
                                "order": 1
                            }
                        ],
                        "depth": 0,
                        "id": 0,
                        "order": 0
                    }
                ],
                "depth": -1,
                "id": -1,
                "order": -1
            }
        ],
        "mainTraceNodeCount": 6,
        "parentIdMap": {
            "0": -1,
            "1": 0,
            "2": 1,
            "3": 1,
            "4": 3,
            "5": 1
        },
        "tidyTrace": [
            {
                "children": [
                    {
                        "children": [
                            {
                                "children": [
                                    {
                                        "children": [
                                            {
                                                "children": [],
                                                "depth": 3,
                                                "id": 4,
                                                "order": 4
                                            }
                                        ],
                                        "depth": 2,
                                        "id": 3,
                                        "order": 3
                                    },
                                    {
                                        "children": [],
                                        "depth": 2,
                                        "id": 5,
                                        "order": 5
                                    }
                                ],
                                "depth": 1,
                                "id": 1,
                                "order": 1
                            }
                        ],
                        "depth": 0,
                        "id": 0,
                        "order": 0
                    }
                ],
                "depth": -1,
                "id": -1,
                "order": -1
            }
        ],
        "tidyTraceNodeCount": 5
    },
    "state_change": {
        "stateChanges": [
            {
                "address": "0x561e57cc984021cce6b5dfd43df3ff3fcac71b4d",
                "erc": "",
                "slots": [
                    {
                        "current": "0x000000000000000000000000000000000000000000000000000000000000000c",
                        "key": "0x0000000000000000000000000000000000000000000000000000000000000005",
                        "prev": "0x000000000000000000000000000000000000000000000000000000000000000b"
                    }
                ],
                "storageVariables": [
                    {
                        "name": "nonce",
                        "type": "uint256",
                        "value": {
                            "current": "12",
                            "prev": "11",
                            "typeTag": 1
                        }
                    }
                ]
            },
            {
                "address": "0xdac17f958d2ee523a2206206994597c13d831ec7",
                "erc": "ERC-20",
                "slots": [
                    {
                        "current": "0x00000000000000000000000000000000000000000000000000000016986eaab0",
                        "key": "0x7330716a12380ffe1a9646ef9099c8736b6948b7f2007862710acba85b1dce3f",
                        "prev": "0x00000000000000000000000000000000000000000000000000000001a403a6b0"
                    },
                    {
                        "current": "0x00000000000000000000000000000000000000000000000000000093528e25c0",
                        "key": "0xac6dcd8fa44d378ece1e6f15233dd823d72b0538a6ad0ef3a1b5e382897f6559",
                        "prev": "0x000000000000000000000000000000000000000000000000000000a846f929c0"
                    }
                ],
                "storageVariables": [
                    {
                        "name": "balances",
                        "type": "mapping(address => uint256)",
                        "value": {
                            "pairs": [
                                {
                                    "key": "0x561e57cc984021cce6b5dfd43df3ff3fcac71b4d",
                                    "value": {
                                        "current": "632745240000",
                                        "prev": "722745240000",
                                        "typeTag": 1
                                    }
                                },
                                {
                                    "key": "0x61477434fd9782338c9badd69809bcd2b0d40f81",
                                    "value": {
                                        "current": "97046670000",
                                        "prev": "7046670000",
                                        "typeTag": 1
                                    }
                                }
                            ],
                            "typeTag": 4
                        }
                    }
                ]
            }
        ]
    }
}