{
    "balance_change": {
        "balanceChanges": [
            {
                "account": "0xab5622d7da96c571c6abe08e4b85e462eb666e4f",
                "assets": [
                    {
                        "address": "0xeeeeeeeeeeeeeeeeeeeeeeeeeeeeeeeeeeeeeeee",
                        "amount": "0.008",
                        "iconUrl": "https://assets.blocksec.com/image/1663669189317-3.png",
                        "isERC1155": false,
                        "isERC721": false,
                        "sign": true,
                        "value": ""
                    }
                ]
            },
            {
                "account": "0x06012c8cf97bead5deae237070f9587f8e7a266d",
                "assets": [
                    {
                        "address": "0xeeeeeeeeeeeeeeeeeeeeeeeeeeeeeeeeeeeeeeee",
                        "amount": "0.008",
                        "iconUrl": "https://assets.blocksec.com/image/1663669189317-3.png",
                        "isERC1155": false,
                        "isERC721": false,
                        "sign": false,
                        "value": ""
                    }
                ]
            }
        ]
    },
    "profile": {
        "basic_info": {
            "baseFee": "",
            "blockNumber": 7396805,
            "callData": "0x88c2a0bf0000000000000000000000000000000000000000000000000000000000166611",
            "debugEnable": true,
            "errorInfo": "",
            "eventCount": 2,
            "feeRecipient": "0x829bd824b016326a401d083b33d092293333a830",
            "formatValue": "0",
            "gasLimit": 350000,
            "gasPrice": "6.600000008",
            "gasUsed": 259980,
            "intTxnCount": 2,
            "internalRevert": false,
            "internalRevertMessage": "",
            "isContractCreation": false,
            "isFlashloan": false,
            "maxFee": "",
            "nonce": 554,
            "overwritedBlockNumber": -1,
            "priorityFee": "",
            "receiver": "0x06012c8cf97bead5deae237070f9587f8e7a266d",
            "revertMessage": "",
            "sender": "0xab5622d7da96c571c6abe08e4b85e462eb666e4f",
            "simulationEnable": true,
            "sourceTxnHash": "0x3d6e7f54a6b9407e2711e514d65454d72a957e25d6f8c4c975b697c870a3ea79",
            "status": true,
            "timestamp": "2019-03-19T03:18:31Z",
            "transactionFee": "0.00171586800207984",
            "txnHash": "0x3d6e7f54a6b9407e2711e514d65454d72a957e25d6f8c4c975b697c870a3ea79",
            "txnIndex": 16,
            "type": 0,
            "value": "0"
        },
        "fund_flow": [
            {
                "amount": "0.008",
                "from": "0x06012c8cf97bead5deae237070f9587f8e7a266d",
                "id": 1,
                "isERC1155": false,
                "isERC721": false,
                "isReverted": false,
                "order": 1,
                "to": "0xab5622d7da96c571c6abe08e4b85e462eb666e4f",
                "token": "0xeeeeeeeeeeeeeeeeeeeeeeeeeeeeeeeeeeeeeeee"
            }
        ],
        "token_infos": [
            {
                "address": "0xc02aaa39b223fe8d0a0e5c4f27ead9083c756cc2",
                "decimals": 18
            },
            {
                "address": "0xeeeeeeeeeeeeeeeeeeeeeeeeeeeeeeeeeeeeeeee",
                "decimals": 18
            }
        ]
    },
    "address_label": {
        "labels": [
            {
                "address": "0x0000000000000000000000000000000000000004",
                "label": "Precompiled"
            },
            {
                "address": "0xeeeeeeeeeeeeeeeeeeeeeeeeeeeeeeeeeeeeeeee",
                "label": "Ether"
            },
            {
                "address": "0x06012c8cf97bead5deae237070f9587f8e7a266d",
                "label": "CryptoKitties: Core"
            },
            {
                "address": "0xb77feddb7e627a78140a2a32cac65a49ed1dba8e",
                "label": "CryptoKitties: GeneScience"
            },
            {
                "address": "0x0000000000000000000000000000000000000001",
                "label": "Precompiled"
            },
            {
                "address": "0x0000000000000000000000000000000000000002",
                "label": "Precompiled"
            },
            {
                "address": "0x0000000000000000000000000000000000000003",
                "label": "Precompiled"
            }
        ]
    },
    "trace": {
        "accountLabels": null,
        "dataMap": {
            "-1": {
                "invocation": {
                    "address": "0xab5622d7da96c571c6abe08e4b85e462eb666e4f",
                    "callData": "",
                    "decodedMethod": null,
                    "errorInfo": "",
                    "fromAddress": "",
                    "gasUsed": 0,
                    "id": -1,
                    "methodDecoded": false,
                    "operation": "",
                    "output": "",
                    "revert": false,
                    "revertMessage": "",
                    "selector": "",
                    "status": false,
                    "value": ""
                },
                "nodeType": 0
            },
            "0": {
                "invocation": {
                    "address": "0x06012c8cf97bead5deae237070f9587f8e7a266d",
                    "callData": "0x0000000000000000000000000000000000000000000000000000000000166611",
                    "decodedMethod": {
                        "callParams": [
                            {
                                "name": "_matronId",
                                "type": "uint256",
                                "value": "1,467,921"
                            }
                        ],
                        "constructorArguments": "",
                        "name": "giveBirth",
                        "returnParams": [
                            {
                                "name": "",
                                "type": "uint256",
                                "value": "1,470,569"
                            }
                        ],
                        "signature": "giveBirth(uint256)"
                    },
                    "errorInfo": "",
                    "fromAddress": "0xab5622d7da96c571c6abe08e4b85e462eb666e4f",
                    "gasUsed": 259980,
                    "id": 0,
                    "methodDecoded": true,
                    "operation": "CALL",
                    "output": "0x0000000000000000000000000000000000000000000000000000000000167069",
                    "revert": false,
                    "revertMessage": "",
                    "selector": "0x88c2a0bf",
                    "status": true,
                    "value": "0"
                },
                "nodeType": 0
            },
            "1": {
                "invocation": {
                    "address": "0xb77feddb7e627a78140a2a32cac65a49ed1dba8e",
                    "callData": "0x000062528429cf5ac09238823a10c595077058c4a59d41ce7799ef3054208c8100002316b7bd0b5397a61d2e3950d5a5253598d7b13d385d35a14a331427858c000000000000000000000000000000000000000000000000000000000070ddc1",
                    "decodedMethod": {
                        "callParams": [
                            {
                                "name": "_genes1",
                                "type": "uint256",
                                "value": "678,595,776,034,309,401,872,036,379,907,229,858,153,127,592,204,766,103,592,791,056,758,901,889"
                            },
                            {
                                "name": "_genes2",
                                "type": "uint256",
                                "value": "242,173,590,882,013,762,378,522,040,784,415,473,600,700,314,618,151,150,708,035,831,841,916,300"
                            },
                            {
                                "name": "_targetBlock",
                                "type": "uint256",
                                "value": "7,396,801"
                            }
                        ],
                        "constructorArguments": "",
                        "name": "mixGenes",
                        "returnParams": [
                            {
                                "name": "",
                                "type": "uint256",
                                "value": "236,889,441,340,268,670,870,357,647,909,607,890,024,615,863,366,390,513,258,398,283,450,058,124"
                            }
                        ],
                        "signature": "mixGenes(uint256,uint256,uint256)"
                    },
                    "errorInfo": "",
                    "fromAddress": "0x06012c8cf97bead5deae237070f9587f8e7a266d",
                    "gasUsed": 104129,
                    "id": 1,
                    "methodDecoded": true,
                    "operation": "CALL",
                    "output": "0x00002252b7bd0e72c1a3b122395885aca73598c4b3bd438f35a9483044c0858c",
                    "revert": false,
                    "revertMessage": "",
                    "selector": "0x0d9f5aed",
                    "status": true,
                    "value": "0"
                },
                "nodeType": 0
            },
            "2": {
                "event": {
                    "contract": "0x06012c8cf97bead5deae237070f9587f8e7a266d",
                    "decodedLog": {
                        "name": "Birth",
                        "params": [
                            {
                                "name": "owner",
                                "type": "address",
                                "value": "0x2f261a227480b7d1802433d05a92a27bab645032"
                            },
                            {
                                "name": "kittyId",
                                "type": "uint256",
                                "value": "1,470,569"
                            },
                            {
                                "name": "matronId",
                                "type": "uint256",
                                "value": "1,467,921"
                            },
                            {
                                "name": "sireId",
                                "type": "uint256",
                                "value": "1,467,881"
                            },
                            {
                                "name": "genes",
                                "type": "uint256",
                                "value": "236,889,441,340,268,670,870,357,647,909,607,890,024,615,863,366,390,513,258,398,283,450,058,124"
                            }
                        ],
                        "signature": "Birth(address,uint256,uint256,uint256,uint256)"
                    },
                    "id": 2,
                    "logData": "0x0000000000000000000000002f261a227480b7d1802433d05a92a27bab6450320000000000000000000000000000000000000000000000000000000000167069000000000000000000000000000000000000000000000000000000000016661100000000000000000000000000000000000000000000000000000000001665e900002252b7bd0e72c1a3b122395885aca73598c4b3bd438f35a9483044c0858c",
                    "logDecoded": true,
                    "operation": "EVENT",
                    "revert": false,
                    "status": true,
                    "topics": [
                        "0x0a5311bd2a6608f08a180df2ee7c5946819a649b204b554bb8e39825b2c50ad5"
                    ]
                },
                "nodeType": 1
            },
            "3": {
                "event": {
                    "contract": "0x06012c8cf97bead5deae237070f9587f8e7a266d",
                    "decodedLog": {
                        "name": "Transfer",
                        "params": [
                            {
                                "name": "from",
                                "type": "address",
                                "value": "0x0000000000000000000000000000000000000000"
                            },
                            {
                                "name": "to",
                                "type": "address",
                                "value": "0x2f261a227480b7d1802433d05a92a27bab645032"
                            },
                            {
                                "decimalAvailable": true,
                                "name": "tokenId",
                                "type": "uint256",
                                "value": "1,470,569"
                            }
                        ],
                        "signature": "Transfer(address,address,uint256)"
                    },
                    "id": 3,
                    "logData": "0x00000000000000000000000000000000000000000000000000000000000000000000000000000000000000002f261a227480b7d1802433d05a92a27bab6450320000000000000000000000000000000000000000000000000000000000167069",
                    "logDecoded": true,
                    "operation": "EVENT",
                    "revert": false,
                    "status": true,
                    "topics": [
                        "0xddf252ad1be2c89b69c2b068fc378daa952ba7f163c4a11628f55a4df523b3ef"
                    ]
                },
                "nodeType": 1
            },
            "4": {
                "invocation": {
                    "address": "0xab5622d7da96c571c6abe08e4b85e462eb666e4f",
                    "callData": "0x",
                    "decodedMethod": null,
                    "errorInfo": "",
                    "fromAddress": "0x06012c8cf97bead5deae237070f9587f8e7a266d",
                    "gasUsed": 0,
                    "id": 4,
                    "methodDecoded": false,
                    "operation": "CALL",
                    "output": "",
                    "revert": false,
                    "revertMessage": "",
                    "selector": "fallback",
                    "status": true,
                    "value": "0.008"
                },
                "nodeType": 0
            }
        },
        "gasFlame": [
            {
                "children": [
                    {
                        "children": [
                            {
                                "children": [],
                                "depth": 0,
                                "name": "Initial Gas",
                                "value": 21592
                            },
                            {
                                "children": [
                                    {
                                        "children": [],
                                        "depth": 1,
                                        "name": "mixGenes",
                                        "value": 104129
                                    },
                                    {
                                        "children": [],
                                        "depth": 1,
                                        "name": "fallback",
                                        "value": 0
                                    }
                                ],
                                "depth": 0,
                                "name": "Executed Gas",
                                "value": 238388
                            }
                        ],
                        "depth": -1,
                        "name": "Actual Gas Used",
                        "value": 259980
                    },
                    {
                        "children": [],
                        "depth": -1,
                        "name": "Refunded Gas",
                        "value": 0
                    }
                ],
                "depth": -2,
                "name": "Total Gas",
                "value": 259980
            }
        ],
        "isConfirmed": true,
        "mainTrace": [
            {
                "children": [
                    {
                        "children": [
                            {
                                "children": [],
                                "depth": 1,
                                "id": 1,
                                "order": 1
                            },
                            {
                                "children": [],
                                "depth": 1,
                                "id": 2,
                                "order": 2
                            },
                            {
                                "children": [],
                                "depth": 1,
                                "id": 3,
                                "order": 3
                            },
                            {
                                "children": [],
                                "depth": 1,
                                "id": 4,
                                "order": 4
                            }
                        ],
                        "depth": 0,
                        "id": 0,
                        "order": 0
                    }
                ],
                "depth": -1,
                "id": -1,
                "order": -1
            }
        ],
        "mainTraceNodeCount": 5,
        "parentIdMap": {
            "0": -1,
            "1": 0,
            "2": 0,
            "3": 0,
            "4": 0
        },
        "tidyTrace": [
            {
                "children": [
                    {
                        "children": [
                            {
                                "children": [],
                                "depth": 1,
                                "id": 1,
                                "order": 1
                            },
                            {
                                "children": [],
                                "depth": 1,
                                "id": 2,
                                "order": 2
                            },
                            {
                                "children": [],
                                "depth": 1,
                                "id": 3,
                                "order": 3
                            },
                            {
                                "children": [],
                                "depth": 1,
                                "id": 4,
                                "order": 4
                            }
                        ],
                        "depth": 0,
                        "id": 0,
                        "order": 0
                    }
                ],
                "depth": -1,
                "id": -1,
                "order": -1
            }
        ],
        "tidyTraceNodeCount": 5
    },
    "state_change": {
        "stateChanges": [
            {
                "address": "0x06012c8cf97bead5deae237070f9587f8e7a266d",
                "erc": "",
                "slots": [
                    {
                        "current": "0x00040005000000000014d6710016593e000000000070ddc2000000005c8edb3b",
                        "key": "0xf652222313e28459528d920b65115c16c04f3efc82aaedc97be59f3f37a8d962",
                        "prev": "0x00040005001665e90014d6710016593e000000000070ddc2000000005c8edb3b"
                    },
                    {
                        "current": "0x0000000000000000000000000000000000000000000000000000000000000a6e",
                        "key": "0x000000000000000000000000000000000000000000000000000000000000000f",
                        "prev": "0x0000000000000000000000000000000000000000000000000000000000000a6f"
                    },
                    {
                        "current": "0x000000000000000000000000000000000000000000000000000000000016706a",
                        "key": "0x0000000000000000000000000000000000000000000000000000000000000006",
                        "prev": "0x0000000000000000000000000000000000000000000000000000000000167069"
                    },
                    {
                        "current": "0x00002252b7bd0e72c1a3b122395885aca73598c4b3bd438f35a9483044c0858c",
                        "key": "0xf652222313e28459528d920b65115c16c04f3efc82aaedc97be59f3f37a8ee11",
                        "prev": "0x0000000000000000000000000000000000000000000000000000000000000000"
                    },
                    {
                        "current": "0x0005000200000000001665e9001666110000000000000000000000005c905f87",
                        "key": "0xf652222313e28459528d920b65115c16c04f3efc82aaedc97be59f3f37a8ee12",
                        "prev": "0x0000000000000000000000000000000000000000000000000000000000000000"
                    },
                    {
                        "current": "0x00000000000000000000000000000000000000000000000000000000000012c8",
                        "key": "0x65cc11855eda904d480009e73e001e4f1041449aeac224350305de1c1d42479a",
                        "prev": "0x00000000000000000000000000000000000000000000000000000000000012c7"
                    },
                    {
                        "current": "0x0000000000000000000000002f261a227480b7d1802433d05a92a27bab645032",
                        "key": "0x77bf6a3a61931ce257aaa2e715af049bf7e4ae0a2f2753e0e86c5455d79a4ae6",
                        "prev": "0x0000000000000000000000000000000000000000000000000000000000000000"
                    }
                ],
                "storageVariables": [
                    {
                        "name": "ownershipTokenCount",
                        "type": "mapping(address => uint256)",
                        "value": {
                            "pairs": [
                                {
                                    "key": "0x2f261a227480b7d1802433d05a92a27bab645032",
                                    "value": {
                                        "current": "4808",
                                        "prev": "4807",
                                        "typeTag": 1
                                    }
                                }
                            ],
                            "typeTag": 4
                        }
                    },
                    {
                        "name": "kittyIndexToOwner",
                        "type": "mapping(uint256 => address)",
                        "value": {
                            "pairs": [
                                {
                                    "key": "1470569",
                                    "value": {
                                        "current": "0x2f261a227480b7d1802433d05a92a27bab645032",
                                        "prev": "0x0000000000000000000000000000000000000000",
                                        "typeTag": 1
                                    }
                                }
                            ],
                            "typeTag": 4
                        }
                    },
                    {
                        "name": "kitties",
                        "type": "struct KittyBase.Kitty[]",
                        "value": {
                            "elemType": "struct KittyBase.Kitty",
                            "elems": [
                                {
                                    "index": 1467921,
                                    "value": {
                                        "fields": [
                                            {
                                                "name": "birthTime",
                                                "type": "uint64",
                                                "value": {
                                                    "current": "1552866107",
                                                    "prev": "1552866107",
                                                    "typeTag": 1
                                                }
                                            },
                                            {
                                                "name": "cooldownEndBlock",
                                                "type": "uint64",
                                                "value": {
                                                    "current": "7396802",
                                                    "prev": "7396802",
                                                    "typeTag": 1
                                                }
                                            },
                                            {
                                                "name": "matronId",
                                                "type": "uint32",
                                                "value": {
                                                    "current": "1464638",
                                                    "prev": "1464638",
                                                    "typeTag": 1
                                                }
                                            },
                                            {
                                                "name": "sireId",
                                                "type": "uint32",
                                                "value": {
                                                    "current": "1365617",
                                                    "prev": "1365617",
                                                    "typeTag": 1
                                                }
                                            },
                                            {
                                                "name": "siringWithId",
                                                "type": "uint32",
                                                "value": {
                                                    "current": "0",
                                                    "prev": "1467881",
                                                    "typeTag": 1
                                                }
                                            },
                                            {
                                                "name": "cooldownIndex",
                                                "type": "uint16",
                                                "value": {
                                                    "current": "5",
                                                    "prev": "5",
                                                    "typeTag": 1
                                                }
                                            },
                                            {
                                                "name": "generation",
                                                "type": "uint16",
                                                "value": {
                                                    "current": "4",
                                                    "prev": "4",
                                                    "typeTag": 1
                                                }
                                            }
                                        ],
                                        "typeTag": 3
                                    }
                                },
                                {
                                    "index": 1470569,
                                    "value": {
                                        "fields": [
                                            {
                                                "name": "genes",
                                                "type": "uint256",
                                                "value": {
                                                    "current": "236889441340268670870357647909607890024615863366390513258398283450058124",
                                                    "prev": "0",
                                                    "typeTag": 1
                                                }
                                            },
                                            {
                                                "name": "birthTime",
                                                "type": "uint64",
                                                "value": {
                                                    "current": "1552965511",
                                                    "prev": "0",
                                                    "typeTag": 1
                                                }
                                            },
                                            {
                                                "name": "cooldownEndBlock",
                                                "type": "uint64",
                                                "value": {
                                                    "current": "0",
                                                    "prev": "0",
                                                    "typeTag": 1
                                                }
                                            },
                                            {
                                                "name": "matronId",
                                                "type": "uint32",
                                                "value": {
                                                    "current": "1467921",
                                                    "prev": "0",
                                                    "typeTag": 1
                                                }
                                            },
                                            {
                                                "name": "sireId",
                                                "type": "uint32",
                                                "value": {
                                                    "current": "1467881",
                                                    "prev": "0",
                                                    "typeTag": 1
                                                }
                                            },
                                            {
                                                "name": "siringWithId",
                                                "type": "uint32",
                                                "value": {
                                                    "current": "0",
                                                    "prev": "0",
                                                    "typeTag": 1
                                                }
                                            },
                                            {
                                                "name": "cooldownIndex",
                                                "type": "uint16",
                                                "value": {
                                                    "current": "2",
                                                    "prev": "0",
                                                    "typeTag": 1
                                                }
                                            },
                                            {
                                                "name": "generation",
                                                "type": "uint16",
                                                "value": {
                                                    "current": "5",
                                                    "prev": "0",
                                                    "typeTag": 1
                                                }
                                            }
                                        ],
                                        "typeTag": 3
                                    }
                                }
                            ],
                            "typeTag": 2
                        }
                    },
                    {
                        "name": "pregnantKitties",
                        "type": "uint256",
                        "value": {
                            "current": "2670",
                            "prev": "2671",
                            "typeTag": 1
                        }
                    }
                ]
            }
        ]
    }
}