{
    "balance_change": {
        "balanceChanges": [
            {
                "account": "0x94790469694d00e147411b4e5cb0d8185771f935",
                "assets": [
                    {
                        "address": "0x79e52c8d2ca6ad34791899fcd19752a8bc51dea5",
                        "amount": "110,868,398,872.250627196784361849",
                        "iconUrl": "",
                        "isERC1155": false,
                        "isERC721": false,
                        "sign": false,
                        "value": "1686.39925"
                    }
                ]
            },
            {
                "account": "0x7fe31e8c3aa270f3df5aeaccd0e737cd57ca9e40",
                "assets": [
                    {
                        "address": "0x79e52c8d2ca6ad34791899fcd19752a8bc51dea5",
                        "amount": "110,868,398,872.250627196784361849",
                        "iconUrl": "",
                        "isERC1155": false,
                        "isERC721": false,
                        "sign": true,
                        "value": "1686.39925"
                    }
                ]
            }
        ]
    },
    "profile": {
        "basic_info": {
            "baseFee": "170.046411668",
            "blockNumber": 13594779,
            "callData": "0xa9059cbb0000000000000000000000007fe31e8c3aa270f3df5aeaccd0e737cd57ca9e400000000000000000000000000000000000000001663c30a9dd3ad58f68c24179",
            "debugEnable": true,
            "errorInfo": "",
            "eventCount": 1,
            "feeRecipient": "0x1ad91ee08f21be3de0ba2ba6918e714da6b45836",
            "formatValue": "0",
            "gasLimit": 279369,
            "gasPrice": "179.423533946",
            "gasUsed": 170192,
            "intTxnCount": 0,
            "internalRevert": false,
            "internalRevertMessage": "",
            "isContractCreation": false,
            "isFlashloan": false,
            "maxFee": "",
            "nonce": 37,
            "overwritedBlockNumber": -1,
            "priorityFee": "",
            "receiver": "0x79e52c8d2ca6ad34791899fcd19752a8bc51dea5",
            "revertMessage": "",
            "sender": "0x94790469694d00e147411b4e5cb0d8185771f935",
            "simulationEnable": true,
            "sourceTxnHash": "0x3de34fe76a2498579beba05ff7a61a4441fcf7412089af8d2c8ced4a8388577b",
            "status": true,
            "timestamp": "2021-11-11T11:59:24Z",
            "transactionFee": "0.030536450089337632",
            "txnHash": "0x3de34fe76a2498579beba05ff7a61a4441fcf7412089af8d2c8ced4a8388577b",
            "txnIndex": 3,
            "type": 0,
            "value": "0"
        },
        "fund_flow": [
            {
                "amount": "110,868,398,872.250627196784361849",
                "from": "0x94790469694d00e147411b4e5cb0d8185771f935",
                "id": 1,
                "isERC1155": false,
                "isERC721": false,
                "isReverted": false,
                "order": 1,
                "to": "0x7fe31e8c3aa270f3df5aeaccd0e737cd57ca9e40",
                "token": "0x79e52c8d2ca6ad34791899fcd19752a8bc51dea5"
            }
        ],
        "token_infos": [
            {
                "address": "0x79e52c8d2ca6ad34791899fcd19752a8bc51dea5",
                "decimals": 18
            },
            {
                "address": "0xc02aaa39b223fe8d0a0e5c4f27ead9083c756cc2",
                "decimals": 18
            },
            {
                "address": "0xeeeeeeeeeeeeeeeeeeeeeeeeeeeeeeeeeeeeeeee",
                "decimals": 18
            }
        ]
    },
    "address_label": {
        "labels": [
            {
                "address": "0x0000000000000000000000000000000000000004",
                "label": "Precompiled"
            },
            {
                "address": "0xeeeeeeeeeeeeeeeeeeeeeeeeeeeeeeeeeeeeeeee",
                "label": "Ether"
            },
            {
                "address": "0x79e52c8d2ca6ad34791899fcd19752a8bc51dea5",
                "label": "Women Empowerment: WEMP Token"
            },
            {
                "address": "0x7fe31e8c3aa270f3df5aeaccd0e737cd57ca9e40",
                "label": "BITMART"
            },
            {
                "address": "0x0000000000000000000000000000000000000001",
                "label": "Precompiled"
            },
            {
                "address": "0x0000000000000000000000000000000000000002",
                "label": "Precompiled"
            },
            {
                "address": "0x0000000000000000000000000000000000000003",
                "label": "Precompiled"
            }
        ]
    },
    "trace": {
        "accountLabels": null,
        "dataMap": {
            "-1": {
                "invocation": {
                    "address": "0x94790469694d00e147411b4e5cb0d8185771f935",
                    "callData": "",
                    "decodedMethod": null,
                    "errorInfo": "",
                    "fromAddress": "",
                    "gasUsed": 0,
                    "id": -1,
                    "methodDecoded": false,
                    "operation": "",
                    "output": "",
                    "revert": false,
                    "revertMessage": "",
                    "selector": "",
                    "status": false,
                    "value": ""
                },
                "nodeType": 0
            },
            "0": {
                "invocation": {
                    "address": "0x79e52c8d2ca6ad34791899fcd19752a8bc51dea5",
                    "callData": "0x0000000000000000000000007fe31e8c3aa270f3df5aeaccd0e737cd57ca9e400000000000000000000000000000000000000001663c30a9dd3ad58f68c24179",
                    "decodedMethod": {
                        "callParams": [
                            {
                                "name": "recipient",
                                "type": "address",
                                "value": "0x7fe31e8c3aa270f3df5aeaccd0e737cd57ca9e40"
                            },
                            {
                                "decimalAvailable": true,
                                "name": "amount",
                                "type": "uint256",
                                "value": "110,868,398,872,250,627,196,784,361,849"
                            }
                        ],
                        "constructorArguments": "",
                        "name": "transfer",
                        "returnParams": [
                            {
                                "name": "",
                                "type": "bool",
                                "value": true
                            }
                        ],
                        "signature": "transfer(address,uint256)"
                    },
                    "errorInfo": "",
                    "fromAddress": "0x94790469694d00e147411b4e5cb0d8185771f935",
                    "gasUsed": 170192,
                    "id": 0,
                    "methodDecoded": true,
                    "operation": "CALL",
                    "output": "0x0000000000000000000000000000000000000000000000000000000000000001",
                    "revert": false,
                    "revertMessage": "",
                    "selector": "0xa9059cbb",
                    "status": true,
                    "value": "0"
                },
                "nodeType": 0
            },
            "1": {
                "event": {
                    "contract": "0x79e52c8d2ca6ad34791899fcd19752a8bc51dea5",
                    "decodedLog": {
                        "name": "Transfer",
                        "params": [
                            {
                                "name": "from",
                                "type": "address",
                                "value": "0x94790469694d00e147411b4e5cb0d8185771f935"
                            },
                            {
                                "name": "to",
                                "type": "address",
                                "value": "0x7fe31e8c3aa270f3df5aeaccd0e737cd57ca9e40"
                            },
                            {
                                "decimalAvailable": true,
                                "name": "value",
                                "type": "uint256",
                                "value": "110,868,398,872,250,627,196,784,361,849"
                            }
                        ],
                        "signature": "Transfer(address,address,uint256)"
                    },
                    "id": 1,
                    "logData": "0x0000000000000000000000000000000000000001663c30a9dd3ad58f68c24179",
                    "logDecoded": true,
                    "operation": "EVENT",
                    "revert": false,
                    "status": true,
                    "topics": [
                        "0xddf252ad1be2c89b69c2b068fc378daa952ba7f163c4a11628f55a4df523b3ef",
                        "0x00000000000000000000000094790469694d00e147411b4e5cb0d8185771f935",
                        "0x0000000000000000000000007fe31e8c3aa270f3df5aeaccd0e737cd57ca9e40"
                    ]
                },
                "nodeType": 1
            }
        },
        "gasFlame": [
            {
                "children": [
                    {
                        "children": [
                            {
                                "children": [],
                                "depth": 0,
                                "name": "Initial Gas",
                                "value": 21716
                            },
                            {
                                "children": [],
                                "depth": 0,
                                "name": "Executed Gas",
                                "value": 162476
                            }
                        ],
                        "depth": -1,
                        "name": "Actual Gas Used",
                        "value": 170192
                    },
                    {
                        "children": [],
                        "depth": -1,
                        "name": "Refunded Gas",
                        "value": 14000
                    }
                ],
                "depth": -2,
                "name": "Total Gas",
                "value": 184192
            }
        ],
        "isConfirmed": true,
        "mainTrace": [
            {
                "children": [
                    {
                        "children": [
                            {
                                "children": [],
                                "depth": 1,
                                "id": 1,
                                "order": 1
                            }
                        ],
                        "depth": 0,
                        "id": 0,
                        "order": 0
                    }
                ],
                "depth": -1,
                "id": -1,
                "order": -1
            }
        ],
        "mainTraceNodeCount": 2,
        "parentIdMap": {
            "0": -1,
            "1": 0
        },
        "tidyTrace": [
            {
                "children": [
                    {
                        "children": [
                            {
                                "children": [],
                                "depth": 1,
                                "id": 1,
                                "order": 1
                            }
                        ],
                        "depth": 0,
                        "id": 0,
                        "order": 0
                    }
                ],
                "depth": -1,
                "id": -1,
                "order": -1
            }
        ],
        "tidyTraceNodeCount": 2
    },
    "state_change": {
        "stateChanges": [
            {
                "address": "0x79e52c8d2ca6ad34791899fcd19752a8bc51dea5",
                "erc": "ERC-20",
                "slots": [
                    {
                        "current": "0x000000000000000000000000000855aee2a94e818b4856c2c54b929b52d8a394",
                        "key": "0x3843e733cc485674d5c4f92167945fa6d593b53beb3198234c528609b893fb2a",
                        "prev": "0x000bb5fb829caf75e60c73faf7c3fcde4b7b0e0fedb3e6092aac87941e12ee89"
                    },
                    {
                        "current": "0x000bb5fb829caf75e60c73faf7bba72f68d1bf8e626b8f466560f4f8cb3a4af5",
                        "key": "0x28402d957f33db20a56394920c6a6ad0fff603bb78da5498f9410e589c0dfcec",
                        "prev": "0x0000000000000000000000000000000000000000000000000000000000000000"
                    }
                ],
                "storageVariables": [
                    {
                        "name": "_rOwned",
                        "type": "mapping(address => uint256)",
                        "value": {
                            "pairs": [
                                {
                                    "key": "0x7fe31e8c3aa270f3df5aeaccd0e737cd57ca9e40",
                                    "value": {
                                        "current": "20691314502999323348916450093325989898801659086639203543665975814935694069",
                                        "prev": "0",
                                        "typeTag": 1
                                    }
                                },
                                {
                                    "key": "0x94790469694d00e147411b4e5cb0d8185771f935",
                                    "value": {
                                        "current": "185870016308906357361182461276975038761313172",
                                        "prev": "20691314502999323348916450093511859915110565444000386004942950853697007241",
                                        "typeTag": 1
                                    }
                                }
                            ],
                            "typeTag": 4
                        }
                    }
                ]
            }
        ]
    }
}