{
    "balance_change": {
        "balanceChanges": [
            {
                "account": "0xb48a6e57fd216e2d3322f84ce51670d8a9304aee",
                "assets": [
                    {
                        "address": "0x0bc529c00c6401aef6d220be8c6ea1667f6ad93e",
                        "amount": "0.043",
                        "iconUrl": "https://assets.blocksec.com/icon/3ed08b9b1f031e3294e0ffbdaf265ecfcd3b884fc42d6485b85b695e654c48f2.png",
                        "isERC1155": false,
                        "isERC721": false,
                        "sign": false,
                        "value": "1691.908107"
                    }
                ]
            },
            {
                "account": "0x3a812e75dd7efa7a2e1d7e442de111980724fc19",
                "assets": [
                    {
                        "address": "0x0bc529c00c6401aef6d220be8c6ea1667f6ad93e",
                        "amount": "0.043",
                        "iconUrl": "https://assets.blocksec.com/icon/3ed08b9b1f031e3294e0ffbdaf265ecfcd3b884fc42d6485b85b695e654c48f2.png",
                        "isERC1155": false,
                        "isERC721": false,
                        "sign": true,
                        "value": "1691.908107"
                    }
                ]
            }
        ]
    },
    "profile": {
        "basic_info": {
            "baseFee": "105.612184587",
            "blockNumber": 13928775,
            "callData": "0xa9059cbb0000000000000000000000003a812e75dd7efa7a2e1d7e442de111980724fc190000000000000000000000000000000000000000000000000098c445ad578000",
            "debugEnable": true,
            "errorInfo": "",
            "eventCount": 1,
            "feeRecipient": "0xea674fdde714fd979de3edf0f56aa9716b898ec8",
            "formatValue": "0",
            "gasLimit": 62141,
            "gasPrice": "109",
            "gasUsed": 51784,
            "intTxnCount": 0,
            "internalRevert": false,
            "internalRevertMessage": "",
            "isContractCreation": false,
            "isFlashloan": false,
            "maxFee": "",
            "nonce": 7,
            "overwritedBlockNumber": -1,
            "priorityFee": "",
            "receiver": "0x0bc529c00c6401aef6d220be8c6ea1667f6ad93e",
            "revertMessage": "",
            "sender": "0xb48a6e57fd216e2d3322f84ce51670d8a9304aee",
            "simulationEnable": true,
            "sourceTxnHash": "0x3e490ff299c06cdbe8dbb43152f581f07fd546c5df5526e7e5896974aee9a665",
            "status": true,
            "timestamp": "2022-01-02T22:33:18Z",
            "transactionFee": "0.005644456",
            "txnHash": "0x3e490ff299c06cdbe8dbb43152f581f07fd546c5df5526e7e5896974aee9a665",
            "txnIndex": 92,
            "type": 0,
            "value": "0"
        },
        "fund_flow": [
            {
                "amount": "0.043",
                "from": "0xb48a6e57fd216e2d3322f84ce51670d8a9304aee",
                "id": 1,
                "isERC1155": false,
                "isERC721": false,
                "isReverted": false,
                "order": 1,
                "to": "0x3a812e75dd7efa7a2e1d7e442de111980724fc19",
                "token": "0x0bc529c00c6401aef6d220be8c6ea1667f6ad93e"
            }
        ],
        "token_infos": [
            {
                "address": "0x0bc529c00c6401aef6d220be8c6ea1667f6ad93e",
                "decimals": 18
            },
            {
                "address": "0xc02aaa39b223fe8d0a0e5c4f27ead9083c756cc2",
                "decimals": 18
            },
            {
                "address": "0xeeeeeeeeeeeeeeeeeeeeeeeeeeeeeeeeeeeeeeee",
                "decimals": 18
            }
        ]
    },
    "address_label": {
        "labels": [
            {
                "address": "0xeeeeeeeeeeeeeeeeeeeeeeeeeeeeeeeeeeeeeeee",
                "label": "Ether"
            },
            {
                "address": "0x0bc529c00c6401aef6d220be8c6ea1667f6ad93e",
                "label": "Ygov.finance: YFI Token"
            },
            {
                "address": "0x3a812e75dd7efa7a2e1d7e442de111980724fc19",
                "label": "KUCOIN"
            },
            {
                "address": "0x0000000000000000000000000000000000000001",
                "label": "Precompiled"
            },
            {
                "address": "0x0000000000000000000000000000000000000002",
                "label": "Precompiled"
            },
            {
                "address": "0x0000000000000000000000000000000000000003",
                "label": "Precompiled"
            },
            {
                "address": "0x0000000000000000000000000000000000000004",
                "label": "Precompiled"
            }
        ]
    },
    "trace": {
        "accountLabels": null,
        "dataMap": {
            "-1": {
                "invocation": {
                    "address": "0xb48a6e57fd216e2d3322f84ce51670d8a9304aee",
                    "callData": "",
                    "decodedMethod": null,
                    "errorInfo": "",
                    "fromAddress": "",
                    "gasUsed": 0,
                    "id": -1,
                    "methodDecoded": false,
                    "operation": "",
                    "output": "",
                    "revert": false,
                    "revertMessage": "",
                    "selector": "",
                    "status": false,
                    "value": ""
                },
                "nodeType": 0
            },
            "0": {
                "invocation": {
                    "address": "0x0bc529c00c6401aef6d220be8c6ea1667f6ad93e",
                    "callData": "0x0000000000000000000000003a812e75dd7efa7a2e1d7e442de111980724fc190000000000000000000000000000000000000000000000000098c445ad578000",
                    "decodedMethod": {
                        "callParams": [
                            {
                                "name": "recipient",
                                "type": "address",
                                "value": "0x3a812e75dd7efa7a2e1d7e442de111980724fc19"
                            },
                            {
                                "decimalAvailable": true,
                                "name": "amount",
                                "type": "uint256",
                                "value": "43,000,000,000,000,000"
                            }
                        ],
                        "constructorArguments": "",
                        "name": "transfer",
                        "returnParams": [
                            {
                                "name": "",
                                "type": "bool",
                                "value": true
                            }
                        ],
                        "signature": "transfer(address,uint256)"
                    },
                    "errorInfo": "",
                    "fromAddress": "0xb48a6e57fd216e2d3322f84ce51670d8a9304aee",
                    "gasUsed": 51784,
                    "id": 0,
                    "methodDecoded": true,
                    "operation": "CALL",
                    "output": "0x0000000000000000000000000000000000000000000000000000000000000001",
                    "revert": false,
                    "revertMessage": "",
                    "selector": "0xa9059cbb",
                    "status": true,
                    "value": "0"
                },
                "nodeType": 0
            },
            "1": {
                "event": {
                    "contract": "0x0bc529c00c6401aef6d220be8c6ea1667f6ad93e",
                    "decodedLog": {
                        "name": "Transfer",
                        "params": [
                            {
                                "name": "from",
                                "type": "address",
                                "value": "0xb48a6e57fd216e2d3322f84ce51670d8a9304aee"
                            },
                            {
                                "name": "to",
                                "type": "address",
                                "value": "0x3a812e75dd7efa7a2e1d7e442de111980724fc19"
                            },
                            {
                                "decimalAvailable": true,
                                "name": "value",
                                "type": "uint256",
                                "value": "43,000,000,000,000,000"
                            }
                        ],
                        "signature": "Transfer(address,address,uint256)"
                    },
                    "id": 1,
                    "logData": "0x0000000000000000000000000000000000000000000000000098c445ad578000",
                    "logDecoded": true,
                    "operation": "EVENT",
                    "revert": false,
                    "status": true,
                    "topics": [
                        "0xddf252ad1be2c89b69c2b068fc378daa952ba7f163c4a11628f55a4df523b3ef",
                        "0x000000000000000000000000b48a6e57fd216e2d3322f84ce51670d8a9304aee",
                        "0x0000000000000000000000003a812e75dd7efa7a2e1d7e442de111980724fc19"
                    ]
                },
                "nodeType": 1
            }
        },
        "gasFlame": [
            {
                "children": [
                    {
                        "children": [
                            {
                                "children": [],
                                "depth": 0,
                                "name": "Initial Gas",
                                "value": 21632
                            },
                            {
                                "children": [],
                                "depth": 0,
                                "name": "Executed Gas",
                                "value": 30152
                            }
                        ],
                        "depth": -1,
                        "name": "Actual Gas Used",
                        "value": 51784
                    },
                    {
                        "children": [],
                        "depth": -1,
                        "name": "Refunded Gas",
                        "value": 0
                    }
                ],
                "depth": -2,
                "name": "Total Gas",
                "value": 51784
            }
        ],
        "isConfirmed": true,
        "mainTrace": [
            {
                "children": [
                    {
                        "children": [
                            {
                                "children": [],
                                "depth": 1,
                                "id": 1,
                                "order": 1
                            }
                        ],
                        "depth": 0,
                        "id": 0,
                        "order": 0
                    }
                ],
                "depth": -1,
                "id": -1,
                "order": -1
            }
        ],
        "mainTraceNodeCount": 2,
        "parentIdMap": {
            "0": -1,
            "1": 0
        },
        "tidyTrace": [
            {
                "children": [
                    {
                        "children": [
                            {
                                "children": [],
                                "depth": 1,
                                "id": 1,
                                "order": 1
                            }
                        ],
                        "depth": 0,
                        "id": 0,
                        "order": 0
                    }
                ],
                "depth": -1,
                "id": -1,
                "order": -1
            }
        ],
        "tidyTraceNodeCount": 2
    },
    "state_change": {
        "stateChanges": [
            {
                "address": "0x0bc529c00c6401aef6d220be8c6ea1667f6ad93e",
                "erc": "ERC-20",
                "slots": [
                    {
                        "current": "0x0000000000000000000000000000000000000000000000000002aaad026a3400",
                        "key": "0x6d449066de2eaa00d74ef4e3f1e5906746771bf6530f572287620d7d09050378",
                        "prev": "0x000000000000000000000000000000000000000000000000009b6ef2afc1b400"
                    },
                    {
                        "current": "0x0000000000000000000000000000000000000000000000000098c445ad578000",
                        "key": "0x70cb9ff6cc7ad043cf5ee2219c915786ac5e3f6835e241d59d25fda3c84e65b2",
                        "prev": "0x0000000000000000000000000000000000000000000000000000000000000000"
                    }
                ],
                "storageVariables": [
                    {
                        "name": "_balances",
                        "type": "mapping(address => uint256)",
                        "value": {
                            "pairs": [
                                {
                                    "key": "0x3a812e75dd7efa7a2e1d7e442de111980724fc19",
                                    "value": {
                                        "current": "43000000000000000",
                                        "prev": "0",
                                        "typeTag": 1
                                    }
                                },
                                {
                                    "key": "0xb48a6e57fd216e2d3322f84ce51670d8a9304aee",
                                    "value": {
                                        "current": "750610000000000",
                                        "prev": "43750610000000000",
                                        "typeTag": 1
                                    }
                                }
                            ],
                            "typeTag": 4
                        }
                    }
                ]
            }
        ]
    }
}