{
    "balance_change": {
        "balanceChanges": [
            {
                "account": "0x973e6bdc9f68c9a3a35ac38f0b3c51cc1b550f4c",
                "assets": [
                    {
                        "address": "0xdac17f958d2ee523a2206206994597c13d831ec7",
                        "amount": "987.348394",
                        "iconUrl": "https://assets.blocksec.com/icon/fcea71f3193ce895be44bfdf941f7e4c9381dd587f273c2d1a27f1263d84e4ea.png",
                        "isERC1155": false,
                        "isERC721": false,
                        "sign": false,
                        "value": "985.9661062484000426"
                    }
                ]
            },
            {
                "account": "0xa9d1e08c7793af67e9d92fe308d5697fb81d3e43",
                "assets": [
                    {
                        "address": "0xdac17f958d2ee523a2206206994597c13d831ec7",
                        "amount": "987.348394",
                        "iconUrl": "https://assets.blocksec.com/icon/fcea71f3193ce895be44bfdf941f7e4c9381dd587f273c2d1a27f1263d84e4ea.png",
                        "isERC1155": false,
                        "isERC721": false,
                        "sign": true,
                        "value": "985.9661062484000426"
                    }
                ]
            }
        ]
    },
    "profile": {
        "basic_info": {
            "baseFee": "29.283531937",
            "blockNumber": 15719077,
            "callData": "0xa9059cbb000000000000000000000000a9d1e08c7793af67e9d92fe308d5697fb81d3e43000000000000000000000000000000000000000000000000000000003ad9bdaa",
            "debugEnable": true,
            "errorInfo": "",
            "eventCount": 1,
            "feeRecipient": "0xed33259a056f4fb449ffb7b7e2ecb43a9b5685bf",
            "formatValue": "0",
            "gasLimit": 46109,
            "gasPrice": "31.283531937",
            "gasUsed": 41309,
            "intTxnCount": 0,
            "internalRevert": false,
            "internalRevertMessage": "",
            "isContractCreation": false,
            "isFlashloan": false,
            "maxFee": "56.75",
            "nonce": 0,
            "overwritedBlockNumber": -1,
            "priorityFee": "2",
            "receiver": "0xdac17f958d2ee523a2206206994597c13d831ec7",
            "revertMessage": "",
            "sender": "0x973e6bdc9f68c9a3a35ac38f0b3c51cc1b550f4c",
            "simulationEnable": true,
            "sourceTxnHash": "0x3e0ffa1a508359cd8645ecabb3836fef4f8b9d578a9f62f260c7987bf48d7f12",
            "status": true,
            "timestamp": "2022-10-10T17:05:23Z",
            "transactionFee": "0.001292291420785533",
            "txnHash": "0x3e0ffa1a508359cd8645ecabb3836fef4f8b9d578a9f62f260c7987bf48d7f12",
            "txnIndex": 213,
            "type": 2,
            "value": "0"
        },
        "fund_flow": [
            {
                "amount": "987.348394",
                "from": "0x973e6bdc9f68c9a3a35ac38f0b3c51cc1b550f4c",
                "id": 1,
                "isERC1155": false,
                "isERC721": false,
                "isReverted": false,
                "order": 1,
                "to": "0xa9d1e08c7793af67e9d92fe308d5697fb81d3e43",
                "token": "0xdac17f958d2ee523a2206206994597c13d831ec7"
            }
        ],
        "token_infos": [
            {
                "address": "0xc02aaa39b223fe8d0a0e5c4f27ead9083c756cc2",
                "decimals": 18
            },
            {
                "address": "0xdac17f958d2ee523a2206206994597c13d831ec7",
                "decimals": 6
            },
            {
                "address": "0xeeeeeeeeeeeeeeeeeeeeeeeeeeeeeeeeeeeeeeee",
                "decimals": 18
            }
        ]
    },
    "address_label": {
        "labels": [
            {
                "address": "0x0000000000000000000000000000000000000001",
                "label": "Precompiled"
            },
            {
                "address": "0x0000000000000000000000000000000000000002",
                "label": "Precompiled"
            },
            {
                "address": "0x0000000000000000000000000000000000000003",
                "label": "Precompiled"
            },
            {
                "address": "0x0000000000000000000000000000000000000004",
                "label": "Precompiled"
            },
            {
                "address": "0xeeeeeeeeeeeeeeeeeeeeeeeeeeeeeeeeeeeeeeee",
                "label": "Ether"
            },
            {
                "address": "0xa9d1e08c7793af67e9d92fe308d5697fb81d3e43",
                "label": "Coinbase 10"
            },
            {
                "address": "0x973e6bdc9f68c9a3a35ac38f0b3c51cc1b550f4c",
                "label": "COINBASE"
            },
            {
                "address": "0xdac17f958d2ee523a2206206994597c13d831ec7",
                "label": "Tether: USDT Stablecoin"
            }
        ]
    },
    "trace": {
        "accountLabels": null,
        "dataMap": {
            "-1": {
                "invocation": {
                    "address": "0x973e6bdc9f68c9a3a35ac38f0b3c51cc1b550f4c",
                    "callData": "",
                    "decodedMethod": null,
                    "errorInfo": "",
                    "fromAddress": "",
                    "gasUsed": 0,
                    "id": -1,
                    "methodDecoded": false,
                    "operation": "",
                    "output": "",
                    "revert": false,
                    "revertMessage": "",
                    "selector": "",
                    "status": false,
                    "value": ""
                },
                "nodeType": 0
            },
            "0": {
                "invocation": {
                    "address": "0xdac17f958d2ee523a2206206994597c13d831ec7",
                    "callData": "0x000000000000000000000000a9d1e08c7793af67e9d92fe308d5697fb81d3e43000000000000000000000000000000000000000000000000000000003ad9bdaa",
                    "decodedMethod": {
                        "callParams": [
                            {
                                "name": "_to",
                                "type": "address",
                                "value": "0xa9d1e08c7793af67e9d92fe308d5697fb81d3e43"
                            },
                            {
                                "decimalAvailable": true,
                                "name": "_value",
                                "type": "uint256",
                                "value": "987,348,394"
                            }
                        ],
                        "constructorArguments": "",
                        "name": "transfer",
                        "returnParams": [],
                        "signature": "transfer(address,uint256)"
                    },
                    "errorInfo": "",
                    "fromAddress": "0x973e6bdc9f68c9a3a35ac38f0b3c51cc1b550f4c",
                    "gasUsed": 41309,
                    "id": 0,
                    "methodDecoded": true,
                    "operation": "CALL",
                    "output": "",
                    "revert": false,
                    "revertMessage": "",
                    "selector": "0xa9059cbb",
                    "status": true,
                    "value": "0"
                },
                "nodeType": 0
            },
            "1": {
                "event": {
                    "contract": "0xdac17f958d2ee523a2206206994597c13d831ec7",
                    "decodedLog": {
                        "name": "Transfer",
                        "params": [
                            {
                                "name": "from",
                                "type": "address",
                                "value": "0x973e6bdc9f68c9a3a35ac38f0b3c51cc1b550f4c"
                            },
                            {
                                "name": "to",
                                "type": "address",
                                "value": "0xa9d1e08c7793af67e9d92fe308d5697fb81d3e43"
                            },
                            {
                                "decimalAvailable": true,
                                "name": "value",
                                "type": "uint256",
                                "value": "987,348,394"
                            }
                        ],
                        "signature": "Transfer(address,address,uint256)"
                    },
                    "id": 1,
                    "logData": "0x000000000000000000000000000000000000000000000000000000003ad9bdaa",
                    "logDecoded": true,
                    "operation": "EVENT",
                    "revert": false,
                    "status": true,
                    "topics": [
                        "0xddf252ad1be2c89b69c2b068fc378daa952ba7f163c4a11628f55a4df523b3ef",
                        "0x000000000000000000000000973e6bdc9f68c9a3a35ac38f0b3c51cc1b550f4c",
                        "0x000000000000000000000000a9d1e08c7793af67e9d92fe308d5697fb81d3e43"
                    ]
                },
                "nodeType": 1
            }
        },
        "gasFlame": [
            {
                "children": [
                    {
                        "children": [
                            {
                                "children": [],
                                "depth": 0,
                                "name": "Initial Gas",
                                "value": 21608
                            },
                            {
                                "children": [],
                                "depth": 0,
                                "name": "Executed Gas",
                                "value": 24501
                            }
                        ],
                        "depth": -1,
                        "name": "Actual Gas Used",
                        "value": 41309
                    },
                    {
                        "children": [],
                        "depth": -1,
                        "name": "Refunded Gas",
                        "value": 4800
                    }
                ],
                "depth": -2,
                "name": "Total Gas",
                "value": 46109
            }
        ],
        "isConfirmed": true,
        "mainTrace": [
            {
                "children": [
                    {
                        "children": [
                            {
                                "children": [],
                                "depth": 1,
                                "id": 1,
                                "order": 1
                            }
                        ],
                        "depth": 0,
                        "id": 0,
                        "order": 0
                    }
                ],
                "depth": -1,
                "id": -1,
                "order": -1
            }
        ],
        "mainTraceNodeCount": 2,
        "parentIdMap": {
            "0": -1,
            "1": 0
        },
        "tidyTrace": [
            {
                "children": [
                    {
                        "children": [
                            {
                                "children": [],
                                "depth": 1,
                                "id": 1,
                                "order": 1
                            }
                        ],
                        "depth": 0,
                        "id": 0,
                        "order": 0
                    }
                ],
                "depth": -1,
                "id": -1,
                "order": -1
            }
        ],
        "tidyTraceNodeCount": 2
    },
    "state_change": {
        "stateChanges": [
            {
                "address": "0xdac17f958d2ee523a2206206994597c13d831ec7",
                "erc": "ERC-20",
                "slots": [
                    {
                        "current": "0x0000000000000000000000000000000000000000000000000000000000000000",
                        "key": "0x8a82c30548ff7c11f0869dadac41e32bf7b3736bdf038fe1863118806a5f0f67",
                        "prev": "0x000000000000000000000000000000000000000000000000000000003ad9bdaa"
                    },
                    {
                        "current": "0x00000000000000000000000000000000000000000000000000000addf3c4b4c0",
                        "key": "0x6c754439e1190c3695aed98a7015528d08b476b585950451f4f7c81ebec2a768",
                        "prev": "0x00000000000000000000000000000000000000000000000000000addb8eaf716"
                    }
                ],
                "storageVariables": [
                    {
                        "name": "balances",
                        "type": "mapping(address => uint256)",
                        "value": {
                            "pairs": [
                                {
                                    "key": "0x973e6bdc9f68c9a3a35ac38f0b3c51cc1b550f4c",
                                    "value": {
                                        "current": "0",
                                        "prev": "987348394",
                                        "typeTag": 1
                                    }
                                },
                                {
                                    "key": "0xa9d1e08c7793af67e9d92fe308d5697fb81d3e43",
                                    "value": {
                                        "current": "11948393804992",
                                        "prev": "11947406456598",
                                        "typeTag": 1
                                    }
                                }
                            ],
                            "typeTag": 4
                        }
                    }
                ]
            }
        ]
    }
}