{
    "balance_change": {
        "balanceChanges": [
            {
                "account": "0xc67813f468975099b09dd76b55ae6011a9f359ca",
                "assets": [
                    {
                        "address": "0x7297862b9670ff015192799cc849726c88bf1d77",
                        "amount": "10",
                        "iconUrl": "",
                        "isERC1155": false,
                        "isERC721": false,
                        "sign": false,
                        "value": ""
                    }
                ]
            },
            {
                "account": "0x2cf1523982a54089bb8364da50cf5b6dd2763c81",
                "assets": [
                    {
                        "address": "0x7297862b9670ff015192799cc849726c88bf1d77",
                        "amount": "10",
                        "iconUrl": "",
                        "isERC1155": false,
                        "isERC721": false,
                        "sign": true,
                        "value": ""
                    }
                ]
            }
        ]
    },
    "profile": {
        "basic_info": {
            "baseFee": "",
            "blockNumber": 7147907,
            "callData": "0xa9059cbb0000000000000000000000002cf1523982a54089bb8364da50cf5b6dd2763c810000000000000000000000000000000000000000000000008ac7230489e80000",
            "debugEnable": true,
            "errorInfo": "",
            "eventCount": 1,
            "feeRecipient": "0x8122abd38e70a25af2315c1556b0c6940506cff5",
            "formatValue": "0",
            "gasLimit": 60000,
            "gasPrice": "6.1",
            "gasUsed": 52359,
            "intTxnCount": 0,
            "internalRevert": false,
            "internalRevertMessage": "",
            "isContractCreation": false,
            "isFlashloan": false,
            "maxFee": "",
            "nonce": 6975,
            "overwritedBlockNumber": -1,
            "priorityFee": "",
            "receiver": "0x7297862b9670ff015192799cc849726c88bf1d77",
            "revertMessage": "",
            "sender": "0xc67813f468975099b09dd76b55ae6011a9f359ca",
            "simulationEnable": true,
            "sourceTxnHash": "0x3fe113ebf4aab65d69b591e6db232d963919e73d3aa4b3a24c2047ee3d2b6924",
            "status": true,
            "timestamp": "2019-01-30T07:59:31Z",
            "transactionFee": "0.0003193899",
            "txnHash": "0x3fe113ebf4aab65d69b591e6db232d963919e73d3aa4b3a24c2047ee3d2b6924",
            "txnIndex": 85,
            "type": 0,
            "value": "0"
        },
        "fund_flow": [
            {
                "amount": "10",
                "from": "0xc67813f468975099b09dd76b55ae6011a9f359ca",
                "id": 1,
                "isERC1155": false,
                "isERC721": false,
                "isReverted": false,
                "order": 1,
                "to": "0x2cf1523982a54089bb8364da50cf5b6dd2763c81",
                "token": "0x7297862b9670ff015192799cc849726c88bf1d77"
            }
        ],
        "token_infos": [
            {
                "address": "0xeeeeeeeeeeeeeeeeeeeeeeeeeeeeeeeeeeeeeeee",
                "decimals": 18
            },
            {
                "address": "0x7297862b9670ff015192799cc849726c88bf1d77",
                "decimals": 18
            },
            {
                "address": "0xc02aaa39b223fe8d0a0e5c4f27ead9083c756cc2",
                "decimals": 18
            }
        ]
    },
    "address_label": {
        "labels": [
            {
                "address": "0xeeeeeeeeeeeeeeeeeeeeeeeeeeeeeeeeeeeeeeee",
                "label": "Ether"
            },
            {
                "address": "0x7297862b9670ff015192799cc849726c88bf1d77",
                "label": "Skymap: SKYM Token"
            },
            {
                "address": "0x0000000000000000000000000000000000000001",
                "label": "Precompiled"
            },
            {
                "address": "0x0000000000000000000000000000000000000002",
                "label": "Precompiled"
            },
            {
                "address": "0x0000000000000000000000000000000000000003",
                "label": "Precompiled"
            },
            {
                "address": "0x0000000000000000000000000000000000000004",
                "label": "Precompiled"
            }
        ]
    },
    "trace": {
        "accountLabels": null,
        "dataMap": {
            "-1": {
                "invocation": {
                    "address": "0xc67813f468975099b09dd76b55ae6011a9f359ca",
                    "callData": "",
                    "decodedMethod": null,
                    "errorInfo": "",
                    "fromAddress": "",
                    "gasUsed": 0,
                    "id": -1,
                    "methodDecoded": false,
                    "operation": "",
                    "output": "",
                    "revert": false,
                    "revertMessage": "",
                    "selector": "",
                    "status": false,
                    "value": ""
                },
                "nodeType": 0
            },
            "0": {
                "invocation": {
                    "address": "0x7297862b9670ff015192799cc849726c88bf1d77",
                    "callData": "0x0000000000000000000000002cf1523982a54089bb8364da50cf5b6dd2763c810000000000000000000000000000000000000000000000008ac7230489e80000",
                    "decodedMethod": {
                        "callParams": [
                            {
                                "name": "_to",
                                "type": "address",
                                "value": "0x2cf1523982a54089bb8364da50cf5b6dd2763c81"
                            },
                            {
                                "decimalAvailable": true,
                                "name": "_value",
                                "type": "uint256",
                                "value": "10,000,000,000,000,000,000"
                            }
                        ],
                        "constructorArguments": "",
                        "name": "transfer",
                        "returnParams": [
                            {
                                "name": "",
                                "type": "bool",
                                "value": true
                            }
                        ],
                        "signature": "transfer(address,uint256)"
                    },
                    "errorInfo": "",
                    "fromAddress": "0xc67813f468975099b09dd76b55ae6011a9f359ca",
                    "gasUsed": 52359,
                    "id": 0,
                    "methodDecoded": true,
                    "operation": "CALL",
                    "output": "0x0000000000000000000000000000000000000000000000000000000000000001",
                    "revert": false,
                    "revertMessage": "",
                    "selector": "0xa9059cbb",
                    "status": true,
                    "value": "0"
                },
                "nodeType": 0
            },
            "1": {
                "event": {
                    "contract": "0x7297862b9670ff015192799cc849726c88bf1d77",
                    "decodedLog": {
                        "name": "Transfer",
                        "params": [
                            {
                                "name": "from",
                                "type": "address",
                                "value": "0xc67813f468975099b09dd76b55ae6011a9f359ca"
                            },
                            {
                                "name": "to",
                                "type": "address",
                                "value": "0x2cf1523982a54089bb8364da50cf5b6dd2763c81"
                            },
                            {
                                "decimalAvailable": true,
                                "name": "value",
                                "type": "uint256",
                                "value": "10,000,000,000,000,000,000"
                            }
                        ],
                        "signature": "Transfer(address,address,uint256)"
                    },
                    "id": 1,
                    "logData": "0x0000000000000000000000000000000000000000000000008ac7230489e80000",
                    "logDecoded": true,
                    "operation": "EVENT",
                    "revert": false,
                    "status": true,
                    "topics": [
                        "0xddf252ad1be2c89b69c2b068fc378daa952ba7f163c4a11628f55a4df523b3ef",
                        "0x000000000000000000000000c67813f468975099b09dd76b55ae6011a9f359ca",
                        "0x0000000000000000000000002cf1523982a54089bb8364da50cf5b6dd2763c81"
                    ]
                },
                "nodeType": 1
            }
        },
        "gasFlame": [
            {
                "children": [
                    {
                        "children": [
                            {
                                "children": [],
                                "depth": 0,
                                "name": "Initial Gas",
                                "value": 23192
                            },
                            {
                                "children": [],
                                "depth": 0,
                                "name": "Executed Gas",
                                "value": 29167
                            }
                        ],
                        "depth": -1,
                        "name": "Actual Gas Used",
                        "value": 52359
                    },
                    {
                        "children": [],
                        "depth": -1,
                        "name": "Refunded Gas",
                        "value": 0
                    }
                ],
                "depth": -2,
                "name": "Total Gas",
                "value": 52359
            }
        ],
        "isConfirmed": true,
        "mainTrace": [
            {
                "children": [
                    {
                        "children": [
                            {
                                "children": [],
                                "depth": 1,
                                "id": 1,
                                "order": 1
                            }
                        ],
                        "depth": 0,
                        "id": 0,
                        "order": 0
                    }
                ],
                "depth": -1,
                "id": -1,
                "order": -1
            }
        ],
        "mainTraceNodeCount": 2,
        "parentIdMap": {
            "0": -1,
            "1": 0
        },
        "tidyTrace": [
            {
                "children": [
                    {
                        "children": [
                            {
                                "children": [],
                                "depth": 1,
                                "id": 1,
                                "order": 1
                            }
                        ],
                        "depth": 0,
                        "id": 0,
                        "order": 0
                    }
                ],
                "depth": -1,
                "id": -1,
                "order": -1
            }
        ],
        "tidyTraceNodeCount": 2
    },
    "state_change": {
        "stateChanges": [
            {
                "address": "0x7297862b9670ff015192799cc849726c88bf1d77",
                "erc": "ERC-20",
                "slots": [
                    {
                        "current": "0x0000000000000000000000000000000000000000000000655f769450bc780000",
                        "key": "0x0e6c79bf7cb125641ddfefa9fd3ad8fc4496952aaa4a2c50dfa97ecc59ba6aab",
                        "prev": "0x000000000000000000000000000000000000000000000065ea3db75546600000"
                    },
                    {
                        "current": "0x0000000000000000000000000000000000000000000000008ac7230489e80000",
                        "key": "0xd72db5c2ab6b96bdacb8e2c78270a9a8018217ecc26ea358b8b3bb9e929f9a21",
                        "prev": "0x0000000000000000000000000000000000000000000000000000000000000000"
                    }
                ],
                "storageVariables": [
                    {
                        "name": "balances",
                        "type": "mapping(address => uint256)",
                        "value": {
                            "pairs": [
                                {
                                    "key": "0x2cf1523982a54089bb8364da50cf5b6dd2763c81",
                                    "value": {
                                        "current": "10000000000000000000",
                                        "prev": "0",
                                        "typeTag": 1
                                    }
                                },
                                {
                                    "key": "0xc67813f468975099b09dd76b55ae6011a9f359ca",
                                    "value": {
                                        "current": "1870000000000000000000",
                                        "prev": "1880000000000000000000",
                                        "typeTag": 1
                                    }
                                }
                            ],
                            "typeTag": 4
                        }
                    }
                ]
            }
        ]
    }
}