{
    "balance_change": {
        "balanceChanges": [
            {
                "account": "0x0ab1289cc5dd0a9f20d71528af7cd413889edf23",
                "assets": [
                    {
                        "address": "0x5d4d57cd06fa7fe99e26fdc481b468f77f05073c",
                        "amount": "200,000",
                        "iconUrl": "https://assets.blocksec.com/icon/461e2740a6bd3176883782e83f2e187a5b9631fd39acbd6f8c62d8858aa59c37.png",
                        "isERC1155": false,
                        "isERC721": false,
                        "sign": false,
                        "value": ""
                    }
                ]
            },
            {
                "account": "0xed2f400aecec4d5a98f9dc9056935fd844cba17e",
                "assets": [
                    {
                        "address": "0x5d4d57cd06fa7fe99e26fdc481b468f77f05073c",
                        "amount": "200,000",
                        "iconUrl": "https://assets.blocksec.com/icon/461e2740a6bd3176883782e83f2e187a5b9631fd39acbd6f8c62d8858aa59c37.png",
                        "isERC1155": false,
                        "isERC721": false,
                        "sign": true,
                        "value": ""
                    }
                ]
            }
        ]
    },
    "profile": {
        "basic_info": {
            "baseFee": "",
            "blockNumber": 5541783,
            "callData": "0xa9059cbb000000000000000000000000ed2f400aecec4d5a98f9dc9056935fd844cba17e000000000000000000000000000000000000000000002a5a058fc295ed000000",
            "debugEnable": true,
            "errorInfo": "",
            "eventCount": 1,
            "feeRecipient": "0x52bc44d5378309ee2abf1539bf71de1b7d7be3b5",
            "formatValue": "0",
            "gasLimit": 72884,
            "gasPrice": "5",
            "gasUsed": 52884,
            "intTxnCount": 0,
            "internalRevert": false,
            "internalRevertMessage": "",
            "isContractCreation": false,
            "isFlashloan": false,
            "maxFee": "",
            "nonce": 4296,
            "overwritedBlockNumber": -1,
            "priorityFee": "",
            "receiver": "0x5d4d57cd06fa7fe99e26fdc481b468f77f05073c",
            "revertMessage": "",
            "sender": "0x0ab1289cc5dd0a9f20d71528af7cd413889edf23",
            "simulationEnable": true,
            "sourceTxnHash": "0x3fdd3082ee2d616bab8bc1058fcf95976626622104b88a68374baee734dcfeb3",
            "status": true,
            "timestamp": "2018-05-02T05:15:27Z",
            "transactionFee": "0.00026442",
            "txnHash": "0x3fdd3082ee2d616bab8bc1058fcf95976626622104b88a68374baee734dcfeb3",
            "txnIndex": 41,
            "type": 0,
            "value": "0"
        },
        "fund_flow": [
            {
                "amount": "200,000",
                "from": "0x0ab1289cc5dd0a9f20d71528af7cd413889edf23",
                "id": 1,
                "isERC1155": false,
                "isERC721": false,
                "isReverted": false,
                "order": 1,
                "to": "0xed2f400aecec4d5a98f9dc9056935fd844cba17e",
                "token": "0x5d4d57cd06fa7fe99e26fdc481b468f77f05073c"
            }
        ],
        "token_infos": [
            {
                "address": "0x5d4d57cd06fa7fe99e26fdc481b468f77f05073c",
                "decimals": 18
            },
            {
                "address": "0xc02aaa39b223fe8d0a0e5c4f27ead9083c756cc2",
                "decimals": 18
            },
            {
                "address": "0xeeeeeeeeeeeeeeeeeeeeeeeeeeeeeeeeeeeeeeee",
                "decimals": 18
            }
        ]
    },
    "address_label": {
        "labels": [
            {
                "address": "0x0000000000000000000000000000000000000003",
                "label": "Precompiled"
            },
            {
                "address": "0x0000000000000000000000000000000000000004",
                "label": "Precompiled"
            },
            {
                "address": "0xeeeeeeeeeeeeeeeeeeeeeeeeeeeeeeeeeeeeeeee",
                "label": "Ether"
            },
            {
                "address": "0x5d4d57cd06fa7fe99e26fdc481b468f77f05073c",
                "label": "Netkoin Token"
            },
            {
                "address": "0x0000000000000000000000000000000000000001",
                "label": "Precompiled"
            },
            {
                "address": "0x0000000000000000000000000000000000000002",
                "label": "Precompiled"
            }
        ]
    },
    "trace": {
        "accountLabels": null,
        "dataMap": {
            "-1": {
                "invocation": {
                    "address": "0x0ab1289cc5dd0a9f20d71528af7cd413889edf23",
                    "callData": "",
                    "decodedMethod": null,
                    "errorInfo": "",
                    "fromAddress": "",
                    "gasUsed": 0,
                    "id": -1,
                    "methodDecoded": false,
                    "operation": "",
                    "output": "",
                    "revert": false,
                    "revertMessage": "",
                    "selector": "",
                    "status": false,
                    "value": ""
                },
                "nodeType": 0
            },
            "0": {
                "invocation": {
                    "address": "0x5d4d57cd06fa7fe99e26fdc481b468f77f05073c",
                    "callData": "0x000000000000000000000000ed2f400aecec4d5a98f9dc9056935fd844cba17e000000000000000000000000000000000000000000002a5a058fc295ed000000",
                    "decodedMethod": {
                        "callParams": [
                            {
                                "name": "_to",
                                "type": "address",
                                "value": "0xed2f400aecec4d5a98f9dc9056935fd844cba17e"
                            },
                            {
                                "decimalAvailable": true,
                                "name": "_value",
                                "type": "uint256",
                                "value": "200,000,000,000,000,000,000,000"
                            }
                        ],
                        "constructorArguments": "",
                        "name": "transfer",
                        "returnParams": [],
                        "signature": "transfer(address,uint256)"
                    },
                    "errorInfo": "",
                    "fromAddress": "0x0ab1289cc5dd0a9f20d71528af7cd413889edf23",
                    "gasUsed": 52884,
                    "id": 0,
                    "methodDecoded": true,
                    "operation": "CALL",
                    "output": "",
                    "revert": false,
                    "revertMessage": "",
                    "selector": "0xa9059cbb",
                    "status": true,
                    "value": "0"
                },
                "nodeType": 0
            },
            "1": {
                "event": {
                    "contract": "0x5d4d57cd06fa7fe99e26fdc481b468f77f05073c",
                    "decodedLog": {
                        "name": "Transfer",
                        "params": [
                            {
                                "name": "from",
                                "type": "address",
                                "value": "0x0ab1289cc5dd0a9f20d71528af7cd413889edf23"
                            },
                            {
                                "name": "to",
                                "type": "address",
                                "value": "0xed2f400aecec4d5a98f9dc9056935fd844cba17e"
                            },
                            {
                                "decimalAvailable": true,
                                "name": "value",
                                "type": "uint256",
                                "value": "200,000,000,000,000,000,000,000"
                            }
                        ],
                        "signature": "Transfer(address,address,uint256)"
                    },
                    "id": 1,
                    "logData": "0x000000000000000000000000000000000000000000002a5a058fc295ed000000",
                    "logDecoded": true,
                    "operation": "EVENT",
                    "revert": false,
                    "status": true,
                    "topics": [
                        "0xddf252ad1be2c89b69c2b068fc378daa952ba7f163c4a11628f55a4df523b3ef",
                        "0x0000000000000000000000000ab1289cc5dd0a9f20d71528af7cd413889edf23",
                        "0x000000000000000000000000ed2f400aecec4d5a98f9dc9056935fd844cba17e"
                    ]
                },
                "nodeType": 1
            }
        },
        "gasFlame": [
            {
                "children": [
                    {
                        "children": [
                            {
                                "children": [],
                                "depth": 0,
                                "name": "Initial Gas",
                                "value": 23256
                            },
                            {
                                "children": [],
                                "depth": 0,
                                "name": "Executed Gas",
                                "value": 29628
                            }
                        ],
                        "depth": -1,
                        "name": "Actual Gas Used",
                        "value": 52884
                    },
                    {
                        "children": [],
                        "depth": -1,
                        "name": "Refunded Gas",
                        "value": 0
                    }
                ],
                "depth": -2,
                "name": "Total Gas",
                "value": 52884
            }
        ],
        "isConfirmed": true,
        "mainTrace": [
            {
                "children": [
                    {
                        "children": [
                            {
                                "children": [],
                                "depth": 1,
                                "id": 1,
                                "order": 1
                            }
                        ],
                        "depth": 0,
                        "id": 0,
                        "order": 0
                    }
                ],
                "depth": -1,
                "id": -1,
                "order": -1
            }
        ],
        "mainTraceNodeCount": 2,
        "parentIdMap": {
            "0": -1,
            "1": 0
        },
        "tidyTrace": [
            {
                "children": [
                    {
                        "children": [
                            {
                                "children": [],
                                "depth": 1,
                                "id": 1,
                                "order": 1
                            }
                        ],
                        "depth": 0,
                        "id": 0,
                        "order": 0
                    }
                ],
                "depth": -1,
                "id": -1,
                "order": -1
            }
        ],
        "tidyTraceNodeCount": 2
    },
    "state_change": {
        "stateChanges": [
            {
                "address": "0x5d4d57cd06fa7fe99e26fdc481b468f77f05073c",
                "erc": "",
                "slots": [
                    {
                        "current": "0x00000000000000000000000000000000000000000009ef0b4ed2faa870800000",
                        "key": "0x090534c9c1b338a5b382d576ef830ef0d9e47c57e69fd565266265cd80f69eca",
                        "prev": "0x0000000000000000000000000000000000000000000a19655462bd3e5d800000"
                    },
                    {
                        "current": "0x000000000000000000000000000000000000000000002a5a058fc295ed000000",
                        "key": "0x4ce10dcafd1c362e796a94790247d2534ec737eced06dbe7f948876806bc94b7",
                        "prev": "0x0000000000000000000000000000000000000000000000000000000000000000"
                    }
                ],
                "storageVariables": [
                    {
                        "name": "balanceOf",
                        "type": "mapping(address => uint256)",
                        "value": {
                            "pairs": [
                                {
                                    "key": "0x0ab1289cc5dd0a9f20d71528af7cd413889edf23",
                                    "value": {
                                        "current": "12009186560000000000000000",
                                        "prev": "12209186560000000000000000",
                                        "typeTag": 1
                                    }
                                },
                                {
                                    "key": "0xed2f400aecec4d5a98f9dc9056935fd844cba17e",
                                    "value": {
                                        "current": "200000000000000000000000",
                                        "prev": "0",
                                        "typeTag": 1
                                    }
                                }
                            ],
                            "typeTag": 4
                        }
                    }
                ]
            }
        ]
    }
}