{
    "balance_change": {
        "balanceChanges": [
            {
                "account": "0x1bf9446982ff9e1436c1097ec869f3cd8463b505",
                "assets": [
                    {
                        "address": "0x1f0480a66883de97d2b054929252aae8f664c15c",
                        "amount": "520.819306813613212361",
                        "iconUrl": "",
                        "isERC1155": false,
                        "isERC721": false,
                        "sign": false,
                        "value": ""
                    }
                ]
            },
            {
                "account": "0x416e4335fb034d62bac5bd5a0017fa6867a526a8",
                "assets": [
                    {
                        "address": "0x1f0480a66883de97d2b054929252aae8f664c15c",
                        "amount": "520.819306813613212361",
                        "iconUrl": "",
                        "isERC1155": false,
                        "isERC721": false,
                        "sign": true,
                        "value": ""
                    }
                ]
            }
        ]
    },
    "profile": {
        "basic_info": {
            "baseFee": "",
            "blockNumber": 5671537,
            "callData": "0xa9059cbb000000000000000000000000416e4335fb034d62bac5bd5a0017fa6867a526a800000000000000000000000000000000000000000000001c3bd1e020c69902ca",
            "debugEnable": true,
            "errorInfo": "",
            "eventCount": 1,
            "feeRecipient": "0x829bd824b016326a401d083b33d092293333a830",
            "formatValue": "0",
            "gasLimit": 40000,
            "gasPrice": "7.5",
            "gasUsed": 22329,
            "intTxnCount": 0,
            "internalRevert": false,
            "internalRevertMessage": "",
            "isContractCreation": false,
            "isFlashloan": false,
            "maxFee": "",
            "nonce": 1,
            "overwritedBlockNumber": -1,
            "priorityFee": "",
            "receiver": "0x1f0480a66883de97d2b054929252aae8f664c15c",
            "revertMessage": "",
            "sender": "0x1bf9446982ff9e1436c1097ec869f3cd8463b505",
            "simulationEnable": true,
            "sourceTxnHash": "0x3fd17ca9e1f891ffb385b99eac79823d5851070392843ef94615ee6e73fd4cf1",
            "status": true,
            "timestamp": "2018-05-25T00:37:56Z",
            "transactionFee": "0.0001674675",
            "txnHash": "0x3fd17ca9e1f891ffb385b99eac79823d5851070392843ef94615ee6e73fd4cf1",
            "txnIndex": 211,
            "type": 0,
            "value": "0"
        },
        "fund_flow": [
            {
                "amount": "520.819306813613212361",
                "from": "0x1bf9446982ff9e1436c1097ec869f3cd8463b505",
                "id": 1,
                "isERC1155": false,
                "isERC721": false,
                "isReverted": false,
                "order": 1,
                "to": "0x416e4335fb034d62bac5bd5a0017fa6867a526a8",
                "token": "0x1f0480a66883de97d2b054929252aae8f664c15c"
            }
        ],
        "token_infos": [
            {
                "address": "0x1f0480a66883de97d2b054929252aae8f664c15c",
                "decimals": 18
            },
            {
                "address": "0xc02aaa39b223fe8d0a0e5c4f27ead9083c756cc2",
                "decimals": 18
            },
            {
                "address": "0xeeeeeeeeeeeeeeeeeeeeeeeeeeeeeeeeeeeeeeee",
                "decimals": 18
            }
        ]
    },
    "address_label": {
        "labels": [
            {
                "address": "0x0000000000000000000000000000000000000002",
                "label": "Precompiled"
            },
            {
                "address": "0x0000000000000000000000000000000000000003",
                "label": "Precompiled"
            },
            {
                "address": "0x0000000000000000000000000000000000000004",
                "label": "Precompiled"
            },
            {
                "address": "0xeeeeeeeeeeeeeeeeeeeeeeeeeeeeeeeeeeeeeeee",
                "label": "Ether"
            },
            {
                "address": "0x1f0480a66883de97d2b054929252aae8f664c15c",
                "label": "NePay (NEP)"
            },
            {
                "address": "0x0000000000000000000000000000000000000001",
                "label": "Precompiled"
            }
        ]
    },
    "trace": {
        "accountLabels": null,
        "dataMap": {
            "-1": {
                "invocation": {
                    "address": "0x1bf9446982ff9e1436c1097ec869f3cd8463b505",
                    "callData": "",
                    "decodedMethod": null,
                    "errorInfo": "",
                    "fromAddress": "",
                    "gasUsed": 0,
                    "id": -1,
                    "methodDecoded": false,
                    "operation": "",
                    "output": "",
                    "revert": false,
                    "revertMessage": "",
                    "selector": "",
                    "status": false,
                    "value": ""
                },
                "nodeType": 0
            },
            "0": {
                "invocation": {
                    "address": "0x1f0480a66883de97d2b054929252aae8f664c15c",
                    "callData": "0x000000000000000000000000416e4335fb034d62bac5bd5a0017fa6867a526a800000000000000000000000000000000000000000000001c3bd1e020c69902ca",
                    "decodedMethod": {
                        "callParams": [
                            {
                                "name": "_to",
                                "type": "address",
                                "value": "0x416e4335fb034d62bac5bd5a0017fa6867a526a8"
                            },
                            {
                                "decimalAvailable": true,
                                "name": "_amount",
                                "type": "uint256",
                                "value": "520,819,306,813,613,212,362"
                            }
                        ],
                        "constructorArguments": "",
                        "name": "transfer",
                        "returnParams": [
                            {
                                "name": "success",
                                "type": "bool",
                                "value": true
                            }
                        ],
                        "signature": "transfer(address,uint256)"
                    },
                    "errorInfo": "",
                    "fromAddress": "0x1bf9446982ff9e1436c1097ec869f3cd8463b505",
                    "gasUsed": 22329,
                    "id": 0,
                    "methodDecoded": true,
                    "operation": "CALL",
                    "output": "0x0000000000000000000000000000000000000000000000000000000000000001",
                    "revert": false,
                    "revertMessage": "",
                    "selector": "0xa9059cbb",
                    "status": true,
                    "value": "0"
                },
                "nodeType": 0
            },
            "1": {
                "event": {
                    "contract": "0x1f0480a66883de97d2b054929252aae8f664c15c",
                    "decodedLog": {
                        "name": "Transfer",
                        "params": [
                            {
                                "name": "_from",
                                "type": "address",
                                "value": "0x1bf9446982ff9e1436c1097ec869f3cd8463b505"
                            },
                            {
                                "name": "_to",
                                "type": "address",
                                "value": "0x416e4335fb034d62bac5bd5a0017fa6867a526a8"
                            },
                            {
                                "decimalAvailable": true,
                                "name": "_value",
                                "type": "uint256",
                                "value": "520,819,306,813,613,212,362"
                            }
                        ],
                        "signature": "Transfer(address,address,uint256)"
                    },
                    "id": 1,
                    "logData": "0x00000000000000000000000000000000000000000000001c3bd1e020c69902ca",
                    "logDecoded": true,
                    "operation": "EVENT",
                    "revert": false,
                    "status": true,
                    "topics": [
                        "0xddf252ad1be2c89b69c2b068fc378daa952ba7f163c4a11628f55a4df523b3ef",
                        "0x0000000000000000000000001bf9446982ff9e1436c1097ec869f3cd8463b505",
                        "0x000000000000000000000000416e4335fb034d62bac5bd5a0017fa6867a526a8"
                    ]
                },
                "nodeType": 1
            }
        },
        "gasFlame": [
            {
                "children": [
                    {
                        "children": [
                            {
                                "children": [],
                                "depth": 0,
                                "name": "Initial Gas",
                                "value": 23320
                            },
                            {
                                "children": [],
                                "depth": 0,
                                "name": "Executed Gas",
                                "value": 14009
                            }
                        ],
                        "depth": -1,
                        "name": "Actual Gas Used",
                        "value": 22329
                    },
                    {
                        "children": [],
                        "depth": -1,
                        "name": "Refunded Gas",
                        "value": 15000
                    }
                ],
                "depth": -2,
                "name": "Total Gas",
                "value": 37329
            }
        ],
        "isConfirmed": true,
        "mainTrace": [
            {
                "children": [
                    {
                        "children": [
                            {
                                "children": [],
                                "depth": 1,
                                "id": 1,
                                "order": 1
                            }
                        ],
                        "depth": 0,
                        "id": 0,
                        "order": 0
                    }
                ],
                "depth": -1,
                "id": -1,
                "order": -1
            }
        ],
        "mainTraceNodeCount": 2,
        "parentIdMap": {
            "0": -1,
            "1": 0
        },
        "tidyTrace": [
            {
                "children": [
                    {
                        "children": [
                            {
                                "children": [],
                                "depth": 1,
                                "id": 1,
                                "order": 1
                            }
                        ],
                        "depth": 0,
                        "id": 0,
                        "order": 0
                    }
                ],
                "depth": -1,
                "id": -1,
                "order": -1
            }
        ],
        "tidyTraceNodeCount": 2
    },
    "state_change": {
        "stateChanges": [
            {
                "address": "0x1f0480a66883de97d2b054929252aae8f664c15c",
                "erc": "ERC-20",
                "slots": [
                    {
                        "current": "0x0000000000000000000000000000000000000000000000000000000000000000",
                        "key": "0x7ad6874328c668e0ca218c518574622339e8d0f28fea1f4e83be029156f17975",
                        "prev": "0x00000000000000000000000000000000000000000000001c3bd1e020c69902ca"
                    },
                    {
                        "current": "0x0000000000000000000000000000000000000000000032c383bac3ced97d7c8f",
                        "key": "0xae772a46325aaee6eabb80f6ebdca3e95d296722b047a96b8be0b1294b11017b",
                        "prev": "0x0000000000000000000000000000000000000000000032a747e8e3ae12e479c5"
                    }
                ],
                "storageVariables": [
                    {
                        "name": "balances",
                        "type": "mapping(address => uint256)",
                        "value": {
                            "pairs": [
                                {
                                    "key": "0x1bf9446982ff9e1436c1097ec869f3cd8463b505",
                                    "value": {
                                        "current": "0",
                                        "prev": "520819306813613212362",
                                        "typeTag": 1
                                    }
                                },
                                {
                                    "key": "0x416e4335fb034d62bac5bd5a0017fa6867a526a8",
                                    "value": {
                                        "current": "239724931352313439550607",
                                        "prev": "239204112045499826338245",
                                        "typeTag": 1
                                    }
                                }
                            ],
                            "typeTag": 4
                        }
                    }
                ]
            }
        ]
    }
}