{
    "balance_change": {
        "balanceChanges": [
            {
                "account": "0x1a5755d49fbfb675599863a491af333c04f9f4ba",
                "assets": [
                    {
                        "address": "0xc0eb85285d83217cd7c891702bcbc0fc401e2d9d",
                        "amount": "8,341.00218535",
                        "iconUrl": "https://assets.blocksec.com/icon/419f7f59b03fab8462726b1e2ccdc891a61ed38fb4e5556a5bd349cde8dbf4d8.png",
                        "isERC1155": false,
                        "isERC721": false,
                        "sign": false,
                        "value": ""
                    }
                ]
            },
            {
                "account": "0x25c6870e6ef1d6c1cf1b18d7c864f5c8747c6ab9",
                "assets": [
                    {
                        "address": "0xc0eb85285d83217cd7c891702bcbc0fc401e2d9d",
                        "amount": "8,341.00218535",
                        "iconUrl": "https://assets.blocksec.com/icon/419f7f59b03fab8462726b1e2ccdc891a61ed38fb4e5556a5bd349cde8dbf4d8.png",
                        "isERC1155": false,
                        "isERC721": false,
                        "sign": true,
                        "value": ""
                    }
                ]
            }
        ]
    },
    "profile": {
        "basic_info": {
            "baseFee": "",
            "blockNumber": 5232789,
            "callData": "0xa9059cbb00000000000000000000000025c6870e6ef1d6c1cf1b18d7c864f5c8747c6ab9000000000000000000000000000000000000000000000000000000c2343f4aa7",
            "debugEnable": true,
            "errorInfo": "",
            "eventCount": 1,
            "feeRecipient": "0x5a0b54d5dc17e0aadc383d2db43b0a0d3e029c4c",
            "formatValue": "0",
            "gasLimit": 51769,
            "gasPrice": "41",
            "gasUsed": 36769,
            "intTxnCount": 0,
            "internalRevert": false,
            "internalRevertMessage": "",
            "isContractCreation": false,
            "isFlashloan": false,
            "maxFee": "",
            "nonce": 132,
            "overwritedBlockNumber": -1,
            "priorityFee": "",
            "receiver": "0xc0eb85285d83217cd7c891702bcbc0fc401e2d9d",
            "revertMessage": "",
            "sender": "0x1a5755d49fbfb675599863a491af333c04f9f4ba",
            "simulationEnable": true,
            "sourceTxnHash": "0x3f0b0a247496fdf0f13f08457d144e3d8743872a2f937d2b423ca84bee0fcb88",
            "status": true,
            "timestamp": "2018-03-10T22:55:54Z",
            "transactionFee": "0.001507529",
            "txnHash": "0x3f0b0a247496fdf0f13f08457d144e3d8743872a2f937d2b423ca84bee0fcb88",
            "txnIndex": 10,
            "type": 0,
            "value": "0"
        },
        "fund_flow": [
            {
                "amount": "8,341.00218535",
                "from": "0x1a5755d49fbfb675599863a491af333c04f9f4ba",
                "id": 1,
                "isERC1155": false,
                "isERC721": false,
                "isReverted": false,
                "order": 1,
                "to": "0x25c6870e6ef1d6c1cf1b18d7c864f5c8747c6ab9",
                "token": "0xc0eb85285d83217cd7c891702bcbc0fc401e2d9d"
            }
        ],
        "token_infos": [
            {
                "address": "0xc02aaa39b223fe8d0a0e5c4f27ead9083c756cc2",
                "decimals": 18
            },
            {
                "address": "0xc0eb85285d83217cd7c891702bcbc0fc401e2d9d",
                "decimals": 8
            },
            {
                "address": "0xeeeeeeeeeeeeeeeeeeeeeeeeeeeeeeeeeeeeeeee",
                "decimals": 18
            }
        ]
    },
    "address_label": {
        "labels": [
            {
                "address": "0x0000000000000000000000000000000000000001",
                "label": "Precompiled"
            },
            {
                "address": "0x0000000000000000000000000000000000000002",
                "label": "Precompiled"
            },
            {
                "address": "0x0000000000000000000000000000000000000003",
                "label": "Precompiled"
            },
            {
                "address": "0x0000000000000000000000000000000000000004",
                "label": "Precompiled"
            },
            {
                "address": "0xeeeeeeeeeeeeeeeeeeeeeeeeeeeeeeeeeeeeeeee",
                "label": "Ether"
            },
            {
                "address": "0xc0eb85285d83217cd7c891702bcbc0fc401e2d9d",
                "label": "Hiveterminal"
            }
        ]
    },
    "trace": {
        "accountLabels": null,
        "dataMap": {
            "-1": {
                "invocation": {
                    "address": "0x1a5755d49fbfb675599863a491af333c04f9f4ba",
                    "callData": "",
                    "decodedMethod": null,
                    "errorInfo": "",
                    "fromAddress": "",
                    "gasUsed": 0,
                    "id": -1,
                    "methodDecoded": false,
                    "operation": "",
                    "output": "",
                    "revert": false,
                    "revertMessage": "",
                    "selector": "",
                    "status": false,
                    "value": ""
                },
                "nodeType": 0
            },
            "0": {
                "invocation": {
                    "address": "0xc0eb85285d83217cd7c891702bcbc0fc401e2d9d",
                    "callData": "0x00000000000000000000000025c6870e6ef1d6c1cf1b18d7c864f5c8747c6ab9000000000000000000000000000000000000000000000000000000c2343f4aa7",
                    "decodedMethod": {
                        "callParams": [
                            {
                                "name": "_to",
                                "type": "address",
                                "value": "0x25c6870e6ef1d6c1cf1b18d7c864f5c8747c6ab9"
                            },
                            {
                                "decimalAvailable": true,
                                "name": "_value",
                                "type": "uint256",
                                "value": "834,100,218,535"
                            }
                        ],
                        "constructorArguments": "",
                        "name": "transfer",
                        "returnParams": [
                            {
                                "name": "success",
                                "type": "bool",
                                "value": true
                            }
                        ],
                        "signature": "transfer(address,uint256)"
                    },
                    "errorInfo": "",
                    "fromAddress": "0x1a5755d49fbfb675599863a491af333c04f9f4ba",
                    "gasUsed": 36769,
                    "id": 0,
                    "methodDecoded": true,
                    "operation": "CALL",
                    "output": "0x0000000000000000000000000000000000000000000000000000000000000001",
                    "revert": false,
                    "revertMessage": "",
                    "selector": "0xa9059cbb",
                    "status": true,
                    "value": "0"
                },
                "nodeType": 0
            },
            "1": {
                "event": {
                    "contract": "0xc0eb85285d83217cd7c891702bcbc0fc401e2d9d",
                    "decodedLog": {
                        "name": "Transfer",
                        "params": [
                            {
                                "name": "_from",
                                "type": "address",
                                "value": "0x1a5755d49fbfb675599863a491af333c04f9f4ba"
                            },
                            {
                                "name": "_to",
                                "type": "address",
                                "value": "0x25c6870e6ef1d6c1cf1b18d7c864f5c8747c6ab9"
                            },
                            {
                                "decimalAvailable": true,
                                "name": "_value",
                                "type": "uint256",
                                "value": "834,100,218,535"
                            }
                        ],
                        "signature": "Transfer(address,address,uint256)"
                    },
                    "id": 1,
                    "logData": "0x000000000000000000000000000000000000000000000000000000c2343f4aa7",
                    "logDecoded": true,
                    "operation": "EVENT",
                    "revert": false,
                    "status": true,
                    "topics": [
                        "0xddf252ad1be2c89b69c2b068fc378daa952ba7f163c4a11628f55a4df523b3ef",
                        "0x0000000000000000000000001a5755d49fbfb675599863a491af333c04f9f4ba",
                        "0x00000000000000000000000025c6870e6ef1d6c1cf1b18d7c864f5c8747c6ab9"
                    ]
                },
                "nodeType": 1
            }
        },
        "gasFlame": [
            {
                "children": [
                    {
                        "children": [
                            {
                                "children": [],
                                "depth": 0,
                                "name": "Initial Gas",
                                "value": 23128
                            },
                            {
                                "children": [],
                                "depth": 0,
                                "name": "Executed Gas",
                                "value": 28641
                            }
                        ],
                        "depth": -1,
                        "name": "Actual Gas Used",
                        "value": 36769
                    },
                    {
                        "children": [],
                        "depth": -1,
                        "name": "Refunded Gas",
                        "value": 15000
                    }
                ],
                "depth": -2,
                "name": "Total Gas",
                "value": 51769
            }
        ],
        "isConfirmed": true,
        "mainTrace": [
            {
                "children": [
                    {
                        "children": [
                            {
                                "children": [],
                                "depth": 1,
                                "id": 1,
                                "order": 1
                            }
                        ],
                        "depth": 0,
                        "id": 0,
                        "order": 0
                    }
                ],
                "depth": -1,
                "id": -1,
                "order": -1
            }
        ],
        "mainTraceNodeCount": 2,
        "parentIdMap": {
            "0": -1,
            "1": 0
        },
        "tidyTrace": [
            {
                "children": [
                    {
                        "children": [
                            {
                                "children": [],
                                "depth": 1,
                                "id": 1,
                                "order": 1
                            }
                        ],
                        "depth": 0,
                        "id": 0,
                        "order": 0
                    }
                ],
                "depth": -1,
                "id": -1,
                "order": -1
            }
        ],
        "tidyTraceNodeCount": 2
    },
    "state_change": {
        "stateChanges": [
            {
                "address": "0xc0eb85285d83217cd7c891702bcbc0fc401e2d9d",
                "erc": "ERC-20",
                "slots": [
                    {
                        "current": "0x0000000000000000000000000000000000000000000000000000000000000000",
                        "key": "0x6ff5e9cda9794c51b643454123a9651de89a3a004ac351409603043efe44782a",
                        "prev": "0x000000000000000000000000000000000000000000000000000000c2343f4aa7"
                    },
                    {
                        "current": "0x000000000000000000000000000000000000000000000000000000c2343f4aa7",
                        "key": "0x7d62e8eb176d90eb5d431eb08e08a8852e22c296e66775df6ebc41201f751b12",
                        "prev": "0x0000000000000000000000000000000000000000000000000000000000000000"
                    }
                ],
                "storageVariables": [
                    {
                        "name": "balances",
                        "type": "mapping(address => uint256)",
                        "value": {
                            "pairs": [
                                {
                                    "key": "0x1a5755d49fbfb675599863a491af333c04f9f4ba",
                                    "value": {
                                        "current": "0",
                                        "prev": "834100218535",
                                        "typeTag": 1
                                    }
                                },
                                {
                                    "key": "0x25c6870e6ef1d6c1cf1b18d7c864f5c8747c6ab9",
                                    "value": {
                                        "current": "834100218535",
                                        "prev": "0",
                                        "typeTag": 1
                                    }
                                }
                            ],
                            "typeTag": 4
                        }
                    }
                ]
            }
        ]
    }
}