{
    "balance_change": {
        "balanceChanges": []
    },
    "profile": {
        "basic_info": {
            "baseFee": "",
            "blockNumber": 3951261,
            "callData": "0x13f955e10000000000000000000000000000000000000000000000000000000000000040000000000000000000000000000000000000000000000000000000000000000200000000000000000000000000000000000000000000000000000000000000a000000020308541e9e384978039440c3ec064f075302a1c84fa7f190100000000000000001e25654460503d4db7fa135b50f70bcb96d7110e801bff684f6207548c0560c2dfc95358858b031894506bc800000020423aa7fd68424ab242ecbb91fa851458687b56fd4e390a0000000000000000008da604b926a28c13460371d7a346a3eebe0789cb95d22fe92b651aa6763cb8ff27cc5358858b0318c3953cd8",
            "debugEnable": true,
            "errorInfo": "",
            "eventCount": 2,
            "feeRecipient": "0x52bc44d5378309ee2abf1539bf71de1b7d7be3b5",
            "formatValue": "0",
            "gasLimit": 500000,
            "gasPrice": "1.25",
            "gasUsed": 376458,
            "intTxnCount": 12,
            "internalRevert": false,
            "internalRevertMessage": "",
            "isContractCreation": false,
            "isFlashloan": false,
            "maxFee": "",
            "nonce": 5807,
            "overwritedBlockNumber": -1,
            "priorityFee": "",
            "receiver": "0x41f274c0023f83391de4e0733c609df5a124c3d4",
            "revertMessage": "",
            "sender": "0x1d858dfbff7d2557e86a92e7a5593981bea12c94",
            "simulationEnable": true,
            "sourceTxnHash": "0x3fa4299785cf7df689f5fbbd1a2af95787cce2462a33c6e441ec569dbc80ed30",
            "status": true,
            "timestamp": "2017-06-30T05:41:24Z",
            "transactionFee": "0.0004705725",
            "txnHash": "0x3fa4299785cf7df689f5fbbd1a2af95787cce2462a33c6e441ec569dbc80ed30",
            "txnIndex": 52,
            "type": 0,
            "value": "0"
        },
        "fund_flow": [],
        "token_infos": [
            {
                "address": "0xc02aaa39b223fe8d0a0e5c4f27ead9083c756cc2",
                "decimals": 18
            },
            {
                "address": "0xeeeeeeeeeeeeeeeeeeeeeeeeeeeeeeeeeeeeeeee",
                "decimals": 18
            }
        ]
    },
    "address_label": {
        "labels": [
            {
                "address": "0x0000000000000000000000000000000000000004",
                "label": "Precompiled"
            },
            {
                "address": "0x0000000000000000000000000000000000000001",
                "label": "Precompiled"
            },
            {
                "address": "0x0000000000000000000000000000000000000003",
                "label": "Precompiled"
            },
            {
                "address": "0xeeeeeeeeeeeeeeeeeeeeeeeeeeeeeeeeeeeeeeee",
                "label": "Ether"
            },
            {
                "address": "0x41f274c0023f83391de4e0733c609df5a124c3d4",
                "label": "BTCRelay"
            },
            {
                "address": "0x0000000000000000000000000000000000000002",
                "label": "Precompiled"
            }
        ]
    },
    "trace": {
        "accountLabels": null,
        "dataMap": {
            "-1": {
                "invocation": {
                    "address": "0x1d858dfbff7d2557e86a92e7a5593981bea12c94",
                    "callData": "",
                    "decodedMethod": null,
                    "errorInfo": "",
                    "fromAddress": "",
                    "gasUsed": 0,
                    "id": -1,
                    "methodDecoded": false,
                    "operation": "",
                    "output": "",
                    "revert": false,
                    "revertMessage": "",
                    "selector": "",
                    "status": false,
                    "value": ""
                },
                "nodeType": 0
            },
            "0": {
                "invocation": {
                    "address": "0x41f274c0023f83391de4e0733c609df5a124c3d4",
                    "callData": "0x0000000000000000000000000000000000000000000000000000000000000040000000000000000000000000000000000000000000000000000000000000000200000000000000000000000000000000000000000000000000000000000000a000000020308541e9e384978039440c3ec064f075302a1c84fa7f190100000000000000001e25654460503d4db7fa135b50f70bcb96d7110e801bff684f6207548c0560c2dfc95358858b031894506bc800000020423aa7fd68424ab242ecbb91fa851458687b56fd4e390a0000000000000000008da604b926a28c13460371d7a346a3eebe0789cb95d22fe92b651aa6763cb8ff27cc5358858b0318c3953cd8",
                    "decodedMethod": null,
                    "errorInfo": "",
                    "fromAddress": "0x1d858dfbff7d2557e86a92e7a5593981bea12c94",
                    "gasUsed": 376458,
                    "id": 0,
                    "methodDecoded": false,
                    "operation": "CALL",
                    "output": "0x000000000000000000000000000000000000000000000000000000000006c535",
                    "revert": false,
                    "revertMessage": "",
                    "selector": "0x13f955e1",
                    "status": true,
                    "value": "0"
                },
                "nodeType": 0
            },
            "1": {
                "invocation": {
                    "address": "0x0000000000000000000000000000000000000004",
                    "callData": "0x308541e9e384978039440c3ec064f075302a1c84fa7f190100000000000000001e25654460503d4db7fa135b50f70bcb96d7110e801bff684f6207548c0560c2dfc95358858b031894506bc8",
                    "decodedMethod": {
                        "callParams": [
                            {
                                "name": "data",
                                "type": "bytes",
                                "value": "0x00000020308541e9e384978039440c3ec064f075302a1c84fa7f190100000000000000001e25654460503d4db7fa135b50f70bcb96d7110e801bff684f6207548c0560c2dfc95358858b031894506bc8"
                            }
                        ],
                        "constructorArguments": "",
                        "name": "dataCopy()",
                        "returnParams": [
                            {
                                "name": "data",
                                "type": "bytes",
                                "value": "0x00000020308541e9e384978039440c3ec064f075302a1c84fa7f190100000000000000001e25654460503d4db7fa135b50f70bcb96d7110e801bff684f6207548c0560c2dfc95358858b031894506bc8"
                            }
                        ],
                        "signature": "dataCopy(bytes)"
                    },
                    "errorInfo": "",
                    "fromAddress": "0x41f274c0023f83391de4e0733c609df5a124c3d4",
                    "gasUsed": 24,
                    "id": 1,
                    "methodDecoded": true,
                    "operation": "CALL",
                    "output": "0x00000020308541e9e384978039440c3ec064f075302a1c84fa7f190100000000000000001e25654460503d4db7fa135b50f70bcb96d7110e801bff684f6207548c0560c2dfc95358858b031894506bc8",
                    "revert": false,
                    "revertMessage": "",
                    "selector": "0x00000020",
                    "status": true,
                    "value": "0"
                },
                "nodeType": 0
            },
            "10": {
                "invocation": {
                    "address": "0x0000000000000000000000000000000000000004",
                    "callData": "0x0000000000000000000000000000000000000000000000000000005000000020423aa7fd68424ab242ecbb91fa851458687b56fd4e390a0000000000000000008da604b926a28c13460371d7a346a3eebe0789cb95d22fe92b651aa6763cb8ff27cc5358858b0318c3953cd800000000000000000000000000000000",
                    "decodedMethod": {
                        "callParams": [
                            {
                                "name": "data",
                                "type": "bytes",
                                "value": "0x000000000000000000000000000000000000000000000000000000000000005000000020423aa7fd68424ab242ecbb91fa851458687b56fd4e390a0000000000000000008da604b926a28c13460371d7a346a3eebe0789cb95d22fe92b651aa6763cb8ff27cc5358858b0318c3953cd800000000000000000000000000000000"
                            }
                        ],
                        "constructorArguments": "",
                        "name": "dataCopy()",
                        "returnParams": [
                            {
                                "name": "data",
                                "type": "bytes",
                                "value": "0x000000000000000000000000000000000000000000000000000000000000005000000020423aa7fd68424ab242ecbb91fa851458687b56fd4e390a0000000000000000008da604b926a28c13460371d7a346a3eebe0789cb95d22fe92b651aa6763cb8ff27cc5358858b0318c3953cd800000000000000000000000000000000"
                            }
                        ],
                        "signature": "dataCopy(bytes)"
                    },
                    "errorInfo": "",
                    "fromAddress": "0x41f274c0023f83391de4e0733c609df5a124c3d4",
                    "gasUsed": 27,
                    "id": 10,
                    "methodDecoded": true,
                    "operation": "CALL",
                    "output": "0x000000000000000000000000000000000000000000000000000000000000005000000020423aa7fd68424ab242ecbb91fa851458687b56fd4e390a0000000000000000008da604b926a28c13460371d7a346a3eebe0789cb95d22fe92b651aa6763cb8ff27cc5358858b0318c3953cd800000000000000000000000000000000",
                    "revert": false,
                    "revertMessage": "",
                    "selector": "0x00000000",
                    "status": true,
                    "value": "0"
                },
                "nodeType": 0
            },
            "11": {
                "invocation": {
                    "address": "0x41f274c0023f83391de4e0733c609df5a124c3d4",
                    "callData": "0x0000000000000000000000000000000000000000000000000000000000000020000000000000000000000000000000000000000000000000000000000000005000000020423aa7fd68424ab242ecbb91fa851458687b56fd4e390a0000000000000000008da604b926a28c13460371d7a346a3eebe0789cb95d22fe92b651aa6763cb8ff27cc5358858b0318c3953cd800000000000000000000000000000000",
                    "decodedMethod": {
                        "callParams": [
                            {
                                "name": "header",
                                "type": "bytes",
                                "value": "0x00000020423aa7fd68424ab242ecbb91fa851458687b56fd4e390a0000000000000000008da604b926a28c13460371d7a346a3eebe0789cb95d22fe92b651aa6763cb8ff27cc5358858b0318c3953cd8"
                            }
                        ],
                        "constructorArguments": "",
                        "name": "storeBlockHeader",
                        "returnParams": [
                            {
                                "name": "",
                                "type": "uint256",
                                "value": "443,701"
                            }
                        ],
                        "signature": "storeBlockHeader(bytes)"
                    },
                    "errorInfo": "",
                    "fromAddress": "0x41f274c0023f83391de4e0733c609df5a124c3d4",
                    "gasUsed": 167672,
                    "id": 11,
                    "methodDecoded": true,
                    "operation": "CALL",
                    "output": "0x000000000000000000000000000000000000000000000000000000000006c535",
                    "revert": false,
                    "revertMessage": "",
                    "selector": "0x2b861629",
                    "status": true,
                    "value": "0"
                },
                "nodeType": 0
            },
            "12": {
                "invocation": {
                    "address": "0x0000000000000000000000000000000000000002",
                    "callData": "0x423aa7fd68424ab242ecbb91fa851458687b56fd4e390a0000000000000000008da604b926a28c13460371d7a346a3eebe0789cb95d22fe92b651aa6763cb8ff27cc5358858b0318c3953cd8",
                    "decodedMethod": {
                        "callParams": [
                            {
                                "name": "data",
                                "type": "bytes",
                                "value": "0x00000020423aa7fd68424ab242ecbb91fa851458687b56fd4e390a0000000000000000008da604b926a28c13460371d7a346a3eebe0789cb95d22fe92b651aa6763cb8ff27cc5358858b0318c3953cd8"
                            }
                        ],
                        "constructorArguments": "",
                        "name": "sha256hash",
                        "returnParams": [
                            {
                                "name": "hash",
                                "type": "bytes32",
                                "value": "0x743c2fb6762e09388819b4acc6b0f993d2005cb04a7a371bc2b7cd28b5273586"
                            }
                        ],
                        "signature": "sha256hash(bytes)"
                    },
                    "errorInfo": "",
                    "fromAddress": "0x41f274c0023f83391de4e0733c609df5a124c3d4",
                    "gasUsed": 96,
                    "id": 12,
                    "methodDecoded": true,
                    "operation": "CALL",
                    "output": "0x743c2fb6762e09388819b4acc6b0f993d2005cb04a7a371bc2b7cd28b5273586",
                    "revert": false,
                    "revertMessage": "",
                    "selector": "0x00000020",
                    "status": true,
                    "value": "0"
                },
                "nodeType": 0
            },
            "13": {
                "invocation": {
                    "address": "0x0000000000000000000000000000000000000002",
                    "callData": "0x762e09388819b4acc6b0f993d2005cb04a7a371bc2b7cd28b5273586",
                    "decodedMethod": {
                        "callParams": [
                            {
                                "name": "data",
                                "type": "bytes",
                                "value": "0x743c2fb6762e09388819b4acc6b0f993d2005cb04a7a371bc2b7cd28b5273586"
                            }
                        ],
                        "constructorArguments": "",
                        "name": "sha256hash",
                        "returnParams": [
                            {
                                "name": "hash",
                                "type": "bytes32",
                                "value": "0xfd84ff1504aa499e8608d4eea71bfd715c5318c0a525dc020000000000000000"
                            }
                        ],
                        "signature": "sha256hash(bytes)"
                    },
                    "errorInfo": "",
                    "fromAddress": "0x41f274c0023f83391de4e0733c609df5a124c3d4",
                    "gasUsed": 72,
                    "id": 13,
                    "methodDecoded": true,
                    "operation": "CALL",
                    "output": "0xfd84ff1504aa499e8608d4eea71bfd715c5318c0a525dc020000000000000000",
                    "revert": false,
                    "revertMessage": "",
                    "selector": "0x743c2fb6",
                    "status": true,
                    "value": "0"
                },
                "nodeType": 0
            },
            "14": {
                "event": {
                    "contract": "0x41f274c0023f83391de4e0733c609df5a124c3d4",
                    "decodedLog": null,
                    "id": 14,
                    "logData": "0x",
                    "logDecoded": false,
                    "operation": "EVENT",
                    "revert": false,
                    "status": true,
                    "topics": [
                        "0x055e4f8dd3a534789b3feb8e0681afa2aee8713fdd6472f25b2c30dc7bf4e0f4",
                        "0x000000000000000002dc25a5c018535c71fd1ba7eed408869e49aa0415ff84fd",
                        "0x000000000000000000000000000000000000000000000000000000000006c535"
                    ]
                },
                "nodeType": 1
            },
            "2": {
                "invocation": {
                    "address": "0x0000000000000000000000000000000000000004",
                    "callData": "0x0000000000000000000000000000000000000000000000000000000000000020",
                    "decodedMethod": {
                        "callParams": [
                            {
                                "name": "data",
                                "type": "bytes",
                                "value": "0x2b8616290000000000000000000000000000000000000000000000000000000000000020"
                            }
                        ],
                        "constructorArguments": "",
                        "name": "dataCopy()",
                        "returnParams": [
                            {
                                "name": "data",
                                "type": "bytes",
                                "value": "0x2b8616290000000000000000000000000000000000000000000000000000000000000020"
                            }
                        ],
                        "signature": "dataCopy(bytes)"
                    },
                    "errorInfo": "",
                    "fromAddress": "0x41f274c0023f83391de4e0733c609df5a124c3d4",
                    "gasUsed": 21,
                    "id": 2,
                    "methodDecoded": true,
                    "operation": "CALL",
                    "output": "0x2b8616290000000000000000000000000000000000000000000000000000000000000020",
                    "revert": false,
                    "revertMessage": "",
                    "selector": "0x2b861629",
                    "status": true,
                    "value": "0"
                },
                "nodeType": 0
            },
            "3": {
                "invocation": {
                    "address": "0x0000000000000000000000000000000000000004",
                    "callData": "0x0000000000000000000000000000000000000000000000000000005000000020308541e9e384978039440c3ec064f075302a1c84fa7f190100000000000000001e25654460503d4db7fa135b50f70bcb96d7110e801bff684f6207548c0560c2dfc95358858b031894506bc800000000000000000000000000000000",
                    "decodedMethod": {
                        "callParams": [
                            {
                                "name": "data",
                                "type": "bytes",
                                "value": "0x000000000000000000000000000000000000000000000000000000000000005000000020308541e9e384978039440c3ec064f075302a1c84fa7f190100000000000000001e25654460503d4db7fa135b50f70bcb96d7110e801bff684f6207548c0560c2dfc95358858b031894506bc800000000000000000000000000000000"
                            }
                        ],
                        "constructorArguments": "",
                        "name": "dataCopy()",
                        "returnParams": [
                            {
                                "name": "data",
                                "type": "bytes",
                                "value": "0x000000000000000000000000000000000000000000000000000000000000005000000020308541e9e384978039440c3ec064f075302a1c84fa7f190100000000000000001e25654460503d4db7fa135b50f70bcb96d7110e801bff684f6207548c0560c2dfc95358858b031894506bc800000000000000000000000000000000"
                            }
                        ],
                        "signature": "dataCopy(bytes)"
                    },
                    "errorInfo": "",
                    "fromAddress": "0x41f274c0023f83391de4e0733c609df5a124c3d4",
                    "gasUsed": 27,
                    "id": 3,
                    "methodDecoded": true,
                    "operation": "CALL",
                    "output": "0x000000000000000000000000000000000000000000000000000000000000005000000020308541e9e384978039440c3ec064f075302a1c84fa7f190100000000000000001e25654460503d4db7fa135b50f70bcb96d7110e801bff684f6207548c0560c2dfc95358858b031894506bc800000000000000000000000000000000",
                    "revert": false,
                    "revertMessage": "",
                    "selector": "0x00000000",
                    "status": true,
                    "value": "0"
                },
                "nodeType": 0
            },
            "4": {
                "invocation": {
                    "address": "0x41f274c0023f83391de4e0733c609df5a124c3d4",
                    "callData": "0x0000000000000000000000000000000000000000000000000000000000000020000000000000000000000000000000000000000000000000000000000000005000000020308541e9e384978039440c3ec064f075302a1c84fa7f190100000000000000001e25654460503d4db7fa135b50f70bcb96d7110e801bff684f6207548c0560c2dfc95358858b031894506bc800000000000000000000000000000000",
                    "decodedMethod": {
                        "callParams": [
                            {
                                "name": "header",
                                "type": "bytes",
                                "value": "0x00000020308541e9e384978039440c3ec064f075302a1c84fa7f190100000000000000001e25654460503d4db7fa135b50f70bcb96d7110e801bff684f6207548c0560c2dfc95358858b031894506bc8"
                            }
                        ],
                        "constructorArguments": "",
                        "name": "storeBlockHeader",
                        "returnParams": [
                            {
                                "name": "",
                                "type": "uint256",
                                "value": "443,700"
                            }
                        ],
                        "signature": "storeBlockHeader(bytes)"
                    },
                    "errorInfo": "",
                    "fromAddress": "0x41f274c0023f83391de4e0733c609df5a124c3d4",
                    "gasUsed": 168491,
                    "id": 4,
                    "methodDecoded": true,
                    "operation": "CALL",
                    "output": "0x000000000000000000000000000000000000000000000000000000000006c534",
                    "revert": false,
                    "revertMessage": "",
                    "selector": "0x2b861629",
                    "status": true,
                    "value": "0"
                },
                "nodeType": 0
            },
            "5": {
                "invocation": {
                    "address": "0x0000000000000000000000000000000000000002",
                    "callData": "0x308541e9e384978039440c3ec064f075302a1c84fa7f190100000000000000001e25654460503d4db7fa135b50f70bcb96d7110e801bff684f6207548c0560c2dfc95358858b031894506bc8",
                    "decodedMethod": {
                        "callParams": [
                            {
                                "name": "data",
                                "type": "bytes",
                                "value": "0x00000020308541e9e384978039440c3ec064f075302a1c84fa7f190100000000000000001e25654460503d4db7fa135b50f70bcb96d7110e801bff684f6207548c0560c2dfc95358858b031894506bc8"
                            }
                        ],
                        "constructorArguments": "",
                        "name": "sha256hash",
                        "returnParams": [
                            {
                                "name": "hash",
                                "type": "bytes32",
                                "value": "0x9bf8c230af14bf467f9ae94ee41d375034d336e2c4b365d0e73b9284514a48bc"
                            }
                        ],
                        "signature": "sha256hash(bytes)"
                    },
                    "errorInfo": "",
                    "fromAddress": "0x41f274c0023f83391de4e0733c609df5a124c3d4",
                    "gasUsed": 96,
                    "id": 5,
                    "methodDecoded": true,
                    "operation": "CALL",
                    "output": "0x9bf8c230af14bf467f9ae94ee41d375034d336e2c4b365d0e73b9284514a48bc",
                    "revert": false,
                    "revertMessage": "",
                    "selector": "0x00000020",
                    "status": true,
                    "value": "0"
                },
                "nodeType": 0
            },
            "6": {
                "invocation": {
                    "address": "0x0000000000000000000000000000000000000002",
                    "callData": "0xaf14bf467f9ae94ee41d375034d336e2c4b365d0e73b9284514a48bc",
                    "decodedMethod": {
                        "callParams": [
                            {
                                "name": "data",
                                "type": "bytes",
                                "value": "0x9bf8c230af14bf467f9ae94ee41d375034d336e2c4b365d0e73b9284514a48bc"
                            }
                        ],
                        "constructorArguments": "",
                        "name": "sha256hash",
                        "returnParams": [
                            {
                                "name": "hash",
                                "type": "bytes32",
                                "value": "0x423aa7fd68424ab242ecbb91fa851458687b56fd4e390a000000000000000000"
                            }
                        ],
                        "signature": "sha256hash(bytes)"
                    },
                    "errorInfo": "",
                    "fromAddress": "0x41f274c0023f83391de4e0733c609df5a124c3d4",
                    "gasUsed": 72,
                    "id": 6,
                    "methodDecoded": true,
                    "operation": "CALL",
                    "output": "0x423aa7fd68424ab242ecbb91fa851458687b56fd4e390a000000000000000000",
                    "revert": false,
                    "revertMessage": "",
                    "selector": "0x9bf8c230",
                    "status": true,
                    "value": "0"
                },
                "nodeType": 0
            },
            "7": {
                "event": {
                    "contract": "0x41f274c0023f83391de4e0733c609df5a124c3d4",
                    "decodedLog": null,
                    "id": 7,
                    "logData": "0x",
                    "logDecoded": false,
                    "operation": "EVENT",
                    "revert": false,
                    "status": true,
                    "topics": [
                        "0x055e4f8dd3a534789b3feb8e0681afa2aee8713fdd6472f25b2c30dc7bf4e0f4",
                        "0x0000000000000000000a394efd567b68581485fa91bbec42b24a4268fda73a42",
                        "0x000000000000000000000000000000000000000000000000000000000006c534"
                    ]
                },
                "nodeType": 1
            },
            "8": {
                "invocation": {
                    "address": "0x0000000000000000000000000000000000000004",
                    "callData": "0x423aa7fd68424ab242ecbb91fa851458687b56fd4e390a0000000000000000008da604b926a28c13460371d7a346a3eebe0789cb95d22fe92b651aa6763cb8ff27cc5358858b0318c3953cd8",
                    "decodedMethod": {
                        "callParams": [
                            {
                                "name": "data",
                                "type": "bytes",
                                "value": "0x00000020423aa7fd68424ab242ecbb91fa851458687b56fd4e390a0000000000000000008da604b926a28c13460371d7a346a3eebe0789cb95d22fe92b651aa6763cb8ff27cc5358858b0318c3953cd8"
                            }
                        ],
                        "constructorArguments": "",
                        "name": "dataCopy()",
                        "returnParams": [
                            {
                                "name": "data",
                                "type": "bytes",
                                "value": "0x00000020423aa7fd68424ab242ecbb91fa851458687b56fd4e390a0000000000000000008da604b926a28c13460371d7a346a3eebe0789cb95d22fe92b651aa6763cb8ff27cc5358858b0318c3953cd8"
                            }
                        ],
                        "signature": "dataCopy(bytes)"
                    },
                    "errorInfo": "",
                    "fromAddress": "0x41f274c0023f83391de4e0733c609df5a124c3d4",
                    "gasUsed": 24,
                    "id": 8,
                    "methodDecoded": true,
                    "operation": "CALL",
                    "output": "0x00000020423aa7fd68424ab242ecbb91fa851458687b56fd4e390a0000000000000000008da604b926a28c13460371d7a346a3eebe0789cb95d22fe92b651aa6763cb8ff27cc5358858b0318c3953cd8",
                    "revert": false,
                    "revertMessage": "",
                    "selector": "0x00000020",
                    "status": true,
                    "value": "0"
                },
                "nodeType": 0
            },
            "9": {
                "invocation": {
                    "address": "0x0000000000000000000000000000000000000004",
                    "callData": "0x0000000000000000000000000000000000000000000000000000000000000020",
                    "decodedMethod": {
                        "callParams": [
                            {
                                "name": "data",
                                "type": "bytes",
                                "value": "0x2b8616290000000000000000000000000000000000000000000000000000000000000020"
                            }
                        ],
                        "constructorArguments": "",
                        "name": "dataCopy()",
                        "returnParams": [
                            {
                                "name": "data",
                                "type": "bytes",
                                "value": "0x2b8616290000000000000000000000000000000000000000000000000000000000000020"
                            }
                        ],
                        "signature": "dataCopy(bytes)"
                    },
                    "errorInfo": "",
                    "fromAddress": "0x41f274c0023f83391de4e0733c609df5a124c3d4",
                    "gasUsed": 21,
                    "id": 9,
                    "methodDecoded": true,
                    "operation": "CALL",
                    "output": "0x2b8616290000000000000000000000000000000000000000000000000000000000000020",
                    "revert": false,
                    "revertMessage": "",
                    "selector": "0x2b861629",
                    "status": true,
                    "value": "0"
                },
                "nodeType": 0
            }
        },
        "gasFlame": [
            {
                "children": [
                    {
                        "children": [
                            {
                                "children": [],
                                "depth": 0,
                                "name": "Initial Gas",
                                "value": 31256
                            },
                            {
                                "children": [
                                    {
                                        "children": [],
                                        "depth": 1,
                                        "name": "dataCopy()",
                                        "value": 24
                                    },
                                    {
                                        "children": [],
                                        "depth": 1,
                                        "name": "dataCopy()",
                                        "value": 21
                                    },
                                    {
                                        "children": [],
                                        "depth": 1,
                                        "name": "dataCopy()",
                                        "value": 27
                                    },
                                    {
                                        "children": [
                                            {
                                                "children": [],
                                                "depth": 2,
                                                "name": "sha256hash",
                                                "value": 96
                                            },
                                            {
                                                "children": [],
                                                "depth": 2,
                                                "name": "sha256hash",
                                                "value": 72
                                            }
                                        ],
                                        "depth": 1,
                                        "name": "storeBlockHeader",
                                        "value": 168491
                                    },
                                    {
                                        "children": [],
                                        "depth": 1,
                                        "name": "dataCopy()",
                                        "value": 24
                                    },
                                    {
                                        "children": [],
                                        "depth": 1,
                                        "name": "dataCopy()",
                                        "value": 21
                                    },
                                    {
                                        "children": [],
                                        "depth": 1,
                                        "name": "dataCopy()",
                                        "value": 27
                                    },
                                    {
                                        "children": [
                                            {
                                                "children": [],
                                                "depth": 2,
                                                "name": "sha256hash",
                                                "value": 96
                                            },
                                            {
                                                "children": [],
                                                "depth": 2,
                                                "name": "sha256hash",
                                                "value": 72
                                            }
                                        ],
                                        "depth": 1,
                                        "name": "storeBlockHeader",
                                        "value": 167672
                                    }
                                ],
                                "depth": 0,
                                "name": "Executed Gas",
                                "value": 345202
                            }
                        ],
                        "depth": -1,
                        "name": "Actual Gas Used",
                        "value": 376458
                    },
                    {
                        "children": [],
                        "depth": -1,
                        "name": "Refunded Gas",
                        "value": 0
                    }
                ],
                "depth": -2,
                "name": "Total Gas",
                "value": 376458
            }
        ],
        "isConfirmed": true,
        "mainTrace": [
            {
                "children": [
                    {
                        "children": [
                            {
                                "children": [],
                                "depth": 1,
                                "id": 1,
                                "order": 1
                            },
                            {
                                "children": [],
                                "depth": 1,
                                "id": 2,
                                "order": 2
                            },
                            {
                                "children": [],
                                "depth": 1,
                                "id": 3,
                                "order": 3
                            },
                            {
                                "children": [
                                    {
                                        "children": [],
                                        "depth": 2,
                                        "id": 5,
                                        "order": 5
                                    },
                                    {
                                        "children": [],
                                        "depth": 2,
                                        "id": 6,
                                        "order": 6
                                    },
                                    {
                                        "children": [],
                                        "depth": 2,
                                        "id": 7,
                                        "order": 7
                                    }
                                ],
                                "depth": 1,
                                "id": 4,
                                "order": 4
                            },
                            {
                                "children": [],
                                "depth": 1,
                                "id": 8,
                                "order": 8
                            },
                            {
                                "children": [],
                                "depth": 1,
                                "id": 9,
                                "order": 9
                            },
                            {
                                "children": [],
                                "depth": 1,
                                "id": 10,
                                "order": 10
                            },
                            {
                                "children": [
                                    {
                                        "children": [],
                                        "depth": 2,
                                        "id": 12,
                                        "order": 12
                                    },
                                    {
                                        "children": [],
                                        "depth": 2,
                                        "id": 13,
                                        "order": 13
                                    },
                                    {
                                        "children": [],
                                        "depth": 2,
                                        "id": 14,
                                        "order": 14
                                    }
                                ],
                                "depth": 1,
                                "id": 11,
                                "order": 11
                            }
                        ],
                        "depth": 0,
                        "id": 0,
                        "order": 0
                    }
                ],
                "depth": -1,
                "id": -1,
                "order": -1
            }
        ],
        "mainTraceNodeCount": 15,
        "parentIdMap": {
            "0": -1,
            "1": 0,
            "10": 0,
            "11": 0,
            "12": 11,
            "13": 11,
            "14": 11,
            "2": 0,
            "3": 0,
            "4": 0,
            "5": 4,
            "6": 4,
            "7": 4,
            "8": 0,
            "9": 0
        },
        "tidyTrace": [
            {
                "children": [
                    {
                        "children": [
                            {
                                "children": [],
                                "depth": 1,
                                "id": 1,
                                "order": 1
                            },
                            {
                                "children": [],
                                "depth": 1,
                                "id": 2,
                                "order": 2
                            },
                            {
                                "children": [],
                                "depth": 1,
                                "id": 3,
                                "order": 3
                            },
                            {
                                "children": [
                                    {
                                        "children": [],
                                        "depth": 2,
                                        "id": 5,
                                        "order": 5
                                    },
                                    {
                                        "children": [],
                                        "depth": 2,
                                        "id": 6,
                                        "order": 6
                                    },
                                    {
                                        "children": [],
                                        "depth": 2,
                                        "id": 7,
                                        "order": 7
                                    }
                                ],
                                "depth": 1,
                                "id": 4,
                                "order": 4
                            },
                            {
                                "children": [],
                                "depth": 1,
                                "id": 8,
                                "order": 8
                            },
                            {
                                "children": [],
                                "depth": 1,
                                "id": 9,
                                "order": 9
                            },
                            {
                                "children": [],
                                "depth": 1,
                                "id": 10,
                                "order": 10
                            },
                            {
                                "children": [
                                    {
                                        "children": [],
                                        "depth": 2,
                                        "id": 12,
                                        "order": 12
                                    },
                                    {
                                        "children": [],
                                        "depth": 2,
                                        "id": 13,
                                        "order": 13
                                    },
                                    {
                                        "children": [],
                                        "depth": 2,
                                        "id": 14,
                                        "order": 14
                                    }
                                ],
                                "depth": 1,
                                "id": 11,
                                "order": 11
                            }
                        ],
                        "depth": 0,
                        "id": 0,
                        "order": 0
                    }
                ],
                "depth": -1,
                "id": -1,
                "order": -1
            }
        ],
        "tidyTraceNodeCount": 15
    },
    "state_change": {
        "stateChanges": [
            {
                "address": "0x41f274c0023f83391de4e0733c609df5a124c3d4",
                "erc": "",
                "slots": [
                    {
                        "current": "0x000000000000000002dc25a5c018535c71fd1ba7eed408869e49aa0415ff84fd",
                        "key": "0x0000000000000000000000000000000000000000000000000004000000000002",
                        "prev": "0x000000000000000001197ffa841c2a3075f064c03e0c4439809784e3e9418530"
                    },
                    {
                        "current": "0x000000000000000002dc25a5c018535c71fd1ba7eed408869e49aa0415ff84fd",
                        "key": "0x0000000000000000000000000000000000000000000000000000000000008e84",
                        "prev": "0x0000000000000000000000000000000000000000000000000000000000000000"
                    },
                    {
                        "current": "0x0000000000000000000a394efd567b68581485fa91bbec42b24a4268fda73a42",
                        "key": "0x0000000000000000000000000000000000000000000000000000000000008e83",
                        "prev": "0x0000000000000000000000000000000000000000000000000000000000000000"
                    },
                    {
                        "current": "0x763cb8ff27cc5358858b0318c3953cd800000000000000000000000000000000",
                        "key": "0xf5c85743c8393a3c5fb2e15a482c9ac5303f9a2523242c5a8208d45e34a58606",
                        "prev": "0x0000000000000000000000000000000000000000000000000000000000000000"
                    },
                    {
                        "current": "0x00008e8300008e8300008e8300008e3800008c44000082800000764b00000000",
                        "key": "0x071c6a08b31283ec58bc14ed9cdb7c96200def3d0dc6a2c7a0eccb981d9eb266",
                        "prev": "0x0000000000000000000000000000000000000000000000000000000000000000"
                    },
                    {
                        "current": "0x000000000000000000000000000000000000000000165dec4c15930462e5823a",
                        "key": "0x0000000000000000000000000000000000000000000000000004000000000003",
                        "prev": "0x000000000000000000000000000000000000000000165dec4c159273f5acfc8c"
                    },
                    {
                        "current": "0x000000001e25654460503d4db7fa135b50f70bcb96d7110e801bff684f620754",
                        "key": "0x16e4e79e23e79fcfb366fa61cd75b28c0563828927e38c1467102a80936ad14d",
                        "prev": "0x0000000000000000000000000000000000000000000000000000000000000000"
                    },
                    {
                        "current": "0x8c0560c2dfc95358858b031894506bc800000000000000000000000000000000",
                        "key": "0x16e4e79e23e79fcfb366fa61cd75b28c0563828927e38c1467102a80936ad14e",
                        "prev": "0x0000000000000000000000000000000000000000000000000000000000000000"
                    },
                    {
                        "current": "0x000000000006c5340000000000008e830000000000165dec4c1592bc2c493f63",
                        "key": "0x77a45b5140d9093673b19ed292c09eb8df32d49607643c048691098e4f38d472",
                        "prev": "0x0000000000000000000000000000000000000000000000000000000000000000"
                    },
                    {
                        "current": "0x000000008da604b926a28c13460371d7a346a3eebe0789cb95d22fe92b651aa6",
                        "key": "0xf5c85743c8393a3c5fb2e15a482c9ac5303f9a2523242c5a8208d45e34a58605",
                        "prev": "0x0000000000000000000000000000000000000000000000000000000000000000"
                    },
                    {
                        "current": "0x00000020423aa7fd68424ab242ecbb91fa851458687b56fd4e390a0000000000",
                        "key": "0xf5c85743c8393a3c5fb2e15a482c9ac5303f9a2523242c5a8208d45e34a58604",
                        "prev": "0x0000000000000000000000000000000000000000000000000000000000000000"
                    },
                    {
                        "current": "0x0000000000000000000000000000000000000000000000000000000000008e85",
                        "key": "0x0000000000000000000000000000000000000000000000000004000000000000",
                        "prev": "0x0000000000000000000000000000000000000000000000000000000000008e83"
                    },
                    {
                        "current": "0x00008e8200008e7e00008e6a00008e3800008c44000082800000764b00000000",
                        "key": "0x93f15e87ba74063e0d8dde6f764b48a0edb4447e702cf785abcfbfbbc070a2a4",
                        "prev": "0x0000000000000000000000000000000000000000000000000000000000000000"
                    },
                    {
                        "current": "0x000000000006c5350000000000008e840000000000165dec4c15930462e5823a",
                        "key": "0x3c2a736f73eb45cd9f610ceae4fc237b6c26c45f0e00260799b3caee7eb606d3",
                        "prev": "0x0000000000000000000000000000000000000000000000000000000000000000"
                    },
                    {
                        "current": "0x00000020308541e9e384978039440c3ec064f075302a1c84fa7f190100000000",
                        "key": "0x16e4e79e23e79fcfb366fa61cd75b28c0563828927e38c1467102a80936ad14c",
                        "prev": "0x0000000000000000000000000000000000000000000000000000000000000000"
                    }
                ],
                "storageVariables": []
            }
        ]
    }
}