{
    "balance_change": {
        "balanceChanges": [
            {
                "account": "0x21a31ee1afc51d94c2efccaa2092ad1028285549",
                "assets": [
                    {
                        "address": "0xdac17f958d2ee523a2206206994597c13d831ec7",
                        "amount": "1,318.605149",
                        "iconUrl": "https://assets.blocksec.com/icon/fcea71f3193ce895be44bfdf941f7e4c9381dd587f273c2d1a27f1263d84e4ea.png",
                        "isERC1155": false,
                        "isERC721": false,
                        "sign": false,
                        "value": "1319.9237541489998549"
                    }
                ]
            },
            {
                "account": "0xee5a35e75bc66fb7050af97f2511e983f07549ba",
                "assets": [
                    {
                        "address": "0xdac17f958d2ee523a2206206994597c13d831ec7",
                        "amount": "1,318.605149",
                        "iconUrl": "https://assets.blocksec.com/icon/fcea71f3193ce895be44bfdf941f7e4c9381dd587f273c2d1a27f1263d84e4ea.png",
                        "isERC1155": false,
                        "isERC721": false,
                        "sign": true,
                        "value": "1319.9237541489998549"
                    }
                ]
            }
        ]
    },
    "profile": {
        "basic_info": {
            "baseFee": "34.148207464",
            "blockNumber": 17116163,
            "callData": "0xa9059cbb000000000000000000000000ee5a35e75bc66fb7050af97f2511e983f07549ba000000000000000000000000000000000000000000000000000000004e98515d",
            "debugEnable": true,
            "errorInfo": "",
            "eventCount": 1,
            "feeRecipient": "0x690b9a9e9aa1c9db991c7721a92d351db4fac990",
            "formatValue": "0",
            "gasLimit": 207128,
            "gasPrice": "36.148207464",
            "gasUsed": 46109,
            "intTxnCount": 0,
            "internalRevert": false,
            "internalRevertMessage": "",
            "isContractCreation": false,
            "isFlashloan": false,
            "maxFee": "102",
            "nonce": 6272440,
            "overwritedBlockNumber": -1,
            "priorityFee": "2",
            "receiver": "0xdac17f958d2ee523a2206206994597c13d831ec7",
            "revertMessage": "",
            "sender": "0x21a31ee1afc51d94c2efccaa2092ad1028285549",
            "simulationEnable": true,
            "sourceTxnHash": "0x3fa341d8bfb46f5f2589ca26d6dca17bfd8bf8bd215a7180c32fe59ef367625b",
            "status": true,
            "timestamp": "2023-04-24T12:31:35Z",
            "transactionFee": "0.001666757697957576",
            "txnHash": "0x3fa341d8bfb46f5f2589ca26d6dca17bfd8bf8bd215a7180c32fe59ef367625b",
            "txnIndex": 63,
            "type": 2,
            "value": "0"
        },
        "fund_flow": [
            {
                "amount": "1,318.605149",
                "from": "0x21a31ee1afc51d94c2efccaa2092ad1028285549",
                "id": 1,
                "isERC1155": false,
                "isERC721": false,
                "isReverted": false,
                "order": 1,
                "to": "0xee5a35e75bc66fb7050af97f2511e983f07549ba",
                "token": "0xdac17f958d2ee523a2206206994597c13d831ec7"
            }
        ],
        "token_infos": [
            {
                "address": "0xdac17f958d2ee523a2206206994597c13d831ec7",
                "decimals": 6
            },
            {
                "address": "0xeeeeeeeeeeeeeeeeeeeeeeeeeeeeeeeeeeeeeeee",
                "decimals": 18
            },
            {
                "address": "0xc02aaa39b223fe8d0a0e5c4f27ead9083c756cc2",
                "decimals": 18
            }
        ]
    },
    "address_label": {
        "labels": [
            {
                "address": "0x0000000000000000000000000000000000000004",
                "label": "Precompiled"
            },
            {
                "address": "0xeeeeeeeeeeeeeeeeeeeeeeeeeeeeeeeeeeeeeeee",
                "label": "Ether"
            },
            {
                "address": "0xdac17f958d2ee523a2206206994597c13d831ec7",
                "label": "Tether: USDT Stablecoin"
            },
            {
                "address": "0x21a31ee1afc51d94c2efccaa2092ad1028285549",
                "label": "Binance 15"
            },
            {
                "address": "0x0000000000000000000000000000000000000001",
                "label": "Precompiled"
            },
            {
                "address": "0x0000000000000000000000000000000000000002",
                "label": "Precompiled"
            },
            {
                "address": "0x0000000000000000000000000000000000000003",
                "label": "Precompiled"
            }
        ]
    },
    "trace": {
        "accountLabels": null,
        "dataMap": {
            "-1": {
                "invocation": {
                    "address": "0x21a31ee1afc51d94c2efccaa2092ad1028285549",
                    "callData": "",
                    "decodedMethod": null,
                    "errorInfo": "",
                    "fromAddress": "",
                    "gasUsed": 0,
                    "id": -1,
                    "methodDecoded": false,
                    "operation": "",
                    "output": "",
                    "revert": false,
                    "revertMessage": "",
                    "selector": "",
                    "status": false,
                    "value": ""
                },
                "nodeType": 0
            },
            "0": {
                "invocation": {
                    "address": "0xdac17f958d2ee523a2206206994597c13d831ec7",
                    "callData": "0x000000000000000000000000ee5a35e75bc66fb7050af97f2511e983f07549ba000000000000000000000000000000000000000000000000000000004e98515d",
                    "decodedMethod": {
                        "callParams": [
                            {
                                "name": "_to",
                                "type": "address",
                                "value": "0xee5a35e75bc66fb7050af97f2511e983f07549ba"
                            },
                            {
                                "decimalAvailable": true,
                                "name": "_value",
                                "type": "uint256",
                                "value": "1,318,605,149"
                            }
                        ],
                        "constructorArguments": "",
                        "name": "transfer",
                        "returnParams": [],
                        "signature": "transfer(address,uint256)"
                    },
                    "errorInfo": "",
                    "fromAddress": "0x21a31ee1afc51d94c2efccaa2092ad1028285549",
                    "gasUsed": 46109,
                    "id": 0,
                    "methodDecoded": true,
                    "operation": "CALL",
                    "output": "",
                    "revert": false,
                    "revertMessage": "",
                    "selector": "0xa9059cbb",
                    "status": true,
                    "value": "0"
                },
                "nodeType": 0
            },
            "1": {
                "event": {
                    "contract": "0xdac17f958d2ee523a2206206994597c13d831ec7",
                    "decodedLog": {
                        "name": "Transfer",
                        "params": [
                            {
                                "name": "from",
                                "type": "address",
                                "value": "0x21a31ee1afc51d94c2efccaa2092ad1028285549"
                            },
                            {
                                "name": "to",
                                "type": "address",
                                "value": "0xee5a35e75bc66fb7050af97f2511e983f07549ba"
                            },
                            {
                                "decimalAvailable": true,
                                "name": "value",
                                "type": "uint256",
                                "value": "1,318,605,149"
                            }
                        ],
                        "signature": "Transfer(address,address,uint256)"
                    },
                    "id": 1,
                    "logData": "0x000000000000000000000000000000000000000000000000000000004e98515d",
                    "logDecoded": true,
                    "operation": "EVENT",
                    "revert": false,
                    "status": true,
                    "topics": [
                        "0xddf252ad1be2c89b69c2b068fc378daa952ba7f163c4a11628f55a4df523b3ef",
                        "0x00000000000000000000000021a31ee1afc51d94c2efccaa2092ad1028285549",
                        "0x000000000000000000000000ee5a35e75bc66fb7050af97f2511e983f07549ba"
                    ]
                },
                "nodeType": 1
            }
        },
        "gasFlame": [
            {
                "children": [
                    {
                        "children": [
                            {
                                "children": [],
                                "depth": 0,
                                "name": "Initial Gas",
                                "value": 21608
                            },
                            {
                                "children": [],
                                "depth": 0,
                                "name": "Executed Gas",
                                "value": 24501
                            }
                        ],
                        "depth": -1,
                        "name": "Actual Gas Used",
                        "value": 46109
                    },
                    {
                        "children": [],
                        "depth": -1,
                        "name": "Refunded Gas",
                        "value": 0
                    }
                ],
                "depth": -2,
                "name": "Total Gas",
                "value": 46109
            }
        ],
        "isConfirmed": true,
        "mainTrace": [
            {
                "children": [
                    {
                        "children": [
                            {
                                "children": [],
                                "depth": 1,
                                "id": 1,
                                "order": 1
                            }
                        ],
                        "depth": 0,
                        "id": 0,
                        "order": 0
                    }
                ],
                "depth": -1,
                "id": -1,
                "order": -1
            }
        ],
        "mainTraceNodeCount": 2,
        "parentIdMap": {
            "0": -1,
            "1": 0
        },
        "tidyTrace": [
            {
                "children": [
                    {
                        "children": [
                            {
                                "children": [],
                                "depth": 1,
                                "id": 1,
                                "order": 1
                            }
                        ],
                        "depth": 0,
                        "id": 0,
                        "order": 0
                    }
                ],
                "depth": -1,
                "id": -1,
                "order": -1
            }
        ],
        "tidyTraceNodeCount": 2
    },
    "state_change": {
        "stateChanges": [
            {
                "address": "0xdac17f958d2ee523a2206206994597c13d831ec7",
                "erc": "ERC-20",
                "slots": [
                    {
                        "current": "0x000000000000000000000000000000000000000000000000000000007cb54016",
                        "key": "0x7b5bc0dbccac13de17cf64343df05eb672a35f80314b5eb8152da948f81967f1",
                        "prev": "0x000000000000000000000000000000000000000000000000000000002e1ceeb9"
                    },
                    {
                        "current": "0x00000000000000000000000000000000000000000000000000005e5a75919a15",
                        "key": "0xdf70affd7af96966d2670c0f3ed33a9da6b177986dc23d985c9fbdd265f954a7",
                        "prev": "0x00000000000000000000000000000000000000000000000000005e5ac429eb72"
                    }
                ],
                "storageVariables": [
                    {
                        "name": "balances",
                        "type": "mapping(address => uint256)",
                        "value": {
                            "pairs": [
                                {
                                    "key": "0x21a31ee1afc51d94c2efccaa2092ad1028285549",
                                    "value": {
                                        "current": "103742612544021",
                                        "prev": "103743931149170",
                                        "typeTag": 1
                                    }
                                },
                                {
                                    "key": "0xee5a35e75bc66fb7050af97f2511e983f07549ba",
                                    "value": {
                                        "current": "2092253206",
                                        "prev": "773648057",
                                        "typeTag": 1
                                    }
                                }
                            ],
                            "typeTag": 4
                        }
                    }
                ]
            }
        ]
    }
}