{
    "balance_change": {
        "balanceChanges": []
    },
    "profile": {
        "basic_info": {
            "baseFee": "21.137874516",
            "blockNumber": 20176464,
            "callData": "0x095ea7b3000000000000000000000000f0d4c12a5768d806021f80a262b4d39d26c58b8d0000000000000000000000000000000000000000000000001bbfa1c8c5ef6425",
            "debugEnable": true,
            "errorInfo": "",
            "eventCount": 1,
            "feeRecipient": "0x95222290dd7278aa3ddd389cc1e1d165cc4bafe5",
            "formatValue": "0",
            "gasLimit": 46749,
            "gasPrice": "21.227874516",
            "gasUsed": 46366,
            "intTxnCount": 0,
            "internalRevert": false,
            "internalRevertMessage": "",
            "isContractCreation": false,
            "isFlashloan": false,
            "maxFee": "28.26",
            "nonce": 5,
            "overwritedBlockNumber": -1,
            "priorityFee": "0.09",
            "receiver": "0x0100546f2cd4c9d97f798ffc9755e47865ff7ee6",
            "revertMessage": "",
            "sender": "0xc39c86f700aa6b2b2b62d6cedf0d48c9e1583682",
            "simulationEnable": true,
            "sourceTxnHash": "0x3f796579546e8eb43354695f95de3771a32f7b9a7f7c59169027d93d4e5c361e",
            "status": true,
            "timestamp": "2024-06-26T14:28:47Z",
            "transactionFee": "0.000984251629808856",
            "txnHash": "0x3f796579546e8eb43354695f95de3771a32f7b9a7f7c59169027d93d4e5c361e",
            "txnIndex": 111,
            "type": 2,
            "value": "0"
        },
        "fund_flow": [],
        "token_infos": [
            {
                "address": "0xc02aaa39b223fe8d0a0e5c4f27ead9083c756cc2",
                "decimals": 18
            },
            {
                "address": "0xeeeeeeeeeeeeeeeeeeeeeeeeeeeeeeeeeeeeeeee",
                "decimals": 18
            }
        ]
    },
    "address_label": {
        "labels": [
            {
                "address": "0x0100546f2cd4c9d97f798ffc9755e47865ff7ee6",
                "label": "Alchemix: alETH Token"
            },
            {
                "address": "0x0000000000000000000000000000000000000001",
                "label": "Precompiled"
            },
            {
                "address": "0x0000000000000000000000000000000000000002",
                "label": "Precompiled"
            },
            {
                "address": "0x0000000000000000000000000000000000000003",
                "label": "Precompiled"
            },
            {
                "address": "0x0000000000000000000000000000000000000004",
                "label": "Precompiled"
            },
            {
                "address": "0xeeeeeeeeeeeeeeeeeeeeeeeeeeeeeeeeeeeeeeee",
                "label": "Ether"
            }
        ]
    },
    "trace": {
        "accountLabels": null,
        "dataMap": {
            "-1": {
                "invocation": {
                    "address": "0xc39c86f700aa6b2b2b62d6cedf0d48c9e1583682",
                    "callData": "",
                    "decodedMethod": null,
                    "errorInfo": "",
                    "fromAddress": "",
                    "gasUsed": 0,
                    "id": -1,
                    "methodDecoded": false,
                    "operation": "",
                    "output": "",
                    "revert": false,
                    "revertMessage": "",
                    "selector": "",
                    "status": false,
                    "value": ""
                },
                "nodeType": 0
            },
            "0": {
                "invocation": {
                    "address": "0x0100546f2cd4c9d97f798ffc9755e47865ff7ee6",
                    "callData": "0x000000000000000000000000f0d4c12a5768d806021f80a262b4d39d26c58b8d0000000000000000000000000000000000000000000000001bbfa1c8c5ef6425",
                    "decodedMethod": {
                        "callParams": [
                            {
                                "name": "spender",
                                "type": "address",
                                "value": "0xf0d4c12a5768d806021f80a262b4d39d26c58b8d"
                            },
                            {
                                "decimalAvailable": true,
                                "name": "amount",
                                "type": "uint256",
                                "value": "1,999,494,643,262,120,997"
                            }
                        ],
                        "constructorArguments": "",
                        "name": "approve",
                        "returnParams": [
                            {
                                "name": "",
                                "type": "bool",
                                "value": true
                            }
                        ],
                        "signature": "approve(address,uint256)"
                    },
                    "errorInfo": "",
                    "fromAddress": "0xc39c86f700aa6b2b2b62d6cedf0d48c9e1583682",
                    "gasUsed": 46366,
                    "id": 0,
                    "methodDecoded": true,
                    "operation": "CALL",
                    "output": "0x0000000000000000000000000000000000000000000000000000000000000001",
                    "revert": false,
                    "revertMessage": "",
                    "selector": "0x095ea7b3",
                    "status": true,
                    "value": "0"
                },
                "nodeType": 0
            },
            "1": {
                "event": {
                    "contract": "0x0100546f2cd4c9d97f798ffc9755e47865ff7ee6",
                    "decodedLog": {
                        "name": "Approval",
                        "params": [
                            {
                                "name": "owner",
                                "type": "address",
                                "value": "0xc39c86f700aa6b2b2b62d6cedf0d48c9e1583682"
                            },
                            {
                                "name": "spender",
                                "type": "address",
                                "value": "0xf0d4c12a5768d806021f80a262b4d39d26c58b8d"
                            },
                            {
                                "decimalAvailable": true,
                                "name": "value",
                                "type": "uint256",
                                "value": "1,999,494,643,262,120,997"
                            }
                        ],
                        "signature": "Approval(address,address,uint256)"
                    },
                    "id": 1,
                    "logData": "0x0000000000000000000000000000000000000000000000001bbfa1c8c5ef6425",
                    "logDecoded": true,
                    "operation": "EVENT",
                    "revert": false,
                    "status": true,
                    "topics": [
                        "0x8c5be1e5ebec7d5bd14f71427d1e84f3dd0314c0f7b2291e5b200ac8c7c3b925",
                        "0x000000000000000000000000c39c86f700aa6b2b2b62d6cedf0d48c9e1583682",
                        "0x000000000000000000000000f0d4c12a5768d806021f80a262b4d39d26c58b8d"
                    ]
                },
                "nodeType": 1
            }
        },
        "gasFlame": [
            {
                "children": [
                    {
                        "children": [
                            {
                                "children": [],
                                "depth": 0,
                                "name": "Initial Gas",
                                "value": 21656
                            },
                            {
                                "children": [],
                                "depth": 0,
                                "name": "Executed Gas",
                                "value": 24710
                            }
                        ],
                        "depth": -1,
                        "name": "Actual Gas Used",
                        "value": 46366
                    },
                    {
                        "children": [],
                        "depth": -1,
                        "name": "Refunded Gas",
                        "value": 0
                    }
                ],
                "depth": -2,
                "name": "Total Gas",
                "value": 46366
            }
        ],
        "isConfirmed": true,
        "mainTrace": [
            {
                "children": [
                    {
                        "children": [
                            {
                                "children": [],
                                "depth": 1,
                                "id": 1,
                                "order": 1
                            }
                        ],
                        "depth": 0,
                        "id": 0,
                        "order": 0
                    }
                ],
                "depth": -1,
                "id": -1,
                "order": -1
            }
        ],
        "mainTraceNodeCount": 2,
        "parentIdMap": {
            "0": -1,
            "1": 0
        },
        "tidyTrace": [
            {
                "children": [
                    {
                        "children": [
                            {
                                "children": [],
                                "depth": 1,
                                "id": 1,
                                "order": 1
                            }
                        ],
                        "depth": 0,
                        "id": 0,
                        "order": 0
                    }
                ],
                "depth": -1,
                "id": -1,
                "order": -1
            }
        ],
        "tidyTraceNodeCount": 2
    },
    "state_change": {
        "stateChanges": [
            {
                "address": "0x0100546f2cd4c9d97f798ffc9755e47865ff7ee6",
                "erc": "ERC-20",
                "slots": [
                    {
                        "current": "0x0000000000000000000000000000000000000000000000001bbfa1c8c5ef6425",
                        "key": "0x37a435422f2078d6460a5e2a713459f8ed4e7388c01353c3c4690339ef994201",
                        "prev": "0x0000000000000000000000000000000000000000000000000000000000000000"
                    }
                ],
                "storageVariables": [
                    {
                        "name": "_allowances",
                        "type": "mapping(address => mapping(address => uint256))",
                        "value": {
                            "pairs": [
                                {
                                    "key": "0xc39c86f700aa6b2b2b62d6cedf0d48c9e1583682",
                                    "value": {
                                        "pairs": [
                                            {
                                                "key": "0xf0d4c12a5768d806021f80a262b4d39d26c58b8d",
                                                "value": {
                                                    "current": "1999494643262120997",
                                                    "prev": "0",
                                                    "typeTag": 1
                                                }
                                            }
                                        ],
                                        "typeTag": 4
                                    }
                                }
                            ],
                            "typeTag": 4
                        }
                    }
                ]
            }
        ]
    }
}