{
    "balance_change": {
        "balanceChanges": [
            {
                "account": "0xd6f99f329446c5a367bbbcd57894d56197b92e75",
                "assets": [
                    {
                        "address": "0xfe0c30065b384f05761f15d0cc899d4f9f9cc0eb",
                        "amount": "1.987462310895239936",
                        "iconUrl": "",
                        "isERC1155": false,
                        "isERC721": false,
                        "sign": true,
                        "value": "4.312793214869999859"
                    }
                ]
            },
            {
                "account": "0xcaea107c120d85a91adb3222472268a588080e0b",
                "assets": [
                    {
                        "address": "0xfe0c30065b384f05761f15d0cc899d4f9f9cc0eb",
                        "amount": "1.987462310895239936",
                        "iconUrl": "",
                        "isERC1155": false,
                        "isERC721": false,
                        "sign": false,
                        "value": "4.312793214869999859"
                    }
                ]
            }
        ]
    },
    "profile": {
        "basic_info": {
            "baseFee": "1.237574014",
            "blockNumber": 20404207,
            "callData": "0x2e7ba6ef00000000000000000000000000000000000000000000000000000000000038c0000000000000000000000000d6f99f329446c5a367bbbcd57894d56197b92e750000000000000000000000000000000000000000000000001b94e271156343000000000000000000000000000000000000000000000000000000000000000080000000000000000000000000000000000000000000000000000000000000000edf355cd8a8550cdac684a0d5d30b9aa807cc2f3f634fe5c1c4d957340b45204b30b520eb32f5368e0f34663ea5e475ecf476613ffdac2d35d32f05a17515da1b65f45254bb0cddc28470b44ccab56ecb7315b26f21078ec9cc8a0c05486d49219ab2986ffb487fae555338a5dd2eaeabe5c7104ff57e1d7752d5da687cd19010d437f9a930512ff6b358f1ef512000dd1350333d78ff1dbb357d037a0d5adc1b85cd5e7354990a91aadb36b58cce6a0effb01f802de11e022181f552f195200878a5b70cd8c9502560eeb1b801a866b412fbfe290fdcf4f2a02c3cb744bc627c4c6be6819559f002bc03ae03cf7eeb071a714e3c58d8ff33422747a33460df7ae8481d0c73acfc9e13357439f817beedf6d23ea32c2c57900d4934d292e36281dbe692e3cbda6f078cabe0d07512c2562528d227400bcbb2d5a113d6d2ee8d0e2a47b6b849664b5c598c76251822c8f6eba3f674babff50d9736604f4a6b6d04b4b3e477418690c7098acb4bc4db4a5469c7a85b25adae66a3751ffddaa1e6a07205c1389a8374e02aea45ee7684f7fd11962284ad1adb038f167937b1ef0759a478c109664cdfb558b98c850b6afdcd1c2adb69523c9c98bc5f8e2bcfb8cdc4",
            "debugEnable": true,
            "errorInfo": "",
            "eventCount": 2,
            "feeRecipient": "0x388c818ca8b9251b393131c08a736a67ccb19297",
            "formatValue": "0",
            "gasLimit": 122401,
            "gasPrice": "1.737574014",
            "gasUsed": 80698,
            "intTxnCount": 1,
            "internalRevert": false,
            "internalRevertMessage": "",
            "isContractCreation": false,
            "isFlashloan": false,
            "maxFee": "1.829545475",
            "nonce": 2,
            "overwritedBlockNumber": -1,
            "priorityFee": "0.5",
            "receiver": "0xcaea107c120d85a91adb3222472268a588080e0b",
            "revertMessage": "",
            "sender": "0xd6f99f329446c5a367bbbcd57894d56197b92e75",
            "simulationEnable": true,
            "sourceTxnHash": "0x3fb3bbc65b2cf4dd54edd59ae1f9947697af5cb4001b4bfe6a12e06754303ced",
            "status": true,
            "timestamp": "2024-07-28T09:39:47Z",
            "transactionFee": "0.000140218747781772",
            "txnHash": "0x3fb3bbc65b2cf4dd54edd59ae1f9947697af5cb4001b4bfe6a12e06754303ced",
            "txnIndex": 39,
            "type": 2,
            "value": "0"
        },
        "fund_flow": [
            {
                "amount": "1.987462310895239936",
                "from": "0xcaea107c120d85a91adb3222472268a588080e0b",
                "id": 1,
                "isERC1155": false,
                "isERC721": false,
                "isReverted": false,
                "order": 1,
                "to": "0xd6f99f329446c5a367bbbcd57894d56197b92e75",
                "token": "0xfe0c30065b384f05761f15d0cc899d4f9f9cc0eb"
            }
        ],
        "token_infos": [
            {
                "address": "0xeeeeeeeeeeeeeeeeeeeeeeeeeeeeeeeeeeeeeeee",
                "decimals": 18
            },
            {
                "address": "0xc02aaa39b223fe8d0a0e5c4f27ead9083c756cc2",
                "decimals": 18
            },
            {
                "address": "0xfe0c30065b384f05761f15d0cc899d4f9f9cc0eb",
                "decimals": 18
            }
        ]
    },
    "address_label": {
        "labels": [
            {
                "address": "0xfe0c30065b384f05761f15d0cc899d4f9f9cc0eb",
                "label": "Ether.fi: ETHFI Token"
            },
            {
                "address": "0x388c818ca8b9251b393131c08a736a67ccb19297",
                "label": "LidoExecutionLayerRewardsVault"
            },
            {
                "address": "0xcaea107c120d85a91adb3222472268a588080e0b",
                "label": "MerkleDistributorWithDeadline"
            },
            {
                "address": "0x0000000000000000000000000000000000000001",
                "label": "Precompiled"
            },
            {
                "address": "0x0000000000000000000000000000000000000002",
                "label": "Precompiled"
            },
            {
                "address": "0x0000000000000000000000000000000000000003",
                "label": "Precompiled"
            },
            {
                "address": "0x0000000000000000000000000000000000000004",
                "label": "Precompiled"
            },
            {
                "address": "0xeeeeeeeeeeeeeeeeeeeeeeeeeeeeeeeeeeeeeeee",
                "label": "Ether"
            }
        ]
    },
    "trace": {
        "accountLabels": null,
        "dataMap": {
            "-1": {
                "invocation": {
                    "address": "0xd6f99f329446c5a367bbbcd57894d56197b92e75",
                    "callData": "",
                    "decodedMethod": null,
                    "errorInfo": "",
                    "fromAddress": "",
                    "gasUsed": 0,
                    "id": -1,
                    "methodDecoded": false,
                    "operation": "",
                    "output": "",
                    "revert": false,
                    "revertMessage": "",
                    "selector": "",
                    "status": false,
                    "value": ""
                },
                "nodeType": 0
            },
            "0": {
                "invocation": {
                    "address": "0xcaea107c120d85a91adb3222472268a588080e0b",
                    "callData": "0x00000000000000000000000000000000000000000000000000000000000038c0000000000000000000000000d6f99f329446c5a367bbbcd57894d56197b92e750000000000000000000000000000000000000000000000001b94e271156343000000000000000000000000000000000000000000000000000000000000000080000000000000000000000000000000000000000000000000000000000000000edf355cd8a8550cdac684a0d5d30b9aa807cc2f3f634fe5c1c4d957340b45204b30b520eb32f5368e0f34663ea5e475ecf476613ffdac2d35d32f05a17515da1b65f45254bb0cddc28470b44ccab56ecb7315b26f21078ec9cc8a0c05486d49219ab2986ffb487fae555338a5dd2eaeabe5c7104ff57e1d7752d5da687cd19010d437f9a930512ff6b358f1ef512000dd1350333d78ff1dbb357d037a0d5adc1b85cd5e7354990a91aadb36b58cce6a0effb01f802de11e022181f552f195200878a5b70cd8c9502560eeb1b801a866b412fbfe290fdcf4f2a02c3cb744bc627c4c6be6819559f002bc03ae03cf7eeb071a714e3c58d8ff33422747a33460df7ae8481d0c73acfc9e13357439f817beedf6d23ea32c2c57900d4934d292e36281dbe692e3cbda6f078cabe0d07512c2562528d227400bcbb2d5a113d6d2ee8d0e2a47b6b849664b5c598c76251822c8f6eba3f674babff50d9736604f4a6b6d04b4b3e477418690c7098acb4bc4db4a5469c7a85b25adae66a3751ffddaa1e6a07205c1389a8374e02aea45ee7684f7fd11962284ad1adb038f167937b1ef0759a478c109664cdfb558b98c850b6afdcd1c2adb69523c9c98bc5f8e2bcfb8cdc4",
                    "decodedMethod": {
                        "callParams": [
                            {
                                "name": "index",
                                "type": "uint256",
                                "value": "14,528"
                            },
                            {
                                "name": "account",
                                "type": "address",
                                "value": "0xd6f99f329446c5a367bbbcd57894d56197b92e75"
                            },
                            {
                                "name": "amount",
                                "type": "uint256",
                                "value": "1,987,462,310,895,239,936"
                            },
                            {
                                "name": "merkleProof",
                                "type": "bytes32[]",
                                "value": [
                                    "0xdf355cd8a8550cdac684a0d5d30b9aa807cc2f3f634fe5c1c4d957340b45204b",
                                    "0x30b520eb32f5368e0f34663ea5e475ecf476613ffdac2d35d32f05a17515da1b",
                                    "0x65f45254bb0cddc28470b44ccab56ecb7315b26f21078ec9cc8a0c05486d4921",
                                    "0x9ab2986ffb487fae555338a5dd2eaeabe5c7104ff57e1d7752d5da687cd19010",
                                    "0xd437f9a930512ff6b358f1ef512000dd1350333d78ff1dbb357d037a0d5adc1b",
                                    "0x85cd5e7354990a91aadb36b58cce6a0effb01f802de11e022181f552f1952008",
                                    "0x78a5b70cd8c9502560eeb1b801a866b412fbfe290fdcf4f2a02c3cb744bc627c",
                                    "0x4c6be6819559f002bc03ae03cf7eeb071a714e3c58d8ff33422747a33460df7a",
                                    "0xe8481d0c73acfc9e13357439f817beedf6d23ea32c2c57900d4934d292e36281",
                                    "0xdbe692e3cbda6f078cabe0d07512c2562528d227400bcbb2d5a113d6d2ee8d0e",
                                    "0x2a47b6b849664b5c598c76251822c8f6eba3f674babff50d9736604f4a6b6d04",
                                    "0xb4b3e477418690c7098acb4bc4db4a5469c7a85b25adae66a3751ffddaa1e6a0",
                                    "0x7205c1389a8374e02aea45ee7684f7fd11962284ad1adb038f167937b1ef0759",
                                    "0xa478c109664cdfb558b98c850b6afdcd1c2adb69523c9c98bc5f8e2bcfb8cdc4"
                                ]
                            }
                        ],
                        "constructorArguments": "",
                        "name": "claim",
                        "returnParams": [],
                        "signature": "claim(uint256,address,uint256,bytes32[])"
                    },
                    "errorInfo": "",
                    "fromAddress": "0xd6f99f329446c5a367bbbcd57894d56197b92e75",
                    "gasUsed": 80698,
                    "id": 0,
                    "methodDecoded": true,
                    "operation": "CALL",
                    "output": "",
                    "revert": false,
                    "revertMessage": "",
                    "selector": "0x2e7ba6ef",
                    "status": true,
                    "value": "0"
                },
                "nodeType": 0
            },
            "1": {
                "invocation": {
                    "address": "0xfe0c30065b384f05761f15d0cc899d4f9f9cc0eb",
                    "callData": "0x000000000000000000000000d6f99f329446c5a367bbbcd57894d56197b92e750000000000000000000000000000000000000000000000001b94e27115634300",
                    "decodedMethod": {
                        "callParams": [
                            {
                                "name": "to",
                                "type": "address",
                                "value": "0xd6f99f329446c5a367bbbcd57894d56197b92e75"
                            },
                            {
                                "decimalAvailable": true,
                                "name": "value",
                                "type": "uint256",
                                "value": "1,987,462,310,895,239,936"
                            }
                        ],
                        "constructorArguments": "",
                        "name": "transfer",
                        "returnParams": [
                            {
                                "name": "",
                                "type": "bool",
                                "value": true
                            }
                        ],
                        "signature": "transfer(address,uint256)"
                    },
                    "errorInfo": "",
                    "fromAddress": "0xcaea107c120d85a91adb3222472268a588080e0b",
                    "gasUsed": 34725,
                    "id": 1,
                    "methodDecoded": true,
                    "operation": "CALL",
                    "output": "0x0000000000000000000000000000000000000000000000000000000000000001",
                    "revert": false,
                    "revertMessage": "",
                    "selector": "0xa9059cbb",
                    "status": true,
                    "value": "0"
                },
                "nodeType": 0
            },
            "2": {
                "event": {
                    "contract": "0xfe0c30065b384f05761f15d0cc899d4f9f9cc0eb",
                    "decodedLog": {
                        "name": "Transfer",
                        "params": [
                            {
                                "name": "from",
                                "type": "address",
                                "value": "0xcaea107c120d85a91adb3222472268a588080e0b"
                            },
                            {
                                "name": "to",
                                "type": "address",
                                "value": "0xd6f99f329446c5a367bbbcd57894d56197b92e75"
                            },
                            {
                                "decimalAvailable": true,
                                "name": "value",
                                "type": "uint256",
                                "value": "1,987,462,310,895,239,936"
                            }
                        ],
                        "signature": "Transfer(address,address,uint256)"
                    },
                    "id": 2,
                    "logData": "0x0000000000000000000000000000000000000000000000001b94e27115634300",
                    "logDecoded": true,
                    "operation": "EVENT",
                    "revert": false,
                    "status": true,
                    "topics": [
                        "0xddf252ad1be2c89b69c2b068fc378daa952ba7f163c4a11628f55a4df523b3ef",
                        "0x000000000000000000000000caea107c120d85a91adb3222472268a588080e0b",
                        "0x000000000000000000000000d6f99f329446c5a367bbbcd57894d56197b92e75"
                    ]
                },
                "nodeType": 1
            },
            "3": {
                "event": {
                    "contract": "0xcaea107c120d85a91adb3222472268a588080e0b",
                    "decodedLog": {
                        "name": "Claimed",
                        "params": [
                            {
                                "name": "index",
                                "type": "uint256",
                                "value": "14,528"
                            },
                            {
                                "name": "account",
                                "type": "address",
                                "value": "0xd6f99f329446c5a367bbbcd57894d56197b92e75"
                            },
                            {
                                "name": "amount",
                                "type": "uint256",
                                "value": "1,987,462,310,895,239,936"
                            }
                        ],
                        "signature": "Claimed(uint256,address,uint256)"
                    },
                    "id": 3,
                    "logData": "0x00000000000000000000000000000000000000000000000000000000000038c0000000000000000000000000d6f99f329446c5a367bbbcd57894d56197b92e750000000000000000000000000000000000000000000000001b94e27115634300",
                    "logDecoded": true,
                    "operation": "EVENT",
                    "revert": false,
                    "status": true,
                    "topics": [
                        "0x4ec90e965519d92681267467f775ada5bd214aa92c0dc93d90a5e880ce9ed026"
                    ]
                },
                "nodeType": 1
            }
        },
        "gasFlame": [
            {
                "children": [
                    {
                        "children": [
                            {
                                "children": [],
                                "depth": 0,
                                "name": "Initial Gas",
                                "value": 29232
                            },
                            {
                                "children": [
                                    {
                                        "children": [],
                                        "depth": 1,
                                        "name": "transfer",
                                        "value": 34725
                                    }
                                ],
                                "depth": 0,
                                "name": "Executed Gas",
                                "value": 51466
                            }
                        ],
                        "depth": -1,
                        "name": "Actual Gas Used",
                        "value": 80698
                    },
                    {
                        "children": [],
                        "depth": -1,
                        "name": "Refunded Gas",
                        "value": 0
                    }
                ],
                "depth": -2,
                "name": "Total Gas",
                "value": 80698
            }
        ],
        "isConfirmed": true,
        "mainTrace": [
            {
                "children": [
                    {
                        "children": [
                            {
                                "children": [
                                    {
                                        "children": [],
                                        "depth": 2,
                                        "id": 2,
                                        "order": 2
                                    }
                                ],
                                "depth": 1,
                                "id": 1,
                                "order": 1
                            },
                            {
                                "children": [],
                                "depth": 1,
                                "id": 3,
                                "order": 3
                            }
                        ],
                        "depth": 0,
                        "id": 0,
                        "order": 0
                    }
                ],
                "depth": -1,
                "id": -1,
                "order": -1
            }
        ],
        "mainTraceNodeCount": 4,
        "parentIdMap": {
            "0": -1,
            "1": 0,
            "2": 1,
            "3": 0
        },
        "tidyTrace": [
            {
                "children": [
                    {
                        "children": [
                            {
                                "children": [
                                    {
                                        "children": [],
                                        "depth": 2,
                                        "id": 2,
                                        "order": 2
                                    }
                                ],
                                "depth": 1,
                                "id": 1,
                                "order": 1
                            },
                            {
                                "children": [],
                                "depth": 1,
                                "id": 3,
                                "order": 3
                            }
                        ],
                        "depth": 0,
                        "id": 0,
                        "order": 0
                    }
                ],
                "depth": -1,
                "id": -1,
                "order": -1
            }
        ],
        "tidyTraceNodeCount": 4
    },
    "state_change": {
        "stateChanges": [
            {
                "address": "0xcaea107c120d85a91adb3222472268a588080e0b",
                "erc": "",
                "slots": [
                    {
                        "current": "0x9010309004745601004400290a409200a20841198700284f9044320c01322209",
                        "key": "0x463154dffd5ddce82baa6ddaa825ffda4b4cc1dd8abd5af72f421c487b1335db",
                        "prev": "0x9010309004745600004400290a409200a20841198700284f9044320c01322209"
                    }
                ],
                "storageVariables": [
                    {
                        "name": "claimedBitMap",
                        "type": "mapping(uint256 => uint256)",
                        "value": {
                            "pairs": [
                                {
                                    "key": "56",
                                    "value": {
                                        "current": "65161654915552887093577904024323717313595827238270851951356913080879247663625",
                                        "prev": "65161654915552887087300802288937036549760037815063185535254557636415213150729",
                                        "typeTag": 1
                                    }
                                }
                            ],
                            "typeTag": 4
                        }
                    }
                ]
            },
            {
                "address": "0xfe0c30065b384f05761f15d0cc899d4f9f9cc0eb",
                "erc": "ERC-20",
                "slots": [
                    {
                        "current": "0x0000000000000000000000000000000000000000000016751db782dd98f212e0",
                        "key": "0x8ed67cddbf19141f87e4772fe95499d1d402d14b7fe1ed9c4e3d3d2fca062413",
                        "prev": "0x000000000000000000000000000000000000000000001675394c654eae5555e0"
                    },
                    {
                        "current": "0x0000000000000000000000000000000000000000000000001b94e27115634300",
                        "key": "0x3c5945f5834f03438a7788dfb6d19c31500fd61aaa95f2219c575300829d0c08",
                        "prev": "0x0000000000000000000000000000000000000000000000000000000000000000"
                    }
                ],
                "storageVariables": [
                    {
                        "name": "_balances",
                        "type": "mapping(address => uint256)",
                        "value": {
                            "pairs": [
                                {
                                    "key": "0xcaea107c120d85a91adb3222472268a588080e0b",
                                    "value": {
                                        "current": "106052473003792315585248",
                                        "prev": "106054460466103210825184",
                                        "typeTag": 1
                                    }
                                },
                                {
                                    "key": "0xd6f99f329446c5a367bbbcd57894d56197b92e75",
                                    "value": {
                                        "current": "1987462310895239936",
                                        "prev": "0",
                                        "typeTag": 1
                                    }
                                }
                            ],
                            "typeTag": 4
                        }
                    }
                ]
            }
        ]
    }
}