{
    "balance_change": {
        "balanceChanges": [
            {
                "account": "0x0d0707963952f2fba59dd06f2b425ace40b492fe",
                "assets": [
                    {
                        "address": "0xbddf903f43dc7d9801f3f0034ba306169074ef8e",
                        "amount": "971,955,044,882",
                        "iconUrl": "",
                        "isERC1155": false,
                        "isERC721": false,
                        "sign": false,
                        "value": "223.7929032"
                    }
                ]
            },
            {
                "account": "0x759ec1b3326de6fd4ba316f65a6f689c4e4c3092",
                "assets": [
                    {
                        "address": "0xbddf903f43dc7d9801f3f0034ba306169074ef8e",
                        "amount": "971,955,044,882",
                        "iconUrl": "",
                        "isERC1155": false,
                        "isERC721": false,
                        "sign": true,
                        "value": "223.7929032"
                    }
                ]
            }
        ]
    },
    "profile": {
        "basic_info": {
            "baseFee": "12.91999928",
            "blockNumber": 18320662,
            "callData": "0xa9059cbb000000000000000000000000759ec1b3326de6fd4ba316f65a6f689c4e4c3092000000000000000000000000000000000000000c448e5e90f72c36748d080000",
            "debugEnable": true,
            "errorInfo": "",
            "eventCount": 1,
            "feeRecipient": "0x7e15ca0c6847cfec0ba3a03cbe3688bb7a54c7ba",
            "formatValue": "0",
            "gasLimit": 1000000,
            "gasPrice": "22.91999928",
            "gasUsed": 50817,
            "intTxnCount": 4,
            "internalRevert": false,
            "internalRevertMessage": "",
            "isContractCreation": false,
            "isFlashloan": false,
            "maxFee": "34.770779228",
            "nonce": 4951580,
            "overwritedBlockNumber": -1,
            "priorityFee": "10",
            "receiver": "0xbddf903f43dc7d9801f3f0034ba306169074ef8e",
            "revertMessage": "",
            "sender": "0x0d0707963952f2fba59dd06f2b425ace40b492fe",
            "simulationEnable": true,
            "sourceTxnHash": "0x3f5d6fc32b3da18d607f61c31be76ec8a6aadb64692035f1a069b73bfb7d4e53",
            "status": true,
            "timestamp": "2023-10-10T14:30:35Z",
            "transactionFee": "0.00116472560341176",
            "txnHash": "0x3f5d6fc32b3da18d607f61c31be76ec8a6aadb64692035f1a069b73bfb7d4e53",
            "txnIndex": 5,
            "type": 2,
            "value": "0"
        },
        "fund_flow": [
            {
                "amount": "971,955,044,882",
                "from": "0x0d0707963952f2fba59dd06f2b425ace40b492fe",
                "id": 1,
                "isERC1155": false,
                "isERC721": false,
                "isReverted": false,
                "order": 1,
                "to": "0x759ec1b3326de6fd4ba316f65a6f689c4e4c3092",
                "token": "0xbddf903f43dc7d9801f3f0034ba306169074ef8e"
            }
        ],
        "token_infos": [
            {
                "address": "0xbddf903f43dc7d9801f3f0034ba306169074ef8e",
                "decimals": 18
            },
            {
                "address": "0xc02aaa39b223fe8d0a0e5c4f27ead9083c756cc2",
                "decimals": 18
            },
            {
                "address": "0xeeeeeeeeeeeeeeeeeeeeeeeeeeeeeeeeeeeeeeee",
                "decimals": 18
            }
        ]
    },
    "address_label": {
        "labels": [
            {
                "address": "0xd1d5ad933a2c4bdcf3080c32509abd6e994571c1",
                "label": "TransferChecker"
            },
            {
                "address": "0x0d0707963952f2fba59dd06f2b425ace40b492fe",
                "label": "Gate.io"
            },
            {
                "address": "0x0000000000000000000000000000000000000002",
                "label": "Precompiled"
            },
            {
                "address": "0x0000000000000000000000000000000000000003",
                "label": "Precompiled"
            },
            {
                "address": "0x0000000000000000000000000000000000000004",
                "label": "Precompiled"
            },
            {
                "address": "0xeeeeeeeeeeeeeeeeeeeeeeeeeeeeeeeeeeeeeeee",
                "label": "Ether"
            },
            {
                "address": "0xbddf903f43dc7d9801f3f0034ba306169074ef8e",
                "label": "Apes Go Bananas: AGB Token"
            },
            {
                "address": "0xb6b13c7885cf1328d8f4eb66382be13709afed75",
                "label": "CTransferCheckerEx"
            },
            {
                "address": "0x0000000000000000000000000000000000000001",
                "label": "Precompiled"
            }
        ]
    },
    "trace": {
        "accountLabels": null,
        "dataMap": {
            "-1": {
                "invocation": {
                    "address": "0x0d0707963952f2fba59dd06f2b425ace40b492fe",
                    "callData": "",
                    "decodedMethod": null,
                    "errorInfo": "",
                    "fromAddress": "",
                    "gasUsed": 0,
                    "id": -1,
                    "methodDecoded": false,
                    "operation": "",
                    "output": "",
                    "revert": false,
                    "revertMessage": "",
                    "selector": "",
                    "status": false,
                    "value": ""
                },
                "nodeType": 0
            },
            "0": {
                "invocation": {
                    "address": "0xbddf903f43dc7d9801f3f0034ba306169074ef8e",
                    "callData": "0x000000000000000000000000759ec1b3326de6fd4ba316f65a6f689c4e4c3092000000000000000000000000000000000000000c448e5e90f72c36748d080000",
                    "decodedMethod": {
                        "callParams": [
                            {
                                "name": "to",
                                "type": "address",
                                "value": "0x759ec1b3326de6fd4ba316f65a6f689c4e4c3092"
                            },
                            {
                                "decimalAvailable": true,
                                "name": "amount",
                                "type": "uint256",
                                "value": "971,955,044,882,000,000,000,000,000,000"
                            }
                        ],
                        "constructorArguments": "",
                        "name": "transfer",
                        "returnParams": [
                            {
                                "name": "",
                                "type": "bool",
                                "value": true
                            }
                        ],
                        "signature": "transfer(address,uint256)"
                    },
                    "errorInfo": "",
                    "fromAddress": "0x0d0707963952f2fba59dd06f2b425ace40b492fe",
                    "gasUsed": 50817,
                    "id": 0,
                    "methodDecoded": true,
                    "operation": "CALL",
                    "output": "0x0000000000000000000000000000000000000000000000000000000000000001",
                    "revert": false,
                    "revertMessage": "",
                    "selector": "0xa9059cbb",
                    "status": true,
                    "value": "0"
                },
                "nodeType": 0
            },
            "1": {
                "invocation": {
                    "address": "0xb6b13c7885cf1328d8f4eb66382be13709afed75",
                    "callData": "0x0000000000000000000000000d0707963952f2fba59dd06f2b425ace40b492fe000000000000000000000000759ec1b3326de6fd4ba316f65a6f689c4e4c3092000000000000000000000000000000000000000c448e5e90f72c36748d080000",
                    "decodedMethod": {
                        "callParams": [
                            {
                                "name": "from",
                                "type": "address",
                                "value": "0x0d0707963952f2fba59dd06f2b425ace40b492fe"
                            },
                            {
                                "name": "to",
                                "type": "address",
                                "value": "0x759ec1b3326de6fd4ba316f65a6f689c4e4c3092"
                            },
                            {
                                "name": "amount",
                                "type": "uint256",
                                "value": "971,955,044,882,000,000,000,000,000,000"
                            }
                        ],
                        "constructorArguments": "",
                        "name": "beforeTokenTransfer",
                        "returnParams": [
                            {
                                "name": "",
                                "type": "bool",
                                "value": true
                            }
                        ],
                        "signature": "beforeTokenTransfer(address,address,uint256)"
                    },
                    "errorInfo": "",
                    "fromAddress": "0xbddf903f43dc7d9801f3f0034ba306169074ef8e",
                    "gasUsed": 8460,
                    "id": 1,
                    "methodDecoded": true,
                    "operation": "STATICCALL",
                    "output": "0x0000000000000000000000000000000000000000000000000000000000000001",
                    "revert": false,
                    "revertMessage": "",
                    "selector": "0x7cbab1c7",
                    "status": true,
                    "value": "0"
                },
                "nodeType": 0
            },
            "2": {
                "invocation": {
                    "address": "0xd1d5ad933a2c4bdcf3080c32509abd6e994571c1",
                    "callData": "0x0000000000000000000000000d0707963952f2fba59dd06f2b425ace40b492fe000000000000000000000000759ec1b3326de6fd4ba316f65a6f689c4e4c3092000000000000000000000000000000000000000c448e5e90f72c36748d080000",
                    "decodedMethod": {
                        "callParams": [
                            {
                                "name": "from",
                                "type": "address",
                                "value": "0x0d0707963952f2fba59dd06f2b425ace40b492fe"
                            },
                            {
                                "name": "",
                                "type": "address",
                                "value": "0x759ec1b3326de6fd4ba316f65a6f689c4e4c3092"
                            },
                            {
                                "name": "amount",
                                "type": "uint256",
                                "value": "971,955,044,882,000,000,000,000,000,000"
                            }
                        ],
                        "constructorArguments": "",
                        "name": "beforeTokenTransfer",
                        "returnParams": [
                            {
                                "name": "",
                                "type": "bool",
                                "value": true
                            }
                        ],
                        "signature": "beforeTokenTransfer(address,address,uint256)"
                    },
                    "errorInfo": "",
                    "fromAddress": "0xb6b13c7885cf1328d8f4eb66382be13709afed75",
                    "gasUsed": 519,
                    "id": 2,
                    "methodDecoded": true,
                    "operation": "STATICCALL",
                    "output": "0x0000000000000000000000000000000000000000000000000000000000000001",
                    "revert": false,
                    "revertMessage": "",
                    "selector": "0x7cbab1c7",
                    "status": true,
                    "value": "0"
                },
                "nodeType": 0
            },
            "3": {
                "event": {
                    "contract": "0xbddf903f43dc7d9801f3f0034ba306169074ef8e",
                    "decodedLog": {
                        "name": "Transfer",
                        "params": [
                            {
                                "name": "from",
                                "type": "address",
                                "value": "0x0d0707963952f2fba59dd06f2b425ace40b492fe"
                            },
                            {
                                "name": "to",
                                "type": "address",
                                "value": "0x759ec1b3326de6fd4ba316f65a6f689c4e4c3092"
                            },
                            {
                                "decimalAvailable": true,
                                "name": "value",
                                "type": "uint256",
                                "value": "971,955,044,882,000,000,000,000,000,000"
                            }
                        ],
                        "signature": "Transfer(address,address,uint256)"
                    },
                    "id": 3,
                    "logData": "0x000000000000000000000000000000000000000c448e5e90f72c36748d080000",
                    "logDecoded": true,
                    "operation": "EVENT",
                    "revert": false,
                    "status": true,
                    "topics": [
                        "0xddf252ad1be2c89b69c2b068fc378daa952ba7f163c4a11628f55a4df523b3ef",
                        "0x0000000000000000000000000d0707963952f2fba59dd06f2b425ace40b492fe",
                        "0x000000000000000000000000759ec1b3326de6fd4ba316f65a6f689c4e4c3092"
                    ]
                },
                "nodeType": 1
            },
            "4": {
                "invocation": {
                    "address": "0xb6b13c7885cf1328d8f4eb66382be13709afed75",
                    "callData": "0x0000000000000000000000000d0707963952f2fba59dd06f2b425ace40b492fe000000000000000000000000759ec1b3326de6fd4ba316f65a6f689c4e4c3092000000000000000000000000000000000000000c448e5e90f72c36748d080000",
                    "decodedMethod": {
                        "callParams": [
                            {
                                "name": "from",
                                "type": "address",
                                "value": "0x0d0707963952f2fba59dd06f2b425ace40b492fe"
                            },
                            {
                                "name": "to",
                                "type": "address",
                                "value": "0x759ec1b3326de6fd4ba316f65a6f689c4e4c3092"
                            },
                            {
                                "name": "amount",
                                "type": "uint256",
                                "value": "971,955,044,882,000,000,000,000,000,000"
                            }
                        ],
                        "constructorArguments": "",
                        "name": "afterTokenTransfer",
                        "returnParams": [
                            {
                                "name": "",
                                "type": "bool",
                                "value": true
                            }
                        ],
                        "signature": "afterTokenTransfer(address,address,uint256)"
                    },
                    "errorInfo": "",
                    "fromAddress": "0xbddf903f43dc7d9801f3f0034ba306169074ef8e",
                    "gasUsed": 1860,
                    "id": 4,
                    "methodDecoded": true,
                    "operation": "STATICCALL",
                    "output": "0x0000000000000000000000000000000000000000000000000000000000000001",
                    "revert": false,
                    "revertMessage": "",
                    "selector": "0xdf6258be",
                    "status": true,
                    "value": "0"
                },
                "nodeType": 0
            },
            "5": {
                "invocation": {
                    "address": "0xd1d5ad933a2c4bdcf3080c32509abd6e994571c1",
                    "callData": "0x0000000000000000000000000d0707963952f2fba59dd06f2b425ace40b492fe000000000000000000000000759ec1b3326de6fd4ba316f65a6f689c4e4c3092000000000000000000000000000000000000000c448e5e90f72c36748d080000",
                    "decodedMethod": {
                        "callParams": [
                            {
                                "name": "",
                                "type": "address",
                                "value": "0x0d0707963952f2fba59dd06f2b425ace40b492fe"
                            },
                            {
                                "name": "",
                                "type": "address",
                                "value": "0x759ec1b3326de6fd4ba316f65a6f689c4e4c3092"
                            },
                            {
                                "name": "",
                                "type": "uint256",
                                "value": "971,955,044,882,000,000,000,000,000,000"
                            }
                        ],
                        "constructorArguments": "",
                        "name": "afterTokenTransfer",
                        "returnParams": [
                            {
                                "name": "",
                                "type": "bool",
                                "value": true
                            }
                        ],
                        "signature": "afterTokenTransfer(address,address,uint256)"
                    },
                    "errorInfo": "",
                    "fromAddress": "0xb6b13c7885cf1328d8f4eb66382be13709afed75",
                    "gasUsed": 475,
                    "id": 5,
                    "methodDecoded": true,
                    "operation": "STATICCALL",
                    "output": "0x0000000000000000000000000000000000000000000000000000000000000001",
                    "revert": false,
                    "revertMessage": "",
                    "selector": "0xdf6258be",
                    "status": true,
                    "value": "0"
                },
                "nodeType": 0
            }
        },
        "gasFlame": [
            {
                "children": [
                    {
                        "children": [
                            {
                                "children": [],
                                "depth": 0,
                                "name": "Initial Gas",
                                "value": 21692
                            },
                            {
                                "children": [
                                    {
                                        "children": [
                                            {
                                                "children": [],
                                                "depth": 2,
                                                "name": "beforeTokenTransfer",
                                                "value": 519
                                            }
                                        ],
                                        "depth": 1,
                                        "name": "beforeTokenTransfer",
                                        "value": 8460
                                    },
                                    {
                                        "children": [
                                            {
                                                "children": [],
                                                "depth": 2,
                                                "name": "afterTokenTransfer",
                                                "value": 475
                                            }
                                        ],
                                        "depth": 1,
                                        "name": "afterTokenTransfer",
                                        "value": 1860
                                    }
                                ],
                                "depth": 0,
                                "name": "Executed Gas",
                                "value": 29125
                            }
                        ],
                        "depth": -1,
                        "name": "Actual Gas Used",
                        "value": 50817
                    },
                    {
                        "children": [],
                        "depth": -1,
                        "name": "Refunded Gas",
                        "value": 0
                    }
                ],
                "depth": -2,
                "name": "Total Gas",
                "value": 50817
            }
        ],
        "isConfirmed": true,
        "mainTrace": [
            {
                "children": [
                    {
                        "children": [
                            {
                                "children": [
                                    {
                                        "children": [],
                                        "depth": 2,
                                        "id": 2,
                                        "order": 2
                                    }
                                ],
                                "depth": 1,
                                "id": 1,
                                "order": 1
                            },
                            {
                                "children": [],
                                "depth": 1,
                                "id": 3,
                                "order": 3
                            },
                            {
                                "children": [
                                    {
                                        "children": [],
                                        "depth": 2,
                                        "id": 5,
                                        "order": 5
                                    }
                                ],
                                "depth": 1,
                                "id": 4,
                                "order": 4
                            }
                        ],
                        "depth": 0,
                        "id": 0,
                        "order": 0
                    }
                ],
                "depth": -1,
                "id": -1,
                "order": -1
            }
        ],
        "mainTraceNodeCount": 6,
        "parentIdMap": {
            "0": -1,
            "1": 0,
            "2": 1,
            "3": 0,
            "4": 0,
            "5": 4
        },
        "tidyTrace": [
            {
                "children": [
                    {
                        "children": [
                            {
                                "children": [],
                                "depth": 1,
                                "id": 3,
                                "order": 3
                            }
                        ],
                        "depth": 0,
                        "id": 0,
                        "order": 0
                    }
                ],
                "depth": -1,
                "id": -1,
                "order": -1
            }
        ],
        "tidyTraceNodeCount": 2
    },
    "state_change": {
        "stateChanges": [
            {
                "address": "0xbddf903f43dc7d9801f3f0034ba306169074ef8e",
                "erc": "ERC-20",
                "slots": [
                    {
                        "current": "0x000000000000000000000000000000000000000c448e5e90fc6b383580c36599",
                        "key": "0x86ee33e97b1d130c9e8a4de1a92ff2d82a0570a5e4282fb335dd5201b988c997",
                        "prev": "0x000000000000000000000000000000000000000000000000053f01c0f3bb6599"
                    },
                    {
                        "current": "0x00000000000000000000000000000000000003493c936a815f0c50c3fd66a4d4",
                        "key": "0x67376c8e9d774341c054e74367f227a86816ea930b1c3e9811eb20f762da1bd0",
                        "prev": "0x00000000000000000000000000000000000003558121c912563887388a6ea4d4"
                    }
                ],
                "storageVariables": [
                    {
                        "name": "_balances",
                        "type": "mapping(address => uint256)",
                        "value": {
                            "pairs": [
                                {
                                    "key": "0x0d0707963952f2fba59dd06f2b425ace40b492fe",
                                    "value": {
                                        "current": "66649631990138398078409579603156",
                                        "prev": "67621587035020398078409579603156",
                                        "typeTag": 1
                                    }
                                },
                                {
                                    "key": "0x759ec1b3326de6fd4ba316f65a6f689c4e4c3092",
                                    "value": {
                                        "current": "971955044882378022821956904345",
                                        "prev": "378022821956904345",
                                        "typeTag": 1
                                    }
                                }
                            ],
                            "typeTag": 4
                        }
                    }
                ]
            }
        ]
    }
}