{
    "balance_change": {
        "balanceChanges": [
            {
                "account": "0x422f8bac372dfbe3ce4261b988cfe88e46baf07e",
                "assets": [
                    {
                        "address": "0x5283d291dbcf85356a21ba090e6db59121208b44",
                        "amount": "11,048.05",
                        "iconUrl": "",
                        "isERC1155": false,
                        "isERC721": false,
                        "sign": false,
                        "value": "2326.719330000000104"
                    }
                ]
            },
            {
                "account": "0x5c8a261c219a89e90b5e8f38694ad1bf8a2a15c7",
                "assets": [
                    {
                        "address": "0x5283d291dbcf85356a21ba090e6db59121208b44",
                        "amount": "11,048.05",
                        "iconUrl": "",
                        "isERC1155": false,
                        "isERC721": false,
                        "sign": true,
                        "value": "2326.719330000000104"
                    }
                ]
            }
        ]
    },
    "profile": {
        "basic_info": {
            "baseFee": "8.576963157",
            "blockNumber": 20177164,
            "callData": "0xa9059cbb0000000000000000000000005c8a261c219a89e90b5e8f38694ad1bf8a2a15c7000000000000000000000000000000000000000000000256ea7e5bec22650000",
            "debugEnable": true,
            "errorInfo": "",
            "eventCount": 1,
            "feeRecipient": "0x95222290dd7278aa3ddd389cc1e1d165cc4bafe5",
            "formatValue": "0",
            "gasLimit": 84285,
            "gasPrice": "9.564689397",
            "gasUsed": 51175,
            "intTxnCount": 0,
            "internalRevert": false,
            "internalRevertMessage": "",
            "isContractCreation": false,
            "isFlashloan": false,
            "maxFee": "13.517927309",
            "nonce": 42,
            "overwritedBlockNumber": -1,
            "priorityFee": "0.98772624",
            "receiver": "0x5283d291dbcf85356a21ba090e6db59121208b44",
            "revertMessage": "",
            "sender": "0x422f8bac372dfbe3ce4261b988cfe88e46baf07e",
            "simulationEnable": true,
            "sourceTxnHash": "0x3f34097c9574750e52414e4e7dc7e4c9280f6133cff04be933845819099f70ca",
            "status": true,
            "timestamp": "2024-06-26T16:49:59Z",
            "transactionFee": "0.000489472979891475",
            "txnHash": "0x3f34097c9574750e52414e4e7dc7e4c9280f6133cff04be933845819099f70ca",
            "txnIndex": 206,
            "type": 2,
            "value": "0"
        },
        "fund_flow": [
            {
                "amount": "11,048.05",
                "from": "0x422f8bac372dfbe3ce4261b988cfe88e46baf07e",
                "id": 1,
                "isERC1155": false,
                "isERC721": false,
                "isReverted": false,
                "order": 1,
                "to": "0x5c8a261c219a89e90b5e8f38694ad1bf8a2a15c7",
                "token": "0x5283d291dbcf85356a21ba090e6db59121208b44"
            }
        ],
        "token_infos": [
            {
                "address": "0x5283d291dbcf85356a21ba090e6db59121208b44",
                "decimals": 18
            },
            {
                "address": "0xc02aaa39b223fe8d0a0e5c4f27ead9083c756cc2",
                "decimals": 18
            },
            {
                "address": "0xeeeeeeeeeeeeeeeeeeeeeeeeeeeeeeeeeeeeeeee",
                "decimals": 18
            }
        ]
    },
    "address_label": {
        "labels": [
            {
                "address": "0x0000000000000000000000000000000000000004",
                "label": "Precompiled"
            },
            {
                "address": "0xeeeeeeeeeeeeeeeeeeeeeeeeeeeeeeeeeeeeeeee",
                "label": "Ether"
            },
            {
                "address": "0x5283d291dbcf85356a21ba090e6db59121208b44",
                "label": "Blur: BLUR Token"
            },
            {
                "address": "0x5c8a261c219a89e90b5e8f38694ad1bf8a2a15c7",
                "label": "MEXC"
            },
            {
                "address": "0x0000000000000000000000000000000000000001",
                "label": "Precompiled"
            },
            {
                "address": "0x0000000000000000000000000000000000000002",
                "label": "Precompiled"
            },
            {
                "address": "0x0000000000000000000000000000000000000003",
                "label": "Precompiled"
            }
        ]
    },
    "trace": {
        "accountLabels": null,
        "dataMap": {
            "-1": {
                "invocation": {
                    "address": "0x422f8bac372dfbe3ce4261b988cfe88e46baf07e",
                    "callData": "",
                    "decodedMethod": null,
                    "errorInfo": "",
                    "fromAddress": "",
                    "gasUsed": 0,
                    "id": -1,
                    "methodDecoded": false,
                    "operation": "",
                    "output": "",
                    "revert": false,
                    "revertMessage": "",
                    "selector": "",
                    "status": false,
                    "value": ""
                },
                "nodeType": 0
            },
            "0": {
                "invocation": {
                    "address": "0x5283d291dbcf85356a21ba090e6db59121208b44",
                    "callData": "0x0000000000000000000000005c8a261c219a89e90b5e8f38694ad1bf8a2a15c7000000000000000000000000000000000000000000000256ea7e5bec22650000",
                    "decodedMethod": {
                        "callParams": [
                            {
                                "name": "to",
                                "type": "address",
                                "value": "0x5c8a261c219a89e90b5e8f38694ad1bf8a2a15c7"
                            },
                            {
                                "decimalAvailable": true,
                                "name": "amount",
                                "type": "uint256",
                                "value": "11,048,050,000,000,000,000,000"
                            }
                        ],
                        "constructorArguments": "",
                        "name": "transfer",
                        "returnParams": [
                            {
                                "name": "",
                                "type": "bool",
                                "value": true
                            }
                        ],
                        "signature": "transfer(address,uint256)"
                    },
                    "errorInfo": "",
                    "fromAddress": "0x422f8bac372dfbe3ce4261b988cfe88e46baf07e",
                    "gasUsed": 51175,
                    "id": 0,
                    "methodDecoded": true,
                    "operation": "CALL",
                    "output": "0x0000000000000000000000000000000000000000000000000000000000000001",
                    "revert": false,
                    "revertMessage": "",
                    "selector": "0xa9059cbb",
                    "status": true,
                    "value": "0"
                },
                "nodeType": 0
            },
            "1": {
                "event": {
                    "contract": "0x5283d291dbcf85356a21ba090e6db59121208b44",
                    "decodedLog": {
                        "name": "Transfer",
                        "params": [
                            {
                                "name": "from",
                                "type": "address",
                                "value": "0x422f8bac372dfbe3ce4261b988cfe88e46baf07e"
                            },
                            {
                                "name": "to",
                                "type": "address",
                                "value": "0x5c8a261c219a89e90b5e8f38694ad1bf8a2a15c7"
                            },
                            {
                                "decimalAvailable": true,
                                "name": "value",
                                "type": "uint256",
                                "value": "11,048,050,000,000,000,000,000"
                            }
                        ],
                        "signature": "Transfer(address,address,uint256)"
                    },
                    "id": 1,
                    "logData": "0x000000000000000000000000000000000000000000000256ea7e5bec22650000",
                    "logDecoded": true,
                    "operation": "EVENT",
                    "revert": false,
                    "status": true,
                    "topics": [
                        "0xddf252ad1be2c89b69c2b068fc378daa952ba7f163c4a11628f55a4df523b3ef",
                        "0x000000000000000000000000422f8bac372dfbe3ce4261b988cfe88e46baf07e",
                        "0x0000000000000000000000005c8a261c219a89e90b5e8f38694ad1bf8a2a15c7"
                    ]
                },
                "nodeType": 1
            }
        },
        "gasFlame": [
            {
                "children": [
                    {
                        "children": [
                            {
                                "children": [],
                                "depth": 0,
                                "name": "Initial Gas",
                                "value": 21656
                            },
                            {
                                "children": [],
                                "depth": 0,
                                "name": "Executed Gas",
                                "value": 34319
                            }
                        ],
                        "depth": -1,
                        "name": "Actual Gas Used",
                        "value": 51175
                    },
                    {
                        "children": [],
                        "depth": -1,
                        "name": "Refunded Gas",
                        "value": 4800
                    }
                ],
                "depth": -2,
                "name": "Total Gas",
                "value": 55975
            }
        ],
        "isConfirmed": true,
        "mainTrace": [
            {
                "children": [
                    {
                        "children": [
                            {
                                "children": [],
                                "depth": 1,
                                "id": 1,
                                "order": 1
                            }
                        ],
                        "depth": 0,
                        "id": 0,
                        "order": 0
                    }
                ],
                "depth": -1,
                "id": -1,
                "order": -1
            }
        ],
        "mainTraceNodeCount": 2,
        "parentIdMap": {
            "0": -1,
            "1": 0
        },
        "tidyTrace": [
            {
                "children": [
                    {
                        "children": [
                            {
                                "children": [],
                                "depth": 1,
                                "id": 1,
                                "order": 1
                            }
                        ],
                        "depth": 0,
                        "id": 0,
                        "order": 0
                    }
                ],
                "depth": -1,
                "id": -1,
                "order": -1
            }
        ],
        "tidyTraceNodeCount": 2
    },
    "state_change": {
        "stateChanges": [
            {
                "address": "0x5283d291dbcf85356a21ba090e6db59121208b44",
                "erc": "ERC-20",
                "slots": [
                    {
                        "current": "0x0000000000000000000000000000000000000000000000000000000000000000",
                        "key": "0x6010e01ff6904c8c1b63e4fe2e4651db87c9f94cb1b35c834bf914056f346199",
                        "prev": "0x000000000000000000000000000000000000000000000256ea7e5bec22650000"
                    },
                    {
                        "current": "0x000000000000000000000000000000000000000000000256ea7e5bec22650000",
                        "key": "0x5150d58264451542835d7ceb2c67e8ad0bade8b89aada5d0c78b90604433de99",
                        "prev": "0x0000000000000000000000000000000000000000000000000000000000000000"
                    }
                ],
                "storageVariables": [
                    {
                        "name": "_balances",
                        "type": "mapping(address => uint256)",
                        "value": {
                            "pairs": [
                                {
                                    "key": "0x422f8bac372dfbe3ce4261b988cfe88e46baf07e",
                                    "value": {
                                        "current": "0",
                                        "prev": "11048050000000000000000",
                                        "typeTag": 1
                                    }
                                },
                                {
                                    "key": "0x5c8a261c219a89e90b5e8f38694ad1bf8a2a15c7",
                                    "value": {
                                        "current": "11048050000000000000000",
                                        "prev": "0",
                                        "typeTag": 1
                                    }
                                }
                            ],
                            "typeTag": 4
                        }
                    }
                ]
            }
        ]
    }
}