{
    "balance_change": {
        "balanceChanges": []
    },
    "profile": {
        "basic_info": {
            "baseFee": "",
            "blockNumber": 5345152,
            "callData": "0xef34358800000000000000000000000000000000000000000000000107221bd891b3bffd0000000000000000000000000000000000000000000003688cddf798d3741cb8000000000000000000000000000000000000000000000000000000000002e630000000000000000000000000000000000000000000000000000000000000006e0000000000000000000000000000000000000000000000000a3e18a42521669b000000000000000000000000000000000000000000000000000000000000007b00000000000000000000000000000000000000000000000000038d7ea4c680000000000000000000000000000000000000000000000000000015d5c95ff4aaba0000000000000000000000000000000000000000000000000000000000000000000000000000000000000000e25bcec5d3801ce3a794079bf94adf1b8ccd802d00000000000000000000000037eed8592b2dcfd80b1cd643175e8441037425ae000000000000000000000000fa95b56caaed258c17972c246f76a221309f710b000000000000000000000000000000000000000000000000000000000000001b000000000000000000000000000000000000000000000000000000000000001b9fe90b92b6d44d98ba2dd210ef6af70949521f119bfba3f15f8e2a8e28b0958c7fedfe69d94d13f4dceb48453f95567b579787e75cf3328f633364e88088567474d7d5c45a918a57b135779a73f2326bf6a5ba3166ce9329f8fa8054728f0da865951398471ea69803f87e3e363fb97df1a9a2e92c94f906d87bc8fad165de2d",
            "debugEnable": true,
            "errorInfo": "",
            "eventCount": 0,
            "feeRecipient": "0x829bd824b016326a401d083b33d092293333a830",
            "formatValue": "0",
            "gasLimit": 260000,
            "gasPrice": "18",
            "gasUsed": 142900,
            "intTxnCount": 2,
            "internalRevert": false,
            "internalRevertMessage": "",
            "isContractCreation": false,
            "isFlashloan": false,
            "maxFee": "",
            "nonce": 801339,
            "overwritedBlockNumber": -1,
            "priorityFee": "",
            "receiver": "0x2a0c0dbecc7e4d658f48e01e3fa353f44050c208",
            "revertMessage": "",
            "sender": "0xceceaa8edc0830c7cec497e33bb3a3c28dd55a32",
            "simulationEnable": true,
            "sourceTxnHash": "0x3f1f657518248c340c54db46575031eae5a46e8830e5f910e50ead2ec581f618",
            "status": true,
            "timestamp": "2018-03-29T21:21:24Z",
            "transactionFee": "0.0025722",
            "txnHash": "0x3f1f657518248c340c54db46575031eae5a46e8830e5f910e50ead2ec581f618",
            "txnIndex": 58,
            "type": 0,
            "value": "0"
        },
        "fund_flow": [],
        "token_infos": [
            {
                "address": "0xc02aaa39b223fe8d0a0e5c4f27ead9083c756cc2",
                "decimals": 18
            },
            {
                "address": "0xeeeeeeeeeeeeeeeeeeeeeeeeeeeeeeeeeeeeeeee",
                "decimals": 18
            }
        ]
    },
    "address_label": {
        "labels": [
            {
                "address": "0x0000000000000000000000000000000000000004",
                "label": "Precompiled"
            },
            {
                "address": "0xeeeeeeeeeeeeeeeeeeeeeeeeeeeeeeeeeeeeeeee",
                "label": "Ether"
            },
            {
                "address": "0xe25bcec5d3801ce3a794079bf94adf1b8ccd802d",
                "label": "MATRIX AI Network: Old Token"
            },
            {
                "address": "0x0000000000000000000000000000000000000000",
                "label": "Null Address"
            },
            {
                "address": "0x2a0c0dbecc7e4d658f48e01e3fa353f44050c208",
                "label": "IDEX"
            },
            {
                "address": "0x0000000000000000000000000000000000000001",
                "label": "Precompiled"
            },
            {
                "address": "0x0000000000000000000000000000000000000002",
                "label": "Precompiled"
            },
            {
                "address": "0x0000000000000000000000000000000000000003",
                "label": "Precompiled"
            }
        ]
    },
    "trace": {
        "accountLabels": null,
        "dataMap": {
            "-1": {
                "invocation": {
                    "address": "0xceceaa8edc0830c7cec497e33bb3a3c28dd55a32",
                    "callData": "",
                    "decodedMethod": null,
                    "errorInfo": "",
                    "fromAddress": "",
                    "gasUsed": 0,
                    "id": -1,
                    "methodDecoded": false,
                    "operation": "",
                    "output": "",
                    "revert": false,
                    "revertMessage": "",
                    "selector": "",
                    "status": false,
                    "value": ""
                },
                "nodeType": 0
            },
            "0": {
                "invocation": {
                    "address": "0x2a0c0dbecc7e4d658f48e01e3fa353f44050c208",
                    "callData": "0x00000000000000000000000000000000000000000000000107221bd891b3bffd0000000000000000000000000000000000000000000003688cddf798d3741cb8000000000000000000000000000000000000000000000000000000000002e630000000000000000000000000000000000000000000000000000000000000006e0000000000000000000000000000000000000000000000000a3e18a42521669b000000000000000000000000000000000000000000000000000000000000007b00000000000000000000000000000000000000000000000000038d7ea4c680000000000000000000000000000000000000000000000000000015d5c95ff4aaba0000000000000000000000000000000000000000000000000000000000000000000000000000000000000000e25bcec5d3801ce3a794079bf94adf1b8ccd802d00000000000000000000000037eed8592b2dcfd80b1cd643175e8441037425ae000000000000000000000000fa95b56caaed258c17972c246f76a221309f710b000000000000000000000000000000000000000000000000000000000000001b000000000000000000000000000000000000000000000000000000000000001b9fe90b92b6d44d98ba2dd210ef6af70949521f119bfba3f15f8e2a8e28b0958c7fedfe69d94d13f4dceb48453f95567b579787e75cf3328f633364e88088567474d7d5c45a918a57b135779a73f2326bf6a5ba3166ce9329f8fa8054728f0da865951398471ea69803f87e3e363fb97df1a9a2e92c94f906d87bc8fad165de2d",
                    "decodedMethod": {
                        "callParams": [
                            {
                                "name": "tradeValues",
                                "type": "uint256[8]",
                                "value": [
                                    "18,960,747,998,154,571,773",
                                    "16,095,711,373,645,646,666,936",
                                    "190,000",
                                    "110",
                                    "738,054,482,211,989,147",
                                    "123",
                                    "1,000,000,000,000,000",
                                    "6,146,035,385,936,570"
                                ]
                            },
                            {
                                "name": "tradeAddresses",
                                "type": "address[4]",
                                "value": [
                                    "0x0000000000000000000000000000000000000000",
                                    "0xe25bcec5d3801ce3a794079bf94adf1b8ccd802d",
                                    "0x37eed8592b2dcfd80b1cd643175e8441037425ae",
                                    "0xfa95b56caaed258c17972c246f76a221309f710b"
                                ]
                            },
                            {
                                "name": "v",
                                "type": "uint8[2]",
                                "value": [
                                    "27",
                                    "27"
                                ]
                            },
                            {
                                "name": "rs",
                                "type": "bytes32[4]",
                                "value": [
                                    "0x9fe90b92b6d44d98ba2dd210ef6af70949521f119bfba3f15f8e2a8e28b0958c",
                                    "0x7fedfe69d94d13f4dceb48453f95567b579787e75cf3328f633364e880885674",
                                    "0x74d7d5c45a918a57b135779a73f2326bf6a5ba3166ce9329f8fa8054728f0da8",
                                    "0x65951398471ea69803f87e3e363fb97df1a9a2e92c94f906d87bc8fad165de2d"
                                ]
                            }
                        ],
                        "constructorArguments": "",
                        "name": "trade",
                        "returnParams": [
                            {
                                "name": "success",
                                "type": "bool",
                                "value": false
                            }
                        ],
                        "signature": "trade(uint256[8],address[4],uint8[2],bytes32[4])"
                    },
                    "errorInfo": "",
                    "fromAddress": "0xceceaa8edc0830c7cec497e33bb3a3c28dd55a32",
                    "gasUsed": 142900,
                    "id": 0,
                    "methodDecoded": true,
                    "operation": "CALL",
                    "output": "0x0000000000000000000000000000000000000000000000000000000000000000",
                    "revert": false,
                    "revertMessage": "",
                    "selector": "0xef343588",
                    "status": true,
                    "value": "0"
                },
                "nodeType": 0
            },
            "1": {
                "invocation": {
                    "address": "0x0000000000000000000000000000000000000001",
                    "callData": "0x68ca652e6d9e1c845d3d3dd41622ce7c020dde5299c133f3f140f76b000000000000000000000000000000000000000000000000000000000000001b9fe90b92b6d44d98ba2dd210ef6af70949521f119bfba3f15f8e2a8e28b0958c7fedfe69d94d13f4dceb48453f95567b579787e75cf3328f633364e880885674",
                    "decodedMethod": {
                        "callParams": [
                            {
                                "name": "hash",
                                "type": "bytes32",
                                "value": "0x436ff6e268ca652e6d9e1c845d3d3dd41622ce7c020dde5299c133f3f140f76b"
                            },
                            {
                                "name": "v",
                                "type": "uint256",
                                "value": "27"
                            },
                            {
                                "name": "r",
                                "type": "bytes32",
                                "value": "0x9fe90b92b6d44d98ba2dd210ef6af70949521f119bfba3f15f8e2a8e28b0958c"
                            },
                            {
                                "name": "s",
                                "type": "bytes32",
                                "value": "0x7fedfe69d94d13f4dceb48453f95567b579787e75cf3328f633364e880885674"
                            }
                        ],
                        "constructorArguments": "",
                        "name": "ecrecover",
                        "returnParams": [
                            {
                                "name": "",
                                "type": "address",
                                "value": "0x37eed8592b2dcfd80b1cd643175e8441037425ae"
                            }
                        ],
                        "signature": "ecrecover(bytes32,uint256,bytes32,bytes32)"
                    },
                    "errorInfo": "",
                    "fromAddress": "0x2a0c0dbecc7e4d658f48e01e3fa353f44050c208",
                    "gasUsed": 3000,
                    "id": 1,
                    "methodDecoded": true,
                    "operation": "CALL",
                    "output": "0x00000000000000000000000037eed8592b2dcfd80b1cd643175e8441037425ae",
                    "revert": false,
                    "revertMessage": "",
                    "selector": "0x436ff6e2",
                    "status": true,
                    "value": "0"
                },
                "nodeType": 0
            },
            "2": {
                "invocation": {
                    "address": "0x0000000000000000000000000000000000000001",
                    "callData": "0xc428ab2065f3ae3620db4be55bc33348fcde8284cb59eff64afcbac8000000000000000000000000000000000000000000000000000000000000001b74d7d5c45a918a57b135779a73f2326bf6a5ba3166ce9329f8fa8054728f0da865951398471ea69803f87e3e363fb97df1a9a2e92c94f906d87bc8fad165de2d",
                    "decodedMethod": {
                        "callParams": [
                            {
                                "name": "hash",
                                "type": "bytes32",
                                "value": "0x4d95da74c428ab2065f3ae3620db4be55bc33348fcde8284cb59eff64afcbac8"
                            },
                            {
                                "name": "v",
                                "type": "uint256",
                                "value": "27"
                            },
                            {
                                "name": "r",
                                "type": "bytes32",
                                "value": "0x74d7d5c45a918a57b135779a73f2326bf6a5ba3166ce9329f8fa8054728f0da8"
                            },
                            {
                                "name": "s",
                                "type": "bytes32",
                                "value": "0x65951398471ea69803f87e3e363fb97df1a9a2e92c94f906d87bc8fad165de2d"
                            }
                        ],
                        "constructorArguments": "",
                        "name": "ecrecover",
                        "returnParams": [
                            {
                                "name": "",
                                "type": "address",
                                "value": "0xfa95b56caaed258c17972c246f76a221309f710b"
                            }
                        ],
                        "signature": "ecrecover(bytes32,uint256,bytes32,bytes32)"
                    },
                    "errorInfo": "",
                    "fromAddress": "0x2a0c0dbecc7e4d658f48e01e3fa353f44050c208",
                    "gasUsed": 3000,
                    "id": 2,
                    "methodDecoded": true,
                    "operation": "CALL",
                    "output": "0x000000000000000000000000fa95b56caaed258c17972c246f76a221309f710b",
                    "revert": false,
                    "revertMessage": "",
                    "selector": "0x4d95da74",
                    "status": true,
                    "value": "0"
                },
                "nodeType": 0
            }
        },
        "gasFlame": [
            {
                "children": [
                    {
                        "children": [
                            {
                                "children": [],
                                "depth": 0,
                                "name": "Initial Gas",
                                "value": 38616
                            },
                            {
                                "children": [
                                    {
                                        "children": [],
                                        "depth": 1,
                                        "name": "ecrecover",
                                        "value": 3000
                                    },
                                    {
                                        "children": [],
                                        "depth": 1,
                                        "name": "ecrecover",
                                        "value": 3000
                                    }
                                ],
                                "depth": 0,
                                "name": "Executed Gas",
                                "value": 104284
                            }
                        ],
                        "depth": -1,
                        "name": "Actual Gas Used",
                        "value": 142900
                    },
                    {
                        "children": [],
                        "depth": -1,
                        "name": "Refunded Gas",
                        "value": 0
                    }
                ],
                "depth": -2,
                "name": "Total Gas",
                "value": 142900
            }
        ],
        "isConfirmed": true,
        "mainTrace": [
            {
                "children": [
                    {
                        "children": [
                            {
                                "children": [],
                                "depth": 1,
                                "id": 1,
                                "order": 1
                            },
                            {
                                "children": [],
                                "depth": 1,
                                "id": 2,
                                "order": 2
                            }
                        ],
                        "depth": 0,
                        "id": 0,
                        "order": 0
                    }
                ],
                "depth": -1,
                "id": -1,
                "order": -1
            }
        ],
        "mainTraceNodeCount": 3,
        "parentIdMap": {
            "0": -1,
            "1": 0,
            "2": 0
        },
        "tidyTrace": [
            {
                "children": [
                    {
                        "children": [
                            {
                                "children": [],
                                "depth": 1,
                                "id": 1,
                                "order": 1
                            },
                            {
                                "children": [],
                                "depth": 1,
                                "id": 2,
                                "order": 2
                            }
                        ],
                        "depth": 0,
                        "id": 0,
                        "order": 0
                    }
                ],
                "depth": -1,
                "id": -1,
                "order": -1
            }
        ],
        "tidyTraceNodeCount": 3
    },
    "state_change": {
        "stateChanges": [
            {
                "address": "0x2a0c0dbecc7e4d658f48e01e3fa353f44050c208",
                "erc": "",
                "slots": [
                    {
                        "current": "0x0000000000000000000000000000000000000000000000000000000000518f80",
                        "key": "0x7207fb64f7638ae9b8e4c13b6de53f37ee15611b2360c79d34f0710c29da9315",
                        "prev": "0x0000000000000000000000000000000000000000000000000000000000518f7f"
                    },
                    {
                        "current": "0x0000000000000000000000000000000000000000000000226e6097a51cbf51b3",
                        "key": "0x3ccb72d91c5c66cba135a4135963ed23443b8a63817f501517468fcd5097e277",
                        "prev": "0x0000000000000000000000000000000000000000000000226e5df86369829d1e"
                    },
                    {
                        "current": "0x00000000000000000000000000000000000000000000000107221bd891b3bffc",
                        "key": "0x04dd3000ae9bdaf7fdc3409d4488dd5285aa2777bf61cf1e38818ac05e18bd45",
                        "prev": "0x000000000000000000000000000000000000000000000000fce403346c925961"
                    },
                    {
                        "current": "0x0000000000000000000000000000000000000000000000000000000000000355",
                        "key": "0xbd873b4e428a9e3d5ca4f9567ea1e95903825fb9d3f19e83a3a8c8d4b91628b9",
                        "prev": "0x000000000000000000000000000000000000000000000021f6e0296ebcd4171b"
                    },
                    {
                        "current": "0x000000000000000000000000000000000000000000000021c16fc64193c5ae83",
                        "key": "0x9408448c7edecca44e08ff2221c22250841a24f5110e6350f338f8c6b7f4629b",
                        "prev": "0x0000000000000000000000000000000000000000000000000000000000000000"
                    },
                    {
                        "current": "0x0000000000000000000000000000000000000000000000000000000000000001",
                        "key": "0x8369b6d037aa10d22e402cc5ad66f388b9faed095cfe3844646dce04c0f81203",
                        "prev": "0x0000000000000000000000000000000000000000000000000000000000000000"
                    },
                    {
                        "current": "0x00000000000000000000000000000000000000000000012c656996dffdc21fd4",
                        "key": "0x7b5a1564889376522b983daf4bbdc54e8096ebab6bf1e2eec4528dc7939dd8b4",
                        "prev": "0x00000000000000000000000000000000000000000000012c2ff933b2d4b3ba91"
                    },
                    {
                        "current": "0x0000000000000000000000000000000000000000000000000000000000518f80",
                        "key": "0x88fceb5ba25f0de079570c89c34bb602b912d70d3589dba6913706bfbc3d517c",
                        "prev": "0x0000000000000000000000000000000000000000000000000000000000518f77"
                    },
                    {
                        "current": "0x0000000000000000000000000000000000000000000000000874bb929e15764f",
                        "key": "0xaa9721e6ade86416a915113a428e82d001d53425532aaed246ab06da1cfde2ee",
                        "prev": "0x00000000000000000000000000000000000000000000000012b2d436c336dcea"
                    },
                    {
                        "current": "0x0000000000000000000000000000000000000000000000011c5b0da1124bab3f",
                        "key": "0x48adbcebb2d9781744eaff407bfc4458bdb81a5689b89ac0e70709e81569aff4",
                        "prev": "0x000000000000000000000000000000000000000000000001121f943ea066f93a"
                    }
                ],
                "storageVariables": [
                    {
                        "name": "lastActiveTransaction",
                        "type": "mapping(address => uint256)",
                        "value": {
                            "pairs": [
                                {
                                    "key": "0x37eed8592b2dcfd80b1cd643175e8441037425ae",
                                    "value": {
                                        "current": "5345152",
                                        "prev": "5345151",
                                        "typeTag": 1
                                    }
                                },
                                {
                                    "key": "0xfa95b56caaed258c17972c246f76a221309f710b",
                                    "value": {
                                        "current": "5345152",
                                        "prev": "5345143",
                                        "typeTag": 1
                                    }
                                }
                            ],
                            "typeTag": 4
                        }
                    },
                    {
                        "name": "tokens",
                        "type": "mapping(address => mapping(address => uint256))",
                        "value": {
                            "pairs": [
                                {
                                    "key": "0x0000000000000000000000000000000000000000",
                                    "value": {
                                        "pairs": [
                                            {
                                                "key": "0x034767f3c519f361c5ecf46ebfc08981c629d381",
                                                "value": {
                                                    "current": "635142822183468749235",
                                                    "prev": "635142084128986537246",
                                                    "typeTag": 1
                                                }
                                            },
                                            {
                                                "key": "0x37eed8592b2dcfd80b1cd643175e8441037425ae",
                                                "value": {
                                                    "current": "20489985915100048191",
                                                    "prev": "19752669487370271034",
                                                    "typeTag": 1
                                                }
                                            },
                                            {
                                                "key": "0xfa95b56caaed258c17972c246f76a221309f710b",
                                                "value": {
                                                    "current": "609318087993685583",
                                                    "prev": "1347372570205674730",
                                                    "typeTag": 1
                                                }
                                            }
                                        ],
                                        "typeTag": 4
                                    }
                                },
                                {
                                    "key": "0xe25bcec5d3801ce3a794079bf94adf1b8ccd802d",
                                    "value": {
                                        "pairs": [
                                            {
                                                "key": "0x034767f3c519f361c5ecf46ebfc08981c629d381",
                                                "value": {
                                                    "current": "5541330759872030056404",
                                                    "prev": "5537480073145014794897",
                                                    "typeTag": 1
                                                }
                                            },
                                            {
                                                "key": "0x37eed8592b2dcfd80b1cd643175e8441037425ae",
                                                "value": {
                                                    "current": "853",
                                                    "prev": "626531818516119820059",
                                                    "typeTag": 1
                                                }
                                            },
                                            {
                                                "key": "0xfa95b56caaed258c17972c246f76a221309f710b",
                                                "value": {
                                                    "current": "622681131789104557699",
                                                    "prev": "0",
                                                    "typeTag": 1
                                                }
                                            }
                                        ],
                                        "typeTag": 4
                                    }
                                }
                            ],
                            "typeTag": 4
                        }
                    },
                    {
                        "name": "orderFills",
                        "type": "mapping(bytes32 => uint256)",
                        "value": {
                            "pairs": [
                                {
                                    "key": "0xe22992b46ef592c5e4535d1156ec78ab004fcfe857459e420313749d46b70c2f",
                                    "value": {
                                        "current": "18960747998154571772",
                                        "prev": "18222693515942582625",
                                        "typeTag": 1
                                    }
                                }
                            ],
                            "typeTag": 4
                        }
                    },
                    {
                        "name": "traded",
                        "type": "mapping(bytes32 => bool)",
                        "value": {
                            "pairs": [
                                {
                                    "key": "0x8b538ffe6da4041b11801847f217b5f04c2dbb560374fbf1d21bea34bec51943",
                                    "value": {
                                        "current": "true",
                                        "prev": "false",
                                        "typeTag": 1
                                    }
                                }
                            ],
                            "typeTag": 4
                        }
                    }
                ]
            }
        ]
    }
}