{
    "balance_change": {
        "balanceChanges": [
            {
                "account": "0xd558317d56e5b5a9f654437939fe5f26b6d67cd5",
                "assets": [
                    {
                        "address": "0xe41d2489571d322189246dafa5ebde1f4699f498",
                        "amount": "140",
                        "iconUrl": "https://assets.blocksec.com/icon/6c4cfed2c799afeb85b9e6ad087e66bdd588f8169e94dcf9e90f3048ceb6c6f3.png",
                        "isERC1155": false,
                        "isERC721": false,
                        "sign": false,
                        "value": ""
                    }
                ]
            },
            {
                "account": "0x8d12a197cb00d4747a1fe03395095ce2a5cc6819",
                "assets": [
                    {
                        "address": "0xe41d2489571d322189246dafa5ebde1f4699f498",
                        "amount": "140",
                        "iconUrl": "https://assets.blocksec.com/icon/6c4cfed2c799afeb85b9e6ad087e66bdd588f8169e94dcf9e90f3048ceb6c6f3.png",
                        "isERC1155": false,
                        "isERC721": false,
                        "sign": true,
                        "value": ""
                    }
                ]
            }
        ]
    },
    "profile": {
        "basic_info": {
            "baseFee": "",
            "blockNumber": 5011976,
            "callData": "0x338b5dea000000000000000000000000e41d2489571d322189246dafa5ebde1f4699f49800000000000000000000000000000000000000000000000796e3ea3f8ab00000",
            "debugEnable": true,
            "errorInfo": "",
            "eventCount": 2,
            "feeRecipient": "0x829bd824b016326a401d083b33d092293333a830",
            "formatValue": "0",
            "gasLimit": 250000,
            "gasPrice": "24",
            "gasUsed": 26427,
            "intTxnCount": 1,
            "internalRevert": false,
            "internalRevertMessage": "",
            "isContractCreation": false,
            "isFlashloan": false,
            "maxFee": "",
            "nonce": 489,
            "overwritedBlockNumber": -1,
            "priorityFee": "",
            "receiver": "0x8d12a197cb00d4747a1fe03395095ce2a5cc6819",
            "revertMessage": "",
            "sender": "0xd558317d56e5b5a9f654437939fe5f26b6d67cd5",
            "simulationEnable": true,
            "sourceTxnHash": "0x40c5799939fac7a657ace4c0ee1d439fb2c179107ffc1ee0700cba3317946bd3",
            "status": true,
            "timestamp": "2018-02-01T14:33:27Z",
            "transactionFee": "0.000634248",
            "txnHash": "0x40c5799939fac7a657ace4c0ee1d439fb2c179107ffc1ee0700cba3317946bd3",
            "txnIndex": 117,
            "type": 0,
            "value": "0"
        },
        "fund_flow": [
            {
                "amount": "140",
                "from": "0xd558317d56e5b5a9f654437939fe5f26b6d67cd5",
                "id": 1,
                "isERC1155": false,
                "isERC721": false,
                "isReverted": false,
                "order": 1,
                "to": "0x8d12a197cb00d4747a1fe03395095ce2a5cc6819",
                "token": "0xe41d2489571d322189246dafa5ebde1f4699f498"
            }
        ],
        "token_infos": [
            {
                "address": "0xc02aaa39b223fe8d0a0e5c4f27ead9083c756cc2",
                "decimals": 18
            },
            {
                "address": "0xe41d2489571d322189246dafa5ebde1f4699f498",
                "decimals": 18
            },
            {
                "address": "0xeeeeeeeeeeeeeeeeeeeeeeeeeeeeeeeeeeeeeeee",
                "decimals": 18
            }
        ]
    },
    "address_label": {
        "labels": [
            {
                "address": "0x0000000000000000000000000000000000000004",
                "label": "Precompiled"
            },
            {
                "address": "0xeeeeeeeeeeeeeeeeeeeeeeeeeeeeeeeeeeeeeeee",
                "label": "Ether"
            },
            {
                "address": "0x8d12a197cb00d4747a1fe03395095ce2a5cc6819",
                "label": "EtherDelta"
            },
            {
                "address": "0xe41d2489571d322189246dafa5ebde1f4699f498",
                "label": "0x: ZRX Token"
            },
            {
                "address": "0x0000000000000000000000000000000000000001",
                "label": "Precompiled"
            },
            {
                "address": "0x0000000000000000000000000000000000000002",
                "label": "Precompiled"
            },
            {
                "address": "0x0000000000000000000000000000000000000003",
                "label": "Precompiled"
            }
        ]
    },
    "trace": {
        "accountLabels": null,
        "dataMap": {
            "-1": {
                "invocation": {
                    "address": "0xd558317d56e5b5a9f654437939fe5f26b6d67cd5",
                    "callData": "",
                    "decodedMethod": null,
                    "errorInfo": "",
                    "fromAddress": "",
                    "gasUsed": 0,
                    "id": -1,
                    "methodDecoded": false,
                    "operation": "",
                    "output": "",
                    "revert": false,
                    "revertMessage": "",
                    "selector": "",
                    "status": false,
                    "value": ""
                },
                "nodeType": 0
            },
            "0": {
                "invocation": {
                    "address": "0x8d12a197cb00d4747a1fe03395095ce2a5cc6819",
                    "callData": "0x000000000000000000000000e41d2489571d322189246dafa5ebde1f4699f49800000000000000000000000000000000000000000000000796e3ea3f8ab00000",
                    "decodedMethod": {
                        "callParams": [
                            {
                                "name": "token",
                                "type": "address",
                                "value": "0xe41d2489571d322189246dafa5ebde1f4699f498"
                            },
                            {
                                "name": "amount",
                                "type": "uint256",
                                "value": "140,000,000,000,000,000,000"
                            }
                        ],
                        "constructorArguments": "",
                        "name": "depositToken",
                        "returnParams": [],
                        "signature": "depositToken(address,uint256)"
                    },
                    "errorInfo": "",
                    "fromAddress": "0xd558317d56e5b5a9f654437939fe5f26b6d67cd5",
                    "gasUsed": 26427,
                    "id": 0,
                    "methodDecoded": true,
                    "operation": "CALL",
                    "output": "",
                    "revert": false,
                    "revertMessage": "",
                    "selector": "0x338b5dea",
                    "status": true,
                    "value": "0"
                },
                "nodeType": 0
            },
            "1": {
                "invocation": {
                    "address": "0xe41d2489571d322189246dafa5ebde1f4699f498",
                    "callData": "0x000000000000000000000000d558317d56e5b5a9f654437939fe5f26b6d67cd50000000000000000000000008d12a197cb00d4747a1fe03395095ce2a5cc681900000000000000000000000000000000000000000000000796e3ea3f8ab00000",
                    "decodedMethod": {
                        "callParams": [
                            {
                                "name": "_from",
                                "type": "address",
                                "value": "0xd558317d56e5b5a9f654437939fe5f26b6d67cd5"
                            },
                            {
                                "name": "_to",
                                "type": "address",
                                "value": "0x8d12a197cb00d4747a1fe03395095ce2a5cc6819"
                            },
                            {
                                "decimalAvailable": true,
                                "name": "_value",
                                "type": "uint256",
                                "value": "140,000,000,000,000,000,000"
                            }
                        ],
                        "constructorArguments": "",
                        "name": "transferFrom",
                        "returnParams": [
                            {
                                "name": "",
                                "type": "bool",
                                "value": true
                            }
                        ],
                        "signature": "transferFrom(address,address,uint256)"
                    },
                    "errorInfo": "",
                    "fromAddress": "0x8d12a197cb00d4747a1fe03395095ce2a5cc6819",
                    "gasUsed": 19661,
                    "id": 1,
                    "methodDecoded": true,
                    "operation": "CALL",
                    "output": "0x0000000000000000000000000000000000000000000000000000000000000001",
                    "revert": false,
                    "revertMessage": "",
                    "selector": "0x23b872dd",
                    "status": true,
                    "value": "0"
                },
                "nodeType": 0
            },
            "2": {
                "event": {
                    "contract": "0xe41d2489571d322189246dafa5ebde1f4699f498",
                    "decodedLog": {
                        "name": "Transfer",
                        "params": [
                            {
                                "name": "_from",
                                "type": "address",
                                "value": "0xd558317d56e5b5a9f654437939fe5f26b6d67cd5"
                            },
                            {
                                "name": "_to",
                                "type": "address",
                                "value": "0x8d12a197cb00d4747a1fe03395095ce2a5cc6819"
                            },
                            {
                                "decimalAvailable": true,
                                "name": "_value",
                                "type": "uint256",
                                "value": "140,000,000,000,000,000,000"
                            }
                        ],
                        "signature": "Transfer(address,address,uint256)"
                    },
                    "id": 2,
                    "logData": "0x00000000000000000000000000000000000000000000000796e3ea3f8ab00000",
                    "logDecoded": true,
                    "operation": "EVENT",
                    "revert": false,
                    "status": true,
                    "topics": [
                        "0xddf252ad1be2c89b69c2b068fc378daa952ba7f163c4a11628f55a4df523b3ef",
                        "0x000000000000000000000000d558317d56e5b5a9f654437939fe5f26b6d67cd5",
                        "0x0000000000000000000000008d12a197cb00d4747a1fe03395095ce2a5cc6819"
                    ]
                },
                "nodeType": 1
            },
            "3": {
                "event": {
                    "contract": "0x8d12a197cb00d4747a1fe03395095ce2a5cc6819",
                    "decodedLog": {
                        "name": "Deposit",
                        "params": [
                            {
                                "name": "token",
                                "type": "address",
                                "value": "0xe41d2489571d322189246dafa5ebde1f4699f498"
                            },
                            {
                                "name": "user",
                                "type": "address",
                                "value": "0xd558317d56e5b5a9f654437939fe5f26b6d67cd5"
                            },
                            {
                                "name": "amount",
                                "type": "uint256",
                                "value": "140,000,000,000,000,000,000"
                            },
                            {
                                "name": "balance",
                                "type": "uint256",
                                "value": "140,002,071,276,619,987,759"
                            }
                        ],
                        "signature": "Deposit(address,address,uint256,uint256)"
                    },
                    "id": 3,
                    "logData": "0x000000000000000000000000e41d2489571d322189246dafa5ebde1f4699f498000000000000000000000000d558317d56e5b5a9f654437939fe5f26b6d67cd500000000000000000000000000000000000000000000000796e3ea3f8ab0000000000000000000000000000000000000000000000000000796eb461035da7b2f",
                    "logDecoded": true,
                    "operation": "EVENT",
                    "revert": false,
                    "status": true,
                    "topics": [
                        "0xdcbc1c05240f31ff3ad067ef1ee35ce4997762752e3a095284754544f4c709d7"
                    ]
                },
                "nodeType": 1
            }
        },
        "gasFlame": [
            {
                "children": [
                    {
                        "children": [
                            {
                                "children": [],
                                "depth": 0,
                                "name": "Initial Gas",
                                "value": 23256
                            },
                            {
                                "children": [
                                    {
                                        "children": [],
                                        "depth": 1,
                                        "name": "transferFrom",
                                        "value": 19661
                                    }
                                ],
                                "depth": 0,
                                "name": "Executed Gas",
                                "value": 29597
                            }
                        ],
                        "depth": -1,
                        "name": "Actual Gas Used",
                        "value": 26427
                    },
                    {
                        "children": [],
                        "depth": -1,
                        "name": "Refunded Gas",
                        "value": 26426
                    }
                ],
                "depth": -2,
                "name": "Total Gas",
                "value": 52853
            }
        ],
        "isConfirmed": true,
        "mainTrace": [
            {
                "children": [
                    {
                        "children": [
                            {
                                "children": [
                                    {
                                        "children": [],
                                        "depth": 2,
                                        "id": 2,
                                        "order": 2
                                    }
                                ],
                                "depth": 1,
                                "id": 1,
                                "order": 1
                            },
                            {
                                "children": [],
                                "depth": 1,
                                "id": 3,
                                "order": 3
                            }
                        ],
                        "depth": 0,
                        "id": 0,
                        "order": 0
                    }
                ],
                "depth": -1,
                "id": -1,
                "order": -1
            }
        ],
        "mainTraceNodeCount": 4,
        "parentIdMap": {
            "0": -1,
            "1": 0,
            "2": 1,
            "3": 0
        },
        "tidyTrace": [
            {
                "children": [
                    {
                        "children": [
                            {
                                "children": [
                                    {
                                        "children": [],
                                        "depth": 2,
                                        "id": 2,
                                        "order": 2
                                    }
                                ],
                                "depth": 1,
                                "id": 1,
                                "order": 1
                            },
                            {
                                "children": [],
                                "depth": 1,
                                "id": 3,
                                "order": 3
                            }
                        ],
                        "depth": 0,
                        "id": 0,
                        "order": 0
                    }
                ],
                "depth": -1,
                "id": -1,
                "order": -1
            }
        ],
        "tidyTraceNodeCount": 4
    },
    "state_change": {
        "stateChanges": [
            {
                "address": "0x8d12a197cb00d4747a1fe03395095ce2a5cc6819",
                "erc": "",
                "slots": [
                    {
                        "current": "0x00000000000000000000000000000000000000000000000796eb461035da7b2f",
                        "key": "0xc517c30acee77fdda7081be9abe788d91e4c97c982cb03c2853cce5d441e2183",
                        "prev": "0x00000000000000000000000000000000000000000000000000075bd0ab2a7b2f"
                    }
                ],
                "storageVariables": []
            },
            {
                "address": "0xe41d2489571d322189246dafa5ebde1f4699f498",
                "erc": "ERC-20",
                "slots": [
                    {
                        "current": "0x0000000000000000000000000000000000000000000000000000000000000000",
                        "key": "0x7c17a3cf3ecdefc30974c46d94661e04d82e4c2efe0e3ddcf8597cae0a68bbfc",
                        "prev": "0x00000000000000000000000000000000000000000000000796e3ea3f8ab00000"
                    },
                    {
                        "current": "0x000000000000000000000000000000000000000000018fbeb366ca3706cf007d",
                        "key": "0x21631cd298e8c1fb40a26b7dc80a9a69e96d96c34008baab897b11d7e5c705f5",
                        "prev": "0x000000000000000000000000000000000000000000018fb71c82dff77c1f007d"
                    },
                    {
                        "current": "0x0000000000000000000000000000000000000000000000000000000000000000",
                        "key": "0xd72f301a92f6779f366203451110aeeb990d9f883ee6c168d0bf893bbbe45a5d",
                        "prev": "0x00000000000000000000000000000000000000000000000796e3ea3f8ab00000"
                    }
                ],
                "storageVariables": []
            }
        ]
    }
}