{
    "balance_change": {
        "balanceChanges": [
            {
                "account": "0x623c7fc01111b9d90571af22de66c9891ee7c569",
                "assets": [
                    {
                        "address": "0x18017350089c7219f5b9a9b704c459c1a2814063",
                        "amount": "3,000",
                        "iconUrl": "",
                        "isERC1155": false,
                        "isERC721": false,
                        "sign": false,
                        "value": ""
                    }
                ]
            },
            {
                "account": "0x8f44bac232a849de590888200d43d85fce59cc67",
                "assets": [
                    {
                        "address": "0x18017350089c7219f5b9a9b704c459c1a2814063",
                        "amount": "3,000",
                        "iconUrl": "",
                        "isERC1155": false,
                        "isERC721": false,
                        "sign": true,
                        "value": ""
                    }
                ]
            }
        ]
    },
    "profile": {
        "basic_info": {
            "baseFee": "",
            "blockNumber": 6928165,
            "callData": "0xa9059cbb0000000000000000000000008f44bac232a849de590888200d43d85fce59cc6700000000000000000000000000000000000000000000000000000000000493e0",
            "debugEnable": true,
            "errorInfo": "",
            "eventCount": 1,
            "feeRecipient": "0x52bc44d5378309ee2abf1539bf71de1b7d7be3b5",
            "formatValue": "0",
            "gasLimit": 100000,
            "gasPrice": "20",
            "gasUsed": 36392,
            "intTxnCount": 0,
            "internalRevert": false,
            "internalRevertMessage": "",
            "isContractCreation": false,
            "isFlashloan": false,
            "maxFee": "",
            "nonce": 156,
            "overwritedBlockNumber": -1,
            "priorityFee": "",
            "receiver": "0x18017350089c7219f5b9a9b704c459c1a2814063",
            "revertMessage": "",
            "sender": "0x623c7fc01111b9d90571af22de66c9891ee7c569",
            "simulationEnable": true,
            "sourceTxnHash": "0x40f3570c4c36524914c06a9cc4feef6bf75e8bd62aee204b5c39b4e91991379a",
            "status": true,
            "timestamp": "2018-12-21T18:53:55Z",
            "transactionFee": "0.00072784",
            "txnHash": "0x40f3570c4c36524914c06a9cc4feef6bf75e8bd62aee204b5c39b4e91991379a",
            "txnIndex": 26,
            "type": 0,
            "value": "0"
        },
        "fund_flow": [
            {
                "amount": "3,000",
                "from": "0x623c7fc01111b9d90571af22de66c9891ee7c569",
                "id": 1,
                "isERC1155": false,
                "isERC721": false,
                "isReverted": false,
                "order": 1,
                "to": "0x8f44bac232a849de590888200d43d85fce59cc67",
                "token": "0x18017350089c7219f5b9a9b704c459c1a2814063"
            }
        ],
        "token_infos": [
            {
                "address": "0x18017350089c7219f5b9a9b704c459c1a2814063",
                "decimals": 2
            },
            {
                "address": "0xc02aaa39b223fe8d0a0e5c4f27ead9083c756cc2",
                "decimals": 18
            },
            {
                "address": "0xeeeeeeeeeeeeeeeeeeeeeeeeeeeeeeeeeeeeeeee",
                "decimals": 18
            }
        ]
    },
    "address_label": {
        "labels": [
            {
                "address": "0x0000000000000000000000000000000000000002",
                "label": "Precompiled"
            },
            {
                "address": "0x0000000000000000000000000000000000000003",
                "label": "Precompiled"
            },
            {
                "address": "0x0000000000000000000000000000000000000004",
                "label": "Precompiled"
            },
            {
                "address": "0xeeeeeeeeeeeeeeeeeeeeeeeeeeeeeeeeeeeeeeee",
                "label": "Ether"
            },
            {
                "address": "0x18017350089c7219f5b9a9b704c459c1a2814063",
                "label": "XLP"
            },
            {
                "address": "0x0000000000000000000000000000000000000001",
                "label": "Precompiled"
            }
        ]
    },
    "trace": {
        "accountLabels": null,
        "dataMap": {
            "-1": {
                "invocation": {
                    "address": "0x623c7fc01111b9d90571af22de66c9891ee7c569",
                    "callData": "",
                    "decodedMethod": null,
                    "errorInfo": "",
                    "fromAddress": "",
                    "gasUsed": 0,
                    "id": -1,
                    "methodDecoded": false,
                    "operation": "",
                    "output": "",
                    "revert": false,
                    "revertMessage": "",
                    "selector": "",
                    "status": false,
                    "value": ""
                },
                "nodeType": 0
            },
            "0": {
                "invocation": {
                    "address": "0x18017350089c7219f5b9a9b704c459c1a2814063",
                    "callData": "0x0000000000000000000000008f44bac232a849de590888200d43d85fce59cc6700000000000000000000000000000000000000000000000000000000000493e0",
                    "decodedMethod": {
                        "callParams": [
                            {
                                "name": "_to",
                                "type": "address",
                                "value": "0x8f44bac232a849de590888200d43d85fce59cc67"
                            },
                            {
                                "decimalAvailable": true,
                                "name": "_value",
                                "type": "uint256",
                                "value": "300,000"
                            }
                        ],
                        "constructorArguments": "",
                        "name": "transfer",
                        "returnParams": [
                            {
                                "name": "success",
                                "type": "bool",
                                "value": true
                            }
                        ],
                        "signature": "transfer(address,uint256)"
                    },
                    "errorInfo": "",
                    "fromAddress": "0x623c7fc01111b9d90571af22de66c9891ee7c569",
                    "gasUsed": 36392,
                    "id": 0,
                    "methodDecoded": true,
                    "operation": "CALL",
                    "output": "0x0000000000000000000000000000000000000000000000000000000000000001",
                    "revert": false,
                    "revertMessage": "",
                    "selector": "0xa9059cbb",
                    "status": true,
                    "value": "0"
                },
                "nodeType": 0
            },
            "1": {
                "event": {
                    "contract": "0x18017350089c7219f5b9a9b704c459c1a2814063",
                    "decodedLog": {
                        "name": "Transfer",
                        "params": [
                            {
                                "name": "_from",
                                "type": "address",
                                "value": "0x623c7fc01111b9d90571af22de66c9891ee7c569"
                            },
                            {
                                "name": "_to",
                                "type": "address",
                                "value": "0x8f44bac232a849de590888200d43d85fce59cc67"
                            },
                            {
                                "decimalAvailable": true,
                                "name": "_value",
                                "type": "uint256",
                                "value": "300,000"
                            }
                        ],
                        "signature": "Transfer(address,address,uint256)"
                    },
                    "id": 1,
                    "logData": "0x00000000000000000000000000000000000000000000000000000000000493e0",
                    "logDecoded": true,
                    "operation": "EVENT",
                    "revert": false,
                    "status": true,
                    "topics": [
                        "0xddf252ad1be2c89b69c2b068fc378daa952ba7f163c4a11628f55a4df523b3ef",
                        "0x000000000000000000000000623c7fc01111b9d90571af22de66c9891ee7c569",
                        "0x0000000000000000000000008f44bac232a849de590888200d43d85fce59cc67"
                    ]
                },
                "nodeType": 1
            }
        },
        "gasFlame": [
            {
                "children": [
                    {
                        "children": [
                            {
                                "children": [],
                                "depth": 0,
                                "name": "Initial Gas",
                                "value": 23000
                            },
                            {
                                "children": [],
                                "depth": 0,
                                "name": "Executed Gas",
                                "value": 13392
                            }
                        ],
                        "depth": -1,
                        "name": "Actual Gas Used",
                        "value": 36392
                    },
                    {
                        "children": [],
                        "depth": -1,
                        "name": "Refunded Gas",
                        "value": 0
                    }
                ],
                "depth": -2,
                "name": "Total Gas",
                "value": 36392
            }
        ],
        "isConfirmed": true,
        "mainTrace": [
            {
                "children": [
                    {
                        "children": [
                            {
                                "children": [],
                                "depth": 1,
                                "id": 1,
                                "order": 1
                            }
                        ],
                        "depth": 0,
                        "id": 0,
                        "order": 0
                    }
                ],
                "depth": -1,
                "id": -1,
                "order": -1
            }
        ],
        "mainTraceNodeCount": 2,
        "parentIdMap": {
            "0": -1,
            "1": 0
        },
        "tidyTrace": [
            {
                "children": [
                    {
                        "children": [
                            {
                                "children": [],
                                "depth": 1,
                                "id": 1,
                                "order": 1
                            }
                        ],
                        "depth": 0,
                        "id": 0,
                        "order": 0
                    }
                ],
                "depth": -1,
                "id": -1,
                "order": -1
            }
        ],
        "tidyTraceNodeCount": 2
    },
    "state_change": {
        "stateChanges": [
            {
                "address": "0x18017350089c7219f5b9a9b704c459c1a2814063",
                "erc": "ERC-20",
                "slots": [
                    {
                        "current": "0x000000000000000000000000000000000000000000000000000000003a4fe6f8",
                        "key": "0xbe1ecdf897664fcc8590471108aaf500ec48480e5d08d0ce192d1a6f399c73cf",
                        "prev": "0x000000000000000000000000000000000000000000000000000000003a547ad8"
                    },
                    {
                        "current": "0x000000000000000000000000000000000000000000000000000000000004ce78",
                        "key": "0x45fd5d034ede8d72e3423b21fba0ce1110cbe3f1fc7042f056e4154ead315547",
                        "prev": "0x0000000000000000000000000000000000000000000000000000000000003a98"
                    }
                ],
                "storageVariables": [
                    {
                        "name": "balances",
                        "type": "mapping(address => uint256)",
                        "value": {
                            "pairs": [
                                {
                                    "key": "0x623c7fc01111b9d90571af22de66c9891ee7c569",
                                    "value": {
                                        "current": "978315000",
                                        "prev": "978615000",
                                        "typeTag": 1
                                    }
                                },
                                {
                                    "key": "0x8f44bac232a849de590888200d43d85fce59cc67",
                                    "value": {
                                        "current": "315000",
                                        "prev": "15000",
                                        "typeTag": 1
                                    }
                                }
                            ],
                            "typeTag": 4
                        }
                    }
                ]
            }
        ]
    }
}