{
    "balance_change": {
        "balanceChanges": [
            {
                "account": "0x316c41d2b5db951ff300dd16e20fbe066a71fa82",
                "assets": [
                    {
                        "address": "0xdceaf1652a131f32a821468dc03a92df0edd86ea",
                        "amount": "1",
                        "iconUrl": "",
                        "isERC1155": false,
                        "isERC721": true,
                        "sign": true,
                        "tokenID": "20400228",
                        "value": ""
                    }
                ]
            },
            {
                "account": "0xfc18d7d349fcba042683f2c90f24f1b65ea92692",
                "assets": [
                    {
                        "address": "0xdceaf1652a131f32a821468dc03a92df0edd86ea",
                        "amount": "1",
                        "iconUrl": "",
                        "isERC1155": false,
                        "isERC721": true,
                        "sign": false,
                        "tokenID": "20400228",
                        "value": ""
                    }
                ]
            }
        ]
    },
    "profile": {
        "basic_info": {
            "baseFee": "",
            "blockNumber": 9109041,
            "callData": "0x23b872dd000000000000000000000000fc18d7d349fcba042683f2c90f24f1b65ea92692000000000000000000000000316c41d2b5db951ff300dd16e20fbe066a71fa820000000000000000000000000000000000000000000000000000000001374864",
            "debugEnable": true,
            "errorInfo": "",
            "eventCount": 1,
            "feeRecipient": "0x5a0b54d5dc17e0aadc383d2db43b0a0d3e029c4c",
            "formatValue": "0",
            "gasLimit": 135969,
            "gasPrice": "4.2",
            "gasUsed": 105969,
            "intTxnCount": 0,
            "internalRevert": false,
            "internalRevertMessage": "",
            "isContractCreation": false,
            "isFlashloan": false,
            "maxFee": "",
            "nonce": 92,
            "overwritedBlockNumber": -1,
            "priorityFee": "",
            "receiver": "0xdceaf1652a131f32a821468dc03a92df0edd86ea",
            "revertMessage": "",
            "sender": "0xfc18d7d349fcba042683f2c90f24f1b65ea92692",
            "simulationEnable": true,
            "sourceTxnHash": "0x40544d2e38e010120f1067394381ef9813b43467c703c4784bf5040b5e8d869c",
            "status": true,
            "timestamp": "2019-12-15T05:56:35Z",
            "transactionFee": "0.0004450698",
            "txnHash": "0x40544d2e38e010120f1067394381ef9813b43467c703c4784bf5040b5e8d869c",
            "txnIndex": 45,
            "type": 0,
            "value": "0"
        },
        "fund_flow": [
            {
                "amount": "1",
                "from": "0xfc18d7d349fcba042683f2c90f24f1b65ea92692",
                "id": 1,
                "isERC1155": false,
                "isERC721": true,
                "isReverted": false,
                "order": 1,
                "to": "0x316c41d2b5db951ff300dd16e20fbe066a71fa82",
                "token": "0xdceaf1652a131f32a821468dc03a92df0edd86ea",
                "tokenID": "20400228"
            }
        ],
        "token_infos": [
            {
                "address": "0xc02aaa39b223fe8d0a0e5c4f27ead9083c756cc2",
                "decimals": 18
            },
            {
                "address": "0xeeeeeeeeeeeeeeeeeeeeeeeeeeeeeeeeeeeeeeee",
                "decimals": 18
            }
        ]
    },
    "address_label": {
        "labels": [
            {
                "address": "0xeeeeeeeeeeeeeeeeeeeeeeeeeeeeeeeeeeeeeeee",
                "label": "Ether"
            },
            {
                "address": "0xdceaf1652a131f32a821468dc03a92df0edd86ea",
                "label": "MCH: Extension"
            },
            {
                "address": "0x0000000000000000000000000000000000000001",
                "label": "Precompiled"
            },
            {
                "address": "0x0000000000000000000000000000000000000002",
                "label": "Precompiled"
            },
            {
                "address": "0x0000000000000000000000000000000000000003",
                "label": "Precompiled"
            },
            {
                "address": "0x0000000000000000000000000000000000000004",
                "label": "Precompiled"
            }
        ]
    },
    "trace": {
        "accountLabels": null,
        "dataMap": {
            "-1": {
                "invocation": {
                    "address": "0xfc18d7d349fcba042683f2c90f24f1b65ea92692",
                    "callData": "",
                    "decodedMethod": null,
                    "errorInfo": "",
                    "fromAddress": "",
                    "gasUsed": 0,
                    "id": -1,
                    "methodDecoded": false,
                    "operation": "",
                    "output": "",
                    "revert": false,
                    "revertMessage": "",
                    "selector": "",
                    "status": false,
                    "value": ""
                },
                "nodeType": 0
            },
            "0": {
                "invocation": {
                    "address": "0xdceaf1652a131f32a821468dc03a92df0edd86ea",
                    "callData": "0x000000000000000000000000fc18d7d349fcba042683f2c90f24f1b65ea92692000000000000000000000000316c41d2b5db951ff300dd16e20fbe066a71fa820000000000000000000000000000000000000000000000000000000001374864",
                    "decodedMethod": {
                        "callParams": [
                            {
                                "name": "from",
                                "type": "address",
                                "value": "0xfc18d7d349fcba042683f2c90f24f1b65ea92692"
                            },
                            {
                                "name": "to",
                                "type": "address",
                                "value": "0x316c41d2b5db951ff300dd16e20fbe066a71fa82"
                            },
                            {
                                "decimalAvailable": true,
                                "name": "tokenId",
                                "type": "uint256",
                                "value": "20,400,228"
                            }
                        ],
                        "constructorArguments": "",
                        "name": "transferFrom",
                        "returnParams": [],
                        "signature": "transferFrom(address,address,uint256)"
                    },
                    "errorInfo": "",
                    "fromAddress": "0xfc18d7d349fcba042683f2c90f24f1b65ea92692",
                    "gasUsed": 105969,
                    "id": 0,
                    "methodDecoded": true,
                    "operation": "CALL",
                    "output": "",
                    "revert": false,
                    "revertMessage": "",
                    "selector": "0x23b872dd",
                    "status": true,
                    "value": "0"
                },
                "nodeType": 0
            },
            "1": {
                "event": {
                    "contract": "0xdceaf1652a131f32a821468dc03a92df0edd86ea",
                    "decodedLog": {
                        "name": "Transfer",
                        "params": [
                            {
                                "name": "from",
                                "type": "address",
                                "value": "0xfc18d7d349fcba042683f2c90f24f1b65ea92692"
                            },
                            {
                                "name": "to",
                                "type": "address",
                                "value": "0x316c41d2b5db951ff300dd16e20fbe066a71fa82"
                            },
                            {
                                "decimalAvailable": true,
                                "name": "tokenId",
                                "type": "uint256",
                                "value": "20,400,228"
                            }
                        ],
                        "signature": "Transfer(address,address,uint256)"
                    },
                    "id": 1,
                    "logData": "0x",
                    "logDecoded": true,
                    "operation": "EVENT",
                    "revert": false,
                    "status": true,
                    "topics": [
                        "0xddf252ad1be2c89b69c2b068fc378daa952ba7f163c4a11628f55a4df523b3ef",
                        "0x000000000000000000000000fc18d7d349fcba042683f2c90f24f1b65ea92692",
                        "0x000000000000000000000000316c41d2b5db951ff300dd16e20fbe066a71fa82",
                        "0x0000000000000000000000000000000000000000000000000000000001374864"
                    ]
                },
                "nodeType": 1
            }
        },
        "gasFlame": [
            {
                "children": [
                    {
                        "children": [
                            {
                                "children": [],
                                "depth": 0,
                                "name": "Initial Gas",
                                "value": 21964
                            },
                            {
                                "children": [],
                                "depth": 0,
                                "name": "Executed Gas",
                                "value": 114005
                            }
                        ],
                        "depth": -1,
                        "name": "Actual Gas Used",
                        "value": 105969
                    },
                    {
                        "children": [],
                        "depth": -1,
                        "name": "Refunded Gas",
                        "value": 30000
                    }
                ],
                "depth": -2,
                "name": "Total Gas",
                "value": 135969
            }
        ],
        "isConfirmed": true,
        "mainTrace": [
            {
                "children": [
                    {
                        "children": [
                            {
                                "children": [],
                                "depth": 1,
                                "id": 1,
                                "order": 1
                            }
                        ],
                        "depth": 0,
                        "id": 0,
                        "order": 0
                    }
                ],
                "depth": -1,
                "id": -1,
                "order": -1
            }
        ],
        "mainTraceNodeCount": 2,
        "parentIdMap": {
            "0": -1,
            "1": 0
        },
        "tidyTrace": [
            {
                "children": [
                    {
                        "children": [
                            {
                                "children": [],
                                "depth": 1,
                                "id": 1,
                                "order": 1
                            }
                        ],
                        "depth": 0,
                        "id": 0,
                        "order": 0
                    }
                ],
                "depth": -1,
                "id": -1,
                "order": -1
            }
        ],
        "tidyTraceNodeCount": 2
    },
    "state_change": {
        "stateChanges": [
            {
                "address": "0xdceaf1652a131f32a821468dc03a92df0edd86ea",
                "erc": "ERC-721",
                "slots": [
                    {
                        "current": "0x0000000000000000000000000000000000000000000000000000000001374864",
                        "key": "0xab4393a80f071c15f2df5244047bb38a406a6a17f90dc28e27fd0c686dc807c1",
                        "prev": "0x0000000000000000000000000000000000000000000000000000000000000000"
                    },
                    {
                        "current": "0x0000000000000000000000000000000000000000000000000000000000000001",
                        "key": "0x60aa9f29fdd0040adfe310382c446d3eb8a62f1d1d8091307e0e31987f732e66",
                        "prev": "0x0000000000000000000000000000000000000000000000000000000000000000"
                    },
                    {
                        "current": "0x0000000000000000000000000000000000000000000000000000000000000001",
                        "key": "0x7a31cb86f6950abbfa5a10c51d6497d5037b3353e04ec92b9ea49567be655e0e",
                        "prev": "0x0000000000000000000000000000000000000000000000000000000000000000"
                    },
                    {
                        "current": "0x0000000000000000000000000000000000000000000000000000000000000000",
                        "key": "0x0a9d01b1a179390ff85075a3c418f0c5bc3b066f5b33669146652e208ea9f0cc",
                        "prev": "0x0000000000000000000000000000000000000000000000000000000000000002"
                    },
                    {
                        "current": "0x0000000000000000000000000000000000000000000000000000000000000002",
                        "key": "0x1b00ea4c608093161508c3245c73e9a7ed894700356f230806acad14685510d4",
                        "prev": "0x0000000000000000000000000000000000000000000000000000000000000003"
                    },
                    {
                        "current": "0x0000000000000000000000000000000000000000000000000000000000000002",
                        "key": "0x9d817714e11ce2bbad7a5db9f407655eb7f60814912d4ed25899e990385fe7a0",
                        "prev": "0x0000000000000000000000000000000000000000000000000000000000000003"
                    },
                    {
                        "current": "0x0000000000000000000000000000000000000000000000000000000000000000",
                        "key": "0x5869dfac2189f0c42fcca4023a6bdcbabb82ef3795412a871fca37babcc30cc1",
                        "prev": "0x00000000000000000000000000000000000000000000000000000000013748c6"
                    },
                    {
                        "current": "0x000000000000000000000000316c41d2b5db951ff300dd16e20fbe066a71fa82",
                        "key": "0xf620dca550361c937002611ea6de0a992cc8e324b7a28a59b4cddce115510baf",
                        "prev": "0x000000000000000000000000fc18d7d349fcba042683f2c90f24f1b65ea92692"
                    },
                    {
                        "current": "0x00000000000000000000000000000000000000000000000000000000013748c6",
                        "key": "0x5869dfac2189f0c42fcca4023a6bdcbabb82ef3795412a871fca37babcc30cbf",
                        "prev": "0x0000000000000000000000000000000000000000000000000000000001374864"
                    }
                ],
                "storageVariables": [
                    {
                        "name": "_ownedTokens",
                        "type": "mapping(address => uint256[])",
                        "value": {
                            "pairs": [
                                {
                                    "key": "0x316c41d2b5db951ff300dd16e20fbe066a71fa82",
                                    "value": {
                                        "elemType": "uint256",
                                        "elems": [
                                            {
                                                "index": 0,
                                                "value": {
                                                    "current": "20400228",
                                                    "prev": "0",
                                                    "typeTag": 1
                                                }
                                            }
                                        ],
                                        "typeTag": 2
                                    }
                                },
                                {
                                    "key": "0xfc18d7d349fcba042683f2c90f24f1b65ea92692",
                                    "value": {
                                        "elemType": "uint256",
                                        "elems": [
                                            {
                                                "index": 0,
                                                "value": {
                                                    "current": "20400326",
                                                    "prev": "20400228",
                                                    "typeTag": 1
                                                }
                                            }
                                        ],
                                        "typeTag": 2
                                    }
                                }
                            ],
                            "typeTag": 4
                        }
                    },
                    {
                        "name": "_ownedTokensCount",
                        "type": "mapping(address => uint256)",
                        "value": {
                            "pairs": [
                                {
                                    "key": "0x316c41d2b5db951ff300dd16e20fbe066a71fa82",
                                    "value": {
                                        "current": "1",
                                        "prev": "0",
                                        "typeTag": 1
                                    }
                                },
                                {
                                    "key": "0xfc18d7d349fcba042683f2c90f24f1b65ea92692",
                                    "value": {
                                        "current": "2",
                                        "prev": "3",
                                        "typeTag": 1
                                    }
                                }
                            ],
                            "typeTag": 4
                        }
                    },
                    {
                        "name": "_ownedTokensIndex",
                        "type": "mapping(uint256 => uint256)",
                        "value": {
                            "pairs": [
                                {
                                    "key": "20400326",
                                    "value": {
                                        "current": "0",
                                        "prev": "2",
                                        "typeTag": 1
                                    }
                                }
                            ],
                            "typeTag": 4
                        }
                    },
                    {
                        "name": "_tokenOwner",
                        "type": "mapping(uint256 => address)",
                        "value": {
                            "pairs": [
                                {
                                    "key": "20400228",
                                    "value": {
                                        "current": "0x316c41d2b5db951ff300dd16e20fbe066a71fa82",
                                        "prev": "0xfc18d7d349fcba042683f2c90f24f1b65ea92692",
                                        "typeTag": 1
                                    }
                                }
                            ],
                            "typeTag": 4
                        }
                    }
                ]
            }
        ]
    }
}