{
    "balance_change": {
        "balanceChanges": [
            {
                "account": "0x4ae26e87e97374f44fbf25eab31461256840520f",
                "assets": [
                    {
                        "address": "0x9fa69536d1cda4a04cfb50688294de75b505a9ae",
                        "amount": "19,988.654284",
                        "iconUrl": "https://assets.blocksec.com/icon/585e3e8bac5bf50ff53a1c5e0817b1ed1a24e20f1c59f49f512f4bdb383b63be.png",
                        "isERC1155": false,
                        "isERC721": false,
                        "sign": false,
                        "value": "80444.40744"
                    }
                ]
            },
            {
                "account": "0x02d90dd98bbd35167045a8418ab59a2364f25766",
                "assets": [
                    {
                        "address": "0x9fa69536d1cda4a04cfb50688294de75b505a9ae",
                        "amount": "19,988.654284",
                        "iconUrl": "https://assets.blocksec.com/icon/585e3e8bac5bf50ff53a1c5e0817b1ed1a24e20f1c59f49f512f4bdb383b63be.png",
                        "isERC1155": false,
                        "isERC721": false,
                        "sign": true,
                        "value": "80444.40744"
                    }
                ]
            }
        ]
    },
    "profile": {
        "basic_info": {
            "baseFee": "117.145747433",
            "blockNumber": 13553508,
            "callData": "0xa9059cbb00000000000000000000000002d90dd98bbd35167045a8418ab59a2364f2576600000000000000000000000000000000000000000000043b964d7ede6608c000",
            "debugEnable": true,
            "errorInfo": "",
            "eventCount": 1,
            "feeRecipient": "0xea674fdde714fd979de3edf0f56aa9716b898ec8",
            "formatValue": "0",
            "gasLimit": 210000,
            "gasPrice": "118.548607525",
            "gasUsed": 53738,
            "intTxnCount": 0,
            "internalRevert": false,
            "internalRevertMessage": "",
            "isContractCreation": false,
            "isFlashloan": false,
            "maxFee": "156.322541495",
            "nonce": 15127,
            "overwritedBlockNumber": -1,
            "priorityFee": "1.402860092",
            "receiver": "0x9fa69536d1cda4a04cfb50688294de75b505a9ae",
            "revertMessage": "",
            "sender": "0x4ae26e87e97374f44fbf25eab31461256840520f",
            "simulationEnable": true,
            "sourceTxnHash": "0x40750df36240b948ee4c0fc850afeae9d107df22d877f8e77fb1bf9bf874beab",
            "status": true,
            "timestamp": "2021-11-05T00:56:00Z",
            "transactionFee": "0.00637056507117845",
            "txnHash": "0x40750df36240b948ee4c0fc850afeae9d107df22d877f8e77fb1bf9bf874beab",
            "txnIndex": 22,
            "type": 2,
            "value": "0"
        },
        "fund_flow": [
            {
                "amount": "19,988.654284",
                "from": "0x4ae26e87e97374f44fbf25eab31461256840520f",
                "id": 1,
                "isERC1155": false,
                "isERC721": false,
                "isReverted": false,
                "order": 1,
                "to": "0x02d90dd98bbd35167045a8418ab59a2364f25766",
                "token": "0x9fa69536d1cda4a04cfb50688294de75b505a9ae"
            }
        ],
        "token_infos": [
            {
                "address": "0x9fa69536d1cda4a04cfb50688294de75b505a9ae",
                "decimals": 18
            },
            {
                "address": "0xc02aaa39b223fe8d0a0e5c4f27ead9083c756cc2",
                "decimals": 18
            },
            {
                "address": "0xeeeeeeeeeeeeeeeeeeeeeeeeeeeeeeeeeeeeeeee",
                "decimals": 18
            }
        ]
    },
    "address_label": {
        "labels": [
            {
                "address": "0x0000000000000000000000000000000000000003",
                "label": "Precompiled"
            },
            {
                "address": "0x0000000000000000000000000000000000000004",
                "label": "Precompiled"
            },
            {
                "address": "0xeeeeeeeeeeeeeeeeeeeeeeeeeeeeeeeeeeeeeeee",
                "label": "Ether"
            },
            {
                "address": "0x02d90dd98bbd35167045a8418ab59a2364f25766",
                "label": "GATE.IO"
            },
            {
                "address": "0x9fa69536d1cda4a04cfb50688294de75b505a9ae",
                "label": "DeRace: DERC Token"
            },
            {
                "address": "0x0000000000000000000000000000000000000001",
                "label": "Precompiled"
            },
            {
                "address": "0x0000000000000000000000000000000000000002",
                "label": "Precompiled"
            }
        ]
    },
    "trace": {
        "accountLabels": null,
        "dataMap": {
            "-1": {
                "invocation": {
                    "address": "0x4ae26e87e97374f44fbf25eab31461256840520f",
                    "callData": "",
                    "decodedMethod": null,
                    "errorInfo": "",
                    "fromAddress": "",
                    "gasUsed": 0,
                    "id": -1,
                    "methodDecoded": false,
                    "operation": "",
                    "output": "",
                    "revert": false,
                    "revertMessage": "",
                    "selector": "",
                    "status": false,
                    "value": ""
                },
                "nodeType": 0
            },
            "0": {
                "invocation": {
                    "address": "0x9fa69536d1cda4a04cfb50688294de75b505a9ae",
                    "callData": "0x00000000000000000000000002d90dd98bbd35167045a8418ab59a2364f2576600000000000000000000000000000000000000000000043b964d7ede6608c000",
                    "decodedMethod": {
                        "callParams": [
                            {
                                "name": "recipient",
                                "type": "address",
                                "value": "0x02d90dd98bbd35167045a8418ab59a2364f25766"
                            },
                            {
                                "decimalAvailable": true,
                                "name": "amount",
                                "type": "uint256",
                                "value": "19,988,654,284,000,000,000,000"
                            }
                        ],
                        "constructorArguments": "",
                        "name": "transfer",
                        "returnParams": [
                            {
                                "name": "",
                                "type": "bool",
                                "value": true
                            }
                        ],
                        "signature": "transfer(address,uint256)"
                    },
                    "errorInfo": "",
                    "fromAddress": "0x4ae26e87e97374f44fbf25eab31461256840520f",
                    "gasUsed": 53738,
                    "id": 0,
                    "methodDecoded": true,
                    "operation": "CALL",
                    "output": "0x0000000000000000000000000000000000000000000000000000000000000001",
                    "revert": false,
                    "revertMessage": "",
                    "selector": "0xa9059cbb",
                    "status": true,
                    "value": "0"
                },
                "nodeType": 0
            },
            "1": {
                "event": {
                    "contract": "0x9fa69536d1cda4a04cfb50688294de75b505a9ae",
                    "decodedLog": {
                        "name": "Transfer",
                        "params": [
                            {
                                "name": "from",
                                "type": "address",
                                "value": "0x4ae26e87e97374f44fbf25eab31461256840520f"
                            },
                            {
                                "name": "to",
                                "type": "address",
                                "value": "0x02d90dd98bbd35167045a8418ab59a2364f25766"
                            },
                            {
                                "decimalAvailable": true,
                                "name": "value",
                                "type": "uint256",
                                "value": "19,988,654,284,000,000,000,000"
                            }
                        ],
                        "signature": "Transfer(address,address,uint256)"
                    },
                    "id": 1,
                    "logData": "0x00000000000000000000000000000000000000000000043b964d7ede6608c000",
                    "logDecoded": true,
                    "operation": "EVENT",
                    "revert": false,
                    "status": true,
                    "topics": [
                        "0xddf252ad1be2c89b69c2b068fc378daa952ba7f163c4a11628f55a4df523b3ef",
                        "0x0000000000000000000000004ae26e87e97374f44fbf25eab31461256840520f",
                        "0x00000000000000000000000002d90dd98bbd35167045a8418ab59a2364f25766"
                    ]
                },
                "nodeType": 1
            }
        },
        "gasFlame": [
            {
                "children": [
                    {
                        "children": [
                            {
                                "children": [],
                                "depth": 0,
                                "name": "Initial Gas",
                                "value": 21668
                            },
                            {
                                "children": [],
                                "depth": 0,
                                "name": "Executed Gas",
                                "value": 32070
                            }
                        ],
                        "depth": -1,
                        "name": "Actual Gas Used",
                        "value": 53738
                    },
                    {
                        "children": [],
                        "depth": -1,
                        "name": "Refunded Gas",
                        "value": 0
                    }
                ],
                "depth": -2,
                "name": "Total Gas",
                "value": 53738
            }
        ],
        "isConfirmed": true,
        "mainTrace": [
            {
                "children": [
                    {
                        "children": [
                            {
                                "children": [],
                                "depth": 1,
                                "id": 1,
                                "order": 1
                            }
                        ],
                        "depth": 0,
                        "id": 0,
                        "order": 0
                    }
                ],
                "depth": -1,
                "id": -1,
                "order": -1
            }
        ],
        "mainTraceNodeCount": 2,
        "parentIdMap": {
            "0": -1,
            "1": 0
        },
        "tidyTrace": [
            {
                "children": [
                    {
                        "children": [
                            {
                                "children": [],
                                "depth": 1,
                                "id": 1,
                                "order": 1
                            }
                        ],
                        "depth": 0,
                        "id": 0,
                        "order": 0
                    }
                ],
                "depth": -1,
                "id": -1,
                "order": -1
            }
        ],
        "tidyTraceNodeCount": 2
    },
    "state_change": {
        "stateChanges": [
            {
                "address": "0x9fa69536d1cda4a04cfb50688294de75b505a9ae",
                "erc": "ERC-20",
                "slots": [
                    {
                        "current": "0x0000000000000000000000000000000000000000000000465160e7af2f11fd00",
                        "key": "0xd9cd2c4f01075ae53973bfb6e28a0ccdcee24072cc8a6002dd784a270556babb",
                        "prev": "0x000000000000000000000000000000000000000000000481e7ae668d951abd00"
                    },
                    {
                        "current": "0x00000000000000000000000000000000000000000000043b964d7ede6608c000",
                        "key": "0x0256e5021d849fff6822d5866493e2a108f42140b267c0766004a9eee67dcd33",
                        "prev": "0x0000000000000000000000000000000000000000000000000000000000000000"
                    }
                ],
                "storageVariables": [
                    {
                        "name": "_balances",
                        "type": "mapping(address => uint256)",
                        "value": {
                            "pairs": [
                                {
                                    "key": "0x02d90dd98bbd35167045a8418ab59a2364f25766",
                                    "value": {
                                        "current": "19988654284000000000000",
                                        "prev": "0",
                                        "typeTag": 1
                                    }
                                },
                                {
                                    "key": "0x4ae26e87e97374f44fbf25eab31461256840520f",
                                    "value": {
                                        "current": "1297136026614100000000",
                                        "prev": "21285790310614100000000",
                                        "typeTag": 1
                                    }
                                }
                            ],
                            "typeTag": 4
                        }
                    }
                ]
            }
        ]
    }
}