{
    "balance_change": {
        "balanceChanges": [
            {
                "account": "0xfb90501083a3b6af766c8da35d3dde01eb0d2a68",
                "assets": [
                    {
                        "address": "0x6c6ee5e31d828de241282b9606c8e98ea48526e2",
                        "amount": "10,019.9",
                        "iconUrl": "https://assets.blocksec.com/icon/07c56c67163174e082e47dbd309426b5570aab223f97fcb51fd47ff7b2d87ebd.png",
                        "isERC1155": false,
                        "isERC721": false,
                        "sign": false,
                        "value": ""
                    }
                ]
            },
            {
                "account": "0x70cb4dd4c8f6827402784b5fcd10f6540f2d774a",
                "assets": [
                    {
                        "address": "0x6c6ee5e31d828de241282b9606c8e98ea48526e2",
                        "amount": "10,019.9",
                        "iconUrl": "https://assets.blocksec.com/icon/07c56c67163174e082e47dbd309426b5570aab223f97fcb51fd47ff7b2d87ebd.png",
                        "isERC1155": false,
                        "isERC721": false,
                        "sign": true,
                        "value": ""
                    }
                ]
            }
        ]
    },
    "profile": {
        "basic_info": {
            "baseFee": "",
            "blockNumber": 9616737,
            "callData": "0xa9059cbb00000000000000000000000070cb4dd4c8f6827402784b5fcd10f6540f2d774a00000000000000000000000000000000000000000000021f2e0bca4b68860000",
            "debugEnable": true,
            "errorInfo": "",
            "eventCount": 1,
            "feeRecipient": "0x5a0b54d5dc17e0aadc383d2db43b0a0d3e029c4c",
            "formatValue": "0",
            "gasLimit": 90000,
            "gasPrice": "4.95",
            "gasUsed": 38341,
            "intTxnCount": 0,
            "internalRevert": false,
            "internalRevertMessage": "",
            "isContractCreation": false,
            "isFlashloan": false,
            "maxFee": "",
            "nonce": 8859,
            "overwritedBlockNumber": -1,
            "priorityFee": "",
            "receiver": "0x6c6ee5e31d828de241282b9606c8e98ea48526e2",
            "revertMessage": "",
            "sender": "0xfb90501083a3b6af766c8da35d3dde01eb0d2a68",
            "simulationEnable": true,
            "sourceTxnHash": "0x40d3391fe22e7971e21ca7829b29b31620ad5e4487ebc39f947790cf6ff69ea6",
            "status": true,
            "timestamp": "2020-03-06T09:00:14Z",
            "transactionFee": "0.00018978795",
            "txnHash": "0x40d3391fe22e7971e21ca7829b29b31620ad5e4487ebc39f947790cf6ff69ea6",
            "txnIndex": 81,
            "type": 0,
            "value": "0"
        },
        "fund_flow": [
            {
                "amount": "10,019.9",
                "from": "0xfb90501083a3b6af766c8da35d3dde01eb0d2a68",
                "id": 1,
                "isERC1155": false,
                "isERC721": false,
                "isReverted": false,
                "order": 1,
                "to": "0x70cb4dd4c8f6827402784b5fcd10f6540f2d774a",
                "token": "0x6c6ee5e31d828de241282b9606c8e98ea48526e2"
            }
        ],
        "token_infos": [
            {
                "address": "0x6c6ee5e31d828de241282b9606c8e98ea48526e2",
                "decimals": 18
            },
            {
                "address": "0xc02aaa39b223fe8d0a0e5c4f27ead9083c756cc2",
                "decimals": 18
            },
            {
                "address": "0xeeeeeeeeeeeeeeeeeeeeeeeeeeeeeeeeeeeeeeee",
                "decimals": 18
            }
        ]
    },
    "address_label": {
        "labels": [
            {
                "address": "0xeeeeeeeeeeeeeeeeeeeeeeeeeeeeeeeeeeeeeeee",
                "label": "Ether"
            },
            {
                "address": "0x6c6ee5e31d828de241282b9606c8e98ea48526e2",
                "label": "Holo: HOT Token"
            },
            {
                "address": "0x70cb4dd4c8f6827402784b5fcd10f6540f2d774a",
                "label": "BINANCE"
            },
            {
                "address": "0xfb90501083a3b6af766c8da35d3dde01eb0d2a68",
                "label": "Paribu 3"
            },
            {
                "address": "0x0000000000000000000000000000000000000001",
                "label": "Precompiled"
            },
            {
                "address": "0x0000000000000000000000000000000000000002",
                "label": "Precompiled"
            },
            {
                "address": "0x0000000000000000000000000000000000000003",
                "label": "Precompiled"
            },
            {
                "address": "0x0000000000000000000000000000000000000004",
                "label": "Precompiled"
            }
        ]
    },
    "trace": {
        "accountLabels": null,
        "dataMap": {
            "-1": {
                "invocation": {
                    "address": "0xfb90501083a3b6af766c8da35d3dde01eb0d2a68",
                    "callData": "",
                    "decodedMethod": null,
                    "errorInfo": "",
                    "fromAddress": "",
                    "gasUsed": 0,
                    "id": -1,
                    "methodDecoded": false,
                    "operation": "",
                    "output": "",
                    "revert": false,
                    "revertMessage": "",
                    "selector": "",
                    "status": false,
                    "value": ""
                },
                "nodeType": 0
            },
            "0": {
                "invocation": {
                    "address": "0x6c6ee5e31d828de241282b9606c8e98ea48526e2",
                    "callData": "0x00000000000000000000000070cb4dd4c8f6827402784b5fcd10f6540f2d774a00000000000000000000000000000000000000000000021f2e0bca4b68860000",
                    "decodedMethod": {
                        "callParams": [
                            {
                                "name": "_to",
                                "type": "address",
                                "value": "0x70cb4dd4c8f6827402784b5fcd10f6540f2d774a"
                            },
                            {
                                "decimalAvailable": true,
                                "name": "_value",
                                "type": "uint256",
                                "value": "10,019,900,000,000,000,000,000"
                            }
                        ],
                        "constructorArguments": "",
                        "name": "transfer",
                        "returnParams": [
                            {
                                "name": "",
                                "type": "bool",
                                "value": true
                            }
                        ],
                        "signature": "transfer(address,uint256)"
                    },
                    "errorInfo": "",
                    "fromAddress": "0xfb90501083a3b6af766c8da35d3dde01eb0d2a68",
                    "gasUsed": 38341,
                    "id": 0,
                    "methodDecoded": true,
                    "operation": "CALL",
                    "output": "0x0000000000000000000000000000000000000000000000000000000000000001",
                    "revert": false,
                    "revertMessage": "",
                    "selector": "0xa9059cbb",
                    "status": true,
                    "value": "0"
                },
                "nodeType": 0
            },
            "1": {
                "event": {
                    "contract": "0x6c6ee5e31d828de241282b9606c8e98ea48526e2",
                    "decodedLog": {
                        "name": "Transfer",
                        "params": [
                            {
                                "name": "from",
                                "type": "address",
                                "value": "0xfb90501083a3b6af766c8da35d3dde01eb0d2a68"
                            },
                            {
                                "name": "to",
                                "type": "address",
                                "value": "0x70cb4dd4c8f6827402784b5fcd10f6540f2d774a"
                            },
                            {
                                "decimalAvailable": true,
                                "name": "value",
                                "type": "uint256",
                                "value": "10,019,900,000,000,000,000,000"
                            }
                        ],
                        "signature": "Transfer(address,address,uint256)"
                    },
                    "id": 1,
                    "logData": "0x00000000000000000000000000000000000000000000021f2e0bca4b68860000",
                    "logDecoded": true,
                    "operation": "EVENT",
                    "revert": false,
                    "status": true,
                    "topics": [
                        "0xddf252ad1be2c89b69c2b068fc378daa952ba7f163c4a11628f55a4df523b3ef",
                        "0x000000000000000000000000fb90501083a3b6af766c8da35d3dde01eb0d2a68",
                        "0x00000000000000000000000070cb4dd4c8f6827402784b5fcd10f6540f2d774a"
                    ]
                },
                "nodeType": 1
            }
        },
        "gasFlame": [
            {
                "children": [
                    {
                        "children": [
                            {
                                "children": [],
                                "depth": 0,
                                "name": "Initial Gas",
                                "value": 21656
                            },
                            {
                                "children": [],
                                "depth": 0,
                                "name": "Executed Gas",
                                "value": 16685
                            }
                        ],
                        "depth": -1,
                        "name": "Actual Gas Used",
                        "value": 38341
                    },
                    {
                        "children": [],
                        "depth": -1,
                        "name": "Refunded Gas",
                        "value": 0
                    }
                ],
                "depth": -2,
                "name": "Total Gas",
                "value": 38341
            }
        ],
        "isConfirmed": true,
        "mainTrace": [
            {
                "children": [
                    {
                        "children": [
                            {
                                "children": [],
                                "depth": 1,
                                "id": 1,
                                "order": 1
                            }
                        ],
                        "depth": 0,
                        "id": 0,
                        "order": 0
                    }
                ],
                "depth": -1,
                "id": -1,
                "order": -1
            }
        ],
        "mainTraceNodeCount": 2,
        "parentIdMap": {
            "0": -1,
            "1": 0
        },
        "tidyTrace": [
            {
                "children": [
                    {
                        "children": [
                            {
                                "children": [],
                                "depth": 1,
                                "id": 1,
                                "order": 1
                            }
                        ],
                        "depth": 0,
                        "id": 0,
                        "order": 0
                    }
                ],
                "depth": -1,
                "id": -1,
                "order": -1
            }
        ],
        "tidyTraceNodeCount": 2
    },
    "state_change": {
        "stateChanges": [
            {
                "address": "0x6c6ee5e31d828de241282b9606c8e98ea48526e2",
                "erc": "ERC-20",
                "slots": [
                    {
                        "current": "0x0000000000000000000000000000000000000000026c9770b21703cc6ef29800",
                        "key": "0xf665fc3d7d145f4e7e4af8e9b09c5805e50c194716001690d7383bfed3a0b710",
                        "prev": "0x0000000000000000000000000000000000000000026c998fe022ce17d7789800"
                    },
                    {
                        "current": "0x0000000000000000000000000000000000000000000014d729ea7f90b1e80000",
                        "key": "0x4ac449adce6739470c60a4b1ddcab1397a6b7419936c4f01360bba6841f285c4",
                        "prev": "0x0000000000000000000000000000000000000000000012b7fbdeb54549620000"
                    }
                ],
                "storageVariables": [
                    {
                        "name": "balances",
                        "type": "mapping(address => uint256)",
                        "value": {
                            "pairs": [
                                {
                                    "key": "0x70cb4dd4c8f6827402784b5fcd10f6540f2d774a",
                                    "value": {
                                        "current": "98416400000000000000000",
                                        "prev": "88396500000000000000000",
                                        "typeTag": 1
                                    }
                                },
                                {
                                    "key": "0xfb90501083a3b6af766c8da35d3dde01eb0d2a68",
                                    "value": {
                                        "current": "750249164368049500000000000",
                                        "prev": "750259184268049500000000000",
                                        "typeTag": 1
                                    }
                                }
                            ],
                            "typeTag": 4
                        }
                    }
                ]
            }
        ]
    }
}