{
    "balance_change": {
        "balanceChanges": [
            {
                "account": "0xa68db2947f2e155f3df2065235ab7007b1542eea",
                "assets": [
                    {
                        "address": "0xabd4c63d2616a5201454168269031355f4764337",
                        "amount": "268.18763191",
                        "iconUrl": "",
                        "isERC1155": false,
                        "isERC721": false,
                        "sign": true,
                        "value": "40.75464284"
                    }
                ]
            },
            {
                "account": "0x94fdc38c4a8e34248f8dd19cb3336e0295227023",
                "assets": [
                    {
                        "address": "0xabd4c63d2616a5201454168269031355f4764337",
                        "amount": "268.18763191",
                        "iconUrl": "",
                        "isERC1155": false,
                        "isERC721": false,
                        "sign": false,
                        "value": "40.75464284"
                    }
                ]
            }
        ]
    },
    "profile": {
        "basic_info": {
            "baseFee": "1.757439016",
            "blockNumber": 20712032,
            "callData": "0xabd40e1e00000000000000000000000000000000000000000000000e89d9de4d9cc3fc00000000000000000000000000000000000000000000000000000000000000004000000000000000000000000000000000000000000000000000000000000000139354d60481e2c85e27165222a9d84fe1f9de1a7ae63080906cf10e344445faa65eb2a1d3eca367e75413a39d791eb78525159a4e6a0e9b60f77545a6d0275560c8939e27c7426309a0cd7574ac5422d541bd4e9091c18731d1945f5d97911341358f33629b3e328b1d5daeb0b0b07efb2025f7f4de7907ac6b6b1918dd6b32618a11a06900e48d19cd0145f5a15d918dec98875c692b9701f05189a76857537afa91151f0e022a338e86159a7e8db65633afa72f5265840ee90e7f84399018258a39a035bdd6faff005c019c18d0bc44f1d910bde5614f3a8b8c163dc4e5bee0ae72c4fce6c0e5db8c13679843356ce5322d20c875cc16ab8c09824bc46d8aa40889f18eb190d29cea4f3a1bd587d0c72c3484661339d30abeb8c1ab6e252f933c0ca80624cab5d1228ea29165ad7813b123d358781305de0cc182237af37e2f30bab155dcf10dcaac6f9a646bc29ce16f16a62e43ab3ed4b00379b12b5353cf60f61753ec752b6f47dc3ab8aa8b05bc4a26d869bad44a8a3b2493cf9bbd76bc0580685cafc16126d3a2a2e26f50268cedca433fa782d57c3563187e9b470b262ca7151540a5045ed58905875ed6b2f612a32052dae7825112da2174d558c3857fa9fd58ed48cd592e6868e56ed8e9dfc9efbfb10e762a10231c9446648012be4e7fc1586d5207210e48d59d92b86d40501c2e36eafa9dba8034460eeb0e760d1b28afd2933aa6f103801bdfd0d6fe3fe51cedf330daf31e5a0cad6f0345f3d5f95d8c7fa12a3556d3eab9aa22bfdf0e3eaff4d0d0b378545ee3bab0a9af7a50eef86a524f85584e3dad340f0518b1ce73acecb48202952fcc661a733e238380",
            "debugEnable": true,
            "errorInfo": "",
            "eventCount": 2,
            "feeRecipient": "0x95222290dd7278aa3ddd389cc1e1d165cc4bafe5",
            "formatValue": "0",
            "gasLimit": 188858,
            "gasPrice": "2.616173041",
            "gasUsed": 118838,
            "intTxnCount": 2,
            "internalRevert": false,
            "internalRevertMessage": "",
            "isContractCreation": false,
            "isFlashloan": false,
            "maxFee": "2.8",
            "nonce": 84,
            "overwritedBlockNumber": -1,
            "priorityFee": "0.858734025",
            "receiver": "0x94fdc38c4a8e34248f8dd19cb3336e0295227023",
            "revertMessage": "",
            "sender": "0xa68db2947f2e155f3df2065235ab7007b1542eea",
            "simulationEnable": true,
            "sourceTxnHash": "0x403df3543ee1136dbb9d75b2d670e912b08d29d2770b56412da3844500f41ff7",
            "status": true,
            "timestamp": "2024-09-09T09:02:59Z",
            "transactionFee": "0.000310900771846358",
            "txnHash": "0x403df3543ee1136dbb9d75b2d670e912b08d29d2770b56412da3844500f41ff7",
            "txnIndex": 33,
            "type": 2,
            "value": "0"
        },
        "fund_flow": [
            {
                "amount": "268.18763191",
                "from": "0x94fdc38c4a8e34248f8dd19cb3336e0295227023",
                "id": 1,
                "isERC1155": false,
                "isERC721": false,
                "isReverted": false,
                "order": 1,
                "to": "0xa68db2947f2e155f3df2065235ab7007b1542eea",
                "token": "0xabd4c63d2616a5201454168269031355f4764337"
            }
        ],
        "token_infos": [
            {
                "address": "0xc02aaa39b223fe8d0a0e5c4f27ead9083c756cc2",
                "decimals": 18
            },
            {
                "address": "0xeeeeeeeeeeeeeeeeeeeeeeeeeeeeeeeeeeeeeeee",
                "decimals": 18
            },
            {
                "address": "0xabd4c63d2616a5201454168269031355f4764337",
                "decimals": 18
            }
        ]
    },
    "address_label": {
        "labels": [
            {
                "address": "0xeeeeeeeeeeeeeeeeeeeeeeeeeeeeeeeeeeeeeeee",
                "label": "Ether"
            },
            {
                "address": "0x94fdc38c4a8e34248f8dd19cb3336e0295227023",
                "label": "Orderly: Airdrop"
            },
            {
                "address": "0xabd4c63d2616a5201454168269031355f4764337",
                "label": "Orderly Network: ORDER Token"
            },
            {
                "address": "0x98273e1766d8779978f45cd94e626c74813c194b",
                "label": "MerkleDistributorL1"
            },
            {
                "address": "0x0000000000000000000000000000000000000001",
                "label": "Precompiled"
            },
            {
                "address": "0x0000000000000000000000000000000000000002",
                "label": "Precompiled"
            },
            {
                "address": "0x0000000000000000000000000000000000000003",
                "label": "Precompiled"
            },
            {
                "address": "0x0000000000000000000000000000000000000004",
                "label": "Precompiled"
            }
        ]
    },
    "trace": {
        "accountLabels": null,
        "dataMap": {
            "-1": {
                "invocation": {
                    "address": "0xa68db2947f2e155f3df2065235ab7007b1542eea",
                    "callData": "",
                    "decodedMethod": null,
                    "errorInfo": "",
                    "fromAddress": "",
                    "gasUsed": 0,
                    "id": -1,
                    "methodDecoded": false,
                    "operation": "",
                    "output": "",
                    "revert": false,
                    "revertMessage": "",
                    "selector": "",
                    "status": false,
                    "value": ""
                },
                "nodeType": 0
            },
            "0": {
                "invocation": {
                    "address": "0x94fdc38c4a8e34248f8dd19cb3336e0295227023",
                    "callData": "0x00000000000000000000000000000000000000000000000e89d9de4d9cc3fc00000000000000000000000000000000000000000000000000000000000000004000000000000000000000000000000000000000000000000000000000000000139354d60481e2c85e27165222a9d84fe1f9de1a7ae63080906cf10e344445faa65eb2a1d3eca367e75413a39d791eb78525159a4e6a0e9b60f77545a6d0275560c8939e27c7426309a0cd7574ac5422d541bd4e9091c18731d1945f5d97911341358f33629b3e328b1d5daeb0b0b07efb2025f7f4de7907ac6b6b1918dd6b32618a11a06900e48d19cd0145f5a15d918dec98875c692b9701f05189a76857537afa91151f0e022a338e86159a7e8db65633afa72f5265840ee90e7f84399018258a39a035bdd6faff005c019c18d0bc44f1d910bde5614f3a8b8c163dc4e5bee0ae72c4fce6c0e5db8c13679843356ce5322d20c875cc16ab8c09824bc46d8aa40889f18eb190d29cea4f3a1bd587d0c72c3484661339d30abeb8c1ab6e252f933c0ca80624cab5d1228ea29165ad7813b123d358781305de0cc182237af37e2f30bab155dcf10dcaac6f9a646bc29ce16f16a62e43ab3ed4b00379b12b5353cf60f61753ec752b6f47dc3ab8aa8b05bc4a26d869bad44a8a3b2493cf9bbd76bc0580685cafc16126d3a2a2e26f50268cedca433fa782d57c3563187e9b470b262ca7151540a5045ed58905875ed6b2f612a32052dae7825112da2174d558c3857fa9fd58ed48cd592e6868e56ed8e9dfc9efbfb10e762a10231c9446648012be4e7fc1586d5207210e48d59d92b86d40501c2e36eafa9dba8034460eeb0e760d1b28afd2933aa6f103801bdfd0d6fe3fe51cedf330daf31e5a0cad6f0345f3d5f95d8c7fa12a3556d3eab9aa22bfdf0e3eaff4d0d0b378545ee3bab0a9af7a50eef86a524f85584e3dad340f0518b1ce73acecb48202952fcc661a733e238380",
                    "decodedMethod": {
                        "callParams": [
                            {
                                "name": "_cumulativeAmount",
                                "type": "uint256",
                                "value": "268,187,631,910,000,000,000"
                            },
                            {
                                "name": "_merkleProof",
                                "type": "bytes32[]",
                                "value": [
                                    "0x9354d60481e2c85e27165222a9d84fe1f9de1a7ae63080906cf10e344445faa6",
                                    "0x5eb2a1d3eca367e75413a39d791eb78525159a4e6a0e9b60f77545a6d0275560",
                                    "0xc8939e27c7426309a0cd7574ac5422d541bd4e9091c18731d1945f5d97911341",
                                    "0x358f33629b3e328b1d5daeb0b0b07efb2025f7f4de7907ac6b6b1918dd6b3261",
                                    "0x8a11a06900e48d19cd0145f5a15d918dec98875c692b9701f05189a76857537a",
                                    "0xfa91151f0e022a338e86159a7e8db65633afa72f5265840ee90e7f8439901825",
                                    "0x8a39a035bdd6faff005c019c18d0bc44f1d910bde5614f3a8b8c163dc4e5bee0",
                                    "0xae72c4fce6c0e5db8c13679843356ce5322d20c875cc16ab8c09824bc46d8aa4",
                                    "0x0889f18eb190d29cea4f3a1bd587d0c72c3484661339d30abeb8c1ab6e252f93",
                                    "0x3c0ca80624cab5d1228ea29165ad7813b123d358781305de0cc182237af37e2f",
                                    "0x30bab155dcf10dcaac6f9a646bc29ce16f16a62e43ab3ed4b00379b12b5353cf",
                                    "0x60f61753ec752b6f47dc3ab8aa8b05bc4a26d869bad44a8a3b2493cf9bbd76bc",
                                    "0x0580685cafc16126d3a2a2e26f50268cedca433fa782d57c3563187e9b470b26",
                                    "0x2ca7151540a5045ed58905875ed6b2f612a32052dae7825112da2174d558c385",
                                    "0x7fa9fd58ed48cd592e6868e56ed8e9dfc9efbfb10e762a10231c9446648012be",
                                    "0x4e7fc1586d5207210e48d59d92b86d40501c2e36eafa9dba8034460eeb0e760d",
                                    "0x1b28afd2933aa6f103801bdfd0d6fe3fe51cedf330daf31e5a0cad6f0345f3d5",
                                    "0xf95d8c7fa12a3556d3eab9aa22bfdf0e3eaff4d0d0b378545ee3bab0a9af7a50",
                                    "0xeef86a524f85584e3dad340f0518b1ce73acecb48202952fcc661a733e238380"
                                ]
                            }
                        ],
                        "constructorArguments": "",
                        "name": "claimRewards",
                        "returnParams": [
                            {
                                "name": "",
                                "type": "uint256",
                                "value": "268,187,631,910,000,000,000"
                            }
                        ],
                        "signature": "claimRewards(uint256,bytes32[])"
                    },
                    "errorInfo": "",
                    "fromAddress": "0xa68db2947f2e155f3df2065235ab7007b1542eea",
                    "gasUsed": 118838,
                    "id": 0,
                    "methodDecoded": true,
                    "operation": "CALL",
                    "output": "0x00000000000000000000000000000000000000000000000e89d9de4d9cc3fc00",
                    "revert": false,
                    "revertMessage": "",
                    "selector": "0xabd40e1e",
                    "status": true,
                    "value": "0"
                },
                "nodeType": 0
            },
            "1": {
                "invocation": {
                    "address": "0x98273e1766d8779978f45cd94e626c74813c194b",
                    "callData": "0x00000000000000000000000000000000000000000000000e89d9de4d9cc3fc00000000000000000000000000000000000000000000000000000000000000004000000000000000000000000000000000000000000000000000000000000000139354d60481e2c85e27165222a9d84fe1f9de1a7ae63080906cf10e344445faa65eb2a1d3eca367e75413a39d791eb78525159a4e6a0e9b60f77545a6d0275560c8939e27c7426309a0cd7574ac5422d541bd4e9091c18731d1945f5d97911341358f33629b3e328b1d5daeb0b0b07efb2025f7f4de7907ac6b6b1918dd6b32618a11a06900e48d19cd0145f5a15d918dec98875c692b9701f05189a76857537afa91151f0e022a338e86159a7e8db65633afa72f5265840ee90e7f84399018258a39a035bdd6faff005c019c18d0bc44f1d910bde5614f3a8b8c163dc4e5bee0ae72c4fce6c0e5db8c13679843356ce5322d20c875cc16ab8c09824bc46d8aa40889f18eb190d29cea4f3a1bd587d0c72c3484661339d30abeb8c1ab6e252f933c0ca80624cab5d1228ea29165ad7813b123d358781305de0cc182237af37e2f30bab155dcf10dcaac6f9a646bc29ce16f16a62e43ab3ed4b00379b12b5353cf60f61753ec752b6f47dc3ab8aa8b05bc4a26d869bad44a8a3b2493cf9bbd76bc0580685cafc16126d3a2a2e26f50268cedca433fa782d57c3563187e9b470b262ca7151540a5045ed58905875ed6b2f612a32052dae7825112da2174d558c3857fa9fd58ed48cd592e6868e56ed8e9dfc9efbfb10e762a10231c9446648012be4e7fc1586d5207210e48d59d92b86d40501c2e36eafa9dba8034460eeb0e760d1b28afd2933aa6f103801bdfd0d6fe3fe51cedf330daf31e5a0cad6f0345f3d5f95d8c7fa12a3556d3eab9aa22bfdf0e3eaff4d0d0b378545ee3bab0a9af7a50eef86a524f85584e3dad340f0518b1ce73acecb48202952fcc661a733e238380",
                    "decodedMethod": {
                        "callParams": [
                            {
                                "name": "_cumulativeAmount",
                                "type": "uint256",
                                "value": "268,187,631,910,000,000,000"
                            },
                            {
                                "name": "_merkleProof",
                                "type": "bytes32[]",
                                "value": [
                                    "0x9354d60481e2c85e27165222a9d84fe1f9de1a7ae63080906cf10e344445faa6",
                                    "0x5eb2a1d3eca367e75413a39d791eb78525159a4e6a0e9b60f77545a6d0275560",
                                    "0xc8939e27c7426309a0cd7574ac5422d541bd4e9091c18731d1945f5d97911341",
                                    "0x358f33629b3e328b1d5daeb0b0b07efb2025f7f4de7907ac6b6b1918dd6b3261",
                                    "0x8a11a06900e48d19cd0145f5a15d918dec98875c692b9701f05189a76857537a",
                                    "0xfa91151f0e022a338e86159a7e8db65633afa72f5265840ee90e7f8439901825",
                                    "0x8a39a035bdd6faff005c019c18d0bc44f1d910bde5614f3a8b8c163dc4e5bee0",
                                    "0xae72c4fce6c0e5db8c13679843356ce5322d20c875cc16ab8c09824bc46d8aa4",
                                    "0x0889f18eb190d29cea4f3a1bd587d0c72c3484661339d30abeb8c1ab6e252f93",
                                    "0x3c0ca80624cab5d1228ea29165ad7813b123d358781305de0cc182237af37e2f",
                                    "0x30bab155dcf10dcaac6f9a646bc29ce16f16a62e43ab3ed4b00379b12b5353cf",
                                    "0x60f61753ec752b6f47dc3ab8aa8b05bc4a26d869bad44a8a3b2493cf9bbd76bc",
                                    "0x0580685cafc16126d3a2a2e26f50268cedca433fa782d57c3563187e9b470b26",
                                    "0x2ca7151540a5045ed58905875ed6b2f612a32052dae7825112da2174d558c385",
                                    "0x7fa9fd58ed48cd592e6868e56ed8e9dfc9efbfb10e762a10231c9446648012be",
                                    "0x4e7fc1586d5207210e48d59d92b86d40501c2e36eafa9dba8034460eeb0e760d",
                                    "0x1b28afd2933aa6f103801bdfd0d6fe3fe51cedf330daf31e5a0cad6f0345f3d5",
                                    "0xf95d8c7fa12a3556d3eab9aa22bfdf0e3eaff4d0d0b378545ee3bab0a9af7a50",
                                    "0xeef86a524f85584e3dad340f0518b1ce73acecb48202952fcc661a733e238380"
                                ]
                            }
                        ],
                        "constructorArguments": "",
                        "name": "claimRewards",
                        "returnParams": [
                            {
                                "name": "",
                                "type": "uint256",
                                "value": "268,187,631,910,000,000,000"
                            }
                        ],
                        "signature": "claimRewards(uint256,bytes32[])"
                    },
                    "errorInfo": "",
                    "fromAddress": "0x94fdc38c4a8e34248f8dd19cb3336e0295227023",
                    "gasUsed": 85356,
                    "id": 1,
                    "methodDecoded": true,
                    "operation": "DELEGATECALL",
                    "output": "0x00000000000000000000000000000000000000000000000e89d9de4d9cc3fc00",
                    "revert": false,
                    "revertMessage": "",
                    "selector": "0xabd40e1e",
                    "status": true,
                    "value": "0"
                },
                "nodeType": 0
            },
            "2": {
                "invocation": {
                    "address": "0xabd4c63d2616a5201454168269031355f4764337",
                    "callData": "0x000000000000000000000000a68db2947f2e155f3df2065235ab7007b1542eea00000000000000000000000000000000000000000000000e89d9de4d9cc3fc00",
                    "decodedMethod": {
                        "callParams": [
                            {
                                "name": "to",
                                "type": "address",
                                "value": "0xa68db2947f2e155f3df2065235ab7007b1542eea"
                            },
                            {
                                "decimalAvailable": true,
                                "name": "value",
                                "type": "uint256",
                                "value": "268,187,631,910,000,000,000"
                            }
                        ],
                        "constructorArguments": "",
                        "name": "transfer",
                        "returnParams": [
                            {
                                "name": "",
                                "type": "bool",
                                "value": true
                            }
                        ],
                        "signature": "transfer(address,uint256)"
                    },
                    "errorInfo": "",
                    "fromAddress": "0x94fdc38c4a8e34248f8dd19cb3336e0295227023",
                    "gasUsed": 29988,
                    "id": 2,
                    "methodDecoded": true,
                    "operation": "CALL",
                    "output": "0x0000000000000000000000000000000000000000000000000000000000000001",
                    "revert": false,
                    "revertMessage": "",
                    "selector": "0xa9059cbb",
                    "status": true,
                    "value": "0"
                },
                "nodeType": 0
            },
            "3": {
                "event": {
                    "contract": "0xabd4c63d2616a5201454168269031355f4764337",
                    "decodedLog": {
                        "name": "Transfer",
                        "params": [
                            {
                                "name": "from",
                                "type": "address",
                                "value": "0x94fdc38c4a8e34248f8dd19cb3336e0295227023"
                            },
                            {
                                "name": "to",
                                "type": "address",
                                "value": "0xa68db2947f2e155f3df2065235ab7007b1542eea"
                            },
                            {
                                "decimalAvailable": true,
                                "name": "value",
                                "type": "uint256",
                                "value": "268,187,631,910,000,000,000"
                            }
                        ],
                        "signature": "Transfer(address,address,uint256)"
                    },
                    "id": 3,
                    "logData": "0x00000000000000000000000000000000000000000000000e89d9de4d9cc3fc00",
                    "logDecoded": true,
                    "operation": "EVENT",
                    "revert": false,
                    "status": true,
                    "topics": [
                        "0xddf252ad1be2c89b69c2b068fc378daa952ba7f163c4a11628f55a4df523b3ef",
                        "0x00000000000000000000000094fdc38c4a8e34248f8dd19cb3336e0295227023",
                        "0x000000000000000000000000a68db2947f2e155f3df2065235ab7007b1542eea"
                    ]
                },
                "nodeType": 1
            },
            "4": {
                "event": {
                    "contract": "0x94fdc38c4a8e34248f8dd19cb3336e0295227023",
                    "decodedLog": {
                        "name": "RewardsClaimed",
                        "params": [
                            {
                                "name": "eventId",
                                "type": "uint256",
                                "value": "67,559"
                            },
                            {
                                "name": "account",
                                "type": "address",
                                "value": "0xa68db2947f2e155f3df2065235ab7007b1542eea"
                            },
                            {
                                "name": "amount",
                                "type": "uint256",
                                "value": "268,187,631,910,000,000,000"
                            }
                        ],
                        "signature": "RewardsClaimed(uint256,address,uint256)"
                    },
                    "id": 4,
                    "logData": "0x00000000000000000000000000000000000000000000000000000000000107e7000000000000000000000000a68db2947f2e155f3df2065235ab7007b1542eea00000000000000000000000000000000000000000000000e89d9de4d9cc3fc00",
                    "logDecoded": true,
                    "operation": "EVENT",
                    "revert": false,
                    "status": true,
                    "topics": [
                        "0x3300bdb359cfb956935bca32e9db727413eab1ca84341f2e36caea85bb796968"
                    ]
                },
                "nodeType": 1
            }
        },
        "gasFlame": [
            {
                "children": [
                    {
                        "children": [
                            {
                                "children": [],
                                "depth": 0,
                                "name": "Initial Gas",
                                "value": 31272
                            },
                            {
                                "children": [
                                    {
                                        "children": [
                                            {
                                                "children": [],
                                                "depth": 2,
                                                "name": "transfer",
                                                "value": 29988
                                            }
                                        ],
                                        "depth": 1,
                                        "name": "claimRewards",
                                        "value": 85356
                                    }
                                ],
                                "depth": 0,
                                "name": "Executed Gas",
                                "value": 90366
                            }
                        ],
                        "depth": -1,
                        "name": "Actual Gas Used",
                        "value": 118838
                    },
                    {
                        "children": [],
                        "depth": -1,
                        "name": "Refunded Gas",
                        "value": 2800
                    }
                ],
                "depth": -2,
                "name": "Total Gas",
                "value": 121638
            }
        ],
        "isConfirmed": true,
        "mainTrace": [
            {
                "children": [
                    {
                        "children": [
                            {
                                "children": [
                                    {
                                        "children": [
                                            {
                                                "children": [],
                                                "depth": 3,
                                                "id": 3,
                                                "order": 3
                                            }
                                        ],
                                        "depth": 2,
                                        "id": 2,
                                        "order": 2
                                    },
                                    {
                                        "children": [],
                                        "depth": 2,
                                        "id": 4,
                                        "order": 4
                                    }
                                ],
                                "depth": 1,
                                "id": 1,
                                "order": 1
                            }
                        ],
                        "depth": 0,
                        "id": 0,
                        "order": 0
                    }
                ],
                "depth": -1,
                "id": -1,
                "order": -1
            }
        ],
        "mainTraceNodeCount": 5,
        "parentIdMap": {
            "0": -1,
            "1": 0,
            "2": 1,
            "3": 2,
            "4": 1
        },
        "tidyTrace": [
            {
                "children": [
                    {
                        "children": [
                            {
                                "children": [
                                    {
                                        "children": [
                                            {
                                                "children": [],
                                                "depth": 3,
                                                "id": 3,
                                                "order": 3
                                            }
                                        ],
                                        "depth": 2,
                                        "id": 2,
                                        "order": 2
                                    },
                                    {
                                        "children": [],
                                        "depth": 2,
                                        "id": 4,
                                        "order": 4
                                    }
                                ],
                                "depth": 1,
                                "id": 1,
                                "order": 1
                            }
                        ],
                        "depth": 0,
                        "id": 0,
                        "order": 0
                    }
                ],
                "depth": -1,
                "id": -1,
                "order": -1
            }
        ],
        "tidyTraceNodeCount": 5
    },
    "state_change": {
        "stateChanges": [
            {
                "address": "0x94fdc38c4a8e34248f8dd19cb3336e0295227023",
                "erc": "",
                "slots": [
                    {
                        "current": "0x00000000000000000000000000000000000000000000000000000000000107e7",
                        "key": "0x0000000000000000000000000000000000000000000000000000000000000000",
                        "prev": "0x00000000000000000000000000000000000000000000000000000000000107e6"
                    },
                    {
                        "current": "0x00000000000000000000000000000000000000000000000e89d9de4d9cc3fc00",
                        "key": "0xaaa300d0dfe3b2c0ed07cb9a03eec441db2baa3316e4c706d35662f11eef388e",
                        "prev": "0x0000000000000000000000000000000000000000000000000000000000000000"
                    }
                ],
                "storageVariables": [
                    {
                        "name": "eventId",
                        "type": "uint256",
                        "value": {
                            "current": "67559",
                            "prev": "67558",
                            "typeTag": 1
                        }
                    },
                    {
                        "name": "claimedAmounts",
                        "type": "mapping(address => uint256)",
                        "value": {
                            "pairs": [
                                {
                                    "key": "0xa68db2947f2e155f3df2065235ab7007b1542eea",
                                    "value": {
                                        "current": "268187631910000000000",
                                        "prev": "0",
                                        "typeTag": 1
                                    }
                                }
                            ],
                            "typeTag": 4
                        }
                    }
                ]
            },
            {
                "address": "0xabd4c63d2616a5201454168269031355f4764337",
                "erc": "ERC-20",
                "slots": [
                    {
                        "current": "0x00000000000000000000000000000000000000000004d6480e002d3751145000",
                        "key": "0x763e32024b0f40bbf068232e2a752a1130534ee7541715ca3509accd3f1edc53",
                        "prev": "0x00000000000000000000000000000000000000000004d65697da0b84edd84c00"
                    },
                    {
                        "current": "0x00000000000000000000000000000000000000000000000e89d9de4d9cc3fc00",
                        "key": "0x7d369bcbebaa7e3171171d58dfdb0dd46f7ed1aeb29e824c7acbc281fcf606ef",
                        "prev": "0x0000000000000000000000000000000000000000000000000000000000000000"
                    }
                ],
                "storageVariables": [
                    {
                        "name": "_balances",
                        "type": "mapping(address => uint256)",
                        "value": {
                            "pairs": [
                                {
                                    "key": "0x94fdc38c4a8e34248f8dd19cb3336e0295227023",
                                    "value": {
                                        "current": "5847618880221960000000000",
                                        "prev": "5847887067853870000000000",
                                        "typeTag": 1
                                    }
                                },
                                {
                                    "key": "0xa68db2947f2e155f3df2065235ab7007b1542eea",
                                    "value": {
                                        "current": "268187631910000000000",
                                        "prev": "0",
                                        "typeTag": 1
                                    }
                                }
                            ],
                            "typeTag": 4
                        }
                    }
                ]
            }
        ]
    }
}