{
    "balance_change": {
        "balanceChanges": [
            {
                "account": "0x49fddeae0b521dab8d0c4b77e7161094f971320d",
                "assets": [
                    {
                        "address": "0xeeeeeeeeeeeeeeeeeeeeeeeeeeeeeeeeeeeeeeee",
                        "amount": "0.301215936057279285",
                        "iconUrl": "https://assets.blocksec.com/image/1663669189317-3.png",
                        "isERC1155": false,
                        "isERC721": false,
                        "sign": false,
                        "value": ""
                    }
                ]
            },
            {
                "account": "0xd9cceca05531f33da9ce95b9e96972373aed0a8b",
                "assets": [
                    {
                        "address": "0xeeeeeeeeeeeeeeeeeeeeeeeeeeeeeeeeeeeeeeee",
                        "amount": "0.301215936057279285",
                        "iconUrl": "https://assets.blocksec.com/image/1663669189317-3.png",
                        "isERC1155": false,
                        "isERC721": false,
                        "sign": true,
                        "value": ""
                    }
                ]
            }
        ]
    },
    "profile": {
        "basic_info": {
            "baseFee": "",
            "blockNumber": 3052838,
            "callData": "0x38bbfa50ce2b482e0542412cfdfcf7ea23ad25f321990b0f32749a22c29c2932cedd8741000000000000000000000000000000000000000000000000000000000000006000000000000000000000000000000000000000000000000000000000000000a000000000000000000000000000000000000000000000000000000000000000043231353000000000000000000000000000000000000000000000000000000000000000000000000000000000000000000000000000000000000000000000002212206ec7cddb32389c6e64544dcf556bc5d04e1e03eec54037e5a42893a125ea67bb000000000000000000000000000000000000000000000000000000000000",
            "debugEnable": true,
            "errorInfo": "",
            "eventCount": 2,
            "feeRecipient": "0xea674fdde714fd979de3edf0f56aa9716b898ec8",
            "formatValue": "0",
            "gasLimit": 177300,
            "gasPrice": "20",
            "gasUsed": 95968,
            "intTxnCount": 3,
            "internalRevert": false,
            "internalRevertMessage": "",
            "isContractCreation": false,
            "isFlashloan": false,
            "maxFee": "",
            "nonce": 56304,
            "overwritedBlockNumber": -1,
            "priorityFee": "",
            "receiver": "0x49fddeae0b521dab8d0c4b77e7161094f971320d",
            "revertMessage": "",
            "sender": "0x26588a9301b0428d95e6fc3a5024fce8bec12d51",
            "simulationEnable": true,
            "sourceTxnHash": "0x40bde760bebef08c48b26e6100b80494638b98ad3122d7a35cfd517c6a833c8d",
            "status": true,
            "timestamp": "2017-01-24T03:47:45Z",
            "transactionFee": "0.00191936",
            "txnHash": "0x40bde760bebef08c48b26e6100b80494638b98ad3122d7a35cfd517c6a833c8d",
            "txnIndex": 0,
            "type": 0,
            "value": "0"
        },
        "fund_flow": [
            {
                "amount": "0.301215936057279285",
                "from": "0x49fddeae0b521dab8d0c4b77e7161094f971320d",
                "id": 1,
                "isERC1155": false,
                "isERC721": false,
                "isReverted": false,
                "order": 1,
                "to": "0xd9cceca05531f33da9ce95b9e96972373aed0a8b",
                "token": "0xeeeeeeeeeeeeeeeeeeeeeeeeeeeeeeeeeeeeeeee"
            }
        ],
        "token_infos": [
            {
                "address": "0xc02aaa39b223fe8d0a0e5c4f27ead9083c756cc2",
                "decimals": 18
            },
            {
                "address": "0xeeeeeeeeeeeeeeeeeeeeeeeeeeeeeeeeeeeeeeee",
                "decimals": 18
            }
        ]
    },
    "address_label": {
        "labels": [
            {
                "address": "0xeeeeeeeeeeeeeeeeeeeeeeeeeeeeeeeeeeeeeeee",
                "label": "Ether"
            },
            {
                "address": "0x26588a9301b0428d95e6fc3a5024fce8bec12d51",
                "label": "0x2658_Oraclize"
            },
            {
                "address": "0x49fddeae0b521dab8d0c4b77e7161094f971320d",
                "label": "Dice"
            },
            {
                "address": "0x0000000000000000000000000000000000000003",
                "label": "Precompiled"
            },
            {
                "address": "0x0000000000000000000000000000000000000004",
                "label": "Precompiled"
            },
            {
                "address": "0x1d3b2638a7cc9f2cb3d298a3da7a90b67e5506ed",
                "label": "OraclizeAddrResolver"
            },
            {
                "address": "0x001a589dda0d6be37632925eaf1256986b2c6ad0",
                "label": "0x001a_Oraclize"
            },
            {
                "address": "0x0000000000000000000000000000000000000001",
                "label": "Precompiled"
            },
            {
                "address": "0x0000000000000000000000000000000000000002",
                "label": "Precompiled"
            }
        ]
    },
    "trace": {
        "accountLabels": null,
        "dataMap": {
            "-1": {
                "invocation": {
                    "address": "0x26588a9301b0428d95e6fc3a5024fce8bec12d51",
                    "callData": "",
                    "decodedMethod": null,
                    "errorInfo": "",
                    "fromAddress": "",
                    "gasUsed": 0,
                    "id": -1,
                    "methodDecoded": false,
                    "operation": "",
                    "output": "",
                    "revert": false,
                    "revertMessage": "",
                    "selector": "",
                    "status": false,
                    "value": ""
                },
                "nodeType": 0
            },
            "0": {
                "invocation": {
                    "address": "0x49fddeae0b521dab8d0c4b77e7161094f971320d",
                    "callData": "0xce2b482e0542412cfdfcf7ea23ad25f321990b0f32749a22c29c2932cedd8741000000000000000000000000000000000000000000000000000000000000006000000000000000000000000000000000000000000000000000000000000000a000000000000000000000000000000000000000000000000000000000000000043231353000000000000000000000000000000000000000000000000000000000000000000000000000000000000000000000000000000000000000000000002212206ec7cddb32389c6e64544dcf556bc5d04e1e03eec54037e5a42893a125ea67bb000000000000000000000000000000000000000000000000000000000000",
                    "decodedMethod": {
                        "callParams": [
                            {
                                "name": "myid",
                                "type": "bytes32",
                                "value": "0xce2b482e0542412cfdfcf7ea23ad25f321990b0f32749a22c29c2932cedd8741"
                            },
                            {
                                "name": "result",
                                "type": "string",
                                "value": "2150"
                            },
                            {
                                "name": "proof",
                                "type": "bytes",
                                "value": "0x12206ec7cddb32389c6e64544dcf556bc5d04e1e03eec54037e5a42893a125ea67bb"
                            }
                        ],
                        "constructorArguments": "",
                        "name": "__callback",
                        "returnParams": [],
                        "signature": "__callback(bytes32,string,bytes)"
                    },
                    "errorInfo": "",
                    "fromAddress": "0x26588a9301b0428d95e6fc3a5024fce8bec12d51",
                    "gasUsed": 95968,
                    "id": 0,
                    "methodDecoded": true,
                    "operation": "CALL",
                    "output": "",
                    "revert": false,
                    "revertMessage": "",
                    "selector": "0x38bbfa50",
                    "status": true,
                    "value": "0"
                },
                "nodeType": 0
            },
            "1": {
                "invocation": {
                    "address": "0x1d3b2638a7cc9f2cb3d298a3da7a90b67e5506ed",
                    "callData": "0x",
                    "decodedMethod": {
                        "callParams": [],
                        "constructorArguments": "",
                        "name": "getAddress",
                        "returnParams": [
                            {
                                "name": "oaddr",
                                "type": "address",
                                "value": "0x001a589dda0d6be37632925eaf1256986b2c6ad0"
                            }
                        ],
                        "signature": "getAddress()"
                    },
                    "errorInfo": "",
                    "fromAddress": "0x49fddeae0b521dab8d0c4b77e7161094f971320d",
                    "gasUsed": 418,
                    "id": 1,
                    "methodDecoded": true,
                    "operation": "CALL",
                    "output": "0x000000000000000000000000001a589dda0d6be37632925eaf1256986b2c6ad0",
                    "revert": false,
                    "revertMessage": "",
                    "selector": "0x38cc4831",
                    "status": true,
                    "value": "0"
                },
                "nodeType": 0
            },
            "2": {
                "invocation": {
                    "address": "0x001a589dda0d6be37632925eaf1256986b2c6ad0",
                    "callData": "0x",
                    "decodedMethod": {
                        "callParams": [],
                        "constructorArguments": "",
                        "name": "cbAddress",
                        "returnParams": [
                            {
                                "name": "",
                                "type": "address",
                                "value": "0x26588a9301b0428d95e6fc3a5024fce8bec12d51"
                            }
                        ],
                        "signature": "cbAddress()"
                    },
                    "errorInfo": "",
                    "fromAddress": "0x49fddeae0b521dab8d0c4b77e7161094f971320d",
                    "gasUsed": 1039,
                    "id": 2,
                    "methodDecoded": true,
                    "operation": "CALL",
                    "output": "0x00000000000000000000000026588a9301b0428d95e6fc3a5024fce8bec12d51",
                    "revert": false,
                    "revertMessage": "",
                    "selector": "0xc281d19e",
                    "status": true,
                    "value": "0"
                },
                "nodeType": 0
            },
            "3": {
                "event": {
                    "contract": "0x49fddeae0b521dab8d0c4b77e7161094f971320d",
                    "decodedLog": {
                        "name": "LOG_BetWon",
                        "params": [
                            {
                                "name": "playerAddress",
                                "type": "address",
                                "value": "0xd9cceca05531f33da9ce95b9e96972373aed0a8b"
                            },
                            {
                                "name": "numberRolled",
                                "type": "uint256",
                                "value": "2,150"
                            },
                            {
                                "name": "amountWon",
                                "type": "uint256",
                                "value": "301,215,936,057,279,285"
                            }
                        ],
                        "signature": "LOG_BetWon(address,uint256,uint256)"
                    },
                    "id": 3,
                    "logData": "0x000000000000000000000000d9cceca05531f33da9ce95b9e96972373aed0a8b0000000000000000000000000000000000000000000000000000000000000866000000000000000000000000000000000000000000000000042e224c45618335",
                    "logDecoded": true,
                    "operation": "EVENT",
                    "revert": false,
                    "status": true,
                    "topics": [
                        "0xa5acb022726d980b249ddc212f4992ad87f28c093550232fcc48bd8af803f2d5"
                    ]
                },
                "nodeType": 1
            },
            "4": {
                "invocation": {
                    "address": "0xd9cceca05531f33da9ce95b9e96972373aed0a8b",
                    "callData": "0x",
                    "decodedMethod": null,
                    "errorInfo": "",
                    "fromAddress": "0x49fddeae0b521dab8d0c4b77e7161094f971320d",
                    "gasUsed": 0,
                    "id": 4,
                    "methodDecoded": false,
                    "operation": "CALL",
                    "output": "",
                    "revert": false,
                    "revertMessage": "",
                    "selector": "fallback",
                    "status": true,
                    "value": "0.301215936057279285"
                },
                "nodeType": 0
            },
            "5": {
                "event": {
                    "contract": "0x49fddeae0b521dab8d0c4b77e7161094f971320d",
                    "decodedLog": {
                        "name": "LOG_SuccessfulSend",
                        "params": [
                            {
                                "name": "addr",
                                "type": "address",
                                "value": "0xd9cceca05531f33da9ce95b9e96972373aed0a8b"
                            },
                            {
                                "name": "amount",
                                "type": "uint256",
                                "value": "301,215,936,057,279,285"
                            }
                        ],
                        "signature": "LOG_SuccessfulSend(address,uint256)"
                    },
                    "id": 5,
                    "logData": "0x000000000000000000000000d9cceca05531f33da9ce95b9e96972373aed0a8b000000000000000000000000000000000000000000000000042e224c45618335",
                    "logDecoded": true,
                    "operation": "EVENT",
                    "revert": false,
                    "status": true,
                    "topics": [
                        "0xc7e416c5685d8971558840f05c5e63e02575b29997d8da6b9ba44dc10da6a370"
                    ]
                },
                "nodeType": 1
            }
        },
        "gasFlame": [
            {
                "children": [
                    {
                        "children": [
                            {
                                "children": [],
                                "depth": 0,
                                "name": "Initial Gas",
                                "value": 27032
                            },
                            {
                                "children": [
                                    {
                                        "children": [],
                                        "depth": 1,
                                        "name": "getAddress",
                                        "value": 418
                                    },
                                    {
                                        "children": [],
                                        "depth": 1,
                                        "name": "cbAddress",
                                        "value": 1039
                                    },
                                    {
                                        "children": [],
                                        "depth": 1,
                                        "name": "fallback",
                                        "value": 0
                                    }
                                ],
                                "depth": 0,
                                "name": "Executed Gas",
                                "value": 68936
                            }
                        ],
                        "depth": -1,
                        "name": "Actual Gas Used",
                        "value": 95968
                    },
                    {
                        "children": [],
                        "depth": -1,
                        "name": "Refunded Gas",
                        "value": 0
                    }
                ],
                "depth": -2,
                "name": "Total Gas",
                "value": 95968
            }
        ],
        "isConfirmed": true,
        "mainTrace": [
            {
                "children": [
                    {
                        "children": [
                            {
                                "children": [],
                                "depth": 1,
                                "id": 1,
                                "order": 1
                            },
                            {
                                "children": [],
                                "depth": 1,
                                "id": 2,
                                "order": 2
                            },
                            {
                                "children": [],
                                "depth": 1,
                                "id": 3,
                                "order": 3
                            },
                            {
                                "children": [],
                                "depth": 1,
                                "id": 4,
                                "order": 4
                            },
                            {
                                "children": [],
                                "depth": 1,
                                "id": 5,
                                "order": 5
                            }
                        ],
                        "depth": 0,
                        "id": 0,
                        "order": 0
                    }
                ],
                "depth": -1,
                "id": -1,
                "order": -1
            }
        ],
        "mainTraceNodeCount": 6,
        "parentIdMap": {
            "0": -1,
            "1": 0,
            "2": 0,
            "3": 0,
            "4": 0,
            "5": 0
        },
        "tidyTrace": [
            {
                "children": [
                    {
                        "children": [
                            {
                                "children": [],
                                "depth": 1,
                                "id": 1,
                                "order": 1
                            },
                            {
                                "children": [],
                                "depth": 1,
                                "id": 2,
                                "order": 2
                            },
                            {
                                "children": [],
                                "depth": 1,
                                "id": 3,
                                "order": 3
                            },
                            {
                                "children": [],
                                "depth": 1,
                                "id": 4,
                                "order": 4
                            },
                            {
                                "children": [],
                                "depth": 1,
                                "id": 5,
                                "order": 5
                            }
                        ],
                        "depth": 0,
                        "id": 0,
                        "order": 0
                    }
                ],
                "depth": -1,
                "id": -1,
                "order": -1
            }
        ],
        "tidyTraceNodeCount": 6
    },
    "state_change": {
        "stateChanges": [
            {
                "address": "0x49fddeae0b521dab8d0c4b77e7161094f971320d",
                "erc": "",
                "slots": [
                    {
                        "current": "0x0000000000000000000000000000000000000000000000000000000000000866",
                        "key": "0x6b26cb86a170268c396721281c0a530ab6956e2406054ba5ef18c25242dff4e5",
                        "prev": "0x0000000000000000000000000000000000000000000000000000000000000000"
                    },
                    {
                        "current": "0x0000000000000000000000000000000000000000000000029d81e3a7b408cc8d",
                        "key": "0x000000000000000000000000000000000000000000000000000000000000000e",
                        "prev": "0x0000000000000000000000000000000000000000000000029c85e68a00138040"
                    }
                ],
                "storageVariables": []
            }
        ]
    }
}