{
    "balance_change": {
        "balanceChanges": [
            {
                "account": "0x35baf35dabab9625d86683164d93416248ff2d6f",
                "assets": [
                    {
                        "address": "0xe5ca68b3ca2e219085914cd2a78f801c2d5ee29a",
                        "amount": "600",
                        "iconUrl": "",
                        "isERC1155": false,
                        "isERC721": false,
                        "sign": false,
                        "value": ""
                    }
                ]
            },
            {
                "account": "0x0000000000000000000000000000000000000000",
                "assets": [
                    {
                        "address": "0xe5ca68b3ca2e219085914cd2a78f801c2d5ee29a",
                        "amount": "600",
                        "iconUrl": "",
                        "isERC1155": false,
                        "isERC721": false,
                        "sign": true,
                        "value": ""
                    }
                ]
            }
        ]
    },
    "profile": {
        "basic_info": {
            "baseFee": "",
            "blockNumber": 10536727,
            "callData": "0xa9059cbb000000000000000000000000000000000000000000000000000000000000000000000000000000000000000000000000000000000000002086ac351052600000",
            "debugEnable": true,
            "errorInfo": "",
            "eventCount": 1,
            "feeRecipient": "0x7d6dabd6b5c75291a3258c29b418f5805792a875",
            "formatValue": "0",
            "gasLimit": 106000,
            "gasPrice": "74",
            "gasUsed": 36505,
            "intTxnCount": 0,
            "internalRevert": false,
            "internalRevertMessage": "",
            "isContractCreation": false,
            "isFlashloan": false,
            "maxFee": "",
            "nonce": 3869,
            "overwritedBlockNumber": -1,
            "priorityFee": "",
            "receiver": "0xe5ca68b3ca2e219085914cd2a78f801c2d5ee29a",
            "revertMessage": "",
            "sender": "0x35baf35dabab9625d86683164d93416248ff2d6f",
            "simulationEnable": true,
            "sourceTxnHash": "0x408c0a863f60fa87f3bd856d1c393e005af535ebefd7f470f09718076c126e42",
            "status": true,
            "timestamp": "2020-07-26T18:26:09Z",
            "transactionFee": "0.00270137",
            "txnHash": "0x408c0a863f60fa87f3bd856d1c393e005af535ebefd7f470f09718076c126e42",
            "txnIndex": 13,
            "type": 0,
            "value": "0"
        },
        "fund_flow": [
            {
                "amount": "600",
                "from": "0x35baf35dabab9625d86683164d93416248ff2d6f",
                "id": 1,
                "isERC1155": false,
                "isERC721": false,
                "isReverted": false,
                "order": 1,
                "to": "0x0000000000000000000000000000000000000000",
                "token": "0xe5ca68b3ca2e219085914cd2a78f801c2d5ee29a"
            }
        ],
        "token_infos": [
            {
                "address": "0xe5ca68b3ca2e219085914cd2a78f801c2d5ee29a",
                "decimals": 18
            },
            {
                "address": "0xeeeeeeeeeeeeeeeeeeeeeeeeeeeeeeeeeeeeeeee",
                "decimals": 18
            },
            {
                "address": "0xc02aaa39b223fe8d0a0e5c4f27ead9083c756cc2",
                "decimals": 18
            }
        ]
    },
    "address_label": {
        "labels": [
            {
                "address": "0x0000000000000000000000000000000000000004",
                "label": "Precompiled"
            },
            {
                "address": "0xeeeeeeeeeeeeeeeeeeeeeeeeeeeeeeeeeeeeeeee",
                "label": "Ether"
            },
            {
                "address": "0xe5ca68b3ca2e219085914cd2a78f801c2d5ee29a",
                "label": "EHS (EHS)"
            },
            {
                "address": "0x0000000000000000000000000000000000000000",
                "label": "Null Address"
            },
            {
                "address": "0x0000000000000000000000000000000000000001",
                "label": "Precompiled"
            },
            {
                "address": "0x0000000000000000000000000000000000000002",
                "label": "Precompiled"
            },
            {
                "address": "0x0000000000000000000000000000000000000003",
                "label": "Precompiled"
            }
        ]
    },
    "trace": {
        "accountLabels": null,
        "dataMap": {
            "-1": {
                "invocation": {
                    "address": "0x35baf35dabab9625d86683164d93416248ff2d6f",
                    "callData": "",
                    "decodedMethod": null,
                    "errorInfo": "",
                    "fromAddress": "",
                    "gasUsed": 0,
                    "id": -1,
                    "methodDecoded": false,
                    "operation": "",
                    "output": "",
                    "revert": false,
                    "revertMessage": "",
                    "selector": "",
                    "status": false,
                    "value": ""
                },
                "nodeType": 0
            },
            "0": {
                "invocation": {
                    "address": "0xe5ca68b3ca2e219085914cd2a78f801c2d5ee29a",
                    "callData": "0x000000000000000000000000000000000000000000000000000000000000000000000000000000000000000000000000000000000000002086ac351052600000",
                    "decodedMethod": {
                        "callParams": [
                            {
                                "name": "_to",
                                "type": "address",
                                "value": "0x0000000000000000000000000000000000000000"
                            },
                            {
                                "decimalAvailable": true,
                                "name": "_value",
                                "type": "uint256",
                                "value": "600,000,000,000,000,000,000"
                            }
                        ],
                        "constructorArguments": "",
                        "name": "transfer",
                        "returnParams": [
                            {
                                "name": "success",
                                "type": "bool",
                                "value": true
                            }
                        ],
                        "signature": "transfer(address,uint256)"
                    },
                    "errorInfo": "",
                    "fromAddress": "0x35baf35dabab9625d86683164d93416248ff2d6f",
                    "gasUsed": 36505,
                    "id": 0,
                    "methodDecoded": true,
                    "operation": "CALL",
                    "output": "0x0000000000000000000000000000000000000000000000000000000000000001",
                    "revert": false,
                    "revertMessage": "",
                    "selector": "0xa9059cbb",
                    "status": true,
                    "value": "0"
                },
                "nodeType": 0
            },
            "1": {
                "event": {
                    "contract": "0xe5ca68b3ca2e219085914cd2a78f801c2d5ee29a",
                    "decodedLog": {
                        "name": "Transfer",
                        "params": [
                            {
                                "name": "_from",
                                "type": "address",
                                "value": "0x35baf35dabab9625d86683164d93416248ff2d6f"
                            },
                            {
                                "name": "_to",
                                "type": "address",
                                "value": "0x0000000000000000000000000000000000000000"
                            },
                            {
                                "decimalAvailable": true,
                                "name": "_value",
                                "type": "uint256",
                                "value": "600,000,000,000,000,000,000"
                            }
                        ],
                        "signature": "Transfer(address,address,uint256)"
                    },
                    "id": 1,
                    "logData": "0x00000000000000000000000000000000000000000000002086ac351052600000",
                    "logDecoded": true,
                    "operation": "EVENT",
                    "revert": false,
                    "status": true,
                    "topics": [
                        "0xddf252ad1be2c89b69c2b068fc378daa952ba7f163c4a11628f55a4df523b3ef",
                        "0x00000000000000000000000035baf35dabab9625d86683164d93416248ff2d6f",
                        "0x0000000000000000000000000000000000000000000000000000000000000000"
                    ]
                },
                "nodeType": 1
            }
        },
        "gasFlame": [
            {
                "children": [
                    {
                        "children": [
                            {
                                "children": [],
                                "depth": 0,
                                "name": "Initial Gas",
                                "value": 21404
                            },
                            {
                                "children": [],
                                "depth": 0,
                                "name": "Executed Gas",
                                "value": 15101
                            }
                        ],
                        "depth": -1,
                        "name": "Actual Gas Used",
                        "value": 36505
                    },
                    {
                        "children": [],
                        "depth": -1,
                        "name": "Refunded Gas",
                        "value": 0
                    }
                ],
                "depth": -2,
                "name": "Total Gas",
                "value": 36505
            }
        ],
        "isConfirmed": true,
        "mainTrace": [
            {
                "children": [
                    {
                        "children": [
                            {
                                "children": [],
                                "depth": 1,
                                "id": 1,
                                "order": 1
                            }
                        ],
                        "depth": 0,
                        "id": 0,
                        "order": 0
                    }
                ],
                "depth": -1,
                "id": -1,
                "order": -1
            }
        ],
        "mainTraceNodeCount": 2,
        "parentIdMap": {
            "0": -1,
            "1": 0
        },
        "tidyTrace": [
            {
                "children": [
                    {
                        "children": [
                            {
                                "children": [],
                                "depth": 1,
                                "id": 1,
                                "order": 1
                            }
                        ],
                        "depth": 0,
                        "id": 0,
                        "order": 0
                    }
                ],
                "depth": -1,
                "id": -1,
                "order": -1
            }
        ],
        "tidyTraceNodeCount": 2
    },
    "state_change": {
        "stateChanges": [
            {
                "address": "0xe5ca68b3ca2e219085914cd2a78f801c2d5ee29a",
                "erc": "ERC-20",
                "slots": [
                    {
                        "current": "0x0000000000000000000000000000000000000000000d20d5b326263d9b7ae000",
                        "key": "0xc341867c274a16c5eaacc034a99624e2db0f5c16a8fb6c1e32fc6e4ab6e8db95",
                        "prev": "0x0000000000000000000000000000000000000000000d20f639d25b4deddae000"
                    },
                    {
                        "current": "0x0000000000000000000000000000000000000000000bafe9d4796f1d87792000",
                        "key": "0xa6eef7e35abe7026729641147f7915573c7e97b47efa546f5f6e3230263bcb49",
                        "prev": "0x0000000000000000000000000000000000000000000bafc94dcd3a0d35192000"
                    }
                ],
                "storageVariables": [
                    {
                        "name": "balances",
                        "type": "mapping(address => uint256)",
                        "value": {
                            "pairs": [
                                {
                                    "key": "0x0000000000000000000000000000000000000000",
                                    "value": {
                                        "current": "14128911552022864000000000",
                                        "prev": "14128311552022864000000000",
                                        "typeTag": 1
                                    }
                                },
                                {
                                    "key": "0x35baf35dabab9625d86683164d93416248ff2d6f",
                                    "value": {
                                        "current": "15871093447977136000000000",
                                        "prev": "15871693447977136000000000",
                                        "typeTag": 1
                                    }
                                }
                            ],
                            "typeTag": 4
                        }
                    }
                ]
            }
        ]
    }
}