{
    "balance_change": {
        "balanceChanges": [
            {
                "account": "0x86786534f0c88af39bf0109c7a3458e6b5c73de9",
                "assets": [
                    {
                        "address": "0xdac17f958d2ee523a2206206994597c13d831ec7",
                        "amount": "2,163.595797",
                        "iconUrl": "https://assets.blocksec.com/icon/fcea71f3193ce895be44bfdf941f7e4c9381dd587f273c2d1a27f1263d84e4ea.png",
                        "isERC1155": false,
                        "isERC721": false,
                        "sign": false,
                        "value": "2164.169193"
                    }
                ]
            },
            {
                "account": "0x3ca7972eded3019572c0f32a3c8026710824db38",
                "assets": [
                    {
                        "address": "0xdac17f958d2ee523a2206206994597c13d831ec7",
                        "amount": "2,163.595797",
                        "iconUrl": "https://assets.blocksec.com/icon/fcea71f3193ce895be44bfdf941f7e4c9381dd587f273c2d1a27f1263d84e4ea.png",
                        "isERC1155": false,
                        "isERC721": false,
                        "sign": true,
                        "value": "2164.169193"
                    }
                ]
            }
        ]
    },
    "profile": {
        "basic_info": {
            "baseFee": "17.833912843",
            "blockNumber": 15318396,
            "callData": "0xa9059cbb0000000000000000000000003ca7972eded3019572c0f32a3c8026710824db380000000000000000000000000000000000000000000000000000000080f5da15",
            "debugEnable": true,
            "errorInfo": "",
            "eventCount": 1,
            "feeRecipient": "0xc730b028da66ebb14f20e67c68dd809fbc49890d",
            "formatValue": "0",
            "gasLimit": 94813,
            "gasPrice": "19.333912843",
            "gasUsed": 58409,
            "intTxnCount": 0,
            "internalRevert": false,
            "internalRevertMessage": "",
            "isContractCreation": false,
            "isFlashloan": false,
            "maxFee": "29.636155162",
            "nonce": 38,
            "overwritedBlockNumber": -1,
            "priorityFee": "1.5",
            "receiver": "0xdac17f958d2ee523a2206206994597c13d831ec7",
            "revertMessage": "",
            "sender": "0x86786534f0c88af39bf0109c7a3458e6b5c73de9",
            "simulationEnable": true,
            "sourceTxnHash": "0x404b96e0d4eee46d3a2c2955572b879b1adcf646c70a7362e3e0ca2b844e7cef",
            "status": true,
            "timestamp": "2022-08-11T03:40:26Z",
            "transactionFee": "0.001129274515246787",
            "txnHash": "0x404b96e0d4eee46d3a2c2955572b879b1adcf646c70a7362e3e0ca2b844e7cef",
            "txnIndex": 102,
            "type": 2,
            "value": "0"
        },
        "fund_flow": [
            {
                "amount": "2,163.595797",
                "from": "0x86786534f0c88af39bf0109c7a3458e6b5c73de9",
                "id": 1,
                "isERC1155": false,
                "isERC721": false,
                "isReverted": false,
                "order": 1,
                "to": "0x3ca7972eded3019572c0f32a3c8026710824db38",
                "token": "0xdac17f958d2ee523a2206206994597c13d831ec7"
            }
        ],
        "token_infos": [
            {
                "address": "0xc02aaa39b223fe8d0a0e5c4f27ead9083c756cc2",
                "decimals": 18
            },
            {
                "address": "0xdac17f958d2ee523a2206206994597c13d831ec7",
                "decimals": 6
            },
            {
                "address": "0xeeeeeeeeeeeeeeeeeeeeeeeeeeeeeeeeeeeeeeee",
                "decimals": 18
            }
        ]
    },
    "address_label": {
        "labels": [
            {
                "address": "0x3ca7972eded3019572c0f32a3c8026710824db38",
                "label": "BINANCE"
            },
            {
                "address": "0xdac17f958d2ee523a2206206994597c13d831ec7",
                "label": "Tether: USDT Stablecoin"
            },
            {
                "address": "0x0000000000000000000000000000000000000001",
                "label": "Precompiled"
            },
            {
                "address": "0x0000000000000000000000000000000000000002",
                "label": "Precompiled"
            },
            {
                "address": "0x0000000000000000000000000000000000000003",
                "label": "Precompiled"
            },
            {
                "address": "0x0000000000000000000000000000000000000004",
                "label": "Precompiled"
            },
            {
                "address": "0xeeeeeeeeeeeeeeeeeeeeeeeeeeeeeeeeeeeeeeee",
                "label": "Ether"
            }
        ]
    },
    "trace": {
        "accountLabels": null,
        "dataMap": {
            "-1": {
                "invocation": {
                    "address": "0x86786534f0c88af39bf0109c7a3458e6b5c73de9",
                    "callData": "",
                    "decodedMethod": null,
                    "errorInfo": "",
                    "fromAddress": "",
                    "gasUsed": 0,
                    "id": -1,
                    "methodDecoded": false,
                    "operation": "",
                    "output": "",
                    "revert": false,
                    "revertMessage": "",
                    "selector": "",
                    "status": false,
                    "value": ""
                },
                "nodeType": 0
            },
            "0": {
                "invocation": {
                    "address": "0xdac17f958d2ee523a2206206994597c13d831ec7",
                    "callData": "0x0000000000000000000000003ca7972eded3019572c0f32a3c8026710824db380000000000000000000000000000000000000000000000000000000080f5da15",
                    "decodedMethod": {
                        "callParams": [
                            {
                                "name": "_to",
                                "type": "address",
                                "value": "0x3ca7972eded3019572c0f32a3c8026710824db38"
                            },
                            {
                                "decimalAvailable": true,
                                "name": "_value",
                                "type": "uint256",
                                "value": "2,163,595,797"
                            }
                        ],
                        "constructorArguments": "",
                        "name": "transfer",
                        "returnParams": [],
                        "signature": "transfer(address,uint256)"
                    },
                    "errorInfo": "",
                    "fromAddress": "0x86786534f0c88af39bf0109c7a3458e6b5c73de9",
                    "gasUsed": 58409,
                    "id": 0,
                    "methodDecoded": true,
                    "operation": "CALL",
                    "output": "",
                    "revert": false,
                    "revertMessage": "",
                    "selector": "0xa9059cbb",
                    "status": true,
                    "value": "0"
                },
                "nodeType": 0
            },
            "1": {
                "event": {
                    "contract": "0xdac17f958d2ee523a2206206994597c13d831ec7",
                    "decodedLog": {
                        "name": "Transfer",
                        "params": [
                            {
                                "name": "from",
                                "type": "address",
                                "value": "0x86786534f0c88af39bf0109c7a3458e6b5c73de9"
                            },
                            {
                                "name": "to",
                                "type": "address",
                                "value": "0x3ca7972eded3019572c0f32a3c8026710824db38"
                            },
                            {
                                "decimalAvailable": true,
                                "name": "value",
                                "type": "uint256",
                                "value": "2,163,595,797"
                            }
                        ],
                        "signature": "Transfer(address,address,uint256)"
                    },
                    "id": 1,
                    "logData": "0x0000000000000000000000000000000000000000000000000000000080f5da15",
                    "logDecoded": true,
                    "operation": "EVENT",
                    "revert": false,
                    "status": true,
                    "topics": [
                        "0xddf252ad1be2c89b69c2b068fc378daa952ba7f163c4a11628f55a4df523b3ef",
                        "0x00000000000000000000000086786534f0c88af39bf0109c7a3458e6b5c73de9",
                        "0x0000000000000000000000003ca7972eded3019572c0f32a3c8026710824db38"
                    ]
                },
                "nodeType": 1
            }
        },
        "gasFlame": [
            {
                "children": [
                    {
                        "children": [
                            {
                                "children": [],
                                "depth": 0,
                                "name": "Initial Gas",
                                "value": 21608
                            },
                            {
                                "children": [],
                                "depth": 0,
                                "name": "Executed Gas",
                                "value": 41601
                            }
                        ],
                        "depth": -1,
                        "name": "Actual Gas Used",
                        "value": 58409
                    },
                    {
                        "children": [],
                        "depth": -1,
                        "name": "Refunded Gas",
                        "value": 4800
                    }
                ],
                "depth": -2,
                "name": "Total Gas",
                "value": 63209
            }
        ],
        "isConfirmed": true,
        "mainTrace": [
            {
                "children": [
                    {
                        "children": [
                            {
                                "children": [],
                                "depth": 1,
                                "id": 1,
                                "order": 1
                            }
                        ],
                        "depth": 0,
                        "id": 0,
                        "order": 0
                    }
                ],
                "depth": -1,
                "id": -1,
                "order": -1
            }
        ],
        "mainTraceNodeCount": 2,
        "parentIdMap": {
            "0": -1,
            "1": 0
        },
        "tidyTrace": [
            {
                "children": [
                    {
                        "children": [
                            {
                                "children": [],
                                "depth": 1,
                                "id": 1,
                                "order": 1
                            }
                        ],
                        "depth": 0,
                        "id": 0,
                        "order": 0
                    }
                ],
                "depth": -1,
                "id": -1,
                "order": -1
            }
        ],
        "tidyTraceNodeCount": 2
    },
    "state_change": {
        "stateChanges": [
            {
                "address": "0xdac17f958d2ee523a2206206994597c13d831ec7",
                "erc": "ERC-20",
                "slots": [
                    {
                        "current": "0x0000000000000000000000000000000000000000000000000000000000000000",
                        "key": "0x653fd87c08ee27ba1c63cfe499577f09908389bb612971e0f7544f21403ab997",
                        "prev": "0x0000000000000000000000000000000000000000000000000000000080f5da15"
                    },
                    {
                        "current": "0x0000000000000000000000000000000000000000000000000000000080f5da15",
                        "key": "0xbfd4cc81354bc303922ee63169927bdbb8306aa3e20386270fc4d0c8867a5009",
                        "prev": "0x0000000000000000000000000000000000000000000000000000000000000000"
                    }
                ],
                "storageVariables": [
                    {
                        "name": "balances",
                        "type": "mapping(address => uint256)",
                        "value": {
                            "pairs": [
                                {
                                    "key": "0x3ca7972eded3019572c0f32a3c8026710824db38",
                                    "value": {
                                        "current": "2163595797",
                                        "prev": "0",
                                        "typeTag": 1
                                    }
                                },
                                {
                                    "key": "0x86786534f0c88af39bf0109c7a3458e6b5c73de9",
                                    "value": {
                                        "current": "0",
                                        "prev": "2163595797",
                                        "typeTag": 1
                                    }
                                }
                            ],
                            "typeTag": 4
                        }
                    }
                ]
            }
        ]
    }
}