{
    "balance_change": {
        "balanceChanges": [
            {
                "account": "0xc42a05f13414d70b26575134a6b8b381ee4fa07a",
                "assets": [
                    {
                        "address": "0xa0b86991c6218b36c1d19d4a2e9eb0ce3606eb48",
                        "amount": "212.510896",
                        "iconUrl": "https://assets.blocksec.com/icon/0347a86cc07dbd03fdc5db01a4e5ac7e1217f90e0b6e4bb0f75cbcca09160989.png",
                        "isERC1155": false,
                        "isERC721": false,
                        "sign": false,
                        "value": "212.48964491040000234"
                    },
                    {
                        "address": "0xeeeeeeeeeeeeeeeeeeeeeeeeeeeeeeeeeeeeeeee",
                        "amount": "0.060448467144061714",
                        "iconUrl": "https://assets.blocksec.com/image/1663669189317-3.png",
                        "isERC1155": false,
                        "isERC721": false,
                        "sign": true,
                        "value": "210.7393571592919686"
                    }
                ]
            },
            {
                "account": "0x88e6a0c2ddd26feeb64f039a2c41296fcb3f5640",
                "assets": [
                    {
                        "address": "0xc02aaa39b223fe8d0a0e5c4f27ead9083c756cc2",
                        "amount": "0.0609820615787566",
                        "iconUrl": "https://assets.blocksec.com/icon/f1cb2d02c471d545bbc7722daf3277fd852d98e63d118771af7047bd8256c516.png",
                        "isERC1155": false,
                        "isERC721": false,
                        "sign": false,
                        "value": "212.5996086195802367"
                    },
                    {
                        "address": "0xa0b86991c6218b36c1d19d4a2e9eb0ce3606eb48",
                        "amount": "212.510896",
                        "iconUrl": "https://assets.blocksec.com/icon/0347a86cc07dbd03fdc5db01a4e5ac7e1217f90e0b6e4bb0f75cbcca09160989.png",
                        "isERC1155": false,
                        "isERC721": false,
                        "sign": true,
                        "value": "212.48964491040000234"
                    }
                ]
            },
            {
                "account": "0xc02aaa39b223fe8d0a0e5c4f27ead9083c756cc2",
                "assets": [
                    {
                        "address": "0xeeeeeeeeeeeeeeeeeeeeeeeeeeeeeeeeeeeeeeee",
                        "amount": "0.0609820615787566",
                        "iconUrl": "https://assets.blocksec.com/image/1663669189317-3.png",
                        "isERC1155": false,
                        "isERC721": false,
                        "sign": false,
                        "value": "212.5996086195802367"
                    },
                    {
                        "address": "0xc02aaa39b223fe8d0a0e5c4f27ead9083c756cc2",
                        "amount": "0.0609820615787566",
                        "iconUrl": "https://assets.blocksec.com/icon/f1cb2d02c471d545bbc7722daf3277fd852d98e63d118771af7047bd8256c516.png",
                        "isERC1155": false,
                        "isERC721": false,
                        "sign": true,
                        "value": "212.5996086195802367"
                    }
                ]
            },
            {
                "account": "0xf326e4de8f66a0bdc0970b79e0924e33c79f1915",
                "assets": [
                    {
                        "address": "0xeeeeeeeeeeeeeeeeeeeeeeeeeeeeeeeeeeeeeeee",
                        "amount": "0.000533594434694886",
                        "iconUrl": "https://assets.blocksec.com/image/1663669189317-3.png",
                        "isERC1155": false,
                        "isERC721": false,
                        "sign": true,
                        "value": "1.8602514418110651835"
                    }
                ]
            }
        ]
    },
    "profile": {
        "basic_info": {
            "baseFee": "3.057698724",
            "blockNumber": 20145998,
            "callData": "0x5f5755290000000000000000000000000000000000000000000000000000000000000080000000000000000000000000a0b86991c6218b36c1d19d4a2e9eb0ce3606eb48000000000000000000000000000000000000000000000000000000000caaa8b000000000000000000000000000000000000000000000000000000000000000c000000000000000000000000000000000000000000000000000000000000000136f6e65496e6368563546656544796e616d69630000000000000000000000000000000000000000000000000000000000000000000000000000000000000001e0000000000000000000000000a0b86991c6218b36c1d19d4a2e9eb0ce3606eb480000000000000000000000000000000000000000000000000000000000000000000000000000000000000000000000000000000000000000000000000caaa8b000000000000000000000000000000000000000000000000000d27626cd9f101500000000000000000000000000000000000000000000000000000000000001200000000000000000000000000000000000000000000000000001e54d22bbeee6000000000000000000000000f326e4de8f66a0bdc0970b79e0924e33c79f1915000000000000000000000000000000000000000000000000000000000000000100000000000000000000000000000000000000000000000000000000000000a8e449022e000000000000000000000000000000000000000000000000000000000caaa8b000000000000000000000000000000000000000000000000000d451bf323884710000000000000000000000000000000000000000000000000000000000000060000000000000000000000000000000000000000000000000000000000000000120000000000000000000000088e6a0c2ddd26feeb64f039a2c41296fcb3f56407dcbea7c0000000000000000000000000000000000000000000000000113",
            "debugEnable": true,
            "errorInfo": "",
            "eventCount": 7,
            "feeRecipient": "0x95222290dd7278aa3ddd389cc1e1d165cc4bafe5",
            "formatValue": "0",
            "gasLimit": 246829,
            "gasPrice": "4.057698728",
            "gasUsed": 201420,
            "intTxnCount": 27,
            "internalRevert": false,
            "internalRevertMessage": "",
            "isContractCreation": false,
            "isFlashloan": false,
            "maxFee": "5.927455767",
            "nonce": 70,
            "overwritedBlockNumber": -1,
            "priorityFee": "1.000000004",
            "receiver": "0x881d40237659c251811cec9c364ef91dc08d300c",
            "revertMessage": "",
            "sender": "0xc42a05f13414d70b26575134a6b8b381ee4fa07a",
            "simulationEnable": true,
            "sourceTxnHash": "0x409a7f7b828d7ed21a76054cf10c8664454bc0e80862993e91bd5b4fac96264a",
            "status": true,
            "timestamp": "2024-06-22T08:17:23Z",
            "transactionFee": "0.00081730167779376",
            "txnHash": "0x409a7f7b828d7ed21a76054cf10c8664454bc0e80862993e91bd5b4fac96264a",
            "txnIndex": 11,
            "type": 2,
            "value": "0"
        },
        "fund_flow": [
            {
                "amount": "212.510896",
                "from": "0xc42a05f13414d70b26575134a6b8b381ee4fa07a",
                "id": 1,
                "isERC1155": false,
                "isERC721": false,
                "isReverted": false,
                "order": 1,
                "to": "0x74de5d4fcbf63e00296fd95d33236b9794016631",
                "token": "0xa0b86991c6218b36c1d19d4a2e9eb0ce3606eb48"
            },
            {
                "amount": "0.0609820615787566",
                "from": "0x88e6a0c2ddd26feeb64f039a2c41296fcb3f5640",
                "id": 2,
                "isERC1155": false,
                "isERC721": false,
                "isReverted": false,
                "order": 2,
                "to": "0x1111111254eeb25477b68fb85ed929f73a960582",
                "token": "0xc02aaa39b223fe8d0a0e5c4f27ead9083c756cc2"
            },
            {
                "amount": "212.510896",
                "from": "0x74de5d4fcbf63e00296fd95d33236b9794016631",
                "id": 3,
                "isERC1155": false,
                "isERC721": false,
                "isReverted": false,
                "order": 3,
                "to": "0x88e6a0c2ddd26feeb64f039a2c41296fcb3f5640",
                "token": "0xa0b86991c6218b36c1d19d4a2e9eb0ce3606eb48"
            },
            {
                "amount": "0.0609820615787566",
                "from": "0xc02aaa39b223fe8d0a0e5c4f27ead9083c756cc2",
                "id": 4,
                "isERC1155": false,
                "isERC721": false,
                "isReverted": false,
                "order": 4,
                "to": "0x1111111254eeb25477b68fb85ed929f73a960582",
                "token": "0xeeeeeeeeeeeeeeeeeeeeeeeeeeeeeeeeeeeeeeee"
            },
            {
                "amount": "0.0609820615787566",
                "from": "0x1111111254eeb25477b68fb85ed929f73a960582",
                "id": 5,
                "isERC1155": false,
                "isERC721": false,
                "isReverted": false,
                "order": 5,
                "to": "0xc02aaa39b223fe8d0a0e5c4f27ead9083c756cc2",
                "token": "0xc02aaa39b223fe8d0a0e5c4f27ead9083c756cc2"
            },
            {
                "amount": "0.0609820615787566",
                "from": "0x1111111254eeb25477b68fb85ed929f73a960582",
                "id": 6,
                "isERC1155": false,
                "isERC721": false,
                "isReverted": false,
                "order": 6,
                "to": "0x74de5d4fcbf63e00296fd95d33236b9794016631",
                "token": "0xeeeeeeeeeeeeeeeeeeeeeeeeeeeeeeeeeeeeeeee"
            },
            {
                "amount": "0.000533594434694886",
                "from": "0x74de5d4fcbf63e00296fd95d33236b9794016631",
                "id": 7,
                "isERC1155": false,
                "isERC721": false,
                "isReverted": false,
                "order": 7,
                "to": "0xf326e4de8f66a0bdc0970b79e0924e33c79f1915",
                "token": "0xeeeeeeeeeeeeeeeeeeeeeeeeeeeeeeeeeeeeeeee"
            },
            {
                "amount": "0.060448467144061714",
                "from": "0x74de5d4fcbf63e00296fd95d33236b9794016631",
                "id": 8,
                "isERC1155": false,
                "isERC721": false,
                "isReverted": false,
                "order": 8,
                "to": "0xc42a05f13414d70b26575134a6b8b381ee4fa07a",
                "token": "0xeeeeeeeeeeeeeeeeeeeeeeeeeeeeeeeeeeeeeeee"
            }
        ],
        "token_infos": [
            {
                "address": "0xa0b86991c6218b36c1d19d4a2e9eb0ce3606eb48",
                "decimals": 6
            },
            {
                "address": "0xc02aaa39b223fe8d0a0e5c4f27ead9083c756cc2",
                "decimals": 18
            },
            {
                "address": "0xeeeeeeeeeeeeeeeeeeeeeeeeeeeeeeeeeeeeeeee",
                "decimals": 18
            }
        ]
    },
    "address_label": {
        "labels": [
            {
                "address": "0x74de5d4fcbf63e00296fd95d33236b9794016631",
                "label": "MetaMask: Swaps Spender"
            },
            {
                "address": "0x881d40237659c251811cec9c364ef91dc08d300c",
                "label": "Metamask: Swap Router"
            },
            {
                "address": "0x0000000000000000000000000000000000000001",
                "label": "Precompiled"
            },
            {
                "address": "0x0000000000000000000000000000000000000004",
                "label": "Precompiled"
            },
            {
                "address": "0x0000000000000000000000000000000000000002",
                "label": "Precompiled"
            },
            {
                "address": "0x0000000000000000000000000000000000000003",
                "label": "Precompiled"
            },
            {
                "address": "0xeeeeeeeeeeeeeeeeeeeeeeeeeeeeeeeeeeeeeeee",
                "label": "Ether"
            },
            {
                "address": "0xf326e4de8f66a0bdc0970b79e0924e33c79f1915",
                "label": "MetaMask: DS Proxy"
            },
            {
                "address": "0x1111111254eeb25477b68fb85ed929f73a960582",
                "label": "Aggregation Router V5"
            },
            {
                "address": "0x88e6a0c2ddd26feeb64f039a2c41296fcb3f5640",
                "label": "Uniswap V3: USDC 3"
            },
            {
                "address": "0x43506849d7c04f9138d1a2050bbf3a0c054402dd",
                "label": "FiatTokenV2_2"
            },
            {
                "address": "0xa0b86991c6218b36c1d19d4a2e9eb0ce3606eb48",
                "label": "Circle: USDC Token"
            },
            {
                "address": "0xc02aaa39b223fe8d0a0e5c4f27ead9083c756cc2",
                "label": "Wrapped Ether (WETH)"
            },
            {
                "address": "0xd9db270c1b5e3bd161e8c8503c55ceabee709552",
                "label": "Safe: Singleton 1.3.0"
            }
        ]
    },
    "trace": {
        "accountLabels": null,
        "dataMap": {
            "-1": {
                "invocation": {
                    "address": "0xc42a05f13414d70b26575134a6b8b381ee4fa07a",
                    "callData": "",
                    "decodedMethod": null,
                    "errorInfo": "",
                    "fromAddress": "",
                    "gasUsed": 0,
                    "id": -1,
                    "methodDecoded": false,
                    "operation": "",
                    "output": "",
                    "revert": false,
                    "revertMessage": "",
                    "selector": "",
                    "status": false,
                    "value": ""
                },
                "nodeType": 0
            },
            "0": {
                "invocation": {
                    "address": "0x881d40237659c251811cec9c364ef91dc08d300c",
                    "callData": "0x0000000000000000000000000000000000000000000000000000000000000080000000000000000000000000a0b86991c6218b36c1d19d4a2e9eb0ce3606eb48000000000000000000000000000000000000000000000000000000000caaa8b000000000000000000000000000000000000000000000000000000000000000c000000000000000000000000000000000000000000000000000000000000000136f6e65496e6368563546656544796e616d69630000000000000000000000000000000000000000000000000000000000000000000000000000000000000001e0000000000000000000000000a0b86991c6218b36c1d19d4a2e9eb0ce3606eb480000000000000000000000000000000000000000000000000000000000000000000000000000000000000000000000000000000000000000000000000caaa8b000000000000000000000000000000000000000000000000000d27626cd9f101500000000000000000000000000000000000000000000000000000000000001200000000000000000000000000000000000000000000000000001e54d22bbeee6000000000000000000000000f326e4de8f66a0bdc0970b79e0924e33c79f1915000000000000000000000000000000000000000000000000000000000000000100000000000000000000000000000000000000000000000000000000000000a8e449022e000000000000000000000000000000000000000000000000000000000caaa8b000000000000000000000000000000000000000000000000000d451bf323884710000000000000000000000000000000000000000000000000000000000000060000000000000000000000000000000000000000000000000000000000000000120000000000000000000000088e6a0c2ddd26feeb64f039a2c41296fcb3f56407dcbea7c0000000000000000000000000000000000000000000000000113",
                    "decodedMethod": {
                        "callParams": [
                            {
                                "name": "aggregatorId",
                                "type": "string",
                                "value": "oneInchV5FeeDynamic"
                            },
                            {
                                "name": "tokenFrom",
                                "type": "address",
                                "value": "0xa0b86991c6218b36c1d19d4a2e9eb0ce3606eb48"
                            },
                            {
                                "name": "amount",
                                "type": "uint256",
                                "value": "212,510,896"
                            },
                            {
                                "name": "data",
                                "type": "bytes",
                                "value": "0x000000000000000000000000a0b86991c6218b36c1d19d4a2e9eb0ce3606eb480000000000000000000000000000000000000000000000000000000000000000000000000000000000000000000000000000000000000000000000000caaa8b000000000000000000000000000000000000000000000000000d27626cd9f101500000000000000000000000000000000000000000000000000000000000001200000000000000000000000000000000000000000000000000001e54d22bbeee6000000000000000000000000f326e4de8f66a0bdc0970b79e0924e33c79f1915000000000000000000000000000000000000000000000000000000000000000100000000000000000000000000000000000000000000000000000000000000a8e449022e000000000000000000000000000000000000000000000000000000000caaa8b000000000000000000000000000000000000000000000000000d451bf323884710000000000000000000000000000000000000000000000000000000000000060000000000000000000000000000000000000000000000000000000000000000120000000000000000000000088e6a0c2ddd26feeb64f039a2c41296fcb3f56407dcbea7c000000000000000000000000000000000000000000000000"
                            }
                        ],
                        "constructorArguments": "",
                        "name": "swap",
                        "returnParams": [],
                        "signature": "swap(string,address,uint256,bytes)"
                    },
                    "errorInfo": "",
                    "fromAddress": "0xc42a05f13414d70b26575134a6b8b381ee4fa07a",
                    "gasUsed": 201420,
                    "id": 0,
                    "methodDecoded": true,
                    "operation": "CALL",
                    "output": "",
                    "revert": false,
                    "revertMessage": "",
                    "selector": "0x5f575529",
                    "status": true,
                    "value": "0"
                },
                "nodeType": 0
            },
            "1": {
                "invocation": {
                    "address": "0xa0b86991c6218b36c1d19d4a2e9eb0ce3606eb48",
                    "callData": "0x000000000000000000000000c42a05f13414d70b26575134a6b8b381ee4fa07a00000000000000000000000074de5d4fcbf63e00296fd95d33236b9794016631000000000000000000000000000000000000000000000000000000000caaa8b0",
                    "decodedMethod": {
                        "callParams": [
                            {
                                "name": "from",
                                "type": "address",
                                "value": "0xc42a05f13414d70b26575134a6b8b381ee4fa07a"
                            },
                            {
                                "name": "to",
                                "type": "address",
                                "value": "0x74de5d4fcbf63e00296fd95d33236b9794016631"
                            },
                            {
                                "decimalAvailable": true,
                                "name": "value",
                                "type": "uint256",
                                "value": "212,510,896"
                            }
                        ],
                        "constructorArguments": "",
                        "name": "transferFrom",
                        "returnParams": [
                            {
                                "name": "",
                                "type": "bool",
                                "value": true
                            }
                        ],
                        "signature": "transferFrom(address,address,uint256)"
                    },
                    "errorInfo": "",
                    "fromAddress": "0x881d40237659c251811cec9c364ef91dc08d300c",
                    "gasUsed": 48549,
                    "id": 1,
                    "methodDecoded": true,
                    "operation": "CALL",
                    "output": "0x0000000000000000000000000000000000000000000000000000000000000001",
                    "revert": false,
                    "revertMessage": "",
                    "selector": "0x23b872dd",
                    "status": true,
                    "value": "0"
                },
                "nodeType": 0
            },
            "10": {
                "invocation": {
                    "address": "0xc02aaa39b223fe8d0a0e5c4f27ead9083c756cc2",
                    "callData": "0x0000000000000000000000001111111254eeb25477b68fb85ed929f73a96058200000000000000000000000000000000000000000000000000d8a6dca612a1f8",
                    "decodedMethod": {
                        "callParams": [
                            {
                                "name": "dst",
                                "type": "address",
                                "value": "0x1111111254eeb25477b68fb85ed929f73a960582"
                            },
                            {
                                "decimalAvailable": true,
                                "name": "wad",
                                "type": "uint256",
                                "value": "60,982,061,578,756,600"
                            }
                        ],
                        "constructorArguments": "",
                        "name": "transfer",
                        "returnParams": [
                            {
                                "name": "",
                                "type": "bool",
                                "value": true
                            }
                        ],
                        "signature": "transfer(address,uint256)"
                    },
                    "errorInfo": "",
                    "fromAddress": "0x88e6a0c2ddd26feeb64f039a2c41296fcb3f5640",
                    "gasUsed": 12862,
                    "id": 10,
                    "methodDecoded": true,
                    "operation": "CALL",
                    "output": "0x0000000000000000000000000000000000000000000000000000000000000001",
                    "revert": false,
                    "revertMessage": "",
                    "selector": "0xa9059cbb",
                    "status": true,
                    "value": "0"
                },
                "nodeType": 0
            },
            "11": {
                "event": {
                    "contract": "0xc02aaa39b223fe8d0a0e5c4f27ead9083c756cc2",
                    "decodedLog": {
                        "name": "Transfer",
                        "params": [
                            {
                                "name": "src",
                                "type": "address",
                                "value": "0x88e6a0c2ddd26feeb64f039a2c41296fcb3f5640"
                            },
                            {
                                "name": "dst",
                                "type": "address",
                                "value": "0x1111111254eeb25477b68fb85ed929f73a960582"
                            },
                            {
                                "decimalAvailable": true,
                                "name": "wad",
                                "type": "uint256",
                                "value": "60,982,061,578,756,600"
                            }
                        ],
                        "signature": "Transfer(address,address,uint256)"
                    },
                    "id": 11,
                    "logData": "0x00000000000000000000000000000000000000000000000000d8a6dca612a1f8",
                    "logDecoded": true,
                    "operation": "EVENT",
                    "revert": false,
                    "status": true,
                    "topics": [
                        "0xddf252ad1be2c89b69c2b068fc378daa952ba7f163c4a11628f55a4df523b3ef",
                        "0x00000000000000000000000088e6a0c2ddd26feeb64f039a2c41296fcb3f5640",
                        "0x0000000000000000000000001111111254eeb25477b68fb85ed929f73a960582"
                    ]
                },
                "nodeType": 1
            },
            "12": {
                "invocation": {
                    "address": "0xa0b86991c6218b36c1d19d4a2e9eb0ce3606eb48",
                    "callData": "0x00000000000000000000000088e6a0c2ddd26feeb64f039a2c41296fcb3f5640",
                    "decodedMethod": {
                        "callParams": [
                            {
                                "name": "account",
                                "type": "address",
                                "value": "0x88e6a0c2ddd26feeb64f039a2c41296fcb3f5640"
                            }
                        ],
                        "constructorArguments": "",
                        "name": "balanceOf",
                        "returnParams": [
                            {
                                "decimalAvailable": true,
                                "name": "",
                                "type": "uint256",
                                "value": "89,312,513,214,438"
                            }
                        ],
                        "signature": "balanceOf(address)"
                    },
                    "errorInfo": "",
                    "fromAddress": "0x88e6a0c2ddd26feeb64f039a2c41296fcb3f5640",
                    "gasUsed": 3339,
                    "id": 12,
                    "methodDecoded": true,
                    "operation": "STATICCALL",
                    "output": "0x0000000000000000000000000000000000000000000000000000513ab09fc7e6",
                    "revert": false,
                    "revertMessage": "",
                    "selector": "0x70a08231",
                    "status": true,
                    "value": "0"
                },
                "nodeType": 0
            },
            "13": {
                "invocation": {
                    "address": "0x43506849d7c04f9138d1a2050bbf3a0c054402dd",
                    "callData": "0x00000000000000000000000088e6a0c2ddd26feeb64f039a2c41296fcb3f5640",
                    "decodedMethod": {
                        "callParams": [
                            {
                                "name": "account",
                                "type": "address",
                                "value": "0x88e6a0c2ddd26feeb64f039a2c41296fcb3f5640"
                            }
                        ],
                        "constructorArguments": "",
                        "name": "balanceOf",
                        "returnParams": [
                            {
                                "decimalAvailable": true,
                                "name": "",
                                "type": "uint256",
                                "value": "89,312,513,214,438"
                            }
                        ],
                        "signature": "balanceOf(address)"
                    },
                    "errorInfo": "",
                    "fromAddress": "0xa0b86991c6218b36c1d19d4a2e9eb0ce3606eb48",
                    "gasUsed": 2553,
                    "id": 13,
                    "methodDecoded": true,
                    "operation": "DELEGATECALL",
                    "output": "0x0000000000000000000000000000000000000000000000000000513ab09fc7e6",
                    "revert": false,
                    "revertMessage": "",
                    "selector": "0x70a08231",
                    "status": true,
                    "value": "0"
                },
                "nodeType": 0
            },
            "14": {
                "invocation": {
                    "address": "0x1111111254eeb25477b68fb85ed929f73a960582",
                    "callData": "0x000000000000000000000000000000000000000000000000000000000caaa8b0ffffffffffffffffffffffffffffffffffffffffffffffffff27592359ed5e080000000000000000000000000000000000000000000000000000000000000060000000000000000000000000000000000000000000000000000000000000002000000000000000000000000074de5d4fcbf63e00296fd95d33236b9794016631",
                    "decodedMethod": {
                        "callParams": [
                            {
                                "name": "amount0Delta",
                                "type": "int256",
                                "value": "212,510,896"
                            },
                            {
                                "name": "amount1Delta",
                                "type": "int256",
                                "value": "-60,982,061,578,756,600"
                            },
                            {
                                "name": "",
                                "type": "bytes",
                                "value": "0x00000000000000000000000074de5d4fcbf63e00296fd95d33236b9794016631"
                            }
                        ],
                        "constructorArguments": "",
                        "name": "uniswapV3SwapCallback",
                        "returnParams": [],
                        "signature": "uniswapV3SwapCallback(int256,int256,bytes)"
                    },
                    "errorInfo": "",
                    "fromAddress": "0x88e6a0c2ddd26feeb64f039a2c41296fcb3f5640",
                    "gasUsed": 16616,
                    "id": 14,
                    "methodDecoded": true,
                    "operation": "CALL",
                    "output": "",
                    "revert": false,
                    "revertMessage": "",
                    "selector": "0xfa461e33",
                    "status": true,
                    "value": "0"
                },
                "nodeType": 0
            },
            "15": {
                "invocation": {
                    "address": "0x88e6a0c2ddd26feeb64f039a2c41296fcb3f5640",
                    "callData": "0x",
                    "decodedMethod": {
                        "callParams": [],
                        "constructorArguments": "",
                        "name": "token0",
                        "returnParams": [
                            {
                                "name": "",
                                "type": "address",
                                "value": "0xa0b86991c6218b36c1d19d4a2e9eb0ce3606eb48"
                            }
                        ],
                        "signature": "token0()"
                    },
                    "errorInfo": "",
                    "fromAddress": "0x1111111254eeb25477b68fb85ed929f73a960582",
                    "gasUsed": 266,
                    "id": 15,
                    "methodDecoded": true,
                    "operation": "STATICCALL",
                    "output": "0x000000000000000000000000a0b86991c6218b36c1d19d4a2e9eb0ce3606eb48",
                    "revert": false,
                    "revertMessage": "",
                    "selector": "0x0dfe1681",
                    "status": true,
                    "value": "0"
                },
                "nodeType": 0
            },
            "16": {
                "invocation": {
                    "address": "0x88e6a0c2ddd26feeb64f039a2c41296fcb3f5640",
                    "callData": "0x",
                    "decodedMethod": {
                        "callParams": [],
                        "constructorArguments": "",
                        "name": "token1",
                        "returnParams": [
                            {
                                "name": "",
                                "type": "address",
                                "value": "0xc02aaa39b223fe8d0a0e5c4f27ead9083c756cc2"
                            }
                        ],
                        "signature": "token1()"
                    },
                    "errorInfo": "",
                    "fromAddress": "0x1111111254eeb25477b68fb85ed929f73a960582",
                    "gasUsed": 308,
                    "id": 16,
                    "methodDecoded": true,
                    "operation": "STATICCALL",
                    "output": "0x000000000000000000000000c02aaa39b223fe8d0a0e5c4f27ead9083c756cc2",
                    "revert": false,
                    "revertMessage": "",
                    "selector": "0xd21220a7",
                    "status": true,
                    "value": "0"
                },
                "nodeType": 0
            },
            "17": {
                "invocation": {
                    "address": "0x88e6a0c2ddd26feeb64f039a2c41296fcb3f5640",
                    "callData": "0x",
                    "decodedMethod": {
                        "callParams": [],
                        "constructorArguments": "",
                        "name": "fee",
                        "returnParams": [
                            {
                                "name": "",
                                "type": "uint24",
                                "value": "500"
                            }
                        ],
                        "signature": "fee()"
                    },
                    "errorInfo": "",
                    "fromAddress": "0x1111111254eeb25477b68fb85ed929f73a960582",
                    "gasUsed": 251,
                    "id": 17,
                    "methodDecoded": true,
                    "operation": "STATICCALL",
                    "output": "0x00000000000000000000000000000000000000000000000000000000000001f4",
                    "revert": false,
                    "revertMessage": "",
                    "selector": "0xddca3f43",
                    "status": true,
                    "value": "0"
                },
                "nodeType": 0
            },
            "18": {
                "invocation": {
                    "address": "0xa0b86991c6218b36c1d19d4a2e9eb0ce3606eb48",
                    "callData": "0x00000000000000000000000074de5d4fcbf63e00296fd95d33236b979401663100000000000000000000000088e6a0c2ddd26feeb64f039a2c41296fcb3f5640000000000000000000000000000000000000000000000000000000000caaa8b0",
                    "decodedMethod": {
                        "callParams": [
                            {
                                "name": "from",
                                "type": "address",
                                "value": "0x74de5d4fcbf63e00296fd95d33236b9794016631"
                            },
                            {
                                "name": "to",
                                "type": "address",
                                "value": "0x88e6a0c2ddd26feeb64f039a2c41296fcb3f5640"
                            },
                            {
                                "decimalAvailable": true,
                                "name": "value",
                                "type": "uint256",
                                "value": "212,510,896"
                            }
                        ],
                        "constructorArguments": "",
                        "name": "transferFrom",
                        "returnParams": [
                            {
                                "name": "",
                                "type": "bool",
                                "value": true
                            }
                        ],
                        "signature": "transferFrom(address,address,uint256)"
                    },
                    "errorInfo": "",
                    "fromAddress": "0x1111111254eeb25477b68fb85ed929f73a960582",
                    "gasUsed": 14149,
                    "id": 18,
                    "methodDecoded": true,
                    "operation": "CALL",
                    "output": "0x0000000000000000000000000000000000000000000000000000000000000001",
                    "revert": false,
                    "revertMessage": "",
                    "selector": "0x23b872dd",
                    "status": true,
                    "value": "0"
                },
                "nodeType": 0
            },
            "19": {
                "invocation": {
                    "address": "0x43506849d7c04f9138d1a2050bbf3a0c054402dd",
                    "callData": "0x00000000000000000000000074de5d4fcbf63e00296fd95d33236b979401663100000000000000000000000088e6a0c2ddd26feeb64f039a2c41296fcb3f5640000000000000000000000000000000000000000000000000000000000caaa8b0",
                    "decodedMethod": {
                        "callParams": [
                            {
                                "name": "from",
                                "type": "address",
                                "value": "0x74de5d4fcbf63e00296fd95d33236b9794016631"
                            },
                            {
                                "name": "to",
                                "type": "address",
                                "value": "0x88e6a0c2ddd26feeb64f039a2c41296fcb3f5640"
                            },
                            {
                                "decimalAvailable": true,
                                "name": "value",
                                "type": "uint256",
                                "value": "212,510,896"
                            }
                        ],
                        "constructorArguments": "",
                        "name": "transferFrom",
                        "returnParams": [
                            {
                                "name": "",
                                "type": "bool",
                                "value": true
                            }
                        ],
                        "signature": "transferFrom(address,address,uint256)"
                    },
                    "errorInfo": "",
                    "fromAddress": "0xa0b86991c6218b36c1d19d4a2e9eb0ce3606eb48",
                    "gasUsed": 13354,
                    "id": 19,
                    "methodDecoded": true,
                    "operation": "DELEGATECALL",
                    "output": "0x0000000000000000000000000000000000000000000000000000000000000001",
                    "revert": false,
                    "revertMessage": "",
                    "selector": "0x23b872dd",
                    "status": true,
                    "value": "0"
                },
                "nodeType": 0
            },
            "2": {
                "invocation": {
                    "address": "0x43506849d7c04f9138d1a2050bbf3a0c054402dd",
                    "callData": "0x000000000000000000000000c42a05f13414d70b26575134a6b8b381ee4fa07a00000000000000000000000074de5d4fcbf63e00296fd95d33236b9794016631000000000000000000000000000000000000000000000000000000000caaa8b0",
                    "decodedMethod": {
                        "callParams": [
                            {
                                "name": "from",
                                "type": "address",
                                "value": "0xc42a05f13414d70b26575134a6b8b381ee4fa07a"
                            },
                            {
                                "name": "to",
                                "type": "address",
                                "value": "0x74de5d4fcbf63e00296fd95d33236b9794016631"
                            },
                            {
                                "decimalAvailable": true,
                                "name": "value",
                                "type": "uint256",
                                "value": "212,510,896"
                            }
                        ],
                        "constructorArguments": "",
                        "name": "transferFrom",
                        "returnParams": [
                            {
                                "name": "",
                                "type": "bool",
                                "value": true
                            }
                        ],
                        "signature": "transferFrom(address,address,uint256)"
                    },
                    "errorInfo": "",
                    "fromAddress": "0xa0b86991c6218b36c1d19d4a2e9eb0ce3606eb48",
                    "gasUsed": 41254,
                    "id": 2,
                    "methodDecoded": true,
                    "operation": "DELEGATECALL",
                    "output": "0x0000000000000000000000000000000000000000000000000000000000000001",
                    "revert": false,
                    "revertMessage": "",
                    "selector": "0x23b872dd",
                    "status": true,
                    "value": "0"
                },
                "nodeType": 0
            },
            "20": {
                "event": {
                    "contract": "0xa0b86991c6218b36c1d19d4a2e9eb0ce3606eb48",
                    "decodedLog": {
                        "name": "Transfer",
                        "params": [
                            {
                                "name": "from",
                                "type": "address",
                                "value": "0x74de5d4fcbf63e00296fd95d33236b9794016631"
                            },
                            {
                                "name": "to",
                                "type": "address",
                                "value": "0x88e6a0c2ddd26feeb64f039a2c41296fcb3f5640"
                            },
                            {
                                "decimalAvailable": true,
                                "name": "value",
                                "type": "uint256",
                                "value": "212,510,896"
                            }
                        ],
                        "signature": "Transfer(address,address,uint256)"
                    },
                    "id": 20,
                    "logData": "0x000000000000000000000000000000000000000000000000000000000caaa8b0",
                    "logDecoded": true,
                    "operation": "EVENT",
                    "revert": false,
                    "status": true,
                    "topics": [
                        "0xddf252ad1be2c89b69c2b068fc378daa952ba7f163c4a11628f55a4df523b3ef",
                        "0x00000000000000000000000074de5d4fcbf63e00296fd95d33236b9794016631",
                        "0x00000000000000000000000088e6a0c2ddd26feeb64f039a2c41296fcb3f5640"
                    ]
                },
                "nodeType": 1
            },
            "21": {
                "invocation": {
                    "address": "0xa0b86991c6218b36c1d19d4a2e9eb0ce3606eb48",
                    "callData": "0x00000000000000000000000088e6a0c2ddd26feeb64f039a2c41296fcb3f5640",
                    "decodedMethod": {
                        "callParams": [
                            {
                                "name": "account",
                                "type": "address",
                                "value": "0x88e6a0c2ddd26feeb64f039a2c41296fcb3f5640"
                            }
                        ],
                        "constructorArguments": "",
                        "name": "balanceOf",
                        "returnParams": [
                            {
                                "decimalAvailable": true,
                                "name": "",
                                "type": "uint256",
                                "value": "89,312,725,725,334"
                            }
                        ],
                        "signature": "balanceOf(address)"
                    },
                    "errorInfo": "",
                    "fromAddress": "0x88e6a0c2ddd26feeb64f039a2c41296fcb3f5640",
                    "gasUsed": 1339,
                    "id": 21,
                    "methodDecoded": true,
                    "operation": "STATICCALL",
                    "output": "0x0000000000000000000000000000000000000000000000000000513abd4a7096",
                    "revert": false,
                    "revertMessage": "",
                    "selector": "0x70a08231",
                    "status": true,
                    "value": "0"
                },
                "nodeType": 0
            },
            "22": {
                "invocation": {
                    "address": "0x43506849d7c04f9138d1a2050bbf3a0c054402dd",
                    "callData": "0x00000000000000000000000088e6a0c2ddd26feeb64f039a2c41296fcb3f5640",
                    "decodedMethod": {
                        "callParams": [
                            {
                                "name": "account",
                                "type": "address",
                                "value": "0x88e6a0c2ddd26feeb64f039a2c41296fcb3f5640"
                            }
                        ],
                        "constructorArguments": "",
                        "name": "balanceOf",
                        "returnParams": [
                            {
                                "decimalAvailable": true,
                                "name": "",
                                "type": "uint256",
                                "value": "89,312,725,725,334"
                            }
                        ],
                        "signature": "balanceOf(address)"
                    },
                    "errorInfo": "",
                    "fromAddress": "0xa0b86991c6218b36c1d19d4a2e9eb0ce3606eb48",
                    "gasUsed": 553,
                    "id": 22,
                    "methodDecoded": true,
                    "operation": "DELEGATECALL",
                    "output": "0x0000000000000000000000000000000000000000000000000000513abd4a7096",
                    "revert": false,
                    "revertMessage": "",
                    "selector": "0x70a08231",
                    "status": true,
                    "value": "0"
                },
                "nodeType": 0
            },
            "23": {
                "event": {
                    "contract": "0x88e6a0c2ddd26feeb64f039a2c41296fcb3f5640",
                    "decodedLog": {
                        "name": "Swap",
                        "params": [
                            {
                                "name": "sender",
                                "type": "address",
                                "value": "0x1111111254eeb25477b68fb85ed929f73a960582"
                            },
                            {
                                "name": "recipient",
                                "type": "address",
                                "value": "0x1111111254eeb25477b68fb85ed929f73a960582"
                            },
                            {
                                "name": "amount0",
                                "type": "int256",
                                "value": "212,510,896"
                            },
                            {
                                "name": "amount1",
                                "type": "int256",
                                "value": "-60,982,061,578,756,600"
                            },
                            {
                                "name": "sqrtPriceX96",
                                "type": "uint160",
                                "value": "1,342,451,443,266,757,246,871,906,457,317,125"
                            },
                            {
                                "name": "liquidity",
                                "type": "uint128",
                                "value": "16,004,451,929,908,161,856"
                            },
                            {
                                "name": "tick",
                                "type": "int24",
                                "value": "194,763"
                            }
                        ],
                        "signature": "Swap(address,address,int256,int256,uint160,uint128,int24)"
                    },
                    "id": 23,
                    "logData": "0x000000000000000000000000000000000000000000000000000000000caaa8b0ffffffffffffffffffffffffffffffffffffffffffffffffff27592359ed5e0800000000000000000000000000000000000042301e8f2a01f49d9e06015d6f05000000000000000000000000000000000000000000000000de1b3c3c2afdad40000000000000000000000000000000000000000000000000000000000002f8cb",
                    "logDecoded": true,
                    "operation": "EVENT",
                    "revert": false,
                    "status": true,
                    "topics": [
                        "0xc42079f94a6350d7e6235f29174924f928cc2ac818eb64fed8004e115fbcca67",
                        "0x0000000000000000000000001111111254eeb25477b68fb85ed929f73a960582",
                        "0x0000000000000000000000001111111254eeb25477b68fb85ed929f73a960582"
                    ]
                },
                "nodeType": 1
            },
            "24": {
                "invocation": {
                    "address": "0xc02aaa39b223fe8d0a0e5c4f27ead9083c756cc2",
                    "callData": "0x00000000000000000000000000000000000000000000000000d8a6dca612a1f8",
                    "decodedMethod": {
                        "callParams": [
                            {
                                "name": "wad",
                                "type": "uint256",
                                "value": "60,982,061,578,756,600"
                            }
                        ],
                        "constructorArguments": "",
                        "name": "withdraw",
                        "returnParams": [],
                        "signature": "withdraw(uint256)"
                    },
                    "errorInfo": "",
                    "fromAddress": "0x1111111254eeb25477b68fb85ed929f73a960582",
                    "gasUsed": 9264,
                    "id": 24,
                    "methodDecoded": true,
                    "operation": "CALL",
                    "output": "",
                    "revert": false,
                    "revertMessage": "",
                    "selector": "0x2e1a7d4d",
                    "status": true,
                    "value": "0"
                },
                "nodeType": 0
            },
            "25": {
                "invocation": {
                    "address": "0x1111111254eeb25477b68fb85ed929f73a960582",
                    "callData": "0x",
                    "decodedMethod": null,
                    "errorInfo": "",
                    "fromAddress": "0xc02aaa39b223fe8d0a0e5c4f27ead9083c756cc2",
                    "gasUsed": 124,
                    "id": 25,
                    "methodDecoded": false,
                    "operation": "CALL",
                    "output": "",
                    "revert": false,
                    "revertMessage": "",
                    "selector": "fallback",
                    "status": true,
                    "value": "0.0609820615787566"
                },
                "nodeType": 0
            },
            "26": {
                "event": {
                    "contract": "0xc02aaa39b223fe8d0a0e5c4f27ead9083c756cc2",
                    "decodedLog": {
                        "name": "Withdrawal",
                        "params": [
                            {
                                "name": "src",
                                "type": "address",
                                "value": "0x1111111254eeb25477b68fb85ed929f73a960582"
                            },
                            {
                                "name": "wad",
                                "type": "uint256",
                                "value": "60,982,061,578,756,600"
                            }
                        ],
                        "signature": "Withdrawal(address,uint256)"
                    },
                    "id": 26,
                    "logData": "0x00000000000000000000000000000000000000000000000000d8a6dca612a1f8",
                    "logDecoded": true,
                    "operation": "EVENT",
                    "revert": false,
                    "status": true,
                    "topics": [
                        "0x7fcf532c15f0a6db0bd6d0e038bea71d30d808c7d98cb3bf7268a95bf5081b65",
                        "0x0000000000000000000000001111111254eeb25477b68fb85ed929f73a960582"
                    ]
                },
                "nodeType": 1
            },
            "27": {
                "invocation": {
                    "address": "0x74de5d4fcbf63e00296fd95d33236b9794016631",
                    "callData": "0x",
                    "decodedMethod": null,
                    "errorInfo": "",
                    "fromAddress": "0x1111111254eeb25477b68fb85ed929f73a960582",
                    "gasUsed": 40,
                    "id": 27,
                    "methodDecoded": false,
                    "operation": "CALL",
                    "output": "",
                    "revert": false,
                    "revertMessage": "",
                    "selector": "fallback",
                    "status": true,
                    "value": "0.0609820615787566"
                },
                "nodeType": 0
            },
            "28": {
                "invocation": {
                    "address": "0xf326e4de8f66a0bdc0970b79e0924e33c79f1915",
                    "callData": "0x",
                    "decodedMethod": null,
                    "errorInfo": "",
                    "fromAddress": "0x74de5d4fcbf63e00296fd95d33236b9794016631",
                    "gasUsed": 6329,
                    "id": 28,
                    "methodDecoded": false,
                    "operation": "CALL",
                    "output": "",
                    "revert": false,
                    "revertMessage": "",
                    "selector": "fallback",
                    "status": true,
                    "value": "0.000533594434694886"
                },
                "nodeType": 0
            },
            "29": {
                "invocation": {
                    "address": "0xd9db270c1b5e3bd161e8c8503c55ceabee709552",
                    "callData": "0x",
                    "decodedMethod": null,
                    "errorInfo": "",
                    "fromAddress": "0xf326e4de8f66a0bdc0970b79e0924e33c79f1915",
                    "gasUsed": 1504,
                    "id": 29,
                    "methodDecoded": false,
                    "operation": "DELEGATECALL",
                    "output": "",
                    "revert": false,
                    "revertMessage": "",
                    "selector": "fallback",
                    "status": true,
                    "value": "0.000533594434694886"
                },
                "nodeType": 0
            },
            "3": {
                "event": {
                    "contract": "0xa0b86991c6218b36c1d19d4a2e9eb0ce3606eb48",
                    "decodedLog": {
                        "name": "Transfer",
                        "params": [
                            {
                                "name": "from",
                                "type": "address",
                                "value": "0xc42a05f13414d70b26575134a6b8b381ee4fa07a"
                            },
                            {
                                "name": "to",
                                "type": "address",
                                "value": "0x74de5d4fcbf63e00296fd95d33236b9794016631"
                            },
                            {
                                "decimalAvailable": true,
                                "name": "value",
                                "type": "uint256",
                                "value": "212,510,896"
                            }
                        ],
                        "signature": "Transfer(address,address,uint256)"
                    },
                    "id": 3,
                    "logData": "0x000000000000000000000000000000000000000000000000000000000caaa8b0",
                    "logDecoded": true,
                    "operation": "EVENT",
                    "revert": false,
                    "status": true,
                    "topics": [
                        "0xddf252ad1be2c89b69c2b068fc378daa952ba7f163c4a11628f55a4df523b3ef",
                        "0x000000000000000000000000c42a05f13414d70b26575134a6b8b381ee4fa07a",
                        "0x00000000000000000000000074de5d4fcbf63e00296fd95d33236b9794016631"
                    ]
                },
                "nodeType": 1
            },
            "30": {
                "event": {
                    "contract": "0xf326e4de8f66a0bdc0970b79e0924e33c79f1915",
                    "decodedLog": {
                        "name": "SafeReceived",
                        "params": [
                            {
                                "name": "sender",
                                "type": "address",
                                "value": "0x74de5d4fcbf63e00296fd95d33236b9794016631"
                            },
                            {
                                "name": "value",
                                "type": "uint256",
                                "value": "533,594,434,694,886"
                            }
                        ],
                        "signature": "SafeReceived(address,uint256)"
                    },
                    "id": 30,
                    "logData": "0x0000000000000000000000000000000000000000000000000001e54d22bbeee6",
                    "logDecoded": true,
                    "operation": "EVENT",
                    "revert": false,
                    "status": true,
                    "topics": [
                        "0x3d0ce9bfc3ed7d6862dbb28b2dea94561fe714a1b4d019aa8af39730d1ad7c3d",
                        "0x00000000000000000000000074de5d4fcbf63e00296fd95d33236b9794016631"
                    ]
                },
                "nodeType": 1
            },
            "31": {
                "invocation": {
                    "address": "0xa0b86991c6218b36c1d19d4a2e9eb0ce3606eb48",
                    "callData": "0x00000000000000000000000074de5d4fcbf63e00296fd95d33236b9794016631",
                    "decodedMethod": {
                        "callParams": [
                            {
                                "name": "account",
                                "type": "address",
                                "value": "0x74de5d4fcbf63e00296fd95d33236b9794016631"
                            }
                        ],
                        "constructorArguments": "",
                        "name": "balanceOf",
                        "returnParams": [
                            {
                                "decimalAvailable": true,
                                "name": "",
                                "type": "uint256",
                                "value": "0"
                            }
                        ],
                        "signature": "balanceOf(address)"
                    },
                    "errorInfo": "",
                    "fromAddress": "0x74de5d4fcbf63e00296fd95d33236b9794016631",
                    "gasUsed": 1339,
                    "id": 31,
                    "methodDecoded": true,
                    "operation": "STATICCALL",
                    "output": "0x0000000000000000000000000000000000000000000000000000000000000000",
                    "revert": false,
                    "revertMessage": "",
                    "selector": "0x70a08231",
                    "status": true,
                    "value": "0"
                },
                "nodeType": 0
            },
            "32": {
                "invocation": {
                    "address": "0x43506849d7c04f9138d1a2050bbf3a0c054402dd",
                    "callData": "0x00000000000000000000000074de5d4fcbf63e00296fd95d33236b9794016631",
                    "decodedMethod": {
                        "callParams": [
                            {
                                "name": "account",
                                "type": "address",
                                "value": "0x74de5d4fcbf63e00296fd95d33236b9794016631"
                            }
                        ],
                        "constructorArguments": "",
                        "name": "balanceOf",
                        "returnParams": [
                            {
                                "decimalAvailable": true,
                                "name": "",
                                "type": "uint256",
                                "value": "0"
                            }
                        ],
                        "signature": "balanceOf(address)"
                    },
                    "errorInfo": "",
                    "fromAddress": "0xa0b86991c6218b36c1d19d4a2e9eb0ce3606eb48",
                    "gasUsed": 553,
                    "id": 32,
                    "methodDecoded": true,
                    "operation": "DELEGATECALL",
                    "output": "0x0000000000000000000000000000000000000000000000000000000000000000",
                    "revert": false,
                    "revertMessage": "",
                    "selector": "0x70a08231",
                    "status": true,
                    "value": "0"
                },
                "nodeType": 0
            },
            "33": {
                "invocation": {
                    "address": "0xc42a05f13414d70b26575134a6b8b381ee4fa07a",
                    "callData": "0x",
                    "decodedMethod": null,
                    "errorInfo": "",
                    "fromAddress": "0x74de5d4fcbf63e00296fd95d33236b9794016631",
                    "gasUsed": 0,
                    "id": 33,
                    "methodDecoded": false,
                    "operation": "CALL",
                    "output": "",
                    "revert": false,
                    "revertMessage": "",
                    "selector": "fallback",
                    "status": true,
                    "value": "0.060448467144061714"
                },
                "nodeType": 0
            },
            "34": {
                "event": {
                    "contract": "0x881d40237659c251811cec9c364ef91dc08d300c",
                    "decodedLog": {
                        "name": "Swap",
                        "params": [
                            {
                                "name": "aggregatorId",
                                "type": "string",
                                "value": "0xf35f348d53012d52a5d39f9390d246956ac932d5778d2bb49e359dba4fa0896d"
                            },
                            {
                                "name": "sender",
                                "type": "address",
                                "value": "0xc42a05f13414d70b26575134a6b8b381ee4fa07a"
                            }
                        ],
                        "signature": "Swap(string,address)"
                    },
                    "id": 34,
                    "logData": "0x",
                    "logDecoded": true,
                    "operation": "EVENT",
                    "revert": false,
                    "status": true,
                    "topics": [
                        "0xbeee1e6e7fe307ddcf84b0a16137a4430ad5e2480fc4f4a8e250ab56ccd7630d",
                        "0xf35f348d53012d52a5d39f9390d246956ac932d5778d2bb49e359dba4fa0896d",
                        "0x000000000000000000000000c42a05f13414d70b26575134a6b8b381ee4fa07a"
                    ]
                },
                "nodeType": 1
            },
            "4": {
                "invocation": {
                    "address": "0x74de5d4fcbf63e00296fd95d33236b9794016631",
                    "callData": "0x0000000000000000000000007cdf68ce9a05413cbb76cb7f80eaf415a826e3130000000000000000000000000000000000000000000000000000000000000040000000000000000000000000000000000000000000000000000000000000020492f5f037000000000000000000000000c42a05f13414d70b26575134a6b8b381ee4fa07a000000000000000000000000a0b86991c6218b36c1d19d4a2e9eb0ce3606eb480000000000000000000000000000000000000000000000000000000000000000000000000000000000000000000000000000000000000000000000000caaa8b000000000000000000000000000000000000000000000000000d27626cd9f101500000000000000000000000000000000000000000000000000000000000001200000000000000000000000000000000000000000000000000001e54d22bbeee6000000000000000000000000f326e4de8f66a0bdc0970b79e0924e33c79f1915000000000000000000000000000000000000000000000000000000000000000100000000000000000000000000000000000000000000000000000000000000a8e449022e000000000000000000000000000000000000000000000000000000000caaa8b000000000000000000000000000000000000000000000000000d451bf323884710000000000000000000000000000000000000000000000000000000000000060000000000000000000000000000000000000000000000000000000000000000120000000000000000000000088e6a0c2ddd26feeb64f039a2c41296fcb3f56407dcbea7c00000000000000000000000000000000000000000000000000000000000000000000000000000000000000000000000000000000",
                    "decodedMethod": {
                        "callParams": [
                            {
                                "name": "adapter",
                                "type": "address",
                                "value": "0x7cdf68ce9a05413cbb76cb7f80eaf415a826e313"
                            },
                            {
                                "name": "data",
                                "type": "bytes",
                                "value": "0x92f5f037000000000000000000000000c42a05f13414d70b26575134a6b8b381ee4fa07a000000000000000000000000a0b86991c6218b36c1d19d4a2e9eb0ce3606eb480000000000000000000000000000000000000000000000000000000000000000000000000000000000000000000000000000000000000000000000000caaa8b000000000000000000000000000000000000000000000000000d27626cd9f101500000000000000000000000000000000000000000000000000000000000001200000000000000000000000000000000000000000000000000001e54d22bbeee6000000000000000000000000f326e4de8f66a0bdc0970b79e0924e33c79f1915000000000000000000000000000000000000000000000000000000000000000100000000000000000000000000000000000000000000000000000000000000a8e449022e000000000000000000000000000000000000000000000000000000000caaa8b000000000000000000000000000000000000000000000000000d451bf323884710000000000000000000000000000000000000000000000000000000000000060000000000000000000000000000000000000000000000000000000000000000120000000000000000000000088e6a0c2ddd26feeb64f039a2c41296fcb3f56407dcbea7c000000000000000000000000000000000000000000000000"
                            }
                        ],
                        "constructorArguments": "",
                        "name": "swap",
                        "returnParams": [],
                        "signature": "swap(address,bytes)"
                    },
                    "errorInfo": "",
                    "fromAddress": "0x881d40237659c251811cec9c364ef91dc08d300c",
                    "gasUsed": 129674,
                    "id": 4,
                    "methodDecoded": true,
                    "operation": "CALL",
                    "output": "",
                    "revert": false,
                    "revertMessage": "",
                    "selector": "0xe3547335",
                    "status": true,
                    "value": "0"
                },
                "nodeType": 0
            },
            "5": {
                "invocation": {
                    "address": "0x7cdf68ce9a05413cbb76cb7f80eaf415a826e313",
                    "callData": "0x000000000000000000000000c42a05f13414d70b26575134a6b8b381ee4fa07a000000000000000000000000a0b86991c6218b36c1d19d4a2e9eb0ce3606eb480000000000000000000000000000000000000000000000000000000000000000000000000000000000000000000000000000000000000000000000000caaa8b000000000000000000000000000000000000000000000000000d27626cd9f101500000000000000000000000000000000000000000000000000000000000001200000000000000000000000000000000000000000000000000001e54d22bbeee6000000000000000000000000f326e4de8f66a0bdc0970b79e0924e33c79f1915000000000000000000000000000000000000000000000000000000000000000100000000000000000000000000000000000000000000000000000000000000a8e449022e000000000000000000000000000000000000000000000000000000000caaa8b000000000000000000000000000000000000000000000000000d451bf323884710000000000000000000000000000000000000000000000000000000000000060000000000000000000000000000000000000000000000000000000000000000120000000000000000000000088e6a0c2ddd26feeb64f039a2c41296fcb3f56407dcbea7c000000000000000000000000000000000000000000000000",
                    "decodedMethod": null,
                    "errorInfo": "",
                    "fromAddress": "0x74de5d4fcbf63e00296fd95d33236b9794016631",
                    "gasUsed": 124638,
                    "id": 5,
                    "methodDecoded": false,
                    "operation": "DELEGATECALL",
                    "output": "",
                    "revert": false,
                    "revertMessage": "",
                    "selector": "0x92f5f037",
                    "status": true,
                    "value": "0"
                },
                "nodeType": 0
            },
            "6": {
                "invocation": {
                    "address": "0xa0b86991c6218b36c1d19d4a2e9eb0ce3606eb48",
                    "callData": "0x00000000000000000000000074de5d4fcbf63e00296fd95d33236b97940166310000000000000000000000001111111254eeb25477b68fb85ed929f73a960582",
                    "decodedMethod": {
                        "callParams": [
                            {
                                "name": "owner",
                                "type": "address",
                                "value": "0x74de5d4fcbf63e00296fd95d33236b9794016631"
                            },
                            {
                                "name": "spender",
                                "type": "address",
                                "value": "0x1111111254eeb25477b68fb85ed929f73a960582"
                            }
                        ],
                        "constructorArguments": "",
                        "name": "allowance",
                        "returnParams": [
                            {
                                "decimalAvailable": true,
                                "name": "",
                                "type": "uint256",
                                "value": "115,792,089,237,316,195,423,570,985,008,687,907,853,269,984,665,640,564,039,457,583,636,911,249,347,059"
                            }
                        ],
                        "signature": "allowance(address,address)"
                    },
                    "errorInfo": "",
                    "fromAddress": "0x74de5d4fcbf63e00296fd95d33236b9794016631",
                    "gasUsed": 3448,
                    "id": 6,
                    "methodDecoded": true,
                    "operation": "STATICCALL",
                    "output": "0xfffffffffffffffffffffffffffffffffffffffffffffffffffeae9364b6d1f3",
                    "revert": false,
                    "revertMessage": "",
                    "selector": "0xdd62ed3e",
                    "status": true,
                    "value": "0"
                },
                "nodeType": 0
            },
            "7": {
                "invocation": {
                    "address": "0x43506849d7c04f9138d1a2050bbf3a0c054402dd",
                    "callData": "0x00000000000000000000000074de5d4fcbf63e00296fd95d33236b97940166310000000000000000000000001111111254eeb25477b68fb85ed929f73a960582",
                    "decodedMethod": {
                        "callParams": [
                            {
                                "name": "owner",
                                "type": "address",
                                "value": "0x74de5d4fcbf63e00296fd95d33236b9794016631"
                            },
                            {
                                "name": "spender",
                                "type": "address",
                                "value": "0x1111111254eeb25477b68fb85ed929f73a960582"
                            }
                        ],
                        "constructorArguments": "",
                        "name": "allowance",
                        "returnParams": [
                            {
                                "decimalAvailable": true,
                                "name": "",
                                "type": "uint256",
                                "value": "115,792,089,237,316,195,423,570,985,008,687,907,853,269,984,665,640,564,039,457,583,636,911,249,347,059"
                            }
                        ],
                        "signature": "allowance(address,address)"
                    },
                    "errorInfo": "",
                    "fromAddress": "0xa0b86991c6218b36c1d19d4a2e9eb0ce3606eb48",
                    "gasUsed": 2659,
                    "id": 7,
                    "methodDecoded": true,
                    "operation": "DELEGATECALL",
                    "output": "0xfffffffffffffffffffffffffffffffffffffffffffffffffffeae9364b6d1f3",
                    "revert": false,
                    "revertMessage": "",
                    "selector": "0xdd62ed3e",
                    "status": true,
                    "value": "0"
                },
                "nodeType": 0
            },
            "8": {
                "invocation": {
                    "address": "0x1111111254eeb25477b68fb85ed929f73a960582",
                    "callData": "0x000000000000000000000000000000000000000000000000000000000caaa8b000000000000000000000000000000000000000000000000000d451bf323884710000000000000000000000000000000000000000000000000000000000000060000000000000000000000000000000000000000000000000000000000000000120000000000000000000000088e6a0c2ddd26feeb64f039a2c41296fcb3f56407dcbea7c",
                    "decodedMethod": {
                        "callParams": [
                            {
                                "name": "amount",
                                "type": "uint256",
                                "value": "212,510,896"
                            },
                            {
                                "name": "minReturn",
                                "type": "uint256",
                                "value": "59,762,576,685,827,185"
                            },
                            {
                                "name": "pools",
                                "type": "uint256[]",
                                "value": [
                                    "14,474,011,154,664,524,427,946,373,126,867,554,402,161,832,605,793,805,858,616,410,165,020,352,009,792"
                                ]
                            }
                        ],
                        "constructorArguments": "",
                        "name": "uniswapV3Swap",
                        "returnParams": [
                            {
                                "name": "returnAmount",
                                "type": "uint256",
                                "value": "60,982,061,578,756,600"
                            }
                        ],
                        "signature": "uniswapV3Swap(uint256,uint256,uint256[])"
                    },
                    "errorInfo": "",
                    "fromAddress": "0x74de5d4fcbf63e00296fd95d33236b9794016631",
                    "gasUsed": 90996,
                    "id": 8,
                    "methodDecoded": true,
                    "operation": "CALL",
                    "output": "0x00000000000000000000000000000000000000000000000000d8a6dca612a1f8",
                    "revert": false,
                    "revertMessage": "",
                    "selector": "0xe449022e",
                    "status": true,
                    "value": "0"
                },
                "nodeType": 0
            },
            "9": {
                "invocation": {
                    "address": "0x88e6a0c2ddd26feeb64f039a2c41296fcb3f5640",
                    "callData": "0x0000000000000000000000001111111254eeb25477b68fb85ed929f73a9605820000000000000000000000000000000000000000000000000000000000000001000000000000000000000000000000000000000000000000000000000caaa8b000000000000000000000000000000000000000000000000000000001000276a400000000000000000000000000000000000000000000000000000000000000a0000000000000000000000000000000000000000000000000000000000000002000000000000000000000000074de5d4fcbf63e00296fd95d33236b9794016631",
                    "decodedMethod": {
                        "callParams": [
                            {
                                "name": "recipient",
                                "type": "address",
                                "value": "0x1111111254eeb25477b68fb85ed929f73a960582"
                            },
                            {
                                "name": "zeroForOne",
                                "type": "bool",
                                "value": true
                            },
                            {
                                "name": "amountSpecified",
                                "type": "int256",
                                "value": "212,510,896"
                            },
                            {
                                "name": "sqrtPriceLimitX96",
                                "type": "uint160",
                                "value": "4,295,128,740"
                            },
                            {
                                "name": "data",
                                "type": "bytes",
                                "value": "0x00000000000000000000000074de5d4fcbf63e00296fd95d33236b9794016631"
                            }
                        ],
                        "constructorArguments": "",
                        "name": "swap",
                        "returnParams": [
                            {
                                "name": "amount0",
                                "type": "int256",
                                "value": "212,510,896"
                            },
                            {
                                "name": "amount1",
                                "type": "int256",
                                "value": "-60,982,061,578,756,600"
                            }
                        ],
                        "signature": "swap(address,bool,int256,uint160,bytes)"
                    },
                    "errorInfo": "",
                    "fromAddress": "0x1111111254eeb25477b68fb85ed929f73a960582",
                    "gasUsed": 69563,
                    "id": 9,
                    "methodDecoded": true,
                    "operation": "CALL",
                    "output": "0x000000000000000000000000000000000000000000000000000000000caaa8b0ffffffffffffffffffffffffffffffffffffffffffffffffff27592359ed5e08",
                    "revert": false,
                    "revertMessage": "",
                    "selector": "0x128acb08",
                    "status": true,
                    "value": "0"
                },
                "nodeType": 0
            }
        },
        "gasFlame": [
            {
                "children": [
                    {
                        "children": [
                            {
                                "children": [],
                                "depth": 0,
                                "name": "Initial Gas",
                                "value": 25736
                            },
                            {
                                "children": [
                                    {
                                        "children": [
                                            {
                                                "children": [],
                                                "depth": 2,
                                                "name": "transferFrom",
                                                "value": 41254
                                            }
                                        ],
                                        "depth": 1,
                                        "name": "transferFrom",
                                        "value": 48549
                                    },
                                    {
                                        "children": [
                                            {
                                                "children": [
                                                    {
                                                        "children": [
                                                            {
                                                                "children": [],
                                                                "depth": 4,
                                                                "name": "allowance",
                                                                "value": 2659
                                                            }
                                                        ],
                                                        "depth": 3,
                                                        "name": "allowance",
                                                        "value": 3448
                                                    },
                                                    {
                                                        "children": [
                                                            {
                                                                "children": [
                                                                    {
                                                                        "children": [],
                                                                        "depth": 5,
                                                                        "name": "transfer",
                                                                        "value": 12862
                                                                    },
                                                                    {
                                                                        "children": [
                                                                            {
                                                                                "children": [],
                                                                                "depth": 6,
                                                                                "name": "balanceOf",
                                                                                "value": 2553
                                                                            }
                                                                        ],
                                                                        "depth": 5,
                                                                        "name": "balanceOf",
                                                                        "value": 3339
                                                                    },
                                                                    {
                                                                        "children": [
                                                                            {
                                                                                "children": [],
                                                                                "depth": 6,
                                                                                "name": "token0",
                                                                                "value": 266
                                                                            },
                                                                            {
                                                                                "children": [],
                                                                                "depth": 6,
                                                                                "name": "token1",
                                                                                "value": 308
                                                                            },
                                                                            {
                                                                                "children": [],
                                                                                "depth": 6,
                                                                                "name": "fee",
                                                                                "value": 251
                                                                            },
                                                                            {
                                                                                "children": [
                                                                                    {
                                                                                        "children": [],
                                                                                        "depth": 7,
                                                                                        "name": "transferFrom",
                                                                                        "value": 13354
                                                                                    }
                                                                                ],
                                                                                "depth": 6,
                                                                                "name": "transferFrom",
                                                                                "value": 14149
                                                                            }
                                                                        ],
                                                                        "depth": 5,
                                                                        "name": "uniswapV3SwapCallback",
                                                                        "value": 16616
                                                                    },
                                                                    {
                                                                        "children": [
                                                                            {
                                                                                "children": [],
                                                                                "depth": 6,
                                                                                "name": "balanceOf",
                                                                                "value": 553
                                                                            }
                                                                        ],
                                                                        "depth": 5,
                                                                        "name": "balanceOf",
                                                                        "value": 1339
                                                                    }
                                                                ],
                                                                "depth": 4,
                                                                "name": "swap",
                                                                "value": 69563
                                                            },
                                                            {
                                                                "children": [
                                                                    {
                                                                        "children": [],
                                                                        "depth": 5,
                                                                        "name": "fallback",
                                                                        "value": 124
                                                                    }
                                                                ],
                                                                "depth": 4,
                                                                "name": "withdraw",
                                                                "value": 9264
                                                            },
                                                            {
                                                                "children": [],
                                                                "depth": 4,
                                                                "name": "fallback",
                                                                "value": 40
                                                            }
                                                        ],
                                                        "depth": 3,
                                                        "name": "uniswapV3Swap",
                                                        "value": 90996
                                                    },
                                                    {
                                                        "children": [
                                                            {
                                                                "children": [],
                                                                "depth": 4,
                                                                "name": "fallback",
                                                                "value": 1504
                                                            }
                                                        ],
                                                        "depth": 3,
                                                        "name": "fallback",
                                                        "value": 6329
                                                    },
                                                    {
                                                        "children": [
                                                            {
                                                                "children": [],
                                                                "depth": 4,
                                                                "name": "balanceOf",
                                                                "value": 553
                                                            }
                                                        ],
                                                        "depth": 3,
                                                        "name": "balanceOf",
                                                        "value": 1339
                                                    },
                                                    {
                                                        "children": [],
                                                        "depth": 3,
                                                        "name": "fallback",
                                                        "value": 0
                                                    }
                                                ],
                                                "depth": 2,
                                                "name": "0x92f5f037",
                                                "value": 124638
                                            }
                                        ],
                                        "depth": 1,
                                        "name": "swap",
                                        "value": 129674
                                    }
                                ],
                                "depth": 0,
                                "name": "Executed Gas",
                                "value": 201184
                            }
                        ],
                        "depth": -1,
                        "name": "Actual Gas Used",
                        "value": 201420
                    },
                    {
                        "children": [],
                        "depth": -1,
                        "name": "Refunded Gas",
                        "value": 25500
                    }
                ],
                "depth": -2,
                "name": "Total Gas",
                "value": 226920
            }
        ],
        "isConfirmed": true,
        "mainTrace": [
            {
                "children": [
                    {
                        "children": [
                            {
                                "children": [
                                    {
                                        "children": [
                                            {
                                                "children": [],
                                                "depth": 3,
                                                "id": 3,
                                                "order": 3
                                            }
                                        ],
                                        "depth": 2,
                                        "id": 2,
                                        "order": 2
                                    }
                                ],
                                "depth": 1,
                                "id": 1,
                                "order": 1
                            },
                            {
                                "children": [
                                    {
                                        "children": [
                                            {
                                                "children": [
                                                    {
                                                        "children": [],
                                                        "depth": 4,
                                                        "id": 7,
                                                        "order": 7
                                                    }
                                                ],
                                                "depth": 3,
                                                "id": 6,
                                                "order": 6
                                            },
                                            {
                                                "children": [
                                                    {
                                                        "children": [
                                                            {
                                                                "children": [
                                                                    {
                                                                        "children": [],
                                                                        "depth": 6,
                                                                        "id": 11,
                                                                        "order": 11
                                                                    }
                                                                ],
                                                                "depth": 5,
                                                                "id": 10,
                                                                "order": 10
                                                            },
                                                            {
                                                                "children": [
                                                                    {
                                                                        "children": [],
                                                                        "depth": 6,
                                                                        "id": 13,
                                                                        "order": 13
                                                                    }
                                                                ],
                                                                "depth": 5,
                                                                "id": 12,
                                                                "order": 12
                                                            },
                                                            {
                                                                "children": [
                                                                    {
                                                                        "children": [],
                                                                        "depth": 6,
                                                                        "id": 15,
                                                                        "order": 15
                                                                    },
                                                                    {
                                                                        "children": [],
                                                                        "depth": 6,
                                                                        "id": 16,
                                                                        "order": 16
                                                                    },
                                                                    {
                                                                        "children": [],
                                                                        "depth": 6,
                                                                        "id": 17,
                                                                        "order": 17
                                                                    },
                                                                    {
                                                                        "children": [
                                                                            {
                                                                                "children": [
                                                                                    {
                                                                                        "children": [],
                                                                                        "depth": 8,
                                                                                        "id": 20,
                                                                                        "order": 20
                                                                                    }
                                                                                ],
                                                                                "depth": 7,
                                                                                "id": 19,
                                                                                "order": 19
                                                                            }
                                                                        ],
                                                                        "depth": 6,
                                                                        "id": 18,
                                                                        "order": 18
                                                                    }
                                                                ],
                                                                "depth": 5,
                                                                "id": 14,
                                                                "order": 14
                                                            },
                                                            {
                                                                "children": [
                                                                    {
                                                                        "children": [],
                                                                        "depth": 6,
                                                                        "id": 22,
                                                                        "order": 22
                                                                    }
                                                                ],
                                                                "depth": 5,
                                                                "id": 21,
                                                                "order": 21
                                                            },
                                                            {
                                                                "children": [],
                                                                "depth": 5,
                                                                "id": 23,
                                                                "order": 23
                                                            }
                                                        ],
                                                        "depth": 4,
                                                        "id": 9,
                                                        "order": 9
                                                    },
                                                    {
                                                        "children": [
                                                            {
                                                                "children": [],
                                                                "depth": 5,
                                                                "id": 25,
                                                                "order": 25
                                                            },
                                                            {
                                                                "children": [],
                                                                "depth": 5,
                                                                "id": 26,
                                                                "order": 26
                                                            }
                                                        ],
                                                        "depth": 4,
                                                        "id": 24,
                                                        "order": 24
                                                    },
                                                    {
                                                        "children": [],
                                                        "depth": 4,
                                                        "id": 27,
                                                        "order": 27
                                                    }
                                                ],
                                                "depth": 3,
                                                "id": 8,
                                                "order": 8
                                            },
                                            {
                                                "children": [
                                                    {
                                                        "children": [
                                                            {
                                                                "children": [],
                                                                "depth": 5,
                                                                "id": 30,
                                                                "order": 30
                                                            }
                                                        ],
                                                        "depth": 4,
                                                        "id": 29,
                                                        "order": 29
                                                    }
                                                ],
                                                "depth": 3,
                                                "id": 28,
                                                "order": 28
                                            },
                                            {
                                                "children": [
                                                    {
                                                        "children": [],
                                                        "depth": 4,
                                                        "id": 32,
                                                        "order": 32
                                                    }
                                                ],
                                                "depth": 3,
                                                "id": 31,
                                                "order": 31
                                            },
                                            {
                                                "children": [],
                                                "depth": 3,
                                                "id": 33,
                                                "order": 33
                                            }
                                        ],
                                        "depth": 2,
                                        "id": 5,
                                        "order": 5
                                    }
                                ],
                                "depth": 1,
                                "id": 4,
                                "order": 4
                            },
                            {
                                "children": [],
                                "depth": 1,
                                "id": 34,
                                "order": 34
                            }
                        ],
                        "depth": 0,
                        "id": 0,
                        "order": 0
                    }
                ],
                "depth": -1,
                "id": -1,
                "order": -1
            }
        ],
        "mainTraceNodeCount": 35,
        "parentIdMap": {
            "0": -1,
            "1": 0,
            "10": 9,
            "11": 10,
            "12": 9,
            "13": 12,
            "14": 9,
            "15": 14,
            "16": 14,
            "17": 14,
            "18": 14,
            "19": 18,
            "2": 1,
            "20": 19,
            "21": 9,
            "22": 21,
            "23": 9,
            "24": 8,
            "25": 24,
            "26": 24,
            "27": 8,
            "28": 5,
            "29": 28,
            "3": 2,
            "30": 29,
            "31": 5,
            "32": 31,
            "33": 5,
            "34": 0,
            "4": 0,
            "5": 4,
            "6": 5,
            "7": 6,
            "8": 5,
            "9": 8
        },
        "tidyTrace": [
            {
                "children": [
                    {
                        "children": [
                            {
                                "children": [
                                    {
                                        "children": [
                                            {
                                                "children": [],
                                                "depth": 3,
                                                "id": 3,
                                                "order": 3
                                            }
                                        ],
                                        "depth": 2,
                                        "id": 2,
                                        "order": 2
                                    }
                                ],
                                "depth": 1,
                                "id": 1,
                                "order": 1
                            },
                            {
                                "children": [
                                    {
                                        "children": [
                                            {
                                                "children": [
                                                    {
                                                        "children": [
                                                            {
                                                                "children": [
                                                                    {
                                                                        "children": [],
                                                                        "depth": 6,
                                                                        "id": 11,
                                                                        "order": 11
                                                                    }
                                                                ],
                                                                "depth": 5,
                                                                "id": 10,
                                                                "order": 10
                                                            },
                                                            {
                                                                "children": [
                                                                    {
                                                                        "children": [
                                                                            {
                                                                                "children": [
                                                                                    {
                                                                                        "children": [],
                                                                                        "depth": 8,
                                                                                        "id": 20,
                                                                                        "order": 20
                                                                                    }
                                                                                ],
                                                                                "depth": 7,
                                                                                "id": 19,
                                                                                "order": 19
                                                                            }
                                                                        ],
                                                                        "depth": 6,
                                                                        "id": 18,
                                                                        "order": 18
                                                                    }
                                                                ],
                                                                "depth": 5,
                                                                "id": 14,
                                                                "order": 14
                                                            },
                                                            {
                                                                "children": [],
                                                                "depth": 5,
                                                                "id": 23,
                                                                "order": 23
                                                            }
                                                        ],
                                                        "depth": 4,
                                                        "id": 9,
                                                        "order": 9
                                                    },
                                                    {
                                                        "children": [
                                                            {
                                                                "children": [],
                                                                "depth": 5,
                                                                "id": 25,
                                                                "order": 25
                                                            },
                                                            {
                                                                "children": [],
                                                                "depth": 5,
                                                                "id": 26,
                                                                "order": 26
                                                            }
                                                        ],
                                                        "depth": 4,
                                                        "id": 24,
                                                        "order": 24
                                                    },
                                                    {
                                                        "children": [],
                                                        "depth": 4,
                                                        "id": 27,
                                                        "order": 27
                                                    }
                                                ],
                                                "depth": 3,
                                                "id": 8,
                                                "order": 8
                                            },
                                            {
                                                "children": [
                                                    {
                                                        "children": [
                                                            {
                                                                "children": [],
                                                                "depth": 5,
                                                                "id": 30,
                                                                "order": 30
                                                            }
                                                        ],
                                                        "depth": 4,
                                                        "id": 29,
                                                        "order": 29
                                                    }
                                                ],
                                                "depth": 3,
                                                "id": 28,
                                                "order": 28
                                            },
                                            {
                                                "children": [],
                                                "depth": 3,
                                                "id": 33,
                                                "order": 33
                                            }
                                        ],
                                        "depth": 2,
                                        "id": 5,
                                        "order": 5
                                    }
                                ],
                                "depth": 1,
                                "id": 4,
                                "order": 4
                            },
                            {
                                "children": [],
                                "depth": 1,
                                "id": 34,
                                "order": 34
                            }
                        ],
                        "depth": 0,
                        "id": 0,
                        "order": 0
                    }
                ],
                "depth": -1,
                "id": -1,
                "order": -1
            }
        ],
        "tidyTraceNodeCount": 24
    },
    "state_change": {
        "stateChanges": [
            {
                "address": "0x88e6a0c2ddd26feeb64f039a2c41296fcb3f5640",
                "erc": "",
                "slots": [
                    {
                        "current": "0x00000000000000000000000000000000000092232b34d5dcf17a114e976fcafd",
                        "key": "0x0000000000000000000000000000000000000000000000000000000000000001",
                        "prev": "0x00000000000000000000000000000000000092232b32f776315cfd24f242552c"
                    },
                    {
                        "current": "0x00010002d302d300bf02f8cb00000000000042301e8f2a01f49d9e06015d6f05",
                        "key": "0x0000000000000000000000000000000000000000000000000000000000000000",
                        "prev": "0x00010002d302d300bf02f8cb00000000000042301f88e08beb726d87472c7180"
                    }
                ],
                "storageVariables": []
            },
            {
                "address": "0xa0b86991c6218b36c1d19d4a2e9eb0ce3606eb48",
                "erc": "ERC-20",
                "slots": [
                    {
                        "current": "0xffffffffffffffffffffffffffffffffffffffffffffffffffffffffed60bbdf",
                        "key": "0xf6eb84bb30e8545397e6ada4b8fb7d04d75db84497cbdc4550aed9b09c47b5ec",
                        "prev": "0xfffffffffffffffffffffffffffffffffffffffffffffffffffffffffa0b648f"
                    },
                    {
                        "current": "0x00000000000000000000000000000000000000000000000000000000022d741b",
                        "key": "0x5e371e45bc4ce24ae072aa59ef99b31882d21dbb66b5d1cde6602fea9e8a3c28",
                        "prev": "0x000000000000000000000000000000000000000000000000000000000ed81ccb"
                    },
                    {
                        "current": "0x0000000000000000000000000000000000000000000000000000513abd4a7096",
                        "key": "0x1f21a62c4538bacf2aabeca410f0fe63151869f172e03c0e00357ba26a341eff",
                        "prev": "0x0000000000000000000000000000000000000000000000000000513ab09fc7e6"
                    },
                    {
                        "current": "0xfffffffffffffffffffffffffffffffffffffffffffffffffffeae93580c2943",
                        "key": "0xc18d4ff08a432753dc4c17af5cbdd67e25a3b29d92bbe5351b5fb0f6dd13b69e",
                        "prev": "0xfffffffffffffffffffffffffffffffffffffffffffffffffffeae9364b6d1f3"
                    }
                ],
                "storageVariables": [
                    {
                        "name": "allowed",
                        "type": "mapping(address => mapping(address => uint256))",
                        "value": {
                            "pairs": [
                                {
                                    "key": "0x74de5d4fcbf63e00296fd95d33236b9794016631",
                                    "value": {
                                        "pairs": [
                                            {
                                                "key": "0x1111111254eeb25477b68fb85ed929f73a960582",
                                                "value": {
                                                    "current": "115792089237316195423570985008687907853269984665640564039457583636911036836163",
                                                    "prev": "115792089237316195423570985008687907853269984665640564039457583636911249347059",
                                                    "typeTag": 1
                                                }
                                            }
                                        ],
                                        "typeTag": 4
                                    }
                                },
                                {
                                    "key": "0xc42a05f13414d70b26575134a6b8b381ee4fa07a",
                                    "value": {
                                        "pairs": [
                                            {
                                                "key": "0x881d40237659c251811cec9c364ef91dc08d300c",
                                                "value": {
                                                    "current": "115792089237316195423570985008687907853269984665640564039457584007912817212383",
                                                    "prev": "115792089237316195423570985008687907853269984665640564039457584007913029723279",
                                                    "typeTag": 1
                                                }
                                            }
                                        ],
                                        "typeTag": 4
                                    }
                                }
                            ],
                            "typeTag": 4
                        }
                    },
                    {
                        "name": "balanceAndBlacklistStates",
                        "type": "mapping(address => uint256)",
                        "value": {
                            "pairs": [
                                {
                                    "key": "0x88e6a0c2ddd26feeb64f039a2c41296fcb3f5640",
                                    "value": {
                                        "current": "89312725725334",
                                        "prev": "89312513214438",
                                        "typeTag": 1
                                    }
                                },
                                {
                                    "key": "0xc42a05f13414d70b26575134a6b8b381ee4fa07a",
                                    "value": {
                                        "current": "36533275",
                                        "prev": "249044171",
                                        "typeTag": 1
                                    }
                                }
                            ],
                            "typeTag": 4
                        }
                    }
                ]
            },
            {
                "address": "0xc02aaa39b223fe8d0a0e5c4f27ead9083c756cc2",
                "erc": "ERC-20",
                "slots": [
                    {
                        "current": "0x000000000000000000000000000000000000000000000512c687021cdb359ef6",
                        "key": "0x390f6178407c9b8e95802b8659e6df8e34c1e3d4f8d6a49e6132bbcdd937b63a",
                        "prev": "0x000000000000000000000000000000000000000000000512c75fa8f9814840ee"
                    }
                ],
                "storageVariables": [
                    {
                        "name": "balanceOf",
                        "type": "mapping(address => uint256)",
                        "value": {
                            "pairs": [
                                {
                                    "key": "0x88e6a0c2ddd26feeb64f039a2c41296fcb3f5640",
                                    "value": {
                                        "current": "23958179212739323731702",
                                        "prev": "23958240194800902488302",
                                        "typeTag": 1
                                    }
                                }
                            ],
                            "typeTag": 4
                        }
                    }
                ]
            }
        ]
    }
}