{
    "balance_change": {
        "balanceChanges": [
            {
                "account": "0x51c72848c68a965f66fa7a88855f9f7784502a7f",
                "assets": [
                    {
                        "address": "0xc02aaa39b223fe8d0a0e5c4f27ead9083c756cc2",
                        "amount": "35.295682760706825276",
                        "iconUrl": "https://assets.blocksec.com/icon/f1cb2d02c471d545bbc7722daf3277fd852d98e63d118771af7047bd8256c516.png",
                        "isERC1155": false,
                        "isERC721": false,
                        "sign": true,
                        "value": "57245.008997961196147"
                    },
                    {
                        "address": "0x2260fac5e5542a773aa44fbcfedf7c193bc2c599",
                        "amount": "2.22607722",
                        "iconUrl": "https://assets.blocksec.com/icon/878f2983cb21c5816eb5879d9b6f7a3fe2eb6fce7560c367a0315527852a8a84.png",
                        "isERC1155": false,
                        "isERC721": false,
                        "sign": false,
                        "value": "57285.87117948"
                    }
                ]
            },
            {
                "account": "0x4585fe77225b41b697c938b018e2ac67ac5a20c0",
                "assets": [
                    {
                        "address": "0xc02aaa39b223fe8d0a0e5c4f27ead9083c756cc2",
                        "amount": "35.295682760706825276",
                        "iconUrl": "https://assets.blocksec.com/icon/f1cb2d02c471d545bbc7722daf3277fd852d98e63d118771af7047bd8256c516.png",
                        "isERC1155": false,
                        "isERC721": false,
                        "sign": false,
                        "value": "57245.008997961196147"
                    },
                    {
                        "address": "0x2260fac5e5542a773aa44fbcfedf7c193bc2c599",
                        "amount": "2.22607722",
                        "iconUrl": "https://assets.blocksec.com/icon/878f2983cb21c5816eb5879d9b6f7a3fe2eb6fce7560c367a0315527852a8a84.png",
                        "isERC1155": false,
                        "isERC721": false,
                        "sign": true,
                        "value": "57285.87117948"
                    }
                ]
            }
        ]
    },
    "profile": {
        "basic_info": {
            "baseFee": "10.02978626",
            "blockNumber": 18067965,
            "callData": "0x771d503f00000000000000000000000000000000000000000000000000000000000000000000000000000000000000004585fe77225b41b697c938b018e2ac67ac5a20c0000000000000000000000000000000000000000000000000000000000d44b96a000000000000000000000000000000000000000000000001e9d3545a6e6a8000000000000000000000000000000000000000000000000000000000000000000100000000000000000000000000000000000000000000000000000000000000c000000000000000000000000000000000000000000000000000000000000000142260fac5e5542a773aa44fbcfedf7c193bc2c599000000000000000000000000",
            "debugEnable": true,
            "errorInfo": "",
            "eventCount": 3,
            "feeRecipient": "0x1f9090aae28b8a3dceadf281b0f12828e676c326",
            "formatValue": "0",
            "gasLimit": 121077,
            "gasPrice": "72.242340276",
            "gasUsed": 105285,
            "intTxnCount": 6,
            "internalRevert": false,
            "internalRevertMessage": "",
            "isContractCreation": false,
            "isFlashloan": false,
            "maxFee": "72.242340276",
            "nonce": 669,
            "overwritedBlockNumber": -1,
            "priorityFee": "72.242340276",
            "receiver": "0x51c72848c68a965f66fa7a88855f9f7784502a7f",
            "revertMessage": "",
            "sender": "0x56fc0708725a65ebb633efdaec931c0600a9face",
            "simulationEnable": true,
            "sourceTxnHash": "0x40afd5fb4acef5fd8301be2556e83b87c6635286e5727f3b6671567cdf5cf1c5",
            "status": true,
            "timestamp": "2023-09-05T04:42:59Z",
            "transactionFee": "0.00760603479595866",
            "txnHash": "0x40afd5fb4acef5fd8301be2556e83b87c6635286e5727f3b6671567cdf5cf1c5",
            "txnIndex": 10,
            "type": 2,
            "value": "0"
        },
        "fund_flow": [
            {
                "amount": "35.295682760706825276",
                "from": "0x4585fe77225b41b697c938b018e2ac67ac5a20c0",
                "id": 1,
                "isERC1155": false,
                "isERC721": false,
                "isReverted": false,
                "order": 1,
                "to": "0x51c72848c68a965f66fa7a88855f9f7784502a7f",
                "token": "0xc02aaa39b223fe8d0a0e5c4f27ead9083c756cc2"
            },
            {
                "amount": "2.22607722",
                "from": "0x51c72848c68a965f66fa7a88855f9f7784502a7f",
                "id": 2,
                "isERC1155": false,
                "isERC721": false,
                "isReverted": false,
                "order": 2,
                "to": "0x4585fe77225b41b697c938b018e2ac67ac5a20c0",
                "token": "0x2260fac5e5542a773aa44fbcfedf7c193bc2c599"
            }
        ],
        "token_infos": [
            {
                "address": "0x2260fac5e5542a773aa44fbcfedf7c193bc2c599",
                "decimals": 8
            },
            {
                "address": "0xc02aaa39b223fe8d0a0e5c4f27ead9083c756cc2",
                "decimals": 18
            },
            {
                "address": "0xeeeeeeeeeeeeeeeeeeeeeeeeeeeeeeeeeeeeeeee",
                "decimals": 18
            }
        ]
    },
    "address_label": {
        "labels": [
            {
                "address": "0x51c72848c68a965f66fa7a88855f9f7784502a7f",
                "label": "MEV Bot: 0x51C\u2026a7F"
            },
            {
                "address": "0x0000000000000000000000000000000000000001",
                "label": "Precompiled"
            },
            {
                "address": "0xeeeeeeeeeeeeeeeeeeeeeeeeeeeeeeeeeeeeeeee",
                "label": "Ether"
            },
            {
                "address": "0xc02aaa39b223fe8d0a0e5c4f27ead9083c756cc2",
                "label": "Wrapped Ether (WETH)"
            },
            {
                "address": "0x4585fe77225b41b697c938b018e2ac67ac5a20c0",
                "label": "Uniswap V3: WBTC 2"
            },
            {
                "address": "0x2260fac5e5542a773aa44fbcfedf7c193bc2c599",
                "label": "Wrapped BTC: WBTC Token"
            },
            {
                "address": "0x0000000000000000000000000000000000000002",
                "label": "Precompiled"
            },
            {
                "address": "0x0000000000000000000000000000000000000003",
                "label": "Precompiled"
            },
            {
                "address": "0x0000000000000000000000000000000000000004",
                "label": "Precompiled"
            }
        ]
    },
    "trace": {
        "accountLabels": null,
        "dataMap": {
            "-1": {
                "invocation": {
                    "address": "0x56fc0708725a65ebb633efdaec931c0600a9face",
                    "callData": "",
                    "decodedMethod": null,
                    "errorInfo": "",
                    "fromAddress": "",
                    "gasUsed": 0,
                    "id": -1,
                    "methodDecoded": false,
                    "operation": "",
                    "output": "",
                    "revert": false,
                    "revertMessage": "",
                    "selector": "",
                    "status": false,
                    "value": ""
                },
                "nodeType": 0
            },
            "0": {
                "invocation": {
                    "address": "0x51c72848c68a965f66fa7a88855f9f7784502a7f",
                    "callData": "0x00000000000000000000000000000000000000000000000000000000000000000000000000000000000000004585fe77225b41b697c938b018e2ac67ac5a20c0000000000000000000000000000000000000000000000000000000000d44b96a000000000000000000000000000000000000000000000001e9d3545a6e6a8000000000000000000000000000000000000000000000000000000000000000000100000000000000000000000000000000000000000000000000000000000000c000000000000000000000000000000000000000000000000000000000000000142260fac5e5542a773aa44fbcfedf7c193bc2c599000000000000000000000000",
                    "decodedMethod": null,
                    "errorInfo": "",
                    "fromAddress": "0x56fc0708725a65ebb633efdaec931c0600a9face",
                    "gasUsed": 105285,
                    "id": 0,
                    "methodDecoded": false,
                    "operation": "CALL",
                    "output": "",
                    "revert": false,
                    "revertMessage": "",
                    "selector": "0x771d503f",
                    "status": true,
                    "value": "0"
                },
                "nodeType": 0
            },
            "1": {
                "invocation": {
                    "address": "0x4585fe77225b41b697c938b018e2ac67ac5a20c0",
                    "callData": "0x00000000000000000000000051c72848c68a965f66fa7a88855f9f7784502a7f0000000000000000000000000000000000000000000000000000000000000001000000000000000000000000000000000000000000000000000000000d44b96a00000000000000000000000000000000000000000000000000000001000276a400000000000000000000000000000000000000000000000000000000000000a000000000000000000000000000000000000000000000000000000000000000142260fac5e5542a773aa44fbcfedf7c193bc2c599000000000000000000000000",
                    "decodedMethod": {
                        "callParams": [
                            {
                                "name": "recipient",
                                "type": "address",
                                "value": "0x51c72848c68a965f66fa7a88855f9f7784502a7f"
                            },
                            {
                                "name": "zeroForOne",
                                "type": "bool",
                                "value": true
                            },
                            {
                                "name": "amountSpecified",
                                "type": "int256",
                                "value": "222,607,722"
                            },
                            {
                                "name": "sqrtPriceLimitX96",
                                "type": "uint160",
                                "value": "4,295,128,740"
                            },
                            {
                                "name": "data",
                                "type": "bytes",
                                "value": "0x2260fac5e5542a773aa44fbcfedf7c193bc2c599"
                            }
                        ],
                        "constructorArguments": "",
                        "name": "swap",
                        "returnParams": [
                            {
                                "name": "amount0",
                                "type": "int256",
                                "value": "222,607,722"
                            },
                            {
                                "name": "amount1",
                                "type": "int256",
                                "value": "-35,295,682,760,706,825,276"
                            }
                        ],
                        "signature": "swap(address,bool,int256,uint160,bytes)"
                    },
                    "errorInfo": "",
                    "fromAddress": "0x51c72848c68a965f66fa7a88855f9f7784502a7f",
                    "gasUsed": 71282,
                    "id": 1,
                    "methodDecoded": true,
                    "operation": "CALL",
                    "output": "0x000000000000000000000000000000000000000000000000000000000d44b96afffffffffffffffffffffffffffffffffffffffffffffffe162c8b889f30e3c4",
                    "revert": false,
                    "revertMessage": "",
                    "selector": "0x128acb08",
                    "status": true,
                    "value": "0"
                },
                "nodeType": 0
            },
            "2": {
                "invocation": {
                    "address": "0xc02aaa39b223fe8d0a0e5c4f27ead9083c756cc2",
                    "callData": "0x00000000000000000000000051c72848c68a965f66fa7a88855f9f7784502a7f000000000000000000000000000000000000000000000001e9d3747760cf1c3c",
                    "decodedMethod": {
                        "callParams": [
                            {
                                "name": "dst",
                                "type": "address",
                                "value": "0x51c72848c68a965f66fa7a88855f9f7784502a7f"
                            },
                            {
                                "decimalAvailable": true,
                                "name": "wad",
                                "type": "uint256",
                                "value": "35,295,682,760,706,825,276"
                            }
                        ],
                        "constructorArguments": "",
                        "name": "transfer",
                        "returnParams": [
                            {
                                "name": "",
                                "type": "bool",
                                "value": true
                            }
                        ],
                        "signature": "transfer(address,uint256)"
                    },
                    "errorInfo": "",
                    "fromAddress": "0x4585fe77225b41b697c938b018e2ac67ac5a20c0",
                    "gasUsed": 12862,
                    "id": 2,
                    "methodDecoded": true,
                    "operation": "CALL",
                    "output": "0x0000000000000000000000000000000000000000000000000000000000000001",
                    "revert": false,
                    "revertMessage": "",
                    "selector": "0xa9059cbb",
                    "status": true,
                    "value": "0"
                },
                "nodeType": 0
            },
            "3": {
                "event": {
                    "contract": "0xc02aaa39b223fe8d0a0e5c4f27ead9083c756cc2",
                    "decodedLog": {
                        "name": "Transfer",
                        "params": [
                            {
                                "name": "src",
                                "type": "address",
                                "value": "0x4585fe77225b41b697c938b018e2ac67ac5a20c0"
                            },
                            {
                                "name": "dst",
                                "type": "address",
                                "value": "0x51c72848c68a965f66fa7a88855f9f7784502a7f"
                            },
                            {
                                "decimalAvailable": true,
                                "name": "wad",
                                "type": "uint256",
                                "value": "35,295,682,760,706,825,276"
                            }
                        ],
                        "signature": "Transfer(address,address,uint256)"
                    },
                    "id": 3,
                    "logData": "0x000000000000000000000000000000000000000000000001e9d3747760cf1c3c",
                    "logDecoded": true,
                    "operation": "EVENT",
                    "revert": false,
                    "status": true,
                    "topics": [
                        "0xddf252ad1be2c89b69c2b068fc378daa952ba7f163c4a11628f55a4df523b3ef",
                        "0x0000000000000000000000004585fe77225b41b697c938b018e2ac67ac5a20c0",
                        "0x00000000000000000000000051c72848c68a965f66fa7a88855f9f7784502a7f"
                    ]
                },
                "nodeType": 1
            },
            "4": {
                "invocation": {
                    "address": "0x2260fac5e5542a773aa44fbcfedf7c193bc2c599",
                    "callData": "0x0000000000000000000000004585fe77225b41b697c938b018e2ac67ac5a20c0",
                    "decodedMethod": {
                        "callParams": [
                            {
                                "name": "_owner",
                                "type": "address",
                                "value": "0x4585fe77225b41b697c938b018e2ac67ac5a20c0"
                            }
                        ],
                        "constructorArguments": "",
                        "name": "balanceOf",
                        "returnParams": [
                            {
                                "decimalAvailable": true,
                                "name": "",
                                "type": "uint256",
                                "value": "128,019,333,116"
                            }
                        ],
                        "signature": "balanceOf(address)"
                    },
                    "errorInfo": "",
                    "fromAddress": "0x4585fe77225b41b697c938b018e2ac67ac5a20c0",
                    "gasUsed": 2795,
                    "id": 4,
                    "methodDecoded": true,
                    "operation": "STATICCALL",
                    "output": "0x0000000000000000000000000000000000000000000000000000001dce8bfffc",
                    "revert": false,
                    "revertMessage": "",
                    "selector": "0x70a08231",
                    "status": true,
                    "value": "0"
                },
                "nodeType": 0
            },
            "5": {
                "invocation": {
                    "address": "0x51c72848c68a965f66fa7a88855f9f7784502a7f",
                    "callData": "0x000000000000000000000000000000000000000000000000000000000d44b96afffffffffffffffffffffffffffffffffffffffffffffffe162c8b889f30e3c4000000000000000000000000000000000000000000000000000000000000006000000000000000000000000000000000000000000000000000000000000000142260fac5e5542a773aa44fbcfedf7c193bc2c599000000000000000000000000",
                    "decodedMethod": {
                        "callParams": [
                            {
                                "name": "amount0Delta",
                                "type": "int256",
                                "value": "222,607,722"
                            },
                            {
                                "name": "amount1Delta",
                                "type": "int256",
                                "value": "-35,295,682,760,706,825,276"
                            },
                            {
                                "name": "data",
                                "type": "bytes",
                                "value": "0x2260fac5e5542a773aa44fbcfedf7c193bc2c599"
                            }
                        ],
                        "constructorArguments": "",
                        "name": "uniswapV3SwapCallback",
                        "returnParams": [],
                        "signature": "uniswapV3SwapCallback(int256,int256,bytes)"
                    },
                    "errorInfo": "",
                    "fromAddress": "0x4585fe77225b41b697c938b018e2ac67ac5a20c0",
                    "gasUsed": 16464,
                    "id": 5,
                    "methodDecoded": true,
                    "operation": "CALL",
                    "output": "",
                    "revert": false,
                    "revertMessage": "",
                    "selector": "0xfa461e33",
                    "status": true,
                    "value": "0"
                },
                "nodeType": 0
            },
            "6": {
                "invocation": {
                    "address": "0x2260fac5e5542a773aa44fbcfedf7c193bc2c599",
                    "callData": "0x0000000000000000000000004585fe77225b41b697c938b018e2ac67ac5a20c0000000000000000000000000000000000000000000000000000000000d44b96a",
                    "decodedMethod": {
                        "callParams": [
                            {
                                "name": "_to",
                                "type": "address",
                                "value": "0x4585fe77225b41b697c938b018e2ac67ac5a20c0"
                            },
                            {
                                "decimalAvailable": true,
                                "name": "_value",
                                "type": "uint256",
                                "value": "222,607,722"
                            }
                        ],
                        "constructorArguments": "",
                        "name": "transfer",
                        "returnParams": [
                            {
                                "name": "",
                                "type": "bool",
                                "value": true
                            }
                        ],
                        "signature": "transfer(address,uint256)"
                    },
                    "errorInfo": "",
                    "fromAddress": "0x51c72848c68a965f66fa7a88855f9f7784502a7f",
                    "gasUsed": 13703,
                    "id": 6,
                    "methodDecoded": true,
                    "operation": "CALL",
                    "output": "0x0000000000000000000000000000000000000000000000000000000000000001",
                    "revert": false,
                    "revertMessage": "",
                    "selector": "0xa9059cbb",
                    "status": true,
                    "value": "0"
                },
                "nodeType": 0
            },
            "7": {
                "event": {
                    "contract": "0x2260fac5e5542a773aa44fbcfedf7c193bc2c599",
                    "decodedLog": {
                        "name": "Transfer",
                        "params": [
                            {
                                "name": "from",
                                "type": "address",
                                "value": "0x51c72848c68a965f66fa7a88855f9f7784502a7f"
                            },
                            {
                                "name": "to",
                                "type": "address",
                                "value": "0x4585fe77225b41b697c938b018e2ac67ac5a20c0"
                            },
                            {
                                "decimalAvailable": true,
                                "name": "value",
                                "type": "uint256",
                                "value": "222,607,722"
                            }
                        ],
                        "signature": "Transfer(address,address,uint256)"
                    },
                    "id": 7,
                    "logData": "0x000000000000000000000000000000000000000000000000000000000d44b96a",
                    "logDecoded": true,
                    "operation": "EVENT",
                    "revert": false,
                    "status": true,
                    "topics": [
                        "0xddf252ad1be2c89b69c2b068fc378daa952ba7f163c4a11628f55a4df523b3ef",
                        "0x00000000000000000000000051c72848c68a965f66fa7a88855f9f7784502a7f",
                        "0x0000000000000000000000004585fe77225b41b697c938b018e2ac67ac5a20c0"
                    ]
                },
                "nodeType": 1
            },
            "8": {
                "invocation": {
                    "address": "0x2260fac5e5542a773aa44fbcfedf7c193bc2c599",
                    "callData": "0x0000000000000000000000004585fe77225b41b697c938b018e2ac67ac5a20c0",
                    "decodedMethod": {
                        "callParams": [
                            {
                                "name": "_owner",
                                "type": "address",
                                "value": "0x4585fe77225b41b697c938b018e2ac67ac5a20c0"
                            }
                        ],
                        "constructorArguments": "",
                        "name": "balanceOf",
                        "returnParams": [
                            {
                                "decimalAvailable": true,
                                "name": "",
                                "type": "uint256",
                                "value": "128,241,940,838"
                            }
                        ],
                        "signature": "balanceOf(address)"
                    },
                    "errorInfo": "",
                    "fromAddress": "0x4585fe77225b41b697c938b018e2ac67ac5a20c0",
                    "gasUsed": 795,
                    "id": 8,
                    "methodDecoded": true,
                    "operation": "STATICCALL",
                    "output": "0x0000000000000000000000000000000000000000000000000000001ddbd0b966",
                    "revert": false,
                    "revertMessage": "",
                    "selector": "0x70a08231",
                    "status": true,
                    "value": "0"
                },
                "nodeType": 0
            },
            "9": {
                "event": {
                    "contract": "0x4585fe77225b41b697c938b018e2ac67ac5a20c0",
                    "decodedLog": {
                        "name": "Swap",
                        "params": [
                            {
                                "name": "sender",
                                "type": "address",
                                "value": "0x51c72848c68a965f66fa7a88855f9f7784502a7f"
                            },
                            {
                                "name": "recipient",
                                "type": "address",
                                "value": "0x51c72848c68a965f66fa7a88855f9f7784502a7f"
                            },
                            {
                                "name": "amount0",
                                "type": "int256",
                                "value": "222,607,722"
                            },
                            {
                                "name": "amount1",
                                "type": "int256",
                                "value": "-35,295,682,760,706,825,276"
                            },
                            {
                                "name": "sqrtPriceX96",
                                "type": "uint160",
                                "value": "31,555,186,462,562,727,960,026,025,558,008,599"
                            },
                            {
                                "name": "liquidity",
                                "type": "uint128",
                                "value": "2,371,369,452,329,290,594"
                            },
                            {
                                "name": "tick",
                                "type": "int24",
                                "value": "257,911"
                            }
                        ],
                        "signature": "Swap(address,address,int256,int256,uint160,uint128,int24)"
                    },
                    "id": 9,
                    "logData": "0x000000000000000000000000000000000000000000000000000000000d44b96afffffffffffffffffffffffffffffffffffffffffffffffe162c8b889f30e3c400000000000000000000000000000000000613ca728353e076d5d9506abfe31700000000000000000000000000000000000000000000000020e8cbf3ed4ccb62000000000000000000000000000000000000000000000000000000000003ef77",
                    "logDecoded": true,
                    "operation": "EVENT",
                    "revert": false,
                    "status": true,
                    "topics": [
                        "0xc42079f94a6350d7e6235f29174924f928cc2ac818eb64fed8004e115fbcca67",
                        "0x00000000000000000000000051c72848c68a965f66fa7a88855f9f7784502a7f",
                        "0x00000000000000000000000051c72848c68a965f66fa7a88855f9f7784502a7f"
                    ]
                },
                "nodeType": 1
            }
        },
        "gasFlame": [
            {
                "children": [
                    {
                        "children": [
                            {
                                "children": [],
                                "depth": 0,
                                "name": "Initial Gas",
                                "value": 22748
                            },
                            {
                                "children": [
                                    {
                                        "children": [
                                            {
                                                "children": [],
                                                "depth": 2,
                                                "name": "transfer",
                                                "value": 12862
                                            },
                                            {
                                                "children": [],
                                                "depth": 2,
                                                "name": "balanceOf",
                                                "value": 2795
                                            },
                                            {
                                                "children": [
                                                    {
                                                        "children": [],
                                                        "depth": 3,
                                                        "name": "transfer",
                                                        "value": 13703
                                                    }
                                                ],
                                                "depth": 2,
                                                "name": "uniswapV3SwapCallback",
                                                "value": 16464
                                            },
                                            {
                                                "children": [],
                                                "depth": 2,
                                                "name": "balanceOf",
                                                "value": 795
                                            }
                                        ],
                                        "depth": 1,
                                        "name": "swap",
                                        "value": 71282
                                    }
                                ],
                                "depth": 0,
                                "name": "Executed Gas",
                                "value": 82537
                            }
                        ],
                        "depth": -1,
                        "name": "Actual Gas Used",
                        "value": 105285
                    },
                    {
                        "children": [],
                        "depth": -1,
                        "name": "Refunded Gas",
                        "value": 0
                    }
                ],
                "depth": -2,
                "name": "Total Gas",
                "value": 105285
            }
        ],
        "isConfirmed": true,
        "mainTrace": [
            {
                "children": [
                    {
                        "children": [
                            {
                                "children": [
                                    {
                                        "children": [
                                            {
                                                "children": [],
                                                "depth": 3,
                                                "id": 3,
                                                "order": 3
                                            }
                                        ],
                                        "depth": 2,
                                        "id": 2,
                                        "order": 2
                                    },
                                    {
                                        "children": [],
                                        "depth": 2,
                                        "id": 4,
                                        "order": 4
                                    },
                                    {
                                        "children": [
                                            {
                                                "children": [
                                                    {
                                                        "children": [],
                                                        "depth": 4,
                                                        "id": 7,
                                                        "order": 7
                                                    }
                                                ],
                                                "depth": 3,
                                                "id": 6,
                                                "order": 6
                                            }
                                        ],
                                        "depth": 2,
                                        "id": 5,
                                        "order": 5
                                    },
                                    {
                                        "children": [],
                                        "depth": 2,
                                        "id": 8,
                                        "order": 8
                                    },
                                    {
                                        "children": [],
                                        "depth": 2,
                                        "id": 9,
                                        "order": 9
                                    }
                                ],
                                "depth": 1,
                                "id": 1,
                                "order": 1
                            }
                        ],
                        "depth": 0,
                        "id": 0,
                        "order": 0
                    }
                ],
                "depth": -1,
                "id": -1,
                "order": -1
            }
        ],
        "mainTraceNodeCount": 10,
        "parentIdMap": {
            "0": -1,
            "1": 0,
            "2": 1,
            "3": 2,
            "4": 1,
            "5": 1,
            "6": 5,
            "7": 6,
            "8": 1,
            "9": 1
        },
        "tidyTrace": [
            {
                "children": [
                    {
                        "children": [
                            {
                                "children": [
                                    {
                                        "children": [
                                            {
                                                "children": [],
                                                "depth": 3,
                                                "id": 3,
                                                "order": 3
                                            }
                                        ],
                                        "depth": 2,
                                        "id": 2,
                                        "order": 2
                                    },
                                    {
                                        "children": [
                                            {
                                                "children": [
                                                    {
                                                        "children": [],
                                                        "depth": 4,
                                                        "id": 7,
                                                        "order": 7
                                                    }
                                                ],
                                                "depth": 3,
                                                "id": 6,
                                                "order": 6
                                            }
                                        ],
                                        "depth": 2,
                                        "id": 5,
                                        "order": 5
                                    },
                                    {
                                        "children": [],
                                        "depth": 2,
                                        "id": 9,
                                        "order": 9
                                    }
                                ],
                                "depth": 1,
                                "id": 1,
                                "order": 1
                            }
                        ],
                        "depth": 0,
                        "id": 0,
                        "order": 0
                    }
                ],
                "depth": -1,
                "id": -1,
                "order": -1
            }
        ],
        "tidyTraceNodeCount": 8
    },
    "state_change": {
        "stateChanges": [
            {
                "address": "0x2260fac5e5542a773aa44fbcfedf7c193bc2c599",
                "erc": "ERC-20",
                "slots": [
                    {
                        "current": "0x00000000000000000000000000000000000000000000000000000000475242f6",
                        "key": "0x356ea57d585b4c2292ee2a39c9da213499f25d18b4fba5671c7bc01208e40e2e",
                        "prev": "0x000000000000000000000000000000000000000000000000000000005496fc60"
                    },
                    {
                        "current": "0x0000000000000000000000000000000000000000000000000000001ddbd0b966",
                        "key": "0xdc276a4f120117ad5ae6415d1c724b4f3a0e81f0ee6466e1392ca121b63123f2",
                        "prev": "0x0000000000000000000000000000000000000000000000000000001dce8bfffc"
                    }
                ],
                "storageVariables": [
                    {
                        "name": "balances",
                        "type": "mapping(address => uint256)",
                        "value": {
                            "pairs": [
                                {
                                    "key": "0x4585fe77225b41b697c938b018e2ac67ac5a20c0",
                                    "value": {
                                        "current": "128241940838",
                                        "prev": "128019333116",
                                        "typeTag": 1
                                    }
                                },
                                {
                                    "key": "0x51c72848c68a965f66fa7a88855f9f7784502a7f",
                                    "value": {
                                        "current": "1196573430",
                                        "prev": "1419181152",
                                        "typeTag": 1
                                    }
                                }
                            ],
                            "typeTag": 4
                        }
                    }
                ]
            },
            {
                "address": "0x4585fe77225b41b697c938b018e2ac67ac5a20c0",
                "erc": "",
                "slots": [
                    {
                        "current": "0x000100012c012c002b03ef7700000000000613ca728353e076d5d9506abfe317",
                        "key": "0x0000000000000000000000000000000000000000000000000000000000000000",
                        "prev": "0x000100012c012c002b03ef7700000000000613d954d73a1cfce119e3a984ede0"
                    },
                    {
                        "current": "0x00000000000000000000000000000000000001886df7c3d4dba99cc6edd22485",
                        "key": "0x0000000000000000000000000000000000000000000000000000000000000001",
                        "prev": "0x00000000000000000000000000000000000001886dea8db18fb546bf63eac56d"
                    }
                ],
                "storageVariables": []
            },
            {
                "address": "0xc02aaa39b223fe8d0a0e5c4f27ead9083c756cc2",
                "erc": "ERC-20",
                "slots": [
                    {
                        "current": "0x0000000000000000000000000000000000000000000005d4180f0aaa67616a01",
                        "key": "0x9ede93be0d8fc6a5eb9cf1c7345a85b7519d8487a727aef0c2f00ab966aa7716",
                        "prev": "0x0000000000000000000000000000000000000000000005d601e27f21c830863d"
                    },
                    {
                        "current": "0x00000000000000000000000000000000000000000000005faa4a14a5e4d8ad5a",
                        "key": "0x3a3aec5717af62dfc0f5ede964a3e44cef7c5ba4453963ee6e3545ea9708690f",
                        "prev": "0x00000000000000000000000000000000000000000000005dc076a02e8409911e"
                    }
                ],
                "storageVariables": [
                    {
                        "name": "balanceOf",
                        "type": "mapping(address => uint256)",
                        "value": {
                            "pairs": [
                                {
                                    "key": "0x4585fe77225b41b697c938b018e2ac67ac5a20c0",
                                    "value": {
                                        "current": "27524275774083207096833",
                                        "prev": "27559571456843913922109",
                                        "typeTag": 1
                                    }
                                },
                                {
                                    "key": "0x51c72848c68a965f66fa7a88855f9f7784502a7f",
                                    "value": {
                                        "current": "1764711329839873305946",
                                        "prev": "1729415647079166480670",
                                        "typeTag": 1
                                    }
                                }
                            ],
                            "typeTag": 4
                        }
                    }
                ]
            }
        ]
    }
}