{
    "balance_change": {
        "balanceChanges": [
            {
                "account": "0x3d7094c38419b9948042fa7c2de489978eaf79d5",
                "assets": [
                    {
                        "address": "0x5b8174e20996ec743f01d3b55a35dd376429c596",
                        "amount": "39.2",
                        "iconUrl": "",
                        "isERC1155": false,
                        "isERC721": false,
                        "sign": false,
                        "value": ""
                    }
                ]
            },
            {
                "account": "0x03ae591af4f9840db52ccf1d6ee139b1d0d67913",
                "assets": [
                    {
                        "address": "0x5b8174e20996ec743f01d3b55a35dd376429c596",
                        "amount": "39.2",
                        "iconUrl": "",
                        "isERC1155": false,
                        "isERC721": false,
                        "sign": true,
                        "value": ""
                    }
                ]
            }
        ]
    },
    "profile": {
        "basic_info": {
            "baseFee": "",
            "blockNumber": 8914314,
            "callData": "0xa9059cbb00000000000000000000000003ae591af4f9840db52ccf1d6ee139b1d0d679130000000000000000000000000000000000000000000000022002604f3b500000",
            "debugEnable": true,
            "errorInfo": "",
            "eventCount": 1,
            "feeRecipient": "0x5a0b54d5dc17e0aadc383d2db43b0a0d3e029c4c",
            "formatValue": "0",
            "gasLimit": 57577,
            "gasPrice": "1",
            "gasUsed": 38385,
            "intTxnCount": 0,
            "internalRevert": false,
            "internalRevertMessage": "",
            "isContractCreation": false,
            "isFlashloan": false,
            "maxFee": "",
            "nonce": 22858,
            "overwritedBlockNumber": -1,
            "priorityFee": "",
            "receiver": "0x5b8174e20996ec743f01d3b55a35dd376429c596",
            "revertMessage": "",
            "sender": "0x3d7094c38419b9948042fa7c2de489978eaf79d5",
            "simulationEnable": true,
            "sourceTxnHash": "0x405d19c73bf28cdc7a5204e60a2148e94f5f116b75dd0382287fea26c30a3642",
            "status": true,
            "timestamp": "2019-11-11T12:04:42Z",
            "transactionFee": "0.000038385",
            "txnHash": "0x405d19c73bf28cdc7a5204e60a2148e94f5f116b75dd0382287fea26c30a3642",
            "txnIndex": 54,
            "type": 0,
            "value": "0"
        },
        "fund_flow": [
            {
                "amount": "39.2",
                "from": "0x3d7094c38419b9948042fa7c2de489978eaf79d5",
                "id": 1,
                "isERC1155": false,
                "isERC721": false,
                "isReverted": false,
                "order": 1,
                "to": "0x03ae591af4f9840db52ccf1d6ee139b1d0d67913",
                "token": "0x5b8174e20996ec743f01d3b55a35dd376429c596"
            }
        ],
        "token_infos": [
            {
                "address": "0xeeeeeeeeeeeeeeeeeeeeeeeeeeeeeeeeeeeeeeee",
                "decimals": 18
            },
            {
                "address": "0x5b8174e20996ec743f01d3b55a35dd376429c596",
                "decimals": 18
            },
            {
                "address": "0xc02aaa39b223fe8d0a0e5c4f27ead9083c756cc2",
                "decimals": 18
            }
        ]
    },
    "address_label": {
        "labels": [
            {
                "address": "0xeeeeeeeeeeeeeeeeeeeeeeeeeeeeeeeeeeeeeeee",
                "label": "Ether"
            },
            {
                "address": "0x5b8174e20996ec743f01d3b55a35dd376429c596",
                "label": "PCPToken (PCPT)"
            },
            {
                "address": "0x0000000000000000000000000000000000000001",
                "label": "Precompiled"
            },
            {
                "address": "0x0000000000000000000000000000000000000002",
                "label": "Precompiled"
            },
            {
                "address": "0x0000000000000000000000000000000000000003",
                "label": "Precompiled"
            },
            {
                "address": "0x0000000000000000000000000000000000000004",
                "label": "Precompiled"
            }
        ]
    },
    "trace": {
        "accountLabels": null,
        "dataMap": {
            "-1": {
                "invocation": {
                    "address": "0x3d7094c38419b9948042fa7c2de489978eaf79d5",
                    "callData": "",
                    "decodedMethod": null,
                    "errorInfo": "",
                    "fromAddress": "",
                    "gasUsed": 0,
                    "id": -1,
                    "methodDecoded": false,
                    "operation": "",
                    "output": "",
                    "revert": false,
                    "revertMessage": "",
                    "selector": "",
                    "status": false,
                    "value": ""
                },
                "nodeType": 0
            },
            "0": {
                "invocation": {
                    "address": "0x5b8174e20996ec743f01d3b55a35dd376429c596",
                    "callData": "0x00000000000000000000000003ae591af4f9840db52ccf1d6ee139b1d0d679130000000000000000000000000000000000000000000000022002604f3b500000",
                    "decodedMethod": {
                        "callParams": [
                            {
                                "name": "_to",
                                "type": "address",
                                "value": "0x03ae591af4f9840db52ccf1d6ee139b1d0d67913"
                            },
                            {
                                "decimalAvailable": true,
                                "name": "_value",
                                "type": "uint256",
                                "value": "39,200,000,000,000,000,000"
                            }
                        ],
                        "constructorArguments": "",
                        "name": "transfer",
                        "returnParams": [
                            {
                                "name": "success",
                                "type": "bool",
                                "value": true
                            }
                        ],
                        "signature": "transfer(address,uint256)"
                    },
                    "errorInfo": "",
                    "fromAddress": "0x3d7094c38419b9948042fa7c2de489978eaf79d5",
                    "gasUsed": 38385,
                    "id": 0,
                    "methodDecoded": true,
                    "operation": "CALL",
                    "output": "0x0000000000000000000000000000000000000000000000000000000000000001",
                    "revert": false,
                    "revertMessage": "",
                    "selector": "0xa9059cbb",
                    "status": true,
                    "value": "0"
                },
                "nodeType": 0
            },
            "1": {
                "event": {
                    "contract": "0x5b8174e20996ec743f01d3b55a35dd376429c596",
                    "decodedLog": {
                        "name": "Transfer",
                        "params": [
                            {
                                "name": "from",
                                "type": "address",
                                "value": "0x3d7094c38419b9948042fa7c2de489978eaf79d5"
                            },
                            {
                                "name": "to",
                                "type": "address",
                                "value": "0x03ae591af4f9840db52ccf1d6ee139b1d0d67913"
                            },
                            {
                                "decimalAvailable": true,
                                "name": "value",
                                "type": "uint256",
                                "value": "39,200,000,000,000,000,000"
                            }
                        ],
                        "signature": "Transfer(address,address,uint256)"
                    },
                    "id": 1,
                    "logData": "0x0000000000000000000000000000000000000000000000022002604f3b500000",
                    "logDecoded": true,
                    "operation": "EVENT",
                    "revert": false,
                    "status": true,
                    "topics": [
                        "0xddf252ad1be2c89b69c2b068fc378daa952ba7f163c4a11628f55a4df523b3ef",
                        "0x0000000000000000000000003d7094c38419b9948042fa7c2de489978eaf79d5",
                        "0x00000000000000000000000003ae591af4f9840db52ccf1d6ee139b1d0d67913"
                    ]
                },
                "nodeType": 1
            }
        },
        "gasFlame": [
            {
                "children": [
                    {
                        "children": [
                            {
                                "children": [],
                                "depth": 0,
                                "name": "Initial Gas",
                                "value": 23256
                            },
                            {
                                "children": [],
                                "depth": 0,
                                "name": "Executed Gas",
                                "value": 15129
                            }
                        ],
                        "depth": -1,
                        "name": "Actual Gas Used",
                        "value": 38385
                    },
                    {
                        "children": [],
                        "depth": -1,
                        "name": "Refunded Gas",
                        "value": 0
                    }
                ],
                "depth": -2,
                "name": "Total Gas",
                "value": 38385
            }
        ],
        "isConfirmed": true,
        "mainTrace": [
            {
                "children": [
                    {
                        "children": [
                            {
                                "children": [],
                                "depth": 1,
                                "id": 1,
                                "order": 1
                            }
                        ],
                        "depth": 0,
                        "id": 0,
                        "order": 0
                    }
                ],
                "depth": -1,
                "id": -1,
                "order": -1
            }
        ],
        "mainTraceNodeCount": 2,
        "parentIdMap": {
            "0": -1,
            "1": 0
        },
        "tidyTrace": [
            {
                "children": [
                    {
                        "children": [
                            {
                                "children": [],
                                "depth": 1,
                                "id": 1,
                                "order": 1
                            }
                        ],
                        "depth": 0,
                        "id": 0,
                        "order": 0
                    }
                ],
                "depth": -1,
                "id": -1,
                "order": -1
            }
        ],
        "tidyTraceNodeCount": 2
    },
    "state_change": {
        "stateChanges": [
            {
                "address": "0x5b8174e20996ec743f01d3b55a35dd376429c596",
                "erc": "ERC-20",
                "slots": [
                    {
                        "current": "0x0000000000000000000000000000000000000000000016cdb4e034cad33d9b00",
                        "key": "0x791bb5fa12d6c0f8e968b7347277a64a57e3328f70e846f9bcc1b7cb1106ae22",
                        "prev": "0x0000000000000000000000000000000000000000000016cfd4e2951a0e8d9b00"
                    },
                    {
                        "current": "0x000000000000000000000000000000000000000000000016956a256ccbe1b8f0",
                        "key": "0x753d13d9464b8511bd9b2101d94ea383102d0ca718ff3aeef8dd8a1b0b6632df",
                        "prev": "0x0000000000000000000000000000000000000000000000147567c51d9091b8f0"
                    }
                ],
                "storageVariables": [
                    {
                        "name": "balanceOf",
                        "type": "mapping(address => uint256)",
                        "value": {
                            "pairs": [
                                {
                                    "key": "0x03ae591af4f9840db52ccf1d6ee139b1d0d67913",
                                    "value": {
                                        "current": "416594828629999991024",
                                        "prev": "377394828629999991024",
                                        "typeTag": 1
                                    }
                                },
                                {
                                    "key": "0x3d7094c38419b9948042fa7c2de489978eaf79d5",
                                    "value": {
                                        "current": "107686678633609995066112",
                                        "prev": "107725878633609995066112",
                                        "typeTag": 1
                                    }
                                }
                            ],
                            "typeTag": 4
                        }
                    }
                ]
            }
        ]
    }
}