{
    "balance_change": {
        "balanceChanges": [
            {
                "account": "0xb0aeee83a2358888263a4e5b38a539272f8f87ed",
                "assets": [
                    {
                        "address": "0x57ab1ec28d129707052df4df418d58a2d46d5f51",
                        "amount": "10.01",
                        "iconUrl": "https://assets.blocksec.com/icon/f7990889db356265de48132657016a0bf24a223aca34117aaed181b3797cca7c.png",
                        "isERC1155": false,
                        "isERC721": false,
                        "sign": false,
                        "value": ""
                    }
                ]
            },
            {
                "account": "0xd8a613cc98d1923db86041259a4ac656ecc5e3ec",
                "assets": [
                    {
                        "address": "0x57ab1ec28d129707052df4df418d58a2d46d5f51",
                        "amount": "10.01",
                        "iconUrl": "https://assets.blocksec.com/icon/f7990889db356265de48132657016a0bf24a223aca34117aaed181b3797cca7c.png",
                        "isERC1155": false,
                        "isERC721": false,
                        "sign": true,
                        "value": ""
                    }
                ]
            }
        ]
    },
    "profile": {
        "basic_info": {
            "baseFee": "",
            "blockNumber": 10053630,
            "callData": "0xa9059cbb000000000000000000000000d8a613cc98d1923db86041259a4ac656ecc5e3ec0000000000000000000000000000000000000000000000008aeaa9f6f9a90000",
            "debugEnable": true,
            "errorInfo": "",
            "eventCount": 1,
            "feeRecipient": "0x12eb9bce34341d1163814843f8dca44dfebe913c",
            "formatValue": "0",
            "gasLimit": 98750,
            "gasPrice": "15",
            "gasUsed": 82895,
            "intTxnCount": 13,
            "internalRevert": false,
            "internalRevertMessage": "",
            "isContractCreation": false,
            "isFlashloan": false,
            "maxFee": "",
            "nonce": 298,
            "overwritedBlockNumber": -1,
            "priorityFee": "",
            "receiver": "0x57ab1ec28d129707052df4df418d58a2d46d5f51",
            "revertMessage": "",
            "sender": "0xb0aeee83a2358888263a4e5b38a539272f8f87ed",
            "simulationEnable": true,
            "sourceTxnHash": "0x414a06d2171e1d8d3b6fc043e09615c716f9f8e126aa851aab787ceaf288296d",
            "status": true,
            "timestamp": "2020-05-12T20:57:52Z",
            "transactionFee": "0.001243425",
            "txnHash": "0x414a06d2171e1d8d3b6fc043e09615c716f9f8e126aa851aab787ceaf288296d",
            "txnIndex": 74,
            "type": 0,
            "value": "0"
        },
        "fund_flow": [
            {
                "amount": "10.01",
                "from": "0xb0aeee83a2358888263a4e5b38a539272f8f87ed",
                "id": 1,
                "isERC1155": false,
                "isERC721": false,
                "isReverted": false,
                "order": 1,
                "to": "0xd8a613cc98d1923db86041259a4ac656ecc5e3ec",
                "token": "0x57ab1ec28d129707052df4df418d58a2d46d5f51"
            }
        ],
        "token_infos": [
            {
                "address": "0x57ab1ec28d129707052df4df418d58a2d46d5f51",
                "decimals": 18
            },
            {
                "address": "0xc02aaa39b223fe8d0a0e5c4f27ead9083c756cc2",
                "decimals": 18
            },
            {
                "address": "0xeeeeeeeeeeeeeeeeeeeeeeeeeeeeeeeeeeeeeeee",
                "decimals": 18
            }
        ]
    },
    "address_label": {
        "labels": [
            {
                "address": "0x0000000000000000000000000000000000000001",
                "label": "Precompiled"
            },
            {
                "address": "0xeeeeeeeeeeeeeeeeeeeeeeeeeeeeeeeeeeeeeeee",
                "label": "Ether"
            },
            {
                "address": "0x545973f28950f50fc6c7f52aab4ad214a27c0564",
                "label": "Synthetix: Exchange State"
            },
            {
                "address": "0x271d0c1940fe546e787b273a0ccc780ecd8db461",
                "label": "Synthetix: Old Exchanger 2"
            },
            {
                "address": "0x57ab1ec28d129707052df4df418d58a2d46d5f51",
                "label": "Synthetix: Proxy sUSD Token"
            },
            {
                "address": "0x0000000000000000000000000000000000000003",
                "label": "Precompiled"
            },
            {
                "address": "0x0000000000000000000000000000000000000004",
                "label": "Precompiled"
            },
            {
                "address": "0x4534e92eefecc63c6105f53893d355c14aa129cf",
                "label": "Synthetix: Old System Status"
            },
            {
                "address": "0xae38b81459d74a8c16eaa968c792207603d84480",
                "label": "Synthetix: Synth sUSD"
            },
            {
                "address": "0x05a9cbe762b36632b3594da4f082340e0e5343e8",
                "label": "Synthetix: Token State sUSD"
            },
            {
                "address": "0x0000000000000000000000000000000000000002",
                "label": "Precompiled"
            }
        ]
    },
    "trace": {
        "accountLabels": null,
        "dataMap": {
            "-1": {
                "invocation": {
                    "address": "0xb0aeee83a2358888263a4e5b38a539272f8f87ed",
                    "callData": "",
                    "decodedMethod": null,
                    "errorInfo": "",
                    "fromAddress": "",
                    "gasUsed": 0,
                    "id": -1,
                    "methodDecoded": false,
                    "operation": "",
                    "output": "",
                    "revert": false,
                    "revertMessage": "",
                    "selector": "",
                    "status": false,
                    "value": ""
                },
                "nodeType": 0
            },
            "0": {
                "invocation": {
                    "address": "0x57ab1ec28d129707052df4df418d58a2d46d5f51",
                    "callData": "0x000000000000000000000000d8a613cc98d1923db86041259a4ac656ecc5e3ec0000000000000000000000000000000000000000000000008aeaa9f6f9a90000",
                    "decodedMethod": {
                        "callParams": [
                            {
                                "name": "to",
                                "type": "address",
                                "value": "0xd8a613cc98d1923db86041259a4ac656ecc5e3ec"
                            },
                            {
                                "decimalAvailable": true,
                                "name": "value",
                                "type": "uint256",
                                "value": "10,010,000,000,000,000,000"
                            }
                        ],
                        "constructorArguments": "",
                        "name": "transfer",
                        "returnParams": [
                            {
                                "name": "",
                                "type": "bool",
                                "value": true
                            }
                        ],
                        "signature": "transfer(address,uint256)"
                    },
                    "errorInfo": "",
                    "fromAddress": "0xb0aeee83a2358888263a4e5b38a539272f8f87ed",
                    "gasUsed": 82895,
                    "id": 0,
                    "methodDecoded": true,
                    "operation": "CALL",
                    "output": "0x0000000000000000000000000000000000000000000000000000000000000001",
                    "revert": false,
                    "revertMessage": "",
                    "selector": "0xa9059cbb",
                    "status": true,
                    "value": "0"
                },
                "nodeType": 0
            },
            "1": {
                "invocation": {
                    "address": "0xae38b81459d74a8c16eaa968c792207603d84480",
                    "callData": "0x000000000000000000000000b0aeee83a2358888263a4e5b38a539272f8f87ed",
                    "decodedMethod": {
                        "callParams": [
                            {
                                "name": "sender",
                                "type": "address",
                                "value": "0xb0aeee83a2358888263a4e5b38a539272f8f87ed"
                            }
                        ],
                        "constructorArguments": "",
                        "name": "setMessageSender",
                        "returnParams": [],
                        "signature": "setMessageSender(address)"
                    },
                    "errorInfo": "",
                    "fromAddress": "0x57ab1ec28d129707052df4df418d58a2d46d5f51",
                    "gasUsed": 7837,
                    "id": 1,
                    "methodDecoded": true,
                    "operation": "CALL",
                    "output": "",
                    "revert": false,
                    "revertMessage": "",
                    "selector": "0xbc67f832",
                    "status": true,
                    "value": "0"
                },
                "nodeType": 0
            },
            "10": {
                "invocation": {
                    "address": "0x05a9cbe762b36632b3594da4f082340e0e5343e8",
                    "callData": "0x000000000000000000000000b0aeee83a2358888263a4e5b38a539272f8f87ed0000000000000000000000000000000000000000000000000000000000000000",
                    "decodedMethod": {
                        "callParams": [
                            {
                                "name": "account",
                                "type": "address",
                                "value": "0xb0aeee83a2358888263a4e5b38a539272f8f87ed"
                            },
                            {
                                "name": "value",
                                "type": "uint256",
                                "value": "0"
                            }
                        ],
                        "constructorArguments": "",
                        "name": "setBalanceOf",
                        "returnParams": [],
                        "signature": "setBalanceOf(address,uint256)"
                    },
                    "errorInfo": "",
                    "fromAddress": "0xae38b81459d74a8c16eaa968c792207603d84480",
                    "gasUsed": 6418,
                    "id": 10,
                    "methodDecoded": true,
                    "operation": "CALL",
                    "output": "",
                    "revert": false,
                    "revertMessage": "",
                    "selector": "0xb46310f6",
                    "status": true,
                    "value": "0"
                },
                "nodeType": 0
            },
            "11": {
                "invocation": {
                    "address": "0x05a9cbe762b36632b3594da4f082340e0e5343e8",
                    "callData": "0x000000000000000000000000d8a613cc98d1923db86041259a4ac656ecc5e3ec",
                    "decodedMethod": {
                        "callParams": [
                            {
                                "name": "",
                                "type": "address",
                                "value": "0xd8a613cc98d1923db86041259a4ac656ecc5e3ec"
                            }
                        ],
                        "constructorArguments": "",
                        "name": "balanceOf",
                        "returnParams": [
                            {
                                "decimalAvailable": true,
                                "name": "",
                                "type": "uint256",
                                "value": "3,562,859,977,183,393"
                            }
                        ],
                        "signature": "balanceOf(address)"
                    },
                    "errorInfo": "",
                    "fromAddress": "0xae38b81459d74a8c16eaa968c792207603d84480",
                    "gasUsed": 1197,
                    "id": 11,
                    "methodDecoded": true,
                    "operation": "CALL",
                    "output": "0x000000000000000000000000000000000000000000000000000ca866fb5310a1",
                    "revert": false,
                    "revertMessage": "",
                    "selector": "0x70a08231",
                    "status": true,
                    "value": "0"
                },
                "nodeType": 0
            },
            "12": {
                "invocation": {
                    "address": "0x05a9cbe762b36632b3594da4f082340e0e5343e8",
                    "callData": "0x000000000000000000000000d8a613cc98d1923db86041259a4ac656ecc5e3ec0000000000000000000000000000000000000000000000008af7525df4fc10a1",
                    "decodedMethod": {
                        "callParams": [
                            {
                                "name": "account",
                                "type": "address",
                                "value": "0xd8a613cc98d1923db86041259a4ac656ecc5e3ec"
                            },
                            {
                                "name": "value",
                                "type": "uint256",
                                "value": "10,013,562,859,977,183,393"
                            }
                        ],
                        "constructorArguments": "",
                        "name": "setBalanceOf",
                        "returnParams": [],
                        "signature": "setBalanceOf(address,uint256)"
                    },
                    "errorInfo": "",
                    "fromAddress": "0xae38b81459d74a8c16eaa968c792207603d84480",
                    "gasUsed": 6418,
                    "id": 12,
                    "methodDecoded": true,
                    "operation": "CALL",
                    "output": "",
                    "revert": false,
                    "revertMessage": "",
                    "selector": "0xb46310f6",
                    "status": true,
                    "value": "0"
                },
                "nodeType": 0
            },
            "13": {
                "invocation": {
                    "address": "0x57ab1ec28d129707052df4df418d58a2d46d5f51",
                    "callData": "0x00000000000000000000000000000000000000000000000000000000000000c00000000000000000000000000000000000000000000000000000000000000003ddf252ad1be2c89b69c2b068fc378daa952ba7f163c4a11628f55a4df523b3ef000000000000000000000000b0aeee83a2358888263a4e5b38a539272f8f87ed000000000000000000000000d8a613cc98d1923db86041259a4ac656ecc5e3ec000000000000000000000000000000000000000000000000000000000000000000000000000000000000000000000000000000000000000000000000000000200000000000000000000000000000000000000000000000008aeaa9f6f9a90000",
                    "decodedMethod": {
                        "callParams": [
                            {
                                "name": "callData",
                                "type": "bytes",
                                "value": "0x0000000000000000000000000000000000000000000000008aeaa9f6f9a90000"
                            },
                            {
                                "name": "numTopics",
                                "type": "uint256",
                                "value": "3"
                            },
                            {
                                "name": "topic1",
                                "type": "bytes32",
                                "value": "0xddf252ad1be2c89b69c2b068fc378daa952ba7f163c4a11628f55a4df523b3ef"
                            },
                            {
                                "name": "topic2",
                                "type": "bytes32",
                                "value": "0x000000000000000000000000b0aeee83a2358888263a4e5b38a539272f8f87ed"
                            },
                            {
                                "name": "topic3",
                                "type": "bytes32",
                                "value": "0x000000000000000000000000d8a613cc98d1923db86041259a4ac656ecc5e3ec"
                            },
                            {
                                "name": "topic4",
                                "type": "bytes32",
                                "value": "0x0000000000000000000000000000000000000000000000000000000000000000"
                            }
                        ],
                        "constructorArguments": "",
                        "name": "_emit",
                        "returnParams": [],
                        "signature": "_emit(bytes,uint256,bytes32,bytes32,bytes32,bytes32)"
                    },
                    "errorInfo": "",
                    "fromAddress": "0xae38b81459d74a8c16eaa968c792207603d84480",
                    "gasUsed": 3406,
                    "id": 13,
                    "methodDecoded": true,
                    "operation": "CALL",
                    "output": "",
                    "revert": false,
                    "revertMessage": "",
                    "selector": "0x907dff97",
                    "status": true,
                    "value": "0"
                },
                "nodeType": 0
            },
            "14": {
                "event": {
                    "contract": "0x57ab1ec28d129707052df4df418d58a2d46d5f51",
                    "decodedLog": {
                        "name": "Transfer",
                        "params": [
                            {
                                "name": "from",
                                "type": "address",
                                "value": "0xb0aeee83a2358888263a4e5b38a539272f8f87ed"
                            },
                            {
                                "name": "to",
                                "type": "address",
                                "value": "0xd8a613cc98d1923db86041259a4ac656ecc5e3ec"
                            },
                            {
                                "decimalAvailable": true,
                                "name": "value",
                                "type": "uint256",
                                "value": "10,010,000,000,000,000,000"
                            }
                        ],
                        "signature": "Transfer(address,address,uint256)"
                    },
                    "id": 14,
                    "logData": "0x0000000000000000000000000000000000000000000000008aeaa9f6f9a90000",
                    "logDecoded": true,
                    "operation": "EVENT",
                    "revert": false,
                    "status": true,
                    "topics": [
                        "0xddf252ad1be2c89b69c2b068fc378daa952ba7f163c4a11628f55a4df523b3ef",
                        "0x000000000000000000000000b0aeee83a2358888263a4e5b38a539272f8f87ed",
                        "0x000000000000000000000000d8a613cc98d1923db86041259a4ac656ecc5e3ec"
                    ]
                },
                "nodeType": 1
            },
            "2": {
                "invocation": {
                    "address": "0xae38b81459d74a8c16eaa968c792207603d84480",
                    "callData": "0x000000000000000000000000d8a613cc98d1923db86041259a4ac656ecc5e3ec0000000000000000000000000000000000000000000000008aeaa9f6f9a90000",
                    "decodedMethod": {
                        "callParams": [
                            {
                                "name": "to",
                                "type": "address",
                                "value": "0xd8a613cc98d1923db86041259a4ac656ecc5e3ec"
                            },
                            {
                                "decimalAvailable": true,
                                "name": "value",
                                "type": "uint256",
                                "value": "10,010,000,000,000,000,000"
                            }
                        ],
                        "constructorArguments": "",
                        "name": "transfer",
                        "returnParams": [
                            {
                                "name": "",
                                "type": "bool",
                                "value": true
                            }
                        ],
                        "signature": "transfer(address,uint256)"
                    },
                    "errorInfo": "",
                    "fromAddress": "0x57ab1ec28d129707052df4df418d58a2d46d5f51",
                    "gasUsed": 62809,
                    "id": 2,
                    "methodDecoded": true,
                    "operation": "CALL",
                    "output": "0x0000000000000000000000000000000000000000000000000000000000000001",
                    "revert": false,
                    "revertMessage": "",
                    "selector": "0xa9059cbb",
                    "status": true,
                    "value": "0"
                },
                "nodeType": 0
            },
            "3": {
                "invocation": {
                    "address": "0x271d0c1940fe546e787b273a0ccc780ecd8db461",
                    "callData": "0x000000000000000000000000b0aeee83a2358888263a4e5b38a539272f8f87ed7355534400000000000000000000000000000000000000000000000000000000",
                    "decodedMethod": {
                        "callParams": [
                            {
                                "name": "account",
                                "type": "address",
                                "value": "0xb0aeee83a2358888263a4e5b38a539272f8f87ed"
                            },
                            {
                                "name": "currencyKey",
                                "type": "bytes32",
                                "value": "0x7355534400000000000000000000000000000000000000000000000000000000"
                            }
                        ],
                        "constructorArguments": "",
                        "name": "maxSecsLeftInWaitingPeriod",
                        "returnParams": [
                            {
                                "name": "",
                                "type": "uint256",
                                "value": "0"
                            }
                        ],
                        "signature": "maxSecsLeftInWaitingPeriod(address,bytes32)"
                    },
                    "errorInfo": "",
                    "fromAddress": "0xae38b81459d74a8c16eaa968c792207603d84480",
                    "gasUsed": 4893,
                    "id": 3,
                    "methodDecoded": true,
                    "operation": "CALL",
                    "output": "0x0000000000000000000000000000000000000000000000000000000000000000",
                    "revert": false,
                    "revertMessage": "",
                    "selector": "0x059c29ec",
                    "status": true,
                    "value": "0"
                },
                "nodeType": 0
            },
            "4": {
                "invocation": {
                    "address": "0x545973f28950f50fc6c7f52aab4ad214a27c0564",
                    "callData": "0x000000000000000000000000b0aeee83a2358888263a4e5b38a539272f8f87ed7355534400000000000000000000000000000000000000000000000000000000",
                    "decodedMethod": {
                        "callParams": [
                            {
                                "name": "account",
                                "type": "address",
                                "value": "0xb0aeee83a2358888263a4e5b38a539272f8f87ed"
                            },
                            {
                                "name": "currencyKey",
                                "type": "bytes32",
                                "value": "0x7355534400000000000000000000000000000000000000000000000000000000"
                            }
                        ],
                        "constructorArguments": "",
                        "name": "getMaxTimestamp",
                        "returnParams": [
                            {
                                "name": "",
                                "type": "uint256",
                                "value": "0"
                            }
                        ],
                        "signature": "getMaxTimestamp(address,bytes32)"
                    },
                    "errorInfo": "",
                    "fromAddress": "0x271d0c1940fe546e787b273a0ccc780ecd8db461",
                    "gasUsed": 1619,
                    "id": 4,
                    "methodDecoded": true,
                    "operation": "CALL",
                    "output": "0x0000000000000000000000000000000000000000000000000000000000000000",
                    "revert": false,
                    "revertMessage": "",
                    "selector": "0xf1406dc8",
                    "status": true,
                    "value": "0"
                },
                "nodeType": 0
            },
            "5": {
                "invocation": {
                    "address": "0x271d0c1940fe546e787b273a0ccc780ecd8db461",
                    "callData": "0x000000000000000000000000b0aeee83a2358888263a4e5b38a539272f8f87ed7355534400000000000000000000000000000000000000000000000000000000",
                    "decodedMethod": {
                        "callParams": [
                            {
                                "name": "account",
                                "type": "address",
                                "value": "0xb0aeee83a2358888263a4e5b38a539272f8f87ed"
                            },
                            {
                                "name": "currencyKey",
                                "type": "bytes32",
                                "value": "0x7355534400000000000000000000000000000000000000000000000000000000"
                            }
                        ],
                        "constructorArguments": "",
                        "name": "settlementOwing",
                        "returnParams": [
                            {
                                "name": "reclaimAmount",
                                "type": "uint256",
                                "value": "0"
                            },
                            {
                                "name": "rebateAmount",
                                "type": "uint256",
                                "value": "0"
                            },
                            {
                                "name": "numEntries",
                                "type": "uint256",
                                "value": "0"
                            }
                        ],
                        "signature": "settlementOwing(address,bytes32)"
                    },
                    "errorInfo": "",
                    "fromAddress": "0xae38b81459d74a8c16eaa968c792207603d84480",
                    "gasUsed": 5096,
                    "id": 5,
                    "methodDecoded": true,
                    "operation": "CALL",
                    "output": "0x000000000000000000000000000000000000000000000000000000000000000000000000000000000000000000000000000000000000000000000000000000000000000000000000000000000000000000000000000000000000000000000000",
                    "revert": false,
                    "revertMessage": "",
                    "selector": "0x19d5c665",
                    "status": true,
                    "value": "0"
                },
                "nodeType": 0
            },
            "6": {
                "invocation": {
                    "address": "0x545973f28950f50fc6c7f52aab4ad214a27c0564",
                    "callData": "0x000000000000000000000000b0aeee83a2358888263a4e5b38a539272f8f87ed7355534400000000000000000000000000000000000000000000000000000000",
                    "decodedMethod": {
                        "callParams": [
                            {
                                "name": "account",
                                "type": "address",
                                "value": "0xb0aeee83a2358888263a4e5b38a539272f8f87ed"
                            },
                            {
                                "name": "currencyKey",
                                "type": "bytes32",
                                "value": "0x7355534400000000000000000000000000000000000000000000000000000000"
                            }
                        ],
                        "constructorArguments": "",
                        "name": "getLengthOfEntries",
                        "returnParams": [
                            {
                                "name": "",
                                "type": "uint256",
                                "value": "0"
                            }
                        ],
                        "signature": "getLengthOfEntries(address,bytes32)"
                    },
                    "errorInfo": "",
                    "fromAddress": "0x271d0c1940fe546e787b273a0ccc780ecd8db461",
                    "gasUsed": 1510,
                    "id": 6,
                    "methodDecoded": true,
                    "operation": "CALL",
                    "output": "0x0000000000000000000000000000000000000000000000000000000000000000",
                    "revert": false,
                    "revertMessage": "",
                    "selector": "0xb44e9753",
                    "status": true,
                    "value": "0"
                },
                "nodeType": 0
            },
            "7": {
                "invocation": {
                    "address": "0x05a9cbe762b36632b3594da4f082340e0e5343e8",
                    "callData": "0x000000000000000000000000b0aeee83a2358888263a4e5b38a539272f8f87ed",
                    "decodedMethod": {
                        "callParams": [
                            {
                                "name": "",
                                "type": "address",
                                "value": "0xb0aeee83a2358888263a4e5b38a539272f8f87ed"
                            }
                        ],
                        "constructorArguments": "",
                        "name": "balanceOf",
                        "returnParams": [
                            {
                                "decimalAvailable": true,
                                "name": "",
                                "type": "uint256",
                                "value": "10,010,000,000,000,000,000"
                            }
                        ],
                        "signature": "balanceOf(address)"
                    },
                    "errorInfo": "",
                    "fromAddress": "0xae38b81459d74a8c16eaa968c792207603d84480",
                    "gasUsed": 1197,
                    "id": 7,
                    "methodDecoded": true,
                    "operation": "CALL",
                    "output": "0x0000000000000000000000000000000000000000000000008aeaa9f6f9a90000",
                    "revert": false,
                    "revertMessage": "",
                    "selector": "0x70a08231",
                    "status": true,
                    "value": "0"
                },
                "nodeType": 0
            },
            "8": {
                "invocation": {
                    "address": "0x4534e92eefecc63c6105f53893d355c14aa129cf",
                    "callData": "0x7355534400000000000000000000000000000000000000000000000000000000",
                    "decodedMethod": {
                        "callParams": [
                            {
                                "name": "currencyKey",
                                "type": "bytes32",
                                "value": "0x7355534400000000000000000000000000000000000000000000000000000000"
                            }
                        ],
                        "constructorArguments": "",
                        "name": "requireSynthActive",
                        "returnParams": [],
                        "signature": "requireSynthActive(bytes32)"
                    },
                    "errorInfo": "",
                    "fromAddress": "0xae38b81459d74a8c16eaa968c792207603d84480",
                    "gasUsed": 2314,
                    "id": 8,
                    "methodDecoded": true,
                    "operation": "CALL",
                    "output": "",
                    "revert": false,
                    "revertMessage": "",
                    "selector": "0x42a28e21",
                    "status": true,
                    "value": "0"
                },
                "nodeType": 0
            },
            "9": {
                "invocation": {
                    "address": "0x05a9cbe762b36632b3594da4f082340e0e5343e8",
                    "callData": "0x000000000000000000000000b0aeee83a2358888263a4e5b38a539272f8f87ed",
                    "decodedMethod": {
                        "callParams": [
                            {
                                "name": "",
                                "type": "address",
                                "value": "0xb0aeee83a2358888263a4e5b38a539272f8f87ed"
                            }
                        ],
                        "constructorArguments": "",
                        "name": "balanceOf",
                        "returnParams": [
                            {
                                "decimalAvailable": true,
                                "name": "",
                                "type": "uint256",
                                "value": "10,010,000,000,000,000,000"
                            }
                        ],
                        "signature": "balanceOf(address)"
                    },
                    "errorInfo": "",
                    "fromAddress": "0xae38b81459d74a8c16eaa968c792207603d84480",
                    "gasUsed": 1197,
                    "id": 9,
                    "methodDecoded": true,
                    "operation": "CALL",
                    "output": "0x0000000000000000000000000000000000000000000000008aeaa9f6f9a90000",
                    "revert": false,
                    "revertMessage": "",
                    "selector": "0x70a08231",
                    "status": true,
                    "value": "0"
                },
                "nodeType": 0
            }
        },
        "gasFlame": [
            {
                "children": [
                    {
                        "children": [
                            {
                                "children": [],
                                "depth": 0,
                                "name": "Initial Gas",
                                "value": 21632
                            },
                            {
                                "children": [
                                    {
                                        "children": [],
                                        "depth": 1,
                                        "name": "setMessageSender",
                                        "value": 7837
                                    },
                                    {
                                        "children": [
                                            {
                                                "children": [
                                                    {
                                                        "children": [],
                                                        "depth": 3,
                                                        "name": "getMaxTimestamp",
                                                        "value": 1619
                                                    }
                                                ],
                                                "depth": 2,
                                                "name": "maxSecsLeftInWaitingPeriod",
                                                "value": 4893
                                            },
                                            {
                                                "children": [
                                                    {
                                                        "children": [],
                                                        "depth": 3,
                                                        "name": "getLengthOfEntries",
                                                        "value": 1510
                                                    }
                                                ],
                                                "depth": 2,
                                                "name": "settlementOwing",
                                                "value": 5096
                                            },
                                            {
                                                "children": [],
                                                "depth": 2,
                                                "name": "balanceOf",
                                                "value": 1197
                                            },
                                            {
                                                "children": [],
                                                "depth": 2,
                                                "name": "requireSynthActive",
                                                "value": 2314
                                            },
                                            {
                                                "children": [],
                                                "depth": 2,
                                                "name": "balanceOf",
                                                "value": 1197
                                            },
                                            {
                                                "children": [],
                                                "depth": 2,
                                                "name": "setBalanceOf",
                                                "value": 6418
                                            },
                                            {
                                                "children": [],
                                                "depth": 2,
                                                "name": "balanceOf",
                                                "value": 1197
                                            },
                                            {
                                                "children": [],
                                                "depth": 2,
                                                "name": "setBalanceOf",
                                                "value": 6418
                                            },
                                            {
                                                "children": [],
                                                "depth": 2,
                                                "name": "_emit",
                                                "value": 3406
                                            }
                                        ],
                                        "depth": 1,
                                        "name": "transfer",
                                        "value": 62809
                                    }
                                ],
                                "depth": 0,
                                "name": "Executed Gas",
                                "value": 76263
                            }
                        ],
                        "depth": -1,
                        "name": "Actual Gas Used",
                        "value": 82895
                    },
                    {
                        "children": [],
                        "depth": -1,
                        "name": "Refunded Gas",
                        "value": 15000
                    }
                ],
                "depth": -2,
                "name": "Total Gas",
                "value": 97895
            }
        ],
        "isConfirmed": true,
        "mainTrace": [
            {
                "children": [
                    {
                        "children": [
                            {
                                "children": [],
                                "depth": 1,
                                "id": 1,
                                "order": 1
                            },
                            {
                                "children": [
                                    {
                                        "children": [
                                            {
                                                "children": [],
                                                "depth": 3,
                                                "id": 4,
                                                "order": 4
                                            }
                                        ],
                                        "depth": 2,
                                        "id": 3,
                                        "order": 3
                                    },
                                    {
                                        "children": [
                                            {
                                                "children": [],
                                                "depth": 3,
                                                "id": 6,
                                                "order": 6
                                            }
                                        ],
                                        "depth": 2,
                                        "id": 5,
                                        "order": 5
                                    },
                                    {
                                        "children": [],
                                        "depth": 2,
                                        "id": 7,
                                        "order": 7
                                    },
                                    {
                                        "children": [],
                                        "depth": 2,
                                        "id": 8,
                                        "order": 8
                                    },
                                    {
                                        "children": [],
                                        "depth": 2,
                                        "id": 9,
                                        "order": 9
                                    },
                                    {
                                        "children": [],
                                        "depth": 2,
                                        "id": 10,
                                        "order": 10
                                    },
                                    {
                                        "children": [],
                                        "depth": 2,
                                        "id": 11,
                                        "order": 11
                                    },
                                    {
                                        "children": [],
                                        "depth": 2,
                                        "id": 12,
                                        "order": 12
                                    },
                                    {
                                        "children": [
                                            {
                                                "children": [],
                                                "depth": 3,
                                                "id": 14,
                                                "order": 14
                                            }
                                        ],
                                        "depth": 2,
                                        "id": 13,
                                        "order": 13
                                    }
                                ],
                                "depth": 1,
                                "id": 2,
                                "order": 2
                            }
                        ],
                        "depth": 0,
                        "id": 0,
                        "order": 0
                    }
                ],
                "depth": -1,
                "id": -1,
                "order": -1
            }
        ],
        "mainTraceNodeCount": 15,
        "parentIdMap": {
            "0": -1,
            "1": 0,
            "10": 2,
            "11": 2,
            "12": 2,
            "13": 2,
            "14": 13,
            "2": 0,
            "3": 2,
            "4": 3,
            "5": 2,
            "6": 5,
            "7": 2,
            "8": 2,
            "9": 2
        },
        "tidyTrace": [
            {
                "children": [
                    {
                        "children": [
                            {
                                "children": [],
                                "depth": 1,
                                "id": 1,
                                "order": 1
                            },
                            {
                                "children": [
                                    {
                                        "children": [
                                            {
                                                "children": [],
                                                "depth": 3,
                                                "id": 4,
                                                "order": 4
                                            }
                                        ],
                                        "depth": 2,
                                        "id": 3,
                                        "order": 3
                                    },
                                    {
                                        "children": [
                                            {
                                                "children": [],
                                                "depth": 3,
                                                "id": 6,
                                                "order": 6
                                            }
                                        ],
                                        "depth": 2,
                                        "id": 5,
                                        "order": 5
                                    },
                                    {
                                        "children": [],
                                        "depth": 2,
                                        "id": 7,
                                        "order": 7
                                    },
                                    {
                                        "children": [],
                                        "depth": 2,
                                        "id": 8,
                                        "order": 8
                                    },
                                    {
                                        "children": [],
                                        "depth": 2,
                                        "id": 9,
                                        "order": 9
                                    },
                                    {
                                        "children": [],
                                        "depth": 2,
                                        "id": 10,
                                        "order": 10
                                    },
                                    {
                                        "children": [],
                                        "depth": 2,
                                        "id": 11,
                                        "order": 11
                                    },
                                    {
                                        "children": [],
                                        "depth": 2,
                                        "id": 12,
                                        "order": 12
                                    },
                                    {
                                        "children": [
                                            {
                                                "children": [],
                                                "depth": 3,
                                                "id": 14,
                                                "order": 14
                                            }
                                        ],
                                        "depth": 2,
                                        "id": 13,
                                        "order": 13
                                    }
                                ],
                                "depth": 1,
                                "id": 2,
                                "order": 2
                            }
                        ],
                        "depth": 0,
                        "id": 0,
                        "order": 0
                    }
                ],
                "depth": -1,
                "id": -1,
                "order": -1
            }
        ],
        "tidyTraceNodeCount": 15
    },
    "state_change": {
        "stateChanges": [
            {
                "address": "0x05a9cbe762b36632b3594da4f082340e0e5343e8",
                "erc": "",
                "slots": [
                    {
                        "current": "0x0000000000000000000000000000000000000000000000000000000000000000",
                        "key": "0xa08822ec9bcf58cf25d8be0b548ba3ae1e284ff47e453442a580d5edb2b88ac3",
                        "prev": "0x0000000000000000000000000000000000000000000000008aeaa9f6f9a90000"
                    },
                    {
                        "current": "0x0000000000000000000000000000000000000000000000008af7525df4fc10a1",
                        "key": "0x38da3ac68ee2be107ef0abb79400cf16dc3f38c624d8dac65134ea94db376fc9",
                        "prev": "0x000000000000000000000000000000000000000000000000000ca866fb5310a1"
                    }
                ],
                "storageVariables": [
                    {
                        "name": "balanceOf",
                        "type": "mapping(address => uint256)",
                        "value": {
                            "pairs": [
                                {
                                    "key": "0xb0aeee83a2358888263a4e5b38a539272f8f87ed",
                                    "value": {
                                        "current": "0",
                                        "prev": "10010000000000000000",
                                        "typeTag": 1
                                    }
                                },
                                {
                                    "key": "0xd8a613cc98d1923db86041259a4ac656ecc5e3ec",
                                    "value": {
                                        "current": "10013562859977183393",
                                        "prev": "3562859977183393",
                                        "typeTag": 1
                                    }
                                }
                            ],
                            "typeTag": 4
                        }
                    }
                ]
            },
            {
                "address": "0xae38b81459d74a8c16eaa968c792207603d84480",
                "erc": "ERC-20",
                "slots": [
                    {
                        "current": "0x000000000000000000000000b0aeee83a2358888263a4e5b38a539272f8f87ed",
                        "key": "0x0000000000000000000000000000000000000000000000000000000000000006",
                        "prev": "0x000000000000000000000000b944d13b2f4047fc7bd3f7013bcf01b115fb260d"
                    }
                ],
                "storageVariables": [
                    {
                        "name": "messageSender",
                        "type": "address",
                        "value": {
                            "current": "0xb0aeee83a2358888263a4e5b38a539272f8f87ed",
                            "prev": "0xb944d13b2f4047fc7bd3f7013bcf01b115fb260d",
                            "typeTag": 1
                        }
                    }
                ]
            }
        ]
    }
}