{
    "balance_change": {
        "balanceChanges": [
            {
                "account": "0xc0f90fde8c4082595e71e80835bc9df85501d9ac",
                "assets": [
                    {
                        "address": "0x1fe70be734e473e5721ea57c8b5b01e6caa52686",
                        "amount": "4,134",
                        "iconUrl": "https://assets.blocksec.com/icon/1d6f66cb444d0319d8a5829fa51554f7982dc381d33a236ae0a65024027924c6.png",
                        "isERC1155": false,
                        "isERC721": false,
                        "sign": false,
                        "value": ""
                    }
                ]
            },
            {
                "account": "0x4206f1f7e431eeb05cbd275d9d1ecb6c7bb3cdfe",
                "assets": [
                    {
                        "address": "0x1fe70be734e473e5721ea57c8b5b01e6caa52686",
                        "amount": "4,134",
                        "iconUrl": "https://assets.blocksec.com/icon/1d6f66cb444d0319d8a5829fa51554f7982dc381d33a236ae0a65024027924c6.png",
                        "isERC1155": false,
                        "isERC721": false,
                        "sign": true,
                        "value": ""
                    }
                ]
            }
        ]
    },
    "profile": {
        "basic_info": {
            "baseFee": "",
            "blockNumber": 5583186,
            "callData": "0xa9059cbb0000000000000000000000004206f1f7e431eeb05cbd275d9d1ecb6c7bb3cdfe0000000000000000000000000000000000000000000000e01ac6592118d80000",
            "debugEnable": true,
            "errorInfo": "",
            "eventCount": 1,
            "feeRecipient": "0xea674fdde714fd979de3edf0f56aa9716b898ec8",
            "formatValue": "0",
            "gasLimit": 60000,
            "gasPrice": "3.34375",
            "gasUsed": 52507,
            "intTxnCount": 0,
            "internalRevert": false,
            "internalRevertMessage": "",
            "isContractCreation": false,
            "isFlashloan": false,
            "maxFee": "",
            "nonce": 84,
            "overwritedBlockNumber": -1,
            "priorityFee": "",
            "receiver": "0x1fe70be734e473e5721ea57c8b5b01e6caa52686",
            "revertMessage": "",
            "sender": "0xc0f90fde8c4082595e71e80835bc9df85501d9ac",
            "simulationEnable": true,
            "sourceTxnHash": "0x41fd6c1d77540a7c24d4a1deb383b26d9c24614ff3f7b78a7c8131172bbb2fbd",
            "status": true,
            "timestamp": "2018-05-09T11:04:14Z",
            "transactionFee": "0.00017557028125",
            "txnHash": "0x41fd6c1d77540a7c24d4a1deb383b26d9c24614ff3f7b78a7c8131172bbb2fbd",
            "txnIndex": 67,
            "type": 0,
            "value": "0"
        },
        "fund_flow": [
            {
                "amount": "4,134",
                "from": "0xc0f90fde8c4082595e71e80835bc9df85501d9ac",
                "id": 1,
                "isERC1155": false,
                "isERC721": false,
                "isReverted": false,
                "order": 1,
                "to": "0x4206f1f7e431eeb05cbd275d9d1ecb6c7bb3cdfe",
                "token": "0x1fe70be734e473e5721ea57c8b5b01e6caa52686"
            }
        ],
        "token_infos": [
            {
                "address": "0x1fe70be734e473e5721ea57c8b5b01e6caa52686",
                "decimals": 18
            },
            {
                "address": "0xc02aaa39b223fe8d0a0e5c4f27ead9083c756cc2",
                "decimals": 18
            },
            {
                "address": "0xeeeeeeeeeeeeeeeeeeeeeeeeeeeeeeeeeeeeeeee",
                "decimals": 18
            }
        ]
    },
    "address_label": {
        "labels": [
            {
                "address": "0x1fe70be734e473e5721ea57c8b5b01e6caa52686",
                "label": "RNTB Token (RNTB)"
            },
            {
                "address": "0x0000000000000000000000000000000000000001",
                "label": "Precompiled"
            },
            {
                "address": "0x0000000000000000000000000000000000000002",
                "label": "Precompiled"
            },
            {
                "address": "0x0000000000000000000000000000000000000003",
                "label": "Precompiled"
            },
            {
                "address": "0x0000000000000000000000000000000000000004",
                "label": "Precompiled"
            },
            {
                "address": "0xeeeeeeeeeeeeeeeeeeeeeeeeeeeeeeeeeeeeeeee",
                "label": "Ether"
            }
        ]
    },
    "trace": {
        "accountLabels": null,
        "dataMap": {
            "-1": {
                "invocation": {
                    "address": "0xc0f90fde8c4082595e71e80835bc9df85501d9ac",
                    "callData": "",
                    "decodedMethod": null,
                    "errorInfo": "",
                    "fromAddress": "",
                    "gasUsed": 0,
                    "id": -1,
                    "methodDecoded": false,
                    "operation": "",
                    "output": "",
                    "revert": false,
                    "revertMessage": "",
                    "selector": "",
                    "status": false,
                    "value": ""
                },
                "nodeType": 0
            },
            "0": {
                "invocation": {
                    "address": "0x1fe70be734e473e5721ea57c8b5b01e6caa52686",
                    "callData": "0x0000000000000000000000004206f1f7e431eeb05cbd275d9d1ecb6c7bb3cdfe0000000000000000000000000000000000000000000000e01ac6592118d80000",
                    "decodedMethod": {
                        "callParams": [
                            {
                                "name": "_to",
                                "type": "address",
                                "value": "0x4206f1f7e431eeb05cbd275d9d1ecb6c7bb3cdfe"
                            },
                            {
                                "decimalAvailable": true,
                                "name": "_value",
                                "type": "uint256",
                                "value": "4,134,000,000,000,000,000,000"
                            }
                        ],
                        "constructorArguments": "",
                        "name": "transfer",
                        "returnParams": [
                            {
                                "name": "",
                                "type": "bool",
                                "value": true
                            }
                        ],
                        "signature": "transfer(address,uint256)"
                    },
                    "errorInfo": "",
                    "fromAddress": "0xc0f90fde8c4082595e71e80835bc9df85501d9ac",
                    "gasUsed": 52507,
                    "id": 0,
                    "methodDecoded": true,
                    "operation": "CALL",
                    "output": "0x0000000000000000000000000000000000000000000000000000000000000001",
                    "revert": false,
                    "revertMessage": "",
                    "selector": "0xa9059cbb",
                    "status": true,
                    "value": "0"
                },
                "nodeType": 0
            },
            "1": {
                "event": {
                    "contract": "0x1fe70be734e473e5721ea57c8b5b01e6caa52686",
                    "decodedLog": {
                        "name": "Transfer",
                        "params": [
                            {
                                "name": "from",
                                "type": "address",
                                "value": "0xc0f90fde8c4082595e71e80835bc9df85501d9ac"
                            },
                            {
                                "name": "to",
                                "type": "address",
                                "value": "0x4206f1f7e431eeb05cbd275d9d1ecb6c7bb3cdfe"
                            },
                            {
                                "decimalAvailable": true,
                                "name": "value",
                                "type": "uint256",
                                "value": "4,134,000,000,000,000,000,000"
                            }
                        ],
                        "signature": "Transfer(address,address,uint256)"
                    },
                    "id": 1,
                    "logData": "0x0000000000000000000000000000000000000000000000e01ac6592118d80000",
                    "logDecoded": true,
                    "operation": "EVENT",
                    "revert": false,
                    "status": true,
                    "topics": [
                        "0xddf252ad1be2c89b69c2b068fc378daa952ba7f163c4a11628f55a4df523b3ef",
                        "0x000000000000000000000000c0f90fde8c4082595e71e80835bc9df85501d9ac",
                        "0x0000000000000000000000004206f1f7e431eeb05cbd275d9d1ecb6c7bb3cdfe"
                    ]
                },
                "nodeType": 1
            }
        },
        "gasFlame": [
            {
                "children": [
                    {
                        "children": [
                            {
                                "children": [],
                                "depth": 0,
                                "name": "Initial Gas",
                                "value": 23256
                            },
                            {
                                "children": [],
                                "depth": 0,
                                "name": "Executed Gas",
                                "value": 29251
                            }
                        ],
                        "depth": -1,
                        "name": "Actual Gas Used",
                        "value": 52507
                    },
                    {
                        "children": [],
                        "depth": -1,
                        "name": "Refunded Gas",
                        "value": 0
                    }
                ],
                "depth": -2,
                "name": "Total Gas",
                "value": 52507
            }
        ],
        "isConfirmed": true,
        "mainTrace": [
            {
                "children": [
                    {
                        "children": [
                            {
                                "children": [],
                                "depth": 1,
                                "id": 1,
                                "order": 1
                            }
                        ],
                        "depth": 0,
                        "id": 0,
                        "order": 0
                    }
                ],
                "depth": -1,
                "id": -1,
                "order": -1
            }
        ],
        "mainTraceNodeCount": 2,
        "parentIdMap": {
            "0": -1,
            "1": 0
        },
        "tidyTrace": [
            {
                "children": [
                    {
                        "children": [
                            {
                                "children": [],
                                "depth": 1,
                                "id": 1,
                                "order": 1
                            }
                        ],
                        "depth": 0,
                        "id": 0,
                        "order": 0
                    }
                ],
                "depth": -1,
                "id": -1,
                "order": -1
            }
        ],
        "tidyTraceNodeCount": 2
    },
    "state_change": {
        "stateChanges": [
            {
                "address": "0x1fe70be734e473e5721ea57c8b5b01e6caa52686",
                "erc": "ERC-20",
                "slots": [
                    {
                        "current": "0x0000000000000000000000000000000000000000000000e01ac6592118d80000",
                        "key": "0x83cbd4a69b299d38ecb8fe46013dfd1d17bac1a7978d33ffef1c9956f71411a9",
                        "prev": "0x0000000000000000000000000000000000000000000000000000000000000000"
                    },
                    {
                        "current": "0x00000000000000000000000000000000000000000000090a2ce23bfc0a640000",
                        "key": "0xb144f9ed4be548089c6d3c32ae27a1b7995ad2edc7c85350f37faa8ed8cbe6b8",
                        "prev": "0x0000000000000000000000000000000000000000000009ea47a8951d233c0000"
                    }
                ],
                "storageVariables": [
                    {
                        "name": "balances",
                        "type": "mapping(address => uint256)",
                        "value": {
                            "pairs": [
                                {
                                    "key": "0x4206f1f7e431eeb05cbd275d9d1ecb6c7bb3cdfe",
                                    "value": {
                                        "current": "4134000000000000000000",
                                        "prev": "0",
                                        "typeTag": 1
                                    }
                                },
                                {
                                    "key": "0xc0f90fde8c4082595e71e80835bc9df85501d9ac",
                                    "value": {
                                        "current": "42689000000000000000000",
                                        "prev": "46823000000000000000000",
                                        "typeTag": 1
                                    }
                                }
                            ],
                            "typeTag": 4
                        }
                    }
                ]
            }
        ]
    }
}