{
    "balance_change": {
        "balanceChanges": [
            {
                "account": "0xa15c293f035ecf4ed85103cfbb8ab9e124104c90",
                "assets": [
                    {
                        "address": "0xf9e5af7b42d31d51677c75bbbd37c1986ec79aee",
                        "amount": "3,325",
                        "iconUrl": "",
                        "isERC1155": false,
                        "isERC721": false,
                        "sign": false,
                        "value": ""
                    }
                ]
            },
            {
                "account": "0xe4ba2bc664c40cd3d8468f19c80c0a250facd27b",
                "assets": [
                    {
                        "address": "0xf9e5af7b42d31d51677c75bbbd37c1986ec79aee",
                        "amount": "3,325",
                        "iconUrl": "",
                        "isERC1155": false,
                        "isERC721": false,
                        "sign": true,
                        "value": ""
                    }
                ]
            }
        ]
    },
    "profile": {
        "basic_info": {
            "baseFee": "",
            "blockNumber": 10815253,
            "callData": "0xa9059cbb000000000000000000000000e4ba2bc664c40cd3d8468f19c80c0a250facd27b0000000000000000000000000000000000000000000000000000004d6a8b5d00",
            "debugEnable": true,
            "errorInfo": "",
            "eventCount": 1,
            "feeRecipient": "0x04668ec2f57cc15c381b461b9fedab5d451c8f7f",
            "formatValue": "0",
            "gasLimit": 49490,
            "gasPrice": "116",
            "gasUsed": 44490,
            "intTxnCount": 0,
            "internalRevert": false,
            "internalRevertMessage": "",
            "isContractCreation": false,
            "isFlashloan": false,
            "maxFee": "",
            "nonce": 56169,
            "overwritedBlockNumber": -1,
            "priorityFee": "",
            "receiver": "0xf9e5af7b42d31d51677c75bbbd37c1986ec79aee",
            "revertMessage": "",
            "sender": "0xa15c293f035ecf4ed85103cfbb8ab9e124104c90",
            "simulationEnable": true,
            "sourceTxnHash": "0x411ab4aa2a0e7194b7dbfc1b21783cbb8501fd13bc60ada36c2310f50b817688",
            "status": true,
            "timestamp": "2020-09-07T15:03:27Z",
            "transactionFee": "0.00516084",
            "txnHash": "0x411ab4aa2a0e7194b7dbfc1b21783cbb8501fd13bc60ada36c2310f50b817688",
            "txnIndex": 59,
            "type": 0,
            "value": "0"
        },
        "fund_flow": [
            {
                "amount": "3,325",
                "from": "0xa15c293f035ecf4ed85103cfbb8ab9e124104c90",
                "id": 1,
                "isERC1155": false,
                "isERC721": false,
                "isReverted": false,
                "order": 1,
                "to": "0xe4ba2bc664c40cd3d8468f19c80c0a250facd27b",
                "token": "0xf9e5af7b42d31d51677c75bbbd37c1986ec79aee"
            }
        ],
        "token_infos": [
            {
                "address": "0xc02aaa39b223fe8d0a0e5c4f27ead9083c756cc2",
                "decimals": 18
            },
            {
                "address": "0xf9e5af7b42d31d51677c75bbbd37c1986ec79aee",
                "decimals": 8
            },
            {
                "address": "0xeeeeeeeeeeeeeeeeeeeeeeeeeeeeeeeeeeeeeeee",
                "decimals": 18
            }
        ]
    },
    "address_label": {
        "labels": [
            {
                "address": "0xeeeeeeeeeeeeeeeeeeeeeeeeeeeeeeeeeeeeeeee",
                "label": "Ether"
            },
            {
                "address": "0xa15c293f035ecf4ed85103cfbb8ab9e124104c90",
                "label": "QuickX Protocol:: Deployer"
            },
            {
                "address": "0xf9e5af7b42d31d51677c75bbbd37c1986ec79aee",
                "label": "QuickX Protocol Token"
            },
            {
                "address": "0x0000000000000000000000000000000000000001",
                "label": "Precompiled"
            },
            {
                "address": "0x0000000000000000000000000000000000000002",
                "label": "Precompiled"
            },
            {
                "address": "0x0000000000000000000000000000000000000003",
                "label": "Precompiled"
            },
            {
                "address": "0x0000000000000000000000000000000000000004",
                "label": "Precompiled"
            }
        ]
    },
    "trace": {
        "accountLabels": null,
        "dataMap": {
            "-1": {
                "invocation": {
                    "address": "0xa15c293f035ecf4ed85103cfbb8ab9e124104c90",
                    "callData": "",
                    "decodedMethod": null,
                    "errorInfo": "",
                    "fromAddress": "",
                    "gasUsed": 0,
                    "id": -1,
                    "methodDecoded": false,
                    "operation": "",
                    "output": "",
                    "revert": false,
                    "revertMessage": "",
                    "selector": "",
                    "status": false,
                    "value": ""
                },
                "nodeType": 0
            },
            "0": {
                "invocation": {
                    "address": "0xf9e5af7b42d31d51677c75bbbd37c1986ec79aee",
                    "callData": "0x000000000000000000000000e4ba2bc664c40cd3d8468f19c80c0a250facd27b0000000000000000000000000000000000000000000000000000004d6a8b5d00",
                    "decodedMethod": {
                        "callParams": [
                            {
                                "name": "_to",
                                "type": "address",
                                "value": "0xe4ba2bc664c40cd3d8468f19c80c0a250facd27b"
                            },
                            {
                                "decimalAvailable": true,
                                "name": "_value",
                                "type": "uint256",
                                "value": "332,500,000,000"
                            }
                        ],
                        "constructorArguments": "",
                        "name": "transfer",
                        "returnParams": [
                            {
                                "name": "success",
                                "type": "bool",
                                "value": true
                            }
                        ],
                        "signature": "transfer(address,uint256)"
                    },
                    "errorInfo": "",
                    "fromAddress": "0xa15c293f035ecf4ed85103cfbb8ab9e124104c90",
                    "gasUsed": 44490,
                    "id": 0,
                    "methodDecoded": true,
                    "operation": "CALL",
                    "output": "0x0000000000000000000000000000000000000000000000000000000000000001",
                    "revert": false,
                    "revertMessage": "",
                    "selector": "0xa9059cbb",
                    "status": true,
                    "value": "0"
                },
                "nodeType": 0
            },
            "1": {
                "event": {
                    "contract": "0xf9e5af7b42d31d51677c75bbbd37c1986ec79aee",
                    "decodedLog": {
                        "name": "Transfer",
                        "params": [
                            {
                                "name": "from",
                                "type": "address",
                                "value": "0xa15c293f035ecf4ed85103cfbb8ab9e124104c90"
                            },
                            {
                                "name": "to",
                                "type": "address",
                                "value": "0xe4ba2bc664c40cd3d8468f19c80c0a250facd27b"
                            },
                            {
                                "decimalAvailable": true,
                                "name": "tokens",
                                "type": "uint256",
                                "value": "332,500,000,000"
                            }
                        ],
                        "signature": "Transfer(address,address,uint256)"
                    },
                    "id": 1,
                    "logData": "0x0000000000000000000000000000000000000000000000000000004d6a8b5d00",
                    "logDecoded": true,
                    "operation": "EVENT",
                    "revert": false,
                    "status": true,
                    "topics": [
                        "0xddf252ad1be2c89b69c2b068fc378daa952ba7f163c4a11628f55a4df523b3ef",
                        "0x000000000000000000000000a15c293f035ecf4ed85103cfbb8ab9e124104c90",
                        "0x000000000000000000000000e4ba2bc664c40cd3d8468f19c80c0a250facd27b"
                    ]
                },
                "nodeType": 1
            }
        },
        "gasFlame": [
            {
                "children": [
                    {
                        "children": [
                            {
                                "children": [],
                                "depth": 0,
                                "name": "Initial Gas",
                                "value": 21608
                            },
                            {
                                "children": [],
                                "depth": 0,
                                "name": "Executed Gas",
                                "value": 22882
                            }
                        ],
                        "depth": -1,
                        "name": "Actual Gas Used",
                        "value": 44490
                    },
                    {
                        "children": [],
                        "depth": -1,
                        "name": "Refunded Gas",
                        "value": 0
                    }
                ],
                "depth": -2,
                "name": "Total Gas",
                "value": 44490
            }
        ],
        "isConfirmed": true,
        "mainTrace": [
            {
                "children": [
                    {
                        "children": [
                            {
                                "children": [],
                                "depth": 1,
                                "id": 1,
                                "order": 1
                            }
                        ],
                        "depth": 0,
                        "id": 0,
                        "order": 0
                    }
                ],
                "depth": -1,
                "id": -1,
                "order": -1
            }
        ],
        "mainTraceNodeCount": 2,
        "parentIdMap": {
            "0": -1,
            "1": 0
        },
        "tidyTrace": [
            {
                "children": [
                    {
                        "children": [
                            {
                                "children": [],
                                "depth": 1,
                                "id": 1,
                                "order": 1
                            }
                        ],
                        "depth": 0,
                        "id": 0,
                        "order": 0
                    }
                ],
                "depth": -1,
                "id": -1,
                "order": -1
            }
        ],
        "tidyTraceNodeCount": 2
    },
    "state_change": {
        "stateChanges": [
            {
                "address": "0xf9e5af7b42d31d51677c75bbbd37c1986ec79aee",
                "erc": "ERC-20",
                "slots": [
                    {
                        "current": "0x0000000000000000000000000000000000000000000000000002e8a1aa20a3ba",
                        "key": "0x375dd845c157d0952981c05d6e8d0b383cd7b6b68fd67c20bcbae5431b7e88f2",
                        "prev": "0x0000000000000000000000000000000000000000000000000002e8ef14ac00ba"
                    },
                    {
                        "current": "0x000000000000000000000000000000000000000000000000000005eda67a4920",
                        "key": "0xca492c754c49258df2f1e3979024a58534e3065f2350d6e6fb85e3ce2c8ec615",
                        "prev": "0x000000000000000000000000000000000000000000000000000005a03beeec20"
                    }
                ],
                "storageVariables": [
                    {
                        "name": "balances",
                        "type": "mapping(address => uint256)",
                        "value": {
                            "pairs": [
                                {
                                    "key": "0xa15c293f035ecf4ed85103cfbb8ab9e124104c90",
                                    "value": {
                                        "current": "818730995065786",
                                        "prev": "819063495065786",
                                        "typeTag": 1
                                    }
                                },
                                {
                                    "key": "0xe4ba2bc664c40cd3d8468f19c80c0a250facd27b",
                                    "value": {
                                        "current": "6518258420000",
                                        "prev": "6185758420000",
                                        "typeTag": 1
                                    }
                                }
                            ],
                            "typeTag": 4
                        }
                    }
                ]
            }
        ]
    }
}