{
    "balance_change": {
        "balanceChanges": [
            {
                "account": "0x9ee123c4a256d3bc764972eac7fc760a6ae04a7c",
                "assets": [
                    {
                        "address": "0xd3ebdaea9aeac98de723f640bce4aa07e2e44192",
                        "amount": "30",
                        "iconUrl": "",
                        "isERC1155": false,
                        "isERC721": false,
                        "sign": false,
                        "value": ""
                    }
                ]
            },
            {
                "account": "0xca196b93f8a14815e0f158587ad794d7b94c5e46",
                "assets": [
                    {
                        "address": "0xd3ebdaea9aeac98de723f640bce4aa07e2e44192",
                        "amount": "30",
                        "iconUrl": "",
                        "isERC1155": false,
                        "isERC721": false,
                        "sign": true,
                        "value": ""
                    }
                ]
            }
        ]
    },
    "profile": {
        "basic_info": {
            "baseFee": "",
            "blockNumber": 8122978,
            "callData": "0xa9059cbb000000000000000000000000ca196b93f8a14815e0f158587ad794d7b94c5e46000000000000000000000000000000000000000000000001a055690d9db80000",
            "debugEnable": true,
            "errorInfo": "",
            "eventCount": 1,
            "feeRecipient": "0x5a0b54d5dc17e0aadc383d2db43b0a0d3e029c4c",
            "formatValue": "0",
            "gasLimit": 100000,
            "gasPrice": "3",
            "gasUsed": 21852,
            "intTxnCount": 0,
            "internalRevert": false,
            "internalRevertMessage": "",
            "isContractCreation": false,
            "isFlashloan": false,
            "maxFee": "",
            "nonce": 9,
            "overwritedBlockNumber": -1,
            "priorityFee": "",
            "receiver": "0xd3ebdaea9aeac98de723f640bce4aa07e2e44192",
            "revertMessage": "",
            "sender": "0x9ee123c4a256d3bc764972eac7fc760a6ae04a7c",
            "simulationEnable": true,
            "sourceTxnHash": "0x4141d60ec6f9b67177a990747943e236d745101a96580f43edda4d98c2ea041d",
            "status": true,
            "timestamp": "2019-07-10T10:36:00Z",
            "transactionFee": "0.000065556",
            "txnHash": "0x4141d60ec6f9b67177a990747943e236d745101a96580f43edda4d98c2ea041d",
            "txnIndex": 186,
            "type": 0,
            "value": "0"
        },
        "fund_flow": [
            {
                "amount": "30",
                "from": "0x9ee123c4a256d3bc764972eac7fc760a6ae04a7c",
                "id": 1,
                "isERC1155": false,
                "isERC721": false,
                "isReverted": false,
                "order": 1,
                "to": "0xca196b93f8a14815e0f158587ad794d7b94c5e46",
                "token": "0xd3ebdaea9aeac98de723f640bce4aa07e2e44192"
            }
        ],
        "token_infos": [
            {
                "address": "0xeeeeeeeeeeeeeeeeeeeeeeeeeeeeeeeeeeeeeeee",
                "decimals": 18
            },
            {
                "address": "0xc02aaa39b223fe8d0a0e5c4f27ead9083c756cc2",
                "decimals": 18
            },
            {
                "address": "0xd3ebdaea9aeac98de723f640bce4aa07e2e44192",
                "decimals": 18
            }
        ]
    },
    "address_label": {
        "labels": [
            {
                "address": "0xd3ebdaea9aeac98de723f640bce4aa07e2e44192",
                "label": "SCF Token (SCF)"
            },
            {
                "address": "0x0000000000000000000000000000000000000001",
                "label": "Precompiled"
            },
            {
                "address": "0x0000000000000000000000000000000000000002",
                "label": "Precompiled"
            },
            {
                "address": "0x0000000000000000000000000000000000000003",
                "label": "Precompiled"
            },
            {
                "address": "0x0000000000000000000000000000000000000004",
                "label": "Precompiled"
            },
            {
                "address": "0xeeeeeeeeeeeeeeeeeeeeeeeeeeeeeeeeeeeeeeee",
                "label": "Ether"
            }
        ]
    },
    "trace": {
        "accountLabels": null,
        "dataMap": {
            "-1": {
                "invocation": {
                    "address": "0x9ee123c4a256d3bc764972eac7fc760a6ae04a7c",
                    "callData": "",
                    "decodedMethod": null,
                    "errorInfo": "",
                    "fromAddress": "",
                    "gasUsed": 0,
                    "id": -1,
                    "methodDecoded": false,
                    "operation": "",
                    "output": "",
                    "revert": false,
                    "revertMessage": "",
                    "selector": "",
                    "status": false,
                    "value": ""
                },
                "nodeType": 0
            },
            "0": {
                "invocation": {
                    "address": "0xd3ebdaea9aeac98de723f640bce4aa07e2e44192",
                    "callData": "0x000000000000000000000000ca196b93f8a14815e0f158587ad794d7b94c5e46000000000000000000000000000000000000000000000001a055690d9db80000",
                    "decodedMethod": {
                        "callParams": [
                            {
                                "name": "_to",
                                "type": "address",
                                "value": "0xca196b93f8a14815e0f158587ad794d7b94c5e46"
                            },
                            {
                                "decimalAvailable": true,
                                "name": "_value",
                                "type": "uint256",
                                "value": "30,000,000,000,000,000,000"
                            }
                        ],
                        "constructorArguments": "",
                        "name": "transfer",
                        "returnParams": [
                            {
                                "name": "",
                                "type": "bool",
                                "value": true
                            }
                        ],
                        "signature": "transfer(address,uint256)"
                    },
                    "errorInfo": "",
                    "fromAddress": "0x9ee123c4a256d3bc764972eac7fc760a6ae04a7c",
                    "gasUsed": 21852,
                    "id": 0,
                    "methodDecoded": true,
                    "operation": "CALL",
                    "output": "0x0000000000000000000000000000000000000000000000000000000000000001",
                    "revert": false,
                    "revertMessage": "",
                    "selector": "0xa9059cbb",
                    "status": true,
                    "value": "0"
                },
                "nodeType": 0
            },
            "1": {
                "event": {
                    "contract": "0xd3ebdaea9aeac98de723f640bce4aa07e2e44192",
                    "decodedLog": {
                        "name": "Transfer",
                        "params": [
                            {
                                "name": "_from",
                                "type": "address",
                                "value": "0x9ee123c4a256d3bc764972eac7fc760a6ae04a7c"
                            },
                            {
                                "name": "_to",
                                "type": "address",
                                "value": "0xca196b93f8a14815e0f158587ad794d7b94c5e46"
                            },
                            {
                                "decimalAvailable": true,
                                "name": "_value",
                                "type": "uint256",
                                "value": "30,000,000,000,000,000,000"
                            }
                        ],
                        "signature": "Transfer(address,address,uint256)"
                    },
                    "id": 1,
                    "logData": "0x000000000000000000000000000000000000000000000001a055690d9db80000",
                    "logDecoded": true,
                    "operation": "EVENT",
                    "revert": false,
                    "status": true,
                    "topics": [
                        "0xddf252ad1be2c89b69c2b068fc378daa952ba7f163c4a11628f55a4df523b3ef",
                        "0x0000000000000000000000009ee123c4a256d3bc764972eac7fc760a6ae04a7c",
                        "0x000000000000000000000000ca196b93f8a14815e0f158587ad794d7b94c5e46"
                    ]
                },
                "nodeType": 1
            }
        },
        "gasFlame": [
            {
                "children": [
                    {
                        "children": [
                            {
                                "children": [],
                                "depth": 0,
                                "name": "Initial Gas",
                                "value": 23256
                            },
                            {
                                "children": [],
                                "depth": 0,
                                "name": "Executed Gas",
                                "value": 13596
                            }
                        ],
                        "depth": -1,
                        "name": "Actual Gas Used",
                        "value": 21852
                    },
                    {
                        "children": [],
                        "depth": -1,
                        "name": "Refunded Gas",
                        "value": 15000
                    }
                ],
                "depth": -2,
                "name": "Total Gas",
                "value": 36852
            }
        ],
        "isConfirmed": true,
        "mainTrace": [
            {
                "children": [
                    {
                        "children": [
                            {
                                "children": [],
                                "depth": 1,
                                "id": 1,
                                "order": 1
                            }
                        ],
                        "depth": 0,
                        "id": 0,
                        "order": 0
                    }
                ],
                "depth": -1,
                "id": -1,
                "order": -1
            }
        ],
        "mainTraceNodeCount": 2,
        "parentIdMap": {
            "0": -1,
            "1": 0
        },
        "tidyTrace": [
            {
                "children": [
                    {
                        "children": [
                            {
                                "children": [],
                                "depth": 1,
                                "id": 1,
                                "order": 1
                            }
                        ],
                        "depth": 0,
                        "id": 0,
                        "order": 0
                    }
                ],
                "depth": -1,
                "id": -1,
                "order": -1
            }
        ],
        "tidyTraceNodeCount": 2
    },
    "state_change": {
        "stateChanges": [
            {
                "address": "0xd3ebdaea9aeac98de723f640bce4aa07e2e44192",
                "erc": "ERC-20",
                "slots": [
                    {
                        "current": "0x0000000000000000000000000000000000000000000000000000000000000000",
                        "key": "0x4fe65d3997071052bb4169aa5c78ccafbba4509522edc7f2d9677aed8ed01d02",
                        "prev": "0x000000000000000000000000000000000000000000000001a055690d9db80000"
                    },
                    {
                        "current": "0x0000000000000000000000000000000000000000000000219c3a7b1966300000",
                        "key": "0xb0b608f564fffcb75707f0e2ccace9f2450d5a35240ebf29c4fef51720bff604",
                        "prev": "0x00000000000000000000000000000000000000000000001ffbe5120bc8780000"
                    }
                ],
                "storageVariables": [
                    {
                        "name": "balances",
                        "type": "mapping(address => uint256)",
                        "value": {
                            "pairs": [
                                {
                                    "key": "0x9ee123c4a256d3bc764972eac7fc760a6ae04a7c",
                                    "value": {
                                        "current": "0",
                                        "prev": "30000000000000000000",
                                        "typeTag": 1
                                    }
                                },
                                {
                                    "key": "0xca196b93f8a14815e0f158587ad794d7b94c5e46",
                                    "value": {
                                        "current": "620000000000000000000",
                                        "prev": "590000000000000000000",
                                        "typeTag": 1
                                    }
                                }
                            ],
                            "typeTag": 4
                        }
                    }
                ]
            }
        ]
    }
}