{
    "balance_change": {
        "balanceChanges": []
    },
    "profile": {
        "basic_info": {
            "baseFee": "86.922958253",
            "blockNumber": 17168447,
            "callData": "0x095ea7b30000000000000000000000008967ba97f39334c9e6f8e34b8a3d7556306af5680000000000000000000000000000000000000000000000000000048c27395000",
            "debugEnable": true,
            "errorInfo": "",
            "eventCount": 1,
            "feeRecipient": "0x5b91ea63b0714532a94982888dc9e9dbd40150bd",
            "formatValue": "0",
            "gasLimit": 46302,
            "gasPrice": "87.022958253",
            "gasUsed": 46302,
            "intTxnCount": 0,
            "internalRevert": false,
            "internalRevertMessage": "",
            "isContractCreation": false,
            "isFlashloan": false,
            "maxFee": "95.314155399",
            "nonce": 1,
            "overwritedBlockNumber": -1,
            "priorityFee": "0.1",
            "receiver": "0x85ba3613920d33b9d27f460f5ebac0c9c119b692",
            "revertMessage": "",
            "sender": "0xa4ca4dc467859b2eaa92440cb4acc31d29c2c78d",
            "simulationEnable": true,
            "sourceTxnHash": "0x41bb95141a1d1931de65a843e6da8d32044013b5a0c745c90fa655db31b74c0a",
            "status": true,
            "timestamp": "2023-05-01T20:48:23Z",
            "transactionFee": "0.004029337013030406",
            "txnHash": "0x41bb95141a1d1931de65a843e6da8d32044013b5a0c745c90fa655db31b74c0a",
            "txnIndex": 83,
            "type": 2,
            "value": "0"
        },
        "fund_flow": [],
        "token_infos": [
            {
                "address": "0xc02aaa39b223fe8d0a0e5c4f27ead9083c756cc2",
                "decimals": 18
            },
            {
                "address": "0xeeeeeeeeeeeeeeeeeeeeeeeeeeeeeeeeeeeeeeee",
                "decimals": 18
            }
        ]
    },
    "address_label": {
        "labels": [
            {
                "address": "0x85ba3613920d33b9d27f460f5ebac0c9c119b692",
                "label": "LandWolf (PEPEBF)"
            },
            {
                "address": "0x0000000000000000000000000000000000000001",
                "label": "Precompiled"
            },
            {
                "address": "0x0000000000000000000000000000000000000002",
                "label": "Precompiled"
            },
            {
                "address": "0x0000000000000000000000000000000000000003",
                "label": "Precompiled"
            },
            {
                "address": "0x0000000000000000000000000000000000000004",
                "label": "Precompiled"
            },
            {
                "address": "0xeeeeeeeeeeeeeeeeeeeeeeeeeeeeeeeeeeeeeeee",
                "label": "Ether"
            }
        ]
    },
    "trace": {
        "accountLabels": null,
        "dataMap": {
            "-1": {
                "invocation": {
                    "address": "0xa4ca4dc467859b2eaa92440cb4acc31d29c2c78d",
                    "callData": "",
                    "decodedMethod": null,
                    "errorInfo": "",
                    "fromAddress": "",
                    "gasUsed": 0,
                    "id": -1,
                    "methodDecoded": false,
                    "operation": "",
                    "output": "",
                    "revert": false,
                    "revertMessage": "",
                    "selector": "",
                    "status": false,
                    "value": ""
                },
                "nodeType": 0
            },
            "0": {
                "invocation": {
                    "address": "0x85ba3613920d33b9d27f460f5ebac0c9c119b692",
                    "callData": "0x0000000000000000000000008967ba97f39334c9e6f8e34b8a3d7556306af5680000000000000000000000000000000000000000000000000000048c27395000",
                    "decodedMethod": {
                        "callParams": [
                            {
                                "name": "spender",
                                "type": "address",
                                "value": "0x8967ba97f39334c9e6f8e34b8a3d7556306af568"
                            },
                            {
                                "decimalAvailable": true,
                                "name": "amount",
                                "type": "uint256",
                                "value": "5,000,000,000,000"
                            }
                        ],
                        "constructorArguments": "",
                        "name": "approve",
                        "returnParams": [
                            {
                                "name": "",
                                "type": "bool",
                                "value": true
                            }
                        ],
                        "signature": "approve(address,uint256)"
                    },
                    "errorInfo": "",
                    "fromAddress": "0xa4ca4dc467859b2eaa92440cb4acc31d29c2c78d",
                    "gasUsed": 46302,
                    "id": 0,
                    "methodDecoded": true,
                    "operation": "CALL",
                    "output": "0x0000000000000000000000000000000000000000000000000000000000000001",
                    "revert": false,
                    "revertMessage": "",
                    "selector": "0x095ea7b3",
                    "status": true,
                    "value": "0"
                },
                "nodeType": 0
            },
            "1": {
                "event": {
                    "contract": "0x85ba3613920d33b9d27f460f5ebac0c9c119b692",
                    "decodedLog": {
                        "name": "Approval",
                        "params": [
                            {
                                "name": "owner",
                                "type": "address",
                                "value": "0xa4ca4dc467859b2eaa92440cb4acc31d29c2c78d"
                            },
                            {
                                "name": "spender",
                                "type": "address",
                                "value": "0x8967ba97f39334c9e6f8e34b8a3d7556306af568"
                            },
                            {
                                "decimalAvailable": true,
                                "name": "value",
                                "type": "uint256",
                                "value": "5,000,000,000,000"
                            }
                        ],
                        "signature": "Approval(address,address,uint256)"
                    },
                    "id": 1,
                    "logData": "0x0000000000000000000000000000000000000000000000000000048c27395000",
                    "logDecoded": true,
                    "operation": "EVENT",
                    "revert": false,
                    "status": true,
                    "topics": [
                        "0x8c5be1e5ebec7d5bd14f71427d1e84f3dd0314c0f7b2291e5b200ac8c7c3b925",
                        "0x000000000000000000000000a4ca4dc467859b2eaa92440cb4acc31d29c2c78d",
                        "0x0000000000000000000000008967ba97f39334c9e6f8e34b8a3d7556306af568"
                    ]
                },
                "nodeType": 1
            }
        },
        "gasFlame": [
            {
                "children": [
                    {
                        "children": [
                            {
                                "children": [],
                                "depth": 0,
                                "name": "Initial Gas",
                                "value": 21620
                            },
                            {
                                "children": [],
                                "depth": 0,
                                "name": "Executed Gas",
                                "value": 24682
                            }
                        ],
                        "depth": -1,
                        "name": "Actual Gas Used",
                        "value": 46302
                    },
                    {
                        "children": [],
                        "depth": -1,
                        "name": "Refunded Gas",
                        "value": 0
                    }
                ],
                "depth": -2,
                "name": "Total Gas",
                "value": 46302
            }
        ],
        "isConfirmed": true,
        "mainTrace": [
            {
                "children": [
                    {
                        "children": [
                            {
                                "children": [],
                                "depth": 1,
                                "id": 1,
                                "order": 1
                            }
                        ],
                        "depth": 0,
                        "id": 0,
                        "order": 0
                    }
                ],
                "depth": -1,
                "id": -1,
                "order": -1
            }
        ],
        "mainTraceNodeCount": 2,
        "parentIdMap": {
            "0": -1,
            "1": 0
        },
        "tidyTrace": [
            {
                "children": [
                    {
                        "children": [
                            {
                                "children": [],
                                "depth": 1,
                                "id": 1,
                                "order": 1
                            }
                        ],
                        "depth": 0,
                        "id": 0,
                        "order": 0
                    }
                ],
                "depth": -1,
                "id": -1,
                "order": -1
            }
        ],
        "tidyTraceNodeCount": 2
    },
    "state_change": {
        "stateChanges": [
            {
                "address": "0x85ba3613920d33b9d27f460f5ebac0c9c119b692",
                "erc": "ERC-20",
                "slots": [
                    {
                        "current": "0x0000000000000000000000000000000000000000000000000000048c27395000",
                        "key": "0xf4cd917a4687fa6e43ee6d0c7e75e9b784c8bceac727085ea8c399ee219f299c",
                        "prev": "0x0000000000000000000000000000000000000000000000000000000000000000"
                    }
                ],
                "storageVariables": [
                    {
                        "name": "_allowances",
                        "type": "mapping(address => mapping(address => uint256))",
                        "value": {
                            "pairs": [
                                {
                                    "key": "0xa4ca4dc467859b2eaa92440cb4acc31d29c2c78d",
                                    "value": {
                                        "pairs": [
                                            {
                                                "key": "0x8967ba97f39334c9e6f8e34b8a3d7556306af568",
                                                "value": {
                                                    "current": "5000000000000",
                                                    "prev": "0",
                                                    "typeTag": 1
                                                }
                                            }
                                        ],
                                        "typeTag": 4
                                    }
                                }
                            ],
                            "typeTag": 4
                        }
                    }
                ]
            }
        ]
    }
}