{
    "balance_change": {
        "balanceChanges": [
            {
                "account": "0x34fdd69ff9b0fd5567cca1896928c12ad8df5e59",
                "assets": [
                    {
                        "address": "0xdac17f958d2ee523a2206206994597c13d831ec7",
                        "amount": "18,758.003",
                        "iconUrl": "https://assets.blocksec.com/icon/fcea71f3193ce895be44bfdf941f7e4c9381dd587f273c2d1a27f1263d84e4ea.png",
                        "isERC1155": false,
                        "isERC721": false,
                        "sign": false,
                        "value": "18758.003"
                    }
                ]
            },
            {
                "account": "0xd7b2c3f2d900692306911200d53a3fefe14cb073",
                "assets": [
                    {
                        "address": "0xdac17f958d2ee523a2206206994597c13d831ec7",
                        "amount": "18,758.003",
                        "iconUrl": "https://assets.blocksec.com/icon/fcea71f3193ce895be44bfdf941f7e4c9381dd587f273c2d1a27f1263d84e4ea.png",
                        "isERC1155": false,
                        "isERC721": false,
                        "sign": true,
                        "value": "18758.003"
                    }
                ]
            }
        ]
    },
    "profile": {
        "basic_info": {
            "baseFee": "45.676603129",
            "blockNumber": 18842065,
            "callData": "0xa9059cbb000000000000000000000000d7b2c3f2d900692306911200d53a3fefe14cb073000000000000000000000000000000000000000000000000000000045e106938",
            "debugEnable": true,
            "errorInfo": "",
            "eventCount": 1,
            "feeRecipient": "0x95222290dd7278aa3ddd389cc1e1d165cc4bafe5",
            "formatValue": "0",
            "gasLimit": 46097,
            "gasPrice": "46.082803463",
            "gasUsed": 46097,
            "intTxnCount": 0,
            "internalRevert": false,
            "internalRevertMessage": "",
            "isContractCreation": false,
            "isFlashloan": false,
            "maxFee": "62.965716372",
            "nonce": 34,
            "overwritedBlockNumber": -1,
            "priorityFee": "0.406200334",
            "receiver": "0xdac17f958d2ee523a2206206994597c13d831ec7",
            "revertMessage": "",
            "sender": "0x34fdd69ff9b0fd5567cca1896928c12ad8df5e59",
            "simulationEnable": true,
            "sourceTxnHash": "0x411dfcd07dc9e8c79e97baed23fa2b5616fdf85841533abb9c5f1aeb39706bc3",
            "status": true,
            "timestamp": "2023-12-22T14:45:23Z",
            "transactionFee": "0.002124278991233911",
            "txnHash": "0x411dfcd07dc9e8c79e97baed23fa2b5616fdf85841533abb9c5f1aeb39706bc3",
            "txnIndex": 73,
            "type": 2,
            "value": "0"
        },
        "fund_flow": [
            {
                "amount": "18,758.003",
                "from": "0x34fdd69ff9b0fd5567cca1896928c12ad8df5e59",
                "id": 1,
                "isERC1155": false,
                "isERC721": false,
                "isReverted": false,
                "order": 1,
                "to": "0xd7b2c3f2d900692306911200d53a3fefe14cb073",
                "token": "0xdac17f958d2ee523a2206206994597c13d831ec7"
            }
        ],
        "token_infos": [
            {
                "address": "0xdac17f958d2ee523a2206206994597c13d831ec7",
                "decimals": 6
            },
            {
                "address": "0xeeeeeeeeeeeeeeeeeeeeeeeeeeeeeeeeeeeeeeee",
                "decimals": 18
            },
            {
                "address": "0xc02aaa39b223fe8d0a0e5c4f27ead9083c756cc2",
                "decimals": 18
            }
        ]
    },
    "address_label": {
        "labels": [
            {
                "address": "0x0000000000000000000000000000000000000004",
                "label": "Precompiled"
            },
            {
                "address": "0xeeeeeeeeeeeeeeeeeeeeeeeeeeeeeeeeeeeeeeee",
                "label": "Ether"
            },
            {
                "address": "0xdac17f958d2ee523a2206206994597c13d831ec7",
                "label": "Tether: USDT Stablecoin"
            },
            {
                "address": "0x0000000000000000000000000000000000000001",
                "label": "Precompiled"
            },
            {
                "address": "0x0000000000000000000000000000000000000002",
                "label": "Precompiled"
            },
            {
                "address": "0x0000000000000000000000000000000000000003",
                "label": "Precompiled"
            }
        ]
    },
    "trace": {
        "accountLabels": null,
        "dataMap": {
            "-1": {
                "invocation": {
                    "address": "0x34fdd69ff9b0fd5567cca1896928c12ad8df5e59",
                    "callData": "",
                    "decodedMethod": null,
                    "errorInfo": "",
                    "fromAddress": "",
                    "gasUsed": 0,
                    "id": -1,
                    "methodDecoded": false,
                    "operation": "",
                    "output": "",
                    "revert": false,
                    "revertMessage": "",
                    "selector": "",
                    "status": false,
                    "value": ""
                },
                "nodeType": 0
            },
            "0": {
                "invocation": {
                    "address": "0xdac17f958d2ee523a2206206994597c13d831ec7",
                    "callData": "0x000000000000000000000000d7b2c3f2d900692306911200d53a3fefe14cb073000000000000000000000000000000000000000000000000000000045e106938",
                    "decodedMethod": {
                        "callParams": [
                            {
                                "name": "_to",
                                "type": "address",
                                "value": "0xd7b2c3f2d900692306911200d53a3fefe14cb073"
                            },
                            {
                                "decimalAvailable": true,
                                "name": "_value",
                                "type": "uint256",
                                "value": "18,758,003,000"
                            }
                        ],
                        "constructorArguments": "",
                        "name": "transfer",
                        "returnParams": [],
                        "signature": "transfer(address,uint256)"
                    },
                    "errorInfo": "",
                    "fromAddress": "0x34fdd69ff9b0fd5567cca1896928c12ad8df5e59",
                    "gasUsed": 46097,
                    "id": 0,
                    "methodDecoded": true,
                    "operation": "CALL",
                    "output": "",
                    "revert": false,
                    "revertMessage": "",
                    "selector": "0xa9059cbb",
                    "status": true,
                    "value": "0"
                },
                "nodeType": 0
            },
            "1": {
                "event": {
                    "contract": "0xdac17f958d2ee523a2206206994597c13d831ec7",
                    "decodedLog": {
                        "name": "Transfer",
                        "params": [
                            {
                                "name": "from",
                                "type": "address",
                                "value": "0x34fdd69ff9b0fd5567cca1896928c12ad8df5e59"
                            },
                            {
                                "name": "to",
                                "type": "address",
                                "value": "0xd7b2c3f2d900692306911200d53a3fefe14cb073"
                            },
                            {
                                "decimalAvailable": true,
                                "name": "value",
                                "type": "uint256",
                                "value": "18,758,003,000"
                            }
                        ],
                        "signature": "Transfer(address,address,uint256)"
                    },
                    "id": 1,
                    "logData": "0x000000000000000000000000000000000000000000000000000000045e106938",
                    "logDecoded": true,
                    "operation": "EVENT",
                    "revert": false,
                    "status": true,
                    "topics": [
                        "0xddf252ad1be2c89b69c2b068fc378daa952ba7f163c4a11628f55a4df523b3ef",
                        "0x00000000000000000000000034fdd69ff9b0fd5567cca1896928c12ad8df5e59",
                        "0x000000000000000000000000d7b2c3f2d900692306911200d53a3fefe14cb073"
                    ]
                },
                "nodeType": 1
            }
        },
        "gasFlame": [
            {
                "children": [
                    {
                        "children": [
                            {
                                "children": [],
                                "depth": 0,
                                "name": "Initial Gas",
                                "value": 21596
                            },
                            {
                                "children": [],
                                "depth": 0,
                                "name": "Executed Gas",
                                "value": 24501
                            }
                        ],
                        "depth": -1,
                        "name": "Actual Gas Used",
                        "value": 46097
                    },
                    {
                        "children": [],
                        "depth": -1,
                        "name": "Refunded Gas",
                        "value": 0
                    }
                ],
                "depth": -2,
                "name": "Total Gas",
                "value": 46097
            }
        ],
        "isConfirmed": true,
        "mainTrace": [
            {
                "children": [
                    {
                        "children": [
                            {
                                "children": [],
                                "depth": 1,
                                "id": 1,
                                "order": 1
                            }
                        ],
                        "depth": 0,
                        "id": 0,
                        "order": 0
                    }
                ],
                "depth": -1,
                "id": -1,
                "order": -1
            }
        ],
        "mainTraceNodeCount": 2,
        "parentIdMap": {
            "0": -1,
            "1": 0
        },
        "tidyTrace": [
            {
                "children": [
                    {
                        "children": [
                            {
                                "children": [],
                                "depth": 1,
                                "id": 1,
                                "order": 1
                            }
                        ],
                        "depth": 0,
                        "id": 0,
                        "order": 0
                    }
                ],
                "depth": -1,
                "id": -1,
                "order": -1
            }
        ],
        "tidyTraceNodeCount": 2
    },
    "state_change": {
        "stateChanges": [
            {
                "address": "0xdac17f958d2ee523a2206206994597c13d831ec7",
                "erc": "ERC-20",
                "slots": [
                    {
                        "current": "0x00000000000000000000000000000000000000000000000000000003eab69480",
                        "key": "0x247e9f667cffd1f65b2007ca64d5b3921079d13975cf0fb6f16b5230dd3f999c",
                        "prev": "0x0000000000000000000000000000000000000000000000000000000848c6fdb8"
                    },
                    {
                        "current": "0x000000000000000000000000000000000000000000000000000000f6a6d108a1",
                        "key": "0x3b74bc6c8e81c8e07d1e11108dadcba9df44ec75ecaa51da58e916d0eb2f0630",
                        "prev": "0x000000000000000000000000000000000000000000000000000000f248c09f69"
                    }
                ],
                "storageVariables": [
                    {
                        "name": "balances",
                        "type": "mapping(address => uint256)",
                        "value": {
                            "pairs": [
                                {
                                    "key": "0x34fdd69ff9b0fd5567cca1896928c12ad8df5e59",
                                    "value": {
                                        "current": "16822736000",
                                        "prev": "35580739000",
                                        "typeTag": 1
                                    }
                                },
                                {
                                    "key": "0xd7b2c3f2d900692306911200d53a3fefe14cb073",
                                    "value": {
                                        "current": "1059360671905",
                                        "prev": "1040602668905",
                                        "typeTag": 1
                                    }
                                }
                            ],
                            "typeTag": 4
                        }
                    }
                ]
            }
        ]
    }
}