{
    "balance_change": {
        "balanceChanges": []
    },
    "profile": {
        "basic_info": {
            "baseFee": "",
            "blockNumber": 11695127,
            "callData": "0x5b0d59840000000000000000000000006e10aacb89a28d6fa0fe68790777fec7e7f0189000000000000000000000000000000000000000000000000000d7b65c4a263ba5000000000000000000000000000000000000000000000144f09eba1e376c6cb8000000000000000000000000000000000000000000000000041ad84f3894cf7a000000000000000000000000c102c4903f3ac197fab80e641405b5cae4df1a4f000000000000000000000000000000000000000000000000000000006008afe20000000000000000000000000000000000000000000000000000000000000000000000000000000000000000000000000000000000000000000000000000001b1f7049529c80ea997556354acbaf1c2f9ea95c71d136de30354a3d913ecdf0a840b4e7847815c85cbf02760b7e67ee7ab54a6e21d870db3601f63872b89007b5",
            "debugEnable": true,
            "errorInfo": "execution reverted",
            "eventCount": 0,
            "feeRecipient": "0xea674fdde714fd979de3edf0f56aa9716b898ec8",
            "formatValue": "0",
            "gasLimit": 331564,
            "gasPrice": "44",
            "gasUsed": 27253,
            "intTxnCount": 1,
            "internalRevert": true,
            "internalRevertMessage": "",
            "isContractCreation": false,
            "isFlashloan": false,
            "maxFee": "",
            "nonce": 60,
            "overwritedBlockNumber": -1,
            "priorityFee": "",
            "receiver": "0x7a250d5630b4cf539739df2c5dacb4c659f2488d",
            "revertMessage": "UniswapV2: EXPIRED",
            "sender": "0xc102c4903f3ac197fab80e641405b5cae4df1a4f",
            "simulationEnable": true,
            "sourceTxnHash": "0x424aeafcaab02ef097c28e33596565394be3b88c1f94d6be3740465db332c5e1",
            "status": false,
            "timestamp": "2021-01-20T22:39:17Z",
            "transactionFee": "0.001199132",
            "txnHash": "0x424aeafcaab02ef097c28e33596565394be3b88c1f94d6be3740465db332c5e1",
            "txnIndex": 23,
            "type": 0,
            "value": "0"
        },
        "fund_flow": [],
        "token_infos": [
            {
                "address": "0xc02aaa39b223fe8d0a0e5c4f27ead9083c756cc2",
                "decimals": 18
            },
            {
                "address": "0xeeeeeeeeeeeeeeeeeeeeeeeeeeeeeeeeeeeeeeee",
                "decimals": 18
            }
        ]
    },
    "address_label": {
        "labels": [
            {
                "address": "0xeeeeeeeeeeeeeeeeeeeeeeeeeeeeeeeeeeeeeeee",
                "label": "Ether"
            },
            {
                "address": "0x7a250d5630b4cf539739df2c5dacb4c659f2488d",
                "label": "Uniswap V2: Router 2"
            },
            {
                "address": "0x6e10aacb89a28d6fa0fe68790777fec7e7f01890",
                "label": "Sav3: SAV3 Token"
            },
            {
                "address": "0xc2b7888a8d7b62e2a518bbc79fbbd6b75da524b6",
                "label": "Uniswap V2: SAV3 5"
            },
            {
                "address": "0x0000000000000000000000000000000000000001",
                "label": "Precompiled"
            },
            {
                "address": "0x0000000000000000000000000000000000000002",
                "label": "Precompiled"
            },
            {
                "address": "0x0000000000000000000000000000000000000003",
                "label": "Precompiled"
            },
            {
                "address": "0x0000000000000000000000000000000000000004",
                "label": "Precompiled"
            }
        ]
    },
    "trace": {
        "accountLabels": null,
        "dataMap": {
            "-1": {
                "invocation": {
                    "address": "0xc102c4903f3ac197fab80e641405b5cae4df1a4f",
                    "callData": "",
                    "decodedMethod": null,
                    "errorInfo": "",
                    "fromAddress": "",
                    "gasUsed": 0,
                    "id": -1,
                    "methodDecoded": false,
                    "operation": "",
                    "output": "",
                    "revert": false,
                    "revertMessage": "",
                    "selector": "",
                    "status": false,
                    "value": ""
                },
                "nodeType": 0
            },
            "0": {
                "invocation": {
                    "address": "0x7a250d5630b4cf539739df2c5dacb4c659f2488d",
                    "callData": "0x0000000000000000000000006e10aacb89a28d6fa0fe68790777fec7e7f0189000000000000000000000000000000000000000000000000000d7b65c4a263ba5000000000000000000000000000000000000000000000144f09eba1e376c6cb8000000000000000000000000000000000000000000000000041ad84f3894cf7a000000000000000000000000c102c4903f3ac197fab80e641405b5cae4df1a4f000000000000000000000000000000000000000000000000000000006008afe20000000000000000000000000000000000000000000000000000000000000000000000000000000000000000000000000000000000000000000000000000001b1f7049529c80ea997556354acbaf1c2f9ea95c71d136de30354a3d913ecdf0a840b4e7847815c85cbf02760b7e67ee7ab54a6e21d870db3601f63872b89007b5",
                    "decodedMethod": {
                        "callParams": [
                            {
                                "name": "token",
                                "type": "address",
                                "value": "0x6e10aacb89a28d6fa0fe68790777fec7e7f01890"
                            },
                            {
                                "name": "liquidity",
                                "type": "uint256",
                                "value": "60,717,627,490,057,125"
                            },
                            {
                                "name": "amountTokenMin",
                                "type": "uint256",
                                "value": "5,994,083,580,136,259,349,688"
                            },
                            {
                                "name": "amountETHMin",
                                "type": "uint256",
                                "value": "295,786,560,309,481,338"
                            },
                            {
                                "name": "to",
                                "type": "address",
                                "value": "0xc102c4903f3ac197fab80e641405b5cae4df1a4f"
                            },
                            {
                                "name": "deadline",
                                "type": "uint256",
                                "value": "1,611,182,050"
                            },
                            {
                                "name": "approveMax",
                                "type": "bool",
                                "value": false
                            },
                            {
                                "name": "v",
                                "type": "uint8",
                                "value": "27"
                            },
                            {
                                "name": "r",
                                "type": "bytes32",
                                "value": "0x1f7049529c80ea997556354acbaf1c2f9ea95c71d136de30354a3d913ecdf0a8"
                            },
                            {
                                "name": "s",
                                "type": "bytes32",
                                "value": "0x40b4e7847815c85cbf02760b7e67ee7ab54a6e21d870db3601f63872b89007b5"
                            }
                        ],
                        "constructorArguments": "",
                        "name": "removeLiquidityETHWithPermitSupportingFeeOnTransferTokens",
                        "returnParams": [],
                        "signature": "removeLiquidityETHWithPermitSupportingFeeOnTransferTokens(address,uint256,uint256,uint256,address,uint256,bool,uint8,bytes32,bytes32)"
                    },
                    "errorInfo": "execution reverted",
                    "fromAddress": "0xc102c4903f3ac197fab80e641405b5cae4df1a4f",
                    "gasUsed": 27253,
                    "id": 0,
                    "methodDecoded": true,
                    "operation": "CALL",
                    "output": "0x08c379a000000000000000000000000000000000000000000000000000000000000000200000000000000000000000000000000000000000000000000000000000000012556e697377617056323a20455850495245440000000000000000000000000000",
                    "revert": true,
                    "revertMessage": "UniswapV2: EXPIRED",
                    "selector": "0x5b0d5984",
                    "status": false,
                    "value": "0"
                },
                "nodeType": 0
            },
            "1": {
                "invocation": {
                    "address": "0xc2b7888a8d7b62e2a518bbc79fbbd6b75da524b6",
                    "callData": "0x000000000000000000000000c102c4903f3ac197fab80e641405b5cae4df1a4f0000000000000000000000007a250d5630b4cf539739df2c5dacb4c659f2488d00000000000000000000000000000000000000000000000000d7b65c4a263ba5000000000000000000000000000000000000000000000000000000006008afe2000000000000000000000000000000000000000000000000000000000000001b1f7049529c80ea997556354acbaf1c2f9ea95c71d136de30354a3d913ecdf0a840b4e7847815c85cbf02760b7e67ee7ab54a6e21d870db3601f63872b89007b5",
                    "decodedMethod": {
                        "callParams": [
                            {
                                "name": "owner",
                                "type": "address",
                                "value": "0xc102c4903f3ac197fab80e641405b5cae4df1a4f"
                            },
                            {
                                "name": "spender",
                                "type": "address",
                                "value": "0x7a250d5630b4cf539739df2c5dacb4c659f2488d"
                            },
                            {
                                "name": "value",
                                "type": "uint256",
                                "value": "60,717,627,490,057,125"
                            },
                            {
                                "name": "deadline",
                                "type": "uint256",
                                "value": "1,611,182,050"
                            },
                            {
                                "name": "v",
                                "type": "uint8",
                                "value": "27"
                            },
                            {
                                "name": "r",
                                "type": "bytes32",
                                "value": "0x1f7049529c80ea997556354acbaf1c2f9ea95c71d136de30354a3d913ecdf0a8"
                            },
                            {
                                "name": "s",
                                "type": "bytes32",
                                "value": "0x40b4e7847815c85cbf02760b7e67ee7ab54a6e21d870db3601f63872b89007b5"
                            }
                        ],
                        "constructorArguments": "",
                        "name": "permit",
                        "returnParams": [],
                        "signature": "permit(address,address,uint256,uint256,uint8,bytes32,bytes32)"
                    },
                    "errorInfo": "execution reverted",
                    "fromAddress": "0x7a250d5630b4cf539739df2c5dacb4c659f2488d",
                    "gasUsed": 486,
                    "id": 1,
                    "methodDecoded": true,
                    "operation": "CALL",
                    "output": "0x08c379a000000000000000000000000000000000000000000000000000000000000000200000000000000000000000000000000000000000000000000000000000000012556e697377617056323a20455850495245440000000000000000000000000000",
                    "revert": true,
                    "revertMessage": "UniswapV2: EXPIRED",
                    "selector": "0xd505accf",
                    "status": false,
                    "value": "0"
                },
                "nodeType": 0
            }
        },
        "gasFlame": [
            {
                "children": [
                    {
                        "children": [
                            {
                                "children": [],
                                "depth": 0,
                                "name": "Initial Gas",
                                "value": 23952
                            },
                            {
                                "children": [
                                    {
                                        "children": [],
                                        "depth": 1,
                                        "name": "permit",
                                        "value": 486
                                    }
                                ],
                                "depth": 0,
                                "name": "Executed Gas",
                                "value": 3301
                            }
                        ],
                        "depth": -1,
                        "name": "Actual Gas Used",
                        "value": 27253
                    },
                    {
                        "children": [],
                        "depth": -1,
                        "name": "Refunded Gas",
                        "value": 0
                    }
                ],
                "depth": -2,
                "name": "Total Gas",
                "value": 27253
            }
        ],
        "isConfirmed": true,
        "mainTrace": [
            {
                "children": [
                    {
                        "children": [
                            {
                                "children": [],
                                "depth": 1,
                                "id": 1,
                                "order": 1
                            }
                        ],
                        "depth": 0,
                        "id": 0,
                        "order": 0
                    }
                ],
                "depth": -1,
                "id": -1,
                "order": -1
            }
        ],
        "mainTraceNodeCount": 2,
        "parentIdMap": {
            "0": -1,
            "1": 0
        },
        "tidyTrace": [
            {
                "children": [
                    {
                        "children": [
                            {
                                "children": [],
                                "depth": 1,
                                "id": 1,
                                "order": 1
                            }
                        ],
                        "depth": 0,
                        "id": 0,
                        "order": 0
                    }
                ],
                "depth": -1,
                "id": -1,
                "order": -1
            }
        ],
        "tidyTraceNodeCount": 2
    },
    "state_change": {
        "stateChanges": []
    }
}