{
    "balance_change": {
        "balanceChanges": [
            {
                "account": "0x3c7994b64fd5ef1de761dc9263ebb659decbedfa",
                "assets": [
                    {
                        "address": "0x8e870d67f660d95d5be530380d0ec0bd388289e1",
                        "amount": "3,564.4",
                        "iconUrl": "https://assets.blocksec.com/icon/df4a16322c8ca2faeeb21a6d029f24de2efeb58e57edadd9ecbfa6a35afa986d.png",
                        "isERC1155": false,
                        "isERC721": false,
                        "sign": false,
                        "value": ""
                    },
                    {
                        "address": "0xdac17f958d2ee523a2206206994597c13d831ec7",
                        "amount": "3,546.244727",
                        "iconUrl": "https://assets.blocksec.com/icon/fcea71f3193ce895be44bfdf941f7e4c9381dd587f273c2d1a27f1263d84e4ea.png",
                        "isERC1155": false,
                        "isERC721": false,
                        "sign": true,
                        "value": ""
                    }
                ]
            },
            {
                "account": "0x41f8d14c9475444f30a80431c68cf24dc9a8369a",
                "assets": [
                    {
                        "address": "0xdac17f958d2ee523a2206206994597c13d831ec7",
                        "amount": "10.670746",
                        "iconUrl": "https://assets.blocksec.com/icon/fcea71f3193ce895be44bfdf941f7e4c9381dd587f273c2d1a27f1263d84e4ea.png",
                        "isERC1155": false,
                        "isERC721": false,
                        "sign": true,
                        "value": ""
                    }
                ]
            },
            {
                "account": "0x7cd860672c477e4c312cdde6f922c51235caf52d",
                "assets": [
                    {
                        "address": "0xdac17f958d2ee523a2206206994597c13d831ec7",
                        "amount": "3,556.915473",
                        "iconUrl": "https://assets.blocksec.com/icon/fcea71f3193ce895be44bfdf941f7e4c9381dd587f273c2d1a27f1263d84e4ea.png",
                        "isERC1155": false,
                        "isERC721": false,
                        "sign": false,
                        "value": ""
                    },
                    {
                        "address": "0x8e870d67f660d95d5be530380d0ec0bd388289e1",
                        "amount": "3,564.4",
                        "iconUrl": "https://assets.blocksec.com/icon/df4a16322c8ca2faeeb21a6d029f24de2efeb58e57edadd9ecbfa6a35afa986d.png",
                        "isERC1155": false,
                        "isERC721": false,
                        "sign": true,
                        "value": ""
                    }
                ]
            }
        ]
    },
    "profile": {
        "basic_info": {
            "baseFee": "",
            "blockNumber": 9477891,
            "callData": "0xbacfc57d9cc9c5e28cd0e66207b2592d1f3ceb61b093cea74b53f9170a952b3575df83e3000000000000000000000000000000000000000000000000000000000000006000000000000000000000000000000000000000000000000000000000000003c0000000000000000000000000000000000000000000000000000000000000032464a3bc1500000000000000000000000000000000000000000000000000000000000000600000000000000000000000000000000000000000000000c139fca2ffda58000000000000000000000000000000000000000000000000000000000000000002a00000000000000000000000007cd860672c477e4c312cdde6f922c51235caf52d00000000000000000000000041f8d14c9475444f30a80431c68cf24dc9a8369a000000000000000000000000b9e29984fe50602e7a619662ebed4f90d93824c7000000000000000000000000dc6c91b569c98f9f6f74d90f9beff99fdaf4248b00000000000000000000000000000000000000000000000000000000d40239110000000000000000000000000000000000000000000000c139fca2ffda58000000000000000000000000000000000000000000000000000000000000000000000000000000000000000000000000000000000000000000000000000000000000000000000000000000000000000000000000000000000000000000005e45ef7420a36f5867f8368a7a2aaa0f7f1410c66332cc8eb6d8f9aaef915e22798f089e000000000000000000000000000000000000000000000000000000000000018000000000000000000000000000000000000000000000000000000000000001e00000000000000000000000000000000000000000000000000000000000000024f47261b0000000000000000000000000dac17f958d2ee523a2206206994597c13d831ec7000000000000000000000000000000000000000000000000000000000000000000000000000000000000000000000000000000000000000000000024f47261b00000000000000000000000008e870d67f660d95d5be530380d0ec0bd388289e10000000000000000000000000000000000000000000000000000000000000000000000000000000000000000000000000000000000000000000000581b332e19e73615b1128ca99813a44c5f2e837e7bbb4151f6ddbefe2ece62ec99806c044b489e97879956a91e7647637a1baec19a332333860ea58624effa567d0e3c7994b64fd5ef1de761dc9263ebb659decbedfa001e0400000000000000000000000000000000000000000000000000000000000000000000000000000000000000000000000000000000000000000000000000000000000000561c310fcb7fd2d75e17fc632b46817d5d34886a5f85bcdc56ac48ab7a669872736c7ce813eaf54976415980d23d7c9e215b487cb607743f98b37de9aff01b9f56323c7994b64fd5ef1de761dc9263ebb659decbedfa0400000000000000000000",
            "debugEnable": true,
            "errorInfo": "",
            "eventCount": 6,
            "feeRecipient": "0x5a0b54d5dc17e0aadc383d2db43b0a0d3e029c4c",
            "formatValue": "0",
            "gasLimit": 500000,
            "gasPrice": "6",
            "gasUsed": 293285,
            "intTxnCount": 18,
            "internalRevert": false,
            "internalRevertMessage": "",
            "isContractCreation": false,
            "isFlashloan": false,
            "maxFee": "",
            "nonce": 12481,
            "overwritedBlockNumber": -1,
            "priorityFee": "",
            "receiver": "0xdc6c91b569c98f9f6f74d90f9beff99fdaf4248b",
            "revertMessage": "",
            "sender": "0xe9038bfeecba036b6fb1a2d080581cb0e6eb7338",
            "simulationEnable": true,
            "sourceTxnHash": "0x42e320b86c1b973e1c1ac28e22a3c59741a17e224a9c98ff547050715569a69b",
            "status": true,
            "timestamp": "2020-02-14T00:23:03Z",
            "transactionFee": "0.00175971",
            "txnHash": "0x42e320b86c1b973e1c1ac28e22a3c59741a17e224a9c98ff547050715569a69b",
            "txnIndex": 131,
            "type": 0,
            "value": "0"
        },
        "fund_flow": [
            {
                "amount": "3,564.4",
                "from": "0x3c7994b64fd5ef1de761dc9263ebb659decbedfa",
                "id": 1,
                "isERC1155": false,
                "isERC721": false,
                "isReverted": false,
                "order": 1,
                "to": "0x41f8d14c9475444f30a80431c68cf24dc9a8369a",
                "token": "0x8e870d67f660d95d5be530380d0ec0bd388289e1"
            },
            {
                "amount": "3,556.915473",
                "from": "0x7cd860672c477e4c312cdde6f922c51235caf52d",
                "id": 2,
                "isERC1155": false,
                "isERC721": false,
                "isReverted": false,
                "order": 2,
                "to": "0x41f8d14c9475444f30a80431c68cf24dc9a8369a",
                "token": "0xdac17f958d2ee523a2206206994597c13d831ec7"
            },
            {
                "amount": "3,564.4",
                "from": "0x41f8d14c9475444f30a80431c68cf24dc9a8369a",
                "id": 3,
                "isERC1155": false,
                "isERC721": false,
                "isReverted": false,
                "order": 3,
                "to": "0x7cd860672c477e4c312cdde6f922c51235caf52d",
                "token": "0x8e870d67f660d95d5be530380d0ec0bd388289e1"
            },
            {
                "amount": "3,546.244727",
                "from": "0x41f8d14c9475444f30a80431c68cf24dc9a8369a",
                "id": 4,
                "isERC1155": false,
                "isERC721": false,
                "isReverted": false,
                "order": 4,
                "to": "0x3c7994b64fd5ef1de761dc9263ebb659decbedfa",
                "token": "0xdac17f958d2ee523a2206206994597c13d831ec7"
            }
        ],
        "token_infos": [
            {
                "address": "0x8e870d67f660d95d5be530380d0ec0bd388289e1",
                "decimals": 18
            },
            {
                "address": "0xc02aaa39b223fe8d0a0e5c4f27ead9083c756cc2",
                "decimals": 18
            },
            {
                "address": "0xdac17f958d2ee523a2206206994597c13d831ec7",
                "decimals": 6
            },
            {
                "address": "0xeeeeeeeeeeeeeeeeeeeeeeeeeeeeeeeeeeeeeeee",
                "decimals": 18
            }
        ]
    },
    "address_label": {
        "labels": [
            {
                "address": "0xdc6c91b569c98f9f6f74d90f9beff99fdaf4248b",
                "label": "Tokenlon: DEX 1"
            },
            {
                "address": "0x8e870d67f660d95d5be530380d0ec0bd388289e1",
                "label": "Paxos: USDP Token"
            },
            {
                "address": "0x86eee0422322710866af89e9cae3f7383d55310a",
                "label": "Paxos Standard (PAX)"
            },
            {
                "address": "0x080bf510fcbf18b91105470639e9561022937712",
                "label": "0x: Exchange v2.1"
            },
            {
                "address": "0x0000000000000000000000000000000000000002",
                "label": "Precompiled"
            },
            {
                "address": "0x0000000000000000000000000000000000000004",
                "label": "Precompiled"
            },
            {
                "address": "0xeeeeeeeeeeeeeeeeeeeeeeeeeeeeeeeeeeeeeeee",
                "label": "Ether"
            },
            {
                "address": "0x7cd860672c477e4c312cdde6f922c51235caf52d",
                "label": "MarketMakerProxy"
            },
            {
                "address": "0x0000000000000000000000000000000000000003",
                "label": "Precompiled"
            },
            {
                "address": "0x95e6f48254609a6ee006f7d493c8e5fb97094cef",
                "label": "0x: ERC20 Proxy V3"
            },
            {
                "address": "0xdac17f958d2ee523a2206206994597c13d831ec7",
                "label": "Tether: USDT Stablecoin"
            },
            {
                "address": "0xb9e29984fe50602e7a619662ebed4f90d93824c7",
                "label": "Tokenlon: Fee Recipient"
            },
            {
                "address": "0xe9038bfeecba036b6fb1a2d080581cb0e6eb7338",
                "label": "TOKENLON"
            },
            {
                "address": "0x0000000000000000000000000000000000000001",
                "label": "Precompiled"
            }
        ]
    },
    "trace": {
        "accountLabels": null,
        "dataMap": {
            "-1": {
                "invocation": {
                    "address": "0xe9038bfeecba036b6fb1a2d080581cb0e6eb7338",
                    "callData": "",
                    "decodedMethod": null,
                    "errorInfo": "",
                    "fromAddress": "",
                    "gasUsed": 0,
                    "id": -1,
                    "methodDecoded": false,
                    "operation": "",
                    "output": "",
                    "revert": false,
                    "revertMessage": "",
                    "selector": "",
                    "status": false,
                    "value": ""
                },
                "nodeType": 0
            },
            "0": {
                "invocation": {
                    "address": "0xdc6c91b569c98f9f6f74d90f9beff99fdaf4248b",
                    "callData": "0x9cc9c5e28cd0e66207b2592d1f3ceb61b093cea74b53f9170a952b3575df83e3000000000000000000000000000000000000000000000000000000000000006000000000000000000000000000000000000000000000000000000000000003c0000000000000000000000000000000000000000000000000000000000000032464a3bc1500000000000000000000000000000000000000000000000000000000000000600000000000000000000000000000000000000000000000c139fca2ffda58000000000000000000000000000000000000000000000000000000000000000002a00000000000000000000000007cd860672c477e4c312cdde6f922c51235caf52d00000000000000000000000041f8d14c9475444f30a80431c68cf24dc9a8369a000000000000000000000000b9e29984fe50602e7a619662ebed4f90d93824c7000000000000000000000000dc6c91b569c98f9f6f74d90f9beff99fdaf4248b00000000000000000000000000000000000000000000000000000000d40239110000000000000000000000000000000000000000000000c139fca2ffda58000000000000000000000000000000000000000000000000000000000000000000000000000000000000000000000000000000000000000000000000000000000000000000000000000000000000000000000000000000000000000000005e45ef7420a36f5867f8368a7a2aaa0f7f1410c66332cc8eb6d8f9aaef915e22798f089e000000000000000000000000000000000000000000000000000000000000018000000000000000000000000000000000000000000000000000000000000001e00000000000000000000000000000000000000000000000000000000000000024f47261b0000000000000000000000000dac17f958d2ee523a2206206994597c13d831ec7000000000000000000000000000000000000000000000000000000000000000000000000000000000000000000000000000000000000000000000024f47261b00000000000000000000000008e870d67f660d95d5be530380d0ec0bd388289e10000000000000000000000000000000000000000000000000000000000000000000000000000000000000000000000000000000000000000000000581b332e19e73615b1128ca99813a44c5f2e837e7bbb4151f6ddbefe2ece62ec99806c044b489e97879956a91e7647637a1baec19a332333860ea58624effa567d0e3c7994b64fd5ef1de761dc9263ebb659decbedfa001e0400000000000000000000000000000000000000000000000000000000000000000000000000000000000000000000000000000000000000000000000000000000000000561c310fcb7fd2d75e17fc632b46817d5d34886a5f85bcdc56ac48ab7a669872736c7ce813eaf54976415980d23d7c9e215b487cb607743f98b37de9aff01b9f56323c7994b64fd5ef1de761dc9263ebb659decbedfa0400000000000000000000",
                    "decodedMethod": {
                        "callParams": [
                            {
                                "name": "userSalt",
                                "type": "uint256",
                                "value": "70,917,306,390,817,933,635,269,110,394,795,798,946,718,668,125,607,964,300,679,447,013,315,565,290,467"
                            },
                            {
                                "name": "data",
                                "type": "bytes",
                                "value": "0x64a3bc1500000000000000000000000000000000000000000000000000000000000000600000000000000000000000000000000000000000000000c139fca2ffda58000000000000000000000000000000000000000000000000000000000000000002a00000000000000000000000007cd860672c477e4c312cdde6f922c51235caf52d00000000000000000000000041f8d14c9475444f30a80431c68cf24dc9a8369a000000000000000000000000b9e29984fe50602e7a619662ebed4f90d93824c7000000000000000000000000dc6c91b569c98f9f6f74d90f9beff99fdaf4248b00000000000000000000000000000000000000000000000000000000d40239110000000000000000000000000000000000000000000000c139fca2ffda58000000000000000000000000000000000000000000000000000000000000000000000000000000000000000000000000000000000000000000000000000000000000000000000000000000000000000000000000000000000000000000005e45ef7420a36f5867f8368a7a2aaa0f7f1410c66332cc8eb6d8f9aaef915e22798f089e000000000000000000000000000000000000000000000000000000000000018000000000000000000000000000000000000000000000000000000000000001e00000000000000000000000000000000000000000000000000000000000000024f47261b0000000000000000000000000dac17f958d2ee523a2206206994597c13d831ec7000000000000000000000000000000000000000000000000000000000000000000000000000000000000000000000000000000000000000000000024f47261b00000000000000000000000008e870d67f660d95d5be530380d0ec0bd388289e10000000000000000000000000000000000000000000000000000000000000000000000000000000000000000000000000000000000000000000000581b332e19e73615b1128ca99813a44c5f2e837e7bbb4151f6ddbefe2ece62ec99806c044b489e97879956a91e7647637a1baec19a332333860ea58624effa567d0e3c7994b64fd5ef1de761dc9263ebb659decbedfa001e040000000000000000"
                            },
                            {
                                "name": "userSignature",
                                "type": "bytes",
                                "value": "0x1c310fcb7fd2d75e17fc632b46817d5d34886a5f85bcdc56ac48ab7a669872736c7ce813eaf54976415980d23d7c9e215b487cb607743f98b37de9aff01b9f56323c7994b64fd5ef1de761dc9263ebb659decbedfa04"
                            }
                        ],
                        "constructorArguments": "",
                        "name": "fillOrderWithToken",
                        "returnParams": [],
                        "signature": "fillOrderWithToken(uint256,bytes,bytes)"
                    },
                    "errorInfo": "",
                    "fromAddress": "0xe9038bfeecba036b6fb1a2d080581cb0e6eb7338",
                    "gasUsed": 293285,
                    "id": 0,
                    "methodDecoded": true,
                    "operation": "CALL",
                    "output": "",
                    "revert": false,
                    "revertMessage": "",
                    "selector": "0xbacfc57d",
                    "status": true,
                    "value": "0"
                },
                "nodeType": 0
            },
            "1": {
                "invocation": {
                    "address": "0xdc6c91b569c98f9f6f74d90f9beff99fdaf4248b",
                    "callData": "0x0000000000000000000000007cd860672c477e4c312cdde6f922c51235caf52d",
                    "decodedMethod": {
                        "callParams": [
                            {
                                "name": "",
                                "type": "address",
                                "value": "0x7cd860672c477e4c312cdde6f922c51235caf52d"
                            }
                        ],
                        "constructorArguments": "",
                        "name": "isMarketMakerProxy",
                        "returnParams": [
                            {
                                "name": "",
                                "type": "bool",
                                "value": true
                            }
                        ],
                        "signature": "isMarketMakerProxy(address)"
                    },
                    "errorInfo": "",
                    "fromAddress": "0xdc6c91b569c98f9f6f74d90f9beff99fdaf4248b",
                    "gasUsed": 1566,
                    "id": 1,
                    "methodDecoded": true,
                    "operation": "STATICCALL",
                    "output": "0x0000000000000000000000000000000000000000000000000000000000000001",
                    "revert": false,
                    "revertMessage": "",
                    "selector": "0x5457a155",
                    "status": true,
                    "value": "0"
                },
                "nodeType": 0
            },
            "10": {
                "invocation": {
                    "address": "0x080bf510fcbf18b91105470639e9561022937712",
                    "callData": "0x00000000000000000000000000000000000000000000000000000000000000600000000000000000000000000000000000000000000000c139fca2ffda58000000000000000000000000000000000000000000000000000000000000000002a00000000000000000000000007cd860672c477e4c312cdde6f922c51235caf52d00000000000000000000000041f8d14c9475444f30a80431c68cf24dc9a8369a000000000000000000000000b9e29984fe50602e7a619662ebed4f90d93824c7000000000000000000000000dc6c91b569c98f9f6f74d90f9beff99fdaf4248b00000000000000000000000000000000000000000000000000000000d40239110000000000000000000000000000000000000000000000c139fca2ffda58000000000000000000000000000000000000000000000000000000000000000000000000000000000000000000000000000000000000000000000000000000000000000000000000000000000000000000000000000000000000000000005e45ef7420a36f5867f8368a7a2aaa0f7f1410c66332cc8eb6d8f9aaef915e22798f089e000000000000000000000000000000000000000000000000000000000000018000000000000000000000000000000000000000000000000000000000000001e00000000000000000000000000000000000000000000000000000000000000024f47261b0000000000000000000000000dac17f958d2ee523a2206206994597c13d831ec7000000000000000000000000000000000000000000000000000000000000000000000000000000000000000000000000000000000000000000000024f47261b00000000000000000000000008e870d67f660d95d5be530380d0ec0bd388289e10000000000000000000000000000000000000000000000000000000000000000000000000000000000000000000000000000000000000000000000581b332e19e73615b1128ca99813a44c5f2e837e7bbb4151f6ddbefe2ece62ec99806c044b489e97879956a91e7647637a1baec19a332333860ea58624effa567d0e3c7994b64fd5ef1de761dc9263ebb659decbedfa001e040000000000000000",
                    "decodedMethod": {
                        "callParams": [
                            {
                                "name": "order",
                                "type": "(address,address,address,address,uint256,uint256,uint256,uint256,uint256,uint256,bytes,bytes)",
                                "value": [
                                    {
                                        "name": "makerAddress",
                                        "type": "address",
                                        "value": "0x7cd860672c477e4c312cdde6f922c51235caf52d"
                                    },
                                    {
                                        "name": "takerAddress",
                                        "type": "address",
                                        "value": "0x41f8d14c9475444f30a80431c68cf24dc9a8369a"
                                    },
                                    {
                                        "name": "feeRecipientAddress",
                                        "type": "address",
                                        "value": "0xb9e29984fe50602e7a619662ebed4f90d93824c7"
                                    },
                                    {
                                        "name": "senderAddress",
                                        "type": "address",
                                        "value": "0xdc6c91b569c98f9f6f74d90f9beff99fdaf4248b"
                                    },
                                    {
                                        "name": "makerAssetAmount",
                                        "type": "uint256",
                                        "value": "3,556,915,473"
                                    },
                                    {
                                        "name": "takerAssetAmount",
                                        "type": "uint256",
                                        "value": "3,564,400,000,000,000,000,000"
                                    },
                                    {
                                        "name": "makerFee",
                                        "type": "uint256",
                                        "value": "0"
                                    },
                                    {
                                        "name": "takerFee",
                                        "type": "uint256",
                                        "value": "0"
                                    },
                                    {
                                        "name": "expirationTimeSeconds",
                                        "type": "uint256",
                                        "value": "1,581,641,588"
                                    },
                                    {
                                        "name": "salt",
                                        "type": "uint256",
                                        "value": "14,762,775,703,492,476,503,810,410,004,405,372,738,050,053,578,411,290,266,137,167,512,062,028,351,646"
                                    },
                                    {
                                        "name": "makerAssetData",
                                        "type": "bytes",
                                        "value": "0xf47261b0000000000000000000000000dac17f958d2ee523a2206206994597c13d831ec7"
                                    },
                                    {
                                        "name": "takerAssetData",
                                        "type": "bytes",
                                        "value": "0xf47261b00000000000000000000000008e870d67f660d95d5be530380d0ec0bd388289e1"
                                    }
                                ]
                            },
                            {
                                "name": "takerAssetFillAmount",
                                "type": "uint256",
                                "value": "3,564,400,000,000,000,000,000"
                            },
                            {
                                "name": "signature",
                                "type": "bytes",
                                "value": "0x1b332e19e73615b1128ca99813a44c5f2e837e7bbb4151f6ddbefe2ece62ec99806c044b489e97879956a91e7647637a1baec19a332333860ea58624effa567d0e3c7994b64fd5ef1de761dc9263ebb659decbedfa001e04"
                            }
                        ],
                        "constructorArguments": "",
                        "name": "fillOrKillOrder",
                        "returnParams": [
                            {
                                "name": "fillResults",
                                "type": "(uint256,uint256,uint256,uint256)",
                                "value": [
                                    {
                                        "name": "makerAssetFilledAmount",
                                        "type": "uint256",
                                        "value": "3,556,915,473"
                                    },
                                    {
                                        "name": "takerAssetFilledAmount",
                                        "type": "uint256",
                                        "value": "3,564,400,000,000,000,000,000"
                                    },
                                    {
                                        "name": "makerFeePaid",
                                        "type": "uint256",
                                        "value": "0"
                                    },
                                    {
                                        "name": "takerFeePaid",
                                        "type": "uint256",
                                        "value": "0"
                                    }
                                ]
                            }
                        ],
                        "signature": "fillOrKillOrder((address,address,address,address,uint256,uint256,uint256,uint256,uint256,uint256,bytes,bytes),uint256,bytes)"
                    },
                    "errorInfo": "",
                    "fromAddress": "0x080bf510fcbf18b91105470639e9561022937712",
                    "gasUsed": 134097,
                    "id": 10,
                    "methodDecoded": true,
                    "operation": "DELEGATECALL",
                    "output": "0x00000000000000000000000000000000000000000000000000000000d40239110000000000000000000000000000000000000000000000c139fca2ffda58000000000000000000000000000000000000000000000000000000000000000000000000000000000000000000000000000000000000000000000000000000000000",
                    "revert": false,
                    "revertMessage": "",
                    "selector": "0x64a3bc15",
                    "status": true,
                    "value": "0"
                },
                "nodeType": 0
            },
            "11": {
                "invocation": {
                    "address": "0x7cd860672c477e4c312cdde6f922c51235caf52d",
                    "callData": "0x4d51504aefbcee6ea6bb476eaf3bc18a02300b5414dcec2f5abadea157098cb5000000000000000000000000000000000000000000000000000000000000004000000000000000000000000000000000000000000000000000000000000000571b332e19e73615b1128ca99813a44c5f2e837e7bbb4151f6ddbefe2ece62ec99806c044b489e97879956a91e7647637a1baec19a332333860ea58624effa567d0e3c7994b64fd5ef1de761dc9263ebb659decbedfa001e000000000000000000",
                    "decodedMethod": {
                        "callParams": [
                            {
                                "name": "orderHash",
                                "type": "bytes32",
                                "value": "0x4d51504aefbcee6ea6bb476eaf3bc18a02300b5414dcec2f5abadea157098cb5"
                            },
                            {
                                "name": "signature",
                                "type": "bytes",
                                "value": "0x1b332e19e73615b1128ca99813a44c5f2e837e7bbb4151f6ddbefe2ece62ec99806c044b489e97879956a91e7647637a1baec19a332333860ea58624effa567d0e3c7994b64fd5ef1de761dc9263ebb659decbedfa001e"
                            }
                        ],
                        "constructorArguments": "",
                        "name": "isValidSignature",
                        "returnParams": [
                            {
                                "name": "",
                                "type": "bytes32",
                                "value": "0xb067138131d606f18b51e6ee32605a2acac5aad86d6a80011ed9cb2bab20c1c7"
                            }
                        ],
                        "signature": "isValidSignature(bytes32,bytes)"
                    },
                    "errorInfo": "",
                    "fromAddress": "0x080bf510fcbf18b91105470639e9561022937712",
                    "gasUsed": 8488,
                    "id": 11,
                    "methodDecoded": true,
                    "operation": "STATICCALL",
                    "output": "0xb067138131d606f18b51e6ee32605a2acac5aad86d6a80011ed9cb2bab20c1c7",
                    "revert": false,
                    "revertMessage": "",
                    "selector": "0x1626ba7e",
                    "status": true,
                    "value": "0"
                },
                "nodeType": 0
            },
            "12": {
                "invocation": {
                    "address": "0x0000000000000000000000000000000000000001",
                    "callData": "0xb870c0a7833cb966f86d926bd2764a0534760cd39a26aa85726ca4e5000000000000000000000000000000000000000000000000000000000000001b332e19e73615b1128ca99813a44c5f2e837e7bbb4151f6ddbefe2ece62ec99806c044b489e97879956a91e7647637a1baec19a332333860ea58624effa567d0e",
                    "decodedMethod": {
                        "callParams": [
                            {
                                "name": "hash",
                                "type": "bytes32",
                                "value": "0x621a1f69b870c0a7833cb966f86d926bd2764a0534760cd39a26aa85726ca4e5"
                            },
                            {
                                "name": "v",
                                "type": "uint256",
                                "value": "27"
                            },
                            {
                                "name": "r",
                                "type": "bytes32",
                                "value": "0x332e19e73615b1128ca99813a44c5f2e837e7bbb4151f6ddbefe2ece62ec9980"
                            },
                            {
                                "name": "s",
                                "type": "bytes32",
                                "value": "0x6c044b489e97879956a91e7647637a1baec19a332333860ea58624effa567d0e"
                            }
                        ],
                        "constructorArguments": "",
                        "name": "ecrecover",
                        "returnParams": [
                            {
                                "name": "",
                                "type": "address",
                                "value": "0x121c4c66ddb6a69239eeb8b253f8a3355aecf14d"
                            }
                        ],
                        "signature": "ecrecover(bytes32,uint256,bytes32,bytes32)"
                    },
                    "errorInfo": "",
                    "fromAddress": "0x7cd860672c477e4c312cdde6f922c51235caf52d",
                    "gasUsed": 3000,
                    "id": 12,
                    "methodDecoded": true,
                    "operation": "STATICCALL",
                    "output": "0x000000000000000000000000121c4c66ddb6a69239eeb8b253f8a3355aecf14d",
                    "revert": false,
                    "revertMessage": "",
                    "selector": "0x621a1f69",
                    "status": true,
                    "value": "0"
                },
                "nodeType": 0
            },
            "13": {
                "event": {
                    "contract": "0x080bf510fcbf18b91105470639e9561022937712",
                    "decodedLog": {
                        "name": "Fill",
                        "params": [
                            {
                                "name": "makerAddress",
                                "type": "address",
                                "value": "0x7cd860672c477e4c312cdde6f922c51235caf52d"
                            },
                            {
                                "name": "feeRecipientAddress",
                                "type": "address",
                                "value": "0xb9e29984fe50602e7a619662ebed4f90d93824c7"
                            },
                            {
                                "name": "orderHash",
                                "type": "bytes32",
                                "value": "0x4d51504aefbcee6ea6bb476eaf3bc18a02300b5414dcec2f5abadea157098cb5"
                            },
                            {
                                "name": "takerAddress",
                                "type": "address",
                                "value": "0x41f8d14c9475444f30a80431c68cf24dc9a8369a"
                            },
                            {
                                "name": "senderAddress",
                                "type": "address",
                                "value": "0xdc6c91b569c98f9f6f74d90f9beff99fdaf4248b"
                            },
                            {
                                "name": "makerAssetFilledAmount",
                                "type": "uint256",
                                "value": "3,556,915,473"
                            },
                            {
                                "name": "takerAssetFilledAmount",
                                "type": "uint256",
                                "value": "3,564,400,000,000,000,000,000"
                            },
                            {
                                "name": "makerFeePaid",
                                "type": "uint256",
                                "value": "0"
                            },
                            {
                                "name": "takerFeePaid",
                                "type": "uint256",
                                "value": "0"
                            },
                            {
                                "name": "makerAssetData",
                                "type": "bytes",
                                "value": "0xf47261b0000000000000000000000000dac17f958d2ee523a2206206994597c13d831ec7"
                            },
                            {
                                "name": "takerAssetData",
                                "type": "bytes",
                                "value": "0xf47261b00000000000000000000000008e870d67f660d95d5be530380d0ec0bd388289e1"
                            }
                        ],
                        "signature": "Fill(address,address,address,address,uint256,uint256,uint256,uint256,bytes32,bytes,bytes)"
                    },
                    "id": 13,
                    "logData": "0x00000000000000000000000041f8d14c9475444f30a80431c68cf24dc9a8369a000000000000000000000000dc6c91b569c98f9f6f74d90f9beff99fdaf4248b00000000000000000000000000000000000000000000000000000000d40239110000000000000000000000000000000000000000000000c139fca2ffda58000000000000000000000000000000000000000000000000000000000000000000000000000000000000000000000000000000000000000000000000000000000000000000000000000000000000000000000000000000000000000000000000010000000000000000000000000000000000000000000000000000000000000001600000000000000000000000000000000000000000000000000000000000000024f47261b0000000000000000000000000dac17f958d2ee523a2206206994597c13d831ec7000000000000000000000000000000000000000000000000000000000000000000000000000000000000000000000000000000000000000000000024f47261b00000000000000000000000008e870d67f660d95d5be530380d0ec0bd388289e100000000000000000000000000000000000000000000000000000000",
                    "logDecoded": true,
                    "operation": "EVENT",
                    "revert": false,
                    "status": true,
                    "topics": [
                        "0x0bcc4c97732e47d9946f229edb95f5b6323f601300e4690de719993f3c371129",
                        "0x0000000000000000000000007cd860672c477e4c312cdde6f922c51235caf52d",
                        "0x000000000000000000000000b9e29984fe50602e7a619662ebed4f90d93824c7",
                        "0x4d51504aefbcee6ea6bb476eaf3bc18a02300b5414dcec2f5abadea157098cb5"
                    ]
                },
                "nodeType": 1
            },
            "14": {
                "invocation": {
                    "address": "0x95e6f48254609a6ee006f7d493c8e5fb97094cef",
                    "callData": "0x00000000000000000000000000000000000000000000000000000000000000800000000000000000000000007cd860672c477e4c312cdde6f922c51235caf52d00000000000000000000000041f8d14c9475444f30a80431c68cf24dc9a8369a00000000000000000000000000000000000000000000000000000000d40239110000000000000000000000000000000000000000000000000000000000000024f47261b0000000000000000000000000dac17f958d2ee523a2206206994597c13d831ec700000000000000000000000000000000000000000000000000000000",
                    "decodedMethod": {
                        "callParams": [
                            {
                                "name": "assetData",
                                "type": "bytes",
                                "value": "0xf47261b0000000000000000000000000dac17f958d2ee523a2206206994597c13d831ec7"
                            },
                            {
                                "name": "from",
                                "type": "address",
                                "value": "0x7cd860672c477e4c312cdde6f922c51235caf52d"
                            },
                            {
                                "name": "to",
                                "type": "address",
                                "value": "0x41f8d14c9475444f30a80431c68cf24dc9a8369a"
                            },
                            {
                                "name": "amount",
                                "type": "uint256",
                                "value": "3,556,915,473"
                            }
                        ],
                        "constructorArguments": "",
                        "name": "transferFrom",
                        "returnParams": [],
                        "signature": "transferFrom(bytes,address,address,uint256)"
                    },
                    "errorInfo": "",
                    "fromAddress": "0x080bf510fcbf18b91105470639e9561022937712",
                    "gasUsed": 22384,
                    "id": 14,
                    "methodDecoded": true,
                    "operation": "CALL",
                    "output": "",
                    "revert": false,
                    "revertMessage": "",
                    "selector": "0xa85e59e4",
                    "status": true,
                    "value": "0"
                },
                "nodeType": 0
            },
            "15": {
                "invocation": {
                    "address": "0xdac17f958d2ee523a2206206994597c13d831ec7",
                    "callData": "0x0000000000000000000000007cd860672c477e4c312cdde6f922c51235caf52d00000000000000000000000041f8d14c9475444f30a80431c68cf24dc9a8369a00000000000000000000000000000000000000000000000000000000d4023911",
                    "decodedMethod": {
                        "callParams": [
                            {
                                "name": "_from",
                                "type": "address",
                                "value": "0x7cd860672c477e4c312cdde6f922c51235caf52d"
                            },
                            {
                                "name": "_to",
                                "type": "address",
                                "value": "0x41f8d14c9475444f30a80431c68cf24dc9a8369a"
                            },
                            {
                                "decimalAvailable": true,
                                "name": "_value",
                                "type": "uint256",
                                "value": "3,556,915,473"
                            }
                        ],
                        "constructorArguments": "",
                        "name": "transferFrom",
                        "returnParams": [],
                        "signature": "transferFrom(address,address,uint256)"
                    },
                    "errorInfo": "",
                    "fromAddress": "0x95e6f48254609a6ee006f7d493c8e5fb97094cef",
                    "gasUsed": 20330,
                    "id": 15,
                    "methodDecoded": true,
                    "operation": "CALL",
                    "output": "",
                    "revert": false,
                    "revertMessage": "",
                    "selector": "0x23b872dd",
                    "status": true,
                    "value": "0"
                },
                "nodeType": 0
            },
            "16": {
                "event": {
                    "contract": "0xdac17f958d2ee523a2206206994597c13d831ec7",
                    "decodedLog": {
                        "name": "Transfer",
                        "params": [
                            {
                                "name": "from",
                                "type": "address",
                                "value": "0x7cd860672c477e4c312cdde6f922c51235caf52d"
                            },
                            {
                                "name": "to",
                                "type": "address",
                                "value": "0x41f8d14c9475444f30a80431c68cf24dc9a8369a"
                            },
                            {
                                "decimalAvailable": true,
                                "name": "value",
                                "type": "uint256",
                                "value": "3,556,915,473"
                            }
                        ],
                        "signature": "Transfer(address,address,uint256)"
                    },
                    "id": 16,
                    "logData": "0x00000000000000000000000000000000000000000000000000000000d4023911",
                    "logDecoded": true,
                    "operation": "EVENT",
                    "revert": false,
                    "status": true,
                    "topics": [
                        "0xddf252ad1be2c89b69c2b068fc378daa952ba7f163c4a11628f55a4df523b3ef",
                        "0x0000000000000000000000007cd860672c477e4c312cdde6f922c51235caf52d",
                        "0x00000000000000000000000041f8d14c9475444f30a80431c68cf24dc9a8369a"
                    ]
                },
                "nodeType": 1
            },
            "17": {
                "invocation": {
                    "address": "0x95e6f48254609a6ee006f7d493c8e5fb97094cef",
                    "callData": "0x000000000000000000000000000000000000000000000000000000000000008000000000000000000000000041f8d14c9475444f30a80431c68cf24dc9a8369a0000000000000000000000007cd860672c477e4c312cdde6f922c51235caf52d0000000000000000000000000000000000000000000000c139fca2ffda5800000000000000000000000000000000000000000000000000000000000000000024f47261b00000000000000000000000008e870d67f660d95d5be530380d0ec0bd388289e100000000000000000000000000000000000000000000000000000000",
                    "decodedMethod": {
                        "callParams": [
                            {
                                "name": "assetData",
                                "type": "bytes",
                                "value": "0xf47261b00000000000000000000000008e870d67f660d95d5be530380d0ec0bd388289e1"
                            },
                            {
                                "name": "from",
                                "type": "address",
                                "value": "0x41f8d14c9475444f30a80431c68cf24dc9a8369a"
                            },
                            {
                                "name": "to",
                                "type": "address",
                                "value": "0x7cd860672c477e4c312cdde6f922c51235caf52d"
                            },
                            {
                                "name": "amount",
                                "type": "uint256",
                                "value": "3,564,400,000,000,000,000,000"
                            }
                        ],
                        "constructorArguments": "",
                        "name": "transferFrom",
                        "returnParams": [],
                        "signature": "transferFrom(bytes,address,address,uint256)"
                    },
                    "errorInfo": "",
                    "fromAddress": "0x080bf510fcbf18b91105470639e9561022937712",
                    "gasUsed": 27396,
                    "id": 17,
                    "methodDecoded": true,
                    "operation": "CALL",
                    "output": "",
                    "revert": false,
                    "revertMessage": "",
                    "selector": "0xa85e59e4",
                    "status": true,
                    "value": "0"
                },
                "nodeType": 0
            },
            "18": {
                "invocation": {
                    "address": "0x8e870d67f660d95d5be530380d0ec0bd388289e1",
                    "callData": "0x00000000000000000000000041f8d14c9475444f30a80431c68cf24dc9a8369a0000000000000000000000007cd860672c477e4c312cdde6f922c51235caf52d0000000000000000000000000000000000000000000000c139fca2ffda580000",
                    "decodedMethod": {
                        "callParams": [
                            {
                                "name": "_from",
                                "type": "address",
                                "value": "0x41f8d14c9475444f30a80431c68cf24dc9a8369a"
                            },
                            {
                                "name": "_to",
                                "type": "address",
                                "value": "0x7cd860672c477e4c312cdde6f922c51235caf52d"
                            },
                            {
                                "decimalAvailable": true,
                                "name": "_value",
                                "type": "uint256",
                                "value": "3,564,400,000,000,000,000,000"
                            }
                        ],
                        "constructorArguments": "",
                        "name": "transferFrom",
                        "returnParams": [
                            {
                                "name": "",
                                "type": "bool",
                                "value": true
                            }
                        ],
                        "signature": "transferFrom(address,address,uint256)"
                    },
                    "errorInfo": "",
                    "fromAddress": "0x95e6f48254609a6ee006f7d493c8e5fb97094cef",
                    "gasUsed": 25342,
                    "id": 18,
                    "methodDecoded": true,
                    "operation": "CALL",
                    "output": "0x0000000000000000000000000000000000000000000000000000000000000001",
                    "revert": false,
                    "revertMessage": "",
                    "selector": "0x23b872dd",
                    "status": true,
                    "value": "0"
                },
                "nodeType": 0
            },
            "19": {
                "invocation": {
                    "address": "0x86eee0422322710866af89e9cae3f7383d55310a",
                    "callData": "0x00000000000000000000000041f8d14c9475444f30a80431c68cf24dc9a8369a0000000000000000000000007cd860672c477e4c312cdde6f922c51235caf52d0000000000000000000000000000000000000000000000c139fca2ffda580000",
                    "decodedMethod": {
                        "callParams": [
                            {
                                "name": "_from",
                                "type": "address",
                                "value": "0x41f8d14c9475444f30a80431c68cf24dc9a8369a"
                            },
                            {
                                "name": "_to",
                                "type": "address",
                                "value": "0x7cd860672c477e4c312cdde6f922c51235caf52d"
                            },
                            {
                                "decimalAvailable": true,
                                "name": "_value",
                                "type": "uint256",
                                "value": "3,564,400,000,000,000,000,000"
                            }
                        ],
                        "constructorArguments": "",
                        "name": "transferFrom",
                        "returnParams": [
                            {
                                "name": "",
                                "type": "bool",
                                "value": true
                            }
                        ],
                        "signature": "transferFrom(address,address,uint256)"
                    },
                    "errorInfo": "",
                    "fromAddress": "0x8e870d67f660d95d5be530380d0ec0bd388289e1",
                    "gasUsed": 22554,
                    "id": 19,
                    "methodDecoded": true,
                    "operation": "DELEGATECALL",
                    "output": "0x0000000000000000000000000000000000000000000000000000000000000001",
                    "revert": false,
                    "revertMessage": "",
                    "selector": "0x23b872dd",
                    "status": true,
                    "value": "0"
                },
                "nodeType": 0
            },
            "2": {
                "invocation": {
                    "address": "0x41f8d14c9475444f30a80431c68cf24dc9a8369a",
                    "callData": "0x0000000000000000000000008e870d67f660d95d5be530380d0ec0bd388289e10000000000000000000000003c7994b64fd5ef1de761dc9263ebb659decbedfa0000000000000000000000000000000000000000000000c139fca2ffda580000",
                    "decodedMethod": {
                        "callParams": [
                            {
                                "name": "customer",
                                "type": "address",
                                "value": "0x8e870d67f660d95d5be530380d0ec0bd388289e1"
                            },
                            {
                                "name": "token",
                                "type": "address",
                                "value": "0x3c7994b64fd5ef1de761dc9263ebb659decbedfa"
                            },
                            {
                                "name": "amount",
                                "type": "uint256",
                                "value": "3,564,400,000,000,000,000,000"
                            }
                        ],
                        "constructorArguments": "",
                        "name": "receiveToken",
                        "returnParams": [],
                        "signature": "receiveToken(address,address,uint256)"
                    },
                    "errorInfo": "",
                    "fromAddress": "0xdc6c91b569c98f9f6f74d90f9beff99fdaf4248b",
                    "gasUsed": 32543,
                    "id": 2,
                    "methodDecoded": true,
                    "operation": "CALL",
                    "output": "",
                    "revert": false,
                    "revertMessage": "",
                    "selector": "0x4ec109f4",
                    "status": true,
                    "value": "0"
                },
                "nodeType": 0
            },
            "20": {
                "event": {
                    "contract": "0x8e870d67f660d95d5be530380d0ec0bd388289e1",
                    "decodedLog": {
                        "name": "Transfer",
                        "params": [
                            {
                                "name": "from",
                                "type": "address",
                                "value": "0x41f8d14c9475444f30a80431c68cf24dc9a8369a"
                            },
                            {
                                "name": "to",
                                "type": "address",
                                "value": "0x7cd860672c477e4c312cdde6f922c51235caf52d"
                            },
                            {
                                "decimalAvailable": true,
                                "name": "value",
                                "type": "uint256",
                                "value": "3,564,400,000,000,000,000,000"
                            }
                        ],
                        "signature": "Transfer(address,address,uint256)"
                    },
                    "id": 20,
                    "logData": "0x0000000000000000000000000000000000000000000000c139fca2ffda580000",
                    "logDecoded": true,
                    "operation": "EVENT",
                    "revert": false,
                    "status": true,
                    "topics": [
                        "0xddf252ad1be2c89b69c2b068fc378daa952ba7f163c4a11628f55a4df523b3ef",
                        "0x00000000000000000000000041f8d14c9475444f30a80431c68cf24dc9a8369a",
                        "0x0000000000000000000000007cd860672c477e4c312cdde6f922c51235caf52d"
                    ]
                },
                "nodeType": 1
            },
            "21": {
                "invocation": {
                    "address": "0x41f8d14c9475444f30a80431c68cf24dc9a8369a",
                    "callData": "0x000000000000000000000000dac17f958d2ee523a2206206994597c13d831ec70000000000000000000000003c7994b64fd5ef1de761dc9263ebb659decbedfa00000000000000000000000000000000000000000000000000000000d35f6677",
                    "decodedMethod": {
                        "callParams": [
                            {
                                "name": "_token",
                                "type": "address",
                                "value": "0xdac17f958d2ee523a2206206994597c13d831ec7"
                            },
                            {
                                "name": "_receiver",
                                "type": "address",
                                "value": "0x3c7994b64fd5ef1de761dc9263ebb659decbedfa"
                            },
                            {
                                "name": "_amount",
                                "type": "uint256",
                                "value": "3,546,244,727"
                            }
                        ],
                        "constructorArguments": "",
                        "name": "sendToken",
                        "returnParams": [],
                        "signature": "sendToken(address,address,uint256)"
                    },
                    "errorInfo": "",
                    "fromAddress": "0xdc6c91b569c98f9f6f74d90f9beff99fdaf4248b",
                    "gasUsed": 19106,
                    "id": 21,
                    "methodDecoded": true,
                    "operation": "CALL",
                    "output": "",
                    "revert": false,
                    "revertMessage": "",
                    "selector": "0x2fdcfbd2",
                    "status": true,
                    "value": "0"
                },
                "nodeType": 0
            },
            "22": {
                "invocation": {
                    "address": "0xdac17f958d2ee523a2206206994597c13d831ec7",
                    "callData": "0x00000000000000000000000041f8d14c9475444f30a80431c68cf24dc9a8369a0000000000000000000000003c7994b64fd5ef1de761dc9263ebb659decbedfa00000000000000000000000000000000000000000000000000000000d35f6677",
                    "decodedMethod": {
                        "callParams": [
                            {
                                "name": "_from",
                                "type": "address",
                                "value": "0x41f8d14c9475444f30a80431c68cf24dc9a8369a"
                            },
                            {
                                "name": "_to",
                                "type": "address",
                                "value": "0x3c7994b64fd5ef1de761dc9263ebb659decbedfa"
                            },
                            {
                                "decimalAvailable": true,
                                "name": "_value",
                                "type": "uint256",
                                "value": "3,546,244,727"
                            }
                        ],
                        "constructorArguments": "",
                        "name": "transferFrom",
                        "returnParams": [],
                        "signature": "transferFrom(address,address,uint256)"
                    },
                    "errorInfo": "",
                    "fromAddress": "0x41f8d14c9475444f30a80431c68cf24dc9a8369a",
                    "gasUsed": 16130,
                    "id": 22,
                    "methodDecoded": true,
                    "operation": "CALL",
                    "output": "",
                    "revert": false,
                    "revertMessage": "",
                    "selector": "0x23b872dd",
                    "status": true,
                    "value": "0"
                },
                "nodeType": 0
            },
            "23": {
                "event": {
                    "contract": "0xdac17f958d2ee523a2206206994597c13d831ec7",
                    "decodedLog": {
                        "name": "Transfer",
                        "params": [
                            {
                                "name": "from",
                                "type": "address",
                                "value": "0x41f8d14c9475444f30a80431c68cf24dc9a8369a"
                            },
                            {
                                "name": "to",
                                "type": "address",
                                "value": "0x3c7994b64fd5ef1de761dc9263ebb659decbedfa"
                            },
                            {
                                "decimalAvailable": true,
                                "name": "value",
                                "type": "uint256",
                                "value": "3,546,244,727"
                            }
                        ],
                        "signature": "Transfer(address,address,uint256)"
                    },
                    "id": 23,
                    "logData": "0x00000000000000000000000000000000000000000000000000000000d35f6677",
                    "logDecoded": true,
                    "operation": "EVENT",
                    "revert": false,
                    "status": true,
                    "topics": [
                        "0xddf252ad1be2c89b69c2b068fc378daa952ba7f163c4a11628f55a4df523b3ef",
                        "0x00000000000000000000000041f8d14c9475444f30a80431c68cf24dc9a8369a",
                        "0x0000000000000000000000003c7994b64fd5ef1de761dc9263ebb659decbedfa"
                    ]
                },
                "nodeType": 1
            },
            "24": {
                "event": {
                    "contract": "0xdc6c91b569c98f9f6f74d90f9beff99fdaf4248b",
                    "decodedLog": {
                        "name": "FillOrder",
                        "params": [
                            {
                                "name": "executeTxHash",
                                "type": "bytes32",
                                "value": "0xde304600051bf36f8f40c8d0cfae249c358b3fffb93cd27a2f88eb25179662a0"
                            },
                            {
                                "name": "userAddr",
                                "type": "address",
                                "value": "0x3c7994b64fd5ef1de761dc9263ebb659decbedfa"
                            },
                            {
                                "name": "receiverAddr",
                                "type": "address",
                                "value": "0x3c7994b64fd5ef1de761dc9263ebb659decbedfa"
                            },
                            {
                                "name": "filledAmount",
                                "type": "uint256",
                                "value": "3,564,400,000,000,000,000,000"
                            },
                            {
                                "name": "acutalMakerAssetAmount",
                                "type": "uint256",
                                "value": "3,546,244,727"
                            }
                        ],
                        "signature": "FillOrder(bytes32,address,address,uint256,uint256)"
                    },
                    "id": 24,
                    "logData": "0x0000000000000000000000003c7994b64fd5ef1de761dc9263ebb659decbedfa0000000000000000000000000000000000000000000000c139fca2ffda58000000000000000000000000000000000000000000000000000000000000d35f6677",
                    "logDecoded": true,
                    "operation": "EVENT",
                    "revert": false,
                    "status": true,
                    "topics": [
                        "0xbacf26e0fbc49102f01531fe6d0af4601375ca3bc0f1ce693e6c91a5e38fafa8",
                        "0xde304600051bf36f8f40c8d0cfae249c358b3fffb93cd27a2f88eb25179662a0",
                        "0x0000000000000000000000003c7994b64fd5ef1de761dc9263ebb659decbedfa"
                    ]
                },
                "nodeType": 1
            },
            "3": {
                "invocation": {
                    "address": "0x8e870d67f660d95d5be530380d0ec0bd388289e1",
                    "callData": "0x0000000000000000000000003c7994b64fd5ef1de761dc9263ebb659decbedfa00000000000000000000000041f8d14c9475444f30a80431c68cf24dc9a8369a0000000000000000000000000000000000000000000000c139fca2ffda580000",
                    "decodedMethod": {
                        "callParams": [
                            {
                                "name": "_from",
                                "type": "address",
                                "value": "0x3c7994b64fd5ef1de761dc9263ebb659decbedfa"
                            },
                            {
                                "name": "_to",
                                "type": "address",
                                "value": "0x41f8d14c9475444f30a80431c68cf24dc9a8369a"
                            },
                            {
                                "decimalAvailable": true,
                                "name": "_value",
                                "type": "uint256",
                                "value": "3,564,400,000,000,000,000,000"
                            }
                        ],
                        "constructorArguments": "",
                        "name": "transferFrom",
                        "returnParams": [
                            {
                                "name": "",
                                "type": "bool",
                                "value": true
                            }
                        ],
                        "signature": "transferFrom(address,address,uint256)"
                    },
                    "errorInfo": "",
                    "fromAddress": "0x41f8d14c9475444f30a80431c68cf24dc9a8369a",
                    "gasUsed": 29542,
                    "id": 3,
                    "methodDecoded": true,
                    "operation": "CALL",
                    "output": "0x0000000000000000000000000000000000000000000000000000000000000001",
                    "revert": false,
                    "revertMessage": "",
                    "selector": "0x23b872dd",
                    "status": true,
                    "value": "0"
                },
                "nodeType": 0
            },
            "4": {
                "invocation": {
                    "address": "0x86eee0422322710866af89e9cae3f7383d55310a",
                    "callData": "0x0000000000000000000000003c7994b64fd5ef1de761dc9263ebb659decbedfa00000000000000000000000041f8d14c9475444f30a80431c68cf24dc9a8369a0000000000000000000000000000000000000000000000c139fca2ffda580000",
                    "decodedMethod": {
                        "callParams": [
                            {
                                "name": "_from",
                                "type": "address",
                                "value": "0x3c7994b64fd5ef1de761dc9263ebb659decbedfa"
                            },
                            {
                                "name": "_to",
                                "type": "address",
                                "value": "0x41f8d14c9475444f30a80431c68cf24dc9a8369a"
                            },
                            {
                                "decimalAvailable": true,
                                "name": "_value",
                                "type": "uint256",
                                "value": "3,564,400,000,000,000,000,000"
                            }
                        ],
                        "constructorArguments": "",
                        "name": "transferFrom",
                        "returnParams": [
                            {
                                "name": "",
                                "type": "bool",
                                "value": true
                            }
                        ],
                        "signature": "transferFrom(address,address,uint256)"
                    },
                    "errorInfo": "",
                    "fromAddress": "0x8e870d67f660d95d5be530380d0ec0bd388289e1",
                    "gasUsed": 26754,
                    "id": 4,
                    "methodDecoded": true,
                    "operation": "DELEGATECALL",
                    "output": "0x0000000000000000000000000000000000000000000000000000000000000001",
                    "revert": false,
                    "revertMessage": "",
                    "selector": "0x23b872dd",
                    "status": true,
                    "value": "0"
                },
                "nodeType": 0
            },
            "5": {
                "event": {
                    "contract": "0x8e870d67f660d95d5be530380d0ec0bd388289e1",
                    "decodedLog": {
                        "name": "Transfer",
                        "params": [
                            {
                                "name": "from",
                                "type": "address",
                                "value": "0x3c7994b64fd5ef1de761dc9263ebb659decbedfa"
                            },
                            {
                                "name": "to",
                                "type": "address",
                                "value": "0x41f8d14c9475444f30a80431c68cf24dc9a8369a"
                            },
                            {
                                "decimalAvailable": true,
                                "name": "value",
                                "type": "uint256",
                                "value": "3,564,400,000,000,000,000,000"
                            }
                        ],
                        "signature": "Transfer(address,address,uint256)"
                    },
                    "id": 5,
                    "logData": "0x0000000000000000000000000000000000000000000000c139fca2ffda580000",
                    "logDecoded": true,
                    "operation": "EVENT",
                    "revert": false,
                    "status": true,
                    "topics": [
                        "0xddf252ad1be2c89b69c2b068fc378daa952ba7f163c4a11628f55a4df523b3ef",
                        "0x0000000000000000000000003c7994b64fd5ef1de761dc9263ebb659decbedfa",
                        "0x00000000000000000000000041f8d14c9475444f30a80431c68cf24dc9a8369a"
                    ]
                },
                "nodeType": 1
            },
            "6": {
                "invocation": {
                    "address": "0x080bf510fcbf18b91105470639e9561022937712",
                    "callData": "0x9cc9c5e28cd0e66207b2592d1f3ceb61b093cea74b53f9170a952b3575df83e300000000000000000000000041f8d14c9475444f30a80431c68cf24dc9a8369a000000000000000000000000000000000000000000000000000000000000008000000000000000000000000000000000000000000000000000000000000003e0000000000000000000000000000000000000000000000000000000000000032464a3bc1500000000000000000000000000000000000000000000000000000000000000600000000000000000000000000000000000000000000000c139fca2ffda58000000000000000000000000000000000000000000000000000000000000000002a00000000000000000000000007cd860672c477e4c312cdde6f922c51235caf52d00000000000000000000000041f8d14c9475444f30a80431c68cf24dc9a8369a000000000000000000000000b9e29984fe50602e7a619662ebed4f90d93824c7000000000000000000000000dc6c91b569c98f9f6f74d90f9beff99fdaf4248b00000000000000000000000000000000000000000000000000000000d40239110000000000000000000000000000000000000000000000c139fca2ffda58000000000000000000000000000000000000000000000000000000000000000000000000000000000000000000000000000000000000000000000000000000000000000000000000000000000000000000000000000000000000000000005e45ef7420a36f5867f8368a7a2aaa0f7f1410c66332cc8eb6d8f9aaef915e22798f089e000000000000000000000000000000000000000000000000000000000000018000000000000000000000000000000000000000000000000000000000000001e00000000000000000000000000000000000000000000000000000000000000024f47261b0000000000000000000000000dac17f958d2ee523a2206206994597c13d831ec7000000000000000000000000000000000000000000000000000000000000000000000000000000000000000000000000000000000000000000000024f47261b00000000000000000000000008e870d67f660d95d5be530380d0ec0bd388289e10000000000000000000000000000000000000000000000000000000000000000000000000000000000000000000000000000000000000000000000581b332e19e73615b1128ca99813a44c5f2e837e7bbb4151f6ddbefe2ece62ec99806c044b489e97879956a91e7647637a1baec19a332333860ea58624effa567d0e3c7994b64fd5ef1de761dc9263ebb659decbedfa001e0400000000000000000000000000000000000000000000000000000000000000000000000000000000000000000000000000000000000000000000000000000000000000561c310fcb7fd2d75e17fc632b46817d5d34886a5f85bcdc56ac48ab7a669872736c7ce813eaf54976415980d23d7c9e215b487cb607743f98b37de9aff01b9f56323c7994b64fd5ef1de761dc9263ebb659decbedfa0400000000000000000000",
                    "decodedMethod": {
                        "callParams": [
                            {
                                "name": "salt",
                                "type": "uint256",
                                "value": "70,917,306,390,817,933,635,269,110,394,795,798,946,718,668,125,607,964,300,679,447,013,315,565,290,467"
                            },
                            {
                                "name": "signerAddress",
                                "type": "address",
                                "value": "0x41f8d14c9475444f30a80431c68cf24dc9a8369a"
                            },
                            {
                                "name": "data",
                                "type": "bytes",
                                "value": "0x64a3bc1500000000000000000000000000000000000000000000000000000000000000600000000000000000000000000000000000000000000000c139fca2ffda58000000000000000000000000000000000000000000000000000000000000000002a00000000000000000000000007cd860672c477e4c312cdde6f922c51235caf52d00000000000000000000000041f8d14c9475444f30a80431c68cf24dc9a8369a000000000000000000000000b9e29984fe50602e7a619662ebed4f90d93824c7000000000000000000000000dc6c91b569c98f9f6f74d90f9beff99fdaf4248b00000000000000000000000000000000000000000000000000000000d40239110000000000000000000000000000000000000000000000c139fca2ffda58000000000000000000000000000000000000000000000000000000000000000000000000000000000000000000000000000000000000000000000000000000000000000000000000000000000000000000000000000000000000000000005e45ef7420a36f5867f8368a7a2aaa0f7f1410c66332cc8eb6d8f9aaef915e22798f089e000000000000000000000000000000000000000000000000000000000000018000000000000000000000000000000000000000000000000000000000000001e00000000000000000000000000000000000000000000000000000000000000024f47261b0000000000000000000000000dac17f958d2ee523a2206206994597c13d831ec7000000000000000000000000000000000000000000000000000000000000000000000000000000000000000000000000000000000000000000000024f47261b00000000000000000000000008e870d67f660d95d5be530380d0ec0bd388289e10000000000000000000000000000000000000000000000000000000000000000000000000000000000000000000000000000000000000000000000581b332e19e73615b1128ca99813a44c5f2e837e7bbb4151f6ddbefe2ece62ec99806c044b489e97879956a91e7647637a1baec19a332333860ea58624effa567d0e3c7994b64fd5ef1de761dc9263ebb659decbedfa001e040000000000000000"
                            },
                            {
                                "name": "signature",
                                "type": "bytes",
                                "value": "0x1c310fcb7fd2d75e17fc632b46817d5d34886a5f85bcdc56ac48ab7a669872736c7ce813eaf54976415980d23d7c9e215b487cb607743f98b37de9aff01b9f56323c7994b64fd5ef1de761dc9263ebb659decbedfa04"
                            }
                        ],
                        "constructorArguments": "",
                        "name": "executeTransaction",
                        "returnParams": [],
                        "signature": "executeTransaction(uint256,address,bytes,bytes)"
                    },
                    "errorInfo": "",
                    "fromAddress": "0xdc6c91b569c98f9f6f74d90f9beff99fdaf4248b",
                    "gasUsed": 199014,
                    "id": 6,
                    "methodDecoded": true,
                    "operation": "CALL",
                    "output": "",
                    "revert": false,
                    "revertMessage": "",
                    "selector": "0xbfc8bfce",
                    "status": true,
                    "value": "0"
                },
                "nodeType": 0
            },
            "7": {
                "invocation": {
                    "address": "0x41f8d14c9475444f30a80431c68cf24dc9a8369a",
                    "callData": "0xde304600051bf36f8f40c8d0cfae249c358b3fffb93cd27a2f88eb25179662a0000000000000000000000000000000000000000000000000000000000000004000000000000000000000000000000000000000000000000000000000000000551c310fcb7fd2d75e17fc632b46817d5d34886a5f85bcdc56ac48ab7a669872736c7ce813eaf54976415980d23d7c9e215b487cb607743f98b37de9aff01b9f56323c7994b64fd5ef1de761dc9263ebb659decbedfa0000000000000000000000",
                    "decodedMethod": {
                        "callParams": [
                            {
                                "name": "hash",
                                "type": "bytes32",
                                "value": "0xde304600051bf36f8f40c8d0cfae249c358b3fffb93cd27a2f88eb25179662a0"
                            },
                            {
                                "name": "signature",
                                "type": "bytes",
                                "value": "0x1c310fcb7fd2d75e17fc632b46817d5d34886a5f85bcdc56ac48ab7a669872736c7ce813eaf54976415980d23d7c9e215b487cb607743f98b37de9aff01b9f56323c7994b64fd5ef1de761dc9263ebb659decbedfa"
                            }
                        ],
                        "constructorArguments": "",
                        "name": "isValidSignature",
                        "returnParams": [
                            {
                                "name": "magicValue",
                                "type": "bytes4",
                                "value": "0xb0671381"
                            }
                        ],
                        "signature": "isValidSignature(bytes32,bytes)"
                    },
                    "errorInfo": "",
                    "fromAddress": "0x080bf510fcbf18b91105470639e9561022937712",
                    "gasUsed": 9760,
                    "id": 7,
                    "methodDecoded": true,
                    "operation": "STATICCALL",
                    "output": "0xb067138131d606f18b51e6ee32605a2acac5aad86d6a80011ed9cb2bab20c1c7",
                    "revert": false,
                    "revertMessage": "",
                    "selector": "0x1626ba7e",
                    "status": true,
                    "value": "0"
                },
                "nodeType": 0
            },
            "8": {
                "invocation": {
                    "address": "0x0000000000000000000000000000000000000001",
                    "callData": "0x32db8761a485e03b5536d7031ce794280225254d71988a052a6cab32000000000000000000000000000000000000000000000000000000000000001c310fcb7fd2d75e17fc632b46817d5d34886a5f85bcdc56ac48ab7a669872736c7ce813eaf54976415980d23d7c9e215b487cb607743f98b37de9aff01b9f5632",
                    "decodedMethod": {
                        "callParams": [
                            {
                                "name": "hash",
                                "type": "bytes32",
                                "value": "0xe7af910932db8761a485e03b5536d7031ce794280225254d71988a052a6cab32"
                            },
                            {
                                "name": "v",
                                "type": "uint256",
                                "value": "28"
                            },
                            {
                                "name": "r",
                                "type": "bytes32",
                                "value": "0x310fcb7fd2d75e17fc632b46817d5d34886a5f85bcdc56ac48ab7a669872736c"
                            },
                            {
                                "name": "s",
                                "type": "bytes32",
                                "value": "0x7ce813eaf54976415980d23d7c9e215b487cb607743f98b37de9aff01b9f5632"
                            }
                        ],
                        "constructorArguments": "",
                        "name": "ecrecover",
                        "returnParams": [
                            {
                                "name": "",
                                "type": "address",
                                "value": "0x3c7994b64fd5ef1de761dc9263ebb659decbedfa"
                            }
                        ],
                        "signature": "ecrecover(bytes32,uint256,bytes32,bytes32)"
                    },
                    "errorInfo": "",
                    "fromAddress": "0x41f8d14c9475444f30a80431c68cf24dc9a8369a",
                    "gasUsed": 3000,
                    "id": 8,
                    "methodDecoded": true,
                    "operation": "STATICCALL",
                    "output": "0x0000000000000000000000003c7994b64fd5ef1de761dc9263ebb659decbedfa",
                    "revert": false,
                    "revertMessage": "",
                    "selector": "0xe7af9109",
                    "status": true,
                    "value": "0"
                },
                "nodeType": 0
            },
            "9": {
                "invocation": {
                    "address": "0xdc6c91b569c98f9f6f74d90f9beff99fdaf4248b",
                    "callData": "0xde304600051bf36f8f40c8d0cfae249c358b3fffb93cd27a2f88eb25179662a0",
                    "decodedMethod": {
                        "callParams": [
                            {
                                "name": "",
                                "type": "bytes32",
                                "value": "0xde304600051bf36f8f40c8d0cfae249c358b3fffb93cd27a2f88eb25179662a0"
                            }
                        ],
                        "constructorArguments": "",
                        "name": "transactions",
                        "returnParams": [
                            {
                                "name": "",
                                "type": "address",
                                "value": "0x3c7994b64fd5ef1de761dc9263ebb659decbedfa"
                            }
                        ],
                        "signature": "transactions(bytes32)"
                    },
                    "errorInfo": "",
                    "fromAddress": "0x41f8d14c9475444f30a80431c68cf24dc9a8369a",
                    "gasUsed": 1559,
                    "id": 9,
                    "methodDecoded": true,
                    "operation": "CALL",
                    "output": "0x0000000000000000000000003c7994b64fd5ef1de761dc9263ebb659decbedfa",
                    "revert": false,
                    "revertMessage": "",
                    "selector": "0x642f2eaf",
                    "status": true,
                    "value": "0"
                },
                "nodeType": 0
            }
        },
        "gasFlame": [
            {
                "children": [
                    {
                        "children": [
                            {
                                "children": [],
                                "depth": 0,
                                "name": "Initial Gas",
                                "value": 30300
                            },
                            {
                                "children": [
                                    {
                                        "children": [],
                                        "depth": 1,
                                        "name": "isMarketMakerProxy",
                                        "value": 1566
                                    },
                                    {
                                        "children": [
                                            {
                                                "children": [
                                                    {
                                                        "children": [],
                                                        "depth": 3,
                                                        "name": "transferFrom",
                                                        "value": 26754
                                                    }
                                                ],
                                                "depth": 2,
                                                "name": "transferFrom",
                                                "value": 29542
                                            }
                                        ],
                                        "depth": 1,
                                        "name": "receiveToken",
                                        "value": 32543
                                    },
                                    {
                                        "children": [
                                            {
                                                "children": [
                                                    {
                                                        "children": [],
                                                        "depth": 3,
                                                        "name": "ecrecover",
                                                        "value": 3000
                                                    },
                                                    {
                                                        "children": [],
                                                        "depth": 3,
                                                        "name": "transactions",
                                                        "value": 1559
                                                    }
                                                ],
                                                "depth": 2,
                                                "name": "isValidSignature",
                                                "value": 9760
                                            },
                                            {
                                                "children": [
                                                    {
                                                        "children": [
                                                            {
                                                                "children": [],
                                                                "depth": 4,
                                                                "name": "ecrecover",
                                                                "value": 3000
                                                            }
                                                        ],
                                                        "depth": 3,
                                                        "name": "isValidSignature",
                                                        "value": 8488
                                                    },
                                                    {
                                                        "children": [
                                                            {
                                                                "children": [],
                                                                "depth": 4,
                                                                "name": "transferFrom",
                                                                "value": 20330
                                                            }
                                                        ],
                                                        "depth": 3,
                                                        "name": "transferFrom",
                                                        "value": 22384
                                                    },
                                                    {
                                                        "children": [
                                                            {
                                                                "children": [
                                                                    {
                                                                        "children": [],
                                                                        "depth": 5,
                                                                        "name": "transferFrom",
                                                                        "value": 22554
                                                                    }
                                                                ],
                                                                "depth": 4,
                                                                "name": "transferFrom",
                                                                "value": 25342
                                                            }
                                                        ],
                                                        "depth": 3,
                                                        "name": "transferFrom",
                                                        "value": 27396
                                                    }
                                                ],
                                                "depth": 2,
                                                "name": "fillOrKillOrder",
                                                "value": 134097
                                            }
                                        ],
                                        "depth": 1,
                                        "name": "executeTransaction",
                                        "value": 199014
                                    },
                                    {
                                        "children": [
                                            {
                                                "children": [],
                                                "depth": 2,
                                                "name": "transferFrom",
                                                "value": 16130
                                            }
                                        ],
                                        "depth": 1,
                                        "name": "sendToken",
                                        "value": 19106
                                    }
                                ],
                                "depth": 0,
                                "name": "Executed Gas",
                                "value": 305585
                            }
                        ],
                        "depth": -1,
                        "name": "Actual Gas Used",
                        "value": 293285
                    },
                    {
                        "children": [],
                        "depth": -1,
                        "name": "Refunded Gas",
                        "value": 42600
                    }
                ],
                "depth": -2,
                "name": "Total Gas",
                "value": 335885
            }
        ],
        "isConfirmed": true,
        "mainTrace": [
            {
                "children": [
                    {
                        "children": [
                            {
                                "children": [],
                                "depth": 1,
                                "id": 1,
                                "order": 1
                            },
                            {
                                "children": [
                                    {
                                        "children": [
                                            {
                                                "children": [
                                                    {
                                                        "children": [],
                                                        "depth": 4,
                                                        "id": 5,
                                                        "order": 5
                                                    }
                                                ],
                                                "depth": 3,
                                                "id": 4,
                                                "order": 4
                                            }
                                        ],
                                        "depth": 2,
                                        "id": 3,
                                        "order": 3
                                    }
                                ],
                                "depth": 1,
                                "id": 2,
                                "order": 2
                            },
                            {
                                "children": [
                                    {
                                        "children": [
                                            {
                                                "children": [],
                                                "depth": 3,
                                                "id": 8,
                                                "order": 8
                                            },
                                            {
                                                "children": [],
                                                "depth": 3,
                                                "id": 9,
                                                "order": 9
                                            }
                                        ],
                                        "depth": 2,
                                        "id": 7,
                                        "order": 7
                                    },
                                    {
                                        "children": [
                                            {
                                                "children": [
                                                    {
                                                        "children": [],
                                                        "depth": 4,
                                                        "id": 12,
                                                        "order": 12
                                                    }
                                                ],
                                                "depth": 3,
                                                "id": 11,
                                                "order": 11
                                            },
                                            {
                                                "children": [],
                                                "depth": 3,
                                                "id": 13,
                                                "order": 13
                                            },
                                            {
                                                "children": [
                                                    {
                                                        "children": [
                                                            {
                                                                "children": [],
                                                                "depth": 5,
                                                                "id": 16,
                                                                "order": 16
                                                            }
                                                        ],
                                                        "depth": 4,
                                                        "id": 15,
                                                        "order": 15
                                                    }
                                                ],
                                                "depth": 3,
                                                "id": 14,
                                                "order": 14
                                            },
                                            {
                                                "children": [
                                                    {
                                                        "children": [
                                                            {
                                                                "children": [
                                                                    {
                                                                        "children": [],
                                                                        "depth": 6,
                                                                        "id": 20,
                                                                        "order": 20
                                                                    }
                                                                ],
                                                                "depth": 5,
                                                                "id": 19,
                                                                "order": 19
                                                            }
                                                        ],
                                                        "depth": 4,
                                                        "id": 18,
                                                        "order": 18
                                                    }
                                                ],
                                                "depth": 3,
                                                "id": 17,
                                                "order": 17
                                            }
                                        ],
                                        "depth": 2,
                                        "id": 10,
                                        "order": 10
                                    }
                                ],
                                "depth": 1,
                                "id": 6,
                                "order": 6
                            },
                            {
                                "children": [
                                    {
                                        "children": [
                                            {
                                                "children": [],
                                                "depth": 3,
                                                "id": 23,
                                                "order": 23
                                            }
                                        ],
                                        "depth": 2,
                                        "id": 22,
                                        "order": 22
                                    }
                                ],
                                "depth": 1,
                                "id": 21,
                                "order": 21
                            },
                            {
                                "children": [],
                                "depth": 1,
                                "id": 24,
                                "order": 24
                            }
                        ],
                        "depth": 0,
                        "id": 0,
                        "order": 0
                    }
                ],
                "depth": -1,
                "id": -1,
                "order": -1
            }
        ],
        "mainTraceNodeCount": 25,
        "parentIdMap": {
            "0": -1,
            "1": 0,
            "10": 6,
            "11": 10,
            "12": 11,
            "13": 10,
            "14": 10,
            "15": 14,
            "16": 15,
            "17": 10,
            "18": 17,
            "19": 18,
            "2": 0,
            "20": 19,
            "21": 0,
            "22": 21,
            "23": 22,
            "24": 0,
            "3": 2,
            "4": 3,
            "5": 4,
            "6": 0,
            "7": 6,
            "8": 7,
            "9": 7
        },
        "tidyTrace": [
            {
                "children": [
                    {
                        "children": [
                            {
                                "children": [
                                    {
                                        "children": [
                                            {
                                                "children": [
                                                    {
                                                        "children": [],
                                                        "depth": 4,
                                                        "id": 5,
                                                        "order": 5
                                                    }
                                                ],
                                                "depth": 3,
                                                "id": 4,
                                                "order": 4
                                            }
                                        ],
                                        "depth": 2,
                                        "id": 3,
                                        "order": 3
                                    }
                                ],
                                "depth": 1,
                                "id": 2,
                                "order": 2
                            },
                            {
                                "children": [
                                    {
                                        "children": [
                                            {
                                                "children": [],
                                                "depth": 3,
                                                "id": 13,
                                                "order": 13
                                            },
                                            {
                                                "children": [
                                                    {
                                                        "children": [
                                                            {
                                                                "children": [],
                                                                "depth": 5,
                                                                "id": 16,
                                                                "order": 16
                                                            }
                                                        ],
                                                        "depth": 4,
                                                        "id": 15,
                                                        "order": 15
                                                    }
                                                ],
                                                "depth": 3,
                                                "id": 14,
                                                "order": 14
                                            },
                                            {
                                                "children": [
                                                    {
                                                        "children": [
                                                            {
                                                                "children": [
                                                                    {
                                                                        "children": [],
                                                                        "depth": 6,
                                                                        "id": 20,
                                                                        "order": 20
                                                                    }
                                                                ],
                                                                "depth": 5,
                                                                "id": 19,
                                                                "order": 19
                                                            }
                                                        ],
                                                        "depth": 4,
                                                        "id": 18,
                                                        "order": 18
                                                    }
                                                ],
                                                "depth": 3,
                                                "id": 17,
                                                "order": 17
                                            }
                                        ],
                                        "depth": 2,
                                        "id": 10,
                                        "order": 10
                                    }
                                ],
                                "depth": 1,
                                "id": 6,
                                "order": 6
                            },
                            {
                                "children": [
                                    {
                                        "children": [
                                            {
                                                "children": [],
                                                "depth": 3,
                                                "id": 23,
                                                "order": 23
                                            }
                                        ],
                                        "depth": 2,
                                        "id": 22,
                                        "order": 22
                                    }
                                ],
                                "depth": 1,
                                "id": 21,
                                "order": 21
                            },
                            {
                                "children": [],
                                "depth": 1,
                                "id": 24,
                                "order": 24
                            }
                        ],
                        "depth": 0,
                        "id": 0,
                        "order": 0
                    }
                ],
                "depth": -1,
                "id": -1,
                "order": -1
            }
        ],
        "tidyTraceNodeCount": 19
    },
    "state_change": {
        "stateChanges": [
            {
                "address": "0x080bf510fcbf18b91105470639e9561022937712",
                "erc": "",
                "slots": [
                    {
                        "current": "0x0000000000000000000000000000000000000000000000c139fca2ffda580000",
                        "key": "0x5aee7cf9ef145d0df30254183af62076dca4d5c11faee99e35a48cf09a44fe9e",
                        "prev": "0x0000000000000000000000000000000000000000000000000000000000000000"
                    },
                    {
                        "current": "0x0000000000000000000000000000000000000000000000000000000000000001",
                        "key": "0xcc9ad8f6a8b87158486010548427a0b4e5e762eccd572d4fcc6d30bd28222257",
                        "prev": "0x0000000000000000000000000000000000000000000000000000000000000000"
                    }
                ],
                "storageVariables": [
                    {
                        "name": "filled",
                        "type": "mapping(bytes32 => uint256)",
                        "value": {
                            "pairs": [
                                {
                                    "key": "0x4d51504aefbcee6ea6bb476eaf3bc18a02300b5414dcec2f5abadea157098cb5",
                                    "value": {
                                        "current": "3564400000000000000000",
                                        "prev": "0",
                                        "typeTag": 1
                                    }
                                }
                            ],
                            "typeTag": 4
                        }
                    },
                    {
                        "name": "transactions",
                        "type": "mapping(bytes32 => bool)",
                        "value": {
                            "pairs": [
                                {
                                    "key": "0xde304600051bf36f8f40c8d0cfae249c358b3fffb93cd27a2f88eb25179662a0",
                                    "value": {
                                        "current": "true",
                                        "prev": "false",
                                        "typeTag": 1
                                    }
                                }
                            ],
                            "typeTag": 4
                        }
                    }
                ]
            },
            {
                "address": "0x8e870d67f660d95d5be530380d0ec0bd388289e1",
                "erc": "ERC-20",
                "slots": [
                    {
                        "current": "0xffffffffffffffffffffffffffffffffffffffffffff1afbf8b9b293a55a4bff",
                        "key": "0xabb937e0f3ebcc1db3e2425f7fec45054f770ad318f243ff1b043d9f249276b2",
                        "prev": "0xffffffffffffffffffffffffffffffffffffffffffff1bbd32b655937fb24bff"
                    },
                    {
                        "current": "0x000000000000000000000000000000000000000000000000000ef01121c4b900",
                        "key": "0x8d59cab6a00c4c10479f47bef291fab7cd8fcccb91999966131a00c68b9a54fe",
                        "prev": "0x0000000000000000000000000000000000000000000000c13a0b9310fc1cb900"
                    },
                    {
                        "current": "0xffffffffffffffffffffffffffffffffffffffffffffff2e67f6ff1114cbffff",
                        "key": "0x2ad083cfeab8d983bcfc5794dd5511b514a16a4478c04f4af99cb1a60a86681c",
                        "prev": "0xffffffffffffffffffffffffffffffffffffffffffffffefa1f3a210ef23ffff"
                    },
                    {
                        "current": "0x0000000000000000000000000000000000000000000002dcd34f2b480c5fda00",
                        "key": "0xabe4d81f52cb92745884cbaded5021c2ca18c08868a700addb6049962d51c51d",
                        "prev": "0x00000000000000000000000000000000000000000000021b995288483207da00"
                    }
                ],
                "storageVariables": [
                    {
                        "name": "allowed",
                        "type": "mapping(address => mapping(address => uint256))",
                        "value": {
                            "pairs": [
                                {
                                    "key": "0x3c7994b64fd5ef1de761dc9263ebb659decbedfa",
                                    "value": {
                                        "pairs": [
                                            {
                                                "key": "0x41f8d14c9475444f30a80431c68cf24dc9a8369a",
                                                "value": {
                                                    "current": "115792089237316195423570985008687907853269984665640564035591259207913129639935",
                                                    "prev": "115792089237316195423570985008687907853269984665640564039155659207913129639935",
                                                    "typeTag": 1
                                                }
                                            }
                                        ],
                                        "typeTag": 4
                                    }
                                },
                                {
                                    "key": "0x41f8d14c9475444f30a80431c68cf24dc9a8369a",
                                    "value": {
                                        "pairs": [
                                            {
                                                "key": "0x95e6f48254609a6ee006f7d493c8e5fb97094cef",
                                                "value": {
                                                    "current": "115792089237316195423570985008687907853269984665640562957961348262935129639935",
                                                    "prev": "115792089237316195423570985008687907853269984665640562961525748262935129639935",
                                                    "typeTag": 1
                                                }
                                            }
                                        ],
                                        "typeTag": 4
                                    }
                                }
                            ],
                            "typeTag": 4
                        }
                    },
                    {
                        "name": "balances",
                        "type": "mapping(address => uint256)",
                        "value": {
                            "pairs": [
                                {
                                    "key": "0x3c7994b64fd5ef1de761dc9263ebb659decbedfa",
                                    "value": {
                                        "current": "4204606045600000",
                                        "prev": "3564404204606045600000",
                                        "typeTag": 1
                                    }
                                },
                                {
                                    "key": "0x7cd860672c477e4c312cdde6f922c51235caf52d",
                                    "value": {
                                        "current": "13518243098408999967232",
                                        "prev": "9953843098408999967232",
                                        "typeTag": 1
                                    }
                                }
                            ],
                            "typeTag": 4
                        }
                    }
                ]
            },
            {
                "address": "0xdac17f958d2ee523a2206206994597c13d831ec7",
                "erc": "ERC-20",
                "slots": [
                    {
                        "current": "0x0000000000000000000000000000000000000000000000000000000b1a8bd149",
                        "key": "0xb92b4fe4ed9f283ff765e4a25439a14cb0ccd46a7920abc238ecd915603ecf51",
                        "prev": "0x0000000000000000000000000000000000000000000000000000000b19e8feaf"
                    },
                    {
                        "current": "0x00000000000000000000000000000000000000000000000000000000d35f66b3",
                        "key": "0xbc63e9b279f81f308206baa51ac6a7f2052003a155ac27ca43a8e6999415cf04",
                        "prev": "0x000000000000000000000000000000000000000000000000000000000000003c"
                    },
                    {
                        "current": "0x000000000000000000000000000000000000000000000000000000176bd85b7b",
                        "key": "0x214586703c710a30604dbcfa4789313d9dae041a327f7447b6bb6d8483b15fe4",
                        "prev": "0x000000000000000000000000000000000000000000000000000000183fda948c"
                    }
                ],
                "storageVariables": [
                    {
                        "name": "balances",
                        "type": "mapping(address => uint256)",
                        "value": {
                            "pairs": [
                                {
                                    "key": "0x3c7994b64fd5ef1de761dc9263ebb659decbedfa",
                                    "value": {
                                        "current": "3546244787",
                                        "prev": "60",
                                        "typeTag": 1
                                    }
                                },
                                {
                                    "key": "0x41f8d14c9475444f30a80431c68cf24dc9a8369a",
                                    "value": {
                                        "current": "47690010953",
                                        "prev": "47679340207",
                                        "typeTag": 1
                                    }
                                },
                                {
                                    "key": "0x7cd860672c477e4c312cdde6f922c51235caf52d",
                                    "value": {
                                        "current": "100593589115",
                                        "prev": "104150504588",
                                        "typeTag": 1
                                    }
                                }
                            ],
                            "typeTag": 4
                        }
                    }
                ]
            },
            {
                "address": "0xdc6c91b569c98f9f6f74d90f9beff99fdaf4248b",
                "erc": "",
                "slots": [
                    {
                        "current": "0x0000000000000000000000003c7994b64fd5ef1de761dc9263ebb659decbedfa",
                        "key": "0xcefdfc977a33db24da2ba88c783bdd4e6533928efbb968a9c861d5f46a5dde0c",
                        "prev": "0x0000000000000000000000000000000000000000000000000000000000000000"
                    }
                ],
                "storageVariables": [
                    {
                        "name": "transactions",
                        "type": "mapping(bytes32 => address)",
                        "value": {
                            "pairs": [
                                {
                                    "key": "0xde304600051bf36f8f40c8d0cfae249c358b3fffb93cd27a2f88eb25179662a0",
                                    "value": {
                                        "current": "0x3c7994b64fd5ef1de761dc9263ebb659decbedfa",
                                        "prev": "0x0000000000000000000000000000000000000000",
                                        "typeTag": 1
                                    }
                                }
                            ],
                            "typeTag": 4
                        }
                    }
                ]
            }
        ]
    }
}