{
    "balance_change": {
        "balanceChanges": [
            {
                "account": "0x14c62dae973840512e89ba069250e3d43343d520",
                "assets": [
                    {
                        "address": "0xf80a824e2091a6c586a82e3c69ab8d59f4086a19",
                        "amount": "15,675",
                        "iconUrl": "",
                        "isERC1155": false,
                        "isERC721": false,
                        "sign": false,
                        "value": ""
                    }
                ]
            },
            {
                "account": "0x1527c2e7ebc25911455e893e220b64e3fd45ca11",
                "assets": [
                    {
                        "address": "0xf80a824e2091a6c586a82e3c69ab8d59f4086a19",
                        "amount": "15,675",
                        "iconUrl": "",
                        "isERC1155": false,
                        "isERC721": false,
                        "sign": true,
                        "value": ""
                    }
                ]
            }
        ]
    },
    "profile": {
        "basic_info": {
            "baseFee": "",
            "blockNumber": 9460938,
            "callData": "0xa9059cbb0000000000000000000000001527c2e7ebc25911455e893e220b64e3fd45ca11000000000000000000000000000000000000000000000351be52ea4a680c0000",
            "debugEnable": true,
            "errorInfo": "",
            "eventCount": 1,
            "feeRecipient": "0x9d6d492bd500da5b33cf95a5d610a73360fcaaa0",
            "formatValue": "0",
            "gasLimit": 116280,
            "gasPrice": "25",
            "gasUsed": 53570,
            "intTxnCount": 0,
            "internalRevert": false,
            "internalRevertMessage": "",
            "isContractCreation": false,
            "isFlashloan": false,
            "maxFee": "",
            "nonce": 2683,
            "overwritedBlockNumber": -1,
            "priorityFee": "",
            "receiver": "0xf80a824e2091a6c586a82e3c69ab8d59f4086a19",
            "revertMessage": "",
            "sender": "0x14c62dae973840512e89ba069250e3d43343d520",
            "simulationEnable": true,
            "sourceTxnHash": "0x4238cad238cd996b90ca9460e1018eb3e25f78c405f2b62c1bab1a04099620a5",
            "status": true,
            "timestamp": "2020-02-11T09:47:23Z",
            "transactionFee": "0.00133925",
            "txnHash": "0x4238cad238cd996b90ca9460e1018eb3e25f78c405f2b62c1bab1a04099620a5",
            "txnIndex": 39,
            "type": 0,
            "value": "0"
        },
        "fund_flow": [
            {
                "amount": "15,675",
                "from": "0x14c62dae973840512e89ba069250e3d43343d520",
                "id": 1,
                "isERC1155": false,
                "isERC721": false,
                "isReverted": false,
                "order": 1,
                "to": "0x1527c2e7ebc25911455e893e220b64e3fd45ca11",
                "token": "0xf80a824e2091a6c586a82e3c69ab8d59f4086a19"
            }
        ],
        "token_infos": [
            {
                "address": "0xc02aaa39b223fe8d0a0e5c4f27ead9083c756cc2",
                "decimals": 18
            },
            {
                "address": "0xf80a824e2091a6c586a82e3c69ab8d59f4086a19",
                "decimals": 18
            },
            {
                "address": "0xeeeeeeeeeeeeeeeeeeeeeeeeeeeeeeeeeeeeeeee",
                "decimals": 18
            }
        ]
    },
    "address_label": {
        "labels": [
            {
                "address": "0x0000000000000000000000000000000000000003",
                "label": "Precompiled"
            },
            {
                "address": "0x0000000000000000000000000000000000000004",
                "label": "Precompiled"
            },
            {
                "address": "0xeeeeeeeeeeeeeeeeeeeeeeeeeeeeeeeeeeeeeeee",
                "label": "Ether"
            },
            {
                "address": "0xf80a824e2091a6c586a82e3c69ab8d59f4086a19",
                "label": "AOX"
            },
            {
                "address": "0x0000000000000000000000000000000000000001",
                "label": "Precompiled"
            },
            {
                "address": "0x0000000000000000000000000000000000000002",
                "label": "Precompiled"
            }
        ]
    },
    "trace": {
        "accountLabels": null,
        "dataMap": {
            "-1": {
                "invocation": {
                    "address": "0x14c62dae973840512e89ba069250e3d43343d520",
                    "callData": "",
                    "decodedMethod": null,
                    "errorInfo": "",
                    "fromAddress": "",
                    "gasUsed": 0,
                    "id": -1,
                    "methodDecoded": false,
                    "operation": "",
                    "output": "",
                    "revert": false,
                    "revertMessage": "",
                    "selector": "",
                    "status": false,
                    "value": ""
                },
                "nodeType": 0
            },
            "0": {
                "invocation": {
                    "address": "0xf80a824e2091a6c586a82e3c69ab8d59f4086a19",
                    "callData": "0x0000000000000000000000001527c2e7ebc25911455e893e220b64e3fd45ca11000000000000000000000000000000000000000000000351be52ea4a680c0000",
                    "decodedMethod": {
                        "callParams": [
                            {
                                "name": "_to",
                                "type": "address",
                                "value": "0x1527c2e7ebc25911455e893e220b64e3fd45ca11"
                            },
                            {
                                "decimalAvailable": true,
                                "name": "_value",
                                "type": "uint256",
                                "value": "15,675,000,000,000,000,000,000"
                            }
                        ],
                        "constructorArguments": "",
                        "name": "transfer",
                        "returnParams": [
                            {
                                "name": "success",
                                "type": "bool",
                                "value": true
                            }
                        ],
                        "signature": "transfer(address,uint256)"
                    },
                    "errorInfo": "",
                    "fromAddress": "0x14c62dae973840512e89ba069250e3d43343d520",
                    "gasUsed": 53570,
                    "id": 0,
                    "methodDecoded": true,
                    "operation": "CALL",
                    "output": "0x0000000000000000000000000000000000000000000000000000000000000001",
                    "revert": false,
                    "revertMessage": "",
                    "selector": "0xa9059cbb",
                    "status": true,
                    "value": "0"
                },
                "nodeType": 0
            },
            "1": {
                "event": {
                    "contract": "0xf80a824e2091a6c586a82e3c69ab8d59f4086a19",
                    "decodedLog": {
                        "name": "Transfer",
                        "params": [
                            {
                                "name": "from",
                                "type": "address",
                                "value": "0x14c62dae973840512e89ba069250e3d43343d520"
                            },
                            {
                                "name": "to",
                                "type": "address",
                                "value": "0x1527c2e7ebc25911455e893e220b64e3fd45ca11"
                            },
                            {
                                "decimalAvailable": true,
                                "name": "value",
                                "type": "uint256",
                                "value": "15,675,000,000,000,000,000,000"
                            }
                        ],
                        "signature": "Transfer(address,address,uint256)"
                    },
                    "id": 1,
                    "logData": "0x000000000000000000000000000000000000000000000351be52ea4a680c0000",
                    "logDecoded": true,
                    "operation": "EVENT",
                    "revert": false,
                    "status": true,
                    "topics": [
                        "0xddf252ad1be2c89b69c2b068fc378daa952ba7f163c4a11628f55a4df523b3ef",
                        "0x00000000000000000000000014c62dae973840512e89ba069250e3d43343d520",
                        "0x0000000000000000000000001527c2e7ebc25911455e893e220b64e3fd45ca11"
                    ]
                },
                "nodeType": 1
            }
        },
        "gasFlame": [
            {
                "children": [
                    {
                        "children": [
                            {
                                "children": [],
                                "depth": 0,
                                "name": "Initial Gas",
                                "value": 21656
                            },
                            {
                                "children": [],
                                "depth": 0,
                                "name": "Executed Gas",
                                "value": 31914
                            }
                        ],
                        "depth": -1,
                        "name": "Actual Gas Used",
                        "value": 53570
                    },
                    {
                        "children": [],
                        "depth": -1,
                        "name": "Refunded Gas",
                        "value": 0
                    }
                ],
                "depth": -2,
                "name": "Total Gas",
                "value": 53570
            }
        ],
        "isConfirmed": true,
        "mainTrace": [
            {
                "children": [
                    {
                        "children": [
                            {
                                "children": [],
                                "depth": 1,
                                "id": 1,
                                "order": 1
                            }
                        ],
                        "depth": 0,
                        "id": 0,
                        "order": 0
                    }
                ],
                "depth": -1,
                "id": -1,
                "order": -1
            }
        ],
        "mainTraceNodeCount": 2,
        "parentIdMap": {
            "0": -1,
            "1": 0
        },
        "tidyTrace": [
            {
                "children": [
                    {
                        "children": [
                            {
                                "children": [],
                                "depth": 1,
                                "id": 1,
                                "order": 1
                            }
                        ],
                        "depth": 0,
                        "id": 0,
                        "order": 0
                    }
                ],
                "depth": -1,
                "id": -1,
                "order": -1
            }
        ],
        "tidyTraceNodeCount": 2
    },
    "state_change": {
        "stateChanges": [
            {
                "address": "0xf80a824e2091a6c586a82e3c69ab8d59f4086a19",
                "erc": "",
                "slots": [
                    {
                        "current": "0x00000000000000000000000000000000000000000001554f0b6a4d1375f9b000",
                        "key": "0xcf34163f6467920b44ebb75dd7d3fc7774b0051550f857ca89fc69dd07eef95f",
                        "prev": "0x0000000000000000000000000000000000000000000158a0c9bd375dde05b000"
                    },
                    {
                        "current": "0x000000000000000000000000000000000000000000000351be52ea4a680c0000",
                        "key": "0x092ca7f3e728192f508f72e67f3a00c33cfe0793e681a7022d041715b7609c48",
                        "prev": "0x0000000000000000000000000000000000000000000000000000000000000000"
                    }
                ],
                "storageVariables": [
                    {
                        "name": "balanceOf",
                        "type": "mapping(address => uint256)",
                        "value": {
                            "pairs": [
                                {
                                    "key": "0x14c62dae973840512e89ba069250e3d43343d520",
                                    "value": {
                                        "current": "1611785085995000000000000",
                                        "prev": "1627460085995000000000000",
                                        "typeTag": 1
                                    }
                                },
                                {
                                    "key": "0x1527c2e7ebc25911455e893e220b64e3fd45ca11",
                                    "value": {
                                        "current": "15675000000000000000000",
                                        "prev": "0",
                                        "typeTag": 1
                                    }
                                }
                            ],
                            "typeTag": 4
                        }
                    }
                ]
            }
        ]
    }
}