{
    "balance_change": {
        "balanceChanges": [
            {
                "account": "0x9e2a589ec56166a150737fe3d7590071bfb80f67",
                "assets": [
                    {
                        "address": "0x0bb217e40f8a5cb79adf04e1aab60e5abd0dfc1e",
                        "amount": "7,446,857.33",
                        "iconUrl": "https://assets.blocksec.com/icon/af8bcb27696fd970c041f52f0616dbd0b9b8a024e966122beb7e9b051657ad82.png",
                        "isERC1155": false,
                        "isERC721": false,
                        "sign": false,
                        "value": "6702.1715969999998164"
                    }
                ]
            },
            {
                "account": "0xa9d1e08c7793af67e9d92fe308d5697fb81d3e43",
                "assets": [
                    {
                        "address": "0x0bb217e40f8a5cb79adf04e1aab60e5abd0dfc1e",
                        "amount": "7,446,857.33",
                        "iconUrl": "https://assets.blocksec.com/icon/af8bcb27696fd970c041f52f0616dbd0b9b8a024e966122beb7e9b051657ad82.png",
                        "isERC1155": false,
                        "isERC721": false,
                        "sign": true,
                        "value": "6702.1715969999998164"
                    }
                ]
            }
        ]
    },
    "profile": {
        "basic_info": {
            "baseFee": "84.353008045",
            "blockNumber": 17205490,
            "callData": "0xa9059cbb000000000000000000000000a9d1e08c7793af67e9d92fe308d5697fb81d3e430000000000000000000000000000000000000000000000000002a549a895b340",
            "debugEnable": true,
            "errorInfo": "",
            "eventCount": 1,
            "feeRecipient": "0x690b9a9e9aa1c9db991c7721a92d351db4fac990",
            "formatValue": "0",
            "gasLimit": 37086,
            "gasPrice": "85.353008045",
            "gasUsed": 32286,
            "intTxnCount": 0,
            "internalRevert": false,
            "internalRevertMessage": "",
            "isContractCreation": false,
            "isFlashloan": false,
            "maxFee": "134.5",
            "nonce": 77,
            "overwritedBlockNumber": -1,
            "priorityFee": "1",
            "receiver": "0x0bb217e40f8a5cb79adf04e1aab60e5abd0dfc1e",
            "revertMessage": "",
            "sender": "0x9e2a589ec56166a150737fe3d7590071bfb80f67",
            "simulationEnable": true,
            "sourceTxnHash": "0x423083ef72195b1e6489ae1c5ab0c884568736600b7f11ddce17522efc457ac9",
            "status": true,
            "timestamp": "2023-05-07T01:45:11Z",
            "transactionFee": "0.00275570721774087",
            "txnHash": "0x423083ef72195b1e6489ae1c5ab0c884568736600b7f11ddce17522efc457ac9",
            "txnIndex": 78,
            "type": 2,
            "value": "0"
        },
        "fund_flow": [
            {
                "amount": "7,446,857.33",
                "from": "0x9e2a589ec56166a150737fe3d7590071bfb80f67",
                "id": 1,
                "isERC1155": false,
                "isERC721": false,
                "isReverted": false,
                "order": 1,
                "to": "0xa9d1e08c7793af67e9d92fe308d5697fb81d3e43",
                "token": "0x0bb217e40f8a5cb79adf04e1aab60e5abd0dfc1e"
            }
        ],
        "token_infos": [
            {
                "address": "0x0bb217e40f8a5cb79adf04e1aab60e5abd0dfc1e",
                "decimals": 8
            },
            {
                "address": "0xc02aaa39b223fe8d0a0e5c4f27ead9083c756cc2",
                "decimals": 18
            },
            {
                "address": "0xeeeeeeeeeeeeeeeeeeeeeeeeeeeeeeeeeeeeeeee",
                "decimals": 18
            }
        ]
    },
    "address_label": {
        "labels": [
            {
                "address": "0xeeeeeeeeeeeeeeeeeeeeeeeeeeeeeeeeeeeeeeee",
                "label": "Ether"
            },
            {
                "address": "0xa9d1e08c7793af67e9d92fe308d5697fb81d3e43",
                "label": "Coinbase 10"
            },
            {
                "address": "0x0bb217e40f8a5cb79adf04e1aab60e5abd0dfc1e",
                "label": "Swft Coin"
            },
            {
                "address": "0x0000000000000000000000000000000000000001",
                "label": "Precompiled"
            },
            {
                "address": "0x0000000000000000000000000000000000000002",
                "label": "Precompiled"
            },
            {
                "address": "0x0000000000000000000000000000000000000003",
                "label": "Precompiled"
            },
            {
                "address": "0x0000000000000000000000000000000000000004",
                "label": "Precompiled"
            }
        ]
    },
    "trace": {
        "accountLabels": null,
        "dataMap": {
            "-1": {
                "invocation": {
                    "address": "0x9e2a589ec56166a150737fe3d7590071bfb80f67",
                    "callData": "",
                    "decodedMethod": null,
                    "errorInfo": "",
                    "fromAddress": "",
                    "gasUsed": 0,
                    "id": -1,
                    "methodDecoded": false,
                    "operation": "",
                    "output": "",
                    "revert": false,
                    "revertMessage": "",
                    "selector": "",
                    "status": false,
                    "value": ""
                },
                "nodeType": 0
            },
            "0": {
                "invocation": {
                    "address": "0x0bb217e40f8a5cb79adf04e1aab60e5abd0dfc1e",
                    "callData": "0x000000000000000000000000a9d1e08c7793af67e9d92fe308d5697fb81d3e430000000000000000000000000000000000000000000000000002a549a895b340",
                    "decodedMethod": {
                        "callParams": [
                            {
                                "name": "_to",
                                "type": "address",
                                "value": "0xa9d1e08c7793af67e9d92fe308d5697fb81d3e43"
                            },
                            {
                                "decimalAvailable": true,
                                "name": "_value",
                                "type": "uint256",
                                "value": "744,685,733,000,000"
                            }
                        ],
                        "constructorArguments": "",
                        "name": "transfer",
                        "returnParams": [],
                        "signature": "transfer(address,uint256)"
                    },
                    "errorInfo": "",
                    "fromAddress": "0x9e2a589ec56166a150737fe3d7590071bfb80f67",
                    "gasUsed": 32286,
                    "id": 0,
                    "methodDecoded": true,
                    "operation": "CALL",
                    "output": "",
                    "revert": false,
                    "revertMessage": "",
                    "selector": "0xa9059cbb",
                    "status": true,
                    "value": "0"
                },
                "nodeType": 0
            },
            "1": {
                "event": {
                    "contract": "0x0bb217e40f8a5cb79adf04e1aab60e5abd0dfc1e",
                    "decodedLog": {
                        "name": "Transfer",
                        "params": [
                            {
                                "name": "from",
                                "type": "address",
                                "value": "0x9e2a589ec56166a150737fe3d7590071bfb80f67"
                            },
                            {
                                "name": "to",
                                "type": "address",
                                "value": "0xa9d1e08c7793af67e9d92fe308d5697fb81d3e43"
                            },
                            {
                                "decimalAvailable": true,
                                "name": "value",
                                "type": "uint256",
                                "value": "744,685,733,000,000"
                            }
                        ],
                        "signature": "Transfer(address,address,uint256)"
                    },
                    "id": 1,
                    "logData": "0x0000000000000000000000000000000000000000000000000002a549a895b340",
                    "logDecoded": true,
                    "operation": "EVENT",
                    "revert": false,
                    "status": true,
                    "topics": [
                        "0xddf252ad1be2c89b69c2b068fc378daa952ba7f163c4a11628f55a4df523b3ef",
                        "0x0000000000000000000000009e2a589ec56166a150737fe3d7590071bfb80f67",
                        "0x000000000000000000000000a9d1e08c7793af67e9d92fe308d5697fb81d3e43"
                    ]
                },
                "nodeType": 1
            }
        },
        "gasFlame": [
            {
                "children": [
                    {
                        "children": [
                            {
                                "children": [],
                                "depth": 0,
                                "name": "Initial Gas",
                                "value": 21644
                            },
                            {
                                "children": [],
                                "depth": 0,
                                "name": "Executed Gas",
                                "value": 15442
                            }
                        ],
                        "depth": -1,
                        "name": "Actual Gas Used",
                        "value": 32286
                    },
                    {
                        "children": [],
                        "depth": -1,
                        "name": "Refunded Gas",
                        "value": 4800
                    }
                ],
                "depth": -2,
                "name": "Total Gas",
                "value": 37086
            }
        ],
        "isConfirmed": true,
        "mainTrace": [
            {
                "children": [
                    {
                        "children": [
                            {
                                "children": [],
                                "depth": 1,
                                "id": 1,
                                "order": 1
                            }
                        ],
                        "depth": 0,
                        "id": 0,
                        "order": 0
                    }
                ],
                "depth": -1,
                "id": -1,
                "order": -1
            }
        ],
        "mainTraceNodeCount": 2,
        "parentIdMap": {
            "0": -1,
            "1": 0
        },
        "tidyTrace": [
            {
                "children": [
                    {
                        "children": [
                            {
                                "children": [],
                                "depth": 1,
                                "id": 1,
                                "order": 1
                            }
                        ],
                        "depth": 0,
                        "id": 0,
                        "order": 0
                    }
                ],
                "depth": -1,
                "id": -1,
                "order": -1
            }
        ],
        "tidyTraceNodeCount": 2
    },
    "state_change": {
        "stateChanges": [
            {
                "address": "0x0bb217e40f8a5cb79adf04e1aab60e5abd0dfc1e",
                "erc": "",
                "slots": [
                    {
                        "current": "0x0000000000000000000000000000000000000000000000000000000000000000",
                        "key": "0xeefcd4207cd18f37838ab3b2e822f7b726024748e98474fffdc0c1a425682939",
                        "prev": "0x0000000000000000000000000000000000000000000000000002a549a895b340"
                    },
                    {
                        "current": "0x000000000000000000000000000000000000000000000000005a9f26fd1210a4",
                        "key": "0xaa6ecc73df4aa0d0157af61fa21e157467d27c80988aaa33b0c5e9b31ddfa0d9",
                        "prev": "0x0000000000000000000000000000000000000000000000000057f9dd547c5d64"
                    }
                ],
                "storageVariables": []
            }
        ]
    }
}