{
    "balance_change": {
        "balanceChanges": [
            {
                "account": "0x2d9aabce98203ffa2e74e6d44b327ebcd8a39691",
                "assets": [
                    {
                        "address": "0xeeeeeeeeeeeeeeeeeeeeeeeeeeeeeeeeeeeeeeee",
                        "amount": "0.0000225",
                        "iconUrl": "https://assets.blocksec.com/image/1663669189317-3.png",
                        "isERC1155": false,
                        "isERC721": false,
                        "sign": false,
                        "value": "0.08112119"
                    },
                    {
                        "address": "0xc072c3ebaf165955c5aad2dbb4293f771de6dbd3",
                        "amount": "9",
                        "iconUrl": "",
                        "isERC1155": false,
                        "isERC721": false,
                        "sign": true,
                        "value": ""
                    }
                ]
            },
            {
                "account": "0xc072c3ebaf165955c5aad2dbb4293f771de6dbd3",
                "assets": [
                    {
                        "address": "0xeeeeeeeeeeeeeeeeeeeeeeeeeeeeeeeeeeeeeeee",
                        "amount": "0.0000225",
                        "iconUrl": "https://assets.blocksec.com/image/1663669189317-3.png",
                        "isERC1155": false,
                        "isERC721": false,
                        "sign": true,
                        "value": "0.08112119"
                    }
                ]
            },
            {
                "account": "0x0000000000000000000000000000000000000000",
                "assets": [
                    {
                        "address": "0xc072c3ebaf165955c5aad2dbb4293f771de6dbd3",
                        "amount": "9",
                        "iconUrl": "",
                        "isERC1155": false,
                        "isERC721": false,
                        "sign": false,
                        "value": ""
                    }
                ]
            }
        ]
    },
    "profile": {
        "basic_info": {
            "baseFee": "18.748912584",
            "blockNumber": 19553359,
            "callData": "0x40c10f190000000000000000000000002d9aabce98203ffa2e74e6d44b327ebcd8a396910000000000000000000000000000000000000000000000000000000000000009",
            "debugEnable": true,
            "errorInfo": "",
            "eventCount": 1,
            "feeRecipient": "0x801c3cf25d7c06204d7c24357f2b6a49b66f1003",
            "formatValue": "0.0000225",
            "gasLimit": 54774,
            "gasPrice": "18.788099753",
            "gasUsed": 53977,
            "intTxnCount": 0,
            "internalRevert": false,
            "internalRevertMessage": "",
            "isContractCreation": false,
            "isFlashloan": false,
            "maxFee": "21.65437247",
            "nonce": 2,
            "overwritedBlockNumber": -1,
            "priorityFee": "0.039187169",
            "receiver": "0xc072c3ebaf165955c5aad2dbb4293f771de6dbd3",
            "revertMessage": "",
            "sender": "0x2d9aabce98203ffa2e74e6d44b327ebcd8a39691",
            "simulationEnable": true,
            "sourceTxnHash": "0x42b536249ee5a7a4128383e91cdb8e33f9a78e9edcab4b8fe480af1261d16bd8",
            "status": true,
            "timestamp": "2024-03-31T10:43:35Z",
            "transactionFee": "0.001014125260367681",
            "txnHash": "0x42b536249ee5a7a4128383e91cdb8e33f9a78e9edcab4b8fe480af1261d16bd8",
            "txnIndex": 91,
            "type": 2,
            "value": "22500000000000"
        },
        "fund_flow": [
            {
                "amount": "0.0000225",
                "from": "0x2d9aabce98203ffa2e74e6d44b327ebcd8a39691",
                "id": 1,
                "isERC1155": false,
                "isERC721": false,
                "isReverted": false,
                "order": 1,
                "to": "0xc072c3ebaf165955c5aad2dbb4293f771de6dbd3",
                "token": "0xeeeeeeeeeeeeeeeeeeeeeeeeeeeeeeeeeeeeeeee"
            },
            {
                "amount": "9",
                "from": "0x0000000000000000000000000000000000000000",
                "id": 2,
                "isERC1155": false,
                "isERC721": false,
                "isReverted": false,
                "order": 2,
                "to": "0x2d9aabce98203ffa2e74e6d44b327ebcd8a39691",
                "token": "0xc072c3ebaf165955c5aad2dbb4293f771de6dbd3"
            }
        ],
        "token_infos": [
            {
                "address": "0xc02aaa39b223fe8d0a0e5c4f27ead9083c756cc2",
                "decimals": 18
            },
            {
                "address": "0xc072c3ebaf165955c5aad2dbb4293f771de6dbd3",
                "decimals": 18
            },
            {
                "address": "0xeeeeeeeeeeeeeeeeeeeeeeeeeeeeeeeeeeeeeeee",
                "decimals": 18
            }
        ]
    },
    "address_label": {
        "labels": [
            {
                "address": "0xc072c3ebaf165955c5aad2dbb4293f771de6dbd3",
                "label": "Merkly OFT (MERK)"
            },
            {
                "address": "0x0000000000000000000000000000000000000001",
                "label": "Precompiled"
            },
            {
                "address": "0x0000000000000000000000000000000000000002",
                "label": "Precompiled"
            },
            {
                "address": "0x0000000000000000000000000000000000000003",
                "label": "Precompiled"
            },
            {
                "address": "0x0000000000000000000000000000000000000004",
                "label": "Precompiled"
            },
            {
                "address": "0xeeeeeeeeeeeeeeeeeeeeeeeeeeeeeeeeeeeeeeee",
                "label": "Ether"
            }
        ]
    },
    "trace": {
        "accountLabels": null,
        "dataMap": {
            "-1": {
                "invocation": {
                    "address": "0x2d9aabce98203ffa2e74e6d44b327ebcd8a39691",
                    "callData": "",
                    "decodedMethod": null,
                    "errorInfo": "",
                    "fromAddress": "",
                    "gasUsed": 0,
                    "id": -1,
                    "methodDecoded": false,
                    "operation": "",
                    "output": "",
                    "revert": false,
                    "revertMessage": "",
                    "selector": "",
                    "status": false,
                    "value": ""
                },
                "nodeType": 0
            },
            "0": {
                "invocation": {
                    "address": "0xc072c3ebaf165955c5aad2dbb4293f771de6dbd3",
                    "callData": "0x0000000000000000000000002d9aabce98203ffa2e74e6d44b327ebcd8a396910000000000000000000000000000000000000000000000000000000000000009",
                    "decodedMethod": {
                        "callParams": [
                            {
                                "name": "_to",
                                "type": "address",
                                "value": "0x2d9aabce98203ffa2e74e6d44b327ebcd8a39691"
                            },
                            {
                                "name": "_amount",
                                "type": "uint256",
                                "value": "9"
                            }
                        ],
                        "constructorArguments": "",
                        "name": "mint",
                        "returnParams": [],
                        "signature": "mint(address,uint256)"
                    },
                    "errorInfo": "",
                    "fromAddress": "0x2d9aabce98203ffa2e74e6d44b327ebcd8a39691",
                    "gasUsed": 53977,
                    "id": 0,
                    "methodDecoded": true,
                    "operation": "CALL",
                    "output": "",
                    "revert": false,
                    "revertMessage": "",
                    "selector": "0x40c10f19",
                    "status": true,
                    "value": "0.0000225"
                },
                "nodeType": 0
            },
            "1": {
                "event": {
                    "contract": "0xc072c3ebaf165955c5aad2dbb4293f771de6dbd3",
                    "decodedLog": {
                        "name": "Transfer",
                        "params": [
                            {
                                "name": "from",
                                "type": "address",
                                "value": "0x0000000000000000000000000000000000000000"
                            },
                            {
                                "name": "to",
                                "type": "address",
                                "value": "0x2d9aabce98203ffa2e74e6d44b327ebcd8a39691"
                            },
                            {
                                "decimalAvailable": true,
                                "name": "value",
                                "type": "uint256",
                                "value": "9,000,000,000,000,000,000"
                            }
                        ],
                        "signature": "Transfer(address,address,uint256)"
                    },
                    "id": 1,
                    "logData": "0x0000000000000000000000000000000000000000000000007ce66c50e2840000",
                    "logDecoded": true,
                    "operation": "EVENT",
                    "revert": false,
                    "status": true,
                    "topics": [
                        "0xddf252ad1be2c89b69c2b068fc378daa952ba7f163c4a11628f55a4df523b3ef",
                        "0x0000000000000000000000000000000000000000000000000000000000000000",
                        "0x0000000000000000000000002d9aabce98203ffa2e74e6d44b327ebcd8a39691"
                    ]
                },
                "nodeType": 1
            }
        },
        "gasFlame": [
            {
                "children": [
                    {
                        "children": [
                            {
                                "children": [],
                                "depth": 0,
                                "name": "Initial Gas",
                                "value": 21572
                            },
                            {
                                "children": [],
                                "depth": 0,
                                "name": "Executed Gas",
                                "value": 32405
                            }
                        ],
                        "depth": -1,
                        "name": "Actual Gas Used",
                        "value": 53977
                    },
                    {
                        "children": [],
                        "depth": -1,
                        "name": "Refunded Gas",
                        "value": 0
                    }
                ],
                "depth": -2,
                "name": "Total Gas",
                "value": 53977
            }
        ],
        "isConfirmed": true,
        "mainTrace": [
            {
                "children": [
                    {
                        "children": [
                            {
                                "children": [],
                                "depth": 1,
                                "id": 1,
                                "order": 1
                            }
                        ],
                        "depth": 0,
                        "id": 0,
                        "order": 0
                    }
                ],
                "depth": -1,
                "id": -1,
                "order": -1
            }
        ],
        "mainTraceNodeCount": 2,
        "parentIdMap": {
            "0": -1,
            "1": 0
        },
        "tidyTrace": [
            {
                "children": [
                    {
                        "children": [
                            {
                                "children": [],
                                "depth": 1,
                                "id": 1,
                                "order": 1
                            }
                        ],
                        "depth": 0,
                        "id": 0,
                        "order": 0
                    }
                ],
                "depth": -1,
                "id": -1,
                "order": -1
            }
        ],
        "tidyTraceNodeCount": 2
    },
    "state_change": {
        "stateChanges": [
            {
                "address": "0xc072c3ebaf165955c5aad2dbb4293f771de6dbd3",
                "erc": "",
                "slots": [
                    {
                        "current": "0x000000000000000000000000000000000000000000000b0ffd834b51cda40000",
                        "key": "0x0000000000000000000000000000000000000000000000000000000000000009",
                        "prev": "0x000000000000000000000000000000000000000000000b0f809cdf00eb200000"
                    },
                    {
                        "current": "0x0000000000000000000000000000000000000000000000007ce66c50e2840000",
                        "key": "0xd8bb0162f19c824700d7c4e1d5073613aa894e76b903cbfe453c0967c38d4ebc",
                        "prev": "0x0000000000000000000000000000000000000000000000000000000000000000"
                    }
                ],
                "storageVariables": []
            }
        ]
    }
}