{
    "balance_change": {
        "balanceChanges": []
    },
    "profile": {
        "basic_info": {
            "baseFee": "",
            "blockNumber": 8867614,
            "callData": "0x4ab0d1904e07f4d3d0abbb4fec2c1c770501be31a8618f90fb5af0b1209c04cb9a8284c900000000000000000000000000000000000000000000000004a03ce68d21555500000000000000000000000079febf6b9f76853edbcbc913e6aae8232cfb9de96a9705b400000000000000000000000000000000000000000000000000000000000000000000000000000000000000000000000000000000000000005dbf4cb800000000000000000000000000000000000000000000000000000004339c7e30",
            "debugEnable": true,
            "errorInfo": "",
            "eventCount": 3,
            "feeRecipient": "0x829bd824b016326a401d083b33d092293333a830",
            "formatValue": "0",
            "gasLimit": 500000,
            "gasPrice": "11",
            "gasUsed": 90398,
            "intTxnCount": 1,
            "internalRevert": false,
            "internalRevertMessage": "",
            "isContractCreation": false,
            "isFlashloan": false,
            "maxFee": "",
            "nonce": 38958,
            "overwritedBlockNumber": -1,
            "priorityFee": "",
            "receiver": "0xf5a3d443fccd7ee567000e43b23b0e98d96445ce",
            "revertMessage": "",
            "sender": "0x0699a397c3cf614c9a7db23a4be28fc4c8f3a755",
            "simulationEnable": true,
            "sourceTxnHash": "0x4345faf308a67dda25aaa8a78614511272f4508088795d5631dff350c0b4c2f8",
            "status": true,
            "timestamp": "2019-11-03T21:50:22Z",
            "transactionFee": "0.000994378",
            "txnHash": "0x4345faf308a67dda25aaa8a78614511272f4508088795d5631dff350c0b4c2f8",
            "txnIndex": 36,
            "type": 0,
            "value": "0"
        },
        "fund_flow": [],
        "token_infos": [
            {
                "address": "0xc02aaa39b223fe8d0a0e5c4f27ead9083c756cc2",
                "decimals": 18
            },
            {
                "address": "0xeeeeeeeeeeeeeeeeeeeeeeeeeeeeeeeeeeeeeeee",
                "decimals": 18
            }
        ]
    },
    "address_label": {
        "labels": [
            {
                "address": "0x79febf6b9f76853edbcbc913e6aae8232cfb9de9",
                "label": "Chainlink: Aggregator"
            },
            {
                "address": "0xf5a3d443fccd7ee567000e43b23b0e98d96445ce",
                "label": "Oracle"
            },
            {
                "address": "0x0000000000000000000000000000000000000001",
                "label": "Precompiled"
            },
            {
                "address": "0x0000000000000000000000000000000000000002",
                "label": "Precompiled"
            },
            {
                "address": "0x0000000000000000000000000000000000000003",
                "label": "Precompiled"
            },
            {
                "address": "0x0000000000000000000000000000000000000004",
                "label": "Precompiled"
            },
            {
                "address": "0xeeeeeeeeeeeeeeeeeeeeeeeeeeeeeeeeeeeeeeee",
                "label": "Ether"
            }
        ]
    },
    "trace": {
        "accountLabels": null,
        "dataMap": {
            "-1": {
                "invocation": {
                    "address": "0x0699a397c3cf614c9a7db23a4be28fc4c8f3a755",
                    "callData": "",
                    "decodedMethod": null,
                    "errorInfo": "",
                    "fromAddress": "",
                    "gasUsed": 0,
                    "id": -1,
                    "methodDecoded": false,
                    "operation": "",
                    "output": "",
                    "revert": false,
                    "revertMessage": "",
                    "selector": "",
                    "status": false,
                    "value": ""
                },
                "nodeType": 0
            },
            "0": {
                "invocation": {
                    "address": "0xf5a3d443fccd7ee567000e43b23b0e98d96445ce",
                    "callData": "0x4e07f4d3d0abbb4fec2c1c770501be31a8618f90fb5af0b1209c04cb9a8284c900000000000000000000000000000000000000000000000004a03ce68d21555500000000000000000000000079febf6b9f76853edbcbc913e6aae8232cfb9de96a9705b400000000000000000000000000000000000000000000000000000000000000000000000000000000000000000000000000000000000000005dbf4cb800000000000000000000000000000000000000000000000000000004339c7e30",
                    "decodedMethod": {
                        "callParams": [
                            {
                                "name": "_requestId",
                                "type": "bytes32",
                                "value": "0x4e07f4d3d0abbb4fec2c1c770501be31a8618f90fb5af0b1209c04cb9a8284c9"
                            },
                            {
                                "name": "_payment",
                                "type": "uint256",
                                "value": "333,333,333,333,333,333"
                            },
                            {
                                "name": "_callbackAddress",
                                "type": "address",
                                "value": "0x79febf6b9f76853edbcbc913e6aae8232cfb9de9"
                            },
                            {
                                "name": "_callbackFunctionId",
                                "type": "bytes4",
                                "value": "0x6a9705b4"
                            },
                            {
                                "name": "_expiration",
                                "type": "uint256",
                                "value": "1,572,818,104"
                            },
                            {
                                "name": "_data",
                                "type": "bytes32",
                                "value": "0x00000000000000000000000000000000000000000000000000000004339c7e30"
                            }
                        ],
                        "constructorArguments": "",
                        "name": "fulfillOracleRequest",
                        "returnParams": [
                            {
                                "name": "",
                                "type": "bool",
                                "value": true
                            }
                        ],
                        "signature": "fulfillOracleRequest(bytes32,uint256,address,bytes4,uint256,bytes32)"
                    },
                    "errorInfo": "",
                    "fromAddress": "0x0699a397c3cf614c9a7db23a4be28fc4c8f3a755",
                    "gasUsed": 90398,
                    "id": 0,
                    "methodDecoded": true,
                    "operation": "CALL",
                    "output": "0x0000000000000000000000000000000000000000000000000000000000000001",
                    "revert": false,
                    "revertMessage": "",
                    "selector": "0x4ab0d190",
                    "status": true,
                    "value": "0"
                },
                "nodeType": 0
            },
            "1": {
                "invocation": {
                    "address": "0x79febf6b9f76853edbcbc913e6aae8232cfb9de9",
                    "callData": "0x4e07f4d3d0abbb4fec2c1c770501be31a8618f90fb5af0b1209c04cb9a8284c900000000000000000000000000000000000000000000000000000004339c7e30",
                    "decodedMethod": {
                        "callParams": [
                            {
                                "name": "_clRequestId",
                                "type": "bytes32",
                                "value": "0x4e07f4d3d0abbb4fec2c1c770501be31a8618f90fb5af0b1209c04cb9a8284c9"
                            },
                            {
                                "name": "_response",
                                "type": "int256",
                                "value": "18,045,763,120"
                            }
                        ],
                        "constructorArguments": "",
                        "name": "chainlinkCallback",
                        "returnParams": [],
                        "signature": "chainlinkCallback(bytes32,int256)"
                    },
                    "errorInfo": "",
                    "fromAddress": "0xf5a3d443fccd7ee567000e43b23b0e98d96445ce",
                    "gasUsed": 95280,
                    "id": 1,
                    "methodDecoded": true,
                    "operation": "CALL",
                    "output": "",
                    "revert": false,
                    "revertMessage": "",
                    "selector": "0x6a9705b4",
                    "status": true,
                    "value": "0"
                },
                "nodeType": 0
            },
            "2": {
                "event": {
                    "contract": "0x79febf6b9f76853edbcbc913e6aae8232cfb9de9",
                    "decodedLog": {
                        "name": "ChainlinkFulfilled",
                        "params": [
                            {
                                "name": "id",
                                "type": "bytes32",
                                "value": "0x4e07f4d3d0abbb4fec2c1c770501be31a8618f90fb5af0b1209c04cb9a8284c9"
                            }
                        ],
                        "signature": "ChainlinkFulfilled(bytes32)"
                    },
                    "id": 2,
                    "logData": "0x",
                    "logDecoded": true,
                    "operation": "EVENT",
                    "revert": false,
                    "status": true,
                    "topics": [
                        "0x7cc135e0cebb02c3480ae5d74d377283180a2601f8f644edf7987b009316c63a",
                        "0x4e07f4d3d0abbb4fec2c1c770501be31a8618f90fb5af0b1209c04cb9a8284c9"
                    ]
                },
                "nodeType": 1
            },
            "3": {
                "event": {
                    "contract": "0x79febf6b9f76853edbcbc913e6aae8232cfb9de9",
                    "decodedLog": {
                        "name": "ResponseReceived",
                        "params": [
                            {
                                "name": "response",
                                "type": "int256",
                                "value": "18,045,763,120"
                            },
                            {
                                "name": "answerId",
                                "type": "uint256",
                                "value": "45,314"
                            },
                            {
                                "name": "sender",
                                "type": "address",
                                "value": "0xf5a3d443fccd7ee567000e43b23b0e98d96445ce"
                            }
                        ],
                        "signature": "ResponseReceived(int256,uint256,address)"
                    },
                    "id": 3,
                    "logData": "0x",
                    "logDecoded": true,
                    "operation": "EVENT",
                    "revert": false,
                    "status": true,
                    "topics": [
                        "0xb51168059c83c860caf5b830c5d2e64c2172c6fb2fe9f25447d9838e18d93b60",
                        "0x00000000000000000000000000000000000000000000000000000004339c7e30",
                        "0x000000000000000000000000000000000000000000000000000000000000b102",
                        "0x000000000000000000000000f5a3d443fccd7ee567000e43b23b0e98d96445ce"
                    ]
                },
                "nodeType": 1
            },
            "4": {
                "event": {
                    "contract": "0x79febf6b9f76853edbcbc913e6aae8232cfb9de9",
                    "decodedLog": {
                        "name": "AnswerUpdated",
                        "params": [
                            {
                                "name": "current",
                                "type": "int256",
                                "value": "18,009,851,125"
                            },
                            {
                                "name": "answerId",
                                "type": "uint256",
                                "value": "45,314"
                            }
                        ],
                        "signature": "AnswerUpdated(int256,uint256)"
                    },
                    "id": 4,
                    "logData": "0x",
                    "logDecoded": true,
                    "operation": "EVENT",
                    "revert": false,
                    "status": true,
                    "topics": [
                        "0xc379d0e412d8792cf238c6c045bafec46b2bdad53a28ee4abce236ac6145ae84",
                        "0x00000000000000000000000000000000000000000000000000000004317884f5",
                        "0x000000000000000000000000000000000000000000000000000000000000b102"
                    ]
                },
                "nodeType": 1
            }
        },
        "gasFlame": [
            {
                "children": [
                    {
                        "children": [
                            {
                                "children": [],
                                "depth": 0,
                                "name": "Initial Gas",
                                "value": 26712
                            },
                            {
                                "children": [
                                    {
                                        "children": [],
                                        "depth": 1,
                                        "name": "chainlinkCallback",
                                        "value": 95280
                                    }
                                ],
                                "depth": 0,
                                "name": "Executed Gas",
                                "value": 108686
                            }
                        ],
                        "depth": -1,
                        "name": "Actual Gas Used",
                        "value": 90398
                    },
                    {
                        "children": [],
                        "depth": -1,
                        "name": "Refunded Gas",
                        "value": 45000
                    }
                ],
                "depth": -2,
                "name": "Total Gas",
                "value": 135398
            }
        ],
        "isConfirmed": true,
        "mainTrace": [
            {
                "children": [
                    {
                        "children": [
                            {
                                "children": [
                                    {
                                        "children": [],
                                        "depth": 2,
                                        "id": 2,
                                        "order": 2
                                    },
                                    {
                                        "children": [],
                                        "depth": 2,
                                        "id": 3,
                                        "order": 3
                                    },
                                    {
                                        "children": [],
                                        "depth": 2,
                                        "id": 4,
                                        "order": 4
                                    }
                                ],
                                "depth": 1,
                                "id": 1,
                                "order": 1
                            }
                        ],
                        "depth": 0,
                        "id": 0,
                        "order": 0
                    }
                ],
                "depth": -1,
                "id": -1,
                "order": -1
            }
        ],
        "mainTraceNodeCount": 5,
        "parentIdMap": {
            "0": -1,
            "1": 0,
            "2": 1,
            "3": 1,
            "4": 1
        },
        "tidyTrace": [
            {
                "children": [
                    {
                        "children": [
                            {
                                "children": [
                                    {
                                        "children": [],
                                        "depth": 2,
                                        "id": 2,
                                        "order": 2
                                    },
                                    {
                                        "children": [],
                                        "depth": 2,
                                        "id": 3,
                                        "order": 3
                                    },
                                    {
                                        "children": [],
                                        "depth": 2,
                                        "id": 4,
                                        "order": 4
                                    }
                                ],
                                "depth": 1,
                                "id": 1,
                                "order": 1
                            }
                        ],
                        "depth": 0,
                        "id": 0,
                        "order": 0
                    }
                ],
                "depth": -1,
                "id": -1,
                "order": -1
            }
        ],
        "tidyTraceNodeCount": 5
    },
    "state_change": {
        "stateChanges": [
            {
                "address": "0x79febf6b9f76853edbcbc913e6aae8232cfb9de9",
                "erc": "",
                "slots": [
                    {
                        "current": "0x000000000000000000000000000000000000000000000000000000000000b102",
                        "key": "0x0000000000000000000000000000000000000000000000000000000000000008",
                        "prev": "0x000000000000000000000000000000000000000000000000000000000000b101"
                    },
                    {
                        "current": "0x0000000000000000000000000000000000000000000000000000000000874f1e",
                        "key": "0x0000000000000000000000000000000000000000000000000000000000000009",
                        "prev": "0x0000000000000000000000000000000000000000000000000000000000874f07"
                    },
                    {
                        "current": "0x0000000000000000000000000000000000000000000000000000000000000000",
                        "key": "0x546bd4fc5c12d3d6926f6640cf2e84996bb012ddb54005aaafc7370010f0e574",
                        "prev": "0x000000000000000000000000f5a3d443fccd7ee567000e43b23b0e98d96445ce"
                    },
                    {
                        "current": "0x0000000000000000000000000000000000000000000000000000000000000000",
                        "key": "0x128701e474e4ac76c5d8ac44bfea6db2d3d8114bee2a9ea8b6426acf3843673b",
                        "prev": "0x000000000000000000000000000000000000000000000000000000000000b102"
                    },
                    {
                        "current": "0x000000000000000000000000000000000000000000000000000000000000000e",
                        "key": "0x5bb7154e6bfbcd4b1802aa5f38344d5fbefe6c5e6dfb9a5d16dd64f0ed9e8592",
                        "prev": "0x000000000000000000000000000000000000000000000000000000000000000d"
                    },
                    {
                        "current": "0x00000000000000000000000000000000000000000000000000000004339c7e30",
                        "key": "0xc717af0266d709e6da698bc7e44a05f614de1d40b727740c7587c46fb57c59c3",
                        "prev": "0x0000000000000000000000000000000000000000000000000000000000000000"
                    },
                    {
                        "current": "0x00000000000000000000000000000000000000000000000000000004317884f5",
                        "key": "0x0000000000000000000000000000000000000000000000000000000000000007",
                        "prev": "0x0000000000000000000000000000000000000000000000000000000433370654"
                    }
                ],
                "storageVariables": [
                    {
                        "name": "answers",
                        "type": "mapping(uint256 => struct Aggregator.Answer)",
                        "value": {
                            "pairs": [
                                {
                                    "key": "45314",
                                    "value": {
                                        "fields": [
                                            {
                                                "name": "responses",
                                                "type": "int256[]",
                                                "value": {
                                                    "elemType": "int256",
                                                    "elems": [
                                                        {
                                                            "index": 13,
                                                            "value": {
                                                                "current": "18045763120",
                                                                "prev": "0",
                                                                "typeTag": 1
                                                            }
                                                        }
                                                    ],
                                                    "typeTag": 2
                                                }
                                            }
                                        ],
                                        "typeTag": 3
                                    }
                                }
                            ],
                            "typeTag": 4
                        }
                    },
                    {
                        "name": "currentAnswer",
                        "type": "int256",
                        "value": {
                            "current": "18009851125",
                            "prev": "18039113300",
                            "typeTag": 1
                        }
                    },
                    {
                        "name": "latestCompletedAnswer",
                        "type": "uint256",
                        "value": {
                            "current": "45314",
                            "prev": "45313",
                            "typeTag": 1
                        }
                    },
                    {
                        "name": "updatedHeight",
                        "type": "uint256",
                        "value": {
                            "current": "8867614",
                            "prev": "8867591",
                            "typeTag": 1
                        }
                    },
                    {
                        "name": "pendingRequests",
                        "type": "mapping(bytes32 => address)",
                        "value": {
                            "pairs": [
                                {
                                    "key": "0x4e07f4d3d0abbb4fec2c1c770501be31a8618f90fb5af0b1209c04cb9a8284c9",
                                    "value": {
                                        "current": "0x0000000000000000000000000000000000000000",
                                        "prev": "0xf5a3d443fccd7ee567000e43b23b0e98d96445ce",
                                        "typeTag": 1
                                    }
                                }
                            ],
                            "typeTag": 4
                        }
                    },
                    {
                        "name": "requestAnswers",
                        "type": "mapping(bytes32 => uint256)",
                        "value": {
                            "pairs": [
                                {
                                    "key": "0x4e07f4d3d0abbb4fec2c1c770501be31a8618f90fb5af0b1209c04cb9a8284c9",
                                    "value": {
                                        "current": "0",
                                        "prev": "45314",
                                        "typeTag": 1
                                    }
                                }
                            ],
                            "typeTag": 4
                        }
                    }
                ]
            },
            {
                "address": "0xf5a3d443fccd7ee567000e43b23b0e98d96445ce",
                "erc": "",
                "slots": [
                    {
                        "current": "0x000000000000000000000000000000000000000000000019a8d1ced6d4e553b7",
                        "key": "0x0000000000000000000000000000000000000000000000000000000000000004",
                        "prev": "0x000000000000000000000000000000000000000000000019a43191f047c3fe62"
                    },
                    {
                        "current": "0x0000000000000000000000000000000000000000000000000000000000000000",
                        "key": "0x2c7bb68a8222ddd2d58c12d24f72d54a8d708130d22560f90cb426e9d0fab709",
                        "prev": "0xf2341ac7ca7e13cbad6bda3c9a124ec42ec71ccb007d4fc9b2eeb764380a5418"
                    }
                ],
                "storageVariables": [
                    {
                        "name": "commitments",
                        "type": "mapping(bytes32 => bytes32)",
                        "value": {
                            "pairs": [
                                {
                                    "key": "0x4e07f4d3d0abbb4fec2c1c770501be31a8618f90fb5af0b1209c04cb9a8284c9",
                                    "value": {
                                        "current": "0x0000000000000000000000000000000000000000000000000000000000000000",
                                        "prev": "0xf2341ac7ca7e13cbad6bda3c9a124ec42ec71ccb007d4fc9b2eeb764380a5418",
                                        "typeTag": 1
                                    }
                                }
                            ],
                            "typeTag": 4
                        }
                    },
                    {
                        "name": "withdrawableTokens",
                        "type": "uint256",
                        "value": {
                            "current": "473333333333333332919",
                            "prev": "472999999999999999586",
                            "typeTag": 1
                        }
                    }
                ]
            }
        ]
    }
}