{
    "balance_change": {
        "balanceChanges": [
            {
                "account": "0x2b8cd4c64a4a6f1aa5fccbc4393577649e9d68a2",
                "assets": [
                    {
                        "address": "0xec53bf9167f50cdeb3ae105f56099aaab9061f83",
                        "amount": "194.208823837761883624",
                        "iconUrl": "",
                        "isERC1155": false,
                        "isERC721": false,
                        "sign": false,
                        "value": ""
                    }
                ]
            },
            {
                "account": "0xacb55c530acdb2849e6d4f36992cd8c9d50ed8f7",
                "assets": [
                    {
                        "address": "0x83e9115d334d248ce39a6f36144aeab5b3456e75",
                        "amount": "194.208823837761883624",
                        "iconUrl": "",
                        "isERC1155": false,
                        "isERC721": false,
                        "sign": true,
                        "value": ""
                    }
                ]
            },
            {
                "account": "0xec53bf9167f50cdeb3ae105f56099aaab9061f83",
                "assets": [
                    {
                        "address": "0xec53bf9167f50cdeb3ae105f56099aaab9061f83",
                        "amount": "194.208823837761883624",
                        "iconUrl": "",
                        "isERC1155": false,
                        "isERC721": false,
                        "sign": true,
                        "value": ""
                    },
                    {
                        "address": "0x83e9115d334d248ce39a6f36144aeab5b3456e75",
                        "amount": "194.208823837761883624",
                        "iconUrl": "",
                        "isERC1155": false,
                        "isERC721": false,
                        "sign": false,
                        "value": ""
                    }
                ]
            }
        ]
    },
    "profile": {
        "basic_info": {
            "baseFee": "4.35197877",
            "blockNumber": 19891955,
            "callData": "0xe7a050aa000000000000000000000000acb55c530acdb2849e6d4f36992cd8c9d50ed8f7000000000000000000000000ec53bf9167f50cdeb3ae105f56099aaab9061f8300000000000000000000000000000000000000000000000a8730585168364de8",
            "debugEnable": true,
            "errorInfo": "",
            "eventCount": 6,
            "feeRecipient": "0x95222290dd7278aa3ddd389cc1e1d165cc4bafe5",
            "formatValue": "0",
            "gasLimit": 369453,
            "gasPrice": "4.41861653",
            "gasUsed": 207854,
            "intTxnCount": 13,
            "internalRevert": false,
            "internalRevertMessage": "",
            "isContractCreation": false,
            "isFlashloan": false,
            "maxFee": "6.211002847",
            "nonce": 17,
            "overwritedBlockNumber": -1,
            "priorityFee": "0.06663776",
            "receiver": "0x858646372cc42e1a627fce94aa7a7033e7cf075a",
            "revertMessage": "",
            "sender": "0x2b8cd4c64a4a6f1aa5fccbc4393577649e9d68a2",
            "simulationEnable": true,
            "sourceTxnHash": "0x4306a8306db19c957082fb92733f3457b98355a87394991e97a476c9a9119040",
            "status": true,
            "timestamp": "2024-05-17T20:05:11Z",
            "transactionFee": "0.00091842712022662",
            "txnHash": "0x4306a8306db19c957082fb92733f3457b98355a87394991e97a476c9a9119040",
            "txnIndex": 144,
            "type": 2,
            "value": "0"
        },
        "fund_flow": [
            {
                "amount": "194.208823837761883624",
                "from": "0x2b8cd4c64a4a6f1aa5fccbc4393577649e9d68a2",
                "id": 1,
                "isERC1155": false,
                "isERC721": false,
                "isReverted": false,
                "order": 1,
                "to": "0xacb55c530acdb2849e6d4f36992cd8c9d50ed8f7",
                "token": "0xec53bf9167f50cdeb3ae105f56099aaab9061f83"
            },
            {
                "amount": "194.208823837761883624",
                "from": "0xacb55c530acdb2849e6d4f36992cd8c9d50ed8f7",
                "id": 2,
                "isERC1155": false,
                "isERC721": false,
                "isReverted": false,
                "order": 2,
                "to": "0xec53bf9167f50cdeb3ae105f56099aaab9061f83",
                "token": "0xec53bf9167f50cdeb3ae105f56099aaab9061f83"
            },
            {
                "amount": "194.208823837761883624",
                "from": "0xec53bf9167f50cdeb3ae105f56099aaab9061f83",
                "id": 3,
                "isERC1155": false,
                "isERC721": false,
                "isReverted": false,
                "order": 3,
                "to": "0xacb55c530acdb2849e6d4f36992cd8c9d50ed8f7",
                "token": "0x83e9115d334d248ce39a6f36144aeab5b3456e75"
            }
        ],
        "token_infos": [
            {
                "address": "0x83e9115d334d248ce39a6f36144aeab5b3456e75",
                "decimals": 18
            },
            {
                "address": "0xc02aaa39b223fe8d0a0e5c4f27ead9083c756cc2",
                "decimals": 18
            },
            {
                "address": "0xec53bf9167f50cdeb3ae105f56099aaab9061f83",
                "decimals": 18
            },
            {
                "address": "0xeeeeeeeeeeeeeeeeeeeeeeeeeeeeeeeeeeeeeeee",
                "decimals": 18
            }
        ]
    },
    "address_label": {
        "labels": [
            {
                "address": "0xec53bf9167f50cdeb3ae105f56099aaab9061f83",
                "label": "EigenLayer: EIGEN Token"
            },
            {
                "address": "0xacb55c530acdb2849e6d4f36992cd8c9d50ed8f7",
                "label": "TransparentUpgradeableProxy"
            },
            {
                "address": "0x1784be6401339fc0fedf7e9379409f5c1bfe9dda",
                "label": "DelegationManager"
            },
            {
                "address": "0x0000000000000000000000000000000000000002",
                "label": "Precompiled"
            },
            {
                "address": "0x70f44c13944d49a236e3cd7a94f48f5dab6c619b",
                "label": "StrategyManager"
            },
            {
                "address": "0x0000000000000000000000000000000000000001",
                "label": "Precompiled"
            },
            {
                "address": "0x0000000000000000000000000000000000000004",
                "label": "Precompiled"
            },
            {
                "address": "0xeeeeeeeeeeeeeeeeeeeeeeeeeeeeeeeeeeeeeeee",
                "label": "Ether"
            },
            {
                "address": "0x83e9115d334d248ce39a6f36144aeab5b3456e75",
                "label": "EigenLayer: bEIGEN Token"
            },
            {
                "address": "0x858646372cc42e1a627fce94aa7a7033e7cf075a",
                "label": "EigenLayer: Strategy Manager"
            },
            {
                "address": "0x39053d51b77dc0d36036fc1fcc8cb819df8ef37a",
                "label": "EigenLayer: Delegation"
            },
            {
                "address": "0x7ec354c84680112d3cff1544ec1eb19ca583700b",
                "label": "Eigen"
            },
            {
                "address": "0xb91c69af3ee022bd0a59da082945914bfdceffe3",
                "label": "BackingEigen"
            },
            {
                "address": "0x27e7a3a81741b9fcc5ad7edcbf9f8a72a5c00428",
                "label": "EigenStrategy"
            },
            {
                "address": "0x0000000000000000000000000000000000000003",
                "label": "Precompiled"
            }
        ]
    },
    "trace": {
        "accountLabels": null,
        "dataMap": {
            "-1": {
                "invocation": {
                    "address": "0x2b8cd4c64a4a6f1aa5fccbc4393577649e9d68a2",
                    "callData": "",
                    "decodedMethod": null,
                    "errorInfo": "",
                    "fromAddress": "",
                    "gasUsed": 0,
                    "id": -1,
                    "methodDecoded": false,
                    "operation": "",
                    "output": "",
                    "revert": false,
                    "revertMessage": "",
                    "selector": "",
                    "status": false,
                    "value": ""
                },
                "nodeType": 0
            },
            "0": {
                "invocation": {
                    "address": "0x858646372cc42e1a627fce94aa7a7033e7cf075a",
                    "callData": "0x000000000000000000000000acb55c530acdb2849e6d4f36992cd8c9d50ed8f7000000000000000000000000ec53bf9167f50cdeb3ae105f56099aaab9061f8300000000000000000000000000000000000000000000000a8730585168364de8",
                    "decodedMethod": {
                        "callParams": [
                            {
                                "name": "strategy",
                                "type": "address",
                                "value": "0xacb55c530acdb2849e6d4f36992cd8c9d50ed8f7"
                            },
                            {
                                "name": "token",
                                "type": "address",
                                "value": "0xec53bf9167f50cdeb3ae105f56099aaab9061f83"
                            },
                            {
                                "name": "amount",
                                "type": "uint256",
                                "value": "194,208,823,837,761,883,624"
                            }
                        ],
                        "constructorArguments": "",
                        "name": "depositIntoStrategy",
                        "returnParams": [
                            {
                                "name": "shares",
                                "type": "uint256",
                                "value": "194,208,823,837,761,883,624"
                            }
                        ],
                        "signature": "depositIntoStrategy(address,address,uint256)"
                    },
                    "errorInfo": "",
                    "fromAddress": "0x2b8cd4c64a4a6f1aa5fccbc4393577649e9d68a2",
                    "gasUsed": 207854,
                    "id": 0,
                    "methodDecoded": true,
                    "operation": "CALL",
                    "output": "0x00000000000000000000000000000000000000000000000a8730585168364de8",
                    "revert": false,
                    "revertMessage": "",
                    "selector": "0xe7a050aa",
                    "status": true,
                    "value": "0"
                },
                "nodeType": 0
            },
            "1": {
                "invocation": {
                    "address": "0x70f44c13944d49a236e3cd7a94f48f5dab6c619b",
                    "callData": "0x000000000000000000000000acb55c530acdb2849e6d4f36992cd8c9d50ed8f7000000000000000000000000ec53bf9167f50cdeb3ae105f56099aaab9061f8300000000000000000000000000000000000000000000000a8730585168364de8",
                    "decodedMethod": {
                        "callParams": [
                            {
                                "name": "strategy",
                                "type": "address",
                                "value": "0xacb55c530acdb2849e6d4f36992cd8c9d50ed8f7"
                            },
                            {
                                "name": "token",
                                "type": "address",
                                "value": "0xec53bf9167f50cdeb3ae105f56099aaab9061f83"
                            },
                            {
                                "name": "amount",
                                "type": "uint256",
                                "value": "194,208,823,837,761,883,624"
                            }
                        ],
                        "constructorArguments": "",
                        "name": "depositIntoStrategy",
                        "returnParams": [
                            {
                                "name": "shares",
                                "type": "uint256",
                                "value": "194,208,823,837,761,883,624"
                            }
                        ],
                        "signature": "depositIntoStrategy(address,address,uint256)"
                    },
                    "errorInfo": "",
                    "fromAddress": "0x858646372cc42e1a627fce94aa7a7033e7cf075a",
                    "gasUsed": 210790,
                    "id": 1,
                    "methodDecoded": true,
                    "operation": "DELEGATECALL",
                    "output": "0x00000000000000000000000000000000000000000000000a8730585168364de8",
                    "revert": false,
                    "revertMessage": "",
                    "selector": "0xe7a050aa",
                    "status": true,
                    "value": "0"
                },
                "nodeType": 0
            },
            "10": {
                "event": {
                    "contract": "0xec53bf9167f50cdeb3ae105f56099aaab9061f83",
                    "decodedLog": {
                        "name": "Transfer",
                        "params": [
                            {
                                "name": "from",
                                "type": "address",
                                "value": "0xacb55c530acdb2849e6d4f36992cd8c9d50ed8f7"
                            },
                            {
                                "name": "to",
                                "type": "address",
                                "value": "0xec53bf9167f50cdeb3ae105f56099aaab9061f83"
                            },
                            {
                                "decimalAvailable": true,
                                "name": "value",
                                "type": "uint256",
                                "value": "194,208,823,837,761,883,624"
                            }
                        ],
                        "signature": "Transfer(address,address,uint256)"
                    },
                    "id": 10,
                    "logData": "0x00000000000000000000000000000000000000000000000a8730585168364de8",
                    "logDecoded": true,
                    "operation": "EVENT",
                    "revert": false,
                    "status": true,
                    "topics": [
                        "0xddf252ad1be2c89b69c2b068fc378daa952ba7f163c4a11628f55a4df523b3ef",
                        "0x000000000000000000000000acb55c530acdb2849e6d4f36992cd8c9d50ed8f7",
                        "0x000000000000000000000000ec53bf9167f50cdeb3ae105f56099aaab9061f83"
                    ]
                },
                "nodeType": 1
            },
            "11": {
                "invocation": {
                    "address": "0x83e9115d334d248ce39a6f36144aeab5b3456e75",
                    "callData": "0x000000000000000000000000acb55c530acdb2849e6d4f36992cd8c9d50ed8f700000000000000000000000000000000000000000000000a8730585168364de8",
                    "decodedMethod": {
                        "callParams": [
                            {
                                "name": "to",
                                "type": "address",
                                "value": "0xacb55c530acdb2849e6d4f36992cd8c9d50ed8f7"
                            },
                            {
                                "decimalAvailable": true,
                                "name": "amount",
                                "type": "uint256",
                                "value": "194,208,823,837,761,883,624"
                            }
                        ],
                        "constructorArguments": "",
                        "name": "transfer",
                        "returnParams": [
                            {
                                "name": "",
                                "type": "bool",
                                "value": true
                            }
                        ],
                        "signature": "transfer(address,uint256)"
                    },
                    "errorInfo": "",
                    "fromAddress": "0xec53bf9167f50cdeb3ae105f56099aaab9061f83",
                    "gasUsed": 28863,
                    "id": 11,
                    "methodDecoded": true,
                    "operation": "CALL",
                    "output": "0x0000000000000000000000000000000000000000000000000000000000000001",
                    "revert": false,
                    "revertMessage": "",
                    "selector": "0xa9059cbb",
                    "status": true,
                    "value": "0"
                },
                "nodeType": 0
            },
            "12": {
                "invocation": {
                    "address": "0xb91c69af3ee022bd0a59da082945914bfdceffe3",
                    "callData": "0x000000000000000000000000acb55c530acdb2849e6d4f36992cd8c9d50ed8f700000000000000000000000000000000000000000000000a8730585168364de8",
                    "decodedMethod": {
                        "callParams": [
                            {
                                "name": "to",
                                "type": "address",
                                "value": "0xacb55c530acdb2849e6d4f36992cd8c9d50ed8f7"
                            },
                            {
                                "decimalAvailable": true,
                                "name": "amount",
                                "type": "uint256",
                                "value": "194,208,823,837,761,883,624"
                            }
                        ],
                        "constructorArguments": "",
                        "name": "transfer",
                        "returnParams": [
                            {
                                "name": "",
                                "type": "bool",
                                "value": true
                            }
                        ],
                        "signature": "transfer(address,uint256)"
                    },
                    "errorInfo": "",
                    "fromAddress": "0x83e9115d334d248ce39a6f36144aeab5b3456e75",
                    "gasUsed": 21700,
                    "id": 12,
                    "methodDecoded": true,
                    "operation": "DELEGATECALL",
                    "output": "0x0000000000000000000000000000000000000000000000000000000000000001",
                    "revert": false,
                    "revertMessage": "",
                    "selector": "0xa9059cbb",
                    "status": true,
                    "value": "0"
                },
                "nodeType": 0
            },
            "13": {
                "event": {
                    "contract": "0x83e9115d334d248ce39a6f36144aeab5b3456e75",
                    "decodedLog": {
                        "name": "Transfer",
                        "params": [
                            {
                                "name": "from",
                                "type": "address",
                                "value": "0xec53bf9167f50cdeb3ae105f56099aaab9061f83"
                            },
                            {
                                "name": "to",
                                "type": "address",
                                "value": "0xacb55c530acdb2849e6d4f36992cd8c9d50ed8f7"
                            },
                            {
                                "decimalAvailable": true,
                                "name": "value",
                                "type": "uint256",
                                "value": "194,208,823,837,761,883,624"
                            }
                        ],
                        "signature": "Transfer(address,address,uint256)"
                    },
                    "id": 13,
                    "logData": "0x00000000000000000000000000000000000000000000000a8730585168364de8",
                    "logDecoded": true,
                    "operation": "EVENT",
                    "revert": false,
                    "status": true,
                    "topics": [
                        "0xddf252ad1be2c89b69c2b068fc378daa952ba7f163c4a11628f55a4df523b3ef",
                        "0x000000000000000000000000ec53bf9167f50cdeb3ae105f56099aaab9061f83",
                        "0x000000000000000000000000acb55c530acdb2849e6d4f36992cd8c9d50ed8f7"
                    ]
                },
                "nodeType": 1
            },
            "14": {
                "invocation": {
                    "address": "0x83e9115d334d248ce39a6f36144aeab5b3456e75",
                    "callData": "0x000000000000000000000000acb55c530acdb2849e6d4f36992cd8c9d50ed8f7",
                    "decodedMethod": {
                        "callParams": [
                            {
                                "name": "account",
                                "type": "address",
                                "value": "0xacb55c530acdb2849e6d4f36992cd8c9d50ed8f7"
                            }
                        ],
                        "constructorArguments": "",
                        "name": "balanceOf",
                        "returnParams": [
                            {
                                "decimalAvailable": true,
                                "name": "",
                                "type": "uint256",
                                "value": "54,976,195,935,600,660,811,202,368"
                            }
                        ],
                        "signature": "balanceOf(address)"
                    },
                    "errorInfo": "",
                    "fromAddress": "0xacb55c530acdb2849e6d4f36992cd8c9d50ed8f7",
                    "gasUsed": 1264,
                    "id": 14,
                    "methodDecoded": true,
                    "operation": "STATICCALL",
                    "output": "0x0000000000000000000000000000000000000000002d79a98dacd3314871bf40",
                    "revert": false,
                    "revertMessage": "",
                    "selector": "0x70a08231",
                    "status": true,
                    "value": "0"
                },
                "nodeType": 0
            },
            "15": {
                "invocation": {
                    "address": "0xb91c69af3ee022bd0a59da082945914bfdceffe3",
                    "callData": "0x000000000000000000000000acb55c530acdb2849e6d4f36992cd8c9d50ed8f7",
                    "decodedMethod": {
                        "callParams": [
                            {
                                "name": "account",
                                "type": "address",
                                "value": "0xacb55c530acdb2849e6d4f36992cd8c9d50ed8f7"
                            }
                        ],
                        "constructorArguments": "",
                        "name": "balanceOf",
                        "returnParams": [
                            {
                                "decimalAvailable": true,
                                "name": "",
                                "type": "uint256",
                                "value": "54,976,195,935,600,660,811,202,368"
                            }
                        ],
                        "signature": "balanceOf(address)"
                    },
                    "errorInfo": "",
                    "fromAddress": "0x83e9115d334d248ce39a6f36144aeab5b3456e75",
                    "gasUsed": 604,
                    "id": 15,
                    "methodDecoded": true,
                    "operation": "DELEGATECALL",
                    "output": "0x0000000000000000000000000000000000000000002d79a98dacd3314871bf40",
                    "revert": false,
                    "revertMessage": "",
                    "selector": "0x70a08231",
                    "status": true,
                    "value": "0"
                },
                "nodeType": 0
            },
            "16": {
                "event": {
                    "contract": "0x858646372cc42e1a627fce94aa7a7033e7cf075a",
                    "decodedLog": {
                        "name": "Deposit",
                        "params": [
                            {
                                "name": "staker",
                                "type": "address",
                                "value": "0x2b8cd4c64a4a6f1aa5fccbc4393577649e9d68a2"
                            },
                            {
                                "name": "token",
                                "type": "address",
                                "value": "0xec53bf9167f50cdeb3ae105f56099aaab9061f83"
                            },
                            {
                                "name": "strategy",
                                "type": "address",
                                "value": "0xacb55c530acdb2849e6d4f36992cd8c9d50ed8f7"
                            },
                            {
                                "name": "shares",
                                "type": "uint256",
                                "value": "194,208,823,837,761,883,624"
                            }
                        ],
                        "signature": "Deposit(address,address,address,uint256)"
                    },
                    "id": 16,
                    "logData": "0x0000000000000000000000002b8cd4c64a4a6f1aa5fccbc4393577649e9d68a2000000000000000000000000ec53bf9167f50cdeb3ae105f56099aaab9061f83000000000000000000000000acb55c530acdb2849e6d4f36992cd8c9d50ed8f700000000000000000000000000000000000000000000000a8730585168364de8",
                    "logDecoded": true,
                    "operation": "EVENT",
                    "revert": false,
                    "status": true,
                    "topics": [
                        "0x7cfff908a4b583f36430b25d75964c458d8ede8a99bd61be750e97ee1b2f3a96"
                    ]
                },
                "nodeType": 1
            },
            "17": {
                "invocation": {
                    "address": "0x39053d51b77dc0d36036fc1fcc8cb819df8ef37a",
                    "callData": "0x0000000000000000000000002b8cd4c64a4a6f1aa5fccbc4393577649e9d68a2000000000000000000000000acb55c530acdb2849e6d4f36992cd8c9d50ed8f700000000000000000000000000000000000000000000000a8730585168364de8",
                    "decodedMethod": {
                        "callParams": [
                            {
                                "name": "staker",
                                "type": "address",
                                "value": "0x2b8cd4c64a4a6f1aa5fccbc4393577649e9d68a2"
                            },
                            {
                                "name": "strategy",
                                "type": "address",
                                "value": "0xacb55c530acdb2849e6d4f36992cd8c9d50ed8f7"
                            },
                            {
                                "name": "shares",
                                "type": "uint256",
                                "value": "194,208,823,837,761,883,624"
                            }
                        ],
                        "constructorArguments": "",
                        "name": "increaseDelegatedShares",
                        "returnParams": [],
                        "signature": "increaseDelegatedShares(address,address,uint256)"
                    },
                    "errorInfo": "",
                    "fromAddress": "0x858646372cc42e1a627fce94aa7a7033e7cf075a",
                    "gasUsed": 17785,
                    "id": 17,
                    "methodDecoded": true,
                    "operation": "CALL",
                    "output": "",
                    "revert": false,
                    "revertMessage": "",
                    "selector": "0x28a573ae",
                    "status": true,
                    "value": "0"
                },
                "nodeType": 0
            },
            "18": {
                "invocation": {
                    "address": "0x1784be6401339fc0fedf7e9379409f5c1bfe9dda",
                    "callData": "0x0000000000000000000000002b8cd4c64a4a6f1aa5fccbc4393577649e9d68a2000000000000000000000000acb55c530acdb2849e6d4f36992cd8c9d50ed8f700000000000000000000000000000000000000000000000a8730585168364de8",
                    "decodedMethod": {
                        "callParams": [
                            {
                                "name": "staker",
                                "type": "address",
                                "value": "0x2b8cd4c64a4a6f1aa5fccbc4393577649e9d68a2"
                            },
                            {
                                "name": "strategy",
                                "type": "address",
                                "value": "0xacb55c530acdb2849e6d4f36992cd8c9d50ed8f7"
                            },
                            {
                                "name": "shares",
                                "type": "uint256",
                                "value": "194,208,823,837,761,883,624"
                            }
                        ],
                        "constructorArguments": "",
                        "name": "increaseDelegatedShares",
                        "returnParams": [],
                        "signature": "increaseDelegatedShares(address,address,uint256)"
                    },
                    "errorInfo": "",
                    "fromAddress": "0x39053d51b77dc0d36036fc1fcc8cb819df8ef37a",
                    "gasUsed": 10460,
                    "id": 18,
                    "methodDecoded": true,
                    "operation": "DELEGATECALL",
                    "output": "",
                    "revert": false,
                    "revertMessage": "",
                    "selector": "0x28a573ae",
                    "status": true,
                    "value": "0"
                },
                "nodeType": 0
            },
            "19": {
                "event": {
                    "contract": "0x39053d51b77dc0d36036fc1fcc8cb819df8ef37a",
                    "decodedLog": {
                        "name": "OperatorSharesIncreased",
                        "params": [
                            {
                                "name": "operator",
                                "type": "address",
                                "value": "0x5accc90436492f24e6af278569691e2c942a676d"
                            },
                            {
                                "name": "staker",
                                "type": "address",
                                "value": "0x2b8cd4c64a4a6f1aa5fccbc4393577649e9d68a2"
                            },
                            {
                                "name": "strategy",
                                "type": "address",
                                "value": "0xacb55c530acdb2849e6d4f36992cd8c9d50ed8f7"
                            },
                            {
                                "name": "shares",
                                "type": "uint256",
                                "value": "194,208,823,837,761,883,624"
                            }
                        ],
                        "signature": "OperatorSharesIncreased(address,address,address,uint256)"
                    },
                    "id": 19,
                    "logData": "0x0000000000000000000000002b8cd4c64a4a6f1aa5fccbc4393577649e9d68a2000000000000000000000000acb55c530acdb2849e6d4f36992cd8c9d50ed8f700000000000000000000000000000000000000000000000a8730585168364de8",
                    "logDecoded": true,
                    "operation": "EVENT",
                    "revert": false,
                    "status": true,
                    "topics": [
                        "0x1ec042c965e2edd7107b51188ee0f383e22e76179041ab3a9d18ff151405166c",
                        "0x0000000000000000000000005accc90436492f24e6af278569691e2c942a676d"
                    ]
                },
                "nodeType": 1
            },
            "2": {
                "invocation": {
                    "address": "0xec53bf9167f50cdeb3ae105f56099aaab9061f83",
                    "callData": "0x0000000000000000000000002b8cd4c64a4a6f1aa5fccbc4393577649e9d68a2000000000000000000000000acb55c530acdb2849e6d4f36992cd8c9d50ed8f700000000000000000000000000000000000000000000000a8730585168364de8",
                    "decodedMethod": {
                        "callParams": [
                            {
                                "name": "from",
                                "type": "address",
                                "value": "0x2b8cd4c64a4a6f1aa5fccbc4393577649e9d68a2"
                            },
                            {
                                "name": "to",
                                "type": "address",
                                "value": "0xacb55c530acdb2849e6d4f36992cd8c9d50ed8f7"
                            },
                            {
                                "decimalAvailable": true,
                                "name": "amount",
                                "type": "uint256",
                                "value": "194,208,823,837,761,883,624"
                            }
                        ],
                        "constructorArguments": "",
                        "name": "transferFrom",
                        "returnParams": [
                            {
                                "name": "",
                                "type": "bool",
                                "value": true
                            }
                        ],
                        "signature": "transferFrom(address,address,uint256)"
                    },
                    "errorInfo": "",
                    "fromAddress": "0x858646372cc42e1a627fce94aa7a7033e7cf075a",
                    "gasUsed": 55706,
                    "id": 2,
                    "methodDecoded": true,
                    "operation": "CALL",
                    "output": "0x0000000000000000000000000000000000000000000000000000000000000001",
                    "revert": false,
                    "revertMessage": "",
                    "selector": "0x23b872dd",
                    "status": true,
                    "value": "0"
                },
                "nodeType": 0
            },
            "3": {
                "invocation": {
                    "address": "0x7ec354c84680112d3cff1544ec1eb19ca583700b",
                    "callData": "0x0000000000000000000000002b8cd4c64a4a6f1aa5fccbc4393577649e9d68a2000000000000000000000000acb55c530acdb2849e6d4f36992cd8c9d50ed8f700000000000000000000000000000000000000000000000a8730585168364de8",
                    "decodedMethod": {
                        "callParams": [
                            {
                                "name": "from",
                                "type": "address",
                                "value": "0x2b8cd4c64a4a6f1aa5fccbc4393577649e9d68a2"
                            },
                            {
                                "name": "to",
                                "type": "address",
                                "value": "0xacb55c530acdb2849e6d4f36992cd8c9d50ed8f7"
                            },
                            {
                                "decimalAvailable": true,
                                "name": "amount",
                                "type": "uint256",
                                "value": "194,208,823,837,761,883,624"
                            }
                        ],
                        "constructorArguments": "",
                        "name": "transferFrom",
                        "returnParams": [
                            {
                                "name": "",
                                "type": "bool",
                                "value": true
                            }
                        ],
                        "signature": "transferFrom(address,address,uint256)"
                    },
                    "errorInfo": "",
                    "fromAddress": "0xec53bf9167f50cdeb3ae105f56099aaab9061f83",
                    "gasUsed": 48558,
                    "id": 3,
                    "methodDecoded": true,
                    "operation": "DELEGATECALL",
                    "output": "0x0000000000000000000000000000000000000000000000000000000000000001",
                    "revert": false,
                    "revertMessage": "",
                    "selector": "0x23b872dd",
                    "status": true,
                    "value": "0"
                },
                "nodeType": 0
            },
            "4": {
                "event": {
                    "contract": "0xec53bf9167f50cdeb3ae105f56099aaab9061f83",
                    "decodedLog": {
                        "name": "Approval",
                        "params": [
                            {
                                "name": "owner",
                                "type": "address",
                                "value": "0x2b8cd4c64a4a6f1aa5fccbc4393577649e9d68a2"
                            },
                            {
                                "name": "spender",
                                "type": "address",
                                "value": "0x858646372cc42e1a627fce94aa7a7033e7cf075a"
                            },
                            {
                                "decimalAvailable": true,
                                "name": "value",
                                "type": "uint256",
                                "value": "0"
                            }
                        ],
                        "signature": "Approval(address,address,uint256)"
                    },
                    "id": 4,
                    "logData": "0x0000000000000000000000000000000000000000000000000000000000000000",
                    "logDecoded": true,
                    "operation": "EVENT",
                    "revert": false,
                    "status": true,
                    "topics": [
                        "0x8c5be1e5ebec7d5bd14f71427d1e84f3dd0314c0f7b2291e5b200ac8c7c3b925",
                        "0x0000000000000000000000002b8cd4c64a4a6f1aa5fccbc4393577649e9d68a2",
                        "0x000000000000000000000000858646372cc42e1a627fce94aa7a7033e7cf075a"
                    ]
                },
                "nodeType": 1
            },
            "5": {
                "event": {
                    "contract": "0xec53bf9167f50cdeb3ae105f56099aaab9061f83",
                    "decodedLog": {
                        "name": "Transfer",
                        "params": [
                            {
                                "name": "from",
                                "type": "address",
                                "value": "0x2b8cd4c64a4a6f1aa5fccbc4393577649e9d68a2"
                            },
                            {
                                "name": "to",
                                "type": "address",
                                "value": "0xacb55c530acdb2849e6d4f36992cd8c9d50ed8f7"
                            },
                            {
                                "decimalAvailable": true,
                                "name": "value",
                                "type": "uint256",
                                "value": "194,208,823,837,761,883,624"
                            }
                        ],
                        "signature": "Transfer(address,address,uint256)"
                    },
                    "id": 5,
                    "logData": "0x00000000000000000000000000000000000000000000000a8730585168364de8",
                    "logDecoded": true,
                    "operation": "EVENT",
                    "revert": false,
                    "status": true,
                    "topics": [
                        "0xddf252ad1be2c89b69c2b068fc378daa952ba7f163c4a11628f55a4df523b3ef",
                        "0x0000000000000000000000002b8cd4c64a4a6f1aa5fccbc4393577649e9d68a2",
                        "0x000000000000000000000000acb55c530acdb2849e6d4f36992cd8c9d50ed8f7"
                    ]
                },
                "nodeType": 1
            },
            "6": {
                "invocation": {
                    "address": "0xacb55c530acdb2849e6d4f36992cd8c9d50ed8f7",
                    "callData": "0x000000000000000000000000ec53bf9167f50cdeb3ae105f56099aaab9061f8300000000000000000000000000000000000000000000000a8730585168364de8",
                    "decodedMethod": {
                        "callParams": [
                            {
                                "name": "token",
                                "type": "address",
                                "value": "0xec53bf9167f50cdeb3ae105f56099aaab9061f83"
                            },
                            {
                                "name": "amount",
                                "type": "uint256",
                                "value": "194,208,823,837,761,883,624"
                            }
                        ],
                        "constructorArguments": "",
                        "name": "deposit",
                        "returnParams": [
                            {
                                "name": "newShares",
                                "type": "uint256",
                                "value": "194,208,823,837,761,883,624"
                            }
                        ],
                        "signature": "deposit(address,uint256)"
                    },
                    "errorInfo": "",
                    "fromAddress": "0x858646372cc42e1a627fce94aa7a7033e7cf075a",
                    "gasUsed": 65017,
                    "id": 6,
                    "methodDecoded": true,
                    "operation": "CALL",
                    "output": "0x00000000000000000000000000000000000000000000000a8730585168364de8",
                    "revert": false,
                    "revertMessage": "",
                    "selector": "0x47e7ef24",
                    "status": true,
                    "value": "0"
                },
                "nodeType": 0
            },
            "7": {
                "invocation": {
                    "address": "0x27e7a3a81741b9fcc5ad7edcbf9f8a72a5c00428",
                    "callData": "0x000000000000000000000000ec53bf9167f50cdeb3ae105f56099aaab9061f8300000000000000000000000000000000000000000000000a8730585168364de8",
                    "decodedMethod": {
                        "callParams": [
                            {
                                "name": "token",
                                "type": "address",
                                "value": "0xec53bf9167f50cdeb3ae105f56099aaab9061f83"
                            },
                            {
                                "name": "amount",
                                "type": "uint256",
                                "value": "194,208,823,837,761,883,624"
                            }
                        ],
                        "constructorArguments": "",
                        "name": "deposit",
                        "returnParams": [
                            {
                                "name": "newShares",
                                "type": "uint256",
                                "value": "194,208,823,837,761,883,624"
                            }
                        ],
                        "signature": "deposit(address,uint256)"
                    },
                    "errorInfo": "",
                    "fromAddress": "0xacb55c530acdb2849e6d4f36992cd8c9d50ed8f7",
                    "gasUsed": 57854,
                    "id": 7,
                    "methodDecoded": true,
                    "operation": "DELEGATECALL",
                    "output": "0x00000000000000000000000000000000000000000000000a8730585168364de8",
                    "revert": false,
                    "revertMessage": "",
                    "selector": "0x47e7ef24",
                    "status": true,
                    "value": "0"
                },
                "nodeType": 0
            },
            "8": {
                "invocation": {
                    "address": "0xec53bf9167f50cdeb3ae105f56099aaab9061f83",
                    "callData": "0x00000000000000000000000000000000000000000000000a8730585168364de8",
                    "decodedMethod": {
                        "callParams": [
                            {
                                "name": "amount",
                                "type": "uint256",
                                "value": "194,208,823,837,761,883,624"
                            }
                        ],
                        "constructorArguments": "",
                        "name": "unwrap",
                        "returnParams": [],
                        "signature": "unwrap(uint256)"
                    },
                    "errorInfo": "",
                    "fromAddress": "0xacb55c530acdb2849e6d4f36992cd8c9d50ed8f7",
                    "gasUsed": 43042,
                    "id": 8,
                    "methodDecoded": true,
                    "operation": "CALL",
                    "output": "",
                    "revert": false,
                    "revertMessage": "",
                    "selector": "0xde0e9a3e",
                    "status": true,
                    "value": "0"
                },
                "nodeType": 0
            },
            "9": {
                "invocation": {
                    "address": "0x7ec354c84680112d3cff1544ec1eb19ca583700b",
                    "callData": "0x00000000000000000000000000000000000000000000000a8730585168364de8",
                    "decodedMethod": {
                        "callParams": [
                            {
                                "name": "amount",
                                "type": "uint256",
                                "value": "194,208,823,837,761,883,624"
                            }
                        ],
                        "constructorArguments": "",
                        "name": "unwrap",
                        "returnParams": [],
                        "signature": "unwrap(uint256)"
                    },
                    "errorInfo": "",
                    "fromAddress": "0xec53bf9167f50cdeb3ae105f56099aaab9061f83",
                    "gasUsed": 42406,
                    "id": 9,
                    "methodDecoded": true,
                    "operation": "DELEGATECALL",
                    "output": "",
                    "revert": false,
                    "revertMessage": "",
                    "selector": "0xde0e9a3e",
                    "status": true,
                    "value": "0"
                },
                "nodeType": 0
            }
        },
        "gasFlame": [
            {
                "children": [
                    {
                        "children": [
                            {
                                "children": [],
                                "depth": 0,
                                "name": "Initial Gas",
                                "value": 22036
                            },
                            {
                                "children": [
                                    {
                                        "children": [
                                            {
                                                "children": [
                                                    {
                                                        "children": [],
                                                        "depth": 3,
                                                        "name": "transferFrom",
                                                        "value": 48558
                                                    }
                                                ],
                                                "depth": 2,
                                                "name": "transferFrom",
                                                "value": 55706
                                            },
                                            {
                                                "children": [
                                                    {
                                                        "children": [
                                                            {
                                                                "children": [
                                                                    {
                                                                        "children": [
                                                                            {
                                                                                "children": [
                                                                                    {
                                                                                        "children": [],
                                                                                        "depth": 7,
                                                                                        "name": "transfer",
                                                                                        "value": 21700
                                                                                    }
                                                                                ],
                                                                                "depth": 6,
                                                                                "name": "transfer",
                                                                                "value": 28863
                                                                            }
                                                                        ],
                                                                        "depth": 5,
                                                                        "name": "unwrap",
                                                                        "value": 42406
                                                                    }
                                                                ],
                                                                "depth": 4,
                                                                "name": "unwrap",
                                                                "value": 43042
                                                            },
                                                            {
                                                                "children": [
                                                                    {
                                                                        "children": [],
                                                                        "depth": 5,
                                                                        "name": "balanceOf",
                                                                        "value": 604
                                                                    }
                                                                ],
                                                                "depth": 4,
                                                                "name": "balanceOf",
                                                                "value": 1264
                                                            }
                                                        ],
                                                        "depth": 3,
                                                        "name": "deposit",
                                                        "value": 57854
                                                    }
                                                ],
                                                "depth": 2,
                                                "name": "deposit",
                                                "value": 65017
                                            },
                                            {
                                                "children": [
                                                    {
                                                        "children": [],
                                                        "depth": 3,
                                                        "name": "increaseDelegatedShares",
                                                        "value": 10460
                                                    }
                                                ],
                                                "depth": 2,
                                                "name": "increaseDelegatedShares",
                                                "value": 17785
                                            }
                                        ],
                                        "depth": 1,
                                        "name": "depositIntoStrategy",
                                        "value": 210790
                                    }
                                ],
                                "depth": 0,
                                "name": "Executed Gas",
                                "value": 218118
                            }
                        ],
                        "depth": -1,
                        "name": "Actual Gas Used",
                        "value": 207854
                    },
                    {
                        "children": [],
                        "depth": -1,
                        "name": "Refunded Gas",
                        "value": 32300
                    }
                ],
                "depth": -2,
                "name": "Total Gas",
                "value": 240154
            }
        ],
        "isConfirmed": true,
        "mainTrace": [
            {
                "children": [
                    {
                        "children": [
                            {
                                "children": [
                                    {
                                        "children": [
                                            {
                                                "children": [
                                                    {
                                                        "children": [],
                                                        "depth": 4,
                                                        "id": 4,
                                                        "order": 4
                                                    },
                                                    {
                                                        "children": [],
                                                        "depth": 4,
                                                        "id": 5,
                                                        "order": 5
                                                    }
                                                ],
                                                "depth": 3,
                                                "id": 3,
                                                "order": 3
                                            }
                                        ],
                                        "depth": 2,
                                        "id": 2,
                                        "order": 2
                                    },
                                    {
                                        "children": [
                                            {
                                                "children": [
                                                    {
                                                        "children": [
                                                            {
                                                                "children": [
                                                                    {
                                                                        "children": [],
                                                                        "depth": 6,
                                                                        "id": 10,
                                                                        "order": 10
                                                                    },
                                                                    {
                                                                        "children": [
                                                                            {
                                                                                "children": [
                                                                                    {
                                                                                        "children": [],
                                                                                        "depth": 8,
                                                                                        "id": 13,
                                                                                        "order": 13
                                                                                    }
                                                                                ],
                                                                                "depth": 7,
                                                                                "id": 12,
                                                                                "order": 12
                                                                            }
                                                                        ],
                                                                        "depth": 6,
                                                                        "id": 11,
                                                                        "order": 11
                                                                    }
                                                                ],
                                                                "depth": 5,
                                                                "id": 9,
                                                                "order": 9
                                                            }
                                                        ],
                                                        "depth": 4,
                                                        "id": 8,
                                                        "order": 8
                                                    },
                                                    {
                                                        "children": [
                                                            {
                                                                "children": [],
                                                                "depth": 5,
                                                                "id": 15,
                                                                "order": 15
                                                            }
                                                        ],
                                                        "depth": 4,
                                                        "id": 14,
                                                        "order": 14
                                                    }
                                                ],
                                                "depth": 3,
                                                "id": 7,
                                                "order": 7
                                            }
                                        ],
                                        "depth": 2,
                                        "id": 6,
                                        "order": 6
                                    },
                                    {
                                        "children": [],
                                        "depth": 2,
                                        "id": 16,
                                        "order": 16
                                    },
                                    {
                                        "children": [
                                            {
                                                "children": [
                                                    {
                                                        "children": [],
                                                        "depth": 4,
                                                        "id": 19,
                                                        "order": 19
                                                    }
                                                ],
                                                "depth": 3,
                                                "id": 18,
                                                "order": 18
                                            }
                                        ],
                                        "depth": 2,
                                        "id": 17,
                                        "order": 17
                                    }
                                ],
                                "depth": 1,
                                "id": 1,
                                "order": 1
                            }
                        ],
                        "depth": 0,
                        "id": 0,
                        "order": 0
                    }
                ],
                "depth": -1,
                "id": -1,
                "order": -1
            }
        ],
        "mainTraceNodeCount": 20,
        "parentIdMap": {
            "0": -1,
            "1": 0,
            "10": 9,
            "11": 9,
            "12": 11,
            "13": 12,
            "14": 7,
            "15": 14,
            "16": 1,
            "17": 1,
            "18": 17,
            "19": 18,
            "2": 1,
            "3": 2,
            "4": 3,
            "5": 3,
            "6": 1,
            "7": 6,
            "8": 7,
            "9": 8
        },
        "tidyTrace": [
            {
                "children": [
                    {
                        "children": [
                            {
                                "children": [
                                    {
                                        "children": [
                                            {
                                                "children": [
                                                    {
                                                        "children": [],
                                                        "depth": 4,
                                                        "id": 4,
                                                        "order": 4
                                                    },
                                                    {
                                                        "children": [],
                                                        "depth": 4,
                                                        "id": 5,
                                                        "order": 5
                                                    }
                                                ],
                                                "depth": 3,
                                                "id": 3,
                                                "order": 3
                                            }
                                        ],
                                        "depth": 2,
                                        "id": 2,
                                        "order": 2
                                    },
                                    {
                                        "children": [
                                            {
                                                "children": [
                                                    {
                                                        "children": [
                                                            {
                                                                "children": [
                                                                    {
                                                                        "children": [],
                                                                        "depth": 6,
                                                                        "id": 10,
                                                                        "order": 10
                                                                    },
                                                                    {
                                                                        "children": [
                                                                            {
                                                                                "children": [
                                                                                    {
                                                                                        "children": [],
                                                                                        "depth": 8,
                                                                                        "id": 13,
                                                                                        "order": 13
                                                                                    }
                                                                                ],
                                                                                "depth": 7,
                                                                                "id": 12,
                                                                                "order": 12
                                                                            }
                                                                        ],
                                                                        "depth": 6,
                                                                        "id": 11,
                                                                        "order": 11
                                                                    }
                                                                ],
                                                                "depth": 5,
                                                                "id": 9,
                                                                "order": 9
                                                            }
                                                        ],
                                                        "depth": 4,
                                                        "id": 8,
                                                        "order": 8
                                                    }
                                                ],
                                                "depth": 3,
                                                "id": 7,
                                                "order": 7
                                            }
                                        ],
                                        "depth": 2,
                                        "id": 6,
                                        "order": 6
                                    },
                                    {
                                        "children": [],
                                        "depth": 2,
                                        "id": 16,
                                        "order": 16
                                    },
                                    {
                                        "children": [
                                            {
                                                "children": [
                                                    {
                                                        "children": [],
                                                        "depth": 4,
                                                        "id": 19,
                                                        "order": 19
                                                    }
                                                ],
                                                "depth": 3,
                                                "id": 18,
                                                "order": 18
                                            }
                                        ],
                                        "depth": 2,
                                        "id": 17,
                                        "order": 17
                                    }
                                ],
                                "depth": 1,
                                "id": 1,
                                "order": 1
                            }
                        ],
                        "depth": 0,
                        "id": 0,
                        "order": 0
                    }
                ],
                "depth": -1,
                "id": -1,
                "order": -1
            }
        ],
        "tidyTraceNodeCount": 18
    },
    "state_change": {
        "stateChanges": [
            {
                "address": "0x39053d51b77dc0d36036fc1fcc8cb819df8ef37a",
                "erc": "",
                "slots": [
                    {
                        "current": "0x00000000000000000000000000000000000000000006c100a92aa3a6393ec287",
                        "key": "0x4b534c202646847b4d8095d6ab8cc06e542c96b3ad5f298c649576cd34ee4272",
                        "prev": "0x00000000000000000000000000000000000000000006c0f621fa4b54d108749f"
                    }
                ],
                "storageVariables": [
                    {
                        "name": "operatorShares",
                        "type": "mapping(address => mapping(contract IStrategy => uint256))",
                        "value": {
                            "pairs": [
                                {
                                    "key": "0x5accc90436492f24e6af278569691e2c942a676d",
                                    "value": {
                                        "pairs": [
                                            {
                                                "key": "0xacb55c530acdb2849e6d4f36992cd8c9d50ed8f7",
                                                "value": {
                                                    "current": "8164983838616892326462087",
                                                    "prev": "8164789629793054564578463",
                                                    "typeTag": 1
                                                }
                                            }
                                        ],
                                        "typeTag": 4
                                    }
                                }
                            ],
                            "typeTag": 4
                        }
                    }
                ]
            },
            {
                "address": "0x83e9115d334d248ce39a6f36144aeab5b3456e75",
                "erc": "ERC-20",
                "slots": [
                    {
                        "current": "0x0000000000000000000000000000000000000000053aeece2208f89b770180c0",
                        "key": "0x8722c3f15c3ae7b3abfdd95231172f3e6b3b9a9889e80e4d63e3315f140a8816",
                        "prev": "0x0000000000000000000000000000000000000000053aeed8a93950ecdf37cea8"
                    },
                    {
                        "current": "0x0000000000000000000000000000000000000000002d79a98dacd3314871bf40",
                        "key": "0x560f198f2783a5232fe2a4c12cef39272b002f0460dc804501994447a756e7df",
                        "prev": "0x0000000000000000000000000000000000000000002d799f067c7adfe03b7158"
                    }
                ],
                "storageVariables": [
                    {
                        "name": "_balances",
                        "type": "mapping(address => uint256)",
                        "value": {
                            "pairs": [
                                {
                                    "key": "0xacb55c530acdb2849e6d4f36992cd8c9d50ed8f7",
                                    "value": {
                                        "current": "54976195935600660811202368",
                                        "prev": "54976001726776823049318744",
                                        "typeTag": 1
                                    }
                                },
                                {
                                    "key": "0xec53bf9167f50cdeb3ae105f56099aaab9061f83",
                                    "value": {
                                        "current": "1618670472349059339188797632",
                                        "prev": "1618670666557883176950681256",
                                        "typeTag": 1
                                    }
                                }
                            ],
                            "typeTag": 4
                        }
                    }
                ]
            },
            {
                "address": "0x858646372cc42e1a627fce94aa7a7033e7cf075a",
                "erc": "",
                "slots": [
                    {
                        "current": "0x000000000000000000000000acb55c530acdb2849e6d4f36992cd8c9d50ed8f7",
                        "key": "0x76ac55e17f6ab2113a14e1fe9901595da07b88490075747e501c5f5efb8c39ad",
                        "prev": "0x0000000000000000000000000000000000000000000000000000000000000000"
                    },
                    {
                        "current": "0x00000000000000000000000000000000000000000000000a8730585168364de8",
                        "key": "0x733068b4beff5cc5cbf571e2ca974242fbb44d495cd7e5af9ff1c664bfffce63",
                        "prev": "0x0000000000000000000000000000000000000000000000000000000000000000"
                    },
                    {
                        "current": "0x0000000000000000000000000000000000000000000000000000000000000003",
                        "key": "0x51ee79eddb5653401397a28fb646f6606e3521259bfa9872b8b8843e8af4cb4f",
                        "prev": "0x0000000000000000000000000000000000000000000000000000000000000002"
                    }
                ],
                "storageVariables": [
                    {
                        "name": "stakerStrategyList",
                        "type": "mapping(address => contract IStrategy[])",
                        "value": {
                            "pairs": [
                                {
                                    "key": "0x2b8cd4c64a4a6f1aa5fccbc4393577649e9d68a2",
                                    "value": {
                                        "elemType": "contract IStrategy",
                                        "elems": [
                                            {
                                                "index": 2,
                                                "value": {
                                                    "current": "0xacb55c530acdb2849e6d4f36992cd8c9d50ed8f7",
                                                    "prev": "0x0000000000000000000000000000000000000000",
                                                    "typeTag": 1
                                                }
                                            }
                                        ],
                                        "typeTag": 2
                                    }
                                }
                            ],
                            "typeTag": 4
                        }
                    },
                    {
                        "name": "stakerStrategyShares",
                        "type": "mapping(address => mapping(contract IStrategy => uint256))",
                        "value": {
                            "pairs": [
                                {
                                    "key": "0x2b8cd4c64a4a6f1aa5fccbc4393577649e9d68a2",
                                    "value": {
                                        "pairs": [
                                            {
                                                "key": "0xacb55c530acdb2849e6d4f36992cd8c9d50ed8f7",
                                                "value": {
                                                    "current": "194208823837761883624",
                                                    "prev": "0",
                                                    "typeTag": 1
                                                }
                                            }
                                        ],
                                        "typeTag": 4
                                    }
                                }
                            ],
                            "typeTag": 4
                        }
                    }
                ]
            },
            {
                "address": "0xacb55c530acdb2849e6d4f36992cd8c9d50ed8f7",
                "erc": "",
                "slots": [
                    {
                        "current": "0x0000000000000000000000000000000000000000002d79a98dacd3314871bf40",
                        "key": "0x0000000000000000000000000000000000000000000000000000000000000033",
                        "prev": "0x0000000000000000000000000000000000000000002d799f067c7adfe03b7158"
                    }
                ],
                "storageVariables": [
                    {
                        "name": "totalShares",
                        "type": "uint256",
                        "value": {
                            "current": "54976195935600660811202368",
                            "prev": "54976001726776823049318744",
                            "typeTag": 1
                        }
                    }
                ]
            },
            {
                "address": "0xec53bf9167f50cdeb3ae105f56099aaab9061f83",
                "erc": "ERC-20",
                "slots": [
                    {
                        "current": "0x0000000000000000000000000000000000000000000000000000000000000000",
                        "key": "0x62a4594f62fbf711e8e84aba36844cbd8f9a6384a940e83d4fc4b0b82bacbce1",
                        "prev": "0x00000000000000000000000000000000000000000000000a8730585168364de8"
                    },
                    {
                        "current": "0x0000000000000000000000000000000000000000000000000000000000000000",
                        "key": "0x5f179fbcf1fdeab1d37563b3e132f4a34f48102339ce0e0cd94e2d19b575fb9a",
                        "prev": "0x00000000000000000000000000000000000000000000000a8730585168364de8"
                    },
                    {
                        "current": "0x0000000000000000000000000000000000000000002d79a99b8d89e4efd5bf40",
                        "key": "0x8722c3f15c3ae7b3abfdd95231172f3e6b3b9a9889e80e4d63e3315f140a8816",
                        "prev": "0x0000000000000000000000000000000000000000002d799f145d3193879f7158"
                    }
                ],
                "storageVariables": [
                    {
                        "name": "_allowances",
                        "type": "mapping(address => mapping(address => uint256))",
                        "value": {
                            "pairs": [
                                {
                                    "key": "0x2b8cd4c64a4a6f1aa5fccbc4393577649e9d68a2",
                                    "value": {
                                        "pairs": [
                                            {
                                                "key": "0x858646372cc42e1a627fce94aa7a7033e7cf075a",
                                                "value": {
                                                    "current": "0",
                                                    "prev": "194208823837761883624",
                                                    "typeTag": 1
                                                }
                                            }
                                        ],
                                        "typeTag": 4
                                    }
                                }
                            ],
                            "typeTag": 4
                        }
                    },
                    {
                        "name": "_balances",
                        "type": "mapping(address => uint256)",
                        "value": {
                            "pairs": [
                                {
                                    "key": "0x2b8cd4c64a4a6f1aa5fccbc4393577649e9d68a2",
                                    "value": {
                                        "current": "0",
                                        "prev": "194208823837761883624",
                                        "typeTag": 1
                                    }
                                },
                                {
                                    "key": "0xec53bf9167f50cdeb3ae105f56099aaab9061f83",
                                    "value": {
                                        "current": "54976196935600660811202368",
                                        "prev": "54976002726776823049318744",
                                        "typeTag": 1
                                    }
                                }
                            ],
                            "typeTag": 4
                        }
                    }
                ]
            }
        ]
    }
}