{
    "balance_change": {
        "balanceChanges": [
            {
                "account": "0x65bf7604b960c88605d1c3f27af739c3d1ac3233",
                "assets": [
                    {
                        "address": "0xf816725650497630642b52dbc3a734e118cf2ed2",
                        "amount": "3,646.04606678",
                        "iconUrl": "",
                        "isERC1155": false,
                        "isERC721": false,
                        "sign": false,
                        "value": ""
                    }
                ]
            },
            {
                "account": "0x95fd3481b4fdab8b8324b3ebc6152cb42ce34267",
                "assets": [
                    {
                        "address": "0xf816725650497630642b52dbc3a734e118cf2ed2",
                        "amount": "3,646.04606678",
                        "iconUrl": "",
                        "isERC1155": false,
                        "isERC721": false,
                        "sign": true,
                        "value": ""
                    }
                ]
            }
        ]
    },
    "profile": {
        "basic_info": {
            "baseFee": "",
            "blockNumber": 8765742,
            "callData": "0xa9059cbb00000000000000000000000095fd3481b4fdab8b8324b3ebc6152cb42ce342670000000000000000000000000000000000000000000000c5a70dbc280c109800",
            "debugEnable": true,
            "errorInfo": "",
            "eventCount": 1,
            "feeRecipient": "0xea674fdde714fd979de3edf0f56aa9716b898ec8",
            "formatValue": "0",
            "gasLimit": 90000,
            "gasPrice": "1.5",
            "gasUsed": 21658,
            "intTxnCount": 0,
            "internalRevert": false,
            "internalRevertMessage": "",
            "isContractCreation": false,
            "isFlashloan": false,
            "maxFee": "",
            "nonce": 0,
            "overwritedBlockNumber": -1,
            "priorityFee": "",
            "receiver": "0xf816725650497630642b52dbc3a734e118cf2ed2",
            "revertMessage": "",
            "sender": "0x65bf7604b960c88605d1c3f27af739c3d1ac3233",
            "simulationEnable": true,
            "sourceTxnHash": "0x437bb5fa4240136c9664e1da58665967065d431b2857f2d9b3a20c913bbb6229",
            "status": true,
            "timestamp": "2019-10-18T15:42:06Z",
            "transactionFee": "0.000032487",
            "txnHash": "0x437bb5fa4240136c9664e1da58665967065d431b2857f2d9b3a20c913bbb6229",
            "txnIndex": 116,
            "type": 0,
            "value": "0"
        },
        "fund_flow": [
            {
                "amount": "3,646.04606678",
                "from": "0x65bf7604b960c88605d1c3f27af739c3d1ac3233",
                "id": 1,
                "isERC1155": false,
                "isERC721": false,
                "isReverted": false,
                "order": 1,
                "to": "0x95fd3481b4fdab8b8324b3ebc6152cb42ce34267",
                "token": "0xf816725650497630642b52dbc3a734e118cf2ed2"
            }
        ],
        "token_infos": [
            {
                "address": "0xc02aaa39b223fe8d0a0e5c4f27ead9083c756cc2",
                "decimals": 18
            },
            {
                "address": "0xf816725650497630642b52dbc3a734e118cf2ed2",
                "decimals": 18
            },
            {
                "address": "0xeeeeeeeeeeeeeeeeeeeeeeeeeeeeeeeeeeeeeeee",
                "decimals": 18
            }
        ]
    },
    "address_label": {
        "labels": [
            {
                "address": "0xeeeeeeeeeeeeeeeeeeeeeeeeeeeeeeeeeeeeeeee",
                "label": "Ether"
            },
            {
                "address": "0xf816725650497630642b52dbc3a734e118cf2ed2",
                "label": "OVF"
            },
            {
                "address": "0x0000000000000000000000000000000000000001",
                "label": "Precompiled"
            },
            {
                "address": "0x0000000000000000000000000000000000000002",
                "label": "Precompiled"
            },
            {
                "address": "0x0000000000000000000000000000000000000003",
                "label": "Precompiled"
            },
            {
                "address": "0x0000000000000000000000000000000000000004",
                "label": "Precompiled"
            }
        ]
    },
    "trace": {
        "accountLabels": null,
        "dataMap": {
            "-1": {
                "invocation": {
                    "address": "0x65bf7604b960c88605d1c3f27af739c3d1ac3233",
                    "callData": "",
                    "decodedMethod": null,
                    "errorInfo": "",
                    "fromAddress": "",
                    "gasUsed": 0,
                    "id": -1,
                    "methodDecoded": false,
                    "operation": "",
                    "output": "",
                    "revert": false,
                    "revertMessage": "",
                    "selector": "",
                    "status": false,
                    "value": ""
                },
                "nodeType": 0
            },
            "0": {
                "invocation": {
                    "address": "0xf816725650497630642b52dbc3a734e118cf2ed2",
                    "callData": "0x00000000000000000000000095fd3481b4fdab8b8324b3ebc6152cb42ce342670000000000000000000000000000000000000000000000c5a70dbc280c109800",
                    "decodedMethod": {
                        "callParams": [
                            {
                                "name": "to",
                                "type": "address",
                                "value": "0x95fd3481b4fdab8b8324b3ebc6152cb42ce34267"
                            },
                            {
                                "decimalAvailable": true,
                                "name": "tokens",
                                "type": "uint256",
                                "value": "3,646,046,066,780,000,000,000"
                            }
                        ],
                        "constructorArguments": "",
                        "name": "transfer",
                        "returnParams": [
                            {
                                "name": "success",
                                "type": "bool",
                                "value": true
                            }
                        ],
                        "signature": "transfer(address,uint256)"
                    },
                    "errorInfo": "",
                    "fromAddress": "0x65bf7604b960c88605d1c3f27af739c3d1ac3233",
                    "gasUsed": 21658,
                    "id": 0,
                    "methodDecoded": true,
                    "operation": "CALL",
                    "output": "0x0000000000000000000000000000000000000000000000000000000000000001",
                    "revert": false,
                    "revertMessage": "",
                    "selector": "0xa9059cbb",
                    "status": true,
                    "value": "0"
                },
                "nodeType": 0
            },
            "1": {
                "event": {
                    "contract": "0xf816725650497630642b52dbc3a734e118cf2ed2",
                    "decodedLog": {
                        "name": "Transfer",
                        "params": [
                            {
                                "name": "from",
                                "type": "address",
                                "value": "0x65bf7604b960c88605d1c3f27af739c3d1ac3233"
                            },
                            {
                                "name": "to",
                                "type": "address",
                                "value": "0x95fd3481b4fdab8b8324b3ebc6152cb42ce34267"
                            },
                            {
                                "decimalAvailable": true,
                                "name": "tokens",
                                "type": "uint256",
                                "value": "3,646,046,066,780,000,000,000"
                            }
                        ],
                        "signature": "Transfer(address,address,uint256)"
                    },
                    "id": 1,
                    "logData": "0x0000000000000000000000000000000000000000000000c5a70dbc280c109800",
                    "logDecoded": true,
                    "operation": "EVENT",
                    "revert": false,
                    "status": true,
                    "topics": [
                        "0xddf252ad1be2c89b69c2b068fc378daa952ba7f163c4a11628f55a4df523b3ef",
                        "0x00000000000000000000000065bf7604b960c88605d1c3f27af739c3d1ac3233",
                        "0x00000000000000000000000095fd3481b4fdab8b8324b3ebc6152cb42ce34267"
                    ]
                },
                "nodeType": 1
            }
        },
        "gasFlame": [
            {
                "children": [
                    {
                        "children": [
                            {
                                "children": [],
                                "depth": 0,
                                "name": "Initial Gas",
                                "value": 23320
                            },
                            {
                                "children": [],
                                "depth": 0,
                                "name": "Executed Gas",
                                "value": 13338
                            }
                        ],
                        "depth": -1,
                        "name": "Actual Gas Used",
                        "value": 21658
                    },
                    {
                        "children": [],
                        "depth": -1,
                        "name": "Refunded Gas",
                        "value": 15000
                    }
                ],
                "depth": -2,
                "name": "Total Gas",
                "value": 36658
            }
        ],
        "isConfirmed": true,
        "mainTrace": [
            {
                "children": [
                    {
                        "children": [
                            {
                                "children": [],
                                "depth": 1,
                                "id": 1,
                                "order": 1
                            }
                        ],
                        "depth": 0,
                        "id": 0,
                        "order": 0
                    }
                ],
                "depth": -1,
                "id": -1,
                "order": -1
            }
        ],
        "mainTraceNodeCount": 2,
        "parentIdMap": {
            "0": -1,
            "1": 0
        },
        "tidyTrace": [
            {
                "children": [
                    {
                        "children": [
                            {
                                "children": [],
                                "depth": 1,
                                "id": 1,
                                "order": 1
                            }
                        ],
                        "depth": 0,
                        "id": 0,
                        "order": 0
                    }
                ],
                "depth": -1,
                "id": -1,
                "order": -1
            }
        ],
        "tidyTraceNodeCount": 2
    },
    "state_change": {
        "stateChanges": [
            {
                "address": "0xf816725650497630642b52dbc3a734e118cf2ed2",
                "erc": "ERC-20",
                "slots": [
                    {
                        "current": "0x0000000000000000000000000000000000000000000000000000000000000000",
                        "key": "0x2bd47bda2b8f089068658975c0b1630466f351b5764a9879c2a388897b975605",
                        "prev": "0x0000000000000000000000000000000000000000000000c5a70dbc280c109800"
                    },
                    {
                        "current": "0x00000000000000000000000000000000000000000004442d2efa6dd5ec460040",
                        "key": "0xa574d01ae4ac7d649b1db2f00a074a1591db64e3f15abd6bd7e25497ad24afe2",
                        "prev": "0x00000000000000000000000000000000000000000004436787ecb1ade0356840"
                    }
                ],
                "storageVariables": [
                    {
                        "name": "balances",
                        "type": "mapping(address => uint256)",
                        "value": {
                            "pairs": [
                                {
                                    "key": "0x65bf7604b960c88605d1c3f27af739c3d1ac3233",
                                    "value": {
                                        "current": "0",
                                        "prev": "3646046066780000000000",
                                        "typeTag": 1
                                    }
                                },
                                {
                                    "key": "0x95fd3481b4fdab8b8324b3ebc6152cb42ce34267",
                                    "value": {
                                        "current": "5157657687915804985000000",
                                        "prev": "5154011641849024985000000",
                                        "typeTag": 1
                                    }
                                }
                            ],
                            "typeTag": 4
                        }
                    }
                ]
            }
        ]
    }
}