{
    "balance_change": {
        "balanceChanges": [
            {
                "account": "0x5225787a5d9fbe412ff9a4cae43c1c3f3e026003",
                "assets": [
                    {
                        "address": "0xeeeeeeeeeeeeeeeeeeeeeeeeeeeeeeeeeeeeeeee",
                        "amount": "0.02",
                        "iconUrl": "https://assets.blocksec.com/image/1663669189317-3.png",
                        "isERC1155": false,
                        "isERC721": false,
                        "sign": false,
                        "value": "24.959400000000000546"
                    }
                ]
            },
            {
                "account": "0x99c9fc46f92e8a1c0dec1b1747d010903e884be1",
                "assets": [
                    {
                        "address": "0xeeeeeeeeeeeeeeeeeeeeeeeeeeeeeeeeeeeeeeee",
                        "amount": "0.02",
                        "iconUrl": "https://assets.blocksec.com/image/1663669189317-3.png",
                        "isERC1155": false,
                        "isERC721": false,
                        "sign": true,
                        "value": "24.959400000000000546"
                    }
                ]
            }
        ]
    },
    "profile": {
        "basic_info": {
            "baseFee": "18.240674986",
            "blockNumber": 16341554,
            "callData": "0xb1a1a8820000000000000000000000000000000000000000000000000000000000030d4000000000000000000000000000000000000000000000000000000000000000400000000000000000000000000000000000000000000000000000000000000000",
            "debugEnable": true,
            "errorInfo": "",
            "eventCount": 3,
            "feeRecipient": "0xf2f5c73fa04406b1995e397b55c24ab1f3ea726c",
            "formatValue": "0.02",
            "gasLimit": 152620,
            "gasPrice": "19.740674986",
            "gasUsed": 150829,
            "intTxnCount": 10,
            "internalRevert": true,
            "internalRevertMessage": "",
            "isContractCreation": false,
            "isFlashloan": false,
            "maxFee": "25.581959781",
            "nonce": 17,
            "overwritedBlockNumber": -1,
            "priorityFee": "1.5",
            "receiver": "0x99c9fc46f92e8a1c0dec1b1747d010903e884be1",
            "revertMessage": "",
            "sender": "0x5225787a5d9fbe412ff9a4cae43c1c3f3e026003",
            "simulationEnable": true,
            "sourceTxnHash": "0x4326450311a3cfb027ad7a24800eca19d1e0c7376d97d0b4114a3ef4a9a8f174",
            "status": true,
            "timestamp": "2023-01-05T15:42:23Z",
            "transactionFee": "0.002977466267463394",
            "txnHash": "0x4326450311a3cfb027ad7a24800eca19d1e0c7376d97d0b4114a3ef4a9a8f174",
            "txnIndex": 106,
            "type": 2,
            "value": "20000000000000000"
        },
        "fund_flow": [
            {
                "amount": "0.02",
                "from": "0x5225787a5d9fbe412ff9a4cae43c1c3f3e026003",
                "id": 1,
                "isERC1155": false,
                "isERC721": false,
                "isReverted": false,
                "order": 1,
                "to": "0x99c9fc46f92e8a1c0dec1b1747d010903e884be1",
                "token": "0xeeeeeeeeeeeeeeeeeeeeeeeeeeeeeeeeeeeeeeee"
            }
        ],
        "token_infos": [
            {
                "address": "0xc02aaa39b223fe8d0a0e5c4f27ead9083c756cc2",
                "decimals": 18
            },
            {
                "address": "0xeeeeeeeeeeeeeeeeeeeeeeeeeeeeeeeeeeeeeeee",
                "decimals": 18
            }
        ]
    },
    "address_label": {
        "labels": [
            {
                "address": "0xd9166833ff12a5f900ccfbf2c8b62a90f1ca1fd5",
                "label": "L1CrossDomainMessenger"
            },
            {
                "address": "0xeeeeeeeeeeeeeeeeeeeeeeeeeeeeeeeeeeeeeeee",
                "label": "Ether"
            },
            {
                "address": "0x40e0c049f4671846e9cff93aaed88f2b48e527bb",
                "label": "L1StandardBridge"
            },
            {
                "address": "0x34cfac646f301356faa8b21e94227e3583fe3f5f",
                "label": "Safe: Mastercopy 1.1.1"
            },
            {
                "address": "0xd5d82b6addc9027b22dca772aa68d5d74cdbdf44",
                "label": "Safe: Default Callback Handler 1.1.1"
            },
            {
                "address": "0x5e4e65926ba27467555eb562121fac00d24e9dd2",
                "label": "Optimism: Canonical Transaction Chain"
            },
            {
                "address": "0x0000000000000000000000000000000000000001",
                "label": "Precompiled"
            },
            {
                "address": "0x9ba6e03d8b90de867373db8cf1a58d2f7f006b3a",
                "label": "Optimism: Multisig"
            },
            {
                "address": "0x0000000000000000000000000000000000000003",
                "label": "Precompiled"
            },
            {
                "address": "0x0000000000000000000000000000000000000004",
                "label": "Precompiled"
            },
            {
                "address": "0x25ace71c97b33cc4729cf772ae268934f7ab5fa1",
                "label": "Optimism: Proxy OVM L1 Cross Domain Messenger"
            },
            {
                "address": "0xde1fcfb0851916ca5101820a69b13a4e276bd81f",
                "label": "Optimism: Lib Address Manager"
            },
            {
                "address": "0x99c9fc46f92e8a1c0dec1b1747d010903e884be1",
                "label": "Optimism: Gateway"
            },
            {
                "address": "0x0000000000000000000000000000000000000002",
                "label": "Precompiled"
            }
        ]
    },
    "trace": {
        "accountLabels": null,
        "dataMap": {
            "-1": {
                "invocation": {
                    "address": "0x5225787a5d9fbe412ff9a4cae43c1c3f3e026003",
                    "callData": "",
                    "decodedMethod": null,
                    "errorInfo": "",
                    "fromAddress": "",
                    "gasUsed": 0,
                    "id": -1,
                    "methodDecoded": false,
                    "operation": "",
                    "output": "",
                    "revert": false,
                    "revertMessage": "",
                    "selector": "",
                    "status": false,
                    "value": ""
                },
                "nodeType": 0
            },
            "0": {
                "invocation": {
                    "address": "0x99c9fc46f92e8a1c0dec1b1747d010903e884be1",
                    "callData": "0x0000000000000000000000000000000000000000000000000000000000030d4000000000000000000000000000000000000000000000000000000000000000400000000000000000000000000000000000000000000000000000000000000000",
                    "decodedMethod": {
                        "callParams": [
                            {
                                "name": "_minGasLimit",
                                "type": "uint32",
                                "value": "200,000"
                            },
                            {
                                "name": "_extraData",
                                "type": "bytes",
                                "value": "0x"
                            }
                        ],
                        "constructorArguments": "",
                        "name": "depositETH",
                        "returnParams": [],
                        "signature": "depositETH(uint32,bytes)"
                    },
                    "errorInfo": "",
                    "fromAddress": "0x5225787a5d9fbe412ff9a4cae43c1c3f3e026003",
                    "gasUsed": 150829,
                    "id": 0,
                    "methodDecoded": true,
                    "operation": "CALL",
                    "output": "",
                    "revert": false,
                    "revertMessage": "",
                    "selector": "0xb1a1a882",
                    "status": true,
                    "value": "0.02"
                },
                "nodeType": 0
            },
            "1": {
                "invocation": {
                    "address": "0x9ba6e03d8b90de867373db8cf1a58d2f7f006b3a",
                    "callData": "0x",
                    "decodedMethod": {
                        "callParams": [],
                        "constructorArguments": "",
                        "name": "isUpgrading",
                        "returnParams": [],
                        "signature": "isUpgrading()"
                    },
                    "errorInfo": "execution reverted",
                    "fromAddress": "0x99c9fc46f92e8a1c0dec1b1747d010903e884be1",
                    "gasUsed": 10134,
                    "id": 1,
                    "methodDecoded": true,
                    "operation": "STATICCALL",
                    "output": "",
                    "revert": true,
                    "revertMessage": "",
                    "selector": "0xb7947262",
                    "status": false,
                    "value": "0"
                },
                "nodeType": 0
            },
            "10": {
                "invocation": {
                    "address": "0x5e4e65926ba27467555eb562121fac00d24e9dd2",
                    "callData": "0x00000000000000000000000042000000000000000000000000000000000000070000000000000000000000000000000000000000000000000000000000030d40000000000000000000000000000000000000000000000000000000000000006000000000000000000000000000000000000000000000000000000000000001a4cbd4ece9000000000000000000000000420000000000000000000000000000000000001000000000000000000000000099c9fc46f92e8a1c0dec1b1747d010903e884be10000000000000000000000000000000000000000000000000000000000000080000000000000000000000000000000000000000000000000000000000003f31d00000000000000000000000000000000000000000000000000000000000000e4662a633a0000000000000000000000000000000000000000000000000000000000000000000000000000000000000000deaddeaddeaddeaddeaddeaddeaddeaddead00000000000000000000000000005225787a5d9fbe412ff9a4cae43c1c3f3e0260030000000000000000000000005225787a5d9fbe412ff9a4cae43c1c3f3e02600300000000000000000000000000000000000000000000000000470de4df82000000000000000000000000000000000000000000000000000000000000000000c000000000000000000000000000000000000000000000000000000000000000000000000000000000000000000000000000000000000000000000000000000000000000000000000000000000000000000000000000000000",
                    "decodedMethod": {
                        "callParams": [
                            {
                                "name": "_target",
                                "type": "address",
                                "value": "0x4200000000000000000000000000000000000007"
                            },
                            {
                                "name": "_gasLimit",
                                "type": "uint256",
                                "value": "200,000"
                            },
                            {
                                "name": "_data",
                                "type": "bytes",
                                "value": "0xcbd4ece9000000000000000000000000420000000000000000000000000000000000001000000000000000000000000099c9fc46f92e8a1c0dec1b1747d010903e884be10000000000000000000000000000000000000000000000000000000000000080000000000000000000000000000000000000000000000000000000000003f31d00000000000000000000000000000000000000000000000000000000000000e4662a633a0000000000000000000000000000000000000000000000000000000000000000000000000000000000000000deaddeaddeaddeaddeaddeaddeaddeaddead00000000000000000000000000005225787a5d9fbe412ff9a4cae43c1c3f3e0260030000000000000000000000005225787a5d9fbe412ff9a4cae43c1c3f3e02600300000000000000000000000000000000000000000000000000470de4df82000000000000000000000000000000000000000000000000000000000000000000c0000000000000000000000000000000000000000000000000000000000000000000000000000000000000000000000000000000000000000000000000"
                            }
                        ],
                        "constructorArguments": "",
                        "name": "enqueue",
                        "returnParams": [],
                        "signature": "enqueue(address,uint256,bytes)"
                    },
                    "errorInfo": "",
                    "fromAddress": "0x25ace71c97b33cc4729cf772ae268934f7ab5fa1",
                    "gasUsed": 62479,
                    "id": 10,
                    "methodDecoded": true,
                    "operation": "CALL",
                    "output": "",
                    "revert": false,
                    "revertMessage": "",
                    "selector": "0x6fee07e0",
                    "status": true,
                    "value": "0"
                },
                "nodeType": 0
            },
            "11": {
                "event": {
                    "contract": "0x5e4e65926ba27467555eb562121fac00d24e9dd2",
                    "decodedLog": {
                        "name": "TransactionEnqueued",
                        "params": [
                            {
                                "name": "_l1TxOrigin",
                                "type": "address",
                                "value": "0x36bde71c97b33cc4729cf772ae268934f7ab70b2"
                            },
                            {
                                "name": "_target",
                                "type": "address",
                                "value": "0x4200000000000000000000000000000000000007"
                            },
                            {
                                "name": "_queueIndex",
                                "type": "uint256",
                                "value": "258,845"
                            },
                            {
                                "name": "_gasLimit",
                                "type": "uint256",
                                "value": "200,000"
                            },
                            {
                                "name": "_data",
                                "type": "bytes",
                                "value": "0xcbd4ece9000000000000000000000000420000000000000000000000000000000000001000000000000000000000000099c9fc46f92e8a1c0dec1b1747d010903e884be10000000000000000000000000000000000000000000000000000000000000080000000000000000000000000000000000000000000000000000000000003f31d00000000000000000000000000000000000000000000000000000000000000e4662a633a0000000000000000000000000000000000000000000000000000000000000000000000000000000000000000deaddeaddeaddeaddeaddeaddeaddeaddead00000000000000000000000000005225787a5d9fbe412ff9a4cae43c1c3f3e0260030000000000000000000000005225787a5d9fbe412ff9a4cae43c1c3f3e02600300000000000000000000000000000000000000000000000000470de4df82000000000000000000000000000000000000000000000000000000000000000000c0000000000000000000000000000000000000000000000000000000000000000000000000000000000000000000000000000000000000000000000000"
                            },
                            {
                                "name": "_timestamp",
                                "type": "uint256",
                                "value": "1,672,933,343"
                            }
                        ],
                        "signature": "TransactionEnqueued(address,address,uint256,bytes,uint256,uint256)"
                    },
                    "id": 11,
                    "logData": "0x0000000000000000000000000000000000000000000000000000000000030d4000000000000000000000000000000000000000000000000000000000000000600000000000000000000000000000000000000000000000000000000063b6efdf00000000000000000000000000000000000000000000000000000000000001a4cbd4ece9000000000000000000000000420000000000000000000000000000000000001000000000000000000000000099c9fc46f92e8a1c0dec1b1747d010903e884be10000000000000000000000000000000000000000000000000000000000000080000000000000000000000000000000000000000000000000000000000003f31d00000000000000000000000000000000000000000000000000000000000000e4662a633a0000000000000000000000000000000000000000000000000000000000000000000000000000000000000000deaddeaddeaddeaddeaddeaddeaddeaddead00000000000000000000000000005225787a5d9fbe412ff9a4cae43c1c3f3e0260030000000000000000000000005225787a5d9fbe412ff9a4cae43c1c3f3e02600300000000000000000000000000000000000000000000000000470de4df82000000000000000000000000000000000000000000000000000000000000000000c000000000000000000000000000000000000000000000000000000000000000000000000000000000000000000000000000000000000000000000000000000000000000000000000000000000000000000000000000000000",
                    "logDecoded": true,
                    "operation": "EVENT",
                    "revert": false,
                    "status": true,
                    "topics": [
                        "0x4b388aecf9fa6cc92253704e5975a6129a4f735bdbd99567df4ed0094ee4ceb5",
                        "0x00000000000000000000000036bde71c97b33cc4729cf772ae268934f7ab70b2",
                        "0x0000000000000000000000004200000000000000000000000000000000000007",
                        "0x000000000000000000000000000000000000000000000000000000000003f31d"
                    ]
                },
                "nodeType": 1
            },
            "12": {
                "event": {
                    "contract": "0x25ace71c97b33cc4729cf772ae268934f7ab5fa1",
                    "decodedLog": {
                        "name": "SentMessage",
                        "params": [
                            {
                                "name": "target",
                                "type": "address",
                                "value": "0x4200000000000000000000000000000000000010"
                            },
                            {
                                "name": "sender",
                                "type": "address",
                                "value": "0x99c9fc46f92e8a1c0dec1b1747d010903e884be1"
                            },
                            {
                                "name": "message",
                                "type": "bytes",
                                "value": "0x662a633a0000000000000000000000000000000000000000000000000000000000000000000000000000000000000000deaddeaddeaddeaddeaddeaddeaddeaddead00000000000000000000000000005225787a5d9fbe412ff9a4cae43c1c3f3e0260030000000000000000000000005225787a5d9fbe412ff9a4cae43c1c3f3e02600300000000000000000000000000000000000000000000000000470de4df82000000000000000000000000000000000000000000000000000000000000000000c00000000000000000000000000000000000000000000000000000000000000000"
                            },
                            {
                                "name": "messageNonce",
                                "type": "uint256",
                                "value": "258,845"
                            },
                            {
                                "name": "gasLimit",
                                "type": "uint256",
                                "value": "200,000"
                            }
                        ],
                        "signature": "SentMessage(address,address,bytes,uint256,uint256)"
                    },
                    "id": 12,
                    "logData": "0x00000000000000000000000099c9fc46f92e8a1c0dec1b1747d010903e884be10000000000000000000000000000000000000000000000000000000000000080000000000000000000000000000000000000000000000000000000000003f31d0000000000000000000000000000000000000000000000000000000000030d4000000000000000000000000000000000000000000000000000000000000000e4662a633a0000000000000000000000000000000000000000000000000000000000000000000000000000000000000000deaddeaddeaddeaddeaddeaddeaddeaddead00000000000000000000000000005225787a5d9fbe412ff9a4cae43c1c3f3e0260030000000000000000000000005225787a5d9fbe412ff9a4cae43c1c3f3e02600300000000000000000000000000000000000000000000000000470de4df82000000000000000000000000000000000000000000000000000000000000000000c0000000000000000000000000000000000000000000000000000000000000000000000000000000000000000000000000000000000000000000000000",
                    "logDecoded": true,
                    "operation": "EVENT",
                    "revert": false,
                    "status": true,
                    "topics": [
                        "0xcb0f7ffd78f9aee47a248fae8db181db6eee833039123e026dcbff529522e52a",
                        "0x0000000000000000000000004200000000000000000000000000000000000010"
                    ]
                },
                "nodeType": 1
            },
            "13": {
                "event": {
                    "contract": "0x99c9fc46f92e8a1c0dec1b1747d010903e884be1",
                    "decodedLog": {
                        "name": "ETHDepositInitiated",
                        "params": [
                            {
                                "name": "from",
                                "type": "address",
                                "value": "0x5225787a5d9fbe412ff9a4cae43c1c3f3e026003"
                            },
                            {
                                "name": "to",
                                "type": "address",
                                "value": "0x5225787a5d9fbe412ff9a4cae43c1c3f3e026003"
                            },
                            {
                                "name": "amount",
                                "type": "uint256",
                                "value": "20,000,000,000,000,000"
                            },
                            {
                                "name": "extraData",
                                "type": "bytes",
                                "value": "0x"
                            }
                        ],
                        "signature": "ETHDepositInitiated(address,address,uint256,bytes)"
                    },
                    "id": 13,
                    "logData": "0x00000000000000000000000000000000000000000000000000470de4df82000000000000000000000000000000000000000000000000000000000000000000400000000000000000000000000000000000000000000000000000000000000000",
                    "logDecoded": true,
                    "operation": "EVENT",
                    "revert": false,
                    "status": true,
                    "topics": [
                        "0x35d79ab81f2b2017e19afb5c5571778877782d7a8786f5907f93b0f4702f4f23",
                        "0x0000000000000000000000005225787a5d9fbe412ff9a4cae43c1c3f3e026003",
                        "0x0000000000000000000000005225787a5d9fbe412ff9a4cae43c1c3f3e026003"
                    ]
                },
                "nodeType": 1
            },
            "2": {
                "invocation": {
                    "address": "0x34cfac646f301356faa8b21e94227e3583fe3f5f",
                    "callData": "0x",
                    "decodedMethod": {
                        "callParams": [],
                        "constructorArguments": "",
                        "name": "isUpgrading",
                        "returnParams": [],
                        "signature": "isUpgrading()"
                    },
                    "errorInfo": "execution reverted",
                    "fromAddress": "0x9ba6e03d8b90de867373db8cf1a58d2f7f006b3a",
                    "gasUsed": 5307,
                    "id": 2,
                    "methodDecoded": true,
                    "operation": "DELEGATECALL",
                    "output": "",
                    "revert": true,
                    "revertMessage": "",
                    "selector": "0xb7947262",
                    "status": false,
                    "value": "0"
                },
                "nodeType": 0
            },
            "3": {
                "invocation": {
                    "address": "0xd5d82b6addc9027b22dca772aa68d5d74cdbdf44",
                    "callData": "0x",
                    "decodedMethod": {
                        "callParams": [],
                        "constructorArguments": "",
                        "name": "isUpgrading",
                        "returnParams": [],
                        "signature": "isUpgrading()"
                    },
                    "errorInfo": "execution reverted",
                    "fromAddress": "0x9ba6e03d8b90de867373db8cf1a58d2f7f006b3a",
                    "gasUsed": 214,
                    "id": 3,
                    "methodDecoded": true,
                    "operation": "CALL",
                    "output": "",
                    "revert": true,
                    "revertMessage": "",
                    "selector": "0xb7947262",
                    "status": false,
                    "value": "0"
                },
                "nodeType": 0
            },
            "4": {
                "invocation": {
                    "address": "0x40e0c049f4671846e9cff93aaed88f2b48e527bb",
                    "callData": "0x0000000000000000000000000000000000000000000000000000000000030d4000000000000000000000000000000000000000000000000000000000000000400000000000000000000000000000000000000000000000000000000000000000",
                    "decodedMethod": {
                        "callParams": [
                            {
                                "name": "_l2Gas",
                                "type": "uint32",
                                "value": "200,000"
                            },
                            {
                                "name": "_data",
                                "type": "bytes",
                                "value": "0x"
                            }
                        ],
                        "constructorArguments": "",
                        "name": "depositETH",
                        "returnParams": [],
                        "signature": "depositETH(uint32,bytes)"
                    },
                    "errorInfo": "",
                    "fromAddress": "0x99c9fc46f92e8a1c0dec1b1747d010903e884be1",
                    "gasUsed": 108973,
                    "id": 4,
                    "methodDecoded": true,
                    "operation": "DELEGATECALL",
                    "output": "",
                    "revert": false,
                    "revertMessage": "",
                    "selector": "0xb1a1a882",
                    "status": true,
                    "value": "0.02"
                },
                "nodeType": 0
            },
            "5": {
                "invocation": {
                    "address": "0x25ace71c97b33cc4729cf772ae268934f7ab5fa1",
                    "callData": "0x000000000000000000000000420000000000000000000000000000000000001000000000000000000000000000000000000000000000000000000000000000600000000000000000000000000000000000000000000000000000000000030d4000000000000000000000000000000000000000000000000000000000000000e4662a633a0000000000000000000000000000000000000000000000000000000000000000000000000000000000000000deaddeaddeaddeaddeaddeaddeaddeaddead00000000000000000000000000005225787a5d9fbe412ff9a4cae43c1c3f3e0260030000000000000000000000005225787a5d9fbe412ff9a4cae43c1c3f3e02600300000000000000000000000000000000000000000000000000470de4df82000000000000000000000000000000000000000000000000000000000000000000c0000000000000000000000000000000000000000000000000000000000000000000000000000000000000000000000000000000000000000000000000",
                    "decodedMethod": {
                        "callParams": [
                            {
                                "name": "_target",
                                "type": "address",
                                "value": "0x4200000000000000000000000000000000000010"
                            },
                            {
                                "name": "_message",
                                "type": "bytes",
                                "value": "0x662a633a0000000000000000000000000000000000000000000000000000000000000000000000000000000000000000deaddeaddeaddeaddeaddeaddeaddeaddead00000000000000000000000000005225787a5d9fbe412ff9a4cae43c1c3f3e0260030000000000000000000000005225787a5d9fbe412ff9a4cae43c1c3f3e02600300000000000000000000000000000000000000000000000000470de4df82000000000000000000000000000000000000000000000000000000000000000000c00000000000000000000000000000000000000000000000000000000000000000"
                            },
                            {
                                "name": "_minGasLimit",
                                "type": "uint32",
                                "value": "200,000"
                            }
                        ],
                        "constructorArguments": "",
                        "name": "sendMessage",
                        "returnParams": [],
                        "signature": "sendMessage(address,bytes,uint32)"
                    },
                    "errorInfo": "",
                    "fromAddress": "0x99c9fc46f92e8a1c0dec1b1747d010903e884be1",
                    "gasUsed": 96954,
                    "id": 5,
                    "methodDecoded": true,
                    "operation": "CALL",
                    "output": "",
                    "revert": false,
                    "revertMessage": "",
                    "selector": "0x3dbb202b",
                    "status": true,
                    "value": "0"
                },
                "nodeType": 0
            },
            "6": {
                "invocation": {
                    "address": "0xde1fcfb0851916ca5101820a69b13a4e276bd81f",
                    "callData": "0x0000000000000000000000000000000000000000000000000000000000000020000000000000000000000000000000000000000000000000000000000000001a4f564d5f4c3143726f7373446f6d61696e4d657373656e676572000000000000",
                    "decodedMethod": {
                        "callParams": [
                            {
                                "name": "_name",
                                "type": "string",
                                "value": "OVM_L1CrossDomainMessenger"
                            }
                        ],
                        "constructorArguments": "",
                        "name": "getAddress",
                        "returnParams": [
                            {
                                "name": "",
                                "type": "address",
                                "value": "0xd9166833ff12a5f900ccfbf2c8b62a90f1ca1fd5"
                            }
                        ],
                        "signature": "getAddress(string)"
                    },
                    "errorInfo": "",
                    "fromAddress": "0x25ace71c97b33cc4729cf772ae268934f7ab5fa1",
                    "gasUsed": 3187,
                    "id": 6,
                    "methodDecoded": true,
                    "operation": "STATICCALL",
                    "output": "0x000000000000000000000000d9166833ff12a5f900ccfbf2c8b62a90f1ca1fd5",
                    "revert": false,
                    "revertMessage": "",
                    "selector": "0xbf40fac1",
                    "status": true,
                    "value": "0"
                },
                "nodeType": 0
            },
            "7": {
                "invocation": {
                    "address": "0xd9166833ff12a5f900ccfbf2c8b62a90f1ca1fd5",
                    "callData": "0x000000000000000000000000420000000000000000000000000000000000001000000000000000000000000000000000000000000000000000000000000000600000000000000000000000000000000000000000000000000000000000030d4000000000000000000000000000000000000000000000000000000000000000e4662a633a0000000000000000000000000000000000000000000000000000000000000000000000000000000000000000deaddeaddeaddeaddeaddeaddeaddeaddead00000000000000000000000000005225787a5d9fbe412ff9a4cae43c1c3f3e0260030000000000000000000000005225787a5d9fbe412ff9a4cae43c1c3f3e02600300000000000000000000000000000000000000000000000000470de4df82000000000000000000000000000000000000000000000000000000000000000000c0000000000000000000000000000000000000000000000000000000000000000000000000000000000000000000000000000000000000000000000000",
                    "decodedMethod": {
                        "callParams": [
                            {
                                "name": "_target",
                                "type": "address",
                                "value": "0x4200000000000000000000000000000000000010"
                            },
                            {
                                "name": "_message",
                                "type": "bytes",
                                "value": "0x662a633a0000000000000000000000000000000000000000000000000000000000000000000000000000000000000000deaddeaddeaddeaddeaddeaddeaddeaddead00000000000000000000000000005225787a5d9fbe412ff9a4cae43c1c3f3e0260030000000000000000000000005225787a5d9fbe412ff9a4cae43c1c3f3e02600300000000000000000000000000000000000000000000000000470de4df82000000000000000000000000000000000000000000000000000000000000000000c00000000000000000000000000000000000000000000000000000000000000000"
                            },
                            {
                                "name": "_gasLimit",
                                "type": "uint32",
                                "value": "200,000"
                            }
                        ],
                        "constructorArguments": "",
                        "name": "sendMessage",
                        "returnParams": [],
                        "signature": "sendMessage(address,bytes,uint32)"
                    },
                    "errorInfo": "",
                    "fromAddress": "0x25ace71c97b33cc4729cf772ae268934f7ab5fa1",
                    "gasUsed": 83276,
                    "id": 7,
                    "methodDecoded": true,
                    "operation": "DELEGATECALL",
                    "output": "",
                    "revert": false,
                    "revertMessage": "",
                    "selector": "0x3dbb202b",
                    "status": true,
                    "value": "0"
                },
                "nodeType": 0
            },
            "8": {
                "invocation": {
                    "address": "0xde1fcfb0851916ca5101820a69b13a4e276bd81f",
                    "callData": "0x0000000000000000000000000000000000000000000000000000000000000020000000000000000000000000000000000000000000000000000000000000001943616e6f6e6963616c5472616e73616374696f6e436861696e00000000000000",
                    "decodedMethod": {
                        "callParams": [
                            {
                                "name": "_name",
                                "type": "string",
                                "value": "CanonicalTransactionChain"
                            }
                        ],
                        "constructorArguments": "",
                        "name": "getAddress",
                        "returnParams": [
                            {
                                "name": "",
                                "type": "address",
                                "value": "0x5e4e65926ba27467555eb562121fac00d24e9dd2"
                            }
                        ],
                        "signature": "getAddress(string)"
                    },
                    "errorInfo": "",
                    "fromAddress": "0x25ace71c97b33cc4729cf772ae268934f7ab5fa1",
                    "gasUsed": 3187,
                    "id": 8,
                    "methodDecoded": true,
                    "operation": "STATICCALL",
                    "output": "0x0000000000000000000000005e4e65926ba27467555eb562121fac00d24e9dd2",
                    "revert": false,
                    "revertMessage": "",
                    "selector": "0xbf40fac1",
                    "status": true,
                    "value": "0"
                },
                "nodeType": 0
            },
            "9": {
                "invocation": {
                    "address": "0x5e4e65926ba27467555eb562121fac00d24e9dd2",
                    "callData": "0x",
                    "decodedMethod": {
                        "callParams": [],
                        "constructorArguments": "",
                        "name": "getQueueLength",
                        "returnParams": [
                            {
                                "name": "",
                                "type": "uint40",
                                "value": "258,845"
                            }
                        ],
                        "signature": "getQueueLength()"
                    },
                    "errorInfo": "",
                    "fromAddress": "0x25ace71c97b33cc4729cf772ae268934f7ab5fa1",
                    "gasUsed": 2346,
                    "id": 9,
                    "methodDecoded": true,
                    "operation": "STATICCALL",
                    "output": "0x000000000000000000000000000000000000000000000000000000000003f31d",
                    "revert": false,
                    "revertMessage": "",
                    "selector": "0xb8f77005",
                    "status": true,
                    "value": "0"
                },
                "nodeType": 0
            }
        },
        "gasFlame": [
            {
                "children": [
                    {
                        "children": [
                            {
                                "children": [],
                                "depth": 0,
                                "name": "Initial Gas",
                                "value": 21496
                            },
                            {
                                "children": [
                                    {
                                        "children": [
                                            {
                                                "children": [
                                                    {
                                                        "children": [],
                                                        "depth": 3,
                                                        "name": "isUpgrading",
                                                        "value": 214
                                                    }
                                                ],
                                                "depth": 2,
                                                "name": "isUpgrading",
                                                "value": 5307
                                            }
                                        ],
                                        "depth": 1,
                                        "name": "isUpgrading",
                                        "value": 10134
                                    },
                                    {
                                        "children": [
                                            {
                                                "children": [
                                                    {
                                                        "children": [],
                                                        "depth": 3,
                                                        "name": "getAddress",
                                                        "value": 3187
                                                    },
                                                    {
                                                        "children": [
                                                            {
                                                                "children": [],
                                                                "depth": 4,
                                                                "name": "getAddress",
                                                                "value": 3187
                                                            },
                                                            {
                                                                "children": [],
                                                                "depth": 4,
                                                                "name": "getQueueLength",
                                                                "value": 2346
                                                            },
                                                            {
                                                                "children": [],
                                                                "depth": 4,
                                                                "name": "enqueue",
                                                                "value": 62479
                                                            }
                                                        ],
                                                        "depth": 3,
                                                        "name": "sendMessage",
                                                        "value": 83276
                                                    }
                                                ],
                                                "depth": 2,
                                                "name": "sendMessage",
                                                "value": 96954
                                            }
                                        ],
                                        "depth": 1,
                                        "name": "depositETH",
                                        "value": 108973
                                    }
                                ],
                                "depth": 0,
                                "name": "Executed Gas",
                                "value": 129333
                            }
                        ],
                        "depth": -1,
                        "name": "Actual Gas Used",
                        "value": 150829
                    },
                    {
                        "children": [],
                        "depth": -1,
                        "name": "Refunded Gas",
                        "value": 0
                    }
                ],
                "depth": -2,
                "name": "Total Gas",
                "value": 150829
            }
        ],
        "isConfirmed": true,
        "mainTrace": [
            {
                "children": [
                    {
                        "children": [
                            {
                                "children": [
                                    {
                                        "children": [
                                            {
                                                "children": [],
                                                "depth": 3,
                                                "id": 3,
                                                "order": 3
                                            }
                                        ],
                                        "depth": 2,
                                        "id": 2,
                                        "order": 2
                                    }
                                ],
                                "depth": 1,
                                "id": 1,
                                "order": 1
                            },
                            {
                                "children": [
                                    {
                                        "children": [
                                            {
                                                "children": [],
                                                "depth": 3,
                                                "id": 6,
                                                "order": 6
                                            },
                                            {
                                                "children": [
                                                    {
                                                        "children": [],
                                                        "depth": 4,
                                                        "id": 8,
                                                        "order": 8
                                                    },
                                                    {
                                                        "children": [],
                                                        "depth": 4,
                                                        "id": 9,
                                                        "order": 9
                                                    },
                                                    {
                                                        "children": [
                                                            {
                                                                "children": [],
                                                                "depth": 5,
                                                                "id": 11,
                                                                "order": 11
                                                            }
                                                        ],
                                                        "depth": 4,
                                                        "id": 10,
                                                        "order": 10
                                                    },
                                                    {
                                                        "children": [],
                                                        "depth": 4,
                                                        "id": 12,
                                                        "order": 12
                                                    }
                                                ],
                                                "depth": 3,
                                                "id": 7,
                                                "order": 7
                                            }
                                        ],
                                        "depth": 2,
                                        "id": 5,
                                        "order": 5
                                    },
                                    {
                                        "children": [],
                                        "depth": 2,
                                        "id": 13,
                                        "order": 13
                                    }
                                ],
                                "depth": 1,
                                "id": 4,
                                "order": 4
                            }
                        ],
                        "depth": 0,
                        "id": 0,
                        "order": 0
                    }
                ],
                "depth": -1,
                "id": -1,
                "order": -1
            }
        ],
        "mainTraceNodeCount": 14,
        "parentIdMap": {
            "0": -1,
            "1": 0,
            "10": 7,
            "11": 10,
            "12": 7,
            "13": 4,
            "2": 1,
            "3": 2,
            "4": 0,
            "5": 4,
            "6": 5,
            "7": 5,
            "8": 7,
            "9": 7
        },
        "tidyTrace": [
            {
                "children": [
                    {
                        "children": [
                            {
                                "children": [
                                    {
                                        "children": [
                                            {
                                                "children": [
                                                    {
                                                        "children": [
                                                            {
                                                                "children": [],
                                                                "depth": 5,
                                                                "id": 11,
                                                                "order": 11
                                                            }
                                                        ],
                                                        "depth": 4,
                                                        "id": 10,
                                                        "order": 10
                                                    },
                                                    {
                                                        "children": [],
                                                        "depth": 4,
                                                        "id": 12,
                                                        "order": 12
                                                    }
                                                ],
                                                "depth": 3,
                                                "id": 7,
                                                "order": 7
                                            }
                                        ],
                                        "depth": 2,
                                        "id": 5,
                                        "order": 5
                                    },
                                    {
                                        "children": [],
                                        "depth": 2,
                                        "id": 13,
                                        "order": 13
                                    }
                                ],
                                "depth": 1,
                                "id": 4,
                                "order": 4
                            }
                        ],
                        "depth": 0,
                        "id": 0,
                        "order": 0
                    }
                ],
                "depth": -1,
                "id": -1,
                "order": -1
            }
        ],
        "tidyTraceNodeCount": 8
    },
    "state_change": {
        "stateChanges": [
            {
                "address": "0x5e4e65926ba27467555eb562121fac00d24e9dd2",
                "erc": "",
                "slots": [
                    {
                        "current": "0x000000000000000000000000000000000000000000000000000000000003f31e",
                        "key": "0x0000000000000000000000000000000000000000000000000000000000000006",
                        "prev": "0x000000000000000000000000000000000000000000000000000000000003f31d"
                    },
                    {
                        "current": "0xe3f1ff586055c67ebb177da86f94eca73ac2c2f3f1560804128ffb0c80cad9fe",
                        "key": "0xf652222313e28459528d920b65115c16c04f3efc82aaedc97be59f3f3783f379",
                        "prev": "0x0000000000000000000000000000000000000000000000000000000000000000"
                    },
                    {
                        "current": "0x000000000000000000000000000000000000000000000000f95a320063b6efdf",
                        "key": "0xf652222313e28459528d920b65115c16c04f3efc82aaedc97be59f3f3783f37a",
                        "prev": "0x0000000000000000000000000000000000000000000000000000000000000000"
                    }
                ],
                "storageVariables": [
                    {
                        "name": "queueElements",
                        "type": "struct Lib_OVMCodec.QueueElement[]",
                        "value": {
                            "elemType": "struct Lib_OVMCodec.QueueElement",
                            "elems": [
                                {
                                    "index": 258845,
                                    "value": {
                                        "fields": [
                                            {
                                                "name": "transactionHash",
                                                "type": "bytes32",
                                                "value": {
                                                    "current": "0xe3f1ff586055c67ebb177da86f94eca73ac2c2f3f1560804128ffb0c80cad9fe",
                                                    "prev": "0x0000000000000000000000000000000000000000000000000000000000000000",
                                                    "typeTag": 1
                                                }
                                            },
                                            {
                                                "name": "timestamp",
                                                "type": "uint40",
                                                "value": {
                                                    "current": "1672933343",
                                                    "prev": "0",
                                                    "typeTag": 1
                                                }
                                            },
                                            {
                                                "name": "blockNumber",
                                                "type": "uint40",
                                                "value": {
                                                    "current": "16341554",
                                                    "prev": "0",
                                                    "typeTag": 1
                                                }
                                            }
                                        ],
                                        "typeTag": 3
                                    }
                                }
                            ],
                            "typeTag": 2
                        }
                    }
                ]
            }
        ]
    }
}