{
    "balance_change": {
        "balanceChanges": [
            {
                "account": "0xae9ba4b5a8968214f017f909feb070a673e55463",
                "assets": [
                    {
                        "address": "0x8c9b261faef3b3c2e64ab5e58e04615f8c788099",
                        "amount": "1",
                        "iconUrl": "",
                        "isERC1155": false,
                        "isERC721": true,
                        "sign": true,
                        "tokenID": "13744",
                        "value": ""
                    },
                    {
                        "address": "0xeeeeeeeeeeeeeeeeeeeeeeeeeeeeeeeeeeeeeeee",
                        "amount": "0.006",
                        "iconUrl": "https://assets.blocksec.com/image/1663669189317-3.png",
                        "isERC1155": false,
                        "isERC721": false,
                        "sign": false,
                        "value": "17.636515619999999217"
                    }
                ]
            },
            {
                "account": "0xd311e934d9a1d9f71004976cd0268fd25f9cb77f",
                "assets": [
                    {
                        "address": "0x8c9b261faef3b3c2e64ab5e58e04615f8c788099",
                        "amount": "1",
                        "iconUrl": "",
                        "isERC1155": false,
                        "isERC721": true,
                        "sign": false,
                        "tokenID": "13744",
                        "value": ""
                    },
                    {
                        "address": "0xeeeeeeeeeeeeeeeeeeeeeeeeeeeeeeeeeeeeeeee",
                        "amount": "0.006",
                        "iconUrl": "https://assets.blocksec.com/image/1663669189317-3.png",
                        "isERC1155": false,
                        "isERC721": false,
                        "sign": true,
                        "value": "17.636515619999999217"
                    }
                ]
            }
        ]
    },
    "profile": {
        "basic_info": {
            "baseFee": "33.32520424",
            "blockNumber": 14739959,
            "callData": "0xfbee349d00000000000000000000000000000000000000000000000000000000000000c00000000000000000000000000000000000000000000000000000000000000002000000000000000000000000000000000000000000000000000000000000001b0938bc72e9f616fc42b79d03bc53fd6fff088a9fad8248cf517a14c6ef072ea3206430028b03ab8f645d2ac3342b8a65f0f2d25dde8bd65a7ba5281f3cb0d8c500000000000000000000000000000000000000000000000000000000000002600000000000000000000000000000000000000000000000000000000000000000000000000000000000000000d311e934d9a1d9f71004976cd0268fd25f9cb77f000000000000000000000000000000000000000000000000000000000000000000000000000000000000000000000000000000000000000000000000967a67f00000000000000000000000000000000000000000000000000000018076c724e5000000000000000000000000eeeeeeeeeeeeeeeeeeeeeeeeeeeeeeeeeeeeeeee000000000000000000000000000000000000000000000000001550f7dca7000000000000000000000000000000000000000000000000000000000000000001600000000000000000000000008c9b261faef3b3c2e64ab5e58e04615f8c78809900000000000000000000000000000000000000000000000000000000000035b00000000000000000000000000000000000000000000000000000000000000180000000000000000000000000000000000000000000000000000000000000000000000000000000000000000000000000000000000000000000000000000000000000000000000000000000000000000000000000000000000000000000000000",
            "debugEnable": true,
            "errorInfo": "",
            "eventCount": 2,
            "feeRecipient": "0x2daa35962a6d43eb54c48367b33d0b379c930e5e",
            "formatValue": "0.006",
            "gasLimit": 221754,
            "gasPrice": "34.82520424",
            "gasUsed": 209282,
            "intTxnCount": 4,
            "internalRevert": false,
            "internalRevertMessage": "",
            "isContractCreation": false,
            "isFlashloan": false,
            "maxFee": "58.75670789",
            "nonce": 14,
            "overwritedBlockNumber": -1,
            "priorityFee": "1.5",
            "receiver": "0xdef1c0ded9bec7f1a1670819833240f027b25eff",
            "revertMessage": "",
            "sender": "0xae9ba4b5a8968214f017f909feb070a673e55463",
            "simulationEnable": true,
            "sourceTxnHash": "0x4308b2e253556536af50dfea35f3d1c55a207732a666efe7c9907bfa477367e5",
            "status": true,
            "timestamp": "2022-05-09T03:06:23Z",
            "transactionFee": "0.00728828839375568",
            "txnHash": "0x4308b2e253556536af50dfea35f3d1c55a207732a666efe7c9907bfa477367e5",
            "txnIndex": 9,
            "type": 2,
            "value": "6000000000000000"
        },
        "fund_flow": [
            {
                "amount": "0.006",
                "from": "0xae9ba4b5a8968214f017f909feb070a673e55463",
                "id": 1,
                "isERC1155": false,
                "isERC721": false,
                "isReverted": false,
                "order": 1,
                "to": "0xdef1c0ded9bec7f1a1670819833240f027b25eff",
                "token": "0xeeeeeeeeeeeeeeeeeeeeeeeeeeeeeeeeeeeeeeee"
            },
            {
                "amount": "1",
                "from": "0xd311e934d9a1d9f71004976cd0268fd25f9cb77f",
                "id": 2,
                "isERC1155": false,
                "isERC721": true,
                "isReverted": false,
                "order": 2,
                "to": "0xae9ba4b5a8968214f017f909feb070a673e55463",
                "token": "0x8c9b261faef3b3c2e64ab5e58e04615f8c788099",
                "tokenID": "13744"
            },
            {
                "amount": "0.006",
                "from": "0xdef1c0ded9bec7f1a1670819833240f027b25eff",
                "id": 3,
                "isERC1155": false,
                "isERC721": false,
                "isReverted": false,
                "order": 3,
                "to": "0xd311e934d9a1d9f71004976cd0268fd25f9cb77f",
                "token": "0xeeeeeeeeeeeeeeeeeeeeeeeeeeeeeeeeeeeeeeee"
            }
        ],
        "token_infos": [
            {
                "address": "0xc02aaa39b223fe8d0a0e5c4f27ead9083c756cc2",
                "decimals": 18
            },
            {
                "address": "0xeeeeeeeeeeeeeeeeeeeeeeeeeeeeeeeeeeeeeeee",
                "decimals": 18
            }
        ]
    },
    "address_label": {
        "labels": [
            {
                "address": "0x8c9b261faef3b3c2e64ab5e58e04615f8c788099",
                "label": "LucidSight-MLB-NFT (MLBCB)"
            },
            {
                "address": "0xdef1c0ded9bec7f1a1670819833240f027b25eff",
                "label": "0x: Exchange Proxy"
            },
            {
                "address": "0x0000000000000000000000000000000000000003",
                "label": "Precompiled"
            },
            {
                "address": "0x0000000000000000000000000000000000000004",
                "label": "Precompiled"
            },
            {
                "address": "0x0000000000000000000000000000000000000000",
                "label": "Null Address"
            },
            {
                "address": "0x4af649ffde640ceb34b1afaba3e0bb8e9698cb01",
                "label": "ERC721OrdersFeature"
            },
            {
                "address": "0x0000000000000000000000000000000000000001",
                "label": "Precompiled"
            },
            {
                "address": "0x0000000000000000000000000000000000000002",
                "label": "Precompiled"
            },
            {
                "address": "0xeeeeeeeeeeeeeeeeeeeeeeeeeeeeeeeeeeeeeeee",
                "label": "Ether"
            }
        ]
    },
    "trace": {
        "accountLabels": null,
        "dataMap": {
            "-1": {
                "invocation": {
                    "address": "0xae9ba4b5a8968214f017f909feb070a673e55463",
                    "callData": "",
                    "decodedMethod": null,
                    "errorInfo": "",
                    "fromAddress": "",
                    "gasUsed": 0,
                    "id": -1,
                    "methodDecoded": false,
                    "operation": "",
                    "output": "",
                    "revert": false,
                    "revertMessage": "",
                    "selector": "",
                    "status": false,
                    "value": ""
                },
                "nodeType": 0
            },
            "0": {
                "invocation": {
                    "address": "0xdef1c0ded9bec7f1a1670819833240f027b25eff",
                    "callData": "0x00000000000000000000000000000000000000000000000000000000000000c00000000000000000000000000000000000000000000000000000000000000002000000000000000000000000000000000000000000000000000000000000001b0938bc72e9f616fc42b79d03bc53fd6fff088a9fad8248cf517a14c6ef072ea3206430028b03ab8f645d2ac3342b8a65f0f2d25dde8bd65a7ba5281f3cb0d8c500000000000000000000000000000000000000000000000000000000000002600000000000000000000000000000000000000000000000000000000000000000000000000000000000000000d311e934d9a1d9f71004976cd0268fd25f9cb77f000000000000000000000000000000000000000000000000000000000000000000000000000000000000000000000000000000000000000000000000967a67f00000000000000000000000000000000000000000000000000000018076c724e5000000000000000000000000eeeeeeeeeeeeeeeeeeeeeeeeeeeeeeeeeeeeeeee000000000000000000000000000000000000000000000000001550f7dca7000000000000000000000000000000000000000000000000000000000000000001600000000000000000000000008c9b261faef3b3c2e64ab5e58e04615f8c78809900000000000000000000000000000000000000000000000000000000000035b00000000000000000000000000000000000000000000000000000000000000180000000000000000000000000000000000000000000000000000000000000000000000000000000000000000000000000000000000000000000000000000000000000000000000000000000000000000000000000000000000000000000000000",
                    "decodedMethod": {
                        "callParams": [
                            {
                                "name": "sellOrder",
                                "type": "(uint8,address,address,uint256,uint256,address,uint256,(address,uint256,bytes)[],address,uint256,(address,bytes)[])",
                                "value": [
                                    {
                                        "name": "direction",
                                        "type": "uint8",
                                        "value": "0"
                                    },
                                    {
                                        "name": "maker",
                                        "type": "address",
                                        "value": "0xd311e934d9a1d9f71004976cd0268fd25f9cb77f"
                                    },
                                    {
                                        "name": "taker",
                                        "type": "address",
                                        "value": "0x0000000000000000000000000000000000000000"
                                    },
                                    {
                                        "name": "expiry",
                                        "type": "uint256",
                                        "value": "2,524,604,400"
                                    },
                                    {
                                        "name": "nonce",
                                        "type": "uint256",
                                        "value": "1,651,260,204,261"
                                    },
                                    {
                                        "name": "erc20Token",
                                        "type": "address",
                                        "value": "0xeeeeeeeeeeeeeeeeeeeeeeeeeeeeeeeeeeeeeeee"
                                    },
                                    {
                                        "name": "erc20TokenAmount",
                                        "type": "uint256",
                                        "value": "6,000,000,000,000,000"
                                    },
                                    {
                                        "name": "fees",
                                        "type": "(address,uint256,bytes)[]",
                                        "value": []
                                    },
                                    {
                                        "name": "erc721Token",
                                        "type": "address",
                                        "value": "0x8c9b261faef3b3c2e64ab5e58e04615f8c788099"
                                    },
                                    {
                                        "name": "erc721TokenId",
                                        "type": "uint256",
                                        "value": "13,744"
                                    },
                                    {
                                        "name": "erc721TokenProperties",
                                        "type": "(address,bytes)[]",
                                        "value": []
                                    }
                                ]
                            },
                            {
                                "name": "signature",
                                "type": "(uint8,uint8,bytes32,bytes32)",
                                "value": [
                                    {
                                        "name": "signatureType",
                                        "type": "uint8",
                                        "value": "2"
                                    },
                                    {
                                        "name": "v",
                                        "type": "uint8",
                                        "value": "27"
                                    },
                                    {
                                        "name": "r",
                                        "type": "bytes32",
                                        "value": "0x0938bc72e9f616fc42b79d03bc53fd6fff088a9fad8248cf517a14c6ef072ea3"
                                    },
                                    {
                                        "name": "s",
                                        "type": "bytes32",
                                        "value": "0x206430028b03ab8f645d2ac3342b8a65f0f2d25dde8bd65a7ba5281f3cb0d8c5"
                                    }
                                ]
                            },
                            {
                                "name": "callbackData",
                                "type": "bytes",
                                "value": "0x"
                            }
                        ],
                        "constructorArguments": "",
                        "name": "buyERC721",
                        "returnParams": [],
                        "signature": "buyERC721((uint8,address,address,uint256,uint256,address,uint256,(address,uint256,bytes)[],address,uint256,(address,bytes)[]),(uint8,uint8,bytes32,bytes32),bytes)"
                    },
                    "errorInfo": "",
                    "fromAddress": "0xae9ba4b5a8968214f017f909feb070a673e55463",
                    "gasUsed": 209282,
                    "id": 0,
                    "methodDecoded": true,
                    "operation": "CALL",
                    "output": "",
                    "revert": false,
                    "revertMessage": "",
                    "selector": "0xfbee349d",
                    "status": true,
                    "value": "0.006"
                },
                "nodeType": 0
            },
            "1": {
                "invocation": {
                    "address": "0x4af649ffde640ceb34b1afaba3e0bb8e9698cb01",
                    "callData": "0x00000000000000000000000000000000000000000000000000000000000000c00000000000000000000000000000000000000000000000000000000000000002000000000000000000000000000000000000000000000000000000000000001b0938bc72e9f616fc42b79d03bc53fd6fff088a9fad8248cf517a14c6ef072ea3206430028b03ab8f645d2ac3342b8a65f0f2d25dde8bd65a7ba5281f3cb0d8c500000000000000000000000000000000000000000000000000000000000002600000000000000000000000000000000000000000000000000000000000000000000000000000000000000000d311e934d9a1d9f71004976cd0268fd25f9cb77f000000000000000000000000000000000000000000000000000000000000000000000000000000000000000000000000000000000000000000000000967a67f00000000000000000000000000000000000000000000000000000018076c724e5000000000000000000000000eeeeeeeeeeeeeeeeeeeeeeeeeeeeeeeeeeeeeeee000000000000000000000000000000000000000000000000001550f7dca7000000000000000000000000000000000000000000000000000000000000000001600000000000000000000000008c9b261faef3b3c2e64ab5e58e04615f8c78809900000000000000000000000000000000000000000000000000000000000035b00000000000000000000000000000000000000000000000000000000000000180000000000000000000000000000000000000000000000000000000000000000000000000000000000000000000000000000000000000000000000000000000000000000000000000000000000000000000000000000000000000000000000000",
                    "decodedMethod": {
                        "callParams": [
                            {
                                "name": "sellOrder",
                                "type": "(uint8,address,address,uint256,uint256,address,uint256,(address,uint256,bytes)[],address,uint256,(address,bytes)[])",
                                "value": [
                                    {
                                        "name": "direction",
                                        "type": "uint8",
                                        "value": "0"
                                    },
                                    {
                                        "name": "maker",
                                        "type": "address",
                                        "value": "0xd311e934d9a1d9f71004976cd0268fd25f9cb77f"
                                    },
                                    {
                                        "name": "taker",
                                        "type": "address",
                                        "value": "0x0000000000000000000000000000000000000000"
                                    },
                                    {
                                        "name": "expiry",
                                        "type": "uint256",
                                        "value": "2,524,604,400"
                                    },
                                    {
                                        "name": "nonce",
                                        "type": "uint256",
                                        "value": "1,651,260,204,261"
                                    },
                                    {
                                        "name": "erc20Token",
                                        "type": "address",
                                        "value": "0xeeeeeeeeeeeeeeeeeeeeeeeeeeeeeeeeeeeeeeee"
                                    },
                                    {
                                        "name": "erc20TokenAmount",
                                        "type": "uint256",
                                        "value": "6,000,000,000,000,000"
                                    },
                                    {
                                        "name": "fees",
                                        "type": "(address,uint256,bytes)[]",
                                        "value": []
                                    },
                                    {
                                        "name": "erc721Token",
                                        "type": "address",
                                        "value": "0x8c9b261faef3b3c2e64ab5e58e04615f8c788099"
                                    },
                                    {
                                        "name": "erc721TokenId",
                                        "type": "uint256",
                                        "value": "13,744"
                                    },
                                    {
                                        "name": "erc721TokenProperties",
                                        "type": "(address,bytes)[]",
                                        "value": []
                                    }
                                ]
                            },
                            {
                                "name": "signature",
                                "type": "(uint8,uint8,bytes32,bytes32)",
                                "value": [
                                    {
                                        "name": "signatureType",
                                        "type": "uint8",
                                        "value": "2"
                                    },
                                    {
                                        "name": "v",
                                        "type": "uint8",
                                        "value": "27"
                                    },
                                    {
                                        "name": "r",
                                        "type": "bytes32",
                                        "value": "0x0938bc72e9f616fc42b79d03bc53fd6fff088a9fad8248cf517a14c6ef072ea3"
                                    },
                                    {
                                        "name": "s",
                                        "type": "bytes32",
                                        "value": "0x206430028b03ab8f645d2ac3342b8a65f0f2d25dde8bd65a7ba5281f3cb0d8c5"
                                    }
                                ]
                            },
                            {
                                "name": "callbackData",
                                "type": "bytes",
                                "value": "0x"
                            }
                        ],
                        "constructorArguments": "",
                        "name": "buyERC721",
                        "returnParams": [],
                        "signature": "buyERC721((uint8,address,address,uint256,uint256,address,uint256,(address,uint256,bytes)[],address,uint256,(address,bytes)[]),(uint8,uint8,bytes32,bytes32),bytes)"
                    },
                    "errorInfo": "",
                    "fromAddress": "0xdef1c0ded9bec7f1a1670819833240f027b25eff",
                    "gasUsed": 187639,
                    "id": 1,
                    "methodDecoded": true,
                    "operation": "DELEGATECALL",
                    "output": "",
                    "revert": false,
                    "revertMessage": "",
                    "selector": "0xfbee349d",
                    "status": true,
                    "value": "0.006"
                },
                "nodeType": 0
            },
            "2": {
                "invocation": {
                    "address": "0x0000000000000000000000000000000000000001",
                    "callData": "0x1fbb347a264bc436744b64bfcae2d13da7bd635c737f377630da114e000000000000000000000000000000000000000000000000000000000000001b0938bc72e9f616fc42b79d03bc53fd6fff088a9fad8248cf517a14c6ef072ea3206430028b03ab8f645d2ac3342b8a65f0f2d25dde8bd65a7ba5281f3cb0d8c5",
                    "decodedMethod": {
                        "callParams": [
                            {
                                "name": "hash",
                                "type": "bytes32",
                                "value": "0x21df49eb1fbb347a264bc436744b64bfcae2d13da7bd635c737f377630da114e"
                            },
                            {
                                "name": "v",
                                "type": "uint256",
                                "value": "27"
                            },
                            {
                                "name": "r",
                                "type": "bytes32",
                                "value": "0x0938bc72e9f616fc42b79d03bc53fd6fff088a9fad8248cf517a14c6ef072ea3"
                            },
                            {
                                "name": "s",
                                "type": "bytes32",
                                "value": "0x206430028b03ab8f645d2ac3342b8a65f0f2d25dde8bd65a7ba5281f3cb0d8c5"
                            }
                        ],
                        "constructorArguments": "",
                        "name": "ecrecover",
                        "returnParams": [
                            {
                                "name": "",
                                "type": "address",
                                "value": "0xd311e934d9a1d9f71004976cd0268fd25f9cb77f"
                            }
                        ],
                        "signature": "ecrecover(bytes32,uint256,bytes32,bytes32)"
                    },
                    "errorInfo": "",
                    "fromAddress": "0xdef1c0ded9bec7f1a1670819833240f027b25eff",
                    "gasUsed": 3000,
                    "id": 2,
                    "methodDecoded": true,
                    "operation": "STATICCALL",
                    "output": "0x000000000000000000000000d311e934d9a1d9f71004976cd0268fd25f9cb77f",
                    "revert": false,
                    "revertMessage": "",
                    "selector": "0x21df49eb",
                    "status": true,
                    "value": "0"
                },
                "nodeType": 0
            },
            "3": {
                "invocation": {
                    "address": "0x8c9b261faef3b3c2e64ab5e58e04615f8c788099",
                    "callData": "0x000000000000000000000000d311e934d9a1d9f71004976cd0268fd25f9cb77f000000000000000000000000ae9ba4b5a8968214f017f909feb070a673e5546300000000000000000000000000000000000000000000000000000000000035b0",
                    "decodedMethod": {
                        "callParams": [
                            {
                                "name": "_from",
                                "type": "address",
                                "value": "0xd311e934d9a1d9f71004976cd0268fd25f9cb77f"
                            },
                            {
                                "name": "_to",
                                "type": "address",
                                "value": "0xae9ba4b5a8968214f017f909feb070a673e55463"
                            },
                            {
                                "decimalAvailable": true,
                                "name": "_tokenId",
                                "type": "uint256",
                                "value": "13,744"
                            }
                        ],
                        "constructorArguments": "",
                        "name": "transferFrom",
                        "returnParams": [],
                        "signature": "transferFrom(address,address,uint256)"
                    },
                    "errorInfo": "",
                    "fromAddress": "0xdef1c0ded9bec7f1a1670819833240f027b25eff",
                    "gasUsed": 138436,
                    "id": 3,
                    "methodDecoded": true,
                    "operation": "CALL",
                    "output": "",
                    "revert": false,
                    "revertMessage": "",
                    "selector": "0x23b872dd",
                    "status": true,
                    "value": "0"
                },
                "nodeType": 0
            },
            "4": {
                "event": {
                    "contract": "0x8c9b261faef3b3c2e64ab5e58e04615f8c788099",
                    "decodedLog": {
                        "name": "Transfer",
                        "params": [
                            {
                                "name": "_from",
                                "type": "address",
                                "value": "0xd311e934d9a1d9f71004976cd0268fd25f9cb77f"
                            },
                            {
                                "name": "_to",
                                "type": "address",
                                "value": "0xae9ba4b5a8968214f017f909feb070a673e55463"
                            },
                            {
                                "decimalAvailable": true,
                                "name": "_tokenId",
                                "type": "uint256",
                                "value": "13,744"
                            }
                        ],
                        "signature": "Transfer(address,address,uint256)"
                    },
                    "id": 4,
                    "logData": "0x",
                    "logDecoded": true,
                    "operation": "EVENT",
                    "revert": false,
                    "status": true,
                    "topics": [
                        "0xddf252ad1be2c89b69c2b068fc378daa952ba7f163c4a11628f55a4df523b3ef",
                        "0x000000000000000000000000d311e934d9a1d9f71004976cd0268fd25f9cb77f",
                        "0x000000000000000000000000ae9ba4b5a8968214f017f909feb070a673e55463",
                        "0x00000000000000000000000000000000000000000000000000000000000035b0"
                    ]
                },
                "nodeType": 1
            },
            "5": {
                "invocation": {
                    "address": "0xd311e934d9a1d9f71004976cd0268fd25f9cb77f",
                    "callData": "0x",
                    "decodedMethod": null,
                    "errorInfo": "",
                    "fromAddress": "0xdef1c0ded9bec7f1a1670819833240f027b25eff",
                    "gasUsed": 0,
                    "id": 5,
                    "methodDecoded": false,
                    "operation": "CALL",
                    "output": "",
                    "revert": false,
                    "revertMessage": "",
                    "selector": "fallback",
                    "status": true,
                    "value": "0.006"
                },
                "nodeType": 0
            },
            "6": {
                "event": {
                    "contract": "0xdef1c0ded9bec7f1a1670819833240f027b25eff",
                    "decodedLog": {
                        "name": "ERC721OrderFilled",
                        "params": [
                            {
                                "name": "direction",
                                "type": "uint8",
                                "value": "0"
                            },
                            {
                                "name": "maker",
                                "type": "address",
                                "value": "0xd311e934d9a1d9f71004976cd0268fd25f9cb77f"
                            },
                            {
                                "name": "taker",
                                "type": "address",
                                "value": "0xae9ba4b5a8968214f017f909feb070a673e55463"
                            },
                            {
                                "name": "nonce",
                                "type": "uint256",
                                "value": "1,651,260,204,261"
                            },
                            {
                                "name": "erc20Token",
                                "type": "address",
                                "value": "0xeeeeeeeeeeeeeeeeeeeeeeeeeeeeeeeeeeeeeeee"
                            },
                            {
                                "name": "erc20TokenAmount",
                                "type": "uint256",
                                "value": "6,000,000,000,000,000"
                            },
                            {
                                "name": "erc721Token",
                                "type": "address",
                                "value": "0x8c9b261faef3b3c2e64ab5e58e04615f8c788099"
                            },
                            {
                                "name": "erc721TokenId",
                                "type": "uint256",
                                "value": "13,744"
                            },
                            {
                                "name": "matcher",
                                "type": "address",
                                "value": "0x0000000000000000000000000000000000000000"
                            }
                        ],
                        "signature": "ERC721OrderFilled(uint8,address,address,uint256,address,uint256,address,uint256,address)"
                    },
                    "id": 6,
                    "logData": "0x0000000000000000000000000000000000000000000000000000000000000000000000000000000000000000d311e934d9a1d9f71004976cd0268fd25f9cb77f000000000000000000000000ae9ba4b5a8968214f017f909feb070a673e554630000000000000000000000000000000000000000000000000000018076c724e5000000000000000000000000eeeeeeeeeeeeeeeeeeeeeeeeeeeeeeeeeeeeeeee000000000000000000000000000000000000000000000000001550f7dca700000000000000000000000000008c9b261faef3b3c2e64ab5e58e04615f8c78809900000000000000000000000000000000000000000000000000000000000035b00000000000000000000000000000000000000000000000000000000000000000",
                    "logDecoded": true,
                    "operation": "EVENT",
                    "revert": false,
                    "status": true,
                    "topics": [
                        "0x50273fa02273cceea9cf085b42de5c8af60624140168bd71357db833535877af"
                    ]
                },
                "nodeType": 1
            }
        },
        "gasFlame": [
            {
                "children": [
                    {
                        "children": [
                            {
                                "children": [],
                                "depth": 0,
                                "name": "Initial Gas",
                                "value": 25424
                            },
                            {
                                "children": [
                                    {
                                        "children": [
                                            {
                                                "children": [],
                                                "depth": 2,
                                                "name": "ecrecover",
                                                "value": 3000
                                            },
                                            {
                                                "children": [],
                                                "depth": 2,
                                                "name": "transferFrom",
                                                "value": 138436
                                            },
                                            {
                                                "children": [],
                                                "depth": 2,
                                                "name": "fallback",
                                                "value": 0
                                            }
                                        ],
                                        "depth": 1,
                                        "name": "buyERC721",
                                        "value": 187639
                                    }
                                ],
                                "depth": 0,
                                "name": "Executed Gas",
                                "value": 193458
                            }
                        ],
                        "depth": -1,
                        "name": "Actual Gas Used",
                        "value": 209282
                    },
                    {
                        "children": [],
                        "depth": -1,
                        "name": "Refunded Gas",
                        "value": 9600
                    }
                ],
                "depth": -2,
                "name": "Total Gas",
                "value": 218882
            }
        ],
        "isConfirmed": true,
        "mainTrace": [
            {
                "children": [
                    {
                        "children": [
                            {
                                "children": [
                                    {
                                        "children": [],
                                        "depth": 2,
                                        "id": 2,
                                        "order": 2
                                    },
                                    {
                                        "children": [
                                            {
                                                "children": [],
                                                "depth": 3,
                                                "id": 4,
                                                "order": 4
                                            }
                                        ],
                                        "depth": 2,
                                        "id": 3,
                                        "order": 3
                                    },
                                    {
                                        "children": [],
                                        "depth": 2,
                                        "id": 5,
                                        "order": 5
                                    },
                                    {
                                        "children": [],
                                        "depth": 2,
                                        "id": 6,
                                        "order": 6
                                    }
                                ],
                                "depth": 1,
                                "id": 1,
                                "order": 1
                            }
                        ],
                        "depth": 0,
                        "id": 0,
                        "order": 0
                    }
                ],
                "depth": -1,
                "id": -1,
                "order": -1
            }
        ],
        "mainTraceNodeCount": 7,
        "parentIdMap": {
            "0": -1,
            "1": 0,
            "2": 1,
            "3": 1,
            "4": 3,
            "5": 1,
            "6": 1
        },
        "tidyTrace": [
            {
                "children": [
                    {
                        "children": [
                            {
                                "children": [
                                    {
                                        "children": [
                                            {
                                                "children": [],
                                                "depth": 3,
                                                "id": 4,
                                                "order": 4
                                            }
                                        ],
                                        "depth": 2,
                                        "id": 3,
                                        "order": 3
                                    },
                                    {
                                        "children": [],
                                        "depth": 2,
                                        "id": 5,
                                        "order": 5
                                    },
                                    {
                                        "children": [],
                                        "depth": 2,
                                        "id": 6,
                                        "order": 6
                                    }
                                ],
                                "depth": 1,
                                "id": 1,
                                "order": 1
                            }
                        ],
                        "depth": 0,
                        "id": 0,
                        "order": 0
                    }
                ],
                "depth": -1,
                "id": -1,
                "order": -1
            }
        ],
        "tidyTraceNodeCount": 6
    },
    "state_change": {
        "stateChanges": [
            {
                "address": "0x8c9b261faef3b3c2e64ab5e58e04615f8c788099",
                "erc": "ERC-721",
                "slots": [
                    {
                        "current": "0x0000000000000000000000000000000000000000000000000000000000000001",
                        "key": "0x604503af08db7f01d49ecb9f9b3d61ec59f0b6bfad71faf647d521cc28fd51c7",
                        "prev": "0x0000000000000000000000000000000000000000000000000000000000000000"
                    },
                    {
                        "current": "0x00000000000000000000000000000000000000000000000000000000000035b0",
                        "key": "0x758bb35fc2d684985db5cf4c513f9bc40f94f4511d1d28c27843c756c0b265bc",
                        "prev": "0x0000000000000000000000000000000000000000000000000000000000000000"
                    },
                    {
                        "current": "0x0000000000000000000000000000000000000000000000000000000000000476",
                        "key": "0xb2d6f5bf0ac689e60eef02d24bcdb7bb91e262fbe19af2d260a5ae67a15a9cd0",
                        "prev": "0x0000000000000000000000000000000000000000000000000000000000000477"
                    },
                    {
                        "current": "0x0000000000000000000000000000000000000000000000000000000000038a5e",
                        "key": "0x7e384c1431ef5927ec261af66edca887a57ff21b610552b3535b97252523c537",
                        "prev": "0x00000000000000000000000000000000000000000000000000000000000035b0"
                    },
                    {
                        "current": "0x0000000000000000000000000000000000000000000000000000000000000035",
                        "key": "0x9c77140475d1539ec65e186e286479521cafa1b43fb12e0730803cbf0fbf30c0",
                        "prev": "0x0000000000000000000000000000000000000000000000000000000000000476"
                    },
                    {
                        "current": "0x000000000000000000000000ae9ba4b5a8968214f017f909feb070a673e55463",
                        "key": "0x48e6e458fed223a4ef643e8d622985adabc69062997f09c4c5ef1dbd3184634a",
                        "prev": "0x000000000000000000000000d311e934d9a1d9f71004976cd0268fd25f9cb77f"
                    },
                    {
                        "current": "0x0000000000000000000000000000000000000000000000000000000000000000",
                        "key": "0xaad70bdb4444fd1efa1f788e92e413b9f9f9d274b03ae3964ace3e9cfd44f989",
                        "prev": "0x0000000000000000000000000000000000000000000000000000000000000035"
                    },
                    {
                        "current": "0x0000000000000000000000000000000000000000000000000000000000000001",
                        "key": "0xd95199ca225d1399fcfd7e1483418a54594cd12c1079c7124ad7c3ebba196584",
                        "prev": "0x0000000000000000000000000000000000000000000000000000000000000000"
                    },
                    {
                        "current": "0x0000000000000000000000000000000000000000000000000000000000000476",
                        "key": "0x9892d305397c38e50951b91c94e5236147763a326ac202808f416de5951f1b43",
                        "prev": "0x0000000000000000000000000000000000000000000000000000000000000477"
                    },
                    {
                        "current": "0x0000000000000000000000000000000000000000000000000000000000000000",
                        "key": "0x7e384c1431ef5927ec261af66edca887a57ff21b610552b3535b97252523c978",
                        "prev": "0x0000000000000000000000000000000000000000000000000000000000038a5e"
                    }
                ],
                "storageVariables": [
                    {
                        "name": "ownedTokens",
                        "type": "mapping(address => uint256[])",
                        "value": {
                            "pairs": [
                                {
                                    "key": "0xae9ba4b5a8968214f017f909feb070a673e55463",
                                    "value": {
                                        "elemType": "uint256",
                                        "elems": [
                                            {
                                                "index": 0,
                                                "value": {
                                                    "current": "13744",
                                                    "prev": "0",
                                                    "typeTag": 1
                                                }
                                            }
                                        ],
                                        "typeTag": 2
                                    }
                                },
                                {
                                    "key": "0xd311e934d9a1d9f71004976cd0268fd25f9cb77f",
                                    "value": {
                                        "elemType": "uint256",
                                        "elems": [
                                            {
                                                "index": 53,
                                                "value": {
                                                    "current": "232030",
                                                    "prev": "13744",
                                                    "typeTag": 1
                                                }
                                            }
                                        ],
                                        "typeTag": 2
                                    }
                                }
                            ],
                            "typeTag": 4
                        }
                    },
                    {
                        "name": "ownedTokensCount",
                        "type": "mapping(address => uint256)",
                        "value": {
                            "pairs": [
                                {
                                    "key": "0xae9ba4b5a8968214f017f909feb070a673e55463",
                                    "value": {
                                        "current": "1",
                                        "prev": "0",
                                        "typeTag": 1
                                    }
                                },
                                {
                                    "key": "0xd311e934d9a1d9f71004976cd0268fd25f9cb77f",
                                    "value": {
                                        "current": "1142",
                                        "prev": "1143",
                                        "typeTag": 1
                                    }
                                }
                            ],
                            "typeTag": 4
                        }
                    },
                    {
                        "name": "tokenOwner",
                        "type": "mapping(uint256 => address)",
                        "value": {
                            "pairs": [
                                {
                                    "key": "13744",
                                    "value": {
                                        "current": "0xae9ba4b5a8968214f017f909feb070a673e55463",
                                        "prev": "0xd311e934d9a1d9f71004976cd0268fd25f9cb77f",
                                        "typeTag": 1
                                    }
                                }
                            ],
                            "typeTag": 4
                        }
                    },
                    {
                        "name": "ownedTokensIndex",
                        "type": "mapping(uint256 => uint256)",
                        "value": {
                            "pairs": [
                                {
                                    "key": "13744",
                                    "value": {
                                        "current": "0",
                                        "prev": "53",
                                        "typeTag": 1
                                    }
                                },
                                {
                                    "key": "232030",
                                    "value": {
                                        "current": "53",
                                        "prev": "1142",
                                        "typeTag": 1
                                    }
                                }
                            ],
                            "typeTag": 4
                        }
                    }
                ]
            },
            {
                "address": "0xdef1c0ded9bec7f1a1670819833240f027b25eff",
                "erc": "",
                "slots": [
                    {
                        "current": "0x0000002000000000000000000000000000000000000000000000000000000000",
                        "key": "0x106cd203ed370223088a0566ec06c80942b27d980973f8bf6feb3b34d764c915",
                        "prev": "0x0000000000000000000000000000000000000000000000000000000000000000"
                    }
                ],
                "storageVariables": []
            }
        ]
    }
}