{
    "balance_change": {
        "balanceChanges": []
    },
    "profile": {
        "basic_info": {
            "baseFee": "",
            "blockNumber": 8735137,
            "callData": "0xd46b02c30000000000000000000000000000000000000000000000000000000000000020000000000000000000000000ffd99af9f7322e78be8dec497df76ef5c2207e040000000000000000000000000000000000000000000000000000000000000000000000000000000000000000a258b39954cef5cb142fd567a46cddb31a6701240000000000000000000000000000000000000000000000000000000000000000000000000000000000000000000000000000000000000001a055690d9db8000000000000000000000000000000000000000000000000012c50e2ba76ca58000000000000000000000000000000000000000000000000000000000000000000000000000000000000000000000000000000000000000000000000000000000000000000000000000000000000000000000000000000000000000000005da388ac0000000000000000000000000000000000000000000000000000016dc6c0280a000000000000000000000000000000000000000000000000000000000000018000000000000000000000000000000000000000000000000000000000000001e00000000000000000000000000000000000000000000000000000000000000024f47261b0000000000000000000000000c02aaa39b223fe8d0a0e5c4f27ead9083c756cc2000000000000000000000000000000000000000000000000000000000000000000000000000000000000000000000000000000000000000000000024f47261b000000000000000000000000089d24a6b4ccb1b6faa2625fe562bdd9a2326035900000000000000000000000000000000000000000000000000000000",
            "debugEnable": true,
            "errorInfo": "",
            "eventCount": 1,
            "feeRecipient": "0xea674fdde714fd979de3edf0f56aa9716b898ec8",
            "formatValue": "0",
            "gasLimit": 190169,
            "gasPrice": "8.8",
            "gasUsed": 75169,
            "intTxnCount": 0,
            "internalRevert": false,
            "internalRevertMessage": "",
            "isContractCreation": false,
            "isFlashloan": false,
            "maxFee": "",
            "nonce": 41142,
            "overwritedBlockNumber": -1,
            "priorityFee": "",
            "receiver": "0x080bf510fcbf18b91105470639e9561022937712",
            "revertMessage": "",
            "sender": "0xffd99af9f7322e78be8dec497df76ef5c2207e04",
            "simulationEnable": true,
            "sourceTxnHash": "0x436667a509f05fc4b830ae8241d013ef7139b3519ebc4b67cd10ad81169d0051",
            "status": true,
            "timestamp": "2019-10-13T20:12:32Z",
            "transactionFee": "0.0006614872",
            "txnHash": "0x436667a509f05fc4b830ae8241d013ef7139b3519ebc4b67cd10ad81169d0051",
            "txnIndex": 2,
            "type": 0,
            "value": "0"
        },
        "fund_flow": [],
        "token_infos": [
            {
                "address": "0xc02aaa39b223fe8d0a0e5c4f27ead9083c756cc2",
                "decimals": 18
            },
            {
                "address": "0xeeeeeeeeeeeeeeeeeeeeeeeeeeeeeeeeeeeeeeee",
                "decimals": 18
            }
        ]
    },
    "address_label": {
        "labels": [
            {
                "address": "0x080bf510fcbf18b91105470639e9561022937712",
                "label": "0x: Exchange v2.1"
            },
            {
                "address": "0x0000000000000000000000000000000000000000",
                "label": "Null Address"
            },
            {
                "address": "0xa258b39954cef5cb142fd567a46cddb31a670124",
                "label": "Radar Relay"
            },
            {
                "address": "0x0000000000000000000000000000000000000001",
                "label": "Precompiled"
            },
            {
                "address": "0x0000000000000000000000000000000000000002",
                "label": "Precompiled"
            },
            {
                "address": "0x0000000000000000000000000000000000000003",
                "label": "Precompiled"
            },
            {
                "address": "0x0000000000000000000000000000000000000004",
                "label": "Precompiled"
            },
            {
                "address": "0xeeeeeeeeeeeeeeeeeeeeeeeeeeeeeeeeeeeeeeee",
                "label": "Ether"
            }
        ]
    },
    "trace": {
        "accountLabels": null,
        "dataMap": {
            "-1": {
                "invocation": {
                    "address": "0xffd99af9f7322e78be8dec497df76ef5c2207e04",
                    "callData": "",
                    "decodedMethod": null,
                    "errorInfo": "",
                    "fromAddress": "",
                    "gasUsed": 0,
                    "id": -1,
                    "methodDecoded": false,
                    "operation": "",
                    "output": "",
                    "revert": false,
                    "revertMessage": "",
                    "selector": "",
                    "status": false,
                    "value": ""
                },
                "nodeType": 0
            },
            "0": {
                "invocation": {
                    "address": "0x080bf510fcbf18b91105470639e9561022937712",
                    "callData": "0x0000000000000000000000000000000000000000000000000000000000000020000000000000000000000000ffd99af9f7322e78be8dec497df76ef5c2207e040000000000000000000000000000000000000000000000000000000000000000000000000000000000000000a258b39954cef5cb142fd567a46cddb31a6701240000000000000000000000000000000000000000000000000000000000000000000000000000000000000000000000000000000000000001a055690d9db8000000000000000000000000000000000000000000000000012c50e2ba76ca58000000000000000000000000000000000000000000000000000000000000000000000000000000000000000000000000000000000000000000000000000000000000000000000000000000000000000000000000000000000000000000005da388ac0000000000000000000000000000000000000000000000000000016dc6c0280a000000000000000000000000000000000000000000000000000000000000018000000000000000000000000000000000000000000000000000000000000001e00000000000000000000000000000000000000000000000000000000000000024f47261b0000000000000000000000000c02aaa39b223fe8d0a0e5c4f27ead9083c756cc2000000000000000000000000000000000000000000000000000000000000000000000000000000000000000000000000000000000000000000000024f47261b000000000000000000000000089d24a6b4ccb1b6faa2625fe562bdd9a2326035900000000000000000000000000000000000000000000000000000000",
                    "decodedMethod": {
                        "callParams": [
                            {
                                "name": "order",
                                "type": "(address,address,address,address,uint256,uint256,uint256,uint256,uint256,uint256,bytes,bytes)",
                                "value": [
                                    {
                                        "name": "makerAddress",
                                        "type": "address",
                                        "value": "0xffd99af9f7322e78be8dec497df76ef5c2207e04"
                                    },
                                    {
                                        "name": "takerAddress",
                                        "type": "address",
                                        "value": "0x0000000000000000000000000000000000000000"
                                    },
                                    {
                                        "name": "feeRecipientAddress",
                                        "type": "address",
                                        "value": "0xa258b39954cef5cb142fd567a46cddb31a670124"
                                    },
                                    {
                                        "name": "senderAddress",
                                        "type": "address",
                                        "value": "0x0000000000000000000000000000000000000000"
                                    },
                                    {
                                        "name": "makerAssetAmount",
                                        "type": "uint256",
                                        "value": "30,000,000,000,000,000,000"
                                    },
                                    {
                                        "name": "takerAssetAmount",
                                        "type": "uint256",
                                        "value": "5,539,851,648,000,000,000,000"
                                    },
                                    {
                                        "name": "makerFee",
                                        "type": "uint256",
                                        "value": "0"
                                    },
                                    {
                                        "name": "takerFee",
                                        "type": "uint256",
                                        "value": "0"
                                    },
                                    {
                                        "name": "expirationTimeSeconds",
                                        "type": "uint256",
                                        "value": "1,570,998,444"
                                    },
                                    {
                                        "name": "salt",
                                        "type": "uint256",
                                        "value": "1,570,997,544,970"
                                    },
                                    {
                                        "name": "makerAssetData",
                                        "type": "bytes",
                                        "value": "0xf47261b0000000000000000000000000c02aaa39b223fe8d0a0e5c4f27ead9083c756cc2"
                                    },
                                    {
                                        "name": "takerAssetData",
                                        "type": "bytes",
                                        "value": "0xf47261b000000000000000000000000089d24a6b4ccb1b6faa2625fe562bdd9a23260359"
                                    }
                                ]
                            }
                        ],
                        "constructorArguments": "",
                        "name": "cancelOrder",
                        "returnParams": [],
                        "signature": "cancelOrder((address,address,address,address,uint256,uint256,uint256,uint256,uint256,uint256,bytes,bytes))"
                    },
                    "errorInfo": "",
                    "fromAddress": "0xffd99af9f7322e78be8dec497df76ef5c2207e04",
                    "gasUsed": 75169,
                    "id": 0,
                    "methodDecoded": true,
                    "operation": "CALL",
                    "output": "",
                    "revert": false,
                    "revertMessage": "",
                    "selector": "0xd46b02c3",
                    "status": true,
                    "value": "0"
                },
                "nodeType": 0
            },
            "1": {
                "event": {
                    "contract": "0x080bf510fcbf18b91105470639e9561022937712",
                    "decodedLog": {
                        "name": "Cancel",
                        "params": [
                            {
                                "name": "makerAddress",
                                "type": "address",
                                "value": "0xffd99af9f7322e78be8dec497df76ef5c2207e04"
                            },
                            {
                                "name": "feeRecipientAddress",
                                "type": "address",
                                "value": "0xa258b39954cef5cb142fd567a46cddb31a670124"
                            },
                            {
                                "name": "orderHash",
                                "type": "bytes32",
                                "value": "0xb5d5dbce6eb1dc7d0d2ac684e41057f29de270866bca3f6faf0f34f085a87526"
                            },
                            {
                                "name": "senderAddress",
                                "type": "address",
                                "value": "0xffd99af9f7322e78be8dec497df76ef5c2207e04"
                            },
                            {
                                "name": "makerAssetData",
                                "type": "bytes",
                                "value": "0xf47261b0000000000000000000000000c02aaa39b223fe8d0a0e5c4f27ead9083c756cc2"
                            },
                            {
                                "name": "takerAssetData",
                                "type": "bytes",
                                "value": "0xf47261b000000000000000000000000089d24a6b4ccb1b6faa2625fe562bdd9a23260359"
                            }
                        ],
                        "signature": "Cancel(address,address,address,bytes32,bytes,bytes)"
                    },
                    "id": 1,
                    "logData": "0x000000000000000000000000ffd99af9f7322e78be8dec497df76ef5c2207e04000000000000000000000000000000000000000000000000000000000000006000000000000000000000000000000000000000000000000000000000000000c00000000000000000000000000000000000000000000000000000000000000024f47261b0000000000000000000000000c02aaa39b223fe8d0a0e5c4f27ead9083c756cc2000000000000000000000000000000000000000000000000000000000000000000000000000000000000000000000000000000000000000000000024f47261b000000000000000000000000089d24a6b4ccb1b6faa2625fe562bdd9a2326035900000000000000000000000000000000000000000000000000000000",
                    "logDecoded": true,
                    "operation": "EVENT",
                    "revert": false,
                    "status": true,
                    "topics": [
                        "0xdc47b3613d9fe400085f6dbdc99453462279057e6207385042827ed6b1a62cf7",
                        "0x000000000000000000000000ffd99af9f7322e78be8dec497df76ef5c2207e04",
                        "0x000000000000000000000000a258b39954cef5cb142fd567a46cddb31a670124",
                        "0xb5d5dbce6eb1dc7d0d2ac684e41057f29de270866bca3f6faf0f34f085a87526"
                    ]
                },
                "nodeType": 1
            }
        },
        "gasFlame": [
            {
                "children": [
                    {
                        "children": [
                            {
                                "children": [],
                                "depth": 0,
                                "name": "Initial Gas",
                                "value": 31384
                            },
                            {
                                "children": [],
                                "depth": 0,
                                "name": "Executed Gas",
                                "value": 58785
                            }
                        ],
                        "depth": -1,
                        "name": "Actual Gas Used",
                        "value": 75169
                    },
                    {
                        "children": [],
                        "depth": -1,
                        "name": "Refunded Gas",
                        "value": 15000
                    }
                ],
                "depth": -2,
                "name": "Total Gas",
                "value": 90169
            }
        ],
        "isConfirmed": true,
        "mainTrace": [
            {
                "children": [
                    {
                        "children": [
                            {
                                "children": [],
                                "depth": 1,
                                "id": 1,
                                "order": 1
                            }
                        ],
                        "depth": 0,
                        "id": 0,
                        "order": 0
                    }
                ],
                "depth": -1,
                "id": -1,
                "order": -1
            }
        ],
        "mainTraceNodeCount": 2,
        "parentIdMap": {
            "0": -1,
            "1": 0
        },
        "tidyTrace": [
            {
                "children": [
                    {
                        "children": [
                            {
                                "children": [],
                                "depth": 1,
                                "id": 1,
                                "order": 1
                            }
                        ],
                        "depth": 0,
                        "id": 0,
                        "order": 0
                    }
                ],
                "depth": -1,
                "id": -1,
                "order": -1
            }
        ],
        "tidyTraceNodeCount": 2
    },
    "state_change": {
        "stateChanges": [
            {
                "address": "0x080bf510fcbf18b91105470639e9561022937712",
                "erc": "",
                "slots": [
                    {
                        "current": "0x0000000000000000000000000000000000000000000000000000000000000001",
                        "key": "0x2affae0fc7273c9e51d8d65e78561a3a996e8e313832fb2bbfff5f23ba9de74e",
                        "prev": "0x0000000000000000000000000000000000000000000000000000000000000000"
                    }
                ],
                "storageVariables": [
                    {
                        "name": "cancelled",
                        "type": "mapping(bytes32 => bool)",
                        "value": {
                            "pairs": [
                                {
                                    "key": "0xb5d5dbce6eb1dc7d0d2ac684e41057f29de270866bca3f6faf0f34f085a87526",
                                    "value": {
                                        "current": "true",
                                        "prev": "false",
                                        "typeTag": 1
                                    }
                                }
                            ],
                            "typeTag": 4
                        }
                    }
                ]
            }
        ]
    }
}