{
    "balance_change": {
        "balanceChanges": [
            {
                "account": "0xf16e9b0d03470827a95cdfd0cb8a8a3b46969b91",
                "assets": [
                    {
                        "address": "0x607f4c5bb672230e8672085532f7e901544a7375",
                        "amount": "67.7",
                        "iconUrl": "https://assets.blocksec.com/icon/3d16cfb8c53a6da83ff11fbd3e3be21da29666cc3d152a6717c6eb60716a0576.png",
                        "isERC1155": false,
                        "isERC721": false,
                        "sign": false,
                        "value": "70.061051491276254664"
                    }
                ]
            },
            {
                "account": "0xd84c86b3946c059ed9209533166025c227078cf6",
                "assets": [
                    {
                        "address": "0x607f4c5bb672230e8672085532f7e901544a7375",
                        "amount": "67.7",
                        "iconUrl": "https://assets.blocksec.com/icon/3d16cfb8c53a6da83ff11fbd3e3be21da29666cc3d152a6717c6eb60716a0576.png",
                        "isERC1155": false,
                        "isERC721": false,
                        "sign": true,
                        "value": "70.061051491276254664"
                    }
                ]
            }
        ]
    },
    "profile": {
        "basic_info": {
            "baseFee": "14.586891277",
            "blockNumber": 16138039,
            "callData": "0xa9059cbb000000000000000000000000d84c86b3946c059ed9209533166025c227078cf60000000000000000000000000000000000000000000000000000000fc33c0500",
            "debugEnable": true,
            "errorInfo": "",
            "eventCount": 1,
            "feeRecipient": "0xdafea492d9c6733ae3d56b7ed1adb60692c98bc5",
            "formatValue": "0",
            "gasLimit": 100000,
            "gasPrice": "17.562030815",
            "gasUsed": 39196,
            "intTxnCount": 0,
            "internalRevert": false,
            "internalRevertMessage": "",
            "isContractCreation": false,
            "isFlashloan": false,
            "maxFee": "34",
            "nonce": 1340558,
            "overwritedBlockNumber": -1,
            "priorityFee": "2.975139538",
            "receiver": "0x607f4c5bb672230e8672085532f7e901544a7375",
            "revertMessage": "",
            "sender": "0xf16e9b0d03470827a95cdfd0cb8a8a3b46969b91",
            "simulationEnable": true,
            "sourceTxnHash": "0x4340cf33575f4f1010233cc9587fde31ca4ca9378f66baf29dd3c157c0cde48a",
            "status": true,
            "timestamp": "2022-12-08T05:55:35Z",
            "transactionFee": "0.00068836135982474",
            "txnHash": "0x4340cf33575f4f1010233cc9587fde31ca4ca9378f66baf29dd3c157c0cde48a",
            "txnIndex": 13,
            "type": 2,
            "value": "0"
        },
        "fund_flow": [
            {
                "amount": "67.7",
                "from": "0xf16e9b0d03470827a95cdfd0cb8a8a3b46969b91",
                "id": 1,
                "isERC1155": false,
                "isERC721": false,
                "isReverted": false,
                "order": 1,
                "to": "0xd84c86b3946c059ed9209533166025c227078cf6",
                "token": "0x607f4c5bb672230e8672085532f7e901544a7375"
            }
        ],
        "token_infos": [
            {
                "address": "0x607f4c5bb672230e8672085532f7e901544a7375",
                "decimals": 9
            },
            {
                "address": "0xc02aaa39b223fe8d0a0e5c4f27ead9083c756cc2",
                "decimals": 18
            },
            {
                "address": "0xeeeeeeeeeeeeeeeeeeeeeeeeeeeeeeeeeeeeeeee",
                "decimals": 18
            }
        ]
    },
    "address_label": {
        "labels": [
            {
                "address": "0x0000000000000000000000000000000000000004",
                "label": "Precompiled"
            },
            {
                "address": "0xeeeeeeeeeeeeeeeeeeeeeeeeeeeeeeeeeeeeeeee",
                "label": "Ether"
            },
            {
                "address": "0x607f4c5bb672230e8672085532f7e901544a7375",
                "label": "RLC Token"
            },
            {
                "address": "0xf16e9b0d03470827a95cdfd0cb8a8a3b46969b91",
                "label": "KuCoin 9"
            },
            {
                "address": "0x0000000000000000000000000000000000000001",
                "label": "Precompiled"
            },
            {
                "address": "0x0000000000000000000000000000000000000002",
                "label": "Precompiled"
            },
            {
                "address": "0x0000000000000000000000000000000000000003",
                "label": "Precompiled"
            }
        ]
    },
    "trace": {
        "accountLabels": null,
        "dataMap": {
            "-1": {
                "invocation": {
                    "address": "0xf16e9b0d03470827a95cdfd0cb8a8a3b46969b91",
                    "callData": "",
                    "decodedMethod": null,
                    "errorInfo": "",
                    "fromAddress": "",
                    "gasUsed": 0,
                    "id": -1,
                    "methodDecoded": false,
                    "operation": "",
                    "output": "",
                    "revert": false,
                    "revertMessage": "",
                    "selector": "",
                    "status": false,
                    "value": ""
                },
                "nodeType": 0
            },
            "0": {
                "invocation": {
                    "address": "0x607f4c5bb672230e8672085532f7e901544a7375",
                    "callData": "0x000000000000000000000000d84c86b3946c059ed9209533166025c227078cf60000000000000000000000000000000000000000000000000000000fc33c0500",
                    "decodedMethod": {
                        "callParams": [
                            {
                                "name": "_to",
                                "type": "address",
                                "value": "0xd84c86b3946c059ed9209533166025c227078cf6"
                            },
                            {
                                "decimalAvailable": true,
                                "name": "_value",
                                "type": "uint256",
                                "value": "67,700,000,000"
                            }
                        ],
                        "constructorArguments": "",
                        "name": "transfer",
                        "returnParams": [
                            {
                                "name": "",
                                "type": "bool",
                                "value": true
                            }
                        ],
                        "signature": "transfer(address,uint256)"
                    },
                    "errorInfo": "",
                    "fromAddress": "0xf16e9b0d03470827a95cdfd0cb8a8a3b46969b91",
                    "gasUsed": 39196,
                    "id": 0,
                    "methodDecoded": true,
                    "operation": "CALL",
                    "output": "0x0000000000000000000000000000000000000000000000000000000000000001",
                    "revert": false,
                    "revertMessage": "",
                    "selector": "0xa9059cbb",
                    "status": true,
                    "value": "0"
                },
                "nodeType": 0
            },
            "1": {
                "event": {
                    "contract": "0x607f4c5bb672230e8672085532f7e901544a7375",
                    "decodedLog": {
                        "name": "Transfer",
                        "params": [
                            {
                                "name": "from",
                                "type": "address",
                                "value": "0xf16e9b0d03470827a95cdfd0cb8a8a3b46969b91"
                            },
                            {
                                "name": "to",
                                "type": "address",
                                "value": "0xd84c86b3946c059ed9209533166025c227078cf6"
                            },
                            {
                                "decimalAvailable": true,
                                "name": "value",
                                "type": "uint256",
                                "value": "67,700,000,000"
                            }
                        ],
                        "signature": "Transfer(address,address,uint256)"
                    },
                    "id": 1,
                    "logData": "0x0000000000000000000000000000000000000000000000000000000fc33c0500",
                    "logDecoded": true,
                    "operation": "EVENT",
                    "revert": false,
                    "status": true,
                    "topics": [
                        "0xddf252ad1be2c89b69c2b068fc378daa952ba7f163c4a11628f55a4df523b3ef",
                        "0x000000000000000000000000f16e9b0d03470827a95cdfd0cb8a8a3b46969b91",
                        "0x000000000000000000000000d84c86b3946c059ed9209533166025c227078cf6"
                    ]
                },
                "nodeType": 1
            }
        },
        "gasFlame": [
            {
                "children": [
                    {
                        "children": [
                            {
                                "children": [],
                                "depth": 0,
                                "name": "Initial Gas",
                                "value": 21608
                            },
                            {
                                "children": [],
                                "depth": 0,
                                "name": "Executed Gas",
                                "value": 17588
                            }
                        ],
                        "depth": -1,
                        "name": "Actual Gas Used",
                        "value": 39196
                    },
                    {
                        "children": [],
                        "depth": -1,
                        "name": "Refunded Gas",
                        "value": 0
                    }
                ],
                "depth": -2,
                "name": "Total Gas",
                "value": 39196
            }
        ],
        "isConfirmed": true,
        "mainTrace": [
            {
                "children": [
                    {
                        "children": [
                            {
                                "children": [],
                                "depth": 1,
                                "id": 1,
                                "order": 1
                            }
                        ],
                        "depth": 0,
                        "id": 0,
                        "order": 0
                    }
                ],
                "depth": -1,
                "id": -1,
                "order": -1
            }
        ],
        "mainTraceNodeCount": 2,
        "parentIdMap": {
            "0": -1,
            "1": 0
        },
        "tidyTrace": [
            {
                "children": [
                    {
                        "children": [
                            {
                                "children": [],
                                "depth": 1,
                                "id": 1,
                                "order": 1
                            }
                        ],
                        "depth": 0,
                        "id": 0,
                        "order": 0
                    }
                ],
                "depth": -1,
                "id": -1,
                "order": -1
            }
        ],
        "tidyTraceNodeCount": 2
    },
    "state_change": {
        "stateChanges": [
            {
                "address": "0x607f4c5bb672230e8672085532f7e901544a7375",
                "erc": "ERC-20",
                "slots": [
                    {
                        "current": "0x000000000000000000000000000000000000000000000000000127ca2108a0c7",
                        "key": "0xaad400adfd2516d7f0b7662797e7349eb95c50d932606e6a40515f82fb773180",
                        "prev": "0x000000000000000000000000000000000000000000000000000127d9e444a5c7"
                    },
                    {
                        "current": "0x000000000000000000000000000000000000000000000000000000159559bf00",
                        "key": "0xf768568f29b5f511e734e02b6f3b14e60164587a1ea1810b2fad6ce510578781",
                        "prev": "0x00000000000000000000000000000000000000000000000000000005d21dba00"
                    }
                ],
                "storageVariables": []
            }
        ]
    }
}