{
    "balance_change": {
        "balanceChanges": [
            {
                "account": "0x2f0a00d74f7ec4da6ec5340bb591b40c1bf12827",
                "assets": [
                    {
                        "address": "0xa0b86991c6218b36c1d19d4a2e9eb0ce3606eb48",
                        "amount": "12.56",
                        "iconUrl": "https://assets.blocksec.com/icon/0347a86cc07dbd03fdc5db01a4e5ac7e1217f90e0b6e4bb0f75cbcca09160989.png",
                        "isERC1155": false,
                        "isERC721": false,
                        "sign": false,
                        "value": "12.556232000000000415"
                    }
                ]
            },
            {
                "account": "0xd54f502e184b6b739d7d27a6410a67dc462d69c8",
                "assets": [
                    {
                        "address": "0xa0b86991c6218b36c1d19d4a2e9eb0ce3606eb48",
                        "amount": "12.56",
                        "iconUrl": "https://assets.blocksec.com/icon/0347a86cc07dbd03fdc5db01a4e5ac7e1217f90e0b6e4bb0f75cbcca09160989.png",
                        "isERC1155": false,
                        "isERC721": false,
                        "sign": true,
                        "value": "12.556232000000000415"
                    }
                ]
            }
        ]
    },
    "profile": {
        "basic_info": {
            "baseFee": "15.108805015",
            "blockNumber": 18468739,
            "callData": "0x27cc37b00000000000000000000000000000000000000000000000000000000000bfa68005d6287e5d82f5381e224efbe8f942317405de612b5801eae076157a838d1b72000000000000000000000000000000000000000000000000000000000005b13900000000000000000000000000000000000000000000000000000000000000800000000000000000000000000000000000000000000000000000000000000041c55541805582c455f30a086d9f546d46d29335a8540d045d9a223be799e5aac8653a3f10ade107c041879c5cc852755da9806500aaa103ef42bbd2fdb1c733cb1c00000000000000000000000000000000000000000000000000000000000000",
            "debugEnable": true,
            "errorInfo": "",
            "eventCount": 4,
            "feeRecipient": "0x4675c7e5baafbffbca748158becba61ef3b0a263",
            "formatValue": "0",
            "gasLimit": 400000,
            "gasPrice": "15.5936255",
            "gasUsed": 179384,
            "intTxnCount": 16,
            "internalRevert": false,
            "internalRevertMessage": "",
            "isContractCreation": false,
            "isFlashloan": false,
            "maxFee": "15.5936255",
            "nonce": 2,
            "overwritedBlockNumber": -1,
            "priorityFee": "15.5936255",
            "receiver": "0x8e8bd01b5a9eb272cc3892a2e40e64a716aa2a40",
            "revertMessage": "",
            "sender": "0x2f0a00d74f7ec4da6ec5340bb591b40c1bf12827",
            "simulationEnable": true,
            "sourceTxnHash": "0x43d826b6421a9a19558bbd69eda0849c380faeac6f7ee18286b9a167912e7b37",
            "status": true,
            "timestamp": "2023-10-31T07:51:47Z",
            "transactionFee": "0.002797246916692",
            "txnHash": "0x43d826b6421a9a19558bbd69eda0849c380faeac6f7ee18286b9a167912e7b37",
            "txnIndex": 26,
            "type": 2,
            "value": "0"
        },
        "fund_flow": [
            {
                "amount": "12.56",
                "from": "0x2f0a00d74f7ec4da6ec5340bb591b40c1bf12827",
                "id": 1,
                "isERC1155": false,
                "isERC721": false,
                "isReverted": false,
                "order": 1,
                "to": "0x8e8bd01b5a9eb272cc3892a2e40e64a716aa2a40",
                "token": "0xa0b86991c6218b36c1d19d4a2e9eb0ce3606eb48"
            },
            {
                "amount": "12.56",
                "from": "0x8e8bd01b5a9eb272cc3892a2e40e64a716aa2a40",
                "id": 2,
                "isERC1155": false,
                "isERC721": false,
                "isReverted": false,
                "order": 2,
                "to": "0xd54f502e184b6b739d7d27a6410a67dc462d69c8",
                "token": "0xa0b86991c6218b36c1d19d4a2e9eb0ce3606eb48"
            }
        ],
        "token_infos": [
            {
                "address": "0xa0b86991c6218b36c1d19d4a2e9eb0ce3606eb48",
                "decimals": 6
            },
            {
                "address": "0xc02aaa39b223fe8d0a0e5c4f27ead9083c756cc2",
                "decimals": 18
            },
            {
                "address": "0xeeeeeeeeeeeeeeeeeeeeeeeeeeeeeeeeeeeeeeee",
                "decimals": 18
            }
        ]
    },
    "address_label": {
        "labels": [
            {
                "address": "0x0000000000000000000000000000000000000005",
                "label": "Null: 0x000...005"
            },
            {
                "address": "0xd54f502e184b6b739d7d27a6410a67dc462d69c8",
                "label": "dYdX: L2 Perpetual Smart Contract"
            },
            {
                "address": "0x2c0df87e073755139101b35c0a51e065291cc2d3",
                "label": "dydx: Bridge"
            },
            {
                "address": "0x0000000000000000000000000000000000000002",
                "label": "Precompiled"
            },
            {
                "address": "0x0000000000000000000000000000000000000003",
                "label": "Precompiled"
            },
            {
                "address": "0x0000000000000000000000000000000000000004",
                "label": "Precompiled"
            },
            {
                "address": "0xeeeeeeeeeeeeeeeeeeeeeeeeeeeeeeeeeeeeeeee",
                "label": "Ether"
            },
            {
                "address": "0xa2327a938febf5fec13bacfb16ae10ecbc4cbdcf",
                "label": "FiatTokenV2_1"
            },
            {
                "address": "0x8e8bd01b5a9eb272cc3892a2e40e64a716aa2a40",
                "label": "dYdX: Currency Convertor"
            },
            {
                "address": "0x3fed7bf5bf3e738bc30fbe61b048fdcb82368545",
                "label": "PerpetualTokensAndRamping"
            },
            {
                "address": "0xa0b86991c6218b36c1d19d4a2e9eb0ce3606eb48",
                "label": "Circle: USDC Token"
            },
            {
                "address": "0x0000000000000000000000000000000000000001",
                "label": "Precompiled"
            }
        ]
    },
    "trace": {
        "accountLabels": null,
        "dataMap": {
            "-1": {
                "invocation": {
                    "address": "0x2f0a00d74f7ec4da6ec5340bb591b40c1bf12827",
                    "callData": "",
                    "decodedMethod": null,
                    "errorInfo": "",
                    "fromAddress": "",
                    "gasUsed": 0,
                    "id": -1,
                    "methodDecoded": false,
                    "operation": "",
                    "output": "",
                    "revert": false,
                    "revertMessage": "",
                    "selector": "",
                    "status": false,
                    "value": ""
                },
                "nodeType": 0
            },
            "0": {
                "invocation": {
                    "address": "0x8e8bd01b5a9eb272cc3892a2e40e64a716aa2a40",
                    "callData": "0x0000000000000000000000000000000000000000000000000000000000bfa68005d6287e5d82f5381e224efbe8f942317405de612b5801eae076157a838d1b72000000000000000000000000000000000000000000000000000000000005b13900000000000000000000000000000000000000000000000000000000000000800000000000000000000000000000000000000000000000000000000000000041c55541805582c455f30a086d9f546d46d29335a8540d045d9a223be799e5aac8653a3f10ade107c041879c5cc852755da9806500aaa103ef42bbd2fdb1c733cb1c00000000000000000000000000000000000000000000000000000000000000",
                    "decodedMethod": {
                        "callParams": [
                            {
                                "name": "depositAmount",
                                "type": "uint256",
                                "value": "12,560,000"
                            },
                            {
                                "name": "starkKey",
                                "type": "uint256",
                                "value": "2,639,948,991,433,973,947,295,740,142,007,972,306,655,733,756,351,270,414,316,843,828,174,346,066,802"
                            },
                            {
                                "name": "positionId",
                                "type": "uint256",
                                "value": "373,049"
                            },
                            {
                                "name": "signature",
                                "type": "bytes",
                                "value": "0xc55541805582c455f30a086d9f546d46d29335a8540d045d9a223be799e5aac8653a3f10ade107c041879c5cc852755da9806500aaa103ef42bbd2fdb1c733cb1c"
                            }
                        ],
                        "constructorArguments": "",
                        "name": "deposit",
                        "returnParams": [],
                        "signature": "deposit(uint256,uint256,uint256,bytes)"
                    },
                    "errorInfo": "",
                    "fromAddress": "0x2f0a00d74f7ec4da6ec5340bb591b40c1bf12827",
                    "gasUsed": 179384,
                    "id": 0,
                    "methodDecoded": true,
                    "operation": "CALL",
                    "output": "",
                    "revert": false,
                    "revertMessage": "",
                    "selector": "0x27cc37b0",
                    "status": true,
                    "value": "0"
                },
                "nodeType": 0
            },
            "1": {
                "invocation": {
                    "address": "0xd54f502e184b6b739d7d27a6410a67dc462d69c8",
                    "callData": "0x0000000000000000000000002f0a00d74f7ec4da6ec5340bb591b40c1bf1282705d6287e5d82f5381e224efbe8f942317405de612b5801eae076157a838d1b7200000000000000000000000000000000000000000000000000000000000000600000000000000000000000000000000000000000000000000000000000000041c55541805582c455f30a086d9f546d46d29335a8540d045d9a223be799e5aac8653a3f10ade107c041879c5cc852755da9806500aaa103ef42bbd2fdb1c733cb1c00000000000000000000000000000000000000000000000000000000000000",
                    "decodedMethod": {
                        "callParams": [
                            {
                                "name": "ethKey",
                                "type": "address",
                                "value": "0x2f0a00d74f7ec4da6ec5340bb591b40c1bf12827"
                            },
                            {
                                "name": "starkKey",
                                "type": "uint256",
                                "value": "2,639,948,991,433,973,947,295,740,142,007,972,306,655,733,756,351,270,414,316,843,828,174,346,066,802"
                            },
                            {
                                "name": "signature",
                                "type": "bytes",
                                "value": "0xc55541805582c455f30a086d9f546d46d29335a8540d045d9a223be799e5aac8653a3f10ade107c041879c5cc852755da9806500aaa103ef42bbd2fdb1c733cb1c"
                            }
                        ],
                        "constructorArguments": "",
                        "name": "registerUser",
                        "returnParams": [],
                        "signature": "registerUser(address,uint256,bytes)"
                    },
                    "errorInfo": "",
                    "fromAddress": "0x8e8bd01b5a9eb272cc3892a2e40e64a716aa2a40",
                    "gasUsed": 44493,
                    "id": 1,
                    "methodDecoded": true,
                    "operation": "CALL",
                    "output": "",
                    "revert": false,
                    "revertMessage": "",
                    "selector": "0xdd2414d4",
                    "status": true,
                    "value": "0"
                },
                "nodeType": 0
            },
            "10": {
                "invocation": {
                    "address": "0xd54f502e184b6b739d7d27a6410a67dc462d69c8",
                    "callData": "0x05d6287e5d82f5381e224efbe8f942317405de612b5801eae076157a838d1b7202893294412a4c8f915f75892b395ebbf6859ec246ec365c3b1f56f47c3a0a5d000000000000000000000000000000000000000000000000000000000005b1390000000000000000000000000000000000000000000000000000000000bfa680",
                    "decodedMethod": {
                        "callParams": [
                            {
                                "name": "starkKey",
                                "type": "uint256",
                                "value": "2,639,948,991,433,973,947,295,740,142,007,972,306,655,733,756,351,270,414,316,843,828,174,346,066,802"
                            },
                            {
                                "name": "assetType",
                                "type": "uint256",
                                "value": "1,147,032,829,293,317,481,173,155,891,309,375,254,605,214,077,236,177,772,270,270,553,197,624,560,221"
                            },
                            {
                                "name": "vaultId",
                                "type": "uint256",
                                "value": "373,049"
                            },
                            {
                                "name": "quantizedAmount",
                                "type": "uint256",
                                "value": "12,560,000"
                            }
                        ],
                        "constructorArguments": "",
                        "name": "deposit",
                        "returnParams": [],
                        "signature": "deposit(uint256,uint256,uint256,uint256)"
                    },
                    "errorInfo": "",
                    "fromAddress": "0x8e8bd01b5a9eb272cc3892a2e40e64a716aa2a40",
                    "gasUsed": 68240,
                    "id": 10,
                    "methodDecoded": true,
                    "operation": "CALL",
                    "output": "",
                    "revert": false,
                    "revertMessage": "",
                    "selector": "0x2505c3d9",
                    "status": true,
                    "value": "0"
                },
                "nodeType": 0
            },
            "11": {
                "invocation": {
                    "address": "0x2c0df87e073755139101b35c0a51e065291cc2d3",
                    "callData": "0x05d6287e5d82f5381e224efbe8f942317405de612b5801eae076157a838d1b7202893294412a4c8f915f75892b395ebbf6859ec246ec365c3b1f56f47c3a0a5d000000000000000000000000000000000000000000000000000000000005b1390000000000000000000000000000000000000000000000000000000000bfa680",
                    "decodedMethod": {
                        "callParams": [
                            {
                                "name": "starkKey",
                                "type": "uint256",
                                "value": "2,639,948,991,433,973,947,295,740,142,007,972,306,655,733,756,351,270,414,316,843,828,174,346,066,802"
                            },
                            {
                                "name": "assetType",
                                "type": "uint256",
                                "value": "1,147,032,829,293,317,481,173,155,891,309,375,254,605,214,077,236,177,772,270,270,553,197,624,560,221"
                            },
                            {
                                "name": "vaultId",
                                "type": "uint256",
                                "value": "373,049"
                            },
                            {
                                "name": "quantizedAmount",
                                "type": "uint256",
                                "value": "12,560,000"
                            }
                        ],
                        "constructorArguments": "",
                        "name": "deposit",
                        "returnParams": [],
                        "signature": "deposit(uint256,uint256,uint256,uint256)"
                    },
                    "errorInfo": "",
                    "fromAddress": "0xd54f502e184b6b739d7d27a6410a67dc462d69c8",
                    "gasUsed": 67652,
                    "id": 11,
                    "methodDecoded": true,
                    "operation": "DELEGATECALL",
                    "output": "",
                    "revert": false,
                    "revertMessage": "",
                    "selector": "0x2505c3d9",
                    "status": true,
                    "value": "0"
                },
                "nodeType": 0
            },
            "12": {
                "invocation": {
                    "address": "0x3fed7bf5bf3e738bc30fbe61b048fdcb82368545",
                    "callData": "0x05d6287e5d82f5381e224efbe8f942317405de612b5801eae076157a838d1b7202893294412a4c8f915f75892b395ebbf6859ec246ec365c3b1f56f47c3a0a5d000000000000000000000000000000000000000000000000000000000005b1390000000000000000000000000000000000000000000000000000000000bfa680",
                    "decodedMethod": {
                        "callParams": [
                            {
                                "name": "starkKey",
                                "type": "uint256",
                                "value": "2,639,948,991,433,973,947,295,740,142,007,972,306,655,733,756,351,270,414,316,843,828,174,346,066,802"
                            },
                            {
                                "name": "assetType",
                                "type": "uint256",
                                "value": "1,147,032,829,293,317,481,173,155,891,309,375,254,605,214,077,236,177,772,270,270,553,197,624,560,221"
                            },
                            {
                                "name": "vaultId",
                                "type": "uint256",
                                "value": "373,049"
                            },
                            {
                                "name": "quantizedAmount",
                                "type": "uint256",
                                "value": "12,560,000"
                            }
                        ],
                        "constructorArguments": "",
                        "name": "deposit",
                        "returnParams": [],
                        "signature": "deposit(uint256,uint256,uint256,uint256)"
                    },
                    "errorInfo": "",
                    "fromAddress": "0xd54f502e184b6b739d7d27a6410a67dc462d69c8",
                    "gasUsed": 66573,
                    "id": 12,
                    "methodDecoded": true,
                    "operation": "DELEGATECALL",
                    "output": "",
                    "revert": false,
                    "revertMessage": "",
                    "selector": "0x2505c3d9",
                    "status": true,
                    "value": "0"
                },
                "nodeType": 0
            },
            "13": {
                "invocation": {
                    "address": "0xa0b86991c6218b36c1d19d4a2e9eb0ce3606eb48",
                    "callData": "0x000000000000000000000000d54f502e184b6b739d7d27a6410a67dc462d69c8",
                    "decodedMethod": {
                        "callParams": [
                            {
                                "name": "account",
                                "type": "address",
                                "value": "0xd54f502e184b6b739d7d27a6410a67dc462d69c8"
                            }
                        ],
                        "constructorArguments": "",
                        "name": "balanceOf",
                        "returnParams": [
                            {
                                "decimalAvailable": true,
                                "name": "",
                                "type": "uint256",
                                "value": "355,613,512,437,766"
                            }
                        ],
                        "signature": "balanceOf(address)"
                    },
                    "errorInfo": "",
                    "fromAddress": "0xd54f502e184b6b739d7d27a6410a67dc462d69c8",
                    "gasUsed": 3315,
                    "id": 13,
                    "methodDecoded": true,
                    "operation": "STATICCALL",
                    "output": "0x0000000000000000000000000000000000000000000000000001436db9161006",
                    "revert": false,
                    "revertMessage": "",
                    "selector": "0x70a08231",
                    "status": true,
                    "value": "0"
                },
                "nodeType": 0
            },
            "14": {
                "invocation": {
                    "address": "0xa2327a938febf5fec13bacfb16ae10ecbc4cbdcf",
                    "callData": "0x000000000000000000000000d54f502e184b6b739d7d27a6410a67dc462d69c8",
                    "decodedMethod": {
                        "callParams": [
                            {
                                "name": "account",
                                "type": "address",
                                "value": "0xd54f502e184b6b739d7d27a6410a67dc462d69c8"
                            }
                        ],
                        "constructorArguments": "",
                        "name": "balanceOf",
                        "returnParams": [
                            {
                                "decimalAvailable": true,
                                "name": "",
                                "type": "uint256",
                                "value": "355,613,512,437,766"
                            }
                        ],
                        "signature": "balanceOf(address)"
                    },
                    "errorInfo": "",
                    "fromAddress": "0xa0b86991c6218b36c1d19d4a2e9eb0ce3606eb48",
                    "gasUsed": 2529,
                    "id": 14,
                    "methodDecoded": true,
                    "operation": "DELEGATECALL",
                    "output": "0x0000000000000000000000000000000000000000000000000001436db9161006",
                    "revert": false,
                    "revertMessage": "",
                    "selector": "0x70a08231",
                    "status": true,
                    "value": "0"
                },
                "nodeType": 0
            },
            "15": {
                "invocation": {
                    "address": "0xa0b86991c6218b36c1d19d4a2e9eb0ce3606eb48",
                    "callData": "0x0000000000000000000000008e8bd01b5a9eb272cc3892a2e40e64a716aa2a40000000000000000000000000d54f502e184b6b739d7d27a6410a67dc462d69c80000000000000000000000000000000000000000000000000000000000bfa680",
                    "decodedMethod": {
                        "callParams": [
                            {
                                "name": "from",
                                "type": "address",
                                "value": "0x8e8bd01b5a9eb272cc3892a2e40e64a716aa2a40"
                            },
                            {
                                "name": "to",
                                "type": "address",
                                "value": "0xd54f502e184b6b739d7d27a6410a67dc462d69c8"
                            },
                            {
                                "decimalAvailable": true,
                                "name": "value",
                                "type": "uint256",
                                "value": "12,560,000"
                            }
                        ],
                        "constructorArguments": "",
                        "name": "transferFrom",
                        "returnParams": [
                            {
                                "name": "",
                                "type": "bool",
                                "value": true
                            }
                        ],
                        "signature": "transferFrom(address,address,uint256)"
                    },
                    "errorInfo": "",
                    "fromAddress": "0xd54f502e184b6b739d7d27a6410a67dc462d69c8",
                    "gasUsed": 15592,
                    "id": 15,
                    "methodDecoded": true,
                    "operation": "CALL",
                    "output": "0x0000000000000000000000000000000000000000000000000000000000000001",
                    "revert": false,
                    "revertMessage": "",
                    "selector": "0x23b872dd",
                    "status": true,
                    "value": "0"
                },
                "nodeType": 0
            },
            "16": {
                "invocation": {
                    "address": "0xa2327a938febf5fec13bacfb16ae10ecbc4cbdcf",
                    "callData": "0x0000000000000000000000008e8bd01b5a9eb272cc3892a2e40e64a716aa2a40000000000000000000000000d54f502e184b6b739d7d27a6410a67dc462d69c80000000000000000000000000000000000000000000000000000000000bfa680",
                    "decodedMethod": {
                        "callParams": [
                            {
                                "name": "from",
                                "type": "address",
                                "value": "0x8e8bd01b5a9eb272cc3892a2e40e64a716aa2a40"
                            },
                            {
                                "name": "to",
                                "type": "address",
                                "value": "0xd54f502e184b6b739d7d27a6410a67dc462d69c8"
                            },
                            {
                                "decimalAvailable": true,
                                "name": "value",
                                "type": "uint256",
                                "value": "12,560,000"
                            }
                        ],
                        "constructorArguments": "",
                        "name": "transferFrom",
                        "returnParams": [
                            {
                                "name": "",
                                "type": "bool",
                                "value": true
                            }
                        ],
                        "signature": "transferFrom(address,address,uint256)"
                    },
                    "errorInfo": "",
                    "fromAddress": "0xa0b86991c6218b36c1d19d4a2e9eb0ce3606eb48",
                    "gasUsed": 14797,
                    "id": 16,
                    "methodDecoded": true,
                    "operation": "DELEGATECALL",
                    "output": "0x0000000000000000000000000000000000000000000000000000000000000001",
                    "revert": false,
                    "revertMessage": "",
                    "selector": "0x23b872dd",
                    "status": true,
                    "value": "0"
                },
                "nodeType": 0
            },
            "17": {
                "event": {
                    "contract": "0xa0b86991c6218b36c1d19d4a2e9eb0ce3606eb48",
                    "decodedLog": {
                        "name": "Transfer",
                        "params": [
                            {
                                "name": "from",
                                "type": "address",
                                "value": "0x8e8bd01b5a9eb272cc3892a2e40e64a716aa2a40"
                            },
                            {
                                "name": "to",
                                "type": "address",
                                "value": "0xd54f502e184b6b739d7d27a6410a67dc462d69c8"
                            },
                            {
                                "decimalAvailable": true,
                                "name": "value",
                                "type": "uint256",
                                "value": "12,560,000"
                            }
                        ],
                        "signature": "Transfer(address,address,uint256)"
                    },
                    "id": 17,
                    "logData": "0x0000000000000000000000000000000000000000000000000000000000bfa680",
                    "logDecoded": true,
                    "operation": "EVENT",
                    "revert": false,
                    "status": true,
                    "topics": [
                        "0xddf252ad1be2c89b69c2b068fc378daa952ba7f163c4a11628f55a4df523b3ef",
                        "0x0000000000000000000000008e8bd01b5a9eb272cc3892a2e40e64a716aa2a40",
                        "0x000000000000000000000000d54f502e184b6b739d7d27a6410a67dc462d69c8"
                    ]
                },
                "nodeType": 1
            },
            "18": {
                "invocation": {
                    "address": "0xa0b86991c6218b36c1d19d4a2e9eb0ce3606eb48",
                    "callData": "0x000000000000000000000000d54f502e184b6b739d7d27a6410a67dc462d69c8",
                    "decodedMethod": {
                        "callParams": [
                            {
                                "name": "account",
                                "type": "address",
                                "value": "0xd54f502e184b6b739d7d27a6410a67dc462d69c8"
                            }
                        ],
                        "constructorArguments": "",
                        "name": "balanceOf",
                        "returnParams": [
                            {
                                "decimalAvailable": true,
                                "name": "",
                                "type": "uint256",
                                "value": "355,613,524,997,766"
                            }
                        ],
                        "signature": "balanceOf(address)"
                    },
                    "errorInfo": "",
                    "fromAddress": "0xd54f502e184b6b739d7d27a6410a67dc462d69c8",
                    "gasUsed": 1315,
                    "id": 18,
                    "methodDecoded": true,
                    "operation": "STATICCALL",
                    "output": "0x0000000000000000000000000000000000000000000000000001436db9d5b686",
                    "revert": false,
                    "revertMessage": "",
                    "selector": "0x70a08231",
                    "status": true,
                    "value": "0"
                },
                "nodeType": 0
            },
            "19": {
                "invocation": {
                    "address": "0xa2327a938febf5fec13bacfb16ae10ecbc4cbdcf",
                    "callData": "0x000000000000000000000000d54f502e184b6b739d7d27a6410a67dc462d69c8",
                    "decodedMethod": {
                        "callParams": [
                            {
                                "name": "account",
                                "type": "address",
                                "value": "0xd54f502e184b6b739d7d27a6410a67dc462d69c8"
                            }
                        ],
                        "constructorArguments": "",
                        "name": "balanceOf",
                        "returnParams": [
                            {
                                "decimalAvailable": true,
                                "name": "",
                                "type": "uint256",
                                "value": "355,613,524,997,766"
                            }
                        ],
                        "signature": "balanceOf(address)"
                    },
                    "errorInfo": "",
                    "fromAddress": "0xa0b86991c6218b36c1d19d4a2e9eb0ce3606eb48",
                    "gasUsed": 529,
                    "id": 19,
                    "methodDecoded": true,
                    "operation": "DELEGATECALL",
                    "output": "0x0000000000000000000000000000000000000000000000000001436db9d5b686",
                    "revert": false,
                    "revertMessage": "",
                    "selector": "0x70a08231",
                    "status": true,
                    "value": "0"
                },
                "nodeType": 0
            },
            "2": {
                "invocation": {
                    "address": "0x2c0df87e073755139101b35c0a51e065291cc2d3",
                    "callData": "0x0000000000000000000000002f0a00d74f7ec4da6ec5340bb591b40c1bf1282705d6287e5d82f5381e224efbe8f942317405de612b5801eae076157a838d1b7200000000000000000000000000000000000000000000000000000000000000600000000000000000000000000000000000000000000000000000000000000041c55541805582c455f30a086d9f546d46d29335a8540d045d9a223be799e5aac8653a3f10ade107c041879c5cc852755da9806500aaa103ef42bbd2fdb1c733cb1c00000000000000000000000000000000000000000000000000000000000000",
                    "decodedMethod": {
                        "callParams": [
                            {
                                "name": "ethKey",
                                "type": "address",
                                "value": "0x2f0a00d74f7ec4da6ec5340bb591b40c1bf12827"
                            },
                            {
                                "name": "starkKey",
                                "type": "uint256",
                                "value": "2,639,948,991,433,973,947,295,740,142,007,972,306,655,733,756,351,270,414,316,843,828,174,346,066,802"
                            },
                            {
                                "name": "signature",
                                "type": "bytes",
                                "value": "0xc55541805582c455f30a086d9f546d46d29335a8540d045d9a223be799e5aac8653a3f10ade107c041879c5cc852755da9806500aaa103ef42bbd2fdb1c733cb1c"
                            }
                        ],
                        "constructorArguments": "",
                        "name": "registerUser",
                        "returnParams": [],
                        "signature": "registerUser(address,uint256,bytes)"
                    },
                    "errorInfo": "",
                    "fromAddress": "0xd54f502e184b6b739d7d27a6410a67dc462d69c8",
                    "gasUsed": 39355,
                    "id": 2,
                    "methodDecoded": true,
                    "operation": "DELEGATECALL",
                    "output": "",
                    "revert": false,
                    "revertMessage": "",
                    "selector": "0xdd2414d4",
                    "status": true,
                    "value": "0"
                },
                "nodeType": 0
            },
            "20": {
                "event": {
                    "contract": "0xd54f502e184b6b739d7d27a6410a67dc462d69c8",
                    "decodedLog": {
                        "name": "LogDeposit",
                        "params": [
                            {
                                "name": "depositorEthKey",
                                "type": "address",
                                "value": "0x8e8bd01b5a9eb272cc3892a2e40e64a716aa2a40"
                            },
                            {
                                "name": "starkKey",
                                "type": "uint256",
                                "value": "2,639,948,991,433,973,947,295,740,142,007,972,306,655,733,756,351,270,414,316,843,828,174,346,066,802"
                            },
                            {
                                "name": "vaultId",
                                "type": "uint256",
                                "value": "373,049"
                            },
                            {
                                "name": "assetType",
                                "type": "uint256",
                                "value": "1,147,032,829,293,317,481,173,155,891,309,375,254,605,214,077,236,177,772,270,270,553,197,624,560,221"
                            },
                            {
                                "name": "nonQuantizedAmount",
                                "type": "uint256",
                                "value": "12,560,000"
                            },
                            {
                                "name": "quantizedAmount",
                                "type": "uint256",
                                "value": "12,560,000"
                            }
                        ],
                        "signature": "LogDeposit(address,uint256,uint256,uint256,uint256,uint256)"
                    },
                    "id": 20,
                    "logData": "0x0000000000000000000000008e8bd01b5a9eb272cc3892a2e40e64a716aa2a4005d6287e5d82f5381e224efbe8f942317405de612b5801eae076157a838d1b72000000000000000000000000000000000000000000000000000000000005b13902893294412a4c8f915f75892b395ebbf6859ec246ec365c3b1f56f47c3a0a5d0000000000000000000000000000000000000000000000000000000000bfa6800000000000000000000000000000000000000000000000000000000000bfa680",
                    "logDecoded": true,
                    "operation": "EVENT",
                    "revert": false,
                    "status": true,
                    "topics": [
                        "0x06724742ccc8c330a39a641ef02a0b419bd09248360680bb38159b0a8c2635d6"
                    ]
                },
                "nodeType": 1
            },
            "3": {
                "invocation": {
                    "address": "0x3fed7bf5bf3e738bc30fbe61b048fdcb82368545",
                    "callData": "0x0000000000000000000000002f0a00d74f7ec4da6ec5340bb591b40c1bf1282705d6287e5d82f5381e224efbe8f942317405de612b5801eae076157a838d1b7200000000000000000000000000000000000000000000000000000000000000600000000000000000000000000000000000000000000000000000000000000041c55541805582c455f30a086d9f546d46d29335a8540d045d9a223be799e5aac8653a3f10ade107c041879c5cc852755da9806500aaa103ef42bbd2fdb1c733cb1c00000000000000000000000000000000000000000000000000000000000000",
                    "decodedMethod": {
                        "callParams": [
                            {
                                "name": "ethKey",
                                "type": "address",
                                "value": "0x2f0a00d74f7ec4da6ec5340bb591b40c1bf12827"
                            },
                            {
                                "name": "starkKey",
                                "type": "uint256",
                                "value": "2,639,948,991,433,973,947,295,740,142,007,972,306,655,733,756,351,270,414,316,843,828,174,346,066,802"
                            },
                            {
                                "name": "signature",
                                "type": "bytes",
                                "value": "0xc55541805582c455f30a086d9f546d46d29335a8540d045d9a223be799e5aac8653a3f10ade107c041879c5cc852755da9806500aaa103ef42bbd2fdb1c733cb1c"
                            }
                        ],
                        "constructorArguments": "",
                        "name": "registerUser",
                        "returnParams": [],
                        "signature": "registerUser(address,uint256,bytes)"
                    },
                    "errorInfo": "",
                    "fromAddress": "0xd54f502e184b6b739d7d27a6410a67dc462d69c8",
                    "gasUsed": 33816,
                    "id": 3,
                    "methodDecoded": true,
                    "operation": "DELEGATECALL",
                    "output": "",
                    "revert": false,
                    "revertMessage": "",
                    "selector": "0xdd2414d4",
                    "status": true,
                    "value": "0"
                },
                "nodeType": 0
            },
            "4": {
                "invocation": {
                    "address": "0x0000000000000000000000000000000000000005",
                    "callData": "0x000000000000000000000000000000000000000000000000000000200000000000000000000000000000000000000000000000000000000000000020000000000000000000000000000000000000000000000000000000000000002002a25cd819a4f13a700ce97a0ef1bdcd9cb8a5a72e477e5c2f1f396ada86b09804000000000000088000000000000000000000000000000000000000000000000800000000000011000000000000000000000000000000000000000000000001",
                    "decodedMethod": {
                        "callParams": [],
                        "constructorArguments": "",
                        "name": "ROOT4146650865",
                        "returnParams": [
                            {
                                "name": "",
                                "type": "bytes4",
                                "value": "0x00000000"
                            }
                        ],
                        "signature": "ROOT4146650865()"
                    },
                    "errorInfo": "",
                    "fromAddress": "0xd54f502e184b6b739d7d27a6410a67dc462d69c8",
                    "gasUsed": 1333,
                    "id": 4,
                    "methodDecoded": true,
                    "operation": "STATICCALL",
                    "output": "0x0000000000000000000000000000000000000000000000000000000000000001",
                    "revert": false,
                    "revertMessage": "",
                    "selector": "0x00000000",
                    "status": true,
                    "value": "0"
                },
                "nodeType": 0
            },
            "5": {
                "invocation": {
                    "address": "0x0000000000000000000000000000000000000001",
                    "callData": "0xf13ed796e52fcd283757724b4f11dc19bbea7545c243388c0a6f7f83000000000000000000000000000000000000000000000000000000000000001cc55541805582c455f30a086d9f546d46d29335a8540d045d9a223be799e5aac8653a3f10ade107c041879c5cc852755da9806500aaa103ef42bbd2fdb1c733cb",
                    "decodedMethod": {
                        "callParams": [
                            {
                                "name": "hash",
                                "type": "bytes32",
                                "value": "0xd4d249c6f13ed796e52fcd283757724b4f11dc19bbea7545c243388c0a6f7f83"
                            },
                            {
                                "name": "v",
                                "type": "uint256",
                                "value": "28"
                            },
                            {
                                "name": "r",
                                "type": "bytes32",
                                "value": "0xc55541805582c455f30a086d9f546d46d29335a8540d045d9a223be799e5aac8"
                            },
                            {
                                "name": "s",
                                "type": "bytes32",
                                "value": "0x653a3f10ade107c041879c5cc852755da9806500aaa103ef42bbd2fdb1c733cb"
                            }
                        ],
                        "constructorArguments": "",
                        "name": "ecrecover",
                        "returnParams": [
                            {
                                "name": "",
                                "type": "address",
                                "value": "0xa061d096f156ceff748a55e28b317bd26cd0a2a5"
                            }
                        ],
                        "signature": "ecrecover(bytes32,uint256,bytes32,bytes32)"
                    },
                    "errorInfo": "",
                    "fromAddress": "0xd54f502e184b6b739d7d27a6410a67dc462d69c8",
                    "gasUsed": 3000,
                    "id": 5,
                    "methodDecoded": true,
                    "operation": "STATICCALL",
                    "output": "0x000000000000000000000000a061d096f156ceff748a55e28b317bd26cd0a2a5",
                    "revert": false,
                    "revertMessage": "",
                    "selector": "0xd4d249c6",
                    "status": true,
                    "value": "0"
                },
                "nodeType": 0
            },
            "6": {
                "event": {
                    "contract": "0xd54f502e184b6b739d7d27a6410a67dc462d69c8",
                    "decodedLog": {
                        "name": "LogUserRegistered",
                        "params": [
                            {
                                "name": "ethKey",
                                "type": "address",
                                "value": "0x2f0a00d74f7ec4da6ec5340bb591b40c1bf12827"
                            },
                            {
                                "name": "starkKey",
                                "type": "uint256",
                                "value": "2,639,948,991,433,973,947,295,740,142,007,972,306,655,733,756,351,270,414,316,843,828,174,346,066,802"
                            },
                            {
                                "name": "sender",
                                "type": "address",
                                "value": "0x8e8bd01b5a9eb272cc3892a2e40e64a716aa2a40"
                            }
                        ],
                        "signature": "LogUserRegistered(address,uint256,address)"
                    },
                    "id": 6,
                    "logData": "0x0000000000000000000000002f0a00d74f7ec4da6ec5340bb591b40c1bf1282705d6287e5d82f5381e224efbe8f942317405de612b5801eae076157a838d1b720000000000000000000000008e8bd01b5a9eb272cc3892a2e40e64a716aa2a40",
                    "logDecoded": true,
                    "operation": "EVENT",
                    "revert": false,
                    "status": true,
                    "topics": [
                        "0xcab1cf17c190e4e2195a7b8f7b362023246fa774390432b4704ab6b29d56b07b"
                    ]
                },
                "nodeType": 1
            },
            "7": {
                "invocation": {
                    "address": "0xa0b86991c6218b36c1d19d4a2e9eb0ce3606eb48",
                    "callData": "0x0000000000000000000000002f0a00d74f7ec4da6ec5340bb591b40c1bf128270000000000000000000000008e8bd01b5a9eb272cc3892a2e40e64a716aa2a400000000000000000000000000000000000000000000000000000000000bfa680",
                    "decodedMethod": {
                        "callParams": [
                            {
                                "name": "from",
                                "type": "address",
                                "value": "0x2f0a00d74f7ec4da6ec5340bb591b40c1bf12827"
                            },
                            {
                                "name": "to",
                                "type": "address",
                                "value": "0x8e8bd01b5a9eb272cc3892a2e40e64a716aa2a40"
                            },
                            {
                                "decimalAvailable": true,
                                "name": "value",
                                "type": "uint256",
                                "value": "12,560,000"
                            }
                        ],
                        "constructorArguments": "",
                        "name": "transferFrom",
                        "returnParams": [
                            {
                                "name": "",
                                "type": "bool",
                                "value": true
                            }
                        ],
                        "signature": "transferFrom(address,address,uint256)"
                    },
                    "errorInfo": "",
                    "fromAddress": "0x8e8bd01b5a9eb272cc3892a2e40e64a716aa2a40",
                    "gasUsed": 49992,
                    "id": 7,
                    "methodDecoded": true,
                    "operation": "CALL",
                    "output": "0x0000000000000000000000000000000000000000000000000000000000000001",
                    "revert": false,
                    "revertMessage": "",
                    "selector": "0x23b872dd",
                    "status": true,
                    "value": "0"
                },
                "nodeType": 0
            },
            "8": {
                "invocation": {
                    "address": "0xa2327a938febf5fec13bacfb16ae10ecbc4cbdcf",
                    "callData": "0x0000000000000000000000002f0a00d74f7ec4da6ec5340bb591b40c1bf128270000000000000000000000008e8bd01b5a9eb272cc3892a2e40e64a716aa2a400000000000000000000000000000000000000000000000000000000000bfa680",
                    "decodedMethod": {
                        "callParams": [
                            {
                                "name": "from",
                                "type": "address",
                                "value": "0x2f0a00d74f7ec4da6ec5340bb591b40c1bf12827"
                            },
                            {
                                "name": "to",
                                "type": "address",
                                "value": "0x8e8bd01b5a9eb272cc3892a2e40e64a716aa2a40"
                            },
                            {
                                "decimalAvailable": true,
                                "name": "value",
                                "type": "uint256",
                                "value": "12,560,000"
                            }
                        ],
                        "constructorArguments": "",
                        "name": "transferFrom",
                        "returnParams": [
                            {
                                "name": "",
                                "type": "bool",
                                "value": true
                            }
                        ],
                        "signature": "transferFrom(address,address,uint256)"
                    },
                    "errorInfo": "",
                    "fromAddress": "0xa0b86991c6218b36c1d19d4a2e9eb0ce3606eb48",
                    "gasUsed": 42697,
                    "id": 8,
                    "methodDecoded": true,
                    "operation": "DELEGATECALL",
                    "output": "0x0000000000000000000000000000000000000000000000000000000000000001",
                    "revert": false,
                    "revertMessage": "",
                    "selector": "0x23b872dd",
                    "status": true,
                    "value": "0"
                },
                "nodeType": 0
            },
            "9": {
                "event": {
                    "contract": "0xa0b86991c6218b36c1d19d4a2e9eb0ce3606eb48",
                    "decodedLog": {
                        "name": "Transfer",
                        "params": [
                            {
                                "name": "from",
                                "type": "address",
                                "value": "0x2f0a00d74f7ec4da6ec5340bb591b40c1bf12827"
                            },
                            {
                                "name": "to",
                                "type": "address",
                                "value": "0x8e8bd01b5a9eb272cc3892a2e40e64a716aa2a40"
                            },
                            {
                                "decimalAvailable": true,
                                "name": "value",
                                "type": "uint256",
                                "value": "12,560,000"
                            }
                        ],
                        "signature": "Transfer(address,address,uint256)"
                    },
                    "id": 9,
                    "logData": "0x0000000000000000000000000000000000000000000000000000000000bfa680",
                    "logDecoded": true,
                    "operation": "EVENT",
                    "revert": false,
                    "status": true,
                    "topics": [
                        "0xddf252ad1be2c89b69c2b068fc378daa952ba7f163c4a11628f55a4df523b3ef",
                        "0x0000000000000000000000002f0a00d74f7ec4da6ec5340bb591b40c1bf12827",
                        "0x0000000000000000000000008e8bd01b5a9eb272cc3892a2e40e64a716aa2a40"
                    ]
                },
                "nodeType": 1
            }
        },
        "gasFlame": [
            {
                "children": [
                    {
                        "children": [
                            {
                                "children": [],
                                "depth": 0,
                                "name": "Initial Gas",
                                "value": 23336
                            },
                            {
                                "children": [
                                    {
                                        "children": [
                                            {
                                                "children": [
                                                    {
                                                        "children": [
                                                            {
                                                                "children": [],
                                                                "depth": 4,
                                                                "name": "ROOT4146650865",
                                                                "value": 1333
                                                            },
                                                            {
                                                                "children": [],
                                                                "depth": 4,
                                                                "name": "ecrecover",
                                                                "value": 3000
                                                            }
                                                        ],
                                                        "depth": 3,
                                                        "name": "registerUser",
                                                        "value": 33816
                                                    }
                                                ],
                                                "depth": 2,
                                                "name": "registerUser",
                                                "value": 39355
                                            }
                                        ],
                                        "depth": 1,
                                        "name": "registerUser",
                                        "value": 44493
                                    },
                                    {
                                        "children": [
                                            {
                                                "children": [],
                                                "depth": 2,
                                                "name": "transferFrom",
                                                "value": 42697
                                            }
                                        ],
                                        "depth": 1,
                                        "name": "transferFrom",
                                        "value": 49992
                                    },
                                    {
                                        "children": [
                                            {
                                                "children": [
                                                    {
                                                        "children": [
                                                            {
                                                                "children": [
                                                                    {
                                                                        "children": [],
                                                                        "depth": 5,
                                                                        "name": "balanceOf",
                                                                        "value": 2529
                                                                    }
                                                                ],
                                                                "depth": 4,
                                                                "name": "balanceOf",
                                                                "value": 3315
                                                            },
                                                            {
                                                                "children": [
                                                                    {
                                                                        "children": [],
                                                                        "depth": 5,
                                                                        "name": "transferFrom",
                                                                        "value": 14797
                                                                    }
                                                                ],
                                                                "depth": 4,
                                                                "name": "transferFrom",
                                                                "value": 15592
                                                            },
                                                            {
                                                                "children": [
                                                                    {
                                                                        "children": [],
                                                                        "depth": 5,
                                                                        "name": "balanceOf",
                                                                        "value": 529
                                                                    }
                                                                ],
                                                                "depth": 4,
                                                                "name": "balanceOf",
                                                                "value": 1315
                                                            }
                                                        ],
                                                        "depth": 3,
                                                        "name": "deposit",
                                                        "value": 66573
                                                    }
                                                ],
                                                "depth": 2,
                                                "name": "deposit",
                                                "value": 67652
                                            }
                                        ],
                                        "depth": 1,
                                        "name": "deposit",
                                        "value": 68240
                                    }
                                ],
                                "depth": 0,
                                "name": "Executed Gas",
                                "value": 178748
                            }
                        ],
                        "depth": -1,
                        "name": "Actual Gas Used",
                        "value": 179384
                    },
                    {
                        "children": [],
                        "depth": -1,
                        "name": "Refunded Gas",
                        "value": 22700
                    }
                ],
                "depth": -2,
                "name": "Total Gas",
                "value": 202084
            }
        ],
        "isConfirmed": true,
        "mainTrace": [
            {
                "children": [
                    {
                        "children": [
                            {
                                "children": [
                                    {
                                        "children": [
                                            {
                                                "children": [
                                                    {
                                                        "children": [],
                                                        "depth": 4,
                                                        "id": 4,
                                                        "order": 4
                                                    },
                                                    {
                                                        "children": [],
                                                        "depth": 4,
                                                        "id": 5,
                                                        "order": 5
                                                    },
                                                    {
                                                        "children": [],
                                                        "depth": 4,
                                                        "id": 6,
                                                        "order": 6
                                                    }
                                                ],
                                                "depth": 3,
                                                "id": 3,
                                                "order": 3
                                            }
                                        ],
                                        "depth": 2,
                                        "id": 2,
                                        "order": 2
                                    }
                                ],
                                "depth": 1,
                                "id": 1,
                                "order": 1
                            },
                            {
                                "children": [
                                    {
                                        "children": [
                                            {
                                                "children": [],
                                                "depth": 3,
                                                "id": 9,
                                                "order": 9
                                            }
                                        ],
                                        "depth": 2,
                                        "id": 8,
                                        "order": 8
                                    }
                                ],
                                "depth": 1,
                                "id": 7,
                                "order": 7
                            },
                            {
                                "children": [
                                    {
                                        "children": [
                                            {
                                                "children": [
                                                    {
                                                        "children": [
                                                            {
                                                                "children": [],
                                                                "depth": 5,
                                                                "id": 14,
                                                                "order": 14
                                                            }
                                                        ],
                                                        "depth": 4,
                                                        "id": 13,
                                                        "order": 13
                                                    },
                                                    {
                                                        "children": [
                                                            {
                                                                "children": [
                                                                    {
                                                                        "children": [],
                                                                        "depth": 6,
                                                                        "id": 17,
                                                                        "order": 17
                                                                    }
                                                                ],
                                                                "depth": 5,
                                                                "id": 16,
                                                                "order": 16
                                                            }
                                                        ],
                                                        "depth": 4,
                                                        "id": 15,
                                                        "order": 15
                                                    },
                                                    {
                                                        "children": [
                                                            {
                                                                "children": [],
                                                                "depth": 5,
                                                                "id": 19,
                                                                "order": 19
                                                            }
                                                        ],
                                                        "depth": 4,
                                                        "id": 18,
                                                        "order": 18
                                                    },
                                                    {
                                                        "children": [],
                                                        "depth": 4,
                                                        "id": 20,
                                                        "order": 20
                                                    }
                                                ],
                                                "depth": 3,
                                                "id": 12,
                                                "order": 12
                                            }
                                        ],
                                        "depth": 2,
                                        "id": 11,
                                        "order": 11
                                    }
                                ],
                                "depth": 1,
                                "id": 10,
                                "order": 10
                            }
                        ],
                        "depth": 0,
                        "id": 0,
                        "order": 0
                    }
                ],
                "depth": -1,
                "id": -1,
                "order": -1
            }
        ],
        "mainTraceNodeCount": 21,
        "parentIdMap": {
            "0": -1,
            "1": 0,
            "10": 0,
            "11": 10,
            "12": 11,
            "13": 12,
            "14": 13,
            "15": 12,
            "16": 15,
            "17": 16,
            "18": 12,
            "19": 18,
            "2": 1,
            "20": 12,
            "3": 2,
            "4": 3,
            "5": 3,
            "6": 3,
            "7": 0,
            "8": 7,
            "9": 8
        },
        "tidyTrace": [
            {
                "children": [
                    {
                        "children": [
                            {
                                "children": [
                                    {
                                        "children": [
                                            {
                                                "children": [
                                                    {
                                                        "children": [],
                                                        "depth": 4,
                                                        "id": 6,
                                                        "order": 6
                                                    }
                                                ],
                                                "depth": 3,
                                                "id": 3,
                                                "order": 3
                                            }
                                        ],
                                        "depth": 2,
                                        "id": 2,
                                        "order": 2
                                    }
                                ],
                                "depth": 1,
                                "id": 1,
                                "order": 1
                            },
                            {
                                "children": [
                                    {
                                        "children": [
                                            {
                                                "children": [],
                                                "depth": 3,
                                                "id": 9,
                                                "order": 9
                                            }
                                        ],
                                        "depth": 2,
                                        "id": 8,
                                        "order": 8
                                    }
                                ],
                                "depth": 1,
                                "id": 7,
                                "order": 7
                            },
                            {
                                "children": [
                                    {
                                        "children": [
                                            {
                                                "children": [
                                                    {
                                                        "children": [
                                                            {
                                                                "children": [
                                                                    {
                                                                        "children": [],
                                                                        "depth": 6,
                                                                        "id": 17,
                                                                        "order": 17
                                                                    }
                                                                ],
                                                                "depth": 5,
                                                                "id": 16,
                                                                "order": 16
                                                            }
                                                        ],
                                                        "depth": 4,
                                                        "id": 15,
                                                        "order": 15
                                                    },
                                                    {
                                                        "children": [],
                                                        "depth": 4,
                                                        "id": 20,
                                                        "order": 20
                                                    }
                                                ],
                                                "depth": 3,
                                                "id": 12,
                                                "order": 12
                                            }
                                        ],
                                        "depth": 2,
                                        "id": 11,
                                        "order": 11
                                    }
                                ],
                                "depth": 1,
                                "id": 10,
                                "order": 10
                            }
                        ],
                        "depth": 0,
                        "id": 0,
                        "order": 0
                    }
                ],
                "depth": -1,
                "id": -1,
                "order": -1
            }
        ],
        "tidyTraceNodeCount": 15
    },
    "state_change": {
        "stateChanges": [
            {
                "address": "0xa0b86991c6218b36c1d19d4a2e9eb0ce3606eb48",
                "erc": "ERC-20",
                "slots": [
                    {
                        "current": "0x0000000000000000000000000000000000000000000000000000000000001f9d",
                        "key": "0x6ff4aaae5f084bdbcee442387d0482012688c09ba05e2e4aab55c28a6b90a8cc",
                        "prev": "0x0000000000000000000000000000000000000000000000000000000000bfc61d"
                    },
                    {
                        "current": "0x0000000000000000000000000000000000000000000000000000000000001f9d",
                        "key": "0xa4247c16159cff2a19961c0f56542bab76f47c0ea1f6ba71fb50a048dc13f3b0",
                        "prev": "0x0000000000000000000000000000000000000000000000000000000000bfc61d"
                    },
                    {
                        "current": "0xfffffffffffffffffffffffffffffffffffffffffffffffffff2946648b18ca8",
                        "key": "0x1208b1ec599b095b30a8bf04962712d5d96e5c82a5d3f5cc7b6d0f12474c07c0",
                        "prev": "0xfffffffffffffffffffffffffffffffffffffffffffffffffff2946649713328"
                    },
                    {
                        "current": "0x0000000000000000000000000000000000000000000000000001436db9d5b686",
                        "key": "0xe5b12f2a9b7aa7457d69edf960abd93b599a52680aaf9280fd3e54f8e21a2542",
                        "prev": "0x0000000000000000000000000000000000000000000000000001436db9161006"
                    }
                ],
                "storageVariables": [
                    {
                        "name": "balances",
                        "type": "mapping(address => uint256)",
                        "value": {
                            "pairs": [
                                {
                                    "key": "0x2f0a00d74f7ec4da6ec5340bb591b40c1bf12827",
                                    "value": {
                                        "current": "8093",
                                        "prev": "12568093",
                                        "typeTag": 1
                                    }
                                },
                                {
                                    "key": "0xd54f502e184b6b739d7d27a6410a67dc462d69c8",
                                    "value": {
                                        "current": "355613524997766",
                                        "prev": "355613512437766",
                                        "typeTag": 1
                                    }
                                }
                            ],
                            "typeTag": 4
                        }
                    },
                    {
                        "name": "allowed",
                        "type": "mapping(address => mapping(address => uint256))",
                        "value": {
                            "pairs": [
                                {
                                    "key": "0x2f0a00d74f7ec4da6ec5340bb591b40c1bf12827",
                                    "value": {
                                        "pairs": [
                                            {
                                                "key": "0x8e8bd01b5a9eb272cc3892a2e40e64a716aa2a40",
                                                "value": {
                                                    "current": "8093",
                                                    "prev": "12568093",
                                                    "typeTag": 1
                                                }
                                            }
                                        ],
                                        "typeTag": 4
                                    }
                                },
                                {
                                    "key": "0x8e8bd01b5a9eb272cc3892a2e40e64a716aa2a40",
                                    "value": {
                                        "pairs": [
                                            {
                                                "key": "0xd54f502e184b6b739d7d27a6410a67dc462d69c8",
                                                "value": {
                                                    "current": "115792089237316195423570985008687907853269984665640564039457580230430482861224",
                                                    "prev": "115792089237316195423570985008687907853269984665640564039457580230430495421224",
                                                    "typeTag": 1
                                                }
                                            }
                                        ],
                                        "typeTag": 4
                                    }
                                }
                            ],
                            "typeTag": 4
                        }
                    }
                ]
            },
            {
                "address": "0xd54f502e184b6b739d7d27a6410a67dc462d69c8",
                "erc": "",
                "slots": [
                    {
                        "current": "0x0000000000000000000000002f0a00d74f7ec4da6ec5340bb591b40c1bf12827",
                        "key": "0xe398c574918f142967f6269e23022197379bb1621cd9911fe79b517014db4452",
                        "prev": "0x0000000000000000000000000000000000000000000000000000000000000000"
                    },
                    {
                        "current": "0x0000000000000000000000000000000000000000000000000000000000bfa680",
                        "key": "0x12141d62a2ca8e7546cfb3e44a4549b9640f21e75ede3244a63002469daf0f4b",
                        "prev": "0x0000000000000000000000000000000000000000000000000000000000000000"
                    }
                ],
                "storageVariables": [
                    {
                        "name": "pendingDeposits",
                        "type": "mapping(uint256 => mapping(uint256 => mapping(uint256 => uint256)))",
                        "value": {
                            "pairs": [
                                {
                                    "key": "2639948991433973947295740142007972306655733756351270414316843828174346066802",
                                    "value": {
                                        "pairs": [
                                            {
                                                "key": "1147032829293317481173155891309375254605214077236177772270270553197624560221",
                                                "value": {
                                                    "pairs": [
                                                        {
                                                            "key": "373049",
                                                            "value": {
                                                                "current": "12560000",
                                                                "prev": "0",
                                                                "typeTag": 1
                                                            }
                                                        }
                                                    ],
                                                    "typeTag": 4
                                                }
                                            }
                                        ],
                                        "typeTag": 4
                                    }
                                }
                            ],
                            "typeTag": 4
                        }
                    },
                    {
                        "name": "ethKeys",
                        "type": "mapping(uint256 => address)",
                        "value": {
                            "pairs": [
                                {
                                    "key": "2639948991433973947295740142007972306655733756351270414316843828174346066802",
                                    "value": {
                                        "current": "0x2f0a00d74f7ec4da6ec5340bb591b40c1bf12827",
                                        "prev": "0x0000000000000000000000000000000000000000",
                                        "typeTag": 1
                                    }
                                }
                            ],
                            "typeTag": 4
                        }
                    }
                ]
            }
        ]
    }
}