{
    "balance_change": {
        "balanceChanges": [
            {
                "account": "0x2f52deaea31d2636a076627d4a17bbe5278be0ef",
                "assets": [
                    {
                        "address": "0xc3681a720605bd6f8fe9a2fabff6a7cdecdc605d",
                        "amount": "117,185,552,677.719944343669422257",
                        "iconUrl": "",
                        "isERC1155": false,
                        "isERC721": false,
                        "sign": false,
                        "value": "95.29009621"
                    },
                    {
                        "address": "0xeeeeeeeeeeeeeeeeeeeeeeeeeeeeeeeeeeeeeeee",
                        "amount": "0.050992866444608533",
                        "iconUrl": "https://assets.blocksec.com/image/1663669189317-3.png",
                        "isERC1155": false,
                        "isERC721": false,
                        "sign": true,
                        "value": "95.55094306393639722"
                    }
                ]
            },
            {
                "account": "0xc02aaa39b223fe8d0a0e5c4f27ead9083c756cc2",
                "assets": [
                    {
                        "address": "0xeeeeeeeeeeeeeeeeeeeeeeeeeeeeeeeeeeeeeeee",
                        "amount": "0.050992866444608533",
                        "iconUrl": "https://assets.blocksec.com/image/1663669189317-3.png",
                        "isERC1155": false,
                        "isERC721": false,
                        "sign": false,
                        "value": "95.55094306393639722"
                    },
                    {
                        "address": "0xc02aaa39b223fe8d0a0e5c4f27ead9083c756cc2",
                        "amount": "0.050992866444608533",
                        "iconUrl": "https://assets.blocksec.com/icon/f1cb2d02c471d545bbc7722daf3277fd852d98e63d118771af7047bd8256c516.png",
                        "isERC1155": false,
                        "isERC721": false,
                        "sign": true,
                        "value": "95.55094306393639722"
                    }
                ]
            },
            {
                "account": "0xc5ea9262becc6e626875b6afa40e2815c4d8253c",
                "assets": [
                    {
                        "address": "0xc3681a720605bd6f8fe9a2fabff6a7cdecdc605d",
                        "amount": "117,185,552,677.719944343669422257",
                        "iconUrl": "",
                        "isERC1155": false,
                        "isERC721": false,
                        "sign": true,
                        "value": "95.29009621"
                    },
                    {
                        "address": "0xc02aaa39b223fe8d0a0e5c4f27ead9083c756cc2",
                        "amount": "0.050992866444608533",
                        "iconUrl": "https://assets.blocksec.com/icon/f1cb2d02c471d545bbc7722daf3277fd852d98e63d118771af7047bd8256c516.png",
                        "isERC1155": false,
                        "isERC721": false,
                        "sign": false,
                        "value": "95.55094306393639722"
                    }
                ]
            }
        ]
    },
    "profile": {
        "basic_info": {
            "baseFee": "19.885213279",
            "blockNumber": 17568141,
            "callData": "0x3593564c000000000000000000000000000000000000000000000000000000000000006000000000000000000000000000000000000000000000000000000000000000a000000000000000000000000000000000000000000000000000000000649a630f00000000000000000000000000000000000000000000000000000000000000030a080c00000000000000000000000000000000000000000000000000000000000000000000000000000000000000000000000000000000000000000000000003000000000000000000000000000000000000000000000000000000000000006000000000000000000000000000000000000000000000000000000000000001e000000000000000000000000000000000000000000000000000000000000003000000000000000000000000000000000000000000000000000000000000000160000000000000000000000000c3681a720605bd6f8fe9a2fabff6a7cdecdc605d000000000000000000000000ffffffffffffffffffffffffffffffffffffffff0000000000000000000000000000000000000000000000000000000064c1e91000000000000000000000000000000000000000000000000000000000000000000000000000000000000000003fc91a3afd70395cd496c647d5a6cc9d4b2b7fad00000000000000000000000000000000000000000000000000000000649a631800000000000000000000000000000000000000000000000000000000000000e00000000000000000000000000000000000000000000000000000000000000041f42b93e0aba2ecec2d2bd357a5af5d4fc629e12c14ada0aa5aa799705e587bbd150ec8321400156d633d402a556ef33297e7aef4877deebd2026377b3dfe406b1c000000000000000000000000000000000000000000000000000000000000000000000000000000000000000000000000000000000000000000000000000100000000000000000000000000000000000000000000000000000000000000000200000000000000000000000000000000000000017aa59e03dadc50e203ebb8b100000000000000000000000000000000000000000000000000ac8947287c4d0700000000000000000000000000000000000000000000000000000000000000a000000000000000000000000000000000000000000000000000000000000000010000000000000000000000000000000000000000000000000000000000000002000000000000000000000000c3681a720605bd6f8fe9a2fabff6a7cdecdc605d000000000000000000000000c02aaa39b223fe8d0a0e5c4f27ead9083c756cc20000000000000000000000000000000000000000000000000000000000000040000000000000000000000000000000000000000000000000000000000000000100000000000000000000000000000000000000000000000000ac8947287c4d07",
            "debugEnable": true,
            "errorInfo": "",
            "eventCount": 7,
            "feeRecipient": "0xdafea492d9c6733ae3d56b7ed1adb60692c98bc5",
            "formatValue": "0",
            "gasLimit": 242784,
            "gasPrice": "19.985213279",
            "gasUsed": 165022,
            "intTxnCount": 16,
            "internalRevert": false,
            "internalRevertMessage": "",
            "isContractCreation": false,
            "isFlashloan": false,
            "maxFee": "25.986502266",
            "nonce": 65,
            "overwritedBlockNumber": -1,
            "priorityFee": "0.1",
            "receiver": "0x3fc91a3afd70395cd496c647d5a6cc9d4b2b7fad",
            "revertMessage": "",
            "sender": "0x2f52deaea31d2636a076627d4a17bbe5278be0ef",
            "simulationEnable": true,
            "sourceTxnHash": "0x4340d8614673e3c2a8d04ef086164fa1ad05d7aae82fd29c6a71095bee1e78a4",
            "status": true,
            "timestamp": "2023-06-27T03:48:47Z",
            "transactionFee": "0.003297999865727138",
            "txnHash": "0x4340d8614673e3c2a8d04ef086164fa1ad05d7aae82fd29c6a71095bee1e78a4",
            "txnIndex": 129,
            "type": 2,
            "value": "0"
        },
        "fund_flow": [
            {
                "amount": "117,185,552,677.719944343669422257",
                "from": "0x2f52deaea31d2636a076627d4a17bbe5278be0ef",
                "id": 1,
                "isERC1155": false,
                "isERC721": false,
                "isReverted": false,
                "order": 1,
                "to": "0xc5ea9262becc6e626875b6afa40e2815c4d8253c",
                "token": "0xc3681a720605bd6f8fe9a2fabff6a7cdecdc605d"
            },
            {
                "amount": "0.050992866444608533",
                "from": "0xc5ea9262becc6e626875b6afa40e2815c4d8253c",
                "id": 2,
                "isERC1155": false,
                "isERC721": false,
                "isReverted": false,
                "order": 2,
                "to": "0x3fc91a3afd70395cd496c647d5a6cc9d4b2b7fad",
                "token": "0xc02aaa39b223fe8d0a0e5c4f27ead9083c756cc2"
            },
            {
                "amount": "0.050992866444608533",
                "from": "0xc02aaa39b223fe8d0a0e5c4f27ead9083c756cc2",
                "id": 3,
                "isERC1155": false,
                "isERC721": false,
                "isReverted": false,
                "order": 3,
                "to": "0x3fc91a3afd70395cd496c647d5a6cc9d4b2b7fad",
                "token": "0xeeeeeeeeeeeeeeeeeeeeeeeeeeeeeeeeeeeeeeee"
            },
            {
                "amount": "0.050992866444608533",
                "from": "0x3fc91a3afd70395cd496c647d5a6cc9d4b2b7fad",
                "id": 4,
                "isERC1155": false,
                "isERC721": false,
                "isReverted": false,
                "order": 4,
                "to": "0xc02aaa39b223fe8d0a0e5c4f27ead9083c756cc2",
                "token": "0xc02aaa39b223fe8d0a0e5c4f27ead9083c756cc2"
            },
            {
                "amount": "0.050992866444608533",
                "from": "0x3fc91a3afd70395cd496c647d5a6cc9d4b2b7fad",
                "id": 5,
                "isERC1155": false,
                "isERC721": false,
                "isReverted": false,
                "order": 5,
                "to": "0x2f52deaea31d2636a076627d4a17bbe5278be0ef",
                "token": "0xeeeeeeeeeeeeeeeeeeeeeeeeeeeeeeeeeeeeeeee"
            }
        ],
        "token_infos": [
            {
                "address": "0xc02aaa39b223fe8d0a0e5c4f27ead9083c756cc2",
                "decimals": 18
            },
            {
                "address": "0xc3681a720605bd6f8fe9a2fabff6a7cdecdc605d",
                "decimals": 18
            },
            {
                "address": "0xeeeeeeeeeeeeeeeeeeeeeeeeeeeeeeeeeeeeeeee",
                "decimals": 18
            }
        ]
    },
    "address_label": {
        "labels": [
            {
                "address": "0xc5ea9262becc6e626875b6afa40e2815c4d8253c",
                "label": "Uniswap V2: NiHao 4"
            },
            {
                "address": "0x0000000000000000000000000000000000000003",
                "label": "Precompiled"
            },
            {
                "address": "0xeeeeeeeeeeeeeeeeeeeeeeeeeeeeeeeeeeeeeeee",
                "label": "Ether"
            },
            {
                "address": "0x000000000022d473030f116ddee9f6b43ac78ba3",
                "label": "Permit2"
            },
            {
                "address": "0xc3681a720605bd6f8fe9a2fabff6a7cdecdc605d",
                "label": "NiHao (NiHao)"
            },
            {
                "address": "0x0000000000000000000000000000000000000001",
                "label": "Precompiled"
            },
            {
                "address": "0x0000000000000000000000000000000000000002",
                "label": "Precompiled"
            },
            {
                "address": "0x0000000000000000000000000000000000000004",
                "label": "Precompiled"
            },
            {
                "address": "0x3fc91a3afd70395cd496c647d5a6cc9d4b2b7fad",
                "label": "Uniswap: Universal Router"
            },
            {
                "address": "0xc02aaa39b223fe8d0a0e5c4f27ead9083c756cc2",
                "label": "Wrapped Ether (WETH)"
            }
        ]
    },
    "trace": {
        "accountLabels": null,
        "dataMap": {
            "-1": {
                "invocation": {
                    "address": "0x2f52deaea31d2636a076627d4a17bbe5278be0ef",
                    "callData": "",
                    "decodedMethod": null,
                    "errorInfo": "",
                    "fromAddress": "",
                    "gasUsed": 0,
                    "id": -1,
                    "methodDecoded": false,
                    "operation": "",
                    "output": "",
                    "revert": false,
                    "revertMessage": "",
                    "selector": "",
                    "status": false,
                    "value": ""
                },
                "nodeType": 0
            },
            "0": {
                "invocation": {
                    "address": "0x3fc91a3afd70395cd496c647d5a6cc9d4b2b7fad",
                    "callData": "0x000000000000000000000000000000000000000000000000000000000000006000000000000000000000000000000000000000000000000000000000000000a000000000000000000000000000000000000000000000000000000000649a630f00000000000000000000000000000000000000000000000000000000000000030a080c00000000000000000000000000000000000000000000000000000000000000000000000000000000000000000000000000000000000000000000000003000000000000000000000000000000000000000000000000000000000000006000000000000000000000000000000000000000000000000000000000000001e000000000000000000000000000000000000000000000000000000000000003000000000000000000000000000000000000000000000000000000000000000160000000000000000000000000c3681a720605bd6f8fe9a2fabff6a7cdecdc605d000000000000000000000000ffffffffffffffffffffffffffffffffffffffff0000000000000000000000000000000000000000000000000000000064c1e91000000000000000000000000000000000000000000000000000000000000000000000000000000000000000003fc91a3afd70395cd496c647d5a6cc9d4b2b7fad00000000000000000000000000000000000000000000000000000000649a631800000000000000000000000000000000000000000000000000000000000000e00000000000000000000000000000000000000000000000000000000000000041f42b93e0aba2ecec2d2bd357a5af5d4fc629e12c14ada0aa5aa799705e587bbd150ec8321400156d633d402a556ef33297e7aef4877deebd2026377b3dfe406b1c000000000000000000000000000000000000000000000000000000000000000000000000000000000000000000000000000000000000000000000000000100000000000000000000000000000000000000000000000000000000000000000200000000000000000000000000000000000000017aa59e03dadc50e203ebb8b100000000000000000000000000000000000000000000000000ac8947287c4d0700000000000000000000000000000000000000000000000000000000000000a000000000000000000000000000000000000000000000000000000000000000010000000000000000000000000000000000000000000000000000000000000002000000000000000000000000c3681a720605bd6f8fe9a2fabff6a7cdecdc605d000000000000000000000000c02aaa39b223fe8d0a0e5c4f27ead9083c756cc20000000000000000000000000000000000000000000000000000000000000040000000000000000000000000000000000000000000000000000000000000000100000000000000000000000000000000000000000000000000ac8947287c4d07",
                    "decodedMethod": {
                        "callParams": [
                            {
                                "name": "commands",
                                "type": "bytes",
                                "value": "0x0a080c"
                            },
                            {
                                "name": "inputs",
                                "type": "bytes[]",
                                "value": [
                                    "0x000000000000000000000000c3681a720605bd6f8fe9a2fabff6a7cdecdc605d000000000000000000000000ffffffffffffffffffffffffffffffffffffffff0000000000000000000000000000000000000000000000000000000064c1e91000000000000000000000000000000000000000000000000000000000000000000000000000000000000000003fc91a3afd70395cd496c647d5a6cc9d4b2b7fad00000000000000000000000000000000000000000000000000000000649a631800000000000000000000000000000000000000000000000000000000000000e00000000000000000000000000000000000000000000000000000000000000041f42b93e0aba2ecec2d2bd357a5af5d4fc629e12c14ada0aa5aa799705e587bbd150ec8321400156d633d402a556ef33297e7aef4877deebd2026377b3dfe406b1c00000000000000000000000000000000000000000000000000000000000000",
                                    "0x000000000000000000000000000000000000000000000000000000000000000200000000000000000000000000000000000000017aa59e03dadc50e203ebb8b100000000000000000000000000000000000000000000000000ac8947287c4d0700000000000000000000000000000000000000000000000000000000000000a000000000000000000000000000000000000000000000000000000000000000010000000000000000000000000000000000000000000000000000000000000002000000000000000000000000c3681a720605bd6f8fe9a2fabff6a7cdecdc605d000000000000000000000000c02aaa39b223fe8d0a0e5c4f27ead9083c756cc2",
                                    "0x000000000000000000000000000000000000000000000000000000000000000100000000000000000000000000000000000000000000000000ac8947287c4d07"
                                ]
                            },
                            {
                                "name": "deadline",
                                "type": "uint256",
                                "value": "1,687,839,503"
                            }
                        ],
                        "constructorArguments": "",
                        "name": "execute",
                        "returnParams": [],
                        "signature": "execute(bytes,bytes[],uint256)"
                    },
                    "errorInfo": "",
                    "fromAddress": "0x2f52deaea31d2636a076627d4a17bbe5278be0ef",
                    "gasUsed": 165022,
                    "id": 0,
                    "methodDecoded": true,
                    "operation": "CALL",
                    "output": "",
                    "revert": false,
                    "revertMessage": "",
                    "selector": "0x3593564c",
                    "status": true,
                    "value": "0"
                },
                "nodeType": 0
            },
            "1": {
                "invocation": {
                    "address": "0x000000000022d473030f116ddee9f6b43ac78ba3",
                    "callData": "0x0000000000000000000000002f52deaea31d2636a076627d4a17bbe5278be0ef000000000000000000000000c3681a720605bd6f8fe9a2fabff6a7cdecdc605d000000000000000000000000ffffffffffffffffffffffffffffffffffffffff0000000000000000000000000000000000000000000000000000000064c1e91000000000000000000000000000000000000000000000000000000000000000000000000000000000000000003fc91a3afd70395cd496c647d5a6cc9d4b2b7fad00000000000000000000000000000000000000000000000000000000649a631800000000000000000000000000000000000000000000000000000000000001000000000000000000000000000000000000000000000000000000000000000041f42b93e0aba2ecec2d2bd357a5af5d4fc629e12c14ada0aa5aa799705e587bbd150ec8321400156d633d402a556ef33297e7aef4877deebd2026377b3dfe406b1c00000000000000000000000000000000000000000000000000000000000000",
                    "decodedMethod": {
                        "callParams": [
                            {
                                "name": "owner",
                                "type": "address",
                                "value": "0x2f52deaea31d2636a076627d4a17bbe5278be0ef"
                            },
                            {
                                "name": "permitSingle",
                                "type": "((address,uint160,uint48,uint48),address,uint256)",
                                "value": [
                                    {
                                        "name": "details",
                                        "type": "(address,uint160,uint48,uint48)",
                                        "value": [
                                            {
                                                "name": "token",
                                                "type": "address",
                                                "value": "0xc3681a720605bd6f8fe9a2fabff6a7cdecdc605d"
                                            },
                                            {
                                                "name": "amount",
                                                "type": "uint160",
                                                "value": "1,461,501,637,330,902,918,203,684,832,716,283,019,655,932,542,975"
                                            },
                                            {
                                                "name": "expiration",
                                                "type": "uint48",
                                                "value": "1,690,429,712"
                                            },
                                            {
                                                "name": "nonce",
                                                "type": "uint48",
                                                "value": "0"
                                            }
                                        ]
                                    },
                                    {
                                        "name": "spender",
                                        "type": "address",
                                        "value": "0x3fc91a3afd70395cd496c647d5a6cc9d4b2b7fad"
                                    },
                                    {
                                        "name": "sigDeadline",
                                        "type": "uint256",
                                        "value": "1,687,839,512"
                                    }
                                ]
                            },
                            {
                                "name": "signature",
                                "type": "bytes",
                                "value": "0xf42b93e0aba2ecec2d2bd357a5af5d4fc629e12c14ada0aa5aa799705e587bbd150ec8321400156d633d402a556ef33297e7aef4877deebd2026377b3dfe406b1c"
                            }
                        ],
                        "constructorArguments": "",
                        "name": "permit",
                        "returnParams": [],
                        "signature": "permit(address,((address,uint160,uint48,uint48),address,uint256),bytes)"
                    },
                    "errorInfo": "",
                    "fromAddress": "0x3fc91a3afd70395cd496c647d5a6cc9d4b2b7fad",
                    "gasUsed": 30786,
                    "id": 1,
                    "methodDecoded": true,
                    "operation": "CALL",
                    "output": "",
                    "revert": false,
                    "revertMessage": "",
                    "selector": "0x2b67b570",
                    "status": true,
                    "value": "0"
                },
                "nodeType": 0
            },
            "10": {
                "invocation": {
                    "address": "0xc3681a720605bd6f8fe9a2fabff6a7cdecdc605d",
                    "callData": "0x000000000000000000000000c5ea9262becc6e626875b6afa40e2815c4d8253c",
                    "decodedMethod": {
                        "callParams": [
                            {
                                "name": "account",
                                "type": "address",
                                "value": "0xc5ea9262becc6e626875b6afa40e2815c4d8253c"
                            }
                        ],
                        "constructorArguments": "",
                        "name": "balanceOf",
                        "returnParams": [
                            {
                                "decimalAvailable": true,
                                "name": "",
                                "type": "uint256",
                                "value": "84,891,220,972,080,041,987,991,977,870,202"
                            }
                        ],
                        "signature": "balanceOf(address)"
                    },
                    "errorInfo": "",
                    "fromAddress": "0x3fc91a3afd70395cd496c647d5a6cc9d4b2b7fad",
                    "gasUsed": 886,
                    "id": 10,
                    "methodDecoded": true,
                    "operation": "STATICCALL",
                    "output": "0x000000000000000000000000000000000000042f7a5429ffcf5290579d6c437a",
                    "revert": false,
                    "revertMessage": "",
                    "selector": "0x70a08231",
                    "status": true,
                    "value": "0"
                },
                "nodeType": 0
            },
            "11": {
                "invocation": {
                    "address": "0xc5ea9262becc6e626875b6afa40e2815c4d8253c",
                    "callData": "0x00000000000000000000000000000000000000000000000000b529bdea82841500000000000000000000000000000000000000000000000000000000000000000000000000000000000000003fc91a3afd70395cd496c647d5a6cc9d4b2b7fad00000000000000000000000000000000000000000000000000000000000000800000000000000000000000000000000000000000000000000000000000000000",
                    "decodedMethod": {
                        "callParams": [
                            {
                                "name": "amount0Out",
                                "type": "uint256",
                                "value": "50,992,866,444,608,533"
                            },
                            {
                                "name": "amount1Out",
                                "type": "uint256",
                                "value": "0"
                            },
                            {
                                "name": "to",
                                "type": "address",
                                "value": "0x3fc91a3afd70395cd496c647d5a6cc9d4b2b7fad"
                            },
                            {
                                "name": "data",
                                "type": "bytes",
                                "value": "0x"
                            }
                        ],
                        "constructorArguments": "",
                        "name": "swap",
                        "returnParams": [],
                        "signature": "swap(uint256,uint256,address,bytes)"
                    },
                    "errorInfo": "",
                    "fromAddress": "0x3fc91a3afd70395cd496c647d5a6cc9d4b2b7fad",
                    "gasUsed": 60705,
                    "id": 11,
                    "methodDecoded": true,
                    "operation": "CALL",
                    "output": "",
                    "revert": false,
                    "revertMessage": "",
                    "selector": "0x022c0d9f",
                    "status": true,
                    "value": "0"
                },
                "nodeType": 0
            },
            "12": {
                "invocation": {
                    "address": "0xc02aaa39b223fe8d0a0e5c4f27ead9083c756cc2",
                    "callData": "0x0000000000000000000000003fc91a3afd70395cd496c647d5a6cc9d4b2b7fad00000000000000000000000000000000000000000000000000b529bdea828415",
                    "decodedMethod": {
                        "callParams": [
                            {
                                "name": "dst",
                                "type": "address",
                                "value": "0x3fc91a3afd70395cd496c647d5a6cc9d4b2b7fad"
                            },
                            {
                                "decimalAvailable": true,
                                "name": "wad",
                                "type": "uint256",
                                "value": "50,992,866,444,608,533"
                            }
                        ],
                        "constructorArguments": "",
                        "name": "transfer",
                        "returnParams": [
                            {
                                "name": "",
                                "type": "bool",
                                "value": true
                            }
                        ],
                        "signature": "transfer(address,uint256)"
                    },
                    "errorInfo": "",
                    "fromAddress": "0xc5ea9262becc6e626875b6afa40e2815c4d8253c",
                    "gasUsed": 27962,
                    "id": 12,
                    "methodDecoded": true,
                    "operation": "CALL",
                    "output": "0x0000000000000000000000000000000000000000000000000000000000000001",
                    "revert": false,
                    "revertMessage": "",
                    "selector": "0xa9059cbb",
                    "status": true,
                    "value": "0"
                },
                "nodeType": 0
            },
            "13": {
                "event": {
                    "contract": "0xc02aaa39b223fe8d0a0e5c4f27ead9083c756cc2",
                    "decodedLog": {
                        "name": "Transfer",
                        "params": [
                            {
                                "name": "src",
                                "type": "address",
                                "value": "0xc5ea9262becc6e626875b6afa40e2815c4d8253c"
                            },
                            {
                                "name": "dst",
                                "type": "address",
                                "value": "0x3fc91a3afd70395cd496c647d5a6cc9d4b2b7fad"
                            },
                            {
                                "decimalAvailable": true,
                                "name": "wad",
                                "type": "uint256",
                                "value": "50,992,866,444,608,533"
                            }
                        ],
                        "signature": "Transfer(address,address,uint256)"
                    },
                    "id": 13,
                    "logData": "0x00000000000000000000000000000000000000000000000000b529bdea828415",
                    "logDecoded": true,
                    "operation": "EVENT",
                    "revert": false,
                    "status": true,
                    "topics": [
                        "0xddf252ad1be2c89b69c2b068fc378daa952ba7f163c4a11628f55a4df523b3ef",
                        "0x000000000000000000000000c5ea9262becc6e626875b6afa40e2815c4d8253c",
                        "0x0000000000000000000000003fc91a3afd70395cd496c647d5a6cc9d4b2b7fad"
                    ]
                },
                "nodeType": 1
            },
            "14": {
                "invocation": {
                    "address": "0xc02aaa39b223fe8d0a0e5c4f27ead9083c756cc2",
                    "callData": "0x000000000000000000000000c5ea9262becc6e626875b6afa40e2815c4d8253c",
                    "decodedMethod": {
                        "callParams": [
                            {
                                "name": "",
                                "type": "address",
                                "value": "0xc5ea9262becc6e626875b6afa40e2815c4d8253c"
                            }
                        ],
                        "constructorArguments": "",
                        "name": "balanceOf",
                        "returnParams": [
                            {
                                "decimalAvailable": true,
                                "name": "",
                                "type": "uint256",
                                "value": "37,000,113,095,367,231,227"
                            }
                        ],
                        "signature": "balanceOf(address)"
                    },
                    "errorInfo": "",
                    "fromAddress": "0xc5ea9262becc6e626875b6afa40e2815c4d8253c",
                    "gasUsed": 534,
                    "id": 14,
                    "methodDecoded": true,
                    "operation": "STATICCALL",
                    "output": "0x000000000000000000000000000000000000000000000002017aced342a486fb",
                    "revert": false,
                    "revertMessage": "",
                    "selector": "0x70a08231",
                    "status": true,
                    "value": "0"
                },
                "nodeType": 0
            },
            "15": {
                "invocation": {
                    "address": "0xc3681a720605bd6f8fe9a2fabff6a7cdecdc605d",
                    "callData": "0x000000000000000000000000c5ea9262becc6e626875b6afa40e2815c4d8253c",
                    "decodedMethod": {
                        "callParams": [
                            {
                                "name": "account",
                                "type": "address",
                                "value": "0xc5ea9262becc6e626875b6afa40e2815c4d8253c"
                            }
                        ],
                        "constructorArguments": "",
                        "name": "balanceOf",
                        "returnParams": [
                            {
                                "decimalAvailable": true,
                                "name": "",
                                "type": "uint256",
                                "value": "84,891,220,972,080,041,987,991,977,870,202"
                            }
                        ],
                        "signature": "balanceOf(address)"
                    },
                    "errorInfo": "",
                    "fromAddress": "0xc5ea9262becc6e626875b6afa40e2815c4d8253c",
                    "gasUsed": 886,
                    "id": 15,
                    "methodDecoded": true,
                    "operation": "STATICCALL",
                    "output": "0x000000000000000000000000000000000000042f7a5429ffcf5290579d6c437a",
                    "revert": false,
                    "revertMessage": "",
                    "selector": "0x70a08231",
                    "status": true,
                    "value": "0"
                },
                "nodeType": 0
            },
            "16": {
                "event": {
                    "contract": "0xc5ea9262becc6e626875b6afa40e2815c4d8253c",
                    "decodedLog": {
                        "name": "Sync",
                        "params": [
                            {
                                "name": "reserve0",
                                "type": "uint112",
                                "value": "37,000,113,095,367,231,227"
                            },
                            {
                                "name": "reserve1",
                                "type": "uint112",
                                "value": "84,891,220,972,080,041,987,991,977,870,202"
                            }
                        ],
                        "signature": "Sync(uint112,uint112)"
                    },
                    "id": 16,
                    "logData": "0x000000000000000000000000000000000000000000000002017aced342a486fb000000000000000000000000000000000000042f7a5429ffcf5290579d6c437a",
                    "logDecoded": true,
                    "operation": "EVENT",
                    "revert": false,
                    "status": true,
                    "topics": [
                        "0x1c411e9a96e071241c2f21f7726b17ae89e3cab4c78be50e062b03a9fffbbad1"
                    ]
                },
                "nodeType": 1
            },
            "17": {
                "event": {
                    "contract": "0xc5ea9262becc6e626875b6afa40e2815c4d8253c",
                    "decodedLog": {
                        "name": "Swap",
                        "params": [
                            {
                                "name": "sender",
                                "type": "address",
                                "value": "0x3fc91a3afd70395cd496c647d5a6cc9d4b2b7fad"
                            },
                            {
                                "name": "to",
                                "type": "address",
                                "value": "0x3fc91a3afd70395cd496c647d5a6cc9d4b2b7fad"
                            },
                            {
                                "name": "amount0In",
                                "type": "uint256",
                                "value": "0"
                            },
                            {
                                "name": "amount1In",
                                "type": "uint256",
                                "value": "117,185,552,677,719,944,343,669,422,257"
                            },
                            {
                                "name": "amount0Out",
                                "type": "uint256",
                                "value": "50,992,866,444,608,533"
                            },
                            {
                                "name": "amount1Out",
                                "type": "uint256",
                                "value": "0"
                            }
                        ],
                        "signature": "Swap(address,uint256,uint256,uint256,uint256,address)"
                    },
                    "id": 17,
                    "logData": "0x000000000000000000000000000000000000000000000000000000000000000000000000000000000000000000000000000000017aa59e03dadc50e203ebb8b100000000000000000000000000000000000000000000000000b529bdea8284150000000000000000000000000000000000000000000000000000000000000000",
                    "logDecoded": true,
                    "operation": "EVENT",
                    "revert": false,
                    "status": true,
                    "topics": [
                        "0xd78ad95fa46c994b6551d0da85fc275fe613ce37657fb8d5e3d130840159d822",
                        "0x0000000000000000000000003fc91a3afd70395cd496c647d5a6cc9d4b2b7fad",
                        "0x0000000000000000000000003fc91a3afd70395cd496c647d5a6cc9d4b2b7fad"
                    ]
                },
                "nodeType": 1
            },
            "18": {
                "invocation": {
                    "address": "0xc02aaa39b223fe8d0a0e5c4f27ead9083c756cc2",
                    "callData": "0x0000000000000000000000003fc91a3afd70395cd496c647d5a6cc9d4b2b7fad",
                    "decodedMethod": {
                        "callParams": [
                            {
                                "name": "",
                                "type": "address",
                                "value": "0x3fc91a3afd70395cd496c647d5a6cc9d4b2b7fad"
                            }
                        ],
                        "constructorArguments": "",
                        "name": "balanceOf",
                        "returnParams": [
                            {
                                "decimalAvailable": true,
                                "name": "",
                                "type": "uint256",
                                "value": "50,992,866,444,608,533"
                            }
                        ],
                        "signature": "balanceOf(address)"
                    },
                    "errorInfo": "",
                    "fromAddress": "0x3fc91a3afd70395cd496c647d5a6cc9d4b2b7fad",
                    "gasUsed": 534,
                    "id": 18,
                    "methodDecoded": true,
                    "operation": "STATICCALL",
                    "output": "0x00000000000000000000000000000000000000000000000000b529bdea828415",
                    "revert": false,
                    "revertMessage": "",
                    "selector": "0x70a08231",
                    "status": true,
                    "value": "0"
                },
                "nodeType": 0
            },
            "19": {
                "invocation": {
                    "address": "0xc02aaa39b223fe8d0a0e5c4f27ead9083c756cc2",
                    "callData": "0x0000000000000000000000003fc91a3afd70395cd496c647d5a6cc9d4b2b7fad",
                    "decodedMethod": {
                        "callParams": [
                            {
                                "name": "",
                                "type": "address",
                                "value": "0x3fc91a3afd70395cd496c647d5a6cc9d4b2b7fad"
                            }
                        ],
                        "constructorArguments": "",
                        "name": "balanceOf",
                        "returnParams": [
                            {
                                "decimalAvailable": true,
                                "name": "",
                                "type": "uint256",
                                "value": "50,992,866,444,608,533"
                            }
                        ],
                        "signature": "balanceOf(address)"
                    },
                    "errorInfo": "",
                    "fromAddress": "0x3fc91a3afd70395cd496c647d5a6cc9d4b2b7fad",
                    "gasUsed": 534,
                    "id": 19,
                    "methodDecoded": true,
                    "operation": "STATICCALL",
                    "output": "0x00000000000000000000000000000000000000000000000000b529bdea828415",
                    "revert": false,
                    "revertMessage": "",
                    "selector": "0x70a08231",
                    "status": true,
                    "value": "0"
                },
                "nodeType": 0
            },
            "2": {
                "invocation": {
                    "address": "0x0000000000000000000000000000000000000001",
                    "callData": "0xe4670214cafcd61c40535b3d0e63e9c702afa0e8353991d57b1a6841000000000000000000000000000000000000000000000000000000000000001cf42b93e0aba2ecec2d2bd357a5af5d4fc629e12c14ada0aa5aa799705e587bbd150ec8321400156d633d402a556ef33297e7aef4877deebd2026377b3dfe406b",
                    "decodedMethod": {
                        "callParams": [
                            {
                                "name": "hash",
                                "type": "bytes32",
                                "value": "0x8dedd465e4670214cafcd61c40535b3d0e63e9c702afa0e8353991d57b1a6841"
                            },
                            {
                                "name": "v",
                                "type": "uint256",
                                "value": "28"
                            },
                            {
                                "name": "r",
                                "type": "bytes32",
                                "value": "0xf42b93e0aba2ecec2d2bd357a5af5d4fc629e12c14ada0aa5aa799705e587bbd"
                            },
                            {
                                "name": "s",
                                "type": "bytes32",
                                "value": "0x150ec8321400156d633d402a556ef33297e7aef4877deebd2026377b3dfe406b"
                            }
                        ],
                        "constructorArguments": "",
                        "name": "ecrecover",
                        "returnParams": [
                            {
                                "name": "",
                                "type": "address",
                                "value": "0x2f52deaea31d2636a076627d4a17bbe5278be0ef"
                            }
                        ],
                        "signature": "ecrecover(bytes32,uint256,bytes32,bytes32)"
                    },
                    "errorInfo": "",
                    "fromAddress": "0x000000000022d473030f116ddee9f6b43ac78ba3",
                    "gasUsed": 3000,
                    "id": 2,
                    "methodDecoded": true,
                    "operation": "STATICCALL",
                    "output": "0x0000000000000000000000002f52deaea31d2636a076627d4a17bbe5278be0ef",
                    "revert": false,
                    "revertMessage": "",
                    "selector": "0x8dedd465",
                    "status": true,
                    "value": "0"
                },
                "nodeType": 0
            },
            "20": {
                "invocation": {
                    "address": "0xc02aaa39b223fe8d0a0e5c4f27ead9083c756cc2",
                    "callData": "0x00000000000000000000000000000000000000000000000000b529bdea828415",
                    "decodedMethod": {
                        "callParams": [
                            {
                                "name": "wad",
                                "type": "uint256",
                                "value": "50,992,866,444,608,533"
                            }
                        ],
                        "constructorArguments": "",
                        "name": "withdraw",
                        "returnParams": [],
                        "signature": "withdraw(uint256)"
                    },
                    "errorInfo": "",
                    "fromAddress": "0x3fc91a3afd70395cd496c647d5a6cc9d4b2b7fad",
                    "gasUsed": 9220,
                    "id": 20,
                    "methodDecoded": true,
                    "operation": "CALL",
                    "output": "",
                    "revert": false,
                    "revertMessage": "",
                    "selector": "0x2e1a7d4d",
                    "status": true,
                    "value": "0"
                },
                "nodeType": 0
            },
            "21": {
                "invocation": {
                    "address": "0x3fc91a3afd70395cd496c647d5a6cc9d4b2b7fad",
                    "callData": "0x",
                    "decodedMethod": null,
                    "errorInfo": "",
                    "fromAddress": "0xc02aaa39b223fe8d0a0e5c4f27ead9083c756cc2",
                    "gasUsed": 80,
                    "id": 21,
                    "methodDecoded": false,
                    "operation": "CALL",
                    "output": "",
                    "revert": false,
                    "revertMessage": "",
                    "selector": "fallback",
                    "status": true,
                    "value": "0.050992866444608533"
                },
                "nodeType": 0
            },
            "22": {
                "event": {
                    "contract": "0xc02aaa39b223fe8d0a0e5c4f27ead9083c756cc2",
                    "decodedLog": {
                        "name": "Withdrawal",
                        "params": [
                            {
                                "name": "src",
                                "type": "address",
                                "value": "0x3fc91a3afd70395cd496c647d5a6cc9d4b2b7fad"
                            },
                            {
                                "name": "wad",
                                "type": "uint256",
                                "value": "50,992,866,444,608,533"
                            }
                        ],
                        "signature": "Withdrawal(address,uint256)"
                    },
                    "id": 22,
                    "logData": "0x00000000000000000000000000000000000000000000000000b529bdea828415",
                    "logDecoded": true,
                    "operation": "EVENT",
                    "revert": false,
                    "status": true,
                    "topics": [
                        "0x7fcf532c15f0a6db0bd6d0e038bea71d30d808c7d98cb3bf7268a95bf5081b65",
                        "0x0000000000000000000000003fc91a3afd70395cd496c647d5a6cc9d4b2b7fad"
                    ]
                },
                "nodeType": 1
            },
            "23": {
                "invocation": {
                    "address": "0x2f52deaea31d2636a076627d4a17bbe5278be0ef",
                    "callData": "0x",
                    "decodedMethod": null,
                    "errorInfo": "",
                    "fromAddress": "0x3fc91a3afd70395cd496c647d5a6cc9d4b2b7fad",
                    "gasUsed": 0,
                    "id": 23,
                    "methodDecoded": false,
                    "operation": "CALL",
                    "output": "",
                    "revert": false,
                    "revertMessage": "",
                    "selector": "fallback",
                    "status": true,
                    "value": "0.050992866444608533"
                },
                "nodeType": 0
            },
            "3": {
                "event": {
                    "contract": "0x000000000022d473030f116ddee9f6b43ac78ba3",
                    "decodedLog": {
                        "name": "Permit",
                        "params": [
                            {
                                "name": "owner",
                                "type": "address",
                                "value": "0x2f52deaea31d2636a076627d4a17bbe5278be0ef"
                            },
                            {
                                "name": "token",
                                "type": "address",
                                "value": "0xc3681a720605bd6f8fe9a2fabff6a7cdecdc605d"
                            },
                            {
                                "name": "spender",
                                "type": "address",
                                "value": "0x3fc91a3afd70395cd496c647d5a6cc9d4b2b7fad"
                            },
                            {
                                "name": "amount",
                                "type": "uint160",
                                "value": "1,461,501,637,330,902,918,203,684,832,716,283,019,655,932,542,975"
                            },
                            {
                                "name": "expiration",
                                "type": "uint48",
                                "value": "1,690,429,712"
                            },
                            {
                                "name": "nonce",
                                "type": "uint48",
                                "value": "0"
                            }
                        ],
                        "signature": "Permit(address,address,address,uint160,uint48,uint48)"
                    },
                    "id": 3,
                    "logData": "0x000000000000000000000000ffffffffffffffffffffffffffffffffffffffff0000000000000000000000000000000000000000000000000000000064c1e9100000000000000000000000000000000000000000000000000000000000000000",
                    "logDecoded": true,
                    "operation": "EVENT",
                    "revert": false,
                    "status": true,
                    "topics": [
                        "0xc6a377bfc4eb120024a8ac08eef205be16b817020812c73223e81d1bdb9708ec",
                        "0x0000000000000000000000002f52deaea31d2636a076627d4a17bbe5278be0ef",
                        "0x000000000000000000000000c3681a720605bd6f8fe9a2fabff6a7cdecdc605d",
                        "0x0000000000000000000000003fc91a3afd70395cd496c647d5a6cc9d4b2b7fad"
                    ]
                },
                "nodeType": 1
            },
            "4": {
                "invocation": {
                    "address": "0x000000000022d473030f116ddee9f6b43ac78ba3",
                    "callData": "0x0000000000000000000000002f52deaea31d2636a076627d4a17bbe5278be0ef000000000000000000000000c5ea9262becc6e626875b6afa40e2815c4d8253c00000000000000000000000000000000000000017aa59e03dadc50e203ebb8b1000000000000000000000000c3681a720605bd6f8fe9a2fabff6a7cdecdc605d",
                    "decodedMethod": {
                        "callParams": [
                            {
                                "name": "from",
                                "type": "address",
                                "value": "0x2f52deaea31d2636a076627d4a17bbe5278be0ef"
                            },
                            {
                                "name": "to",
                                "type": "address",
                                "value": "0xc5ea9262becc6e626875b6afa40e2815c4d8253c"
                            },
                            {
                                "name": "amount",
                                "type": "uint160",
                                "value": "117,185,552,677,719,944,343,669,422,257"
                            },
                            {
                                "name": "token",
                                "type": "address",
                                "value": "0xc3681a720605bd6f8fe9a2fabff6a7cdecdc605d"
                            }
                        ],
                        "constructorArguments": "",
                        "name": "transferFrom",
                        "returnParams": [],
                        "signature": "transferFrom(address,address,uint160,address)"
                    },
                    "errorInfo": "",
                    "fromAddress": "0x3fc91a3afd70395cd496c647d5a6cc9d4b2b7fad",
                    "gasUsed": 33860,
                    "id": 4,
                    "methodDecoded": true,
                    "operation": "CALL",
                    "output": "",
                    "revert": false,
                    "revertMessage": "",
                    "selector": "0x36c78516",
                    "status": true,
                    "value": "0"
                },
                "nodeType": 0
            },
            "5": {
                "invocation": {
                    "address": "0xc3681a720605bd6f8fe9a2fabff6a7cdecdc605d",
                    "callData": "0x0000000000000000000000002f52deaea31d2636a076627d4a17bbe5278be0ef000000000000000000000000c5ea9262becc6e626875b6afa40e2815c4d8253c00000000000000000000000000000000000000017aa59e03dadc50e203ebb8b1",
                    "decodedMethod": {
                        "callParams": [
                            {
                                "name": "sender",
                                "type": "address",
                                "value": "0x2f52deaea31d2636a076627d4a17bbe5278be0ef"
                            },
                            {
                                "name": "recipient",
                                "type": "address",
                                "value": "0xc5ea9262becc6e626875b6afa40e2815c4d8253c"
                            },
                            {
                                "decimalAvailable": true,
                                "name": "amount",
                                "type": "uint256",
                                "value": "117,185,552,677,719,944,343,669,422,257"
                            }
                        ],
                        "constructorArguments": "",
                        "name": "transferFrom",
                        "returnParams": [
                            {
                                "name": "",
                                "type": "bool",
                                "value": true
                            }
                        ],
                        "signature": "transferFrom(address,address,uint256)"
                    },
                    "errorInfo": "",
                    "fromAddress": "0x000000000022d473030f116ddee9f6b43ac78ba3",
                    "gasUsed": 30153,
                    "id": 5,
                    "methodDecoded": true,
                    "operation": "CALL",
                    "output": "0x0000000000000000000000000000000000000000000000000000000000000001",
                    "revert": false,
                    "revertMessage": "",
                    "selector": "0x23b872dd",
                    "status": true,
                    "value": "0"
                },
                "nodeType": 0
            },
            "6": {
                "event": {
                    "contract": "0xc3681a720605bd6f8fe9a2fabff6a7cdecdc605d",
                    "decodedLog": {
                        "name": "Transfer",
                        "params": [
                            {
                                "name": "from",
                                "type": "address",
                                "value": "0x2f52deaea31d2636a076627d4a17bbe5278be0ef"
                            },
                            {
                                "name": "to",
                                "type": "address",
                                "value": "0xc5ea9262becc6e626875b6afa40e2815c4d8253c"
                            },
                            {
                                "decimalAvailable": true,
                                "name": "value",
                                "type": "uint256",
                                "value": "117,185,552,677,719,944,343,669,422,257"
                            }
                        ],
                        "signature": "Transfer(address,address,uint256)"
                    },
                    "id": 6,
                    "logData": "0x00000000000000000000000000000000000000017aa59e03dadc50e203ebb8b1",
                    "logDecoded": true,
                    "operation": "EVENT",
                    "revert": false,
                    "status": true,
                    "topics": [
                        "0xddf252ad1be2c89b69c2b068fc378daa952ba7f163c4a11628f55a4df523b3ef",
                        "0x0000000000000000000000002f52deaea31d2636a076627d4a17bbe5278be0ef",
                        "0x000000000000000000000000c5ea9262becc6e626875b6afa40e2815c4d8253c"
                    ]
                },
                "nodeType": 1
            },
            "7": {
                "event": {
                    "contract": "0xc3681a720605bd6f8fe9a2fabff6a7cdecdc605d",
                    "decodedLog": {
                        "name": "Approval",
                        "params": [
                            {
                                "name": "owner",
                                "type": "address",
                                "value": "0x2f52deaea31d2636a076627d4a17bbe5278be0ef"
                            },
                            {
                                "name": "spender",
                                "type": "address",
                                "value": "0x000000000022d473030f116ddee9f6b43ac78ba3"
                            },
                            {
                                "decimalAvailable": true,
                                "name": "value",
                                "type": "uint256",
                                "value": "0"
                            }
                        ],
                        "signature": "Approval(address,address,uint256)"
                    },
                    "id": 7,
                    "logData": "0x0000000000000000000000000000000000000000000000000000000000000000",
                    "logDecoded": true,
                    "operation": "EVENT",
                    "revert": false,
                    "status": true,
                    "topics": [
                        "0x8c5be1e5ebec7d5bd14f71427d1e84f3dd0314c0f7b2291e5b200ac8c7c3b925",
                        "0x0000000000000000000000002f52deaea31d2636a076627d4a17bbe5278be0ef",
                        "0x000000000000000000000000000000000022d473030f116ddee9f6b43ac78ba3"
                    ]
                },
                "nodeType": 1
            },
            "8": {
                "invocation": {
                    "address": "0xc02aaa39b223fe8d0a0e5c4f27ead9083c756cc2",
                    "callData": "0x0000000000000000000000003fc91a3afd70395cd496c647d5a6cc9d4b2b7fad",
                    "decodedMethod": {
                        "callParams": [
                            {
                                "name": "",
                                "type": "address",
                                "value": "0x3fc91a3afd70395cd496c647d5a6cc9d4b2b7fad"
                            }
                        ],
                        "constructorArguments": "",
                        "name": "balanceOf",
                        "returnParams": [
                            {
                                "decimalAvailable": true,
                                "name": "",
                                "type": "uint256",
                                "value": "0"
                            }
                        ],
                        "signature": "balanceOf(address)"
                    },
                    "errorInfo": "",
                    "fromAddress": "0x3fc91a3afd70395cd496c647d5a6cc9d4b2b7fad",
                    "gasUsed": 2534,
                    "id": 8,
                    "methodDecoded": true,
                    "operation": "STATICCALL",
                    "output": "0x0000000000000000000000000000000000000000000000000000000000000000",
                    "revert": false,
                    "revertMessage": "",
                    "selector": "0x70a08231",
                    "status": true,
                    "value": "0"
                },
                "nodeType": 0
            },
            "9": {
                "invocation": {
                    "address": "0xc5ea9262becc6e626875b6afa40e2815c4d8253c",
                    "callData": "0x",
                    "decodedMethod": {
                        "callParams": [],
                        "constructorArguments": "",
                        "name": "getReserves",
                        "returnParams": [
                            {
                                "name": "_reserve0",
                                "type": "uint112",
                                "value": "37,051,105,961,811,839,760"
                            },
                            {
                                "name": "_reserve1",
                                "type": "uint112",
                                "value": "84,774,035,419,402,322,043,648,308,447,945"
                            },
                            {
                                "name": "_blockTimestampLast",
                                "type": "uint32",
                                "value": "1,687,833,671"
                            }
                        ],
                        "signature": "getReserves()"
                    },
                    "errorInfo": "",
                    "fromAddress": "0x3fc91a3afd70395cd496c647d5a6cc9d4b2b7fad",
                    "gasUsed": 2504,
                    "id": 9,
                    "methodDecoded": true,
                    "operation": "STATICCALL",
                    "output": "0x000000000000000000000000000000000000000000000002022ff8912d270b10000000000000000000000000000000000000042dffae8bfbf4763f7599808ac900000000000000000000000000000000000000000000000000000000649a4c47",
                    "revert": false,
                    "revertMessage": "",
                    "selector": "0x0902f1ac",
                    "status": true,
                    "value": "0"
                },
                "nodeType": 0
            }
        },
        "gasFlame": [
            {
                "children": [
                    {
                        "children": [
                            {
                                "children": [],
                                "depth": 0,
                                "name": "Initial Gas",
                                "value": 27988
                            },
                            {
                                "children": [
                                    {
                                        "children": [
                                            {
                                                "children": [],
                                                "depth": 2,
                                                "name": "ecrecover",
                                                "value": 3000
                                            }
                                        ],
                                        "depth": 1,
                                        "name": "permit",
                                        "value": 30786
                                    },
                                    {
                                        "children": [
                                            {
                                                "children": [],
                                                "depth": 2,
                                                "name": "transferFrom",
                                                "value": 30153
                                            }
                                        ],
                                        "depth": 1,
                                        "name": "transferFrom",
                                        "value": 33860
                                    },
                                    {
                                        "children": [],
                                        "depth": 1,
                                        "name": "balanceOf",
                                        "value": 2534
                                    },
                                    {
                                        "children": [],
                                        "depth": 1,
                                        "name": "getReserves",
                                        "value": 2504
                                    },
                                    {
                                        "children": [],
                                        "depth": 1,
                                        "name": "balanceOf",
                                        "value": 886
                                    },
                                    {
                                        "children": [
                                            {
                                                "children": [],
                                                "depth": 2,
                                                "name": "transfer",
                                                "value": 27962
                                            },
                                            {
                                                "children": [],
                                                "depth": 2,
                                                "name": "balanceOf",
                                                "value": 534
                                            },
                                            {
                                                "children": [],
                                                "depth": 2,
                                                "name": "balanceOf",
                                                "value": 886
                                            }
                                        ],
                                        "depth": 1,
                                        "name": "swap",
                                        "value": 60705
                                    },
                                    {
                                        "children": [],
                                        "depth": 1,
                                        "name": "balanceOf",
                                        "value": 534
                                    },
                                    {
                                        "children": [],
                                        "depth": 1,
                                        "name": "balanceOf",
                                        "value": 534
                                    },
                                    {
                                        "children": [
                                            {
                                                "children": [],
                                                "depth": 2,
                                                "name": "fallback",
                                                "value": 80
                                            }
                                        ],
                                        "depth": 1,
                                        "name": "withdraw",
                                        "value": 9220
                                    },
                                    {
                                        "children": [],
                                        "depth": 1,
                                        "name": "fallback",
                                        "value": 0
                                    }
                                ],
                                "depth": 0,
                                "name": "Executed Gas",
                                "value": 172134
                            }
                        ],
                        "depth": -1,
                        "name": "Actual Gas Used",
                        "value": 165022
                    },
                    {
                        "children": [],
                        "depth": -1,
                        "name": "Refunded Gas",
                        "value": 35100
                    }
                ],
                "depth": -2,
                "name": "Total Gas",
                "value": 200122
            }
        ],
        "isConfirmed": true,
        "mainTrace": [
            {
                "children": [
                    {
                        "children": [
                            {
                                "children": [
                                    {
                                        "children": [],
                                        "depth": 2,
                                        "id": 2,
                                        "order": 2
                                    },
                                    {
                                        "children": [],
                                        "depth": 2,
                                        "id": 3,
                                        "order": 3
                                    }
                                ],
                                "depth": 1,
                                "id": 1,
                                "order": 1
                            },
                            {
                                "children": [
                                    {
                                        "children": [
                                            {
                                                "children": [],
                                                "depth": 3,
                                                "id": 6,
                                                "order": 6
                                            },
                                            {
                                                "children": [],
                                                "depth": 3,
                                                "id": 7,
                                                "order": 7
                                            }
                                        ],
                                        "depth": 2,
                                        "id": 5,
                                        "order": 5
                                    }
                                ],
                                "depth": 1,
                                "id": 4,
                                "order": 4
                            },
                            {
                                "children": [],
                                "depth": 1,
                                "id": 8,
                                "order": 8
                            },
                            {
                                "children": [],
                                "depth": 1,
                                "id": 9,
                                "order": 9
                            },
                            {
                                "children": [],
                                "depth": 1,
                                "id": 10,
                                "order": 10
                            },
                            {
                                "children": [
                                    {
                                        "children": [
                                            {
                                                "children": [],
                                                "depth": 3,
                                                "id": 13,
                                                "order": 13
                                            }
                                        ],
                                        "depth": 2,
                                        "id": 12,
                                        "order": 12
                                    },
                                    {
                                        "children": [],
                                        "depth": 2,
                                        "id": 14,
                                        "order": 14
                                    },
                                    {
                                        "children": [],
                                        "depth": 2,
                                        "id": 15,
                                        "order": 15
                                    },
                                    {
                                        "children": [],
                                        "depth": 2,
                                        "id": 16,
                                        "order": 16
                                    },
                                    {
                                        "children": [],
                                        "depth": 2,
                                        "id": 17,
                                        "order": 17
                                    }
                                ],
                                "depth": 1,
                                "id": 11,
                                "order": 11
                            },
                            {
                                "children": [],
                                "depth": 1,
                                "id": 18,
                                "order": 18
                            },
                            {
                                "children": [],
                                "depth": 1,
                                "id": 19,
                                "order": 19
                            },
                            {
                                "children": [
                                    {
                                        "children": [],
                                        "depth": 2,
                                        "id": 21,
                                        "order": 21
                                    },
                                    {
                                        "children": [],
                                        "depth": 2,
                                        "id": 22,
                                        "order": 22
                                    }
                                ],
                                "depth": 1,
                                "id": 20,
                                "order": 20
                            },
                            {
                                "children": [],
                                "depth": 1,
                                "id": 23,
                                "order": 23
                            }
                        ],
                        "depth": 0,
                        "id": 0,
                        "order": 0
                    }
                ],
                "depth": -1,
                "id": -1,
                "order": -1
            }
        ],
        "mainTraceNodeCount": 24,
        "parentIdMap": {
            "0": -1,
            "1": 0,
            "10": 0,
            "11": 0,
            "12": 11,
            "13": 12,
            "14": 11,
            "15": 11,
            "16": 11,
            "17": 11,
            "18": 0,
            "19": 0,
            "2": 1,
            "20": 0,
            "21": 20,
            "22": 20,
            "23": 0,
            "3": 1,
            "4": 0,
            "5": 4,
            "6": 5,
            "7": 5,
            "8": 0,
            "9": 0
        },
        "tidyTrace": [
            {
                "children": [
                    {
                        "children": [
                            {
                                "children": [
                                    {
                                        "children": [],
                                        "depth": 2,
                                        "id": 3,
                                        "order": 3
                                    }
                                ],
                                "depth": 1,
                                "id": 1,
                                "order": 1
                            },
                            {
                                "children": [
                                    {
                                        "children": [
                                            {
                                                "children": [],
                                                "depth": 3,
                                                "id": 6,
                                                "order": 6
                                            },
                                            {
                                                "children": [],
                                                "depth": 3,
                                                "id": 7,
                                                "order": 7
                                            }
                                        ],
                                        "depth": 2,
                                        "id": 5,
                                        "order": 5
                                    }
                                ],
                                "depth": 1,
                                "id": 4,
                                "order": 4
                            },
                            {
                                "children": [
                                    {
                                        "children": [
                                            {
                                                "children": [],
                                                "depth": 3,
                                                "id": 13,
                                                "order": 13
                                            }
                                        ],
                                        "depth": 2,
                                        "id": 12,
                                        "order": 12
                                    },
                                    {
                                        "children": [],
                                        "depth": 2,
                                        "id": 16,
                                        "order": 16
                                    },
                                    {
                                        "children": [],
                                        "depth": 2,
                                        "id": 17,
                                        "order": 17
                                    }
                                ],
                                "depth": 1,
                                "id": 11,
                                "order": 11
                            },
                            {
                                "children": [
                                    {
                                        "children": [],
                                        "depth": 2,
                                        "id": 21,
                                        "order": 21
                                    },
                                    {
                                        "children": [],
                                        "depth": 2,
                                        "id": 22,
                                        "order": 22
                                    }
                                ],
                                "depth": 1,
                                "id": 20,
                                "order": 20
                            },
                            {
                                "children": [],
                                "depth": 1,
                                "id": 23,
                                "order": 23
                            }
                        ],
                        "depth": 0,
                        "id": 0,
                        "order": 0
                    }
                ],
                "depth": -1,
                "id": -1,
                "order": -1
            }
        ],
        "tidyTraceNodeCount": 16
    },
    "state_change": {
        "stateChanges": [
            {
                "address": "0x000000000022d473030f116ddee9f6b43ac78ba3",
                "erc": "",
                "slots": [
                    {
                        "current": "0x000000000001000064c1e910ffffffffffffffffffffffffffffffffffffffff",
                        "key": "0x5103bd8f46b92923cf866a305f9591f1dde59f1b5292cda30fabf7aa5b318ac1",
                        "prev": "0x0000000000000000000000000000000000000000000000000000000000000000"
                    }
                ],
                "storageVariables": [
                    {
                        "name": "allowance",
                        "type": "mapping(address => mapping(address => mapping(address => struct IAllowanceTransfer.PackedAllowance)))",
                        "value": {
                            "pairs": [
                                {
                                    "key": "0x2f52deaea31d2636a076627d4a17bbe5278be0ef",
                                    "value": {
                                        "pairs": [
                                            {
                                                "key": "0xc3681a720605bd6f8fe9a2fabff6a7cdecdc605d",
                                                "value": {
                                                    "pairs": [
                                                        {
                                                            "key": "0x3fc91a3afd70395cd496c647d5a6cc9d4b2b7fad",
                                                            "value": {
                                                                "fields": [
                                                                    {
                                                                        "name": "amount",
                                                                        "type": "uint160",
                                                                        "value": {
                                                                            "current": "1461501637330902918203684832716283019655932542975",
                                                                            "prev": "0",
                                                                            "typeTag": 1
                                                                        }
                                                                    },
                                                                    {
                                                                        "name": "expiration",
                                                                        "type": "uint48",
                                                                        "value": {
                                                                            "current": "1690429712",
                                                                            "prev": "0",
                                                                            "typeTag": 1
                                                                        }
                                                                    },
                                                                    {
                                                                        "name": "nonce",
                                                                        "type": "uint48",
                                                                        "value": {
                                                                            "current": "1",
                                                                            "prev": "0",
                                                                            "typeTag": 1
                                                                        }
                                                                    }
                                                                ],
                                                                "typeTag": 3
                                                            }
                                                        }
                                                    ],
                                                    "typeTag": 4
                                                }
                                            }
                                        ],
                                        "typeTag": 4
                                    }
                                }
                            ],
                            "typeTag": 4
                        }
                    }
                ]
            },
            {
                "address": "0xc02aaa39b223fe8d0a0e5c4f27ead9083c756cc2",
                "erc": "ERC-20",
                "slots": [
                    {
                        "current": "0x000000000000000000000000000000000000000000000002017aced342a486fb",
                        "key": "0x5772647bebdd1a1389f2c05743ce6aeff9ff788475ad761575e74e1f4e421fda",
                        "prev": "0x000000000000000000000000000000000000000000000002022ff8912d270b10"
                    }
                ],
                "storageVariables": [
                    {
                        "name": "balanceOf",
                        "type": "mapping(address => uint256)",
                        "value": {
                            "pairs": [
                                {
                                    "key": "0xc5ea9262becc6e626875b6afa40e2815c4d8253c",
                                    "value": {
                                        "current": "37000113095367231227",
                                        "prev": "37051105961811839760",
                                        "typeTag": 1
                                    }
                                }
                            ],
                            "typeTag": 4
                        }
                    }
                ]
            },
            {
                "address": "0xc3681a720605bd6f8fe9a2fabff6a7cdecdc605d",
                "erc": "ERC-20",
                "slots": [
                    {
                        "current": "0x0000000000000000000000000000000000000000000000000000000000000000",
                        "key": "0x9e624662bedd6fd2c1fb123a8b01b2ea87013bbbccf2855bf2fd7c77cb828ae4",
                        "prev": "0x00000000000000000000000000000000000000017aa59e03dadc50e203ebb8b1"
                    },
                    {
                        "current": "0x000000000000000000000000000000000000042f7a5429ffcf5290579d6c437a",
                        "key": "0xbb62eac0e8254eb0e05ab0905eb4eaf0fb49610e3c58dff2a8535b395299520a",
                        "prev": "0x000000000000000000000000000000000000042dffae8bfbf4763f7599808ac9"
                    },
                    {
                        "current": "0x0000000000000000000000000000000000000000000000000000000000000000",
                        "key": "0x871ee6c76148b4a10f67dfaacb7b8cd1da71cc0365d60aa3a03182fad2dbb0b9",
                        "prev": "0x00000000000000000000000000000000000000017aa59e03dadc50e203ebb8b1"
                    }
                ],
                "storageVariables": [
                    {
                        "name": "_allowances",
                        "type": "mapping(address => mapping(address => uint256))",
                        "value": {
                            "pairs": [
                                {
                                    "key": "0x2f52deaea31d2636a076627d4a17bbe5278be0ef",
                                    "value": {
                                        "pairs": [
                                            {
                                                "key": "0x000000000022d473030f116ddee9f6b43ac78ba3",
                                                "value": {
                                                    "current": "0",
                                                    "prev": "117185552677719944343669422257",
                                                    "typeTag": 1
                                                }
                                            }
                                        ],
                                        "typeTag": 4
                                    }
                                }
                            ],
                            "typeTag": 4
                        }
                    },
                    {
                        "name": "_balances",
                        "type": "mapping(address => uint256)",
                        "value": {
                            "pairs": [
                                {
                                    "key": "0x2f52deaea31d2636a076627d4a17bbe5278be0ef",
                                    "value": {
                                        "current": "0",
                                        "prev": "117185552677719944343669422257",
                                        "typeTag": 1
                                    }
                                },
                                {
                                    "key": "0xc5ea9262becc6e626875b6afa40e2815c4d8253c",
                                    "value": {
                                        "current": "84891220972080041987991977870202",
                                        "prev": "84774035419402322043648308447945",
                                        "typeTag": 1
                                    }
                                }
                            ],
                            "typeTag": 4
                        }
                    }
                ]
            },
            {
                "address": "0xc5ea9262becc6e626875b6afa40e2815c4d8253c",
                "erc": "ERC-20",
                "slots": [
                    {
                        "current": "0x000000000000000000005ec47c8a164ba0a65d870178d8ec4be333c553a26228",
                        "key": "0x0000000000000000000000000000000000000000000000000000000000000009",
                        "prev": "0x000000000000000000005ea38433bf758e4555d273308bc585b9ff3612f3c7b8"
                    },
                    {
                        "current": "0x000000000000000000000000000000000000000023bf77c6511a6b5235c344a8",
                        "key": "0x000000000000000000000000000000000000000000000000000000000000000a",
                        "prev": "0x000000000000000000000000000000000000000023b7daaa73f07c992ec30288"
                    },
                    {
                        "current": "0x649a5c1f042f7a5429ffcf5290579d6c437a000000000002017aced342a486fb",
                        "key": "0x0000000000000000000000000000000000000000000000000000000000000008",
                        "prev": "0x649a4c47042dffae8bfbf4763f7599808ac9000000000002022ff8912d270b10"
                    }
                ],
                "storageVariables": [
                    {
                        "name": "price0CumulativeLast",
                        "type": "uint256",
                        "value": {
                            "current": "35456740715948329357263752748433053731994920324063784",
                            "prev": "35408554908413987631480171422121337177792937725249464",
                            "typeTag": 1
                        }
                    },
                    {
                        "name": "price1CumulativeLast",
                        "type": "uint256",
                        "value": {
                            "current": "11063445795204361127307986088",
                            "prev": "11054241388930626963747570312",
                            "typeTag": 1
                        }
                    },
                    {
                        "name": "reserve0",
                        "type": "uint112",
                        "value": {
                            "current": "37000113095367231227",
                            "prev": "37051105961811839760",
                            "typeTag": 1
                        }
                    },
                    {
                        "name": "reserve1",
                        "type": "uint112",
                        "value": {
                            "current": "84891220972080041987991977870202",
                            "prev": "84774035419402322043648308447945",
                            "typeTag": 1
                        }
                    },
                    {
                        "name": "blockTimestampLast",
                        "type": "uint32",
                        "value": {
                            "current": "1687837727",
                            "prev": "1687833671",
                            "typeTag": 1
                        }
                    }
                ]
            }
        ]
    }
}