{
    "balance_change": {
        "balanceChanges": [
            {
                "account": "0x0681d8db095565fe8a346fa0277bffde9c0edbbf",
                "assets": [
                    {
                        "address": "0x1f573d6fb3f13d689ff844b4ce37794d79a7ff1c",
                        "amount": "1,198.7",
                        "iconUrl": "https://assets.blocksec.com/icon/2134050168d6c4780030be02f0a6ca44fe9e3462a2cefed4fac3abde8839c5b0.png",
                        "isERC1155": false,
                        "isERC721": false,
                        "sign": false,
                        "value": ""
                    }
                ]
            },
            {
                "account": "0x49c96c63500b22c732c26a3e4b3085e526ff7a2e",
                "assets": [
                    {
                        "address": "0x1f573d6fb3f13d689ff844b4ce37794d79a7ff1c",
                        "amount": "1,198.7",
                        "iconUrl": "https://assets.blocksec.com/icon/2134050168d6c4780030be02f0a6ca44fe9e3462a2cefed4fac3abde8839c5b0.png",
                        "isERC1155": false,
                        "isERC721": false,
                        "sign": true,
                        "value": ""
                    }
                ]
            }
        ]
    },
    "profile": {
        "basic_info": {
            "baseFee": "",
            "blockNumber": 7333676,
            "callData": "0xa9059cbb00000000000000000000000049c96c63500b22c732c26a3e4b3085e526ff7a2e000000000000000000000000000000000000000000000040fb4de303e4be0000",
            "debugEnable": true,
            "errorInfo": "",
            "eventCount": 1,
            "feeRecipient": "0xea674fdde714fd979de3edf0f56aa9716b898ec8",
            "formatValue": "0",
            "gasLimit": 104816,
            "gasPrice": "40",
            "gasUsed": 52408,
            "intTxnCount": 0,
            "internalRevert": false,
            "internalRevertMessage": "",
            "isContractCreation": false,
            "isFlashloan": false,
            "maxFee": "",
            "nonce": 1285672,
            "overwritedBlockNumber": -1,
            "priorityFee": "",
            "receiver": "0x1f573d6fb3f13d689ff844b4ce37794d79a7ff1c",
            "revertMessage": "",
            "sender": "0x0681d8db095565fe8a346fa0277bffde9c0edbbf",
            "simulationEnable": true,
            "sourceTxnHash": "0x43f64b1b8c71cc6bd6f0b20a19075f03c6ff2a01cdabd4afbf284e97b4143651",
            "status": true,
            "timestamp": "2019-03-09T07:30:38Z",
            "transactionFee": "0.00209632",
            "txnHash": "0x43f64b1b8c71cc6bd6f0b20a19075f03c6ff2a01cdabd4afbf284e97b4143651",
            "txnIndex": 0,
            "type": 0,
            "value": "0"
        },
        "fund_flow": [
            {
                "amount": "1,198.7",
                "from": "0x0681d8db095565fe8a346fa0277bffde9c0edbbf",
                "id": 1,
                "isERC1155": false,
                "isERC721": false,
                "isReverted": false,
                "order": 1,
                "to": "0x49c96c63500b22c732c26a3e4b3085e526ff7a2e",
                "token": "0x1f573d6fb3f13d689ff844b4ce37794d79a7ff1c"
            }
        ],
        "token_infos": [
            {
                "address": "0x1f573d6fb3f13d689ff844b4ce37794d79a7ff1c",
                "decimals": 18
            },
            {
                "address": "0xc02aaa39b223fe8d0a0e5c4f27ead9083c756cc2",
                "decimals": 18
            },
            {
                "address": "0xeeeeeeeeeeeeeeeeeeeeeeeeeeeeeeeeeeeeeeee",
                "decimals": 18
            }
        ]
    },
    "address_label": {
        "labels": [
            {
                "address": "0x1f573d6fb3f13d689ff844b4ce37794d79a7ff1c",
                "label": "Bancor: BNT Token"
            },
            {
                "address": "0x49c96c63500b22c732c26a3e4b3085e526ff7a2e",
                "label": "BITTREX"
            },
            {
                "address": "0x0000000000000000000000000000000000000001",
                "label": "Precompiled"
            },
            {
                "address": "0x0000000000000000000000000000000000000002",
                "label": "Precompiled"
            },
            {
                "address": "0x0000000000000000000000000000000000000003",
                "label": "Precompiled"
            },
            {
                "address": "0x0000000000000000000000000000000000000004",
                "label": "Precompiled"
            },
            {
                "address": "0xeeeeeeeeeeeeeeeeeeeeeeeeeeeeeeeeeeeeeeee",
                "label": "Ether"
            },
            {
                "address": "0x0681d8db095565fe8a346fa0277bffde9c0edbbf",
                "label": "Binance 4"
            }
        ]
    },
    "trace": {
        "accountLabels": null,
        "dataMap": {
            "-1": {
                "invocation": {
                    "address": "0x0681d8db095565fe8a346fa0277bffde9c0edbbf",
                    "callData": "",
                    "decodedMethod": null,
                    "errorInfo": "",
                    "fromAddress": "",
                    "gasUsed": 0,
                    "id": -1,
                    "methodDecoded": false,
                    "operation": "",
                    "output": "",
                    "revert": false,
                    "revertMessage": "",
                    "selector": "",
                    "status": false,
                    "value": ""
                },
                "nodeType": 0
            },
            "0": {
                "invocation": {
                    "address": "0x1f573d6fb3f13d689ff844b4ce37794d79a7ff1c",
                    "callData": "0x00000000000000000000000049c96c63500b22c732c26a3e4b3085e526ff7a2e000000000000000000000000000000000000000000000040fb4de303e4be0000",
                    "decodedMethod": {
                        "callParams": [
                            {
                                "name": "_to",
                                "type": "address",
                                "value": "0x49c96c63500b22c732c26a3e4b3085e526ff7a2e"
                            },
                            {
                                "decimalAvailable": true,
                                "name": "_value",
                                "type": "uint256",
                                "value": "1,198,700,000,000,000,000,000"
                            }
                        ],
                        "constructorArguments": "",
                        "name": "transfer",
                        "returnParams": [
                            {
                                "name": "success",
                                "type": "bool",
                                "value": true
                            }
                        ],
                        "signature": "transfer(address,uint256)"
                    },
                    "errorInfo": "",
                    "fromAddress": "0x0681d8db095565fe8a346fa0277bffde9c0edbbf",
                    "gasUsed": 52408,
                    "id": 0,
                    "methodDecoded": true,
                    "operation": "CALL",
                    "output": "0x0000000000000000000000000000000000000000000000000000000000000001",
                    "revert": false,
                    "revertMessage": "",
                    "selector": "0xa9059cbb",
                    "status": true,
                    "value": "0"
                },
                "nodeType": 0
            },
            "1": {
                "event": {
                    "contract": "0x1f573d6fb3f13d689ff844b4ce37794d79a7ff1c",
                    "decodedLog": {
                        "name": "Transfer",
                        "params": [
                            {
                                "name": "_from",
                                "type": "address",
                                "value": "0x0681d8db095565fe8a346fa0277bffde9c0edbbf"
                            },
                            {
                                "name": "_to",
                                "type": "address",
                                "value": "0x49c96c63500b22c732c26a3e4b3085e526ff7a2e"
                            },
                            {
                                "decimalAvailable": true,
                                "name": "_value",
                                "type": "uint256",
                                "value": "1,198,700,000,000,000,000,000"
                            }
                        ],
                        "signature": "Transfer(address,address,uint256)"
                    },
                    "id": 1,
                    "logData": "0x000000000000000000000000000000000000000000000040fb4de303e4be0000",
                    "logDecoded": true,
                    "operation": "EVENT",
                    "revert": false,
                    "status": true,
                    "topics": [
                        "0xddf252ad1be2c89b69c2b068fc378daa952ba7f163c4a11628f55a4df523b3ef",
                        "0x0000000000000000000000000681d8db095565fe8a346fa0277bffde9c0edbbf",
                        "0x00000000000000000000000049c96c63500b22c732c26a3e4b3085e526ff7a2e"
                    ]
                },
                "nodeType": 1
            }
        },
        "gasFlame": [
            {
                "children": [
                    {
                        "children": [
                            {
                                "children": [],
                                "depth": 0,
                                "name": "Initial Gas",
                                "value": 23256
                            },
                            {
                                "children": [],
                                "depth": 0,
                                "name": "Executed Gas",
                                "value": 29152
                            }
                        ],
                        "depth": -1,
                        "name": "Actual Gas Used",
                        "value": 52408
                    },
                    {
                        "children": [],
                        "depth": -1,
                        "name": "Refunded Gas",
                        "value": 0
                    }
                ],
                "depth": -2,
                "name": "Total Gas",
                "value": 52408
            }
        ],
        "isConfirmed": true,
        "mainTrace": [
            {
                "children": [
                    {
                        "children": [
                            {
                                "children": [],
                                "depth": 1,
                                "id": 1,
                                "order": 1
                            }
                        ],
                        "depth": 0,
                        "id": 0,
                        "order": 0
                    }
                ],
                "depth": -1,
                "id": -1,
                "order": -1
            }
        ],
        "mainTraceNodeCount": 2,
        "parentIdMap": {
            "0": -1,
            "1": 0
        },
        "tidyTrace": [
            {
                "children": [
                    {
                        "children": [
                            {
                                "children": [],
                                "depth": 1,
                                "id": 1,
                                "order": 1
                            }
                        ],
                        "depth": 0,
                        "id": 0,
                        "order": 0
                    }
                ],
                "depth": -1,
                "id": -1,
                "order": -1
            }
        ],
        "tidyTraceNodeCount": 2
    },
    "state_change": {
        "stateChanges": [
            {
                "address": "0x1f573d6fb3f13d689ff844b4ce37794d79a7ff1c",
                "erc": "ERC-20",
                "slots": [
                    {
                        "current": "0x00000000000000000000000000000000000000000000085d82157649953c1c00",
                        "key": "0xe9519dddf36ec8c260e5a3d7ffce7692f39558603df30794a9d4b19a1cbfa8b6",
                        "prev": "0x00000000000000000000000000000000000000000000089e7d63594d79fa1c00"
                    },
                    {
                        "current": "0x000000000000000000000000000000000000000000000040fb4de303e4be0000",
                        "key": "0x76de9a7f489c36c0032b8bf361700781bd56f15c70e1cab3d05744152e18c501",
                        "prev": "0x0000000000000000000000000000000000000000000000000000000000000000"
                    }
                ],
                "storageVariables": []
            }
        ]
    }
}