{
    "balance_change": {
        "balanceChanges": [
            {
                "account": "0xe8cfad4c75a5e1caf939fd80afcf837dde340a69",
                "assets": [
                    {
                        "address": "0xc02aaa39b223fe8d0a0e5c4f27ead9083c756cc2",
                        "amount": "31.73859060831223808",
                        "iconUrl": "https://assets.blocksec.com/icon/f1cb2d02c471d545bbc7722daf3277fd852d98e63d118771af7047bd8256c516.png",
                        "isERC1155": false,
                        "isERC721": false,
                        "sign": false,
                        "value": "60454.715236209699423"
                    },
                    {
                        "address": "0xdac17f958d2ee523a2206206994597c13d831ec7",
                        "amount": "60,420.407676",
                        "iconUrl": "https://assets.blocksec.com/icon/fcea71f3193ce895be44bfdf941f7e4c9381dd587f273c2d1a27f1263d84e4ea.png",
                        "isERC1155": false,
                        "isERC721": false,
                        "sign": true,
                        "value": "60341.861150016001943"
                    }
                ]
            },
            {
                "account": "0xd51a44d3fae010294c616388b506acda1bfaae46",
                "assets": [
                    {
                        "address": "0xc02aaa39b223fe8d0a0e5c4f27ead9083c756cc2",
                        "amount": "31.73859060831223808",
                        "iconUrl": "https://assets.blocksec.com/icon/f1cb2d02c471d545bbc7722daf3277fd852d98e63d118771af7047bd8256c516.png",
                        "isERC1155": false,
                        "isERC721": false,
                        "sign": true,
                        "value": "60454.715236209699423"
                    },
                    {
                        "address": "0xdac17f958d2ee523a2206206994597c13d831ec7",
                        "amount": "60,420.407676",
                        "iconUrl": "https://assets.blocksec.com/icon/fcea71f3193ce895be44bfdf941f7e4c9381dd587f273c2d1a27f1263d84e4ea.png",
                        "isERC1155": false,
                        "isERC721": false,
                        "sign": false,
                        "value": "60341.861150016001943"
                    }
                ]
            }
        ]
    },
    "profile": {
        "basic_info": {
            "baseFee": "66.501386627",
            "blockNumber": 17183498,
            "callData": "0xecfc9f5e000000000000000000000000d51a44d3fae010294c616388b506acda1bfaae460000000000000000000000000000000000000000000000000000000000000002000000000000000000000000000000000000000000000001b87620000000000000000000000000000000000000000000000000000000000000000000000000000000000000000000000000000000000000000000000000000000000e1156417c",
            "debugEnable": true,
            "errorInfo": "",
            "eventCount": 3,
            "feeRecipient": "0xdafea492d9c6733ae3d56b7ed1adb60692c98bc5",
            "formatValue": "0",
            "gasLimit": 408088,
            "gasPrice": "85.028016138",
            "gasUsed": 358087,
            "intTxnCount": 12,
            "internalRevert": false,
            "internalRevertMessage": "",
            "isContractCreation": false,
            "isFlashloan": false,
            "maxFee": "",
            "nonce": 10066,
            "overwritedBlockNumber": -1,
            "priorityFee": "",
            "receiver": "0xe8cfad4c75a5e1caf939fd80afcf837dde340a69",
            "revertMessage": "",
            "sender": "0x24f7ef98522dd61d529464f67bb3ffe96ea8afc2",
            "simulationEnable": true,
            "sourceTxnHash": "0x43de022074f21d6eb7c3918a6dd2506344aa56c45b706eb5d7504802cfcfd826",
            "status": true,
            "timestamp": "2023-05-03T23:38:11Z",
            "transactionFee": "0.030447427214808006",
            "txnHash": "0x43de022074f21d6eb7c3918a6dd2506344aa56c45b706eb5d7504802cfcfd826",
            "txnIndex": 8,
            "type": 1,
            "value": "0"
        },
        "fund_flow": [
            {
                "amount": "31.73859060831223808",
                "from": "0xe8cfad4c75a5e1caf939fd80afcf837dde340a69",
                "id": 1,
                "isERC1155": false,
                "isERC721": false,
                "isReverted": false,
                "order": 1,
                "to": "0xd51a44d3fae010294c616388b506acda1bfaae46",
                "token": "0xc02aaa39b223fe8d0a0e5c4f27ead9083c756cc2"
            },
            {
                "amount": "60,420.407676",
                "from": "0xd51a44d3fae010294c616388b506acda1bfaae46",
                "id": 2,
                "isERC1155": false,
                "isERC721": false,
                "isReverted": false,
                "order": 2,
                "to": "0xe8cfad4c75a5e1caf939fd80afcf837dde340a69",
                "token": "0xdac17f958d2ee523a2206206994597c13d831ec7"
            }
        ],
        "token_infos": [
            {
                "address": "0xc02aaa39b223fe8d0a0e5c4f27ead9083c756cc2",
                "decimals": 18
            },
            {
                "address": "0xdac17f958d2ee523a2206206994597c13d831ec7",
                "decimals": 6
            },
            {
                "address": "0xeeeeeeeeeeeeeeeeeeeeeeeeeeeeeeeeeeeeeeee",
                "decimals": 18
            }
        ]
    },
    "address_label": {
        "labels": [
            {
                "address": "0x0000000000000000000000000000000000000003",
                "label": "Precompiled"
            },
            {
                "address": "0x0000000000000000000000000000000000000004",
                "label": "Precompiled"
            },
            {
                "address": "0xeeeeeeeeeeeeeeeeeeeeeeeeeeeeeeeeeeeeeeee",
                "label": "Ether"
            },
            {
                "address": "0xd51a44d3fae010294c616388b506acda1bfaae46",
                "label": "Curve.fi: USDT/WBTC/WETH Pool"
            },
            {
                "address": "0xdac17f958d2ee523a2206206994597c13d831ec7",
                "label": "Tether: USDT Stablecoin"
            },
            {
                "address": "0xc4ad29ba4b3c580e6d59105fff484999997675ff",
                "label": "Curve.fi USD-BTC-ETH (crv3crypto)"
            },
            {
                "address": "0x0000000000000000000000000000000000000002",
                "label": "Precompiled"
            },
            {
                "address": "0xc02aaa39b223fe8d0a0e5c4f27ead9083c756cc2",
                "label": "Wrapped Ether (WETH)"
            },
            {
                "address": "0x8f68f4810cce3194b6cb6f3d50fa58c2c9bdd1d5",
                "label": "Vyper_contract"
            },
            {
                "address": "0x0000000000000000000000000000000000000001",
                "label": "Precompiled"
            }
        ]
    },
    "trace": {
        "accountLabels": null,
        "dataMap": {
            "-1": {
                "invocation": {
                    "address": "0x24f7ef98522dd61d529464f67bb3ffe96ea8afc2",
                    "callData": "",
                    "decodedMethod": null,
                    "errorInfo": "",
                    "fromAddress": "",
                    "gasUsed": 0,
                    "id": -1,
                    "methodDecoded": false,
                    "operation": "",
                    "output": "",
                    "revert": false,
                    "revertMessage": "",
                    "selector": "",
                    "status": false,
                    "value": ""
                },
                "nodeType": 0
            },
            "0": {
                "invocation": {
                    "address": "0xe8cfad4c75a5e1caf939fd80afcf837dde340a69",
                    "callData": "0x000000000000000000000000d51a44d3fae010294c616388b506acda1bfaae460000000000000000000000000000000000000000000000000000000000000002000000000000000000000000000000000000000000000001b87620000000000000000000000000000000000000000000000000000000000000000000000000000000000000000000000000000000000000000000000000000000000e1156417c",
                    "decodedMethod": null,
                    "errorInfo": "",
                    "fromAddress": "0x24f7ef98522dd61d529464f67bb3ffe96ea8afc2",
                    "gasUsed": 358087,
                    "id": 0,
                    "methodDecoded": false,
                    "operation": "CALL",
                    "output": "",
                    "revert": false,
                    "revertMessage": "",
                    "selector": "0xecfc9f5e",
                    "status": true,
                    "value": "0"
                },
                "nodeType": 0
            },
            "1": {
                "invocation": {
                    "address": "0xd51a44d3fae010294c616388b506acda1bfaae46",
                    "callData": "0x00000000000000000000000000000000000000000000000000000000000000020000000000000000000000000000000000000000000000000000000000000000000000000000000000000000000000000000000000000001b8762000000000000000000000000000000000000000000000000000000000000000000e1156417c",
                    "decodedMethod": {
                        "callParams": [
                            {
                                "name": "i",
                                "type": "uint256",
                                "value": "2"
                            },
                            {
                                "name": "j",
                                "type": "uint256",
                                "value": "0"
                            },
                            {
                                "name": "",
                                "type": "uint256",
                                "value": "31,738,590,608,312,238,080"
                            },
                            {
                                "name": "",
                                "type": "uint256",
                                "value": "60,420,407,676"
                            }
                        ],
                        "constructorArguments": "",
                        "name": "exchange",
                        "returnParams": [],
                        "signature": "exchange(uint256,uint256,uint256,uint256)"
                    },
                    "errorInfo": "",
                    "fromAddress": "0xe8cfad4c75a5e1caf939fd80afcf837dde340a69",
                    "gasUsed": 275562,
                    "id": 1,
                    "methodDecoded": true,
                    "operation": "CALL",
                    "output": "",
                    "revert": false,
                    "revertMessage": "",
                    "selector": "0x5b41b908",
                    "status": true,
                    "value": "0"
                },
                "nodeType": 0
            },
            "10": {
                "invocation": {
                    "address": "0xc4ad29ba4b3c580e6d59105fff484999997675ff",
                    "callData": "0x",
                    "decodedMethod": {
                        "callParams": [],
                        "constructorArguments": "",
                        "name": "totalSupply",
                        "returnParams": [
                            {
                                "name": "",
                                "type": "uint256",
                                "value": "192,141,173,230,168,276,696,115"
                            }
                        ],
                        "signature": "totalSupply()"
                    },
                    "errorInfo": "",
                    "fromAddress": "0xd51a44d3fae010294c616388b506acda1bfaae46",
                    "gasUsed": 598,
                    "id": 10,
                    "methodDecoded": true,
                    "operation": "STATICCALL",
                    "output": "0x0000000000000000000000000000000000000000000028affe6e6545be977c33",
                    "revert": false,
                    "revertMessage": "",
                    "selector": "0x18160ddd",
                    "status": true,
                    "value": "0"
                },
                "nodeType": 0
            },
            "11": {
                "invocation": {
                    "address": "0x8f68f4810cce3194b6cb6f3d50fa58c2c9bdd1d5",
                    "callData": "0x0000000000000000000000000000000000000000003ddbaf002812f58d45461300000000000000000000000000000000000000000000008dacc070c4fad8426a00000000000000000000000000000000000000000000086dd5e68c8b8156587e",
                    "decodedMethod": {
                        "callParams": [
                            {
                                "name": "_x",
                                "type": "uint256[3]",
                                "value": [
                                    "74,781,901,447,733,576,045,250,067",
                                    "2,613,438,987,754,423,206,506",
                                    "39,805,040,128,297,023,199,358"
                                ]
                            }
                        ],
                        "constructorArguments": "",
                        "name": "geometric_mean",
                        "returnParams": [
                            {
                                "name": "",
                                "type": "uint256",
                                "value": "198,144,632,258,436,927,781,242"
                            }
                        ],
                        "signature": "geometric_mean(uint256[3])"
                    },
                    "errorInfo": "",
                    "fromAddress": "0xd51a44d3fae010294c616388b506acda1bfaae46",
                    "gasUsed": 25206,
                    "id": 11,
                    "methodDecoded": true,
                    "operation": "STATICCALL",
                    "output": "0x0000000000000000000000000000000000000000000029f5712967cb2b52f97a",
                    "revert": false,
                    "revertMessage": "",
                    "selector": "0xbad1dc26",
                    "status": true,
                    "value": "0"
                },
                "nodeType": 0
            },
            "12": {
                "invocation": {
                    "address": "0x8f68f4810cce3194b6cb6f3d50fa58c2c9bdd1d5",
                    "callData": "0x0000000000000000000000000000000000000000000000000001de24f22e7c01",
                    "decodedMethod": {
                        "callParams": [
                            {
                                "name": "x",
                                "type": "uint256",
                                "value": "525,725,240,032,257"
                            }
                        ],
                        "constructorArguments": "",
                        "name": "sqrt_int",
                        "returnParams": [
                            {
                                "name": "",
                                "type": "uint256",
                                "value": "22,928,699,047,967,309"
                            }
                        ],
                        "signature": "sqrt_int(uint256)"
                    },
                    "errorInfo": "",
                    "fromAddress": "0xd51a44d3fae010294c616388b506acda1bfaae46",
                    "gasUsed": 3473,
                    "id": 12,
                    "methodDecoded": true,
                    "operation": "STATICCALL",
                    "output": "0x00000000000000000000000000000000000000000000000000517587c1ea7a4d",
                    "revert": false,
                    "revertMessage": "",
                    "selector": "0x4e60b141",
                    "status": true,
                    "value": "0"
                },
                "nodeType": 0
            },
            "13": {
                "invocation": {
                    "address": "0x8f68f4810cce3194b6cb6f3d50fa58c2c9bdd1d5",
                    "callData": "0x00000000000000000000000000000000000000000000000000000000001a0e6d00000000000000000000000000000000000000000000000000000abd8940e8050000000000000000000000000000000000000000003eb0ce4dd049dcf5dfa0000000000000000000000000000000000000000000003d63411d776f3acd0b820f0000000000000000000000000000000000000000003d8ae838c20ebd0f42306d",
                    "decodedMethod": {
                        "callParams": [
                            {
                                "name": "ANN",
                                "type": "uint256",
                                "value": "1,707,629"
                            },
                            {
                                "name": "gamma",
                                "type": "uint256",
                                "value": "11,809,167,828,997"
                            },
                            {
                                "name": "x_unsorted",
                                "type": "uint256[3]",
                                "value": [
                                    "75,788,342,953,434,000,000,000,000",
                                    "74,213,190,439,949,313,321,435,663",
                                    "74,400,445,305,601,108,085,977,197"
                                ]
                            }
                        ],
                        "constructorArguments": "",
                        "name": "newton_D",
                        "returnParams": [
                            {
                                "name": "",
                                "type": "uint256",
                                "value": "224,397,419,791,097,797,606,639,666"
                            }
                        ],
                        "signature": "newton_D(uint256,uint256,uint256[3])"
                    },
                    "errorInfo": "",
                    "fromAddress": "0xd51a44d3fae010294c616388b506acda1bfaae46",
                    "gasUsed": 42901,
                    "id": 13,
                    "methodDecoded": true,
                    "operation": "STATICCALL",
                    "output": "0x000000000000000000000000000000000000000000b99e00807b5f137fbc0832",
                    "revert": false,
                    "revertMessage": "",
                    "selector": "0xc7fab708",
                    "status": true,
                    "value": "0"
                },
                "nodeType": 0
            },
            "14": {
                "invocation": {
                    "address": "0x8f68f4810cce3194b6cb6f3d50fa58c2c9bdd1d5",
                    "callData": "0x0000000000000000000000000000000000000000003ddf5580291fb12a9402bb00000000000000000000000000000000000000000000008da89c0da636f9c77400000000000000000000000000000000000000000000086d94eb04d5835a6f47",
                    "decodedMethod": {
                        "callParams": [
                            {
                                "name": "_x",
                                "type": "uint256[3]",
                                "value": [
                                    "74,799,139,930,365,932,535,546,555",
                                    "2,613,140,515,295,323,604,852",
                                    "39,800,357,642,843,721,461,575"
                                ]
                            }
                        ],
                        "constructorArguments": "",
                        "name": "geometric_mean",
                        "returnParams": [
                            {
                                "name": "",
                                "type": "uint256",
                                "value": "198,144,542,069,136,061,438,825"
                            }
                        ],
                        "signature": "geometric_mean(uint256[3])"
                    },
                    "errorInfo": "",
                    "fromAddress": "0xd51a44d3fae010294c616388b506acda1bfaae46",
                    "gasUsed": 25206,
                    "id": 14,
                    "methodDecoded": true,
                    "operation": "STATICCALL",
                    "output": "0x0000000000000000000000000000000000000000000029f56fe8fd1a32a51b69",
                    "revert": false,
                    "revertMessage": "",
                    "selector": "0xbad1dc26",
                    "status": true,
                    "value": "0"
                },
                "nodeType": 0
            },
            "15": {
                "event": {
                    "contract": "0xd51a44d3fae010294c616388b506acda1bfaae46",
                    "decodedLog": {
                        "name": "TokenExchange",
                        "params": [
                            {
                                "name": "buyer",
                                "type": "address",
                                "value": "0xe8cfad4c75a5e1caf939fd80afcf837dde340a69"
                            },
                            {
                                "name": "sold_id",
                                "type": "uint256",
                                "value": "2"
                            },
                            {
                                "name": "tokens_sold",
                                "type": "uint256",
                                "value": "31,738,590,608,312,238,080"
                            },
                            {
                                "name": "bought_id",
                                "type": "uint256",
                                "value": "0"
                            },
                            {
                                "name": "tokens_bought",
                                "type": "uint256",
                                "value": "60,420,407,676"
                            }
                        ],
                        "signature": "TokenExchange(address,uint256,uint256,uint256,uint256)"
                    },
                    "id": 15,
                    "logData": "0x0000000000000000000000000000000000000000000000000000000000000002000000000000000000000000000000000000000000000001b87620000000000000000000000000000000000000000000000000000000000000000000000000000000000000000000000000000000000000000000000000000000000e1156417c",
                    "logDecoded": true,
                    "operation": "EVENT",
                    "revert": false,
                    "status": true,
                    "topics": [
                        "0xb2e76ae99761dc136e598d4a629bb347eccb9532a5f8bbd72e18467c3c34cc98",
                        "0x000000000000000000000000e8cfad4c75a5e1caf939fd80afcf837dde340a69"
                    ]
                },
                "nodeType": 1
            },
            "2": {
                "invocation": {
                    "address": "0xc02aaa39b223fe8d0a0e5c4f27ead9083c756cc2",
                    "callData": "0x000000000000000000000000e8cfad4c75a5e1caf939fd80afcf837dde340a69000000000000000000000000d51a44d3fae010294c616388b506acda1bfaae46000000000000000000000000000000000000000000000001b876200000000000",
                    "decodedMethod": {
                        "callParams": [
                            {
                                "name": "src",
                                "type": "address",
                                "value": "0xe8cfad4c75a5e1caf939fd80afcf837dde340a69"
                            },
                            {
                                "name": "dst",
                                "type": "address",
                                "value": "0xd51a44d3fae010294c616388b506acda1bfaae46"
                            },
                            {
                                "decimalAvailable": true,
                                "name": "wad",
                                "type": "uint256",
                                "value": "31,738,590,608,312,238,080"
                            }
                        ],
                        "constructorArguments": "",
                        "name": "transferFrom",
                        "returnParams": [
                            {
                                "name": "",
                                "type": "bool",
                                "value": true
                            }
                        ],
                        "signature": "transferFrom(address,address,uint256)"
                    },
                    "errorInfo": "",
                    "fromAddress": "0xd51a44d3fae010294c616388b506acda1bfaae46",
                    "gasUsed": 9025,
                    "id": 2,
                    "methodDecoded": true,
                    "operation": "CALL",
                    "output": "0x0000000000000000000000000000000000000000000000000000000000000001",
                    "revert": false,
                    "revertMessage": "",
                    "selector": "0x23b872dd",
                    "status": true,
                    "value": "0"
                },
                "nodeType": 0
            },
            "3": {
                "event": {
                    "contract": "0xc02aaa39b223fe8d0a0e5c4f27ead9083c756cc2",
                    "decodedLog": {
                        "name": "Transfer",
                        "params": [
                            {
                                "name": "src",
                                "type": "address",
                                "value": "0xe8cfad4c75a5e1caf939fd80afcf837dde340a69"
                            },
                            {
                                "name": "dst",
                                "type": "address",
                                "value": "0xd51a44d3fae010294c616388b506acda1bfaae46"
                            },
                            {
                                "decimalAvailable": true,
                                "name": "wad",
                                "type": "uint256",
                                "value": "31,738,590,608,312,238,080"
                            }
                        ],
                        "signature": "Transfer(address,address,uint256)"
                    },
                    "id": 3,
                    "logData": "0x000000000000000000000000000000000000000000000001b876200000000000",
                    "logDecoded": true,
                    "operation": "EVENT",
                    "revert": false,
                    "status": true,
                    "topics": [
                        "0xddf252ad1be2c89b69c2b068fc378daa952ba7f163c4a11628f55a4df523b3ef",
                        "0x000000000000000000000000e8cfad4c75a5e1caf939fd80afcf837dde340a69",
                        "0x000000000000000000000000d51a44d3fae010294c616388b506acda1bfaae46"
                    ]
                },
                "nodeType": 1
            },
            "4": {
                "invocation": {
                    "address": "0x8f68f4810cce3194b6cb6f3d50fa58c2c9bdd1d5",
                    "callData": "0x00000000000000000000000000000000000000000000000000000000001a0e6d00000000000000000000000000000000000000000000000000000abd8940e8050000000000000000000000000000000000000000003ebd99b3691e253ee360000000000000000000000000000000000000000000003d5dd6935beebae96e0af70000000000000000000000000000000000000000003d856c5ba8541a9f5fc49b000000000000000000000000000000000000000000b9930a260958d470a7b00d0000000000000000000000000000000000000000000000000000000000000000",
                    "decodedMethod": {
                        "callParams": [
                            {
                                "name": "ANN",
                                "type": "uint256",
                                "value": "1,707,629"
                            },
                            {
                                "name": "gamma",
                                "type": "uint256",
                                "value": "11,809,167,828,997"
                            },
                            {
                                "name": "x",
                                "type": "uint256[3]",
                                "value": [
                                    "75,848,763,361,110,000,000,000,000",
                                    "74,187,613,300,974,063,509,703,415",
                                    "74,374,548,591,695,329,960,641,691"
                                ]
                            },
                            {
                                "name": "D",
                                "type": "uint256",
                                "value": "224,345,651,709,948,489,940,578,317"
                            },
                            {
                                "name": "i",
                                "type": "uint256",
                                "value": "0"
                            }
                        ],
                        "constructorArguments": "",
                        "name": "newton_y",
                        "returnParams": [
                            {
                                "name": "",
                                "type": "uint256",
                                "value": "75,788,289,820,758,232,434,954,188"
                            }
                        ],
                        "signature": "newton_y(uint256,uint256,uint256[3],uint256,uint256)"
                    },
                    "errorInfo": "",
                    "fromAddress": "0xd51a44d3fae010294c616388b506acda1bfaae46",
                    "gasUsed": 31056,
                    "id": 4,
                    "methodDecoded": true,
                    "operation": "STATICCALL",
                    "output": "0x0000000000000000000000000000000000000000003eb0cb6c731ac2f2274fcc",
                    "revert": false,
                    "revertMessage": "",
                    "selector": "0x36bc8855",
                    "status": true,
                    "value": "0"
                },
                "nodeType": 0
            },
            "5": {
                "invocation": {
                    "address": "0x8f68f4810cce3194b6cb6f3d50fa58c2c9bdd1d5",
                    "callData": "0x0000000000000000000000000000000000000000003eb0cb6c731ac2f2274fcc0000000000000000000000000000000000000000003d5dd6935beebae96e0af70000000000000000000000000000000000000000003d856c5ba8541a9f5fc49b0000000000000000000000000000000000000000000000000001c6bf52634000",
                    "decodedMethod": {
                        "callParams": [
                            {
                                "name": "x",
                                "type": "uint256[3]",
                                "value": [
                                    "75,788,289,820,758,232,434,954,188",
                                    "74,187,613,300,974,063,509,703,415",
                                    "74,374,548,591,695,329,960,641,691"
                                ]
                            },
                            {
                                "name": "fee_gamma",
                                "type": "uint256",
                                "value": "500,000,000,000,000"
                            }
                        ],
                        "constructorArguments": "",
                        "name": "reduction_coefficient",
                        "returnParams": [
                            {
                                "name": "",
                                "type": "uint256",
                                "value": "785,699,879,188,323,473"
                            }
                        ],
                        "signature": "reduction_coefficient(uint256[3],uint256)"
                    },
                    "errorInfo": "",
                    "fromAddress": "0xd51a44d3fae010294c616388b506acda1bfaae46",
                    "gasUsed": 1818,
                    "id": 5,
                    "methodDecoded": true,
                    "operation": "STATICCALL",
                    "output": "0x0000000000000000000000000000000000000000000000000ae75de097165c91",
                    "revert": false,
                    "revertMessage": "",
                    "selector": "0xfa18042d",
                    "status": true,
                    "value": "0"
                },
                "nodeType": 0
            },
            "6": {
                "invocation": {
                    "address": "0xdac17f958d2ee523a2206206994597c13d831ec7",
                    "callData": "0x000000000000000000000000e8cfad4c75a5e1caf939fd80afcf837dde340a690000000000000000000000000000000000000000000000000000000e1156417c",
                    "decodedMethod": {
                        "callParams": [
                            {
                                "name": "_to",
                                "type": "address",
                                "value": "0xe8cfad4c75a5e1caf939fd80afcf837dde340a69"
                            },
                            {
                                "decimalAvailable": true,
                                "name": "_value",
                                "type": "uint256",
                                "value": "60,420,407,676"
                            }
                        ],
                        "constructorArguments": "",
                        "name": "transfer",
                        "returnParams": [],
                        "signature": "transfer(address,uint256)"
                    },
                    "errorInfo": "",
                    "fromAddress": "0xd51a44d3fae010294c616388b506acda1bfaae46",
                    "gasUsed": 10501,
                    "id": 6,
                    "methodDecoded": true,
                    "operation": "CALL",
                    "output": "",
                    "revert": false,
                    "revertMessage": "",
                    "selector": "0xa9059cbb",
                    "status": true,
                    "value": "0"
                },
                "nodeType": 0
            },
            "7": {
                "event": {
                    "contract": "0xdac17f958d2ee523a2206206994597c13d831ec7",
                    "decodedLog": {
                        "name": "Transfer",
                        "params": [
                            {
                                "name": "from",
                                "type": "address",
                                "value": "0xd51a44d3fae010294c616388b506acda1bfaae46"
                            },
                            {
                                "name": "to",
                                "type": "address",
                                "value": "0xe8cfad4c75a5e1caf939fd80afcf837dde340a69"
                            },
                            {
                                "decimalAvailable": true,
                                "name": "value",
                                "type": "uint256",
                                "value": "60,420,407,676"
                            }
                        ],
                        "signature": "Transfer(address,address,uint256)"
                    },
                    "id": 7,
                    "logData": "0x0000000000000000000000000000000000000000000000000000000e1156417c",
                    "logDecoded": true,
                    "operation": "EVENT",
                    "revert": false,
                    "status": true,
                    "topics": [
                        "0xddf252ad1be2c89b69c2b068fc378daa952ba7f163c4a11628f55a4df523b3ef",
                        "0x000000000000000000000000d51a44d3fae010294c616388b506acda1bfaae46",
                        "0x000000000000000000000000e8cfad4c75a5e1caf939fd80afcf837dde340a69"
                    ]
                },
                "nodeType": 1
            },
            "8": {
                "invocation": {
                    "address": "0x8f68f4810cce3194b6cb6f3d50fa58c2c9bdd1d5",
                    "callData": "0x0000000000000000000000000000000000000000000000000ba8478cab54000000000000000000000000000000000000000000000000000000000002540be400",
                    "decodedMethod": {
                        "callParams": [
                            {
                                "name": "power",
                                "type": "uint256",
                                "value": "840,000,000,000,000,000"
                            },
                            {
                                "name": "precision",
                                "type": "uint256",
                                "value": "10,000,000,000"
                            }
                        ],
                        "constructorArguments": "",
                        "name": "halfpow",
                        "returnParams": [
                            {
                                "name": "",
                                "type": "uint256",
                                "value": "558,643,574,203,426,232"
                            }
                        ],
                        "signature": "halfpow(uint256,uint256)"
                    },
                    "errorInfo": "",
                    "fromAddress": "0xd51a44d3fae010294c616388b506acda1bfaae46",
                    "gasUsed": 11858,
                    "id": 8,
                    "methodDecoded": true,
                    "operation": "STATICCALL",
                    "output": "0x00000000000000000000000000000000000000000000000007c0b35ef47325b8",
                    "revert": false,
                    "revertMessage": "",
                    "selector": "0x571bae3f",
                    "status": true,
                    "value": "0"
                },
                "nodeType": 0
            },
            "9": {
                "invocation": {
                    "address": "0x8f68f4810cce3194b6cb6f3d50fa58c2c9bdd1d5",
                    "callData": "0x00000000000000000000000000000000000000000000000000000000001a0e6d00000000000000000000000000000000000000000000000000000abd8940e8050000000000000000000000000000000000000000003eb0ce4dd049dcf5dfa0000000000000000000000000000000000000000000003d5dd6935beebae96e0af70000000000000000000000000000000000000000003d856c5ba8541a9f5fc49b",
                    "decodedMethod": {
                        "callParams": [
                            {
                                "name": "ANN",
                                "type": "uint256",
                                "value": "1,707,629"
                            },
                            {
                                "name": "gamma",
                                "type": "uint256",
                                "value": "11,809,167,828,997"
                            },
                            {
                                "name": "x_unsorted",
                                "type": "uint256[3]",
                                "value": [
                                    "75,788,342,953,434,000,000,000,000",
                                    "74,187,613,300,974,063,509,703,415",
                                    "74,374,548,591,695,329,960,641,691"
                                ]
                            }
                        ],
                        "constructorArguments": "",
                        "name": "newton_D",
                        "returnParams": [
                            {
                                "name": "",
                                "type": "uint256",
                                "value": "224,345,704,343,200,728,135,750,203"
                            }
                        ],
                        "signature": "newton_D(uint256,uint256,uint256[3])"
                    },
                    "errorInfo": "",
                    "fromAddress": "0xd51a44d3fae010294c616388b506acda1bfaae46",
                    "gasUsed": 43001,
                    "id": 9,
                    "methodDecoded": true,
                    "operation": "STATICCALL",
                    "output": "0x000000000000000000000000000000000000000000b9930d007838e0a7cfd23b",
                    "revert": false,
                    "revertMessage": "",
                    "selector": "0xc7fab708",
                    "status": true,
                    "value": "0"
                },
                "nodeType": 0
            }
        },
        "gasFlame": [
            {
                "children": [
                    {
                        "children": [
                            {
                                "children": [],
                                "depth": 0,
                                "name": "Initial Gas",
                                "value": 99164
                            },
                            {
                                "children": [
                                    {
                                        "children": [
                                            {
                                                "children": [],
                                                "depth": 2,
                                                "name": "transferFrom",
                                                "value": 9025
                                            },
                                            {
                                                "children": [],
                                                "depth": 2,
                                                "name": "newton_y",
                                                "value": 31056
                                            },
                                            {
                                                "children": [],
                                                "depth": 2,
                                                "name": "reduction_coefficient",
                                                "value": 1818
                                            },
                                            {
                                                "children": [],
                                                "depth": 2,
                                                "name": "transfer",
                                                "value": 10501
                                            },
                                            {
                                                "children": [],
                                                "depth": 2,
                                                "name": "halfpow",
                                                "value": 11858
                                            },
                                            {
                                                "children": [],
                                                "depth": 2,
                                                "name": "newton_D",
                                                "value": 43001
                                            },
                                            {
                                                "children": [],
                                                "depth": 2,
                                                "name": "totalSupply",
                                                "value": 598
                                            },
                                            {
                                                "children": [],
                                                "depth": 2,
                                                "name": "geometric_mean",
                                                "value": 25206
                                            },
                                            {
                                                "children": [],
                                                "depth": 2,
                                                "name": "sqrt_int",
                                                "value": 3473
                                            },
                                            {
                                                "children": [],
                                                "depth": 2,
                                                "name": "newton_D",
                                                "value": 42901
                                            },
                                            {
                                                "children": [],
                                                "depth": 2,
                                                "name": "geometric_mean",
                                                "value": 25206
                                            }
                                        ],
                                        "depth": 1,
                                        "name": "exchange",
                                        "value": 275562
                                    }
                                ],
                                "depth": 0,
                                "name": "Executed Gas",
                                "value": 278823
                            }
                        ],
                        "depth": -1,
                        "name": "Actual Gas Used",
                        "value": 358087
                    },
                    {
                        "children": [],
                        "depth": -1,
                        "name": "Refunded Gas",
                        "value": 19900
                    }
                ],
                "depth": -2,
                "name": "Total Gas",
                "value": 377987
            }
        ],
        "isConfirmed": true,
        "mainTrace": [
            {
                "children": [
                    {
                        "children": [
                            {
                                "children": [
                                    {
                                        "children": [
                                            {
                                                "children": [],
                                                "depth": 3,
                                                "id": 3,
                                                "order": 3
                                            }
                                        ],
                                        "depth": 2,
                                        "id": 2,
                                        "order": 2
                                    },
                                    {
                                        "children": [],
                                        "depth": 2,
                                        "id": 4,
                                        "order": 4
                                    },
                                    {
                                        "children": [],
                                        "depth": 2,
                                        "id": 5,
                                        "order": 5
                                    },
                                    {
                                        "children": [
                                            {
                                                "children": [],
                                                "depth": 3,
                                                "id": 7,
                                                "order": 7
                                            }
                                        ],
                                        "depth": 2,
                                        "id": 6,
                                        "order": 6
                                    },
                                    {
                                        "children": [],
                                        "depth": 2,
                                        "id": 8,
                                        "order": 8
                                    },
                                    {
                                        "children": [],
                                        "depth": 2,
                                        "id": 9,
                                        "order": 9
                                    },
                                    {
                                        "children": [],
                                        "depth": 2,
                                        "id": 10,
                                        "order": 10
                                    },
                                    {
                                        "children": [],
                                        "depth": 2,
                                        "id": 11,
                                        "order": 11
                                    },
                                    {
                                        "children": [],
                                        "depth": 2,
                                        "id": 12,
                                        "order": 12
                                    },
                                    {
                                        "children": [],
                                        "depth": 2,
                                        "id": 13,
                                        "order": 13
                                    },
                                    {
                                        "children": [],
                                        "depth": 2,
                                        "id": 14,
                                        "order": 14
                                    },
                                    {
                                        "children": [],
                                        "depth": 2,
                                        "id": 15,
                                        "order": 15
                                    }
                                ],
                                "depth": 1,
                                "id": 1,
                                "order": 1
                            }
                        ],
                        "depth": 0,
                        "id": 0,
                        "order": 0
                    }
                ],
                "depth": -1,
                "id": -1,
                "order": -1
            }
        ],
        "mainTraceNodeCount": 16,
        "parentIdMap": {
            "0": -1,
            "1": 0,
            "10": 1,
            "11": 1,
            "12": 1,
            "13": 1,
            "14": 1,
            "15": 1,
            "2": 1,
            "3": 2,
            "4": 1,
            "5": 1,
            "6": 1,
            "7": 6,
            "8": 1,
            "9": 1
        },
        "tidyTrace": [
            {
                "children": [
                    {
                        "children": [
                            {
                                "children": [
                                    {
                                        "children": [
                                            {
                                                "children": [],
                                                "depth": 3,
                                                "id": 3,
                                                "order": 3
                                            }
                                        ],
                                        "depth": 2,
                                        "id": 2,
                                        "order": 2
                                    },
                                    {
                                        "children": [
                                            {
                                                "children": [],
                                                "depth": 3,
                                                "id": 7,
                                                "order": 7
                                            }
                                        ],
                                        "depth": 2,
                                        "id": 6,
                                        "order": 6
                                    },
                                    {
                                        "children": [],
                                        "depth": 2,
                                        "id": 15,
                                        "order": 15
                                    }
                                ],
                                "depth": 1,
                                "id": 1,
                                "order": 1
                            }
                        ],
                        "depth": 0,
                        "id": 0,
                        "order": 0
                    }
                ],
                "depth": -1,
                "id": -1,
                "order": -1
            }
        ],
        "tidyTraceNodeCount": 7
    },
    "state_change": {
        "stateChanges": [
            {
                "address": "0xc02aaa39b223fe8d0a0e5c4f27ead9083c756cc2",
                "erc": "ERC-20",
                "slots": [
                    {
                        "current": "0x000000000000000000000000000000000000000000000012514165fe8bb17de8",
                        "key": "0x12b8ba28555eac908c7ceeaffdb0aaf4c1c68d4c264f05b89b617d175125e4f7",
                        "prev": "0x00000000000000000000000000000000000000000000001409b785fe8bb17de8"
                    },
                    {
                        "current": "0x00000000000000000000000000000000000000000000086214d421dc3f45fdfa",
                        "key": "0x9b354f30d74ca151470e4c01c97d425c838beac0ab30a0bd396660e4405f8bee",
                        "prev": "0x0000000000000000000000000000000000000000000008605c5e01dc3f45fdfa"
                    }
                ],
                "storageVariables": [
                    {
                        "name": "balanceOf",
                        "type": "mapping(address => uint256)",
                        "value": {
                            "pairs": [
                                {
                                    "key": "0xd51a44d3fae010294c616388b506acda1bfaae46",
                                    "value": {
                                        "current": "39588213643986357059066",
                                        "prev": "39556475053378044820986",
                                        "typeTag": 1
                                    }
                                },
                                {
                                    "key": "0xe8cfad4c75a5e1caf939fd80afcf837dde340a69",
                                    "value": {
                                        "current": "337896466461270048232",
                                        "prev": "369635057069582286312",
                                        "typeTag": 1
                                    }
                                }
                            ],
                            "typeTag": 4
                        }
                    }
                ]
            },
            {
                "address": "0xd51a44d3fae010294c616388b506acda1bfaae46",
                "erc": "",
                "slots": [
                    {
                        "current": "0x000000000000000000000000000000000000000000000000000044edd94285da",
                        "key": "0xd833147d7dc355ba459fc788f669e58cfaf9dc25ddcd0702e87d69c7b5124289",
                        "prev": "0x000000000000000000000000000000000000000000000000000044fbea98c756"
                    },
                    {
                        "current": "0x000000000000006732fe289b85a5606c0000000000000628105f9d4136feb379",
                        "key": "0x0000000000000000000000000000000000000000000000000000000000000002",
                        "prev": "0x0000000000000067864ff84d1d576f4e0000000000000628105f9d4136feb379"
                    },
                    {
                        "current": "0x000000000000000000000000000000000000000000b99e00807b5f137fbc0832",
                        "key": "0x0000000000000000000000000000000000000000000000000000000000000017",
                        "prev": "0x000000000000000000000000000000000000000000b9930a260958d470a7b00d"
                    },
                    {
                        "current": "0x0000000000000000000000000000000000000000000000000e4fb7799b282d04",
                        "key": "0x000000000000000000000000000000000000000000000000000000000000001c",
                        "prev": "0x0000000000000000000000000000000000000000000000000e4fb7ae90649ec7"
                    },
                    {
                        "current": "0x00000000000000000000000000000000000000000000086214d421dc3f45fdfa",
                        "key": "0xd833147d7dc355ba459fc788f669e58cfaf9dc25ddcd0702e87d69c7b512428b",
                        "prev": "0x0000000000000000000000000000000000000000000008605c5e01dc3f45fdfa"
                    },
                    {
                        "current": "0x0000000000000067810ed82bd339a82f0000000000000628366c742f241aa8b5",
                        "key": "0x0000000000000000000000000000000000000000000000000000000000000001",
                        "prev": "0x00000000000000677ce820ba4b257ade0000000000000628547c3492d552bd1e"
                    },
                    {
                        "current": "0x000000000000000000000000000000000000000000000000000000006452f063",
                        "key": "0x0000000000000000000000000000000000000000000000000000000000000003",
                        "prev": "0x000000000000000000000000000000000000000000000000000000006452ee6b"
                    },
                    {
                        "current": "0x0000000000000000000000000000000000000000000000000ebeb6060c7cc78c",
                        "key": "0x000000000000000000000000000000000000000000000000000000000000001a",
                        "prev": "0x0000000000000000000000000000000000000000000000000ebeb5cc02fa0551"
                    },
                    {
                        "current": "0x0000000000000065e1569adb3023720e000000000000060fb903fd56bc9e939d",
                        "key": "0x0000000000000000000000000000000000000000000000000000000000000000",
                        "prev": "0x0000000000000065d84296f7e7029cf5000000000000060f301bdad8d7c2316f"
                    }
                ],
                "storageVariables": []
            },
            {
                "address": "0xdac17f958d2ee523a2206206994597c13d831ec7",
                "erc": "ERC-20",
                "slots": [
                    {
                        "current": "0x0000000000000000000000000000000000000000000000000000002fd5040ef8",
                        "key": "0xb7fabfce14f65c22ddcf5a5b1dfdce7671c20075d21f5f7af5b56c8545a1e3d4",
                        "prev": "0x00000000000000000000000000000000000000000000000000000021c3adcd7c"
                    },
                    {
                        "current": "0x000000000000000000000000000000000000000000000000000044edd94285da",
                        "key": "0xeb449bc003e7395128833de1fb3384246962a9d4d29c66083486accd9139c704",
                        "prev": "0x000000000000000000000000000000000000000000000000000044fbea98c756"
                    }
                ],
                "storageVariables": [
                    {
                        "name": "balances",
                        "type": "mapping(address => uint256)",
                        "value": {
                            "pairs": [
                                {
                                    "key": "0xd51a44d3fae010294c616388b506acda1bfaae46",
                                    "value": {
                                        "current": "75788342953434",
                                        "prev": "75848763361110",
                                        "typeTag": 1
                                    }
                                },
                                {
                                    "key": "0xe8cfad4c75a5e1caf939fd80afcf837dde340a69",
                                    "value": {
                                        "current": "205437275896",
                                        "prev": "145016868220",
                                        "typeTag": 1
                                    }
                                }
                            ],
                            "typeTag": 4
                        }
                    }
                ]
            }
        ]
    }
}