{
    "balance_change": {
        "balanceChanges": [
            {
                "account": "0x8a8935f45c4af66eb0975ec4a25519375c70a274",
                "assets": [
                    {
                        "address": "0x912656188616e0184e3181f019022990a63280b1",
                        "amount": "869.25",
                        "iconUrl": "",
                        "isERC1155": false,
                        "isERC721": false,
                        "sign": false,
                        "value": ""
                    }
                ]
            },
            {
                "account": "0xfbc865a47c741be6a245e1cbf9a7fcfae048aedb",
                "assets": [
                    {
                        "address": "0x912656188616e0184e3181f019022990a63280b1",
                        "amount": "869.25",
                        "iconUrl": "",
                        "isERC1155": false,
                        "isERC721": false,
                        "sign": true,
                        "value": ""
                    }
                ]
            }
        ]
    },
    "profile": {
        "basic_info": {
            "baseFee": "",
            "blockNumber": 10100940,
            "callData": "0xa9059cbb000000000000000000000000fbc865a47c741be6a245e1cbf9a7fcfae048aedb000000000000000000000000000000000000000000000000000000143d223d40",
            "debugEnable": true,
            "errorInfo": "",
            "eventCount": 1,
            "feeRecipient": "0x5a0b54d5dc17e0aadc383d2db43b0a0d3e029c4c",
            "formatValue": "0",
            "gasLimit": 360000,
            "gasPrice": "40",
            "gasUsed": 21987,
            "intTxnCount": 0,
            "internalRevert": false,
            "internalRevertMessage": "",
            "isContractCreation": false,
            "isFlashloan": false,
            "maxFee": "",
            "nonce": 11,
            "overwritedBlockNumber": -1,
            "priorityFee": "",
            "receiver": "0x912656188616e0184e3181f019022990a63280b1",
            "revertMessage": "",
            "sender": "0x8a8935f45c4af66eb0975ec4a25519375c70a274",
            "simulationEnable": true,
            "sourceTxnHash": "0x44b82f38120cae83f64b20b3f867feb11bc7417b94adc70d8ca732505883af20",
            "status": true,
            "timestamp": "2020-05-20T05:27:12Z",
            "transactionFee": "0.00087948",
            "txnHash": "0x44b82f38120cae83f64b20b3f867feb11bc7417b94adc70d8ca732505883af20",
            "txnIndex": 72,
            "type": 0,
            "value": "0"
        },
        "fund_flow": [
            {
                "amount": "869.25",
                "from": "0x8a8935f45c4af66eb0975ec4a25519375c70a274",
                "id": 1,
                "isERC1155": false,
                "isERC721": false,
                "isReverted": false,
                "order": 1,
                "to": "0xfbc865a47c741be6a245e1cbf9a7fcfae048aedb",
                "token": "0x912656188616e0184e3181f019022990a63280b1"
            }
        ],
        "token_infos": [
            {
                "address": "0x912656188616e0184e3181f019022990a63280b1",
                "decimals": 8
            },
            {
                "address": "0xc02aaa39b223fe8d0a0e5c4f27ead9083c756cc2",
                "decimals": 18
            },
            {
                "address": "0xeeeeeeeeeeeeeeeeeeeeeeeeeeeeeeeeeeeeeeee",
                "decimals": 18
            }
        ]
    },
    "address_label": {
        "labels": [
            {
                "address": "0x0000000000000000000000000000000000000001",
                "label": "Precompiled"
            },
            {
                "address": "0x0000000000000000000000000000000000000002",
                "label": "Precompiled"
            },
            {
                "address": "0x0000000000000000000000000000000000000003",
                "label": "Precompiled"
            },
            {
                "address": "0x0000000000000000000000000000000000000004",
                "label": "Precompiled"
            },
            {
                "address": "0xeeeeeeeeeeeeeeeeeeeeeeeeeeeeeeeeeeeeeeee",
                "label": "Ether"
            },
            {
                "address": "0x912656188616e0184e3181f019022990a63280b1",
                "label": "POCC (POCC)"
            }
        ]
    },
    "trace": {
        "accountLabels": null,
        "dataMap": {
            "-1": {
                "invocation": {
                    "address": "0x8a8935f45c4af66eb0975ec4a25519375c70a274",
                    "callData": "",
                    "decodedMethod": null,
                    "errorInfo": "",
                    "fromAddress": "",
                    "gasUsed": 0,
                    "id": -1,
                    "methodDecoded": false,
                    "operation": "",
                    "output": "",
                    "revert": false,
                    "revertMessage": "",
                    "selector": "",
                    "status": false,
                    "value": ""
                },
                "nodeType": 0
            },
            "0": {
                "invocation": {
                    "address": "0x912656188616e0184e3181f019022990a63280b1",
                    "callData": "0x000000000000000000000000fbc865a47c741be6a245e1cbf9a7fcfae048aedb000000000000000000000000000000000000000000000000000000143d223d40",
                    "decodedMethod": {
                        "callParams": [
                            {
                                "name": "receiver",
                                "type": "address",
                                "value": "0xfbc865a47c741be6a245e1cbf9a7fcfae048aedb"
                            },
                            {
                                "decimalAvailable": true,
                                "name": "numTokens",
                                "type": "uint256",
                                "value": "86,925,000,000"
                            }
                        ],
                        "constructorArguments": "",
                        "name": "transfer",
                        "returnParams": [
                            {
                                "name": "",
                                "type": "bool",
                                "value": true
                            }
                        ],
                        "signature": "transfer(address,uint256)"
                    },
                    "errorInfo": "",
                    "fromAddress": "0x8a8935f45c4af66eb0975ec4a25519375c70a274",
                    "gasUsed": 21987,
                    "id": 0,
                    "methodDecoded": true,
                    "operation": "CALL",
                    "output": "0x0000000000000000000000000000000000000000000000000000000000000001",
                    "revert": false,
                    "revertMessage": "",
                    "selector": "0xa9059cbb",
                    "status": true,
                    "value": "0"
                },
                "nodeType": 0
            },
            "1": {
                "event": {
                    "contract": "0x912656188616e0184e3181f019022990a63280b1",
                    "decodedLog": {
                        "name": "Transfer",
                        "params": [
                            {
                                "name": "from",
                                "type": "address",
                                "value": "0x8a8935f45c4af66eb0975ec4a25519375c70a274"
                            },
                            {
                                "name": "to",
                                "type": "address",
                                "value": "0xfbc865a47c741be6a245e1cbf9a7fcfae048aedb"
                            },
                            {
                                "decimalAvailable": true,
                                "name": "tokens",
                                "type": "uint256",
                                "value": "86,925,000,000"
                            }
                        ],
                        "signature": "Transfer(address,address,uint256)"
                    },
                    "id": 1,
                    "logData": "0x000000000000000000000000000000000000000000000000000000143d223d40",
                    "logDecoded": true,
                    "operation": "EVENT",
                    "revert": false,
                    "status": true,
                    "topics": [
                        "0xddf252ad1be2c89b69c2b068fc378daa952ba7f163c4a11628f55a4df523b3ef",
                        "0x0000000000000000000000008a8935f45c4af66eb0975ec4a25519375c70a274",
                        "0x000000000000000000000000fbc865a47c741be6a245e1cbf9a7fcfae048aedb"
                    ]
                },
                "nodeType": 1
            }
        },
        "gasFlame": [
            {
                "children": [
                    {
                        "children": [
                            {
                                "children": [],
                                "depth": 0,
                                "name": "Initial Gas",
                                "value": 21620
                            },
                            {
                                "children": [],
                                "depth": 0,
                                "name": "Executed Gas",
                                "value": 15367
                            }
                        ],
                        "depth": -1,
                        "name": "Actual Gas Used",
                        "value": 21987
                    },
                    {
                        "children": [],
                        "depth": -1,
                        "name": "Refunded Gas",
                        "value": 15000
                    }
                ],
                "depth": -2,
                "name": "Total Gas",
                "value": 36987
            }
        ],
        "isConfirmed": true,
        "mainTrace": [
            {
                "children": [
                    {
                        "children": [
                            {
                                "children": [],
                                "depth": 1,
                                "id": 1,
                                "order": 1
                            }
                        ],
                        "depth": 0,
                        "id": 0,
                        "order": 0
                    }
                ],
                "depth": -1,
                "id": -1,
                "order": -1
            }
        ],
        "mainTraceNodeCount": 2,
        "parentIdMap": {
            "0": -1,
            "1": 0
        },
        "tidyTrace": [
            {
                "children": [
                    {
                        "children": [
                            {
                                "children": [],
                                "depth": 1,
                                "id": 1,
                                "order": 1
                            }
                        ],
                        "depth": 0,
                        "id": 0,
                        "order": 0
                    }
                ],
                "depth": -1,
                "id": -1,
                "order": -1
            }
        ],
        "tidyTraceNodeCount": 2
    },
    "state_change": {
        "stateChanges": [
            {
                "address": "0x912656188616e0184e3181f019022990a63280b1",
                "erc": "ERC-20",
                "slots": [
                    {
                        "current": "0x0000000000000000000000000000000000000000000000000001ec7a17beec38",
                        "key": "0x92d6ef53c480ab970b1ad29ca18427126a667bda8982e0c901c8b6e70999e22c",
                        "prev": "0x0000000000000000000000000000000000000000000000000001ec65da9caef8"
                    },
                    {
                        "current": "0x0000000000000000000000000000000000000000000000000000000000000000",
                        "key": "0x813739329074eda4a222d922a63fcd609e82022057a289ec4fbabdf3a75261f7",
                        "prev": "0x000000000000000000000000000000000000000000000000000000143d223d40"
                    }
                ],
                "storageVariables": [
                    {
                        "name": "balances",
                        "type": "mapping(address => uint256)",
                        "value": {
                            "pairs": [
                                {
                                    "key": "0x8a8935f45c4af66eb0975ec4a25519375c70a274",
                                    "value": {
                                        "current": "0",
                                        "prev": "86925000000",
                                        "typeTag": 1
                                    }
                                },
                                {
                                    "key": "0xfbc865a47c741be6a245e1cbf9a7fcfae048aedb",
                                    "value": {
                                        "current": "541484105264184",
                                        "prev": "541397180264184",
                                        "typeTag": 1
                                    }
                                }
                            ],
                            "typeTag": 4
                        }
                    }
                ]
            }
        ]
    }
}