{
    "balance_change": {
        "balanceChanges": [
            {
                "account": "0x8f20a07e0541ca2db9152d7e521aee5d639b211d",
                "assets": [
                    {
                        "address": "0xcadb96858fe496bb6309622f9023ba2defb5d540",
                        "amount": "998,631",
                        "iconUrl": "",
                        "isERC1155": false,
                        "isERC721": false,
                        "sign": false,
                        "value": "1476.233691"
                    }
                ]
            },
            {
                "account": "0x653c0f46e77e61b15f675bb3bf7fe2baca999102",
                "assets": [
                    {
                        "address": "0xcadb96858fe496bb6309622f9023ba2defb5d540",
                        "amount": "998,631",
                        "iconUrl": "",
                        "isERC1155": false,
                        "isERC721": false,
                        "sign": true,
                        "value": "1476.233691"
                    }
                ]
            }
        ]
    },
    "profile": {
        "basic_info": {
            "baseFee": "",
            "blockNumber": 11389183,
            "callData": "0xa9059cbb000000000000000000000000653c0f46e77e61b15f675bb3bf7fe2baca99910200000000000000000000000000000000000000000000d377e51dc6337b3c0000",
            "debugEnable": true,
            "errorInfo": "",
            "eventCount": 1,
            "feeRecipient": "0x5a0b54d5dc17e0aadc383d2db43b0a0d3e029c4c",
            "formatValue": "0",
            "gasLimit": 120000,
            "gasPrice": "45.5",
            "gasUsed": 38841,
            "intTxnCount": 0,
            "internalRevert": false,
            "internalRevertMessage": "",
            "isContractCreation": false,
            "isFlashloan": false,
            "maxFee": "",
            "nonce": 199910,
            "overwritedBlockNumber": -1,
            "priorityFee": "",
            "receiver": "0xcadb96858fe496bb6309622f9023ba2defb5d540",
            "revertMessage": "",
            "sender": "0x8f20a07e0541ca2db9152d7e521aee5d639b211d",
            "simulationEnable": true,
            "sourceTxnHash": "0x4434fb239299b362b2084dca20e368a98a0298d50baa0515ce7c9db699d307af",
            "status": true,
            "timestamp": "2020-12-04T23:47:46Z",
            "transactionFee": "0.0017672655",
            "txnHash": "0x4434fb239299b362b2084dca20e368a98a0298d50baa0515ce7c9db699d307af",
            "txnIndex": 85,
            "type": 0,
            "value": "0"
        },
        "fund_flow": [
            {
                "amount": "998,631",
                "from": "0x8f20a07e0541ca2db9152d7e521aee5d639b211d",
                "id": 1,
                "isERC1155": false,
                "isERC721": false,
                "isReverted": false,
                "order": 1,
                "to": "0x653c0f46e77e61b15f675bb3bf7fe2baca999102",
                "token": "0xcadb96858fe496bb6309622f9023ba2defb5d540"
            }
        ],
        "token_infos": [
            {
                "address": "0xcadb96858fe496bb6309622f9023ba2defb5d540",
                "decimals": 18
            },
            {
                "address": "0xeeeeeeeeeeeeeeeeeeeeeeeeeeeeeeeeeeeeeeee",
                "decimals": 18
            },
            {
                "address": "0xc02aaa39b223fe8d0a0e5c4f27ead9083c756cc2",
                "decimals": 18
            }
        ]
    },
    "address_label": {
        "labels": [
            {
                "address": "0xeeeeeeeeeeeeeeeeeeeeeeeeeeeeeeeeeeeeeeee",
                "label": "Ether"
            },
            {
                "address": "0xcadb96858fe496bb6309622f9023ba2defb5d540",
                "label": "SBToken (SBC)"
            },
            {
                "address": "0x0000000000000000000000000000000000000001",
                "label": "Precompiled"
            },
            {
                "address": "0x0000000000000000000000000000000000000002",
                "label": "Precompiled"
            },
            {
                "address": "0x0000000000000000000000000000000000000003",
                "label": "Precompiled"
            },
            {
                "address": "0x0000000000000000000000000000000000000004",
                "label": "Precompiled"
            }
        ]
    },
    "trace": {
        "accountLabels": null,
        "dataMap": {
            "-1": {
                "invocation": {
                    "address": "0x8f20a07e0541ca2db9152d7e521aee5d639b211d",
                    "callData": "",
                    "decodedMethod": null,
                    "errorInfo": "",
                    "fromAddress": "",
                    "gasUsed": 0,
                    "id": -1,
                    "methodDecoded": false,
                    "operation": "",
                    "output": "",
                    "revert": false,
                    "revertMessage": "",
                    "selector": "",
                    "status": false,
                    "value": ""
                },
                "nodeType": 0
            },
            "0": {
                "invocation": {
                    "address": "0xcadb96858fe496bb6309622f9023ba2defb5d540",
                    "callData": "0x000000000000000000000000653c0f46e77e61b15f675bb3bf7fe2baca99910200000000000000000000000000000000000000000000d377e51dc6337b3c0000",
                    "decodedMethod": {
                        "callParams": [
                            {
                                "name": "_to",
                                "type": "address",
                                "value": "0x653c0f46e77e61b15f675bb3bf7fe2baca999102"
                            },
                            {
                                "decimalAvailable": true,
                                "name": "_value",
                                "type": "uint256",
                                "value": "998,631,000,000,000,000,000,000"
                            }
                        ],
                        "constructorArguments": "",
                        "name": "transfer",
                        "returnParams": [
                            {
                                "name": "success",
                                "type": "bool",
                                "value": true
                            }
                        ],
                        "signature": "transfer(address,uint256)"
                    },
                    "errorInfo": "",
                    "fromAddress": "0x8f20a07e0541ca2db9152d7e521aee5d639b211d",
                    "gasUsed": 38841,
                    "id": 0,
                    "methodDecoded": true,
                    "operation": "CALL",
                    "output": "0x0000000000000000000000000000000000000000000000000000000000000001",
                    "revert": false,
                    "revertMessage": "",
                    "selector": "0xa9059cbb",
                    "status": true,
                    "value": "0"
                },
                "nodeType": 0
            },
            "1": {
                "event": {
                    "contract": "0xcadb96858fe496bb6309622f9023ba2defb5d540",
                    "decodedLog": {
                        "name": "Transfer",
                        "params": [
                            {
                                "name": "_from",
                                "type": "address",
                                "value": "0x8f20a07e0541ca2db9152d7e521aee5d639b211d"
                            },
                            {
                                "name": "_to",
                                "type": "address",
                                "value": "0x653c0f46e77e61b15f675bb3bf7fe2baca999102"
                            },
                            {
                                "decimalAvailable": true,
                                "name": "_value",
                                "type": "uint256",
                                "value": "998,631,000,000,000,000,000,000"
                            }
                        ],
                        "signature": "Transfer(address,address,uint256)"
                    },
                    "id": 1,
                    "logData": "0x00000000000000000000000000000000000000000000d377e51dc6337b3c0000",
                    "logDecoded": true,
                    "operation": "EVENT",
                    "revert": false,
                    "status": true,
                    "topics": [
                        "0xddf252ad1be2c89b69c2b068fc378daa952ba7f163c4a11628f55a4df523b3ef",
                        "0x0000000000000000000000008f20a07e0541ca2db9152d7e521aee5d639b211d",
                        "0x000000000000000000000000653c0f46e77e61b15f675bb3bf7fe2baca999102"
                    ]
                },
                "nodeType": 1
            }
        },
        "gasFlame": [
            {
                "children": [
                    {
                        "children": [
                            {
                                "children": [],
                                "depth": 0,
                                "name": "Initial Gas",
                                "value": 21656
                            },
                            {
                                "children": [],
                                "depth": 0,
                                "name": "Executed Gas",
                                "value": 17185
                            }
                        ],
                        "depth": -1,
                        "name": "Actual Gas Used",
                        "value": 38841
                    },
                    {
                        "children": [],
                        "depth": -1,
                        "name": "Refunded Gas",
                        "value": 0
                    }
                ],
                "depth": -2,
                "name": "Total Gas",
                "value": 38841
            }
        ],
        "isConfirmed": true,
        "mainTrace": [
            {
                "children": [
                    {
                        "children": [
                            {
                                "children": [],
                                "depth": 1,
                                "id": 1,
                                "order": 1
                            }
                        ],
                        "depth": 0,
                        "id": 0,
                        "order": 0
                    }
                ],
                "depth": -1,
                "id": -1,
                "order": -1
            }
        ],
        "mainTraceNodeCount": 2,
        "parentIdMap": {
            "0": -1,
            "1": 0
        },
        "tidyTrace": [
            {
                "children": [
                    {
                        "children": [
                            {
                                "children": [],
                                "depth": 1,
                                "id": 1,
                                "order": 1
                            }
                        ],
                        "depth": 0,
                        "id": 0,
                        "order": 0
                    }
                ],
                "depth": -1,
                "id": -1,
                "order": -1
            }
        ],
        "tidyTraceNodeCount": 2
    },
    "state_change": {
        "stateChanges": [
            {
                "address": "0xcadb96858fe496bb6309622f9023ba2defb5d540",
                "erc": "ERC-20",
                "slots": [
                    {
                        "current": "0x000000000000000000000000000000000000000000023984225c60c39b0e62a0",
                        "key": "0x3183f040bd98ff65aa0eeaa3a395ffa6ee1d9967035bc5a26694df7ffe9f5fcb",
                        "prev": "0x000000000000000000000000000000000000000000030cfc077a26f7164a62a0"
                    },
                    {
                        "current": "0x00000000000000000000000000000000000000000003bcafb4498576e4bfb1b7",
                        "key": "0x7b05e67813fa8b9d4e7c09b7b1208bcbc4a71357e1f1b098945aa096201c2eea",
                        "prev": "0x00000000000000000000000000000000000000000002e937cf2bbf436983b1b7"
                    }
                ],
                "storageVariables": [
                    {
                        "name": "balances",
                        "type": "mapping(address => uint256)",
                        "value": {
                            "pairs": [
                                {
                                    "key": "0x653c0f46e77e61b15f675bb3bf7fe2baca999102",
                                    "value": {
                                        "current": "4517823528897625813135799",
                                        "prev": "3519192528897625813135799",
                                        "typeTag": 1
                                    }
                                },
                                {
                                    "key": "0x8f20a07e0541ca2db9152d7e521aee5d639b211d",
                                    "value": {
                                        "current": "2689463974930846170636960",
                                        "prev": "3688094974930846170636960",
                                        "typeTag": 1
                                    }
                                }
                            ],
                            "typeTag": 4
                        }
                    }
                ]
            }
        ]
    }
}