{
    "balance_change": {
        "balanceChanges": [
            {
                "account": "0x6cbe62f1c06c59687a6a613377ca232631047677",
                "assets": [
                    {
                        "address": "0x15d4c048f83bd7e37d49ea4c83a07267ec4203da",
                        "amount": "15,000",
                        "iconUrl": "https://assets.blocksec.com/icon/36a0407134848a889ddcbd7e9a9dcf40573e21005c8f0c446c3b8b39307d4b8c.png",
                        "isERC1155": false,
                        "isERC721": false,
                        "sign": false,
                        "value": "1689.054609"
                    }
                ]
            },
            {
                "account": "0xbef41309c7f5fabc6c5ccf3876f988456c1d6eff",
                "assets": [
                    {
                        "address": "0x15d4c048f83bd7e37d49ea4c83a07267ec4203da",
                        "amount": "15,000",
                        "iconUrl": "https://assets.blocksec.com/icon/36a0407134848a889ddcbd7e9a9dcf40573e21005c8f0c446c3b8b39307d4b8c.png",
                        "isERC1155": false,
                        "isERC721": false,
                        "sign": true,
                        "value": "1689.054609"
                    }
                ]
            }
        ]
    },
    "profile": {
        "basic_info": {
            "baseFee": "87.29820841",
            "blockNumber": 14744808,
            "callData": "0xa9059cbb000000000000000000000000bef41309c7f5fabc6c5ccf3876f988456c1d6eff0000000000000000000000000000000000000000000000000000015d3ef79800",
            "debugEnable": true,
            "errorInfo": "",
            "eventCount": 1,
            "feeRecipient": "0x1ad91ee08f21be3de0ba2ba6918e714da6b45836",
            "formatValue": "0",
            "gasLimit": 55000,
            "gasPrice": "100.652924798",
            "gasUsed": 51932,
            "intTxnCount": 0,
            "internalRevert": false,
            "internalRevertMessage": "",
            "isContractCreation": false,
            "isFlashloan": false,
            "maxFee": "",
            "nonce": 36,
            "overwritedBlockNumber": -1,
            "priorityFee": "",
            "receiver": "0x15d4c048f83bd7e37d49ea4c83a07267ec4203da",
            "revertMessage": "",
            "sender": "0x6cbe62f1c06c59687a6a613377ca232631047677",
            "simulationEnable": true,
            "sourceTxnHash": "0x4478daf4fc1a764fa9eea57b34c0be249c570efd17b09ef3b094a7ec89dcd59f",
            "status": true,
            "timestamp": "2022-05-09T21:52:15Z",
            "transactionFee": "0.005227107690609736",
            "txnHash": "0x4478daf4fc1a764fa9eea57b34c0be249c570efd17b09ef3b094a7ec89dcd59f",
            "txnIndex": 7,
            "type": 0,
            "value": "0"
        },
        "fund_flow": [
            {
                "amount": "15,000",
                "from": "0x6cbe62f1c06c59687a6a613377ca232631047677",
                "id": 1,
                "isERC1155": false,
                "isERC721": false,
                "isReverted": false,
                "order": 1,
                "to": "0xbef41309c7f5fabc6c5ccf3876f988456c1d6eff",
                "token": "0x15d4c048f83bd7e37d49ea4c83a07267ec4203da"
            }
        ],
        "token_infos": [
            {
                "address": "0x15d4c048f83bd7e37d49ea4c83a07267ec4203da",
                "decimals": 8
            },
            {
                "address": "0xc02aaa39b223fe8d0a0e5c4f27ead9083c756cc2",
                "decimals": 18
            },
            {
                "address": "0xeeeeeeeeeeeeeeeeeeeeeeeeeeeeeeeeeeeeeeee",
                "decimals": 18
            }
        ]
    },
    "address_label": {
        "labels": [
            {
                "address": "0xeeeeeeeeeeeeeeeeeeeeeeeeeeeeeeeeeeeeeeee",
                "label": "Ether"
            },
            {
                "address": "0xbef41309c7f5fabc6c5ccf3876f988456c1d6eff",
                "label": "BINANCE"
            },
            {
                "address": "0x15d4c048f83bd7e37d49ea4c83a07267ec4203da",
                "label": "GALA: Old GALA Token"
            },
            {
                "address": "0x0000000000000000000000000000000000000001",
                "label": "Precompiled"
            },
            {
                "address": "0x0000000000000000000000000000000000000002",
                "label": "Precompiled"
            },
            {
                "address": "0x0000000000000000000000000000000000000003",
                "label": "Precompiled"
            },
            {
                "address": "0x0000000000000000000000000000000000000004",
                "label": "Precompiled"
            }
        ]
    },
    "trace": {
        "accountLabels": null,
        "dataMap": {
            "-1": {
                "invocation": {
                    "address": "0x6cbe62f1c06c59687a6a613377ca232631047677",
                    "callData": "",
                    "decodedMethod": null,
                    "errorInfo": "",
                    "fromAddress": "",
                    "gasUsed": 0,
                    "id": -1,
                    "methodDecoded": false,
                    "operation": "",
                    "output": "",
                    "revert": false,
                    "revertMessage": "",
                    "selector": "",
                    "status": false,
                    "value": ""
                },
                "nodeType": 0
            },
            "0": {
                "invocation": {
                    "address": "0x15d4c048f83bd7e37d49ea4c83a07267ec4203da",
                    "callData": "0x000000000000000000000000bef41309c7f5fabc6c5ccf3876f988456c1d6eff0000000000000000000000000000000000000000000000000000015d3ef79800",
                    "decodedMethod": {
                        "callParams": [
                            {
                                "name": "recipient",
                                "type": "address",
                                "value": "0xbef41309c7f5fabc6c5ccf3876f988456c1d6eff"
                            },
                            {
                                "decimalAvailable": true,
                                "name": "amount",
                                "type": "uint256",
                                "value": "1,500,000,000,000"
                            }
                        ],
                        "constructorArguments": "",
                        "name": "transfer",
                        "returnParams": [
                            {
                                "name": "",
                                "type": "bool",
                                "value": true
                            }
                        ],
                        "signature": "transfer(address,uint256)"
                    },
                    "errorInfo": "",
                    "fromAddress": "0x6cbe62f1c06c59687a6a613377ca232631047677",
                    "gasUsed": 51932,
                    "id": 0,
                    "methodDecoded": true,
                    "operation": "CALL",
                    "output": "0x0000000000000000000000000000000000000000000000000000000000000001",
                    "revert": false,
                    "revertMessage": "",
                    "selector": "0xa9059cbb",
                    "status": true,
                    "value": "0"
                },
                "nodeType": 0
            },
            "1": {
                "event": {
                    "contract": "0x15d4c048f83bd7e37d49ea4c83a07267ec4203da",
                    "decodedLog": {
                        "name": "Transfer",
                        "params": [
                            {
                                "name": "from",
                                "type": "address",
                                "value": "0x6cbe62f1c06c59687a6a613377ca232631047677"
                            },
                            {
                                "name": "to",
                                "type": "address",
                                "value": "0xbef41309c7f5fabc6c5ccf3876f988456c1d6eff"
                            },
                            {
                                "decimalAvailable": true,
                                "name": "value",
                                "type": "uint256",
                                "value": "1,500,000,000,000"
                            }
                        ],
                        "signature": "Transfer(address,address,uint256)"
                    },
                    "id": 1,
                    "logData": "0x0000000000000000000000000000000000000000000000000000015d3ef79800",
                    "logDecoded": true,
                    "operation": "EVENT",
                    "revert": false,
                    "status": true,
                    "topics": [
                        "0xddf252ad1be2c89b69c2b068fc378daa952ba7f163c4a11628f55a4df523b3ef",
                        "0x0000000000000000000000006cbe62f1c06c59687a6a613377ca232631047677",
                        "0x000000000000000000000000bef41309c7f5fabc6c5ccf3876f988456c1d6eff"
                    ]
                },
                "nodeType": 1
            }
        },
        "gasFlame": [
            {
                "children": [
                    {
                        "children": [
                            {
                                "children": [],
                                "depth": 0,
                                "name": "Initial Gas",
                                "value": 21620
                            },
                            {
                                "children": [],
                                "depth": 0,
                                "name": "Executed Gas",
                                "value": 30312
                            }
                        ],
                        "depth": -1,
                        "name": "Actual Gas Used",
                        "value": 51932
                    },
                    {
                        "children": [],
                        "depth": -1,
                        "name": "Refunded Gas",
                        "value": 0
                    }
                ],
                "depth": -2,
                "name": "Total Gas",
                "value": 51932
            }
        ],
        "isConfirmed": true,
        "mainTrace": [
            {
                "children": [
                    {
                        "children": [
                            {
                                "children": [],
                                "depth": 1,
                                "id": 1,
                                "order": 1
                            }
                        ],
                        "depth": 0,
                        "id": 0,
                        "order": 0
                    }
                ],
                "depth": -1,
                "id": -1,
                "order": -1
            }
        ],
        "mainTraceNodeCount": 2,
        "parentIdMap": {
            "0": -1,
            "1": 0
        },
        "tidyTrace": [
            {
                "children": [
                    {
                        "children": [
                            {
                                "children": [],
                                "depth": 1,
                                "id": 1,
                                "order": 1
                            }
                        ],
                        "depth": 0,
                        "id": 0,
                        "order": 0
                    }
                ],
                "depth": -1,
                "id": -1,
                "order": -1
            }
        ],
        "tidyTraceNodeCount": 2
    },
    "state_change": {
        "stateChanges": [
            {
                "address": "0x15d4c048f83bd7e37d49ea4c83a07267ec4203da",
                "erc": "ERC-20",
                "slots": [
                    {
                        "current": "0x0000000000000000000000000000000000000000000000000000001ddf5b62ed",
                        "key": "0xe134c7c5e78532d80eee88ea1b14dc9d52bd81e44bacd02424a4eb15136541a6",
                        "prev": "0x0000000000000000000000000000000000000000000000000000017b1e52faed"
                    },
                    {
                        "current": "0x0000000000000000000000000000000000000000000000000000015d3ef79800",
                        "key": "0x457ccf2cc5f7df6f1b708467f8e2f797862ef9ea3fd139bca7803815bf189a62",
                        "prev": "0x0000000000000000000000000000000000000000000000000000000000000000"
                    }
                ],
                "storageVariables": [
                    {
                        "name": "_balances",
                        "type": "mapping(address => uint256)",
                        "value": {
                            "pairs": [
                                {
                                    "key": "0x6cbe62f1c06c59687a6a613377ca232631047677",
                                    "value": {
                                        "current": "128301359853",
                                        "prev": "1628301359853",
                                        "typeTag": 1
                                    }
                                },
                                {
                                    "key": "0xbef41309c7f5fabc6c5ccf3876f988456c1d6eff",
                                    "value": {
                                        "current": "1500000000000",
                                        "prev": "0",
                                        "typeTag": 1
                                    }
                                }
                            ],
                            "typeTag": 4
                        }
                    }
                ]
            }
        ]
    }
}