{
    "balance_change": {
        "balanceChanges": [
            {
                "account": "0x4bd1b319abc1871e87db54da6c7c6c8a16140383",
                "assets": [
                    {
                        "address": "0x1b90fc1dd92205489c65f8976f1f057d3af1e89f",
                        "amount": "5,000,000,000,000,000,000,000,000",
                        "iconUrl": "",
                        "isERC1155": false,
                        "isERC721": false,
                        "sign": false,
                        "value": ""
                    }
                ]
            },
            {
                "account": "0x7e2357f059327f0d4416a38a339b98655af1536d",
                "assets": [
                    {
                        "address": "0x1b90fc1dd92205489c65f8976f1f057d3af1e89f",
                        "amount": "5,000,000,000,000,000,000,000,000",
                        "iconUrl": "",
                        "isERC1155": false,
                        "isERC721": false,
                        "sign": true,
                        "value": ""
                    }
                ]
            }
        ]
    },
    "profile": {
        "basic_info": {
            "baseFee": "",
            "blockNumber": 7701173,
            "callData": "0xa9059cbb0000000000000000000000007e2357f059327f0d4416a38a339b98655af1536d0000000000000000000000000000000000000000000422ca8b0a00a425000000",
            "debugEnable": true,
            "errorInfo": "",
            "eventCount": 1,
            "feeRecipient": "0x5a0b54d5dc17e0aadc383d2db43b0a0d3e029c4c",
            "formatValue": "0",
            "gasLimit": 53397,
            "gasPrice": "6",
            "gasUsed": 51597,
            "intTxnCount": 0,
            "internalRevert": false,
            "internalRevertMessage": "",
            "isContractCreation": false,
            "isFlashloan": false,
            "maxFee": "",
            "nonce": 3,
            "overwritedBlockNumber": -1,
            "priorityFee": "",
            "receiver": "0x1b90fc1dd92205489c65f8976f1f057d3af1e89f",
            "revertMessage": "",
            "sender": "0x4bd1b319abc1871e87db54da6c7c6c8a16140383",
            "simulationEnable": true,
            "sourceTxnHash": "0x44f9500ba31b99bb488eb97741759d0c6375ad75c9ac33774d81bbfd18edf94a",
            "status": true,
            "timestamp": "2019-05-05T13:22:33Z",
            "transactionFee": "0.000309582",
            "txnHash": "0x44f9500ba31b99bb488eb97741759d0c6375ad75c9ac33774d81bbfd18edf94a",
            "txnIndex": 40,
            "type": 0,
            "value": "0"
        },
        "fund_flow": [
            {
                "amount": "5,000,000,000,000,000,000,000,000",
                "from": "0x4bd1b319abc1871e87db54da6c7c6c8a16140383",
                "id": 1,
                "isERC1155": false,
                "isERC721": false,
                "isReverted": false,
                "order": 1,
                "to": "0x7e2357f059327f0d4416a38a339b98655af1536d",
                "token": "0x1b90fc1dd92205489c65f8976f1f057d3af1e89f"
            }
        ],
        "token_infos": [
            {
                "address": "0xc02aaa39b223fe8d0a0e5c4f27ead9083c756cc2",
                "decimals": 18
            },
            {
                "address": "0xeeeeeeeeeeeeeeeeeeeeeeeeeeeeeeeeeeeeeeee",
                "decimals": 18
            }
        ]
    },
    "address_label": {
        "labels": [
            {
                "address": "0x0000000000000000000000000000000000000002",
                "label": "Precompiled"
            },
            {
                "address": "0x0000000000000000000000000000000000000003",
                "label": "Precompiled"
            },
            {
                "address": "0x0000000000000000000000000000000000000004",
                "label": "Precompiled"
            },
            {
                "address": "0xeeeeeeeeeeeeeeeeeeeeeeeeeeeeeeeeeeeeeeee",
                "label": "Ether"
            },
            {
                "address": "0x1b90fc1dd92205489c65f8976f1f057d3af1e89f",
                "label": "TokenFactory"
            },
            {
                "address": "0x0000000000000000000000000000000000000001",
                "label": "Precompiled"
            }
        ]
    },
    "trace": {
        "accountLabels": null,
        "dataMap": {
            "-1": {
                "invocation": {
                    "address": "0x4bd1b319abc1871e87db54da6c7c6c8a16140383",
                    "callData": "",
                    "decodedMethod": null,
                    "errorInfo": "",
                    "fromAddress": "",
                    "gasUsed": 0,
                    "id": -1,
                    "methodDecoded": false,
                    "operation": "",
                    "output": "",
                    "revert": false,
                    "revertMessage": "",
                    "selector": "",
                    "status": false,
                    "value": ""
                },
                "nodeType": 0
            },
            "0": {
                "invocation": {
                    "address": "0x1b90fc1dd92205489c65f8976f1f057d3af1e89f",
                    "callData": "0x0000000000000000000000007e2357f059327f0d4416a38a339b98655af1536d0000000000000000000000000000000000000000000422ca8b0a00a425000000",
                    "decodedMethod": {
                        "callParams": [
                            {
                                "name": "_to",
                                "type": "address",
                                "value": "0x7e2357f059327f0d4416a38a339b98655af1536d"
                            },
                            {
                                "decimalAvailable": true,
                                "name": "_value",
                                "type": "uint256",
                                "value": "5,000,000,000,000,000,000,000,000"
                            }
                        ],
                        "constructorArguments": "",
                        "name": "transfer",
                        "returnParams": [
                            {
                                "name": "",
                                "type": "bool",
                                "value": true
                            }
                        ],
                        "signature": "transfer(address,uint256)"
                    },
                    "errorInfo": "",
                    "fromAddress": "0x4bd1b319abc1871e87db54da6c7c6c8a16140383",
                    "gasUsed": 51597,
                    "id": 0,
                    "methodDecoded": true,
                    "operation": "CALL",
                    "output": "0x0000000000000000000000000000000000000000000000000000000000000001",
                    "revert": false,
                    "revertMessage": "",
                    "selector": "0xa9059cbb",
                    "status": true,
                    "value": "0"
                },
                "nodeType": 0
            },
            "1": {
                "event": {
                    "contract": "0x1b90fc1dd92205489c65f8976f1f057d3af1e89f",
                    "decodedLog": {
                        "name": "Transfer",
                        "params": [
                            {
                                "name": "from",
                                "type": "address",
                                "value": "0x4bd1b319abc1871e87db54da6c7c6c8a16140383"
                            },
                            {
                                "name": "to",
                                "type": "address",
                                "value": "0x7e2357f059327f0d4416a38a339b98655af1536d"
                            },
                            {
                                "decimalAvailable": true,
                                "name": "value",
                                "type": "uint256",
                                "value": "5,000,000,000,000,000,000,000,000"
                            }
                        ],
                        "signature": "Transfer(address,address,uint256)"
                    },
                    "id": 1,
                    "logData": "0x0000000000000000000000000000000000000000000422ca8b0a00a425000000",
                    "logDecoded": true,
                    "operation": "EVENT",
                    "revert": false,
                    "status": true,
                    "topics": [
                        "0xddf252ad1be2c89b69c2b068fc378daa952ba7f163c4a11628f55a4df523b3ef",
                        "0x0000000000000000000000004bd1b319abc1871e87db54da6c7c6c8a16140383",
                        "0x0000000000000000000000007e2357f059327f0d4416a38a339b98655af1536d"
                    ]
                },
                "nodeType": 1
            }
        },
        "gasFlame": [
            {
                "children": [
                    {
                        "children": [
                            {
                                "children": [],
                                "depth": 0,
                                "name": "Initial Gas",
                                "value": 23256
                            },
                            {
                                "children": [],
                                "depth": 0,
                                "name": "Executed Gas",
                                "value": 28341
                            }
                        ],
                        "depth": -1,
                        "name": "Actual Gas Used",
                        "value": 51597
                    },
                    {
                        "children": [],
                        "depth": -1,
                        "name": "Refunded Gas",
                        "value": 0
                    }
                ],
                "depth": -2,
                "name": "Total Gas",
                "value": 51597
            }
        ],
        "isConfirmed": true,
        "mainTrace": [
            {
                "children": [
                    {
                        "children": [
                            {
                                "children": [],
                                "depth": 1,
                                "id": 1,
                                "order": 1
                            }
                        ],
                        "depth": 0,
                        "id": 0,
                        "order": 0
                    }
                ],
                "depth": -1,
                "id": -1,
                "order": -1
            }
        ],
        "mainTraceNodeCount": 2,
        "parentIdMap": {
            "0": -1,
            "1": 0
        },
        "tidyTrace": [
            {
                "children": [
                    {
                        "children": [
                            {
                                "children": [],
                                "depth": 1,
                                "id": 1,
                                "order": 1
                            }
                        ],
                        "depth": 0,
                        "id": 0,
                        "order": 0
                    }
                ],
                "depth": -1,
                "id": -1,
                "order": -1
            }
        ],
        "tidyTraceNodeCount": 2
    },
    "state_change": {
        "stateChanges": [
            {
                "address": "0x1b90fc1dd92205489c65f8976f1f057d3af1e89f",
                "erc": "ERC-20",
                "slots": [
                    {
                        "current": "0x000000000000000000000000000000000000000009ac7efc35d0d1d9fb800000",
                        "key": "0xd2b3f48acbabc2f368948fe82b57cf98a814b8e636f5e8380a0127a12beb8ae9",
                        "prev": "0x000000000000000000000000000000000000000009b0a1c6c0dad27e20800000"
                    },
                    {
                        "current": "0x0000000000000000000000000000000000000000000422ca8b0a00a425000000",
                        "key": "0x383835b1601ef96142839cd28777f4a7b99edf6fcf3c951005d562b23f1e46ed",
                        "prev": "0x0000000000000000000000000000000000000000000000000000000000000000"
                    }
                ],
                "storageVariables": [
                    {
                        "name": "balances",
                        "type": "mapping(address => uint256)",
                        "value": {
                            "pairs": [
                                {
                                    "key": "0x4bd1b319abc1871e87db54da6c7c6c8a16140383",
                                    "value": {
                                        "current": "2993900000000000000000000000",
                                        "prev": "2998900000000000000000000000",
                                        "typeTag": 1
                                    }
                                },
                                {
                                    "key": "0x7e2357f059327f0d4416a38a339b98655af1536d",
                                    "value": {
                                        "current": "5000000000000000000000000",
                                        "prev": "0",
                                        "typeTag": 1
                                    }
                                }
                            ],
                            "typeTag": 4
                        }
                    }
                ]
            }
        ]
    }
}