{
    "balance_change": {
        "balanceChanges": [
            {
                "account": "0x0000000000000000000000000000000000000000",
                "assets": [
                    {
                        "address": "0x0000000000664ceffed39244a8312bd895470803",
                        "amount": "1",
                        "iconUrl": "",
                        "isERC1155": false,
                        "isERC721": true,
                        "sign": false,
                        "tokenID": "309236",
                        "value": ""
                    }
                ]
            },
            {
                "account": "0xc1eb9468f10e15c455a8aaaa6ab54b265788ced9",
                "assets": [
                    {
                        "address": "0x0000000000664ceffed39244a8312bd895470803",
                        "amount": "1",
                        "iconUrl": "",
                        "isERC1155": false,
                        "isERC721": true,
                        "sign": true,
                        "tokenID": "309236",
                        "value": ""
                    }
                ]
            }
        ]
    },
    "profile": {
        "basic_info": {
            "baseFee": "28.429186869",
            "blockNumber": 17879370,
            "callData": "0xb510391f0000000000000000000000002da690f4c835ddbd8978b153816594c37ba6bab4000000000000000000000000000000000000000000000000000000000000004000000000000000000000000000000000000000000000000000000000000000417822affbb80e879218af6d5613e04e6482ebbcb06a66ddfa2697a31b6ff68281221852df541fc73919f3019d3edcfc9b3a246f6cee69da248a29b625b00041fc1b00000000000000000000000000000000000000000000000000000000000000",
            "debugEnable": true,
            "errorInfo": "",
            "eventCount": 2,
            "feeRecipient": "0x95222290dd7278aa3ddd389cc1e1d165cc4bafe5",
            "formatValue": "0",
            "gasLimit": 122721,
            "gasPrice": "28.529186869",
            "gasUsed": 81814,
            "intTxnCount": 1,
            "internalRevert": false,
            "internalRevertMessage": "",
            "isContractCreation": false,
            "isFlashloan": false,
            "maxFee": "35.245795158",
            "nonce": 21,
            "overwritedBlockNumber": -1,
            "priorityFee": "0.1",
            "receiver": "0x0000000000664ceffed39244a8312bd895470803",
            "revertMessage": "",
            "sender": "0xc1eb9468f10e15c455a8aaaa6ab54b265788ced9",
            "simulationEnable": true,
            "sourceTxnHash": "0x448097ab9edbb04801ccbdc41fc149b681fdb0dfbd736c545bf6f79406358829",
            "status": true,
            "timestamp": "2023-08-09T19:16:47Z",
            "transactionFee": "0.002334086894500366",
            "txnHash": "0x448097ab9edbb04801ccbdc41fc149b681fdb0dfbd736c545bf6f79406358829",
            "txnIndex": 105,
            "type": 2,
            "value": "0"
        },
        "fund_flow": [
            {
                "amount": "1",
                "from": "0x0000000000000000000000000000000000000000",
                "id": 1,
                "isERC1155": false,
                "isERC721": true,
                "isReverted": false,
                "order": 1,
                "to": "0xc1eb9468f10e15c455a8aaaa6ab54b265788ced9",
                "token": "0x0000000000664ceffed39244a8312bd895470803",
                "tokenID": "309236"
            }
        ],
        "token_infos": [
            {
                "address": "0xeeeeeeeeeeeeeeeeeeeeeeeeeeeeeeeeeeeeeeee",
                "decimals": 18
            },
            {
                "address": "0xc02aaa39b223fe8d0a0e5c4f27ead9083c756cc2",
                "decimals": 18
            }
        ]
    },
    "address_label": {
        "labels": [
            {
                "address": "0x0000000000000000000000000000000000000002",
                "label": "Precompiled"
            },
            {
                "address": "0x0000000000000000000000000000000000000003",
                "label": "Precompiled"
            },
            {
                "address": "0x0000000000000000000000000000000000000004",
                "label": "Precompiled"
            },
            {
                "address": "0xeeeeeeeeeeeeeeeeeeeeeeeeeeeeeeeeeeeeeeee",
                "label": "Ether"
            },
            {
                "address": "0x0000000000664ceffed39244a8312bd895470803",
                "label": "mint.fun !fundrop pass (FUNPASS)"
            },
            {
                "address": "0x0000000000000000000000000000000000000001",
                "label": "Precompiled"
            }
        ]
    },
    "trace": {
        "accountLabels": null,
        "dataMap": {
            "-1": {
                "invocation": {
                    "address": "0xc1eb9468f10e15c455a8aaaa6ab54b265788ced9",
                    "callData": "",
                    "decodedMethod": null,
                    "errorInfo": "",
                    "fromAddress": "",
                    "gasUsed": 0,
                    "id": -1,
                    "methodDecoded": false,
                    "operation": "",
                    "output": "",
                    "revert": false,
                    "revertMessage": "",
                    "selector": "",
                    "status": false,
                    "value": ""
                },
                "nodeType": 0
            },
            "0": {
                "invocation": {
                    "address": "0x0000000000664ceffed39244a8312bd895470803",
                    "callData": "0x0000000000000000000000002da690f4c835ddbd8978b153816594c37ba6bab4000000000000000000000000000000000000000000000000000000000000004000000000000000000000000000000000000000000000000000000000000000417822affbb80e879218af6d5613e04e6482ebbcb06a66ddfa2697a31b6ff68281221852df541fc73919f3019d3edcfc9b3a246f6cee69da248a29b625b00041fc1b00000000000000000000000000000000000000000000000000000000000000",
                    "decodedMethod": {
                        "callParams": [
                            {
                                "name": "referrer",
                                "type": "address",
                                "value": "0x2da690f4c835ddbd8978b153816594c37ba6bab4"
                            },
                            {
                                "name": "signature",
                                "type": "bytes",
                                "value": "0x7822affbb80e879218af6d5613e04e6482ebbcb06a66ddfa2697a31b6ff68281221852df541fc73919f3019d3edcfc9b3a246f6cee69da248a29b625b00041fc1b"
                            }
                        ],
                        "constructorArguments": "",
                        "name": "mint",
                        "returnParams": [],
                        "signature": "mint(address,bytes)"
                    },
                    "errorInfo": "",
                    "fromAddress": "0xc1eb9468f10e15c455a8aaaa6ab54b265788ced9",
                    "gasUsed": 81814,
                    "id": 0,
                    "methodDecoded": true,
                    "operation": "CALL",
                    "output": "",
                    "revert": false,
                    "revertMessage": "",
                    "selector": "0xb510391f",
                    "status": true,
                    "value": "0"
                },
                "nodeType": 0
            },
            "1": {
                "invocation": {
                    "address": "0x0000000000000000000000000000000000000001",
                    "callData": "0xb5d6b4ff913c583294051d818af9554964b69f382dfc9ac4b9a01ffb000000000000000000000000000000000000000000000000000000000000001b7822affbb80e879218af6d5613e04e6482ebbcb06a66ddfa2697a31b6ff68281221852df541fc73919f3019d3edcfc9b3a246f6cee69da248a29b625b00041fc",
                    "decodedMethod": {
                        "callParams": [
                            {
                                "name": "hash",
                                "type": "bytes32",
                                "value": "0xffad560fb5d6b4ff913c583294051d818af9554964b69f382dfc9ac4b9a01ffb"
                            },
                            {
                                "name": "v",
                                "type": "uint256",
                                "value": "27"
                            },
                            {
                                "name": "r",
                                "type": "bytes32",
                                "value": "0x7822affbb80e879218af6d5613e04e6482ebbcb06a66ddfa2697a31b6ff68281"
                            },
                            {
                                "name": "s",
                                "type": "bytes32",
                                "value": "0x221852df541fc73919f3019d3edcfc9b3a246f6cee69da248a29b625b00041fc"
                            }
                        ],
                        "constructorArguments": "",
                        "name": "ecrecover",
                        "returnParams": [
                            {
                                "name": "",
                                "type": "address",
                                "value": "0x1e4f983282ff73965889ea98ff4d982d4668605c"
                            }
                        ],
                        "signature": "ecrecover(bytes32,uint256,bytes32,bytes32)"
                    },
                    "errorInfo": "",
                    "fromAddress": "0x0000000000664ceffed39244a8312bd895470803",
                    "gasUsed": 3000,
                    "id": 1,
                    "methodDecoded": true,
                    "operation": "STATICCALL",
                    "output": "0x0000000000000000000000001e4f983282ff73965889ea98ff4d982d4668605c",
                    "revert": false,
                    "revertMessage": "",
                    "selector": "0xffad560f",
                    "status": true,
                    "value": "0"
                },
                "nodeType": 0
            },
            "2": {
                "event": {
                    "contract": "0x0000000000664ceffed39244a8312bd895470803",
                    "decodedLog": {
                        "name": "MinterReferred",
                        "params": [
                            {
                                "name": "referrer",
                                "type": "address",
                                "value": "0x2da690f4c835ddbd8978b153816594c37ba6bab4"
                            }
                        ],
                        "signature": "MinterReferred(address)"
                    },
                    "id": 2,
                    "logData": "0x0000000000000000000000002da690f4c835ddbd8978b153816594c37ba6bab4",
                    "logDecoded": true,
                    "operation": "EVENT",
                    "revert": false,
                    "status": true,
                    "topics": [
                        "0xcecb5f5b62b88dc819e81f535d3c431ec78987ab181067baac5d532dde7ee38a"
                    ]
                },
                "nodeType": 1
            },
            "3": {
                "event": {
                    "contract": "0x0000000000664ceffed39244a8312bd895470803",
                    "decodedLog": {
                        "name": "Transfer",
                        "params": [
                            {
                                "name": "from",
                                "type": "address",
                                "value": "0x0000000000000000000000000000000000000000"
                            },
                            {
                                "name": "to",
                                "type": "address",
                                "value": "0xc1eb9468f10e15c455a8aaaa6ab54b265788ced9"
                            },
                            {
                                "decimalAvailable": true,
                                "name": "tokenId",
                                "type": "uint256",
                                "value": "309,236"
                            }
                        ],
                        "signature": "Transfer(address,address,uint256)"
                    },
                    "id": 3,
                    "logData": "0x",
                    "logDecoded": true,
                    "operation": "EVENT",
                    "revert": false,
                    "status": true,
                    "topics": [
                        "0xddf252ad1be2c89b69c2b068fc378daa952ba7f163c4a11628f55a4df523b3ef",
                        "0x0000000000000000000000000000000000000000000000000000000000000000",
                        "0x000000000000000000000000c1eb9468f10e15c455a8aaaa6ab54b265788ced9",
                        "0x000000000000000000000000000000000000000000000000000000000004b7f4"
                    ]
                },
                "nodeType": 1
            }
        },
        "gasFlame": [
            {
                "children": [
                    {
                        "children": [
                            {
                                "children": [],
                                "depth": 0,
                                "name": "Initial Gas",
                                "value": 22864
                            },
                            {
                                "children": [
                                    {
                                        "children": [],
                                        "depth": 1,
                                        "name": "ecrecover",
                                        "value": 3000
                                    }
                                ],
                                "depth": 0,
                                "name": "Executed Gas",
                                "value": 58950
                            }
                        ],
                        "depth": -1,
                        "name": "Actual Gas Used",
                        "value": 81814
                    },
                    {
                        "children": [],
                        "depth": -1,
                        "name": "Refunded Gas",
                        "value": 0
                    }
                ],
                "depth": -2,
                "name": "Total Gas",
                "value": 81814
            }
        ],
        "isConfirmed": true,
        "mainTrace": [
            {
                "children": [
                    {
                        "children": [
                            {
                                "children": [],
                                "depth": 1,
                                "id": 1,
                                "order": 1
                            },
                            {
                                "children": [],
                                "depth": 1,
                                "id": 2,
                                "order": 2
                            },
                            {
                                "children": [],
                                "depth": 1,
                                "id": 3,
                                "order": 3
                            }
                        ],
                        "depth": 0,
                        "id": 0,
                        "order": 0
                    }
                ],
                "depth": -1,
                "id": -1,
                "order": -1
            }
        ],
        "mainTraceNodeCount": 4,
        "parentIdMap": {
            "0": -1,
            "1": 0,
            "2": 0,
            "3": 0
        },
        "tidyTrace": [
            {
                "children": [
                    {
                        "children": [
                            {
                                "children": [],
                                "depth": 1,
                                "id": 2,
                                "order": 2
                            },
                            {
                                "children": [],
                                "depth": 1,
                                "id": 3,
                                "order": 3
                            }
                        ],
                        "depth": 0,
                        "id": 0,
                        "order": 0
                    }
                ],
                "depth": -1,
                "id": -1,
                "order": -1
            }
        ],
        "tidyTraceNodeCount": 3
    },
    "state_change": {
        "stateChanges": [
            {
                "address": "0x0000000000664ceffed39244a8312bd895470803",
                "erc": "ERC-721",
                "slots": [
                    {
                        "current": "0x000000000000000000000000000000000000000000000000000000000004b7f5",
                        "key": "0x0000000000000000000000000000000000000000000000000000000000000004",
                        "prev": "0x000000000000000000000000000000000000000000000000000000000004b7f4"
                    },
                    {
                        "current": "0x000000000000000000000000c1eb9468f10e15c455a8aaaa6ab54b265788ced9",
                        "key": "0xb7707801fe622a86305247ad686723497893b77c9ef503624fd292a6d9ea948a",
                        "prev": "0x0000000000000000000000000000000000000000000000000000000000000000"
                    },
                    {
                        "current": "0x000000000000000000000000000000000000000000000000000000000004b7f4",
                        "key": "0x3f050504c7566a8d52fb52df46f81a4ec566d55043b0c4c7c2929b4ea1b2f439",
                        "prev": "0x0000000000000000000000000000000000000000000000000000000000000000"
                    }
                ],
                "storageVariables": [
                    {
                        "name": "_nextTokenId",
                        "type": "uint256",
                        "value": {
                            "current": "309237",
                            "prev": "309236",
                            "typeTag": 1
                        }
                    },
                    {
                        "name": "_owners",
                        "type": "mapping(uint256 => address)",
                        "value": {
                            "pairs": [
                                {
                                    "key": "309236",
                                    "value": {
                                        "current": "0xc1eb9468f10e15c455a8aaaa6ab54b265788ced9",
                                        "prev": "0x0000000000000000000000000000000000000000",
                                        "typeTag": 1
                                    }
                                }
                            ],
                            "typeTag": 4
                        }
                    },
                    {
                        "name": "_tokens",
                        "type": "mapping(address => uint256)",
                        "value": {
                            "pairs": [
                                {
                                    "key": "0xc1eb9468f10e15c455a8aaaa6ab54b265788ced9",
                                    "value": {
                                        "current": "309236",
                                        "prev": "0",
                                        "typeTag": 1
                                    }
                                }
                            ],
                            "typeTag": 4
                        }
                    }
                ]
            }
        ]
    }
}