{
    "balance_change": {
        "balanceChanges": []
    },
    "profile": {
        "basic_info": {
            "baseFee": "",
            "blockNumber": 9722657,
            "callData": "0x1729c8d9000000000000000000000000000000000000000000000000000000000002e7ab0000000000000000000000000000000000000000000000843fd40de299dac94b0000000000000000000000006b175474e89094c44da98b954eedeac495271d0f00000000000000000000000000000000000000000000000112fe8f1f28c24000000000000000000000000000c02aaa39b223fe8d0a0e5c4f27ead9083c756cc20000000000000000000000000000000000000000000000000000000000000000",
            "debugEnable": true,
            "errorInfo": "",
            "eventCount": 7,
            "feeRecipient": "0x04668ec2f57cc15c381b461b9fedab5d451c8f7f",
            "formatValue": "0",
            "gasLimit": 500000,
            "gasPrice": "10",
            "gasUsed": 270876,
            "intTxnCount": 4,
            "internalRevert": false,
            "internalRevertMessage": "",
            "isContractCreation": false,
            "isFlashloan": false,
            "maxFee": "",
            "nonce": 1210,
            "overwritedBlockNumber": -1,
            "priorityFee": "",
            "receiver": "0x26f39ba401c8bdc9889585c07ba3e9f7c6d2a7ca",
            "revertMessage": "",
            "sender": "0x8928b201363930b3f79225ceaf2e723c7aa1b564",
            "simulationEnable": true,
            "sourceTxnHash": "0x45369b1529cf4f569845a987b52c0edb94ed1d0d7c1a037b5bbe087fba24ed04",
            "status": true,
            "timestamp": "2020-03-22T17:27:16Z",
            "transactionFee": "0.00270876",
            "txnHash": "0x45369b1529cf4f569845a987b52c0edb94ed1d0d7c1a037b5bbe087fba24ed04",
            "txnIndex": 14,
            "type": 0,
            "value": "0"
        },
        "fund_flow": [
            {
                "amount": "2,439.569534116007954763",
                "from": "0x794e6e91555438afc3ccf1c5076a74f42133d08d",
                "id": 1,
                "isERC1155": false,
                "isERC721": false,
                "isReverted": false,
                "order": 1,
                "to": "0x26f39ba401c8bdc9889585c07ba3e9f7c6d2a7ca",
                "token": "0x6b175474e89094c44da98b954eedeac495271d0f"
            },
            {
                "amount": "2,439.569534116007954763",
                "from": "0x26f39ba401c8bdc9889585c07ba3e9f7c6d2a7ca",
                "id": 2,
                "isERC1155": false,
                "isERC721": false,
                "isReverted": false,
                "order": 2,
                "to": "0x794e6e91555438afc3ccf1c5076a74f42133d08d",
                "token": "0x6b175474e89094c44da98b954eedeac495271d0f"
            }
        ],
        "token_infos": [
            {
                "address": "0x6b175474e89094c44da98b954eedeac495271d0f",
                "decimals": 18
            },
            {
                "address": "0xc02aaa39b223fe8d0a0e5c4f27ead9083c756cc2",
                "decimals": 18
            },
            {
                "address": "0xeeeeeeeeeeeeeeeeeeeeeeeeeeeeeeeeeeeeeeee",
                "decimals": 18
            }
        ]
    },
    "address_label": {
        "labels": [
            {
                "address": "0x0000000000000000000000000000000000000004",
                "label": "Precompiled"
            },
            {
                "address": "0xeeeeeeeeeeeeeeeeeeeeeeeeeeeeeeeeeeeeeeee",
                "label": "Ether"
            },
            {
                "address": "0x6b175474e89094c44da98b954eedeac495271d0f",
                "label": "Sky: Dai Stablecoin"
            },
            {
                "address": "0xc02aaa39b223fe8d0a0e5c4f27ead9083c756cc2",
                "label": "Wrapped Ether (WETH)"
            },
            {
                "address": "0x794e6e91555438afc3ccf1c5076a74f42133d08d",
                "label": "OasisDEX"
            },
            {
                "address": "0x0000000000000000000000000000000000000001",
                "label": "Precompiled"
            },
            {
                "address": "0x0000000000000000000000000000000000000002",
                "label": "Precompiled"
            },
            {
                "address": "0x0000000000000000000000000000000000000003",
                "label": "Precompiled"
            }
        ]
    },
    "trace": {
        "accountLabels": null,
        "dataMap": {
            "-1": {
                "invocation": {
                    "address": "0x8928b201363930b3f79225ceaf2e723c7aa1b564",
                    "callData": "",
                    "decodedMethod": null,
                    "errorInfo": "",
                    "fromAddress": "",
                    "gasUsed": 0,
                    "id": -1,
                    "methodDecoded": false,
                    "operation": "",
                    "output": "",
                    "revert": false,
                    "revertMessage": "",
                    "selector": "",
                    "status": false,
                    "value": ""
                },
                "nodeType": 0
            },
            "0": {
                "invocation": {
                    "address": "0x26f39ba401c8bdc9889585c07ba3e9f7c6d2a7ca",
                    "callData": "0x000000000000000000000000000000000000000000000000000000000002e7ab0000000000000000000000000000000000000000000000843fd40de299dac94b0000000000000000000000006b175474e89094c44da98b954eedeac495271d0f00000000000000000000000000000000000000000000000112fe8f1f28c24000000000000000000000000000c02aaa39b223fe8d0a0e5c4f27ead9083c756cc20000000000000000000000000000000000000000000000000000000000000000",
                    "decodedMethod": null,
                    "errorInfo": "",
                    "fromAddress": "0x8928b201363930b3f79225ceaf2e723c7aa1b564",
                    "gasUsed": 270876,
                    "id": 0,
                    "methodDecoded": false,
                    "operation": "CALL",
                    "output": "",
                    "revert": false,
                    "revertMessage": "",
                    "selector": "0x1729c8d9",
                    "status": true,
                    "value": "0"
                },
                "nodeType": 0
            },
            "1": {
                "invocation": {
                    "address": "0x794e6e91555438afc3ccf1c5076a74f42133d08d",
                    "callData": "0x000000000000000000000000000000000000000000000000000000000002e7ab",
                    "decodedMethod": {
                        "callParams": [
                            {
                                "name": "id",
                                "type": "uint256",
                                "value": "190,379"
                            }
                        ],
                        "constructorArguments": "",
                        "name": "cancel",
                        "returnParams": [
                            {
                                "name": "success",
                                "type": "bool",
                                "value": true
                            }
                        ],
                        "signature": "cancel(uint256)"
                    },
                    "errorInfo": "",
                    "fromAddress": "0x26f39ba401c8bdc9889585c07ba3e9f7c6d2a7ca",
                    "gasUsed": 140200,
                    "id": 1,
                    "methodDecoded": true,
                    "operation": "CALL",
                    "output": "0x0000000000000000000000000000000000000000000000000000000000000001",
                    "revert": false,
                    "revertMessage": "",
                    "selector": "0x40e58ee5",
                    "status": true,
                    "value": "0"
                },
                "nodeType": 0
            },
            "10": {
                "event": {
                    "contract": "0x794e6e91555438afc3ccf1c5076a74f42133d08d",
                    "decodedLog": {
                        "name": "LogMake",
                        "params": [
                            {
                                "name": "id",
                                "type": "bytes32",
                                "value": "0x000000000000000000000000000000000000000000000000000000000002e7bf"
                            },
                            {
                                "name": "pair",
                                "type": "bytes32",
                                "value": "0x7bda8b27e891f9687bd6d3312ab3f4f458e2cc91916429d721d617df7ac29fb8"
                            },
                            {
                                "name": "maker",
                                "type": "address",
                                "value": "0x26f39ba401c8bdc9889585c07ba3e9f7c6d2a7ca"
                            },
                            {
                                "name": "pay_gem",
                                "type": "address",
                                "value": "0x6b175474e89094c44da98b954eedeac495271d0f"
                            },
                            {
                                "name": "buy_gem",
                                "type": "address",
                                "value": "0xc02aaa39b223fe8d0a0e5c4f27ead9083c756cc2"
                            },
                            {
                                "name": "pay_amt",
                                "type": "uint128",
                                "value": "2,439,569,534,116,007,954,763"
                            },
                            {
                                "name": "buy_amt",
                                "type": "uint128",
                                "value": "19,815,432,774,467,338,240"
                            },
                            {
                                "name": "timestamp",
                                "type": "uint64",
                                "value": "1,584,898,036"
                            }
                        ],
                        "signature": "LogMake(bytes32,bytes32,address,address,address,uint128,uint128,uint64)"
                    },
                    "id": 10,
                    "logData": "0x0000000000000000000000006b175474e89094c44da98b954eedeac495271d0f000000000000000000000000c02aaa39b223fe8d0a0e5c4f27ead9083c756cc20000000000000000000000000000000000000000000000843fd40de299dac94b00000000000000000000000000000000000000000000000112fe8f1f28c24000000000000000000000000000000000000000000000000000000000005e779ff4",
                    "logDecoded": true,
                    "operation": "EVENT",
                    "revert": false,
                    "status": true,
                    "topics": [
                        "0x773ff502687307abfa024ac9f62f9752a0d210dac2ffd9a29e38e12e2ea82c82",
                        "0x000000000000000000000000000000000000000000000000000000000002e7bf",
                        "0x7bda8b27e891f9687bd6d3312ab3f4f458e2cc91916429d721d617df7ac29fb8",
                        "0x00000000000000000000000026f39ba401c8bdc9889585c07ba3e9f7c6d2a7ca"
                    ]
                },
                "nodeType": 1
            },
            "11": {
                "event": {
                    "contract": "0x794e6e91555438afc3ccf1c5076a74f42133d08d",
                    "decodedLog": {
                        "name": "LogSortedOffer",
                        "params": [
                            {
                                "name": "id",
                                "type": "uint256",
                                "value": "190,399"
                            }
                        ],
                        "signature": "LogSortedOffer(uint256)"
                    },
                    "id": 11,
                    "logData": "0x000000000000000000000000000000000000000000000000000000000002e7bf",
                    "logDecoded": true,
                    "operation": "EVENT",
                    "revert": false,
                    "status": true,
                    "topics": [
                        "0x20fb9bad86c18f7e22e8065258790d9416a7d2df8ff05f80f82c46d38b925acd"
                    ]
                },
                "nodeType": 1
            },
            "2": {
                "invocation": {
                    "address": "0x6b175474e89094c44da98b954eedeac495271d0f",
                    "callData": "0x00000000000000000000000026f39ba401c8bdc9889585c07ba3e9f7c6d2a7ca0000000000000000000000000000000000000000000000843fd40de299dac94b",
                    "decodedMethod": {
                        "callParams": [
                            {
                                "name": "dst",
                                "type": "address",
                                "value": "0x26f39ba401c8bdc9889585c07ba3e9f7c6d2a7ca"
                            },
                            {
                                "decimalAvailable": true,
                                "name": "wad",
                                "type": "uint256",
                                "value": "2,439,569,534,116,007,954,763"
                            }
                        ],
                        "constructorArguments": "",
                        "name": "transfer",
                        "returnParams": [
                            {
                                "name": "",
                                "type": "bool",
                                "value": true
                            }
                        ],
                        "signature": "transfer(address,uint256)"
                    },
                    "errorInfo": "",
                    "fromAddress": "0x794e6e91555438afc3ccf1c5076a74f42133d08d",
                    "gasUsed": 30374,
                    "id": 2,
                    "methodDecoded": true,
                    "operation": "CALL",
                    "output": "0x0000000000000000000000000000000000000000000000000000000000000001",
                    "revert": false,
                    "revertMessage": "",
                    "selector": "0xa9059cbb",
                    "status": true,
                    "value": "0"
                },
                "nodeType": 0
            },
            "3": {
                "event": {
                    "contract": "0x6b175474e89094c44da98b954eedeac495271d0f",
                    "decodedLog": {
                        "name": "Transfer",
                        "params": [
                            {
                                "name": "src",
                                "type": "address",
                                "value": "0x794e6e91555438afc3ccf1c5076a74f42133d08d"
                            },
                            {
                                "name": "dst",
                                "type": "address",
                                "value": "0x26f39ba401c8bdc9889585c07ba3e9f7c6d2a7ca"
                            },
                            {
                                "decimalAvailable": true,
                                "name": "wad",
                                "type": "uint256",
                                "value": "2,439,569,534,116,007,954,763"
                            }
                        ],
                        "signature": "Transfer(address,address,uint256)"
                    },
                    "id": 3,
                    "logData": "0x0000000000000000000000000000000000000000000000843fd40de299dac94b",
                    "logDecoded": true,
                    "operation": "EVENT",
                    "revert": false,
                    "status": true,
                    "topics": [
                        "0xddf252ad1be2c89b69c2b068fc378daa952ba7f163c4a11628f55a4df523b3ef",
                        "0x000000000000000000000000794e6e91555438afc3ccf1c5076a74f42133d08d",
                        "0x00000000000000000000000026f39ba401c8bdc9889585c07ba3e9f7c6d2a7ca"
                    ]
                },
                "nodeType": 1
            },
            "4": {
                "event": {
                    "contract": "0x794e6e91555438afc3ccf1c5076a74f42133d08d",
                    "decodedLog": {
                        "name": "LogItemUpdate",
                        "params": [
                            {
                                "name": "id",
                                "type": "uint256",
                                "value": "190,379"
                            }
                        ],
                        "signature": "LogItemUpdate(uint256)"
                    },
                    "id": 4,
                    "logData": "0x000000000000000000000000000000000000000000000000000000000002e7ab",
                    "logDecoded": true,
                    "operation": "EVENT",
                    "revert": false,
                    "status": true,
                    "topics": [
                        "0xa2c251311b1a7a475913900a2a73dc9789a21b04bc737e050bbc506dd4eb3488"
                    ]
                },
                "nodeType": 1
            },
            "5": {
                "event": {
                    "contract": "0x794e6e91555438afc3ccf1c5076a74f42133d08d",
                    "decodedLog": {
                        "name": "LogKill",
                        "params": [
                            {
                                "name": "id",
                                "type": "bytes32",
                                "value": "0x000000000000000000000000000000000000000000000000000000000002e7ab"
                            },
                            {
                                "name": "pair",
                                "type": "bytes32",
                                "value": "0x7bda8b27e891f9687bd6d3312ab3f4f458e2cc91916429d721d617df7ac29fb8"
                            },
                            {
                                "name": "maker",
                                "type": "address",
                                "value": "0x26f39ba401c8bdc9889585c07ba3e9f7c6d2a7ca"
                            },
                            {
                                "name": "pay_gem",
                                "type": "address",
                                "value": "0x6b175474e89094c44da98b954eedeac495271d0f"
                            },
                            {
                                "name": "buy_gem",
                                "type": "address",
                                "value": "0xc02aaa39b223fe8d0a0e5c4f27ead9083c756cc2"
                            },
                            {
                                "name": "pay_amt",
                                "type": "uint128",
                                "value": "2,439,569,534,116,007,954,763"
                            },
                            {
                                "name": "buy_amt",
                                "type": "uint128",
                                "value": "19,829,931,871,619,387,392"
                            },
                            {
                                "name": "timestamp",
                                "type": "uint64",
                                "value": "1,584,898,036"
                            }
                        ],
                        "signature": "LogKill(bytes32,bytes32,address,address,address,uint128,uint128,uint64)"
                    },
                    "id": 5,
                    "logData": "0x0000000000000000000000006b175474e89094c44da98b954eedeac495271d0f000000000000000000000000c02aaa39b223fe8d0a0e5c4f27ead9083c756cc20000000000000000000000000000000000000000000000843fd40de299dac94b000000000000000000000000000000000000000000000001133211f948121000000000000000000000000000000000000000000000000000000000005e779ff4",
                    "logDecoded": true,
                    "operation": "EVENT",
                    "revert": false,
                    "status": true,
                    "topics": [
                        "0x9577941d28fff863bfbee4694a6a4a56fb09e169619189d2eaa750b5b4819995",
                        "0x000000000000000000000000000000000000000000000000000000000002e7ab",
                        "0x7bda8b27e891f9687bd6d3312ab3f4f458e2cc91916429d721d617df7ac29fb8",
                        "0x00000000000000000000000026f39ba401c8bdc9889585c07ba3e9f7c6d2a7ca"
                    ]
                },
                "nodeType": 1
            },
            "6": {
                "invocation": {
                    "address": "0x794e6e91555438afc3ccf1c5076a74f42133d08d",
                    "callData": "0x0000000000000000000000000000000000000000000000843fd40de299dac94b0000000000000000000000006b175474e89094c44da98b954eedeac495271d0f00000000000000000000000000000000000000000000000112fe8f1f28c24000000000000000000000000000c02aaa39b223fe8d0a0e5c4f27ead9083c756cc20000000000000000000000000000000000000000000000000000000000000000",
                    "decodedMethod": {
                        "callParams": [
                            {
                                "name": "pay_amt",
                                "type": "uint256",
                                "value": "2,439,569,534,116,007,954,763"
                            },
                            {
                                "name": "pay_gem",
                                "type": "address",
                                "value": "0x6b175474e89094c44da98b954eedeac495271d0f"
                            },
                            {
                                "name": "buy_amt",
                                "type": "uint256",
                                "value": "19,815,432,774,467,338,240"
                            },
                            {
                                "name": "buy_gem",
                                "type": "address",
                                "value": "0xc02aaa39b223fe8d0a0e5c4f27ead9083c756cc2"
                            },
                            {
                                "name": "pos",
                                "type": "uint256",
                                "value": "0"
                            }
                        ],
                        "constructorArguments": "",
                        "name": "offer",
                        "returnParams": [
                            {
                                "name": "",
                                "type": "uint256",
                                "value": "190,399"
                            }
                        ],
                        "signature": "offer(uint256,address,uint256,address,uint256)"
                    },
                    "errorInfo": "",
                    "fromAddress": "0x26f39ba401c8bdc9889585c07ba3e9f7c6d2a7ca",
                    "gasUsed": 210918,
                    "id": 6,
                    "methodDecoded": true,
                    "operation": "CALL",
                    "output": "0x000000000000000000000000000000000000000000000000000000000002e7bf",
                    "revert": false,
                    "revertMessage": "",
                    "selector": "0x1b33d412",
                    "status": true,
                    "value": "0"
                },
                "nodeType": 0
            },
            "7": {
                "invocation": {
                    "address": "0x6b175474e89094c44da98b954eedeac495271d0f",
                    "callData": "0x00000000000000000000000026f39ba401c8bdc9889585c07ba3e9f7c6d2a7ca000000000000000000000000794e6e91555438afc3ccf1c5076a74f42133d08d0000000000000000000000000000000000000000000000843fd40de299dac94b",
                    "decodedMethod": {
                        "callParams": [
                            {
                                "name": "src",
                                "type": "address",
                                "value": "0x26f39ba401c8bdc9889585c07ba3e9f7c6d2a7ca"
                            },
                            {
                                "name": "dst",
                                "type": "address",
                                "value": "0x794e6e91555438afc3ccf1c5076a74f42133d08d"
                            },
                            {
                                "decimalAvailable": true,
                                "name": "wad",
                                "type": "uint256",
                                "value": "2,439,569,534,116,007,954,763"
                            }
                        ],
                        "constructorArguments": "",
                        "name": "transferFrom",
                        "returnParams": [
                            {
                                "name": "",
                                "type": "bool",
                                "value": true
                            }
                        ],
                        "signature": "transferFrom(address,address,uint256)"
                    },
                    "errorInfo": "",
                    "fromAddress": "0x794e6e91555438afc3ccf1c5076a74f42133d08d",
                    "gasUsed": 15275,
                    "id": 7,
                    "methodDecoded": true,
                    "operation": "CALL",
                    "output": "0x0000000000000000000000000000000000000000000000000000000000000001",
                    "revert": false,
                    "revertMessage": "",
                    "selector": "0x23b872dd",
                    "status": true,
                    "value": "0"
                },
                "nodeType": 0
            },
            "8": {
                "event": {
                    "contract": "0x6b175474e89094c44da98b954eedeac495271d0f",
                    "decodedLog": {
                        "name": "Transfer",
                        "params": [
                            {
                                "name": "src",
                                "type": "address",
                                "value": "0x26f39ba401c8bdc9889585c07ba3e9f7c6d2a7ca"
                            },
                            {
                                "name": "dst",
                                "type": "address",
                                "value": "0x794e6e91555438afc3ccf1c5076a74f42133d08d"
                            },
                            {
                                "decimalAvailable": true,
                                "name": "wad",
                                "type": "uint256",
                                "value": "2,439,569,534,116,007,954,763"
                            }
                        ],
                        "signature": "Transfer(address,address,uint256)"
                    },
                    "id": 8,
                    "logData": "0x0000000000000000000000000000000000000000000000843fd40de299dac94b",
                    "logDecoded": true,
                    "operation": "EVENT",
                    "revert": false,
                    "status": true,
                    "topics": [
                        "0xddf252ad1be2c89b69c2b068fc378daa952ba7f163c4a11628f55a4df523b3ef",
                        "0x00000000000000000000000026f39ba401c8bdc9889585c07ba3e9f7c6d2a7ca",
                        "0x000000000000000000000000794e6e91555438afc3ccf1c5076a74f42133d08d"
                    ]
                },
                "nodeType": 1
            },
            "9": {
                "event": {
                    "contract": "0x794e6e91555438afc3ccf1c5076a74f42133d08d",
                    "decodedLog": {
                        "name": "LogItemUpdate",
                        "params": [
                            {
                                "name": "id",
                                "type": "uint256",
                                "value": "190,399"
                            }
                        ],
                        "signature": "LogItemUpdate(uint256)"
                    },
                    "id": 9,
                    "logData": "0x000000000000000000000000000000000000000000000000000000000002e7bf",
                    "logDecoded": true,
                    "operation": "EVENT",
                    "revert": false,
                    "status": true,
                    "topics": [
                        "0xa2c251311b1a7a475913900a2a73dc9789a21b04bc737e050bbc506dd4eb3488"
                    ]
                },
                "nodeType": 1
            }
        },
        "gasFlame": [
            {
                "children": [
                    {
                        "children": [
                            {
                                "children": [],
                                "depth": 0,
                                "name": "Initial Gas",
                                "value": 22552
                            },
                            {
                                "children": [
                                    {
                                        "children": [
                                            {
                                                "children": [],
                                                "depth": 2,
                                                "name": "transfer",
                                                "value": 30374
                                            }
                                        ],
                                        "depth": 1,
                                        "name": "cancel",
                                        "value": 140200
                                    },
                                    {
                                        "children": [
                                            {
                                                "children": [],
                                                "depth": 2,
                                                "name": "transferFrom",
                                                "value": 15275
                                            }
                                        ],
                                        "depth": 1,
                                        "name": "offer",
                                        "value": 210918
                                    }
                                ],
                                "depth": 0,
                                "name": "Executed Gas",
                                "value": 359324
                            }
                        ],
                        "depth": -1,
                        "name": "Actual Gas Used",
                        "value": 270876
                    },
                    {
                        "children": [],
                        "depth": -1,
                        "name": "Refunded Gas",
                        "value": 111000
                    }
                ],
                "depth": -2,
                "name": "Total Gas",
                "value": 381876
            }
        ],
        "isConfirmed": true,
        "mainTrace": [
            {
                "children": [
                    {
                        "children": [
                            {
                                "children": [
                                    {
                                        "children": [
                                            {
                                                "children": [],
                                                "depth": 3,
                                                "id": 3,
                                                "order": 3
                                            }
                                        ],
                                        "depth": 2,
                                        "id": 2,
                                        "order": 2
                                    },
                                    {
                                        "children": [],
                                        "depth": 2,
                                        "id": 4,
                                        "order": 4
                                    },
                                    {
                                        "children": [],
                                        "depth": 2,
                                        "id": 5,
                                        "order": 5
                                    }
                                ],
                                "depth": 1,
                                "id": 1,
                                "order": 1
                            },
                            {
                                "children": [
                                    {
                                        "children": [
                                            {
                                                "children": [],
                                                "depth": 3,
                                                "id": 8,
                                                "order": 8
                                            }
                                        ],
                                        "depth": 2,
                                        "id": 7,
                                        "order": 7
                                    },
                                    {
                                        "children": [],
                                        "depth": 2,
                                        "id": 9,
                                        "order": 9
                                    },
                                    {
                                        "children": [],
                                        "depth": 2,
                                        "id": 10,
                                        "order": 10
                                    },
                                    {
                                        "children": [],
                                        "depth": 2,
                                        "id": 11,
                                        "order": 11
                                    }
                                ],
                                "depth": 1,
                                "id": 6,
                                "order": 6
                            }
                        ],
                        "depth": 0,
                        "id": 0,
                        "order": 0
                    }
                ],
                "depth": -1,
                "id": -1,
                "order": -1
            }
        ],
        "mainTraceNodeCount": 12,
        "parentIdMap": {
            "0": -1,
            "1": 0,
            "10": 6,
            "11": 6,
            "2": 1,
            "3": 2,
            "4": 1,
            "5": 1,
            "6": 0,
            "7": 6,
            "8": 7,
            "9": 6
        },
        "tidyTrace": [
            {
                "children": [
                    {
                        "children": [
                            {
                                "children": [
                                    {
                                        "children": [
                                            {
                                                "children": [],
                                                "depth": 3,
                                                "id": 3,
                                                "order": 3
                                            }
                                        ],
                                        "depth": 2,
                                        "id": 2,
                                        "order": 2
                                    },
                                    {
                                        "children": [],
                                        "depth": 2,
                                        "id": 4,
                                        "order": 4
                                    },
                                    {
                                        "children": [],
                                        "depth": 2,
                                        "id": 5,
                                        "order": 5
                                    }
                                ],
                                "depth": 1,
                                "id": 1,
                                "order": 1
                            },
                            {
                                "children": [
                                    {
                                        "children": [
                                            {
                                                "children": [],
                                                "depth": 3,
                                                "id": 8,
                                                "order": 8
                                            }
                                        ],
                                        "depth": 2,
                                        "id": 7,
                                        "order": 7
                                    },
                                    {
                                        "children": [],
                                        "depth": 2,
                                        "id": 9,
                                        "order": 9
                                    },
                                    {
                                        "children": [],
                                        "depth": 2,
                                        "id": 10,
                                        "order": 10
                                    },
                                    {
                                        "children": [],
                                        "depth": 2,
                                        "id": 11,
                                        "order": 11
                                    }
                                ],
                                "depth": 1,
                                "id": 6,
                                "order": 6
                            }
                        ],
                        "depth": 0,
                        "id": 0,
                        "order": 0
                    }
                ],
                "depth": -1,
                "id": -1,
                "order": -1
            }
        ],
        "tidyTraceNodeCount": 12
    },
    "state_change": {
        "stateChanges": [
            {
                "address": "0x6b175474e89094c44da98b954eedeac495271d0f",
                "erc": "ERC-20",
                "slots": [
                    {
                        "current": "0x00000000000000000000000000000000000000000051c6c1fdd0042d22344139",
                        "key": "0x3c62d24dffd93a6ba328ef75b1d6614d952c64c2270ca7bd72ed66afe4f582b5",
                        "prev": "0x00000000000000000000000000000000000000000051c7463da4120fbc0f0a84"
                    }
                ],
                "storageVariables": [
                    {
                        "name": "allowance",
                        "type": "mapping(address => mapping(address => uint256))",
                        "value": {
                            "pairs": [
                                {
                                    "key": "0x26f39ba401c8bdc9889585c07ba3e9f7c6d2a7ca",
                                    "value": {
                                        "pairs": [
                                            {
                                                "key": "0x794e6e91555438afc3ccf1c5076a74f42133d08d",
                                                "value": {
                                                    "current": "98861598463122057492447545",
                                                    "prev": "98864038032656173500402308",
                                                    "typeTag": 1
                                                }
                                            }
                                        ],
                                        "typeTag": 4
                                    }
                                }
                            ],
                            "typeTag": 4
                        }
                    }
                ]
            },
            {
                "address": "0x794e6e91555438afc3ccf1c5076a74f42133d08d",
                "erc": "",
                "slots": [
                    {
                        "current": "0x000000000000000000000000000000000000000000000000000000000002e7bb",
                        "key": "0x1235d4269b5894fdf138bc0c7ea0768250921a997971a3563db069d573879a8f",
                        "prev": "0x000000000000000000000000000000000000000000000000000000000002e7ab"
                    },
                    {
                        "current": "0x0000000000000000000000000000000000000000000000000000000000000000",
                        "key": "0x6959c6b69ed11088e44c2a77314d64def7247f4c1029cded3210c35537e31530",
                        "prev": "0x00000000000000005e779e8f26f39ba401c8bdc9889585c07ba3e9f7c6d2a7ca"
                    },
                    {
                        "current": "0x0000000000000000000000000000000000000000000000000000000000000000",
                        "key": "0x6959c6b69ed11088e44c2a77314d64def7247f4c1029cded3210c35537e3152f",
                        "prev": "0x000000000000000000000000c02aaa39b223fe8d0a0e5c4f27ead9083c756cc2"
                    },
                    {
                        "current": "0x0000000000000000000000000000000000000000000000843fd40de299dac94b",
                        "key": "0xbc21f4d2eca1c9996dc49094c8c147f32b3d29a5ab52fedf3ed425838be135b1",
                        "prev": "0x0000000000000000000000000000000000000000000000000000000000000000"
                    },
                    {
                        "current": "0x00000000000000005e779ff426f39ba401c8bdc9889585c07ba3e9f7c6d2a7ca",
                        "key": "0xbc21f4d2eca1c9996dc49094c8c147f32b3d29a5ab52fedf3ed425838be135b5",
                        "prev": "0x0000000000000000000000000000000000000000000000000000000000000000"
                    },
                    {
                        "current": "0x000000000000000000000000000000000000000000000000000000000002e7bd",
                        "key": "0xec55176593605bbe7f6a5dc17db79bf7887208733086ff809b5caca51289b7df",
                        "prev": "0x000000000000000000000000000000000000000000000000000000000002e7ab"
                    },
                    {
                        "current": "0x000000000000000000000000000000000000000000000000000000000002e7bb",
                        "key": "0xeafd28106138bb7f61b8883a19f4bcfaeca1f08ecf4a531bccdda556986b3f36",
                        "prev": "0x0000000000000000000000000000000000000000000000000000000000000000"
                    },
                    {
                        "current": "0x000000000000000000000000c02aaa39b223fe8d0a0e5c4f27ead9083c756cc2",
                        "key": "0xbc21f4d2eca1c9996dc49094c8c147f32b3d29a5ab52fedf3ed425838be135b4",
                        "prev": "0x0000000000000000000000000000000000000000000000000000000000000000"
                    },
                    {
                        "current": "0x0000000000000000000000000000000000000000000000000000000000945b21",
                        "key": "0x4c2b2b9538d5f5869cc3dd1cde6fe3a111a0fe8234190e471df131871604591d",
                        "prev": "0x0000000000000000000000000000000000000000000000000000000000000000"
                    },
                    {
                        "current": "0x0000000000000000000000000000000000000000000000000000000000000000",
                        "key": "0x6959c6b69ed11088e44c2a77314d64def7247f4c1029cded3210c35537e3152c",
                        "prev": "0x0000000000000000000000000000000000000000000000843fd40de299dac94b"
                    },
                    {
                        "current": "0x0000000000000000000000000000000000000000000000000000000000000000",
                        "key": "0x6959c6b69ed11088e44c2a77314d64def7247f4c1029cded3210c35537e3152d",
                        "prev": "0x0000000000000000000000006b175474e89094c44da98b954eedeac495271d0f"
                    },
                    {
                        "current": "0x0000000000000000000000006b175474e89094c44da98b954eedeac495271d0f",
                        "key": "0xbc21f4d2eca1c9996dc49094c8c147f32b3d29a5ab52fedf3ed425838be135b2",
                        "prev": "0x0000000000000000000000000000000000000000000000000000000000000000"
                    },
                    {
                        "current": "0x00000000000000000000000000000000000000000000000112fe8f1f28c24000",
                        "key": "0xbc21f4d2eca1c9996dc49094c8c147f32b3d29a5ab52fedf3ed425838be135b3",
                        "prev": "0x0000000000000000000000000000000000000000000000000000000000000000"
                    },
                    {
                        "current": "0x0000000000000000000000000000000000000000000000000000000000000000",
                        "key": "0x6959c6b69ed11088e44c2a77314d64def7247f4c1029cded3210c35537e3152e",
                        "prev": "0x000000000000000000000000000000000000000000000001133211f948121000"
                    },
                    {
                        "current": "0x000000000000000000000000000000000000000000000000000000000002e7bf",
                        "key": "0x0000000000000000000000000000000000000000000000000000000000000002",
                        "prev": "0x000000000000000000000000000000000000000000000000000000000002e7be"
                    },
                    {
                        "current": "0x000000000000000000000000000000000000000000000000000000000002e7bf",
                        "key": "0xea57b800d06dc524fb12d1621b81322ff64f328eae3d968f8e21ee05d25cbe23",
                        "prev": "0x000000000000000000000000000000000000000000000000000000000002e7bb"
                    },
                    {
                        "current": "0x000000000000000000000000000000000000000000000000000000000002e7bf",
                        "key": "0xec55176593605bbe7f6a5dc17db79bf7887208733086ff809b5caca51289b7de",
                        "prev": "0x0000000000000000000000000000000000000000000000000000000000000000"
                    }
                ],
                "storageVariables": [
                    {
                        "name": "_rank",
                        "type": "mapping(uint256 => struct MatchingMarket.sortInfo)",
                        "value": {
                            "pairs": [
                                {
                                    "key": "190379",
                                    "value": {
                                        "fields": [
                                            {
                                                "name": "delb",
                                                "type": "uint256",
                                                "value": {
                                                    "current": "9722657",
                                                    "prev": "0",
                                                    "typeTag": 1
                                                }
                                            }
                                        ],
                                        "typeTag": 3
                                    }
                                },
                                {
                                    "key": "190395",
                                    "value": {
                                        "fields": [
                                            {
                                                "name": "next",
                                                "type": "uint256",
                                                "value": {
                                                    "current": "190399",
                                                    "prev": "0",
                                                    "typeTag": 1
                                                }
                                            },
                                            {
                                                "name": "prev",
                                                "type": "uint256",
                                                "value": {
                                                    "current": "190397",
                                                    "prev": "190379",
                                                    "typeTag": 1
                                                }
                                            }
                                        ],
                                        "typeTag": 3
                                    }
                                },
                                {
                                    "key": "190397",
                                    "value": {
                                        "fields": [
                                            {
                                                "name": "next",
                                                "type": "uint256",
                                                "value": {
                                                    "current": "190395",
                                                    "prev": "190379",
                                                    "typeTag": 1
                                                }
                                            }
                                        ],
                                        "typeTag": 3
                                    }
                                },
                                {
                                    "key": "190399",
                                    "value": {
                                        "fields": [
                                            {
                                                "name": "prev",
                                                "type": "uint256",
                                                "value": {
                                                    "current": "190395",
                                                    "prev": "0",
                                                    "typeTag": 1
                                                }
                                            }
                                        ],
                                        "typeTag": 3
                                    }
                                }
                            ],
                            "typeTag": 4
                        }
                    },
                    {
                        "name": "offers",
                        "type": "mapping(uint256 => struct SimpleMarket.OfferInfo)",
                        "value": {
                            "pairs": [
                                {
                                    "key": "190379",
                                    "value": {
                                        "fields": [
                                            {
                                                "name": "pay_amt",
                                                "type": "uint256",
                                                "value": {
                                                    "current": "0",
                                                    "prev": "2439569534116007954763",
                                                    "typeTag": 1
                                                }
                                            },
                                            {
                                                "name": "pay_gem",
                                                "type": "contract ERC20",
                                                "value": {
                                                    "current": "0x0000000000000000000000000000000000000000",
                                                    "prev": "0x6b175474e89094c44da98b954eedeac495271d0f",
                                                    "typeTag": 1
                                                }
                                            },
                                            {
                                                "name": "buy_amt",
                                                "type": "uint256",
                                                "value": {
                                                    "current": "0",
                                                    "prev": "19829931871619387392",
                                                    "typeTag": 1
                                                }
                                            },
                                            {
                                                "name": "buy_gem",
                                                "type": "contract ERC20",
                                                "value": {
                                                    "current": "0x0000000000000000000000000000000000000000",
                                                    "prev": "0xc02aaa39b223fe8d0a0e5c4f27ead9083c756cc2",
                                                    "typeTag": 1
                                                }
                                            },
                                            {
                                                "name": "owner",
                                                "type": "address",
                                                "value": {
                                                    "current": "0x0000000000000000000000000000000000000000",
                                                    "prev": "0x26f39ba401c8bdc9889585c07ba3e9f7c6d2a7ca",
                                                    "typeTag": 1
                                                }
                                            },
                                            {
                                                "name": "timestamp",
                                                "type": "uint64",
                                                "value": {
                                                    "current": "0",
                                                    "prev": "1584897679",
                                                    "typeTag": 1
                                                }
                                            }
                                        ],
                                        "typeTag": 3
                                    }
                                },
                                {
                                    "key": "190399",
                                    "value": {
                                        "fields": [
                                            {
                                                "name": "pay_amt",
                                                "type": "uint256",
                                                "value": {
                                                    "current": "2439569534116007954763",
                                                    "prev": "0",
                                                    "typeTag": 1
                                                }
                                            },
                                            {
                                                "name": "pay_gem",
                                                "type": "contract ERC20",
                                                "value": {
                                                    "current": "0x6b175474e89094c44da98b954eedeac495271d0f",
                                                    "prev": "0x0000000000000000000000000000000000000000",
                                                    "typeTag": 1
                                                }
                                            },
                                            {
                                                "name": "buy_amt",
                                                "type": "uint256",
                                                "value": {
                                                    "current": "19815432774467338240",
                                                    "prev": "0",
                                                    "typeTag": 1
                                                }
                                            },
                                            {
                                                "name": "buy_gem",
                                                "type": "contract ERC20",
                                                "value": {
                                                    "current": "0xc02aaa39b223fe8d0a0e5c4f27ead9083c756cc2",
                                                    "prev": "0x0000000000000000000000000000000000000000",
                                                    "typeTag": 1
                                                }
                                            },
                                            {
                                                "name": "owner",
                                                "type": "address",
                                                "value": {
                                                    "current": "0x26f39ba401c8bdc9889585c07ba3e9f7c6d2a7ca",
                                                    "prev": "0x0000000000000000000000000000000000000000",
                                                    "typeTag": 1
                                                }
                                            },
                                            {
                                                "name": "timestamp",
                                                "type": "uint64",
                                                "value": {
                                                    "current": "1584898036",
                                                    "prev": "0",
                                                    "typeTag": 1
                                                }
                                            }
                                        ],
                                        "typeTag": 3
                                    }
                                }
                            ],
                            "typeTag": 4
                        }
                    },
                    {
                        "name": "last_offer_id",
                        "type": "uint256",
                        "value": {
                            "current": "190399",
                            "prev": "190398",
                            "typeTag": 1
                        }
                    },
                    {
                        "name": "_best",
                        "type": "mapping(address => mapping(address => uint256))",
                        "value": {
                            "pairs": [
                                {
                                    "key": "0x6b175474e89094c44da98b954eedeac495271d0f",
                                    "value": {
                                        "pairs": [
                                            {
                                                "key": "0xc02aaa39b223fe8d0a0e5c4f27ead9083c756cc2",
                                                "value": {
                                                    "current": "190399",
                                                    "prev": "190395",
                                                    "typeTag": 1
                                                }
                                            }
                                        ],
                                        "typeTag": 4
                                    }
                                }
                            ],
                            "typeTag": 4
                        }
                    }
                ]
            }
        ]
    }
}