{
    "balance_change": {
        "balanceChanges": [
            {
                "account": "0x2c3679e9b8303df28e9bb90c3daea0c6f0506028",
                "assets": [
                    {
                        "address": "0x0d8775f648430679a709e98d2b0cb6250d2887ef",
                        "amount": "8,200",
                        "iconUrl": "https://assets.blocksec.com/icon/c5e7cd8dfdc41ede0b39a767b7a8b9ac3f98749148ad9c0ffe838d1ca4891ff1.png",
                        "isERC1155": false,
                        "isERC721": false,
                        "sign": false,
                        "value": "1839.96203"
                    }
                ]
            },
            {
                "account": "0x09eeda6d7a73db5194d2db980b1aa781263aa83f",
                "assets": [
                    {
                        "address": "0x0d8775f648430679a709e98d2b0cb6250d2887ef",
                        "amount": "8,200",
                        "iconUrl": "https://assets.blocksec.com/icon/c5e7cd8dfdc41ede0b39a767b7a8b9ac3f98749148ad9c0ffe838d1ca4891ff1.png",
                        "isERC1155": false,
                        "isERC721": false,
                        "sign": true,
                        "value": "1839.96203"
                    }
                ]
            }
        ]
    },
    "profile": {
        "basic_info": {
            "baseFee": "",
            "blockNumber": 11593873,
            "callData": "0xa9059cbb00000000000000000000000009eeda6d7a73db5194d2db980b1aa781263aa83f0000000000000000000000000000000000000000000001bc85dc2a89bb200000",
            "debugEnable": true,
            "errorInfo": "",
            "eventCount": 1,
            "feeRecipient": "0x3ecef08d0e2dad803847e052249bb4f8bff2d5bb",
            "formatValue": "0",
            "gasLimit": 78078,
            "gasPrice": "97",
            "gasUsed": 52052,
            "intTxnCount": 0,
            "internalRevert": false,
            "internalRevertMessage": "",
            "isContractCreation": false,
            "isFlashloan": false,
            "maxFee": "",
            "nonce": 13,
            "overwritedBlockNumber": -1,
            "priorityFee": "",
            "receiver": "0x0d8775f648430679a709e98d2b0cb6250d2887ef",
            "revertMessage": "",
            "sender": "0x2c3679e9b8303df28e9bb90c3daea0c6f0506028",
            "simulationEnable": true,
            "sourceTxnHash": "0x45ff90e34540eeafde100c349ecc89752123e675c30d4c52b767d04225338c59",
            "status": true,
            "timestamp": "2021-01-05T10:06:08Z",
            "transactionFee": "0.005049044",
            "txnHash": "0x45ff90e34540eeafde100c349ecc89752123e675c30d4c52b767d04225338c59",
            "txnIndex": 138,
            "type": 0,
            "value": "0"
        },
        "fund_flow": [
            {
                "amount": "8,200",
                "from": "0x2c3679e9b8303df28e9bb90c3daea0c6f0506028",
                "id": 1,
                "isERC1155": false,
                "isERC721": false,
                "isReverted": false,
                "order": 1,
                "to": "0x09eeda6d7a73db5194d2db980b1aa781263aa83f",
                "token": "0x0d8775f648430679a709e98d2b0cb6250d2887ef"
            }
        ],
        "token_infos": [
            {
                "address": "0x0d8775f648430679a709e98d2b0cb6250d2887ef",
                "decimals": 18
            },
            {
                "address": "0xc02aaa39b223fe8d0a0e5c4f27ead9083c756cc2",
                "decimals": 18
            },
            {
                "address": "0xeeeeeeeeeeeeeeeeeeeeeeeeeeeeeeeeeeeeeeee",
                "decimals": 18
            }
        ]
    },
    "address_label": {
        "labels": [
            {
                "address": "0xeeeeeeeeeeeeeeeeeeeeeeeeeeeeeeeeeeeeeeee",
                "label": "Ether"
            },
            {
                "address": "0x0d8775f648430679a709e98d2b0cb6250d2887ef",
                "label": "Basic Attention: BAT Token"
            },
            {
                "address": "0x0000000000000000000000000000000000000001",
                "label": "Precompiled"
            },
            {
                "address": "0x0000000000000000000000000000000000000002",
                "label": "Precompiled"
            },
            {
                "address": "0x0000000000000000000000000000000000000003",
                "label": "Precompiled"
            },
            {
                "address": "0x0000000000000000000000000000000000000004",
                "label": "Precompiled"
            }
        ]
    },
    "trace": {
        "accountLabels": null,
        "dataMap": {
            "-1": {
                "invocation": {
                    "address": "0x2c3679e9b8303df28e9bb90c3daea0c6f0506028",
                    "callData": "",
                    "decodedMethod": null,
                    "errorInfo": "",
                    "fromAddress": "",
                    "gasUsed": 0,
                    "id": -1,
                    "methodDecoded": false,
                    "operation": "",
                    "output": "",
                    "revert": false,
                    "revertMessage": "",
                    "selector": "",
                    "status": false,
                    "value": ""
                },
                "nodeType": 0
            },
            "0": {
                "invocation": {
                    "address": "0x0d8775f648430679a709e98d2b0cb6250d2887ef",
                    "callData": "0x00000000000000000000000009eeda6d7a73db5194d2db980b1aa781263aa83f0000000000000000000000000000000000000000000001bc85dc2a89bb200000",
                    "decodedMethod": {
                        "callParams": [
                            {
                                "name": "_to",
                                "type": "address",
                                "value": "0x09eeda6d7a73db5194d2db980b1aa781263aa83f"
                            },
                            {
                                "decimalAvailable": true,
                                "name": "_value",
                                "type": "uint256",
                                "value": "8,200,000,000,000,000,000,000"
                            }
                        ],
                        "constructorArguments": "",
                        "name": "transfer",
                        "returnParams": [
                            {
                                "name": "success",
                                "type": "bool",
                                "value": true
                            }
                        ],
                        "signature": "transfer(address,uint256)"
                    },
                    "errorInfo": "",
                    "fromAddress": "0x2c3679e9b8303df28e9bb90c3daea0c6f0506028",
                    "gasUsed": 52052,
                    "id": 0,
                    "methodDecoded": true,
                    "operation": "CALL",
                    "output": "0x0000000000000000000000000000000000000000000000000000000000000001",
                    "revert": false,
                    "revertMessage": "",
                    "selector": "0xa9059cbb",
                    "status": true,
                    "value": "0"
                },
                "nodeType": 0
            },
            "1": {
                "event": {
                    "contract": "0x0d8775f648430679a709e98d2b0cb6250d2887ef",
                    "decodedLog": {
                        "name": "Transfer",
                        "params": [
                            {
                                "name": "_from",
                                "type": "address",
                                "value": "0x2c3679e9b8303df28e9bb90c3daea0c6f0506028"
                            },
                            {
                                "name": "_to",
                                "type": "address",
                                "value": "0x09eeda6d7a73db5194d2db980b1aa781263aa83f"
                            },
                            {
                                "decimalAvailable": true,
                                "name": "_value",
                                "type": "uint256",
                                "value": "8,200,000,000,000,000,000,000"
                            }
                        ],
                        "signature": "Transfer(address,address,uint256)"
                    },
                    "id": 1,
                    "logData": "0x0000000000000000000000000000000000000000000001bc85dc2a89bb200000",
                    "logDecoded": true,
                    "operation": "EVENT",
                    "revert": false,
                    "status": true,
                    "topics": [
                        "0xddf252ad1be2c89b69c2b068fc378daa952ba7f163c4a11628f55a4df523b3ef",
                        "0x0000000000000000000000002c3679e9b8303df28e9bb90c3daea0c6f0506028",
                        "0x00000000000000000000000009eeda6d7a73db5194d2db980b1aa781263aa83f"
                    ]
                },
                "nodeType": 1
            }
        },
        "gasFlame": [
            {
                "children": [
                    {
                        "children": [
                            {
                                "children": [],
                                "depth": 0,
                                "name": "Initial Gas",
                                "value": 21656
                            },
                            {
                                "children": [],
                                "depth": 0,
                                "name": "Executed Gas",
                                "value": 30396
                            }
                        ],
                        "depth": -1,
                        "name": "Actual Gas Used",
                        "value": 52052
                    },
                    {
                        "children": [],
                        "depth": -1,
                        "name": "Refunded Gas",
                        "value": 0
                    }
                ],
                "depth": -2,
                "name": "Total Gas",
                "value": 52052
            }
        ],
        "isConfirmed": true,
        "mainTrace": [
            {
                "children": [
                    {
                        "children": [
                            {
                                "children": [],
                                "depth": 1,
                                "id": 1,
                                "order": 1
                            }
                        ],
                        "depth": 0,
                        "id": 0,
                        "order": 0
                    }
                ],
                "depth": -1,
                "id": -1,
                "order": -1
            }
        ],
        "mainTraceNodeCount": 2,
        "parentIdMap": {
            "0": -1,
            "1": 0
        },
        "tidyTrace": [
            {
                "children": [
                    {
                        "children": [
                            {
                                "children": [],
                                "depth": 1,
                                "id": 1,
                                "order": 1
                            }
                        ],
                        "depth": 0,
                        "id": 0,
                        "order": 0
                    }
                ],
                "depth": -1,
                "id": -1,
                "order": -1
            }
        ],
        "tidyTraceNodeCount": 2
    },
    "state_change": {
        "stateChanges": [
            {
                "address": "0x0d8775f648430679a709e98d2b0cb6250d2887ef",
                "erc": "ERC-20",
                "slots": [
                    {
                        "current": "0x0000000000000000000000000000000000000000000000007e4b2b4655ee4872",
                        "key": "0x52c20641652ac7558d17ae8bf519f84ccaf8221922c98ccc2b264c3654930179",
                        "prev": "0x0000000000000000000000000000000000000000000001bd042755d0110e4872"
                    },
                    {
                        "current": "0x0000000000000000000000000000000000000000000001bc85dc2a89bb200000",
                        "key": "0xbdc7a70f078a6568fc109b06426dc68a13e7bc6515d39d773bdee2292d9fa7c2",
                        "prev": "0x0000000000000000000000000000000000000000000000000000000000000000"
                    }
                ],
                "storageVariables": []
            }
        ]
    }
}