{
    "balance_change": {
        "balanceChanges": []
    },
    "profile": {
        "basic_info": {
            "baseFee": "87.69142857",
            "blockNumber": 17236205,
            "callData": "0xfb3bdb4100000000000000000000000000000000000000000000000000001219546e5800000000000000000000000000000000000000000000000000000000000000008000000000000000000000000002db2ab4ffc43276a09d309a033998aaadaca606000000000000000000000000000000000000000000000000000001880f46ba450000000000000000000000000000000000000000000000000000000000000002000000000000000000000000c02aaa39b223fe8d0a0e5c4f27ead9083c756cc2000000000000000000000000aa722af2220807ec92971f76db7ec5b81e1d2f8f",
            "debugEnable": true,
            "errorInfo": "execution reverted",
            "eventCount": 0,
            "feeRecipient": "0x3d75d9d0d870cfc9a7056dc554edc4e1421c5efb",
            "formatValue": "0.08",
            "gasLimit": 521000,
            "gasPrice": "91.942114415",
            "gasUsed": 27562,
            "intTxnCount": 0,
            "internalRevert": false,
            "internalRevertMessage": "",
            "isContractCreation": false,
            "isFlashloan": false,
            "maxFee": "91.942114415",
            "nonce": 1298,
            "overwritedBlockNumber": -1,
            "priorityFee": "10",
            "receiver": "0x7a250d5630b4cf539739df2c5dacb4c659f2488d",
            "revertMessage": "",
            "sender": "0x02db2ab4ffc43276a09d309a033998aaadaca606",
            "simulationEnable": true,
            "sourceTxnHash": "0x456606a14c475bcce1c34b98790c764711f3a00d08f1c459267feadb687aa04c",
            "status": false,
            "timestamp": "2023-05-11T09:25:11Z",
            "transactionFee": "0.00253410855750623",
            "txnHash": "0x456606a14c475bcce1c34b98790c764711f3a00d08f1c459267feadb687aa04c",
            "txnIndex": 40,
            "type": 2,
            "value": "80000000000000000"
        },
        "fund_flow": [],
        "token_infos": [
            {
                "address": "0xc02aaa39b223fe8d0a0e5c4f27ead9083c756cc2",
                "decimals": 18
            },
            {
                "address": "0xeeeeeeeeeeeeeeeeeeeeeeeeeeeeeeeeeeeeeeee",
                "decimals": 18
            }
        ]
    },
    "address_label": {
        "labels": [
            {
                "address": "0x0000000000000000000000000000000000000002",
                "label": "Precompiled"
            },
            {
                "address": "0xeeeeeeeeeeeeeeeeeeeeeeeeeeeeeeeeeeeeeeee",
                "label": "Ether"
            },
            {
                "address": "0xc02aaa39b223fe8d0a0e5c4f27ead9083c756cc2",
                "label": "Wrapped Ether (WETH)"
            },
            {
                "address": "0xaa722af2220807ec92971f76db7ec5b81e1d2f8f",
                "label": "CATHIE"
            },
            {
                "address": "0x0000000000000000000000000000000000000003",
                "label": "Precompiled"
            },
            {
                "address": "0x0000000000000000000000000000000000000004",
                "label": "Precompiled"
            },
            {
                "address": "0x7a250d5630b4cf539739df2c5dacb4c659f2488d",
                "label": "Uniswap V2: Router 2"
            },
            {
                "address": "0x3d75d9d0d870cfc9a7056dc554edc4e1421c5efb",
                "label": "GnosisSafeProxy"
            },
            {
                "address": "0x0000000000000000000000000000000000000001",
                "label": "Precompiled"
            }
        ]
    },
    "trace": {
        "accountLabels": null,
        "dataMap": {
            "-1": {
                "invocation": {
                    "address": "0x02db2ab4ffc43276a09d309a033998aaadaca606",
                    "callData": "",
                    "decodedMethod": null,
                    "errorInfo": "",
                    "fromAddress": "",
                    "gasUsed": 0,
                    "id": -1,
                    "methodDecoded": false,
                    "operation": "",
                    "output": "",
                    "revert": false,
                    "revertMessage": "",
                    "selector": "",
                    "status": false,
                    "value": ""
                },
                "nodeType": 0
            },
            "0": {
                "invocation": {
                    "address": "0x7a250d5630b4cf539739df2c5dacb4c659f2488d",
                    "callData": "0x00000000000000000000000000000000000000000000000000001219546e5800000000000000000000000000000000000000000000000000000000000000008000000000000000000000000002db2ab4ffc43276a09d309a033998aaadaca606000000000000000000000000000000000000000000000000000001880f46ba450000000000000000000000000000000000000000000000000000000000000002000000000000000000000000c02aaa39b223fe8d0a0e5c4f27ead9083c756cc2000000000000000000000000aa722af2220807ec92971f76db7ec5b81e1d2f8f",
                    "decodedMethod": {
                        "callParams": [
                            {
                                "name": "amountOut",
                                "type": "uint256",
                                "value": "19,900,000,000,000"
                            },
                            {
                                "name": "path",
                                "type": "address[]",
                                "value": [
                                    "0xc02aaa39b223fe8d0a0e5c4f27ead9083c756cc2",
                                    "0xaa722af2220807ec92971f76db7ec5b81e1d2f8f"
                                ]
                            },
                            {
                                "name": "to",
                                "type": "address",
                                "value": "0x02db2ab4ffc43276a09d309a033998aaadaca606"
                            },
                            {
                                "name": "deadline",
                                "type": "uint256",
                                "value": "1,683,883,473,477"
                            }
                        ],
                        "constructorArguments": "",
                        "name": "swapETHForExactTokens",
                        "returnParams": [],
                        "signature": "swapETHForExactTokens(uint256,address[],address,uint256)"
                    },
                    "errorInfo": "execution reverted",
                    "fromAddress": "0x02db2ab4ffc43276a09d309a033998aaadaca606",
                    "gasUsed": 27562,
                    "id": 0,
                    "methodDecoded": true,
                    "operation": "CALL",
                    "output": "",
                    "revert": true,
                    "revertMessage": "",
                    "selector": "0xfb3bdb41",
                    "status": false,
                    "value": "0.08"
                },
                "nodeType": 0
            }
        },
        "gasFlame": [
            {
                "children": [
                    {
                        "children": [
                            {
                                "children": [],
                                "depth": 0,
                                "name": "Initial Gas",
                                "value": 22836
                            },
                            {
                                "children": [],
                                "depth": 0,
                                "name": "Executed Gas",
                                "value": 4726
                            }
                        ],
                        "depth": -1,
                        "name": "Actual Gas Used",
                        "value": 27562
                    },
                    {
                        "children": [],
                        "depth": -1,
                        "name": "Refunded Gas",
                        "value": 0
                    }
                ],
                "depth": -2,
                "name": "Total Gas",
                "value": 27562
            }
        ],
        "isConfirmed": true,
        "mainTrace": [
            {
                "children": [
                    {
                        "children": [],
                        "depth": 0,
                        "id": 0,
                        "order": 0
                    }
                ],
                "depth": -1,
                "id": -1,
                "order": -1
            }
        ],
        "mainTraceNodeCount": 1,
        "parentIdMap": {
            "0": -1
        },
        "tidyTrace": [
            {
                "children": [
                    {
                        "children": [],
                        "depth": 0,
                        "id": 0,
                        "order": 0
                    }
                ],
                "depth": -1,
                "id": -1,
                "order": -1
            }
        ],
        "tidyTraceNodeCount": 1
    },
    "state_change": {
        "stateChanges": []
    }
}