{
    "balance_change": {
        "balanceChanges": [
            {
                "account": "0x719ca04de737b7cfd1cc7ba4a2e517c33e899719",
                "assets": [
                    {
                        "address": "0x54d582aafe3b8b83a6e28f9747b5fc00ddf0b581",
                        "amount": "250,000,000,000,000,000,000",
                        "iconUrl": "",
                        "isERC1155": false,
                        "isERC721": false,
                        "sign": false,
                        "value": ""
                    }
                ]
            },
            {
                "account": "0xa26ae420b667803096b018a0e75470caef25dfa4",
                "assets": [
                    {
                        "address": "0x54d582aafe3b8b83a6e28f9747b5fc00ddf0b581",
                        "amount": "250,000,000,000,000,000,000",
                        "iconUrl": "",
                        "isERC1155": false,
                        "isERC721": false,
                        "sign": true,
                        "value": ""
                    }
                ]
            }
        ]
    },
    "profile": {
        "basic_info": {
            "baseFee": "",
            "blockNumber": 6473985,
            "callData": "0xa9059cbb000000000000000000000000a26ae420b667803096b018a0e75470caef25dfa400000000000000000000000000000000000000000000000d8d726b7177a80000",
            "debugEnable": true,
            "errorInfo": "",
            "eventCount": 1,
            "feeRecipient": "0x52bc44d5378309ee2abf1539bf71de1b7d7be3b5",
            "formatValue": "0",
            "gasLimit": 47844,
            "gasPrice": "12",
            "gasUsed": 37844,
            "intTxnCount": 0,
            "internalRevert": false,
            "internalRevertMessage": "",
            "isContractCreation": false,
            "isFlashloan": false,
            "maxFee": "",
            "nonce": 1001,
            "overwritedBlockNumber": -1,
            "priorityFee": "",
            "receiver": "0x54d582aafe3b8b83a6e28f9747b5fc00ddf0b581",
            "revertMessage": "",
            "sender": "0x719ca04de737b7cfd1cc7ba4a2e517c33e899719",
            "simulationEnable": true,
            "sourceTxnHash": "0x45f1ba82480257f659cba221592412150772b0669500b72150bc7292f943df36",
            "status": true,
            "timestamp": "2018-10-08T02:31:50Z",
            "transactionFee": "0.000454128",
            "txnHash": "0x45f1ba82480257f659cba221592412150772b0669500b72150bc7292f943df36",
            "txnIndex": 5,
            "type": 0,
            "value": "0"
        },
        "fund_flow": [
            {
                "amount": "250,000,000,000,000,000,000",
                "from": "0x719ca04de737b7cfd1cc7ba4a2e517c33e899719",
                "id": 1,
                "isERC1155": false,
                "isERC721": false,
                "isReverted": false,
                "order": 1,
                "to": "0xa26ae420b667803096b018a0e75470caef25dfa4",
                "token": "0x54d582aafe3b8b83a6e28f9747b5fc00ddf0b581"
            }
        ],
        "token_infos": [
            {
                "address": "0xc02aaa39b223fe8d0a0e5c4f27ead9083c756cc2",
                "decimals": 18
            },
            {
                "address": "0xeeeeeeeeeeeeeeeeeeeeeeeeeeeeeeeeeeeeeeee",
                "decimals": 18
            }
        ]
    },
    "address_label": {
        "labels": [
            {
                "address": "0xeeeeeeeeeeeeeeeeeeeeeeeeeeeeeeeeeeeeeeee",
                "label": "Ether"
            },
            {
                "address": "0x54d582aafe3b8b83a6e28f9747b5fc00ddf0b581",
                "label": "ArtBlockchainToken"
            },
            {
                "address": "0x0000000000000000000000000000000000000001",
                "label": "Precompiled"
            },
            {
                "address": "0x0000000000000000000000000000000000000002",
                "label": "Precompiled"
            },
            {
                "address": "0x0000000000000000000000000000000000000003",
                "label": "Precompiled"
            },
            {
                "address": "0x0000000000000000000000000000000000000004",
                "label": "Precompiled"
            }
        ]
    },
    "trace": {
        "accountLabels": null,
        "dataMap": {
            "-1": {
                "invocation": {
                    "address": "0x719ca04de737b7cfd1cc7ba4a2e517c33e899719",
                    "callData": "",
                    "decodedMethod": null,
                    "errorInfo": "",
                    "fromAddress": "",
                    "gasUsed": 0,
                    "id": -1,
                    "methodDecoded": false,
                    "operation": "",
                    "output": "",
                    "revert": false,
                    "revertMessage": "",
                    "selector": "",
                    "status": false,
                    "value": ""
                },
                "nodeType": 0
            },
            "0": {
                "invocation": {
                    "address": "0x54d582aafe3b8b83a6e28f9747b5fc00ddf0b581",
                    "callData": "0x000000000000000000000000a26ae420b667803096b018a0e75470caef25dfa400000000000000000000000000000000000000000000000d8d726b7177a80000",
                    "decodedMethod": {
                        "callParams": [
                            {
                                "name": "_to",
                                "type": "address",
                                "value": "0xa26ae420b667803096b018a0e75470caef25dfa4"
                            },
                            {
                                "decimalAvailable": true,
                                "name": "_value",
                                "type": "uint256",
                                "value": "250,000,000,000,000,000,000"
                            }
                        ],
                        "constructorArguments": "",
                        "name": "transfer",
                        "returnParams": [
                            {
                                "name": "success",
                                "type": "bool",
                                "value": true
                            }
                        ],
                        "signature": "transfer(address,uint256)"
                    },
                    "errorInfo": "",
                    "fromAddress": "0x719ca04de737b7cfd1cc7ba4a2e517c33e899719",
                    "gasUsed": 37844,
                    "id": 0,
                    "methodDecoded": true,
                    "operation": "CALL",
                    "output": "0x0000000000000000000000000000000000000000000000000000000000000001",
                    "revert": false,
                    "revertMessage": "",
                    "selector": "0xa9059cbb",
                    "status": true,
                    "value": "0"
                },
                "nodeType": 0
            },
            "1": {
                "event": {
                    "contract": "0x54d582aafe3b8b83a6e28f9747b5fc00ddf0b581",
                    "decodedLog": {
                        "name": "Transfer",
                        "params": [
                            {
                                "name": "from",
                                "type": "address",
                                "value": "0x719ca04de737b7cfd1cc7ba4a2e517c33e899719"
                            },
                            {
                                "name": "to",
                                "type": "address",
                                "value": "0xa26ae420b667803096b018a0e75470caef25dfa4"
                            },
                            {
                                "decimalAvailable": true,
                                "name": "value",
                                "type": "uint256",
                                "value": "250,000,000,000,000,000,000"
                            }
                        ],
                        "signature": "Transfer(address,address,uint256)"
                    },
                    "id": 1,
                    "logData": "0x00000000000000000000000000000000000000000000000d8d726b7177a80000",
                    "logDecoded": true,
                    "operation": "EVENT",
                    "revert": false,
                    "status": true,
                    "topics": [
                        "0xddf252ad1be2c89b69c2b068fc378daa952ba7f163c4a11628f55a4df523b3ef",
                        "0x000000000000000000000000719ca04de737b7cfd1cc7ba4a2e517c33e899719",
                        "0x000000000000000000000000a26ae420b667803096b018a0e75470caef25dfa4"
                    ]
                },
                "nodeType": 1
            }
        },
        "gasFlame": [
            {
                "children": [
                    {
                        "children": [
                            {
                                "children": [],
                                "depth": 0,
                                "name": "Initial Gas",
                                "value": 23256
                            },
                            {
                                "children": [],
                                "depth": 0,
                                "name": "Executed Gas",
                                "value": 14588
                            }
                        ],
                        "depth": -1,
                        "name": "Actual Gas Used",
                        "value": 37844
                    },
                    {
                        "children": [],
                        "depth": -1,
                        "name": "Refunded Gas",
                        "value": 0
                    }
                ],
                "depth": -2,
                "name": "Total Gas",
                "value": 37844
            }
        ],
        "isConfirmed": true,
        "mainTrace": [
            {
                "children": [
                    {
                        "children": [
                            {
                                "children": [],
                                "depth": 1,
                                "id": 1,
                                "order": 1
                            }
                        ],
                        "depth": 0,
                        "id": 0,
                        "order": 0
                    }
                ],
                "depth": -1,
                "id": -1,
                "order": -1
            }
        ],
        "mainTraceNodeCount": 2,
        "parentIdMap": {
            "0": -1,
            "1": 0
        },
        "tidyTrace": [
            {
                "children": [
                    {
                        "children": [
                            {
                                "children": [],
                                "depth": 1,
                                "id": 1,
                                "order": 1
                            }
                        ],
                        "depth": 0,
                        "id": 0,
                        "order": 0
                    }
                ],
                "depth": -1,
                "id": -1,
                "order": -1
            }
        ],
        "tidyTraceNodeCount": 2
    },
    "state_change": {
        "stateChanges": [
            {
                "address": "0x54d582aafe3b8b83a6e28f9747b5fc00ddf0b581",
                "erc": "ERC-20",
                "slots": [
                    {
                        "current": "0x00000000000000000000000000000000000000000000014a1d5ee98f20a4a000",
                        "key": "0x8c5f2a669feb0f8a8a0578b891016046fbda068a31fd9cf6d9b585b19af9774a",
                        "prev": "0x000000000000000000000000000000000000000000000157aad15500984ca000"
                    },
                    {
                        "current": "0x00000000000000000000000000000000000000000000003635c9adc5dea00000",
                        "key": "0x04c2a113eb7dc6c7507f7f65d19e86e7970d37d253af5f4e709cb35d95430ad1",
                        "prev": "0x000000000000000000000000000000000000000000000028a857425466f80000"
                    }
                ],
                "storageVariables": [
                    {
                        "name": "balances",
                        "type": "mapping(address => uint256)",
                        "value": {
                            "pairs": [
                                {
                                    "key": "0x719ca04de737b7cfd1cc7ba4a2e517c33e899719",
                                    "value": {
                                        "current": "6089541930000000000000",
                                        "prev": "6339541930000000000000",
                                        "typeTag": 1
                                    }
                                },
                                {
                                    "key": "0xa26ae420b667803096b018a0e75470caef25dfa4",
                                    "value": {
                                        "current": "1000000000000000000000",
                                        "prev": "750000000000000000000",
                                        "typeTag": 1
                                    }
                                }
                            ],
                            "typeTag": 4
                        }
                    }
                ]
            }
        ]
    }
}