{
    "balance_change": {
        "balanceChanges": [
            {
                "account": "0x1710cf170ae306e51f670f79c290690a8b1a3817",
                "assets": [
                    {
                        "address": "0x13f1b7fdfbe1fc66676d56483e21b1ecb40b58e2",
                        "amount": "2,502.997",
                        "iconUrl": "",
                        "isERC1155": false,
                        "isERC721": false,
                        "sign": true,
                        "value": ""
                    }
                ]
            },
            {
                "account": "0x8d12a197cb00d4747a1fe03395095ce2a5cc6819",
                "assets": [
                    {
                        "address": "0x13f1b7fdfbe1fc66676d56483e21b1ecb40b58e2",
                        "amount": "2,502.997",
                        "iconUrl": "",
                        "isERC1155": false,
                        "isERC721": false,
                        "sign": false,
                        "value": ""
                    }
                ]
            }
        ]
    },
    "profile": {
        "basic_info": {
            "baseFee": "",
            "blockNumber": 6357381,
            "callData": "0x9e281a9800000000000000000000000013f1b7fdfbe1fc66676d56483e21b1ecb40b58e2000000000000000000000000000000000000000000000087b00fae0db4688000",
            "debugEnable": true,
            "errorInfo": "",
            "eventCount": 2,
            "feeRecipient": "0x829bd824b016326a401d083b33d092293333a830",
            "formatValue": "0",
            "gasLimit": 250000,
            "gasPrice": "10",
            "gasUsed": 93636,
            "intTxnCount": 1,
            "internalRevert": false,
            "internalRevertMessage": "",
            "isContractCreation": false,
            "isFlashloan": false,
            "maxFee": "",
            "nonce": 309,
            "overwritedBlockNumber": -1,
            "priorityFee": "",
            "receiver": "0x8d12a197cb00d4747a1fe03395095ce2a5cc6819",
            "revertMessage": "",
            "sender": "0x1710cf170ae306e51f670f79c290690a8b1a3817",
            "simulationEnable": true,
            "sourceTxnHash": "0x457cdf6c711b9c0a47f968940941f95941cadf19e66e7b80464528a5441de27a",
            "status": true,
            "timestamp": "2018-09-19T00:27:35Z",
            "transactionFee": "0.00093636",
            "txnHash": "0x457cdf6c711b9c0a47f968940941f95941cadf19e66e7b80464528a5441de27a",
            "txnIndex": 15,
            "type": 0,
            "value": "0"
        },
        "fund_flow": [
            {
                "amount": "2,502.997",
                "from": "0x8d12a197cb00d4747a1fe03395095ce2a5cc6819",
                "id": 1,
                "isERC1155": false,
                "isERC721": false,
                "isReverted": false,
                "order": 1,
                "to": "0x1710cf170ae306e51f670f79c290690a8b1a3817",
                "token": "0x13f1b7fdfbe1fc66676d56483e21b1ecb40b58e2"
            }
        ],
        "token_infos": [
            {
                "address": "0xeeeeeeeeeeeeeeeeeeeeeeeeeeeeeeeeeeeeeeee",
                "decimals": 18
            },
            {
                "address": "0x13f1b7fdfbe1fc66676d56483e21b1ecb40b58e2",
                "decimals": 18
            },
            {
                "address": "0xc02aaa39b223fe8d0a0e5c4f27ead9083c756cc2",
                "decimals": 18
            }
        ]
    },
    "address_label": {
        "labels": [
            {
                "address": "0x0000000000000000000000000000000000000004",
                "label": "Precompiled"
            },
            {
                "address": "0xeeeeeeeeeeeeeeeeeeeeeeeeeeeeeeeeeeeeeeee",
                "label": "Ether"
            },
            {
                "address": "0x8d12a197cb00d4747a1fe03395095ce2a5cc6819",
                "label": "EtherDelta"
            },
            {
                "address": "0x13f1b7fdfbe1fc66676d56483e21b1ecb40b58e2",
                "label": "AcceleratorToken"
            },
            {
                "address": "0x0000000000000000000000000000000000000001",
                "label": "Precompiled"
            },
            {
                "address": "0x0000000000000000000000000000000000000002",
                "label": "Precompiled"
            },
            {
                "address": "0x0000000000000000000000000000000000000003",
                "label": "Precompiled"
            }
        ]
    },
    "trace": {
        "accountLabels": null,
        "dataMap": {
            "-1": {
                "invocation": {
                    "address": "0x1710cf170ae306e51f670f79c290690a8b1a3817",
                    "callData": "",
                    "decodedMethod": null,
                    "errorInfo": "",
                    "fromAddress": "",
                    "gasUsed": 0,
                    "id": -1,
                    "methodDecoded": false,
                    "operation": "",
                    "output": "",
                    "revert": false,
                    "revertMessage": "",
                    "selector": "",
                    "status": false,
                    "value": ""
                },
                "nodeType": 0
            },
            "0": {
                "invocation": {
                    "address": "0x8d12a197cb00d4747a1fe03395095ce2a5cc6819",
                    "callData": "0x00000000000000000000000013f1b7fdfbe1fc66676d56483e21b1ecb40b58e2000000000000000000000000000000000000000000000087b00fae0db4688000",
                    "decodedMethod": {
                        "callParams": [
                            {
                                "name": "token",
                                "type": "address",
                                "value": "0x13f1b7fdfbe1fc66676d56483e21b1ecb40b58e2"
                            },
                            {
                                "name": "amount",
                                "type": "uint256",
                                "value": "2,502,997,000,000,000,000,000"
                            }
                        ],
                        "constructorArguments": "",
                        "name": "withdrawToken",
                        "returnParams": [],
                        "signature": "withdrawToken(address,uint256)"
                    },
                    "errorInfo": "",
                    "fromAddress": "0x1710cf170ae306e51f670f79c290690a8b1a3817",
                    "gasUsed": 93636,
                    "id": 0,
                    "methodDecoded": true,
                    "operation": "CALL",
                    "output": "",
                    "revert": false,
                    "revertMessage": "",
                    "selector": "0x9e281a98",
                    "status": true,
                    "value": "0"
                },
                "nodeType": 0
            },
            "1": {
                "invocation": {
                    "address": "0x13f1b7fdfbe1fc66676d56483e21b1ecb40b58e2",
                    "callData": "0x0000000000000000000000001710cf170ae306e51f670f79c290690a8b1a3817000000000000000000000000000000000000000000000087b00fae0db4688000",
                    "decodedMethod": {
                        "callParams": [
                            {
                                "name": "_to",
                                "type": "address",
                                "value": "0x1710cf170ae306e51f670f79c290690a8b1a3817"
                            },
                            {
                                "decimalAvailable": true,
                                "name": "_value",
                                "type": "uint256",
                                "value": "2,502,997,000,000,000,000,000"
                            }
                        ],
                        "constructorArguments": "",
                        "name": "transfer",
                        "returnParams": [
                            {
                                "name": "",
                                "type": "bool",
                                "value": true
                            }
                        ],
                        "signature": "transfer(address,uint256)"
                    },
                    "errorInfo": "",
                    "fromAddress": "0x8d12a197cb00d4747a1fe03395095ce2a5cc6819",
                    "gasUsed": 134363,
                    "id": 1,
                    "methodDecoded": true,
                    "operation": "CALL",
                    "output": "0x0000000000000000000000000000000000000000000000000000000000000001",
                    "revert": false,
                    "revertMessage": "",
                    "selector": "0xa9059cbb",
                    "status": true,
                    "value": "0"
                },
                "nodeType": 0
            },
            "2": {
                "event": {
                    "contract": "0x13f1b7fdfbe1fc66676d56483e21b1ecb40b58e2",
                    "decodedLog": {
                        "name": "Transfer",
                        "params": [
                            {
                                "name": "from",
                                "type": "address",
                                "value": "0x8d12a197cb00d4747a1fe03395095ce2a5cc6819"
                            },
                            {
                                "name": "to",
                                "type": "address",
                                "value": "0x1710cf170ae306e51f670f79c290690a8b1a3817"
                            },
                            {
                                "decimalAvailable": true,
                                "name": "value",
                                "type": "uint256",
                                "value": "2,502,997,000,000,000,000,000"
                            }
                        ],
                        "signature": "Transfer(address,address,uint256)"
                    },
                    "id": 2,
                    "logData": "0x000000000000000000000000000000000000000000000087b00fae0db4688000",
                    "logDecoded": true,
                    "operation": "EVENT",
                    "revert": false,
                    "status": true,
                    "topics": [
                        "0xddf252ad1be2c89b69c2b068fc378daa952ba7f163c4a11628f55a4df523b3ef",
                        "0x0000000000000000000000008d12a197cb00d4747a1fe03395095ce2a5cc6819",
                        "0x0000000000000000000000001710cf170ae306e51f670f79c290690a8b1a3817"
                    ]
                },
                "nodeType": 1
            },
            "3": {
                "event": {
                    "contract": "0x8d12a197cb00d4747a1fe03395095ce2a5cc6819",
                    "decodedLog": {
                        "name": "Withdraw",
                        "params": [
                            {
                                "name": "token",
                                "type": "address",
                                "value": "0x13f1b7fdfbe1fc66676d56483e21b1ecb40b58e2"
                            },
                            {
                                "name": "user",
                                "type": "address",
                                "value": "0x1710cf170ae306e51f670f79c290690a8b1a3817"
                            },
                            {
                                "name": "amount",
                                "type": "uint256",
                                "value": "2,502,997,000,000,000,000,000"
                            },
                            {
                                "name": "balance",
                                "type": "uint256",
                                "value": "396,466,577,018,330"
                            }
                        ],
                        "signature": "Withdraw(address,address,uint256,uint256)"
                    },
                    "id": 3,
                    "logData": "0x00000000000000000000000013f1b7fdfbe1fc66676d56483e21b1ecb40b58e20000000000000000000000001710cf170ae306e51f670f79c290690a8b1a3817000000000000000000000000000000000000000000000087b00fae0db468800000000000000000000000000000000000000000000000000000016895917d0dda",
                    "logDecoded": true,
                    "operation": "EVENT",
                    "revert": false,
                    "status": true,
                    "topics": [
                        "0xf341246adaac6f497bc2a656f546ab9e182111d630394f0c57c710a59a2cb567"
                    ]
                },
                "nodeType": 1
            }
        },
        "gasFlame": [
            {
                "children": [
                    {
                        "children": [
                            {
                                "children": [],
                                "depth": 0,
                                "name": "Initial Gas",
                                "value": 23320
                            },
                            {
                                "children": [
                                    {
                                        "children": [],
                                        "depth": 1,
                                        "name": "transfer",
                                        "value": 134363
                                    }
                                ],
                                "depth": 0,
                                "name": "Executed Gas",
                                "value": 145316
                            }
                        ],
                        "depth": -1,
                        "name": "Actual Gas Used",
                        "value": 93636
                    },
                    {
                        "children": [],
                        "depth": -1,
                        "name": "Refunded Gas",
                        "value": 75000
                    }
                ],
                "depth": -2,
                "name": "Total Gas",
                "value": 168636
            }
        ],
        "isConfirmed": true,
        "mainTrace": [
            {
                "children": [
                    {
                        "children": [
                            {
                                "children": [
                                    {
                                        "children": [],
                                        "depth": 2,
                                        "id": 2,
                                        "order": 2
                                    }
                                ],
                                "depth": 1,
                                "id": 1,
                                "order": 1
                            },
                            {
                                "children": [],
                                "depth": 1,
                                "id": 3,
                                "order": 3
                            }
                        ],
                        "depth": 0,
                        "id": 0,
                        "order": 0
                    }
                ],
                "depth": -1,
                "id": -1,
                "order": -1
            }
        ],
        "mainTraceNodeCount": 4,
        "parentIdMap": {
            "0": -1,
            "1": 0,
            "2": 1,
            "3": 0
        },
        "tidyTrace": [
            {
                "children": [
                    {
                        "children": [
                            {
                                "children": [
                                    {
                                        "children": [],
                                        "depth": 2,
                                        "id": 2,
                                        "order": 2
                                    }
                                ],
                                "depth": 1,
                                "id": 1,
                                "order": 1
                            },
                            {
                                "children": [],
                                "depth": 1,
                                "id": 3,
                                "order": 3
                            }
                        ],
                        "depth": 0,
                        "id": 0,
                        "order": 0
                    }
                ],
                "depth": -1,
                "id": -1,
                "order": -1
            }
        ],
        "tidyTraceNodeCount": 4
    },
    "state_change": {
        "stateChanges": [
            {
                "address": "0x13f1b7fdfbe1fc66676d56483e21b1ecb40b58e2",
                "erc": "ERC-20",
                "slots": [
                    {
                        "current": "0x0000000000000000000000000000000000000000000002c84489176a4288f1a1",
                        "key": "0x332bfca9d2dade650363571a8f0ae111162e6fa6cbebd1fdef4fce9cc75bb7b0",
                        "prev": "0x00000000000000000000000000000000000000000000034ff498c577f6f171a1"
                    },
                    {
                        "current": "0x0000000000000000000000000000000000000000000000000000000000000000",
                        "key": "0x910a657573e6b07718d0e4831865bb8e4cdec6a8da94d24281c7dca3f4b5d84c",
                        "prev": "0x0000000000000000000000005ba01da50000000000000001158e460913d00000"
                    },
                    {
                        "current": "0x0000000000000000000000000000000000000000000000000000000000000001",
                        "key": "0x530aeaa67aebfcc8a01c16afa37970cd0f38f793dfd8efb1e1991aa0557207df",
                        "prev": "0x0000000000000000000000000000000000000000000000000000000000000004"
                    },
                    {
                        "current": "0x0000000000000000000000000000000000000000000000000000000000000000",
                        "key": "0x910a657573e6b07718d0e4831865bb8e4cdec6a8da94d24281c7dca3f4b5d84e",
                        "prev": "0x0000000000000000000000005ba15a950000000000000054034bc081a3bff800"
                    },
                    {
                        "current": "0x0000000000000000000000000000000000000000000000000000000000000002",
                        "key": "0xde7e4c78c428941492c7d26207dd90a6a03e9547f114189e230232b2eb28fc93",
                        "prev": "0x0000000000000000000000000000000000000000000000000000000000000001"
                    },
                    {
                        "current": "0x0000000000000000000000005ba197f70000000000000087b00fae0db4688000",
                        "key": "0x06edfdfbd50db26184ff1e42d248423d5d6426ae285ab46ffd3f893643f61f74",
                        "prev": "0x0000000000000000000000000000000000000000000000000000000000000000"
                    },
                    {
                        "current": "0x000000000000000000000000000000000000000000000087b00fae0db4688000",
                        "key": "0xdbc2fc12f871133cef00bfc56248e98a890c5e88a4e3875da41f421cebac0b36",
                        "prev": "0x0000000000000000000000000000000000000000000000000000000000000000"
                    },
                    {
                        "current": "0x0000000000000000000000005ba197f700000000000002c84489176a4288f1a1",
                        "key": "0x910a657573e6b07718d0e4831865bb8e4cdec6a8da94d24281c7dca3f4b5d84b",
                        "prev": "0x0000000000000000000000005b9ff30b00000000000002695bc33b5e42f179a1"
                    },
                    {
                        "current": "0x0000000000000000000000000000000000000000000000000000000000000000",
                        "key": "0x910a657573e6b07718d0e4831865bb8e4cdec6a8da94d24281c7dca3f4b5d84d",
                        "prev": "0x0000000000000000000000005ba11e0300000000000000917ffb838efc700000"
                    }
                ],
                "storageVariables": [
                    {
                        "name": "transferIns",
                        "type": "mapping(address => struct Accelerator.transferInStruct[])",
                        "value": {
                            "pairs": [
                                {
                                    "key": "0x1710cf170ae306e51f670f79c290690a8b1a3817",
                                    "value": {
                                        "elemType": "struct Accelerator.transferInStruct",
                                        "elems": [
                                            {
                                                "index": 1,
                                                "value": {
                                                    "fields": [
                                                        {
                                                            "name": "amount",
                                                            "type": "uint128",
                                                            "value": {
                                                                "current": "2502997000000000000000",
                                                                "prev": "0",
                                                                "typeTag": 1
                                                            }
                                                        },
                                                        {
                                                            "name": "time",
                                                            "type": "uint64",
                                                            "value": {
                                                                "current": "1537316855",
                                                                "prev": "0",
                                                                "typeTag": 1
                                                            }
                                                        }
                                                    ],
                                                    "typeTag": 3
                                                }
                                            }
                                        ],
                                        "typeTag": 2
                                    }
                                },
                                {
                                    "key": "0x8d12a197cb00d4747a1fe03395095ce2a5cc6819",
                                    "value": {
                                        "elemType": "struct Accelerator.transferInStruct",
                                        "elems": [
                                            {
                                                "index": 0,
                                                "value": {
                                                    "fields": [
                                                        {
                                                            "name": "amount",
                                                            "type": "uint128",
                                                            "value": {
                                                                "current": "13139020284692739453345",
                                                                "prev": "11388253287432739453345",
                                                                "typeTag": 1
                                                            }
                                                        },
                                                        {
                                                            "name": "time",
                                                            "type": "uint64",
                                                            "value": {
                                                                "current": "1537316855",
                                                                "prev": "1537209099",
                                                                "typeTag": 1
                                                            }
                                                        }
                                                    ],
                                                    "typeTag": 3
                                                }
                                            }
                                        ],
                                        "typeTag": 2
                                    }
                                }
                            ],
                            "typeTag": 4
                        }
                    },
                    {
                        "name": "balances",
                        "type": "mapping(address => uint256)",
                        "value": {
                            "pairs": [
                                {
                                    "key": "0x1710cf170ae306e51f670f79c290690a8b1a3817",
                                    "value": {
                                        "current": "2502997000000000000000",
                                        "prev": "0",
                                        "typeTag": 1
                                    }
                                },
                                {
                                    "key": "0x8d12a197cb00d4747a1fe03395095ce2a5cc6819",
                                    "value": {
                                        "current": "13139020284692739453345",
                                        "prev": "15642017284692739453345",
                                        "typeTag": 1
                                    }
                                }
                            ],
                            "typeTag": 4
                        }
                    }
                ]
            },
            {
                "address": "0x8d12a197cb00d4747a1fe03395095ce2a5cc6819",
                "erc": "",
                "slots": [
                    {
                        "current": "0x00000000000000000000000000000000000000000000000000016895917d0dda",
                        "key": "0xef80138e63f9b8bf40bcc4b29897aa0468e763c6eef292c8a459f4f5ff8d597b",
                        "prev": "0x000000000000000000000000000000000000000000000087b01116a345e58dda"
                    }
                ],
                "storageVariables": []
            }
        ]
    }
}