{
    "balance_change": {
        "balanceChanges": [
            {
                "account": "0x3c653f8fed7b0f51c1cadf46e7c798b476ca8d3a",
                "assets": [
                    {
                        "address": "0xc02aaa39b223fe8d0a0e5c4f27ead9083c756cc2",
                        "amount": "0.006451409000894196",
                        "iconUrl": "https://assets.blocksec.com/icon/f1cb2d02c471d545bbc7722daf3277fd852d98e63d118771af7047bd8256c516.png",
                        "isERC1155": false,
                        "isERC721": false,
                        "sign": true,
                        "value": "14.26554264"
                    },
                    {
                        "address": "0xeeeeeeeeeeeeeeeeeeeeeeeeeeeeeeeeeeeeeeee",
                        "amount": "0.00514965443630712",
                        "iconUrl": "https://assets.blocksec.com/image/1663669189317-3.png",
                        "isERC1155": false,
                        "isERC721": false,
                        "sign": false,
                        "value": "11.3870652"
                    }
                ]
            },
            {
                "account": "0x397ff1542f962076d0bfe58ea045ffa2d347aca0",
                "assets": [
                    {
                        "address": "0xa0b86991c6218b36c1d19d4a2e9eb0ce3606eb48",
                        "amount": "795.282867",
                        "iconUrl": "https://assets.blocksec.com/icon/0347a86cc07dbd03fdc5db01a4e5ac7e1217f90e0b6e4bb0f75cbcca09160989.png",
                        "isERC1155": false,
                        "isERC721": false,
                        "sign": true,
                        "value": "795.546209"
                    },
                    {
                        "address": "0xc02aaa39b223fe8d0a0e5c4f27ead9083c756cc2",
                        "amount": "0.359702271583960236",
                        "iconUrl": "https://assets.blocksec.com/icon/f1cb2d02c471d545bbc7722daf3277fd852d98e63d118771af7047bd8256c516.png",
                        "isERC1155": false,
                        "isERC721": false,
                        "sign": false,
                        "value": "795.384093"
                    }
                ]
            },
            {
                "account": "0x4c083084c9d50334b343c44ec97d16011303cc73",
                "assets": [
                    {
                        "address": "0xd9016a907dc0ecfa3ca425ab20b6b785b42f2373",
                        "amount": "4,130.127443817294117471",
                        "iconUrl": "https://assets.blocksec.com/icon/ee96afdb40e0bdfd6fce437d6886aa9c0292936c1b60f498aaeff6566b184c6f.png",
                        "isERC1155": false,
                        "isERC721": false,
                        "sign": false,
                        "value": "789.8447737"
                    },
                    {
                        "address": "0xc02aaa39b223fe8d0a0e5c4f27ead9083c756cc2",
                        "amount": "0.35325086258306604",
                        "iconUrl": "https://assets.blocksec.com/icon/f1cb2d02c471d545bbc7722daf3277fd852d98e63d118771af7047bd8256c516.png",
                        "isERC1155": false,
                        "isERC721": false,
                        "sign": true,
                        "value": "781.1185503"
                    }
                ]
            },
            {
                "account": "0x8595dd9e0438640b5e1254f9df579ac12a86865f",
                "assets": [
                    {
                        "address": "0xeeeeeeeeeeeeeeeeeeeeeeeeeeeeeeeeeeeeeeee",
                        "amount": "0.00514965443630712",
                        "iconUrl": "https://assets.blocksec.com/image/1663669189317-3.png",
                        "isERC1155": false,
                        "isERC721": false,
                        "sign": true,
                        "value": "11.3870652"
                    }
                ]
            },
            {
                "account": "0xa23e1f551cfeac9ff762d351010136fafc3008e9",
                "assets": [
                    {
                        "address": "0xd9016a907dc0ecfa3ca425ab20b6b785b42f2373",
                        "amount": "4,130.127443817294117471",
                        "iconUrl": "https://assets.blocksec.com/icon/ee96afdb40e0bdfd6fce437d6886aa9c0292936c1b60f498aaeff6566b184c6f.png",
                        "isERC1155": false,
                        "isERC721": false,
                        "sign": true,
                        "value": "789.8447737"
                    },
                    {
                        "address": "0x557b933a7c2c45672b610f8954a3deb39a51a8ca",
                        "amount": "11,554.890520919946622728",
                        "iconUrl": "",
                        "isERC1155": false,
                        "isERC721": false,
                        "sign": false,
                        "value": "795.546208"
                    }
                ]
            },
            {
                "account": "0xacbf3c973eeec20c573ec930ce31198afb4ad0d5",
                "assets": [
                    {
                        "address": "0x557b933a7c2c45672b610f8954a3deb39a51a8ca",
                        "amount": "11,554.890520919946622728",
                        "iconUrl": "",
                        "isERC1155": false,
                        "isERC721": false,
                        "sign": true,
                        "value": "795.546208"
                    },
                    {
                        "address": "0xa0b86991c6218b36c1d19d4a2e9eb0ce3606eb48",
                        "amount": "795.282867",
                        "iconUrl": "https://assets.blocksec.com/icon/0347a86cc07dbd03fdc5db01a4e5ac7e1217f90e0b6e4bb0f75cbcca09160989.png",
                        "isERC1155": false,
                        "isERC721": false,
                        "sign": false,
                        "value": "795.546209"
                    }
                ]
            }
        ]
    },
    "profile": {
        "basic_info": {
            "baseFee": "",
            "blockNumber": 12739195,
            "callData": "0x8c08609e0000000000000000000000000000000000000000000000000000000000c2627b00000000000000000000000000000000000000000000000004e6ffc9b4dd2db8000000000000000000000000000000000000000000000000000000000000008000000000000000000000000000000000000000000000000000124b955b6460b000000000000000000000000000000000000000000000000000000000000000040000000000000000000000004c083084c9d50334b343c44ec97d16011303cc7300000000000000000000000000000000000000000000000d2d0a7135f01d221f00000000000000000000000000000000000000000000000000000000000000000000000000000000000000000000000000000000000000dfe50843cc7deaba5f000000000000000000000000a23e1f551cfeac9ff762d351010136fafc3008e900000000000000000000000000000000000000000001ba6dbd3be7aaee6ecf1900000000000000000000000000000000000000000000027264519c57c9c0f7080000000000000000000000000000000000000000000000000000000000000000000000000000000000000000acbf3c973eeec20c573ec930ce31198afb4ad0d500000000000000000000000000000000000000000000d97e0fa18788f1ecfdcf0000000000000000000000000000000000000000000000000000000000000000000000000000000000000000000000000000000000000000000000002f670db3000000000000000000000000397ff1542f962076d0bfe58ea045ffa2d347aca000000000000000000000000000000000000000000000000000008d6845401d74000000000000000000000000000000000000000000000000000000000000000000000000000000000000000000000000000000000000000004fdeb4f6aa9bcac",
            "debugEnable": true,
            "errorInfo": "",
            "eventCount": 13,
            "feeRecipient": "0x8595dd9e0438640b5e1254f9df579ac12a86865f",
            "formatValue": "0",
            "gasLimit": 683138,
            "gasPrice": "0",
            "gasUsed": 195038,
            "intTxnCount": 38,
            "internalRevert": false,
            "internalRevertMessage": "",
            "isContractCreation": false,
            "isFlashloan": false,
            "maxFee": "",
            "nonce": 37205,
            "overwritedBlockNumber": -1,
            "priorityFee": "",
            "receiver": "0x3c653f8fed7b0f51c1cadf46e7c798b476ca8d3a",
            "revertMessage": "",
            "sender": "0x46eaadc8f2199463db26d1797131900575f0d264",
            "simulationEnable": true,
            "sourceTxnHash": "0x456502f455cb0d14883d473df1cea3b5f3b984ee387420c1aab9126ea1e69fde",
            "status": true,
            "timestamp": "2021-07-01T02:41:10Z",
            "transactionFee": "0",
            "txnHash": "0x456502f455cb0d14883d473df1cea3b5f3b984ee387420c1aab9126ea1e69fde",
            "txnIndex": 4,
            "type": 0,
            "value": "0"
        },
        "fund_flow": [
            {
                "amount": "0.35325086258306604",
                "from": "0x3c653f8fed7b0f51c1cadf46e7c798b476ca8d3a",
                "id": 1,
                "isERC1155": false,
                "isERC721": false,
                "isReverted": false,
                "order": 1,
                "to": "0x4c083084c9d50334b343c44ec97d16011303cc73",
                "token": "0xc02aaa39b223fe8d0a0e5c4f27ead9083c756cc2"
            },
            {
                "amount": "4,130.127443817294117471",
                "from": "0x4c083084c9d50334b343c44ec97d16011303cc73",
                "id": 2,
                "isERC1155": false,
                "isERC721": false,
                "isReverted": false,
                "order": 2,
                "to": "0xa23e1f551cfeac9ff762d351010136fafc3008e9",
                "token": "0xd9016a907dc0ecfa3ca425ab20b6b785b42f2373"
            },
            {
                "amount": "11,554.890520919946622728",
                "from": "0xa23e1f551cfeac9ff762d351010136fafc3008e9",
                "id": 3,
                "isERC1155": false,
                "isERC721": false,
                "isReverted": false,
                "order": 3,
                "to": "0xacbf3c973eeec20c573ec930ce31198afb4ad0d5",
                "token": "0x557b933a7c2c45672b610f8954a3deb39a51a8ca"
            },
            {
                "amount": "795.282867",
                "from": "0xacbf3c973eeec20c573ec930ce31198afb4ad0d5",
                "id": 4,
                "isERC1155": false,
                "isERC721": false,
                "isReverted": false,
                "order": 4,
                "to": "0x397ff1542f962076d0bfe58ea045ffa2d347aca0",
                "token": "0xa0b86991c6218b36c1d19d4a2e9eb0ce3606eb48"
            },
            {
                "amount": "0.359702271583960236",
                "from": "0x397ff1542f962076d0bfe58ea045ffa2d347aca0",
                "id": 5,
                "isERC1155": false,
                "isERC721": false,
                "isReverted": false,
                "order": 5,
                "to": "0x3c653f8fed7b0f51c1cadf46e7c798b476ca8d3a",
                "token": "0xc02aaa39b223fe8d0a0e5c4f27ead9083c756cc2"
            },
            {
                "amount": "0.00514965443630712",
                "from": "0x3c653f8fed7b0f51c1cadf46e7c798b476ca8d3a",
                "id": 6,
                "isERC1155": false,
                "isERC721": false,
                "isReverted": false,
                "order": 6,
                "to": "0x8595dd9e0438640b5e1254f9df579ac12a86865f",
                "token": "0xeeeeeeeeeeeeeeeeeeeeeeeeeeeeeeeeeeeeeeee"
            }
        ],
        "token_infos": [
            {
                "address": "0xa0b86991c6218b36c1d19d4a2e9eb0ce3606eb48",
                "decimals": 6
            },
            {
                "address": "0xc02aaa39b223fe8d0a0e5c4f27ead9083c756cc2",
                "decimals": 18
            },
            {
                "address": "0xd9016a907dc0ecfa3ca425ab20b6b785b42f2373",
                "decimals": 18
            },
            {
                "address": "0xeeeeeeeeeeeeeeeeeeeeeeeeeeeeeeeeeeeeeeee",
                "decimals": 18
            },
            {
                "address": "0x557b933a7c2c45672b610f8954a3deb39a51a8ca",
                "decimals": 18
            }
        ]
    },
    "address_label": {
        "labels": [
            {
                "address": "0x4c083084c9d50334b343c44ec97d16011303cc73",
                "label": "Uniswap V2: GMEE 3"
            },
            {
                "address": "0x8595dd9e0438640b5e1254f9df579ac12a86865f",
                "label": "EzilPool 2"
            },
            {
                "address": "0xa2327a938febf5fec13bacfb16ae10ecbc4cbdcf",
                "label": "FiatTokenV2_1"
            },
            {
                "address": "0xa23e1f551cfeac9ff762d351010136fafc3008e9",
                "label": "Uniswap V2: REVV-GMEE"
            },
            {
                "address": "0x0000000000b3f879cb30fe243b4dfee438691c04",
                "label": "GasToken.io: GST2 Token"
            },
            {
                "address": "0x0000000000000000000000000000000000000001",
                "label": "Precompiled"
            },
            {
                "address": "0xc02aaa39b223fe8d0a0e5c4f27ead9083c756cc2",
                "label": "Wrapped Ether (WETH)"
            },
            {
                "address": "0x557b933a7c2c45672b610f8954a3deb39a51a8ca",
                "label": "Animoca: REVV Token"
            },
            {
                "address": "0xacbf3c973eeec20c573ec930ce31198afb4ad0d5",
                "label": "Uniswap V2: REVV-USDC"
            },
            {
                "address": "0x0000000000000000000000000000000000000003",
                "label": "Precompiled"
            },
            {
                "address": "0x397ff1542f962076d0bfe58ea045ffa2d347aca0",
                "label": "SushiSwap: USDC"
            },
            {
                "address": "0xd9016a907dc0ecfa3ca425ab20b6b785b42f2373",
                "label": "GAMEE: GMEE Token"
            },
            {
                "address": "0x0000000000000000000000000000000000000002",
                "label": "Precompiled"
            },
            {
                "address": "0xeeeeeeeeeeeeeeeeeeeeeeeeeeeeeeeeeeeeeeee",
                "label": "Ether"
            },
            {
                "address": "0xa0b86991c6218b36c1d19d4a2e9eb0ce3606eb48",
                "label": "Circle: USDC Token"
            },
            {
                "address": "0x0000000000000000000000000000000000000004",
                "label": "Precompiled"
            }
        ]
    },
    "trace": {
        "accountLabels": null,
        "dataMap": {
            "-1": {
                "invocation": {
                    "address": "0x46eaadc8f2199463db26d1797131900575f0d264",
                    "callData": "",
                    "decodedMethod": null,
                    "errorInfo": "",
                    "fromAddress": "",
                    "gasUsed": 0,
                    "id": -1,
                    "methodDecoded": false,
                    "operation": "",
                    "output": "",
                    "revert": false,
                    "revertMessage": "",
                    "selector": "",
                    "status": false,
                    "value": ""
                },
                "nodeType": 0
            },
            "0": {
                "invocation": {
                    "address": "0x3c653f8fed7b0f51c1cadf46e7c798b476ca8d3a",
                    "callData": "0x0000000000000000000000000000000000000000000000000000000000c2627b00000000000000000000000000000000000000000000000004e6ffc9b4dd2db8000000000000000000000000000000000000000000000000000000000000008000000000000000000000000000000000000000000000000000124b955b6460b000000000000000000000000000000000000000000000000000000000000000040000000000000000000000004c083084c9d50334b343c44ec97d16011303cc7300000000000000000000000000000000000000000000000d2d0a7135f01d221f00000000000000000000000000000000000000000000000000000000000000000000000000000000000000000000000000000000000000dfe50843cc7deaba5f000000000000000000000000a23e1f551cfeac9ff762d351010136fafc3008e900000000000000000000000000000000000000000001ba6dbd3be7aaee6ecf1900000000000000000000000000000000000000000000027264519c57c9c0f7080000000000000000000000000000000000000000000000000000000000000000000000000000000000000000acbf3c973eeec20c573ec930ce31198afb4ad0d500000000000000000000000000000000000000000000d97e0fa18788f1ecfdcf0000000000000000000000000000000000000000000000000000000000000000000000000000000000000000000000000000000000000000000000002f670db3000000000000000000000000397ff1542f962076d0bfe58ea045ffa2d347aca000000000000000000000000000000000000000000000000000008d6845401d74000000000000000000000000000000000000000000000000000000000000000000000000000000000000000000000000000000000000000004fdeb4f6aa9bcac",
                    "decodedMethod": null,
                    "errorInfo": "",
                    "fromAddress": "0x46eaadc8f2199463db26d1797131900575f0d264",
                    "gasUsed": 195038,
                    "id": 0,
                    "methodDecoded": false,
                    "operation": "CALL",
                    "output": "",
                    "revert": false,
                    "revertMessage": "",
                    "selector": "0x8c08609e",
                    "status": true,
                    "value": "0"
                },
                "nodeType": 0
            },
            "1": {
                "invocation": {
                    "address": "0x4c083084c9d50334b343c44ec97d16011303cc73",
                    "callData": "0x",
                    "decodedMethod": {
                        "callParams": [],
                        "constructorArguments": "",
                        "name": "getReserves",
                        "returnParams": [
                            {
                                "name": "_reserve0",
                                "type": "uint112",
                                "value": "243,053,203,916,173,681,183"
                            },
                            {
                                "name": "_reserve1",
                                "type": "uint112",
                                "value": "2,854,402,832,553,432,990,449,676"
                            },
                            {
                                "name": "_blockTimestampLast",
                                "type": "uint32",
                                "value": "1,625,107,268"
                            }
                        ],
                        "signature": "getReserves()"
                    },
                    "errorInfo": "",
                    "fromAddress": "0x3c653f8fed7b0f51c1cadf46e7c798b476ca8d3a",
                    "gasUsed": 2504,
                    "id": 1,
                    "methodDecoded": true,
                    "operation": "STATICCALL",
                    "output": "0x00000000000000000000000000000000000000000000000d2d0a7135f01d221f000000000000000000000000000000000000000000025c717cd404fc74b5800c0000000000000000000000000000000000000000000000000000000060dd2b44",
                    "revert": false,
                    "revertMessage": "",
                    "selector": "0x0902f1ac",
                    "status": true,
                    "value": "0"
                },
                "nodeType": 0
            },
            "10": {
                "invocation": {
                    "address": "0xc02aaa39b223fe8d0a0e5c4f27ead9083c756cc2",
                    "callData": "0x0000000000000000000000004c083084c9d50334b343c44ec97d16011303cc73",
                    "decodedMethod": {
                        "callParams": [
                            {
                                "name": "",
                                "type": "address",
                                "value": "0x4c083084c9d50334b343c44ec97d16011303cc73"
                            }
                        ],
                        "constructorArguments": "",
                        "name": "balanceOf",
                        "returnParams": [
                            {
                                "decimalAvailable": true,
                                "name": "",
                                "type": "uint256",
                                "value": "243,406,454,778,756,747,223"
                            }
                        ],
                        "signature": "balanceOf(address)"
                    },
                    "errorInfo": "",
                    "fromAddress": "0x4c083084c9d50334b343c44ec97d16011303cc73",
                    "gasUsed": 534,
                    "id": 10,
                    "methodDecoded": true,
                    "operation": "STATICCALL",
                    "output": "0x00000000000000000000000000000000000000000000000d31f170ffa4fa4fd7",
                    "revert": false,
                    "revertMessage": "",
                    "selector": "0x70a08231",
                    "status": true,
                    "value": "0"
                },
                "nodeType": 0
            },
            "11": {
                "invocation": {
                    "address": "0xd9016a907dc0ecfa3ca425ab20b6b785b42f2373",
                    "callData": "0x0000000000000000000000004c083084c9d50334b343c44ec97d16011303cc73",
                    "decodedMethod": {
                        "callParams": [
                            {
                                "name": "account",
                                "type": "address",
                                "value": "0x4c083084c9d50334b343c44ec97d16011303cc73"
                            }
                        ],
                        "constructorArguments": "",
                        "name": "balanceOf",
                        "returnParams": [
                            {
                                "decimalAvailable": true,
                                "name": "",
                                "type": "uint256",
                                "value": "2,850,272,705,109,615,696,332,205"
                            }
                        ],
                        "signature": "balanceOf(address)"
                    },
                    "errorInfo": "",
                    "fromAddress": "0x4c083084c9d50334b343c44ec97d16011303cc73",
                    "gasUsed": 487,
                    "id": 11,
                    "methodDecoded": true,
                    "operation": "STATICCALL",
                    "output": "0x000000000000000000000000000000000000000000025b9197cbc12ff6cac5ad",
                    "revert": false,
                    "revertMessage": "",
                    "selector": "0x70a08231",
                    "status": true,
                    "value": "0"
                },
                "nodeType": 0
            },
            "12": {
                "event": {
                    "contract": "0x4c083084c9d50334b343c44ec97d16011303cc73",
                    "decodedLog": {
                        "name": "Sync",
                        "params": [
                            {
                                "name": "reserve0",
                                "type": "uint112",
                                "value": "243,406,454,778,756,747,223"
                            },
                            {
                                "name": "reserve1",
                                "type": "uint112",
                                "value": "2,850,272,705,109,615,696,332,205"
                            }
                        ],
                        "signature": "Sync(uint112,uint112)"
                    },
                    "id": 12,
                    "logData": "0x00000000000000000000000000000000000000000000000d31f170ffa4fa4fd7000000000000000000000000000000000000000000025b9197cbc12ff6cac5ad",
                    "logDecoded": true,
                    "operation": "EVENT",
                    "revert": false,
                    "status": true,
                    "topics": [
                        "0x1c411e9a96e071241c2f21f7726b17ae89e3cab4c78be50e062b03a9fffbbad1"
                    ]
                },
                "nodeType": 1
            },
            "13": {
                "event": {
                    "contract": "0x4c083084c9d50334b343c44ec97d16011303cc73",
                    "decodedLog": {
                        "name": "Swap",
                        "params": [
                            {
                                "name": "sender",
                                "type": "address",
                                "value": "0x3c653f8fed7b0f51c1cadf46e7c798b476ca8d3a"
                            },
                            {
                                "name": "to",
                                "type": "address",
                                "value": "0xa23e1f551cfeac9ff762d351010136fafc3008e9"
                            },
                            {
                                "name": "amount0In",
                                "type": "uint256",
                                "value": "353,250,862,583,066,040"
                            },
                            {
                                "name": "amount1In",
                                "type": "uint256",
                                "value": "0"
                            },
                            {
                                "name": "amount0Out",
                                "type": "uint256",
                                "value": "0"
                            },
                            {
                                "name": "amount1Out",
                                "type": "uint256",
                                "value": "4,130,127,443,817,294,117,471"
                            }
                        ],
                        "signature": "Swap(address,uint256,uint256,uint256,uint256,address)"
                    },
                    "id": 13,
                    "logData": "0x00000000000000000000000000000000000000000000000004e6ffc9b4dd2db8000000000000000000000000000000000000000000000000000000000000000000000000000000000000000000000000000000000000000000000000000000000000000000000000000000000000000000000000000000dfe50843cc7deaba5f",
                    "logDecoded": true,
                    "operation": "EVENT",
                    "revert": false,
                    "status": true,
                    "topics": [
                        "0xd78ad95fa46c994b6551d0da85fc275fe613ce37657fb8d5e3d130840159d822",
                        "0x0000000000000000000000003c653f8fed7b0f51c1cadf46e7c798b476ca8d3a",
                        "0x000000000000000000000000a23e1f551cfeac9ff762d351010136fafc3008e9"
                    ]
                },
                "nodeType": 1
            },
            "14": {
                "invocation": {
                    "address": "0xa23e1f551cfeac9ff762d351010136fafc3008e9",
                    "callData": "0x00000000000000000000000000000000000000000000027264519c57c9c0f7080000000000000000000000000000000000000000000000000000000000000000000000000000000000000000acbf3c973eeec20c573ec930ce31198afb4ad0d500000000000000000000000000000000000000000000000000000000000000800000000000000000000000000000000000000000000000000000000000000000",
                    "decodedMethod": {
                        "callParams": [
                            {
                                "name": "amount0Out",
                                "type": "uint256",
                                "value": "11,554,890,520,919,946,622,728"
                            },
                            {
                                "name": "amount1Out",
                                "type": "uint256",
                                "value": "0"
                            },
                            {
                                "name": "to",
                                "type": "address",
                                "value": "0xacbf3c973eeec20c573ec930ce31198afb4ad0d5"
                            },
                            {
                                "name": "data",
                                "type": "bytes",
                                "value": "0x"
                            }
                        ],
                        "constructorArguments": "",
                        "name": "swap",
                        "returnParams": [],
                        "signature": "swap(uint256,uint256,address,bytes)"
                    },
                    "errorInfo": "",
                    "fromAddress": "0x3c653f8fed7b0f51c1cadf46e7c798b476ca8d3a",
                    "gasUsed": 47730,
                    "id": 14,
                    "methodDecoded": true,
                    "operation": "CALL",
                    "output": "",
                    "revert": false,
                    "revertMessage": "",
                    "selector": "0x022c0d9f",
                    "status": true,
                    "value": "0"
                },
                "nodeType": 0
            },
            "15": {
                "invocation": {
                    "address": "0x557b933a7c2c45672b610f8954a3deb39a51a8ca",
                    "callData": "0x000000000000000000000000acbf3c973eeec20c573ec930ce31198afb4ad0d500000000000000000000000000000000000000000000027264519c57c9c0f708",
                    "decodedMethod": {
                        "callParams": [
                            {
                                "name": "recipient",
                                "type": "address",
                                "value": "0xacbf3c973eeec20c573ec930ce31198afb4ad0d5"
                            },
                            {
                                "decimalAvailable": true,
                                "name": "amount",
                                "type": "uint256",
                                "value": "11,554,890,520,919,946,622,728"
                            }
                        ],
                        "constructorArguments": "",
                        "name": "transfer",
                        "returnParams": [
                            {
                                "name": "",
                                "type": "bool",
                                "value": true
                            }
                        ],
                        "signature": "transfer(address,uint256)"
                    },
                    "errorInfo": "",
                    "fromAddress": "0xa23e1f551cfeac9ff762d351010136fafc3008e9",
                    "gasUsed": 12933,
                    "id": 15,
                    "methodDecoded": true,
                    "operation": "CALL",
                    "output": "0x0000000000000000000000000000000000000000000000000000000000000001",
                    "revert": false,
                    "revertMessage": "",
                    "selector": "0xa9059cbb",
                    "status": true,
                    "value": "0"
                },
                "nodeType": 0
            },
            "16": {
                "event": {
                    "contract": "0x557b933a7c2c45672b610f8954a3deb39a51a8ca",
                    "decodedLog": {
                        "name": "Transfer",
                        "params": [
                            {
                                "name": "_from",
                                "type": "address",
                                "value": "0xa23e1f551cfeac9ff762d351010136fafc3008e9"
                            },
                            {
                                "name": "_to",
                                "type": "address",
                                "value": "0xacbf3c973eeec20c573ec930ce31198afb4ad0d5"
                            },
                            {
                                "decimalAvailable": true,
                                "name": "_value",
                                "type": "uint256",
                                "value": "11,554,890,520,919,946,622,728"
                            }
                        ],
                        "signature": "Transfer(address,address,uint256)"
                    },
                    "id": 16,
                    "logData": "0x00000000000000000000000000000000000000000000027264519c57c9c0f708",
                    "logDecoded": true,
                    "operation": "EVENT",
                    "revert": false,
                    "status": true,
                    "topics": [
                        "0xddf252ad1be2c89b69c2b068fc378daa952ba7f163c4a11628f55a4df523b3ef",
                        "0x000000000000000000000000a23e1f551cfeac9ff762d351010136fafc3008e9",
                        "0x000000000000000000000000acbf3c973eeec20c573ec930ce31198afb4ad0d5"
                    ]
                },
                "nodeType": 1
            },
            "17": {
                "invocation": {
                    "address": "0x557b933a7c2c45672b610f8954a3deb39a51a8ca",
                    "callData": "0x000000000000000000000000a23e1f551cfeac9ff762d351010136fafc3008e9",
                    "decodedMethod": {
                        "callParams": [
                            {
                                "name": "account",
                                "type": "address",
                                "value": "0xa23e1f551cfeac9ff762d351010136fafc3008e9"
                            }
                        ],
                        "constructorArguments": "",
                        "name": "balanceOf",
                        "returnParams": [
                            {
                                "decimalAvailable": true,
                                "name": "",
                                "type": "uint256",
                                "value": "2,077,755,425,758,515,703,961,617"
                            }
                        ],
                        "signature": "balanceOf(address)"
                    },
                    "errorInfo": "",
                    "fromAddress": "0xa23e1f551cfeac9ff762d351010136fafc3008e9",
                    "gasUsed": 487,
                    "id": 17,
                    "methodDecoded": true,
                    "operation": "STATICCALL",
                    "output": "0x00000000000000000000000000000000000000000001b7fb58ea4b5324add811",
                    "revert": false,
                    "revertMessage": "",
                    "selector": "0x70a08231",
                    "status": true,
                    "value": "0"
                },
                "nodeType": 0
            },
            "18": {
                "invocation": {
                    "address": "0xd9016a907dc0ecfa3ca425ab20b6b785b42f2373",
                    "callData": "0x000000000000000000000000a23e1f551cfeac9ff762d351010136fafc3008e9",
                    "decodedMethod": {
                        "callParams": [
                            {
                                "name": "account",
                                "type": "address",
                                "value": "0xa23e1f551cfeac9ff762d351010136fafc3008e9"
                            }
                        ],
                        "constructorArguments": "",
                        "name": "balanceOf",
                        "returnParams": [
                            {
                                "decimalAvailable": true,
                                "name": "",
                                "type": "uint256",
                                "value": "744,565,573,877,452,080,502,110"
                            }
                        ],
                        "signature": "balanceOf(address)"
                    },
                    "errorInfo": "",
                    "fromAddress": "0xa23e1f551cfeac9ff762d351010136fafc3008e9",
                    "gasUsed": 487,
                    "id": 18,
                    "methodDecoded": true,
                    "operation": "STATICCALL",
                    "output": "0x000000000000000000000000000000000000000000009daafb0b140ffc91555e",
                    "revert": false,
                    "revertMessage": "",
                    "selector": "0x70a08231",
                    "status": true,
                    "value": "0"
                },
                "nodeType": 0
            },
            "19": {
                "event": {
                    "contract": "0xa23e1f551cfeac9ff762d351010136fafc3008e9",
                    "decodedLog": {
                        "name": "Sync",
                        "params": [
                            {
                                "name": "reserve0",
                                "type": "uint112",
                                "value": "2,077,755,425,758,515,703,961,617"
                            },
                            {
                                "name": "reserve1",
                                "type": "uint112",
                                "value": "744,565,573,877,452,080,502,110"
                            }
                        ],
                        "signature": "Sync(uint112,uint112)"
                    },
                    "id": 19,
                    "logData": "0x00000000000000000000000000000000000000000001b7fb58ea4b5324add811000000000000000000000000000000000000000000009daafb0b140ffc91555e",
                    "logDecoded": true,
                    "operation": "EVENT",
                    "revert": false,
                    "status": true,
                    "topics": [
                        "0x1c411e9a96e071241c2f21f7726b17ae89e3cab4c78be50e062b03a9fffbbad1"
                    ]
                },
                "nodeType": 1
            },
            "2": {
                "invocation": {
                    "address": "0xa23e1f551cfeac9ff762d351010136fafc3008e9",
                    "callData": "0x",
                    "decodedMethod": {
                        "callParams": [],
                        "constructorArguments": "",
                        "name": "getReserves",
                        "returnParams": [
                            {
                                "name": "_reserve0",
                                "type": "uint112",
                                "value": "2,089,310,316,279,435,650,584,345"
                            },
                            {
                                "name": "_reserve1",
                                "type": "uint112",
                                "value": "740,435,446,433,634,786,384,639"
                            },
                            {
                                "name": "_blockTimestampLast",
                                "type": "uint32",
                                "value": "1,625,053,192"
                            }
                        ],
                        "signature": "getReserves()"
                    },
                    "errorInfo": "",
                    "fromAddress": "0x3c653f8fed7b0f51c1cadf46e7c798b476ca8d3a",
                    "gasUsed": 2504,
                    "id": 2,
                    "methodDecoded": true,
                    "operation": "STATICCALL",
                    "output": "0x00000000000000000000000000000000000000000001ba6dbd3be7aaee6ecf19000000000000000000000000000000000000000000009ccb1602d0437ea69aff0000000000000000000000000000000000000000000000000000000060dc5808",
                    "revert": false,
                    "revertMessage": "",
                    "selector": "0x0902f1ac",
                    "status": true,
                    "value": "0"
                },
                "nodeType": 0
            },
            "20": {
                "event": {
                    "contract": "0xa23e1f551cfeac9ff762d351010136fafc3008e9",
                    "decodedLog": {
                        "name": "Swap",
                        "params": [
                            {
                                "name": "sender",
                                "type": "address",
                                "value": "0x3c653f8fed7b0f51c1cadf46e7c798b476ca8d3a"
                            },
                            {
                                "name": "to",
                                "type": "address",
                                "value": "0xacbf3c973eeec20c573ec930ce31198afb4ad0d5"
                            },
                            {
                                "name": "amount0In",
                                "type": "uint256",
                                "value": "0"
                            },
                            {
                                "name": "amount1In",
                                "type": "uint256",
                                "value": "4,130,127,443,817,294,117,471"
                            },
                            {
                                "name": "amount0Out",
                                "type": "uint256",
                                "value": "11,554,890,520,919,946,622,728"
                            },
                            {
                                "name": "amount1Out",
                                "type": "uint256",
                                "value": "0"
                            }
                        ],
                        "signature": "Swap(address,uint256,uint256,uint256,uint256,address)"
                    },
                    "id": 20,
                    "logData": "0x00000000000000000000000000000000000000000000000000000000000000000000000000000000000000000000000000000000000000dfe50843cc7deaba5f00000000000000000000000000000000000000000000027264519c57c9c0f7080000000000000000000000000000000000000000000000000000000000000000",
                    "logDecoded": true,
                    "operation": "EVENT",
                    "revert": false,
                    "status": true,
                    "topics": [
                        "0xd78ad95fa46c994b6551d0da85fc275fe613ce37657fb8d5e3d130840159d822",
                        "0x0000000000000000000000003c653f8fed7b0f51c1cadf46e7c798b476ca8d3a",
                        "0x000000000000000000000000acbf3c973eeec20c573ec930ce31198afb4ad0d5"
                    ]
                },
                "nodeType": 1
            },
            "21": {
                "invocation": {
                    "address": "0xacbf3c973eeec20c573ec930ce31198afb4ad0d5",
                    "callData": "0x0000000000000000000000000000000000000000000000000000000000000000000000000000000000000000000000000000000000000000000000002f670db3000000000000000000000000397ff1542f962076d0bfe58ea045ffa2d347aca000000000000000000000000000000000000000000000000000000000000000800000000000000000000000000000000000000000000000000000000000000000",
                    "decodedMethod": {
                        "callParams": [
                            {
                                "name": "amount0Out",
                                "type": "uint256",
                                "value": "0"
                            },
                            {
                                "name": "amount1Out",
                                "type": "uint256",
                                "value": "795,282,867"
                            },
                            {
                                "name": "to",
                                "type": "address",
                                "value": "0x397ff1542f962076d0bfe58ea045ffa2d347aca0"
                            },
                            {
                                "name": "data",
                                "type": "bytes",
                                "value": "0x"
                            }
                        ],
                        "constructorArguments": "",
                        "name": "swap",
                        "returnParams": [],
                        "signature": "swap(uint256,uint256,address,bytes)"
                    },
                    "errorInfo": "",
                    "fromAddress": "0x3c653f8fed7b0f51c1cadf46e7c798b476ca8d3a",
                    "gasUsed": 62542,
                    "id": 21,
                    "methodDecoded": true,
                    "operation": "CALL",
                    "output": "",
                    "revert": false,
                    "revertMessage": "",
                    "selector": "0x022c0d9f",
                    "status": true,
                    "value": "0"
                },
                "nodeType": 0
            },
            "22": {
                "invocation": {
                    "address": "0xa0b86991c6218b36c1d19d4a2e9eb0ce3606eb48",
                    "callData": "0x000000000000000000000000397ff1542f962076d0bfe58ea045ffa2d347aca0000000000000000000000000000000000000000000000000000000002f670db3",
                    "decodedMethod": {
                        "callParams": [
                            {
                                "name": "to",
                                "type": "address",
                                "value": "0x397ff1542f962076d0bfe58ea045ffa2d347aca0"
                            },
                            {
                                "decimalAvailable": true,
                                "name": "value",
                                "type": "uint256",
                                "value": "795,282,867"
                            }
                        ],
                        "constructorArguments": "",
                        "name": "transfer",
                        "returnParams": [
                            {
                                "name": "",
                                "type": "bool",
                                "value": true
                            }
                        ],
                        "signature": "transfer(address,uint256)"
                    },
                    "errorInfo": "",
                    "fromAddress": "0xacbf3c973eeec20c573ec930ce31198afb4ad0d5",
                    "gasUsed": 26917,
                    "id": 22,
                    "methodDecoded": true,
                    "operation": "CALL",
                    "output": "0x0000000000000000000000000000000000000000000000000000000000000001",
                    "revert": false,
                    "revertMessage": "",
                    "selector": "0xa9059cbb",
                    "status": true,
                    "value": "0"
                },
                "nodeType": 0
            },
            "23": {
                "invocation": {
                    "address": "0xa2327a938febf5fec13bacfb16ae10ecbc4cbdcf",
                    "callData": "0x000000000000000000000000397ff1542f962076d0bfe58ea045ffa2d347aca0000000000000000000000000000000000000000000000000000000002f670db3",
                    "decodedMethod": {
                        "callParams": [
                            {
                                "name": "to",
                                "type": "address",
                                "value": "0x397ff1542f962076d0bfe58ea045ffa2d347aca0"
                            },
                            {
                                "decimalAvailable": true,
                                "name": "value",
                                "type": "uint256",
                                "value": "795,282,867"
                            }
                        ],
                        "constructorArguments": "",
                        "name": "transfer",
                        "returnParams": [
                            {
                                "name": "",
                                "type": "bool",
                                "value": true
                            }
                        ],
                        "signature": "transfer(address,uint256)"
                    },
                    "errorInfo": "",
                    "fromAddress": "0xa0b86991c6218b36c1d19d4a2e9eb0ce3606eb48",
                    "gasUsed": 19628,
                    "id": 23,
                    "methodDecoded": true,
                    "operation": "DELEGATECALL",
                    "output": "0x0000000000000000000000000000000000000000000000000000000000000001",
                    "revert": false,
                    "revertMessage": "",
                    "selector": "0xa9059cbb",
                    "status": true,
                    "value": "0"
                },
                "nodeType": 0
            },
            "24": {
                "event": {
                    "contract": "0xa0b86991c6218b36c1d19d4a2e9eb0ce3606eb48",
                    "decodedLog": {
                        "name": "Transfer",
                        "params": [
                            {
                                "name": "from",
                                "type": "address",
                                "value": "0xacbf3c973eeec20c573ec930ce31198afb4ad0d5"
                            },
                            {
                                "name": "to",
                                "type": "address",
                                "value": "0x397ff1542f962076d0bfe58ea045ffa2d347aca0"
                            },
                            {
                                "decimalAvailable": true,
                                "name": "value",
                                "type": "uint256",
                                "value": "795,282,867"
                            }
                        ],
                        "signature": "Transfer(address,address,uint256)"
                    },
                    "id": 24,
                    "logData": "0x000000000000000000000000000000000000000000000000000000002f670db3",
                    "logDecoded": true,
                    "operation": "EVENT",
                    "revert": false,
                    "status": true,
                    "topics": [
                        "0xddf252ad1be2c89b69c2b068fc378daa952ba7f163c4a11628f55a4df523b3ef",
                        "0x000000000000000000000000acbf3c973eeec20c573ec930ce31198afb4ad0d5",
                        "0x000000000000000000000000397ff1542f962076d0bfe58ea045ffa2d347aca0"
                    ]
                },
                "nodeType": 1
            },
            "25": {
                "invocation": {
                    "address": "0x557b933a7c2c45672b610f8954a3deb39a51a8ca",
                    "callData": "0x000000000000000000000000acbf3c973eeec20c573ec930ce31198afb4ad0d5",
                    "decodedMethod": {
                        "callParams": [
                            {
                                "name": "account",
                                "type": "address",
                                "value": "0xacbf3c973eeec20c573ec930ce31198afb4ad0d5"
                            }
                        ],
                        "constructorArguments": "",
                        "name": "balanceOf",
                        "returnParams": [
                            {
                                "decimalAvailable": true,
                                "name": "",
                                "type": "uint256",
                                "value": "1,038,633,833,387,324,424,975,575"
                            }
                        ],
                        "signature": "balanceOf(address)"
                    },
                    "errorInfo": "",
                    "fromAddress": "0xacbf3c973eeec20c573ec930ce31198afb4ad0d5",
                    "gasUsed": 487,
                    "id": 25,
                    "methodDecoded": true,
                    "operation": "STATICCALL",
                    "output": "0x00000000000000000000000000000000000000000000dbf073f323e0bbadf4d7",
                    "revert": false,
                    "revertMessage": "",
                    "selector": "0x70a08231",
                    "status": true,
                    "value": "0"
                },
                "nodeType": 0
            },
            "26": {
                "invocation": {
                    "address": "0xa0b86991c6218b36c1d19d4a2e9eb0ce3606eb48",
                    "callData": "0x000000000000000000000000acbf3c973eeec20c573ec930ce31198afb4ad0d5",
                    "decodedMethod": {
                        "callParams": [
                            {
                                "name": "account",
                                "type": "address",
                                "value": "0xacbf3c973eeec20c573ec930ce31198afb4ad0d5"
                            }
                        ],
                        "constructorArguments": "",
                        "name": "balanceOf",
                        "returnParams": [
                            {
                                "decimalAvailable": true,
                                "name": "",
                                "type": "uint256",
                                "value": "70,902,975,085"
                            }
                        ],
                        "signature": "balanceOf(address)"
                    },
                    "errorInfo": "",
                    "fromAddress": "0xacbf3c973eeec20c573ec930ce31198afb4ad0d5",
                    "gasUsed": 1315,
                    "id": 26,
                    "methodDecoded": true,
                    "operation": "STATICCALL",
                    "output": "0x0000000000000000000000000000000000000000000000000000001082258a6d",
                    "revert": false,
                    "revertMessage": "",
                    "selector": "0x70a08231",
                    "status": true,
                    "value": "0"
                },
                "nodeType": 0
            },
            "27": {
                "invocation": {
                    "address": "0xa2327a938febf5fec13bacfb16ae10ecbc4cbdcf",
                    "callData": "0x000000000000000000000000acbf3c973eeec20c573ec930ce31198afb4ad0d5",
                    "decodedMethod": {
                        "callParams": [
                            {
                                "name": "account",
                                "type": "address",
                                "value": "0xacbf3c973eeec20c573ec930ce31198afb4ad0d5"
                            }
                        ],
                        "constructorArguments": "",
                        "name": "balanceOf",
                        "returnParams": [
                            {
                                "decimalAvailable": true,
                                "name": "",
                                "type": "uint256",
                                "value": "70,902,975,085"
                            }
                        ],
                        "signature": "balanceOf(address)"
                    },
                    "errorInfo": "",
                    "fromAddress": "0xa0b86991c6218b36c1d19d4a2e9eb0ce3606eb48",
                    "gasUsed": 529,
                    "id": 27,
                    "methodDecoded": true,
                    "operation": "DELEGATECALL",
                    "output": "0x0000000000000000000000000000000000000000000000000000001082258a6d",
                    "revert": false,
                    "revertMessage": "",
                    "selector": "0x70a08231",
                    "status": true,
                    "value": "0"
                },
                "nodeType": 0
            },
            "28": {
                "event": {
                    "contract": "0xacbf3c973eeec20c573ec930ce31198afb4ad0d5",
                    "decodedLog": {
                        "name": "Sync",
                        "params": [
                            {
                                "name": "reserve0",
                                "type": "uint112",
                                "value": "1,038,633,833,387,324,424,975,575"
                            },
                            {
                                "name": "reserve1",
                                "type": "uint112",
                                "value": "70,902,975,085"
                            }
                        ],
                        "signature": "Sync(uint112,uint112)"
                    },
                    "id": 28,
                    "logData": "0x00000000000000000000000000000000000000000000dbf073f323e0bbadf4d70000000000000000000000000000000000000000000000000000001082258a6d",
                    "logDecoded": true,
                    "operation": "EVENT",
                    "revert": false,
                    "status": true,
                    "topics": [
                        "0x1c411e9a96e071241c2f21f7726b17ae89e3cab4c78be50e062b03a9fffbbad1"
                    ]
                },
                "nodeType": 1
            },
            "29": {
                "event": {
                    "contract": "0xacbf3c973eeec20c573ec930ce31198afb4ad0d5",
                    "decodedLog": {
                        "name": "Swap",
                        "params": [
                            {
                                "name": "sender",
                                "type": "address",
                                "value": "0x3c653f8fed7b0f51c1cadf46e7c798b476ca8d3a"
                            },
                            {
                                "name": "to",
                                "type": "address",
                                "value": "0x397ff1542f962076d0bfe58ea045ffa2d347aca0"
                            },
                            {
                                "name": "amount0In",
                                "type": "uint256",
                                "value": "11,554,890,520,919,946,622,728"
                            },
                            {
                                "name": "amount1In",
                                "type": "uint256",
                                "value": "0"
                            },
                            {
                                "name": "amount0Out",
                                "type": "uint256",
                                "value": "0"
                            },
                            {
                                "name": "amount1Out",
                                "type": "uint256",
                                "value": "795,282,867"
                            }
                        ],
                        "signature": "Swap(address,uint256,uint256,uint256,uint256,address)"
                    },
                    "id": 29,
                    "logData": "0x00000000000000000000000000000000000000000000027264519c57c9c0f70800000000000000000000000000000000000000000000000000000000000000000000000000000000000000000000000000000000000000000000000000000000000000000000000000000000000000000000000000000000000000002f670db3",
                    "logDecoded": true,
                    "operation": "EVENT",
                    "revert": false,
                    "status": true,
                    "topics": [
                        "0xd78ad95fa46c994b6551d0da85fc275fe613ce37657fb8d5e3d130840159d822",
                        "0x0000000000000000000000003c653f8fed7b0f51c1cadf46e7c798b476ca8d3a",
                        "0x000000000000000000000000397ff1542f962076d0bfe58ea045ffa2d347aca0"
                    ]
                },
                "nodeType": 1
            },
            "3": {
                "invocation": {
                    "address": "0xacbf3c973eeec20c573ec930ce31198afb4ad0d5",
                    "callData": "0x",
                    "decodedMethod": {
                        "callParams": [],
                        "constructorArguments": "",
                        "name": "getReserves",
                        "returnParams": [
                            {
                                "name": "_reserve0",
                                "type": "uint112",
                                "value": "1,027,078,942,866,404,478,352,847"
                            },
                            {
                                "name": "_reserve1",
                                "type": "uint112",
                                "value": "71,698,257,952"
                            },
                            {
                                "name": "_blockTimestampLast",
                                "type": "uint32",
                                "value": "1,625,099,958"
                            }
                        ],
                        "signature": "getReserves()"
                    },
                    "errorInfo": "",
                    "fromAddress": "0x3c653f8fed7b0f51c1cadf46e7c798b476ca8d3a",
                    "gasUsed": 2504,
                    "id": 3,
                    "methodDecoded": true,
                    "operation": "STATICCALL",
                    "output": "0x00000000000000000000000000000000000000000000d97e0fa18788f1ecfdcf00000000000000000000000000000000000000000000000000000010b18c98200000000000000000000000000000000000000000000000000000000060dd0eb6",
                    "revert": false,
                    "revertMessage": "",
                    "selector": "0x0902f1ac",
                    "status": true,
                    "value": "0"
                },
                "nodeType": 0
            },
            "30": {
                "invocation": {
                    "address": "0x397ff1542f962076d0bfe58ea045ffa2d347aca0",
                    "callData": "0x000000000000000000000000000000000000000000000000000000000000000000000000000000000000000000000000000000000000000004fdeb4f6aa9bcac0000000000000000000000003c653f8fed7b0f51c1cadf46e7c798b476ca8d3a00000000000000000000000000000000000000000000000000000000000000800000000000000000000000000000000000000000000000000000000000000000",
                    "decodedMethod": {
                        "callParams": [
                            {
                                "name": "amount0Out",
                                "type": "uint256",
                                "value": "0"
                            },
                            {
                                "name": "amount1Out",
                                "type": "uint256",
                                "value": "359,702,271,583,960,236"
                            },
                            {
                                "name": "to",
                                "type": "address",
                                "value": "0x3c653f8fed7b0f51c1cadf46e7c798b476ca8d3a"
                            },
                            {
                                "name": "data",
                                "type": "bytes",
                                "value": "0x"
                            }
                        ],
                        "constructorArguments": "",
                        "name": "swap",
                        "returnParams": [],
                        "signature": "swap(uint256,uint256,address,bytes)"
                    },
                    "errorInfo": "",
                    "fromAddress": "0x3c653f8fed7b0f51c1cadf46e7c798b476ca8d3a",
                    "gasUsed": 41607,
                    "id": 30,
                    "methodDecoded": true,
                    "operation": "CALL",
                    "output": "",
                    "revert": false,
                    "revertMessage": "",
                    "selector": "0x022c0d9f",
                    "status": true,
                    "value": "0"
                },
                "nodeType": 0
            },
            "31": {
                "invocation": {
                    "address": "0xc02aaa39b223fe8d0a0e5c4f27ead9083c756cc2",
                    "callData": "0x0000000000000000000000003c653f8fed7b0f51c1cadf46e7c798b476ca8d3a00000000000000000000000000000000000000000000000004fdeb4f6aa9bcac",
                    "decodedMethod": {
                        "callParams": [
                            {
                                "name": "dst",
                                "type": "address",
                                "value": "0x3c653f8fed7b0f51c1cadf46e7c798b476ca8d3a"
                            },
                            {
                                "decimalAvailable": true,
                                "name": "wad",
                                "type": "uint256",
                                "value": "359,702,271,583,960,236"
                            }
                        ],
                        "constructorArguments": "",
                        "name": "transfer",
                        "returnParams": [
                            {
                                "name": "",
                                "type": "bool",
                                "value": true
                            }
                        ],
                        "signature": "transfer(address,uint256)"
                    },
                    "errorInfo": "",
                    "fromAddress": "0x397ff1542f962076d0bfe58ea045ffa2d347aca0",
                    "gasUsed": 8062,
                    "id": 31,
                    "methodDecoded": true,
                    "operation": "CALL",
                    "output": "0x0000000000000000000000000000000000000000000000000000000000000001",
                    "revert": false,
                    "revertMessage": "",
                    "selector": "0xa9059cbb",
                    "status": true,
                    "value": "0"
                },
                "nodeType": 0
            },
            "32": {
                "event": {
                    "contract": "0xc02aaa39b223fe8d0a0e5c4f27ead9083c756cc2",
                    "decodedLog": {
                        "name": "Transfer",
                        "params": [
                            {
                                "name": "src",
                                "type": "address",
                                "value": "0x397ff1542f962076d0bfe58ea045ffa2d347aca0"
                            },
                            {
                                "name": "dst",
                                "type": "address",
                                "value": "0x3c653f8fed7b0f51c1cadf46e7c798b476ca8d3a"
                            },
                            {
                                "decimalAvailable": true,
                                "name": "wad",
                                "type": "uint256",
                                "value": "359,702,271,583,960,236"
                            }
                        ],
                        "signature": "Transfer(address,address,uint256)"
                    },
                    "id": 32,
                    "logData": "0x00000000000000000000000000000000000000000000000004fdeb4f6aa9bcac",
                    "logDecoded": true,
                    "operation": "EVENT",
                    "revert": false,
                    "status": true,
                    "topics": [
                        "0xddf252ad1be2c89b69c2b068fc378daa952ba7f163c4a11628f55a4df523b3ef",
                        "0x000000000000000000000000397ff1542f962076d0bfe58ea045ffa2d347aca0",
                        "0x0000000000000000000000003c653f8fed7b0f51c1cadf46e7c798b476ca8d3a"
                    ]
                },
                "nodeType": 1
            },
            "33": {
                "invocation": {
                    "address": "0xa0b86991c6218b36c1d19d4a2e9eb0ce3606eb48",
                    "callData": "0x000000000000000000000000397ff1542f962076d0bfe58ea045ffa2d347aca0",
                    "decodedMethod": {
                        "callParams": [
                            {
                                "name": "account",
                                "type": "address",
                                "value": "0x397ff1542f962076d0bfe58ea045ffa2d347aca0"
                            }
                        ],
                        "constructorArguments": "",
                        "name": "balanceOf",
                        "returnParams": [
                            {
                                "decimalAvailable": true,
                                "name": "",
                                "type": "uint256",
                                "value": "155,479,773,227,815"
                            }
                        ],
                        "signature": "balanceOf(address)"
                    },
                    "errorInfo": "",
                    "fromAddress": "0x397ff1542f962076d0bfe58ea045ffa2d347aca0",
                    "gasUsed": 1315,
                    "id": 33,
                    "methodDecoded": true,
                    "operation": "STATICCALL",
                    "output": "0x00000000000000000000000000000000000000000000000000008d6874a72b27",
                    "revert": false,
                    "revertMessage": "",
                    "selector": "0x70a08231",
                    "status": true,
                    "value": "0"
                },
                "nodeType": 0
            },
            "34": {
                "invocation": {
                    "address": "0xa2327a938febf5fec13bacfb16ae10ecbc4cbdcf",
                    "callData": "0x000000000000000000000000397ff1542f962076d0bfe58ea045ffa2d347aca0",
                    "decodedMethod": {
                        "callParams": [
                            {
                                "name": "account",
                                "type": "address",
                                "value": "0x397ff1542f962076d0bfe58ea045ffa2d347aca0"
                            }
                        ],
                        "constructorArguments": "",
                        "name": "balanceOf",
                        "returnParams": [
                            {
                                "decimalAvailable": true,
                                "name": "",
                                "type": "uint256",
                                "value": "155,479,773,227,815"
                            }
                        ],
                        "signature": "balanceOf(address)"
                    },
                    "errorInfo": "",
                    "fromAddress": "0xa0b86991c6218b36c1d19d4a2e9eb0ce3606eb48",
                    "gasUsed": 529,
                    "id": 34,
                    "methodDecoded": true,
                    "operation": "DELEGATECALL",
                    "output": "0x00000000000000000000000000000000000000000000000000008d6874a72b27",
                    "revert": false,
                    "revertMessage": "",
                    "selector": "0x70a08231",
                    "status": true,
                    "value": "0"
                },
                "nodeType": 0
            },
            "35": {
                "invocation": {
                    "address": "0xc02aaa39b223fe8d0a0e5c4f27ead9083c756cc2",
                    "callData": "0x000000000000000000000000397ff1542f962076d0bfe58ea045ffa2d347aca0",
                    "decodedMethod": {
                        "callParams": [
                            {
                                "name": "",
                                "type": "address",
                                "value": "0x397ff1542f962076d0bfe58ea045ffa2d347aca0"
                            }
                        ],
                        "constructorArguments": "",
                        "name": "balanceOf",
                        "returnParams": [
                            {
                                "decimalAvailable": true,
                                "name": "",
                                "type": "uint256",
                                "value": "70,533,928,432,818,512,448,563"
                            }
                        ],
                        "signature": "balanceOf(address)"
                    },
                    "errorInfo": "",
                    "fromAddress": "0x397ff1542f962076d0bfe58ea045ffa2d347aca0",
                    "gasUsed": 534,
                    "id": 35,
                    "methodDecoded": true,
                    "operation": "STATICCALL",
                    "output": "0x000000000000000000000000000000000000000000000eefa6e45ce11c33cc33",
                    "revert": false,
                    "revertMessage": "",
                    "selector": "0x70a08231",
                    "status": true,
                    "value": "0"
                },
                "nodeType": 0
            },
            "36": {
                "event": {
                    "contract": "0x397ff1542f962076d0bfe58ea045ffa2d347aca0",
                    "decodedLog": {
                        "name": "Sync",
                        "params": [
                            {
                                "name": "reserve0",
                                "type": "uint112",
                                "value": "155,479,773,227,815"
                            },
                            {
                                "name": "reserve1",
                                "type": "uint112",
                                "value": "70,533,928,432,818,512,448,563"
                            }
                        ],
                        "signature": "Sync(uint112,uint112)"
                    },
                    "id": 36,
                    "logData": "0x00000000000000000000000000000000000000000000000000008d6874a72b27000000000000000000000000000000000000000000000eefa6e45ce11c33cc33",
                    "logDecoded": true,
                    "operation": "EVENT",
                    "revert": false,
                    "status": true,
                    "topics": [
                        "0x1c411e9a96e071241c2f21f7726b17ae89e3cab4c78be50e062b03a9fffbbad1"
                    ]
                },
                "nodeType": 1
            },
            "37": {
                "event": {
                    "contract": "0x397ff1542f962076d0bfe58ea045ffa2d347aca0",
                    "decodedLog": {
                        "name": "Swap",
                        "params": [
                            {
                                "name": "sender",
                                "type": "address",
                                "value": "0x3c653f8fed7b0f51c1cadf46e7c798b476ca8d3a"
                            },
                            {
                                "name": "to",
                                "type": "address",
                                "value": "0x3c653f8fed7b0f51c1cadf46e7c798b476ca8d3a"
                            },
                            {
                                "name": "amount0In",
                                "type": "uint256",
                                "value": "795,282,867"
                            },
                            {
                                "name": "amount1In",
                                "type": "uint256",
                                "value": "0"
                            },
                            {
                                "name": "amount0Out",
                                "type": "uint256",
                                "value": "0"
                            },
                            {
                                "name": "amount1Out",
                                "type": "uint256",
                                "value": "359,702,271,583,960,236"
                            }
                        ],
                        "signature": "Swap(address,uint256,uint256,uint256,uint256,address)"
                    },
                    "id": 37,
                    "logData": "0x000000000000000000000000000000000000000000000000000000002f670db30000000000000000000000000000000000000000000000000000000000000000000000000000000000000000000000000000000000000000000000000000000000000000000000000000000000000000000000000000000004fdeb4f6aa9bcac",
                    "logDecoded": true,
                    "operation": "EVENT",
                    "revert": false,
                    "status": true,
                    "topics": [
                        "0xd78ad95fa46c994b6551d0da85fc275fe613ce37657fb8d5e3d130840159d822",
                        "0x0000000000000000000000003c653f8fed7b0f51c1cadf46e7c798b476ca8d3a",
                        "0x0000000000000000000000003c653f8fed7b0f51c1cadf46e7c798b476ca8d3a"
                    ]
                },
                "nodeType": 1
            },
            "38": {
                "invocation": {
                    "address": "0x8595dd9e0438640b5e1254f9df579ac12a86865f",
                    "callData": "0x",
                    "decodedMethod": null,
                    "errorInfo": "",
                    "fromAddress": "0x3c653f8fed7b0f51c1cadf46e7c798b476ca8d3a",
                    "gasUsed": 0,
                    "id": 38,
                    "methodDecoded": false,
                    "operation": "CALL",
                    "output": "",
                    "revert": false,
                    "revertMessage": "",
                    "selector": "fallback",
                    "status": true,
                    "value": "0.00514965443630712"
                },
                "nodeType": 0
            },
            "39": {
                "invocation": {
                    "address": "0x0000000000b3f879cb30fe243b4dfee438691c04",
                    "callData": "0x0000000000000000000000000000000000000000000000000000000000000006",
                    "decodedMethod": {
                        "callParams": [
                            {
                                "name": "value",
                                "type": "uint256",
                                "value": "6"
                            }
                        ],
                        "constructorArguments": "",
                        "name": "freeUpTo",
                        "returnParams": [
                            {
                                "name": "freed",
                                "type": "uint256",
                                "value": "6"
                            }
                        ],
                        "signature": "freeUpTo(uint256)"
                    },
                    "errorInfo": "",
                    "fromAddress": "0x3c653f8fed7b0f51c1cadf46e7c798b476ca8d3a",
                    "gasUsed": 62274,
                    "id": 39,
                    "methodDecoded": true,
                    "operation": "CALL",
                    "output": "0x0000000000000000000000000000000000000000000000000000000000000006",
                    "revert": false,
                    "revertMessage": "",
                    "selector": "0x6366b936",
                    "status": true,
                    "value": "0"
                },
                "nodeType": 0
            },
            "4": {
                "invocation": {
                    "address": "0x397ff1542f962076d0bfe58ea045ffa2d347aca0",
                    "callData": "0x",
                    "decodedMethod": {
                        "callParams": [],
                        "constructorArguments": "",
                        "name": "getReserves",
                        "returnParams": [
                            {
                                "name": "_reserve0",
                                "type": "uint112",
                                "value": "155,478,977,944,948"
                            },
                            {
                                "name": "_reserve1",
                                "type": "uint112",
                                "value": "70,534,288,135,090,096,408,799"
                            },
                            {
                                "name": "_blockTimestampLast",
                                "type": "uint32",
                                "value": "1,625,107,268"
                            }
                        ],
                        "signature": "getReserves()"
                    },
                    "errorInfo": "",
                    "fromAddress": "0x3c653f8fed7b0f51c1cadf46e7c798b476ca8d3a",
                    "gasUsed": 2517,
                    "id": 4,
                    "methodDecoded": true,
                    "operation": "STATICCALL",
                    "output": "0x00000000000000000000000000000000000000000000000000008d6845401d74000000000000000000000000000000000000000000000eefabe2483086dd88df0000000000000000000000000000000000000000000000000000000060dd2b44",
                    "revert": false,
                    "revertMessage": "",
                    "selector": "0x0902f1ac",
                    "status": true,
                    "value": "0"
                },
                "nodeType": 0
            },
            "40": {
                "invocation": {
                    "address": "0x795dc08faf6f6b16466622a00fabae76eb7ae077",
                    "callData": "0x",
                    "decodedMethod": null,
                    "errorInfo": "",
                    "fromAddress": "0x0000000000b3f879cb30fe243b4dfee438691c04",
                    "gasUsed": 5022,
                    "id": 40,
                    "methodDecoded": false,
                    "operation": "CALL",
                    "output": "",
                    "revert": false,
                    "revertMessage": "",
                    "selector": "fallback",
                    "status": true,
                    "value": "0"
                },
                "nodeType": 0
            },
            "41": {
                "invocation": {
                    "address": "0x0000000000b3f879cb30fe243b4dfee438691c04",
                    "callData": "",
                    "decodedMethod": null,
                    "errorInfo": "",
                    "fromAddress": "0x795dc08faf6f6b16466622a00fabae76eb7ae077",
                    "gasUsed": 0,
                    "id": 41,
                    "methodDecoded": false,
                    "operation": "SELFDESTRUCT",
                    "output": "",
                    "revert": false,
                    "revertMessage": "",
                    "selector": "",
                    "status": true,
                    "value": "0"
                },
                "nodeType": 0
            },
            "42": {
                "invocation": {
                    "address": "0xa6a4b87064aeda73a3537de610133870775e4ef3",
                    "callData": "0x",
                    "decodedMethod": null,
                    "errorInfo": "",
                    "fromAddress": "0x0000000000b3f879cb30fe243b4dfee438691c04",
                    "gasUsed": 5022,
                    "id": 42,
                    "methodDecoded": false,
                    "operation": "CALL",
                    "output": "",
                    "revert": false,
                    "revertMessage": "",
                    "selector": "fallback",
                    "status": true,
                    "value": "0"
                },
                "nodeType": 0
            },
            "43": {
                "invocation": {
                    "address": "0x0000000000b3f879cb30fe243b4dfee438691c04",
                    "callData": "",
                    "decodedMethod": null,
                    "errorInfo": "",
                    "fromAddress": "0xa6a4b87064aeda73a3537de610133870775e4ef3",
                    "gasUsed": 0,
                    "id": 43,
                    "methodDecoded": false,
                    "operation": "SELFDESTRUCT",
                    "output": "",
                    "revert": false,
                    "revertMessage": "",
                    "selector": "",
                    "status": true,
                    "value": "0"
                },
                "nodeType": 0
            },
            "44": {
                "invocation": {
                    "address": "0xca3a4233584d5fa306f8581db869afa05fd89b93",
                    "callData": "0x",
                    "decodedMethod": null,
                    "errorInfo": "",
                    "fromAddress": "0x0000000000b3f879cb30fe243b4dfee438691c04",
                    "gasUsed": 5022,
                    "id": 44,
                    "methodDecoded": false,
                    "operation": "CALL",
                    "output": "",
                    "revert": false,
                    "revertMessage": "",
                    "selector": "fallback",
                    "status": true,
                    "value": "0"
                },
                "nodeType": 0
            },
            "45": {
                "invocation": {
                    "address": "0x0000000000b3f879cb30fe243b4dfee438691c04",
                    "callData": "",
                    "decodedMethod": null,
                    "errorInfo": "",
                    "fromAddress": "0xca3a4233584d5fa306f8581db869afa05fd89b93",
                    "gasUsed": 0,
                    "id": 45,
                    "methodDecoded": false,
                    "operation": "SELFDESTRUCT",
                    "output": "",
                    "revert": false,
                    "revertMessage": "",
                    "selector": "",
                    "status": true,
                    "value": "0"
                },
                "nodeType": 0
            },
            "46": {
                "invocation": {
                    "address": "0xb44bfd6890f3858582a8cddd95dd508d080bb24a",
                    "callData": "0x",
                    "decodedMethod": null,
                    "errorInfo": "",
                    "fromAddress": "0x0000000000b3f879cb30fe243b4dfee438691c04",
                    "gasUsed": 5022,
                    "id": 46,
                    "methodDecoded": false,
                    "operation": "CALL",
                    "output": "",
                    "revert": false,
                    "revertMessage": "",
                    "selector": "fallback",
                    "status": true,
                    "value": "0"
                },
                "nodeType": 0
            },
            "47": {
                "invocation": {
                    "address": "0x0000000000b3f879cb30fe243b4dfee438691c04",
                    "callData": "",
                    "decodedMethod": null,
                    "errorInfo": "",
                    "fromAddress": "0xb44bfd6890f3858582a8cddd95dd508d080bb24a",
                    "gasUsed": 0,
                    "id": 47,
                    "methodDecoded": false,
                    "operation": "SELFDESTRUCT",
                    "output": "",
                    "revert": false,
                    "revertMessage": "",
                    "selector": "",
                    "status": true,
                    "value": "0"
                },
                "nodeType": 0
            },
            "48": {
                "invocation": {
                    "address": "0x8b8d55d01dbab6dc731f51f82b6601d0694e9889",
                    "callData": "0x",
                    "decodedMethod": null,
                    "errorInfo": "",
                    "fromAddress": "0x0000000000b3f879cb30fe243b4dfee438691c04",
                    "gasUsed": 5022,
                    "id": 48,
                    "methodDecoded": false,
                    "operation": "CALL",
                    "output": "",
                    "revert": false,
                    "revertMessage": "",
                    "selector": "fallback",
                    "status": true,
                    "value": "0"
                },
                "nodeType": 0
            },
            "49": {
                "invocation": {
                    "address": "0x0000000000b3f879cb30fe243b4dfee438691c04",
                    "callData": "",
                    "decodedMethod": null,
                    "errorInfo": "",
                    "fromAddress": "0x8b8d55d01dbab6dc731f51f82b6601d0694e9889",
                    "gasUsed": 0,
                    "id": 49,
                    "methodDecoded": false,
                    "operation": "SELFDESTRUCT",
                    "output": "",
                    "revert": false,
                    "revertMessage": "",
                    "selector": "",
                    "status": true,
                    "value": "0"
                },
                "nodeType": 0
            },
            "5": {
                "invocation": {
                    "address": "0xc02aaa39b223fe8d0a0e5c4f27ead9083c756cc2",
                    "callData": "0x0000000000000000000000004c083084c9d50334b343c44ec97d16011303cc7300000000000000000000000000000000000000000000000004e6ffc9b4dd2db8",
                    "decodedMethod": {
                        "callParams": [
                            {
                                "name": "dst",
                                "type": "address",
                                "value": "0x4c083084c9d50334b343c44ec97d16011303cc73"
                            },
                            {
                                "decimalAvailable": true,
                                "name": "wad",
                                "type": "uint256",
                                "value": "353,250,862,583,066,040"
                            }
                        ],
                        "constructorArguments": "",
                        "name": "transfer",
                        "returnParams": [
                            {
                                "name": "",
                                "type": "bool",
                                "value": true
                            }
                        ],
                        "signature": "transfer(address,uint256)"
                    },
                    "errorInfo": "",
                    "fromAddress": "0x3c653f8fed7b0f51c1cadf46e7c798b476ca8d3a",
                    "gasUsed": 12862,
                    "id": 5,
                    "methodDecoded": true,
                    "operation": "CALL",
                    "output": "0x0000000000000000000000000000000000000000000000000000000000000001",
                    "revert": false,
                    "revertMessage": "",
                    "selector": "0xa9059cbb",
                    "status": true,
                    "value": "0"
                },
                "nodeType": 0
            },
            "50": {
                "invocation": {
                    "address": "0xee9587a8a4f3133a615f2ca7d03c0416ebde4f64",
                    "callData": "0x",
                    "decodedMethod": null,
                    "errorInfo": "",
                    "fromAddress": "0x0000000000b3f879cb30fe243b4dfee438691c04",
                    "gasUsed": 5022,
                    "id": 50,
                    "methodDecoded": false,
                    "operation": "CALL",
                    "output": "",
                    "revert": false,
                    "revertMessage": "",
                    "selector": "fallback",
                    "status": true,
                    "value": "0"
                },
                "nodeType": 0
            },
            "51": {
                "invocation": {
                    "address": "0x0000000000b3f879cb30fe243b4dfee438691c04",
                    "callData": "",
                    "decodedMethod": null,
                    "errorInfo": "",
                    "fromAddress": "0xee9587a8a4f3133a615f2ca7d03c0416ebde4f64",
                    "gasUsed": 0,
                    "id": 51,
                    "methodDecoded": false,
                    "operation": "SELFDESTRUCT",
                    "output": "",
                    "revert": false,
                    "revertMessage": "",
                    "selector": "",
                    "status": true,
                    "value": "0"
                },
                "nodeType": 0
            },
            "6": {
                "event": {
                    "contract": "0xc02aaa39b223fe8d0a0e5c4f27ead9083c756cc2",
                    "decodedLog": {
                        "name": "Transfer",
                        "params": [
                            {
                                "name": "src",
                                "type": "address",
                                "value": "0x3c653f8fed7b0f51c1cadf46e7c798b476ca8d3a"
                            },
                            {
                                "name": "dst",
                                "type": "address",
                                "value": "0x4c083084c9d50334b343c44ec97d16011303cc73"
                            },
                            {
                                "decimalAvailable": true,
                                "name": "wad",
                                "type": "uint256",
                                "value": "353,250,862,583,066,040"
                            }
                        ],
                        "signature": "Transfer(address,address,uint256)"
                    },
                    "id": 6,
                    "logData": "0x00000000000000000000000000000000000000000000000004e6ffc9b4dd2db8",
                    "logDecoded": true,
                    "operation": "EVENT",
                    "revert": false,
                    "status": true,
                    "topics": [
                        "0xddf252ad1be2c89b69c2b068fc378daa952ba7f163c4a11628f55a4df523b3ef",
                        "0x0000000000000000000000003c653f8fed7b0f51c1cadf46e7c798b476ca8d3a",
                        "0x0000000000000000000000004c083084c9d50334b343c44ec97d16011303cc73"
                    ]
                },
                "nodeType": 1
            },
            "7": {
                "invocation": {
                    "address": "0x4c083084c9d50334b343c44ec97d16011303cc73",
                    "callData": "0x00000000000000000000000000000000000000000000000000000000000000000000000000000000000000000000000000000000000000dfe50843cc7deaba5f000000000000000000000000a23e1f551cfeac9ff762d351010136fafc3008e900000000000000000000000000000000000000000000000000000000000000800000000000000000000000000000000000000000000000000000000000000000",
                    "decodedMethod": {
                        "callParams": [
                            {
                                "name": "amount0Out",
                                "type": "uint256",
                                "value": "0"
                            },
                            {
                                "name": "amount1Out",
                                "type": "uint256",
                                "value": "4,130,127,443,817,294,117,471"
                            },
                            {
                                "name": "to",
                                "type": "address",
                                "value": "0xa23e1f551cfeac9ff762d351010136fafc3008e9"
                            },
                            {
                                "name": "data",
                                "type": "bytes",
                                "value": "0x"
                            }
                        ],
                        "constructorArguments": "",
                        "name": "swap",
                        "returnParams": [],
                        "signature": "swap(uint256,uint256,address,bytes)"
                    },
                    "errorInfo": "",
                    "fromAddress": "0x3c653f8fed7b0f51c1cadf46e7c798b476ca8d3a",
                    "gasUsed": 47777,
                    "id": 7,
                    "methodDecoded": true,
                    "operation": "CALL",
                    "output": "",
                    "revert": false,
                    "revertMessage": "",
                    "selector": "0x022c0d9f",
                    "status": true,
                    "value": "0"
                },
                "nodeType": 0
            },
            "8": {
                "invocation": {
                    "address": "0xd9016a907dc0ecfa3ca425ab20b6b785b42f2373",
                    "callData": "0x000000000000000000000000a23e1f551cfeac9ff762d351010136fafc3008e90000000000000000000000000000000000000000000000dfe50843cc7deaba5f",
                    "decodedMethod": {
                        "callParams": [
                            {
                                "name": "recipient",
                                "type": "address",
                                "value": "0xa23e1f551cfeac9ff762d351010136fafc3008e9"
                            },
                            {
                                "decimalAvailable": true,
                                "name": "amount",
                                "type": "uint256",
                                "value": "4,130,127,443,817,294,117,471"
                            }
                        ],
                        "constructorArguments": "",
                        "name": "transfer",
                        "returnParams": [
                            {
                                "name": "",
                                "type": "bool",
                                "value": true
                            }
                        ],
                        "signature": "transfer(address,uint256)"
                    },
                    "errorInfo": "",
                    "fromAddress": "0x4c083084c9d50334b343c44ec97d16011303cc73",
                    "gasUsed": 12933,
                    "id": 8,
                    "methodDecoded": true,
                    "operation": "CALL",
                    "output": "0x0000000000000000000000000000000000000000000000000000000000000001",
                    "revert": false,
                    "revertMessage": "",
                    "selector": "0xa9059cbb",
                    "status": true,
                    "value": "0"
                },
                "nodeType": 0
            },
            "9": {
                "event": {
                    "contract": "0xd9016a907dc0ecfa3ca425ab20b6b785b42f2373",
                    "decodedLog": {
                        "name": "Transfer",
                        "params": [
                            {
                                "name": "_from",
                                "type": "address",
                                "value": "0x4c083084c9d50334b343c44ec97d16011303cc73"
                            },
                            {
                                "name": "_to",
                                "type": "address",
                                "value": "0xa23e1f551cfeac9ff762d351010136fafc3008e9"
                            },
                            {
                                "decimalAvailable": true,
                                "name": "_value",
                                "type": "uint256",
                                "value": "4,130,127,443,817,294,117,471"
                            }
                        ],
                        "signature": "Transfer(address,address,uint256)"
                    },
                    "id": 9,
                    "logData": "0x0000000000000000000000000000000000000000000000dfe50843cc7deaba5f",
                    "logDecoded": true,
                    "operation": "EVENT",
                    "revert": false,
                    "status": true,
                    "topics": [
                        "0xddf252ad1be2c89b69c2b068fc378daa952ba7f163c4a11628f55a4df523b3ef",
                        "0x0000000000000000000000004c083084c9d50334b343c44ec97d16011303cc73",
                        "0x000000000000000000000000a23e1f551cfeac9ff762d351010136fafc3008e9"
                    ]
                },
                "nodeType": 1
            }
        },
        "gasFlame": [
            {
                "children": [
                    {
                        "children": [
                            {
                                "children": [],
                                "depth": 0,
                                "name": "Initial Gas",
                                "value": 25756
                            },
                            {
                                "children": [
                                    {
                                        "children": [],
                                        "depth": 1,
                                        "name": "getReserves",
                                        "value": 2504
                                    },
                                    {
                                        "children": [],
                                        "depth": 1,
                                        "name": "getReserves",
                                        "value": 2504
                                    },
                                    {
                                        "children": [],
                                        "depth": 1,
                                        "name": "getReserves",
                                        "value": 2504
                                    },
                                    {
                                        "children": [],
                                        "depth": 1,
                                        "name": "getReserves",
                                        "value": 2517
                                    },
                                    {
                                        "children": [],
                                        "depth": 1,
                                        "name": "transfer",
                                        "value": 12862
                                    },
                                    {
                                        "children": [
                                            {
                                                "children": [],
                                                "depth": 2,
                                                "name": "transfer",
                                                "value": 12933
                                            },
                                            {
                                                "children": [],
                                                "depth": 2,
                                                "name": "balanceOf",
                                                "value": 534
                                            },
                                            {
                                                "children": [],
                                                "depth": 2,
                                                "name": "balanceOf",
                                                "value": 487
                                            }
                                        ],
                                        "depth": 1,
                                        "name": "swap",
                                        "value": 47777
                                    },
                                    {
                                        "children": [
                                            {
                                                "children": [],
                                                "depth": 2,
                                                "name": "transfer",
                                                "value": 12933
                                            },
                                            {
                                                "children": [],
                                                "depth": 2,
                                                "name": "balanceOf",
                                                "value": 487
                                            },
                                            {
                                                "children": [],
                                                "depth": 2,
                                                "name": "balanceOf",
                                                "value": 487
                                            }
                                        ],
                                        "depth": 1,
                                        "name": "swap",
                                        "value": 47730
                                    },
                                    {
                                        "children": [
                                            {
                                                "children": [
                                                    {
                                                        "children": [],
                                                        "depth": 3,
                                                        "name": "transfer",
                                                        "value": 19628
                                                    }
                                                ],
                                                "depth": 2,
                                                "name": "transfer",
                                                "value": 26917
                                            },
                                            {
                                                "children": [],
                                                "depth": 2,
                                                "name": "balanceOf",
                                                "value": 487
                                            },
                                            {
                                                "children": [
                                                    {
                                                        "children": [],
                                                        "depth": 3,
                                                        "name": "balanceOf",
                                                        "value": 529
                                                    }
                                                ],
                                                "depth": 2,
                                                "name": "balanceOf",
                                                "value": 1315
                                            }
                                        ],
                                        "depth": 1,
                                        "name": "swap",
                                        "value": 62542
                                    },
                                    {
                                        "children": [
                                            {
                                                "children": [],
                                                "depth": 2,
                                                "name": "transfer",
                                                "value": 8062
                                            },
                                            {
                                                "children": [
                                                    {
                                                        "children": [],
                                                        "depth": 3,
                                                        "name": "balanceOf",
                                                        "value": 529
                                                    }
                                                ],
                                                "depth": 2,
                                                "name": "balanceOf",
                                                "value": 1315
                                            },
                                            {
                                                "children": [],
                                                "depth": 2,
                                                "name": "balanceOf",
                                                "value": 534
                                            }
                                        ],
                                        "depth": 1,
                                        "name": "swap",
                                        "value": 41607
                                    },
                                    {
                                        "children": [],
                                        "depth": 1,
                                        "name": "fallback",
                                        "value": 0
                                    },
                                    {
                                        "children": [
                                            {
                                                "children": [
                                                    {
                                                        "children": [],
                                                        "depth": 3,
                                                        "name": "",
                                                        "value": 0
                                                    }
                                                ],
                                                "depth": 2,
                                                "name": "fallback",
                                                "value": 5022
                                            },
                                            {
                                                "children": [
                                                    {
                                                        "children": [],
                                                        "depth": 3,
                                                        "name": "",
                                                        "value": 0
                                                    }
                                                ],
                                                "depth": 2,
                                                "name": "fallback",
                                                "value": 5022
                                            },
                                            {
                                                "children": [
                                                    {
                                                        "children": [],
                                                        "depth": 3,
                                                        "name": "",
                                                        "value": 0
                                                    }
                                                ],
                                                "depth": 2,
                                                "name": "fallback",
                                                "value": 5022
                                            },
                                            {
                                                "children": [
                                                    {
                                                        "children": [],
                                                        "depth": 3,
                                                        "name": "",
                                                        "value": 0
                                                    }
                                                ],
                                                "depth": 2,
                                                "name": "fallback",
                                                "value": 5022
                                            },
                                            {
                                                "children": [
                                                    {
                                                        "children": [],
                                                        "depth": 3,
                                                        "name": "",
                                                        "value": 0
                                                    }
                                                ],
                                                "depth": 2,
                                                "name": "fallback",
                                                "value": 5022
                                            },
                                            {
                                                "children": [
                                                    {
                                                        "children": [],
                                                        "depth": 3,
                                                        "name": "",
                                                        "value": 0
                                                    }
                                                ],
                                                "depth": 2,
                                                "name": "fallback",
                                                "value": 5022
                                            }
                                        ],
                                        "depth": 1,
                                        "name": "freeUpTo",
                                        "value": 62274
                                    }
                                ],
                                "depth": 0,
                                "name": "Executed Gas",
                                "value": 324482
                            }
                        ],
                        "depth": -1,
                        "name": "Actual Gas Used",
                        "value": 195038
                    },
                    {
                        "children": [],
                        "depth": -1,
                        "name": "Refunded Gas",
                        "value": 155200
                    }
                ],
                "depth": -2,
                "name": "Total Gas",
                "value": 350238
            }
        ],
        "isConfirmed": true,
        "mainTrace": [
            {
                "children": [
                    {
                        "children": [
                            {
                                "children": [],
                                "depth": 1,
                                "id": 1,
                                "order": 1
                            },
                            {
                                "children": [],
                                "depth": 1,
                                "id": 2,
                                "order": 2
                            },
                            {
                                "children": [],
                                "depth": 1,
                                "id": 3,
                                "order": 3
                            },
                            {
                                "children": [],
                                "depth": 1,
                                "id": 4,
                                "order": 4
                            },
                            {
                                "children": [
                                    {
                                        "children": [],
                                        "depth": 2,
                                        "id": 6,
                                        "order": 6
                                    }
                                ],
                                "depth": 1,
                                "id": 5,
                                "order": 5
                            },
                            {
                                "children": [
                                    {
                                        "children": [
                                            {
                                                "children": [],
                                                "depth": 3,
                                                "id": 9,
                                                "order": 9
                                            }
                                        ],
                                        "depth": 2,
                                        "id": 8,
                                        "order": 8
                                    },
                                    {
                                        "children": [],
                                        "depth": 2,
                                        "id": 10,
                                        "order": 10
                                    },
                                    {
                                        "children": [],
                                        "depth": 2,
                                        "id": 11,
                                        "order": 11
                                    },
                                    {
                                        "children": [],
                                        "depth": 2,
                                        "id": 12,
                                        "order": 12
                                    },
                                    {
                                        "children": [],
                                        "depth": 2,
                                        "id": 13,
                                        "order": 13
                                    }
                                ],
                                "depth": 1,
                                "id": 7,
                                "order": 7
                            },
                            {
                                "children": [
                                    {
                                        "children": [
                                            {
                                                "children": [],
                                                "depth": 3,
                                                "id": 16,
                                                "order": 16
                                            }
                                        ],
                                        "depth": 2,
                                        "id": 15,
                                        "order": 15
                                    },
                                    {
                                        "children": [],
                                        "depth": 2,
                                        "id": 17,
                                        "order": 17
                                    },
                                    {
                                        "children": [],
                                        "depth": 2,
                                        "id": 18,
                                        "order": 18
                                    },
                                    {
                                        "children": [],
                                        "depth": 2,
                                        "id": 19,
                                        "order": 19
                                    },
                                    {
                                        "children": [],
                                        "depth": 2,
                                        "id": 20,
                                        "order": 20
                                    }
                                ],
                                "depth": 1,
                                "id": 14,
                                "order": 14
                            },
                            {
                                "children": [
                                    {
                                        "children": [
                                            {
                                                "children": [
                                                    {
                                                        "children": [],
                                                        "depth": 4,
                                                        "id": 24,
                                                        "order": 24
                                                    }
                                                ],
                                                "depth": 3,
                                                "id": 23,
                                                "order": 23
                                            }
                                        ],
                                        "depth": 2,
                                        "id": 22,
                                        "order": 22
                                    },
                                    {
                                        "children": [],
                                        "depth": 2,
                                        "id": 25,
                                        "order": 25
                                    },
                                    {
                                        "children": [
                                            {
                                                "children": [],
                                                "depth": 3,
                                                "id": 27,
                                                "order": 27
                                            }
                                        ],
                                        "depth": 2,
                                        "id": 26,
                                        "order": 26
                                    },
                                    {
                                        "children": [],
                                        "depth": 2,
                                        "id": 28,
                                        "order": 28
                                    },
                                    {
                                        "children": [],
                                        "depth": 2,
                                        "id": 29,
                                        "order": 29
                                    }
                                ],
                                "depth": 1,
                                "id": 21,
                                "order": 21
                            },
                            {
                                "children": [
                                    {
                                        "children": [
                                            {
                                                "children": [],
                                                "depth": 3,
                                                "id": 32,
                                                "order": 32
                                            }
                                        ],
                                        "depth": 2,
                                        "id": 31,
                                        "order": 31
                                    },
                                    {
                                        "children": [
                                            {
                                                "children": [],
                                                "depth": 3,
                                                "id": 34,
                                                "order": 34
                                            }
                                        ],
                                        "depth": 2,
                                        "id": 33,
                                        "order": 33
                                    },
                                    {
                                        "children": [],
                                        "depth": 2,
                                        "id": 35,
                                        "order": 35
                                    },
                                    {
                                        "children": [],
                                        "depth": 2,
                                        "id": 36,
                                        "order": 36
                                    },
                                    {
                                        "children": [],
                                        "depth": 2,
                                        "id": 37,
                                        "order": 37
                                    }
                                ],
                                "depth": 1,
                                "id": 30,
                                "order": 30
                            },
                            {
                                "children": [],
                                "depth": 1,
                                "id": 38,
                                "order": 38
                            },
                            {
                                "children": [
                                    {
                                        "children": [
                                            {
                                                "children": [],
                                                "depth": 3,
                                                "id": 41,
                                                "order": 41
                                            }
                                        ],
                                        "depth": 2,
                                        "id": 40,
                                        "order": 40
                                    },
                                    {
                                        "children": [
                                            {
                                                "children": [],
                                                "depth": 3,
                                                "id": 43,
                                                "order": 43
                                            }
                                        ],
                                        "depth": 2,
                                        "id": 42,
                                        "order": 42
                                    },
                                    {
                                        "children": [
                                            {
                                                "children": [],
                                                "depth": 3,
                                                "id": 45,
                                                "order": 45
                                            }
                                        ],
                                        "depth": 2,
                                        "id": 44,
                                        "order": 44
                                    },
                                    {
                                        "children": [
                                            {
                                                "children": [],
                                                "depth": 3,
                                                "id": 47,
                                                "order": 47
                                            }
                                        ],
                                        "depth": 2,
                                        "id": 46,
                                        "order": 46
                                    },
                                    {
                                        "children": [
                                            {
                                                "children": [],
                                                "depth": 3,
                                                "id": 49,
                                                "order": 49
                                            }
                                        ],
                                        "depth": 2,
                                        "id": 48,
                                        "order": 48
                                    },
                                    {
                                        "children": [
                                            {
                                                "children": [],
                                                "depth": 3,
                                                "id": 51,
                                                "order": 51
                                            }
                                        ],
                                        "depth": 2,
                                        "id": 50,
                                        "order": 50
                                    }
                                ],
                                "depth": 1,
                                "id": 39,
                                "order": 39
                            }
                        ],
                        "depth": 0,
                        "id": 0,
                        "order": 0
                    }
                ],
                "depth": -1,
                "id": -1,
                "order": -1
            }
        ],
        "mainTraceNodeCount": 52,
        "parentIdMap": {
            "0": -1,
            "1": 0,
            "10": 7,
            "11": 7,
            "12": 7,
            "13": 7,
            "14": 0,
            "15": 14,
            "16": 15,
            "17": 14,
            "18": 14,
            "19": 14,
            "2": 0,
            "20": 14,
            "21": 0,
            "22": 21,
            "23": 22,
            "24": 23,
            "25": 21,
            "26": 21,
            "27": 26,
            "28": 21,
            "29": 21,
            "3": 0,
            "30": 0,
            "31": 30,
            "32": 31,
            "33": 30,
            "34": 33,
            "35": 30,
            "36": 30,
            "37": 30,
            "38": 0,
            "39": 0,
            "4": 0,
            "40": 39,
            "41": 40,
            "42": 39,
            "43": 42,
            "44": 39,
            "45": 44,
            "46": 39,
            "47": 46,
            "48": 39,
            "49": 48,
            "5": 0,
            "50": 39,
            "51": 50,
            "6": 5,
            "7": 0,
            "8": 7,
            "9": 8
        },
        "tidyTrace": [
            {
                "children": [
                    {
                        "children": [
                            {
                                "children": [
                                    {
                                        "children": [],
                                        "depth": 2,
                                        "id": 6,
                                        "order": 6
                                    }
                                ],
                                "depth": 1,
                                "id": 5,
                                "order": 5
                            },
                            {
                                "children": [
                                    {
                                        "children": [
                                            {
                                                "children": [],
                                                "depth": 3,
                                                "id": 9,
                                                "order": 9
                                            }
                                        ],
                                        "depth": 2,
                                        "id": 8,
                                        "order": 8
                                    },
                                    {
                                        "children": [],
                                        "depth": 2,
                                        "id": 12,
                                        "order": 12
                                    },
                                    {
                                        "children": [],
                                        "depth": 2,
                                        "id": 13,
                                        "order": 13
                                    }
                                ],
                                "depth": 1,
                                "id": 7,
                                "order": 7
                            },
                            {
                                "children": [
                                    {
                                        "children": [
                                            {
                                                "children": [],
                                                "depth": 3,
                                                "id": 16,
                                                "order": 16
                                            }
                                        ],
                                        "depth": 2,
                                        "id": 15,
                                        "order": 15
                                    },
                                    {
                                        "children": [],
                                        "depth": 2,
                                        "id": 19,
                                        "order": 19
                                    },
                                    {
                                        "children": [],
                                        "depth": 2,
                                        "id": 20,
                                        "order": 20
                                    }
                                ],
                                "depth": 1,
                                "id": 14,
                                "order": 14
                            },
                            {
                                "children": [
                                    {
                                        "children": [
                                            {
                                                "children": [
                                                    {
                                                        "children": [],
                                                        "depth": 4,
                                                        "id": 24,
                                                        "order": 24
                                                    }
                                                ],
                                                "depth": 3,
                                                "id": 23,
                                                "order": 23
                                            }
                                        ],
                                        "depth": 2,
                                        "id": 22,
                                        "order": 22
                                    },
                                    {
                                        "children": [],
                                        "depth": 2,
                                        "id": 28,
                                        "order": 28
                                    },
                                    {
                                        "children": [],
                                        "depth": 2,
                                        "id": 29,
                                        "order": 29
                                    }
                                ],
                                "depth": 1,
                                "id": 21,
                                "order": 21
                            },
                            {
                                "children": [
                                    {
                                        "children": [
                                            {
                                                "children": [],
                                                "depth": 3,
                                                "id": 32,
                                                "order": 32
                                            }
                                        ],
                                        "depth": 2,
                                        "id": 31,
                                        "order": 31
                                    },
                                    {
                                        "children": [],
                                        "depth": 2,
                                        "id": 36,
                                        "order": 36
                                    },
                                    {
                                        "children": [],
                                        "depth": 2,
                                        "id": 37,
                                        "order": 37
                                    }
                                ],
                                "depth": 1,
                                "id": 30,
                                "order": 30
                            },
                            {
                                "children": [],
                                "depth": 1,
                                "id": 38,
                                "order": 38
                            },
                            {
                                "children": [
                                    {
                                        "children": [
                                            {
                                                "children": [],
                                                "depth": 3,
                                                "id": 41,
                                                "order": 41
                                            }
                                        ],
                                        "depth": 2,
                                        "id": 40,
                                        "order": 40
                                    },
                                    {
                                        "children": [
                                            {
                                                "children": [],
                                                "depth": 3,
                                                "id": 43,
                                                "order": 43
                                            }
                                        ],
                                        "depth": 2,
                                        "id": 42,
                                        "order": 42
                                    },
                                    {
                                        "children": [
                                            {
                                                "children": [],
                                                "depth": 3,
                                                "id": 45,
                                                "order": 45
                                            }
                                        ],
                                        "depth": 2,
                                        "id": 44,
                                        "order": 44
                                    },
                                    {
                                        "children": [
                                            {
                                                "children": [],
                                                "depth": 3,
                                                "id": 47,
                                                "order": 47
                                            }
                                        ],
                                        "depth": 2,
                                        "id": 46,
                                        "order": 46
                                    },
                                    {
                                        "children": [
                                            {
                                                "children": [],
                                                "depth": 3,
                                                "id": 49,
                                                "order": 49
                                            }
                                        ],
                                        "depth": 2,
                                        "id": 48,
                                        "order": 48
                                    },
                                    {
                                        "children": [
                                            {
                                                "children": [],
                                                "depth": 3,
                                                "id": 51,
                                                "order": 51
                                            }
                                        ],
                                        "depth": 2,
                                        "id": 50,
                                        "order": 50
                                    }
                                ],
                                "depth": 1,
                                "id": 39,
                                "order": 39
                            }
                        ],
                        "depth": 0,
                        "id": 0,
                        "order": 0
                    }
                ],
                "depth": -1,
                "id": -1,
                "order": -1
            }
        ],
        "tidyTraceNodeCount": 38
    },
    "state_change": {
        "stateChanges": [
            {
                "address": "0x0000000000b3f879cb30fe243b4dfee438691c04",
                "erc": "ERC-20",
                "slots": [
                    {
                        "current": "0x00000000000000000000000000000000000000000000000000000000005c3ea0",
                        "key": "0x0000000000000000000000000000000000000000000000000000000000000003",
                        "prev": "0x00000000000000000000000000000000000000000000000000000000005c3e9a"
                    },
                    {
                        "current": "0x000000000000000000000000000000000000000000000000000000000000006b",
                        "key": "0xc24b8f5e7b401954d9463e3d8e67f78382e678bea55e669fdd2120f4bebf47be",
                        "prev": "0x0000000000000000000000000000000000000000000000000000000000000071"
                    }
                ],
                "storageVariables": [
                    {
                        "name": "s_tail",
                        "type": "uint256",
                        "value": {
                            "current": "6045344",
                            "prev": "6045338",
                            "typeTag": 1
                        }
                    },
                    {
                        "name": "s_balances",
                        "type": "mapping(address => uint256)",
                        "value": {
                            "pairs": [
                                {
                                    "key": "0x3c653f8fed7b0f51c1cadf46e7c798b476ca8d3a",
                                    "value": {
                                        "current": "107",
                                        "prev": "113",
                                        "typeTag": 1
                                    }
                                }
                            ],
                            "typeTag": 4
                        }
                    }
                ]
            },
            {
                "address": "0x397ff1542f962076d0bfe58ea045ffa2d347aca0",
                "erc": "ERC-20",
                "slots": [
                    {
                        "current": "0x00000000000000000000006c85c7fccba1ba5e6faa5472c86b23efc12adde5e5",
                        "key": "0x0000000000000000000000000000000000000000000000000000000000000009",
                        "prev": "0x00000000000000000000006c85c7c6b7164db8aa3e27169085ad0228c533a395"
                    },
                    {
                        "current": "0x000000000000000000000000000000000000096fdd1b8c03db2e42ffba24796b",
                        "key": "0x000000000000000000000000000000000000000000000000000000000000000a",
                        "prev": "0x000000000000000000000000000000000000096fdd089cb34e3c5730a46fbca5"
                    },
                    {
                        "current": "0x60dd2b46000000000eefa6e45ce11c33cc3300000000000000008d6874a72b27",
                        "key": "0x0000000000000000000000000000000000000000000000000000000000000008",
                        "prev": "0x60dd2b44000000000eefabe2483086dd88df00000000000000008d6845401d74"
                    }
                ],
                "storageVariables": [
                    {
                        "name": "price1CumulativeLast",
                        "type": "uint256",
                        "value": {
                            "current": "191404441961318463612165334268267",
                            "prev": "191404419070522225459188867251365",
                            "typeTag": 1
                        }
                    },
                    {
                        "name": "reserve0",
                        "type": "uint112",
                        "value": {
                            "current": "155479773227815",
                            "prev": "155478977944948",
                            "typeTag": 1
                        }
                    },
                    {
                        "name": "reserve1",
                        "type": "uint112",
                        "value": {
                            "current": "70533928432818512448563",
                            "prev": "70534288135090096408799",
                            "typeTag": 1
                        }
                    },
                    {
                        "name": "blockTimestampLast",
                        "type": "uint32",
                        "value": {
                            "current": "1625107270",
                            "prev": "1625107268",
                            "typeTag": 1
                        }
                    },
                    {
                        "name": "price0CumulativeLast",
                        "type": "uint256",
                        "value": {
                            "current": "158605932474139942095189400968631779869377722967525",
                            "prev": "158605927763085527620003475877909099713654202540949",
                            "typeTag": 1
                        }
                    }
                ]
            },
            {
                "address": "0x4c083084c9d50334b343c44ec97d16011303cc73",
                "erc": "ERC-20",
                "slots": [
                    {
                        "current": "0x000000000000000000000000000bc93a09992b7baeee0693a671589e85a1e1ac",
                        "key": "0x0000000000000000000000000000000000000000000000000000000000000009",
                        "prev": "0x000000000000000000000000000bc939add948f66576431cf10aeffc1be2bbcc"
                    },
                    {
                        "current": "0x0000000000000000000000000000000004550cbe97ea99a2f5f6b7c5ef73659a",
                        "key": "0x000000000000000000000000000000000000000000000000000000000000000a",
                        "prev": "0x0000000000000000000000000000000004550cb36ebf41028efdbd476da95018"
                    },
                    {
                        "current": "0x60dd2b46000000025b9197cbc12ff6cac5ad00000000000d31f170ffa4fa4fd7",
                        "key": "0x0000000000000000000000000000000000000000000000000000000000000008",
                        "prev": "0x60dd2b44000000025c717cd404fc74b5800c00000000000d2d0a7135f01d221f"
                    }
                ],
                "storageVariables": [
                    {
                        "name": "reserve0",
                        "type": "uint112",
                        "value": {
                            "current": "243406454778756747223",
                            "prev": "243053203916173681183",
                            "typeTag": 1
                        }
                    },
                    {
                        "name": "reserve1",
                        "type": "uint112",
                        "value": {
                            "current": "2850272705109615696332205",
                            "prev": "2854402832553432990449676",
                            "typeTag": 1
                        }
                    },
                    {
                        "name": "blockTimestampLast",
                        "type": "uint32",
                        "value": {
                            "current": "1625107270",
                            "prev": "1625107268",
                            "typeTag": 1
                        }
                    },
                    {
                        "name": "price0CumulativeLast",
                        "type": "uint256",
                        "value": {
                            "current": "262837515791757402798910052013619778217435564",
                            "prev": "262837393835686701738182925301599291188624332",
                            "typeTag": 1
                        }
                    },
                    {
                        "name": "price1CumulativeLast",
                        "type": "uint256",
                        "value": {
                            "current": "5758515705397096023290453614776247706",
                            "prev": "5758514821146020626314663083914121240",
                            "typeTag": 1
                        }
                    }
                ]
            },
            {
                "address": "0x557b933a7c2c45672b610f8954a3deb39a51a8ca",
                "erc": "ERC-20",
                "slots": [
                    {
                        "current": "0x00000000000000000000000000000000000000000000dbf073f323e0bbadf4d7",
                        "key": "0xcded872dae60cfd82e2a2a41545007886320e53d73f722b3ebafb4989c7325b1",
                        "prev": "0x00000000000000000000000000000000000000000000d97e0fa18788f1ecfdcf"
                    },
                    {
                        "current": "0x00000000000000000000000000000000000000000001b7fb58ea4b5324add811",
                        "key": "0xc0a248d597f22d189efa9b6b6d09dbc74f758d9a93efcab8ed50f4a6d56b33c7",
                        "prev": "0x00000000000000000000000000000000000000000001ba6dbd3be7aaee6ecf19"
                    }
                ],
                "storageVariables": [
                    {
                        "name": "_balances",
                        "type": "mapping(address => uint256)",
                        "value": {
                            "pairs": [
                                {
                                    "key": "0xa23e1f551cfeac9ff762d351010136fafc3008e9",
                                    "value": {
                                        "current": "2077755425758515703961617",
                                        "prev": "2089310316279435650584345",
                                        "typeTag": 1
                                    }
                                },
                                {
                                    "key": "0xacbf3c973eeec20c573ec930ce31198afb4ad0d5",
                                    "value": {
                                        "current": "1038633833387324424975575",
                                        "prev": "1027078942866404478352847",
                                        "typeTag": 1
                                    }
                                }
                            ],
                            "typeTag": 4
                        }
                    }
                ]
            },
            {
                "address": "0xa0b86991c6218b36c1d19d4a2e9eb0ce3606eb48",
                "erc": "ERC-20",
                "slots": [
                    {
                        "current": "0x0000000000000000000000000000000000000000000000000000001082258a6d",
                        "key": "0x6d9cf8738450afdc3ea37662a9f661d5fb2267e877cabc5f8f97b3a597b5ba25",
                        "prev": "0x00000000000000000000000000000000000000000000000000000010b18c9820"
                    },
                    {
                        "current": "0x00000000000000000000000000000000000000000000000000008d6874a72b27",
                        "key": "0xcd1718b39694c8b71b5b7030a9f4416a979d5bffcde56263723356d0f75e4776",
                        "prev": "0x00000000000000000000000000000000000000000000000000008d6845401d74"
                    }
                ],
                "storageVariables": [
                    {
                        "name": "balances",
                        "type": "mapping(address => uint256)",
                        "value": {
                            "pairs": [
                                {
                                    "key": "0x397ff1542f962076d0bfe58ea045ffa2d347aca0",
                                    "value": {
                                        "current": "155479773227815",
                                        "prev": "155478977944948",
                                        "typeTag": 1
                                    }
                                },
                                {
                                    "key": "0xacbf3c973eeec20c573ec930ce31198afb4ad0d5",
                                    "value": {
                                        "current": "70902975085",
                                        "prev": "71698257952",
                                        "typeTag": 1
                                    }
                                }
                            ],
                            "typeTag": 4
                        }
                    }
                ]
            },
            {
                "address": "0xa23e1f551cfeac9ff762d351010136fafc3008e9",
                "erc": "ERC-20",
                "slots": [
                    {
                        "current": "0x00000000000000000000000000000030836644cca49982079da14538e98a88ba",
                        "key": "0x0000000000000000000000000000000000000000000000000000000000000009",
                        "prev": "0x000000000000000000000000000000303889716ab44668fb5edb46aa7886b122"
                    },
                    {
                        "current": "0x0000000000000000000000000000011690b6e6924bbf69b4f53f831e81a5720e",
                        "key": "0x000000000000000000000000000000000000000000000000000000000000000a",
                        "prev": "0x000000000000000000000000000001143ca5487ef25d5d91725e04bbfcaf5262"
                    },
                    {
                        "current": "0x60dd2b46000000009daafb0b140ffc91555e00000001b7fb58ea4b5324add811",
                        "key": "0x0000000000000000000000000000000000000000000000000000000000000008",
                        "prev": "0x60dc5808000000009ccb1602d0437ea69aff00000001ba6dbd3be7aaee6ecf19"
                    }
                ],
                "storageVariables": [
                    {
                        "name": "reserve0",
                        "type": "uint112",
                        "value": {
                            "current": "2077755425758515703961617",
                            "prev": "2089310316279435650584345",
                            "typeTag": 1
                        }
                    },
                    {
                        "name": "reserve1",
                        "type": "uint112",
                        "value": {
                            "current": "744565573877452080502110",
                            "prev": "740435446433634786384639",
                            "typeTag": 1
                        }
                    },
                    {
                        "name": "blockTimestampLast",
                        "type": "uint32",
                        "value": {
                            "current": "1625107270",
                            "prev": "1625053192",
                            "typeTag": 1
                        }
                    },
                    {
                        "name": "price0CumulativeLast",
                        "type": "uint256",
                        "value": {
                            "current": "16508213489349780100543233736693615593658",
                            "prev": "16408704025004883667998777972967065694498",
                            "typeTag": 1
                        }
                    },
                    {
                        "name": "price1CumulativeLast",
                        "type": "uint256",
                        "value": {
                            "current": "94790856509987137413866186326106129658382",
                            "prev": "93998545149299017298882996161950912565858",
                            "typeTag": 1
                        }
                    }
                ]
            },
            {
                "address": "0xacbf3c973eeec20c573ec930ce31198afb4ad0d5",
                "erc": "ERC-20",
                "slots": [
                    {
                        "current": "0x00000000000000000000000000000000000000002c4c04460d9512560bd54f2a",
                        "key": "0x0000000000000000000000000000000000000000000000000000000000000009",
                        "prev": "0x00000000000000000000000000000000000000002c49d30b33ef7717d1304baa"
                    },
                    {
                        "current": "0x00000000000000000003c945b9508502c11f45951664aaaa8bcb070474d2b48b",
                        "key": "0x000000000000000000000000000000000000000000000000000000000000000a",
                        "prev": "0x00000000000000000003c7d198b542a29e20ccdae38586a15a62a94a46d7a39b"
                    },
                    {
                        "current": "0x60dd2b460000000000000000001082258a6d00000000dbf073f323e0bbadf4d7",
                        "key": "0x0000000000000000000000000000000000000000000000000000000000000008",
                        "prev": "0x60dd0eb600000000000000000010b18c982000000000d97e0fa18788f1ecfdcf"
                    }
                ],
                "storageVariables": [
                    {
                        "name": "price0CumulativeLast",
                        "type": "uint256",
                        "value": {
                            "current": "13709238976146620134215470890",
                            "prev": "13706588642955462019134802858",
                            "typeTag": 1
                        }
                    },
                    {
                        "name": "price1CumulativeLast",
                        "type": "uint256",
                        "value": {
                            "current": "362647843734768023392430405024370678255156386688316555",
                            "prev": "362103978975578630877982785407127264237043824966738843",
                            "typeTag": 1
                        }
                    },
                    {
                        "name": "reserve0",
                        "type": "uint112",
                        "value": {
                            "current": "1038633833387324424975575",
                            "prev": "1027078942866404478352847",
                            "typeTag": 1
                        }
                    },
                    {
                        "name": "reserve1",
                        "type": "uint112",
                        "value": {
                            "current": "70902975085",
                            "prev": "71698257952",
                            "typeTag": 1
                        }
                    },
                    {
                        "name": "blockTimestampLast",
                        "type": "uint32",
                        "value": {
                            "current": "1625107270",
                            "prev": "1625099958",
                            "typeTag": 1
                        }
                    }
                ]
            },
            {
                "address": "0xc02aaa39b223fe8d0a0e5c4f27ead9083c756cc2",
                "erc": "ERC-20",
                "slots": [
                    {
                        "current": "0x00000000000000000000000000000000000000000000000d31f170ffa4fa4fd7",
                        "key": "0xd1da59a8148f595abd29ddb956544681ea333a7c8494b8c5b43a1a391c8e68ce",
                        "prev": "0x00000000000000000000000000000000000000000000000d2d0a7135f01d221f"
                    },
                    {
                        "current": "0x000000000000000000000000000000000000000000000000269881c2fb82323c",
                        "key": "0x107c81c44e1e156d4d1ee6be13a2eed9c663903cc943caa699d9894e297264a1",
                        "prev": "0x0000000000000000000000000000000000000000000000002681963d45b5a348"
                    },
                    {
                        "current": "0x000000000000000000000000000000000000000000000eefa6e45ce11c33cc33",
                        "key": "0xb440be4deffff278a0a54bece4d5bba517a3236073012092c2f7526f6434fd2c",
                        "prev": "0x000000000000000000000000000000000000000000000eefabe2483086dd88df"
                    }
                ],
                "storageVariables": [
                    {
                        "name": "balanceOf",
                        "type": "mapping(address => uint256)",
                        "value": {
                            "pairs": [
                                {
                                    "key": "0x397ff1542f962076d0bfe58ea045ffa2d347aca0",
                                    "value": {
                                        "current": "70533928432818512448563",
                                        "prev": "70534288135090096408799",
                                        "typeTag": 1
                                    }
                                },
                                {
                                    "key": "0x3c653f8fed7b0f51c1cadf46e7c798b476ca8d3a",
                                    "value": {
                                        "current": "2781115444344533564",
                                        "prev": "2774664035343639368",
                                        "typeTag": 1
                                    }
                                },
                                {
                                    "key": "0x4c083084c9d50334b343c44ec97d16011303cc73",
                                    "value": {
                                        "current": "243406454778756747223",
                                        "prev": "243053203916173681183",
                                        "typeTag": 1
                                    }
                                }
                            ],
                            "typeTag": 4
                        }
                    }
                ]
            },
            {
                "address": "0xd9016a907dc0ecfa3ca425ab20b6b785b42f2373",
                "erc": "ERC-20",
                "slots": [
                    {
                        "current": "0x000000000000000000000000000000000000000000025b9197cbc12ff6cac5ad",
                        "key": "0xd27cad22c60780b315a1501be632ddabf0d65eeb660a1d076f1c03bb8a537155",
                        "prev": "0x000000000000000000000000000000000000000000025c717cd404fc74b5800c"
                    },
                    {
                        "current": "0x000000000000000000000000000000000000000000009daafb0b140ffc91555e",
                        "key": "0xc0a248d597f22d189efa9b6b6d09dbc74f758d9a93efcab8ed50f4a6d56b33c7",
                        "prev": "0x000000000000000000000000000000000000000000009ccb1602d0437ea69aff"
                    }
                ],
                "storageVariables": [
                    {
                        "name": "_balances",
                        "type": "mapping(address => uint256)",
                        "value": {
                            "pairs": [
                                {
                                    "key": "0x4c083084c9d50334b343c44ec97d16011303cc73",
                                    "value": {
                                        "current": "2850272705109615696332205",
                                        "prev": "2854402832553432990449676",
                                        "typeTag": 1
                                    }
                                },
                                {
                                    "key": "0xa23e1f551cfeac9ff762d351010136fafc3008e9",
                                    "value": {
                                        "current": "744565573877452080502110",
                                        "prev": "740435446433634786384639",
                                        "typeTag": 1
                                    }
                                }
                            ],
                            "typeTag": 4
                        }
                    }
                ]
            }
        ]
    }
}