{
    "balance_change": {
        "balanceChanges": [
            {
                "account": "0xf89d7b9c864f589bbf53a82105107622b35eaa40",
                "assets": [
                    {
                        "address": "0xca14007eff0db1f8135f4c25b34de49ab0d42766",
                        "amount": "7,745.182954",
                        "iconUrl": "",
                        "isERC1155": false,
                        "isERC721": false,
                        "sign": false,
                        "value": ""
                    }
                ]
            },
            {
                "account": "0xf476e3b9cd1d1707b4181a9308915028a05b53c9",
                "assets": [
                    {
                        "address": "0xca14007eff0db1f8135f4c25b34de49ab0d42766",
                        "amount": "7,745.182954",
                        "iconUrl": "",
                        "isERC1155": false,
                        "isERC721": false,
                        "sign": true,
                        "value": ""
                    }
                ]
            }
        ]
    },
    "profile": {
        "basic_info": {
            "baseFee": "18.523564813",
            "blockNumber": 20112791,
            "callData": "0xa9059cbb000000000000000000000000f476e3b9cd1d1707b4181a9308915028a05b53c90000000000000000000000000000000000000000000001a3de016ceccca0a000",
            "debugEnable": true,
            "errorInfo": "",
            "eventCount": 1,
            "feeRecipient": "0x95222290dd7278aa3ddd389cc1e1d165cc4bafe5",
            "formatValue": "0",
            "gasLimit": 90000,
            "gasPrice": "20.523564813",
            "gasUsed": 38910,
            "intTxnCount": 0,
            "internalRevert": false,
            "internalRevertMessage": "",
            "isContractCreation": false,
            "isFlashloan": false,
            "maxFee": "200",
            "nonce": 3533698,
            "overwritedBlockNumber": -1,
            "priorityFee": "2",
            "receiver": "0xca14007eff0db1f8135f4c25b34de49ab0d42766",
            "revertMessage": "",
            "sender": "0xf89d7b9c864f589bbf53a82105107622b35eaa40",
            "simulationEnable": true,
            "sourceTxnHash": "0x45fcaa95525c68ddc97ce46b54f00d00fc85cd6d83d743da103e317c53e15024",
            "status": true,
            "timestamp": "2024-06-17T16:46:47Z",
            "transactionFee": "0.00079857190687383",
            "txnHash": "0x45fcaa95525c68ddc97ce46b54f00d00fc85cd6d83d743da103e317c53e15024",
            "txnIndex": 97,
            "type": 2,
            "value": "0"
        },
        "fund_flow": [
            {
                "amount": "7,745.182954",
                "from": "0xf89d7b9c864f589bbf53a82105107622b35eaa40",
                "id": 1,
                "isERC1155": false,
                "isERC721": false,
                "isReverted": false,
                "order": 1,
                "to": "0xf476e3b9cd1d1707b4181a9308915028a05b53c9",
                "token": "0xca14007eff0db1f8135f4c25b34de49ab0d42766"
            }
        ],
        "token_infos": [
            {
                "address": "0xc02aaa39b223fe8d0a0e5c4f27ead9083c756cc2",
                "decimals": 18
            },
            {
                "address": "0xca14007eff0db1f8135f4c25b34de49ab0d42766",
                "decimals": 18
            },
            {
                "address": "0xeeeeeeeeeeeeeeeeeeeeeeeeeeeeeeeeeeeeeeee",
                "decimals": 18
            }
        ]
    },
    "address_label": {
        "labels": [
            {
                "address": "0x0000000000000000000000000000000000000003",
                "label": "Precompiled"
            },
            {
                "address": "0x0000000000000000000000000000000000000004",
                "label": "Precompiled"
            },
            {
                "address": "0xeeeeeeeeeeeeeeeeeeeeeeeeeeeeeeeeeeeeeeee",
                "label": "Ether"
            },
            {
                "address": "0xf89d7b9c864f589bbf53a82105107622b35eaa40",
                "label": "Bybit: Hot Wallet"
            },
            {
                "address": "0xca14007eff0db1f8135f4c25b34de49ab0d42766",
                "label": "StarkNet: STRK Token"
            },
            {
                "address": "0x0000000000000000000000000000000000000001",
                "label": "Precompiled"
            },
            {
                "address": "0x0000000000000000000000000000000000000002",
                "label": "Precompiled"
            }
        ]
    },
    "trace": {
        "accountLabels": null,
        "dataMap": {
            "-1": {
                "invocation": {
                    "address": "0xf89d7b9c864f589bbf53a82105107622b35eaa40",
                    "callData": "",
                    "decodedMethod": null,
                    "errorInfo": "",
                    "fromAddress": "",
                    "gasUsed": 0,
                    "id": -1,
                    "methodDecoded": false,
                    "operation": "",
                    "output": "",
                    "revert": false,
                    "revertMessage": "",
                    "selector": "",
                    "status": false,
                    "value": ""
                },
                "nodeType": 0
            },
            "0": {
                "invocation": {
                    "address": "0xca14007eff0db1f8135f4c25b34de49ab0d42766",
                    "callData": "0x000000000000000000000000f476e3b9cd1d1707b4181a9308915028a05b53c90000000000000000000000000000000000000000000001a3de016ceccca0a000",
                    "decodedMethod": {
                        "callParams": [
                            {
                                "name": "to",
                                "type": "address",
                                "value": "0xf476e3b9cd1d1707b4181a9308915028a05b53c9"
                            },
                            {
                                "decimalAvailable": true,
                                "name": "amount",
                                "type": "uint256",
                                "value": "7,745,182,954,000,000,000,000"
                            }
                        ],
                        "constructorArguments": "",
                        "name": "transfer",
                        "returnParams": [
                            {
                                "name": "",
                                "type": "bool",
                                "value": true
                            }
                        ],
                        "signature": "transfer(address,uint256)"
                    },
                    "errorInfo": "",
                    "fromAddress": "0xf89d7b9c864f589bbf53a82105107622b35eaa40",
                    "gasUsed": 38910,
                    "id": 0,
                    "methodDecoded": true,
                    "operation": "CALL",
                    "output": "0x0000000000000000000000000000000000000000000000000000000000000001",
                    "revert": false,
                    "revertMessage": "",
                    "selector": "0xa9059cbb",
                    "status": true,
                    "value": "0"
                },
                "nodeType": 0
            },
            "1": {
                "event": {
                    "contract": "0xca14007eff0db1f8135f4c25b34de49ab0d42766",
                    "decodedLog": {
                        "name": "Transfer",
                        "params": [
                            {
                                "name": "from",
                                "type": "address",
                                "value": "0xf89d7b9c864f589bbf53a82105107622b35eaa40"
                            },
                            {
                                "name": "to",
                                "type": "address",
                                "value": "0xf476e3b9cd1d1707b4181a9308915028a05b53c9"
                            },
                            {
                                "decimalAvailable": true,
                                "name": "value",
                                "type": "uint256",
                                "value": "7,745,182,954,000,000,000,000"
                            }
                        ],
                        "signature": "Transfer(address,address,uint256)"
                    },
                    "id": 1,
                    "logData": "0x0000000000000000000000000000000000000000000001a3de016ceccca0a000",
                    "logDecoded": true,
                    "operation": "EVENT",
                    "revert": false,
                    "status": true,
                    "topics": [
                        "0xddf252ad1be2c89b69c2b068fc378daa952ba7f163c4a11628f55a4df523b3ef",
                        "0x000000000000000000000000f89d7b9c864f589bbf53a82105107622b35eaa40",
                        "0x000000000000000000000000f476e3b9cd1d1707b4181a9308915028a05b53c9"
                    ]
                },
                "nodeType": 1
            }
        },
        "gasFlame": [
            {
                "children": [
                    {
                        "children": [
                            {
                                "children": [],
                                "depth": 0,
                                "name": "Initial Gas",
                                "value": 21668
                            },
                            {
                                "children": [],
                                "depth": 0,
                                "name": "Executed Gas",
                                "value": 17242
                            }
                        ],
                        "depth": -1,
                        "name": "Actual Gas Used",
                        "value": 38910
                    },
                    {
                        "children": [],
                        "depth": -1,
                        "name": "Refunded Gas",
                        "value": 0
                    }
                ],
                "depth": -2,
                "name": "Total Gas",
                "value": 38910
            }
        ],
        "isConfirmed": true,
        "mainTrace": [
            {
                "children": [
                    {
                        "children": [
                            {
                                "children": [],
                                "depth": 1,
                                "id": 1,
                                "order": 1
                            }
                        ],
                        "depth": 0,
                        "id": 0,
                        "order": 0
                    }
                ],
                "depth": -1,
                "id": -1,
                "order": -1
            }
        ],
        "mainTraceNodeCount": 2,
        "parentIdMap": {
            "0": -1,
            "1": 0
        },
        "tidyTrace": [
            {
                "children": [
                    {
                        "children": [
                            {
                                "children": [],
                                "depth": 1,
                                "id": 1,
                                "order": 1
                            }
                        ],
                        "depth": 0,
                        "id": 0,
                        "order": 0
                    }
                ],
                "depth": -1,
                "id": -1,
                "order": -1
            }
        ],
        "tidyTraceNodeCount": 2
    },
    "state_change": {
        "stateChanges": [
            {
                "address": "0xca14007eff0db1f8135f4c25b34de49ab0d42766",
                "erc": "ERC-20",
                "slots": [
                    {
                        "current": "0x0000000000000000000000000000000000000000000e52d0bb48c3a175540743",
                        "key": "0x164c0d431a999b5e9f4dfeeb03c48841235e3d171aa85ecb5a0f46085a773b96",
                        "prev": "0x0000000000000000000000000000000000000000000e5474994a308e41f4a743"
                    },
                    {
                        "current": "0x0000000000000000000000000000000000000000000001a407a39107c2cca000",
                        "key": "0x2d0a67a391e703f23c8d3cf5c7de254833522665599a321986a6021414eb53b3",
                        "prev": "0x00000000000000000000000000000000000000000000000029a2241af62c0000"
                    }
                ],
                "storageVariables": [
                    {
                        "name": "_balances",
                        "type": "mapping(address => uint256)",
                        "value": {
                            "pairs": [
                                {
                                    "key": "0xf476e3b9cd1d1707b4181a9308915028a05b53c9",
                                    "value": {
                                        "current": "7748182954000000000000",
                                        "prev": "3000000000000000000",
                                        "typeTag": 1
                                    }
                                },
                                {
                                    "key": "0xf89d7b9c864f589bbf53a82105107622b35eaa40",
                                    "value": {
                                        "current": "17316045944218832581429059",
                                        "prev": "17323791127172832581429059",
                                        "typeTag": 1
                                    }
                                }
                            ],
                            "typeTag": 4
                        }
                    }
                ]
            }
        ]
    }
}