{
    "balance_change": {
        "balanceChanges": [
            {
                "account": "0xf9a0106251467fff1ff03e8609aa74fc55a2a45e",
                "assets": [
                    {
                        "address": "0x2aeccb42482cc64e087b6d2e5da39f5a7a7001f8",
                        "amount": "1.652454427755843509",
                        "iconUrl": "https://assets.blocksec.com/icon/505172930bbf39403a1357f44a2ab80a6f3f8c1a5782bcef6928eaffc0e46bed.png",
                        "isERC1155": false,
                        "isERC721": false,
                        "sign": true,
                        "value": "97.3921742"
                    }
                ]
            },
            {
                "account": "0x3423c8af3a95d9fee7ec06c4e0e905d4fd559f89",
                "assets": [
                    {
                        "address": "0x2aeccb42482cc64e087b6d2e5da39f5a7a7001f8",
                        "amount": "1.652454427755843509",
                        "iconUrl": "https://assets.blocksec.com/icon/505172930bbf39403a1357f44a2ab80a6f3f8c1a5782bcef6928eaffc0e46bed.png",
                        "isERC1155": false,
                        "isERC721": false,
                        "sign": false,
                        "value": "97.3921742"
                    }
                ]
            }
        ]
    },
    "profile": {
        "basic_info": {
            "baseFee": "",
            "blockNumber": 12510286,
            "callData": "0x2c43e2ef000000000000000000000000000000000000000000000000000000000000002000000000000000000000000000000000000000000000000000000000000000010000000000000000000000009231dff16be1020dce7dd6f48d565fda123c11c8",
            "debugEnable": true,
            "errorInfo": "",
            "eventCount": 1,
            "feeRecipient": "0x5a0b54d5dc17e0aadc383d2db43b0a0d3e029c4c",
            "formatValue": "0",
            "gasLimit": 115695,
            "gasPrice": "30",
            "gasUsed": 110705,
            "intTxnCount": 4,
            "internalRevert": false,
            "internalRevertMessage": "",
            "isContractCreation": false,
            "isFlashloan": false,
            "maxFee": "",
            "nonce": 3281,
            "overwritedBlockNumber": -1,
            "priorityFee": "",
            "receiver": "0x3423c8af3a95d9fee7ec06c4e0e905d4fd559f89",
            "revertMessage": "",
            "sender": "0xf9a0106251467fff1ff03e8609aa74fc55a2a45e",
            "simulationEnable": true,
            "sourceTxnHash": "0x45acb0459d05fde9c7827594334e2c7c10d17f25bfde7280b91a35d49bd47383",
            "status": true,
            "timestamp": "2021-05-26T13:43:54Z",
            "transactionFee": "0.00332115",
            "txnHash": "0x45acb0459d05fde9c7827594334e2c7c10d17f25bfde7280b91a35d49bd47383",
            "txnIndex": 172,
            "type": 0,
            "value": "0"
        },
        "fund_flow": [
            {
                "amount": "1.652454427755843509",
                "from": "0x3423c8af3a95d9fee7ec06c4e0e905d4fd559f89",
                "id": 1,
                "isERC1155": false,
                "isERC721": false,
                "isReverted": false,
                "order": 1,
                "to": "0xf9a0106251467fff1ff03e8609aa74fc55a2a45e",
                "token": "0x2aeccb42482cc64e087b6d2e5da39f5a7a7001f8"
            }
        ],
        "token_infos": [
            {
                "address": "0x2aeccb42482cc64e087b6d2e5da39f5a7a7001f8",
                "decimals": 18
            },
            {
                "address": "0xc02aaa39b223fe8d0a0e5c4f27ead9083c756cc2",
                "decimals": 18
            },
            {
                "address": "0xeeeeeeeeeeeeeeeeeeeeeeeeeeeeeeeeeeeeeeee",
                "decimals": 18
            }
        ]
    },
    "address_label": {
        "labels": [
            {
                "address": "0x0000000000000000000000000000000000000001",
                "label": "Precompiled"
            },
            {
                "address": "0x0000000000000000000000000000000000000002",
                "label": "Precompiled"
            },
            {
                "address": "0x0000000000000000000000000000000000000003",
                "label": "Precompiled"
            },
            {
                "address": "0x0000000000000000000000000000000000000004",
                "label": "Precompiled"
            },
            {
                "address": "0xeeeeeeeeeeeeeeeeeeeeeeeeeeeeeeeeeeeeeeee",
                "label": "Ether"
            },
            {
                "address": "0x5f890841f657d90e081babdb532a05996af79fe6",
                "label": "Curve.fi: 3Pool Implementation Contract"
            },
            {
                "address": "0x2aeccb42482cc64e087b6d2e5da39f5a7a7001f8",
                "label": "Ruler Protocol: RULER Token"
            },
            {
                "address": "0x3423c8af3a95d9fee7ec06c4e0e905d4fd559f89",
                "label": "BonusRewards"
            }
        ]
    },
    "trace": {
        "accountLabels": null,
        "dataMap": {
            "-1": {
                "invocation": {
                    "address": "0xf9a0106251467fff1ff03e8609aa74fc55a2a45e",
                    "callData": "",
                    "decodedMethod": null,
                    "errorInfo": "",
                    "fromAddress": "",
                    "gasUsed": 0,
                    "id": -1,
                    "methodDecoded": false,
                    "operation": "",
                    "output": "",
                    "revert": false,
                    "revertMessage": "",
                    "selector": "",
                    "status": false,
                    "value": ""
                },
                "nodeType": 0
            },
            "0": {
                "invocation": {
                    "address": "0x3423c8af3a95d9fee7ec06c4e0e905d4fd559f89",
                    "callData": "0x000000000000000000000000000000000000000000000000000000000000002000000000000000000000000000000000000000000000000000000000000000010000000000000000000000009231dff16be1020dce7dd6f48d565fda123c11c8",
                    "decodedMethod": {
                        "callParams": [
                            {
                                "name": "_lpTokens",
                                "type": "address[]",
                                "value": [
                                    "0x9231dff16be1020dce7dd6f48d565fda123c11c8"
                                ]
                            }
                        ],
                        "constructorArguments": "",
                        "name": "claimRewardsForPools",
                        "returnParams": [],
                        "signature": "claimRewardsForPools(address[])"
                    },
                    "errorInfo": "",
                    "fromAddress": "0xf9a0106251467fff1ff03e8609aa74fc55a2a45e",
                    "gasUsed": 110705,
                    "id": 0,
                    "methodDecoded": true,
                    "operation": "CALL",
                    "output": "",
                    "revert": false,
                    "revertMessage": "",
                    "selector": "0x2c43e2ef",
                    "status": true,
                    "value": "0"
                },
                "nodeType": 0
            },
            "1": {
                "invocation": {
                    "address": "0x9231dff16be1020dce7dd6f48d565fda123c11c8",
                    "callData": "0x0000000000000000000000003423c8af3a95d9fee7ec06c4e0e905d4fd559f89",
                    "decodedMethod": {
                        "callParams": [
                            {
                                "name": "account",
                                "type": "address",
                                "value": "0x3423c8af3a95d9fee7ec06c4e0e905d4fd559f89"
                            }
                        ],
                        "constructorArguments": "",
                        "name": "balanceOf",
                        "returnParams": [
                            {
                                "decimalAvailable": true,
                                "name": "",
                                "type": "uint256",
                                "value": "100,937,763,640,333,681,568,151"
                            }
                        ],
                        "signature": "balanceOf(address)"
                    },
                    "errorInfo": "",
                    "fromAddress": "0x3423c8af3a95d9fee7ec06c4e0e905d4fd559f89",
                    "gasUsed": 7159,
                    "id": 1,
                    "methodDecoded": true,
                    "operation": "STATICCALL",
                    "output": "0x00000000000000000000000000000000000000000000155fd8dd97b10cc42997fd559f8900000000000000000000000000000000000000000000000000000000000000000000000000000000000000000000000000000000000000000000000000000000000000000000000000000000000000000000000000000000000000000000000000000000000000000000000000000000000000000000000000000000000000000000000000000000000000000000000000000000000000000000000000000000000000000000000000000000000000000000000000000000000000000000000000000000000000000000000000000000000000000000000000000000000000000000000000000000000000000000000000000000000000000000000000000000000000000000000000000000000000000000000000000000000000000000000000000000000000000000000000000000000000000000000000000000000000000000000000000000000000000000000000000000000000000000000000000000000000000000000000000000000000000000000000000000000000000000000000000000000000000000000000000000000000000000000000000000000000000000000000000000000000000000000000000000000000000000000000000000000000000000000000000000000000000000000000000000000000000000000000000000000000000000000000000000000000000000000000000000000000000000000000000000000000000000000000000000000000000000000000000000000000000000000000000000000000000000000000000000000000000000000000000000000000000000000000000000000000000000000000000000000000000000000000000000000000000000000000000000000000000000000000000000000000000000000000000000000000000000000000000000000000000000000000000000000000000000000000000000000000000000000000000000000000000000000000000000000000000000000000000000000000000000000000000000000000000000000000000000000000000000000000000000000000000000000000000000000000000000000000000000000000000000000000000000000000000000000000000000000000000000000000000000000000000000000000000000000000000000000000000000000000000000000000000000000000000000000000000000000000000000000000000000000000000000000000000000000000000000000000000000000000000000000000000000000000000000000000000000000000000000000000000000000000000000000000000000000000000000000000000000000000000000000000000000000000000000000000000000000000000000000000000000000000000000000000000000000000000000000000000000000000000000000000000000000000000000000000000000000000000000000000000000000000000000000000000000000000000000000000000000000000000000000000000000000000000000000000000000000000000000000000000000000000000000000000000000000000000000000000000000000000000000000000000000000000000000000000000000000000000000000000000000000000000000000000000000000000000000000000000000000000000000000000000000000000000000000000000000000000000000000000000000000000000000000000000000000000000000000000000000000000000000000000000000000000000000000000000000000000000000000000000000000000000000000000000000000000000000000000000000000000000000000000000000000000000000000000000000000000000000000000000000000000000000000000000000000000000000000000000000000000000000000000000000000000000000000000000000000000000000000000000000000000000000000000000000000000000000000000000000000000000000000000000000000000000000000000000000000000000000000000000000000000000000000000000000000000000000000000000000000000000000000000000000000000000000000000000000000000000000000000000000000000000000000000000000000000000000000000000000000000000000000000000000000000000000000000000000000000000000000000000000000000000000000000000000000000000000000000000000000000000000000000000000000000000000000000000000000000000000000000000000000000000000000000000000000000000000000000000000000000000000000000000000000000000000000000000000000000000000000000000000000000000000000000000000000000000000000000000000000000000000000000000000000000000000000000000000000000000000000000000000000000000000000000000000000000000000000000000000000000000000000000000000000000000000000000000000000000000000000000000000000000000000000000000000000000000000000000000000000000000000000000000000000000000000000000000000000000000000000000000000000000000000000000000000000000000000000000000000000000000000000000000000000000000000000000000000000000000000000000000000000000000000000000000000000000000000000000000000000000000000000000000000000000000000000000000000000000000000000000000000000000000000000000000000000000000000000000000000000000000000000000000000000000000000000000000000000000000000000000000000000000000000000000000000000000000000000000000000000000000000000000000000000000000000000000000000000000000000000000000000000000000000000000000000000000000000000000000000000000000000000000000000000000000000000000000000000000000000000000000000000000000000000000000000000000000000000000000000000000000000000000000000000000000000000000000000000000000000000000000000000000000000000000000000000000000000000000000000000000000000000000000000000000000000000000000000000000000000000000000000000000000000000000000000000000000000000000000000000000000000000000000000000000000000000000000000000000000000000000000000000000000000000000000000000000000000000000000000000000000000000000000000000000000000000000000000000000000000000000000000000000000000000000000000000000000000000000000000000000000000000000000000000000000000000000000000000000000000000000000000000000000000000000000000000000000000000000000000000000000000000000000000000000000000000000000000000000000000000000000000000000000000000000000000000000000000000000000000000000000000000000000000000000000000000000000000000000000000000000000000000000000000000000000000000000000000000000000000000000000000000000000000000000000000000000000000000000000000000000000000000000000000000000000000000000000000000000000000000000000000000000000000000000000000000000000000000000000000000000000000000000000000000000000000000000000000000000000000000000000000000000000000000000000000000000000000000000000000000000000000000000000000000000000000000000000000000000000000000000000000000000000000000000000000000000000000000000000000000000000000000000000000000000000000000000000000000000000000000000000000000000000000000000000000000000000000000000000000000000000000000000000000000000000000000000000000000000000000000000000000000000000000000000000000000000000000000000000000000000000000000000000000000000000000000000000000000000000000000000000000000000000000000000000000000000000000000000000000000000000000000000000000000000000000000000000000000000000000000000000000000000000000000000000000000000000000000000000000000000000000000000000000000000000000000000000000000000000000000000000000000000000000000000000000000000000000000000000000000000000000000000000000000000000000000000000000000000000000000000000000000000000000000000000000000000000000000000000000000000000000000000000000000000000000000000000000000000000000000000000000000000000000000000000000000000000000000000000000000000000000000000000000000000000000000000000000000000000000000000000000000000000000000000000000000000000000000000000000000000000000000000000000000000000000000000000000000000000000000000000000000000000000000000000000000000000000000000000000000000000000000000000000000000000000000000000000000000000000000000000000000000000000000000000000000000000000000000000000000000000000000000000000000000000000000000000000000000000000000000000000000000000000000000000000000000000000000000000000000000000000000000000000000000000000000000000000000000000000000000000000000000000000000000000000000000000000000000000000000000000000000000000000000000000000000000000000000000000000000000000000000000000000000000000000000000000000000000000000000000000000000000000000000000000000000000000000000000000000000000000000000000000000000000000000000000000000000000000000000000000000000000000000000000000000000000000000000000000000000000000000000000000000000000000000000000000000000000000000000000000000000000000000000000000000000000000000000000000000000000000000000000000000000000000000000000000000000000000000000000000000000000000000000000000000000000000000000000000000000000000000000000000000000000000000000000000000000000000000000000000000000000000000000000000000000000000000000000000000000000000000000000000000000000000000000000000000000000000000000000000000000000000000000000000000000000000000000000000000000000000000000000000000000000000000000000000000000000000000000000000000000000000000000000000000000000000000000000000000000000000000000000000000000000000000000000000000000000000000000000000000",
                    "revert": false,
                    "revertMessage": "",
                    "selector": "0x70a08231",
                    "status": true,
                    "value": "0"
                },
                "nodeType": 0
            },
            "2": {
                "invocation": {
                    "address": "0x5f890841f657d90e081babdb532a05996af79fe6",
                    "callData": "0x0000000000000000000000003423c8af3a95d9fee7ec06c4e0e905d4fd559f89",
                    "decodedMethod": {
                        "callParams": [
                            {
                                "name": "account",
                                "type": "address",
                                "value": "0x3423c8af3a95d9fee7ec06c4e0e905d4fd559f89"
                            }
                        ],
                        "constructorArguments": "",
                        "name": "balanceOf",
                        "returnParams": [
                            {
                                "decimalAvailable": true,
                                "name": "",
                                "type": "uint256",
                                "value": "100,937,763,640,333,681,568,151"
                            }
                        ],
                        "signature": "balanceOf(address)"
                    },
                    "errorInfo": "",
                    "fromAddress": "0x9231dff16be1020dce7dd6f48d565fda123c11c8",
                    "gasUsed": 4090,
                    "id": 2,
                    "methodDecoded": true,
                    "operation": "DELEGATECALL",
                    "output": "0x00000000000000000000000000000000000000000000155fd8dd97b10cc42997",
                    "revert": false,
                    "revertMessage": "",
                    "selector": "0x70a08231",
                    "status": true,
                    "value": "0"
                },
                "nodeType": 0
            },
            "3": {
                "invocation": {
                    "address": "0x2aeccb42482cc64e087b6d2e5da39f5a7a7001f8",
                    "callData": "0x0000000000000000000000003423c8af3a95d9fee7ec06c4e0e905d4fd559f89",
                    "decodedMethod": {
                        "callParams": [
                            {
                                "name": "account",
                                "type": "address",
                                "value": "0x3423c8af3a95d9fee7ec06c4e0e905d4fd559f89"
                            }
                        ],
                        "constructorArguments": "",
                        "name": "balanceOf",
                        "returnParams": [
                            {
                                "decimalAvailable": true,
                                "name": "",
                                "type": "uint256",
                                "value": "27,261,039,755,390,844,541,117"
                            }
                        ],
                        "signature": "balanceOf(address)"
                    },
                    "errorInfo": "",
                    "fromAddress": "0x3423c8af3a95d9fee7ec06c4e0e905d4fd559f89",
                    "gasUsed": 2649,
                    "id": 3,
                    "methodDecoded": true,
                    "operation": "STATICCALL",
                    "output": "0x0000000000000000000000000000000000000000000005c5d2ecd659610618bd",
                    "revert": false,
                    "revertMessage": "",
                    "selector": "0x70a08231",
                    "status": true,
                    "value": "0"
                },
                "nodeType": 0
            },
            "4": {
                "invocation": {
                    "address": "0x2aeccb42482cc64e087b6d2e5da39f5a7a7001f8",
                    "callData": "0x000000000000000000000000f9a0106251467fff1ff03e8609aa74fc55a2a45e00000000000000000000000000000000000000000000000016eeb28c05e88fb5",
                    "decodedMethod": {
                        "callParams": [
                            {
                                "name": "recipient",
                                "type": "address",
                                "value": "0xf9a0106251467fff1ff03e8609aa74fc55a2a45e"
                            },
                            {
                                "decimalAvailable": true,
                                "name": "amount",
                                "type": "uint256",
                                "value": "1,652,454,427,755,843,509"
                            }
                        ],
                        "constructorArguments": "",
                        "name": "transfer",
                        "returnParams": [
                            {
                                "name": "",
                                "type": "bool",
                                "value": true
                            }
                        ],
                        "signature": "transfer(address,uint256)"
                    },
                    "errorInfo": "",
                    "fromAddress": "0x3423c8af3a95d9fee7ec06c4e0e905d4fd559f89",
                    "gasUsed": 28039,
                    "id": 4,
                    "methodDecoded": true,
                    "operation": "CALL",
                    "output": "0x0000000000000000000000000000000000000000000000000000000000000001",
                    "revert": false,
                    "revertMessage": "",
                    "selector": "0xa9059cbb",
                    "status": true,
                    "value": "0"
                },
                "nodeType": 0
            },
            "5": {
                "event": {
                    "contract": "0x2aeccb42482cc64e087b6d2e5da39f5a7a7001f8",
                    "decodedLog": {
                        "name": "Transfer",
                        "params": [
                            {
                                "name": "from",
                                "type": "address",
                                "value": "0x3423c8af3a95d9fee7ec06c4e0e905d4fd559f89"
                            },
                            {
                                "name": "to",
                                "type": "address",
                                "value": "0xf9a0106251467fff1ff03e8609aa74fc55a2a45e"
                            },
                            {
                                "decimalAvailable": true,
                                "name": "value",
                                "type": "uint256",
                                "value": "1,652,454,427,755,843,509"
                            }
                        ],
                        "signature": "Transfer(address,address,uint256)"
                    },
                    "id": 5,
                    "logData": "0x00000000000000000000000000000000000000000000000016eeb28c05e88fb5",
                    "logDecoded": true,
                    "operation": "EVENT",
                    "revert": false,
                    "status": true,
                    "topics": [
                        "0xddf252ad1be2c89b69c2b068fc378daa952ba7f163c4a11628f55a4df523b3ef",
                        "0x0000000000000000000000003423c8af3a95d9fee7ec06c4e0e905d4fd559f89",
                        "0x000000000000000000000000f9a0106251467fff1ff03e8609aa74fc55a2a45e"
                    ]
                },
                "nodeType": 1
            }
        },
        "gasFlame": [
            {
                "children": [
                    {
                        "children": [
                            {
                                "children": [],
                                "depth": 0,
                                "name": "Initial Gas",
                                "value": 21712
                            },
                            {
                                "children": [
                                    {
                                        "children": [
                                            {
                                                "children": [],
                                                "depth": 2,
                                                "name": "balanceOf",
                                                "value": 4090
                                            }
                                        ],
                                        "depth": 1,
                                        "name": "balanceOf",
                                        "value": 7159
                                    },
                                    {
                                        "children": [],
                                        "depth": 1,
                                        "name": "balanceOf",
                                        "value": 2649
                                    },
                                    {
                                        "children": [],
                                        "depth": 1,
                                        "name": "transfer",
                                        "value": 28039
                                    }
                                ],
                                "depth": 0,
                                "name": "Executed Gas",
                                "value": 91793
                            }
                        ],
                        "depth": -1,
                        "name": "Actual Gas Used",
                        "value": 110705
                    },
                    {
                        "children": [],
                        "depth": -1,
                        "name": "Refunded Gas",
                        "value": 2800
                    }
                ],
                "depth": -2,
                "name": "Total Gas",
                "value": 113505
            }
        ],
        "isConfirmed": true,
        "mainTrace": [
            {
                "children": [
                    {
                        "children": [
                            {
                                "children": [
                                    {
                                        "children": [],
                                        "depth": 2,
                                        "id": 2,
                                        "order": 2
                                    }
                                ],
                                "depth": 1,
                                "id": 1,
                                "order": 1
                            },
                            {
                                "children": [],
                                "depth": 1,
                                "id": 3,
                                "order": 3
                            },
                            {
                                "children": [
                                    {
                                        "children": [],
                                        "depth": 2,
                                        "id": 5,
                                        "order": 5
                                    }
                                ],
                                "depth": 1,
                                "id": 4,
                                "order": 4
                            }
                        ],
                        "depth": 0,
                        "id": 0,
                        "order": 0
                    }
                ],
                "depth": -1,
                "id": -1,
                "order": -1
            }
        ],
        "mainTraceNodeCount": 6,
        "parentIdMap": {
            "0": -1,
            "1": 0,
            "2": 1,
            "3": 0,
            "4": 0,
            "5": 4
        },
        "tidyTrace": [
            {
                "children": [
                    {
                        "children": [
                            {
                                "children": [
                                    {
                                        "children": [],
                                        "depth": 2,
                                        "id": 5,
                                        "order": 5
                                    }
                                ],
                                "depth": 1,
                                "id": 4,
                                "order": 4
                            }
                        ],
                        "depth": 0,
                        "id": 0,
                        "order": 0
                    }
                ],
                "depth": -1,
                "id": -1,
                "order": -1
            }
        ],
        "tidyTraceNodeCount": 3
    },
    "state_change": {
        "stateChanges": [
            {
                "address": "0x2aeccb42482cc64e087b6d2e5da39f5a7a7001f8",
                "erc": "ERC-20",
                "slots": [
                    {
                        "current": "0x0000000000000000000000000000000000000000000005c5bbfe23cd5b1d8908",
                        "key": "0x138790d3a430578b13713e77d9b84e44541ff81be66cba5bf34f538e07a9e3db",
                        "prev": "0x0000000000000000000000000000000000000000000005c5d2ecd659610618bd"
                    },
                    {
                        "current": "0x00000000000000000000000000000000000000000000000016eeb28c05e88fb5",
                        "key": "0x298b09cec1e2d50ae692db0af7c98557e3bb912ba0dd8583fb1180a3b526df3a",
                        "prev": "0x0000000000000000000000000000000000000000000000000000000000000000"
                    }
                ],
                "storageVariables": [
                    {
                        "name": "_balances",
                        "type": "mapping(address => uint256)",
                        "value": {
                            "pairs": [
                                {
                                    "key": "0x3423c8af3a95d9fee7ec06c4e0e905d4fd559f89",
                                    "value": {
                                        "current": "27259387300963088697608",
                                        "prev": "27261039755390844541117",
                                        "typeTag": 1
                                    }
                                },
                                {
                                    "key": "0xf9a0106251467fff1ff03e8609aa74fc55a2a45e",
                                    "value": {
                                        "current": "1652454427755843509",
                                        "prev": "0",
                                        "typeTag": 1
                                    }
                                }
                            ],
                            "typeTag": 4
                        }
                    }
                ]
            },
            {
                "address": "0x3423c8af3a95d9fee7ec06c4e0e905d4fd559f89",
                "erc": "",
                "slots": [
                    {
                        "current": "0x0000000000000000000000000000000000000000000000000000000060ae509a",
                        "key": "0xbbb0f1cb6514a32ebd0c1912984cdcc7b615d0c471c470c2ae5a3f4339a0e904",
                        "prev": "0x0000000000000000000000000000000000000000000000000000000060ab2b9e"
                    },
                    {
                        "current": "0x0000000000000000000000000000000000000000019b9e425c597fa7aac898f3",
                        "key": "0x07e96f82c285e1f3a244d28c3b30d86de83d5c29b086cc1003dfa76e97d7a2b3",
                        "prev": "0x00000000000000000000000000000000000000000155cf87a9d3016f35b9b484"
                    },
                    {
                        "current": "0x0000000000000000000000000000000000000000000000016d902b6b9f4188b1",
                        "key": "0x07e96f82c285e1f3a244d28c3b30d86de83d5c29b086cc1003dfa76e97d7a2b4",
                        "prev": "0x000000000000000000000000000000000000000000000001847eddf7a52a1866"
                    },
                    {
                        "current": "0x00000000000000000000000000000000000000000000000083376dc6209def04",
                        "key": "0x7ab9cb5e06856eb2d0ef8a638bc953783d586ec85d4303044fdcd48430ef0ea8",
                        "prev": "0x0000000000000000000000000000000000000000000000006c48bb3a1ab55f4f"
                    }
                ],
                "storageVariables": [
                    {
                        "name": "pools",
                        "type": "mapping(address => struct IBonusRewards.Pool)",
                        "value": {
                            "pairs": [
                                {
                                    "key": "0x9231dff16be1020dce7dd6f48d565fda123c11c8",
                                    "value": {
                                        "fields": [
                                            {
                                                "name": "bonuses",
                                                "type": "struct IBonusRewards.Bonus[]",
                                                "value": {
                                                    "elemType": "struct IBonusRewards.Bonus",
                                                    "elems": [
                                                        {
                                                            "index": 0,
                                                            "value": {
                                                                "fields": [
                                                                    {
                                                                        "name": "accRewardsPerToken",
                                                                        "type": "uint256",
                                                                        "value": {
                                                                            "current": "497615869905505142096566515",
                                                                            "prev": "413223736898118705573639300",
                                                                            "typeTag": 1
                                                                        }
                                                                    },
                                                                    {
                                                                        "name": "remBonus",
                                                                        "type": "uint256",
                                                                        "value": {
                                                                            "current": "26341601961723398321",
                                                                            "prev": "27994056389479241830",
                                                                            "typeTag": 1
                                                                        }
                                                                    }
                                                                ],
                                                                "typeTag": 3
                                                            }
                                                        }
                                                    ],
                                                    "typeTag": 2
                                                }
                                            },
                                            {
                                                "name": "lastUpdatedAt",
                                                "type": "uint256",
                                                "value": {
                                                    "current": "1622036634",
                                                    "prev": "1621830558",
                                                    "typeTag": 1
                                                }
                                            }
                                        ],
                                        "typeTag": 3
                                    }
                                }
                            ],
                            "typeTag": 4
                        }
                    },
                    {
                        "name": "users",
                        "type": "mapping(address => mapping(address => struct IBonusRewards.User))",
                        "value": {
                            "pairs": [
                                {
                                    "key": "0x9231dff16be1020dce7dd6f48d565fda123c11c8",
                                    "value": {
                                        "pairs": [
                                            {
                                                "key": "0xf9a0106251467fff1ff03e8609aa74fc55a2a45e",
                                                "value": {
                                                    "fields": [
                                                        {
                                                            "name": "rewardsWriteoffs",
                                                            "type": "uint256[]",
                                                            "value": {
                                                                "elemType": "uint256",
                                                                "elems": [
                                                                    {
                                                                        "index": 0,
                                                                        "value": {
                                                                            "current": "9455146640405819140",
                                                                            "prev": "7802692212649975631",
                                                                            "typeTag": 1
                                                                        }
                                                                    }
                                                                ],
                                                                "typeTag": 2
                                                            }
                                                        }
                                                    ],
                                                    "typeTag": 3
                                                }
                                            }
                                        ],
                                        "typeTag": 4
                                    }
                                }
                            ],
                            "typeTag": 4
                        }
                    }
                ]
            }
        ]
    }
}