{
    "balance_change": {
        "balanceChanges": [
            {
                "account": "0xb95997c7d2732f1a3d11e657211b2d403df51738",
                "assets": [
                    {
                        "address": "0x82c3737d1fcb05653de4f74a57c8af503b251417",
                        "amount": "100",
                        "iconUrl": "",
                        "isERC1155": false,
                        "isERC721": false,
                        "sign": false,
                        "value": ""
                    }
                ]
            },
            {
                "account": "0x6618389e74a497a8827407494cf829cafc584233",
                "assets": [
                    {
                        "address": "0x82c3737d1fcb05653de4f74a57c8af503b251417",
                        "amount": "100",
                        "iconUrl": "",
                        "isERC1155": false,
                        "isERC721": false,
                        "sign": true,
                        "value": ""
                    }
                ]
            }
        ]
    },
    "profile": {
        "basic_info": {
            "baseFee": "",
            "blockNumber": 5472788,
            "callData": "0xa9059cbb0000000000000000000000006618389e74a497a8827407494cf829cafc5842330000000000000000000000000000000000000000000000056bc75e2d63100000",
            "debugEnable": true,
            "errorInfo": "",
            "eventCount": 1,
            "feeRecipient": "0x5a0b54d5dc17e0aadc383d2db43b0a0d3e029c4c",
            "formatValue": "0",
            "gasLimit": 60000,
            "gasPrice": "4",
            "gasUsed": 52999,
            "intTxnCount": 0,
            "internalRevert": false,
            "internalRevertMessage": "",
            "isContractCreation": false,
            "isFlashloan": false,
            "maxFee": "",
            "nonce": 60,
            "overwritedBlockNumber": -1,
            "priorityFee": "",
            "receiver": "0x82c3737d1fcb05653de4f74a57c8af503b251417",
            "revertMessage": "",
            "sender": "0xb95997c7d2732f1a3d11e657211b2d403df51738",
            "simulationEnable": true,
            "sourceTxnHash": "0x4659e5943a68e88f89ac09018fe7330e3473e8e24556c41bea8b42f6c3331fac",
            "status": true,
            "timestamp": "2018-04-20T06:42:33Z",
            "transactionFee": "0.000211996",
            "txnHash": "0x4659e5943a68e88f89ac09018fe7330e3473e8e24556c41bea8b42f6c3331fac",
            "txnIndex": 221,
            "type": 0,
            "value": "0"
        },
        "fund_flow": [
            {
                "amount": "100",
                "from": "0xb95997c7d2732f1a3d11e657211b2d403df51738",
                "id": 1,
                "isERC1155": false,
                "isERC721": false,
                "isReverted": false,
                "order": 1,
                "to": "0x6618389e74a497a8827407494cf829cafc584233",
                "token": "0x82c3737d1fcb05653de4f74a57c8af503b251417"
            }
        ],
        "token_infos": [
            {
                "address": "0x82c3737d1fcb05653de4f74a57c8af503b251417",
                "decimals": 18
            },
            {
                "address": "0xc02aaa39b223fe8d0a0e5c4f27ead9083c756cc2",
                "decimals": 18
            },
            {
                "address": "0xeeeeeeeeeeeeeeeeeeeeeeeeeeeeeeeeeeeeeeee",
                "decimals": 18
            }
        ]
    },
    "address_label": {
        "labels": [
            {
                "address": "0xeeeeeeeeeeeeeeeeeeeeeeeeeeeeeeeeeeeeeeee",
                "label": "Ether"
            },
            {
                "address": "0x82c3737d1fcb05653de4f74a57c8af503b251417",
                "label": "PR"
            },
            {
                "address": "0x0000000000000000000000000000000000000001",
                "label": "Precompiled"
            },
            {
                "address": "0x0000000000000000000000000000000000000002",
                "label": "Precompiled"
            },
            {
                "address": "0x0000000000000000000000000000000000000003",
                "label": "Precompiled"
            },
            {
                "address": "0x0000000000000000000000000000000000000004",
                "label": "Precompiled"
            }
        ]
    },
    "trace": {
        "accountLabels": null,
        "dataMap": {
            "-1": {
                "invocation": {
                    "address": "0xb95997c7d2732f1a3d11e657211b2d403df51738",
                    "callData": "",
                    "decodedMethod": null,
                    "errorInfo": "",
                    "fromAddress": "",
                    "gasUsed": 0,
                    "id": -1,
                    "methodDecoded": false,
                    "operation": "",
                    "output": "",
                    "revert": false,
                    "revertMessage": "",
                    "selector": "",
                    "status": false,
                    "value": ""
                },
                "nodeType": 0
            },
            "0": {
                "invocation": {
                    "address": "0x82c3737d1fcb05653de4f74a57c8af503b251417",
                    "callData": "0x0000000000000000000000006618389e74a497a8827407494cf829cafc5842330000000000000000000000000000000000000000000000056bc75e2d63100000",
                    "decodedMethod": {
                        "callParams": [
                            {
                                "name": "_to",
                                "type": "address",
                                "value": "0x6618389e74a497a8827407494cf829cafc584233"
                            },
                            {
                                "decimalAvailable": true,
                                "name": "_value",
                                "type": "uint256",
                                "value": "100,000,000,000,000,000,000"
                            }
                        ],
                        "constructorArguments": "",
                        "name": "transfer",
                        "returnParams": [],
                        "signature": "transfer(address,uint256)"
                    },
                    "errorInfo": "",
                    "fromAddress": "0xb95997c7d2732f1a3d11e657211b2d403df51738",
                    "gasUsed": 52999,
                    "id": 0,
                    "methodDecoded": true,
                    "operation": "CALL",
                    "output": "",
                    "revert": false,
                    "revertMessage": "",
                    "selector": "0xa9059cbb",
                    "status": true,
                    "value": "0"
                },
                "nodeType": 0
            },
            "1": {
                "event": {
                    "contract": "0x82c3737d1fcb05653de4f74a57c8af503b251417",
                    "decodedLog": {
                        "name": "Transfer",
                        "params": [
                            {
                                "name": "from",
                                "type": "address",
                                "value": "0xb95997c7d2732f1a3d11e657211b2d403df51738"
                            },
                            {
                                "name": "to",
                                "type": "address",
                                "value": "0x6618389e74a497a8827407494cf829cafc584233"
                            },
                            {
                                "decimalAvailable": true,
                                "name": "value",
                                "type": "uint256",
                                "value": "100,000,000,000,000,000,000"
                            }
                        ],
                        "signature": "Transfer(address,address,uint256)"
                    },
                    "id": 1,
                    "logData": "0x0000000000000000000000000000000000000000000000056bc75e2d63100000",
                    "logDecoded": true,
                    "operation": "EVENT",
                    "revert": false,
                    "status": true,
                    "topics": [
                        "0xddf252ad1be2c89b69c2b068fc378daa952ba7f163c4a11628f55a4df523b3ef",
                        "0x000000000000000000000000b95997c7d2732f1a3d11e657211b2d403df51738",
                        "0x0000000000000000000000006618389e74a497a8827407494cf829cafc584233"
                    ]
                },
                "nodeType": 1
            }
        },
        "gasFlame": [
            {
                "children": [
                    {
                        "children": [
                            {
                                "children": [],
                                "depth": 0,
                                "name": "Initial Gas",
                                "value": 23256
                            },
                            {
                                "children": [],
                                "depth": 0,
                                "name": "Executed Gas",
                                "value": 29743
                            }
                        ],
                        "depth": -1,
                        "name": "Actual Gas Used",
                        "value": 52999
                    },
                    {
                        "children": [],
                        "depth": -1,
                        "name": "Refunded Gas",
                        "value": 0
                    }
                ],
                "depth": -2,
                "name": "Total Gas",
                "value": 52999
            }
        ],
        "isConfirmed": true,
        "mainTrace": [
            {
                "children": [
                    {
                        "children": [
                            {
                                "children": [],
                                "depth": 1,
                                "id": 1,
                                "order": 1
                            }
                        ],
                        "depth": 0,
                        "id": 0,
                        "order": 0
                    }
                ],
                "depth": -1,
                "id": -1,
                "order": -1
            }
        ],
        "mainTraceNodeCount": 2,
        "parentIdMap": {
            "0": -1,
            "1": 0
        },
        "tidyTrace": [
            {
                "children": [
                    {
                        "children": [
                            {
                                "children": [],
                                "depth": 1,
                                "id": 1,
                                "order": 1
                            }
                        ],
                        "depth": 0,
                        "id": 0,
                        "order": 0
                    }
                ],
                "depth": -1,
                "id": -1,
                "order": -1
            }
        ],
        "tidyTraceNodeCount": 2
    },
    "state_change": {
        "stateChanges": [
            {
                "address": "0x82c3737d1fcb05653de4f74a57c8af503b251417",
                "erc": "",
                "slots": [
                    {
                        "current": "0x000000000000000000000000000000000000000000000301c8963d2cf2e00000",
                        "key": "0x2a025117b3f843db256cfeb21df673540be88e9812f1f59c5da092257807e2a3",
                        "prev": "0x000000000000000000000000000000000000000000000307345d9b5a55f00000"
                    },
                    {
                        "current": "0x0000000000000000000000000000000000000000000000056bc75e2d63100000",
                        "key": "0x629cdce084c5bf274327536a378f857775e7b5805bcb90babce59aed2059d31c",
                        "prev": "0x0000000000000000000000000000000000000000000000000000000000000000"
                    }
                ],
                "storageVariables": []
            }
        ]
    }
}