{
    "balance_change": {
        "balanceChanges": [
            {
                "account": "0x303edcd8dbe1607fe512d45cc15d3e41fa4db44b",
                "assets": [
                    {
                        "address": "0xb64ef51c888972c908cfacf59b47c1afbc0ab8ac",
                        "amount": "14.00102084",
                        "iconUrl": "https://assets.blocksec.com/icon/adb507b7df0c119aef80ed36afeebbe0220982ead2feb7b77ef22bb1559b7c3a.png",
                        "isERC1155": false,
                        "isERC721": false,
                        "sign": false,
                        "value": "16.03593873"
                    }
                ]
            },
            {
                "account": "0x17a3765ee7d74e26230b275f298a5af3982e2a94",
                "assets": [
                    {
                        "address": "0xb64ef51c888972c908cfacf59b47c1afbc0ab8ac",
                        "amount": "14.00102084",
                        "iconUrl": "https://assets.blocksec.com/icon/adb507b7df0c119aef80ed36afeebbe0220982ead2feb7b77ef22bb1559b7c3a.png",
                        "isERC1155": false,
                        "isERC721": false,
                        "sign": true,
                        "value": "16.03593873"
                    }
                ]
            }
        ]
    },
    "profile": {
        "basic_info": {
            "baseFee": "",
            "blockNumber": 12569540,
            "callData": "0xa9059cbb00000000000000000000000017a3765ee7d74e26230b275f298a5af3982e2a94000000000000000000000000000000000000000000000000000000005373dcc4",
            "debugEnable": true,
            "errorInfo": "",
            "eventCount": 1,
            "feeRecipient": "0x5a0b54d5dc17e0aadc383d2db43b0a0d3e029c4c",
            "formatValue": "0",
            "gasLimit": 70000,
            "gasPrice": "22.000001459",
            "gasUsed": 34896,
            "intTxnCount": 0,
            "internalRevert": false,
            "internalRevertMessage": "",
            "isContractCreation": false,
            "isFlashloan": false,
            "maxFee": "",
            "nonce": 36399,
            "overwritedBlockNumber": -1,
            "priorityFee": "",
            "receiver": "0xb64ef51c888972c908cfacf59b47c1afbc0ab8ac",
            "revertMessage": "",
            "sender": "0x303edcd8dbe1607fe512d45cc15d3e41fa4db44b",
            "simulationEnable": true,
            "sourceTxnHash": "0x466e336cffb5c6d797e9c5d854f6b0bc058085f93c72b39ac69c1caab9033f3e",
            "status": true,
            "timestamp": "2021-06-04T18:04:01Z",
            "transactionFee": "0.000767712050913264",
            "txnHash": "0x466e336cffb5c6d797e9c5d854f6b0bc058085f93c72b39ac69c1caab9033f3e",
            "txnIndex": 141,
            "type": 0,
            "value": "0"
        },
        "fund_flow": [
            {
                "amount": "14.00102084",
                "from": "0x303edcd8dbe1607fe512d45cc15d3e41fa4db44b",
                "id": 1,
                "isERC1155": false,
                "isERC721": false,
                "isReverted": false,
                "order": 1,
                "to": "0x17a3765ee7d74e26230b275f298a5af3982e2a94",
                "token": "0xb64ef51c888972c908cfacf59b47c1afbc0ab8ac"
            }
        ],
        "token_infos": [
            {
                "address": "0xeeeeeeeeeeeeeeeeeeeeeeeeeeeeeeeeeeeeeeee",
                "decimals": 18
            },
            {
                "address": "0xb64ef51c888972c908cfacf59b47c1afbc0ab8ac",
                "decimals": 8
            },
            {
                "address": "0xc02aaa39b223fe8d0a0e5c4f27ead9083c756cc2",
                "decimals": 18
            }
        ]
    },
    "address_label": {
        "labels": [
            {
                "address": "0xeeeeeeeeeeeeeeeeeeeeeeeeeeeeeeeeeeeeeeee",
                "label": "Ether"
            },
            {
                "address": "0xb64ef51c888972c908cfacf59b47c1afbc0ab8ac",
                "label": "Storj (STORJ)"
            },
            {
                "address": "0x0000000000000000000000000000000000000001",
                "label": "Precompiled"
            },
            {
                "address": "0x0000000000000000000000000000000000000002",
                "label": "Precompiled"
            },
            {
                "address": "0x0000000000000000000000000000000000000003",
                "label": "Precompiled"
            },
            {
                "address": "0x0000000000000000000000000000000000000004",
                "label": "Precompiled"
            }
        ]
    },
    "trace": {
        "accountLabels": null,
        "dataMap": {
            "-1": {
                "invocation": {
                    "address": "0x303edcd8dbe1607fe512d45cc15d3e41fa4db44b",
                    "callData": "",
                    "decodedMethod": null,
                    "errorInfo": "",
                    "fromAddress": "",
                    "gasUsed": 0,
                    "id": -1,
                    "methodDecoded": false,
                    "operation": "",
                    "output": "",
                    "revert": false,
                    "revertMessage": "",
                    "selector": "",
                    "status": false,
                    "value": ""
                },
                "nodeType": 0
            },
            "0": {
                "invocation": {
                    "address": "0xb64ef51c888972c908cfacf59b47c1afbc0ab8ac",
                    "callData": "0x00000000000000000000000017a3765ee7d74e26230b275f298a5af3982e2a94000000000000000000000000000000000000000000000000000000005373dcc4",
                    "decodedMethod": {
                        "callParams": [
                            {
                                "name": "_to",
                                "type": "address",
                                "value": "0x17a3765ee7d74e26230b275f298a5af3982e2a94"
                            },
                            {
                                "decimalAvailable": true,
                                "name": "_value",
                                "type": "uint256",
                                "value": "1,400,102,084"
                            }
                        ],
                        "constructorArguments": "",
                        "name": "transfer",
                        "returnParams": [
                            {
                                "name": "success",
                                "type": "bool",
                                "value": true
                            }
                        ],
                        "signature": "transfer(address,uint256)"
                    },
                    "errorInfo": "",
                    "fromAddress": "0x303edcd8dbe1607fe512d45cc15d3e41fa4db44b",
                    "gasUsed": 34896,
                    "id": 0,
                    "methodDecoded": true,
                    "operation": "CALL",
                    "output": "0x0000000000000000000000000000000000000000000000000000000000000001",
                    "revert": false,
                    "revertMessage": "",
                    "selector": "0xa9059cbb",
                    "status": true,
                    "value": "0"
                },
                "nodeType": 0
            },
            "1": {
                "event": {
                    "contract": "0xb64ef51c888972c908cfacf59b47c1afbc0ab8ac",
                    "decodedLog": {
                        "name": "Transfer",
                        "params": [
                            {
                                "name": "from",
                                "type": "address",
                                "value": "0x303edcd8dbe1607fe512d45cc15d3e41fa4db44b"
                            },
                            {
                                "name": "to",
                                "type": "address",
                                "value": "0x17a3765ee7d74e26230b275f298a5af3982e2a94"
                            },
                            {
                                "decimalAvailable": true,
                                "name": "value",
                                "type": "uint256",
                                "value": "1,400,102,084"
                            }
                        ],
                        "signature": "Transfer(address,address,uint256)"
                    },
                    "id": 1,
                    "logData": "0x000000000000000000000000000000000000000000000000000000005373dcc4",
                    "logDecoded": true,
                    "operation": "EVENT",
                    "revert": false,
                    "status": true,
                    "topics": [
                        "0xddf252ad1be2c89b69c2b068fc378daa952ba7f163c4a11628f55a4df523b3ef",
                        "0x000000000000000000000000303edcd8dbe1607fe512d45cc15d3e41fa4db44b",
                        "0x00000000000000000000000017a3765ee7d74e26230b275f298a5af3982e2a94"
                    ]
                },
                "nodeType": 1
            }
        },
        "gasFlame": [
            {
                "children": [
                    {
                        "children": [
                            {
                                "children": [],
                                "depth": 0,
                                "name": "Initial Gas",
                                "value": 21608
                            },
                            {
                                "children": [],
                                "depth": 0,
                                "name": "Executed Gas",
                                "value": 13288
                            }
                        ],
                        "depth": -1,
                        "name": "Actual Gas Used",
                        "value": 34896
                    },
                    {
                        "children": [],
                        "depth": -1,
                        "name": "Refunded Gas",
                        "value": 0
                    }
                ],
                "depth": -2,
                "name": "Total Gas",
                "value": 34896
            }
        ],
        "isConfirmed": true,
        "mainTrace": [
            {
                "children": [
                    {
                        "children": [
                            {
                                "children": [],
                                "depth": 1,
                                "id": 1,
                                "order": 1
                            }
                        ],
                        "depth": 0,
                        "id": 0,
                        "order": 0
                    }
                ],
                "depth": -1,
                "id": -1,
                "order": -1
            }
        ],
        "mainTraceNodeCount": 2,
        "parentIdMap": {
            "0": -1,
            "1": 0
        },
        "tidyTrace": [
            {
                "children": [
                    {
                        "children": [
                            {
                                "children": [],
                                "depth": 1,
                                "id": 1,
                                "order": 1
                            }
                        ],
                        "depth": 0,
                        "id": 0,
                        "order": 0
                    }
                ],
                "depth": -1,
                "id": -1,
                "order": -1
            }
        ],
        "tidyTraceNodeCount": 2
    },
    "state_change": {
        "stateChanges": [
            {
                "address": "0xb64ef51c888972c908cfacf59b47c1afbc0ab8ac",
                "erc": "ERC-20",
                "slots": [
                    {
                        "current": "0x0000000000000000000000000000000000000000000000000000027da9ae6e19",
                        "key": "0xf7911138405525a1be0d5c59dd19307257e1d4d477e775cb2b12ab4c631a6142",
                        "prev": "0x0000000000000000000000000000000000000000000000000000027dfd224add"
                    },
                    {
                        "current": "0x00000000000000000000000000000000000000000000000000000000b463f416",
                        "key": "0x8c5e9aa4f32a533ccf77f868c22015d534aaff70ea85791db6e7af7fdcf97ab8",
                        "prev": "0x0000000000000000000000000000000000000000000000000000000060f01752"
                    }
                ],
                "storageVariables": []
            }
        ]
    }
}