{
    "balance_change": {
        "balanceChanges": []
    },
    "profile": {
        "basic_info": {
            "baseFee": "",
            "blockNumber": 10126199,
            "callData": "0x648873340000000000000000000000000000000000000000000000000000000000000080000000000000000000000000000000000000000000000000000000000000014000000000000000000000000000000000000000000000000000000000009a8375000000000000000000000000000000000000000000000000000000000000020000000000000000000000000000000000000000000000000000000000000000050000192300df1cd9000000ff00f100000000000000000000000000000000000053380019341afb220000000000f4000000000000000000000000000000000000330908fb0029493a000000000000000000000000000000000000000000000000d000cb00fd2331000030530000390000000000000000000000000000000000005c00f0cb0000000000fa10d7290000000000000000000000000000000000000000000000000000000000000000000000000000000000000000000000000000050000f2df0022e62d00030001000f000000000000000000000000000000000000b7cf00eacfee0be000000000000e000000000000000000000000000000000000d0f6040600d9c6ce0000000000000000000000000000000000000000000000003600380003dcd50000cecd0000d1000000000000000000000000000000000000f700182f000000000006f14cd500000000000000000000000000000000000000000000000000000000000000000000000000000000000000000000000000000500000000000000000000000000000000000000000000000000000000000000030000000000000000000000000000000000000000000000000000000000000000000000000000000000000000000000000000000000000000000000000000000400000000000000000000000000000000000000000000000000000000000000010000000000000000000000000000000000000000000000000000000000000002",
            "debugEnable": true,
            "errorInfo": "",
            "eventCount": 0,
            "feeRecipient": "0x829bd824b016326a401d083b33d092293333a830",
            "formatValue": "0",
            "gasLimit": 112440,
            "gasPrice": "26",
            "gasUsed": 62440,
            "intTxnCount": 0,
            "internalRevert": false,
            "internalRevertMessage": "",
            "isContractCreation": false,
            "isFlashloan": false,
            "maxFee": "",
            "nonce": 841858,
            "overwritedBlockNumber": -1,
            "priorityFee": "",
            "receiver": "0x798abda6cc246d0edba912092a2a3dbd3d11191b",
            "revertMessage": "",
            "sender": "0x8bc3da587def887b5c822105729ee1d6af05a5ca",
            "simulationEnable": true,
            "sourceTxnHash": "0x465b5b08d703c1bddb613f11d3faf017181c796396b9f801816cc8512cc590b9",
            "status": true,
            "timestamp": "2020-05-24T03:40:51Z",
            "transactionFee": "0.00162344",
            "txnHash": "0x465b5b08d703c1bddb613f11d3faf017181c796396b9f801816cc8512cc590b9",
            "txnIndex": 74,
            "type": 0,
            "value": "0"
        },
        "fund_flow": [],
        "token_infos": [
            {
                "address": "0xc02aaa39b223fe8d0a0e5c4f27ead9083c756cc2",
                "decimals": 18
            },
            {
                "address": "0xeeeeeeeeeeeeeeeeeeeeeeeeeeeeeeeeeeeeeeee",
                "decimals": 18
            }
        ]
    },
    "address_label": {
        "labels": [
            {
                "address": "0x0000000000000000000000000000000000000004",
                "label": "Precompiled"
            },
            {
                "address": "0xeeeeeeeeeeeeeeeeeeeeeeeeeeeeeeeeeeeeeeee",
                "label": "Ether"
            },
            {
                "address": "0x798abda6cc246d0edba912092a2a3dbd3d11191b",
                "label": "Kyber: Conversion Rates"
            },
            {
                "address": "0x0000000000000000000000000000000000000001",
                "label": "Precompiled"
            },
            {
                "address": "0x0000000000000000000000000000000000000002",
                "label": "Precompiled"
            },
            {
                "address": "0x0000000000000000000000000000000000000003",
                "label": "Precompiled"
            }
        ]
    },
    "trace": {
        "accountLabels": null,
        "dataMap": {
            "-1": {
                "invocation": {
                    "address": "0x8bc3da587def887b5c822105729ee1d6af05a5ca",
                    "callData": "",
                    "decodedMethod": null,
                    "errorInfo": "",
                    "fromAddress": "",
                    "gasUsed": 0,
                    "id": -1,
                    "methodDecoded": false,
                    "operation": "",
                    "output": "",
                    "revert": false,
                    "revertMessage": "",
                    "selector": "",
                    "status": false,
                    "value": ""
                },
                "nodeType": 0
            },
            "0": {
                "invocation": {
                    "address": "0x798abda6cc246d0edba912092a2a3dbd3d11191b",
                    "callData": "0x0000000000000000000000000000000000000000000000000000000000000080000000000000000000000000000000000000000000000000000000000000014000000000000000000000000000000000000000000000000000000000009a8375000000000000000000000000000000000000000000000000000000000000020000000000000000000000000000000000000000000000000000000000000000050000192300df1cd9000000ff00f100000000000000000000000000000000000053380019341afb220000000000f4000000000000000000000000000000000000330908fb0029493a000000000000000000000000000000000000000000000000d000cb00fd2331000030530000390000000000000000000000000000000000005c00f0cb0000000000fa10d7290000000000000000000000000000000000000000000000000000000000000000000000000000000000000000000000000000050000f2df0022e62d00030001000f000000000000000000000000000000000000b7cf00eacfee0be000000000000e000000000000000000000000000000000000d0f6040600d9c6ce0000000000000000000000000000000000000000000000003600380003dcd50000cecd0000d1000000000000000000000000000000000000f700182f000000000006f14cd500000000000000000000000000000000000000000000000000000000000000000000000000000000000000000000000000000500000000000000000000000000000000000000000000000000000000000000030000000000000000000000000000000000000000000000000000000000000000000000000000000000000000000000000000000000000000000000000000000400000000000000000000000000000000000000000000000000000000000000010000000000000000000000000000000000000000000000000000000000000002",
                    "decodedMethod": {
                        "callParams": [
                            {
                                "name": "buy",
                                "type": "bytes14[]",
                                "value": [
                                    "0x0000192300df1cd9000000ff00f1",
                                    "0x53380019341afb220000000000f4",
                                    "0x330908fb0029493a000000000000",
                                    "0xd000cb00fd233100003053000039",
                                    "0x5c00f0cb0000000000fa10d72900"
                                ]
                            },
                            {
                                "name": "sell",
                                "type": "bytes14[]",
                                "value": [
                                    "0x0000f2df0022e62d00030001000f",
                                    "0xb7cf00eacfee0be000000000000e",
                                    "0xd0f6040600d9c6ce000000000000",
                                    "0x3600380003dcd50000cecd0000d1",
                                    "0xf700182f000000000006f14cd500"
                                ]
                            },
                            {
                                "name": "blockNumber",
                                "type": "uint256",
                                "value": "10,126,197"
                            },
                            {
                                "name": "indices",
                                "type": "uint256[]",
                                "value": [
                                    "3",
                                    "0",
                                    "4",
                                    "1",
                                    "2"
                                ]
                            }
                        ],
                        "constructorArguments": "",
                        "name": "setCompactData",
                        "returnParams": [],
                        "signature": "setCompactData(bytes14[],bytes14[],uint256,uint256[])"
                    },
                    "errorInfo": "",
                    "fromAddress": "0x8bc3da587def887b5c822105729ee1d6af05a5ca",
                    "gasUsed": 62440,
                    "id": 0,
                    "methodDecoded": true,
                    "operation": "CALL",
                    "output": "",
                    "revert": false,
                    "revertMessage": "",
                    "selector": "0x64887334",
                    "status": true,
                    "value": "0"
                },
                "nodeType": 0
            }
        },
        "gasFlame": [
            {
                "children": [
                    {
                        "children": [
                            {
                                "children": [],
                                "depth": 0,
                                "name": "Initial Gas",
                                "value": 24948
                            },
                            {
                                "children": [],
                                "depth": 0,
                                "name": "Executed Gas",
                                "value": 37492
                            }
                        ],
                        "depth": -1,
                        "name": "Actual Gas Used",
                        "value": 62440
                    },
                    {
                        "children": [],
                        "depth": -1,
                        "name": "Refunded Gas",
                        "value": 0
                    }
                ],
                "depth": -2,
                "name": "Total Gas",
                "value": 62440
            }
        ],
        "isConfirmed": true,
        "mainTrace": [
            {
                "children": [
                    {
                        "children": [],
                        "depth": 0,
                        "id": 0,
                        "order": 0
                    }
                ],
                "depth": -1,
                "id": -1,
                "order": -1
            }
        ],
        "mainTraceNodeCount": 1,
        "parentIdMap": {
            "0": -1
        },
        "tidyTrace": [
            {
                "children": [
                    {
                        "children": [],
                        "depth": 0,
                        "id": 0,
                        "order": 0
                    }
                ],
                "depth": -1,
                "id": -1,
                "order": -1
            }
        ],
        "tidyTraceNodeCount": 1
    },
    "state_change": {
        "stateChanges": [
            {
                "address": "0x798abda6cc246d0edba912092a2a3dbd3d11191b",
                "erc": "",
                "slots": [
                    {
                        "current": "0x009a83750000f2df0022e62d00030001000f0000192300df1cd9000000ff00f1",
                        "key": "0xdf6966c971051c3d54ec59162606531493a51404a002842f56009d7e5cf4a8ca",
                        "prev": "0x009a83700000f4df0020e62f0003000200100000182300df1cd8000000fe00f0"
                    },
                    {
                        "current": "0x009a8375b7cf00eacfee0be000000000000e53380019341afb220000000000f4",
                        "key": "0xdf6966c971051c3d54ec59162606531493a51404a002842f56009d7e5cf4a8c7",
                        "prev": "0x009a8370b8ce00ead0ee0be000000000000e523800193319fb220000000000f4"
                    },
                    {
                        "current": "0x009a8375d0f6040600d9c6ce000000000000330908fb0029493a000000000000",
                        "key": "0xdf6966c971051c3d54ec59162606531493a51404a002842f56009d7e5cf4a8cb",
                        "prev": "0x009a8370d1f6050500dac6ce000000000000320907fb00284939000000000000"
                    },
                    {
                        "current": "0x009a83753600380003dcd50000cecd0000d1d000cb00fd233100003053000039",
                        "key": "0xdf6966c971051c3d54ec59162606531493a51404a002842f56009d7e5cf4a8c8",
                        "prev": "0x009a83703600380003dcd60000cfcd0000d4d000cb00fd233100002f53000032"
                    },
                    {
                        "current": "0x009a8375f700182f000000000006f14cd5005c00f0cb0000000000fa10d72900",
                        "key": "0xdf6966c971051c3d54ec59162606531493a51404a002842f56009d7e5cf4a8c9",
                        "prev": "0x009a8370fa00182f000000000006f14ad5005a00f0cb0000000000fa10d82900"
                    }
                ],
                "storageVariables": [
                    {
                        "name": "tokenRatesCompactData",
                        "type": "bytes32[]",
                        "value": {
                            "elemType": "bytes32",
                            "elems": [
                                {
                                    "index": 0,
                                    "value": {
                                        "current": "0x009a8375b7cf00eacfee0be000000000000e53380019341afb220000000000f4",
                                        "prev": "0x009a8370b8ce00ead0ee0be000000000000e523800193319fb220000000000f4",
                                        "typeTag": 1
                                    }
                                },
                                {
                                    "index": 1,
                                    "value": {
                                        "current": "0x009a83753600380003dcd50000cecd0000d1d000cb00fd233100003053000039",
                                        "prev": "0x009a83703600380003dcd60000cfcd0000d4d000cb00fd233100002f53000032",
                                        "typeTag": 1
                                    }
                                },
                                {
                                    "index": 2,
                                    "value": {
                                        "current": "0x009a8375f700182f000000000006f14cd5005c00f0cb0000000000fa10d72900",
                                        "prev": "0x009a8370fa00182f000000000006f14ad5005a00f0cb0000000000fa10d82900",
                                        "typeTag": 1
                                    }
                                },
                                {
                                    "index": 3,
                                    "value": {
                                        "current": "0x009a83750000f2df0022e62d00030001000f0000192300df1cd9000000ff00f1",
                                        "prev": "0x009a83700000f4df0020e62f0003000200100000182300df1cd8000000fe00f0",
                                        "typeTag": 1
                                    }
                                },
                                {
                                    "index": 4,
                                    "value": {
                                        "current": "0x009a8375d0f6040600d9c6ce000000000000330908fb0029493a000000000000",
                                        "prev": "0x009a8370d1f6050500dac6ce000000000000320907fb00284939000000000000",
                                        "typeTag": 1
                                    }
                                }
                            ],
                            "typeTag": 2
                        }
                    }
                ]
            }
        ]
    }
}