{
    "balance_change": {
        "balanceChanges": [
            {
                "account": "0x451cbee167d82df13ad90170cad5769ca39fc40d",
                "assets": [
                    {
                        "address": "0x329fd5e0d9aad262b13ca07c87d001bec716ed39",
                        "amount": "1",
                        "iconUrl": "",
                        "isERC1155": false,
                        "isERC721": true,
                        "sign": false,
                        "tokenID": "4586",
                        "value": ""
                    }
                ]
            },
            {
                "account": "0xabdb1f94bff885bd8933ac4f8aaacda4326491de",
                "assets": [
                    {
                        "address": "0x329fd5e0d9aad262b13ca07c87d001bec716ed39",
                        "amount": "1",
                        "iconUrl": "",
                        "isERC1155": false,
                        "isERC721": true,
                        "sign": true,
                        "tokenID": "4586",
                        "value": ""
                    }
                ]
            }
        ]
    },
    "profile": {
        "basic_info": {
            "baseFee": "34.99463596",
            "blockNumber": 13280458,
            "callData": "0x23b872dd000000000000000000000000451cbee167d82df13ad90170cad5769ca39fc40d000000000000000000000000abdb1f94bff885bd8933ac4f8aaacda4326491de00000000000000000000000000000000000000000000000000000000000011ea",
            "debugEnable": true,
            "errorInfo": "",
            "eventCount": 2,
            "feeRecipient": "0xb3b7874f13387d44a3398d298b075b7a3505d8d4",
            "formatValue": "0",
            "gasLimit": 97328,
            "gasPrice": "36",
            "gasUsed": 87728,
            "intTxnCount": 0,
            "internalRevert": false,
            "internalRevertMessage": "",
            "isContractCreation": false,
            "isFlashloan": false,
            "maxFee": "36",
            "nonce": 21,
            "overwritedBlockNumber": -1,
            "priorityFee": "2",
            "receiver": "0x329fd5e0d9aad262b13ca07c87d001bec716ed39",
            "revertMessage": "",
            "sender": "0x451cbee167d82df13ad90170cad5769ca39fc40d",
            "simulationEnable": true,
            "sourceTxnHash": "0x463a96616f4d861b2809b6a34eec2c0feddfe37eba5ac7e211080330dedeb371",
            "status": true,
            "timestamp": "2021-09-23T06:46:40Z",
            "transactionFee": "0.003158208",
            "txnHash": "0x463a96616f4d861b2809b6a34eec2c0feddfe37eba5ac7e211080330dedeb371",
            "txnIndex": 173,
            "type": 2,
            "value": "0"
        },
        "fund_flow": [
            {
                "amount": "1",
                "from": "0x451cbee167d82df13ad90170cad5769ca39fc40d",
                "id": 1,
                "isERC1155": false,
                "isERC721": true,
                "isReverted": false,
                "order": 1,
                "to": "0xabdb1f94bff885bd8933ac4f8aaacda4326491de",
                "token": "0x329fd5e0d9aad262b13ca07c87d001bec716ed39",
                "tokenID": "4586"
            }
        ],
        "token_infos": [
            {
                "address": "0xc02aaa39b223fe8d0a0e5c4f27ead9083c756cc2",
                "decimals": 18
            },
            {
                "address": "0xeeeeeeeeeeeeeeeeeeeeeeeeeeeeeeeeeeeeeeee",
                "decimals": 18
            }
        ]
    },
    "address_label": {
        "labels": [
            {
                "address": "0x0000000000000000000000000000000000000002",
                "label": "Precompiled"
            },
            {
                "address": "0x0000000000000000000000000000000000000003",
                "label": "Precompiled"
            },
            {
                "address": "0x0000000000000000000000000000000000000004",
                "label": "Precompiled"
            },
            {
                "address": "0xeeeeeeeeeeeeeeeeeeeeeeeeeeeeeeeeeeeeeeee",
                "label": "Ether"
            },
            {
                "address": "0x329fd5e0d9aad262b13ca07c87d001bec716ed39",
                "label": "Card (Card)"
            },
            {
                "address": "0x0000000000000000000000000000000000000001",
                "label": "Precompiled"
            }
        ]
    },
    "trace": {
        "accountLabels": null,
        "dataMap": {
            "-1": {
                "invocation": {
                    "address": "0x451cbee167d82df13ad90170cad5769ca39fc40d",
                    "callData": "",
                    "decodedMethod": null,
                    "errorInfo": "",
                    "fromAddress": "",
                    "gasUsed": 0,
                    "id": -1,
                    "methodDecoded": false,
                    "operation": "",
                    "output": "",
                    "revert": false,
                    "revertMessage": "",
                    "selector": "",
                    "status": false,
                    "value": ""
                },
                "nodeType": 0
            },
            "0": {
                "invocation": {
                    "address": "0x329fd5e0d9aad262b13ca07c87d001bec716ed39",
                    "callData": "0x000000000000000000000000451cbee167d82df13ad90170cad5769ca39fc40d000000000000000000000000abdb1f94bff885bd8933ac4f8aaacda4326491de00000000000000000000000000000000000000000000000000000000000011ea",
                    "decodedMethod": {
                        "callParams": [
                            {
                                "name": "from",
                                "type": "address",
                                "value": "0x451cbee167d82df13ad90170cad5769ca39fc40d"
                            },
                            {
                                "name": "to",
                                "type": "address",
                                "value": "0xabdb1f94bff885bd8933ac4f8aaacda4326491de"
                            },
                            {
                                "decimalAvailable": true,
                                "name": "tokenId",
                                "type": "uint256",
                                "value": "4,586"
                            }
                        ],
                        "constructorArguments": "",
                        "name": "transferFrom",
                        "returnParams": [],
                        "signature": "transferFrom(address,address,uint256)"
                    },
                    "errorInfo": "",
                    "fromAddress": "0x451cbee167d82df13ad90170cad5769ca39fc40d",
                    "gasUsed": 87728,
                    "id": 0,
                    "methodDecoded": true,
                    "operation": "CALL",
                    "output": "",
                    "revert": false,
                    "revertMessage": "",
                    "selector": "0x23b872dd",
                    "status": true,
                    "value": "0"
                },
                "nodeType": 0
            },
            "1": {
                "event": {
                    "contract": "0x329fd5e0d9aad262b13ca07c87d001bec716ed39",
                    "decodedLog": {
                        "name": "Approval",
                        "params": [
                            {
                                "name": "owner",
                                "type": "address",
                                "value": "0x451cbee167d82df13ad90170cad5769ca39fc40d"
                            },
                            {
                                "name": "approved",
                                "type": "address",
                                "value": "0x0000000000000000000000000000000000000000"
                            },
                            {
                                "decimalAvailable": true,
                                "name": "tokenId",
                                "type": "uint256",
                                "value": "4,586"
                            }
                        ],
                        "signature": "Approval(address,address,uint256)"
                    },
                    "id": 1,
                    "logData": "0x",
                    "logDecoded": true,
                    "operation": "EVENT",
                    "revert": false,
                    "status": true,
                    "topics": [
                        "0x8c5be1e5ebec7d5bd14f71427d1e84f3dd0314c0f7b2291e5b200ac8c7c3b925",
                        "0x000000000000000000000000451cbee167d82df13ad90170cad5769ca39fc40d",
                        "0x0000000000000000000000000000000000000000000000000000000000000000",
                        "0x00000000000000000000000000000000000000000000000000000000000011ea"
                    ]
                },
                "nodeType": 1
            },
            "2": {
                "event": {
                    "contract": "0x329fd5e0d9aad262b13ca07c87d001bec716ed39",
                    "decodedLog": {
                        "name": "Transfer",
                        "params": [
                            {
                                "name": "from",
                                "type": "address",
                                "value": "0x451cbee167d82df13ad90170cad5769ca39fc40d"
                            },
                            {
                                "name": "to",
                                "type": "address",
                                "value": "0xabdb1f94bff885bd8933ac4f8aaacda4326491de"
                            },
                            {
                                "decimalAvailable": true,
                                "name": "tokenId",
                                "type": "uint256",
                                "value": "4,586"
                            }
                        ],
                        "signature": "Transfer(address,address,uint256)"
                    },
                    "id": 2,
                    "logData": "0x",
                    "logDecoded": true,
                    "operation": "EVENT",
                    "revert": false,
                    "status": true,
                    "topics": [
                        "0xddf252ad1be2c89b69c2b068fc378daa952ba7f163c4a11628f55a4df523b3ef",
                        "0x000000000000000000000000451cbee167d82df13ad90170cad5769ca39fc40d",
                        "0x000000000000000000000000abdb1f94bff885bd8933ac4f8aaacda4326491de",
                        "0x00000000000000000000000000000000000000000000000000000000000011ea"
                    ]
                },
                "nodeType": 1
            }
        },
        "gasFlame": [
            {
                "children": [
                    {
                        "children": [
                            {
                                "children": [],
                                "depth": 0,
                                "name": "Initial Gas",
                                "value": 21952
                            },
                            {
                                "children": [],
                                "depth": 0,
                                "name": "Executed Gas",
                                "value": 75376
                            }
                        ],
                        "depth": -1,
                        "name": "Actual Gas Used",
                        "value": 87728
                    },
                    {
                        "children": [],
                        "depth": -1,
                        "name": "Refunded Gas",
                        "value": 9600
                    }
                ],
                "depth": -2,
                "name": "Total Gas",
                "value": 97328
            }
        ],
        "isConfirmed": true,
        "mainTrace": [
            {
                "children": [
                    {
                        "children": [
                            {
                                "children": [],
                                "depth": 1,
                                "id": 1,
                                "order": 1
                            },
                            {
                                "children": [],
                                "depth": 1,
                                "id": 2,
                                "order": 2
                            }
                        ],
                        "depth": 0,
                        "id": 0,
                        "order": 0
                    }
                ],
                "depth": -1,
                "id": -1,
                "order": -1
            }
        ],
        "mainTraceNodeCount": 3,
        "parentIdMap": {
            "0": -1,
            "1": 0,
            "2": 0
        },
        "tidyTrace": [
            {
                "children": [
                    {
                        "children": [
                            {
                                "children": [],
                                "depth": 1,
                                "id": 1,
                                "order": 1
                            },
                            {
                                "children": [],
                                "depth": 1,
                                "id": 2,
                                "order": 2
                            }
                        ],
                        "depth": 0,
                        "id": 0,
                        "order": 0
                    }
                ],
                "depth": -1,
                "id": -1,
                "order": -1
            }
        ],
        "tidyTraceNodeCount": 3
    },
    "state_change": {
        "stateChanges": [
            {
                "address": "0x329fd5e0d9aad262b13ca07c87d001bec716ed39",
                "erc": "ERC-721",
                "slots": [
                    {
                        "current": "0x000000000000000000000000abdb1f94bff885bd8933ac4f8aaacda4326491de",
                        "key": "0xb2ec441f932da07d03380e570d1d5922b8af8f44ae7f4c6d697045a62fe8bf80",
                        "prev": "0x000000000000000000000000451cbee167d82df13ad90170cad5769ca39fc40d"
                    },
                    {
                        "current": "0x0000000000000000000000000000000000000000000000000000000000000000",
                        "key": "0x8613012929d227718c65dbbec6973319007e45faf285e586095eaf1a72c40bad",
                        "prev": "0x00000000000000000000000000000000000000000000000000000000000011ea"
                    },
                    {
                        "current": "0x00000000000000000000000000000000000000000000000000000000000011ea",
                        "key": "0x3d5299eb6795cc935c4edf17658485204e3ad3e12e63e837d5e81b95c6936e70",
                        "prev": "0x0000000000000000000000000000000000000000000000000000000000000000"
                    },
                    {
                        "current": "0x0000000000000000000000000000000000000000000000000000000000000001",
                        "key": "0xbf4cf394b95a705e04e4fcabae0a969b968bbff457df1ea41134b7e7471723cf",
                        "prev": "0x0000000000000000000000000000000000000000000000000000000000000000"
                    },
                    {
                        "current": "0x0000000000000000000000000000000000000000000000000000000000000000",
                        "key": "0x0a508c9b47b232ed7c8b646dab20b233a3693c872d257de1054346d616210cf4",
                        "prev": "0x0000000000000000000000000000000000000000000000000000000000000001"
                    },
                    {
                        "current": "0x0000000000000000000000000000000000000000000000000000000000000002",
                        "key": "0xee0a9660399f2bce797e984f15864b756f3b57c8e9a040ed0f3182dff7daa20b",
                        "prev": "0x0000000000000000000000000000000000000000000000000000000000000001"
                    }
                ],
                "storageVariables": [
                    {
                        "name": "_ownedTokensIndex",
                        "type": "mapping(uint256 => uint256)",
                        "value": {
                            "pairs": [
                                {
                                    "key": "4586",
                                    "value": {
                                        "current": "1",
                                        "prev": "0",
                                        "typeTag": 1
                                    }
                                }
                            ],
                            "typeTag": 4
                        }
                    },
                    {
                        "name": "_balances",
                        "type": "mapping(address => uint256)",
                        "value": {
                            "pairs": [
                                {
                                    "key": "0x451cbee167d82df13ad90170cad5769ca39fc40d",
                                    "value": {
                                        "current": "0",
                                        "prev": "1",
                                        "typeTag": 1
                                    }
                                },
                                {
                                    "key": "0xabdb1f94bff885bd8933ac4f8aaacda4326491de",
                                    "value": {
                                        "current": "2",
                                        "prev": "1",
                                        "typeTag": 1
                                    }
                                }
                            ],
                            "typeTag": 4
                        }
                    },
                    {
                        "name": "_owners",
                        "type": "mapping(uint256 => address)",
                        "value": {
                            "pairs": [
                                {
                                    "key": "4586",
                                    "value": {
                                        "current": "0xabdb1f94bff885bd8933ac4f8aaacda4326491de",
                                        "prev": "0x451cbee167d82df13ad90170cad5769ca39fc40d",
                                        "typeTag": 1
                                    }
                                }
                            ],
                            "typeTag": 4
                        }
                    },
                    {
                        "name": "_ownedTokens",
                        "type": "mapping(address => mapping(uint256 => uint256))",
                        "value": {
                            "pairs": [
                                {
                                    "key": "0x451cbee167d82df13ad90170cad5769ca39fc40d",
                                    "value": {
                                        "pairs": [
                                            {
                                                "key": "0",
                                                "value": {
                                                    "current": "0",
                                                    "prev": "4586",
                                                    "typeTag": 1
                                                }
                                            }
                                        ],
                                        "typeTag": 4
                                    }
                                },
                                {
                                    "key": "0xabdb1f94bff885bd8933ac4f8aaacda4326491de",
                                    "value": {
                                        "pairs": [
                                            {
                                                "key": "1",
                                                "value": {
                                                    "current": "4586",
                                                    "prev": "0",
                                                    "typeTag": 1
                                                }
                                            }
                                        ],
                                        "typeTag": 4
                                    }
                                }
                            ],
                            "typeTag": 4
                        }
                    }
                ]
            }
        ]
    }
}