{
    "balance_change": {
        "balanceChanges": []
    },
    "profile": {
        "basic_info": {
            "baseFee": "",
            "blockNumber": 12793743,
            "callData": "0xb77d239b00000000000000000000000000000000000000000000000000000000000000c000000000000000000000000000000000000000000000000000000000ee6b28000000000000000000000000000000000000000000000001480c81a252b55c41a50000000000000000000000000000000000000000000000000000000000000000000000000000000000000000000000000000000000000000000000000000000000000000000000000000000000000000000000000000000000000000000000000000000000000000000000000000000000000000000000000000000000000005000000000000000000000000dac17f958d2ee523a2206206994597c13d831ec70000000000000000000000005365b5bc56493f08a38e5eb08e36cbbe6fcc83060000000000000000000000001f573d6fb3f13d689ff844b4ce37794d79a7ff1c00000000000000000000000079d83b390cf0edf86b9efbe47b556cc6e20926ac0000000000000000000000000f5d2fb29fb7d3cfee444a200298f468908cc942",
            "debugEnable": true,
            "errorInfo": "execution reverted",
            "eventCount": 13,
            "feeRecipient": "0xea674fdde714fd979de3edf0f56aa9716b898ec8",
            "formatValue": "0",
            "gasLimit": 282198,
            "gasPrice": "40",
            "gasUsed": 249841,
            "intTxnCount": 18,
            "internalRevert": true,
            "internalRevertMessage": "",
            "isContractCreation": false,
            "isFlashloan": false,
            "maxFee": "",
            "nonce": 12250,
            "overwritedBlockNumber": -1,
            "priorityFee": "",
            "receiver": "0x2f9ec37d6ccfff1cab21733bdadede11c823ccb0",
            "revertMessage": "ERR_RETURN_TOO_LOW",
            "sender": "0xa6256de4c5ff4037c7f3952b3eb6f66f4b94e2e2",
            "simulationEnable": true,
            "sourceTxnHash": "0x4763132491f3645792da89507b5b584503d867b3c1e850c7203b6d5dea0a8d68",
            "status": false,
            "timestamp": "2021-07-09T14:41:24Z",
            "transactionFee": "0.00999364",
            "txnHash": "0x4763132491f3645792da89507b5b584503d867b3c1e850c7203b6d5dea0a8d68",
            "txnIndex": 42,
            "type": 0,
            "value": "0"
        },
        "fund_flow": [],
        "token_infos": [
            {
                "address": "0x0f5d2fb29fb7d3cfee444a200298f468908cc942",
                "decimals": 18
            },
            {
                "address": "0x1f573d6fb3f13d689ff844b4ce37794d79a7ff1c",
                "decimals": 18
            },
            {
                "address": "0xc02aaa39b223fe8d0a0e5c4f27ead9083c756cc2",
                "decimals": 18
            },
            {
                "address": "0xdac17f958d2ee523a2206206994597c13d831ec7",
                "decimals": 6
            },
            {
                "address": "0xeeeeeeeeeeeeeeeeeeeeeeeeeeeeeeeeeeeeeeee",
                "decimals": 18
            }
        ]
    },
    "address_label": {
        "labels": [
            {
                "address": "0x79d83b390cf0edf86b9efbe47b556cc6e20926ac",
                "label": "MANABNT Smart Token Relay (MANABNT)"
            },
            {
                "address": "0x2f9ec37d6ccfff1cab21733bdadede11c823ccb0",
                "label": "Bancor: Swaps"
            },
            {
                "address": "0x0000000000000000000000000000000000000002",
                "label": "Precompiled"
            },
            {
                "address": "0x0000000000000000000000000000000000000003",
                "label": "Precompiled"
            },
            {
                "address": "0x1f573d6fb3f13d689ff844b4ce37794d79a7ff1c",
                "label": "Bancor: BNT Token"
            },
            {
                "address": "0x52ae12abe5d8bd778bd5397f99ca900624cfadd4",
                "label": "Bancor: Contract Registry"
            },
            {
                "address": "0x0000000000000000000000000000000000000004",
                "label": "Precompiled"
            },
            {
                "address": "0x79d89b87468a59b9895b31e3a373dc5973d60065",
                "label": "Bancor: Converter 556"
            },
            {
                "address": "0xdac17f958d2ee523a2206206994597c13d831ec7",
                "label": "Tether: USDT Stablecoin"
            },
            {
                "address": "0x0000000000000000000000000000000000000000",
                "label": "Null Address"
            },
            {
                "address": "0x0000000000000000000000000000000000000001",
                "label": "Precompiled"
            },
            {
                "address": "0xeeeeeeeeeeeeeeeeeeeeeeeeeeeeeeeeeeeeeeee",
                "label": "Ether"
            },
            {
                "address": "0x0f5d2fb29fb7d3cfee444a200298f468908cc942",
                "label": "Decentraland: MANA Token"
            },
            {
                "address": "0x5365b5bc56493f08a38e5eb08e36cbbe6fcc8306",
                "label": "USDT Main Token Relay (USDTBNT)"
            },
            {
                "address": "0xbe4b63cbb413b5d1f71f06ba2309b3dd95712a61",
                "label": "Bancor: Converter 632"
            }
        ]
    },
    "trace": {
        "accountLabels": null,
        "dataMap": {
            "-1": {
                "invocation": {
                    "address": "0xa6256de4c5ff4037c7f3952b3eb6f66f4b94e2e2",
                    "callData": "",
                    "decodedMethod": null,
                    "errorInfo": "",
                    "fromAddress": "",
                    "gasUsed": 0,
                    "id": -1,
                    "methodDecoded": false,
                    "operation": "",
                    "output": "",
                    "revert": false,
                    "revertMessage": "",
                    "selector": "",
                    "status": false,
                    "value": ""
                },
                "nodeType": 0
            },
            "0": {
                "invocation": {
                    "address": "0x2f9ec37d6ccfff1cab21733bdadede11c823ccb0",
                    "callData": "0x00000000000000000000000000000000000000000000000000000000000000c000000000000000000000000000000000000000000000000000000000ee6b28000000000000000000000000000000000000000000000001480c81a252b55c41a50000000000000000000000000000000000000000000000000000000000000000000000000000000000000000000000000000000000000000000000000000000000000000000000000000000000000000000000000000000000000000000000000000000000000000000000000000000000000000000000000000000000000005000000000000000000000000dac17f958d2ee523a2206206994597c13d831ec70000000000000000000000005365b5bc56493f08a38e5eb08e36cbbe6fcc83060000000000000000000000001f573d6fb3f13d689ff844b4ce37794d79a7ff1c00000000000000000000000079d83b390cf0edf86b9efbe47b556cc6e20926ac0000000000000000000000000f5d2fb29fb7d3cfee444a200298f468908cc942",
                    "decodedMethod": {
                        "callParams": [
                            {
                                "name": "_path",
                                "type": "address[]",
                                "value": [
                                    "0xdac17f958d2ee523a2206206994597c13d831ec7",
                                    "0x5365b5bc56493f08a38e5eb08e36cbbe6fcc8306",
                                    "0x1f573d6fb3f13d689ff844b4ce37794d79a7ff1c",
                                    "0x79d83b390cf0edf86b9efbe47b556cc6e20926ac",
                                    "0x0f5d2fb29fb7d3cfee444a200298f468908cc942"
                                ]
                            },
                            {
                                "name": "_amount",
                                "type": "uint256",
                                "value": "4,000,000,000"
                            },
                            {
                                "name": "_minReturn",
                                "type": "uint256",
                                "value": "6,051,433,236,053,297,480,101"
                            },
                            {
                                "name": "_beneficiary",
                                "type": "address",
                                "value": "0x0000000000000000000000000000000000000000"
                            },
                            {
                                "name": "_affiliateAccount",
                                "type": "address",
                                "value": "0x0000000000000000000000000000000000000000"
                            },
                            {
                                "name": "_affiliateFee",
                                "type": "uint256",
                                "value": "0"
                            }
                        ],
                        "constructorArguments": "",
                        "name": "convertByPath",
                        "returnParams": [],
                        "signature": "convertByPath(address[],uint256,uint256,address,address,uint256)"
                    },
                    "errorInfo": "execution reverted",
                    "fromAddress": "0xa6256de4c5ff4037c7f3952b3eb6f66f4b94e2e2",
                    "gasUsed": 249841,
                    "id": 0,
                    "methodDecoded": true,
                    "operation": "CALL",
                    "output": "0x08c379a0000000000000000000000000000000000000000000000000000000000000002000000000000000000000000000000000000000000000000000000000000000124552525f52455455524e5f544f4f5f4c4f570000000000000000000000000000",
                    "revert": true,
                    "revertMessage": "ERR_RETURN_TOO_LOW",
                    "selector": "0xb77d239b",
                    "status": false,
                    "value": "0"
                },
                "nodeType": 0
            },
            "1": {
                "invocation": {
                    "address": "0x5365b5bc56493f08a38e5eb08e36cbbe6fcc8306",
                    "callData": "0x",
                    "decodedMethod": {
                        "callParams": [],
                        "constructorArguments": "",
                        "name": "owner",
                        "returnParams": [
                            {
                                "name": "",
                                "type": "address",
                                "value": "0x79d89b87468a59b9895b31e3a373dc5973d60065"
                            }
                        ],
                        "signature": "owner()"
                    },
                    "errorInfo": "",
                    "fromAddress": "0x2f9ec37d6ccfff1cab21733bdadede11c823ccb0",
                    "gasUsed": 2679,
                    "id": 1,
                    "methodDecoded": true,
                    "operation": "CALL",
                    "output": "0x00000000000000000000000079d89b87468a59b9895b31e3a373dc5973d60065",
                    "revert": true,
                    "revertMessage": "",
                    "selector": "0x8da5cb5b",
                    "status": true,
                    "value": "0"
                },
                "nodeType": 0
            },
            "10": {
                "invocation": {
                    "address": "0x79d89b87468a59b9895b31e3a373dc5973d60065",
                    "callData": "0x000000000000000000000000dac17f958d2ee523a2206206994597c13d831ec70000000000000000000000001f573d6fb3f13d689ff844b4ce37794d79a7ff1c00000000000000000000000000000000000000000000000000000000ee6b2800000000000000000000000000a6256de4c5ff4037c7f3952b3eb6f66f4b94e2e2000000000000000000000000be4b63cbb413b5d1f71f06ba2309b3dd95712a61",
                    "decodedMethod": {
                        "callParams": [
                            {
                                "name": "_sourceToken",
                                "type": "address",
                                "value": "0xdac17f958d2ee523a2206206994597c13d831ec7"
                            },
                            {
                                "name": "_targetToken",
                                "type": "address",
                                "value": "0x1f573d6fb3f13d689ff844b4ce37794d79a7ff1c"
                            },
                            {
                                "name": "_amount",
                                "type": "uint256",
                                "value": "4,000,000,000"
                            },
                            {
                                "name": "_trader",
                                "type": "address",
                                "value": "0xa6256de4c5ff4037c7f3952b3eb6f66f4b94e2e2"
                            },
                            {
                                "name": "_beneficiary",
                                "type": "address",
                                "value": "0xbe4b63cbb413b5d1f71f06ba2309b3dd95712a61"
                            }
                        ],
                        "constructorArguments": "",
                        "name": "convert",
                        "returnParams": [
                            {
                                "name": "",
                                "type": "uint256",
                                "value": "1,235,074,702,059,362,678,582"
                            }
                        ],
                        "signature": "convert(address,address,uint256,address,address)"
                    },
                    "errorInfo": "",
                    "fromAddress": "0x2f9ec37d6ccfff1cab21733bdadede11c823ccb0",
                    "gasUsed": 65816,
                    "id": 10,
                    "methodDecoded": true,
                    "operation": "CALL",
                    "output": "0x000000000000000000000000000000000000000000000042f41ac9d117b97736",
                    "revert": true,
                    "revertMessage": "",
                    "selector": "0xe8dc12ff",
                    "status": true,
                    "value": "0"
                },
                "nodeType": 0
            },
            "11": {
                "invocation": {
                    "address": "0x52ae12abe5d8bd778bd5397f99ca900624cfadd4",
                    "callData": "0x42616e636f724e6574776f726b00000000000000000000000000000000000000",
                    "decodedMethod": {
                        "callParams": [
                            {
                                "name": "_contractName",
                                "type": "bytes32",
                                "value": "0x42616e636f724e6574776f726b00000000000000000000000000000000000000"
                            }
                        ],
                        "constructorArguments": "",
                        "name": "addressOf",
                        "returnParams": [
                            {
                                "name": "",
                                "type": "address",
                                "value": "0x2f9ec37d6ccfff1cab21733bdadede11c823ccb0"
                            }
                        ],
                        "signature": "addressOf(bytes32)"
                    },
                    "errorInfo": "",
                    "fromAddress": "0x79d89b87468a59b9895b31e3a373dc5973d60065",
                    "gasUsed": 2861,
                    "id": 11,
                    "methodDecoded": true,
                    "operation": "STATICCALL",
                    "output": "0x0000000000000000000000002f9ec37d6ccfff1cab21733bdadede11c823ccb0",
                    "revert": true,
                    "revertMessage": "",
                    "selector": "0xbb34534c",
                    "status": true,
                    "value": "0"
                },
                "nodeType": 0
            },
            "12": {
                "invocation": {
                    "address": "0xdac17f958d2ee523a2206206994597c13d831ec7",
                    "callData": "0x00000000000000000000000079d89b87468a59b9895b31e3a373dc5973d60065",
                    "decodedMethod": {
                        "callParams": [
                            {
                                "name": "who",
                                "type": "address",
                                "value": "0x79d89b87468a59b9895b31e3a373dc5973d60065"
                            }
                        ],
                        "constructorArguments": "",
                        "name": "balanceOf",
                        "returnParams": [
                            {
                                "decimalAvailable": true,
                                "name": "",
                                "type": "uint256",
                                "value": "17,673,198,417,225"
                            }
                        ],
                        "signature": "balanceOf(address)"
                    },
                    "errorInfo": "",
                    "fromAddress": "0x79d89b87468a59b9895b31e3a373dc5973d60065",
                    "gasUsed": 1031,
                    "id": 12,
                    "methodDecoded": true,
                    "operation": "STATICCALL",
                    "output": "0x00000000000000000000000000000000000000000000000000001012dcb6b549",
                    "revert": true,
                    "revertMessage": "",
                    "selector": "0x70a08231",
                    "status": true,
                    "value": "0"
                },
                "nodeType": 0
            },
            "13": {
                "invocation": {
                    "address": "0x1f573d6fb3f13d689ff844b4ce37794d79a7ff1c",
                    "callData": "0x000000000000000000000000be4b63cbb413b5d1f71f06ba2309b3dd95712a61000000000000000000000000000000000000000000000042f41ac9d117b97736",
                    "decodedMethod": {
                        "callParams": [
                            {
                                "name": "_to",
                                "type": "address",
                                "value": "0xbe4b63cbb413b5d1f71f06ba2309b3dd95712a61"
                            },
                            {
                                "decimalAvailable": true,
                                "name": "_value",
                                "type": "uint256",
                                "value": "1,235,074,702,059,362,678,582"
                            }
                        ],
                        "constructorArguments": "",
                        "name": "transfer",
                        "returnParams": [
                            {
                                "name": "success",
                                "type": "bool",
                                "value": true
                            }
                        ],
                        "signature": "transfer(address,uint256)"
                    },
                    "errorInfo": "",
                    "fromAddress": "0x79d89b87468a59b9895b31e3a373dc5973d60065",
                    "gasUsed": 15652,
                    "id": 13,
                    "methodDecoded": true,
                    "operation": "CALL",
                    "output": "0x0000000000000000000000000000000000000000000000000000000000000001",
                    "revert": true,
                    "revertMessage": "",
                    "selector": "0xa9059cbb",
                    "status": true,
                    "value": "0"
                },
                "nodeType": 0
            },
            "14": {
                "event": {
                    "contract": "0x1f573d6fb3f13d689ff844b4ce37794d79a7ff1c",
                    "decodedLog": {
                        "name": "Transfer",
                        "params": [
                            {
                                "name": "_from",
                                "type": "address",
                                "value": "0x79d89b87468a59b9895b31e3a373dc5973d60065"
                            },
                            {
                                "name": "_to",
                                "type": "address",
                                "value": "0xbe4b63cbb413b5d1f71f06ba2309b3dd95712a61"
                            },
                            {
                                "decimalAvailable": true,
                                "name": "_value",
                                "type": "uint256",
                                "value": "1,235,074,702,059,362,678,582"
                            }
                        ],
                        "signature": "Transfer(address,address,uint256)"
                    },
                    "id": 14,
                    "logData": "0x000000000000000000000000000000000000000000000042f41ac9d117b97736",
                    "logDecoded": true,
                    "operation": "EVENT",
                    "revert": true,
                    "status": false,
                    "topics": [
                        "0xddf252ad1be2c89b69c2b068fc378daa952ba7f163c4a11628f55a4df523b3ef",
                        "0x00000000000000000000000079d89b87468a59b9895b31e3a373dc5973d60065",
                        "0x000000000000000000000000be4b63cbb413b5d1f71f06ba2309b3dd95712a61"
                    ]
                },
                "nodeType": 1
            },
            "15": {
                "event": {
                    "contract": "0x79d89b87468a59b9895b31e3a373dc5973d60065",
                    "decodedLog": {
                        "name": "Conversion",
                        "params": [
                            {
                                "name": "_fromToken",
                                "type": "address",
                                "value": "0xdac17f958d2ee523a2206206994597c13d831ec7"
                            },
                            {
                                "name": "_toToken",
                                "type": "address",
                                "value": "0x1f573d6fb3f13d689ff844b4ce37794d79a7ff1c"
                            },
                            {
                                "name": "_trader",
                                "type": "address",
                                "value": "0xa6256de4c5ff4037c7f3952b3eb6f66f4b94e2e2"
                            },
                            {
                                "name": "_amount",
                                "type": "uint256",
                                "value": "4,000,000,000"
                            },
                            {
                                "name": "_return",
                                "type": "uint256",
                                "value": "1,235,074,702,059,362,678,582"
                            },
                            {
                                "name": "_conversionFee",
                                "type": "int256",
                                "value": "1,236,311,013,072,435,113"
                            }
                        ],
                        "signature": "Conversion(address,address,address,uint256,uint256,int256)"
                    },
                    "id": 15,
                    "logData": "0x00000000000000000000000000000000000000000000000000000000ee6b2800000000000000000000000000000000000000000000000042f41ac9d117b9773600000000000000000000000000000000000000000000000011284250ee15f7a9",
                    "logDecoded": true,
                    "operation": "EVENT",
                    "revert": true,
                    "status": false,
                    "topics": [
                        "0x276856b36cbc45526a0ba64f44611557a2a8b68662c5388e9fe6d72e86e1c8cb",
                        "0x000000000000000000000000dac17f958d2ee523a2206206994597c13d831ec7",
                        "0x0000000000000000000000001f573d6fb3f13d689ff844b4ce37794d79a7ff1c",
                        "0x000000000000000000000000a6256de4c5ff4037c7f3952b3eb6f66f4b94e2e2"
                    ]
                },
                "nodeType": 1
            },
            "16": {
                "invocation": {
                    "address": "0x5365b5bc56493f08a38e5eb08e36cbbe6fcc8306",
                    "callData": "0x",
                    "decodedMethod": {
                        "callParams": [],
                        "constructorArguments": "",
                        "name": "totalSupply",
                        "returnParams": [
                            {
                                "name": "",
                                "type": "uint256",
                                "value": "1,404,053,836,594,412,165"
                            }
                        ],
                        "signature": "totalSupply()"
                    },
                    "errorInfo": "",
                    "fromAddress": "0x79d89b87468a59b9895b31e3a373dc5973d60065",
                    "gasUsed": 2350,
                    "id": 16,
                    "methodDecoded": true,
                    "operation": "STATICCALL",
                    "output": "0x000000000000000000000000000000000000000000000000137c33867fbbfa85",
                    "revert": true,
                    "revertMessage": "",
                    "selector": "0x18160ddd",
                    "status": true,
                    "value": "0"
                },
                "nodeType": 0
            },
            "17": {
                "event": {
                    "contract": "0x79d89b87468a59b9895b31e3a373dc5973d60065",
                    "decodedLog": {
                        "name": "TokenRateUpdate",
                        "params": [
                            {
                                "name": "_token1",
                                "type": "address",
                                "value": "0xdac17f958d2ee523a2206206994597c13d831ec7"
                            },
                            {
                                "name": "_token2",
                                "type": "address",
                                "value": "0x1f573d6fb3f13d689ff844b4ce37794d79a7ff1c"
                            },
                            {
                                "name": "_rateN",
                                "type": "uint256",
                                "value": "5,461,157,385,155,339,771,231,596"
                            },
                            {
                                "name": "_rateD",
                                "type": "uint256",
                                "value": "17,673,198,417,225"
                            }
                        ],
                        "signature": "TokenRateUpdate(address,address,uint256,uint256)"
                    },
                    "id": 17,
                    "logData": "0x000000000000000000000000000000000000000000048471ef6052e15ddcbd6c00000000000000000000000000000000000000000000000000001012dcb6b549",
                    "logDecoded": true,
                    "operation": "EVENT",
                    "revert": true,
                    "status": false,
                    "topics": [
                        "0x77f29993cf2c084e726f7e802da0719d6a0ade3e204badc7a3ffd57ecb768c24",
                        "0x000000000000000000000000dac17f958d2ee523a2206206994597c13d831ec7",
                        "0x0000000000000000000000001f573d6fb3f13d689ff844b4ce37794d79a7ff1c"
                    ]
                },
                "nodeType": 1
            },
            "18": {
                "event": {
                    "contract": "0x79d89b87468a59b9895b31e3a373dc5973d60065",
                    "decodedLog": {
                        "name": "TokenRateUpdate",
                        "params": [
                            {
                                "name": "_token1",
                                "type": "address",
                                "value": "0x5365b5bc56493f08a38e5eb08e36cbbe6fcc8306"
                            },
                            {
                                "name": "_token2",
                                "type": "address",
                                "value": "0xdac17f958d2ee523a2206206994597c13d831ec7"
                            },
                            {
                                "name": "_rateN",
                                "type": "uint256",
                                "value": "17,673,198,417,225"
                            },
                            {
                                "name": "_rateD",
                                "type": "uint256",
                                "value": "1,404,053,836,594,412,165"
                            }
                        ],
                        "signature": "TokenRateUpdate(address,address,uint256,uint256)"
                    },
                    "id": 18,
                    "logData": "0x00000000000000000000000000000000000000000000000000001012dcb6b549000000000000000000000000000000000000000000000000137c33867fbbfa85",
                    "logDecoded": true,
                    "operation": "EVENT",
                    "revert": true,
                    "status": false,
                    "topics": [
                        "0x77f29993cf2c084e726f7e802da0719d6a0ade3e204badc7a3ffd57ecb768c24",
                        "0x0000000000000000000000005365b5bc56493f08a38e5eb08e36cbbe6fcc8306",
                        "0x000000000000000000000000dac17f958d2ee523a2206206994597c13d831ec7"
                    ]
                },
                "nodeType": 1
            },
            "19": {
                "event": {
                    "contract": "0x79d89b87468a59b9895b31e3a373dc5973d60065",
                    "decodedLog": {
                        "name": "TokenRateUpdate",
                        "params": [
                            {
                                "name": "_token1",
                                "type": "address",
                                "value": "0x5365b5bc56493f08a38e5eb08e36cbbe6fcc8306"
                            },
                            {
                                "name": "_token2",
                                "type": "address",
                                "value": "0x1f573d6fb3f13d689ff844b4ce37794d79a7ff1c"
                            },
                            {
                                "name": "_rateN",
                                "type": "uint256",
                                "value": "5,461,157,385,155,339,771,231,596"
                            },
                            {
                                "name": "_rateD",
                                "type": "uint256",
                                "value": "1,404,053,836,594,412,165"
                            }
                        ],
                        "signature": "TokenRateUpdate(address,address,uint256,uint256)"
                    },
                    "id": 19,
                    "logData": "0x000000000000000000000000000000000000000000048471ef6052e15ddcbd6c000000000000000000000000000000000000000000000000137c33867fbbfa85",
                    "logDecoded": true,
                    "operation": "EVENT",
                    "revert": true,
                    "status": false,
                    "topics": [
                        "0x77f29993cf2c084e726f7e802da0719d6a0ade3e204badc7a3ffd57ecb768c24",
                        "0x0000000000000000000000005365b5bc56493f08a38e5eb08e36cbbe6fcc8306",
                        "0x0000000000000000000000001f573d6fb3f13d689ff844b4ce37794d79a7ff1c"
                    ]
                },
                "nodeType": 1
            },
            "2": {
                "invocation": {
                    "address": "0x79d89b87468a59b9895b31e3a373dc5973d60065",
                    "callData": "0x",
                    "decodedMethod": {
                        "callParams": [],
                        "constructorArguments": "",
                        "name": "isV28OrHigher",
                        "returnParams": [
                            {
                                "name": "",
                                "type": "bool",
                                "value": true
                            }
                        ],
                        "signature": "isV28OrHigher()"
                    },
                    "errorInfo": "",
                    "fromAddress": "0x2f9ec37d6ccfff1cab21733bdadede11c823ccb0",
                    "gasUsed": 293,
                    "id": 2,
                    "methodDecoded": true,
                    "operation": "STATICCALL",
                    "output": "0x0000000000000000000000000000000000000000000000000000000000000001",
                    "revert": true,
                    "revertMessage": "",
                    "selector": "0xd260529c",
                    "status": true,
                    "value": "0"
                },
                "nodeType": 0
            },
            "20": {
                "event": {
                    "contract": "0x2f9ec37d6ccfff1cab21733bdadede11c823ccb0",
                    "decodedLog": {
                        "name": "Conversion",
                        "params": [
                            {
                                "name": "_smartToken",
                                "type": "address",
                                "value": "0x5365b5bc56493f08a38e5eb08e36cbbe6fcc8306"
                            },
                            {
                                "name": "_fromToken",
                                "type": "address",
                                "value": "0xdac17f958d2ee523a2206206994597c13d831ec7"
                            },
                            {
                                "name": "_toToken",
                                "type": "address",
                                "value": "0x1f573d6fb3f13d689ff844b4ce37794d79a7ff1c"
                            },
                            {
                                "name": "_fromAmount",
                                "type": "uint256",
                                "value": "4,000,000,000"
                            },
                            {
                                "name": "_toAmount",
                                "type": "uint256",
                                "value": "1,235,074,702,059,362,678,582"
                            },
                            {
                                "name": "_trader",
                                "type": "address",
                                "value": "0xa6256de4c5ff4037c7f3952b3eb6f66f4b94e2e2"
                            }
                        ],
                        "signature": "Conversion(address,address,address,uint256,uint256,address)"
                    },
                    "id": 20,
                    "logData": "0x00000000000000000000000000000000000000000000000000000000ee6b2800000000000000000000000000000000000000000000000042f41ac9d117b97736000000000000000000000000a6256de4c5ff4037c7f3952b3eb6f66f4b94e2e2",
                    "logDecoded": true,
                    "operation": "EVENT",
                    "revert": true,
                    "status": false,
                    "topics": [
                        "0x7154b38b5dd31bb3122436a96d4e09aba5b323ae1fd580025fab55074334c095",
                        "0x0000000000000000000000005365b5bc56493f08a38e5eb08e36cbbe6fcc8306",
                        "0x000000000000000000000000dac17f958d2ee523a2206206994597c13d831ec7",
                        "0x0000000000000000000000001f573d6fb3f13d689ff844b4ce37794d79a7ff1c"
                    ]
                },
                "nodeType": 1
            },
            "21": {
                "invocation": {
                    "address": "0xbe4b63cbb413b5d1f71f06ba2309b3dd95712a61",
                    "callData": "0x0000000000000000000000001f573d6fb3f13d689ff844b4ce37794d79a7ff1c0000000000000000000000000f5d2fb29fb7d3cfee444a200298f468908cc942000000000000000000000000000000000000000000000042f41ac9d117b97736000000000000000000000000a6256de4c5ff4037c7f3952b3eb6f66f4b94e2e2000000000000000000000000a6256de4c5ff4037c7f3952b3eb6f66f4b94e2e2",
                    "decodedMethod": {
                        "callParams": [
                            {
                                "name": "_sourceToken",
                                "type": "address",
                                "value": "0x1f573d6fb3f13d689ff844b4ce37794d79a7ff1c"
                            },
                            {
                                "name": "_targetToken",
                                "type": "address",
                                "value": "0x0f5d2fb29fb7d3cfee444a200298f468908cc942"
                            },
                            {
                                "name": "_amount",
                                "type": "uint256",
                                "value": "1,235,074,702,059,362,678,582"
                            },
                            {
                                "name": "_trader",
                                "type": "address",
                                "value": "0xa6256de4c5ff4037c7f3952b3eb6f66f4b94e2e2"
                            },
                            {
                                "name": "_beneficiary",
                                "type": "address",
                                "value": "0xa6256de4c5ff4037c7f3952b3eb6f66f4b94e2e2"
                            }
                        ],
                        "constructorArguments": "",
                        "name": "convert",
                        "returnParams": [
                            {
                                "name": "",
                                "type": "uint256",
                                "value": "6,000,019,830,296,124,084,957"
                            }
                        ],
                        "signature": "convert(address,address,uint256,address,address)"
                    },
                    "errorInfo": "",
                    "fromAddress": "0x2f9ec37d6ccfff1cab21733bdadede11c823ccb0",
                    "gasUsed": 75008,
                    "id": 21,
                    "methodDecoded": true,
                    "operation": "CALL",
                    "output": "0x0000000000000000000000000000000000000000000001454300862fd40452dd",
                    "revert": true,
                    "revertMessage": "",
                    "selector": "0xe8dc12ff",
                    "status": true,
                    "value": "0"
                },
                "nodeType": 0
            },
            "22": {
                "invocation": {
                    "address": "0x52ae12abe5d8bd778bd5397f99ca900624cfadd4",
                    "callData": "0x42616e636f724e6574776f726b00000000000000000000000000000000000000",
                    "decodedMethod": {
                        "callParams": [
                            {
                                "name": "_contractName",
                                "type": "bytes32",
                                "value": "0x42616e636f724e6574776f726b00000000000000000000000000000000000000"
                            }
                        ],
                        "constructorArguments": "",
                        "name": "addressOf",
                        "returnParams": [
                            {
                                "name": "",
                                "type": "address",
                                "value": "0x2f9ec37d6ccfff1cab21733bdadede11c823ccb0"
                            }
                        ],
                        "signature": "addressOf(bytes32)"
                    },
                    "errorInfo": "",
                    "fromAddress": "0xbe4b63cbb413b5d1f71f06ba2309b3dd95712a61",
                    "gasUsed": 861,
                    "id": 22,
                    "methodDecoded": true,
                    "operation": "STATICCALL",
                    "output": "0x0000000000000000000000002f9ec37d6ccfff1cab21733bdadede11c823ccb0",
                    "revert": true,
                    "revertMessage": "",
                    "selector": "0xbb34534c",
                    "status": true,
                    "value": "0"
                },
                "nodeType": 0
            },
            "23": {
                "invocation": {
                    "address": "0x1f573d6fb3f13d689ff844b4ce37794d79a7ff1c",
                    "callData": "0x000000000000000000000000be4b63cbb413b5d1f71f06ba2309b3dd95712a61",
                    "decodedMethod": {
                        "callParams": [
                            {
                                "name": "",
                                "type": "address",
                                "value": "0xbe4b63cbb413b5d1f71f06ba2309b3dd95712a61"
                            }
                        ],
                        "constructorArguments": "",
                        "name": "balanceOf",
                        "returnParams": [
                            {
                                "decimalAvailable": true,
                                "name": "",
                                "type": "uint256",
                                "value": "126,007,531,707,918,192,349,033"
                            }
                        ],
                        "signature": "balanceOf(address)"
                    },
                    "errorInfo": "",
                    "fromAddress": "0xbe4b63cbb413b5d1f71f06ba2309b3dd95712a61",
                    "gasUsed": 618,
                    "id": 23,
                    "methodDecoded": true,
                    "operation": "STATICCALL",
                    "output": "0x000000000000000000000000000000000000000000001aaee1c987d5fa9a0f69",
                    "revert": true,
                    "revertMessage": "",
                    "selector": "0x70a08231",
                    "status": true,
                    "value": "0"
                },
                "nodeType": 0
            },
            "24": {
                "invocation": {
                    "address": "0x0f5d2fb29fb7d3cfee444a200298f468908cc942",
                    "callData": "0x000000000000000000000000a6256de4c5ff4037c7f3952b3eb6f66f4b94e2e20000000000000000000000000000000000000000000001454300862fd40452dd",
                    "decodedMethod": {
                        "callParams": [
                            {
                                "name": "_to",
                                "type": "address",
                                "value": "0xa6256de4c5ff4037c7f3952b3eb6f66f4b94e2e2"
                            },
                            {
                                "decimalAvailable": true,
                                "name": "_value",
                                "type": "uint256",
                                "value": "6,000,019,830,296,124,084,957"
                            }
                        ],
                        "constructorArguments": "",
                        "name": "transfer",
                        "returnParams": [
                            {
                                "name": "",
                                "type": "bool",
                                "value": true
                            }
                        ],
                        "signature": "transfer(address,uint256)"
                    },
                    "errorInfo": "",
                    "fromAddress": "0xbe4b63cbb413b5d1f71f06ba2309b3dd95712a61",
                    "gasUsed": 32593,
                    "id": 24,
                    "methodDecoded": true,
                    "operation": "CALL",
                    "output": "0x0000000000000000000000000000000000000000000000000000000000000001",
                    "revert": true,
                    "revertMessage": "",
                    "selector": "0xa9059cbb",
                    "status": true,
                    "value": "0"
                },
                "nodeType": 0
            },
            "25": {
                "event": {
                    "contract": "0x0f5d2fb29fb7d3cfee444a200298f468908cc942",
                    "decodedLog": {
                        "name": "Transfer",
                        "params": [
                            {
                                "name": "from",
                                "type": "address",
                                "value": "0xbe4b63cbb413b5d1f71f06ba2309b3dd95712a61"
                            },
                            {
                                "name": "to",
                                "type": "address",
                                "value": "0xa6256de4c5ff4037c7f3952b3eb6f66f4b94e2e2"
                            },
                            {
                                "decimalAvailable": true,
                                "name": "value",
                                "type": "uint256",
                                "value": "6,000,019,830,296,124,084,957"
                            }
                        ],
                        "signature": "Transfer(address,address,uint256)"
                    },
                    "id": 25,
                    "logData": "0x0000000000000000000000000000000000000000000001454300862fd40452dd",
                    "logDecoded": true,
                    "operation": "EVENT",
                    "revert": true,
                    "status": false,
                    "topics": [
                        "0xddf252ad1be2c89b69c2b068fc378daa952ba7f163c4a11628f55a4df523b3ef",
                        "0x000000000000000000000000be4b63cbb413b5d1f71f06ba2309b3dd95712a61",
                        "0x000000000000000000000000a6256de4c5ff4037c7f3952b3eb6f66f4b94e2e2"
                    ]
                },
                "nodeType": 1
            },
            "26": {
                "event": {
                    "contract": "0xbe4b63cbb413b5d1f71f06ba2309b3dd95712a61",
                    "decodedLog": {
                        "name": "Conversion",
                        "params": [
                            {
                                "name": "_fromToken",
                                "type": "address",
                                "value": "0x1f573d6fb3f13d689ff844b4ce37794d79a7ff1c"
                            },
                            {
                                "name": "_toToken",
                                "type": "address",
                                "value": "0x0f5d2fb29fb7d3cfee444a200298f468908cc942"
                            },
                            {
                                "name": "_trader",
                                "type": "address",
                                "value": "0xa6256de4c5ff4037c7f3952b3eb6f66f4b94e2e2"
                            },
                            {
                                "name": "_amount",
                                "type": "uint256",
                                "value": "1,235,074,702,059,362,678,582"
                            },
                            {
                                "name": "_return",
                                "type": "uint256",
                                "value": "6,000,019,830,296,124,084,957"
                            },
                            {
                                "name": "_conversionFee",
                                "type": "int256",
                                "value": "6,006,025,856,152,276,361"
                            }
                        ],
                        "signature": "Conversion(address,address,address,uint256,uint256,int256)"
                    },
                    "id": 26,
                    "logData": "0x000000000000000000000000000000000000000000000042f41ac9d117b977360000000000000000000000000000000000000000000001454300862fd40452dd0000000000000000000000000000000000000000000000005359b0b1e3c48d89",
                    "logDecoded": true,
                    "operation": "EVENT",
                    "revert": true,
                    "status": false,
                    "topics": [
                        "0x276856b36cbc45526a0ba64f44611557a2a8b68662c5388e9fe6d72e86e1c8cb",
                        "0x0000000000000000000000001f573d6fb3f13d689ff844b4ce37794d79a7ff1c",
                        "0x0000000000000000000000000f5d2fb29fb7d3cfee444a200298f468908cc942",
                        "0x000000000000000000000000a6256de4c5ff4037c7f3952b3eb6f66f4b94e2e2"
                    ]
                },
                "nodeType": 1
            },
            "27": {
                "invocation": {
                    "address": "0x79d83b390cf0edf86b9efbe47b556cc6e20926ac",
                    "callData": "0x",
                    "decodedMethod": {
                        "callParams": [],
                        "constructorArguments": "",
                        "name": "totalSupply",
                        "returnParams": [
                            {
                                "name": "",
                                "type": "uint256",
                                "value": "54,212,942,872,931,926,240,400"
                            }
                        ],
                        "signature": "totalSupply()"
                    },
                    "errorInfo": "",
                    "fromAddress": "0xbe4b63cbb413b5d1f71f06ba2309b3dd95712a61",
                    "gasUsed": 2336,
                    "id": 27,
                    "methodDecoded": true,
                    "operation": "STATICCALL",
                    "output": "0x000000000000000000000000000000000000000000000b7ae3b7b673345b6c90",
                    "revert": true,
                    "revertMessage": "",
                    "selector": "0x18160ddd",
                    "status": true,
                    "value": "0"
                },
                "nodeType": 0
            },
            "28": {
                "event": {
                    "contract": "0xbe4b63cbb413b5d1f71f06ba2309b3dd95712a61",
                    "decodedLog": {
                        "name": "TokenRateUpdate",
                        "params": [
                            {
                                "name": "_token1",
                                "type": "address",
                                "value": "0x1f573d6fb3f13d689ff844b4ce37794d79a7ff1c"
                            },
                            {
                                "name": "_token2",
                                "type": "address",
                                "value": "0x0f5d2fb29fb7d3cfee444a200298f468908cc942"
                            },
                            {
                                "name": "_rateN",
                                "type": "uint256",
                                "value": "606,760,076,579,896,067,639,807"
                            },
                            {
                                "name": "_rateD",
                                "type": "uint256",
                                "value": "126,007,531,707,918,192,349,033"
                            }
                        ],
                        "signature": "TokenRateUpdate(address,address,uint256,uint256)"
                    },
                    "id": 28,
                    "logData": "0x00000000000000000000000000000000000000000000807c8797d0c06dac49ff000000000000000000000000000000000000000000001aaee1c987d5fa9a0f69",
                    "logDecoded": true,
                    "operation": "EVENT",
                    "revert": true,
                    "status": false,
                    "topics": [
                        "0x77f29993cf2c084e726f7e802da0719d6a0ade3e204badc7a3ffd57ecb768c24",
                        "0x0000000000000000000000001f573d6fb3f13d689ff844b4ce37794d79a7ff1c",
                        "0x0000000000000000000000000f5d2fb29fb7d3cfee444a200298f468908cc942"
                    ]
                },
                "nodeType": 1
            },
            "29": {
                "event": {
                    "contract": "0xbe4b63cbb413b5d1f71f06ba2309b3dd95712a61",
                    "decodedLog": {
                        "name": "TokenRateUpdate",
                        "params": [
                            {
                                "name": "_token1",
                                "type": "address",
                                "value": "0x79d83b390cf0edf86b9efbe47b556cc6e20926ac"
                            },
                            {
                                "name": "_token2",
                                "type": "address",
                                "value": "0x1f573d6fb3f13d689ff844b4ce37794d79a7ff1c"
                            },
                            {
                                "name": "_rateN",
                                "type": "uint256",
                                "value": "126,007,531,707,918,192,349,033"
                            },
                            {
                                "name": "_rateD",
                                "type": "uint256",
                                "value": "54,212,942,872,931,926,240,400"
                            }
                        ],
                        "signature": "TokenRateUpdate(address,address,uint256,uint256)"
                    },
                    "id": 29,
                    "logData": "0x000000000000000000000000000000000000000000001aaee1c987d5fa9a0f69000000000000000000000000000000000000000000000b7ae3b7b673345b6c90",
                    "logDecoded": true,
                    "operation": "EVENT",
                    "revert": true,
                    "status": false,
                    "topics": [
                        "0x77f29993cf2c084e726f7e802da0719d6a0ade3e204badc7a3ffd57ecb768c24",
                        "0x00000000000000000000000079d83b390cf0edf86b9efbe47b556cc6e20926ac",
                        "0x0000000000000000000000001f573d6fb3f13d689ff844b4ce37794d79a7ff1c"
                    ]
                },
                "nodeType": 1
            },
            "3": {
                "invocation": {
                    "address": "0xdac17f958d2ee523a2206206994597c13d831ec7",
                    "callData": "0x000000000000000000000000a6256de4c5ff4037c7f3952b3eb6f66f4b94e2e200000000000000000000000079d89b87468a59b9895b31e3a373dc5973d6006500000000000000000000000000000000000000000000000000000000ee6b2800",
                    "decodedMethod": {
                        "callParams": [
                            {
                                "name": "_from",
                                "type": "address",
                                "value": "0xa6256de4c5ff4037c7f3952b3eb6f66f4b94e2e2"
                            },
                            {
                                "name": "_to",
                                "type": "address",
                                "value": "0x79d89b87468a59b9895b31e3a373dc5973d60065"
                            },
                            {
                                "decimalAvailable": true,
                                "name": "_value",
                                "type": "uint256",
                                "value": "4,000,000,000"
                            }
                        ],
                        "constructorArguments": "",
                        "name": "transferFrom",
                        "returnParams": [],
                        "signature": "transferFrom(address,address,uint256)"
                    },
                    "errorInfo": "",
                    "fromAddress": "0x2f9ec37d6ccfff1cab21733bdadede11c823ccb0",
                    "gasUsed": 26530,
                    "id": 3,
                    "methodDecoded": true,
                    "operation": "CALL",
                    "output": "",
                    "revert": true,
                    "revertMessage": "",
                    "selector": "0x23b872dd",
                    "status": true,
                    "value": "0"
                },
                "nodeType": 0
            },
            "30": {
                "event": {
                    "contract": "0xbe4b63cbb413b5d1f71f06ba2309b3dd95712a61",
                    "decodedLog": {
                        "name": "TokenRateUpdate",
                        "params": [
                            {
                                "name": "_token1",
                                "type": "address",
                                "value": "0x79d83b390cf0edf86b9efbe47b556cc6e20926ac"
                            },
                            {
                                "name": "_token2",
                                "type": "address",
                                "value": "0x0f5d2fb29fb7d3cfee444a200298f468908cc942"
                            },
                            {
                                "name": "_rateN",
                                "type": "uint256",
                                "value": "606,760,076,579,896,067,639,807"
                            },
                            {
                                "name": "_rateD",
                                "type": "uint256",
                                "value": "54,212,942,872,931,926,240,400"
                            }
                        ],
                        "signature": "TokenRateUpdate(address,address,uint256,uint256)"
                    },
                    "id": 30,
                    "logData": "0x00000000000000000000000000000000000000000000807c8797d0c06dac49ff000000000000000000000000000000000000000000000b7ae3b7b673345b6c90",
                    "logDecoded": true,
                    "operation": "EVENT",
                    "revert": true,
                    "status": false,
                    "topics": [
                        "0x77f29993cf2c084e726f7e802da0719d6a0ade3e204badc7a3ffd57ecb768c24",
                        "0x00000000000000000000000079d83b390cf0edf86b9efbe47b556cc6e20926ac",
                        "0x0000000000000000000000000f5d2fb29fb7d3cfee444a200298f468908cc942"
                    ]
                },
                "nodeType": 1
            },
            "31": {
                "event": {
                    "contract": "0x2f9ec37d6ccfff1cab21733bdadede11c823ccb0",
                    "decodedLog": {
                        "name": "Conversion",
                        "params": [
                            {
                                "name": "_smartToken",
                                "type": "address",
                                "value": "0x79d83b390cf0edf86b9efbe47b556cc6e20926ac"
                            },
                            {
                                "name": "_fromToken",
                                "type": "address",
                                "value": "0x1f573d6fb3f13d689ff844b4ce37794d79a7ff1c"
                            },
                            {
                                "name": "_toToken",
                                "type": "address",
                                "value": "0x0f5d2fb29fb7d3cfee444a200298f468908cc942"
                            },
                            {
                                "name": "_fromAmount",
                                "type": "uint256",
                                "value": "1,235,074,702,059,362,678,582"
                            },
                            {
                                "name": "_toAmount",
                                "type": "uint256",
                                "value": "6,000,019,830,296,124,084,957"
                            },
                            {
                                "name": "_trader",
                                "type": "address",
                                "value": "0xa6256de4c5ff4037c7f3952b3eb6f66f4b94e2e2"
                            }
                        ],
                        "signature": "Conversion(address,address,address,uint256,uint256,address)"
                    },
                    "id": 31,
                    "logData": "0x000000000000000000000000000000000000000000000042f41ac9d117b977360000000000000000000000000000000000000000000001454300862fd40452dd000000000000000000000000a6256de4c5ff4037c7f3952b3eb6f66f4b94e2e2",
                    "logDecoded": true,
                    "operation": "EVENT",
                    "revert": true,
                    "status": false,
                    "topics": [
                        "0x7154b38b5dd31bb3122436a96d4e09aba5b323ae1fd580025fab55074334c095",
                        "0x00000000000000000000000079d83b390cf0edf86b9efbe47b556cc6e20926ac",
                        "0x0000000000000000000000001f573d6fb3f13d689ff844b4ce37794d79a7ff1c",
                        "0x0000000000000000000000000f5d2fb29fb7d3cfee444a200298f468908cc942"
                    ]
                },
                "nodeType": 1
            },
            "4": {
                "event": {
                    "contract": "0xdac17f958d2ee523a2206206994597c13d831ec7",
                    "decodedLog": {
                        "name": "Transfer",
                        "params": [
                            {
                                "name": "from",
                                "type": "address",
                                "value": "0xa6256de4c5ff4037c7f3952b3eb6f66f4b94e2e2"
                            },
                            {
                                "name": "to",
                                "type": "address",
                                "value": "0x79d89b87468a59b9895b31e3a373dc5973d60065"
                            },
                            {
                                "decimalAvailable": true,
                                "name": "value",
                                "type": "uint256",
                                "value": "4,000,000,000"
                            }
                        ],
                        "signature": "Transfer(address,address,uint256)"
                    },
                    "id": 4,
                    "logData": "0x00000000000000000000000000000000000000000000000000000000ee6b2800",
                    "logDecoded": true,
                    "operation": "EVENT",
                    "revert": true,
                    "status": false,
                    "topics": [
                        "0xddf252ad1be2c89b69c2b068fc378daa952ba7f163c4a11628f55a4df523b3ef",
                        "0x000000000000000000000000a6256de4c5ff4037c7f3952b3eb6f66f4b94e2e2",
                        "0x00000000000000000000000079d89b87468a59b9895b31e3a373dc5973d60065"
                    ]
                },
                "nodeType": 1
            },
            "5": {
                "invocation": {
                    "address": "0x52ae12abe5d8bd778bd5397f99ca900624cfadd4",
                    "callData": "0x424e54546f6b656e000000000000000000000000000000000000000000000000",
                    "decodedMethod": {
                        "callParams": [
                            {
                                "name": "_contractName",
                                "type": "bytes32",
                                "value": "0x424e54546f6b656e000000000000000000000000000000000000000000000000"
                            }
                        ],
                        "constructorArguments": "",
                        "name": "addressOf",
                        "returnParams": [
                            {
                                "name": "",
                                "type": "address",
                                "value": "0x1f573d6fb3f13d689ff844b4ce37794d79a7ff1c"
                            }
                        ],
                        "signature": "addressOf(bytes32)"
                    },
                    "errorInfo": "",
                    "fromAddress": "0x2f9ec37d6ccfff1cab21733bdadede11c823ccb0",
                    "gasUsed": 2861,
                    "id": 5,
                    "methodDecoded": true,
                    "operation": "CALL",
                    "output": "0x0000000000000000000000001f573d6fb3f13d689ff844b4ce37794d79a7ff1c",
                    "revert": true,
                    "revertMessage": "",
                    "selector": "0xbb34534c",
                    "status": true,
                    "value": "0"
                },
                "nodeType": 0
            },
            "6": {
                "invocation": {
                    "address": "0x5365b5bc56493f08a38e5eb08e36cbbe6fcc8306",
                    "callData": "0x",
                    "decodedMethod": {
                        "callParams": [],
                        "constructorArguments": "",
                        "name": "owner",
                        "returnParams": [
                            {
                                "name": "",
                                "type": "address",
                                "value": "0x79d89b87468a59b9895b31e3a373dc5973d60065"
                            }
                        ],
                        "signature": "owner()"
                    },
                    "errorInfo": "",
                    "fromAddress": "0x2f9ec37d6ccfff1cab21733bdadede11c823ccb0",
                    "gasUsed": 679,
                    "id": 6,
                    "methodDecoded": true,
                    "operation": "CALL",
                    "output": "0x00000000000000000000000079d89b87468a59b9895b31e3a373dc5973d60065",
                    "revert": true,
                    "revertMessage": "",
                    "selector": "0x8da5cb5b",
                    "status": true,
                    "value": "0"
                },
                "nodeType": 0
            },
            "7": {
                "invocation": {
                    "address": "0x79d89b87468a59b9895b31e3a373dc5973d60065",
                    "callData": "0x",
                    "decodedMethod": {
                        "callParams": [],
                        "constructorArguments": "",
                        "name": "isV28OrHigher",
                        "returnParams": [
                            {
                                "name": "",
                                "type": "bool",
                                "value": true
                            }
                        ],
                        "signature": "isV28OrHigher()"
                    },
                    "errorInfo": "",
                    "fromAddress": "0x2f9ec37d6ccfff1cab21733bdadede11c823ccb0",
                    "gasUsed": 293,
                    "id": 7,
                    "methodDecoded": true,
                    "operation": "STATICCALL",
                    "output": "0x0000000000000000000000000000000000000000000000000000000000000001",
                    "revert": true,
                    "revertMessage": "",
                    "selector": "0xd260529c",
                    "status": true,
                    "value": "0"
                },
                "nodeType": 0
            },
            "8": {
                "invocation": {
                    "address": "0x79d83b390cf0edf86b9efbe47b556cc6e20926ac",
                    "callData": "0x",
                    "decodedMethod": {
                        "callParams": [],
                        "constructorArguments": "",
                        "name": "owner",
                        "returnParams": [
                            {
                                "name": "",
                                "type": "address",
                                "value": "0xbe4b63cbb413b5d1f71f06ba2309b3dd95712a61"
                            }
                        ],
                        "signature": "owner()"
                    },
                    "errorInfo": "",
                    "fromAddress": "0x2f9ec37d6ccfff1cab21733bdadede11c823ccb0",
                    "gasUsed": 2687,
                    "id": 8,
                    "methodDecoded": true,
                    "operation": "CALL",
                    "output": "0x000000000000000000000000be4b63cbb413b5d1f71f06ba2309b3dd95712a61",
                    "revert": true,
                    "revertMessage": "",
                    "selector": "0x8da5cb5b",
                    "status": true,
                    "value": "0"
                },
                "nodeType": 0
            },
            "9": {
                "invocation": {
                    "address": "0xbe4b63cbb413b5d1f71f06ba2309b3dd95712a61",
                    "callData": "0x",
                    "decodedMethod": {
                        "callParams": [],
                        "constructorArguments": "",
                        "name": "isV28OrHigher",
                        "returnParams": [
                            {
                                "name": "",
                                "type": "bool",
                                "value": true
                            }
                        ],
                        "signature": "isV28OrHigher()"
                    },
                    "errorInfo": "",
                    "fromAddress": "0x2f9ec37d6ccfff1cab21733bdadede11c823ccb0",
                    "gasUsed": 293,
                    "id": 9,
                    "methodDecoded": true,
                    "operation": "STATICCALL",
                    "output": "0x0000000000000000000000000000000000000000000000000000000000000001",
                    "revert": true,
                    "revertMessage": "",
                    "selector": "0xd260529c",
                    "status": true,
                    "value": "0"
                },
                "nodeType": 0
            }
        },
        "gasFlame": [
            {
                "children": [
                    {
                        "children": [
                            {
                                "children": [],
                                "depth": 0,
                                "name": "Initial Gas",
                                "value": 23980
                            },
                            {
                                "children": [
                                    {
                                        "children": [],
                                        "depth": 1,
                                        "name": "owner",
                                        "value": 2679
                                    },
                                    {
                                        "children": [],
                                        "depth": 1,
                                        "name": "isV28OrHigher",
                                        "value": 293
                                    },
                                    {
                                        "children": [],
                                        "depth": 1,
                                        "name": "transferFrom",
                                        "value": 26530
                                    },
                                    {
                                        "children": [],
                                        "depth": 1,
                                        "name": "addressOf",
                                        "value": 2861
                                    },
                                    {
                                        "children": [],
                                        "depth": 1,
                                        "name": "owner",
                                        "value": 679
                                    },
                                    {
                                        "children": [],
                                        "depth": 1,
                                        "name": "isV28OrHigher",
                                        "value": 293
                                    },
                                    {
                                        "children": [],
                                        "depth": 1,
                                        "name": "owner",
                                        "value": 2687
                                    },
                                    {
                                        "children": [],
                                        "depth": 1,
                                        "name": "isV28OrHigher",
                                        "value": 293
                                    },
                                    {
                                        "children": [
                                            {
                                                "children": [],
                                                "depth": 2,
                                                "name": "addressOf",
                                                "value": 2861
                                            },
                                            {
                                                "children": [],
                                                "depth": 2,
                                                "name": "balanceOf",
                                                "value": 1031
                                            },
                                            {
                                                "children": [],
                                                "depth": 2,
                                                "name": "transfer",
                                                "value": 15652
                                            },
                                            {
                                                "children": [],
                                                "depth": 2,
                                                "name": "totalSupply",
                                                "value": 2350
                                            }
                                        ],
                                        "depth": 1,
                                        "name": "convert",
                                        "value": 65816
                                    },
                                    {
                                        "children": [
                                            {
                                                "children": [],
                                                "depth": 2,
                                                "name": "addressOf",
                                                "value": 861
                                            },
                                            {
                                                "children": [],
                                                "depth": 2,
                                                "name": "balanceOf",
                                                "value": 618
                                            },
                                            {
                                                "children": [],
                                                "depth": 2,
                                                "name": "transfer",
                                                "value": 32593
                                            },
                                            {
                                                "children": [],
                                                "depth": 2,
                                                "name": "totalSupply",
                                                "value": 2336
                                            }
                                        ],
                                        "depth": 1,
                                        "name": "convert",
                                        "value": 75008
                                    }
                                ],
                                "depth": 0,
                                "name": "Executed Gas",
                                "value": 225861
                            }
                        ],
                        "depth": -1,
                        "name": "Actual Gas Used",
                        "value": 249841
                    },
                    {
                        "children": [],
                        "depth": -1,
                        "name": "Refunded Gas",
                        "value": 0
                    }
                ],
                "depth": -2,
                "name": "Total Gas",
                "value": 249841
            }
        ],
        "isConfirmed": true,
        "mainTrace": [
            {
                "children": [
                    {
                        "children": [
                            {
                                "children": [],
                                "depth": 1,
                                "id": 1,
                                "order": 1
                            },
                            {
                                "children": [],
                                "depth": 1,
                                "id": 2,
                                "order": 2
                            },
                            {
                                "children": [
                                    {
                                        "children": [],
                                        "depth": 2,
                                        "id": 4,
                                        "order": 4
                                    }
                                ],
                                "depth": 1,
                                "id": 3,
                                "order": 3
                            },
                            {
                                "children": [],
                                "depth": 1,
                                "id": 5,
                                "order": 5
                            },
                            {
                                "children": [],
                                "depth": 1,
                                "id": 6,
                                "order": 6
                            },
                            {
                                "children": [],
                                "depth": 1,
                                "id": 7,
                                "order": 7
                            },
                            {
                                "children": [],
                                "depth": 1,
                                "id": 8,
                                "order": 8
                            },
                            {
                                "children": [],
                                "depth": 1,
                                "id": 9,
                                "order": 9
                            },
                            {
                                "children": [
                                    {
                                        "children": [],
                                        "depth": 2,
                                        "id": 11,
                                        "order": 11
                                    },
                                    {
                                        "children": [],
                                        "depth": 2,
                                        "id": 12,
                                        "order": 12
                                    },
                                    {
                                        "children": [
                                            {
                                                "children": [],
                                                "depth": 3,
                                                "id": 14,
                                                "order": 14
                                            }
                                        ],
                                        "depth": 2,
                                        "id": 13,
                                        "order": 13
                                    },
                                    {
                                        "children": [],
                                        "depth": 2,
                                        "id": 15,
                                        "order": 15
                                    },
                                    {
                                        "children": [],
                                        "depth": 2,
                                        "id": 16,
                                        "order": 16
                                    },
                                    {
                                        "children": [],
                                        "depth": 2,
                                        "id": 17,
                                        "order": 17
                                    },
                                    {
                                        "children": [],
                                        "depth": 2,
                                        "id": 18,
                                        "order": 18
                                    },
                                    {
                                        "children": [],
                                        "depth": 2,
                                        "id": 19,
                                        "order": 19
                                    }
                                ],
                                "depth": 1,
                                "id": 10,
                                "order": 10
                            },
                            {
                                "children": [],
                                "depth": 1,
                                "id": 20,
                                "order": 20
                            },
                            {
                                "children": [
                                    {
                                        "children": [],
                                        "depth": 2,
                                        "id": 22,
                                        "order": 22
                                    },
                                    {
                                        "children": [],
                                        "depth": 2,
                                        "id": 23,
                                        "order": 23
                                    },
                                    {
                                        "children": [
                                            {
                                                "children": [],
                                                "depth": 3,
                                                "id": 25,
                                                "order": 25
                                            }
                                        ],
                                        "depth": 2,
                                        "id": 24,
                                        "order": 24
                                    },
                                    {
                                        "children": [],
                                        "depth": 2,
                                        "id": 26,
                                        "order": 26
                                    },
                                    {
                                        "children": [],
                                        "depth": 2,
                                        "id": 27,
                                        "order": 27
                                    },
                                    {
                                        "children": [],
                                        "depth": 2,
                                        "id": 28,
                                        "order": 28
                                    },
                                    {
                                        "children": [],
                                        "depth": 2,
                                        "id": 29,
                                        "order": 29
                                    },
                                    {
                                        "children": [],
                                        "depth": 2,
                                        "id": 30,
                                        "order": 30
                                    }
                                ],
                                "depth": 1,
                                "id": 21,
                                "order": 21
                            },
                            {
                                "children": [],
                                "depth": 1,
                                "id": 31,
                                "order": 31
                            }
                        ],
                        "depth": 0,
                        "id": 0,
                        "order": 0
                    }
                ],
                "depth": -1,
                "id": -1,
                "order": -1
            }
        ],
        "mainTraceNodeCount": 32,
        "parentIdMap": {
            "0": -1,
            "1": 0,
            "10": 0,
            "11": 10,
            "12": 10,
            "13": 10,
            "14": 13,
            "15": 10,
            "16": 10,
            "17": 10,
            "18": 10,
            "19": 10,
            "2": 0,
            "20": 0,
            "21": 0,
            "22": 21,
            "23": 21,
            "24": 21,
            "25": 24,
            "26": 21,
            "27": 21,
            "28": 21,
            "29": 21,
            "3": 0,
            "30": 21,
            "31": 0,
            "4": 3,
            "5": 0,
            "6": 0,
            "7": 0,
            "8": 0,
            "9": 0
        },
        "tidyTrace": [
            {
                "children": [
                    {
                        "children": [
                            {
                                "children": [],
                                "depth": 1,
                                "id": 1,
                                "order": 1
                            },
                            {
                                "children": [
                                    {
                                        "children": [],
                                        "depth": 2,
                                        "id": 4,
                                        "order": 4
                                    }
                                ],
                                "depth": 1,
                                "id": 3,
                                "order": 3
                            },
                            {
                                "children": [],
                                "depth": 1,
                                "id": 5,
                                "order": 5
                            },
                            {
                                "children": [],
                                "depth": 1,
                                "id": 6,
                                "order": 6
                            },
                            {
                                "children": [],
                                "depth": 1,
                                "id": 8,
                                "order": 8
                            },
                            {
                                "children": [
                                    {
                                        "children": [
                                            {
                                                "children": [],
                                                "depth": 3,
                                                "id": 14,
                                                "order": 14
                                            }
                                        ],
                                        "depth": 2,
                                        "id": 13,
                                        "order": 13
                                    },
                                    {
                                        "children": [],
                                        "depth": 2,
                                        "id": 15,
                                        "order": 15
                                    },
                                    {
                                        "children": [],
                                        "depth": 2,
                                        "id": 17,
                                        "order": 17
                                    },
                                    {
                                        "children": [],
                                        "depth": 2,
                                        "id": 18,
                                        "order": 18
                                    },
                                    {
                                        "children": [],
                                        "depth": 2,
                                        "id": 19,
                                        "order": 19
                                    }
                                ],
                                "depth": 1,
                                "id": 10,
                                "order": 10
                            },
                            {
                                "children": [],
                                "depth": 1,
                                "id": 20,
                                "order": 20
                            },
                            {
                                "children": [
                                    {
                                        "children": [
                                            {
                                                "children": [],
                                                "depth": 3,
                                                "id": 25,
                                                "order": 25
                                            }
                                        ],
                                        "depth": 2,
                                        "id": 24,
                                        "order": 24
                                    },
                                    {
                                        "children": [],
                                        "depth": 2,
                                        "id": 26,
                                        "order": 26
                                    },
                                    {
                                        "children": [],
                                        "depth": 2,
                                        "id": 28,
                                        "order": 28
                                    },
                                    {
                                        "children": [],
                                        "depth": 2,
                                        "id": 29,
                                        "order": 29
                                    },
                                    {
                                        "children": [],
                                        "depth": 2,
                                        "id": 30,
                                        "order": 30
                                    }
                                ],
                                "depth": 1,
                                "id": 21,
                                "order": 21
                            },
                            {
                                "children": [],
                                "depth": 1,
                                "id": 31,
                                "order": 31
                            }
                        ],
                        "depth": 0,
                        "id": 0,
                        "order": 0
                    }
                ],
                "depth": -1,
                "id": -1,
                "order": -1
            }
        ],
        "tidyTraceNodeCount": 23
    },
    "state_change": {
        "stateChanges": []
    }
}