{
    "balance_change": {
        "balanceChanges": [
            {
                "account": "0x6a3eb79e1c4023f1610ff046c5dc30f9790d326f",
                "assets": [
                    {
                        "address": "0x8e766f57f7d16ca50b4a0b90b88f6468a09b0439",
                        "amount": "16,860",
                        "iconUrl": "",
                        "isERC1155": false,
                        "isERC721": false,
                        "sign": false,
                        "value": ""
                    }
                ]
            },
            {
                "account": "0x91e5b25bae08b20d7fd42230989b092f8c24f9b5",
                "assets": [
                    {
                        "address": "0x8e766f57f7d16ca50b4a0b90b88f6468a09b0439",
                        "amount": "16,860",
                        "iconUrl": "",
                        "isERC1155": false,
                        "isERC721": false,
                        "sign": true,
                        "value": ""
                    }
                ]
            }
        ]
    },
    "profile": {
        "basic_info": {
            "baseFee": "",
            "blockNumber": 8384617,
            "callData": "0xa9059cbb00000000000000000000000091e5b25bae08b20d7fd42230989b092f8c24f9b5000000000000000000000000000000000000000000000391fb809fe43df00000",
            "debugEnable": true,
            "errorInfo": "",
            "eventCount": 1,
            "feeRecipient": "0x829bd824b016326a401d083b33d092293333a830",
            "formatValue": "0",
            "gasLimit": 60000,
            "gasPrice": "20",
            "gasUsed": 53360,
            "intTxnCount": 0,
            "internalRevert": false,
            "internalRevertMessage": "",
            "isContractCreation": false,
            "isFlashloan": false,
            "maxFee": "",
            "nonce": 274700,
            "overwritedBlockNumber": -1,
            "priorityFee": "",
            "receiver": "0x8e766f57f7d16ca50b4a0b90b88f6468a09b0439",
            "revertMessage": "",
            "sender": "0x6a3eb79e1c4023f1610ff046c5dc30f9790d326f",
            "simulationEnable": true,
            "sourceTxnHash": "0x47c1aefda7ce17666368bcf48f72773ac14bc69ec0dd76d15eb67e3349894eb0",
            "status": true,
            "timestamp": "2019-08-20T02:34:10Z",
            "transactionFee": "0.0010672",
            "txnHash": "0x47c1aefda7ce17666368bcf48f72773ac14bc69ec0dd76d15eb67e3349894eb0",
            "txnIndex": 80,
            "type": 0,
            "value": "0"
        },
        "fund_flow": [
            {
                "amount": "16,860",
                "from": "0x6a3eb79e1c4023f1610ff046c5dc30f9790d326f",
                "id": 1,
                "isERC1155": false,
                "isERC721": false,
                "isReverted": false,
                "order": 1,
                "to": "0x91e5b25bae08b20d7fd42230989b092f8c24f9b5",
                "token": "0x8e766f57f7d16ca50b4a0b90b88f6468a09b0439"
            }
        ],
        "token_infos": [
            {
                "address": "0x8e766f57f7d16ca50b4a0b90b88f6468a09b0439",
                "decimals": 18
            },
            {
                "address": "0xc02aaa39b223fe8d0a0e5c4f27ead9083c756cc2",
                "decimals": 18
            },
            {
                "address": "0xeeeeeeeeeeeeeeeeeeeeeeeeeeeeeeeeeeeeeeee",
                "decimals": 18
            }
        ]
    },
    "address_label": {
        "labels": [
            {
                "address": "0xeeeeeeeeeeeeeeeeeeeeeeeeeeeeeeeeeeeeeeee",
                "label": "Ether"
            },
            {
                "address": "0x8e766f57f7d16ca50b4a0b90b88f6468a09b0439",
                "label": "MaxiMine Coin"
            },
            {
                "address": "0x0000000000000000000000000000000000000001",
                "label": "Precompiled"
            },
            {
                "address": "0x0000000000000000000000000000000000000002",
                "label": "Precompiled"
            },
            {
                "address": "0x0000000000000000000000000000000000000003",
                "label": "Precompiled"
            },
            {
                "address": "0x0000000000000000000000000000000000000004",
                "label": "Precompiled"
            }
        ]
    },
    "trace": {
        "accountLabels": null,
        "dataMap": {
            "-1": {
                "invocation": {
                    "address": "0x6a3eb79e1c4023f1610ff046c5dc30f9790d326f",
                    "callData": "",
                    "decodedMethod": null,
                    "errorInfo": "",
                    "fromAddress": "",
                    "gasUsed": 0,
                    "id": -1,
                    "methodDecoded": false,
                    "operation": "",
                    "output": "",
                    "revert": false,
                    "revertMessage": "",
                    "selector": "",
                    "status": false,
                    "value": ""
                },
                "nodeType": 0
            },
            "0": {
                "invocation": {
                    "address": "0x8e766f57f7d16ca50b4a0b90b88f6468a09b0439",
                    "callData": "0x00000000000000000000000091e5b25bae08b20d7fd42230989b092f8c24f9b5000000000000000000000000000000000000000000000391fb809fe43df00000",
                    "decodedMethod": {
                        "callParams": [
                            {
                                "name": "_to",
                                "type": "address",
                                "value": "0x91e5b25bae08b20d7fd42230989b092f8c24f9b5"
                            },
                            {
                                "decimalAvailable": true,
                                "name": "_value",
                                "type": "uint256",
                                "value": "16,860,000,000,000,000,000,000"
                            }
                        ],
                        "constructorArguments": "",
                        "name": "transfer",
                        "returnParams": [],
                        "signature": "transfer(address,uint256)"
                    },
                    "errorInfo": "",
                    "fromAddress": "0x6a3eb79e1c4023f1610ff046c5dc30f9790d326f",
                    "gasUsed": 53360,
                    "id": 0,
                    "methodDecoded": true,
                    "operation": "CALL",
                    "output": "",
                    "revert": false,
                    "revertMessage": "",
                    "selector": "0xa9059cbb",
                    "status": true,
                    "value": "0"
                },
                "nodeType": 0
            },
            "1": {
                "event": {
                    "contract": "0x8e766f57f7d16ca50b4a0b90b88f6468a09b0439",
                    "decodedLog": {
                        "name": "Transfer",
                        "params": [
                            {
                                "name": "from",
                                "type": "address",
                                "value": "0x6a3eb79e1c4023f1610ff046c5dc30f9790d326f"
                            },
                            {
                                "name": "to",
                                "type": "address",
                                "value": "0x91e5b25bae08b20d7fd42230989b092f8c24f9b5"
                            },
                            {
                                "decimalAvailable": true,
                                "name": "value",
                                "type": "uint256",
                                "value": "16,860,000,000,000,000,000,000"
                            }
                        ],
                        "signature": "Transfer(address,address,uint256)"
                    },
                    "id": 1,
                    "logData": "0x000000000000000000000000000000000000000000000391fb809fe43df00000",
                    "logDecoded": true,
                    "operation": "EVENT",
                    "revert": false,
                    "status": true,
                    "topics": [
                        "0xddf252ad1be2c89b69c2b068fc378daa952ba7f163c4a11628f55a4df523b3ef",
                        "0x0000000000000000000000006a3eb79e1c4023f1610ff046c5dc30f9790d326f",
                        "0x00000000000000000000000091e5b25bae08b20d7fd42230989b092f8c24f9b5"
                    ]
                },
                "nodeType": 1
            }
        },
        "gasFlame": [
            {
                "children": [
                    {
                        "children": [
                            {
                                "children": [],
                                "depth": 0,
                                "name": "Initial Gas",
                                "value": 23320
                            },
                            {
                                "children": [],
                                "depth": 0,
                                "name": "Executed Gas",
                                "value": 30040
                            }
                        ],
                        "depth": -1,
                        "name": "Actual Gas Used",
                        "value": 53360
                    },
                    {
                        "children": [],
                        "depth": -1,
                        "name": "Refunded Gas",
                        "value": 0
                    }
                ],
                "depth": -2,
                "name": "Total Gas",
                "value": 53360
            }
        ],
        "isConfirmed": true,
        "mainTrace": [
            {
                "children": [
                    {
                        "children": [
                            {
                                "children": [],
                                "depth": 1,
                                "id": 1,
                                "order": 1
                            }
                        ],
                        "depth": 0,
                        "id": 0,
                        "order": 0
                    }
                ],
                "depth": -1,
                "id": -1,
                "order": -1
            }
        ],
        "mainTraceNodeCount": 2,
        "parentIdMap": {
            "0": -1,
            "1": 0
        },
        "tidyTrace": [
            {
                "children": [
                    {
                        "children": [
                            {
                                "children": [],
                                "depth": 1,
                                "id": 1,
                                "order": 1
                            }
                        ],
                        "depth": 0,
                        "id": 0,
                        "order": 0
                    }
                ],
                "depth": -1,
                "id": -1,
                "order": -1
            }
        ],
        "tidyTraceNodeCount": 2
    },
    "state_change": {
        "stateChanges": [
            {
                "address": "0x8e766f57f7d16ca50b4a0b90b88f6468a09b0439",
                "erc": "",
                "slots": [
                    {
                        "current": "0x000000000000000000000000000000000000000000e1c3f7a22f79b586876400",
                        "key": "0x6116b4ffd52cacae48768e3fd1d94a36e1e432604bbc33f6f98c11770eb153a0",
                        "prev": "0x000000000000000000000000000000000000000000e1c7899db01999c4776400"
                    },
                    {
                        "current": "0x000000000000000000000000000000000000000000000391fb809fe43df00000",
                        "key": "0x885c3894472b6255c7c6fb98e48ae33697bc948375c3c40bed20d8135b171977",
                        "prev": "0x0000000000000000000000000000000000000000000000000000000000000000"
                    }
                ],
                "storageVariables": [
                    {
                        "name": "balanceOf",
                        "type": "mapping(address => uint256)",
                        "value": {
                            "pairs": [
                                {
                                    "key": "0x6a3eb79e1c4023f1610ff046c5dc30f9790d326f",
                                    "value": {
                                        "current": "272933738909930729987597312",
                                        "prev": "272950598909930729987597312",
                                        "typeTag": 1
                                    }
                                },
                                {
                                    "key": "0x91e5b25bae08b20d7fd42230989b092f8c24f9b5",
                                    "value": {
                                        "current": "16860000000000000000000",
                                        "prev": "0",
                                        "typeTag": 1
                                    }
                                }
                            ],
                            "typeTag": 4
                        }
                    }
                ]
            }
        ]
    }
}