{
    "balance_change": {
        "balanceChanges": [
            {
                "account": "0x4bfe2a4970e36bb7e549938bccb428b2f82b9b27",
                "assets": [
                    {
                        "address": "0xeeeeeeeeeeeeeeeeeeeeeeeeeeeeeeeeeeeeeeee",
                        "amount": "0.021283",
                        "iconUrl": "https://assets.blocksec.com/image/1663669189317-3.png",
                        "isERC1155": false,
                        "isERC721": false,
                        "sign": false,
                        "value": ""
                    }
                ]
            },
            {
                "account": "0xdd9fd6b6f8f7ea932997992bbe67eabb3e316f3c",
                "assets": [
                    {
                        "address": "0xeeeeeeeeeeeeeeeeeeeeeeeeeeeeeeeeeeeeeeee",
                        "amount": "0.02043168",
                        "iconUrl": "https://assets.blocksec.com/image/1663669189317-3.png",
                        "isERC1155": false,
                        "isERC721": false,
                        "sign": true,
                        "value": ""
                    }
                ]
            },
            {
                "account": "0x79f77200c65076c5b8494899097cf9ccd01c8293",
                "assets": [
                    {
                        "address": "0xeeeeeeeeeeeeeeeeeeeeeeeeeeeeeeeeeeeeeeee",
                        "amount": "0.00042566",
                        "iconUrl": "https://assets.blocksec.com/image/1663669189317-3.png",
                        "isERC1155": false,
                        "isERC721": false,
                        "sign": true,
                        "value": ""
                    }
                ]
            },
            {
                "account": "0xd71cbd05fc1935b21753991ee9c83bf21404a739",
                "assets": [
                    {
                        "address": "0xeeeeeeeeeeeeeeeeeeeeeeeeeeeeeeeeeeeeeeee",
                        "amount": "0.00042566",
                        "iconUrl": "https://assets.blocksec.com/image/1663669189317-3.png",
                        "isERC1155": false,
                        "isERC721": false,
                        "sign": true,
                        "value": ""
                    }
                ]
            }
        ]
    },
    "profile": {
        "basic_info": {
            "baseFee": "",
            "blockNumber": 6106491,
            "callData": "0x8f38f3090000000000000000000000000000000000000000000000000000000000000e5d0000000000000000000000000000000000000000000000000000000000000000",
            "debugEnable": true,
            "errorInfo": "",
            "eventCount": 2,
            "feeRecipient": "0x70aec4b9cffa7b55c0711b82dd719049d615e21d",
            "formatValue": "0.021283",
            "gasLimit": 800000,
            "gasPrice": "60",
            "gasUsed": 181536,
            "intTxnCount": 2,
            "internalRevert": false,
            "internalRevertMessage": "",
            "isContractCreation": false,
            "isFlashloan": false,
            "maxFee": "",
            "nonce": 16,
            "overwritedBlockNumber": -1,
            "priorityFee": "",
            "receiver": "0xdd9fd6b6f8f7ea932997992bbe67eabb3e316f3c",
            "revertMessage": "",
            "sender": "0x4bfe2a4970e36bb7e549938bccb428b2f82b9b27",
            "simulationEnable": true,
            "sourceTxnHash": "0x47669234b969fe8ef1eac5e2fc422dd6dcfe8647ef34f3f0f1b61e437fe9e47f",
            "status": true,
            "timestamp": "2018-08-07T20:31:51Z",
            "transactionFee": "0.01089216",
            "txnHash": "0x47669234b969fe8ef1eac5e2fc422dd6dcfe8647ef34f3f0f1b61e437fe9e47f",
            "txnIndex": 56,
            "type": 0,
            "value": "21283000000000000"
        },
        "fund_flow": [
            {
                "amount": "0.021283",
                "from": "0x4bfe2a4970e36bb7e549938bccb428b2f82b9b27",
                "id": 1,
                "isERC1155": false,
                "isERC721": false,
                "isReverted": false,
                "order": 1,
                "to": "0xdd9fd6b6f8f7ea932997992bbe67eabb3e316f3c",
                "token": "0xeeeeeeeeeeeeeeeeeeeeeeeeeeeeeeeeeeeeeeee"
            },
            {
                "amount": "0.00042566",
                "from": "0xdd9fd6b6f8f7ea932997992bbe67eabb3e316f3c",
                "id": 2,
                "isERC1155": false,
                "isERC721": false,
                "isReverted": false,
                "order": 2,
                "to": "0xd71cbd05fc1935b21753991ee9c83bf21404a739",
                "token": "0xeeeeeeeeeeeeeeeeeeeeeeeeeeeeeeeeeeeeeeee"
            },
            {
                "amount": "0.00042566",
                "from": "0xdd9fd6b6f8f7ea932997992bbe67eabb3e316f3c",
                "id": 3,
                "isERC1155": false,
                "isERC721": false,
                "isReverted": false,
                "order": 3,
                "to": "0x79f77200c65076c5b8494899097cf9ccd01c8293",
                "token": "0xeeeeeeeeeeeeeeeeeeeeeeeeeeeeeeeeeeeeeeee"
            }
        ],
        "token_infos": [
            {
                "address": "0xeeeeeeeeeeeeeeeeeeeeeeeeeeeeeeeeeeeeeeee",
                "decimals": 18
            },
            {
                "address": "0xc02aaa39b223fe8d0a0e5c4f27ead9083c756cc2",
                "decimals": 18
            }
        ]
    },
    "address_label": {
        "labels": [
            {
                "address": "0xeeeeeeeeeeeeeeeeeeeeeeeeeeeeeeeeeeeeeeee",
                "label": "Ether"
            },
            {
                "address": "0x0000000000000000000000000000000000000001",
                "label": "Precompiled"
            },
            {
                "address": "0x0000000000000000000000000000000000000002",
                "label": "Precompiled"
            },
            {
                "address": "0x0000000000000000000000000000000000000003",
                "label": "Precompiled"
            },
            {
                "address": "0x0000000000000000000000000000000000000004",
                "label": "Precompiled"
            }
        ]
    },
    "trace": {
        "accountLabels": null,
        "dataMap": {
            "-1": {
                "invocation": {
                    "address": "0x4bfe2a4970e36bb7e549938bccb428b2f82b9b27",
                    "callData": "",
                    "decodedMethod": null,
                    "errorInfo": "",
                    "fromAddress": "",
                    "gasUsed": 0,
                    "id": -1,
                    "methodDecoded": false,
                    "operation": "",
                    "output": "",
                    "revert": false,
                    "revertMessage": "",
                    "selector": "",
                    "status": false,
                    "value": ""
                },
                "nodeType": 0
            },
            "0": {
                "invocation": {
                    "address": "0xdd9fd6b6f8f7ea932997992bbe67eabb3e316f3c",
                    "callData": "0x0000000000000000000000000000000000000000000000000000000000000e5d0000000000000000000000000000000000000000000000000000000000000000",
                    "decodedMethod": {
                        "callParams": [
                            {
                                "name": "_affCode",
                                "type": "uint256",
                                "value": "3,677"
                            },
                            {
                                "name": "_team",
                                "type": "uint256",
                                "value": "0"
                            }
                        ],
                        "constructorArguments": "",
                        "name": "buyXid",
                        "returnParams": [],
                        "signature": "buyXid(uint256,uint256)"
                    },
                    "errorInfo": "",
                    "fromAddress": "0x4bfe2a4970e36bb7e549938bccb428b2f82b9b27",
                    "gasUsed": 181536,
                    "id": 0,
                    "methodDecoded": true,
                    "operation": "CALL",
                    "output": "",
                    "revert": false,
                    "revertMessage": "",
                    "selector": "0x8f38f309",
                    "status": true,
                    "value": "0.021283"
                },
                "nodeType": 0
            },
            "1": {
                "invocation": {
                    "address": "0xd71cbd05fc1935b21753991ee9c83bf21404a739",
                    "callData": "0x",
                    "decodedMethod": null,
                    "errorInfo": "",
                    "fromAddress": "0xdd9fd6b6f8f7ea932997992bbe67eabb3e316f3c",
                    "gasUsed": 0,
                    "id": 1,
                    "methodDecoded": false,
                    "operation": "CALL",
                    "output": "",
                    "revert": false,
                    "revertMessage": "",
                    "selector": "fallback",
                    "status": true,
                    "value": "0.00042566"
                },
                "nodeType": 0
            },
            "2": {
                "invocation": {
                    "address": "0x79f77200c65076c5b8494899097cf9ccd01c8293",
                    "callData": "0x",
                    "decodedMethod": null,
                    "errorInfo": "",
                    "fromAddress": "0xdd9fd6b6f8f7ea932997992bbe67eabb3e316f3c",
                    "gasUsed": 0,
                    "id": 2,
                    "methodDecoded": false,
                    "operation": "CALL",
                    "output": "",
                    "revert": false,
                    "revertMessage": "",
                    "selector": "fallback",
                    "status": true,
                    "value": "0.00042566"
                },
                "nodeType": 0
            },
            "3": {
                "event": {
                    "contract": "0xdd9fd6b6f8f7ea932997992bbe67eabb3e316f3c",
                    "decodedLog": {
                        "name": "onAffiliatePayout",
                        "params": [
                            {
                                "name": "affiliateID",
                                "type": "uint256",
                                "value": "3,677"
                            },
                            {
                                "name": "roundID",
                                "type": "uint256",
                                "value": "1"
                            },
                            {
                                "name": "buyerID",
                                "type": "uint256",
                                "value": "4,157"
                            },
                            {
                                "name": "affiliateAddress",
                                "type": "address",
                                "value": "0x5013813d3fc51438d67ac7bc1957657661c0e9d3"
                            },
                            {
                                "name": "affiliateName",
                                "type": "bytes32",
                                "value": "0x6c6b6e7276686f616c6c6b6e7679753135333335373233373333353200000000"
                            },
                            {
                                "name": "amount",
                                "type": "uint256",
                                "value": "2,128,300,000,000,000"
                            },
                            {
                                "name": "timeStamp",
                                "type": "uint256",
                                "value": "1,533,673,911"
                            }
                        ],
                        "signature": "onAffiliatePayout(uint256,address,bytes32,uint256,uint256,uint256,uint256)"
                    },
                    "id": 3,
                    "logData": "0x0000000000000000000000005013813d3fc51438d67ac7bc1957657661c0e9d36c6b6e7276686f616c6c6b6e767975313533333537323337333335320000000000000000000000000000000000000000000000000000000000078fad7579b800000000000000000000000000000000000000000000000000000000005b6a01b7",
                    "logDecoded": true,
                    "operation": "EVENT",
                    "revert": false,
                    "status": true,
                    "topics": [
                        "0x590bbc0fc16915a85269a48f74783c39842b7ae9eceb7c295c95dbe8b3ec7331",
                        "0x0000000000000000000000000000000000000000000000000000000000000e5d",
                        "0x0000000000000000000000000000000000000000000000000000000000000001",
                        "0x000000000000000000000000000000000000000000000000000000000000103d"
                    ]
                },
                "nodeType": 1
            },
            "4": {
                "event": {
                    "contract": "0xdd9fd6b6f8f7ea932997992bbe67eabb3e316f3c",
                    "decodedLog": {
                        "name": "onEndTx",
                        "params": [
                            {
                                "name": "compressedData",
                                "type": "uint256",
                                "value": "1,533,673,911,000,000,000,000,050,100"
                            },
                            {
                                "name": "compressedIDs",
                                "type": "uint256",
                                "value": "10,000,000,000,000,000,000,000,000,000,000,000,000,000,000,000,004,157"
                            },
                            {
                                "name": "playerName",
                                "type": "bytes32",
                                "value": "0x6565616a6a7378686e72747969617a3135333335373239363533303800000000"
                            },
                            {
                                "name": "playerAddress",
                                "type": "address",
                                "value": "0x4bfe2a4970e36bb7e549938bccb428b2f82b9b27"
                            },
                            {
                                "name": "ethIn",
                                "type": "uint256",
                                "value": "21,283,000,000,000,000"
                            },
                            {
                                "name": "keysBought",
                                "type": "uint256",
                                "value": "10,997,943,716,065,018,501"
                            },
                            {
                                "name": "winnerAddr",
                                "type": "address",
                                "value": "0x0000000000000000000000000000000000000000"
                            },
                            {
                                "name": "winnerName",
                                "type": "bytes32",
                                "value": "0x0000000000000000000000000000000000000000000000000000000000000000"
                            },
                            {
                                "name": "amountWon",
                                "type": "uint256",
                                "value": "0"
                            },
                            {
                                "name": "newPot",
                                "type": "uint256",
                                "value": "0"
                            },
                            {
                                "name": "P3DAmount",
                                "type": "uint256",
                                "value": "0"
                            },
                            {
                                "name": "genAmount",
                                "type": "uint256",
                                "value": "13,408,289,989,596,026"
                            },
                            {
                                "name": "potAmount",
                                "type": "uint256",
                                "value": "2,128,300,000,000,000"
                            },
                            {
                                "name": "airDropPot",
                                "type": "uint256",
                                "value": "1,877,564,829,838,041,907"
                            }
                        ],
                        "signature": "onEndTx(uint256,uint256,bytes32,address,uint256,uint256,address,bytes32,uint256,uint256,uint256,uint256,uint256,uint256)"
                    },
                    "id": 4,
                    "logData": "0x000000000000000000000000000000000000000004f4a0154f3d297c0c7cc3b4000000000000000000001aba4714957d300d0e549208b31adb1000000000103d6565616a6a7378686e72747969617a31353333353732393635333038000000000000000000000000000000004bfe2a4970e36bb7e549938bccb428b2f82b9b27000000000000000000000000000000000000000000000000004b9cc696c1300000000000000000000000000000000000000000000000000098a08b8a47cb828500000000000000000000000000000000000000000000000000000000000000000000000000000000000000000000000000000000000000000000000000000000000000000000000000000000000000000000000000000000000000000000000000000000000000000000000000000000000000000000000000000000000000000000000000000000000000000000000000000000000000000000000000000000000000000000000000000000000000000000000000000000002fa2c4c9e0137a00000000000000000000000000000000000000000000000000078fad7579b8000000000000000000000000000000000000000000000000001a0e7343d5436333",
                    "logDecoded": true,
                    "operation": "EVENT",
                    "revert": false,
                    "status": true,
                    "topics": [
                        "0x500e72a0e114930aebdbcb371ccdbf43922c49f979794b5de4257ff7e310c746"
                    ]
                },
                "nodeType": 1
            }
        },
        "gasFlame": [
            {
                "children": [
                    {
                        "children": [
                            {
                                "children": [],
                                "depth": 0,
                                "name": "Initial Gas",
                                "value": 21656
                            },
                            {
                                "children": [
                                    {
                                        "children": [],
                                        "depth": 1,
                                        "name": "fallback",
                                        "value": 0
                                    },
                                    {
                                        "children": [],
                                        "depth": 1,
                                        "name": "fallback",
                                        "value": 0
                                    }
                                ],
                                "depth": 0,
                                "name": "Executed Gas",
                                "value": 159880
                            }
                        ],
                        "depth": -1,
                        "name": "Actual Gas Used",
                        "value": 181536
                    },
                    {
                        "children": [],
                        "depth": -1,
                        "name": "Refunded Gas",
                        "value": 0
                    }
                ],
                "depth": -2,
                "name": "Total Gas",
                "value": 181536
            }
        ],
        "isConfirmed": true,
        "mainTrace": [
            {
                "children": [
                    {
                        "children": [
                            {
                                "children": [],
                                "depth": 1,
                                "id": 1,
                                "order": 1
                            },
                            {
                                "children": [],
                                "depth": 1,
                                "id": 2,
                                "order": 2
                            },
                            {
                                "children": [],
                                "depth": 1,
                                "id": 3,
                                "order": 3
                            },
                            {
                                "children": [],
                                "depth": 1,
                                "id": 4,
                                "order": 4
                            }
                        ],
                        "depth": 0,
                        "id": 0,
                        "order": 0
                    }
                ],
                "depth": -1,
                "id": -1,
                "order": -1
            }
        ],
        "mainTraceNodeCount": 5,
        "parentIdMap": {
            "0": -1,
            "1": 0,
            "2": 0,
            "3": 0,
            "4": 0
        },
        "tidyTrace": [
            {
                "children": [
                    {
                        "children": [
                            {
                                "children": [],
                                "depth": 1,
                                "id": 1,
                                "order": 1
                            },
                            {
                                "children": [],
                                "depth": 1,
                                "id": 2,
                                "order": 2
                            },
                            {
                                "children": [],
                                "depth": 1,
                                "id": 3,
                                "order": 3
                            },
                            {
                                "children": [],
                                "depth": 1,
                                "id": 4,
                                "order": 4
                            }
                        ],
                        "depth": 0,
                        "id": 0,
                        "order": 0
                    }
                ],
                "depth": -1,
                "id": -1,
                "order": -1
            }
        ],
        "tidyTraceNodeCount": 5
    },
    "state_change": {
        "stateChanges": [
            {
                "address": "0xdd9fd6b6f8f7ea932997992bbe67eabb3e316f3c",
                "erc": "",
                "slots": [
                    {
                        "current": "0x0000000000000000000000000000000000000000000000001a0e7343d5436333",
                        "key": "0x0000000000000000000000000000000000000000000000000000000000000005",
                        "prev": "0x0000000000000000000000000000000000000000000000001a06e3965fc9ab33"
                    },
                    {
                        "current": "0x000000000000000000000000000000000000000000000000051be87abeb5b090",
                        "key": "0xe39c60b68732c0e9becc82fc40832cb1a88342d406a8786d3c0e9163438c7116",
                        "prev": "0x00000000000000000000000000000000000000000000000004e46d3fc2cd29f7"
                    },
                    {
                        "current": "0x000000000000000000000000000000000000000000000000000000000000103d",
                        "key": "0xfd54ff1ed53f34a900b24c5ba64f85761163b5d82d98a47b9bd80e45466993c5",
                        "prev": "0x000000000000000000000000000000000000000000000000000000000000319a"
                    },
                    {
                        "current": "0x00000000000000000000000000000000000000000000000006f4ecf608e06000",
                        "key": "0xe39c60b68732c0e9becc82fc40832cb1a88342d406a8786d3c0e9163438c7114",
                        "prev": "0x00000000000000000000000000000000000000000000000006a9502f721f3000"
                    },
                    {
                        "current": "0x000000000000000000000000000000000000000000000000017f07e38de8dc00",
                        "key": "0xa9baaf6a3b69fb7974730be1fb97af68288b01d58f8d75c46e722ee1a16f6d0e",
                        "prev": "0x00000000000000000000000000000000000000000000000001777836186f2400"
                    },
                    {
                        "current": "0x00000000000000000000000000000000000000000000000e1e9fe1228155f17a",
                        "key": "0xe39c60b68732c0e9becc82fc40832cb1a88342d406a8786d3c0e9163438c7115",
                        "prev": "0x00000000000000000000000000000000000000000000000d85ff5598398a6ef5"
                    },
                    {
                        "current": "0x000000000000000000000000000000000000000000000288aa440047262ae876",
                        "key": "0xfd54ff1ed53f34a900b24c5ba64f85761163b5d82d98a47b9bd80e45466993cc",
                        "prev": "0x000000000000000000000000000000000000000000000288a9f863808f69b876"
                    },
                    {
                        "current": "0x00000000000000000000000000000000000000000000000000050b71f8ec8fa7",
                        "key": "0xfd54ff1ed53f34a900b24c5ba64f85761163b5d82d98a47b9bd80e45466993ce",
                        "prev": "0x00000000000000000000000000000000000000000000000000050b71b5cb36b9"
                    },
                    {
                        "current": "0x0000000000000000000000000000000000000000000002516ec5764688e99c20",
                        "key": "0x14c59eed989372b13b9ffdad3c397c178450139af216ccc91acde49544dcd980",
                        "prev": "0x0000000000000000000000000000000000000000000002516e79d97ff2286c20"
                    },
                    {
                        "current": "0x0000000000000000000000004bfe2a4970e36bb7e549938bccb428b2f82b9b27",
                        "key": "0xfd54ff1ed53f34a900b24c5ba64f85761163b5d82d98a47b9bd80e45466993c7",
                        "prev": "0x0000000000000000000000001914d0fd55779f13da0d606a1d6cad005a92e4f7"
                    },
                    {
                        "current": "0x000000000000000000000000000000000000000000000055be94df6224763cc4",
                        "key": "0xfd54ff1ed53f34a900b24c5ba64f85761163b5d82d98a47b9bd80e45466993cd",
                        "prev": "0x000000000000000000000000000000000000000000000055be8d4fb4ae5dc43e"
                    },
                    {
                        "current": "0x00000000000000000000000000000000000000000009d903e2b5bf0319a37250",
                        "key": "0xfd54ff1ed53f34a900b24c5ba64f85761163b5d82d98a47b9bd80e45466993cb",
                        "prev": "0x00000000000000000000000000000000000000000009d9034a153378d1d7efcb"
                    },
                    {
                        "current": "0x00000000000000000000000000000000000000000000000003d19286d26de000",
                        "key": "0xfdd16e60c64c0cf28ae99b2349135f65924a4cbdccb52264806ad913b3f88414",
                        "prev": "0x00000000000000000000000000000000000000000000000003cf4dd2c8c95c00"
                    }
                ],
                "storageVariables": []
            }
        ]
    }
}