{
    "balance_change": {
        "balanceChanges": [
            {
                "account": "0x303cee4bb1cb3913e91d0bb23ccbf31afda0c550",
                "assets": [
                    {
                        "address": "0x7584caaddec54b83f6ae8c24d2fafeec2a8a98db",
                        "amount": "210",
                        "iconUrl": "",
                        "isERC1155": false,
                        "isERC721": false,
                        "sign": false,
                        "value": ""
                    }
                ]
            },
            {
                "account": "0x8dcce1c43aba49f22f958f6ab723a7c1d837b8c9",
                "assets": [
                    {
                        "address": "0x7584caaddec54b83f6ae8c24d2fafeec2a8a98db",
                        "amount": "210",
                        "iconUrl": "",
                        "isERC1155": false,
                        "isERC721": false,
                        "sign": true,
                        "value": ""
                    }
                ]
            }
        ]
    },
    "profile": {
        "basic_info": {
            "baseFee": "",
            "blockNumber": 9068737,
            "callData": "0xa9059cbb0000000000000000000000008dcce1c43aba49f22f958f6ab723a7c1d837b8c90000000000000000000000000000000000000000000000000000000000200b20",
            "debugEnable": true,
            "errorInfo": "",
            "eventCount": 1,
            "feeRecipient": "0x5a0b54d5dc17e0aadc383d2db43b0a0d3e029c4c",
            "formatValue": "0",
            "gasLimit": 100000,
            "gasPrice": "10",
            "gasUsed": 21711,
            "intTxnCount": 0,
            "internalRevert": false,
            "internalRevertMessage": "",
            "isContractCreation": false,
            "isFlashloan": false,
            "maxFee": "",
            "nonce": 21,
            "overwritedBlockNumber": -1,
            "priorityFee": "",
            "receiver": "0x7584caaddec54b83f6ae8c24d2fafeec2a8a98db",
            "revertMessage": "",
            "sender": "0x303cee4bb1cb3913e91d0bb23ccbf31afda0c550",
            "simulationEnable": true,
            "sourceTxnHash": "0x472efcfb9a8a7a26210b36229cd4fe729c64130f632ba2b934d7b103f010bc34",
            "status": true,
            "timestamp": "2019-12-07T23:22:02Z",
            "transactionFee": "0.00021711",
            "txnHash": "0x472efcfb9a8a7a26210b36229cd4fe729c64130f632ba2b934d7b103f010bc34",
            "txnIndex": 1,
            "type": 0,
            "value": "0"
        },
        "fund_flow": [
            {
                "amount": "210",
                "from": "0x303cee4bb1cb3913e91d0bb23ccbf31afda0c550",
                "id": 1,
                "isERC1155": false,
                "isERC721": false,
                "isReverted": false,
                "order": 1,
                "to": "0x8dcce1c43aba49f22f958f6ab723a7c1d837b8c9",
                "token": "0x7584caaddec54b83f6ae8c24d2fafeec2a8a98db"
            }
        ],
        "token_infos": [
            {
                "address": "0x7584caaddec54b83f6ae8c24d2fafeec2a8a98db",
                "decimals": 4
            },
            {
                "address": "0xc02aaa39b223fe8d0a0e5c4f27ead9083c756cc2",
                "decimals": 18
            },
            {
                "address": "0xeeeeeeeeeeeeeeeeeeeeeeeeeeeeeeeeeeeeeeee",
                "decimals": 18
            }
        ]
    },
    "address_label": {
        "labels": [
            {
                "address": "0x0000000000000000000000000000000000000003",
                "label": "Precompiled"
            },
            {
                "address": "0x0000000000000000000000000000000000000004",
                "label": "Precompiled"
            },
            {
                "address": "0xeeeeeeeeeeeeeeeeeeeeeeeeeeeeeeeeeeeeeeee",
                "label": "Ether"
            },
            {
                "address": "0x7584caaddec54b83f6ae8c24d2fafeec2a8a98db",
                "label": "SAB"
            },
            {
                "address": "0x0000000000000000000000000000000000000001",
                "label": "Precompiled"
            },
            {
                "address": "0x0000000000000000000000000000000000000002",
                "label": "Precompiled"
            }
        ]
    },
    "trace": {
        "accountLabels": null,
        "dataMap": {
            "-1": {
                "invocation": {
                    "address": "0x303cee4bb1cb3913e91d0bb23ccbf31afda0c550",
                    "callData": "",
                    "decodedMethod": null,
                    "errorInfo": "",
                    "fromAddress": "",
                    "gasUsed": 0,
                    "id": -1,
                    "methodDecoded": false,
                    "operation": "",
                    "output": "",
                    "revert": false,
                    "revertMessage": "",
                    "selector": "",
                    "status": false,
                    "value": ""
                },
                "nodeType": 0
            },
            "0": {
                "invocation": {
                    "address": "0x7584caaddec54b83f6ae8c24d2fafeec2a8a98db",
                    "callData": "0x0000000000000000000000008dcce1c43aba49f22f958f6ab723a7c1d837b8c90000000000000000000000000000000000000000000000000000000000200b20",
                    "decodedMethod": {
                        "callParams": [
                            {
                                "name": "recipient",
                                "type": "address",
                                "value": "0x8dcce1c43aba49f22f958f6ab723a7c1d837b8c9"
                            },
                            {
                                "decimalAvailable": true,
                                "name": "amount",
                                "type": "uint256",
                                "value": "2,100,000"
                            }
                        ],
                        "constructorArguments": "",
                        "name": "transfer",
                        "returnParams": [
                            {
                                "name": "",
                                "type": "bool",
                                "value": true
                            }
                        ],
                        "signature": "transfer(address,uint256)"
                    },
                    "errorInfo": "",
                    "fromAddress": "0x303cee4bb1cb3913e91d0bb23ccbf31afda0c550",
                    "gasUsed": 21711,
                    "id": 0,
                    "methodDecoded": true,
                    "operation": "CALL",
                    "output": "0x0000000000000000000000000000000000000000000000000000000000000001",
                    "revert": false,
                    "revertMessage": "",
                    "selector": "0xa9059cbb",
                    "status": true,
                    "value": "0"
                },
                "nodeType": 0
            },
            "1": {
                "event": {
                    "contract": "0x7584caaddec54b83f6ae8c24d2fafeec2a8a98db",
                    "decodedLog": {
                        "name": "Transfer",
                        "params": [
                            {
                                "name": "from",
                                "type": "address",
                                "value": "0x303cee4bb1cb3913e91d0bb23ccbf31afda0c550"
                            },
                            {
                                "name": "to",
                                "type": "address",
                                "value": "0x8dcce1c43aba49f22f958f6ab723a7c1d837b8c9"
                            },
                            {
                                "decimalAvailable": true,
                                "name": "value",
                                "type": "uint256",
                                "value": "2,100,000"
                            }
                        ],
                        "signature": "Transfer(address,address,uint256)"
                    },
                    "id": 1,
                    "logData": "0x0000000000000000000000000000000000000000000000000000000000200b20",
                    "logDecoded": true,
                    "operation": "EVENT",
                    "revert": false,
                    "status": true,
                    "topics": [
                        "0xddf252ad1be2c89b69c2b068fc378daa952ba7f163c4a11628f55a4df523b3ef",
                        "0x000000000000000000000000303cee4bb1cb3913e91d0bb23ccbf31afda0c550",
                        "0x0000000000000000000000008dcce1c43aba49f22f958f6ab723a7c1d837b8c9"
                    ]
                },
                "nodeType": 1
            }
        },
        "gasFlame": [
            {
                "children": [
                    {
                        "children": [
                            {
                                "children": [],
                                "depth": 0,
                                "name": "Initial Gas",
                                "value": 23000
                            },
                            {
                                "children": [],
                                "depth": 0,
                                "name": "Executed Gas",
                                "value": 13711
                            }
                        ],
                        "depth": -1,
                        "name": "Actual Gas Used",
                        "value": 21711
                    },
                    {
                        "children": [],
                        "depth": -1,
                        "name": "Refunded Gas",
                        "value": 15000
                    }
                ],
                "depth": -2,
                "name": "Total Gas",
                "value": 36711
            }
        ],
        "isConfirmed": true,
        "mainTrace": [
            {
                "children": [
                    {
                        "children": [
                            {
                                "children": [],
                                "depth": 1,
                                "id": 1,
                                "order": 1
                            }
                        ],
                        "depth": 0,
                        "id": 0,
                        "order": 0
                    }
                ],
                "depth": -1,
                "id": -1,
                "order": -1
            }
        ],
        "mainTraceNodeCount": 2,
        "parentIdMap": {
            "0": -1,
            "1": 0
        },
        "tidyTrace": [
            {
                "children": [
                    {
                        "children": [
                            {
                                "children": [],
                                "depth": 1,
                                "id": 1,
                                "order": 1
                            }
                        ],
                        "depth": 0,
                        "id": 0,
                        "order": 0
                    }
                ],
                "depth": -1,
                "id": -1,
                "order": -1
            }
        ],
        "tidyTraceNodeCount": 2
    },
    "state_change": {
        "stateChanges": [
            {
                "address": "0x7584caaddec54b83f6ae8c24d2fafeec2a8a98db",
                "erc": "",
                "slots": [
                    {
                        "current": "0x0000000000000000000000000000000000000000000000000000000000000000",
                        "key": "0x981314682815c7f30094698a45b7cef0d59d6f9b18272ee38d9c2a2d24e77ab3",
                        "prev": "0x0000000000000000000000000000000000000000000000000000000000200b20"
                    },
                    {
                        "current": "0x0000000000000000000000000000000000000000000000000000048825ea0ef0",
                        "key": "0x9b4bd59dbda84905e8dd4827cec931a28c1fde61fc9ef736687017d874d43ab1",
                        "prev": "0x0000000000000000000000000000000000000000000000000000048825ca03d0"
                    }
                ],
                "storageVariables": []
            }
        ]
    }
}