{
    "balance_change": {
        "balanceChanges": [
            {
                "account": "0x404e5b75398a66ff8cb3450d16e2d2df8d9faebd",
                "assets": [
                    {
                        "address": "0xeeeeeeeeeeeeeeeeeeeeeeeeeeeeeeeeeeeeeeee",
                        "amount": "0.017484888351166823",
                        "iconUrl": "https://assets.blocksec.com/image/1663669189317-3.png",
                        "isERC1155": false,
                        "isERC721": false,
                        "sign": false,
                        "value": ""
                    }
                ]
            },
            {
                "account": "0x06012c8cf97bead5deae237070f9587f8e7a266d",
                "assets": [
                    {
                        "address": "0xeeeeeeeeeeeeeeeeeeeeeeeeeeeeeeeeeeeeeeee",
                        "amount": "0.008001038042524847",
                        "iconUrl": "https://assets.blocksec.com/image/1663669189317-3.png",
                        "isERC1155": false,
                        "isERC721": false,
                        "sign": true,
                        "value": ""
                    }
                ]
            },
            {
                "account": "0xbce3bd3b206946abbe094903ae2b4244b52fb4e9",
                "assets": [
                    {
                        "address": "0xeeeeeeeeeeeeeeeeeeeeeeeeeeeeeeeeeeeeeeee",
                        "amount": "0.009128205922067902",
                        "iconUrl": "https://assets.blocksec.com/image/1663669189317-3.png",
                        "isERC1155": false,
                        "isERC721": false,
                        "sign": true,
                        "value": ""
                    }
                ]
            },
            {
                "account": "0xc7af99fe5513eb6710e6d5f44f9989da40f27f26",
                "assets": [
                    {
                        "address": "0xeeeeeeeeeeeeeeeeeeeeeeeeeeeeeeeeeeeeeeee",
                        "amount": "0.000355644386574074",
                        "iconUrl": "https://assets.blocksec.com/image/1663669189317-3.png",
                        "isERC1155": false,
                        "isERC721": false,
                        "sign": true,
                        "value": ""
                    }
                ]
            }
        ]
    },
    "profile": {
        "basic_info": {
            "baseFee": "",
            "blockNumber": 6837192,
            "callData": "0xed60ade6000000000000000000000000000000000000000000000000000000000012aa000000000000000000000000000000000000000000000000000000000000134d38",
            "debugEnable": true,
            "errorInfo": "",
            "eventCount": 3,
            "feeRecipient": "0xcc16e3c00dbbe76603fa833ec20a48f786dfe610",
            "formatValue": "0.017484888351166823",
            "gasLimit": 780000,
            "gasPrice": "11",
            "gasUsed": 115866,
            "intTxnCount": 5,
            "internalRevert": false,
            "internalRevertMessage": "",
            "isContractCreation": false,
            "isFlashloan": false,
            "maxFee": "",
            "nonce": 50,
            "overwritedBlockNumber": -1,
            "priorityFee": "",
            "receiver": "0x06012c8cf97bead5deae237070f9587f8e7a266d",
            "revertMessage": "",
            "sender": "0x404e5b75398a66ff8cb3450d16e2d2df8d9faebd",
            "simulationEnable": true,
            "sourceTxnHash": "0x47d63890ce6bed5466356435b590afe1ab87fd74b6a330cd5bd890273f28cdc6",
            "status": true,
            "timestamp": "2018-12-06T14:51:33Z",
            "transactionFee": "0.001274526",
            "txnHash": "0x47d63890ce6bed5466356435b590afe1ab87fd74b6a330cd5bd890273f28cdc6",
            "txnIndex": 67,
            "type": 0,
            "value": "17484888351166823"
        },
        "fund_flow": [
            {
                "amount": "0.017484888351166823",
                "from": "0x404e5b75398a66ff8cb3450d16e2d2df8d9faebd",
                "id": 1,
                "isERC1155": false,
                "isERC721": false,
                "isReverted": false,
                "order": 1,
                "to": "0x06012c8cf97bead5deae237070f9587f8e7a266d",
                "token": "0xeeeeeeeeeeeeeeeeeeeeeeeeeeeeeeeeeeeeeeee"
            },
            {
                "amount": "0.009484888351166823",
                "from": "0x06012c8cf97bead5deae237070f9587f8e7a266d",
                "id": 2,
                "isERC1155": false,
                "isERC721": false,
                "isReverted": false,
                "order": 2,
                "to": "0xc7af99fe5513eb6710e6d5f44f9989da40f27f26",
                "token": "0xeeeeeeeeeeeeeeeeeeeeeeeeeeeeeeeeeeeeeeee"
            },
            {
                "amount": "0.009128205922067902",
                "from": "0xc7af99fe5513eb6710e6d5f44f9989da40f27f26",
                "id": 3,
                "isERC1155": false,
                "isERC721": false,
                "isReverted": false,
                "order": 3,
                "to": "0xbce3bd3b206946abbe094903ae2b4244b52fb4e9",
                "token": "0xeeeeeeeeeeeeeeeeeeeeeeeeeeeeeeeeeeeeeeee"
            },
            {
                "amount": "0.000001038042524847",
                "from": "0xc7af99fe5513eb6710e6d5f44f9989da40f27f26",
                "id": 4,
                "isERC1155": false,
                "isERC721": false,
                "isReverted": false,
                "order": 4,
                "to": "0x06012c8cf97bead5deae237070f9587f8e7a266d",
                "token": "0xeeeeeeeeeeeeeeeeeeeeeeeeeeeeeeeeeeeeeeee"
            }
        ],
        "token_infos": [
            {
                "address": "0xc02aaa39b223fe8d0a0e5c4f27ead9083c756cc2",
                "decimals": 18
            },
            {
                "address": "0xeeeeeeeeeeeeeeeeeeeeeeeeeeeeeeeeeeeeeeee",
                "decimals": 18
            }
        ]
    },
    "address_label": {
        "labels": [
            {
                "address": "0x06012c8cf97bead5deae237070f9587f8e7a266d",
                "label": "CryptoKitties: Core"
            },
            {
                "address": "0xc7af99fe5513eb6710e6d5f44f9989da40f27f26",
                "label": "CryptoKitties: Siring Auction"
            },
            {
                "address": "0x0000000000000000000000000000000000000001",
                "label": "Precompiled"
            },
            {
                "address": "0x0000000000000000000000000000000000000002",
                "label": "Precompiled"
            },
            {
                "address": "0x0000000000000000000000000000000000000003",
                "label": "Precompiled"
            },
            {
                "address": "0x0000000000000000000000000000000000000004",
                "label": "Precompiled"
            },
            {
                "address": "0xeeeeeeeeeeeeeeeeeeeeeeeeeeeeeeeeeeeeeeee",
                "label": "Ether"
            }
        ]
    },
    "trace": {
        "accountLabels": null,
        "dataMap": {
            "-1": {
                "invocation": {
                    "address": "0x404e5b75398a66ff8cb3450d16e2d2df8d9faebd",
                    "callData": "",
                    "decodedMethod": null,
                    "errorInfo": "",
                    "fromAddress": "",
                    "gasUsed": 0,
                    "id": -1,
                    "methodDecoded": false,
                    "operation": "",
                    "output": "",
                    "revert": false,
                    "revertMessage": "",
                    "selector": "",
                    "status": false,
                    "value": ""
                },
                "nodeType": 0
            },
            "0": {
                "invocation": {
                    "address": "0x06012c8cf97bead5deae237070f9587f8e7a266d",
                    "callData": "0x000000000000000000000000000000000000000000000000000000000012aa000000000000000000000000000000000000000000000000000000000000134d38",
                    "decodedMethod": {
                        "callParams": [
                            {
                                "name": "_sireId",
                                "type": "uint256",
                                "value": "1,223,168"
                            },
                            {
                                "name": "_matronId",
                                "type": "uint256",
                                "value": "1,264,952"
                            }
                        ],
                        "constructorArguments": "",
                        "name": "bidOnSiringAuction",
                        "returnParams": [],
                        "signature": "bidOnSiringAuction(uint256,uint256)"
                    },
                    "errorInfo": "",
                    "fromAddress": "0x404e5b75398a66ff8cb3450d16e2d2df8d9faebd",
                    "gasUsed": 115866,
                    "id": 0,
                    "methodDecoded": true,
                    "operation": "CALL",
                    "output": "",
                    "revert": false,
                    "revertMessage": "",
                    "selector": "0xed60ade6",
                    "status": true,
                    "value": "0.017484888351166823"
                },
                "nodeType": 0
            },
            "1": {
                "invocation": {
                    "address": "0xc7af99fe5513eb6710e6d5f44f9989da40f27f26",
                    "callData": "0x000000000000000000000000000000000000000000000000000000000012aa00",
                    "decodedMethod": {
                        "callParams": [
                            {
                                "name": "_tokenId",
                                "type": "uint256",
                                "value": "1,223,168"
                            }
                        ],
                        "constructorArguments": "",
                        "name": "getCurrentPrice",
                        "returnParams": [
                            {
                                "name": "",
                                "type": "uint256",
                                "value": "9,483,850,308,641,976"
                            }
                        ],
                        "signature": "getCurrentPrice(uint256)"
                    },
                    "errorInfo": "",
                    "fromAddress": "0x06012c8cf97bead5deae237070f9587f8e7a266d",
                    "gasUsed": 2092,
                    "id": 1,
                    "methodDecoded": true,
                    "operation": "CALL",
                    "output": "0x0000000000000000000000000000000000000000000000000021b182f8bfe4b8",
                    "revert": false,
                    "revertMessage": "",
                    "selector": "0xc55d0f56",
                    "status": true,
                    "value": "0"
                },
                "nodeType": 0
            },
            "2": {
                "invocation": {
                    "address": "0xc7af99fe5513eb6710e6d5f44f9989da40f27f26",
                    "callData": "0x000000000000000000000000000000000000000000000000000000000012aa00",
                    "decodedMethod": {
                        "callParams": [
                            {
                                "name": "_tokenId",
                                "type": "uint256",
                                "value": "1,223,168"
                            }
                        ],
                        "constructorArguments": "",
                        "name": "bid",
                        "returnParams": [],
                        "signature": "bid(uint256)"
                    },
                    "errorInfo": "",
                    "fromAddress": "0x06012c8cf97bead5deae237070f9587f8e7a266d",
                    "gasUsed": 69585,
                    "id": 2,
                    "methodDecoded": true,
                    "operation": "CALL",
                    "output": "",
                    "revert": false,
                    "revertMessage": "",
                    "selector": "0x454a2ab3",
                    "status": true,
                    "value": "0.009484888351166823"
                },
                "nodeType": 0
            },
            "3": {
                "invocation": {
                    "address": "0xbce3bd3b206946abbe094903ae2b4244b52fb4e9",
                    "callData": "0x",
                    "decodedMethod": null,
                    "errorInfo": "",
                    "fromAddress": "0xc7af99fe5513eb6710e6d5f44f9989da40f27f26",
                    "gasUsed": 0,
                    "id": 3,
                    "methodDecoded": false,
                    "operation": "CALL",
                    "output": "",
                    "revert": false,
                    "revertMessage": "",
                    "selector": "fallback",
                    "status": true,
                    "value": "0.009128205922067902"
                },
                "nodeType": 0
            },
            "4": {
                "invocation": {
                    "address": "0x06012c8cf97bead5deae237070f9587f8e7a266d",
                    "callData": "0x",
                    "decodedMethod": null,
                    "errorInfo": "",
                    "fromAddress": "0xc7af99fe5513eb6710e6d5f44f9989da40f27f26",
                    "gasUsed": 669,
                    "id": 4,
                    "methodDecoded": false,
                    "operation": "CALL",
                    "output": "",
                    "revert": false,
                    "revertMessage": "",
                    "selector": "fallback",
                    "status": true,
                    "value": "0.000001038042524847"
                },
                "nodeType": 0
            },
            "5": {
                "event": {
                    "contract": "0xc7af99fe5513eb6710e6d5f44f9989da40f27f26",
                    "decodedLog": {
                        "name": "AuctionSuccessful",
                        "params": [
                            {
                                "name": "tokenId",
                                "type": "uint256",
                                "value": "1,223,168"
                            },
                            {
                                "name": "totalPrice",
                                "type": "uint256",
                                "value": "9,483,850,308,641,976"
                            },
                            {
                                "name": "winner",
                                "type": "address",
                                "value": "0x06012c8cf97bead5deae237070f9587f8e7a266d"
                            }
                        ],
                        "signature": "AuctionSuccessful(uint256,uint256,address)"
                    },
                    "id": 5,
                    "logData": "0x000000000000000000000000000000000000000000000000000000000012aa000000000000000000000000000000000000000000000000000021b182f8bfe4b800000000000000000000000006012c8cf97bead5deae237070f9587f8e7a266d",
                    "logDecoded": true,
                    "operation": "EVENT",
                    "revert": false,
                    "status": true,
                    "topics": [
                        "0x4fcc30d90a842164dd58501ab874a101a3749c3d4747139cefe7c876f4ccebd2"
                    ]
                },
                "nodeType": 1
            },
            "6": {
                "invocation": {
                    "address": "0x06012c8cf97bead5deae237070f9587f8e7a266d",
                    "callData": "0x000000000000000000000000bce3bd3b206946abbe094903ae2b4244b52fb4e9000000000000000000000000000000000000000000000000000000000012aa00",
                    "decodedMethod": {
                        "callParams": [
                            {
                                "name": "_to",
                                "type": "address",
                                "value": "0xbce3bd3b206946abbe094903ae2b4244b52fb4e9"
                            },
                            {
                                "decimalAvailable": true,
                                "name": "_tokenId",
                                "type": "uint256",
                                "value": "1,223,168"
                            }
                        ],
                        "constructorArguments": "",
                        "name": "transfer",
                        "returnParams": [],
                        "signature": "transfer(address,uint256)"
                    },
                    "errorInfo": "",
                    "fromAddress": "0xc7af99fe5513eb6710e6d5f44f9989da40f27f26",
                    "gasUsed": 31379,
                    "id": 6,
                    "methodDecoded": true,
                    "operation": "CALL",
                    "output": "",
                    "revert": false,
                    "revertMessage": "",
                    "selector": "0xa9059cbb",
                    "status": true,
                    "value": "0"
                },
                "nodeType": 0
            },
            "7": {
                "event": {
                    "contract": "0x06012c8cf97bead5deae237070f9587f8e7a266d",
                    "decodedLog": {
                        "name": "Transfer",
                        "params": [
                            {
                                "name": "from",
                                "type": "address",
                                "value": "0xc7af99fe5513eb6710e6d5f44f9989da40f27f26"
                            },
                            {
                                "name": "to",
                                "type": "address",
                                "value": "0xbce3bd3b206946abbe094903ae2b4244b52fb4e9"
                            },
                            {
                                "decimalAvailable": true,
                                "name": "tokenId",
                                "type": "uint256",
                                "value": "1,223,168"
                            }
                        ],
                        "signature": "Transfer(address,address,uint256)"
                    },
                    "id": 7,
                    "logData": "0x000000000000000000000000c7af99fe5513eb6710e6d5f44f9989da40f27f26000000000000000000000000bce3bd3b206946abbe094903ae2b4244b52fb4e9000000000000000000000000000000000000000000000000000000000012aa00",
                    "logDecoded": true,
                    "operation": "EVENT",
                    "revert": false,
                    "status": true,
                    "topics": [
                        "0xddf252ad1be2c89b69c2b068fc378daa952ba7f163c4a11628f55a4df523b3ef"
                    ]
                },
                "nodeType": 1
            },
            "8": {
                "event": {
                    "contract": "0x06012c8cf97bead5deae237070f9587f8e7a266d",
                    "decodedLog": {
                        "name": "Pregnant",
                        "params": [
                            {
                                "name": "owner",
                                "type": "address",
                                "value": "0x404e5b75398a66ff8cb3450d16e2d2df8d9faebd"
                            },
                            {
                                "name": "matronId",
                                "type": "uint256",
                                "value": "1,264,952"
                            },
                            {
                                "name": "sireId",
                                "type": "uint256",
                                "value": "1,223,168"
                            },
                            {
                                "name": "cooldownEndBlock",
                                "type": "uint256",
                                "value": "6,837,200"
                            }
                        ],
                        "signature": "Pregnant(address,uint256,uint256,uint256)"
                    },
                    "id": 8,
                    "logData": "0x000000000000000000000000404e5b75398a66ff8cb3450d16e2d2df8d9faebd0000000000000000000000000000000000000000000000000000000000134d38000000000000000000000000000000000000000000000000000000000012aa0000000000000000000000000000000000000000000000000000000000006853d0",
                    "logDecoded": true,
                    "operation": "EVENT",
                    "revert": false,
                    "status": true,
                    "topics": [
                        "0x241ea03ca20251805084d27d4440371c34a0b85ff108f6bb5611248f73818b80"
                    ]
                },
                "nodeType": 1
            }
        },
        "gasFlame": [
            {
                "children": [
                    {
                        "children": [
                            {
                                "children": [],
                                "depth": 0,
                                "name": "Initial Gas",
                                "value": 21848
                            },
                            {
                                "children": [
                                    {
                                        "children": [],
                                        "depth": 1,
                                        "name": "getCurrentPrice",
                                        "value": 2092
                                    },
                                    {
                                        "children": [
                                            {
                                                "children": [],
                                                "depth": 2,
                                                "name": "fallback",
                                                "value": 0
                                            },
                                            {
                                                "children": [],
                                                "depth": 2,
                                                "name": "fallback",
                                                "value": 669
                                            },
                                            {
                                                "children": [],
                                                "depth": 2,
                                                "name": "transfer",
                                                "value": 31379
                                            }
                                        ],
                                        "depth": 1,
                                        "name": "bid",
                                        "value": 69585
                                    }
                                ],
                                "depth": 0,
                                "name": "Executed Gas",
                                "value": 139018
                            }
                        ],
                        "depth": -1,
                        "name": "Actual Gas Used",
                        "value": 115866
                    },
                    {
                        "children": [],
                        "depth": -1,
                        "name": "Refunded Gas",
                        "value": 45000
                    }
                ],
                "depth": -2,
                "name": "Total Gas",
                "value": 160866
            }
        ],
        "isConfirmed": true,
        "mainTrace": [
            {
                "children": [
                    {
                        "children": [
                            {
                                "children": [],
                                "depth": 1,
                                "id": 1,
                                "order": 1
                            },
                            {
                                "children": [
                                    {
                                        "children": [],
                                        "depth": 2,
                                        "id": 3,
                                        "order": 3
                                    },
                                    {
                                        "children": [],
                                        "depth": 2,
                                        "id": 4,
                                        "order": 4
                                    },
                                    {
                                        "children": [],
                                        "depth": 2,
                                        "id": 5,
                                        "order": 5
                                    },
                                    {
                                        "children": [
                                            {
                                                "children": [],
                                                "depth": 3,
                                                "id": 7,
                                                "order": 7
                                            }
                                        ],
                                        "depth": 2,
                                        "id": 6,
                                        "order": 6
                                    }
                                ],
                                "depth": 1,
                                "id": 2,
                                "order": 2
                            },
                            {
                                "children": [],
                                "depth": 1,
                                "id": 8,
                                "order": 8
                            }
                        ],
                        "depth": 0,
                        "id": 0,
                        "order": 0
                    }
                ],
                "depth": -1,
                "id": -1,
                "order": -1
            }
        ],
        "mainTraceNodeCount": 9,
        "parentIdMap": {
            "0": -1,
            "1": 0,
            "2": 0,
            "3": 2,
            "4": 2,
            "5": 2,
            "6": 2,
            "7": 6,
            "8": 0
        },
        "tidyTrace": [
            {
                "children": [
                    {
                        "children": [
                            {
                                "children": [],
                                "depth": 1,
                                "id": 1,
                                "order": 1
                            },
                            {
                                "children": [
                                    {
                                        "children": [],
                                        "depth": 2,
                                        "id": 3,
                                        "order": 3
                                    },
                                    {
                                        "children": [],
                                        "depth": 2,
                                        "id": 4,
                                        "order": 4
                                    },
                                    {
                                        "children": [],
                                        "depth": 2,
                                        "id": 5,
                                        "order": 5
                                    },
                                    {
                                        "children": [
                                            {
                                                "children": [],
                                                "depth": 3,
                                                "id": 7,
                                                "order": 7
                                            }
                                        ],
                                        "depth": 2,
                                        "id": 6,
                                        "order": 6
                                    }
                                ],
                                "depth": 1,
                                "id": 2,
                                "order": 2
                            },
                            {
                                "children": [],
                                "depth": 1,
                                "id": 8,
                                "order": 8
                            }
                        ],
                        "depth": 0,
                        "id": 0,
                        "order": 0
                    }
                ],
                "depth": -1,
                "id": -1,
                "order": -1
            }
        ],
        "tidyTraceNodeCount": 9
    },
    "state_change": {
        "stateChanges": [
            {
                "address": "0x06012c8cf97bead5deae237070f9587f8e7a266d",
                "erc": "",
                "slots": [
                    {
                        "current": "0x00030007000000000012771500127c9e00000000006855a8000000005bfd13ff",
                        "key": "0xf652222313e28459528d920b65115c16c04f3efc82aaedc97be59f3f37a16140",
                        "prev": "0x00030006000000000012771500127c9e0000000000683273000000005bfd13ff"
                    },
                    {
                        "current": "0x0000000000000000000000000000000000000000000000000000000000000b39",
                        "key": "0x000000000000000000000000000000000000000000000000000000000000000f",
                        "prev": "0x0000000000000000000000000000000000000000000000000000000000000b38"
                    },
                    {
                        "current": "0x000000000000000000000000000000000000000000000000000000000000022e",
                        "key": "0x7f090e45ec059e4b48901d408a96b58bbc499fc1c646a2cd349061ade2872ab6",
                        "prev": "0x000000000000000000000000000000000000000000000000000000000000022d"
                    },
                    {
                        "current": "0x000000000000000000000000bce3bd3b206946abbe094903ae2b4244b52fb4e9",
                        "key": "0x3be1720c9abd2171d23c10add123e6dc4c4dfd930d294cae4d92793e147abfe9",
                        "prev": "0x000000000000000000000000c7af99fe5513eb6710e6d5f44f9989da40f27f26"
                    },
                    {
                        "current": "0x000000000000000000000000000000000000000000000000000000000000cd85",
                        "key": "0xde6374a2cde2f665f585a2517c3b7d90f84d8025104dff6ba1ffbb9eebd58e62",
                        "prev": "0x000000000000000000000000000000000000000000000000000000000000cd86"
                    },
                    {
                        "current": "0x000300020012aa000012e8e100132d2e00000000006853d0000000005c0933d1",
                        "key": "0xf652222313e28459528d920b65115c16c04f3efc82aaedc97be59f3f37a2a7b0",
                        "prev": "0x00030001000000000012e8e100132d2e0000000000000000000000005c0933d1"
                    }
                ],
                "storageVariables": [
                    {
                        "name": "ownershipTokenCount",
                        "type": "mapping(address => uint256)",
                        "value": {
                            "pairs": [
                                {
                                    "key": "0xbce3bd3b206946abbe094903ae2b4244b52fb4e9",
                                    "value": {
                                        "current": "558",
                                        "prev": "557",
                                        "typeTag": 1
                                    }
                                },
                                {
                                    "key": "0xc7af99fe5513eb6710e6d5f44f9989da40f27f26",
                                    "value": {
                                        "current": "52613",
                                        "prev": "52614",
                                        "typeTag": 1
                                    }
                                }
                            ],
                            "typeTag": 4
                        }
                    },
                    {
                        "name": "kitties",
                        "type": "struct KittyBase.Kitty[]",
                        "value": {
                            "elemType": "struct KittyBase.Kitty",
                            "elems": [
                                {
                                    "index": 1223168,
                                    "value": {
                                        "fields": [
                                            {
                                                "name": "birthTime",
                                                "type": "uint64",
                                                "value": {
                                                    "current": "1543312383",
                                                    "prev": "1543312383",
                                                    "typeTag": 1
                                                }
                                            },
                                            {
                                                "name": "cooldownEndBlock",
                                                "type": "uint64",
                                                "value": {
                                                    "current": "6837672",
                                                    "prev": "6828659",
                                                    "typeTag": 1
                                                }
                                            },
                                            {
                                                "name": "matronId",
                                                "type": "uint32",
                                                "value": {
                                                    "current": "1211550",
                                                    "prev": "1211550",
                                                    "typeTag": 1
                                                }
                                            },
                                            {
                                                "name": "sireId",
                                                "type": "uint32",
                                                "value": {
                                                    "current": "1210133",
                                                    "prev": "1210133",
                                                    "typeTag": 1
                                                }
                                            },
                                            {
                                                "name": "siringWithId",
                                                "type": "uint32",
                                                "value": {
                                                    "current": "0",
                                                    "prev": "0",
                                                    "typeTag": 1
                                                }
                                            },
                                            {
                                                "name": "cooldownIndex",
                                                "type": "uint16",
                                                "value": {
                                                    "current": "7",
                                                    "prev": "6",
                                                    "typeTag": 1
                                                }
                                            },
                                            {
                                                "name": "generation",
                                                "type": "uint16",
                                                "value": {
                                                    "current": "3",
                                                    "prev": "3",
                                                    "typeTag": 1
                                                }
                                            }
                                        ],
                                        "typeTag": 3
                                    }
                                },
                                {
                                    "index": 1264952,
                                    "value": {
                                        "fields": [
                                            {
                                                "name": "birthTime",
                                                "type": "uint64",
                                                "value": {
                                                    "current": "1544106961",
                                                    "prev": "1544106961",
                                                    "typeTag": 1
                                                }
                                            },
                                            {
                                                "name": "cooldownEndBlock",
                                                "type": "uint64",
                                                "value": {
                                                    "current": "6837200",
                                                    "prev": "0",
                                                    "typeTag": 1
                                                }
                                            },
                                            {
                                                "name": "matronId",
                                                "type": "uint32",
                                                "value": {
                                                    "current": "1256750",
                                                    "prev": "1256750",
                                                    "typeTag": 1
                                                }
                                            },
                                            {
                                                "name": "sireId",
                                                "type": "uint32",
                                                "value": {
                                                    "current": "1239265",
                                                    "prev": "1239265",
                                                    "typeTag": 1
                                                }
                                            },
                                            {
                                                "name": "siringWithId",
                                                "type": "uint32",
                                                "value": {
                                                    "current": "1223168",
                                                    "prev": "0",
                                                    "typeTag": 1
                                                }
                                            },
                                            {
                                                "name": "cooldownIndex",
                                                "type": "uint16",
                                                "value": {
                                                    "current": "2",
                                                    "prev": "1",
                                                    "typeTag": 1
                                                }
                                            },
                                            {
                                                "name": "generation",
                                                "type": "uint16",
                                                "value": {
                                                    "current": "3",
                                                    "prev": "3",
                                                    "typeTag": 1
                                                }
                                            }
                                        ],
                                        "typeTag": 3
                                    }
                                }
                            ],
                            "typeTag": 2
                        }
                    },
                    {
                        "name": "pregnantKitties",
                        "type": "uint256",
                        "value": {
                            "current": "2873",
                            "prev": "2872",
                            "typeTag": 1
                        }
                    },
                    {
                        "name": "kittyIndexToOwner",
                        "type": "mapping(uint256 => address)",
                        "value": {
                            "pairs": [
                                {
                                    "key": "1223168",
                                    "value": {
                                        "current": "0xbce3bd3b206946abbe094903ae2b4244b52fb4e9",
                                        "prev": "0xc7af99fe5513eb6710e6d5f44f9989da40f27f26",
                                        "typeTag": 1
                                    }
                                }
                            ],
                            "typeTag": 4
                        }
                    }
                ]
            },
            {
                "address": "0xc7af99fe5513eb6710e6d5f44f9989da40f27f26",
                "erc": "",
                "slots": [
                    {
                        "current": "0x0000000000000000000000000000000000000000000000000000000000000000",
                        "key": "0xd81ae71332f40aa5a3033a7e9c9072b0fb4cf6c4b9e30cd6067b81995db835d4",
                        "prev": "0x000000000000000000000000bce3bd3b206946abbe094903ae2b4244b52fb4e9"
                    },
                    {
                        "current": "0x0000000000000000000000000000000000000000000000000000000000000000",
                        "key": "0xd81ae71332f40aa5a3033a7e9c9072b0fb4cf6c4b9e30cd6067b81995db835d5",
                        "prev": "0x0000000000000000001ff973cafa80000000000000000000002386f26fc10000"
                    },
                    {
                        "current": "0x0000000000000000000000000000000000000000000000000000000000000000",
                        "key": "0xd81ae71332f40aa5a3033a7e9c9072b0fb4cf6c4b9e30cd6067b81995db835d6",
                        "prev": "0x00000000000000000000000000000000000000005c083228000000000001fa40"
                    }
                ],
                "storageVariables": [
                    {
                        "name": "tokenIdToAuction",
                        "type": "mapping(uint256 => struct ClockAuctionBase.Auction)",
                        "value": {
                            "pairs": [
                                {
                                    "key": "1223168",
                                    "value": {
                                        "fields": [
                                            {
                                                "name": "seller",
                                                "type": "address",
                                                "value": {
                                                    "current": "0x0000000000000000000000000000000000000000",
                                                    "prev": "0xbce3bd3b206946abbe094903ae2b4244b52fb4e9",
                                                    "typeTag": 1
                                                }
                                            },
                                            {
                                                "name": "startingPrice",
                                                "type": "uint128",
                                                "value": {
                                                    "current": "0",
                                                    "prev": "10000000000000000",
                                                    "typeTag": 1
                                                }
                                            },
                                            {
                                                "name": "endingPrice",
                                                "type": "uint128",
                                                "value": {
                                                    "current": "0",
                                                    "prev": "9000000000000000",
                                                    "typeTag": 1
                                                }
                                            },
                                            {
                                                "name": "duration",
                                                "type": "uint64",
                                                "value": {
                                                    "current": "0",
                                                    "prev": "129600",
                                                    "typeTag": 1
                                                }
                                            },
                                            {
                                                "name": "startedAt",
                                                "type": "uint64",
                                                "value": {
                                                    "current": "0",
                                                    "prev": "1544041000",
                                                    "typeTag": 1
                                                }
                                            }
                                        ],
                                        "typeTag": 3
                                    }
                                }
                            ],
                            "typeTag": 4
                        }
                    }
                ]
            }
        ]
    }
}