{
    "balance_change": {
        "balanceChanges": [
            {
                "account": "0xa2622466c9f1cc547d916750b1d16252ccc69763",
                "assets": [
                    {
                        "address": "0x6733d909e10ddedb8d6181b213de32a30ceac7ed",
                        "amount": "28",
                        "iconUrl": "",
                        "isERC1155": false,
                        "isERC721": false,
                        "sign": false,
                        "value": ""
                    }
                ]
            },
            {
                "account": "0x5386ebb8027fa6186769069949339d2c19b5a76f",
                "assets": [
                    {
                        "address": "0x6733d909e10ddedb8d6181b213de32a30ceac7ed",
                        "amount": "28",
                        "iconUrl": "",
                        "isERC1155": false,
                        "isERC721": false,
                        "sign": true,
                        "value": ""
                    }
                ]
            }
        ]
    },
    "profile": {
        "basic_info": {
            "baseFee": "",
            "blockNumber": 4781072,
            "callData": "0xa9059cbb0000000000000000000000005386ebb8027fa6186769069949339d2c19b5a76f0000000000000000000000000000000000000000000000018493fba64ef00000",
            "debugEnable": true,
            "errorInfo": "",
            "eventCount": 1,
            "feeRecipient": "0xea674fdde714fd979de3edf0f56aa9716b898ec8",
            "formatValue": "0",
            "gasLimit": 100000,
            "gasPrice": "65",
            "gasUsed": 36950,
            "intTxnCount": 0,
            "internalRevert": false,
            "internalRevertMessage": "",
            "isContractCreation": false,
            "isFlashloan": false,
            "maxFee": "",
            "nonce": 2708,
            "overwritedBlockNumber": -1,
            "priorityFee": "",
            "receiver": "0x6733d909e10ddedb8d6181b213de32a30ceac7ed",
            "revertMessage": "",
            "sender": "0xa2622466c9f1cc547d916750b1d16252ccc69763",
            "simulationEnable": true,
            "sourceTxnHash": "0x47a874c73f97ba04a6dc8103f3f2554e1e7a000c0da5843184c448563eded481",
            "status": true,
            "timestamp": "2017-12-23T06:46:12Z",
            "transactionFee": "0.00240175",
            "txnHash": "0x47a874c73f97ba04a6dc8103f3f2554e1e7a000c0da5843184c448563eded481",
            "txnIndex": 6,
            "type": 0,
            "value": "0"
        },
        "fund_flow": [
            {
                "amount": "28",
                "from": "0xa2622466c9f1cc547d916750b1d16252ccc69763",
                "id": 1,
                "isERC1155": false,
                "isERC721": false,
                "isReverted": false,
                "order": 1,
                "to": "0x5386ebb8027fa6186769069949339d2c19b5a76f",
                "token": "0x6733d909e10ddedb8d6181b213de32a30ceac7ed"
            }
        ],
        "token_infos": [
            {
                "address": "0x6733d909e10ddedb8d6181b213de32a30ceac7ed",
                "decimals": 18
            },
            {
                "address": "0xc02aaa39b223fe8d0a0e5c4f27ead9083c756cc2",
                "decimals": 18
            },
            {
                "address": "0xeeeeeeeeeeeeeeeeeeeeeeeeeeeeeeeeeeeeeeee",
                "decimals": 18
            }
        ]
    },
    "address_label": {
        "labels": [
            {
                "address": "0xeeeeeeeeeeeeeeeeeeeeeeeeeeeeeeeeeeeeeeee",
                "label": "Ether"
            },
            {
                "address": "0x6733d909e10ddedb8d6181b213de32a30ceac7ed",
                "label": "BitSerialToken"
            },
            {
                "address": "0x0000000000000000000000000000000000000001",
                "label": "Precompiled"
            },
            {
                "address": "0x0000000000000000000000000000000000000002",
                "label": "Precompiled"
            },
            {
                "address": "0x0000000000000000000000000000000000000003",
                "label": "Precompiled"
            },
            {
                "address": "0x0000000000000000000000000000000000000004",
                "label": "Precompiled"
            }
        ]
    },
    "trace": {
        "accountLabels": null,
        "dataMap": {
            "-1": {
                "invocation": {
                    "address": "0xa2622466c9f1cc547d916750b1d16252ccc69763",
                    "callData": "",
                    "decodedMethod": null,
                    "errorInfo": "",
                    "fromAddress": "",
                    "gasUsed": 0,
                    "id": -1,
                    "methodDecoded": false,
                    "operation": "",
                    "output": "",
                    "revert": false,
                    "revertMessage": "",
                    "selector": "",
                    "status": false,
                    "value": ""
                },
                "nodeType": 0
            },
            "0": {
                "invocation": {
                    "address": "0x6733d909e10ddedb8d6181b213de32a30ceac7ed",
                    "callData": "0x0000000000000000000000005386ebb8027fa6186769069949339d2c19b5a76f0000000000000000000000000000000000000000000000018493fba64ef00000",
                    "decodedMethod": {
                        "callParams": [
                            {
                                "name": "_to",
                                "type": "address",
                                "value": "0x5386ebb8027fa6186769069949339d2c19b5a76f"
                            },
                            {
                                "decimalAvailable": true,
                                "name": "_amount",
                                "type": "uint256",
                                "value": "28,000,000,000,000,000,000"
                            }
                        ],
                        "constructorArguments": "",
                        "name": "transfer",
                        "returnParams": [
                            {
                                "name": "success",
                                "type": "bool",
                                "value": true
                            }
                        ],
                        "signature": "transfer(address,uint256)"
                    },
                    "errorInfo": "",
                    "fromAddress": "0xa2622466c9f1cc547d916750b1d16252ccc69763",
                    "gasUsed": 36950,
                    "id": 0,
                    "methodDecoded": true,
                    "operation": "CALL",
                    "output": "0x0000000000000000000000000000000000000000000000000000000000000001",
                    "revert": false,
                    "revertMessage": "",
                    "selector": "0xa9059cbb",
                    "status": true,
                    "value": "0"
                },
                "nodeType": 0
            },
            "1": {
                "event": {
                    "contract": "0x6733d909e10ddedb8d6181b213de32a30ceac7ed",
                    "decodedLog": {
                        "name": "Transfer",
                        "params": [
                            {
                                "name": "_from",
                                "type": "address",
                                "value": "0xa2622466c9f1cc547d916750b1d16252ccc69763"
                            },
                            {
                                "name": "_to",
                                "type": "address",
                                "value": "0x5386ebb8027fa6186769069949339d2c19b5a76f"
                            },
                            {
                                "decimalAvailable": true,
                                "name": "_value",
                                "type": "uint256",
                                "value": "28,000,000,000,000,000,000"
                            }
                        ],
                        "signature": "Transfer(address,address,uint256)"
                    },
                    "id": 1,
                    "logData": "0x0000000000000000000000000000000000000000000000018493fba64ef00000",
                    "logDecoded": true,
                    "operation": "EVENT",
                    "revert": false,
                    "status": true,
                    "topics": [
                        "0xddf252ad1be2c89b69c2b068fc378daa952ba7f163c4a11628f55a4df523b3ef",
                        "0x000000000000000000000000a2622466c9f1cc547d916750b1d16252ccc69763",
                        "0x0000000000000000000000005386ebb8027fa6186769069949339d2c19b5a76f"
                    ]
                },
                "nodeType": 1
            }
        },
        "gasFlame": [
            {
                "children": [
                    {
                        "children": [
                            {
                                "children": [],
                                "depth": 0,
                                "name": "Initial Gas",
                                "value": 23256
                            },
                            {
                                "children": [],
                                "depth": 0,
                                "name": "Executed Gas",
                                "value": 13694
                            }
                        ],
                        "depth": -1,
                        "name": "Actual Gas Used",
                        "value": 36950
                    },
                    {
                        "children": [],
                        "depth": -1,
                        "name": "Refunded Gas",
                        "value": 0
                    }
                ],
                "depth": -2,
                "name": "Total Gas",
                "value": 36950
            }
        ],
        "isConfirmed": true,
        "mainTrace": [
            {
                "children": [
                    {
                        "children": [
                            {
                                "children": [],
                                "depth": 1,
                                "id": 1,
                                "order": 1
                            }
                        ],
                        "depth": 0,
                        "id": 0,
                        "order": 0
                    }
                ],
                "depth": -1,
                "id": -1,
                "order": -1
            }
        ],
        "mainTraceNodeCount": 2,
        "parentIdMap": {
            "0": -1,
            "1": 0
        },
        "tidyTrace": [
            {
                "children": [
                    {
                        "children": [
                            {
                                "children": [],
                                "depth": 1,
                                "id": 1,
                                "order": 1
                            }
                        ],
                        "depth": 0,
                        "id": 0,
                        "order": 0
                    }
                ],
                "depth": -1,
                "id": -1,
                "order": -1
            }
        ],
        "tidyTraceNodeCount": 2
    },
    "state_change": {
        "stateChanges": [
            {
                "address": "0x6733d909e10ddedb8d6181b213de32a30ceac7ed",
                "erc": "ERC-20",
                "slots": [
                    {
                        "current": "0x0000000000000000000000000000000000000000000010cafdfd6a3e26e8c3fe",
                        "key": "0xafe5b98bb8e37fee51a10ae03220e9a91ca2200bbbd4ef3eb121633e87cfb847",
                        "prev": "0x0000000000000000000000000000000000000000000010cc829165e475d8c3fe"
                    },
                    {
                        "current": "0x00000000000000000000000000000000000000000000000e261a4529a8f40000",
                        "key": "0xa31eccd0c7ea2b800cdb289e9a78174917186b913cb5072472db6cb74ada6737",
                        "prev": "0x00000000000000000000000000000000000000000000000ca18649835a040000"
                    }
                ],
                "storageVariables": []
            }
        ]
    }
}