{
    "balance_change": {
        "balanceChanges": [
            {
                "account": "0x2275abc4601a6c786c48fca5522210fd82cd0b9a",
                "assets": [
                    {
                        "address": "0x69a1d45318de72d6add20d4952398901e0e4a8e5",
                        "amount": "1",
                        "iconUrl": "",
                        "isERC1155": false,
                        "isERC721": true,
                        "sign": false,
                        "tokenID": "11736",
                        "value": ""
                    }
                ]
            },
            {
                "account": "0xc45169e383aa5fbc9c8f2ab7718517789c94963f",
                "assets": [
                    {
                        "address": "0x69a1d45318de72d6add20d4952398901e0e4a8e5",
                        "amount": "1",
                        "iconUrl": "",
                        "isERC1155": false,
                        "isERC721": true,
                        "sign": true,
                        "tokenID": "11736",
                        "value": ""
                    }
                ]
            }
        ]
    },
    "profile": {
        "basic_info": {
            "baseFee": "",
            "blockNumber": 8475179,
            "callData": "0x23b872dd0000000000000000000000002275abc4601a6c786c48fca5522210fd82cd0b9a000000000000000000000000c45169e383aa5fbc9c8f2ab7718517789c94963f0000000000000000000000000000000000000000000000000000000000002dd8",
            "debugEnable": true,
            "errorInfo": "",
            "eventCount": 1,
            "feeRecipient": "0xea674fdde714fd979de3edf0f56aa9716b898ec8",
            "formatValue": "0",
            "gasLimit": 99118,
            "gasPrice": "8",
            "gasUsed": 84118,
            "intTxnCount": 0,
            "internalRevert": false,
            "internalRevertMessage": "",
            "isContractCreation": false,
            "isFlashloan": false,
            "maxFee": "",
            "nonce": 5234,
            "overwritedBlockNumber": -1,
            "priorityFee": "",
            "receiver": "0x69a1d45318de72d6add20d4952398901e0e4a8e5",
            "revertMessage": "",
            "sender": "0x2275abc4601a6c786c48fca5522210fd82cd0b9a",
            "simulationEnable": true,
            "sourceTxnHash": "0x4707644abe4db6fd3219b7cf4d6b2dcf4f1fec9b34bec81d0e76b5debc212378",
            "status": true,
            "timestamp": "2019-09-03T04:52:50Z",
            "transactionFee": "0.000672944",
            "txnHash": "0x4707644abe4db6fd3219b7cf4d6b2dcf4f1fec9b34bec81d0e76b5debc212378",
            "txnIndex": 83,
            "type": 0,
            "value": "0"
        },
        "fund_flow": [
            {
                "amount": "1",
                "from": "0x2275abc4601a6c786c48fca5522210fd82cd0b9a",
                "id": 1,
                "isERC1155": false,
                "isERC721": true,
                "isReverted": false,
                "order": 1,
                "to": "0xc45169e383aa5fbc9c8f2ab7718517789c94963f",
                "token": "0x69a1d45318de72d6add20d4952398901e0e4a8e5",
                "tokenID": "11736"
            }
        ],
        "token_infos": [
            {
                "address": "0xc02aaa39b223fe8d0a0e5c4f27ead9083c756cc2",
                "decimals": 18
            },
            {
                "address": "0xeeeeeeeeeeeeeeeeeeeeeeeeeeeeeeeeeeeeeeee",
                "decimals": 18
            }
        ]
    },
    "address_label": {
        "labels": [
            {
                "address": "0x69a1d45318de72d6add20d4952398901e0e4a8e5",
                "label": "SKULLYS (SKLY)"
            },
            {
                "address": "0x0000000000000000000000000000000000000001",
                "label": "Precompiled"
            },
            {
                "address": "0x0000000000000000000000000000000000000002",
                "label": "Precompiled"
            },
            {
                "address": "0x0000000000000000000000000000000000000003",
                "label": "Precompiled"
            },
            {
                "address": "0x0000000000000000000000000000000000000004",
                "label": "Precompiled"
            },
            {
                "address": "0xeeeeeeeeeeeeeeeeeeeeeeeeeeeeeeeeeeeeeeee",
                "label": "Ether"
            }
        ]
    },
    "trace": {
        "accountLabels": null,
        "dataMap": {
            "-1": {
                "invocation": {
                    "address": "0x2275abc4601a6c786c48fca5522210fd82cd0b9a",
                    "callData": "",
                    "decodedMethod": null,
                    "errorInfo": "",
                    "fromAddress": "",
                    "gasUsed": 0,
                    "id": -1,
                    "methodDecoded": false,
                    "operation": "",
                    "output": "",
                    "revert": false,
                    "revertMessage": "",
                    "selector": "",
                    "status": false,
                    "value": ""
                },
                "nodeType": 0
            },
            "0": {
                "invocation": {
                    "address": "0x69a1d45318de72d6add20d4952398901e0e4a8e5",
                    "callData": "0x0000000000000000000000002275abc4601a6c786c48fca5522210fd82cd0b9a000000000000000000000000c45169e383aa5fbc9c8f2ab7718517789c94963f0000000000000000000000000000000000000000000000000000000000002dd8",
                    "decodedMethod": {
                        "callParams": [
                            {
                                "name": "from",
                                "type": "address",
                                "value": "0x2275abc4601a6c786c48fca5522210fd82cd0b9a"
                            },
                            {
                                "name": "to",
                                "type": "address",
                                "value": "0xc45169e383aa5fbc9c8f2ab7718517789c94963f"
                            },
                            {
                                "decimalAvailable": true,
                                "name": "tokenId",
                                "type": "uint256",
                                "value": "11,736"
                            }
                        ],
                        "constructorArguments": "",
                        "name": "transferFrom",
                        "returnParams": [],
                        "signature": "transferFrom(address,address,uint256)"
                    },
                    "errorInfo": "",
                    "fromAddress": "0x2275abc4601a6c786c48fca5522210fd82cd0b9a",
                    "gasUsed": 84118,
                    "id": 0,
                    "methodDecoded": true,
                    "operation": "CALL",
                    "output": "",
                    "revert": false,
                    "revertMessage": "",
                    "selector": "0x23b872dd",
                    "status": true,
                    "value": "0"
                },
                "nodeType": 0
            },
            "1": {
                "event": {
                    "contract": "0x69a1d45318de72d6add20d4952398901e0e4a8e5",
                    "decodedLog": {
                        "name": "Transfer",
                        "params": [
                            {
                                "name": "from",
                                "type": "address",
                                "value": "0x2275abc4601a6c786c48fca5522210fd82cd0b9a"
                            },
                            {
                                "name": "to",
                                "type": "address",
                                "value": "0xc45169e383aa5fbc9c8f2ab7718517789c94963f"
                            },
                            {
                                "decimalAvailable": true,
                                "name": "tokenId",
                                "type": "uint256",
                                "value": "11,736"
                            }
                        ],
                        "signature": "Transfer(address,address,uint256)"
                    },
                    "id": 1,
                    "logData": "0x",
                    "logDecoded": true,
                    "operation": "EVENT",
                    "revert": false,
                    "status": true,
                    "topics": [
                        "0xddf252ad1be2c89b69c2b068fc378daa952ba7f163c4a11628f55a4df523b3ef",
                        "0x0000000000000000000000002275abc4601a6c786c48fca5522210fd82cd0b9a",
                        "0x000000000000000000000000c45169e383aa5fbc9c8f2ab7718517789c94963f",
                        "0x0000000000000000000000000000000000000000000000000000000000002dd8"
                    ]
                },
                "nodeType": 1
            }
        },
        "gasFlame": [
            {
                "children": [
                    {
                        "children": [
                            {
                                "children": [],
                                "depth": 0,
                                "name": "Initial Gas",
                                "value": 24344
                            },
                            {
                                "children": [],
                                "depth": 0,
                                "name": "Executed Gas",
                                "value": 74774
                            }
                        ],
                        "depth": -1,
                        "name": "Actual Gas Used",
                        "value": 84118
                    },
                    {
                        "children": [],
                        "depth": -1,
                        "name": "Refunded Gas",
                        "value": 15000
                    }
                ],
                "depth": -2,
                "name": "Total Gas",
                "value": 99118
            }
        ],
        "isConfirmed": true,
        "mainTrace": [
            {
                "children": [
                    {
                        "children": [
                            {
                                "children": [],
                                "depth": 1,
                                "id": 1,
                                "order": 1
                            }
                        ],
                        "depth": 0,
                        "id": 0,
                        "order": 0
                    }
                ],
                "depth": -1,
                "id": -1,
                "order": -1
            }
        ],
        "mainTraceNodeCount": 2,
        "parentIdMap": {
            "0": -1,
            "1": 0
        },
        "tidyTrace": [
            {
                "children": [
                    {
                        "children": [
                            {
                                "children": [],
                                "depth": 1,
                                "id": 1,
                                "order": 1
                            }
                        ],
                        "depth": 0,
                        "id": 0,
                        "order": 0
                    }
                ],
                "depth": -1,
                "id": -1,
                "order": -1
            }
        ],
        "tidyTraceNodeCount": 2
    },
    "state_change": {
        "stateChanges": [
            {
                "address": "0x69a1d45318de72d6add20d4952398901e0e4a8e5",
                "erc": "",
                "slots": [
                    {
                        "current": "0x0000000000000000000000000000000000000000000000000000000000002dd8",
                        "key": "0xf30a81bfe6b3ba6aea2670499fde6c4f4c6d6a9a7710c87bd0d84ff4f313f740",
                        "prev": "0x0000000000000000000000000000000000000000000000000000000000000000"
                    },
                    {
                        "current": "0x0000000000000000000000000000000000000000000000000000000000000112",
                        "key": "0xf6618f77157562cf9806dab306384f0184b465bf9e612ccf79b6c5ecb8cdf577",
                        "prev": "0x0000000000000000000000000000000000000000000000000000000000000111"
                    },
                    {
                        "current": "0x00000000000000000000000000000000000000000000000000000000000004bf",
                        "key": "0x69d65b9f5340a72ad676f91a0859b2fdbf839814ddcc64eb01256c4d99f23533",
                        "prev": "0x00000000000000000000000000000000000000000000000000000000000004c0"
                    },
                    {
                        "current": "0x00000000000000000000000000000000000000000000000000000000000004bf",
                        "key": "0xaee038dce19f63c713974bbaaa78079009965e8bb6451718b4fc188ab533b0d2",
                        "prev": "0x00000000000000000000000000000000000000000000000000000000000004c0"
                    },
                    {
                        "current": "0x0000000000000000000000000000000000000000000000000000000000000000",
                        "key": "0xbfbf8a362f9064bc067cb0fd3d5021095bf3f3e56577141114c8362d4e3bf39f",
                        "prev": "0x0000000000000000000000000000000000000000000000000000000000002efd"
                    },
                    {
                        "current": "0x000000000000000000000000c45169e383aa5fbc9c8f2ab7718517789c94963f",
                        "key": "0xe4d3b09792c43573a0fe7984a100e5c3be1da22ef647613f6519004f936765ea",
                        "prev": "0x0000000000000000000000002275abc4601a6c786c48fca5522210fd82cd0b9a"
                    },
                    {
                        "current": "0x0000000000000000000000000000000000000000000000000000000000002efd",
                        "key": "0xbfbf8a362f9064bc067cb0fd3d5021095bf3f3e56577141114c8362d4e3bf23f",
                        "prev": "0x0000000000000000000000000000000000000000000000000000000000002dd8"
                    },
                    {
                        "current": "0x000000000000000000000000000000000000000000000000000000000000035f",
                        "key": "0x69a75962783ccfa930ec98bbdd6c5002430aa4d90ecddeca45455f0faecca469",
                        "prev": "0x00000000000000000000000000000000000000000000000000000000000004bf"
                    },
                    {
                        "current": "0x0000000000000000000000000000000000000000000000000000000000000111",
                        "key": "0x17c7c0dec25a89ef415f6cff88da2cd2d5693834c288a430ca9605f575c13b8d",
                        "prev": "0x000000000000000000000000000000000000000000000000000000000000035f"
                    },
                    {
                        "current": "0x0000000000000000000000000000000000000000000000000000000000000112",
                        "key": "0x0f2b490ff3e3e750ab605f5c255ff9310579f3f2258c5f3197bfa06ae2e75d6e",
                        "prev": "0x0000000000000000000000000000000000000000000000000000000000000111"
                    }
                ],
                "storageVariables": []
            }
        ]
    }
}