{
    "balance_change": {
        "balanceChanges": []
    },
    "profile": {
        "basic_info": {
            "baseFee": "",
            "blockNumber": 7431709,
            "callData": "0xef34358800000000000000000000000000000000000000000000037601db2d8c04e000000000000000000000000000000000000000000000000000000ddd29146e089280000000000000000000000000000000000000000000000000000000000000271000000000000000000000000000000000000000000000000000000002b0a36c8100000000000000000000000000000000000000000000037601db2d8c04e000000000000000000000000000000000000000000000000000000000000000005ff100000000000000000000000000000000000000000000000000038d7ea4c68000000000000000000000000000000000000000000000000000000e5c375121c9750000000000000000000000004a527d8fc13c5203ab24ba0944f4cb14658d1db600000000000000000000000000000000000000000000000000000000000000000000000000000000000000005927b6650a572f74451ea42ea216a0339de1a55f000000000000000000000000304ea6a2db91d2bfcb669f21fab0d04cf884ecdd000000000000000000000000000000000000000000000000000000000000001b000000000000000000000000000000000000000000000000000000000000001c06b8a018f4e86503812519b2934ea9347c91a575e985eafd9b4b36a49b0e5ecd579f8fadeb77c106cae5aaaecde9403e3acfe83e6d5fb832a03e9d05b9c37aa014969c6cf6fcee525bdad5b174213cc61b7f29b0a7d0bec1f41b93823f4eae1553d2ee2823fdbd2a3ee2fa0f23155fd0ce79769981689f48333558e85539b60d",
            "debugEnable": true,
            "errorInfo": "",
            "eventCount": 0,
            "feeRecipient": "0xea674fdde714fd979de3edf0f56aa9716b898ec8",
            "formatValue": "0",
            "gasLimit": 400000,
            "gasPrice": "10",
            "gasUsed": 142964,
            "intTxnCount": 2,
            "internalRevert": false,
            "internalRevertMessage": "",
            "isContractCreation": false,
            "isFlashloan": false,
            "maxFee": "",
            "nonce": 2759663,
            "overwritedBlockNumber": -1,
            "priorityFee": "",
            "receiver": "0x2a0c0dbecc7e4d658f48e01e3fa353f44050c208",
            "revertMessage": "",
            "sender": "0xa7a7899d944fe658c4b0a1803bab2f490bd3849e",
            "simulationEnable": true,
            "sourceTxnHash": "0x48cce46e9c91600568c72e2e9227b8b579c3b1b74b923a5ad6d4820f1a579b7b",
            "status": true,
            "timestamp": "2019-03-24T13:39:14Z",
            "transactionFee": "0.00142964",
            "txnHash": "0x48cce46e9c91600568c72e2e9227b8b579c3b1b74b923a5ad6d4820f1a579b7b",
            "txnIndex": 40,
            "type": 0,
            "value": "0"
        },
        "fund_flow": [],
        "token_infos": [
            {
                "address": "0xc02aaa39b223fe8d0a0e5c4f27ead9083c756cc2",
                "decimals": 18
            },
            {
                "address": "0xeeeeeeeeeeeeeeeeeeeeeeeeeeeeeeeeeeeeeeee",
                "decimals": 18
            }
        ]
    },
    "address_label": {
        "labels": [
            {
                "address": "0x4a527d8fc13c5203ab24ba0944f4cb14658d1db6",
                "label": "Morpheus Labs: MITx Token"
            },
            {
                "address": "0x2a0c0dbecc7e4d658f48e01e3fa353f44050c208",
                "label": "IDEX"
            },
            {
                "address": "0x0000000000000000000000000000000000000001",
                "label": "Precompiled"
            },
            {
                "address": "0xeeeeeeeeeeeeeeeeeeeeeeeeeeeeeeeeeeeeeeee",
                "label": "Ether"
            },
            {
                "address": "0x0000000000000000000000000000000000000000",
                "label": "Null Address"
            },
            {
                "address": "0x0000000000000000000000000000000000000002",
                "label": "Precompiled"
            },
            {
                "address": "0x0000000000000000000000000000000000000003",
                "label": "Precompiled"
            },
            {
                "address": "0x0000000000000000000000000000000000000004",
                "label": "Precompiled"
            },
            {
                "address": "0xa7a7899d944fe658c4b0a1803bab2f490bd3849e",
                "label": "IDEX 2"
            }
        ]
    },
    "trace": {
        "accountLabels": null,
        "dataMap": {
            "-1": {
                "invocation": {
                    "address": "0xa7a7899d944fe658c4b0a1803bab2f490bd3849e",
                    "callData": "",
                    "decodedMethod": null,
                    "errorInfo": "",
                    "fromAddress": "",
                    "gasUsed": 0,
                    "id": -1,
                    "methodDecoded": false,
                    "operation": "",
                    "output": "",
                    "revert": false,
                    "revertMessage": "",
                    "selector": "",
                    "status": false,
                    "value": ""
                },
                "nodeType": 0
            },
            "0": {
                "invocation": {
                    "address": "0x2a0c0dbecc7e4d658f48e01e3fa353f44050c208",
                    "callData": "0x00000000000000000000000000000000000000000000037601db2d8c04e000000000000000000000000000000000000000000000000000000ddd29146e089280000000000000000000000000000000000000000000000000000000000000271000000000000000000000000000000000000000000000000000000002b0a36c8100000000000000000000000000000000000000000000037601db2d8c04e000000000000000000000000000000000000000000000000000000000000000005ff100000000000000000000000000000000000000000000000000038d7ea4c68000000000000000000000000000000000000000000000000000000e5c375121c9750000000000000000000000004a527d8fc13c5203ab24ba0944f4cb14658d1db600000000000000000000000000000000000000000000000000000000000000000000000000000000000000005927b6650a572f74451ea42ea216a0339de1a55f000000000000000000000000304ea6a2db91d2bfcb669f21fab0d04cf884ecdd000000000000000000000000000000000000000000000000000000000000001b000000000000000000000000000000000000000000000000000000000000001c06b8a018f4e86503812519b2934ea9347c91a575e985eafd9b4b36a49b0e5ecd579f8fadeb77c106cae5aaaecde9403e3acfe83e6d5fb832a03e9d05b9c37aa014969c6cf6fcee525bdad5b174213cc61b7f29b0a7d0bec1f41b93823f4eae1553d2ee2823fdbd2a3ee2fa0f23155fd0ce79769981689f48333558e85539b60d",
                    "decodedMethod": {
                        "callParams": [
                            {
                                "name": "tradeValues",
                                "type": "uint256[8]",
                                "value": [
                                    "16,343,949,000,000,000,753,664",
                                    "998,999,860,068,258,432",
                                    "10,000",
                                    "11,553,434,753",
                                    "16,343,949,000,000,000,753,664",
                                    "24,561",
                                    "1,000,000,000,000,000",
                                    "4,042,042,328,074,613"
                                ]
                            },
                            {
                                "name": "tradeAddresses",
                                "type": "address[4]",
                                "value": [
                                    "0x4a527d8fc13c5203ab24ba0944f4cb14658d1db6",
                                    "0x0000000000000000000000000000000000000000",
                                    "0x5927b6650a572f74451ea42ea216a0339de1a55f",
                                    "0x304ea6a2db91d2bfcb669f21fab0d04cf884ecdd"
                                ]
                            },
                            {
                                "name": "v",
                                "type": "uint8[2]",
                                "value": [
                                    "27",
                                    "28"
                                ]
                            },
                            {
                                "name": "rs",
                                "type": "bytes32[4]",
                                "value": [
                                    "0x06b8a018f4e86503812519b2934ea9347c91a575e985eafd9b4b36a49b0e5ecd",
                                    "0x579f8fadeb77c106cae5aaaecde9403e3acfe83e6d5fb832a03e9d05b9c37aa0",
                                    "0x14969c6cf6fcee525bdad5b174213cc61b7f29b0a7d0bec1f41b93823f4eae15",
                                    "0x53d2ee2823fdbd2a3ee2fa0f23155fd0ce79769981689f48333558e85539b60d"
                                ]
                            }
                        ],
                        "constructorArguments": "",
                        "name": "trade",
                        "returnParams": [
                            {
                                "name": "success",
                                "type": "bool",
                                "value": false
                            }
                        ],
                        "signature": "trade(uint256[8],address[4],uint8[2],bytes32[4])"
                    },
                    "errorInfo": "",
                    "fromAddress": "0xa7a7899d944fe658c4b0a1803bab2f490bd3849e",
                    "gasUsed": 142964,
                    "id": 0,
                    "methodDecoded": true,
                    "operation": "CALL",
                    "output": "0x0000000000000000000000000000000000000000000000000000000000000000",
                    "revert": false,
                    "revertMessage": "",
                    "selector": "0xef343588",
                    "status": true,
                    "value": "0"
                },
                "nodeType": 0
            },
            "1": {
                "invocation": {
                    "address": "0x0000000000000000000000000000000000000001",
                    "callData": "0x253bbc46cb010c9b745518a1691d11a2b31992769d0f4c76d3b87279000000000000000000000000000000000000000000000000000000000000001b06b8a018f4e86503812519b2934ea9347c91a575e985eafd9b4b36a49b0e5ecd579f8fadeb77c106cae5aaaecde9403e3acfe83e6d5fb832a03e9d05b9c37aa0",
                    "decodedMethod": {
                        "callParams": [
                            {
                                "name": "hash",
                                "type": "bytes32",
                                "value": "0x38acd8c5253bbc46cb010c9b745518a1691d11a2b31992769d0f4c76d3b87279"
                            },
                            {
                                "name": "v",
                                "type": "uint256",
                                "value": "27"
                            },
                            {
                                "name": "r",
                                "type": "bytes32",
                                "value": "0x06b8a018f4e86503812519b2934ea9347c91a575e985eafd9b4b36a49b0e5ecd"
                            },
                            {
                                "name": "s",
                                "type": "bytes32",
                                "value": "0x579f8fadeb77c106cae5aaaecde9403e3acfe83e6d5fb832a03e9d05b9c37aa0"
                            }
                        ],
                        "constructorArguments": "",
                        "name": "ecrecover",
                        "returnParams": [
                            {
                                "name": "",
                                "type": "address",
                                "value": "0x5927b6650a572f74451ea42ea216a0339de1a55f"
                            }
                        ],
                        "signature": "ecrecover(bytes32,uint256,bytes32,bytes32)"
                    },
                    "errorInfo": "",
                    "fromAddress": "0x2a0c0dbecc7e4d658f48e01e3fa353f44050c208",
                    "gasUsed": 3000,
                    "id": 1,
                    "methodDecoded": true,
                    "operation": "CALL",
                    "output": "0x0000000000000000000000005927b6650a572f74451ea42ea216a0339de1a55f",
                    "revert": false,
                    "revertMessage": "",
                    "selector": "0x38acd8c5",
                    "status": true,
                    "value": "0"
                },
                "nodeType": 0
            },
            "2": {
                "invocation": {
                    "address": "0x0000000000000000000000000000000000000001",
                    "callData": "0x14fa763169c4682cd99e9e19a03f5706e374a4def8fedd6ffa78efbe000000000000000000000000000000000000000000000000000000000000001c14969c6cf6fcee525bdad5b174213cc61b7f29b0a7d0bec1f41b93823f4eae1553d2ee2823fdbd2a3ee2fa0f23155fd0ce79769981689f48333558e85539b60d",
                    "decodedMethod": {
                        "callParams": [
                            {
                                "name": "hash",
                                "type": "bytes32",
                                "value": "0x7caa9b2914fa763169c4682cd99e9e19a03f5706e374a4def8fedd6ffa78efbe"
                            },
                            {
                                "name": "v",
                                "type": "uint256",
                                "value": "28"
                            },
                            {
                                "name": "r",
                                "type": "bytes32",
                                "value": "0x14969c6cf6fcee525bdad5b174213cc61b7f29b0a7d0bec1f41b93823f4eae15"
                            },
                            {
                                "name": "s",
                                "type": "bytes32",
                                "value": "0x53d2ee2823fdbd2a3ee2fa0f23155fd0ce79769981689f48333558e85539b60d"
                            }
                        ],
                        "constructorArguments": "",
                        "name": "ecrecover",
                        "returnParams": [
                            {
                                "name": "",
                                "type": "address",
                                "value": "0x304ea6a2db91d2bfcb669f21fab0d04cf884ecdd"
                            }
                        ],
                        "signature": "ecrecover(bytes32,uint256,bytes32,bytes32)"
                    },
                    "errorInfo": "",
                    "fromAddress": "0x2a0c0dbecc7e4d658f48e01e3fa353f44050c208",
                    "gasUsed": 3000,
                    "id": 2,
                    "methodDecoded": true,
                    "operation": "CALL",
                    "output": "0x000000000000000000000000304ea6a2db91d2bfcb669f21fab0d04cf884ecdd",
                    "revert": false,
                    "revertMessage": "",
                    "selector": "0x7caa9b29",
                    "status": true,
                    "value": "0"
                },
                "nodeType": 0
            }
        },
        "gasFlame": [
            {
                "children": [
                    {
                        "children": [
                            {
                                "children": [],
                                "depth": 0,
                                "name": "Initial Gas",
                                "value": 38680
                            },
                            {
                                "children": [
                                    {
                                        "children": [],
                                        "depth": 1,
                                        "name": "ecrecover",
                                        "value": 3000
                                    },
                                    {
                                        "children": [],
                                        "depth": 1,
                                        "name": "ecrecover",
                                        "value": 3000
                                    }
                                ],
                                "depth": 0,
                                "name": "Executed Gas",
                                "value": 104284
                            }
                        ],
                        "depth": -1,
                        "name": "Actual Gas Used",
                        "value": 142964
                    },
                    {
                        "children": [],
                        "depth": -1,
                        "name": "Refunded Gas",
                        "value": 0
                    }
                ],
                "depth": -2,
                "name": "Total Gas",
                "value": 142964
            }
        ],
        "isConfirmed": true,
        "mainTrace": [
            {
                "children": [
                    {
                        "children": [
                            {
                                "children": [],
                                "depth": 1,
                                "id": 1,
                                "order": 1
                            },
                            {
                                "children": [],
                                "depth": 1,
                                "id": 2,
                                "order": 2
                            }
                        ],
                        "depth": 0,
                        "id": 0,
                        "order": 0
                    }
                ],
                "depth": -1,
                "id": -1,
                "order": -1
            }
        ],
        "mainTraceNodeCount": 3,
        "parentIdMap": {
            "0": -1,
            "1": 0,
            "2": 0
        },
        "tidyTrace": [
            {
                "children": [
                    {
                        "children": [
                            {
                                "children": [],
                                "depth": 1,
                                "id": 1,
                                "order": 1
                            },
                            {
                                "children": [],
                                "depth": 1,
                                "id": 2,
                                "order": 2
                            }
                        ],
                        "depth": 0,
                        "id": 0,
                        "order": 0
                    }
                ],
                "depth": -1,
                "id": -1,
                "order": -1
            }
        ],
        "tidyTraceNodeCount": 3
    },
    "state_change": {
        "stateChanges": [
            {
                "address": "0x2a0c0dbecc7e4d658f48e01e3fa353f44050c208",
                "erc": "",
                "slots": [
                    {
                        "current": "0x0000000000000000000000000000000000000000000087161c77c21e3ee78fc1",
                        "key": "0x9d717a4794f24a0771dc7743baa16e90181c85526fd2a8ee592f083a0e2c411a",
                        "prev": "0x000000000000000000000000000000000000000000008a8c1e52efaa43c78fc1"
                    },
                    {
                        "current": "0x00000000000000000000000000000000000000000000037601db2d8c04e00000",
                        "key": "0xb5d87b509336cb9c6dd9db8ac2fe8ec530e66c0f5bc429b07ba36640987a2044",
                        "prev": "0x0000000000000000000000000000000000000000000000000000000000000000"
                    },
                    {
                        "current": "0x000000000000000000000000000000000000000000000000000000000071661d",
                        "key": "0xa7b9e041046696741f0aa3fd4c441d521da4ca2fd5425c3bc1dfebc17d30fbe9",
                        "prev": "0x0000000000000000000000000000000000000000000000000000000000715d87"
                    },
                    {
                        "current": "0x000000000000000000000000000000000000000000000000000000000071661d",
                        "key": "0x0455ded9fb53137ce61be76ed3e4261ffb650b15da83d4b0589eb9270903009d",
                        "prev": "0x00000000000000000000000000000000000000000000000000000000007165fb"
                    },
                    {
                        "current": "0x0000000000000000000000000000000000000000000001acd4d8041b2a418e29",
                        "key": "0xd0432fa23c8e99f2f3a26d3b64dd41ecadeee62ea52959301e21578087337ca6",
                        "prev": "0x0000000000000000000000000000000000000000000001abf206a515a627bb38"
                    },
                    {
                        "current": "0x0000000000000000000000000000000000000000000000000000000000000001",
                        "key": "0xc718ca9501d0dd34403d58570a6ed28e5dd8e71a792c584926ccc7c87b0dd5a4",
                        "prev": "0x0000000000000000000000000000000000000000000000000000000000000000"
                    },
                    {
                        "current": "0x0000000000000000000000000000000000000000000003751f0f1af058d1ffbb",
                        "key": "0xd0bee7789b711cf4e5458b29b0678cc6da0000d790e836f29494e1a17fd406d2",
                        "prev": "0x00000000000000000000000000000000000000000000000000054c69d80bd2ad"
                    },
                    {
                        "current": "0x00000000000000000000000000000000000000000000000004091b6711c9887d",
                        "key": "0x8997a371d7f90dd7739564d6dd938a7a4603d97c27bd8230bd8541bd3d92c69f",
                        "prev": "0x00000000000000000000000000000000000000000000000011e6447b7fd21afd"
                    },
                    {
                        "current": "0x000000000000000000000000000000000000000000000001134b7a20b802925f",
                        "key": "0xe0e7b9a8de9e82623e4489a9aa4a12c9bb2ab38ef385312dadf1a9fc4f1895d5",
                        "prev": "0x000000000000000000000000000000000000000000000001057ca9965ce5ff23"
                    },
                    {
                        "current": "0x000000000000000000000000000000000000000000000008676ba5aeee476a81",
                        "key": "0x3ccb72d91c5c66cba135a4135963ed23443b8a63817f501517468fcd5097e277",
                        "prev": "0x000000000000000000000000000000000000000000000008675d4d24db5b6b3e"
                    }
                ],
                "storageVariables": [
                    {
                        "name": "traded",
                        "type": "mapping(bytes32 => bool)",
                        "value": {
                            "pairs": [
                                {
                                    "key": "0x31d8f8bd31a1b7b24cde64fec8652c3d9377f321820a201c05387b05b81203ab",
                                    "value": {
                                        "current": "true",
                                        "prev": "false",
                                        "typeTag": 1
                                    }
                                }
                            ],
                            "typeTag": 4
                        }
                    },
                    {
                        "name": "tokens",
                        "type": "mapping(address => mapping(address => uint256))",
                        "value": {
                            "pairs": [
                                {
                                    "key": "0x0000000000000000000000000000000000000000",
                                    "value": {
                                        "pairs": [
                                            {
                                                "key": "0x034767f3c519f361c5ecf46ebfc08981c629d381",
                                                "value": {
                                                    "current": "155026184768831580801",
                                                    "prev": "155022146769111444286",
                                                    "typeTag": 1
                                                }
                                            },
                                            {
                                                "key": "0x304ea6a2db91d2bfcb669f21fab0d04cf884ecdd",
                                                "value": {
                                                    "current": "19837083264628200031",
                                                    "prev": "18842121404280078115",
                                                    "typeTag": 1
                                                }
                                            },
                                            {
                                                "key": "0x5927b6650a572f74451ea42ea216a0339de1a55f",
                                                "value": {
                                                    "current": "290793780436109437",
                                                    "prev": "1289793640504367869",
                                                    "typeTag": 1
                                                }
                                            }
                                        ],
                                        "typeTag": 4
                                    }
                                },
                                {
                                    "key": "0x4a527d8fc13c5203ab24ba0944f4cb14658d1db6",
                                    "value": {
                                        "pairs": [
                                            {
                                                "key": "0x034767f3c519f361c5ecf46ebfc08981c629d381",
                                                "value": {
                                                    "current": "7910543476593417883177",
                                                    "prev": "7894199527593417882424",
                                                    "typeTag": 1
                                                }
                                            },
                                            {
                                                "key": "0x304ea6a2db91d2bfcb669f21fab0d04cf884ecdd",
                                                "value": {
                                                    "current": "637927354878614164705217",
                                                    "prev": "654271303878614165458881",
                                                    "typeTag": 1
                                                }
                                            },
                                            {
                                                "key": "0x5927b6650a572f74451ea42ea216a0339de1a55f",
                                                "value": {
                                                    "current": "16327606542392364236731",
                                                    "prev": "1491392363483821",
                                                    "typeTag": 1
                                                }
                                            }
                                        ],
                                        "typeTag": 4
                                    }
                                }
                            ],
                            "typeTag": 4
                        }
                    },
                    {
                        "name": "lastActiveTransaction",
                        "type": "mapping(address => uint256)",
                        "value": {
                            "pairs": [
                                {
                                    "key": "0x304ea6a2db91d2bfcb669f21fab0d04cf884ecdd",
                                    "value": {
                                        "current": "7431709",
                                        "prev": "7431675",
                                        "typeTag": 1
                                    }
                                },
                                {
                                    "key": "0x5927b6650a572f74451ea42ea216a0339de1a55f",
                                    "value": {
                                        "current": "7431709",
                                        "prev": "7429511",
                                        "typeTag": 1
                                    }
                                }
                            ],
                            "typeTag": 4
                        }
                    },
                    {
                        "name": "orderFills",
                        "type": "mapping(bytes32 => uint256)",
                        "value": {
                            "pairs": [
                                {
                                    "key": "0x464be5657afe9b3df133273db3ecb2d7dd9bce12d8a802baec6c322dfd6504cc",
                                    "value": {
                                        "current": "16343949000000000753664",
                                        "prev": "0",
                                        "typeTag": 1
                                    }
                                }
                            ],
                            "typeTag": 4
                        }
                    }
                ]
            }
        ]
    }
}