{
    "balance_change": {
        "balanceChanges": []
    },
    "profile": {
        "basic_info": {
            "baseFee": "",
            "blockNumber": 11747398,
            "callData": "0x18cbafe500000000000000000000000000000000000000000000000016a1a3b538e79ab900000000000000000000000000000000000000000000000000b5b16d9780ec5c00000000000000000000000000000000000000000000000000000000000000a000000000000000000000000027734008f60b386f1a595e4a4de261001114d0490000000000000000000000000000000000000000000000000000000060134bc100000000000000000000000000000000000000000000000000000000000000020000000000000000000000004b4d2e899658fb59b1d518b68fe836b100ee8958000000000000000000000000c02aaa39b223fe8d0a0e5c4f27ead9083c756cc2",
            "debugEnable": true,
            "errorInfo": "execution reverted",
            "eventCount": 0,
            "feeRecipient": "0x3ecef08d0e2dad803847e052249bb4f8bff2d5bb",
            "formatValue": "0",
            "gasLimit": 169488,
            "gasPrice": "55",
            "gasUsed": 23699,
            "intTxnCount": 0,
            "internalRevert": false,
            "internalRevertMessage": "",
            "isContractCreation": false,
            "isFlashloan": false,
            "maxFee": "",
            "nonce": 286,
            "overwritedBlockNumber": -1,
            "priorityFee": "",
            "receiver": "0xd9e1ce17f2641f24ae83637ab66a2cca9c378b9f",
            "revertMessage": "UniswapV2Router: EXPIRED",
            "sender": "0x27734008f60b386f1a595e4a4de261001114d049",
            "simulationEnable": true,
            "sourceTxnHash": "0x480bc056dbe97312da6d8f7fcd169818c93fa1a790020c18dffe70bd84af86ac",
            "status": false,
            "timestamp": "2021-01-28T23:45:57Z",
            "transactionFee": "0.001303445",
            "txnHash": "0x480bc056dbe97312da6d8f7fcd169818c93fa1a790020c18dffe70bd84af86ac",
            "txnIndex": 91,
            "type": 0,
            "value": "0"
        },
        "fund_flow": [],
        "token_infos": [
            {
                "address": "0xeeeeeeeeeeeeeeeeeeeeeeeeeeeeeeeeeeeeeeee",
                "decimals": 18
            },
            {
                "address": "0xc02aaa39b223fe8d0a0e5c4f27ead9083c756cc2",
                "decimals": 18
            }
        ]
    },
    "address_label": {
        "labels": [
            {
                "address": "0x0000000000000000000000000000000000000001",
                "label": "Precompiled"
            },
            {
                "address": "0x0000000000000000000000000000000000000002",
                "label": "Precompiled"
            },
            {
                "address": "0x0000000000000000000000000000000000000003",
                "label": "Precompiled"
            },
            {
                "address": "0x0000000000000000000000000000000000000004",
                "label": "Precompiled"
            },
            {
                "address": "0xeeeeeeeeeeeeeeeeeeeeeeeeeeeeeeeeeeeeeeee",
                "label": "Ether"
            },
            {
                "address": "0x4b4d2e899658fb59b1d518b68fe836b100ee8958",
                "label": "MITH Cash: MIS Token"
            },
            {
                "address": "0xd9e1ce17f2641f24ae83637ab66a2cca9c378b9f",
                "label": "SushiSwap: Router"
            },
            {
                "address": "0xc02aaa39b223fe8d0a0e5c4f27ead9083c756cc2",
                "label": "Wrapped Ether (WETH)"
            }
        ]
    },
    "trace": {
        "accountLabels": null,
        "dataMap": {
            "-1": {
                "invocation": {
                    "address": "0x27734008f60b386f1a595e4a4de261001114d049",
                    "callData": "",
                    "decodedMethod": null,
                    "errorInfo": "",
                    "fromAddress": "",
                    "gasUsed": 0,
                    "id": -1,
                    "methodDecoded": false,
                    "operation": "",
                    "output": "",
                    "revert": false,
                    "revertMessage": "",
                    "selector": "",
                    "status": false,
                    "value": ""
                },
                "nodeType": 0
            },
            "0": {
                "invocation": {
                    "address": "0xd9e1ce17f2641f24ae83637ab66a2cca9c378b9f",
                    "callData": "0x00000000000000000000000000000000000000000000000016a1a3b538e79ab900000000000000000000000000000000000000000000000000b5b16d9780ec5c00000000000000000000000000000000000000000000000000000000000000a000000000000000000000000027734008f60b386f1a595e4a4de261001114d0490000000000000000000000000000000000000000000000000000000060134bc100000000000000000000000000000000000000000000000000000000000000020000000000000000000000004b4d2e899658fb59b1d518b68fe836b100ee8958000000000000000000000000c02aaa39b223fe8d0a0e5c4f27ead9083c756cc2",
                    "decodedMethod": {
                        "callParams": [
                            {
                                "name": "amountIn",
                                "type": "uint256",
                                "value": "1,630,764,538,823,940,793"
                            },
                            {
                                "name": "amountOutMin",
                                "type": "uint256",
                                "value": "51,142,055,035,989,084"
                            },
                            {
                                "name": "path",
                                "type": "address[]",
                                "value": [
                                    "0x4b4d2e899658fb59b1d518b68fe836b100ee8958",
                                    "0xc02aaa39b223fe8d0a0e5c4f27ead9083c756cc2"
                                ]
                            },
                            {
                                "name": "to",
                                "type": "address",
                                "value": "0x27734008f60b386f1a595e4a4de261001114d049"
                            },
                            {
                                "name": "deadline",
                                "type": "uint256",
                                "value": "1,611,877,313"
                            }
                        ],
                        "constructorArguments": "",
                        "name": "swapExactTokensForETH",
                        "returnParams": [],
                        "signature": "swapExactTokensForETH(uint256,uint256,address[],address,uint256)"
                    },
                    "errorInfo": "execution reverted",
                    "fromAddress": "0x27734008f60b386f1a595e4a4de261001114d049",
                    "gasUsed": 23699,
                    "id": 0,
                    "methodDecoded": true,
                    "operation": "CALL",
                    "output": "0x08c379a000000000000000000000000000000000000000000000000000000000000000200000000000000000000000000000000000000000000000000000000000000018556e69737761705632526f757465723a20455850495245440000000000000000",
                    "revert": true,
                    "revertMessage": "UniswapV2Router: EXPIRED",
                    "selector": "0x18cbafe5",
                    "status": false,
                    "value": "0"
                },
                "nodeType": 0
            }
        },
        "gasFlame": [
            {
                "children": [
                    {
                        "children": [
                            {
                                "children": [],
                                "depth": 0,
                                "name": "Initial Gas",
                                "value": 23036
                            },
                            {
                                "children": [],
                                "depth": 0,
                                "name": "Executed Gas",
                                "value": 663
                            }
                        ],
                        "depth": -1,
                        "name": "Actual Gas Used",
                        "value": 23699
                    },
                    {
                        "children": [],
                        "depth": -1,
                        "name": "Refunded Gas",
                        "value": 0
                    }
                ],
                "depth": -2,
                "name": "Total Gas",
                "value": 23699
            }
        ],
        "isConfirmed": true,
        "mainTrace": [
            {
                "children": [
                    {
                        "children": [],
                        "depth": 0,
                        "id": 0,
                        "order": 0
                    }
                ],
                "depth": -1,
                "id": -1,
                "order": -1
            }
        ],
        "mainTraceNodeCount": 1,
        "parentIdMap": {
            "0": -1
        },
        "tidyTrace": [
            {
                "children": [
                    {
                        "children": [],
                        "depth": 0,
                        "id": 0,
                        "order": 0
                    }
                ],
                "depth": -1,
                "id": -1,
                "order": -1
            }
        ],
        "tidyTraceNodeCount": 1
    },
    "state_change": {
        "stateChanges": []
    }
}