{
    "balance_change": {
        "balanceChanges": [
            {
                "account": "0x2cebff4c88b7021b960591ec3e45712f01d57773",
                "assets": [
                    {
                        "address": "0x5c43df7448a6350e77cf77e867987087dc85515c",
                        "amount": "530",
                        "iconUrl": "",
                        "isERC1155": false,
                        "isERC721": false,
                        "sign": false,
                        "value": ""
                    }
                ]
            },
            {
                "account": "0x8e8dc37e7e042fa1835109bb77a16a645a27614b",
                "assets": [
                    {
                        "address": "0x5c43df7448a6350e77cf77e867987087dc85515c",
                        "amount": "530",
                        "iconUrl": "",
                        "isERC1155": false,
                        "isERC721": false,
                        "sign": true,
                        "value": ""
                    }
                ]
            }
        ]
    },
    "profile": {
        "basic_info": {
            "baseFee": "",
            "blockNumber": 9456059,
            "callData": "0xa9059cbb0000000000000000000000008e8dc37e7e042fa1835109bb77a16a645a27614b00000000000000000000000000000000000000000000001cbb3a3ff08d080000",
            "debugEnable": true,
            "errorInfo": "",
            "eventCount": 1,
            "feeRecipient": "0x5a0b54d5dc17e0aadc383d2db43b0a0d3e029c4c",
            "formatValue": "0",
            "gasLimit": 210000,
            "gasPrice": "15",
            "gasUsed": 23224,
            "intTxnCount": 0,
            "internalRevert": false,
            "internalRevertMessage": "",
            "isContractCreation": false,
            "isFlashloan": false,
            "maxFee": "",
            "nonce": 2,
            "overwritedBlockNumber": -1,
            "priorityFee": "",
            "receiver": "0x5c43df7448a6350e77cf77e867987087dc85515c",
            "revertMessage": "",
            "sender": "0x2cebff4c88b7021b960591ec3e45712f01d57773",
            "simulationEnable": true,
            "sourceTxnHash": "0x4877277305936c306b8dfff480841d686f5a2c90fc4488cb0e665aa178c163e2",
            "status": true,
            "timestamp": "2020-02-10T16:00:01Z",
            "transactionFee": "0.00034836",
            "txnHash": "0x4877277305936c306b8dfff480841d686f5a2c90fc4488cb0e665aa178c163e2",
            "txnIndex": 12,
            "type": 0,
            "value": "0"
        },
        "fund_flow": [
            {
                "amount": "530",
                "from": "0x2cebff4c88b7021b960591ec3e45712f01d57773",
                "id": 1,
                "isERC1155": false,
                "isERC721": false,
                "isReverted": false,
                "order": 1,
                "to": "0x8e8dc37e7e042fa1835109bb77a16a645a27614b",
                "token": "0x5c43df7448a6350e77cf77e867987087dc85515c"
            }
        ],
        "token_infos": [
            {
                "address": "0xc02aaa39b223fe8d0a0e5c4f27ead9083c756cc2",
                "decimals": 18
            },
            {
                "address": "0xeeeeeeeeeeeeeeeeeeeeeeeeeeeeeeeeeeeeeeee",
                "decimals": 18
            },
            {
                "address": "0x5c43df7448a6350e77cf77e867987087dc85515c",
                "decimals": 18
            }
        ]
    },
    "address_label": {
        "labels": [
            {
                "address": "0x0000000000000000000000000000000000000004",
                "label": "Precompiled"
            },
            {
                "address": "0xeeeeeeeeeeeeeeeeeeeeeeeeeeeeeeeeeeeeeeee",
                "label": "Ether"
            },
            {
                "address": "0x5c43df7448a6350e77cf77e867987087dc85515c",
                "label": "dbs (dbs)"
            },
            {
                "address": "0x0000000000000000000000000000000000000001",
                "label": "Precompiled"
            },
            {
                "address": "0x0000000000000000000000000000000000000002",
                "label": "Precompiled"
            },
            {
                "address": "0x0000000000000000000000000000000000000003",
                "label": "Precompiled"
            }
        ]
    },
    "trace": {
        "accountLabels": null,
        "dataMap": {
            "-1": {
                "invocation": {
                    "address": "0x2cebff4c88b7021b960591ec3e45712f01d57773",
                    "callData": "",
                    "decodedMethod": null,
                    "errorInfo": "",
                    "fromAddress": "",
                    "gasUsed": 0,
                    "id": -1,
                    "methodDecoded": false,
                    "operation": "",
                    "output": "",
                    "revert": false,
                    "revertMessage": "",
                    "selector": "",
                    "status": false,
                    "value": ""
                },
                "nodeType": 0
            },
            "0": {
                "invocation": {
                    "address": "0x5c43df7448a6350e77cf77e867987087dc85515c",
                    "callData": "0x0000000000000000000000008e8dc37e7e042fa1835109bb77a16a645a27614b00000000000000000000000000000000000000000000001cbb3a3ff08d080000",
                    "decodedMethod": {
                        "callParams": [
                            {
                                "name": "recipient",
                                "type": "address",
                                "value": "0x8e8dc37e7e042fa1835109bb77a16a645a27614b"
                            },
                            {
                                "decimalAvailable": true,
                                "name": "amount",
                                "type": "uint256",
                                "value": "530,000,000,000,000,000,000"
                            }
                        ],
                        "constructorArguments": "",
                        "name": "transfer",
                        "returnParams": [
                            {
                                "name": "",
                                "type": "bool",
                                "value": true
                            }
                        ],
                        "signature": "transfer(address,uint256)"
                    },
                    "errorInfo": "",
                    "fromAddress": "0x2cebff4c88b7021b960591ec3e45712f01d57773",
                    "gasUsed": 23224,
                    "id": 0,
                    "methodDecoded": true,
                    "operation": "CALL",
                    "output": "0x0000000000000000000000000000000000000000000000000000000000000001",
                    "revert": false,
                    "revertMessage": "",
                    "selector": "0xa9059cbb",
                    "status": true,
                    "value": "0"
                },
                "nodeType": 0
            },
            "1": {
                "event": {
                    "contract": "0x5c43df7448a6350e77cf77e867987087dc85515c",
                    "decodedLog": {
                        "name": "Transfer",
                        "params": [
                            {
                                "name": "from",
                                "type": "address",
                                "value": "0x2cebff4c88b7021b960591ec3e45712f01d57773"
                            },
                            {
                                "name": "to",
                                "type": "address",
                                "value": "0x8e8dc37e7e042fa1835109bb77a16a645a27614b"
                            },
                            {
                                "decimalAvailable": true,
                                "name": "value",
                                "type": "uint256",
                                "value": "530,000,000,000,000,000,000"
                            }
                        ],
                        "signature": "Transfer(address,address,uint256)"
                    },
                    "id": 1,
                    "logData": "0x00000000000000000000000000000000000000000000001cbb3a3ff08d080000",
                    "logDecoded": true,
                    "operation": "EVENT",
                    "revert": false,
                    "status": true,
                    "topics": [
                        "0xddf252ad1be2c89b69c2b068fc378daa952ba7f163c4a11628f55a4df523b3ef",
                        "0x0000000000000000000000002cebff4c88b7021b960591ec3e45712f01d57773",
                        "0x0000000000000000000000008e8dc37e7e042fa1835109bb77a16a645a27614b"
                    ]
                },
                "nodeType": 1
            }
        },
        "gasFlame": [
            {
                "children": [
                    {
                        "children": [
                            {
                                "children": [],
                                "depth": 0,
                                "name": "Initial Gas",
                                "value": 21644
                            },
                            {
                                "children": [],
                                "depth": 0,
                                "name": "Executed Gas",
                                "value": 16580
                            }
                        ],
                        "depth": -1,
                        "name": "Actual Gas Used",
                        "value": 23224
                    },
                    {
                        "children": [],
                        "depth": -1,
                        "name": "Refunded Gas",
                        "value": 15000
                    }
                ],
                "depth": -2,
                "name": "Total Gas",
                "value": 38224
            }
        ],
        "isConfirmed": true,
        "mainTrace": [
            {
                "children": [
                    {
                        "children": [
                            {
                                "children": [],
                                "depth": 1,
                                "id": 1,
                                "order": 1
                            }
                        ],
                        "depth": 0,
                        "id": 0,
                        "order": 0
                    }
                ],
                "depth": -1,
                "id": -1,
                "order": -1
            }
        ],
        "mainTraceNodeCount": 2,
        "parentIdMap": {
            "0": -1,
            "1": 0
        },
        "tidyTrace": [
            {
                "children": [
                    {
                        "children": [
                            {
                                "children": [],
                                "depth": 1,
                                "id": 1,
                                "order": 1
                            }
                        ],
                        "depth": 0,
                        "id": 0,
                        "order": 0
                    }
                ],
                "depth": -1,
                "id": -1,
                "order": -1
            }
        ],
        "tidyTraceNodeCount": 2
    },
    "state_change": {
        "stateChanges": [
            {
                "address": "0x5c43df7448a6350e77cf77e867987087dc85515c",
                "erc": "",
                "slots": [
                    {
                        "current": "0x0000000000000000000000000000000000000000000000000000000000000000",
                        "key": "0x60d8eee2da095d41c8582ab58960ea1c130b2d5dfd72e4c8ae5545a5630cfb5c",
                        "prev": "0x00000000000000000000000000000000000000000000001cbb3a3ff08d080000"
                    },
                    {
                        "current": "0x0000000000000000000000000000000000000000000069289e37e4df2b824400",
                        "key": "0x54cf81c9d463a74108a158e644f30a9da20920fbb3473a0c7ea78e6e21f5d24a",
                        "prev": "0x00000000000000000000000000000000000000000000690be2fda4ee9e7a4400"
                    }
                ],
                "storageVariables": []
            }
        ]
    }
}