{
    "balance_change": {
        "balanceChanges": [
            {
                "account": "0xb2a1901c9cd4c148adc726f4a79c54a41513580a",
                "assets": [
                    {
                        "address": "0xf4d2888d29d722226fafa5d9b24f9164c092421e",
                        "amount": "400",
                        "iconUrl": "",
                        "isERC1155": false,
                        "isERC721": false,
                        "sign": false,
                        "value": "1016.995366"
                    }
                ]
            },
            {
                "account": "0x0000000000000000000000000000000000000000",
                "assets": [
                    {
                        "address": "0xf4d2888d29d722226fafa5d9b24f9164c092421e",
                        "amount": "1,600",
                        "iconUrl": "",
                        "isERC1155": false,
                        "isERC721": false,
                        "sign": false,
                        "value": "4064.570413"
                    }
                ]
            },
            {
                "account": "0x465a790b428268196865a3ae2648481ad7e0d3b1",
                "assets": [
                    {
                        "address": "0xf4d2888d29d722226fafa5d9b24f9164c092421e",
                        "amount": "778",
                        "iconUrl": "",
                        "isERC1155": false,
                        "isERC721": false,
                        "sign": true,
                        "value": "1977.53322"
                    }
                ]
            },
            {
                "account": "0xfec3069df398faaf689c559151e41fa8036c8203",
                "assets": [
                    {
                        "address": "0xf4d2888d29d722226fafa5d9b24f9164c092421e",
                        "amount": "1,222",
                        "iconUrl": "",
                        "isERC1155": false,
                        "isERC721": false,
                        "sign": true,
                        "value": "3105.135816"
                    }
                ]
            }
        ]
    },
    "profile": {
        "basic_info": {
            "baseFee": "309.062540499",
            "blockNumber": 13979280,
            "callData": "0x9a408321000000000000000000000000000000000000000000000015af1d78b58c4000000000000000000000000000000000000000000000000000000000000000000000",
            "debugEnable": true,
            "errorInfo": "",
            "eventCount": 9,
            "feeRecipient": "0x7777788200b672a42421017f65ede4fc759564c8",
            "formatValue": "0",
            "gasLimit": 250000,
            "gasPrice": "310.562540499",
            "gasUsed": 171224,
            "intTxnCount": 8,
            "internalRevert": false,
            "internalRevertMessage": "",
            "isContractCreation": false,
            "isFlashloan": false,
            "maxFee": "353.559610622",
            "nonce": 129,
            "overwritedBlockNumber": -1,
            "priorityFee": "1.5",
            "receiver": "0xbcd7254a1d759efa08ec7c3291b2e85c5dcc12ce",
            "revertMessage": "",
            "sender": "0xb2a1901c9cd4c148adc726f4a79c54a41513580a",
            "simulationEnable": true,
            "sourceTxnHash": "0x485872cd393444fabeb8a77fc790180e8792d1c14173b702749de71807c75b75",
            "status": true,
            "timestamp": "2022-01-10T18:08:05Z",
            "transactionFee": "0.053175760434400776",
            "txnHash": "0x485872cd393444fabeb8a77fc790180e8792d1c14173b702749de71807c75b75",
            "txnIndex": 105,
            "type": 2,
            "value": "0"
        },
        "fund_flow": [
            {
                "amount": "378",
                "from": "0x0000000000000000000000000000000000000000",
                "id": 1,
                "isERC1155": false,
                "isERC721": false,
                "isReverted": false,
                "order": 1,
                "to": "0x465a790b428268196865a3ae2648481ad7e0d3b1",
                "token": "0xf4d2888d29d722226fafa5d9b24f9164c092421e"
            },
            {
                "amount": "1,222",
                "from": "0x0000000000000000000000000000000000000000",
                "id": 2,
                "isERC1155": false,
                "isERC721": false,
                "isReverted": false,
                "order": 2,
                "to": "0xfec3069df398faaf689c559151e41fa8036c8203",
                "token": "0xf4d2888d29d722226fafa5d9b24f9164c092421e"
            },
            {
                "amount": "400",
                "from": "0xb2a1901c9cd4c148adc726f4a79c54a41513580a",
                "id": 3,
                "isERC1155": false,
                "isERC721": false,
                "isReverted": false,
                "order": 3,
                "to": "0xbcd7254a1d759efa08ec7c3291b2e85c5dcc12ce",
                "token": "0xf4d2888d29d722226fafa5d9b24f9164c092421e"
            },
            {
                "amount": "400",
                "from": "0xbcd7254a1d759efa08ec7c3291b2e85c5dcc12ce",
                "id": 4,
                "isERC1155": false,
                "isERC721": false,
                "isReverted": false,
                "order": 4,
                "to": "0x465a790b428268196865a3ae2648481ad7e0d3b1",
                "token": "0xf4d2888d29d722226fafa5d9b24f9164c092421e"
            }
        ],
        "token_infos": [
            {
                "address": "0xc02aaa39b223fe8d0a0e5c4f27ead9083c756cc2",
                "decimals": 18
            },
            {
                "address": "0xf4d2888d29d722226fafa5d9b24f9164c092421e",
                "decimals": 18
            },
            {
                "address": "0xeeeeeeeeeeeeeeeeeeeeeeeeeeeeeeeeeeeeeeee",
                "decimals": 18
            }
        ]
    },
    "address_label": {
        "labels": [
            {
                "address": "0x0000000000000000000000000000000000000004",
                "label": "Precompiled"
            },
            {
                "address": "0xfec3069df398faaf689c559151e41fa8036c8203",
                "label": "LooksRare: Token Splitter"
            },
            {
                "address": "0x0000000000000000000000000000000000000001",
                "label": "Precompiled"
            },
            {
                "address": "0x0000000000000000000000000000000000000003",
                "label": "Precompiled"
            },
            {
                "address": "0xf4d2888d29d722226fafa5d9b24f9164c092421e",
                "label": "LooksRare: LOOKS Token"
            },
            {
                "address": "0x0000000000000000000000000000000000000002",
                "label": "Precompiled"
            },
            {
                "address": "0xeeeeeeeeeeeeeeeeeeeeeeeeeeeeeeeeeeeeeeee",
                "label": "Ether"
            },
            {
                "address": "0x465a790b428268196865a3ae2648481ad7e0d3b1",
                "label": "LooksRare: Token Distributor"
            },
            {
                "address": "0xbcd7254a1d759efa08ec7c3291b2e85c5dcc12ce",
                "label": "LooksRare: Fee Sharing"
            }
        ]
    },
    "trace": {
        "accountLabels": null,
        "dataMap": {
            "-1": {
                "invocation": {
                    "address": "0xb2a1901c9cd4c148adc726f4a79c54a41513580a",
                    "callData": "",
                    "decodedMethod": null,
                    "errorInfo": "",
                    "fromAddress": "",
                    "gasUsed": 0,
                    "id": -1,
                    "methodDecoded": false,
                    "operation": "",
                    "output": "",
                    "revert": false,
                    "revertMessage": "",
                    "selector": "",
                    "status": false,
                    "value": ""
                },
                "nodeType": 0
            },
            "0": {
                "invocation": {
                    "address": "0xbcd7254a1d759efa08ec7c3291b2e85c5dcc12ce",
                    "callData": "0x000000000000000000000000000000000000000000000015af1d78b58c4000000000000000000000000000000000000000000000000000000000000000000000",
                    "decodedMethod": {
                        "callParams": [
                            {
                                "name": "amount",
                                "type": "uint256",
                                "value": "400,000,000,000,000,000,000"
                            },
                            {
                                "name": "claimRewardToken",
                                "type": "bool",
                                "value": false
                            }
                        ],
                        "constructorArguments": "",
                        "name": "deposit",
                        "returnParams": [],
                        "signature": "deposit(uint256,bool)"
                    },
                    "errorInfo": "",
                    "fromAddress": "0xb2a1901c9cd4c148adc726f4a79c54a41513580a",
                    "gasUsed": 171224,
                    "id": 0,
                    "methodDecoded": true,
                    "operation": "CALL",
                    "output": "",
                    "revert": false,
                    "revertMessage": "",
                    "selector": "0x9a408321",
                    "status": true,
                    "value": "0"
                },
                "nodeType": 0
            },
            "1": {
                "invocation": {
                    "address": "0x465a790b428268196865a3ae2648481ad7e0d3b1",
                    "callData": "0x",
                    "decodedMethod": {
                        "callParams": [],
                        "constructorArguments": "",
                        "name": "harvestAndCompound",
                        "returnParams": [],
                        "signature": "harvestAndCompound()"
                    },
                    "errorInfo": "",
                    "fromAddress": "0xbcd7254a1d759efa08ec7c3291b2e85c5dcc12ce",
                    "gasUsed": 67560,
                    "id": 1,
                    "methodDecoded": true,
                    "operation": "CALL",
                    "output": "",
                    "revert": false,
                    "revertMessage": "",
                    "selector": "0x2a4e051b",
                    "status": true,
                    "value": "0"
                },
                "nodeType": 0
            },
            "10": {
                "event": {
                    "contract": "0xf4d2888d29d722226fafa5d9b24f9164c092421e",
                    "decodedLog": {
                        "name": "Approval",
                        "params": [
                            {
                                "name": "owner",
                                "type": "address",
                                "value": "0xb2a1901c9cd4c148adc726f4a79c54a41513580a"
                            },
                            {
                                "name": "spender",
                                "type": "address",
                                "value": "0xbcd7254a1d759efa08ec7c3291b2e85c5dcc12ce"
                            },
                            {
                                "decimalAvailable": true,
                                "name": "value",
                                "type": "uint256",
                                "value": "115,792,089,237,316,195,423,570,985,008,687,907,853,269,984,665,640,564,039,057,584,007,913,129,639,935"
                            }
                        ],
                        "signature": "Approval(address,address,uint256)"
                    },
                    "id": 10,
                    "logData": "0xffffffffffffffffffffffffffffffffffffffffffffffea50e2874a73bfffff",
                    "logDecoded": true,
                    "operation": "EVENT",
                    "revert": false,
                    "status": true,
                    "topics": [
                        "0x8c5be1e5ebec7d5bd14f71427d1e84f3dd0314c0f7b2291e5b200ac8c7c3b925",
                        "0x000000000000000000000000b2a1901c9cd4c148adc726f4a79c54a41513580a",
                        "0x000000000000000000000000bcd7254a1d759efa08ec7c3291b2e85c5dcc12ce"
                    ]
                },
                "nodeType": 1
            },
            "11": {
                "invocation": {
                    "address": "0xf4d2888d29d722226fafa5d9b24f9164c092421e",
                    "callData": "0x000000000000000000000000bcd7254a1d759efa08ec7c3291b2e85c5dcc12ce000000000000000000000000465a790b428268196865a3ae2648481ad7e0d3b1",
                    "decodedMethod": {
                        "callParams": [
                            {
                                "name": "owner",
                                "type": "address",
                                "value": "0xbcd7254a1d759efa08ec7c3291b2e85c5dcc12ce"
                            },
                            {
                                "name": "spender",
                                "type": "address",
                                "value": "0x465a790b428268196865a3ae2648481ad7e0d3b1"
                            }
                        ],
                        "constructorArguments": "",
                        "name": "allowance",
                        "returnParams": [
                            {
                                "decimalAvailable": true,
                                "name": "",
                                "type": "uint256",
                                "value": "115,792,089,237,316,195,423,570,985,008,687,907,853,269,984,665,640,527,881,874,449,069,702,268,466,959"
                            }
                        ],
                        "signature": "allowance(address,address)"
                    },
                    "errorInfo": "",
                    "fromAddress": "0xbcd7254a1d759efa08ec7c3291b2e85c5dcc12ce",
                    "gasUsed": 2756,
                    "id": 11,
                    "methodDecoded": true,
                    "operation": "STATICCALL",
                    "output": "0xffffffffffffffffffffffffffffffffffffffffffe217557d9c23832222370f",
                    "revert": false,
                    "revertMessage": "",
                    "selector": "0xdd62ed3e",
                    "status": true,
                    "value": "0"
                },
                "nodeType": 0
            },
            "12": {
                "invocation": {
                    "address": "0x465a790b428268196865a3ae2648481ad7e0d3b1",
                    "callData": "0x000000000000000000000000000000000000000000000015af1d78b58c400000",
                    "decodedMethod": {
                        "callParams": [
                            {
                                "name": "amount",
                                "type": "uint256",
                                "value": "400,000,000,000,000,000,000"
                            }
                        ],
                        "constructorArguments": "",
                        "name": "deposit",
                        "returnParams": [],
                        "signature": "deposit(uint256)"
                    },
                    "errorInfo": "",
                    "fromAddress": "0xbcd7254a1d759efa08ec7c3291b2e85c5dcc12ce",
                    "gasUsed": 17593,
                    "id": 12,
                    "methodDecoded": true,
                    "operation": "CALL",
                    "output": "",
                    "revert": false,
                    "revertMessage": "",
                    "selector": "0xb6b55f25",
                    "status": true,
                    "value": "0"
                },
                "nodeType": 0
            },
            "13": {
                "invocation": {
                    "address": "0xf4d2888d29d722226fafa5d9b24f9164c092421e",
                    "callData": "0x000000000000000000000000bcd7254a1d759efa08ec7c3291b2e85c5dcc12ce000000000000000000000000465a790b428268196865a3ae2648481ad7e0d3b1000000000000000000000000000000000000000000000015af1d78b58c400000",
                    "decodedMethod": {
                        "callParams": [
                            {
                                "name": "sender",
                                "type": "address",
                                "value": "0xbcd7254a1d759efa08ec7c3291b2e85c5dcc12ce"
                            },
                            {
                                "name": "recipient",
                                "type": "address",
                                "value": "0x465a790b428268196865a3ae2648481ad7e0d3b1"
                            },
                            {
                                "decimalAvailable": true,
                                "name": "amount",
                                "type": "uint256",
                                "value": "400,000,000,000,000,000,000"
                            }
                        ],
                        "constructorArguments": "",
                        "name": "transferFrom",
                        "returnParams": [
                            {
                                "name": "",
                                "type": "bool",
                                "value": true
                            }
                        ],
                        "signature": "transferFrom(address,address,uint256)"
                    },
                    "errorInfo": "",
                    "fromAddress": "0x465a790b428268196865a3ae2648481ad7e0d3b1",
                    "gasUsed": 8435,
                    "id": 13,
                    "methodDecoded": true,
                    "operation": "CALL",
                    "output": "0x0000000000000000000000000000000000000000000000000000000000000001",
                    "revert": false,
                    "revertMessage": "",
                    "selector": "0x23b872dd",
                    "status": true,
                    "value": "0"
                },
                "nodeType": 0
            },
            "14": {
                "event": {
                    "contract": "0xf4d2888d29d722226fafa5d9b24f9164c092421e",
                    "decodedLog": {
                        "name": "Transfer",
                        "params": [
                            {
                                "name": "from",
                                "type": "address",
                                "value": "0xbcd7254a1d759efa08ec7c3291b2e85c5dcc12ce"
                            },
                            {
                                "name": "to",
                                "type": "address",
                                "value": "0x465a790b428268196865a3ae2648481ad7e0d3b1"
                            },
                            {
                                "decimalAvailable": true,
                                "name": "value",
                                "type": "uint256",
                                "value": "400,000,000,000,000,000,000"
                            }
                        ],
                        "signature": "Transfer(address,address,uint256)"
                    },
                    "id": 14,
                    "logData": "0x000000000000000000000000000000000000000000000015af1d78b58c400000",
                    "logDecoded": true,
                    "operation": "EVENT",
                    "revert": false,
                    "status": true,
                    "topics": [
                        "0xddf252ad1be2c89b69c2b068fc378daa952ba7f163c4a11628f55a4df523b3ef",
                        "0x000000000000000000000000bcd7254a1d759efa08ec7c3291b2e85c5dcc12ce",
                        "0x000000000000000000000000465a790b428268196865a3ae2648481ad7e0d3b1"
                    ]
                },
                "nodeType": 1
            },
            "15": {
                "event": {
                    "contract": "0xf4d2888d29d722226fafa5d9b24f9164c092421e",
                    "decodedLog": {
                        "name": "Approval",
                        "params": [
                            {
                                "name": "owner",
                                "type": "address",
                                "value": "0xbcd7254a1d759efa08ec7c3291b2e85c5dcc12ce"
                            },
                            {
                                "name": "spender",
                                "type": "address",
                                "value": "0x465a790b428268196865a3ae2648481ad7e0d3b1"
                            },
                            {
                                "decimalAvailable": true,
                                "name": "value",
                                "type": "uint256",
                                "value": "115,792,089,237,316,195,423,570,985,008,687,907,853,269,984,665,640,527,881,474,449,069,702,268,466,959"
                            }
                        ],
                        "signature": "Approval(address,address,uint256)"
                    },
                    "id": 15,
                    "logData": "0xffffffffffffffffffffffffffffffffffffffffffe2173fce7eaacd95e2370f",
                    "logDecoded": true,
                    "operation": "EVENT",
                    "revert": false,
                    "status": true,
                    "topics": [
                        "0x8c5be1e5ebec7d5bd14f71427d1e84f3dd0314c0f7b2291e5b200ac8c7c3b925",
                        "0x000000000000000000000000bcd7254a1d759efa08ec7c3291b2e85c5dcc12ce",
                        "0x000000000000000000000000465a790b428268196865a3ae2648481ad7e0d3b1"
                    ]
                },
                "nodeType": 1
            },
            "16": {
                "event": {
                    "contract": "0x465a790b428268196865a3ae2648481ad7e0d3b1",
                    "decodedLog": {
                        "name": "Deposit",
                        "params": [
                            {
                                "name": "user",
                                "type": "address",
                                "value": "0xbcd7254a1d759efa08ec7c3291b2e85c5dcc12ce"
                            },
                            {
                                "name": "amount",
                                "type": "uint256",
                                "value": "400,000,000,000,000,000,000"
                            },
                            {
                                "name": "harvestedAmount",
                                "type": "uint256",
                                "value": "0"
                            }
                        ],
                        "signature": "Deposit(address,uint256,uint256)"
                    },
                    "id": 16,
                    "logData": "0x000000000000000000000000000000000000000000000015af1d78b58c4000000000000000000000000000000000000000000000000000000000000000000000",
                    "logDecoded": true,
                    "operation": "EVENT",
                    "revert": false,
                    "status": true,
                    "topics": [
                        "0x90890809c654f11d6e72a28fa60149770a0d11ec6c92319d6ceb2bb0a4ea1a15",
                        "0x000000000000000000000000bcd7254a1d759efa08ec7c3291b2e85c5dcc12ce"
                    ]
                },
                "nodeType": 1
            },
            "17": {
                "event": {
                    "contract": "0xbcd7254a1d759efa08ec7c3291b2e85c5dcc12ce",
                    "decodedLog": {
                        "name": "Deposit",
                        "params": [
                            {
                                "name": "user",
                                "type": "address",
                                "value": "0xb2a1901c9cd4c148adc726f4a79c54a41513580a"
                            },
                            {
                                "name": "amount",
                                "type": "uint256",
                                "value": "400,000,000,000,000,000,000"
                            },
                            {
                                "name": "harvestedAmount",
                                "type": "uint256",
                                "value": "0"
                            }
                        ],
                        "signature": "Deposit(address,uint256,uint256)"
                    },
                    "id": 17,
                    "logData": "0x000000000000000000000000000000000000000000000015af1d78b58c4000000000000000000000000000000000000000000000000000000000000000000000",
                    "logDecoded": true,
                    "operation": "EVENT",
                    "revert": false,
                    "status": true,
                    "topics": [
                        "0x90890809c654f11d6e72a28fa60149770a0d11ec6c92319d6ceb2bb0a4ea1a15",
                        "0x000000000000000000000000b2a1901c9cd4c148adc726f4a79c54a41513580a"
                    ]
                },
                "nodeType": 1
            },
            "2": {
                "invocation": {
                    "address": "0xf4d2888d29d722226fafa5d9b24f9164c092421e",
                    "callData": "0x000000000000000000000000465a790b428268196865a3ae2648481ad7e0d3b10000000000000000000000000000000000000000000000147dcdc54529a80000",
                    "decodedMethod": {
                        "callParams": [
                            {
                                "name": "account",
                                "type": "address",
                                "value": "0x465a790b428268196865a3ae2648481ad7e0d3b1"
                            },
                            {
                                "name": "amount",
                                "type": "uint256",
                                "value": "378,000,000,000,000,000,000"
                            }
                        ],
                        "constructorArguments": "",
                        "name": "mint",
                        "returnParams": [
                            {
                                "name": "status",
                                "type": "bool",
                                "value": true
                            }
                        ],
                        "signature": "mint(address,uint256)"
                    },
                    "errorInfo": "",
                    "fromAddress": "0x465a790b428268196865a3ae2648481ad7e0d3b1",
                    "gasUsed": 14981,
                    "id": 2,
                    "methodDecoded": true,
                    "operation": "CALL",
                    "output": "0x0000000000000000000000000000000000000000000000000000000000000001",
                    "revert": false,
                    "revertMessage": "",
                    "selector": "0x40c10f19",
                    "status": true,
                    "value": "0"
                },
                "nodeType": 0
            },
            "3": {
                "event": {
                    "contract": "0xf4d2888d29d722226fafa5d9b24f9164c092421e",
                    "decodedLog": {
                        "name": "Transfer",
                        "params": [
                            {
                                "name": "from",
                                "type": "address",
                                "value": "0x0000000000000000000000000000000000000000"
                            },
                            {
                                "name": "to",
                                "type": "address",
                                "value": "0x465a790b428268196865a3ae2648481ad7e0d3b1"
                            },
                            {
                                "decimalAvailable": true,
                                "name": "value",
                                "type": "uint256",
                                "value": "378,000,000,000,000,000,000"
                            }
                        ],
                        "signature": "Transfer(address,address,uint256)"
                    },
                    "id": 3,
                    "logData": "0x0000000000000000000000000000000000000000000000147dcdc54529a80000",
                    "logDecoded": true,
                    "operation": "EVENT",
                    "revert": false,
                    "status": true,
                    "topics": [
                        "0xddf252ad1be2c89b69c2b068fc378daa952ba7f163c4a11628f55a4df523b3ef",
                        "0x0000000000000000000000000000000000000000000000000000000000000000",
                        "0x000000000000000000000000465a790b428268196865a3ae2648481ad7e0d3b1"
                    ]
                },
                "nodeType": 1
            },
            "4": {
                "invocation": {
                    "address": "0xf4d2888d29d722226fafa5d9b24f9164c092421e",
                    "callData": "0x000000000000000000000000fec3069df398faaf689c559151e41fa8036c82030000000000000000000000000000000000000000000000423ea81d9107580000",
                    "decodedMethod": {
                        "callParams": [
                            {
                                "name": "account",
                                "type": "address",
                                "value": "0xfec3069df398faaf689c559151e41fa8036c8203"
                            },
                            {
                                "name": "amount",
                                "type": "uint256",
                                "value": "1,222,000,000,000,000,000,000"
                            }
                        ],
                        "constructorArguments": "",
                        "name": "mint",
                        "returnParams": [
                            {
                                "name": "status",
                                "type": "bool",
                                "value": true
                            }
                        ],
                        "signature": "mint(address,uint256)"
                    },
                    "errorInfo": "",
                    "fromAddress": "0x465a790b428268196865a3ae2648481ad7e0d3b1",
                    "gasUsed": 8181,
                    "id": 4,
                    "methodDecoded": true,
                    "operation": "CALL",
                    "output": "0x0000000000000000000000000000000000000000000000000000000000000001",
                    "revert": false,
                    "revertMessage": "",
                    "selector": "0x40c10f19",
                    "status": true,
                    "value": "0"
                },
                "nodeType": 0
            },
            "5": {
                "event": {
                    "contract": "0xf4d2888d29d722226fafa5d9b24f9164c092421e",
                    "decodedLog": {
                        "name": "Transfer",
                        "params": [
                            {
                                "name": "from",
                                "type": "address",
                                "value": "0x0000000000000000000000000000000000000000"
                            },
                            {
                                "name": "to",
                                "type": "address",
                                "value": "0xfec3069df398faaf689c559151e41fa8036c8203"
                            },
                            {
                                "decimalAvailable": true,
                                "name": "value",
                                "type": "uint256",
                                "value": "1,222,000,000,000,000,000,000"
                            }
                        ],
                        "signature": "Transfer(address,address,uint256)"
                    },
                    "id": 5,
                    "logData": "0x0000000000000000000000000000000000000000000000423ea81d9107580000",
                    "logDecoded": true,
                    "operation": "EVENT",
                    "revert": false,
                    "status": true,
                    "topics": [
                        "0xddf252ad1be2c89b69c2b068fc378daa952ba7f163c4a11628f55a4df523b3ef",
                        "0x0000000000000000000000000000000000000000000000000000000000000000",
                        "0x000000000000000000000000fec3069df398faaf689c559151e41fa8036c8203"
                    ]
                },
                "nodeType": 1
            },
            "6": {
                "event": {
                    "contract": "0x465a790b428268196865a3ae2648481ad7e0d3b1",
                    "decodedLog": {
                        "name": "Compound",
                        "params": [
                            {
                                "name": "user",
                                "type": "address",
                                "value": "0xbcd7254a1d759efa08ec7c3291b2e85c5dcc12ce"
                            },
                            {
                                "name": "harvestedAmount",
                                "type": "uint256",
                                "value": "377,999,986,255,289,054,120"
                            }
                        ],
                        "signature": "Compound(address,uint256)"
                    },
                    "id": 6,
                    "logData": "0x0000000000000000000000000000000000000000000000147dcdb8c4f90af3a8",
                    "logDecoded": true,
                    "operation": "EVENT",
                    "revert": false,
                    "status": true,
                    "topics": [
                        "0x169f1815ebdea059aac3bb00ec9a9594c7a5ffcb64a17e8392b5d84909a14556",
                        "0x000000000000000000000000bcd7254a1d759efa08ec7c3291b2e85c5dcc12ce"
                    ]
                },
                "nodeType": 1
            },
            "7": {
                "invocation": {
                    "address": "0x465a790b428268196865a3ae2648481ad7e0d3b1",
                    "callData": "0x000000000000000000000000bcd7254a1d759efa08ec7c3291b2e85c5dcc12ce",
                    "decodedMethod": {
                        "callParams": [
                            {
                                "name": "",
                                "type": "address",
                                "value": "0xbcd7254a1d759efa08ec7c3291b2e85c5dcc12ce"
                            }
                        ],
                        "constructorArguments": "",
                        "name": "userInfo",
                        "returnParams": [
                            {
                                "name": "amount",
                                "type": "uint256",
                                "value": "30,915,473,551,785,485,627,502,589"
                            },
                            {
                                "name": "rewardDebt",
                                "type": "uint256",
                                "value": "1,144,923,444,062,092,230,428,649"
                            }
                        ],
                        "signature": "userInfo(address)"
                    },
                    "errorInfo": "",
                    "fromAddress": "0xbcd7254a1d759efa08ec7c3291b2e85c5dcc12ce",
                    "gasUsed": 679,
                    "id": 7,
                    "methodDecoded": true,
                    "operation": "STATICCALL",
                    "output": "0x00000000000000000000000000000000000000000019929b2dee05fda2af2ffd00000000000000000000000000000000000000000000f2726c9ce616222887e9",
                    "revert": false,
                    "revertMessage": "",
                    "selector": "0x1959a002",
                    "status": true,
                    "value": "0"
                },
                "nodeType": 0
            },
            "8": {
                "invocation": {
                    "address": "0xf4d2888d29d722226fafa5d9b24f9164c092421e",
                    "callData": "0x000000000000000000000000b2a1901c9cd4c148adc726f4a79c54a41513580a000000000000000000000000bcd7254a1d759efa08ec7c3291b2e85c5dcc12ce000000000000000000000000000000000000000000000015af1d78b58c400000",
                    "decodedMethod": {
                        "callParams": [
                            {
                                "name": "sender",
                                "type": "address",
                                "value": "0xb2a1901c9cd4c148adc726f4a79c54a41513580a"
                            },
                            {
                                "name": "recipient",
                                "type": "address",
                                "value": "0xbcd7254a1d759efa08ec7c3291b2e85c5dcc12ce"
                            },
                            {
                                "decimalAvailable": true,
                                "name": "amount",
                                "type": "uint256",
                                "value": "400,000,000,000,000,000,000"
                            }
                        ],
                        "constructorArguments": "",
                        "name": "transferFrom",
                        "returnParams": [
                            {
                                "name": "",
                                "type": "bool",
                                "value": true
                            }
                        ],
                        "signature": "transferFrom(address,address,uint256)"
                    },
                    "errorInfo": "",
                    "fromAddress": "0xbcd7254a1d759efa08ec7c3291b2e85c5dcc12ce",
                    "gasUsed": 37135,
                    "id": 8,
                    "methodDecoded": true,
                    "operation": "CALL",
                    "output": "0x0000000000000000000000000000000000000000000000000000000000000001",
                    "revert": false,
                    "revertMessage": "",
                    "selector": "0x23b872dd",
                    "status": true,
                    "value": "0"
                },
                "nodeType": 0
            },
            "9": {
                "event": {
                    "contract": "0xf4d2888d29d722226fafa5d9b24f9164c092421e",
                    "decodedLog": {
                        "name": "Transfer",
                        "params": [
                            {
                                "name": "from",
                                "type": "address",
                                "value": "0xb2a1901c9cd4c148adc726f4a79c54a41513580a"
                            },
                            {
                                "name": "to",
                                "type": "address",
                                "value": "0xbcd7254a1d759efa08ec7c3291b2e85c5dcc12ce"
                            },
                            {
                                "decimalAvailable": true,
                                "name": "value",
                                "type": "uint256",
                                "value": "400,000,000,000,000,000,000"
                            }
                        ],
                        "signature": "Transfer(address,address,uint256)"
                    },
                    "id": 9,
                    "logData": "0x000000000000000000000000000000000000000000000015af1d78b58c400000",
                    "logDecoded": true,
                    "operation": "EVENT",
                    "revert": false,
                    "status": true,
                    "topics": [
                        "0xddf252ad1be2c89b69c2b068fc378daa952ba7f163c4a11628f55a4df523b3ef",
                        "0x000000000000000000000000b2a1901c9cd4c148adc726f4a79c54a41513580a",
                        "0x000000000000000000000000bcd7254a1d759efa08ec7c3291b2e85c5dcc12ce"
                    ]
                },
                "nodeType": 1
            }
        },
        "gasFlame": [
            {
                "children": [
                    {
                        "children": [
                            {
                                "children": [],
                                "depth": 0,
                                "name": "Initial Gas",
                                "value": 21404
                            },
                            {
                                "children": [
                                    {
                                        "children": [
                                            {
                                                "children": [],
                                                "depth": 2,
                                                "name": "mint",
                                                "value": 14981
                                            },
                                            {
                                                "children": [],
                                                "depth": 2,
                                                "name": "mint",
                                                "value": 8181
                                            }
                                        ],
                                        "depth": 1,
                                        "name": "harvestAndCompound",
                                        "value": 67560
                                    },
                                    {
                                        "children": [],
                                        "depth": 1,
                                        "name": "userInfo",
                                        "value": 679
                                    },
                                    {
                                        "children": [],
                                        "depth": 1,
                                        "name": "transferFrom",
                                        "value": 37135
                                    },
                                    {
                                        "children": [],
                                        "depth": 1,
                                        "name": "allowance",
                                        "value": 2756
                                    },
                                    {
                                        "children": [
                                            {
                                                "children": [],
                                                "depth": 2,
                                                "name": "transferFrom",
                                                "value": 8435
                                            }
                                        ],
                                        "depth": 1,
                                        "name": "deposit",
                                        "value": 17593
                                    }
                                ],
                                "depth": 0,
                                "name": "Executed Gas",
                                "value": 182920
                            }
                        ],
                        "depth": -1,
                        "name": "Actual Gas Used",
                        "value": 171224
                    },
                    {
                        "children": [],
                        "depth": -1,
                        "name": "Refunded Gas",
                        "value": 33100
                    }
                ],
                "depth": -2,
                "name": "Total Gas",
                "value": 204324
            }
        ],
        "isConfirmed": true,
        "mainTrace": [
            {
                "children": [
                    {
                        "children": [
                            {
                                "children": [
                                    {
                                        "children": [
                                            {
                                                "children": [],
                                                "depth": 3,
                                                "id": 3,
                                                "order": 3
                                            }
                                        ],
                                        "depth": 2,
                                        "id": 2,
                                        "order": 2
                                    },
                                    {
                                        "children": [
                                            {
                                                "children": [],
                                                "depth": 3,
                                                "id": 5,
                                                "order": 5
                                            }
                                        ],
                                        "depth": 2,
                                        "id": 4,
                                        "order": 4
                                    },
                                    {
                                        "children": [],
                                        "depth": 2,
                                        "id": 6,
                                        "order": 6
                                    }
                                ],
                                "depth": 1,
                                "id": 1,
                                "order": 1
                            },
                            {
                                "children": [],
                                "depth": 1,
                                "id": 7,
                                "order": 7
                            },
                            {
                                "children": [
                                    {
                                        "children": [],
                                        "depth": 2,
                                        "id": 9,
                                        "order": 9
                                    },
                                    {
                                        "children": [],
                                        "depth": 2,
                                        "id": 10,
                                        "order": 10
                                    }
                                ],
                                "depth": 1,
                                "id": 8,
                                "order": 8
                            },
                            {
                                "children": [],
                                "depth": 1,
                                "id": 11,
                                "order": 11
                            },
                            {
                                "children": [
                                    {
                                        "children": [
                                            {
                                                "children": [],
                                                "depth": 3,
                                                "id": 14,
                                                "order": 14
                                            },
                                            {
                                                "children": [],
                                                "depth": 3,
                                                "id": 15,
                                                "order": 15
                                            }
                                        ],
                                        "depth": 2,
                                        "id": 13,
                                        "order": 13
                                    },
                                    {
                                        "children": [],
                                        "depth": 2,
                                        "id": 16,
                                        "order": 16
                                    }
                                ],
                                "depth": 1,
                                "id": 12,
                                "order": 12
                            },
                            {
                                "children": [],
                                "depth": 1,
                                "id": 17,
                                "order": 17
                            }
                        ],
                        "depth": 0,
                        "id": 0,
                        "order": 0
                    }
                ],
                "depth": -1,
                "id": -1,
                "order": -1
            }
        ],
        "mainTraceNodeCount": 18,
        "parentIdMap": {
            "0": -1,
            "1": 0,
            "10": 8,
            "11": 0,
            "12": 0,
            "13": 12,
            "14": 13,
            "15": 13,
            "16": 12,
            "17": 0,
            "2": 1,
            "3": 2,
            "4": 1,
            "5": 4,
            "6": 1,
            "7": 0,
            "8": 0,
            "9": 8
        },
        "tidyTrace": [
            {
                "children": [
                    {
                        "children": [
                            {
                                "children": [
                                    {
                                        "children": [
                                            {
                                                "children": [],
                                                "depth": 3,
                                                "id": 3,
                                                "order": 3
                                            }
                                        ],
                                        "depth": 2,
                                        "id": 2,
                                        "order": 2
                                    },
                                    {
                                        "children": [
                                            {
                                                "children": [],
                                                "depth": 3,
                                                "id": 5,
                                                "order": 5
                                            }
                                        ],
                                        "depth": 2,
                                        "id": 4,
                                        "order": 4
                                    },
                                    {
                                        "children": [],
                                        "depth": 2,
                                        "id": 6,
                                        "order": 6
                                    }
                                ],
                                "depth": 1,
                                "id": 1,
                                "order": 1
                            },
                            {
                                "children": [
                                    {
                                        "children": [],
                                        "depth": 2,
                                        "id": 9,
                                        "order": 9
                                    },
                                    {
                                        "children": [],
                                        "depth": 2,
                                        "id": 10,
                                        "order": 10
                                    }
                                ],
                                "depth": 1,
                                "id": 8,
                                "order": 8
                            },
                            {
                                "children": [
                                    {
                                        "children": [
                                            {
                                                "children": [],
                                                "depth": 3,
                                                "id": 14,
                                                "order": 14
                                            },
                                            {
                                                "children": [],
                                                "depth": 3,
                                                "id": 15,
                                                "order": 15
                                            }
                                        ],
                                        "depth": 2,
                                        "id": 13,
                                        "order": 13
                                    },
                                    {
                                        "children": [],
                                        "depth": 2,
                                        "id": 16,
                                        "order": 16
                                    }
                                ],
                                "depth": 1,
                                "id": 12,
                                "order": 12
                            },
                            {
                                "children": [],
                                "depth": 1,
                                "id": 17,
                                "order": 17
                            }
                        ],
                        "depth": 0,
                        "id": 0,
                        "order": 0
                    }
                ],
                "depth": -1,
                "id": -1,
                "order": -1
            }
        ],
        "tidyTraceNodeCount": 16
    },
    "state_change": {
        "stateChanges": [
            {
                "address": "0x465a790b428268196865a3ae2648481ad7e0d3b1",
                "erc": "",
                "slots": [
                    {
                        "current": "0x000000000000000000000000000000000000000000000000000000089f65e4cb",
                        "key": "0x0000000000000000000000000000000000000000000000000000000000000001",
                        "prev": "0x000000000000000000000000000000000000000000000000000000089eab52ef"
                    },
                    {
                        "current": "0x0000000000000000000000000000000000000000000000000000000000d54e90",
                        "key": "0x0000000000000000000000000000000000000000000000000000000000000004",
                        "prev": "0x0000000000000000000000000000000000000000000000000000000000d54e8e"
                    },
                    {
                        "current": "0x0000000000000000000000000000000000000000001992b0dd0b7eb32eef2ffd",
                        "key": "0x14d86d882020e7696234d76dd350cf0e83b51cfee9349fc784bcfe552a0ff997",
                        "prev": "0x000000000000000000000000000000000000000000199286b0204d38a9a43c55"
                    },
                    {
                        "current": "0x0000000000000000000000000000000000000000001992b0dd0b7eb32eef2ffd",
                        "key": "0x0000000000000000000000000000000000000000000000000000000000000007",
                        "prev": "0x000000000000000000000000000000000000000000199286b0204d38a9a43c55"
                    },
                    {
                        "current": "0x00000000000000000000000000000000000000000000f2733a315e680f9e33e9",
                        "key": "0x14d86d882020e7696234d76dd350cf0e83b51cfee9349fc784bcfe552a0ff998",
                        "prev": "0x00000000000000000000000000000000000000000000f25d2c8946514b7be2bd"
                    }
                ],
                "storageVariables": [
                    {
                        "name": "accTokenPerShare",
                        "type": "uint256",
                        "value": {
                            "current": "37033993419",
                            "prev": "37021766383",
                            "typeTag": 1
                        }
                    },
                    {
                        "name": "lastRewardBlock",
                        "type": "uint256",
                        "value": {
                            "current": "13979280",
                            "prev": "13979278",
                            "typeTag": 1
                        }
                    },
                    {
                        "name": "userInfo",
                        "type": "mapping(address => struct TokenDistributor.UserInfo)",
                        "value": {
                            "pairs": [
                                {
                                    "key": "0xbcd7254a1d759efa08ec7c3291b2e85c5dcc12ce",
                                    "value": {
                                        "fields": [
                                            {
                                                "name": "amount",
                                                "type": "uint256",
                                                "value": {
                                                    "current": "30915873551785485627502589",
                                                    "prev": "30915095551799230338448469",
                                                    "typeTag": 1
                                                }
                                            },
                                            {
                                                "name": "rewardDebt",
                                                "type": "uint256",
                                                "value": {
                                                    "current": "1144938257659459830428649",
                                                    "prev": "1144531445226833580909245",
                                                    "typeTag": 1
                                                }
                                            }
                                        ],
                                        "typeTag": 3
                                    }
                                }
                            ],
                            "typeTag": 4
                        }
                    },
                    {
                        "name": "totalAmountStaked",
                        "type": "uint256",
                        "value": {
                            "current": "30915873551785485627502589",
                            "prev": "30915095551799230338448469",
                            "typeTag": 1
                        }
                    }
                ]
            },
            {
                "address": "0xbcd7254a1d759efa08ec7c3291b2e85c5dcc12ce",
                "erc": "",
                "slots": [
                    {
                        "current": "0x000000000000000000000000000000000000000000000014e54d242715977dfe",
                        "key": "0x92aaffb31dd7e6c7307207ad0646f7ec2cd493ead65df869a488c5903d49318b",
                        "prev": "0x0000000000000000000000000000000000000000000000000000000000000000"
                    },
                    {
                        "current": "0x00000000000000000000000000000000000000000018a4aeb0fedad929adebaa",
                        "key": "0x0000000000000000000000000000000000000000000000000000000000000007",
                        "prev": "0x00000000000000000000000000000000000000000018a499cbb1b6b214166dac"
                    }
                ],
                "storageVariables": [
                    {
                        "name": "userInfo",
                        "type": "mapping(address => struct FeeSharingSystem.UserInfo)",
                        "value": {
                            "pairs": [
                                {
                                    "key": "0xb2a1901c9cd4c148adc726f4a79c54a41513580a",
                                    "value": {
                                        "fields": [
                                            {
                                                "name": "shares",
                                                "type": "uint256",
                                                "value": {
                                                    "current": "385457783832367824382",
                                                    "prev": "0",
                                                    "typeTag": 1
                                                }
                                            }
                                        ],
                                        "typeTag": 3
                                    }
                                }
                            ],
                            "typeTag": 4
                        }
                    },
                    {
                        "name": "totalShares",
                        "type": "uint256",
                        "value": {
                            "current": "29791910261282368471821226",
                            "prev": "29791524803498536103996844",
                            "typeTag": 1
                        }
                    }
                ]
            },
            {
                "address": "0xf4d2888d29d722226fafa5d9b24f9164c092421e",
                "erc": "ERC-20",
                "slots": [
                    {
                        "current": "0x000000000000000000000000000000000000000000a6efdc8bc2ea72d6000000",
                        "key": "0x0000000000000000000000000000000000000000000000000000000000000002",
                        "prev": "0x000000000000000000000000000000000000000000a6ef85cf4d079ca5000000"
                    },
                    {
                        "current": "0x0000000000000000000000000000000000000000001992b0dd4471bde6aa118d",
                        "key": "0xf9db3ec2cc649b37899e1cf8e82e082e6efc86880c0e0b9ef0761d4d2c4c2550",
                        "prev": "0x000000000000000000000000000000000000000000199286b05933c330c2118d"
                    },
                    {
                        "current": "0x0000000000000000000000000000000000000000000125718cb2f86e87d00000",
                        "key": "0x12bb8a29ddc78a92a9e173ed7ebcebf61f67802276dc0e4e233c9e6b55872ab2",
                        "prev": "0x00000000000000000000000000000000000000000001252f4e0adadd80780000"
                    },
                    {
                        "current": "0x0000000000000000000000000000000000000000000000000000000000000000",
                        "key": "0x137a9b8d4dd2b9de0d9b70bfddbcf1a93491304daa5a8f3c1f6d2695ce8ca9d8",
                        "prev": "0x000000000000000000000000000000000000000000000015af1d78b58c400000"
                    },
                    {
                        "current": "0xffffffffffffffffffffffffffffffffffffffffffffffea50e2874a73bfffff",
                        "key": "0xf0adace729c56dd4f7946fe5328b77dfd2255f900b22a636b5b370a28d1873c2",
                        "prev": "0xffffffffffffffffffffffffffffffffffffffffffffffffffffffffffffffff"
                    },
                    {
                        "current": "0xffffffffffffffffffffffffffffffffffffffffffe2173fce7eaacd95e2370f",
                        "key": "0xf17e8f800c848c4ae09fdb0d39e40b949b1e661e4a5da189e5c89f28b4fa3ebc",
                        "prev": "0xffffffffffffffffffffffffffffffffffffffffffe217557d9c23832222370f"
                    }
                ],
                "storageVariables": [
                    {
                        "name": "_balances",
                        "type": "mapping(address => uint256)",
                        "value": {
                            "pairs": [
                                {
                                    "key": "0x465a790b428268196865a3ae2648481ad7e0d3b1",
                                    "value": {
                                        "current": "30915873567815311680999821",
                                        "prev": "30915095567815311680999821",
                                        "typeTag": 1
                                    }
                                },
                                {
                                    "key": "0xb2a1901c9cd4c148adc726f4a79c54a41513580a",
                                    "value": {
                                        "current": "0",
                                        "prev": "400000000000000000000",
                                        "typeTag": 1
                                    }
                                },
                                {
                                    "key": "0xfec3069df398faaf689c559151e41fa8036c8203",
                                    "value": {
                                        "current": "1385748000000000000000000",
                                        "prev": "1384526000000000000000000",
                                        "typeTag": 1
                                    }
                                }
                            ],
                            "typeTag": 4
                        }
                    },
                    {
                        "name": "_allowances",
                        "type": "mapping(address => mapping(address => uint256))",
                        "value": {
                            "pairs": [
                                {
                                    "key": "0xb2a1901c9cd4c148adc726f4a79c54a41513580a",
                                    "value": {
                                        "pairs": [
                                            {
                                                "key": "0xbcd7254a1d759efa08ec7c3291b2e85c5dcc12ce",
                                                "value": {
                                                    "current": "115792089237316195423570985008687907853269984665640564039057584007913129639935",
                                                    "prev": "115792089237316195423570985008687907853269984665640564039457584007913129639935",
                                                    "typeTag": 1
                                                }
                                            }
                                        ],
                                        "typeTag": 4
                                    }
                                },
                                {
                                    "key": "0xbcd7254a1d759efa08ec7c3291b2e85c5dcc12ce",
                                    "value": {
                                        "pairs": [
                                            {
                                                "key": "0x465a790b428268196865a3ae2648481ad7e0d3b1",
                                                "value": {
                                                    "current": "115792089237316195423570985008687907853269984665640527881474449069702268466959",
                                                    "prev": "115792089237316195423570985008687907853269984665640527881874449069702268466959",
                                                    "typeTag": 1
                                                }
                                            }
                                        ],
                                        "typeTag": 4
                                    }
                                }
                            ],
                            "typeTag": 4
                        }
                    },
                    {
                        "name": "_totalSupply",
                        "type": "uint256",
                        "value": {
                            "current": "201814400000000000000000000",
                            "prev": "201812800000000000000000000",
                            "typeTag": 1
                        }
                    }
                ]
            }
        ]
    }
}