{
    "balance_change": {
        "balanceChanges": [
            {
                "account": "0xe9abc4786afc9ef19584865d06d9f2f974421047",
                "assets": [
                    {
                        "address": "0x55296f69f40ea6d20e478533c15a6b08b654e758",
                        "amount": "59,823.125",
                        "iconUrl": "https://assets.blocksec.com/icon/7bc04c0a07452ed3beb53475459ba8ed14d941a84b0676c751cd07375af76003.png",
                        "isERC1155": false,
                        "isERC721": false,
                        "sign": false,
                        "value": "1927.954484"
                    }
                ]
            },
            {
                "account": "0xa1d8d972560c2f8144af871db508f0b0b10a3fbf",
                "assets": [
                    {
                        "address": "0x55296f69f40ea6d20e478533c15a6b08b654e758",
                        "amount": "59,823.125",
                        "iconUrl": "https://assets.blocksec.com/icon/7bc04c0a07452ed3beb53475459ba8ed14d941a84b0676c751cd07375af76003.png",
                        "isERC1155": false,
                        "isERC721": false,
                        "sign": true,
                        "value": "1927.954484"
                    }
                ]
            }
        ]
    },
    "profile": {
        "basic_info": {
            "baseFee": "79.197531279",
            "blockNumber": 13197551,
            "callData": "0xa9059cbb000000000000000000000000a1d8d972560c2f8144af871db508f0b0b10a3fbf000000000000000000000000000000000000000000000cab04a27effe6488000",
            "debugEnable": true,
            "errorInfo": "",
            "eventCount": 1,
            "feeRecipient": "0x1ad91ee08f21be3de0ba2ba6918e714da6b45836",
            "formatValue": "0",
            "gasLimit": 103500,
            "gasPrice": "100",
            "gasUsed": 30867,
            "intTxnCount": 0,
            "internalRevert": false,
            "internalRevertMessage": "",
            "isContractCreation": false,
            "isFlashloan": false,
            "maxFee": "",
            "nonce": 2,
            "overwritedBlockNumber": -1,
            "priorityFee": "",
            "receiver": "0x55296f69f40ea6d20e478533c15a6b08b654e758",
            "revertMessage": "",
            "sender": "0xe9abc4786afc9ef19584865d06d9f2f974421047",
            "simulationEnable": true,
            "sourceTxnHash": "0x489024edc924921e0f06963d1baaa47d2575c4ff6bcefabb2eba9e1d3d2c0fc1",
            "status": true,
            "timestamp": "2021-09-10T10:50:53Z",
            "transactionFee": "0.0030867",
            "txnHash": "0x489024edc924921e0f06963d1baaa47d2575c4ff6bcefabb2eba9e1d3d2c0fc1",
            "txnIndex": 25,
            "type": 0,
            "value": "0"
        },
        "fund_flow": [
            {
                "amount": "59,823.125",
                "from": "0xe9abc4786afc9ef19584865d06d9f2f974421047",
                "id": 1,
                "isERC1155": false,
                "isERC721": false,
                "isReverted": false,
                "order": 1,
                "to": "0xa1d8d972560c2f8144af871db508f0b0b10a3fbf",
                "token": "0x55296f69f40ea6d20e478533c15a6b08b654e758"
            }
        ],
        "token_infos": [
            {
                "address": "0x55296f69f40ea6d20e478533c15a6b08b654e758",
                "decimals": 18
            },
            {
                "address": "0xc02aaa39b223fe8d0a0e5c4f27ead9083c756cc2",
                "decimals": 18
            },
            {
                "address": "0xeeeeeeeeeeeeeeeeeeeeeeeeeeeeeeeeeeeeeeee",
                "decimals": 18
            }
        ]
    },
    "address_label": {
        "labels": [
            {
                "address": "0x0000000000000000000000000000000000000002",
                "label": "Precompiled"
            },
            {
                "address": "0x0000000000000000000000000000000000000003",
                "label": "Precompiled"
            },
            {
                "address": "0x0000000000000000000000000000000000000004",
                "label": "Precompiled"
            },
            {
                "address": "0xeeeeeeeeeeeeeeeeeeeeeeeeeeeeeeeeeeeeeeee",
                "label": "Ether"
            },
            {
                "address": "0xa1d8d972560c2f8144af871db508f0b0b10a3fbf",
                "label": "KuCoin 3"
            },
            {
                "address": "0x55296f69f40ea6d20e478533c15a6b08b654e758",
                "label": "XYO Foundation: XYO Token"
            },
            {
                "address": "0xe9abc4786afc9ef19584865d06d9f2f974421047",
                "label": "KUCOIN"
            },
            {
                "address": "0x0000000000000000000000000000000000000001",
                "label": "Precompiled"
            }
        ]
    },
    "trace": {
        "accountLabels": null,
        "dataMap": {
            "-1": {
                "invocation": {
                    "address": "0xe9abc4786afc9ef19584865d06d9f2f974421047",
                    "callData": "",
                    "decodedMethod": null,
                    "errorInfo": "",
                    "fromAddress": "",
                    "gasUsed": 0,
                    "id": -1,
                    "methodDecoded": false,
                    "operation": "",
                    "output": "",
                    "revert": false,
                    "revertMessage": "",
                    "selector": "",
                    "status": false,
                    "value": ""
                },
                "nodeType": 0
            },
            "0": {
                "invocation": {
                    "address": "0x55296f69f40ea6d20e478533c15a6b08b654e758",
                    "callData": "0x000000000000000000000000a1d8d972560c2f8144af871db508f0b0b10a3fbf000000000000000000000000000000000000000000000cab04a27effe6488000",
                    "decodedMethod": {
                        "callParams": [
                            {
                                "name": "_to",
                                "type": "address",
                                "value": "0xa1d8d972560c2f8144af871db508f0b0b10a3fbf"
                            },
                            {
                                "decimalAvailable": true,
                                "name": "_value",
                                "type": "uint256",
                                "value": "59,823,125,000,000,000,000,000"
                            }
                        ],
                        "constructorArguments": "",
                        "name": "transfer",
                        "returnParams": [],
                        "signature": "transfer(address,uint256)"
                    },
                    "errorInfo": "",
                    "fromAddress": "0xe9abc4786afc9ef19584865d06d9f2f974421047",
                    "gasUsed": 30867,
                    "id": 0,
                    "methodDecoded": true,
                    "operation": "CALL",
                    "output": "",
                    "revert": false,
                    "revertMessage": "",
                    "selector": "0xa9059cbb",
                    "status": true,
                    "value": "0"
                },
                "nodeType": 0
            },
            "1": {
                "event": {
                    "contract": "0x55296f69f40ea6d20e478533c15a6b08b654e758",
                    "decodedLog": {
                        "name": "Transfer",
                        "params": [
                            {
                                "name": "from",
                                "type": "address",
                                "value": "0xe9abc4786afc9ef19584865d06d9f2f974421047"
                            },
                            {
                                "name": "to",
                                "type": "address",
                                "value": "0xa1d8d972560c2f8144af871db508f0b0b10a3fbf"
                            },
                            {
                                "decimalAvailable": true,
                                "name": "value",
                                "type": "uint256",
                                "value": "59,823,125,000,000,000,000,000"
                            }
                        ],
                        "signature": "Transfer(address,address,uint256)"
                    },
                    "id": 1,
                    "logData": "0x000000000000000000000000000000000000000000000cab04a27effe6488000",
                    "logDecoded": true,
                    "operation": "EVENT",
                    "revert": false,
                    "status": true,
                    "topics": [
                        "0xddf252ad1be2c89b69c2b068fc378daa952ba7f163c4a11628f55a4df523b3ef",
                        "0x000000000000000000000000e9abc4786afc9ef19584865d06d9f2f974421047",
                        "0x000000000000000000000000a1d8d972560c2f8144af871db508f0b0b10a3fbf"
                    ]
                },
                "nodeType": 1
            }
        },
        "gasFlame": [
            {
                "children": [
                    {
                        "children": [
                            {
                                "children": [],
                                "depth": 0,
                                "name": "Initial Gas",
                                "value": 21668
                            },
                            {
                                "children": [],
                                "depth": 0,
                                "name": "Executed Gas",
                                "value": 13999
                            }
                        ],
                        "depth": -1,
                        "name": "Actual Gas Used",
                        "value": 30867
                    },
                    {
                        "children": [],
                        "depth": -1,
                        "name": "Refunded Gas",
                        "value": 4800
                    }
                ],
                "depth": -2,
                "name": "Total Gas",
                "value": 35667
            }
        ],
        "isConfirmed": true,
        "mainTrace": [
            {
                "children": [
                    {
                        "children": [
                            {
                                "children": [],
                                "depth": 1,
                                "id": 1,
                                "order": 1
                            }
                        ],
                        "depth": 0,
                        "id": 0,
                        "order": 0
                    }
                ],
                "depth": -1,
                "id": -1,
                "order": -1
            }
        ],
        "mainTraceNodeCount": 2,
        "parentIdMap": {
            "0": -1,
            "1": 0
        },
        "tidyTrace": [
            {
                "children": [
                    {
                        "children": [
                            {
                                "children": [],
                                "depth": 1,
                                "id": 1,
                                "order": 1
                            }
                        ],
                        "depth": 0,
                        "id": 0,
                        "order": 0
                    }
                ],
                "depth": -1,
                "id": -1,
                "order": -1
            }
        ],
        "tidyTraceNodeCount": 2
    },
    "state_change": {
        "stateChanges": [
            {
                "address": "0x55296f69f40ea6d20e478533c15a6b08b654e758",
                "erc": "",
                "slots": [
                    {
                        "current": "0x0000000000000000000000000000000000000000000000000000000000000000",
                        "key": "0x2126f99fcac2fdc48f101d02472c5903c2566d80127f4eb1341a70a977667523",
                        "prev": "0x000000000000000000000000000000000000000000000cab04a27effe6488000"
                    },
                    {
                        "current": "0x000000000000000000000000000000000000000000a21f950c702c4f36654ec1",
                        "key": "0x4950a5d957030b57c46a70228e4af3161049c431f90dfb61eaf93f123f84c32d",
                        "prev": "0x000000000000000000000000000000000000000000a212ea07cdad4f501ccec1"
                    }
                ],
                "storageVariables": [
                    {
                        "name": "balanceOf",
                        "type": "mapping(address => uint256)",
                        "value": {
                            "pairs": [
                                {
                                    "key": "0xa1d8d972560c2f8144af871db508f0b0b10a3fbf",
                                    "value": {
                                        "current": "195995125599670912600592065",
                                        "prev": "195935302474670912600592065",
                                        "typeTag": 1
                                    }
                                },
                                {
                                    "key": "0xe9abc4786afc9ef19584865d06d9f2f974421047",
                                    "value": {
                                        "current": "0",
                                        "prev": "59823125000000000000000",
                                        "typeTag": 1
                                    }
                                }
                            ],
                            "typeTag": 4
                        }
                    }
                ]
            }
        ]
    }
}