{
    "balance_change": {
        "balanceChanges": [
            {
                "account": "0xd0139da307c7b4fad39ad8452cbebdb47af8036e",
                "assets": [
                    {
                        "address": "0x49ceb57714000f18f3749cf2d130e135f9c473a4",
                        "amount": "375",
                        "iconUrl": "",
                        "isERC1155": false,
                        "isERC721": false,
                        "sign": false,
                        "value": ""
                    }
                ]
            },
            {
                "account": "0xa2ad672fd09dab65294fddf4c2641094771e3a5f",
                "assets": [
                    {
                        "address": "0x49ceb57714000f18f3749cf2d130e135f9c473a4",
                        "amount": "375",
                        "iconUrl": "",
                        "isERC1155": false,
                        "isERC721": false,
                        "sign": true,
                        "value": ""
                    }
                ]
            }
        ]
    },
    "profile": {
        "basic_info": {
            "baseFee": "",
            "blockNumber": 7647171,
            "callData": "0xa9059cbb000000000000000000000000a2ad672fd09dab65294fddf4c2641094771e3a5f000000000000000000000000000000000000000000000014542ba12a337c0000",
            "debugEnable": true,
            "errorInfo": "",
            "eventCount": 1,
            "feeRecipient": "0x5a0b54d5dc17e0aadc383d2db43b0a0d3e029c4c",
            "formatValue": "0",
            "gasLimit": 100000,
            "gasPrice": "6",
            "gasUsed": 22071,
            "intTxnCount": 0,
            "internalRevert": false,
            "internalRevertMessage": "",
            "isContractCreation": false,
            "isFlashloan": false,
            "maxFee": "",
            "nonce": 5,
            "overwritedBlockNumber": -1,
            "priorityFee": "",
            "receiver": "0x49ceb57714000f18f3749cf2d130e135f9c473a4",
            "revertMessage": "",
            "sender": "0xd0139da307c7b4fad39ad8452cbebdb47af8036e",
            "simulationEnable": true,
            "sourceTxnHash": "0x49767cf8a952aace60a0a59f844e0112b6cb48e81200097cc248f74918b52c67",
            "status": true,
            "timestamp": "2019-04-27T03:50:47Z",
            "transactionFee": "0.000132426",
            "txnHash": "0x49767cf8a952aace60a0a59f844e0112b6cb48e81200097cc248f74918b52c67",
            "txnIndex": 26,
            "type": 0,
            "value": "0"
        },
        "fund_flow": [
            {
                "amount": "375",
                "from": "0xd0139da307c7b4fad39ad8452cbebdb47af8036e",
                "id": 1,
                "isERC1155": false,
                "isERC721": false,
                "isReverted": false,
                "order": 1,
                "to": "0xa2ad672fd09dab65294fddf4c2641094771e3a5f",
                "token": "0x49ceb57714000f18f3749cf2d130e135f9c473a4"
            }
        ],
        "token_infos": [
            {
                "address": "0x49ceb57714000f18f3749cf2d130e135f9c473a4",
                "decimals": 18
            },
            {
                "address": "0xc02aaa39b223fe8d0a0e5c4f27ead9083c756cc2",
                "decimals": 18
            },
            {
                "address": "0xeeeeeeeeeeeeeeeeeeeeeeeeeeeeeeeeeeeeeeee",
                "decimals": 18
            }
        ]
    },
    "address_label": {
        "labels": [
            {
                "address": "0x0000000000000000000000000000000000000004",
                "label": "Precompiled"
            },
            {
                "address": "0xeeeeeeeeeeeeeeeeeeeeeeeeeeeeeeeeeeeeeeee",
                "label": "Ether"
            },
            {
                "address": "0x49ceb57714000f18f3749cf2d130e135f9c473a4",
                "label": "Asobi Coin: ABX Token"
            },
            {
                "address": "0x0000000000000000000000000000000000000001",
                "label": "Precompiled"
            },
            {
                "address": "0x0000000000000000000000000000000000000002",
                "label": "Precompiled"
            },
            {
                "address": "0x0000000000000000000000000000000000000003",
                "label": "Precompiled"
            }
        ]
    },
    "trace": {
        "accountLabels": null,
        "dataMap": {
            "-1": {
                "invocation": {
                    "address": "0xd0139da307c7b4fad39ad8452cbebdb47af8036e",
                    "callData": "",
                    "decodedMethod": null,
                    "errorInfo": "",
                    "fromAddress": "",
                    "gasUsed": 0,
                    "id": -1,
                    "methodDecoded": false,
                    "operation": "",
                    "output": "",
                    "revert": false,
                    "revertMessage": "",
                    "selector": "",
                    "status": false,
                    "value": ""
                },
                "nodeType": 0
            },
            "0": {
                "invocation": {
                    "address": "0x49ceb57714000f18f3749cf2d130e135f9c473a4",
                    "callData": "0x000000000000000000000000a2ad672fd09dab65294fddf4c2641094771e3a5f000000000000000000000000000000000000000000000014542ba12a337c0000",
                    "decodedMethod": {
                        "callParams": [
                            {
                                "name": "_to",
                                "type": "address",
                                "value": "0xa2ad672fd09dab65294fddf4c2641094771e3a5f"
                            },
                            {
                                "decimalAvailable": true,
                                "name": "_value",
                                "type": "uint256",
                                "value": "375,000,000,000,000,000,000"
                            }
                        ],
                        "constructorArguments": "",
                        "name": "transfer",
                        "returnParams": [
                            {
                                "name": "",
                                "type": "bool",
                                "value": true
                            }
                        ],
                        "signature": "transfer(address,uint256)"
                    },
                    "errorInfo": "",
                    "fromAddress": "0xd0139da307c7b4fad39ad8452cbebdb47af8036e",
                    "gasUsed": 22071,
                    "id": 0,
                    "methodDecoded": true,
                    "operation": "CALL",
                    "output": "0x0000000000000000000000000000000000000000000000000000000000000001",
                    "revert": false,
                    "revertMessage": "",
                    "selector": "0xa9059cbb",
                    "status": true,
                    "value": "0"
                },
                "nodeType": 0
            },
            "1": {
                "event": {
                    "contract": "0x49ceb57714000f18f3749cf2d130e135f9c473a4",
                    "decodedLog": {
                        "name": "Transfer",
                        "params": [
                            {
                                "name": "from",
                                "type": "address",
                                "value": "0xd0139da307c7b4fad39ad8452cbebdb47af8036e"
                            },
                            {
                                "name": "to",
                                "type": "address",
                                "value": "0xa2ad672fd09dab65294fddf4c2641094771e3a5f"
                            },
                            {
                                "decimalAvailable": true,
                                "name": "value",
                                "type": "uint256",
                                "value": "375,000,000,000,000,000,000"
                            }
                        ],
                        "signature": "Transfer(address,address,uint256)"
                    },
                    "id": 1,
                    "logData": "0x000000000000000000000000000000000000000000000014542ba12a337c0000",
                    "logDecoded": true,
                    "operation": "EVENT",
                    "revert": false,
                    "status": true,
                    "topics": [
                        "0xddf252ad1be2c89b69c2b068fc378daa952ba7f163c4a11628f55a4df523b3ef",
                        "0x000000000000000000000000d0139da307c7b4fad39ad8452cbebdb47af8036e",
                        "0x000000000000000000000000a2ad672fd09dab65294fddf4c2641094771e3a5f"
                    ]
                },
                "nodeType": 1
            }
        },
        "gasFlame": [
            {
                "children": [
                    {
                        "children": [
                            {
                                "children": [],
                                "depth": 0,
                                "name": "Initial Gas",
                                "value": 23256
                            },
                            {
                                "children": [],
                                "depth": 0,
                                "name": "Executed Gas",
                                "value": 13815
                            }
                        ],
                        "depth": -1,
                        "name": "Actual Gas Used",
                        "value": 22071
                    },
                    {
                        "children": [],
                        "depth": -1,
                        "name": "Refunded Gas",
                        "value": 15000
                    }
                ],
                "depth": -2,
                "name": "Total Gas",
                "value": 37071
            }
        ],
        "isConfirmed": true,
        "mainTrace": [
            {
                "children": [
                    {
                        "children": [
                            {
                                "children": [],
                                "depth": 1,
                                "id": 1,
                                "order": 1
                            }
                        ],
                        "depth": 0,
                        "id": 0,
                        "order": 0
                    }
                ],
                "depth": -1,
                "id": -1,
                "order": -1
            }
        ],
        "mainTraceNodeCount": 2,
        "parentIdMap": {
            "0": -1,
            "1": 0
        },
        "tidyTrace": [
            {
                "children": [
                    {
                        "children": [
                            {
                                "children": [],
                                "depth": 1,
                                "id": 1,
                                "order": 1
                            }
                        ],
                        "depth": 0,
                        "id": 0,
                        "order": 0
                    }
                ],
                "depth": -1,
                "id": -1,
                "order": -1
            }
        ],
        "tidyTraceNodeCount": 2
    },
    "state_change": {
        "stateChanges": [
            {
                "address": "0x49ceb57714000f18f3749cf2d130e135f9c473a4",
                "erc": "ERC-20",
                "slots": [
                    {
                        "current": "0x0000000000000000000000000000000000000000000000000000000000000000",
                        "key": "0x505f5c7e5b91238d213a80567a152c3305e9d1981f3587350443789dbfc143c5",
                        "prev": "0x000000000000000000000000000000000000000000000014542ba12a337c0000"
                    },
                    {
                        "current": "0x0000000000000000000000000000000000000000000024d20dbe7846d9e00000",
                        "key": "0x2baa10f70fc47c28fc03ed283e3f220e483b32bf260e868e43271e4bbd9add6f",
                        "prev": "0x0000000000000000000000000000000000000000000024bdb992d71ca6640000"
                    }
                ],
                "storageVariables": [
                    {
                        "name": "balances",
                        "type": "mapping(address => uint256)",
                        "value": {
                            "pairs": [
                                {
                                    "key": "0xa2ad672fd09dab65294fddf4c2641094771e3a5f",
                                    "value": {
                                        "current": "173880000000000000000000",
                                        "prev": "173505000000000000000000",
                                        "typeTag": 1
                                    }
                                },
                                {
                                    "key": "0xd0139da307c7b4fad39ad8452cbebdb47af8036e",
                                    "value": {
                                        "current": "0",
                                        "prev": "375000000000000000000",
                                        "typeTag": 1
                                    }
                                }
                            ],
                            "typeTag": 4
                        }
                    }
                ]
            }
        ]
    }
}