{
    "balance_change": {
        "balanceChanges": [
            {
                "account": "0xa647478238f5a5bcf72803e888cafab75dceb834",
                "assets": [
                    {
                        "address": "0xba54621876dfca50d15705201a5c3b12949b2a79",
                        "amount": "100,000",
                        "iconUrl": "",
                        "isERC1155": false,
                        "isERC721": false,
                        "sign": false,
                        "value": ""
                    }
                ]
            },
            {
                "account": "0xf01c965a896ff31f3df7b4ed3144daf505bd7b53",
                "assets": [
                    {
                        "address": "0xba54621876dfca50d15705201a5c3b12949b2a79",
                        "amount": "100,000",
                        "iconUrl": "",
                        "isERC1155": false,
                        "isERC721": false,
                        "sign": true,
                        "value": ""
                    }
                ]
            }
        ]
    },
    "profile": {
        "basic_info": {
            "baseFee": "",
            "blockNumber": 3590455,
            "callData": "0xa9059cbb000000000000000000000000f01c965a896ff31f3df7b4ed3144daf505bd7b53000000000000000000000000000000000000000000000000000009184e72a000",
            "debugEnable": true,
            "errorInfo": "",
            "eventCount": 1,
            "feeRecipient": "0x73b8865eda227d6fffabc83c78124dea8c347fea",
            "formatValue": "0",
            "gasLimit": 151796,
            "gasPrice": "50",
            "gasUsed": 51795,
            "intTxnCount": 0,
            "internalRevert": false,
            "internalRevertMessage": "",
            "isContractCreation": false,
            "isFlashloan": false,
            "maxFee": "",
            "nonce": 463,
            "overwritedBlockNumber": -1,
            "priorityFee": "",
            "receiver": "0xba54621876dfca50d15705201a5c3b12949b2a79",
            "revertMessage": "",
            "sender": "0xa647478238f5a5bcf72803e888cafab75dceb834",
            "simulationEnable": true,
            "sourceTxnHash": "0x499703796ce42e886b2e26e88e613883354d49c12513701d714b1ee172483574",
            "status": true,
            "timestamp": "2017-04-24T05:19:32Z",
            "transactionFee": "0.00258975",
            "txnHash": "0x499703796ce42e886b2e26e88e613883354d49c12513701d714b1ee172483574",
            "txnIndex": 0,
            "type": 0,
            "value": "0"
        },
        "fund_flow": [
            {
                "amount": "100,000",
                "from": "0xa647478238f5a5bcf72803e888cafab75dceb834",
                "id": 1,
                "isERC1155": false,
                "isERC721": false,
                "isReverted": false,
                "order": 1,
                "to": "0xf01c965a896ff31f3df7b4ed3144daf505bd7b53",
                "token": "0xba54621876dfca50d15705201a5c3b12949b2a79"
            }
        ],
        "token_infos": [
            {
                "address": "0xba54621876dfca50d15705201a5c3b12949b2a79",
                "decimals": 8
            },
            {
                "address": "0xc02aaa39b223fe8d0a0e5c4f27ead9083c756cc2",
                "decimals": 18
            },
            {
                "address": "0xeeeeeeeeeeeeeeeeeeeeeeeeeeeeeeeeeeeeeeee",
                "decimals": 18
            }
        ]
    },
    "address_label": {
        "labels": [
            {
                "address": "0xba54621876dfca50d15705201a5c3b12949b2a79",
                "label": "URHOC"
            },
            {
                "address": "0x0000000000000000000000000000000000000001",
                "label": "Precompiled"
            },
            {
                "address": "0x0000000000000000000000000000000000000002",
                "label": "Precompiled"
            },
            {
                "address": "0x0000000000000000000000000000000000000003",
                "label": "Precompiled"
            },
            {
                "address": "0x0000000000000000000000000000000000000004",
                "label": "Precompiled"
            },
            {
                "address": "0xeeeeeeeeeeeeeeeeeeeeeeeeeeeeeeeeeeeeeeee",
                "label": "Ether"
            }
        ]
    },
    "trace": {
        "accountLabels": null,
        "dataMap": {
            "-1": {
                "invocation": {
                    "address": "0xa647478238f5a5bcf72803e888cafab75dceb834",
                    "callData": "",
                    "decodedMethod": null,
                    "errorInfo": "",
                    "fromAddress": "",
                    "gasUsed": 0,
                    "id": -1,
                    "methodDecoded": false,
                    "operation": "",
                    "output": "",
                    "revert": false,
                    "revertMessage": "",
                    "selector": "",
                    "status": false,
                    "value": ""
                },
                "nodeType": 0
            },
            "0": {
                "invocation": {
                    "address": "0xba54621876dfca50d15705201a5c3b12949b2a79",
                    "callData": "0x000000000000000000000000f01c965a896ff31f3df7b4ed3144daf505bd7b53000000000000000000000000000000000000000000000000000009184e72a000",
                    "decodedMethod": {
                        "callParams": [
                            {
                                "name": "_to",
                                "type": "address",
                                "value": "0xf01c965a896ff31f3df7b4ed3144daf505bd7b53"
                            },
                            {
                                "decimalAvailable": true,
                                "name": "_value",
                                "type": "uint256",
                                "value": "10,000,000,000,000"
                            }
                        ],
                        "constructorArguments": "",
                        "name": "transfer",
                        "returnParams": [],
                        "signature": "transfer(address,uint256)"
                    },
                    "errorInfo": "",
                    "fromAddress": "0xa647478238f5a5bcf72803e888cafab75dceb834",
                    "gasUsed": 51795,
                    "id": 0,
                    "methodDecoded": true,
                    "operation": "CALL",
                    "output": "",
                    "revert": false,
                    "revertMessage": "",
                    "selector": "0xa9059cbb",
                    "status": true,
                    "value": "0"
                },
                "nodeType": 0
            },
            "1": {
                "event": {
                    "contract": "0xba54621876dfca50d15705201a5c3b12949b2a79",
                    "decodedLog": {
                        "name": "Transfer",
                        "params": [
                            {
                                "name": "from",
                                "type": "address",
                                "value": "0xa647478238f5a5bcf72803e888cafab75dceb834"
                            },
                            {
                                "name": "to",
                                "type": "address",
                                "value": "0xf01c965a896ff31f3df7b4ed3144daf505bd7b53"
                            },
                            {
                                "decimalAvailable": true,
                                "name": "value",
                                "type": "uint256",
                                "value": "10,000,000,000,000"
                            }
                        ],
                        "signature": "Transfer(address,address,uint256)"
                    },
                    "id": 1,
                    "logData": "0x000000000000000000000000000000000000000000000000000009184e72a000",
                    "logDecoded": true,
                    "operation": "EVENT",
                    "revert": false,
                    "status": true,
                    "topics": [
                        "0xddf252ad1be2c89b69c2b068fc378daa952ba7f163c4a11628f55a4df523b3ef",
                        "0x000000000000000000000000a647478238f5a5bcf72803e888cafab75dceb834",
                        "0x000000000000000000000000f01c965a896ff31f3df7b4ed3144daf505bd7b53"
                    ]
                },
                "nodeType": 1
            }
        },
        "gasFlame": [
            {
                "children": [
                    {
                        "children": [
                            {
                                "children": [],
                                "depth": 0,
                                "name": "Initial Gas",
                                "value": 23128
                            },
                            {
                                "children": [],
                                "depth": 0,
                                "name": "Executed Gas",
                                "value": 28667
                            }
                        ],
                        "depth": -1,
                        "name": "Actual Gas Used",
                        "value": 51795
                    },
                    {
                        "children": [],
                        "depth": -1,
                        "name": "Refunded Gas",
                        "value": 0
                    }
                ],
                "depth": -2,
                "name": "Total Gas",
                "value": 51795
            }
        ],
        "isConfirmed": true,
        "mainTrace": [
            {
                "children": [
                    {
                        "children": [
                            {
                                "children": [],
                                "depth": 1,
                                "id": 1,
                                "order": 1
                            }
                        ],
                        "depth": 0,
                        "id": 0,
                        "order": 0
                    }
                ],
                "depth": -1,
                "id": -1,
                "order": -1
            }
        ],
        "mainTraceNodeCount": 2,
        "parentIdMap": {
            "0": -1,
            "1": 0
        },
        "tidyTrace": [
            {
                "children": [
                    {
                        "children": [
                            {
                                "children": [],
                                "depth": 1,
                                "id": 1,
                                "order": 1
                            }
                        ],
                        "depth": 0,
                        "id": 0,
                        "order": 0
                    }
                ],
                "depth": -1,
                "id": -1,
                "order": -1
            }
        ],
        "tidyTraceNodeCount": 2
    },
    "state_change": {
        "stateChanges": [
            {
                "address": "0xba54621876dfca50d15705201a5c3b12949b2a79",
                "erc": "",
                "slots": [
                    {
                        "current": "0x000000000000000000000000000000000000000000000000012f3dd44e56c800",
                        "key": "0xeba458ae3d51b52733d4762a4cff628969faf158aeb6189fc228dd2f7954a04d",
                        "prev": "0x000000000000000000000000000000000000000000000000012f46ec9cc96800"
                    },
                    {
                        "current": "0x000000000000000000000000000000000000000000000000000009184e72a000",
                        "key": "0xb569ff1b0686540f364248d830b432950dc3d52443f230bf52ab438b75500e90",
                        "prev": "0x0000000000000000000000000000000000000000000000000000000000000000"
                    }
                ],
                "storageVariables": []
            }
        ]
    }
}