{
    "balance_change": {
        "balanceChanges": [
            {
                "account": "0xa4cda1a3fb56acfceb5d74e29e659f2886a8f9c5",
                "assets": [
                    {
                        "address": "0xff8be4b22cedc440591dcb1e641eb2a0dd9d25a5",
                        "amount": "58,750",
                        "iconUrl": "",
                        "isERC1155": false,
                        "isERC721": false,
                        "sign": false,
                        "value": ""
                    }
                ]
            },
            {
                "account": "0x4542c767248ed522f78862dfbb6c8f0c616aa40a",
                "assets": [
                    {
                        "address": "0xff8be4b22cedc440591dcb1e641eb2a0dd9d25a5",
                        "amount": "58,750",
                        "iconUrl": "",
                        "isERC1155": false,
                        "isERC721": false,
                        "sign": true,
                        "value": ""
                    }
                ]
            }
        ]
    },
    "profile": {
        "basic_info": {
            "baseFee": "",
            "blockNumber": 8173794,
            "callData": "0xa9059cbb0000000000000000000000004542c767248ed522f78862dfbb6c8f0c616aa40a000000000000000000000000000000000000000000000c70d808a128d7380000",
            "debugEnable": true,
            "errorInfo": "",
            "eventCount": 1,
            "feeRecipient": "0x2a65aca4d5fc5b5c859090a6c34d164135398226",
            "formatValue": "0",
            "gasLimit": 88556,
            "gasPrice": "11",
            "gasUsed": 52371,
            "intTxnCount": 0,
            "internalRevert": false,
            "internalRevertMessage": "",
            "isContractCreation": false,
            "isFlashloan": false,
            "maxFee": "",
            "nonce": 464,
            "overwritedBlockNumber": -1,
            "priorityFee": "",
            "receiver": "0xff8be4b22cedc440591dcb1e641eb2a0dd9d25a5",
            "revertMessage": "",
            "sender": "0xa4cda1a3fb56acfceb5d74e29e659f2886a8f9c5",
            "simulationEnable": true,
            "sourceTxnHash": "0x49fd27374f340c18dd46c965189ac317d122bb4196738bf03798e837448e72b4",
            "status": true,
            "timestamp": "2019-07-18T09:15:28Z",
            "transactionFee": "0.000576081",
            "txnHash": "0x49fd27374f340c18dd46c965189ac317d122bb4196738bf03798e837448e72b4",
            "txnIndex": 103,
            "type": 0,
            "value": "0"
        },
        "fund_flow": [
            {
                "amount": "58,750",
                "from": "0xa4cda1a3fb56acfceb5d74e29e659f2886a8f9c5",
                "id": 1,
                "isERC1155": false,
                "isERC721": false,
                "isReverted": false,
                "order": 1,
                "to": "0x4542c767248ed522f78862dfbb6c8f0c616aa40a",
                "token": "0xff8be4b22cedc440591dcb1e641eb2a0dd9d25a5"
            }
        ],
        "token_infos": [
            {
                "address": "0xc02aaa39b223fe8d0a0e5c4f27ead9083c756cc2",
                "decimals": 18
            },
            {
                "address": "0xff8be4b22cedc440591dcb1e641eb2a0dd9d25a5",
                "decimals": 18
            },
            {
                "address": "0xeeeeeeeeeeeeeeeeeeeeeeeeeeeeeeeeeeeeeeee",
                "decimals": 18
            }
        ]
    },
    "address_label": {
        "labels": [
            {
                "address": "0x0000000000000000000000000000000000000002",
                "label": "Precompiled"
            },
            {
                "address": "0x0000000000000000000000000000000000000003",
                "label": "Precompiled"
            },
            {
                "address": "0x0000000000000000000000000000000000000004",
                "label": "Precompiled"
            },
            {
                "address": "0xeeeeeeeeeeeeeeeeeeeeeeeeeeeeeeeeeeeeeeee",
                "label": "Ether"
            },
            {
                "address": "0xff8be4b22cedc440591dcb1e641eb2a0dd9d25a5",
                "label": "Uranus: URAC Token"
            },
            {
                "address": "0x0000000000000000000000000000000000000001",
                "label": "Precompiled"
            }
        ]
    },
    "trace": {
        "accountLabels": null,
        "dataMap": {
            "-1": {
                "invocation": {
                    "address": "0xa4cda1a3fb56acfceb5d74e29e659f2886a8f9c5",
                    "callData": "",
                    "decodedMethod": null,
                    "errorInfo": "",
                    "fromAddress": "",
                    "gasUsed": 0,
                    "id": -1,
                    "methodDecoded": false,
                    "operation": "",
                    "output": "",
                    "revert": false,
                    "revertMessage": "",
                    "selector": "",
                    "status": false,
                    "value": ""
                },
                "nodeType": 0
            },
            "0": {
                "invocation": {
                    "address": "0xff8be4b22cedc440591dcb1e641eb2a0dd9d25a5",
                    "callData": "0x0000000000000000000000004542c767248ed522f78862dfbb6c8f0c616aa40a000000000000000000000000000000000000000000000c70d808a128d7380000",
                    "decodedMethod": {
                        "callParams": [
                            {
                                "name": "_to",
                                "type": "address",
                                "value": "0x4542c767248ed522f78862dfbb6c8f0c616aa40a"
                            },
                            {
                                "decimalAvailable": true,
                                "name": "_value",
                                "type": "uint256",
                                "value": "58,750,000,000,000,000,000,000"
                            }
                        ],
                        "constructorArguments": "",
                        "name": "transfer",
                        "returnParams": [
                            {
                                "name": "",
                                "type": "bool",
                                "value": true
                            }
                        ],
                        "signature": "transfer(address,uint256)"
                    },
                    "errorInfo": "",
                    "fromAddress": "0xa4cda1a3fb56acfceb5d74e29e659f2886a8f9c5",
                    "gasUsed": 52371,
                    "id": 0,
                    "methodDecoded": true,
                    "operation": "CALL",
                    "output": "0x0000000000000000000000000000000000000000000000000000000000000001",
                    "revert": false,
                    "revertMessage": "",
                    "selector": "0xa9059cbb",
                    "status": true,
                    "value": "0"
                },
                "nodeType": 0
            },
            "1": {
                "event": {
                    "contract": "0xff8be4b22cedc440591dcb1e641eb2a0dd9d25a5",
                    "decodedLog": {
                        "name": "Transfer",
                        "params": [
                            {
                                "name": "from",
                                "type": "address",
                                "value": "0xa4cda1a3fb56acfceb5d74e29e659f2886a8f9c5"
                            },
                            {
                                "name": "to",
                                "type": "address",
                                "value": "0x4542c767248ed522f78862dfbb6c8f0c616aa40a"
                            },
                            {
                                "decimalAvailable": true,
                                "name": "value",
                                "type": "uint256",
                                "value": "58,750,000,000,000,000,000,000"
                            }
                        ],
                        "signature": "Transfer(address,address,uint256)"
                    },
                    "id": 1,
                    "logData": "0x000000000000000000000000000000000000000000000c70d808a128d7380000",
                    "logDecoded": true,
                    "operation": "EVENT",
                    "revert": false,
                    "status": true,
                    "topics": [
                        "0xddf252ad1be2c89b69c2b068fc378daa952ba7f163c4a11628f55a4df523b3ef",
                        "0x000000000000000000000000a4cda1a3fb56acfceb5d74e29e659f2886a8f9c5",
                        "0x0000000000000000000000004542c767248ed522f78862dfbb6c8f0c616aa40a"
                    ]
                },
                "nodeType": 1
            }
        },
        "gasFlame": [
            {
                "children": [
                    {
                        "children": [
                            {
                                "children": [],
                                "depth": 0,
                                "name": "Initial Gas",
                                "value": 23320
                            },
                            {
                                "children": [],
                                "depth": 0,
                                "name": "Executed Gas",
                                "value": 29051
                            }
                        ],
                        "depth": -1,
                        "name": "Actual Gas Used",
                        "value": 52371
                    },
                    {
                        "children": [],
                        "depth": -1,
                        "name": "Refunded Gas",
                        "value": 0
                    }
                ],
                "depth": -2,
                "name": "Total Gas",
                "value": 52371
            }
        ],
        "isConfirmed": true,
        "mainTrace": [
            {
                "children": [
                    {
                        "children": [
                            {
                                "children": [],
                                "depth": 1,
                                "id": 1,
                                "order": 1
                            }
                        ],
                        "depth": 0,
                        "id": 0,
                        "order": 0
                    }
                ],
                "depth": -1,
                "id": -1,
                "order": -1
            }
        ],
        "mainTraceNodeCount": 2,
        "parentIdMap": {
            "0": -1,
            "1": 0
        },
        "tidyTrace": [
            {
                "children": [
                    {
                        "children": [
                            {
                                "children": [],
                                "depth": 1,
                                "id": 1,
                                "order": 1
                            }
                        ],
                        "depth": 0,
                        "id": 0,
                        "order": 0
                    }
                ],
                "depth": -1,
                "id": -1,
                "order": -1
            }
        ],
        "tidyTraceNodeCount": 2
    },
    "state_change": {
        "stateChanges": [
            {
                "address": "0xff8be4b22cedc440591dcb1e641eb2a0dd9d25a5",
                "erc": "ERC-20",
                "slots": [
                    {
                        "current": "0x0000000000000000000000000000000000000000000031c3602284a35ce00000",
                        "key": "0x2292b926ed3eb651c86a50748bc83201d5b63e13674440698ec8c83668cf3431",
                        "prev": "0x000000000000000000000000000000000000000000003e34382b25cc34180000"
                    },
                    {
                        "current": "0x000000000000000000000000000000000000000000000c70d808a128d7380000",
                        "key": "0xa2424ce7b3c99d3e16ea797942e79484877b9fc03c293c90193dd542d9585de1",
                        "prev": "0x0000000000000000000000000000000000000000000000000000000000000000"
                    }
                ],
                "storageVariables": [
                    {
                        "name": "balances",
                        "type": "mapping(address => uint256)",
                        "value": {
                            "pairs": [
                                {
                                    "key": "0x4542c767248ed522f78862dfbb6c8f0c616aa40a",
                                    "value": {
                                        "current": "58750000000000000000000",
                                        "prev": "0",
                                        "typeTag": 1
                                    }
                                },
                                {
                                    "key": "0xa4cda1a3fb56acfceb5d74e29e659f2886a8f9c5",
                                    "value": {
                                        "current": "235000000000000000000000",
                                        "prev": "293750000000000000000000",
                                        "typeTag": 1
                                    }
                                }
                            ],
                            "typeTag": 4
                        }
                    }
                ]
            }
        ]
    }
}