{
    "balance_change": {
        "balanceChanges": [
            {
                "account": "0x0681d8db095565fe8a346fa0277bffde9c0edbbf",
                "assets": [
                    {
                        "address": "0xbf2179859fc6d5bee9bf9158632dc51678a4100e",
                        "amount": "22,407.3291",
                        "iconUrl": "https://assets.blocksec.com/icon/e06cfc226becfcbb2c2d25dc6e028dc10b89f10fe9f1a23070d5cb6aa75abf54.png",
                        "isERC1155": false,
                        "isERC721": false,
                        "sign": false,
                        "value": ""
                    }
                ]
            },
            {
                "account": "0xf4f5dfc21e36da84001be2aa09fe2c87231ba666",
                "assets": [
                    {
                        "address": "0xbf2179859fc6d5bee9bf9158632dc51678a4100e",
                        "amount": "22,407.3291",
                        "iconUrl": "https://assets.blocksec.com/icon/e06cfc226becfcbb2c2d25dc6e028dc10b89f10fe9f1a23070d5cb6aa75abf54.png",
                        "isERC1155": false,
                        "isERC721": false,
                        "sign": true,
                        "value": ""
                    }
                ]
            }
        ]
    },
    "profile": {
        "basic_info": {
            "baseFee": "",
            "blockNumber": 6671560,
            "callData": "0xa9059cbb000000000000000000000000f4f5dfc21e36da84001be2aa09fe2c87231ba6660000000000000000000000000000000000000000000004beb42899551550c000",
            "debugEnable": true,
            "errorInfo": "",
            "eventCount": 1,
            "feeRecipient": "0x5a0b54d5dc17e0aadc383d2db43b0a0d3e029c4c",
            "formatValue": "0",
            "gasLimit": 75280,
            "gasPrice": "30",
            "gasUsed": 37640,
            "intTxnCount": 0,
            "internalRevert": false,
            "internalRevertMessage": "",
            "isContractCreation": false,
            "isFlashloan": false,
            "maxFee": "",
            "nonce": 1074447,
            "overwritedBlockNumber": -1,
            "priorityFee": "",
            "receiver": "0xbf2179859fc6d5bee9bf9158632dc51678a4100e",
            "revertMessage": "",
            "sender": "0x0681d8db095565fe8a346fa0277bffde9c0edbbf",
            "simulationEnable": true,
            "sourceTxnHash": "0x496a7675cdc2817571612712dc01283d15c47e6224e98355ce27ad6cfd50bb54",
            "status": true,
            "timestamp": "2018-11-09T09:28:26Z",
            "transactionFee": "0.0011292",
            "txnHash": "0x496a7675cdc2817571612712dc01283d15c47e6224e98355ce27ad6cfd50bb54",
            "txnIndex": 6,
            "type": 0,
            "value": "0"
        },
        "fund_flow": [
            {
                "amount": "22,407.3291",
                "from": "0x0681d8db095565fe8a346fa0277bffde9c0edbbf",
                "id": 1,
                "isERC1155": false,
                "isERC721": false,
                "isReverted": false,
                "order": 1,
                "to": "0xf4f5dfc21e36da84001be2aa09fe2c87231ba666",
                "token": "0xbf2179859fc6d5bee9bf9158632dc51678a4100e"
            }
        ],
        "token_infos": [
            {
                "address": "0xc02aaa39b223fe8d0a0e5c4f27ead9083c756cc2",
                "decimals": 18
            },
            {
                "address": "0xeeeeeeeeeeeeeeeeeeeeeeeeeeeeeeeeeeeeeeee",
                "decimals": 18
            },
            {
                "address": "0xbf2179859fc6d5bee9bf9158632dc51678a4100e",
                "decimals": 18
            }
        ]
    },
    "address_label": {
        "labels": [
            {
                "address": "0x0000000000000000000000000000000000000004",
                "label": "Precompiled"
            },
            {
                "address": "0xeeeeeeeeeeeeeeeeeeeeeeeeeeeeeeeeeeeeeeee",
                "label": "Ether"
            },
            {
                "address": "0x0681d8db095565fe8a346fa0277bffde9c0edbbf",
                "label": "Binance 4"
            },
            {
                "address": "0xbf2179859fc6d5bee9bf9158632dc51678a4100e",
                "label": "Aelf: ELF Token"
            },
            {
                "address": "0x0000000000000000000000000000000000000001",
                "label": "Precompiled"
            },
            {
                "address": "0x0000000000000000000000000000000000000002",
                "label": "Precompiled"
            },
            {
                "address": "0x0000000000000000000000000000000000000003",
                "label": "Precompiled"
            }
        ]
    },
    "trace": {
        "accountLabels": null,
        "dataMap": {
            "-1": {
                "invocation": {
                    "address": "0x0681d8db095565fe8a346fa0277bffde9c0edbbf",
                    "callData": "",
                    "decodedMethod": null,
                    "errorInfo": "",
                    "fromAddress": "",
                    "gasUsed": 0,
                    "id": -1,
                    "methodDecoded": false,
                    "operation": "",
                    "output": "",
                    "revert": false,
                    "revertMessage": "",
                    "selector": "",
                    "status": false,
                    "value": ""
                },
                "nodeType": 0
            },
            "0": {
                "invocation": {
                    "address": "0xbf2179859fc6d5bee9bf9158632dc51678a4100e",
                    "callData": "0x000000000000000000000000f4f5dfc21e36da84001be2aa09fe2c87231ba6660000000000000000000000000000000000000000000004beb42899551550c000",
                    "decodedMethod": {
                        "callParams": [
                            {
                                "name": "_to",
                                "type": "address",
                                "value": "0xf4f5dfc21e36da84001be2aa09fe2c87231ba666"
                            },
                            {
                                "decimalAvailable": true,
                                "name": "_value",
                                "type": "uint256",
                                "value": "22,407,329,100,000,000,000,000"
                            }
                        ],
                        "constructorArguments": "",
                        "name": "transfer",
                        "returnParams": [
                            {
                                "name": "",
                                "type": "bool",
                                "value": true
                            }
                        ],
                        "signature": "transfer(address,uint256)"
                    },
                    "errorInfo": "",
                    "fromAddress": "0x0681d8db095565fe8a346fa0277bffde9c0edbbf",
                    "gasUsed": 37640,
                    "id": 0,
                    "methodDecoded": true,
                    "operation": "CALL",
                    "output": "0x0000000000000000000000000000000000000000000000000000000000000001",
                    "revert": false,
                    "revertMessage": "",
                    "selector": "0xa9059cbb",
                    "status": true,
                    "value": "0"
                },
                "nodeType": 0
            },
            "1": {
                "event": {
                    "contract": "0xbf2179859fc6d5bee9bf9158632dc51678a4100e",
                    "decodedLog": {
                        "name": "Transfer",
                        "params": [
                            {
                                "name": "from",
                                "type": "address",
                                "value": "0x0681d8db095565fe8a346fa0277bffde9c0edbbf"
                            },
                            {
                                "name": "to",
                                "type": "address",
                                "value": "0xf4f5dfc21e36da84001be2aa09fe2c87231ba666"
                            },
                            {
                                "decimalAvailable": true,
                                "name": "value",
                                "type": "uint256",
                                "value": "22,407,329,100,000,000,000,000"
                            }
                        ],
                        "signature": "Transfer(address,address,uint256)"
                    },
                    "id": 1,
                    "logData": "0x0000000000000000000000000000000000000000000004beb42899551550c000",
                    "logDecoded": true,
                    "operation": "EVENT",
                    "revert": false,
                    "status": true,
                    "topics": [
                        "0xddf252ad1be2c89b69c2b068fc378daa952ba7f163c4a11628f55a4df523b3ef",
                        "0x0000000000000000000000000681d8db095565fe8a346fa0277bffde9c0edbbf",
                        "0x000000000000000000000000f4f5dfc21e36da84001be2aa09fe2c87231ba666"
                    ]
                },
                "nodeType": 1
            }
        },
        "gasFlame": [
            {
                "children": [
                    {
                        "children": [
                            {
                                "children": [],
                                "depth": 0,
                                "name": "Initial Gas",
                                "value": 23320
                            },
                            {
                                "children": [],
                                "depth": 0,
                                "name": "Executed Gas",
                                "value": 14320
                            }
                        ],
                        "depth": -1,
                        "name": "Actual Gas Used",
                        "value": 37640
                    },
                    {
                        "children": [],
                        "depth": -1,
                        "name": "Refunded Gas",
                        "value": 0
                    }
                ],
                "depth": -2,
                "name": "Total Gas",
                "value": 37640
            }
        ],
        "isConfirmed": true,
        "mainTrace": [
            {
                "children": [
                    {
                        "children": [
                            {
                                "children": [],
                                "depth": 1,
                                "id": 1,
                                "order": 1
                            }
                        ],
                        "depth": 0,
                        "id": 0,
                        "order": 0
                    }
                ],
                "depth": -1,
                "id": -1,
                "order": -1
            }
        ],
        "mainTraceNodeCount": 2,
        "parentIdMap": {
            "0": -1,
            "1": 0
        },
        "tidyTrace": [
            {
                "children": [
                    {
                        "children": [
                            {
                                "children": [],
                                "depth": 1,
                                "id": 1,
                                "order": 1
                            }
                        ],
                        "depth": 0,
                        "id": 0,
                        "order": 0
                    }
                ],
                "depth": -1,
                "id": -1,
                "order": -1
            }
        ],
        "tidyTraceNodeCount": 2
    },
    "state_change": {
        "stateChanges": [
            {
                "address": "0xbf2179859fc6d5bee9bf9158632dc51678a4100e",
                "erc": "ERC-20",
                "slots": [
                    {
                        "current": "0x00000000000000000000000000000000000000000000603774bc49e937d4d400",
                        "key": "0x23298a8058de04978b28609ab4ee2e2dae8fbe54a8e08cb99b0034ab035fb4b8",
                        "prev": "0x0000000000000000000000000000000000000000000064f628e4e33e4d259400"
                    },
                    {
                        "current": "0x000000000000000000000000000000000000000000000f30f9a7b09b38284000",
                        "key": "0xb91d854e4d2031696960e8e6001e346e625012b3d6c2576a3c09ceef56f1dd84",
                        "prev": "0x000000000000000000000000000000000000000000000a72457f174622d78000"
                    }
                ],
                "storageVariables": [
                    {
                        "name": "balances",
                        "type": "mapping(address => uint256)",
                        "value": {
                            "pairs": [
                                {
                                    "key": "0x0681d8db095565fe8a346fa0277bffde9c0edbbf",
                                    "value": {
                                        "current": "454370164959010000000000",
                                        "prev": "476777494059010000000000",
                                        "typeTag": 1
                                    }
                                },
                                {
                                    "key": "0xf4f5dfc21e36da84001be2aa09fe2c87231ba666",
                                    "value": {
                                        "current": "71738930500000000000000",
                                        "prev": "49331601400000000000000",
                                        "typeTag": 1
                                    }
                                }
                            ],
                            "typeTag": 4
                        }
                    }
                ]
            }
        ]
    }
}