{
    "balance_change": {
        "balanceChanges": [
            {
                "account": "0x16710ce8c36756e59c38f76d3096bc666366d3ab",
                "assets": [
                    {
                        "address": "0xeeeeeeeeeeeeeeeeeeeeeeeeeeeeeeeeeeeeeeee",
                        "amount": "8",
                        "iconUrl": "https://assets.blocksec.com/image/1663669189317-3.png",
                        "isERC1155": false,
                        "isERC721": false,
                        "sign": false,
                        "value": "3477.581187"
                    },
                    {
                        "address": "0xa1d0e215a23d7030842fc67ce582a6afa3ccab83",
                        "amount": "0.533710634663478355",
                        "iconUrl": "",
                        "isERC1155": false,
                        "isERC721": false,
                        "sign": true,
                        "value": "3428.996918"
                    }
                ]
            },
            {
                "account": "0x8973be4402bf0a39448f419c2d64bd3591dd2299",
                "assets": [
                    {
                        "address": "0xc02aaa39b223fe8d0a0e5c4f27ead9083c756cc2",
                        "amount": "8",
                        "iconUrl": "https://assets.blocksec.com/icon/f1cb2d02c471d545bbc7722daf3277fd852d98e63d118771af7047bd8256c516.png",
                        "isERC1155": false,
                        "isERC721": false,
                        "sign": true,
                        "value": "3477.581187"
                    },
                    {
                        "address": "0xa1d0e215a23d7030842fc67ce582a6afa3ccab83",
                        "amount": "0.533710634663478355",
                        "iconUrl": "",
                        "isERC1155": false,
                        "isERC721": false,
                        "sign": false,
                        "value": "3428.996918"
                    }
                ]
            },
            {
                "account": "0xc02aaa39b223fe8d0a0e5c4f27ead9083c756cc2",
                "assets": [
                    {
                        "address": "0xeeeeeeeeeeeeeeeeeeeeeeeeeeeeeeeeeeeeeeee",
                        "amount": "8",
                        "iconUrl": "https://assets.blocksec.com/image/1663669189317-3.png",
                        "isERC1155": false,
                        "isERC721": false,
                        "sign": true,
                        "value": "3477.581187"
                    },
                    {
                        "address": "0xc02aaa39b223fe8d0a0e5c4f27ead9083c756cc2",
                        "amount": "8",
                        "iconUrl": "https://assets.blocksec.com/icon/f1cb2d02c471d545bbc7722daf3277fd852d98e63d118771af7047bd8256c516.png",
                        "isERC1155": false,
                        "isERC721": false,
                        "sign": false,
                        "value": "3477.581187"
                    }
                ]
            }
        ]
    },
    "profile": {
        "basic_info": {
            "baseFee": "",
            "blockNumber": 10787347,
            "callData": "0x7ff36ab5000000000000000000000000000000000000000000000000075558fc12a88815000000000000000000000000000000000000000000000000000000000000008000000000000000000000000016710ce8c36756e59c38f76d3096bc666366d3ab000000000000000000000000000000000000000000000000000000005f50b3320000000000000000000000000000000000000000000000000000000000000002000000000000000000000000c02aaa39b223fe8d0a0e5c4f27ead9083c756cc2000000000000000000000000a1d0e215a23d7030842fc67ce582a6afa3ccab83",
            "debugEnable": true,
            "errorInfo": "",
            "eventCount": 5,
            "feeRecipient": "0x829bd824b016326a401d083b33d092293333a830",
            "formatValue": "8",
            "gasLimit": 164849,
            "gasPrice": "400",
            "gasUsed": 124296,
            "intTxnCount": 7,
            "internalRevert": false,
            "internalRevertMessage": "",
            "isContractCreation": false,
            "isFlashloan": false,
            "maxFee": "",
            "nonce": 1382,
            "overwritedBlockNumber": -1,
            "priorityFee": "",
            "receiver": "0x7a250d5630b4cf539739df2c5dacb4c659f2488d",
            "revertMessage": "",
            "sender": "0x16710ce8c36756e59c38f76d3096bc666366d3ab",
            "simulationEnable": true,
            "sourceTxnHash": "0x49d46dd49c23d812df60ecdc9492e14ab1afb5c537c624baad68c6ba29e1c4b1",
            "status": true,
            "timestamp": "2020-09-03T08:51:22Z",
            "transactionFee": "0.0497184",
            "txnHash": "0x49d46dd49c23d812df60ecdc9492e14ab1afb5c537c624baad68c6ba29e1c4b1",
            "txnIndex": 6,
            "type": 0,
            "value": "8000000000000000000"
        },
        "fund_flow": [
            {
                "amount": "8",
                "from": "0x16710ce8c36756e59c38f76d3096bc666366d3ab",
                "id": 1,
                "isERC1155": false,
                "isERC721": false,
                "isReverted": false,
                "order": 1,
                "to": "0x7a250d5630b4cf539739df2c5dacb4c659f2488d",
                "token": "0xeeeeeeeeeeeeeeeeeeeeeeeeeeeeeeeeeeeeeeee"
            },
            {
                "amount": "8",
                "from": "0x7a250d5630b4cf539739df2c5dacb4c659f2488d",
                "id": 2,
                "isERC1155": false,
                "isERC721": false,
                "isReverted": false,
                "order": 2,
                "to": "0xc02aaa39b223fe8d0a0e5c4f27ead9083c756cc2",
                "token": "0xeeeeeeeeeeeeeeeeeeeeeeeeeeeeeeeeeeeeeeee"
            },
            {
                "amount": "8",
                "from": "0xc02aaa39b223fe8d0a0e5c4f27ead9083c756cc2",
                "id": 3,
                "isERC1155": false,
                "isERC721": false,
                "isReverted": false,
                "order": 3,
                "to": "0x7a250d5630b4cf539739df2c5dacb4c659f2488d",
                "token": "0xc02aaa39b223fe8d0a0e5c4f27ead9083c756cc2"
            },
            {
                "amount": "8",
                "from": "0x7a250d5630b4cf539739df2c5dacb4c659f2488d",
                "id": 4,
                "isERC1155": false,
                "isERC721": false,
                "isReverted": false,
                "order": 4,
                "to": "0x8973be4402bf0a39448f419c2d64bd3591dd2299",
                "token": "0xc02aaa39b223fe8d0a0e5c4f27ead9083c756cc2"
            },
            {
                "amount": "0.533710634663478355",
                "from": "0x8973be4402bf0a39448f419c2d64bd3591dd2299",
                "id": 5,
                "isERC1155": false,
                "isERC721": false,
                "isReverted": false,
                "order": 5,
                "to": "0x16710ce8c36756e59c38f76d3096bc666366d3ab",
                "token": "0xa1d0e215a23d7030842fc67ce582a6afa3ccab83"
            }
        ],
        "token_infos": [
            {
                "address": "0xeeeeeeeeeeeeeeeeeeeeeeeeeeeeeeeeeeeeeeee",
                "decimals": 18
            },
            {
                "address": "0xa1d0e215a23d7030842fc67ce582a6afa3ccab83",
                "decimals": 18
            },
            {
                "address": "0xc02aaa39b223fe8d0a0e5c4f27ead9083c756cc2",
                "decimals": 18
            }
        ]
    },
    "address_label": {
        "labels": [
            {
                "address": "0xeeeeeeeeeeeeeeeeeeeeeeeeeeeeeeeeeeeeeeee",
                "label": "Ether"
            },
            {
                "address": "0xc02aaa39b223fe8d0a0e5c4f27ead9083c756cc2",
                "label": "Wrapped Ether (WETH)"
            },
            {
                "address": "0x8973be4402bf0a39448f419c2d64bd3591dd2299",
                "label": "Uniswap V2: YFII"
            },
            {
                "address": "0x0000000000000000000000000000000000000002",
                "label": "Precompiled"
            },
            {
                "address": "0x0000000000000000000000000000000000000004",
                "label": "Precompiled"
            },
            {
                "address": "0xa1d0e215a23d7030842fc67ce582a6afa3ccab83",
                "label": "YFII.finance: YFII Token"
            },
            {
                "address": "0x7a250d5630b4cf539739df2c5dacb4c659f2488d",
                "label": "Uniswap V2: Router 2"
            },
            {
                "address": "0x0000000000000000000000000000000000000001",
                "label": "Precompiled"
            },
            {
                "address": "0x0000000000000000000000000000000000000003",
                "label": "Precompiled"
            }
        ]
    },
    "trace": {
        "accountLabels": null,
        "dataMap": {
            "-1": {
                "invocation": {
                    "address": "0x16710ce8c36756e59c38f76d3096bc666366d3ab",
                    "callData": "",
                    "decodedMethod": null,
                    "errorInfo": "",
                    "fromAddress": "",
                    "gasUsed": 0,
                    "id": -1,
                    "methodDecoded": false,
                    "operation": "",
                    "output": "",
                    "revert": false,
                    "revertMessage": "",
                    "selector": "",
                    "status": false,
                    "value": ""
                },
                "nodeType": 0
            },
            "0": {
                "invocation": {
                    "address": "0x7a250d5630b4cf539739df2c5dacb4c659f2488d",
                    "callData": "0x000000000000000000000000000000000000000000000000075558fc12a88815000000000000000000000000000000000000000000000000000000000000008000000000000000000000000016710ce8c36756e59c38f76d3096bc666366d3ab000000000000000000000000000000000000000000000000000000005f50b3320000000000000000000000000000000000000000000000000000000000000002000000000000000000000000c02aaa39b223fe8d0a0e5c4f27ead9083c756cc2000000000000000000000000a1d0e215a23d7030842fc67ce582a6afa3ccab83",
                    "decodedMethod": {
                        "callParams": [
                            {
                                "name": "amountOutMin",
                                "type": "uint256",
                                "value": "528,426,370,953,938,965"
                            },
                            {
                                "name": "path",
                                "type": "address[]",
                                "value": [
                                    "0xc02aaa39b223fe8d0a0e5c4f27ead9083c756cc2",
                                    "0xa1d0e215a23d7030842fc67ce582a6afa3ccab83"
                                ]
                            },
                            {
                                "name": "to",
                                "type": "address",
                                "value": "0x16710ce8c36756e59c38f76d3096bc666366d3ab"
                            },
                            {
                                "name": "deadline",
                                "type": "uint256",
                                "value": "1,599,124,274"
                            }
                        ],
                        "constructorArguments": "",
                        "name": "swapExactETHForTokens",
                        "returnParams": [
                            {
                                "name": "amounts",
                                "type": "uint256[]",
                                "value": [
                                    "8,000,000,000,000,000,000",
                                    "533,710,634,663,478,355"
                                ]
                            }
                        ],
                        "signature": "swapExactETHForTokens(uint256,address[],address,uint256)"
                    },
                    "errorInfo": "",
                    "fromAddress": "0x16710ce8c36756e59c38f76d3096bc666366d3ab",
                    "gasUsed": 124296,
                    "id": 0,
                    "methodDecoded": true,
                    "operation": "CALL",
                    "output": "0x000000000000000000000000000000000000000000000000000000000000002000000000000000000000000000000000000000000000000000000000000000020000000000000000000000000000000000000000000000006f05b59d3b20000000000000000000000000000000000000000000000000000007681efe97f70453",
                    "revert": false,
                    "revertMessage": "",
                    "selector": "0x7ff36ab5",
                    "status": true,
                    "value": "8"
                },
                "nodeType": 0
            },
            "1": {
                "invocation": {
                    "address": "0x8973be4402bf0a39448f419c2d64bd3591dd2299",
                    "callData": "0x",
                    "decodedMethod": {
                        "callParams": [],
                        "constructorArguments": "",
                        "name": "getReserves",
                        "returnParams": [
                            {
                                "name": "_reserve0",
                                "type": "uint112",
                                "value": "132,234,009,537,549,933,928"
                            },
                            {
                                "name": "_reserve1",
                                "type": "uint112",
                                "value": "1,968,185,596,885,772,049,804"
                            },
                            {
                                "name": "_blockTimestampLast",
                                "type": "uint32",
                                "value": "1,599,123,009"
                            }
                        ],
                        "signature": "getReserves()"
                    },
                    "errorInfo": "",
                    "fromAddress": "0x7a250d5630b4cf539739df2c5dacb4c659f2488d",
                    "gasUsed": 1204,
                    "id": 1,
                    "methodDecoded": true,
                    "operation": "STATICCALL",
                    "output": "0x0000000000000000000000000000000000000000000000072b1d93118f479d6800000000000000000000000000000000000000000000006ab20fe479309c9d8c000000000000000000000000000000000000000000000000000000005f50ae41",
                    "revert": false,
                    "revertMessage": "",
                    "selector": "0x0902f1ac",
                    "status": true,
                    "value": "0"
                },
                "nodeType": 0
            },
            "10": {
                "invocation": {
                    "address": "0xc02aaa39b223fe8d0a0e5c4f27ead9083c756cc2",
                    "callData": "0x0000000000000000000000008973be4402bf0a39448f419c2d64bd3591dd2299",
                    "decodedMethod": {
                        "callParams": [
                            {
                                "name": "",
                                "type": "address",
                                "value": "0x8973be4402bf0a39448f419c2d64bd3591dd2299"
                            }
                        ],
                        "constructorArguments": "",
                        "name": "balanceOf",
                        "returnParams": [
                            {
                                "decimalAvailable": true,
                                "name": "",
                                "type": "uint256",
                                "value": "1,976,185,596,885,772,049,804"
                            }
                        ],
                        "signature": "balanceOf(address)"
                    },
                    "errorInfo": "",
                    "fromAddress": "0x8973be4402bf0a39448f419c2d64bd3591dd2299",
                    "gasUsed": 1234,
                    "id": 10,
                    "methodDecoded": true,
                    "operation": "STATICCALL",
                    "output": "0x00000000000000000000000000000000000000000000006b21159a166bbc9d8c",
                    "revert": false,
                    "revertMessage": "",
                    "selector": "0x70a08231",
                    "status": true,
                    "value": "0"
                },
                "nodeType": 0
            },
            "11": {
                "event": {
                    "contract": "0x8973be4402bf0a39448f419c2d64bd3591dd2299",
                    "decodedLog": {
                        "name": "Sync",
                        "params": [
                            {
                                "name": "reserve0",
                                "type": "uint112",
                                "value": "131,700,298,902,886,455,573"
                            },
                            {
                                "name": "reserve1",
                                "type": "uint112",
                                "value": "1,976,185,596,885,772,049,804"
                            }
                        ],
                        "signature": "Sync(uint112,uint112)"
                    },
                    "id": 11,
                    "logData": "0x00000000000000000000000000000000000000000000000723b57412f750991500000000000000000000000000000000000000000000006b21159a166bbc9d8c",
                    "logDecoded": true,
                    "operation": "EVENT",
                    "revert": false,
                    "status": true,
                    "topics": [
                        "0x1c411e9a96e071241c2f21f7726b17ae89e3cab4c78be50e062b03a9fffbbad1"
                    ]
                },
                "nodeType": 1
            },
            "12": {
                "event": {
                    "contract": "0x8973be4402bf0a39448f419c2d64bd3591dd2299",
                    "decodedLog": {
                        "name": "Swap",
                        "params": [
                            {
                                "name": "sender",
                                "type": "address",
                                "value": "0x7a250d5630b4cf539739df2c5dacb4c659f2488d"
                            },
                            {
                                "name": "to",
                                "type": "address",
                                "value": "0x16710ce8c36756e59c38f76d3096bc666366d3ab"
                            },
                            {
                                "name": "amount0In",
                                "type": "uint256",
                                "value": "0"
                            },
                            {
                                "name": "amount1In",
                                "type": "uint256",
                                "value": "8,000,000,000,000,000,000"
                            },
                            {
                                "name": "amount0Out",
                                "type": "uint256",
                                "value": "533,710,634,663,478,355"
                            },
                            {
                                "name": "amount1Out",
                                "type": "uint256",
                                "value": "0"
                            }
                        ],
                        "signature": "Swap(address,uint256,uint256,uint256,uint256,address)"
                    },
                    "id": 12,
                    "logData": "0x00000000000000000000000000000000000000000000000000000000000000000000000000000000000000000000000000000000000000006f05b59d3b20000000000000000000000000000000000000000000000000000007681efe97f704530000000000000000000000000000000000000000000000000000000000000000",
                    "logDecoded": true,
                    "operation": "EVENT",
                    "revert": false,
                    "status": true,
                    "topics": [
                        "0xd78ad95fa46c994b6551d0da85fc275fe613ce37657fb8d5e3d130840159d822",
                        "0x0000000000000000000000007a250d5630b4cf539739df2c5dacb4c659f2488d",
                        "0x00000000000000000000000016710ce8c36756e59c38f76d3096bc666366d3ab"
                    ]
                },
                "nodeType": 1
            },
            "2": {
                "invocation": {
                    "address": "0xc02aaa39b223fe8d0a0e5c4f27ead9083c756cc2",
                    "callData": "0x",
                    "decodedMethod": {
                        "callParams": [],
                        "constructorArguments": "",
                        "name": "deposit",
                        "returnParams": [],
                        "signature": "deposit()"
                    },
                    "errorInfo": "",
                    "fromAddress": "0x7a250d5630b4cf539739df2c5dacb4c659f2488d",
                    "gasUsed": 22674,
                    "id": 2,
                    "methodDecoded": true,
                    "operation": "CALL",
                    "output": "",
                    "revert": false,
                    "revertMessage": "",
                    "selector": "0xd0e30db0",
                    "status": true,
                    "value": "8"
                },
                "nodeType": 0
            },
            "3": {
                "event": {
                    "contract": "0xc02aaa39b223fe8d0a0e5c4f27ead9083c756cc2",
                    "decodedLog": {
                        "name": "Deposit",
                        "params": [
                            {
                                "name": "dst",
                                "type": "address",
                                "value": "0x7a250d5630b4cf539739df2c5dacb4c659f2488d"
                            },
                            {
                                "name": "wad",
                                "type": "uint256",
                                "value": "8,000,000,000,000,000,000"
                            }
                        ],
                        "signature": "Deposit(address,uint256)"
                    },
                    "id": 3,
                    "logData": "0x0000000000000000000000000000000000000000000000006f05b59d3b200000",
                    "logDecoded": true,
                    "operation": "EVENT",
                    "revert": false,
                    "status": true,
                    "topics": [
                        "0xe1fffcc4923d04b559f4d29a8bfc6cda04eb5b0d3c460751c2402c5c5cc9109c",
                        "0x0000000000000000000000007a250d5630b4cf539739df2c5dacb4c659f2488d"
                    ]
                },
                "nodeType": 1
            },
            "4": {
                "invocation": {
                    "address": "0xc02aaa39b223fe8d0a0e5c4f27ead9083c756cc2",
                    "callData": "0x0000000000000000000000008973be4402bf0a39448f419c2d64bd3591dd22990000000000000000000000000000000000000000000000006f05b59d3b200000",
                    "decodedMethod": {
                        "callParams": [
                            {
                                "name": "dst",
                                "type": "address",
                                "value": "0x8973be4402bf0a39448f419c2d64bd3591dd2299"
                            },
                            {
                                "decimalAvailable": true,
                                "name": "wad",
                                "type": "uint256",
                                "value": "8,000,000,000,000,000,000"
                            }
                        ],
                        "constructorArguments": "",
                        "name": "transfer",
                        "returnParams": [
                            {
                                "name": "",
                                "type": "bool",
                                "value": true
                            }
                        ],
                        "signature": "transfer(address,uint256)"
                    },
                    "errorInfo": "",
                    "fromAddress": "0x7a250d5630b4cf539739df2c5dacb4c659f2488d",
                    "gasUsed": 10962,
                    "id": 4,
                    "methodDecoded": true,
                    "operation": "CALL",
                    "output": "0x0000000000000000000000000000000000000000000000000000000000000001",
                    "revert": false,
                    "revertMessage": "",
                    "selector": "0xa9059cbb",
                    "status": true,
                    "value": "0"
                },
                "nodeType": 0
            },
            "5": {
                "event": {
                    "contract": "0xc02aaa39b223fe8d0a0e5c4f27ead9083c756cc2",
                    "decodedLog": {
                        "name": "Transfer",
                        "params": [
                            {
                                "name": "src",
                                "type": "address",
                                "value": "0x7a250d5630b4cf539739df2c5dacb4c659f2488d"
                            },
                            {
                                "name": "dst",
                                "type": "address",
                                "value": "0x8973be4402bf0a39448f419c2d64bd3591dd2299"
                            },
                            {
                                "decimalAvailable": true,
                                "name": "wad",
                                "type": "uint256",
                                "value": "8,000,000,000,000,000,000"
                            }
                        ],
                        "signature": "Transfer(address,address,uint256)"
                    },
                    "id": 5,
                    "logData": "0x0000000000000000000000000000000000000000000000006f05b59d3b200000",
                    "logDecoded": true,
                    "operation": "EVENT",
                    "revert": false,
                    "status": true,
                    "topics": [
                        "0xddf252ad1be2c89b69c2b068fc378daa952ba7f163c4a11628f55a4df523b3ef",
                        "0x0000000000000000000000007a250d5630b4cf539739df2c5dacb4c659f2488d",
                        "0x0000000000000000000000008973be4402bf0a39448f419c2d64bd3591dd2299"
                    ]
                },
                "nodeType": 1
            },
            "6": {
                "invocation": {
                    "address": "0x8973be4402bf0a39448f419c2d64bd3591dd2299",
                    "callData": "0x00000000000000000000000000000000000000000000000007681efe97f70453000000000000000000000000000000000000000000000000000000000000000000000000000000000000000016710ce8c36756e59c38f76d3096bc666366d3ab00000000000000000000000000000000000000000000000000000000000000800000000000000000000000000000000000000000000000000000000000000000",
                    "decodedMethod": {
                        "callParams": [
                            {
                                "name": "amount0Out",
                                "type": "uint256",
                                "value": "533,710,634,663,478,355"
                            },
                            {
                                "name": "amount1Out",
                                "type": "uint256",
                                "value": "0"
                            },
                            {
                                "name": "to",
                                "type": "address",
                                "value": "0x16710ce8c36756e59c38f76d3096bc666366d3ab"
                            },
                            {
                                "name": "data",
                                "type": "bytes",
                                "value": "0x"
                            }
                        ],
                        "constructorArguments": "",
                        "name": "swap",
                        "returnParams": [],
                        "signature": "swap(uint256,uint256,address,bytes)"
                    },
                    "errorInfo": "",
                    "fromAddress": "0x7a250d5630b4cf539739df2c5dacb4c659f2488d",
                    "gasUsed": 70943,
                    "id": 6,
                    "methodDecoded": true,
                    "operation": "CALL",
                    "output": "",
                    "revert": false,
                    "revertMessage": "",
                    "selector": "0x022c0d9f",
                    "status": true,
                    "value": "0"
                },
                "nodeType": 0
            },
            "7": {
                "invocation": {
                    "address": "0xa1d0e215a23d7030842fc67ce582a6afa3ccab83",
                    "callData": "0x00000000000000000000000016710ce8c36756e59c38f76d3096bc666366d3ab00000000000000000000000000000000000000000000000007681efe97f70453",
                    "decodedMethod": {
                        "callParams": [
                            {
                                "name": "recipient",
                                "type": "address",
                                "value": "0x16710ce8c36756e59c38f76d3096bc666366d3ab"
                            },
                            {
                                "decimalAvailable": true,
                                "name": "amount",
                                "type": "uint256",
                                "value": "533,710,634,663,478,355"
                            }
                        ],
                        "constructorArguments": "",
                        "name": "transfer",
                        "returnParams": [
                            {
                                "name": "",
                                "type": "bool",
                                "value": true
                            }
                        ],
                        "signature": "transfer(address,uint256)"
                    },
                    "errorInfo": "",
                    "fromAddress": "0x8973be4402bf0a39448f419c2d64bd3591dd2299",
                    "gasUsed": 29496,
                    "id": 7,
                    "methodDecoded": true,
                    "operation": "CALL",
                    "output": "0x0000000000000000000000000000000000000000000000000000000000000001",
                    "revert": false,
                    "revertMessage": "",
                    "selector": "0xa9059cbb",
                    "status": true,
                    "value": "0"
                },
                "nodeType": 0
            },
            "8": {
                "event": {
                    "contract": "0xa1d0e215a23d7030842fc67ce582a6afa3ccab83",
                    "decodedLog": {
                        "name": "Transfer",
                        "params": [
                            {
                                "name": "from",
                                "type": "address",
                                "value": "0x8973be4402bf0a39448f419c2d64bd3591dd2299"
                            },
                            {
                                "name": "to",
                                "type": "address",
                                "value": "0x16710ce8c36756e59c38f76d3096bc666366d3ab"
                            },
                            {
                                "decimalAvailable": true,
                                "name": "value",
                                "type": "uint256",
                                "value": "533,710,634,663,478,355"
                            }
                        ],
                        "signature": "Transfer(address,address,uint256)"
                    },
                    "id": 8,
                    "logData": "0x00000000000000000000000000000000000000000000000007681efe97f70453",
                    "logDecoded": true,
                    "operation": "EVENT",
                    "revert": false,
                    "status": true,
                    "topics": [
                        "0xddf252ad1be2c89b69c2b068fc378daa952ba7f163c4a11628f55a4df523b3ef",
                        "0x0000000000000000000000008973be4402bf0a39448f419c2d64bd3591dd2299",
                        "0x00000000000000000000000016710ce8c36756e59c38f76d3096bc666366d3ab"
                    ]
                },
                "nodeType": 1
            },
            "9": {
                "invocation": {
                    "address": "0xa1d0e215a23d7030842fc67ce582a6afa3ccab83",
                    "callData": "0x0000000000000000000000008973be4402bf0a39448f419c2d64bd3591dd2299",
                    "decodedMethod": {
                        "callParams": [
                            {
                                "name": "account",
                                "type": "address",
                                "value": "0x8973be4402bf0a39448f419c2d64bd3591dd2299"
                            }
                        ],
                        "constructorArguments": "",
                        "name": "balanceOf",
                        "returnParams": [
                            {
                                "decimalAvailable": true,
                                "name": "",
                                "type": "uint256",
                                "value": "131,700,298,902,886,455,573"
                            }
                        ],
                        "signature": "balanceOf(address)"
                    },
                    "errorInfo": "",
                    "fromAddress": "0x8973be4402bf0a39448f419c2d64bd3591dd2299",
                    "gasUsed": 1190,
                    "id": 9,
                    "methodDecoded": true,
                    "operation": "STATICCALL",
                    "output": "0x00000000000000000000000000000000000000000000000723b57412f7509915",
                    "revert": false,
                    "revertMessage": "",
                    "selector": "0x70a08231",
                    "status": true,
                    "value": "0"
                },
                "nodeType": 0
            }
        },
        "gasFlame": [
            {
                "children": [
                    {
                        "children": [
                            {
                                "children": [],
                                "depth": 0,
                                "name": "Initial Gas",
                                "value": 22848
                            },
                            {
                                "children": [
                                    {
                                        "children": [],
                                        "depth": 1,
                                        "name": "getReserves",
                                        "value": 1204
                                    },
                                    {
                                        "children": [],
                                        "depth": 1,
                                        "name": "deposit",
                                        "value": 22674
                                    },
                                    {
                                        "children": [],
                                        "depth": 1,
                                        "name": "transfer",
                                        "value": 10962
                                    },
                                    {
                                        "children": [
                                            {
                                                "children": [],
                                                "depth": 2,
                                                "name": "transfer",
                                                "value": 29496
                                            },
                                            {
                                                "children": [],
                                                "depth": 2,
                                                "name": "balanceOf",
                                                "value": 1190
                                            },
                                            {
                                                "children": [],
                                                "depth": 2,
                                                "name": "balanceOf",
                                                "value": 1234
                                            }
                                        ],
                                        "depth": 1,
                                        "name": "swap",
                                        "value": 70943
                                    }
                                ],
                                "depth": 0,
                                "name": "Executed Gas",
                                "value": 124848
                            }
                        ],
                        "depth": -1,
                        "name": "Actual Gas Used",
                        "value": 124296
                    },
                    {
                        "children": [],
                        "depth": -1,
                        "name": "Refunded Gas",
                        "value": 23400
                    }
                ],
                "depth": -2,
                "name": "Total Gas",
                "value": 147696
            }
        ],
        "isConfirmed": true,
        "mainTrace": [
            {
                "children": [
                    {
                        "children": [
                            {
                                "children": [],
                                "depth": 1,
                                "id": 1,
                                "order": 1
                            },
                            {
                                "children": [
                                    {
                                        "children": [],
                                        "depth": 2,
                                        "id": 3,
                                        "order": 3
                                    }
                                ],
                                "depth": 1,
                                "id": 2,
                                "order": 2
                            },
                            {
                                "children": [
                                    {
                                        "children": [],
                                        "depth": 2,
                                        "id": 5,
                                        "order": 5
                                    }
                                ],
                                "depth": 1,
                                "id": 4,
                                "order": 4
                            },
                            {
                                "children": [
                                    {
                                        "children": [
                                            {
                                                "children": [],
                                                "depth": 3,
                                                "id": 8,
                                                "order": 8
                                            }
                                        ],
                                        "depth": 2,
                                        "id": 7,
                                        "order": 7
                                    },
                                    {
                                        "children": [],
                                        "depth": 2,
                                        "id": 9,
                                        "order": 9
                                    },
                                    {
                                        "children": [],
                                        "depth": 2,
                                        "id": 10,
                                        "order": 10
                                    },
                                    {
                                        "children": [],
                                        "depth": 2,
                                        "id": 11,
                                        "order": 11
                                    },
                                    {
                                        "children": [],
                                        "depth": 2,
                                        "id": 12,
                                        "order": 12
                                    }
                                ],
                                "depth": 1,
                                "id": 6,
                                "order": 6
                            }
                        ],
                        "depth": 0,
                        "id": 0,
                        "order": 0
                    }
                ],
                "depth": -1,
                "id": -1,
                "order": -1
            }
        ],
        "mainTraceNodeCount": 13,
        "parentIdMap": {
            "0": -1,
            "1": 0,
            "10": 6,
            "11": 6,
            "12": 6,
            "2": 0,
            "3": 2,
            "4": 0,
            "5": 4,
            "6": 0,
            "7": 6,
            "8": 7,
            "9": 6
        },
        "tidyTrace": [
            {
                "children": [
                    {
                        "children": [
                            {
                                "children": [
                                    {
                                        "children": [],
                                        "depth": 2,
                                        "id": 3,
                                        "order": 3
                                    }
                                ],
                                "depth": 1,
                                "id": 2,
                                "order": 2
                            },
                            {
                                "children": [
                                    {
                                        "children": [],
                                        "depth": 2,
                                        "id": 5,
                                        "order": 5
                                    }
                                ],
                                "depth": 1,
                                "id": 4,
                                "order": 4
                            },
                            {
                                "children": [
                                    {
                                        "children": [
                                            {
                                                "children": [],
                                                "depth": 3,
                                                "id": 8,
                                                "order": 8
                                            }
                                        ],
                                        "depth": 2,
                                        "id": 7,
                                        "order": 7
                                    },
                                    {
                                        "children": [],
                                        "depth": 2,
                                        "id": 11,
                                        "order": 11
                                    },
                                    {
                                        "children": [],
                                        "depth": 2,
                                        "id": 12,
                                        "order": 12
                                    }
                                ],
                                "depth": 1,
                                "id": 6,
                                "order": 6
                            }
                        ],
                        "depth": 0,
                        "id": 0,
                        "order": 0
                    }
                ],
                "depth": -1,
                "id": -1,
                "order": -1
            }
        ],
        "tidyTraceNodeCount": 10
    },
    "state_change": {
        "stateChanges": [
            {
                "address": "0x8973be4402bf0a39448f419c2d64bd3591dd2299",
                "erc": "ERC-20",
                "slots": [
                    {
                        "current": "0x0000000000000000000000000000009ef5d8df55c58ebd3b1a2342ef8d88b239",
                        "key": "0x0000000000000000000000000000000000000000000000000000000000000009",
                        "prev": "0x0000000000000000000000000000009ef19a551470fb367bea7d8e30acbb5128"
                    },
                    {
                        "current": "0x0000000000000000000000000000004a7dee78ca1056906b9c8adaded545b438",
                        "key": "0x000000000000000000000000000000000000000000000000000000000000000a",
                        "prev": "0x0000000000000000000000000000004a7de99138dff0704054c24e20e0975cb4"
                    },
                    {
                        "current": "0x5f50ae8a00000000006b21159a166bbc9d8c00000000000723b57412f7509915",
                        "key": "0x0000000000000000000000000000000000000000000000000000000000000008",
                        "prev": "0x5f50ae4100000000006ab20fe479309c9d8c0000000000072b1d93118f479d68"
                    }
                ],
                "storageVariables": [
                    {
                        "name": "price0CumulativeLast",
                        "type": "uint256",
                        "value": {
                            "current": "54091400898369901674896053368142655173177",
                            "prev": "54085759259833001895489422292932693283112",
                            "typeTag": 1
                        }
                    },
                    {
                        "name": "price1CumulativeLast",
                        "type": "uint256",
                        "value": {
                            "current": "25348286868173189745243617755370029954104",
                            "prev": "25348261402246074855009771509113509338292",
                            "typeTag": 1
                        }
                    },
                    {
                        "name": "reserve0",
                        "type": "uint112",
                        "value": {
                            "current": "131700298902886455573",
                            "prev": "132234009537549933928",
                            "typeTag": 1
                        }
                    },
                    {
                        "name": "reserve1",
                        "type": "uint112",
                        "value": {
                            "current": "1976185596885772049804",
                            "prev": "1968185596885772049804",
                            "typeTag": 1
                        }
                    },
                    {
                        "name": "blockTimestampLast",
                        "type": "uint32",
                        "value": {
                            "current": "1599123082",
                            "prev": "1599123009",
                            "typeTag": 1
                        }
                    }
                ]
            },
            {
                "address": "0xa1d0e215a23d7030842fc67ce582a6afa3ccab83",
                "erc": "ERC-20",
                "slots": [
                    {
                        "current": "0x00000000000000000000000000000000000000000000000723b57412f7509915",
                        "key": "0x515db71c34e1b62c6cce72520371fd9647de5455294c536d2393ae5e4cbccaa1",
                        "prev": "0x0000000000000000000000000000000000000000000000072b1d93118f479d68"
                    },
                    {
                        "current": "0x00000000000000000000000000000000000000000000000007681efe97f70453",
                        "key": "0x38d5c9ed2c3e59e51de3c3ede0824aa7fd36f0c07d7edfea5549e6415cbf9230",
                        "prev": "0x0000000000000000000000000000000000000000000000000000000000000000"
                    }
                ],
                "storageVariables": [
                    {
                        "name": "_balances",
                        "type": "mapping(address => uint256)",
                        "value": {
                            "pairs": [
                                {
                                    "key": "0x16710ce8c36756e59c38f76d3096bc666366d3ab",
                                    "value": {
                                        "current": "533710634663478355",
                                        "prev": "0",
                                        "typeTag": 1
                                    }
                                },
                                {
                                    "key": "0x8973be4402bf0a39448f419c2d64bd3591dd2299",
                                    "value": {
                                        "current": "131700298902886455573",
                                        "prev": "132234009537549933928",
                                        "typeTag": 1
                                    }
                                }
                            ],
                            "typeTag": 4
                        }
                    }
                ]
            },
            {
                "address": "0xc02aaa39b223fe8d0a0e5c4f27ead9083c756cc2",
                "erc": "ERC-20",
                "slots": [
                    {
                        "current": "0x00000000000000000000000000000000000000000000006b21159a166bbc9d8c",
                        "key": "0x5b7dc1186032e2aeeeaf18aba690b194743d619470f7ae7fd12338584f655ba2",
                        "prev": "0x00000000000000000000000000000000000000000000006ab20fe479309c9d8c"
                    }
                ],
                "storageVariables": [
                    {
                        "name": "balanceOf",
                        "type": "mapping(address => uint256)",
                        "value": {
                            "pairs": [
                                {
                                    "key": "0x8973be4402bf0a39448f419c2d64bd3591dd2299",
                                    "value": {
                                        "current": "1976185596885772049804",
                                        "prev": "1968185596885772049804",
                                        "typeTag": 1
                                    }
                                }
                            ],
                            "typeTag": 4
                        }
                    }
                ]
            }
        ]
    }
}