{
    "balance_change": {
        "balanceChanges": [
            {
                "account": "0xfd9785b1148c6550e065a189d702560c67950d54",
                "assets": [
                    {
                        "address": "0xdd974d5c2e2928dea5f71b9825b8b646686bd200",
                        "amount": "295",
                        "iconUrl": "https://assets.blocksec.com/icon/7af75e1543b2a7e424399ceec39d346a3492570fbcc8f496f1a4601b773a615d.png",
                        "isERC1155": false,
                        "isERC721": false,
                        "sign": false,
                        "value": ""
                    }
                ]
            },
            {
                "account": "0x7c49c3a12c50540eb858883a747ace398f3fe54d",
                "assets": [
                    {
                        "address": "0xdd974d5c2e2928dea5f71b9825b8b646686bd200",
                        "amount": "295",
                        "iconUrl": "https://assets.blocksec.com/icon/7af75e1543b2a7e424399ceec39d346a3492570fbcc8f496f1a4601b773a615d.png",
                        "isERC1155": false,
                        "isERC721": false,
                        "sign": true,
                        "value": ""
                    }
                ]
            }
        ]
    },
    "profile": {
        "basic_info": {
            "baseFee": "",
            "blockNumber": 10016737,
            "callData": "0x0dcd7a6c0000000000000000000000007c49c3a12c50540eb858883a747ace398f3fe54d00000000000000000000000000000000000000000000000ffdf28905e43c0000000000000000000000000000dd974d5c2e2928dea5f71b9825b8b646686bd200000000000000000000000000000000000000000000000000000000005ebcbcef000000000000000000000000000000000000000000000000000000000000246a00000000000000000000000000000000000000000000000000000000000000c000000000000000000000000000000000000000000000000000000000000000418eece83641f3ce4761359c8a59db17dbbe497f343593c9d1b0861b44200356761ae979ab5bec6f4851d3febff9bfe447c4f932530c725c63b14dba91c622d8131c00000000000000000000000000000000000000000000000000000000000000",
            "debugEnable": true,
            "errorInfo": "",
            "eventCount": 2,
            "feeRecipient": "0x35f61dfb08ada13eba64bf156b80df3d5b3a738d",
            "formatValue": "0",
            "gasLimit": 300000,
            "gasPrice": "27.6",
            "gasUsed": 118710,
            "intTxnCount": 3,
            "internalRevert": false,
            "internalRevertMessage": "",
            "isContractCreation": false,
            "isFlashloan": false,
            "maxFee": "",
            "nonce": 61027,
            "overwritedBlockNumber": -1,
            "priorityFee": "",
            "receiver": "0xfd9785b1148c6550e065a189d702560c67950d54",
            "revertMessage": "",
            "sender": "0x32b56fc48684fa085df8c4cd2feaafc25c304db9",
            "simulationEnable": true,
            "sourceTxnHash": "0x49cfecc0ab6f931de81b46d22f64ff7b40cb3f47d013165cc64e756ed5b5c5aa",
            "status": true,
            "timestamp": "2020-05-07T03:37:21Z",
            "transactionFee": "0.003276396",
            "txnHash": "0x49cfecc0ab6f931de81b46d22f64ff7b40cb3f47d013165cc64e756ed5b5c5aa",
            "txnIndex": 55,
            "type": 0,
            "value": "0"
        },
        "fund_flow": [
            {
                "amount": "295",
                "from": "0xfd9785b1148c6550e065a189d702560c67950d54",
                "id": 1,
                "isERC1155": false,
                "isERC721": false,
                "isReverted": false,
                "order": 1,
                "to": "0x7c49c3a12c50540eb858883a747ace398f3fe54d",
                "token": "0xdd974d5c2e2928dea5f71b9825b8b646686bd200"
            }
        ],
        "token_infos": [
            {
                "address": "0xc02aaa39b223fe8d0a0e5c4f27ead9083c756cc2",
                "decimals": 18
            },
            {
                "address": "0xdd974d5c2e2928dea5f71b9825b8b646686bd200",
                "decimals": 18
            },
            {
                "address": "0xeeeeeeeeeeeeeeeeeeeeeeeeeeeeeeeeeeeeeeee",
                "decimals": 18
            }
        ]
    },
    "address_label": {
        "labels": [
            {
                "address": "0xdd974d5c2e2928dea5f71b9825b8b646686bd200",
                "label": "Kyber: Old KNC Token"
            },
            {
                "address": "0x7c49c3a12c50540eb858883a747ace398f3fe54d",
                "label": "UPBIT"
            },
            {
                "address": "0x0000000000000000000000000000000000000001",
                "label": "Precompiled"
            },
            {
                "address": "0x0000000000000000000000000000000000000002",
                "label": "Precompiled"
            },
            {
                "address": "0x0000000000000000000000000000000000000003",
                "label": "Precompiled"
            },
            {
                "address": "0x0000000000000000000000000000000000000004",
                "label": "Precompiled"
            },
            {
                "address": "0xeeeeeeeeeeeeeeeeeeeeeeeeeeeeeeeeeeeeeeee",
                "label": "Ether"
            },
            {
                "address": "0x5b9e8728e316bbeb692d22daaab74f6cbf2c4691",
                "label": "WalletSimple"
            }
        ]
    },
    "trace": {
        "accountLabels": null,
        "dataMap": {
            "-1": {
                "invocation": {
                    "address": "0x32b56fc48684fa085df8c4cd2feaafc25c304db9",
                    "callData": "",
                    "decodedMethod": null,
                    "errorInfo": "",
                    "fromAddress": "",
                    "gasUsed": 0,
                    "id": -1,
                    "methodDecoded": false,
                    "operation": "",
                    "output": "",
                    "revert": false,
                    "revertMessage": "",
                    "selector": "",
                    "status": false,
                    "value": ""
                },
                "nodeType": 0
            },
            "0": {
                "invocation": {
                    "address": "0xfd9785b1148c6550e065a189d702560c67950d54",
                    "callData": "0x0000000000000000000000007c49c3a12c50540eb858883a747ace398f3fe54d00000000000000000000000000000000000000000000000ffdf28905e43c0000000000000000000000000000dd974d5c2e2928dea5f71b9825b8b646686bd200000000000000000000000000000000000000000000000000000000005ebcbcef000000000000000000000000000000000000000000000000000000000000246a00000000000000000000000000000000000000000000000000000000000000c000000000000000000000000000000000000000000000000000000000000000418eece83641f3ce4761359c8a59db17dbbe497f343593c9d1b0861b44200356761ae979ab5bec6f4851d3febff9bfe447c4f932530c725c63b14dba91c622d8131c00000000000000000000000000000000000000000000000000000000000000",
                    "decodedMethod": {
                        "callParams": [
                            {
                                "name": "toAddress",
                                "type": "address",
                                "value": "0x7c49c3a12c50540eb858883a747ace398f3fe54d"
                            },
                            {
                                "name": "value",
                                "type": "uint256",
                                "value": "295,000,000,000,000,000,000"
                            },
                            {
                                "name": "tokenContractAddress",
                                "type": "address",
                                "value": "0xdd974d5c2e2928dea5f71b9825b8b646686bd200"
                            },
                            {
                                "name": "expireTime",
                                "type": "uint256",
                                "value": "1,589,427,439"
                            },
                            {
                                "name": "sequenceId",
                                "type": "uint256",
                                "value": "9,322"
                            },
                            {
                                "name": "signature",
                                "type": "bytes",
                                "value": "0x8eece83641f3ce4761359c8a59db17dbbe497f343593c9d1b0861b44200356761ae979ab5bec6f4851d3febff9bfe447c4f932530c725c63b14dba91c622d8131c"
                            }
                        ],
                        "constructorArguments": "",
                        "name": "sendMultiSigToken",
                        "returnParams": [],
                        "signature": "sendMultiSigToken(address,uint256,address,uint256,uint256,bytes)"
                    },
                    "errorInfo": "",
                    "fromAddress": "0x32b56fc48684fa085df8c4cd2feaafc25c304db9",
                    "gasUsed": 118710,
                    "id": 0,
                    "methodDecoded": true,
                    "operation": "CALL",
                    "output": "0x0dcd7a6c0000000000000000000000007c49c3a12c50540eb858883a747ace39",
                    "revert": false,
                    "revertMessage": "",
                    "selector": "0x0dcd7a6c",
                    "status": true,
                    "value": "0"
                },
                "nodeType": 0
            },
            "1": {
                "invocation": {
                    "address": "0x5b9e8728e316bbeb692d22daaab74f6cbf2c4691",
                    "callData": "0x0000000000000000000000007c49c3a12c50540eb858883a747ace398f3fe54d00000000000000000000000000000000000000000000000ffdf28905e43c0000000000000000000000000000dd974d5c2e2928dea5f71b9825b8b646686bd200000000000000000000000000000000000000000000000000000000005ebcbcef000000000000000000000000000000000000000000000000000000000000246a00000000000000000000000000000000000000000000000000000000000000c000000000000000000000000000000000000000000000000000000000000000418eece83641f3ce4761359c8a59db17dbbe497f343593c9d1b0861b44200356761ae979ab5bec6f4851d3febff9bfe447c4f932530c725c63b14dba91c622d8131c00000000000000000000000000000000000000000000000000000000000000",
                    "decodedMethod": {
                        "callParams": [
                            {
                                "name": "toAddress",
                                "type": "address",
                                "value": "0x7c49c3a12c50540eb858883a747ace398f3fe54d"
                            },
                            {
                                "name": "value",
                                "type": "uint256",
                                "value": "295,000,000,000,000,000,000"
                            },
                            {
                                "name": "tokenContractAddress",
                                "type": "address",
                                "value": "0xdd974d5c2e2928dea5f71b9825b8b646686bd200"
                            },
                            {
                                "name": "expireTime",
                                "type": "uint256",
                                "value": "1,589,427,439"
                            },
                            {
                                "name": "sequenceId",
                                "type": "uint256",
                                "value": "9,322"
                            },
                            {
                                "name": "signature",
                                "type": "bytes",
                                "value": "0x8eece83641f3ce4761359c8a59db17dbbe497f343593c9d1b0861b44200356761ae979ab5bec6f4851d3febff9bfe447c4f932530c725c63b14dba91c622d8131c"
                            }
                        ],
                        "constructorArguments": "",
                        "name": "sendMultiSigToken",
                        "returnParams": [],
                        "signature": "sendMultiSigToken(address,uint256,address,uint256,uint256,bytes)"
                    },
                    "errorInfo": "",
                    "fromAddress": "0xfd9785b1148c6550e065a189d702560c67950d54",
                    "gasUsed": 94113,
                    "id": 1,
                    "methodDecoded": true,
                    "operation": "DELEGATECALL",
                    "output": "",
                    "revert": false,
                    "revertMessage": "",
                    "selector": "0x0dcd7a6c",
                    "status": true,
                    "value": "0"
                },
                "nodeType": 0
            },
            "2": {
                "invocation": {
                    "address": "0x0000000000000000000000000000000000000001",
                    "callData": "0xd50a30922ef56a445a670260e216831461bdf691a5862d0288da3ac7000000000000000000000000000000000000000000000000000000000000001c8eece83641f3ce4761359c8a59db17dbbe497f343593c9d1b0861b44200356761ae979ab5bec6f4851d3febff9bfe447c4f932530c725c63b14dba91c622d813",
                    "decodedMethod": {
                        "callParams": [
                            {
                                "name": "hash",
                                "type": "bytes32",
                                "value": "0x80b3765ed50a30922ef56a445a670260e216831461bdf691a5862d0288da3ac7"
                            },
                            {
                                "name": "v",
                                "type": "uint256",
                                "value": "28"
                            },
                            {
                                "name": "r",
                                "type": "bytes32",
                                "value": "0x8eece83641f3ce4761359c8a59db17dbbe497f343593c9d1b0861b4420035676"
                            },
                            {
                                "name": "s",
                                "type": "bytes32",
                                "value": "0x1ae979ab5bec6f4851d3febff9bfe447c4f932530c725c63b14dba91c622d813"
                            }
                        ],
                        "constructorArguments": "",
                        "name": "ecrecover",
                        "returnParams": [
                            {
                                "name": "",
                                "type": "address",
                                "value": "0x25bab969bc4e3c650cb6361a0a0d6e26b154a7e9"
                            }
                        ],
                        "signature": "ecrecover(bytes32,uint256,bytes32,bytes32)"
                    },
                    "errorInfo": "",
                    "fromAddress": "0xfd9785b1148c6550e065a189d702560c67950d54",
                    "gasUsed": 3000,
                    "id": 2,
                    "methodDecoded": true,
                    "operation": "CALL",
                    "output": "0x00000000000000000000000025bab969bc4e3c650cb6361a0a0d6e26b154a7e9",
                    "revert": false,
                    "revertMessage": "",
                    "selector": "0x80b3765e",
                    "status": true,
                    "value": "0"
                },
                "nodeType": 0
            },
            "3": {
                "invocation": {
                    "address": "0xdd974d5c2e2928dea5f71b9825b8b646686bd200",
                    "callData": "0x0000000000000000000000007c49c3a12c50540eb858883a747ace398f3fe54d00000000000000000000000000000000000000000000000ffdf28905e43c0000",
                    "decodedMethod": {
                        "callParams": [
                            {
                                "name": "_to",
                                "type": "address",
                                "value": "0x7c49c3a12c50540eb858883a747ace398f3fe54d"
                            },
                            {
                                "decimalAvailable": true,
                                "name": "_value",
                                "type": "uint256",
                                "value": "295,000,000,000,000,000,000"
                            }
                        ],
                        "constructorArguments": "",
                        "name": "transfer",
                        "returnParams": [
                            {
                                "name": "",
                                "type": "bool",
                                "value": true
                            }
                        ],
                        "signature": "transfer(address,uint256)"
                    },
                    "errorInfo": "",
                    "fromAddress": "0xfd9785b1148c6550e065a189d702560c67950d54",
                    "gasUsed": 30853,
                    "id": 3,
                    "methodDecoded": true,
                    "operation": "CALL",
                    "output": "0x0000000000000000000000000000000000000000000000000000000000000001",
                    "revert": false,
                    "revertMessage": "",
                    "selector": "0xa9059cbb",
                    "status": true,
                    "value": "0"
                },
                "nodeType": 0
            },
            "4": {
                "event": {
                    "contract": "0xdd974d5c2e2928dea5f71b9825b8b646686bd200",
                    "decodedLog": {
                        "name": "Transfer",
                        "params": [
                            {
                                "name": "_from",
                                "type": "address",
                                "value": "0xfd9785b1148c6550e065a189d702560c67950d54"
                            },
                            {
                                "name": "_to",
                                "type": "address",
                                "value": "0x7c49c3a12c50540eb858883a747ace398f3fe54d"
                            },
                            {
                                "decimalAvailable": true,
                                "name": "_value",
                                "type": "uint256",
                                "value": "295,000,000,000,000,000,000"
                            }
                        ],
                        "signature": "Transfer(address,address,uint256)"
                    },
                    "id": 4,
                    "logData": "0x00000000000000000000000000000000000000000000000ffdf28905e43c0000",
                    "logDecoded": true,
                    "operation": "EVENT",
                    "revert": false,
                    "status": true,
                    "topics": [
                        "0xddf252ad1be2c89b69c2b068fc378daa952ba7f163c4a11628f55a4df523b3ef",
                        "0x000000000000000000000000fd9785b1148c6550e065a189d702560c67950d54",
                        "0x0000000000000000000000007c49c3a12c50540eb858883a747ace398f3fe54d"
                    ]
                },
                "nodeType": 1
            },
            "5": {
                "event": {
                    "contract": "0xfd9785b1148c6550e065a189d702560c67950d54",
                    "decodedLog": {
                        "name": "TokenTransacted",
                        "params": [
                            {
                                "name": "msgSender",
                                "type": "address",
                                "value": "0x32b56fc48684fa085df8c4cd2feaafc25c304db9"
                            },
                            {
                                "name": "otherSigner",
                                "type": "address",
                                "value": "0x25bab969bc4e3c650cb6361a0a0d6e26b154a7e9"
                            },
                            {
                                "name": "operation",
                                "type": "bytes32",
                                "value": "0x80b3765ed50a30922ef56a445a670260e216831461bdf691a5862d0288da3ac7"
                            },
                            {
                                "name": "toAddress",
                                "type": "address",
                                "value": "0x7c49c3a12c50540eb858883a747ace398f3fe54d"
                            },
                            {
                                "name": "value",
                                "type": "uint256",
                                "value": "295,000,000,000,000,000,000"
                            },
                            {
                                "name": "tokenContractAddress",
                                "type": "address",
                                "value": "0xdd974d5c2e2928dea5f71b9825b8b646686bd200"
                            }
                        ],
                        "signature": "TokenTransacted(address,address,bytes32,address,uint256,address)"
                    },
                    "id": 5,
                    "logData": "0x00000000000000000000000032b56fc48684fa085df8c4cd2feaafc25c304db900000000000000000000000025bab969bc4e3c650cb6361a0a0d6e26b154a7e980b3765ed50a30922ef56a445a670260e216831461bdf691a5862d0288da3ac70000000000000000000000007c49c3a12c50540eb858883a747ace398f3fe54d00000000000000000000000000000000000000000000000ffdf28905e43c0000000000000000000000000000dd974d5c2e2928dea5f71b9825b8b646686bd200",
                    "logDecoded": true,
                    "operation": "EVENT",
                    "revert": false,
                    "status": true,
                    "topics": [
                        "0xf3574a20a6defd7fc26917e8013cdd578db5eaa4d9a3eb54f2bb0983ad8ab40d"
                    ]
                },
                "nodeType": 1
            }
        },
        "gasFlame": [
            {
                "children": [
                    {
                        "children": [
                            {
                                "children": [],
                                "depth": 0,
                                "name": "Initial Gas",
                                "value": 23772
                            },
                            {
                                "children": [
                                    {
                                        "children": [
                                            {
                                                "children": [],
                                                "depth": 2,
                                                "name": "ecrecover",
                                                "value": 3000
                                            },
                                            {
                                                "children": [],
                                                "depth": 2,
                                                "name": "transfer",
                                                "value": 30853
                                            }
                                        ],
                                        "depth": 1,
                                        "name": "sendMultiSigToken",
                                        "value": 94113
                                    }
                                ],
                                "depth": 0,
                                "name": "Executed Gas",
                                "value": 94938
                            }
                        ],
                        "depth": -1,
                        "name": "Actual Gas Used",
                        "value": 118710
                    },
                    {
                        "children": [],
                        "depth": -1,
                        "name": "Refunded Gas",
                        "value": 0
                    }
                ],
                "depth": -2,
                "name": "Total Gas",
                "value": 118710
            }
        ],
        "isConfirmed": true,
        "mainTrace": [
            {
                "children": [
                    {
                        "children": [
                            {
                                "children": [
                                    {
                                        "children": [],
                                        "depth": 2,
                                        "id": 2,
                                        "order": 2
                                    },
                                    {
                                        "children": [
                                            {
                                                "children": [],
                                                "depth": 3,
                                                "id": 4,
                                                "order": 4
                                            }
                                        ],
                                        "depth": 2,
                                        "id": 3,
                                        "order": 3
                                    },
                                    {
                                        "children": [],
                                        "depth": 2,
                                        "id": 5,
                                        "order": 5
                                    }
                                ],
                                "depth": 1,
                                "id": 1,
                                "order": 1
                            }
                        ],
                        "depth": 0,
                        "id": 0,
                        "order": 0
                    }
                ],
                "depth": -1,
                "id": -1,
                "order": -1
            }
        ],
        "mainTraceNodeCount": 6,
        "parentIdMap": {
            "0": -1,
            "1": 0,
            "2": 1,
            "3": 1,
            "4": 3,
            "5": 1
        },
        "tidyTrace": [
            {
                "children": [
                    {
                        "children": [
                            {
                                "children": [
                                    {
                                        "children": [],
                                        "depth": 2,
                                        "id": 2,
                                        "order": 2
                                    },
                                    {
                                        "children": [
                                            {
                                                "children": [],
                                                "depth": 3,
                                                "id": 4,
                                                "order": 4
                                            }
                                        ],
                                        "depth": 2,
                                        "id": 3,
                                        "order": 3
                                    },
                                    {
                                        "children": [],
                                        "depth": 2,
                                        "id": 5,
                                        "order": 5
                                    }
                                ],
                                "depth": 1,
                                "id": 1,
                                "order": 1
                            }
                        ],
                        "depth": 0,
                        "id": 0,
                        "order": 0
                    }
                ],
                "depth": -1,
                "id": -1,
                "order": -1
            }
        ],
        "tidyTraceNodeCount": 6
    },
    "state_change": {
        "stateChanges": [
            {
                "address": "0xdd974d5c2e2928dea5f71b9825b8b646686bd200",
                "erc": "ERC-20",
                "slots": [
                    {
                        "current": "0x0000000000000000000000000000000000000000000011f3a451abd50abd9300",
                        "key": "0x1d8a5e5fe198480e46f06dc97419e2f9a3f6846d200cdf7aff4ed59899d3b09a",
                        "prev": "0x000000000000000000000000000000000000000000001203a24434daeef99300"
                    },
                    {
                        "current": "0x00000000000000000000000000000000000000000000000ffdf28905e43c0000",
                        "key": "0x4ac38b734106151062b5bcc0beb608fad09dd867488004463cf25564fee05ac1",
                        "prev": "0x0000000000000000000000000000000000000000000000000000000000000000"
                    }
                ],
                "storageVariables": [
                    {
                        "name": "balances",
                        "type": "mapping(address => uint256)",
                        "value": {
                            "pairs": [
                                {
                                    "key": "0x7c49c3a12c50540eb858883a747ace398f3fe54d",
                                    "value": {
                                        "current": "295000000000000000000",
                                        "prev": "0",
                                        "typeTag": 1
                                    }
                                },
                                {
                                    "key": "0xfd9785b1148c6550e065a189d702560c67950d54",
                                    "value": {
                                        "current": "84774629452522220000000",
                                        "prev": "85069629452522220000000",
                                        "typeTag": 1
                                    }
                                }
                            ],
                            "typeTag": 4
                        }
                    }
                ]
            },
            {
                "address": "0xfd9785b1148c6550e065a189d702560c67950d54",
                "erc": "",
                "slots": [
                    {
                        "current": "0x000000000000000000000000000000000000000000000000000000000000246a",
                        "key": "0x0000000000000000000000000000000000000000000000000000000000000005",
                        "prev": "0x0000000000000000000000000000000000000000000000000000000000002460"
                    }
                ],
                "storageVariables": []
            }
        ]
    }
}