{
    "balance_change": {
        "balanceChanges": [
            {
                "account": "0x09bbec2d116d4a4986f752907c77f85abab71b9e",
                "assets": [
                    {
                        "address": "0x4d831e22f062b5327dfdb15f0b6a5df20e2e3dd0",
                        "amount": "0.987429945016931665",
                        "iconUrl": "",
                        "isERC1155": false,
                        "isERC721": false,
                        "sign": true,
                        "value": "18.35525093"
                    }
                ]
            },
            {
                "account": "0xf047ab4c75cebf0eb9ed34ae2c186f3611aeafa6",
                "assets": [
                    {
                        "address": "0x4d831e22f062b5327dfdb15f0b6a5df20e2e3dd0",
                        "amount": "0.987429945016931665",
                        "iconUrl": "",
                        "isERC1155": false,
                        "isERC721": false,
                        "sign": false,
                        "value": "18.35525093"
                    }
                ]
            }
        ]
    },
    "profile": {
        "basic_info": {
            "baseFee": "6.618657399",
            "blockNumber": 19847701,
            "callData": "0xf3fef3a30000000000000000000000004d831e22f062b5327dfdb15f0b6a5df20e2e3dd00000000000000000000000000000000000000000000000000db40e4da9515551",
            "debugEnable": true,
            "errorInfo": "",
            "eventCount": 2,
            "feeRecipient": "0x1f9090aae28b8a3dceadf281b0f12828e676c326",
            "formatValue": "0",
            "gasLimit": 104080,
            "gasPrice": "6.664291049",
            "gasUsed": 64243,
            "intTxnCount": 1,
            "internalRevert": false,
            "internalRevertMessage": "",
            "isContractCreation": false,
            "isFlashloan": false,
            "maxFee": "8.741569513",
            "nonce": 450,
            "overwritedBlockNumber": -1,
            "priorityFee": "0.04563365",
            "receiver": "0xf047ab4c75cebf0eb9ed34ae2c186f3611aeafa6",
            "revertMessage": "",
            "sender": "0x09bbec2d116d4a4986f752907c77f85abab71b9e",
            "simulationEnable": true,
            "sourceTxnHash": "0x492efe917679fa8ac735f6845c66c3a98169581bf75c525c762ed41776021d8d",
            "status": true,
            "timestamp": "2024-05-11T15:32:11Z",
            "transactionFee": "0.000428134049860907",
            "txnHash": "0x492efe917679fa8ac735f6845c66c3a98169581bf75c525c762ed41776021d8d",
            "txnIndex": 94,
            "type": 2,
            "value": "0"
        },
        "fund_flow": [
            {
                "amount": "0.987429945016931665",
                "from": "0xf047ab4c75cebf0eb9ed34ae2c186f3611aeafa6",
                "id": 1,
                "isERC1155": false,
                "isERC721": false,
                "isReverted": false,
                "order": 1,
                "to": "0x09bbec2d116d4a4986f752907c77f85abab71b9e",
                "token": "0x4d831e22f062b5327dfdb15f0b6a5df20e2e3dd0"
            }
        ],
        "token_infos": [
            {
                "address": "0x4d831e22f062b5327dfdb15f0b6a5df20e2e3dd0",
                "decimals": 18
            },
            {
                "address": "0xc02aaa39b223fe8d0a0e5c4f27ead9083c756cc2",
                "decimals": 18
            },
            {
                "address": "0xeeeeeeeeeeeeeeeeeeeeeeeeeeeeeeeeeeeeeeee",
                "decimals": 18
            }
        ]
    },
    "address_label": {
        "labels": [
            {
                "address": "0x0000000000000000000000000000000000000004",
                "label": "Precompiled"
            },
            {
                "address": "0xeeeeeeeeeeeeeeeeeeeeeeeeeeeeeeeeeeeeeeee",
                "label": "Ether"
            },
            {
                "address": "0xf047ab4c75cebf0eb9ed34ae2c186f3611aeafa6",
                "label": "Zircuit: Restaking Pool"
            },
            {
                "address": "0x4d831e22f062b5327dfdb15f0b6a5df20e2e3dd0",
                "label": "cSTONE"
            },
            {
                "address": "0x0000000000000000000000000000000000000001",
                "label": "Precompiled"
            },
            {
                "address": "0x0000000000000000000000000000000000000002",
                "label": "Precompiled"
            },
            {
                "address": "0x0000000000000000000000000000000000000003",
                "label": "Precompiled"
            }
        ]
    },
    "trace": {
        "accountLabels": null,
        "dataMap": {
            "-1": {
                "invocation": {
                    "address": "0x09bbec2d116d4a4986f752907c77f85abab71b9e",
                    "callData": "",
                    "decodedMethod": null,
                    "errorInfo": "",
                    "fromAddress": "",
                    "gasUsed": 0,
                    "id": -1,
                    "methodDecoded": false,
                    "operation": "",
                    "output": "",
                    "revert": false,
                    "revertMessage": "",
                    "selector": "",
                    "status": false,
                    "value": ""
                },
                "nodeType": 0
            },
            "0": {
                "invocation": {
                    "address": "0xf047ab4c75cebf0eb9ed34ae2c186f3611aeafa6",
                    "callData": "0x0000000000000000000000004d831e22f062b5327dfdb15f0b6a5df20e2e3dd00000000000000000000000000000000000000000000000000db40e4da9515551",
                    "decodedMethod": {
                        "callParams": [
                            {
                                "name": "_token",
                                "type": "address",
                                "value": "0x4d831e22f062b5327dfdb15f0b6a5df20e2e3dd0"
                            },
                            {
                                "name": "_amount",
                                "type": "uint256",
                                "value": "987,429,945,016,931,665"
                            }
                        ],
                        "constructorArguments": "",
                        "name": "withdraw",
                        "returnParams": [],
                        "signature": "withdraw(address,uint256)"
                    },
                    "errorInfo": "",
                    "fromAddress": "0x09bbec2d116d4a4986f752907c77f85abab71b9e",
                    "gasUsed": 64243,
                    "id": 0,
                    "methodDecoded": true,
                    "operation": "CALL",
                    "output": "",
                    "revert": false,
                    "revertMessage": "",
                    "selector": "0xf3fef3a3",
                    "status": true,
                    "value": "0"
                },
                "nodeType": 0
            },
            "1": {
                "event": {
                    "contract": "0xf047ab4c75cebf0eb9ed34ae2c186f3611aeafa6",
                    "decodedLog": {
                        "name": "Withdraw",
                        "params": [
                            {
                                "name": "eventId",
                                "type": "uint256",
                                "value": "150,997"
                            },
                            {
                                "name": "withdrawer",
                                "type": "address",
                                "value": "0x09bbec2d116d4a4986f752907c77f85abab71b9e"
                            },
                            {
                                "name": "token",
                                "type": "address",
                                "value": "0x4d831e22f062b5327dfdb15f0b6a5df20e2e3dd0"
                            },
                            {
                                "name": "amount",
                                "type": "uint256",
                                "value": "987,429,945,016,931,665"
                            }
                        ],
                        "signature": "Withdraw(uint256,address,address,uint256)"
                    },
                    "id": 1,
                    "logData": "0x0000000000000000000000000000000000000000000000000db40e4da9515551",
                    "logDecoded": true,
                    "operation": "EVENT",
                    "revert": false,
                    "status": true,
                    "topics": [
                        "0xfeb2000dca3e617cd6f3a8bbb63014bb54a124aac6ccbf73ee7229b4cd01f120",
                        "0x0000000000000000000000000000000000000000000000000000000000024dd5",
                        "0x00000000000000000000000009bbec2d116d4a4986f752907c77f85abab71b9e",
                        "0x0000000000000000000000004d831e22f062b5327dfdb15f0b6a5df20e2e3dd0"
                    ]
                },
                "nodeType": 1
            },
            "2": {
                "invocation": {
                    "address": "0x4d831e22f062b5327dfdb15f0b6a5df20e2e3dd0",
                    "callData": "0x00000000000000000000000009bbec2d116d4a4986f752907c77f85abab71b9e0000000000000000000000000000000000000000000000000db40e4da9515551",
                    "decodedMethod": {
                        "callParams": [
                            {
                                "name": "to",
                                "type": "address",
                                "value": "0x09bbec2d116d4a4986f752907c77f85abab71b9e"
                            },
                            {
                                "decimalAvailable": true,
                                "name": "amount",
                                "type": "uint256",
                                "value": "987,429,945,016,931,665"
                            }
                        ],
                        "constructorArguments": "",
                        "name": "transfer",
                        "returnParams": [
                            {
                                "name": "",
                                "type": "bool",
                                "value": true
                            }
                        ],
                        "signature": "transfer(address,uint256)"
                    },
                    "errorInfo": "",
                    "fromAddress": "0xf047ab4c75cebf0eb9ed34ae2c186f3611aeafa6",
                    "gasUsed": 30415,
                    "id": 2,
                    "methodDecoded": true,
                    "operation": "CALL",
                    "output": "0x0000000000000000000000000000000000000000000000000000000000000001",
                    "revert": false,
                    "revertMessage": "",
                    "selector": "0xa9059cbb",
                    "status": true,
                    "value": "0"
                },
                "nodeType": 0
            },
            "3": {
                "event": {
                    "contract": "0x4d831e22f062b5327dfdb15f0b6a5df20e2e3dd0",
                    "decodedLog": {
                        "name": "Transfer",
                        "params": [
                            {
                                "name": "from",
                                "type": "address",
                                "value": "0xf047ab4c75cebf0eb9ed34ae2c186f3611aeafa6"
                            },
                            {
                                "name": "to",
                                "type": "address",
                                "value": "0x09bbec2d116d4a4986f752907c77f85abab71b9e"
                            },
                            {
                                "decimalAvailable": true,
                                "name": "value",
                                "type": "uint256",
                                "value": "987,429,945,016,931,665"
                            }
                        ],
                        "signature": "Transfer(address,address,uint256)"
                    },
                    "id": 3,
                    "logData": "0x0000000000000000000000000000000000000000000000000db40e4da9515551",
                    "logDecoded": true,
                    "operation": "EVENT",
                    "revert": false,
                    "status": true,
                    "topics": [
                        "0xddf252ad1be2c89b69c2b068fc378daa952ba7f163c4a11628f55a4df523b3ef",
                        "0x000000000000000000000000f047ab4c75cebf0eb9ed34ae2c186f3611aeafa6",
                        "0x00000000000000000000000009bbec2d116d4a4986f752907c77f85abab71b9e"
                    ]
                },
                "nodeType": 1
            }
        },
        "gasFlame": [
            {
                "children": [
                    {
                        "children": [
                            {
                                "children": [],
                                "depth": 0,
                                "name": "Initial Gas",
                                "value": 21656
                            },
                            {
                                "children": [
                                    {
                                        "children": [],
                                        "depth": 1,
                                        "name": "transfer",
                                        "value": 30415
                                    }
                                ],
                                "depth": 0,
                                "name": "Executed Gas",
                                "value": 47387
                            }
                        ],
                        "depth": -1,
                        "name": "Actual Gas Used",
                        "value": 64243
                    },
                    {
                        "children": [],
                        "depth": -1,
                        "name": "Refunded Gas",
                        "value": 4800
                    }
                ],
                "depth": -2,
                "name": "Total Gas",
                "value": 69043
            }
        ],
        "isConfirmed": true,
        "mainTrace": [
            {
                "children": [
                    {
                        "children": [
                            {
                                "children": [],
                                "depth": 1,
                                "id": 1,
                                "order": 1
                            },
                            {
                                "children": [
                                    {
                                        "children": [],
                                        "depth": 2,
                                        "id": 3,
                                        "order": 3
                                    }
                                ],
                                "depth": 1,
                                "id": 2,
                                "order": 2
                            }
                        ],
                        "depth": 0,
                        "id": 0,
                        "order": 0
                    }
                ],
                "depth": -1,
                "id": -1,
                "order": -1
            }
        ],
        "mainTraceNodeCount": 4,
        "parentIdMap": {
            "0": -1,
            "1": 0,
            "2": 0,
            "3": 2
        },
        "tidyTrace": [
            {
                "children": [
                    {
                        "children": [
                            {
                                "children": [],
                                "depth": 1,
                                "id": 1,
                                "order": 1
                            },
                            {
                                "children": [
                                    {
                                        "children": [],
                                        "depth": 2,
                                        "id": 3,
                                        "order": 3
                                    }
                                ],
                                "depth": 1,
                                "id": 2,
                                "order": 2
                            }
                        ],
                        "depth": 0,
                        "id": 0,
                        "order": 0
                    }
                ],
                "depth": -1,
                "id": -1,
                "order": -1
            }
        ],
        "tidyTraceNodeCount": 4
    },
    "state_change": {
        "stateChanges": [
            {
                "address": "0x4d831e22f062b5327dfdb15f0b6a5df20e2e3dd0",
                "erc": "ERC-20",
                "slots": [
                    {
                        "current": "0x0000000000000000000000000000000000000000000000000db40e4da9515551",
                        "key": "0x66e31c1bd6172abc7ee62cc34335b4ea8154f4f8da8869323c5209aecc725523",
                        "prev": "0x0000000000000000000000000000000000000000000000000000000000000000"
                    },
                    {
                        "current": "0x0000000000000000000000000000000000000000000003c72786df350bf75b7b",
                        "key": "0xcfa47edc166c1752da61124d90f262f7ac31ed5af7ea4f2df913abf3c5c66fa0",
                        "prev": "0x0000000000000000000000000000000000000000000003c7353aed82b548b0cc"
                    }
                ],
                "storageVariables": [
                    {
                        "name": "_balances",
                        "type": "mapping(address => uint256)",
                        "value": {
                            "pairs": [
                                {
                                    "key": "0x09bbec2d116d4a4986f752907c77f85abab71b9e",
                                    "value": {
                                        "current": "987429945016931665",
                                        "prev": "0",
                                        "typeTag": 1
                                    }
                                },
                                {
                                    "key": "0xf047ab4c75cebf0eb9ed34ae2c186f3611aeafa6",
                                    "value": {
                                        "current": "17840849728510421851003",
                                        "prev": "17841837158455438782668",
                                        "typeTag": 1
                                    }
                                }
                            ],
                            "typeTag": 4
                        }
                    }
                ]
            },
            {
                "address": "0xf047ab4c75cebf0eb9ed34ae2c186f3611aeafa6",
                "erc": "",
                "slots": [
                    {
                        "current": "0x0000000000000000000000000000000000000000000000000000000000000000",
                        "key": "0x4c1c128673a94e81f8328001375112ef98af3dcd7377251b9c83fc7399405cd6",
                        "prev": "0x0000000000000000000000000000000000000000000000000db40e4da9515551"
                    },
                    {
                        "current": "0x0000000000000000000000000000000000000000000000000000000000024dd5",
                        "key": "0x0000000000000000000000000000000000000000000000000000000000000008",
                        "prev": "0x0000000000000000000000000000000000000000000000000000000000024dd4"
                    }
                ],
                "storageVariables": [
                    {
                        "name": "balance",
                        "type": "mapping(address => mapping(address => uint256))",
                        "value": {
                            "pairs": [
                                {
                                    "key": "0x4d831e22f062b5327dfdb15f0b6a5df20e2e3dd0",
                                    "value": {
                                        "pairs": [
                                            {
                                                "key": "0x09bbec2d116d4a4986f752907c77f85abab71b9e",
                                                "value": {
                                                    "current": "0",
                                                    "prev": "987429945016931665",
                                                    "typeTag": 1
                                                }
                                            }
                                        ],
                                        "typeTag": 4
                                    }
                                }
                            ],
                            "typeTag": 4
                        }
                    },
                    {
                        "name": "eventId",
                        "type": "uint256",
                        "value": {
                            "current": "150997",
                            "prev": "150996",
                            "typeTag": 1
                        }
                    }
                ]
            }
        ]
    }
}