{
    "balance_change": {
        "balanceChanges": [
            {
                "account": "0xf1d27ed044880e5ea9d7e06aee9fef3f2f2ac5cb",
                "assets": [
                    {
                        "address": "0x3a10cc47571b341e7edcb97bca9f287994baa58c",
                        "amount": "20,000",
                        "iconUrl": "",
                        "isERC1155": false,
                        "isERC721": false,
                        "sign": false,
                        "value": ""
                    }
                ]
            },
            {
                "account": "0x780be61a5d22f339267c35d2cb410917b83c5635",
                "assets": [
                    {
                        "address": "0x3a10cc47571b341e7edcb97bca9f287994baa58c",
                        "amount": "20,000",
                        "iconUrl": "",
                        "isERC1155": false,
                        "isERC721": false,
                        "sign": true,
                        "value": ""
                    }
                ]
            }
        ]
    },
    "profile": {
        "basic_info": {
            "baseFee": "",
            "blockNumber": 12139212,
            "callData": "0xa9059cbb000000000000000000000000780be61a5d22f339267c35d2cb410917b83c563500000000000000000000000000000000000000000000043c33c1937564800000",
            "debugEnable": true,
            "errorInfo": "",
            "eventCount": 1,
            "feeRecipient": "0xea674fdde714fd979de3edf0f56aa9716b898ec8",
            "formatValue": "0",
            "gasLimit": 62256,
            "gasPrice": "152",
            "gasUsed": 37256,
            "intTxnCount": 0,
            "internalRevert": false,
            "internalRevertMessage": "",
            "isContractCreation": false,
            "isFlashloan": false,
            "maxFee": "",
            "nonce": 0,
            "overwritedBlockNumber": -1,
            "priorityFee": "",
            "receiver": "0x3a10cc47571b341e7edcb97bca9f287994baa58c",
            "revertMessage": "",
            "sender": "0xf1d27ed044880e5ea9d7e06aee9fef3f2f2ac5cb",
            "simulationEnable": true,
            "sourceTxnHash": "0x49bc4f3970e55017fcd68b5b4cf4fcd09e010668fc631fdd796fbb068140df99",
            "status": true,
            "timestamp": "2021-03-30T07:11:56Z",
            "transactionFee": "0.005662912",
            "txnHash": "0x49bc4f3970e55017fcd68b5b4cf4fcd09e010668fc631fdd796fbb068140df99",
            "txnIndex": 47,
            "type": 0,
            "value": "0"
        },
        "fund_flow": [
            {
                "amount": "20,000",
                "from": "0xf1d27ed044880e5ea9d7e06aee9fef3f2f2ac5cb",
                "id": 1,
                "isERC1155": false,
                "isERC721": false,
                "isReverted": false,
                "order": 1,
                "to": "0x780be61a5d22f339267c35d2cb410917b83c5635",
                "token": "0x3a10cc47571b341e7edcb97bca9f287994baa58c"
            }
        ],
        "token_infos": [
            {
                "address": "0xeeeeeeeeeeeeeeeeeeeeeeeeeeeeeeeeeeeeeeee",
                "decimals": 18
            },
            {
                "address": "0x3a10cc47571b341e7edcb97bca9f287994baa58c",
                "decimals": 18
            },
            {
                "address": "0xc02aaa39b223fe8d0a0e5c4f27ead9083c756cc2",
                "decimals": 18
            }
        ]
    },
    "address_label": {
        "labels": [
            {
                "address": "0x0000000000000000000000000000000000000003",
                "label": "Precompiled"
            },
            {
                "address": "0x0000000000000000000000000000000000000004",
                "label": "Precompiled"
            },
            {
                "address": "0xeeeeeeeeeeeeeeeeeeeeeeeeeeeeeeeeeeeeeeee",
                "label": "Ether"
            },
            {
                "address": "0x3a10cc47571b341e7edcb97bca9f287994baa58c",
                "label": "WIFI Global (WIFI)"
            },
            {
                "address": "0x0000000000000000000000000000000000000001",
                "label": "Precompiled"
            },
            {
                "address": "0x0000000000000000000000000000000000000002",
                "label": "Precompiled"
            }
        ]
    },
    "trace": {
        "accountLabels": null,
        "dataMap": {
            "-1": {
                "invocation": {
                    "address": "0xf1d27ed044880e5ea9d7e06aee9fef3f2f2ac5cb",
                    "callData": "",
                    "decodedMethod": null,
                    "errorInfo": "",
                    "fromAddress": "",
                    "gasUsed": 0,
                    "id": -1,
                    "methodDecoded": false,
                    "operation": "",
                    "output": "",
                    "revert": false,
                    "revertMessage": "",
                    "selector": "",
                    "status": false,
                    "value": ""
                },
                "nodeType": 0
            },
            "0": {
                "invocation": {
                    "address": "0x3a10cc47571b341e7edcb97bca9f287994baa58c",
                    "callData": "0x000000000000000000000000780be61a5d22f339267c35d2cb410917b83c563500000000000000000000000000000000000000000000043c33c1937564800000",
                    "decodedMethod": {
                        "callParams": [
                            {
                                "name": "to",
                                "type": "address",
                                "value": "0x780be61a5d22f339267c35d2cb410917b83c5635"
                            },
                            {
                                "decimalAvailable": true,
                                "name": "value",
                                "type": "uint256",
                                "value": "20,000,000,000,000,000,000,000"
                            }
                        ],
                        "constructorArguments": "",
                        "name": "transfer",
                        "returnParams": [
                            {
                                "name": "",
                                "type": "bool",
                                "value": true
                            }
                        ],
                        "signature": "transfer(address,uint256)"
                    },
                    "errorInfo": "",
                    "fromAddress": "0xf1d27ed044880e5ea9d7e06aee9fef3f2f2ac5cb",
                    "gasUsed": 37256,
                    "id": 0,
                    "methodDecoded": true,
                    "operation": "CALL",
                    "output": "0x0000000000000000000000000000000000000000000000000000000000000001",
                    "revert": false,
                    "revertMessage": "",
                    "selector": "0xa9059cbb",
                    "status": true,
                    "value": "0"
                },
                "nodeType": 0
            },
            "1": {
                "event": {
                    "contract": "0x3a10cc47571b341e7edcb97bca9f287994baa58c",
                    "decodedLog": {
                        "name": "Transfer",
                        "params": [
                            {
                                "name": "from",
                                "type": "address",
                                "value": "0xf1d27ed044880e5ea9d7e06aee9fef3f2f2ac5cb"
                            },
                            {
                                "name": "to",
                                "type": "address",
                                "value": "0x780be61a5d22f339267c35d2cb410917b83c5635"
                            },
                            {
                                "decimalAvailable": true,
                                "name": "value",
                                "type": "uint256",
                                "value": "20,000,000,000,000,000,000,000"
                            }
                        ],
                        "signature": "Transfer(address,address,uint256)"
                    },
                    "id": 1,
                    "logData": "0x00000000000000000000000000000000000000000000043c33c1937564800000",
                    "logDecoded": true,
                    "operation": "EVENT",
                    "revert": false,
                    "status": true,
                    "topics": [
                        "0xddf252ad1be2c89b69c2b068fc378daa952ba7f163c4a11628f55a4df523b3ef",
                        "0x000000000000000000000000f1d27ed044880e5ea9d7e06aee9fef3f2f2ac5cb",
                        "0x000000000000000000000000780be61a5d22f339267c35d2cb410917b83c5635"
                    ]
                },
                "nodeType": 1
            }
        },
        "gasFlame": [
            {
                "children": [
                    {
                        "children": [
                            {
                                "children": [],
                                "depth": 0,
                                "name": "Initial Gas",
                                "value": 21656
                            },
                            {
                                "children": [],
                                "depth": 0,
                                "name": "Executed Gas",
                                "value": 30600
                            }
                        ],
                        "depth": -1,
                        "name": "Actual Gas Used",
                        "value": 37256
                    },
                    {
                        "children": [],
                        "depth": -1,
                        "name": "Refunded Gas",
                        "value": 15000
                    }
                ],
                "depth": -2,
                "name": "Total Gas",
                "value": 52256
            }
        ],
        "isConfirmed": true,
        "mainTrace": [
            {
                "children": [
                    {
                        "children": [
                            {
                                "children": [],
                                "depth": 1,
                                "id": 1,
                                "order": 1
                            }
                        ],
                        "depth": 0,
                        "id": 0,
                        "order": 0
                    }
                ],
                "depth": -1,
                "id": -1,
                "order": -1
            }
        ],
        "mainTraceNodeCount": 2,
        "parentIdMap": {
            "0": -1,
            "1": 0
        },
        "tidyTrace": [
            {
                "children": [
                    {
                        "children": [
                            {
                                "children": [],
                                "depth": 1,
                                "id": 1,
                                "order": 1
                            }
                        ],
                        "depth": 0,
                        "id": 0,
                        "order": 0
                    }
                ],
                "depth": -1,
                "id": -1,
                "order": -1
            }
        ],
        "tidyTraceNodeCount": 2
    },
    "state_change": {
        "stateChanges": [
            {
                "address": "0x3a10cc47571b341e7edcb97bca9f287994baa58c",
                "erc": "ERC-20",
                "slots": [
                    {
                        "current": "0x0000000000000000000000000000000000000000000000000000000000000000",
                        "key": "0x922fab03849d2df3ae77724ec3fff67cc745ebfba4eff4efcaf9dc1dfaac90e0",
                        "prev": "0x00000000000000000000000000000000000000000000043c33c1937564800000"
                    },
                    {
                        "current": "0x00000000000000000000000000000000000000000000043c33c1937564800000",
                        "key": "0x0d6cf647bbe2f766c507ec14ef5039520c7f8888baa444f811cbad0e5f526a40",
                        "prev": "0x0000000000000000000000000000000000000000000000000000000000000000"
                    }
                ],
                "storageVariables": [
                    {
                        "name": "_balances",
                        "type": "mapping(address => uint256)",
                        "value": {
                            "pairs": [
                                {
                                    "key": "0x780be61a5d22f339267c35d2cb410917b83c5635",
                                    "value": {
                                        "current": "20000000000000000000000",
                                        "prev": "0",
                                        "typeTag": 1
                                    }
                                },
                                {
                                    "key": "0xf1d27ed044880e5ea9d7e06aee9fef3f2f2ac5cb",
                                    "value": {
                                        "current": "0",
                                        "prev": "20000000000000000000000",
                                        "typeTag": 1
                                    }
                                }
                            ],
                            "typeTag": 4
                        }
                    }
                ]
            }
        ]
    }
}