{
    "balance_change": {
        "balanceChanges": [
            {
                "account": "0x0e1e3b3ab2788cdcc2d7d82e65048dca14cea596",
                "assets": [
                    {
                        "address": "0xeeeeeeeeeeeeeeeeeeeeeeeeeeeeeeeeeeeeeeee",
                        "amount": "0.05",
                        "iconUrl": "https://assets.blocksec.com/image/1663669189317-3.png",
                        "isERC1155": false,
                        "isERC721": false,
                        "sign": false,
                        "value": ""
                    }
                ]
            },
            {
                "account": "0x44e081cac2406a4efe165178c2a4d77f7a7854d4",
                "assets": [
                    {
                        "address": "0xeeeeeeeeeeeeeeeeeeeeeeeeeeeeeeeeeeeeeeee",
                        "amount": "0.05",
                        "iconUrl": "https://assets.blocksec.com/image/1663669189317-3.png",
                        "isERC1155": false,
                        "isERC721": false,
                        "sign": false,
                        "value": ""
                    }
                ]
            },
            {
                "account": "0x4d5f5ff50cc7fdbdc995d837ed467f6e99ca5d03",
                "assets": [
                    {
                        "address": "0x44e081cac2406a4efe165178c2a4d77f7a7854d4",
                        "amount": "0.05",
                        "iconUrl": "",
                        "isERC1155": false,
                        "isERC721": false,
                        "sign": false,
                        "value": ""
                    }
                ]
            },
            {
                "account": "0xa6cd930fc92f1634d8183af2fb86bd1766f2f82a",
                "assets": [
                    {
                        "address": "0xeeeeeeeeeeeeeeeeeeeeeeeeeeeeeeeeeeeeeeee",
                        "amount": "0.1",
                        "iconUrl": "https://assets.blocksec.com/image/1663669189317-3.png",
                        "isERC1155": false,
                        "isERC721": false,
                        "sign": true,
                        "value": ""
                    },
                    {
                        "address": "0x44e081cac2406a4efe165178c2a4d77f7a7854d4",
                        "amount": "0.05",
                        "iconUrl": "",
                        "isERC1155": false,
                        "isERC721": false,
                        "sign": true,
                        "value": ""
                    }
                ]
            }
        ]
    },
    "profile": {
        "basic_info": {
            "baseFee": "",
            "blockNumber": 8868331,
            "callData": "0x93b7b3ce000000000000000000000000000000000000000000000000000000000000002000000000000000000000000000000000000000000000000000000000000000ee0a660a5c0a18080112140000000000000000000000000000000000000000121f0a140e1e3b3ab2788cdcc2d7d82e65048dca14cea5961207b1a2bc2ec50000121f0a144d5f5ff50cc7fdbdc995d837ed467f6e99ca5d031207b1a2bc2ec5000010cba49d0418904e1241981418ce1f14df1815f4ddd7f3f88c53adca78e397bc9253f0e586e66336fbd440cc94c1eecc3d4bf83b1ab28d24158741e1cb93192c6ee8bca11c9c6704d1b4001241532ba3018c2017550c05adfd09295d81d7955500140aa2e44a0cfaf9c9f9976151cc980f6ecac8993e8e15e193fc966d86564ddae29dd5daaf449e19c56f646c01000000000000000000000000000000000000",
            "debugEnable": true,
            "errorInfo": "",
            "eventCount": 6,
            "feeRecipient": "0xea674fdde714fd979de3edf0f56aa9716b898ec8",
            "formatValue": "0.05",
            "gasLimit": 403433,
            "gasPrice": "10",
            "gasUsed": 397391,
            "intTxnCount": 7,
            "internalRevert": false,
            "internalRevertMessage": "",
            "isContractCreation": false,
            "isFlashloan": false,
            "maxFee": "",
            "nonce": 0,
            "overwritedBlockNumber": -1,
            "priorityFee": "",
            "receiver": "0x4f7f56d57607e346ff8719c9f34cba3bbccae71f",
            "revertMessage": "",
            "sender": "0x0e1e3b3ab2788cdcc2d7d82e65048dca14cea596",
            "simulationEnable": true,
            "sourceTxnHash": "0x49a093cf7b612c0369a4c962760a7905d8e0bada1b52de15e46db7f8b0c965d4",
            "status": true,
            "timestamp": "2019-11-04T00:37:15Z",
            "transactionFee": "0.00397391",
            "txnHash": "0x49a093cf7b612c0369a4c962760a7905d8e0bada1b52de15e46db7f8b0c965d4",
            "txnIndex": 75,
            "type": 0,
            "value": "50000000000000000"
        },
        "fund_flow": [
            {
                "amount": "0.05",
                "from": "0x0e1e3b3ab2788cdcc2d7d82e65048dca14cea596",
                "id": 1,
                "isERC1155": false,
                "isERC721": false,
                "isReverted": false,
                "order": 1,
                "to": "0x4f7f56d57607e346ff8719c9f34cba3bbccae71f",
                "token": "0xeeeeeeeeeeeeeeeeeeeeeeeeeeeeeeeeeeeeeeee"
            },
            {
                "amount": "0.05",
                "from": "0x4f7f56d57607e346ff8719c9f34cba3bbccae71f",
                "id": 2,
                "isERC1155": false,
                "isERC721": false,
                "isReverted": false,
                "order": 2,
                "to": "0xa6cd930fc92f1634d8183af2fb86bd1766f2f82a",
                "token": "0xeeeeeeeeeeeeeeeeeeeeeeeeeeeeeeeeeeeeeeee"
            },
            {
                "amount": "0.05",
                "from": "0x4d5f5ff50cc7fdbdc995d837ed467f6e99ca5d03",
                "id": 3,
                "isERC1155": false,
                "isERC721": false,
                "isReverted": false,
                "order": 3,
                "to": "0xa6cd930fc92f1634d8183af2fb86bd1766f2f82a",
                "token": "0x44e081cac2406a4efe165178c2a4d77f7a7854d4"
            },
            {
                "amount": "0.05",
                "from": "0x44e081cac2406a4efe165178c2a4d77f7a7854d4",
                "id": 4,
                "isERC1155": false,
                "isERC721": false,
                "isReverted": false,
                "order": 4,
                "to": "0xa6cd930fc92f1634d8183af2fb86bd1766f2f82a",
                "token": "0xeeeeeeeeeeeeeeeeeeeeeeeeeeeeeeeeeeeeeeee"
            }
        ],
        "token_infos": [
            {
                "address": "0x44e081cac2406a4efe165178c2a4d77f7a7854d4",
                "decimals": 18
            },
            {
                "address": "0xc02aaa39b223fe8d0a0e5c4f27ead9083c756cc2",
                "decimals": 18
            },
            {
                "address": "0xeeeeeeeeeeeeeeeeeeeeeeeeeeeeeeeeeeeeeeee",
                "decimals": 18
            }
        ]
    },
    "address_label": {
        "labels": [
            {
                "address": "0x0d0c1e10fff4b19802bf74c535bcb82e48d54a08",
                "label": "LedgerOperation"
            },
            {
                "address": "0x0000000000000000000000000000000000000002",
                "label": "Precompiled"
            },
            {
                "address": "0xa6cd930fc92f1634d8183af2fb86bd1766f2f82a",
                "label": "CelerWallet"
            },
            {
                "address": "0x4f7f56d57607e346ff8719c9f34cba3bbccae71f",
                "label": "CelerLedger"
            },
            {
                "address": "0x0000000000000000000000000000000000000001",
                "label": "Precompiled"
            },
            {
                "address": "0x0000000000000000000000000000000000000003",
                "label": "Precompiled"
            },
            {
                "address": "0x0000000000000000000000000000000000000004",
                "label": "Precompiled"
            },
            {
                "address": "0xeeeeeeeeeeeeeeeeeeeeeeeeeeeeeeeeeeeeeeee",
                "label": "Ether"
            },
            {
                "address": "0x44e081cac2406a4efe165178c2a4d77f7a7854d4",
                "label": "EthInPool (EthIP)"
            }
        ]
    },
    "trace": {
        "accountLabels": null,
        "dataMap": {
            "-1": {
                "invocation": {
                    "address": "0x0e1e3b3ab2788cdcc2d7d82e65048dca14cea596",
                    "callData": "",
                    "decodedMethod": null,
                    "errorInfo": "",
                    "fromAddress": "",
                    "gasUsed": 0,
                    "id": -1,
                    "methodDecoded": false,
                    "operation": "",
                    "output": "",
                    "revert": false,
                    "revertMessage": "",
                    "selector": "",
                    "status": false,
                    "value": ""
                },
                "nodeType": 0
            },
            "0": {
                "invocation": {
                    "address": "0x4f7f56d57607e346ff8719c9f34cba3bbccae71f",
                    "callData": "0x000000000000000000000000000000000000000000000000000000000000002000000000000000000000000000000000000000000000000000000000000000ee0a660a5c0a18080112140000000000000000000000000000000000000000121f0a140e1e3b3ab2788cdcc2d7d82e65048dca14cea5961207b1a2bc2ec50000121f0a144d5f5ff50cc7fdbdc995d837ed467f6e99ca5d031207b1a2bc2ec5000010cba49d0418904e1241981418ce1f14df1815f4ddd7f3f88c53adca78e397bc9253f0e586e66336fbd440cc94c1eecc3d4bf83b1ab28d24158741e1cb93192c6ee8bca11c9c6704d1b4001241532ba3018c2017550c05adfd09295d81d7955500140aa2e44a0cfaf9c9f9976151cc980f6ecac8993e8e15e193fc966d86564ddae29dd5daaf449e19c56f646c01000000000000000000000000000000000000",
                    "decodedMethod": {
                        "callParams": [
                            {
                                "name": "_openRequest",
                                "type": "bytes",
                                "value": "0x0a660a5c0a18080112140000000000000000000000000000000000000000121f0a140e1e3b3ab2788cdcc2d7d82e65048dca14cea5961207b1a2bc2ec50000121f0a144d5f5ff50cc7fdbdc995d837ed467f6e99ca5d031207b1a2bc2ec5000010cba49d0418904e1241981418ce1f14df1815f4ddd7f3f88c53adca78e397bc9253f0e586e66336fbd440cc94c1eecc3d4bf83b1ab28d24158741e1cb93192c6ee8bca11c9c6704d1b4001241532ba3018c2017550c05adfd09295d81d7955500140aa2e44a0cfaf9c9f9976151cc980f6ecac8993e8e15e193fc966d86564ddae29dd5daaf449e19c56f646c01"
                            }
                        ],
                        "constructorArguments": "",
                        "name": "openChannel",
                        "returnParams": [],
                        "signature": "openChannel(bytes)"
                    },
                    "errorInfo": "",
                    "fromAddress": "0x0e1e3b3ab2788cdcc2d7d82e65048dca14cea596",
                    "gasUsed": 397391,
                    "id": 0,
                    "methodDecoded": true,
                    "operation": "CALL",
                    "output": "",
                    "revert": false,
                    "revertMessage": "",
                    "selector": "0x93b7b3ce",
                    "status": true,
                    "value": "0.05"
                },
                "nodeType": 0
            },
            "1": {
                "invocation": {
                    "address": "0x0d0c1e10fff4b19802bf74c535bcb82e48d54a08",
                    "callData": "0x0000000000000000000000000000000000000000000000000000000000000001000000000000000000000000000000000000000000000000000000000000004000000000000000000000000000000000000000000000000000000000000000ee0a660a5c0a18080112140000000000000000000000000000000000000000121f0a140e1e3b3ab2788cdcc2d7d82e65048dca14cea5961207b1a2bc2ec50000121f0a144d5f5ff50cc7fdbdc995d837ed467f6e99ca5d031207b1a2bc2ec5000010cba49d0418904e1241981418ce1f14df1815f4ddd7f3f88c53adca78e397bc9253f0e586e66336fbd440cc94c1eecc3d4bf83b1ab28d24158741e1cb93192c6ee8bca11c9c6704d1b4001241532ba3018c2017550c05adfd09295d81d7955500140aa2e44a0cfaf9c9f9976151cc980f6ecac8993e8e15e193fc966d86564ddae29dd5daaf449e19c56f646c01000000000000000000000000000000000000",
                    "decodedMethod": null,
                    "errorInfo": "",
                    "fromAddress": "0x4f7f56d57607e346ff8719c9f34cba3bbccae71f",
                    "gasUsed": 358949,
                    "id": 1,
                    "methodDecoded": false,
                    "operation": "DELEGATECALL",
                    "output": "",
                    "revert": false,
                    "revertMessage": "",
                    "selector": "0x594db6e3",
                    "status": true,
                    "value": "0.05"
                },
                "nodeType": 0
            },
            "10": {
                "event": {
                    "contract": "0x44e081cac2406a4efe165178c2a4d77f7a7854d4",
                    "decodedLog": {
                        "name": "Approval",
                        "params": [
                            {
                                "name": "owner",
                                "type": "address",
                                "value": "0x4d5f5ff50cc7fdbdc995d837ed467f6e99ca5d03"
                            },
                            {
                                "name": "spender",
                                "type": "address",
                                "value": "0x4f7f56d57607e346ff8719c9f34cba3bbccae71f"
                            },
                            {
                                "decimalAvailable": true,
                                "name": "value",
                                "type": "uint256",
                                "value": "999,999,987,834,854,652,000,000,016"
                            }
                        ],
                        "signature": "Approval(address,address,uint256)"
                    },
                    "id": 10,
                    "logData": "0x0000000000000000000000000000000000000000033b2e3bf6fd38ff6376d810",
                    "logDecoded": true,
                    "operation": "EVENT",
                    "revert": false,
                    "status": true,
                    "topics": [
                        "0x8c5be1e5ebec7d5bd14f71427d1e84f3dd0314c0f7b2291e5b200ac8c7c3b925",
                        "0x0000000000000000000000004d5f5ff50cc7fdbdc995d837ed467f6e99ca5d03",
                        "0x0000000000000000000000004f7f56d57607e346ff8719c9f34cba3bbccae71f"
                    ]
                },
                "nodeType": 1
            },
            "11": {
                "event": {
                    "contract": "0x44e081cac2406a4efe165178c2a4d77f7a7854d4",
                    "decodedLog": {
                        "name": "Transfer",
                        "params": [
                            {
                                "name": "from",
                                "type": "address",
                                "value": "0x4d5f5ff50cc7fdbdc995d837ed467f6e99ca5d03"
                            },
                            {
                                "name": "to",
                                "type": "address",
                                "value": "0xa6cd930fc92f1634d8183af2fb86bd1766f2f82a"
                            },
                            {
                                "decimalAvailable": true,
                                "name": "value",
                                "type": "uint256",
                                "value": "50,000,000,000,000,000"
                            }
                        ],
                        "signature": "Transfer(address,address,uint256)"
                    },
                    "id": 11,
                    "logData": "0x00000000000000000000000000000000000000000000000000b1a2bc2ec50000",
                    "logDecoded": true,
                    "operation": "EVENT",
                    "revert": false,
                    "status": true,
                    "topics": [
                        "0xddf252ad1be2c89b69c2b068fc378daa952ba7f163c4a11628f55a4df523b3ef",
                        "0x0000000000000000000000004d5f5ff50cc7fdbdc995d837ed467f6e99ca5d03",
                        "0x000000000000000000000000a6cd930fc92f1634d8183af2fb86bd1766f2f82a"
                    ]
                },
                "nodeType": 1
            },
            "12": {
                "invocation": {
                    "address": "0xa6cd930fc92f1634d8183af2fb86bd1766f2f82a",
                    "callData": "0x65be4c9012bf6caea73cab9f62d78bfcc9bc08eb56b0e97776438ccfb46c2998",
                    "decodedMethod": {
                        "callParams": [
                            {
                                "name": "_walletId",
                                "type": "bytes32",
                                "value": "0x65be4c9012bf6caea73cab9f62d78bfcc9bc08eb56b0e97776438ccfb46c2998"
                            }
                        ],
                        "constructorArguments": "",
                        "name": "depositETH",
                        "returnParams": [],
                        "signature": "depositETH(bytes32)"
                    },
                    "errorInfo": "",
                    "fromAddress": "0x44e081cac2406a4efe165178c2a4d77f7a7854d4",
                    "gasUsed": 8101,
                    "id": 12,
                    "methodDecoded": true,
                    "operation": "CALL",
                    "output": "",
                    "revert": false,
                    "revertMessage": "",
                    "selector": "0xd68d9d4e",
                    "status": true,
                    "value": "0.05"
                },
                "nodeType": 0
            },
            "13": {
                "event": {
                    "contract": "0xa6cd930fc92f1634d8183af2fb86bd1766f2f82a",
                    "decodedLog": {
                        "name": "DepositToWallet",
                        "params": [
                            {
                                "name": "walletId",
                                "type": "bytes32",
                                "value": "0x65be4c9012bf6caea73cab9f62d78bfcc9bc08eb56b0e97776438ccfb46c2998"
                            },
                            {
                                "name": "tokenAddress",
                                "type": "address",
                                "value": "0x0000000000000000000000000000000000000000"
                            },
                            {
                                "name": "amount",
                                "type": "uint256",
                                "value": "50,000,000,000,000,000"
                            }
                        ],
                        "signature": "DepositToWallet(bytes32,address,uint256)"
                    },
                    "id": 13,
                    "logData": "0x00000000000000000000000000000000000000000000000000b1a2bc2ec50000",
                    "logDecoded": true,
                    "operation": "EVENT",
                    "revert": false,
                    "status": true,
                    "topics": [
                        "0xbc8e388b96ba8b9f627cb6d72d3513182f763c33c6107ecd31191de1f71abc1a",
                        "0x65be4c9012bf6caea73cab9f62d78bfcc9bc08eb56b0e97776438ccfb46c2998",
                        "0x0000000000000000000000000000000000000000000000000000000000000000"
                    ]
                },
                "nodeType": 1
            },
            "2": {
                "invocation": {
                    "address": "0xa6cd930fc92f1634d8183af2fb86bd1766f2f82a",
                    "callData": "0x00000000000000000000000000000000000000000000000000000000000000600000000000000000000000004f7f56d57607e346ff8719c9f34cba3bbccae71ffab0df0d43cf2a6b9a2ed0f6101af2c412a9c7c98e3a55e555d26d0b4d83a05600000000000000000000000000000000000000000000000000000000000000020000000000000000000000000e1e3b3ab2788cdcc2d7d82e65048dca14cea5960000000000000000000000004d5f5ff50cc7fdbdc995d837ed467f6e99ca5d03",
                    "decodedMethod": {
                        "callParams": [
                            {
                                "name": "_owners",
                                "type": "address[]",
                                "value": [
                                    "0x0e1e3b3ab2788cdcc2d7d82e65048dca14cea596",
                                    "0x4d5f5ff50cc7fdbdc995d837ed467f6e99ca5d03"
                                ]
                            },
                            {
                                "name": "_operator",
                                "type": "address",
                                "value": "0x4f7f56d57607e346ff8719c9f34cba3bbccae71f"
                            },
                            {
                                "name": "_nonce",
                                "type": "bytes32",
                                "value": "0xfab0df0d43cf2a6b9a2ed0f6101af2c412a9c7c98e3a55e555d26d0b4d83a056"
                            }
                        ],
                        "constructorArguments": "",
                        "name": "create",
                        "returnParams": [
                            {
                                "name": "",
                                "type": "bytes32",
                                "value": "0x65be4c9012bf6caea73cab9f62d78bfcc9bc08eb56b0e97776438ccfb46c2998"
                            }
                        ],
                        "signature": "create(address[],address,bytes32)"
                    },
                    "errorInfo": "",
                    "fromAddress": "0x4f7f56d57607e346ff8719c9f34cba3bbccae71f",
                    "gasUsed": 90576,
                    "id": 2,
                    "methodDecoded": true,
                    "operation": "CALL",
                    "output": "0x65be4c9012bf6caea73cab9f62d78bfcc9bc08eb56b0e97776438ccfb46c2998",
                    "revert": false,
                    "revertMessage": "",
                    "selector": "0x0d63a1fd",
                    "status": true,
                    "value": "0"
                },
                "nodeType": 0
            },
            "3": {
                "event": {
                    "contract": "0xa6cd930fc92f1634d8183af2fb86bd1766f2f82a",
                    "decodedLog": {
                        "name": "CreateWallet",
                        "params": [
                            {
                                "name": "walletId",
                                "type": "bytes32",
                                "value": "0x65be4c9012bf6caea73cab9f62d78bfcc9bc08eb56b0e97776438ccfb46c2998"
                            },
                            {
                                "name": "owners",
                                "type": "address[]",
                                "value": "0xb1b69b93cc40c81c10380ccc172842c78c7faad4fc89c52443e4ba0065d862ea"
                            },
                            {
                                "name": "operator",
                                "type": "address",
                                "value": "0x4f7f56d57607e346ff8719c9f34cba3bbccae71f"
                            }
                        ],
                        "signature": "CreateWallet(bytes32,address[],address)"
                    },
                    "id": 3,
                    "logData": "0x",
                    "logDecoded": true,
                    "operation": "EVENT",
                    "revert": false,
                    "status": true,
                    "topics": [
                        "0xe778e91533ef049a5fc99752bc4efb2b50ca4c967dfc0d4bb4782fb128070c34",
                        "0x65be4c9012bf6caea73cab9f62d78bfcc9bc08eb56b0e97776438ccfb46c2998",
                        "0xb1b69b93cc40c81c10380ccc172842c78c7faad4fc89c52443e4ba0065d862ea",
                        "0x0000000000000000000000004f7f56d57607e346ff8719c9f34cba3bbccae71f"
                    ]
                },
                "nodeType": 1
            },
            "4": {
                "invocation": {
                    "address": "0x0000000000000000000000000000000000000001",
                    "callData": "0xb0c22bb82a027dca91d93f90034209175b65ee548351fff209013ab0000000000000000000000000000000000000000000000000000000000000001b981418ce1f14df1815f4ddd7f3f88c53adca78e397bc9253f0e586e66336fbd440cc94c1eecc3d4bf83b1ab28d24158741e1cb93192c6ee8bca11c9c6704d1b4",
                    "decodedMethod": {
                        "callParams": [
                            {
                                "name": "hash",
                                "type": "bytes32",
                                "value": "0x1651186cb0c22bb82a027dca91d93f90034209175b65ee548351fff209013ab0"
                            },
                            {
                                "name": "v",
                                "type": "uint256",
                                "value": "27"
                            },
                            {
                                "name": "r",
                                "type": "bytes32",
                                "value": "0x981418ce1f14df1815f4ddd7f3f88c53adca78e397bc9253f0e586e66336fbd4"
                            },
                            {
                                "name": "s",
                                "type": "bytes32",
                                "value": "0x40cc94c1eecc3d4bf83b1ab28d24158741e1cb93192c6ee8bca11c9c6704d1b4"
                            }
                        ],
                        "constructorArguments": "",
                        "name": "ecrecover",
                        "returnParams": [
                            {
                                "name": "",
                                "type": "address",
                                "value": "0x0e1e3b3ab2788cdcc2d7d82e65048dca14cea596"
                            }
                        ],
                        "signature": "ecrecover(bytes32,uint256,bytes32,bytes32)"
                    },
                    "errorInfo": "",
                    "fromAddress": "0x4f7f56d57607e346ff8719c9f34cba3bbccae71f",
                    "gasUsed": 3000,
                    "id": 4,
                    "methodDecoded": true,
                    "operation": "STATICCALL",
                    "output": "0x0000000000000000000000000e1e3b3ab2788cdcc2d7d82e65048dca14cea596",
                    "revert": false,
                    "revertMessage": "",
                    "selector": "0x1651186c",
                    "status": true,
                    "value": "0"
                },
                "nodeType": 0
            },
            "5": {
                "invocation": {
                    "address": "0x0000000000000000000000000000000000000001",
                    "callData": "0xb0c22bb82a027dca91d93f90034209175b65ee548351fff209013ab0000000000000000000000000000000000000000000000000000000000000001c532ba3018c2017550c05adfd09295d81d7955500140aa2e44a0cfaf9c9f9976151cc980f6ecac8993e8e15e193fc966d86564ddae29dd5daaf449e19c56f646c",
                    "decodedMethod": {
                        "callParams": [
                            {
                                "name": "hash",
                                "type": "bytes32",
                                "value": "0x1651186cb0c22bb82a027dca91d93f90034209175b65ee548351fff209013ab0"
                            },
                            {
                                "name": "v",
                                "type": "uint256",
                                "value": "28"
                            },
                            {
                                "name": "r",
                                "type": "bytes32",
                                "value": "0x532ba3018c2017550c05adfd09295d81d7955500140aa2e44a0cfaf9c9f99761"
                            },
                            {
                                "name": "s",
                                "type": "bytes32",
                                "value": "0x51cc980f6ecac8993e8e15e193fc966d86564ddae29dd5daaf449e19c56f646c"
                            }
                        ],
                        "constructorArguments": "",
                        "name": "ecrecover",
                        "returnParams": [
                            {
                                "name": "",
                                "type": "address",
                                "value": "0x4d5f5ff50cc7fdbdc995d837ed467f6e99ca5d03"
                            }
                        ],
                        "signature": "ecrecover(bytes32,uint256,bytes32,bytes32)"
                    },
                    "errorInfo": "",
                    "fromAddress": "0x4f7f56d57607e346ff8719c9f34cba3bbccae71f",
                    "gasUsed": 3000,
                    "id": 5,
                    "methodDecoded": true,
                    "operation": "STATICCALL",
                    "output": "0x0000000000000000000000004d5f5ff50cc7fdbdc995d837ed467f6e99ca5d03",
                    "revert": false,
                    "revertMessage": "",
                    "selector": "0x1651186c",
                    "status": true,
                    "value": "0"
                },
                "nodeType": 0
            },
            "6": {
                "event": {
                    "contract": "0x4f7f56d57607e346ff8719c9f34cba3bbccae71f",
                    "decodedLog": {
                        "name": "OpenChannel",
                        "params": [
                            {
                                "name": "channelId",
                                "type": "bytes32",
                                "value": "0x65be4c9012bf6caea73cab9f62d78bfcc9bc08eb56b0e97776438ccfb46c2998"
                            },
                            {
                                "name": "tokenAddress",
                                "type": "address",
                                "value": "0x0000000000000000000000000000000000000000"
                            },
                            {
                                "name": "tokenType",
                                "type": "uint256",
                                "value": "1"
                            },
                            {
                                "name": "peerAddrs",
                                "type": "address[2]",
                                "value": [
                                    "0x0e1e3b3ab2788cdcc2d7d82e65048dca14cea596",
                                    "0x4d5f5ff50cc7fdbdc995d837ed467f6e99ca5d03"
                                ]
                            },
                            {
                                "name": "initialDeposits",
                                "type": "uint256[2]",
                                "value": [
                                    "50,000,000,000,000,000",
                                    "50,000,000,000,000,000"
                                ]
                            }
                        ],
                        "signature": "OpenChannel(bytes32,uint256,address,address[2],uint256[2])"
                    },
                    "id": 6,
                    "logData": "0x00000000000000000000000000000000000000000000000000000000000000010000000000000000000000000e1e3b3ab2788cdcc2d7d82e65048dca14cea5960000000000000000000000004d5f5ff50cc7fdbdc995d837ed467f6e99ca5d0300000000000000000000000000000000000000000000000000b1a2bc2ec5000000000000000000000000000000000000000000000000000000b1a2bc2ec50000",
                    "logDecoded": true,
                    "operation": "EVENT",
                    "revert": false,
                    "status": true,
                    "topics": [
                        "0x9d9f66221370175606b4085f28a419b201c9b6dafd9e0c4520e5bf69ea3e166d",
                        "0x65be4c9012bf6caea73cab9f62d78bfcc9bc08eb56b0e97776438ccfb46c2998",
                        "0x0000000000000000000000000000000000000000000000000000000000000000"
                    ]
                },
                "nodeType": 1
            },
            "7": {
                "invocation": {
                    "address": "0xa6cd930fc92f1634d8183af2fb86bd1766f2f82a",
                    "callData": "0x65be4c9012bf6caea73cab9f62d78bfcc9bc08eb56b0e97776438ccfb46c2998",
                    "decodedMethod": {
                        "callParams": [
                            {
                                "name": "_walletId",
                                "type": "bytes32",
                                "value": "0x65be4c9012bf6caea73cab9f62d78bfcc9bc08eb56b0e97776438ccfb46c2998"
                            }
                        ],
                        "constructorArguments": "",
                        "name": "depositETH",
                        "returnParams": [],
                        "signature": "depositETH(bytes32)"
                    },
                    "errorInfo": "",
                    "fromAddress": "0x4f7f56d57607e346ff8719c9f34cba3bbccae71f",
                    "gasUsed": 23101,
                    "id": 7,
                    "methodDecoded": true,
                    "operation": "CALL",
                    "output": "",
                    "revert": false,
                    "revertMessage": "",
                    "selector": "0xd68d9d4e",
                    "status": true,
                    "value": "0.05"
                },
                "nodeType": 0
            },
            "8": {
                "event": {
                    "contract": "0xa6cd930fc92f1634d8183af2fb86bd1766f2f82a",
                    "decodedLog": {
                        "name": "DepositToWallet",
                        "params": [
                            {
                                "name": "walletId",
                                "type": "bytes32",
                                "value": "0x65be4c9012bf6caea73cab9f62d78bfcc9bc08eb56b0e97776438ccfb46c2998"
                            },
                            {
                                "name": "tokenAddress",
                                "type": "address",
                                "value": "0x0000000000000000000000000000000000000000"
                            },
                            {
                                "name": "amount",
                                "type": "uint256",
                                "value": "50,000,000,000,000,000"
                            }
                        ],
                        "signature": "DepositToWallet(bytes32,address,uint256)"
                    },
                    "id": 8,
                    "logData": "0x00000000000000000000000000000000000000000000000000b1a2bc2ec50000",
                    "logDecoded": true,
                    "operation": "EVENT",
                    "revert": false,
                    "status": true,
                    "topics": [
                        "0xbc8e388b96ba8b9f627cb6d72d3513182f763c33c6107ecd31191de1f71abc1a",
                        "0x65be4c9012bf6caea73cab9f62d78bfcc9bc08eb56b0e97776438ccfb46c2998",
                        "0x0000000000000000000000000000000000000000000000000000000000000000"
                    ]
                },
                "nodeType": 1
            },
            "9": {
                "invocation": {
                    "address": "0x44e081cac2406a4efe165178c2a4d77f7a7854d4",
                    "callData": "0x0000000000000000000000004d5f5ff50cc7fdbdc995d837ed467f6e99ca5d03000000000000000000000000a6cd930fc92f1634d8183af2fb86bd1766f2f82a65be4c9012bf6caea73cab9f62d78bfcc9bc08eb56b0e97776438ccfb46c299800000000000000000000000000000000000000000000000000b1a2bc2ec50000",
                    "decodedMethod": {
                        "callParams": [
                            {
                                "name": "_from",
                                "type": "address",
                                "value": "0x4d5f5ff50cc7fdbdc995d837ed467f6e99ca5d03"
                            },
                            {
                                "name": "_walletAddr",
                                "type": "address",
                                "value": "0xa6cd930fc92f1634d8183af2fb86bd1766f2f82a"
                            },
                            {
                                "name": "_walletId",
                                "type": "bytes32",
                                "value": "0x65be4c9012bf6caea73cab9f62d78bfcc9bc08eb56b0e97776438ccfb46c2998"
                            },
                            {
                                "name": "_value",
                                "type": "uint256",
                                "value": "50,000,000,000,000,000"
                            }
                        ],
                        "constructorArguments": "",
                        "name": "transferToCelerWallet",
                        "returnParams": [
                            {
                                "name": "",
                                "type": "bool",
                                "value": true
                            }
                        ],
                        "signature": "transferToCelerWallet(address,address,bytes32,uint256)"
                    },
                    "errorInfo": "",
                    "fromAddress": "0x4f7f56d57607e346ff8719c9f34cba3bbccae71f",
                    "gasUsed": 31861,
                    "id": 9,
                    "methodDecoded": true,
                    "operation": "CALL",
                    "output": "0x0000000000000000000000000000000000000000000000000000000000000001",
                    "revert": false,
                    "revertMessage": "",
                    "selector": "0x7e1cd431",
                    "status": true,
                    "value": "0"
                },
                "nodeType": 0
            }
        },
        "gasFlame": [
            {
                "children": [
                    {
                        "children": [
                            {
                                "children": [],
                                "depth": 0,
                                "name": "Initial Gas",
                                "value": 36248
                            },
                            {
                                "children": [
                                    {
                                        "children": [
                                            {
                                                "children": [],
                                                "depth": 2,
                                                "name": "create",
                                                "value": 90576
                                            },
                                            {
                                                "children": [],
                                                "depth": 2,
                                                "name": "ecrecover",
                                                "value": 3000
                                            },
                                            {
                                                "children": [],
                                                "depth": 2,
                                                "name": "ecrecover",
                                                "value": 3000
                                            },
                                            {
                                                "children": [],
                                                "depth": 2,
                                                "name": "depositETH",
                                                "value": 23101
                                            },
                                            {
                                                "children": [
                                                    {
                                                        "children": [],
                                                        "depth": 3,
                                                        "name": "depositETH",
                                                        "value": 8101
                                                    }
                                                ],
                                                "depth": 2,
                                                "name": "transferToCelerWallet",
                                                "value": 31861
                                            }
                                        ],
                                        "depth": 1,
                                        "name": "0x594db6e3",
                                        "value": 358949
                                    }
                                ],
                                "depth": 0,
                                "name": "Executed Gas",
                                "value": 361143
                            }
                        ],
                        "depth": -1,
                        "name": "Actual Gas Used",
                        "value": 397391
                    },
                    {
                        "children": [],
                        "depth": -1,
                        "name": "Refunded Gas",
                        "value": 0
                    }
                ],
                "depth": -2,
                "name": "Total Gas",
                "value": 397391
            }
        ],
        "isConfirmed": true,
        "mainTrace": [
            {
                "children": [
                    {
                        "children": [
                            {
                                "children": [
                                    {
                                        "children": [
                                            {
                                                "children": [],
                                                "depth": 3,
                                                "id": 3,
                                                "order": 3
                                            }
                                        ],
                                        "depth": 2,
                                        "id": 2,
                                        "order": 2
                                    },
                                    {
                                        "children": [],
                                        "depth": 2,
                                        "id": 4,
                                        "order": 4
                                    },
                                    {
                                        "children": [],
                                        "depth": 2,
                                        "id": 5,
                                        "order": 5
                                    },
                                    {
                                        "children": [],
                                        "depth": 2,
                                        "id": 6,
                                        "order": 6
                                    },
                                    {
                                        "children": [
                                            {
                                                "children": [],
                                                "depth": 3,
                                                "id": 8,
                                                "order": 8
                                            }
                                        ],
                                        "depth": 2,
                                        "id": 7,
                                        "order": 7
                                    },
                                    {
                                        "children": [
                                            {
                                                "children": [],
                                                "depth": 3,
                                                "id": 10,
                                                "order": 10
                                            },
                                            {
                                                "children": [],
                                                "depth": 3,
                                                "id": 11,
                                                "order": 11
                                            },
                                            {
                                                "children": [
                                                    {
                                                        "children": [],
                                                        "depth": 4,
                                                        "id": 13,
                                                        "order": 13
                                                    }
                                                ],
                                                "depth": 3,
                                                "id": 12,
                                                "order": 12
                                            }
                                        ],
                                        "depth": 2,
                                        "id": 9,
                                        "order": 9
                                    }
                                ],
                                "depth": 1,
                                "id": 1,
                                "order": 1
                            }
                        ],
                        "depth": 0,
                        "id": 0,
                        "order": 0
                    }
                ],
                "depth": -1,
                "id": -1,
                "order": -1
            }
        ],
        "mainTraceNodeCount": 14,
        "parentIdMap": {
            "0": -1,
            "1": 0,
            "10": 9,
            "11": 9,
            "12": 9,
            "13": 12,
            "2": 1,
            "3": 2,
            "4": 1,
            "5": 1,
            "6": 1,
            "7": 1,
            "8": 7,
            "9": 1
        },
        "tidyTrace": [
            {
                "children": [
                    {
                        "children": [
                            {
                                "children": [
                                    {
                                        "children": [
                                            {
                                                "children": [],
                                                "depth": 3,
                                                "id": 3,
                                                "order": 3
                                            }
                                        ],
                                        "depth": 2,
                                        "id": 2,
                                        "order": 2
                                    },
                                    {
                                        "children": [],
                                        "depth": 2,
                                        "id": 6,
                                        "order": 6
                                    },
                                    {
                                        "children": [
                                            {
                                                "children": [],
                                                "depth": 3,
                                                "id": 8,
                                                "order": 8
                                            }
                                        ],
                                        "depth": 2,
                                        "id": 7,
                                        "order": 7
                                    },
                                    {
                                        "children": [
                                            {
                                                "children": [],
                                                "depth": 3,
                                                "id": 10,
                                                "order": 10
                                            },
                                            {
                                                "children": [],
                                                "depth": 3,
                                                "id": 11,
                                                "order": 11
                                            },
                                            {
                                                "children": [
                                                    {
                                                        "children": [],
                                                        "depth": 4,
                                                        "id": 13,
                                                        "order": 13
                                                    }
                                                ],
                                                "depth": 3,
                                                "id": 12,
                                                "order": 12
                                            }
                                        ],
                                        "depth": 2,
                                        "id": 9,
                                        "order": 9
                                    }
                                ],
                                "depth": 1,
                                "id": 1,
                                "order": 1
                            }
                        ],
                        "depth": 0,
                        "id": 0,
                        "order": 0
                    }
                ],
                "depth": -1,
                "id": -1,
                "order": -1
            }
        ],
        "tidyTraceNodeCount": 12
    },
    "state_change": {
        "stateChanges": [
            {
                "address": "0x44e081cac2406a4efe165178c2a4d77f7a7854d4",
                "erc": "",
                "slots": [
                    {
                        "current": "0x0000000000000000000000000000000000000000033b2e3bf6fd38ff6376d810",
                        "key": "0x72d6df62ed3d782563f9b2d1c9375d11c63a347cf605d5d56bfd73f685d4c56e",
                        "prev": "0x0000000000000000000000000000000000000000033b2e3bf7aedbbb923bd810"
                    },
                    {
                        "current": "0x000000000000000000000000000000000000000000000003a67e907c56107ad0",
                        "key": "0xaf69532acb884aebd7d25d5dc8f418029366c660c1e75f0f31eb3aa448c52bcd",
                        "prev": "0x000000000000000000000000000000000000000000000003a730333884d57ad0"
                    }
                ],
                "storageVariables": [
                    {
                        "name": "allowed",
                        "type": "mapping(address => mapping(address => uint256))",
                        "value": {
                            "pairs": [
                                {
                                    "key": "0x4d5f5ff50cc7fdbdc995d837ed467f6e99ca5d03",
                                    "value": {
                                        "pairs": [
                                            {
                                                "key": "0x4f7f56d57607e346ff8719c9f34cba3bbccae71f",
                                                "value": {
                                                    "current": "999999987834854652000000016",
                                                    "prev": "999999987884854652000000016",
                                                    "typeTag": 1
                                                }
                                            }
                                        ],
                                        "typeTag": 4
                                    }
                                }
                            ],
                            "typeTag": 4
                        }
                    },
                    {
                        "name": "balances",
                        "type": "mapping(address => uint256)",
                        "value": {
                            "pairs": [
                                {
                                    "key": "0x4d5f5ff50cc7fdbdc995d837ed467f6e99ca5d03",
                                    "value": {
                                        "current": "67337417542184499920",
                                        "prev": "67387417542184499920",
                                        "typeTag": 1
                                    }
                                }
                            ],
                            "typeTag": 4
                        }
                    }
                ]
            },
            {
                "address": "0x4f7f56d57607e346ff8719c9f34cba3bbccae71f",
                "erc": "",
                "slots": [
                    {
                        "current": "0x0000000000000000000000000e1e3b3ab2788cdcc2d7d82e65048dca14cea596",
                        "key": "0xdd933cb48730c773eb6e8f47c1cb7f2ad737b6a94b42a8c96209cbf2b619db92",
                        "prev": "0x0000000000000000000000000000000000000000000000000000000000000000"
                    },
                    {
                        "current": "0x00000000000000000000000000000000000000000000000000b1a2bc2ec50000",
                        "key": "0xdd933cb48730c773eb6e8f47c1cb7f2ad737b6a94b42a8c96209cbf2b619db93",
                        "prev": "0x0000000000000000000000000000000000000000000000000000000000000000"
                    },
                    {
                        "current": "0x0000000000000000000000004d5f5ff50cc7fdbdc995d837ed467f6e99ca5d03",
                        "key": "0xdd933cb48730c773eb6e8f47c1cb7f2ad737b6a94b42a8c96209cbf2b619db9a",
                        "prev": "0x0000000000000000000000000000000000000000000000000000000000000000"
                    },
                    {
                        "current": "0x00000000000000000000000000000000000000000000000000b1a2bc2ec50000",
                        "key": "0xdd933cb48730c773eb6e8f47c1cb7f2ad737b6a94b42a8c96209cbf2b619db9b",
                        "prev": "0x0000000000000000000000000000000000000000000000000000000000000000"
                    },
                    {
                        "current": "0x0000000000000000000000000000000000000000000000000000000000002710",
                        "key": "0xdd933cb48730c773eb6e8f47c1cb7f2ad737b6a94b42a8c96209cbf2b619db8f",
                        "prev": "0x0000000000000000000000000000000000000000000000000000000000000000"
                    },
                    {
                        "current": "0x0000000000000000000000000000000000000000000000000000000000000bce",
                        "key": "0xcc69885fda6bcc1a4ace058b4a62bf5e179ea78fd58a1ccd71c22cc9b688792f",
                        "prev": "0x0000000000000000000000000000000000000000000000000000000000000bcd"
                    },
                    {
                        "current": "0x0000000000000000000000000000000000000000000000000000000000000001",
                        "key": "0xdd933cb48730c773eb6e8f47c1cb7f2ad737b6a94b42a8c96209cbf2b619db91",
                        "prev": "0x0000000000000000000000000000000000000000000000000000000000000000"
                    },
                    {
                        "current": "0x0000000000000000000000000000000000000000000000000000000000000001",
                        "key": "0xdd933cb48730c773eb6e8f47c1cb7f2ad737b6a94b42a8c96209cbf2b619db90",
                        "prev": "0x0000000000000000000000000000000000000000000000000000000000000000"
                    }
                ],
                "storageVariables": [
                    {
                        "name": "ledger",
                        "type": "struct LedgerStruct.Ledger",
                        "value": {
                            "fields": [
                                {
                                    "name": "channelStatusNums",
                                    "type": "mapping(uint256 => uint256)",
                                    "value": {
                                        "pairs": [
                                            {
                                                "key": "1",
                                                "value": {
                                                    "current": "3022",
                                                    "prev": "3021",
                                                    "typeTag": 1
                                                }
                                            }
                                        ],
                                        "typeTag": 4
                                    }
                                },
                                {
                                    "name": "channelMap",
                                    "type": "mapping(bytes32 => struct LedgerStruct.Channel)",
                                    "value": {
                                        "pairs": [
                                            {
                                                "key": "0x65be4c9012bf6caea73cab9f62d78bfcc9bc08eb56b0e97776438ccfb46c2998",
                                                "value": {
                                                    "fields": [
                                                        {
                                                            "name": "disputeTimeout",
                                                            "type": "uint256",
                                                            "value": {
                                                                "current": "10000",
                                                                "prev": "0",
                                                                "typeTag": 1
                                                            }
                                                        },
                                                        {
                                                            "name": "token",
                                                            "type": "struct PbEntity.TokenInfo",
                                                            "value": {
                                                                "fields": [
                                                                    {
                                                                        "name": "tokenType",
                                                                        "type": "enum PbEntity.TokenType",
                                                                        "value": {
                                                                            "current": "1",
                                                                            "prev": "0",
                                                                            "typeTag": 1
                                                                        }
                                                                    },
                                                                    {
                                                                        "name": "tokenAddress",
                                                                        "type": "address",
                                                                        "value": {
                                                                            "current": "0x0000000000000000000000000000000000000000",
                                                                            "prev": "0x0000000000000000000000000000000000000000",
                                                                            "typeTag": 1
                                                                        }
                                                                    }
                                                                ],
                                                                "typeTag": 3
                                                            }
                                                        },
                                                        {
                                                            "name": "status",
                                                            "type": "enum LedgerStruct.ChannelStatus",
                                                            "value": {
                                                                "current": "1",
                                                                "prev": "0",
                                                                "typeTag": 1
                                                            }
                                                        },
                                                        {
                                                            "name": "migratedTo",
                                                            "type": "address",
                                                            "value": {
                                                                "current": "0x0000000000000000000000000000000000000000",
                                                                "prev": "0x0000000000000000000000000000000000000000",
                                                                "typeTag": 1
                                                            }
                                                        },
                                                        {
                                                            "name": "peerProfiles",
                                                            "type": "struct LedgerStruct.PeerProfile[2]",
                                                            "value": {
                                                                "elemType": "struct LedgerStruct.PeerProfile",
                                                                "elems": [
                                                                    {
                                                                        "index": 0,
                                                                        "value": {
                                                                            "fields": [
                                                                                {
                                                                                    "name": "peerAddr",
                                                                                    "type": "address",
                                                                                    "value": {
                                                                                        "current": "0x0e1e3b3ab2788cdcc2d7d82e65048dca14cea596",
                                                                                        "prev": "0x0000000000000000000000000000000000000000",
                                                                                        "typeTag": 1
                                                                                    }
                                                                                },
                                                                                {
                                                                                    "name": "deposit",
                                                                                    "type": "uint256",
                                                                                    "value": {
                                                                                        "current": "50000000000000000",
                                                                                        "prev": "0",
                                                                                        "typeTag": 1
                                                                                    }
                                                                                }
                                                                            ],
                                                                            "typeTag": 3
                                                                        }
                                                                    },
                                                                    {
                                                                        "index": 1,
                                                                        "value": {
                                                                            "fields": [
                                                                                {
                                                                                    "name": "peerAddr",
                                                                                    "type": "address",
                                                                                    "value": {
                                                                                        "current": "0x4d5f5ff50cc7fdbdc995d837ed467f6e99ca5d03",
                                                                                        "prev": "0x0000000000000000000000000000000000000000",
                                                                                        "typeTag": 1
                                                                                    }
                                                                                },
                                                                                {
                                                                                    "name": "deposit",
                                                                                    "type": "uint256",
                                                                                    "value": {
                                                                                        "current": "50000000000000000",
                                                                                        "prev": "0",
                                                                                        "typeTag": 1
                                                                                    }
                                                                                }
                                                                            ],
                                                                            "typeTag": 3
                                                                        }
                                                                    }
                                                                ],
                                                                "typeTag": 2
                                                            }
                                                        }
                                                    ],
                                                    "typeTag": 3
                                                }
                                            }
                                        ],
                                        "typeTag": 4
                                    }
                                }
                            ],
                            "typeTag": 3
                        }
                    }
                ]
            },
            {
                "address": "0xa6cd930fc92f1634d8183af2fb86bd1766f2f82a",
                "erc": "",
                "slots": [
                    {
                        "current": "0x000000000000000000000000000000000000000000000000016345785d8a0000",
                        "key": "0xd70b20aead40fc1ecca41ced22fa4b8644958593adfe1491bf2b7eec98ee276e",
                        "prev": "0x0000000000000000000000000000000000000000000000000000000000000000"
                    },
                    {
                        "current": "0x0000000000000000000000004f7f56d57607e346ff8719c9f34cba3bbccae71f",
                        "key": "0x2e6ed087624f129580a000efbdaf7d3a38a5208b31f26d95a064dbfd2fc0633b",
                        "prev": "0x0000000000000000000000000000000000000000000000000000000000000000"
                    },
                    {
                        "current": "0x0000000000000000000000000000000000000000000000000000000000000bce",
                        "key": "0x0000000000000000000000000000000000000000000000000000000000000002",
                        "prev": "0x0000000000000000000000000000000000000000000000000000000000000bcd"
                    },
                    {
                        "current": "0x0000000000000000000000000000000000000000000000000000000000000002",
                        "key": "0x2e6ed087624f129580a000efbdaf7d3a38a5208b31f26d95a064dbfd2fc0633a",
                        "prev": "0x0000000000000000000000000000000000000000000000000000000000000000"
                    },
                    {
                        "current": "0x0000000000000000000000000e1e3b3ab2788cdcc2d7d82e65048dca14cea596",
                        "key": "0xca8c414f9a923097e4dfbc59d58086805df7ac3e52312335a71ef46a2c4b2ec9",
                        "prev": "0x0000000000000000000000000000000000000000000000000000000000000000"
                    },
                    {
                        "current": "0x0000000000000000000000004d5f5ff50cc7fdbdc995d837ed467f6e99ca5d03",
                        "key": "0xca8c414f9a923097e4dfbc59d58086805df7ac3e52312335a71ef46a2c4b2eca",
                        "prev": "0x0000000000000000000000000000000000000000000000000000000000000000"
                    }
                ],
                "storageVariables": [
                    {
                        "name": "wallets",
                        "type": "mapping(bytes32 => struct CelerWallet.Wallet)",
                        "value": {
                            "pairs": [
                                {
                                    "key": "0x65be4c9012bf6caea73cab9f62d78bfcc9bc08eb56b0e97776438ccfb46c2998",
                                    "value": {
                                        "fields": [
                                            {
                                                "name": "owners",
                                                "type": "address[]",
                                                "value": {
                                                    "elemType": "address",
                                                    "elems": [
                                                        {
                                                            "index": 0,
                                                            "value": {
                                                                "current": "0x0e1e3b3ab2788cdcc2d7d82e65048dca14cea596",
                                                                "prev": "0x0000000000000000000000000000000000000000",
                                                                "typeTag": 1
                                                            }
                                                        },
                                                        {
                                                            "index": 1,
                                                            "value": {
                                                                "current": "0x4d5f5ff50cc7fdbdc995d837ed467f6e99ca5d03",
                                                                "prev": "0x0000000000000000000000000000000000000000",
                                                                "typeTag": 1
                                                            }
                                                        }
                                                    ],
                                                    "typeTag": 2
                                                }
                                            },
                                            {
                                                "name": "operator",
                                                "type": "address",
                                                "value": {
                                                    "current": "0x4f7f56d57607e346ff8719c9f34cba3bbccae71f",
                                                    "prev": "0x0000000000000000000000000000000000000000",
                                                    "typeTag": 1
                                                }
                                            },
                                            {
                                                "name": "balances",
                                                "type": "mapping(address => uint256)",
                                                "value": {
                                                    "pairs": [
                                                        {
                                                            "key": "0x0000000000000000000000000000000000000000",
                                                            "value": {
                                                                "current": "100000000000000000",
                                                                "prev": "0",
                                                                "typeTag": 1
                                                            }
                                                        }
                                                    ],
                                                    "typeTag": 4
                                                }
                                            }
                                        ],
                                        "typeTag": 3
                                    }
                                }
                            ],
                            "typeTag": 4
                        }
                    },
                    {
                        "name": "walletNum",
                        "type": "uint256",
                        "value": {
                            "current": "3022",
                            "prev": "3021",
                            "typeTag": 1
                        }
                    }
                ]
            }
        ]
    }
}