{
    "balance_change": {
        "balanceChanges": [
            {
                "account": "0x7c43214bf9ef79ff1fcbc0e477e0dc36897db326",
                "assets": [
                    {
                        "address": "0xeeeeeeeeeeeeeeeeeeeeeeeeeeeeeeeeeeeeeeee",
                        "amount": "0.001",
                        "iconUrl": "https://assets.blocksec.com/image/1663669189317-3.png",
                        "isERC1155": false,
                        "isERC721": false,
                        "sign": false,
                        "value": ""
                    },
                    {
                        "address": "0x5beabaebb3146685dd74176f68a0721f91297d37",
                        "amount": "0.000001",
                        "iconUrl": "",
                        "isERC1155": false,
                        "isERC721": false,
                        "sign": true,
                        "value": "0.00037384"
                    }
                ]
            },
            {
                "account": "0x73282a63f0e3d7e9604575420f777361eca3c86a",
                "assets": [
                    {
                        "address": "0x5beabaebb3146685dd74176f68a0721f91297d37",
                        "amount": "0.000001",
                        "iconUrl": "",
                        "isERC1155": false,
                        "isERC721": false,
                        "sign": false,
                        "value": "0.00037384"
                    }
                ]
            },
            {
                "account": "0x2bbaa886f65ca1096730d315ebe4648161166eb2",
                "assets": [
                    {
                        "address": "0xeeeeeeeeeeeeeeeeeeeeeeeeeeeeeeeeeeeeeeee",
                        "amount": "0.001",
                        "iconUrl": "https://assets.blocksec.com/image/1663669189317-3.png",
                        "isERC1155": false,
                        "isERC721": false,
                        "sign": true,
                        "value": ""
                    }
                ]
            }
        ]
    },
    "profile": {
        "basic_info": {
            "baseFee": "",
            "blockNumber": 10623023,
            "callData": "0xebeee70c000000000000000000000000000000000000000000000000000000000000030a00000000000000000000000000000000000000000000000000038d7ea4c68000",
            "debugEnable": true,
            "errorInfo": "",
            "eventCount": 2,
            "feeRecipient": "0x97c7e57edefef758896cd9b309d57cdaca544215",
            "formatValue": "0.001",
            "gasLimit": 550996,
            "gasPrice": "49",
            "gasUsed": 120631,
            "intTxnCount": 3,
            "internalRevert": false,
            "internalRevertMessage": "",
            "isContractCreation": false,
            "isFlashloan": false,
            "maxFee": "",
            "nonce": 58,
            "overwritedBlockNumber": -1,
            "priorityFee": "",
            "receiver": "0x73282a63f0e3d7e9604575420f777361eca3c86a",
            "revertMessage": "",
            "sender": "0x7c43214bf9ef79ff1fcbc0e477e0dc36897db326",
            "simulationEnable": true,
            "sourceTxnHash": "0x493632ce3f36330cfa8d72c85a97eb4d0264e675bc9de5625ab113de52dc1e63",
            "status": true,
            "timestamp": "2020-08-09T02:38:19Z",
            "transactionFee": "0.005910919",
            "txnHash": "0x493632ce3f36330cfa8d72c85a97eb4d0264e675bc9de5625ab113de52dc1e63",
            "txnIndex": 91,
            "type": 0,
            "value": "1000000000000000"
        },
        "fund_flow": [
            {
                "amount": "0.001",
                "from": "0x7c43214bf9ef79ff1fcbc0e477e0dc36897db326",
                "id": 1,
                "isERC1155": false,
                "isERC721": false,
                "isReverted": false,
                "order": 1,
                "to": "0x73282a63f0e3d7e9604575420f777361eca3c86a",
                "token": "0xeeeeeeeeeeeeeeeeeeeeeeeeeeeeeeeeeeeeeeee"
            },
            {
                "amount": "0.000001",
                "from": "0x73282a63f0e3d7e9604575420f777361eca3c86a",
                "id": 2,
                "isERC1155": false,
                "isERC721": false,
                "isReverted": false,
                "order": 2,
                "to": "0x7c43214bf9ef79ff1fcbc0e477e0dc36897db326",
                "token": "0x5beabaebb3146685dd74176f68a0721f91297d37"
            },
            {
                "amount": "0.001",
                "from": "0x73282a63f0e3d7e9604575420f777361eca3c86a",
                "id": 3,
                "isERC1155": false,
                "isERC721": false,
                "isReverted": false,
                "order": 3,
                "to": "0x2bbaa886f65ca1096730d315ebe4648161166eb2",
                "token": "0xeeeeeeeeeeeeeeeeeeeeeeeeeeeeeeeeeeeeeeee"
            }
        ],
        "token_infos": [
            {
                "address": "0xeeeeeeeeeeeeeeeeeeeeeeeeeeeeeeeeeeeeeeee",
                "decimals": 18
            },
            {
                "address": "0x5beabaebb3146685dd74176f68a0721f91297d37",
                "decimals": 18
            },
            {
                "address": "0xc02aaa39b223fe8d0a0e5c4f27ead9083c756cc2",
                "decimals": 18
            }
        ]
    },
    "address_label": {
        "labels": [
            {
                "address": "0xeeeeeeeeeeeeeeeeeeeeeeeeeeeeeeeeeeeeeeee",
                "label": "Ether"
            },
            {
                "address": "0x5beabaebb3146685dd74176f68a0721f91297d37",
                "label": "Bounce Finance: Old BOT Token"
            },
            {
                "address": "0x73282a63f0e3d7e9604575420f777361eca3c86a",
                "label": "AdminUpgradeabilityProxy"
            },
            {
                "address": "0x0000000000000000000000000000000000000001",
                "label": "Precompiled"
            },
            {
                "address": "0x0000000000000000000000000000000000000002",
                "label": "Precompiled"
            },
            {
                "address": "0x0000000000000000000000000000000000000003",
                "label": "Precompiled"
            },
            {
                "address": "0x0000000000000000000000000000000000000004",
                "label": "Precompiled"
            }
        ]
    },
    "trace": {
        "accountLabels": null,
        "dataMap": {
            "-1": {
                "invocation": {
                    "address": "0x7c43214bf9ef79ff1fcbc0e477e0dc36897db326",
                    "callData": "",
                    "decodedMethod": null,
                    "errorInfo": "",
                    "fromAddress": "",
                    "gasUsed": 0,
                    "id": -1,
                    "methodDecoded": false,
                    "operation": "",
                    "output": "",
                    "revert": false,
                    "revertMessage": "",
                    "selector": "",
                    "status": false,
                    "value": ""
                },
                "nodeType": 0
            },
            "0": {
                "invocation": {
                    "address": "0x73282a63f0e3d7e9604575420f777361eca3c86a",
                    "callData": "0x000000000000000000000000000000000000000000000000000000000000030a00000000000000000000000000000000000000000000000000038d7ea4c68000",
                    "decodedMethod": null,
                    "errorInfo": "",
                    "fromAddress": "0x7c43214bf9ef79ff1fcbc0e477e0dc36897db326",
                    "gasUsed": 120631,
                    "id": 0,
                    "methodDecoded": false,
                    "operation": "CALL",
                    "output": "",
                    "revert": false,
                    "revertMessage": "",
                    "selector": "0xebeee70c",
                    "status": true,
                    "value": "0.001"
                },
                "nodeType": 0
            },
            "1": {
                "invocation": {
                    "address": "0x74e6fc4540ccd6d31eeec1fc3c80dee2f68623b6",
                    "callData": "0x000000000000000000000000000000000000000000000000000000000000030a00000000000000000000000000000000000000000000000000038d7ea4c68000",
                    "decodedMethod": null,
                    "errorInfo": "",
                    "fromAddress": "0x73282a63f0e3d7e9604575420f777361eca3c86a",
                    "gasUsed": 96444,
                    "id": 1,
                    "methodDecoded": false,
                    "operation": "DELEGATECALL",
                    "output": "",
                    "revert": false,
                    "revertMessage": "",
                    "selector": "0xebeee70c",
                    "status": true,
                    "value": "0.001"
                },
                "nodeType": 0
            },
            "2": {
                "invocation": {
                    "address": "0x5beabaebb3146685dd74176f68a0721f91297d37",
                    "callData": "0x0000000000000000000000007c43214bf9ef79ff1fcbc0e477e0dc36897db326000000000000000000000000000000000000000000000000000000e8d4a51000",
                    "decodedMethod": {
                        "callParams": [
                            {
                                "name": "recipient",
                                "type": "address",
                                "value": "0x7c43214bf9ef79ff1fcbc0e477e0dc36897db326"
                            },
                            {
                                "decimalAvailable": true,
                                "name": "amount",
                                "type": "uint256",
                                "value": "1,000,000,000,000"
                            }
                        ],
                        "constructorArguments": "",
                        "name": "transfer",
                        "returnParams": [
                            {
                                "name": "",
                                "type": "bool",
                                "value": true
                            }
                        ],
                        "signature": "transfer(address,uint256)"
                    },
                    "errorInfo": "",
                    "fromAddress": "0x73282a63f0e3d7e9604575420f777361eca3c86a",
                    "gasUsed": 14784,
                    "id": 2,
                    "methodDecoded": true,
                    "operation": "CALL",
                    "output": "0x0000000000000000000000000000000000000000000000000000000000000001",
                    "revert": false,
                    "revertMessage": "",
                    "selector": "0xa9059cbb",
                    "status": true,
                    "value": "0"
                },
                "nodeType": 0
            },
            "3": {
                "event": {
                    "contract": "0x5beabaebb3146685dd74176f68a0721f91297d37",
                    "decodedLog": {
                        "name": "Transfer",
                        "params": [
                            {
                                "name": "from",
                                "type": "address",
                                "value": "0x73282a63f0e3d7e9604575420f777361eca3c86a"
                            },
                            {
                                "name": "to",
                                "type": "address",
                                "value": "0x7c43214bf9ef79ff1fcbc0e477e0dc36897db326"
                            },
                            {
                                "decimalAvailable": true,
                                "name": "value",
                                "type": "uint256",
                                "value": "1,000,000,000,000"
                            }
                        ],
                        "signature": "Transfer(address,address,uint256)"
                    },
                    "id": 3,
                    "logData": "0x000000000000000000000000000000000000000000000000000000e8d4a51000",
                    "logDecoded": true,
                    "operation": "EVENT",
                    "revert": false,
                    "status": true,
                    "topics": [
                        "0xddf252ad1be2c89b69c2b068fc378daa952ba7f163c4a11628f55a4df523b3ef",
                        "0x00000000000000000000000073282a63f0e3d7e9604575420f777361eca3c86a",
                        "0x0000000000000000000000007c43214bf9ef79ff1fcbc0e477e0dc36897db326"
                    ]
                },
                "nodeType": 1
            },
            "4": {
                "invocation": {
                    "address": "0x2bbaa886f65ca1096730d315ebe4648161166eb2",
                    "callData": "0x",
                    "decodedMethod": null,
                    "errorInfo": "",
                    "fromAddress": "0x73282a63f0e3d7e9604575420f777361eca3c86a",
                    "gasUsed": 0,
                    "id": 4,
                    "methodDecoded": false,
                    "operation": "CALL",
                    "output": "",
                    "revert": false,
                    "revertMessage": "",
                    "selector": "fallback",
                    "status": true,
                    "value": "0.001"
                },
                "nodeType": 0
            },
            "5": {
                "event": {
                    "contract": "0x73282a63f0e3d7e9604575420f777361eca3c86a",
                    "decodedLog": {
                        "name": "Swapped",
                        "params": [
                            {
                                "name": "sender",
                                "type": "address",
                                "value": "0x2bbaa886f65ca1096730d315ebe4648161166eb2"
                            },
                            {
                                "name": "srcToken",
                                "type": "address",
                                "value": "0x7c43214bf9ef79ff1fcbc0e477e0dc36897db326"
                            },
                            {
                                "name": "dstToken",
                                "type": "address",
                                "value": "0x5beabaebb3146685dd74176f68a0721f91297d37"
                            },
                            {
                                "name": "dstReceiver",
                                "type": "address",
                                "value": "0x0000000000000000000000000000000000000000"
                            },
                            {
                                "name": "spentAmount",
                                "type": "uint256",
                                "value": "1,000,000,000,000"
                            },
                            {
                                "name": "returnAmount",
                                "type": "uint256",
                                "value": "1,000,000,000,000,000"
                            }
                        ],
                        "signature": "Swapped(address,address,address,address,uint256,uint256)"
                    },
                    "id": 5,
                    "logData": "0x0000000000000000000000002bbaa886f65ca1096730d315ebe4648161166eb20000000000000000000000007c43214bf9ef79ff1fcbc0e477e0dc36897db3260000000000000000000000005beabaebb3146685dd74176f68a0721f91297d370000000000000000000000000000000000000000000000000000000000000000000000000000000000000000000000000000000000000000000000e8d4a5100000000000000000000000000000000000000000000000000000038d7ea4c68000",
                    "logDecoded": true,
                    "operation": "EVENT",
                    "revert": false,
                    "status": true,
                    "topics": [
                        "0xd6d4f5681c246c9f42c203e287975af1601f8df8035a9251f79aab5c8f09e2f8"
                    ]
                },
                "nodeType": 1
            }
        },
        "gasFlame": [
            {
                "children": [
                    {
                        "children": [
                            {
                                "children": [],
                                "depth": 0,
                                "name": "Initial Gas",
                                "value": 21416
                            },
                            {
                                "children": [
                                    {
                                        "children": [
                                            {
                                                "children": [],
                                                "depth": 2,
                                                "name": "transfer",
                                                "value": 14784
                                            },
                                            {
                                                "children": [],
                                                "depth": 2,
                                                "name": "fallback",
                                                "value": 0
                                            }
                                        ],
                                        "depth": 1,
                                        "name": "0xebeee70c",
                                        "value": 96444
                                    }
                                ],
                                "depth": 0,
                                "name": "Executed Gas",
                                "value": 99215
                            }
                        ],
                        "depth": -1,
                        "name": "Actual Gas Used",
                        "value": 120631
                    },
                    {
                        "children": [],
                        "depth": -1,
                        "name": "Refunded Gas",
                        "value": 0
                    }
                ],
                "depth": -2,
                "name": "Total Gas",
                "value": 120631
            }
        ],
        "isConfirmed": true,
        "mainTrace": [
            {
                "children": [
                    {
                        "children": [
                            {
                                "children": [
                                    {
                                        "children": [
                                            {
                                                "children": [],
                                                "depth": 3,
                                                "id": 3,
                                                "order": 3
                                            }
                                        ],
                                        "depth": 2,
                                        "id": 2,
                                        "order": 2
                                    },
                                    {
                                        "children": [],
                                        "depth": 2,
                                        "id": 4,
                                        "order": 4
                                    },
                                    {
                                        "children": [],
                                        "depth": 2,
                                        "id": 5,
                                        "order": 5
                                    }
                                ],
                                "depth": 1,
                                "id": 1,
                                "order": 1
                            }
                        ],
                        "depth": 0,
                        "id": 0,
                        "order": 0
                    }
                ],
                "depth": -1,
                "id": -1,
                "order": -1
            }
        ],
        "mainTraceNodeCount": 6,
        "parentIdMap": {
            "0": -1,
            "1": 0,
            "2": 1,
            "3": 2,
            "4": 1,
            "5": 1
        },
        "tidyTrace": [
            {
                "children": [
                    {
                        "children": [
                            {
                                "children": [
                                    {
                                        "children": [
                                            {
                                                "children": [],
                                                "depth": 3,
                                                "id": 3,
                                                "order": 3
                                            }
                                        ],
                                        "depth": 2,
                                        "id": 2,
                                        "order": 2
                                    },
                                    {
                                        "children": [],
                                        "depth": 2,
                                        "id": 4,
                                        "order": 4
                                    },
                                    {
                                        "children": [],
                                        "depth": 2,
                                        "id": 5,
                                        "order": 5
                                    }
                                ],
                                "depth": 1,
                                "id": 1,
                                "order": 1
                            }
                        ],
                        "depth": 0,
                        "id": 0,
                        "order": 0
                    }
                ],
                "depth": -1,
                "id": -1,
                "order": -1
            }
        ],
        "tidyTraceNodeCount": 6
    },
    "state_change": {
        "stateChanges": [
            {
                "address": "0x5beabaebb3146685dd74176f68a0721f91297d37",
                "erc": "ERC-20",
                "slots": [
                    {
                        "current": "0x000000000000000000000000000000000000000000000000000035a9020ab000",
                        "key": "0x68d387efefa28e530ab8c93da905cf55b21681895ae0d94e68fa42aaeef80aa3",
                        "prev": "0x000000000000000000000000000000000000000000000000000034c02d65a000"
                    },
                    {
                        "current": "0x000000000000000000000000000000000000000000000ea0b44fcf2b12551066",
                        "key": "0x70e724003eac136f8b7ca75c5d3257dfc04241cf4df071e9733b1c2d7a9d3984",
                        "prev": "0x000000000000000000000000000000000000000000000ea0b44fd013e6fa2066"
                    }
                ],
                "storageVariables": [
                    {
                        "name": "_balances",
                        "type": "mapping(address => uint256)",
                        "value": {
                            "pairs": [
                                {
                                    "key": "0x73282a63f0e3d7e9604575420f777361eca3c86a",
                                    "value": {
                                        "current": "69077602643202446528614",
                                        "prev": "69077602644202446528614",
                                        "typeTag": 1
                                    }
                                },
                                {
                                    "key": "0x7c43214bf9ef79ff1fcbc0e477e0dc36897db326",
                                    "value": {
                                        "current": "59000000000000",
                                        "prev": "58000000000000",
                                        "typeTag": 1
                                    }
                                }
                            ],
                            "typeTag": 4
                        }
                    }
                ]
            },
            {
                "address": "0x73282a63f0e3d7e9604575420f777361eca3c86a",
                "erc": "",
                "slots": [
                    {
                        "current": "0x0000000000000000000000000000000000000000000000001403035c261d0000",
                        "key": "0x8d800d6614d35eed73733ee453164a3b48076eb3138f466adeeb9dec7bb3227a",
                        "prev": "0x00000000000000000000000000000000000000000000000013ff75dd81568000"
                    },
                    {
                        "current": "0x00000000000000000000000000000000000000000000000000d19c2ff9bf8000",
                        "key": "0x355a65b5747265e4eceeab4cc19299889e786efd23ecc2ad5a6d52d137a13c16",
                        "prev": "0x00000000000000000000000000000000000000000000000000ce0eb154f90000"
                    },
                    {
                        "current": "0x0000000000000000000000000000000000000000000000006ecce940918c0c20",
                        "key": "0xa6ea374dacc5837e8ef9070a0ca2fc5aead1e98ac6e9ef3ae06ff91a3da60ae1",
                        "prev": "0x0000000000000000000000000000000000000000000000006ec95bc1ecc58c20"
                    },
                    {
                        "current": "0x000000000000000000000000000000000000000000000000000000000000003b",
                        "key": "0x0ae913c70ab713eb3a4b8d2309ebf916739e8f15231f3d5917531c9afff5f964",
                        "prev": "0x000000000000000000000000000000000000000000000000000000000000003a"
                    },
                    {
                        "current": "0x0000000000000000000000000000000000000000000000000000000000000f8a",
                        "key": "0x3676d72b016996789bbe9a0f20fe155ef020bbfb0762d1c0738b1738876cdbab",
                        "prev": "0x0000000000000000000000000000000000000000000000000000000000000f89"
                    },
                    {
                        "current": "0x00000000000000000000000000000000000000000000000000051f7dc9c42000",
                        "key": "0xece66cfdbd22e3f37d348a3d8e19074452862cd65fd4b9a11f0336d1ac6d20cd",
                        "prev": "0x00000000000000000000000000000000000000000000000000051e94f51f1000"
                    }
                ],
                "storageVariables": []
            }
        ]
    }
}