{
    "balance_change": {
        "balanceChanges": [
            {
                "account": "0x9cc5be83b211620cfe23e25bc65d6da6751bcf09",
                "assets": [
                    {
                        "address": "0x476c5e26a75bd202a9683ffd34359c0cc15be0ff",
                        "amount": "115,193",
                        "iconUrl": "https://assets.blocksec.com/icon/44324e3f65f9b70ff659e817929d4512a521da24161c08bccc91e4971b08ea2e.png",
                        "isERC1155": false,
                        "isERC721": false,
                        "sign": false,
                        "value": "127644.5209"
                    }
                ]
            },
            {
                "account": "0x3f5ce5fbfe3e9af3971dd833d26ba9b5c936f0be",
                "assets": [
                    {
                        "address": "0x476c5e26a75bd202a9683ffd34359c0cc15be0ff",
                        "amount": "115,193",
                        "iconUrl": "https://assets.blocksec.com/icon/44324e3f65f9b70ff659e817929d4512a521da24161c08bccc91e4971b08ea2e.png",
                        "isERC1155": false,
                        "isERC721": false,
                        "sign": true,
                        "value": "127644.5209"
                    }
                ]
            }
        ]
    },
    "profile": {
        "basic_info": {
            "baseFee": "",
            "blockNumber": 11305757,
            "callData": "0xa9059cbb0000000000000000000000003f5ce5fbfe3e9af3971dd833d26ba9b5c936f0be0000000000000000000000000000000000000000000000000000001ad209b040",
            "debugEnable": true,
            "errorInfo": "",
            "eventCount": 1,
            "feeRecipient": "0x5a0b54d5dc17e0aadc383d2db43b0a0d3e029c4c",
            "formatValue": "0",
            "gasLimit": 74064,
            "gasPrice": "48",
            "gasUsed": 22032,
            "intTxnCount": 0,
            "internalRevert": false,
            "internalRevertMessage": "",
            "isContractCreation": false,
            "isFlashloan": false,
            "maxFee": "",
            "nonce": 15635,
            "overwritedBlockNumber": -1,
            "priorityFee": "",
            "receiver": "0x476c5e26a75bd202a9683ffd34359c0cc15be0ff",
            "revertMessage": "",
            "sender": "0x9cc5be83b211620cfe23e25bc65d6da6751bcf09",
            "simulationEnable": true,
            "sourceTxnHash": "0x493bd439234a28f7099db3e1cf0dd085d9dc754146010e274169aa238f7a0416",
            "status": true,
            "timestamp": "2020-11-22T04:01:31Z",
            "transactionFee": "0.001057536",
            "txnHash": "0x493bd439234a28f7099db3e1cf0dd085d9dc754146010e274169aa238f7a0416",
            "txnIndex": 88,
            "type": 0,
            "value": "0"
        },
        "fund_flow": [
            {
                "amount": "115,193",
                "from": "0x9cc5be83b211620cfe23e25bc65d6da6751bcf09",
                "id": 1,
                "isERC1155": false,
                "isERC721": false,
                "isReverted": false,
                "order": 1,
                "to": "0x3f5ce5fbfe3e9af3971dd833d26ba9b5c936f0be",
                "token": "0x476c5e26a75bd202a9683ffd34359c0cc15be0ff"
            }
        ],
        "token_infos": [
            {
                "address": "0x476c5e26a75bd202a9683ffd34359c0cc15be0ff",
                "decimals": 6
            },
            {
                "address": "0xc02aaa39b223fe8d0a0e5c4f27ead9083c756cc2",
                "decimals": 18
            },
            {
                "address": "0xeeeeeeeeeeeeeeeeeeeeeeeeeeeeeeeeeeeeeeee",
                "decimals": 18
            }
        ]
    },
    "address_label": {
        "labels": [
            {
                "address": "0x3f5ce5fbfe3e9af3971dd833d26ba9b5c936f0be",
                "label": "Binance"
            },
            {
                "address": "0x476c5e26a75bd202a9683ffd34359c0cc15be0ff",
                "label": "Serum: SRM Token"
            },
            {
                "address": "0x0000000000000000000000000000000000000001",
                "label": "Precompiled"
            },
            {
                "address": "0x0000000000000000000000000000000000000002",
                "label": "Precompiled"
            },
            {
                "address": "0x0000000000000000000000000000000000000003",
                "label": "Precompiled"
            },
            {
                "address": "0x0000000000000000000000000000000000000004",
                "label": "Precompiled"
            },
            {
                "address": "0xeeeeeeeeeeeeeeeeeeeeeeeeeeeeeeeeeeeeeeee",
                "label": "Ether"
            }
        ]
    },
    "trace": {
        "accountLabels": null,
        "dataMap": {
            "-1": {
                "invocation": {
                    "address": "0x9cc5be83b211620cfe23e25bc65d6da6751bcf09",
                    "callData": "",
                    "decodedMethod": null,
                    "errorInfo": "",
                    "fromAddress": "",
                    "gasUsed": 0,
                    "id": -1,
                    "methodDecoded": false,
                    "operation": "",
                    "output": "",
                    "revert": false,
                    "revertMessage": "",
                    "selector": "",
                    "status": false,
                    "value": ""
                },
                "nodeType": 0
            },
            "0": {
                "invocation": {
                    "address": "0x476c5e26a75bd202a9683ffd34359c0cc15be0ff",
                    "callData": "0x0000000000000000000000003f5ce5fbfe3e9af3971dd833d26ba9b5c936f0be0000000000000000000000000000000000000000000000000000001ad209b040",
                    "decodedMethod": {
                        "callParams": [
                            {
                                "name": "to",
                                "type": "address",
                                "value": "0x3f5ce5fbfe3e9af3971dd833d26ba9b5c936f0be"
                            },
                            {
                                "decimalAvailable": true,
                                "name": "value",
                                "type": "uint256",
                                "value": "115,193,000,000"
                            }
                        ],
                        "constructorArguments": "",
                        "name": "transfer",
                        "returnParams": [
                            {
                                "name": "",
                                "type": "bool",
                                "value": true
                            }
                        ],
                        "signature": "transfer(address,uint256)"
                    },
                    "errorInfo": "",
                    "fromAddress": "0x9cc5be83b211620cfe23e25bc65d6da6751bcf09",
                    "gasUsed": 22032,
                    "id": 0,
                    "methodDecoded": true,
                    "operation": "CALL",
                    "output": "0x0000000000000000000000000000000000000000000000000000000000000001",
                    "revert": false,
                    "revertMessage": "",
                    "selector": "0xa9059cbb",
                    "status": true,
                    "value": "0"
                },
                "nodeType": 0
            },
            "1": {
                "event": {
                    "contract": "0x476c5e26a75bd202a9683ffd34359c0cc15be0ff",
                    "decodedLog": {
                        "name": "Transfer",
                        "params": [
                            {
                                "name": "from",
                                "type": "address",
                                "value": "0x9cc5be83b211620cfe23e25bc65d6da6751bcf09"
                            },
                            {
                                "name": "to",
                                "type": "address",
                                "value": "0x3f5ce5fbfe3e9af3971dd833d26ba9b5c936f0be"
                            },
                            {
                                "decimalAvailable": true,
                                "name": "value",
                                "type": "uint256",
                                "value": "115,193,000,000"
                            }
                        ],
                        "signature": "Transfer(address,address,uint256)"
                    },
                    "id": 1,
                    "logData": "0x0000000000000000000000000000000000000000000000000000001ad209b040",
                    "logDecoded": true,
                    "operation": "EVENT",
                    "revert": false,
                    "status": true,
                    "topics": [
                        "0xddf252ad1be2c89b69c2b068fc378daa952ba7f163c4a11628f55a4df523b3ef",
                        "0x0000000000000000000000009cc5be83b211620cfe23e25bc65d6da6751bcf09",
                        "0x0000000000000000000000003f5ce5fbfe3e9af3971dd833d26ba9b5c936f0be"
                    ]
                },
                "nodeType": 1
            }
        },
        "gasFlame": [
            {
                "children": [
                    {
                        "children": [
                            {
                                "children": [],
                                "depth": 0,
                                "name": "Initial Gas",
                                "value": 21620
                            },
                            {
                                "children": [],
                                "depth": 0,
                                "name": "Executed Gas",
                                "value": 15412
                            }
                        ],
                        "depth": -1,
                        "name": "Actual Gas Used",
                        "value": 22032
                    },
                    {
                        "children": [],
                        "depth": -1,
                        "name": "Refunded Gas",
                        "value": 15000
                    }
                ],
                "depth": -2,
                "name": "Total Gas",
                "value": 37032
            }
        ],
        "isConfirmed": true,
        "mainTrace": [
            {
                "children": [
                    {
                        "children": [
                            {
                                "children": [],
                                "depth": 1,
                                "id": 1,
                                "order": 1
                            }
                        ],
                        "depth": 0,
                        "id": 0,
                        "order": 0
                    }
                ],
                "depth": -1,
                "id": -1,
                "order": -1
            }
        ],
        "mainTraceNodeCount": 2,
        "parentIdMap": {
            "0": -1,
            "1": 0
        },
        "tidyTrace": [
            {
                "children": [
                    {
                        "children": [
                            {
                                "children": [],
                                "depth": 1,
                                "id": 1,
                                "order": 1
                            }
                        ],
                        "depth": 0,
                        "id": 0,
                        "order": 0
                    }
                ],
                "depth": -1,
                "id": -1,
                "order": -1
            }
        ],
        "tidyTraceNodeCount": 2
    },
    "state_change": {
        "stateChanges": [
            {
                "address": "0x476c5e26a75bd202a9683ffd34359c0cc15be0ff",
                "erc": "ERC-20",
                "slots": [
                    {
                        "current": "0x0000000000000000000000000000000000000000000000000000000000000000",
                        "key": "0x841b5618341e0331ddeb84480b4bb0f81d39e5ca9cece3e7a59020cf668f852a",
                        "prev": "0x0000000000000000000000000000000000000000000000000000001ad209b040"
                    },
                    {
                        "current": "0x00000000000000000000000000000000000000000000000000000265caa8d777",
                        "key": "0xa9165cf1171ca6778796cbe77186a3de16e0048336a054868a863bae74862026",
                        "prev": "0x0000000000000000000000000000000000000000000000000000024af89f2737"
                    }
                ],
                "storageVariables": [
                    {
                        "name": "_balances",
                        "type": "mapping(address => uint256)",
                        "value": {
                            "pairs": [
                                {
                                    "key": "0x3f5ce5fbfe3e9af3971dd833d26ba9b5c936f0be",
                                    "value": {
                                        "current": "2636215015287",
                                        "prev": "2521022015287",
                                        "typeTag": 1
                                    }
                                },
                                {
                                    "key": "0x9cc5be83b211620cfe23e25bc65d6da6751bcf09",
                                    "value": {
                                        "current": "0",
                                        "prev": "115193000000",
                                        "typeTag": 1
                                    }
                                }
                            ],
                            "typeTag": 4
                        }
                    }
                ]
            }
        ]
    }
}