{
    "balance_change": {
        "balanceChanges": [
            {
                "account": "0x99fc9614843d43b8a9547b29487b7cf2801bea1e",
                "assets": [
                    {
                        "address": "0xc382e04099a435439725bb40647e2b32dc136806",
                        "amount": "498,661,009.901050040197945396",
                        "iconUrl": "",
                        "isERC1155": false,
                        "isERC721": false,
                        "sign": false,
                        "value": "511.373701"
                    },
                    {
                        "address": "0x9358e3a79d428c7708da22a5bd085159f6818d12",
                        "amount": "117,605,257.107396052",
                        "iconUrl": "",
                        "isERC1155": false,
                        "isERC721": false,
                        "sign": true,
                        "value": "439.865641"
                    }
                ]
            },
            {
                "account": "0x4a488d7a4f2240e4b1798c750e5bf8106e2acf92",
                "assets": [
                    {
                        "address": "0xc02aaa39b223fe8d0a0e5c4f27ead9083c756cc2",
                        "amount": "0.269044224817812758",
                        "iconUrl": "https://assets.blocksec.com/icon/f1cb2d02c471d545bbc7722daf3277fd852d98e63d118771af7047bd8256c516.png",
                        "isERC1155": false,
                        "isERC721": false,
                        "sign": true,
                        "value": "622.68494990886467527"
                    },
                    {
                        "address": "0x9358e3a79d428c7708da22a5bd085159f6818d12",
                        "amount": "117,605,257.107396052",
                        "iconUrl": "",
                        "isERC1155": false,
                        "isERC721": false,
                        "sign": false,
                        "value": "439.865641"
                    }
                ]
            },
            {
                "account": "0xd561235046bb35e4ca93995ae39db2045af62b9a",
                "assets": [
                    {
                        "address": "0xc382e04099a435439725bb40647e2b32dc136806",
                        "amount": "498,661,009.901050040197945396",
                        "iconUrl": "",
                        "isERC1155": false,
                        "isERC721": false,
                        "sign": true,
                        "value": "511.373701"
                    },
                    {
                        "address": "0xc02aaa39b223fe8d0a0e5c4f27ead9083c756cc2",
                        "amount": "0.269044224817812758",
                        "iconUrl": "https://assets.blocksec.com/icon/f1cb2d02c471d545bbc7722daf3277fd852d98e63d118771af7047bd8256c516.png",
                        "isERC1155": false,
                        "isERC721": false,
                        "sign": false,
                        "value": "622.68494990886467527"
                    }
                ]
            }
        ]
    },
    "profile": {
        "basic_info": {
            "baseFee": "",
            "blockNumber": 12832745,
            "callData": "0x38ed17390000000000000000000000000000000000000000019c7b93836feeb8ba7d983400000000000000000000000000000000000000000000000001d3ba46305072eb00000000000000000000000000000000000000000000000000000000000000a000000000000000000000000099fc9614843d43b8a9547b29487b7cf2801bea1e0000000000000000000000000000000000000000000000000000000060f06d980000000000000000000000000000000000000000000000000000000000000003000000000000000000000000c382e04099a435439725bb40647e2b32dc136806000000000000000000000000c02aaa39b223fe8d0a0e5c4f27ead9083c756cc20000000000000000000000009358e3a79d428c7708da22a5bd085159f6818d12",
            "debugEnable": true,
            "errorInfo": "",
            "eventCount": 8,
            "feeRecipient": "0x5a0b54d5dc17e0aadc383d2db43b0a0d3e029c4c",
            "formatValue": "0",
            "gasLimit": 275287,
            "gasPrice": "55",
            "gasUsed": 205395,
            "intTxnCount": 11,
            "internalRevert": false,
            "internalRevertMessage": "",
            "isContractCreation": false,
            "isFlashloan": false,
            "maxFee": "",
            "nonce": 36,
            "overwritedBlockNumber": -1,
            "priorityFee": "",
            "receiver": "0x7a250d5630b4cf539739df2c5dacb4c659f2488d",
            "revertMessage": "",
            "sender": "0x99fc9614843d43b8a9547b29487b7cf2801bea1e",
            "simulationEnable": true,
            "sourceTxnHash": "0x4ae3082e17dced47b3f4ddb52475b0a386c3b685851a6d8f9c0d4666a9e83cc6",
            "status": true,
            "timestamp": "2021-07-15T17:02:49Z",
            "transactionFee": "0.011296725",
            "txnHash": "0x4ae3082e17dced47b3f4ddb52475b0a386c3b685851a6d8f9c0d4666a9e83cc6",
            "txnIndex": 92,
            "type": 0,
            "value": "0"
        },
        "fund_flow": [
            {
                "amount": "498,661,009.901050040197945396",
                "from": "0x99fc9614843d43b8a9547b29487b7cf2801bea1e",
                "id": 1,
                "isERC1155": false,
                "isERC721": false,
                "isReverted": false,
                "order": 1,
                "to": "0xd561235046bb35e4ca93995ae39db2045af62b9a",
                "token": "0xc382e04099a435439725bb40647e2b32dc136806"
            },
            {
                "amount": "0.269044224817812758",
                "from": "0xd561235046bb35e4ca93995ae39db2045af62b9a",
                "id": 2,
                "isERC1155": false,
                "isERC721": false,
                "isReverted": false,
                "order": 2,
                "to": "0x4a488d7a4f2240e4b1798c750e5bf8106e2acf92",
                "token": "0xc02aaa39b223fe8d0a0e5c4f27ead9083c756cc2"
            },
            {
                "amount": "117,605,257.107396052",
                "from": "0x4a488d7a4f2240e4b1798c750e5bf8106e2acf92",
                "id": 3,
                "isERC1155": false,
                "isERC721": false,
                "isReverted": false,
                "order": 3,
                "to": "0x99fc9614843d43b8a9547b29487b7cf2801bea1e",
                "token": "0x9358e3a79d428c7708da22a5bd085159f6818d12"
            }
        ],
        "token_infos": [
            {
                "address": "0xeeeeeeeeeeeeeeeeeeeeeeeeeeeeeeeeeeeeeeee",
                "decimals": 18
            },
            {
                "address": "0x9358e3a79d428c7708da22a5bd085159f6818d12",
                "decimals": 9
            },
            {
                "address": "0xc02aaa39b223fe8d0a0e5c4f27ead9083c756cc2",
                "decimals": 18
            },
            {
                "address": "0xc382e04099a435439725bb40647e2b32dc136806",
                "decimals": 18
            }
        ]
    },
    "address_label": {
        "labels": [
            {
                "address": "0x4a488d7a4f2240e4b1798c750e5bf8106e2acf92",
                "label": "Uniswap V2: TENSHI"
            },
            {
                "address": "0x0000000000000000000000000000000000000001",
                "label": "Precompiled"
            },
            {
                "address": "0x0000000000000000000000000000000000000002",
                "label": "Precompiled"
            },
            {
                "address": "0x0000000000000000000000000000000000000003",
                "label": "Precompiled"
            },
            {
                "address": "0xeeeeeeeeeeeeeeeeeeeeeeeeeeeeeeeeeeeeeeee",
                "label": "Ether"
            },
            {
                "address": "0x9358e3a79d428c7708da22a5bd085159f6818d12",
                "label": "Tenshi: TENSHI Token"
            },
            {
                "address": "0xd561235046bb35e4ca93995ae39db2045af62b9a",
                "label": "Uniswap V2: COGE 4"
            },
            {
                "address": "0x0000000000000000000000000000000000000004",
                "label": "Precompiled"
            },
            {
                "address": "0x7a250d5630b4cf539739df2c5dacb4c659f2488d",
                "label": "Uniswap V2: Router 2"
            },
            {
                "address": "0xc02aaa39b223fe8d0a0e5c4f27ead9083c756cc2",
                "label": "Wrapped Ether (WETH)"
            },
            {
                "address": "0xc382e04099a435439725bb40647e2b32dc136806",
                "label": "Cogecoin: COGE Token"
            }
        ]
    },
    "trace": {
        "accountLabels": null,
        "dataMap": {
            "-1": {
                "invocation": {
                    "address": "0x99fc9614843d43b8a9547b29487b7cf2801bea1e",
                    "callData": "",
                    "decodedMethod": null,
                    "errorInfo": "",
                    "fromAddress": "",
                    "gasUsed": 0,
                    "id": -1,
                    "methodDecoded": false,
                    "operation": "",
                    "output": "",
                    "revert": false,
                    "revertMessage": "",
                    "selector": "",
                    "status": false,
                    "value": ""
                },
                "nodeType": 0
            },
            "0": {
                "invocation": {
                    "address": "0x7a250d5630b4cf539739df2c5dacb4c659f2488d",
                    "callData": "0x0000000000000000000000000000000000000000019c7b93836feeb8ba7d983400000000000000000000000000000000000000000000000001d3ba46305072eb00000000000000000000000000000000000000000000000000000000000000a000000000000000000000000099fc9614843d43b8a9547b29487b7cf2801bea1e0000000000000000000000000000000000000000000000000000000060f06d980000000000000000000000000000000000000000000000000000000000000003000000000000000000000000c382e04099a435439725bb40647e2b32dc136806000000000000000000000000c02aaa39b223fe8d0a0e5c4f27ead9083c756cc20000000000000000000000009358e3a79d428c7708da22a5bd085159f6818d12",
                    "decodedMethod": {
                        "callParams": [
                            {
                                "name": "amountIn",
                                "type": "uint256",
                                "value": "498,661,009,901,050,040,197,945,396"
                            },
                            {
                                "name": "amountOutMin",
                                "type": "uint256",
                                "value": "131,653,624,744,932,075"
                            },
                            {
                                "name": "path",
                                "type": "address[]",
                                "value": [
                                    "0xc382e04099a435439725bb40647e2b32dc136806",
                                    "0xc02aaa39b223fe8d0a0e5c4f27ead9083c756cc2",
                                    "0x9358e3a79d428c7708da22a5bd085159f6818d12"
                                ]
                            },
                            {
                                "name": "to",
                                "type": "address",
                                "value": "0x99fc9614843d43b8a9547b29487b7cf2801bea1e"
                            },
                            {
                                "name": "deadline",
                                "type": "uint256",
                                "value": "1,626,369,432"
                            }
                        ],
                        "constructorArguments": "",
                        "name": "swapExactTokensForTokens",
                        "returnParams": [
                            {
                                "name": "amounts",
                                "type": "uint256[]",
                                "value": [
                                    "498,661,009,901,050,040,197,945,396",
                                    "269,044,224,817,812,758",
                                    "140,006,258,461,185,775"
                                ]
                            }
                        ],
                        "signature": "swapExactTokensForTokens(uint256,uint256,address[],address,uint256)"
                    },
                    "errorInfo": "",
                    "fromAddress": "0x99fc9614843d43b8a9547b29487b7cf2801bea1e",
                    "gasUsed": 205395,
                    "id": 0,
                    "methodDecoded": true,
                    "operation": "CALL",
                    "output": "0x000000000000000000000000000000000000000000000000000000000000002000000000000000000000000000000000000000000000000000000000000000030000000000000000000000000000000000000000019c7b93836feeb8ba7d983400000000000000000000000000000000000000000000000003bbd64c0922d51600000000000000000000000000000000000000000000000001f166f345e916ef",
                    "revert": false,
                    "revertMessage": "",
                    "selector": "0x38ed1739",
                    "status": true,
                    "value": "0"
                },
                "nodeType": 0
            },
            "1": {
                "invocation": {
                    "address": "0xd561235046bb35e4ca93995ae39db2045af62b9a",
                    "callData": "0x",
                    "decodedMethod": {
                        "callParams": [],
                        "constructorArguments": "",
                        "name": "getReserves",
                        "returnParams": [
                            {
                                "name": "_reserve0",
                                "type": "uint112",
                                "value": "237,245,588,635,694,674,219"
                            },
                            {
                                "name": "_reserve1",
                                "type": "uint112",
                                "value": "437,907,374,334,809,308,757,901,924,675"
                            },
                            {
                                "name": "_blockTimestampLast",
                                "type": "uint32",
                                "value": "1,626,368,486"
                            }
                        ],
                        "signature": "getReserves()"
                    },
                    "errorInfo": "",
                    "fromAddress": "0x7a250d5630b4cf539739df2c5dacb4c659f2488d",
                    "gasUsed": 2504,
                    "id": 1,
                    "methodDecoded": true,
                    "operation": "STATICCALL",
                    "output": "0x00000000000000000000000000000000000000000000000cdc71a5e21708312b000000000000000000000000000000000000000586f47d7a0fa87160199359430000000000000000000000000000000000000000000000000000000060f069e6",
                    "revert": false,
                    "revertMessage": "",
                    "selector": "0x0902f1ac",
                    "status": true,
                    "value": "0"
                },
                "nodeType": 0
            },
            "10": {
                "invocation": {
                    "address": "0xc382e04099a435439725bb40647e2b32dc136806",
                    "callData": "0x000000000000000000000000d561235046bb35e4ca93995ae39db2045af62b9a",
                    "decodedMethod": {
                        "callParams": [
                            {
                                "name": "account",
                                "type": "address",
                                "value": "0xd561235046bb35e4ca93995ae39db2045af62b9a"
                            }
                        ],
                        "constructorArguments": "",
                        "name": "balanceOf",
                        "returnParams": [
                            {
                                "decimalAvailable": true,
                                "name": "",
                                "type": "uint256",
                                "value": "438,406,035,344,710,358,798,099,870,071"
                            }
                        ],
                        "signature": "balanceOf(address)"
                    },
                    "errorInfo": "",
                    "fromAddress": "0xd561235046bb35e4ca93995ae39db2045af62b9a",
                    "gasUsed": 639,
                    "id": 10,
                    "methodDecoded": true,
                    "operation": "STATICCALL",
                    "output": "0x00000000000000000000000000000000000000058890f90d93186018d410f177",
                    "revert": false,
                    "revertMessage": "",
                    "selector": "0x70a08231",
                    "status": true,
                    "value": "0"
                },
                "nodeType": 0
            },
            "11": {
                "event": {
                    "contract": "0xd561235046bb35e4ca93995ae39db2045af62b9a",
                    "decodedLog": {
                        "name": "Sync",
                        "params": [
                            {
                                "name": "reserve0",
                                "type": "uint112",
                                "value": "236,976,544,410,876,861,461"
                            },
                            {
                                "name": "reserve1",
                                "type": "uint112",
                                "value": "438,406,035,344,710,358,798,099,870,071"
                            }
                        ],
                        "signature": "Sync(uint112,uint112)"
                    },
                    "id": 11,
                    "logData": "0x00000000000000000000000000000000000000000000000cd8b5cf960de55c1500000000000000000000000000000000000000058890f90d93186018d410f177",
                    "logDecoded": true,
                    "operation": "EVENT",
                    "revert": false,
                    "status": true,
                    "topics": [
                        "0x1c411e9a96e071241c2f21f7726b17ae89e3cab4c78be50e062b03a9fffbbad1"
                    ]
                },
                "nodeType": 1
            },
            "12": {
                "event": {
                    "contract": "0xd561235046bb35e4ca93995ae39db2045af62b9a",
                    "decodedLog": {
                        "name": "Swap",
                        "params": [
                            {
                                "name": "sender",
                                "type": "address",
                                "value": "0x7a250d5630b4cf539739df2c5dacb4c659f2488d"
                            },
                            {
                                "name": "to",
                                "type": "address",
                                "value": "0x4a488d7a4f2240e4b1798c750e5bf8106e2acf92"
                            },
                            {
                                "name": "amount0In",
                                "type": "uint256",
                                "value": "0"
                            },
                            {
                                "name": "amount1In",
                                "type": "uint256",
                                "value": "498,661,009,901,050,040,197,945,396"
                            },
                            {
                                "name": "amount0Out",
                                "type": "uint256",
                                "value": "269,044,224,817,812,758"
                            },
                            {
                                "name": "amount1Out",
                                "type": "uint256",
                                "value": "0"
                            }
                        ],
                        "signature": "Swap(address,uint256,uint256,uint256,uint256,address)"
                    },
                    "id": 12,
                    "logData": "0x00000000000000000000000000000000000000000000000000000000000000000000000000000000000000000000000000000000019c7b93836feeb8ba7d983400000000000000000000000000000000000000000000000003bbd64c0922d5160000000000000000000000000000000000000000000000000000000000000000",
                    "logDecoded": true,
                    "operation": "EVENT",
                    "revert": false,
                    "status": true,
                    "topics": [
                        "0xd78ad95fa46c994b6551d0da85fc275fe613ce37657fb8d5e3d130840159d822",
                        "0x0000000000000000000000007a250d5630b4cf539739df2c5dacb4c659f2488d",
                        "0x0000000000000000000000004a488d7a4f2240e4b1798c750e5bf8106e2acf92"
                    ]
                },
                "nodeType": 1
            },
            "13": {
                "invocation": {
                    "address": "0x4a488d7a4f2240e4b1798c750e5bf8106e2acf92",
                    "callData": "0x00000000000000000000000000000000000000000000000001f166f345e916ef000000000000000000000000000000000000000000000000000000000000000000000000000000000000000099fc9614843d43b8a9547b29487b7cf2801bea1e00000000000000000000000000000000000000000000000000000000000000800000000000000000000000000000000000000000000000000000000000000000",
                    "decodedMethod": {
                        "callParams": [
                            {
                                "name": "amount0Out",
                                "type": "uint256",
                                "value": "140,006,258,461,185,775"
                            },
                            {
                                "name": "amount1Out",
                                "type": "uint256",
                                "value": "0"
                            },
                            {
                                "name": "to",
                                "type": "address",
                                "value": "0x99fc9614843d43b8a9547b29487b7cf2801bea1e"
                            },
                            {
                                "name": "data",
                                "type": "bytes",
                                "value": "0x"
                            }
                        ],
                        "constructorArguments": "",
                        "name": "swap",
                        "returnParams": [],
                        "signature": "swap(uint256,uint256,address,bytes)"
                    },
                    "errorInfo": "",
                    "fromAddress": "0x7a250d5630b4cf539739df2c5dacb4c659f2488d",
                    "gasUsed": 108872,
                    "id": 13,
                    "methodDecoded": true,
                    "operation": "CALL",
                    "output": "",
                    "revert": false,
                    "revertMessage": "",
                    "selector": "0x022c0d9f",
                    "status": true,
                    "value": "0"
                },
                "nodeType": 0
            },
            "14": {
                "invocation": {
                    "address": "0x9358e3a79d428c7708da22a5bd085159f6818d12",
                    "callData": "0x00000000000000000000000099fc9614843d43b8a9547b29487b7cf2801bea1e00000000000000000000000000000000000000000000000001f166f345e916ef",
                    "decodedMethod": {
                        "callParams": [
                            {
                                "name": "recipient",
                                "type": "address",
                                "value": "0x99fc9614843d43b8a9547b29487b7cf2801bea1e"
                            },
                            {
                                "decimalAvailable": true,
                                "name": "amount",
                                "type": "uint256",
                                "value": "140,006,258,461,185,775"
                            }
                        ],
                        "constructorArguments": "",
                        "name": "transfer",
                        "returnParams": [
                            {
                                "name": "",
                                "type": "bool",
                                "value": true
                            }
                        ],
                        "signature": "transfer(address,uint256)"
                    },
                    "errorInfo": "",
                    "fromAddress": "0x4a488d7a4f2240e4b1798c750e5bf8106e2acf92",
                    "gasUsed": 82462,
                    "id": 14,
                    "methodDecoded": true,
                    "operation": "CALL",
                    "output": "0x0000000000000000000000000000000000000000000000000000000000000001",
                    "revert": false,
                    "revertMessage": "",
                    "selector": "0xa9059cbb",
                    "status": true,
                    "value": "0"
                },
                "nodeType": 0
            },
            "15": {
                "event": {
                    "contract": "0x9358e3a79d428c7708da22a5bd085159f6818d12",
                    "decodedLog": {
                        "name": "Transfer",
                        "params": [
                            {
                                "name": "from",
                                "type": "address",
                                "value": "0x4a488d7a4f2240e4b1798c750e5bf8106e2acf92"
                            },
                            {
                                "name": "to",
                                "type": "address",
                                "value": "0x99fc9614843d43b8a9547b29487b7cf2801bea1e"
                            },
                            {
                                "decimalAvailable": true,
                                "name": "value",
                                "type": "uint256",
                                "value": "117,605,257,107,396,052"
                            }
                        ],
                        "signature": "Transfer(address,address,uint256)"
                    },
                    "id": 15,
                    "logData": "0x00000000000000000000000000000000000000000000000001a1d15bb59ad5d4",
                    "logDecoded": true,
                    "operation": "EVENT",
                    "revert": false,
                    "status": true,
                    "topics": [
                        "0xddf252ad1be2c89b69c2b068fc378daa952ba7f163c4a11628f55a4df523b3ef",
                        "0x0000000000000000000000004a488d7a4f2240e4b1798c750e5bf8106e2acf92",
                        "0x00000000000000000000000099fc9614843d43b8a9547b29487b7cf2801bea1e"
                    ]
                },
                "nodeType": 1
            },
            "16": {
                "invocation": {
                    "address": "0x9358e3a79d428c7708da22a5bd085159f6818d12",
                    "callData": "0x0000000000000000000000004a488d7a4f2240e4b1798c750e5bf8106e2acf92",
                    "decodedMethod": {
                        "callParams": [
                            {
                                "name": "account",
                                "type": "address",
                                "value": "0x4a488d7a4f2240e4b1798c750e5bf8106e2acf92"
                            }
                        ],
                        "constructorArguments": "",
                        "name": "balanceOf",
                        "returnParams": [
                            {
                                "decimalAvailable": true,
                                "name": "",
                                "type": "uint256",
                                "value": "83,867,430,117,269,220,819"
                            }
                        ],
                        "signature": "balanceOf(address)"
                    },
                    "errorInfo": "",
                    "fromAddress": "0x4a488d7a4f2240e4b1798c750e5bf8106e2acf92",
                    "gasUsed": 2472,
                    "id": 16,
                    "methodDecoded": true,
                    "operation": "STATICCALL",
                    "output": "0x0000000000000000000000000000000000000000000000048be4f757ccbaadd3",
                    "revert": false,
                    "revertMessage": "",
                    "selector": "0x70a08231",
                    "status": true,
                    "value": "0"
                },
                "nodeType": 0
            },
            "17": {
                "invocation": {
                    "address": "0xc02aaa39b223fe8d0a0e5c4f27ead9083c756cc2",
                    "callData": "0x0000000000000000000000004a488d7a4f2240e4b1798c750e5bf8106e2acf92",
                    "decodedMethod": {
                        "callParams": [
                            {
                                "name": "",
                                "type": "address",
                                "value": "0x4a488d7a4f2240e4b1798c750e5bf8106e2acf92"
                            }
                        ],
                        "constructorArguments": "",
                        "name": "balanceOf",
                        "returnParams": [
                            {
                                "decimalAvailable": true,
                                "name": "",
                                "type": "uint256",
                                "value": "160,949,890,432,301,151,806"
                            }
                        ],
                        "signature": "balanceOf(address)"
                    },
                    "errorInfo": "",
                    "fromAddress": "0x4a488d7a4f2240e4b1798c750e5bf8106e2acf92",
                    "gasUsed": 534,
                    "id": 17,
                    "methodDecoded": true,
                    "operation": "STATICCALL",
                    "output": "0x000000000000000000000000000000000000000000000008b9a0e0995f5a363e",
                    "revert": false,
                    "revertMessage": "",
                    "selector": "0x70a08231",
                    "status": true,
                    "value": "0"
                },
                "nodeType": 0
            },
            "18": {
                "event": {
                    "contract": "0x4a488d7a4f2240e4b1798c750e5bf8106e2acf92",
                    "decodedLog": {
                        "name": "Sync",
                        "params": [
                            {
                                "name": "reserve0",
                                "type": "uint112",
                                "value": "83,867,430,117,269,220,819"
                            },
                            {
                                "name": "reserve1",
                                "type": "uint112",
                                "value": "160,949,890,432,301,151,806"
                            }
                        ],
                        "signature": "Sync(uint112,uint112)"
                    },
                    "id": 18,
                    "logData": "0x0000000000000000000000000000000000000000000000048be4f757ccbaadd3000000000000000000000000000000000000000000000008b9a0e0995f5a363e",
                    "logDecoded": true,
                    "operation": "EVENT",
                    "revert": false,
                    "status": true,
                    "topics": [
                        "0x1c411e9a96e071241c2f21f7726b17ae89e3cab4c78be50e062b03a9fffbbad1"
                    ]
                },
                "nodeType": 1
            },
            "19": {
                "event": {
                    "contract": "0x4a488d7a4f2240e4b1798c750e5bf8106e2acf92",
                    "decodedLog": {
                        "name": "Swap",
                        "params": [
                            {
                                "name": "sender",
                                "type": "address",
                                "value": "0x7a250d5630b4cf539739df2c5dacb4c659f2488d"
                            },
                            {
                                "name": "to",
                                "type": "address",
                                "value": "0x99fc9614843d43b8a9547b29487b7cf2801bea1e"
                            },
                            {
                                "name": "amount0In",
                                "type": "uint256",
                                "value": "117,419,650,974,738"
                            },
                            {
                                "name": "amount1In",
                                "type": "uint256",
                                "value": "269,044,224,817,812,758"
                            },
                            {
                                "name": "amount0Out",
                                "type": "uint256",
                                "value": "140,006,258,461,185,775"
                            },
                            {
                                "name": "amount1Out",
                                "type": "uint256",
                                "value": "0"
                            }
                        ],
                        "signature": "Swap(address,uint256,uint256,uint256,uint256,address)"
                    },
                    "id": 19,
                    "logData": "0x00000000000000000000000000000000000000000000000000006acae496041200000000000000000000000000000000000000000000000003bbd64c0922d51600000000000000000000000000000000000000000000000001f166f345e916ef0000000000000000000000000000000000000000000000000000000000000000",
                    "logDecoded": true,
                    "operation": "EVENT",
                    "revert": false,
                    "status": true,
                    "topics": [
                        "0xd78ad95fa46c994b6551d0da85fc275fe613ce37657fb8d5e3d130840159d822",
                        "0x0000000000000000000000007a250d5630b4cf539739df2c5dacb4c659f2488d",
                        "0x00000000000000000000000099fc9614843d43b8a9547b29487b7cf2801bea1e"
                    ]
                },
                "nodeType": 1
            },
            "2": {
                "invocation": {
                    "address": "0x4a488d7a4f2240e4b1798c750e5bf8106e2acf92",
                    "callData": "0x",
                    "decodedMethod": {
                        "callParams": [],
                        "constructorArguments": "",
                        "name": "getReserves",
                        "returnParams": [
                            {
                                "name": "_reserve0",
                                "type": "uint112",
                                "value": "84,007,318,956,079,431,856"
                            },
                            {
                                "name": "_reserve1",
                                "type": "uint112",
                                "value": "160,680,846,207,483,339,048"
                            },
                            {
                                "name": "_blockTimestampLast",
                                "type": "uint32",
                                "value": "1,626,368,569"
                            }
                        ],
                        "signature": "getReserves()"
                    },
                    "errorInfo": "",
                    "fromAddress": "0x7a250d5630b4cf539739df2c5dacb4c659f2488d",
                    "gasUsed": 2504,
                    "id": 2,
                    "methodDecoded": true,
                    "operation": "STATICCALL",
                    "output": "0x0000000000000000000000000000000000000000000000048dd5f3802e0dc0b0000000000000000000000000000000000000000000000008b5e50a4d563761280000000000000000000000000000000000000000000000000000000060f06a39",
                    "revert": false,
                    "revertMessage": "",
                    "selector": "0x0902f1ac",
                    "status": true,
                    "value": "0"
                },
                "nodeType": 0
            },
            "3": {
                "invocation": {
                    "address": "0xc382e04099a435439725bb40647e2b32dc136806",
                    "callData": "0x00000000000000000000000099fc9614843d43b8a9547b29487b7cf2801bea1e000000000000000000000000d561235046bb35e4ca93995ae39db2045af62b9a0000000000000000000000000000000000000000019c7b93836feeb8ba7d9834",
                    "decodedMethod": {
                        "callParams": [
                            {
                                "name": "sender",
                                "type": "address",
                                "value": "0x99fc9614843d43b8a9547b29487b7cf2801bea1e"
                            },
                            {
                                "name": "recipient",
                                "type": "address",
                                "value": "0xd561235046bb35e4ca93995ae39db2045af62b9a"
                            },
                            {
                                "decimalAvailable": true,
                                "name": "amount",
                                "type": "uint256",
                                "value": "498,661,009,901,050,040,197,945,396"
                            }
                        ],
                        "constructorArguments": "",
                        "name": "transferFrom",
                        "returnParams": [
                            {
                                "name": "",
                                "type": "bool",
                                "value": true
                            }
                        ],
                        "signature": "transferFrom(address,address,uint256)"
                    },
                    "errorInfo": "",
                    "fromAddress": "0x7a250d5630b4cf539739df2c5dacb4c659f2488d",
                    "gasUsed": 20451,
                    "id": 3,
                    "methodDecoded": true,
                    "operation": "CALL",
                    "output": "0x0000000000000000000000000000000000000000000000000000000000000001",
                    "revert": false,
                    "revertMessage": "",
                    "selector": "0x23b872dd",
                    "status": true,
                    "value": "0"
                },
                "nodeType": 0
            },
            "4": {
                "event": {
                    "contract": "0xc382e04099a435439725bb40647e2b32dc136806",
                    "decodedLog": {
                        "name": "Transfer",
                        "params": [
                            {
                                "name": "from",
                                "type": "address",
                                "value": "0x99fc9614843d43b8a9547b29487b7cf2801bea1e"
                            },
                            {
                                "name": "to",
                                "type": "address",
                                "value": "0xd561235046bb35e4ca93995ae39db2045af62b9a"
                            },
                            {
                                "decimalAvailable": true,
                                "name": "value",
                                "type": "uint256",
                                "value": "498,661,009,901,050,040,197,945,396"
                            }
                        ],
                        "signature": "Transfer(address,address,uint256)"
                    },
                    "id": 4,
                    "logData": "0x0000000000000000000000000000000000000000019c7b93836feeb8ba7d9834",
                    "logDecoded": true,
                    "operation": "EVENT",
                    "revert": false,
                    "status": true,
                    "topics": [
                        "0xddf252ad1be2c89b69c2b068fc378daa952ba7f163c4a11628f55a4df523b3ef",
                        "0x00000000000000000000000099fc9614843d43b8a9547b29487b7cf2801bea1e",
                        "0x000000000000000000000000d561235046bb35e4ca93995ae39db2045af62b9a"
                    ]
                },
                "nodeType": 1
            },
            "5": {
                "event": {
                    "contract": "0xc382e04099a435439725bb40647e2b32dc136806",
                    "decodedLog": {
                        "name": "Approval",
                        "params": [
                            {
                                "name": "owner",
                                "type": "address",
                                "value": "0x99fc9614843d43b8a9547b29487b7cf2801bea1e"
                            },
                            {
                                "name": "spender",
                                "type": "address",
                                "value": "0x7a250d5630b4cf539739df2c5dacb4c659f2488d"
                            },
                            {
                                "decimalAvailable": true,
                                "name": "value",
                                "type": "uint256",
                                "value": "115,792,089,237,316,195,423,570,985,008,687,907,853,269,984,665,637,718,676,174,292,245,327,626,584,884"
                            }
                        ],
                        "signature": "Approval(address,address,uint256)"
                    },
                    "id": 5,
                    "logData": "0xfffffffffffffffffffffffffffffffffffffffff6ce5ee35654a67676eb4334",
                    "logDecoded": true,
                    "operation": "EVENT",
                    "revert": false,
                    "status": true,
                    "topics": [
                        "0x8c5be1e5ebec7d5bd14f71427d1e84f3dd0314c0f7b2291e5b200ac8c7c3b925",
                        "0x00000000000000000000000099fc9614843d43b8a9547b29487b7cf2801bea1e",
                        "0x0000000000000000000000007a250d5630b4cf539739df2c5dacb4c659f2488d"
                    ]
                },
                "nodeType": 1
            },
            "6": {
                "invocation": {
                    "address": "0xd561235046bb35e4ca93995ae39db2045af62b9a",
                    "callData": "0x00000000000000000000000000000000000000000000000003bbd64c0922d51600000000000000000000000000000000000000000000000000000000000000000000000000000000000000004a488d7a4f2240e4b1798c750e5bf8106e2acf9200000000000000000000000000000000000000000000000000000000000000800000000000000000000000000000000000000000000000000000000000000000",
                    "decodedMethod": {
                        "callParams": [
                            {
                                "name": "amount0Out",
                                "type": "uint256",
                                "value": "269,044,224,817,812,758"
                            },
                            {
                                "name": "amount1Out",
                                "type": "uint256",
                                "value": "0"
                            },
                            {
                                "name": "to",
                                "type": "address",
                                "value": "0x4a488d7a4f2240e4b1798c750e5bf8106e2acf92"
                            },
                            {
                                "name": "data",
                                "type": "bytes",
                                "value": "0x"
                            }
                        ],
                        "constructorArguments": "",
                        "name": "swap",
                        "returnParams": [],
                        "signature": "swap(uint256,uint256,address,bytes)"
                    },
                    "errorInfo": "",
                    "fromAddress": "0x7a250d5630b4cf539739df2c5dacb4c659f2488d",
                    "gasUsed": 47858,
                    "id": 6,
                    "methodDecoded": true,
                    "operation": "CALL",
                    "output": "",
                    "revert": false,
                    "revertMessage": "",
                    "selector": "0x022c0d9f",
                    "status": true,
                    "value": "0"
                },
                "nodeType": 0
            },
            "7": {
                "invocation": {
                    "address": "0xc02aaa39b223fe8d0a0e5c4f27ead9083c756cc2",
                    "callData": "0x0000000000000000000000004a488d7a4f2240e4b1798c750e5bf8106e2acf9200000000000000000000000000000000000000000000000003bbd64c0922d516",
                    "decodedMethod": {
                        "callParams": [
                            {
                                "name": "dst",
                                "type": "address",
                                "value": "0x4a488d7a4f2240e4b1798c750e5bf8106e2acf92"
                            },
                            {
                                "decimalAvailable": true,
                                "name": "wad",
                                "type": "uint256",
                                "value": "269,044,224,817,812,758"
                            }
                        ],
                        "constructorArguments": "",
                        "name": "transfer",
                        "returnParams": [
                            {
                                "name": "",
                                "type": "bool",
                                "value": true
                            }
                        ],
                        "signature": "transfer(address,uint256)"
                    },
                    "errorInfo": "",
                    "fromAddress": "0xd561235046bb35e4ca93995ae39db2045af62b9a",
                    "gasUsed": 12862,
                    "id": 7,
                    "methodDecoded": true,
                    "operation": "CALL",
                    "output": "0x0000000000000000000000000000000000000000000000000000000000000001",
                    "revert": false,
                    "revertMessage": "",
                    "selector": "0xa9059cbb",
                    "status": true,
                    "value": "0"
                },
                "nodeType": 0
            },
            "8": {
                "event": {
                    "contract": "0xc02aaa39b223fe8d0a0e5c4f27ead9083c756cc2",
                    "decodedLog": {
                        "name": "Transfer",
                        "params": [
                            {
                                "name": "src",
                                "type": "address",
                                "value": "0xd561235046bb35e4ca93995ae39db2045af62b9a"
                            },
                            {
                                "name": "dst",
                                "type": "address",
                                "value": "0x4a488d7a4f2240e4b1798c750e5bf8106e2acf92"
                            },
                            {
                                "decimalAvailable": true,
                                "name": "wad",
                                "type": "uint256",
                                "value": "269,044,224,817,812,758"
                            }
                        ],
                        "signature": "Transfer(address,address,uint256)"
                    },
                    "id": 8,
                    "logData": "0x00000000000000000000000000000000000000000000000003bbd64c0922d516",
                    "logDecoded": true,
                    "operation": "EVENT",
                    "revert": false,
                    "status": true,
                    "topics": [
                        "0xddf252ad1be2c89b69c2b068fc378daa952ba7f163c4a11628f55a4df523b3ef",
                        "0x000000000000000000000000d561235046bb35e4ca93995ae39db2045af62b9a",
                        "0x0000000000000000000000004a488d7a4f2240e4b1798c750e5bf8106e2acf92"
                    ]
                },
                "nodeType": 1
            },
            "9": {
                "invocation": {
                    "address": "0xc02aaa39b223fe8d0a0e5c4f27ead9083c756cc2",
                    "callData": "0x000000000000000000000000d561235046bb35e4ca93995ae39db2045af62b9a",
                    "decodedMethod": {
                        "callParams": [
                            {
                                "name": "",
                                "type": "address",
                                "value": "0xd561235046bb35e4ca93995ae39db2045af62b9a"
                            }
                        ],
                        "constructorArguments": "",
                        "name": "balanceOf",
                        "returnParams": [
                            {
                                "decimalAvailable": true,
                                "name": "",
                                "type": "uint256",
                                "value": "236,976,544,410,876,861,461"
                            }
                        ],
                        "signature": "balanceOf(address)"
                    },
                    "errorInfo": "",
                    "fromAddress": "0xd561235046bb35e4ca93995ae39db2045af62b9a",
                    "gasUsed": 534,
                    "id": 9,
                    "methodDecoded": true,
                    "operation": "STATICCALL",
                    "output": "0x00000000000000000000000000000000000000000000000cd8b5cf960de55c15",
                    "revert": false,
                    "revertMessage": "",
                    "selector": "0x70a08231",
                    "status": true,
                    "value": "0"
                },
                "nodeType": 0
            }
        },
        "gasFlame": [
            {
                "children": [
                    {
                        "children": [
                            {
                                "children": [],
                                "depth": 0,
                                "name": "Initial Gas",
                                "value": 23488
                            },
                            {
                                "children": [
                                    {
                                        "children": [],
                                        "depth": 1,
                                        "name": "getReserves",
                                        "value": 2504
                                    },
                                    {
                                        "children": [],
                                        "depth": 1,
                                        "name": "getReserves",
                                        "value": 2504
                                    },
                                    {
                                        "children": [],
                                        "depth": 1,
                                        "name": "transferFrom",
                                        "value": 20451
                                    },
                                    {
                                        "children": [
                                            {
                                                "children": [],
                                                "depth": 2,
                                                "name": "transfer",
                                                "value": 12862
                                            },
                                            {
                                                "children": [],
                                                "depth": 2,
                                                "name": "balanceOf",
                                                "value": 534
                                            },
                                            {
                                                "children": [],
                                                "depth": 2,
                                                "name": "balanceOf",
                                                "value": 639
                                            }
                                        ],
                                        "depth": 1,
                                        "name": "swap",
                                        "value": 47858
                                    },
                                    {
                                        "children": [
                                            {
                                                "children": [],
                                                "depth": 2,
                                                "name": "transfer",
                                                "value": 82462
                                            },
                                            {
                                                "children": [],
                                                "depth": 2,
                                                "name": "balanceOf",
                                                "value": 2472
                                            },
                                            {
                                                "children": [],
                                                "depth": 2,
                                                "name": "balanceOf",
                                                "value": 534
                                            }
                                        ],
                                        "depth": 1,
                                        "name": "swap",
                                        "value": 108872
                                    }
                                ],
                                "depth": 0,
                                "name": "Executed Gas",
                                "value": 202507
                            }
                        ],
                        "depth": -1,
                        "name": "Actual Gas Used",
                        "value": 205395
                    },
                    {
                        "children": [],
                        "depth": -1,
                        "name": "Refunded Gas",
                        "value": 20600
                    }
                ],
                "depth": -2,
                "name": "Total Gas",
                "value": 225995
            }
        ],
        "isConfirmed": true,
        "mainTrace": [
            {
                "children": [
                    {
                        "children": [
                            {
                                "children": [],
                                "depth": 1,
                                "id": 1,
                                "order": 1
                            },
                            {
                                "children": [],
                                "depth": 1,
                                "id": 2,
                                "order": 2
                            },
                            {
                                "children": [
                                    {
                                        "children": [],
                                        "depth": 2,
                                        "id": 4,
                                        "order": 4
                                    },
                                    {
                                        "children": [],
                                        "depth": 2,
                                        "id": 5,
                                        "order": 5
                                    }
                                ],
                                "depth": 1,
                                "id": 3,
                                "order": 3
                            },
                            {
                                "children": [
                                    {
                                        "children": [
                                            {
                                                "children": [],
                                                "depth": 3,
                                                "id": 8,
                                                "order": 8
                                            }
                                        ],
                                        "depth": 2,
                                        "id": 7,
                                        "order": 7
                                    },
                                    {
                                        "children": [],
                                        "depth": 2,
                                        "id": 9,
                                        "order": 9
                                    },
                                    {
                                        "children": [],
                                        "depth": 2,
                                        "id": 10,
                                        "order": 10
                                    },
                                    {
                                        "children": [],
                                        "depth": 2,
                                        "id": 11,
                                        "order": 11
                                    },
                                    {
                                        "children": [],
                                        "depth": 2,
                                        "id": 12,
                                        "order": 12
                                    }
                                ],
                                "depth": 1,
                                "id": 6,
                                "order": 6
                            },
                            {
                                "children": [
                                    {
                                        "children": [
                                            {
                                                "children": [],
                                                "depth": 3,
                                                "id": 15,
                                                "order": 15
                                            }
                                        ],
                                        "depth": 2,
                                        "id": 14,
                                        "order": 14
                                    },
                                    {
                                        "children": [],
                                        "depth": 2,
                                        "id": 16,
                                        "order": 16
                                    },
                                    {
                                        "children": [],
                                        "depth": 2,
                                        "id": 17,
                                        "order": 17
                                    },
                                    {
                                        "children": [],
                                        "depth": 2,
                                        "id": 18,
                                        "order": 18
                                    },
                                    {
                                        "children": [],
                                        "depth": 2,
                                        "id": 19,
                                        "order": 19
                                    }
                                ],
                                "depth": 1,
                                "id": 13,
                                "order": 13
                            }
                        ],
                        "depth": 0,
                        "id": 0,
                        "order": 0
                    }
                ],
                "depth": -1,
                "id": -1,
                "order": -1
            }
        ],
        "mainTraceNodeCount": 20,
        "parentIdMap": {
            "0": -1,
            "1": 0,
            "10": 6,
            "11": 6,
            "12": 6,
            "13": 0,
            "14": 13,
            "15": 14,
            "16": 13,
            "17": 13,
            "18": 13,
            "19": 13,
            "2": 0,
            "3": 0,
            "4": 3,
            "5": 3,
            "6": 0,
            "7": 6,
            "8": 7,
            "9": 6
        },
        "tidyTrace": [
            {
                "children": [
                    {
                        "children": [
                            {
                                "children": [
                                    {
                                        "children": [],
                                        "depth": 2,
                                        "id": 4,
                                        "order": 4
                                    },
                                    {
                                        "children": [],
                                        "depth": 2,
                                        "id": 5,
                                        "order": 5
                                    }
                                ],
                                "depth": 1,
                                "id": 3,
                                "order": 3
                            },
                            {
                                "children": [
                                    {
                                        "children": [
                                            {
                                                "children": [],
                                                "depth": 3,
                                                "id": 8,
                                                "order": 8
                                            }
                                        ],
                                        "depth": 2,
                                        "id": 7,
                                        "order": 7
                                    },
                                    {
                                        "children": [],
                                        "depth": 2,
                                        "id": 11,
                                        "order": 11
                                    },
                                    {
                                        "children": [],
                                        "depth": 2,
                                        "id": 12,
                                        "order": 12
                                    }
                                ],
                                "depth": 1,
                                "id": 6,
                                "order": 6
                            },
                            {
                                "children": [
                                    {
                                        "children": [
                                            {
                                                "children": [],
                                                "depth": 3,
                                                "id": 15,
                                                "order": 15
                                            }
                                        ],
                                        "depth": 2,
                                        "id": 14,
                                        "order": 14
                                    },
                                    {
                                        "children": [],
                                        "depth": 2,
                                        "id": 18,
                                        "order": 18
                                    },
                                    {
                                        "children": [],
                                        "depth": 2,
                                        "id": 19,
                                        "order": 19
                                    }
                                ],
                                "depth": 1,
                                "id": 13,
                                "order": 13
                            }
                        ],
                        "depth": 0,
                        "id": 0,
                        "order": 0
                    }
                ],
                "depth": -1,
                "id": -1,
                "order": -1
            }
        ],
        "tidyTraceNodeCount": 14
    },
    "state_change": {
        "stateChanges": [
            {
                "address": "0x4a488d7a4f2240e4b1798c750e5bf8106e2acf92",
                "erc": "ERC-20",
                "slots": [
                    {
                        "current": "0x60f06a39000000000008b9a0e0995f5a363e0000000000048be4f757ccbaadd3",
                        "key": "0x0000000000000000000000000000000000000000000000000000000000000008",
                        "prev": "0x60f06a39000000000008b5e50a4d563761280000000000048dd5f3802e0dc0b0"
                    }
                ],
                "storageVariables": [
                    {
                        "name": "reserve0",
                        "type": "uint112",
                        "value": {
                            "current": "83867430117269220819",
                            "prev": "84007318956079431856",
                            "typeTag": 1
                        }
                    },
                    {
                        "name": "reserve1",
                        "type": "uint112",
                        "value": {
                            "current": "160949890432301151806",
                            "prev": "160680846207483339048",
                            "typeTag": 1
                        }
                    },
                    {
                        "name": "blockTimestampLast",
                        "type": "uint32",
                        "value": {
                            "current": "1626368569",
                            "prev": "1626368569",
                            "typeTag": 1
                        }
                    }
                ]
            },
            {
                "address": "0x9358e3a79d428c7708da22a5bd085159f6818d12",
                "erc": "ERC-20",
                "slots": [
                    {
                        "current": "0x000657e805c9853490e74d80b38fc8eb1a8ba831bc2154320857a2a2fa2496a1",
                        "key": "0x3dd639b5abfde112f199769e13c443afc9c1aa322ecf2d17ddac679b0f32f731",
                        "prev": "0x000502063699a1bb7c69435bfff9edfa548b9870ef2e73f5db28cf49874bbdeb"
                    },
                    {
                        "current": "0xf86733ed50fba12b0e56fe9f8814b2feaf4be2110a3910677215bd3c54136f3c",
                        "key": "0x000000000000000000000000000000000000000000000000000000000000000a",
                        "prev": "0xf8674ab81a875affea365be22bc7779eaac7b3c5c79d695746792aae2cb5368b"
                    },
                    {
                        "current": "0x000000000000000000000000000000000000000000000001a20d1967a2e71f5f",
                        "key": "0x000000000000000000000000000000000000000000000000000000000000000b",
                        "prev": "0x000000000000000000000000000000000000000000000001a208200e29e23b4e"
                    },
                    {
                        "current": "0x14d53b131a8bb51b68191c1353d8e575b64b9d76183d87a54dd659dd399e2e90",
                        "key": "0x56acc2eb4aabfb26a0419c419e8ee733f3d39d4f78a3b8db04989c28998abebc",
                        "prev": "0x14de2249d5204c42a3047601bf8629e81dd5895af674594d1390bc53a2238c41"
                    },
                    {
                        "current": "0x0008d06bf108dd525f0bfcabc7fa7fd26c0e1a3020d278b7f156f5048fe39662",
                        "key": "0x5cd6d75566eec0d26862a2b07d14fbe7388f1ed3aba911c22103211ea07759b6",
                        "prev": "0x0000000000000000000000000000000000000000000000000000000000000000"
                    }
                ],
                "storageVariables": [
                    {
                        "name": "_rOwned",
                        "type": "mapping(address => uint256)",
                        "value": {
                            "pairs": [
                                {
                                    "key": "0x4a488d7a4f2240e4b1798c750e5bf8106e2acf92",
                                    "value": {
                                        "current": "9423003114532162843362974426096545752915812593389362596865247678265105985168",
                                        "prev": "9438733669942831377237957321195566666944482024497238001358636082172296137793",
                                        "typeTag": 1
                                    }
                                },
                                {
                                    "key": "0x9358e3a79d428c7708da22a5bd085159f6818d12",
                                    "value": {
                                        "current": "11207789637929979045816322177759643288596987395663255241906040560834352801",
                                        "prev": "8848206326329698992657909760150478372543906981069011259339040014002273771",
                                        "typeTag": 1
                                    }
                                },
                                {
                                    "key": "0x99fc9614843d43b8a9547b29487b7cf2801bea1e",
                                    "value": {
                                        "current": "15573249856561848620500131689762621453124739551557850522778299985857582690",
                                        "prev": "0",
                                        "typeTag": 1
                                    }
                                }
                            ],
                            "typeTag": 4
                        }
                    },
                    {
                        "name": "_rTotal",
                        "type": "uint256",
                        "value": {
                            "current": "112355930083421782067734854242939008473189495465429457901588975122528173518652",
                            "prev": "112356087388975888752989337006348266765765040156985775455559585226449506088587",
                            "typeTag": 1
                        }
                    },
                    {
                        "name": "_tFeeTotal",
                        "type": "uint256",
                        "value": {
                            "current": "30123761415456497503",
                            "prev": "30122361352871885646",
                            "typeTag": 1
                        }
                    }
                ]
            },
            {
                "address": "0xc02aaa39b223fe8d0a0e5c4f27ead9083c756cc2",
                "erc": "ERC-20",
                "slots": [
                    {
                        "current": "0x00000000000000000000000000000000000000000000000cd8b5cf960de55c15",
                        "key": "0x54c3169c4ee20779b015a6d54b3c7a7c343912a15a07bdde68debe3c0495568f",
                        "prev": "0x00000000000000000000000000000000000000000000000cdc71a5e21708312b"
                    },
                    {
                        "current": "0x000000000000000000000000000000000000000000000008b9a0e0995f5a363e",
                        "key": "0x56acc2eb4aabfb26a0419c419e8ee733f3d39d4f78a3b8db04989c28998abebc",
                        "prev": "0x000000000000000000000000000000000000000000000008b5e50a4d56376128"
                    }
                ],
                "storageVariables": [
                    {
                        "name": "balanceOf",
                        "type": "mapping(address => uint256)",
                        "value": {
                            "pairs": [
                                {
                                    "key": "0x4a488d7a4f2240e4b1798c750e5bf8106e2acf92",
                                    "value": {
                                        "current": "160949890432301151806",
                                        "prev": "160680846207483339048",
                                        "typeTag": 1
                                    }
                                },
                                {
                                    "key": "0xd561235046bb35e4ca93995ae39db2045af62b9a",
                                    "value": {
                                        "current": "236976544410876861461",
                                        "prev": "237245588635694674219",
                                        "typeTag": 1
                                    }
                                }
                            ],
                            "typeTag": 4
                        }
                    }
                ]
            },
            {
                "address": "0xc382e04099a435439725bb40647e2b32dc136806",
                "erc": "ERC-20",
                "slots": [
                    {
                        "current": "0x0000000000000000000000000000000000000000000000000000000000000000",
                        "key": "0xbcc547761fe8725e8044debc182dabddfe4136def5e5bbd6451563ab4563f59b",
                        "prev": "0x0000000000000000000000000000000000000000019c7b93836feeb8ba7d9834"
                    },
                    {
                        "current": "0x00000000000000000000000000000000000000058890f90d93186018d410f177",
                        "key": "0xe534adccb080ef10dff62fe0fa2b7b09a71f11b6bcd36e67f78380a4550f913c",
                        "prev": "0x000000000000000000000000000000000000000586f47d7a0fa8716019935943"
                    },
                    {
                        "current": "0xfffffffffffffffffffffffffffffffffffffffff6ce5ee35654a67676eb4334",
                        "key": "0x8ba369fadee73d39151d6cbd8f85c519a8097b5f7af141b067312a8d24d3c733",
                        "prev": "0xfffffffffffffffffffffffffffffffffffffffff86ada76d9c4952f3168db68"
                    }
                ],
                "storageVariables": [
                    {
                        "name": "_balances",
                        "type": "mapping(address => uint256)",
                        "value": {
                            "pairs": [
                                {
                                    "key": "0x99fc9614843d43b8a9547b29487b7cf2801bea1e",
                                    "value": {
                                        "current": "0",
                                        "prev": "498661009901050040197945396",
                                        "typeTag": 1
                                    }
                                },
                                {
                                    "key": "0xd561235046bb35e4ca93995ae39db2045af62b9a",
                                    "value": {
                                        "current": "438406035344710358798099870071",
                                        "prev": "437907374334809308757901924675",
                                        "typeTag": 1
                                    }
                                }
                            ],
                            "typeTag": 4
                        }
                    },
                    {
                        "name": "_allowances",
                        "type": "mapping(address => mapping(address => uint256))",
                        "value": {
                            "pairs": [
                                {
                                    "key": "0x99fc9614843d43b8a9547b29487b7cf2801bea1e",
                                    "value": {
                                        "pairs": [
                                            {
                                                "key": "0x7a250d5630b4cf539739df2c5dacb4c659f2488d",
                                                "value": {
                                                    "current": "115792089237316195423570985008687907853269984665637718676174292245327626584884",
                                                    "prev": "115792089237316195423570985008687907853269984665638217337184193295367824530280",
                                                    "typeTag": 1
                                                }
                                            }
                                        ],
                                        "typeTag": 4
                                    }
                                }
                            ],
                            "typeTag": 4
                        }
                    }
                ]
            },
            {
                "address": "0xd561235046bb35e4ca93995ae39db2045af62b9a",
                "erc": "ERC-20",
                "slots": [
                    {
                        "current": "0x60f06a3900058890f90d93186018d410f17700000000000cd8b5cf960de55c15",
                        "key": "0x0000000000000000000000000000000000000000000000000000000000000008",
                        "prev": "0x60f069e6000586f47d7a0fa871601993594300000000000cdc71a5e21708312b"
                    },
                    {
                        "current": "0x00000000000000000000005f13fd83d6dd40fce36e2b16e098e395e356ee9055",
                        "key": "0x0000000000000000000000000000000000000000000000000000000000000009",
                        "prev": "0x00000000000000000000005f13d9d855dd215140d9b860ec0f95a551b390f030"
                    },
                    {
                        "current": "0x0000000000000000000000000000000000000045ae01cd7c59b9f42fb3d94f65",
                        "key": "0x000000000000000000000000000000000000000000000000000000000000000a",
                        "prev": "0x0000000000000000000000000000000000000045ad40abbd2c5eb51d186fb5bf"
                    }
                ],
                "storageVariables": [
                    {
                        "name": "price1CumulativeLast",
                        "type": "uint256",
                        "value": {
                            "current": "5520595784497963671184857452389",
                            "prev": "5520362302450087719673585972671",
                            "typeTag": 1
                        }
                    },
                    {
                        "name": "reserve0",
                        "type": "uint112",
                        "value": {
                            "current": "236976544410876861461",
                            "prev": "237245588635694674219",
                            "typeTag": 1
                        }
                    },
                    {
                        "name": "reserve1",
                        "type": "uint112",
                        "value": {
                            "current": "438406035344710358798099870071",
                            "prev": "437907374334809308757901924675",
                            "typeTag": 1
                        }
                    },
                    {
                        "name": "blockTimestampLast",
                        "type": "uint32",
                        "value": {
                            "current": "1626368569",
                            "prev": "1626368486",
                            "typeTag": 1
                        }
                    },
                    {
                        "name": "price0CumulativeLast",
                        "type": "uint256",
                        "value": {
                            "current": "138956779944440638832891960358105689632020156551253",
                            "prev": "138955984478261206154903206658844830097311024607280",
                            "typeTag": 1
                        }
                    }
                ]
            }
        ]
    }
}