{
    "balance_change": {
        "balanceChanges": [
            {
                "account": "0x83266007764d7b95e1d52d8df75e06819066ba46",
                "assets": [
                    {
                        "address": "0xfaba6f8e4a5e8ab82f62fe7c39859fa577269be3",
                        "amount": "500",
                        "iconUrl": "",
                        "isERC1155": false,
                        "isERC721": false,
                        "sign": false,
                        "value": "604.99999999999998224"
                    }
                ]
            },
            {
                "account": "0x560c5a7780f36467f82cd2b314c6267a37f90d68",
                "assets": [
                    {
                        "address": "0xfaba6f8e4a5e8ab82f62fe7c39859fa577269be3",
                        "amount": "500",
                        "iconUrl": "",
                        "isERC1155": false,
                        "isERC721": false,
                        "sign": true,
                        "value": "604.99999999999998224"
                    }
                ]
            }
        ]
    },
    "profile": {
        "basic_info": {
            "baseFee": "2.589348218",
            "blockNumber": 20166725,
            "callData": "0xa9059cbb000000000000000000000000560c5a7780f36467f82cd2b314c6267a37f90d6800000000000000000000000000000000000000000000001b1ae4d6e2ef500000",
            "debugEnable": true,
            "errorInfo": "",
            "eventCount": 1,
            "feeRecipient": "0xdf99a0839818b3f120ebac9b73f82b617dc6a555",
            "formatValue": "0",
            "gasLimit": 92311,
            "gasPrice": "2.672008889",
            "gasUsed": 61541,
            "intTxnCount": 0,
            "internalRevert": false,
            "internalRevertMessage": "",
            "isContractCreation": false,
            "isFlashloan": false,
            "maxFee": "3.140580824",
            "nonce": 2,
            "overwritedBlockNumber": -1,
            "priorityFee": "0.082660671",
            "receiver": "0xfaba6f8e4a5e8ab82f62fe7c39859fa577269be3",
            "revertMessage": "",
            "sender": "0x83266007764d7b95e1d52d8df75e06819066ba46",
            "simulationEnable": true,
            "sourceTxnHash": "0x4a567ebbe4a29e490cb4e9c148edaf90dbb6deb8d598dff76518c58dbdf70456",
            "status": true,
            "timestamp": "2024-06-25T05:51:23Z",
            "transactionFee": "0.000164438099037949",
            "txnHash": "0x4a567ebbe4a29e490cb4e9c148edaf90dbb6deb8d598dff76518c58dbdf70456",
            "txnIndex": 127,
            "type": 2,
            "value": "0"
        },
        "fund_flow": [
            {
                "amount": "500",
                "from": "0x83266007764d7b95e1d52d8df75e06819066ba46",
                "id": 1,
                "isERC1155": false,
                "isERC721": false,
                "isReverted": false,
                "order": 1,
                "to": "0x560c5a7780f36467f82cd2b314c6267a37f90d68",
                "token": "0xfaba6f8e4a5e8ab82f62fe7c39859fa577269be3"
            }
        ],
        "token_infos": [
            {
                "address": "0xc02aaa39b223fe8d0a0e5c4f27ead9083c756cc2",
                "decimals": 18
            },
            {
                "address": "0xfaba6f8e4a5e8ab82f62fe7c39859fa577269be3",
                "decimals": 18
            },
            {
                "address": "0xeeeeeeeeeeeeeeeeeeeeeeeeeeeeeeeeeeeeeeee",
                "decimals": 18
            }
        ]
    },
    "address_label": {
        "labels": [
            {
                "address": "0x0000000000000000000000000000000000000003",
                "label": "Precompiled"
            },
            {
                "address": "0x0000000000000000000000000000000000000004",
                "label": "Precompiled"
            },
            {
                "address": "0xeeeeeeeeeeeeeeeeeeeeeeeeeeeeeeeeeeeeeeee",
                "label": "Ether"
            },
            {
                "address": "0xfaba6f8e4a5e8ab82f62fe7c39859fa577269be3",
                "label": "Ondo Finance: ONDO Token"
            },
            {
                "address": "0x0000000000000000000000000000000000000001",
                "label": "Precompiled"
            },
            {
                "address": "0x0000000000000000000000000000000000000002",
                "label": "Precompiled"
            }
        ]
    },
    "trace": {
        "accountLabels": null,
        "dataMap": {
            "-1": {
                "invocation": {
                    "address": "0x83266007764d7b95e1d52d8df75e06819066ba46",
                    "callData": "",
                    "decodedMethod": null,
                    "errorInfo": "",
                    "fromAddress": "",
                    "gasUsed": 0,
                    "id": -1,
                    "methodDecoded": false,
                    "operation": "",
                    "output": "",
                    "revert": false,
                    "revertMessage": "",
                    "selector": "",
                    "status": false,
                    "value": ""
                },
                "nodeType": 0
            },
            "0": {
                "invocation": {
                    "address": "0xfaba6f8e4a5e8ab82f62fe7c39859fa577269be3",
                    "callData": "0x000000000000000000000000560c5a7780f36467f82cd2b314c6267a37f90d6800000000000000000000000000000000000000000000001b1ae4d6e2ef500000",
                    "decodedMethod": {
                        "callParams": [
                            {
                                "name": "dst",
                                "type": "address",
                                "value": "0x560c5a7780f36467f82cd2b314c6267a37f90d68"
                            },
                            {
                                "decimalAvailable": true,
                                "name": "rawAmount",
                                "type": "uint256",
                                "value": "500,000,000,000,000,000,000"
                            }
                        ],
                        "constructorArguments": "",
                        "name": "transfer",
                        "returnParams": [
                            {
                                "name": "",
                                "type": "bool",
                                "value": true
                            }
                        ],
                        "signature": "transfer(address,uint256)"
                    },
                    "errorInfo": "",
                    "fromAddress": "0x83266007764d7b95e1d52d8df75e06819066ba46",
                    "gasUsed": 61541,
                    "id": 0,
                    "methodDecoded": true,
                    "operation": "CALL",
                    "output": "0x0000000000000000000000000000000000000000000000000000000000000001",
                    "revert": false,
                    "revertMessage": "",
                    "selector": "0xa9059cbb",
                    "status": true,
                    "value": "0"
                },
                "nodeType": 0
            },
            "1": {
                "event": {
                    "contract": "0xfaba6f8e4a5e8ab82f62fe7c39859fa577269be3",
                    "decodedLog": {
                        "name": "Transfer",
                        "params": [
                            {
                                "name": "from",
                                "type": "address",
                                "value": "0x83266007764d7b95e1d52d8df75e06819066ba46"
                            },
                            {
                                "name": "to",
                                "type": "address",
                                "value": "0x560c5a7780f36467f82cd2b314c6267a37f90d68"
                            },
                            {
                                "decimalAvailable": true,
                                "name": "amount",
                                "type": "uint256",
                                "value": "500,000,000,000,000,000,000"
                            }
                        ],
                        "signature": "Transfer(address,address,uint256)"
                    },
                    "id": 1,
                    "logData": "0x00000000000000000000000000000000000000000000001b1ae4d6e2ef500000",
                    "logDecoded": true,
                    "operation": "EVENT",
                    "revert": false,
                    "status": true,
                    "topics": [
                        "0xddf252ad1be2c89b69c2b068fc378daa952ba7f163c4a11628f55a4df523b3ef",
                        "0x00000000000000000000000083266007764d7b95e1d52d8df75e06819066ba46",
                        "0x000000000000000000000000560c5a7780f36467f82cd2b314c6267a37f90d68"
                    ]
                },
                "nodeType": 1
            }
        },
        "gasFlame": [
            {
                "children": [
                    {
                        "children": [
                            {
                                "children": [],
                                "depth": 0,
                                "name": "Initial Gas",
                                "value": 21644
                            },
                            {
                                "children": [],
                                "depth": 0,
                                "name": "Executed Gas",
                                "value": 39897
                            }
                        ],
                        "depth": -1,
                        "name": "Actual Gas Used",
                        "value": 61541
                    },
                    {
                        "children": [],
                        "depth": -1,
                        "name": "Refunded Gas",
                        "value": 0
                    }
                ],
                "depth": -2,
                "name": "Total Gas",
                "value": 61541
            }
        ],
        "isConfirmed": true,
        "mainTrace": [
            {
                "children": [
                    {
                        "children": [
                            {
                                "children": [],
                                "depth": 1,
                                "id": 1,
                                "order": 1
                            }
                        ],
                        "depth": 0,
                        "id": 0,
                        "order": 0
                    }
                ],
                "depth": -1,
                "id": -1,
                "order": -1
            }
        ],
        "mainTraceNodeCount": 2,
        "parentIdMap": {
            "0": -1,
            "1": 0
        },
        "tidyTrace": [
            {
                "children": [
                    {
                        "children": [
                            {
                                "children": [],
                                "depth": 1,
                                "id": 1,
                                "order": 1
                            }
                        ],
                        "depth": 0,
                        "id": 0,
                        "order": 0
                    }
                ],
                "depth": -1,
                "id": -1,
                "order": -1
            }
        ],
        "tidyTraceNodeCount": 2
    },
    "state_change": {
        "stateChanges": [
            {
                "address": "0xfaba6f8e4a5e8ab82f62fe7c39859fa577269be3",
                "erc": "ERC-20",
                "slots": [
                    {
                        "current": "0x000000000000000000000000000000000000000000000018a4b41c7a9cd30000",
                        "key": "0x155616edfd303475215498997f44c9a62ab544d50891e647c62f459a1c2a4a39",
                        "prev": "0x000000000000000000000000000000000000000000000033bf98f35d8c230000"
                    },
                    {
                        "current": "0x00000000000000000000000000000000000000000000001b1ae4d6e2ef500000",
                        "key": "0x9d1ca116100b98005e51442eed5b5ab7ff7a2ccb59cf1de7398902ba80ceb24d",
                        "prev": "0x0000000000000000000000000000000000000000000000000000000000000000"
                    }
                ],
                "storageVariables": [
                    {
                        "name": "balances",
                        "type": "mapping(address => uint96)",
                        "value": {
                            "pairs": [
                                {
                                    "key": "0x560c5a7780f36467f82cd2b314c6267a37f90d68",
                                    "value": {
                                        "current": "500000000000000000000",
                                        "prev": "0",
                                        "typeTag": 1
                                    }
                                },
                                {
                                    "key": "0x83266007764d7b95e1d52d8df75e06819066ba46",
                                    "value": {
                                        "current": "454590000000000000000",
                                        "prev": "954590000000000000000",
                                        "typeTag": 1
                                    }
                                }
                            ],
                            "typeTag": 4
                        }
                    }
                ]
            }
        ]
    }
}