{
    "balance_change": {
        "balanceChanges": []
    },
    "profile": {
        "basic_info": {
            "baseFee": "",
            "blockNumber": 4601258,
            "callData": "0x40c10f190000000000000000000000007e7301e19282b911a01a099583b0deb30b442b8f000000000000000000000000000000000000000000000064a69c6ee344440000",
            "debugEnable": true,
            "errorInfo": "",
            "eventCount": 0,
            "feeRecipient": "0x829bd824b016326a401d083b33d092293333a830",
            "formatValue": "0",
            "gasLimit": 250000,
            "gasPrice": "20",
            "gasUsed": 50168,
            "intTxnCount": 0,
            "internalRevert": false,
            "internalRevertMessage": "",
            "isContractCreation": false,
            "isFlashloan": false,
            "maxFee": "",
            "nonce": 487,
            "overwritedBlockNumber": -1,
            "priorityFee": "",
            "receiver": "0xf337370a2c45141b4fb8dee6cdc6ac77aa97fe9e",
            "revertMessage": "",
            "sender": "0xa99ab2fcc5ddfd5c1cbe6c3d760420d2ddb63d99",
            "simulationEnable": true,
            "sourceTxnHash": "0x4aebadc1704ff0acb982b48fab61faf865000941324ebc881396b3ff53852b2f",
            "status": true,
            "timestamp": "2017-11-22T14:49:39Z",
            "transactionFee": "0.00100336",
            "txnHash": "0x4aebadc1704ff0acb982b48fab61faf865000941324ebc881396b3ff53852b2f",
            "txnIndex": 100,
            "type": 0,
            "value": "0"
        },
        "fund_flow": [],
        "token_infos": [
            {
                "address": "0xc02aaa39b223fe8d0a0e5c4f27ead9083c756cc2",
                "decimals": 18
            },
            {
                "address": "0xeeeeeeeeeeeeeeeeeeeeeeeeeeeeeeeeeeeeeeee",
                "decimals": 18
            }
        ]
    },
    "address_label": {
        "labels": [
            {
                "address": "0xeeeeeeeeeeeeeeeeeeeeeeeeeeeeeeeeeeeeeeee",
                "label": "Ether"
            },
            {
                "address": "0x0000000000000000000000000000000000000001",
                "label": "Precompiled"
            },
            {
                "address": "0x0000000000000000000000000000000000000002",
                "label": "Precompiled"
            },
            {
                "address": "0x0000000000000000000000000000000000000003",
                "label": "Precompiled"
            },
            {
                "address": "0x0000000000000000000000000000000000000004",
                "label": "Precompiled"
            }
        ]
    },
    "trace": {
        "accountLabels": null,
        "dataMap": {
            "-1": {
                "invocation": {
                    "address": "0xa99ab2fcc5ddfd5c1cbe6c3d760420d2ddb63d99",
                    "callData": "",
                    "decodedMethod": null,
                    "errorInfo": "",
                    "fromAddress": "",
                    "gasUsed": 0,
                    "id": -1,
                    "methodDecoded": false,
                    "operation": "",
                    "output": "",
                    "revert": false,
                    "revertMessage": "",
                    "selector": "",
                    "status": false,
                    "value": ""
                },
                "nodeType": 0
            },
            "0": {
                "invocation": {
                    "address": "0xf337370a2c45141b4fb8dee6cdc6ac77aa97fe9e",
                    "callData": "0x0000000000000000000000007e7301e19282b911a01a099583b0deb30b442b8f000000000000000000000000000000000000000000000064a69c6ee344440000",
                    "decodedMethod": {
                        "callParams": [
                            {
                                "name": "to",
                                "type": "address",
                                "value": "0x7e7301e19282b911a01a099583b0deb30b442b8f"
                            },
                            {
                                "name": "amount",
                                "type": "uint256",
                                "value": "1,856,680,000,000,000,000,000"
                            }
                        ],
                        "constructorArguments": "",
                        "name": "mint",
                        "returnParams": [],
                        "signature": "mint(address,uint256)"
                    },
                    "errorInfo": "",
                    "fromAddress": "0xa99ab2fcc5ddfd5c1cbe6c3d760420d2ddb63d99",
                    "gasUsed": 50168,
                    "id": 0,
                    "methodDecoded": true,
                    "operation": "CALL",
                    "output": "",
                    "revert": false,
                    "revertMessage": "",
                    "selector": "0x40c10f19",
                    "status": true,
                    "value": "0"
                },
                "nodeType": 0
            }
        },
        "gasFlame": [
            {
                "children": [
                    {
                        "children": [
                            {
                                "children": [],
                                "depth": 0,
                                "name": "Initial Gas",
                                "value": 23256
                            },
                            {
                                "children": [],
                                "depth": 0,
                                "name": "Executed Gas",
                                "value": 26912
                            }
                        ],
                        "depth": -1,
                        "name": "Actual Gas Used",
                        "value": 50168
                    },
                    {
                        "children": [],
                        "depth": -1,
                        "name": "Refunded Gas",
                        "value": 0
                    }
                ],
                "depth": -2,
                "name": "Total Gas",
                "value": 50168
            }
        ],
        "isConfirmed": true,
        "mainTrace": [
            {
                "children": [
                    {
                        "children": [],
                        "depth": 0,
                        "id": 0,
                        "order": 0
                    }
                ],
                "depth": -1,
                "id": -1,
                "order": -1
            }
        ],
        "mainTraceNodeCount": 1,
        "parentIdMap": {
            "0": -1
        },
        "tidyTrace": [
            {
                "children": [
                    {
                        "children": [],
                        "depth": 0,
                        "id": 0,
                        "order": 0
                    }
                ],
                "depth": -1,
                "id": -1,
                "order": -1
            }
        ],
        "tidyTraceNodeCount": 1
    },
    "state_change": {
        "stateChanges": [
            {
                "address": "0xf337370a2c45141b4fb8dee6cdc6ac77aa97fe9e",
                "erc": "",
                "slots": [
                    {
                        "current": "0x0000000000000000000000000000000000000000000e588b03edc6a0b4b74bd0",
                        "key": "0x0000000000000000000000000000000000000000000000000000000000000000",
                        "prev": "0x0000000000000000000000000000000000000000000e58265d5157bd70734bd0"
                    },
                    {
                        "current": "0x000000000000000000000000000000000000000000000064a69c6ee344440000",
                        "key": "0x3dc133c08b8bb76521242043f4e21e77c409dd0931d42242638d8e9726ec7c76",
                        "prev": "0x0000000000000000000000000000000000000000000000000000000000000000"
                    }
                ],
                "storageVariables": []
            }
        ]
    }
}