{
    "balance_change": {
        "balanceChanges": [
            {
                "account": "0x5943ead8f6e5f7f3e04d9c39fd90899ddc0ef31e",
                "assets": [
                    {
                        "address": "0x5f6e7fb7fe92ea7822472bb0e8f1be60d6a4ea50",
                        "amount": "188.8665252",
                        "iconUrl": "",
                        "isERC1155": false,
                        "isERC721": false,
                        "sign": false,
                        "value": ""
                    }
                ]
            },
            {
                "account": "0x168c0832d0ec86dc8288a64efc9136956179c403",
                "assets": [
                    {
                        "address": "0x5f6e7fb7fe92ea7822472bb0e8f1be60d6a4ea50",
                        "amount": "188.8665252",
                        "iconUrl": "",
                        "isERC1155": false,
                        "isERC721": false,
                        "sign": true,
                        "value": ""
                    }
                ]
            }
        ]
    },
    "profile": {
        "basic_info": {
            "baseFee": "",
            "blockNumber": 5186589,
            "callData": "0xa9059cbb000000000000000000000000168c0832d0ec86dc8288a64efc9136956179c40300000000000000000000000000000000000000000000000a3d0cb002fc5ca000",
            "debugEnable": true,
            "errorInfo": "",
            "eventCount": 1,
            "feeRecipient": "0x52bc44d5378309ee2abf1539bf71de1b7d7be3b5",
            "formatValue": "0",
            "gasLimit": 90000,
            "gasPrice": "5",
            "gasUsed": 60530,
            "intTxnCount": 0,
            "internalRevert": false,
            "internalRevertMessage": "",
            "isContractCreation": false,
            "isFlashloan": false,
            "maxFee": "",
            "nonce": 2,
            "overwritedBlockNumber": -1,
            "priorityFee": "",
            "receiver": "0x5f6e7fb7fe92ea7822472bb0e8f1be60d6a4ea50",
            "revertMessage": "",
            "sender": "0x5943ead8f6e5f7f3e04d9c39fd90899ddc0ef31e",
            "simulationEnable": true,
            "sourceTxnHash": "0x4a4ce5451400c5b83e9a5505eca99ad26d7262bb1f1f88841314bb579ced702c",
            "status": true,
            "timestamp": "2018-03-03T02:47:10Z",
            "transactionFee": "0.00030265",
            "txnHash": "0x4a4ce5451400c5b83e9a5505eca99ad26d7262bb1f1f88841314bb579ced702c",
            "txnIndex": 67,
            "type": 0,
            "value": "0"
        },
        "fund_flow": [
            {
                "amount": "188.8665252",
                "from": "0x5943ead8f6e5f7f3e04d9c39fd90899ddc0ef31e",
                "id": 1,
                "isERC1155": false,
                "isERC721": false,
                "isReverted": false,
                "order": 1,
                "to": "0x168c0832d0ec86dc8288a64efc9136956179c403",
                "token": "0x5f6e7fb7fe92ea7822472bb0e8f1be60d6a4ea50"
            }
        ],
        "token_infos": [
            {
                "address": "0x5f6e7fb7fe92ea7822472bb0e8f1be60d6a4ea50",
                "decimals": 18
            },
            {
                "address": "0xc02aaa39b223fe8d0a0e5c4f27ead9083c756cc2",
                "decimals": 18
            },
            {
                "address": "0xeeeeeeeeeeeeeeeeeeeeeeeeeeeeeeeeeeeeeeee",
                "decimals": 18
            }
        ]
    },
    "address_label": {
        "labels": [
            {
                "address": "0x0000000000000000000000000000000000000003",
                "label": "Precompiled"
            },
            {
                "address": "0x0000000000000000000000000000000000000004",
                "label": "Precompiled"
            },
            {
                "address": "0xeeeeeeeeeeeeeeeeeeeeeeeeeeeeeeeeeeeeeeee",
                "label": "Ether"
            },
            {
                "address": "0x5f6e7fb7fe92ea7822472bb0e8f1be60d6a4ea50",
                "label": "Artemine: ARTE Token"
            },
            {
                "address": "0x0000000000000000000000000000000000000001",
                "label": "Precompiled"
            },
            {
                "address": "0x0000000000000000000000000000000000000002",
                "label": "Precompiled"
            }
        ]
    },
    "trace": {
        "accountLabels": null,
        "dataMap": {
            "-1": {
                "invocation": {
                    "address": "0x5943ead8f6e5f7f3e04d9c39fd90899ddc0ef31e",
                    "callData": "",
                    "decodedMethod": null,
                    "errorInfo": "",
                    "fromAddress": "",
                    "gasUsed": 0,
                    "id": -1,
                    "methodDecoded": false,
                    "operation": "",
                    "output": "",
                    "revert": false,
                    "revertMessage": "",
                    "selector": "",
                    "status": false,
                    "value": ""
                },
                "nodeType": 0
            },
            "0": {
                "invocation": {
                    "address": "0x5f6e7fb7fe92ea7822472bb0e8f1be60d6a4ea50",
                    "callData": "0x000000000000000000000000168c0832d0ec86dc8288a64efc9136956179c40300000000000000000000000000000000000000000000000a3d0cb002fc5ca000",
                    "decodedMethod": {
                        "callParams": [
                            {
                                "name": "_to",
                                "type": "address",
                                "value": "0x168c0832d0ec86dc8288a64efc9136956179c403"
                            },
                            {
                                "decimalAvailable": true,
                                "name": "_value",
                                "type": "uint256",
                                "value": "188,866,525,200,000,000,000"
                            }
                        ],
                        "constructorArguments": "",
                        "name": "transfer",
                        "returnParams": [],
                        "signature": "transfer(address,uint256)"
                    },
                    "errorInfo": "",
                    "fromAddress": "0x5943ead8f6e5f7f3e04d9c39fd90899ddc0ef31e",
                    "gasUsed": 60530,
                    "id": 0,
                    "methodDecoded": true,
                    "operation": "CALL",
                    "output": "",
                    "revert": false,
                    "revertMessage": "",
                    "selector": "0xa9059cbb",
                    "status": true,
                    "value": "0"
                },
                "nodeType": 0
            },
            "1": {
                "event": {
                    "contract": "0x5f6e7fb7fe92ea7822472bb0e8f1be60d6a4ea50",
                    "decodedLog": {
                        "name": "Transfer",
                        "params": [
                            {
                                "name": "from",
                                "type": "address",
                                "value": "0x5943ead8f6e5f7f3e04d9c39fd90899ddc0ef31e"
                            },
                            {
                                "name": "to",
                                "type": "address",
                                "value": "0x168c0832d0ec86dc8288a64efc9136956179c403"
                            },
                            {
                                "decimalAvailable": true,
                                "name": "value",
                                "type": "uint256",
                                "value": "188,866,525,200,000,000,000"
                            }
                        ],
                        "signature": "Transfer(address,address,uint256)"
                    },
                    "id": 1,
                    "logData": "0x00000000000000000000000000000000000000000000000a3d0cb002fc5ca000",
                    "logDecoded": true,
                    "operation": "EVENT",
                    "revert": false,
                    "status": true,
                    "topics": [
                        "0xddf252ad1be2c89b69c2b068fc378daa952ba7f163c4a11628f55a4df523b3ef",
                        "0x0000000000000000000000005943ead8f6e5f7f3e04d9c39fd90899ddc0ef31e",
                        "0x000000000000000000000000168c0832d0ec86dc8288a64efc9136956179c403"
                    ]
                },
                "nodeType": 1
            }
        },
        "gasFlame": [
            {
                "children": [
                    {
                        "children": [
                            {
                                "children": [],
                                "depth": 0,
                                "name": "Initial Gas",
                                "value": 23320
                            },
                            {
                                "children": [],
                                "depth": 0,
                                "name": "Executed Gas",
                                "value": 37210
                            }
                        ],
                        "depth": -1,
                        "name": "Actual Gas Used",
                        "value": 60530
                    },
                    {
                        "children": [],
                        "depth": -1,
                        "name": "Refunded Gas",
                        "value": 0
                    }
                ],
                "depth": -2,
                "name": "Total Gas",
                "value": 60530
            }
        ],
        "isConfirmed": true,
        "mainTrace": [
            {
                "children": [
                    {
                        "children": [
                            {
                                "children": [],
                                "depth": 1,
                                "id": 1,
                                "order": 1
                            }
                        ],
                        "depth": 0,
                        "id": 0,
                        "order": 0
                    }
                ],
                "depth": -1,
                "id": -1,
                "order": -1
            }
        ],
        "mainTraceNodeCount": 2,
        "parentIdMap": {
            "0": -1,
            "1": 0
        },
        "tidyTrace": [
            {
                "children": [
                    {
                        "children": [
                            {
                                "children": [],
                                "depth": 1,
                                "id": 1,
                                "order": 1
                            }
                        ],
                        "depth": 0,
                        "id": 0,
                        "order": 0
                    }
                ],
                "depth": -1,
                "id": -1,
                "order": -1
            }
        ],
        "tidyTraceNodeCount": 2
    },
    "state_change": {
        "stateChanges": [
            {
                "address": "0x5f6e7fb7fe92ea7822472bb0e8f1be60d6a4ea50",
                "erc": "ERC-20",
                "slots": [
                    {
                        "current": "0x00000000000000000000000000000000000000000000051edca3aa31d12b6000",
                        "key": "0xc5d897d3a4bb5d196a8f3c7e5b7c448075777ee3cb61e3e908beed022bbb0c9c",
                        "prev": "0x00000000000000000000000000000000000000000000052919b05a34cd880000"
                    },
                    {
                        "current": "0x000000000000000000000000000000000000000000000399762b6bad866e9000",
                        "key": "0xdecfb2d8ade87731602daddb20aeb72149416f81e8f4085fcfe0e6b3fa49c0f1",
                        "prev": "0x00000000000000000000000000000000000000000000038f391ebbaa8a11f000"
                    }
                ],
                "storageVariables": [
                    {
                        "name": "balances",
                        "type": "mapping(address => uint256)",
                        "value": {
                            "pairs": [
                                {
                                    "key": "0x168c0832d0ec86dc8288a64efc9136956179c403",
                                    "value": {
                                        "current": "16997966309800000000000",
                                        "prev": "16809099784600000000000",
                                        "typeTag": 1
                                    }
                                },
                                {
                                    "key": "0x5943ead8f6e5f7f3e04d9c39fd90899ddc0ef31e",
                                    "value": {
                                        "current": "24181133474800000000000",
                                        "prev": "24370000000000000000000",
                                        "typeTag": 1
                                    }
                                }
                            ],
                            "typeTag": 4
                        }
                    }
                ]
            }
        ]
    }
}