{
    "balance_change": {
        "balanceChanges": [
            {
                "account": "0x27415e9ca3cf39b729133123c48b49f6417535bd",
                "assets": [
                    {
                        "address": "0x69e0af532e6ac7bcab8cc41e46d9338ad93fde12",
                        "amount": "1,436,500,000,000,000,000",
                        "iconUrl": "",
                        "isERC1155": false,
                        "isERC721": false,
                        "sign": false,
                        "value": ""
                    }
                ]
            },
            {
                "account": "0xe95fd117f00a432936e47a099102893f64643cfe",
                "assets": [
                    {
                        "address": "0x69e0af532e6ac7bcab8cc41e46d9338ad93fde12",
                        "amount": "1,436,500,000,000,000,000",
                        "iconUrl": "",
                        "isERC1155": false,
                        "isERC721": false,
                        "sign": true,
                        "value": ""
                    }
                ]
            }
        ]
    },
    "profile": {
        "basic_info": {
            "baseFee": "",
            "blockNumber": 7423555,
            "callData": "0xa9059cbb000000000000000000000000e95fd117f00a432936e47a099102893f64643cfe00000000000000000000000000000000000000000000000013ef79239bd94000",
            "debugEnable": true,
            "errorInfo": "",
            "eventCount": 1,
            "feeRecipient": "0x5a0b54d5dc17e0aadc383d2db43b0a0d3e029c4c",
            "formatValue": "0",
            "gasLimit": 100000,
            "gasPrice": "2",
            "gasUsed": 51969,
            "intTxnCount": 0,
            "internalRevert": false,
            "internalRevertMessage": "",
            "isContractCreation": false,
            "isFlashloan": false,
            "maxFee": "",
            "nonce": 188,
            "overwritedBlockNumber": -1,
            "priorityFee": "",
            "receiver": "0x69e0af532e6ac7bcab8cc41e46d9338ad93fde12",
            "revertMessage": "",
            "sender": "0x27415e9ca3cf39b729133123c48b49f6417535bd",
            "simulationEnable": true,
            "sourceTxnHash": "0x4af133f6f15cd9e63cda93d39f37aac39575c6800737d8432b9c5098401dbe3d",
            "status": true,
            "timestamp": "2019-03-23T07:17:16Z",
            "transactionFee": "0.000103938",
            "txnHash": "0x4af133f6f15cd9e63cda93d39f37aac39575c6800737d8432b9c5098401dbe3d",
            "txnIndex": 24,
            "type": 0,
            "value": "0"
        },
        "fund_flow": [
            {
                "amount": "1,436,500,000,000,000,000",
                "from": "0x27415e9ca3cf39b729133123c48b49f6417535bd",
                "id": 1,
                "isERC1155": false,
                "isERC721": false,
                "isReverted": false,
                "order": 1,
                "to": "0xe95fd117f00a432936e47a099102893f64643cfe",
                "token": "0x69e0af532e6ac7bcab8cc41e46d9338ad93fde12"
            }
        ],
        "token_infos": [
            {
                "address": "0xc02aaa39b223fe8d0a0e5c4f27ead9083c756cc2",
                "decimals": 18
            },
            {
                "address": "0xeeeeeeeeeeeeeeeeeeeeeeeeeeeeeeeeeeeeeeee",
                "decimals": 18
            }
        ]
    },
    "address_label": {
        "labels": [
            {
                "address": "0xeeeeeeeeeeeeeeeeeeeeeeeeeeeeeeeeeeeeeeee",
                "label": "Ether"
            },
            {
                "address": "0x69e0af532e6ac7bcab8cc41e46d9338ad93fde12",
                "label": "FreeChainWallet"
            },
            {
                "address": "0x0000000000000000000000000000000000000001",
                "label": "Precompiled"
            },
            {
                "address": "0x0000000000000000000000000000000000000002",
                "label": "Precompiled"
            },
            {
                "address": "0x0000000000000000000000000000000000000003",
                "label": "Precompiled"
            },
            {
                "address": "0x0000000000000000000000000000000000000004",
                "label": "Precompiled"
            }
        ]
    },
    "trace": {
        "accountLabels": null,
        "dataMap": {
            "-1": {
                "invocation": {
                    "address": "0x27415e9ca3cf39b729133123c48b49f6417535bd",
                    "callData": "",
                    "decodedMethod": null,
                    "errorInfo": "",
                    "fromAddress": "",
                    "gasUsed": 0,
                    "id": -1,
                    "methodDecoded": false,
                    "operation": "",
                    "output": "",
                    "revert": false,
                    "revertMessage": "",
                    "selector": "",
                    "status": false,
                    "value": ""
                },
                "nodeType": 0
            },
            "0": {
                "invocation": {
                    "address": "0x69e0af532e6ac7bcab8cc41e46d9338ad93fde12",
                    "callData": "0x000000000000000000000000e95fd117f00a432936e47a099102893f64643cfe00000000000000000000000000000000000000000000000013ef79239bd94000",
                    "decodedMethod": {
                        "callParams": [
                            {
                                "name": "_to",
                                "type": "address",
                                "value": "0xe95fd117f00a432936e47a099102893f64643cfe"
                            },
                            {
                                "decimalAvailable": true,
                                "name": "_value",
                                "type": "uint256",
                                "value": "1,436,500,000,000,000,000"
                            }
                        ],
                        "constructorArguments": "",
                        "name": "transfer",
                        "returnParams": [
                            {
                                "name": "",
                                "type": "bool",
                                "value": true
                            }
                        ],
                        "signature": "transfer(address,uint256)"
                    },
                    "errorInfo": "",
                    "fromAddress": "0x27415e9ca3cf39b729133123c48b49f6417535bd",
                    "gasUsed": 51969,
                    "id": 0,
                    "methodDecoded": true,
                    "operation": "CALL",
                    "output": "0x0000000000000000000000000000000000000000000000000000000000000001",
                    "revert": false,
                    "revertMessage": "",
                    "selector": "0xa9059cbb",
                    "status": true,
                    "value": "0"
                },
                "nodeType": 0
            },
            "1": {
                "event": {
                    "contract": "0x69e0af532e6ac7bcab8cc41e46d9338ad93fde12",
                    "decodedLog": {
                        "name": "Transfer",
                        "params": [
                            {
                                "name": "from",
                                "type": "address",
                                "value": "0x27415e9ca3cf39b729133123c48b49f6417535bd"
                            },
                            {
                                "name": "to",
                                "type": "address",
                                "value": "0xe95fd117f00a432936e47a099102893f64643cfe"
                            },
                            {
                                "decimalAvailable": true,
                                "name": "tokens",
                                "type": "uint256",
                                "value": "1,436,500,000,000,000,000"
                            }
                        ],
                        "signature": "Transfer(address,address,uint256)"
                    },
                    "id": 1,
                    "logData": "0x00000000000000000000000000000000000000000000000013ef79239bd94000",
                    "logDecoded": true,
                    "operation": "EVENT",
                    "revert": false,
                    "status": true,
                    "topics": [
                        "0xddf252ad1be2c89b69c2b068fc378daa952ba7f163c4a11628f55a4df523b3ef",
                        "0x00000000000000000000000027415e9ca3cf39b729133123c48b49f6417535bd",
                        "0x000000000000000000000000e95fd117f00a432936e47a099102893f64643cfe"
                    ]
                },
                "nodeType": 1
            }
        },
        "gasFlame": [
            {
                "children": [
                    {
                        "children": [
                            {
                                "children": [],
                                "depth": 0,
                                "name": "Initial Gas",
                                "value": 23256
                            },
                            {
                                "children": [],
                                "depth": 0,
                                "name": "Executed Gas",
                                "value": 28713
                            }
                        ],
                        "depth": -1,
                        "name": "Actual Gas Used",
                        "value": 51969
                    },
                    {
                        "children": [],
                        "depth": -1,
                        "name": "Refunded Gas",
                        "value": 0
                    }
                ],
                "depth": -2,
                "name": "Total Gas",
                "value": 51969
            }
        ],
        "isConfirmed": true,
        "mainTrace": [
            {
                "children": [
                    {
                        "children": [
                            {
                                "children": [],
                                "depth": 1,
                                "id": 1,
                                "order": 1
                            }
                        ],
                        "depth": 0,
                        "id": 0,
                        "order": 0
                    }
                ],
                "depth": -1,
                "id": -1,
                "order": -1
            }
        ],
        "mainTraceNodeCount": 2,
        "parentIdMap": {
            "0": -1,
            "1": 0
        },
        "tidyTrace": [
            {
                "children": [
                    {
                        "children": [
                            {
                                "children": [],
                                "depth": 1,
                                "id": 1,
                                "order": 1
                            }
                        ],
                        "depth": 0,
                        "id": 0,
                        "order": 0
                    }
                ],
                "depth": -1,
                "id": -1,
                "order": -1
            }
        ],
        "tidyTraceNodeCount": 2
    },
    "state_change": {
        "stateChanges": [
            {
                "address": "0x69e0af532e6ac7bcab8cc41e46d9338ad93fde12",
                "erc": "ERC-20",
                "slots": [
                    {
                        "current": "0x00000000000000000000000000000000000000000000008ee213464397424000",
                        "key": "0xed9591db19b126ddada00112db9187ddc7449a7cfd9aad3f9f0537aee5ec15fe",
                        "prev": "0x00000000000000000000000000000000000000000000008ef602bf67331b8000"
                    },
                    {
                        "current": "0x00000000000000000000000000000000000000000000000013ef79239bd94000",
                        "key": "0x21c1d5f5e209093e3318b6bd1ce463f9b6414eb8f4b5828bde0ea26b62bd0de6",
                        "prev": "0x0000000000000000000000000000000000000000000000000000000000000000"
                    }
                ],
                "storageVariables": [
                    {
                        "name": "balances",
                        "type": "mapping(address => uint256)",
                        "value": {
                            "pairs": [
                                {
                                    "key": "0x27415e9ca3cf39b729133123c48b49f6417535bd",
                                    "value": {
                                        "current": "2635728100000000000000",
                                        "prev": "2637164600000000000000",
                                        "typeTag": 1
                                    }
                                },
                                {
                                    "key": "0xe95fd117f00a432936e47a099102893f64643cfe",
                                    "value": {
                                        "current": "1436500000000000000",
                                        "prev": "0",
                                        "typeTag": 1
                                    }
                                }
                            ],
                            "typeTag": 4
                        }
                    }
                ]
            }
        ]
    }
}