{
    "balance_change": {
        "balanceChanges": [
            {
                "account": "0x2a0c0dbecc7e4d658f48e01e3fa353f44050c208",
                "assets": [
                    {
                        "address": "0xc12d099be31567add4e4e4d0d45691c3f58f5663",
                        "amount": "3,800.132571871117860773",
                        "iconUrl": "https://assets.blocksec.com/icon/1e3b9e0c974511f7fdc82c05b0474c4a2cd552d5d3b0061977f525834be14e32.png",
                        "isERC1155": false,
                        "isERC721": false,
                        "sign": false,
                        "value": ""
                    }
                ]
            },
            {
                "account": "0xb543f4458666919812fca7d9cd90ad12e0fc4757",
                "assets": [
                    {
                        "address": "0xc12d099be31567add4e4e4d0d45691c3f58f5663",
                        "amount": "3,800.132571871117860773",
                        "iconUrl": "https://assets.blocksec.com/icon/1e3b9e0c974511f7fdc82c05b0474c4a2cd552d5d3b0061977f525834be14e32.png",
                        "isERC1155": false,
                        "isERC721": false,
                        "sign": true,
                        "value": ""
                    }
                ]
            }
        ]
    },
    "profile": {
        "basic_info": {
            "baseFee": "",
            "blockNumber": 7036425,
            "callData": "0x2295115b000000000000000000000000c12d099be31567add4e4e4d0d45691c3f58f56630000000000000000000000000000000000000000000000ce723d20690ab42280000000000000000000000000b543f4458666919812fca7d9cd90ad12e0fc4757000000000000000000000000000000000000000000000000000001683231bf15000000000000000000000000000000000000000000000000000000000000001b44bba22a23fcea7ea8acb8ae41d056df49bf230a88eabfc72a72ebe8a4af46c46b00eb9da947a1f8a1cd9bd09fa59e3c5c24189e55c21e49f66a218e1466784c0000000000000000000000000000000000000000000000000007954171e590d1",
            "debugEnable": true,
            "errorInfo": "",
            "eventCount": 2,
            "feeRecipient": "0x5a0b54d5dc17e0aadc383d2db43b0a0d3e029c4c",
            "formatValue": "0",
            "gasLimit": 400000,
            "gasPrice": "10",
            "gasUsed": 107864,
            "intTxnCount": 2,
            "internalRevert": false,
            "internalRevertMessage": "",
            "isContractCreation": false,
            "isFlashloan": false,
            "maxFee": "",
            "nonce": 2312961,
            "overwritedBlockNumber": -1,
            "priorityFee": "",
            "receiver": "0x2a0c0dbecc7e4d658f48e01e3fa353f44050c208",
            "revertMessage": "",
            "sender": "0xa7a7899d944fe658c4b0a1803bab2f490bd3849e",
            "simulationEnable": true,
            "sourceTxnHash": "0x4ad943ff10e86559761322f32d1562dee0c59c75fcff3899ebff020f1e9db6ed",
            "status": true,
            "timestamp": "2019-01-09T10:39:12Z",
            "transactionFee": "0.00107864",
            "txnHash": "0x4ad943ff10e86559761322f32d1562dee0c59c75fcff3899ebff020f1e9db6ed",
            "txnIndex": 19,
            "type": 0,
            "value": "0"
        },
        "fund_flow": [
            {
                "amount": "3,800.132571871117860773",
                "from": "0x2a0c0dbecc7e4d658f48e01e3fa353f44050c208",
                "id": 1,
                "isERC1155": false,
                "isERC721": false,
                "isReverted": false,
                "order": 1,
                "to": "0xb543f4458666919812fca7d9cd90ad12e0fc4757",
                "token": "0xc12d099be31567add4e4e4d0d45691c3f58f5663"
            }
        ],
        "token_infos": [
            {
                "address": "0xeeeeeeeeeeeeeeeeeeeeeeeeeeeeeeeeeeeeeeee",
                "decimals": 18
            },
            {
                "address": "0xc02aaa39b223fe8d0a0e5c4f27ead9083c756cc2",
                "decimals": 18
            },
            {
                "address": "0xc12d099be31567add4e4e4d0d45691c3f58f5663",
                "decimals": 18
            }
        ]
    },
    "address_label": {
        "labels": [
            {
                "address": "0x0000000000000000000000000000000000000001",
                "label": "Precompiled"
            },
            {
                "address": "0x0000000000000000000000000000000000000002",
                "label": "Precompiled"
            },
            {
                "address": "0x0000000000000000000000000000000000000003",
                "label": "Precompiled"
            },
            {
                "address": "0x0000000000000000000000000000000000000004",
                "label": "Precompiled"
            },
            {
                "address": "0xeeeeeeeeeeeeeeeeeeeeeeeeeeeeeeeeeeeeeeee",
                "label": "Ether"
            },
            {
                "address": "0xc12d099be31567add4e4e4d0d45691c3f58f5663",
                "label": "Auctus: AUC Token"
            },
            {
                "address": "0xa7a7899d944fe658c4b0a1803bab2f490bd3849e",
                "label": "IDEX 2"
            },
            {
                "address": "0x2a0c0dbecc7e4d658f48e01e3fa353f44050c208",
                "label": "IDEX"
            }
        ]
    },
    "trace": {
        "accountLabels": null,
        "dataMap": {
            "-1": {
                "invocation": {
                    "address": "0xa7a7899d944fe658c4b0a1803bab2f490bd3849e",
                    "callData": "",
                    "decodedMethod": null,
                    "errorInfo": "",
                    "fromAddress": "",
                    "gasUsed": 0,
                    "id": -1,
                    "methodDecoded": false,
                    "operation": "",
                    "output": "",
                    "revert": false,
                    "revertMessage": "",
                    "selector": "",
                    "status": false,
                    "value": ""
                },
                "nodeType": 0
            },
            "0": {
                "invocation": {
                    "address": "0x2a0c0dbecc7e4d658f48e01e3fa353f44050c208",
                    "callData": "0x000000000000000000000000c12d099be31567add4e4e4d0d45691c3f58f56630000000000000000000000000000000000000000000000ce723d20690ab42280000000000000000000000000b543f4458666919812fca7d9cd90ad12e0fc4757000000000000000000000000000000000000000000000000000001683231bf15000000000000000000000000000000000000000000000000000000000000001b44bba22a23fcea7ea8acb8ae41d056df49bf230a88eabfc72a72ebe8a4af46c46b00eb9da947a1f8a1cd9bd09fa59e3c5c24189e55c21e49f66a218e1466784c0000000000000000000000000000000000000000000000000007954171e590d1",
                    "decodedMethod": {
                        "callParams": [
                            {
                                "name": "token",
                                "type": "address",
                                "value": "0xc12d099be31567add4e4e4d0d45691c3f58f5663"
                            },
                            {
                                "name": "amount",
                                "type": "uint256",
                                "value": "3,808,261,050,513,594,000,000"
                            },
                            {
                                "name": "user",
                                "type": "address",
                                "value": "0xb543f4458666919812fca7d9cd90ad12e0fc4757"
                            },
                            {
                                "name": "nonce",
                                "type": "uint256",
                                "value": "1,547,030,347,541"
                            },
                            {
                                "name": "v",
                                "type": "uint8",
                                "value": "27"
                            },
                            {
                                "name": "r",
                                "type": "bytes32",
                                "value": "0x44bba22a23fcea7ea8acb8ae41d056df49bf230a88eabfc72a72ebe8a4af46c4"
                            },
                            {
                                "name": "s",
                                "type": "bytes32",
                                "value": "0x6b00eb9da947a1f8a1cd9bd09fa59e3c5c24189e55c21e49f66a218e1466784c"
                            },
                            {
                                "name": "feeWithdrawal",
                                "type": "uint256",
                                "value": "2,134,433,153,257,681"
                            }
                        ],
                        "constructorArguments": "",
                        "name": "adminWithdraw",
                        "returnParams": [
                            {
                                "name": "success",
                                "type": "bool",
                                "value": false
                            }
                        ],
                        "signature": "adminWithdraw(address,uint256,address,uint256,uint8,bytes32,bytes32,uint256)"
                    },
                    "errorInfo": "",
                    "fromAddress": "0xa7a7899d944fe658c4b0a1803bab2f490bd3849e",
                    "gasUsed": 107864,
                    "id": 0,
                    "methodDecoded": true,
                    "operation": "CALL",
                    "output": "0x0000000000000000000000000000000000000000000000000000000000000000",
                    "revert": false,
                    "revertMessage": "",
                    "selector": "0x2295115b",
                    "status": true,
                    "value": "0"
                },
                "nodeType": 0
            },
            "1": {
                "invocation": {
                    "address": "0x0000000000000000000000000000000000000001",
                    "callData": "0x186783ee4c0edfb288910feca7c620d51cd9a47c5b071354a86363af000000000000000000000000000000000000000000000000000000000000001b44bba22a23fcea7ea8acb8ae41d056df49bf230a88eabfc72a72ebe8a4af46c46b00eb9da947a1f8a1cd9bd09fa59e3c5c24189e55c21e49f66a218e1466784c",
                    "decodedMethod": {
                        "callParams": [
                            {
                                "name": "hash",
                                "type": "bytes32",
                                "value": "0x42bf0080186783ee4c0edfb288910feca7c620d51cd9a47c5b071354a86363af"
                            },
                            {
                                "name": "v",
                                "type": "uint256",
                                "value": "27"
                            },
                            {
                                "name": "r",
                                "type": "bytes32",
                                "value": "0x44bba22a23fcea7ea8acb8ae41d056df49bf230a88eabfc72a72ebe8a4af46c4"
                            },
                            {
                                "name": "s",
                                "type": "bytes32",
                                "value": "0x6b00eb9da947a1f8a1cd9bd09fa59e3c5c24189e55c21e49f66a218e1466784c"
                            }
                        ],
                        "constructorArguments": "",
                        "name": "ecrecover",
                        "returnParams": [
                            {
                                "name": "",
                                "type": "address",
                                "value": "0xb543f4458666919812fca7d9cd90ad12e0fc4757"
                            }
                        ],
                        "signature": "ecrecover(bytes32,uint256,bytes32,bytes32)"
                    },
                    "errorInfo": "",
                    "fromAddress": "0x2a0c0dbecc7e4d658f48e01e3fa353f44050c208",
                    "gasUsed": 3000,
                    "id": 1,
                    "methodDecoded": true,
                    "operation": "CALL",
                    "output": "0x000000000000000000000000b543f4458666919812fca7d9cd90ad12e0fc4757",
                    "revert": false,
                    "revertMessage": "",
                    "selector": "0x42bf0080",
                    "status": true,
                    "value": "0"
                },
                "nodeType": 0
            },
            "2": {
                "invocation": {
                    "address": "0xc12d099be31567add4e4e4d0d45691c3f58f5663",
                    "callData": "0x000000000000000000000000b543f4458666919812fca7d9cd90ad12e0fc47570000000000000000000000000000000000000000000000ce016ef826c9905fa5",
                    "decodedMethod": {
                        "callParams": [
                            {
                                "name": "to",
                                "type": "address",
                                "value": "0xb543f4458666919812fca7d9cd90ad12e0fc4757"
                            },
                            {
                                "decimalAvailable": true,
                                "name": "value",
                                "type": "uint256",
                                "value": "3,800,132,571,871,117,860,773"
                            }
                        ],
                        "constructorArguments": "",
                        "name": "transfer",
                        "returnParams": [
                            {
                                "name": "",
                                "type": "bool",
                                "value": true
                            }
                        ],
                        "signature": "transfer(address,uint256)"
                    },
                    "errorInfo": "",
                    "fromAddress": "0x2a0c0dbecc7e4d658f48e01e3fa353f44050c208",
                    "gasUsed": 29067,
                    "id": 2,
                    "methodDecoded": true,
                    "operation": "CALL",
                    "output": "0x0000000000000000000000000000000000000000000000000000000000000001",
                    "revert": false,
                    "revertMessage": "",
                    "selector": "0xa9059cbb",
                    "status": true,
                    "value": "0"
                },
                "nodeType": 0
            },
            "3": {
                "event": {
                    "contract": "0xc12d099be31567add4e4e4d0d45691c3f58f5663",
                    "decodedLog": {
                        "name": "Transfer",
                        "params": [
                            {
                                "name": "from",
                                "type": "address",
                                "value": "0x2a0c0dbecc7e4d658f48e01e3fa353f44050c208"
                            },
                            {
                                "name": "to",
                                "type": "address",
                                "value": "0xb543f4458666919812fca7d9cd90ad12e0fc4757"
                            },
                            {
                                "decimalAvailable": true,
                                "name": "value",
                                "type": "uint256",
                                "value": "3,800,132,571,871,117,860,773"
                            }
                        ],
                        "signature": "Transfer(address,address,uint256)"
                    },
                    "id": 3,
                    "logData": "0x0000000000000000000000000000000000000000000000ce016ef826c9905fa5",
                    "logDecoded": true,
                    "operation": "EVENT",
                    "revert": false,
                    "status": true,
                    "topics": [
                        "0xddf252ad1be2c89b69c2b068fc378daa952ba7f163c4a11628f55a4df523b3ef",
                        "0x0000000000000000000000002a0c0dbecc7e4d658f48e01e3fa353f44050c208",
                        "0x000000000000000000000000b543f4458666919812fca7d9cd90ad12e0fc4757"
                    ]
                },
                "nodeType": 1
            },
            "4": {
                "event": {
                    "contract": "0x2a0c0dbecc7e4d658f48e01e3fa353f44050c208",
                    "decodedLog": {
                        "name": "Withdraw",
                        "params": [
                            {
                                "name": "token",
                                "type": "address",
                                "value": "0xc12d099be31567add4e4e4d0d45691c3f58f5663"
                            },
                            {
                                "name": "user",
                                "type": "address",
                                "value": "0xb543f4458666919812fca7d9cd90ad12e0fc4757"
                            },
                            {
                                "name": "amount",
                                "type": "uint256",
                                "value": "3,800,132,571,871,117,860,773"
                            },
                            {
                                "name": "balance",
                                "type": "uint256",
                                "value": "99,999,765,323"
                            }
                        ],
                        "signature": "Withdraw(address,address,uint256,uint256)"
                    },
                    "id": 4,
                    "logData": "0x000000000000000000000000c12d099be31567add4e4e4d0d45691c3f58f5663000000000000000000000000b543f4458666919812fca7d9cd90ad12e0fc47570000000000000000000000000000000000000000000000ce016ef826c9905fa5000000000000000000000000000000000000000000000000000000174873534b",
                    "logDecoded": true,
                    "operation": "EVENT",
                    "revert": false,
                    "status": true,
                    "topics": [
                        "0xf341246adaac6f497bc2a656f546ab9e182111d630394f0c57c710a59a2cb567"
                    ]
                },
                "nodeType": 1
            }
        },
        "gasFlame": [
            {
                "children": [
                    {
                        "children": [
                            {
                                "children": [],
                                "depth": 0,
                                "name": "Initial Gas",
                                "value": 30360
                            },
                            {
                                "children": [
                                    {
                                        "children": [],
                                        "depth": 1,
                                        "name": "ecrecover",
                                        "value": 3000
                                    },
                                    {
                                        "children": [],
                                        "depth": 1,
                                        "name": "transfer",
                                        "value": 29067
                                    }
                                ],
                                "depth": 0,
                                "name": "Executed Gas",
                                "value": 77504
                            }
                        ],
                        "depth": -1,
                        "name": "Actual Gas Used",
                        "value": 107864
                    },
                    {
                        "children": [],
                        "depth": -1,
                        "name": "Refunded Gas",
                        "value": 0
                    }
                ],
                "depth": -2,
                "name": "Total Gas",
                "value": 107864
            }
        ],
        "isConfirmed": true,
        "mainTrace": [
            {
                "children": [
                    {
                        "children": [
                            {
                                "children": [],
                                "depth": 1,
                                "id": 1,
                                "order": 1
                            },
                            {
                                "children": [
                                    {
                                        "children": [],
                                        "depth": 2,
                                        "id": 3,
                                        "order": 3
                                    }
                                ],
                                "depth": 1,
                                "id": 2,
                                "order": 2
                            },
                            {
                                "children": [],
                                "depth": 1,
                                "id": 4,
                                "order": 4
                            }
                        ],
                        "depth": 0,
                        "id": 0,
                        "order": 0
                    }
                ],
                "depth": -1,
                "id": -1,
                "order": -1
            }
        ],
        "mainTraceNodeCount": 5,
        "parentIdMap": {
            "0": -1,
            "1": 0,
            "2": 0,
            "3": 2,
            "4": 0
        },
        "tidyTrace": [
            {
                "children": [
                    {
                        "children": [
                            {
                                "children": [],
                                "depth": 1,
                                "id": 1,
                                "order": 1
                            },
                            {
                                "children": [
                                    {
                                        "children": [],
                                        "depth": 2,
                                        "id": 3,
                                        "order": 3
                                    }
                                ],
                                "depth": 1,
                                "id": 2,
                                "order": 2
                            },
                            {
                                "children": [],
                                "depth": 1,
                                "id": 4,
                                "order": 4
                            }
                        ],
                        "depth": 0,
                        "id": 0,
                        "order": 0
                    }
                ],
                "depth": -1,
                "id": -1,
                "order": -1
            }
        ],
        "tidyTraceNodeCount": 5
    },
    "state_change": {
        "stateChanges": [
            {
                "address": "0x2a0c0dbecc7e4d658f48e01e3fa353f44050c208",
                "erc": "",
                "slots": [
                    {
                        "current": "0x0000000000000000000000000000000000000000000000000000000000000001",
                        "key": "0x9d93409fe8eb75972636bda5dddd08f96b8a31a6b480ba4013678cffab72376e",
                        "prev": "0x0000000000000000000000000000000000000000000000000000000000000000"
                    },
                    {
                        "current": "0x000000000000000000000000000000000000000000000000000000174873534b",
                        "key": "0x8042fe28411f96e1d527eb6ac94efadb35bb9c6ba5b75f0f7fb10a9a137ad0ed",
                        "prev": "0x0000000000000000000000000000000000000000000000ce723d2080532775cb"
                    },
                    {
                        "current": "0x000000000000000000000000000000000000000000000039c75e6ba5cda74f8f",
                        "key": "0x44071efa3bfe3c1825f7df3cbdeb8766ac5ab638d08e90e7b1621284b133381e",
                        "prev": "0x000000000000000000000000000000000000000000000039569043638c838cb5"
                    },
                    {
                        "current": "0x00000000000000000000000000000000000000000000000000000000006b5e09",
                        "key": "0x624ca104a0d1021ed233764a805490a3ff333cd759b885a03d75ad7d106161bf",
                        "prev": "0x00000000000000000000000000000000000000000000000000000000006b5e04"
                    }
                ],
                "storageVariables": [
                    {
                        "name": "withdrawn",
                        "type": "mapping(bytes32 => bool)",
                        "value": {
                            "pairs": [
                                {
                                    "key": "0x514d8b1dfb653728a1c3b3b91533d9d16db3e7dc4d719f587fb7c449b49d4d01",
                                    "value": {
                                        "current": "true",
                                        "prev": "false",
                                        "typeTag": 1
                                    }
                                }
                            ],
                            "typeTag": 4
                        }
                    },
                    {
                        "name": "tokens",
                        "type": "mapping(address => mapping(address => uint256))",
                        "value": {
                            "pairs": [
                                {
                                    "key": "0xc12d099be31567add4e4e4d0d45691c3f58f5663",
                                    "value": {
                                        "pairs": [
                                            {
                                                "key": "0x034767f3c519f361c5ecf46ebfc08981c629d381",
                                                "value": {
                                                    "current": "1065830450422666973071",
                                                    "prev": "1057701971780190833845",
                                                    "typeTag": 1
                                                }
                                            },
                                            {
                                                "key": "0xb543f4458666919812fca7d9cd90ad12e0fc4757",
                                                "value": {
                                                    "current": "99999765323",
                                                    "prev": "3808261050613593765323",
                                                    "typeTag": 1
                                                }
                                            }
                                        ],
                                        "typeTag": 4
                                    }
                                }
                            ],
                            "typeTag": 4
                        }
                    },
                    {
                        "name": "lastActiveTransaction",
                        "type": "mapping(address => uint256)",
                        "value": {
                            "pairs": [
                                {
                                    "key": "0xb543f4458666919812fca7d9cd90ad12e0fc4757",
                                    "value": {
                                        "current": "7036425",
                                        "prev": "7036420",
                                        "typeTag": 1
                                    }
                                }
                            ],
                            "typeTag": 4
                        }
                    }
                ]
            },
            {
                "address": "0xc12d099be31567add4e4e4d0d45691c3f58f5663",
                "erc": "ERC-20",
                "slots": [
                    {
                        "current": "0x0000000000000000000000000000000000000000000000ce016ef826c9905fa5",
                        "key": "0xb8ebcc0c0349537266ca2458a38969d7f911ceaf71af6b0875736a2377d95219",
                        "prev": "0x0000000000000000000000000000000000000000000000000000000000000000"
                    },
                    {
                        "current": "0x000000000000000000000000000000000000000000031978c2b39050f7abac88",
                        "key": "0xa6ffd819df9a73bfce2f7812327a640b6389e32615593969214d5b046a2a030e",
                        "prev": "0x000000000000000000000000000000000000000000031a46c4228877c13c0c2d"
                    }
                ],
                "storageVariables": [
                    {
                        "name": "balances",
                        "type": "mapping(address => uint256)",
                        "value": {
                            "pairs": [
                                {
                                    "key": "0x2a0c0dbecc7e4d658f48e01e3fa353f44050c208",
                                    "value": {
                                        "current": "3747064259920415416888456",
                                        "prev": "3750864392492286534749229",
                                        "typeTag": 1
                                    }
                                },
                                {
                                    "key": "0xb543f4458666919812fca7d9cd90ad12e0fc4757",
                                    "value": {
                                        "current": "3800132571871117860773",
                                        "prev": "0",
                                        "typeTag": 1
                                    }
                                }
                            ],
                            "typeTag": 4
                        }
                    }
                ]
            }
        ]
    }
}