{
    "balance_change": {
        "balanceChanges": [
            {
                "account": "0xe06dc73d11352f4a7f12d18ca6f88b65dc3e3a56",
                "assets": [
                    {
                        "address": "0xeeeeeeeeeeeeeeeeeeeeeeeeeeeeeeeeeeeeeeee",
                        "amount": "0.2",
                        "iconUrl": "https://assets.blocksec.com/image/1663669189317-3.png",
                        "isERC1155": false,
                        "isERC721": false,
                        "sign": false,
                        "value": "372.44600000000000364"
                    },
                    {
                        "address": "0xa735a3af76cc30791c61c10d585833829d36cbe0",
                        "amount": "22,385.167284854",
                        "iconUrl": "",
                        "isERC1155": false,
                        "isERC721": false,
                        "sign": true,
                        "value": "367.11674339200003095"
                    }
                ]
            },
            {
                "account": "0xa735a3af76cc30791c61c10d585833829d36cbe0",
                "assets": [
                    {
                        "address": "0xa735a3af76cc30791c61c10d585833829d36cbe0",
                        "amount": "692.324761386",
                        "iconUrl": "",
                        "isERC1155": false,
                        "isERC721": false,
                        "sign": true,
                        "value": "11.354126086960000957"
                    }
                ]
            },
            {
                "account": "0xc02aaa39b223fe8d0a0e5c4f27ead9083c756cc2",
                "assets": [
                    {
                        "address": "0xeeeeeeeeeeeeeeeeeeeeeeeeeeeeeeeeeeeeeeee",
                        "amount": "0.2",
                        "iconUrl": "https://assets.blocksec.com/image/1663669189317-3.png",
                        "isERC1155": false,
                        "isERC721": false,
                        "sign": true,
                        "value": "372.44600000000000364"
                    },
                    {
                        "address": "0xc02aaa39b223fe8d0a0e5c4f27ead9083c756cc2",
                        "amount": "0.2",
                        "iconUrl": "https://assets.blocksec.com/icon/f1cb2d02c471d545bbc7722daf3277fd852d98e63d118771af7047bd8256c516.png",
                        "isERC1155": false,
                        "isERC721": false,
                        "sign": false,
                        "value": "372.44600000000000364"
                    }
                ]
            },
            {
                "account": "0xe471f93c2be15b64e9ec63bbf485446cb934e8c4",
                "assets": [
                    {
                        "address": "0xc02aaa39b223fe8d0a0e5c4f27ead9083c756cc2",
                        "amount": "0.2",
                        "iconUrl": "https://assets.blocksec.com/icon/f1cb2d02c471d545bbc7722daf3277fd852d98e63d118771af7047bd8256c516.png",
                        "isERC1155": false,
                        "isERC721": false,
                        "sign": true,
                        "value": "372.44600000000000364"
                    },
                    {
                        "address": "0xa735a3af76cc30791c61c10d585833829d36cbe0",
                        "amount": "23,077.49204624",
                        "iconUrl": "",
                        "isERC1155": false,
                        "isERC721": false,
                        "sign": false,
                        "value": "378.4708696200000319"
                    }
                ]
            }
        ]
    },
    "profile": {
        "basic_info": {
            "baseFee": "32.730869034",
            "blockNumber": 17872160,
            "callData": "0x3593564c000000000000000000000000000000000000000000000000000000000000006000000000000000000000000000000000000000000000000000000000000000a00000000000000000000000000000000000000000000000000000000064d2985300000000000000000000000000000000000000000000000000000000000000020b080000000000000000000000000000000000000000000000000000000000000000000000000000000000000000000000000000000000000000000000000002000000000000000000000000000000000000000000000000000000000000004000000000000000000000000000000000000000000000000000000000000000a00000000000000000000000000000000000000000000000000000000000000040000000000000000000000000000000000000000000000000000000000000000200000000000000000000000000000000000000000000000002c68af0bb1400000000000000000000000000000000000000000000000000000000000000000100000000000000000000000000000000000000000000000000000000000000000100000000000000000000000000000000000000000000000002c68af0bb140000000000000000000000000000000000000000000000000000000013fd487dbcf900000000000000000000000000000000000000000000000000000000000000a000000000000000000000000000000000000000000000000000000000000000000000000000000000000000000000000000000000000000000000000000000002000000000000000000000000c02aaa39b223fe8d0a0e5c4f27ead9083c756cc2000000000000000000000000a735a3af76cc30791c61c10d585833829d36cbe0",
            "debugEnable": true,
            "errorInfo": "",
            "eventCount": 6,
            "feeRecipient": "0x690b9a9e9aa1c9db991c7721a92d351db4fac990",
            "formatValue": "0.2",
            "gasLimit": 222606,
            "gasPrice": "32.780869034",
            "gasUsed": 157807,
            "intTxnCount": 10,
            "internalRevert": false,
            "internalRevertMessage": "",
            "isContractCreation": false,
            "isFlashloan": false,
            "maxFee": "33",
            "nonce": 47,
            "overwritedBlockNumber": -1,
            "priorityFee": "0.05",
            "receiver": "0x3fc91a3afd70395cd496c647d5a6cc9d4b2b7fad",
            "revertMessage": "",
            "sender": "0xe06dc73d11352f4a7f12d18ca6f88b65dc3e3a56",
            "simulationEnable": true,
            "sourceTxnHash": "0x4af97802f5d1553f989ee9c14985711135c2477738719653e998e54e28cdf1b2",
            "status": true,
            "timestamp": "2023-08-08T19:03:23Z",
            "transactionFee": "0.005173050599648438",
            "txnHash": "0x4af97802f5d1553f989ee9c14985711135c2477738719653e998e54e28cdf1b2",
            "txnIndex": 108,
            "type": 2,
            "value": "200000000000000000"
        },
        "fund_flow": [
            {
                "amount": "0.2",
                "from": "0xe06dc73d11352f4a7f12d18ca6f88b65dc3e3a56",
                "id": 1,
                "isERC1155": false,
                "isERC721": false,
                "isReverted": false,
                "order": 1,
                "to": "0x3fc91a3afd70395cd496c647d5a6cc9d4b2b7fad",
                "token": "0xeeeeeeeeeeeeeeeeeeeeeeeeeeeeeeeeeeeeeeee"
            },
            {
                "amount": "0.2",
                "from": "0x3fc91a3afd70395cd496c647d5a6cc9d4b2b7fad",
                "id": 2,
                "isERC1155": false,
                "isERC721": false,
                "isReverted": false,
                "order": 2,
                "to": "0xc02aaa39b223fe8d0a0e5c4f27ead9083c756cc2",
                "token": "0xeeeeeeeeeeeeeeeeeeeeeeeeeeeeeeeeeeeeeeee"
            },
            {
                "amount": "0.2",
                "from": "0xc02aaa39b223fe8d0a0e5c4f27ead9083c756cc2",
                "id": 3,
                "isERC1155": false,
                "isERC721": false,
                "isReverted": false,
                "order": 3,
                "to": "0x3fc91a3afd70395cd496c647d5a6cc9d4b2b7fad",
                "token": "0xc02aaa39b223fe8d0a0e5c4f27ead9083c756cc2"
            },
            {
                "amount": "0.2",
                "from": "0x3fc91a3afd70395cd496c647d5a6cc9d4b2b7fad",
                "id": 4,
                "isERC1155": false,
                "isERC721": false,
                "isReverted": false,
                "order": 4,
                "to": "0xe471f93c2be15b64e9ec63bbf485446cb934e8c4",
                "token": "0xc02aaa39b223fe8d0a0e5c4f27ead9083c756cc2"
            },
            {
                "amount": "692.324761386",
                "from": "0xe471f93c2be15b64e9ec63bbf485446cb934e8c4",
                "id": 5,
                "isERC1155": false,
                "isERC721": false,
                "isReverted": false,
                "order": 5,
                "to": "0xa735a3af76cc30791c61c10d585833829d36cbe0",
                "token": "0xa735a3af76cc30791c61c10d585833829d36cbe0"
            },
            {
                "amount": "22,385.167284854",
                "from": "0xe471f93c2be15b64e9ec63bbf485446cb934e8c4",
                "id": 6,
                "isERC1155": false,
                "isERC721": false,
                "isReverted": false,
                "order": 6,
                "to": "0xe06dc73d11352f4a7f12d18ca6f88b65dc3e3a56",
                "token": "0xa735a3af76cc30791c61c10d585833829d36cbe0"
            }
        ],
        "token_infos": [
            {
                "address": "0xa735a3af76cc30791c61c10d585833829d36cbe0",
                "decimals": 9
            },
            {
                "address": "0xc02aaa39b223fe8d0a0e5c4f27ead9083c756cc2",
                "decimals": 18
            },
            {
                "address": "0xeeeeeeeeeeeeeeeeeeeeeeeeeeeeeeeeeeeeeeee",
                "decimals": 18
            }
        ]
    },
    "address_label": {
        "labels": [
            {
                "address": "0x0000000000000000000000000000000000000003",
                "label": "Precompiled"
            },
            {
                "address": "0x0000000000000000000000000000000000000004",
                "label": "Precompiled"
            },
            {
                "address": "0xeeeeeeeeeeeeeeeeeeeeeeeeeeeeeeeeeeeeeeee",
                "label": "Ether"
            },
            {
                "address": "0x3fc91a3afd70395cd496c647d5a6cc9d4b2b7fad",
                "label": "Uniswap: Universal Router"
            },
            {
                "address": "0xc02aaa39b223fe8d0a0e5c4f27ead9083c756cc2",
                "label": "Wrapped Ether (WETH)"
            },
            {
                "address": "0xe471f93c2be15b64e9ec63bbf485446cb934e8c4",
                "label": "Uniswap V2: imgnAI 2"
            },
            {
                "address": "0x0000000000000000000000000000000000000001",
                "label": "Precompiled"
            },
            {
                "address": "0x0000000000000000000000000000000000000002",
                "label": "Precompiled"
            },
            {
                "address": "0xa735a3af76cc30791c61c10d585833829d36cbe0",
                "label": "ImgnAI: imgnAI Token"
            }
        ]
    },
    "trace": {
        "accountLabels": null,
        "dataMap": {
            "-1": {
                "invocation": {
                    "address": "0xe06dc73d11352f4a7f12d18ca6f88b65dc3e3a56",
                    "callData": "",
                    "decodedMethod": null,
                    "errorInfo": "",
                    "fromAddress": "",
                    "gasUsed": 0,
                    "id": -1,
                    "methodDecoded": false,
                    "operation": "",
                    "output": "",
                    "revert": false,
                    "revertMessage": "",
                    "selector": "",
                    "status": false,
                    "value": ""
                },
                "nodeType": 0
            },
            "0": {
                "invocation": {
                    "address": "0x3fc91a3afd70395cd496c647d5a6cc9d4b2b7fad",
                    "callData": "0x000000000000000000000000000000000000000000000000000000000000006000000000000000000000000000000000000000000000000000000000000000a00000000000000000000000000000000000000000000000000000000064d2985300000000000000000000000000000000000000000000000000000000000000020b080000000000000000000000000000000000000000000000000000000000000000000000000000000000000000000000000000000000000000000000000002000000000000000000000000000000000000000000000000000000000000004000000000000000000000000000000000000000000000000000000000000000a00000000000000000000000000000000000000000000000000000000000000040000000000000000000000000000000000000000000000000000000000000000200000000000000000000000000000000000000000000000002c68af0bb1400000000000000000000000000000000000000000000000000000000000000000100000000000000000000000000000000000000000000000000000000000000000100000000000000000000000000000000000000000000000002c68af0bb140000000000000000000000000000000000000000000000000000000013fd487dbcf900000000000000000000000000000000000000000000000000000000000000a000000000000000000000000000000000000000000000000000000000000000000000000000000000000000000000000000000000000000000000000000000002000000000000000000000000c02aaa39b223fe8d0a0e5c4f27ead9083c756cc2000000000000000000000000a735a3af76cc30791c61c10d585833829d36cbe0",
                    "decodedMethod": {
                        "callParams": [
                            {
                                "name": "commands",
                                "type": "bytes",
                                "value": "0x0b08"
                            },
                            {
                                "name": "inputs",
                                "type": "bytes[]",
                                "value": [
                                    "0x000000000000000000000000000000000000000000000000000000000000000200000000000000000000000000000000000000000000000002c68af0bb140000",
                                    "0x000000000000000000000000000000000000000000000000000000000000000100000000000000000000000000000000000000000000000002c68af0bb140000000000000000000000000000000000000000000000000000000013fd487dbcf900000000000000000000000000000000000000000000000000000000000000a000000000000000000000000000000000000000000000000000000000000000000000000000000000000000000000000000000000000000000000000000000002000000000000000000000000c02aaa39b223fe8d0a0e5c4f27ead9083c756cc2000000000000000000000000a735a3af76cc30791c61c10d585833829d36cbe0"
                                ]
                            },
                            {
                                "name": "deadline",
                                "type": "uint256",
                                "value": "1,691,523,155"
                            }
                        ],
                        "constructorArguments": "",
                        "name": "execute",
                        "returnParams": [],
                        "signature": "execute(bytes,bytes[],uint256)"
                    },
                    "errorInfo": "",
                    "fromAddress": "0xe06dc73d11352f4a7f12d18ca6f88b65dc3e3a56",
                    "gasUsed": 157807,
                    "id": 0,
                    "methodDecoded": true,
                    "operation": "CALL",
                    "output": "",
                    "revert": false,
                    "revertMessage": "",
                    "selector": "0x3593564c",
                    "status": true,
                    "value": "0.2"
                },
                "nodeType": 0
            },
            "1": {
                "invocation": {
                    "address": "0xc02aaa39b223fe8d0a0e5c4f27ead9083c756cc2",
                    "callData": "0x",
                    "decodedMethod": {
                        "callParams": [],
                        "constructorArguments": "",
                        "name": "deposit",
                        "returnParams": [],
                        "signature": "deposit()"
                    },
                    "errorInfo": "",
                    "fromAddress": "0x3fc91a3afd70395cd496c647d5a6cc9d4b2b7fad",
                    "gasUsed": 23974,
                    "id": 1,
                    "methodDecoded": true,
                    "operation": "CALL",
                    "output": "",
                    "revert": false,
                    "revertMessage": "",
                    "selector": "0xd0e30db0",
                    "status": true,
                    "value": "0.2"
                },
                "nodeType": 0
            },
            "10": {
                "event": {
                    "contract": "0xa735a3af76cc30791c61c10d585833829d36cbe0",
                    "decodedLog": {
                        "name": "Transfer",
                        "params": [
                            {
                                "name": "from",
                                "type": "address",
                                "value": "0xe471f93c2be15b64e9ec63bbf485446cb934e8c4"
                            },
                            {
                                "name": "to",
                                "type": "address",
                                "value": "0xa735a3af76cc30791c61c10d585833829d36cbe0"
                            },
                            {
                                "decimalAvailable": true,
                                "name": "value",
                                "type": "uint256",
                                "value": "692,324,761,386"
                            }
                        ],
                        "signature": "Transfer(address,address,uint256)"
                    },
                    "id": 10,
                    "logData": "0x000000000000000000000000000000000000000000000000000000a131c57f2a",
                    "logDecoded": true,
                    "operation": "EVENT",
                    "revert": false,
                    "status": true,
                    "topics": [
                        "0xddf252ad1be2c89b69c2b068fc378daa952ba7f163c4a11628f55a4df523b3ef",
                        "0x000000000000000000000000e471f93c2be15b64e9ec63bbf485446cb934e8c4",
                        "0x000000000000000000000000a735a3af76cc30791c61c10d585833829d36cbe0"
                    ]
                },
                "nodeType": 1
            },
            "11": {
                "event": {
                    "contract": "0xa735a3af76cc30791c61c10d585833829d36cbe0",
                    "decodedLog": {
                        "name": "Transfer",
                        "params": [
                            {
                                "name": "from",
                                "type": "address",
                                "value": "0xe471f93c2be15b64e9ec63bbf485446cb934e8c4"
                            },
                            {
                                "name": "to",
                                "type": "address",
                                "value": "0xe06dc73d11352f4a7f12d18ca6f88b65dc3e3a56"
                            },
                            {
                                "decimalAvailable": true,
                                "name": "value",
                                "type": "uint256",
                                "value": "22,385,167,284,854"
                            }
                        ],
                        "signature": "Transfer(address,address,uint256)"
                    },
                    "id": 11,
                    "logData": "0x0000000000000000000000000000000000000000000000000000145bf3f1ba76",
                    "logDecoded": true,
                    "operation": "EVENT",
                    "revert": false,
                    "status": true,
                    "topics": [
                        "0xddf252ad1be2c89b69c2b068fc378daa952ba7f163c4a11628f55a4df523b3ef",
                        "0x000000000000000000000000e471f93c2be15b64e9ec63bbf485446cb934e8c4",
                        "0x000000000000000000000000e06dc73d11352f4a7f12d18ca6f88b65dc3e3a56"
                    ]
                },
                "nodeType": 1
            },
            "12": {
                "invocation": {
                    "address": "0xa735a3af76cc30791c61c10d585833829d36cbe0",
                    "callData": "0x000000000000000000000000e471f93c2be15b64e9ec63bbf485446cb934e8c4",
                    "decodedMethod": {
                        "callParams": [
                            {
                                "name": "account",
                                "type": "address",
                                "value": "0xe471f93c2be15b64e9ec63bbf485446cb934e8c4"
                            }
                        ],
                        "constructorArguments": "",
                        "name": "balanceOf",
                        "returnParams": [
                            {
                                "decimalAvailable": true,
                                "name": "",
                                "type": "uint256",
                                "value": "58,685,247,130,592,815"
                            }
                        ],
                        "signature": "balanceOf(address)"
                    },
                    "errorInfo": "",
                    "fromAddress": "0xe471f93c2be15b64e9ec63bbf485446cb934e8c4",
                    "gasUsed": 930,
                    "id": 12,
                    "methodDecoded": true,
                    "operation": "STATICCALL",
                    "output": "0x00000000000000000000000000000000000000000000000000d07debdcc6662f",
                    "revert": false,
                    "revertMessage": "",
                    "selector": "0x70a08231",
                    "status": true,
                    "value": "0"
                },
                "nodeType": 0
            },
            "13": {
                "invocation": {
                    "address": "0xc02aaa39b223fe8d0a0e5c4f27ead9083c756cc2",
                    "callData": "0x000000000000000000000000e471f93c2be15b64e9ec63bbf485446cb934e8c4",
                    "decodedMethod": {
                        "callParams": [
                            {
                                "name": "",
                                "type": "address",
                                "value": "0xe471f93c2be15b64e9ec63bbf485446cb934e8c4"
                            }
                        ],
                        "constructorArguments": "",
                        "name": "balanceOf",
                        "returnParams": [
                            {
                                "decimalAvailable": true,
                                "name": "",
                                "type": "uint256",
                                "value": "507,267,156,794,742,750,620"
                            }
                        ],
                        "signature": "balanceOf(address)"
                    },
                    "errorInfo": "",
                    "fromAddress": "0xe471f93c2be15b64e9ec63bbf485446cb934e8c4",
                    "gasUsed": 534,
                    "id": 13,
                    "methodDecoded": true,
                    "operation": "STATICCALL",
                    "output": "0x00000000000000000000000000000000000000000000001b7fbef77cfd053d9c",
                    "revert": false,
                    "revertMessage": "",
                    "selector": "0x70a08231",
                    "status": true,
                    "value": "0"
                },
                "nodeType": 0
            },
            "14": {
                "event": {
                    "contract": "0xe471f93c2be15b64e9ec63bbf485446cb934e8c4",
                    "decodedLog": {
                        "name": "Sync",
                        "params": [
                            {
                                "name": "reserve0",
                                "type": "uint112",
                                "value": "58,685,247,130,592,815"
                            },
                            {
                                "name": "reserve1",
                                "type": "uint112",
                                "value": "507,267,156,794,742,750,620"
                            }
                        ],
                        "signature": "Sync(uint112,uint112)"
                    },
                    "id": 14,
                    "logData": "0x00000000000000000000000000000000000000000000000000d07debdcc6662f00000000000000000000000000000000000000000000001b7fbef77cfd053d9c",
                    "logDecoded": true,
                    "operation": "EVENT",
                    "revert": false,
                    "status": true,
                    "topics": [
                        "0x1c411e9a96e071241c2f21f7726b17ae89e3cab4c78be50e062b03a9fffbbad1"
                    ]
                },
                "nodeType": 1
            },
            "15": {
                "event": {
                    "contract": "0xe471f93c2be15b64e9ec63bbf485446cb934e8c4",
                    "decodedLog": {
                        "name": "Swap",
                        "params": [
                            {
                                "name": "sender",
                                "type": "address",
                                "value": "0x3fc91a3afd70395cd496c647d5a6cc9d4b2b7fad"
                            },
                            {
                                "name": "to",
                                "type": "address",
                                "value": "0xe06dc73d11352f4a7f12d18ca6f88b65dc3e3a56"
                            },
                            {
                                "name": "amount0In",
                                "type": "uint256",
                                "value": "0"
                            },
                            {
                                "name": "amount1In",
                                "type": "uint256",
                                "value": "200,000,000,000,000,000"
                            },
                            {
                                "name": "amount0Out",
                                "type": "uint256",
                                "value": "23,077,492,046,240"
                            },
                            {
                                "name": "amount1Out",
                                "type": "uint256",
                                "value": "0"
                            }
                        ],
                        "signature": "Swap(address,uint256,uint256,uint256,uint256,address)"
                    },
                    "id": 15,
                    "logData": "0x000000000000000000000000000000000000000000000000000000000000000000000000000000000000000000000000000000000000000002c68af0bb140000000000000000000000000000000000000000000000000000000014fd25b739a00000000000000000000000000000000000000000000000000000000000000000",
                    "logDecoded": true,
                    "operation": "EVENT",
                    "revert": false,
                    "status": true,
                    "topics": [
                        "0xd78ad95fa46c994b6551d0da85fc275fe613ce37657fb8d5e3d130840159d822",
                        "0x0000000000000000000000003fc91a3afd70395cd496c647d5a6cc9d4b2b7fad",
                        "0x000000000000000000000000e06dc73d11352f4a7f12d18ca6f88b65dc3e3a56"
                    ]
                },
                "nodeType": 1
            },
            "16": {
                "invocation": {
                    "address": "0xa735a3af76cc30791c61c10d585833829d36cbe0",
                    "callData": "0x000000000000000000000000e06dc73d11352f4a7f12d18ca6f88b65dc3e3a56",
                    "decodedMethod": {
                        "callParams": [
                            {
                                "name": "account",
                                "type": "address",
                                "value": "0xe06dc73d11352f4a7f12d18ca6f88b65dc3e3a56"
                            }
                        ],
                        "constructorArguments": "",
                        "name": "balanceOf",
                        "returnParams": [
                            {
                                "decimalAvailable": true,
                                "name": "",
                                "type": "uint256",
                                "value": "22,385,167,284,854"
                            }
                        ],
                        "signature": "balanceOf(address)"
                    },
                    "errorInfo": "",
                    "fromAddress": "0x3fc91a3afd70395cd496c647d5a6cc9d4b2b7fad",
                    "gasUsed": 930,
                    "id": 16,
                    "methodDecoded": true,
                    "operation": "STATICCALL",
                    "output": "0x0000000000000000000000000000000000000000000000000000145bf3f1ba76",
                    "revert": false,
                    "revertMessage": "",
                    "selector": "0x70a08231",
                    "status": true,
                    "value": "0"
                },
                "nodeType": 0
            },
            "2": {
                "event": {
                    "contract": "0xc02aaa39b223fe8d0a0e5c4f27ead9083c756cc2",
                    "decodedLog": {
                        "name": "Deposit",
                        "params": [
                            {
                                "name": "dst",
                                "type": "address",
                                "value": "0x3fc91a3afd70395cd496c647d5a6cc9d4b2b7fad"
                            },
                            {
                                "name": "wad",
                                "type": "uint256",
                                "value": "200,000,000,000,000,000"
                            }
                        ],
                        "signature": "Deposit(address,uint256)"
                    },
                    "id": 2,
                    "logData": "0x00000000000000000000000000000000000000000000000002c68af0bb140000",
                    "logDecoded": true,
                    "operation": "EVENT",
                    "revert": false,
                    "status": true,
                    "topics": [
                        "0xe1fffcc4923d04b559f4d29a8bfc6cda04eb5b0d3c460751c2402c5c5cc9109c",
                        "0x0000000000000000000000003fc91a3afd70395cd496c647d5a6cc9d4b2b7fad"
                    ]
                },
                "nodeType": 1
            },
            "3": {
                "invocation": {
                    "address": "0xc02aaa39b223fe8d0a0e5c4f27ead9083c756cc2",
                    "callData": "0x000000000000000000000000e471f93c2be15b64e9ec63bbf485446cb934e8c400000000000000000000000000000000000000000000000002c68af0bb140000",
                    "decodedMethod": {
                        "callParams": [
                            {
                                "name": "dst",
                                "type": "address",
                                "value": "0xe471f93c2be15b64e9ec63bbf485446cb934e8c4"
                            },
                            {
                                "decimalAvailable": true,
                                "name": "wad",
                                "type": "uint256",
                                "value": "200,000,000,000,000,000"
                            }
                        ],
                        "constructorArguments": "",
                        "name": "transfer",
                        "returnParams": [
                            {
                                "name": "",
                                "type": "bool",
                                "value": true
                            }
                        ],
                        "signature": "transfer(address,uint256)"
                    },
                    "errorInfo": "",
                    "fromAddress": "0x3fc91a3afd70395cd496c647d5a6cc9d4b2b7fad",
                    "gasUsed": 8062,
                    "id": 3,
                    "methodDecoded": true,
                    "operation": "CALL",
                    "output": "0x0000000000000000000000000000000000000000000000000000000000000001",
                    "revert": false,
                    "revertMessage": "",
                    "selector": "0xa9059cbb",
                    "status": true,
                    "value": "0"
                },
                "nodeType": 0
            },
            "4": {
                "event": {
                    "contract": "0xc02aaa39b223fe8d0a0e5c4f27ead9083c756cc2",
                    "decodedLog": {
                        "name": "Transfer",
                        "params": [
                            {
                                "name": "src",
                                "type": "address",
                                "value": "0x3fc91a3afd70395cd496c647d5a6cc9d4b2b7fad"
                            },
                            {
                                "name": "dst",
                                "type": "address",
                                "value": "0xe471f93c2be15b64e9ec63bbf485446cb934e8c4"
                            },
                            {
                                "decimalAvailable": true,
                                "name": "wad",
                                "type": "uint256",
                                "value": "200,000,000,000,000,000"
                            }
                        ],
                        "signature": "Transfer(address,address,uint256)"
                    },
                    "id": 4,
                    "logData": "0x00000000000000000000000000000000000000000000000002c68af0bb140000",
                    "logDecoded": true,
                    "operation": "EVENT",
                    "revert": false,
                    "status": true,
                    "topics": [
                        "0xddf252ad1be2c89b69c2b068fc378daa952ba7f163c4a11628f55a4df523b3ef",
                        "0x0000000000000000000000003fc91a3afd70395cd496c647d5a6cc9d4b2b7fad",
                        "0x000000000000000000000000e471f93c2be15b64e9ec63bbf485446cb934e8c4"
                    ]
                },
                "nodeType": 1
            },
            "5": {
                "invocation": {
                    "address": "0xa735a3af76cc30791c61c10d585833829d36cbe0",
                    "callData": "0x000000000000000000000000e06dc73d11352f4a7f12d18ca6f88b65dc3e3a56",
                    "decodedMethod": {
                        "callParams": [
                            {
                                "name": "account",
                                "type": "address",
                                "value": "0xe06dc73d11352f4a7f12d18ca6f88b65dc3e3a56"
                            }
                        ],
                        "constructorArguments": "",
                        "name": "balanceOf",
                        "returnParams": [
                            {
                                "decimalAvailable": true,
                                "name": "",
                                "type": "uint256",
                                "value": "0"
                            }
                        ],
                        "signature": "balanceOf(address)"
                    },
                    "errorInfo": "",
                    "fromAddress": "0x3fc91a3afd70395cd496c647d5a6cc9d4b2b7fad",
                    "gasUsed": 2930,
                    "id": 5,
                    "methodDecoded": true,
                    "operation": "STATICCALL",
                    "output": "0x0000000000000000000000000000000000000000000000000000000000000000",
                    "revert": false,
                    "revertMessage": "",
                    "selector": "0x70a08231",
                    "status": true,
                    "value": "0"
                },
                "nodeType": 0
            },
            "6": {
                "invocation": {
                    "address": "0xe471f93c2be15b64e9ec63bbf485446cb934e8c4",
                    "callData": "0x",
                    "decodedMethod": {
                        "callParams": [],
                        "constructorArguments": "",
                        "name": "getReserves",
                        "returnParams": [
                            {
                                "name": "_reserve0",
                                "type": "uint112",
                                "value": "58,708,324,622,639,055"
                            },
                            {
                                "name": "_reserve1",
                                "type": "uint112",
                                "value": "507,067,156,794,742,750,620"
                            },
                            {
                                "name": "_blockTimestampLast",
                                "type": "uint32",
                                "value": "1,691,521,211"
                            }
                        ],
                        "signature": "getReserves()"
                    },
                    "errorInfo": "",
                    "fromAddress": "0x3fc91a3afd70395cd496c647d5a6cc9d4b2b7fad",
                    "gasUsed": 2504,
                    "id": 6,
                    "methodDecoded": true,
                    "operation": "STATICCALL",
                    "output": "0x00000000000000000000000000000000000000000000000000d092e9027d9fcf00000000000000000000000000000000000000000000001b7cf86c8c41f13d9c0000000000000000000000000000000000000000000000000000000064d290bb",
                    "revert": false,
                    "revertMessage": "",
                    "selector": "0x0902f1ac",
                    "status": true,
                    "value": "0"
                },
                "nodeType": 0
            },
            "7": {
                "invocation": {
                    "address": "0xc02aaa39b223fe8d0a0e5c4f27ead9083c756cc2",
                    "callData": "0x000000000000000000000000e471f93c2be15b64e9ec63bbf485446cb934e8c4",
                    "decodedMethod": {
                        "callParams": [
                            {
                                "name": "",
                                "type": "address",
                                "value": "0xe471f93c2be15b64e9ec63bbf485446cb934e8c4"
                            }
                        ],
                        "constructorArguments": "",
                        "name": "balanceOf",
                        "returnParams": [
                            {
                                "decimalAvailable": true,
                                "name": "",
                                "type": "uint256",
                                "value": "507,267,156,794,742,750,620"
                            }
                        ],
                        "signature": "balanceOf(address)"
                    },
                    "errorInfo": "",
                    "fromAddress": "0x3fc91a3afd70395cd496c647d5a6cc9d4b2b7fad",
                    "gasUsed": 534,
                    "id": 7,
                    "methodDecoded": true,
                    "operation": "STATICCALL",
                    "output": "0x00000000000000000000000000000000000000000000001b7fbef77cfd053d9c",
                    "revert": false,
                    "revertMessage": "",
                    "selector": "0x70a08231",
                    "status": true,
                    "value": "0"
                },
                "nodeType": 0
            },
            "8": {
                "invocation": {
                    "address": "0xe471f93c2be15b64e9ec63bbf485446cb934e8c4",
                    "callData": "0x000000000000000000000000000000000000000000000000000014fd25b739a00000000000000000000000000000000000000000000000000000000000000000000000000000000000000000e06dc73d11352f4a7f12d18ca6f88b65dc3e3a5600000000000000000000000000000000000000000000000000000000000000800000000000000000000000000000000000000000000000000000000000000000",
                    "decodedMethod": {
                        "callParams": [
                            {
                                "name": "amount0Out",
                                "type": "uint256",
                                "value": "23,077,492,046,240"
                            },
                            {
                                "name": "amount1Out",
                                "type": "uint256",
                                "value": "0"
                            },
                            {
                                "name": "to",
                                "type": "address",
                                "value": "0xe06dc73d11352f4a7f12d18ca6f88b65dc3e3a56"
                            },
                            {
                                "name": "data",
                                "type": "bytes",
                                "value": "0x"
                            }
                        ],
                        "constructorArguments": "",
                        "name": "swap",
                        "returnParams": [],
                        "signature": "swap(uint256,uint256,address,bytes)"
                    },
                    "errorInfo": "",
                    "fromAddress": "0x3fc91a3afd70395cd496c647d5a6cc9d4b2b7fad",
                    "gasUsed": 92016,
                    "id": 8,
                    "methodDecoded": true,
                    "operation": "CALL",
                    "output": "",
                    "revert": false,
                    "revertMessage": "",
                    "selector": "0x022c0d9f",
                    "status": true,
                    "value": "0"
                },
                "nodeType": 0
            },
            "9": {
                "invocation": {
                    "address": "0xa735a3af76cc30791c61c10d585833829d36cbe0",
                    "callData": "0x000000000000000000000000e06dc73d11352f4a7f12d18ca6f88b65dc3e3a56000000000000000000000000000000000000000000000000000014fd25b739a0",
                    "decodedMethod": {
                        "callParams": [
                            {
                                "name": "to",
                                "type": "address",
                                "value": "0xe06dc73d11352f4a7f12d18ca6f88b65dc3e3a56"
                            },
                            {
                                "decimalAvailable": true,
                                "name": "amount",
                                "type": "uint256",
                                "value": "23,077,492,046,240"
                            }
                        ],
                        "constructorArguments": "",
                        "name": "transfer",
                        "returnParams": [
                            {
                                "name": "",
                                "type": "bool",
                                "value": true
                            }
                        ],
                        "signature": "transfer(address,uint256)"
                    },
                    "errorInfo": "",
                    "fromAddress": "0xe471f93c2be15b64e9ec63bbf485446cb934e8c4",
                    "gasUsed": 59229,
                    "id": 9,
                    "methodDecoded": true,
                    "operation": "CALL",
                    "output": "0x0000000000000000000000000000000000000000000000000000000000000001",
                    "revert": false,
                    "revertMessage": "",
                    "selector": "0xa9059cbb",
                    "status": true,
                    "value": "0"
                },
                "nodeType": 0
            }
        },
        "gasFlame": [
            {
                "children": [
                    {
                        "children": [
                            {
                                "children": [],
                                "depth": 0,
                                "name": "Initial Gas",
                                "value": 24536
                            },
                            {
                                "children": [
                                    {
                                        "children": [],
                                        "depth": 1,
                                        "name": "deposit",
                                        "value": 23974
                                    },
                                    {
                                        "children": [],
                                        "depth": 1,
                                        "name": "transfer",
                                        "value": 8062
                                    },
                                    {
                                        "children": [],
                                        "depth": 1,
                                        "name": "balanceOf",
                                        "value": 2930
                                    },
                                    {
                                        "children": [],
                                        "depth": 1,
                                        "name": "getReserves",
                                        "value": 2504
                                    },
                                    {
                                        "children": [],
                                        "depth": 1,
                                        "name": "balanceOf",
                                        "value": 534
                                    },
                                    {
                                        "children": [
                                            {
                                                "children": [],
                                                "depth": 2,
                                                "name": "transfer",
                                                "value": 59229
                                            },
                                            {
                                                "children": [],
                                                "depth": 2,
                                                "name": "balanceOf",
                                                "value": 930
                                            },
                                            {
                                                "children": [],
                                                "depth": 2,
                                                "name": "balanceOf",
                                                "value": 534
                                            }
                                        ],
                                        "depth": 1,
                                        "name": "swap",
                                        "value": 92016
                                    },
                                    {
                                        "children": [],
                                        "depth": 1,
                                        "name": "balanceOf",
                                        "value": 930
                                    }
                                ],
                                "depth": 0,
                                "name": "Executed Gas",
                                "value": 158771
                            }
                        ],
                        "depth": -1,
                        "name": "Actual Gas Used",
                        "value": 157807
                    },
                    {
                        "children": [],
                        "depth": -1,
                        "name": "Refunded Gas",
                        "value": 25500
                    }
                ],
                "depth": -2,
                "name": "Total Gas",
                "value": 183307
            }
        ],
        "isConfirmed": true,
        "mainTrace": [
            {
                "children": [
                    {
                        "children": [
                            {
                                "children": [
                                    {
                                        "children": [],
                                        "depth": 2,
                                        "id": 2,
                                        "order": 2
                                    }
                                ],
                                "depth": 1,
                                "id": 1,
                                "order": 1
                            },
                            {
                                "children": [
                                    {
                                        "children": [],
                                        "depth": 2,
                                        "id": 4,
                                        "order": 4
                                    }
                                ],
                                "depth": 1,
                                "id": 3,
                                "order": 3
                            },
                            {
                                "children": [],
                                "depth": 1,
                                "id": 5,
                                "order": 5
                            },
                            {
                                "children": [],
                                "depth": 1,
                                "id": 6,
                                "order": 6
                            },
                            {
                                "children": [],
                                "depth": 1,
                                "id": 7,
                                "order": 7
                            },
                            {
                                "children": [
                                    {
                                        "children": [
                                            {
                                                "children": [],
                                                "depth": 3,
                                                "id": 10,
                                                "order": 10
                                            },
                                            {
                                                "children": [],
                                                "depth": 3,
                                                "id": 11,
                                                "order": 11
                                            }
                                        ],
                                        "depth": 2,
                                        "id": 9,
                                        "order": 9
                                    },
                                    {
                                        "children": [],
                                        "depth": 2,
                                        "id": 12,
                                        "order": 12
                                    },
                                    {
                                        "children": [],
                                        "depth": 2,
                                        "id": 13,
                                        "order": 13
                                    },
                                    {
                                        "children": [],
                                        "depth": 2,
                                        "id": 14,
                                        "order": 14
                                    },
                                    {
                                        "children": [],
                                        "depth": 2,
                                        "id": 15,
                                        "order": 15
                                    }
                                ],
                                "depth": 1,
                                "id": 8,
                                "order": 8
                            },
                            {
                                "children": [],
                                "depth": 1,
                                "id": 16,
                                "order": 16
                            }
                        ],
                        "depth": 0,
                        "id": 0,
                        "order": 0
                    }
                ],
                "depth": -1,
                "id": -1,
                "order": -1
            }
        ],
        "mainTraceNodeCount": 17,
        "parentIdMap": {
            "0": -1,
            "1": 0,
            "10": 9,
            "11": 9,
            "12": 8,
            "13": 8,
            "14": 8,
            "15": 8,
            "16": 0,
            "2": 1,
            "3": 0,
            "4": 3,
            "5": 0,
            "6": 0,
            "7": 0,
            "8": 0,
            "9": 8
        },
        "tidyTrace": [
            {
                "children": [
                    {
                        "children": [
                            {
                                "children": [
                                    {
                                        "children": [],
                                        "depth": 2,
                                        "id": 2,
                                        "order": 2
                                    }
                                ],
                                "depth": 1,
                                "id": 1,
                                "order": 1
                            },
                            {
                                "children": [
                                    {
                                        "children": [],
                                        "depth": 2,
                                        "id": 4,
                                        "order": 4
                                    }
                                ],
                                "depth": 1,
                                "id": 3,
                                "order": 3
                            },
                            {
                                "children": [
                                    {
                                        "children": [
                                            {
                                                "children": [],
                                                "depth": 3,
                                                "id": 10,
                                                "order": 10
                                            },
                                            {
                                                "children": [],
                                                "depth": 3,
                                                "id": 11,
                                                "order": 11
                                            }
                                        ],
                                        "depth": 2,
                                        "id": 9,
                                        "order": 9
                                    },
                                    {
                                        "children": [],
                                        "depth": 2,
                                        "id": 14,
                                        "order": 14
                                    },
                                    {
                                        "children": [],
                                        "depth": 2,
                                        "id": 15,
                                        "order": 15
                                    }
                                ],
                                "depth": 1,
                                "id": 8,
                                "order": 8
                            }
                        ],
                        "depth": 0,
                        "id": 0,
                        "order": 0
                    }
                ],
                "depth": -1,
                "id": -1,
                "order": -1
            }
        ],
        "tidyTraceNodeCount": 11
    },
    "state_change": {
        "stateChanges": [
            {
                "address": "0xa735a3af76cc30791c61c10d585833829d36cbe0",
                "erc": "ERC-20",
                "slots": [
                    {
                        "current": "0x00000000000000000000000000000000000000000000000000d07debdcc6662f",
                        "key": "0x8ba7117ef32de6f53b41cc907e52fcd9dd038b5087c7f8b2717292ec3cd21873",
                        "prev": "0x00000000000000000000000000000000000000000000000000d092e9027d9fcf"
                    },
                    {
                        "current": "0x000000000000000000000000000000000000000000000000000010bf3babcf5a",
                        "key": "0x178b062e47e2949ce1cefe7525a8e5a8b60961be4de3691ad9558949bb02d60a",
                        "prev": "0x0000000000000000000000000000000000000000000000000000101e09e65030"
                    },
                    {
                        "current": "0x0000000000000000000000000000000000000000000000000000145bf3f1ba76",
                        "key": "0xe2dd32d5fe485b0909ea6d37c489a89e43b9322285595163608da1138e8aa929",
                        "prev": "0x0000000000000000000000000000000000000000000000000000000000000000"
                    },
                    {
                        "current": "0x0000000000000000000000000000000000000000000000000000086e90ce2084",
                        "key": "0x0000000000000000000000000000000000000000000000000000000000000010",
                        "prev": "0x000000000000000000000000000000000000000000000000000008031a4a7668"
                    }
                ],
                "storageVariables": [
                    {
                        "name": "_balances",
                        "type": "mapping(address => uint256)",
                        "value": {
                            "pairs": [
                                {
                                    "key": "0xa735a3af76cc30791c61c10d585833829d36cbe0",
                                    "value": {
                                        "current": "18413525913434",
                                        "prev": "17721201152048",
                                        "typeTag": 1
                                    }
                                },
                                {
                                    "key": "0xe06dc73d11352f4a7f12d18ca6f88b65dc3e3a56",
                                    "value": {
                                        "current": "22385167284854",
                                        "prev": "0",
                                        "typeTag": 1
                                    }
                                },
                                {
                                    "key": "0xe471f93c2be15b64e9ec63bbf485446cb934e8c4",
                                    "value": {
                                        "current": "58685247130592815",
                                        "prev": "58708324622639055",
                                        "typeTag": 1
                                    }
                                }
                            ],
                            "typeTag": 4
                        }
                    },
                    {
                        "name": "_marketingReserves",
                        "type": "uint256",
                        "value": {
                            "current": "9270968852612",
                            "prev": "8809419011688",
                            "typeTag": 1
                        }
                    }
                ]
            },
            {
                "address": "0xc02aaa39b223fe8d0a0e5c4f27ead9083c756cc2",
                "erc": "ERC-20",
                "slots": [
                    {
                        "current": "0x00000000000000000000000000000000000000000000001b7fbef77cfd053d9c",
                        "key": "0xbdad39b5252b878e9f5d44e5d6fb8350c1e6269e5791b5d55283a98da949a5d6",
                        "prev": "0x00000000000000000000000000000000000000000000001b7cf86c8c41f13d9c"
                    }
                ],
                "storageVariables": [
                    {
                        "name": "balanceOf",
                        "type": "mapping(address => uint256)",
                        "value": {
                            "pairs": [
                                {
                                    "key": "0xe471f93c2be15b64e9ec63bbf485446cb934e8c4",
                                    "value": {
                                        "current": "507267156794742750620",
                                        "prev": "507067156794742750620",
                                        "typeTag": 1
                                    }
                                }
                            ],
                            "typeTag": 4
                        }
                    }
                ]
            },
            {
                "address": "0xe471f93c2be15b64e9ec63bbf485446cb934e8c4",
                "erc": "ERC-20",
                "slots": [
                    {
                        "current": "0x00000000000000000000000000279ead4df0539133c563cbb0401f8d38493574",
                        "key": "0x0000000000000000000000000000000000000000000000000000000000000009",
                        "prev": "0x00000000000000000000000000279e94002558fba556f27461523267fb2d6274"
                    },
                    {
                        "current": "0x00000000000000000000000000000000314cb936c2a7487a790261d388b63468",
                        "key": "0x000000000000000000000000000000000000000000000000000000000000000a",
                        "prev": "0x00000000000000000000000000000000314cb385e89a01a1a7965556eae390e8"
                    },
                    {
                        "current": "0x64d2917b00000000001b7fbef77cfd053d9c00000000000000d07debdcc6662f",
                        "key": "0x0000000000000000000000000000000000000000000000000000000000000008",
                        "prev": "0x64d290bb00000000001b7cf86c8c41f13d9c00000000000000d092e9027d9fcf"
                    }
                ],
                "storageVariables": [
                    {
                        "name": "price1CumulativeLast",
                        "type": "uint256",
                        "value": {
                            "current": "65530542939049300788183293369125319784",
                            "prev": "65530427515360897277358571030657077480",
                            "typeTag": 1
                        }
                    },
                    {
                        "name": "reserve0",
                        "type": "uint112",
                        "value": {
                            "current": "58685247130592815",
                            "prev": "58708324622639055",
                            "typeTag": 1
                        }
                    },
                    {
                        "name": "reserve1",
                        "type": "uint112",
                        "value": {
                            "current": "507267156794742750620",
                            "prev": "507067156794742750620",
                            "typeTag": 1
                        }
                    },
                    {
                        "name": "blockTimestampLast",
                        "type": "uint32",
                        "value": {
                            "current": "1691521403",
                            "prev": "1691521211",
                            "typeTag": 1
                        }
                    },
                    {
                        "name": "price0CumulativeLast",
                        "type": "uint256",
                        "value": {
                            "current": "883551776367791609434152413000090552455738740",
                            "prev": "883543165904136493632492418330942307881017972",
                            "typeTag": 1
                        }
                    }
                ]
            }
        ]
    }
}