{
    "balance_change": {
        "balanceChanges": [
            {
                "account": "0x01bc604ae9d945f29432eded391513ba587aeda1",
                "assets": [
                    {
                        "address": "0x06a6a7af298129e3a2ab396c9c06f91d3c54aba8",
                        "amount": "97,927",
                        "iconUrl": "",
                        "isERC1155": false,
                        "isERC721": false,
                        "sign": true,
                        "value": ""
                    },
                    {
                        "address": "0xeeeeeeeeeeeeeeeeeeeeeeeeeeeeeeeeeeeeeeee",
                        "amount": "0.001",
                        "iconUrl": "https://assets.blocksec.com/image/1663669189317-3.png",
                        "isERC1155": false,
                        "isERC721": false,
                        "sign": false,
                        "value": ""
                    }
                ]
            },
            {
                "account": "0xf0155486a14539f784739be1c02e93f28eb8e960",
                "assets": [
                    {
                        "address": "0xeeeeeeeeeeeeeeeeeeeeeeeeeeeeeeeeeeeeeeee",
                        "amount": "0.00005",
                        "iconUrl": "https://assets.blocksec.com/image/1663669189317-3.png",
                        "isERC1155": false,
                        "isERC721": false,
                        "sign": true,
                        "value": ""
                    }
                ]
            },
            {
                "account": "0x0000000000000000000000000000000000000000",
                "assets": [
                    {
                        "address": "0x06a6a7af298129e3a2ab396c9c06f91d3c54aba8",
                        "amount": "97,927",
                        "iconUrl": "",
                        "isERC1155": false,
                        "isERC721": false,
                        "sign": false,
                        "value": ""
                    }
                ]
            },
            {
                "account": "0x75298d6fd0757dadcfe18a106023efa195f741e6",
                "assets": [
                    {
                        "address": "0xeeeeeeeeeeeeeeeeeeeeeeeeeeeeeeeeeeeeeeee",
                        "amount": "0.00095",
                        "iconUrl": "https://assets.blocksec.com/image/1663669189317-3.png",
                        "isERC1155": false,
                        "isERC721": false,
                        "sign": true,
                        "value": ""
                    }
                ]
            }
        ]
    },
    "profile": {
        "basic_info": {
            "baseFee": "",
            "blockNumber": 7549570,
            "callData": "0x6e234f6900000000000000000000000000000000000000000000000000000000000023d100000000000000000000000000000000000000000000000000000000000000010000000000000000000000000000000000000000000000000000000000016d1200000000000000000000000000000000000000000000000000000000000000430000000000000000000000000000000000000000000000000000000000017abf00000000000000000000000000000000000000000000000000000000000000040000000000000000000000000000000000000000000000000000000000000000000000000000000000000000000000000000000000000000000000000000000000000000000000000000000000000000000000000000000000000000000000000000000000000000000000000000000000000000000000000000000000000000000000000000000000000000000000000000000000000000000000000000000000000000000000000000000000000000000000000000000000000000000000000000000000000000000000000000000000000000000000000000000000000000000000000000000000000000000000000000000000000000000000000000000000000000000000000000000000000000000000000000000000000000000000000000000000000000000000000000000000000000000000000000000000000000000000000000000000000000000000000000000000000000000000000000000000000000000000000000000000000000000000000000000000000000000000000000000000000000000000000000000000000000000000000000000000000000000000000000000000000000000000000000000000000000000000000000000000000000000000000000000000000000000000000000000000000000000000000000000000000000000000000000000000000000000000000000000000000000",
            "debugEnable": true,
            "errorInfo": "",
            "eventCount": 3,
            "feeRecipient": "0xea674fdde714fd979de3edf0f56aa9716b898ec8",
            "formatValue": "0.001",
            "gasLimit": 1000000,
            "gasPrice": "1",
            "gasUsed": 633023,
            "intTxnCount": 52,
            "internalRevert": false,
            "internalRevertMessage": "",
            "isContractCreation": false,
            "isFlashloan": false,
            "maxFee": "",
            "nonce": 108,
            "overwritedBlockNumber": -1,
            "priorityFee": "",
            "receiver": "0xf0155486a14539f784739be1c02e93f28eb8e960",
            "revertMessage": "",
            "sender": "0x01bc604ae9d945f29432eded391513ba587aeda1",
            "simulationEnable": true,
            "sourceTxnHash": "0x4a73acb83918d4ce6fcb9ec7a29697185e06f472b0d68cdc6cfd139f2ef0bb71",
            "status": true,
            "timestamp": "2019-04-11T23:03:03Z",
            "transactionFee": "0.000633023",
            "txnHash": "0x4a73acb83918d4ce6fcb9ec7a29697185e06f472b0d68cdc6cfd139f2ef0bb71",
            "txnIndex": 18,
            "type": 0,
            "value": "1000000000000000"
        },
        "fund_flow": [
            {
                "amount": "0.001",
                "from": "0x01bc604ae9d945f29432eded391513ba587aeda1",
                "id": 1,
                "isERC1155": false,
                "isERC721": false,
                "isReverted": false,
                "order": 1,
                "to": "0xf0155486a14539f784739be1c02e93f28eb8e960",
                "token": "0xeeeeeeeeeeeeeeeeeeeeeeeeeeeeeeeeeeeeeeee"
            },
            {
                "amount": "0.00095",
                "from": "0xf0155486a14539f784739be1c02e93f28eb8e960",
                "id": 2,
                "isERC1155": false,
                "isERC721": false,
                "isReverted": false,
                "order": 2,
                "to": "0x75298d6fd0757dadcfe18a106023efa195f741e6",
                "token": "0xeeeeeeeeeeeeeeeeeeeeeeeeeeeeeeeeeeeeeeee"
            },
            {
                "amount": "97,927",
                "from": "0x0000000000000000000000000000000000000000",
                "id": 3,
                "isERC1155": false,
                "isERC721": false,
                "isReverted": false,
                "order": 3,
                "to": "0x01bc604ae9d945f29432eded391513ba587aeda1",
                "token": "0x06a6a7af298129e3a2ab396c9c06f91d3c54aba8"
            }
        ],
        "token_infos": [
            {
                "address": "0xc02aaa39b223fe8d0a0e5c4f27ead9083c756cc2",
                "decimals": 18
            },
            {
                "address": "0xeeeeeeeeeeeeeeeeeeeeeeeeeeeeeeeeeeeeeeee",
                "decimals": 18
            },
            {
                "address": "0x06a6a7af298129e3a2ab396c9c06f91d3c54aba8",
                "decimals": -1
            }
        ]
    },
    "address_label": {
        "labels": [
            {
                "address": "0xe658e6eb4b478da2cf36d9e3712ba0c1b33786a1",
                "label": "0xUniverse: Contract 3"
            },
            {
                "address": "0x0000000000000000000000000000000000000001",
                "label": "Precompiled"
            },
            {
                "address": "0x0000000000000000000000000000000000000002",
                "label": "Precompiled"
            },
            {
                "address": "0x0000000000000000000000000000000000000003",
                "label": "Precompiled"
            },
            {
                "address": "0x0000000000000000000000000000000000000004",
                "label": "Precompiled"
            },
            {
                "address": "0xeeeeeeeeeeeeeeeeeeeeeeeeeeeeeeeeeeeeeeee",
                "label": "Ether"
            },
            {
                "address": "0x06a6a7af298129e3a2ab396c9c06f91d3c54aba8",
                "label": "0xUniverse: PLANET Token"
            }
        ]
    },
    "trace": {
        "accountLabels": null,
        "dataMap": {
            "-1": {
                "invocation": {
                    "address": "0x01bc604ae9d945f29432eded391513ba587aeda1",
                    "callData": "",
                    "decodedMethod": null,
                    "errorInfo": "",
                    "fromAddress": "",
                    "gasUsed": 0,
                    "id": -1,
                    "methodDecoded": false,
                    "operation": "",
                    "output": "",
                    "revert": false,
                    "revertMessage": "",
                    "selector": "",
                    "status": false,
                    "value": ""
                },
                "nodeType": 0
            },
            "0": {
                "invocation": {
                    "address": "0xf0155486a14539f784739be1c02e93f28eb8e960",
                    "callData": "0x00000000000000000000000000000000000000000000000000000000000023d100000000000000000000000000000000000000000000000000000000000000010000000000000000000000000000000000000000000000000000000000016d1200000000000000000000000000000000000000000000000000000000000000430000000000000000000000000000000000000000000000000000000000017abf00000000000000000000000000000000000000000000000000000000000000040000000000000000000000000000000000000000000000000000000000000000000000000000000000000000000000000000000000000000000000000000000000000000000000000000000000000000000000000000000000000000000000000000000000000000000000000000000000000000000000000000000000000000000000000000000000000000000000000000000000000000000000000000000000000000000000000000000000000000000000000000000000000000000000000000000000000000000000000000000000000000000000000000000000000000000000000000000000000000000000000000000000000000000000000000000000000000000000000000000000000000000000000000000000000000000000000000000000000000000000000000000000000000000000000000000000000000000000000000000000000000000000000000000000000000000000000000000000000000000000000000000000000000000000000000000000000000000000000000000000000000000000000000000000000000000000000000000000000000000000000000000000000000000000000000000000000000000000000000000000000000000000000000000000000000000000000000000000000000000000000000000000000000000000000000000000000000000000000000000000000000",
                    "decodedMethod": null,
                    "errorInfo": "",
                    "fromAddress": "0x01bc604ae9d945f29432eded391513ba587aeda1",
                    "gasUsed": 633023,
                    "id": 0,
                    "methodDecoded": false,
                    "operation": "CALL",
                    "output": "",
                    "revert": false,
                    "revertMessage": "",
                    "selector": "0x6e234f69",
                    "status": true,
                    "value": "0.001"
                },
                "nodeType": 0
            },
            "1": {
                "invocation": {
                    "address": "0x6fdcc496b21a8709b5da491f26377c680bdb9a08",
                    "callData": "0x00000000000000000000000000000000000000000000000000000000000023d100000000000000000000000000000000000000000000000000000000000000010000000000000000000000000000000000000000000000000000000000016d1200000000000000000000000000000000000000000000000000000000000000430000000000000000000000000000000000000000000000000000000000017abf00000000000000000000000000000000000000000000000000000000000000040000000000000000000000000000000000000000000000000000000000000000000000000000000000000000000000000000000000000000000000000000000000000000000000000000000000000000000000000000000000000000000000000000000000000000000000000000000000000000000000000000000000000000000000000000000000000000000000000000000000000000000000000000000000000000000000000000000000000000000000000000000000000000000000000000000000000000000000000000000000000000000000000000000000000000000000000000000000000000000000000000000000000000000000000000000000000000000000000000000000000000000000000000000000000000000000000000000000000000000000000000000000000000000000000000000000000000000000000000000000000000000000000000000000000000000000000000000000000000000000000000000000000000000000000000000000000000000000000000000000000000000000000000000000000000000000000000000000000000000000000000000000000000000000000000000000000000000000000000000000000000000000000000000000000000000000000000000000000000000000000000000000000000000000000000000000000000000000000000000000000000",
                    "decodedMethod": null,
                    "errorInfo": "",
                    "fromAddress": "0xf0155486a14539f784739be1c02e93f28eb8e960",
                    "gasUsed": 606531,
                    "id": 1,
                    "methodDecoded": false,
                    "operation": "DELEGATECALL",
                    "output": "",
                    "revert": false,
                    "revertMessage": "",
                    "selector": "0x6e234f69",
                    "status": true,
                    "value": "0.001"
                },
                "nodeType": 0
            },
            "10": {
                "invocation": {
                    "address": "0xfc30a1a7a650d10b20500bc10b06ff8f4b650ad2",
                    "callData": "0x0000000000000000000000000000000000000000000000000000000000000012",
                    "decodedMethod": {
                        "callParams": [
                            {
                                "name": "_record",
                                "type": "uint256",
                                "value": "18"
                            }
                        ],
                        "constructorArguments": "",
                        "name": "getUIntValue",
                        "returnParams": [
                            {
                                "name": "",
                                "type": "uint256",
                                "value": "200"
                            }
                        ],
                        "signature": "getUIntValue(uint256)"
                    },
                    "errorInfo": "",
                    "fromAddress": "0x06a6a7af298129e3a2ab396c9c06f91d3c54aba8",
                    "gasUsed": 588,
                    "id": 10,
                    "methodDecoded": true,
                    "operation": "CALL",
                    "output": "0x00000000000000000000000000000000000000000000000000000000000000c8",
                    "revert": false,
                    "revertMessage": "",
                    "selector": "0x64c66395",
                    "status": true,
                    "value": "0"
                },
                "nodeType": 0
            },
            "11": {
                "invocation": {
                    "address": "0x5937512b02555967a01d78b0994f53168a985ac4",
                    "callData": "0x00000000000000000000000000000000000000000000000000000000000023d1",
                    "decodedMethod": {
                        "callParams": [
                            {
                                "name": "tokenId",
                                "type": "uint256",
                                "value": "9,169"
                            }
                        ],
                        "constructorArguments": "",
                        "name": "getRentPrice",
                        "returnParams": [
                            {
                                "name": "",
                                "type": "uint256",
                                "value": "10,000,000,000,000"
                            }
                        ],
                        "signature": "getRentPrice(uint256)"
                    },
                    "errorInfo": "",
                    "fromAddress": "0xf0155486a14539f784739be1c02e93f28eb8e960",
                    "gasUsed": 2035,
                    "id": 11,
                    "methodDecoded": true,
                    "operation": "CALL",
                    "output": "0x000000000000000000000000000000000000000000000000000009184e72a000",
                    "revert": false,
                    "revertMessage": "",
                    "selector": "0x65de0f56",
                    "status": true,
                    "value": "0"
                },
                "nodeType": 0
            },
            "12": {
                "invocation": {
                    "address": "0xb30fc104867b28d6781211ce1d8bd548e35cf9d6",
                    "callData": "0x00000000000000000000000000000000000000000000000000000000000023d1",
                    "decodedMethod": {
                        "callParams": [
                            {
                                "name": "tokenId",
                                "type": "uint256",
                                "value": "9,169"
                            }
                        ],
                        "constructorArguments": "",
                        "name": "getRentPrice",
                        "returnParams": [
                            {
                                "name": "",
                                "type": "uint256",
                                "value": "10,000,000,000,000"
                            }
                        ],
                        "signature": "getRentPrice(uint256)"
                    },
                    "errorInfo": "",
                    "fromAddress": "0x5937512b02555967a01d78b0994f53168a985ac4",
                    "gasUsed": 456,
                    "id": 12,
                    "methodDecoded": true,
                    "operation": "DELEGATECALL",
                    "output": "0x000000000000000000000000000000000000000000000000000009184e72a000",
                    "revert": false,
                    "revertMessage": "",
                    "selector": "0x65de0f56",
                    "status": true,
                    "value": "0"
                },
                "nodeType": 0
            },
            "13": {
                "invocation": {
                    "address": "0x75298d6fd0757dadcfe18a106023efa195f741e6",
                    "callData": "0x",
                    "decodedMethod": null,
                    "errorInfo": "",
                    "fromAddress": "0xf0155486a14539f784739be1c02e93f28eb8e960",
                    "gasUsed": 0,
                    "id": 13,
                    "methodDecoded": false,
                    "operation": "CALL",
                    "output": "",
                    "revert": false,
                    "revertMessage": "",
                    "selector": "fallback",
                    "status": true,
                    "value": "0.00095"
                },
                "nodeType": 0
            },
            "14": {
                "invocation": {
                    "address": "0x01bc604ae9d945f29432eded391513ba587aeda1",
                    "callData": "0x",
                    "decodedMethod": null,
                    "errorInfo": "",
                    "fromAddress": "0xf0155486a14539f784739be1c02e93f28eb8e960",
                    "gasUsed": 0,
                    "id": 14,
                    "methodDecoded": false,
                    "operation": "CALL",
                    "output": "",
                    "revert": false,
                    "revertMessage": "",
                    "selector": "fallback",
                    "status": true,
                    "value": "0"
                },
                "nodeType": 0
            },
            "15": {
                "invocation": {
                    "address": "0x06a6a7af298129e3a2ab396c9c06f91d3c54aba8",
                    "callData": "0x00000000000000000000000075298d6fd0757dadcfe18a106023efa195f741e600000000000000000000000000000000000000000000000000000000000023d100000000000000000000000000000000000000000000000000000000000000000000000000000000000000000000000000000000000000000000000000000064",
                    "decodedMethod": {
                        "callParams": [
                            {
                                "name": "_owner",
                                "type": "address",
                                "value": "0x75298d6fd0757dadcfe18a106023efa195f741e6"
                            },
                            {
                                "name": "_planetId",
                                "type": "uint256",
                                "value": "9,169"
                            },
                            {
                                "name": "_resourceId",
                                "type": "uint256",
                                "value": "0"
                            },
                            {
                                "name": "_resourceValue",
                                "type": "uint256",
                                "value": "100"
                            }
                        ],
                        "constructorArguments": "",
                        "name": "spendResourceOnPlanet",
                        "returnParams": [],
                        "signature": "spendResourceOnPlanet(address,uint256,uint256,uint256)"
                    },
                    "errorInfo": "",
                    "fromAddress": "0xf0155486a14539f784739be1c02e93f28eb8e960",
                    "gasUsed": 30769,
                    "id": 15,
                    "methodDecoded": true,
                    "operation": "CALL",
                    "output": "",
                    "revert": false,
                    "revertMessage": "",
                    "selector": "0x189052f1",
                    "status": true,
                    "value": "0"
                },
                "nodeType": 0
            },
            "16": {
                "invocation": {
                    "address": "0xfc30a1a7a650d10b20500bc10b06ff8f4b650ad2",
                    "callData": "0x0000000000000000000000000000000000000000000000000000000000000022",
                    "decodedMethod": {
                        "callParams": [
                            {
                                "name": "_record",
                                "type": "uint256",
                                "value": "34"
                            }
                        ],
                        "constructorArguments": "",
                        "name": "getUIntValue",
                        "returnParams": [
                            {
                                "name": "",
                                "type": "uint256",
                                "value": "1"
                            }
                        ],
                        "signature": "getUIntValue(uint256)"
                    },
                    "errorInfo": "",
                    "fromAddress": "0x06a6a7af298129e3a2ab396c9c06f91d3c54aba8",
                    "gasUsed": 588,
                    "id": 16,
                    "methodDecoded": true,
                    "operation": "CALL",
                    "output": "0x0000000000000000000000000000000000000000000000000000000000000001",
                    "revert": false,
                    "revertMessage": "",
                    "selector": "0x64c66395",
                    "status": true,
                    "value": "0"
                },
                "nodeType": 0
            },
            "17": {
                "invocation": {
                    "address": "0xfc30a1a7a650d10b20500bc10b06ff8f4b650ad2",
                    "callData": "0x0000000000000000000000000000000000000000000000000000000000000011",
                    "decodedMethod": {
                        "callParams": [
                            {
                                "name": "_record",
                                "type": "uint256",
                                "value": "17"
                            }
                        ],
                        "constructorArguments": "",
                        "name": "getUIntValue",
                        "returnParams": [
                            {
                                "name": "",
                                "type": "uint256",
                                "value": "24"
                            }
                        ],
                        "signature": "getUIntValue(uint256)"
                    },
                    "errorInfo": "",
                    "fromAddress": "0x06a6a7af298129e3a2ab396c9c06f91d3c54aba8",
                    "gasUsed": 588,
                    "id": 17,
                    "methodDecoded": true,
                    "operation": "CALL",
                    "output": "0x0000000000000000000000000000000000000000000000000000000000000018",
                    "revert": false,
                    "revertMessage": "",
                    "selector": "0x64c66395",
                    "status": true,
                    "value": "0"
                },
                "nodeType": 0
            },
            "18": {
                "invocation": {
                    "address": "0xfc30a1a7a650d10b20500bc10b06ff8f4b650ad2",
                    "callData": "0x0000000000000000000000000000000000000000000000000000000000000012",
                    "decodedMethod": {
                        "callParams": [
                            {
                                "name": "_record",
                                "type": "uint256",
                                "value": "18"
                            }
                        ],
                        "constructorArguments": "",
                        "name": "getUIntValue",
                        "returnParams": [
                            {
                                "name": "",
                                "type": "uint256",
                                "value": "200"
                            }
                        ],
                        "signature": "getUIntValue(uint256)"
                    },
                    "errorInfo": "",
                    "fromAddress": "0x06a6a7af298129e3a2ab396c9c06f91d3c54aba8",
                    "gasUsed": 588,
                    "id": 18,
                    "methodDecoded": true,
                    "operation": "CALL",
                    "output": "0x00000000000000000000000000000000000000000000000000000000000000c8",
                    "revert": false,
                    "revertMessage": "",
                    "selector": "0x64c66395",
                    "status": true,
                    "value": "0"
                },
                "nodeType": 0
            },
            "19": {
                "invocation": {
                    "address": "0x06a6a7af298129e3a2ab396c9c06f91d3c54aba8",
                    "callData": "0x0000000000000000000000000000000000000000000000000000000000016d12",
                    "decodedMethod": {
                        "callParams": [
                            {
                                "name": "_id",
                                "type": "uint256",
                                "value": "93,458"
                            }
                        ],
                        "constructorArguments": "",
                        "name": "getPlanet",
                        "returnParams": [
                            {
                                "name": "rarity",
                                "type": "uint256",
                                "value": "0"
                            },
                            {
                                "name": "discovered",
                                "type": "uint256",
                                "value": "1,554,643,490"
                            },
                            {
                                "name": "sectorX",
                                "type": "uint256",
                                "value": "13"
                            },
                            {
                                "name": "sectorY",
                                "type": "uint256",
                                "value": "26"
                            },
                            {
                                "name": "resourcesId",
                                "type": "uint256[5]",
                                "value": [
                                    "0",
                                    "9",
                                    "1",
                                    "23",
                                    "0"
                                ]
                            },
                            {
                                "name": "resourcesVelocity",
                                "type": "uint256[5]",
                                "value": [
                                    "44",
                                    "34",
                                    "33",
                                    "27",
                                    "0"
                                ]
                            }
                        ],
                        "signature": "getPlanet(uint256)"
                    },
                    "errorInfo": "",
                    "fromAddress": "0xf0155486a14539f784739be1c02e93f28eb8e960",
                    "gasUsed": 7078,
                    "id": 19,
                    "methodDecoded": true,
                    "operation": "CALL",
                    "output": "0x0000000000000000000000000000000000000000000000000000000000000000000000000000000000000000000000000000000000000000000000005ca9fa22000000000000000000000000000000000000000000000000000000000000000d000000000000000000000000000000000000000000000000000000000000001a00000000000000000000000000000000000000000000000000000000000000000000000000000000000000000000000000000000000000000000000000000009000000000000000000000000000000000000000000000000000000000000000100000000000000000000000000000000000000000000000000000000000000170000000000000000000000000000000000000000000000000000000000000000000000000000000000000000000000000000000000000000000000000000002c00000000000000000000000000000000000000000000000000000000000000220000000000000000000000000000000000000000000000000000000000000021000000000000000000000000000000000000000000000000000000000000001b0000000000000000000000000000000000000000000000000000000000000000",
                    "revert": false,
                    "revertMessage": "",
                    "selector": "0x34efcb8e",
                    "status": true,
                    "value": "0"
                },
                "nodeType": 0
            },
            "2": {
                "invocation": {
                    "address": "0xfc30a1a7a650d10b20500bc10b06ff8f4b650ad2",
                    "callData": "0x0000000000000000000000000000000000000000000000000000000000000027",
                    "decodedMethod": {
                        "callParams": [
                            {
                                "name": "_record",
                                "type": "uint256",
                                "value": "39"
                            }
                        ],
                        "constructorArguments": "",
                        "name": "getUIntValue",
                        "returnParams": [
                            {
                                "name": "",
                                "type": "uint256",
                                "value": "10"
                            }
                        ],
                        "signature": "getUIntValue(uint256)"
                    },
                    "errorInfo": "",
                    "fromAddress": "0xf0155486a14539f784739be1c02e93f28eb8e960",
                    "gasUsed": 588,
                    "id": 2,
                    "methodDecoded": true,
                    "operation": "CALL",
                    "output": "0x000000000000000000000000000000000000000000000000000000000000000a",
                    "revert": false,
                    "revertMessage": "",
                    "selector": "0x64c66395",
                    "status": true,
                    "value": "0"
                },
                "nodeType": 0
            },
            "20": {
                "invocation": {
                    "address": "0x06a6a7af298129e3a2ab396c9c06f91d3c54aba8",
                    "callData": "0x00000000000000000000000001bc604ae9d945f29432eded391513ba587aeda10000000000000000000000000000000000000000000000000000000000016d1200000000000000000000000000000000000000000000000000000000000000020000000000000000000000000000000000000000000000000000000000000043",
                    "decodedMethod": {
                        "callParams": [
                            {
                                "name": "_owner",
                                "type": "address",
                                "value": "0x01bc604ae9d945f29432eded391513ba587aeda1"
                            },
                            {
                                "name": "_planetId",
                                "type": "uint256",
                                "value": "93,458"
                            },
                            {
                                "name": "_resourceId",
                                "type": "uint256",
                                "value": "2"
                            },
                            {
                                "name": "_resourceValue",
                                "type": "uint256",
                                "value": "67"
                            }
                        ],
                        "constructorArguments": "",
                        "name": "spendResourceOnPlanet",
                        "returnParams": [],
                        "signature": "spendResourceOnPlanet(address,uint256,uint256,uint256)"
                    },
                    "errorInfo": "",
                    "fromAddress": "0xf0155486a14539f784739be1c02e93f28eb8e960",
                    "gasUsed": 30764,
                    "id": 20,
                    "methodDecoded": true,
                    "operation": "CALL",
                    "output": "",
                    "revert": false,
                    "revertMessage": "",
                    "selector": "0x189052f1",
                    "status": true,
                    "value": "0"
                },
                "nodeType": 0
            },
            "21": {
                "invocation": {
                    "address": "0xfc30a1a7a650d10b20500bc10b06ff8f4b650ad2",
                    "callData": "0x0000000000000000000000000000000000000000000000000000000000000022",
                    "decodedMethod": {
                        "callParams": [
                            {
                                "name": "_record",
                                "type": "uint256",
                                "value": "34"
                            }
                        ],
                        "constructorArguments": "",
                        "name": "getUIntValue",
                        "returnParams": [
                            {
                                "name": "",
                                "type": "uint256",
                                "value": "1"
                            }
                        ],
                        "signature": "getUIntValue(uint256)"
                    },
                    "errorInfo": "",
                    "fromAddress": "0x06a6a7af298129e3a2ab396c9c06f91d3c54aba8",
                    "gasUsed": 588,
                    "id": 21,
                    "methodDecoded": true,
                    "operation": "CALL",
                    "output": "0x0000000000000000000000000000000000000000000000000000000000000001",
                    "revert": false,
                    "revertMessage": "",
                    "selector": "0x64c66395",
                    "status": true,
                    "value": "0"
                },
                "nodeType": 0
            },
            "22": {
                "invocation": {
                    "address": "0xfc30a1a7a650d10b20500bc10b06ff8f4b650ad2",
                    "callData": "0x0000000000000000000000000000000000000000000000000000000000000011",
                    "decodedMethod": {
                        "callParams": [
                            {
                                "name": "_record",
                                "type": "uint256",
                                "value": "17"
                            }
                        ],
                        "constructorArguments": "",
                        "name": "getUIntValue",
                        "returnParams": [
                            {
                                "name": "",
                                "type": "uint256",
                                "value": "24"
                            }
                        ],
                        "signature": "getUIntValue(uint256)"
                    },
                    "errorInfo": "",
                    "fromAddress": "0x06a6a7af298129e3a2ab396c9c06f91d3c54aba8",
                    "gasUsed": 588,
                    "id": 22,
                    "methodDecoded": true,
                    "operation": "CALL",
                    "output": "0x0000000000000000000000000000000000000000000000000000000000000018",
                    "revert": false,
                    "revertMessage": "",
                    "selector": "0x64c66395",
                    "status": true,
                    "value": "0"
                },
                "nodeType": 0
            },
            "23": {
                "invocation": {
                    "address": "0xfc30a1a7a650d10b20500bc10b06ff8f4b650ad2",
                    "callData": "0x0000000000000000000000000000000000000000000000000000000000000012",
                    "decodedMethod": {
                        "callParams": [
                            {
                                "name": "_record",
                                "type": "uint256",
                                "value": "18"
                            }
                        ],
                        "constructorArguments": "",
                        "name": "getUIntValue",
                        "returnParams": [
                            {
                                "name": "",
                                "type": "uint256",
                                "value": "200"
                            }
                        ],
                        "signature": "getUIntValue(uint256)"
                    },
                    "errorInfo": "",
                    "fromAddress": "0x06a6a7af298129e3a2ab396c9c06f91d3c54aba8",
                    "gasUsed": 588,
                    "id": 23,
                    "methodDecoded": true,
                    "operation": "CALL",
                    "output": "0x00000000000000000000000000000000000000000000000000000000000000c8",
                    "revert": false,
                    "revertMessage": "",
                    "selector": "0x64c66395",
                    "status": true,
                    "value": "0"
                },
                "nodeType": 0
            },
            "24": {
                "invocation": {
                    "address": "0x06a6a7af298129e3a2ab396c9c06f91d3c54aba8",
                    "callData": "0x0000000000000000000000000000000000000000000000000000000000017abf",
                    "decodedMethod": {
                        "callParams": [
                            {
                                "name": "_id",
                                "type": "uint256",
                                "value": "96,959"
                            }
                        ],
                        "constructorArguments": "",
                        "name": "getPlanet",
                        "returnParams": [
                            {
                                "name": "rarity",
                                "type": "uint256",
                                "value": "0"
                            },
                            {
                                "name": "discovered",
                                "type": "uint256",
                                "value": "1,554,909,433"
                            },
                            {
                                "name": "sectorX",
                                "type": "uint256",
                                "value": "15"
                            },
                            {
                                "name": "sectorY",
                                "type": "uint256",
                                "value": "32"
                            },
                            {
                                "name": "resourcesId",
                                "type": "uint256[5]",
                                "value": [
                                    "0",
                                    "1",
                                    "7",
                                    "8",
                                    "0"
                                ]
                            },
                            {
                                "name": "resourcesVelocity",
                                "type": "uint256[5]",
                                "value": [
                                    "27",
                                    "24",
                                    "24",
                                    "27",
                                    "0"
                                ]
                            }
                        ],
                        "signature": "getPlanet(uint256)"
                    },
                    "errorInfo": "",
                    "fromAddress": "0xf0155486a14539f784739be1c02e93f28eb8e960",
                    "gasUsed": 7078,
                    "id": 24,
                    "methodDecoded": true,
                    "operation": "CALL",
                    "output": "0x0000000000000000000000000000000000000000000000000000000000000000000000000000000000000000000000000000000000000000000000005cae08f9000000000000000000000000000000000000000000000000000000000000000f000000000000000000000000000000000000000000000000000000000000002000000000000000000000000000000000000000000000000000000000000000000000000000000000000000000000000000000000000000000000000000000001000000000000000000000000000000000000000000000000000000000000000700000000000000000000000000000000000000000000000000000000000000080000000000000000000000000000000000000000000000000000000000000000000000000000000000000000000000000000000000000000000000000000001b00000000000000000000000000000000000000000000000000000000000000180000000000000000000000000000000000000000000000000000000000000018000000000000000000000000000000000000000000000000000000000000001b0000000000000000000000000000000000000000000000000000000000000000",
                    "revert": false,
                    "revertMessage": "",
                    "selector": "0x34efcb8e",
                    "status": true,
                    "value": "0"
                },
                "nodeType": 0
            },
            "25": {
                "invocation": {
                    "address": "0x06a6a7af298129e3a2ab396c9c06f91d3c54aba8",
                    "callData": "0x00000000000000000000000001bc604ae9d945f29432eded391513ba587aeda10000000000000000000000000000000000000000000000000000000000017abf00000000000000000000000000000000000000000000000000000000000000010000000000000000000000000000000000000000000000000000000000000004",
                    "decodedMethod": {
                        "callParams": [
                            {
                                "name": "_owner",
                                "type": "address",
                                "value": "0x01bc604ae9d945f29432eded391513ba587aeda1"
                            },
                            {
                                "name": "_planetId",
                                "type": "uint256",
                                "value": "96,959"
                            },
                            {
                                "name": "_resourceId",
                                "type": "uint256",
                                "value": "1"
                            },
                            {
                                "name": "_resourceValue",
                                "type": "uint256",
                                "value": "4"
                            }
                        ],
                        "constructorArguments": "",
                        "name": "spendResourceOnPlanet",
                        "returnParams": [],
                        "signature": "spendResourceOnPlanet(address,uint256,uint256,uint256)"
                    },
                    "errorInfo": "",
                    "fromAddress": "0xf0155486a14539f784739be1c02e93f28eb8e960",
                    "gasUsed": 30764,
                    "id": 25,
                    "methodDecoded": true,
                    "operation": "CALL",
                    "output": "",
                    "revert": false,
                    "revertMessage": "",
                    "selector": "0x189052f1",
                    "status": true,
                    "value": "0"
                },
                "nodeType": 0
            },
            "26": {
                "invocation": {
                    "address": "0xfc30a1a7a650d10b20500bc10b06ff8f4b650ad2",
                    "callData": "0x0000000000000000000000000000000000000000000000000000000000000022",
                    "decodedMethod": {
                        "callParams": [
                            {
                                "name": "_record",
                                "type": "uint256",
                                "value": "34"
                            }
                        ],
                        "constructorArguments": "",
                        "name": "getUIntValue",
                        "returnParams": [
                            {
                                "name": "",
                                "type": "uint256",
                                "value": "1"
                            }
                        ],
                        "signature": "getUIntValue(uint256)"
                    },
                    "errorInfo": "",
                    "fromAddress": "0x06a6a7af298129e3a2ab396c9c06f91d3c54aba8",
                    "gasUsed": 588,
                    "id": 26,
                    "methodDecoded": true,
                    "operation": "CALL",
                    "output": "0x0000000000000000000000000000000000000000000000000000000000000001",
                    "revert": false,
                    "revertMessage": "",
                    "selector": "0x64c66395",
                    "status": true,
                    "value": "0"
                },
                "nodeType": 0
            },
            "27": {
                "invocation": {
                    "address": "0xfc30a1a7a650d10b20500bc10b06ff8f4b650ad2",
                    "callData": "0x0000000000000000000000000000000000000000000000000000000000000011",
                    "decodedMethod": {
                        "callParams": [
                            {
                                "name": "_record",
                                "type": "uint256",
                                "value": "17"
                            }
                        ],
                        "constructorArguments": "",
                        "name": "getUIntValue",
                        "returnParams": [
                            {
                                "name": "",
                                "type": "uint256",
                                "value": "24"
                            }
                        ],
                        "signature": "getUIntValue(uint256)"
                    },
                    "errorInfo": "",
                    "fromAddress": "0x06a6a7af298129e3a2ab396c9c06f91d3c54aba8",
                    "gasUsed": 588,
                    "id": 27,
                    "methodDecoded": true,
                    "operation": "CALL",
                    "output": "0x0000000000000000000000000000000000000000000000000000000000000018",
                    "revert": false,
                    "revertMessage": "",
                    "selector": "0x64c66395",
                    "status": true,
                    "value": "0"
                },
                "nodeType": 0
            },
            "28": {
                "invocation": {
                    "address": "0xfc30a1a7a650d10b20500bc10b06ff8f4b650ad2",
                    "callData": "0x0000000000000000000000000000000000000000000000000000000000000012",
                    "decodedMethod": {
                        "callParams": [
                            {
                                "name": "_record",
                                "type": "uint256",
                                "value": "18"
                            }
                        ],
                        "constructorArguments": "",
                        "name": "getUIntValue",
                        "returnParams": [
                            {
                                "name": "",
                                "type": "uint256",
                                "value": "200"
                            }
                        ],
                        "signature": "getUIntValue(uint256)"
                    },
                    "errorInfo": "",
                    "fromAddress": "0x06a6a7af298129e3a2ab396c9c06f91d3c54aba8",
                    "gasUsed": 588,
                    "id": 28,
                    "methodDecoded": true,
                    "operation": "CALL",
                    "output": "0x00000000000000000000000000000000000000000000000000000000000000c8",
                    "revert": false,
                    "revertMessage": "",
                    "selector": "0x64c66395",
                    "status": true,
                    "value": "0"
                },
                "nodeType": 0
            },
            "29": {
                "invocation": {
                    "address": "0xfc30a1a7a650d10b20500bc10b06ff8f4b650ad2",
                    "callData": "0x0000000000000000000000000000000000000000000000000000000000000023",
                    "decodedMethod": {
                        "callParams": [
                            {
                                "name": "_record",
                                "type": "uint256",
                                "value": "35"
                            }
                        ],
                        "constructorArguments": "",
                        "name": "getUIntValue",
                        "returnParams": [
                            {
                                "name": "",
                                "type": "uint256",
                                "value": "150"
                            }
                        ],
                        "signature": "getUIntValue(uint256)"
                    },
                    "errorInfo": "",
                    "fromAddress": "0xf0155486a14539f784739be1c02e93f28eb8e960",
                    "gasUsed": 588,
                    "id": 29,
                    "methodDecoded": true,
                    "operation": "CALL",
                    "output": "0x0000000000000000000000000000000000000000000000000000000000000096",
                    "revert": false,
                    "revertMessage": "",
                    "selector": "0x64c66395",
                    "status": true,
                    "value": "0"
                },
                "nodeType": 0
            },
            "3": {
                "invocation": {
                    "address": "0xfc30a1a7a650d10b20500bc10b06ff8f4b650ad2",
                    "callData": "0x",
                    "decodedMethod": null,
                    "errorInfo": "",
                    "fromAddress": "0xf0155486a14539f784739be1c02e93f28eb8e960",
                    "gasUsed": 495,
                    "id": 3,
                    "methodDecoded": false,
                    "operation": "CALL",
                    "output": "0x0000000000000000000000000000000000000000000000000000000000000001",
                    "revert": false,
                    "revertMessage": "",
                    "selector": "0x55909f87",
                    "status": true,
                    "value": "0"
                },
                "nodeType": 0
            },
            "30": {
                "invocation": {
                    "address": "0x2de440a27d6f4b525d19154dcd0c8d02955585df",
                    "callData": "0x00000000000000000000000001bc604ae9d945f29432eded391513ba587aeda1000000000000000000000000000000000000000000000000000000000000000100000000000000000000000000000000000000000000000000000000000000010000000000000000000000000000000000000000000000000000000000000000000000000000000000000000000000000000000000000000000000000000000000000000000000000000000000000000000000000000000000000000000000000000000000000000000000000000000000000000000000000000000000000000000000000000000000000000000000000000000000000000000000000000006b0000000000000000000000000000000000000000000000000000000000000000000000000000000000000000000000000000000000000000000000000000000000000000000000000000000000000000000000000000000000000000000000000000000000000000000000000000000000000000000000000000000000000000",
                    "decodedMethod": null,
                    "errorInfo": "",
                    "fromAddress": "0xf0155486a14539f784739be1c02e93f28eb8e960",
                    "gasUsed": 11947,
                    "id": 30,
                    "methodDecoded": false,
                    "operation": "CALL",
                    "output": "",
                    "revert": false,
                    "revertMessage": "",
                    "selector": "0xf1982b8f",
                    "status": true,
                    "value": "0"
                },
                "nodeType": 0
            },
            "31": {
                "event": {
                    "contract": "0xf0155486a14539f784739be1c02e93f28eb8e960",
                    "decodedLog": null,
                    "id": 31,
                    "logData": "0x00000000000000000000000000000000000000000000000000000000000000010000000000000000000000000000000000000000000000000000000000000000000000000000000000000000000000000000000000000000000000000000000000000000000000000000000000000000000000000000000000000000000000000000000000000000000000000000000000000000000000000000000000000000000000000000000000000000000000000000000000000000000000000000006b0000000000000000000000000000000000000000000000000000000000000000000000000000000000000000000000000000000000000000000000000000000000000000000000000000000000000000000000000000000000000000000000000000000000000000000000000000000000000000000000000000000000000000",
                    "logDecoded": false,
                    "operation": "EVENT",
                    "revert": false,
                    "status": true,
                    "topics": [
                        "0x2e51558d39b69d76740586d9696240e618222247ce2e77da8a19403029e1b476",
                        "0x00000000000000000000000001bc604ae9d945f29432eded391513ba587aeda1",
                        "0x0000000000000000000000000000000000000000000000000000000000000001",
                        "0x00000000000000000000000000000000000000000000000000000000000023d1"
                    ]
                },
                "nodeType": 1
            },
            "32": {
                "invocation": {
                    "address": "0x06a6a7af298129e3a2ab396c9c06f91d3c54aba8",
                    "callData": "0x00000000000000000000000000000000000000000000000000000000000000150000000000000000000000000000000000000000000000000000000000000025",
                    "decodedMethod": {
                        "callParams": [
                            {
                                "name": "sectorX",
                                "type": "uint256",
                                "value": "21"
                            },
                            {
                                "name": "sectorY",
                                "type": "uint256",
                                "value": "37"
                            }
                        ],
                        "constructorArguments": "",
                        "name": "getDiscoveredPlanetsDensity",
                        "returnParams": [
                            {
                                "name": "",
                                "type": "uint256",
                                "value": "90"
                            }
                        ],
                        "signature": "getDiscoveredPlanetsDensity(uint256,uint256)"
                    },
                    "errorInfo": "",
                    "fromAddress": "0xf0155486a14539f784739be1c02e93f28eb8e960",
                    "gasUsed": 1276,
                    "id": 32,
                    "methodDecoded": true,
                    "operation": "CALL",
                    "output": "0x000000000000000000000000000000000000000000000000000000000000005a",
                    "revert": false,
                    "revertMessage": "",
                    "selector": "0x672815c2",
                    "status": true,
                    "value": "0"
                },
                "nodeType": 0
            },
            "33": {
                "invocation": {
                    "address": "0x06a6a7af298129e3a2ab396c9c06f91d3c54aba8",
                    "callData": "0x00000000000000000000000000000000000000000000000000000000000000140000000000000000000000000000000000000000000000000000000000000024",
                    "decodedMethod": {
                        "callParams": [
                            {
                                "name": "sectorX",
                                "type": "uint256",
                                "value": "20"
                            },
                            {
                                "name": "sectorY",
                                "type": "uint256",
                                "value": "36"
                            }
                        ],
                        "constructorArguments": "",
                        "name": "getDiscoveredPlanetsDensity",
                        "returnParams": [
                            {
                                "name": "",
                                "type": "uint256",
                                "value": "91"
                            }
                        ],
                        "signature": "getDiscoveredPlanetsDensity(uint256,uint256)"
                    },
                    "errorInfo": "",
                    "fromAddress": "0xf0155486a14539f784739be1c02e93f28eb8e960",
                    "gasUsed": 1276,
                    "id": 33,
                    "methodDecoded": true,
                    "operation": "CALL",
                    "output": "0x000000000000000000000000000000000000000000000000000000000000005b",
                    "revert": false,
                    "revertMessage": "",
                    "selector": "0x672815c2",
                    "status": true,
                    "value": "0"
                },
                "nodeType": 0
            },
            "34": {
                "invocation": {
                    "address": "0xfc30a1a7a650d10b20500bc10b06ff8f4b650ad2",
                    "callData": "0x000000000000000000000000000000000000000000000000000000000000002a",
                    "decodedMethod": {
                        "callParams": [
                            {
                                "name": "_record",
                                "type": "uint256",
                                "value": "42"
                            }
                        ],
                        "constructorArguments": "",
                        "name": "getUIntValue",
                        "returnParams": [
                            {
                                "name": "",
                                "type": "uint256",
                                "value": "30"
                            }
                        ],
                        "signature": "getUIntValue(uint256)"
                    },
                    "errorInfo": "",
                    "fromAddress": "0xf0155486a14539f784739be1c02e93f28eb8e960",
                    "gasUsed": 588,
                    "id": 34,
                    "methodDecoded": true,
                    "operation": "CALL",
                    "output": "0x000000000000000000000000000000000000000000000000000000000000001e",
                    "revert": false,
                    "revertMessage": "",
                    "selector": "0x64c66395",
                    "status": true,
                    "value": "0"
                },
                "nodeType": 0
            },
            "35": {
                "invocation": {
                    "address": "0xfc30a1a7a650d10b20500bc10b06ff8f4b650ad2",
                    "callData": "0x000000000000000000000000000000000000000000000000000000000000000c",
                    "decodedMethod": {
                        "callParams": [
                            {
                                "name": "_record",
                                "type": "uint256",
                                "value": "12"
                            }
                        ],
                        "constructorArguments": "",
                        "name": "getUIntValue",
                        "returnParams": [
                            {
                                "name": "",
                                "type": "uint256",
                                "value": "10"
                            }
                        ],
                        "signature": "getUIntValue(uint256)"
                    },
                    "errorInfo": "",
                    "fromAddress": "0xf0155486a14539f784739be1c02e93f28eb8e960",
                    "gasUsed": 588,
                    "id": 35,
                    "methodDecoded": true,
                    "operation": "CALL",
                    "output": "0x000000000000000000000000000000000000000000000000000000000000000a",
                    "revert": false,
                    "revertMessage": "",
                    "selector": "0x64c66395",
                    "status": true,
                    "value": "0"
                },
                "nodeType": 0
            },
            "36": {
                "invocation": {
                    "address": "0x06a6a7af298129e3a2ab396c9c06f91d3c54aba8",
                    "callData": "0x00000000000000000000000000000000000000000000000000000000000000140000000000000000000000000000000000000000000000000000000000000024",
                    "decodedMethod": {
                        "callParams": [
                            {
                                "name": "sectorX",
                                "type": "uint256",
                                "value": "20"
                            },
                            {
                                "name": "sectorY",
                                "type": "uint256",
                                "value": "36"
                            }
                        ],
                        "constructorArguments": "",
                        "name": "getDiscoveredPlanetsDensity",
                        "returnParams": [
                            {
                                "name": "",
                                "type": "uint256",
                                "value": "91"
                            }
                        ],
                        "signature": "getDiscoveredPlanetsDensity(uint256,uint256)"
                    },
                    "errorInfo": "",
                    "fromAddress": "0xf0155486a14539f784739be1c02e93f28eb8e960",
                    "gasUsed": 1276,
                    "id": 36,
                    "methodDecoded": true,
                    "operation": "CALL",
                    "output": "0x000000000000000000000000000000000000000000000000000000000000005b",
                    "revert": false,
                    "revertMessage": "",
                    "selector": "0x672815c2",
                    "status": true,
                    "value": "0"
                },
                "nodeType": 0
            },
            "37": {
                "invocation": {
                    "address": "0x06a6a7af298129e3a2ab396c9c06f91d3c54aba8",
                    "callData": "0x00000000000000000000000000000000000000000000000000000000000000150000000000000000000000000000000000000000000000000000000000000025",
                    "decodedMethod": {
                        "callParams": [
                            {
                                "name": "sectorX",
                                "type": "uint256",
                                "value": "21"
                            },
                            {
                                "name": "sectorY",
                                "type": "uint256",
                                "value": "37"
                            }
                        ],
                        "constructorArguments": "",
                        "name": "getDiscoveredPlanetsDensity",
                        "returnParams": [
                            {
                                "name": "",
                                "type": "uint256",
                                "value": "90"
                            }
                        ],
                        "signature": "getDiscoveredPlanetsDensity(uint256,uint256)"
                    },
                    "errorInfo": "",
                    "fromAddress": "0xf0155486a14539f784739be1c02e93f28eb8e960",
                    "gasUsed": 1276,
                    "id": 37,
                    "methodDecoded": true,
                    "operation": "CALL",
                    "output": "0x000000000000000000000000000000000000000000000000000000000000005a",
                    "revert": false,
                    "revertMessage": "",
                    "selector": "0x672815c2",
                    "status": true,
                    "value": "0"
                },
                "nodeType": 0
            },
            "38": {
                "invocation": {
                    "address": "0xfc30a1a7a650d10b20500bc10b06ff8f4b650ad2",
                    "callData": "0x0000000000000000000000000000000000000000000000000000000000000008",
                    "decodedMethod": null,
                    "errorInfo": "",
                    "fromAddress": "0xf0155486a14539f784739be1c02e93f28eb8e960",
                    "gasUsed": 1788,
                    "id": 38,
                    "methodDecoded": false,
                    "operation": "CALL",
                    "output": "0x000000000000000000000000000000000000000000000000000000000000004600000000000000000000000000000000000000000000000000000000000000640000000000000000000000000000000000000000000000000000000000000082",
                    "revert": false,
                    "revertMessage": "",
                    "selector": "0xe4c5efe9",
                    "status": true,
                    "value": "0"
                },
                "nodeType": 0
            },
            "39": {
                "invocation": {
                    "address": "0xfc30a1a7a650d10b20500bc10b06ff8f4b650ad2",
                    "callData": "0x0000000000000000000000000000000000000000000000000000000000000028",
                    "decodedMethod": {
                        "callParams": [
                            {
                                "name": "_record",
                                "type": "uint256",
                                "value": "40"
                            }
                        ],
                        "constructorArguments": "",
                        "name": "getUIntValue",
                        "returnParams": [
                            {
                                "name": "",
                                "type": "uint256",
                                "value": "7"
                            }
                        ],
                        "signature": "getUIntValue(uint256)"
                    },
                    "errorInfo": "",
                    "fromAddress": "0xf0155486a14539f784739be1c02e93f28eb8e960",
                    "gasUsed": 588,
                    "id": 39,
                    "methodDecoded": true,
                    "operation": "CALL",
                    "output": "0x0000000000000000000000000000000000000000000000000000000000000007",
                    "revert": false,
                    "revertMessage": "",
                    "selector": "0x64c66395",
                    "status": true,
                    "value": "0"
                },
                "nodeType": 0
            },
            "4": {
                "invocation": {
                    "address": "0xe658e6eb4b478da2cf36d9e3712ba0c1b33786a1",
                    "callData": "0x00000000000000000000000001bc604ae9d945f29432eded391513ba587aeda1000000000000000000000000000000000000000000000000000000000000000a",
                    "decodedMethod": null,
                    "errorInfo": "",
                    "fromAddress": "0xf0155486a14539f784739be1c02e93f28eb8e960",
                    "gasUsed": 1646,
                    "id": 4,
                    "methodDecoded": false,
                    "operation": "CALL",
                    "output": "",
                    "revert": false,
                    "revertMessage": "",
                    "selector": "0x9adbf583",
                    "status": true,
                    "value": "0"
                },
                "nodeType": 0
            },
            "40": {
                "invocation": {
                    "address": "0xfc30a1a7a650d10b20500bc10b06ff8f4b650ad2",
                    "callData": "0x0000000000000000000000000000000000000000000000000000000000000000",
                    "decodedMethod": null,
                    "errorInfo": "",
                    "fromAddress": "0xf0155486a14539f784739be1c02e93f28eb8e960",
                    "gasUsed": 1466,
                    "id": 40,
                    "methodDecoded": false,
                    "operation": "CALL",
                    "output": "0x000000000000000000000000000000000000000000000000000000000000000a00000000000000000000000000000000000000000000000000000000000000020000000000000000000000000000000000000000000000000000000000000064",
                    "revert": false,
                    "revertMessage": "",
                    "selector": "0x2292bc1e",
                    "status": true,
                    "value": "0"
                },
                "nodeType": 0
            },
            "41": {
                "invocation": {
                    "address": "0xfc30a1a7a650d10b20500bc10b06ff8f4b650ad2",
                    "callData": "0x0000000000000000000000000000000000000000000000000000000000000006",
                    "decodedMethod": null,
                    "errorInfo": "",
                    "fromAddress": "0xf0155486a14539f784739be1c02e93f28eb8e960",
                    "gasUsed": 1466,
                    "id": 41,
                    "methodDecoded": false,
                    "operation": "CALL",
                    "output": "0x000000000000000000000000000000000000000000000000000000000000002b00000000000000000000000000000000000000000000000000000000000000190000000000000000000000000000000000000000000000000000000000000307",
                    "revert": false,
                    "revertMessage": "",
                    "selector": "0x2292bc1e",
                    "status": true,
                    "value": "0"
                },
                "nodeType": 0
            },
            "42": {
                "invocation": {
                    "address": "0xfc30a1a7a650d10b20500bc10b06ff8f4b650ad2",
                    "callData": "0x0000000000000000000000000000000000000000000000000000000000000009",
                    "decodedMethod": null,
                    "errorInfo": "",
                    "fromAddress": "0xf0155486a14539f784739be1c02e93f28eb8e960",
                    "gasUsed": 1375,
                    "id": 42,
                    "methodDecoded": false,
                    "operation": "CALL",
                    "output": "0x000000000000000000000000000000000000000000000000000000000000012d00000000000000000000000000000000000000000000000000000000000002f8",
                    "revert": false,
                    "revertMessage": "",
                    "selector": "0xbe8fb1c1",
                    "status": true,
                    "value": "0"
                },
                "nodeType": 0
            },
            "43": {
                "invocation": {
                    "address": "0xfc30a1a7a650d10b20500bc10b06ff8f4b650ad2",
                    "callData": "0x000000000000000000000000000000000000000000000000000000000000000a",
                    "decodedMethod": null,
                    "errorInfo": "",
                    "fromAddress": "0xf0155486a14539f784739be1c02e93f28eb8e960",
                    "gasUsed": 1375,
                    "id": 43,
                    "methodDecoded": false,
                    "operation": "CALL",
                    "output": "0x00000000000000000000000000000000000000000000000000000000000000330000000000000000000000000000000000000000000000000000000000000104",
                    "revert": false,
                    "revertMessage": "",
                    "selector": "0xbe8fb1c1",
                    "status": true,
                    "value": "0"
                },
                "nodeType": 0
            },
            "44": {
                "invocation": {
                    "address": "0xfc30a1a7a650d10b20500bc10b06ff8f4b650ad2",
                    "callData": "0x000000000000000000000000000000000000000000000000000000000000000b",
                    "decodedMethod": null,
                    "errorInfo": "",
                    "fromAddress": "0xf0155486a14539f784739be1c02e93f28eb8e960",
                    "gasUsed": 1375,
                    "id": 44,
                    "methodDecoded": false,
                    "operation": "CALL",
                    "output": "0x0000000000000000000000000000000000000000000000000000000000000001000000000000000000000000000000000000000000000000000000000000000a",
                    "revert": false,
                    "revertMessage": "",
                    "selector": "0xbe8fb1c1",
                    "status": true,
                    "value": "0"
                },
                "nodeType": 0
            },
            "45": {
                "invocation": {
                    "address": "0xfc30a1a7a650d10b20500bc10b06ff8f4b650ad2",
                    "callData": "0x0000000000000000000000000000000000000000000000000000000000000025",
                    "decodedMethod": null,
                    "errorInfo": "",
                    "fromAddress": "0xf0155486a14539f784739be1c02e93f28eb8e960",
                    "gasUsed": 1375,
                    "id": 45,
                    "methodDecoded": false,
                    "operation": "CALL",
                    "output": "0x00000000000000000000000000000000000000000000000000000000000000000000000000000000000000000000000000000000000000000000000000000000",
                    "revert": false,
                    "revertMessage": "",
                    "selector": "0xbe8fb1c1",
                    "status": true,
                    "value": "0"
                },
                "nodeType": 0
            },
            "46": {
                "invocation": {
                    "address": "0xfc30a1a7a650d10b20500bc10b06ff8f4b650ad2",
                    "callData": "0x0000000000000000000000000000000000000000000000000000000000000024",
                    "decodedMethod": null,
                    "errorInfo": "",
                    "fromAddress": "0xf0155486a14539f784739be1c02e93f28eb8e960",
                    "gasUsed": 1375,
                    "id": 46,
                    "methodDecoded": false,
                    "operation": "CALL",
                    "output": "0x000000000000000000000000000000000000000000000000000000000000003c000000000000000000000000000000000000000000000000000000000000005a",
                    "revert": false,
                    "revertMessage": "",
                    "selector": "0xbe8fb1c1",
                    "status": true,
                    "value": "0"
                },
                "nodeType": 0
            },
            "47": {
                "invocation": {
                    "address": "0x06a6a7af298129e3a2ab396c9c06f91d3c54aba8",
                    "callData": "0x00000000000000000000000001bc604ae9d945f29432eded391513ba587aeda10000000000000000000000000000000000000000000000000000000000000000000000000000000000000000000000000000000000000000000000000000001400000000000000000000000000000000000000000000000000000000000000240000000000000000000000000000000000000000000000000000000000000042",
                    "decodedMethod": {
                        "callParams": [
                            {
                                "name": "_owner",
                                "type": "address",
                                "value": "0x01bc604ae9d945f29432eded391513ba587aeda1"
                            },
                            {
                                "name": "_rarity",
                                "type": "uint256",
                                "value": "0"
                            },
                            {
                                "name": "_sectorX",
                                "type": "uint256",
                                "value": "20"
                            },
                            {
                                "name": "_sectorY",
                                "type": "uint256",
                                "value": "36"
                            },
                            {
                                "name": "_startPopulation",
                                "type": "uint256",
                                "value": "66"
                            }
                        ],
                        "constructorArguments": "",
                        "name": "createPlanet",
                        "returnParams": [
                            {
                                "name": "",
                                "type": "uint256",
                                "value": "97,927"
                            }
                        ],
                        "signature": "createPlanet(address,uint256,uint256,uint256,uint256)"
                    },
                    "errorInfo": "",
                    "fromAddress": "0xf0155486a14539f784739be1c02e93f28eb8e960",
                    "gasUsed": 250833,
                    "id": 47,
                    "methodDecoded": true,
                    "operation": "CALL",
                    "output": "0x0000000000000000000000000000000000000000000000000000000000017e87",
                    "revert": false,
                    "revertMessage": "",
                    "selector": "0xc58b1bdd",
                    "status": true,
                    "value": "0"
                },
                "nodeType": 0
            },
            "48": {
                "invocation": {
                    "address": "0x340113cd9eceedc5ae1f08bc391f120daf53277a",
                    "callData": "0x0000000000000000000000000000000000000000000000000000000000000000",
                    "decodedMethod": null,
                    "errorInfo": "",
                    "fromAddress": "0x06a6a7af298129e3a2ab396c9c06f91d3c54aba8",
                    "gasUsed": 64634,
                    "id": 48,
                    "methodDecoded": false,
                    "operation": "CALL",
                    "output": "0x00000000000000000000000000000000000000000000000000000000000000000000000000000000000000000000000000000000000000000000000000000001000000000000000000000000000000000000000000000000000000000000000500000000000000000000000000000000000000000000000000000000000000090000000000000000000000000000000000000000000000000000000000000000000000000000000000000000000000000000000000000000000000000000001b0000000000000000000000000000000000000000000000000000000000000018000000000000000000000000000000000000000000000000000000000000001f000000000000000000000000000000000000000000000000000000000000001b0000000000000000000000000000000000000000000000000000000000000000",
                    "revert": false,
                    "revertMessage": "",
                    "selector": "0x570bb139",
                    "status": true,
                    "value": "0"
                },
                "nodeType": 0
            },
            "49": {
                "invocation": {
                    "address": "0xfc30a1a7a650d10b20500bc10b06ff8f4b650ad2",
                    "callData": "0x000000000000000000000000000000000000000000000000000000000000000d",
                    "decodedMethod": null,
                    "errorInfo": "",
                    "fromAddress": "0x340113cd9eceedc5ae1f08bc391f120daf53277a",
                    "gasUsed": 1375,
                    "id": 49,
                    "methodDecoded": false,
                    "operation": "CALL",
                    "output": "0x00000000000000000000000000000000000000000000000000000000000000140000000000000000000000000000000000000000000000000000000000000028",
                    "revert": false,
                    "revertMessage": "",
                    "selector": "0xbe8fb1c1",
                    "status": true,
                    "value": "0"
                },
                "nodeType": 0
            },
            "5": {
                "invocation": {
                    "address": "0x06a6a7af298129e3a2ab396c9c06f91d3c54aba8",
                    "callData": "0x00000000000000000000000000000000000000000000000000000000000023d1",
                    "decodedMethod": {
                        "callParams": [
                            {
                                "name": "_id",
                                "type": "uint256",
                                "value": "9,169"
                            }
                        ],
                        "constructorArguments": "",
                        "name": "getPlanet",
                        "returnParams": [
                            {
                                "name": "rarity",
                                "type": "uint256",
                                "value": "0"
                            },
                            {
                                "name": "discovered",
                                "type": "uint256",
                                "value": "1,536,608,001"
                            },
                            {
                                "name": "sectorX",
                                "type": "uint256",
                                "value": "20"
                            },
                            {
                                "name": "sectorY",
                                "type": "uint256",
                                "value": "36"
                            },
                            {
                                "name": "resourcesId",
                                "type": "uint256[5]",
                                "value": [
                                    "0",
                                    "9",
                                    "2",
                                    "5",
                                    "0"
                                ]
                            },
                            {
                                "name": "resourcesVelocity",
                                "type": "uint256[5]",
                                "value": [
                                    "46",
                                    "25",
                                    "31",
                                    "34",
                                    "0"
                                ]
                            }
                        ],
                        "signature": "getPlanet(uint256)"
                    },
                    "errorInfo": "",
                    "fromAddress": "0xf0155486a14539f784739be1c02e93f28eb8e960",
                    "gasUsed": 7078,
                    "id": 5,
                    "methodDecoded": true,
                    "operation": "CALL",
                    "output": "0x0000000000000000000000000000000000000000000000000000000000000000000000000000000000000000000000000000000000000000000000005b96c7010000000000000000000000000000000000000000000000000000000000000014000000000000000000000000000000000000000000000000000000000000002400000000000000000000000000000000000000000000000000000000000000000000000000000000000000000000000000000000000000000000000000000009000000000000000000000000000000000000000000000000000000000000000200000000000000000000000000000000000000000000000000000000000000050000000000000000000000000000000000000000000000000000000000000000000000000000000000000000000000000000000000000000000000000000002e0000000000000000000000000000000000000000000000000000000000000019000000000000000000000000000000000000000000000000000000000000001f00000000000000000000000000000000000000000000000000000000000000220000000000000000000000000000000000000000000000000000000000000000",
                    "revert": false,
                    "revertMessage": "",
                    "selector": "0x34efcb8e",
                    "status": true,
                    "value": "0"
                },
                "nodeType": 0
            },
            "50": {
                "invocation": {
                    "address": "0xfc30a1a7a650d10b20500bc10b06ff8f4b650ad2",
                    "callData": "0x000000000000000000000000000000000000000000000000000000000000000e",
                    "decodedMethod": {
                        "callParams": [
                            {
                                "name": "_record",
                                "type": "uint256",
                                "value": "14"
                            }
                        ],
                        "constructorArguments": "",
                        "name": "getUIntValue",
                        "returnParams": [
                            {
                                "name": "",
                                "type": "uint256",
                                "value": "120"
                            }
                        ],
                        "signature": "getUIntValue(uint256)"
                    },
                    "errorInfo": "",
                    "fromAddress": "0x340113cd9eceedc5ae1f08bc391f120daf53277a",
                    "gasUsed": 588,
                    "id": 50,
                    "methodDecoded": true,
                    "operation": "CALL",
                    "output": "0x0000000000000000000000000000000000000000000000000000000000000078",
                    "revert": false,
                    "revertMessage": "",
                    "selector": "0x64c66395",
                    "status": true,
                    "value": "0"
                },
                "nodeType": 0
            },
            "51": {
                "invocation": {
                    "address": "0xfc30a1a7a650d10b20500bc10b06ff8f4b650ad2",
                    "callData": "0x0000000000000000000000000000000000000000000000000000000000000000",
                    "decodedMethod": null,
                    "errorInfo": "",
                    "fromAddress": "0x340113cd9eceedc5ae1f08bc391f120daf53277a",
                    "gasUsed": 871,
                    "id": 51,
                    "methodDecoded": false,
                    "operation": "CALL",
                    "output": "0x0000000000000000000000000000000000000000000000000000000000000001000000000000000000000000000000000000000000000000000000000000000a",
                    "revert": false,
                    "revertMessage": "",
                    "selector": "0xccf9bbb6",
                    "status": true,
                    "value": "0"
                },
                "nodeType": 0
            },
            "52": {
                "invocation": {
                    "address": "0xfc30a1a7a650d10b20500bc10b06ff8f4b650ad2",
                    "callData": "0x0000000000000000000000000000000000000000000000000000000000000010",
                    "decodedMethod": {
                        "callParams": [
                            {
                                "name": "_record",
                                "type": "uint256",
                                "value": "16"
                            }
                        ],
                        "constructorArguments": "",
                        "name": "getUIntValue",
                        "returnParams": [
                            {
                                "name": "",
                                "type": "uint256",
                                "value": "150"
                            }
                        ],
                        "signature": "getUIntValue(uint256)"
                    },
                    "errorInfo": "",
                    "fromAddress": "0x340113cd9eceedc5ae1f08bc391f120daf53277a",
                    "gasUsed": 588,
                    "id": 52,
                    "methodDecoded": true,
                    "operation": "CALL",
                    "output": "0x0000000000000000000000000000000000000000000000000000000000000096",
                    "revert": false,
                    "revertMessage": "",
                    "selector": "0x64c66395",
                    "status": true,
                    "value": "0"
                },
                "nodeType": 0
            },
            "53": {
                "invocation": {
                    "address": "0xfc30a1a7a650d10b20500bc10b06ff8f4b650ad2",
                    "callData": "0x000000000000000000000000000000000000000000000000000000000000000f",
                    "decodedMethod": null,
                    "errorInfo": "",
                    "fromAddress": "0x340113cd9eceedc5ae1f08bc391f120daf53277a",
                    "gasUsed": 1375,
                    "id": 53,
                    "methodDecoded": false,
                    "operation": "CALL",
                    "output": "0x000000000000000000000000000000000000000000000000000000000000000f0000000000000000000000000000000000000000000000000000000000000019",
                    "revert": false,
                    "revertMessage": "",
                    "selector": "0xbe8fb1c1",
                    "status": true,
                    "value": "0"
                },
                "nodeType": 0
            },
            "54": {
                "event": {
                    "contract": "0x06a6a7af298129e3a2ab396c9c06f91d3c54aba8",
                    "decodedLog": {
                        "name": "PlanetCreated",
                        "params": [
                            {
                                "name": "owner",
                                "type": "address",
                                "value": "0x01bc604ae9d945f29432eded391513ba587aeda1"
                            },
                            {
                                "name": "planetId",
                                "type": "uint256",
                                "value": "97,927"
                            },
                            {
                                "name": "sectorX",
                                "type": "uint256",
                                "value": "20"
                            },
                            {
                                "name": "sectorY",
                                "type": "uint256",
                                "value": "36"
                            },
                            {
                                "name": "rarity",
                                "type": "uint256",
                                "value": "0"
                            },
                            {
                                "name": "resourcesId",
                                "type": "uint256[5]",
                                "value": [
                                    "0",
                                    "1",
                                    "5",
                                    "9",
                                    "0"
                                ]
                            },
                            {
                                "name": "resourcesVelocity",
                                "type": "uint256[5]",
                                "value": [
                                    "27",
                                    "24",
                                    "31",
                                    "27",
                                    "0"
                                ]
                            },
                            {
                                "name": "startPopulation",
                                "type": "uint256",
                                "value": "66"
                            }
                        ],
                        "signature": "PlanetCreated(address,uint256,uint256,uint256,uint256,uint256[5],uint256[5],uint256)"
                    },
                    "id": 54,
                    "logData": "0x00000000000000000000000000000000000000000000000000000000000000140000000000000000000000000000000000000000000000000000000000000024000000000000000000000000000000000000000000000000000000000000000000000000000000000000000000000000000000000000000000000000000000000000000000000000000000000000000000000000000000000000000000000001000000000000000000000000000000000000000000000000000000000000000500000000000000000000000000000000000000000000000000000000000000090000000000000000000000000000000000000000000000000000000000000000000000000000000000000000000000000000000000000000000000000000001b0000000000000000000000000000000000000000000000000000000000000018000000000000000000000000000000000000000000000000000000000000001f000000000000000000000000000000000000000000000000000000000000001b00000000000000000000000000000000000000000000000000000000000000000000000000000000000000000000000000000000000000000000000000000042",
                    "logDecoded": true,
                    "operation": "EVENT",
                    "revert": false,
                    "status": true,
                    "topics": [
                        "0xf54657dd54b8d60149296317ff8dd81a5f9d0ed22aa82d92db76bc5ce97973c4",
                        "0x00000000000000000000000001bc604ae9d945f29432eded391513ba587aeda1",
                        "0x0000000000000000000000000000000000000000000000000000000000017e87"
                    ]
                },
                "nodeType": 1
            },
            "55": {
                "event": {
                    "contract": "0x06a6a7af298129e3a2ab396c9c06f91d3c54aba8",
                    "decodedLog": {
                        "name": "Transfer",
                        "params": [
                            {
                                "name": "_from",
                                "type": "address",
                                "value": "0x0000000000000000000000000000000000000000"
                            },
                            {
                                "name": "_to",
                                "type": "address",
                                "value": "0x01bc604ae9d945f29432eded391513ba587aeda1"
                            },
                            {
                                "decimalAvailable": true,
                                "name": "_tokenId",
                                "type": "uint256",
                                "value": "97,927"
                            }
                        ],
                        "signature": "Transfer(address,address,uint256)"
                    },
                    "id": 55,
                    "logData": "0x0000000000000000000000000000000000000000000000000000000000017e87",
                    "logDecoded": true,
                    "operation": "EVENT",
                    "revert": false,
                    "status": true,
                    "topics": [
                        "0xddf252ad1be2c89b69c2b068fc378daa952ba7f163c4a11628f55a4df523b3ef",
                        "0x0000000000000000000000000000000000000000000000000000000000000000",
                        "0x00000000000000000000000001bc604ae9d945f29432eded391513ba587aeda1"
                    ]
                },
                "nodeType": 1
            },
            "6": {
                "invocation": {
                    "address": "0x06a6a7af298129e3a2ab396c9c06f91d3c54aba8",
                    "callData": "0x00000000000000000000000000000000000000000000000000000000000023d1",
                    "decodedMethod": {
                        "callParams": [
                            {
                                "name": "_tokenId",
                                "type": "uint256",
                                "value": "9,169"
                            }
                        ],
                        "constructorArguments": "",
                        "name": "ownerOf",
                        "returnParams": [
                            {
                                "name": "",
                                "type": "address",
                                "value": "0x75298d6fd0757dadcfe18a106023efa195f741e6"
                            }
                        ],
                        "signature": "ownerOf(uint256)"
                    },
                    "errorInfo": "",
                    "fromAddress": "0xf0155486a14539f784739be1c02e93f28eb8e960",
                    "gasUsed": 1277,
                    "id": 6,
                    "methodDecoded": true,
                    "operation": "CALL",
                    "output": "0x00000000000000000000000075298d6fd0757dadcfe18a106023efa195f741e6",
                    "revert": false,
                    "revertMessage": "",
                    "selector": "0x6352211e",
                    "status": true,
                    "value": "0"
                },
                "nodeType": 0
            },
            "7": {
                "invocation": {
                    "address": "0x2de440a27d6f4b525d19154dcd0c8d02955585df",
                    "callData": "0x00000000000000000000000001bc604ae9d945f29432eded391513ba587aeda10000000000000000000000000000000000000000000000000000000000000001",
                    "decodedMethod": null,
                    "errorInfo": "",
                    "fromAddress": "0xf0155486a14539f784739be1c02e93f28eb8e960",
                    "gasUsed": 4414,
                    "id": 7,
                    "methodDecoded": false,
                    "operation": "CALL",
                    "output": "0x000000000000000000000000000000000000000000000000000000000000000a0000000000000000000000000000000000000000000000000000000000000002000000000000000000000000000000000000000000000000000000000000006400000000000000000000000000000000000000000000000000000000000000000000000000000000000000000000000000000000000000000000000000000001000000000000000000000000000000000000000000000000000000000000000000000000000000000000000000000000000000000000000000000000000000000000000000000000000000000000000000000000000000000000000000000000000000000000000000000000000000000000000000000000000000000000000000000000000000000000000000000000000000000000000000000000000000470000000000000000000000000000000000000000000000000000000000000000000000000000000000000000000000000000000000000000000000000000000000000000000000000000000000000000000000000000000000000000000000000000000000000000000000000000000000000000000000000000000000000000",
                    "revert": false,
                    "revertMessage": "",
                    "selector": "0x655990ec",
                    "status": true,
                    "value": "0"
                },
                "nodeType": 0
            },
            "8": {
                "invocation": {
                    "address": "0x06a6a7af298129e3a2ab396c9c06f91d3c54aba8",
                    "callData": "0x00000000000000000000000000000000000000000000000000000000000023d1",
                    "decodedMethod": {
                        "callParams": [
                            {
                                "name": "_planetId",
                                "type": "uint256",
                                "value": "9,169"
                            }
                        ],
                        "constructorArguments": "",
                        "name": "getPlanetCurrentResources",
                        "returnParams": [
                            {
                                "name": "",
                                "type": "uint256[5]",
                                "value": [
                                    "6,100",
                                    "3,504",
                                    "5,393",
                                    "5,923",
                                    "0"
                                ]
                            }
                        ],
                        "signature": "getPlanetCurrentResources(uint256)"
                    },
                    "errorInfo": "",
                    "fromAddress": "0xf0155486a14539f784739be1c02e93f28eb8e960",
                    "gasUsed": 14151,
                    "id": 8,
                    "methodDecoded": true,
                    "operation": "CALL",
                    "output": "0x00000000000000000000000000000000000000000000000000000000000017d40000000000000000000000000000000000000000000000000000000000000db0000000000000000000000000000000000000000000000000000000000000151100000000000000000000000000000000000000000000000000000000000017230000000000000000000000000000000000000000000000000000000000000000",
                    "revert": false,
                    "revertMessage": "",
                    "selector": "0x3e573168",
                    "status": true,
                    "value": "0"
                },
                "nodeType": 0
            },
            "9": {
                "invocation": {
                    "address": "0xfc30a1a7a650d10b20500bc10b06ff8f4b650ad2",
                    "callData": "0x0000000000000000000000000000000000000000000000000000000000000022",
                    "decodedMethod": {
                        "callParams": [
                            {
                                "name": "_record",
                                "type": "uint256",
                                "value": "34"
                            }
                        ],
                        "constructorArguments": "",
                        "name": "getUIntValue",
                        "returnParams": [
                            {
                                "name": "",
                                "type": "uint256",
                                "value": "1"
                            }
                        ],
                        "signature": "getUIntValue(uint256)"
                    },
                    "errorInfo": "",
                    "fromAddress": "0x06a6a7af298129e3a2ab396c9c06f91d3c54aba8",
                    "gasUsed": 588,
                    "id": 9,
                    "methodDecoded": true,
                    "operation": "CALL",
                    "output": "0x0000000000000000000000000000000000000000000000000000000000000001",
                    "revert": false,
                    "revertMessage": "",
                    "selector": "0x64c66395",
                    "status": true,
                    "value": "0"
                },
                "nodeType": 0
            }
        },
        "gasFlame": [
            {
                "children": [
                    {
                        "children": [
                            {
                                "children": [],
                                "depth": 0,
                                "name": "Initial Gas",
                                "value": 24792
                            },
                            {
                                "children": [
                                    {
                                        "children": [
                                            {
                                                "children": [],
                                                "depth": 2,
                                                "name": "getUIntValue",
                                                "value": 588
                                            },
                                            {
                                                "children": [],
                                                "depth": 2,
                                                "name": "0x55909f87",
                                                "value": 495
                                            },
                                            {
                                                "children": [],
                                                "depth": 2,
                                                "name": "0x9adbf583",
                                                "value": 1646
                                            },
                                            {
                                                "children": [],
                                                "depth": 2,
                                                "name": "getPlanet",
                                                "value": 7078
                                            },
                                            {
                                                "children": [],
                                                "depth": 2,
                                                "name": "ownerOf",
                                                "value": 1277
                                            },
                                            {
                                                "children": [],
                                                "depth": 2,
                                                "name": "0x655990ec",
                                                "value": 4414
                                            },
                                            {
                                                "children": [
                                                    {
                                                        "children": [],
                                                        "depth": 3,
                                                        "name": "getUIntValue",
                                                        "value": 588
                                                    },
                                                    {
                                                        "children": [],
                                                        "depth": 3,
                                                        "name": "getUIntValue",
                                                        "value": 588
                                                    }
                                                ],
                                                "depth": 2,
                                                "name": "getPlanetCurrentResources",
                                                "value": 14151
                                            },
                                            {
                                                "children": [
                                                    {
                                                        "children": [],
                                                        "depth": 3,
                                                        "name": "getRentPrice",
                                                        "value": 456
                                                    }
                                                ],
                                                "depth": 2,
                                                "name": "getRentPrice",
                                                "value": 2035
                                            },
                                            {
                                                "children": [],
                                                "depth": 2,
                                                "name": "fallback",
                                                "value": 0
                                            },
                                            {
                                                "children": [],
                                                "depth": 2,
                                                "name": "fallback",
                                                "value": 0
                                            },
                                            {
                                                "children": [
                                                    {
                                                        "children": [],
                                                        "depth": 3,
                                                        "name": "getUIntValue",
                                                        "value": 588
                                                    },
                                                    {
                                                        "children": [],
                                                        "depth": 3,
                                                        "name": "getUIntValue",
                                                        "value": 588
                                                    },
                                                    {
                                                        "children": [],
                                                        "depth": 3,
                                                        "name": "getUIntValue",
                                                        "value": 588
                                                    }
                                                ],
                                                "depth": 2,
                                                "name": "spendResourceOnPlanet",
                                                "value": 30769
                                            },
                                            {
                                                "children": [],
                                                "depth": 2,
                                                "name": "getPlanet",
                                                "value": 7078
                                            },
                                            {
                                                "children": [
                                                    {
                                                        "children": [],
                                                        "depth": 3,
                                                        "name": "getUIntValue",
                                                        "value": 588
                                                    },
                                                    {
                                                        "children": [],
                                                        "depth": 3,
                                                        "name": "getUIntValue",
                                                        "value": 588
                                                    },
                                                    {
                                                        "children": [],
                                                        "depth": 3,
                                                        "name": "getUIntValue",
                                                        "value": 588
                                                    }
                                                ],
                                                "depth": 2,
                                                "name": "spendResourceOnPlanet",
                                                "value": 30764
                                            },
                                            {
                                                "children": [],
                                                "depth": 2,
                                                "name": "getPlanet",
                                                "value": 7078
                                            },
                                            {
                                                "children": [
                                                    {
                                                        "children": [],
                                                        "depth": 3,
                                                        "name": "getUIntValue",
                                                        "value": 588
                                                    },
                                                    {
                                                        "children": [],
                                                        "depth": 3,
                                                        "name": "getUIntValue",
                                                        "value": 588
                                                    },
                                                    {
                                                        "children": [],
                                                        "depth": 3,
                                                        "name": "getUIntValue",
                                                        "value": 588
                                                    }
                                                ],
                                                "depth": 2,
                                                "name": "spendResourceOnPlanet",
                                                "value": 30764
                                            },
                                            {
                                                "children": [],
                                                "depth": 2,
                                                "name": "getUIntValue",
                                                "value": 588
                                            },
                                            {
                                                "children": [],
                                                "depth": 2,
                                                "name": "0xf1982b8f",
                                                "value": 11947
                                            },
                                            {
                                                "children": [],
                                                "depth": 2,
                                                "name": "getDiscoveredPlanetsDensity",
                                                "value": 1276
                                            },
                                            {
                                                "children": [],
                                                "depth": 2,
                                                "name": "getDiscoveredPlanetsDensity",
                                                "value": 1276
                                            },
                                            {
                                                "children": [],
                                                "depth": 2,
                                                "name": "getUIntValue",
                                                "value": 588
                                            },
                                            {
                                                "children": [],
                                                "depth": 2,
                                                "name": "getUIntValue",
                                                "value": 588
                                            },
                                            {
                                                "children": [],
                                                "depth": 2,
                                                "name": "getDiscoveredPlanetsDensity",
                                                "value": 1276
                                            },
                                            {
                                                "children": [],
                                                "depth": 2,
                                                "name": "getDiscoveredPlanetsDensity",
                                                "value": 1276
                                            },
                                            {
                                                "children": [],
                                                "depth": 2,
                                                "name": "0xe4c5efe9",
                                                "value": 1788
                                            },
                                            {
                                                "children": [],
                                                "depth": 2,
                                                "name": "getUIntValue",
                                                "value": 588
                                            },
                                            {
                                                "children": [],
                                                "depth": 2,
                                                "name": "0x2292bc1e",
                                                "value": 1466
                                            },
                                            {
                                                "children": [],
                                                "depth": 2,
                                                "name": "0x2292bc1e",
                                                "value": 1466
                                            },
                                            {
                                                "children": [],
                                                "depth": 2,
                                                "name": "0xbe8fb1c1",
                                                "value": 1375
                                            },
                                            {
                                                "children": [],
                                                "depth": 2,
                                                "name": "0xbe8fb1c1",
                                                "value": 1375
                                            },
                                            {
                                                "children": [],
                                                "depth": 2,
                                                "name": "0xbe8fb1c1",
                                                "value": 1375
                                            },
                                            {
                                                "children": [],
                                                "depth": 2,
                                                "name": "0xbe8fb1c1",
                                                "value": 1375
                                            },
                                            {
                                                "children": [],
                                                "depth": 2,
                                                "name": "0xbe8fb1c1",
                                                "value": 1375
                                            },
                                            {
                                                "children": [
                                                    {
                                                        "children": [
                                                            {
                                                                "children": [],
                                                                "depth": 4,
                                                                "name": "0xbe8fb1c1",
                                                                "value": 1375
                                                            },
                                                            {
                                                                "children": [],
                                                                "depth": 4,
                                                                "name": "getUIntValue",
                                                                "value": 588
                                                            },
                                                            {
                                                                "children": [],
                                                                "depth": 4,
                                                                "name": "0xccf9bbb6",
                                                                "value": 871
                                                            },
                                                            {
                                                                "children": [],
                                                                "depth": 4,
                                                                "name": "getUIntValue",
                                                                "value": 588
                                                            },
                                                            {
                                                                "children": [],
                                                                "depth": 4,
                                                                "name": "0xbe8fb1c1",
                                                                "value": 1375
                                                            }
                                                        ],
                                                        "depth": 3,
                                                        "name": "0x570bb139",
                                                        "value": 64634
                                                    }
                                                ],
                                                "depth": 2,
                                                "name": "createPlanet",
                                                "value": 250833
                                            }
                                        ],
                                        "depth": 1,
                                        "name": "0x6e234f69",
                                        "value": 606531
                                    }
                                ],
                                "depth": 0,
                                "name": "Executed Gas",
                                "value": 608231
                            }
                        ],
                        "depth": -1,
                        "name": "Actual Gas Used",
                        "value": 633023
                    },
                    {
                        "children": [],
                        "depth": -1,
                        "name": "Refunded Gas",
                        "value": 0
                    }
                ],
                "depth": -2,
                "name": "Total Gas",
                "value": 633023
            }
        ],
        "isConfirmed": true,
        "mainTrace": [
            {
                "children": [
                    {
                        "children": [
                            {
                                "children": [
                                    {
                                        "children": [],
                                        "depth": 2,
                                        "id": 2,
                                        "order": 2
                                    },
                                    {
                                        "children": [],
                                        "depth": 2,
                                        "id": 3,
                                        "order": 3
                                    },
                                    {
                                        "children": [],
                                        "depth": 2,
                                        "id": 4,
                                        "order": 4
                                    },
                                    {
                                        "children": [],
                                        "depth": 2,
                                        "id": 5,
                                        "order": 5
                                    },
                                    {
                                        "children": [],
                                        "depth": 2,
                                        "id": 6,
                                        "order": 6
                                    },
                                    {
                                        "children": [],
                                        "depth": 2,
                                        "id": 7,
                                        "order": 7
                                    },
                                    {
                                        "children": [
                                            {
                                                "children": [],
                                                "depth": 3,
                                                "id": 9,
                                                "order": 9
                                            },
                                            {
                                                "children": [],
                                                "depth": 3,
                                                "id": 10,
                                                "order": 10
                                            }
                                        ],
                                        "depth": 2,
                                        "id": 8,
                                        "order": 8
                                    },
                                    {
                                        "children": [
                                            {
                                                "children": [],
                                                "depth": 3,
                                                "id": 12,
                                                "order": 12
                                            }
                                        ],
                                        "depth": 2,
                                        "id": 11,
                                        "order": 11
                                    },
                                    {
                                        "children": [],
                                        "depth": 2,
                                        "id": 13,
                                        "order": 13
                                    },
                                    {
                                        "children": [],
                                        "depth": 2,
                                        "id": 14,
                                        "order": 14
                                    },
                                    {
                                        "children": [
                                            {
                                                "children": [],
                                                "depth": 3,
                                                "id": 16,
                                                "order": 16
                                            },
                                            {
                                                "children": [],
                                                "depth": 3,
                                                "id": 17,
                                                "order": 17
                                            },
                                            {
                                                "children": [],
                                                "depth": 3,
                                                "id": 18,
                                                "order": 18
                                            }
                                        ],
                                        "depth": 2,
                                        "id": 15,
                                        "order": 15
                                    },
                                    {
                                        "children": [],
                                        "depth": 2,
                                        "id": 19,
                                        "order": 19
                                    },
                                    {
                                        "children": [
                                            {
                                                "children": [],
                                                "depth": 3,
                                                "id": 21,
                                                "order": 21
                                            },
                                            {
                                                "children": [],
                                                "depth": 3,
                                                "id": 22,
                                                "order": 22
                                            },
                                            {
                                                "children": [],
                                                "depth": 3,
                                                "id": 23,
                                                "order": 23
                                            }
                                        ],
                                        "depth": 2,
                                        "id": 20,
                                        "order": 20
                                    },
                                    {
                                        "children": [],
                                        "depth": 2,
                                        "id": 24,
                                        "order": 24
                                    },
                                    {
                                        "children": [
                                            {
                                                "children": [],
                                                "depth": 3,
                                                "id": 26,
                                                "order": 26
                                            },
                                            {
                                                "children": [],
                                                "depth": 3,
                                                "id": 27,
                                                "order": 27
                                            },
                                            {
                                                "children": [],
                                                "depth": 3,
                                                "id": 28,
                                                "order": 28
                                            }
                                        ],
                                        "depth": 2,
                                        "id": 25,
                                        "order": 25
                                    },
                                    {
                                        "children": [],
                                        "depth": 2,
                                        "id": 29,
                                        "order": 29
                                    },
                                    {
                                        "children": [],
                                        "depth": 2,
                                        "id": 30,
                                        "order": 30
                                    },
                                    {
                                        "children": [],
                                        "depth": 2,
                                        "id": 31,
                                        "order": 31
                                    },
                                    {
                                        "children": [],
                                        "depth": 2,
                                        "id": 32,
                                        "order": 32
                                    },
                                    {
                                        "children": [],
                                        "depth": 2,
                                        "id": 33,
                                        "order": 33
                                    },
                                    {
                                        "children": [],
                                        "depth": 2,
                                        "id": 34,
                                        "order": 34
                                    },
                                    {
                                        "children": [],
                                        "depth": 2,
                                        "id": 35,
                                        "order": 35
                                    },
                                    {
                                        "children": [],
                                        "depth": 2,
                                        "id": 36,
                                        "order": 36
                                    },
                                    {
                                        "children": [],
                                        "depth": 2,
                                        "id": 37,
                                        "order": 37
                                    },
                                    {
                                        "children": [],
                                        "depth": 2,
                                        "id": 38,
                                        "order": 38
                                    },
                                    {
                                        "children": [],
                                        "depth": 2,
                                        "id": 39,
                                        "order": 39
                                    },
                                    {
                                        "children": [],
                                        "depth": 2,
                                        "id": 40,
                                        "order": 40
                                    },
                                    {
                                        "children": [],
                                        "depth": 2,
                                        "id": 41,
                                        "order": 41
                                    },
                                    {
                                        "children": [],
                                        "depth": 2,
                                        "id": 42,
                                        "order": 42
                                    },
                                    {
                                        "children": [],
                                        "depth": 2,
                                        "id": 43,
                                        "order": 43
                                    },
                                    {
                                        "children": [],
                                        "depth": 2,
                                        "id": 44,
                                        "order": 44
                                    },
                                    {
                                        "children": [],
                                        "depth": 2,
                                        "id": 45,
                                        "order": 45
                                    },
                                    {
                                        "children": [],
                                        "depth": 2,
                                        "id": 46,
                                        "order": 46
                                    },
                                    {
                                        "children": [
                                            {
                                                "children": [
                                                    {
                                                        "children": [],
                                                        "depth": 4,
                                                        "id": 49,
                                                        "order": 49
                                                    },
                                                    {
                                                        "children": [],
                                                        "depth": 4,
                                                        "id": 50,
                                                        "order": 50
                                                    },
                                                    {
                                                        "children": [],
                                                        "depth": 4,
                                                        "id": 51,
                                                        "order": 51
                                                    },
                                                    {
                                                        "children": [],
                                                        "depth": 4,
                                                        "id": 52,
                                                        "order": 52
                                                    },
                                                    {
                                                        "children": [],
                                                        "depth": 4,
                                                        "id": 53,
                                                        "order": 53
                                                    }
                                                ],
                                                "depth": 3,
                                                "id": 48,
                                                "order": 48
                                            },
                                            {
                                                "children": [],
                                                "depth": 3,
                                                "id": 54,
                                                "order": 54
                                            },
                                            {
                                                "children": [],
                                                "depth": 3,
                                                "id": 55,
                                                "order": 55
                                            }
                                        ],
                                        "depth": 2,
                                        "id": 47,
                                        "order": 47
                                    }
                                ],
                                "depth": 1,
                                "id": 1,
                                "order": 1
                            }
                        ],
                        "depth": 0,
                        "id": 0,
                        "order": 0
                    }
                ],
                "depth": -1,
                "id": -1,
                "order": -1
            }
        ],
        "mainTraceNodeCount": 56,
        "parentIdMap": {
            "0": -1,
            "1": 0,
            "10": 8,
            "11": 1,
            "12": 11,
            "13": 1,
            "14": 1,
            "15": 1,
            "16": 15,
            "17": 15,
            "18": 15,
            "19": 1,
            "2": 1,
            "20": 1,
            "21": 20,
            "22": 20,
            "23": 20,
            "24": 1,
            "25": 1,
            "26": 25,
            "27": 25,
            "28": 25,
            "29": 1,
            "3": 1,
            "30": 1,
            "31": 1,
            "32": 1,
            "33": 1,
            "34": 1,
            "35": 1,
            "36": 1,
            "37": 1,
            "38": 1,
            "39": 1,
            "4": 1,
            "40": 1,
            "41": 1,
            "42": 1,
            "43": 1,
            "44": 1,
            "45": 1,
            "46": 1,
            "47": 1,
            "48": 47,
            "49": 48,
            "5": 1,
            "50": 48,
            "51": 48,
            "52": 48,
            "53": 48,
            "54": 47,
            "55": 47,
            "6": 1,
            "7": 1,
            "8": 1,
            "9": 8
        },
        "tidyTrace": [
            {
                "children": [
                    {
                        "children": [
                            {
                                "children": [
                                    {
                                        "children": [],
                                        "depth": 2,
                                        "id": 2,
                                        "order": 2
                                    },
                                    {
                                        "children": [],
                                        "depth": 2,
                                        "id": 3,
                                        "order": 3
                                    },
                                    {
                                        "children": [],
                                        "depth": 2,
                                        "id": 4,
                                        "order": 4
                                    },
                                    {
                                        "children": [],
                                        "depth": 2,
                                        "id": 5,
                                        "order": 5
                                    },
                                    {
                                        "children": [],
                                        "depth": 2,
                                        "id": 6,
                                        "order": 6
                                    },
                                    {
                                        "children": [],
                                        "depth": 2,
                                        "id": 7,
                                        "order": 7
                                    },
                                    {
                                        "children": [
                                            {
                                                "children": [],
                                                "depth": 3,
                                                "id": 9,
                                                "order": 9
                                            },
                                            {
                                                "children": [],
                                                "depth": 3,
                                                "id": 10,
                                                "order": 10
                                            }
                                        ],
                                        "depth": 2,
                                        "id": 8,
                                        "order": 8
                                    },
                                    {
                                        "children": [
                                            {
                                                "children": [],
                                                "depth": 3,
                                                "id": 12,
                                                "order": 12
                                            }
                                        ],
                                        "depth": 2,
                                        "id": 11,
                                        "order": 11
                                    },
                                    {
                                        "children": [],
                                        "depth": 2,
                                        "id": 13,
                                        "order": 13
                                    },
                                    {
                                        "children": [],
                                        "depth": 2,
                                        "id": 14,
                                        "order": 14
                                    },
                                    {
                                        "children": [
                                            {
                                                "children": [],
                                                "depth": 3,
                                                "id": 16,
                                                "order": 16
                                            },
                                            {
                                                "children": [],
                                                "depth": 3,
                                                "id": 17,
                                                "order": 17
                                            },
                                            {
                                                "children": [],
                                                "depth": 3,
                                                "id": 18,
                                                "order": 18
                                            }
                                        ],
                                        "depth": 2,
                                        "id": 15,
                                        "order": 15
                                    },
                                    {
                                        "children": [],
                                        "depth": 2,
                                        "id": 19,
                                        "order": 19
                                    },
                                    {
                                        "children": [
                                            {
                                                "children": [],
                                                "depth": 3,
                                                "id": 21,
                                                "order": 21
                                            },
                                            {
                                                "children": [],
                                                "depth": 3,
                                                "id": 22,
                                                "order": 22
                                            },
                                            {
                                                "children": [],
                                                "depth": 3,
                                                "id": 23,
                                                "order": 23
                                            }
                                        ],
                                        "depth": 2,
                                        "id": 20,
                                        "order": 20
                                    },
                                    {
                                        "children": [],
                                        "depth": 2,
                                        "id": 24,
                                        "order": 24
                                    },
                                    {
                                        "children": [
                                            {
                                                "children": [],
                                                "depth": 3,
                                                "id": 26,
                                                "order": 26
                                            },
                                            {
                                                "children": [],
                                                "depth": 3,
                                                "id": 27,
                                                "order": 27
                                            },
                                            {
                                                "children": [],
                                                "depth": 3,
                                                "id": 28,
                                                "order": 28
                                            }
                                        ],
                                        "depth": 2,
                                        "id": 25,
                                        "order": 25
                                    },
                                    {
                                        "children": [],
                                        "depth": 2,
                                        "id": 29,
                                        "order": 29
                                    },
                                    {
                                        "children": [],
                                        "depth": 2,
                                        "id": 30,
                                        "order": 30
                                    },
                                    {
                                        "children": [],
                                        "depth": 2,
                                        "id": 31,
                                        "order": 31
                                    },
                                    {
                                        "children": [],
                                        "depth": 2,
                                        "id": 32,
                                        "order": 32
                                    },
                                    {
                                        "children": [],
                                        "depth": 2,
                                        "id": 33,
                                        "order": 33
                                    },
                                    {
                                        "children": [],
                                        "depth": 2,
                                        "id": 34,
                                        "order": 34
                                    },
                                    {
                                        "children": [],
                                        "depth": 2,
                                        "id": 35,
                                        "order": 35
                                    },
                                    {
                                        "children": [],
                                        "depth": 2,
                                        "id": 36,
                                        "order": 36
                                    },
                                    {
                                        "children": [],
                                        "depth": 2,
                                        "id": 37,
                                        "order": 37
                                    },
                                    {
                                        "children": [],
                                        "depth": 2,
                                        "id": 38,
                                        "order": 38
                                    },
                                    {
                                        "children": [],
                                        "depth": 2,
                                        "id": 39,
                                        "order": 39
                                    },
                                    {
                                        "children": [],
                                        "depth": 2,
                                        "id": 40,
                                        "order": 40
                                    },
                                    {
                                        "children": [],
                                        "depth": 2,
                                        "id": 41,
                                        "order": 41
                                    },
                                    {
                                        "children": [],
                                        "depth": 2,
                                        "id": 42,
                                        "order": 42
                                    },
                                    {
                                        "children": [],
                                        "depth": 2,
                                        "id": 43,
                                        "order": 43
                                    },
                                    {
                                        "children": [],
                                        "depth": 2,
                                        "id": 44,
                                        "order": 44
                                    },
                                    {
                                        "children": [],
                                        "depth": 2,
                                        "id": 45,
                                        "order": 45
                                    },
                                    {
                                        "children": [],
                                        "depth": 2,
                                        "id": 46,
                                        "order": 46
                                    },
                                    {
                                        "children": [
                                            {
                                                "children": [
                                                    {
                                                        "children": [],
                                                        "depth": 4,
                                                        "id": 49,
                                                        "order": 49
                                                    },
                                                    {
                                                        "children": [],
                                                        "depth": 4,
                                                        "id": 50,
                                                        "order": 50
                                                    },
                                                    {
                                                        "children": [],
                                                        "depth": 4,
                                                        "id": 51,
                                                        "order": 51
                                                    },
                                                    {
                                                        "children": [],
                                                        "depth": 4,
                                                        "id": 52,
                                                        "order": 52
                                                    },
                                                    {
                                                        "children": [],
                                                        "depth": 4,
                                                        "id": 53,
                                                        "order": 53
                                                    }
                                                ],
                                                "depth": 3,
                                                "id": 48,
                                                "order": 48
                                            },
                                            {
                                                "children": [],
                                                "depth": 3,
                                                "id": 54,
                                                "order": 54
                                            },
                                            {
                                                "children": [],
                                                "depth": 3,
                                                "id": 55,
                                                "order": 55
                                            }
                                        ],
                                        "depth": 2,
                                        "id": 47,
                                        "order": 47
                                    }
                                ],
                                "depth": 1,
                                "id": 1,
                                "order": 1
                            }
                        ],
                        "depth": 0,
                        "id": 0,
                        "order": 0
                    }
                ],
                "depth": -1,
                "id": -1,
                "order": -1
            }
        ],
        "tidyTraceNodeCount": 56
    },
    "state_change": {
        "stateChanges": [
            {
                "address": "0x06a6a7af298129e3a2ab396c9c06f91d3c54aba8",
                "erc": "ERC-721",
                "slots": [
                    {
                        "current": "0x00000000000000000000000001bc604ae9d945f29432eded391513ba587aeda1",
                        "key": "0x3965e33f1ddba5e2d3710008e4f8b0400c01e1f153801860f5cdca2617346955",
                        "prev": "0x0000000000000000000000000000000000000000000000000000000000000000"
                    },
                    {
                        "current": "0x0000000000000000000000000000000000000000000000000000000000017e88",
                        "key": "0x0000000000000000000000000000000000000000000000000000000000000008",
                        "prev": "0x0000000000000000000000000000000000000000000000000000000000017e87"
                    },
                    {
                        "current": "0x0000000000000000000000000000000000000000000000000000000000017e87",
                        "key": "0xf3f7a9fe364faab93b216da50a3214154f22a0a2b415b23a84c8169e8b64ed6a",
                        "prev": "0x0000000000000000000000000000000000000000000000000000000000000000"
                    },
                    {
                        "current": "0x000000000000000000000000000000000000000042000905010000005cafc7a7",
                        "key": "0x48913d694f82cb70167199db35916c010cbecf102fe16bf674f5a8c8a34728e2",
                        "prev": "0x0000000000000000000000000000000000000000000000000000000000000000"
                    },
                    {
                        "current": "0x00000000000000000000000000172315110db01770000502090000005cafc7a7",
                        "key": "0xf436fb8af65c254c5f5bce91ff3bd4d959878b8c5c5cc87774c2d09af60b39ab",
                        "prev": "0x0000000000000000000000000016ec14df0d88178a000502090000005cada6f1"
                    },
                    {
                        "current": "0x000000000000000000000000000000000000000000000000000000000000005d",
                        "key": "0x4ce0d42e346d8fd2fb20d6de196e7887ec248933258a78f1287298d30971637b",
                        "prev": "0x000000000000000000000000000000000000000000000000000000000000005c"
                    },
                    {
                        "current": "0x0000000000000000000000000000000000000000000000000000000000000006",
                        "key": "0x694ac4a50e299b002372c939bbf2ebdb901c805a1e0118a672301421847b2106",
                        "prev": "0x0000000000000000000000000000000000000000000000000000000000000005"
                    },
                    {
                        "current": "0x0000000000000000000000000000000000000000000000000000000000017e88",
                        "key": "0x000000000000000000000000000000000000000000000000000000000000000f",
                        "prev": "0x0000000000000000000000000000000000000000000000000000000000017e87"
                    },
                    {
                        "current": "0x0000000000000000000000000000000000000000000000000000000000017e87",
                        "key": "0xe5f0553458082ebbbb16827f6a1f6857bd0fa237c9c51ec13f6092034640dff2",
                        "prev": "0x0000000000000000000000000000000000000000000000000000000000000000"
                    },
                    {
                        "current": "0x0000000000000000000000000000000000000000000000000000000000017e87",
                        "key": "0x2d08590ebab6eb624b10a3ea93c60c8779066dcf6f194e797d764401e24b73cc",
                        "prev": "0x0000000000000000000000000000000000000000000000000000000000000000"
                    },
                    {
                        "current": "0x0000000000000000000000000000000000000000000000000000000000002465",
                        "key": "0x876a7309d50c23c5ee074897e7ac742e61fd9acc5879d6359679a338b371c05a",
                        "prev": "0x0000000000000000000000000000000000000000000000000000000000002459"
                    },
                    {
                        "current": "0x0000000000000000000000000000770000001c0075001701090000005cafc7a7",
                        "key": "0x64623ef16791edd892e4edca39eff8703b904e8a9c202d1b7e21b23aba9bfed6",
                        "prev": "0x0000000000000000000000000000770043001c0075001701090000005cafc62c"
                    },
                    {
                        "current": "0x0000000000000000000000000000000000000000000000000000000000000006",
                        "key": "0x8b1458281c4d191fd2d6d7156326d2b5f84a8935a12018a072b0ef8616d314f1",
                        "prev": "0x0000000000000000000000000000000000000000000000000000000000000005"
                    },
                    {
                        "current": "0x00000000000000000000000000002414001b1f181b000905010000005cafc7a7",
                        "key": "0x8d1108e10bcb7c27dddfc02ed9d693a074039d026cf4ea4240b40f7d581c4689",
                        "prev": "0x0000000000000000000000000000000000000000000000000000000000000000"
                    },
                    {
                        "current": "0x0000000000000000000000000000000000000000000000000000000000000005",
                        "key": "0x605a4ce0407be9b6d6675926713150b2283223f791829778216ce587e10db865",
                        "prev": "0x0000000000000000000000000000000000000000000000000000000000000000"
                    },
                    {
                        "current": "0x000000000000000000000000000000000000000000000000000000002596fca7",
                        "key": "0xe6aae8773bbf1d9163fafe2c2bd64468da983273448bcf7e766b685f7fd9da92",
                        "prev": "0x0000000000000000000000000000000000000000000000000000000025936745"
                    },
                    {
                        "current": "0x0000000000000000000000000000240020001c0002000807010000005cafc7a7",
                        "key": "0x3f3152d6d3083750fa08fd100799463840a5bf5da49e4c1cd3cd38f439354363",
                        "prev": "0x000000000000000000000000000024002000200002000807010000005cafc62c"
                    }
                ],
                "storageVariables": [
                    {
                        "name": "ownerToKnowledge",
                        "type": "mapping(address => uint256)",
                        "value": {
                            "pairs": [
                                {
                                    "key": "0x01bc604ae9d945f29432eded391513ba587aeda1",
                                    "value": {
                                        "current": "9317",
                                        "prev": "9305",
                                        "typeTag": 1
                                    }
                                },
                                {
                                    "key": "0x75298d6fd0757dadcfe18a106023efa195f741e6",
                                    "value": {
                                        "current": "630652071",
                                        "prev": "630417221",
                                        "typeTag": 1
                                    }
                                }
                            ],
                            "typeTag": 4
                        }
                    },
                    {
                        "name": "ownedTokens",
                        "type": "mapping(address => uint256[])",
                        "value": {
                            "pairs": [
                                {
                                    "key": "0x01bc604ae9d945f29432eded391513ba587aeda1",
                                    "value": {
                                        "elemType": "uint256",
                                        "elems": [
                                            {
                                                "index": 5,
                                                "value": {
                                                    "current": "97927",
                                                    "prev": "0",
                                                    "typeTag": 1
                                                }
                                            }
                                        ],
                                        "typeTag": 2
                                    }
                                }
                            ],
                            "typeTag": 4
                        }
                    },
                    {
                        "name": "planetStates",
                        "type": "mapping(uint256 => uint256)",
                        "value": {
                            "pairs": [
                                {
                                    "key": "9169",
                                    "value": {
                                        "current": "515973238171468629100533957595321410444576679",
                                        "prev": "511181995983010737951640186470342996802774769",
                                        "typeTag": 1
                                    }
                                },
                                {
                                    "key": "93458",
                                    "value": {
                                        "current": "10366362026447413029705273434413374075029415",
                                        "prev": "10366451084723130619068757989486412858115628",
                                        "typeTag": 1
                                    }
                                },
                                {
                                    "key": "96959",
                                    "value": {
                                        "current": "3136084829407142084496567849606834014898087",
                                        "prev": "3136084829488271722911174531302623020041772",
                                        "typeTag": 1
                                    }
                                },
                                {
                                    "key": "97927",
                                    "value": {
                                        "current": "20426053241812898326783182759",
                                        "prev": "0",
                                        "typeTag": 1
                                    }
                                }
                            ],
                            "typeTag": 4
                        }
                    },
                    {
                        "name": "allTokens",
                        "type": "uint256[]",
                        "value": {
                            "elemType": "uint256",
                            "elems": [
                                {
                                    "index": 97927,
                                    "value": {
                                        "current": "97927",
                                        "prev": "0",
                                        "typeTag": 1
                                    }
                                }
                            ],
                            "typeTag": 2
                        }
                    },
                    {
                        "name": "planets",
                        "type": "uint256[]",
                        "value": {
                            "elemType": "uint256",
                            "elems": [
                                {
                                    "index": 97927,
                                    "value": {
                                        "current": "3142848081704467358739476752248468451346343",
                                        "prev": "0",
                                        "typeTag": 1
                                    }
                                }
                            ],
                            "typeTag": 2
                        }
                    },
                    {
                        "name": "tokenOwner",
                        "type": "mapping(uint256 => address)",
                        "value": {
                            "pairs": [
                                {
                                    "key": "97927",
                                    "value": {
                                        "current": "0x01bc604ae9d945f29432eded391513ba587aeda1",
                                        "prev": "0x0000000000000000000000000000000000000000",
                                        "typeTag": 1
                                    }
                                }
                            ],
                            "typeTag": 4
                        }
                    },
                    {
                        "name": "ownedTokensIndex",
                        "type": "mapping(uint256 => uint256)",
                        "value": {
                            "pairs": [
                                {
                                    "key": "97927",
                                    "value": {
                                        "current": "5",
                                        "prev": "0",
                                        "typeTag": 1
                                    }
                                }
                            ],
                            "typeTag": 4
                        }
                    },
                    {
                        "name": "ownedTokensCount",
                        "type": "mapping(address => uint256)",
                        "value": {
                            "pairs": [
                                {
                                    "key": "0x01bc604ae9d945f29432eded391513ba587aeda1",
                                    "value": {
                                        "current": "6",
                                        "prev": "5",
                                        "typeTag": 1
                                    }
                                }
                            ],
                            "typeTag": 4
                        }
                    },
                    {
                        "name": "allTokensIndex",
                        "type": "mapping(uint256 => uint256)",
                        "value": {
                            "pairs": [
                                {
                                    "key": "97927",
                                    "value": {
                                        "current": "97927",
                                        "prev": "0",
                                        "typeTag": 1
                                    }
                                }
                            ],
                            "typeTag": 4
                        }
                    },
                    {
                        "name": "discoveredPlanetsCountMap",
                        "type": "mapping(uint256 => mapping(uint256 => uint256))",
                        "value": {
                            "pairs": [
                                {
                                    "key": "20",
                                    "value": {
                                        "pairs": [
                                            {
                                                "key": "36",
                                                "value": {
                                                    "current": "93",
                                                    "prev": "92",
                                                    "typeTag": 1
                                                }
                                            }
                                        ],
                                        "typeTag": 4
                                    }
                                }
                            ],
                            "typeTag": 4
                        }
                    }
                ]
            },
            {
                "address": "0x2de440a27d6f4b525d19154dcd0c8d02955585df",
                "erc": "",
                "slots": [
                    {
                        "current": "0x000000000000000000000000000000000000006b00000000010000640002000a",
                        "key": "0x45c51699c0d7f2f152002b87297cb3d5e6e0540f8fbaf8f51ce8d0c553b4155f",
                        "prev": "0x000000000000000000000000000000000000004700000000010000640002000a"
                    }
                ],
                "storageVariables": []
            },
            {
                "address": "0x340113cd9eceedc5ae1f08bc391f120daf53277a",
                "erc": "",
                "slots": [
                    {
                        "current": "0x0000000000000000000000000000000000000000000000000000000003cb95c9",
                        "key": "0x0000000000000000000000000000000000000000000000000000000000000002",
                        "prev": "0x0000000000000000000000000000000000000000000000000000000003cb94c1"
                    }
                ],
                "storageVariables": []
            },
            {
                "address": "0xf0155486a14539f784739be1c02e93f28eb8e960",
                "erc": "",
                "slots": [
                    {
                        "current": "0x000000000000000000000000000000000000000000000000000000000203f062",
                        "key": "0x0000000000000000000000000000000000000000000000000000000000000007",
                        "prev": "0x000000000000000000000000000000000000000000000000000000000203ee1e"
                    },
                    {
                        "current": "0x0000000000000000000000000000000000000000000000000476c32801ceb000",
                        "key": "0x0000000000000000000000000000000000000000000000000000000000000004",
                        "prev": "0x000000000000000000000000000000000000000000000000047695ae79919000"
                    }
                ],
                "storageVariables": []
            }
        ]
    }
}