{
    "balance_change": {
        "balanceChanges": [
            {
                "account": "0x34599e1468759c2f6ed3a7a8e4b8b64c287199b3",
                "assets": [
                    {
                        "address": "0xe3b192bb07cf2577277ca2161ad8890102765d8a",
                        "amount": "3,549,000,000,000,000,000,000",
                        "iconUrl": "",
                        "isERC1155": false,
                        "isERC721": false,
                        "sign": false,
                        "value": ""
                    }
                ]
            },
            {
                "account": "0xfcbac3940d8a9c5c087e30f64fbdfe4ae2b0b926",
                "assets": [
                    {
                        "address": "0xe3b192bb07cf2577277ca2161ad8890102765d8a",
                        "amount": "3,549,000,000,000,000,000,000",
                        "iconUrl": "",
                        "isERC1155": false,
                        "isERC721": false,
                        "sign": true,
                        "value": ""
                    }
                ]
            }
        ]
    },
    "profile": {
        "basic_info": {
            "baseFee": "",
            "blockNumber": 6743871,
            "callData": "0xa9059cbb000000000000000000000000fcbac3940d8a9c5c087e30f64fbdfe4ae2b0b9260000000000000000000000000000000000000000000000c06444d89795540000",
            "debugEnable": true,
            "errorInfo": "",
            "eventCount": 1,
            "feeRecipient": "0x2a65aca4d5fc5b5c859090a6c34d164135398226",
            "formatValue": "0",
            "gasLimit": 63000,
            "gasPrice": "5",
            "gasUsed": 37878,
            "intTxnCount": 0,
            "internalRevert": false,
            "internalRevertMessage": "",
            "isContractCreation": false,
            "isFlashloan": false,
            "maxFee": "",
            "nonce": 0,
            "overwritedBlockNumber": -1,
            "priorityFee": "",
            "receiver": "0xe3b192bb07cf2577277ca2161ad8890102765d8a",
            "revertMessage": "",
            "sender": "0x34599e1468759c2f6ed3a7a8e4b8b64c287199b3",
            "simulationEnable": true,
            "sourceTxnHash": "0x4a58153a1c840a64a19ad4bc2c36ea37634e7dafe81a37ee630007fe2b4e191d",
            "status": true,
            "timestamp": "2018-11-21T05:39:29Z",
            "transactionFee": "0.00018939",
            "txnHash": "0x4a58153a1c840a64a19ad4bc2c36ea37634e7dafe81a37ee630007fe2b4e191d",
            "txnIndex": 175,
            "type": 0,
            "value": "0"
        },
        "fund_flow": [
            {
                "amount": "3,549,000,000,000,000,000,000",
                "from": "0x34599e1468759c2f6ed3a7a8e4b8b64c287199b3",
                "id": 1,
                "isERC1155": false,
                "isERC721": false,
                "isReverted": false,
                "order": 1,
                "to": "0xfcbac3940d8a9c5c087e30f64fbdfe4ae2b0b926",
                "token": "0xe3b192bb07cf2577277ca2161ad8890102765d8a"
            }
        ],
        "token_infos": [
            {
                "address": "0xc02aaa39b223fe8d0a0e5c4f27ead9083c756cc2",
                "decimals": 18
            },
            {
                "address": "0xeeeeeeeeeeeeeeeeeeeeeeeeeeeeeeeeeeeeeeee",
                "decimals": 18
            }
        ]
    },
    "address_label": {
        "labels": [
            {
                "address": "0x0000000000000000000000000000000000000004",
                "label": "Precompiled"
            },
            {
                "address": "0xeeeeeeeeeeeeeeeeeeeeeeeeeeeeeeeeeeeeeeee",
                "label": "Ether"
            },
            {
                "address": "0xe3b192bb07cf2577277ca2161ad8890102765d8a",
                "label": "RichToken"
            },
            {
                "address": "0x0000000000000000000000000000000000000001",
                "label": "Precompiled"
            },
            {
                "address": "0x0000000000000000000000000000000000000002",
                "label": "Precompiled"
            },
            {
                "address": "0x0000000000000000000000000000000000000003",
                "label": "Precompiled"
            }
        ]
    },
    "trace": {
        "accountLabels": null,
        "dataMap": {
            "-1": {
                "invocation": {
                    "address": "0x34599e1468759c2f6ed3a7a8e4b8b64c287199b3",
                    "callData": "",
                    "decodedMethod": null,
                    "errorInfo": "",
                    "fromAddress": "",
                    "gasUsed": 0,
                    "id": -1,
                    "methodDecoded": false,
                    "operation": "",
                    "output": "",
                    "revert": false,
                    "revertMessage": "",
                    "selector": "",
                    "status": false,
                    "value": ""
                },
                "nodeType": 0
            },
            "0": {
                "invocation": {
                    "address": "0xe3b192bb07cf2577277ca2161ad8890102765d8a",
                    "callData": "0x000000000000000000000000fcbac3940d8a9c5c087e30f64fbdfe4ae2b0b9260000000000000000000000000000000000000000000000c06444d89795540000",
                    "decodedMethod": {
                        "callParams": [
                            {
                                "name": "_to",
                                "type": "address",
                                "value": "0xfcbac3940d8a9c5c087e30f64fbdfe4ae2b0b926"
                            },
                            {
                                "decimalAvailable": true,
                                "name": "_value",
                                "type": "uint256",
                                "value": "3,549,000,000,000,000,000,000"
                            }
                        ],
                        "constructorArguments": "",
                        "name": "transfer",
                        "returnParams": [
                            {
                                "name": "",
                                "type": "bool",
                                "value": true
                            }
                        ],
                        "signature": "transfer(address,uint256)"
                    },
                    "errorInfo": "",
                    "fromAddress": "0x34599e1468759c2f6ed3a7a8e4b8b64c287199b3",
                    "gasUsed": 37878,
                    "id": 0,
                    "methodDecoded": true,
                    "operation": "CALL",
                    "output": "0x0000000000000000000000000000000000000000000000000000000000000001",
                    "revert": false,
                    "revertMessage": "",
                    "selector": "0xa9059cbb",
                    "status": true,
                    "value": "0"
                },
                "nodeType": 0
            },
            "1": {
                "event": {
                    "contract": "0xe3b192bb07cf2577277ca2161ad8890102765d8a",
                    "decodedLog": {
                        "name": "Transfer",
                        "params": [
                            {
                                "name": "from",
                                "type": "address",
                                "value": "0x34599e1468759c2f6ed3a7a8e4b8b64c287199b3"
                            },
                            {
                                "name": "to",
                                "type": "address",
                                "value": "0xfcbac3940d8a9c5c087e30f64fbdfe4ae2b0b926"
                            },
                            {
                                "decimalAvailable": true,
                                "name": "value",
                                "type": "uint256",
                                "value": "3,549,000,000,000,000,000,000"
                            }
                        ],
                        "signature": "Transfer(address,address,uint256)"
                    },
                    "id": 1,
                    "logData": "0x0000000000000000000000000000000000000000000000c06444d89795540000",
                    "logDecoded": true,
                    "operation": "EVENT",
                    "revert": false,
                    "status": true,
                    "topics": [
                        "0xddf252ad1be2c89b69c2b068fc378daa952ba7f163c4a11628f55a4df523b3ef",
                        "0x00000000000000000000000034599e1468759c2f6ed3a7a8e4b8b64c287199b3",
                        "0x000000000000000000000000fcbac3940d8a9c5c087e30f64fbdfe4ae2b0b926"
                    ]
                },
                "nodeType": 1
            }
        },
        "gasFlame": [
            {
                "children": [
                    {
                        "children": [
                            {
                                "children": [],
                                "depth": 0,
                                "name": "Initial Gas",
                                "value": 23256
                            },
                            {
                                "children": [],
                                "depth": 0,
                                "name": "Executed Gas",
                                "value": 14622
                            }
                        ],
                        "depth": -1,
                        "name": "Actual Gas Used",
                        "value": 37878
                    },
                    {
                        "children": [],
                        "depth": -1,
                        "name": "Refunded Gas",
                        "value": 0
                    }
                ],
                "depth": -2,
                "name": "Total Gas",
                "value": 37878
            }
        ],
        "isConfirmed": true,
        "mainTrace": [
            {
                "children": [
                    {
                        "children": [
                            {
                                "children": [],
                                "depth": 1,
                                "id": 1,
                                "order": 1
                            }
                        ],
                        "depth": 0,
                        "id": 0,
                        "order": 0
                    }
                ],
                "depth": -1,
                "id": -1,
                "order": -1
            }
        ],
        "mainTraceNodeCount": 2,
        "parentIdMap": {
            "0": -1,
            "1": 0
        },
        "tidyTrace": [
            {
                "children": [
                    {
                        "children": [
                            {
                                "children": [],
                                "depth": 1,
                                "id": 1,
                                "order": 1
                            }
                        ],
                        "depth": 0,
                        "id": 0,
                        "order": 0
                    }
                ],
                "depth": -1,
                "id": -1,
                "order": -1
            }
        ],
        "tidyTraceNodeCount": 2
    },
    "state_change": {
        "stateChanges": [
            {
                "address": "0xe3b192bb07cf2577277ca2161ad8890102765d8a",
                "erc": "ERC-20",
                "slots": [
                    {
                        "current": "0x00000000000000000000000000000000000000000000000002c68af0bb138000",
                        "key": "0x5f1b2b331e6d0ae8c4b3addd71e5caf0e1ea40bb05fd5de46580552d6cebaa16",
                        "prev": "0x0000000000000000000000000000000000000000000000c0670b638850678000"
                    },
                    {
                        "current": "0x0000000000000000000000000000000000000000000010cc30db44ae41240000",
                        "key": "0xd3fd0e5e845d3be82dd23cd56e748a0518a70a9fec153ad9c5187681ffcbbba7",
                        "prev": "0x00000000000000000000000000000000000000000000100bcc966c16abd00000"
                    }
                ],
                "storageVariables": [
                    {
                        "name": "balances",
                        "type": "mapping(address => uint256)",
                        "value": {
                            "pairs": [
                                {
                                    "key": "0x34599e1468759c2f6ed3a7a8e4b8b64c287199b3",
                                    "value": {
                                        "current": "199999999999967232",
                                        "prev": "3549199999999999967232",
                                        "typeTag": 1
                                    }
                                },
                                {
                                    "key": "0xfcbac3940d8a9c5c087e30f64fbdfe4ae2b0b926",
                                    "value": {
                                        "current": "79324520000000000000000",
                                        "prev": "75775520000000000000000",
                                        "typeTag": 1
                                    }
                                }
                            ],
                            "typeTag": 4
                        }
                    }
                ]
            }
        ]
    }
}