{
    "balance_change": {
        "balanceChanges": []
    },
    "profile": {
        "basic_info": {
            "baseFee": "",
            "blockNumber": 11472312,
            "callData": "0x38ed173900000000000000000000000000000000000000000000000000000000bb2ad36700000000000000000000000000000000000000000000000b3b2466ac57f894b900000000000000000000000000000000000000000000000000000000000000a00000000000000000000000009552c6d099bf33e5556a57508ae0b3c151e93a53000000000000000000000000000000000000000000000000000000005fdb9dc10000000000000000000000000000000000000000000000000000000000000003000000000000000000000000dac17f958d2ee523a2206206994597c13d831ec7000000000000000000000000c02aaa39b223fe8d0a0e5c4f27ead9083c756cc20000000000000000000000004c11249814f11b9346808179cf06e71ac328c1b5",
            "debugEnable": true,
            "errorInfo": "execution reverted",
            "eventCount": 0,
            "feeRecipient": "0x5a0b54d5dc17e0aadc383d2db43b0a0d3e029c4c",
            "formatValue": "0",
            "gasLimit": 188261,
            "gasPrice": "240",
            "gasUsed": 24026,
            "intTxnCount": 0,
            "internalRevert": false,
            "internalRevertMessage": "",
            "isContractCreation": false,
            "isFlashloan": false,
            "maxFee": "",
            "nonce": 401,
            "overwritedBlockNumber": -1,
            "priorityFee": "",
            "receiver": "0x7a250d5630b4cf539739df2c5dacb4c659f2488d",
            "revertMessage": "UniswapV2Router: EXPIRED",
            "sender": "0x9552c6d099bf33e5556a57508ae0b3c151e93a53",
            "simulationEnable": true,
            "sourceTxnHash": "0x4bd9680891723f5d8e1f6d99e26cd29f69eeda86bd024459c8bd42c73dfca6c5",
            "status": false,
            "timestamp": "2020-12-17T18:37:14Z",
            "transactionFee": "0.00576624",
            "txnHash": "0x4bd9680891723f5d8e1f6d99e26cd29f69eeda86bd024459c8bd42c73dfca6c5",
            "txnIndex": 137,
            "type": 0,
            "value": "0"
        },
        "fund_flow": [],
        "token_infos": [
            {
                "address": "0xc02aaa39b223fe8d0a0e5c4f27ead9083c756cc2",
                "decimals": 18
            },
            {
                "address": "0xeeeeeeeeeeeeeeeeeeeeeeeeeeeeeeeeeeeeeeee",
                "decimals": 18
            }
        ]
    },
    "address_label": {
        "labels": [
            {
                "address": "0xeeeeeeeeeeeeeeeeeeeeeeeeeeeeeeeeeeeeeeee",
                "label": "Ether"
            },
            {
                "address": "0x7a250d5630b4cf539739df2c5dacb4c659f2488d",
                "label": "Uniswap V2: Router 2"
            },
            {
                "address": "0xdac17f958d2ee523a2206206994597c13d831ec7",
                "label": "Tether: USDT Stablecoin"
            },
            {
                "address": "0x0000000000000000000000000000000000000002",
                "label": "Precompiled"
            },
            {
                "address": "0x4c11249814f11b9346808179cf06e71ac328c1b5",
                "label": "OraiChain: ORAI Token"
            },
            {
                "address": "0xc02aaa39b223fe8d0a0e5c4f27ead9083c756cc2",
                "label": "Wrapped Ether (WETH)"
            },
            {
                "address": "0x0000000000000000000000000000000000000001",
                "label": "Precompiled"
            },
            {
                "address": "0x0000000000000000000000000000000000000003",
                "label": "Precompiled"
            },
            {
                "address": "0x0000000000000000000000000000000000000004",
                "label": "Precompiled"
            }
        ]
    },
    "trace": {
        "accountLabels": null,
        "dataMap": {
            "-1": {
                "invocation": {
                    "address": "0x9552c6d099bf33e5556a57508ae0b3c151e93a53",
                    "callData": "",
                    "decodedMethod": null,
                    "errorInfo": "",
                    "fromAddress": "",
                    "gasUsed": 0,
                    "id": -1,
                    "methodDecoded": false,
                    "operation": "",
                    "output": "",
                    "revert": false,
                    "revertMessage": "",
                    "selector": "",
                    "status": false,
                    "value": ""
                },
                "nodeType": 0
            },
            "0": {
                "invocation": {
                    "address": "0x7a250d5630b4cf539739df2c5dacb4c659f2488d",
                    "callData": "0x00000000000000000000000000000000000000000000000000000000bb2ad36700000000000000000000000000000000000000000000000b3b2466ac57f894b900000000000000000000000000000000000000000000000000000000000000a00000000000000000000000009552c6d099bf33e5556a57508ae0b3c151e93a53000000000000000000000000000000000000000000000000000000005fdb9dc10000000000000000000000000000000000000000000000000000000000000003000000000000000000000000dac17f958d2ee523a2206206994597c13d831ec7000000000000000000000000c02aaa39b223fe8d0a0e5c4f27ead9083c756cc20000000000000000000000004c11249814f11b9346808179cf06e71ac328c1b5",
                    "decodedMethod": {
                        "callParams": [
                            {
                                "name": "amountIn",
                                "type": "uint256",
                                "value": "3,140,146,023"
                            },
                            {
                                "name": "amountOutMin",
                                "type": "uint256",
                                "value": "207,175,828,848,600,716,473"
                            },
                            {
                                "name": "path",
                                "type": "address[]",
                                "value": [
                                    "0xdac17f958d2ee523a2206206994597c13d831ec7",
                                    "0xc02aaa39b223fe8d0a0e5c4f27ead9083c756cc2",
                                    "0x4c11249814f11b9346808179cf06e71ac328c1b5"
                                ]
                            },
                            {
                                "name": "to",
                                "type": "address",
                                "value": "0x9552c6d099bf33e5556a57508ae0b3c151e93a53"
                            },
                            {
                                "name": "deadline",
                                "type": "uint256",
                                "value": "1,608,228,289"
                            }
                        ],
                        "constructorArguments": "",
                        "name": "swapExactTokensForTokens",
                        "returnParams": [],
                        "signature": "swapExactTokensForTokens(uint256,uint256,address[],address,uint256)"
                    },
                    "errorInfo": "execution reverted",
                    "fromAddress": "0x9552c6d099bf33e5556a57508ae0b3c151e93a53",
                    "gasUsed": 24026,
                    "id": 0,
                    "methodDecoded": true,
                    "operation": "CALL",
                    "output": "0x08c379a000000000000000000000000000000000000000000000000000000000000000200000000000000000000000000000000000000000000000000000000000000018556e69737761705632526f757465723a20455850495245440000000000000000",
                    "revert": true,
                    "revertMessage": "UniswapV2Router: EXPIRED",
                    "selector": "0x38ed1739",
                    "status": false,
                    "value": "0"
                },
                "nodeType": 0
            }
        },
        "gasFlame": [
            {
                "children": [
                    {
                        "children": [
                            {
                                "children": [],
                                "depth": 0,
                                "name": "Initial Gas",
                                "value": 23404
                            },
                            {
                                "children": [],
                                "depth": 0,
                                "name": "Executed Gas",
                                "value": 622
                            }
                        ],
                        "depth": -1,
                        "name": "Actual Gas Used",
                        "value": 24026
                    },
                    {
                        "children": [],
                        "depth": -1,
                        "name": "Refunded Gas",
                        "value": 0
                    }
                ],
                "depth": -2,
                "name": "Total Gas",
                "value": 24026
            }
        ],
        "isConfirmed": true,
        "mainTrace": [
            {
                "children": [
                    {
                        "children": [],
                        "depth": 0,
                        "id": 0,
                        "order": 0
                    }
                ],
                "depth": -1,
                "id": -1,
                "order": -1
            }
        ],
        "mainTraceNodeCount": 1,
        "parentIdMap": {
            "0": -1
        },
        "tidyTrace": [
            {
                "children": [
                    {
                        "children": [],
                        "depth": 0,
                        "id": 0,
                        "order": 0
                    }
                ],
                "depth": -1,
                "id": -1,
                "order": -1
            }
        ],
        "tidyTraceNodeCount": 1
    },
    "state_change": {
        "stateChanges": []
    }
}