{
    "balance_change": {
        "balanceChanges": [
            {
                "account": "0x6e894016b97307773bed27bfc302b743aa683e12",
                "assets": [
                    {
                        "address": "0xd26114cd6ee289accf82350c8d8487fedb8a0c07",
                        "amount": "9,192.38597535",
                        "iconUrl": "https://assets.blocksec.com/icon/33337523e3649cd91abcb0cac0df074ff9512695abafe3958d0a610195d87716.png",
                        "isERC1155": false,
                        "isERC721": false,
                        "sign": false,
                        "value": ""
                    }
                ]
            },
            {
                "account": "0x7b45a572ea991887a01fd919c05edf1cac79c311",
                "assets": [
                    {
                        "address": "0xd26114cd6ee289accf82350c8d8487fedb8a0c07",
                        "amount": "9,192.38597535",
                        "iconUrl": "https://assets.blocksec.com/icon/33337523e3649cd91abcb0cac0df074ff9512695abafe3958d0a610195d87716.png",
                        "isERC1155": false,
                        "isERC721": false,
                        "sign": true,
                        "value": ""
                    }
                ]
            }
        ]
    },
    "profile": {
        "basic_info": {
            "baseFee": "",
            "blockNumber": 6699372,
            "callData": "0x338b5dea000000000000000000000000d26114cd6ee289accf82350c8d8487fedb8a0c070000000000000000000000000000000000000000000001f251fb653b8b6e9c00",
            "debugEnable": true,
            "errorInfo": "",
            "eventCount": 2,
            "feeRecipient": "0x5a0b54d5dc17e0aadc383d2db43b0a0d3e029c4c",
            "formatValue": "0",
            "gasLimit": 250000,
            "gasPrice": "8",
            "gasUsed": 68325,
            "intTxnCount": 1,
            "internalRevert": false,
            "internalRevertMessage": "",
            "isContractCreation": false,
            "isFlashloan": false,
            "maxFee": "",
            "nonce": 3,
            "overwritedBlockNumber": -1,
            "priorityFee": "",
            "receiver": "0x7b45a572ea991887a01fd919c05edf1cac79c311",
            "revertMessage": "",
            "sender": "0x6e894016b97307773bed27bfc302b743aa683e12",
            "simulationEnable": true,
            "sourceTxnHash": "0x4ba8882f0ddff65c9214a8ea1257948db458efb8daf80617fa290aaaa436109f",
            "status": true,
            "timestamp": "2018-11-13T22:32:37Z",
            "transactionFee": "0.0005466",
            "txnHash": "0x4ba8882f0ddff65c9214a8ea1257948db458efb8daf80617fa290aaaa436109f",
            "txnIndex": 9,
            "type": 0,
            "value": "0"
        },
        "fund_flow": [
            {
                "amount": "9,192.38597535",
                "from": "0x6e894016b97307773bed27bfc302b743aa683e12",
                "id": 1,
                "isERC1155": false,
                "isERC721": false,
                "isReverted": false,
                "order": 1,
                "to": "0x7b45a572ea991887a01fd919c05edf1cac79c311",
                "token": "0xd26114cd6ee289accf82350c8d8487fedb8a0c07"
            }
        ],
        "token_infos": [
            {
                "address": "0xc02aaa39b223fe8d0a0e5c4f27ead9083c756cc2",
                "decimals": 18
            },
            {
                "address": "0xd26114cd6ee289accf82350c8d8487fedb8a0c07",
                "decimals": 18
            },
            {
                "address": "0xeeeeeeeeeeeeeeeeeeeeeeeeeeeeeeeeeeeeeeee",
                "decimals": 18
            }
        ]
    },
    "address_label": {
        "labels": [
            {
                "address": "0xd26114cd6ee289accf82350c8d8487fedb8a0c07",
                "label": "OMG Network: OMG Token"
            },
            {
                "address": "0x7b45a572ea991887a01fd919c05edf1cac79c311",
                "label": "R1Exchange"
            },
            {
                "address": "0x0000000000000000000000000000000000000001",
                "label": "Precompiled"
            },
            {
                "address": "0x0000000000000000000000000000000000000002",
                "label": "Precompiled"
            },
            {
                "address": "0x0000000000000000000000000000000000000003",
                "label": "Precompiled"
            },
            {
                "address": "0x0000000000000000000000000000000000000004",
                "label": "Precompiled"
            },
            {
                "address": "0xeeeeeeeeeeeeeeeeeeeeeeeeeeeeeeeeeeeeeeee",
                "label": "Ether"
            }
        ]
    },
    "trace": {
        "accountLabels": null,
        "dataMap": {
            "-1": {
                "invocation": {
                    "address": "0x6e894016b97307773bed27bfc302b743aa683e12",
                    "callData": "",
                    "decodedMethod": null,
                    "errorInfo": "",
                    "fromAddress": "",
                    "gasUsed": 0,
                    "id": -1,
                    "methodDecoded": false,
                    "operation": "",
                    "output": "",
                    "revert": false,
                    "revertMessage": "",
                    "selector": "",
                    "status": false,
                    "value": ""
                },
                "nodeType": 0
            },
            "0": {
                "invocation": {
                    "address": "0x7b45a572ea991887a01fd919c05edf1cac79c311",
                    "callData": "0x000000000000000000000000d26114cd6ee289accf82350c8d8487fedb8a0c070000000000000000000000000000000000000000000001f251fb653b8b6e9c00",
                    "decodedMethod": {
                        "callParams": [
                            {
                                "name": "token",
                                "type": "address",
                                "value": "0xd26114cd6ee289accf82350c8d8487fedb8a0c07"
                            },
                            {
                                "name": "amount",
                                "type": "uint256",
                                "value": "9,192,385,975,350,000,000,000"
                            }
                        ],
                        "constructorArguments": "",
                        "name": "depositToken",
                        "returnParams": [],
                        "signature": "depositToken(address,uint256)"
                    },
                    "errorInfo": "",
                    "fromAddress": "0x6e894016b97307773bed27bfc302b743aa683e12",
                    "gasUsed": 68325,
                    "id": 0,
                    "methodDecoded": true,
                    "operation": "CALL",
                    "output": "",
                    "revert": false,
                    "revertMessage": "",
                    "selector": "0x338b5dea",
                    "status": true,
                    "value": "0"
                },
                "nodeType": 0
            },
            "1": {
                "invocation": {
                    "address": "0xd26114cd6ee289accf82350c8d8487fedb8a0c07",
                    "callData": "0x0000000000000000000000006e894016b97307773bed27bfc302b743aa683e120000000000000000000000007b45a572ea991887a01fd919c05edf1cac79c3110000000000000000000000000000000000000000000001f251fb653b8b6e9c00",
                    "decodedMethod": {
                        "callParams": [
                            {
                                "name": "_from",
                                "type": "address",
                                "value": "0x6e894016b97307773bed27bfc302b743aa683e12"
                            },
                            {
                                "name": "_to",
                                "type": "address",
                                "value": "0x7b45a572ea991887a01fd919c05edf1cac79c311"
                            },
                            {
                                "decimalAvailable": true,
                                "name": "_value",
                                "type": "uint256",
                                "value": "9,192,385,975,350,000,000,000"
                            }
                        ],
                        "constructorArguments": "",
                        "name": "transferFrom",
                        "returnParams": [],
                        "signature": "transferFrom(address,address,uint256)"
                    },
                    "errorInfo": "",
                    "fromAddress": "0x7b45a572ea991887a01fd919c05edf1cac79c311",
                    "gasUsed": 19416,
                    "id": 1,
                    "methodDecoded": true,
                    "operation": "CALL",
                    "output": "",
                    "revert": false,
                    "revertMessage": "",
                    "selector": "0x23b872dd",
                    "status": true,
                    "value": "0"
                },
                "nodeType": 0
            },
            "2": {
                "event": {
                    "contract": "0xd26114cd6ee289accf82350c8d8487fedb8a0c07",
                    "decodedLog": {
                        "name": "Transfer",
                        "params": [
                            {
                                "name": "from",
                                "type": "address",
                                "value": "0x6e894016b97307773bed27bfc302b743aa683e12"
                            },
                            {
                                "name": "to",
                                "type": "address",
                                "value": "0x7b45a572ea991887a01fd919c05edf1cac79c311"
                            },
                            {
                                "decimalAvailable": true,
                                "name": "value",
                                "type": "uint256",
                                "value": "9,192,385,975,350,000,000,000"
                            }
                        ],
                        "signature": "Transfer(address,address,uint256)"
                    },
                    "id": 2,
                    "logData": "0x0000000000000000000000000000000000000000000001f251fb653b8b6e9c00",
                    "logDecoded": true,
                    "operation": "EVENT",
                    "revert": false,
                    "status": true,
                    "topics": [
                        "0xddf252ad1be2c89b69c2b068fc378daa952ba7f163c4a11628f55a4df523b3ef",
                        "0x0000000000000000000000006e894016b97307773bed27bfc302b743aa683e12",
                        "0x0000000000000000000000007b45a572ea991887a01fd919c05edf1cac79c311"
                    ]
                },
                "nodeType": 1
            },
            "3": {
                "event": {
                    "contract": "0x7b45a572ea991887a01fd919c05edf1cac79c311",
                    "decodedLog": {
                        "name": "Deposit",
                        "params": [
                            {
                                "name": "token",
                                "type": "address",
                                "value": "0xd26114cd6ee289accf82350c8d8487fedb8a0c07"
                            },
                            {
                                "name": "user",
                                "type": "address",
                                "value": "0x6e894016b97307773bed27bfc302b743aa683e12"
                            },
                            {
                                "name": "amount",
                                "type": "uint256",
                                "value": "9,192,385,975,350,000,000,000"
                            },
                            {
                                "name": "balance",
                                "type": "uint256",
                                "value": "9,192,385,975,350,000,000,000"
                            }
                        ],
                        "signature": "Deposit(address,address,uint256,uint256)"
                    },
                    "id": 3,
                    "logData": "0x0000000000000000000000000000000000000000000001f251fb653b8b6e9c000000000000000000000000000000000000000000000001f251fb653b8b6e9c00",
                    "logDecoded": true,
                    "operation": "EVENT",
                    "revert": false,
                    "status": true,
                    "topics": [
                        "0xdcbc1c05240f31ff3ad067ef1ee35ce4997762752e3a095284754544f4c709d7",
                        "0x000000000000000000000000d26114cd6ee289accf82350c8d8487fedb8a0c07",
                        "0x0000000000000000000000006e894016b97307773bed27bfc302b743aa683e12"
                    ]
                },
                "nodeType": 1
            }
        },
        "gasFlame": [
            {
                "children": [
                    {
                        "children": [
                            {
                                "children": [],
                                "depth": 0,
                                "name": "Initial Gas",
                                "value": 23384
                            },
                            {
                                "children": [
                                    {
                                        "children": [],
                                        "depth": 1,
                                        "name": "transferFrom",
                                        "value": 19416
                                    }
                                ],
                                "depth": 0,
                                "name": "Executed Gas",
                                "value": 44941
                            }
                        ],
                        "depth": -1,
                        "name": "Actual Gas Used",
                        "value": 68325
                    },
                    {
                        "children": [],
                        "depth": -1,
                        "name": "Refunded Gas",
                        "value": 0
                    }
                ],
                "depth": -2,
                "name": "Total Gas",
                "value": 68325
            }
        ],
        "isConfirmed": true,
        "mainTrace": [
            {
                "children": [
                    {
                        "children": [
                            {
                                "children": [
                                    {
                                        "children": [],
                                        "depth": 2,
                                        "id": 2,
                                        "order": 2
                                    }
                                ],
                                "depth": 1,
                                "id": 1,
                                "order": 1
                            },
                            {
                                "children": [],
                                "depth": 1,
                                "id": 3,
                                "order": 3
                            }
                        ],
                        "depth": 0,
                        "id": 0,
                        "order": 0
                    }
                ],
                "depth": -1,
                "id": -1,
                "order": -1
            }
        ],
        "mainTraceNodeCount": 4,
        "parentIdMap": {
            "0": -1,
            "1": 0,
            "2": 1,
            "3": 0
        },
        "tidyTrace": [
            {
                "children": [
                    {
                        "children": [
                            {
                                "children": [
                                    {
                                        "children": [],
                                        "depth": 2,
                                        "id": 2,
                                        "order": 2
                                    }
                                ],
                                "depth": 1,
                                "id": 1,
                                "order": 1
                            },
                            {
                                "children": [],
                                "depth": 1,
                                "id": 3,
                                "order": 3
                            }
                        ],
                        "depth": 0,
                        "id": 0,
                        "order": 0
                    }
                ],
                "depth": -1,
                "id": -1,
                "order": -1
            }
        ],
        "tidyTraceNodeCount": 4
    },
    "state_change": {
        "stateChanges": [
            {
                "address": "0x7b45a572ea991887a01fd919c05edf1cac79c311",
                "erc": "",
                "slots": [
                    {
                        "current": "0x0000000000000000000000000000000000000000000001f251fb653b8b6e9c00",
                        "key": "0x144205cf6e345bd444f383afeba9aa44e3f9d8f1b3301703ba758963fb533d6f",
                        "prev": "0x0000000000000000000000000000000000000000000000000000000000000000"
                    }
                ],
                "storageVariables": [
                    {
                        "name": "tokenList",
                        "type": "mapping(address => mapping(address => uint256))",
                        "value": {
                            "pairs": [
                                {
                                    "key": "0xd26114cd6ee289accf82350c8d8487fedb8a0c07",
                                    "value": {
                                        "pairs": [
                                            {
                                                "key": "0x6e894016b97307773bed27bfc302b743aa683e12",
                                                "value": {
                                                    "current": "9192385975350000000000",
                                                    "prev": "0",
                                                    "typeTag": 1
                                                }
                                            }
                                        ],
                                        "typeTag": 4
                                    }
                                }
                            ],
                            "typeTag": 4
                        }
                    }
                ]
            },
            {
                "address": "0xd26114cd6ee289accf82350c8d8487fedb8a0c07",
                "erc": "ERC-20",
                "slots": [
                    {
                        "current": "0x00000000000000000000000000000000000000000000020681ad04f623678e23",
                        "key": "0x332e050a5526957c278a76de995f8345e3f19faa54f882414d991d1a9da925f9",
                        "prev": "0x0000000000000000000000000000000000000000000000142fb19fba97f8f223"
                    },
                    {
                        "current": "0x0000000000000000000000000000000000000000000000000000000026723578",
                        "key": "0x9e398c9f320440065ea0e9c9542c27112383ee7e39844d094b158c38ae90d2c1",
                        "prev": "0x0000000000000000000000000000000000000000000001f251fb653bb1e0d178"
                    },
                    {
                        "current": "0x00000000000000000000000000000000000004ee2d6d3f6933b18a4574916400",
                        "key": "0xfb09ddc3153249f358080cedb8a1358d576231080d8afcaa574ca6bcfc3ff25a",
                        "prev": "0x00000000000000000000000000000000000004ee2d6d415b85acef8100000000"
                    }
                ],
                "storageVariables": []
            }
        ]
    }
}