{
    "balance_change": {
        "balanceChanges": [
            {
                "account": "0xd84a627d95616dd8ded55775fb59cff8f8e33c0f",
                "assets": [
                    {
                        "address": "0x572328202d37b031b490f6659d8549e7bd712324",
                        "amount": "0.001",
                        "iconUrl": "",
                        "isERC1155": false,
                        "isERC721": false,
                        "sign": false,
                        "value": ""
                    }
                ]
            },
            {
                "account": "0x12244fcba7d8bc0df07485c9e6f67ad561e250af",
                "assets": [
                    {
                        "address": "0x572328202d37b031b490f6659d8549e7bd712324",
                        "amount": "0.001",
                        "iconUrl": "",
                        "isERC1155": false,
                        "isERC721": false,
                        "sign": true,
                        "value": ""
                    }
                ]
            }
        ]
    },
    "profile": {
        "basic_info": {
            "baseFee": "",
            "blockNumber": 9876777,
            "callData": "0xa9059cbb00000000000000000000000012244fcba7d8bc0df07485c9e6f67ad561e250af0000000000000000000000000000000000000000000000000000000000000001",
            "debugEnable": true,
            "errorInfo": "",
            "eventCount": 1,
            "feeRecipient": "0x5a0b54d5dc17e0aadc383d2db43b0a0d3e029c4c",
            "formatValue": "0",
            "gasLimit": 60000,
            "gasPrice": "1.8",
            "gasUsed": 57211,
            "intTxnCount": 0,
            "internalRevert": false,
            "internalRevertMessage": "",
            "isContractCreation": false,
            "isFlashloan": false,
            "maxFee": "",
            "nonce": 3463,
            "overwritedBlockNumber": -1,
            "priorityFee": "",
            "receiver": "0x572328202d37b031b490f6659d8549e7bd712324",
            "revertMessage": "",
            "sender": "0xd84a627d95616dd8ded55775fb59cff8f8e33c0f",
            "simulationEnable": true,
            "sourceTxnHash": "0x4b1ad1db02c513635f819268cbc64c8eacd7de7cac3d3f1875b57a6c8f7594f9",
            "status": true,
            "timestamp": "2020-04-15T11:39:19Z",
            "transactionFee": "0.0001029798",
            "txnHash": "0x4b1ad1db02c513635f819268cbc64c8eacd7de7cac3d3f1875b57a6c8f7594f9",
            "txnIndex": 173,
            "type": 0,
            "value": "0"
        },
        "fund_flow": [
            {
                "amount": "0.001",
                "from": "0xd84a627d95616dd8ded55775fb59cff8f8e33c0f",
                "id": 1,
                "isERC1155": false,
                "isERC721": false,
                "isReverted": false,
                "order": 1,
                "to": "0x12244fcba7d8bc0df07485c9e6f67ad561e250af",
                "token": "0x572328202d37b031b490f6659d8549e7bd712324"
            }
        ],
        "token_infos": [
            {
                "address": "0xeeeeeeeeeeeeeeeeeeeeeeeeeeeeeeeeeeeeeeee",
                "decimals": 18
            },
            {
                "address": "0x572328202d37b031b490f6659d8549e7bd712324",
                "decimals": 3
            },
            {
                "address": "0xc02aaa39b223fe8d0a0e5c4f27ead9083c756cc2",
                "decimals": 18
            }
        ]
    },
    "address_label": {
        "labels": [
            {
                "address": "0x0000000000000000000000000000000000000002",
                "label": "Precompiled"
            },
            {
                "address": "0x0000000000000000000000000000000000000003",
                "label": "Precompiled"
            },
            {
                "address": "0x0000000000000000000000000000000000000004",
                "label": "Precompiled"
            },
            {
                "address": "0xeeeeeeeeeeeeeeeeeeeeeeeeeeeeeeeeeeeeeeee",
                "label": "Ether"
            },
            {
                "address": "0x572328202d37b031b490f6659d8549e7bd712324",
                "label": "WUXINGBI (WXB)"
            },
            {
                "address": "0x0000000000000000000000000000000000000001",
                "label": "Precompiled"
            }
        ]
    },
    "trace": {
        "accountLabels": null,
        "dataMap": {
            "-1": {
                "invocation": {
                    "address": "0xd84a627d95616dd8ded55775fb59cff8f8e33c0f",
                    "callData": "",
                    "decodedMethod": null,
                    "errorInfo": "",
                    "fromAddress": "",
                    "gasUsed": 0,
                    "id": -1,
                    "methodDecoded": false,
                    "operation": "",
                    "output": "",
                    "revert": false,
                    "revertMessage": "",
                    "selector": "",
                    "status": false,
                    "value": ""
                },
                "nodeType": 0
            },
            "0": {
                "invocation": {
                    "address": "0x572328202d37b031b490f6659d8549e7bd712324",
                    "callData": "0x00000000000000000000000012244fcba7d8bc0df07485c9e6f67ad561e250af0000000000000000000000000000000000000000000000000000000000000001",
                    "decodedMethod": {
                        "callParams": [
                            {
                                "name": "_to",
                                "type": "address",
                                "value": "0x12244fcba7d8bc0df07485c9e6f67ad561e250af"
                            },
                            {
                                "decimalAvailable": true,
                                "name": "_value",
                                "type": "uint256",
                                "value": "1"
                            }
                        ],
                        "constructorArguments": "",
                        "name": "transfer",
                        "returnParams": [
                            {
                                "name": "success",
                                "type": "bool",
                                "value": true
                            }
                        ],
                        "signature": "transfer(address,uint256)"
                    },
                    "errorInfo": "",
                    "fromAddress": "0xd84a627d95616dd8ded55775fb59cff8f8e33c0f",
                    "gasUsed": 57211,
                    "id": 0,
                    "methodDecoded": true,
                    "operation": "CALL",
                    "output": "0x0000000000000000000000000000000000000000000000000000000000000001",
                    "revert": false,
                    "revertMessage": "",
                    "selector": "0xa9059cbb",
                    "status": true,
                    "value": "0"
                },
                "nodeType": 0
            },
            "1": {
                "event": {
                    "contract": "0x572328202d37b031b490f6659d8549e7bd712324",
                    "decodedLog": {
                        "name": "Transfer",
                        "params": [
                            {
                                "name": "from",
                                "type": "address",
                                "value": "0xd84a627d95616dd8ded55775fb59cff8f8e33c0f"
                            },
                            {
                                "name": "to",
                                "type": "address",
                                "value": "0x12244fcba7d8bc0df07485c9e6f67ad561e250af"
                            },
                            {
                                "decimalAvailable": true,
                                "name": "value",
                                "type": "uint256",
                                "value": "1"
                            }
                        ],
                        "signature": "Transfer(address,address,uint256)"
                    },
                    "id": 1,
                    "logData": "0x0000000000000000000000000000000000000000000000000000000000000001",
                    "logDecoded": true,
                    "operation": "EVENT",
                    "revert": false,
                    "status": true,
                    "topics": [
                        "0xddf252ad1be2c89b69c2b068fc378daa952ba7f163c4a11628f55a4df523b3ef",
                        "0x000000000000000000000000d84a627d95616dd8ded55775fb59cff8f8e33c0f",
                        "0x00000000000000000000000012244fcba7d8bc0df07485c9e6f67ad561e250af"
                    ]
                },
                "nodeType": 1
            }
        },
        "gasFlame": [
            {
                "children": [
                    {
                        "children": [
                            {
                                "children": [],
                                "depth": 0,
                                "name": "Initial Gas",
                                "value": 21572
                            },
                            {
                                "children": [],
                                "depth": 0,
                                "name": "Executed Gas",
                                "value": 35639
                            }
                        ],
                        "depth": -1,
                        "name": "Actual Gas Used",
                        "value": 57211
                    },
                    {
                        "children": [],
                        "depth": -1,
                        "name": "Refunded Gas",
                        "value": 0
                    }
                ],
                "depth": -2,
                "name": "Total Gas",
                "value": 57211
            }
        ],
        "isConfirmed": true,
        "mainTrace": [
            {
                "children": [
                    {
                        "children": [
                            {
                                "children": [],
                                "depth": 1,
                                "id": 1,
                                "order": 1
                            }
                        ],
                        "depth": 0,
                        "id": 0,
                        "order": 0
                    }
                ],
                "depth": -1,
                "id": -1,
                "order": -1
            }
        ],
        "mainTraceNodeCount": 2,
        "parentIdMap": {
            "0": -1,
            "1": 0
        },
        "tidyTrace": [
            {
                "children": [
                    {
                        "children": [
                            {
                                "children": [],
                                "depth": 1,
                                "id": 1,
                                "order": 1
                            }
                        ],
                        "depth": 0,
                        "id": 0,
                        "order": 0
                    }
                ],
                "depth": -1,
                "id": -1,
                "order": -1
            }
        ],
        "tidyTraceNodeCount": 2
    },
    "state_change": {
        "stateChanges": [
            {
                "address": "0x572328202d37b031b490f6659d8549e7bd712324",
                "erc": "ERC-20",
                "slots": [
                    {
                        "current": "0x0000000000000000000000000000000000000000000000000000000000017db6",
                        "key": "0xae0a856f5e236ab40101342e6b662cc00c4c915036702dcff8d2fbb607f4d27b",
                        "prev": "0x0000000000000000000000000000000000000000000000000000000000017db7"
                    },
                    {
                        "current": "0x0000000000000000000000000000000000000000000000000000000000000001",
                        "key": "0x40b7eb82fb604e961c99604ca7da7787a3206d36a9b5b414c7fb37d91af4ca6f",
                        "prev": "0x0000000000000000000000000000000000000000000000000000000000000000"
                    }
                ],
                "storageVariables": [
                    {
                        "name": "balanceOf",
                        "type": "mapping(address => uint256)",
                        "value": {
                            "pairs": [
                                {
                                    "key": "0x12244fcba7d8bc0df07485c9e6f67ad561e250af",
                                    "value": {
                                        "current": "1",
                                        "prev": "0",
                                        "typeTag": 1
                                    }
                                },
                                {
                                    "key": "0xd84a627d95616dd8ded55775fb59cff8f8e33c0f",
                                    "value": {
                                        "current": "97718",
                                        "prev": "97719",
                                        "typeTag": 1
                                    }
                                }
                            ],
                            "typeTag": 4
                        }
                    }
                ]
            }
        ]
    }
}