{
    "balance_change": {
        "balanceChanges": [
            {
                "account": "0x1d8f6f8ad5e44cfdbb671ee49b5b20c6bb657b97",
                "assets": [
                    {
                        "address": "0xd072ca673e848fabd902f9b19f21dc46282b45ba",
                        "amount": "41.5",
                        "iconUrl": "",
                        "isERC1155": false,
                        "isERC721": false,
                        "sign": false,
                        "value": ""
                    }
                ]
            },
            {
                "account": "0x3ee29d578435196230d3ce1481d29e5d8653c1bc",
                "assets": [
                    {
                        "address": "0xd072ca673e848fabd902f9b19f21dc46282b45ba",
                        "amount": "41.5",
                        "iconUrl": "",
                        "isERC1155": false,
                        "isERC721": false,
                        "sign": true,
                        "value": ""
                    }
                ]
            }
        ]
    },
    "profile": {
        "basic_info": {
            "baseFee": "",
            "blockNumber": 6872574,
            "callData": "0xa9059cbb0000000000000000000000003ee29d578435196230d3ce1481d29e5d8653c1bc000000000000000000000000000000000000000000000000000000609fed7600",
            "debugEnable": true,
            "errorInfo": "",
            "eventCount": 1,
            "feeRecipient": "0xb2930b35844a230f00e51431acae96fe543a0347",
            "formatValue": "0",
            "gasLimit": 130000,
            "gasPrice": "10",
            "gasUsed": 51766,
            "intTxnCount": 0,
            "internalRevert": false,
            "internalRevertMessage": "",
            "isContractCreation": false,
            "isFlashloan": false,
            "maxFee": "",
            "nonce": 3108,
            "overwritedBlockNumber": -1,
            "priorityFee": "",
            "receiver": "0xd072ca673e848fabd902f9b19f21dc46282b45ba",
            "revertMessage": "",
            "sender": "0x1d8f6f8ad5e44cfdbb671ee49b5b20c6bb657b97",
            "simulationEnable": true,
            "sourceTxnHash": "0x4bfae0190ffb595dc8a90eba6706bb39f5a7c124e185af11b09fd222998f6ff6",
            "status": true,
            "timestamp": "2018-12-12T11:09:18Z",
            "transactionFee": "0.00051766",
            "txnHash": "0x4bfae0190ffb595dc8a90eba6706bb39f5a7c124e185af11b09fd222998f6ff6",
            "txnIndex": 23,
            "type": 0,
            "value": "0"
        },
        "fund_flow": [
            {
                "amount": "41.5",
                "from": "0x1d8f6f8ad5e44cfdbb671ee49b5b20c6bb657b97",
                "id": 1,
                "isERC1155": false,
                "isERC721": false,
                "isReverted": false,
                "order": 1,
                "to": "0x3ee29d578435196230d3ce1481d29e5d8653c1bc",
                "token": "0xd072ca673e848fabd902f9b19f21dc46282b45ba"
            }
        ],
        "token_infos": [
            {
                "address": "0xc02aaa39b223fe8d0a0e5c4f27ead9083c756cc2",
                "decimals": 18
            },
            {
                "address": "0xd072ca673e848fabd902f9b19f21dc46282b45ba",
                "decimals": 10
            },
            {
                "address": "0xeeeeeeeeeeeeeeeeeeeeeeeeeeeeeeeeeeeeeeee",
                "decimals": 18
            }
        ]
    },
    "address_label": {
        "labels": [
            {
                "address": "0x0000000000000000000000000000000000000004",
                "label": "Precompiled"
            },
            {
                "address": "0xeeeeeeeeeeeeeeeeeeeeeeeeeeeeeeeeeeeeeeee",
                "label": "Ether"
            },
            {
                "address": "0xd072ca673e848fabd902f9b19f21dc46282b45ba",
                "label": "QB"
            },
            {
                "address": "0x0000000000000000000000000000000000000001",
                "label": "Precompiled"
            },
            {
                "address": "0x0000000000000000000000000000000000000002",
                "label": "Precompiled"
            },
            {
                "address": "0x0000000000000000000000000000000000000003",
                "label": "Precompiled"
            }
        ]
    },
    "trace": {
        "accountLabels": null,
        "dataMap": {
            "-1": {
                "invocation": {
                    "address": "0x1d8f6f8ad5e44cfdbb671ee49b5b20c6bb657b97",
                    "callData": "",
                    "decodedMethod": null,
                    "errorInfo": "",
                    "fromAddress": "",
                    "gasUsed": 0,
                    "id": -1,
                    "methodDecoded": false,
                    "operation": "",
                    "output": "",
                    "revert": false,
                    "revertMessage": "",
                    "selector": "",
                    "status": false,
                    "value": ""
                },
                "nodeType": 0
            },
            "0": {
                "invocation": {
                    "address": "0xd072ca673e848fabd902f9b19f21dc46282b45ba",
                    "callData": "0x0000000000000000000000003ee29d578435196230d3ce1481d29e5d8653c1bc000000000000000000000000000000000000000000000000000000609fed7600",
                    "decodedMethod": {
                        "callParams": [
                            {
                                "name": "recipient",
                                "type": "address",
                                "value": "0x3ee29d578435196230d3ce1481d29e5d8653c1bc"
                            },
                            {
                                "decimalAvailable": true,
                                "name": "amount",
                                "type": "uint256",
                                "value": "415,000,000,000"
                            }
                        ],
                        "constructorArguments": "",
                        "name": "transfer",
                        "returnParams": [
                            {
                                "name": "",
                                "type": "bool",
                                "value": true
                            }
                        ],
                        "signature": "transfer(address,uint256)"
                    },
                    "errorInfo": "",
                    "fromAddress": "0x1d8f6f8ad5e44cfdbb671ee49b5b20c6bb657b97",
                    "gasUsed": 51766,
                    "id": 0,
                    "methodDecoded": true,
                    "operation": "CALL",
                    "output": "0x0000000000000000000000000000000000000000000000000000000000000001",
                    "revert": false,
                    "revertMessage": "",
                    "selector": "0xa9059cbb",
                    "status": true,
                    "value": "0"
                },
                "nodeType": 0
            },
            "1": {
                "event": {
                    "contract": "0xd072ca673e848fabd902f9b19f21dc46282b45ba",
                    "decodedLog": {
                        "name": "Transfer",
                        "params": [
                            {
                                "name": "from",
                                "type": "address",
                                "value": "0x1d8f6f8ad5e44cfdbb671ee49b5b20c6bb657b97"
                            },
                            {
                                "name": "to",
                                "type": "address",
                                "value": "0x3ee29d578435196230d3ce1481d29e5d8653c1bc"
                            },
                            {
                                "decimalAvailable": true,
                                "name": "value",
                                "type": "uint256",
                                "value": "415,000,000,000"
                            }
                        ],
                        "signature": "Transfer(address,address,uint256)"
                    },
                    "id": 1,
                    "logData": "0x000000000000000000000000000000000000000000000000000000609fed7600",
                    "logDecoded": true,
                    "operation": "EVENT",
                    "revert": false,
                    "status": true,
                    "topics": [
                        "0xddf252ad1be2c89b69c2b068fc378daa952ba7f163c4a11628f55a4df523b3ef",
                        "0x0000000000000000000000001d8f6f8ad5e44cfdbb671ee49b5b20c6bb657b97",
                        "0x0000000000000000000000003ee29d578435196230d3ce1481d29e5d8653c1bc"
                    ]
                },
                "nodeType": 1
            }
        },
        "gasFlame": [
            {
                "children": [
                    {
                        "children": [
                            {
                                "children": [],
                                "depth": 0,
                                "name": "Initial Gas",
                                "value": 23064
                            },
                            {
                                "children": [],
                                "depth": 0,
                                "name": "Executed Gas",
                                "value": 28702
                            }
                        ],
                        "depth": -1,
                        "name": "Actual Gas Used",
                        "value": 51766
                    },
                    {
                        "children": [],
                        "depth": -1,
                        "name": "Refunded Gas",
                        "value": 0
                    }
                ],
                "depth": -2,
                "name": "Total Gas",
                "value": 51766
            }
        ],
        "isConfirmed": true,
        "mainTrace": [
            {
                "children": [
                    {
                        "children": [
                            {
                                "children": [],
                                "depth": 1,
                                "id": 1,
                                "order": 1
                            }
                        ],
                        "depth": 0,
                        "id": 0,
                        "order": 0
                    }
                ],
                "depth": -1,
                "id": -1,
                "order": -1
            }
        ],
        "mainTraceNodeCount": 2,
        "parentIdMap": {
            "0": -1,
            "1": 0
        },
        "tidyTrace": [
            {
                "children": [
                    {
                        "children": [
                            {
                                "children": [],
                                "depth": 1,
                                "id": 1,
                                "order": 1
                            }
                        ],
                        "depth": 0,
                        "id": 0,
                        "order": 0
                    }
                ],
                "depth": -1,
                "id": -1,
                "order": -1
            }
        ],
        "tidyTraceNodeCount": 2
    },
    "state_change": {
        "stateChanges": [
            {
                "address": "0xd072ca673e848fabd902f9b19f21dc46282b45ba",
                "erc": "",
                "slots": [
                    {
                        "current": "0x000000000000000000000000000000000000000000000000000000609fed7600",
                        "key": "0x33105709b1382f916d9430293387d1f2e769a01587d70748177288f691ddcd76",
                        "prev": "0x0000000000000000000000000000000000000000000000000000000000000000"
                    },
                    {
                        "current": "0x0000000000000000000000000000000000000000000000000003242f6a8fbe00",
                        "key": "0x8ce132174b6aa5220c868a46beeb4f7aa4411776aaa890754a44dfef9c4cf1dc",
                        "prev": "0x000000000000000000000000000000000000000000000000000324900a7d3400"
                    }
                ],
                "storageVariables": []
            }
        ]
    }
}