{
    "balance_change": {
        "balanceChanges": [
            {
                "account": "0x30d0831aa6ea3bb4f73adc567c2706d20b7ee2e5",
                "assets": [
                    {
                        "address": "0xeeeeeeeeeeeeeeeeeeeeeeeeeeeeeeeeeeeeeeee",
                        "amount": "1.626198200152032696",
                        "iconUrl": "https://assets.blocksec.com/image/1663669189317-3.png",
                        "isERC1155": false,
                        "isERC721": false,
                        "sign": false,
                        "value": "2642.7672187839998224"
                    }
                ]
            },
            {
                "account": "0xae0ee0a63a2ce6baeeffe56e7714fb4efe48d419",
                "assets": [
                    {
                        "address": "0xeeeeeeeeeeeeeeeeeeeeeeeeeeeeeeeeeeeeeeee",
                        "amount": "1.626",
                        "iconUrl": "https://assets.blocksec.com/image/1663669189317-3.png",
                        "isERC1155": false,
                        "isERC721": false,
                        "sign": true,
                        "value": "2642.4451199999998225"
                    }
                ]
            },
            {
                "account": "0xc662c410c0ecf747543f5ba90660f6abebd9c8c4",
                "assets": [
                    {
                        "address": "0xeeeeeeeeeeeeeeeeeeeeeeeeeeeeeeeeeeeeeeee",
                        "amount": "0.000198200152032696",
                        "iconUrl": "https://assets.blocksec.com/image/1663669189317-3.png",
                        "isERC1155": false,
                        "isERC721": false,
                        "sign": true,
                        "value": "0.32209903101823997838"
                    }
                ]
            }
        ]
    },
    "profile": {
        "basic_info": {
            "baseFee": "8.826959712",
            "blockNumber": 18233518,
            "callData": "0xe2bbb1580000000000000000000000000000000000000000000000001690b66294c900000391cd37966bebbcc3fa0afe191eb9f2df84e54be33885eebd86d22290fe61a9",
            "debugEnable": true,
            "errorInfo": "",
            "eventCount": 2,
            "feeRecipient": "0x95222290dd7278aa3ddd389cc1e1d165cc4bafe5",
            "formatValue": "1.626198200152032696",
            "gasLimit": 117230,
            "gasPrice": "8.926959712",
            "gasUsed": 115855,
            "intTxnCount": 3,
            "internalRevert": false,
            "internalRevertMessage": "",
            "isContractCreation": false,
            "isFlashloan": false,
            "maxFee": "11.963076706",
            "nonce": 3,
            "overwritedBlockNumber": -1,
            "priorityFee": "0.1",
            "receiver": "0xae0ee0a63a2ce6baeeffe56e7714fb4efe48d419",
            "revertMessage": "",
            "sender": "0x30d0831aa6ea3bb4f73adc567c2706d20b7ee2e5",
            "simulationEnable": true,
            "sourceTxnHash": "0x4c0bdb8f8466b977cc43c217cd79449596ae66b28f3f97c48893b94e39a14347",
            "status": true,
            "timestamp": "2023-09-28T10:04:23Z",
            "transactionFee": "0.00103423291743376",
            "txnHash": "0x4c0bdb8f8466b977cc43c217cd79449596ae66b28f3f97c48893b94e39a14347",
            "txnIndex": 139,
            "type": 2,
            "value": "1626198200152032696"
        },
        "fund_flow": [
            {
                "amount": "1.626198200152032696",
                "from": "0x30d0831aa6ea3bb4f73adc567c2706d20b7ee2e5",
                "id": 1,
                "isERC1155": false,
                "isERC721": false,
                "isReverted": false,
                "order": 1,
                "to": "0xae0ee0a63a2ce6baeeffe56e7714fb4efe48d419",
                "token": "0xeeeeeeeeeeeeeeeeeeeeeeeeeeeeeeeeeeeeeeee"
            },
            {
                "amount": "0.000198200152032696",
                "from": "0xae0ee0a63a2ce6baeeffe56e7714fb4efe48d419",
                "id": 2,
                "isERC1155": false,
                "isERC721": false,
                "isReverted": false,
                "order": 2,
                "to": "0xc662c410c0ecf747543f5ba90660f6abebd9c8c4",
                "token": "0xeeeeeeeeeeeeeeeeeeeeeeeeeeeeeeeeeeeeeeee"
            }
        ],
        "token_infos": [
            {
                "address": "0xc02aaa39b223fe8d0a0e5c4f27ead9083c756cc2",
                "decimals": 18
            },
            {
                "address": "0xeeeeeeeeeeeeeeeeeeeeeeeeeeeeeeeeeeeeeeee",
                "decimals": 18
            }
        ]
    },
    "address_label": {
        "labels": [
            {
                "address": "0x0000000000000000000000000000000000000002",
                "label": "Precompiled"
            },
            {
                "address": "0x0000000000000000000000000000000000000003",
                "label": "Precompiled"
            },
            {
                "address": "0x0000000000000000000000000000000000000004",
                "label": "Precompiled"
            },
            {
                "address": "0xeeeeeeeeeeeeeeeeeeeeeeeeeeeeeeeeeeeeeeee",
                "label": "Ether"
            },
            {
                "address": "0x16938e4b59297060484fa56a12594d8d6f4177e8",
                "label": "Starknet"
            },
            {
                "address": "0xae0ee0a63a2ce6baeeffe56e7714fb4efe48d419",
                "label": "StarkNet: StarkGate ETH Bridge"
            },
            {
                "address": "0x455603ad9ae671f6c1f0f746f24d7904ca603581",
                "label": "StarknetEthBridge"
            },
            {
                "address": "0x0000000000000000000000000000000000000001",
                "label": "Precompiled"
            },
            {
                "address": "0xc662c410c0ecf747543f5ba90660f6abebd9c8c4",
                "label": "Starknet: Core Contract"
            }
        ]
    },
    "trace": {
        "accountLabels": null,
        "dataMap": {
            "-1": {
                "invocation": {
                    "address": "0x30d0831aa6ea3bb4f73adc567c2706d20b7ee2e5",
                    "callData": "",
                    "decodedMethod": null,
                    "errorInfo": "",
                    "fromAddress": "",
                    "gasUsed": 0,
                    "id": -1,
                    "methodDecoded": false,
                    "operation": "",
                    "output": "",
                    "revert": false,
                    "revertMessage": "",
                    "selector": "",
                    "status": false,
                    "value": ""
                },
                "nodeType": 0
            },
            "0": {
                "invocation": {
                    "address": "0xae0ee0a63a2ce6baeeffe56e7714fb4efe48d419",
                    "callData": "0x0000000000000000000000000000000000000000000000001690b66294c900000391cd37966bebbcc3fa0afe191eb9f2df84e54be33885eebd86d22290fe61a9",
                    "decodedMethod": {
                        "callParams": [
                            {
                                "name": "amount",
                                "type": "uint256",
                                "value": "1,626,000,000,000,000,000"
                            },
                            {
                                "name": "l2Recipient",
                                "type": "uint256",
                                "value": "1,614,547,726,782,063,464,303,946,274,678,586,912,347,611,711,744,825,357,991,802,106,695,861,035,433"
                            }
                        ],
                        "constructorArguments": "",
                        "name": "deposit",
                        "returnParams": [],
                        "signature": "deposit(uint256,uint256)"
                    },
                    "errorInfo": "",
                    "fromAddress": "0x30d0831aa6ea3bb4f73adc567c2706d20b7ee2e5",
                    "gasUsed": 115855,
                    "id": 0,
                    "methodDecoded": true,
                    "operation": "CALL",
                    "output": "",
                    "revert": false,
                    "revertMessage": "",
                    "selector": "0xe2bbb158",
                    "status": true,
                    "value": "1.626198200152032696"
                },
                "nodeType": 0
            },
            "1": {
                "invocation": {
                    "address": "0x455603ad9ae671f6c1f0f746f24d7904ca603581",
                    "callData": "0x0000000000000000000000000000000000000000000000001690b66294c900000391cd37966bebbcc3fa0afe191eb9f2df84e54be33885eebd86d22290fe61a9",
                    "decodedMethod": {
                        "callParams": [
                            {
                                "name": "amount",
                                "type": "uint256",
                                "value": "1,626,000,000,000,000,000"
                            },
                            {
                                "name": "l2Recipient",
                                "type": "uint256",
                                "value": "1,614,547,726,782,063,464,303,946,274,678,586,912,347,611,711,744,825,357,991,802,106,695,861,035,433"
                            }
                        ],
                        "constructorArguments": "",
                        "name": "deposit",
                        "returnParams": [],
                        "signature": "deposit(uint256,uint256)"
                    },
                    "errorInfo": "",
                    "fromAddress": "0xae0ee0a63a2ce6baeeffe56e7714fb4efe48d419",
                    "gasUsed": 89037,
                    "id": 1,
                    "methodDecoded": true,
                    "operation": "DELEGATECALL",
                    "output": "",
                    "revert": false,
                    "revertMessage": "",
                    "selector": "0xe2bbb158",
                    "status": true,
                    "value": "1.626198200152032696"
                },
                "nodeType": 0
            },
            "2": {
                "invocation": {
                    "address": "0xc662c410c0ecf747543f5ba90660f6abebd9c8c4",
                    "callData": "0x073314940630fd6dcda0d772d4c972c4e0a9946bef9dabf4ef84eda8ef542b8202d757788a8d8d6f21d1cd40bce38a8222d70654214e96ff95d8086e684fbee5000000000000000000000000000000000000000000000000000000000000006000000000000000000000000000000000000000000000000000000000000000030391cd37966bebbcc3fa0afe191eb9f2df84e54be33885eebd86d22290fe61a90000000000000000000000000000000000000000000000001690b66294c900000000000000000000000000000000000000000000000000000000000000000000",
                    "decodedMethod": {
                        "callParams": [
                            {
                                "name": "toAddress",
                                "type": "uint256",
                                "value": "3,256,441,166,037,631,918,262,930,812,410,838,598,500,200,462,657,642,943,867,372,734,773,841,898,370"
                            },
                            {
                                "name": "selector",
                                "type": "uint256",
                                "value": "1,285,101,517,810,983,806,491,589,552,491,143,496,277,809,242,732,141,897,358,598,292,095,611,420,389"
                            },
                            {
                                "name": "payload",
                                "type": "uint256[]",
                                "value": [
                                    "1,614,547,726,782,063,464,303,946,274,678,586,912,347,611,711,744,825,357,991,802,106,695,861,035,433",
                                    "1,626,000,000,000,000,000",
                                    "0"
                                ]
                            }
                        ],
                        "constructorArguments": "",
                        "name": "sendMessageToL2",
                        "returnParams": [
                            {
                                "name": "",
                                "type": "bytes32",
                                "value": "0xd61d1c7c863d9c8b4b59c61a59fb70dba7bd872d2aaabfa18ce40ffb374de0c1"
                            },
                            {
                                "name": "",
                                "type": "uint256",
                                "value": "1,339,644"
                            }
                        ],
                        "signature": "sendMessageToL2(uint256,uint256,uint256[])"
                    },
                    "errorInfo": "",
                    "fromAddress": "0xae0ee0a63a2ce6baeeffe56e7714fb4efe48d419",
                    "gasUsed": 39012,
                    "id": 2,
                    "methodDecoded": true,
                    "operation": "CALL",
                    "output": "0xd61d1c7c863d9c8b4b59c61a59fb70dba7bd872d2aaabfa18ce40ffb374de0c100000000000000000000000000000000000000000000000000000000001470fc",
                    "revert": false,
                    "revertMessage": "",
                    "selector": "0x3e3aa6c5",
                    "status": true,
                    "value": "0.000198200152032696"
                },
                "nodeType": 0
            },
            "3": {
                "invocation": {
                    "address": "0x16938e4b59297060484fa56a12594d8d6f4177e8",
                    "callData": "0x073314940630fd6dcda0d772d4c972c4e0a9946bef9dabf4ef84eda8ef542b8202d757788a8d8d6f21d1cd40bce38a8222d70654214e96ff95d8086e684fbee5000000000000000000000000000000000000000000000000000000000000006000000000000000000000000000000000000000000000000000000000000000030391cd37966bebbcc3fa0afe191eb9f2df84e54be33885eebd86d22290fe61a90000000000000000000000000000000000000000000000001690b66294c900000000000000000000000000000000000000000000000000000000000000000000",
                    "decodedMethod": {
                        "callParams": [
                            {
                                "name": "toAddress",
                                "type": "uint256",
                                "value": "3,256,441,166,037,631,918,262,930,812,410,838,598,500,200,462,657,642,943,867,372,734,773,841,898,370"
                            },
                            {
                                "name": "selector",
                                "type": "uint256",
                                "value": "1,285,101,517,810,983,806,491,589,552,491,143,496,277,809,242,732,141,897,358,598,292,095,611,420,389"
                            },
                            {
                                "name": "payload",
                                "type": "uint256[]",
                                "value": [
                                    "1,614,547,726,782,063,464,303,946,274,678,586,912,347,611,711,744,825,357,991,802,106,695,861,035,433",
                                    "1,626,000,000,000,000,000",
                                    "0"
                                ]
                            }
                        ],
                        "constructorArguments": "",
                        "name": "sendMessageToL2",
                        "returnParams": [
                            {
                                "name": "",
                                "type": "bytes32",
                                "value": "0xd61d1c7c863d9c8b4b59c61a59fb70dba7bd872d2aaabfa18ce40ffb374de0c1"
                            },
                            {
                                "name": "",
                                "type": "uint256",
                                "value": "1,339,644"
                            }
                        ],
                        "signature": "sendMessageToL2(uint256,uint256,uint256[])"
                    },
                    "errorInfo": "",
                    "fromAddress": "0xc662c410c0ecf747543f5ba90660f6abebd9c8c4",
                    "gasUsed": 33954,
                    "id": 3,
                    "methodDecoded": true,
                    "operation": "DELEGATECALL",
                    "output": "0xd61d1c7c863d9c8b4b59c61a59fb70dba7bd872d2aaabfa18ce40ffb374de0c100000000000000000000000000000000000000000000000000000000001470fc",
                    "revert": false,
                    "revertMessage": "",
                    "selector": "0x3e3aa6c5",
                    "status": true,
                    "value": "0.000198200152032696"
                },
                "nodeType": 0
            },
            "4": {
                "event": {
                    "contract": "0xc662c410c0ecf747543f5ba90660f6abebd9c8c4",
                    "decodedLog": {
                        "name": "LogMessageToL2",
                        "params": [
                            {
                                "name": "fromAddress",
                                "type": "address",
                                "value": "0xae0ee0a63a2ce6baeeffe56e7714fb4efe48d419"
                            },
                            {
                                "name": "toAddress",
                                "type": "uint256",
                                "value": "3,256,441,166,037,631,918,262,930,812,410,838,598,500,200,462,657,642,943,867,372,734,773,841,898,370"
                            },
                            {
                                "name": "selector",
                                "type": "uint256",
                                "value": "1,285,101,517,810,983,806,491,589,552,491,143,496,277,809,242,732,141,897,358,598,292,095,611,420,389"
                            },
                            {
                                "name": "payload",
                                "type": "uint256[]",
                                "value": [
                                    "1,614,547,726,782,063,464,303,946,274,678,586,912,347,611,711,744,825,357,991,802,106,695,861,035,433",
                                    "1,626,000,000,000,000,000",
                                    "0"
                                ]
                            },
                            {
                                "name": "nonce",
                                "type": "uint256",
                                "value": "1,339,644"
                            },
                            {
                                "name": "fee",
                                "type": "uint256",
                                "value": "198,200,152,032,696"
                            }
                        ],
                        "signature": "LogMessageToL2(address,uint256,uint256,uint256[],uint256,uint256)"
                    },
                    "id": 4,
                    "logData": "0x000000000000000000000000000000000000000000000000000000000000006000000000000000000000000000000000000000000000000000000000001470fc0000000000000000000000000000000000000000000000000000b44311a805b800000000000000000000000000000000000000000000000000000000000000030391cd37966bebbcc3fa0afe191eb9f2df84e54be33885eebd86d22290fe61a90000000000000000000000000000000000000000000000001690b66294c900000000000000000000000000000000000000000000000000000000000000000000",
                    "logDecoded": true,
                    "operation": "EVENT",
                    "revert": false,
                    "status": true,
                    "topics": [
                        "0xdb80dd488acf86d17c747445b0eabb5d57c541d3bd7b6b87af987858e5066b2b",
                        "0x000000000000000000000000ae0ee0a63a2ce6baeeffe56e7714fb4efe48d419",
                        "0x073314940630fd6dcda0d772d4c972c4e0a9946bef9dabf4ef84eda8ef542b82",
                        "0x02d757788a8d8d6f21d1cd40bce38a8222d70654214e96ff95d8086e684fbee5"
                    ]
                },
                "nodeType": 1
            },
            "5": {
                "event": {
                    "contract": "0xae0ee0a63a2ce6baeeffe56e7714fb4efe48d419",
                    "decodedLog": {
                        "name": "LogDeposit",
                        "params": [
                            {
                                "name": "sender",
                                "type": "address",
                                "value": "0x30d0831aa6ea3bb4f73adc567c2706d20b7ee2e5"
                            },
                            {
                                "name": "l2Recipient",
                                "type": "uint256",
                                "value": "1,614,547,726,782,063,464,303,946,274,678,586,912,347,611,711,744,825,357,991,802,106,695,861,035,433"
                            },
                            {
                                "name": "amount",
                                "type": "uint256",
                                "value": "1,626,000,000,000,000,000"
                            },
                            {
                                "name": "nonce",
                                "type": "uint256",
                                "value": "1,339,644"
                            },
                            {
                                "name": "fee",
                                "type": "uint256",
                                "value": "198,200,152,032,696"
                            }
                        ],
                        "signature": "LogDeposit(address,uint256,uint256,uint256,uint256)"
                    },
                    "id": 5,
                    "logData": "0x0000000000000000000000000000000000000000000000001690b66294c9000000000000000000000000000000000000000000000000000000000000001470fc0000000000000000000000000000000000000000000000000000b44311a805b8",
                    "logDecoded": true,
                    "operation": "EVENT",
                    "revert": false,
                    "status": true,
                    "topics": [
                        "0x5b5dbc6c64043a15d3fe6943a6e443a826b78755edc257b2ec890c022225dbcf",
                        "0x00000000000000000000000030d0831aa6ea3bb4f73adc567c2706d20b7ee2e5",
                        "0x0391cd37966bebbcc3fa0afe191eb9f2df84e54be33885eebd86d22290fe61a9"
                    ]
                },
                "nodeType": 1
            }
        },
        "gasFlame": [
            {
                "children": [
                    {
                        "children": [
                            {
                                "children": [],
                                "depth": 0,
                                "name": "Initial Gas",
                                "value": 21776
                            },
                            {
                                "children": [
                                    {
                                        "children": [
                                            {
                                                "children": [
                                                    {
                                                        "children": [],
                                                        "depth": 3,
                                                        "name": "sendMessageToL2",
                                                        "value": 33954
                                                    }
                                                ],
                                                "depth": 2,
                                                "name": "sendMessageToL2",
                                                "value": 39012
                                            }
                                        ],
                                        "depth": 1,
                                        "name": "deposit",
                                        "value": 89037
                                    }
                                ],
                                "depth": 0,
                                "name": "Executed Gas",
                                "value": 94079
                            }
                        ],
                        "depth": -1,
                        "name": "Actual Gas Used",
                        "value": 115855
                    },
                    {
                        "children": [],
                        "depth": -1,
                        "name": "Refunded Gas",
                        "value": 0
                    }
                ],
                "depth": -2,
                "name": "Total Gas",
                "value": 115855
            }
        ],
        "isConfirmed": true,
        "mainTrace": [
            {
                "children": [
                    {
                        "children": [
                            {
                                "children": [
                                    {
                                        "children": [
                                            {
                                                "children": [
                                                    {
                                                        "children": [],
                                                        "depth": 4,
                                                        "id": 4,
                                                        "order": 4
                                                    }
                                                ],
                                                "depth": 3,
                                                "id": 3,
                                                "order": 3
                                            }
                                        ],
                                        "depth": 2,
                                        "id": 2,
                                        "order": 2
                                    },
                                    {
                                        "children": [],
                                        "depth": 2,
                                        "id": 5,
                                        "order": 5
                                    }
                                ],
                                "depth": 1,
                                "id": 1,
                                "order": 1
                            }
                        ],
                        "depth": 0,
                        "id": 0,
                        "order": 0
                    }
                ],
                "depth": -1,
                "id": -1,
                "order": -1
            }
        ],
        "mainTraceNodeCount": 6,
        "parentIdMap": {
            "0": -1,
            "1": 0,
            "2": 1,
            "3": 2,
            "4": 3,
            "5": 1
        },
        "tidyTrace": [
            {
                "children": [
                    {
                        "children": [
                            {
                                "children": [
                                    {
                                        "children": [
                                            {
                                                "children": [
                                                    {
                                                        "children": [],
                                                        "depth": 4,
                                                        "id": 4,
                                                        "order": 4
                                                    }
                                                ],
                                                "depth": 3,
                                                "id": 3,
                                                "order": 3
                                            }
                                        ],
                                        "depth": 2,
                                        "id": 2,
                                        "order": 2
                                    },
                                    {
                                        "children": [],
                                        "depth": 2,
                                        "id": 5,
                                        "order": 5
                                    }
                                ],
                                "depth": 1,
                                "id": 1,
                                "order": 1
                            }
                        ],
                        "depth": 0,
                        "id": 0,
                        "order": 0
                    }
                ],
                "depth": -1,
                "id": -1,
                "order": -1
            }
        ],
        "tidyTraceNodeCount": 6
    },
    "state_change": {
        "stateChanges": [
            {
                "address": "0xae0ee0a63a2ce6baeeffe56e7714fb4efe48d419",
                "erc": "",
                "slots": [
                    {
                        "current": "0x00000000000000000000000030d0831aa6ea3bb4f73adc567c2706d20b7ee2e5",
                        "key": "0x9ba9d3690d29f48824e967548e9daa48bb52ad02988fc16dcfd0880cef3038bc",
                        "prev": "0x0000000000000000000000000000000000000000000000000000000000000000"
                    }
                ],
                "storageVariables": []
            },
            {
                "address": "0xc662c410c0ecf747543f5ba90660f6abebd9c8c4",
                "erc": "",
                "slots": [
                    {
                        "current": "0x00000000000000000000000000000000000000000000000000000000001470fd",
                        "key": "0x40af3c5d10641ea6a095e7a9b843218461f4c8d604207c721ffceec9721b1ac5",
                        "prev": "0x00000000000000000000000000000000000000000000000000000000001470fc"
                    },
                    {
                        "current": "0x0000000000000000000000000000000000000000000000000000b44311a805b9",
                        "key": "0xd313a4946d292a7ba9ce7262df5ff788b2bf27ae0669058d50ddd270b8d57e08",
                        "prev": "0x0000000000000000000000000000000000000000000000000000000000000000"
                    }
                ],
                "storageVariables": []
            }
        ]
    }
}