{
    "balance_change": {
        "balanceChanges": []
    },
    "profile": {
        "basic_info": {
            "baseFee": "",
            "blockNumber": 4218239,
            "callData": "0x0a19b14a000000000000000000000000ef68e7c694f40c8202821edf525de3782458639f0000000000000000000000000000000000000000000000056bc75e2d631000000000000000000000000000000000000000000000000000000000000000000000000000000000000000000000000000000000000000000000006e2255f409800000000000000000000000000000000000000000000000000000000000004084700000000000000000000000000000000000000000000000000000000070cb5cc5000000000000000000000000eb76e2196b22ff8d12e9dac79866ee8d2ffbf370000000000000000000000000000000000000000000000000000000000000001bc6efdae136342a9478224f3c8a0d54e23c24dd4c129f971cc231da9c251ce2ab476641842127a4339fc0e17efa4a81c9347a71b4fba821e38146779dad672ae70000000000000000000000000000000000000000000000056bc75e2d63100000",
            "debugEnable": true,
            "errorInfo": "",
            "eventCount": 1,
            "feeRecipient": "0xea674fdde714fd979de3edf0f56aa9716b898ec8",
            "formatValue": "0",
            "gasLimit": 250000,
            "gasPrice": "4",
            "gasUsed": 108114,
            "intTxnCount": 2,
            "internalRevert": false,
            "internalRevertMessage": "",
            "isContractCreation": false,
            "isFlashloan": false,
            "maxFee": "",
            "nonce": 645,
            "overwritedBlockNumber": -1,
            "priorityFee": "",
            "receiver": "0x8d12a197cb00d4747a1fe03395095ce2a5cc6819",
            "revertMessage": "",
            "sender": "0xcf0dbf7b0439f57528c45367927df876141f8a1e",
            "simulationEnable": true,
            "sourceTxnHash": "0x4c95709facf51965b70ea09a58d27af027600dcad8a7d2895ae6dc58e8fa2d55",
            "status": true,
            "timestamp": "2017-08-30T01:22:58Z",
            "transactionFee": "0.000432456",
            "txnHash": "0x4c95709facf51965b70ea09a58d27af027600dcad8a7d2895ae6dc58e8fa2d55",
            "txnIndex": 99,
            "type": 0,
            "value": "0"
        },
        "fund_flow": [],
        "token_infos": [
            {
                "address": "0xeeeeeeeeeeeeeeeeeeeeeeeeeeeeeeeeeeeeeeee",
                "decimals": 18
            },
            {
                "address": "0xc02aaa39b223fe8d0a0e5c4f27ead9083c756cc2",
                "decimals": 18
            }
        ]
    },
    "address_label": {
        "labels": [
            {
                "address": "0xef68e7c694f40c8202821edf525de3782458639f",
                "label": "Loopring: Old Token"
            },
            {
                "address": "0x0000000000000000000000000000000000000002",
                "label": "Precompiled"
            },
            {
                "address": "0x0000000000000000000000000000000000000000",
                "label": "Null Address"
            },
            {
                "address": "0x0000000000000000000000000000000000000001",
                "label": "Precompiled"
            },
            {
                "address": "0x0000000000000000000000000000000000000003",
                "label": "Precompiled"
            },
            {
                "address": "0x0000000000000000000000000000000000000004",
                "label": "Precompiled"
            },
            {
                "address": "0xeeeeeeeeeeeeeeeeeeeeeeeeeeeeeeeeeeeeeeee",
                "label": "Ether"
            },
            {
                "address": "0x8d12a197cb00d4747a1fe03395095ce2a5cc6819",
                "label": "EtherDelta"
            }
        ]
    },
    "trace": {
        "accountLabels": null,
        "dataMap": {
            "-1": {
                "invocation": {
                    "address": "0xcf0dbf7b0439f57528c45367927df876141f8a1e",
                    "callData": "",
                    "decodedMethod": null,
                    "errorInfo": "",
                    "fromAddress": "",
                    "gasUsed": 0,
                    "id": -1,
                    "methodDecoded": false,
                    "operation": "",
                    "output": "",
                    "revert": false,
                    "revertMessage": "",
                    "selector": "",
                    "status": false,
                    "value": ""
                },
                "nodeType": 0
            },
            "0": {
                "invocation": {
                    "address": "0x8d12a197cb00d4747a1fe03395095ce2a5cc6819",
                    "callData": "0x000000000000000000000000ef68e7c694f40c8202821edf525de3782458639f0000000000000000000000000000000000000000000000056bc75e2d631000000000000000000000000000000000000000000000000000000000000000000000000000000000000000000000000000000000000000000000006e2255f409800000000000000000000000000000000000000000000000000000000000004084700000000000000000000000000000000000000000000000000000000070cb5cc5000000000000000000000000eb76e2196b22ff8d12e9dac79866ee8d2ffbf370000000000000000000000000000000000000000000000000000000000000001bc6efdae136342a9478224f3c8a0d54e23c24dd4c129f971cc231da9c251ce2ab476641842127a4339fc0e17efa4a81c9347a71b4fba821e38146779dad672ae70000000000000000000000000000000000000000000000056bc75e2d63100000",
                    "decodedMethod": {
                        "callParams": [
                            {
                                "name": "tokenGet",
                                "type": "address",
                                "value": "0xef68e7c694f40c8202821edf525de3782458639f"
                            },
                            {
                                "name": "amountGet",
                                "type": "uint256",
                                "value": "100,000,000,000,000,000,000"
                            },
                            {
                                "name": "tokenGive",
                                "type": "address",
                                "value": "0x0000000000000000000000000000000000000000"
                            },
                            {
                                "name": "amountGive",
                                "type": "uint256",
                                "value": "31,000,000,000,000,000"
                            },
                            {
                                "name": "expires",
                                "type": "uint256",
                                "value": "4,228,208"
                            },
                            {
                                "name": "nonce",
                                "type": "uint256",
                                "value": "1,892,375,749"
                            },
                            {
                                "name": "user",
                                "type": "address",
                                "value": "0xeb76e2196b22ff8d12e9dac79866ee8d2ffbf370"
                            },
                            {
                                "name": "v",
                                "type": "uint8",
                                "value": "27"
                            },
                            {
                                "name": "r",
                                "type": "bytes32",
                                "value": "0xc6efdae136342a9478224f3c8a0d54e23c24dd4c129f971cc231da9c251ce2ab"
                            },
                            {
                                "name": "s",
                                "type": "bytes32",
                                "value": "0x476641842127a4339fc0e17efa4a81c9347a71b4fba821e38146779dad672ae7"
                            },
                            {
                                "name": "amount",
                                "type": "uint256",
                                "value": "100,000,000,000,000,000,000"
                            }
                        ],
                        "constructorArguments": "",
                        "name": "trade",
                        "returnParams": [],
                        "signature": "trade(address,uint256,address,uint256,uint256,uint256,address,uint8,bytes32,bytes32,uint256)"
                    },
                    "errorInfo": "",
                    "fromAddress": "0xcf0dbf7b0439f57528c45367927df876141f8a1e",
                    "gasUsed": 108114,
                    "id": 0,
                    "methodDecoded": true,
                    "operation": "CALL",
                    "output": "",
                    "revert": false,
                    "revertMessage": "",
                    "selector": "0x0a19b14a",
                    "status": true,
                    "value": "0"
                },
                "nodeType": 0
            },
            "1": {
                "invocation": {
                    "address": "0x0000000000000000000000000000000000000002",
                    "callData": "0xcb00d4747a1fe03395095ce2a5cc6819ef68e7c694f40c8202821edf525de3782458639f0000000000000000000000000000000000000000000000056bc75e2d631000000000000000000000000000000000000000000000000000000000000000000000000000000000000000000000006e2255f409800000000000000000000000000000000000000000000000000000000000004084700000000000000000000000000000000000000000000000000000000070cb5cc5",
                    "decodedMethod": {
                        "callParams": [
                            {
                                "name": "data",
                                "type": "bytes",
                                "value": "0x8d12a197cb00d4747a1fe03395095ce2a5cc6819ef68e7c694f40c8202821edf525de3782458639f0000000000000000000000000000000000000000000000056bc75e2d631000000000000000000000000000000000000000000000000000000000000000000000000000000000000000000000006e2255f409800000000000000000000000000000000000000000000000000000000000004084700000000000000000000000000000000000000000000000000000000070cb5cc5"
                            }
                        ],
                        "constructorArguments": "",
                        "name": "sha256hash",
                        "returnParams": [
                            {
                                "name": "hash",
                                "type": "bytes32",
                                "value": "0x7ba9d8a76032391c83fe2074646c9f1a53fd062b9b424690dfdb2fd4253e546e"
                            }
                        ],
                        "signature": "sha256hash(bytes)"
                    },
                    "errorInfo": "",
                    "fromAddress": "0x8d12a197cb00d4747a1fe03395095ce2a5cc6819",
                    "gasUsed": 132,
                    "id": 1,
                    "methodDecoded": true,
                    "operation": "CALL",
                    "output": "0x7ba9d8a76032391c83fe2074646c9f1a53fd062b9b424690dfdb2fd4253e546e",
                    "revert": false,
                    "revertMessage": "",
                    "selector": "0x8d12a197",
                    "status": true,
                    "value": "0"
                },
                "nodeType": 0
            },
            "2": {
                "invocation": {
                    "address": "0x0000000000000000000000000000000000000001",
                    "callData": "0xf97e623cf5005a7c56ca3ef77f62bf34c58524eee91a031da99f3fc2000000000000000000000000000000000000000000000000000000000000001bc6efdae136342a9478224f3c8a0d54e23c24dd4c129f971cc231da9c251ce2ab476641842127a4339fc0e17efa4a81c9347a71b4fba821e38146779dad672ae7",
                    "decodedMethod": {
                        "callParams": [
                            {
                                "name": "hash",
                                "type": "bytes32",
                                "value": "0xe7803289f97e623cf5005a7c56ca3ef77f62bf34c58524eee91a031da99f3fc2"
                            },
                            {
                                "name": "v",
                                "type": "uint256",
                                "value": "27"
                            },
                            {
                                "name": "r",
                                "type": "bytes32",
                                "value": "0xc6efdae136342a9478224f3c8a0d54e23c24dd4c129f971cc231da9c251ce2ab"
                            },
                            {
                                "name": "s",
                                "type": "bytes32",
                                "value": "0x476641842127a4339fc0e17efa4a81c9347a71b4fba821e38146779dad672ae7"
                            }
                        ],
                        "constructorArguments": "",
                        "name": "ecrecover",
                        "returnParams": [
                            {
                                "name": "",
                                "type": "address",
                                "value": "0xeb76e2196b22ff8d12e9dac79866ee8d2ffbf370"
                            }
                        ],
                        "signature": "ecrecover(bytes32,uint256,bytes32,bytes32)"
                    },
                    "errorInfo": "",
                    "fromAddress": "0x8d12a197cb00d4747a1fe03395095ce2a5cc6819",
                    "gasUsed": 3000,
                    "id": 2,
                    "methodDecoded": true,
                    "operation": "CALL",
                    "output": "0x000000000000000000000000eb76e2196b22ff8d12e9dac79866ee8d2ffbf370",
                    "revert": false,
                    "revertMessage": "",
                    "selector": "0xe7803289",
                    "status": true,
                    "value": "0"
                },
                "nodeType": 0
            },
            "3": {
                "event": {
                    "contract": "0x8d12a197cb00d4747a1fe03395095ce2a5cc6819",
                    "decodedLog": {
                        "name": "Trade",
                        "params": [
                            {
                                "name": "tokenGet",
                                "type": "address",
                                "value": "0xef68e7c694f40c8202821edf525de3782458639f"
                            },
                            {
                                "name": "amountGet",
                                "type": "uint256",
                                "value": "100,000,000,000,000,000,000"
                            },
                            {
                                "name": "tokenGive",
                                "type": "address",
                                "value": "0x0000000000000000000000000000000000000000"
                            },
                            {
                                "name": "amountGive",
                                "type": "uint256",
                                "value": "31,000,000,000,000,000"
                            },
                            {
                                "name": "get",
                                "type": "address",
                                "value": "0xeb76e2196b22ff8d12e9dac79866ee8d2ffbf370"
                            },
                            {
                                "name": "give",
                                "type": "address",
                                "value": "0xcf0dbf7b0439f57528c45367927df876141f8a1e"
                            }
                        ],
                        "signature": "Trade(address,uint256,address,uint256,address,address)"
                    },
                    "id": 3,
                    "logData": "0x000000000000000000000000ef68e7c694f40c8202821edf525de3782458639f0000000000000000000000000000000000000000000000056bc75e2d631000000000000000000000000000000000000000000000000000000000000000000000000000000000000000000000000000000000000000000000006e2255f4098000000000000000000000000000eb76e2196b22ff8d12e9dac79866ee8d2ffbf370000000000000000000000000cf0dbf7b0439f57528c45367927df876141f8a1e",
                    "logDecoded": true,
                    "operation": "EVENT",
                    "revert": false,
                    "status": true,
                    "topics": [
                        "0x6effdda786735d5033bfad5f53e5131abcced9e52be6c507b62d639685fbed6d"
                    ]
                },
                "nodeType": 1
            }
        },
        "gasFlame": [
            {
                "children": [
                    {
                        "children": [
                            {
                                "children": [],
                                "depth": 0,
                                "name": "Initial Gas",
                                "value": 31128
                            },
                            {
                                "children": [
                                    {
                                        "children": [],
                                        "depth": 1,
                                        "name": "sha256hash",
                                        "value": 132
                                    },
                                    {
                                        "children": [],
                                        "depth": 1,
                                        "name": "ecrecover",
                                        "value": 3000
                                    }
                                ],
                                "depth": 0,
                                "name": "Executed Gas",
                                "value": 76986
                            }
                        ],
                        "depth": -1,
                        "name": "Actual Gas Used",
                        "value": 108114
                    },
                    {
                        "children": [],
                        "depth": -1,
                        "name": "Refunded Gas",
                        "value": 0
                    }
                ],
                "depth": -2,
                "name": "Total Gas",
                "value": 108114
            }
        ],
        "isConfirmed": true,
        "mainTrace": [
            {
                "children": [
                    {
                        "children": [
                            {
                                "children": [],
                                "depth": 1,
                                "id": 1,
                                "order": 1
                            },
                            {
                                "children": [],
                                "depth": 1,
                                "id": 2,
                                "order": 2
                            },
                            {
                                "children": [],
                                "depth": 1,
                                "id": 3,
                                "order": 3
                            }
                        ],
                        "depth": 0,
                        "id": 0,
                        "order": 0
                    }
                ],
                "depth": -1,
                "id": -1,
                "order": -1
            }
        ],
        "mainTraceNodeCount": 4,
        "parentIdMap": {
            "0": -1,
            "1": 0,
            "2": 0,
            "3": 0
        },
        "tidyTrace": [
            {
                "children": [
                    {
                        "children": [
                            {
                                "children": [],
                                "depth": 1,
                                "id": 1,
                                "order": 1
                            },
                            {
                                "children": [],
                                "depth": 1,
                                "id": 2,
                                "order": 2
                            },
                            {
                                "children": [],
                                "depth": 1,
                                "id": 3,
                                "order": 3
                            }
                        ],
                        "depth": 0,
                        "id": 0,
                        "order": 0
                    }
                ],
                "depth": -1,
                "id": -1,
                "order": -1
            }
        ],
        "tidyTraceNodeCount": 4
    },
    "state_change": {
        "stateChanges": [
            {
                "address": "0x8d12a197cb00d4747a1fe03395095ce2a5cc6819",
                "erc": "",
                "slots": [
                    {
                        "current": "0x00000000000000000000000000000000000000000000000011166bada6f82ef9",
                        "key": "0xafc7c386368c0fb962e22ade7198b81c31390bde2e7f7741d1b8ab932215495f",
                        "prev": "0x00000000000000000000000000000000000000000000000010a84957b2eeaef9"
                    },
                    {
                        "current": "0x0000000000000000000000000000000000000000000000056bc75e2d63100000",
                        "key": "0x5607c23189e723aa09207362bbc594ef42ba3219900fd8bc451f92668d86c283",
                        "prev": "0x0000000000000000000000000000000000000000000000000000000000000000"
                    },
                    {
                        "current": "0x0000000000000000000000000000000000000000000000beffc7faf7f8f868bb",
                        "key": "0x9a8220f6116cbee4d85a091b8294117a5e769e92e87f75fb46523af9331619a8",
                        "prev": "0x0000000000000000000000000000000000000000000000c46fb9298e74a668bb"
                    },
                    {
                        "current": "0x0000000000000000000000000000000000000000000000056bc75e2d63100000",
                        "key": "0xcc1f6123f77dae4a0641f6960481d327d5686f285a6464b3505241b1b028bc97",
                        "prev": "0x0000000000000000000000000000000000000000000000000000000000000000"
                    },
                    {
                        "current": "0x00000000000000000000000000000000000000000000000073aefab153b68684",
                        "key": "0xdec577dbb1fec535ac6e2cc561a3832961be9a695863308da6fe6bd953a12a6f",
                        "prev": "0x0000000000000000000000000000000000000000000000006f852a483b188684"
                    },
                    {
                        "current": "0x00000000000000000000000000000000000000000000000000f5232269808000",
                        "key": "0x2a36dee19986c8d9358838b07401e5dbe5a679f2adca4e930acee5a7809f2f7e",
                        "prev": "0x000000000000000000000000000000000000000000000000016345785d8a0000"
                    }
                ],
                "storageVariables": []
            }
        ]
    }
}