{
    "balance_change": {
        "balanceChanges": [
            {
                "account": "0x1631c6f7a2f2898cf174e972bb3c941fcc2946c9",
                "assets": [
                    {
                        "address": "0x12a48ac71c7e53785712a782c0e77d1f0c1398c9",
                        "amount": "300",
                        "iconUrl": "",
                        "isERC1155": false,
                        "isERC721": false,
                        "sign": false,
                        "value": ""
                    }
                ]
            },
            {
                "account": "0x1a06cc6cabbcb7340b9a7f3941dfaf2c32919480",
                "assets": [
                    {
                        "address": "0x12a48ac71c7e53785712a782c0e77d1f0c1398c9",
                        "amount": "300",
                        "iconUrl": "",
                        "isERC1155": false,
                        "isERC721": false,
                        "sign": true,
                        "value": ""
                    }
                ]
            }
        ]
    },
    "profile": {
        "basic_info": {
            "baseFee": "",
            "blockNumber": 6902797,
            "callData": "0xa9059cbb0000000000000000000000001a06cc6cabbcb7340b9a7f3941dfaf2c3291948000000000000000000000000000000000000000000000001043561a8829300000",
            "debugEnable": true,
            "errorInfo": "",
            "eventCount": 1,
            "feeRecipient": "0xea674fdde714fd979de3edf0f56aa9716b898ec8",
            "formatValue": "0",
            "gasLimit": 60000,
            "gasPrice": "5.361328125",
            "gasUsed": 21545,
            "intTxnCount": 0,
            "internalRevert": false,
            "internalRevertMessage": "",
            "isContractCreation": false,
            "isFlashloan": false,
            "maxFee": "",
            "nonce": 2,
            "overwritedBlockNumber": -1,
            "priorityFee": "",
            "receiver": "0x12a48ac71c7e53785712a782c0e77d1f0c1398c9",
            "revertMessage": "",
            "sender": "0x1631c6f7a2f2898cf174e972bb3c941fcc2946c9",
            "simulationEnable": true,
            "sourceTxnHash": "0x4c32eb06461d92e77b5b6ed3a06f95d0bd60927fa34ea540e5c41bddbd56ffeb",
            "status": true,
            "timestamp": "2018-12-17T11:05:20Z",
            "transactionFee": "0.000115509814453125",
            "txnHash": "0x4c32eb06461d92e77b5b6ed3a06f95d0bd60927fa34ea540e5c41bddbd56ffeb",
            "txnIndex": 25,
            "type": 0,
            "value": "0"
        },
        "fund_flow": [
            {
                "amount": "300",
                "from": "0x1631c6f7a2f2898cf174e972bb3c941fcc2946c9",
                "id": 1,
                "isERC1155": false,
                "isERC721": false,
                "isReverted": false,
                "order": 1,
                "to": "0x1a06cc6cabbcb7340b9a7f3941dfaf2c32919480",
                "token": "0x12a48ac71c7e53785712a782c0e77d1f0c1398c9"
            }
        ],
        "token_infos": [
            {
                "address": "0xc02aaa39b223fe8d0a0e5c4f27ead9083c756cc2",
                "decimals": 18
            },
            {
                "address": "0xeeeeeeeeeeeeeeeeeeeeeeeeeeeeeeeeeeeeeeee",
                "decimals": 18
            },
            {
                "address": "0x12a48ac71c7e53785712a782c0e77d1f0c1398c9",
                "decimals": 18
            }
        ]
    },
    "address_label": {
        "labels": [
            {
                "address": "0x12a48ac71c7e53785712a782c0e77d1f0c1398c9",
                "label": "DAP"
            },
            {
                "address": "0x0000000000000000000000000000000000000001",
                "label": "Precompiled"
            },
            {
                "address": "0x0000000000000000000000000000000000000002",
                "label": "Precompiled"
            },
            {
                "address": "0x0000000000000000000000000000000000000003",
                "label": "Precompiled"
            },
            {
                "address": "0x0000000000000000000000000000000000000004",
                "label": "Precompiled"
            },
            {
                "address": "0xeeeeeeeeeeeeeeeeeeeeeeeeeeeeeeeeeeeeeeee",
                "label": "Ether"
            }
        ]
    },
    "trace": {
        "accountLabels": null,
        "dataMap": {
            "-1": {
                "invocation": {
                    "address": "0x1631c6f7a2f2898cf174e972bb3c941fcc2946c9",
                    "callData": "",
                    "decodedMethod": null,
                    "errorInfo": "",
                    "fromAddress": "",
                    "gasUsed": 0,
                    "id": -1,
                    "methodDecoded": false,
                    "operation": "",
                    "output": "",
                    "revert": false,
                    "revertMessage": "",
                    "selector": "",
                    "status": false,
                    "value": ""
                },
                "nodeType": 0
            },
            "0": {
                "invocation": {
                    "address": "0x12a48ac71c7e53785712a782c0e77d1f0c1398c9",
                    "callData": "0x0000000000000000000000001a06cc6cabbcb7340b9a7f3941dfaf2c3291948000000000000000000000000000000000000000000000001043561a8829300000",
                    "decodedMethod": {
                        "callParams": [
                            {
                                "name": "_to",
                                "type": "address",
                                "value": "0x1a06cc6cabbcb7340b9a7f3941dfaf2c32919480"
                            },
                            {
                                "decimalAvailable": true,
                                "name": "_value",
                                "type": "uint256",
                                "value": "300,000,000,000,000,000,000"
                            }
                        ],
                        "constructorArguments": "",
                        "name": "transfer",
                        "returnParams": [
                            {
                                "name": "success",
                                "type": "bool",
                                "value": true
                            }
                        ],
                        "signature": "transfer(address,uint256)"
                    },
                    "errorInfo": "",
                    "fromAddress": "0x1631c6f7a2f2898cf174e972bb3c941fcc2946c9",
                    "gasUsed": 21545,
                    "id": 0,
                    "methodDecoded": true,
                    "operation": "CALL",
                    "output": "0x0000000000000000000000000000000000000000000000000000000000000001",
                    "revert": false,
                    "revertMessage": "",
                    "selector": "0xa9059cbb",
                    "status": true,
                    "value": "0"
                },
                "nodeType": 0
            },
            "1": {
                "event": {
                    "contract": "0x12a48ac71c7e53785712a782c0e77d1f0c1398c9",
                    "decodedLog": {
                        "name": "Transfer",
                        "params": [
                            {
                                "name": "_from",
                                "type": "address",
                                "value": "0x1631c6f7a2f2898cf174e972bb3c941fcc2946c9"
                            },
                            {
                                "name": "_to",
                                "type": "address",
                                "value": "0x1a06cc6cabbcb7340b9a7f3941dfaf2c32919480"
                            },
                            {
                                "decimalAvailable": true,
                                "name": "_value",
                                "type": "uint256",
                                "value": "300,000,000,000,000,000,000"
                            }
                        ],
                        "signature": "Transfer(address,address,uint256)"
                    },
                    "id": 1,
                    "logData": "0x00000000000000000000000000000000000000000000001043561a8829300000",
                    "logDecoded": true,
                    "operation": "EVENT",
                    "revert": false,
                    "status": true,
                    "topics": [
                        "0xddf252ad1be2c89b69c2b068fc378daa952ba7f163c4a11628f55a4df523b3ef",
                        "0x0000000000000000000000001631c6f7a2f2898cf174e972bb3c941fcc2946c9",
                        "0x0000000000000000000000001a06cc6cabbcb7340b9a7f3941dfaf2c32919480"
                    ]
                },
                "nodeType": 1
            }
        },
        "gasFlame": [
            {
                "children": [
                    {
                        "children": [
                            {
                                "children": [],
                                "depth": 0,
                                "name": "Initial Gas",
                                "value": 23256
                            },
                            {
                                "children": [],
                                "depth": 0,
                                "name": "Executed Gas",
                                "value": 13289
                            }
                        ],
                        "depth": -1,
                        "name": "Actual Gas Used",
                        "value": 21545
                    },
                    {
                        "children": [],
                        "depth": -1,
                        "name": "Refunded Gas",
                        "value": 15000
                    }
                ],
                "depth": -2,
                "name": "Total Gas",
                "value": 36545
            }
        ],
        "isConfirmed": true,
        "mainTrace": [
            {
                "children": [
                    {
                        "children": [
                            {
                                "children": [],
                                "depth": 1,
                                "id": 1,
                                "order": 1
                            }
                        ],
                        "depth": 0,
                        "id": 0,
                        "order": 0
                    }
                ],
                "depth": -1,
                "id": -1,
                "order": -1
            }
        ],
        "mainTraceNodeCount": 2,
        "parentIdMap": {
            "0": -1,
            "1": 0
        },
        "tidyTrace": [
            {
                "children": [
                    {
                        "children": [
                            {
                                "children": [],
                                "depth": 1,
                                "id": 1,
                                "order": 1
                            }
                        ],
                        "depth": 0,
                        "id": 0,
                        "order": 0
                    }
                ],
                "depth": -1,
                "id": -1,
                "order": -1
            }
        ],
        "tidyTraceNodeCount": 2
    },
    "state_change": {
        "stateChanges": [
            {
                "address": "0x12a48ac71c7e53785712a782c0e77d1f0c1398c9",
                "erc": "ERC-20",
                "slots": [
                    {
                        "current": "0x0000000000000000000000000000000000000000000000000000000000000000",
                        "key": "0x7bcf57596d2414236f18e4e799f442ae5c44b1972b662859feba9ed361ee9ecc",
                        "prev": "0x00000000000000000000000000000000000000000000001043561a8829300000"
                    },
                    {
                        "current": "0x00000000000000000000000000000000000000000000103312c46da106d00000",
                        "key": "0xfe582cc6747e9c0c49d9a5319669d6f8e22017edae92298796a5efc6cd6105df",
                        "prev": "0x000000000000000000000000000000000000000000001022cf6e5318dda00000"
                    }
                ],
                "storageVariables": []
            }
        ]
    }
}