{
    "balance_change": {
        "balanceChanges": [
            {
                "account": "0xc085ba7a149c3ae00f0360d44c467dd8cf561399",
                "assets": [
                    {
                        "address": "0x5703840e9ae9ff88c25af351e465a163674f27b2",
                        "amount": "45",
                        "iconUrl": "",
                        "isERC1155": false,
                        "isERC721": false,
                        "sign": false,
                        "value": "293.5237606"
                    }
                ]
            },
            {
                "account": "0x5afc3a7d552ae5023d06efd355ccfe800ce63800",
                "assets": [
                    {
                        "address": "0x5703840e9ae9ff88c25af351e465a163674f27b2",
                        "amount": "45",
                        "iconUrl": "",
                        "isERC1155": false,
                        "isERC721": false,
                        "sign": true,
                        "value": "293.5237606"
                    }
                ]
            }
        ]
    },
    "profile": {
        "basic_info": {
            "baseFee": "",
            "blockNumber": 11562014,
            "callData": "0xa9059cbb0000000000000000000000005afc3a7d552ae5023d06efd355ccfe800ce6380000000000000000000000000000000000000000000000000270801d946c940000",
            "debugEnable": true,
            "errorInfo": "",
            "eventCount": 1,
            "feeRecipient": "0x5a0b54d5dc17e0aadc383d2db43b0a0d3e029c4c",
            "formatValue": "0",
            "gasLimit": 60000,
            "gasPrice": "59.000001347",
            "gasUsed": 42110,
            "intTxnCount": 0,
            "internalRevert": false,
            "internalRevertMessage": "",
            "isContractCreation": false,
            "isFlashloan": false,
            "maxFee": "",
            "nonce": 779,
            "overwritedBlockNumber": -1,
            "priorityFee": "",
            "receiver": "0x5703840e9ae9ff88c25af351e465a163674f27b2",
            "revertMessage": "",
            "sender": "0xc085ba7a149c3ae00f0360d44c467dd8cf561399",
            "simulationEnable": true,
            "sourceTxnHash": "0x4cc17915c5b447d247b16386f122c9456ff5d41fd8c034a332dc9d6c601eaff3",
            "status": true,
            "timestamp": "2020-12-31T12:42:19Z",
            "transactionFee": "0.00248449005672217",
            "txnHash": "0x4cc17915c5b447d247b16386f122c9456ff5d41fd8c034a332dc9d6c601eaff3",
            "txnIndex": 131,
            "type": 0,
            "value": "0"
        },
        "fund_flow": [
            {
                "amount": "45",
                "from": "0xc085ba7a149c3ae00f0360d44c467dd8cf561399",
                "id": 1,
                "isERC1155": false,
                "isERC721": false,
                "isReverted": false,
                "order": 1,
                "to": "0x5afc3a7d552ae5023d06efd355ccfe800ce63800",
                "token": "0x5703840e9ae9ff88c25af351e465a163674f27b2"
            }
        ],
        "token_infos": [
            {
                "address": "0x5703840e9ae9ff88c25af351e465a163674f27b2",
                "decimals": 18
            },
            {
                "address": "0xc02aaa39b223fe8d0a0e5c4f27ead9083c756cc2",
                "decimals": 18
            },
            {
                "address": "0xeeeeeeeeeeeeeeeeeeeeeeeeeeeeeeeeeeeeeeee",
                "decimals": 18
            }
        ]
    },
    "address_label": {
        "labels": [
            {
                "address": "0x0000000000000000000000000000000000000003",
                "label": "Precompiled"
            },
            {
                "address": "0x0000000000000000000000000000000000000004",
                "label": "Precompiled"
            },
            {
                "address": "0xeeeeeeeeeeeeeeeeeeeeeeeeeeeeeeeeeeeeeeee",
                "label": "Ether"
            },
            {
                "address": "0x5afc3a7d552ae5023d06efd355ccfe800ce63800",
                "label": "OKEX"
            },
            {
                "address": "0x5703840e9ae9ff88c25af351e465a163674f27b2",
                "label": "STDcoin (STD)"
            },
            {
                "address": "0x0000000000000000000000000000000000000001",
                "label": "Precompiled"
            },
            {
                "address": "0x0000000000000000000000000000000000000002",
                "label": "Precompiled"
            }
        ]
    },
    "trace": {
        "accountLabels": null,
        "dataMap": {
            "-1": {
                "invocation": {
                    "address": "0xc085ba7a149c3ae00f0360d44c467dd8cf561399",
                    "callData": "",
                    "decodedMethod": null,
                    "errorInfo": "",
                    "fromAddress": "",
                    "gasUsed": 0,
                    "id": -1,
                    "methodDecoded": false,
                    "operation": "",
                    "output": "",
                    "revert": false,
                    "revertMessage": "",
                    "selector": "",
                    "status": false,
                    "value": ""
                },
                "nodeType": 0
            },
            "0": {
                "invocation": {
                    "address": "0x5703840e9ae9ff88c25af351e465a163674f27b2",
                    "callData": "0x0000000000000000000000005afc3a7d552ae5023d06efd355ccfe800ce6380000000000000000000000000000000000000000000000000270801d946c940000",
                    "decodedMethod": {
                        "callParams": [
                            {
                                "name": "_to",
                                "type": "address",
                                "value": "0x5afc3a7d552ae5023d06efd355ccfe800ce63800"
                            },
                            {
                                "decimalAvailable": true,
                                "name": "_value",
                                "type": "uint256",
                                "value": "45,000,000,000,000,000,000"
                            }
                        ],
                        "constructorArguments": "",
                        "name": "transfer",
                        "returnParams": [
                            {
                                "name": "success",
                                "type": "bool",
                                "value": true
                            }
                        ],
                        "signature": "transfer(address,uint256)"
                    },
                    "errorInfo": "",
                    "fromAddress": "0xc085ba7a149c3ae00f0360d44c467dd8cf561399",
                    "gasUsed": 42110,
                    "id": 0,
                    "methodDecoded": true,
                    "operation": "CALL",
                    "output": "0x0000000000000000000000000000000000000000000000000000000000000001",
                    "revert": false,
                    "revertMessage": "",
                    "selector": "0xa9059cbb",
                    "status": true,
                    "value": "0"
                },
                "nodeType": 0
            },
            "1": {
                "event": {
                    "contract": "0x5703840e9ae9ff88c25af351e465a163674f27b2",
                    "decodedLog": {
                        "name": "Transfer",
                        "params": [
                            {
                                "name": "from",
                                "type": "address",
                                "value": "0xc085ba7a149c3ae00f0360d44c467dd8cf561399"
                            },
                            {
                                "name": "to",
                                "type": "address",
                                "value": "0x5afc3a7d552ae5023d06efd355ccfe800ce63800"
                            },
                            {
                                "decimalAvailable": true,
                                "name": "value",
                                "type": "uint256",
                                "value": "45,000,000,000,000,000,000"
                            }
                        ],
                        "signature": "Transfer(address,address,uint256)"
                    },
                    "id": 1,
                    "logData": "0x00000000000000000000000000000000000000000000000270801d946c940000",
                    "logDecoded": true,
                    "operation": "EVENT",
                    "revert": false,
                    "status": true,
                    "topics": [
                        "0xddf252ad1be2c89b69c2b068fc378daa952ba7f163c4a11628f55a4df523b3ef",
                        "0x000000000000000000000000c085ba7a149c3ae00f0360d44c467dd8cf561399",
                        "0x0000000000000000000000005afc3a7d552ae5023d06efd355ccfe800ce63800"
                    ]
                },
                "nodeType": 1
            }
        },
        "gasFlame": [
            {
                "children": [
                    {
                        "children": [
                            {
                                "children": [],
                                "depth": 0,
                                "name": "Initial Gas",
                                "value": 21632
                            },
                            {
                                "children": [],
                                "depth": 0,
                                "name": "Executed Gas",
                                "value": 20478
                            }
                        ],
                        "depth": -1,
                        "name": "Actual Gas Used",
                        "value": 42110
                    },
                    {
                        "children": [],
                        "depth": -1,
                        "name": "Refunded Gas",
                        "value": 0
                    }
                ],
                "depth": -2,
                "name": "Total Gas",
                "value": 42110
            }
        ],
        "isConfirmed": true,
        "mainTrace": [
            {
                "children": [
                    {
                        "children": [
                            {
                                "children": [],
                                "depth": 1,
                                "id": 1,
                                "order": 1
                            }
                        ],
                        "depth": 0,
                        "id": 0,
                        "order": 0
                    }
                ],
                "depth": -1,
                "id": -1,
                "order": -1
            }
        ],
        "mainTraceNodeCount": 2,
        "parentIdMap": {
            "0": -1,
            "1": 0
        },
        "tidyTrace": [
            {
                "children": [
                    {
                        "children": [
                            {
                                "children": [],
                                "depth": 1,
                                "id": 1,
                                "order": 1
                            }
                        ],
                        "depth": 0,
                        "id": 0,
                        "order": 0
                    }
                ],
                "depth": -1,
                "id": -1,
                "order": -1
            }
        ],
        "tidyTraceNodeCount": 2
    },
    "state_change": {
        "stateChanges": [
            {
                "address": "0x5703840e9ae9ff88c25af351e465a163674f27b2",
                "erc": "ERC-20",
                "slots": [
                    {
                        "current": "0x00000000000000000000000000000000000000000000145a6ed0b04a793e4000",
                        "key": "0xc6f01246fc9fb9d25749091065423445b52d22b82447fd77cf1eba15a2e454c3",
                        "prev": "0x00000000000000000000000000000000000000000000145cdf50cddee5d24000"
                    },
                    {
                        "current": "0x00000000000000000000000000000000000000000000000270801d946c940001",
                        "key": "0x6ba3e755439eb1905e958733b36af4db033a223df9997328db95c5aa509b7324",
                        "prev": "0x0000000000000000000000000000000000000000000000000000000000000001"
                    }
                ],
                "storageVariables": [
                    {
                        "name": "balanceOf",
                        "type": "mapping(address => uint256)",
                        "value": {
                            "pairs": [
                                {
                                    "key": "0x5afc3a7d552ae5023d06efd355ccfe800ce63800",
                                    "value": {
                                        "current": "45000000000000000001",
                                        "prev": "1",
                                        "typeTag": 1
                                    }
                                },
                                {
                                    "key": "0xc085ba7a149c3ae00f0360d44c467dd8cf561399",
                                    "value": {
                                        "current": "96115521700000000000000",
                                        "prev": "96160521700000000000000",
                                        "typeTag": 1
                                    }
                                }
                            ],
                            "typeTag": 4
                        }
                    }
                ]
            }
        ]
    }
}