{
    "balance_change": {
        "balanceChanges": [
            {
                "account": "0x62fe1556518d8d916503eaf16fe80f558129c3d8",
                "assets": [
                    {
                        "address": "0x0000000000664ceffed39244a8312bd895470803",
                        "amount": "1",
                        "iconUrl": "",
                        "isERC1155": false,
                        "isERC721": true,
                        "sign": true,
                        "tokenID": "151227",
                        "value": ""
                    }
                ]
            },
            {
                "account": "0x0000000000000000000000000000000000000000",
                "assets": [
                    {
                        "address": "0x0000000000664ceffed39244a8312bd895470803",
                        "amount": "1",
                        "iconUrl": "",
                        "isERC1155": false,
                        "isERC721": true,
                        "sign": false,
                        "tokenID": "151227",
                        "value": ""
                    }
                ]
            }
        ]
    },
    "profile": {
        "basic_info": {
            "baseFee": "33.849524759",
            "blockNumber": 17261590,
            "callData": "0xb510391f00000000000000000000000086d06a0d95ab7686968a2ec2ef376e0c50e17905000000000000000000000000000000000000000000000000000000000000004000000000000000000000000000000000000000000000000000000000000000415327b29911fd3c28d253696699cc9c57e8f6fe03db58e419564d6a60ba1ac042234ee63ed4053f4edfda874fac31702963d782100b2367e997e38edb662005af1c00000000000000000000000000000000000000000000000000000000000000",
            "debugEnable": true,
            "errorInfo": "",
            "eventCount": 2,
            "feeRecipient": "0xe94f1fa4f27d9d288ffea234bb62e1fbc086ca0c",
            "formatValue": "0",
            "gasLimit": 81826,
            "gasPrice": "33.949524759",
            "gasUsed": 81826,
            "intTxnCount": 1,
            "internalRevert": false,
            "internalRevertMessage": "",
            "isContractCreation": false,
            "isFlashloan": false,
            "maxFee": "45.260293676",
            "nonce": 3,
            "overwritedBlockNumber": -1,
            "priorityFee": "0.1",
            "receiver": "0x0000000000664ceffed39244a8312bd895470803",
            "revertMessage": "",
            "sender": "0x62fe1556518d8d916503eaf16fe80f558129c3d8",
            "simulationEnable": true,
            "sourceTxnHash": "0x4c4ef327f4c6e5e745eb5f13121017fa10adbec9321a0770caf6595520b86f41",
            "status": true,
            "timestamp": "2023-05-15T00:17:23Z",
            "transactionFee": "0.002777953812929934",
            "txnHash": "0x4c4ef327f4c6e5e745eb5f13121017fa10adbec9321a0770caf6595520b86f41",
            "txnIndex": 40,
            "type": 2,
            "value": "0"
        },
        "fund_flow": [
            {
                "amount": "1",
                "from": "0x0000000000000000000000000000000000000000",
                "id": 1,
                "isERC1155": false,
                "isERC721": true,
                "isReverted": false,
                "order": 1,
                "to": "0x62fe1556518d8d916503eaf16fe80f558129c3d8",
                "token": "0x0000000000664ceffed39244a8312bd895470803",
                "tokenID": "151227"
            }
        ],
        "token_infos": [
            {
                "address": "0xeeeeeeeeeeeeeeeeeeeeeeeeeeeeeeeeeeeeeeee",
                "decimals": 18
            },
            {
                "address": "0xc02aaa39b223fe8d0a0e5c4f27ead9083c756cc2",
                "decimals": 18
            }
        ]
    },
    "address_label": {
        "labels": [
            {
                "address": "0x0000000000000000000000000000000000000002",
                "label": "Precompiled"
            },
            {
                "address": "0x0000000000000000000000000000000000000003",
                "label": "Precompiled"
            },
            {
                "address": "0x0000000000000000000000000000000000000004",
                "label": "Precompiled"
            },
            {
                "address": "0xeeeeeeeeeeeeeeeeeeeeeeeeeeeeeeeeeeeeeeee",
                "label": "Ether"
            },
            {
                "address": "0x0000000000664ceffed39244a8312bd895470803",
                "label": "mint.fun !fundrop pass (FUNPASS)"
            },
            {
                "address": "0x0000000000000000000000000000000000000001",
                "label": "Precompiled"
            }
        ]
    },
    "trace": {
        "accountLabels": null,
        "dataMap": {
            "-1": {
                "invocation": {
                    "address": "0x62fe1556518d8d916503eaf16fe80f558129c3d8",
                    "callData": "",
                    "decodedMethod": null,
                    "errorInfo": "",
                    "fromAddress": "",
                    "gasUsed": 0,
                    "id": -1,
                    "methodDecoded": false,
                    "operation": "",
                    "output": "",
                    "revert": false,
                    "revertMessage": "",
                    "selector": "",
                    "status": false,
                    "value": ""
                },
                "nodeType": 0
            },
            "0": {
                "invocation": {
                    "address": "0x0000000000664ceffed39244a8312bd895470803",
                    "callData": "0x00000000000000000000000086d06a0d95ab7686968a2ec2ef376e0c50e17905000000000000000000000000000000000000000000000000000000000000004000000000000000000000000000000000000000000000000000000000000000415327b29911fd3c28d253696699cc9c57e8f6fe03db58e419564d6a60ba1ac042234ee63ed4053f4edfda874fac31702963d782100b2367e997e38edb662005af1c00000000000000000000000000000000000000000000000000000000000000",
                    "decodedMethod": {
                        "callParams": [
                            {
                                "name": "referrer",
                                "type": "address",
                                "value": "0x86d06a0d95ab7686968a2ec2ef376e0c50e17905"
                            },
                            {
                                "name": "signature",
                                "type": "bytes",
                                "value": "0x5327b29911fd3c28d253696699cc9c57e8f6fe03db58e419564d6a60ba1ac042234ee63ed4053f4edfda874fac31702963d782100b2367e997e38edb662005af1c"
                            }
                        ],
                        "constructorArguments": "",
                        "name": "mint",
                        "returnParams": [],
                        "signature": "mint(address,bytes)"
                    },
                    "errorInfo": "",
                    "fromAddress": "0x62fe1556518d8d916503eaf16fe80f558129c3d8",
                    "gasUsed": 81826,
                    "id": 0,
                    "methodDecoded": true,
                    "operation": "CALL",
                    "output": "",
                    "revert": false,
                    "revertMessage": "",
                    "selector": "0xb510391f",
                    "status": true,
                    "value": "0"
                },
                "nodeType": 0
            },
            "1": {
                "invocation": {
                    "address": "0x0000000000000000000000000000000000000001",
                    "callData": "0xb6abfbfea6dba7a95af64a0131266102929cb8f4cbe03d28b5151662000000000000000000000000000000000000000000000000000000000000001c5327b29911fd3c28d253696699cc9c57e8f6fe03db58e419564d6a60ba1ac042234ee63ed4053f4edfda874fac31702963d782100b2367e997e38edb662005af",
                    "decodedMethod": {
                        "callParams": [
                            {
                                "name": "hash",
                                "type": "bytes32",
                                "value": "0x69c33f72b6abfbfea6dba7a95af64a0131266102929cb8f4cbe03d28b5151662"
                            },
                            {
                                "name": "v",
                                "type": "uint256",
                                "value": "28"
                            },
                            {
                                "name": "r",
                                "type": "bytes32",
                                "value": "0x5327b29911fd3c28d253696699cc9c57e8f6fe03db58e419564d6a60ba1ac042"
                            },
                            {
                                "name": "s",
                                "type": "bytes32",
                                "value": "0x234ee63ed4053f4edfda874fac31702963d782100b2367e997e38edb662005af"
                            }
                        ],
                        "constructorArguments": "",
                        "name": "ecrecover",
                        "returnParams": [
                            {
                                "name": "",
                                "type": "address",
                                "value": "0x1e4f983282ff73965889ea98ff4d982d4668605c"
                            }
                        ],
                        "signature": "ecrecover(bytes32,uint256,bytes32,bytes32)"
                    },
                    "errorInfo": "",
                    "fromAddress": "0x0000000000664ceffed39244a8312bd895470803",
                    "gasUsed": 3000,
                    "id": 1,
                    "methodDecoded": true,
                    "operation": "STATICCALL",
                    "output": "0x0000000000000000000000001e4f983282ff73965889ea98ff4d982d4668605c",
                    "revert": false,
                    "revertMessage": "",
                    "selector": "0x69c33f72",
                    "status": true,
                    "value": "0"
                },
                "nodeType": 0
            },
            "2": {
                "event": {
                    "contract": "0x0000000000664ceffed39244a8312bd895470803",
                    "decodedLog": {
                        "name": "MinterReferred",
                        "params": [
                            {
                                "name": "referrer",
                                "type": "address",
                                "value": "0x86d06a0d95ab7686968a2ec2ef376e0c50e17905"
                            }
                        ],
                        "signature": "MinterReferred(address)"
                    },
                    "id": 2,
                    "logData": "0x00000000000000000000000086d06a0d95ab7686968a2ec2ef376e0c50e17905",
                    "logDecoded": true,
                    "operation": "EVENT",
                    "revert": false,
                    "status": true,
                    "topics": [
                        "0xcecb5f5b62b88dc819e81f535d3c431ec78987ab181067baac5d532dde7ee38a"
                    ]
                },
                "nodeType": 1
            },
            "3": {
                "event": {
                    "contract": "0x0000000000664ceffed39244a8312bd895470803",
                    "decodedLog": {
                        "name": "Transfer",
                        "params": [
                            {
                                "name": "from",
                                "type": "address",
                                "value": "0x0000000000000000000000000000000000000000"
                            },
                            {
                                "name": "to",
                                "type": "address",
                                "value": "0x62fe1556518d8d916503eaf16fe80f558129c3d8"
                            },
                            {
                                "decimalAvailable": true,
                                "name": "tokenId",
                                "type": "uint256",
                                "value": "151,227"
                            }
                        ],
                        "signature": "Transfer(address,address,uint256)"
                    },
                    "id": 3,
                    "logData": "0x",
                    "logDecoded": true,
                    "operation": "EVENT",
                    "revert": false,
                    "status": true,
                    "topics": [
                        "0xddf252ad1be2c89b69c2b068fc378daa952ba7f163c4a11628f55a4df523b3ef",
                        "0x0000000000000000000000000000000000000000000000000000000000000000",
                        "0x00000000000000000000000062fe1556518d8d916503eaf16fe80f558129c3d8",
                        "0x0000000000000000000000000000000000000000000000000000000000024ebb"
                    ]
                },
                "nodeType": 1
            }
        },
        "gasFlame": [
            {
                "children": [
                    {
                        "children": [
                            {
                                "children": [],
                                "depth": 0,
                                "name": "Initial Gas",
                                "value": 22876
                            },
                            {
                                "children": [
                                    {
                                        "children": [],
                                        "depth": 1,
                                        "name": "ecrecover",
                                        "value": 3000
                                    }
                                ],
                                "depth": 0,
                                "name": "Executed Gas",
                                "value": 58950
                            }
                        ],
                        "depth": -1,
                        "name": "Actual Gas Used",
                        "value": 81826
                    },
                    {
                        "children": [],
                        "depth": -1,
                        "name": "Refunded Gas",
                        "value": 0
                    }
                ],
                "depth": -2,
                "name": "Total Gas",
                "value": 81826
            }
        ],
        "isConfirmed": true,
        "mainTrace": [
            {
                "children": [
                    {
                        "children": [
                            {
                                "children": [],
                                "depth": 1,
                                "id": 1,
                                "order": 1
                            },
                            {
                                "children": [],
                                "depth": 1,
                                "id": 2,
                                "order": 2
                            },
                            {
                                "children": [],
                                "depth": 1,
                                "id": 3,
                                "order": 3
                            }
                        ],
                        "depth": 0,
                        "id": 0,
                        "order": 0
                    }
                ],
                "depth": -1,
                "id": -1,
                "order": -1
            }
        ],
        "mainTraceNodeCount": 4,
        "parentIdMap": {
            "0": -1,
            "1": 0,
            "2": 0,
            "3": 0
        },
        "tidyTrace": [
            {
                "children": [
                    {
                        "children": [
                            {
                                "children": [],
                                "depth": 1,
                                "id": 2,
                                "order": 2
                            },
                            {
                                "children": [],
                                "depth": 1,
                                "id": 3,
                                "order": 3
                            }
                        ],
                        "depth": 0,
                        "id": 0,
                        "order": 0
                    }
                ],
                "depth": -1,
                "id": -1,
                "order": -1
            }
        ],
        "tidyTraceNodeCount": 3
    },
    "state_change": {
        "stateChanges": [
            {
                "address": "0x0000000000664ceffed39244a8312bd895470803",
                "erc": "ERC-721",
                "slots": [
                    {
                        "current": "0x0000000000000000000000000000000000000000000000000000000000024ebc",
                        "key": "0x0000000000000000000000000000000000000000000000000000000000000004",
                        "prev": "0x0000000000000000000000000000000000000000000000000000000000024ebb"
                    },
                    {
                        "current": "0x00000000000000000000000062fe1556518d8d916503eaf16fe80f558129c3d8",
                        "key": "0xae846d8c04334a266210eaefa8d57c05d9d17d9fd71b5b0369337e9528c53f2e",
                        "prev": "0x0000000000000000000000000000000000000000000000000000000000000000"
                    },
                    {
                        "current": "0x0000000000000000000000000000000000000000000000000000000000024ebb",
                        "key": "0xefc0b71f7a3f18a9d1e2ccbdb13d890795c755dbfba7bc624a735ad5bc7b2e85",
                        "prev": "0x0000000000000000000000000000000000000000000000000000000000000000"
                    }
                ],
                "storageVariables": [
                    {
                        "name": "_tokens",
                        "type": "mapping(address => uint256)",
                        "value": {
                            "pairs": [
                                {
                                    "key": "0x62fe1556518d8d916503eaf16fe80f558129c3d8",
                                    "value": {
                                        "current": "151227",
                                        "prev": "0",
                                        "typeTag": 1
                                    }
                                }
                            ],
                            "typeTag": 4
                        }
                    },
                    {
                        "name": "_nextTokenId",
                        "type": "uint256",
                        "value": {
                            "current": "151228",
                            "prev": "151227",
                            "typeTag": 1
                        }
                    },
                    {
                        "name": "_owners",
                        "type": "mapping(uint256 => address)",
                        "value": {
                            "pairs": [
                                {
                                    "key": "151227",
                                    "value": {
                                        "current": "0x62fe1556518d8d916503eaf16fe80f558129c3d8",
                                        "prev": "0x0000000000000000000000000000000000000000",
                                        "typeTag": 1
                                    }
                                }
                            ],
                            "typeTag": 4
                        }
                    }
                ]
            }
        ]
    }
}