{
    "balance_change": {
        "balanceChanges": [
            {
                "account": "0x005fde5294199d5c3eb5eb7a6e51954123b74b1c",
                "assets": [
                    {
                        "address": "0xeeeeeeeeeeeeeeeeeeeeeeeeeeeeeeeeeeeeeeee",
                        "amount": "0.000205297609965627",
                        "iconUrl": "https://assets.blocksec.com/image/1663669189317-3.png",
                        "isERC1155": false,
                        "isERC721": false,
                        "sign": false,
                        "value": "0.36581981125900001867"
                    }
                ]
            },
            {
                "account": "0x4a137fd5e7a256ef08a7de531a17d0be0cc7b6b6",
                "assets": [
                    {
                        "address": "0xc02aaa39b223fe8d0a0e5c4f27ead9083c756cc2",
                        "amount": "1.050342650783891396",
                        "iconUrl": "https://assets.blocksec.com/icon/f1cb2d02c471d545bbc7722daf3277fd852d98e63d118771af7047bd8256c516.png",
                        "isERC1155": false,
                        "isERC721": false,
                        "sign": true,
                        "value": "1871.6055698169000955"
                    },
                    {
                        "address": "0x6b175474e89094c44da98b954eedeac495271d0f",
                        "amount": "1,861.07820379370815488",
                        "iconUrl": "https://assets.blocksec.com/icon/39aead569b9c011cb6f69734d9abbc9ab6a80049fe93bbd12bb473a3e0e859a3.png",
                        "isERC1155": false,
                        "isERC721": false,
                        "sign": false,
                        "value": "1862.9392822039997951"
                    }
                ]
            },
            {
                "account": "0x95222290dd7278aa3ddd389cc1e1d165cc4bafe5",
                "assets": [
                    {
                        "address": "0xeeeeeeeeeeeeeeeeeeeeeeeeeeeeeeeeeeeeeeee",
                        "amount": "0.000205297609965627",
                        "iconUrl": "https://assets.blocksec.com/image/1663669189317-3.png",
                        "isERC1155": false,
                        "isERC721": false,
                        "sign": true,
                        "value": "0.36581981125900001867"
                    }
                ]
            },
            {
                "account": "0xba12222222228d8ba445958a75a0704d566bf2c8",
                "assets": [
                    {
                        "address": "0x6b175474e89094c44da98b954eedeac495271d0f",
                        "amount": "1,861.07820379370815488",
                        "iconUrl": "https://assets.blocksec.com/icon/39aead569b9c011cb6f69734d9abbc9ab6a80049fe93bbd12bb473a3e0e859a3.png",
                        "isERC1155": false,
                        "isERC721": false,
                        "sign": true,
                        "value": "1862.9392822039997951"
                    },
                    {
                        "address": "0xc02aaa39b223fe8d0a0e5c4f27ead9083c756cc2",
                        "amount": "1.050342650783891396",
                        "iconUrl": "https://assets.blocksec.com/icon/f1cb2d02c471d545bbc7722daf3277fd852d98e63d118771af7047bd8256c516.png",
                        "isERC1155": false,
                        "isERC721": false,
                        "sign": false,
                        "value": "1871.6055698169000955"
                    }
                ]
            }
        ]
    },
    "profile": {
        "basic_info": {
            "baseFee": "25.477017445",
            "blockNumber": 16914548,
            "callData": "0xec0ab6a70000000000000000000000000000000000000000000000000000bab7931d803b000000000000000000000000000000000000000000000000000000000000006000000000000000000000000000000000000000000000000000000000000000a00000000000000000000000000000000000000000000000000000000000000001000000000000000000000000ba12222222228d8ba445958a75a0704d566bf2c80000000000000000000000000000000000000000000000000000000000000001000000000000000000000000000000000000000000000000000000000000002000000000000000000000000000000000000000000000000000000000000001c452bbbe2900000000000000000000000000000000000000000000000000000000000000e00000000000000000000000004a137fd5e7a256ef08a7de531a17d0be0cc7b6b600000000000000000000000000000000000000000000000000000000000000000000000000000000000000004a137fd5e7a256ef08a7de531a17d0be0cc7b6b600000000000000000000000000000000000000000000000000000000000000000000000000000000000000000000000000000000000000000e927baaedda9280000000000000000000000000000000000000000000000000000000006420c62b0b09dea16768f0799065c475be02919503cb2a3500020000000000000000001a00000000000000000000000000000000000000000000000000000000000000000000000000000000000000006b175474e89094c44da98b954eedeac495271d0f000000000000000000000000c02aaa39b223fe8d0a0e5c4f27ead9083c756cc2000000000000000000000000000000000000000000000064e3a5fdef7a04000000000000000000000000000000000000000000000000000000000000000000c0000000000000000000000000000000000000000000000000000000000000000000000000000000000000000000000000000000000000000000000000",
            "debugEnable": true,
            "errorInfo": "",
            "eventCount": 3,
            "feeRecipient": "0x95222290dd7278aa3ddd389cc1e1d165cc4bafe5",
            "formatValue": "0.000205297609965627",
            "gasLimit": 501860,
            "gasPrice": "25.477017445",
            "gasUsed": 128946,
            "intTxnCount": 5,
            "internalRevert": false,
            "internalRevertMessage": "",
            "isContractCreation": false,
            "isFlashloan": false,
            "maxFee": "37.941183294",
            "nonce": 103141,
            "overwritedBlockNumber": -1,
            "priorityFee": "0",
            "receiver": "0x4a137fd5e7a256ef08a7de531a17d0be0cc7b6b6",
            "revertMessage": "",
            "sender": "0x005fde5294199d5c3eb5eb7a6e51954123b74b1c",
            "simulationEnable": true,
            "sourceTxnHash": "0x4cbe05df9931e971315cf7cee3b20e5416a84af219e7d5ba4af0c0b951a1c7b2",
            "status": true,
            "timestamp": "2023-03-26T22:23:47Z",
            "transactionFee": "0.00328515949146297",
            "txnHash": "0x4cbe05df9931e971315cf7cee3b20e5416a84af219e7d5ba4af0c0b951a1c7b2",
            "txnIndex": 26,
            "type": 2,
            "value": "205297609965627"
        },
        "fund_flow": [
            {
                "amount": "0.000205297609965627",
                "from": "0x005fde5294199d5c3eb5eb7a6e51954123b74b1c",
                "id": 1,
                "isERC1155": false,
                "isERC721": false,
                "isReverted": false,
                "order": 1,
                "to": "0x4a137fd5e7a256ef08a7de531a17d0be0cc7b6b6",
                "token": "0xeeeeeeeeeeeeeeeeeeeeeeeeeeeeeeeeeeeeeeee"
            },
            {
                "amount": "1,861.07820379370815488",
                "from": "0x4a137fd5e7a256ef08a7de531a17d0be0cc7b6b6",
                "id": 2,
                "isERC1155": false,
                "isERC721": false,
                "isReverted": false,
                "order": 2,
                "to": "0xba12222222228d8ba445958a75a0704d566bf2c8",
                "token": "0x6b175474e89094c44da98b954eedeac495271d0f"
            },
            {
                "amount": "1.050342650783891396",
                "from": "0xba12222222228d8ba445958a75a0704d566bf2c8",
                "id": 3,
                "isERC1155": false,
                "isERC721": false,
                "isReverted": false,
                "order": 3,
                "to": "0x4a137fd5e7a256ef08a7de531a17d0be0cc7b6b6",
                "token": "0xc02aaa39b223fe8d0a0e5c4f27ead9083c756cc2"
            },
            {
                "amount": "0.000205297609965627",
                "from": "0x4a137fd5e7a256ef08a7de531a17d0be0cc7b6b6",
                "id": 4,
                "isERC1155": false,
                "isERC721": false,
                "isReverted": false,
                "order": 4,
                "to": "0x95222290dd7278aa3ddd389cc1e1d165cc4bafe5",
                "token": "0xeeeeeeeeeeeeeeeeeeeeeeeeeeeeeeeeeeeeeeee"
            }
        ],
        "token_infos": [
            {
                "address": "0x6b175474e89094c44da98b954eedeac495271d0f",
                "decimals": 18
            },
            {
                "address": "0xc02aaa39b223fe8d0a0e5c4f27ead9083c756cc2",
                "decimals": 18
            },
            {
                "address": "0xeeeeeeeeeeeeeeeeeeeeeeeeeeeeeeeeeeeeeeee",
                "decimals": 18
            }
        ]
    },
    "address_label": {
        "labels": [
            {
                "address": "0xeeeeeeeeeeeeeeeeeeeeeeeeeeeeeeeeeeeeeeee",
                "label": "Ether"
            },
            {
                "address": "0x95222290dd7278aa3ddd389cc1e1d165cc4bafe5",
                "label": "beaverbuild"
            },
            {
                "address": "0x0000000000000000000000000000000000000001",
                "label": "Precompiled"
            },
            {
                "address": "0x0000000000000000000000000000000000000002",
                "label": "Precompiled"
            },
            {
                "address": "0x0000000000000000000000000000000000000003",
                "label": "Precompiled"
            },
            {
                "address": "0xba12222222228d8ba445958a75a0704d566bf2c8",
                "label": "Balancer: Vault"
            },
            {
                "address": "0x6b175474e89094c44da98b954eedeac495271d0f",
                "label": "Sky: Dai Stablecoin"
            },
            {
                "address": "0xc02aaa39b223fe8d0a0e5c4f27ead9083c756cc2",
                "label": "Wrapped Ether (WETH)"
            },
            {
                "address": "0x4a137fd5e7a256ef08a7de531a17d0be0cc7b6b6",
                "label": "MEV Bot: 0x4a1...6b6"
            },
            {
                "address": "0x0b09dea16768f0799065c475be02919503cb2a35",
                "label": "Balancer 60 WETH 40 DAI (B-60WETH-...)"
            },
            {
                "address": "0x0000000000000000000000000000000000000004",
                "label": "Precompiled"
            }
        ]
    },
    "trace": {
        "accountLabels": null,
        "dataMap": {
            "-1": {
                "invocation": {
                    "address": "0x005fde5294199d5c3eb5eb7a6e51954123b74b1c",
                    "callData": "",
                    "decodedMethod": null,
                    "errorInfo": "",
                    "fromAddress": "",
                    "gasUsed": 0,
                    "id": -1,
                    "methodDecoded": false,
                    "operation": "",
                    "output": "",
                    "revert": false,
                    "revertMessage": "",
                    "selector": "",
                    "status": false,
                    "value": ""
                },
                "nodeType": 0
            },
            "0": {
                "invocation": {
                    "address": "0x4a137fd5e7a256ef08a7de531a17d0be0cc7b6b6",
                    "callData": "0x0000000000000000000000000000000000000000000000000000bab7931d803b000000000000000000000000000000000000000000000000000000000000006000000000000000000000000000000000000000000000000000000000000000a00000000000000000000000000000000000000000000000000000000000000001000000000000000000000000ba12222222228d8ba445958a75a0704d566bf2c80000000000000000000000000000000000000000000000000000000000000001000000000000000000000000000000000000000000000000000000000000002000000000000000000000000000000000000000000000000000000000000001c452bbbe2900000000000000000000000000000000000000000000000000000000000000e00000000000000000000000004a137fd5e7a256ef08a7de531a17d0be0cc7b6b600000000000000000000000000000000000000000000000000000000000000000000000000000000000000004a137fd5e7a256ef08a7de531a17d0be0cc7b6b600000000000000000000000000000000000000000000000000000000000000000000000000000000000000000000000000000000000000000e927baaedda9280000000000000000000000000000000000000000000000000000000006420c62b0b09dea16768f0799065c475be02919503cb2a3500020000000000000000001a00000000000000000000000000000000000000000000000000000000000000000000000000000000000000006b175474e89094c44da98b954eedeac495271d0f000000000000000000000000c02aaa39b223fe8d0a0e5c4f27ead9083c756cc2000000000000000000000000000000000000000000000064e3a5fdef7a04000000000000000000000000000000000000000000000000000000000000000000c0000000000000000000000000000000000000000000000000000000000000000000000000000000000000000000000000000000000000000000000000",
                    "decodedMethod": null,
                    "errorInfo": "",
                    "fromAddress": "0x005fde5294199d5c3eb5eb7a6e51954123b74b1c",
                    "gasUsed": 128946,
                    "id": 0,
                    "methodDecoded": false,
                    "operation": "CALL",
                    "output": "",
                    "revert": false,
                    "revertMessage": "",
                    "selector": "0xec0ab6a7",
                    "status": true,
                    "value": "0.000205297609965627"
                },
                "nodeType": 0
            },
            "1": {
                "invocation": {
                    "address": "0xba12222222228d8ba445958a75a0704d566bf2c8",
                    "callData": "0x00000000000000000000000000000000000000000000000000000000000000e00000000000000000000000004a137fd5e7a256ef08a7de531a17d0be0cc7b6b600000000000000000000000000000000000000000000000000000000000000000000000000000000000000004a137fd5e7a256ef08a7de531a17d0be0cc7b6b600000000000000000000000000000000000000000000000000000000000000000000000000000000000000000000000000000000000000000e927baaedda9280000000000000000000000000000000000000000000000000000000006420c62b0b09dea16768f0799065c475be02919503cb2a3500020000000000000000001a00000000000000000000000000000000000000000000000000000000000000000000000000000000000000006b175474e89094c44da98b954eedeac495271d0f000000000000000000000000c02aaa39b223fe8d0a0e5c4f27ead9083c756cc2000000000000000000000000000000000000000000000064e3a5fdef7a04000000000000000000000000000000000000000000000000000000000000000000c00000000000000000000000000000000000000000000000000000000000000000",
                    "decodedMethod": {
                        "callParams": [
                            {
                                "name": "singleSwap",
                                "type": "(bytes32,uint8,address,address,uint256,bytes)",
                                "value": [
                                    {
                                        "name": "poolId",
                                        "type": "bytes32",
                                        "value": "0x0b09dea16768f0799065c475be02919503cb2a3500020000000000000000001a"
                                    },
                                    {
                                        "name": "kind",
                                        "type": "uint8",
                                        "value": "0"
                                    },
                                    {
                                        "name": "assetIn",
                                        "type": "address",
                                        "value": "0x6b175474e89094c44da98b954eedeac495271d0f"
                                    },
                                    {
                                        "name": "assetOut",
                                        "type": "address",
                                        "value": "0xc02aaa39b223fe8d0a0e5c4f27ead9083c756cc2"
                                    },
                                    {
                                        "name": "amount",
                                        "type": "uint256",
                                        "value": "1,861,078,203,793,708,154,880"
                                    },
                                    {
                                        "name": "userData",
                                        "type": "bytes",
                                        "value": "0x"
                                    }
                                ]
                            },
                            {
                                "name": "funds",
                                "type": "(address,bool,address,bool)",
                                "value": [
                                    {
                                        "name": "sender",
                                        "type": "address",
                                        "value": "0x4a137fd5e7a256ef08a7de531a17d0be0cc7b6b6"
                                    },
                                    {
                                        "name": "fromInternalBalance",
                                        "type": "bool",
                                        "value": false
                                    },
                                    {
                                        "name": "recipient",
                                        "type": "address",
                                        "value": "0x4a137fd5e7a256ef08a7de531a17d0be0cc7b6b6"
                                    },
                                    {
                                        "name": "toInternalBalance",
                                        "type": "bool",
                                        "value": false
                                    }
                                ]
                            },
                            {
                                "name": "limit",
                                "type": "uint256",
                                "value": "1,050,037,637,195,928,192"
                            },
                            {
                                "name": "deadline",
                                "type": "uint256",
                                "value": "1,679,869,483"
                            }
                        ],
                        "constructorArguments": "",
                        "name": "swap",
                        "returnParams": [
                            {
                                "name": "amountCalculated",
                                "type": "uint256",
                                "value": "1,050,342,650,783,891,396"
                            }
                        ],
                        "signature": "swap((bytes32,uint8,address,address,uint256,bytes),(address,bool,address,bool),uint256,uint256)"
                    },
                    "errorInfo": "",
                    "fromAddress": "0x4a137fd5e7a256ef08a7de531a17d0be0cc7b6b6",
                    "gasUsed": 88891,
                    "id": 1,
                    "methodDecoded": true,
                    "operation": "CALL",
                    "output": "0x0000000000000000000000000000000000000000000000000e939113706a7fc4",
                    "revert": false,
                    "revertMessage": "",
                    "selector": "0x52bbbe29",
                    "status": true,
                    "value": "0"
                },
                "nodeType": 0
            },
            "2": {
                "invocation": {
                    "address": "0x0b09dea16768f0799065c475be02919503cb2a35",
                    "callData": "0x000000000000000000000000000000000000000000000000000000000000006000000000000000000000000000000000000000000000643ebc9e48b4b927c800000000000000000000000000000000000000000000000015ce9bfa75b8eca35700000000000000000000000000000000000000000000000000000000000000000000000000000000000000006b175474e89094c44da98b954eedeac495271d0f000000000000000000000000c02aaa39b223fe8d0a0e5c4f27ead9083c756cc2000000000000000000000000000000000000000000000064e3a5fdef7a0400000b09dea16768f0799065c475be02919503cb2a3500020000000000000000001a000000000000000000000000000000000000000000000000000000000102180f0000000000000000000000004a137fd5e7a256ef08a7de531a17d0be0cc7b6b60000000000000000000000004a137fd5e7a256ef08a7de531a17d0be0cc7b6b600000000000000000000000000000000000000000000000000000000000001200000000000000000000000000000000000000000000000000000000000000000",
                    "decodedMethod": {
                        "callParams": [
                            {
                                "name": "request",
                                "type": "(uint8,address,address,uint256,bytes32,uint256,address,address,bytes)",
                                "value": [
                                    {
                                        "name": "kind",
                                        "type": "uint8",
                                        "value": "0"
                                    },
                                    {
                                        "name": "tokenIn",
                                        "type": "address",
                                        "value": "0x6b175474e89094c44da98b954eedeac495271d0f"
                                    },
                                    {
                                        "name": "tokenOut",
                                        "type": "address",
                                        "value": "0xc02aaa39b223fe8d0a0e5c4f27ead9083c756cc2"
                                    },
                                    {
                                        "name": "amount",
                                        "type": "uint256",
                                        "value": "1,861,078,203,793,708,154,880"
                                    },
                                    {
                                        "name": "poolId",
                                        "type": "bytes32",
                                        "value": "0x0b09dea16768f0799065c475be02919503cb2a3500020000000000000000001a"
                                    },
                                    {
                                        "name": "lastChangeBlock",
                                        "type": "uint256",
                                        "value": "16,914,447"
                                    },
                                    {
                                        "name": "from",
                                        "type": "address",
                                        "value": "0x4a137fd5e7a256ef08a7de531a17d0be0cc7b6b6"
                                    },
                                    {
                                        "name": "to",
                                        "type": "address",
                                        "value": "0x4a137fd5e7a256ef08a7de531a17d0be0cc7b6b6"
                                    },
                                    {
                                        "name": "userData",
                                        "type": "bytes",
                                        "value": "0x"
                                    }
                                ]
                            },
                            {
                                "name": "balanceTokenIn",
                                "type": "uint256",
                                "value": "473,393,937,800,201,002,010,624"
                            },
                            {
                                "name": "balanceTokenOut",
                                "type": "uint256",
                                "value": "402,269,393,924,624,524,119"
                            }
                        ],
                        "constructorArguments": "",
                        "name": "onSwap",
                        "returnParams": [
                            {
                                "name": "",
                                "type": "uint256",
                                "value": "1,050,342,650,783,891,396"
                            }
                        ],
                        "signature": "onSwap((uint8,address,address,uint256,bytes32,uint256,address,address,bytes),uint256,uint256)"
                    },
                    "errorInfo": "",
                    "fromAddress": "0xba12222222228d8ba445958a75a0704d566bf2c8",
                    "gasUsed": 26084,
                    "id": 2,
                    "methodDecoded": true,
                    "operation": "CALL",
                    "output": "0x0000000000000000000000000000000000000000000000000e939113706a7fc4",
                    "revert": false,
                    "revertMessage": "",
                    "selector": "0x9d2c110c",
                    "status": true,
                    "value": "0"
                },
                "nodeType": 0
            },
            "3": {
                "event": {
                    "contract": "0xba12222222228d8ba445958a75a0704d566bf2c8",
                    "decodedLog": {
                        "name": "Swap",
                        "params": [
                            {
                                "name": "poolId",
                                "type": "bytes32",
                                "value": "0x0b09dea16768f0799065c475be02919503cb2a3500020000000000000000001a"
                            },
                            {
                                "name": "tokenIn",
                                "type": "address",
                                "value": "0x6b175474e89094c44da98b954eedeac495271d0f"
                            },
                            {
                                "name": "tokenOut",
                                "type": "address",
                                "value": "0xc02aaa39b223fe8d0a0e5c4f27ead9083c756cc2"
                            },
                            {
                                "name": "amountIn",
                                "type": "uint256",
                                "value": "1,861,078,203,793,708,154,880"
                            },
                            {
                                "name": "amountOut",
                                "type": "uint256",
                                "value": "1,050,342,650,783,891,396"
                            }
                        ],
                        "signature": "Swap(bytes32,address,address,uint256,uint256)"
                    },
                    "id": 3,
                    "logData": "0x000000000000000000000000000000000000000000000064e3a5fdef7a0400000000000000000000000000000000000000000000000000000e939113706a7fc4",
                    "logDecoded": true,
                    "operation": "EVENT",
                    "revert": false,
                    "status": true,
                    "topics": [
                        "0x2170c741c41531aec20e7c107c24eecfdd15e69c9bb0a8dd37b1840b9e0b207b",
                        "0x0b09dea16768f0799065c475be02919503cb2a3500020000000000000000001a",
                        "0x0000000000000000000000006b175474e89094c44da98b954eedeac495271d0f",
                        "0x000000000000000000000000c02aaa39b223fe8d0a0e5c4f27ead9083c756cc2"
                    ]
                },
                "nodeType": 1
            },
            "4": {
                "invocation": {
                    "address": "0x6b175474e89094c44da98b954eedeac495271d0f",
                    "callData": "0x0000000000000000000000004a137fd5e7a256ef08a7de531a17d0be0cc7b6b6000000000000000000000000ba12222222228d8ba445958a75a0704d566bf2c8000000000000000000000000000000000000000000000064e3a5fdef7a040000",
                    "decodedMethod": {
                        "callParams": [
                            {
                                "name": "src",
                                "type": "address",
                                "value": "0x4a137fd5e7a256ef08a7de531a17d0be0cc7b6b6"
                            },
                            {
                                "name": "dst",
                                "type": "address",
                                "value": "0xba12222222228d8ba445958a75a0704d566bf2c8"
                            },
                            {
                                "decimalAvailable": true,
                                "name": "wad",
                                "type": "uint256",
                                "value": "1,861,078,203,793,708,154,880"
                            }
                        ],
                        "constructorArguments": "",
                        "name": "transferFrom",
                        "returnParams": [
                            {
                                "name": "",
                                "type": "bool",
                                "value": true
                            }
                        ],
                        "signature": "transferFrom(address,address,uint256)"
                    },
                    "errorInfo": "",
                    "fromAddress": "0xba12222222228d8ba445958a75a0704d566bf2c8",
                    "gasUsed": 15418,
                    "id": 4,
                    "methodDecoded": true,
                    "operation": "CALL",
                    "output": "0x0000000000000000000000000000000000000000000000000000000000000001",
                    "revert": false,
                    "revertMessage": "",
                    "selector": "0x23b872dd",
                    "status": true,
                    "value": "0"
                },
                "nodeType": 0
            },
            "5": {
                "event": {
                    "contract": "0x6b175474e89094c44da98b954eedeac495271d0f",
                    "decodedLog": {
                        "name": "Transfer",
                        "params": [
                            {
                                "name": "src",
                                "type": "address",
                                "value": "0x4a137fd5e7a256ef08a7de531a17d0be0cc7b6b6"
                            },
                            {
                                "name": "dst",
                                "type": "address",
                                "value": "0xba12222222228d8ba445958a75a0704d566bf2c8"
                            },
                            {
                                "decimalAvailable": true,
                                "name": "wad",
                                "type": "uint256",
                                "value": "1,861,078,203,793,708,154,880"
                            }
                        ],
                        "signature": "Transfer(address,address,uint256)"
                    },
                    "id": 5,
                    "logData": "0x000000000000000000000000000000000000000000000064e3a5fdef7a040000",
                    "logDecoded": true,
                    "operation": "EVENT",
                    "revert": false,
                    "status": true,
                    "topics": [
                        "0xddf252ad1be2c89b69c2b068fc378daa952ba7f163c4a11628f55a4df523b3ef",
                        "0x0000000000000000000000004a137fd5e7a256ef08a7de531a17d0be0cc7b6b6",
                        "0x000000000000000000000000ba12222222228d8ba445958a75a0704d566bf2c8"
                    ]
                },
                "nodeType": 1
            },
            "6": {
                "invocation": {
                    "address": "0xc02aaa39b223fe8d0a0e5c4f27ead9083c756cc2",
                    "callData": "0x0000000000000000000000004a137fd5e7a256ef08a7de531a17d0be0cc7b6b60000000000000000000000000000000000000000000000000e939113706a7fc4",
                    "decodedMethod": {
                        "callParams": [
                            {
                                "name": "dst",
                                "type": "address",
                                "value": "0x4a137fd5e7a256ef08a7de531a17d0be0cc7b6b6"
                            },
                            {
                                "decimalAvailable": true,
                                "name": "wad",
                                "type": "uint256",
                                "value": "1,050,342,650,783,891,396"
                            }
                        ],
                        "constructorArguments": "",
                        "name": "transfer",
                        "returnParams": [
                            {
                                "name": "",
                                "type": "bool",
                                "value": true
                            }
                        ],
                        "signature": "transfer(address,uint256)"
                    },
                    "errorInfo": "",
                    "fromAddress": "0xba12222222228d8ba445958a75a0704d566bf2c8",
                    "gasUsed": 12862,
                    "id": 6,
                    "methodDecoded": true,
                    "operation": "CALL",
                    "output": "0x0000000000000000000000000000000000000000000000000000000000000001",
                    "revert": false,
                    "revertMessage": "",
                    "selector": "0xa9059cbb",
                    "status": true,
                    "value": "0"
                },
                "nodeType": 0
            },
            "7": {
                "event": {
                    "contract": "0xc02aaa39b223fe8d0a0e5c4f27ead9083c756cc2",
                    "decodedLog": {
                        "name": "Transfer",
                        "params": [
                            {
                                "name": "src",
                                "type": "address",
                                "value": "0xba12222222228d8ba445958a75a0704d566bf2c8"
                            },
                            {
                                "name": "dst",
                                "type": "address",
                                "value": "0x4a137fd5e7a256ef08a7de531a17d0be0cc7b6b6"
                            },
                            {
                                "decimalAvailable": true,
                                "name": "wad",
                                "type": "uint256",
                                "value": "1,050,342,650,783,891,396"
                            }
                        ],
                        "signature": "Transfer(address,address,uint256)"
                    },
                    "id": 7,
                    "logData": "0x0000000000000000000000000000000000000000000000000e939113706a7fc4",
                    "logDecoded": true,
                    "operation": "EVENT",
                    "revert": false,
                    "status": true,
                    "topics": [
                        "0xddf252ad1be2c89b69c2b068fc378daa952ba7f163c4a11628f55a4df523b3ef",
                        "0x000000000000000000000000ba12222222228d8ba445958a75a0704d566bf2c8",
                        "0x0000000000000000000000004a137fd5e7a256ef08a7de531a17d0be0cc7b6b6"
                    ]
                },
                "nodeType": 1
            },
            "8": {
                "invocation": {
                    "address": "0x95222290dd7278aa3ddd389cc1e1d165cc4bafe5",
                    "callData": "0x",
                    "decodedMethod": null,
                    "errorInfo": "",
                    "fromAddress": "0x4a137fd5e7a256ef08a7de531a17d0be0cc7b6b6",
                    "gasUsed": 0,
                    "id": 8,
                    "methodDecoded": false,
                    "operation": "CALL",
                    "output": "",
                    "revert": false,
                    "revertMessage": "",
                    "selector": "fallback",
                    "status": true,
                    "value": "0.000205297609965627"
                },
                "nodeType": 0
            }
        },
        "gasFlame": [
            {
                "children": [
                    {
                        "children": [
                            {
                                "children": [],
                                "depth": 0,
                                "name": "Initial Gas",
                                "value": 25928
                            },
                            {
                                "children": [
                                    {
                                        "children": [
                                            {
                                                "children": [],
                                                "depth": 2,
                                                "name": "onSwap",
                                                "value": 26084
                                            },
                                            {
                                                "children": [],
                                                "depth": 2,
                                                "name": "transferFrom",
                                                "value": 15418
                                            },
                                            {
                                                "children": [],
                                                "depth": 2,
                                                "name": "transfer",
                                                "value": 12862
                                            }
                                        ],
                                        "depth": 1,
                                        "name": "swap",
                                        "value": 88891
                                    },
                                    {
                                        "children": [],
                                        "depth": 1,
                                        "name": "fallback",
                                        "value": 0
                                    }
                                ],
                                "depth": 0,
                                "name": "Executed Gas",
                                "value": 105818
                            }
                        ],
                        "depth": -1,
                        "name": "Actual Gas Used",
                        "value": 128946
                    },
                    {
                        "children": [],
                        "depth": -1,
                        "name": "Refunded Gas",
                        "value": 2800
                    }
                ],
                "depth": -2,
                "name": "Total Gas",
                "value": 131746
            }
        ],
        "isConfirmed": true,
        "mainTrace": [
            {
                "children": [
                    {
                        "children": [
                            {
                                "children": [
                                    {
                                        "children": [],
                                        "depth": 2,
                                        "id": 2,
                                        "order": 2
                                    },
                                    {
                                        "children": [],
                                        "depth": 2,
                                        "id": 3,
                                        "order": 3
                                    },
                                    {
                                        "children": [
                                            {
                                                "children": [],
                                                "depth": 3,
                                                "id": 5,
                                                "order": 5
                                            }
                                        ],
                                        "depth": 2,
                                        "id": 4,
                                        "order": 4
                                    },
                                    {
                                        "children": [
                                            {
                                                "children": [],
                                                "depth": 3,
                                                "id": 7,
                                                "order": 7
                                            }
                                        ],
                                        "depth": 2,
                                        "id": 6,
                                        "order": 6
                                    }
                                ],
                                "depth": 1,
                                "id": 1,
                                "order": 1
                            },
                            {
                                "children": [],
                                "depth": 1,
                                "id": 8,
                                "order": 8
                            }
                        ],
                        "depth": 0,
                        "id": 0,
                        "order": 0
                    }
                ],
                "depth": -1,
                "id": -1,
                "order": -1
            }
        ],
        "mainTraceNodeCount": 9,
        "parentIdMap": {
            "0": -1,
            "1": 0,
            "2": 1,
            "3": 1,
            "4": 1,
            "5": 4,
            "6": 1,
            "7": 6,
            "8": 0
        },
        "tidyTrace": [
            {
                "children": [
                    {
                        "children": [
                            {
                                "children": [
                                    {
                                        "children": [],
                                        "depth": 2,
                                        "id": 2,
                                        "order": 2
                                    },
                                    {
                                        "children": [],
                                        "depth": 2,
                                        "id": 3,
                                        "order": 3
                                    },
                                    {
                                        "children": [
                                            {
                                                "children": [],
                                                "depth": 3,
                                                "id": 5,
                                                "order": 5
                                            }
                                        ],
                                        "depth": 2,
                                        "id": 4,
                                        "order": 4
                                    },
                                    {
                                        "children": [
                                            {
                                                "children": [],
                                                "depth": 3,
                                                "id": 7,
                                                "order": 7
                                            }
                                        ],
                                        "depth": 2,
                                        "id": 6,
                                        "order": 6
                                    }
                                ],
                                "depth": 1,
                                "id": 1,
                                "order": 1
                            },
                            {
                                "children": [],
                                "depth": 1,
                                "id": 8,
                                "order": 8
                            }
                        ],
                        "depth": 0,
                        "id": 0,
                        "order": 0
                    }
                ],
                "depth": -1,
                "id": -1,
                "order": -1
            }
        ],
        "tidyTraceNodeCount": 9
    },
    "state_change": {
        "stateChanges": [
            {
                "address": "0x0b09dea16768f0799065c475be02919503cb2a35",
                "erc": "ERC-20",
                "slots": [
                    {
                        "current": "0x0490200f7702da86ca40585c8127caa7725854158bd00d139cafd1dd6420c5f3",
                        "key": "0xe5fc80b2bb06155477ca775440f681635a2010925a774478b3685b59b1c5d864",
                        "prev": "0x0486ac0f70e2299b694057a4012753fe48dcd41597b00cf65e371f2b63f5678f"
                    },
                    {
                        "current": "0x00000000000000000000000000000071afd498d0003116420c5f305c61c158bd",
                        "key": "0x0000000000000000000000000000000000000000000000000000000000000008",
                        "prev": "0x00000000000000000000000000000071afd498d000310e420c11f05c61c158bd"
                    }
                ],
                "storageVariables": [
                    {
                        "name": "_samples",
                        "type": "mapping(uint256 => bytes32)",
                        "value": {
                            "pairs": [
                                {
                                    "key": "546",
                                    "value": {
                                        "current": "0x0490200f7702da86ca40585c8127caa7725854158bd00d139cafd1dd6420c5f3",
                                        "prev": "0x0486ac0f70e2299b694057a4012753fe48dcd41597b00cf65e371f2b63f5678f",
                                        "typeTag": 1
                                    }
                                }
                            ],
                            "typeTag": 4
                        }
                    },
                    {
                        "name": "_miscData",
                        "type": "bytes32",
                        "value": {
                            "current": "0x00000000000000000000000000000071afd498d0003116420c5f305c61c158bd",
                            "prev": "0x00000000000000000000000000000071afd498d000310e420c11f05c61c158bd",
                            "typeTag": 1
                        }
                    }
                ]
            },
            {
                "address": "0x6b175474e89094c44da98b954eedeac495271d0f",
                "erc": "ERC-20",
                "slots": [
                    {
                        "current": "0x0000000000000000000000000000000000000000000001db48a2deae36f510e7",
                        "key": "0x59004b345fa04150e4b45b8a8d0349f487931e2d0d63b6aa3f0dad916f7d415c",
                        "prev": "0x0000000000000000000000000000000000000000000002402c48dc9db0f910e7"
                    },
                    {
                        "current": "0x0000000000000000000000000000000000000000001c366954295827fe6e8962",
                        "key": "0xb78ecbcc521997ad76ce92f4cd09dccc053fa966cd03f62b9b247d42df4504ef",
                        "prev": "0x0000000000000000000000000000000000000000001c360470835a38846a8962"
                    }
                ],
                "storageVariables": [
                    {
                        "name": "balanceOf",
                        "type": "mapping(address => uint256)",
                        "value": {
                            "pairs": [
                                {
                                    "key": "0x4a137fd5e7a256ef08a7de531a17d0be0cc7b6b6",
                                    "value": {
                                        "current": "8767437425568822661351",
                                        "prev": "10628515629362530816231",
                                        "typeTag": 1
                                    }
                                },
                                {
                                    "key": "0xba12222222228d8ba445958a75a0704d566bf2c8",
                                    "value": {
                                        "current": "34106873711887619262941538",
                                        "prev": "34105012633683825554786658",
                                        "typeTag": 1
                                    }
                                }
                            ],
                            "typeTag": 4
                        }
                    }
                ]
            },
            {
                "address": "0xba12222222228d8ba445958a75a0704d566bf2c8",
                "erc": "",
                "slots": [
                    {
                        "current": "0x01021874000000000015c0086962488223930000000064a3a04446a4332bc800",
                        "key": "0x41cf1269499e0f29644472c1a1abb715383fb41d9ff796d8d6e8ad5b11e6e21d",
                        "prev": "0x0102180f000000000015ce9bfa75b8eca35700000000643ebc9e48b4b927c800"
                    }
                ],
                "storageVariables": [
                    {
                        "name": "_twoTokenPoolTokens",
                        "type": "mapping(bytes32 => struct TwoTokenPoolsBalance.TwoTokenPoolTokens)",
                        "value": {
                            "pairs": [
                                {
                                    "key": "0x0b09dea16768f0799065c475be02919503cb2a3500020000000000000000001a",
                                    "value": {
                                        "fields": [
                                            {
                                                "name": "balances",
                                                "type": "mapping(bytes32 => struct TwoTokenPoolsBalance.TwoTokenPoolBalances)",
                                                "value": {
                                                    "pairs": [
                                                        {
                                                            "key": "0x7bda8b27e891f9687bd6d3312ab3f4f458e2cc91916429d721d617df7ac29fb8",
                                                            "value": {
                                                                "fields": [
                                                                    {
                                                                        "name": "sharedCash",
                                                                        "type": "bytes32",
                                                                        "value": {
                                                                            "current": "0x01021874000000000015c0086962488223930000000064a3a04446a4332bc800",
                                                                            "prev": "0x0102180f000000000015ce9bfa75b8eca35700000000643ebc9e48b4b927c800",
                                                                            "typeTag": 1
                                                                        }
                                                                    }
                                                                ],
                                                                "typeTag": 3
                                                            }
                                                        }
                                                    ],
                                                    "typeTag": 4
                                                }
                                            }
                                        ],
                                        "typeTag": 3
                                    }
                                }
                            ],
                            "typeTag": 4
                        }
                    }
                ]
            },
            {
                "address": "0xc02aaa39b223fe8d0a0e5c4f27ead9083c756cc2",
                "erc": "ERC-20",
                "slots": [
                    {
                        "current": "0x00000000000000000000000000000000000000000000244d4950fb27437fc4ba",
                        "key": "0x3a0f132b80eb284c2ac247698d2ec7dce851ca420b700161ad6082d0e9762150",
                        "prev": "0x00000000000000000000000000000000000000000000244d57e48c3ab3ea447e"
                    },
                    {
                        "current": "0x0000000000000000000000000000000000000000000000185d3d6b4fb21d2bf1",
                        "key": "0x8275c17064fd92fe5b41f3fc855dd1c473a6b1800a19406cb089c51a5c175361",
                        "prev": "0x0000000000000000000000000000000000000000000000184ea9da3c41b2ac2d"
                    }
                ],
                "storageVariables": [
                    {
                        "name": "balanceOf",
                        "type": "mapping(address => uint256)",
                        "value": {
                            "pairs": [
                                {
                                    "key": "0x4a137fd5e7a256ef08a7de531a17d0be0cc7b6b6",
                                    "value": {
                                        "current": "449440501978170731505",
                                        "prev": "448390159327386840109",
                                        "typeTag": 1
                                    }
                                },
                                {
                                    "key": "0xba12222222228d8ba445958a75a0704d566bf2c8",
                                    "value": {
                                        "current": "171430875675491823502522",
                                        "prev": "171431926018142607393918",
                                        "typeTag": 1
                                    }
                                }
                            ],
                            "typeTag": 4
                        }
                    }
                ]
            }
        ]
    }
}