{
    "balance_change": {
        "balanceChanges": [
            {
                "account": "0x0000000000000000000000000000000000000000",
                "assets": [
                    {
                        "address": "0xd668a2e001f3385b8bbc5a8682ac3c0d83c19122",
                        "amount": "1",
                        "iconUrl": "",
                        "isERC1155": false,
                        "isERC721": true,
                        "sign": false,
                        "tokenID": "13624",
                        "value": ""
                    }
                ]
            },
            {
                "account": "0x3a425cc1d9b4b6116f7d86ea5dad5fe6f629fb1d",
                "assets": [
                    {
                        "address": "0xd668a2e001f3385b8bbc5a8682ac3c0d83c19122",
                        "amount": "1",
                        "iconUrl": "",
                        "isERC1155": false,
                        "isERC721": true,
                        "sign": true,
                        "tokenID": "13624",
                        "value": ""
                    }
                ]
            }
        ]
    },
    "profile": {
        "basic_info": {
            "baseFee": "81.562953637",
            "blockNumber": 13357492,
            "callData": "0x04d25fb9000000000000000000000000000000000000000000000000000000000000002000000000000000000000000000000000000000000000000000000000000000010000000000000000000000000000000000000000000000000000000000000e28",
            "debugEnable": true,
            "errorInfo": "",
            "eventCount": 1,
            "feeRecipient": "0xb7e390864a90b7b923c9f9310c6f98aafe43f707",
            "formatValue": "0",
            "gasLimit": 191508,
            "gasPrice": "84.062953637",
            "gasUsed": 171867,
            "intTxnCount": 3,
            "internalRevert": false,
            "internalRevertMessage": "",
            "isContractCreation": false,
            "isFlashloan": false,
            "maxFee": "159.502459072",
            "nonce": 60,
            "overwritedBlockNumber": -1,
            "priorityFee": "2.5",
            "receiver": "0xd668a2e001f3385b8bbc5a8682ac3c0d83c19122",
            "revertMessage": "",
            "sender": "0x3a425cc1d9b4b6116f7d86ea5dad5fe6f629fb1d",
            "simulationEnable": true,
            "sourceTxnHash": "0x4c91095d5396f8b7ab23707f0feb80420c92990b83ae3ac32c53115b6cdd51b1",
            "status": true,
            "timestamp": "2021-10-05T06:45:26Z",
            "transactionFee": "0.014447647652730279",
            "txnHash": "0x4c91095d5396f8b7ab23707f0feb80420c92990b83ae3ac32c53115b6cdd51b1",
            "txnIndex": 96,
            "type": 2,
            "value": "0"
        },
        "fund_flow": [
            {
                "amount": "1",
                "from": "0x0000000000000000000000000000000000000000",
                "id": 1,
                "isERC1155": false,
                "isERC721": true,
                "isReverted": false,
                "order": 1,
                "to": "0x3a425cc1d9b4b6116f7d86ea5dad5fe6f629fb1d",
                "token": "0xd668a2e001f3385b8bbc5a8682ac3c0d83c19122",
                "tokenID": "13624"
            }
        ],
        "token_infos": [
            {
                "address": "0xc02aaa39b223fe8d0a0e5c4f27ead9083c756cc2",
                "decimals": 18
            },
            {
                "address": "0xeeeeeeeeeeeeeeeeeeeeeeeeeeeeeeeeeeeeeeee",
                "decimals": 18
            }
        ]
    },
    "address_label": {
        "labels": [
            {
                "address": "0xd668a2e001f3385b8bbc5a8682ac3c0d83c19122",
                "label": "KingFrogs: KF Token"
            },
            {
                "address": "0x3fe1a4c1481c8351e91b64d5c398b159de07cbc5",
                "label": "Sup Ducks: SD Token"
            },
            {
                "address": "0x1095c0302b55d73c930abd8a781921154a9d70c3",
                "label": "SupDucksV2"
            },
            {
                "address": "0x0000000000000000000000000000000000000004",
                "label": "Precompiled"
            },
            {
                "address": "0xeeeeeeeeeeeeeeeeeeeeeeeeeeeeeeeeeeeeeeee",
                "label": "Ether"
            },
            {
                "address": "0x8315b7eb77e171643946ae0416d48d79c6b2149b",
                "label": "KingFrogs"
            },
            {
                "address": "0x0000000000000000000000000000000000000001",
                "label": "Precompiled"
            },
            {
                "address": "0x0000000000000000000000000000000000000002",
                "label": "Precompiled"
            },
            {
                "address": "0x0000000000000000000000000000000000000003",
                "label": "Precompiled"
            }
        ]
    },
    "trace": {
        "accountLabels": null,
        "dataMap": {
            "-1": {
                "invocation": {
                    "address": "0x3a425cc1d9b4b6116f7d86ea5dad5fe6f629fb1d",
                    "callData": "",
                    "decodedMethod": null,
                    "errorInfo": "",
                    "fromAddress": "",
                    "gasUsed": 0,
                    "id": -1,
                    "methodDecoded": false,
                    "operation": "",
                    "output": "",
                    "revert": false,
                    "revertMessage": "",
                    "selector": "",
                    "status": false,
                    "value": ""
                },
                "nodeType": 0
            },
            "0": {
                "invocation": {
                    "address": "0xd668a2e001f3385b8bbc5a8682ac3c0d83c19122",
                    "callData": "0x000000000000000000000000000000000000000000000000000000000000002000000000000000000000000000000000000000000000000000000000000000010000000000000000000000000000000000000000000000000000000000000e28",
                    "decodedMethod": {
                        "callParams": [
                            {
                                "name": "duckTokenIds",
                                "type": "uint256[]",
                                "value": [
                                    "3,624"
                                ]
                            }
                        ],
                        "constructorArguments": "",
                        "name": "claimFrogs",
                        "returnParams": [],
                        "signature": "claimFrogs(uint256[])"
                    },
                    "errorInfo": "",
                    "fromAddress": "0x3a425cc1d9b4b6116f7d86ea5dad5fe6f629fb1d",
                    "gasUsed": 171867,
                    "id": 0,
                    "methodDecoded": true,
                    "operation": "CALL",
                    "output": "",
                    "revert": false,
                    "revertMessage": "",
                    "selector": "0x04d25fb9",
                    "status": true,
                    "value": "0"
                },
                "nodeType": 0
            },
            "1": {
                "invocation": {
                    "address": "0x8315b7eb77e171643946ae0416d48d79c6b2149b",
                    "callData": "0x000000000000000000000000000000000000000000000000000000000000002000000000000000000000000000000000000000000000000000000000000000010000000000000000000000000000000000000000000000000000000000000e28",
                    "decodedMethod": {
                        "callParams": [
                            {
                                "name": "duckTokenIds",
                                "type": "uint256[]",
                                "value": [
                                    "3,624"
                                ]
                            }
                        ],
                        "constructorArguments": "",
                        "name": "claimFrogs",
                        "returnParams": [],
                        "signature": "claimFrogs(uint256[])"
                    },
                    "errorInfo": "",
                    "fromAddress": "0xd668a2e001f3385b8bbc5a8682ac3c0d83c19122",
                    "gasUsed": 143034,
                    "id": 1,
                    "methodDecoded": true,
                    "operation": "DELEGATECALL",
                    "output": "",
                    "revert": false,
                    "revertMessage": "",
                    "selector": "0x04d25fb9",
                    "status": true,
                    "value": "0"
                },
                "nodeType": 0
            },
            "2": {
                "invocation": {
                    "address": "0x3fe1a4c1481c8351e91b64d5c398b159de07cbc5",
                    "callData": "0x0000000000000000000000000000000000000000000000000000000000000e28",
                    "decodedMethod": {
                        "callParams": [
                            {
                                "name": "tokenId",
                                "type": "uint256",
                                "value": "3,624"
                            }
                        ],
                        "constructorArguments": "",
                        "name": "ownerOf",
                        "returnParams": [
                            {
                                "name": "",
                                "type": "address",
                                "value": "0x3a425cc1d9b4b6116f7d86ea5dad5fe6f629fb1d"
                            }
                        ],
                        "signature": "ownerOf(uint256)"
                    },
                    "errorInfo": "",
                    "fromAddress": "0xd668a2e001f3385b8bbc5a8682ac3c0d83c19122",
                    "gasUsed": 9977,
                    "id": 2,
                    "methodDecoded": true,
                    "operation": "STATICCALL",
                    "output": "0x0000000000000000000000003a425cc1d9b4b6116f7d86ea5dad5fe6f629fb1d",
                    "revert": false,
                    "revertMessage": "",
                    "selector": "0x6352211e",
                    "status": true,
                    "value": "0"
                },
                "nodeType": 0
            },
            "3": {
                "invocation": {
                    "address": "0x1095c0302b55d73c930abd8a781921154a9d70c3",
                    "callData": "0x0000000000000000000000000000000000000000000000000000000000000e28",
                    "decodedMethod": {
                        "callParams": [
                            {
                                "name": "tokenId",
                                "type": "uint256",
                                "value": "3,624"
                            }
                        ],
                        "constructorArguments": "",
                        "name": "ownerOf",
                        "returnParams": [
                            {
                                "name": "",
                                "type": "address",
                                "value": "0x3a425cc1d9b4b6116f7d86ea5dad5fe6f629fb1d"
                            }
                        ],
                        "signature": "ownerOf(uint256)"
                    },
                    "errorInfo": "",
                    "fromAddress": "0x3fe1a4c1481c8351e91b64d5c398b159de07cbc5",
                    "gasUsed": 2646,
                    "id": 3,
                    "methodDecoded": true,
                    "operation": "DELEGATECALL",
                    "output": "0x0000000000000000000000003a425cc1d9b4b6116f7d86ea5dad5fe6f629fb1d",
                    "revert": false,
                    "revertMessage": "",
                    "selector": "0x6352211e",
                    "status": true,
                    "value": "0"
                },
                "nodeType": 0
            },
            "4": {
                "event": {
                    "contract": "0xd668a2e001f3385b8bbc5a8682ac3c0d83c19122",
                    "decodedLog": {
                        "name": "Transfer",
                        "params": [
                            {
                                "name": "from",
                                "type": "address",
                                "value": "0x0000000000000000000000000000000000000000"
                            },
                            {
                                "name": "to",
                                "type": "address",
                                "value": "0x3a425cc1d9b4b6116f7d86ea5dad5fe6f629fb1d"
                            },
                            {
                                "decimalAvailable": true,
                                "name": "tokenId",
                                "type": "uint256",
                                "value": "13,624"
                            }
                        ],
                        "signature": "Transfer(address,address,uint256)"
                    },
                    "id": 4,
                    "logData": "0x",
                    "logDecoded": true,
                    "operation": "EVENT",
                    "revert": false,
                    "status": true,
                    "topics": [
                        "0xddf252ad1be2c89b69c2b068fc378daa952ba7f163c4a11628f55a4df523b3ef",
                        "0x0000000000000000000000000000000000000000000000000000000000000000",
                        "0x0000000000000000000000003a425cc1d9b4b6116f7d86ea5dad5fe6f629fb1d",
                        "0x0000000000000000000000000000000000000000000000000000000000003538"
                    ]
                },
                "nodeType": 1
            }
        },
        "gasFlame": [
            {
                "children": [
                    {
                        "children": [
                            {
                                "children": [],
                                "depth": 0,
                                "name": "Initial Gas",
                                "value": 21496
                            },
                            {
                                "children": [
                                    {
                                        "children": [
                                            {
                                                "children": [
                                                    {
                                                        "children": [],
                                                        "depth": 3,
                                                        "name": "ownerOf",
                                                        "value": 2646
                                                    }
                                                ],
                                                "depth": 2,
                                                "name": "ownerOf",
                                                "value": 9977
                                            }
                                        ],
                                        "depth": 1,
                                        "name": "claimFrogs",
                                        "value": 143034
                                    }
                                ],
                                "depth": 0,
                                "name": "Executed Gas",
                                "value": 150371
                            }
                        ],
                        "depth": -1,
                        "name": "Actual Gas Used",
                        "value": 171867
                    },
                    {
                        "children": [],
                        "depth": -1,
                        "name": "Refunded Gas",
                        "value": 0
                    }
                ],
                "depth": -2,
                "name": "Total Gas",
                "value": 171867
            }
        ],
        "isConfirmed": true,
        "mainTrace": [
            {
                "children": [
                    {
                        "children": [
                            {
                                "children": [
                                    {
                                        "children": [
                                            {
                                                "children": [],
                                                "depth": 3,
                                                "id": 3,
                                                "order": 3
                                            }
                                        ],
                                        "depth": 2,
                                        "id": 2,
                                        "order": 2
                                    },
                                    {
                                        "children": [],
                                        "depth": 2,
                                        "id": 4,
                                        "order": 4
                                    }
                                ],
                                "depth": 1,
                                "id": 1,
                                "order": 1
                            }
                        ],
                        "depth": 0,
                        "id": 0,
                        "order": 0
                    }
                ],
                "depth": -1,
                "id": -1,
                "order": -1
            }
        ],
        "mainTraceNodeCount": 5,
        "parentIdMap": {
            "0": -1,
            "1": 0,
            "2": 1,
            "3": 2,
            "4": 1
        },
        "tidyTrace": [
            {
                "children": [
                    {
                        "children": [
                            {
                                "children": [
                                    {
                                        "children": [],
                                        "depth": 2,
                                        "id": 4,
                                        "order": 4
                                    }
                                ],
                                "depth": 1,
                                "id": 1,
                                "order": 1
                            }
                        ],
                        "depth": 0,
                        "id": 0,
                        "order": 0
                    }
                ],
                "depth": -1,
                "id": -1,
                "order": -1
            }
        ],
        "tidyTraceNodeCount": 3
    },
    "state_change": {
        "stateChanges": [
            {
                "address": "0xd668a2e001f3385b8bbc5a8682ac3c0d83c19122",
                "erc": "ERC-721",
                "slots": [
                    {
                        "current": "0x0000000000000000000000000000000000000000000000000000000000004105",
                        "key": "0xfff736f8ca26b1637283066d0744b84165319d4c3e839963fb67fead78f1ae79",
                        "prev": "0x0000000000000000000000000000000000000000000000000000000000000000"
                    },
                    {
                        "current": "0x0000000000000000000000000000000000000000000000000000000000004106",
                        "key": "0x0000000000000000000000000000000000000000000000000000000000000099",
                        "prev": "0x0000000000000000000000000000000000000000000000000000000000004105"
                    },
                    {
                        "current": "0x0000000000000000000000000000000000000000000000000000000000003538",
                        "key": "0x72a152ddfb8e864297c917af52ea6c1c68aead0fee1a62673fcc7e0c9497de05",
                        "prev": "0x0000000000000000000000000000000000000000000000000000000000000000"
                    },
                    {
                        "current": "0x0000000000000000000000000000000000000000000000000000000000003538",
                        "key": "0x05db44bc71e44f78865ae2d0afe85e64098a4abd61fcb30869c20c8f961819b4",
                        "prev": "0x0000000000000000000000000000000000000000000000000000000000000000"
                    },
                    {
                        "current": "0x0000000000000000000000000000000000000000000000000000000000000001",
                        "key": "0x0de10f68309eeb319acfb4366e76490324c24bc3558cb35f289927c3d00deb7d",
                        "prev": "0x0000000000000000000000000000000000000000000000000000000000000000"
                    },
                    {
                        "current": "0x0000000000000000000000000000000000000000000000000000000000000002",
                        "key": "0xbcb7a8f7cdf7da652d45b0c05316c34516fc81f693116db916fa0d7231bc1cf9",
                        "prev": "0x0000000000000000000000000000000000000000000000000000000000000001"
                    },
                    {
                        "current": "0x0000000000000000000000003a425cc1d9b4b6116f7d86ea5dad5fe6f629fb1d",
                        "key": "0xb3412ecbbba49f9e6a8bee201bd26351f5257edc19ed07608a141aa9bf28b9a3",
                        "prev": "0x0000000000000000000000000000000000000000000000000000000000000000"
                    }
                ],
                "storageVariables": [
                    {
                        "name": "_allTokensIndex",
                        "type": "mapping(uint256 => uint256)",
                        "value": {
                            "pairs": [
                                {
                                    "key": "13624",
                                    "value": {
                                        "current": "16645",
                                        "prev": "0",
                                        "typeTag": 1
                                    }
                                }
                            ],
                            "typeTag": 4
                        }
                    },
                    {
                        "name": "_allTokens",
                        "type": "uint256[]",
                        "value": {
                            "elemType": "uint256",
                            "elems": [
                                {
                                    "index": 16645,
                                    "value": {
                                        "current": "13624",
                                        "prev": "0",
                                        "typeTag": 1
                                    }
                                }
                            ],
                            "typeTag": 2
                        }
                    },
                    {
                        "name": "_ownedTokens",
                        "type": "mapping(address => mapping(uint256 => uint256))",
                        "value": {
                            "pairs": [
                                {
                                    "key": "0x3a425cc1d9b4b6116f7d86ea5dad5fe6f629fb1d",
                                    "value": {
                                        "pairs": [
                                            {
                                                "key": "1",
                                                "value": {
                                                    "current": "13624",
                                                    "prev": "0",
                                                    "typeTag": 1
                                                }
                                            }
                                        ],
                                        "typeTag": 4
                                    }
                                }
                            ],
                            "typeTag": 4
                        }
                    },
                    {
                        "name": "_ownedTokensIndex",
                        "type": "mapping(uint256 => uint256)",
                        "value": {
                            "pairs": [
                                {
                                    "key": "13624",
                                    "value": {
                                        "current": "1",
                                        "prev": "0",
                                        "typeTag": 1
                                    }
                                }
                            ],
                            "typeTag": 4
                        }
                    },
                    {
                        "name": "_balances",
                        "type": "mapping(address => uint256)",
                        "value": {
                            "pairs": [
                                {
                                    "key": "0x3a425cc1d9b4b6116f7d86ea5dad5fe6f629fb1d",
                                    "value": {
                                        "current": "2",
                                        "prev": "1",
                                        "typeTag": 1
                                    }
                                }
                            ],
                            "typeTag": 4
                        }
                    },
                    {
                        "name": "_owners",
                        "type": "mapping(uint256 => address)",
                        "value": {
                            "pairs": [
                                {
                                    "key": "13624",
                                    "value": {
                                        "current": "0x3a425cc1d9b4b6116f7d86ea5dad5fe6f629fb1d",
                                        "prev": "0x0000000000000000000000000000000000000000",
                                        "typeTag": 1
                                    }
                                }
                            ],
                            "typeTag": 4
                        }
                    }
                ]
            }
        ]
    }
}