{
    "balance_change": {
        "balanceChanges": [
            {
                "account": "0x4e3ab0293fb15621ba12eee02579ece8aa72e0f1",
                "assets": [
                    {
                        "address": "0x8713d26637cf49e1b6b4a7ce57106aabc9325343",
                        "amount": "1,324,176",
                        "iconUrl": "https://assets.blocksec.com/icon/e5d484b8facdab4e05258bbb6b390747b1eca68e6b107111054338cb6c02e7df.png",
                        "isERC1155": false,
                        "isERC721": false,
                        "sign": false,
                        "value": ""
                    }
                ]
            },
            {
                "account": "0x6f45328695eeb485ee342a2d0a7c0e35ea0f3bd5",
                "assets": [
                    {
                        "address": "0x8713d26637cf49e1b6b4a7ce57106aabc9325343",
                        "amount": "1,324,176",
                        "iconUrl": "https://assets.blocksec.com/icon/e5d484b8facdab4e05258bbb6b390747b1eca68e6b107111054338cb6c02e7df.png",
                        "isERC1155": false,
                        "isERC721": false,
                        "sign": true,
                        "value": ""
                    }
                ]
            }
        ]
    },
    "profile": {
        "basic_info": {
            "baseFee": "",
            "blockNumber": 5874335,
            "callData": "0xa9059cbb0000000000000000000000006f45328695eeb485ee342a2d0a7c0e35ea0f3bd5000000000000000000000000000000000000000000011867b98c56de78400000",
            "debugEnable": true,
            "errorInfo": "",
            "eventCount": 1,
            "feeRecipient": "0x52bc44d5378309ee2abf1539bf71de1b7d7be3b5",
            "formatValue": "0",
            "gasLimit": 60000,
            "gasPrice": "6",
            "gasUsed": 38597,
            "intTxnCount": 0,
            "internalRevert": false,
            "internalRevertMessage": "",
            "isContractCreation": false,
            "isFlashloan": false,
            "maxFee": "",
            "nonce": 0,
            "overwritedBlockNumber": -1,
            "priorityFee": "",
            "receiver": "0x8713d26637cf49e1b6b4a7ce57106aabc9325343",
            "revertMessage": "",
            "sender": "0x4e3ab0293fb15621ba12eee02579ece8aa72e0f1",
            "simulationEnable": true,
            "sourceTxnHash": "0x4cb154dd34800ecaa2d28021fbf9d85c079b7c850aefbf0b68c794124edd01bf",
            "status": true,
            "timestamp": "2018-06-29T10:28:03Z",
            "transactionFee": "0.000231582",
            "txnHash": "0x4cb154dd34800ecaa2d28021fbf9d85c079b7c850aefbf0b68c794124edd01bf",
            "txnIndex": 121,
            "type": 0,
            "value": "0"
        },
        "fund_flow": [
            {
                "amount": "1,324,176",
                "from": "0x4e3ab0293fb15621ba12eee02579ece8aa72e0f1",
                "id": 1,
                "isERC1155": false,
                "isERC721": false,
                "isReverted": false,
                "order": 1,
                "to": "0x6f45328695eeb485ee342a2d0a7c0e35ea0f3bd5",
                "token": "0x8713d26637cf49e1b6b4a7ce57106aabc9325343"
            }
        ],
        "token_infos": [
            {
                "address": "0x8713d26637cf49e1b6b4a7ce57106aabc9325343",
                "decimals": 18
            },
            {
                "address": "0xc02aaa39b223fe8d0a0e5c4f27ead9083c756cc2",
                "decimals": 18
            },
            {
                "address": "0xeeeeeeeeeeeeeeeeeeeeeeeeeeeeeeeeeeeeeeee",
                "decimals": 18
            }
        ]
    },
    "address_label": {
        "labels": [
            {
                "address": "0x8713d26637cf49e1b6b4a7ce57106aabc9325343",
                "label": "Content Neutrality Network: CNN Token"
            },
            {
                "address": "0x0000000000000000000000000000000000000001",
                "label": "Precompiled"
            },
            {
                "address": "0x0000000000000000000000000000000000000002",
                "label": "Precompiled"
            },
            {
                "address": "0x0000000000000000000000000000000000000003",
                "label": "Precompiled"
            },
            {
                "address": "0x0000000000000000000000000000000000000004",
                "label": "Precompiled"
            },
            {
                "address": "0xeeeeeeeeeeeeeeeeeeeeeeeeeeeeeeeeeeeeeeee",
                "label": "Ether"
            }
        ]
    },
    "trace": {
        "accountLabels": null,
        "dataMap": {
            "-1": {
                "invocation": {
                    "address": "0x4e3ab0293fb15621ba12eee02579ece8aa72e0f1",
                    "callData": "",
                    "decodedMethod": null,
                    "errorInfo": "",
                    "fromAddress": "",
                    "gasUsed": 0,
                    "id": -1,
                    "methodDecoded": false,
                    "operation": "",
                    "output": "",
                    "revert": false,
                    "revertMessage": "",
                    "selector": "",
                    "status": false,
                    "value": ""
                },
                "nodeType": 0
            },
            "0": {
                "invocation": {
                    "address": "0x8713d26637cf49e1b6b4a7ce57106aabc9325343",
                    "callData": "0x0000000000000000000000006f45328695eeb485ee342a2d0a7c0e35ea0f3bd5000000000000000000000000000000000000000000011867b98c56de78400000",
                    "decodedMethod": {
                        "callParams": [
                            {
                                "name": "_to",
                                "type": "address",
                                "value": "0x6f45328695eeb485ee342a2d0a7c0e35ea0f3bd5"
                            },
                            {
                                "decimalAvailable": true,
                                "name": "_value",
                                "type": "uint256",
                                "value": "1,324,176,000,000,000,000,000,000"
                            }
                        ],
                        "constructorArguments": "",
                        "name": "transfer",
                        "returnParams": [
                            {
                                "name": "",
                                "type": "bool",
                                "value": true
                            }
                        ],
                        "signature": "transfer(address,uint256)"
                    },
                    "errorInfo": "",
                    "fromAddress": "0x4e3ab0293fb15621ba12eee02579ece8aa72e0f1",
                    "gasUsed": 38597,
                    "id": 0,
                    "methodDecoded": true,
                    "operation": "CALL",
                    "output": "0x0000000000000000000000000000000000000000000000000000000000000001",
                    "revert": false,
                    "revertMessage": "",
                    "selector": "0xa9059cbb",
                    "status": true,
                    "value": "0"
                },
                "nodeType": 0
            },
            "1": {
                "event": {
                    "contract": "0x8713d26637cf49e1b6b4a7ce57106aabc9325343",
                    "decodedLog": {
                        "name": "Transfer",
                        "params": [
                            {
                                "name": "_from",
                                "type": "address",
                                "value": "0x4e3ab0293fb15621ba12eee02579ece8aa72e0f1"
                            },
                            {
                                "name": "_to",
                                "type": "address",
                                "value": "0x6f45328695eeb485ee342a2d0a7c0e35ea0f3bd5"
                            },
                            {
                                "decimalAvailable": true,
                                "name": "_value",
                                "type": "uint256",
                                "value": "1,324,176,000,000,000,000,000,000"
                            }
                        ],
                        "signature": "Transfer(address,address,uint256)"
                    },
                    "id": 1,
                    "logData": "0x000000000000000000000000000000000000000000011867b98c56de78400000",
                    "logDecoded": true,
                    "operation": "EVENT",
                    "revert": false,
                    "status": true,
                    "topics": [
                        "0xddf252ad1be2c89b69c2b068fc378daa952ba7f163c4a11628f55a4df523b3ef",
                        "0x0000000000000000000000004e3ab0293fb15621ba12eee02579ece8aa72e0f1",
                        "0x0000000000000000000000006f45328695eeb485ee342a2d0a7c0e35ea0f3bd5"
                    ]
                },
                "nodeType": 1
            }
        },
        "gasFlame": [
            {
                "children": [
                    {
                        "children": [
                            {
                                "children": [],
                                "depth": 0,
                                "name": "Initial Gas",
                                "value": 23384
                            },
                            {
                                "children": [],
                                "depth": 0,
                                "name": "Executed Gas",
                                "value": 15213
                            }
                        ],
                        "depth": -1,
                        "name": "Actual Gas Used",
                        "value": 38597
                    },
                    {
                        "children": [],
                        "depth": -1,
                        "name": "Refunded Gas",
                        "value": 0
                    }
                ],
                "depth": -2,
                "name": "Total Gas",
                "value": 38597
            }
        ],
        "isConfirmed": true,
        "mainTrace": [
            {
                "children": [
                    {
                        "children": [
                            {
                                "children": [],
                                "depth": 1,
                                "id": 1,
                                "order": 1
                            }
                        ],
                        "depth": 0,
                        "id": 0,
                        "order": 0
                    }
                ],
                "depth": -1,
                "id": -1,
                "order": -1
            }
        ],
        "mainTraceNodeCount": 2,
        "parentIdMap": {
            "0": -1,
            "1": 0
        },
        "tidyTrace": [
            {
                "children": [
                    {
                        "children": [
                            {
                                "children": [],
                                "depth": 1,
                                "id": 1,
                                "order": 1
                            }
                        ],
                        "depth": 0,
                        "id": 0,
                        "order": 0
                    }
                ],
                "depth": -1,
                "id": -1,
                "order": -1
            }
        ],
        "tidyTraceNodeCount": 2
    },
    "state_change": {
        "stateChanges": [
            {
                "address": "0x8713d26637cf49e1b6b4a7ce57106aabc9325343",
                "erc": "ERC-20",
                "slots": [
                    {
                        "current": "0x0000000000000000000000000000000000000000000000000a1c81d6f7598000",
                        "key": "0x9f9c10e30fed646a7a7302111c50ea985e5dec7a06ffdaa3c25729ec6d9b50f9",
                        "prev": "0x000000000000000000000000000000000000000000011867c3a8d8b56f998000"
                    },
                    {
                        "current": "0x00000000000000000000000000000000000000000003be49d9d7475ee33c0000",
                        "key": "0xc10e80537a0dc0e327046fa314733447a5b9fb5e135acd5d12d79c6c9acec57d",
                        "prev": "0x00000000000000000000000000000000000000000002a5e2204af0806afc0000"
                    }
                ],
                "storageVariables": [
                    {
                        "name": "balances",
                        "type": "mapping(address => uint256)",
                        "value": {
                            "pairs": [
                                {
                                    "key": "0x4e3ab0293fb15621ba12eee02579ece8aa72e0f1",
                                    "value": {
                                        "current": "728600000000000000",
                                        "prev": "1324176728600000000000000",
                                        "typeTag": 1
                                    }
                                },
                                {
                                    "key": "0x6f45328695eeb485ee342a2d0a7c0e35ea0f3bd5",
                                    "value": {
                                        "current": "4525389400000000000000000",
                                        "prev": "3201213400000000000000000",
                                        "typeTag": 1
                                    }
                                }
                            ],
                            "typeTag": 4
                        }
                    }
                ]
            }
        ]
    }
}