{
    "balance_change": {
        "balanceChanges": [
            {
                "account": "0xb8001c3ec9aa1985f6c747e25c28324e4a361ec1",
                "assets": [
                    {
                        "address": "0x820fdda87a6fae864d3da0c2d9819b9e50a87fc9",
                        "amount": "1,484.916382",
                        "iconUrl": "",
                        "isERC1155": false,
                        "isERC721": false,
                        "sign": false,
                        "value": ""
                    }
                ]
            },
            {
                "account": "0x21ab4869a117fbdc74e99af5de292d0663b30734",
                "assets": [
                    {
                        "address": "0x820fdda87a6fae864d3da0c2d9819b9e50a87fc9",
                        "amount": "1,484.916382",
                        "iconUrl": "",
                        "isERC1155": false,
                        "isERC721": false,
                        "sign": true,
                        "value": ""
                    }
                ]
            }
        ]
    },
    "profile": {
        "basic_info": {
            "baseFee": "",
            "blockNumber": 11090045,
            "callData": "0xa9059cbb00000000000000000000000021ab4869a117fbdc74e99af5de292d0663b30734000000000000000000000000000000000000000000000000000000005882069e",
            "debugEnable": true,
            "errorInfo": "",
            "eventCount": 1,
            "feeRecipient": "0x5a0b54d5dc17e0aadc383d2db43b0a0d3e029c4c",
            "formatValue": "0",
            "gasLimit": 61482,
            "gasPrice": "23",
            "gasUsed": 41482,
            "intTxnCount": 0,
            "internalRevert": false,
            "internalRevertMessage": "",
            "isContractCreation": false,
            "isFlashloan": false,
            "maxFee": "",
            "nonce": 212780,
            "overwritedBlockNumber": -1,
            "priorityFee": "",
            "receiver": "0x820fdda87a6fae864d3da0c2d9819b9e50a87fc9",
            "revertMessage": "",
            "sender": "0xb8001c3ec9aa1985f6c747e25c28324e4a361ec1",
            "simulationEnable": true,
            "sourceTxnHash": "0x4d70f9185d0cb04280ff590e69b278fa1f44cf6f44e082a7a5b30ac5e40c823d",
            "status": true,
            "timestamp": "2020-10-20T01:38:02Z",
            "transactionFee": "0.000954086",
            "txnHash": "0x4d70f9185d0cb04280ff590e69b278fa1f44cf6f44e082a7a5b30ac5e40c823d",
            "txnIndex": 156,
            "type": 0,
            "value": "0"
        },
        "fund_flow": [
            {
                "amount": "1,484.916382",
                "from": "0xb8001c3ec9aa1985f6c747e25c28324e4a361ec1",
                "id": 1,
                "isERC1155": false,
                "isERC721": false,
                "isReverted": false,
                "order": 1,
                "to": "0x21ab4869a117fbdc74e99af5de292d0663b30734",
                "token": "0x820fdda87a6fae864d3da0c2d9819b9e50a87fc9"
            }
        ],
        "token_infos": [
            {
                "address": "0x820fdda87a6fae864d3da0c2d9819b9e50a87fc9",
                "decimals": 6
            },
            {
                "address": "0xc02aaa39b223fe8d0a0e5c4f27ead9083c756cc2",
                "decimals": 18
            },
            {
                "address": "0xeeeeeeeeeeeeeeeeeeeeeeeeeeeeeeeeeeeeeeee",
                "decimals": 18
            }
        ]
    },
    "address_label": {
        "labels": [
            {
                "address": "0x0000000000000000000000000000000000000004",
                "label": "Precompiled"
            },
            {
                "address": "0xeeeeeeeeeeeeeeeeeeeeeeeeeeeeeeeeeeeeeeee",
                "label": "Ether"
            },
            {
                "address": "0xb8001c3ec9aa1985f6c747e25c28324e4a361ec1",
                "label": "Cobo: Custody"
            },
            {
                "address": "0x820fdda87a6fae864d3da0c2d9819b9e50a87fc9",
                "label": "SUN Token (SUNT)"
            },
            {
                "address": "0x0000000000000000000000000000000000000001",
                "label": "Precompiled"
            },
            {
                "address": "0x0000000000000000000000000000000000000002",
                "label": "Precompiled"
            },
            {
                "address": "0x0000000000000000000000000000000000000003",
                "label": "Precompiled"
            }
        ]
    },
    "trace": {
        "accountLabels": null,
        "dataMap": {
            "-1": {
                "invocation": {
                    "address": "0xb8001c3ec9aa1985f6c747e25c28324e4a361ec1",
                    "callData": "",
                    "decodedMethod": null,
                    "errorInfo": "",
                    "fromAddress": "",
                    "gasUsed": 0,
                    "id": -1,
                    "methodDecoded": false,
                    "operation": "",
                    "output": "",
                    "revert": false,
                    "revertMessage": "",
                    "selector": "",
                    "status": false,
                    "value": ""
                },
                "nodeType": 0
            },
            "0": {
                "invocation": {
                    "address": "0x820fdda87a6fae864d3da0c2d9819b9e50a87fc9",
                    "callData": "0x00000000000000000000000021ab4869a117fbdc74e99af5de292d0663b30734000000000000000000000000000000000000000000000000000000005882069e",
                    "decodedMethod": {
                        "callParams": [
                            {
                                "name": "_to",
                                "type": "address",
                                "value": "0x21ab4869a117fbdc74e99af5de292d0663b30734"
                            },
                            {
                                "decimalAvailable": true,
                                "name": "_value",
                                "type": "uint256",
                                "value": "1,484,916,382"
                            }
                        ],
                        "constructorArguments": "",
                        "name": "transfer",
                        "returnParams": [
                            {
                                "name": "success",
                                "type": "bool",
                                "value": true
                            }
                        ],
                        "signature": "transfer(address,uint256)"
                    },
                    "errorInfo": "",
                    "fromAddress": "0xb8001c3ec9aa1985f6c747e25c28324e4a361ec1",
                    "gasUsed": 41482,
                    "id": 0,
                    "methodDecoded": true,
                    "operation": "CALL",
                    "output": "0x0000000000000000000000000000000000000000000000000000000000000001",
                    "revert": false,
                    "revertMessage": "",
                    "selector": "0xa9059cbb",
                    "status": true,
                    "value": "0"
                },
                "nodeType": 0
            },
            "1": {
                "event": {
                    "contract": "0x820fdda87a6fae864d3da0c2d9819b9e50a87fc9",
                    "decodedLog": {
                        "name": "Transfer",
                        "params": [
                            {
                                "name": "_from",
                                "type": "address",
                                "value": "0xb8001c3ec9aa1985f6c747e25c28324e4a361ec1"
                            },
                            {
                                "name": "_to",
                                "type": "address",
                                "value": "0x21ab4869a117fbdc74e99af5de292d0663b30734"
                            },
                            {
                                "decimalAvailable": true,
                                "name": "_value",
                                "type": "uint256",
                                "value": "1,484,916,382"
                            }
                        ],
                        "signature": "Transfer(address,address,uint256)"
                    },
                    "id": 1,
                    "logData": "0x000000000000000000000000000000000000000000000000000000005882069e",
                    "logDecoded": true,
                    "operation": "EVENT",
                    "revert": false,
                    "status": true,
                    "topics": [
                        "0xddf252ad1be2c89b69c2b068fc378daa952ba7f163c4a11628f55a4df523b3ef",
                        "0x000000000000000000000000b8001c3ec9aa1985f6c747e25c28324e4a361ec1",
                        "0x00000000000000000000000021ab4869a117fbdc74e99af5de292d0663b30734"
                    ]
                },
                "nodeType": 1
            }
        },
        "gasFlame": [
            {
                "children": [
                    {
                        "children": [
                            {
                                "children": [],
                                "depth": 0,
                                "name": "Initial Gas",
                                "value": 21608
                            },
                            {
                                "children": [],
                                "depth": 0,
                                "name": "Executed Gas",
                                "value": 19874
                            }
                        ],
                        "depth": -1,
                        "name": "Actual Gas Used",
                        "value": 41482
                    },
                    {
                        "children": [],
                        "depth": -1,
                        "name": "Refunded Gas",
                        "value": 0
                    }
                ],
                "depth": -2,
                "name": "Total Gas",
                "value": 41482
            }
        ],
        "isConfirmed": true,
        "mainTrace": [
            {
                "children": [
                    {
                        "children": [
                            {
                                "children": [],
                                "depth": 1,
                                "id": 1,
                                "order": 1
                            }
                        ],
                        "depth": 0,
                        "id": 0,
                        "order": 0
                    }
                ],
                "depth": -1,
                "id": -1,
                "order": -1
            }
        ],
        "mainTraceNodeCount": 2,
        "parentIdMap": {
            "0": -1,
            "1": 0
        },
        "tidyTrace": [
            {
                "children": [
                    {
                        "children": [
                            {
                                "children": [],
                                "depth": 1,
                                "id": 1,
                                "order": 1
                            }
                        ],
                        "depth": 0,
                        "id": 0,
                        "order": 0
                    }
                ],
                "depth": -1,
                "id": -1,
                "order": -1
            }
        ],
        "tidyTraceNodeCount": 2
    },
    "state_change": {
        "stateChanges": [
            {
                "address": "0x820fdda87a6fae864d3da0c2d9819b9e50a87fc9",
                "erc": "ERC-20",
                "slots": [
                    {
                        "current": "0x0000000000000000000000000000000000000000000000000000019c5fded075",
                        "key": "0xef12a80dbc451c1d12f8ff18fb6dd79919d5aabbe94b9afab342e3ce71010d3a",
                        "prev": "0x0000000000000000000000000000000000000000000000000000019cb860d713"
                    },
                    {
                        "current": "0x00000000000000000000000000000000000000000000000000000001ed7de6d3",
                        "key": "0x4ada6577d803c881c972b61f25509f952eb4b86a8669ae1c26973f6ee2b0988e",
                        "prev": "0x0000000000000000000000000000000000000000000000000000000194fbe035"
                    }
                ],
                "storageVariables": []
            }
        ]
    }
}