{
    "balance_change": {
        "balanceChanges": [
            {
                "account": "0x51cd8c84e3c874ef92822b4302992b237ad9ce3e",
                "assets": [
                    {
                        "address": "0xeeeeeeeeeeeeeeeeeeeeeeeeeeeeeeeeeeeeeeee",
                        "amount": "0.1012",
                        "iconUrl": "https://assets.blocksec.com/image/1663669189317-3.png",
                        "isERC1155": false,
                        "isERC721": false,
                        "sign": false,
                        "value": "373.38035503999999454"
                    }
                ]
            },
            {
                "account": "0xd523794c879d9ec028960a231f866758e405be34",
                "assets": [
                    {
                        "address": "0xeeeeeeeeeeeeeeeeeeeeeeeeeeeeeeeeeeeeeeee",
                        "amount": "0.1012",
                        "iconUrl": "https://assets.blocksec.com/image/1663669189317-3.png",
                        "isERC1155": false,
                        "isERC721": false,
                        "sign": true,
                        "value": "373.38035503999999454"
                    }
                ]
            }
        ]
    },
    "profile": {
        "basic_info": {
            "baseFee": "9.992311731",
            "blockNumber": 20054854,
            "callData": "0x3a29dbae0000000000000000000000000000000000000000000000000000000000000002",
            "debugEnable": true,
            "errorInfo": "",
            "eventCount": 2,
            "feeRecipient": "0x1f9090aae28b8a3dceadf281b0f12828e676c326",
            "formatValue": "0.1012",
            "gasLimit": 216991,
            "gasPrice": "12.87941666",
            "gasUsed": 175701,
            "intTxnCount": 3,
            "internalRevert": false,
            "internalRevertMessage": "",
            "isContractCreation": false,
            "isFlashloan": false,
            "maxFee": "",
            "nonce": 3,
            "overwritedBlockNumber": -1,
            "priorityFee": "",
            "receiver": "0xd523794c879d9ec028960a231f866758e405be34",
            "revertMessage": "",
            "sender": "0x51cd8c84e3c874ef92822b4302992b237ad9ce3e",
            "simulationEnable": true,
            "sourceTxnHash": "0x4d81249ef16ac863fbd1f381cd0c196d7657ea0035c5d6b40b9ab397ae462133",
            "status": true,
            "timestamp": "2024-06-09T14:26:23Z",
            "transactionFee": "0.00226292638657866",
            "txnHash": "0x4d81249ef16ac863fbd1f381cd0c196d7657ea0035c5d6b40b9ab397ae462133",
            "txnIndex": 30,
            "type": 0,
            "value": "101200000000000000"
        },
        "fund_flow": [
            {
                "amount": "0.1012",
                "from": "0x51cd8c84e3c874ef92822b4302992b237ad9ce3e",
                "id": 1,
                "isERC1155": false,
                "isERC721": false,
                "isReverted": false,
                "order": 1,
                "to": "0xd523794c879d9ec028960a231f866758e405be34",
                "token": "0xeeeeeeeeeeeeeeeeeeeeeeeeeeeeeeeeeeeeeeee"
            }
        ],
        "token_infos": [
            {
                "address": "0xc02aaa39b223fe8d0a0e5c4f27ead9083c756cc2",
                "decimals": 18
            },
            {
                "address": "0xeeeeeeeeeeeeeeeeeeeeeeeeeeeeeeeeeeeeeeee",
                "decimals": 18
            }
        ]
    },
    "address_label": {
        "labels": [
            {
                "address": "0x0000000000000000000000000000000000000003",
                "label": "Precompiled"
            },
            {
                "address": "0x0000000000000000000000000000000000000004",
                "label": "Precompiled"
            },
            {
                "address": "0xeeeeeeeeeeeeeeeeeeeeeeeeeeeeeeeeeeeeeeee",
                "label": "Ether"
            },
            {
                "address": "0xd523794c879d9ec028960a231f866758e405be34",
                "label": "TransparentUpgradeableProxy_d523_be34"
            },
            {
                "address": "0xdebbf61098642c7c06fad1e116c1a00e50405d0d",
                "label": "Pool"
            },
            {
                "address": "0x7a7f0b3c23c23a31cfcb0c44709be70d4d545c6e",
                "label": "TransparentUpgradeableProxy"
            },
            {
                "address": "0x0000000000000000000000000000000000000001",
                "label": "Precompiled"
            },
            {
                "address": "0x0000000000000000000000000000000000000002",
                "label": "Precompiled"
            }
        ]
    },
    "trace": {
        "accountLabels": null,
        "dataMap": {
            "-1": {
                "invocation": {
                    "address": "0x51cd8c84e3c874ef92822b4302992b237ad9ce3e",
                    "callData": "",
                    "decodedMethod": null,
                    "errorInfo": "",
                    "fromAddress": "",
                    "gasUsed": 0,
                    "id": -1,
                    "methodDecoded": false,
                    "operation": "",
                    "output": "",
                    "revert": false,
                    "revertMessage": "",
                    "selector": "",
                    "status": false,
                    "value": ""
                },
                "nodeType": 0
            },
            "0": {
                "invocation": {
                    "address": "0xd523794c879d9ec028960a231f866758e405be34",
                    "callData": "0x0000000000000000000000000000000000000000000000000000000000000002",
                    "decodedMethod": {
                        "callParams": [
                            {
                                "name": "source",
                                "type": "uint64",
                                "value": "2"
                            }
                        ],
                        "constructorArguments": "",
                        "name": "stake",
                        "returnParams": [],
                        "signature": "stake(uint64)"
                    },
                    "errorInfo": "",
                    "fromAddress": "0x51cd8c84e3c874ef92822b4302992b237ad9ce3e",
                    "gasUsed": 175701,
                    "id": 0,
                    "methodDecoded": true,
                    "operation": "CALL",
                    "output": "",
                    "revert": false,
                    "revertMessage": "",
                    "selector": "0x3a29dbae",
                    "status": true,
                    "value": "0.1012"
                },
                "nodeType": 0
            },
            "1": {
                "invocation": {
                    "address": "0xdebbf61098642c7c06fad1e116c1a00e50405d0d",
                    "callData": "0x0000000000000000000000000000000000000000000000000000000000000002",
                    "decodedMethod": {
                        "callParams": [
                            {
                                "name": "source",
                                "type": "uint64",
                                "value": "2"
                            }
                        ],
                        "constructorArguments": "",
                        "name": "stake",
                        "returnParams": [],
                        "signature": "stake(uint64)"
                    },
                    "errorInfo": "",
                    "fromAddress": "0xd523794c879d9ec028960a231f866758e405be34",
                    "gasUsed": 147181,
                    "id": 1,
                    "methodDecoded": true,
                    "operation": "DELEGATECALL",
                    "output": "",
                    "revert": false,
                    "revertMessage": "",
                    "selector": "0x3a29dbae",
                    "status": true,
                    "value": "0.1012"
                },
                "nodeType": 0
            },
            "2": {
                "invocation": {
                    "address": "0x7a7f0b3c23c23a31cfcb0c44709be70d4d545c6e",
                    "callData": "0x00000000000000000000000051cd8c84e3c874ef92822b4302992b237ad9ce3e000000000000000000000000000000000000000000000000016788dd23450000",
                    "decodedMethod": {
                        "callParams": [
                            {
                                "name": "_userAddress",
                                "type": "address",
                                "value": "0x51cd8c84e3c874ef92822b4302992b237ad9ce3e"
                            },
                            {
                                "name": "_wantAmt",
                                "type": "uint256",
                                "value": "101,200,000,000,000,000"
                            }
                        ],
                        "constructorArguments": "",
                        "name": "deposit",
                        "returnParams": [
                            {
                                "name": "",
                                "type": "uint256",
                                "value": "0"
                            }
                        ],
                        "signature": "deposit(address,uint256)"
                    },
                    "errorInfo": "",
                    "fromAddress": "0xd523794c879d9ec028960a231f866758e405be34",
                    "gasUsed": 135705,
                    "id": 2,
                    "methodDecoded": true,
                    "operation": "CALL",
                    "output": "0x00000000000000000000000000000000000000000000000000000000000000000000000000000000000000000000000000000000000000000000000000000000",
                    "revert": false,
                    "revertMessage": "",
                    "selector": "0x47e7ef24",
                    "status": true,
                    "value": "0"
                },
                "nodeType": 0
            },
            "3": {
                "invocation": {
                    "address": "0x1a5b89b2ef0028a059ead7d9e648b533f87c8558",
                    "callData": "0x00000000000000000000000051cd8c84e3c874ef92822b4302992b237ad9ce3e000000000000000000000000000000000000000000000000016788dd23450000",
                    "decodedMethod": {
                        "callParams": [
                            {
                                "name": "_userAddress",
                                "type": "address",
                                "value": "0x51cd8c84e3c874ef92822b4302992b237ad9ce3e"
                            },
                            {
                                "name": "_wantAmt",
                                "type": "uint256",
                                "value": "101,200,000,000,000,000"
                            }
                        ],
                        "constructorArguments": "",
                        "name": "deposit",
                        "returnParams": [
                            {
                                "name": "",
                                "type": "uint256",
                                "value": "0"
                            }
                        ],
                        "signature": "deposit(address,uint256)"
                    },
                    "errorInfo": "",
                    "fromAddress": "0x7a7f0b3c23c23a31cfcb0c44709be70d4d545c6e",
                    "gasUsed": 128380,
                    "id": 3,
                    "methodDecoded": true,
                    "operation": "DELEGATECALL",
                    "output": "0x00000000000000000000000000000000000000000000000000000000000000000000000000000000000000000000000000000000000000000000000000000000",
                    "revert": false,
                    "revertMessage": "",
                    "selector": "0x47e7ef24",
                    "status": true,
                    "value": "0"
                },
                "nodeType": 0
            },
            "4": {
                "event": {
                    "contract": "0x7a7f0b3c23c23a31cfcb0c44709be70d4d545c6e",
                    "decodedLog": null,
                    "id": 4,
                    "logData": "0x000000000000000000000000000000000000000000000000016788dd23450000",
                    "logDecoded": false,
                    "operation": "EVENT",
                    "revert": false,
                    "status": true,
                    "topics": [
                        "0xc8724ec5e59eea00f3f35419c3139ead03ff07766e7e9cf00a62381692aac8c7",
                        "0x00000000000000000000000051cd8c84e3c874ef92822b4302992b237ad9ce3e"
                    ]
                },
                "nodeType": 1
            },
            "5": {
                "event": {
                    "contract": "0xd523794c879d9ec028960a231f866758e405be34",
                    "decodedLog": {
                        "name": "StakeAdded",
                        "params": [
                            {
                                "name": "staker",
                                "type": "address",
                                "value": "0x51cd8c84e3c874ef92822b4302992b237ad9ce3e"
                            },
                            {
                                "name": "value",
                                "type": "uint256",
                                "value": "101,200,000,000,000,000"
                            },
                            {
                                "name": "source",
                                "type": "uint64",
                                "value": "2"
                            }
                        ],
                        "signature": "StakeAdded(address,uint256,uint64)"
                    },
                    "id": 5,
                    "logData": "0x000000000000000000000000000000000000000000000000016788dd234500000000000000000000000000000000000000000000000000000000000000000002",
                    "logDecoded": true,
                    "operation": "EVENT",
                    "revert": false,
                    "status": true,
                    "topics": [
                        "0x7d194e8dc0f902cdc51bde00649039561dbd0b01574d671bad333436fdac7692",
                        "0x00000000000000000000000051cd8c84e3c874ef92822b4302992b237ad9ce3e"
                    ]
                },
                "nodeType": 1
            }
        },
        "gasFlame": [
            {
                "children": [
                    {
                        "children": [
                            {
                                "children": [],
                                "depth": 0,
                                "name": "Initial Gas",
                                "value": 21204
                            },
                            {
                                "children": [
                                    {
                                        "children": [
                                            {
                                                "children": [
                                                    {
                                                        "children": [],
                                                        "depth": 3,
                                                        "name": "deposit",
                                                        "value": 128380
                                                    }
                                                ],
                                                "depth": 2,
                                                "name": "deposit",
                                                "value": 135705
                                            }
                                        ],
                                        "depth": 1,
                                        "name": "stake",
                                        "value": 147181
                                    }
                                ],
                                "depth": 0,
                                "name": "Executed Gas",
                                "value": 154497
                            }
                        ],
                        "depth": -1,
                        "name": "Actual Gas Used",
                        "value": 175701
                    },
                    {
                        "children": [],
                        "depth": -1,
                        "name": "Refunded Gas",
                        "value": 0
                    }
                ],
                "depth": -2,
                "name": "Total Gas",
                "value": 175701
            }
        ],
        "isConfirmed": true,
        "mainTrace": [
            {
                "children": [
                    {
                        "children": [
                            {
                                "children": [
                                    {
                                        "children": [
                                            {
                                                "children": [
                                                    {
                                                        "children": [],
                                                        "depth": 4,
                                                        "id": 4,
                                                        "order": 4
                                                    }
                                                ],
                                                "depth": 3,
                                                "id": 3,
                                                "order": 3
                                            }
                                        ],
                                        "depth": 2,
                                        "id": 2,
                                        "order": 2
                                    },
                                    {
                                        "children": [],
                                        "depth": 2,
                                        "id": 5,
                                        "order": 5
                                    }
                                ],
                                "depth": 1,
                                "id": 1,
                                "order": 1
                            }
                        ],
                        "depth": 0,
                        "id": 0,
                        "order": 0
                    }
                ],
                "depth": -1,
                "id": -1,
                "order": -1
            }
        ],
        "mainTraceNodeCount": 6,
        "parentIdMap": {
            "0": -1,
            "1": 0,
            "2": 1,
            "3": 2,
            "4": 3,
            "5": 1
        },
        "tidyTrace": [
            {
                "children": [
                    {
                        "children": [
                            {
                                "children": [
                                    {
                                        "children": [
                                            {
                                                "children": [
                                                    {
                                                        "children": [],
                                                        "depth": 4,
                                                        "id": 4,
                                                        "order": 4
                                                    }
                                                ],
                                                "depth": 3,
                                                "id": 3,
                                                "order": 3
                                            }
                                        ],
                                        "depth": 2,
                                        "id": 2,
                                        "order": 2
                                    },
                                    {
                                        "children": [],
                                        "depth": 2,
                                        "id": 5,
                                        "order": 5
                                    }
                                ],
                                "depth": 1,
                                "id": 1,
                                "order": 1
                            }
                        ],
                        "depth": 0,
                        "id": 0,
                        "order": 0
                    }
                ],
                "depth": -1,
                "id": -1,
                "order": -1
            }
        ],
        "tidyTraceNodeCount": 6
    },
    "state_change": {
        "stateChanges": [
            {
                "address": "0x7a7f0b3c23c23a31cfcb0c44709be70d4d545c6e",
                "erc": "",
                "slots": [
                    {
                        "current": "0x0000000000000000000000000000000000000000000000000000000000000006",
                        "key": "0xe6b134e60d4d4e15abc2c419035da2b37038a91de00d10e998f695f67f9eb0d8",
                        "prev": "0x0000000000000000000000000000000000000000000000000000000000000000"
                    },
                    {
                        "current": "0x00000000000000000000000000000000000000000000000002490e9a4c81048b",
                        "key": "0x82dc7850570d0cfabc622f886cc6abdfcbb9e671234ffd9a11e9f49099fc1f38",
                        "prev": "0x0000000000000000000000000000000000000000000000000000000000000000"
                    },
                    {
                        "current": "0x000000000000000000000000000000000000000000000000016788dd23450000",
                        "key": "0x82dc7850570d0cfabc622f886cc6abdfcbb9e671234ffd9a11e9f49099fc1f3a",
                        "prev": "0x0000000000000000000000000000000000000000000000000254db1c22440000"
                    },
                    {
                        "current": "0x00000000000000000000000000000000000000000000000003bc63f945890000",
                        "key": "0x82dc7850570d0cfabc622f886cc6abdfcbb9e671234ffd9a11e9f49099fc1f3b",
                        "prev": "0x0000000000000000000000000000000000000000000000000254db1c22440000"
                    },
                    {
                        "current": "0x00000000000000000000000000000000000000000000000000000000000009e7",
                        "key": "0x82dc7850570d0cfabc622f886cc6abdfcbb9e671234ffd9a11e9f49099fc1f39",
                        "prev": "0x000000000000000000000000000000000000000000000000000000000000063c"
                    },
                    {
                        "current": "0x000000000000000000000000000000000000000000000000f5e243dc59dcf2a0",
                        "key": "0xb4c87350b3618bf3b0453372aae234908cc3b6cf61d458f195edd9160dac1f7f",
                        "prev": "0x000000000000000000000000000000000000000000000000f47abaff3697f2a0"
                    },
                    {
                        "current": "0x0000000000000000000000000000000000000000000000000000000000000006",
                        "key": "0xd0ce8cfb86641b6efad0bab0d37b7f2bcf2290504b2171ada7984dec8881b51e",
                        "prev": "0x0000000000000000000000000000000000000000000000000000000000000005"
                    },
                    {
                        "current": "0x00000000000000000000000051cd8c84e3c874ef92822b4302992b237ad9ce3e",
                        "key": "0xa36163c229ef2721a2ce497f1898adf2492c32f99ac2e5f5046c8799565c7424",
                        "prev": "0x0000000000000000000000000000000000000000000000000000000000000000"
                    }
                ],
                "storageVariables": []
            }
        ]
    }
}