{
    "balance_change": {
        "balanceChanges": [
            {
                "account": "0x1522900b6dafac587d499a862861c0869be6e428",
                "assets": [
                    {
                        "address": "0xeeeeeeeeeeeeeeeeeeeeeeeeeeeeeeeeeeeeeeee",
                        "amount": "80.07",
                        "iconUrl": "https://assets.blocksec.com/image/1663669189317-3.png",
                        "isERC1155": false,
                        "isERC721": false,
                        "sign": false,
                        "value": "14868.4496397300001735"
                    }
                ]
            },
            {
                "account": "0xf214798a8af12ad98e173171ee2d8d7ea11ce75c",
                "assets": [
                    {
                        "address": "0xeeeeeeeeeeeeeeeeeeeeeeeeeeeeeeeeeeeeeeee",
                        "amount": "80.07",
                        "iconUrl": "https://assets.blocksec.com/image/1663669189317-3.png",
                        "isERC1155": false,
                        "isERC721": false,
                        "sign": true,
                        "value": "14868.4496397300001735"
                    }
                ]
            }
        ]
    },
    "profile": {
        "basic_info": {
            "baseFee": "",
            "blockNumber": 9476155,
            "callData": "0x39125215000000000000000000000000f214798a8af12ad98e173171ee2d8d7ea11ce75c0000000000000000000000000000000000000000000000045731c8c55d87000000000000000000000000000000000000000000000000000000000000000000c0000000000000000000000000000000000000000000000000000000005e4ec813000000000000000000000000000000000000000000000000000000000007e80700000000000000000000000000000000000000000000000000000000000001000000000000000000000000000000000000000000000000000000000000000000000000000000000000000000000000000000000000000000000000000000000000000000000000000000000000000000000000000000000000000000000000416d82ec78457d9a36e319f6a04732de5e5f3227a25e09a77468472a6f7e5518e065895db7e4f5f95e172ecf2a239d12c957e6783655df923859e2c39fd476fcf01c00000000000000000000000000000000000000000000000000000000000000",
            "debugEnable": true,
            "errorInfo": "",
            "eventCount": 1,
            "feeRecipient": "0x5a0b54d5dc17e0aadc383d2db43b0a0d3e029c4c",
            "formatValue": "0",
            "gasLimit": 165664,
            "gasPrice": "8",
            "gasUsed": 94581,
            "intTxnCount": 3,
            "internalRevert": false,
            "internalRevertMessage": "",
            "isContractCreation": false,
            "isFlashloan": false,
            "maxFee": "",
            "nonce": 668948,
            "overwritedBlockNumber": -1,
            "priorityFee": "",
            "receiver": "0x1522900b6dafac587d499a862861c0869be6e428",
            "revertMessage": "",
            "sender": "0x00bdb5699745f5b860228c8f939abf1b9ae374ed",
            "simulationEnable": true,
            "sourceTxnHash": "0x4d642ff424cf053b6122abe444792e6e92fb803e5b733a1388e4ab6057517839",
            "status": true,
            "timestamp": "2020-02-13T17:55:37Z",
            "transactionFee": "0.000756648",
            "txnHash": "0x4d642ff424cf053b6122abe444792e6e92fb803e5b733a1388e4ab6057517839",
            "txnIndex": 13,
            "type": 0,
            "value": "0"
        },
        "fund_flow": [
            {
                "amount": "80.07",
                "from": "0x1522900b6dafac587d499a862861c0869be6e428",
                "id": 1,
                "isERC1155": false,
                "isERC721": false,
                "isReverted": false,
                "order": 1,
                "to": "0xf214798a8af12ad98e173171ee2d8d7ea11ce75c",
                "token": "0xeeeeeeeeeeeeeeeeeeeeeeeeeeeeeeeeeeeeeeee"
            }
        ],
        "token_infos": [
            {
                "address": "0xc02aaa39b223fe8d0a0e5c4f27ead9083c756cc2",
                "decimals": 18
            },
            {
                "address": "0xeeeeeeeeeeeeeeeeeeeeeeeeeeeeeeeeeeeeeeee",
                "decimals": 18
            }
        ]
    },
    "address_label": {
        "labels": [
            {
                "address": "0x0000000000000000000000000000000000000002",
                "label": "Precompiled"
            },
            {
                "address": "0x0000000000000000000000000000000000000003",
                "label": "Precompiled"
            },
            {
                "address": "0x0000000000000000000000000000000000000004",
                "label": "Precompiled"
            },
            {
                "address": "0xeeeeeeeeeeeeeeeeeeeeeeeeeeeeeeeeeeeeeeee",
                "label": "Ether"
            },
            {
                "address": "0x00bdb5699745f5b860228c8f939abf1b9ae374ed",
                "label": "Bitstamp 1"
            },
            {
                "address": "0x1522900b6dafac587d499a862861c0869be6e428",
                "label": "Bitstamp 2"
            },
            {
                "address": "0x5b9e8728e316bbeb692d22daaab74f6cbf2c4691",
                "label": "WalletSimple"
            },
            {
                "address": "0x0000000000000000000000000000000000000001",
                "label": "Precompiled"
            }
        ]
    },
    "trace": {
        "accountLabels": null,
        "dataMap": {
            "-1": {
                "invocation": {
                    "address": "0x00bdb5699745f5b860228c8f939abf1b9ae374ed",
                    "callData": "",
                    "decodedMethod": null,
                    "errorInfo": "",
                    "fromAddress": "",
                    "gasUsed": 0,
                    "id": -1,
                    "methodDecoded": false,
                    "operation": "",
                    "output": "",
                    "revert": false,
                    "revertMessage": "",
                    "selector": "",
                    "status": false,
                    "value": ""
                },
                "nodeType": 0
            },
            "0": {
                "invocation": {
                    "address": "0x1522900b6dafac587d499a862861c0869be6e428",
                    "callData": "0x000000000000000000000000f214798a8af12ad98e173171ee2d8d7ea11ce75c0000000000000000000000000000000000000000000000045731c8c55d87000000000000000000000000000000000000000000000000000000000000000000c0000000000000000000000000000000000000000000000000000000005e4ec813000000000000000000000000000000000000000000000000000000000007e80700000000000000000000000000000000000000000000000000000000000001000000000000000000000000000000000000000000000000000000000000000000000000000000000000000000000000000000000000000000000000000000000000000000000000000000000000000000000000000000000000000000000000416d82ec78457d9a36e319f6a04732de5e5f3227a25e09a77468472a6f7e5518e065895db7e4f5f95e172ecf2a239d12c957e6783655df923859e2c39fd476fcf01c00000000000000000000000000000000000000000000000000000000000000",
                    "decodedMethod": {
                        "callParams": [
                            {
                                "name": "toAddress",
                                "type": "address",
                                "value": "0xf214798a8af12ad98e173171ee2d8d7ea11ce75c"
                            },
                            {
                                "name": "value",
                                "type": "uint256",
                                "value": "80,070,000,000,000,000,000"
                            },
                            {
                                "name": "data",
                                "type": "bytes",
                                "value": "0x"
                            },
                            {
                                "name": "expireTime",
                                "type": "uint256",
                                "value": "1,582,221,331"
                            },
                            {
                                "name": "sequenceId",
                                "type": "uint256",
                                "value": "518,151"
                            },
                            {
                                "name": "signature",
                                "type": "bytes",
                                "value": "0x6d82ec78457d9a36e319f6a04732de5e5f3227a25e09a77468472a6f7e5518e065895db7e4f5f95e172ecf2a239d12c957e6783655df923859e2c39fd476fcf01c"
                            }
                        ],
                        "constructorArguments": "",
                        "name": "sendMultiSig",
                        "returnParams": [],
                        "signature": "sendMultiSig(address,uint256,bytes,uint256,uint256,bytes)"
                    },
                    "errorInfo": "",
                    "fromAddress": "0x00bdb5699745f5b860228c8f939abf1b9ae374ed",
                    "gasUsed": 94581,
                    "id": 0,
                    "methodDecoded": true,
                    "operation": "CALL",
                    "output": "0x39125215000000000000000000000000f214798a8af12ad98e173171ee2d8d7e",
                    "revert": false,
                    "revertMessage": "",
                    "selector": "0x39125215",
                    "status": true,
                    "value": "0"
                },
                "nodeType": 0
            },
            "1": {
                "invocation": {
                    "address": "0x5b9e8728e316bbeb692d22daaab74f6cbf2c4691",
                    "callData": "0x000000000000000000000000f214798a8af12ad98e173171ee2d8d7ea11ce75c0000000000000000000000000000000000000000000000045731c8c55d87000000000000000000000000000000000000000000000000000000000000000000c0000000000000000000000000000000000000000000000000000000005e4ec813000000000000000000000000000000000000000000000000000000000007e80700000000000000000000000000000000000000000000000000000000000001000000000000000000000000000000000000000000000000000000000000000000000000000000000000000000000000000000000000000000000000000000000000000000000000000000000000000000000000000000000000000000000000416d82ec78457d9a36e319f6a04732de5e5f3227a25e09a77468472a6f7e5518e065895db7e4f5f95e172ecf2a239d12c957e6783655df923859e2c39fd476fcf01c00000000000000000000000000000000000000000000000000000000000000",
                    "decodedMethod": {
                        "callParams": [
                            {
                                "name": "toAddress",
                                "type": "address",
                                "value": "0xf214798a8af12ad98e173171ee2d8d7ea11ce75c"
                            },
                            {
                                "name": "value",
                                "type": "uint256",
                                "value": "80,070,000,000,000,000,000"
                            },
                            {
                                "name": "data",
                                "type": "bytes",
                                "value": "0x"
                            },
                            {
                                "name": "expireTime",
                                "type": "uint256",
                                "value": "1,582,221,331"
                            },
                            {
                                "name": "sequenceId",
                                "type": "uint256",
                                "value": "518,151"
                            },
                            {
                                "name": "signature",
                                "type": "bytes",
                                "value": "0x6d82ec78457d9a36e319f6a04732de5e5f3227a25e09a77468472a6f7e5518e065895db7e4f5f95e172ecf2a239d12c957e6783655df923859e2c39fd476fcf01c"
                            }
                        ],
                        "constructorArguments": "",
                        "name": "sendMultiSig",
                        "returnParams": [],
                        "signature": "sendMultiSig(address,uint256,bytes,uint256,uint256,bytes)"
                    },
                    "errorInfo": "",
                    "fromAddress": "0x1522900b6dafac587d499a862861c0869be6e428",
                    "gasUsed": 69920,
                    "id": 1,
                    "methodDecoded": true,
                    "operation": "DELEGATECALL",
                    "output": "",
                    "revert": false,
                    "revertMessage": "",
                    "selector": "0x39125215",
                    "status": true,
                    "value": "0"
                },
                "nodeType": 0
            },
            "2": {
                "invocation": {
                    "address": "0x0000000000000000000000000000000000000001",
                    "callData": "0xfd0e924da0d9fcf01b87b77b2a6d67626230adf49dba5e45da147e2f000000000000000000000000000000000000000000000000000000000000001c6d82ec78457d9a36e319f6a04732de5e5f3227a25e09a77468472a6f7e5518e065895db7e4f5f95e172ecf2a239d12c957e6783655df923859e2c39fd476fcf0",
                    "decodedMethod": {
                        "callParams": [
                            {
                                "name": "hash",
                                "type": "bytes32",
                                "value": "0xc70dee85fd0e924da0d9fcf01b87b77b2a6d67626230adf49dba5e45da147e2f"
                            },
                            {
                                "name": "v",
                                "type": "uint256",
                                "value": "28"
                            },
                            {
                                "name": "r",
                                "type": "bytes32",
                                "value": "0x6d82ec78457d9a36e319f6a04732de5e5f3227a25e09a77468472a6f7e5518e0"
                            },
                            {
                                "name": "s",
                                "type": "bytes32",
                                "value": "0x65895db7e4f5f95e172ecf2a239d12c957e6783655df923859e2c39fd476fcf0"
                            }
                        ],
                        "constructorArguments": "",
                        "name": "ecrecover",
                        "returnParams": [
                            {
                                "name": "",
                                "type": "address",
                                "value": "0x3e071255695b527e6e85f5e367b1c173bcea5b0f"
                            }
                        ],
                        "signature": "ecrecover(bytes32,uint256,bytes32,bytes32)"
                    },
                    "errorInfo": "",
                    "fromAddress": "0x1522900b6dafac587d499a862861c0869be6e428",
                    "gasUsed": 3000,
                    "id": 2,
                    "methodDecoded": true,
                    "operation": "CALL",
                    "output": "0x0000000000000000000000003e071255695b527e6e85f5e367b1c173bcea5b0f",
                    "revert": false,
                    "revertMessage": "",
                    "selector": "0xc70dee85",
                    "status": true,
                    "value": "0"
                },
                "nodeType": 0
            },
            "3": {
                "invocation": {
                    "address": "0xf214798a8af12ad98e173171ee2d8d7ea11ce75c",
                    "callData": "0x",
                    "decodedMethod": null,
                    "errorInfo": "",
                    "fromAddress": "0x1522900b6dafac587d499a862861c0869be6e428",
                    "gasUsed": 0,
                    "id": 3,
                    "methodDecoded": false,
                    "operation": "CALL",
                    "output": "",
                    "revert": false,
                    "revertMessage": "",
                    "selector": "fallback",
                    "status": true,
                    "value": "80.07"
                },
                "nodeType": 0
            },
            "4": {
                "event": {
                    "contract": "0x1522900b6dafac587d499a862861c0869be6e428",
                    "decodedLog": {
                        "name": "Transacted",
                        "params": [
                            {
                                "name": "msgSender",
                                "type": "address",
                                "value": "0x00bdb5699745f5b860228c8f939abf1b9ae374ed"
                            },
                            {
                                "name": "otherSigner",
                                "type": "address",
                                "value": "0x3e071255695b527e6e85f5e367b1c173bcea5b0f"
                            },
                            {
                                "name": "operation",
                                "type": "bytes32",
                                "value": "0xc70dee85fd0e924da0d9fcf01b87b77b2a6d67626230adf49dba5e45da147e2f"
                            },
                            {
                                "name": "toAddress",
                                "type": "address",
                                "value": "0xf214798a8af12ad98e173171ee2d8d7ea11ce75c"
                            },
                            {
                                "name": "value",
                                "type": "uint256",
                                "value": "80,070,000,000,000,000,000"
                            },
                            {
                                "name": "data",
                                "type": "bytes",
                                "value": "0x"
                            }
                        ],
                        "signature": "Transacted(address,address,bytes32,address,uint256,bytes)"
                    },
                    "id": 4,
                    "logData": "0x00000000000000000000000000bdb5699745f5b860228c8f939abf1b9ae374ed0000000000000000000000003e071255695b527e6e85f5e367b1c173bcea5b0fc70dee85fd0e924da0d9fcf01b87b77b2a6d67626230adf49dba5e45da147e2f000000000000000000000000f214798a8af12ad98e173171ee2d8d7ea11ce75c0000000000000000000000000000000000000000000000045731c8c55d87000000000000000000000000000000000000000000000000000000000000000000c00000000000000000000000000000000000000000000000000000000000000000",
                    "logDecoded": true,
                    "operation": "EVENT",
                    "revert": false,
                    "status": true,
                    "topics": [
                        "0x59bed9ab5d78073465dd642a9e3e76dfdb7d53bcae9d09df7d0b8f5234d5a806"
                    ]
                },
                "nodeType": 1
            }
        },
        "gasFlame": [
            {
                "children": [
                    {
                        "children": [
                            {
                                "children": [],
                                "depth": 0,
                                "name": "Initial Gas",
                                "value": 23824
                            },
                            {
                                "children": [
                                    {
                                        "children": [
                                            {
                                                "children": [],
                                                "depth": 2,
                                                "name": "ecrecover",
                                                "value": 3000
                                            },
                                            {
                                                "children": [],
                                                "depth": 2,
                                                "name": "fallback",
                                                "value": 0
                                            }
                                        ],
                                        "depth": 1,
                                        "name": "sendMultiSig",
                                        "value": 69920
                                    }
                                ],
                                "depth": 0,
                                "name": "Executed Gas",
                                "value": 70757
                            }
                        ],
                        "depth": -1,
                        "name": "Actual Gas Used",
                        "value": 94581
                    },
                    {
                        "children": [],
                        "depth": -1,
                        "name": "Refunded Gas",
                        "value": 0
                    }
                ],
                "depth": -2,
                "name": "Total Gas",
                "value": 94581
            }
        ],
        "isConfirmed": true,
        "mainTrace": [
            {
                "children": [
                    {
                        "children": [
                            {
                                "children": [
                                    {
                                        "children": [],
                                        "depth": 2,
                                        "id": 2,
                                        "order": 2
                                    },
                                    {
                                        "children": [],
                                        "depth": 2,
                                        "id": 3,
                                        "order": 3
                                    },
                                    {
                                        "children": [],
                                        "depth": 2,
                                        "id": 4,
                                        "order": 4
                                    }
                                ],
                                "depth": 1,
                                "id": 1,
                                "order": 1
                            }
                        ],
                        "depth": 0,
                        "id": 0,
                        "order": 0
                    }
                ],
                "depth": -1,
                "id": -1,
                "order": -1
            }
        ],
        "mainTraceNodeCount": 5,
        "parentIdMap": {
            "0": -1,
            "1": 0,
            "2": 1,
            "3": 1,
            "4": 1
        },
        "tidyTrace": [
            {
                "children": [
                    {
                        "children": [
                            {
                                "children": [
                                    {
                                        "children": [],
                                        "depth": 2,
                                        "id": 2,
                                        "order": 2
                                    },
                                    {
                                        "children": [],
                                        "depth": 2,
                                        "id": 3,
                                        "order": 3
                                    },
                                    {
                                        "children": [],
                                        "depth": 2,
                                        "id": 4,
                                        "order": 4
                                    }
                                ],
                                "depth": 1,
                                "id": 1,
                                "order": 1
                            }
                        ],
                        "depth": 0,
                        "id": 0,
                        "order": 0
                    }
                ],
                "depth": -1,
                "id": -1,
                "order": -1
            }
        ],
        "tidyTraceNodeCount": 5
    },
    "state_change": {
        "stateChanges": [
            {
                "address": "0x1522900b6dafac587d499a862861c0869be6e428",
                "erc": "",
                "slots": [
                    {
                        "current": "0x000000000000000000000000000000000000000000000000000000000007e807",
                        "key": "0x0000000000000000000000000000000000000000000000000000000000000008",
                        "prev": "0x000000000000000000000000000000000000000000000000000000000007e7fd"
                    }
                ],
                "storageVariables": []
            }
        ]
    }
}