{
    "balance_change": {
        "balanceChanges": [
            {
                "account": "0x108e87355df5db3507c723eebe053b46063b3531",
                "assets": [
                    {
                        "address": "0x1f3f677ecc58f6a1f9e2cf410df4776a8546b5de",
                        "amount": "999",
                        "iconUrl": "",
                        "isERC1155": false,
                        "isERC721": false,
                        "sign": false,
                        "value": ""
                    }
                ]
            },
            {
                "account": "0x50c004acc6ed0608a86b60916b5edd0f1465d611",
                "assets": [
                    {
                        "address": "0x1f3f677ecc58f6a1f9e2cf410df4776a8546b5de",
                        "amount": "999",
                        "iconUrl": "",
                        "isERC1155": false,
                        "isERC721": false,
                        "sign": true,
                        "value": ""
                    }
                ]
            }
        ]
    },
    "profile": {
        "basic_info": {
            "baseFee": "",
            "blockNumber": 9833216,
            "callData": "0xa9059cbb00000000000000000000000050c004acc6ed0608a86b60916b5edd0f1465d61100000000000000000000000000000000000000000000000000000000000003e7",
            "debugEnable": true,
            "errorInfo": "",
            "eventCount": 2,
            "feeRecipient": "0x52bc44d5378309ee2abf1539bf71de1b7d7be3b5",
            "formatValue": "0",
            "gasLimit": 100000,
            "gasPrice": "5",
            "gasUsed": 64503,
            "intTxnCount": 0,
            "internalRevert": false,
            "internalRevertMessage": "",
            "isContractCreation": false,
            "isFlashloan": false,
            "maxFee": "",
            "nonce": 3378,
            "overwritedBlockNumber": -1,
            "priorityFee": "",
            "receiver": "0x1f3f677ecc58f6a1f9e2cf410df4776a8546b5de",
            "revertMessage": "",
            "sender": "0x108e87355df5db3507c723eebe053b46063b3531",
            "simulationEnable": true,
            "sourceTxnHash": "0x4e8d28d1852e0d8d242a1f67bf1fba1f589db88adc0297c5c3ad72eebb373aa6",
            "status": true,
            "timestamp": "2020-04-08T18:49:28Z",
            "transactionFee": "0.000322515",
            "txnHash": "0x4e8d28d1852e0d8d242a1f67bf1fba1f589db88adc0297c5c3ad72eebb373aa6",
            "txnIndex": 2,
            "type": 0,
            "value": "0"
        },
        "fund_flow": [
            {
                "amount": "999",
                "from": "0x108e87355df5db3507c723eebe053b46063b3531",
                "id": 1,
                "isERC1155": false,
                "isERC721": false,
                "isReverted": false,
                "order": 1,
                "to": "0x50c004acc6ed0608a86b60916b5edd0f1465d611",
                "token": "0x1f3f677ecc58f6a1f9e2cf410df4776a8546b5de"
            },
            {
                "amount": "0",
                "from": "0x108e87355df5db3507c723eebe053b46063b3531",
                "id": 2,
                "isERC1155": false,
                "isERC721": false,
                "isReverted": false,
                "order": 2,
                "to": "0x004d050267b7cbdd223a591824c34f69a8a7a7b7",
                "token": "0x1f3f677ecc58f6a1f9e2cf410df4776a8546b5de"
            }
        ],
        "token_infos": [
            {
                "address": "0xeeeeeeeeeeeeeeeeeeeeeeeeeeeeeeeeeeeeeeee",
                "decimals": 18
            },
            {
                "address": "0x1f3f677ecc58f6a1f9e2cf410df4776a8546b5de",
                "decimals": 0
            },
            {
                "address": "0xc02aaa39b223fe8d0a0e5c4f27ead9083c756cc2",
                "decimals": 18
            }
        ]
    },
    "address_label": {
        "labels": [
            {
                "address": "0xeeeeeeeeeeeeeeeeeeeeeeeeeeeeeeeeeeeeeeee",
                "label": "Ether"
            },
            {
                "address": "0x1f3f677ecc58f6a1f9e2cf410df4776a8546b5de",
                "label": "VNDC Stablecoin"
            },
            {
                "address": "0x0000000000000000000000000000000000000001",
                "label": "Precompiled"
            },
            {
                "address": "0x0000000000000000000000000000000000000002",
                "label": "Precompiled"
            },
            {
                "address": "0x0000000000000000000000000000000000000003",
                "label": "Precompiled"
            },
            {
                "address": "0x0000000000000000000000000000000000000004",
                "label": "Precompiled"
            }
        ]
    },
    "trace": {
        "accountLabels": null,
        "dataMap": {
            "-1": {
                "invocation": {
                    "address": "0x108e87355df5db3507c723eebe053b46063b3531",
                    "callData": "",
                    "decodedMethod": null,
                    "errorInfo": "",
                    "fromAddress": "",
                    "gasUsed": 0,
                    "id": -1,
                    "methodDecoded": false,
                    "operation": "",
                    "output": "",
                    "revert": false,
                    "revertMessage": "",
                    "selector": "",
                    "status": false,
                    "value": ""
                },
                "nodeType": 0
            },
            "0": {
                "invocation": {
                    "address": "0x1f3f677ecc58f6a1f9e2cf410df4776a8546b5de",
                    "callData": "0x00000000000000000000000050c004acc6ed0608a86b60916b5edd0f1465d61100000000000000000000000000000000000000000000000000000000000003e7",
                    "decodedMethod": {
                        "callParams": [
                            {
                                "name": "_to",
                                "type": "address",
                                "value": "0x50c004acc6ed0608a86b60916b5edd0f1465d611"
                            },
                            {
                                "decimalAvailable": true,
                                "name": "_value",
                                "type": "uint256",
                                "value": "999"
                            }
                        ],
                        "constructorArguments": "",
                        "name": "transfer",
                        "returnParams": [],
                        "signature": "transfer(address,uint256)"
                    },
                    "errorInfo": "",
                    "fromAddress": "0x108e87355df5db3507c723eebe053b46063b3531",
                    "gasUsed": 64503,
                    "id": 0,
                    "methodDecoded": true,
                    "operation": "CALL",
                    "output": "",
                    "revert": false,
                    "revertMessage": "",
                    "selector": "0xa9059cbb",
                    "status": true,
                    "value": "0"
                },
                "nodeType": 0
            },
            "1": {
                "event": {
                    "contract": "0x1f3f677ecc58f6a1f9e2cf410df4776a8546b5de",
                    "decodedLog": {
                        "name": "Transfer",
                        "params": [
                            {
                                "name": "from",
                                "type": "address",
                                "value": "0x108e87355df5db3507c723eebe053b46063b3531"
                            },
                            {
                                "name": "to",
                                "type": "address",
                                "value": "0x50c004acc6ed0608a86b60916b5edd0f1465d611"
                            },
                            {
                                "decimalAvailable": true,
                                "name": "value",
                                "type": "uint256",
                                "value": "999"
                            }
                        ],
                        "signature": "Transfer(address,address,uint256)"
                    },
                    "id": 1,
                    "logData": "0x00000000000000000000000000000000000000000000000000000000000003e7",
                    "logDecoded": true,
                    "operation": "EVENT",
                    "revert": false,
                    "status": true,
                    "topics": [
                        "0xddf252ad1be2c89b69c2b068fc378daa952ba7f163c4a11628f55a4df523b3ef",
                        "0x000000000000000000000000108e87355df5db3507c723eebe053b46063b3531",
                        "0x00000000000000000000000050c004acc6ed0608a86b60916b5edd0f1465d611"
                    ]
                },
                "nodeType": 1
            },
            "2": {
                "event": {
                    "contract": "0x1f3f677ecc58f6a1f9e2cf410df4776a8546b5de",
                    "decodedLog": {
                        "name": "Transfer",
                        "params": [
                            {
                                "name": "from",
                                "type": "address",
                                "value": "0x108e87355df5db3507c723eebe053b46063b3531"
                            },
                            {
                                "name": "to",
                                "type": "address",
                                "value": "0x004d050267b7cbdd223a591824c34f69a8a7a7b7"
                            },
                            {
                                "decimalAvailable": true,
                                "name": "value",
                                "type": "uint256",
                                "value": "0"
                            }
                        ],
                        "signature": "Transfer(address,address,uint256)"
                    },
                    "id": 2,
                    "logData": "0x0000000000000000000000000000000000000000000000000000000000000000",
                    "logDecoded": true,
                    "operation": "EVENT",
                    "revert": false,
                    "status": true,
                    "topics": [
                        "0xddf252ad1be2c89b69c2b068fc378daa952ba7f163c4a11628f55a4df523b3ef",
                        "0x000000000000000000000000108e87355df5db3507c723eebe053b46063b3531",
                        "0x000000000000000000000000004d050267b7cbdd223a591824c34f69a8a7a7b7"
                    ]
                },
                "nodeType": 1
            }
        },
        "gasFlame": [
            {
                "children": [
                    {
                        "children": [
                            {
                                "children": [],
                                "depth": 0,
                                "name": "Initial Gas",
                                "value": 21584
                            },
                            {
                                "children": [],
                                "depth": 0,
                                "name": "Executed Gas",
                                "value": 42919
                            }
                        ],
                        "depth": -1,
                        "name": "Actual Gas Used",
                        "value": 64503
                    },
                    {
                        "children": [],
                        "depth": -1,
                        "name": "Refunded Gas",
                        "value": 0
                    }
                ],
                "depth": -2,
                "name": "Total Gas",
                "value": 64503
            }
        ],
        "isConfirmed": true,
        "mainTrace": [
            {
                "children": [
                    {
                        "children": [
                            {
                                "children": [],
                                "depth": 1,
                                "id": 1,
                                "order": 1
                            },
                            {
                                "children": [],
                                "depth": 1,
                                "id": 2,
                                "order": 2
                            }
                        ],
                        "depth": 0,
                        "id": 0,
                        "order": 0
                    }
                ],
                "depth": -1,
                "id": -1,
                "order": -1
            }
        ],
        "mainTraceNodeCount": 3,
        "parentIdMap": {
            "0": -1,
            "1": 0,
            "2": 0
        },
        "tidyTrace": [
            {
                "children": [
                    {
                        "children": [
                            {
                                "children": [],
                                "depth": 1,
                                "id": 1,
                                "order": 1
                            },
                            {
                                "children": [],
                                "depth": 1,
                                "id": 2,
                                "order": 2
                            }
                        ],
                        "depth": 0,
                        "id": 0,
                        "order": 0
                    }
                ],
                "depth": -1,
                "id": -1,
                "order": -1
            }
        ],
        "tidyTraceNodeCount": 3
    },
    "state_change": {
        "stateChanges": [
            {
                "address": "0x1f3f677ecc58f6a1f9e2cf410df4776a8546b5de",
                "erc": "ERC-20",
                "slots": [
                    {
                        "current": "0x00000000000000000000000000000000000000000000000000000000000003e7",
                        "key": "0x1e073375ed65eb735dc92665ce60734efe3e38428b812cdbfea538e4bae84793",
                        "prev": "0x0000000000000000000000000000000000000000000000000000000000000000"
                    },
                    {
                        "current": "0x00000000000000000000000000000000000000000000000000000000524d8ec6",
                        "key": "0xc8494fe986043ef33758d0c8a3326190ea2159456f2530054171dc8da8a1a091",
                        "prev": "0x00000000000000000000000000000000000000000000000000000000524d92ad"
                    }
                ],
                "storageVariables": []
            }
        ]
    }
}