{
    "balance_change": {
        "balanceChanges": []
    },
    "profile": {
        "basic_info": {
            "baseFee": "",
            "blockNumber": 10928722,
            "callData": "0x4ab0d190e3a834f9bf07e06be89782a36d831a4cc969fc5aab0b25dba15d1c95e4607eef000000000000000000000000000000000000000000000000089aaeb710be000000000000000000000000000082c5720cb830341b48ac93cf6ff3064cf5eb504b6a9705b400000000000000000000000000000000000000000000000000000000000000000000000000000000000000000000000000000000000000005f6d41f40000000000000000000000000000000000000000000000000002112732607400",
            "debugEnable": true,
            "errorInfo": "",
            "eventCount": 3,
            "feeRecipient": "0x04668ec2f57cc15c381b461b9fedab5d451c8f7f",
            "formatValue": "0",
            "gasLimit": 500000,
            "gasPrice": "77",
            "gasUsed": 88756,
            "intTxnCount": 1,
            "internalRevert": false,
            "internalRevertMessage": "",
            "isContractCreation": false,
            "isFlashloan": false,
            "maxFee": "",
            "nonce": 95760,
            "overwritedBlockNumber": -1,
            "priorityFee": "",
            "receiver": "0x72f3dff4cd17816604dd2df6c2741e739484ca62",
            "revertMessage": "",
            "sender": "0x165ff6730d449af03b4ee1e48122227a3328a1fc",
            "simulationEnable": true,
            "sourceTxnHash": "0x4eeb4386531b5d94d40179e6a537b4fe4eb046d07e6e0a9dfca8df0b8fc65a8d",
            "status": true,
            "timestamp": "2020-09-25T00:59:50Z",
            "transactionFee": "0.006834212",
            "txnHash": "0x4eeb4386531b5d94d40179e6a537b4fe4eb046d07e6e0a9dfca8df0b8fc65a8d",
            "txnIndex": 1,
            "type": 0,
            "value": "0"
        },
        "fund_flow": [],
        "token_infos": [
            {
                "address": "0xc02aaa39b223fe8d0a0e5c4f27ead9083c756cc2",
                "decimals": 18
            },
            {
                "address": "0xeeeeeeeeeeeeeeeeeeeeeeeeeeeeeeeeeeeeeeee",
                "decimals": 18
            }
        ]
    },
    "address_label": {
        "labels": [
            {
                "address": "0x0000000000000000000000000000000000000003",
                "label": "Precompiled"
            },
            {
                "address": "0x0000000000000000000000000000000000000004",
                "label": "Precompiled"
            },
            {
                "address": "0xeeeeeeeeeeeeeeeeeeeeeeeeeeeeeeeeeeeeeeee",
                "label": "Ether"
            },
            {
                "address": "0x72f3dff4cd17816604dd2df6c2741e739484ca62",
                "label": "Oracle"
            },
            {
                "address": "0x82c5720cb830341b48ac93cf6ff3064cf5eb504b",
                "label": "Aggregator"
            },
            {
                "address": "0x0000000000000000000000000000000000000001",
                "label": "Precompiled"
            },
            {
                "address": "0x0000000000000000000000000000000000000002",
                "label": "Precompiled"
            }
        ]
    },
    "trace": {
        "accountLabels": null,
        "dataMap": {
            "-1": {
                "invocation": {
                    "address": "0x165ff6730d449af03b4ee1e48122227a3328a1fc",
                    "callData": "",
                    "decodedMethod": null,
                    "errorInfo": "",
                    "fromAddress": "",
                    "gasUsed": 0,
                    "id": -1,
                    "methodDecoded": false,
                    "operation": "",
                    "output": "",
                    "revert": false,
                    "revertMessage": "",
                    "selector": "",
                    "status": false,
                    "value": ""
                },
                "nodeType": 0
            },
            "0": {
                "invocation": {
                    "address": "0x72f3dff4cd17816604dd2df6c2741e739484ca62",
                    "callData": "0xe3a834f9bf07e06be89782a36d831a4cc969fc5aab0b25dba15d1c95e4607eef000000000000000000000000000000000000000000000000089aaeb710be000000000000000000000000000082c5720cb830341b48ac93cf6ff3064cf5eb504b6a9705b400000000000000000000000000000000000000000000000000000000000000000000000000000000000000000000000000000000000000005f6d41f40000000000000000000000000000000000000000000000000002112732607400",
                    "decodedMethod": {
                        "callParams": [
                            {
                                "name": "_requestId",
                                "type": "bytes32",
                                "value": "0xe3a834f9bf07e06be89782a36d831a4cc969fc5aab0b25dba15d1c95e4607eef"
                            },
                            {
                                "name": "_payment",
                                "type": "uint256",
                                "value": "620,000,000,000,000,000"
                            },
                            {
                                "name": "_callbackAddress",
                                "type": "address",
                                "value": "0x82c5720cb830341b48ac93cf6ff3064cf5eb504b"
                            },
                            {
                                "name": "_callbackFunctionId",
                                "type": "bytes4",
                                "value": "0x6a9705b4"
                            },
                            {
                                "name": "_expiration",
                                "type": "uint256",
                                "value": "1,600,995,828"
                            },
                            {
                                "name": "_data",
                                "type": "bytes32",
                                "value": "0x0000000000000000000000000000000000000000000000000002112732607400"
                            }
                        ],
                        "constructorArguments": "",
                        "name": "fulfillOracleRequest",
                        "returnParams": [
                            {
                                "name": "",
                                "type": "bool",
                                "value": true
                            }
                        ],
                        "signature": "fulfillOracleRequest(bytes32,uint256,address,bytes4,uint256,bytes32)"
                    },
                    "errorInfo": "",
                    "fromAddress": "0x165ff6730d449af03b4ee1e48122227a3328a1fc",
                    "gasUsed": 88756,
                    "id": 0,
                    "methodDecoded": true,
                    "operation": "CALL",
                    "output": "0x0000000000000000000000000000000000000000000000000000000000000001",
                    "revert": false,
                    "revertMessage": "",
                    "selector": "0x4ab0d190",
                    "status": true,
                    "value": "0"
                },
                "nodeType": 0
            },
            "1": {
                "invocation": {
                    "address": "0x82c5720cb830341b48ac93cf6ff3064cf5eb504b",
                    "callData": "0xe3a834f9bf07e06be89782a36d831a4cc969fc5aab0b25dba15d1c95e4607eef0000000000000000000000000000000000000000000000000002112732607400",
                    "decodedMethod": {
                        "callParams": [
                            {
                                "name": "_clRequestId",
                                "type": "bytes32",
                                "value": "0xe3a834f9bf07e06be89782a36d831a4cc969fc5aab0b25dba15d1c95e4607eef"
                            },
                            {
                                "name": "_response",
                                "type": "int256",
                                "value": "581,810,000,000,000"
                            }
                        ],
                        "constructorArguments": "",
                        "name": "chainlinkCallback",
                        "returnParams": [],
                        "signature": "chainlinkCallback(bytes32,int256)"
                    },
                    "errorInfo": "",
                    "fromAddress": "0x72f3dff4cd17816604dd2df6c2741e739484ca62",
                    "gasUsed": 95254,
                    "id": 1,
                    "methodDecoded": true,
                    "operation": "CALL",
                    "output": "",
                    "revert": false,
                    "revertMessage": "",
                    "selector": "0x6a9705b4",
                    "status": true,
                    "value": "0"
                },
                "nodeType": 0
            },
            "2": {
                "event": {
                    "contract": "0x82c5720cb830341b48ac93cf6ff3064cf5eb504b",
                    "decodedLog": {
                        "name": "ChainlinkFulfilled",
                        "params": [
                            {
                                "name": "id",
                                "type": "bytes32",
                                "value": "0xe3a834f9bf07e06be89782a36d831a4cc969fc5aab0b25dba15d1c95e4607eef"
                            }
                        ],
                        "signature": "ChainlinkFulfilled(bytes32)"
                    },
                    "id": 2,
                    "logData": "0x",
                    "logDecoded": true,
                    "operation": "EVENT",
                    "revert": false,
                    "status": true,
                    "topics": [
                        "0x7cc135e0cebb02c3480ae5d74d377283180a2601f8f644edf7987b009316c63a",
                        "0xe3a834f9bf07e06be89782a36d831a4cc969fc5aab0b25dba15d1c95e4607eef"
                    ]
                },
                "nodeType": 1
            },
            "3": {
                "event": {
                    "contract": "0x82c5720cb830341b48ac93cf6ff3064cf5eb504b",
                    "decodedLog": {
                        "name": "ResponseReceived",
                        "params": [
                            {
                                "name": "response",
                                "type": "int256",
                                "value": "581,810,000,000,000"
                            },
                            {
                                "name": "answerId",
                                "type": "uint256",
                                "value": "1,500"
                            },
                            {
                                "name": "sender",
                                "type": "address",
                                "value": "0x72f3dff4cd17816604dd2df6c2741e739484ca62"
                            }
                        ],
                        "signature": "ResponseReceived(int256,uint256,address)"
                    },
                    "id": 3,
                    "logData": "0x",
                    "logDecoded": true,
                    "operation": "EVENT",
                    "revert": false,
                    "status": true,
                    "topics": [
                        "0xb51168059c83c860caf5b830c5d2e64c2172c6fb2fe9f25447d9838e18d93b60",
                        "0x0000000000000000000000000000000000000000000000000002112732607400",
                        "0x00000000000000000000000000000000000000000000000000000000000005dc",
                        "0x00000000000000000000000072f3dff4cd17816604dd2df6c2741e739484ca62"
                    ]
                },
                "nodeType": 1
            },
            "4": {
                "event": {
                    "contract": "0x82c5720cb830341b48ac93cf6ff3064cf5eb504b",
                    "decodedLog": {
                        "name": "AnswerUpdated",
                        "params": [
                            {
                                "name": "current",
                                "type": "int256",
                                "value": "579,186,057,605,063"
                            },
                            {
                                "name": "roundId",
                                "type": "uint256",
                                "value": "1,500"
                            },
                            {
                                "name": "timestamp",
                                "type": "uint256",
                                "value": "1,600,995,590"
                            }
                        ],
                        "signature": "AnswerUpdated(int256,uint256,uint256)"
                    },
                    "id": 4,
                    "logData": "0x000000000000000000000000000000000000000000000000000000005f6d4106",
                    "logDecoded": true,
                    "operation": "EVENT",
                    "revert": false,
                    "status": true,
                    "topics": [
                        "0x0559884fd3a460db3073b7fc896cc77986f16e378210ded43186175bf646fc5f",
                        "0x00000000000000000000000000000000000000000000000000020ec44338efc7",
                        "0x00000000000000000000000000000000000000000000000000000000000005dc"
                    ]
                },
                "nodeType": 1
            }
        },
        "gasFlame": [
            {
                "children": [
                    {
                        "children": [
                            {
                                "children": [],
                                "depth": 0,
                                "name": "Initial Gas",
                                "value": 22696
                            },
                            {
                                "children": [
                                    {
                                        "children": [],
                                        "depth": 1,
                                        "name": "chainlinkCallback",
                                        "value": 95254
                                    }
                                ],
                                "depth": 0,
                                "name": "Executed Gas",
                                "value": 111060
                            }
                        ],
                        "depth": -1,
                        "name": "Actual Gas Used",
                        "value": 88756
                    },
                    {
                        "children": [],
                        "depth": -1,
                        "name": "Refunded Gas",
                        "value": 45000
                    }
                ],
                "depth": -2,
                "name": "Total Gas",
                "value": 133756
            }
        ],
        "isConfirmed": true,
        "mainTrace": [
            {
                "children": [
                    {
                        "children": [
                            {
                                "children": [
                                    {
                                        "children": [],
                                        "depth": 2,
                                        "id": 2,
                                        "order": 2
                                    },
                                    {
                                        "children": [],
                                        "depth": 2,
                                        "id": 3,
                                        "order": 3
                                    },
                                    {
                                        "children": [],
                                        "depth": 2,
                                        "id": 4,
                                        "order": 4
                                    }
                                ],
                                "depth": 1,
                                "id": 1,
                                "order": 1
                            }
                        ],
                        "depth": 0,
                        "id": 0,
                        "order": 0
                    }
                ],
                "depth": -1,
                "id": -1,
                "order": -1
            }
        ],
        "mainTraceNodeCount": 5,
        "parentIdMap": {
            "0": -1,
            "1": 0,
            "2": 1,
            "3": 1,
            "4": 1
        },
        "tidyTrace": [
            {
                "children": [
                    {
                        "children": [
                            {
                                "children": [
                                    {
                                        "children": [],
                                        "depth": 2,
                                        "id": 2,
                                        "order": 2
                                    },
                                    {
                                        "children": [],
                                        "depth": 2,
                                        "id": 3,
                                        "order": 3
                                    },
                                    {
                                        "children": [],
                                        "depth": 2,
                                        "id": 4,
                                        "order": 4
                                    }
                                ],
                                "depth": 1,
                                "id": 1,
                                "order": 1
                            }
                        ],
                        "depth": 0,
                        "id": 0,
                        "order": 0
                    }
                ],
                "depth": -1,
                "id": -1,
                "order": -1
            }
        ],
        "tidyTraceNodeCount": 5
    },
    "state_change": {
        "stateChanges": [
            {
                "address": "0x72f3dff4cd17816604dd2df6c2741e739484ca62",
                "erc": "",
                "slots": [
                    {
                        "current": "0x0000000000000000000000000000000000000000000000000000000000000000",
                        "key": "0x3895d1b2c8b742f014f6ef1be990a0efe3d5d6e875dd10db28a80043aa04ca52",
                        "prev": "0x38c894c9e31bf7e6e7f45c64734ce5401a0072cbcdce087484691a81cd103867"
                    },
                    {
                        "current": "0x00000000000000000000000000000000000000000000002cb3cf11ad901d4f50",
                        "key": "0x0000000000000000000000000000000000000000000000000000000000000004",
                        "prev": "0x00000000000000000000000000000000000000000000002cab3462f67f5f4f50"
                    }
                ],
                "storageVariables": [
                    {
                        "name": "commitments",
                        "type": "mapping(bytes32 => bytes32)",
                        "value": {
                            "pairs": [
                                {
                                    "key": "0xe3a834f9bf07e06be89782a36d831a4cc969fc5aab0b25dba15d1c95e4607eef",
                                    "value": {
                                        "current": "0x0000000000000000000000000000000000000000000000000000000000000000",
                                        "prev": "0x38c894c9e31bf7e6e7f45c64734ce5401a0072cbcdce087484691a81cd103867",
                                        "typeTag": 1
                                    }
                                }
                            ],
                            "typeTag": 4
                        }
                    },
                    {
                        "name": "withdrawableTokens",
                        "type": "uint256",
                        "value": {
                            "current": "824613333333333331792",
                            "prev": "823993333333333331792",
                            "typeTag": 1
                        }
                    }
                ]
            },
            {
                "address": "0x82c5720cb830341b48ac93cf6ff3064cf5eb504b",
                "erc": "",
                "slots": [
                    {
                        "current": "0x0000000000000000000000000000000000000000000000000000000000000000",
                        "key": "0x01d7eac14cc6628dd09164e67cfcb8bc76fc5929f60d700111718bba33a603a8",
                        "prev": "0x00000000000000000000000000000000000000000000000000000000000005dc"
                    },
                    {
                        "current": "0x0000000000000000000000000000000000000000000000000000000000000008",
                        "key": "0xb4a190d6459fbeef74205160afe89c01552757810ed58259a750c0637a3453c0",
                        "prev": "0x0000000000000000000000000000000000000000000000000000000000000007"
                    },
                    {
                        "current": "0x0000000000000000000000000000000000000000000000000002112732607400",
                        "key": "0x59e09a3b000ab76af95ff59522761f129de9312c5af31d5ab48c371495f72f42",
                        "prev": "0x0000000000000000000000000000000000000000000000000000000000000000"
                    },
                    {
                        "current": "0x00000000000000000000000000000000000000000000000000020ec44338efc7",
                        "key": "0x0000000000000000000000000000000000000000000000000000000000000007",
                        "prev": "0x00000000000000000000000000000000000000000000000000020ca6af629800"
                    },
                    {
                        "current": "0x000000000000000000000000000000000000000000000000000000005f6d4106",
                        "key": "0x0000000000000000000000000000000000000000000000000000000000000008",
                        "prev": "0x000000000000000000000000000000000000000000000000000000005f6d40fa"
                    },
                    {
                        "current": "0x000000000000000000000000000000000000000000000000000000005f6d4106",
                        "key": "0x18d396040f2c65e327af05cfe8d4988ad27dc24dbc48392f97fc22e14dce6516",
                        "prev": "0x000000000000000000000000000000000000000000000000000000005f6d40fa"
                    },
                    {
                        "current": "0x00000000000000000000000000000000000000000000000000020ec44338efc7",
                        "key": "0xaa57008260c0469b59f27245f33b8f879d1bf1796432a6fa6874259f490e2326",
                        "prev": "0x00000000000000000000000000000000000000000000000000020ca6af629800"
                    },
                    {
                        "current": "0x0000000000000000000000000000000000000000000000000000000000000000",
                        "key": "0x801f64fd890518639131cca820aab865d2c10eeb1e7665e795a4057e04c549bc",
                        "prev": "0x00000000000000000000000072f3dff4cd17816604dd2df6c2741e739484ca62"
                    }
                ],
                "storageVariables": [
                    {
                        "name": "updatedTimestamps",
                        "type": "mapping(uint256 => uint256)",
                        "value": {
                            "pairs": [
                                {
                                    "key": "1500",
                                    "value": {
                                        "current": "1600995590",
                                        "prev": "1600995578",
                                        "typeTag": 1
                                    }
                                }
                            ],
                            "typeTag": 4
                        }
                    },
                    {
                        "name": "currentAnswers",
                        "type": "mapping(uint256 => int256)",
                        "value": {
                            "pairs": [
                                {
                                    "key": "1500",
                                    "value": {
                                        "current": "579186057605063",
                                        "prev": "576860000000000",
                                        "typeTag": 1
                                    }
                                }
                            ],
                            "typeTag": 4
                        }
                    },
                    {
                        "name": "pendingRequests",
                        "type": "mapping(bytes32 => address)",
                        "value": {
                            "pairs": [
                                {
                                    "key": "0xe3a834f9bf07e06be89782a36d831a4cc969fc5aab0b25dba15d1c95e4607eef",
                                    "value": {
                                        "current": "0x0000000000000000000000000000000000000000",
                                        "prev": "0x72f3dff4cd17816604dd2df6c2741e739484ca62",
                                        "typeTag": 1
                                    }
                                }
                            ],
                            "typeTag": 4
                        }
                    },
                    {
                        "name": "requestAnswers",
                        "type": "mapping(bytes32 => uint256)",
                        "value": {
                            "pairs": [
                                {
                                    "key": "0xe3a834f9bf07e06be89782a36d831a4cc969fc5aab0b25dba15d1c95e4607eef",
                                    "value": {
                                        "current": "0",
                                        "prev": "1500",
                                        "typeTag": 1
                                    }
                                }
                            ],
                            "typeTag": 4
                        }
                    },
                    {
                        "name": "answers",
                        "type": "mapping(uint256 => struct Aggregator.Answer)",
                        "value": {
                            "pairs": [
                                {
                                    "key": "1500",
                                    "value": {
                                        "fields": [
                                            {
                                                "name": "responses",
                                                "type": "int256[]",
                                                "value": {
                                                    "elemType": "int256",
                                                    "elems": [
                                                        {
                                                            "index": 7,
                                                            "value": {
                                                                "current": "581810000000000",
                                                                "prev": "0",
                                                                "typeTag": 1
                                                            }
                                                        }
                                                    ],
                                                    "typeTag": 2
                                                }
                                            }
                                        ],
                                        "typeTag": 3
                                    }
                                }
                            ],
                            "typeTag": 4
                        }
                    },
                    {
                        "name": "currentAnswerValue",
                        "type": "int256",
                        "value": {
                            "current": "579186057605063",
                            "prev": "576860000000000",
                            "typeTag": 1
                        }
                    },
                    {
                        "name": "updatedTimestampValue",
                        "type": "uint256",
                        "value": {
                            "current": "1600995590",
                            "prev": "1600995578",
                            "typeTag": 1
                        }
                    }
                ]
            }
        ]
    }
}