{
    "balance_change": {
        "balanceChanges": [
            {
                "account": "0x5578851e8c3e7520485dc8cdd6b13049d078bc8e",
                "assets": [
                    {
                        "address": "0x4838e2a26df75c8fa372a6c312ae516198efea21",
                        "amount": "0.002615940916356695",
                        "iconUrl": "",
                        "isERC1155": false,
                        "isERC721": false,
                        "sign": true,
                        "value": ""
                    },
                    {
                        "address": "0xdac17f958d2ee523a2206206994597c13d831ec7",
                        "amount": "300",
                        "iconUrl": "https://assets.blocksec.com/icon/fcea71f3193ce895be44bfdf941f7e4c9381dd587f273c2d1a27f1263d84e4ea.png",
                        "isERC1155": false,
                        "isERC721": false,
                        "sign": true,
                        "value": ""
                    }
                ]
            },
            {
                "account": "0xf2d8073c3d9fecf2b08127e6c6ad6f11bd855c0c",
                "assets": [
                    {
                        "address": "0x4838e2a26df75c8fa372a6c312ae516198efea21",
                        "amount": "89.644156288072681063",
                        "iconUrl": "",
                        "isERC1155": false,
                        "isERC721": false,
                        "sign": true,
                        "value": ""
                    },
                    {
                        "address": "0xdac17f958d2ee523a2206206994597c13d831ec7",
                        "amount": "300",
                        "iconUrl": "https://assets.blocksec.com/icon/fcea71f3193ce895be44bfdf941f7e4c9381dd587f273c2d1a27f1263d84e4ea.png",
                        "isERC1155": false,
                        "isERC721": false,
                        "sign": false,
                        "value": ""
                    }
                ]
            },
            {
                "account": "0x0000000000000000000000000000000000000000",
                "assets": [
                    {
                        "address": "0x4838e2a26df75c8fa372a6c312ae516198efea21",
                        "amount": "94.129110840438489645",
                        "iconUrl": "",
                        "isERC1155": false,
                        "isERC721": false,
                        "sign": false,
                        "value": ""
                    }
                ]
            },
            {
                "account": "0x162b36cd6b9d0b5adcb4be3470c525e91d8dd4d6",
                "assets": [
                    {
                        "address": "0x4838e2a26df75c8fa372a6c312ae516198efea21",
                        "amount": "4.482338611449451887",
                        "iconUrl": "",
                        "isERC1155": false,
                        "isERC721": false,
                        "sign": true,
                        "value": ""
                    }
                ]
            }
        ]
    },
    "profile": {
        "basic_info": {
            "baseFee": "",
            "blockNumber": 11055930,
            "callData": "0xa41fe49f000000000000000000000000000000000000000000000000000000000000000200000000000000000000000000000000000000000000000000000000000000000000000000000000000000000000000000000000000000000000000011e1a300",
            "debugEnable": true,
            "errorInfo": "",
            "eventCount": 5,
            "feeRecipient": "0x45a36a8e118c37e4c47ef4ab827a7c9e579e11e2",
            "formatValue": "0",
            "gasLimit": 190411,
            "gasPrice": "43.000001459",
            "gasUsed": 150411,
            "intTxnCount": 6,
            "internalRevert": false,
            "internalRevertMessage": "",
            "isContractCreation": false,
            "isFlashloan": false,
            "maxFee": "",
            "nonce": 110,
            "overwritedBlockNumber": -1,
            "priorityFee": "",
            "receiver": "0xf2d8073c3d9fecf2b08127e6c6ad6f11bd855c0c",
            "revertMessage": "",
            "sender": "0x5578851e8c3e7520485dc8cdd6b13049d078bc8e",
            "simulationEnable": true,
            "sourceTxnHash": "0x4e27f6f4aeac5506f35f40851e1166880a98c883e3a396feb8ddca1715e9f0e2",
            "status": true,
            "timestamp": "2020-10-14T20:18:40Z",
            "transactionFee": "0.006467673219449649",
            "txnHash": "0x4e27f6f4aeac5506f35f40851e1166880a98c883e3a396feb8ddca1715e9f0e2",
            "txnIndex": 100,
            "type": 0,
            "value": "0"
        },
        "fund_flow": [
            {
                "amount": "4.482338611449451887",
                "from": "0x0000000000000000000000000000000000000000",
                "id": 1,
                "isERC1155": false,
                "isERC721": false,
                "isReverted": false,
                "order": 1,
                "to": "0x162b36cd6b9d0b5adcb4be3470c525e91d8dd4d6",
                "token": "0x4838e2a26df75c8fa372a6c312ae516198efea21"
            },
            {
                "amount": "89.646772228989037758",
                "from": "0x0000000000000000000000000000000000000000",
                "id": 2,
                "isERC1155": false,
                "isERC721": false,
                "isReverted": false,
                "order": 2,
                "to": "0xf2d8073c3d9fecf2b08127e6c6ad6f11bd855c0c",
                "token": "0x4838e2a26df75c8fa372a6c312ae516198efea21"
            },
            {
                "amount": "0.002615940916356695",
                "from": "0xf2d8073c3d9fecf2b08127e6c6ad6f11bd855c0c",
                "id": 3,
                "isERC1155": false,
                "isERC721": false,
                "isReverted": false,
                "order": 3,
                "to": "0x5578851e8c3e7520485dc8cdd6b13049d078bc8e",
                "token": "0x4838e2a26df75c8fa372a6c312ae516198efea21"
            },
            {
                "amount": "300",
                "from": "0xf2d8073c3d9fecf2b08127e6c6ad6f11bd855c0c",
                "id": 4,
                "isERC1155": false,
                "isERC721": false,
                "isReverted": false,
                "order": 4,
                "to": "0x5578851e8c3e7520485dc8cdd6b13049d078bc8e",
                "token": "0xdac17f958d2ee523a2206206994597c13d831ec7"
            }
        ],
        "token_infos": [
            {
                "address": "0x4838e2a26df75c8fa372a6c312ae516198efea21",
                "decimals": 18
            },
            {
                "address": "0xc02aaa39b223fe8d0a0e5c4f27ead9083c756cc2",
                "decimals": 18
            },
            {
                "address": "0xdac17f958d2ee523a2206206994597c13d831ec7",
                "decimals": 6
            },
            {
                "address": "0xeeeeeeeeeeeeeeeeeeeeeeeeeeeeeeeeeeeeeeee",
                "decimals": 18
            }
        ]
    },
    "address_label": {
        "labels": [
            {
                "address": "0xf2d8073c3d9fecf2b08127e6c6ad6f11bd855c0c",
                "label": "ZEUSMain"
            },
            {
                "address": "0x0000000000000000000000000000000000000001",
                "label": "Precompiled"
            },
            {
                "address": "0x0000000000000000000000000000000000000002",
                "label": "Precompiled"
            },
            {
                "address": "0x0000000000000000000000000000000000000003",
                "label": "Precompiled"
            },
            {
                "address": "0x0000000000000000000000000000000000000004",
                "label": "Precompiled"
            },
            {
                "address": "0xeeeeeeeeeeeeeeeeeeeeeeeeeeeeeeeeeeeeeeee",
                "label": "Ether"
            },
            {
                "address": "0x4838e2a26df75c8fa372a6c312ae516198efea21",
                "label": "ZEUSToken (ZEUS)"
            },
            {
                "address": "0xdac17f958d2ee523a2206206994597c13d831ec7",
                "label": "Tether: USDT Stablecoin"
            }
        ]
    },
    "trace": {
        "accountLabels": null,
        "dataMap": {
            "-1": {
                "invocation": {
                    "address": "0x5578851e8c3e7520485dc8cdd6b13049d078bc8e",
                    "callData": "",
                    "decodedMethod": null,
                    "errorInfo": "",
                    "fromAddress": "",
                    "gasUsed": 0,
                    "id": -1,
                    "methodDecoded": false,
                    "operation": "",
                    "output": "",
                    "revert": false,
                    "revertMessage": "",
                    "selector": "",
                    "status": false,
                    "value": ""
                },
                "nodeType": 0
            },
            "0": {
                "invocation": {
                    "address": "0xf2d8073c3d9fecf2b08127e6c6ad6f11bd855c0c",
                    "callData": "0x000000000000000000000000000000000000000000000000000000000000000200000000000000000000000000000000000000000000000000000000000000000000000000000000000000000000000000000000000000000000000011e1a300",
                    "decodedMethod": {
                        "callParams": [
                            {
                                "name": "_aid",
                                "type": "uint256",
                                "value": "2"
                            },
                            {
                                "name": "_pid",
                                "type": "uint256",
                                "value": "0"
                            },
                            {
                                "name": "_amount",
                                "type": "uint256",
                                "value": "300,000,000"
                            }
                        ],
                        "constructorArguments": "",
                        "name": "withdraw",
                        "returnParams": [],
                        "signature": "withdraw(uint256,uint256,uint256)"
                    },
                    "errorInfo": "",
                    "fromAddress": "0x5578851e8c3e7520485dc8cdd6b13049d078bc8e",
                    "gasUsed": 150411,
                    "id": 0,
                    "methodDecoded": true,
                    "operation": "CALL",
                    "output": "",
                    "revert": false,
                    "revertMessage": "",
                    "selector": "0xa41fe49f",
                    "status": true,
                    "value": "0"
                },
                "nodeType": 0
            },
            "1": {
                "invocation": {
                    "address": "0xdac17f958d2ee523a2206206994597c13d831ec7",
                    "callData": "0x000000000000000000000000f2d8073c3d9fecf2b08127e6c6ad6f11bd855c0c",
                    "decodedMethod": {
                        "callParams": [
                            {
                                "name": "who",
                                "type": "address",
                                "value": "0xf2d8073c3d9fecf2b08127e6c6ad6f11bd855c0c"
                            }
                        ],
                        "constructorArguments": "",
                        "name": "balanceOf",
                        "returnParams": [
                            {
                                "decimalAvailable": true,
                                "name": "",
                                "type": "uint256",
                                "value": "1,028,082,534,301"
                            }
                        ],
                        "signature": "balanceOf(address)"
                    },
                    "errorInfo": "",
                    "fromAddress": "0xf2d8073c3d9fecf2b08127e6c6ad6f11bd855c0c",
                    "gasUsed": 2431,
                    "id": 1,
                    "methodDecoded": true,
                    "operation": "STATICCALL",
                    "output": "0x000000000000000000000000000000000000000000000000000000ef5e7e879d",
                    "revert": false,
                    "revertMessage": "",
                    "selector": "0x70a08231",
                    "status": true,
                    "value": "0"
                },
                "nodeType": 0
            },
            "10": {
                "event": {
                    "contract": "0xdac17f958d2ee523a2206206994597c13d831ec7",
                    "decodedLog": {
                        "name": "Transfer",
                        "params": [
                            {
                                "name": "from",
                                "type": "address",
                                "value": "0xf2d8073c3d9fecf2b08127e6c6ad6f11bd855c0c"
                            },
                            {
                                "name": "to",
                                "type": "address",
                                "value": "0x5578851e8c3e7520485dc8cdd6b13049d078bc8e"
                            },
                            {
                                "decimalAvailable": true,
                                "name": "value",
                                "type": "uint256",
                                "value": "300,000,000"
                            }
                        ],
                        "signature": "Transfer(address,address,uint256)"
                    },
                    "id": 10,
                    "logData": "0x0000000000000000000000000000000000000000000000000000000011e1a300",
                    "logDecoded": true,
                    "operation": "EVENT",
                    "revert": false,
                    "status": true,
                    "topics": [
                        "0xddf252ad1be2c89b69c2b068fc378daa952ba7f163c4a11628f55a4df523b3ef",
                        "0x000000000000000000000000f2d8073c3d9fecf2b08127e6c6ad6f11bd855c0c",
                        "0x0000000000000000000000005578851e8c3e7520485dc8cdd6b13049d078bc8e"
                    ]
                },
                "nodeType": 1
            },
            "11": {
                "event": {
                    "contract": "0xf2d8073c3d9fecf2b08127e6c6ad6f11bd855c0c",
                    "decodedLog": {
                        "name": "Withdraw",
                        "params": [
                            {
                                "name": "user",
                                "type": "address",
                                "value": "0x5578851e8c3e7520485dc8cdd6b13049d078bc8e"
                            },
                            {
                                "name": "aid",
                                "type": "uint256",
                                "value": "2"
                            },
                            {
                                "name": "pid",
                                "type": "uint256",
                                "value": "0"
                            },
                            {
                                "name": "amount",
                                "type": "uint256",
                                "value": "300,000,000"
                            }
                        ],
                        "signature": "Withdraw(address,uint256,uint256,uint256)"
                    },
                    "id": 11,
                    "logData": "0x0000000000000000000000000000000000000000000000000000000011e1a300",
                    "logDecoded": true,
                    "operation": "EVENT",
                    "revert": false,
                    "status": true,
                    "topics": [
                        "0x02f25270a4d87bea75db541cdfe559334a275b4a233520ed6c0a2429667cca94",
                        "0x0000000000000000000000005578851e8c3e7520485dc8cdd6b13049d078bc8e",
                        "0x0000000000000000000000000000000000000000000000000000000000000002",
                        "0x0000000000000000000000000000000000000000000000000000000000000000"
                    ]
                },
                "nodeType": 1
            },
            "2": {
                "invocation": {
                    "address": "0x4838e2a26df75c8fa372a6c312ae516198efea21",
                    "callData": "0x000000000000000000000000162b36cd6b9d0b5adcb4be3470c525e91d8dd4d60000000000000000000000000000000000000000000000003e347737fa76556f",
                    "decodedMethod": {
                        "callParams": [
                            {
                                "name": "_to",
                                "type": "address",
                                "value": "0x162b36cd6b9d0b5adcb4be3470c525e91d8dd4d6"
                            },
                            {
                                "name": "_amount",
                                "type": "uint256",
                                "value": "4,482,338,611,449,451,887"
                            }
                        ],
                        "constructorArguments": "",
                        "name": "mint",
                        "returnParams": [],
                        "signature": "mint(address,uint256)"
                    },
                    "errorInfo": "",
                    "fromAddress": "0xf2d8073c3d9fecf2b08127e6c6ad6f11bd855c0c",
                    "gasUsed": 16069,
                    "id": 2,
                    "methodDecoded": true,
                    "operation": "CALL",
                    "output": "",
                    "revert": false,
                    "revertMessage": "",
                    "selector": "0x40c10f19",
                    "status": true,
                    "value": "0"
                },
                "nodeType": 0
            },
            "3": {
                "event": {
                    "contract": "0x4838e2a26df75c8fa372a6c312ae516198efea21",
                    "decodedLog": {
                        "name": "Transfer",
                        "params": [
                            {
                                "name": "from",
                                "type": "address",
                                "value": "0x0000000000000000000000000000000000000000"
                            },
                            {
                                "name": "to",
                                "type": "address",
                                "value": "0x162b36cd6b9d0b5adcb4be3470c525e91d8dd4d6"
                            },
                            {
                                "decimalAvailable": true,
                                "name": "value",
                                "type": "uint256",
                                "value": "4,482,338,611,449,451,887"
                            }
                        ],
                        "signature": "Transfer(address,address,uint256)"
                    },
                    "id": 3,
                    "logData": "0x0000000000000000000000000000000000000000000000003e347737fa76556f",
                    "logDecoded": true,
                    "operation": "EVENT",
                    "revert": false,
                    "status": true,
                    "topics": [
                        "0xddf252ad1be2c89b69c2b068fc378daa952ba7f163c4a11628f55a4df523b3ef",
                        "0x0000000000000000000000000000000000000000000000000000000000000000",
                        "0x000000000000000000000000162b36cd6b9d0b5adcb4be3470c525e91d8dd4d6"
                    ]
                },
                "nodeType": 1
            },
            "4": {
                "invocation": {
                    "address": "0x4838e2a26df75c8fa372a6c312ae516198efea21",
                    "callData": "0x000000000000000000000000f2d8073c3d9fecf2b08127e6c6ad6f11bd855c0c000000000000000000000000000000000000000000000004dc19505f913eacbe",
                    "decodedMethod": {
                        "callParams": [
                            {
                                "name": "_to",
                                "type": "address",
                                "value": "0xf2d8073c3d9fecf2b08127e6c6ad6f11bd855c0c"
                            },
                            {
                                "name": "_amount",
                                "type": "uint256",
                                "value": "89,646,772,228,989,037,758"
                            }
                        ],
                        "constructorArguments": "",
                        "name": "mint",
                        "returnParams": [],
                        "signature": "mint(address,uint256)"
                    },
                    "errorInfo": "",
                    "fromAddress": "0xf2d8073c3d9fecf2b08127e6c6ad6f11bd855c0c",
                    "gasUsed": 11869,
                    "id": 4,
                    "methodDecoded": true,
                    "operation": "CALL",
                    "output": "",
                    "revert": false,
                    "revertMessage": "",
                    "selector": "0x40c10f19",
                    "status": true,
                    "value": "0"
                },
                "nodeType": 0
            },
            "5": {
                "event": {
                    "contract": "0x4838e2a26df75c8fa372a6c312ae516198efea21",
                    "decodedLog": {
                        "name": "Transfer",
                        "params": [
                            {
                                "name": "from",
                                "type": "address",
                                "value": "0x0000000000000000000000000000000000000000"
                            },
                            {
                                "name": "to",
                                "type": "address",
                                "value": "0xf2d8073c3d9fecf2b08127e6c6ad6f11bd855c0c"
                            },
                            {
                                "decimalAvailable": true,
                                "name": "value",
                                "type": "uint256",
                                "value": "89,646,772,228,989,037,758"
                            }
                        ],
                        "signature": "Transfer(address,address,uint256)"
                    },
                    "id": 5,
                    "logData": "0x000000000000000000000000000000000000000000000004dc19505f913eacbe",
                    "logDecoded": true,
                    "operation": "EVENT",
                    "revert": false,
                    "status": true,
                    "topics": [
                        "0xddf252ad1be2c89b69c2b068fc378daa952ba7f163c4a11628f55a4df523b3ef",
                        "0x0000000000000000000000000000000000000000000000000000000000000000",
                        "0x000000000000000000000000f2d8073c3d9fecf2b08127e6c6ad6f11bd855c0c"
                    ]
                },
                "nodeType": 1
            },
            "6": {
                "invocation": {
                    "address": "0x4838e2a26df75c8fa372a6c312ae516198efea21",
                    "callData": "0x000000000000000000000000f2d8073c3d9fecf2b08127e6c6ad6f11bd855c0c",
                    "decodedMethod": {
                        "callParams": [
                            {
                                "name": "account",
                                "type": "address",
                                "value": "0xf2d8073c3d9fecf2b08127e6c6ad6f11bd855c0c"
                            }
                        ],
                        "constructorArguments": "",
                        "name": "balanceOf",
                        "returnParams": [
                            {
                                "decimalAvailable": true,
                                "name": "",
                                "type": "uint256",
                                "value": "491,598,097,067,321,812,134,617"
                            }
                        ],
                        "signature": "balanceOf(address)"
                    },
                    "errorInfo": "",
                    "fromAddress": "0xf2d8073c3d9fecf2b08127e6c6ad6f11bd855c0c",
                    "gasUsed": 1278,
                    "id": 6,
                    "methodDecoded": true,
                    "operation": "STATICCALL",
                    "output": "0x0000000000000000000000000000000000000000000068199613ec6204612ad9",
                    "revert": false,
                    "revertMessage": "",
                    "selector": "0x70a08231",
                    "status": true,
                    "value": "0"
                },
                "nodeType": 0
            },
            "7": {
                "invocation": {
                    "address": "0x4838e2a26df75c8fa372a6c312ae516198efea21",
                    "callData": "0x0000000000000000000000005578851e8c3e7520485dc8cdd6b13049d078bc8e00000000000000000000000000000000000000000000000000094b2f3512a657",
                    "decodedMethod": {
                        "callParams": [
                            {
                                "name": "recipient",
                                "type": "address",
                                "value": "0x5578851e8c3e7520485dc8cdd6b13049d078bc8e"
                            },
                            {
                                "decimalAvailable": true,
                                "name": "amount",
                                "type": "uint256",
                                "value": "2,615,940,916,356,695"
                            }
                        ],
                        "constructorArguments": "",
                        "name": "transfer",
                        "returnParams": [
                            {
                                "name": "",
                                "type": "bool",
                                "value": true
                            }
                        ],
                        "signature": "transfer(address,uint256)"
                    },
                    "errorInfo": "",
                    "fromAddress": "0xf2d8073c3d9fecf2b08127e6c6ad6f11bd855c0c",
                    "gasUsed": 25325,
                    "id": 7,
                    "methodDecoded": true,
                    "operation": "CALL",
                    "output": "0x0000000000000000000000000000000000000000000000000000000000000001",
                    "revert": false,
                    "revertMessage": "",
                    "selector": "0xa9059cbb",
                    "status": true,
                    "value": "0"
                },
                "nodeType": 0
            },
            "8": {
                "event": {
                    "contract": "0x4838e2a26df75c8fa372a6c312ae516198efea21",
                    "decodedLog": {
                        "name": "Transfer",
                        "params": [
                            {
                                "name": "from",
                                "type": "address",
                                "value": "0xf2d8073c3d9fecf2b08127e6c6ad6f11bd855c0c"
                            },
                            {
                                "name": "to",
                                "type": "address",
                                "value": "0x5578851e8c3e7520485dc8cdd6b13049d078bc8e"
                            },
                            {
                                "decimalAvailable": true,
                                "name": "value",
                                "type": "uint256",
                                "value": "2,615,940,916,356,695"
                            }
                        ],
                        "signature": "Transfer(address,address,uint256)"
                    },
                    "id": 8,
                    "logData": "0x00000000000000000000000000000000000000000000000000094b2f3512a657",
                    "logDecoded": true,
                    "operation": "EVENT",
                    "revert": false,
                    "status": true,
                    "topics": [
                        "0xddf252ad1be2c89b69c2b068fc378daa952ba7f163c4a11628f55a4df523b3ef",
                        "0x000000000000000000000000f2d8073c3d9fecf2b08127e6c6ad6f11bd855c0c",
                        "0x0000000000000000000000005578851e8c3e7520485dc8cdd6b13049d078bc8e"
                    ]
                },
                "nodeType": 1
            },
            "9": {
                "invocation": {
                    "address": "0xdac17f958d2ee523a2206206994597c13d831ec7",
                    "callData": "0x0000000000000000000000005578851e8c3e7520485dc8cdd6b13049d078bc8e0000000000000000000000000000000000000000000000000000000011e1a300",
                    "decodedMethod": {
                        "callParams": [
                            {
                                "name": "_to",
                                "type": "address",
                                "value": "0x5578851e8c3e7520485dc8cdd6b13049d078bc8e"
                            },
                            {
                                "decimalAvailable": true,
                                "name": "_value",
                                "type": "uint256",
                                "value": "300,000,000"
                            }
                        ],
                        "constructorArguments": "",
                        "name": "transfer",
                        "returnParams": [],
                        "signature": "transfer(address,uint256)"
                    },
                    "errorInfo": "",
                    "fromAddress": "0xf2d8073c3d9fecf2b08127e6c6ad6f11bd855c0c",
                    "gasUsed": 19601,
                    "id": 9,
                    "methodDecoded": true,
                    "operation": "CALL",
                    "output": "",
                    "revert": false,
                    "revertMessage": "",
                    "selector": "0xa9059cbb",
                    "status": true,
                    "value": "0"
                },
                "nodeType": 0
            }
        },
        "gasFlame": [
            {
                "children": [
                    {
                        "children": [
                            {
                                "children": [],
                                "depth": 0,
                                "name": "Initial Gas",
                                "value": 21496
                            },
                            {
                                "children": [
                                    {
                                        "children": [],
                                        "depth": 1,
                                        "name": "balanceOf",
                                        "value": 2431
                                    },
                                    {
                                        "children": [],
                                        "depth": 1,
                                        "name": "mint",
                                        "value": 16069
                                    },
                                    {
                                        "children": [],
                                        "depth": 1,
                                        "name": "mint",
                                        "value": 11869
                                    },
                                    {
                                        "children": [],
                                        "depth": 1,
                                        "name": "balanceOf",
                                        "value": 1278
                                    },
                                    {
                                        "children": [],
                                        "depth": 1,
                                        "name": "transfer",
                                        "value": 25325
                                    },
                                    {
                                        "children": [],
                                        "depth": 1,
                                        "name": "transfer",
                                        "value": 19601
                                    }
                                ],
                                "depth": 0,
                                "name": "Executed Gas",
                                "value": 158915
                            }
                        ],
                        "depth": -1,
                        "name": "Actual Gas Used",
                        "value": 150411
                    },
                    {
                        "children": [],
                        "depth": -1,
                        "name": "Refunded Gas",
                        "value": 30000
                    }
                ],
                "depth": -2,
                "name": "Total Gas",
                "value": 180411
            }
        ],
        "isConfirmed": true,
        "mainTrace": [
            {
                "children": [
                    {
                        "children": [
                            {
                                "children": [],
                                "depth": 1,
                                "id": 1,
                                "order": 1
                            },
                            {
                                "children": [
                                    {
                                        "children": [],
                                        "depth": 2,
                                        "id": 3,
                                        "order": 3
                                    }
                                ],
                                "depth": 1,
                                "id": 2,
                                "order": 2
                            },
                            {
                                "children": [
                                    {
                                        "children": [],
                                        "depth": 2,
                                        "id": 5,
                                        "order": 5
                                    }
                                ],
                                "depth": 1,
                                "id": 4,
                                "order": 4
                            },
                            {
                                "children": [],
                                "depth": 1,
                                "id": 6,
                                "order": 6
                            },
                            {
                                "children": [
                                    {
                                        "children": [],
                                        "depth": 2,
                                        "id": 8,
                                        "order": 8
                                    }
                                ],
                                "depth": 1,
                                "id": 7,
                                "order": 7
                            },
                            {
                                "children": [
                                    {
                                        "children": [],
                                        "depth": 2,
                                        "id": 10,
                                        "order": 10
                                    }
                                ],
                                "depth": 1,
                                "id": 9,
                                "order": 9
                            },
                            {
                                "children": [],
                                "depth": 1,
                                "id": 11,
                                "order": 11
                            }
                        ],
                        "depth": 0,
                        "id": 0,
                        "order": 0
                    }
                ],
                "depth": -1,
                "id": -1,
                "order": -1
            }
        ],
        "mainTraceNodeCount": 12,
        "parentIdMap": {
            "0": -1,
            "1": 0,
            "10": 9,
            "11": 0,
            "2": 0,
            "3": 2,
            "4": 0,
            "5": 4,
            "6": 0,
            "7": 0,
            "8": 7,
            "9": 0
        },
        "tidyTrace": [
            {
                "children": [
                    {
                        "children": [
                            {
                                "children": [
                                    {
                                        "children": [],
                                        "depth": 2,
                                        "id": 3,
                                        "order": 3
                                    }
                                ],
                                "depth": 1,
                                "id": 2,
                                "order": 2
                            },
                            {
                                "children": [
                                    {
                                        "children": [],
                                        "depth": 2,
                                        "id": 5,
                                        "order": 5
                                    }
                                ],
                                "depth": 1,
                                "id": 4,
                                "order": 4
                            },
                            {
                                "children": [
                                    {
                                        "children": [],
                                        "depth": 2,
                                        "id": 8,
                                        "order": 8
                                    }
                                ],
                                "depth": 1,
                                "id": 7,
                                "order": 7
                            },
                            {
                                "children": [
                                    {
                                        "children": [],
                                        "depth": 2,
                                        "id": 10,
                                        "order": 10
                                    }
                                ],
                                "depth": 1,
                                "id": 9,
                                "order": 9
                            },
                            {
                                "children": [],
                                "depth": 1,
                                "id": 11,
                                "order": 11
                            }
                        ],
                        "depth": 0,
                        "id": 0,
                        "order": 0
                    }
                ],
                "depth": -1,
                "id": -1,
                "order": -1
            }
        ],
        "tidyTraceNodeCount": 10
    },
    "state_change": {
        "stateChanges": [
            {
                "address": "0x4838e2a26df75c8fa372a6c312ae516198efea21",
                "erc": "ERC-20",
                "slots": [
                    {
                        "current": "0x000000000000000000000000000000000000000000000bafbcde1b0248f02236",
                        "key": "0x7ce11d6d8d89313cf6d91db4c3d87eaf79cdfb7753e8a90c734df14a6340f7d1",
                        "prev": "0x000000000000000000000000000000000000000000000baf7ea9a3ca4e79ccc7"
                    },
                    {
                        "current": "0x00000000000000000000000000000000000000000000f56a7e38372ffbb35794",
                        "key": "0x0000000000000000000000000000000000000000000000000000000000000002",
                        "prev": "0x00000000000000000000000000000000000000000000f56563ea6f986ffe5567"
                    },
                    {
                        "current": "0x000000000000000000000000000000000000000000006819960aa132cf4e8482",
                        "key": "0x5e8884213e3c95927b90ecb555b0010f1bc0af49482e0f071b9bd65da0c6a1a1",
                        "prev": "0x000000000000000000000000000000000000000000006814b9fa9c0273227e1b"
                    },
                    {
                        "current": "0x00000000000000000000000000000000000000000000000000094b2f3512a657",
                        "key": "0x6ac5934e868707052fddacd38b2b286183aee6c6763bbad9599f0a402ff36603",
                        "prev": "0x0000000000000000000000000000000000000000000000000000000000000000"
                    }
                ],
                "storageVariables": [
                    {
                        "name": "_balances",
                        "type": "mapping(address => uint256)",
                        "value": {
                            "pairs": [
                                {
                                    "key": "0x162b36cd6b9d0b5adcb4be3470c525e91d8dd4d6",
                                    "value": {
                                        "current": "55187820869285856682550",
                                        "prev": "55183338530674407230663",
                                        "typeTag": 1
                                    }
                                },
                                {
                                    "key": "0x5578851e8c3e7520485dc8cdd6b13049d078bc8e",
                                    "value": {
                                        "current": "2615940916356695",
                                        "prev": "0",
                                        "typeTag": 1
                                    }
                                },
                                {
                                    "key": "0xf2d8073c3d9fecf2b08127e6c6ad6f11bd855c0c",
                                    "value": {
                                        "current": "491598094451380895777922",
                                        "prev": "491508450295092823096859",
                                        "typeTag": 1
                                    }
                                }
                            ],
                            "typeTag": 4
                        }
                    },
                    {
                        "name": "_totalSupply",
                        "type": "uint256",
                        "value": {
                            "current": "1158944238255002990368660",
                            "prev": "1158850109144162551879015",
                            "typeTag": 1
                        }
                    }
                ]
            },
            {
                "address": "0xdac17f958d2ee523a2206206994597c13d831ec7",
                "erc": "ERC-20",
                "slots": [
                    {
                        "current": "0x000000000000000000000000000000000000000000000000000000ef4c9ce49d",
                        "key": "0x9d73f9b70c7b7699dad81f70ca5baf017bb3b880f23165d49e3e29210c2bfa40",
                        "prev": "0x000000000000000000000000000000000000000000000000000000ef5e7e879d"
                    },
                    {
                        "current": "0x0000000000000000000000000000000000000000000000000000000016225b02",
                        "key": "0x5ec92f6b3249fe773ec92822e83d88c445b8cd23de62a50f04943bfaceaed8bc",
                        "prev": "0x000000000000000000000000000000000000000000000000000000000440b802"
                    }
                ],
                "storageVariables": [
                    {
                        "name": "balances",
                        "type": "mapping(address => uint256)",
                        "value": {
                            "pairs": [
                                {
                                    "key": "0x5578851e8c3e7520485dc8cdd6b13049d078bc8e",
                                    "value": {
                                        "current": "371350274",
                                        "prev": "71350274",
                                        "typeTag": 1
                                    }
                                },
                                {
                                    "key": "0xf2d8073c3d9fecf2b08127e6c6ad6f11bd855c0c",
                                    "value": {
                                        "current": "1027782534301",
                                        "prev": "1028082534301",
                                        "typeTag": 1
                                    }
                                }
                            ],
                            "typeTag": 4
                        }
                    }
                ]
            },
            {
                "address": "0xf2d8073c3d9fecf2b08127e6c6ad6f11bd855c0c",
                "erc": "",
                "slots": [
                    {
                        "current": "0x0000000000000000000000000000000000000000000000ec2a6bd9eb33955a83",
                        "key": "0x7bf249938c4feef66b9076a9dee14bad2f4e6b5ee27a7222e6020ba7aeaaace9",
                        "prev": "0x0000000000000000000000000000000000000000000000ebb168e33d7b6a24a3"
                    },
                    {
                        "current": "0x0000000000000000000000000000000000000000000000000000000000a8b33a",
                        "key": "0x7bf249938c4feef66b9076a9dee14bad2f4e6b5ee27a7222e6020ba7aeaaace8",
                        "prev": "0x0000000000000000000000000000000000000000000000000000000000a8b30c"
                    },
                    {
                        "current": "0x0000000000000000000000000000000000000000000000000000000000000000",
                        "key": "0x34e9bd764c94790857ac075040d0869e662040beae5fbbad283916c717caca48",
                        "prev": "0x0000000000000000000000000000000000000000000000000000000011e1a300"
                    },
                    {
                        "current": "0x000000000000000000000000000000000000000000000000000000000000003f",
                        "key": "0x7bf249938c4feef66b9076a9dee14bad2f4e6b5ee27a7222e6020ba7aeaaace7",
                        "prev": "0x0000000000000000000000000000000000000000000000000000000000000040"
                    },
                    {
                        "current": "0x0000000000000000000000000000000000000000000000000000000000000cd3",
                        "key": "0xc65a7bb8d6351c1cf70c95a316cc6a92839c986682d98bc35f958f4883f9d2ac",
                        "prev": "0x0000000000000000000000000000000000000000000000000000000000000cd4"
                    },
                    {
                        "current": "0x0000000000000000000000000000000000000000000000000000000000000000",
                        "key": "0x34e9bd764c94790857ac075040d0869e662040beae5fbbad283916c717caca49",
                        "prev": "0x0000000000000000000000000000000000000000000000001219e9beb67cfc45"
                    }
                ],
                "storageVariables": [
                    {
                        "name": "userInfo",
                        "type": "mapping(uint256 => mapping(uint256 => mapping(address => struct ZEUSMain.UserInfo)))",
                        "value": {
                            "pairs": [
                                {
                                    "key": "2",
                                    "value": {
                                        "pairs": [
                                            {
                                                "key": "0",
                                                "value": {
                                                    "pairs": [
                                                        {
                                                            "key": "0x5578851e8c3e7520485dc8cdd6b13049d078bc8e",
                                                            "value": {
                                                                "fields": [
                                                                    {
                                                                        "name": "amount",
                                                                        "type": "uint256",
                                                                        "value": {
                                                                            "current": "0",
                                                                            "prev": "300000000",
                                                                            "typeTag": 1
                                                                        }
                                                                    },
                                                                    {
                                                                        "name": "rewardDebt",
                                                                        "type": "uint256",
                                                                        "value": {
                                                                            "current": "0",
                                                                            "prev": "1304330572415171653",
                                                                            "typeTag": 1
                                                                        }
                                                                    }
                                                                ],
                                                                "typeTag": 3
                                                            }
                                                        }
                                                    ],
                                                    "typeTag": 4
                                                }
                                            }
                                        ],
                                        "typeTag": 4
                                    }
                                }
                            ],
                            "typeTag": 4
                        }
                    },
                    {
                        "name": "poolInfo",
                        "type": "mapping(uint256 => struct ZEUSMain.PoolInfo[])",
                        "value": {
                            "pairs": [
                                {
                                    "key": "2",
                                    "value": {
                                        "elemType": "struct ZEUSMain.PoolInfo",
                                        "elems": [
                                            {
                                                "index": 0,
                                                "value": {
                                                    "fields": [
                                                        {
                                                            "name": "allocPoint",
                                                            "type": "uint256",
                                                            "value": {
                                                                "current": "63",
                                                                "prev": "64",
                                                                "typeTag": 1
                                                            }
                                                        },
                                                        {
                                                            "name": "lastRewardBlock",
                                                            "type": "uint256",
                                                            "value": {
                                                                "current": "11055930",
                                                                "prev": "11055884",
                                                                "typeTag": 1
                                                            }
                                                        },
                                                        {
                                                            "name": "accZEUSPerShare",
                                                            "type": "uint256",
                                                            "value": {
                                                                "current": "4356488377771761162883",
                                                                "prev": "4347768574717238846627",
                                                                "typeTag": 1
                                                            }
                                                        }
                                                    ],
                                                    "typeTag": 3
                                                }
                                            }
                                        ],
                                        "typeTag": 2
                                    }
                                }
                            ],
                            "typeTag": 4
                        }
                    },
                    {
                        "name": "areaInfo",
                        "type": "struct ZEUSMain.AreaInfo[]",
                        "value": {
                            "elemType": "struct ZEUSMain.AreaInfo",
                            "elems": [
                                {
                                    "index": 2,
                                    "value": {
                                        "fields": [
                                            {
                                                "name": "totalAllocPoint",
                                                "type": "uint256",
                                                "value": {
                                                    "current": "3283",
                                                    "prev": "3284",
                                                    "typeTag": 1
                                                }
                                            }
                                        ],
                                        "typeTag": 3
                                    }
                                }
                            ],
                            "typeTag": 2
                        }
                    }
                ]
            }
        ]
    }
}