{
    "balance_change": {
        "balanceChanges": [
            {
                "account": "0x7bf3d866e6e2122a9ff3d599ecf2c53cc769c374",
                "assets": [
                    {
                        "address": "0x4e1bb58a40f34d8843f61030fe4257c11d09a2c5",
                        "amount": "1,287,000,000,000,000,000,000",
                        "iconUrl": "",
                        "isERC1155": false,
                        "isERC721": false,
                        "sign": false,
                        "value": ""
                    }
                ]
            },
            {
                "account": "0x4b104a715574467bd7c95ad4fb4d3af948e22b39",
                "assets": [
                    {
                        "address": "0x4e1bb58a40f34d8843f61030fe4257c11d09a2c5",
                        "amount": "1,287,000,000,000,000,000,000",
                        "iconUrl": "",
                        "isERC1155": false,
                        "isERC721": false,
                        "sign": true,
                        "value": ""
                    }
                ]
            }
        ]
    },
    "profile": {
        "basic_info": {
            "baseFee": "",
            "blockNumber": 7358414,
            "callData": "0xa9059cbb0000000000000000000000004b104a715574467bd7c95ad4fb4d3af948e22b39000000000000000000000000000000000000000000000045c4b6812e87bc0000",
            "debugEnable": true,
            "errorInfo": "",
            "eventCount": 1,
            "feeRecipient": "0x829bd824b016326a401d083b33d092293333a830",
            "formatValue": "0",
            "gasLimit": 37326,
            "gasPrice": "4",
            "gasUsed": 37326,
            "intTxnCount": 0,
            "internalRevert": false,
            "internalRevertMessage": "",
            "isContractCreation": false,
            "isFlashloan": false,
            "maxFee": "",
            "nonce": 6,
            "overwritedBlockNumber": -1,
            "priorityFee": "",
            "receiver": "0x4e1bb58a40f34d8843f61030fe4257c11d09a2c5",
            "revertMessage": "",
            "sender": "0x7bf3d866e6e2122a9ff3d599ecf2c53cc769c374",
            "simulationEnable": true,
            "sourceTxnHash": "0x4eaae21a75439bfbc079000a9a608c9f07a7c27d03f3b3b23013ed2af7241f3b",
            "status": true,
            "timestamp": "2019-03-13T03:51:42Z",
            "transactionFee": "0.000149304",
            "txnHash": "0x4eaae21a75439bfbc079000a9a608c9f07a7c27d03f3b3b23013ed2af7241f3b",
            "txnIndex": 129,
            "type": 0,
            "value": "0"
        },
        "fund_flow": [
            {
                "amount": "1,287,000,000,000,000,000,000",
                "from": "0x7bf3d866e6e2122a9ff3d599ecf2c53cc769c374",
                "id": 1,
                "isERC1155": false,
                "isERC721": false,
                "isReverted": false,
                "order": 1,
                "to": "0x4b104a715574467bd7c95ad4fb4d3af948e22b39",
                "token": "0x4e1bb58a40f34d8843f61030fe4257c11d09a2c5"
            }
        ],
        "token_infos": [
            {
                "address": "0xc02aaa39b223fe8d0a0e5c4f27ead9083c756cc2",
                "decimals": 18
            },
            {
                "address": "0xeeeeeeeeeeeeeeeeeeeeeeeeeeeeeeeeeeeeeeee",
                "decimals": 18
            }
        ]
    },
    "address_label": {
        "labels": [
            {
                "address": "0x0000000000000000000000000000000000000003",
                "label": "Precompiled"
            },
            {
                "address": "0x0000000000000000000000000000000000000004",
                "label": "Precompiled"
            },
            {
                "address": "0xeeeeeeeeeeeeeeeeeeeeeeeeeeeeeeeeeeeeeeee",
                "label": "Ether"
            },
            {
                "address": "0x4e1bb58a40f34d8843f61030fe4257c11d09a2c5",
                "label": "TTT"
            },
            {
                "address": "0x0000000000000000000000000000000000000001",
                "label": "Precompiled"
            },
            {
                "address": "0x0000000000000000000000000000000000000002",
                "label": "Precompiled"
            }
        ]
    },
    "trace": {
        "accountLabels": null,
        "dataMap": {
            "-1": {
                "invocation": {
                    "address": "0x7bf3d866e6e2122a9ff3d599ecf2c53cc769c374",
                    "callData": "",
                    "decodedMethod": null,
                    "errorInfo": "",
                    "fromAddress": "",
                    "gasUsed": 0,
                    "id": -1,
                    "methodDecoded": false,
                    "operation": "",
                    "output": "",
                    "revert": false,
                    "revertMessage": "",
                    "selector": "",
                    "status": false,
                    "value": ""
                },
                "nodeType": 0
            },
            "0": {
                "invocation": {
                    "address": "0x4e1bb58a40f34d8843f61030fe4257c11d09a2c5",
                    "callData": "0x0000000000000000000000004b104a715574467bd7c95ad4fb4d3af948e22b39000000000000000000000000000000000000000000000045c4b6812e87bc0000",
                    "decodedMethod": {
                        "callParams": [
                            {
                                "name": "_to",
                                "type": "address",
                                "value": "0x4b104a715574467bd7c95ad4fb4d3af948e22b39"
                            },
                            {
                                "decimalAvailable": true,
                                "name": "_value",
                                "type": "uint256",
                                "value": "1,287,000,000,000,000,000,000"
                            }
                        ],
                        "constructorArguments": "",
                        "name": "transfer",
                        "returnParams": [
                            {
                                "name": "",
                                "type": "bool",
                                "value": true
                            }
                        ],
                        "signature": "transfer(address,uint256)"
                    },
                    "errorInfo": "",
                    "fromAddress": "0x7bf3d866e6e2122a9ff3d599ecf2c53cc769c374",
                    "gasUsed": 37326,
                    "id": 0,
                    "methodDecoded": true,
                    "operation": "CALL",
                    "output": "0x0000000000000000000000000000000000000000000000000000000000000001",
                    "revert": false,
                    "revertMessage": "",
                    "selector": "0xa9059cbb",
                    "status": true,
                    "value": "0"
                },
                "nodeType": 0
            },
            "1": {
                "event": {
                    "contract": "0x4e1bb58a40f34d8843f61030fe4257c11d09a2c5",
                    "decodedLog": {
                        "name": "Transfer",
                        "params": [
                            {
                                "name": "from",
                                "type": "address",
                                "value": "0x7bf3d866e6e2122a9ff3d599ecf2c53cc769c374"
                            },
                            {
                                "name": "to",
                                "type": "address",
                                "value": "0x4b104a715574467bd7c95ad4fb4d3af948e22b39"
                            },
                            {
                                "decimalAvailable": true,
                                "name": "value",
                                "type": "uint256",
                                "value": "1,287,000,000,000,000,000,000"
                            }
                        ],
                        "signature": "Transfer(address,address,uint256)"
                    },
                    "id": 1,
                    "logData": "0x000000000000000000000000000000000000000000000045c4b6812e87bc0000",
                    "logDecoded": true,
                    "operation": "EVENT",
                    "revert": false,
                    "status": true,
                    "topics": [
                        "0xddf252ad1be2c89b69c2b068fc378daa952ba7f163c4a11628f55a4df523b3ef",
                        "0x0000000000000000000000007bf3d866e6e2122a9ff3d599ecf2c53cc769c374",
                        "0x0000000000000000000000004b104a715574467bd7c95ad4fb4d3af948e22b39"
                    ]
                },
                "nodeType": 1
            }
        },
        "gasFlame": [
            {
                "children": [
                    {
                        "children": [
                            {
                                "children": [],
                                "depth": 0,
                                "name": "Initial Gas",
                                "value": 23256
                            },
                            {
                                "children": [],
                                "depth": 0,
                                "name": "Executed Gas",
                                "value": 14070
                            }
                        ],
                        "depth": -1,
                        "name": "Actual Gas Used",
                        "value": 37326
                    },
                    {
                        "children": [],
                        "depth": -1,
                        "name": "Refunded Gas",
                        "value": 0
                    }
                ],
                "depth": -2,
                "name": "Total Gas",
                "value": 37326
            }
        ],
        "isConfirmed": true,
        "mainTrace": [
            {
                "children": [
                    {
                        "children": [
                            {
                                "children": [],
                                "depth": 1,
                                "id": 1,
                                "order": 1
                            }
                        ],
                        "depth": 0,
                        "id": 0,
                        "order": 0
                    }
                ],
                "depth": -1,
                "id": -1,
                "order": -1
            }
        ],
        "mainTraceNodeCount": 2,
        "parentIdMap": {
            "0": -1,
            "1": 0
        },
        "tidyTrace": [
            {
                "children": [
                    {
                        "children": [
                            {
                                "children": [],
                                "depth": 1,
                                "id": 1,
                                "order": 1
                            }
                        ],
                        "depth": 0,
                        "id": 0,
                        "order": 0
                    }
                ],
                "depth": -1,
                "id": -1,
                "order": -1
            }
        ],
        "tidyTraceNodeCount": 2
    },
    "state_change": {
        "stateChanges": [
            {
                "address": "0x4e1bb58a40f34d8843f61030fe4257c11d09a2c5",
                "erc": "ERC-20",
                "slots": [
                    {
                        "current": "0x0000000000000000000000000000000000000000000843fa10b0e470a6480000",
                        "key": "0x7b36ae3b5efe5a3c2f8c7f6b323ecb458fab827d4eeae745e0aed5a5fa15c3b9",
                        "prev": "0x00000000000000000000000000000000000000000008443fd567659f2e040000"
                    },
                    {
                        "current": "0x000000000000000000000000000000000000000000000046419ced7f6a40000e",
                        "key": "0xa3ee3df18357a94a299444b54a514f6fe7c7cc485f855d5135b6269b6834d7b9",
                        "prev": "0x0000000000000000000000000000000000000000000000007ce66c50e284000e"
                    }
                ],
                "storageVariables": [
                    {
                        "name": "balances",
                        "type": "mapping(address => uint256)",
                        "value": {
                            "pairs": [
                                {
                                    "key": "0x4b104a715574467bd7c95ad4fb4d3af948e22b39",
                                    "value": {
                                        "current": "1296000000000000000014",
                                        "prev": "9000000000000000014",
                                        "typeTag": 1
                                    }
                                },
                                {
                                    "key": "0x7bf3d866e6e2122a9ff3d599ecf2c53cc769c374",
                                    "value": {
                                        "current": "9992418000000000000000000",
                                        "prev": "9993705000000000000000000",
                                        "typeTag": 1
                                    }
                                }
                            ],
                            "typeTag": 4
                        }
                    }
                ]
            }
        ]
    }
}