{
    "balance_change": {
        "balanceChanges": [
            {
                "account": "0xcb0c7c757c64e1583ba5673de486bde1b8329879",
                "assets": [
                    {
                        "address": "0xc02aaa39b223fe8d0a0e5c4f27ead9083c756cc2",
                        "amount": "35.561236872241317871",
                        "iconUrl": "https://assets.blocksec.com/icon/f1cb2d02c471d545bbc7722daf3277fd852d98e63d118771af7047bd8256c516.png",
                        "isERC1155": false,
                        "isERC721": false,
                        "sign": true,
                        "value": ""
                    }
                ]
            },
            {
                "account": "0x794e6e91555438afc3ccf1c5076a74f42133d08d",
                "assets": [
                    {
                        "address": "0xc02aaa39b223fe8d0a0e5c4f27ead9083c756cc2",
                        "amount": "35.561236872241317871",
                        "iconUrl": "https://assets.blocksec.com/icon/f1cb2d02c471d545bbc7722daf3277fd852d98e63d118771af7047bd8256c516.png",
                        "isERC1155": false,
                        "isERC721": false,
                        "sign": false,
                        "value": ""
                    }
                ]
            }
        ]
    },
    "profile": {
        "basic_info": {
            "baseFee": "",
            "blockNumber": 9496881,
            "callData": "0x40e58ee5000000000000000000000000000000000000000000000000000000000000ce78",
            "debugEnable": true,
            "errorInfo": "",
            "eventCount": 3,
            "feeRecipient": "0x5a0b54d5dc17e0aadc383d2db43b0a0d3e029c4c",
            "formatValue": "0",
            "gasLimit": 295228,
            "gasPrice": "3",
            "gasUsed": 73102,
            "intTxnCount": 1,
            "internalRevert": false,
            "internalRevertMessage": "",
            "isContractCreation": false,
            "isFlashloan": false,
            "maxFee": "",
            "nonce": 20976,
            "overwritedBlockNumber": -1,
            "priorityFee": "",
            "receiver": "0x794e6e91555438afc3ccf1c5076a74f42133d08d",
            "revertMessage": "",
            "sender": "0xcb0c7c757c64e1583ba5673de486bde1b8329879",
            "simulationEnable": true,
            "sourceTxnHash": "0x4e58da7f51244ebf1d233135ac482d3d5d6d3a51dc0becb9c8a8a70fbbd8491d",
            "status": true,
            "timestamp": "2020-02-16T22:26:41Z",
            "transactionFee": "0.000219306",
            "txnHash": "0x4e58da7f51244ebf1d233135ac482d3d5d6d3a51dc0becb9c8a8a70fbbd8491d",
            "txnIndex": 12,
            "type": 0,
            "value": "0"
        },
        "fund_flow": [
            {
                "amount": "35.561236872241317871",
                "from": "0x794e6e91555438afc3ccf1c5076a74f42133d08d",
                "id": 1,
                "isERC1155": false,
                "isERC721": false,
                "isReverted": false,
                "order": 1,
                "to": "0xcb0c7c757c64e1583ba5673de486bde1b8329879",
                "token": "0xc02aaa39b223fe8d0a0e5c4f27ead9083c756cc2"
            }
        ],
        "token_infos": [
            {
                "address": "0xc02aaa39b223fe8d0a0e5c4f27ead9083c756cc2",
                "decimals": 18
            },
            {
                "address": "0xeeeeeeeeeeeeeeeeeeeeeeeeeeeeeeeeeeeeeeee",
                "decimals": 18
            }
        ]
    },
    "address_label": {
        "labels": [
            {
                "address": "0x794e6e91555438afc3ccf1c5076a74f42133d08d",
                "label": "OasisDEX"
            },
            {
                "address": "0x0000000000000000000000000000000000000001",
                "label": "Precompiled"
            },
            {
                "address": "0x0000000000000000000000000000000000000002",
                "label": "Precompiled"
            },
            {
                "address": "0x0000000000000000000000000000000000000003",
                "label": "Precompiled"
            },
            {
                "address": "0x0000000000000000000000000000000000000004",
                "label": "Precompiled"
            },
            {
                "address": "0xeeeeeeeeeeeeeeeeeeeeeeeeeeeeeeeeeeeeeeee",
                "label": "Ether"
            },
            {
                "address": "0xc02aaa39b223fe8d0a0e5c4f27ead9083c756cc2",
                "label": "Wrapped Ether (WETH)"
            }
        ]
    },
    "trace": {
        "accountLabels": null,
        "dataMap": {
            "-1": {
                "invocation": {
                    "address": "0xcb0c7c757c64e1583ba5673de486bde1b8329879",
                    "callData": "",
                    "decodedMethod": null,
                    "errorInfo": "",
                    "fromAddress": "",
                    "gasUsed": 0,
                    "id": -1,
                    "methodDecoded": false,
                    "operation": "",
                    "output": "",
                    "revert": false,
                    "revertMessage": "",
                    "selector": "",
                    "status": false,
                    "value": ""
                },
                "nodeType": 0
            },
            "0": {
                "invocation": {
                    "address": "0x794e6e91555438afc3ccf1c5076a74f42133d08d",
                    "callData": "0x000000000000000000000000000000000000000000000000000000000000ce78",
                    "decodedMethod": {
                        "callParams": [
                            {
                                "name": "id",
                                "type": "uint256",
                                "value": "52,856"
                            }
                        ],
                        "constructorArguments": "",
                        "name": "cancel",
                        "returnParams": [
                            {
                                "name": "success",
                                "type": "bool",
                                "value": true
                            }
                        ],
                        "signature": "cancel(uint256)"
                    },
                    "errorInfo": "",
                    "fromAddress": "0xcb0c7c757c64e1583ba5673de486bde1b8329879",
                    "gasUsed": 73102,
                    "id": 0,
                    "methodDecoded": true,
                    "operation": "CALL",
                    "output": "0x0000000000000000000000000000000000000000000000000000000000000001",
                    "revert": false,
                    "revertMessage": "",
                    "selector": "0x40e58ee5",
                    "status": true,
                    "value": "0"
                },
                "nodeType": 0
            },
            "1": {
                "invocation": {
                    "address": "0xc02aaa39b223fe8d0a0e5c4f27ead9083c756cc2",
                    "callData": "0x000000000000000000000000cb0c7c757c64e1583ba5673de486bde1b8329879000000000000000000000000000000000000000000000001ed82e486177787f0",
                    "decodedMethod": {
                        "callParams": [
                            {
                                "name": "dst",
                                "type": "address",
                                "value": "0xcb0c7c757c64e1583ba5673de486bde1b8329879"
                            },
                            {
                                "decimalAvailable": true,
                                "name": "wad",
                                "type": "uint256",
                                "value": "35,561,236,872,241,317,872"
                            }
                        ],
                        "constructorArguments": "",
                        "name": "transfer",
                        "returnParams": [
                            {
                                "name": "",
                                "type": "bool",
                                "value": true
                            }
                        ],
                        "signature": "transfer(address,uint256)"
                    },
                    "errorInfo": "",
                    "fromAddress": "0x794e6e91555438afc3ccf1c5076a74f42133d08d",
                    "gasUsed": 15162,
                    "id": 1,
                    "methodDecoded": true,
                    "operation": "CALL",
                    "output": "0x0000000000000000000000000000000000000000000000000000000000000001",
                    "revert": false,
                    "revertMessage": "",
                    "selector": "0xa9059cbb",
                    "status": true,
                    "value": "0"
                },
                "nodeType": 0
            },
            "2": {
                "event": {
                    "contract": "0xc02aaa39b223fe8d0a0e5c4f27ead9083c756cc2",
                    "decodedLog": {
                        "name": "Transfer",
                        "params": [
                            {
                                "name": "src",
                                "type": "address",
                                "value": "0x794e6e91555438afc3ccf1c5076a74f42133d08d"
                            },
                            {
                                "name": "dst",
                                "type": "address",
                                "value": "0xcb0c7c757c64e1583ba5673de486bde1b8329879"
                            },
                            {
                                "decimalAvailable": true,
                                "name": "wad",
                                "type": "uint256",
                                "value": "35,561,236,872,241,317,872"
                            }
                        ],
                        "signature": "Transfer(address,address,uint256)"
                    },
                    "id": 2,
                    "logData": "0x000000000000000000000000000000000000000000000001ed82e486177787f0",
                    "logDecoded": true,
                    "operation": "EVENT",
                    "revert": false,
                    "status": true,
                    "topics": [
                        "0xddf252ad1be2c89b69c2b068fc378daa952ba7f163c4a11628f55a4df523b3ef",
                        "0x000000000000000000000000794e6e91555438afc3ccf1c5076a74f42133d08d",
                        "0x000000000000000000000000cb0c7c757c64e1583ba5673de486bde1b8329879"
                    ]
                },
                "nodeType": 1
            },
            "3": {
                "event": {
                    "contract": "0x794e6e91555438afc3ccf1c5076a74f42133d08d",
                    "decodedLog": {
                        "name": "LogItemUpdate",
                        "params": [
                            {
                                "name": "id",
                                "type": "uint256",
                                "value": "52,856"
                            }
                        ],
                        "signature": "LogItemUpdate(uint256)"
                    },
                    "id": 3,
                    "logData": "0x000000000000000000000000000000000000000000000000000000000000ce78",
                    "logDecoded": true,
                    "operation": "EVENT",
                    "revert": false,
                    "status": true,
                    "topics": [
                        "0xa2c251311b1a7a475913900a2a73dc9789a21b04bc737e050bbc506dd4eb3488"
                    ]
                },
                "nodeType": 1
            },
            "4": {
                "event": {
                    "contract": "0x794e6e91555438afc3ccf1c5076a74f42133d08d",
                    "decodedLog": {
                        "name": "LogKill",
                        "params": [
                            {
                                "name": "id",
                                "type": "bytes32",
                                "value": "0x000000000000000000000000000000000000000000000000000000000000ce78"
                            },
                            {
                                "name": "pair",
                                "type": "bytes32",
                                "value": "0xcdd6659bca20e2b28ea10ead902280762ac8977c84459a152f90e561d50edf8c"
                            },
                            {
                                "name": "maker",
                                "type": "address",
                                "value": "0xcb0c7c757c64e1583ba5673de486bde1b8329879"
                            },
                            {
                                "name": "pay_gem",
                                "type": "address",
                                "value": "0xc02aaa39b223fe8d0a0e5c4f27ead9083c756cc2"
                            },
                            {
                                "name": "buy_gem",
                                "type": "address",
                                "value": "0x6b175474e89094c44da98b954eedeac495271d0f"
                            },
                            {
                                "name": "pay_amt",
                                "type": "uint128",
                                "value": "35,561,236,872,241,317,872"
                            },
                            {
                                "name": "buy_amt",
                                "type": "uint128",
                                "value": "9,062,198,241,062,410,200,007"
                            },
                            {
                                "name": "timestamp",
                                "type": "uint64",
                                "value": "1,581,892,001"
                            }
                        ],
                        "signature": "LogKill(bytes32,bytes32,address,address,address,uint128,uint128,uint64)"
                    },
                    "id": 4,
                    "logData": "0x000000000000000000000000c02aaa39b223fe8d0a0e5c4f27ead9083c756cc20000000000000000000000006b175474e89094c44da98b954eedeac495271d0f000000000000000000000000000000000000000000000001ed82e486177787f00000000000000000000000000000000000000000000001eb4343a6a986b323c7000000000000000000000000000000000000000000000000000000005e49c1a1",
                    "logDecoded": true,
                    "operation": "EVENT",
                    "revert": false,
                    "status": true,
                    "topics": [
                        "0x9577941d28fff863bfbee4694a6a4a56fb09e169619189d2eaa750b5b4819995",
                        "0x000000000000000000000000000000000000000000000000000000000000ce78",
                        "0xcdd6659bca20e2b28ea10ead902280762ac8977c84459a152f90e561d50edf8c",
                        "0x000000000000000000000000cb0c7c757c64e1583ba5673de486bde1b8329879"
                    ]
                },
                "nodeType": 1
            }
        },
        "gasFlame": [
            {
                "children": [
                    {
                        "children": [
                            {
                                "children": [],
                                "depth": 0,
                                "name": "Initial Gas",
                                "value": 21216
                            },
                            {
                                "children": [
                                    {
                                        "children": [],
                                        "depth": 1,
                                        "name": "transfer",
                                        "value": 15162
                                    }
                                ],
                                "depth": 0,
                                "name": "Executed Gas",
                                "value": 124988
                            }
                        ],
                        "depth": -1,
                        "name": "Actual Gas Used",
                        "value": 73102
                    },
                    {
                        "children": [],
                        "depth": -1,
                        "name": "Refunded Gas",
                        "value": 73102
                    }
                ],
                "depth": -2,
                "name": "Total Gas",
                "value": 146204
            }
        ],
        "isConfirmed": true,
        "mainTrace": [
            {
                "children": [
                    {
                        "children": [
                            {
                                "children": [
                                    {
                                        "children": [],
                                        "depth": 2,
                                        "id": 2,
                                        "order": 2
                                    }
                                ],
                                "depth": 1,
                                "id": 1,
                                "order": 1
                            },
                            {
                                "children": [],
                                "depth": 1,
                                "id": 3,
                                "order": 3
                            },
                            {
                                "children": [],
                                "depth": 1,
                                "id": 4,
                                "order": 4
                            }
                        ],
                        "depth": 0,
                        "id": 0,
                        "order": 0
                    }
                ],
                "depth": -1,
                "id": -1,
                "order": -1
            }
        ],
        "mainTraceNodeCount": 5,
        "parentIdMap": {
            "0": -1,
            "1": 0,
            "2": 1,
            "3": 0,
            "4": 0
        },
        "tidyTrace": [
            {
                "children": [
                    {
                        "children": [
                            {
                                "children": [
                                    {
                                        "children": [],
                                        "depth": 2,
                                        "id": 2,
                                        "order": 2
                                    }
                                ],
                                "depth": 1,
                                "id": 1,
                                "order": 1
                            },
                            {
                                "children": [],
                                "depth": 1,
                                "id": 3,
                                "order": 3
                            },
                            {
                                "children": [],
                                "depth": 1,
                                "id": 4,
                                "order": 4
                            }
                        ],
                        "depth": 0,
                        "id": 0,
                        "order": 0
                    }
                ],
                "depth": -1,
                "id": -1,
                "order": -1
            }
        ],
        "tidyTraceNodeCount": 5
    },
    "state_change": {
        "stateChanges": [
            {
                "address": "0x794e6e91555438afc3ccf1c5076a74f42133d08d",
                "erc": "",
                "slots": [
                    {
                        "current": "0x0000000000000000000000000000000000000000000000000000000000000000",
                        "key": "0x9358786777d023fbc2bfc893a4238073c35a470cf69e3451d0cb8b55afda0a2f",
                        "prev": "0x0000000000000000000000006b175474e89094c44da98b954eedeac495271d0f"
                    },
                    {
                        "current": "0x000000000000000000000000000000000000000000000000000000000000cdeb",
                        "key": "0x7c2e387039e020b6f4e1f5dc95932e8a6b9c278494113b92b141888af39fa47f",
                        "prev": "0x000000000000000000000000000000000000000000000000000000000000ce78"
                    },
                    {
                        "current": "0x000000000000000000000000000000000000000000000000000000000090e931",
                        "key": "0x1482e63abdf2ed32ffcb6652e9a7bd56ae8662b7c0a41fba05d7ef76acbd80d8",
                        "prev": "0x0000000000000000000000000000000000000000000000000000000000000000"
                    },
                    {
                        "current": "0x0000000000000000000000000000000000000000000000000000000000000000",
                        "key": "0x9358786777d023fbc2bfc893a4238073c35a470cf69e3451d0cb8b55afda0a2d",
                        "prev": "0x000000000000000000000000c02aaa39b223fe8d0a0e5c4f27ead9083c756cc2"
                    },
                    {
                        "current": "0x000000000000000000000000000000000000000000000000000000000000ce8c",
                        "key": "0xb905f0dadbef05712c05691b77869e9aa289f4c8dc11b1590921c882c22c5f97",
                        "prev": "0x000000000000000000000000000000000000000000000000000000000000ce78"
                    },
                    {
                        "current": "0x0000000000000000000000000000000000000000000000000000000000000053",
                        "key": "0xef20a5e9f1b7498a41ef864d280d166c7cb952cba03e2f75be88231463900750",
                        "prev": "0x0000000000000000000000000000000000000000000000000000000000000054"
                    },
                    {
                        "current": "0x0000000000000000000000000000000000000000000000000000000000000000",
                        "key": "0x9358786777d023fbc2bfc893a4238073c35a470cf69e3451d0cb8b55afda0a2e",
                        "prev": "0x0000000000000000000000000000000000000000000001eb4343a6a986b323c7"
                    },
                    {
                        "current": "0x0000000000000000000000000000000000000000000000000000000000000000",
                        "key": "0x9358786777d023fbc2bfc893a4238073c35a470cf69e3451d0cb8b55afda0a2c",
                        "prev": "0x000000000000000000000000000000000000000000000001ed82e486177787f0"
                    },
                    {
                        "current": "0x0000000000000000000000000000000000000000000000000000000000000000",
                        "key": "0x9358786777d023fbc2bfc893a4238073c35a470cf69e3451d0cb8b55afda0a30",
                        "prev": "0x00000000000000005e49bff5cb0c7c757c64e1583ba5673de486bde1b8329879"
                    }
                ],
                "storageVariables": [
                    {
                        "name": "_rank",
                        "type": "mapping(uint256 => struct MatchingMarket.sortInfo)",
                        "value": {
                            "pairs": [
                                {
                                    "key": "52715",
                                    "value": {
                                        "fields": [
                                            {
                                                "name": "prev",
                                                "type": "uint256",
                                                "value": {
                                                    "current": "52876",
                                                    "prev": "52856",
                                                    "typeTag": 1
                                                }
                                            }
                                        ],
                                        "typeTag": 3
                                    }
                                },
                                {
                                    "key": "52856",
                                    "value": {
                                        "fields": [
                                            {
                                                "name": "delb",
                                                "type": "uint256",
                                                "value": {
                                                    "current": "9496881",
                                                    "prev": "0",
                                                    "typeTag": 1
                                                }
                                            }
                                        ],
                                        "typeTag": 3
                                    }
                                },
                                {
                                    "key": "52876",
                                    "value": {
                                        "fields": [
                                            {
                                                "name": "next",
                                                "type": "uint256",
                                                "value": {
                                                    "current": "52715",
                                                    "prev": "52856",
                                                    "typeTag": 1
                                                }
                                            }
                                        ],
                                        "typeTag": 3
                                    }
                                }
                            ],
                            "typeTag": 4
                        }
                    },
                    {
                        "name": "offers",
                        "type": "mapping(uint256 => struct SimpleMarket.OfferInfo)",
                        "value": {
                            "pairs": [
                                {
                                    "key": "52856",
                                    "value": {
                                        "fields": [
                                            {
                                                "name": "pay_amt",
                                                "type": "uint256",
                                                "value": {
                                                    "current": "0",
                                                    "prev": "35561236872241317872",
                                                    "typeTag": 1
                                                }
                                            },
                                            {
                                                "name": "pay_gem",
                                                "type": "contract ERC20",
                                                "value": {
                                                    "current": "0x0000000000000000000000000000000000000000",
                                                    "prev": "0xc02aaa39b223fe8d0a0e5c4f27ead9083c756cc2",
                                                    "typeTag": 1
                                                }
                                            },
                                            {
                                                "name": "buy_amt",
                                                "type": "uint256",
                                                "value": {
                                                    "current": "0",
                                                    "prev": "9062198241062410200007",
                                                    "typeTag": 1
                                                }
                                            },
                                            {
                                                "name": "buy_gem",
                                                "type": "contract ERC20",
                                                "value": {
                                                    "current": "0x0000000000000000000000000000000000000000",
                                                    "prev": "0x6b175474e89094c44da98b954eedeac495271d0f",
                                                    "typeTag": 1
                                                }
                                            },
                                            {
                                                "name": "owner",
                                                "type": "address",
                                                "value": {
                                                    "current": "0x0000000000000000000000000000000000000000",
                                                    "prev": "0xcb0c7c757c64e1583ba5673de486bde1b8329879",
                                                    "typeTag": 1
                                                }
                                            },
                                            {
                                                "name": "timestamp",
                                                "type": "uint64",
                                                "value": {
                                                    "current": "0",
                                                    "prev": "1581891573",
                                                    "typeTag": 1
                                                }
                                            }
                                        ],
                                        "typeTag": 3
                                    }
                                }
                            ],
                            "typeTag": 4
                        }
                    },
                    {
                        "name": "_span",
                        "type": "mapping(address => mapping(address => uint256))",
                        "value": {
                            "pairs": [
                                {
                                    "key": "0xc02aaa39b223fe8d0a0e5c4f27ead9083c756cc2",
                                    "value": {
                                        "pairs": [
                                            {
                                                "key": "0x6b175474e89094c44da98b954eedeac495271d0f",
                                                "value": {
                                                    "current": "83",
                                                    "prev": "84",
                                                    "typeTag": 1
                                                }
                                            }
                                        ],
                                        "typeTag": 4
                                    }
                                }
                            ],
                            "typeTag": 4
                        }
                    }
                ]
            },
            {
                "address": "0xc02aaa39b223fe8d0a0e5c4f27ead9083c756cc2",
                "erc": "ERC-20",
                "slots": [
                    {
                        "current": "0x0000000000000000000000000000000000000000000001a396471566e71e7655",
                        "key": "0xb96fd08b1af1b29c4c6755188f7c28ca343ef2f4e955f03c737f9bbabb131495",
                        "prev": "0x0000000000000000000000000000000000000000000001a583c9f9ecfe95fe45"
                    },
                    {
                        "current": "0x000000000000000000000000000000000000000000000012c47ff0fe07cbfea8",
                        "key": "0x2fc754d35de0a9c239c3f2dc6246b830e5d4d781b8d04e3b770245c17895684a",
                        "prev": "0x000000000000000000000000000000000000000000000010d6fd0c77f05476b8"
                    }
                ],
                "storageVariables": [
                    {
                        "name": "balanceOf",
                        "type": "mapping(address => uint256)",
                        "value": {
                            "pairs": [
                                {
                                    "key": "0x794e6e91555438afc3ccf1c5076a74f42133d08d",
                                    "value": {
                                        "current": "7740014414245046154837",
                                        "prev": "7775575651117287472709",
                                        "typeTag": 1
                                    }
                                },
                                {
                                    "key": "0xcb0c7c757c64e1583ba5673de486bde1b8329879",
                                    "value": {
                                        "current": "346200694054091226792",
                                        "prev": "310639457181849908920",
                                        "typeTag": 1
                                    }
                                }
                            ],
                            "typeTag": 4
                        }
                    }
                ]
            }
        ]
    }
}