{
    "balance_change": {
        "balanceChanges": [
            {
                "account": "0x33212abc96793c5f0d9d99d6d49da72dc8ebc8e9",
                "assets": [
                    {
                        "address": "0xeeeeeeeeeeeeeeeeeeeeeeeeeeeeeeeeeeeeeeee",
                        "amount": "6.5",
                        "iconUrl": "https://assets.blocksec.com/image/1663669189317-3.png",
                        "isERC1155": false,
                        "isERC721": false,
                        "sign": true,
                        "value": ""
                    },
                    {
                        "address": "0xa821f14fb6394e82839f5161f214cacc90372453",
                        "amount": "65",
                        "iconUrl": "",
                        "isERC1155": false,
                        "isERC721": false,
                        "sign": false,
                        "value": ""
                    }
                ]
            },
            {
                "account": "0x34848f3c3934733d3ebc6f82489346592566c777",
                "assets": [
                    {
                        "address": "0xeeeeeeeeeeeeeeeeeeeeeeeeeeeeeeeeeeeeeeee",
                        "amount": "6.5",
                        "iconUrl": "https://assets.blocksec.com/image/1663669189317-3.png",
                        "isERC1155": false,
                        "isERC721": false,
                        "sign": false,
                        "value": ""
                    },
                    {
                        "address": "0xa821f14fb6394e82839f5161f214cacc90372453",
                        "amount": "65",
                        "iconUrl": "",
                        "isERC1155": false,
                        "isERC721": false,
                        "sign": true,
                        "value": ""
                    }
                ]
            }
        ]
    },
    "profile": {
        "basic_info": {
            "baseFee": "",
            "blockNumber": 9756227,
            "callData": "0x715d0e33000000000000000000000000000000000000000000000000000000000000004700000000000000000000000033212abc96793c5f0d9d99d6d49da72dc8ebc8e9",
            "debugEnable": true,
            "errorInfo": "",
            "eventCount": 1,
            "feeRecipient": "0x5a0b54d5dc17e0aadc383d2db43b0a0d3e029c4c",
            "formatValue": "0",
            "gasLimit": 84072,
            "gasPrice": "4.000001235",
            "gasUsed": 74072,
            "intTxnCount": 2,
            "internalRevert": false,
            "internalRevertMessage": "",
            "isContractCreation": false,
            "isFlashloan": false,
            "maxFee": "",
            "nonce": 437,
            "overwritedBlockNumber": -1,
            "priorityFee": "",
            "receiver": "0x34848f3c3934733d3ebc6f82489346592566c777",
            "revertMessage": "",
            "sender": "0x33212abc96793c5f0d9d99d6d49da72dc8ebc8e9",
            "simulationEnable": true,
            "sourceTxnHash": "0x4e22adbf77c576d23988e29453097099feee45b0c8f4715329cbdcdf96ec1bb6",
            "status": true,
            "timestamp": "2020-03-27T22:37:10Z",
            "transactionFee": "0.00029628809147892",
            "txnHash": "0x4e22adbf77c576d23988e29453097099feee45b0c8f4715329cbdcdf96ec1bb6",
            "txnIndex": 11,
            "type": 0,
            "value": "0"
        },
        "fund_flow": [
            {
                "amount": "6.5",
                "from": "0x34848f3c3934733d3ebc6f82489346592566c777",
                "id": 1,
                "isERC1155": false,
                "isERC721": false,
                "isReverted": false,
                "order": 1,
                "to": "0x33212abc96793c5f0d9d99d6d49da72dc8ebc8e9",
                "token": "0xeeeeeeeeeeeeeeeeeeeeeeeeeeeeeeeeeeeeeeee"
            },
            {
                "amount": "65",
                "from": "0x33212abc96793c5f0d9d99d6d49da72dc8ebc8e9",
                "id": 2,
                "isERC1155": false,
                "isERC721": false,
                "isReverted": false,
                "order": 2,
                "to": "0x34848f3c3934733d3ebc6f82489346592566c777",
                "token": "0xa821f14fb6394e82839f5161f214cacc90372453"
            }
        ],
        "token_infos": [
            {
                "address": "0xeeeeeeeeeeeeeeeeeeeeeeeeeeeeeeeeeeeeeeee",
                "decimals": 18
            },
            {
                "address": "0xa821f14fb6394e82839f5161f214cacc90372453",
                "decimals": 18
            },
            {
                "address": "0xc02aaa39b223fe8d0a0e5c4f27ead9083c756cc2",
                "decimals": 18
            }
        ]
    },
    "address_label": {
        "labels": [
            {
                "address": "0xeeeeeeeeeeeeeeeeeeeeeeeeeeeeeeeeeeeeeeee",
                "label": "Ether"
            },
            {
                "address": "0xa821f14fb6394e82839f5161f214cacc90372453",
                "label": "Esch$Token (ESCH$)"
            },
            {
                "address": "0x0000000000000000000000000000000000000001",
                "label": "Precompiled"
            },
            {
                "address": "0x0000000000000000000000000000000000000002",
                "label": "Precompiled"
            },
            {
                "address": "0x0000000000000000000000000000000000000003",
                "label": "Precompiled"
            },
            {
                "address": "0x0000000000000000000000000000000000000004",
                "label": "Precompiled"
            }
        ]
    },
    "trace": {
        "accountLabels": null,
        "dataMap": {
            "-1": {
                "invocation": {
                    "address": "0x33212abc96793c5f0d9d99d6d49da72dc8ebc8e9",
                    "callData": "",
                    "decodedMethod": null,
                    "errorInfo": "",
                    "fromAddress": "",
                    "gasUsed": 0,
                    "id": -1,
                    "methodDecoded": false,
                    "operation": "",
                    "output": "",
                    "revert": false,
                    "revertMessage": "",
                    "selector": "",
                    "status": false,
                    "value": ""
                },
                "nodeType": 0
            },
            "0": {
                "invocation": {
                    "address": "0x34848f3c3934733d3ebc6f82489346592566c777",
                    "callData": "0x000000000000000000000000000000000000000000000000000000000000004700000000000000000000000033212abc96793c5f0d9d99d6d49da72dc8ebc8e9",
                    "decodedMethod": null,
                    "errorInfo": "",
                    "fromAddress": "0x33212abc96793c5f0d9d99d6d49da72dc8ebc8e9",
                    "gasUsed": 74072,
                    "id": 0,
                    "methodDecoded": false,
                    "operation": "CALL",
                    "output": "0x0000000000000000000000000000000000000000000000000000000000000001",
                    "revert": false,
                    "revertMessage": "",
                    "selector": "0x715d0e33",
                    "status": true,
                    "value": "0"
                },
                "nodeType": 0
            },
            "1": {
                "invocation": {
                    "address": "0x33212abc96793c5f0d9d99d6d49da72dc8ebc8e9",
                    "callData": "0x",
                    "decodedMethod": null,
                    "errorInfo": "",
                    "fromAddress": "0x34848f3c3934733d3ebc6f82489346592566c777",
                    "gasUsed": 0,
                    "id": 1,
                    "methodDecoded": false,
                    "operation": "CALL",
                    "output": "",
                    "revert": false,
                    "revertMessage": "",
                    "selector": "fallback",
                    "status": true,
                    "value": "6.5"
                },
                "nodeType": 0
            },
            "2": {
                "invocation": {
                    "address": "0xa821f14fb6394e82839f5161f214cacc90372453",
                    "callData": "0x00000000000000000000000033212abc96793c5f0d9d99d6d49da72dc8ebc8e900000000000000000000000034848f3c3934733d3ebc6f82489346592566c777000000000000000000000000000000000000000000000003860e639d80640000",
                    "decodedMethod": {
                        "callParams": [
                            {
                                "name": "_from",
                                "type": "address",
                                "value": "0x33212abc96793c5f0d9d99d6d49da72dc8ebc8e9"
                            },
                            {
                                "name": "_to",
                                "type": "address",
                                "value": "0x34848f3c3934733d3ebc6f82489346592566c777"
                            },
                            {
                                "name": "_value",
                                "type": "uint256",
                                "value": "65,000,000,000,000,000,000"
                            }
                        ],
                        "constructorArguments": "",
                        "name": "tr1",
                        "returnParams": [],
                        "signature": "tr1(address,address,uint256)"
                    },
                    "errorInfo": "",
                    "fromAddress": "0x34848f3c3934733d3ebc6f82489346592566c777",
                    "gasUsed": 21459,
                    "id": 2,
                    "methodDecoded": true,
                    "operation": "CALL",
                    "output": "",
                    "revert": false,
                    "revertMessage": "",
                    "selector": "0x7350ac76",
                    "status": true,
                    "value": "0"
                },
                "nodeType": 0
            },
            "3": {
                "event": {
                    "contract": "0xa821f14fb6394e82839f5161f214cacc90372453",
                    "decodedLog": {
                        "name": "Transfer",
                        "params": [
                            {
                                "name": "from",
                                "type": "address",
                                "value": "0x33212abc96793c5f0d9d99d6d49da72dc8ebc8e9"
                            },
                            {
                                "name": "to",
                                "type": "address",
                                "value": "0x34848f3c3934733d3ebc6f82489346592566c777"
                            },
                            {
                                "decimalAvailable": true,
                                "name": "value",
                                "type": "uint256",
                                "value": "65,000,000,000,000,000,000"
                            }
                        ],
                        "signature": "Transfer(address,address,uint256)"
                    },
                    "id": 3,
                    "logData": "0x000000000000000000000000000000000000000000000003860e639d80640000",
                    "logDecoded": true,
                    "operation": "EVENT",
                    "revert": false,
                    "status": true,
                    "topics": [
                        "0xddf252ad1be2c89b69c2b068fc378daa952ba7f163c4a11628f55a4df523b3ef",
                        "0x00000000000000000000000033212abc96793c5f0d9d99d6d49da72dc8ebc8e9",
                        "0x00000000000000000000000034848f3c3934733d3ebc6f82489346592566c777"
                    ]
                },
                "nodeType": 1
            }
        },
        "gasFlame": [
            {
                "children": [
                    {
                        "children": [
                            {
                                "children": [],
                                "depth": 0,
                                "name": "Initial Gas",
                                "value": 21572
                            },
                            {
                                "children": [
                                    {
                                        "children": [],
                                        "depth": 1,
                                        "name": "fallback",
                                        "value": 0
                                    },
                                    {
                                        "children": [],
                                        "depth": 1,
                                        "name": "tr1",
                                        "value": 21459
                                    }
                                ],
                                "depth": 0,
                                "name": "Executed Gas",
                                "value": 52500
                            }
                        ],
                        "depth": -1,
                        "name": "Actual Gas Used",
                        "value": 74072
                    },
                    {
                        "children": [],
                        "depth": -1,
                        "name": "Refunded Gas",
                        "value": 0
                    }
                ],
                "depth": -2,
                "name": "Total Gas",
                "value": 74072
            }
        ],
        "isConfirmed": true,
        "mainTrace": [
            {
                "children": [
                    {
                        "children": [
                            {
                                "children": [],
                                "depth": 1,
                                "id": 1,
                                "order": 1
                            },
                            {
                                "children": [
                                    {
                                        "children": [],
                                        "depth": 2,
                                        "id": 3,
                                        "order": 3
                                    }
                                ],
                                "depth": 1,
                                "id": 2,
                                "order": 2
                            }
                        ],
                        "depth": 0,
                        "id": 0,
                        "order": 0
                    }
                ],
                "depth": -1,
                "id": -1,
                "order": -1
            }
        ],
        "mainTraceNodeCount": 4,
        "parentIdMap": {
            "0": -1,
            "1": 0,
            "2": 0,
            "3": 2
        },
        "tidyTrace": [
            {
                "children": [
                    {
                        "children": [
                            {
                                "children": [],
                                "depth": 1,
                                "id": 1,
                                "order": 1
                            },
                            {
                                "children": [
                                    {
                                        "children": [],
                                        "depth": 2,
                                        "id": 3,
                                        "order": 3
                                    }
                                ],
                                "depth": 1,
                                "id": 2,
                                "order": 2
                            }
                        ],
                        "depth": 0,
                        "id": 0,
                        "order": 0
                    }
                ],
                "depth": -1,
                "id": -1,
                "order": -1
            }
        ],
        "tidyTraceNodeCount": 4
    },
    "state_change": {
        "stateChanges": [
            {
                "address": "0x34848f3c3934733d3ebc6f82489346592566c777",
                "erc": "",
                "slots": [
                    {
                        "current": "0x0000000000000000000000000000000000000000000000000000000000000003",
                        "key": "0x7c326fdb90fb5232a32c5728dca286515f582f95a063f0f07674c6db3c6d341c",
                        "prev": "0x0000000000000000000000000000000000000000000000000000000000000002"
                    }
                ],
                "storageVariables": []
            },
            {
                "address": "0xa821f14fb6394e82839f5161f214cacc90372453",
                "erc": "",
                "slots": [
                    {
                        "current": "0x00000000000000000000000000000000000000000007566da5fab15ca7e30000",
                        "key": "0x2009bc00fbb7c4a55a86d12bfdd62586dec995075569c57dd4a8a27fa7b6fa65",
                        "prev": "0x00000000000000000000000000000000000000000007566a1fec4dbf277f0000"
                    },
                    {
                        "current": "0x000000000000000000000000000000000000000000000035f5f332250fd40000",
                        "key": "0xc6eafd6dadea1a46d1ec41ce00a60fee9390b9ae38ec243e75e9930008c6e475",
                        "prev": "0x0000000000000000000000000000000000000000000000397c0195c290380000"
                    }
                ],
                "storageVariables": [
                    {
                        "name": "balanceOf",
                        "type": "mapping(address => uint256)",
                        "value": {
                            "pairs": [
                                {
                                    "key": "0x33212abc96793c5f0d9d99d6d49da72dc8ebc8e9",
                                    "value": {
                                        "current": "995400000000000000000",
                                        "prev": "1060400000000000000000",
                                        "typeTag": 1
                                    }
                                },
                                {
                                    "key": "0x34848f3c3934733d3ebc6f82489346592566c777",
                                    "value": {
                                        "current": "8870626910000000000000000",
                                        "prev": "8870561910000000000000000",
                                        "typeTag": 1
                                    }
                                }
                            ],
                            "typeTag": 4
                        }
                    }
                ]
            }
        ]
    }
}