{
    "balance_change": {
        "balanceChanges": [
            {
                "account": "0xbad858a0cf09f210fcf35cbf83569178879b47f2",
                "assets": [
                    {
                        "address": "0xeeeeeeeeeeeeeeeeeeeeeeeeeeeeeeeeeeeeeeee",
                        "amount": "4.08",
                        "iconUrl": "https://assets.blocksec.com/image/1663669189317-3.png",
                        "isERC1155": false,
                        "isERC721": false,
                        "sign": false,
                        "value": ""
                    },
                    {
                        "address": "0x8fe19c447821b4cdcdd5012bca1b5469ca96d80d",
                        "amount": "4.08",
                        "iconUrl": "",
                        "isERC1155": false,
                        "isERC721": false,
                        "sign": true,
                        "value": ""
                    }
                ]
            },
            {
                "account": "0x00fece89bb7c0f544adb5e57d9d892587f0c7204",
                "assets": [
                    {
                        "address": "0xeeeeeeeeeeeeeeeeeeeeeeeeeeeeeeeeeeeeeeee",
                        "amount": "4.08",
                        "iconUrl": "https://assets.blocksec.com/image/1663669189317-3.png",
                        "isERC1155": false,
                        "isERC721": false,
                        "sign": true,
                        "value": ""
                    }
                ]
            },
            {
                "account": "0x8fe19c447821b4cdcdd5012bca1b5469ca96d80d",
                "assets": [
                    {
                        "address": "0x8fe19c447821b4cdcdd5012bca1b5469ca96d80d",
                        "amount": "4.08",
                        "iconUrl": "",
                        "isERC1155": false,
                        "isERC721": false,
                        "sign": false,
                        "value": ""
                    }
                ]
            }
        ]
    },
    "profile": {
        "basic_info": {
            "baseFee": "",
            "blockNumber": 6105381,
            "callData": "0xa15d575b00000000000000000000000000000000000000000000000000000000000021fc",
            "debugEnable": true,
            "errorInfo": "",
            "eventCount": 2,
            "feeRecipient": "0xd4383232c8d1dbe0e03bdfab849871fa17e61807",
            "formatValue": "4.08",
            "gasLimit": 400000,
            "gasPrice": "702.2",
            "gasUsed": 293721,
            "intTxnCount": 19,
            "internalRevert": false,
            "internalRevertMessage": "",
            "isContractCreation": false,
            "isFlashloan": false,
            "maxFee": "",
            "nonce": 3802,
            "overwritedBlockNumber": -1,
            "priorityFee": "",
            "receiver": "0x00fece89bb7c0f544adb5e57d9d892587f0c7204",
            "revertMessage": "",
            "sender": "0xbad858a0cf09f210fcf35cbf83569178879b47f2",
            "simulationEnable": true,
            "sourceTxnHash": "0x4eac827cdb6a5b2014a7543633f36aefe49ad6309ac142e427019e9c875c9b35",
            "status": true,
            "timestamp": "2018-08-07T16:00:18Z",
            "transactionFee": "0.2062508862",
            "txnHash": "0x4eac827cdb6a5b2014a7543633f36aefe49ad6309ac142e427019e9c875c9b35",
            "txnIndex": 0,
            "type": 0,
            "value": "4080000000000000000"
        },
        "fund_flow": [
            {
                "amount": "4.08",
                "from": "0xbad858a0cf09f210fcf35cbf83569178879b47f2",
                "id": 1,
                "isERC1155": false,
                "isERC721": false,
                "isReverted": false,
                "order": 1,
                "to": "0x00fece89bb7c0f544adb5e57d9d892587f0c7204",
                "token": "0xeeeeeeeeeeeeeeeeeeeeeeeeeeeeeeeeeeeeeeee"
            },
            {
                "amount": "4.08",
                "from": "0x8fe19c447821b4cdcdd5012bca1b5469ca96d80d",
                "id": 2,
                "isERC1155": false,
                "isERC721": false,
                "isReverted": false,
                "order": 2,
                "to": "0xbad858a0cf09f210fcf35cbf83569178879b47f2",
                "token": "0x8fe19c447821b4cdcdd5012bca1b5469ca96d80d"
            }
        ],
        "token_infos": [
            {
                "address": "0x8fe19c447821b4cdcdd5012bca1b5469ca96d80d",
                "decimals": 18
            },
            {
                "address": "0xc02aaa39b223fe8d0a0e5c4f27ead9083c756cc2",
                "decimals": 18
            },
            {
                "address": "0xeeeeeeeeeeeeeeeeeeeeeeeeeeeeeeeeeeeeeeee",
                "decimals": 18
            }
        ]
    },
    "address_label": {
        "labels": [
            {
                "address": "0x0000000000000000000000000000000000000004",
                "label": "Precompiled"
            },
            {
                "address": "0xeeeeeeeeeeeeeeeeeeeeeeeeeeeeeeeeeeeeeeee",
                "label": "Ether"
            },
            {
                "address": "0x8fe19c447821b4cdcdd5012bca1b5469ca96d80d",
                "label": "ETH.TOWN Token (ETIT)"
            },
            {
                "address": "0x4fece400c0d3db0937162ab44bab34445626ecfe",
                "label": "ETH.TOWN: Hero"
            },
            {
                "address": "0x0000000000000000000000000000000000000001",
                "label": "Precompiled"
            },
            {
                "address": "0x0000000000000000000000000000000000000002",
                "label": "Precompiled"
            },
            {
                "address": "0x0000000000000000000000000000000000000003",
                "label": "Precompiled"
            }
        ]
    },
    "trace": {
        "accountLabels": null,
        "dataMap": {
            "-1": {
                "invocation": {
                    "address": "0xbad858a0cf09f210fcf35cbf83569178879b47f2",
                    "callData": "",
                    "decodedMethod": null,
                    "errorInfo": "",
                    "fromAddress": "",
                    "gasUsed": 0,
                    "id": -1,
                    "methodDecoded": false,
                    "operation": "",
                    "output": "",
                    "revert": false,
                    "revertMessage": "",
                    "selector": "",
                    "status": false,
                    "value": ""
                },
                "nodeType": 0
            },
            "0": {
                "invocation": {
                    "address": "0x00fece89bb7c0f544adb5e57d9d892587f0c7204",
                    "callData": "0x00000000000000000000000000000000000000000000000000000000000021fc",
                    "decodedMethod": null,
                    "errorInfo": "",
                    "fromAddress": "0xbad858a0cf09f210fcf35cbf83569178879b47f2",
                    "gasUsed": 293721,
                    "id": 0,
                    "methodDecoded": false,
                    "operation": "CALL",
                    "output": "",
                    "revert": false,
                    "revertMessage": "",
                    "selector": "0xa15d575b",
                    "status": true,
                    "value": "4.08"
                },
                "nodeType": 0
            },
            "1": {
                "invocation": {
                    "address": "0x8fe19c447821b4cdcdd5012bca1b5469ca96d80d",
                    "callData": "0x",
                    "decodedMethod": {
                        "callParams": [],
                        "constructorArguments": "",
                        "name": "heroContract",
                        "returnParams": [
                            {
                                "name": "",
                                "type": "address",
                                "value": "0x4fece400c0d3db0937162ab44bab34445626ecfe"
                            }
                        ],
                        "signature": "heroContract()"
                    },
                    "errorInfo": "",
                    "fromAddress": "0x00fece89bb7c0f544adb5e57d9d892587f0c7204",
                    "gasUsed": 570,
                    "id": 1,
                    "methodDecoded": true,
                    "operation": "CALL",
                    "output": "0x0000000000000000000000004fece400c0d3db0937162ab44bab34445626ecfe",
                    "revert": false,
                    "revertMessage": "",
                    "selector": "0x0daf999a",
                    "status": true,
                    "value": "0"
                },
                "nodeType": 0
            },
            "10": {
                "invocation": {
                    "address": "0x7a753d247a80a20443e85944cf063592c0d4c505",
                    "callData": "0x00000000000000000000000000000000000000000000000000000000000021fc000000000000000000000000000000000000000000000000000000005be069120000000000000000000000000000000000000000000000000000000000000001",
                    "decodedMethod": null,
                    "errorInfo": "",
                    "fromAddress": "0x00fece89bb7c0f544adb5e57d9d892587f0c7204",
                    "gasUsed": 11724,
                    "id": 10,
                    "methodDecoded": false,
                    "operation": "CALL",
                    "output": "",
                    "revert": false,
                    "revertMessage": "",
                    "selector": "0xab28cee9",
                    "status": true,
                    "value": "0"
                },
                "nodeType": 0
            },
            "11": {
                "invocation": {
                    "address": "0x8fe19c447821b4cdcdd5012bca1b5469ca96d80d",
                    "callData": "0x0000000000000000000000000000000000000000000000000000000000000001",
                    "decodedMethod": {
                        "callParams": [
                            {
                                "name": "",
                                "type": "uint32",
                                "value": "1"
                            }
                        ],
                        "constructorArguments": "",
                        "name": "floorContracts",
                        "returnParams": [
                            {
                                "name": "",
                                "type": "address",
                                "value": "0x00fece89bb7c0f544adb5e57d9d892587f0c7204"
                            }
                        ],
                        "signature": "floorContracts(uint32)"
                    },
                    "errorInfo": "",
                    "fromAddress": "0x7a753d247a80a20443e85944cf063592c0d4c505",
                    "gasUsed": 934,
                    "id": 11,
                    "methodDecoded": true,
                    "operation": "CALL",
                    "output": "0x00000000000000000000000000fece89bb7c0f544adb5e57d9d892587f0c7204",
                    "revert": false,
                    "revertMessage": "",
                    "selector": "0x4d798717",
                    "status": true,
                    "value": "0"
                },
                "nodeType": 0
            },
            "12": {
                "invocation": {
                    "address": "0x4fece400c0d3db0937162ab44bab34445626ecfe",
                    "callData": "0x00000000000000000000000000000000000000000000000000000000000021fc",
                    "decodedMethod": {
                        "callParams": [
                            {
                                "name": "_tokenId",
                                "type": "uint256",
                                "value": "8,700"
                            }
                        ],
                        "constructorArguments": "",
                        "name": "exists",
                        "returnParams": [
                            {
                                "name": "",
                                "type": "bool",
                                "value": true
                            }
                        ],
                        "signature": "exists(uint256)"
                    },
                    "errorInfo": "",
                    "fromAddress": "0x7a753d247a80a20443e85944cf063592c0d4c505",
                    "gasUsed": 881,
                    "id": 12,
                    "methodDecoded": true,
                    "operation": "CALL",
                    "output": "0x0000000000000000000000000000000000000000000000000000000000000001",
                    "revert": false,
                    "revertMessage": "",
                    "selector": "0x4f558e79",
                    "status": true,
                    "value": "0"
                },
                "nodeType": 0
            },
            "13": {
                "invocation": {
                    "address": "0x8fe19c447821b4cdcdd5012bca1b5469ca96d80d",
                    "callData": "0x",
                    "decodedMethod": {
                        "callParams": [],
                        "constructorArguments": "",
                        "name": "heroContract",
                        "returnParams": [
                            {
                                "name": "",
                                "type": "address",
                                "value": "0x4fece400c0d3db0937162ab44bab34445626ecfe"
                            }
                        ],
                        "signature": "heroContract()"
                    },
                    "errorInfo": "",
                    "fromAddress": "0x00fece89bb7c0f544adb5e57d9d892587f0c7204",
                    "gasUsed": 570,
                    "id": 13,
                    "methodDecoded": true,
                    "operation": "CALL",
                    "output": "0x0000000000000000000000004fece400c0d3db0937162ab44bab34445626ecfe",
                    "revert": false,
                    "revertMessage": "",
                    "selector": "0x0daf999a",
                    "status": true,
                    "value": "0"
                },
                "nodeType": 0
            },
            "14": {
                "invocation": {
                    "address": "0x4fece400c0d3db0937162ab44bab34445626ecfe",
                    "callData": "0x",
                    "decodedMethod": {
                        "callParams": [],
                        "constructorArguments": "",
                        "name": "logicContract",
                        "returnParams": [
                            {
                                "name": "",
                                "type": "address",
                                "value": "0x7a753d247a80a20443e85944cf063592c0d4c505"
                            }
                        ],
                        "signature": "logicContract()"
                    },
                    "errorInfo": "",
                    "fromAddress": "0x00fece89bb7c0f544adb5e57d9d892587f0c7204",
                    "gasUsed": 1249,
                    "id": 14,
                    "methodDecoded": true,
                    "operation": "CALL",
                    "output": "0x0000000000000000000000007a753d247a80a20443e85944cf063592c0d4c505",
                    "revert": false,
                    "revertMessage": "",
                    "selector": "0xcc0e97c9",
                    "status": true,
                    "value": "0"
                },
                "nodeType": 0
            },
            "15": {
                "invocation": {
                    "address": "0x7a753d247a80a20443e85944cf063592c0d4c505",
                    "callData": "0x000000000000000000000000bad858a0cf09f210fcf35cbf83569178879b47f200000000000000000000000000000000000000000000000000000000000021fc",
                    "decodedMethod": null,
                    "errorInfo": "",
                    "fromAddress": "0x00fece89bb7c0f544adb5e57d9d892587f0c7204",
                    "gasUsed": 11303,
                    "id": 15,
                    "methodDecoded": false,
                    "operation": "CALL",
                    "output": "0x00000000000000000000000000000000000000000000000000000000000002dc",
                    "revert": false,
                    "revertMessage": "",
                    "selector": "0x5d5c09c1",
                    "status": true,
                    "value": "0"
                },
                "nodeType": 0
            },
            "16": {
                "invocation": {
                    "address": "0x4fece400c0d3db0937162ab44bab34445626ecfe",
                    "callData": "0x00000000000000000000000000000000000000000000000000000000000021fc",
                    "decodedMethod": {
                        "callParams": [
                            {
                                "name": "_tokenId",
                                "type": "uint256",
                                "value": "8,700"
                            }
                        ],
                        "constructorArguments": "",
                        "name": "exists",
                        "returnParams": [
                            {
                                "name": "",
                                "type": "bool",
                                "value": true
                            }
                        ],
                        "signature": "exists(uint256)"
                    },
                    "errorInfo": "",
                    "fromAddress": "0x7a753d247a80a20443e85944cf063592c0d4c505",
                    "gasUsed": 881,
                    "id": 16,
                    "methodDecoded": true,
                    "operation": "CALL",
                    "output": "0x0000000000000000000000000000000000000000000000000000000000000001",
                    "revert": false,
                    "revertMessage": "",
                    "selector": "0x4f558e79",
                    "status": true,
                    "value": "0"
                },
                "nodeType": 0
            },
            "17": {
                "invocation": {
                    "address": "0x4fece400c0d3db0937162ab44bab34445626ecfe",
                    "callData": "0x00000000000000000000000000000000000000000000000000000000000021fc",
                    "decodedMethod": {
                        "callParams": [
                            {
                                "name": "_tokenId",
                                "type": "uint256",
                                "value": "8,700"
                            }
                        ],
                        "constructorArguments": "",
                        "name": "ownerOf",
                        "returnParams": [
                            {
                                "name": "",
                                "type": "address",
                                "value": "0xbad858a0cf09f210fcf35cbf83569178879b47f2"
                            }
                        ],
                        "signature": "ownerOf(uint256)"
                    },
                    "errorInfo": "",
                    "fromAddress": "0x7a753d247a80a20443e85944cf063592c0d4c505",
                    "gasUsed": 1065,
                    "id": 17,
                    "methodDecoded": true,
                    "operation": "CALL",
                    "output": "0x000000000000000000000000bad858a0cf09f210fcf35cbf83569178879b47f2",
                    "revert": false,
                    "revertMessage": "",
                    "selector": "0x6352211e",
                    "status": true,
                    "value": "0"
                },
                "nodeType": 0
            },
            "18": {
                "invocation": {
                    "address": "0x4fece400c0d3db0937162ab44bab34445626ecfe",
                    "callData": "0x00000000000000000000000000000000000000000000000000000000000021fc",
                    "decodedMethod": {
                        "callParams": [
                            {
                                "name": "",
                                "type": "uint256",
                                "value": "8,700"
                            }
                        ],
                        "constructorArguments": "",
                        "name": "genome",
                        "returnParams": [
                            {
                                "name": "",
                                "type": "uint256",
                                "value": "710,724,739,155,315,645,871,241,902,754,336,191,425,272,862,961,181,917,559"
                            }
                        ],
                        "signature": "genome(uint256)"
                    },
                    "errorInfo": "",
                    "fromAddress": "0x7a753d247a80a20443e85944cf063592c0d4c505",
                    "gasUsed": 1190,
                    "id": 18,
                    "methodDecoded": true,
                    "operation": "CALL",
                    "output": "0x00000000000000001cfc50005c000000000014c486900838b6cf914b00000177",
                    "revert": false,
                    "revertMessage": "",
                    "selector": "0xd8470576",
                    "status": true,
                    "value": "0"
                },
                "nodeType": 0
            },
            "19": {
                "invocation": {
                    "address": "0x8fe19c447821b4cdcdd5012bca1b5469ca96d80d",
                    "callData": "0x000000000000000000000000bad858a0cf09f210fcf35cbf83569178879b47f2000000000000000000000000000000000000000000000000389f12621b9800000000000000000000000000000000000000000000000000000000000000000001",
                    "decodedMethod": {
                        "callParams": [
                            {
                                "name": "_user",
                                "type": "address",
                                "value": "0xbad858a0cf09f210fcf35cbf83569178879b47f2"
                            },
                            {
                                "name": "_tokens",
                                "type": "uint256",
                                "value": "4,080,000,000,000,000,000"
                            },
                            {
                                "name": "_floorIndex",
                                "type": "uint32",
                                "value": "1"
                            }
                        ],
                        "constructorArguments": "",
                        "name": "rewardTokensFloor",
                        "returnParams": [],
                        "signature": "rewardTokensFloor(address,uint256,uint32)"
                    },
                    "errorInfo": "",
                    "fromAddress": "0x00fece89bb7c0f544adb5e57d9d892587f0c7204",
                    "gasUsed": 13808,
                    "id": 19,
                    "methodDecoded": true,
                    "operation": "CALL",
                    "output": "",
                    "revert": false,
                    "revertMessage": "",
                    "selector": "0x3e2e806d",
                    "status": true,
                    "value": "0"
                },
                "nodeType": 0
            },
            "2": {
                "invocation": {
                    "address": "0x4fece400c0d3db0937162ab44bab34445626ecfe",
                    "callData": "0x00000000000000000000000000000000000000000000000000000000000021fc",
                    "decodedMethod": {
                        "callParams": [
                            {
                                "name": "_tokenId",
                                "type": "uint256",
                                "value": "8,700"
                            }
                        ],
                        "constructorArguments": "",
                        "name": "ownerOf",
                        "returnParams": [
                            {
                                "name": "",
                                "type": "address",
                                "value": "0xbad858a0cf09f210fcf35cbf83569178879b47f2"
                            }
                        ],
                        "signature": "ownerOf(uint256)"
                    },
                    "errorInfo": "",
                    "fromAddress": "0x00fece89bb7c0f544adb5e57d9d892587f0c7204",
                    "gasUsed": 1065,
                    "id": 2,
                    "methodDecoded": true,
                    "operation": "CALL",
                    "output": "0x000000000000000000000000bad858a0cf09f210fcf35cbf83569178879b47f2",
                    "revert": false,
                    "revertMessage": "",
                    "selector": "0x6352211e",
                    "status": true,
                    "value": "0"
                },
                "nodeType": 0
            },
            "20": {
                "event": {
                    "contract": "0x8fe19c447821b4cdcdd5012bca1b5469ca96d80d",
                    "decodedLog": {
                        "name": "Transfer",
                        "params": [
                            {
                                "name": "from",
                                "type": "address",
                                "value": "0x8fe19c447821b4cdcdd5012bca1b5469ca96d80d"
                            },
                            {
                                "name": "to",
                                "type": "address",
                                "value": "0xbad858a0cf09f210fcf35cbf83569178879b47f2"
                            },
                            {
                                "decimalAvailable": true,
                                "name": "value",
                                "type": "uint256",
                                "value": "4,080,000,000,000,000,000"
                            }
                        ],
                        "signature": "Transfer(address,address,uint256)"
                    },
                    "id": 20,
                    "logData": "0x000000000000000000000000000000000000000000000000389f12621b980000",
                    "logDecoded": true,
                    "operation": "EVENT",
                    "revert": false,
                    "status": true,
                    "topics": [
                        "0xddf252ad1be2c89b69c2b068fc378daa952ba7f163c4a11628f55a4df523b3ef",
                        "0x0000000000000000000000008fe19c447821b4cdcdd5012bca1b5469ca96d80d",
                        "0x000000000000000000000000bad858a0cf09f210fcf35cbf83569178879b47f2"
                    ]
                },
                "nodeType": 1
            },
            "21": {
                "event": {
                    "contract": "0x00fece89bb7c0f544adb5e57d9d892587f0c7204",
                    "decodedLog": {
                        "name": "Bid",
                        "params": [
                            {
                                "name": "sender",
                                "type": "address",
                                "value": "0xbad858a0cf09f210fcf35cbf83569178879b47f2"
                            },
                            {
                                "name": "amount",
                                "type": "uint256",
                                "value": "4,080,000,000,000,000,000"
                            }
                        ],
                        "signature": "Bid(address,uint256)"
                    },
                    "id": 21,
                    "logData": "0x000000000000000000000000000000000000000000000000389f12621b980000",
                    "logDecoded": true,
                    "operation": "EVENT",
                    "revert": false,
                    "status": true,
                    "topics": [
                        "0xe684a55f31b79eca403df938249029212a5925ec6be8012e099b45bc1019e5d2",
                        "0x000000000000000000000000bad858a0cf09f210fcf35cbf83569178879b47f2"
                    ]
                },
                "nodeType": 1
            },
            "3": {
                "invocation": {
                    "address": "0x8fe19c447821b4cdcdd5012bca1b5469ca96d80d",
                    "callData": "0x",
                    "decodedMethod": {
                        "callParams": [],
                        "constructorArguments": "",
                        "name": "heroContract",
                        "returnParams": [
                            {
                                "name": "",
                                "type": "address",
                                "value": "0x4fece400c0d3db0937162ab44bab34445626ecfe"
                            }
                        ],
                        "signature": "heroContract()"
                    },
                    "errorInfo": "",
                    "fromAddress": "0x00fece89bb7c0f544adb5e57d9d892587f0c7204",
                    "gasUsed": 570,
                    "id": 3,
                    "methodDecoded": true,
                    "operation": "CALL",
                    "output": "0x0000000000000000000000004fece400c0d3db0937162ab44bab34445626ecfe",
                    "revert": false,
                    "revertMessage": "",
                    "selector": "0x0daf999a",
                    "status": true,
                    "value": "0"
                },
                "nodeType": 0
            },
            "4": {
                "invocation": {
                    "address": "0x4fece400c0d3db0937162ab44bab34445626ecfe",
                    "callData": "0x",
                    "decodedMethod": {
                        "callParams": [],
                        "constructorArguments": "",
                        "name": "logicContract",
                        "returnParams": [
                            {
                                "name": "",
                                "type": "address",
                                "value": "0x7a753d247a80a20443e85944cf063592c0d4c505"
                            }
                        ],
                        "signature": "logicContract()"
                    },
                    "errorInfo": "",
                    "fromAddress": "0x00fece89bb7c0f544adb5e57d9d892587f0c7204",
                    "gasUsed": 1249,
                    "id": 4,
                    "methodDecoded": true,
                    "operation": "CALL",
                    "output": "0x0000000000000000000000007a753d247a80a20443e85944cf063592c0d4c505",
                    "revert": false,
                    "revertMessage": "",
                    "selector": "0xcc0e97c9",
                    "status": true,
                    "value": "0"
                },
                "nodeType": 0
            },
            "5": {
                "invocation": {
                    "address": "0x7a753d247a80a20443e85944cf063592c0d4c505",
                    "callData": "0x00000000000000000000000000000000000000000000000000000000000021fc",
                    "decodedMethod": {
                        "callParams": [
                            {
                                "name": "tokenId",
                                "type": "uint256",
                                "value": "8,700"
                            }
                        ],
                        "constructorArguments": "",
                        "name": "isAvailable",
                        "returnParams": [
                            {
                                "name": "",
                                "type": "bool",
                                "value": true
                            }
                        ],
                        "signature": "isAvailable(uint256)"
                    },
                    "errorInfo": "",
                    "fromAddress": "0x00fece89bb7c0f544adb5e57d9d892587f0c7204",
                    "gasUsed": 7015,
                    "id": 5,
                    "methodDecoded": true,
                    "operation": "CALL",
                    "output": "0x0000000000000000000000000000000000000000000000000000000000000001",
                    "revert": false,
                    "revertMessage": "",
                    "selector": "0x3a178d99",
                    "status": true,
                    "value": "0"
                },
                "nodeType": 0
            },
            "6": {
                "invocation": {
                    "address": "0x4fece400c0d3db0937162ab44bab34445626ecfe",
                    "callData": "0x00000000000000000000000000000000000000000000000000000000000021fc",
                    "decodedMethod": {
                        "callParams": [
                            {
                                "name": "_tokenId",
                                "type": "uint256",
                                "value": "8,700"
                            }
                        ],
                        "constructorArguments": "",
                        "name": "exists",
                        "returnParams": [
                            {
                                "name": "",
                                "type": "bool",
                                "value": true
                            }
                        ],
                        "signature": "exists(uint256)"
                    },
                    "errorInfo": "",
                    "fromAddress": "0x7a753d247a80a20443e85944cf063592c0d4c505",
                    "gasUsed": 881,
                    "id": 6,
                    "methodDecoded": true,
                    "operation": "CALL",
                    "output": "0x0000000000000000000000000000000000000000000000000000000000000001",
                    "revert": false,
                    "revertMessage": "",
                    "selector": "0x4f558e79",
                    "status": true,
                    "value": "0"
                },
                "nodeType": 0
            },
            "7": {
                "invocation": {
                    "address": "0x4fece400c0d3db0937162ab44bab34445626ecfe",
                    "callData": "0x00000000000000000000000000000000000000000000000000000000000021fc",
                    "decodedMethod": {
                        "callParams": [
                            {
                                "name": "",
                                "type": "uint256",
                                "value": "8,700"
                            }
                        ],
                        "constructorArguments": "",
                        "name": "genome",
                        "returnParams": [
                            {
                                "name": "",
                                "type": "uint256",
                                "value": "710,724,739,155,315,645,871,241,902,754,336,191,425,272,862,961,181,917,559"
                            }
                        ],
                        "signature": "genome(uint256)"
                    },
                    "errorInfo": "",
                    "fromAddress": "0x7a753d247a80a20443e85944cf063592c0d4c505",
                    "gasUsed": 1190,
                    "id": 7,
                    "methodDecoded": true,
                    "operation": "CALL",
                    "output": "0x00000000000000001cfc50005c000000000014c486900838b6cf914b00000177",
                    "revert": false,
                    "revertMessage": "",
                    "selector": "0xd8470576",
                    "status": true,
                    "value": "0"
                },
                "nodeType": 0
            },
            "8": {
                "invocation": {
                    "address": "0x8fe19c447821b4cdcdd5012bca1b5469ca96d80d",
                    "callData": "0x",
                    "decodedMethod": {
                        "callParams": [],
                        "constructorArguments": "",
                        "name": "heroContract",
                        "returnParams": [
                            {
                                "name": "",
                                "type": "address",
                                "value": "0x4fece400c0d3db0937162ab44bab34445626ecfe"
                            }
                        ],
                        "signature": "heroContract()"
                    },
                    "errorInfo": "",
                    "fromAddress": "0x00fece89bb7c0f544adb5e57d9d892587f0c7204",
                    "gasUsed": 570,
                    "id": 8,
                    "methodDecoded": true,
                    "operation": "CALL",
                    "output": "0x0000000000000000000000004fece400c0d3db0937162ab44bab34445626ecfe",
                    "revert": false,
                    "revertMessage": "",
                    "selector": "0x0daf999a",
                    "status": true,
                    "value": "0"
                },
                "nodeType": 0
            },
            "9": {
                "invocation": {
                    "address": "0x4fece400c0d3db0937162ab44bab34445626ecfe",
                    "callData": "0x",
                    "decodedMethod": {
                        "callParams": [],
                        "constructorArguments": "",
                        "name": "logicContract",
                        "returnParams": [
                            {
                                "name": "",
                                "type": "address",
                                "value": "0x7a753d247a80a20443e85944cf063592c0d4c505"
                            }
                        ],
                        "signature": "logicContract()"
                    },
                    "errorInfo": "",
                    "fromAddress": "0x00fece89bb7c0f544adb5e57d9d892587f0c7204",
                    "gasUsed": 1249,
                    "id": 9,
                    "methodDecoded": true,
                    "operation": "CALL",
                    "output": "0x0000000000000000000000007a753d247a80a20443e85944cf063592c0d4c505",
                    "revert": false,
                    "revertMessage": "",
                    "selector": "0xcc0e97c9",
                    "status": true,
                    "value": "0"
                },
                "nodeType": 0
            }
        },
        "gasFlame": [
            {
                "children": [
                    {
                        "children": [
                            {
                                "children": [],
                                "depth": 0,
                                "name": "Initial Gas",
                                "value": 21528
                            },
                            {
                                "children": [
                                    {
                                        "children": [],
                                        "depth": 1,
                                        "name": "heroContract",
                                        "value": 570
                                    },
                                    {
                                        "children": [],
                                        "depth": 1,
                                        "name": "ownerOf",
                                        "value": 1065
                                    },
                                    {
                                        "children": [],
                                        "depth": 1,
                                        "name": "heroContract",
                                        "value": 570
                                    },
                                    {
                                        "children": [],
                                        "depth": 1,
                                        "name": "logicContract",
                                        "value": 1249
                                    },
                                    {
                                        "children": [
                                            {
                                                "children": [],
                                                "depth": 2,
                                                "name": "exists",
                                                "value": 881
                                            },
                                            {
                                                "children": [],
                                                "depth": 2,
                                                "name": "genome",
                                                "value": 1190
                                            }
                                        ],
                                        "depth": 1,
                                        "name": "isAvailable",
                                        "value": 7015
                                    },
                                    {
                                        "children": [],
                                        "depth": 1,
                                        "name": "heroContract",
                                        "value": 570
                                    },
                                    {
                                        "children": [],
                                        "depth": 1,
                                        "name": "logicContract",
                                        "value": 1249
                                    },
                                    {
                                        "children": [
                                            {
                                                "children": [],
                                                "depth": 2,
                                                "name": "floorContracts",
                                                "value": 934
                                            },
                                            {
                                                "children": [],
                                                "depth": 2,
                                                "name": "exists",
                                                "value": 881
                                            }
                                        ],
                                        "depth": 1,
                                        "name": "0xab28cee9",
                                        "value": 11724
                                    },
                                    {
                                        "children": [],
                                        "depth": 1,
                                        "name": "heroContract",
                                        "value": 570
                                    },
                                    {
                                        "children": [],
                                        "depth": 1,
                                        "name": "logicContract",
                                        "value": 1249
                                    },
                                    {
                                        "children": [
                                            {
                                                "children": [],
                                                "depth": 2,
                                                "name": "exists",
                                                "value": 881
                                            },
                                            {
                                                "children": [],
                                                "depth": 2,
                                                "name": "ownerOf",
                                                "value": 1065
                                            },
                                            {
                                                "children": [],
                                                "depth": 2,
                                                "name": "genome",
                                                "value": 1190
                                            }
                                        ],
                                        "depth": 1,
                                        "name": "0x5d5c09c1",
                                        "value": 11303
                                    },
                                    {
                                        "children": [],
                                        "depth": 1,
                                        "name": "rewardTokensFloor",
                                        "value": 13808
                                    }
                                ],
                                "depth": 0,
                                "name": "Executed Gas",
                                "value": 272193
                            }
                        ],
                        "depth": -1,
                        "name": "Actual Gas Used",
                        "value": 293721
                    },
                    {
                        "children": [],
                        "depth": -1,
                        "name": "Refunded Gas",
                        "value": 0
                    }
                ],
                "depth": -2,
                "name": "Total Gas",
                "value": 293721
            }
        ],
        "isConfirmed": true,
        "mainTrace": [
            {
                "children": [
                    {
                        "children": [
                            {
                                "children": [],
                                "depth": 1,
                                "id": 1,
                                "order": 1
                            },
                            {
                                "children": [],
                                "depth": 1,
                                "id": 2,
                                "order": 2
                            },
                            {
                                "children": [],
                                "depth": 1,
                                "id": 3,
                                "order": 3
                            },
                            {
                                "children": [],
                                "depth": 1,
                                "id": 4,
                                "order": 4
                            },
                            {
                                "children": [
                                    {
                                        "children": [],
                                        "depth": 2,
                                        "id": 6,
                                        "order": 6
                                    },
                                    {
                                        "children": [],
                                        "depth": 2,
                                        "id": 7,
                                        "order": 7
                                    }
                                ],
                                "depth": 1,
                                "id": 5,
                                "order": 5
                            },
                            {
                                "children": [],
                                "depth": 1,
                                "id": 8,
                                "order": 8
                            },
                            {
                                "children": [],
                                "depth": 1,
                                "id": 9,
                                "order": 9
                            },
                            {
                                "children": [
                                    {
                                        "children": [],
                                        "depth": 2,
                                        "id": 11,
                                        "order": 11
                                    },
                                    {
                                        "children": [],
                                        "depth": 2,
                                        "id": 12,
                                        "order": 12
                                    }
                                ],
                                "depth": 1,
                                "id": 10,
                                "order": 10
                            },
                            {
                                "children": [],
                                "depth": 1,
                                "id": 13,
                                "order": 13
                            },
                            {
                                "children": [],
                                "depth": 1,
                                "id": 14,
                                "order": 14
                            },
                            {
                                "children": [
                                    {
                                        "children": [],
                                        "depth": 2,
                                        "id": 16,
                                        "order": 16
                                    },
                                    {
                                        "children": [],
                                        "depth": 2,
                                        "id": 17,
                                        "order": 17
                                    },
                                    {
                                        "children": [],
                                        "depth": 2,
                                        "id": 18,
                                        "order": 18
                                    }
                                ],
                                "depth": 1,
                                "id": 15,
                                "order": 15
                            },
                            {
                                "children": [
                                    {
                                        "children": [],
                                        "depth": 2,
                                        "id": 20,
                                        "order": 20
                                    }
                                ],
                                "depth": 1,
                                "id": 19,
                                "order": 19
                            },
                            {
                                "children": [],
                                "depth": 1,
                                "id": 21,
                                "order": 21
                            }
                        ],
                        "depth": 0,
                        "id": 0,
                        "order": 0
                    }
                ],
                "depth": -1,
                "id": -1,
                "order": -1
            }
        ],
        "mainTraceNodeCount": 22,
        "parentIdMap": {
            "0": -1,
            "1": 0,
            "10": 0,
            "11": 10,
            "12": 10,
            "13": 0,
            "14": 0,
            "15": 0,
            "16": 15,
            "17": 15,
            "18": 15,
            "19": 0,
            "2": 0,
            "20": 19,
            "21": 0,
            "3": 0,
            "4": 0,
            "5": 0,
            "6": 5,
            "7": 5,
            "8": 0,
            "9": 0
        },
        "tidyTrace": [
            {
                "children": [
                    {
                        "children": [
                            {
                                "children": [],
                                "depth": 1,
                                "id": 1,
                                "order": 1
                            },
                            {
                                "children": [],
                                "depth": 1,
                                "id": 2,
                                "order": 2
                            },
                            {
                                "children": [],
                                "depth": 1,
                                "id": 3,
                                "order": 3
                            },
                            {
                                "children": [],
                                "depth": 1,
                                "id": 4,
                                "order": 4
                            },
                            {
                                "children": [
                                    {
                                        "children": [],
                                        "depth": 2,
                                        "id": 6,
                                        "order": 6
                                    },
                                    {
                                        "children": [],
                                        "depth": 2,
                                        "id": 7,
                                        "order": 7
                                    }
                                ],
                                "depth": 1,
                                "id": 5,
                                "order": 5
                            },
                            {
                                "children": [],
                                "depth": 1,
                                "id": 8,
                                "order": 8
                            },
                            {
                                "children": [],
                                "depth": 1,
                                "id": 9,
                                "order": 9
                            },
                            {
                                "children": [
                                    {
                                        "children": [],
                                        "depth": 2,
                                        "id": 11,
                                        "order": 11
                                    },
                                    {
                                        "children": [],
                                        "depth": 2,
                                        "id": 12,
                                        "order": 12
                                    }
                                ],
                                "depth": 1,
                                "id": 10,
                                "order": 10
                            },
                            {
                                "children": [],
                                "depth": 1,
                                "id": 13,
                                "order": 13
                            },
                            {
                                "children": [],
                                "depth": 1,
                                "id": 14,
                                "order": 14
                            },
                            {
                                "children": [
                                    {
                                        "children": [],
                                        "depth": 2,
                                        "id": 16,
                                        "order": 16
                                    },
                                    {
                                        "children": [],
                                        "depth": 2,
                                        "id": 17,
                                        "order": 17
                                    },
                                    {
                                        "children": [],
                                        "depth": 2,
                                        "id": 18,
                                        "order": 18
                                    }
                                ],
                                "depth": 1,
                                "id": 15,
                                "order": 15
                            },
                            {
                                "children": [
                                    {
                                        "children": [],
                                        "depth": 2,
                                        "id": 20,
                                        "order": 20
                                    }
                                ],
                                "depth": 1,
                                "id": 19,
                                "order": 19
                            },
                            {
                                "children": [],
                                "depth": 1,
                                "id": 21,
                                "order": 21
                            }
                        ],
                        "depth": 0,
                        "id": 0,
                        "order": 0
                    }
                ],
                "depth": -1,
                "id": -1,
                "order": -1
            }
        ],
        "tidyTraceNodeCount": 22
    },
    "state_change": {
        "stateChanges": [
            {
                "address": "0x00fece89bb7c0f544adb5e57d9d892587f0c7204",
                "erc": "",
                "slots": [
                    {
                        "current": "0x000000000000000000000000bad858a0cf09f210fcf35cbf83569178879b47f2",
                        "key": "0x0000000000000000000000000000000000000000000000000000000000000018",
                        "prev": "0x0000000000000000000000000000000000000000000000000000000000000000"
                    },
                    {
                        "current": "0x000000000000000000000000000000000000000000000000389f12621b980000",
                        "key": "0x0dea7833caf050978e3fa8c7c44a6f521d05bd5eb226e942763a58a714ed2c92",
                        "prev": "0x0000000000000000000000000000000000000000000000000000000000000000"
                    },
                    {
                        "current": "0x000000000000000000000000000000000000000000000000389f12621b980000",
                        "key": "0x0000000000000000000000000000000000000000000000000000000000000014",
                        "prev": "0x0000000000000000000000000000000000000000000000000000000000000000"
                    },
                    {
                        "current": "0x00000000000000000000000000000000000000000000000000000000000021fc",
                        "key": "0x38f6cde7634e8286b02ba2cedadbae62ffb62ae80fea52d5f6db10696eb5ba80",
                        "prev": "0x0000000000000000000000000000000000000000000000000000000000000000"
                    },
                    {
                        "current": "0x0000000000000000000000000000000000000000000000003cc41c6ed1a20000",
                        "key": "0xa8d973ad71825be4669ecd210b25d449cd5152271c26a9b6481f4259a45fdd4a",
                        "prev": "0x0000000000000000000000000000000000000000000000000000000000000000"
                    },
                    {
                        "current": "0x000000000000000000000000bad858a0cf09f210fcf35cbf83569178879b47f2",
                        "key": "0xd833147d7dc355ba459fc788f669e58cfaf9dc25ddcd0702e87d69c7b5124289",
                        "prev": "0x0000000000000000000000000000000000000000000000000000000000000000"
                    },
                    {
                        "current": "0x000000000000000000000000000000000000000000000000389f12621b980000",
                        "key": "0x0000000000000000000000000000000000000000000000000000000000000017",
                        "prev": "0x0000000000000000000000000000000000000000000000000000000000000000"
                    },
                    {
                        "current": "0x0000000000000000000000000000000000000000000000003cc41c6ed1a20000",
                        "key": "0x0000000000000000000000000000000000000000000000000000000000000015",
                        "prev": "0x0000000000000000000000000000000000000000000000000000000000000000"
                    },
                    {
                        "current": "0x0000000000000000000000000000000000000000000000000000000000000001",
                        "key": "0x0000000000000000000000000000000000000000000000000000000000000016",
                        "prev": "0x0000000000000000000000000000000000000000000000000000000000000000"
                    }
                ],
                "storageVariables": []
            },
            {
                "address": "0x7a753d247a80a20443e85944cf063592c0d4c505",
                "erc": "",
                "slots": [
                    {
                        "current": "0x000000000000000000000000000000000000000000000000000000005be06912",
                        "key": "0x4f89ffa18dee5d64134fbebd6ed92e4f76fc7f2daf84afd4be2f53e363576c39",
                        "prev": "0x000000000000000000000000000000000000000000000000000000005b694431"
                    }
                ],
                "storageVariables": []
            },
            {
                "address": "0x8fe19c447821b4cdcdd5012bca1b5469ca96d80d",
                "erc": "ERC-20",
                "slots": [
                    {
                        "current": "0x00000000000000000000000000000000000000000000000c9f59d1b591594373",
                        "key": "0xfe32f25a4a006944bc3f271a13e7c328c11ea259a1d7d6c5854752d81f882457",
                        "prev": "0x00000000000000000000000000000000000000000000000c66babf5375c14373"
                    },
                    {
                        "current": "0x000000000000000000000000000000000000000000002e1843da2050f2b5b22c",
                        "key": "0x0000000000000000000000000000000000000000000000000000000000000002",
                        "prev": "0x000000000000000000000000000000000000000000002e180b3b0deed71db22c"
                    }
                ],
                "storageVariables": [
                    {
                        "name": "balances",
                        "type": "mapping(address => uint256)",
                        "value": {
                            "pairs": [
                                {
                                    "key": "0xbad858a0cf09f210fcf35cbf83569178879b47f2",
                                    "value": {
                                        "current": "232843368187230241651",
                                        "prev": "228763368187230241651",
                                        "typeTag": 1
                                    }
                                }
                            ],
                            "typeTag": 4
                        }
                    },
                    {
                        "name": "totalSupply_",
                        "type": "uint256",
                        "value": {
                            "current": "217676469325650214629932",
                            "prev": "217672389325650214629932",
                            "typeTag": 1
                        }
                    }
                ]
            }
        ]
    }
}