{
    "balance_change": {
        "balanceChanges": [
            {
                "account": "0x31fd6071211c31990a257afcd1f496a0ab18faf1",
                "assets": [
                    {
                        "address": "0xa247393d4d270df7bc888b619f3242c8916bab03",
                        "amount": "1",
                        "iconUrl": "",
                        "isERC1155": false,
                        "isERC721": true,
                        "sign": false,
                        "tokenID": "11109",
                        "value": ""
                    }
                ]
            },
            {
                "account": "0x77d6b662c78dbb809a1ee3b1491d0aac87174596",
                "assets": [
                    {
                        "address": "0xa247393d4d270df7bc888b619f3242c8916bab03",
                        "amount": "1",
                        "iconUrl": "",
                        "isERC1155": false,
                        "isERC721": true,
                        "sign": true,
                        "tokenID": "11109",
                        "value": ""
                    }
                ]
            }
        ]
    },
    "profile": {
        "basic_info": {
            "baseFee": "26.174498557",
            "blockNumber": 15148689,
            "callData": "0x23b872dd00000000000000000000000031fd6071211c31990a257afcd1f496a0ab18faf100000000000000000000000077d6b662c78dbb809a1ee3b1491d0aac871745960000000000000000000000000000000000000000000000000000000000002b65",
            "debugEnable": true,
            "errorInfo": "",
            "eventCount": 2,
            "feeRecipient": "0x5dcb78343780e1b1e578ae0590dc1e868792a435",
            "formatValue": "0",
            "gasLimit": 138729,
            "gasPrice": "27.674498557",
            "gasUsed": 71166,
            "intTxnCount": 1,
            "internalRevert": false,
            "internalRevertMessage": "",
            "isContractCreation": false,
            "isFlashloan": false,
            "maxFee": "35.155410765",
            "nonce": 5,
            "overwritedBlockNumber": -1,
            "priorityFee": "1.5",
            "receiver": "0xa247393d4d270df7bc888b619f3242c8916bab03",
            "revertMessage": "",
            "sender": "0x31fd6071211c31990a257afcd1f496a0ab18faf1",
            "simulationEnable": true,
            "sourceTxnHash": "0x4e7fd37d7115deba7d9784f39f0a00234d4d5e87fa1a80d43aaa3e0870fd9c71",
            "status": true,
            "timestamp": "2022-07-15T17:33:53Z",
            "transactionFee": "0.001969483364307462",
            "txnHash": "0x4e7fd37d7115deba7d9784f39f0a00234d4d5e87fa1a80d43aaa3e0870fd9c71",
            "txnIndex": 13,
            "type": 2,
            "value": "0"
        },
        "fund_flow": [
            {
                "amount": "1",
                "from": "0x31fd6071211c31990a257afcd1f496a0ab18faf1",
                "id": 1,
                "isERC1155": false,
                "isERC721": true,
                "isReverted": false,
                "order": 1,
                "to": "0x77d6b662c78dbb809a1ee3b1491d0aac87174596",
                "token": "0xa247393d4d270df7bc888b619f3242c8916bab03",
                "tokenID": "11109"
            }
        ],
        "token_infos": [
            {
                "address": "0xc02aaa39b223fe8d0a0e5c4f27ead9083c756cc2",
                "decimals": 18
            },
            {
                "address": "0xeeeeeeeeeeeeeeeeeeeeeeeeeeeeeeeeeeeeeeee",
                "decimals": 18
            }
        ]
    },
    "address_label": {
        "labels": [
            {
                "address": "0x0000000000000000000000000000000000000003",
                "label": "Precompiled"
            },
            {
                "address": "0x0000000000000000000000000000000000000004",
                "label": "Precompiled"
            },
            {
                "address": "0xeeeeeeeeeeeeeeeeeeeeeeeeeeeeeeeeeeeeeeee",
                "label": "Ether"
            },
            {
                "address": "0x0f33f61ef663ddd7961046bfc00a325f1e0e0ca1",
                "label": "MetaverseNFT"
            },
            {
                "address": "0x0000000000000000000000000000000000000001",
                "label": "Precompiled"
            },
            {
                "address": "0x0000000000000000000000000000000000000002",
                "label": "Precompiled"
            }
        ]
    },
    "trace": {
        "accountLabels": null,
        "dataMap": {
            "-1": {
                "invocation": {
                    "address": "0x31fd6071211c31990a257afcd1f496a0ab18faf1",
                    "callData": "",
                    "decodedMethod": null,
                    "errorInfo": "",
                    "fromAddress": "",
                    "gasUsed": 0,
                    "id": -1,
                    "methodDecoded": false,
                    "operation": "",
                    "output": "",
                    "revert": false,
                    "revertMessage": "",
                    "selector": "",
                    "status": false,
                    "value": ""
                },
                "nodeType": 0
            },
            "0": {
                "invocation": {
                    "address": "0xa247393d4d270df7bc888b619f3242c8916bab03",
                    "callData": "0x00000000000000000000000031fd6071211c31990a257afcd1f496a0ab18faf100000000000000000000000077d6b662c78dbb809a1ee3b1491d0aac871745960000000000000000000000000000000000000000000000000000000000002b65",
                    "decodedMethod": {
                        "callParams": [
                            {
                                "name": "from",
                                "type": "address",
                                "value": "0x31fd6071211c31990a257afcd1f496a0ab18faf1"
                            },
                            {
                                "name": "to",
                                "type": "address",
                                "value": "0x77d6b662c78dbb809a1ee3b1491d0aac87174596"
                            },
                            {
                                "decimalAvailable": true,
                                "name": "tokenId",
                                "type": "uint256",
                                "value": "11,109"
                            }
                        ],
                        "constructorArguments": "",
                        "name": "transferFrom",
                        "returnParams": [],
                        "signature": "transferFrom(address,address,uint256)"
                    },
                    "errorInfo": "",
                    "fromAddress": "0x31fd6071211c31990a257afcd1f496a0ab18faf1",
                    "gasUsed": 71166,
                    "id": 0,
                    "methodDecoded": true,
                    "operation": "CALL",
                    "output": "",
                    "revert": false,
                    "revertMessage": "",
                    "selector": "0x23b872dd",
                    "status": true,
                    "value": "0"
                },
                "nodeType": 0
            },
            "1": {
                "invocation": {
                    "address": "0x0f33f61ef663ddd7961046bfc00a325f1e0e0ca1",
                    "callData": "0x00000000000000000000000031fd6071211c31990a257afcd1f496a0ab18faf100000000000000000000000077d6b662c78dbb809a1ee3b1491d0aac871745960000000000000000000000000000000000000000000000000000000000002b65",
                    "decodedMethod": {
                        "callParams": [
                            {
                                "name": "from",
                                "type": "address",
                                "value": "0x31fd6071211c31990a257afcd1f496a0ab18faf1"
                            },
                            {
                                "name": "to",
                                "type": "address",
                                "value": "0x77d6b662c78dbb809a1ee3b1491d0aac87174596"
                            },
                            {
                                "decimalAvailable": true,
                                "name": "tokenId",
                                "type": "uint256",
                                "value": "11,109"
                            }
                        ],
                        "constructorArguments": "",
                        "name": "transferFrom",
                        "returnParams": [],
                        "signature": "transferFrom(address,address,uint256)"
                    },
                    "errorInfo": "",
                    "fromAddress": "0xa247393d4d270df7bc888b619f3242c8916bab03",
                    "gasUsed": 46533,
                    "id": 1,
                    "methodDecoded": true,
                    "operation": "DELEGATECALL",
                    "output": "",
                    "revert": false,
                    "revertMessage": "",
                    "selector": "0x23b872dd",
                    "status": true,
                    "value": "0"
                },
                "nodeType": 0
            },
            "2": {
                "event": {
                    "contract": "0xa247393d4d270df7bc888b619f3242c8916bab03",
                    "decodedLog": {
                        "name": "Approval",
                        "params": [
                            {
                                "name": "owner",
                                "type": "address",
                                "value": "0x31fd6071211c31990a257afcd1f496a0ab18faf1"
                            },
                            {
                                "name": "approved",
                                "type": "address",
                                "value": "0x0000000000000000000000000000000000000000"
                            },
                            {
                                "decimalAvailable": true,
                                "name": "tokenId",
                                "type": "uint256",
                                "value": "11,109"
                            }
                        ],
                        "signature": "Approval(address,address,uint256)"
                    },
                    "id": 2,
                    "logData": "0x",
                    "logDecoded": true,
                    "operation": "EVENT",
                    "revert": false,
                    "status": true,
                    "topics": [
                        "0x8c5be1e5ebec7d5bd14f71427d1e84f3dd0314c0f7b2291e5b200ac8c7c3b925",
                        "0x00000000000000000000000031fd6071211c31990a257afcd1f496a0ab18faf1",
                        "0x0000000000000000000000000000000000000000000000000000000000000000",
                        "0x0000000000000000000000000000000000000000000000000000000000002b65"
                    ]
                },
                "nodeType": 1
            },
            "3": {
                "event": {
                    "contract": "0xa247393d4d270df7bc888b619f3242c8916bab03",
                    "decodedLog": {
                        "name": "Transfer",
                        "params": [
                            {
                                "name": "from",
                                "type": "address",
                                "value": "0x31fd6071211c31990a257afcd1f496a0ab18faf1"
                            },
                            {
                                "name": "to",
                                "type": "address",
                                "value": "0x77d6b662c78dbb809a1ee3b1491d0aac87174596"
                            },
                            {
                                "decimalAvailable": true,
                                "name": "tokenId",
                                "type": "uint256",
                                "value": "11,109"
                            }
                        ],
                        "signature": "Transfer(address,address,uint256)"
                    },
                    "id": 3,
                    "logData": "0x",
                    "logDecoded": true,
                    "operation": "EVENT",
                    "revert": false,
                    "status": true,
                    "topics": [
                        "0xddf252ad1be2c89b69c2b068fc378daa952ba7f163c4a11628f55a4df523b3ef",
                        "0x00000000000000000000000031fd6071211c31990a257afcd1f496a0ab18faf1",
                        "0x00000000000000000000000077d6b662c78dbb809a1ee3b1491d0aac87174596",
                        "0x0000000000000000000000000000000000000000000000000000000000002b65"
                    ]
                },
                "nodeType": 1
            }
        },
        "gasFlame": [
            {
                "children": [
                    {
                        "children": [
                            {
                                "children": [],
                                "depth": 0,
                                "name": "Initial Gas",
                                "value": 21952
                            },
                            {
                                "children": [
                                    {
                                        "children": [],
                                        "depth": 1,
                                        "name": "transferFrom",
                                        "value": 46533
                                    }
                                ],
                                "depth": 0,
                                "name": "Executed Gas",
                                "value": 49214
                            }
                        ],
                        "depth": -1,
                        "name": "Actual Gas Used",
                        "value": 71166
                    },
                    {
                        "children": [],
                        "depth": -1,
                        "name": "Refunded Gas",
                        "value": 0
                    }
                ],
                "depth": -2,
                "name": "Total Gas",
                "value": 71166
            }
        ],
        "isConfirmed": true,
        "mainTrace": [
            {
                "children": [
                    {
                        "children": [
                            {
                                "children": [
                                    {
                                        "children": [],
                                        "depth": 2,
                                        "id": 2,
                                        "order": 2
                                    },
                                    {
                                        "children": [],
                                        "depth": 2,
                                        "id": 3,
                                        "order": 3
                                    }
                                ],
                                "depth": 1,
                                "id": 1,
                                "order": 1
                            }
                        ],
                        "depth": 0,
                        "id": 0,
                        "order": 0
                    }
                ],
                "depth": -1,
                "id": -1,
                "order": -1
            }
        ],
        "mainTraceNodeCount": 4,
        "parentIdMap": {
            "0": -1,
            "1": 0,
            "2": 1,
            "3": 1
        },
        "tidyTrace": [
            {
                "children": [
                    {
                        "children": [
                            {
                                "children": [
                                    {
                                        "children": [],
                                        "depth": 2,
                                        "id": 2,
                                        "order": 2
                                    },
                                    {
                                        "children": [],
                                        "depth": 2,
                                        "id": 3,
                                        "order": 3
                                    }
                                ],
                                "depth": 1,
                                "id": 1,
                                "order": 1
                            }
                        ],
                        "depth": 0,
                        "id": 0,
                        "order": 0
                    }
                ],
                "depth": -1,
                "id": -1,
                "order": -1
            }
        ],
        "tidyTraceNodeCount": 4
    },
    "state_change": {
        "stateChanges": [
            {
                "address": "0xa247393d4d270df7bc888b619f3242c8916bab03",
                "erc": "ERC-721",
                "slots": [
                    {
                        "current": "0x0000000000000000000000000000000000000000000000000000000000000001",
                        "key": "0x88736b6ad5e5a350edb6cb4c12e99be64c8bbd1f0fa728bf5f4ef36af70b3258",
                        "prev": "0x0000000000000000000000000000000000000000000000000000000000000000"
                    },
                    {
                        "current": "0x000000000000000062d1a50177d6b662c78dbb809a1ee3b1491d0aac87174596",
                        "key": "0x61a07ace82135b2f3079a343735792fa2d70662e074c1480f7f819fc9da3fa9c",
                        "prev": "0x000000000000000062c42f1331fd6071211c31990a257afcd1f496a0ab18faf1"
                    },
                    {
                        "current": "0x0000000000000000000000000000000000000000000000c800000000000000c3",
                        "key": "0x9b14925266e5ef54da0db638a22249b31eb5d975adf96eaab11b0effef23695a",
                        "prev": "0x0000000000000000000000000000000000000000000000c800000000000000c4"
                    }
                ],
                "storageVariables": [
                    {
                        "name": "_addressData",
                        "type": "mapping(address => struct IERC721AUpgradeable.AddressData)",
                        "value": {
                            "pairs": [
                                {
                                    "key": "0x31fd6071211c31990a257afcd1f496a0ab18faf1",
                                    "value": {
                                        "fields": [
                                            {
                                                "name": "balance",
                                                "type": "uint64",
                                                "value": {
                                                    "current": "195",
                                                    "prev": "196",
                                                    "typeTag": 1
                                                }
                                            },
                                            {
                                                "name": "numberMinted",
                                                "type": "uint64",
                                                "value": {
                                                    "current": "200",
                                                    "prev": "200",
                                                    "typeTag": 1
                                                }
                                            },
                                            {
                                                "name": "numberBurned",
                                                "type": "uint64",
                                                "value": {
                                                    "current": "0",
                                                    "prev": "0",
                                                    "typeTag": 1
                                                }
                                            },
                                            {
                                                "name": "aux",
                                                "type": "uint64",
                                                "value": {
                                                    "current": "0",
                                                    "prev": "0",
                                                    "typeTag": 1
                                                }
                                            }
                                        ],
                                        "typeTag": 3
                                    }
                                },
                                {
                                    "key": "0x77d6b662c78dbb809a1ee3b1491d0aac87174596",
                                    "value": {
                                        "fields": [
                                            {
                                                "name": "balance",
                                                "type": "uint64",
                                                "value": {
                                                    "current": "1",
                                                    "prev": "0",
                                                    "typeTag": 1
                                                }
                                            },
                                            {
                                                "name": "numberMinted",
                                                "type": "uint64",
                                                "value": {
                                                    "current": "0",
                                                    "prev": "0",
                                                    "typeTag": 1
                                                }
                                            },
                                            {
                                                "name": "numberBurned",
                                                "type": "uint64",
                                                "value": {
                                                    "current": "0",
                                                    "prev": "0",
                                                    "typeTag": 1
                                                }
                                            },
                                            {
                                                "name": "aux",
                                                "type": "uint64",
                                                "value": {
                                                    "current": "0",
                                                    "prev": "0",
                                                    "typeTag": 1
                                                }
                                            }
                                        ],
                                        "typeTag": 3
                                    }
                                }
                            ],
                            "typeTag": 4
                        }
                    },
                    {
                        "name": "_ownerships",
                        "type": "mapping(uint256 => struct IERC721AUpgradeable.TokenOwnership)",
                        "value": {
                            "pairs": [
                                {
                                    "key": "11109",
                                    "value": {
                                        "fields": [
                                            {
                                                "name": "addr",
                                                "type": "address",
                                                "value": {
                                                    "current": "0x77d6b662c78dbb809a1ee3b1491d0aac87174596",
                                                    "prev": "0x31fd6071211c31990a257afcd1f496a0ab18faf1",
                                                    "typeTag": 1
                                                }
                                            },
                                            {
                                                "name": "startTimestamp",
                                                "type": "uint64",
                                                "value": {
                                                    "current": "1657906433",
                                                    "prev": "1657024275",
                                                    "typeTag": 1
                                                }
                                            },
                                            {
                                                "name": "burned",
                                                "type": "bool",
                                                "value": {
                                                    "current": "false",
                                                    "prev": "false",
                                                    "typeTag": 1
                                                }
                                            }
                                        ],
                                        "typeTag": 3
                                    }
                                }
                            ],
                            "typeTag": 4
                        }
                    }
                ]
            }
        ]
    }
}