{
    "balance_change": {
        "balanceChanges": []
    },
    "profile": {
        "basic_info": {
            "baseFee": "4.149344198",
            "blockNumber": 15408653,
            "callData": "0x1b738b32000000000000000000000000d37bbe5744d730a1d98d8dc97c42f0ca46ad7146000000000000000000000000500b62a37c1afe79d59b373639512d03e3c4f5e80000000000000000000000006c6ee5e31d828de241282b9606c8e98ea48526e2000000000000000000000000000000000000000000000845561fae792542940000000000000000000000000000000000000000000000000000000000000000a0000000000000000000000000000000000000000000000000000000000000000f4d4947524154453a373033363236350000000000000000000000000000000000",
            "debugEnable": true,
            "errorInfo": "",
            "eventCount": 1,
            "feeRecipient": "0x00192fb10df37c9fb26829eb2cc623cd1bf599e8",
            "formatValue": "0",
            "gasLimit": 45147,
            "gasPrice": "30",
            "gasUsed": 35361,
            "intTxnCount": 0,
            "internalRevert": false,
            "internalRevertMessage": "",
            "isContractCreation": false,
            "isFlashloan": false,
            "maxFee": "",
            "nonce": 278,
            "overwritedBlockNumber": -1,
            "priorityFee": "",
            "receiver": "0xd37bbe5744d730a1d98d8dc97c42f0ca46ad7146",
            "revertMessage": "",
            "sender": "0xee31932f0a15f88b9cfb952d943aa9da0801a022",
            "simulationEnable": true,
            "sourceTxnHash": "0x4e59e85c88272b08ba6a3f52dfadf622b4a31b395a955d292adbd4078f1e3b86",
            "status": true,
            "timestamp": "2022-08-25T10:43:30Z",
            "transactionFee": "0.00106083",
            "txnHash": "0x4e59e85c88272b08ba6a3f52dfadf622b4a31b395a955d292adbd4078f1e3b86",
            "txnIndex": 17,
            "type": 0,
            "value": "0"
        },
        "fund_flow": [],
        "token_infos": [
            {
                "address": "0xc02aaa39b223fe8d0a0e5c4f27ead9083c756cc2",
                "decimals": 18
            },
            {
                "address": "0xeeeeeeeeeeeeeeeeeeeeeeeeeeeeeeeeeeeeeeee",
                "decimals": 18
            }
        ]
    },
    "address_label": {
        "labels": [
            {
                "address": "0x6c6ee5e31d828de241282b9606c8e98ea48526e2",
                "label": "Holo: HOT Token"
            },
            {
                "address": "0x0000000000000000000000000000000000000001",
                "label": "Precompiled"
            },
            {
                "address": "0x0000000000000000000000000000000000000003",
                "label": "Precompiled"
            },
            {
                "address": "0xeeeeeeeeeeeeeeeeeeeeeeeeeeeeeeeeeeeeeeee",
                "label": "Ether"
            },
            {
                "address": "0xee31932f0a15f88b9cfb952d943aa9da0801a022",
                "label": "THORChain_vault_ee31_a022"
            },
            {
                "address": "0xd37bbe5744d730a1d98d8dc97c42f0ca46ad7146",
                "label": "THORChain: THORChain Router v4.1.1"
            },
            {
                "address": "0x0000000000000000000000000000000000000002",
                "label": "Precompiled"
            },
            {
                "address": "0x0000000000000000000000000000000000000004",
                "label": "Precompiled"
            },
            {
                "address": "0x500b62a37c1afe79d59b373639512d03e3c4f5e8",
                "label": "THORChain_vault_500b_f5e8"
            }
        ]
    },
    "trace": {
        "accountLabels": null,
        "dataMap": {
            "-1": {
                "invocation": {
                    "address": "0xee31932f0a15f88b9cfb952d943aa9da0801a022",
                    "callData": "",
                    "decodedMethod": null,
                    "errorInfo": "",
                    "fromAddress": "",
                    "gasUsed": 0,
                    "id": -1,
                    "methodDecoded": false,
                    "operation": "",
                    "output": "",
                    "revert": false,
                    "revertMessage": "",
                    "selector": "",
                    "status": false,
                    "value": ""
                },
                "nodeType": 0
            },
            "0": {
                "invocation": {
                    "address": "0xd37bbe5744d730a1d98d8dc97c42f0ca46ad7146",
                    "callData": "0x000000000000000000000000d37bbe5744d730a1d98d8dc97c42f0ca46ad7146000000000000000000000000500b62a37c1afe79d59b373639512d03e3c4f5e80000000000000000000000006c6ee5e31d828de241282b9606c8e98ea48526e2000000000000000000000000000000000000000000000845561fae792542940000000000000000000000000000000000000000000000000000000000000000a0000000000000000000000000000000000000000000000000000000000000000f4d4947524154453a373033363236350000000000000000000000000000000000",
                    "decodedMethod": {
                        "callParams": [
                            {
                                "name": "router",
                                "type": "address",
                                "value": "0xd37bbe5744d730a1d98d8dc97c42f0ca46ad7146"
                            },
                            {
                                "name": "newVault",
                                "type": "address",
                                "value": "0x500b62a37c1afe79d59b373639512d03e3c4f5e8"
                            },
                            {
                                "name": "asset",
                                "type": "address",
                                "value": "0x6c6ee5e31d828de241282b9606c8e98ea48526e2"
                            },
                            {
                                "name": "amount",
                                "type": "uint256",
                                "value": "39,057,963,074,690,000,000,000"
                            },
                            {
                                "name": "memo",
                                "type": "string",
                                "value": "MIGRATE:7036265"
                            }
                        ],
                        "constructorArguments": "",
                        "name": "transferAllowance",
                        "returnParams": [],
                        "signature": "transferAllowance(address,address,address,uint256,string)"
                    },
                    "errorInfo": "",
                    "fromAddress": "0xee31932f0a15f88b9cfb952d943aa9da0801a022",
                    "gasUsed": 35361,
                    "id": 0,
                    "methodDecoded": true,
                    "operation": "CALL",
                    "output": "",
                    "revert": false,
                    "revertMessage": "",
                    "selector": "0x1b738b32",
                    "status": true,
                    "value": "0"
                },
                "nodeType": 0
            },
            "1": {
                "event": {
                    "contract": "0xd37bbe5744d730a1d98d8dc97c42f0ca46ad7146",
                    "decodedLog": {
                        "name": "TransferAllowance",
                        "params": [
                            {
                                "name": "oldVault",
                                "type": "address",
                                "value": "0xee31932f0a15f88b9cfb952d943aa9da0801a022"
                            },
                            {
                                "name": "newVault",
                                "type": "address",
                                "value": "0x500b62a37c1afe79d59b373639512d03e3c4f5e8"
                            },
                            {
                                "name": "asset",
                                "type": "address",
                                "value": "0x6c6ee5e31d828de241282b9606c8e98ea48526e2"
                            },
                            {
                                "name": "amount",
                                "type": "uint256",
                                "value": "39,057,963,074,690,000,000,000"
                            },
                            {
                                "name": "memo",
                                "type": "string",
                                "value": "MIGRATE:7036265"
                            }
                        ],
                        "signature": "TransferAllowance(address,address,address,uint256,string)"
                    },
                    "id": 1,
                    "logData": "0x0000000000000000000000006c6ee5e31d828de241282b9606c8e98ea48526e2000000000000000000000000000000000000000000000845561fae79254294000000000000000000000000000000000000000000000000000000000000000060000000000000000000000000000000000000000000000000000000000000000f4d4947524154453a373033363236350000000000000000000000000000000000",
                    "logDecoded": true,
                    "operation": "EVENT",
                    "revert": false,
                    "status": true,
                    "topics": [
                        "0x05b90458f953d3fcb2d7fb25616a2fddeca749d0c47cc5c9832d0266b5346eea",
                        "0x000000000000000000000000ee31932f0a15f88b9cfb952d943aa9da0801a022",
                        "0x000000000000000000000000500b62a37c1afe79d59b373639512d03e3c4f5e8"
                    ]
                },
                "nodeType": 1
            }
        },
        "gasFlame": [
            {
                "children": [
                    {
                        "children": [
                            {
                                "children": [],
                                "depth": 0,
                                "name": "Initial Gas",
                                "value": 22992
                            },
                            {
                                "children": [],
                                "depth": 0,
                                "name": "Executed Gas",
                                "value": 19969
                            }
                        ],
                        "depth": -1,
                        "name": "Actual Gas Used",
                        "value": 35361
                    },
                    {
                        "children": [],
                        "depth": -1,
                        "name": "Refunded Gas",
                        "value": 7600
                    }
                ],
                "depth": -2,
                "name": "Total Gas",
                "value": 42961
            }
        ],
        "isConfirmed": true,
        "mainTrace": [
            {
                "children": [
                    {
                        "children": [
                            {
                                "children": [],
                                "depth": 1,
                                "id": 1,
                                "order": 1
                            }
                        ],
                        "depth": 0,
                        "id": 0,
                        "order": 0
                    }
                ],
                "depth": -1,
                "id": -1,
                "order": -1
            }
        ],
        "mainTraceNodeCount": 2,
        "parentIdMap": {
            "0": -1,
            "1": 0
        },
        "tidyTrace": [
            {
                "children": [
                    {
                        "children": [
                            {
                                "children": [],
                                "depth": 1,
                                "id": 1,
                                "order": 1
                            }
                        ],
                        "depth": 0,
                        "id": 0,
                        "order": 0
                    }
                ],
                "depth": -1,
                "id": -1,
                "order": -1
            }
        ],
        "tidyTraceNodeCount": 2
    },
    "state_change": {
        "stateChanges": [
            {
                "address": "0xd37bbe5744d730a1d98d8dc97c42f0ca46ad7146",
                "erc": "",
                "slots": [
                    {
                        "current": "0x0000000000000000000000000000000000000000000000000000000000000000",
                        "key": "0x0397df2c0c943e880352d51983d1632286c6b67340d2614000cce9ba9ce0c20c",
                        "prev": "0x000000000000000000000000000000000000000000000845561fae7925429400"
                    },
                    {
                        "current": "0x00000000000000000000000000000000000000000000e1b2b2464adcd9b58400",
                        "key": "0xf94cd1f575f646b802bbb8133d3f53693b618794ce63558194940855e7e209a5",
                        "prev": "0x00000000000000000000000000000000000000000000d96d5c269c63b472f000"
                    }
                ],
                "storageVariables": [
                    {
                        "name": "_vaultAllowance",
                        "type": "mapping(address => mapping(address => uint256))",
                        "value": {
                            "pairs": [
                                {
                                    "key": "0x500b62a37c1afe79d59b373639512d03e3c4f5e8",
                                    "value": {
                                        "pairs": [
                                            {
                                                "key": "0x6c6ee5e31d828de241282b9606c8e98ea48526e2",
                                                "value": {
                                                    "current": "1065828825128090000000000",
                                                    "prev": "1026770862053400000000000",
                                                    "typeTag": 1
                                                }
                                            }
                                        ],
                                        "typeTag": 4
                                    }
                                },
                                {
                                    "key": "0xee31932f0a15f88b9cfb952d943aa9da0801a022",
                                    "value": {
                                        "pairs": [
                                            {
                                                "key": "0x6c6ee5e31d828de241282b9606c8e98ea48526e2",
                                                "value": {
                                                    "current": "0",
                                                    "prev": "39057963074690000000000",
                                                    "typeTag": 1
                                                }
                                            }
                                        ],
                                        "typeTag": 4
                                    }
                                }
                            ],
                            "typeTag": 4
                        }
                    }
                ]
            }
        ]
    }
}