{
    "balance_change": {
        "balanceChanges": [
            {
                "account": "0x3f6040ecaa4759d0b7327ac39cc2d72d8b32e08c",
                "assets": [
                    {
                        "address": "0xa0b86991c6218b36c1d19d4a2e9eb0ce3606eb48",
                        "amount": "135,000",
                        "iconUrl": "https://assets.blocksec.com/icon/0347a86cc07dbd03fdc5db01a4e5ac7e1217f90e0b6e4bb0f75cbcca09160989.png",
                        "isERC1155": false,
                        "isERC721": false,
                        "sign": true,
                        "value": "134905.49999999999542"
                    }
                ]
            },
            {
                "account": "0x3154cf16ccdb4c6d922629664174b904d80f2c35",
                "assets": [
                    {
                        "address": "0xa0b86991c6218b36c1d19d4a2e9eb0ce3606eb48",
                        "amount": "135,000",
                        "iconUrl": "https://assets.blocksec.com/icon/0347a86cc07dbd03fdc5db01a4e5ac7e1217f90e0b6e4bb0f75cbcca09160989.png",
                        "isERC1155": false,
                        "isERC721": false,
                        "sign": false,
                        "value": "134905.49999999999542"
                    }
                ]
            }
        ]
    },
    "profile": {
        "basic_info": {
            "baseFee": "2.870404285",
            "blockNumber": 20724272,
            "callData": "0x8c3152e9000000000000000000000000000000000000000000000000000000000000002000010000000000000000000000000000000000000000000000000000000175a60000000000000000000000004200000000000000000000000000000000000007000000000000000000000000866e82a600a1414e583f7f13623f1ac5d58b0afa0000000000000000000000000000000000000000000000000000000000000000000000000000000000000000000000000000000000000000000000000004678800000000000000000000000000000000000000000000000000000000000000c000000000000000000000000000000000000000000000000000000000000001e4d764ad0b000100000000000000000000000000000000000000000000000000000000637200000000000000000000000042000000000000000000000000000000000000100000000000000000000000003154cf16ccdb4c6d922629664174b904d80f2c350000000000000000000000000000000000000000000000000000000000000000000000000000000000000000000000000000000000000000000000000000000000000000000000000000000000000000000000000000000000000000000000c000000000000000000000000000000000000000000000000000000000000000e40166a07a000000000000000000000000a0b86991c6218b36c1d19d4a2e9eb0ce3606eb48000000000000000000000000d9aaec86b65d86f6a7b5b1b0c42ffa531710b6ca0000000000000000000000003f6040ecaa4759d0b7327ac39cc2d72d8b32e08c0000000000000000000000003f6040ecaa4759d0b7327ac39cc2d72d8b32e08c0000000000000000000000000000000000000000000000000000001f6ea0860000000000000000000000000000000000000000000000000000000000000000c000000000000000000000000000000000000000000000000000000000000000000000000000000000000000000000000000000000000000000000000000000000000000000000000000000000000000000000000000000000",
            "debugEnable": true,
            "errorInfo": "",
            "eventCount": 5,
            "feeRecipient": "0x95222290dd7278aa3ddd389cc1e1d165cc4bafe5",
            "formatValue": "0",
            "gasLimit": 600000,
            "gasPrice": "3.870404285",
            "gasUsed": 261204,
            "intTxnCount": 32,
            "internalRevert": true,
            "internalRevertMessage": "",
            "isContractCreation": false,
            "isFlashloan": false,
            "maxFee": "6",
            "nonce": 1,
            "overwritedBlockNumber": -1,
            "priorityFee": "1",
            "receiver": "0x49048044d57e1c92a77f79988d21fa8faf74e97e",
            "revertMessage": "",
            "sender": "0x3f6040ecaa4759d0b7327ac39cc2d72d8b32e08c",
            "simulationEnable": true,
            "sourceTxnHash": "0x4f46f66df9850755f8eecbf7f317fb816867c65ce128f730605d955865836a80",
            "status": true,
            "timestamp": "2024-09-11T02:05:11Z",
            "transactionFee": "0.00101096508085914",
            "txnHash": "0x4f46f66df9850755f8eecbf7f317fb816867c65ce128f730605d955865836a80",
            "txnIndex": 84,
            "type": 2,
            "value": "0"
        },
        "fund_flow": [
            {
                "amount": "135,000",
                "from": "0x3154cf16ccdb4c6d922629664174b904d80f2c35",
                "id": 1,
                "isERC1155": false,
                "isERC721": false,
                "isReverted": false,
                "order": 1,
                "to": "0x3f6040ecaa4759d0b7327ac39cc2d72d8b32e08c",
                "token": "0xa0b86991c6218b36c1d19d4a2e9eb0ce3606eb48"
            }
        ],
        "token_infos": [
            {
                "address": "0xa0b86991c6218b36c1d19d4a2e9eb0ce3606eb48",
                "decimals": 6
            },
            {
                "address": "0xc02aaa39b223fe8d0a0e5c4f27ead9083c756cc2",
                "decimals": 18
            },
            {
                "address": "0xeeeeeeeeeeeeeeeeeeeeeeeeeeeeeeeeeeeeeeee",
                "decimals": 18
            }
        ]
    },
    "address_label": {
        "labels": [
            {
                "address": "0x3154cf16ccdb4c6d922629664174b904d80f2c35",
                "label": "Base: Base Bridge"
            },
            {
                "address": "0x866e82a600a1414e583f7f13623f1ac5d58b0afa",
                "label": "ResolvedDelegateProxy"
            },
            {
                "address": "0xa0b86991c6218b36c1d19d4a2e9eb0ce3606eb48",
                "label": "Circle: USDC Token"
            },
            {
                "address": "0x0000000000000000000000000000000000000001",
                "label": "Precompiled"
            },
            {
                "address": "0xeeeeeeeeeeeeeeeeeeeeeeeeeeeeeeeeeeeeeeee",
                "label": "Ether"
            },
            {
                "address": "0x49048044d57e1c92a77f79988d21fa8faf74e97e",
                "label": "Base: Base Portal"
            },
            {
                "address": "0x8efb6b5c4767b09dc9aa6af4eaa89f749522bae2",
                "label": "AddressManager"
            },
            {
                "address": "0x64b5a5ed26dcb17370ff4d33a8d503f0fbd06cff",
                "label": "L1StandardBridge"
            },
            {
                "address": "0xf243bed163251380e78068d317ae10f26042b292",
                "label": "L2OutputOracle"
            },
            {
                "address": "0x0000000000000000000000000000000000000003",
                "label": "Precompiled"
            },
            {
                "address": "0x0000000000000000000000000000000000000004",
                "label": "Precompiled"
            },
            {
                "address": "0x56315b90c40730925ec5485cf004d835058518a0",
                "label": "Proxy_5631_18a0"
            },
            {
                "address": "0x2d778797049fe9259d947d1ed8e5442226dfb589",
                "label": "OptimismPortal"
            },
            {
                "address": "0xd3494713a5cfad3f5359379dfa074e2ac8c6fd65",
                "label": "L1CrossDomainMessenger"
            },
            {
                "address": "0x95703e0982140d16f8eba6d158fccede42f04a4c",
                "label": "Proxy"
            },
            {
                "address": "0x0000000000000000000000000000000000000002",
                "label": "Precompiled"
            },
            {
                "address": "0x0475cbcaebd9ce8afa5025828d5b98dfb67e059e",
                "label": "ProxyAdmin"
            },
            {
                "address": "0x43506849d7c04f9138d1a2050bbf3a0c054402dd",
                "label": "FiatTokenV2_2"
            },
            {
                "address": "0x53c165169401764778f780a69701385eb0ff19b7",
                "label": "SuperchainConfig"
            }
        ]
    },
    "trace": {
        "accountLabels": null,
        "dataMap": {
            "-1": {
                "invocation": {
                    "address": "0x3f6040ecaa4759d0b7327ac39cc2d72d8b32e08c",
                    "callData": "",
                    "decodedMethod": null,
                    "errorInfo": "",
                    "fromAddress": "",
                    "gasUsed": 0,
                    "id": -1,
                    "methodDecoded": false,
                    "operation": "",
                    "output": "",
                    "revert": false,
                    "revertMessage": "",
                    "selector": "",
                    "status": false,
                    "value": ""
                },
                "nodeType": 0
            },
            "0": {
                "invocation": {
                    "address": "0x49048044d57e1c92a77f79988d21fa8faf74e97e",
                    "callData": "0x000000000000000000000000000000000000000000000000000000000000002000010000000000000000000000000000000000000000000000000000000175a60000000000000000000000004200000000000000000000000000000000000007000000000000000000000000866e82a600a1414e583f7f13623f1ac5d58b0afa0000000000000000000000000000000000000000000000000000000000000000000000000000000000000000000000000000000000000000000000000004678800000000000000000000000000000000000000000000000000000000000000c000000000000000000000000000000000000000000000000000000000000001e4d764ad0b000100000000000000000000000000000000000000000000000000000000637200000000000000000000000042000000000000000000000000000000000000100000000000000000000000003154cf16ccdb4c6d922629664174b904d80f2c350000000000000000000000000000000000000000000000000000000000000000000000000000000000000000000000000000000000000000000000000000000000000000000000000000000000000000000000000000000000000000000000c000000000000000000000000000000000000000000000000000000000000000e40166a07a000000000000000000000000a0b86991c6218b36c1d19d4a2e9eb0ce3606eb48000000000000000000000000d9aaec86b65d86f6a7b5b1b0c42ffa531710b6ca0000000000000000000000003f6040ecaa4759d0b7327ac39cc2d72d8b32e08c0000000000000000000000003f6040ecaa4759d0b7327ac39cc2d72d8b32e08c0000000000000000000000000000000000000000000000000000001f6ea0860000000000000000000000000000000000000000000000000000000000000000c000000000000000000000000000000000000000000000000000000000000000000000000000000000000000000000000000000000000000000000000000000000000000000000000000000000000000000000000000000000",
                    "decodedMethod": {
                        "callParams": [
                            {
                                "name": "_tx",
                                "type": "(uint256,address,address,uint256,uint256,bytes)",
                                "value": [
                                    {
                                        "name": "nonce",
                                        "type": "uint256",
                                        "value": "1,766,847,064,778,384,329,583,297,500,742,918,515,827,483,896,875,618,958,121,606,201,292,715,430"
                                    },
                                    {
                                        "name": "sender",
                                        "type": "address",
                                        "value": "0x4200000000000000000000000000000000000007"
                                    },
                                    {
                                        "name": "target",
                                        "type": "address",
                                        "value": "0x866e82a600a1414e583f7f13623f1ac5d58b0afa"
                                    },
                                    {
                                        "name": "value",
                                        "type": "uint256",
                                        "value": "0"
                                    },
                                    {
                                        "name": "gasLimit",
                                        "type": "uint256",
                                        "value": "288,648"
                                    },
                                    {
                                        "name": "data",
                                        "type": "bytes",
                                        "value": "0xd764ad0b000100000000000000000000000000000000000000000000000000000000637200000000000000000000000042000000000000000000000000000000000000100000000000000000000000003154cf16ccdb4c6d922629664174b904d80f2c350000000000000000000000000000000000000000000000000000000000000000000000000000000000000000000000000000000000000000000000000000000000000000000000000000000000000000000000000000000000000000000000c000000000000000000000000000000000000000000000000000000000000000e40166a07a000000000000000000000000a0b86991c6218b36c1d19d4a2e9eb0ce3606eb48000000000000000000000000d9aaec86b65d86f6a7b5b1b0c42ffa531710b6ca0000000000000000000000003f6040ecaa4759d0b7327ac39cc2d72d8b32e08c0000000000000000000000003f6040ecaa4759d0b7327ac39cc2d72d8b32e08c0000000000000000000000000000000000000000000000000000001f6ea0860000000000000000000000000000000000000000000000000000000000000000c0000000000000000000000000000000000000000000000000000000000000000000000000000000000000000000000000000000000000000000000000"
                                    }
                                ]
                            }
                        ],
                        "constructorArguments": "",
                        "name": "finalizeWithdrawalTransaction",
                        "returnParams": [],
                        "signature": "finalizeWithdrawalTransaction((uint256,address,address,uint256,uint256,bytes))"
                    },
                    "errorInfo": "",
                    "fromAddress": "0x3f6040ecaa4759d0b7327ac39cc2d72d8b32e08c",
                    "gasUsed": 261204,
                    "id": 0,
                    "methodDecoded": true,
                    "operation": "CALL",
                    "output": "",
                    "revert": false,
                    "revertMessage": "",
                    "selector": "0x8c3152e9",
                    "status": true,
                    "value": "0"
                },
                "nodeType": 0
            },
            "1": {
                "invocation": {
                    "address": "0x2d778797049fe9259d947d1ed8e5442226dfb589",
                    "callData": "0x000000000000000000000000000000000000000000000000000000000000002000010000000000000000000000000000000000000000000000000000000175a60000000000000000000000004200000000000000000000000000000000000007000000000000000000000000866e82a600a1414e583f7f13623f1ac5d58b0afa0000000000000000000000000000000000000000000000000000000000000000000000000000000000000000000000000000000000000000000000000004678800000000000000000000000000000000000000000000000000000000000000c000000000000000000000000000000000000000000000000000000000000001e4d764ad0b000100000000000000000000000000000000000000000000000000000000637200000000000000000000000042000000000000000000000000000000000000100000000000000000000000003154cf16ccdb4c6d922629664174b904d80f2c350000000000000000000000000000000000000000000000000000000000000000000000000000000000000000000000000000000000000000000000000000000000000000000000000000000000000000000000000000000000000000000000c000000000000000000000000000000000000000000000000000000000000000e40166a07a000000000000000000000000a0b86991c6218b36c1d19d4a2e9eb0ce3606eb48000000000000000000000000d9aaec86b65d86f6a7b5b1b0c42ffa531710b6ca0000000000000000000000003f6040ecaa4759d0b7327ac39cc2d72d8b32e08c0000000000000000000000003f6040ecaa4759d0b7327ac39cc2d72d8b32e08c0000000000000000000000000000000000000000000000000000001f6ea0860000000000000000000000000000000000000000000000000000000000000000c000000000000000000000000000000000000000000000000000000000000000000000000000000000000000000000000000000000000000000000000000000000000000000000000000000000000000000000000000000000",
                    "decodedMethod": {
                        "callParams": [
                            {
                                "name": "_tx",
                                "type": "(uint256,address,address,uint256,uint256,bytes)",
                                "value": [
                                    {
                                        "name": "nonce",
                                        "type": "uint256",
                                        "value": "1,766,847,064,778,384,329,583,297,500,742,918,515,827,483,896,875,618,958,121,606,201,292,715,430"
                                    },
                                    {
                                        "name": "sender",
                                        "type": "address",
                                        "value": "0x4200000000000000000000000000000000000007"
                                    },
                                    {
                                        "name": "target",
                                        "type": "address",
                                        "value": "0x866e82a600a1414e583f7f13623f1ac5d58b0afa"
                                    },
                                    {
                                        "name": "value",
                                        "type": "uint256",
                                        "value": "0"
                                    },
                                    {
                                        "name": "gasLimit",
                                        "type": "uint256",
                                        "value": "288,648"
                                    },
                                    {
                                        "name": "data",
                                        "type": "bytes",
                                        "value": "0xd764ad0b000100000000000000000000000000000000000000000000000000000000637200000000000000000000000042000000000000000000000000000000000000100000000000000000000000003154cf16ccdb4c6d922629664174b904d80f2c350000000000000000000000000000000000000000000000000000000000000000000000000000000000000000000000000000000000000000000000000000000000000000000000000000000000000000000000000000000000000000000000c000000000000000000000000000000000000000000000000000000000000000e40166a07a000000000000000000000000a0b86991c6218b36c1d19d4a2e9eb0ce3606eb48000000000000000000000000d9aaec86b65d86f6a7b5b1b0c42ffa531710b6ca0000000000000000000000003f6040ecaa4759d0b7327ac39cc2d72d8b32e08c0000000000000000000000003f6040ecaa4759d0b7327ac39cc2d72d8b32e08c0000000000000000000000000000000000000000000000000000001f6ea0860000000000000000000000000000000000000000000000000000000000000000c0000000000000000000000000000000000000000000000000000000000000000000000000000000000000000000000000000000000000000000000000"
                                    }
                                ]
                            }
                        ],
                        "constructorArguments": "",
                        "name": "finalizeWithdrawalTransaction",
                        "returnParams": [],
                        "signature": "finalizeWithdrawalTransaction((uint256,address,address,uint256,uint256,bytes))"
                    },
                    "errorInfo": "",
                    "fromAddress": "0x49048044d57e1c92a77f79988d21fa8faf74e97e",
                    "gasUsed": 235725,
                    "id": 1,
                    "methodDecoded": true,
                    "operation": "DELEGATECALL",
                    "output": "",
                    "revert": false,
                    "revertMessage": "",
                    "selector": "0x8c3152e9",
                    "status": true,
                    "value": "0"
                },
                "nodeType": 0
            },
            "10": {
                "invocation": {
                    "address": "0x56315b90c40730925ec5485cf004d835058518a0",
                    "callData": "0x",
                    "decodedMethod": {
                        "callParams": [],
                        "constructorArguments": "",
                        "name": "FINALIZATION_PERIOD_SECONDS",
                        "returnParams": [
                            {
                                "name": "",
                                "type": "uint256",
                                "value": "604,800"
                            }
                        ],
                        "signature": "FINALIZATION_PERIOD_SECONDS()"
                    },
                    "errorInfo": "",
                    "fromAddress": "0x49048044d57e1c92a77f79988d21fa8faf74e97e",
                    "gasUsed": 852,
                    "id": 10,
                    "methodDecoded": true,
                    "operation": "STATICCALL",
                    "output": "0x0000000000000000000000000000000000000000000000000000000000093a80",
                    "revert": false,
                    "revertMessage": "",
                    "selector": "0xf4daa291",
                    "status": true,
                    "value": "0"
                },
                "nodeType": 0
            },
            "11": {
                "invocation": {
                    "address": "0xf243bed163251380e78068d317ae10f26042b292",
                    "callData": "0x",
                    "decodedMethod": {
                        "callParams": [],
                        "constructorArguments": "",
                        "name": "FINALIZATION_PERIOD_SECONDS",
                        "returnParams": [
                            {
                                "name": "",
                                "type": "uint256",
                                "value": "604,800"
                            }
                        ],
                        "signature": "FINALIZATION_PERIOD_SECONDS()"
                    },
                    "errorInfo": "",
                    "fromAddress": "0x56315b90c40730925ec5485cf004d835058518a0",
                    "gasUsed": 369,
                    "id": 11,
                    "methodDecoded": true,
                    "operation": "DELEGATECALL",
                    "output": "0x0000000000000000000000000000000000000000000000000000000000093a80",
                    "revert": false,
                    "revertMessage": "",
                    "selector": "0xf4daa291",
                    "status": true,
                    "value": "0"
                },
                "nodeType": 0
            },
            "12": {
                "invocation": {
                    "address": "0x866e82a600a1414e583f7f13623f1ac5d58b0afa",
                    "callData": "0x000100000000000000000000000000000000000000000000000000000000637200000000000000000000000042000000000000000000000000000000000000100000000000000000000000003154cf16ccdb4c6d922629664174b904d80f2c350000000000000000000000000000000000000000000000000000000000000000000000000000000000000000000000000000000000000000000000000000000000000000000000000000000000000000000000000000000000000000000000c000000000000000000000000000000000000000000000000000000000000000e40166a07a000000000000000000000000a0b86991c6218b36c1d19d4a2e9eb0ce3606eb48000000000000000000000000d9aaec86b65d86f6a7b5b1b0c42ffa531710b6ca0000000000000000000000003f6040ecaa4759d0b7327ac39cc2d72d8b32e08c0000000000000000000000003f6040ecaa4759d0b7327ac39cc2d72d8b32e08c0000000000000000000000000000000000000000000000000000001f6ea0860000000000000000000000000000000000000000000000000000000000000000c0000000000000000000000000000000000000000000000000000000000000000000000000000000000000000000000000000000000000000000000000",
                    "decodedMethod": {
                        "callParams": [
                            {
                                "name": "_nonce",
                                "type": "uint256",
                                "value": "1,766,847,064,778,384,329,583,297,500,742,918,515,827,483,896,875,618,958,121,606,201,292,645,234"
                            },
                            {
                                "name": "_sender",
                                "type": "address",
                                "value": "0x4200000000000000000000000000000000000010"
                            },
                            {
                                "name": "_target",
                                "type": "address",
                                "value": "0x3154cf16ccdb4c6d922629664174b904d80f2c35"
                            },
                            {
                                "name": "_value",
                                "type": "uint256",
                                "value": "0"
                            },
                            {
                                "name": "_minGasLimit",
                                "type": "uint256",
                                "value": "0"
                            },
                            {
                                "name": "_message",
                                "type": "bytes",
                                "value": "0x0166a07a000000000000000000000000a0b86991c6218b36c1d19d4a2e9eb0ce3606eb48000000000000000000000000d9aaec86b65d86f6a7b5b1b0c42ffa531710b6ca0000000000000000000000003f6040ecaa4759d0b7327ac39cc2d72d8b32e08c0000000000000000000000003f6040ecaa4759d0b7327ac39cc2d72d8b32e08c0000000000000000000000000000000000000000000000000000001f6ea0860000000000000000000000000000000000000000000000000000000000000000c00000000000000000000000000000000000000000000000000000000000000000"
                            }
                        ],
                        "constructorArguments": "",
                        "name": "relayMessage",
                        "returnParams": [],
                        "signature": "relayMessage(uint256,address,address,uint256,uint256,bytes)"
                    },
                    "errorInfo": "",
                    "fromAddress": "0x49048044d57e1c92a77f79988d21fa8faf74e97e",
                    "gasUsed": 157943,
                    "id": 12,
                    "methodDecoded": true,
                    "operation": "CALL",
                    "output": "",
                    "revert": false,
                    "revertMessage": "",
                    "selector": "0xd764ad0b",
                    "status": true,
                    "value": "0"
                },
                "nodeType": 0
            },
            "13": {
                "invocation": {
                    "address": "0x8efb6b5c4767b09dc9aa6af4eaa89f749522bae2",
                    "callData": "0x0000000000000000000000000000000000000000000000000000000000000020000000000000000000000000000000000000000000000000000000000000001a4f564d5f4c3143726f7373446f6d61696e4d657373656e676572000000000000",
                    "decodedMethod": {
                        "callParams": [
                            {
                                "name": "_name",
                                "type": "string",
                                "value": "OVM_L1CrossDomainMessenger"
                            }
                        ],
                        "constructorArguments": "",
                        "name": "getAddress",
                        "returnParams": [
                            {
                                "name": "",
                                "type": "address",
                                "value": "0xd3494713a5cfad3f5359379dfa074e2ac8c6fd65"
                            }
                        ],
                        "signature": "getAddress(string)"
                    },
                    "errorInfo": "",
                    "fromAddress": "0x866e82a600a1414e583f7f13623f1ac5d58b0afa",
                    "gasUsed": 3213,
                    "id": 13,
                    "methodDecoded": true,
                    "operation": "STATICCALL",
                    "output": "0x000000000000000000000000d3494713a5cfad3f5359379dfa074e2ac8c6fd65",
                    "revert": false,
                    "revertMessage": "",
                    "selector": "0xbf40fac1",
                    "status": true,
                    "value": "0"
                },
                "nodeType": 0
            },
            "14": {
                "invocation": {
                    "address": "0xd3494713a5cfad3f5359379dfa074e2ac8c6fd65",
                    "callData": "0x000100000000000000000000000000000000000000000000000000000000637200000000000000000000000042000000000000000000000000000000000000100000000000000000000000003154cf16ccdb4c6d922629664174b904d80f2c350000000000000000000000000000000000000000000000000000000000000000000000000000000000000000000000000000000000000000000000000000000000000000000000000000000000000000000000000000000000000000000000c000000000000000000000000000000000000000000000000000000000000000e40166a07a000000000000000000000000a0b86991c6218b36c1d19d4a2e9eb0ce3606eb48000000000000000000000000d9aaec86b65d86f6a7b5b1b0c42ffa531710b6ca0000000000000000000000003f6040ecaa4759d0b7327ac39cc2d72d8b32e08c0000000000000000000000003f6040ecaa4759d0b7327ac39cc2d72d8b32e08c0000000000000000000000000000000000000000000000000000001f6ea0860000000000000000000000000000000000000000000000000000000000000000c0000000000000000000000000000000000000000000000000000000000000000000000000000000000000000000000000000000000000000000000000",
                    "decodedMethod": {
                        "callParams": [
                            {
                                "name": "_nonce",
                                "type": "uint256",
                                "value": "1,766,847,064,778,384,329,583,297,500,742,918,515,827,483,896,875,618,958,121,606,201,292,645,234"
                            },
                            {
                                "name": "_sender",
                                "type": "address",
                                "value": "0x4200000000000000000000000000000000000010"
                            },
                            {
                                "name": "_target",
                                "type": "address",
                                "value": "0x3154cf16ccdb4c6d922629664174b904d80f2c35"
                            },
                            {
                                "name": "_value",
                                "type": "uint256",
                                "value": "0"
                            },
                            {
                                "name": "_minGasLimit",
                                "type": "uint256",
                                "value": "0"
                            },
                            {
                                "name": "_message",
                                "type": "bytes",
                                "value": "0x0166a07a000000000000000000000000a0b86991c6218b36c1d19d4a2e9eb0ce3606eb48000000000000000000000000d9aaec86b65d86f6a7b5b1b0c42ffa531710b6ca0000000000000000000000003f6040ecaa4759d0b7327ac39cc2d72d8b32e08c0000000000000000000000003f6040ecaa4759d0b7327ac39cc2d72d8b32e08c0000000000000000000000000000000000000000000000000000001f6ea0860000000000000000000000000000000000000000000000000000000000000000c00000000000000000000000000000000000000000000000000000000000000000"
                            }
                        ],
                        "constructorArguments": "",
                        "name": "relayMessage",
                        "returnParams": [],
                        "signature": "relayMessage(uint256,address,address,uint256,uint256,bytes)"
                    },
                    "errorInfo": "",
                    "fromAddress": "0x866e82a600a1414e583f7f13623f1ac5d58b0afa",
                    "gasUsed": 144285,
                    "id": 14,
                    "methodDecoded": true,
                    "operation": "DELEGATECALL",
                    "output": "",
                    "revert": false,
                    "revertMessage": "",
                    "selector": "0xd764ad0b",
                    "status": true,
                    "value": "0"
                },
                "nodeType": 0
            },
            "15": {
                "invocation": {
                    "address": "0x95703e0982140d16f8eba6d158fccede42f04a4c",
                    "callData": "0x",
                    "decodedMethod": {
                        "callParams": [],
                        "constructorArguments": "",
                        "name": "paused",
                        "returnParams": [
                            {
                                "name": "paused_",
                                "type": "bool",
                                "value": false
                            }
                        ],
                        "signature": "paused()"
                    },
                    "errorInfo": "",
                    "fromAddress": "0x866e82a600a1414e583f7f13623f1ac5d58b0afa",
                    "gasUsed": 883,
                    "id": 15,
                    "methodDecoded": true,
                    "operation": "STATICCALL",
                    "output": "0x0000000000000000000000000000000000000000000000000000000000000000",
                    "revert": false,
                    "revertMessage": "",
                    "selector": "0x5c975abb",
                    "status": true,
                    "value": "0"
                },
                "nodeType": 0
            },
            "16": {
                "invocation": {
                    "address": "0x53c165169401764778f780a69701385eb0ff19b7",
                    "callData": "0x",
                    "decodedMethod": {
                        "callParams": [],
                        "constructorArguments": "",
                        "name": "paused",
                        "returnParams": [
                            {
                                "name": "paused_",
                                "type": "bool",
                                "value": false
                            }
                        ],
                        "signature": "paused()"
                    },
                    "errorInfo": "",
                    "fromAddress": "0x95703e0982140d16f8eba6d158fccede42f04a4c",
                    "gasUsed": 400,
                    "id": 16,
                    "methodDecoded": true,
                    "operation": "DELEGATECALL",
                    "output": "0x0000000000000000000000000000000000000000000000000000000000000000",
                    "revert": false,
                    "revertMessage": "",
                    "selector": "0x5c975abb",
                    "status": true,
                    "value": "0"
                },
                "nodeType": 0
            },
            "17": {
                "invocation": {
                    "address": "0x49048044d57e1c92a77f79988d21fa8faf74e97e",
                    "callData": "0x",
                    "decodedMethod": {
                        "callParams": [],
                        "constructorArguments": "",
                        "name": "l2Sender",
                        "returnParams": [
                            {
                                "name": "",
                                "type": "address",
                                "value": "0x4200000000000000000000000000000000000007"
                            }
                        ],
                        "signature": "l2Sender()"
                    },
                    "errorInfo": "",
                    "fromAddress": "0x866e82a600a1414e583f7f13623f1ac5d58b0afa",
                    "gasUsed": 830,
                    "id": 17,
                    "methodDecoded": true,
                    "operation": "STATICCALL",
                    "output": "0x0000000000000000000000004200000000000000000000000000000000000007",
                    "revert": false,
                    "revertMessage": "",
                    "selector": "0x9bf62d82",
                    "status": true,
                    "value": "0"
                },
                "nodeType": 0
            },
            "18": {
                "invocation": {
                    "address": "0x2d778797049fe9259d947d1ed8e5442226dfb589",
                    "callData": "0x",
                    "decodedMethod": {
                        "callParams": [],
                        "constructorArguments": "",
                        "name": "l2Sender",
                        "returnParams": [
                            {
                                "name": "",
                                "type": "address",
                                "value": "0x4200000000000000000000000000000000000007"
                            }
                        ],
                        "signature": "l2Sender()"
                    },
                    "errorInfo": "",
                    "fromAddress": "0x49048044d57e1c92a77f79988d21fa8faf74e97e",
                    "gasUsed": 347,
                    "id": 18,
                    "methodDecoded": true,
                    "operation": "DELEGATECALL",
                    "output": "0x0000000000000000000000004200000000000000000000000000000000000007",
                    "revert": false,
                    "revertMessage": "",
                    "selector": "0x9bf62d82",
                    "status": true,
                    "value": "0"
                },
                "nodeType": 0
            },
            "19": {
                "invocation": {
                    "address": "0x3154cf16ccdb4c6d922629664174b904d80f2c35",
                    "callData": "0x000000000000000000000000a0b86991c6218b36c1d19d4a2e9eb0ce3606eb48000000000000000000000000d9aaec86b65d86f6a7b5b1b0c42ffa531710b6ca0000000000000000000000003f6040ecaa4759d0b7327ac39cc2d72d8b32e08c0000000000000000000000003f6040ecaa4759d0b7327ac39cc2d72d8b32e08c0000000000000000000000000000000000000000000000000000001f6ea0860000000000000000000000000000000000000000000000000000000000000000c00000000000000000000000000000000000000000000000000000000000000000",
                    "decodedMethod": {
                        "callParams": [
                            {
                                "name": "_localToken",
                                "type": "address",
                                "value": "0xa0b86991c6218b36c1d19d4a2e9eb0ce3606eb48"
                            },
                            {
                                "name": "_remoteToken",
                                "type": "address",
                                "value": "0xd9aaec86b65d86f6a7b5b1b0c42ffa531710b6ca"
                            },
                            {
                                "name": "_from",
                                "type": "address",
                                "value": "0x3f6040ecaa4759d0b7327ac39cc2d72d8b32e08c"
                            },
                            {
                                "name": "_to",
                                "type": "address",
                                "value": "0x3f6040ecaa4759d0b7327ac39cc2d72d8b32e08c"
                            },
                            {
                                "name": "_amount",
                                "type": "uint256",
                                "value": "135,000,000,000"
                            },
                            {
                                "name": "_extraData",
                                "type": "bytes",
                                "value": "0x"
                            }
                        ],
                        "constructorArguments": "",
                        "name": "finalizeBridgeERC20",
                        "returnParams": [],
                        "signature": "finalizeBridgeERC20(address,address,address,address,uint256,bytes)"
                    },
                    "errorInfo": "",
                    "fromAddress": "0x866e82a600a1414e583f7f13623f1ac5d58b0afa",
                    "gasUsed": 98048,
                    "id": 19,
                    "methodDecoded": true,
                    "operation": "CALL",
                    "output": "",
                    "revert": false,
                    "revertMessage": "",
                    "selector": "0x0166a07a",
                    "status": true,
                    "value": "0"
                },
                "nodeType": 0
            },
            "2": {
                "invocation": {
                    "address": "0x95703e0982140d16f8eba6d158fccede42f04a4c",
                    "callData": "0x",
                    "decodedMethod": {
                        "callParams": [],
                        "constructorArguments": "",
                        "name": "paused",
                        "returnParams": [
                            {
                                "name": "paused_",
                                "type": "bool",
                                "value": false
                            }
                        ],
                        "signature": "paused()"
                    },
                    "errorInfo": "",
                    "fromAddress": "0x49048044d57e1c92a77f79988d21fa8faf74e97e",
                    "gasUsed": 7383,
                    "id": 2,
                    "methodDecoded": true,
                    "operation": "STATICCALL",
                    "output": "0x0000000000000000000000000000000000000000000000000000000000000000",
                    "revert": false,
                    "revertMessage": "",
                    "selector": "0x5c975abb",
                    "status": true,
                    "value": "0"
                },
                "nodeType": 0
            },
            "20": {
                "invocation": {
                    "address": "0x0475cbcaebd9ce8afa5025828d5b98dfb67e059e",
                    "callData": "0x",
                    "decodedMethod": {
                        "callParams": [],
                        "constructorArguments": "",
                        "name": "isUpgrading",
                        "returnParams": [
                            {
                                "name": "",
                                "type": "bool",
                                "value": false
                            }
                        ],
                        "signature": "isUpgrading()"
                    },
                    "errorInfo": "",
                    "fromAddress": "0x3154cf16ccdb4c6d922629664174b904d80f2c35",
                    "gasUsed": 2347,
                    "id": 20,
                    "methodDecoded": true,
                    "operation": "STATICCALL",
                    "output": "0x0000000000000000000000000000000000000000000000000000000000000000",
                    "revert": false,
                    "revertMessage": "",
                    "selector": "0xb7947262",
                    "status": true,
                    "value": "0"
                },
                "nodeType": 0
            },
            "21": {
                "invocation": {
                    "address": "0x64b5a5ed26dcb17370ff4d33a8d503f0fbd06cff",
                    "callData": "0x000000000000000000000000a0b86991c6218b36c1d19d4a2e9eb0ce3606eb48000000000000000000000000d9aaec86b65d86f6a7b5b1b0c42ffa531710b6ca0000000000000000000000003f6040ecaa4759d0b7327ac39cc2d72d8b32e08c0000000000000000000000003f6040ecaa4759d0b7327ac39cc2d72d8b32e08c0000000000000000000000000000000000000000000000000000001f6ea0860000000000000000000000000000000000000000000000000000000000000000c00000000000000000000000000000000000000000000000000000000000000000",
                    "decodedMethod": {
                        "callParams": [
                            {
                                "name": "_localToken",
                                "type": "address",
                                "value": "0xa0b86991c6218b36c1d19d4a2e9eb0ce3606eb48"
                            },
                            {
                                "name": "_remoteToken",
                                "type": "address",
                                "value": "0xd9aaec86b65d86f6a7b5b1b0c42ffa531710b6ca"
                            },
                            {
                                "name": "_from",
                                "type": "address",
                                "value": "0x3f6040ecaa4759d0b7327ac39cc2d72d8b32e08c"
                            },
                            {
                                "name": "_to",
                                "type": "address",
                                "value": "0x3f6040ecaa4759d0b7327ac39cc2d72d8b32e08c"
                            },
                            {
                                "name": "_amount",
                                "type": "uint256",
                                "value": "135,000,000,000"
                            },
                            {
                                "name": "_extraData",
                                "type": "bytes",
                                "value": "0x"
                            }
                        ],
                        "constructorArguments": "",
                        "name": "finalizeBridgeERC20",
                        "returnParams": [],
                        "signature": "finalizeBridgeERC20(address,address,address,address,uint256,bytes)"
                    },
                    "errorInfo": "",
                    "fromAddress": "0x3154cf16ccdb4c6d922629664174b904d80f2c35",
                    "gasUsed": 85288,
                    "id": 21,
                    "methodDecoded": true,
                    "operation": "DELEGATECALL",
                    "output": "",
                    "revert": false,
                    "revertMessage": "",
                    "selector": "0x0166a07a",
                    "status": true,
                    "value": "0"
                },
                "nodeType": 0
            },
            "22": {
                "invocation": {
                    "address": "0x866e82a600a1414e583f7f13623f1ac5d58b0afa",
                    "callData": "0x",
                    "decodedMethod": {
                        "callParams": [],
                        "constructorArguments": "",
                        "name": "xDomainMessageSender",
                        "returnParams": [
                            {
                                "name": "",
                                "type": "address",
                                "value": "0x4200000000000000000000000000000000000010"
                            }
                        ],
                        "signature": "xDomainMessageSender()"
                    },
                    "errorInfo": "",
                    "fromAddress": "0x3154cf16ccdb4c6d922629664174b904d80f2c35",
                    "gasUsed": 3190,
                    "id": 22,
                    "methodDecoded": true,
                    "operation": "STATICCALL",
                    "output": "0x0000000000000000000000004200000000000000000000000000000000000010",
                    "revert": false,
                    "revertMessage": "",
                    "selector": "0x6e296e45",
                    "status": true,
                    "value": "0"
                },
                "nodeType": 0
            },
            "23": {
                "invocation": {
                    "address": "0x8efb6b5c4767b09dc9aa6af4eaa89f749522bae2",
                    "callData": "0x0000000000000000000000000000000000000000000000000000000000000020000000000000000000000000000000000000000000000000000000000000001a4f564d5f4c3143726f7373446f6d61696e4d657373656e676572000000000000",
                    "decodedMethod": {
                        "callParams": [
                            {
                                "name": "_name",
                                "type": "string",
                                "value": "OVM_L1CrossDomainMessenger"
                            }
                        ],
                        "constructorArguments": "",
                        "name": "getAddress",
                        "returnParams": [
                            {
                                "name": "",
                                "type": "address",
                                "value": "0xd3494713a5cfad3f5359379dfa074e2ac8c6fd65"
                            }
                        ],
                        "signature": "getAddress(string)"
                    },
                    "errorInfo": "",
                    "fromAddress": "0x866e82a600a1414e583f7f13623f1ac5d58b0afa",
                    "gasUsed": 1213,
                    "id": 23,
                    "methodDecoded": true,
                    "operation": "STATICCALL",
                    "output": "0x000000000000000000000000d3494713a5cfad3f5359379dfa074e2ac8c6fd65",
                    "revert": false,
                    "revertMessage": "",
                    "selector": "0xbf40fac1",
                    "status": true,
                    "value": "0"
                },
                "nodeType": 0
            },
            "24": {
                "invocation": {
                    "address": "0xd3494713a5cfad3f5359379dfa074e2ac8c6fd65",
                    "callData": "0x",
                    "decodedMethod": {
                        "callParams": [],
                        "constructorArguments": "",
                        "name": "xDomainMessageSender",
                        "returnParams": [
                            {
                                "name": "",
                                "type": "address",
                                "value": "0x4200000000000000000000000000000000000010"
                            }
                        ],
                        "signature": "xDomainMessageSender()"
                    },
                    "errorInfo": "",
                    "fromAddress": "0x866e82a600a1414e583f7f13623f1ac5d58b0afa",
                    "gasUsed": 549,
                    "id": 24,
                    "methodDecoded": true,
                    "operation": "DELEGATECALL",
                    "output": "0x0000000000000000000000004200000000000000000000000000000000000010",
                    "revert": false,
                    "revertMessage": "",
                    "selector": "0x6e296e45",
                    "status": true,
                    "value": "0"
                },
                "nodeType": 0
            },
            "25": {
                "invocation": {
                    "address": "0x95703e0982140d16f8eba6d158fccede42f04a4c",
                    "callData": "0x",
                    "decodedMethod": {
                        "callParams": [],
                        "constructorArguments": "",
                        "name": "paused",
                        "returnParams": [
                            {
                                "name": "paused_",
                                "type": "bool",
                                "value": false
                            }
                        ],
                        "signature": "paused()"
                    },
                    "errorInfo": "",
                    "fromAddress": "0x3154cf16ccdb4c6d922629664174b904d80f2c35",
                    "gasUsed": 883,
                    "id": 25,
                    "methodDecoded": true,
                    "operation": "STATICCALL",
                    "output": "0x0000000000000000000000000000000000000000000000000000000000000000",
                    "revert": false,
                    "revertMessage": "",
                    "selector": "0x5c975abb",
                    "status": true,
                    "value": "0"
                },
                "nodeType": 0
            },
            "26": {
                "invocation": {
                    "address": "0x53c165169401764778f780a69701385eb0ff19b7",
                    "callData": "0x",
                    "decodedMethod": {
                        "callParams": [],
                        "constructorArguments": "",
                        "name": "paused",
                        "returnParams": [
                            {
                                "name": "paused_",
                                "type": "bool",
                                "value": false
                            }
                        ],
                        "signature": "paused()"
                    },
                    "errorInfo": "",
                    "fromAddress": "0x95703e0982140d16f8eba6d158fccede42f04a4c",
                    "gasUsed": 400,
                    "id": 26,
                    "methodDecoded": true,
                    "operation": "DELEGATECALL",
                    "output": "0x0000000000000000000000000000000000000000000000000000000000000000",
                    "revert": false,
                    "revertMessage": "",
                    "selector": "0x5c975abb",
                    "status": true,
                    "value": "0"
                },
                "nodeType": 0
            },
            "27": {
                "invocation": {
                    "address": "0xa0b86991c6218b36c1d19d4a2e9eb0ce3606eb48",
                    "callData": "0x01ffc9a700000000000000000000000000000000000000000000000000000000",
                    "decodedMethod": {
                        "callParams": [
                            {
                                "name": "interfaceId",
                                "type": "bytes4",
                                "value": "0x01ffc9a7"
                            }
                        ],
                        "constructorArguments": "",
                        "name": "supportsInterface",
                        "returnParams": [],
                        "signature": "supportsInterface(bytes4)"
                    },
                    "errorInfo": "execution reverted",
                    "fromAddress": "0x3154cf16ccdb4c6d922629664174b904d80f2c35",
                    "gasUsed": 7524,
                    "id": 27,
                    "methodDecoded": true,
                    "operation": "STATICCALL",
                    "output": "",
                    "revert": true,
                    "revertMessage": "",
                    "selector": "0x01ffc9a7",
                    "status": false,
                    "value": "0"
                },
                "nodeType": 0
            },
            "28": {
                "invocation": {
                    "address": "0x43506849d7c04f9138d1a2050bbf3a0c054402dd",
                    "callData": "0x01ffc9a700000000000000000000000000000000000000000000000000000000",
                    "decodedMethod": {
                        "callParams": [
                            {
                                "name": "interfaceId",
                                "type": "bytes4",
                                "value": "0x01ffc9a7"
                            }
                        ],
                        "constructorArguments": "",
                        "name": "supportsInterface",
                        "returnParams": [],
                        "signature": "supportsInterface(bytes4)"
                    },
                    "errorInfo": "execution reverted",
                    "fromAddress": "0xa0b86991c6218b36c1d19d4a2e9eb0ce3606eb48",
                    "gasUsed": 240,
                    "id": 28,
                    "methodDecoded": true,
                    "operation": "DELEGATECALL",
                    "output": "",
                    "revert": true,
                    "revertMessage": "",
                    "selector": "0x01ffc9a7",
                    "status": false,
                    "value": "0"
                },
                "nodeType": 0
            },
            "29": {
                "invocation": {
                    "address": "0xa0b86991c6218b36c1d19d4a2e9eb0ce3606eb48",
                    "callData": "0x01ffc9a700000000000000000000000000000000000000000000000000000000",
                    "decodedMethod": {
                        "callParams": [
                            {
                                "name": "interfaceId",
                                "type": "bytes4",
                                "value": "0x01ffc9a7"
                            }
                        ],
                        "constructorArguments": "",
                        "name": "supportsInterface",
                        "returnParams": [],
                        "signature": "supportsInterface(bytes4)"
                    },
                    "errorInfo": "execution reverted",
                    "fromAddress": "0x3154cf16ccdb4c6d922629664174b904d80f2c35",
                    "gasUsed": 7524,
                    "id": 29,
                    "methodDecoded": true,
                    "operation": "STATICCALL",
                    "output": "",
                    "revert": true,
                    "revertMessage": "",
                    "selector": "0x01ffc9a7",
                    "status": false,
                    "value": "0"
                },
                "nodeType": 0
            },
            "3": {
                "invocation": {
                    "address": "0x53c165169401764778f780a69701385eb0ff19b7",
                    "callData": "0x",
                    "decodedMethod": {
                        "callParams": [],
                        "constructorArguments": "",
                        "name": "paused",
                        "returnParams": [
                            {
                                "name": "paused_",
                                "type": "bool",
                                "value": false
                            }
                        ],
                        "signature": "paused()"
                    },
                    "errorInfo": "",
                    "fromAddress": "0x95703e0982140d16f8eba6d158fccede42f04a4c",
                    "gasUsed": 2400,
                    "id": 3,
                    "methodDecoded": true,
                    "operation": "DELEGATECALL",
                    "output": "0x0000000000000000000000000000000000000000000000000000000000000000",
                    "revert": false,
                    "revertMessage": "",
                    "selector": "0x5c975abb",
                    "status": true,
                    "value": "0"
                },
                "nodeType": 0
            },
            "30": {
                "invocation": {
                    "address": "0x43506849d7c04f9138d1a2050bbf3a0c054402dd",
                    "callData": "0x01ffc9a700000000000000000000000000000000000000000000000000000000",
                    "decodedMethod": {
                        "callParams": [
                            {
                                "name": "interfaceId",
                                "type": "bytes4",
                                "value": "0x01ffc9a7"
                            }
                        ],
                        "constructorArguments": "",
                        "name": "supportsInterface",
                        "returnParams": [],
                        "signature": "supportsInterface(bytes4)"
                    },
                    "errorInfo": "execution reverted",
                    "fromAddress": "0xa0b86991c6218b36c1d19d4a2e9eb0ce3606eb48",
                    "gasUsed": 240,
                    "id": 30,
                    "methodDecoded": true,
                    "operation": "DELEGATECALL",
                    "output": "",
                    "revert": true,
                    "revertMessage": "",
                    "selector": "0x01ffc9a7",
                    "status": false,
                    "value": "0"
                },
                "nodeType": 0
            },
            "31": {
                "invocation": {
                    "address": "0xa0b86991c6218b36c1d19d4a2e9eb0ce3606eb48",
                    "callData": "0x0000000000000000000000003f6040ecaa4759d0b7327ac39cc2d72d8b32e08c0000000000000000000000000000000000000000000000000000001f6ea08600",
                    "decodedMethod": {
                        "callParams": [
                            {
                                "name": "to",
                                "type": "address",
                                "value": "0x3f6040ecaa4759d0b7327ac39cc2d72d8b32e08c"
                            },
                            {
                                "decimalAvailable": true,
                                "name": "value",
                                "type": "uint256",
                                "value": "135,000,000,000"
                            }
                        ],
                        "constructorArguments": "",
                        "name": "transfer",
                        "returnParams": [
                            {
                                "name": "",
                                "type": "bool",
                                "value": true
                            }
                        ],
                        "signature": "transfer(address,uint256)"
                    },
                    "errorInfo": "",
                    "fromAddress": "0x3154cf16ccdb4c6d922629664174b904d80f2c35",
                    "gasUsed": 40652,
                    "id": 31,
                    "methodDecoded": true,
                    "operation": "CALL",
                    "output": "0x0000000000000000000000000000000000000000000000000000000000000001",
                    "revert": false,
                    "revertMessage": "",
                    "selector": "0xa9059cbb",
                    "status": true,
                    "value": "0"
                },
                "nodeType": 0
            },
            "32": {
                "invocation": {
                    "address": "0x43506849d7c04f9138d1a2050bbf3a0c054402dd",
                    "callData": "0x0000000000000000000000003f6040ecaa4759d0b7327ac39cc2d72d8b32e08c0000000000000000000000000000000000000000000000000000001f6ea08600",
                    "decodedMethod": {
                        "callParams": [
                            {
                                "name": "to",
                                "type": "address",
                                "value": "0x3f6040ecaa4759d0b7327ac39cc2d72d8b32e08c"
                            },
                            {
                                "decimalAvailable": true,
                                "name": "value",
                                "type": "uint256",
                                "value": "135,000,000,000"
                            }
                        ],
                        "constructorArguments": "",
                        "name": "transfer",
                        "returnParams": [
                            {
                                "name": "",
                                "type": "bool",
                                "value": true
                            }
                        ],
                        "signature": "transfer(address,uint256)"
                    },
                    "errorInfo": "",
                    "fromAddress": "0xa0b86991c6218b36c1d19d4a2e9eb0ce3606eb48",
                    "gasUsed": 33363,
                    "id": 32,
                    "methodDecoded": true,
                    "operation": "DELEGATECALL",
                    "output": "0x0000000000000000000000000000000000000000000000000000000000000001",
                    "revert": false,
                    "revertMessage": "",
                    "selector": "0xa9059cbb",
                    "status": true,
                    "value": "0"
                },
                "nodeType": 0
            },
            "33": {
                "event": {
                    "contract": "0xa0b86991c6218b36c1d19d4a2e9eb0ce3606eb48",
                    "decodedLog": {
                        "name": "Transfer",
                        "params": [
                            {
                                "name": "from",
                                "type": "address",
                                "value": "0x3154cf16ccdb4c6d922629664174b904d80f2c35"
                            },
                            {
                                "name": "to",
                                "type": "address",
                                "value": "0x3f6040ecaa4759d0b7327ac39cc2d72d8b32e08c"
                            },
                            {
                                "decimalAvailable": true,
                                "name": "value",
                                "type": "uint256",
                                "value": "135,000,000,000"
                            }
                        ],
                        "signature": "Transfer(address,address,uint256)"
                    },
                    "id": 33,
                    "logData": "0x0000000000000000000000000000000000000000000000000000001f6ea08600",
                    "logDecoded": true,
                    "operation": "EVENT",
                    "revert": false,
                    "status": true,
                    "topics": [
                        "0xddf252ad1be2c89b69c2b068fc378daa952ba7f163c4a11628f55a4df523b3ef",
                        "0x0000000000000000000000003154cf16ccdb4c6d922629664174b904d80f2c35",
                        "0x0000000000000000000000003f6040ecaa4759d0b7327ac39cc2d72d8b32e08c"
                    ]
                },
                "nodeType": 1
            },
            "34": {
                "event": {
                    "contract": "0x3154cf16ccdb4c6d922629664174b904d80f2c35",
                    "decodedLog": {
                        "name": "ERC20WithdrawalFinalized",
                        "params": [
                            {
                                "name": "l1Token",
                                "type": "address",
                                "value": "0xa0b86991c6218b36c1d19d4a2e9eb0ce3606eb48"
                            },
                            {
                                "name": "l2Token",
                                "type": "address",
                                "value": "0xd9aaec86b65d86f6a7b5b1b0c42ffa531710b6ca"
                            },
                            {
                                "name": "from",
                                "type": "address",
                                "value": "0x3f6040ecaa4759d0b7327ac39cc2d72d8b32e08c"
                            },
                            {
                                "name": "to",
                                "type": "address",
                                "value": "0x3f6040ecaa4759d0b7327ac39cc2d72d8b32e08c"
                            },
                            {
                                "name": "amount",
                                "type": "uint256",
                                "value": "135,000,000,000"
                            },
                            {
                                "name": "extraData",
                                "type": "bytes",
                                "value": "0x"
                            }
                        ],
                        "signature": "ERC20WithdrawalFinalized(address,address,address,address,uint256,bytes)"
                    },
                    "id": 34,
                    "logData": "0x0000000000000000000000003f6040ecaa4759d0b7327ac39cc2d72d8b32e08c0000000000000000000000000000000000000000000000000000001f6ea0860000000000000000000000000000000000000000000000000000000000000000600000000000000000000000000000000000000000000000000000000000000000",
                    "logDecoded": true,
                    "operation": "EVENT",
                    "revert": false,
                    "status": true,
                    "topics": [
                        "0x3ceee06c1e37648fcbb6ed52e17b3e1f275a1f8c7b22a84b2b84732431e046b3",
                        "0x000000000000000000000000a0b86991c6218b36c1d19d4a2e9eb0ce3606eb48",
                        "0x000000000000000000000000d9aaec86b65d86f6a7b5b1b0c42ffa531710b6ca",
                        "0x0000000000000000000000003f6040ecaa4759d0b7327ac39cc2d72d8b32e08c"
                    ]
                },
                "nodeType": 1
            },
            "35": {
                "event": {
                    "contract": "0x3154cf16ccdb4c6d922629664174b904d80f2c35",
                    "decodedLog": {
                        "name": "ERC20BridgeFinalized",
                        "params": [
                            {
                                "name": "localToken",
                                "type": "address",
                                "value": "0xa0b86991c6218b36c1d19d4a2e9eb0ce3606eb48"
                            },
                            {
                                "name": "remoteToken",
                                "type": "address",
                                "value": "0xd9aaec86b65d86f6a7b5b1b0c42ffa531710b6ca"
                            },
                            {
                                "name": "from",
                                "type": "address",
                                "value": "0x3f6040ecaa4759d0b7327ac39cc2d72d8b32e08c"
                            },
                            {
                                "name": "to",
                                "type": "address",
                                "value": "0x3f6040ecaa4759d0b7327ac39cc2d72d8b32e08c"
                            },
                            {
                                "name": "amount",
                                "type": "uint256",
                                "value": "135,000,000,000"
                            },
                            {
                                "name": "extraData",
                                "type": "bytes",
                                "value": "0x"
                            }
                        ],
                        "signature": "ERC20BridgeFinalized(address,address,address,address,uint256,bytes)"
                    },
                    "id": 35,
                    "logData": "0x0000000000000000000000003f6040ecaa4759d0b7327ac39cc2d72d8b32e08c0000000000000000000000000000000000000000000000000000001f6ea0860000000000000000000000000000000000000000000000000000000000000000600000000000000000000000000000000000000000000000000000000000000000",
                    "logDecoded": true,
                    "operation": "EVENT",
                    "revert": false,
                    "status": true,
                    "topics": [
                        "0xd59c65b35445225835c83f50b6ede06a7be047d22e357073e250d9af537518cd",
                        "0x000000000000000000000000a0b86991c6218b36c1d19d4a2e9eb0ce3606eb48",
                        "0x000000000000000000000000d9aaec86b65d86f6a7b5b1b0c42ffa531710b6ca",
                        "0x0000000000000000000000003f6040ecaa4759d0b7327ac39cc2d72d8b32e08c"
                    ]
                },
                "nodeType": 1
            },
            "36": {
                "event": {
                    "contract": "0x866e82a600a1414e583f7f13623f1ac5d58b0afa",
                    "decodedLog": {
                        "name": "RelayedMessage",
                        "params": [
                            {
                                "name": "msgHash",
                                "type": "bytes32",
                                "value": "0xef5b3f9d628d5ff935027220a9e6df7d94fda72bfad48c4ae65fca8f918cdc65"
                            }
                        ],
                        "signature": "RelayedMessage(bytes32)"
                    },
                    "id": 36,
                    "logData": "0x",
                    "logDecoded": true,
                    "operation": "EVENT",
                    "revert": false,
                    "status": true,
                    "topics": [
                        "0x4641df4a962071e12719d8c8c8e5ac7fc4d97b927346a3d7a335b1f7517e133c",
                        "0xef5b3f9d628d5ff935027220a9e6df7d94fda72bfad48c4ae65fca8f918cdc65"
                    ]
                },
                "nodeType": 1
            },
            "37": {
                "event": {
                    "contract": "0x49048044d57e1c92a77f79988d21fa8faf74e97e",
                    "decodedLog": {
                        "name": "WithdrawalFinalized",
                        "params": [
                            {
                                "name": "withdrawalHash",
                                "type": "bytes32",
                                "value": "0xbd3a0a33765ce1ab460507c15490ee883a943e1bce9b2d3de0758219d78b55b8"
                            },
                            {
                                "name": "success",
                                "type": "bool",
                                "value": true
                            }
                        ],
                        "signature": "WithdrawalFinalized(bytes32,bool)"
                    },
                    "id": 37,
                    "logData": "0x0000000000000000000000000000000000000000000000000000000000000001",
                    "logDecoded": true,
                    "operation": "EVENT",
                    "revert": false,
                    "status": true,
                    "topics": [
                        "0xdb5c7652857aa163daadd670e116628fb42e869d8ac4251ef8971d9e5727df1b",
                        "0xbd3a0a33765ce1ab460507c15490ee883a943e1bce9b2d3de0758219d78b55b8"
                    ]
                },
                "nodeType": 1
            },
            "4": {
                "invocation": {
                    "address": "0x56315b90c40730925ec5485cf004d835058518a0",
                    "callData": "0x",
                    "decodedMethod": {
                        "callParams": [],
                        "constructorArguments": "",
                        "name": "startingTimestamp",
                        "returnParams": [
                            {
                                "name": "",
                                "type": "uint256",
                                "value": "1,686,789,348"
                            }
                        ],
                        "signature": "startingTimestamp()"
                    },
                    "errorInfo": "",
                    "fromAddress": "0x49048044d57e1c92a77f79988d21fa8faf74e97e",
                    "gasUsed": 7356,
                    "id": 4,
                    "methodDecoded": true,
                    "operation": "STATICCALL",
                    "output": "0x00000000000000000000000000000000000000000000000000000000648a5ce4",
                    "revert": false,
                    "revertMessage": "",
                    "selector": "0x88786272",
                    "status": true,
                    "value": "0"
                },
                "nodeType": 0
            },
            "5": {
                "invocation": {
                    "address": "0xf243bed163251380e78068d317ae10f26042b292",
                    "callData": "0x",
                    "decodedMethod": {
                        "callParams": [],
                        "constructorArguments": "",
                        "name": "startingTimestamp",
                        "returnParams": [
                            {
                                "name": "",
                                "type": "uint256",
                                "value": "1,686,789,348"
                            }
                        ],
                        "signature": "startingTimestamp()"
                    },
                    "errorInfo": "",
                    "fromAddress": "0x56315b90c40730925ec5485cf004d835058518a0",
                    "gasUsed": 2373,
                    "id": 5,
                    "methodDecoded": true,
                    "operation": "DELEGATECALL",
                    "output": "0x00000000000000000000000000000000000000000000000000000000648a5ce4",
                    "revert": false,
                    "revertMessage": "",
                    "selector": "0x88786272",
                    "status": true,
                    "value": "0"
                },
                "nodeType": 0
            },
            "6": {
                "invocation": {
                    "address": "0x56315b90c40730925ec5485cf004d835058518a0",
                    "callData": "0x",
                    "decodedMethod": {
                        "callParams": [],
                        "constructorArguments": "",
                        "name": "FINALIZATION_PERIOD_SECONDS",
                        "returnParams": [
                            {
                                "name": "",
                                "type": "uint256",
                                "value": "604,800"
                            }
                        ],
                        "signature": "FINALIZATION_PERIOD_SECONDS()"
                    },
                    "errorInfo": "",
                    "fromAddress": "0x49048044d57e1c92a77f79988d21fa8faf74e97e",
                    "gasUsed": 2852,
                    "id": 6,
                    "methodDecoded": true,
                    "operation": "STATICCALL",
                    "output": "0x0000000000000000000000000000000000000000000000000000000000093a80",
                    "revert": false,
                    "revertMessage": "",
                    "selector": "0xf4daa291",
                    "status": true,
                    "value": "0"
                },
                "nodeType": 0
            },
            "7": {
                "invocation": {
                    "address": "0xf243bed163251380e78068d317ae10f26042b292",
                    "callData": "0x",
                    "decodedMethod": {
                        "callParams": [],
                        "constructorArguments": "",
                        "name": "FINALIZATION_PERIOD_SECONDS",
                        "returnParams": [
                            {
                                "name": "",
                                "type": "uint256",
                                "value": "604,800"
                            }
                        ],
                        "signature": "FINALIZATION_PERIOD_SECONDS()"
                    },
                    "errorInfo": "",
                    "fromAddress": "0x56315b90c40730925ec5485cf004d835058518a0",
                    "gasUsed": 2369,
                    "id": 7,
                    "methodDecoded": true,
                    "operation": "DELEGATECALL",
                    "output": "0x0000000000000000000000000000000000000000000000000000000000093a80",
                    "revert": false,
                    "revertMessage": "",
                    "selector": "0xf4daa291",
                    "status": true,
                    "value": "0"
                },
                "nodeType": 0
            },
            "8": {
                "invocation": {
                    "address": "0x56315b90c40730925ec5485cf004d835058518a0",
                    "callData": "0x00000000000000000000000000000000000000000000000000000000000029e8",
                    "decodedMethod": {
                        "callParams": [
                            {
                                "name": "_l2OutputIndex",
                                "type": "uint256",
                                "value": "10,728"
                            }
                        ],
                        "constructorArguments": "",
                        "name": "getL2Output",
                        "returnParams": [
                            {
                                "name": "",
                                "type": "(bytes32,uint128,uint128)",
                                "value": [
                                    {
                                        "name": "outputRoot",
                                        "type": "bytes32",
                                        "value": "0xaae1c12af4aade33eb36c198c21b979dbf3616f496ad1d133d2e422a792d3a8c"
                                    },
                                    {
                                        "name": "timestamp",
                                        "type": "uint128",
                                        "value": "1,725,414,959"
                                    },
                                    {
                                        "name": "l2BlockNumber",
                                        "type": "uint128",
                                        "value": "19,312,200"
                                    }
                                ]
                            }
                        ],
                        "signature": "getL2Output(uint256)"
                    },
                    "errorInfo": "",
                    "fromAddress": "0x49048044d57e1c92a77f79988d21fa8faf74e97e",
                    "gasUsed": 7536,
                    "id": 8,
                    "methodDecoded": true,
                    "operation": "STATICCALL",
                    "output": "0xaae1c12af4aade33eb36c198c21b979dbf3616f496ad1d133d2e422a792d3a8c0000000000000000000000000000000000000000000000000000000066d7be2f000000000000000000000000000000000000000000000000000000000126ae48",
                    "revert": false,
                    "revertMessage": "",
                    "selector": "0xa25ae557",
                    "status": true,
                    "value": "0"
                },
                "nodeType": 0
            },
            "9": {
                "invocation": {
                    "address": "0xf243bed163251380e78068d317ae10f26042b292",
                    "callData": "0x00000000000000000000000000000000000000000000000000000000000029e8",
                    "decodedMethod": {
                        "callParams": [
                            {
                                "name": "_l2OutputIndex",
                                "type": "uint256",
                                "value": "10,728"
                            }
                        ],
                        "constructorArguments": "",
                        "name": "getL2Output",
                        "returnParams": [
                            {
                                "name": "",
                                "type": "(bytes32,uint128,uint128)",
                                "value": [
                                    {
                                        "name": "outputRoot",
                                        "type": "bytes32",
                                        "value": "0xaae1c12af4aade33eb36c198c21b979dbf3616f496ad1d133d2e422a792d3a8c"
                                    },
                                    {
                                        "name": "timestamp",
                                        "type": "uint128",
                                        "value": "1,725,414,959"
                                    },
                                    {
                                        "name": "l2BlockNumber",
                                        "type": "uint128",
                                        "value": "19,312,200"
                                    }
                                ]
                            }
                        ],
                        "signature": "getL2Output(uint256)"
                    },
                    "errorInfo": "",
                    "fromAddress": "0x56315b90c40730925ec5485cf004d835058518a0",
                    "gasUsed": 7044,
                    "id": 9,
                    "methodDecoded": true,
                    "operation": "DELEGATECALL",
                    "output": "0xaae1c12af4aade33eb36c198c21b979dbf3616f496ad1d133d2e422a792d3a8c0000000000000000000000000000000000000000000000000000000066d7be2f000000000000000000000000000000000000000000000000000000000126ae48",
                    "revert": false,
                    "revertMessage": "",
                    "selector": "0xa25ae557",
                    "status": true,
                    "value": "0"
                },
                "nodeType": 0
            }
        },
        "gasFlame": [
            {
                "children": [
                    {
                        "children": [
                            {
                                "children": [],
                                "depth": 0,
                                "name": "Initial Gas",
                                "value": 25960
                            },
                            {
                                "children": [
                                    {
                                        "children": [
                                            {
                                                "children": [
                                                    {
                                                        "children": [],
                                                        "depth": 3,
                                                        "name": "paused",
                                                        "value": 2400
                                                    }
                                                ],
                                                "depth": 2,
                                                "name": "paused",
                                                "value": 7383
                                            },
                                            {
                                                "children": [
                                                    {
                                                        "children": [],
                                                        "depth": 3,
                                                        "name": "startingTimestamp",
                                                        "value": 2373
                                                    }
                                                ],
                                                "depth": 2,
                                                "name": "startingTimestamp",
                                                "value": 7356
                                            },
                                            {
                                                "children": [
                                                    {
                                                        "children": [],
                                                        "depth": 3,
                                                        "name": "FINALIZATION_PERIOD_SECONDS",
                                                        "value": 2369
                                                    }
                                                ],
                                                "depth": 2,
                                                "name": "FINALIZATION_PERIOD_SECONDS",
                                                "value": 2852
                                            },
                                            {
                                                "children": [
                                                    {
                                                        "children": [],
                                                        "depth": 3,
                                                        "name": "getL2Output",
                                                        "value": 7044
                                                    }
                                                ],
                                                "depth": 2,
                                                "name": "getL2Output",
                                                "value": 7536
                                            },
                                            {
                                                "children": [
                                                    {
                                                        "children": [],
                                                        "depth": 3,
                                                        "name": "FINALIZATION_PERIOD_SECONDS",
                                                        "value": 369
                                                    }
                                                ],
                                                "depth": 2,
                                                "name": "FINALIZATION_PERIOD_SECONDS",
                                                "value": 852
                                            },
                                            {
                                                "children": [
                                                    {
                                                        "children": [],
                                                        "depth": 3,
                                                        "name": "getAddress",
                                                        "value": 3213
                                                    },
                                                    {
                                                        "children": [
                                                            {
                                                                "children": [
                                                                    {
                                                                        "children": [],
                                                                        "depth": 5,
                                                                        "name": "paused",
                                                                        "value": 400
                                                                    }
                                                                ],
                                                                "depth": 4,
                                                                "name": "paused",
                                                                "value": 883
                                                            },
                                                            {
                                                                "children": [
                                                                    {
                                                                        "children": [],
                                                                        "depth": 5,
                                                                        "name": "l2Sender",
                                                                        "value": 347
                                                                    }
                                                                ],
                                                                "depth": 4,
                                                                "name": "l2Sender",
                                                                "value": 830
                                                            },
                                                            {
                                                                "children": [
                                                                    {
                                                                        "children": [],
                                                                        "depth": 5,
                                                                        "name": "isUpgrading",
                                                                        "value": 2347
                                                                    },
                                                                    {
                                                                        "children": [
                                                                            {
                                                                                "children": [
                                                                                    {
                                                                                        "children": [],
                                                                                        "depth": 7,
                                                                                        "name": "getAddress",
                                                                                        "value": 1213
                                                                                    },
                                                                                    {
                                                                                        "children": [],
                                                                                        "depth": 7,
                                                                                        "name": "xDomainMessageSender",
                                                                                        "value": 549
                                                                                    }
                                                                                ],
                                                                                "depth": 6,
                                                                                "name": "xDomainMessageSender",
                                                                                "value": 3190
                                                                            },
                                                                            {
                                                                                "children": [
                                                                                    {
                                                                                        "children": [],
                                                                                        "depth": 7,
                                                                                        "name": "paused",
                                                                                        "value": 400
                                                                                    }
                                                                                ],
                                                                                "depth": 6,
                                                                                "name": "paused",
                                                                                "value": 883
                                                                            },
                                                                            {
                                                                                "children": [
                                                                                    {
                                                                                        "children": [],
                                                                                        "depth": 7,
                                                                                        "name": "supportsInterface",
                                                                                        "value": 240
                                                                                    }
                                                                                ],
                                                                                "depth": 6,
                                                                                "name": "supportsInterface",
                                                                                "value": 7524
                                                                            },
                                                                            {
                                                                                "children": [
                                                                                    {
                                                                                        "children": [],
                                                                                        "depth": 7,
                                                                                        "name": "supportsInterface",
                                                                                        "value": 240
                                                                                    }
                                                                                ],
                                                                                "depth": 6,
                                                                                "name": "supportsInterface",
                                                                                "value": 7524
                                                                            },
                                                                            {
                                                                                "children": [
                                                                                    {
                                                                                        "children": [],
                                                                                        "depth": 7,
                                                                                        "name": "transfer",
                                                                                        "value": 33363
                                                                                    }
                                                                                ],
                                                                                "depth": 6,
                                                                                "name": "transfer",
                                                                                "value": 40652
                                                                            }
                                                                        ],
                                                                        "depth": 5,
                                                                        "name": "finalizeBridgeERC20",
                                                                        "value": 85288
                                                                    }
                                                                ],
                                                                "depth": 4,
                                                                "name": "finalizeBridgeERC20",
                                                                "value": 98048
                                                            }
                                                        ],
                                                        "depth": 3,
                                                        "name": "relayMessage",
                                                        "value": 144285
                                                    }
                                                ],
                                                "depth": 2,
                                                "name": "relayMessage",
                                                "value": 157943
                                            }
                                        ],
                                        "depth": 1,
                                        "name": "finalizeWithdrawalTransaction",
                                        "value": 235725
                                    }
                                ],
                                "depth": 0,
                                "name": "Executed Gas",
                                "value": 240844
                            }
                        ],
                        "depth": -1,
                        "name": "Actual Gas Used",
                        "value": 261204
                    },
                    {
                        "children": [],
                        "depth": -1,
                        "name": "Refunded Gas",
                        "value": 5600
                    }
                ],
                "depth": -2,
                "name": "Total Gas",
                "value": 266804
            }
        ],
        "isConfirmed": true,
        "mainTrace": [
            {
                "children": [
                    {
                        "children": [
                            {
                                "children": [
                                    {
                                        "children": [
                                            {
                                                "children": [],
                                                "depth": 3,
                                                "id": 3,
                                                "order": 3
                                            }
                                        ],
                                        "depth": 2,
                                        "id": 2,
                                        "order": 2
                                    },
                                    {
                                        "children": [
                                            {
                                                "children": [],
                                                "depth": 3,
                                                "id": 5,
                                                "order": 5
                                            }
                                        ],
                                        "depth": 2,
                                        "id": 4,
                                        "order": 4
                                    },
                                    {
                                        "children": [
                                            {
                                                "children": [],
                                                "depth": 3,
                                                "id": 7,
                                                "order": 7
                                            }
                                        ],
                                        "depth": 2,
                                        "id": 6,
                                        "order": 6
                                    },
                                    {
                                        "children": [
                                            {
                                                "children": [],
                                                "depth": 3,
                                                "id": 9,
                                                "order": 9
                                            }
                                        ],
                                        "depth": 2,
                                        "id": 8,
                                        "order": 8
                                    },
                                    {
                                        "children": [
                                            {
                                                "children": [],
                                                "depth": 3,
                                                "id": 11,
                                                "order": 11
                                            }
                                        ],
                                        "depth": 2,
                                        "id": 10,
                                        "order": 10
                                    },
                                    {
                                        "children": [
                                            {
                                                "children": [],
                                                "depth": 3,
                                                "id": 13,
                                                "order": 13
                                            },
                                            {
                                                "children": [
                                                    {
                                                        "children": [
                                                            {
                                                                "children": [],
                                                                "depth": 5,
                                                                "id": 16,
                                                                "order": 16
                                                            }
                                                        ],
                                                        "depth": 4,
                                                        "id": 15,
                                                        "order": 15
                                                    },
                                                    {
                                                        "children": [
                                                            {
                                                                "children": [],
                                                                "depth": 5,
                                                                "id": 18,
                                                                "order": 18
                                                            }
                                                        ],
                                                        "depth": 4,
                                                        "id": 17,
                                                        "order": 17
                                                    },
                                                    {
                                                        "children": [
                                                            {
                                                                "children": [],
                                                                "depth": 5,
                                                                "id": 20,
                                                                "order": 20
                                                            },
                                                            {
                                                                "children": [
                                                                    {
                                                                        "children": [
                                                                            {
                                                                                "children": [],
                                                                                "depth": 7,
                                                                                "id": 23,
                                                                                "order": 23
                                                                            },
                                                                            {
                                                                                "children": [],
                                                                                "depth": 7,
                                                                                "id": 24,
                                                                                "order": 24
                                                                            }
                                                                        ],
                                                                        "depth": 6,
                                                                        "id": 22,
                                                                        "order": 22
                                                                    },
                                                                    {
                                                                        "children": [
                                                                            {
                                                                                "children": [],
                                                                                "depth": 7,
                                                                                "id": 26,
                                                                                "order": 26
                                                                            }
                                                                        ],
                                                                        "depth": 6,
                                                                        "id": 25,
                                                                        "order": 25
                                                                    },
                                                                    {
                                                                        "children": [
                                                                            {
                                                                                "children": [],
                                                                                "depth": 7,
                                                                                "id": 28,
                                                                                "order": 28
                                                                            }
                                                                        ],
                                                                        "depth": 6,
                                                                        "id": 27,
                                                                        "order": 27
                                                                    },
                                                                    {
                                                                        "children": [
                                                                            {
                                                                                "children": [],
                                                                                "depth": 7,
                                                                                "id": 30,
                                                                                "order": 30
                                                                            }
                                                                        ],
                                                                        "depth": 6,
                                                                        "id": 29,
                                                                        "order": 29
                                                                    },
                                                                    {
                                                                        "children": [
                                                                            {
                                                                                "children": [
                                                                                    {
                                                                                        "children": [],
                                                                                        "depth": 8,
                                                                                        "id": 33,
                                                                                        "order": 33
                                                                                    }
                                                                                ],
                                                                                "depth": 7,
                                                                                "id": 32,
                                                                                "order": 32
                                                                            }
                                                                        ],
                                                                        "depth": 6,
                                                                        "id": 31,
                                                                        "order": 31
                                                                    },
                                                                    {
                                                                        "children": [],
                                                                        "depth": 6,
                                                                        "id": 34,
                                                                        "order": 34
                                                                    },
                                                                    {
                                                                        "children": [],
                                                                        "depth": 6,
                                                                        "id": 35,
                                                                        "order": 35
                                                                    }
                                                                ],
                                                                "depth": 5,
                                                                "id": 21,
                                                                "order": 21
                                                            }
                                                        ],
                                                        "depth": 4,
                                                        "id": 19,
                                                        "order": 19
                                                    },
                                                    {
                                                        "children": [],
                                                        "depth": 4,
                                                        "id": 36,
                                                        "order": 36
                                                    }
                                                ],
                                                "depth": 3,
                                                "id": 14,
                                                "order": 14
                                            }
                                        ],
                                        "depth": 2,
                                        "id": 12,
                                        "order": 12
                                    },
                                    {
                                        "children": [],
                                        "depth": 2,
                                        "id": 37,
                                        "order": 37
                                    }
                                ],
                                "depth": 1,
                                "id": 1,
                                "order": 1
                            }
                        ],
                        "depth": 0,
                        "id": 0,
                        "order": 0
                    }
                ],
                "depth": -1,
                "id": -1,
                "order": -1
            }
        ],
        "mainTraceNodeCount": 38,
        "parentIdMap": {
            "0": -1,
            "1": 0,
            "10": 1,
            "11": 10,
            "12": 1,
            "13": 12,
            "14": 12,
            "15": 14,
            "16": 15,
            "17": 14,
            "18": 17,
            "19": 14,
            "2": 1,
            "20": 19,
            "21": 19,
            "22": 21,
            "23": 22,
            "24": 22,
            "25": 21,
            "26": 25,
            "27": 21,
            "28": 27,
            "29": 21,
            "3": 2,
            "30": 29,
            "31": 21,
            "32": 31,
            "33": 32,
            "34": 21,
            "35": 21,
            "36": 14,
            "37": 1,
            "4": 1,
            "5": 4,
            "6": 1,
            "7": 6,
            "8": 1,
            "9": 8
        },
        "tidyTrace": [
            {
                "children": [
                    {
                        "children": [
                            {
                                "children": [
                                    {
                                        "children": [
                                            {
                                                "children": [
                                                    {
                                                        "children": [
                                                            {
                                                                "children": [
                                                                    {
                                                                        "children": [
                                                                            {
                                                                                "children": [
                                                                                    {
                                                                                        "children": [],
                                                                                        "depth": 8,
                                                                                        "id": 33,
                                                                                        "order": 33
                                                                                    }
                                                                                ],
                                                                                "depth": 7,
                                                                                "id": 32,
                                                                                "order": 32
                                                                            }
                                                                        ],
                                                                        "depth": 6,
                                                                        "id": 31,
                                                                        "order": 31
                                                                    },
                                                                    {
                                                                        "children": [],
                                                                        "depth": 6,
                                                                        "id": 34,
                                                                        "order": 34
                                                                    },
                                                                    {
                                                                        "children": [],
                                                                        "depth": 6,
                                                                        "id": 35,
                                                                        "order": 35
                                                                    }
                                                                ],
                                                                "depth": 5,
                                                                "id": 21,
                                                                "order": 21
                                                            }
                                                        ],
                                                        "depth": 4,
                                                        "id": 19,
                                                        "order": 19
                                                    },
                                                    {
                                                        "children": [],
                                                        "depth": 4,
                                                        "id": 36,
                                                        "order": 36
                                                    }
                                                ],
                                                "depth": 3,
                                                "id": 14,
                                                "order": 14
                                            }
                                        ],
                                        "depth": 2,
                                        "id": 12,
                                        "order": 12
                                    },
                                    {
                                        "children": [],
                                        "depth": 2,
                                        "id": 37,
                                        "order": 37
                                    }
                                ],
                                "depth": 1,
                                "id": 1,
                                "order": 1
                            }
                        ],
                        "depth": 0,
                        "id": 0,
                        "order": 0
                    }
                ],
                "depth": -1,
                "id": -1,
                "order": -1
            }
        ],
        "tidyTraceNodeCount": 13
    },
    "state_change": {
        "stateChanges": [
            {
                "address": "0x3154cf16ccdb4c6d922629664174b904d80f2c35",
                "erc": "",
                "slots": [
                    {
                        "current": "0x000000000000000000000000000000000000000000000000000024375b958d3d",
                        "key": "0x84cc3491d2e036c36b694174eaa5f2826ee46915f8fe9268e998fc91dbbb1820",
                        "prev": "0x00000000000000000000000000000000000000000000000000002456ca36133d"
                    }
                ],
                "storageVariables": []
            },
            {
                "address": "0x49048044d57e1c92a77f79988d21fa8faf74e97e",
                "erc": "",
                "slots": [
                    {
                        "current": "0x0000000000000000000000000000000000000000000000000000000000000001",
                        "key": "0x26c0cc774cf5fb3d324fe60f7bae70a24db35fbd4af2e2d2b68d1037caa8751b",
                        "prev": "0x0000000000000000000000000000000000000000000000000000000000000000"
                    }
                ],
                "storageVariables": [
                    {
                        "name": "finalizedWithdrawals",
                        "type": "mapping(bytes32 => bool)",
                        "value": {
                            "pairs": [
                                {
                                    "key": "0xbd3a0a33765ce1ab460507c15490ee883a943e1bce9b2d3de0758219d78b55b8",
                                    "value": {
                                        "current": "true",
                                        "prev": "false",
                                        "typeTag": 1
                                    }
                                }
                            ],
                            "typeTag": 4
                        }
                    }
                ]
            },
            {
                "address": "0x866e82a600a1414e583f7f13623f1ac5d58b0afa",
                "erc": "",
                "slots": [
                    {
                        "current": "0x0000000000000000000000000000000000000000000000000000000000000001",
                        "key": "0xe9f4e3a1dde7f61fa9a6e5fbfd260c763a1c1acfc23de5f24c597a195c89a466",
                        "prev": "0x0000000000000000000000000000000000000000000000000000000000000000"
                    }
                ],
                "storageVariables": []
            },
            {
                "address": "0xa0b86991c6218b36c1d19d4a2e9eb0ce3606eb48",
                "erc": "ERC-20",
                "slots": [
                    {
                        "current": "0x0000000000000000000000000000000000000000000000000000244da6451073",
                        "key": "0x52422fd4b8eb961f6828a0a2563b2df5365b942eb17347868f229d20eb986ad9",
                        "prev": "0x0000000000000000000000000000000000000000000000000000246d14e59673"
                    },
                    {
                        "current": "0x0000000000000000000000000000000000000000000000000000001f6ea08600",
                        "key": "0x912c5ad1672a691cd8ada87568af122dcdae3035eba6377d2cce79eb5578d7d8",
                        "prev": "0x0000000000000000000000000000000000000000000000000000000000000000"
                    }
                ],
                "storageVariables": [
                    {
                        "name": "balanceAndBlacklistStates",
                        "type": "mapping(address => uint256)",
                        "value": {
                            "pairs": [
                                {
                                    "key": "0x3154cf16ccdb4c6d922629664174b904d80f2c35",
                                    "value": {
                                        "current": "39915920625779",
                                        "prev": "40050920625779",
                                        "typeTag": 1
                                    }
                                },
                                {
                                    "key": "0x3f6040ecaa4759d0b7327ac39cc2d72d8b32e08c",
                                    "value": {
                                        "current": "135000000000",
                                        "prev": "0",
                                        "typeTag": 1
                                    }
                                }
                            ],
                            "typeTag": 4
                        }
                    }
                ]
            }
        ]
    }
}