{
    "balance_change": {
        "balanceChanges": [
            {
                "account": "0xab782bc7d4a2b306825de5a7730034f8f63ee1bc",
                "assets": [
                    {
                        "address": "0x0abdace70d3790235af448c88547603b945604ea",
                        "amount": "228,309.33",
                        "iconUrl": "",
                        "isERC1155": false,
                        "isERC721": false,
                        "sign": false,
                        "value": "3525.117812"
                    }
                ]
            },
            {
                "account": "0x8ebd9d796988993071d361616490fb71097421ed",
                "assets": [
                    {
                        "address": "0x0abdace70d3790235af448c88547603b945604ea",
                        "amount": "228,309.33",
                        "iconUrl": "",
                        "isERC1155": false,
                        "isERC721": false,
                        "sign": true,
                        "value": "3525.117812"
                    }
                ]
            }
        ]
    },
    "profile": {
        "basic_info": {
            "baseFee": "17.892066804",
            "blockNumber": 19926905,
            "callData": "0xa9059cbb0000000000000000000000008ebd9d796988993071d361616490fb71097421ed000000000000000000000000000000000000000000003058ac6fb053ba150000",
            "debugEnable": true,
            "errorInfo": "",
            "eventCount": 1,
            "feeRecipient": "0x4838b106fce9647bdf1e7877bf73ce8b0bad5f97",
            "formatValue": "0",
            "gasLimit": 135338,
            "gasPrice": "24.320708047",
            "gasUsed": 111756,
            "intTxnCount": 1,
            "internalRevert": false,
            "internalRevertMessage": "",
            "isContractCreation": false,
            "isFlashloan": false,
            "maxFee": "29.196122574",
            "nonce": 342400,
            "overwritedBlockNumber": -1,
            "priorityFee": "6.428641243",
            "receiver": "0x0abdace70d3790235af448c88547603b945604ea",
            "revertMessage": "",
            "sender": "0xab782bc7d4a2b306825de5a7730034f8f63ee1bc",
            "simulationEnable": true,
            "sourceTxnHash": "0x4fbf680da3f47034d2e36881202b3190886a1dfa7c5a5d10799d703da884429f",
            "status": true,
            "timestamp": "2024-05-22T17:26:59Z",
            "transactionFee": "0.002717985048500532",
            "txnHash": "0x4fbf680da3f47034d2e36881202b3190886a1dfa7c5a5d10799d703da884429f",
            "txnIndex": 12,
            "type": 2,
            "value": "0"
        },
        "fund_flow": [
            {
                "amount": "228,309.33",
                "from": "0xab782bc7d4a2b306825de5a7730034f8f63ee1bc",
                "id": 1,
                "isERC1155": false,
                "isERC721": false,
                "isReverted": false,
                "order": 1,
                "to": "0x8ebd9d796988993071d361616490fb71097421ed",
                "token": "0x0abdace70d3790235af448c88547603b945604ea"
            }
        ],
        "token_infos": [
            {
                "address": "0x0abdace70d3790235af448c88547603b945604ea",
                "decimals": 18
            },
            {
                "address": "0xc02aaa39b223fe8d0a0e5c4f27ead9083c756cc2",
                "decimals": 18
            },
            {
                "address": "0xeeeeeeeeeeeeeeeeeeeeeeeeeeeeeeeeeeeeeeee",
                "decimals": 18
            }
        ]
    },
    "address_label": {
        "labels": [
            {
                "address": "0xeeeeeeeeeeeeeeeeeeeeeeeeeeeeeeeeeeeeeeee",
                "label": "Ether"
            },
            {
                "address": "0xab782bc7d4a2b306825de5a7730034f8f63ee1bc",
                "label": "Bitvavo: Hot 3"
            },
            {
                "address": "0xf8094e15c897518b5ac5287d7070ca5850efc6ff",
                "label": "District0x: Token Sale"
            },
            {
                "address": "0x0abdace70d3790235af448c88547603b945604ea",
                "label": "District0x: DNT Token"
            },
            {
                "address": "0x0000000000000000000000000000000000000001",
                "label": "Precompiled"
            },
            {
                "address": "0x0000000000000000000000000000000000000002",
                "label": "Precompiled"
            },
            {
                "address": "0x0000000000000000000000000000000000000003",
                "label": "Precompiled"
            },
            {
                "address": "0x0000000000000000000000000000000000000004",
                "label": "Precompiled"
            }
        ]
    },
    "trace": {
        "accountLabels": null,
        "dataMap": {
            "-1": {
                "invocation": {
                    "address": "0xab782bc7d4a2b306825de5a7730034f8f63ee1bc",
                    "callData": "",
                    "decodedMethod": null,
                    "errorInfo": "",
                    "fromAddress": "",
                    "gasUsed": 0,
                    "id": -1,
                    "methodDecoded": false,
                    "operation": "",
                    "output": "",
                    "revert": false,
                    "revertMessage": "",
                    "selector": "",
                    "status": false,
                    "value": ""
                },
                "nodeType": 0
            },
            "0": {
                "invocation": {
                    "address": "0x0abdace70d3790235af448c88547603b945604ea",
                    "callData": "0x0000000000000000000000008ebd9d796988993071d361616490fb71097421ed000000000000000000000000000000000000000000003058ac6fb053ba150000",
                    "decodedMethod": {
                        "callParams": [
                            {
                                "name": "_to",
                                "type": "address",
                                "value": "0x8ebd9d796988993071d361616490fb71097421ed"
                            },
                            {
                                "decimalAvailable": true,
                                "name": "_value",
                                "type": "uint256",
                                "value": "228,309,330,000,000,000,000,000"
                            }
                        ],
                        "constructorArguments": "",
                        "name": "transfer",
                        "returnParams": [
                            {
                                "name": "",
                                "type": "bool",
                                "value": true
                            }
                        ],
                        "signature": "transfer(address,uint256)"
                    },
                    "errorInfo": "",
                    "fromAddress": "0xab782bc7d4a2b306825de5a7730034f8f63ee1bc",
                    "gasUsed": 111756,
                    "id": 0,
                    "methodDecoded": true,
                    "operation": "CALL",
                    "output": "0x0000000000000000000000000000000000000000000000000000000000000001",
                    "revert": false,
                    "revertMessage": "",
                    "selector": "0xa9059cbb",
                    "status": true,
                    "value": "0"
                },
                "nodeType": 0
            },
            "1": {
                "invocation": {
                    "address": "0xf8094e15c897518b5ac5287d7070ca5850efc6ff",
                    "callData": "0x000000000000000000000000ab782bc7d4a2b306825de5a7730034f8f63ee1bc0000000000000000000000008ebd9d796988993071d361616490fb71097421ed000000000000000000000000000000000000000000003058ac6fb053ba150000",
                    "decodedMethod": {
                        "callParams": [
                            {
                                "name": "_from",
                                "type": "address",
                                "value": "0xab782bc7d4a2b306825de5a7730034f8f63ee1bc"
                            },
                            {
                                "name": "_to",
                                "type": "address",
                                "value": "0x8ebd9d796988993071d361616490fb71097421ed"
                            },
                            {
                                "name": "_amount",
                                "type": "uint256",
                                "value": "228,309,330,000,000,000,000,000"
                            }
                        ],
                        "constructorArguments": "",
                        "name": "onTransfer",
                        "returnParams": [
                            {
                                "name": "",
                                "type": "bool",
                                "value": true
                            }
                        ],
                        "signature": "onTransfer(address,address,uint256)"
                    },
                    "errorInfo": "",
                    "fromAddress": "0x0abdace70d3790235af448c88547603b945604ea",
                    "gasUsed": 2879,
                    "id": 1,
                    "methodDecoded": true,
                    "operation": "CALL",
                    "output": "0x0000000000000000000000000000000000000000000000000000000000000001",
                    "revert": false,
                    "revertMessage": "",
                    "selector": "0x4a393149",
                    "status": true,
                    "value": "0"
                },
                "nodeType": 0
            },
            "2": {
                "event": {
                    "contract": "0x0abdace70d3790235af448c88547603b945604ea",
                    "decodedLog": {
                        "name": "Transfer",
                        "params": [
                            {
                                "name": "_from",
                                "type": "address",
                                "value": "0xab782bc7d4a2b306825de5a7730034f8f63ee1bc"
                            },
                            {
                                "name": "_to",
                                "type": "address",
                                "value": "0x8ebd9d796988993071d361616490fb71097421ed"
                            },
                            {
                                "decimalAvailable": true,
                                "name": "_amount",
                                "type": "uint256",
                                "value": "228,309,330,000,000,000,000,000"
                            }
                        ],
                        "signature": "Transfer(address,address,uint256)"
                    },
                    "id": 2,
                    "logData": "0x000000000000000000000000000000000000000000003058ac6fb053ba150000",
                    "logDecoded": true,
                    "operation": "EVENT",
                    "revert": false,
                    "status": true,
                    "topics": [
                        "0xddf252ad1be2c89b69c2b068fc378daa952ba7f163c4a11628f55a4df523b3ef",
                        "0x000000000000000000000000ab782bc7d4a2b306825de5a7730034f8f63ee1bc",
                        "0x0000000000000000000000008ebd9d796988993071d361616490fb71097421ed"
                    ]
                },
                "nodeType": 1
            }
        },
        "gasFlame": [
            {
                "children": [
                    {
                        "children": [
                            {
                                "children": [],
                                "depth": 0,
                                "name": "Initial Gas",
                                "value": 21656
                            },
                            {
                                "children": [
                                    {
                                        "children": [],
                                        "depth": 1,
                                        "name": "onTransfer",
                                        "value": 2879
                                    }
                                ],
                                "depth": 0,
                                "name": "Executed Gas",
                                "value": 90100
                            }
                        ],
                        "depth": -1,
                        "name": "Actual Gas Used",
                        "value": 111756
                    },
                    {
                        "children": [],
                        "depth": -1,
                        "name": "Refunded Gas",
                        "value": 0
                    }
                ],
                "depth": -2,
                "name": "Total Gas",
                "value": 111756
            }
        ],
        "isConfirmed": true,
        "mainTrace": [
            {
                "children": [
                    {
                        "children": [
                            {
                                "children": [],
                                "depth": 1,
                                "id": 1,
                                "order": 1
                            },
                            {
                                "children": [],
                                "depth": 1,
                                "id": 2,
                                "order": 2
                            }
                        ],
                        "depth": 0,
                        "id": 0,
                        "order": 0
                    }
                ],
                "depth": -1,
                "id": -1,
                "order": -1
            }
        ],
        "mainTraceNodeCount": 3,
        "parentIdMap": {
            "0": -1,
            "1": 0,
            "2": 0
        },
        "tidyTrace": [
            {
                "children": [
                    {
                        "children": [
                            {
                                "children": [],
                                "depth": 1,
                                "id": 1,
                                "order": 1
                            },
                            {
                                "children": [],
                                "depth": 1,
                                "id": 2,
                                "order": 2
                            }
                        ],
                        "depth": 0,
                        "id": 0,
                        "order": 0
                    }
                ],
                "depth": -1,
                "id": -1,
                "order": -1
            }
        ],
        "tidyTraceNodeCount": 3
    },
    "state_change": {
        "stateChanges": [
            {
                "address": "0x0abdace70d3790235af448c88547603b945604ea",
                "erc": "ERC-20",
                "slots": [
                    {
                        "current": "0x00000000000000000000000000000000000000000000000000000000000003ac",
                        "key": "0xae9c850b8b3d732900edd384665dc6ed7284291a0afdcb9cf35a95adbfd8a684",
                        "prev": "0x00000000000000000000000000000000000000000000000000000000000003ab"
                    },
                    {
                        "current": "0x000000000007c7fb9672c5a58e2d78f000000000000000000000000001300f79",
                        "key": "0x322518ba3b5042ec9cff736c89582740a68945dc4e5f1580b1df613754881433",
                        "prev": "0x0000000000000000000000000000000000000000000000000000000000000000"
                    },
                    {
                        "current": "0x0000000000000000000000000000000000000000000000000000000000000376",
                        "key": "0xff47764aa6f9637c14140908bb0e1603ed25688c1bb7ece84727b2b73c21adb3",
                        "prev": "0x0000000000000000000000000000000000000000000000000000000000000375"
                    },
                    {
                        "current": "0x0000000000003058ac6fb053ba15000000000000000000000000000001300f79",
                        "key": "0x26a767b9380f6634fc536dda9683f6bbc6f2cd66ad6b15acc28c60474b56fda4",
                        "prev": "0x0000000000000000000000000000000000000000000000000000000000000000"
                    }
                ],
                "storageVariables": []
            }
        ]
    }
}